A0101413860000000145093ASUNCION, LETICIA MOJICA OR                             10502
A0101413860000000145093ASUNCION, RONALD                                        20500
A1401400110492575977001HERRERA, MA. BULAKLAK ROSAS                              0501
A3001400130230767566041ABADIANO, EDGARDO BACALSO                                0504
A6601400120000001065332POQUIZ, LORNA VICTORIA RAMIS                             0501
A0101402510341514366001**********                                               0501
B2401400180411043569001PHOENIX UNIVERSAL MEGA GAS STATION                       1605
B2401400180411044838088DAVAO MULTIBUILD CORPORATION                             1605
A2401400180411344858001CHUA, MAGDALENA SALAZAR                                  0501
A2401400180411455559001VENDIX GEN. MERCHANDISE                                  0501
A2401400180411478374004MESRIYA ABDULLAH                                         0501
A4101400260812423341001ESTEFANIA B. RANDOY                                      0505
A0101400860000002333499**********                                               0502
B0101400860011394967002**********                                               1605
A0101400860011395102002**********                                               0502
A0101400860011428673001**********                                               0502
A0101400860011478374003**********                                               0502
A0101400150000006759831AJAY PHLIP                                               0501
B0101400150000005015489ADSTRAT ADVERTISING STRATEGIES, INC                      1601
A0101400150061227860001ARISTEO E. DORIA OR                                     10503
A0101400150061227860001JADE CELINE J. DORIA                                    20500
A0101400150061236944092RICHMOND B. ZABALA                                       0501
A0101400150061632791001LYD MARITONI LOURDES O.LUNA OR                          10501
A0101400150061632791001DIOSDADO L. LUNA                                        20500
A0601400520000002271023GARCIA, PRISCILLA MIRANDA                                0501
A0101413280000002317682**********                                               0502
A0101410850000003503573NATURAL LOGISTICS, INC.                                  0501
A0101410850109060713001MOLINA, E DBU MEGASDM                                   10501
A0101410850109060713001INDUSTRIAL SALES                                        20500
A0101400730111199724001DAVID, JERRY M.                                          0501
A0101400730111477184001MARCOS, BEVERLY MEYAS                                    0502
A0101413150000001067130SZE, NANCY BALDUGO                                       0501
A0101413150000002299381SZE, NANCY BALDUGO                                       0501
A0101413150000002299392SZE, JACKYSON BALDUGO                                    0502
B0101401830000000033581CARITAS SALVE CREDIT COOPERATIVE                        11601
B0101401830000000033581(BULACAN) 003                                           21600
B0101401830000001140003MAUREEN T. MOZO DBU MONARISA ACCOUNTING                 11601
B0101401830000001140003SERVICES                                                21600
A5001400170000002288311VILLAMIL, MARISSA PULIDO                                 0501
A0101412920000001313780ANGELES, THEODOSIA BUSUEGO                               0501
A0101412920000003465029JAVIER, JJ CAFE                                          0502
A0101400440161039572023JIMMY S. PALISOC                                         0501
A0101400440161520766189PRESCILA P. DOTONG                                       0501
A0101401090171195863002ERLINDA B. REYES                                         0510
A0101401090171195863002ERLINDA B. REYES                                         0510
A0101401090171380619001VILLAMIN, CHARLES ABRAHAM C.                             0501
A0301400530000000066044**********                                               0503
B0301400530193043054001TAGUM CITY COUNCIL OF WOMEN, INC.                        1605
B0301400530193406201168*** ****** ***                                           1602
B0301400530193792821088LI, DENNIS JOSEPH T.                                     1601
B0101410720210024872001THE CITADEL CHURCH                                       1601
B0101410720653031938001YIGGM CORPORATION                                        1606
A0101412500000006974618AGCAOILI JR., ROGELIO VICTOR JA                          0501
A0101413600000002276406GERRY C. ABANILLA                                        0505
B3101400160221033214001RD CASH PADALA, INC. AREA 02                             1603
B3101400160221061207001BIKEWORLD CREDIT CORPORATION                             1601
B3101400160221061214001BIKEWORLD INC                                            1601
A3101400450000003072506COSICO, DAVID ARNOLD GESMUNDO                            0502
A3101400870000000074811ARAPAN, VIVENCIO AGUPITAN                                0501
A1001400190231478374179BACAN, JULIET                                            0501
A1001400480000002300372GALUT, MYRNA MANGALLAB                                   0502
B1301400470000000009561FUND LINK CREDIT & LOANS, INC.                           1602
B0101406460000000182483WEE COMMUNITY DEVELOPERS, INC.                           1604
A0101406620000002009110CALAOR, HYGEIA                                           0501
A0101400570000002329739LIM, STEPHANIE RISSA WE                                  0501
A0801400160311029906001************                                             0502
A0801400160311478374004MAELYN HACERMIDA                                         0501
A0801400160311478374037EDNA T. CARIAGA                                          0502
A2001400290315673185001TAHIR, SAMSODIN TOMAWIS                                  0502
A3401400280000002323371RAYMUND D. BUENSALIDO OR                                10505
A3401400280000002323371SHIRLEY B. BUENSALIDO                                   20500
A0101405650322170618002SAN PEDRO, TERESITA S.                                   0503
B0101402510341008081001CEU DENTAL ALUMNI ASSOCIATION                            1602
B0101409050352044362001COREWARE TECHNOLOGIES INCORPORATED                       1605
B0201400920375038353001WEST OCEAN LINES & TRANSPORT, INC.                       1604
B0201400920000000047863KOWEN LOGISTICS COMPANY                                  1602
A02014008900000055083893TRENT TRADING                                           0501
A0201400890376080642001GALANG, LORLIE PACURIBOT OR                             10502
A0201400890376080642001GALANG, GLENN AN                                        20500
B0101402930381021740001YOSHINOYA CENTURY PACIFIC INC.                           1601
A0101402930381205134001EDMUNDO SANIEL OR                                       10501
A0101402930381205134001MEDIADORA SANIEL                                        20500
B0101402770000000080613SPRAYED POLYURETHANE FOAM SYSTEM                        11605
B0101402770000000080613CORPORATION                                             21600
B0101402770000001571604MC GENTECH BUILDERS CORP.                                1601
B0101409180397777777008DHOLWANI, GEETA OR DHOLWANI, MADHU OR                   11601
B0101409180397777777008WANI, VICTOR OR                                         21600
B0301400820409091735055DAVAO HOME BUILDERS CENTER OR LIMA,                     11603
B0301400820409091735055DIANA                                                   21600
B1201400150421020444001INFORMATICS BAGUIO CITY CENTER INC.                      1605
A1201400150000001863312LAO, IMELDA DBU LINDI HOTEL                              0505
A0901400220432339854001**********                                               0502
A0901400220000001805090**********                                               0502
A0101403320000001803134LUCAS, LAURENCE PEREZ                                    0502
A0101403320000004830995GATTECH SUPPLY AND ENGINEERING                           0505
A0101412760000000767762MERCADO, LORNA DIMAFELIX                                 0501
B1901400160491341189001VIRGINIA R VARGAS OR                                    11601
B1901400160491341189001RICHARD D LIM                                           21600
A1601400170000001068673CHRISTOPHER DOUGLAS G. GIMENEZ                           0506
A0101407430503184785001PATRICIA Q. AUSTRIA                                      0502
B0101403580511005607002RAM FOOD PRODUCTS, INC.                                  1605
B0101403580000002185424M22 BUILDERS INC.                                        1605
A0101403580511150751001VIOLA V. CRUZ OR                                        10505
A0101403580511150751001RUFIA DOROTHY C. VERA                                   20500
A0101403580511153476009THERESITA S. TIU                                         0505
A0101408530000003519384DEBBIE ROSE S. SANTOS                                    0502
B0101411790000002658308BRAINSWAY ASIA INC.                                      1601
A0101403450521012086001**********                                               0502
A0101403450521238148001**********                                               0501
A0101403450521239535001******                                                   0501
B0101404130000004437172GAME CRAFT, INC.                                         1602
B0101404130000004437183GAME CRAFT, INC.                                         1602
B0101404130000004437194GAME CRAFT INC.                                          1602
B0101404130000005017674IPRUDENTIAL STEVEDORING AND PORT                        11602
B0101404130000005017674SERVICES INC                                            21600
A0101404130601771995001RAMOS, TERESITA CARRETERO                                0501
B0101407720000004959920INFORMATION TECHNOLOGY SECURITY                         11602
B0101407720000004959920DISTRIBUTION INC                                        21600
A0101407720602396744002ANG, JENNIFER CU                                         0502
A0101412180000006875310YASON, EMIL MONZONES                                     0501
A0101413440000002125257*******                                                  0510
A0101413440000001472806ONGTIOCO, ELSIE BAUTISTA                                 0506
A0101410300000000191917CABARRUS, GRACE K. OR CABARRUS,                         10503
A0101410300000000191917GEORGE DENNIS K.                                        20500
A1301400210682159793001VALENTINA A ALFARO                                       0502
B0101408240711007466001VJ PROPERTIES, INC.                                      1602
A0101408240711606837001MAYS, CHERYL ANN                                         0501
A2801400230713771317001NACIONAL, NATHANIEL ARZAGA                               0501
A4101400260000005333471RAPISTA, JOHNNY APISTAR                                  0502
A4101400260000000002142TAJANLANGIT, JACKIE C.                                   0501
A4101400260812565457001DEMANDANTE, CELSO VILLAREAL                              0501
B4101400550815040991001DRAGON LORCAM TRADING CORPORATION                        1603
A4101400550000003266982*****                                                    0501
A4101400550815637014001AMANTE, ROGELIO DE LORETO                                0503
A0101404840851690624001ESTRELLA, CRISTY PEDRAZA                                 0501
A0101406750000006974010PARADO, RAY ANTHONY SERRANO                              0501
A0101406750000006974050REGUDO, GLENN ILARDE                                     0501
A0101406750852529156002DONGUINES, FLORDELIZA EULLARAN                           0501
A0101413860000002314205VALIENTE, MARILYN CAMPOSANO                              0501
