B0301400530193821100608**********                                               2010
B0101413440655064616001TRAJICO, SENANDO DBU JT SEANTRA                         11601
B0101413440655064616001PLUMBING WORKS                                          21600
B1101400120000000652391ONG, VIRGINIA PO OR ONG, WEE CHI PO OR                  11602
B1101400120000000652391ONG, WAN LIAN PO                                        21600
A0101414120000000398921MC DAGGLE'S CONSTRUCTION &                              10502
A0101414120000000398921TRADING                                                 20500
A1101400120000001920714TAMAYO, ALMA A. OR                                      10501
A1101400120000001920714TAMAYO, GERARDO                                         20500
A1101400120000006186478BOLECHE, MERLINE BANDALA                                 0502
A1001400350233042653001BLUE ENERGY RESOURCES                                    0502
A0101414120000007655254ZHUANG, JUNMIN OR                                       10501
A0101414120000007655254DE JESUS, WILTON                                        20500
B0101414120000003584281JD & P FOOD TRADING CORPORATION                          1602
B1001400350233036080001SOROPTIMIST INTERNATIONAL OF CAGAYAN                     1601
B1001400350233540058188**************                                           1603
B5501400120000000046853LAUNDRYWORLD LAUNDRY SYSTEM CORP.                        1603
B0101400860011242516001*********                                                1604
A0101400860000001005343**********                                               0505
A0101400860011496074002**********                                               0501
A0101400860011546416001**********                                               0502
B0101400150000001708447PHILIPPINE VENDING CORPORATION                           1605
B0101400150000004090219HOLCIM RESOURCES AND DEVELOPMENT CORP                    1602
A0601400100000007599522EMBORONG, LAARNIE VILLACRUSIS                            0501
A0601400360000000978732MAGTIRA, J DBU SAINT HOMOBONUS                          10502
A0601400360000000978732PHARMA HEALTH EN                                        20500
A0601400520000002086017**********                                               0505
A0101410850000009217410MONREAL, GERONIMO AGUILAR                                0501
A0101410850109051774001PANDE, ELEAZER JT DBU DENMARK                           10505
A0101410850109051774001TRUCKING & GEN.                                         20500
A0101400730111196336001CHAN, ILDEFONSO M. OR                                   10502
A0101400730111196336001CHAN, VALORIE F.                                        20500
A0101401960000007533420**********                                               0501
B0101401960121012201001ARCTUS ENTERPRISES, INC.                                 1606
A0101401960000000211014WEE, JOHANNE THOMSON TAN                                 0502
A0101412630000004062064BANZUELA, ELEANOR ADORNA                                 0502
A0101413310000005433363VILLASENOR, MARJORIE ALABADO                             0501
B0101401830141029955002SHELL EMPLOYEES MULTI-PURPOSE COOP. -                   11605
B0101401830141029955002CANTEEN                                                 21600
A0101401830141206435001EMMA G. CHUA                                             0503
A0101400440161525001173ELIZABETH V. FAJARDO                                     0501
A0101401090171198489001ROSEMARIE D. ORDINARIO                                   0501
A0101401090171476046001MARIA VENUS P.LIM OR MARUJA                             10502
A0101401090171476046001PRADA OR VISITAC                                        20500
A0301400530193585849001COSMENO, MARINEO C.                                      0502
A0101401380201502664001LEY, RICHARD NOEL CO                                     0501
A0101413020000003353820PRINCESA, MA CONCEPCION ESGUERR                          0502
A0101410720000006239767DUPAYA, JACQUELINE ESPINOSA                              0504
A0101410720653288723001BARANGAN, JOSEPHINE TUNGPALAN                            0505
A3101400450223223483001GALVEZ, RODOLFO OR ANGELINA                              0505
A3101400450223478374004MORENO, JONALYN                                          0501
B1001400190231015575001*****                                                    1601
A1001400190000002170565CHABON, CLAI DBU SOUTHERNFIELDS                          0502
A1001400480000003357715OCERO, SHERLITA TUPAS OR OCERO                          10502
A1001400480000003357715MAUREEN ECHAVEZ                                         20500
A1301400760000005989691ANGELO REYZER C. TULOD OR                               10503
A1301400760000005989691SHYLYN S. TULOD                                         20500
A0101401670000006975531SUBIDA, MARY ARENAS                                      0501
A0101401670271295409001AGUSTINA B. GARCIA OR                                   10503
A0101401670271295409001PRECIOSA B. GARCIA                                      20500
B0101406620000000194041ZIOSOFT INC.                                             1601
A0101408660000006296779GO, KENNETH SILAYAN                                      0501
A0101410980000006014379AITWINS INTERNATIONAL TOURS                             10503
A0101410980000006014379CONSULTANCY SERVICES                                    20500
A0101400570281388539032RAMOS, MYRA M.                                           0501
A2601400270000000561740EMILIA M. BAUTISTA                                       0503
A2601400270000002677547MILA R. VALDEZ                                           0503
A1101400120000000652511BASTIAS, ROSANNA QUISUMBING                              0503
B1101400120313036429001PERPETUAL HELP MULTI-PURPOSE COOPERATIVE                 1610
A1101400120000000652362YANG, ROSITA GO OR UY,TIA SHENG                         10502
A1101400120000000652362OR UY, JOSEPHINE                                        20500
A6601400120000001370730GACUSAN, MIRIAM PATENO                                   0501
A6601400120314415183001UY, CHRISTIAN EMMANUEL OR                               10501
A6601400120314415183001UY, FLORIANE                                            20500
A6601400120314618149001DY, FRANCO NEIL TUBELLO                                  0505
B0101402350321434411001JOMANIQ COMMERCIAL AND DEVELOPMENT                      11605
B0101402350321434411001INCORPORATED                                            21600
A0101402350321478374048GLENDA D. ESTRELLA                                       0501
B0101402510341024728001YAHU "G" FOODS CORPORATION                               1605
A0101402060351211701003MA. DOLORES C. DANNUG OR                                10503
A0101402060351211701003EDNA S. CABALDE                                         20500
A0201400920000000991711MAGDUA, MAY ANN DARUNDAY                                 0502
B0201400920375743969001*********                                                1601
B0201401020000000005045REMITBOX CORPORATION                                     1605
B0101402930381009648001CHRIST'S COMMISSION FOUNDATION, INC.                     1610
A0101408370000006446251GERIO, KEVIN ISIAH RANA                                  0501
A0101408370382372061001DR. ELSA S. DIONISIO                                     0501
A0101408950396561962001DR. JONNEL LUGOD LIM                                     0503
A0101408950396565384001LABAO JR., ROMEO OCOL                                    0501
A0301400820000004745882ABADIA, ROLANDO B.                                      10501
A0301400820000004745882DBU ROSELAND TRADELINK                                  20500
B2401400180411058219001BRIGADA PHARMACY, INC.                                   1620
A2401400180411577534001LASOLA, EDITHA RIVERAL OR                               10502
A2401400180411577534001LASOLA, ROGELIO                                         20500
B1201400150421393051002CHENG, NIDA M. OR CHENG, VENJOHN M.                      1610
B0901400220000000012175FLORIVEL M. DE JESUS ACCOUNTING OFFICE                   1602
A0901400220000006214400**********                                               0503
A0101403030441401301003**********                                               0501
A0101412890000002747824************                                             0501
A0101410140475339949001SANTOS, ADORACION SANCHEZ OR                            10505
A0101410140475339949001SANTOS, MYRNA SA                                        20500
A0101410140000001939739MEMBERS OF NATASHA (SHOECAT INC                          0501
A0101412760000002067552VILORIA, REMEDIOS O. OR                                 10502
A0101412760000002067552VILORIA, EDUARDO                                        20500
A0501400170000000494662PALAGANAS, KATHRYN S DBU EASY L                          0503
A1401400110492320667002AVERIA, SOLOMON DY OR                                   10501
A1401400110492320667002AVERIA, MA.SARAH                                        20500
A1401400110000003988996CARCIDO, JEFFERSON CU                                    0501
A1601400170000000497423MENCHU R. BUADO                                          0501
A0101407430503706279001REINA V. ROSELLOSA OR                                   10501
A0101407430503706279001DANNY BOY E. ROSELLOSA                                  20500
A0101408530000001268491GLEN HOWARD P. SALAMAT                                   0501
B0101403450521021842005WALL VISION CORPORATION                                  1605
A0101403450521753734001TAN, BENJAMIN MASA                                       0503
B0101403610531706312001MEDCARE HEALTHLINE INC.                                  1601
A0101404000000003707475JACK RICH JP A SALILLAS                                  0501
A0101404000000003707475JACK RICH JP A SALILLAS                                  0501
A0101407720000000713131SANTOS, MARIA CLARIZA M.                                 0501
B0101407720602029151001R.H. CULLEN MEDICAL CLINIC                               1601
A0101407720000003099201VENTURANZA, MARIA EDURNE                                10502
A0101407720000003099201GOTANCO                                                 20500
A0101407720602396498002CAPISTRANO, MA. EVELYN TORRES                            0501
A0101404260611037351001SMD JANITORIAL SERVICES                                  0501
A0101404260611478374115FE S. BONDOC                                             0501
A0101413440000002846422REYES, MARY JEAN ELECTA VILLANU                          0501
A0101406590662673251001ABARABAR, MARILOU YU                                     0501
A1301400210000001206751SANTIAGO, MA REMEDIOS OR                                10501
A1301400210000001206751SANTIAGO, DOJOE                                         20500
B1301400210000000915673EDCON CARGOTRANS, INC.                                   1602
A1301400340000000981977HIGH FLAME GAS CORPORATION                               0501
B2801400100712034844002MURAMI SUBIC TRADING CORPORATION                         1601
A2801400230000001734732CITY REJUVENATING SPA                                    0502
B4101400390813019416002STI COLLEGE-ROSARIO, CAVITE, INC.                        1602
B4101400390813560022001FAITH ACHIEVE PLASTICS CORP.                             1604
A4101400550000000981700CHAVEZ, RUBY ANNE ADA                                    0501
A4101400550815045531001JR-RK'S PIZZERIA                                         0501
A0101412340000006105391ARGIE D. CARDINAL                                        0501
A0101412340000003348634GABRIEL S. SALCEDO                                       0501
A0101404840851478374038EVANGELINE UMALI                                         0502
A0101404840851478374171LORENA A. ARES                                           0501
A0101406750000004642313QUEVEDO, MONALISSA MAYE MARCELI                          0502
B0101406750852041203001AUTOCIRCULO CORP.                                        1620
B0101406750000000090931GERODA PRESTIGE SOLUTIONS INC.                           1603
A0101406750000004641645FESTEJO, BIANCA JASA DBU BIANCA                         10502
A0101406750000004641645FESTEJO HAIR STA                                        20500
A0101405070861399414001RACELIS, DENNISE DINAQUE                                 0505
A0601400230000003015998CABRERA, JANET DE LEON                                   0501
A0601400230891556545001ENRIQUE P. GRANDA JR.                                    0501
