A1101400120000001920667CAMENFORTE, NEIL M. OR                                  10501
A1101400120000001920667CAMENFORTE, ELKE SHARON P                               20500
B1101400120000000653105PERPETUAL HELP MULTI-PURPOSE COOPERATIVE                 1605
A0101401090171196066001DRS. REDARIO OR MARY JOCELYN                            10502
A0101401090171196066001LAYGO                                                   20500
A0101401090171196066002MARY JOCELYN OR REDARIO LAYGO                            0502
B3101400160221020497001AGUA CALIENTE HOT SPRING RESORT                          1601
B0101411240283069724001ORANGE PILL CREATIVE AGENCY INC.                         1601
B1101400120313041635001JGC FINANCING COMPANY, INC                               1604
A0101412340000007404373ENJELICA D. TAN                                          0501
A0101400860000001005332***********                                              0504
A0101400860011479962001**********                                               0502
A0101400860011533026001**********                                               0502
A0101400860011550744001**********                                               0502
A0101400860011591125001**********                                               0503
A0101411370000005524421BATUIGAS, AURORA REBOQUIO                                0501
A0101400150000009995153NICDAO, MELINDA DOLOSO                                   0502
B0101400150061010809001VENDOME INSURANCE AGENCY KONSULT, INC.                   1603
B0101400150061026122002DDC LAND INC.                                            1610
A0101400150061041250001LM INDUSTRIAL TRADING                                    0501
A0101400150061641917001MATIAS, MARVIN SANTIAGO                                  0502
A0101400150000001422144VALERIO, IMEE ROBERT                                     0502
A0101400600071038169001******                                                   0501
A0101400600000000470062*******                                                  0501
B0601400100081013319001ANGELES CITY UNIVERSAL MARKETING                        11604
B0601400100081013319001CORPORATION                                             21600
B0601400100081034116001FIESTA COMMUNITIES INCORPORATED                          1610
A0601400100081046868001**********                                               0502
B0601400100000000032771PRESCRIPTO CORPORATION                                   1601
B0601400100000005690439DECORDESIGN, INC.                                        1601
B0601400100000005690462NEO-BABYLON HOTEL CORP.                                  1601
A0601400100081586342001AGUILAR, REMEDIOS SALAS                                  0502
A0101414090000001652477SANTOS, MARCELO J OR SANTOS,                            10503
A0101414090000001652477MYRNA MANGILIT                                          20500
A0101414090000006211643HAN, JIYOUNG                                             0501
A0101410560000010318264**********                                               0503
A0101410560110478374009SAUDILYN M. PENAS                                        0502
A0101400730000000833396CARBONELL, LEVINA IBALE                                  0502
A0101400730111392127002MILES, ELIZABETH G OR                                   10505
A0101400730111392127002JARIOLIN, MAJAR                                         20500
B0101401960121024740001**********                                               1606
A0101401960121362714002VILMA GUANLAO OR                                        10505
A0101401960121362714002VIENNA MARIE GUA                                        20500
A0101413150000000082740******                                                   0502
A0101401830141395434001DESIDERIO M. GROZMAN OR                                 10502
A0101401830141395434001CANDIDA M. GROZM                                        20500
A0101400440000001439663MEDCON PHARMA                                            0502
A0101407270000004915908LORENZO, TRICIA MARIE SOLANOY                            0501
A0101401090171063399001DE VILLA, A DBU ARETE RESEARCH                          10502
A0101401090171063399001& REVIEW CENTER                                         20500
A0101401090171199733001LOIDA R. MEDINA OR                                      10501
A0101401090171199733001CESAR C. MEDINA JR.                                     20500
A0301400530000011432921MATURAN, ZALDY BALAGOT DBU MATU                          0502
B0301400660000002348541ERVY LOGISTICS                                           1602
A0301400950000005707308**********                                               0504
A0301400950000008869076**********                                               0501
B0101401380201027949001HOMEAID DEPOT, INC.                                      1602
A3101400160000002355762LUCIDO, MARKLIN ALCANTARA                                0501
A3101400160221221196002LEONILO ERCIA                                            0505
A3101400160221533275001RODOLFO P LUNA                                           0502
A3101400870000008979793CHUA, SHIRLEY MIRANDA                                    0501
B1001400190000002266651GALLANA JR., EDGAR REY BILLIONED DBU FEM                11601
B1001400190000002266651TRUCKING SERVICE                                        21600
A1001400190231478374086LORNA A. OMANDAM                                         0501
A1001400190231520766024ALCOS, LIESIL SARIGUMBA                                  0501
A1001400190231520766119CABANO, BERNADITH CATIWALAAN                             0501
A1001400190231520766208LACRE, HAYDEE DAGPIN                                     0501
A1301400470000005394436SHELLA MARIE C. SANTOS                                   0501
A1901400290261298552013LEONILA QUESADA GUEVARRA                                 0501
A1901400290261298552066DOLORES SARMIENTO MANGUIAT                               0501
A1901400290261432900001JULIUS PIO AFRICA RANA OR                               10501
A1901400290261432900001CHARMAINE DE GUZMAN RANA                                20500
A0101406620000002009201GANCAYCO, MARIA CARMEN                                  10501
A0101406620000002009201BERNADETTE K.                                           20500
B0101406620000004595815ADVANCED GEOWORKS PHILIPPINES INC.                       1601
A0101410980000002303800SY, BRYLLE JANSTED YUCHONGTIAN                           0502
A0101411820000000477372FRANCESCA BIANCA MACAHILIG OR                           10501
A0101411820000000477372RALPH ANTHONY MACAHILIG                                 20500
A0101411820000001356252ALMARCK T. DELA PENA                                     0502
A0101412470000002295907PALANCA, NORMA QUIRINO                                   0502
A0101400570000011447880PEDROSO, ANGELA KRISTA VALMORIA                          0501
B0101400570000002104147AB1 MEGA BUILDERS INC.                                   1602
A0101400570281186537001DR. MENEFRIDA REYES                                      0503
A0101400570281293586001*****                                                    0502
A0101400570000000470604RABANAL, EVELYN TINONG DBU                              10502
A0101400570000000470604RAKIS FOOD SERVI                                        20500
A0101400570000001681847DEE, ANDREW YU                                           0501
B0501400200000004456913CBE ESTRADA PRIME HOLDINGS, INC.                         1605
A0801400160311478374008RODELYN LEBUNA                                           0501
B1101400120313038526001LEYTE LUMBER YARD & HARDWARE CO.INC                      1604
A1101400120000009119546DUGANG, DAYLENE A.                                       0501
A6601400120000000060562CO, TOMAS OR CO, HELEN                                   0503
A6601400120314670645001AGONIAS, PAULINA CASINAS                                 0501
A2901400130000005961253YABUT, MARK ARBUES DELA CRUZ DB                          0502
B0101402350321015321001BEST CHOICE MINIMART INC.                                1603
A0101405650000002325582AVILA, EVELYN GAMORAS                                    0501
A0101405650322670876001INACAY, VICTORIA T. OR                                  10501
A0101405650322670876001INACAY, ORLANDO                                         20500
A0101402060351349598001MORANO, CATHERINE GUINTO                                 0501
A0101402060000005137235VALENZUELA, DANTE SONEJA                                 0501
A0101409050000006986590RUIVIVAR, KATHRINA JOYCE BOCOBO                          0502
A0101409050000007511931GALLEGO, MARIA MONINA ANGELO                             0501
B0201400890376042888008NEW CITY MARKETING                                       1601
A0201401020000003031129DEL PRADO, JOSE VICE DBU DE LAR                          0502
B01014029300000056460953PEAS IN A POD, INC.                                     1603
A0101408370000006446142CHIONGLO, PHILLIPE RAY SAN                              10501
A0101408370000006446142MIGUEL                                                  20500
A0101408790000008503013BADINAS, BERNADETTE BERNABE                              0502
A0101415350000012418609CANIZARES, CHRISTINE LEIGH D.                            0501
A0101415350000012418650DEL ROSARIO, SHERYL CARANDANG                            0501
A0101402770391355762061RAMIL C. TELAN                                           0501
A0101402770391355762068CONDA, ERIC MADRIDEO                                     0501
A0101405490392034138001MCMAR & MARY ELECTRICAL                                 10501
A0101405490392034138001& CONSTRUCTION S                                        20500
A0101405490392654055001ROA, MIGUEL GUILLERMO P. OR                             10501
A0101405490392654055001ROA, MA CONCEPCION P.                                   20500
A0101408400000001855416EBRON, ANA LEA SADIA                                     0501
A0101408400394327671001MANALO, MARLON SEXON                                     0501
A0101408400394563679001TAN, ELSA ALFORJA                                        0501
A0101408950000008995384DE RAMOS, MARIA FEBI BILLONES                            0501
A0101408950396565472001DEBBIE GUANI DY MEGUIZO OR                              10504
A0101408950396565472001DONALD JUDE UY MEGUIZO                                  20500
A0101408950000002255461GERON, MARIA ANNA VANESSA A.                             0501
A0301400820000001185780RUFEROS, ROY KENNETH OR                                 10501
A0301400820000001185780AREVALO, MICHELLE                                       20500
A0301400820000010907161GAGARIN, REWARD S.                                       0503
A5501400120410691763008DR. JANET P. CELIZ                                       0502
A1201400150000009997159ANGEL ACE'S COMMERCIAL                                   0502
B1201400150421039171001PILIPINAS METDEV INC.                                    1602
A1201400150421301485002GO, ROLANDO DISTOR                                       0502
A5101400100000010371461ACTUB, JONELYN BERNASOL                                  0503
A5101400100000010834012ABELANIO  DAFFODIL WYNNROSS NOT                          0501
B0101403030441039990001TOPTRUCK ENTERPRISES                                     1601
A0101403030441344484001**********                                               0502
A0101403320471570181001EMMA R. LIM                                              0503
A0101403320471645863003JOAN R SANTOS                                            0501
A0501400170000005002895BEGUAS, BENEDICT PARAAN                                  0501
B0501400170481018109002CSI WAREHOUSE CLUB INC.                                  1605
A1901400320000009104290BUTED, KATRIN ERIKA ALCANTARA                            0503
A3801400170000002302852NICA RAVEN A CHUA                                        0501
A3801400170000005702723DE LEON, ANTONIO ROXAS OR                               10501
A3801400170000005702723DE LEON, JESITA                                         20500
A1901400160000005632617ACIELO, LEVY MALIBIRAN OR                               10501
A1901400160000005632617ACIELO, LEO ALARO                                       20500
A1901400160000000243683RENILO BALMES PANGANIBAN                                 0501
A1901400160491641033001ULYSSES M CHAVEZ OR                                     10502
A1901400160491641033001LETICIA M CHAVEZ                                        20500
B1401400110492028287001MARYHILL COLLEGE, INCORPORATION                          1605
A1401400110492478374010BACULI, TERESA D.                                        0503
B1601400170000000421183MICHAEL M. CRUZ AND                                     11601
B1601400170000000421183FRENESI D. CRUZ                                         21600
A0101408530000010282856SANTOS, MARIEL SANDRA TAPIA                              0501
A0101408530000001268708ZOBEL, JACOBO TRISTAN CARDENAS                           0510
B0101411400000008249952ONG&ONG, INC.                                            1602
A0101411790000002275921UY, DENZIL TAN                                           0501
A0101411790000009724472PANALIGAN, GLADY DIMAANDAL                               0501
A0101411790000009724472PANALIGAN, GLADY DIMAANDAL                               0501
B0101411790000007043876THE GOOD SEED SOWER FOUNDATION INC.                      1601
B0101411790000007043898GREAT AND BOUNTIFUL BLESSINGS FOUND                      1601
B0101411790000007043901GOOD TIDINGS FOUNDATION, INC.                            1601
B0101403450521012071001**********                                               1602
B0101403450521021842005WALL VISION CORPORATION                                  1603
B0101403450521026315001**********                                               1602
A0101403450521238095001**********                                               0502
A0101403450521238220001**********                                               0501
A0101403450521240618001**********                                               0502
A0101403450521392456001**********                                               0501
A0101403450521600868001********                                                 0502
A0101403610531182250001NERECENA, SYLVIA S.  OR                                 10502
A0101403610531182250001NERECENA, SHIRLEY                                       20500
A0101403610531370621001KUMAR, MANISH                                            0502
B0101410690600045550001BEST ELECTRICAL COMPONENTS (BEC), INC.                   1606
A0101404130601081357001GO, MERYL CANDICE LIM OR                                10501
A0101404130601081357001GO, JEANNE PAULI                                        20500
B0101407720000000885770LARRS SKIN SOLUTIONS, INC                                1605
A0101407720000006028291PEREZ, MARTESIO CABAHUG                                  0501
A0101407720000006028235DE LA ROSA, MARGARITA REGINA                            10502
A0101407720000006028235CASTILLO                                                20500
B0101407720000007951822INTELLIGENT BEAUTY SKIN SOLUTIONS INC.                   1601
B0101407720602602411002LOVE MY BODY, INC.                                       1601
A0101404260611150837001EMILIANO OR MARIETTA REYES                               0502
A0101409890649300585001LI, ELVIRA FRANCISCO                                     0502
A0101409920650478374005CRISOSTOMO, MA. EMELIA GASPAN                           10501
A0101409920650478374005MEMBERS OF NATASHA                                      20500
A0101407690000000587895MANLIMOS, AMALYN DELANI                                  0501
A0101407690652089748001VILLAFLORES, MICHAEL BAYLOSIS                            0502
A0101407690652318224001CABRERA, RODELIO EVANGELISTA                             0501
A0101413570000003379873SANGUYO, CHERYL JIMENEZ                                  0501
A0101413570000002249367MATEO, MA. ROMINA                                        0501
A0101413990000002962890BACOLOR, ALFREDO SOTERIO                                 0501
A0101414120000002879743DE GUZMAN, JENNY MERLIE APOLINA                          0501
B0101414120000007655436WELLFUND LOANS AND CREDIT CORP.                          1601
A0101406590000000568758BAUCA, MYRA MEDRANO                                      0501
A0101406590662207039001HORTENCIA A. BUENAVENTURA                                0501
A0101406590662207039001HORTENCIA A. BUENAVENTURA                                0501
A1301400210000000540685FAUSTINO, REMANDO II ILAG                                0501
A1301400210000002909362NEPOMUCENO, ANNABELLE TALUSAN                            0501
A1301400210682403812002DOMINGO P PASCUAL JR.                                    0505
B1301400340683398713001***********                                              1601
A1301400340000005264973MARCOS, MARVIN CUALA                                     0501
A1701400230693478374060ROMOSOD, ADELA PASCUA                                    0501
A2801400100712507515001PINEDA, JENIPHER VISDA       OR                         10502
A2801400100712507515001PINEDA, RAUL PER                                        20500
A4101400420814357382003REMULLA, GILDA VASQUEZ                                   0502
A4101400420814520766012SUSAN B. MALBOG                                          0501
A4101400420814761710001ASTRERA, DOLORES SARIGNAYA                               0501
A0101412340000007305757EVELYN D. ALVAREZ                                        0501
A0101412340000000224104MAGA, CATHERINE ROSE VELOSO                              0501
A0101412340000000319486ROJAS, ARCHIE ARVIN TORIBIO                              0501
A0101404840851478374098MARITES DERAYAL                                          0501
B0101406750852032718001PHILGREEN PLASTICS CORPORATION                           1602
B0101406750852491986001SPRINGPHIL TRADING & MFG. INC.                           1602
A0101406750000004641861SIMBUL III, FILEMON NICOLAS OR                          10502
A0101406750000004641861ADELFINA SIMBUL                                         20500
B0101406750852740034001MORE-NING SUN PACKAGING CORP.                            1602
A0101405070861380698001REYES SR., RENATO SISCAR                                 0501
B0601400230000002649927MJ EXPRESS CREDIT INC.                                   1605
