B0501400170481821100608**********                                               2010
A0301400950000001379477CCD AUTO HUB AUTO SERVICE                               10503
A0301400950000001379477CENTER                                                  20500
A0101401670000000237596TY, SHIRLEY MABASA                                       0501
A0201400920000002250011FELIX S. TAN OR SANDRA MAE TAN                          10501
A0201400920000002250011OR SAMANTHA ALYS                                        20500
A0101401250000008477209GOZO, ROSEMARIE ARANAS                                   0501
A0101401250000002290024JIMENEZ, MA. THERESA HILARIO                             0501
A0101411370000000903611RAMIREZ, MARISSA MARTINEZ                                0502
A0101400150000009401321RIMANDO, TIFFANY                                         0501
B0101400150000011138199EVIDENT STRATEGIC RESEARCH AND                          11602
B0101400150000011138199CONSULTING INC                                          21600
B0101400150061016942007ASIA PACIFIC EXPRESS CORPORATION                         1605
A0101400150061506307001BRANAL, LIMWELL LUNA                                     0502
A0101405810072234635002DY, SUSANA OR DY, DANILO                                 0501
B0101405810072372184001**********                                               1605
A0601400100000002072704LISING, FRANCIS GOMEZ or                                10510
A0601400100000002072704LISING, FRANKLIN                                        20500
A0101410560000005280502JANICE B. ORENDAIN                                       0502
A0101400730000000833396CARBONELL, LEVINA IBALE                                  0501
A0101400730000014276758ANINGALAN, ARVIN MACATANGAY                              0501
B0101400730000005593597NATASHA SALES & MARKETING CORP.                          1602
A0101406040000014388577DAVID, CASEY ANNE PASCO                                  0501
A0101401830141377758001********                                                 0503
A0101400440000001440000LAPASARAN, MARY GRACE FRANCISCO                          0503
B0101400440161032066001MTS TUTORIAL CENTER                                      1602
A0101400440000005393615BEFE C. ANGCAY                                           0502
A0101400440161525001104EVELYN G. GARCIA                                         0501
A0101400440161535732001JAY D. CULALA                                            0501
A0101401090171195836001DR. HONESTO B. LASAM                                     0501
B0301400660000012086623DVO ALUMINA INDUSTRIES, INC.                             1602
B0301400660000003361931YNIGO & YVANNA CONSOLIDATED CORP.                        1603
B0301400660000006755195LOPZCOM BUILDERS CORPORATION                             1603
A0101413600000005354883NESTOR P. BORROMEO OR                                   10503
A0101413600000005354883MARIA NONA BORROMEO                                     20500
A3101400160000006520032LLANES, MARGERY APOLEGA                                  0501
A3101400160000008941453JULIANO, JOSEPH ALABADO                                  0502
A1001400190000002170612BAJUYO, MARJORI B                                        0501
A1001400190000002170770LAGUMEN, LOUELLA CATALAN                                 0501
A1301400760000005989680REGUYAL,  ISRAEL CAYSIDO DBU                            10502
A1301400760000005989680ICR GENERAL BUILDERS                                    20500
A0101401670271465111001PATRICK S TANG OR                                       10502
A0101401670271465111001CLARITA S TANG                                          20500
A0101401670000013222423TALABUCON, VANESSA GRACE BUAT                            0502
B0101406460272025332001CATHAY LAND, INC.                                        1601
A0101406620273548072001BACANI, AMADOR CARLOS OR                                10501
A0101406620273548072001BACANI, AMANDA ISABEL                                   20500
A0101412470000002135991TIU, EDGAR ACORIN OR TIU,                               10510
A0101412470000002135991MARVIN ERICSON Y                                        20500
B0101412470000012117592**********                                               1602
B2001400290000007832451CGUILLON, FILAMIE SANAGUSTIN                             1605
B2001400290315047753001SILLIMAN UNIVERSITY COMMUNITY COOP.                      1620
A0101409050000006520270DANGELO HIPOLITO                                         0501
A0101409050352600066001FAYE CARLIE CRUZ OR                                     10501
A0101409050352600066001BENSON RYAN CRUZ                                        20500
B0201400760374026694001BULACAN HJR INTERNATIONAL CORPORATION                    1602
B0201400760374032939002GATEWAY MOTORS (CEBU), INC.                              1605
A0201400920000012764740SAMSON, ROREJOHN GANTUANGCO                              0501
B0201400920375034855001SHELLS TREASURES INTERNATIONAL CORP                      1605
B0201400920000013091162F & E ENTERPRISES, INCORPORATED                          1610
A0201400920375405086001ASAYAS, MARGARITA TUGAHAN                                0501
A0201400920375520766002NOVAL JR., ALVIN                                         0501
A0201401020377046499001TEH, MARIA ELENA BLANCO DBU                             10503
A0201401020377046499001E.T. PRINTSHOPPE                                        20500
A0101402930920130000152MANGUBAT II, GERONIMO SAMSON OR                         10501
A0101402930920130000152MANGUBAT, EILLEN                                        20500
A0101402930000010658223ANITA L BUENAVENTURA                                     0501
A0101415350000014453820GATUS, ARVIN DIAZ                                        0502
A0101415350000014453831BARTOLATA SR., CHRISTINE BAUTIS                          0501
B0101402770000001571671JB WALL SYSTEMS, INC.                                    1602
B0101402770000001571682ST. ARNOLD JANSSEN MULTI-PURPOSE                        11604
B0101402770000001571682COOPERATIVE                                             21600
A0101405490000003178432MIRIAM D. PANO OR MELANIO B.                            10503
A0101405490000003178432PANO JR.                                                20500
A0101405490000005692544TORRES, GENEVIEVE NENITA CERVAN                          0501
B0101405490392030564001NEW FS COOL AIRE INDUSTRIES, INC.                        1603
A0101408400000004959511TAN, JENNIFER PAJAROJA                                   0504
A0101408400000007905839VILLAR, CHRISTOPHER BUENO                                0502
A0101408400394434896002MEDESTOMAS, GILDA PANGANIBAN                             0501
A0101408400394434896003MEDESTOMAS, GILDA PANGANIBAN                             0501
A0101408400000006054553REGALADO, VILMA VELUZ                                    0502
A0101408950000015065995ASHTON, RICHARD MARTIN                                   0501
A0101408950000015079468RIOFACO, JANN LAUREEN LUCERO                             0501
B0301400820000001554792VIC IMPERIAL APPLIANCE CORP.                             1601
B2401400180411017908001LWC CYCLE MART, INC.                                     1602
B2401400180411031945001ABC DISTRIBUTORS INCORPORATED                            1605
B2401400180411038988088AIMICAN CORPORATION                                      1602
B2401400180411056764001RD PAWNSHOP, INC. - GENSAN REGION                        1603
A0101403030000011253842**********                                               0501
A0101403320000011173509ARIANE MADISON O. ALI                                    0501
A0101403320000010934262ANDREA T. LORIAGA                                        0501
A0101403320000000067532YAGUEL, SALVE L.                                         0501
A0101406330472348961001ROLANDO G. SILVA                                         0501
A0101410140000000482702LABASTIDA, ENGRACIO DOTOLLO                              0502
A0101410140000013900686MAGNO, RHACIELLE CRISTINA CAJUR                          0501
A0501400170000012558602CORNISTA, ALELI NAZARENO                                 0503
B0501400170481257491001CARING FOR THE FUTURE FOUNDATION INC                     1604
A0501400170481259032001DR. OSCAR RAMIREZ OR                                    10503
A0501400170481259032001DR. NENITA RAMIR                                        20500
A1901400160000003134909DR. BENSON B. CALAPIT                                    0502
B1901400160491027966001SALESFORCE ONE MARKETING, INC.                           1607
A1401400110492069392001TAN, K DBU GRANADILLAS PASSIFLO                          0503
B0101407430503030387003SAPPHIRE CARGO MOVERS INCORPORATED                       1602
B0101407430503034519001D.G.X. PHILS., INC.                                      1603
B0101403580000010847540CICLO SUERTE CORPORATION                                 1604
A0101403580511450939001MELVIN D. DELA CRUZ                                      0501
A0101405940000000505822DINGLASAN, JUAN JOSE ANTONIO                            10501
A0101405940000000505822FRANCO                                                  20500
B0101405940000008479030MY ONE BAHAY CORPORATION                                 1602
B0101408530516005188001SEARCHERS & STAFFERS CORP.                               1608
B0101411400000001280499ARMIJO & CO., CPAS                                       1602
A0101403450521238138001**********                                               0501
A2201400250000001932270DIZON, DANILO GAMBOA DBU NEW                            10504
A2201400250000001932270DAN'S ELECTRONIC                                        20500
A2201400250000009019858RTCO ARCHITECTURE                                        0503
A0101404130000010883340QUIRINO, MA. ROWENA MARCIAL                              0501
A0101404130601450174001MARISSA A. TALENTO                                       0501
B0101407720000011874823MEDI LINX LABORATORY INC.                                1602
A0101407720602387946001EDUARDO S. RONDAIN M.D.                                  0510
A0101412180000002340665CARANDANG, KRYZTLE VERONICA COR                          0504
A0101409890000006812962DIAZ, ALLAN AUSTRIA DBU METALLI                          0501
A0101409890649756574001DELOS REYES, MYRNA ANGA ANGAN                            0501
A0101409920650478374028RENDON, RENELYN GABATAN                                  0501
A0101407690000015082170LUCENA, DIVINO NICOLAS OR                               10501
A0101407690000015082170LUCENA, MARIE CEL BRAVO                                 20500
A0101407690652047335001******                                                   0510
A0101411530654089400002**********                                               0501
A0101413440000012579250DE GUZMAN, PABLITO OCAMPO                                0501
A0101413990000015077699TARDIO, CHARLES DE VEAS                                  0501
A1301400340000001415612********                                                 0501
A1301400340000012156182PERILLO, ANALES DALUS                                    0502
B1301400500684048103001VICTORY CHRISTIAN FELLOWSHIP OF                         11603
B1301400500684048103001MALOLOS INC.                                            21600
A1301400500000009723213VILLACORTA, MARWIN MALDICINO                             0502
A0101408240000015060170DEYTO, PATRICK PHILIP BRAVO                              0501
A2801400100712478374001BERNARD R. CORPUS                                        0504
A2801400100712718080001ABANTO, MARGIE LAT                                       0501
A2801400230000001734761FERMIDA CONSTRUCTION SERVICES                           10502
A2801400230000001734761AND SUPPLIES                                            20500
A4101400260000014840332LUNA, ROMMEL ALBA                                        0501
A4101400420000012882703ARENAS, CARLITO SALVADOR DBU                            10502
A4101400420000012882703LHC LAUNDRY HUB                                         20500
A4101400420814520766111COLETA, JEANNETTE C.                                     0502
A0101406750852529665001CALINISAN, ROMMEL AGUILAR                                0502
B0101405070861043213001TEKTON CONSTRUCTION CORP.                                1605
