A0101408950000000776774HWANG, MELODY CO                                         0501
A3001400130230687070138CERVANTES, SONIA BANAWA                                  0501
A0101407270000001597113JESUSA T. TARUN                                          0501
B0301400530193037617168PIONEER BUENAS COMMODITIES CORP.                         1620
A3001400130000000931231CHUBB'S AGRIVET SUPPLY AND                              10502
A3001400130000000931231GENERAL MERCHAND                                        20500
A3001400130000001261089LAM, PAUL ANDROME PINEDA                                 0501
A3001400130230796142001TANO, MERLINA RAGAS                                      0501
B1101400120000000652391ONG, VIRGINIA PO OR ONG, WEE CHI PO OR                  11602
B1101400120000000652391ONG, WAN LIAN PO                                        21600
A0101409180000005295321CHRISTINE RABAGO                                         0501
B0101403450000000889574***********                                              1605
A2201400250561309166001LENILIZA TANAMAL BUEN                                    0502
A2201400250561377607001JOSE L. MONTANCES                                        0503
A2201400250000000017290EUGENE Y. GO                                             0501
A2201400250561587972001PAULITA CONSTANTINO ROMERO                               0501
B0101417390000101010117**********                                               2101
A0101400860011422264001**********                                               0502
A0101400860011429717001**********                                               0502
B0101400860011487274001**********                                               1602
A0101400860011496074002**********                                               0501
A0101400860011550744001**********                                               0502
A0101400860011559979002**********                                               0501
B0101401250021185567001STA. CLARA PARISH SCHOOL                                 1605
B0101400150061010736001SPCASTRO, INC.                                           1605
B0101400150000001708447PHILIPPINE VENDING CORPORATION                           1605
B0101400150000001708458PHILIPPINE FOODSERVICE GROUP CORPORATION                 1605
A0101400150061304927001SIY, PATRICIA MAY TAN                                    0504
A0101400150061462184003***************                                          0501
B0101405810072019239002ROYAL PINNACLE ESTATES CORP.                             1601
B0101405810000000016851******************                                       1601
A0101405810072367597002WANG, GUO YANG                                           0502
A0101405810072383395001**********                                               0501
A0101405810072545732002DONG, LIANXU GONG                                        0503
A0101405810072573964001CHUA, JEFF SEBASTIAN                                     0510
A0601400100081251941001MARCELINO ALAPAG OR                                     10502
A0601400100081251941001JASMINDA ALAPAG                                         20500
A0601400100081690150001NAGUIAT, CELESTINA TRINIDAD                              0503
B0601400520000000398590SKILL-POWER INSTITUTE, INC.                              1603
A0101400730111386713001DELOS SANTOS, JOCELYN RAMILO                             0510
A0101400730111412858010LOLITA MANALO                                            0503
A0101400730111520766064LITA L. LARIZA                                           0501
A0101401960121238768001ZENAIDA L. CUA                                           0501
B0101412630132047700001KNIGHTGOLD PROPERTIES & INSURANCE                       11602
B0101412630132047700001AGENCY INC.                                             21600
A0101413310000000863992VICEO, CARLOS ESTANISLAO OR                             10501
A0101413310000000863992VICEO, AIDA GUILLERMO                                   20500
A0101401830000001281943ISUGA, CORAZON JOY TEANO                                 0501
A5001400170000002288253YU, LEONARD OLIVAR                                       0503
B0101407270162023333001MEDIA TOUCHSTONE VENTURES, INC.                          1604
A0101401090171196115001AUREA PELAYO-LLANERA                                    10504
A0101401090171196115001OR TRACY ANN LLANERA                                    20500
A0101401090171202858001MAY T. MAGTOTO                                           0501
A0101401090000001619030PESO, MARIA CECILIA S. OR                               10502
A0101401090000001619030AQUINO, MARIA CRISTINA S.                               20500
A0101401090171410446001MARICEL R. TORMIS                                        0501
A0101401090171462651001MYRA OR ALLAN LAMBIO                                     0502
B0301400530193044968008ASIAMOTOR, INC.                                          1620
A0301400790000001010619CABASAG, JEY R LAGONOY                                   0501
A0301400950000001379546SARABIA, MAY JOY DUCO                                    0501
A0301400950000002115231**********                                               0501
B0101401380201525090001HONGKONG MASTER COOK CORPORATION                         1603
A0101412500000002304774BUGAOAN, IVY ILLESCAS                                    0502
A0101412500000003289781MARANON, MARLON CARRILLO                                 0503
A0101412500000005344025LUCAS, RODOLFO PASAGOY                                   0501
A0101412500000005344183LUCAS, CRISTINA JOY GARCERA                              0501
A0101412500000005344270LUCAS, CRISRON RUDOLF GARCERA                            0501
A3101400160221784329001LEANDRO R BATALLONES                                     0502
A3101400450000002092866PAURA, ANITA MANUEL                                      0502
A3101400450223494342001BELEN, RHODORA OR TOM OLIVER                             0501
B3001400130230043293001L.M. TING FOODILICIOUS CORPORATION                       1605
B3001400130230749552001TING, MARIA THERESA GO                                   1603
A1001400190000000124821GONZALES, ROSELYN TUMOPAS                                0501
A1001400350233478374001JUNIO, ROGELIA A.                                        0501
A1001400480000000606831VALDEHUEZA, KENT VAN OCERO OR                           10502
A1001400480000000606831OCERO, ALGENE ALEJAN                                    20500
A1301400470000004626853KASSVERDE FURNITURE                                      0501
A0101401670271189252001LOURDES LIM LEE                                          0506
A0101408660000000373084YANG, MARIE GEM RACHELE R. OR                           10501
A0101408660000000373084YANG, QUINCY LE                                         20500
A0101411820000000477145SHERWIN REYMOND M. ICALINA                               0501
A0101400570281192972001BALMORES JR., BENJAMIN A. OR                            10504
A0101400570281192972001BALMORES, MARINA                                        20500
A0101400570281417780001JOYCELYN TAN TANZO, D.M.D.                               0502
B0101400570281551802002SHERYL LYNN A. YU AND STEVEN L. YU                       1602
A0501400200000002306070ORPIA, MARY HAZELLE BRAULIO OR                          10501
A0501400200000002306070PEREZ, RONALDO PANTIG                                   20500
A0501400200000002306116VALDEZ,ALVIN PATRICIO OR VALDEZ                         10501
A0501400200000002306116MAE FLORIZE BALMEDIANO                                  20500
B0801400160311039833001JMB TRADERS INCORPORATED                                 1601
B0801400160311077458001FUTURETRUST FINANCE CORPORATION                          1605
A0801400160311478374053JONNA O. ALCAIN                                          0502
A0801400160311478374102MA. CECILIA A. AVANCENA                                  0501
A1101400120000000065103BELLO, TERESITA CASTARITAS                               0502
A1101400120000000652351YAO, RONALD PHILIP GO                                    0501
B0101402350321006894003VITALEZ COMPOUND HOMEOWNERS ASSOCIATION                 11602
B0101402350321006894003INC.                                                    21600
A0101402350321035519001ANTONIO'S GARMENTS                                      10502
A0101402350321035519001SUB-CONTRACTING                                         20500
A0101402350321478374059BERNARDITA D. LOPEZ                                      0501
B0101405650322045513001INTERCHEMEX LABORATORIES INC.                            1601
A0101402510341198031001SUSANA L. ALULOD                                         0501
A0101402510341488964001RADA, ESTER TORRES                                       0501
A0101402060000000358850CADIVIN, ELISEO BAJE                                     0501
A0101402060351214812002BANTIGUE, WILLIAM OR ANGELITA                           10502
A0101402060351214812002OR JOHN PAUL OR                                         20500
A0201400760000000476933ABUTAZIL, JERIC REI TEMPLO                               0503
A0201400760000000989706SORIANO, ADRIAN IBAY                                     0501
A0201400760000002309713ARRIOLA, LYLL KAREN BIGORNIA                             0502
B0201400920000000047903BOISER, MELVIN M. AND JAGOPIT, RAUL O.                  11601
B0201400920000000047903AND AQUINO, VILL                                        21600
B0201400890376045807001**********                                               1620
A0101408790000002031383ESPIRITU, LEARNI MAE SANCHEZ                             0501
A0101408790000002031463CASTANEDA, CAMILLA ANN LASALA                            0501
A0101405490000000355571MA ANASTACIA S. OR RITA THERESE                         10501
A0101405490000000355571S. DELA MERCED                                          20500
A0101405490000004353031BARRAMEDA, ANITA VALIENTE                                0502
B0101405490392037130001CEMS INDUSTRIAL PRODUCTS & SYSTEMS                      11606
B0101405490392037130001INC.                                                    21600
A0101408400000002921188CONCEPCION, CORAZON DE MARIA SE                          0501
A0101408400000001952883GABRIEL TAILORING AND GENERAL                           10501
A0101408400000001952883MERCHANDISE                                             20500
A0101408950396607322001CARIAGA, NATHANAEL CATANGAY                              0502
A0101409180000003780290QUILON, JUSTIN JOSEPH PARADA                             0501
B0101409180397716801001CACHET.HOLDINGS, INC.                                    1602
A0301400820000002106150SISON, VERGENCITA S.                                     0501
A0301400820409094648001LADAGA, SHERRYL E.                                       0502
B5501400120000002949735VALEENLAND REALTY CORPORATION DBU                        1601
B2401400180411021162001TBB & SONS MARKETING                                     1610
B2401400180411021636002PHILBEST CANNING CORPORATION                             1605
A2401400180000003949195MERCADO, MABEL P. DBU KKJJ                              10505
A2401400180000003949195BULILIT PETRON STATION                                  20500
A2401400180411272640001VICKY M. BOJE                                            0501
B2401400180411276067001GAISANO DADIANGAS, INC.                                  1610
A2401400180411478374035MERLINDA D. TAMUDTAMUD                                   0501
A2401400180000001935782ONAS, ROSITA PLANOS                                      0501
A0901400220000001805038**********                                               0501
A0901400220432582218001**********                                               0501
A0101403030441241050001**********                                               0503
B0101412760000002068082PRIME CUTS SOURCE GENERAL MERCHANDISE                   11603
B0101412760000002068082CORPORATION                                             21600
A3801400170490047867001HULAR, GRACE DBU AQUA MIRAGE                            10505
A3801400170490047867001PURIFIED WATER REFILLING                                20500
A1401400110000003475821ABADILLA, ALONA JARDIN                                   0501
A1601400170000000421229*********                                                0502
A0701400260000003259272GONZAGA, EVA DEL ROSARIO                                 0501
B0101407430000001213238PEREZ, CRISTY DBU CRISTY F PEREZ CUSTOMS                11601
B0101407430000001213238BROKERAGE                                               21600
A0101405940000000505764SALCEDO, RICHARD REODIQUE                                0502
A0101405940000005068042BALTAZAR, DORIS DE MESA                                  0501
A0101405940512155818001ANTONIO C. KO OR LEE MEE LING                            0502
B0101403450521011774002**********                                               1602
B0101403450521239481001**********                                               1603
A0101403450521441986001**************                                           0520
A0101403610531453729001CHAMBER, MARY HYACINTH CRUZ                              0501
A0101404000000003706318CHRISTOPHER ANTHONY A CASTRO                             0501
B0101404000551024348001APPLESEED MONTESSORI INCORPORATED                        1601
A0101404000551478374002PENAMORA, GIRLIE E.                                      0501
A2201400250000001545580MEMBERS OF NATASHA (SHOECAT INC                         10501
A2201400250000001545580GAUDIOSA A. WAGE                                        20500
A0101410690000000710621MALLARI JR., RO DBU ROMA PRINT                           0501
A0101410690000000711033TIMBALOPEZ, MONINA DABU                                  0501
A0101407720000002693149VARGAS, DINO ROBERTO DE CASTRO                           0501
A0101407720602044367001CAL PERSONNEL PROVIDERS                                  0510
B0101407720602044367001CAL PERSONNEL PROVIDERS                                  1610
A0101407720602382305001PARDINAN, ROSSANA O.                                     0501
A0101407720602390297001PREYSLER, MARIVIC G.                                     0501
A0101407720602397271001OZAETA, MA. RAMONA PABLO                                 0501
A0101404260611037351001SMD JANITORIAL SERVICES                                  0501
A0101404260611045966001FRONDOZO TRADING                                         0501
B0101409920650044950001EINSTEIN SCHOOL FOR KIDS, INC.                           1601
A0101409920650478374018MENDOZA, MABEL MORELOS                                   0501
A0101413570000000635610CHRISTEL MICAH B. LUBRIDO                                0502
A0101413990000001195222VASQUEZ, ROMEO P. OR                                    10501
A0101413990000001195222VASQUEZ, MARIA JENNIFER S                               20500
A0101406590662694250001VIDANES, ELIZABETH ALVIAR                                0501
A0101410300000000592154MILLAR, JOSEFINA C. OR                                  10502
A0101410300000000592154MELCHOR, GISELA M.                                      20500
A0101410300000003290100JESUS L. TAN                                             0502
A0101410300000000191939CARBALLO, LUIS ANTONIO S. OR                            10505
A0101410300000000191939SALAZAR, EMMANUEL B.                                    20500
A1301400340683501003001GO, LLOYD CHUA OR CHERYL B GO                            0502
A1301400500000003070139SUGAR DADDY MARKETING                                    0502
B0101408240000000832804WOWA'S FAST FOODS INC.                                   1610
B0101408240000000832815WOWA'S FAST FOODS INC.                                   1610
B4101400260812012643001KUM KANG CERAMIC PHILS. CO., INC.                        1606
A4101400550000003839316ESCARO, MARIA LOURDES MAGSOMBOL                          0501
A4101400550000003839178RFW ONLINE TRADING AND SERVICES                          0501
A4101400550000003839178RFW ONLINE TRADING AND SERVICES                          0503
B0101412340000000030888WIT AUTO GROUP CORP.                                     1605
A0101412340000002900330ROSELLE B. BORBE                                         0501
A0101404840000000683574NELIA L. BABILA                                          0502
A0101404840851478374071MARITESS C. CASARILLA                                    0501
A0101404840851520766194FELIPA O. VILLANUEVA                                     0503
A0101404840851534093001MESIAS, RUBILYN ARCILLA                                  0501
B0101405070861046931001BUKWANG PRIME INTERNATIONAL AGENCY                       1602
A0601400230000000452839ARCINUE, S DBU SLA ENTERPRISES                           0502
