B0101409890649821100608**********                                               2001
A0101405650000005284551CO, ELOISA GUEVARRA                                      0501
B0101411370022821100608**********                                               2001
B0101411370022821200608**********                                               2001
B0101412630132821100608**********                                               2002
B0101412630132821200608**********                                               2001
A1701400230000002762832ANG, MARY ANN LIU                                        0510
A1701400230000002347457DAQUIOAG, AILEEN CORPUZ                                  0501
A0101408240711226436001GUTIERREZ, NATIVIDAD                                     0502
A0101408240711478374019ESTUYE, GILDA PLACIDES                                   0505
A4101400420814329306001REYNALDO N. TUPAL OR                                    10501
A4101400420814329306001MARIA VERONICA A                                        20500
A0101401250000000057065VILLAS, ROGELIA L.                                       0501
A0101401250000000441052ONGSUECO, SYLVIA K.                                      0501
A0101401250021179040001NORMA LANORIA VALEROSO                                   0503
B0101400150061011199001M.F.T. DEVELOPMENT CORPORATION                           1601
A0101400150061387199001AGUILAR, LEAH MOLINYAWE                                  0501
B0101400150061756393001FORTUNEMV LOGISTICS INC.                                 1601
B0101400600071325133001**********                                               1602
B0101400600071476377003*********                                                1602
A0601400360000000978903SERRANO, NATHANIEL EDOQUE                                0504
A0101413730000000144578**********                                               0501
A0101410850000002356885MEDRANO, R DBU RAM TRUCKING                             10501
A0101410850000002356885SERVICES                                                20500
B0101400730000000002591*****                                                    1602
A0101412630000004062086BANZUELA, ELEANOR ADORNA                                 0502
B0101401830141037764001MICHAELJONA TRUCKING SERVICES, CO.                       1602
A0101401830141740190001LEBRON, LUIS FRANCISCO VILLACOR                          0501
A0101400440000001439794BAMBAO, LERMA CANAVERAL                                  0501
B0101400440000005393717RD PAWNSHOP, INCORPORATED                                1603
B0101400440161025954001DEX INTERNATIONAL CO.                                    1605
A0101400440000000029401ANGEL, HELEN VILLANUEVA                                  0501
A0101400440161525001159MARITES P. MONTALBAN                                     0502
A0101407270000006997800LAGASCA III, FRANCISCO SAMBAT                            0501
A0101407270162421293007YOLANDA L. DE ALBA                                       0501
A0101407270162496878002ABIGAIL SULVITA                                          0502
A0101401090171198420002GIL A. CAUYAN                                            0501
A0301400530000001009829GAGA-A, JULIEMER A.                                      0501
B0301400530000006239432*********                                                1601
A0301400530193671710001TULEN, JAN MICHAEL AAMES L. OR                          10501
A0301400530193671710001TULEN, LUCILLE M                                        20500
A0301400950000002252051**********                                               0505
A0101401380000000682673RED, ROBERTO AURELLANO                                   0501
A0101401380000001412731MANAHAN, MARK LESTER MOHAMMAD                            0501
A0101412500000000041625OMEGA ONE ON ONE FITNESS AND                            10501
A0101412500000000041625WELLNESS CENTER                                         20500
A0101413600000003851110NOEL ANGELO B. BUENAFE                                   0502
B0101413600000005524818POLEE C. DOROTHEO DBU BOBBA JELLY                       11601
B0101413600000005524818TEA AND COFFEE                                          21600
A3101400160221557336001JOSELITO M GUEVARRA                                      0504
A3101400450000005355493PAPERA, ELENA DE GORIO                                   0501
A1001400190231520766079*****                                                    0501
B1001400480000003028913MA. DEL CARMEN MART, INC.                                1602
B1001400480000003357840BALDADO, MARIA LYDIA PEPITO DBU JOMARI                  11601
B1001400480000003357840TRUCKING SERVICE                                        21600
B1001400480000004097154SABAL HOSPITAL, INC.                                     1610
B1301400760000000050871ENCORE LEASING & FINANCE CORP.                           1601
A1901400290000002337782REYNALDO JOVES GARCIA                                    0501
B1901400290261038595002B & V TRADING                                            1605
B1901400290261046556001MEAT ADVANTAGE EXCHANGE INC.                             1610
A1901400290261244436001OSCAR DE JESUS OR                                       10503
A1901400290261244436001TERESITA DE JESUS                                       20500
A1901400290261298552118CONCEPCION GONZALES ESTIGOY                              0502
A1901400290261298552151JEFFER JOHN ESTEBAN MONTEALTO                            0501
A1901400290261411419001TERESITA DIMAILIG PERCE                                  0502
A1901400290261488341072DR MENANDRO A VILLADELGADO                               0502
A1901400290261493025041DRA REEZA Q MARQUEZ                                      0502
A1901400290261493025079DARWIN JAY M INCIONG                                     0502
A1901400290261526658001MARILOU RAMOS VILLAGARCIA                               10502
A1901400290261526658001OR ROY OGAD VILLAGARCIA                                 20500
B0101401670271025682002* * * * * *                                              1620
B0101406620273033463001ARL BUSINESS CONSULTANCY, INC.                           1602
B0101410980275056888001********                                                 1604
A0101400570000001681712GIL M. VICENTE                                           0502
A0801400160311413609001LIM, JOSEPH PO                                           0505
A1101400120000003022373BANTULA, EVELISA                                         0501
A3401400280000003309293FIGUEROA, MICHAEL BOSCH DBU                             10501
A3401400280000003309293NETZ PHARMA                                             20500
A0101402350000000443241TUBAL, ABELARDO MATEO                                    0503
A0101402350321179428001LYDIA C. TIU OR                                         10501
A0101402350321179428001JAMERSON C. TIU                                         20500
B0101405650322020813001JOHVER MINERALS, INC.                                    1605
A0101405650322170702003ADAN, ANTONIO D. OR                                     10501
A0101405650322170702003ADAN, GRACE CASTANEDA                                   20500
A0101405650322634117002B.ESPIRITU OR E.ESPIRITU OR A.                          10502
A0101405650322634117002OCAMPO OR C.DE CASTRO                                   20500
A0101402060351212481001LIM JR., EMILIO SUN OR SY,                              10503
A0101402060351212481001PRISCILLA P.                                            20500
A0201400760374531753002CORTES, DINA VEGA                                        0502
A0201400760374720031001******                                                   0505
A0201400920000002250113ALAJAS JR., MARIANO DAJAB                                0502
A0201400920000002804480MIRANDA, SAMMY                                           0501
A0101402930000003179559CAMBA, T DBU MICROPROCESSOR RSR                         10501
A0101402930000003179559PROTEK TECH'L ESPECIALIST                               20500
A0101408370382789590001FRANCIS ODELON B. ESTIVA OR                             10505
A0101408370382789590001ELIZABETH WYNONAH ESTIVA                                20500
A0101408790000000579740DEAN FRANCIS ALFAR                                       0503
B0101408790000005594681RADIOWEALTH FINANCE COMPANY, INC.                        1605
A0101411660000002881161RBE ACCOUNTING SERVICES                                  0502
B0101405490392039459001MEGANESS PHARMA MARKETING                                1601
A0101405490392301424001ENCARNACION O. SANTIANO                                  0503
A0101405490392519821001MESINA, MARIA PAMELA GUECO                               0502
A0101408950396564675001MARTIN-BRAGANZA,SAMANTHA CLAIRE                          0504
A0101409180000004375144ALVIN DREXEL ABAD                                        0501
A0101409210000007007638SIBAY, ROJANE DACER                                      0501
B0101409210000000031238******                                                   1620
A5501400120000002949597MANLANGIT, BERNEL D. DBU VDM MA                          0502
A5501400120410622095001CORDER, JAIMELITA OR EDWIN                               0505
A5501400120410682269001LIM, HILBERT OR LIM, HELEN                               0501
A2401400180000000428102SAGABAEN, AMALIA COSTALES                                0501
A2401400180411048131001ONTARIO PURIFIED DRINKING WATER                         10501
A2401400180411048131001DISTRIBUTOR                                             20500
B2401400180411056453001PINOY BOSSING TYRES CENTER, INC.                         1603
A0101403030441469355001**********                                               0501
B0101403320471020319002LORD OF THE NATIONS, INC.                                1602
B0101403320471035191001ST. GABRIEL CREDIT COOPERATIVE                           1601
A0101403320471402087001CECILIA L. DIAMANTE                                      0503
B0501400170000000018408COLEGIO DE DAGUPAN, INC.                                 1603
A0501400170481046585002ANG, JUSSLYNN DBU                                       10502
A0501400170481046585002AVS DISTRIBUTION CENTER                                 20500
A0501400170481254282001DR RODRIGO SEGUI OR                                     10501
A0501400170481254282001DR CARLA SEGUI                                          20500
B1401400110000003475694YUAN ROSE TRADING, CONSTRUCTION AND                     11602
B1401400110000003475694HARDWARE SUPPLY                                         21600
A1401400110492669090001ACYATAN, ANTONIO PACALDA                                 0502
A1601400170000001360758TAN, ROBERTO LISTANA                                     0502
B1601400170494060167001*********                                                1603
A0101407430503378525001EMMA C. MANALO                                           0501
A0101406880513212176004LIM, EMILE                                               0501
A0101408530516615903013DEL ROSARIO, JULIETA                                     0501
B0101403450521021842005WALL VISION CORPORATION                                  1605
A0101403450521037347002********                                                 0501
A0101403450000006055698************                                             0501
B0101403610531013980001VIC IMPERIAL APPLIANCE CORP.                             1603
A0101403610531219308004ABANILLA, FRANCISCO                                      0502
A0101403610531219563001LACDAN, PABLITO OR                                      10502
A0101403610531219563001LACDAN, ZENAIDA                                         20500
A0101404000000001186738VELEZ, ANTONIO JOSE FRANCISCO                            0501
A2201400250561044209001GO TRAKTORA TRADING                                      0501
A2201400250561639490001AUDREY LIM TAN                                           0501
A0101410690000000710712MONTEMAR, DONN DBU DHLM TRADING                          0501
A0101404130601472635001AWAD, KENNETH RICHARD                                    0503
B0101404130601563008001I. PRUDENTIAL SHIPPING AGENCY SERVICES                   1605
A0101407720000000245225RAUL CHRIZALDO MORENA OR                                10501
A0101407720000000245225SINCERELY MORENA                                        20500
B0101404260611023318001EUNEE TRADERS AND CO. INC.                               1610
A0101404260000002302130IGNACIO, ADELAIDA SUNGA                                  0505
A0101404260611478374129RUBY VIRTUDAZO                                           0501
A0101404260611665137001TEOXON, ROWENA SILANG                                   10501
A0101404260611665137001OR LEOPOLDO TEOX                                        20500
B0101409890000002136498MARZAN, VICKY CHANG DBU WAC ENTERPR                      1601
B0101407690652030137001ROLLING GREEN REALTY & DEVELOPMENT                      11605
B0101407690652030137001CORPORATION                                             21600
A0101407690652478374084EUFEMIA BALASE - DEALERS OF                             10501
A0101407690652478374084SHOECAT INC                                             20500
A0101407690652525001081AGUSTINO, ROWENA - DEALERS OF                           10501
A0101407690652525001081SHOECAT INC.                                            20500
A0101407690652609264001DE JESUS, AUGUSTO OR JOSE MARIA                         10504
A0101407690652609264001OR MILA                                                 20500
A0101407690000000053881********                                                 0503
A0101411530000002260351AQUINO, HERMINIO SANCHEZ                                 0501
A0101413440000002125360BASTASA, CAROLYN GALIDO                                  0501
A0101413990000000631883NEBRIA, ESTER P. OR                                     10503
A0101413990000000631883NEBRIA, NATHANIEL C.                                    20500
A0101413990000000206033MARITES R. CONANAN                                       0502
A0101406590662419297003DE JESUS, ZENAIDA INTAL OR                              10501
A0101406590662419297003DE JESUS, KRISTOFER RYAN                                20500
A0101406590662590885001BARRIENTOS, MARITES ABRAHAM                              0502
A1301400210000000023263MARIE CONCEPCION M CRUZ                                  0501
A1301400210682635116001DEVORAH M SOTO OR                                       10501
A1301400210682635116001MIGUEL CARLOS B                                         20500
A1301400340683367953001FELLO, ROSEMARIE RODIL OR                               10503
A1301400340683367953001FELLO, BISMARK C                                        20500
A1301400500000000213083JUANITO F. GREGORIO OR AURELIA                          10501
A1301400500000000213083S. GREGORIO                                             20500
A1301400500000002063792ANTONIO, ALBERT SILVA                                    0502
A0101408240000002331328BANOCNOC, LUIS NICOLAS                                   0501
B0101408240711028488001INTAS DESTINATION MANAGEMENT INC.                        1605
A0101408240711436371001YAP, MILAGROSA ROSLINDA                                  0501
A4101400260812246078001EMILANIE J. ESTOCADO                                     0503
A4101400260812478374021CATHERINE C. RODA                                        0502
A4101400390000000379282ICASIANO, IMELDA MEDINA                                  0503
A4101400390813723742001**********                                               0502
A4101400420814328455001LARGA, ROMMEL YAP                                        0501
A4101400550815543270001PASCUA, MINCHIE UY                                       0501
A0101405070861478374020SOL G. CONFLOR                                           0503
A0101413860000000145140CANOLO, JACLYN ANNE GATCHALIAN                          10501
A0101413860000000145140OR KING, SUSAN                                          20500
B0601400230000006045256PRIME DOMESTIC RECORDS, INC.                             1601
A0601400230891453005001NUNAG, VIRNA GALANG                                      0501
