B0101408950396821100608**********                                               2010
A0301400790000003969644VILLAVER, GENEROSE VILLAGONZALO                          0501
A0301400790000001010619CABASAG, JEY R LAGONOY                                   0501
A1101400120000003022413DUCENTES, GLORIA TROCINO                                 0501
A0301400950000008000682PALACIO, CHRISALIE ALTHEA PUNO                           0502
A0101401670271507870001MANUEL, PATRICIA SUACO                                   0501
A1101400120313547700001NICOLASORA, ALMARIE EULOGIA P.                           0506
A0101405650322052876001DUMALE, DBU TOPS MODULAR                                10501
A0101405650322052876001BUILDERS                                                20500
A0101400860011035923001**********                                               0502
A0101400860011395102002**********                                               0501
A0101400860011533026001**********                                               0502
A0101400860011748938001********                                                 0501
A0101400150000000806906DE LEON, CAROLINE TUAZON                                 0501
A0101400150000009399728ALMONTE, LUDIVINA TAN                                    0501
A0101400150000009399933CARINO, JENNIFER P.                                      0502
B0101400150061047820001TOYAMA INC.                                              1603
A0101400150000000806746GINA D PINZA                                             0501
A0101400150061315349079NOEMI V. UNIDAD                                          0501
A0101400150000000525422ORDIZ, ARLENE CASTILLO                                   0501
B0101400600071234158001**********                                               1605
A0101400600071720668001*******                                                  0501
A0601400100000007253865POTTS, BERNADETTE MULLET                                 0501
B0601400100081030352001LIVING STONE INTERNATIONAL SCHOOL INC.                   1603
A0601400100000002072668SAN JOSE, ERNESTO ALBUERO                                0501
A0601400360000004915475ELAG, GIAN CARLO MADERA                                  0501
A0601400360000007539719EVARISTO, BONIFREDO BARRERA DBU                          0502
A0601400520000001707017LIM, BENITO UBALDO                                       0501
A0101414090000006211609VILLAFLOR, KRISTINE ALCONES                              0501
A0101410850109575185001QUIBO, JAQUIA MUSTAFA                                    0501
A0101410560000001944083GABAS, EVANGELINE ESPONILLA                              0501
A0101410560000000590556GUTIERREZ, DOMINICA DALISAY                              0501
B0101413150000005944083*******                                                  1601
A0101412630000000045321**********                                               0502
A0101413310000008415372VIVERO, AURORA JENALYN PEREZ                             0502
B7201400170000003772981LADLAD, EMSA BANA OR LADLAD, JOSE JULIAN                 1601
A7201400170000003772963ESCALANTE JR., FELIX MEJOS                               0501
A0101407270000006939082DELA PENA, AIDA ROSAURO                                  0501
A0101401090000001611449JEROME ALONZO                                            0502
B0101401090000000772510MELMARICIO CORPORATION                                   1602
A0101401090171365357001JAMES B. RABAGO                                          0501
A0101401090171373185001DAN PAUL A. PATRICIO                                     0503
A0101413600000009799531ROBERT L. ROMASANTA                                      0501
A3101400450223724088001ALVARAN, HANIEL ANGELO CAPUNO                            0501
A3101400870000005410122DAYRIT, ARNOLD SAUZ                                      0501
A3101400870000005410111DAYRIT, GISELLE GRACE LIM                                0501
A3101400870000005409952AQUINO, RACHEL MILITANTE                                 0502
A3001400130000005446340BALANGA, MARIO FERNANDEZ                                 0501
A3001400130000006145239MACABUGTO, MIGUEL AMORA                                  0505
A3001400130000008264795SERONAY, PERLA B.                                        0501
A1001400190231520766128MAGLANGIT, JONIE QUIACAO                                 0501
A1001400190000002170769JUGAN, NOUE MALOLOT                                      0501
A1301400760253056374001EDNA'S CAKELAND                                          0510
A0101401670271186230001LETICIA R. MALOLES OR                                   10503
A0101401670271186230001TERESITA M. OLIVEROS                                    20500
B0101406460000001231770DY, ALLAN LAO DBU TRIAWOOD MARK                          1602
B0101406460000001231781L'EPICERIE CORPORATION                                   1601
B0101406460000001231792PAMALEES F&C CORPORATION                                 1601
A01014064602723772440011LA, JESSIE ATENTA                                       0501
A0101400570000010419837FRANI, WINKIE ABEN                                       0501
A0101400570281186601002DR. JOSE PEPITO AMORES                                   0502
A0101400570281464580001GALVEZ, ARLEEN DECENA                                    0502
A2601400270000007951177RAYMOND RUEL D. VALLE                                    0502
A0801400160000000009430SALAO, EVELYN ENCANTO                                    0506
A0801400160311389143001CHAN, MILAGROS OR                                       10502
A0801400160311389143001CHAN, NATHANIEL                                         20500
A0801400160311478374070GENALYN M. BOTANERO                                      0501
A1101400120000006186741LATORRE, NOEL TAN DBU MEAT D                            10502
A1101400120000006186741SHRIMP RESTAURANT                                       20500
A1101400120000006186770LATORRE, NOEL TAN DBU SKYE                              10502
A1101400120000006186770COFFEE AND WINE BAR                                     20500
A1101400120313582919001CHAN, WILLARD LIU                                        0501
A6601400120314043084001SOLID M CONSTRUCTION                                     0504
A2001400290000002783059SUMALPONG, KIT IAN JERUSALEM                             0501
B0101402350000000655505Q-CREATIVS AND IMAGEERS INC.                             1601
A0101405650322172164002AQUINO, CHRISTIAN CASTRO                                 0502
A0101402060351217441024VINORNA V. LIM                                           0502
A0101402060351422451001OLARTE, JOEL QUIAMCO                                     0501
A0101409050352065203002BARRICA, CRISTINA R                                     10501
A0101409050352065203002DBU QME ENTERPRI                                        20500
B02014007603740526030018990 DAVAO HOUSING DEVELOPMENT CORP.                     1650
B0201400760000001612937UNITED HOSIM PRIME CORPORATION                           1602
A0201400920000000048031FMC CATERING SERVICES                                    0502
A0101408370000005220160******                                                   0506
A0101408370382400033001DR. EVELYN VICTORIA E. RESIDE                            0504
B0101408790000000599873AUGUST ALLIANCE BUSINESS CORPORATION                     1601
B0101402770391009441001ST. ANTHONY HOMEOWNERS' ASSOCIATION INC.                 1601
A0101402770000000360592RAMON T. LUY                                             0501
A0101408400000001952861DIAZ, JAY ANN BORBE                                      0501
A0101408400000004490244JISON, VICTOR LEDESMA OR                                10502
A0101408400000004490244JISON, THERESE P                                        20500
A0101408400394478374058CHARINA BENIGNOS                                         0505
A0101408400394478374095HERMOSURA, EUGENIA BISNAR                                0501
A0101408950000004512149POSAS, FABIO ENRIQUE BARDALES                           10502
A0101408950000004512149OR POSAS, CATHERINE DIZON                               20500
A0101408950000004511993ACOSTA, LENYGRACE MAGNO                                  0503
A0101408950000004512081SAMANIEGO, JOSEPHINE MENDOZA                             0502
A0101408950396607322001CARIAGA, NATHANAEL CATANGAY                              0502
A0101409180000005326603IBARDELOZA, ANNALYN SIABOC                               0502
A0101409210000002802735COLORADA, SHEILA ANDRES                                  0501
A0301400820000004746101FAMACION, RAMSEY DBU JARED SUIT                         10501
A0301400820000004746101ES OR FAMACION, BEULAH                                  20500
B5501400120000000003232********                                                 1604
A5501400120000002019158SUPERIO, MERLYN G. DBU DIAMOND                          10505
A5501400120000002019158MEMORIAL CARE SA                                        20500
A5501400120410729506001JOSOL, ARLIEN BACON                                      0501
B2401400180411036177008VERTICAL BUILDERS                                        1605
B2401400180411044855001GOLDEN ATLANTIC MERCHANDISING                            1605
A2401400180411045435001HP FRANCISCO CONSTRUCTION                                0506
A2401400180411432546001LIM, ROBERT LIM OR LIM, GINA                            10510
A2401400180411432546001NAZARENO                                                20500
B0101403030000008068764**********                                               1602
A0101412890000000371599MARITA CHU OR BONIFACIO CHU                             10503
A0101412890000000371599DBU COBO PAVILLION                                      20500
A0101406330472027958001A. ANOLIN ENTERPRISES                                    0502
A0101406330000000162616LAND OF THE PROMISE TRUCKING                            10505
A0101406330000000162616SERVICES                                                20500
A0101406330472478374037LOLITA D. AMADOR                                         0501
A0101406330472696737001RECHIE LOPEZ RAZON                                       0502
A0101410140000001939933**********                                               0501
B0501400170481018109001CSI WAREHOUSE CLUB INC.                                  1601
B0501400170481018109002CSI WAREHOUSE CLUB INC.                                  1602
B0501400170481025398002COSTSAVER'S SUPERMARKET, INC.                            1601
B1901400160491012917001ALPS THE BUS INC.                                        1610
B0101407430503246371001YONG KI BAE                                              1601
A0101407430000002298166JAIME C. ABESAMIS SR                                     0501
A0101403580511026941001CECILIA NARVAEZ Y DISENOS                               10502
A0101403580511026941001INTERIOR                                                20500
A0101405940000005359275PASTORIN, MARIA RUSSEL AGUIRRE                           0501
B0101408530516033397001SPRINGER INTERNATIONAL, INC.                             1605
A0101411790000010419980VELMONTE, MA LOURDES OR                                 10501
A0101411790000010419980VELMONTE, JESUS                                         20500
B0101403450521012010001********                                                 1603
B0101403450521238082001*********                                                1601
A2201400250561255010005EMMANUEL D. PASCUAL                                      0501
A0101407720602398589001IMELDA CABRAL-VILLAR OR                                 10501
A0101407720602398589001ROLANDO VILLAR                                          20500
A0101407720000000510512SALUD, CARMENCITA ESGUERRA                               0501
A0101412180000001293283CEDILLA, MIA LYNN REGALADO                               0501
B0101404260611028921001KICEM TRADERS AND CO. INC.                               1610
B0101404260000008700703KUYANG DONG'S RESTO GRILL INC.                           1603
B0101411530000006217596VG PINEDA CONSTRUCTION CORPORATION                       1604
B0101413440000000038213ROMBE PHILIPPINES, INC.                                  1605
A0101413570000008173524DELA ROSA, MARILOU FERNANDEZ                             0502
A0101413570656057648092ALICIA DELA CRUZ                                         0501
A0101413570656057648127JOCEL GUAN                                               0501
A0101413990000006278215VILLANUEVA, MYRA ZAMORA                                  0501
A0101413990000010404303POLLOSO, PAUL MARTIN V. OR                              10501
A0101413990000010404303POLLOSO, LIZA V.                                        20500
A0101413990657478374003MONTON, NAPOLEON ANGAY                                   0501
A0101406590662572714001CECILIA JR., JAIME ACCION                                0502
B17014002300000027625705 SISTERS TRADING VENTURES CORPORAT                      1605
A0101408240711219571001MERCEDES M. OLIVER                                       0502
A0101408240711427132001SORIANO, AVELINA OR REYNALDO                             0502
A0101408240711487311001RACHO, DESIDERIO OR TRANQUILINA                         10502
A0101408240711487311001OR ANNA OR ARTHUR                                       20500
B4101400260812047082001SERENITA INC.                                            1601
A4101400260000006043129BATALLER, APRIL R.                                       0501
A4101400390000001732565BOSITO, JOSIE LANGRES                                    0502
A4101400420000004848108ISABELO, MORMON TUBELLO                                  0505
B4101400420814033668001PETRO VENTURE CORPORATION                                1602
B4101400420000000712047GAMICON PROPERTIES AND DEVELOPMENT                       1602
A4101400420814520766027ARUTA, CORAZON G.                                        0501
A4101400420814520766107CADAVEDO, ELENITA P.                                     0501
A4101400420814731802001TEO ONG, TOMY OR JOSEPHINE OR                           10501
A4101400420814731802001AILEEN OR AIVY                                          20500
B4101400550000000900036BACOOR DOCTORS MEDICAL CENTER INC.                       1603
A0101412340000010152131VELVET SAKS D. CABUGAO                                   0501
A0101412340000002900283MARIFE B. VIADO                                          0501
A0101404840851046725011ANALENE MONTECASTRO                                      0501
A0101404840000003069925VALENCIA, JUDY D.                                        0502
A0601400230000007402224********************                                     0501
A0601400230891253085002MARIVIC T. YAP                                           0501
A0601400230000002649983REYES, JODEL MANUEL                                      0502
