A2801400230000000063141BONGAT, VALERIE KHYLE ISIDRO                             0501
A4101400420000000120696CARMELA G. ROMA                                          0501
A1001400190000000124752LEGASPI, CAROLINA                                        0501
A0101402480000000310681********                                                 0502
A0901400220000000425249RL TRADING                                               0502
A0101404420000000472246GARDOSE, JOSIE F.                                        0501
A2601400270000000561642ROMINA FRANCESCA C. MOLINA                               0501
A0101408790000000579379DARIUS S. TENERIFE                                       0501
A0101408790000000600057SAN MATEO, MANUEL LUIS B.                                0502
A0101400440000000821112MADRIDEJOS, LINALYN BACSID                               0502
A0101401670000000843663GO, PRINCESS ALEXIS BILLANO                              0501
A1301400340000000926869CUERDO, MARIA ANA SORNE                                  0502
A0101408400000000960452BERNARTE, RALPH ANTHONY ASTETE                           0501
A0101400860000001005445************                                             0502
A0301400530000001009943PANTUA, JERSON R.                                        0501
A0101410140000001074748GUTIERREZ, LEILANIE AUTENCIO                             0501
A1001400350000001101157CALIXTRO, LAWDEL PALMARES                                0501
A5501400120000001122063NAVARRO JR., ROMERICO BALUYOT                            0501
A3001400130000001271669OLACO, BELINDA LACORTE                                   0501
A0101403610000001450873BANGIT, JOSEFINA DELA CRUZ                               0501
A0101412630000001485292DACANAY, ARNOLF PENAVERDE                                0501
A0301400820000001554821ACLAO, MARILOU G.                                        0501
A3101400160000001792190MIRAFLOR M CARINGAL                                      0501
A1201400150000001863174CABALBAL JR., RODEL MARQUEZ                              0502
A1201400150000001863287DAOAY, ANDREW LUPIAN                                     0501
A1301400500000002063992JOSHUA & JAMES CONSTRUCTION                              0502
A4101400420000002084471ISIP, CLEOFE J.                                          0501
A4101400420000002084533VALDISIMO, JENNIFER GEREZ                                0502
A2801400100000002253469HERILLA, ANDREA MONTAJES                                 0501
A0101402770000002267212ONGKEKO, FREDERICK SAYSON                                0501
A0601400520000002270913MICLAT, IMELDA ANCHETA                                   0503
A0501400200000002305993MANA, MARIO REMUTH                                       0501
A2601400270000002677569DEXTER C. DUMRIQUE                                       0501
A0101409210000002802688JUNGAYA, MARIA REINA MARTIREZ                            0501
A0101408240000002822062TY, ANNETTE SO                                           0502
A0101406590000003007187VELASCO, WILLIAM UNSON                                   0502
A1001400480000003028873RESMA, EUGENE UTLANG DBU TYPE R                          0501
A1101400120000003197102ARJON, ARCELITO BAYOT                                    0502
A0101410560000003562014CASTELO, JOIE M.                                         0501
A0101408790000003701340MARIA ASUNCION V. LAGMAN                                 0501
A0101401090000003835927MASANQUE MEDICAL EQUIPMENTS                              0501
A0101400860011412598001**********                                               0502
A0101400860011420919001**********                                               0505
A0101400860011479962001**********                                               0502
A0101400150061042974001WELLINGTON ENTERPRISES                                   0501
A0601400100081046868001**********                                               0502
A0601400100081604957001BARREDO, ELIZABETH OMBAO                                 0502
A0101406040112092241001********                                                 0501
A0101407270162333154028MYRNA G. REYES                                           0501
A0101413020209057107001SANTOS, JESSALY JAPSON DBU RJ S                          0501
A0101400310211157426001LOPEZ, ELISA                                             0501
A0101400310211576470001******                                                   0504
A0101407140213312567001**********                                               0503
A1001400190231273303002BAQUILAR, NELDA R.                                       0501
A1001400190231520766017RABANES, ELECTA CAMPION                                  0501
A2601400270302698462001ALBERT OR NELIA LIM                                      0502
A0101408820333478374062SANDRA G. BUENO                                          0501
A0101408820333478374067MARICEL D. VALSOTE                                       0501
A0101402510341380534001RUBEN D. GAMBOA                                          0501
A0101402060351211787001MENELEO &/OR FILOMENA CARLOS                             0501
A0101402640361169160004PEREZ, REYNALDO SAN LUIS                                 0510
A0201400920375524523001MIEL, PRINCESITA OR MIEL, ALEX                           0502
A0101408370382436793001DR. ESTHER FREDELYN M. TOMAS                             0502
A0101408370382482271001DR. LARRY V. ACUNA                                       0502
A0101402770391472751004JERVIE RACELIS DE GUZMAN                                 0503
A0101408400394031949001ROBIMIKO ENTERPRISES                                     0503
A1201400150421252707001ARNALDO OR ROWENA AROMIN                                 0503
A0101403030441306357001**********                                               0501
A01014030304413479600031*********                                               0502
A0101406330472297068001FLORANTE S. GAJASAN                                      0503
A1901400320489522246001REMEDIOS BAHALA GONZALES                                 0503
A1901400160491570348001THADDEUS EVANGELIO AQUINO                                0501
A0101407430503378525001EMMA C. MANALO                                           0501
A0101408110515036233001HARE 17TH TRADING                                        0506
A0101408530516571877194SANCHO, MARIA TERESA R.                                  0501
A2201400250561258531001RUBEN CAYABYAB                                           0501
A0101407720602353609002ANTONIO V. SANTIAGO                                      0502
A0101404420631478374114CORAZON R. ALMOSURA                                      0501
A0101406590662572714001CECILIA JR., JAIME ACCION                                0501
A0101408240711592204001MIRANDA, FATIMA MALIWAT                                  0505
A0101408240711719275001SORREDA, SONNY CORPUZ                                    0501
A4101400420814478374030LIGAYA ILANO                                             0501
A4101400420814520766084PADILLA, ROSEMARIE E.                                    0501
A4101400550815478374008LORELYN C. PARCIA                                        0501
A4101400550815478374008LORELYN C. PARCIA                                        0501
A0101404840851046725011ANALENE MONTECASTRO                                      0501
A0101404840851478374071MARITESS C. CASARILLA                                    0501
A0301400820000000132492CAMPOLLO, JONATHAN OR CAMPOLLO,                         10501
A0101413570000000206373MARY ANN C. REYES OR BENEDICT                           10501
A0101407140000000446086SY, ALAN MAGNUS NG OR SY, HANS                          10501
A0101411790000000469603A.B.P.O.S. BUSINESS PROCESS                             10502
A5001400170000001003381CALIMUTAN, OHARA DELA CERNA OR                          10501
A0101408110000001165862LEE, MARY LOU TIONG OR                                  10502
A0101410690000001284442ESPIRITU III, OSCAR GAYATIN DBU                         10504
A0101400310000002659636AYUYANG, RHODERICK RAMIREZ OR                           10502
A0301400790000003968710CHIN, AGNES ANN ALMEN OR                                10501
A0301400530193551646168ROTERSOS, LETICIA D. OR                                 10502
A0101400310211157817001INTERINO, LOLITA OR MARIA                               10502
A0101400310211376429003AYROSO, MIRABELLE GO OR                                 10501
A3001400130230687040108JAQUE, ROMEO /OR                                        10510
A0101408370382205195001ELVIRA B. PUNDAMIERA OR                                 10501
A0101405490392032343001TWIN PEAK BRASSIERES                                    10504
A2401400180411345375002YABUT, CESAR ANTHONY P.                                 10501
A1201400150421685972001JUCUTAN, HEIDI BONDAD OR                                10502
A0101406330472536028001ARLES MIRANDILLA OR KRISTINE                            10501
A2201400250561478374060MARIAN S. BANAAG                                        10501
A2201400250561484428001WILSON LAO SIO OR                                       10502
A0101404130601404316003DE JESUS, DONNA KING OR                                 10501
A0101407720602165957002POSADAS, MARIA BELEN A. OR                              10505
A0101409920650478374005CRISOSTOMO, MA. EMELIA GASPAN                           10501
A0101406590662297269001MARTINEZ, ARMAN M. OR MARTINEZ,                         10501
A0301400820000000132492JOVELYN                                                 20500
A0101413570000000206373MARIANETTO A. RE                                        20500
A0101407140000000446086PHILIP NG                                               20500
A0101411790000000469603OUTSOURCING SERVICES                                    20500
A5001400170000001003381CALIMUTAN, REGINALDO G.                                 20500
A0101408110000001165862LEE, JESSICA JUSTA TIONG                                20500
A0101410690000001284442SUREGOLD FOOD PRODUCTS                                  20500
A0101400310000002659636AYUYANG, RUVELYN SANTIAGO                               20500
A0301400790000003968710CHIN, EDWARD LAM                                        20500
A0301400530193551646168ROTERSOS, MANUEL                                        20500
A0101400310211157817001CRISTINA INTERIN                                        20500
A0101400310211376429003CALINA, ZOILO II                                        20500
A3001400130230687040108JAQUE, CONCORDIA                                        20500
A0101408370382205195001FRANCISCO R. PUNDAMIERA                                 20500
A0101405490392032343001MANUFACTURING IN                                        20500
A2401400180411345375002OR YABUT, CARMEN                                        20500
A1201400150421685972001JUCUTAN, ROMMEL                                         20500
A0101406330472536028001MIRANDILLA                                              20500
A2201400250561478374060MEMBERS OF NATASHA                                      20500
A2201400250561484428001EDUARD LAO SIO                                          20500
A0101404130601404316003MICHAEL DE JESUS                                        20500
A0101407720602165957002POSADAS, VICENTE                                        20500
A0101409920650478374005MEMBERS OF NATAS                                        20500
A0101406590662297269001MARIA THERESE G.                                        20500
B3401400280000000002353CHILDFUND INTERNATIONAL, USA DOING                       1601
B2401400180000000019747DYNAMIC TEAM, INC.                                       1610
B1601400170000000036171LEGASPI HOPE CHRISTIAN SCHOOL, INC.                      1601
B0101412920000000042071SW TRAVELTIME INC.                                       1602
B0101406750000000090708GLOBAL ACCESS FINANCIAL SERVICES, INC.                   1603
B0101408530000001275321THE PURPLE OVEN CORPORATION                              1601
B0101408530000001275332THE PURPLE OVEN CORPORATION                              1601
B0101408530000001275343THE PURPLE OVEN CORPORATION                              1601
B0101408530000001275361THE PURPLE OVEN CORPORATION                              1601
B0101401700041192600001128 DREAM FOUNTAIN CORP.                                 1605
B0101401700041479540001MULTIPARTSBOY INCORPORATED                               1615
B0101407270162040127001SEVEN-SEGMENT BUSINESS SOLUTIONS INC.                    1602
B2601400270302039764001MOTORAM MOTOR PARTS                                      1602
B2001400290315046689001NAPSI                                                    1605
B0101402480331009967001**********                                               1601
B0201400760374043050001SIMPLY CLEAN CAR WASH                                    1601
B0101405490392043046001CONSPHALT MARKETING & DEVELOPMENT CORP.                  1602
B0901400220432047388088**********                                               1601
B0101403030441024113001FITNESS SUPPLEMENTS PHILS. INC.                          1602
B1401400110492046339002******                                                   1620
B0101407430503006843001PACIFIC SHIPPING AND DISTRIBUTION INC.                   1605
B0101404000551024348001APPLESEED MONTESSORI INCORPORATED                        1601
B0101400310000001621589HISTORILLO JR., HECTOR DBU HISCON                       11601
B0301400790000002301342MONTEVERDE II, GEORGE MENDEZ DBU GV & HH                11601
B3101400160221224443001AMALIA A. MITSUEDA OR                                   11601
B1901400160491341189001VIRGINIA R VARGAS OR                                    11601
B0101400310000001621589ENGINEERING SERV                                        21600
B0301400790000002301342MARKETING                                               21600
B3101400160221224443001ALICIA PARDUCHO                                         21600
B1901400160491341189001RICHARD D LIM                                           21600
