B0101406460272821100608**********                                               2005
B1101400120313821100608**********                                               2002
A0101414120000009850939CHUA, DENZELL JOSH LEE                                   0501
B0101414120000000399093*****                                                    1602
B0101400860011389877002**********                                               1602
A0101400860011425868001**********                                               0502
A0101400860011463295001**********                                               0501
A0101400860011507585002**********                                               0501
A0101400860011514595002**********                                               0502
A0101400860011568203001**********                                               0505
A0101401250021094393001ALCORIZA, ROSANIE V.                                    10505
A0101401250021094393001AND PANOL, CATHERINE A.                                 20500
A0101400150000004090737SYLIANTENG, CAESAR SOYANGCO                              0502
A0101400150000012350053IGNACIO, JOCYLYN ALVARADO                                0501
A0101400150061229957001KU, VICENTE S.                                           0501
A0101400150061398851002ANDAYA, ETHYL EROLIN                                     0502
A0101400150000004619632SISON JR., ANTERO OR SISON,                             10501
A0101400150000004619632MILAGROS OR QUINTOS, MICH                               20500
B0101400150061510529001ULCOM COMPANY, INC.                                      1601
B0101405810072068606001FRANCISCO, A DBU ICHINEN COMMER                          1601
A0601400100081040294001MOIKAI INDUSTRIAL SUPPLIES AND                          10505
A0601400100081040294001AUTOMATION SERVI                                        20500
A0101410560000010318388**********                                               0501
A0101400730111386485175IVANHOE O. MARASIGAN                                     0502
A0101401960000005392543**********                                               0505
A0101413310000004626802MATEO, MARIZA MARTIN DBU MMMDC                          10502
A0101413310000004626802GRAPHICS & PRINTING SERVI                               20500
B0101401830000000033570CARITAS SALVE CREDIT COOPERATIVE                        11602
B0101401830000000033570(MALABON)002                                            21600
B0101401830000000033581CARITAS SALVE CREDIT COOPERATIVE                        11605
B0101401830000000033581(BULACAN) 003                                           21600
B0101401830000000033638CARITAS SALVE CREDIT COOPERATIVE                        11603
B0101401830000000033638(MANDALUYONG)008                                        21600
A0101401830141724867001GOMEZ, GEORGE CASSIUS ALFONSO F                         10501
A0101401830141724867001OR GOMEZ, JINKY                                         20500
A7201400170000013462443ARIOSA, MARICAR ARENO                                    0501
A7201400170000013359047YBALANE, MESLIE C DBU WALLIE                            10502
A7201400170000013359047GENERAL MERCHANDISE                                     20500
A7201400170000007185900BARBADILLO, ELSIE ALANGCAS                               0501
A5001400170000000214002REQUINA, ORWINO ATAY                                     0502
A5001400170000000214020ARNOCO, MARIETA DIAMANTE                                 0502
A0101407270000002334663TAN, ELEANOR LOURDES PE                                  0501
B0101407270162019026001RAMCAR TECHNOLOGY, INCORPORATED                          1605
B0101407270000000010117BANARIA, BANARIA & COMPANY, CPAS                         1601
A0101407270162333006012ROSEMARY B. CALINA                                       0501
A0101407270162587936002WILFRIDO G. TIRONA                                       0501
A0101401090171196222001MILDRED M. TAYAG                                         0501
A0101401090171197481002MA. NOEMI OR ELIEZER SALAZAR                             0502
A0301400530000014433768NARISMA, ROSANIE TUAZON                                  0503
A0301400530193356168188MILA A. BRIONES                                          0508
A0101410720653528817001VINCENT GONZALO SY OR TIMOTHY                           10502
A0101410720653528817001JON SY OR JULIE                                         20500
A0101412500000005300612NGAN, SAMUEL IVAN FUNG                                   0501
B3101400160221037479001TABLERIA LA CONFIANZA CO., INC.                          1601
A3101400450000000013981ALCANTARA, JOSE CAYETANO GOMEZ                           0502
A3101400870000014928313DEL ROSARIO, RAMON REDENTOR MEN                          0501
A1001400190000008743853IGNACIO, MERCURY RADAZA                                  0501
A1001400350000012928202MALFERRARI, GIUSEPPE DE CASTRO                           0502
B1001400350000011297842FUND ACCESS MICRO CREDIT INVESTOR                       11602
B1001400350000011297842CORPORATION                                             21600
A1301400760000009812211DELA MERCED, MARICEL MARILAG                             0501
A1901400290261300731001ESMERALDA MEDINA VISTAN OR                              10505
A1901400290261300731001RICARDO LIM VISTAN                                      20500
A0101401670000009425543NATCHOR, LITO GAMINO                                     0504
A0101408660000005263883ANG, RUEBY GINIE CHUA                                    0501
A0101410980000006014460RIOMALOS, GLICEFINA MANALO                               0501
A0101412470000012130931UY DE BARON, HIM MERILLO OR                             10501
A0101412470000012130931UY DE BARON, KIRSTEN ANN                                20500
A2001400290000002783117MATILDO, RUBY ANN JANGCAN                                0501
A0101402350000000145617******                                                   0501
B0101402350000012299964JPD 24/7 DELIVERY SERVICES CO.                           1601
B0101402350321031714001CROWN CRIS INDUSTRIAL SALES AND                         11601
B0101402350321031714001MACHINE SHOP                                            21600
A0101402350000005645172GARCIA, ELFLEDA MENDOZA                                  0501
A0101405650000000526032EVANGELISTA, JOSELITO Q.                                10501
A0101405650000000526032or EVANGELISTA,                                         20500
A0101402510000000049409**********                                               0501
A0101402510000000200062BERNALDEZ, LIGAYA MACALINTAL                             0502
A0101402060000000562065ARGANOSA, MAGDALENA LYN SARZUEL                          0502
A0101402060351211769002RENATO R. ERMITA &/OR                                   10501
A0101402060351211769002RENATO H. ERMITA                                        20500
B0201400760374033207001W.T. CONSTRUCTION, INC.                                  1606
A0201400760374714837001HONTANOSAS, FRANCIS ALBERT OLAE                          0501
A0201400920000012765072AGUILLON, FILAMIE SANAGUSTIN                             0505
A0201400920000005323386ADAMS, JASMIN RACOMA                                     0501
A0201400920000012765021DUTERTE, LARRY DBU LMD URHOME                           10501
A0201400920000012765021DESIGN                                                  20500
A0201400920000000048031FMC CATERING SERVICES                                    0502
A0201400890000005508390CABALLERO, JENELYN MEJORADA                              0501
A0201400890000014086581BORJA, GRAY-BOY P. OR BORJA,                            10501
A0201400890000014086581RIZALYN JOY G.                                          20500
B0201400890000012352862BB. SUGBU CHARITY FOUNDATION INC.                        1602
A0101408370000005220028REODICA, RONALD ANTONIO S.                              10502
A0101408370000005220028OR AGUINALDO, MARLENE A.                                20500
A0101408370000010833582FONACIER, EDMUNDO LAKAN DOMINGO                          0504
B0101408370382007364001HUSKY PLASTICS CORPORATION                               1606
B0101408790000010384528JVC HENGUN ADVERTISING INC.                              1602
A0101402770000010082601FALLARIA, BENJO MARCO N. OR                             10501
A0101402770000010082601FALLARIA, BENEDICT N.                                   20500
A0101405490000001092637GRACE L. SALAZAR                                         0501
A0101405490000014865199SARACIN, JULIET M. OR                                   10501
A0101405490000014865199SARACIN, ROMEO M.                                       20500
A0101405490000011288043HUI, SANDRA OR HUI, CHING KEE                            0501
A0101408950000000776785AMANTE, ANGEL JOAQUIN MANUEL                             0502
A0101408950396624449001DELA ROSA, DENKY SHOJI WI                                0501
A0301400820000000316670TIONG, ARISTON D.                                       10502
A0301400820000000316670OR TIONG, FLORITA C.                                    20500
A0301400820000002271923CANONAYON, ERLINDA S.                                    0501
A0301400820000002271978NUEVO, MARIA CEASA JOY G.                                0501
A0301400820000007372810GOLIMLIM, MARICHU M.                                     0503
A5501400120000012653413CABLITAS, KRISTIAN JAY MANUEL                            0503
B5501400120000012653526HAPPY LIVING REALTY AND DEVELOPMENT                      1610
A5501400120410633077001CLAVISILLAS, JOSIE OR                                   10502
A5501400120410633077001CLAVISILLAS, RON                                        20500
B2401400180411032920001GENSAN AURORA AUTO SUPPLY INC.                           1605
A1201400150421152351001JISON, THERESE                                           0501
B0101403030000005944670**********                                               1601
A0101403320000014507792REY E. REPOTENTE                                         0501
B0101403320471009043001ABCOR INDUSTRIAL CORPORATION                             1605
A0101406330000000011861SOFIA D. TUNDAG                                          0503
A0101406330472536028001ARLES MIRANDILLA OR KRISTINE                            10501
A0101406330472536028001MIRANDILLA                                              20500
B0501400170481029507001ARCINUE DEVELOPMENT CORPORATION                          1605
B1901400320489068578001DM BERBERABE CONSTRUCTION & DEVELOPMENT                 11603
B1901400320489068578001CORP.                                                   21600
A1901400160000014945425MAGPANTAY, RAQUEL LUMANGLAS                              0501
A1401400110000010622550SALVAN, GEMELIANO JARDIN                                 0501
A1401400110492220879001ANGLO, ROMEO F. OR                                      10502
A1401400110492220879001ANGLO, CECILIA N                                        20500
A0701400260000013603840ANSANO, CRISANTO CASTROVERDE                             0501
A0101407430000002298246LIMTONG, ANGELA CHANTEL                                  0501
B0101407430000000035327TRI-STAR CARGO EXPRESS INTL. PHILS.                      1603
A0101407430503181684001RAUL D. FLORENDO                                         0501
A0101403580000012912093JATICO, JOSELITO PANDES                                  0502
B0101403580000013963852LED CORE ENTERPRISES & SOLUTIONS INC.                    1601
A0101405940000005068333TIOSECO, DAISY MAE CHUA                                  0502
A0101405940000005837118ELITA GAIL LOMONGO                                       0502
A0101405940000011462029SAN AGUSTIN, JOSEFINA REMEDIOS                          10503
A0101405940000011462029SINGSON                                                 20500
A0101408530000014943598AVENDULA, ALVIN JOY MORENO                               0501
A0101408530000014943703CAILAO, MA CHARISMA DEL ROSARIO                          0501
A0101408530000014943816ONG JR., RAMON ANGELO MAGBANUA                           0501
A0101408530000014935352ROLDAN, JUNYVETTE MANGUBAT                               0501
A0101408530000014935396MONTINOLA, RICHARD SANTOS                                0501
A0101408530000014943769HOLLEY ORDONA, CATHERINE ANN RA                          0501
A0101408530000014943849TAMBOT, JEMMELETTE PESCADERIA                            0501
A0101408530000014943747GAMMAD, JERIC SABUG                                      0501
A0101408530000014943890TAN, MICHELLE LACUATA                                    0501
A0101408530516568848001TANGCO, ERWIN CHUA                                       0501
B0101411790000000005318REM BUILDERS CORPORATION                                 1602
A0101412050000014501714SAUNDERS, MICHELLE AGUILLON                              0502
A0101403450000001638075ACUNA, TERESITA CABRERA                                  0505
A0101403450000009517648**********                                               0501
B0101403450521011964001THE CHURCH IN QUEZON CITY                                1603
A0101403450521239620001**********                                               0501
A0101403450521363855001********                                                 0501
A0101403450000006055698************                                             0502
A0101403610000006497905MANUEL, CECILIA BERNADETTE                              10512
A0101403610000006497905BAZARIO                                                 20500
A0101403610000011430532CONCHE, NICANOR LITONG                                   0502
B0101403610531046549001BIG APPLE PLASTIC PACKAGING INC.                         1602
B0101404130601024996002UNION CHURCH OF MANILA, INC.                             1610
B0101404130601690650001CEBA GLOBAL CORPORATION                                  1602
B0101404130601690650002CEBA GLOBAL CORPORATION                                  1602
A0101407720000003886875QUETUA, PAUL CONDES                                      0501
A0101407720602018981001PHIL. COLLEGE OF EMERGENCY MEDI                          0502
A0101407720602396410001PEREZ, MARTESIO C. OR                                   10501
A0101407720602396410001PEREZ, AGNES ESSEM                                      20500
A0101407720602398283001JOEL A. DE LA ROSA                                       0503
A0101407720602415232023ARLYN L. SONGCO                                          0502
A0101407720602771563001IGNACIO III, GIL OBAFIAL                                 0501
B0101407690652032192001RCBN - ST. PETER SHRINE                                  1612
A0101413990000006768638***                                                      0502
B0101413990000008250060CELEBRITY DARLING HEIGHTS CONDOMINIUM                   11601
B0101413990000008250060CORP.                                                   21600
B1301400210000008174032THE PASTRY CHEF CAKES & DESSERTS                         1601
B1301400210682030329002ANDAN ENTERPRISES, INC.                                  1602
B1301400210682039698002SEVENTY SEVEN TRAVELLERS INN                            11602
B1301400210682039698002CORPORATION                                             21600
A1301400210682568092001BAUTISTA, LUZVIMINDA CASTELO                             0502
A1301400340683361124002BUENAVENTURA, MYLINE SORIANO                             0502
B0101408240711028488001INTAS DESTINATION MANAGEMENT INC.                        1610
B0101408240000000832951HOMESMART PROPERTIES AND DEVELOPMEN                      1602
A0101408240711536696001MANOSA, MA. ISABEL SINGH                                 0502
A0101408240711572348001SALAPAR, MA FE POSITAR                                   0502
A0101408240711643338001ARCAYA, MICHELLE GRASPARIL                               0502
A2801400100000013013493ANDES, CHERYL DOMALINA                                   0502
A2801400100712365888001DODD, JOHN DAVID                                         0501
A4101400420000008280717YRAC, RITCHIE QUEJADA                                    0501
A4101400420814265475001RENATO P. NITOR                                          0501
A4101400420814520766027ARUTA, CORAZON G.                                        0501
A4101400420814744380001BARLAS, MONALIZA GOLIPARDO                               0501
A0101412340000003344852GERARDO T. NARVASA                                       0502
A0101404840000002327835DIMZON, ARNEL BEATRIZOLA OR                             10503
A0101404840000002327835DIMZON, AIREEN F                                        20500
A0101404840000005396949ESPORLAS, AURA AREVALO                                   0503
A0101404840851520766180CARMELITA M. BARBACENA                                   0501
B01014067508520371840011ST LINE OFFICE FURNITURES & INTERIORS/                 11610
B0101406750852037184001ANA MAE B. YAPE                                         21600
A0101406750852723857001MACALALAD, MAYETTE C.                                   10502
A0101406750852723857001MACALALAD, ERICKSON P.                                  20500
A0601400230000010702911SINGIAN, CARLO GUTIERREZ                                10501
A0601400230000010702911OR LORENZO-SINGIAN, DEANN                               20500
