A0101412890000000371442JASPER S FULGENCIO OR                                   10501
A0101412890000000371442LEONORA V FULGENCIO                                     20500
B0101412890000000125317LANSANG CONSTRUCTION                                     1601
B0101409050000000258531HENDERSON BLAKE BUSINESS SOLUTIONS,                      1602
A0101405490000003178432MIRIAM D. PANO OR MELANIO B.                            10502
A0101405490000003178432PANO JR.                                                20500
A0101408400394544997001NATIVIDAD, CAMILO VILUAN                                 0501
A2401400180411432546001LIM, ROBERT LIM OR LIM, GINA                            10505
A2401400180411432546001NAZARENO                                                20500
A0101412890000002747948*************                                            0501
A0101406750000000480660VARGAS, RAYMOND JOSEPH B. OR                            10502
A0101406750000000480660VARGAS, ELENNETT                                        20500
A0101406750852529156002DONGUINES, FLORDELIZA EULLARAN                           0504
A0101400860011382575003QIU, LIMIAN                                              0510
A0101400860011409985002**********                                               0505
A0101400860011452750001**********                                               0501
A0101400860011520310001**********                                               0501
A0101400860011541655001**********                                               0502
A0101400860011544971001CHEN, JUNYING                                            0501
A0101400860011552925001**********                                               0501
A0101400860011556558001**********                                               0502
B0101400860011570928001**********                                               1601
A0101400860011656351001**********                                               0502
A0101400860011783032001**********                                               0502
A0101400150000000807209RAMON S. DE MESA OR JASMIN                              10501
A0101400150000000807209CRISTINA ALVARAN                                        20500
A0101400150000003165200Maria Cecilia C. Maglonso                                0501
A0101400150000002902752FISCHER, JANICE TUMAMBING                                0501
B0101400150061011074001CAGDIANAO MINING CORPORATION                             1610
B0101400150061025214001MAA CONSULTANTS, INC.                                    1601
A0101400150061229054001RAYMUNDO L. LOGAN                                        0502
A0101400600071233759001**********                                               0501
A0101400600071235565001**********                                               0501
A0101405810072234892001**********                                               0501
A0101405810072326780001**********                                               0510
B0101405810072374751001**********                                               1601
A0101405810072406274001***************                                          0502
A0101405810072552382001WU, STEVEN WANG                                          0502
A0101405810072554045001**********                                               0504
B0601400100081013397001MUNOZ, JUICO ENT., INC.                                  1604
A0601400100081504737001KAW, GEMINI DEANG                                        0502
B0601400360000000978845P4 HUMAN RESOURCE SOLUTION, INC.                         1602
A0101401960000004419881SUNWELL ENTERPRISE                                       0502
A0101401960000000211025ESTELLA, ROGELIO TAN                                     0501
A0101413310000004735713MULI, PERLITA RUBIANO                                    0501
B0101401830141043438001R.A. ROSILIO ENGINE REBUILDER                            1602
B0101407270162038101001BIRDS INTERNATIONAL, INC.                                1603
A0101407270162539457001MARIA LACSINA A. DIAZ OR                                10501
A0101407270162539457001JOHN PAOLO N. CA                                        20500
A0101401090000001618800ESCOBAR, MARIA LOURDES OR                               10502
A0101401090000001618800PROCESO OR LEONILA                                      20500
A0101401090171198733001JUANITO L. GARCIA                                        0501
A0101401090171403296002JOAN CHRISTI S. TROCIO                                   0502
A0301400530000003087363LEGASPINO, HERMENEGILDA AARON                            0501
A0301400660000002348472NANIE DORADO OR RICHARD DORADO                           0501
A0101401380000001412468NECERIO, RAYMOND ABOCADO                                 0501
A0101401380000000106481LUNA, ANTONIA CAMIT                                      0502
A0101410720000004626415GARCIA, MELVIN G. OR                                    10501
A0101410720000004626415GARCIA, BARBARA P.                                      20500
B01014107206530270550013 J METAL INDUSTRIES                                     1601
A0101410720000001602302POZON, B DBU I.P.W. TRADING                              0501
B0101412500000000041738ABBU,SANTAMARIA,ESTONIDO & ASSOCIATES                   11602
B0101412500000000041738DESIGN GROUP                                            21600
B0101413600000000206915LEGEND OF ICE RECRUITMENT                               11604
B0101413600000000206915& SERVICES INC.                                         21600
A3101400450223046748001PLAN ELECTROTECH CENTER                                  0501
A1001400190231313527001TAN, NENITA MENDOZA                                      0501
A1301400760000002346016NIO LATINA                                               0501
A1301400760253087654001CATHERINE F SANVICENTE OR                               10505
A1301400760253087654001VINCENT PAUL P SANVICENTE                               20500
B0101406460000000182409MAN ASIA MANPOWER AND GENERAL SERVI                      1601
A0101406620273035687001GOLDRICH MANAGEMENT SERVICES                             0503
B0101406620273041414001GANO I-TOUCH PHILIPPINES INCORPORATED                    1605
B0101406620273045661001OMEAX ENTERPRISES                                        1601
B0101410980000003479492SKOPE TECHNOLOGY INC.                                    1602
A0101400570281043930002REALTY & ENTREPRENEURSHIP                               10501
A0101400570281043930002ACADEMY OF THE PHILIPPINE                               20500
A0101400570281388539038ELENA R. CATALO                                          0501
A0101400570281596416002SUSAN M. ALONZO OR                                      10505
A0101400570281596416002BENJAMIN T. ALONZO                                      20500
B0101411240283794633001PANAGUITON, DIVINA OR PANTALEON                         11601
B0101411240283794633001, ANNA ROCIO OR                                         21600
A0501400200000005751646JACINTO, JOCELYN ORPILLA                                 0501
A1101400120000001920678PALMA, JHOWIEN ROYO                                      0501
B1101400120313040867001PRO 8 CREDIT COOPERATIVE                                 1601
A1101400120313478374079MARIJOE N. CORANEZ                                       0501
A6601400120000001065309SOSA, NESTOR OR TERESITA                                 0501
B6601400120314040691001NORTHERN SAMAR ELECTRIC COOPERATIVE,INC.                 1610
B3401400280318045071001ASIA PACIFIC AQUA MARINE, INC.                           1601
B0101402350321037880001UNITRADERS ALUMINUM & GLASS CORP.                        1602
A0101402350321427762001CHOY, ENG FAN OR                                        10502
A0101402350321427762001MILA B. AQUINO                                          20500
A0101402350000001474380CHANG, CHIAO FENG                                        0501
B0101405650000000772743BF FEDERATION OF HOMEOWNER ASSOCIATION                   1601
A0101405650000000525717TAMBUNTING, JOY MYRA SALVADOR                            0510
A0101402510341277724001PRUDENTE, JOSEPHINE ESGRINA                              0502
A0101409050352600066001FAYE CARLIE TUAZON OR                                   10501
A0101409050352600066001BENSON RYAN CRUZ                                        20500
B0201400920000000047750FUTURE FUSION-ECO FOUNDATION INC.                        1601
B0201400890376037020001BREEDERS AGRIVET SUPPLIES INC.                           1605
A0201401020000004409078PEPITO JR, RICARD DBU AQUA MAGI                          0503
A0201401020000000056448PEPITO JR., RIC DBU FLOTANTE RE                          0503
B0101402930381021740001YOSHINOYA CENTURY PACIFIC INC.                           1605
A0101408370000005220073SAUZ, ELKE MARIE ASIADO                                  0502
A0101402770391513745002THELMA ORTIZ TANAKA                                      0501
A0101405490000000232453ROMEL P. ALMEDA                                          0502
A0101408400000000960430DITUCALAN, JAMILA FAISAL                                 0501
A0101408400000001035534VERONICA FAE G. DALUNDON                                 0502
A0101409180000004375382TAN, MARK HANSLEY                                        0501
B0101409180397024361001ASALUS CORPORATION                                       1602
B0101409180397044045001CACHO CONSTRUCTIONS, INC.                                1603
B0101409210000006598943ALBATROS BUSINESS SOLUTIONS INC.                         1602
B0301400820000000024911DIGOS DOCTORS' HOSPITAL, INC.                            1620
A5501400120000002019056ONG, DANIEL STEVEN DY                                    0502
A5501400120000002949622SANDIG, EDGARDO REYES                                    0501
B2401400180411016835001GENERAL TUNA CORPORATION                                 1605
B0901400220000001804991**********                                               1602
A0101412890000003508063SAMSON, RENATO DE GUZMAN                                 0501
A0101412890000002747813CAYABA, TERESITA ARTIENDA                                0502
A0101412890000002747846*****************                                        0502
B0101403320471008879002GOLDWIN MANUFACTURING                                   11610
B0101403320471008879002LABORATORIES                                            21600
B0101403320471024815001GOLDRICH FOODS CORPORATION                               1603
B0101403320471040565001HUMAN SHELTER REALTY CORPORATION                         1603
A0101403320471042842001MIGO MEATSHOP AND FOOD SUPPLY                           10510
A0101403320471042842001CENTER                                                  20500
A0101412760000000528205SARAH JAYNE A. SANCHEZ                                   0501
A0501400170481330355001JESSE STEWARD L ONG                                      0502
A0501400170481777043001QUINTO III, ALFREDO ARZADON                              0501
A1901400160000003198685FRANCIS LUCENA OR SHIELA COMIA                          10502
A1901400160000003198685OR ARNEL HIBO                                           20500
A1901400160491422212001OLIVER B BORILLO OR                                     10503
A1901400160491422212001MARIBEL C BORILLO                                       20500
A0701400260000001804724AMPONGAN, ANDRES PALACIO DBU                            10501
A0701400260000001804724ANDRES AMPONGA TRADING                                  20500
B0701400260000000671027ALL JORD TIRE SUPPLY CORPORATION                         1603
A0101407430503378430001DOUGLAS ARTHUR U. LIMTONG OR                            10502
A0101407430503378430001JANE R. LIMTONG                                         20500
B0101405940512024480001RICHMEAL FOODS CORPORATION                               1605
A0101405940512366890005CASTILLO, RAFAEL RICAFRANCA OR                          10501
A0101405940512366890005CASTILLO, REBECCA                                       20500
A0101408110515365513003KARIMA HASSAN T. CASTRO OR                              10502
A0101408110515365513003DANIEL OLIVER CASTRO                                    20500
A0101411400000000001576EBORA, MARIO BALMES                                      0502
A0101412050000003966763DE LEON, ARTURO PUZON OR                                10501
A0101412050000003966763DE LEON, WILFRED                                        20500
B0101403450521011977001TRUSTY AUTOMOTIVE PHILS.                                 1601
A0101403450521238062002**********                                               0501
A0101404000000005867127TORRES, DENNIS KAYE WICO                                 0501
A2201400250000004404959MANLANGIT JR., RAFAEL DAVID                              0501
B2201400250561018524001IWS REALTY CORPORATION                                   1601
A0101404130000005962252CU, ANGELITO DEQUINA                                     0501
B0101404130601030838001ELEV 8 MEDIA, INC.                                       1605
B0101404130601035458001CITYLAND CONDOMINIUM VIII, INC.                          1605
B0101404130601046787001NORTHPOINT DEVELOPMENT BANK, INC.                        1605
B0101404130601669890001HODREAL HOLDINGS INC.                                    1605
A0101407720602271723146DR. DANILO ANASTACIO                                     0503
A0101407720602397271001OZAETA, MA. RAMONA PABLO                                 0501
A0101404260000000550092TIU, CH DBU ACN MONEY TRANSFER                           0503
A0101404260000000532283UNI STOP DRUG & GENERAL                                 10501
A0101404260000000532283MERCHANDISE                                             20500
A0101404260611478374091ROSITA LLANES                                            0501
A0101404260611478374104JUDITH R LUMBO                                           0501
A0101409890000006812780TIAMLEE, ALEXANDER TAN OR TIAML                         10503
A0101409890000006812780EE, VICTORIA OR                                         20500
A0101409890649047047001**********                                               0508
A0101409920000000857923TUAZON, DENNIS ANGCOG                                    0501
A0101413440000001472982CABRERA, HENRY PARAS                                     0501
A0101413570000002976130FLORINDA J. BUBAN                                        0501
A0101413570000003379993KARREN ANNE M. CARNERO OR                               10502
A0101413570000003379993RYAN CONRAD D. CARNERO                                  20500
A0101413570000005743791MATT LESTER N. MATEL                                     0501
A0101413990000004511135GOJO CRUZ, ROXANNE DULAY                                 0503
B0101413990000000206226EREHWON ARTWORLD CORP.                                   1601
A0101414120000000398972ULDERICO MERCED TRUCKING                                 0502
B0101414120000003584281JD & P FOOD TRADING CORPORATION                          1602
A0101414120000005252922*****                                                    0502
B0101406590000000905511MAINEVENT AND MARKETING CORP.                            1602
B0101406590662061345001FRONTIER INSTITUTE OF SKILLS AND                        11601
B0101406590662061345001TECHNOLOGY INC.                                         21600
A0101406590662650417001RAISSA LACSON OR SHERYLL ANN                            10501
A0101406590662650417001SOBREMONTE OR RACHEL YU                                 20500
A1301400210000001206831RUTH S IRENEA                                            0510
A1701400230693478374031VILMA D. BAGAY                                           0501
A1701400230000000097790ASIS, MARY JEANE PAGUSAN                                 0501
A1701400230693635864001SORIANO, JOSE JOEY QUINTO                                0501
B0101408240000000005147ZABLAN VENTURES AND DEVELOPMENT                         11601
B0101408240000000005147CORPORATION                                             21600
A0101408240000002821718PUNZALAN, SUSANA RANA                                    0501
A0101408240711372798001BENJAMIN OR ESTELA NARCISO                              10502
A0101408240711372798001OR MONICA GARCIA                                        20500
A0101408240711418819006RICA S. BAGATSING                                        0503
A2801400230000005253316NAVARRO JR., ERNESTO SITJAR                              0502
A2801400230000002312390LAMB, DAVID JOHN                                         0501
B2801400230000000372781GR888T C CORPORATION (CHOAS)                             1601
B4101400260000003679790CUTTING EDGE SEMITECH INC.                               1602
A4101400550000003839167IMELDA F. TAN                                            0501
A0101412340000005566550PARAS, WHILM DBU WPP TRAVEL CON                          0502
A0101412340000001017849MASUBAY, MA. CHRISTINA B.                                0501
B0101404840851046041001IFE ELEVATORS PHILIPPINES INC.                           1620
A0101404840851413054001EDO, NENE GURO                                           0501
A0101404840851481664037CHRIS ALMOITE                                            0501
B0101405070861047281001AVISTELE CORPORATION                                     1601
A0101405070861527090001RYU, KYOUNG HWA                                          0503
