A0601400230000000045230VICENCIO, M DBU HCON BUILDERS &                          0502
A6601400120000000060831YONGCO, MARIE UY                                         0501
A1701400230000000097756BUSTAMANTE, FRANCIS FIGUERAS                             0501
A0101412760000000208626COMIA, M DBU CINCTURE BIO-ASSET                          0501
A0101401960000000211014WEE, JOHANNE THOMSON TAN                                 0502
A0101404840000000232880PANLILIO, DBU PATRICE LIGHTINGS                          0501
A0101407720000000245214LEORNA, IRENE CASUBUAN                                   0501
A0301400790000000436008MANALILI, ANNABELLE LEONOR                               0501
A1001400480000000474942DACALOS, GENMAR MANLOSA                                  0502
A0101404260000000550105CADION, ROVI KALAW                                       0502
A0101414120000000649058VILLARUEL JR., DIONITO BUAYA                             0501
A0101413600000000650964ANNE B. HIPOS                                            0501
A1101400120000000652351YAO, RONALD PHILIP GO                                    0501
A0101412760000000767751ROMERO, CATHERINE RIZO                                   0501
A0101400150000000807578LIM, JACKIELOU PAPELERIN                                 0501
A0101414120000000875550STORM CONSTRUCTION                                       0502
A0101410300000000919502SISON, JOSE VICENTE G.                                   0502
A0101412340000001017849MASUBAY, MA. CHRISTINA B.                                0501
A6601400120000001065270ECHALUCE, FRANCISCO CHIN                                 0502
A0101414120000001142818CAS PROPERTIES INC.                                      0503
A0101407140000001218320POLANES, HEGINO AMEN                                     0502
A0101408530000001268662BITE, MARIA KRISTINE NADIA B                             0502
A0101400440000002034782CHARITO IBANEZ                                           0502
A1101400120000002254822NABAUNAG, LEONORA FUENTES                                0504
A0101408950000002255318BOCALING, JONATHAN DIAZ                                  0502
A0101411660000002309371RAJAN BHAGWANDAS GIDWANI                                 0503
A0101409890000002326683LABAYEN, JOSHUA JOSEPH NEBRIAGA                          0505
A0101404840000002327777PASION, VICTORIA NERISSA KAGAOA                          0503
A1701400230000002347333SALAZAR, EDWIN ENRIQUEZ                                  0502
A1001400350000002367240CAPAL, MAGLANGIT ALANG                                   0501
A0101414120000002879761ALARCON, MARIA TERESA MENDOZA                            0502
A0101410850000003102136MISTERIO, E DBU E.S. MISTERIO I                          0502
A0101401670000003181655ADINA, LILIA TOMAS                                       0502
A0101412340000003341682JOSEPHINE PAULA FE A. CARINO                             0501
A0101412340000003343860ISABEL L. JAVIER                                         0501
A0101412340000003348970MEL CHRISTIAN O. SINIBALO                                0501
A0101409180000003882462DAVY, JOHNNY B.                                          0501
A0101407270000003970809MARIO ANTONIO J. SANTOS                                  0501
A0801400160000003976370ESPINOSA, MANUEL VINCENT OCCENA                          0501
A0101408950000003978861PLACIDO, NARCISA CABALLERO                               0501
A0101400860011475361001**********                                               0505
A0101400860011507959001**********                                               0501
A0101400860011536336001**********                                               0502
A0101401250021178954001LIBERTY STATIONERY                                       0501
A0101400150061236944069JUDY B. GONZALEZ                                         0501
A0101400150061236944069JUDY B. GONZALEZ                                         0501
A0101405810072354724003FUENTES, LILIA S.                                        0501
A0101405810072367597002WANG, GUO YANG                                           0502
A0101400440161039572023JIMMY S. PALISOC                                         0502
A0101400440161525001105VIRGIE B. CRUZ                                           0501
A0101400440161629577001MARIO E. BALLAD                                          0501
A0101407270162496878002ABIGAIL SULVITA                                          0502
A0101401090171050543001CLYDE-KRENT TRADING                                      0502
A0101401090171195271002MARQUINEZ, LILIA AQUINO                                  0501
A0101401090171439619001JOCYLINE L. ALMEDA                                       0501
A1001400190231446795001******                                                   0501
A1001400350233042653001BLUE ENERGY RESOURCES                                    0502
A0101401670271188016001ALEJANDRO R. SABINO                                      0501
A0101401670271383413003*****                                                    0501
A0101406620273281364001BANTIGUE, WILLIAM ANISCO                                 0503
A0101410980275771013001**********                                               0501
A0801400160311523023001STA. ANA, ELEANOR ACABAL                                 0501
A1101400120313478374074UNGAB, ROSALINDA B.                                      0502
A1101400120313478374103ENVERZO, NARISSA LEONORA G.                              0501
A0101402350321179338001TRINIDAD WONG                                            0502
A0101402350321287893001CHANG, PO HAN                                            0501
A0101402350321478374054ALEGERE S. TAPAO                                         0502
A0101402350321683053001NOVA N. NICOLAS                                          0501
A0101405650322047677001THE J. BIJE'S WINDOW SHOP                                0504
A0101405650322298552009CARMEN T. ADOR                                           0503
A0101408370382227014001ANNIE T. COLEMAN                                         0501
A0101402770391013439001JIREH'S CAR PAINT SHOP                                   0502
A0101408400394029894001ANGEL HANNAH FUNERAL HOMES                               0502
A0101408950396484851001AMY ROA ALVAREZ                                          0501
A0101403030441243441001**********                                               0502
A0101403030441544108001**********                                               0503
A0101403320471193254001JOSEPHINE S. BAYSA                                       0505
A0101403320471205840001*****                                                    0506
A1901400160491546773001IRENEA M ERLANO                                          0501
A1401400110492521817001ZARSADIAS, YBETT TINAMISAN                               0501
A1401400110492524359001VELUYA, DALISAY BRIONES                                  0501
A0101407430503635946001NAVARRO, DONALD DELA CRUZ                                0501
A0101407720602398542002DR. ROBERT DENNIS J. GARCIA                              0502
A0101410720653089998001ABANA, IDERLINA TAGUIAM                                  0501
A0101410720653174169002GALVEZ, GLENN ANTHONY BAJA                               0502
A0101410720653452116001VIRGILIO R. BACQUEL JR.                                  0501
A1301400340683388909001BALUYOT, AMELIA RENOSA                                   0505
A1301400340683494901001***                                                      0501
A0101408240711373874001MARILYN P. ALTAREJOS JT                                  0502
A0101408240711590128001JUAN, LUZVIMINDA DOMINGO                                 0501
A4101400260812494718001JOCELYN M. FRENCILLO                                     0501
A4101400390813478374014ELIZABETH V. EVAL                                        0502
A0101404840851478374121MARISSA L. ESPARAGOSA                                    0502
A0101404840851478374171LORENA A. ARES                                           0501
A2601400270000000084320GERVACIO S. MARFIL OR                                   10501
A0101406750000000090639REY, MARK DARRELL DBU ARISE                             10501
A0101405650000000348721GANA, TERESITA V. OR                                    10505
A0101403320000000452475LIZ HAZEL C. GALAPON OR                                 10510
A0101410980000001154410JANETTE VERONICA SERGIO OR                              10503
A0101406330000001235363FERNANDO P. MENDOZA JR. OR                              10501
A0101414120000001427601ISABEL MONTERO OR CARLOSA                               10501
A0301400790000001776161TAN, CHARLIE SANCHEZ DBU                                10502
A0101412920000002358961GEORGINA MA BERNADETTE F. LUNA/                         10501
A1101400120000003022544PULMA, MARY ANN G. DBU GASPANG-                         10501
A0101401090171196095001ALBERTO WONCHAI OR                                      10502
A3101400870225056640001DUMAYAS, G DBU GRIDLHEY                                 10502
A1001400350233653751008CHABON JR., JUDE OR                                     10502
A0101401670271338381001MA. ANNALIZA A. BARTOLOME OR                            10501
A0101400570281021967001CHANGING DIGITAL IMAGING                                10501
A1101400120313056644001GABRIANA, DEVINA HUYATIO DBU                            10501
A1101400120313542847001LAO, WILSON JOSE S. OR LAO,                             10505
A0101408370382399401001DR. EMILY ROSE C. BELEN OR                              10502
A0101405490392571716001GERALDINE O. ACTHLEY OR                                 10501
A1201400150421253603001FLORES, ISABELITA MENDOZA OR                            10501
A0101403320471509879001EDILBERTO BARTOLOME AND RONALD                          10501
A0101409920650478374011MELFLOR M. SILVINO                                      10501
A0101408240711396310001LESTER C. VICTORIA OR                                   10502
A2601400270000000084320REBECCA M. MARFIL                                       20500
A0101406750000000090639TRADING                                                 20500
A0101405650000000348721GANA, JOSE MARIA                                        20500
A0101403320000000452475ROMMERSON G. GALAPON                                    20500
A0101410980000001154410CRISLIN RENEA SERGIO                                    20500
A0101406330000001235363MARIA ELEONOR G. MENDOZA                                20500
A0101414120000001427601TUGADO                                                  20500
A0301400790000001776161CSTAN AQUAMARINE VENTURES                               20500
A0101412920000002358961RICARDO P. LUNA                                         20500
A1101400120000003022544AGUILLON BIRTHING CLINIC                                20500
A0101401090171196095001MILAGROS W. LIM                                         20500
A3101400870225056640001BUILDERS AND SUPPLY                                     20500
A1001400350233653751008CHABON, CLAIRE                                          20500
A0101401670271338381001DINO ANTONIO BARTOLOME                                  20500
A0101400570281021967001GRAPHIC                                                 20500
A1101400120313056644001DIVINE PAANAKAN                                         20500
A1101400120313542847001JOVITA T. OR LAO                                        20500
A0101408370382399401001DR. POCHOLO P. B                                        20500
A0101405490392571716001RAQUEL A. TAJONERA                                      20500
A1201400150421253603001DOLOROSA, ROMEO                                         20500
A0101403320471509879001BERCILLA & ALFREDO SULIT                                20500
A0101409920650478374011MEMBERS OF NATASHA                                      20500
A0101408240711396310001GIL JOSE E. PULUMBARIT                                  20500
B0101411790000000005370RE'DIS GLOBAL CORP.                                      1601
B1301400470000000009696MAKOBOBI DISTRIBUTORS INC.                               1601
B1001400350000000017096AYA VENTURES CORPORATION                                 1604
B0101402350000000046051ALLSTUFF TRADERS INC.                                    1603
B0101410980000000171997FUNTOURS TRAVEL CORPORATION                              1601
B0101402480000000310647CONSERVATORY SHAW PLAZA INC.                             1601
B0601400520000000398625PADSA ENTERPRISES                                        1602
B1601400170000000497081DAVID CODY AND LAWRENCE ANGELO P. SENDIN                 1601
B0101405650000000772721PREMIERE COMMUNITY PARTNERS, INC.                        1605
B4101400260000001199117EG RANESES TRADING CORP.                                 1601
B0101402480000001562027************                                             1610
B0101408790000002659072LEAD HOPE DIGITAL INC.                                   1601
B0101400150061015841002ENZIMA INTERNATIONAL, INC.                               1602
B0101400150061038004001MENZI TRUST FUND, INC.                                   1606
B0101407270162043721001ABS-CBN HOLDINGS CORPORATION                             1602
B0101401090171027076001THOMASIAN MEDICINE CLASS 1981, INC.                      1601
B3101400160221010175001MARYMOUNT DEVELOPMENT CORPORATION                        1603
B1001400350233041261018CENTRO SUPERSALES INC.                                   1610
B0101401670271007115001RAMIREZ AND CUTTER, INC.                                 1603
B0101406460272020749003EASTGATE COMPUTER CORPORATION                            1601
B0101406620273018522001VALYERMO TRADING CORPORATION                             1601
B0101400570281043944002EXLO MANPOWER AND ALLIED SERVICES, INC.                  1604
B0101405650322033184002ASIA PLUS CORPORATION                                    1605
B0101405650322033249001PEAK PROPERTIES INC.                                     1605
B0101402480331018366001******                                                   1603
B0101402480331541505002PHARMAGENERICS, INC.                                     1603
B0101408820333037018001********                                                 1602
B0101402060351009368002RESINS INCORPORATED                                      1603
B0101402640361024449001COLLEGE OF ST.CATHERINE, QUEZON CITY                     1602
B0101403320471022389001PRIME PIZZA INCORPORATED                                 1603
B0101406330472040053001KUS OFFICE SYSTEM MFG. CORP.                             1602
B0101407430503024216001BASIC POLYPRINTERS & PACKAGING CORP.                     1605
B0101407430503024218001T.O.L. REALTY & DEVELOPMENT CORPORATION                  1603
B0101403580511020857001ROBROS INCORPORATED                                      1603
B1001400350233533309001MARIO JOSE A. SIA / CAGAYAN DE                          11605
B2401400180411014376005PENBANK, INC. (A PRIVATE DEV'T BANK) -                  11602
B1601400170494047397001FEDERATION OF BACMAN HOST                               11602
B0101405070861385408001UY, ROBERT/TAN, EDWIN/MENDOZA, MANUEL/                  11605
B1001400350233533309001ORO HARDWARE AND                                        21600
B2401400180411014376005CALUMPANG BRANCH                                        21600
B1601400170494047397001COMMUNITIES, INC                                        21600
B0101405070861385408001LIM, CHARLIE                                            21600
