F0101410850109027472001SMC SHIPPING & LIGHTERAGE CORP                           2610CKR
F0101402510341196747002CENTRO ESCOLAR UNIVERSITY                                2650CKR
F0101402510341196747002CENTRO ESCOLAR UNIVERSITY                                2650CKR
F0101403320471046476001ZHOEBLESS CORP.                                          2601CKR
F0301400790000001211681GABUTERO, ROMMEL D OR                                   12601CKR
F1301400210682083462001CENARE RESTAURANT AND CATERING                          12602CKO
F0101406750852032744001COSCO INTEGRATED OFFICE SYSTEMS                         12605CKR
F0301400790000001211681GABUTERO, MICHEL                                        22600CKR
F1301400210682083462001SERVICES, INC.                                          22600CKO
F0101406750852032744001INC.                                                    22600CKR
