B0101401960121821100608**********                                               2005
B0101409050352821100608**********                                               2002
B0101412210399821100608**********                                               2003
B0101410850109821100608**********                                               2030
B1101400120000000652891COASTALVIEW FOODS CORPORATION                            1603
A0101410560000005280893CHRISTIAN A. MANGARIN                                    0501
A0101409180000004375359ARCHIE SANCHEZ                                           0501
A0101414120000006005265GALGANA, ARPHISOL REALES                                 0501
A3001400130000010813431ARAGONCILLO, NECYLYN ICALINA                             0505
B0101409180397024348001APPLESEED MONTESSORI INCORPORATED                        1601
B2401400180000011299148************************                                 1602
B2401400180411035164001MOMMY GINA TUNA RESOURCES (MGTR), INC.                   1610
A2401400180411338845001ROBERTO T. PERALES OR                                   10505
A2401400180411338845001JANET C. PERALES                                        20500
A2401400180411514423001DEALA, BERNARDITA GATCHALIAN                             0502
A2401400180411623548001ASIS, CITA DELIA CABADING                                0510
B0101407720000000885554PHARM GEN VENTURES CORP.                                 1601
A0101400860000001348705**********                                               0501
A0101400860011390709002**********                                               0505
A0101400860011503590002.*********                                               0503
A0101400860011556558001**********                                               0503
A0101401250021390827001VENTURA, MARIE ELIZABETH A. OR                          10501
A0101401250021390827001VENTURA, TERESITA A.                                    20500
A0101400150000004090599OSMENA, RAMON LUIS MAPUA                                 0502
B0101400150061010680001CONSORTIUM INDUSTRIES, INC.                              1603
B0101400150061010853001CROSSPOINT PAPER, INC.                                   1601
A0101400150061039916083***************                                          0501
A0101400150061074546003FERNANDEZ, ROY JOSEPH SALDUA                             0502
B0101400150061230978001CHRIST'S GOSPEL FELLOWSHIP                              11605
B0101400150061230978001MINISTRIES, INC.                                        21600
A0101400150061299100003SIY, WILFRED TIONG                                       0501
A0101400150061397689001SISON, PETER GOCHIOCO OR                                10501
A0101400150061397689001SISON, GIDEON GOCHIOCO                                  20500
A0101400150061569177001YOUNG, ROLAND SAMUEL                                     0501
A0101400150061760519001CARO II, ANDRES GATBUNTON                                0502
A0101400600000000470051********                                                 0501
A0101400600000002335684********                                                 0501
B0101400600071374235001**********                                               1605
A0101405810072354021002CHENG, MARIA ISABEL DIAZ                                 0501
A0101405810072367294001**********                                               0501
A01014058100723672940021ANG, PIAK SONG SIA                                      0501
A0101405810000002314687DEPANO, BERNARD GAN                                      0502
B0101405810072412798001**********                                               1603
B0101405810072642761001***************                                          1601
B0601400100000002099301SENTINE DEVELOPMENT CORPORATION - A                      1601
B0601400360000000978925RONDAYVU MANUFACTURING                                  11605
B0601400360000000978925CORPORATION                                             21600
A0601400520000004423283ALBANO, BERNARDO MACAPINLAC                              0501
A0601400520000007553235TULIO, JANET DIZON                                       0504
A0101413280000002317619AMIN, SHIRLEY                                            0501
A0101410850000000778838MISA, MIGUEL ENRIQUE ZABLAN                              0501
A0101410850000005161320JIMENEZ, ANNABELLE GONGE                                 0501
A0101410850109055839001ALVAREZ, ROBERTO DALANON DBU                            10502
A0101410850109055839001RTA TRUCKING                                            20500
A0101410850109554406001DELA CUESTA, ZHEENA CHOO                                 0501
A0101410850109554406001DELA CUESTA, ZHEENA CHOO                                 0501
A0101410560000002316490BANGIA, ARUN KUMAR                                       0501
A0101410560000010317727EVANGELINE E. GABAS                                      0501
A0101410560000010317705JARI PETER S. CATANGAL                                   0501
A0101410560000011826298MAY CAROL MACAPIA-SIA                                    0501
A0101400730000002882455STO DOMINGO, BERNADETTE SAYAROT                          0502
B0101401960121037354001METRODORM ARRANQUE CORPORATION                           1605
A0101401960121338333001************                                             0501
A0101401960121338867001************                                             0501
A0101401960121424117001************                                             0501
A0101401830141546656001JENNY V. CATRIZ                                          0501
A7201400170000003772918TAN, ROSITA LUY OR TAN, MELANIE                         10502
A7201400170000003772918LUY OR TAN, MICH                                        20500
A7201400170000003774298MADARANG, PRECY JANE YBANEZ                              0502
A0101412920000003465007CABIGAN, AGNES STA. CRUZ                                 0501
A0101407270000010959892LIM, HUAK TECK                                           0502
A0101407270162331908032LIZA LEAH JUINIO                                         0502
A0101407270162523576001YEKATERINA A. AGUILON                                    0501
A0101407270162548200001ALISANGCO, MARTIN FLORENDO                               0501
A0101401090171196010001BARCELONA, LILY COO OR BENITO                           10505
A0101401090171196010001OR KARIN B. CALDERON                                    20500
A0101401090171196093001VILLAMOR, CECILIA ASUNCION                               0505
A0101401090171200588001BOBBY S. PARENO                                          0501
A0101401090171328970001RAYMOND C. TORRES                                        0502
A0101401090171335164001LIBERTY F. TRINIDAD OR MARIA                            10502
A0101401090171335164001THERESA F. TRINIDAD                                     20500
A0301400530000011432841ENTIZE, MIKE WRIGHT ALMEDILLA                            0501
A0301400790000006269856DEDELES, ARMAN CASCABEL                                  0501
A0301400790000003969597SENERES, LEO VILLAREAL OR                               10502
A0301400790000003969597SENERES, ALLEN MORAN                                    20500
A0301400790000000435909KASER, NELIDA AREVALO                                    0501
A0301400950000010701116SUBA AN, BRYAN SACAY                                     0501
A0101401380201241272001CHAN, DEBBIE YU                                          0501
A0101401380201725122001****************************                             0504
A0101413020000006295981CASQUEJO, JUNAL JOSEPH MIGUEL                            0501
B0101410720000000030013JAMISHKA CORP                                            1610
A0101410720653172475001MALABANAN, IRENEO PLAZA                                  0505
B0101413600000005524783JOCO FRANZ BENSON DBU I-FB TRAVEL                       11601
B0101413600000005524783AND TOURS                                               21600
A3101400160000011243773PADILLA, RICHARD LANCETA                                 0502
A3101400870225478374002BODORAYA, RUZIEL RAMOS                                   0502
A3001400130000001271312SHAPE & WELL NUTRITIONAL                                10501
A3001400130000001271312PRODUCTS                                                20500
A3001400130230478374004BALABA, JANETH BORJA                                     0501
B1001400190231038123001TECHNIQUE PAINT CENTER                                   1603
A1001400190231478374128BONIFACIO, LIZA                                          0501
A1001400190231520766020LUBIDO, CAROLINE JARALES                                 0501
A1001400190231520766024ALCOS, LIESIL SARIGUMBA                                  0501
A1001400190231520766031CARANO-O, JANFIR JANE V                                  0501
A1001400350000000922207MAXIMO A. UY OR                                         10505
A1001400350000000922207JEORGE HERNANITO                                        20500
B1001400350233042688001SOLIDMARK, INC.                                          1605
A1001400350233528399003KO, JOSE NELSON AND                                     10502
A1001400350233528399003KO, CHARMAINE                                           20500
A1001400480000002300361TRINIDAD, ARTEMIO UDASCO                                 0501
B1001400480000000133593DELUXE RANCH TRANSPORT CORPORATION                       1601
B1001400480000000133593DELUXE RANCH TRANSPORT CORPORATION                       1601
A1301400470000002299778FERDINAND DYSICO OR                                     10505
A1301400470000002299778FARAH DINAH DYSICO                                      20500
B1301400470000003270191PERLA COMPANIA DE SEGUROS, INC.                          1601
A1901400290261247767001ERLINDA P GARING                                         0501
B0101401670271693367001GERARD R. MENDOZA ENTERPRISES INC.                       1602
B0101406460272038032001WEE COMMUNITY DEVELOPERS, INC.                           1601
B0101406460000000712714WEE COMMUNITY DEVELOPERS, INC.                           1601
A0101406460000002331022ONG, ANNA LISA CEDENIO                                   0501
A0101406460272532219001DAYU, ANNABELLE BONAOBRA OR                             10501
A0101406460272532219001DAYU, FELIPE S.                                         20500
A0101406620000000962283COLANTA, EMELYN CASERIA                                  0503
A0101406620000002009245DE LEMOS, MARY JANE DOCOT                                0501
B0101406620273026149001TR PAPER PRODUCTS, INC.                                  1602
B0101406620000003497165***************                                          1605
B0101406620273216386001CITIMEX, INC.                                            1602
A0101406620273520627001TIBAY, CARMELITA PENAMORA                                0501
A0101408660000000373033CHUA, JACQUELINE CHAN                                    0501
A0101408660274594401001DE LA VEGA, AMOS PAT ROYO                                0502
A0101410980000000012551MINA, MA CRISTINA REYES                                  0501
A0101410980000002987097TAN, ABBIE MARIAN LIM                                    0502
A0101411820000005380183JIMMY PUYING CANUTO                                      0502
B0101411820000000024142HARDCOM COMPUTER SYSTEM CO.                              1601
A0101412470000002295805JOAQUIN MARTINEZ TEOTICO                                 0502
A0101400570000000165757BOLIMA, MELCHOR YABUT                                    0501
A0101400570281186576001DR. ROSEMARIE JEAN J. POBLETE                            0502
A0101400570281186598002DR. BIENVENIDO SUBA GADDI                                0505
A0101400570281186653002DR. BRICCIO ALCANTARA                                    0505
A0101400570281192586002LORINDA ANG OR JENNY JILL DY OR                         10503
A0101400570281192586002LINDSAY RITZ ANG                                        20500
A0101400570281242384001ELE0NOR PARAMBITA BUNGALON                               0502
A0101400570281399721001JOFFREY U. UY                                            0502
A0501400200292728475001GALLEGO, ALLYN GARCIA                                    0501
B2601400270302043698001R-ONE TRUCKING & ALLIED SERVICES                         1601
A0801400160000005656904VARDELEON, ABEGAIL CRISTIE PANI                          0502
B1101400120000000652982TACLOBAN GLEEN MARKETING, INC.                           1602
A1101400120000009119626TOMANDA, ANABELLA NECESARIO DBU                         10502
A1101400120000009119626ANT ENTERPRISES                                         20500
A1101400120000006186478BOLECHE, MERLINE BANDALA                                 0502
B6601400120314045385001SANVIC SUPERMART INCORPORATED                            1610
B2001400290315041458001BROTHERHOOD MARKETING                                    1602
A2001400290315041547001CARTRONIX LOGISTIC & TRANSPORT                          10506
A2001400290315041547001CORPORATION                                             20500
A2001400290315041547002CARTRONIX LOGISTIC &                                    10508
A2001400290315041547002TRANSPORTATION C                                        20500
A2001400290315041547003CARTRONIX LOGISTIC & TRANSPORT                           0501
A2001400290315041547004CARTRONIX LOGISTIC & TRANSPORT                           0501
B2001400290315055741001DIESEL POWER PARTS CENTER                                1601
A2001400290000000724572NICOLAS S. RAMAS UYPITCHING                              0502
A2001400290000002783139RAMAS UYPITCHING, NICOLAS SEE                            0501
A3401400280000003309219ROMULO D. CAPUNONG OR RUELYN C.                         10502
A3401400280000003309219EDUQUE                                                  20500
A0101402350000003080355TAPEL, BERTILLA TATEL                                    0502
A0101402350000011252741OLIVA, EVANGELINE COMIA                                  0501
B0101402350000000655492RD PAWNSHOP, INCORPORATED                                1605
B0101402350321033797001KING PRINTED PLASTIC CORP.                               1603
B0101405650322043676001KEWALRAM PHILIPPINES, INC.                               1601
B0101405650000005381813BF FEDERATION OF HOMEOWNER ASSOCIAT                      1601
B0101405650000005381922KRL LAND, INC.                                           1601
B0101405650322077417001ELEGANT INFOVENTURES, INC.                               1602
A0101405650322508902001REGIS, MARILOU CRUZ                                      0503
A0101402510341196638002MARIA RENITA F FABIC                                     0501
A0101402510341196732001CEU PHARMACY ALUMNI ASSOCIATION                          0501
A0101402510000000049352BAUTISTA, REMY ARMIZA                                    0501
A0101402510341202997001VIVIAN VELASCO SUTO OR                                  10501
A0101402510341202997001WILSON MABALOT S                                        20500
A0101402510341564659001JEFFREY D. CORTEZ                                        0502
B0101402060351009634001SERVICE ONE CORPORATION                                  1603
A0101402060351020934001WINSTAR CALIBRATION CENTER &                            10505
A0101402060351020934001PARTS                                                   20500
A0101402060000010882723SKAAR, PERLITA MARCELO DBU SKAA                          0502
A0101409050000003838642MILLICENT S. VELAZCO                                     0501
A0101409050000003536496LUCBAN, PRODENTE                                         0501
A0101409050352600066001FAYE CARLIE CRUZ OR                                     10501
A0101409050352600066001BENSON RYAN CRUZ                                        20500
B0201400760374027555001HOYUGOH STEEL CORPORATION                                1605
B0201400760374045286001C.K. BUILDERS CONST. & DEV'T. CORP.                      1605
B0201400760374261158001*****                                                    1605
B0201400760374261158008******                                                   1605
A0201400760374520766001CARULASAN, KRIZIA JANE BUGO                              0501
A0201400760374636953001GRACIANO, PILARDO SANTOS                                 0501
A0101408370000005220171DELA ROSA, CAMILLE ESQUIVIAS                             0501
A0101408370000003775020VALERO, SHERMAN O.                                       0501
A0101408370382387631001DR. MICHELLE JOY B. DE VERA                              0506
A0101411660000005324185GENEROSO, VALERIE CHRISTINA REY                          0501
B0101402770391025136002SUPERSONIC MULTI PRODUCTS SALES,INC                      1605
A0101405490392237949001MARIETTA L. FRANCO                                       0501
B0101405490392517057001TRANS-GLOBAL INTEGRATED FACILITIES MG'T                 11602
B0101405490392517057001SOLUTIONS INC.                                          21600
A0101408400000006813658MEJIA, ANGELA FLORES                                     0502
A0101408400394162700001FLORES, CATHERINE DOMINGO                                0502
A0101408400000000403778DELFIN, NERIO DELENA                                     0501
A0101408400394478374075VIOLETA I MANUEL                                         0501
A0101408400394494749001MAGPANTAY, LOTA CADAG                                    0502
A0101408400000000403847BALOLOY, RODELIA MORALES                                 0503
A0101408950396166135001ERIC P. HERNANDEZ OR                                    10508
A0101408950396166135001MARIANNE P. HERN                                        20500
A0101408950000004512058TABLANTE, EMILIANO BAULA                                 0501
A0101408950396654080001DR. DENNIS PESTANO SERRANO                               0503
A0101408950396749122001YASON, ARLENE DELA PAZ                                   0501
A0101409180000005326603IBARDELOZA, ANNALYN SIABOC                               0503
B0101409180397024361001ASALUS CORPORATION                                       1603
A0101409180397063543001IBARDELOZA, M DBU KATCAN CONSTR                          0503
A0101409210000008693212SERRANO, MONALIZA GOMEZ                                  0501
A0101409210000004092120BELOY, ELMER CALABIO                                     0502
A0101409210000007763013VILLALUNA, BERNIE INJUG                                  0501
A0101409210000007762943AFRICA, JOHN ELIJAH PASCUAL                              0501
A0101409210000010895711PEROCHO, ARMAND RAFAEL                                   0501
A0301400820000005196749DIAZ, LEONARDO C.                                        0501
A5501400120000000003152MENOR, EDWIN DEMEGILLO                                   0501
A5501400120000011599270FLORES, JASMIN DELA RIARTE                               0501
A2401400180000002146312VENERACION, CECILIA CARANDANG                            0501
B2401400180411014376003PENBANK, INC. (A PRIVATE DEV'T BANK) -                  11602
B2401400180411014376003CENTRAL OFFICE                                          21600
B2401400180411031958001***********                                              1605
B2401400180411044070001MABUHAY TECHNOPARK CORPORATION                           1602
B2401400180000000073663CENTURY PACIFIC FOOD, INC.                               1605
B2401400180411057290001SOUTHERN MINDA TRADERS CORP.                             1610
A2401400180000002284142TANYEN, IRENE JADE SANTIAGO                              0501
A2401400180411402492001PETINES, MARIA LOURDES PESTANO                           0501
B1201400150421029919001MUNSAYAC HANDICRAFTS INC.                               11601
B1201400150421029919001(ABANAO CARPARK)                                        21600
B1201400150421047385001ST. VINCENT DE FERRER LEARNING CENTER,                  11605
B1201400150421047385001INC.                                                    21600
A1201400150421305677001RAYMOND U. ORIBIO                                        0502
A1201400150421344076001ULAT, MAREBEL RUEDA                                      0505
B0901400220000006214400**********                                               1603
B0901400220000001804991**********                                               1605
A5101400100000011336951VALIENTE, ELVIRA CUIZON                                  0501
A5101400100000011337016BUSCAR, ERMELO SECRETO                                   0501
A0101403030000001302098**********                                               0501
B0101403030441036914001**********                                               1605
B0101403030441036981001**********                                               1601
B0101403320471008853001********                                                 1601
B0101403320471037531001GIBSON'S SHOE FACTORY, INC.                              1602
A0101403320471478374016SONIA SALANIO                                            0501
A0101403320471482994001SARA S ABAGAT                                            0501
A0101406330472377465001JESUS S. DELA CRUZ JR. OR                               10502
A0101406330472377465001MARY JANE DELA C                                        20500
A0101406330000000683290FAJARDO, THELMA ESGUERRA                                 0502
A0101410140000000499281MANSOUR, BERNADETTE ANTINERO                             0502
A0101410140475046983001OCAMPO, DBU MAAY POOL SUP &                             10508
A0101410140475046983001EQPT CTR                                                20500
A0101410140475046984001OCAMPO, DBU INDOOR & OUTDOOR                            10508
A0101410140475046984001LIVING CONST.                                           20500
A0501400170000004982265LIM, CELIA CHUA                                          0510
A0501400170000000018259GUTIERREZ, LERMA MONTES                                  0501
A0501400170481610785001TAMBAOAN, JEAN ESTOQUE                                   0501
A1901400160000009055049SANVICTORES, CARLO RAMIREZ                               0501
B1401400110492015562001GCR LENDING INVESTOR                                     1601
B1401400110492015562002GCR LENDING INVESTOR                                     1601
A1401400110492553574001ALCALA, MARY GRACE BENITEZ                               0501
A1401400110000000132841*******                                                  0501
A1601400170000009954396YAP, RHODA AYDALLA                                       0501
A0701400260000003259312LUZON, EMMANUEL LAGANZON                                 0501
B0101407430503006761001QUICKFLO FORWARDERS, INC.                                1602
A0101405940000005068286BAYANIN, MA. VIDA BELLE                                  0502
A0101405940000005068333TIOSECO, DAISY MAE CHUA                                  0501
A0101408530000013234281VICTOLERO, MICHELLE MAGNO                                0501
B0101408530516033351001E. ZOBEL, INC.                                           1601
B0101408530516035891001FERROTECH MANAGEMENT GROUP, INC.                         1605
A0101408530000006599720PUNZALAN, CHERY                                          0501
B0101408530516636533001SOURCED SELECT PRODUCE, CORPORATION                      1601
A0101411790000002275954LECTOR, MARIA ANTONIETTA ASTOR                           0501
B0101403450521028158001**********                                               1602
A0101403450521080109001***********                                              0502
A0101403450521238106001**********                                               0503
A0101403450521239834002**********                                               0503
A0101403450521250633001**********                                               0503
A0101403450521441986001**************                                           0520
A0101403610000013225217ALVAREZ, MARC ANTHONY L. OR                             10501
A0101403610000013225217ALVAREZ, LOLITA L.                                      20500
A0101403610000013227673VIAJE, PLACIDA ALVAREZ                                   0501
A0101403610531219680004RONWHEELS PARTS & ACCESORIES                             0502
A2201400250000002337817ANGELES, JOVEN EDRALIN                                   0502
A2201400250561076745001GUADALUPE N. SABADO OR                                  10505
A2201400250561076745001ROSSINI B. GALICIA                                      20500
A2201400250561258531011MELANDRO C. CALIMQUIM                                    0501
A0101407720000001393113CONSTANTINO, ELSA MAGBANUA                               0501
B0101407720602016457001NEWGEN INFORMATION TECHNOLOGY CORP                       1602
B0101407720000000017694MAKATI MEDICAL CENTER-MEDICAL STAFF                      1601
B0101407720000000885554PHARM GEN VENTURES CORP.                                 1601
A0101407720602161855001*********                                                0506
A0101407720602232072005ROGEL C CABAUATAN                                        0502
A0101407720602396415001DR. SONIA E. BONGALA                                     0506
A0101407720602396682001FOJAS, MYRNA SOLIS                                       0503
A0101407720602415232036MARITES COLORADO                                         0502
B0101407720602603232001MOBIFOOD CORPORATION                                     1601
A0101409890000000209163CAMBRONERO, ELENITA APO                                  0503
A0101409890000006812991CHUA, JOHNNY CHAN                                        0502
B0101409890000000004622**********                                               1601
B0101409890000000004633**********                                               1601
B0101409890000000004651**********                                               1601
A0101409890649747345001SORIANO, DONNA MARCELA                                  10502
A0101409890649747345001DELOS REYES                                             20500
A0101409890649789580001HWAN, DOROTHY CHUA OR                                   10501
A0101409890649789580001SY, KENNETH TAN                                         20500
A0101407690000003207285MAGO, MELANIE RADOVAN                                    0501
B0101407690652033021002ENHANCE FEED SOLUTIONS, INC.                             1603
A0101407690652285423001********                                                 0501
A0101407690652520766022ELVIE GALENDEZ - DEALERS OF                             10501
A0101407690652520766022SHOECAT INC.                                            20500
A0101411530000002260253RAQUEL ANN T SAY                                         0501
A0101413440000001472646CARLO POCHOLO C GONZALEZ                                 0502
A0101413440000003280220PULUMBARIT, ELEANOR A. OR                               10501
A0101413440000003280220PULUMBARIT, ELME                                        20500
A0101413440000003298322SYTHAY, BENJAMIN GAN                                     0501
A0101413990000000206066MARKVENT ENTERPRISES                                     0501
A0101413990000001406371BCD TRANSPORT SERVICES                                   0502
A0101413990657068745001CLORES, RICARDO R. DBU                                  10503
A0101413990657068745001SAMUEL JOSEPH STORE                                     20500
A0101413990000001947139CLARISSA U. HERNANDEZ                                    0501
A0101414120000008642655PLAZA, MICHELLE PADAYAO                                  0501
A0101414120000001427601ISABEL MONTERO OR CARLOSA                               10501
A0101414120000001427601TUGADO                                                  20500
A0101414120000007655210SIM, BEATRICE LOUISE LEONOR                              0501
A0101406590662789588001PERALTA, AUGUSTO MARASIGAN                               0502
A1301400210682245528001DANILO V. MANALAYSAY                                     0501
A1301400340683283077001TORDESILLAS, JUAN GREGO OR                              10510
A1301400340683283077001ETHEL CHRISTINE                                         20500
A1301400340683393088001OROSCO, GERARDO DE JESUS                                 0501
A1301400500000004093087ME-ANN'S EGG DEALER                                      0504
A1301400500000009723344ESTEVEZ, MATEA CENTENO OR                               10505
A1301400500000009723344ESTEVEZ, JOEY CENTENO                                   20500
A1701400230000002762832ANG, MARY ANN LIU OR ANG, VICTO                         10505
A1701400230000002762832R FORMOSO                                               20500
A1701400230693478374078GALVEZO, AVELINA GACAYON                                 0501
B0101408240000010815211HERSAN REALTY CORPORATION                                1602
B0101408240000000832860GATEWAY AIR SERVICES CORPORATION                         1602
A0101408240711437917001MA. CECILIA A. CUNA                                      0505
A0101408240000008160143ROWENA P. GONZALES                                       0502
A2801400100000011266903DUMLAO, MARIETTA FE SIMEON                               0501
B2801400100712278476001UYGONGCO JR., JOSE ROBERTO JT                            1601
A2801400100000000496851ARMAMENTO, KRISHA MARIE BAMBA                            0501
A4101400260000010623775CASTILLO, LEO NINO ANGELO C OR                          10501
A4101400260000010623775WU, HARVEY RICHARD  TIU                                 20500
A4101400260000002888131DEVIDA, NOLI VILLAR                                      0501
A4101400390813041094001BUNGCASAN FOODS SERVICES                                 0502
A4101400390000000379339ICASIANO, VANESSA VALERIANO                              0501
A4101400390813359800001ROSITA L. GRASPARIL                                      0501
A4101400390000003389491ERLINDA S. MALAJITO                                      0501
A4101400420000000121137RAMALLOSA, ROMMEL RAGUDO                                 0501
A4101400420814429171001RAMAS, MILAGROS OGSILA                                   0502
A4101400420814620451001TAN, BETTY TIU                                           0510
A0101412340000003340558EDUARDO S. ALBARAN II                                    0502
A0101412340000003342065ARNOLD E. CORTON                                         0501
A0101404840851046725011ANALENE MONTECASTRO                                      0501
A0101404840851046725019LETICIA QUINANOLA                                        0502
A0101404840851420697001LAYAO, FRANCIA CUETO                                     0502
A0101406750852478374004IMELDA TAGUNA                                            0501
B0101405070000006005976SEARCH AND RESCUE UNIT FOUNDATION INC                    1601
A0101405070861197502001MICHAEL T. MOLINA OR                                    10501
A0101405070861197502001ANNA M. MOLINA                                          20500
A0101405070861449261002RONCO, LEABETH LOPEZ                                     0501
A0101405070000012374942LABAD, ARENAR VILLARDE                                   0501
B0601400230891008438001THE PREMIERE INSURANCE & SURETY CORP.                    1602
B0601400230000003644853ALL 'BOUT PEOPLE SERVICES & TRADING                      1602
A0601400230000000452817MANLUTAC, CARMELITA OR                                  10501
A0601400230000000452817PARICO, MA. TERESITA                                    20500
A0601400230000000452782GOZUN, R-JAY RAMOS                                      10510
A0601400230000000452782OR GOZUN, MYRNA                                         20500
