F0101400600071265439001*********                                                2505CKO
F0601400100081697481001POON, ERIC OR WAISILY                                    2503CKO
F0101403580511005485009P.J. LHUILLIER, INC.                                     2605CKR
F0801400290000000011525LMMD CONSUMER COMMODITIES, INC                           2601CKR
F1201400280671025773008*****                                                    2610CKO
