A4101400390000000034051*******************************                          0502
A0101409210000000043752****                                                     0502
A0101411790000000134169CATALAN, SHEILA ESTRADA                                  0501
A0101409050000000258213DENISE ANNE F. EVANGELISTA                               0501
A0101400440000000337671GEREZ, MARY GRACE BULAONG                                0501
A0101414120000000398932R. ACOSTA ENTERPRISES                                    0502
A0101405490000000444313BENITO M. LOJO                                           0503
A0101412470000000520130**********                                               0502
A0101408950000000776785AMANTE, ANGEL JOAQUIN MANUEL                             0501
A0101414120000000875583MSF LEASING                                              0501
A0101414120000000875914NHOEL JR. CONSTRUCTION                                   0502
A3001400130000000944714LIM, KLAUDIO DIAZ                                        0501
A0101409890000000987420GUMAPOS, EDNA TIANGCO                                    0501
A0301400530000001009961IBOT, LETHLE P.                                          0501
A1001400190000001057396LOLITA B. DULCA                                          0501
A0101413310000001073676PANGILINAN, EMMANUELA ORDONEZ                            0501
A0101402480000001099630****                                                     0501
A0101414120000001142863GRANDE, CHERRY ROSE BUZON                                0501
A0301400820000001185837RANGGAN, EDNA J.                                         0501
A3001400130000001271352MONTECLARO, JOSEPHINE VILLAROSA                          0501
A3001400130000001271501DUBOUZET, ZENAIDA DAGASDAG                               0501
A1301400470000001299101ROYLITO G. PAEZ                                          0501
A0101411820000001356474GENALYN ELE ASUNCION                                     0501
A0101411820000001356634JOSIREE ROSE P. OCAMPO                                   0501
A0101413440000001472920*****                                                    0501
A0301400820000001554821ACLAO, MARILOU G.                                        0501
A0101411240000001563479RAMOS, CONCHITA SANTOS                                   0501
A0101401090000001618953LICU, RHENMAR SANTOS                                     0501
A3401400280000001723513BILLONES, EMMANUEL ACUNA                                 0501
A4101400390000001732576AMBROSIO, JOHN NEIL FIGUEROA                             0501
A0101412890000001765853*****************                                        0502
A0101408820000001766743********                                                 0502
A0101412630000001823365MUNCADA, JOSEPHINE SO                                    0503
A0101413570000002249367****                                                     0501
A0101407430000002298155********                                                 0502
A3801400170000002302761NANCY M VINAS                                            0502
A3101400450000003072471REJUSO, MA. THERESA ALVAREZ                              0501
A1101400120000003197000HERNANDEZ, CONCEPCION PAPAURAN                           0501
A3401400280000003309140LAS ISLAS TRAVEL AND TOURS                               0501
A0101402510000003436786*****                                                    0501
A0101400860011095832001**********                                               0504
A0101400860011559769001**********                                               0503
A0101400860011693273001*************                                            0503
A0101400860011779757001**********                                               0505
A0101401700041036012001MORNING GLORY AUTO SUPPLY                                0510
A0101401700041193436002CORAZON C. LOBENDINO                                     0505
A0101411080042241020001 *****                                                   0501
A0101400150061227075001ORLANDO S. MERCADO                                       0501
A0101400150061349858002GARCIA, JUAN RAMON CORTES                                0505
A0101400150061365731001BASILISA R. ROBEA                                        0503
A0101405810072531616001**********                                               0506
A0101405810072531616002HOU, YUZHENG QIU                                         0502
A0101401830141341513001EDWINA O. SEVERO                                         0502
A0101401090171196120003*************                                            0502
A0101401090171296658001MARIA LOURDES L. EDANG                                   0501
A0101401090171519520006IRENE OR YU-YUAN CHIANG                                  0502
A0101401090171615473001EMERALD C. SUAREZ                                        0503
A0301400530193582949001CABIGAO, RICARDO P.                                      0501
A0301400660194725413001ALTAMIRANO JR., RAFAEL CLEMENTE                          0501
A0301400660194739252001COMO, MYRA CASTRO                                        0502
A0101407140213392958001HUIT, HERBERT MONJARDIN                                  0501
A1001400190231034434001HNH BUILDERS AND ENTERPRISES                             0501
A1001400190231478374012FARINAS, EVA MAE CENTO                                   0502
A1301400470252430515002**********                                               0501
A1301400470252697686001AUGUSTUS CEACZAR P. RUIZ                                 0501
A2601400270302574301001ALEX UY TY                                               0501
A1101400120313038039001QUICKBOY GRAFIX                                          0501
A1101400120313478374094AGAPITO, ROSA P.                                         0502
A2001400290315688009001ALGOPERA, LLOYD GARCIA                                   0504
A0101405650322172164002AQUINO, CHRISTIAN CASTRO                                 0502
A0101405650322306969001QUITO, ROSALINA SAN JOSE                                 0502
A0101405650322556592002ORBES, ROSINA DELA CRUZ                                  0501
A0101405650322587026001MALICSE, CORNELIO ANTONIO                                0502
A0101402510341395836001TAGUIBAO, CHRISTOBAL CADALIN                             0501
A0101402640361402608001CHI, JOHN CHAN                                           0501
A0101402640361775971001LIWANAG, MARY JOY LUCERO                                 0501
A0201400760374478374015DACAYANA, ROSALIE SIBLA                                  0501
A0201400760374621056001TOROY, MARILOU GALEON                                    0502
A0201400890376458754001NOMBRADO, GILBERT DOMASIS                                0501
A0101408370382552454001DR. BONIFACIO S. RAFANAN JR.                             0505
A0101402770391401379001DELOS REYES, MARINA MARCELO                              0501
A0101408400394530015001CERAFICA, JOHN MENDIOLA                                  0501
A0101408950396567591001DR. DANILO V. CONSTANTINO II                             0501
A0101406330472593335001ROMUALDO C. RAZON                                        0501
A0501400170481043466001RUSKIN MARKETING                                         0504
A0501400170481043466001RUSKIN MARKETING                                         0501
A0101407430503557193001ENRICO P. ERIDIO                                         0501
A0101403580511387392001VASHI BALANI OR HARSHA BALANI                            0503
A0101406880513345578001NENITA RODRIGUEZ NOLEAL                                  0501
A0101403450521238174001**********                                               0502
A0101407720602296154001MA. BARBARA MARQUEZ DOMINGO                              0502
A0101404420631259468002LORELEI LATEO CAMACHO                                    0502
A0101409920650478374028RENDON, RENELYN GABATAN                                  0501
A4101400420814015061002AUTO AIRE CAR AIRCON SERVICE                             0502
A4101400420814520766027ARUTA, CORAZON G.                                        0501
A4101400420814520766118ADOC, MYLEN A.                                           0501
A0101404840851046725021HELEN GELIZON                                            0502
A0101406750852617055001PUA, HERMINIA SALAS                                      0501
A0101405070861654489001SY, DERICK TIU                                           0501
A0301400660000000048406GEORGE T. BAUTISTA AND AMELITA                          10502
A0101402060000000175911CHUA, RENATO BANDRIL OR BONDOC,                         10503
A0101402640000001054211ARCIETE, AGAPITO M. OR                                  10501
A3101400160000001559300PRIUSS DIAGNOSTICS AND MEDICAL                          10502
A3401400280000001723520VICTORIANO, MARIA GLYNNA JOY                            10501
A0101410560000001944043GOODNESS & MERCY MOVERS                                 10503
A0101409920000001951862MEMBERS OF NATASHA (SHOECAT INC                         10501
A0101401700041417687001VILLAREAL, LITA JEAN C. OR                              10510
A0101410850109053560002HERNANDEZ, JUNE JT DBU JUNE AND                         10501
A0101401090171200444001FRANCIS ROASA OR ELIZABETH                              10505
A0101401670271186314001DINA OR GERALD OR MARTIN OR MA.                         10501
A0101401670271283319001JEFFREY A. MAGSUMBOL OR ELLA                            10504
A0101401670271327375003ELVIRA L LIBORO OR MA ANNA                              10505
A6601400120314615888088FRANCISCO, EMMA OR REYNALDO                             10504
A0101402350321179307001GRACE AUJERO OR                                         10501
A0101405650322400866001LEVISTE, PANCHO M. OR                                   10501
A0101408370382394648002DRS. IRMA GERONIMO TAN NUNEZ OR                         10503
A0101408400394230018001JOSE H. GAOAT JR. OR                                    10503
A0101408950396563050001CHIO, NANCY BORJA OR                                    10502
A0101406330472478374049DANILO GIL M. SETENTA OR                                10502
A0101405940512462757003TERESITA CUEVAS/HELEN JAVINAR/                          10503
A0101407720602345195002GEORGE T. GODUCO OR                                     10502
A0101404260611018041001JP LONEZA CONSTRUCTION                                  10501
A0101407560686446936002EDUARDO JULIANO OR                                      10501
A0301400660000000048406M. BAUTISTA                                             20500
A0101402060000000175911NARCISA NAVARRO                                         20500
A0101402640000001054211ARCIETE, CATALIN                                        20500
A3101400160000001559300SUPPLY                                                  20500
A3401400280000001723520DELA CRUZ                                               20500
A0101410560000001944043SERVICES                                                20500
A0101409920000001951862MONTALBO, JASMIN                                        20500
A0101401700041417687001VILLAREAL, CLAUD                                        20500
A0101410850109053560002YVETTE TRUCKING SERVICES                                20500
A0101401090171200444001ANGELICA ROASA                                          20500
A0101401670271186314001PILAR OR JOSEFINA SILVA                                 20500
A0101401670271283319001CECILIA C. MAGSUMBOL                                    20500
A0101401670271327375003XIMENA L LIBORO                                         20500
A6601400120314615888088OR CO, ESTELITA OR ELSIE                                20500
A0101402350321179307001FREDELINO AUJERO                                        20500
A0101405650322400866001LEVISTE, EDITHA                                         20500
A0101408370382394648002ANTHONY RICHAR G. NUNEZ                                 20500
A0101408400394230018001JANEFER F. GAOAT                                        20500
A0101408950396563050001CHIO, MARTIN CLARENCE ONG                               20500
A0101406330472478374049DELIA A. SETENTA                                        20500
A0101405940512462757003JOHN DEE FLORES                                         20500
A0101407720602345195002MA. TERESA P. GODUCO                                    20500
A0101404260611018041001& TRADING                                               20500
A0101407560686446936002GINA JULIANO                                            20500
B0101405650000000012977AZARCON JR., NOEL PIERRE HACHERO                         1601
B0101409210000000031290LSC CORPORATION                                          1602
B0101408950000000036815ROTARY CLUB OF MAKATI DASMARINAS                         1602
B0201401020000000042297GLOBAL POWER EQUIPMENT MARKETING CORP.                   1602
B0101402350000000046108ABSOLUTE INDUSTRIAL SOLUTIONS, INC.                      1602
B0101406040000000096633*********                                                1601
B0301400660000000195066SAMMITO PACKAGING CORP.                                  1605
B0301400660000000195293DAVSAM LINK CORPORATION                                  1601
B0301400660000000195306G.E. 64 ENTERPRISES, INC.                                1603
B01014135700000002065950AST IN PLACE SYSTEM BUILDERS INC.                       1601
B0101409050000000258571CITY MARQUE LIMITED                                      1601
B0101403030000000320425**********                                               1601
B0101401090000000772383THE OTHER WHOLE CHICKEN INC.                             1603
B0101405650000000772754PALMRIDGE TRANSPORT SERVICES, INC.                       1602
B4101400550000000900036BACOOR DOCTORS MEDICAL CENTER INC.                       1605
B0101403580000000922883UXMNL INC.                                               1602
B0101402480000001562027************                                             1610
B0301400820000002106109POWER ASSET SERVICES CREDIT CORP.                        1603
B0101400150061008266001STANDARD INSURANCE CO., INC.                             1601
B0101400730111008426001COUNTRY BANKERS INSURANCE CORPORATION                    1603
B0101400440161007221001ILA EXPRESS HAULER                                       1602
B3001400130230043293002L.M. TING FOODILICIOUS CORPORATION                       1620
B0101402480331521693001***************                                          1601
B0101402480331767892001********                                                 1601
B0101402930381008843001BASIC HOUSING SOLUTIONS, INC.                            1605
B0101402930381014599001HEALTH SOLUTIONS CORPORATION                             1602
B0101402930381041450001FOURTH WAVE GLOBAL CONSTRUCTION INC.                     1601
B0101402930381045839001EQUILAND PROPERTY MANAGEMENT (EPMC)                      1602
B0101409210398047292001OUTCOMES HEALTH PHILIPPINES, INC.                        1604
B0901400220432043554001GERRY'S GRILL                                            1605
B0101406330472024207001TERRAVUE, INC.                                           1605
B0101404000551026854001MACKIM PRINTS, INC.                                      1602
B0101404130601018734002NGE CONSTRUCTION & TRADING SERVICES                      1610
B0101407720602531007002BAJA MEXICAN CANTINA CORPORATION                         1601
B0101404260611016324002KALAYAAN TALIPAPA CORPORATION                            1601
B0101404420631164902002SAN BARTOLOME PARISH CHURCH-MASS FUND                    1601
B0101407560686009918001ACQUISITIONS INDUSTRIAL CORP.                            1602
B0101408240711028643001MPM CORPORATION                                          1601
B0101401830000000033570CARITAS SALVE CREDIT COOPERATIVE                        11603
B0101401830000000033616CARITAS SALVE CREDIT COOPERATIVE                        11603
B0101400150061028980001VALLEY MOUNTAIN MINES EXPLORATION                       11601
B0101400440161037561001FLUXLINE INDUSTRIAL & ELECTRICAL                        11601
B6601400120314043609009FUNDACION GRAMEEN PILIPINAS INC.                        11605
B0101402480331041641001VILLACORTA'S FARM AND VETERINARY                        11610
B0101402930381040001001TURQUOISE TRAVEL & EVENTS                               11602
B0101406330472549242001B.C. GONZALES CONSTRUCTION                              11603
B0101404000551005014001CONGLOMERATE PLANNERS REALTY                            11603
B0101401830000000033570(MALABON)                                               21600
B0101401830000000033616PACO                                                    21600
B0101400150061028980001INC.                                                    21600
B0101400440161037561001DISTRIBUTION SYS                                        21600
B6601400120314043609009RAINBOW BRANCH                                          21600
B0101402480331041641001SERVICES                                                21600
B0101402930381040001001MANAGEMENT CORP.                                        21600
B0101406330472549242001CORPORATION                                             21600
B0101404000551005014001CORP.                                                   21600
B0101408790383821100608**********                                               2005
B0101408790383821100608**********                                               2005
B0101408790383821100608**********                                               2005
B0101409500473821100608**********                                               2005
B0101414120658821100608**********                                               2004
