F0101402350321433270001MA. MAY SANDRINO DE JESUS                               12503CKO
F0101407720602467166001ERLINDA B. INOCENCIO OR                                 12501CKO
F0101402350321433270001OR JOSE C. DE JESUS JR.                                 22500CKO
F0101407720602467166001MENDOZA, MICHAEL ALLAN                                  22500CKO
F0101401670271029054002HEALTHWEALTH INTERNATIONAL CORP.                         2610CKO
F0101402930381017038002BATARASA CONSOLIDATED, INC.                              2608CKR
F0101407560686445506001NORTHERN WASHING PROVIDER INC.                           2602CKR
F1101400120000004088966FERNANDO D. CARPIO OR                                   12602CKR
F0101400570281042325001HEALTHPRO MULTI-SPECIALISTS AND                         12601CKR
F1401400110492020017002PEOPLE'S GENERAL INSURANCE                              12605CKO
F0101409890649047374001FRIGID ZONE AUTO AIRCON                                 12603CKR
F1101400120000004088966WILBERT D. CARPI                                        22600CKR
F0101400570281042325001DIAGNOSTICS INC.                                        22600CKR
F1401400110492020017002CORPORATION                                             22600CKO
F0101409890649047374001SPECIALIST CO.                                          22600CKR
