A0101411400000000001532AL SHOMALI, MOHAMAD MOSTAFA S.                           0515
A0101401960000000008040**********                                               0505
A0201400890000000027892FORTRESS ELECTRICAL SUPPLY                               0502
A0101412920000000041972MARIECRIS F. CABALLA                                     0501
A0101405650000000448668BARDON, NELSON BELDA                                     0501
A0101407720000000510869ESTEBAN, JOCELYN CANDA                                   0501
A0101412760000000528205SARAH JAYNE A. SANCHEZ                                   0501
A2601400270000000561977GINA T GUYONG OR ARNEL V GUYONG                          0501
A0301400950000000566723FERNANDEZ, NESTY VON CHI                                 0502
A0101411660000000595222ANITA PINEDA SISON                                       0502
A1101400120000000652824NIPAL, MARIA TERESA RIVERA                               0502
A0101410690000000710661********                                                 0502
A0101400150000000760805FELIPE, JOY HERNANDEZ                                    0501
A0101400440000000821101ORENSE, JULIA AQUINO                                     0501
A0101400730000000833410GOMEZ, EDWIN VITUG                                       0501
A0101404840000000943248ROMINA LOZANDE                                           0501
A0101407430000001028773ELAINE S. CANLAS                                         0501
A0101413310000001073756KU, FERNANDO YU                                          0501
A0101406330000001235272VHANZ HARDWARE                                           0501
A1301400760000001294840MARLENE C. CASINO                                        0501
A2001400290000001301580BONIOR, MARIO CURATIVO                                   0501
A0601400520000001349582MANALOTO, ISRAEL CUNANAN                                 0502
A0101402350000001474324MARTINEZ, KENNETH BUHAT                                  0501
A1101400120000001547508DESUASIDO, IMELDA FAJARDO                                0501
A0301400820000001554894ESTREMOS, VERONICA T.                                    0501
A0301400820000001554894ESTREMOS, VERONICA T.                                    0501
A0201400890000001796201************                                             0501
A0101400730000001822715ARNOLD M. CARBONELL                                      0501
A0101410140000001939893FRESNOZA, ALLAN SAN BUENAVENTUR                          0501
A0301400790000002301331SORROCHE, RONALD JAY UY                                  0502
A0101400570000002329740SY, ESTER CHOA                                           0501
A1401400110000003063389RICH GOLD BUILDER'S AND TRADING                          0502
A1301400500000003070191********                                                 0501
A0101400150000003141482CABRERA JR., PELAGIO ESPERAT                             0501
A0101400150000003141493CASILEN, RYAN RENATO DAVIES                              0501
A0601400520000003187302ALMERIA, ALDWIN EVANGELISTA                              0502
A0101410850000003503482CANILLAS, M DBU MARCCHARM INDUS                          0501
A0101404000000003706512AARON C DAVID                                            0501
A0101400150000004093338ORIDO, EDRALIN LOYOLA                                    0501
A0101400150000004093349ALARCON, JAYVEE RONQUILLO                                0501
A0101400150000004093350DEMASU-AY, MA. BEAULAH NALES                             0501
A0101400860011520168001**********                                               0505
A0101400860011634877001**********                                               0504
A0101401700041043644001NOXIOUS AUTO PARTS SUPPLY                                0510
A0101401700041571276001********                                                 0502
A0101400150061226911001FLORA CECILIA SANTOS                                     0501
A0101400150061434884001MANUEL R. BERNARDO                                       0501
A0101400600071684249001******                                                   0503
A0101401960121238669001**********                                               0502
A0101401960121238669001**********                                               0501
A0101401960121238895001**********                                               0501
A0101401960121240760001**********                                               0501
A3101400450223221362001RAMIR OR ERLYN SASPA                                     0502
A0101401670271193994001PATRICIO L. RAPADA                                       0501
A0101411110276464851088BRIZUELA, BENITO JAVIERTO                                0505
A0101400570281423865002RIBAYA, VICTORIA CABRERA                                 0501
A2601400270302567227001ROSITA TAN VALLE                                         0501
A0801400160311478374084MARY P. PANERGO                                          0501
A0101402350321012440001ANZAL REALTY CORPORATION                                 0501
A0101402350321022842001FALCIS FRESH CHICKEN                                     0505
A0101402350321399968003GALEA, CRISTINA ENOY                                     0502
A0101402480331089098001***********                                              0501
A0101402480331093748001RURAL, MYRNA DIAZ                                        0504
A0101402060351632932002MANCILLA, ABIGAIL SARDILLO                               0501
A0101411660384089351001ADRIAN VITO                                              0502
A0101408400394431284002DIMAGIBA, MA. TERESA ELA                                 0501
A0101408400394471974002PESICO, GINA GERALDINO                                   0501
A0101408950396504044001**********                                               0501
A2401400180411333023088BOHOLST, PERCY SISTOSO                                   0505
A1201400150421036214001PINES ARCADE                                             0501
A0101403030441239795001**********                                               0501
A0101408530516568727001MARKING, AMADO MATA                                      0502
A0101403450521313120002**********                                               0501
A0101403450521679548001**********                                               0502
A0101404130601297269002ARMAN M. MARTINEZ                                        0502
A0101404130601451711001CATINGAN, HAZEL A.                                       0501
A0101407720602343467001HENSON, GERARD FORES                                     0501
A0101407720602378956001ROWELL, VERMEN V.                                        0501
A0101410720653035059001E.L. PALAD CONSTRUCTION                                  0502
A0101410720653478374010SOCORRO JIMENEZ                                          0503
A0101413440655053854001LMOP NAIL AND WAXING SERVICES                            0501
A0101407560686478374017JOY CARMELO                                              0501
A2801400100712278476001UYGONGCO JR., JOSE ROBERTO JT                            0502
A4101400260812641398001ARNELIO A. NAVARRO                                       0501
A0101404840851424338001PAMITTAN, MYRNA M.                                       0503
A0101404840851520766067JOSEPHINE V. GABAYERON                                   0501
A0101406330000000011752JONAH ROMANO DBU AW ENGINEERING                         10503
A0201400890000000027905MENDOZA, VAL VINCENT FABIAN OR                          10501
A0101402930000000053318MISAGAL, SYRELL LARASE OR                               10501
A0301400530000000066215CABANCA, GENOVEVA DBU                                   10505
A0101410720000000211930NAPOCOR VILLAGE MULTI-PURPOSE                           10501
A0101413280000000312643CARLOS R. ATAYDE OR                                     10501
A0101412890000000371533JOSELITO B. PRAJIO AND MELINDA                          10504
A2201400250000000433470JUSSLYN MAISIE O. ANG DBU AVS                           10501
A1001400480000000606893DERECHO, REYNALDO RAMAYLA OR                            10505
A0101410690000000710672BADE, MINERVA V DBU E3V                                 10502
A0101402930000000859758CELFO, R DBU R.F. CELFO                                 10502
A0301400820000001027809CERVANTES, ROY C. OR CERVANTES,                         10501
A4101400260000001783957DEPANO, ABEL DBU EXCELLENT                              10502
A1701400230000001786718RAMBAUD, ALBERT LACRO OR                                10501
A0301400950000002115213FERNANDEZ, NESTY VON CHI OR                             10501
A3401400280000002323451PETER RANDY G. DELA CRUZ OR                             10501
A0101400150000002394738CANO, MARIA THERESA R. OR                               10501
A0101400150061226989001EDUARDO E. CAEG OR                                      10501
A0101401830141292667002GEMMA OR LEE MARVIN OR                                  10501
A0101401090171037662001APS EVENT SAFETY AND                                    10502
A1001400190231358911001WILLKOM, RICHTER OR ERLINDA                             10501
A0101402350321408269001SALAZAR, FREDERICK RANOLA OR                            10501
A0101412890470086848001IGMIDIO ROBLES AND                                      10502
A0101410140475046983001OCAMPO, DBU MAAY POOL SUP &                             10504
A0101410140475046984001OCAMPO, DBU INDOOR & OUTDOOR                            10504
A0101411790518055815127SANTIAGO, FRANCIS LEONARD                               10501
A0101407720602398462001GOMEZ, JOHN MANALO OR                                   10502
A0101409890649723947002TONGOS, ROMARICO MACARANAS OR                           10501
A0101404680651785728001IRAGEL M. ABING OR                                      10504
A0101406330000000011752SERVICES                                                20500
A0201400890000000027905CASTILLO, NEIL B                                        20500
A0101402930000000053318PELAGIO, MICHAEL                                        20500
A0301400530000000066215MJS GLASS SUPPLY                                        20500
A0101410720000000211930COOPERATIVE                                             20500
A0101413280000000312643CARMEN M. ATAYDE                                        20500
A0101412890000000371533F. PRAJIO                                               20500
A2201400250000000433470DISTRIBUTION CENTER                                     20500
A1001400480000000606893DERECHO, MILRENAH                                       20500
A0101410690000000710672ENTERPRISE                                              20500
A0101402930000000859758FINANCIAL CONSULTANCY                                   20500
A0301400820000001027809FLORA MAY C.                                            20500
A4101400260000001783957DEPANO DENTAL CLINIC                                    20500
A1701400230000001786718MARICAR CATHERINE                                       20500
A0301400950000002115213GO, MARY CHRISTINE C.                                   20500
A3401400280000002323451CARINA C. DELA CRUZ                                     20500
A0101400150000002394738RESMA, DOMINGA A.                                       20500
A0101400150061226989001BESSIE C. CAEG                                          20500
A0101401830141292667002JOHN GEMMO MAGTALAS                                     20500
A0101401090171037662001SECURITY SERVICE                                        20500
A1001400190231358911001OR LILLIBELLE                                           20500
A0101402350321408269001SALAZAR, ELLA CRISTINA J.                               20500
A0101412890470086848001ANNE JAMACA FIGUEROA                                    20500
A0101410140475046983001EQPT CTR                                                20500
A0101410140475046984001LIVING CONST.                                           20500
A0101411790518055815127SAMALA                                                  20500
A0101407720602398462001GOMEZ, MA. PAZ C                                        20500
A0101409890649723947002TONGOS, RALPH JU                                        20500
A0101404680651785728001FELIX F. MONFORTE                                       20500
B3001400130000000007029CROSS LUG TRADING                                        1601
B0101402930000000057492CENTURY PACIFIC FOOD, INC.                               1601
B0301400660000000195237G. TAN G. HOLDINGS INCORPORATED                          1601
B0101406330000000432619INNOVATI INTERNATIONAL INCORPORATED                      1601
B1001400190000002170849SY, STEPHEN                                              1605
B0301400950000003249938WONG, CHI KONG                                           1601
B3001400130000003434648HAPPYALL3 BUILDERS CORPORATION                           1605
B0101401700041190338003**********                                               1602
B0101411080042041928001******                                                   1601
B0101400150061011113001PLUS PROPERTIES, INC.                                    1601
B0101400730111042662001CENCAR CORP.                                             1603
B0101401960121238762001VICENTE CO                                               1601
B3101400450223025343001CAPUA ENTERPRISES                                        1601
B0101402350321027314001HH ASTRO SALES CORPORATION                               1601
B0101402350321039906001SHAWN MARTI ENTEPRISES                                   1602
B0101405650322034969001ALPHINELAKE WATER REFILLING STATION                      1601
B0101402480331663504002******************                                       1601
B0101402640361017425005SOLID MIX CORPORATION                                    1602
B02014007603740526030018990 DAVAO HOUSING DEVELOPMENT CORP.                     1650
B0101402930381008880001AIRTIME MARKETING INC (PHILS.)                           1610
B0101408400394028560002NEW LIFE CHRISTIAN CENTER (THE FORT) INC                 1602
B0101408400394028560003NEW LIFE CHRISTIAN CENTER (THE FORT) INC                 1601
B5501400120410042322003TRUMPH MOTORCYCLE CORPORATION                            1601
B2401400180411043008008TBB PETRON                                               1602
B1401400110492027100002SACRED HEART COLLEGE                                     1601
B0101403450521020682001**********                                               1601
B0101403450521021842005WALL VISION CORPORATION                                  1605
B0101404130601100034002ADVATECH INDUSTRIES, INC.                                1612
B0101404130601100079001POWERDIESEL PHILIPPINES, INC.                            1610
B4101400390813045716001LEGEND JANITORIAL & MANPOWER SERVICE                     1605
B0101400150061011079001QUASHA ANCHETA PENA & NOLASCO                           11608
B0101407720602027833001PHILIPPINE CENTER FOR DIABETES EDUCATION                11602
B0101400150061011079001LAW OFFICE                                              21600
B0101407720602027833001FOUNDATION INC.                                         21600
