B0301400240401821100608**********                                               2020
B0101402930381040393001RESOURCE ONE CORPORATION                                 1601
B0101402930381047467001FLUID SOLUTIONS, INC.                                    1601
A3101400870000002007738RECTO, MARY ANN PACAIGUE OR                             10501
A3101400870000002007738RECTO, ARNOLD REBLEZA                                   20500
A3101400870000005696273ROCO III, LUCIO SABUG                                    0501
B3001400130230045754001EASY SKYWAY TRAVELS                                      1605
A0101401250000000441052ONGSUECO, SYLVIA K.                                      0502
A0101401250021478374001BAGTAS, JOSEPHINE                                        0501
A0101400150061227953001MA. DYMPHNA U. RAYMUNDO OR                              10501
A0101400150061227953001JOSE S. RAYMUNDO                                        20500
B0101400600071059422001SOREAL TECHNOLOGIES INC.                                 1602
A0601400100081040294001MOIKAI INDUSTRIAL SUPPLIES AND                          10503
A0601400100081040294001AUTOMATION SERVICES                                     20500
A0101413280000000878479MARIONE KHAYIM YAWFE T. DETITA                          10502
A0101413280000000878479OR JESSICA V. CABALLES                                  20500
A0101410560000001944185CARGAZON, ELECITA CAMPANA                                0502
A0101400730111520766057PROCLEY C. CRISTOBAL                                     0501
A0101400730111563160002BOONGALING, ALELI MATULAC                                0501
A0101401830141206536001PEDRO S. FLORES OR                                      10505
A0101401830141206536001IRMA G. FLORES                                          20500
A0101401380000000682582********                                                 0502
A0101401380201171279001TSAI, ROBERT                                             0501
A0101401380000001820002********                                                 0501
A3101400160000001276028CARIAS, FRANKLIN HERNAEZ                                 0501
A3101400160221220205001RODOLFO ELEPANO OR GILDA PICO                            0503
A3101400160221481936002APOLEGA, ALEX HUET                                       0502
A3101400160221626743001MARANAN, AMADO REDONDO                                   0503
A3101400870000005679678ENDRIGA, RAYMUND GUIDOTE OR                             10501
A3101400870000005679678ENDRIGA, JEAN GONZALES                                  20500
B3101400870225054035001WAKABA PHILIPPINES, INC                                  1604
A1001400190231478374154EVELYN A. CABALLERO                                      0501
A1301400470252499542001***************                                          0505
A0101401670271186230001LETICIA R. MALOLES OR                                   10502
A0101401670271186230001TERESITA M. OLIVEROS                                    20500
B0101406620000000015209SUNPRIME FINANCE INC.                                    1615
A0101406620273707369001GELLIDO, RAUL CHESTER LAGAYA                            10502
A0101406620273707369001OR GELLIDO, JOCELYN                                     20500
A0101406620273771081001DE GUZMAN, MARY JEAN NARIO                               0501
A0501400200000002306116VALDEZ,ALVIN PATRICIO OR VALDEZ                         10502
A0501400200000002306116MAE FLORIZE BALMEDIANO                                  20500
A0501400200000005689041SAMSON, JUVITH LOCQUIAO                                  0501
A2601400270000000084360CRISTINA L. CENDANA                                      0501
A2601400270302567227001ROSITA TAN VALLE                                         0502
A6601400120000001065292AOYANG, DONABEL CERBITO                                  0501
A6601400120000004440817BAQUERO, ADELINA DULA DBU                               10502
A6601400120000004440817FLORIANA'S GEN. MDSE.                                   20500
A6601400120000001370930OBAYAN, DINAH ABAGON DBU LLA                            10501
A6601400120000001370930SADA GENERAL MERCHANDISE                                20500
A2001400290315673185001TAHIR, SAMSODIN TOMAWIS                                  0502
A0101405650322526192001FUNTILA, CAROL PAULINE TAMAYO                            0501
B0101402060000000653930MADARANG, A DBU TRANSAMMA ENTERPRIS                     11601
B0101402060000000653930MADARANG, AR DBU                                        21600
A0101402930381402177002**********                                               0501
A0101402930381419788001ALMARITA JIMENEZ OR                                     10501
A0101402930381419788001MA. REGINA COELI JIMENEZ                                20500
A0101408790000005293723EMMA LOUISE HEATH                                        0501
B0101408790383015892001CAPITOL STEEL CORPORATION                                1603
A0101411660384047607001QUEEN'S LAIR HAIR CARE AND                              10505
A0101411660384047607001BEAUTY SALON                                            20500
B0101411660000002808120DATEM HOMES, INC.                                        1610
A0101405490000001092717ROSLINA M. AMEROL DBU AMEMAR                            10502
A0101405490000001092717GENERAL MERCHANDISE                                     20500
B0101405490000003905151ASIA PRIME REALTY NETWORK, INC.                          1602
A0101408400394230018001JOSE H. GAOAT JR. OR                                    10503
A0101408400394230018001JANEFER F. GAOAT                                        20500
A0101408400394667103001OFRECIO, NENITA DE GUERTO                                0501
A0101409180397681135001UICHICO, ERNESTO FLORO                                   0501
B0101412210399021173002ABOITIZ EQUITY VENTURES, INC.                            1601
A5501400120410650364008SAY, GILDA OR DANNY OR HENRY OR                         10502
A5501400120410650364008HELEN                                                   20500
A2401400180411042912088QUISHA FOODS                                             0501
B2401400180000000073692BROTHERS D & D INC.                                      1610
A2401400180411478374061JUNRES AGAD OR                                          10501
A2401400180411478374061NORMELITA BLANCO                                        20500
B1201400150421252673001GALANG, ARMANDO DUNGCA                                   1603
A1201400150421619129002TUVERA, ROSA DACANAY                                     0505
A0101412890000002748003CRUZ, BERNADETTE L. OR                                  10503
A0101412890000002748003CRUZ, JOVITO FERDINAND T.                               20500
A0101412890000003508165QUEBENGCO, YASMIN D' AYOTT                               0501
A0101412760000000767784YU, J DBU PRIME CUTS SOURCE GEN                          0502
A3801400170000005717962JANDUSAY, REYNALDO LUARCA                                0501
A3801400170490059456001SIBAL, EDNA R DBU R.S. FAMILY                           10501
A3801400170490059456001OPTICAL CLINIC                                          20500
B1901400160491027966003SALESFORCE ONE MARKETING, INC.                           1603
A1901400160491244619001ALEJANDRO F UY OR                                       10502
A1901400160491244619001APOLONIA AGNES B UY                                     20500
B0101407430000001213261ROMINE LASERJET TONER CORPORATION                        1601
A0101407430503378430002LIMTONG, DOUGLAS ARTHUR U. OR                           10501
A0101407430503378430002LIMTONG, JANE R.                                        20500
A0101403580511396376001RAFAEL A. MACALINAO OR                                  10501
A0101403580511396376001GLICELLE S. MACALINAO                                   20500
A0101403580511592154001ERLINDA L. BUCUD                                         0501
A0101405940000005718101DEOCAMPO, MA. ZOILA CHRISTINA D                          0501
A0101405940512462757003TERESITA CUEVAS/HELEN JAVINAR/                          10503
A0101405940512462757003JOHN DEE FLORES                                         20500
A0101408110000001364847PALOMAR, MARIA VERONICA                                 10503
A0101408110000001364847HERNANDEZ                                               20500
A0101403610531219680004RONWHEELS PARTS & ACCESORIES                             0501
A2201400250561037321001PTT NORTH RAMP GASOLINE STATION                          0501
B0101404130601100142001FOOD INDUSTRIES, INC.                                    1603
B0101407720602026114001**********                                               1603
A0101407720602620898001DOMINIC LEMUEL B. SEVILLA OR                            10501
A0101407720602620898001SARAH JANE S. SEVILLA                                   20500
A0101407720602620898002DOMINIC LEMUEL B. SEVILLA DMD                            0503
A0101404260611478374029EVELYN M. DELFIN                                         0501
B1301400210682016750001JFL AGRI VENTURE SUPPLIES                                1604
B1301400210682030509001FIRSTGRANT INC.                                          1605
B1301400500684602319001*****                                                    1603
A0101408240711443671001CARMENCITA C. GUIAO                                      0501
B2801400230713821100608**********                                               2002
A4101400420814357382003REMULLA, GILDA VASQUEZ                                   0502
A4101400420814564032001ARADA, ALMA CORCIEGA                                     0501
A4101400420814630679001JUMAO-AS, NANCY AYALA                                    0501
A4101400420814721273001GARINGAN, MEME PEDROSO                                   0501
A4101400550815797554002DELA CRUZ, GRACE AND SAMAR JR                           10506
A4101400550815797554002NUMERIANO AND NA                                        20500
A0101404840000004565931PABLO, R DBU UBEE LOGISTICS                              0505
A0101404840851317230011JIMENO, ROBERT                                           0501
A0101404840851478374094LETICIA FULLO                                            0501
A0101404840851520766070ELSA NAVARRO                                             0502
B0101406750852458767001ACCUHEALTH DIAGNOSTICS INC.                              1602
A0101406750852478374118RUBY FLAVIER                                             0501
A0101413860000001886979DE LEON, MARTHA DBU JECA PACKAG                          0506
B06014002300000036448207R FINANCE CORP.                                         1605
