B0101402770391821100608**********                                               2005
B0101401960121821100608**********                                               2003
B0101403320471020319001LORD OF THE NATIONS, INC.                                1605
A0101403320000007907222CESARIA G. DE LEON OR                                   10501
A0101403320000007907222JOJO M. DE LEON                                         20500
A0101403320000007908703**********                                               0501
A0101404840851478374062VIOLITA V. GIDUCOS                                       0504
A1101400120000003197288FLORO M. CAMENFORTE JR.                                  0503
A1101400120313039182001RMC TRADING                                              0501
A1101400120000005608191CELSO, GORGIE C.                                         0501
A6601400120314050601002CARPIO, WILBERT DIANO DBU CTC                           10502
A6601400120314050601002CONSTRUCTION AND SUPPLY                                 20500
A0101412890000000125482GLICERIO T VILLARIN OR                                  10502
A0101412890000000125482TERESITA I VILLA                                        20500
B0101416450920202000022**********                                               2001
A0101400860000005312798**********                                               0502
A0101400860011284810001**********                                               0505
A0101400860011298552007MA. TERESA N. MERCADER                                   0503
A0101400860011533026001**********                                               0502
A0101400860011578852001**********                                               0503
A0101400860011632451001**********                                               0503
A0101401250000004980576EVANGELISTA, ELAINE DEL ROSARIO                         10503
A0101401250000004980576DBU GILLAINE STORE                                      20500
A0101401250021309334001NAIDA T. TALIMAN AND                                    10501
A0101401250021309334001S.MA.APOLONIA S. DUMANDAN                               20500
B0101411370000000017923MAXILITE MERCHANDISING INC.                              1601
A0101400150000003162887KARINA MARIE C. TAVU                                     0501
A0101400600000001335648********                                                 0502
A0101405810072385132001***********                                              0503
B0101405810072557116001SK PREMIER LAND INC.                                     1601
A0601400100081297885001FINA, SALVATORE OR ELVIRA                                0503
A0601400100081586342001AGUILAR, REMEDIOS SALAS                                  0502
A0601400100000005050202CASTILLO, MADELYN MARIANO                                0501
B0601400360000000025750NT. LIVE INCORPORATED                                    1603
A0101413310000005433147CONCEPCION, TERESITA GUINTO OR                          10501
A0101413310000005433147CONCEPCION, ANTONIO DIAZ                                20500
A0101401830141037575002MATATAG PRINTING PRESS                                   0502
A0101401830000005690800MAGTALAS, GEMMA B. OR                                   10503
A0101401830000005690800MAGTALAS, JOHN GEMMO B.                                 20500
A0101401830141582040001EDNA FABREGAS HERNANDEZ                                  0505
A0101400440161525001119NORA S. TALENTO                                          0501
A0101407270162353067001JULIUS CAESAR C. BABAO                                   0503
A0101407270000004832673JULIUS CAESAR C. BABAO                                   0503
A0101401090171197840001DRS. PHILOMENA GABRIEL-LOPEZ                            10502
A0101401090171197840001OR ROLANDO LOPEZ                                        20500
A0101401090171198410001IMELDA S. DORADO                                         0502
A0301400530000001009943PANTUA, JERSON R.                                        0503
B0101413020000000038424BIOSPEED CORPORATION                                     1601
B0101400310211821200608**********                                               2001
B3101401260227821100608**********                                               2002
B3101401260227821200608**********                                               2002
B0101401670000000739253A.L. SALAZAR CONSTRUCTION, INC.                          1605
A0101406620273213924001NAZARIO C. SEGUNDO JR.                                   0502
B0101410980000000172052REAL VISION PROPERTY SOLUTIONS INC.                      1601
B0101411110276821100608**********                                               2005
B0101411110276821200608**********                                               2001
B0101411240000000012073ADVANTAGE-VEGA BUSINESS SERVICES INC.                    1601
A0101411240000005135911DE TORRES, JULIAN RAMOS                                  0502
B0801400160311062734001AME SEO GLOBAL BUSINESS PROCESS OURSOUR-                11601
B0801400160311062734001CING SERVICES                                           21600
B1101400120313036430003LEYTE HOME DEPOT INC.                                    1601
A1101400120000005608204MARLITO S. LAMBAN                                        0501
A6601400120314617868088LUCERO, SINCLAIRE A. OR MIRA R.                          0505
A0101402350321236824001CARMEN T. GO                                             0501
A0101402510341395239001PATRICIA W. YAM                                          0501
A0101402060351553377001ALVAREZ, JACQUELINE BARRION                              0501
B0101409050352018120001ELECTRONIC COMMERCE PAYMENTS, INC.                       1602
B0101409050000000258462THE NEW REEDLEY INTERNATIONAL SCHOOL                     1602
B0201400760000000040291KARGADOOR LOGISTICS CONSULTANCY                         11601
B0201400760000000040291SERVICES                                                21600
A0201400920375039398001QCS PHILS. - CONSULTANCY & TRAI                          0504
B0201400890376062448001NOMADIC UNDERWATER & TOURS                               1601
B0201401020000005109893PILIPINAS LOGISTICS & TECHNOLOGIES                      11603
B0201401020000005109893SOLUTIONS INC.                                          21600
B0101402930381008829002AXEIA DEVELOPMENT CORP.                                  1615
A0101402930381032706002BAPTIST BIBLE COLLEGE OF ASIA                           10501
A0101402930381032706002PACIFIC                                                 20500
A0101402930381626170001JEREH C. RUFIN OR                                       10501
A0101402930381626170001TRICIA RUFIN                                            20500
A0101408370382416284001DR. BERNARDITA O. POLICARPIO OR                         10501
A0101408370382416284001DR. REUBEN D. POLICARPIO                                20500
A0101402770391225339001VICTOR VIRGILIO Y. CASTRILLO OR                         10501
A0101402770391225339001VICTOR A. J. CASTRILLO JR                               20500
B0101402770391821200608**********                                               2001
A0101405490000003633189UGTO, EVELARDO MALICAD OR UGTO,                         10501
A0101405490000003633189MARIA LEANNE DE RIVERA                                  20500
A0101405490392020032001DUSTIN ENTERPRISES                                       0502
B0101405490392081974001HALCHEM INDUSTRIAL SALES, INC.                           1605
A0101405490000004808602RANTE, NENITA GAYOL                                      0501
A0101405490000000355719CRISTOBAL, IMMANUEL C. OR                               10501
A0101405490000000355719CRISTINA C. OR L                                        20500
A0101405490000000355651RODENES N. MORENO                                        0501
A0101408400000002273241MAXIAN, JORDAN DELFIN                                    0505
A0101408400394471974002PESICO, GINA GERALDINO                                   0501
A0101408400394618148001RINGOR, ELMER GULTIENO                                   0502
A0101409210000001501502SALAZAR, GILBERT BYRON EBREO                             0501
A0301400820000006542710FEGI, JANNETTE GALEOS                                    0502
A2401400180000007031483DIVINO, ROMEL CANJA                                      0503
B2401400180411338845003ROBERTO OR JANET PERALES JT ANTONIO OR                  11603
B2401400180411338845003ADELENE PERALES                                         21600
A1201400150421294034001ESPIRITU, ANTONIO ARAOS OR                              10503
A1201400150421294034001ESPIRITU, RACHEL                                        20500
A0101403030000001302087**********                                               0501
A0101406330472478374041ROSEMARIE A. NAPIGKIT                                    0502
A0101412760000000528216EMBRADO JR., JHON ROMEO RAGUSTA                          0501
A1601400170000001069125ALDEN O. SAMBAJON OR                                    10502
A1601400170000001069125MINDA O. SAMBAJON                                       20500
A1601400170000001360827ALCARAZ, MANOLO ARROYO                                   0501
B0101407430503006854003CARGO DATA EXCHANGE CENTER, INC.                         1602
B0101405940512542852001BRIGHTMED PHILS. INC.                                    1601
A0101408530516521997001ANGKICO, JEANETTE F.                                     0502
A0101404000000000461209CARLOS DE LEON & RAQUEL DIZON &                         10503
A0101404000000000461209JOCELYN DE LEON                                         20500
A0101410690000003027614ANTON STANLEY OR                                        10502
A0101410690000003027614CARLOS TAMAYO JR                                        20500
A0101407720602332279002CAYCO, ANTONIO V. OR                                    10501
A0101407720602332279002CAYCO, MARGARITA                                        20500
A0101407720602396513001CLEMENTE, JOSE ENRIQUE S.                                0511
B0101412180000000038053HOT SALAD CORPORATION                                    1605
B01014042606110209570013G CABLENET AND CONSULTANCY INC.                         1603
A0101404260611406418001LOZANO, LILIBETH TONIO                                   0502
A0101409920000001951993PANGILINAN, CAROLINE B. OR                              10502
A0101409920000001951993PANGILINAN, MARI                                        20500
A0101407690000000587895MANLIMOS, AMALYN DELANI                                  0501
A0101407690652028378002HIGHER GROUND FOOD STATION                               0501
A0101407690000001919902OSTREA, MARILOU DBU M. ZOILO                            10502
A0101407690000001919902TRADING                                                 20500
A0101407690652478374179LENIE ANDO - DEALERS OF                                 10502
A0101407690652478374179SHOECAT INC                                             20500
A0101407690652520766005GILNNA M. MALIGAT - DEALERS OF                          10501
A0101407690652520766005SHOECAT INC.                                            20500
A0101407690652525001047NOEMI B. BUNDA - DEALERS OF                             10501
A0101407690652525001047SHOECAT INC.                                            20500
A0101407690652525001051ANNABELLE BADAYOS - DEALERS OF                          10501
A0101407690652525001051SHOECAT INC.                                            20500
A0101407690000000154852ANGELES, LORENA ALMAZAN                                  0504
A0101413440000003298253BORLAGDATAN, EMELITA BONINA                              0501
B0101413440000001085610SEASTEMAS INTERNATIONAL, INC.                            1605
B0101413440000001085632SEABAR TERMINAL, INCORPORATED                            1603
B0101406590662038794001PRISMODIAL CONSTRUCTION CORPORATION                      1606
A0101406590662089847002MAGCALAS, MARCY DIZON                                    0501
A1301400340683387803001ESGUERRA, DANILO MEDRANO OR                             10504
A1301400340683387803001ESGUERRA, ANGELITA                                      20500
A1301400500684058869001YOUNG BUILDER'S TRADING                                  0502
B0101408240711026270001BLUE FAIRY INC.                                          1606
A0101408240711560372001DEL ROSARIO, KATRINA OR FRANCO                          10502
A0101408240711560372001OR TERESA                                               20500
A4101400260812642492001RUBY A. GONZALES                                         0501
A4101400550000000315171**********                                               0502
A0101404840851520766033FLORDELIZA M. RAVALO                                     0501
A0101404840851520766071TERESITA SANTOS                                          0502
A0601400230000000452840GOZUN, R-JAY RAMOS OR                                   10501
A0601400230000000452840GOZUN, MYRNA RAM                                        20500
B0601400230891821200608**********                                               2001
B3101400900000101010001**********                                               2002
B3101400900920342000022**********                                               2001
