F3201400190000001492935SY, MIMI ENA LUCIA PIRA OR                              12501CKO
F3201400190000001492935FERNANDO L. SY J                                        22500CKO
F0601400100081553525001UY, PETER ALEXANDER SO                                   2505CKO
F0201400180181050168168**********                                               2701CKC
F0301400110191454356001*********                                                2603CKR
F1001400480000000133600INDORAMA VENTURES PACKAGING (PH                         12615CKR
F1001400480000000133600ILIPPINES) CORPO                                        22600CKR
F0101409210000004818884LUXASIA, INC.                                            2602CK1
F0301400400413031893168COLUMBIA COMPUTER CENTER DAVAO,                         12610CKR
F0301400400413031893168INC.                                                    22600CKR
F0101403450521012151002**********                                               2602CKR
