B0101403450521821100608**********                                               2030
B0101405650322821100608**********                                               2005
A0101410980000001154409TAN, NELLIE ANN JT                                       0501
A0101409890649720960001CASTRO, KARLEN SANTIAGO                                  0503
A0601400520000005943411LOPEZ, MA. GEMMA CALALANG                                0501
A0101400440161525001105VIRGIE B. CRUZ                                           0501
B0101412890470077699001SKY HIGH FITNESS GYM                                     1601
B0101400150061821200608**********                                               2010
A0101405650000002325560SUGUI, CHERYL MERCADO                                    0502
A0101402930381206550002MARIETTA A. PANALIGAN                                    0503
A0101408370000003775100DRS. CECILE CASIMIRO OR MA. LUZ                         10502
A0101408370000003775100CASIMIRO-QUERUBIN                                       20500
A0101408370382418195001MOISES T. CLAVERIA JR.                                   0501
A0101401250021698692001ROCELIE M. PALMOS                                        0502
A0101400150000002902718TOLENTINO, ROMEL TUCAY                                   0501
B0101400150061016942007ASIA PACIFIC EXPRESS CORPORATION                         1605
A0101400150000000525488REYES, SHEREL LOU BERMUDEZ                               0501
A0101400150061229814002LEONCIO C. LIM                                           0501
B0101400150061542521001SAN CARLOS BIOPOWER INC.                                 1603
A0101400150061707501001ANG, JEANILLE ALYANNA UY                                 0501
B0101400150061735126001SOUTH NEGROS BIOPOWER, INC.                              1603
A0601400100081025360002AMOR REFRIGERATION & AIR                                10502
A0601400100081025360002CONDITION REPAIR                                        20500
A0101410850000000005778*****                                                    0501
A0101410850000000778827MABOLO ENTERPRISES                                       0503
A0101410850000003102089BANTUGON, MIGUEL LEONILO M. DBU                         10505
A0101410850000003102089KING B ENTERPRIS                                        20500
B0101410850000003503740CANELLE FOOD CORPORATION                                 1605
A0101410560000001943995MONTALBAN, MYRA SUGANOB                                  0501
B0101400730111007937001NORTHERN CEMENT CORPORATION                              1603
A0101400730111412858002EVANGELINE DELA ROSA                                     0502
A0101401960121408365003***********                                              0505
A0101412630000004062111PINTO, RONALDO DELA CRUZ                                 0501
B0101412630000000023838LC STAR UNICA HIJA SALON INC.                            1603
A0101413310000005433329RAMOS, CLAIRGEMINE BEBSIE B.                             0501
A0101400440161186947001ROBERTO L. SENA                                          0502
A0101400440161478374018MA. DELIA P. FERMANTE                                    0501
A0101400440000002639201VILA, JALANDONI MONTEMAYOR                               0502
A0101400440161520766083ROWENA B. DAVID                                          0501
A0101400440161525001095MARITES T. TAPIADOR                                      0501
B0101400440161528688001POWERPHASES CONSTRUCTION SERVICES INC.                   1603
A0101400440161565865001MARIA KATHRINA G. SALVADOR                               0502
A0101400440161781194001MARICHU R. DE CASTRO                                     0501
A0101407270162551435001MARIA LOURDES E. BAUTISTA                                0501
A0101407270162587936002WILFRIDO G. TIRONA                                       0501
A0101401090171196109001ANGELES A. UNTALAN                                       0501
A0101401090171196128001DRS. ROLANDO CABATU OR                                  10501
A0101401090171196128001MARCELLA RUIZ-CABATU                                    20500
A0101401090171196194001DR. JESUS EUSEBIO JR.                                    0510
A0101401090171349854001MARIA CARMELITA C. COLOMA                                0501
A0301400530000006477310ST. THOMAS MORE SCHOOL OF LAW                           10503
A0301400530000006477310AND BUSINESS INC.                                       20500
B0301400530193088888088TAGUM FIESTA APPLIANCE, INC.                             1610
B0301400660194046020088SEADOVE MARITIME SERVICES, INC.                          1602
A0101410720653402452001JONE P. LIU CHIANG OR                                   10501
A0101410720653402452001LEO VILLAVERT                                           20500
A0101412500000007287478**********                                               0501
A0101413600000003134487******                                                   0502
A3101400450223223458004ALVERO, LEAH AURORA TOLENTINO                            0502
B1001400190231022229001CITY ALLIANCE CHURCH                                     1601
A1001400350233529082001QUEJA, AILSA QUILALA                                     0503
A1001400350233770191001PATRIANA, LINDY CASTILLO                                 0501
A1001400480000002300383GUINTO, JEAN MAGO OR GUINTO,                            10502
A1001400480000002300383NEMER SARDEA                                            20500
B0101406460000000020920PRIME CREATIVE DIMENSIONE INC.                           1610
A0101406620000006317762GERONIMO, MYSTER SAMSON                                  0502
A0101406620273793427001AMORADO, JOSE AMOR AND AMORADO                          10503
A0101406620273793427001CRISTINA                                                20500
B0101410980275047231188*********                                                1602
B0101411110000000009087GOLDEN YELLOW LEAF MANUFACTURING CORP.                   1602
A0101411820000001356401JINGLYN MARIE P. PEREZ                                   0501
A1101400120000005608260SANITA, ERIC SALIENTE                                    0502
A1101400120000006186478BOLECHE, MERLINE BANDALA                                 0502
A3401400280000003493845DEGALA, WINNIE DOLOR                                     0502
A2901400130000007289203GELITO, MARY JEAN ALAG                                   0501
B0101405650322033184002ASIA PLUS CORPORATION                                    1605
B0101405650322034969001ALPHINELAKE WATER REFILLING STATION                      1601
B0101402510341026003001PHILSOFT TECHNOLOGIES GROUP, INC.                        1601
A0201400920000002250088LIM, JENNIFER SIADY OR LIM,                             10501
A0201400920000002250088CARLOS                                                  20500
A0201400890376535273001TOLEDO,HAROLD XAVIER OR CLIMACO                         10502
A0201400890376535273001BRYAN OR GUEVARR                                        20500
B0201401020000005109940FAMILY TABLE INC.                                        1605
A0201401020000000056102ESLER, HERBERT POSADAS                                   0502
A0101408370382206455001DR. RUBEN G. KASALA OR                                  10502
A0101408370382206455001DR. MA. CARMELA KASALA                                  20500
A0101408370382622435001JORGE C. GREGORIO OR                                    10503
A0101408370382622435001LISA CORAZON R.GREGORIO                                 20500
A0101415350000005308372ENCARGUEZ, MARDEN G.                                     0502
A0101415350000007075723LAGAAC, CARLO                                            0501
B0101402770391009312001CAPITAL GARMENT CORPORATION                              1602
A0101402770391595237001LUZ B. FERRER OR                                        10503
A0101402770391595237001MARIO G. FERRER                                         20500
A0101405490392372930001ELIZABETH P. CARRASCAL                                   0502
A0101408400000001952883GABRIEL TAILORING AND GENERAL                           10501
A0101408400000001952883MERCHANDISE                                             20500
A0101409180000005326409CARANTO, JENNY LYN SALVADOR                              0501
A0301400820409094648001LADAGA, SHERRYL E.                                       0502
A5501400120000001121731SUSTIGUER, ROSE CARMEN ACOJIDO                           0501
A5501400120410283898001GARCIA, JOSIE OR                                        10512
A5501400120410283898001GARCIA, GERARDO                                         20500
A5501400120410283898004GARCIA, JOSIE JAVELLANA                                  0505
A5501400120000002019114GARCIA, JOSIE JAVELLANA                                  0512
A5501400120000002019125GARCIA, JOSIE JAVELLANA                                  0501
A5501400120410619219001PALMA, WILLIAM PEJI                                      0502
B2401400180000000073670BRIGADA HEALTHLINE CORP.                                 1610
B2401400180000000019769WILL & JOE AGGREGATES, INC.                              1605
A2401400180411564736001CATULPOS, ELMER VILLEGAS                                10503
A2401400180411564736001OR CATULPOS, YEL                                        20500
A2401400180411587639001GILBERO, EVELYN BUT-AY                                   0501
A0101403030441413980001**********                                               0502
A0101403030441534805001**********                                               0502
A0101412890000005944910FLORES, MARIA  AISSA ONG                                 0501
A0101412890000001765379LINO E. LIM JR.                                          0505
A0101406330000000451370VILLARANTE, MARIA LUZ PELAYO                             0501
A0101406330472478374049DANILO GIL M. SETENTA OR                                10503
A0101406330472478374049DELIA A. SETENTA                                        20500
A0501400170481046585002ANG, JUSSLYNN DBU                                       10501
A0501400170481046585002AVS DISTRIBUTION                                        20500
A1901400160491522606002AUREA C JAVIER                                           0501
B0701400130493821200608**********                                               2001
B0101407430503385656004**********                                               1602
A0101403580000005328467MUTUC, KRISTINE ANNE MABANGLO                            0501
A0101403580511322954003VIRATA, LEONIDES J M CUUNJIENG                           0505
B0101403450521011975001**********                                               1602
A0101403450521356203003**********                                               0502
B0101403610531009928002LAMP METALS INDUSTRIES                                   1602
A0101404000000006947488CARL BRYAN P ORDONA                                      0501
B0101404000551046316001PHILAB INDUSTRIES, INC.                                  1604
A0101404000000000136503JULIANO, MARIE JOY CRUZ                                  0501
B2201400250000006736252EDC TYREQUEST  MARKETING                                 1602
A2201400250561631568002AILEEN M. SANTOS OR                                     10501
A2201400250561631568002VALENTINO L. SANTOS                                     20500
B0101404130601100148003UNIESSENCE CHEMICALS PHILIPPINES INC                     1605
A0101407720602165627004ALVIN SANTOS OR                                         10502
A0101407720602165627004NORA FIGUEROA-SA                                        20500
B0101404260000000156972PRIME POWER MANPOWER SERVICES                            1650
B0101404260000000156972PRIME POWER MANPOWER SERVICES                            1650
A0101404260611045966001FRONDOZO TRADING                                         0501
A0101404260611150856002CHING, WILLIAM OR TRINIDAD                               0502
A0101404260611478374115FE S. BONDOC                                             0501
B0101409890000000004542TAN, MARY OR TAN, FEDERICO OR                           11601
B0101409890000000004542TAN, MELODY TE                                          21600
A0101409890000000049089GEMSTAR CLEANING SUPPLIES                               10504
A0101409890000000049089INTERNATIONAL                                           20500
A0101409890649748917001LAM, ALVIN CHESTER GUEVARRA                              0502
A0101409890649756574001DELOS REYES, MYRNA ANGA ANGAN                            0502
A0101411530000002260311**********                                               0501
A0101413440000002339619RAMOS, JOSE VICENTE A. OR                               10502
A0101413440000002339619RAMOS, MARIA RAQUEL L.                                  20500
A0101413440000003298242BUENDIA, CARLOS COLOYAN                                  0503
A0101408240000003955595BROWN-ARANETA, MICHELLE LANA                             0502
A0101408240711384722001ESMERALDA B. PAJARON                                     0501
A0101408240711522280001MAGSUCI, MONICA LUCILLE MEER                             0502
A0101408240711604633002MAKASAKIT, ALEX MANALO OR                               10501
A0101408240711604633002ELIZABETH                                               20500
A0101412340000002900329SERAFIN D MOLDEZ DBU SC MOLDEZ                          10501
A0101412340000002900329ENGINEERING &CONSTRUCTION                               20500
A0101404840851520766066CYNTHIA A HERMEDILLA                                     0502
A0101404840000000943260AGOSTO, ANALYN HAYAHAY                                   0501
B0101404840851671030001QUANTUMMEDIA MARKETING INC                               1602
A0101406750852636718001JOSE, VIRGINIA APUYA                                     0501
B0601400230891008438001THE PREMIERE INSURANCE & SURETY CORP.                    1602
B0601400780892821100608**********                                               2004
