A4101400260000003679943TAN, ANGELINA                                            0501
A1001400480000003357679SUMANDO, EXEQUIEL MANUEL                                 0503
A1301400500000007510227SANTOS, MA. ASUNCION REYES                               0501
A0101401250000004374630GANZON, MARITES M.                                       0501
A0101401250021178978001BERTOL, LOLITA B. OR                                    10502
A0101401250021178978001BERTOL, LIEZL B.                                        20500
A0101400150000003876911OCHOA, AILEEN J.                                         0501
A0101400150000003197562Vanessa M. Maningas                                      0501
A0101400150000005794494FRADEJAS, CEAZAR CORTEZ                                  0505
B0101400150061018219002SUGAR INDUSTRY FOUNDATION, INC.                          1605
A0101400150061226801001LORETTA G. MANGILIT OR                                  10503
A0101400150061226801001REYNALDO T. MANG                                        20500
B0101400150061534780001STRAITS WINE COMPANY WHOLESALERS, INC.                   1602
A0101400150061771746001SARI, EZEKIEL MARASIGAN                                  0501
B0101405810000000016822VANDA PAPER PRODUCT ENTERPRISES COR                      1602
A0101405810072284224001*********                                                0501
A0101405810000000016559CHUA, HEMAN LAO                                          0501
B0101405810072405241003**********                                               1605
A0601400100081501761001TAN, WINTHEL OR RALPH                                    0501
A0601400520000001706861EA, TITA ESTABILLO                                       0501
B0101414090000000399504JUANASPA CORP.                                           1601
B0101400730111036857001FRC SULO RIVIERA HOTEL CORPORATION                       1606
A0101400730111334903036EDGAR F. CAGINDAGAN                                      0502
A0101401960121238456001**********                                               0501
A0101401960121238672001**********                                               0502
A0101412920000003465070TALEON-PARAZO, ANGELENE TAMAYO                           0502
A0101400440161525001103OFELIA B. OLERMO                                         0501
A0101400440161525001104EVELYN G. GARCIA                                         0501
A0101407270000003253961RUTAQUIO, JOAN TENA                                      0502
A0101407270000007533602ALBITO, EUGENE DE LA CRUZ                                0501
B0101407270000000830682MULTI-CORPORATE SUPPORT AND RESOURC                      1605
B0101407270000000830551POULTRYMAX OMNIS, INC.                                   1603
A0101401090171196066001DRS. REDARIO OR MARY JOCELYN                            10502
A0101401090171196066001LAYGO                                                   20500
A0101401090171353988001CITADEL C. DE CASTRO                                     0502
B0301400660000002348541ERVY LOGISTICS                                           1601
A0301400660000001113802CHIU, CLAUDETTE CUE                                      0501
B0301400950000002115782*************                                            1601
A0101401380000000414300EUSEBIO, ROSALINDA MATREO                                0502
A3101400160000001559300PRIUSS DIAGNOSTICS AND MEDICAL                          10505
A3101400160000001559300SUPPLY                                                  20500
A3101400160221220343001LAARNI A. CALAPATIA                                      0501
A1001400190231036837001RTD MARKETING                                            0505
A1001400190231040264001WESTBOUND PETRON                                        10502
A1001400190231040264001SERVICE STATION                                         20500
A1001400190231040271001ROADNET 2000 ENTERPRISES                                 0502
A1001400350000002367360LAGUNDO, IMELDA HAGORILES                                0503
A1001400350000000017165MEN DBU A&L MARKETING SOLUTIONS                          0501
A0101406620000002009212ALCANTARA, GRACELYN ORIAS                                0501
B0101406620000000193942SOURCEFIT PHILIPPINES INC.                               1602
A0101406620273477709002LUCERO JR., JUANITO ARIEL RUFON                          0502
A0101411110276057553001REYES, A DBU ARTREY EXPRESS                             10502
A0101411110276057553001CARGO SERVICES                                          20500
A1101400120313478374074UNGAB, ROSALINDA B.                                      0501
A1101400120313478374099SALAS, ERIKA GALAROSA                                    0501
A6601400120000001065383ALEXANDER SY OR RITA NILA CHY                            0503
A6601400120314627348001RUBILLOS, LADY ANN MIJARES                               0502
A3401400280318478374006LOVERAS, EMCY DEL ROSARIO                                0505
B0101402350000005645781BHUBHANESH INTERNATIONAL BUSINESS                       11601
B0101402350000005645781VENTURES INC                                            21600
A0101402510341353926001ROLANDO G. GALAO OR                                     10506
A0101402510341353926001RUE B. GALAO                                            20500
B0101402060000000653963LX CORPORATION                                           1605
A0201400890000006962032LIM, LUIS ANTONIO SYLIM                                  0501
A0201400890376080642001GALANG, LORLIE PACURIBOT OR                             10502
A0201400890376080642001GALANG, GLENN AN                                        20500
A0101408400000000607710AGUILAR, CLAUDETTE CAPULONG                              0501
A0101408950000002255370CHIA, CATHERINE ANNE TEO                                 0504
A2401400180000003949071PROVIDO, JULIET MAHINAY DBU                             10503
A2401400180000003949071PROVIDO AQUA VENTURES                                   20500
A2401400180411330256002CHARLES L. LIM                                           0502
A2401400180411478374042JOYCE R. GALLEON                                         0501
A2401400180411478374056GALINDEZ, IRENE AGCAOILE                                 0501
A2401400180000007031530FERNANDEZ, JOSEPH SEVILLA                                0501
A0901400220432708709001MAHILUM, CATHERINE RIZALDE                               0502
A0101403030441239409001**********                                               0502
B0101403030000000531406**********                                               1603
A0101410140000000482702LABASTIDA, ENGRACIO DOTOLLO                              0501
A0501400170481297225002TACIANA M CAYABYAB                                       0501
B3801400170000000018777ANTONIO CATIBOG II OR ZENAIDA CATIBOG OR                11605
B3801400170000000018777HAZELYN ACEDERA                                         21600
A1901400160000007423301CAGUIMBAL, GIOVANNI INCIONG                              0501
A1601400170494047880001AIREEN I. SALAZAR DBU A.                                10501
A1601400170494047880001SALAZAR LEARNING CENTER                                 20500
B0101405940000000002951ALEXANDER COMMERCIAL, INC.                               1603
B0101408110515017881001GROUP MANAGEMENT CORPORATION                             1603
A0101411790518055815005LIWANAG, EMMANUEL MESIAS                                 0501
A0101403450000001769840*************                                            0501
A0101403450521238277001**********                                               0502
A0101403450521559329001***********                                              0501
A0101403610531219335003MANGUNE, MACARIO C.  OR                                 10502
A0101403610531219335003MANGUNE, RITA R.                                        20500
A0101404000000000136525LEVISTE II, LAURO SERMONIA OR                           10501
A0101404000000000136525LEVISTE, MARIA V                                        20500
A0101404130000002121102LEDESMA, STEPHANIE BEATRICE JAN                          0502
B0101404130000003105751GOLD NUGGETS HAULING AND TRUCKING CORP.                  1603
A0101404130601450162001ORLANDO U. GO                                            0502
A0101404130601450536001CRISENTE G. CAYABYAB                                     0501
A0101407720000003886955SANCHEZ, ARISTOTLE FRANCIS GERO                          0503
B0101407720602027414001GAN ADVANCED OSSEOINTEGRATION CENTER                     1610
B0101407720602044376001MAKATI FINANCE CORPORATION                               1603
A0101407720602343467001HENSON, GERARD FORES                                     0501
B01014077206024892100011stMARK GLOBAL MEDICAL SERVICES, INC                     1603
A0101404260611005236004WILTRON ELECTRONICS                                      0502
A0101404260611150901001CECILIO OR ROSALINDA ATIENZA                             0501
A0101409920650478374005CRISOSTOMO, MA. EMELIA GASPAN                           10501
A0101409920650478374005MEMBERS OF NATAS                                        20500
A0101413440000002706072PORCIUNCULA, CATHERINE R. OR                            10502
A0101413440000002706072PORCIUNCULA, JOSE PAOLO C                               20500
A0101413570000004353797GRACE F. GANGANO                                         0503
A0101413570656057648161JHEROME B. MARQUEZ                                       0501
A1301400210682478374027MARY ANN M. DE LEON                                      0501
B1301400500000000011194GREEN FORTUNE GAS STATION                                1605
A1301400500684620339001DAVID, FELIPE ANGELES                                    0502
A2801400100000000496839FEDINES, APRIL ANN DE VERA                               0501
A2801400230000001734732CITY REJUVENATING SPA                                    0502
A4101400550000002090853NEGRITO, DEXTER AMPARADO                                 0501
B4101400550815821100608**********                                               2003
A0101406750000000480540SANTOS, CONCEPCION BISA                                  0501
B0101415930410412000011**********                                               2003
