F1801400130151048765001MSU-IIT NMPC SUAREZ-TOMINOBO BR                          2602CKR
F0301400110191028746001SKS INTERIORS INC.                                       2605CKR
F0301400790000001211681GABUTERO, ROMMEL D OR                                   12601CKR
F0301400790000001211681GABUTERO, MICHEL                                        22600CKR
F0101400570281029096001ST. LUKE'S MEDICAL ARTS                                 12605CKR
F0101400570281029096001BUILDING CORP.                                          22600CKR
F0101400570281226117001ARCATOMY OR ANGELES GUARIN                               2501CKO
F0301400240401025953008ECE MARKETING                                            2606CKR
F4101400260812038727001METRO CAVITE HEALTH SYSTEM INC.                          2610CKR
F4101400390813042421011SANCHEZ, XIEMERA LA TORRE                                2503CKO
