A1701400230693478374031VILMA D. BAGAY                                           0501
A0601400100000010683986TANHUECO JR., JUAN CANLAS DBU J                          0505
B0101410720210764716001J.C.T. EZ LOAN CORPORATION                               1602
A2401400180000007031552QIN, ANDREW CAI                                          0502
A2401400180000018887031DOLOR JOHNNY BORLEO DBU J & D A                          0501
A1401400110000017376280BRIONES, PHILIP EDWIN ALAN                               0502
B1401400110000012353354EARTHKEEPER'S BIOMASS SOLUTION INC.                      1601
B1401400110000016153963ST. APOLONIA DENTAL MULTI-PURPOSE C                      1603
B1401400110492010148001COTTA REALTY & DEVELOPMENT CORP.                         1604
A0101400860000001348681*                                                        0503
B0101400860011374740004**********                                               1605
B0101400860011459113001**********                                               1602
A0101401250000005334390BALAMIENTO, MICHELLE ALFARO                              0501
A0101411370000014023222ORTEGA, EMILY LUCERO                                     0502
A0101400150000003218613MARIA CRISTINA L. VIRAY                                  0501
B0101400150061016942006ASIA PACIFIC EXPRESS CORPORATION                         1605
B0101400150000004090117GOLDENBLEND CORP.                                        1605
B0101400150061226857001ARL MARITIME SERVICES INC.                               1603
A0101400150061326594001REYNALD C. UY OR                                        10501
A0101400150061326594001SHIRLEY G. UY                                           20500
A0101400600000008915000MDRJ GENERAL MERCHANDISE                                 0501
B0101400600071516450001TAN, EDNA ANDRES                                         1601
B0101400600000005943080HAO KOH SENG JT                                          1601
B0101405810072412798002**********                                               1603
A0601400100000015559752MIJARES, FLORITA MAUN                                    0502
A0601400100000017089131DUNGO, JAN VINCENT PULIDO                                0502
B0601400100000002099107ONG, ANDREW OR ONG,ING LEE OR ONG, ANSON                11601
B0601400100000002099107OR HAO, EMILIA                                          21600
A0101413730000002289609Macam, Cachito Padilla or                               10502
A0101413730000002289609Macam, Lucia                                            20500
B0101414090000007344603BLUEMAX TRADELINK  INC.                                  1603
B0101414090000007344563BACOLOD ACREDITAR LENDING CORPORATION                    1610
A0101400730000014166173JAVIER, ROGELITO B                                       0502
A0101400730111334903022EMELITA ERCE VILLANUEVA                                  0501
B0101406040000000096662CONCEPT SPECIALIST, INC.                                 1605
A0101413150000016613622JOHN ONG OR NELLY ONG OR                                10501
A0101413150000016613622ROSARIO ONG                                             20500
A0101401830000017559425MORALES, CARRIE ANNE MORALES                             0501
A0101401830141292912001EDUARDO P. AMBAS OR                                     10503
A0101401830141292912001JOSEPHINE M. AMB                                        20500
A0101412920000008813601DELA CRUZ, EDISON GELITO BALAIS                         10501
A0101412920000008813601OR CASTILLO, ALB                                        20500
A0101400440000007904881FRANCISCO, EMILY PALARCA                                 0501
A0101400440000017123778EMEN, JOSEPHINE PATRICIO                                 0501
A0101400440000017810043DALUSONG, GRACE DE VERA                                  0501
A0101401090171468916001FRANCISCO, MA. GENEVIEVE RAMOS                           0502
A0301400530000006477274LUI, LORETO RABI                                         0504
A0301400530000009156947CAI, SHAOXIN                                             0506
A0301400530000015818730SARONA JR., ACSINDINO VARGAS                             0502
B0301400530000015818770MARTIN, MARY MARGARET YU DBU NOEL'S                      1601
B0301400660000000022835DURABOARD PACKAGING CORP.                                1605
B0301400660000008941033FERNANDEZ, GIL BREINARD SY OR                           11606
B0301400660000008941033REPONTE, RUBELYN                                        21600
A0301400950000013129232BENOLA, JOVANIE ARADO                                    0501
B0301400950000017166440VICERA PRIME DISTRIBUTORS CORP.                          1601
A0101401380000018277353VISTAN, MIRIAM BITANGCOR                                 0503
B0101413020000001175428ALL HEALTHY HEALTH VENTURES, INC.                        1605
A0101410720000004626380**********                                               0501
B0101410720653035483001GERMALIN ENTERPRISES, INCORPORATED                       1602
A3101400160000012033279PIAMONTE, ADELITA LUCERNAS                               0501
B3101400160000018449579ALPINE POWER SOLUTION INC.                               1602
A3101400160221478374062LANI R PEREZ                                             0501
A3101400160221529439001ESTELLA MARIE M RAMIREZ                                  0502
A3101400450000002330490FANG, RONNIE CARLOS BACANI                               0501
A3101400740000018546917DE GUZMAN, OSCAR DE GUZMAN                               0501
A1001400190231478374006LIBRADO, HAZEL T.                                        0501
A1001400190231478374012FARINAS, EVA MAE CENTO                                   0501
A1001400190231520766125YANA, MAYFLOR DAGOC                                      0501
A1001400190231520766208LACRE, HAYDEE DAGPIN                                     0501
A1001400350000018947541R AND J PHARMACY - OPOL                                  0501
A1001400350000018947609R AND J PHARMACY - MACANHAN                              0501
A1001400350233526764001LUMICAO, NESTOR OR LUMICAO,                             10502
A1001400350233526764001THERESE                                                 20500
A1001400480000000041487ERFE, ERLINDA GALA                                       0501
A1001400480000008501922BOLLOZOS, SHELDON LABASAN                                0501
A1001400480000003357635LABININAY, JENNIFER MAE PAAS                             0501
A1001400480000003357715OCERO, SHERLITA TUPAS OR OCERO                          10502
A1001400480000003357715MAUREEN ECHAVEZ                                         20500
A1001400480000011810250MANALES JR., JONATHAN MALINAO                            0501
B1001400480000011809944PO, PATRICK GO DBU PGP TICKETING OFFICE                  1602
A1301400470000013690201MARIA TERESA C. CARIAGA                                  0502
A1301400760000005989931JOCSON, JOEFIL CERCADO                                   0501
A1301400760000008698957BERNARD P. TORRES                                        0502
A1901400290261244409001ESPERANZA PAZ M LEYEZA OR                               10502
A1901400290261244409001JUAN GUALBERTO M LEYEZA                                 20500
A1901400290261337520001DRA NATALIA B CARDONA OR                                10505
A1901400290261337520001DR DANILO C CARDONA                                     20500
A1901400290261432900001JULIUS PIO AFRICA RANA OR                               10501
A1901400290261432900001CHARMAINE DE GUZMAN RANA                                20500
A1901400290261499267001ALBERTO GUEVARRA MENDOZA JR.                             0501
A1901400290261567865001ALEX IAN SISON DE LA CRUZ                                0501
A0101401670271216325001VITALIANO N. AGUIRRE II OR                              10501
A0101401670271216325001MARISSA L. AGUIRRE                                      20500
A0101406460000016571090CHUNG, YOUNGHO                                           0502
A0101406620273236978001CALLEJA, HOWARD MACEDA                                   0503
A0101406620273518518001RICALDE, ROSARIO RODRIGUEZ                               0502
B0101410980000006014700EMMANUEL MEDICAL AND DIAGNOSTIC CENTER I                11602
B0101410980000006014700NC.                                                     21600
A0101400570000011680772CRUZ, CHERRYLYN LAGUNA                                   0501
A0101400570000017834329TAN, MARLINA SALAZAR                                     0501
A0501400200000014573830OLIVERAS, ROMMEL RARAS                                   0501
A0501400200000016275979AMBROCIO, MARY JANE LAROCO                               0502
A6601400120000008490466ARGENIO, MAREBELLE DRIZA                                 0501
A6601400120314041602001LEXTAN GENERAL MERCHANDISE                               0501
A6601400120000003642846FLORESCA, MANOLITO ESTERNON DBU                         10502
A6601400120000003642846RMF SARI SARI ST                                        20500
A0101402060351652524001SYTANGCO, ROY IMPERIAL OR                               10504
A0101402060351652524001TAGALA, GINA ADA                                        20500
A0201400760000005711035REYES, RUBEN NIKEO GOMEZ                                 0502
A0201400760000017100991PEREZ, CRESILDA MORALES                                  0501
A0201400920000002250088LIM, JENNIFER SIADY OR LIM,                             10501
A0201400920000002250088CARLOS                                                  20500
B0201400920000006433683CASTALLOY TECHNOLOGY CORPORATION                         1603
B0101402930000005646113PHILIPPINE SOCIETY OF ALLERGY, ASTH                      1606
B0101408400394042053001VALHALA INVESTMENTS HOLDINGS INC.                        1601
A0101408400394159750001ROMERO, FRANCISCA BAUTISTA                               0504
A0101408400000003120770CAYTON, MARIANNE OCHOA                                   0502
A0101408400394163404001PILI, JUANITO AROLFO                                     0502
A0101408400394478374034MERLA M TANO                                             0502
A0101408950000010507074TOBIAS, SHERYL SAPIN                                     0502
A0101408950396155683001HERNANDEZ, ERROL PAPA                                    0502
A0101409180397681135001UICHICO, ERNESTO FLORO                                   0501
A0301400820000014658041DE LUNA, RAMELITO A.                                     0502
A0301400820000010907190TAN, ALEC JAY G.                                         0502
B0301400820000002106132J 777 AGRI MARKETING CORP.                               1605
A5501400120000015561181GALERIO, HELARIA SOTTO                                   0501
A5501400120000017065839CATEDRAL, MARIVIC DELOS REYES D                          0502
A2401400180000000073550ALBARRACIN, JEMAR DEGAMO                                 0502
A2401400180000012748517ENRIQUEZ, ANNA LISA AMISTOSO                             0502
A2401400180000015073679HASSANNOOR, ANGELIE DUGASAN                              0501
A2401400180411023998002ENE MARKETING                                            0502
A2401400180411501589001VALILA, NOL S. OR VALILA, MA.                           10501
A2401400180411501589001LOURDES D.                                              20500
A2401400180411766978001BALLENA JR, ROBERTO CALVO                                0501
B1201400150000011415820MEGAPINES REALTY AND DEVELOPMENT IN                      1610
B1201400150421032260001SAN LUIS SAVINGS AND DEVELOPMENT COOP.                   1601
A0101403030441241051001**********                                               0501
A0101403030441483655001**********                                               0501
B0101406330000000432911POLAR BEAR FREEZING AND STORAGE (POBECO)                11601
B0101406330000000432911CORPORATION                                             21600
A0101406330472542494001TEODORA A. RAZON                                         0502
A0101412760000011574582ANDAL, JANE DESIREE FABRO                                0501
A0501400170481046585002ANG, JUSSLYNN DBU                                       10505
A0501400170481046585002AVS DISTRIBUTION                                        20500
A0501400170000001072713ANG, JUSSLYNN MAISIE ONG                                 0501
A3801400170000018949485ANDAL, R JT DBU EAGLE B ANTIGO                          10501
A3801400170000018949485FURNITURE                                               20500
B1901400160000015840921LIM, VIRGINIA V. OR LIM, RICHARD D.                      1601
A1901400160491635678001MARIVIC ATIENZA CANTES                                   0501
B1401400110492027100002SACRED HEART COLLEGE                                     1601
A1401400110000016227957DY, MARGARETTE EDNA LEY AYCARDO                          0501
B0101407430000008901315ROMINE LASERJET TONER CORPORATION                        1601
A0101407430503375315003LILIAN LIZA C. MACATO                                    0501
A0101407430000005358727MARK ANTHONY R. SAYAROT                                  0510
B0101403580511005406001SHINRYO (PHILIPPINES) COMPANY INC.                       1605
A0101403580511150639001DAPHNE B. ROLDAN                                         0501
A0101412050000012912431CASEM, CHRISTIAN FLORES                                  0502
A0101403450521238265001**********                                               0502
A0101403450521366584001**********                                               0501
A0101403610000006637034**********                                               0501
B0101403610000013963961CAPAC RESOURCE AND DISTRIBUTION                         11601
B0101403610000013963961CORPORATION                                             21600
A0101410690000003027578ALVAREZ JR., ARIEL VILLA                                 0503
A0101410690000005383495TAN, DENNIS LI                                           0501
A0101407720000006028315PALAFOX, KARIMA PATRICIA VILLAN                          0501
B0101407720000011874823MEDI LINX LABORATORY INC.                                1604
A0101404260611150840001WILLY CHING OR ISIDORA CHING/                           10505
A0101404260611150840001GOLDSUN LUMBER                                          20500
A0101404260611636476001GONGOB, DODGE KELLY JORDAS                               0502
A0101409890000011029400CHUA, OSBERT CO DBU 4 LITTLE AN                          0502
A0101407690000018479048ALHUSSAIN, SULTAN ZAID S                                 0504
A0101407690652525001067MAILA M. NACIN - DEALERS OF                             10501
A0101407690652525001067SHOECAT INC.                                            20500
B0101413440000014245353VISATECH INTEGRATED CORPORATION                          1603
B0101413440000014245393AMA COMPUTER LEARNING CENTER OF                         11603
B0101413440000014245393CALOOCAN, INC.                                          21600
B0101413440000014245400AMA COMPUTER LEARNING CENTER OF BATANGAS                11603
B0101413440000014245400CITY, INC.                                              21600
B0101413440000018280481ACLC COLLEGE OF SAN PABLO, INC.                          1603
B0101413440000018793010SUMO TAKOYAKI INC.                                       1601
A0101413440000011417393MENDOZA, CECILIA AZUCENA PINEDA                          0501
A0101413990000018479759NICOLAS, ELAINE ROSE OR                                 10501
A0101413990000018479759PATRIZIA OR MARGARET                                    20500
A0101413990000006768616ALA, ROY B. DBU RBA TRUCKING                            10506
A0101413990000006768616SERVICES                                                20500
A0101410300000016641753SANTILICES, MA. CHACHA SALONGA                           0502
A1301400210000012445204PASCUAL,MELCHIZEDECK DBU SSEVEN                         10501
A1301400210000012445204CONTACT SOLUTIONS                                       20500
A1301400340683367953001FELLO, ROSEMARIE RODIL OR                               10503
A1301400340683367953001FELLO, BISMARK C                                        20500
A1301400340000001415598TILA, REAGAN CRUZ OR TILA,                              10502
A1301400340000001415598JACQUELINE ONG                                          20500
A1301400500000018936282FERNANDEZ, RUDY VAJIO                                    0501
A1301400500000018934651MACARAIG HAULING SERVICES                                0501
A1301400500000011254509REINA KATRINA A. CASTRO                                  0501
A0101408240711449303001MORALES, PEARL MERCEDES ARCACHE                          0501
A0101408240711509341001MANESE, CLARENCE OR MANESE,                             10501
A0101408240711509341001EDUARDO OR MANESE,SHIRLEY                               20500
A4101400260000018926339PUNZALAN, DYONNE DARYL YASE                              0501
A4101400260812468473002BIANAN, RODNER AYUKIL                                    0502
A4101400420814520766027ARUTA, CORAZON G.                                        0501
A4101400550000018537363VASQUEZ, LOURDES AVILA                                   0501
A4101400550815048121001IGNACIO, ELLEN JOY TRINIDAD                              0501
B0101412340850821100608**********                                               2002
A0101404840000006364918FALCON, JAIME NAVARRO DBU SAHIG                          0501
A0101404840851210994001LIGAYA P. GASCON OR                                     10502
A0101404840851210994001MARIA LOVELY DEL                                        20500
A0101404840851520766092VIOLETA G BERMAS                                         0503
A0101405070861197518001RICARDO G. CHAN OR                                      10504
A0101405070861197518001OLIMPIA C. CHAN                                         20500
A0101405070000015207980EMMA MELCHOR MANUEL                                      0501
A0101405070000006006086OLIMPIA CALUGAY CHAN                                     0503
A0601400230000017863820VICENCIO, VERGEL MACAPAGAL                              10503
A0601400230000017863820OR VICENCIO, PAUL JOHN                                  20500
A0601400230000003015823ALURA, JIMMY SUENO                                      10502
A0601400230000003015823OR ALURA, MERLE                                         20500
A0601400230000017015593MACASPAC, GLAIZA MALONZO                                 0501
B0601400230000015978413ALPHA INSURANCE & SURETY COMPANY INC                     1604
B06014002300000036448207R FINANCE CORP.                                         1610
