A1701400230000008555380PATINO, DAISY PINKY TUMAMAO                              0501
A0101402350321530494001CHRISTINE PEARL P. LIM                                   0501
A1701400230693478374044CECILIA CORRALES                                         0501
A3001400130000000931208BENDIJO, AMELITO MONDEJA OR                             10501
A3001400130000000931208BENDIJO, ERLEN A                                        20500
A3001400130000002063441JONGKO, JOSE MARI MARCO OR                              10502
A3001400130000002063441JONGKO, DEBORAH                                         20500
A0101407690000018495055ROQUE, MARIE EILEEN ABRENA DBU                          10501
A0101407690000018495055RUNDERACE ENTERPRISE JT                                 20500
B0101407270000013845571TRI-ROME 888 SECURITY & INVESTIGATION                   11601
B0101407270000013845571AGENCY CORP.                                            21600
A0301400530193736895001VALMONTE, ADRIAN DELA CRUZ                               0501
B0301400660000013311083GARDENSTATE ENTERPRISES, INC.                            1610
B0301400660000003368461IMAGE AUTOMOBILES GENERAL SANTOS, INC.                   1605
A0301400660194606143002ANGCOS, ROEL ONGCOY                                      0502
B0301400660000013311090ARCHE O. DUMAYAS, ALJEAN A. ADLAON &                    11601
B0301400660000013311090ROWENA DE LOYOLA                                        21600
A3101400160000018541023SALIVA, ZARINA MAY CAPUA                                 0501
A0101408400000014838367TABO, AGNES ALEJANDRO                                    0501
B0101408950000000036848ST. LUKE'S MEDICAL CENTER (GLOBAL CITY)                 11602
B0101408950000000036848EMPLOYEES ASSOC                                         21600
A0101407690000000913600MARQUI AUTO SUPPLY                                       0502
A0101400860000017478874DE MESA, DEXTER VALDEAVILLA                              0503
A0101400860011236212001**********                                               0501
B0101400860011374845003**********                                               1602
A0101400860011377555003**********                                               0501
A0101400860011743392001Moa, James Philip King or Moa,                          10502
A0101400860011743392001Aileen Grace Liao                                       20500
A0101401250021184135001MITRA, LAARNI RIVERA OR                                 10503
A0101401250021184135001MITRA, JOHN ERIK                                        20500
A0101401250021476357001CATHERINE GO UY                                          0502
A0101400150000000053023ARZAGA, RACHELL DE LEON                                  0501
B0101400150000001708425INTELUCK CORPORATION                                     1603
A0101400150000011138326KING, HENRY RIVERA DBU                                  10502
A0101400150000011138326HKCOM REALTY                                            20500
B0101400150061028364002UNICAPITAL INC.                                          1605
B0101400150000014636263SB RENTAL CORPORATION                                    1603
B0101400150000007599151ESTATEWINE INC.                                          1602
A0601400100000005050300NARCISO, BENJAMIN GANZON                                 0501
A0601400100000016176493LUCAS, RICHARD ECAL DBU LUCAS C                          0501
A0601400100081251939002ELIZARDO OR WILMA MARTINEZ                               0502
A0601400100081254011001PANLILIO, MARIE CARMEN OR                               10501
A0601400100081254011001PANLILIO, AUGUST                                        20500
A0601400360000013863788SINAMBAN, JUAN CARLOS QUIZON                             0501
B0101414090000018580675FAN, SHA SHA DBU SHA SHA FAN TRADING                     1601
A0101413150000011778240CO, CATHERINE DY                                         0502
A0101413310000001073869BARRETTO, DARWIN MANDAC OR                              10502
A0101413310000001073869PIMENTEL, AIZELL                                        20500
A0101413310000018368502DEL PUERTO, JERICHO MAPA                                 0501
A0101413310000018564497SANTOS, JOHN JERVY SANTOS                                0501
A0101401830000001281910DE GUZMAN, CONCEPCION FRANCISCO                          0501
A0101412920000008813281MANLOGON, TWILA MAE C                                    0501
A0101400440000010744642KAM, LOIS KIMBERLY VELASCO                               0502
A0101400440000000060200LANIE C. BALISONG                                        0502
A0101400440161045289001RAPTURE CAFE' BAR                                        0503
A0101407270000001596810CHARL LESTER E. QUIJANO                                  0504
A0101407270000015617731LEE, JOVENTINO LIONGSON                                  0502
A0101407270000015585052BASCONCILLO, MARINO JUMARITO                             0501
B0101407270162019026001RAMCAR TECHNOLOGY, INCORPORATED                          1605
A0101407270162333006022REYNALDO E. OCAMPO                                       0501
A0101407270000014296978CONANAN, TERESITA DE VERA                                0502
A0101401090171536816001STEPHANIE C. REYES                                       0501
A0301400530000012016890LUSDOC, ARNOLD LINGCONG                                  0501
B0301400530000017761021PROTACIO, ELVISCLINT M. DBU H.A.E. ARCHI                11601
B0301400530000017761021TECTS & ENGINEER                                        21600
B0301400530000016200843METRO GEAR CONSTRUCTION CORPORATION                      1610
B0301400530000000025378D' UNIBUENAS CORPORATION                                 1603
A0301400530193584721168YANG, CHAOWEI                                            0505
A0301400660000016080374SO, DOMINIC DEXON TE                                     0501
B0301400660194014152088*****                                                    1602
A0301400950000016514533GUIRGEN, KATHREEN CLAVECILLAS                            0501
A0101401380000018277353VISTAN, MIRIAM BITANGCOR                                 0502
A0101413020000003055405AVO-AIR ENGINEERING SERVICES                             0502
A0101410720000002284051BARTOLOME JR., ENRIQUE ROASA                             0502
A0101410720000017581198UY, DENNIS JORDAN MACABUHAY                              0502
A0101410720210570600001DELA CRUZ, ASSHLEY UY DBU                               10502
A0101410720210570600001JAMINIC ENTERPRISES                                     20500
A0101412500000016510973ABADILLA-MOLDEZ, EMILE-JOYCE                            10501
A0101412500000016510973VALENZUELA                                              20500
A0101413600000012980491SHARON ROSE R. MORTEL                                    0502
A3101400160000017090574BORNILLA, MICHAEL TORRES OR                             10501
A3101400160000017090574BORNILLA, MARICEL E.                                    20500
A3101400160221724137001ALICIA P MANAIG                                          0501
A3101400450223693052001FERRER, PAMELA PIA OR MELVIN                            10508
A3101400450223693052001JOHN OR AUSTRIA,                                        20500
A3101400870000018579863AGSEN, LEXIE CHENG                                       0501
A3001400130000010506424CALLET JR., ROMEO CATARINO ABEL                          0502
A3001400130230478374004BALABA, JANETH BORJA                                     0501
A3001400130000017011562ZERRUDO, GILBERT BARBOZA                                 0501
B1001400190000002170816WILLIAM CHAI CHUA OR MARIE KHRISTINE                    11606
B1001400190000002170816CHAN CHUA                                               21600
A1001400190231520766019GO, JUDITH SATURNO                                       0501
B1001400350233037895001CEBU SOUTHERN MOTORS, INC.                               1605
A1001400350233478374001JUNIO, ROGELIA A.                                        0501
A1301400470000011839760PAULINA C. PASCUAL OR                                   10501
A1301400470000011839760RODRIGO F. GAOAT                                        20500
A1301400760000017221011JEFFERSON N. LOREZCO OR SHIRLEY                         10501
A1301400760000017221011D. LOREZCO                                              20500
A0101401670000011364515HERNANDEZ, JACINTO GABRIEL ROND                          0502
A0101406460000001231554WEE, AUDREY ANN SY OR                                   10503
A0101406460000001231554WEE JR., CESAR L                                        20500
B0101406620273033463001ARL BUSINESS CONSULTANCY, INC.                           1602
A0101411820000004981773ABAYGAR, MA. CARMELA LIPA                                0504
A0101400570281423865002RIBAYA, VICTORIA CABRERA                                 0502
A0501400200000009556681BALILA, CYNTHIA SALAZAR                                  0502
A0501400200000005137188GANANCIAL,SHERLYN DBU MAX GEL E                         10501
A0501400200000005137188LECTRONICS SERVICE CENTER                               20500
A0501400200000011150277LANDICHO, MILAGROS DAYAG OR                             10503
A0501400200000011150277TINARIPE, JESSE LOPEZ                                   20500
B0501400200000006444824C SQUARED PRIME COMMODITIES CORPORATION                  1602
A1101400120000003197288FLORO M. CAMENFORTE JR.                                  0505
A6601400120000013899206CHAN, LITO TAMBANGAN                                     0504
B2001400290000007832484DUNNE OFFSHORE HOLDINGS, INC.                            1601
B0101402350000000046108ABSOLUTE INDUSTRIAL SOLUTIONS, INC.                      1606
A0101405650322355180002MOHAMMAD, TEMUJIN H.                                     0501
A0101405650322400866001LEVISTE, PANCHO M. OR                                   10502
A0101405650322400866001LEVISTE, EDITHA                                         20500
B0101402510341030386001OLIAND HAUTE COUTURE, INC.                               1601
A0101402510341622026001ALER III, DIOSDADO MARTINEZ                              0501
A0101402060351009359003JIANDANI, SURESH G. OR                                  10501
A0101402060351009359003JIANDANI KAVITA                                         20500
A0201400760000002309622RICARDO, DEANNA SALMERON                                 0501
A0201400760000013874650DIHIANSAN, WILLIAM JUANTONG                              0501
A0201400920000009575164GERALDINE P. ARNAIZ OR                                  10502
A0201400920000009575164RAMONITO F. CATAMCO                                     20500
A0201400920375316580001LIM, PERRY TAN                                           0502
B0201400890000018495191ALLIANZ INTERNATIONAL MACHINERY &                       11601
B0201400890000018495191TRADING CORP.                                           21600
A0101408370000017511507SANTIAGO, MARGARET MA. DIONISIO                          0501
A0101408790000013824443GODES, MARY ANN ROMERO                                   0501
A0101415350000007075723LAGAAC, CARLO                                            0501
A0101402770391355762035NOEMI GERLIE G. RIO                                      0501
B0101405490000011681628*****                                                    1602
A0101408400000001835150YU, CHUNHUA                                              0503
A0101408400000007905839VILLAR, CHRISTOPHER BUENO                                0502
A0101408400394162700001FLORES, CATHERINE DOMINGO                                0503
A0101408950000016905090MANAPSAL, WATCHMAN ENOMAR                                0502
A0101409180000018035133ESTOR, PERCIVAL ONA                                      0501
B0101409180000009085183SWOOP INC.                                               1603
A0301400820000005991893ASLIAN, DELIA N.                                         0501
B5501400120410041754001KENDRICK PETRON STATION                                  1602
B5501400120410042731001KENDRICK MANPOWER, ENGINEERING                          11602
B5501400120410042731001ALLIED SERVICES                                         21600
A5501400120000005492322TUMAMPIL, TYRON VON BUSTAMANTE                           0502
A5501400120410688656001PAEZ, RYAN ELEGINO                                       0501
B2401400180411014550001GSC PROGRESSIVE MULTI-PURPOSE COOP.                      1604
B2401400180000000019747DYNAMIC TEAM, INC.                                       1610
A1201400150000018054690DELIZO, JEANETTE TINA FLORENDO                           0501
A1201400150421200676001MAULBECKER, HEINRICH                                     0501
A1201400150421253624001GUANZON, ALICE D. OR                                    10506
A1201400150421253624001GUANZON, DELFINO                                        20500
A5101400100000010371370ABA, LEILANI JOY DULCE                                   0502
B0101403030441336479001DY, FELIX ANG OR DY, ELGIN COR OR DY,                   11603
B0101403030441336479001PAMELA ANNE CO                                          21600
A0101412890000007095356PARILLAS JR., ROGELIO REYES                              0501
A0101412890000012474010GAN, EDEN ANGELI UY                                      0501
B0101403320471008879002GOLDWIN MANUFACTURING                                   11605
B0101403320471008879002LABORATORIES                                            21600
B0101403320471042942001SUPREMEBIKE CENTER                                       1601
A0101406330000014145176MADRID, PETER ANTHONY GILBOY                             0502
A0101406330472372718001PRISCILA BADELLES                                        0502
A0101406330472460738003MA. SUSAN P. MORA                                        0501
A0501400170481043466001RUSKIN MARKETING                                         0505
A0501400170481059315001ABAOAG, MAGELINE DBU M.K.A                              10503
A0501400170481059315001INSURANCE SERVIC                                        20500
A1901400320000018580135ANDULTE, DUVAL OTURA                                     0501
A3801400170000012459171DUKA, ALLAN QUINTO OR                                   10501
A3801400170000012459171DUKA, LEZIEL DELOS REYES                                20500
B1401400110492041160001SAN DIEGO BUILDERS                                       1602
B1401400110000005945457POWERPHIL HR NETWORKS, INC.                              1602
A1401400110492581940001VELUZ, FRITZCHE GAMBOA                                   0502
A1601400170000015678514VELASCO, MELANIE BARRAMEDA                               0501
B0101407430503006843001PACIFIC SHIPPING AND DISTRIBUTION INC.                   1605
B0101403580511042786001MTM PARTNERS & CO.                                       1602
B0101403580000007864331ASIA SOCIETY PHILIPPINE FOUNDATION,                      1603
A0101403580511289190002SERAFICO PLACER OR VERNIE BUNO                          10510
A0101403580511289190002OR GREZILDA DENSING                                     20500
B0101405940512038848001JADE ENTERTAINMENT AND GAMING                           11603
B0101405940512038848001TECHNOLOGIES,INC                                        21600
A0101405940512597822001HERNANDEZ, ANTONIO PENGSON                               0503
A0101408530000018564908FABIANO, JEMALYN RECTO                                   0501
B0101403450521011662002SUNTRA INT'L TRADING CORPORATION                         1602
B0101403450000002975677SAFEWAY CUSTOMS BROKERAGE, INC.                          1605
B0101403450000002975666CYBORG LEASING CORP.                                     1605
A0101403450000001769840VIZMANOS, JANINE BAUTISTA DBU                           10501
A0101403450000001769840JCTK                                                    20500
A0101403610000016246230MAPUSAO, KENNY MALEJANA OR                              10503
A0101403610000016246230MAPUSAO, ROSALIN                                        20500
A2201400250000015111376EDWIN C. CANLAS                                          0503
A2201400250000015111490RUEL ANTONIO RIVERA TINIO                                0501
A2201400250000012982931IGNACIO, IRINE ALMORADO DBU SUP                          0502
A2201400250000001066073JCP AND 3 SONS TRADING CO.                               0502
A0101404130601756004001TENIDO, ROLDAN SUMILANG                                  0504
A0101407720000015736300ZHANG, TENG                                              0501
A0101407720602166062001FRANCISCO T. AGUSTIN, JR.                                0503
A0101407720000000112089RAMOS, JENNIFER GALAPIN                                  0501
A0101404260611005236004WILTRON ELECTRONICS                                      0502
B0101404260000000550412GOLDLAND HOTEL CONCEPTS INC.                             1605
A0101407690000018233513MENDOZA, JOY MARIE BALBALOSA                             0501
A0101407690000018233520MANALO, REYMUNDO RODRIGUEZ                               0501
A0101407690000010774651ROYONG, ROSEMARY DADIVAS DBU MC                          0502
A0101407690652520766022ELVIE GALENDEZ - DEALERS OF                             10501
A0101407690652520766022SHOECAT INC.                                            20500
A0101407690000001919786GINA C URIAN - DEALERS OF                               10503
A0101407690000001919786SHOECAT INC.                                            20500
A0101413440000006680700MARIANO IV, JORGE BARTOLOME                              0502
A0101413570000000635632MARY GRACE P. MONTESA                                    0501
A0101413990000018030154ADECER, DIONISIO ERFE                                    0501
A0101413990000015743178MPBL ENTERPRISES                                         0502
B0101414120000007655367RIX INTEGRATED CO., INC.                                 1603
A0101414120000005252831GERALD JOSEPH B. GALVEZ                                  0501
A1301400500000011254361KE, JINZENG                                              0502
A1301400500000015587292MARY JANE SIOJO ENTERPRISES                              0502
B1301400500000018570175CHEF AYB'S HERBAL TEA                                    1601
B1301400500000003071923PILIPINAS DEVELOPMENT CORPORATION                        1602
A1701400230000014314153SANTOS, JULIUS CO OR SANTOS,                            10504
A1701400230000014314153MARY RUSSEL MANDAC                                      20500
B0101408240000003501464BAUTISTA, MA. ROSARIO PILAR AND BAUTISTA                11601
B0101408240000003501464ALFREDO                                                 21600
A2801400100000000004720REYES, MYRA DBU MRC DENTAL                              10501
A2801400100000000004720CLINIC                                                  20500
A2801400230000001782130GOLDEN STATE ALUMINUM GLASS &                           10505
A2801400230000001782130GENERAL MERCHAND                                        20500
A4101400260812035863001GREAT CAVITENO TRADING                                   0502
A4101400260000009533564ESTOCADO, EDITHA JARDINIANO                              0505
A4101400390813298552015NECENA N. TOLEDO                                         0502
A4101400550000006044691VILLADOLID, JOSE SANJORJO                                0501
A4101400550000010508788ANION, JUDIELYN BACALSO                                  0501
A4101400550815478374008LORELYN C. PARCIA                                        0502
B0101412340000002879932EUROASIATIC PHILIPPINES INC.                             1602
A0101404840000010224561OLAER, RUTHCHEL                                          0501
A0101404840851478374062VIOLITA V. GIDUCOS                                       0502
A0601400230000018571798SANTOS, CARMINA DBU HENRY'S                             10501
A0601400230000018571798LIQUOR HOUSE OR SANTOS, K                               20500
