B1901400290261821100608**********                                               2005
A1101400120000006080902CHUA, ROMMEL DY OR CHUA, MARY                           10502
A1101400120000006080902CAROLINE OR CHUA, GERALD                                20500
A0101414120000006864511CO, OFELIA QUITO                                         0501
B0101414120000004603398WEBLEND INC.                                             1601
A0301400530000002318481PALMA, JUNE CRIS MEDIOS                                  0502
B0301400790000000040917EURO HYDRO POWER (ASIA) HOLDINGS,                       11603
B0301400790000000040917INC.                                                    21600
A1101400120000000652744CANEDA, MARLON JOSEPH ESCARAN                            0502
A0101401250000002289956BELGA, ROGER G. OR                                      10501
A0101401250000002289956BELGA, JISAHRELL                                        20500
A0101401250000004374630GANZON, MARITES M.                                       0501
A0101401250000007121400JC DAIS PERFUME REFILLING                               10501
A0101401250000007121400STATION                                                 20500
A0101400150000002902718TOLENTINO, ROMEL TUCAY                                   0501
B0101400150061036320001IPM CONSTRUCTION & DEVELOPMENT CORP                      1610
B0101400600071033025001TECHTRON SYSTEMS CORP.                                   1601
A0101400600071295528002********                                                 0501
A0101400600071684249001******                                                   0503
A0601400100000002072680MARCOS, DULCE FORTO                                      0503
A0101413730000000469147PROLINE PLASTIC CO.                                      0502
A0101410850109055290001TAN, M DBU UBERSEE MARKETING                            10501
A0101410850109055290001INT'L                                                   20500
B0101410850109821100608**********                                               2003
A0101400730000005208811CABUAL, EVELYN FERNANDEZ                                 0501
A0101400730000001697174CATERON, NANCY SADIWA                                    0501
A0101406040000002272460********                                                 0502
A0101406040112094295001********                                                 0501
A0101401960121298123001LAILA BURABOD CAY                                        0501
A0101412630000004062064BANZUELA, ELEANOR ADORNA                                 0502
A0101400440000004901542REBULLIDA, GERARD LOUIE NELLE                            0504
B0101400440000003766956KS PRIME FINANCIAL CORP.                                 1603
A0101407270162331908046EVANGELISTA, LENORE P.                                   0501
A0101407270162542118001MARISSA DV. BAUTISTA OR                                 10501
A0101407270162542118001SANDY M. BAUTIST                                        20500
A0101407270162607219001KAREN K. LI OR EUGENE Y. LI                              0502
A0101401090171195893001DR. RICARDO AGBAYANI                                     0501
A0301400530000001009994PADAYHAG, WINNIE L.                                      0502
B0301400660194794155077*****                                                    1605
A0301400790000001010682ASTILLO, EDGAR AGTON                                     0501
B0301400790000002301342MONTEVERDE II, GEORGE MENDEZ DBU GV & HH                11601
B0301400790000002301342MARKETING                                               21600
B0301400950000000566887CHRISMA TRAVEL AND TOURS, INC.                           1602
A0101410720000002283930LADIA, APRIL IRIS RUPIDO                                 0504
A3101400160000001792156MANUEL P REMPILLO                                        0501
A3101400160221220343001LAARNI A. CALAPATIA                                      0502
A3001400130230520766002CALLANGA, JEGER                                          0501
A3001400130230767566064BALAHAY, ETHEL OCULARES                                  0501
B1001400190231029291001JAMESON CONSTRUCTION SUPPLY                              1610
A1001400190231274559001SY, MAN CHAK                                             0501
A1001400190000002170656AMELINA E. FACTURA                                       0501
A1301400470000003270471MARIA CELINA DJ. SIMON                                   0501
B0101401670000004588478SUNDAY TRANSPORT SVCS,. INC.                             1601
A0101406460272548275001SUNGA, PETER EDWIN JAO OR                               10504
A0101406460272548275001SY JR., MARCIANO                                        20500
B0101406620273018522001VALYERMO TRADING CORPORATION                             1601
B0101406620273041414001GANO I-TOUCH PHILIPPINES INCORPORATED                    1605
B0101406620000000015005CARPIO & BELLO LAW OFFICES                               1601
A0101400570000006240262RAMOS, ALFIE ALAGANO                                     0501
B0101400570000000031687PHILIPPINE DERMATOLOGICAL SOCIETY, INC.                  1601
A0101400570281388539056ROMEO RYDYL M. OBSUM JR.                                 0502
A0101400570281422071001DRA. ELSIE B. PASCUA                                     0502
A2601400270000003510829SHIRLEY G. PUA OR JUSTIN SEAN                           10502
A2601400270000003510829G. PUA                                                  20500
B0801400160311494221001JUCABAN, LEO LAGOS                                       1601
A1101400120000002254899OBENA, ROSEMARIE GIL OPRIASA                             0502
A1101400120000000065110BOLECHE, CLARA GACUTAN                                   0502
A1101400120000006186616GALO, TERESITA E.                                        0502
B6601400120314041984001SAMNEST FOOD CORPORATION                                 1603
B6601400120314665528001**********                                               1601
A0101402350000003880444PAZZIBUGAN, GEMMA DOMINGO                                0501
B0101402350321020540001UMEREZ PROPERTIES                                        1603
A0101402350321406149003********                                                 0502
B0101402510341008564001SAN BEDA COLLEGE ALUMNI ASSOCIATION                      1602
B0101402510341020561002PHILIPPINE PHARMACISTS ASSOCIATION                       1602
A0101402510341204113001INOCENCIO, ADELAIDA RIPALDA                              0501
A0101409050000007511953SYED, NANCY MANEJA                                       0501
B0101409050352212676001LIAMZON, MA. ANTONIA/FRANCISCO/FRANCIS                  11601
B0101409050352212676001KEVIN/CATHERINE                                         21600
A0201400920375770629001GOMEZ, CHRISTOPHER BAYLON                                0501
A0201400890000005196341LASTIMOSA, PERLITA ESPIDILLA                             0510
B0101408790383063205001SIMPLY TRUE WELLNESS CENTER                              1601
B0101402770391038856001SUBURBAN HEIGHTS HOMEOWNERS ASSOCIATION,                11608
B0101402770391038856001INC.                                                    21600
A0101408400394063196001CHAVEZ, NOLI MALLARI                                     0501
A0101408400394063196002SAURO JR., ELDIGARDO  ANGELES                            0501
A0101408400394160344001CALMA, ALFREDO MATAGA                                    0506
A0101408400394412577001REYES, EMMANUEL JOHN JOCSON OR                          10502
A0101408400394412577001REYES, MARY GRAC                                        20500
A0101408400394478374024DIONISIO, CRISTITA P.                                    0501
A0101408400394642089001MAQUILING, ELLEN TAMIO                                   0501
A0101409210000005251923TRIAS, AGNES DE JESUS                                    0502
A5501400120000002949633VILLORENTE, GRACIANO DBU SOLID                          10505
A5501400120000002949633ROCK CONSTRUCTIO                                        20500
A5501400120000006976596FIGUEROA, RONELLYN BILLONES DBU                          0510
B5501400120410654342008SAY, CLETO OR FELING OR HELEN OR DANNY                   1610
A5501400120410705630001DIZON, LEANDRO ADOR ANDRES                               0503
A2401400180000003949140UY, RUBING SIOCO                                         0502
B2401400180411033064001P.G. ANG AND SONS, INCORPORATED                          1610
A2401400180411059128001ELZANO ENTERPRISE                                        0502
A2401400180000005536563GUINTO, ANNA CORINNA ASTURIAS                            0506
B0101403030000005944669**********                                               1602
A0101403030441043810001CORE SOURCE TRADING                                      0504
B0101403030000000531382***********                                              1602
A0101403030441590302001**********                                               0503
A0101412890000000371453DOLERA, PERLA DE GRACIA                                  0501
A0101403320471189593001LEVISTE, DIONISIA JAYECTIN OR                           10501
A0101403320471189593001SANTIAGO T. LEVISTE                                     20500
A1901400320000002295941VICENTE BERNARDO V MAYO JR                               0501
B3801400170000000018777ANTONIO CATIBOG II OR ZENAIDA CATIBOG OR                11605
B3801400170000000018777HAZELYN ACEDERA                                         21600
A3801400170000000497912HOSPICIO I LAYGO JR.                                     0501
B1901400160491018232001AMA COMPUTER COLLEGE -BATANGAS CITY                      1605
A1401400110000005526752DE SILVA, RENILDA TORIO                                  0501
A1401400110492455411001BELEN, ROSEMARIE SABATER                                 0504
A0101407430503041466001AFCSI-ASIA FREIGHT FORWARDERS                            0502
B0101407430000001213170BN VIEL TRANSPORT & LOGISTICS INC.                       1601
A0101407430000005358545VICENTE PAUL G. LEJANO JR                                0501
A0101407430503369731001LILIBETH M. ARCEGA OR                                   10501
A0101407430503369731001PATRICIO M. ARCEGA                                      20500
A0101406880000000745000MENDOZA, MARIA THERESA VILLAREA                          0503
A0101406880000000511048***************                                          0501
A0101406880000001286619TONOG, JO LEO G. OR TONOG,                              10502
A0101406880000001286619CLARE BIANCA V.                                         20500
B0101406880513038002001JEFCON INCORPORATED                                      1602
A0101408110000004868960DELA CRUZ, MONACARLA VELOSO                              0502
A0101408110000007498120ATIENZA, ALFREDO CASA DBU                               10502
A0101408110000007498120A.P.S. ENGINEERING                                      20500
A0101411790000002276086LOZANO, CARLITO CULASI                                   0501
A0101411790518055764289MANALOTO, JOHN MANUEL MARTINEZ                           0501
B0101403450521164891001***********                                              1601
A0101403450521238092002**********                                               0501
A0101403450521238178001**********                                               0502
A0101403450521238232001**********                                               0501
A0101403450521239867001**********                                               0503
A0101403450521341597001**********                                               0502
B0101404000551063101001SYSTEM TECHNIK MACHINERIES AND PRODUCTS                 11603
B0101404000551063101001CORP.                                                   21600
B0101404000551063197001VILLAFLOR, IRENE A DBU IRVIL ENTERPRISES                 1601
A2201400250000003558070VIRGINIA G. ROBLES OR ROBERTO                           10502
A2201400250000003558070G. ROBLES                                               20500
A2201400250561258530021WILSON S. TOLENTINO                                      0501
A2201400250561359017005ELEONOR B. GALLARDO                                      0501
B0101404130000000001270GAME CRAFT, INC.                                         1602
A0101407720602381963001KASILAG, EMMANUEL R.                                     0501
B0101404260611028921001KICEM TRADERS AND CO. INC.                               1610
A0101409920000000118590CARDENAS, CAROL SALUNA                                   0501
A0101409920000001951862MEMBERS OF NATASHA (SHOECAT INC                         10502
A0101409920000001951862MONTALBO, JASMIN                                        20500
A0101411530000006217483**********                                               0501
A0101413440000003298173MACANAS, MA. LINDA ADVINCULA                             0503
A0101413990000006278124ENCINARES, ROVILYN RODRIGUEZ                             0501
A0101413990000006768581NEBRIA, ESTER P. DBU BUTTER-NUT                         10503
A0101413990000006768581BAKESHOP                                                20500
B0101414120000004603412VALOR HEALTH PHARMA INC.                                 1602
B1301400210000005041007***                                                      1602
B1301400340683045643001JOURNEY ELITE MOVER'S CORPORATION                        1602
A1301400340000006402400DENNIS TRUCKING SERVICES                                 0510
A1301400340000006402444PRINZ DENNIS TRUCKING SERVICES                           0502
B3201400190694821100608**********                                               2002
B3201400190694821100608**********                                               2003
B0101408240711032925025DLSZ (DE LA SALLE SANTIAGO ZOBEL SCHOOL)                 1602
A0101408240711374374001NAPOLEON OR JULIETA                                     10501
A0101408240711374374001OR BARBARA ANN COMA                                     20500
A4101400260000006042917MANALO, JEFFERSON S. DBU J.S. M                          0501
A0101412340000005837221FRANCIS REGGIENAL A. BASILIO                             0501
A0101412340000006046915MA. PRIMADONA F. NARIO                                   0501
A0101412340000003345468CHRISTOPHER Q. PRUDENCIO                                 0502
A0101412340000004360143SHEILA MARIE Y. SERAFICA                                 0501
B0101404840851013980002VIC IMPERIAL APPLIANCE CORP.                             1601
A0101405070000003439683PANINGBATAN, MARIA APRIL L DBU                          10501
A0101405070000003439683MAKI BELA TRUCKI                                        20500
A0101405070861530813001ELOISA A. RAMOS                                          0502
