B0101402060351821100608**********                                               2005
B0101407720602821100608**********                                               2005
A1101400120000001920667CAMENFORTE, NEIL M. OR                                  10501
A1101400120000001920667CAMENFORTE, ELKE                                        20500
A1101400120000003981215LIM, RICHARD YAP                                         0502
B1901400160491012578001NEMARIANS CREDIT CORPORATION                             1603
A1901400160491069610001M.C.C.D. ENGINEERING SERVICES                           10501
A1901400160491069610001& TRADING                                               20500
B0101412920160022330002S.M. CASTRO MANAGEMENT & CONSTRUCTION                   11602
B0101412920160022330002SERVICES                                                21600
B1101400120000000065132STARLITE GLASS AND ALUMINUM SUPPLY                       1603
A1101400120313535537001COLLERA, LEONOR M. OR                                   10504
A1101400120313535537001COLLERA JR., AGU                                        20500
A5501400120000011599401BACONGCO, TERESITA CASTRONUEVO                           0502
A5501400120000009875803FERNANDEZ, JACQUILINE GETANO                             0502
A0101400860011035923001**********                                               0502
A0101400860011483998001*******                                                  0503
A0101400860011693273001*************                                            0503
A0101400150000000807170FRAGANTE, SOCORRO PROTACIO                               0501
A0101400150000003218259MARIANETTE C. SUYAT                                      0501
B0101400150061010833001VELCA TRAVEL & TOURS, INC.                               1602
B0101400150000001708663MDR MANAGEMENT PARTNERS INC                              1602
A0101400150061337098023RONALDO PALAGANAS                                        0501
A0101400150000001422257ANDREWS, PAUL WILLIAM AVECILLA                          10501
A0101400150000001422257ANDREWS, SUZETTE                                        20500
A0101405810072405603001**************                                           0502
B0601400100081023450002INNOVATRONIX INC.                                        1601
A0601400520000009516781CUENCO, RACQUEL BACSAN DBU BCC                          10503
A0601400520000009516781CONCRETE BLOCKS                                         20500
A0101413730000007317291************                                             0502
A0101400730111382955001PRADO, EDWARDO BAARDE                                    0502
A0101400730111520766061BERNADETT BALUTOC                                        0502
A0101401960000004419750WEE, JOHANNE DBU VALLEY ROCK EN                          0503
A0101401960121552708001************                                             0501
B0101412630000000024091FALCON, LUISITO MONTALVO                                 1601
A0101413310000005433125BRAVO JR., SIXTO AVILES                                  0501
A0101413310000010284807DY, CHRISTIAN OLIVER VILLARANDA                         10501
A0101413310000010284807OR DY, APRIL JOY SEVILLE                                20500
A0101401830141066684001GOMEZ, JINKY DBU SHEKHINAH                              10501
A0101401830141066684001DENTAL CLINIC JT                                        20500
A7201400170000003774356MACABUAC, DIVINA GRACIA FAJARDO                          0501
A5001400170000006294539TAN, LOLITO HEYRANA                                      0502
A0101412920000002359093CALING, MERIE KRIS CABRERA                               0502
A0101400440161538462001ROMEL A. ADDUCUL OR                                     10502
A0101400440161538462001JOCELYN C. COBAN                                        20500
A0101407270000004832673JULIUS CAESAR C. BABAO                                   0503
A0101401090000014235042BALOTRO-TORRES, MARIA CRISTINA                           0501
A0101401090171336336002IRENE P. EVANGELISTA                                     0501
A0301400530000010370593MABANGLO, ARTHUR GOROSPE                                 0503
A0301400530000005300361TIMBOL, MARILOU SUBALDO                                  0502
A0301400530000005691205BRIONES, MICHAEL BRYAN ANG                               0503
A0101401380000010190320TURINGAN, EVELYN TONOG                                   0501
A0101412500000014239619ESCAT, DIOMAR MANALAYSAY                                 0501
A3101400160000014143870OBLEA, PORTIA TOLENTINO                                  0501
A3101400160000014143909MARASIGAN, KHRISTINE ANNE L.                             0501
A3101400160000014143910NOBLE, AVIGAIL DE VERA                                   0501
A3101400450000003072539AZORES, NANILO CABELA OR                                10501
A3101400450000003072539SAHAGUN, ANGELITO                                       20500
A3101400450000014205408PADUA, KERWIN VILLENA OR                                10501
A3101400450000014205408ARZADON, MARY JANE PADUA                                20500
A3101400870000014222509PASCUA, CRYSTEL ANN CAPUA                                0501
A3001400130000008916149DUAY, MARLOWE T. OR DUAY, WILDE                         10501
A3001400130000008916149LIZA T.                                                 20500
A1001400190231525462002OCIONES, CRISTINA TERESA MORENO                          0502
A1001400350000012928133GOLDEN APPAREL PRINTING &                               10503
A1001400350000012928133EMBROIDERY                                              20500
A1001400480000010131776ROSALES, WHITNEY SAQUIN                                  0502
A1001400480000014148262PASTRANO, JUDSON MABAYLAN                                0501
A1001400480000014185947SUSAS, NOLI GUTIB                                        0501
A1001400480000014187323GO, FREDERICK BUENAFLOR                                  0501
A1001400480000014198662ARCAINA, CHARLOTTE JOY SAING                             0501
A1301400470000011839742MERL RODRIGUEZ SEBASTIAN                                 0501
B1301400470000000009561FUND LINK CREDIT & LOANS, INC.                           1602
A1301400760000002346163YACAT, ANDREW ANGLO                                      0502
A1301400760000008699023JENNIFER ENCARNACION TOLENTIONO                          0501
A1901400290261488341002DANILO B. VERGARA                                        0501
B0101406620273016438001LAMCO INTERNATIONAL TRADING CO., INC.                    1601
B0101406620000000194012LAMCO INTERNATIONAL TRADING CO., INC                     1601
A0101406620273026212001JRICO TRADE INVESTMENT                                   0503
A0101406620000000193840TAN, APRIL LYNN LEE                                      0501
A0101408660000000034222BERNARD YAO OR WINNIE YAO                                0501
A0101400570000004624140PASCUAL, EDGARDO JR CALANOC                              0501
A0801400160311468085001QUE, JUDITH DAN OR                                      10502
A0801400160311468085001QUE, BRIAN GERAR                                        20500
B6601400120314612845001LOMAGDONG, PETER OR TANG, PATRI                         11603
B6601400120314612845001LOMAGDONG, JOYCE                                        21600
A6601400120314646593001CUI, ETHEL TAN                                           0501
A3401400280000001723440EDUQUE, JESSIE ECARAN OR EDUQUE                         10502
A3401400280000001723440RUELYN CAPUNONG                                         20500
A3401400280000006791235ELECHICON III, ALFREDO SIA                               0502
A0101402350321184494001ESTELLA, FLORANTE                                        0501
A0101402350321406560001DELA CRUZ, AMYLYNE B.                                    0502
B0101402350321738079001OLIVAREZ GENERAL HOSPITAL INC.                           1610
B0101405650322045513001INTERCHEMEX LABORATORIES INC.                            1602
A0101405650322154163002BABASA, ZENAIDA ROXAS                                    0501
B0101402510341008057002CENTRO ESCOLAR UNIVERSITY RESEARCH &                    11602
B0101402510341008057002DEVELOPMENT FDN                                         21600
B0101402510341008057003CENTRO ESCOLAR UNIVERSITY RESEARCH                       1602
B0101402060351029932002ROTARY CLUB OF PASIG EAST                                1604
B0101402060000010846661NUTECH SOFTWARE DEVELOPMENT INC.                         1602
A0101402060351378841002ANGELES, JOSE AMADO RAYMUNDO                             0501
A0101402060351414987003NOBLE, FELICISIMA CASANOVA                               0502
A0101402060351773032001FERRER, ROSE ELLAINE FIDELINO                            0501
A0101409050000002971384RESULLAR, ALLEN CURAY                                    0501
A0101409050000001353213*****                                                    0503
A0201400890376080642001GALANG, LORLIE PACURIBOT OR                             10505
A0201400890376080642001GALANG, GLENN AN                                        20500
A0101402930000000859770METT MOTIVATIONAL ENGLISH                               10502
A0101402930000000859770TRAINING                                                20500
B0101402930000005646153ENGAGE MEDIA MAVEN INC.                                  1604
A0101402930000003710603RAMOS, MARIE GRACE BADUA                                 0502
A0101408370000010833177NAVALTA, MICHAEL EDWARD ARELLAN                          0501
A0101408370382454758001DR. MARCIA V. CALUPITAN                                  0504
A0101408400000001952843BARTE, ANJELICA SORIA                                    0501
A0101408400394337327003DIONISIO, LOLITA OLAZO                                   0501
A0101408950396572239001PUYAT, MARIA LUISA TICZON                                0505
A0101409180000009769282TODA, ANNALEE JOYCE CABAUATAN                            0501
B0101409180397043819001VALUE ADVERTISING                                        1602
B0101409180397670520001CASAEUROPA INC.                                          1604
A5501400120000001121719ONG, DANIEL STEVEN OR                                   10506
A5501400120000001121719YU, MARICA ARMIN                                        20500
A5501400120000002019056ONG, DANIEL STEVEN DY                                    0503
B5501400120410041377001PEOPLE'S GENERAL MERCHANDISE                             1605
B2401400180411035164001MOMMY GINA TUNA RESOURCES (MGTR), INC.                   1610
A2401400180000007031756********                                                 0501
B2401400180411277077001GENSAN SHIPYARD & MACHINE WORKS INC                      1605
B1201400150000012099935AOYONG, DOMINIC CHENG                                    1601
B0101412890000000125380CHRIST'S COMMISSION FOUNDATION, INC                      1601
A1901400160491039660001I & E INDUSTRIAL SYSTEMS                                10501
A1901400160491039660001SERVICES INC                                            20500
A1401400110000013957258REYES, ISADORA GOB                                       0501
B1401400110000001095905BOMEL CONSTRUCTION, SUPPLY AND                          11603
B1401400110000001095905DEVELOPMENT CORP                                        21600
A1401400110492543449001ACEITUNA, MYRNA CANZON                                   0502
A1601400170000000497569MARISSA A. ARCANGEL                                      0501
A1601400170000012471011DE VERA, JEZZALEN DIZON                                  0502
B1601400170000000036024HI-TONE CONSTRUCTION AND DEVELOPMENT                    11610
B1601400170000000036024CORPORATION                                             21600
A1601400170494083045001YONZON, KATHERINE BRONDIAL                               0502
B0101407430503006865001AIRTROPOLIS CONSOLIDATORS PHILS. INC.                    1620
B0101407430503015295001PC SUPPLIES, INC.                                        1601
A0101407430503184785001PATRICIA Q. AUSTRIA                                      0502
B0101403580511005406001SHINRYO (PHILIPPINES) COMPANY INC.                       1605
A0101405940000001209972AMURAO, SHIELA CRUZ                                      0501
A0101405940000009248039QUIJANO, MELINDA ADECER                                  0501
A0101405940512025796001ROGUES RENDEZVOUZ                                        0505
A0101405940512543803001ROXAS, HELEN CHAN OR                                    10510
A0101405940512543803001ROXAS, LINCOLN C                                        20500
A0101408530516571877165KIMMY P. SO                                              0501
B0101403450521011872001**********                                               1601
B0101403450521012075001**********                                               1610
B0101403450521015337001**********                                               1610
A0101403610531047978001TIMONES, ALPHA PINTACASI                                10505
A0101403610531047978001DBU JAZKY BUILDE                                        20500
A0101403610531301329001BUNA, YOLANDA CHUA TE                                    0501
A2201400250000010425311*******                                                  0501
A2201400250000006275749BARBIN, MARESH CASTILLO                                  0501
A2201400250561088535001CHRISTOPHER JORDAN L. CHUA                               0502
A2201400250561484428001WILSON LAO SIO OR                                       10502
A2201400250561484428001EDUARD LAO SIO                                          20500
A0101404130000009342605MALAPIT, MARIA MAGDALENA SORIA                           0501
A0101407720000004664933MAGSAJO, MARITES CALINGASAN                              0502
A0101407720602328663002********                                                 0502
A0101412180000010395047JANG, KICHUL                                             0502
B0101404260611022505002SEAA CORPORATION                                         1603
A0101404260611040956001POWER ZONE ELECTRICAL SERVICES                           0501
A0101404260000007498288DE GUZMAN, MARILOU GREGORIO                              0501
A0101404260000000532056REGINA C ALTO                                            0501
A0101409920650478374011MELFLOR M. SILVINO                                      10501
A0101409920650478374011MEMBERS OF NATASHA                                      20500
A0101407690000010774600STA. MARIA, MARIO PATRICK ISIDE                          0501
A0101407690652647252001VALDEZ, RAFAEL MEJIA                                     0501
A0101414120000012536139VILLALON, ERIBERTO SALVADOR                              0502
B0101414120000000399100LPA AND PARTNERS CO.                                     1601
A0101406590000005305037SULLERA, CHARMAINE MOJARES                               0501
A1301400340683004662001MANARANG, ARNEL LOZADA DBU                              10501
A1301400340683004662001DOLORES GARMENTS                                        20500
A1701400230000005694062LOPEZ, BENJAMIN REYES                                    0501
A0101408240000003955419UYAMI, NESIE DELA CRUZ                                   0502
B2801400100712015381001PHIL-PAN SUBIC VENTURES INC.                             1601
A2801400230000005752310LASTRADO, LARRY MENCHATE                                 0501
A4101400390000003389479NELSON Q. REMULLA DBU                                   10504
A4101400390000003389479V.N.R CONSTRUCTION                                      20500
A4101400390813519725001ETHEL T. CLAMOR                                          0501
A4101400420814520766117ARAO, CONSORCIA L.                                       0501
A4101400550000000981682REMULLA, DOLORES SANTIAGO                                0501
A41014005508150438550013RD GEN FUEL STATION                                     0501
A0101412340000010006592MELISSA T. TABLATE                                       0502
A0101412340000013183125KATHERINE T. SANGALANG                                   0501
A0101412340000003438442ANCHETA, RUEL JARME                                      0501
B0101412340000002879998ROMTECH CONSTRUCTION INC.                                1602
B0101412340000002880000ROMTECH CONSTRUCTION INC.                                1602
A0101404840000004565953RODULFO, CLARIVEL M.                                     0501
A0101404840851520766163JOCELYN ANONUEVO                                         0501
A0101405070000000260119DALISAY, NAZARENO S.OR                                  10501
A0101405070000000260119DALISAY, FLORDELIZA E.                                  20500
B0101405070000014234425CARSEVA LENDING CORP.                                    1601
A0101405070861027133001WORLDLINKS CABLE WORKS                                   0502
A0101405070861478374086MARLYN C. GABEST                                         0501
A0101413860000000145020DASIGAN, ANGELITA GONZALES                               0501
A0601400230000002650171SANTOS, K DBU ADRICH ENTERPRISE                         10502
A0601400230000002650171OR SANTOS, CARMI                                        20500
