B0101408950396821100608**********                                               2010
A0101400440000008201170ESCONDE, NERISSA GUNDAYA                                 0501
A6601400120000005710463GALLANO, HELDA LIM                                       0501
B6601400120314040235001VILLEGAS APPLIANCE & HOME FURNISHING INC                 1602
A0101415350000008010437KALINGKING, GRACITA ISABEL                              10501
A0101415350000008010437VILLARMIA                                               20500
A0101403320000001646926CLIDORO, GERDIE BARCELON                                 0501
A0101403320471560880001REYNALDO JAMERO SANTIAGO JR.                            10501
A0101403320471560880001OR JOCELYN V. SANTIAGO                                  20500
B0101403580000000214695MEC - SONRIA                                             1602
A0101403580000005961931VERA, RUFIA DOROTHY C.                                   0505
A0101404840000000683461BALMES, GERVACIO FRAGO                                   0502
A0101400860000008319346*********                                                0501
A0101400860011541134002**********                                               0502
A0101400860011568203001**********                                               0505
A0101400860011742046001**********                                               0503
A0101401250000011296872RIVERA, CORAZON SIA OR                                  10501
A0101401250000011296872RIVERA JR., LEONCIO LAYUG                               20500
A0101401250021334915002BLANQUISCO, NICARDO PALCES OR                           10501
A0101401250021334915002BILON, ERWIN BLANQUISCO                                 20500
A0101411370000005524410BALBIN, CHARY ADAJAR OR LOPEZ,                          10501
A0101411370000005524410RAMONCITO LASACA                                        20500
A0101400150000005015605DURAN, DULCE JASMIN BAO                                  0501
A0101400150000009400511IBON, RAYMOND JOSEPH RAPADA                              0501
B0101400150000004703371REXEL SECURITY SERVICES CO.                              1602
B0101400150061484242001NORTH NEGROS BIOPOWER INC.                               1603
B0101400150061542521001SAN CARLOS BIOPOWER INC.                                 1603
B0101400150061735126001SOUTH NEGROS BIOPOWER, INC.                              1603
B0101400600071233610002**********                                               1630
B0101400600071325133001**********                                               1602
B0101400600000005943080********                                                 1602
B0101405810000000016811SK PLASTIC RELIANCE COMPANY                              1603
A0101410850000013601502DIZON JR., CONRADO QUIAMBAO                              0503
A0101410560000001944174ROWENA PADILLA FRANCIA                                   0501
B0101400730111024044002CREDITNET PHILIPPINES INCORPORATED                       1605
A0101406040000010081493YU, ARLENE KING                                          0501
B0101406040000000014791IMPERIAL NOVA CORP.                                      1601
B0101412630132058436001SPACE EDSA CORPORATION                                   1602
B0101401830141020262001********                                                 1605
A0101401830000001281910DE GUZMAN, CONCEPCION FRANCISCO                          0501
A7201400170000006487518ARANDING, LIZA MEDADO                                    0502
A5001400170000006294506ALANO, RENO TEE OR                                      10502
A5001400170000006294506ALANO, YVETTE HELEN EGUIA                               20500
A0101412920000005354252PEDRON, ALEXANDER ERICSON LUGTU                          0502
B0101400440161007336002EXECUTIVE GENESIS MANPOWER SERVICES INC.                 1605
B0101400440161027726002GEOTECH MERCANTILE CORPORATION                           1602
B0101400440161037389001GREAT WAY HARDWARE                                       1602
A0101400440161525001174RIZALYN V. GUNTANG                                       0503
A0101400440161679888004QUE, MARTINIANO DE JESUS                                 0501
A0101401090171198513001CORAZON DE CASTRO TAN                                    0501
A0101401090171351928001KONRAD AGUILA OR                                        10503
A0101401090171351928001MA. ROSARIO G. AGUILA                                   20500
A0301400530193047254189TAGUM TRIO LUMBER CORP.                                  0510
A0301400790000005692173SIMON, DIOSEE GENTILES                                   0501
B0301400790000013578048DAVAO DREAM BUILDERS REALTY & SERVI                      1601
A0101401380000015062541YABUT II, RAMON GILBERTO                                10501
A0101401380000015062541PUNONGBAYAN                                             20500
A0101401380000001820002********                                                 0505
A0101410720000007843458SIO, RICKY CERNA                                         0501
A0101412500214654250001ARE, RALPH MATHEW ENERLAN                                0501
A0101413600000008442513MARIA ENA L. SABALO DBU SEALINE                         10502
A0101413600000008442513CATERING FOOD SERVICES                                  20500
A3101400450000001104112SY, MARVIN DAANTOS OR                                   10503
A3101400450000001104112SY, REMELIE ISIP                                        20500
A3101400450000013739734PASUMBAL, JANNETH MEDALLA                                0501
B3101400450223028468001NEW ARMSTRONG SECURITY AGENCY                            1601
A3101400450223028468001NEW ARMSTRONG SECURITY AGENCY                            0502
B3101400740000004509535MOLD PARTS MANUFACTURING ASIA INC.                       1605
A1001400190000005944578SARAUS, BAMBET SOGOC                                     0501
A1001400190231520766015CALUMBA, VICTOR ARQUITA                                  0501
B1001400350000007920876PEARSON, PILARCITA ROA AND  HEQUILAN,                   11602
B1001400350000007920876ELVIE CORTEZ                                            21600
A1001400350000012928053SY, AMY BO                                               0505
A1001400350000003867261SIA, RAMIL UAYAN                                         0501
A1001400350000008698899EBUNA, RALF JOSEPH MADRONERO                             0503
A1301400470000011839662**********                                               0502
B0101401670271045353001DETECTNET SECURITY CREDIT COOPERATIVE                    1602
A0101401670271333076001BENJAMIN C. VICENTE                                      0501
A0101406460000002330763BURGER, JEANNETTE ASSAD                                  0501
B0101406460272007487001FOODMACH, INC.                                           1604
A0101408660000002264837*******                                                  0501
A0101408660274595574001MORILLA, GAUDIOSA TENA                                   0501
B0101410980000006014660WEAVE SOLUTIONS INC                                      1601
B0101411820000003085094MEDINFINITY INC.                                         1602
A0101400570000013212412APALE, LEO NEIL LUAGUE                                   0501
B2601400270000012492472ERIKA RYNELL C. UY JT                                    1605
A2601400270302574301001ALEX UY TY                                               0501
B0801400160000005656982JUANTONG & SONS BUILDER CORP.                            1605
A6601400120000001370490GALIT, VERNIE GAZO DBU RVG                              10502
A6601400120000001370490DIGITAL PRINTING                                        20500
A6601400120000011286270GACUSAN, RAUL CORRAL DBU 8.3                            10502
A6601400120000011286270COMPUTER TECHNOLOGY                                     20500
A0101402350321179501002JUAN PUAN TIU & RICHARD ALVIAR                          10501
A0101402350321179501002& DANTE TIU                                             20500
A0101405650000003561204RAZON, ARMINIUS MALABANAN                                0501
A0101405650000000525820CHAM, DBU AQUAFAIRY PURIFIED                            10502
A0101405650000000525820WATER STATION                                           20500
A0101405650000001912027GUADIZ III, TEOFILO ESTRADA OR                          10505
A0101405650000001912027GUADIZ, GEORGINA R.                                     20500
A0101405650322522833001JIMENEZ, MARIA JEAN BREBONERIA                           0501
A0101402510000011748891ROQUE, RYAN CANON                                        0502
A0101402510341588910001JOPSON, JESSICA GEPOLIO                                  0502
B0101402060000006931913ASSURANT MANAGED SOLUTIONS INC.                          1602
A0101402060351349405002YAP, JAMES YU                                            0502
B0101409050000013167727CYBILLTEK SOFTWARE INC.                                  1607
A0101409050352049885002CABRERA, CARSWELL MENDOZA DBU T                          0505
B0201400760000007134341CLS PROPERTIES INC.                                      1603
A0201400760000008869845SOLON, ENRICO MENDOZA OR                                10501
A0201400760000008869845MEDINA, ADELE ME                                        20500
A0201400890000015383298DAPAC, MARK ANTHONY LIM                                  0501
A0101408370382416284001DR. BERNARDITA O. POLICARPIO OR                         10502
A0101408370382416284001DR. REUBEN D. POLICARPIO                                20500
A0101411660000003580363GILDA C VILLALON                                         0502
B0101411660000012458327B-MIRK ENTERPRISES CORPORATION                           1601
A0101415350000007877852PELAYO, JESCTONI TORRES                                  0503
A0101408950000015598831LIM, JON ENOS TE OR LIM, JAHAZI                         10501
A0101408950000015598831EL TIU                                                  20500
A0101408950396596036001REYES, KARL MICHAEL GUTIERREZ                            0501
A0101409180000003310163MAGLEO, ESTHER PAMPOLINA                                 0501
A0301400820000010907190TAN, ALEC JAY G.                                         0501
A5501400120000002019103PENDON, VENISE NICHOLE VILLOREN                          0505
A5501400120410616209008ANG, JOSEPH OR ANG, MA. LINDA                            0501
A2401400180000010066401MALANA, ZENIA CONGSON                                    0503
A0901400220000001805090**********                                               0501
A0901400220000001805090**********                                               0503
A5101400100000010834249PANIS, MICHELLE LARDIZABAL DBU                           0502
B0101403030441011894001REXSSEL AUTO PARTS CENTER                                1601
A0101412890000011812996TAN, ROBERT TABADA                                       0501
A0101412890000011812985SERAFIN, RHEGEL RAAGAS                                   0501
A0101403320000014340648MA. LOURDES S. FUENTES                                   0501
A0101406330472294535002DE VERA'S COMBINED SERVICES REF                         10506
A0101406330472294535002& AIRCON SPECIALIST                                     20500
A1901400320000002296006INHUMANG, EVARISTA BUTIC                                 0503
A1901400160000015580033DR. NICANOR B. MAALA                                     0501
A1901400160000015764299DR. ARNEL V. MUNOZ                                       0501
A1401400110000001549282CAMALIGAN, CHRISTIAN S. OR                              10501
A1401400110000001549282CAMALIGAN, CHERRY ANN                                   20500
A1401400110000015361932CABANGON, MADONNA MERCADO                                0501
B1401400110000000167457SUPER MAK FOOD CORPORATION                               1605
A1601400170000005991928PENASERADA, LEAH AMOROSO                                 0502
A0101407430000014992751ERICKA C. ILAGAN                                         0501
A0101405940000007540845MALIBIRAN, CARLA MARIE SILVERIO                          0501
A0101405940512313486001********                                                 0503
A0101405940512452748001GALAMGAM, GARETTE LOVELL T.                             10505
A0101405940512452748001OR JANE GALAMGAM                                        20500
A0101408530000014752402VICENTE, JAMIE ROSE MARCELO                              0501
A0101408530516629972001ESTACIO, DANIEL LLANTO                                   0502
A0101408530000006599855**************                                           0502
A0101403450000013091742TAN, VON BISMARCK LEONARDO                              10502
A0101403450000013091742OR TAN, VENERAND                                        20500
A0101403450521238268001**********                                               0502
B2201400250561041156008COLINTAN CORPORATION                                     1601
A2201400250561478374060MARIAN S. BANAAG                                        10501
A2201400250561478374060MEMBERS OF NATASHA                                      20500
A2201400250000003072153BRUCE DANIEL S. RIVERA OR                               10502
A2201400250000003072153GLOTHELDA S. RIVERA                                     20500
A0101407720000005100263CASTILLO, VICTOR REY GONZALES                            0501
A0101407720602396606001DR. WILMA A. BALTAZAR OR                                10501
A0101407720602396606001DR. EDGAR BALTAZAR                                      20500
A0101407720602398829001BELLOSILLO, ADOLFO BLANCO                                0502
A0101404260611041714001ALEJANDRO DRUG STORE                                     0502
B0101404260611043675001CIS BAYAD CENTER, INC.                                   1606
B0101404260000004781288DAIKINDO CONCEPTS, INC.                                  1603
A0101409920000001283410CHAVEZ, SARAH DBU SMC FURNITURE                          0505
A0101411530000006217574MOMMY & ME ENTERPRISES                                   0503
A0101413440000006680700MARIANO IV, JORGE BARTOLOME                              0501
A0101413570000005435241SALVADOR, ALVIN ROI ESCUDERO OR                         10502
A0101413570000005435241GONZALES, DANIEL                                        20500
A0101413570000005867430*******************                                      0502
B0101413990000015770473ROLDAN, FELICIANA OR ROY VINCENT OR                     11601
B0101413990000015770473MARIE KRISTINE                                          21600
B0101410300000005331624WINDWARD VENTURES INC.                                   1601
A1301400210000000540969ROWENA C DE SILVA                                        0501
A1301400210000005040577**********                                               0502
A1301400210000009982592PLACER JOURNEY TRAVEL AND                               10505
A1301400210000009982592TICKETING SERVIC                                        20500
A1301400340000002283850GIRASOL, JOVELYN HANGALAY                                0501
A1301400340000011813660ANGELES, CHRISTOPHER LUNARIA                            10501
A1301400340000011813660DBU DCA COMMERCIAL                                      20500
A0101408240000010148051TIBAYAN, KAREN PATRICIA NIDO                            10501
A0101408240000010148051OR TIBAYAN, MATT DAIMLER                                20500
A2801400230000001782083DE GUZMAN, LITO C. DBU D.G.L                            10501
A2801400230000001782083MOTOR WORKS & GEN. SERVIC                               20500
A4101400260000009533699BAYBAY, MICAH JANE DELOS SANTOS                          0502
A4101400260000001783968DOCTORS OF ASIA MEDIC FAMILY HO                          0501
A4101400260812632500001NUNEZA, MA. DELIA BARREN                                 0503
A4101400390000013407084EDWARD M. ARTITA                                         0501
A4101400390813478374014ELIZABETH V. EVAL                                        0502
A4101400420000011952044BORROMEO, LUISA CECILIA C DBU                           10502
A4101400420000011952044METRODERM AESTHE                                        20500
A4101400550000013890736VERGARA, JULYSSE MARK ABAIGAR                            0501
A0101412340000003908601GENERALISMA B. OBREGON                                   0502
A0101404840851217637007MARILYN N. SANCHEZ                                       0501
A0101404840851217637007MARILYN N. SANCHEZ                                       0501
A0101404840851478374153EUGENIA C. DOMINGO                                       0502
A0101406750852478374002TERESITA LIWANAG                                         0501
A0101406750852534985002CONCHE, NELIA OCLOS                                      0501
A0101405070861579475001SY, MICHAEL TIU                                          0501
