A1701400230693759519001ALBANO, FRANCISCO WILFRED V.                             0501
A1701400230000010357445BARTOLOME, ROMEO MATEO                                   0501
A0101410560000002316558LAGASCA, CHERIELYN                                       0501
A0101400440161376144001ESTRELLA B. CUMAGON                                      0501
A0101400440161520766116GLENDA M. CAMPILLANOS                                    0501
A1901400290261490189003CARLO JOSE V FUENTEBELLA                                10502
A1901400290261490189003WALTER A DIMAYUGA                                       20500
A0101410300000000026462SYCIP,JOHN CARLOS/BANTIGUE,JOHN                         10510
A0101410300000000026462PAUL/ESQUIVIAS,J                                        20500
A0101406750000005666873MABINI, ALEXANDER PIMENTEL                               0501
A0101400860000005312798**********                                               0502
B0101400860011400685002**********                                               1602
A0101400860011443455002**********                                               0505
B0101400860011570928001**********                                               1601
A0101400150000000253278GELANO, ANGELO RECTO                                     0501
A0101400150000003162643NIKKI ANN E. BAUTISTA                                    0501
A0101400150000003163948CHRISTEN FAITH C. CRUZ                                   0502
A0101400150000003141562KHEMLANI, JANICA JACINTO OR                             10501
A0101400150000003141562BRIONGOS, BEN RE                                        20500
B0101400150061016942006ASIA PACIFIC EXPRESS CORPORATION                         1605
B0101400150061037111001PHILNICO PROCESSING CORPORATION                          1605
B0101400150000004703406YENOM DEVELOPMENT CORPORATION                            1601
B0101400150061226857001ARL MARITIME SERVICES INC.                               1603
A0101400600000008914956********                                                 0505
A0101405810072043273001***************                                          0501
A0101405810072236007001*****************                                        0501
A0601400100000007253945TANGLAO, CARMELO DE LEON DBU ME                          0501
B0601400100081251835004TORRES, ROBERT/MARY ANNE/ROBERT JR. AND                 11605
B0601400100081251835004ONG, JONATHAN                                           21600
A0601400520000005943702IMPACT BALIBAGO ARTS AND CRAFTS                          0502
A0101410850000008264011ALHABAHBEH, FEDILA OSTING                                0505
A0101410850000000472439MENDOZA, NESTOR PATRICIO DBU                            10502
A0101410850000000472439SOUTHERN PHILIPPINE TRUCK                               20500
A0101410560000005280553ARANO, MA. RHEA MARTILLANO                               0501
A0101410560000005836035MELY A. DELMENDO                                         0501
A0101413310000000863963CONCEPCION, MICHAEL JOSEPH G.OR                         10501
A0101413310000000863963CONCEPCION, JACQ                                        20500
B0101401830141037933001MABRINIC INC.                                            1601
B0101401830000005577984BILLONES, MARIE ANN DISONGLO DBU                        11602
B0101401830000005577984LEVONTECH ENT.                                          21600
A0101401830141206435001EMMA G. CHUA                                             0502
A0101401830141306724003GUEVARRA JR., ANTONIO PASCUAL                            0502
A0101401830141498188001TESORO, JOSEPH SILVA                                     0501
A7201400170000003773120ASUGAS, GRACE MARIE NARCISO                              0501
A7201400170000006695972VIRATA, JOSEPHINE NAPAO                                  0501
B7201400170152004320001PROXIM-A INTERNATIONAL, INC.                             1603
A0101400440000000821414MARY ANTONETTE APIT-ESCOBER                              0501
B0101400440161007221001ILA EXPRESS HAULER                                       1602
A0101400440161525001103OFELIA B. OLERMO                                         0501
B0101407270162061497001GRAND TAIPAN LAND DEVELOPMENT INC.                       1605
B0101401090171008010001UST COMMUNITY                                            1605
A0101401090171153125001MARIA CRISTINA S. AQUINO OR                             10501
A0101401090171153125001ROMEL F. AQUINO                                         20500
A0101401090171196046001DRS. RAMON OR STEPHANIE                                 10506
A0101401090171196046001JAVIER                                                  20500
A0101401090171196285002SISON, LILIAN DE JESUS                                   0502
A0101401090000007525615ONG, JAEZAMIE VIRAY OR                                  10502
A0101401090000007525615ONG, JEFFERSON CUA                                      20500
A0101401090171399403001JOHN JOSEPH T. FERNANDEZ                                 0505
B0301400530000000279501LU, HARRY POLINA DBU 828 MINIMART                        1601
B0301400530193038358001GREAT J OASIS LENDING INCORPORATED                       1601
B0301400660000006755082MALPORTS, INC.                                           1601
A0101401380201171279001TSAI, ROBERT                                             0501
A0101410720000009157057JABONALLA, NERLYN HERMOGINO                              0501
A0101410720653579026001PROLOGO, JORDAN CAMINO                                   0502
B3101400160221224862001JOYME ROCKSCAPES CORPORATION                             1602
A1001400190231520766015CALUMBA, VICTOR ARQUITA                                  0501
A1001400350233528399003KO, JOSE NELSON AND                                     10502
A1001400350233528399003KO, CHARMAINE                                           20500
A1301400470252045619001GOLEM ENTERPRISES                                        0508
A1301400760000008698957TORRES, BERNARD PACHECO                                  0502
B1901400290261035198002MVL PROPERTIES, INC                                      1601
A1901400290261047618002EMMA CHAVEZ PINE                                         0502
B0101401670271041791002A PI SQUARE KINDER SCHOOL INC.                           1607
A0101401670271298552001EPPIE P. ORTEGA                                          0501
A0101401670271333076001BENJAMIN C. VICENTE                                      0501
A0101401670271366231001LEE, GEOFFREY CHENG                                     10501
A0101401670271366231001OR LEE, JEANNIE                                         20500
A0101401670271482067001DANILA, LOURDES RUBIN                                    0501
A0101401670271776354001GONZALEZ, CONSUELO DE BORJA                             10502
A0101401670271776354001OR MARK ANTHONY GONZALEZ                                20500
A0101406620273371455002BAUTISTA, NIKOS JIMENEZ OR                              10504
A0101406620273371455002DAYAG, SEGUNDO B                                        20500
B0101411110276046201001MEDIA WORLD, INC.                                        1605
A0101400570000006271872AMPIL II, ISAAC DAVID ESGUERRA                           0505
B0101400570281030526001TAPEMASTER MARKETING                                     1601
A0501400200000009556669PASAG, ENGELBERT CALIMLIM                                0502
A0801400160311267054001JAMORA III, JUAN JOSE OR                                10510
A0801400160311267054001VERONICA JAMORA                                         20500
A0801400160311478374039LEONORA J. ESFORMA                                       0501
B0101402350321046288001TMI FOOD PROCESSING & DEV. INC.                          1602
A0101402350321331009001SIANY P. PADURA                                          0502
B0101405650322019221003ROTARY CLUB OF PARANAQUE METRO                           1601
B0101405650322023605001FELIZ, INC.                                              1603
A0101405650322334988002HIRANO, SHIELA MARIE YUJUICO                             0501
B0101402510341069271001CHERRY BERRY FLOWERS AND DECOR INC.                      1602
A0101402510341196517001BENJAMIN M. TANCIO OR                                   10504
A0101402510341196517001MARIEDIOS M. TAN                                        20500
A0101402060351377158001CALIZON JR., MOISES VILLACORTE                           0501
A0101409050000000939351SINGH, JEFFREY BEJASA                                    0501
B0101409050352043845001COLLEGE OF ARTS & SCIENCES OF ASIA & THE                11605
B0101409050352043845001PACIFIC (PASIG)                                         21600
B0101409050000006319326COLLEGE OF ARTS & SCIENCES OF ASIA & THE                11602
B0101409050000006319326PACIFIC (PASIG)                                         21600
A0201400890376596470001**********                                               0501
A0201401020000000056040SUMAGANG, JAIME ESCABAS                                  0502
A0101408370382507231001DR. HELEN GRACE I. ORJALO                                0501
A0101408790000010684956DAMACION, ROMUALDO PAET                                  0501
A0101415350000008028335CALIBUT JR., MARY DEANNE                                10502
A0101415350000008028335CORDOVA                                                 20500
B0101402770000001571626BEARING CENTER & MACHINERY, INC.                         1601
A0101405490000000232511MICHSJA MOPET MAY C. FELIX                               0502
A0101408400394468610001HIDALGO, JOY CORAZON LORENZO OR                         10501
A0101408400394468610001HIDALGO, JAIME F                                        20500
A0101408400394712542001SERRANO JR., ERNESTO AGLER                               0506
A0101409180000012290794JOABAN, PAUL ARNEL DAIZ                                  0501
A0101409180000012291013UNIDAD, CESAR SARANGAY                                   0501
B0301400820000001554792VIC IMPERIAL APPLIANCE CORP.                             1601
A0301400820000004746101FAMACION, RAMSEY DBU JARED SUIT                         10502
A0301400820000004746101ES OR FAMACION, BEULAH                                  20500
A0301400820000002106343CAMPOSANO, SIVERLYN                                      0501
A2401400180411623776001SAUBAN, MARIA LUISA BANDIOLA                             0503
B1201400150421025695001PRINTING AND PUBLISHING MULTI-PURPOSE                   11601
B1201400150421025695001COOPERATIVE                                             21600
B1201400150421025695002PRINTERS N PUBLISHERS SERVICE                           11601
B1201400150421025695002COOPERATIVE                                             21600
B0901400220432043565001CASA CANELAR PENSION                                     1602
B0901400220000000012324SPECIALIST MOTORCYCLE PARTS &                           11610
B0901400220000000012324ACCESSORIES, INC                                        21600
A0901400220000001805049**********                                               0510
A0101403030441239106001**********                                               0501
B0101406330472008313001SHOECAT, INC.                                            1605
A0101406330000000011763CO, KRISELINE JEAN DY                                    0501
A1901400160000009054973FRANCIA, MARIA FATIMA TAN                                0503
B1901400160491046052001BANAPRA DEVELOPMENT COOPERATIVE                          1603
B1901400160491249313001BEEPER LENDING CORPORATION                               1601
A1401400110000012265571AYALA JR., FELIX SANTOS                                  0501
A1401400110492090259001JIMENEZ, ROSEMARIE FLORES                                0501
A1401400110492444354001************                                             0502
A1401400110492493108001DEQUITO, BERNABE VILLANUEVA                              0502
A0701400260000003259374**********                                               0501
B0101403580511038113001MACEDA VALENCIA & CO.                                    1605
A0101403580511482747001PAOLO ANTONIO LOPEZ AZURIN                               0501
A0101405940000005359771**********                                               0502
B0101405940512020338001ANGEL LEIAIEL EXPRESS INT'L INC                          1605
B0101405940512038518001FUJI-HAYA INTERNATIONAL CORPORATION                      1601
B0101405940512041188001PREMIUM WINE EXCHANGE INC.                               1601
A0101405940512293252008GONZALES, NEAL JOSE ORTIZ                                0501
B0101411400517047442001ABC ELITE INC.                                           1601
A0101411790000010729423BALIUAG, RITO BIMBO OR BALIUAG,                         10502
A0101411790000010729423MARY JOYCE                                              20500
A2201400250000002337982DURIMAN, ERLINDA BALINGIT                                0501
A2201400250000007122749RICARDO Y. DIMARUCOT DBU R.Y.                           10502
A2201400250000007122749DIMARUCOT ENTERPRISES                                   20500
A2201400250561253789001MELIZA TRACY G. FLORES                                   0501
B0101407720602022964001DEPARTMENT OF SURGERY                                    1602
A0101404260611158307002GALICIA, CONSOLACION OR RAFAEL                          10501
A0101404260611158307002OR FELIZARDO OR                                         20500
A0101404260611478374078SUPERAL, CORAZON                                         0502
B0101413570000009426193UNIVERSAL SIMBA DISTRIBUTION CORP.                       1601
A0101413990000006278099PERALTA, ANGELO MENDOZA                                  0502
A0101414120000006005425BRIONES, MARIA LUZ GENIZA                                0501
A0101406590662528331001PRAGO, MARIA VICTORIA FADERANGA                          0501
A0101406590000005305191QUE, MARTINIANO DE JESUS                                 0501
A0101410300000003290140LACHICA, MARGARET GERTRUDE FERR                          0501
B1301400210000005040942ACTIVE MEDIA DESIGNS & PRINTING                          1601
A1301400340000005264973MARCOS, MARVIN CUALA                                     0501
A1301400500000000213265VINCENT P. JAVIER OR TERESITA                           10510
A1301400500000000213265F. JAVIER                                               20500
A1301400500000000213203QUIAMBAO, VICTOR FABIAN                                  0501
A1301400500684614643001PANGILINAN, PETRONILA G. OR                             10501
A1301400500684614643001PANGILINAN, RAMON C.                                    20500
A0101408240000008160161QUINONES, C DBU CGQ MACHINE                             10501
A0101408240000008160161SHOP                                                    20500
A2801400100000005494215OLIVA, REMEGILDA BELTRAN                                 0501
B2801400100712018855002PTT PHILIPPINES TRADING CORP.                            1605
A2801400100000003116714ISAGANI C. CABRERA                                       0502
A4101400260812714892001CAUSING, JEUNESSE CYRILLE OR                            10502
A4101400260812714892001CAUSING, MELVIN                                         20500
B4101400260812821100608**********                                               2005
A4101400390000012266023QINGXIAN HONG                                            0501
B4101400390000012294763ROGELIO B. TABANAO AND DELIA G. TABANAO                  1601
A4101400420000000710103JARIN, MARIA FE SAPINOSO                                 0502
A4101400420814520766108ESPANOLA, MERELY C.                                      0502
A4101400550815047780001TIUSECO, MICHAEL MANUEL RUSTIA                           0502
A4101400550815730023001PUTI, ELIZABETH SOTTO                                    0501
A0101412340000003719540EM-EM V. SANCHEZ                                         0501
A0101412340000004360616ARTURO C. TOLENTINO                                      0501
B0101404840000006365142TRIMOTORS TECHNOLOGY CORP.                               1602
A0101404840851281035001NELLIE M. LAW &/OR                                      10503
A0101404840851281035001HERMINIO T. LAW                                         20500
A0101404840851415679001AMORES, ROSEMARIE B.                                     0502
A0601400230000010702922NUYLES JR., FLORENCIO ESGUERRA                           0501
B0601400230891252526001AGNES MAY P. DE JESUS                                    1601
A0601400230000002310092PARAFINA, LORENZA ALIPIO                                 0501
