F1001400350000000017063MSU-IIT NMPC CARMEN-CDO BR.                              2602CKR
F0601400360083040826001SG ECO INDUSTRIES INC.                                   2602CKR
F0101413600000002822722GPRS - UNIFIED PRODUCTS AND                             12602CK1
F0101413600000002822722SERVICES INC.                                           22600CK1
F1001400350000000017063MSU-IIT NMPC CARMEN-CDO BR.                              2602CKR
F0101408530516226243001PABLO P. PAULINO                                         2502CKO
F0101410690000000001850COLOR1DIGITAL, INC.                                      2603CKR
