A0201400760000001612926ALVIN SANDOVAL & FEDERICO II &                          10503
A0201400760000001612926NICOLASA ABELLANA                                       20500
A6601400120000001065270ECHALUCE, FRANCISCO CHIN                                 0503
B6601400120314043068001NEW ECONOMY HARDWARE AND ELECTRICAL                     11602
B6601400120314043068001SUPPLY                                                  21600
A0101409210000004736072TABIB, YEHIEL                                            0501
B0101401250021013681001P.J. LHUILLIER, INC.                                     1605
A0101401250000004980532MACOCO, CRISTOPHER MAGBANUA DBU                         10502
A0101401250000004980532CMM ACCOUNTING SERVICES                                 20500
A0101400150000003157902LAURA ARMAS BAUI                                         0502
A0101400150000003164069JENIS G. DE VELA                                         0501
A0101400150000003601141FANDINO, NATHANIEL ROSS OR                              10502
A0101400150000003601141FANDINO, MARGARITA ANNA                                 20500
A0101400150000007445298TAN, JANTZEN                                             0501
A0101400150000000807396ROWENA N. ROYO                                           0501
A0101400150061357581001ALBERTO S. VILLAROSA OR                                 10504
A0101400150061357581001MA. THERESA G. VILLAROSA                                20500
A0101400150061463996001ALMEDA, ROSA ELENA BARRERA                               0501
A0101400150061671519001BUHAY, TELESFORO BERNAL AND                             10501
A0101400150061671519001ARIGO, MYRA NOCH                                        20500
A0101405810072393833001**********                                               0501
A0101405810072475435003LOURDES L. CRUZ                                          0503
A0601400100000001442808BERNARDO, LILIAN VILLAPANA                               0503
A0601400100081086512001CAPUTOL, MA. JENNIFER PECJO                              0502
A0101413280000002317682**********                                               0502
B0101413730000000144705*******************                                      1601
B0101413730000005959795******                                                   1605
B0101414090000002244662THINKSCAPE RESEARCH SERVICES INC.                        1602
A0101400730000001016540DEL ROSARIO, ANGELICA RAMIREZ                            0501
A0101401960121238700001**********                                               0510
A0101412630000002040613SIOSON, IRINEO PICITO                                    0501
A0101412630000004062086BANZUELA, ELEANOR ADORNA                                 0503
A0101400440161525001159MARITES P. MONTALBAN                                     0502
B0101407270162039491001UMALAG FARMS, INC.                                       1603
B0101401090171063018001CLYDE KRENT CO.                                          1602
A0301400530000003088082SAMAR, REMEGIO ESPANO                                    0502
A0301400530000002318561VILLANUEVA, FEDERICO MAGPAYO OR                         10501
A0301400530000002318561VILLANUEVA, MARI                                        20500
A0301400530000003573357*****                                                    0503
A0301400530000005691181DONOR, JULIE TRABUCON                                    0501
B0301400950000002116001JINZAI IKUSEI LANGUAGE AND BUSINESS                     11601
B0301400950000002116001SOLUTIONS, INC.                                         21600
A0101401380201500598001CARREON, DAISY FONG                                      0501
A0101413020000003055369JCBC ENTERPRISES                                         0502
B0101410720000000030031CONGRESIONAL RESIDENCES DEVELOPMENT                      1602
A0101410720653505147001****                                                     0501
A0101413600000004661461JOPET C. ENCARNACION                                     0501
A3101400450223271858001COSICO, NINEVETCH BELEN                                  0501
B3001400130000001271523BERRYL DRUG CORP.                                        1601
A3001400130000005446340BALANGA, MARIO FERNANDEZ                                 0501
A3001400130230796142001TANO, MERLINA RAGAS                                      0501
A1001400190000000124712GALMAN, JAMEL BALABA                                    10502
A1001400190000000124712OR GALMAN, MARIA                                        20500
A1001400190231061482001MAGSAYO, ALLAN CASTRO DBU                               10501
A1001400190231061482001SCORPION SACKS M                                        20500
A1001400190231478374086LORNA A. OMANDAM                                         0502
A1001400190231520766125YANA, MAYFLOR DAGOC                                      0501
A1001400350233478374020ELMA O. GAWAT                                            0501
B0101410980000000171997FUNTOURS TRAVEL CORPORATION                              1601
A0101412470000002295907PALANCA, NORMA QUIRINO                                   0502
A0501400200000006445081LUSTINA, CHARITO E. DBU LUCKY                           10502
A0501400200000006445081STAR LUMBER, HARDWARE                                   20500
A0801400160311478374093AMELIA H. TAYCO                                          0501
A6601400120314044682001QUINNREEVE'S MOTORCYCLE PARTS                            0502
B0101402350321016640001ST LAWRENCE ACADEMY                                      1601
B0101402510341055539002AIO FX TRADE INC.                                        1601
B0101402060351009544002RI CHEMICAL CORPORATION                                  1602
B0101409050000000258531HENDERSON BLAKE BUSINESS SOLUTIONS,                      1602
A0201400760374078269001REYES, LESLIE ANN ALMEDA                                 0501
A0201400890376272044001LEE, JOSEPH KENNETH GUEVARRA OR                         10504
A0201400890376272044001LEE, MA. CARMEN                                         20500
B0201401020000000005078COMMONWEALTH INSURANCE COMPANY                           1602
B0101402930000000623396BENMARK GROUP HOLDINGS, INC.                             1601
A0101408370382453740001DR. RAYNALD EDLIN P. TORRES                              0506
A0101408370000000586049RAMOS-ATIENZA, MICHELLE E.                               0502
A0101411660000000489378SOMOBAY, PEPE POLINAR LADE                               0501
A0101411660000003580363GILDA C VILLALON                                         0501
A0101408400394478374094NUNEZ, GENIE                                             0501
B0101409180397041229001****                                                     1603
A0101409210398047601001LAMONTE, E DBU YOB AND ERIN                             10501
A0101409210398047601001GLASS ENTERPRISE                                        20500
A2401400180000000826164LAUTENGCO JR., PAULINO VENERACI                          0501
B2401400180000000019769WILL & JOE AGGREGATES, INC.                              1605
A2401400180411275346001GILMOORE O. ALIAN                                        0501
A1201400150421039385001JL'S CLEAN UP JANITORIAL &                              10503
A1201400150421039385001MANPOWER SERVICE                                        20500
A0101403030441707375001**********                                               0502
A0101412890000001056206GERONIMO, ANNABELLE ELEANOR LIM                         10502
A0101412890000001056206OR GERONIMO, MARLON                                     20500
A0101412890000002324192*************                                            0503
A0101412890000005944910FLORES, MARIA AISSA ONG                                  0503
A0101412890000004345113RDCU FURNITURES                                          0501
A0101412890470083434001FELIX VOLTAIRE P LERIO II OR                            10501
A0101412890470083434001NONA D LERIO                                            20500
A0101403320000000067565DE CASTRO, RENIEL DBU                                   10501
A0101403320000000067565E+DC ARQUITECTOS                                        20500
A1901400160000006632328PETRONILO MANALO MENDOZA                                 0501
B1401400110000003475661QUEEN MARGARETTE HOTEL, INC.                             1610
A1401400110492478374010BACULI, TERESA D.                                        0504
A1401400110492621336001MOISES, JESSIE LOSAURO                                   0501
A0701400260000003259421SISON III, ANTHONY FRANCIS ABRE                          0501
A0701400260000003259432ZAMORA, JULIUS SOPENA                                    0503
A0101405940000005068213JOCELYN C. CO                                            0501
A0101406880513573270001TURALBA JR., ANTONIO VALERA                              0502
A0101408530000002260015TAN, PINKIE ONG                                          0501
A0101403450521238268001**********                                               0502
A0101403450521241117001**********                                               0502
A0101403450521441986001**************                                           0520
A0101403450521791474001********                                                 0501
A0101404000000003853149DEE, GERARD TIONG                                        0501
B0101404130601024996002UNION CHURCH OF MANILA, INC.                             1610
A0101404130601450411001NIDA D. AGCAOILI OR                                     10501
A0101404130601450411001LEOPOLDO A. AGCAOILI                                    20500
B0101407720000006028166MEDGATE PHILIPPINES, INC.                                1601
A0101407720000003886911TAMAYO, MA BELEN EVANGELISTA                             0502
A0101407720602396146002FRANCISCO L. ERANA OR NIEVA PAZ                         10507
A0101407720602396146002ERANA OR ROWENA ERANA                                   20500
A0101407720602404060001MARZO, MARIA ROWENA FERNANDEZ                            0502
A0101404260000000156756JARDIN, MILDELITA VILLENO                                0501
A0101404260611607631001RECANA, MA. CARMELA SANTOS                               0501
A0101404260611684918001ERAMIS, DIONESIO OR                                     10502
A0101404260611684918001JOCELYN ERAMIS                                          20500
A0101409920650078985001REYES, ANGELINA BERSABE                                  0501
A1301400210682572343001LAURA LOIDA P DELOS SANTOS                               0501
A1301400340000000926870CUERDO, AYA                                              0503
A1301400340683678684001BAGOAN, MAOKI IBRAHIM                                    0501
A1701400230693478374050FAILANO, LYDIA G.                                        0501
A1701400230693710362001CUA, RONALD CU                                           0502
B0101408240000000832780WOWA'S FAST FOODS INC.                                   1610
B2801400100712015381002PHIL-PAN SUBIC VENTURES INC.                             1601
B2801400100000000004811TRADER RIC'S RESORT CORPORATION                          1603
A4101400260000001783684BOCONG, MARNEL RONQUILLO                                 0501
A4101400260812478374062SUNNY G. CAPORADO                                        0501
A4101400260812519502001APOSTOL, JESSIE BOY MARTINEZ                             0502
A4101400390000001732890BAJAN, JERRY JOHN CASTRO                                 0501
A4101400390813017514001PRESTIGE AUTO CARE                                       0501
A4101400420814436355001BAUTISTA, LOIDA U. OR                                   10502
A4101400420814436355001BAUTISTA, EPITAC                                        20500
A4101400550815478374006RECODIG, VILMA ROTUGAL                                   0501
A0101412340000005496808LORENZO JOSE C. LIBATIQUE                                0502
A0101412340000000224035LUNA, NORBERTO CORRAL                                    0501
A0101412340000001017930SONIA MEDINA SIBI                                        0502
A0601400230000001687090GUTIERREZ, JOSEPH MONTES                                10501
A0601400230000001687090OR GUTIERREZ, MA                                        20500
A0601400230000000990030TALAVERA, FRANCIS GADDI                                 10501
A0601400230000000990030OR TOLENTINO, FE                                        20500
B0101418520920302000022**********                                               2001
