F0301400110191059510002ZOOFARI GROUP INC.                                       2605CKR
F1901400290261400113002MA TERESA V VILLA OR                                    12505CKO
F1901400290261400113002TEODORO ANTONIO R VILLA                                 22500CKO
F0101402480331010181004******                                                   2606CKR
F0101413990000000206011HGD SALON                                                2510CKO
F4101400260812028697001WELLCARE CLINICS AND LAB., INC.                          2610CKR
F4101400550815042176001S.N.S. WHOLESALE TRADING CORP.                           2605CKO
