A0101415350000005085030CARITAN, JOSEPH FERMIN ABESIA                            0501
A0101413860000005527799CUNANAN, RICK MELVIN DELA VEGA                           0501
A0701400260000003259385ROQUE, MARISS CATHERINE BISANA                           0501
A1101400120000000010588DE LIRA, MARVIN KENNETH A                               10501
A1101400120000000010588OR DE LIRA, MA. KATRINA B                               20500
A1101400120000001547280YAP, DEDY TAN OR                                        10510
A1101400120000001547280TAN, SANTOS LEE                                         20500
A0101412500000006363879NG, MICHAEL FLORES AND MAKANI,                          10501
A0101412500000006363879RICHARD DEE                                             20500
B1001400350233013980001VIC IMPERIAL APPLIANCE CORP.                             1603
A1101400120000001547326TOLENTINO, EMMANUEL S. OR                               10501
A1101400120000001547326BASTIAS, ROSANNA Q.                                     20500
A1101400120000003022453DELMO, MARIAN PACURI                                     0501
A1101400120000000652351YAO, RONALD PHILIP GO                                    0501
B0101413570656821200608**********                                               2001
A4101400260812339290001DR JOSE ARMAND GURANGO OR                               10502
A4101400260812339290001DRA MARIA CORAZON                                       20500
A3001400130000000931333K AND S ENTERPRISES                                      0501
B1001400350233039624001ORO LZT MARKETING ENTERPRISES, INC.                      1604
A1001400350233335599001DELA CRUZ, THELMA MAANDIG                                0501
A1001400350233405531001SEVILLA, CARLOS S.OR                                    10502
A1001400350233405531001SEVILLA, ISABELI                                        20500
B0101412470000003847416FUNDACION SANSO, INC.                                    1601
A0101403320000004830995GATTECH SUPPLY AND ENGINEERING                           0502
A4101400260812339290001DR JOSE ARMAND GURANGO OR                               10502
A4101400260812339290001DRA MARIA CORAZON GURANGO                               20500
A0101400860011382943004**********                                               0505
A0101400860011393144002**********                                               0505
A0101400860011462049001**********                                               0503
A0101400860011669207001**********                                               0503
A0101401250000000906923VILLAMIA, GERRY MALLARI                                  0502
A0101401250000000460586AZUCENA, MARIA PAMELA ENRIQUEZ                           0501
A0101400150061228656001LAWRENCE T. CO                                           0501
A0101400150061338964041JUDITH CANDAZA                                           0501
A0101405810000002314698JIMENEZ, ELMA TABUADA                                    0501
A0101405810072344420003CHING, JENNIFER TIN                                      0502
B0601400100081034790001SHINMEI CREDIT AND LOANS CORP.                           1601
A0601400100081379374001YUMUL, JOSE LAYUG                                        0501
A0601400100081478374009JOWELL MIRANDA                                           0502
A0601400100081621919001DAVID, CRISANDA MERCADO                                  0503
A0101410560000003562070**********                                               0501
A0101400730111412858010LOLITA MANALO                                            0503
B0101401830000005577984LEVONTECH ENTERPRISES                                    1601
A0101401830141551597001MARIA VEOSELYN B. ESTRELLA OR                           10501
A0101401830141551597001EFREN B. ESTRELLA JR.                                   20500
A0101400440161029925001VESPER INSURANCE ADJUSTERS                               0503
A0101400440161478374189CORAZON C. BOLA                                          0501
A0101400440161525001179EDNA S. VILLENA                                          0501
A0101407270162587936002WILFRIDO G. TIRONA                                       0501
A0101401090171197391001JOCELYN F. AGCAOILI                                      0502
B0301400790000000435647PANABO MULTI-PURPOSE COOPERATIVE                         1605
B0301400790000000435727OUR BRIGHT SEEDS, INC.                                   1601
B0101401380201034271004LC BUILDERS AND DEVELOPERS, INC.                         1604
B0101401380201370046001**********                                               1603
A0101412500000002304712CASTANEDA III, ISABELO MARQUEZ                           0502
A0101413600000003134512EFREN A. BALINAS                                         0502
A0101413600000003134487MIRRIAM A. DELA CRUZ                                     0501
A3101400450223311764001MUNOZ, JOUBERT ABANIA                                   10502
A3101400450223311764001OR ANASTACIA SHERRY N.                                  20500
A3101400870000006381633DIZON, MENCHIE VIDUYA                                    0501
A3101400870000006381655DY, FRANCIS JOSEPH MANIQUIS                              0501
A3101400870000006381677GARCIA, LIBERTY PINEDA                                   0501
A3101400870000006381688LOCKE, ROBERT ALEXIS                                     0501
A3101400870000006381699MAGLEO, RONALD GERALD PAMPOLINA                          0501
A3001400130230700871001MUNOZ, BALTAZARA ESCATRON                                0501
A3001400130230767566032GERALDINE P. MALBAS                                      0501
A1001400190231283324001GICABAO, BENY CHAN OR                                   10501
A1001400190231283324001GICABAO, VILMA A                                        20500
A1001400190231478374117ASINO, ANNABEL M.                                        0502
A1001400190000002170678GENTILES, KEVIN                                          0502
A1901400290000003252731REBECCA VELASQUEZ ARIOLA                                 0502
B1901400290261027293001LIPA MEDICS INC.                                         1610
A1901400290261087553001MARIA JEOFFRIZA SARMIENTO DIAZ                          10503
A1901400290261087553001OR RUBYRONA D LLAVE                                     20500
A1901400290261298552056TERESITA EUGENIO PUNZALAN                                0501
A1901400290261355605001PAZ CRISTIANA TIAMSIM LANDICHO                           0501
A1901400290261390520001JOEL PUNZALAN DIMAANO                                    0502
A1901400290261668899001CHENG, XIAOZHEN OR                                      10505
A1901400290261668899001YANG, ZONG CHANG                                        20500
A0101401670271188147003FRANCISCO M. LIBORO                                      0505
B0101411110000001037074NIECER TRADING COMPANY INC.                              1601
B0101412470000002338872ACTS ACHI & AHIA, INC.                                   1601
A0101412470000002135973SONGCUYA, BLANCA DBU BNFS                               10502
A0101412470000002135973ARCHITECTURAL DESIGNS                                   20500
B0101400570000000749548ALLIANCEJADE GARMENTS CORP.                              1602
B0101411240000001563457*****                                                    1601
B0101411240000005136469SANTIAGO, MA. CORAZON DIZON DBU                         11601
B0101411240000005136469CORS ENTERPRISES                                        21600
A0801400160311478374093AMELIA H. TAYCO                                          0501
A1101400120000002254800CU, WILSON CHAN OR                                      10505
A1101400120000002254800CU, ALBERT CHAN                                         20500
A1101400120313542847001LAO, WILSON JOSE S. OR LAO,                             10510
A1101400120313542847001JOVITA T. OR LAO, WILBERT                               20500
B6601400120314043609005FUNDACION GRAMEEN PILIPINAS INC.                        11605
B6601400120314043609005HINA BRANCH                                             21600
B0101402350321037708002RD CASH PADALA, INC.- AREA 1                             1603
B0101402350000000046091ACHIEVE A CAREER TODAY TRAINING CENTER                  11601
B0101402350000000046091& DEV'T. INC.                                           21600
A0101402350321330335001BEATRIZ G. WAKAI                                         0503
A0101405650322416023001DIMAFELIX, FERNANDO PERALTA                              0501
A0101402510341197697001GLORIA R. DEL MUNDO                                      0501
A0101402510341325995002ALEX T LIM OR ELISA N LIM                               10502
A0101402510341325995002A.E.L. MARKETING                                        20500
A0201400760374705541001FELICEN, CARLITO                                         0502
B0201400920000000047743HOWDY LEMON JAPAN INC.                                   1605
A0201400920375292220001LIM, HELEN ONG OR LIM, DOMINGO                          10501
A0201400920375292220001OR LIM, ELIZABETH ONG                                   20500
A0101408370000003775086FUERTE, FATIMA DE GUZMAN                                 0502
B0101408790000002659005PASCUAL PHARMA CORP.                                     1603
B0101408790000002659016ADP PHARMA CORPORATION                                   1603
A0101415350000005028842RUIDERA, RYANN RONWALDO AVECILL                          0501
B0101402770000001571233LEADER GARMENTS CORPORATION                              1605
B0101402770000001571579LEADER GARMENTS CORPORATION                              1605
B0101402770000001571693PRIMEBUILDERS CORPORATION                                1601
B0101405490392332339001**********                                               1603
A0101408400000001231070CRUZ, LAILANI ALFARO OR                                 10502
A0101408400000001231070CRUZ, RHAYAN DEL                                        20500
A0101408400394409317001BANDWAGON ENTERPRISE                                     0502
A0101408400394472125002MELOCOTON, MA. LORRAINE OR                              10502
A0101408400394472125002ALRAFAEI, EBRAHI                                        20500
A0101408950396410272001YOUNG, CATHERINE SHENG                                   0501
A0101409180000003882440DELOS REYES, SHERRYL ABRIGANA                            0501
A0301400820000002271945VOSOTROS, BONIFACIO K.                                   0502
A0301400820000003148525REDONDO, LYNNETH L.                                      0501
A5501400120410729506001JOSOL, ARLIEN BACON                                      0501
A2401400180411023998002ENE MARKETING                                            0502
B2401400180411031958001***********                                              1601
B2401400180411042194088GSC ECOPARTS                                             1605
A2401400180411478374042JOYCE R. GALLEON                                         0501
A2401400180411478374061JUNRES AGAD OR                                          10502
A2401400180411478374061NORMELITA BLANCO                                        20500
A2401400180411514423001DEALA, BERNARDITA GATCHALIAN                             0501
A2401400180000000427996TUPAS, MARVIN REY PALLARCO OR                           10505
A2401400180000000427996TUPAS, BEATRIZ PALACIOS                                 20500
A0901400220000002300845LIM, RENEEROSE VESAGAS                                   0501
A0101403320000004831112GONZAGA, JOSELITO JACELA                                 0502
A0101403320471365878001*******                                                  0502
A0101403320471470037001JULIETA D. MALLARE                                       0502
A0101403320471570181001EMMA R. LIM                                              0503
A0501400170481253841003VINLUAN JR., JOSE D.                                     0501
B1601400170494060395001CERDENO CONSTRUCTION & SERVICES                         11602
B1601400170494060395001CORPORATION                                             21600
A0701400260000001069676MURODA II, MARK ANTHONY                                 10501
A0701400260000001069676FERNANDEZ                                               20500
A0101407430000001028802LITA T. GUZMAN                                           0501
A0101407430000000521071TERESITA V. LORENZO                                      0501
B0101403580511027603002K.S.T. PROPERTIES, INC.                                  1605
A0101408110000001823810REMOLACIO, FRANCIS LILIAN DBU                           10502
A0101408110000001823810BLUE SKY TRANSPORT                                      20500
A0101408530516471293001CALICDAN, ENRIQUE S. OR                                 10501
A0101408530516471293001CALICDAN, FLORITA                                       20500
A2201400250561782345001GELACIO ROMAN MANALANG                                   0501
B0101404130601011225001CARESCO RESOURCES CORPORATION                            1602
B0101404130000004437223CAPTIVATE SHOPPER MARKETING INC.                         1602
B0101404130601100161001PRUDENTIAL CUSTOMS BROKERAGE SERVICES,                  11610
B0101404130601100161001INC.                                                    21600
A0101407720000000245087VILLAREAL, EDWARD CEA                                    0501
A0101407720602398670002PAULITA ANOVER VILLEGAS                                  0503
A0101411530000000741713**********                                               0501
A0101413440000000183748MALLONGA, IRENE REYES                                    0502
A0101413570656060328001NAL TRAVEL EXPRESS AND                                  10501
A0101413570656060328001TICKETING SERVICES                                      20500
A0101410300000002375777******                                                   0502
B1301400210000000023576LA CONSOLACION UNIVERSITY PHILIPPIN                      1605
B1301400210000000023598LA CONSOLACION UNIVERSITY PHILIPPIN                      1605
A1301400340683708672001CANO, ERLINDA PEREZ                                      0502
B0101408240711026678001SAMBEL PACIFIC CORPORATION                               1602
A0101408240711684679001ERAN, BERNARDINE LLAGUNO                                 0501
A0101408240711712646001BAUYON, TORIBIA FABELLO                                  0502
A4101400390813640996001DELA CRUZ, LILIA PALON                                   0501
A4101400550000003839112OMANDAM, DANIEL FULGENCIO                                0501
A0101412340000003341506CADO, ROSA DELLORO                                       0501
A0101412340000003718810AIDILBERT S. BELANDRES                                   0501
A0101404840851424338001PAMITTAN, MYRNA M.                                       0503
A0101404840851478374012SAPORNO, ANNABELLE G.                                    0501
A0101404840851520766066CYNTHIA A HERMEDILLA                                     0501
B0101405070861046931001BUKWANG PRIME INTERNATIONAL AGENCY                       1602
A0101405070861698078001CHEN, YU TAI                                             0502
