A0101400150061226656001EVYLENE C. SISON                                         0501
A1701400230000000097790ASIS, MARY JEANE PAGUSAN                                 0501
A0101400150061229576001JOSEPH P. LUMAGUI OR MA.                                10501
A0101400150061229576001VICTORIA Y. LUMAGUI                                     20500
B0101400150061493496001TECHNOLOGY ENABLER DESIGNERS (PHILS) INC                 1603
A0301400950000002251963LABRADOR, DANTE OLAIVAR                                  0501
A0101408370382208508002DR. VICTOR L. CAPARAS                                    0502
A0101413860000014390742DELA CRUZ, DESIREE ADRID                                 0501
B0101400150061010736001SPCASTRO, INC.                                           1605
A0301400950000006080359REYSON, JOHN KIM D. OR                                  10505
A0301400950000006080359ABALLE, MEL CHIT                                        20500
A0301400950000010701003LORENZANA, RACHELLE CARREON                              0502
A0101412890000009833554AMIDO, ANNA LIZA GUEVARA                                 0501
A0101403320000011293075ADELAIDA R. CRUZ AND                                    10505
A0101403320000011293075ALEXANDER M. CRUZ                                       20500
A1901400320000000041163DINO ANGELO FERNANDEZ DE LEON                            0502
A0101400860011084001001**********                                               0505
B0101400860000005313137**********                                               1601
A0101401250021478374003FRIAS, CELIA SILVANIA                                    0502
A0101400150000003164116CANDICE AMOR M. DELA CRUZ                                0501
A0101400150000013511778CHRISTIAN EMMANUEL OLANO                                 0501
A0101400150061236944060VICTORIN0 T. RUBICA                                      0502
A0101400150061531871001MAANO, OLIVER ALVIAR                                     0501
A0101400600071236465001LINDA G. FEDILO                                          0501
A0101405810072235737001**********                                               0501
A0601400360000012816821MEJIA, PROCESO III C.                                    0501
A0101410850000008263985DIZON, JOLLY DBU STARLIGLHT                             10505
A0101410850000008263985TRUCKING                                                20500
B0101400730111036857001FRC SULO RIVIERA HOTEL CORPORATION                       1610
A0101406040112718720001CRISTINA L. CHAN                                         0501
A0101413310000000863941SUMALINOG, KATHERINE MANZANO                             0501
A0101413310000001794578REYES, RYAN JOSE LOQUE                                   0501
A5001400170000000213954LOPEZ, ISOLDE OR TAMAYO, AILYN                          10505
A5001400170000000213954OR TAMAYO, SHEENA                                       20500
A0101412920000013672118WEE, JONALYN SY                                          0502
A0101400440161584859002RENATO M. BIYO                                           0503
A0101407270000010118979MIRA BELLA L. PERCE                                      0501
A0101401090000011984475MARC ROBERT LADISLA FOOD SERVIC                          0510
A0101401090171199702001NELIA T. LOPEZ                                           0501
A0101401090171336393001REBECCA R. ABRILLA                                       0502
A0101401090000005320416DELA CRUZ, VYNETTE VILLADOLID                            0501
B0301400530193035726188TAGUM PIONEER FOODS CORP. - DT                           1605
A0301400790000005692106ALDERITE, ROSIGENE O.                                   10502
A0301400790000005692106OR ALDERITE, ARNOLD P.                                  20500
A0101410720000009157239ARELLANO, LEO HUYA                                       0504
A3101400740224087806001NECESARIO, EDUARDO PASTOR                                0502
B1001400190231028789001PHILTYRES CORPORATION                                    1610
A1001400190231478374159TILLO, ROMEO B.                                          0501
B1001400350000002048404VELOX ENERGY PHILIPPINES CORPORATIO                      1612
A1001400350233528399003KO, JOSE NELSON AND                                     10502
A1001400350233528399003KO, CHARMAINE                                           20500
B1001400350233540058188**************                                           1603
B1001400480000003357891AYA VENTURES CORP DBU ASONHUAT AGRO INDU                11601
B1001400480000003357891STRIAL GROWER                                           21600
A1301400470000003270471MARIA CELINA DJ. SIMON                                   0502
B1901400290261040973001ICT-ED INSTITUTE OF SCIENCE AND                         11602
B1901400290261040973001TECHNOLOGY, INC.                                        21600
A0101401670271228042001TINIO, JUAN ANGEL LIGON                                 10501
A0101401670271228042001OR TINIO, MARIA                                         20500
A0101401670271384038001PABLITO M. GREGORE                                       0501
A0101406460272686557001TANWANGCO, ALEX FERNANDEZ OR                            10520
A0101406460272686557001TANWANGCO, ANDRE                                        20500
A0101406620000014257042MARLON V. BORROMEO                                       0501
A0101406620000014258494JUMAR R. VITALIS                                         0501
A0101406620000014136573JAMBARO, MELODY LANZANAS                                 0501
B0101408660000013601906CAL PERSONNEL PROVIDERS                                  1610
A0101411820000001356321************                                             0501
B0101400570000003451556DE LOS SANTOS MEDICAL CENTER, INC.                       1603
A2601400270000000561740EMILIA M. BAUTISTA                                       0502
A2601400270000000019532ENRICO ARTURO A. GUINTO OR                              10505
A2601400270000000019532CARLO ESTEBAN A. GUINTO                                 20500
A2601400270000012492552JEREMIAH Q. BAUA DBU JS                                 10501
A2601400270000012492552ROCKWELL HOME DEPOT                                     20500
B2601400270000000084382ONG JR,PEDRO DBU CELCIUS MDSING AND AUTO                11610
B2601400270000000084382PARTS SUPPLY                                            21600
A2601400270302559962001ROSARIO UY OR JENNY ROSE UY OR                          10501
A2601400270302559962001BONIFACIO UY                                            20500
B08014001603110189040013 TOPS TRADING                                           1610
A0801400160000000476299*********                                                0503
A0801400160311478374004MAELYN HACERMIDA                                         0502
A6601400120000013857913FUENTEBLANCA, ANALYN ALABADO                             0501
B2001400290000000020537LINK RI LOGISTICS INC.                                   1601
B3401400280000006791042CRYPTO CAFE AND RESTO BAR INC.                           1605
A0101402350000012300433TAHER, SOHRIA BONSALAGAN                                 0501
A0101405650000010318931REMULLA, DANIEL JOHN PEN                                 0501
A0101402510000013485920GALLARON, MARICAR ABAN                                   0502
A0101402510000013485840**********                                               0502
A0101402060351211788002ROMUALDEZ, FRANCISCO C. OR                              10501
A0101402060351211788002ROMUALDEZ, ANNA                                         20500
A0101402060351653390001ACAYAN, MARY ANN OR                                     10501
A0101402060351653390001ACAYAN, JACINTO                                         20500
A0101409050000000939317SANTOS, AIRISH CASTRO                                    0501
A0101402930000013537470PARRAS, CHRISTINE MAGO OR                               10503
A0101402930000013537470AYAB, EDELBERT                                          20500
A0101402930381283088002JOSEPH VINCENT A. ALBA OR                               10502
A0101402930381283088002AGNES A. ALARILLA-ALBA                                  20500
B0101408790000002659005PASCUAL PHARMA CORP.                                     1603
B0101408790000002659016ADP PHARMA CORPORATION                                   1603
A0101415350000005085081SALAPARE, LOUIE AURELIO AGUILAR                          0501
A0101402770391022532001VIREX ENTERPRISES                                        0501
A0101408400394478374062APOLIS, SALVACION G.                                     0502
B0101408950396048179001PREMIER PRODUCE AUTHORITY CORP.                          1605
A0101409180000004409778CASTILLO, DARIE ABAYON                                   0502
B0101409180397042774001CDC REALTY INC.                                          1601
A0101409210000005251810VILLARUEL, RICHSEL SALAZAR                               0502
A5501400120410275477001LEGARIO, RICKY DIESTRO                                   0501
A5501400120410675739001BAYLON, EDWIN ELLON                                      0501
A2401400180000007031687BODHI YOGA CENTER                                        0502
A1201400150000013825851PALANGDAO, MARYJANE SEGUIN                               0501
B0101403030441314128003**********                                               1601
B0101403030000000008831**********                                               1601
A0101412890000004345102LUCANAS, GLORIA SIOBAL                                   0501
B0101403320471022141001KINGWANLY ELECTRICAL & EQUIPMENT                        11603
B0101403320471022141001SERVICES                                                21600
A0501400170481381388001BUAN, MARIA DOLORES AMOR OR                             10501
A0501400170481381388001BUAN, ROGELIO C.                                        20500
B1901400320000014976391PROVEN TECHNOLOGY FEEDS CORPORATION                      1601
B1901400320000014976482LUCKY EIGHT MULTIFOODS CORPORATION                       1601
B1901400320000000041301FIRST INNER TRADE CREDIT CORPORATION                     1610
B1901400320489062995002CLEVERGOLD CREDIT CORPORATION                            1610
A0101407430000015015915BARBADILLO, MARY GRACE LIM                               0501
A0101407430000015016394CALINGASAN, AIYETTE ASCOTIA                              0501
A0101407430000015016474CALPITO, JOGIE GAMBOA                                    0501
A0101407430000015016838DAMO, MELINDA SIDON                                      0501
A0101407430000015016907DAPLAS, ROBVI ROSE MAGARARO                              0502
A0101407430000015017006DELIMA, JESSE GLORIOSO                                   0501
A0101407430000015017222ESPINOZA, RAFFY .                                        0502
A0101407430000015017433FRANCO, DOLORES SALAZAR                                  0501
A0101407430000015017591GACER, ERSENY PASAMIC                                    0501
A0101407430000015017751GAMIER, KARLA KESSER REYES                               0501
A0101407430000015017893GUEVARRA, RYAN POL GASPAR                                0501
A0101407430000015017951ILAGAN, DAISY FUEDAN                                     0501
A0101407430000015017973INOVIO, MARIA TERESA TRIBUNAL                            0501
A0101407430000015018196LAPIS, REGINA GALANG                                     0502
A0101407430000015018243LAYNESA, MARIVIC ALSOL                                   0501
A0101407430000015018287LEE, GERALDINE PASCUAL                                   0501
A0101407430000015018356LIM, JOHN PHILIP YBANEZ                                  0502
A0101407430000015018425LUMANGLAS, EMILY MENDOZA                                 0501
A0101407430000015018550MAGSAYO, ARLEN GUTIERREZ                                 0501
A0101407430000015018670MEDINA, JOUCELYN MARQUEZ                                 0501
A0101407430000015018709MERCADO, MYLA EVELYN VILLALUZ                            0501
A0101407430000015018743MESINA, NICOLEAI AUBREY CORPUS                           0501
A0101407430000015018812MORENO, NIMFA MORENO                                     0501
A0101407430000015019031PERA, JAMARIE LAPUZ                                      0501
A0101407430000015019188RASALAN, FRHONTHON CAMANTE                               0502
A0101407430000015019326ROSERO, PACIFICO FLORES07                                0501
A0101407430000015019439STA. ANA, SHARON AGONCILLO                               0501
A0101407430000015019520TAMAYO, ROSE ANN EMRALINO                                0501
A0101407430000015019560TORREON, RICHARD MELLORIA                                0501
B01014074300000111675250OWER CLEAN BLDG. CARE & GEN. SERVI                      1605
A0101408530000013063553GARLET ROXAS VALENZUELA                                  0501
A0101408530000000136161**********                                               0501
A0101403450521238070001**********                                               0502
B0101403450521239028002**********                                               1602
A2201400250000004916110GOMER VILLANUEVA CAPINPIN                                0503
A0101407720000004664962STA.MARIA, JASON PICHAY                                  0501
A0101407720602163314001SALLY KING JOAQUINO OR                                  10504
A0101407720602163314001JACQUELINE JOAQUINO                                     20500
A0101407720602294877006REBECCA B. SINGSON                                       0505
A0101407720602390297001PREYSLER, MARIVIC G.                                     0502
A0101407720602396313001SANTOS-OCAMPO, RAMON S. OR                              10504
A0101407720602396313001SANTOS-OCAMPO, FATIMA                                   20500
A0101407720602397494001GENARA M. LIMSON M.D. OR                                10501
A0101407720602397494001ANTONIO LIMSON                                          20500
A0101407720602480488001GERALDINE MAJELLA L. JURILLA MD                          0502
A0101407720602527643001IGNACIO, ROBERTO GERARDO MASLOG                          0502
A0101412180000000501500ALMAZAR, ALLAN GEPIGA                                    0501
A0101404260000007498324LICAROS, NENITA RAMOS                                    0502
A0101404260611158307002GALICIA, CONSOLACION OR RAFAEL                          10501
A0101404260611158307002OR FELIZARDO OR                                         20500
A0101411530000014943372**********                                               0501
A0101413570656057648092ALICIA DELA CRUZ                                         0501
A1301400210000005040577**********                                               0501
B1301400210000005040960ARMS-ABUNDANCE HOMES REALTY SALES,                       1601
A1301400340000010467502ESTERBAN JR., DONALD BENJAMIN                            0501
A1301400340000014501758AYSON, ROBINSON SANTOS                                   0501
A1301400500684635536001JOSELYN D SANTOS OR                                     10501
A1301400500684635536001EDGAR D VILLAR JR.                                      20500
A1701400230000015021200AGUIBAY, MICHELLE PAREDES                                0501
A0101408240000003955595BROWN-ARANETA, MICHELLE LANA                             0502
B0101408240711030848001*****                                                    1601
A0101408240711417400001PAGUNSAN, ANSELMO JR. OR                                10501
A0101408240711417400001JULIANA                                                 20500
A0101408240000009453005CARAGUE, MA. CARMELA CALMA                               0501
A0101408240711429939004CARMELA CARAGUE                                          0501
A2801400230000001782094PARPAN, MARILOU DBU VISTA RENT                          10502
A2801400230000001782094A CAR OR PARPAN,                                        20500
A4101400390000000379179GUINTO, MARIA VICTORIA SANTOS                            0501
A4101400420814736230002SARMIENTO, RAFAEL CAMARCE                                0501
A4101400550000001622480GATDULA, ISSER JOSEF VILLALUNA                           0501
A4101400550000014208538TECSON, MARICEL RAMOS                                    0501
A0101404840851791747001BALMES, GERVACIO OR SARADAT,                            10501
A0101404840851791747001MONICA OR GALLAG                                        20500
A0101406750000015033217YAP, ROMINA ANN SOON                                     0501
A0101413860000001887001OGSIMER, CELEDONIA MACASIL                               0501
B0101413860000007953931BACKOFFICE SOLUTIONS, INC.                               1602
B0601400230891008843001BASIC HOUSING SOLUTIONS, INC.                            1605
