A0101409890649044793001**********                                               0501
A0101413310000016851355ALIMAZA, KIRK PATRICK ESPANOL                            0501
B0101411240000007844451NIC'S GOURMET DESSERTS, INC.                             1610
A0101412920000016975829IRONVIEWS EVENTS & BUSINESS                             10503
A0101412920000016975829SOLUTIONS                                               20500
A0101412920000015383009**********                                               0501
A0101412920000011149727MEMBERS OF NATASHA                                      10501
A0101412920000011149727CABALLA, MARIECRIS                                      20500
A3101400160000000006500ANNIEFER P MERCADO                                       0502
A0101403320000004831050ESPIRITU, ERIC C. OR                                    10501
A0101403320000004831050ESPIRITU, CORAZON C.                                    20500
A0101405490392614484001RAVI H. DARYANANI                                        0502
B0101407430000013804434PARANAQUE PREMIER HOSPITAL & MEDICA                      1605
A0101400860000008653390*******                                                  0503
B0101400860000011516071************                                             1602
A0101400860011473146002*********                                                0504
B0101400860000005313079*******                                                  1601
A0101401250000003803661TANALA, MA LUISA BELINO                                  0501
A0101411370000005524421BATUIGAS, AURORA REBOQUIO                                0501
A0101400150000003218226PIA VANESSA V. SORIANO                                   0501
A0101400150000009401285REYES, REYNALDO ANDACA                                   0501
A0101400150000013484323STA. ANA, EMYLYN SAMPAN                                  0501
A0101400150000004090497MONTINOLA, JOSE MA. HORACIO GO                           0501
A0101400150061391947002MONTINOLA, JOSE MA. GO                                  10501
A0101400150061391947002MONTINOLA, MARGARITA                                    20500
A0101400600000001335579********                                                 0502
B0101400600071045158001*******                                                  1603
B0101405810000011484569JB MERCHANDISING INC.                                    1602
A0101405810072234892001**********                                               0501
A0601400360083649312001KIM, KANG WOOK                                           0502
A0601400360000000978856CAPAN, LITO ROSE SANTIAGO                                0501
A0601400520000003187313PAROLI, VIRGILIA SOLIMAN OR                             10503
A0601400520000003187313PAROLI, ANTONIO                                         20500
A0101414090000014876374VELASCO, LELAND VIAJE                                    0501
A0101410560000010317783ERNANI C. CRISTOBAL                                      0502
A0101412630000000909768LAUZON, BEATA GRATIL                                     0502
A0101412630000002040613SIOSON, IRINEO PICITO                                    0501
A0101413310000003169231CASTRO, ARIANE JOY SABLAY                                0501
A5001400170000000214002REQUINA, ORWINO ATAY                                     0501
A0101412920000005354490GUTIERREZ, DAISY CRUZ                                    0501
A0101400440161563905001MARICAR C. QUINONES OR                                  10502
A0101400440161563905001RONIEL S. QUINON                                        20500
A0101401090000015814549MATEO, CLARISSA BALTAZAR                                 0501
A0101401090000015531445MATEO-REGALARIO, CLARISSA B.                             0501
B0101401090171039914001SIMPLELINE INC.                                          1602
A0101401090171062304001TOMASIAN FASTFOOD CORP.                                  0501
A0101401090171196091001BUENA FE A. APEPE                                        0501
A0101401090171201465001MICHAEL JORGE OR CHERYL PERALTA                          0501
A0101401090171399334003***                                                     10501
A0101401090171399334003***                                                     20500
A0101401090171457831002ERIC P. REDOTA OR                                       10501
A0101401090171457831002RACHEL N. REDOTA                                        20500
A0301400660194079451001DEOCAREZA, ELENA CONSOLACION                             0501
A0301400790000000436008MANALILI, ANNABELLE LEONOR                               0502
A0101410720653478374012MYRA E. ISIP                                             0502
A0101410720000013857571SANTOS, CARMENCITA MAGCALE                               0502
B0101413600000002122372INTERNATIONAL ACADEMY OF AESTHETIC                      11603
B0101413600000002122372SCIENCES INC.                                           21600
A0101413600000012980560HENRY S. PALANCA                                         0503
A3101400160221278150001DR. CATHERINE A. AMISTAD                                 0502
A3101400740224085078001BALILO, SHERNAN VELASCO                                  0501
A1001400190000005709042DESQUITADO, LYNDEL ALPUERTO                              0501
A1001400190231520766015CALUMBA, VICTOR ARQUITA                                  0501
B1001400350000007920876PEARSON, PILARCITA ROA AND  HEQUILAN,                   11602
B1001400350000007920876ELVIE CORTEZ                                            21600
A1001400480000000041501SALVANA, RODOLFO L OR SALVANA,                          10505
A1001400480000000041501ELIZABETH C                                             20500
A1001400480000017003702PALMA, MA. THERESA MEDADO                                0501
A1301400470000003270431CHRISTIAN VINCENT R. SALAZAR                             0501
A1301400760000012981169DONNABEL R. BAUTISTA OR ARIANNE                         10502
A1301400760000012981169JAYDE B. FAJARDO                                        20500
A1301400760000008699045DIANA LAREEN S. ANGELES                                 10501
A1301400760000008699045DBU A-STAR PAWNSHOP                                     20500
A1901400290000009112123MA. LOURDES ALVIAR ALDAY                                 0502
B0101401670271007375003MULTI-FOLD LINKS, INC.                                   1605
B0101406460272821200608**********                                               2003
A0101406620000000193760DIAZ, FRANCIS PATRICK TAYENGCO                           0502
A0101400570000004624208MARY GRACE B. ONGUE                                      0502
A0101400570281388076001DR. RAJU MURLI SADHWANI                                  0501
A0101400570281503551001JAREN R. CABUDOL                                         0501
B2601400270000011485233YAP CARESSA DIANE ENTERPRISE CORPORATION                 1605
A2601400270000012492609NEIL P. JACINTO DBU NPJ PALAY B                         10501
A2601400270000012492609UYING STATION OR ROGHEVI                                20500
A6601400120314622580001SOSING, CAROL O. OR FELIPE A.                           10505
A6601400120314622580001OR CAROLYN O.                                           20500
A3401400280000015108562BAARDE, LOURDES BULAQUINA                                0505
A0101402350000005644759FRANCIS JEROME I. VITALES                                0502
A0201400760000001107511OQUIAS, JOCELYN LIM                                      0501
B0201400760374041982001OSAM ENTERPRISES                                         1601
B0201401020000007458275ONG, JORGE TING                                          1601
A0101402930000010657975RABACIO, ALVARO JOSHUA DELA TOR                          0501
A0101408370382042666001TMC DEPARTMENT OF ORTHOPEDICS                            0501
A0101408370000011986266CUSTODIO, GLORIA FRANCISCO                               0502
A0101408370382206455003DR. RUBEN G. KASALA OR                                  10502
A0101408370382206455003DR. MA. CARMELA KASALA                                  20500
A0101408790000008502987BUMANGIT, MARY CRISTINA BIOGAN                           0502
B0101408790000000599760CHILDFUND INTERNATIONAL, USA DBU CHILD                  11606
B0101408790000000599760FUND PHILS. INC.                                        21600
A0101415350000006733884ABRAHAM ALLAN U LIM                                      0501
B0101402770391032924001HARRIS MEMORIAL COLLEGE, INC                             1605
A0101405490000002253010ROSEMAE J. SISON                                         0501
A0101405490000014913910CONTI, RENIE MAGADIA DBU                                10502
A0101405490000014913910RC-WOLTRJEA MARKETING                                   20500
A0101405490392301424001ENCARNACION O. SANTIANO OR                              10503
A0101405490392301424001KAREN MAE O. SANTIANO                                   20500
A0101408400394027889001TINA S. BERIN FLOWER SHOP                                0505
A0101408400394448379001CLARAVALL, HENRY JOHN FERNANDEZ                          0501
B0101409180397777777008DHOLWANI, GEETA OR DHOLWANI, MADHU OR                   11601
B0101409180397777777008WANI, VICTOR OR                                         21600
A0101409210000016327510BEDIS, AIZA BUENAVENTURA                                 0501
B2401400180411014376002PENBANK, INC. (A PRIVATE DEVELOPMENT                    11603
B2401400180411014376002BANK)                                                   21600
A2401400180411048131001ONTARIO PURIFIED DRINKING WATER                         10501
A2401400180411048131001DISTRIBUTOR                                             20500
A1201400150421039385001JL'S CLEAN UP JANITORIAL &                              10503
A1201400150421039385001MANPOWER SERVICE                                        20500
B0901400220000006214284**********                                               1601
A0901400220000006214386D' RANGER SECURITY AGENCY, INC.                          0502
A0101403320000016614943MANA, JULIUS CAESAR V.                                   0502
A1601400170000014244914PACARDO, MARC JOSEPH DBU MARC &                         10502
A1601400170000014244914JOSEPH'S EVENTS                                         20500
A1601400170000012410654REYNOSO, ISABEL KARINNA LIGANOR                          0502
A0701400260000003259432ZAMORA, JULIUS SOPENA                                    0504
A0101407430000014992693MANILYN GASPAR                                           0501
A0101407430503278586004ANTOLIN M. SOSA JR.                                      0510
A0101407430503375315003LILIAN LIZA C. MACATO                                    0501
B0101403580000010847511M22 BUILDERS INC.                                        1605
B0101403580000010847522M22 BUILDERS INC.                                        1605
A0101405940000017049053BUENAVENTURA, LALAINE JOY GOB                            0501
A0101408530000002980534DELA PENA, JONATHAN MARCO LAZCA                          0501
A0101412050000001499669NOVEDA, RODRIGO GAPASIN                                  0501
B0101403450521021821001********                                                 1605
B0101403450000002975702**********                                               1602
A0101403450521238571003**********                                               0501
A0101403450521649009001*************                                            0501
A0101407720000001393335MALEDEO, MA. CRISTINA M.                                 0502
A0101412180000000333526ALMARIO, JENALYN BANTA                                   0501
A0101404260000013860152ATOS, KATHERINE REGIS                                    0501
A0101409890000002636217CELIZ JR., NORETO MEDALLE                                0502
A0101409890649044793001**********                                               0501
A0101409890649047047001**********                                               0501
A0101409890000000437449**********                                               0501
A0101413570000011434870CAROLINO, MARITES DBU MARC AND                          10502
A0101413570000011434870ANGEL TRADING AN                                        20500
A0101413990000000206033MARITES R. CONANAN                                       0502
A0101414120000001984143VERZOSA, SANTANINA SALIH OR                             10502
A0101414120000001984143ABAINZA, DARIUS                                         20500
A0101406590662208118001CYNTHIA OR CHERYL MYLA ARCINUE                           0501
A1301400340683361124002BUENAVENTURA, MYLINE SORIANO                             0503
A1301400500000000213312RAMOS, LORINO IBERIO ARZADON                             0503
A2801400100000006977402CASTILLO, NOEL MERCADO OR FLORE                         10501
A2801400100000006977402S, REBECCA CASTI                                        20500
A2801400100000016574875BELTRAN, NILDA RILLON                                    0501
B2801400100000011180639NMC22 EARTHMOVING AND CONSTRUCTION                       1601
A2801400100712039498002VECTOR PEST CONTROL                                      0502
A2801400230000014314182HERVERA, CRISTOPHER TAYDE                                0501
B2801400230713045988001NGE TRADING                                              1602
A4101400260812030742002GODGIVEN PHARMACY & GENERAL                             10510
A4101400260812030742002MERCHANDISE                                             20500
A4101400390000001404255JHERRELL D. NAZARENO                                     0501
A4101400550000014678881********                                                 0501
A4101400550000006044311SALVACION ELECTRONICS SALES                             10505
A4101400550000006044311CENTRE                                                  20500
B0101406750852023612001LAS PINAS CITY MEDICAL CENTER, INC.                      1610
B0101406750000000017609EXTANT PR SYSTEMS, INC.                                  1602
B0101405070861008460004STARS TRAVEL INCORPORATED                                1602
B0101405070861029607001ICS TRANSLINK (PHILS.), INC.                             1602
A0101405070861035394088AMITY SATELLITE SYSTEMS,                                10512
A0101405070861035394088INCORPORATED                                            20500
A0101405070000012374982DIZON, ALMA CLAIRE GONZAGA                               0501
A0601400230000015248781TORIO, LIEZL REGALA                                      0501
A0601400230000015248792MENDOZA, LESLIE TORIO                                    0501
