F0201400180181292185001MIGUEL, ROSALINA DELA PENA                               2510CKO
F0101407690652032988001FINE NEEDLE APPAREL                                      2510CKO
F4101400260000000002160CAGUIAT, LEONOR CRISOLOGO                                2502CKO
