A1101400120000002254946MEJICA, SORIEL BARDIAGO                                  0501
A1101400120000006080742MONDEJAR, JOSE RENE ECHAVEZ                              0501
A1101400120000005608191CELSO, GORGIE C.                                         0501
A1101400120000000652540VILLEGAS, MALCOLM JAMES P. OR                           10502
A1101400120000000652540VILLEGAS, ALVIN                                         20500
B0101401090000008515413ROSARIO C. YU & NELLIE T. YU & MARY                     11601
B0101401090000008515413JOCELYN Y. LAYGO                                        21600
A0301400950000001379546SARABIA, MAY JOY DUCO                                    0501
A0101403610000006497905MANUEL, CECILIA BERNADETTE                              10505
A0101403610000006497905BAZARIO                                                 20500
A1101400120000000065121ALVARADO, LIEZEL CASINO                                  0501
A0101404260000002302090*****                                                    0501
A1301400210000002909102FLORES, CORAZON LOZANO                                   0501
A0601400230000003015896MABBAYAD, JAMELO RAMEL QUERUBIN                          0501
A0101400860011386371002**********                                               0501
A0101400860011533026001**********                                               0502
A0101400860011774650001**********                                               0502
B0101401250021019457001BOAZ AND JACHIN FOOD COMPANY                             1603
B0101401250021183977001RCAM - SANTA CLARA DE MONTEFALCO                        11603
B0101401250021183977001PARISH                                                  21600
A0101401250000004980587GAMBOA, THELMA DELA CRUZ                                 0501
B0101400150061044905001RISING TIDE MOBILE ENTERTAINMENT, INC.                   1605
A0101400150061236944048JENNIFER TRINITY S. MAYNIGO                              0501
A0601400100000005050504DIEGO, MADRELY SIWA                                      0502
A0601400520000000398352OCAMPO, FRANCISCO DE JESUS                               0501
A0101410850000002356885MEDRANO, R DBU RAM TRUCKING                             10502
A0101410850000002356885SERVICES                                                20500
A0101400730111471051002UY, AMELITA FAJARDO                                      0501
A0101413150000002299330******                                                   0503
A0101413310000005433352ANGCO, JULIE ANN MOJICA OR                              10502
A0101413310000005433352ANGCO, KELVIN ANG                                       20500
A0101401830141070560001MARIANO,DERICK/HECITA,JOSEPHINE                         10501
A0101401830141070560001HERNAN,MARIA VANESSA                                    20500
A0101401830141671701001HARDER, PAMELA BUENVIAJE                                 0501
A7201400170000008258431LAURENCIANA JR., ANTONIO NUICO                           0501
A0101400440000000821298DIOBET ERDIE I. DIOQUINO                                 0504
A0101407270162421293020MA. CONSOLACION SEMILLA                                  0501
A0101407270000000818473ANG, MARIA JENNIFER PARAS                                0508
B0101401090171020726002UST DEPARTMENT OF PEDIATRICS                             1602
A0101401090171196221001MARCELINO OR EDNA OSTREA                                 0501
A0101401090171787698001INGUSAN, CRISTINA TOLENTINO OR                          10502
A0101401090171787698001INGUSAN, ARFINE                                         20500
A0301400530000000066113RUDELA, JIVIR S. OR                                     10502
A0301400530000000066113RUDELA, ANALYN C                                        20500
A0301400660000006862691*****                                                    0501
B0301400790000000435647PANABO MULTI-PURPOSE COOPERATIVE                         1605
A0101401380000008520198CLAROS, CHRISTOPHER LANCE CHIU                           0501
B0101401380201034247001HOBBIES OF ASIA INC.                                     1604
A1001400190231520766112ALIBIO, NELYBETH TACBOBO                                 0501
B1001400350233036049001RANTRADE INDUSTRIAL SALES CORPORATION                    1601
B1001400350000000017041LIMKETKAI HOTEL & RESORT CORPORATION                     1610
A1001400350233528399003KO, JOSE NELSON AND                                     10501
A1001400350233528399003KO, CHARMAINE                                           20500
A1301400470000005394254KATHERINE MALONES PANAHON OR                            10501
A1301400470000005394254MIROFE JUAN MALONES                                     20500
B1901400290000001363199RD PAWNSHOP, INCORPORATED                                1603
B1901400290261040667001PRIMERA AGRO DEVELOPMENT CORPORATION                     1602
B1901400290261049824001BONLOU, INC.                                             1610
A1901400290261056053001DANILO K VALENCIA JR                                     0501
A1901400290261298552056TERESITA EUGENIO PUNZALAN                                0501
A1901400290000003252702ELMER SANDOVAL GUYOS                                     0501
B0101406460000000712758HOMEMATCH CORPORATION                                    1610
B0101406620273031145001KOHL INDUSTRIES CORPORATION                              1602
A0101408660274387702002ANG, DESIREE T.                                          0502
A0101411820000003838211CHERRYLEN TORNO                                          0502
A0101411240000001026851MARQUEZ, YOLLY MONTESA                                   0501
A2601400270000002312163ALEJANDRO Q. UY III                                      0501
B2601400270000000020639IGNACIO DATU OR WILMA DATU                               1610
A0801400160000000476299*********                                                0503
B0801400160311494221001JUCABAN, LEO LAGOS                                       1601
A1101400120000006080742MONDEJAR, JOSE RENE ECHAVEZ                              0501
A2901400130000005961395LIMA, ELAINE TRIESTE                                     0502
A0101402350321597544001ARSITIO, ROBERTO T. OR ARSITIO,                         10501
A0101402350321597544001LUVIZMINDA L.                                           20500
B0101405650000002960752SAVORICH CORPORATION                                     1601
A0101405650322173415001LOPENA, MARITES B.                                       0502
A0101405650322321476001DE GUZMAN, MYRNA SARMIENTO OR                           10501
A0101405650322321476001DE GUZMAN, GAZEL                                        20500
A0101405650000000080117*******                                                  0501
A0101402510341196566001LUZVIMINDA G. CRUZ                                       0501
B0201400760374027058001ABOITIZ LAND INCORPORATED                                1603
A0101408370382391449001DR. PATRICK HENRY ENRIQUEZ                               0502
A0101408370382431185001ARNOLD T. SALUD M.D.                                     0502
A0101408370000000336190DONATO, CRISANTA ESPIRITU                                0501
A0101411660000001145766*****                                                    0501
B0101402770391009324001SAN ANTONIO DE PADUA PASTORAL                            1601
B0101402770000001571626BEARING CENTER & MACHINERY, INC.                         1601
A0101405490392481659001MARITES Q. FACTURA                                       0501
A0101405490392510652001ENCARNACION M. GOLDING                                   0501
B0101408400394030962004H B C INC. - MARKET MARKET BRANCH                        1603
A0101408400394415942001DELA PENA, ALVIN JOHN R OR DELA                         10502
A0101408400394415942001PENA, MICHELLE K                                        20500
A0101408950000003171188DE CASTRO JR, MANUEL LEUTERIO                            0501
B0101409180000000036644THE TABLE GROUP, INC.                                    1620
A0101409180397696150001MARINO, SALVY OR MARINO, HECTOR                         10501
A0101409180397696150001OR NAVOA, NANETTE                                       20500
B0101403030441303324001**********                                               1602
B0101403580511015363081MEC - SUNTRUST PARKVIEW                                  1603
B0101403580000004540641M22 BUILDERS INC.                                        1605
A0101405940512517320001********                                                 0502
A0101408530000000594263JAMIE S. SALAZAR                                         0504
B0101403450521011615001EAGLE ELECTRIC OF THE PHILS.                             1602
A0101403450521239936001********                                                 0501
B0101403610531063656001UNIVERSAL OUTSOURCE (UNO) ASSOCIATIONAL                 11601
B0101403610531063656001MULTI-PURPOSE CO                                        21600
A0101403610531222634001FELICITAS T. BARRON                                      0501
A0101404000000008531322GALANG, CORAZON COMDOHR OR                              10501
A0101404000000008531322QUIOGUE, RAMONA GALANG                                  20500
A0101412180000008531373DE LEON, ARNOLD SERRANO                                  0501
A0101404260611152257001MA. JENNIFER L. ROJALES                                  0504
B0101407690652035567001NEW COMLOGIK BUSINESS SYSTEMS, INC                       1604
B0101413570000007212962KASAGANA-KA DEVELOPMENT CENTER,  IN                      1606
A0101413570656057648123MANUEL GO                                                0502
A0101413990000002274006DELA CRUZ, MARIA CRISTINA RAMOS                          0503
B0101413990000000206099DELUNA BROTHERS CONSTRUCTION CORPORATION                 1604
B0101413990000003182534ANDL ENTERPRISES INCORPORATED                            1602
B1301400210000000023496JELLI'S GAS STATION                                      1602
A1301400340000003458133TININAHAN, MARC PHILIP                                  10501
A1301400340000003458133BELLOSILLO                                              20500
A1301400340683361124002BUENAVENTURA, MYLINE SORIANO                             0502
A1301400340683542735002BIUNAS, REMEDIOS GREGORIO                                0502
B1301400500684046206001TRIGON ENTERPRISE                                        1601
A0101408240711570660001DE JESUS, RENATO TORNADIZO                               0501
A4101400260000006043118KAHBLESS, AKA DBU KAHBLESS                              10502
A4101400260000006043118INTERNATIONAL ENTERPRISES                               20500
A4101400260000006043038CAMPOS, AILEEN SOLIDUM                                   0504
A4101400260000006043374CARMEN, WILBETH ONG                                      0502
A4101400550000003267036DIVINAGRACIA, BJAY PANTALEON                             0501
A0101412340000008007710AMELISSA MARICOR E. RAMOS                                0501
A0101406750852241118001FLORES, JOY                                              0501
B0101405070861043213001TEKTON CONSTRUCTION CORP.                                1605
A0101405070000003439661TALLA, AARON JOSHUA ORTIZ DBU                           10502
A0101405070000003439661AERO ENTERPRISES                                        20500
A0101405070861596150001JACKIE LOU D. GAITE AND                                 10503
A0101405070861596150001TERENCE OLIVER AGUILOS                                  20500
B0601400230891046232001ST. THERESA DIALYSIS CENTER, INC.                        1610
A0601400230891386310001SZE, HOI CHING                                           0502
A0601400230891452056001DELA PENA, HAROLD PUQUIZ                                 0502
