F2301400150301412282001JOSEPH V. BUNAGAN                                        2502CKO
F0401400270242030826003SUMI ASTRO CORPORATION                                   2605CKR
F3101400580452029890001SIMUNDAC CALTEX SERVICE STATION                          2601CKR
F0401400270000000006748PILIPINAS MULTI-PURPOSE                                 12610CKR
F0401400270000000006748COOPERATIVE                                             22600CKR
F0201400180181041364008CENTRAL VISAYAS TRUCKING SVC. INC.                       2701CKC
