A0801400160000000009430SALAO, EVELYN ENCANTO                                    0506
A1901400320000000041181LUISA FAYTAREN MACARAIG                                  0505
A5001400170000000044982URBAN PAINTS & MORE ENTERPRISES                          0502
A0201401020000000056051MAHINAY, JENNIFER HIYAN                                  0501
A1601400170000000099150HERMELINA E. ROSAL                                       0501
A2601400270000000561482WAYNE VINCENT U. CHUA                                    0501
A0301400530000001009943PANTUA, JERSON R.                                        0501
A2801400100000001494577QUIJANO INK TRADING                                      0501
A1001400480000002300350VILLO, ANTONIO ALLERA                                    0502
A0101402350000002310598MAMARADLO, ROZALINA DE VERA                              0501
A0101402350000002310656ADAM T. ESPIRITU                                         0501
A2001400290000002319484RODRIGUEZ, JANET CABIARA                                 0501
A4101400420000002345280ACOL, FELOMINA ADOAN                                     0501
A2001400290000002782701BALASABAS, JOVITA VELASQUEZ                              0501
A4101400550000003266982*****                                                    0501
A0101400150061191530001AMELIA DULCE D. SUPETRAN                                 0501
A0601400100081403474003TAYAG, DENISE OCAMPO                                     0501
A0601400100081501761001TAN, WINTHEL OR RALPH                                    0501
A1001400350233478374009CAJANDAB, FLORABEL M.                                    0501
A1001400350233644458001LAZO, MICHELLE ATINEN                                    0502
A6601400120314615650001BUBAN JR., GREGORIO GODOYO                               0502
A0101402350321179400001NILDA Q. APISTAR                                         0505
A0101402350321323061001ANGELA A. FERRER                                         0501
A0101402350321478374013ROSALINA M. MARAVILLA                                    0501
A0101408400394492627001ICAY, DARWIN BERNABE                                     0502
A2401400180411478374065CELIA D. NAVAREZ                                         0501
A2401400180411523954001ANG, DANNY KO JT                                         0503
A2401400180411564347001LIM, KENNELYN FELISILDA                                  0501
A1901400160491247764001MARITES E RAMIREZ                                        0501
A1901400160491562857001JVICTOR MARKETING CORPORATION                            0510
A1401400110492391345002R'S WINE CENTER                                          0504
A1601400170494080625001DOMINGO A. PABELONIA                                     0501
A1301400340683361105001DELA CRUZ, ESTER SANTIAGO                                0502
A1701400230693710362001CUA, RONALD CU                                           0502
A4101400390813478374036VARGAS, MARITES                                          0501
A0101404000000000025469CARMONA, JOSE FABIAN PONCE OR                           10503
A2001400290000000046433NG, CHRISTOPHER SO OR                                   10502
A3001400130000000067230GAMBA, RAZEL CURILAn AND GAMBA,                         10501
A2601400270000000561999VICENTE V. ALVAREZ JR. OR                               10501
A0701400260000000670768DE LOS SANTOS JR., LEOPOLDO                             10501
A0801400160000001031434LERRA MARIE SOLIVIO OR                                  10501
A6601400120000001370683CHAN,MARIA CHRISTINA DBU NENENG                         10501
A0101402350321179570001NEAL ORTEZA OR                                          10501
A0101402350321285195001JUAN PUAN TIU OR BEDA TAN TIU                           10501
A0101402350321597544001ROBERTO T. ARSITIO OR                                   10501
A0201400760374682272002OUANO, RUPERTO VILLAFLOR OR                             10502
A2401400180411338845001ROBERTO T. PERALES OR                                   10510
A2201400250561258531007RESTIE A. FERNANDEZ                                     10502
A4101400550815693134001LLANES, TUDOR HERNANDEZ OR                              10501
A0101404000000000025469CARMONA, MARCO CARLOS                                   20500
A2001400290000000046433NG, MAVICEL GRAC                                        20500
A3001400130000000067230KRISTIN SUAZO                                           20500
A2601400270000000561999MYRNA M. ALVAREZ                                        20500
A0701400260000000670768PEORO                                                   20500
A0801400160000001031434DANILO SOLIVIO                                          20500
A6601400120000001370683FURNITURE-MOULDING MAKER                                20500
A0101402350321179570001IMELDA OLIVAREZ                                         20500
A0101402350321285195001OR JOHN KELLY TIU                                       20500
A0101402350321597544001LUVIZMINDA L. ARSITIO                                   20500
A0201400760374682272002JAYME, STEPHEN R                                        20500
A2401400180411338845001JANET C. PERALES                                        20500
A2201400250561258531007EMPLOYEES OF SSPMC                                      20500
A4101400550815693134001LLANES, PRESCILLA                                       20500
B5501400120000000003298MARBEL FIT MART, INC.                                    1605
B0601400100081251412001TAN, WILFREDO OR MARIANO                                 1610
B1001400190231417579001CLAVERIA TREE NURSERY, INC.                              1602
B1001400350233038141088LIMKETKAI HOTEL & RESORT CORPORATION                     1605
B0801400160311025468002SANTELLEN CORPORATION                                    1602
B0201400760374038777001CEBU ADMIRAL CONTAINER TRAILER CORP                      1601
B0201400890376047100001MANDAUE PRINT SHOP CORPORATION                           1602
B2401400180411032703001TOYOTA GENERAL SANTOS INC.                               1610
B2401400180411085914001FILMIX CONCRETE INDUSTRIES, INC.                         1610
B1401400110492046339002****                                                     1620
B1301400210682030329001ANDAN ENTERPRISES, INCORPORATED                          1602
B1301400340683456739001LAZATIN JR., EDUARDO NIONES                              1602
B2801400100712027300001PORTLAND MARINE SERVICES INC.                            1603
B1001400480234055755001INSTITUTE FOR SOCIAL TRANSFORMATION JASA                11601
B6601400120314043609002FUNDACION GRAMEEN PILIPINAS INC.                        11605
B0201400760374031471001PHILPACIFIC INSURANCE BROKERS & MANAGERS                11610
B1901400160491246031001CARLITO GO/FELIE GO/MYRNA MORALES/MONINA                11602
B1901400160491246031002CARLITO/FELIE/TIMOTHY GO / MONINA REMO                  11602
B1001400480234055755001AN, INC.                                                21600
B6601400120314043609002GEL BRANCH                                              21600
B0201400760374031471001INC.                                                    21600
B1901400160491246031001REMO/CARLEEN SIH                                        21600
B1901400160491246031002/MYRNA MORALES                                          21600
