B0101410300000000191586MEJIA, MELODY ANNE DBU MEE NOODLE BAR &                 11601
B0101410300000000191586RESTAURANT                                              21600
A0101411820000003838153ANGUSTIA REBLORA                                         0501
A2001400290315081010001TAN, JAMES ERWIN VILLABERT                               0501
A0101402930381063874001PASCUA, J DBU BEYOND D' NUMBERS                          0501
B0101413600215821100608**********                                               2002
A2001400290315790366001KIRIT, GRACE UY                                          0501
B0101401250000000020771KAAKBAY ENTRE-WORKER COOPERATIVE                         1601
A0101401250000004980576EVANGELISTA, ELAINE DEL ROSARIO                         10503
A0101401250000004980576DBU GILLAINE STORE                                      20500
A0101411370022774052001MARISSA M. RAMIREZ                                       0502
A0101411370000000903611RAMIREZ, MARISSA MARTINEZ                                0502
A0101400150000002722363TAN, DANN JULIUS SY                                      0501
A0101400150000003197999JAMES ANGELO D. PANERIO                                  0501
B0101400150061010675001M & M CONSOLIDATED, INC.                                 1603
B0101400150061028210001GOLDEN DRAGON MOTOR SALES CORP.                          1605
A0101400150061227441001ERNESTO T. ECHAUZ                                        0503
A0101400150061228145001EFREN B. ARSENIO                                         0501
A0101400150061230211001JESUSA T. AGABIN                                         0501
A0101400150061396548001ALIMURUNG, BENJAMIN N. OR                               10501
A0101400150061396548001ALIMURUNG, ALICE                                        20500
A0101400150061610203001BALLESTEROS, RAMON EMMANUEL N.                           0502
A0101400600000000007707**********                                               0503
A0601400100000008968881ANTIPORDA, MAY BAUTISTA                                  0501
B0601400360000003186714BSD TRADE SERVICES CORP.                                 1603
A0101414090000001652397DUQUE, ALVIN RYAN YANGA DBU                             10501
A0101414090000001652397SCHOONER EYEGLASS ENT.                                  20500
B0101410850109064489001SOUTHWEST SHIPS AGENCIES, INC.                           1601
B0101410850109064491001JPA OSTEEN CORPORATION                                   1601
B0101401830141035193001ARAL KID'S ACADEMY                                       1601
A0101400440161391940001*****                                                    0501
A0101400440161525001164NERYLROSE B. VINLUAN                                     0501
A0101401090000006050620YOUNG JR., ROBERT TIA                                    0505
A0101401090171305034001MA. THERESA C. PINEDA                                    0501
A0101413020000003055325PASCUAL, JIMBE CABAUATAN                                 0502
A0101413020000002292760********                                                 0501
A0101413600000007006782SHERWIN GILBERT I. ESTEBAN                               0502
B0101413600215821200608**********                                               2001
B3101400160221033214001RD CASH PADALA, INC. AREA 02                             1602
B3101400160221037479001TABLERIA LA CONFIANZA CO., INC.                          1601
A3101400160221724137001ALICIA P MANAIG                                          0501
A3101400450223019912001LAGUNA HEALTH SERVICES                                  10510
A3101400450223019912001COOPERATIVE                                             20500
A1001400190231478374012FARINAS, EVA MAE CENTO                                   0501
A1001400190231520766004YACON, VIOLETA PAUNILLAN                                 0501
A1001400350000000017165MEN DBU A&L MARKETING SOLUTIONS                          0501
A1001400350233478374001JUNIO, ROGELIA A.                                        0501
A1001400350233528399003KO, JOSE NELSON AND                                     10501
A1001400350233528399003KO, CHARMAINE                                           20500
A1301400760000005989800EDWARDSON C. PANGILINAN                                  0502
B0101401670271028082002DDT KONSTRACT, INC.                                      1630
B0101401670000004588401MAIDSOURCE INC.                                          1601
B0101401670000006812353BLESSINGS 777 INC.                                       1605
A0101401670271188489001CARMEN C. LIM                                            0502
A0101401670271289633003LIM, ROSARIO C.                                          0501
A0101401670271290800002ERIC SHERWIN T. BASUIL OR                               10503
A0101401670271290800002JASMIN H. BASUIL                                        20500
A0101406460272393022001GAW, ELIZABETH CHENG                                     0501
B0101406620273041884001UP PREP '65 ASSOCIATION                                  1601
A0101408660000000059761TOBILLO, CECILIO NARVAEZ                                 0504
A0101411820000001356463CHARLOT DELA CRUZ DALIDA                                 0501
A0101411820000006504689MARICAR GAMBOA                                           0501
A0101412470000005380707**********                                               0501
A0101400570281509995001RELUCIO, IMELDA DYAUCO                                   0503
A0101400570281635686001RIDON, MARICAR GONZALES                                  0501
A2601400270000000019601THELMA P. GARCIA OR HENSON                              10503
A2601400270000000019601JESUS A. DULDULAO                                       20500
A2901400130000005961395LIMA, ELAINE TRIESTE                                     0503
B0101402350000000046108ABSOLUTE INDUSTRIAL SOLUTIONS, INC.                      1604
A0101405650000008159035AGUIRRE, MYRNA BASCON                                    0504
A0101405650322670876001INACAY, VICTORIA T. OR                                  10501
A0101405650322670876001INACAY, ORLANDO                                         20500
A0101402510341061009002NIVERBA, ROBERTO VIDAL DBU ABRE                          0501
A0101402060351504048001ZAMORA, FRANCES ROA                                      0501
A0101409050000006319695SISON, MARY ANTONETTE CORTES                             0501
A0201400760374625964001SOLON, ENRICO MENDOZA                                    0502
A0201400920000000047998FAELNAR, IRE CLAUDETTE MANSUETO                          0501
B0201400920375038756001ROYAL PARATROOPERS INVESTIGATION AND                    11602
B0201400920375038756001SECURITY AGENCY                                         21600
A0201400920000002804480MIRANDA, SAMMY                                           0501
A0101402930381341460001SUI SIONG T. CANDELARIA OR                              10502
A0101402930381341460001CHRISTINE S. CAN                                        20500
A0101402930381384938001ATTY. RAYMUNDO T. FRANCISCO                              0502
A0101411660384659794001RICHARD P. USITA                                         0502
A0101405490000003178432MIRIAM D. PANO OR MELANIO B.                            10502
A0101405490000003178432PANO JR.                                                20500
A0101405490000000444400TEODORA A. VICTORIA                                      0501
A0101405490392571716001GERALDINE O. ACTHLEY OR                                 10501
A0101405490392571716001RAQUEL A. TAJONE                                        20500
B0101408950396044935001GORDON & ASSOCIATES PHILIPPINE OFFICE                   11610
B0101408950396044935001CORP.                                                   21600
A0101408950000007458862CHIO, NANCY BORJA OR                                    10502
A0101408950000007458862CHIO, MARTIN CLA                                        20500
A2401400180000000428102SAGABAEN, AMALIA COSTALES                                0502
A2401400180000000826153TIONGSON, HAZEL APARENTE                                 0501
B2401400180411042194088GSC ECOPARTS                                             1605
B2401400180000007031767EXEMPLAR TZR TRADING                                     1601
A0101412890000007095287ALZATE, JOSEPH ATULLE                                    0501
A0101403320000008985077DIZON, BRYAN DE GUZMAN OR                               10501
A0101403320000008985077DIZON, AREANNE DE GUZMAN                                20500
A0101403320471040994002E. LAJERAS BUILDERS AND TRADING                          0501
B0101403320471064355001SQUARE METER TRADING AND CONSTRUCTION                   11604
B0101403320471064355001CORP.                                                   21600
A0101406330000001235363FERNANDO P. MENDOZA JR. OR                              10501
A0101406330000001235363MARIA ELEONOR G.                                        20500
A0101406330000000011809SOLEA SHOES MANUFACTURING                                0510
B0101406330000000432955ADELA LAND CORPORATION                                   1602
A0101406330000000162605MARIA CRISELDA S. AVELINO                                0501
A0101406330472594322002IGNACIO S. JOSE JR.                                      0501
A3801400170000000497832RAQUEL D. SALAS OR                                      10504
A3801400170000000497832ENRIQUE R. SALAS                                        20500
B1901400160491020630001BATANGAS MEDICAL SOCIETY                                 1601
B1901400160491064500001GOOD HEART MARKETING INC.                                1601
B1901400160491064503001J.A.M.C. MARKETING INC.                                  1601
A1401400110000006680237CABUYAO, MARCIANO NAYNES                                 0502
A1401400110000000132841*******                                                  0501
A1601400170000001069056CHRISTOPHER S. CO                                        0505
A0701400260000000040980ALBEUS, JESSIE ROQUE                                     0501
A0701400260495064454001CHENG, MARVIN DBU SWEET VIN                             10501
A0701400260495064454001MARKETING                                               20500
A0101405940000004476193ESCALA, JENNIFER RESURRECCION                            0501
A0101408530516615903048CHAVEZ, REMEDIOS QUIMAN                                  0502
B0101403450521011913001DIVERSYS SPECTRUM PRODUCTS, INC.                         1610
A0101403450521238057003*****                                                    0503
A0101404000000003706949VILLA REY M. JADLOCON                                    0501
B0101404000551036674001YAPSTER E-TRAVEL, INC.                                   1602
B0101404000551046316001PHILAB INDUSTRIES, INC.                                  1605
A0101404000551287485001CECILIA A. MELENDRES OR                                 10502
A0101404000551287485001ISMAEL L. MELEND                                        20500
A2201400250000000433543******                                                   0502
B0101404130601038411001SURELUCK WOOD ENTERPRISE                                 1602
A0101404130601336736001ANITA Y. CALANGIAN OR                                   10503
A0101404130601336736001D. ANTOINETTE C.                                        20500
A0101407720000006028428DE CASTRO, EDWARD ESTEBAN                                0501
A0101407720602232072001LENNIE A. TERRE                                          0501
A0101407720602371282001CHAN, MAILA CRUZ                                         0502
A0101407720602399337001MARIO BENITO F. BAUTISTA                                10501
A0101407720602399337001OR JOSEPHINE L. BAUTISTA                                20500
A0101407720602515940001TIGLAO, JENNIFER THERESA                                10501
A0101407720602515940001GONZALES                                                20500
A0101407720000003886795DELES, ROSEMARIE ARELLANO                                0502
B0101404260000000003783ABELLA, ROLDAN AND FAINZA LAWYERS                        1605
A0101404260611478374097MILA B. RIELO                                            0501
A0101409920000001951891MEMBERS OF NATASHA (SHOECAT INC                         10501
A0101409920000001951891BARTE, CECILE                                           20500
A0101413440000002706072PORCIUNCULA, CATHERINE R. OR                            10502
A0101413440000002706072PORCIUNCULA, JOS                                        20500
B1301400210682009648001CHRIST'S COMMISSION FOUNDATION,                          1604
A1301400210682572080001SALOME V CASTILLO OR                                    10501
A1301400210682572080001MA SHERINA C ALM                                        20500
B1301400340683419314001HO, CHIN TENG                                            1605
B01014082400000064144331988 DEVELOPMENT CORPORATION                             1602
A0101408240711180164001TUPAZ, CORAZON RONQUILLO                                 0501
A0101408240711373323001LYDIA OR EDWARD LEE                                      0501
A0101408240711386973003ROBERTO SANTIAGO OR                                     10504
A0101408240711386973003DIANA SANTIAGO                                          20500
A2801400100712380695001NOMER A. TALIBONG                                        0502
A4101400420814520766027ARUTA, CORAZON G.                                        0501
A0101412340000007305520ROWENA P. GONZALES                                       0502
B0101404840851009329001TRANSPARK ENTERPRISES                                    1610
A0101404840851046725028GENERALES, RHODA ALTEZ                                   0502
A0101406750000005397726CALIGUIRAN, MATIAS BACCAY                                0501
A0101406750000007879165ADLAON, EFRINIA BAUTISTA                                 0501
A0101405070000003439672GOMEZ, ALFREDO YUMUL OR                                 10502
A0101405070000003439672GOMEZ, PAUL A.                                          20500
A01014050708611979700020KA, TOSHIKATSU                                          0502
A0101405070861478374089FABIANTES, CHARITY CRES                                  0501
A0101413860000000145008GALICIA, MARY ANN GONZALES JT                           10501
A0101413860000000145008DAVID, ERLINDA                                          20500
A0601400230891363362001MARITESS P. FLORES                                       0501
