F0101403580511032944002SOUTH RENOVA VENTURES, INC                               2603CKR
F1001400480000000133600INDORAMA VENTURES PACKAGING (PH                         12604CKR
F1001400480000000133600ILIPPINES) CORPO                                        22600CKR
F0101400570281007178002ALFREDO'S STEAK HOUSE INC.                               2610CKR
F0501400170481015535002ST. JOSEPH DRUGSTORE                                     2606CKR
F0101407720602531639009INTELLIGENT BEAUTY SKIN                                 12610CKR
F0101407720602531639009SOLUTIONS INC.                                          22600CKR
F1701400230693714245001VISIONAIRE, INC.                                         2505CKO
