B0101404130601821100608**********                                               2010
B0101404130601821100608**********                                               2010
B2001400290315044204001ACEBANK CREDIT, INC.                                     1601
B0101403580000002185424M22 BUILDERS INC.                                        1602
A0101403580511560248001MARA PARDO DE TAVERA                                     0501
A0101403450521239151001**********                                               0505
A0101412340000000031125CABUS JR., AUREO ALOTA                                   0502
A0101400860011479962001**********                                               0502
A0101400860011742046001**********                                               0502
A0101401250021401825001CHUA, REYNALDO MAGNO OR                                 10504
A0101401250021401825001CHUA, EMMA GESLANI                                      20500
A0101400150000000253427ARNEL C. CUARESMA                                        0501
A0101400150000002394870RUEDAS JR., ARMANDO CARPO OR                            10501
A0101400150000002394870RUEDAS, EVANGELINE ENRILE                               20500
A0101400600071235541001***************                                          0501
A0101405810000001021172PUA, C DBU MCK SCHOOL & OFFICE                          10502
A0101405810000001021172SUPPLIES                                                20500
A0601400100081615537001BAIS, LEONOR RIVERA                                      0503
B0601400100081780425001SPA SIGNATURE, INC                                       1603
A0601400360000000225312SUAREZ, GLORIA DE LEON OR                               10502
A0601400360000000225312PONCE, MARLYN DE LEON                                   20500
B0601400520000000398545BHELLE-SOLAR PHILIPPINES CORPORATION                     1601
A0101413280000002317711GO, RICHARD CHAN                                         0501
A0101413730000002229676***************                                          0501
A0101400440161039572069IMELDA A. ESTRADA                                        0501
A0101400440161506992001ARCHIE M. SEMBLANTE                                      0503
A0101401090000004753817IRORITA, BENIGNA AGRON                                   0504
A0101401090000001619030PESO, MARIA CECILIA S. OR                               10502
A0101401090000001619030AQUINO, MARIA CRISTINA S.                               20500
A0301400530000002318481PALMA, JUNE CRIS MEDIOS                                  0502
A0301400530000000066124LICAYAN, PRINCE LLOYD M. OR                             10502
A0301400530000000066124LICAYAN, ZANAIDA                                        20500
B0301400660000003361873C-ONE TRADING CORPORATION                                1601
B0301400790195054051001VILLA JOSEFINA RESORT VILLAGE HOMEOWNERS                11602
B0301400790195054051001ASSOCIATION INC.                                        21600
A3101400160221478374057SABRINA N JORDA                                          0501
B1001400190231032463001PROGRESS BICYCLE CORPORATION                             1605
A1001400190231478374056AMANTIAD, MAY                                            0501
A1001400480000000133280SABAL, MICHAEL CASINO                                    0501
A1301400470000002299916MARCO ANGELO P. FRANCO                                   0501
B0101406460272047410001CHREY BUILDERS CORP.                                     1602
B0101406460000000712827********                                                 1610
B0101406620273009650001CROWN SMART LTD.                                         1605
B0101406620273021176001MERCURY SYSTEMS CORPORATION                              1601
B0101410980000000171975AMMC - AVERY MANILA MARKETING CORP.                      1602
B0101410980000000171975**********                                               1601
A0101400570281296123001BANARES, MYRNA N. OR                                    10503
A0101400570281296123001BANARES, LEOPOLD                                        20500
A0501400200000002306069PUNZALAN, ABIGAEL PANGANIBAN                             0501
A0801400160311630636001CASUMPANG, JONABELLE SILVA                               0501
A6601400120000002249761BERNABE, ARWIN CARANZO                                   0501
A6601400120314632034001GARCIA SR., JAIME OR                                    10501
A6601400120314632034001OR ALBARIO, SUSAN                                       20500
B2001400290315047753001SILLIMAN UNIVERSITY COMMUNITY COOP.                      1610
A3401400280000001723400DEGALA, IVY LIN BARROMA                                  0501
B0101402350321006431001OLIVAREZ REALTY CORP.                                    1608
B0101402350321006752001LOPEZVILLE HARDWARE                                      1602
A0101402350321597544001ARSITIO, ROBERTO T. OR ARSITIO,                         10501
A0101402350321597544001LUVIZMINDA L.                                           20500
B0101405650000000012977AZARCON JR., NOEL PIERRE HACHERO                         1601
B0101405650322043032001LEAN MANAGEMENT AND PEOPLE SOLUTION                      1601
A0101405650322047677001THE J. BIJE'S WINDOW SHOP                                0506
A0101405650000000772936BLOSSOM GENERAL MERCHANDISE                              0502
A0101405650000000525739RUFA MACABENTA                                           0501
A0101402510341196566001LUZVIMINDA G. CRUZ                                       0501
B0101402510341204183001ANA ABERILLA AND GILBERT MURILLO                         1602
A0101402510341353926001ROLANDO G. GALAO OR                                     10506
A0101402510341353926001RUE B. GALAO                                            20500
A0101402060351009359001JIANDANI, SURESH G. OR                                  10501
A0101402060351009359001JIANDANI, KAVITA                                        20500
A0101409050352645570003MYRNA P. CUASAY                                          0501
A0201400760374625336001REYES, BAYANI CARLOS                                    10501
A0201400760374625336001OR REYES, VIRGINIA                                      20500
B0201400890376059709001CUCINA MOBILI CEBU, INC.                                 1601
A0201401020000000470193LOUIE PENA'S TRAVEL TOURS & EVE                          0503
A0101402930381350846001MARIA CORAZON B. ESTIMO                                  0501
A0101408370382205133001DR. ROWENA P. RIVERA OR                                 10503
A0101408370382205133001REBECCA P. RIVERA                                       20500
A0101408370382205236001DR. CYNTHIA A. AGUIRRE                                   0502
A0101402770000000360923PERLITA CELOSA OR                                       10501
A0101402770000000360923FRANCISCO CELOSA                                        20500
A0101408400394039740001KAINAN SA STAFFHOUSE                                     0506
A0101408400394639219001ROMERO, FRANCISCO GABION                                 0501
A0101409180000001694271LARRAZABAL, MARIA VICTORIA                              10503
A0101409180000001694271MORENO                                                  20500
A0101409180000001694306CABRERA, ESPERANZA DBU E.E.C.                           10502
A0101409180000001694306SOURCE PRODUCTS                                         20500
A0301400820000001185780RUFEROS, ROY KENNETH OR                                 10501
A0301400820000001185780AREVALO, MICHELLE KAY                                   20500
A0301400820000005196829CHU, ANGIE L. DBU BANSUHAN                              10510
A0301400820000005196829ENTERPRISES                                             20500
A5501400120410787960001TANTERAS, EDWIN MONTEJO                                  0502
A2401400180411045435001HP FRANCISCO CONSTRUCTION                                0506
A2401400180411478374002ROSALINA VILLASAN SANTUA                                 0502
A2401400180411478374035MERLINDA D. TAMUDTAMUD                                   0501
A2401400180411478374047YOLANDA L. NINGAL                                        0501
A2401400180411514423001DEALA, BERNARDITA GATCHALIAN                             0502
A2401400180411625023001PROVIDO, JULIET MAHINAY                                  0502
B1201400150421252673001GALANG, ARMANDO DUNGCA                                   1603
A1201400150421369824001MARMELINA I. CAIDO OR                                   10502
A1201400150421369824001BENIE C. CAIDO                                          20500
A0901400220000000425158**********                                               0501
B0901400220000000888166**********                                               1602
A0101403030000000320492**********                                               0502
B0101403320471008854002JESUS LOVES YOU MINISTRIES, INC.                         1605
A0101403320471047334001OLIVAR, MARIA CRISTINA DBU AI2                          10501
A0101403320471047334001DECALS & STICKER                                        20500
A0101406330000001235170CORDOVA, JESSER TABLIGAN                                 0501
A0101406330472027958001A. ANOLIN ENTERPRISES                                    0502
A0101410140000000254408COMSTI, CHARITO C.                                       0501
A0101410140000001939933FERRER, J DBU AJ1201 TREAD                              10501
A0101410140000001939933ENTERPRISES                                             20500
B0501400170481018109002****                                                     1604
A1401400110000000132841*******                                                  0501
A0101407430000003193326JEREMIAS L. TESTADO                                      0501
B0101407430503024216001BASIC POLYPRINTERS & PACKAGING CORP.                     1605
B0101407430503030067002PRODATANET INCORPORATION                                 1605
A0101407430000000141733ROBERTO G. FERRER                                        0501
A0101403580511196754001CARMELITA E. LA O' JT                                    0502
B0101408530516036896001UNITED GRAPHIC EXPRESSION CORPORATION                    1612
A0101412050000001499790JAVIER, RAUL SORIANO                                     0502
A0101412050000005910932NERI, MARIA RITA MOSQUERRA                              10501
A0101412050000005910932AND NERI, NERISSA BELMONT                               20500
B0101403450521011967001ERNES REALTY CORPORATION                                 1601
B0101403450521028565001**********                                               1602
B0101403450521036992001********                                                 1601
B0101403450521240030001**********                                               1610
B0101404130601022494001CARE BEST INTERNATIONAL, INC.                            1604
B0101404130601046787001NORTHPOINT DEVELOPMENT BANK, INC.                        1605
B0101407720602027024001PHILIPPINE ORTHOPEDIC INSTITUTE INC                      1605
A0101407720602382528001MANGUIAT, MARITES TEJADA                                 0502
A0101404260611478374003TROPA, EMELITA                                           0501
A0101404260000001725242BENEFREDA RIGON                                          0502
A0101409920000000998638BONABON, LERNED HAN FONACIER                             0501
A0101409920000000998569MEMBERS OF NATASHA (SHOECAT INC                         10501
A0101409920000000998569PEDROSA, JULIE                                          20500
B0101411530654047137001GOLF HILLS TERRACES HOMEOWNERS'                         11602
B0101411530654047137001ASSOCIATION INC.                                        21600
A0101413570000002976152MANINGDING, MARIA MARILI CABALL                          0502
A0101413570000002976209LUMABAN, FELICIANO PEDRALVEZ                             0502
A0101413570000005895823VITUG, MARIO JOJE OR                                    10501
A0101413570000005895823VITUG, MARIA CECILIA                                    20500
A0101414120000004603150NACIONAL, MARIA CECILIA ABIERRA                          0502
A0101414120000000875441BYT TRADING                                              0501
A0101414120000000875452RODGE JULIENNE ENTERPRISES                               0504
A0101406590000000568792ANG, RONALD BRYAN AO OR                                 10501
A0101406590000000568792ANG, ROLANDO JUINIO                                     20500
A1301400500000005041121PADIERNOS, LIWAYWAY GARCIA                               0502
A1301400500000004093087ME-ANN'S EGG DEALER                                      0504
A1701400230000002347402REYES, CHRISTOPHER RYAN RUIZ                             0502
A0101408240711228456002MA. VICTORIA MANIQUIS                                   10502
A0101408240711228456002OR STEVE MANIQUIS                                       20500
A0101408240711379848001GINA MARIE R. MEDINA                                     0501
A0101408240711512358001TUPAZ, MARTIN ANTHONY RONQUILLO                          0501
A0101408240711512358001TUPAZ, MARTIN ANTHONY RONQUILLO                          0502
A2801400100712786292001GONZALES, KIRSTINE QUITANEG                             10502
A2801400100712786292001AND NAVARRO, ALA                                        20500
B2801400230713046357001THE PROFESSIONAL GROUP MULTIPURPOSE                     11602
B2801400230713046357001COOPERATIVE                                             21600
A4101400260812041334001M.B. JIMENEZ RICE DEALER T                               0502
A4101400260000000002120LUCIANO, MARIA PAZ GOMEZ                                 0502
A4101400260812246527001ISIDRO B. DELA CRUZ JR. OR                              10510
A4101400260812246527001LILIAN H. DELA CRUZ                                     20500
A4101400420000004847992GO, EUGENE JASON CANAON DBU CRO                          0501
B4101400420000000711880GRJ JARO READYMIX CORP.                                  1610
A4101400420000000710234MILLOMEDA, DELIA V                                       0501
A4101400420000002084471ISIP, CLEOFE J.                                          0501
A4101400420814573936001HOPIO, ROSALINDA SUSON                                   0501
A4101400420814635620001CORPUZ, ELMER AGSALDA  OR                               10501
A4101400420814635620001CORPUZ, AMELITA                                         20500
A4101400550815693134001LLANES, TUDOR HERNANDEZ OR                              10501
A4101400550815693134001LLANES, PRESCILLA CARRIDO                               20500
A0101412340000003342601JERMAINE IVY O. DICHOSO                                  0501
A0101412340000003348769EVANGELINE S. SANTOS                                     0501
A0101404840000000475952GONZALES, ROWENA POLLICAR                                0502
A0101404840000002327813CANDELOZA, ANDREAN SALONGA                               0502
A0101404840851478374071MARITESS C. CASARILLA                                    0501
A0101406750852478374004IMELDA TAGUNA                                            0501
B0101405070861017328003SHEPHERD'S NOVELTY CORNER                                1603
A0101405070000001256462ORQUILLANO, JOCELYN BAILEN                               0501
A0101413860000002314272SEVILLA, MA. ELLEN SANTOS                                0501
B0601400230000002650051GUILING, ERICSON DBU JOASH TRADING                       1605
A0101406330472462179001                                                         0503
