A0101413600000008442604JO MICHELLE P. RESURRECCION                              0502
A0101413600000005794610ROWENA D. LAYNO DBU RLR MJL                             10502
A0101413600000005794610MARKETING RESEARCH                                      20500
A0101401960121295973001**********                                               0501
A0101412630000009425167GARCIA, GILBERTO MARTIN                                  0502
A3001400130000001261283LIM, EDGAR ALLAN DIAZ                                    0502
A1301400760000005379411VON RYAN J. MARQUEZ                                      0502
A1901400290261530754004DESSIRE MALALUAN ONG                                     0501
A3801400170000002302932CABAILO JR., FEDERICO AREVALO                            0502
B0101409920000005460624WHITE EAGLE INTERNATIONALE TRADING,                      1602
A0101410300000000026508TAGLE, E DBU E.S. TAGLE TRADING                          0503
B0101410300000007614726LINKFUL PARTNER SOFTWARE COMPANY, I                      1603
A0101400860011589509001**********                                               0505
A0101400860011686506001**********                                               0502
A0101401250021179657001PIGAO, SOCRATES CLAVERIA                                 0503
B0101411370000000018135FOKUSI FACADE INC.                                       1602
A0101400150000000807818OBLEPIAS, MILA BACANTO                                   0501
A0101400150000007280380HUMARANG, ROBERT HERNANDEZ                               0501
B0101400150061039626002MENZI & CO., INC.                                        1602
B0101405810072029570001PLASTIC CONSUMER CORPORATION                             1603
A0101405810072543278001DE OMA, ROLANDO                                          0501
B0601400100000012741383HWARANG VILL CO. LTD.                                    1601
A0601400100000011854114AURELIO,STEPHEN REYES,QUALILIFE                         10503
A0601400100000011854114MEDICAL & LYING-IN CLINIC                               20500
B0601400100081042604002CRK LUMBER AND HARDWARE                                  1603
A0601400100000002072715POLICARPIO, ROMULO EVANGELISTA                           0503
A0601400100081253555002MENDIOLA, JOSEPHINE ADARVE                               0501
A0601400100081380435001MARQUEZ JR., RAYMUNDO PARAS OR                          10503
A0601400100081380435001MARQUEZ, DEBBIE                                         20500
A0601400100081551981001CHAN, SAMUEL ONG OR SOLINA OR                           10501
A0601400100081551981001QUIAMBAO, SHIRLE                                        20500
A0101413730000000144647CHARLENE GABRIEL CHUA                                    0501
A0101414090000001652488CALIWANAGAN, MEDWIN CORREA DBU                          10501
A0101414090000001652488CAPE BUILDER'S TRADING &                                20500
B0101414090000007344512EL INTEGRADO HOLDINGS PHILIPPINES INC                    1606
B0101400730111017239002VENTURO, INC.                                            1605
B0101400730111026571001EASYSTRIDE INC.                                          1605
B0101400730111035655001FSL INT'L. MANPOWER & PROMOTION SERVICES                11601
B0101400730111035655001INC.                                                    21600
B0101400730111306746002VIVENDI CORPORATION                                      1605
A0101401960121238672001**********                                               0502
A0101413150000001288171******                                                   0502
A0101413150000000082660******                                                   0502
A0101413150000000082671******                                                   0502
A0101413150000001288342******                                                   0501
A0101412630000004598132BOLANOS, ELLEN JAVIER                                    0501
B0101412630000007157715BERNAL AND VILLAREAL AND REJAS AND                      11603
B0101412630000007157715CALINGACION                                             21600
A0101401830141473879002MALINAO, EVELYN DE GUZMAN                                0502
A0101412920000002359128DIAZ, FRANZ JEREMY AGUAS                                 0503
B0101407270162044098002GRANTLINE, INC.                                          1605
B0101407270000000830368ONE FOOD GROUP MANAGEMENT SERVICES, INC.                 1605
B0101407270162052125002DELISCENTS, INC.                                         1605
B0101407270162053928002QUANTUS BUSINESS SERVICES, INC.                          1605
B0101407270162063089001REALITY ENTERTAINMENT, INC.                              1605
B0101407270162063091001MOTHERSHIP, INC.                                         1610
A0101407270162681015001JEFFRE P. TOLENTINO                                      0501
A0101407270162712523001JOHNMORRIS P. LIMPANGAN OR                              10501
A0101407270162712523001JANEL S. LIMPANG                                        20500
B0101401090171027712001AIRBORNE SECURITY SERVICE, INC.                          1601
A0101401090000001619030PESO, MARIA CECILIA S. OR                               10502
A0101401090000001619030AQUINO, MARIA CR                                        20500
A0301400530000008307613VIADO, LEZIL DAGOHOY DBU H2 MED                          0501
A0301400530193768155001IMBOY, MARIECHU C. OR                                   10505
A0301400530193768155001IMBOY, JULIUS S.                                        20500
B0301400660000008941055RELY CONSTRUCTION & SUPPLY                               1601
B0301400950000002115840DAVAO BARRIO BISTRO, INC.                                1603
A0101401380000000792109HAUTEA, REGINA BIBAT                                     0501
B0101401380201370046001**********                                               1603
A0101412500000012924904AVILES, ALVIN TABLIGAN                                   0501
A0101413600000008442659JULIE ANN TUAZON OR                                     10501
A0101413600000008442659MARIE JHUCEL CRUZ                                       20500
B0101413600000005524807TRUCKMASTER GOLDEN BODY MFG. CORP.                       1601
B3101400160221036824002ROCKVIEW TRADING                                         1601
B3101400160000004362947SANTUARIO DE LUISIANA ASSOCIATION, INC.                  1601
A3101400450223459293002CORONADO, ABNER LOPEZ                                    0501
A3101400450223466114002NATIVIDAD, GINA DUNGO                                    0503
A1001400190231520766006DELFIN, LORENA                                           0501
A1001400190231520766011PETALVER, RICKY FLORENTINO                               0501
A1301400470000005394356EDWIN M. DIAZ                                            0501
A1301400760000005990003ROWENA D. ALVAREZ                                        0502
B1301400760000000050871ENCORE LEASING & FINANCE CORP.                           1601
A1901400290261425881003EDITHA A ZARA                                            0501
A0101401670000011364639LAVINIA, MARITESS EMBIDO                                 0501
B0101401670000000016300NEWLINE INDUSTRIES, INC.                                 1603
A0101401670271186311001BENEDICT SANDEJAS                                        0501
A0101406460272442863001********                                                 0501
A0101406620273072069001LEANO, DEVI PESSUMAL                                     0502
A0101411820000000589408ARLYNE B. BRANDA                                         0503
B0101411820000000024131POWER BOOKS, INC.                                        1601
B0101400570281015360002SKY CABLE CORPORATION                                    1603
A0101400570281333519001EDITHA M. SIMEON                                         0505
A0101400570281383821001LUISA L. ANG LEY OR LILY L. LEY                          0502
A0101400570281398446001MA. LUISA D. TUANDA                                      0505
B0501400200000006444813CRJ 620 QUICK LOANS CORP.                                1605
B2601400270302039811001JOWELLES AUTO PARTS, INC.                                1610
A0801400160000006272897TRADIO, GERALDINE BARBARA                                0501
A0801400160311389143001CHAN, MILAGROS OR                                       10502
A0801400160311389143001CHAN, NATHANIEL                                         20500
A0801400160000002681729MA. FE M. FACTO                                          0505
A6601400120314044682001QUINNREEVE'S MOTORCYCLE PARTS                            0502
B2001400290315528399001**********                                               1601
A0101402350000005644793ALEJANDRO, JOHN CUEVAS                                   0501
B0101402350321179525001DRA. MA. LOURDES N. CONCHA OR EDWARD                    11601
B0101402350321179525001ALFRED DELA ROSA                                        21600
A0101402350321528563001SABANDO, JULIETA A.                                      0501
A0101402510341487199001NESTOR B. ESTABILLO                                      0501
B0201400890376034814001PRODUCER FEEDMILL INC.                                   1602
B0201400890000007877312NG KHAI DEVELOPMENT CORPORATION                          1601
B0201401020000003031152VIRLO CONSTRUCTION DEV. CORP.                            1610
A0101408370382592860001ANGELINE S. TINGA                                        0502
B0101408790000000039012ARDENT COMMUNICATIONS, INC.                              1603
B0101408790000003845727CAPABILITY PHILIPPINES, INC.                             1601
A0101411660000002309560RIVERA, VENUS TUMPALAN                                   0501
A0101411660000005324072MAMA, SALMA MACARIK                                      0501
A0101402770000004849298INDICIO, RAQUEL LORZANO                                  0501
A0101405490000011287995VALIMENTO, ANNALIZA CRUZ                                 0505
B0101405490000003905173KANITY PRINTING INC.                                     1603
A0101408400394401247002CAPISTRANO, LORALAI REYES OR                            10501
A0101408400394401247002CAPISTRANO JR.,                                         20500
A0101408400394517455001ORDENA, JOVITA VALIR                                     0501
A0101408950000010507074TOBIAS, SHERYL SAPIN                                     0501
A0101408950000012540522DR. CHARLES P. SIA OR                                   10501
A0101408950000012540522CHRISTY ANNE E. SIA                                     20500
B0101408950000010411302EL REFUGIO ARTS AND SCIENCES FOUNDA                      1610
B0101408950000002768416H2004 VENTURES INC.                                      1603
A0101408950396561962001DR. JONNEL LUGOD LIM                                     0501
A0101408950396771951001EVANGELINE S. MAGNAYE OR                                10501
A0101408950396771951001SHIELA MARIZ S. MAGNAYE                                 20500
A0101409180000003882359VALEIRY FLORES                                           0502
B0101409180000009085150RYC GO DINING INC.                                       1602
B5501400120000007963377EASY PAY FINANCE CORPORATION                             1610
B5501400120000000046911MATUTUM PAINT TRADE, INC.                                1603
A5501400120410636179118CHIU, VALENTIN & JULIA EILEEN                           10503
A5501400120410636179118& CHRISTIAN & CH                                        20500
B2401400180411041355088***********                                              1605
A2401400180000010066110MACABANGON, MARLON GUNDUL OR                            10510
A2401400180000010066110MACABANGON, BENEDICTA L.                                20500
A1201400150000011415922HORA, CHARMAINE ANGLUBEN                                 0502
B0101403030441032189001SOLID STRENGTH BUILDERS                                 11601
B0101403030441032189001& SUPPLY                                                21600
A0101403030441239431001**********                                               0501
A0101412890000001056462GO, FLORINDA DE GUZMAN OR                               10501
A0101412890000001056462MANALILI, ZARAH JANE G                                  20500
A0101412890000009833952CHU, MARITA MONTEMAYOR                                   0502
A0101403320000012924237JEFFREY G. RONQUILLO OR                                 10501
A0101403320000012924237FRANCES MAE F. RONQUILLO                                20500
B0101403320471032188001GOLD INDUSTRIAL GAS SALES (GIGS)                         1604
B0101403320471064355001SQUARE METER TRADING AND CONSTRUCTION                   11610
B0101403320471064355001CORP.                                                   21600
A0101403320471505013001RIVERA, REYNALDO MANALAC                                 0501
B0101406330000009413805QUADCORE SOLUTIONS INC.                                  1602
A0101406330472294535002DE VERA'S COMBINED SERVICES REF                         10504
A0101406330472294535002& AIRCON SPECIAL                                        20500
A0101406330472478374045LORNA D. GARADO                                          0502
B0101406330000000432875**********                                               1610
B0501400170481023482001ARZADON LEISURE CORPORATION                              1605
A0501400170481039591001MACA DEO REGALIA REALTY                                  0501
A3801400170000012923490AUSTRIA, FERNANDO A DBU                                 10501
A3801400170000012923490FUNERARIA NAUJAN                                        20500
A1901400160000012924328GUILLERMO V CABELLO OR                                  10501
A1901400160000012924328LILIAN R CABELLO                                        20500
A1401400110000001806800BRAVO, EVALOR CABUYA OR                                 10501
A1401400110000001806800BRAVO, RUEL BALD                                        20500
A1401400110000008266262CADA, JOAN MANCENIDO                                     0501
A1401400110000008266342DELA ROSA, VIOLETA AQUINO                                0503
A1601400170000000421116QUA JR, WILLIAM CADAG                                    0501
A0701400260000005303713EVANGELISTA, EDUARDO ERNESTO                            10502
A0701400260000005303713ALMEDA                                                  20500
A0101407430503225389001BRIAN A. PINEDA                                          0501
A0101405940000002268653BANIEL, BEN FABALE                                       0502
B0101405940000000002951ALEXANDER COMMERCIAL, INC.                               1603
B0101405940512005383001ALEXCOM CONSOLIDATED RESOURCES, INC                      1602
B0101405940000000002911LAPANDAY PROPERTIES PHILIPPINES,                        11603
B0101405940000000002911INC.                                                    21600
B0101405940000003571737HOT DISK CORP.                                           1602
B0101405940000003571748CELESTIAL OMNI RESOURCES ENTERPRISE                      1601
A0101408530516519910001TAN, LYDIA YANG                                          0501
B0101403450521021842005WALL VISION CORPORATION                                  1603
B0101403450000008380898***************                                          1602
A0101403450521238538002**********                                               0502
A2201400250000003558190EDWIN S. ESPIRITU OR ANNA                               10501
A2201400250000003558190JESSICA S. ESPIRITU                                     20500
B0101410690000000710796WH & P REALTY CORP.                                      1602
A0101404130601492629001****************                                         0501
A0101407720000003886813KRISTANTO, HARRIS                                        0501
B0101407720602022876001VICTORY ART LABORATORY PHILS., INC.                      1601
A0101407720602162133002SILVA, MA. DIVINA BORJA                                  0502
A0101407720602163479001DR.EUSEBIO ANTONIO G. LLAMAS OR                         10510
A0101407720602163479001DR.AGNES CECILLE LLAMAS                                 20500
A0101407720602313187002SANTOS, CHRISTINE THERESE AMURA                          0505
A0101407720602318369109NIDA A. EUSTE                                            0501
A0101407720602330505002NAZARIO A. MACALINTAL JR. OR                            10501
A0101407720602330505002MERCEDITA M. MACALINTAL                                 20500
A0101407720602332279002CAYCO, ANTONIO V. OR                                    10502
A0101407720602332279002CAYCO, MARGARITA                                        20500
B01014077206024892100011stMARK GLOBAL MEDICAL SERVICES, INC                     1602
A0101407720602489773001MERCADER, MARY JOSEPH ABITRIA                            0501
B0101407720602531639007INTELLIGENT BEAUTY SKIN SOLUTIONS INC.                   1610
A0101407720602620898002DOMINIC LEMUEL B. SEVILLA DMD                            0502
A0101407720000000112089RAMOS, JENNIFER GALAPIN                                  0501
B0101404260611035660001BETERAVIA CREDIT CORPORATION                             1603
A0101404260000003498453CASTILLO, CIPRIANO                                       0501
A0101404260611434800001LLARENAS, RODOLFO PARAGATOS                             10510
A0101404260611434800001AND VERNIE BUNO                                         20500
A0101407690652371018001**********                                               0501
A0101407690000000913973******                                                   0501
A0101407690000000053881********                                                 0506
A0101413440000001473018DULNOAN, MARY JANE DL                                    0501
A0101413570000011434814ANG, JULIANNE PAZ FABIC                                  0502
A0101410300000011355514SISON, ERIC LOUIE OR SISON,                             10501
A0101410300000011355514AURORA MARGARET                                         20500
B1301400210682009968001PRIMA PLASTIC MFG. CORP.                                 1604
A1301400340683489097001REYES, KRISTIN MANALO                                    0501
A0101408240000000521771CASTILLO, JUAN MIGUEL DOMINGO                           10502
A0101408240000000521771JT                                                      20500
A0101408240711398939001FERNANDEZ, CHARLES HESED P. JT                           0503
B2801400100712031823001REYES, DIANO, TUMANDA & CO.                              1602
A4101400420814422280001DELGADO, ELVIRA CARIENENA                                0502
A4101400420000006643490LA AS, NORA P.                                           0501
A0101404840000000683585ROXANNE P. AGUILLON                                      0501
A0101404840851478374066ELSA A. ACLAN                                            0501
A0101404840851520766073ELIZABETH A. SUAZO                                       0501
B0101405070861197658001****************                                         1602
A0101405070861366707001ARELLANO, MA. ELENA BALLESTEROS                          0502
B0601400230000010299222SAINT MARY KIDNEY CARE, INC.                             1610
B0601400230000010299142LUCKY S HARDWARE                                         1603
B0601400230000005510309CANLAS, ROMEL DAVID                                      1601
