B0101409050352821100608**********                                               2002
A0101400440000000821101ORENSE, JULIA A. OR                                     10501
A0101400440000000821101ORENSE, EDWIN J.                                        20500
B0101406460000000712849WEE COMMUNITY DEVELOPERS, INC.                           1605
A0101403580000005328536OLINGAY, FRANCES JOAN PERILLO                            0501
B0101412180000001293016JENNIEDEDIOS INC.                                        1603
A0101400860011742231001**********                                               0505
A0101411370000003548925AW, HARVEY LIM                                           0502
B0101400150061026207004PHINMA ENERGY CORP.                                      1603
A0101400150000004090704SYLIANTENG, BENEDICT EMANUEL PA                          0502
B0101400600071011421002******                                                   1602
B0101405810072011448001C.P.P.C CONSUMER PACKAGING PRODUCT CORP.                 1601
B0101405810000005943320D.W. PLASTIC CORPORATION                                 1601
A0101405810072234663001************                                             0501
A0101405810072367320001**********                                               0506
A0101405810072552382001WU, STEVEN WANG                                          0505
A0101413280000000041852OLA, EDAM CRUZ DBU HIJK SHIRT                           10501
A0101413280000000041852PRINTING & DESIGNS                                      20500
B0101400730111019171002RHINE FOODS CORPORATION                                  1605
B5001400170000000214042*********                                                1615
B0101412920160065986001ENERTHRUST INTERNATIONAL INC.                            1605
B0101400440000000337751COMMANDER RANGE & SPORTS CLUB, INC.                      1605
B0101400440000000337808COMMANDER AUTOMATION & ELECTRONIC                       11605
B0101400440000000337808SECURITY SYS INC                                        21600
A0101400440161443113001ARVIN JON A. FU OR                                      10501
A0101400440161443113001DERYL BANGAYAN F                                        20500
A0101400440161538462001ROMEL A. ADDUCUL OR                                     10502
A0101400440161538462001JOCELYN C. COBAN                                        20500
A0101407270162528842003MIGUEL ROBERTO M. GARCIA                                 0508
A0101401090171457732001MARCELA MILA D. DAYA                                     0501
B0301400530000002318463YANG, ANDREI REYES                                       1605
A0301400530193060848001LEPA MILL MASTER                                         0501
A0301400660000001113795VILLADAREZ, RICHARD RANIS                                0501
A0101401380201707236001KIM, HAE KYUNG                                           0502
A0101410720000006128792G.R.O.W. ENTERPRISE                                      0501
A0101410720653286682002MACAISA, MICHELLE ABADA                                  0502
B3101400160221065820001TOYOTA CALAMBA, LAGUNA INC.                              1601
A3101400450223550865002LOPEZ, CELIA CONDUCTO                                   10510
A3101400450223550865002OR LOPEZ, PAOLO                                         20500
A3001400130000001271556WABINA, JOEL BASADRE                                     0501
A3001400130000002063441JONGKO, JOSE MARI MARCO OR                              10501
A3001400130000002063441JONGKO, DEBORAH                                         20500
A1001400190000002170634LOPEZ, JOSE VICTOR MAPUTE                                0501
A1001400190000001057589NORMALIS C. REYES                                        0501
A1001400350000007762436XXXXXXXXXX                                               0502
B1001400480000003028931BELICAN, ALDIN TORNIADO DBU BELICAN                     11603
B1001400480000003028931TRUCKING                                                21600
A1301400470000005394345FELIX B. CAMACHO                                         0502
A1301400470252482273001DRA. LEONOR J. DIZON                                     0501
A0101406620000003661534VALERIANO, MA. TARA ANDREA P.                            0502
B0101406620000000015005CARPIO & BELLO LAW OFFICES                               1601
A0101408660000006296644BACLAO, MA. ERIKA NICOLE LIBORO                          0502
A0101412470000000853834CHUNG, EUN JOO                                           0502
A0501400200000004456957COBARDO, LEVI DAGSAAN                                    0501
A2601400270000006014853HECTOR A. MARCELO JR. OR                                10503
A2601400270000006014853MARGARITA A. MARCELO                                    20500
A2601400270000002677592EMILY GRACE M. ANCHETA                                   0502
A2601400270302421786001A.C. JAN C. AMBROSIO                                     0501
A1101400120000001920678PALMA, JHOWIEN ROYO                                      0501
A1101400120000006186467BOCAR, GILBERT GONZALES DBU                             10501
A1101400120000006186467BOCAR STORE                                             20500
A1101400120000000652351YAO, RONALD PHILIP GO                                    0501
A2001400290000001973748TUCIAP, FELIMON BANGAYSISO                               0501
A2001400290315042654001GFR TIRE SUPPLY AND SERVICE                             10505
A2001400290315042654001CENTER                                                  20500
A0101402350321478374017RIZA G. SANTOS                                           0503
A0101402350321478374059BERNARDITA D. LOPEZ                                      0501
A0101402510341325995001ALEX TAN LIM                                             0501
A0101402060351349405002YAP, JAMES YU                                            0501
A0101409050000008636471FRISTAN ENRICK B REYES                                   0501
B0101409050352821200608**********                                               2001
B0201400760374036911001CEBU ATG REALTY DEVELOPMENT CORP.                        1601
A0201400890376504512001A.I. BUILDERS & SUPPLY                                   0501
A0101402930000003735277TUMANDA, GLADYS ZERVOULAKOS                              0501
A0101402930381488888002EDWARD P. LIM                                            0501
A0101408370382738984001MEDRANO, ANA BEATRIZ                                    10505
A0101408370382738984001DELOS REYES                                             20500
A0101408790000005251092PACSON, CHARLYN MAE PALLANAN                             0502
B0101408790383039290001AUTO SOURCES INC.                                        1605
B0101408790383040734001RADIOWEALTH FINANCE COMPANY, INC.                        1602
B0101408790383042893001UNIBAG POLYSACK CORPORATION                              1603
A0101402770000001570770BENJAMIN NAVAL VICTORIA                                  0501
A0101402770391212232001RODOLFO R. SAN JUAN, M.D.   OR                          10502
A0101402770391212232001LILIA L. SAN JUAN, M.D.                                 20500
A0101402770391485223002AVILA, ROMEO M. OR                                      10501
A0101402770391485223002AVILA, LOURDES R.                                       20500
A0101405490000000232620DE LA ISLA, ROSELL MANLAPIG                              0502
B0101405490392030408001BTD ELECTRICAL MERCHANDISE                               1606
A0101408950396411684001GANI, SUKARNO KANAY                                      0502
A0101408950396771951001EVANGELINE S. MAGNAYE OR                                10501
A0101408950396771951001SHIELA MARIZ S. MAGNAYE                                 20500
B0101409180397024361001ASALUS CORPORATION                                       1603
A0101409180397486750002TARROZA, MICHELLE CANAUAY                                0503
A0101409210398670961001DEL ROSARIO, CECIL GOMEZ                                 0502
A0301400820000005991702CARISOSA, JERSON L.                                      0502
A0901400220432518401001**********                                               0506
A0101403320000001646631SANTIAGO, LEILANI SANTIAGO                               0502
A0101403320471205827001JOWIN TRINIDAD OR                                       10501
A0101403320471205827001MARISSA TRINIDAD                                        20500
B0101406330472021511001ASSOCIATED WIRE CORP. OF THE PHILS.                      1610
A0101406330472040682001POSH & FAME SALON                                        0501
B0101406330472045599001BES SERV LOGISTICS CORP.                                 1603
A0101410140000001939973CASTILLO, R DBU VRMJ MANPOWER S                          0502
A3801400170000005702723DE LEON, ANTONIO ROXAS OR                               10501
A3801400170000005702723DE LEON, JESITA                                         20500
B3801400170490065993001CILLO, DONAR ANDAL DBU MDMC HOG DEALER                   1601
A1901400160491739070001EMMALYN GRACE C KHO OR                                  10501
A1901400160491739070001JOAN C KHO                                              20500
A1401400110000001806873********                                                 0502
A1601400170000000099161JACINTO R. BALMES OR                                    10505
A1601400170000000099161MARILYN Z. BALMES                                       20500
B1601400170494060395001CERDENO CONSTRUCTION & SERVICES                         11601
B1601400170494060395001CORPORATION                                             21600
B1601400170494064160001LAGUNA L & I ICEPLANT INC.                               1601
A0101403580000003311720LOPEZ, GERRY ECLARINAL OR                               10501
A0101403580000003311720LOPEZ, JOCELYN PILI                                     20500
B0101406880513036413001VISAYA KNOWLEDGE PROCESS OUTSOURCING                     1606
A0101408110000005288713FIEDALAN, EDWIN VALDEZ                                   0501
B0101408110000001199322CASUAL CLOTHING RETAILERS, INC.                          1602
B0101403450521011604001CROWN ASIA COMPOUNDERS CORP.                             1602
B0101403450521011608001***********                                              1603
A0101403450521237398001CLAIRE ANN T. YAP OR                                    10502
A0101403450521237398001DIANA TANKIANG                                          20500
A0101403450521239669001**********                                               0501
A0101403450521402316001************                                             0501
A0101403610000009847130GALLOR, ROSENDA CAGUITLA AND                            10501
A0101403610000009847130GALLOR, EDILBERTO A.                                    20500
A2201400250000001932214CORTEZ, RONALD THOMAS ARELLANO                           0501
A0101404130601451527001MA. PAZ OR EMMA ERLINDA OR                              10502
A0101404130601451527001GERARDO OLIVERIO LAPERAL                                20500
A0101407720602397742001FERNANDEZ, RICARDO OCAMPO                                0506
A0101404260611709438001TAN, ERLINDA PALOMER                                    10501
A0101404260611709438001OR RONNEL TAN                                           20500
A1301400210682302295001WILFREDO M. CLAUDIO OR                                  10504
A1301400210682302295001  LUCIA CLAUDIO                                         20500
B1301400500684043164001MUYCO MARKETING                                          1603
A1301400500684614643001PANGILINAN, PETRONILA G. OR                             10502
A1301400500684614643001PANGILINAN, RAMON C.                                    20500
A1701400230000007430931BRINGAS, WILBOR ABELLA                                   0501
B1701400230000002762581JOHN HENRY CAR CARE CENTER                               1605
A1701400230000001786821JUN & CAROL BEACH COTTAGES                               0505
A0101408240000007478239CAMBAY, ALMA CONTRERAS                                   0502
A2801400100000003116678PINEDA, RAYMUNDO AURELIO VITUG                           0502
A2801400230000000937617GARCIA, JENNEN JULAO                                     0501
B2801400230000001580296DEL ROS AMUSEMENT ENTERPRISES, INC.                      1601
A4101400260000000002120LUCIANO, MARIA PAZ GOMEZ                                 0502
A4101400550000006044311SALVACION ELECTRONICS SALES                             10504
A4101400550000006044311CENTRE                                                  20500
B0101412340000000030866DENSCOTH BUSINESS SOLUTIONS INC.                         1605
A0101404840000005820468GLENSON APPAREL                                          0502
B0101404840000003069710ESPORLAS, AURELYN AREVALO DBU ALDRE                      1602
A0101404840851520766037MAGDALENE DE GUZMAN                                      0502
A0101406750000003393140FUENTEBELLA, JOCELYN PANGILINAN                          0501
B0101406750000005608419PTM JILA LEARNING CENTER INC.                            1602
A0101406750852669100001DUDANG, VICENTA TOLENTINO                                0501
A0101405070861478374004WINIEFRENDA O. PILANDE                                   0503
B0101413860000008668700**********                                               1602
A0601400230000000990052DAYAO, MARIBEL MASIBAC                                   0501
A0601400230891527563001MELINDA M. MANALO                                        0502
