F0301400790195050943002INDORAMA VENTURES PACKAGING                             12605CK1
F0301400790195050943002(PHILIPPINES) CO                                        22600CK1
F0301400110191059510002ZOOFARI GROUP INC.                                       2605CKR
F0101408400394034368007W HYDROCOLLOIDS, INC.                                    2604CKR
F0101415190000001745699TASKUS, INC.                                             2605CK1
F0101408110515062411001XORAND SOLUTIONS COMPUTER                               12604CKR
F0101408110515062411001CORPORATION                                             22600CKR
F0101404680651297826002YOLANDA LIM OR MELISSA CABIGON                          12605CKR
F0101404680651297826002OR SHIELLA LANGC                                        22600CKR
F0101408240711444420001FRANCIS YAN OR                                          12502CKO
F0101408240711444420001MARY ANNE YAN                                           22500CKO
F4101400260812031790001SY ON INC.                                               2610CKO
