B1901400290261821100608**********                                               2010
A0101405650322688572001JAVIER, MIGUEL ALFONSO BUNCIO                            0501
A0101413310000005433227GUEVARA, DOMINGO JUAN SEBASTIAN                         10501
A0101413310000005433227ARROYO                                                  20500
A0101401830141292667006MAGTALAS, GEMMA B. OR                                   10501
A0101401830141292667006MAGTALAS, JOHN GEMMO B.                                 20500
B0101412920160064647001PALAROAN, LEONILA MALIGIS DBU MAR-NENG                  11602
B0101412920160064647001SEAFOOD STALL                                           21600
A0301400530000002318561VILLANUEVA, FEDERICO MAGPAYO OR                         10501
A0301400530000002318561VILLANUEVA, MARI                                        20500
B3001400130230043534001BERRY HAPPY MART INC.                                    1604
A0101411240000000629210MUELLE, DANIEL CHRISTIAN ANADIL                          0501
B0101405650322022799003FUEGO LAND CORPORATION                                   1605
A0101405650322173415001LOPENA, MARITES B.                                       0503
A0101402060351036454001TRITECH TRADING                                          0501
A0101408240711408446001MARIE YVONNE DE LOS REYES OR                            10502
A0101408240711408446001MARTIN DE LOS REYES                                     20500
A0101405810072300425001**********                                               0501
A0101405810072383141002WANG, CIHAI                                              0502
A0601400360083751205001DALINA, MARIA CRISANTA MILLAR                            0504
A0101410850000009082742CARITATIVO, JUAN PAULO RAZON                             0501
A0101400730111478374028LIBRADA MAGNO                                            0503
A0101406040000003332954NERVES, JOSE ROLITO NAPA DBU                            10501
A0101406040000003332954JRN GENERAL MERCHANDIZE                                 20500
B0101406040000000096742********                                                 1601
A0101401960121285558001**********                                               0501
A0101412630000004609643ARCEO, JESUSA ACULLADOR                                  0502
A0101401830141292667002GEMMA OR LEE MARVIN OR                                  10505
A0101401830141292667002JOHN GEMMO MAGTALAS                                     20500
A0101401830141292667003MAGTALAS, GEMMA OR LEE MARVIN                           10505
A0101401830141292667003OR JOHN GEMMO                                           20500
A7201400170000003773182YU, TESSIE JO OR                                        10502
A7201400170000003773182ODTOHAN, THELMA YU                                      20500
A5001400170000001003381CALIMUTAN, OHARA DELA CERNA OR                          10501
A5001400170000001003381CALIMUTAN, REGINALDO                                    20500
B5001400170000000045025S. A. MALON LENDING CORP.                                1601
A0101400440000004901440NLR INSURANCE SERVICES                                   0504
A0101407270000009066899DE OCAMPO, MARIA ROSELA HIPOLIT                          0501
B0101401090171036158001AIRBORNE MAINTENANCE AND ALLIED                         11602
B0101401090171036158001SERVICES INC.                                           21600
A0301400530000002318561VILLANUEVA, FEDERICO MAGPAYO OR                         10501
A0301400530000002318561VILLANUEVA, MARI                                        20500
A3101400450223701659001GRANT INSTITUTE OF TRADE AND                            10505
A3101400450223701659001TECHNOLOGY                                              20500
A3101400740224710022001DAVID, MERRY GRACE CORDERO                               0502
B1901400290000001363213TOYOTA LIPA, BATANGAS, INC.                              1602
A1901400290261087553001MARIA JEOFFRIZA SARMIENTO DIAZ                          10505
A1901400290261087553001OR RUBYRONA D LLAVE                                     20500
A1901400290261327130001SONIA INDUCTIVO CAPUCHINO                                0502
A1901400290261390520001JOEL PUNZALAN DIMAANO                                    0502
A1901400290261493025068DR EDWIN C CASTILLO                                      0502
B0101406620273034421001UNIOIL PETROLEUM PHIL., INC.                             1601
B0101406620273044226002QUANTUM REINSURANCE BROKERS, INC.                        1605
A0101406620000004926085JOHANNA Y. DEE                                           0501
A0101406620273521300001GARCIA, LEO MCGUIRE OR                                  10501
A0101406620273521300001GARCIA, CARMEN                                          20500
A0101400570000009073872ESPINAR, MARIA ROSELA BUENAVENT                          0501
A0101400570000009080928GUMBOC, RODALIZA MANGLICMOT                              0501
A0101400570281376809001FLORENCIO CORONEL AND LEONCIA                           10502
A0101400570281376809001CORONEL                                                 20500
A0101411240000001026851MARQUEZ, YOLLY MONTESA                                   0501
A2601400270000000019532ENRICO ARTURO A. GUINTO OR                              10505
A2601400270000000019532CARLO ESTEBAN A. GUINTO                                 20500
A6601400120314041332001SOPHIES CATERING                                         0502
B0101405650000000772812ONE BFCEA INC.                                           1602
B0101405650322022799003FUEGO LAND CORPORATION                                   1605
A0101405650322041571001EUGENE D. MANIQUIZ                                       0501
A0101405650322412858003PATATAG, HERMINIA SALAMERO                               0501
A0101405650322795084001PAULO B. VALDEZ OR                                      10501
A0101405650322795084001STEPHANEY ANN S. VALDEZ                                 20500
B0101402060351505927001AUTOMEKANIKA, INC                                        1602
A0101402060000000358816MARIANO, RONIE DE JESUS                                  0501
B0101409050000000258582BITUMEN GLOBAL ALLIANZ INC.                              1603
A0101409050000000939339CALVEZ, JOAN GARBO                                       0501
A0101409050000002333211*****                                                    0501
B0201400760374033207001W.T. CONSTRUCTION, INC.                                  1606
B0201400760374043228001MAYHWA STEEL CORPORATION                                 1608
A0201400760000002047412CHING, JOSEPHINE LIMCHESING DBU                          0502
A0201401020000000056459ENRIQUEZ, LURA EVELYN LUMANOG                            0501
B0201401020000007458195TITCO, MA. CHERIELENE S. DBU WELLSTUFF                  11601
B0201401020000007458195TRADERS                                                 21600
A0101408790000002326154JACOBO, CECILIA DORIA                                    0501
A0101402770391013439001JIREH'S CAR PAINT SHOP                                   0502
A0101405490000004352954PAJARILLO, ROWJELYN MARAVER                              0501
B0101405490000003905151ASIA PRIME REALTY NETWORK, INC.                          1603
A0101405490000000530874JOYA, MADELYN CASANADA                                   0501
A0101409210000007762954TOLENTINO, JENAIDA MANDADO                               0501
A0301400820000004745922PADASAY, NOLI M.                                         0501
B2401400180411035164001MOMMY GINA TUNA RESOURCES (MGTR), INC.                   1605
B2401400180411037037001GENSAN FEEDMILL, INC                                     1605
A2401400180411415027001VENERACION, JESUS CRUZ                                   0501
A1201400150421253624001GUANZON, ALICE D. OR                                    10506
A1201400150421253624001GUANZON, DELFINO                                        20500
A1201400150421253953001CRISTINA F. TEJADA                                       0503
A0901400220000000425045LOZADA, ELIZABETH GO                                     0501
B0101403030441039990001TOPTRUCK ENTERPRISES                                     1601
B0501400170481023482001ARZADON LEISURE CORPORATION                              1605
B3801400170000000018777ANTONIO CATIBOG II OR ZENAIDA CATIBOG OR                11605
B3801400170000000018777HAZELYN ACEDERA                                         21600
A1401400110492543449001ACEITUNA, MYRNA CANZON                                   0502
A0101406880513153645001ELOISA M. SANTIAGO                                       0501
A0101408110000002364809SALES, JOCELYN BUSTAMANTE                                0501
B0101408110515018155001PHIL. ASSOCIATION OF PAINT MFRS.                         1605
B0101408530000007318090SEARCHERS & STAFFERS CORP.                               1610
B0101408530000007318103SL TEMPS INC.                                            1610
A0101408530516571877050ANNA VICTORIA A. CO                                      0502
A0101408530516720656001BERECIARTE, AIKO MARIE GIL                               0501
A0101411790000001295245GOMEZ, HANNALEE MIANO                                    0501
A0101411790518055815027MANABAT, ELAINE BUNDALIAN                                0501
A2201400250561484428001WILSON LAO SIO OR                                       10502
A2201400250561484428001EDUARD LAO SIO                                          20500
B0101404130000004437172GAME CRAFT, INC.                                         1602
B0101404130000004437183GAME CRAFT, INC.                                         1602
B0101404130000004437194GAME CRAFT INC.                                          1602
A0101407720602398588001GARCIA, JOSEFITA AZCONA                                  0502
A0101407720602398798001AVANCENA, MARIA CORAZON MONZON                           0501
A0101407720602466238001EDUSMA-DY, REGINA TAN                                    0501
A0101404260611343821001FONTANOZ, EDGAR OR JUDITH                                0505
A0101409920000001951982MEMBERS OF NATASHA (SHOECAT INC                         10501
A0101409920000001951982TORRELIZA, GINA                                         20500
A0101411530000006217574MOMMY & ME ENTERPRISES                                   0503
A0101414120000004603230DIZON, JAN MARIELLE DALAWAN                              0502
A0101414120000005252784ROBERTO ASIS OR ZENAIDA MENDOZA                         10501
A0101414120000005252784OR CARMELITA SAMBRANO                                   20500
A0101406590662208118001CYNTHIA OR CHERYL MYLA ARCINUE                           0501
A0101406590662562414001RUSTE, RUTH ALLEN ANTONIO                                0506
A1301400210000005040555HAO, BELINDA VIQUIERA                                    0502
B1301400210682043735001BULACAN SPORTS COUNCIL FEDERATION I                      1606
B1301400210000000023587LA CONSOLACION UNIVERSITY PHILIPPIN                      1605
A1301400210682325433001WILHELMINA DC DOMINGO                                    0501
A1301400500684760808001DEL POSO, MARLON SANTOS                                  0501
B0101408240711039418001IKOGH'ENIA INC.                                          1603
A0101408240711418819006RICA S. BAGATSING                                        0501
A4101400390813478374035PLACIDES, MICHAEL                                        0502
A4101400420814520766118ADOC, MYLEN A.                                           0502
A4101400420814520766139VILLAMAYOR, MINA                                         0501
A0101404840000000683483HERNANDEZ, HERMELINA BURGOS                              0503
B0101404840000001312309LIFTER SYSTEMS INC.                                      1605
A0601400230000000029718LACAP, MILAGROS MACATO                                   0501
A0601400230000005185855PANCHO, JASMIN KRISTIA OCAMPO                            0501
