B0101405940512821100608**********                                               2050
A0101410720653482939001REV. FR. ELENO G. TEPACE                                 0502
B0101410720653041869001MATSUBI TRADING                                          1602
A0101410720000008730723DE JESUS, C DBU CARL'S FURNITUR                          0502
A0101410720000002283985DIAZ, CELINA CRUZ                                        0502
A0101410720653478374010SOCORRO MARASIGAN JIMENEZ                                0503
A0101405650000010318931REMULLA, DANIEL JOHN PEN                                 0501
A2401400180000013867020EDMILAO, STEVEN SHAY AUSTIN S.                           0501
B2401400180411017908001LWC CYCLE MART, INC.                                     1602
B2401400180411033733033ECA RESOURCES, INC.                                      1602
A2401400180411577135001***************                                          0505
A0101406590000000568849CORRIDOR, CARIDAD RIVERA                                 0501
A0101406590000013528213MENDOZA, VERONICA ZALAMEDA                               0502
B0101406590000011637477CBCOMM                                                   1601
A4101400260000012860054BALMES, ELBERT BOLIDO                                    0501
A0601400520000000786421NAGUIT JR., JOSEFINO FIGUEROA                           10501
A0601400520000000786421DBU JOSEFINO'S G                                        20500
A0101410720000007843425LADIA, APRIL IRIS RUPIDO                                 0504
B0101406620273020001001ASIAN CREATIVE CONTENT EXPERT AND                       11601
B0101406620273020001001SOLUTIONS SPECIA                                        21600
A0201400760000000223178LIANG, YANHU                                             0502
B0201400760374006430001CHRIST COMMISSION FOUNDATION INC.                        1602
A0201400760000002047343ANORE, SEAN LABRA DBU CAFE BELL                          0501
A2401400180000000073550ALBARRACIN, JEMAR DEGAMO                                 0502
A0101406590662206611001ARACELI S. DEL ROSARIO                                   0501
A4101400260812403511001BOSITA, CHRISTIAN DUA                                    0501
A4101400260000000002142TAJANLANGIT, JACKIE C.                                   0501
A0101400860011350677001**********                                               0501
B0101400860011397647001**********                                               1602
B0101401250021013681001P.J. LHUILLIER, INC.                                     1610
A0101400150000008044142GELANO, ANGELO RECTO                                     0501
A0101400150000000807881REYES, NOEL SERRANO                                      0503
A0101400150000003164918ELAINE GRACE B. LIMOANCO                                 0501
B0101400150061011117001CARAVEL RESOURCES, INC.                                  1601
B0101400150061028045003CENTERPOINT CSGT DISTRIBUTION, INC.                      1601
A0101400150061039916176RUSTIA, SOCORRO                                          0501
B0101400150061058102003BRIGHT RANGE OPERATIONS INC                              1601
B0101400150061058106003ADVECT MARKETING CORPORATION                             1601
A0101400150061316616002NAPENAS, VICTOR TUAZON OR                               10501
A0101400150061316616002NAPENAS, VICTOR                                         20500
B0101400600000001335853********                                                 1620
B0101400600000000007730********                                                 1601
A0601400100000009323973ABALAYAN, RHEA GOMEZ                                     0501
B0601400100081025784001QUANTA PAPER CORPORATION                                 1602
A0601400520000005943702IMPACT BALIBAGO ARTS AND CRAFTS                          0502
A0101406040112420545001MITCHIE F. MANATAD                                       0502
A0101401960121348042001YAP, HELEN SY                                            0501
A0101413310000008415343BURGOS, LANI SIOSON                                      0502
B0101413310000000040024LIBERTAD TRADING CORPORATION                             1601
A0101401830000000865141MURILLO, JOSIE FUSTER                                    0502
A0101401830000009375675RICHARD REDRICK P. SALIMBAO OR                          10502
A0101401830000009375675JESUSA V. SALIMBAO                                      20500
B0101401830141034725001LINGKOD SIMBAHAN MULTI-PURPOSE COOP                      1602
A0101401830141207213002LILIA C. GALINDO OR                                     10502
A0101401830141207213002REBECCA C. BUENA                                        20500
B0101401830141490206001FUTUREBUILDER PUBLICATIONS INC.                          1605
A7201400170000000040575ELCAMEL, BELEN PEDROZA                                   0502
A5001400170000003324041BOMBEO, BEODALDY PATERNO OR                             10502
A5001400170000003324041BOMBEO, JANNIE C                                        20500
B5001400170000000169846DIPOLOG TOP CONSTRUCTION AND DEVELOPMENT                11601
B5001400170000000169846CORPORATION                                             21600
B0101412920000000042111DIZON, DELEXTER JOHN SCHNUPP DBU 3                      11601
B0101412920000000042111ANGELS MARKETING                                        21600
B0101400440161027073001SILVER ARROW STOCK FARM, INC.                            1601
A0101400440000004901564DOVIE T. JERMIA                                          0502
A0101400440161190481002HELEN L. LEONG                                           0501
A0101400440161478374076JAYNE D. BARBIN                                          0501
A0101407270000009673538CONCIO, MA.  ROSARIO SANTOS                              0503
B0101407270162008543001INTERNATIONAL HEAVY EQUIPMENT                           11610
B0101407270162008543001CORPORATION                                             21600
B0101407270162043415001MY HAPPY FARMER MACHINERY CORPORATION                    1601
B0101407270162046726001VALUE CARE HEALTH SYSTEMS, INC.                          1650
B0101407270162046726001VALUE CARE HEALTH SYSTEMS, INC.                          1650
B0101407270000004558403RAMCAR BATTERIES INTERNATIONAL LIMI                      1605
A0101407270000003253983SPIRO L. CLEMENTE                                        0502
A0101407270162200796001TIRONA, MARIA TERESA A. OR                              10502
A0101407270162200796001TIRONA, WILFRIDO                                        20500
A0101401090171195906001DR. IRWIN V. RIVERA OR                                  10504
A0101401090171195906001DR. CLARA R. RIVERA                                     20500
A0101401090171201177001LUZ C. DE GUZMAN                                         0502
A0301400530000013781096*******                                                  0510
B0301400530193035726167TAGUM PIONEER FOODS CORP. - 1                            1603
A0301400660000005691881CHIU, PETER PAUL VINCENT CUE                             0502
A0301400950000010424790**********                                               0504
B0301400950000009938287SAN SALVADOR SHIPMANAGEMENT, INC.                        1601
B0101401380201497403001HACIENDA ISABELLA GROUP INC.                             1602
A0101410720653473684001BERBA, MARIA RITA TERESA VILLAC                          0501
A0101413600000005355244ALBERT C. GUMISAD                                        0502
B3101400160221037479001TABLERIA LA CONFIANZA CO., INC.                          1601
A3101400450223019912001LAGUNA HEALTH SERVICES                                  10510
A3101400450223019912001COOPERATIVE                                             20500
A3101400450000000163506PEREZ, RAFAEL SALAMAT                                    0501
A3101400740224087806001NECESARIO, EDUARDO PASTOR                                0502
A3101400870000003515353DUNGOG, AMANDA BASCO                                     0501
A3101400870000013938231SARSOZA, JIMMY BERMUDEZ                                  0501
B3101400870000005960701TOMO GOLD TRUCKING SERVICES, INC.                        1602
A3001400130000008916081CAVAN, MELCHOR SUIZO                                     0502
B3001400130000006004671UHLAND LOANS CORPORATION                                 1602
A3001400130000010506491TIU, RAYMART LIM DBU RLT TECH                           10502
A3001400130000010506491SOLUTIONS                                               20500
A1001400190231332648001UBA, VINCENT CABALLERO                                   0501
A1001400480000000041523PO, MARILOU TRAJANO OR PO,                              10503
A1001400480000000041523MAUREEN TRAJANO                                         20500
B1001400480000007775275LOPE LARANJO BATO & CO., CPAS                            1604
A1901400290000001363042SIASON, JEMALYN P.                                      10505
A1901400290000001363042DBU VONHESSEN TRANSPORT                                 20500
A1901400290261298552013LEONILA QUESADA GUEVARRA                                 0501
A1901400290261298552022ALVIN DEL ROSARIO MAGNAYE                                0502
A0101401670271619785001CHONG, ALAINE MARGARET CHUA OR                          10505
A0101401670271619785001CHONG, BERNARD LU                                       20500
B0101406620273037461002FIRENZE CORPORATION                                      1601
A0101408660000008622140PASTRANA, ARNOLD DENOSTA                                 0503
B0101412470000012117592**********                                               1602
A0501400200000005751635PERDIDO JR., LEONARDO DIWATA OR                         10501
A0501400200000005751635FLORES, JOAN MAY                                        20500
A2601400270000002312163ALEJANDRO Q. UY III                                      0501
A0801400160311478374103MERLINDA GUARDAMANO INAYAN                               0501
A3401400280000004959071LOSANDE, DONNA MAE DALIVA                                0501
A0101402350321180985001CHIEN CHUNG HO                                           0501
A0101405650000011810961ESTACIO, LORENZO DUMALE DBU                             10503
A0101405650000011810961VIHN'S MANPOWER SERVICES                                20500
B0101405650322043032001LEAN MANAGEMENT AND PEOPLE SOLUTION                      1601
B0101405650000005382076MENDOZA, JOSHUA DBU RAPIDO TRANSPORT                    11601
B0101405650000005382076NETWORK                                                 21600
A0101402510341487199001NESTOR B. ESTABILLO                                      0501
A0101402060000000358463JOROMO, VERALYNN ALMARIEGO                               0501
B0101402060000010846701AGUILAR, MICHAEL CABREZA                                 1610
B0101402060000006931979ESLA LAND DEVELOPERS, INC.                               1604
B0101402060000000022733CEMENT MANUFACTURERS ASSOCIATION OF                      1601
A0101402060351604435001BUIQUIL, EDDIE D. OR BUIQUIL,                           10502
A0101402060351604435001MARITES B.                                              20500
B0201400890000007877301RD PAWNSHOP, INC.                                        1606
A0201400890376192121001TORRES, GIL FERDINAND ABELLO                             0502
A0201400890376535273001TOLEDO,HAROLD XAVIER OR CLIMACO                         10502
A0201400890376535273001BRYAN OR GUEVARR                                        20500
A0201401020000003882100********                                                 0501
A0101402930381478374009MARIVIC R. DELA CRUZ                                     0501
A0101408790000013849233DENNIS BAYOT                                             0501
A0101408790000005293938RODERICK M. BACARRA                                      0501
A0101408790000008503013BADINAS, BERNADETTE BERNABE                              0502
A0101408790000013295193MARY EMILY VERR QUERUBIN PEJI                            0501
A0101405490000002253072JOSE MARI Y. BERNARDO                                    0501
B0101408400394005907001RESEARCH & TECHNOLOGY SALES DEV'T                        1601
A0101408400394060869002SPSD PRIMAICONS CASTING AGENCY                           0501
A0101408400394160344001CALMA, ALFREDO MATAGA                                    0506
A0101408400394301063001REV. FR. ORLANDO CANTILLON                               0501
A0101408400394423791001VALERIANO, RUTH GRAMPON                                  0503
A0101408950396501244001DR. RHESA MAY MANALOTO MARTINEZ                          0501
A0101408950396567114001CESAR JOSEPH CURAMENG GLORIA                             0502
A0101408950396664059001REYES, ABIGAIL NOCON                                     0501
B2401400180411043654008TWIN PEAKS GENERAL SANTOS, INC.                          1603
A2401400180000005536723ARGUELLES, SHIELO DUBOUZET DBU                          10501
A2401400180000005536723MONINA HAULERS                                          20500
B2401400180411069002001PA FUEL 118 CORPORATION                                  1603
A2401400180411342705001LETICIA Y. LIM                                           0501
A1201400150421294034001ESPIRITU, ANTONIO ARAOS OR                              10503
A1201400150421294034001ESPIRITU, RACHEL                                        20500
A1201400150421350944001AGWIKING, PETER CARLOS                                   0501
A5101400100000011337181ALCOMENDRAS, ANDREY ALINSUGAY                            0501
B0101403030441303324001**********                                               1602
B0101403030441707375001**********                                               1602
A0501400170000001072720ESPINO, PETER BALOLONG                                   0501
A1901400320000013129932CAUNTAY, ANNA LOUISA LICSI                               0501
B1901400160491012725001WEST DISTRICT TEACHERS CREDIT                           11602
B1901400160491012725001COOPERATIVE                                             21600
B1901400160491029820003MONTENEGRO SHIPPING LINES, INC.                          1605
B0101407430000011167525POWER CLEAN BLDG. CARE & GEN. SERVI                      1602
B0101407430503042216001HIGH COMMAND AVIATION SECURITY                          11605
B0101407430503042216001SERVICES CORP.                                          21600
A0101405940000001047352CHUA, BARTON ONG                                         0502
A0101405940000003121762CONSUNJI, JORGE ALMEDA                                   0501
B0101405940512038848001JADE ENTERTAINMENT AND GAMING                           11603
B0101405940512038848001TECHNOLOGIES,INC                                        21600
A0101408530516041758001CLAR-US PRINTING ENTERPRISE                              0502
B0101408530000007318034DICE205 CO.                                              1602
A0101408530516496161002WILLIBALDO UY OR PHILIP UY OR                           10501
A0101408530516496161002RAYMOND UY                                              20500
A0101408530516543430023ARNETTE SEGUNDINA C. DE GUZMAN                           0501
A0101411790000013894610DIZON, MARIE FRANCES ALVAREZ                             0501
B0101412050000007801665PRIMEBEEF COMPANY INC.                                   1601
A0101403450000001638075ACUNA, TERESITA CABRERA                                  0505
B0101403610531026008002MISSION TO THE WORLD PHILIPPINES                        11603
B0101403610531026008002FOUNDATION, INC.                                        21600
A0101403610531053004002OREJOLA, WILSON C DBU WILCORE                           10502
A0101403610531053004002ENGINEERING SERVICES                                    20500
A0101403610531068892001RACSA, ROLY MICHAEL R DBU MERAV                         10503
A0101403610531068892001ENTERPRISE                                              20500
A0101403610531441399002RACSA, ROLY MICHAEL ROXAS                                0503
A0101404130601451645001MONTEBON, LYN RHONA F. OR                               10501
A0101404130601451645001CAPUCION, ERMA E                                        20500
A0101407720602298846008LAMBERTO U. OCAMPO OR                                   10501
A0101407720602298846008ANNABELLE SARMIE                                        20500
A0101407720602314681001MARIETTA CRISTINA EVIOTA-HIZON                           0501
A0101407720602497553001TAN, MARIE CECILIA YU                                    0504
A0101412180000000259541GATCHALIAN, ROGEL CRUZ                                   0502
A0101412180000000908390LIM, LEA YAP                                             0501
A0101409890000006813038**********                                               0502
A0101411530000000581486**********                                               0501
B0101411530000000581500EMILY MARIANO OR KRISTINE ABDON OR                      11601
B0101411530000000581500KATRINA TORRES                                          21600
B0101411530000006217603RADIANT SUNSHINE POWER CORP                              1601
A0101413570656057652140KAREN REMONTE                                            0501
A0101414120000008642531IGNACIO, JOAQUIN EMMANUEL QUISU                          0501
A0101406590000003007245DIOKNO, KENNEDY POWA                                     0501
A0101406590662058367001CALDERON, JASON D. DBU YUNO                             10501
A0101406590662058367001JAPANESE LEARNING CENTER                                20500
B0101406590000006921593SAMUEL T. AGUSTIN II CONSTRUCTION CORP.                  1603
A1301400210000002909191PANGAN, BIENVENIDO CASTRO                                0502
A1301400210000005040577**********                                               0501
A1301400340683542735002BIUNAS, REMEDIOS GREGORIO                                0502
B1301400500684029282001L5 & SONS FINANCING CORP.                                1610
A0101408240000013296772CASTANEDA, CORINNA MINERVA YRAO                          0502
A0101408240711590794001PEREZ, MODELIZA REATAZA                                  0501
A2801400230000009022246PUBLICO, LEA ESPINOSA                                    0501
A4101400260000001198734ANGUE, ANSELMO PAITON                                    0503
B4101400390813019416002STI COLLEGE-ROSARIO, CAVITE, INC.                        1602
B4101400390813766574001SCIENCE TECHNOLOGY INSTITUTE OF ROSARIO                  1602
A0101412340000005431874JAIME P. CRUZ                                            0501
A0101412340000008947128JAMIELYNNE D. WANG                                       0501
A0101412340000003344807SHERYL A. NAGALES                                        0501
A0101412340000002900381MADRONERO, JEFANNIE EPIZ                                 0501
B0101404840851013980002VIC IMPERIAL APPLIANCE CORP.                             1601
A0101404840000000683585ROXANNE P. AGUILLON                                      0502
B0101404840000006365142TRIMOTORS TECHNOLOGY CORP.                               1602
A0101404840851520766180CARMELITA M. BARBACENA                                   0501
A0101406750000005397726CALIGUIRAN, MATIAS BACCAY                                0501
A0101406750852022181001DATHAN ENTERPRISES                                       0510
A0101406750000000090913OCE METAL PRODUCTS                                       0501
A0601400230000000045241CANINO, CRISTINA FERNANDEZ                               0501
B0601400230891017871001ALPHA INSURANCE & SURETY CO., INC.                       1602
A0601400230891253086001ENGR. EMER C. FELICIANO OR                              10501
A0601400230891253086001EDITA B. FELICIA                                        20500
