A0101410300000000026508TAGLE, E DBU E.S. TAGLE TRADING                          0503
A0101400440161094900001EDWIN A. HERNANDEZ                                       0501
A0101402930000000053363CALINGASAN, R DBU 2C ENTERPRISE                          0501
A0101408400000001213596HERNANDEZ, MERLITA GAYTA                                 0501
A0101401250021392635001DEL ROSARIO, JAIME CHUIDIAN                              0506
A0101401250021401825001CHUA, REYNALDO MAGNO OR                                 10506
A0101401250021401825001CHUA, EMMA GESLA                                        20500
B0101400150061011041001PHILIPPINE INTERNATIONAL AIR TERMINALS                  11602
B0101400150061011041001COMPANY, INC.                                           21600
B0101400150000000633403ONE SUBIC POWER GENERATION CORP.                         1602
B0101400150000004980758TRANS-ASIA PETROLEUM CORPORATION                         1601
A0101400150000005015690MARTINEZ, CARMEN FAIGAL OR                              10501
A0101400150000005015690MARTINEZ, GILBERT OLANO                                 20500
A0101400150061227290001EBALDE, MA. VICTORIA QUIAEM                              0502
B0101400600071027347001*****                                                    1602
A0101405810000001021172PUA, C DBU MCK SCHOOL & OFFICE                          10503
A0101405810000001021172SUPPLIES                                                20500
A0101405810072344420003CHING, JENNIFER TIN                                      0502
A0101405810072390933001**********                                               0502
A0101413730000000469169DIMALIBOT, LEONORA DE GUIA                               0503
A0101410850000003101877MONTEMAYOR, REYNALDO SAPLAN DBU                         10501
A0101410850000003101877RSM TRUCKING                                            20500
A0101410560000001944174ROWENA PADILLA FRANCIA                                   0501
A0101400730111772448001BOCABEL, MARIFE DE GUZMAN                                0501
A0101413150000000038468**********                                               0502
B5001400170000005988972**********                                               1603
B5001400170000005989042RED HAT FOOD VENTURES, INC.                              1605
A0101401090000002358745SIBULO, MARIANNE C. OR                                  10501
A0101401090000002358745SIBULO, MA. CAROLE LISA C                               20500
A0301400530000005300241BASADRE, MARIBEL DOMO ONG                                0501
A0301400660000006862840PIATOS, ERIC ARELLANO OR                                10504
A0301400660000006862840PIATOS, ANNABELLE MILLORA                               20500
A0301400660000003406215SUNRISE VIEW BEACH RESORT                                0501
A0301400660000006862720LIU, HSIPIN UY                                           0502
A0301400790000001776138ESCAMIS, JOSE PACLAR DBU                                10502
A0301400790000001776138ESCAMIS BUILDERS                                        20500
A0101410720653176518001GASCO, AMERPHIL OR LAGURA, RUTH                          0501
A0101410720653505843001LIMONGCO, GRACE POLO                                     0501
A0101413600000009806419IVAN LOUIE O. GUMATAY                                    0501
A3101400870225217498010EMPLOYEES OF MITSUBISHI MOTORS                           0501
A3001400130000008264795MEMBERS OF NATASHA, SHOECAT INC                          0501
A1001400190231520766171WILDY G. OCHIGUE                                         0501
B0101406620000000193975SIMPLE LIFE DELIGHT COMPANY INC.                         1602
A0101406620000004926103RIMANDO, MITZI LOUIE MANUEL                              0502
A0101406620273570045001RICOHERMOSO, CESAR DIZON                                 0501
B0101410980000000171975AMMC - AVERY MANILA MARKETING CORP                       1602
A1101400120313478374067COSTIMIANO, LUCY DEJERO                                  0501
A1101400120000001547235DUGANG, JESSA EBIT                                       0502
A2001400290000003160589ORTALIZ, IRISH KHAN BANQUERIGO                           0501
B2001400290315528399001**********                                               1601
A0101405650000006893243BARGO, KATHERYN MICHELLE                                10501
A0101405650000006893243ENRIQUEZ                                                20500
A0101405650322170539001GUTIERREZ, BRENDA I. OR                                 10501
A0101405650322170539001GUTIERREZ, ROLANDO                                      20500
A0101402510000010030636ROQUE, RAMON RICARDO ADEA                                0501
A0101402510000010077653ATIENZA, FREDERICK CHENG                                 0501
A0101402510341196514001JAIME LIM OR CHRISTINA LIM OR                           10503
A0101402510341196514001GINA LIM                                                20500
A0101402060351009359002JIANDANI, SURESH G. &/OR                                10501
A0101402060351009359002JIANDANI, KAVITA                                        20500
A0101402060351036454001TRITECH TRADING                                          0501
A0101402060351414987003NOBLE, FELICISIMA CASANOVA                               0502
A0201400760000001107511OQUIAS, JOCELYN LIM                                      0501
A0201400760000005711273BURDEOS, VITA JOY OLEDAN                                 0502
A0101402930000010063742ARROYO, COLEEN PAZ                                       0501
B0101402930381020092001ASIAN BAPTIST CLEARING HOUSE INC.                       11602
B0101402930381020092001MISSIONARY ACCT                                         21600
B0101402930381022284001INVESTORS ASSURANCE CORPORATION                          1602
A0101408370382379254001DR. CESAR A. DE LEON                                     0501
A0101408790383760301001BATARA, EDIMER CALAPUTOC                                 0502
A0101411660000003580192COSTELO, EVANGELINE PADILLA                              0501
A0101411660000003580250MA. CELESTE S. MANDAL                                    0502
B0101402770000006812440NESYAN CORPORATION                                       1603
A0101408400394650469001SALAMANCA, JOSEPHINE MOJICA                              0501
A0101409180000008122369DIMALIBOT, JOHNE DAVE PANALIGAN                          0501
B0101409180397041229001****                                                     1603
A0101409210000002279018AGONCILLO, CONSUELO FLORES                               0502
B0301400820000005196669BANSALAN MEDICAL CLINIC &                               11605
B0301400820000005196669HOSPITAL, INC.                                          21600
A5501400120410611619001PERNIA, NELLY M. OR                                     10505
A5501400120410611619001PERNIA, JOSE REY                                        20500
A5501400120000000046922CHIU, VALENTIN & JULIA EILEEN                           10505
A5501400120000000046922CHRISTIAN & CHRI                                        20500
B5501400120410654342008SAY, CLETO OR FELING OR HELEN OR DANNY                   1610
A0101403030441660281001**********                                               0503
A1901400160000005632628ALBAY, RUSSEL RUBILLOS                                   0504
A1901400160491343996001MARIA DOROTHY M HERNANDEZ                                0502
A1901400160491659463001GLORIA JARO PENA                                         0502
A1601400170000000497423MENCHU R. BUADO                                          0501
B0101407430503027906001CHURCH STRENGTHENING MINISTRY INC.                       1610
A0101407430503736499001CECILIA R. NALAUNAN                                      0501
A0101403580511150639001DAPHNE B. ROLDAN                                         0502
B0101408530516005188001SEARCHERS & STAFFERS CORP.                               1610
B0101408530516524823001SL TEMPS INC.                                            1605
A0101411400517061946001MANUEL,CHESTER KEITH EMMANUEL G                         10502
A0101411400517061946001DBU MANUEL'S TRADING                                    20500
A0101411790000010079342HERNANDEZ, LIA SANTOS                                    0501
B0101403450521033777001**********                                               1610
A0101403450521238140002**********                                               0502
A0101403450521305916001**********                                               0501
B2201400250561088535001CHRISTOPHER JORDAN L. CHUA                               1601
A2201400250561296301002MARIA ANTONETTE I. BELMONTE                              0501
B0101404130601016662001PAYROLL SERVICE PROVIDERS, INC                           1603
A0101404130601451711001CATINGAN, HAZEL A.                                       0501
A0101407720602351364001MARIA LOURDES L. HERNANDO M.D.                           0502
B0101412180604066285001ALAI ENVIRONMENT'L SERVICES, INC.                        1601
A0101404260611080148001ABUTON, MA. SALOME BAJO                                  0502
A0101404260611457970001MORATO, MERCY PAQUERA                                    0501
A0101409920000005460839MEMBERS OF NATASHA, SHOECAT INC                         10504
A0101409920000005460839MARTIN, SHIRVIE SHEEN                                   20500
A0101407690652455653001PEREZ, EDGARDO OR PERLA                                  0501
A0101407690652525001053JOCELYN B. JONOTA - DEALERS OF                          10501
A0101407690652525001053SHOECAT INC.                                            20500
B0101407690652821200608**********                                               2001
B0101413570000007212962KASAGANA-KA DEVELOPMENT CENTER,  IN                      1606
A0101413990000010076325PANEM JR., ANTONIO TADEO                                 0501
A0101406590000005304949GO, GRACE GLORY VELASCO                                  0501
A1301400340000000926870CUERDO, AYA                                              0503
A2801400230000002312356VILLAROSA, RODOLFO NAVALES                               0502
A4101400260812362318003MAXIMO P. SARTE                                          0504
A4101400260000006043049FALIC, JEANNETTE RUGA                                    0502
A4101400550815066244001MERCADO, ELEANOR B.                                     10501
A4101400550815066244001DBU EDJOY ENTERPRISES                                   20500
A0101406750852084318001SIBUG, GENEATH P. OR                                    10502
A0101406750852084318001SIBUG, ERNESTO M                                        20500
A0101413860000008917488REYES, IVY MATIC                                         0502
