B2801400100712821100608**********                                               2003
B0101413440655821100608**********                                               2003
A0101400150000000807170FRAGANTE, SOCORRO PROTACIO                               0501
A0101406040112095866001********                                                 0503
A6601400120314612939001TOBES,SANTIAGO OR TOBES,CECILIA                          0501
A1701400230000001786752**                                                       0501
B0101400860011394967002**********                                               1605
A0101400860011398141002**********                                               0505
A0101400860011422686002**********                                               0505
A0101400860011460209001**********                                               0502
A0101400860011581128001**********                                               0502
A0101400860011634790001**********                                               0503
B0101400150000000000204PHINMA RENEWABLE ENERGY CORPORATION                      1605
A0101400150061227130001EDUARDO I. PLANA OR                                     10501
A0101400150061227130001OLIVER P. PLANA                                         20500
A0101400150061446163001STONE, CHARLES RAY                                       0502
A0101400600071308774001**********                                               0502
A0101400600071738447001***                                                      0501
A0601400100000012794162EMPLOYEES OF RMS COLLECT PHILS.                          0502
A0601400100000007250768LOWE, LEVERIZA S. DBU MENTOR SE                          0510
B0601400100000007185120LE MANS STELLAR MOTOR CORP.                              1620
A0601400520000003187273MACAPAGAL, MA. ELISA MANALOTO                            0502
A0101414090000012424861MENDOZA, RNIE G                                          0501
B0101410850000016270074OCTOFUEL CORPORATION                                     1601
A0101401960000010787461**********                                               0502
A0101413150000005944330CHRISTINE JAICHUA                                        0501
B0101413150000005944232***************                                          1602
A0101413310000005433392SIA, HENRY DELA CRUZ                                     0503
A0101401830000012441791BANCE, JIMSON RUMION                                     0501
A0101401830000000033729ABEJAR, SUSAN GAUNA                                      0502
A5001400170000000213954LOPEZ, ISOLDE OR TAMAYO, AILYN                          10505
A5001400170000000213954OR TAMAYO, SHEEN                                        20500
A0101412920000008813612TRECIA VANESSA AWING                                     0501
A0101400440161039572072MEDITA P. ALIMPUANGON                                    0501
A0101400440000000596630MARY ANN A. OYARDO                                       0501
B0101400440000002846611LIBERTY SERVICE PROVIDER INC.                            1610
A0101400440161520766181LOURDES V. WATIWAT                                       0501
A0101400440161525001040DOLORES A. DE GUZMAN                                     0501
A0101407270000008152185CHIU, CATHERINE CO                                       0501
B0101407270162037605002MAINE CITY PROPERTY HOLDING CORP.                        1607
A0101407270000003254015CLEMENTE, SPIRO LU                                       0502
A0101407270000003253927FADUL, MARXIE MAOLEN FORLALES                            0502
A0101407270162681015001JEFFRE P. TOLENTINO                                      0501
B0301400530000012631515CEDENO, JO ANN SORIA DBU SLN FU                          1603
B0301400530000011432823SALADAGA, , RADSNIE BINGIL DBU                           1603
B0301400660000016080272GONZALES, KARL CYRIL LOZANO DBU C-GONZ                  11602
B0301400660000016080272CONSTRUCTION                                            21600
A0301400660000002913282**********                                               0503
A0301400950000008869076**********                                               0503
A0101401380000012373012PEREZ, SONNY PAUL ANTHONY L. OR                         10502
A0101401380000012373012PEREZ, MARIA LEUVINA                                    20500
A3101400160000001169262ANTILLON, HONEYLET SANTIAGO                              0501
A3101400160000015975270FAJILAN, RIZALYN JAMONONG                                0501
A3101400160000015975281EROLES, MARIA MERLIZA MENDOZA                            0501
A3101400160221356270001RONALD J. PUA                                            0501
A3101400160221356270002RONALDO J. PUA                                           0501
A3101400450000000014035GENEROSO, NOVELET BRION                                  0501
B3101400740000006701037NICOLSONS BUILDTRADE CORPORATION                         1610
A3001400130000010506640ABCEDE, LETECIA BAGUHIN                                  0501
B1001400190231061482001MAGSAYO, ALLAN CASTRO DBU                               11601
B1001400190231061482001SCORPION SACKS M                                        21600
A1001400190231478374012FARINAS, EVA MAE CENTO                                   0501
A1001400190231520766009MAGBUNAG, CONSORCIA TORRES                               0501
A1001400190231520766117TAROY, MARIONNE ANGELOU SALEM                            0501
B1001400350233076793001BINHI MICROENTERPRISE DEVELOPMENT                       11605
B1001400350233076793001FOUNDATION INC.                                         21600
A1001400350233503410003APARICI, ARMANDO AKIAT                                   0502
A1001400480000014023433RANIDO, LORNA ZAMBRANO                                   0501
A1901400290000003252822ROMA PARAN RECINTO                                       0502
A1901400290261249141002ABNER ACLAN OR AMY JANE ACLAN                            0501
A0101406620000003661341TAN, KARL MELVIN NG                                      0502
A0101400570281186603001DR. RESTITUTO C. BUENVIAJE                              10505
A0101400570281186603001OR RABD D. BUENV                                        20500
A6601400120314646431001DUBONGCO JR., ARTURO OR                                 10502
A6601400120314646431001DUBONGCO, ARLENE                                        20500
B2001400290315052317001NRU TRADING                                              1605
B2001400290000002406628RAMAS UYPITCHING, NICOLAS S DBU NRU                      1605
A2901400130000012880661ZARADULLA, JOHNELYN DEL CARMEN                           0501
A0101405650000009767884MERCADO, MARC GREGORY GATON                              0501
A0101402510000002029210AGUSTIN, EDGAR MAGAT                                     0503
B0101409050000010506793ONG, FRANKIE DOMANOG DBU ZURI TRADING                    1602
A0201400760000011472063PINEDA, ALFREDO BUHAY                                    0501
A0201401020000000055952DANO, JOSIE DANAS                                        0502
A0101408370000009296626HENSON, KARL EVANS RIVERA                                0501
A0101408370382207153001MA. TERESITA Z. CABREIRA                                 0501
A0101408370000010833304DR. CHRISTOPHER DELOS REYES                              0501
A0101411660000003580294RICA JOANNA C. NICOMEDES                                 0502
A0101411660000004597220BONDOC, NARCISA NAVARRO or                              10502
A0101411660000004597220DELA CRUZ, MYREN                                        20500
A0101415350000015170697ALVAREZ, MARIA RIZA MAGAT,                               0501
A0101408400000010507030CASTRO, NEHEMIAS DIN                                     0501
A0101408950396563005001DR. ANDREW GABRIEL JACINTO                              10502
A0101408950396563005001TABBERRAH                                               20500
A0101408950396567425001DR. SHEILA LYN REMOT RANIN                               0502
B0301400820000001554792VIC IMPERIAL APPLIANCE CORP.                             1601
A5501400120410682269001LIM, HILBERT OR LIM, HELEN                               0501
B5501400120410688775001GREFAB PROPERTIES, INC.                                  1601
A2401400180000010066252DEVERA, EDGAR SURMILLON                                  0504
B2401400180411014550001GSC PROGRESSIVE MULTI-PURPOSE COOP.                      1604
B2401400180411564736001CATULPOS, ELMER VILLEGAS OR                             11615
B2401400180411564736001CATULPOS, YELCY                                         21600
A1201400150000009997182MENDOZA, MERCY MANALASTAS                                0502
B1201400150000014987003MARTHA GOSHENLAND PROPERTY MANAGEMENT                    1601
A0901400220000003069098ZAMBOANGA GOLDEN DRAGON                                 10501
A0901400220000003069098SHIPPING CORPORATION                                    20500
A0101403030000016192119ZHUANG, XIUFEN                                           0501
B0101403030441039990001TOPTRUCK ENTERPRISES                                     1601
A0101403030000008089334TAN, JESUSA POTIAN                                       0505
A0101412890000012474323ROMMEL OR REYNALDO OR ROSALITO                          10502
A0101412890000012474323MARTIRES                                                20500
A0101412760000015445511ESPINO-LAVIDES, MA RHODA BALBUE                          0502
B0501400170481013156001K SERVICO TRADE, INC.                                    1603
B0501400170481029507002ARCINUE DEVELOPMENT CORPORATION                          1602
A3801400170000016433971BARCELONA, MIJO C DBU JAWNREAL                          10501
A3801400170000016433971TRACKER ENTERPRISES                                     20500
A1901400160000015813780MIRANDA, LORALIE EVANGELINE                             10501
A1901400160000015813780PEREZ                                                   20500
A1901400160000016072952MIRANDA, FRANK AGUINALDO                                 0501
A1901400160491055203001MONTALBO, NORBERTO PETER                                10501
A1901400160491055203001ALCANTARA                                               20500
A1401400110492064455001PONTIOSO, A DBU ASTROPEX                                10502
A1401400110492064455001BUILDERS AND SUP                                        20500
B0101407430000013804398ASSINIBOINE TECHNICAL INSTITUTE INC                      1605
B0101407430000001212991YEUNG MARINE PRODUCTS, INC.                              1603
A0101407430000002298315EXCEL A. GRESOS                                          0501
B0101403580511005143001INTERPACIFIC TRANSIT, INC.                               1610
A0101403580511151398002ARIZA TERESA MANGALILE OR                               10501
A0101403580511151398002REYNALDO JOSE MA                                        20500
A0101408530000007456746BALLESCA JR., RAMON CASTILLO                             0501
A0101408530000012953221PERAZ, EDWIN ALLOC                                       0501
A0101403450521366584001**********                                               0501
B0101403610531066447001TUDTUD, E DBU VME ENTERPRISE                             1602
A2201400250000010425399BELMONTE JR., ROMAN LIWAG                                0502
A2201400250561256285001JESUS C. CHUA                                           10501
A2201400250561256285001OR JOSEFINA G. CHUA                                     20500
A0101407720000007936323DELA CRUZ, ROUCHELLE DESIDERIO                           0502
A0101407720602162070001DR. CLEMENTE GATMAITAN OR                               10503
A0101407720602162070001CARLOS P. GATMAITAN                                     20500
A0101407720602516697001SOLER, NATIVIDAD DELOS SANTOS                            0502
B0101412180000003275205SCANDINAVIAN DIVERS, INC.                                1605
A0101404260000003498420LABRADOR, ROGELIO DBU PRL METAL                          0503
A0101404260611419093001AGAS, FELIPE DINGLE                                      0501
A0101409920000000523642LEONOR, NOEL RAFAEL BESAS                                0502
A0101407690000012227193VICENTE, MARVIN GAYE JOSON                               0502
A0101407690652520766034ANNABELLE P. TANALGO - DEALERS                          10501
A0101407690652520766034OF SHOECAT, INC.                                        20500
A0101407690000000913586BASTIDA, MARICAR - DEALERS OF                           10501
A0101407690000000913586SHOECAT INC.                                            20500
B0101413440000014245182INSIGHTS & TRENDS MASTER YOUR MARKET INC                 1602
A0101414120000001142852TERESITA M. PUYAT OR MARY ANN                           10505
A0101414120000001142852MAGNO                                                   20500
B1301400210000008174010BOSNIC STEEL BUILDERS CORP.                              1604
A1301400210682037806001MANG PABLING MARKETING                                   0505
A1301400210682478374053RUBIROSA C CABUGWASON                                    0504
A1301400210682540902001MARISA J RAMOS                                           0505
A1301400340000012156200CLAMOR, NELSON DE JESUS                                  0502
A1301400500000005963244RUSTIA, DAPHNE NAVARRO                                   0501
A1701400230000001786649NICOLAS, ROY AURELIO                                     0501
A1701400230000008555266MUSNI JR., CARLITO CENTENO                               0504
A1701400230000014502728DR. CESAR BARBA CARULLO                                  0501
A1701400230000016013993VILLA, SWEETZEL ALYSSA RAPANUT                           0501
A1701400230000015499931CONCEPCION, MARICET BUENA G. OR                         10501
A1701400230000015499931CONCEPCION, NOEL                                        20500
A1701400230693478374031VILMA D. BAGAY                                           0501
A0101408240000000521913CABAUATAN, EMILY LASAM                                   0502
A0101408240000012882418TOLOSA III, LAZARUS RAPHAEL OR                          10503
A0101408240000012882418ALCOBER, MELINDA                                        20500
A0101408240711373157002UICHANCO, LETICIA NARCISO OR                            10502
A0101408240711373157002ABOLA, CYNTHIA                                          20500
B2801400100000007629243PLANATE MANAGEMENT GROUP CORP.                           1601
A2801400100712281930001VICTORIA R. VALDEZ, M.D.                                 0502
A4101400260812246527001ISIDRO B. DELA CRUZ JR. OR                              10510
A4101400260812246527001LILIAN H. DELA C                                        20500
A4101400390000000500530CAESYLYNNE F. ARCILLA                                    0506
A4101400550000000900292PACULAN, BEATRIZ ACPAYAT                                 0501
A0101404840000000683494JOEBERT CORNEJO                                          0502
B0101406750852474662001SECURITY MARKETING & PEST MANAGEMENT                    11603
B0101406750852474662001INC.                                                    21600
A0101405070000010298478VICTORIA DIZON MORANA                                    0501
A0101405070861478374073ROSARIO V. PARRENO                                       0502
A0601400230000003015998CABRERA, JANET DE LEON                                   0502
