B1101400120313821100608**********                                               2003
A1901400290000015435766MAGPANTAY, MARIAN BATHAN                                 0501
A0101406590662004368001VIDANES, ELIZABETH DBU VIDANES                          10502
A0101406590662004368001MARKETING&MANAGEMENT SERV                               20500
A0101406590000014678283DE GUZMAN, MARCO LORENZO LEDESM                          0503
A0101400860000011516026**********                                               0503
A0101400860011420919001**********                                               0505
B0101400860011421932001CAI, JIANJUN                                             1601
A0101400150000003164612NEMMA G. HABERLE                                         0501
A0101400150000009401423SISON, SERGIO DELA CRUZ                                  0501
B0101400150061038163001QUANTUM FOODS, INC.                                      1607
A0101400150061309480001BITANTES, HERBERT BAUTISTA                               0501
B0101405810072235346001*********                                                1602
B0601400100081029282001L5 & SONS FINANCING CORP.                                1605
A0101410850000013601837SAMONTE, MA. MONINA TAMAYO                               0502
A0101400730000005208811CABUAL, EVELYN FERNANDEZ                                 0501
A0101400730111334462002MARIETTA L. ADORABLE OR                                 10501
A0101400730111334462002DOMINADOR S. ADO                                        20500
A0101413310000005433147TERESITA G. CONCEPCION OR                               10501
A0101413310000005433147ANTONIO D. CONCEPCION                                   20500
A0101400440000010744686DICHOSO, MAICON BEA PAMELA YUSI                          0501
A0101400440000012950340SAGUIBO, MARK ANTHONY VIDEZ                              0501
A0101400440000012950675DE VERA, ESTEBAN FLORES                                  0501
A0101400440161459294001MARY ANN T. REGINALDO                                    0502
A0101400440161478374018MA. DELIA P. FERMANTE                                    0501
A0101400440161478374198EUFRONIA I. BERGONIA                                     0501
A0101400440161525001173ELIZABETH V. FAJARDO                                     0502
A0101400440161525001174RIZALYN V. GUNTANG                                       0503
A0101407270000002334750MOLINA, MARK ANTHONY DELA PENA                           0501
A0101407270000003253949GERONIMO, KEVIN RAE TAN                                  0502
B0101407270000000010180COUNTRY CHATEAU HOTELIERS CORPORATION                    1602
B0101401090171031393001PIANO TEACHERS' GUILD OF THE PHILIPPINES                11602
B0101401090171031393001FOUNDATION INC                                          21600
A0101401090171195628003PUNSALAN, PATRIA PEREZ OR                               10502
A0101401090171195628003KING, LARRY SIA                                         20500
A0101401090171381768001MA. CAROLE LISA C. SIBULO                                0501
A0301400530000003573540GO, JOANNE LU OR XU, ZHIPEI                             10510
A0301400530000003573540OR XU, JUNJIE                                           20500
A0301400530000014433702SANCHEZ, EMELIE ROSAL                                    0501
A0301400790000003969644VILLAVER, GENEROSE VILLAGONZALO                          0501
A3101400870000015491560DABUET, CHRIS ANN ORBILLO                                0501
A3001400130230757981001SACAY, RENE CANTOR OR SACAY,                            10502
A3001400130230757981001JOSEPHINE SIMBIT                                        20500
A1301400470252045619001GOLEM ENTERPRISES                                        0510
B1901400290261013980001VIC IMPERIAL APPLIANCE CORP.                             1602
B0101406620000000193942SOURCEFIT PHILIPPINES INC.                               1603
B0101406620000003497176EMERGING POWER INC.                                      1602
A0101406620273439598001CHING, GEORGE SIA                                        0501
A0101406620000004926012TEE, GILBERT ONG                                         0501
A0101408660000006296735MARCAIDA, GRACE ANN LOLA                                 0501
A0101410980000005709640LIM, ROSITA BENITEZ                                      0501
B0101400570281026341001PUBLIC SAFETY SAVINGS AND LOAN ASSOCIATI                 1605
B0101402350000000655561GCLPI-GATEWAY CONTAINER LINE PHILS.                      1601
B0101405650322025100001GLOBAL PACKAGING SYSTEMS AND MATERIALS                  11601
B0101405650322025100001CORP.                                                   21600
B0101405650322038688002LANDCO/ALC                                               1603
A0101402510000000003032SANCHEZ, RIA OCAMPO OR SANCHEZ,                         10506
A0101402510000000003032MANUEL OCAMPO                                           20500
A0101402510341456960001BRECIA, RELITA GONZAL                                    0501
A0101402060351217441019VIRNALIZA VILLAREAL                                      0502
A0201400760000005711251PABELLO, MELODY ANNE DUERO                               0503
B0201400920375035929001UPLAND STOCK FEEDS, INC.                                 1602
A0201400890376522560001SU, SEYMOUR UY                                           0501
B0201401020000005109900CEBU DULCINEA HOTEL AND SUITES INC.                      1601
A01014029303812053500025ARIANO BONDOC/LOURDES MILADEL/                         10505
A0101402930381205350002JUAN MIGUEL BOND                                        20500
A0101408370382406963001BENGZON, JOHN ANDREW MICHAEL AN                          0501
A0101408370382508055001**********                                               0501
A0101408370382527198002DRS. BOBBY M. LIMOS OR                                  10501
A0101408370382527198002CELINA Z. ANCHETA                                       20500
A0101408790000014453437DE GUZMAN, EDGAR RICO                                    0501
B0101408790383021087001OCEAN TANKERS CORPORATION                                1605
B0101408950000012665840MARY LINDBERT INTERNATIONAL INC.                         1610
B0301400820000014122093DASURECO                                                 1602
A0301400820409093916001RACILLO, FRANK OR                                       10501
A0301400820409093916001RACILLO, MACLARA                                        20500
B2401400180411040003001BRIGADA MASS MEDIA CORPORATION                           1610
B2401400180000011298981UY, ERICA BASILIO AND UY, LUCY BASILIO                   1603
A2401400180411496346001OCIEL, MARIA MAGDALINA S. OR                            10505
A2401400180411496346001OCIEL, RANDY L.                                         20500
B0901400220000006214353**********                                               1603
B0101403030000015468638**********                                               1601
A0101403030441289498002**********                                               0501
A0101403030441469355001**********                                               0501
A0101406330000011106082ABEL, SIMON PETER MIRABEL                                0501
B0101406330472034614001TRI-SM PROFESSIONAL SERVICES, CO                         1603
A0101412760000011574782IBITA, JESSICA PICKELL                                   0502
A1901400320000015467828CIUDAD, GILBERT GUTIERREZ OR                            10501
A1901400320000015467828CIUDAD, RAQUEL PAGSINUHIN                               20500
A3801400170000005287987DE CHAVEZ, DIVINA GRACIA ATIENZ                          0501
A1901400160491298907001SANTISIMA B HERNANDEZ OR                                10501
A1901400160491298907001MARIE JANE H VINAS                                      20500
A1401400110000014145369ROSALES, MARIA GALIDO                                    0501
B1401400110492037847001LUCBAN BROADCASTING SYSTEM                               1601
A1601400170000013603457IBASCO, DANIELLE QUINTELA                                0501
B1601400170000000036035SIX IN ONE CORPORATION                                   1603
A1601400170494057284001F2M TOWER                                                0502
A0101405940000007540652MATE III, DON VICENTE LOU TAMPI                          0502
B0101403450521011608001***********                                              1603
B0101403450521015552001**********                                               1603
B0101403450000008380898***************                                          1602
A0101403450521240099001**********                                               0501
A0101403610000015437922MANORENA, NEIL RYAN CABATO                               0501
A0101403610531355089002MACASAET, DOMINGA YAMBAO                                10501
A0101403610531355089002OR MACASAET, LOPE                                       20500
B2201400250000007720034********                                                 1601
B2201400250000009913260L5 & SONS FINANCING CORP.                                1605
A0101407720602200210001EDITHA C. DIZON                                          0501
A0101407720602271723146DR. DANILO ANASTACIO                                     0503
A0101407720602381371001SHIELA H. PAGDANGANAN OR                                10501
A0101407720602381371001ERNEST PAGDANGANAN                                      20500
A0101407720000003099176PENARANDA JR., ELADIO MIGUEL                             0501
A0101407720602398798001AVANCENA, MARIA CORAZON MONZON                           0502
A0101412180000003275563LIM, PATRICK JOHN CHUA                                   0503
B0101409890000012558635FULL TOP STEEL MARKETING CORPORATION                     1602
A0101409920000001951993PANGILINAN, CAROLINE B. OR                              10503
A0101409920000001951993PANGILINAN, MARIA KARIZ B                               20500
A0101407690000005197964******                                                   0501
A0101407690652034806001BROWNFLY COMMERCIAL                                      0510
A0101411530000011326075**********                                               0502
B0101411530000002641761FOOTBOOK CORPORATION                                     1603
A0101411530000000013743ALFREDO D AQUINO                                         0501
A0101411530000000013743**********                                               0501
A0101414120000004603110CO, WILBERT KHO                                          0501
B0101414120000001984336LRKD MARKETING AND TECHNOLOGY SERVICES                  11602
B0101414120000001984336CORP.                                                   21600
B0101414120000007655403INFINITE EDGE CONSTRUCTION, INC.                         1604
A0101406590000013411448DY, MARK MATTHEWSON GO                                   0501
A1301400500684690412001DELOS SANTOS, DORIS OR                                  10501
A1301400500684690412001DELOS SANTOS, FERDINAND                                 20500
A0101408240000003955259MORALES JR., PAQUITO JIMENEZ                             0501
A0101408240000003955179**********                                               0501
B2801400230713045988001NGE TRADING                                              1602
A2801400230000009022155PEPITO, MINERVA DELA ROSA                                0505
A4101400260000011418272MANIO, LOREN MAE ELIZAN                                  0501
A4101400260000014088292ROMA, CARMELA                                            0501
A4101400420000014667639PASCUAL, JOYCE JOAN                                      0501
A4101400420000014667753CALILAP, JAILANE J                                       0501
A4101400420000014667640TWANO, JOCELYN M                                         0501
A4101400420000014667720NEGROSA, FREDERICK D                                     0501
A4101400420814506413001IBIAS, JOSEPHINE OCAMPO OR                              10501
A4101400420814506413001IBIAS, SEGISMUND                                        20500
A4101400420814520766135MOTILLA, ROSELLE                                         0501
A4101400550815643498001TATTAO, GRACE ARELLANO                                   0501
A0101404840000004565760LEGASPI, DANILO CALUPAS                                  0502
B0101404840000006365119BUSSBARR CORPORATION                                     1603
A0101406750000003393344LINDA U GARCIA                                           0501
A0101406750000009472437JOYNEIR UNDAG                                            0501
B0101406750000010166491VIRGINOR APOLINARIO DBU G-PAY REMITTANCE                 1601
A0101405070861356502001*****                                                    0501
A0101405070000006006086CHAN, OLIMPIA CALUGAY                                    0503
B0101413860000012289555BARAPIDO INC.                                            1603
B0101413860000010275851EXPRESSLEAD LOGISTICS CORPORATION                        1605
A0601400230000014299659MUNOZ, MYLIN SANTOS                                      0501
A0601400230000003015823ALURA, JIMMY SUENO                                      10502
A0601400230000003015823OR ALURA, MERLE                                         20500
B0601400230000006045303NORTHERN GASOLINE STATION & CONVENI                      1601
A0601400230891454850001WILLIAM J. NACIONAL                                      0503
