B0101405070861821100608**********                                               2002
B0201400920375821100608**********                                               2005
B0601400360083821100608**********                                               2002
A1901400320000011971830RIVERA, MARIA TERESA SUAREZ                              0502
A1901400320000000679147DRJ TRADING AND GENERAL                                 10501
A1901400320000000679147SERVICES                                                20500
A1901400320000000679192SADELTA CONSTRUCTION SUPPLY                              0501
A1101400120000006186809SALCEDA, ETHEL ORBITA                                    0501
A0101406460272095168001***************                                          0501
A0101400860000005313126*******                                                  0510
B0101400860011023450001INNOVATRONIX INC.                                        1601
B0101400860011086656001**********                                               1603
B0101400860011792731001**********                                               1603
A0101401250000000522490CLEOFAS, LUISA SAMULDE                                   0501
A0101411370000002269485ENRIQUEZ, DENNIS JAMES MANLAVI                           0502
A0101400150000001422075MANDAP, MARK JOSEPH DUNGCA                               0502
A0101400150000003164230EDMUND R. DOMINGO                                        0501
A0101400150000003197864Melvin C. Olfindo                                        0501
A0101400150000013561285LUZ, CHRISTIAN ALEXIS HERMOSISI                          0501
A0101400150000013561434VALENTINO, MILO ADRIAN NARCEDA                           0501
A0101400150000013561490LUCAS, ALYSSON NICOLE TAMAYAO                            0501
A0101400150000013561558ALARVA, JAELA MARELLA UMALI                              0501
A0101400150000013561616MURALLON, MARY RUBENEL NECESITO                          0501
A0101400150000013561683MANUEL, ANGELO GABRIEL CANADA                            0501
A0101400150000013561741RACADIO, MIGUEL AUGUSTO ANDAYA                           0501
A0101400150000013561781SUPELANA, CHRISTELLE MACASAET                            0501
A0101400150000013563203TAKAYAMA, NAOHIRO .                                      0501
B0101400150061010787001CP REALTY CORPORATION                                    1602
B0101400150061016825001PHILIPPINE TRANSMARINE CARRIERS, INC.                    1601
B0101400150061035221001CP EQUITIES CORPORATION                                  1602
B0101400150000005015514ETC EVENTS MANAGEMENT PRODUCTION INC                     1602
A0101400150061229554001MA. STELLA STEPHANIE CAMBA                               0501
A0101400150061230220002ANTONIO L. CARDINO                                       0501
A0101400150061404561001KEH, JOHN JACQUESON SY                                   0501
B0101400150061436247001SEAWOOD RESOURCES INC.                                   1603
B0101400600000005943035********                                                 1602
B0601400100000000142214SIMON AND STANDLEY INTERNATIONAL TRADING                11605
B0601400100000000142214& DEVT CO, INC.                                         21600
A0601400100081410730001PUNZALAN, CECILIA C. OR                                 10501
A0601400100081410730001RAMIL M.                                                20500
A0601400360083038054001WILTECH COMPUTER SERVICES                                0520
B0601400360000000978936THE MEDICAL CITY CLARK, INC.                             1615
B0601400360000003186907MEDINA FLORES PALARCA & OFRIN                            1602
B0601400360083575400001NEMOLIH REALTY CORPORATION                               1601
A0101413280000005279609GARCIA, RYAN                                             0501
A0101410560000001944072VALEN, ROSANA RETIG                                      0501
A0101410560000005836217PROCLEY C. CRISTOBAL                                     0501
A0101400730111039246147ARMIN P. DAWIS OR                                       10501
A0101400730111039246147MARIE ANN M. DAWIS                                      20500
A0101400730111361583001CATRIZ, ELIZABETH                                        0501
A0101400730000011613722DIMACALI, LEONORA BARCELONA                              0501
A0101400730111478374179MARIA LUISA S. TRUJILLO                                  0501
B0101406040112043521001******                                                   1601
A0101401960121240673001*************                                            0501
A0101413150000003208346******                                                   0501
A0101412630000000801574SALVADOR T. FLORESCA JR. OR                             10501
A0101412630000000801574ADELAIDA O. FLORESCA                                    20500
A0101401830141336007001ELPIDIO Y. DELOS REYES                                   0501
A0101401830141409771001ALRIC P. BOBO                                            0502
A0101401830141685185001ALAMA, WILMA MANUBA                                      0501
A0101401830000003169340MANALANG, ROSELITO B.                                   10501
A0101401830000003169340OR MANALANG, LISA  D.                                   20500
A7201400170000003773119UBAY-UBAY, CARMELITA REYES OR                           10501
A7201400170000003773119UBAY-UBAY, SHERL REYES                                  20500
A7201400170000011454287OBAOB, MARIE FE MARAASIN                                 0501
A5001400170000000213783MOISES, RACHEL TIU OR MOISES JR                         10501
A5001400170000000213783ALEXANDER MAGQUILAT                                     20500
A0101401090000001611416GALANG, MARK QUAZEN TAPAZ                                0501
A0101401090171200617001JOSE RICARTE OR                                         10501
A0101401090171200617001MARIZZA ORIGENES                                        20500
A0101401090171399522001SR. MARIA LIRIO L. GUILLERMO                             0501
A0101401090171403802001SOLIS JR., FERNANDO REGALADO                            10501
A0101401090171403802001OR JUVY SOLIS                                           20500
A0101401090171432366001MICHAEL RONALD OR                                       10501
A0101401090171432366001SHARIE MADARANG                                         20500
A0301400530000005001669CORTEZ, LEAH CASAS                                       0501
A0301400530193710800001TABANAO, JESICA G.                                       0501
B0301400660000012086623DVO ALUMINA INDUSTRIES, INC.                             1602
A0301400660000007029230A-PLUS BROKERAGES                                        0502
B0301400660000003362052DAVAO DYNAMIC INDUSTRIES CORPORATION                     1601
A0301400790000011509732ELISEO JR., BENJAMIN CASTILLO                            0502
A0101401380000010190604MUYA, MARLON BATHAN                                      0508
A0101401380201040399001BASIC TEE MARKETING                                      0503
B0101401380000000106732ANIMAL FIRST PET PRODUCTS CORPORATION                   11603
B0101401380000000106732DOING BUSINESS                                          21600
A0101401380000010190591LEY, MONICA JOY CO                                       0501
A0101413020000003055405AVO-AIR ENGINEERING SERVICES                             0502
A0101410720210479517001MEDINA, ADELE MERCEDES SOLON                             0501
A0101412500000013570639PACIS, ERICSON TALANIA                                   0501
A3101400160221220455001JACINTA J. TORRES OR                                    10502
A3101400160221220455001RENATO I. TORRES                                        20500
A3101400450223478580001DELOS SANTOS, ROLAN LEE                                  0505
A3101400740000006735824GARCIA, EMILY B. DBU MMA EVENTS                         10501
A3101400740000006735824SPECIALISTS AND                                         20500
A3101400740000006735824GARCIA, EMILY B. DBU MMA EVENTS                         10501
A3101400740000006735824SPECIALISTS AND                                         20500
A3101400740224087806001NECESARIO, EDUARDO PASTOR                                0501
A3001400130000001261307LIM, EDGARDO BALANSAG                                    0503
A3001400130000001271589BAGASBAS, GINA CATUBURAN                                 0502
B3001400130000009103508**********                                               1605
A3001400130230045294001TABASA, RICKY CARPIANO                                   0502
B1001400190231019620001SENTRO 1850 RESTAURANT                                   1601
B1001400190000008744123NEOTRINITY CORPORATION                                   1610
A1001400190231520766027RESTON, NANCY LUMAHANG                                   0501
A1001400350000000017165MEN DBU A&L MARKETING SOLUTIONS                          0501
B1001400480000003028895ALINABON, JOSY PABIONA                                   1601
B1001400480000003357851LUIS P. CAMPOAMOR DBU CAMPOAMOR BUY AND                 11601
B1001400480000003357851SELL AND TRUCKIN                                        21600
A1001400480000003357748DEDEL, PATRICK JUNE YEMA                                 0501
B1301400470000000009510ALALAY SA KAUNLARAN (ASKI) INC.                          1601
A0101406460000002359839ALBERTO, AILEEN PINEDA                                   0502
A0101406460272085666001**********                                               0501
A0101406460272295161001********                                                 0501
B0101406620273637841001CASA DE NICASIO FOOD CORPORATION                         1601
A0101408660000005263838FABELLA, AUGUSTO KATIGBAK                                0501
B0101408660000001940610WESTMINN CONSTRUCTION AND DEVELOPME                      1602
B0101411110000003202073AGUILAR, DBU MG AGUILAR MARKETING                       11602
B0101411110000003202073CONSULTANCY                                             21600
A0101400570281186595001DR. CHUCHI A. RUIZ                                       0501
A0101400570281186603001DR. RESTITUTO C. BUENVIAJE                               0502
A0101400570281324938001RICARDO PATROCINIO OR                                   10501
A0101400570281324938001JENNIFER PATROCI                                        20500
A0101400570281343716001ROMEL M. ALMORO OR MARIA                                10502
A0101400570281343716001MARGARITA ALMORO                                        20500
A0501400200000011517070LIZA, RAYMOND ARANDID                                    0501
B2601400270000002677343MOTORLINE TRADING INC.                                   1602
B2601400270302556567001F.A.I. TRAILER BUILDERS                                  1610
A2601400270302574301001ALEX UY TY                                               0501
A1101400120000001920634GUIRON, TERESA GALLARON                                  0501
B6601400120314040691001NORTHERN SAMAR ELECTRIC COOPERATIVE,INC.                 1610
A2001400290000000724572NICOLAS S. RAMAS UYPITCHING                              0505
A2001400290315685595001TAGLE, FE MARIE DICEN                                    0502
A2001400290000003134027BUHISAN, CAROLINE LU                                     0501
A0101402350321530494001CHRISTINE PEARL P. LIM                                   0501
A0101405650322016510001WIL-LYS CEREAL TRADING                                   0505
B0101405650322024999001SUPERIOR MAINTENANCE SERVICES, INC.                      1630
A01014056503220410060013805 PHARMACY                                            0502
A0101405650322094496002ANGELES, JAY NAVAL                                       0501
A0101405650322496478001PANGANIBAN, JAHNNIZ SERGIA K.                            0501
A0101405650000000525717TAMBUNTING, JOY MYRA SALVADOR                            0505
A0101402510341047849002GONZALES, DBU MARGON PRINTING                            0501
A0101402510341305034001PINEDA, MA. THERESA CONCEPCION                          10501
A0101402510341305034001AND CO, ROSARIO                                         20500
A0101402510341323210001ALBERTO V. ALAMAN JR.                                    0503
A0101402510341323210002ALBERTO V. ALAMAN JR.                                    0503
A0101402510341331222002ERLINDA C. RECOCO                                        0502
A0101402510000011695197CACAYURAN, SCARLET GUESE                                 0501
A0101402510341381984001******                                                   0501
A0101402060351082558001ANGELES, PIA FRANCESCA RECIO                             0501
B0101409050352041306001STRAWBERRY FOODS CORPORATION                             1602
A0201400760000004467283ESTRADA, JAN SHALTIEL VINCENT                           10501
A0201400760000004467283CORCINO                                                 20500
A0201400760374443220001GO, ELIZABETH TIU                                        0501
A0201400760374443220003GO, ELIZABETH TIU                                        0501
B0201400920375036250188OCEAN TRANSPORT GROUP OF COMPANIES, INC.                 1601
A0201400920375609447001RAMIRO, MARIA ARCELI AVANZADO                            0503
A0201401020000002250482LIM, TANYA LOU RIVERA                                    0501
B0101402930381035421001GREENAISSANCE '72, INC.                                  1601
B0101402930381038648001LARGEN MED INC.                                          1606
A0101402930381206349001LEILAND P. BRUNO                                         0501
A0101402930381207255002JOCELYN BARTOLOME OR                                    10501
A0101402930381207255002CANDIDO EDUARDO BARTOLOME                               20500
A0101402930381419788001ALMARITA JIMENEZ OR                                     10501
A0101402930381419788001MA. REGINA COELI                                        20500
B0101402930381663126001CHUVANESS, INC.                                          1601
A0101402930381740355118SY, LYNN ONGSIONG                                        0501
A0101408370382206455001DR. RUBEN G. KASALA OR                                  10502
A0101408370382206455001DR. MA. CARMELA KASALA                                  20500
A0101408370382365158001RALPH DAVID G. RIVERA                                    0501
A0101408370382391120001DR. SALVADOR M. EUSTAQUIO                                0501
A0101408370382391120001DR. SALVADOR M. EUSTAQUIO                                0501
A0101408790000000931082BUADO JR., EMMANUEL OR                                  10501
A0101408790000000931082VISCAYDA, JOCELYN                                       20500
B0101408790383039290001AUTO SOURCES INC.                                        1605
A0101411660000003580163MA. SOCORRO P ANGULO                                     0501
A0101411660000003580232ABISHAI FAYE D LIMPIN                                    0503
A0101411660000002309508IBANEZ, ANTHONY CHRISTIAN CRUZ                           0501
A0101402770000004849367ASUNCION, LYNDON CORPUZ                                  0501
B0101402770391506756001MARIA LOURDES G. PAGAUITAN MEMORIAL                      1601
A0101408400394033625002IVAN COMPUTER SYSTEM                                     0504
A0101408400000008744787BOLISAY, BEULAN ANN D DBU FIRMI                          0501
A0101408400394401915001CERVANTES, NENITA FRANCO                                 0501
A0101408400000005286353CERVANTES, NENITA FRANCO                                 0501
A0101408400394424700001QUILAY, EVELINDA QUEBEC                                  0501
A0101408400394478374064MORANDARTE, ANGELITA B.                                  0501
A0101408400394478374066CASTILLANO, VELLA G.                                     0502
A0101408400394481923001ECHON, MARCE SERRANO                                     0501
A0101408400394520944001GUYJOCO, ARNOLD BANCIL                                   0501
A0101409180000009769293BLAIR, IAN LESLIE                                        0502
A0101409180000003310221HERNANDEZ, RAFAEL ANTONIO E. OR                         10501
A0101409180000003310221HERNANDEZ, MARIA ELENA C.                               20500
A0101409210000001294457ARCEGA, SHEILA MARIE L.                                  0501
A0101409210000011097686CELOZA, KRISTINE                                         0501
A0101409210000004604062J VOLTAIRE GODOY                                         0501
A0101409210000005252233DE AUSTRIA, PRINCE CROMWELL P.                          10501
A0101409210000005252233OR DE AUSTRIA, MICHELLE                                 20500
A0101409210000013563190ORANA, IRENE GALVEZ                                      0502
A0101409210000011178653YU, HEE KYUNG                                            0502
B0101409210398042656001FIELD OUTSOURCE ASIA, INC.                               1610
A0301400820000005991702CARISOSA, JERSON L.                                      0501
A0301400820000004073443PAMAYLAON, MARY ANN P.                                   0501
A0301400820000005991495DEL MONTE, CHRISTOPHER S.                                0501
A5501400120000002348325ANG, ANDY MAN CHUNG CHANG                                0505
B2401400180411034757001RDEX FOOD INTERNATIONAL PHILS., INC                      1605
B2401400180411035208068**************                                           1601
A2401400180411478374020MORI, LYDIA                                              0502
A1201400150421789029002CO, JOHN SALVADOR AND                                   10502
A1201400150421789029002CORREOS, GEROME                                         20500
A0901400220000000887910**********                                               0502
A0101403030000005944783**********                                               0501
A0101403030441337771001**********                                               0501
A0101403320000013575607RIZALDY L. CABRERA                                       0501
A0101406330472081531001MARIA SHIERILA R. IGOT                                   0501
A0101406330472472283001MA CYNTHIA FALZADO                                      10501
A0101406330472472283001OR EDGAR FALZADO                                        20500
A0101410140000000038811ABOCADO, NORMITO M.                                      0501
A0101412760000002262853JUDAN, FRANCIS IVAN PETERSON                             0501
B0101412760000007821921MOVADO SALES AND ACTIVATION SERVICE                      1601
A0501400170481409728002ANG, JUSSLYNN MAISIE ONG                                 0504
A1901400320000009104307DE CHAVEZ, JOSEPHINE BORBON                              0501
B3801400170000013553783GLADYS GIFTSHOP                                          1601
B3801400170490053997001ORIENTAL MINDORO ELECTRIC COOPERATIVE,                  11601
B3801400170490053997001INC.                                                    21600
B3801400170490821100608**********                                               2002
A1401400110000003475901LLAMAS, ANDREA MAE TURGO                                 0501
B1401400110492365609001JEORGE S MALIGAT - PILIPINO HARDWARE AND                11601
B1401400110492365609001CONST. SUPPLY                                           21600
A1401400110492367614001DE MESA, CECILDA LAGAR JT                                0501
A1401400110492540898008CHUA, JANICE PACT                                        0501
A1601400170494083045001YONZON, KATHERINE BRONDIAL                               0502
B0101403580000007864313ROMAVITA CORPORATION                                     1605
A0101403580000012314771MORALES, JOJI PATALINGHUG                                0501
A0101405940000001534327******************                                       0502
A0101405940000005067881JONNIEL YAO                                              0501
A0101405940000007540845MALIBIRAN, CARLA MARIE SILVERIO                          0502
A0101405940512515690001********                                                 0501
A0101408530000001268333QUIBALLO JR., GAUDENCIO SABINO                           0501
A0101411790000013482492MARIANO, CZARINA GAIL OR                                10501
A0101411790000013482492DE CASTRO, ROMAR                                        20500
B0101403450521021842005WALL VISION CORPORATION                                  1605
B0101403450000002975757***********                                              1601
B0101403450521238238001**********                                               1601
A0101403450521238594001**********                                               0501
A0101403450521240266002**********                                               0501
A0101403450521240998001**********                                               0503
A0101403450521240998002********                                                 0503
A0101403450521397310001**********                                               0502
A0101403610531219918001MARIANO, RODOLFO OR                                     10501
A0101403610531219918001MARIANO, GLORIA                                         20500
A2201400250561509420001ALMA D. PAGADUAN                                         0501
A0101410690000000710672BADE, MINERVA V DBU E3V                                 10502
A0101410690000000710672ENTERPRISE                                              20500
A0101404130601549706001BARIUAN, DONNABEL CARIAGA                                0501
A0101407720000004659092LIM, REAYEN RON TAN                                      0501
A0101407720602397801001EMMANUEL DE LEON IBAY OR                                10503
A0101407720602397801001MA. JESUSA T. IBAY                                      20500
A0101407720602486618001CESAR NEIL S. SYQUIA OR                                 10505
A0101407720602486618001MICHELLE SYQUIA                                         20500
A0101412180000010394982GABRIEL, AMERIZA MAY RASALAN                             0501
B0101412180000008480115PROACTIVE CAR CARE CENTER                                1601
A0101404260611151777001MAURICIA L. GUIUAN                                       0501
A0101409890000006812860GAJUDO, JAY VALLEDO                                      0502
A0101409890649532489001CHUACUCO, NANCY SY                                       0501
A0101409890649774914001ELEFANO, ROSITA CASTRO                                   0502
A0101409920000005197862MOJICA, VICTORIA DE LEON                                 0502
A0101411530000000741713**********                                               0501
B0101411530000002641783TRI GONZ FLOWER TRADING CORPORATION                      1601
A0101413990000001406484QUEBAL, ARTICER O. OR                                   10501
A0101413990000001406484QUEBAL, EVANGELINE L.                                   20500
B0101414120000003584281JD & P FOOD TRADING CORPORATION                          1602
A0101406590662211749002ALONZO, LETICIA TUAZON                                   0501
A1301400210682575500001CHRISTIAN ANTHONY M DAVID OR                            10501
A1301400210682575500001TERESITA LYDIA M                                        20500
A1701400230000001786996**                                                       0510
A0101408240000006600299LEE, SOOKYOUNG                                           0502
B0101408240000000832826ALABANG GATORS SWIM CLUB INC.                            1601
A0101408240711378853001EPIFANIO R. REYES                                        0502
A0101408240711478374019ESTUYE, GILDA PLACIDES                                   0505
A0101408240711698617001LEI, KAREN GAYLE OR BRIAN                                0501
A4101400260812409493001AMELIA RAZON OR EMILINO RAZON                            0502
A4101400420000012882801CASICARAN, KATRINA OCAMPO                                0501
A4101400420814299258001JARO, JERRY RAMOS                                        0510
A4101400420814520766074VESTUIR, ROSALINDA                                       0501
A4101400420000002345280ACOL, FELOMINA ADOAN                                     0502
A4101400420000003309015MARICHU E. DE GUZMAN                                     0501
A4101400550000000900350SANTOSIDAD AUTO SUPPLY                                   0504
A0101412340850084786001MIRACLE GRACE S. DUMIP-IG                                0502
A0101404840851210982001TOLEDANO, MINDA BAGOOD OR                               10501
A0101404840851210982001TOLEDANO, HENRY MADRID                                  20500
A0101404840851478374011SHERRY ANN N. ABAPO                                      0501
A0101404840851560186001PAULE, ROBELITA ACOSTA                                  10501
A0101404840851560186001PAULE, JONEL MAN                                        20500
A0101406750852204456001TERESITA DIALOLA                                         0501
A0101405070861197650002********                                                 0502
