B2401400180411821100608**********                                               2010
B2401400180411821100608**********                                               2010
B2401400180411821100608**********                                               2010
B2401400180411821100608**********                                               2010
B2401400180411821100608**********                                               2010
B2401400180411821100608**********                                               2010
B2401400180411821100608**********                                               2010
A0101404260611559253001TAN, SABINA LASALA                                       0504
B0101400150061058411001KOLDSTOR CENTRE PHILIPPINES, INC.                        1601
A3101400870000003515284MUNOZ, NOLANDO CABUNGCAL                                 0501
A3001400130000001271790HERMOSADA, JAME DORIA                                    0502
A3001400130000001271312SHAPE & WELL NUTRITIONAL                                10501
A3001400130000001271312PRODUCTS                                                20500
A3001400130230711844001BLACANO JR., ADOLFO LACORTE                              0501
A0101402930381488888002EDWARD P. LIM                                            0501
B0101400860011394967002**********                                               1605
A0101400860011522544001**********                                               0503
A0101400860011615005001**********                                               0501
A0101400860011653864001**********                                               0505
A0101401250021178990003CEDILLA, REMEDIOS SANTOS OR                             10502
A0101401250021178990003ARIEL SAN PABLO                                         20500
B0101400150061011199001M.F.T. DEVELOPMENT CORPORATION                           1602
A0101400150061041250001LM INDUSTRIAL TRADING                                    0501
B0101400150000004703417TECHAUDIT SYSTEMS COMPANY, INC.                          1601
A0101400150061739693001***********                                              0503
A0101405810072234861001**********                                               0502
A0101400730111203514058MARY ANNE CUARTERO                                       0501
B0101406040000001392041********                                                 1603
A0101406040112055495001********                                                 0503
A0101412630000000045321**********                                               0502
A0101413310000001073745BATAC, MARY GRACE G. DBU MOTHER                         10502
A0101413310000001073745BEAR TUTORIAL & LEARNING                                20500
A0101401830141207213001LILIA C. GALINDO OR                                     10501
A0101401830141207213001FLORDELIZ C. GALINDO                                    20500
B0101400440000000337922COMMANDER SECURITY TRAINING CENTER, INC.                 1605
A0101400440161575225001EARL JIMSON R. GARCIA                                    0501
A0101407270000002334812MARLON M. CRUZ                                           0502
B0101407270162043721001ABS-CBN HOLDINGS CORPORATION                             1603
A0101407270162587936002WILFRIDO G. TIRONA                                       0501
A0101401090000003835916NOVIO, RONA REGADO                                       0502
A0101401090171196114001LEILANI M. ASIS OR                                      10504
A0101401090171196114001ROMULO Z. ASIS                                          20500
A0101401090171462332001MELODIA B. GESLANI                                       0502
A0301400530193037469001SONRISE COOPERATIVE                                      0501
A0301400530193696379001MALDO, MAE AMOR C.                                       0501
A0301400790000001776150SAAVEDRA, EARL JOSEPH B                                 10501
A0301400790000001776150OR SAAVEDRA, MARIE CHONA                                20500
B0301400950000002115719**********                                               1601
B0101401380201011227001PHILTRANCO SERVICES ENTERPRISES, INC                     1610
B0101401380201043880001ZHONGFA DEVELOPMENT, INC.                                1602
A0101401380201079813001CHOI, JIANN                                              0503
A3101400450223310377002PENALOZA, RAINIER OR ROMA                                0501
A1001400350233539705001SIMBAJON, ELENA P.                                       0502
B0101401670000000016300NEWLINE INDUSTRIES, INC.                                 1603
A0101401670271491442001MARICHEL TORRES                                          0502
B0101406620273009661001MICROS-FIDELIO SOFTWARE PHILS. INC                       1602
B0101412470000000949577LIVAN TRADE CORPORATION                                  1602
A0101400570281503551001JAREN R. CABUDOL                                         0501
B2601400270302045063001ISABELA UNITED DOCTORS MEDICAL                          11620
B2601400270302045063001CENTER, INC.                                            21600
B08014001603110189040013 TOPS TRADING                                           1610
B0801400160311271206001WESTERN LAMP & ELECTRICAL SUPPLY                         1604
A6601400120000001370843RAZ, RODERICK ACUNA                                      0501
A0101402510341199103001CORAZON D. HUANG                                         0502
A0101402510341199632002ANA LIZA R. DELA CRUZ OR                                10503
A0101402510341199632002ANTONIO T. DELA                                         20500
A0101409050352696788001MONJE, FRANCES SUGUITAN                                  0501
A0201400760374030540001ST. FRANCIS MANPOWER SERVICES                            0501
A0201400760000002047398AILEEN C. CABUENAS                                       0501
A0201400760374723413001TORRES, MARICHO SILVA OR                                10501
A0201400760374723413001TAN, ALISON JANE                                        20500
A0101402930000000859770METT MOTIVATIONAL ENGLISH                               10502
A0101402930000000859770TRAINING                                                20500
A0101408790000002031418BATAY, ALEX JONATHAN ESCORPIZO                           0501
A0101408790000004696955DECENA, LORELEI ANNE HERNANDEZ                           0501
A0101402770391478374032ELPEDIA C. ABRASALDO                                     0502
A0101405490392589729001SUSAN O. DU                                              0501
B0301400820000000024911DIGOS DOCTORS' HOSPITAL, INC.                            1620
A5501400120000000265741JALANDO-ON, NATHAN DEL MUNDO                             0505
B2401400180411056764001RD PAWNSHOP, INC. - GENSAN REGION                        1603
A2401400180411478374047YOLANDA L. NINGAL                                        0501
A1201400150421036214001PINES ARCADE                                             0501
B1201400150421041434001GREAT ZONE ENTERPRISE                                    1603
A1201400150000000473290BAGSINGIT, SARAH AGWIKING                                0502
A1201400150421685972001JUCUTAN, HEIDI BONDAD OR                                10502
A1201400150421685972001JUCUTAN, ROMMEL                                         20500
A0901400220000000888064**********                                               0502
A0101406330000001235307DULLAN, JESSILYN OSTAGA                                  0501
A1901400160491244619001ALEJANDRO F UY OR                                       10502
A1901400160491244619001APOLONIA AGNES B UY                                     20500
A1401400110492378227001VEJERANO, ROBERTO MAMORE                                 0501
A1601400170000000421241LEGAZPI ISUZU CENTER                                     0504
B0101403580511598100001ASIAN INSTITUTE OF IMMUNOLOGY INC.                       1608
A0101405940000000061583CASAS, JOHN VICTOR ABEJURO                               0501
B0101405940000000002773BT AUTO SPORT CORP.                                      1605
A0101408530516558878001HENSON, HERSHEY KATE A.                                  0501
A0101408530516615903041**********                                               0501
A0101411400000002639701ELENA E. AMON                                            0505
B0101403450521012166001TIGER RESOURCES, INC.                                    1601
A0101403450000001769840*************                                            0501
A0101403450000000889410**********                                               0501
A0101403450521393983001**********                                               0501
A0101403610531220632001BLANDO, LETICIA SALEM OR                                10501
A0101403610531220632001BLANDO JR., LUIS                                        20500
A0101404000551371853001AVILA, MERCEDITA CUNNANAN                                0501
A2201400250561028844002CHRISTIAN HOME FURNISHING                                0503
B2201400250561041156008COLINTAN CORPORATION                                     1601
A0101404130601691691001TUBIANOSA, LEO ESCUREL                                   0502
A0101407720602081606001DY, JAY VILLAR                                           0502
A0101407720602326333001SATURNINO PEREZ JAVIER                                   0502
A0101407720602333243001MELODIE GRACE M. REMORCA                                 0503
A0101407720602697692001SANTOS, GENEVERE SERNA OR                               10501
A0101407720602697692001SANTOS, DANILO S                                        20500
A0101404260611478374129RUBY VIRTUDAZO                                           0501
A0101404260000003498408MEMBERS OF NATASHA (SHOECAT INC                          0501
A0101409920000001951880MEMBERS OF NATASHA (SHOECAT INC                         10503
A0101409920000001951880DEJUCOS, PURITA                                         20500
A0101407690000000587793CECILIA F. PILI                                          0502
A0101407690652025438001BETA BAKERY SUPPLIES & GENERAL                          10501
A0101407690652025438001MERCHANDISE                                             20500
B0101407690652034012001CONSUMER ADVANCES AND SERVICES HOUSE                    11601
B0101407690652034012001INC.                                                    21600
B0101407690000000243923EVER READY CREDIT AND FINANCE CORP.                      1602
A0101407690652093160001SABIANO, JOLLY PENAFLORIDA                               0503
B0101407690652207555001ST. FRANCIS DE ASSISI SCHOOL OF                         11601
B0101407690652207555001QUEZON CITY                                             21600
A0101407690652388719001GONZALES, BOENARGES REYES                                0501
A0101407690652478374140BEATRIZ MANIAGO - DEALERS OF                            10501
A0101407690652478374140SHOECAT INC                                             20500
A0101407690652525001073ELVIRA D. BASA  DEALERS OF                              10503
A0101407690652525001073SHOECAT, INC.                                           20500
A0101411530000001393642FERDINAND ONG OR NELLIE ONG OR                          10501
A0101411530000001393642EMIL RAYMUND ONG                                        20500
A0101413570656057648184HONNIE ROSE NIEVA                                        0502
A0101413570656057651036ROMUALDO DE LEON                                         0502
A0101410300663737649001ERLINDA G SANTOS                                         0502
B1301400210682000613001AGRICOM RURAL BANK, INC.                                 1601
A1301400210682040042001EDUARD ALLAN TRADING                                     0501
A1301400210682245243001ATTY. MANUEL P. PUNZALAN OR                             10501
A1301400210682245243001ALEXANDRIA PUNZA                                        20500
A1301400340683467501001ROBERTO P. BANIGUED                                      0505
A1701400230693478374061BAUTISTA, CRESENCIO RISCAL                               0501
B0101408240711036910001ASIAN CENTRE FOR INSULATION PHILS.,                      1603
B0101408240711038557001THE BRIDGE SCHOOL, INC.                                  1605
A0101408240711591742001LIMOS, DOMINADOR CASIM                                   0501
A41014005508150438550013RD GEN FUEL STATION                                     0501
A4101400550000003267127NAVEA, A DBU VELJO ENTERPRISES                           0501
A0101412340000003344578GRAN LABRADOR L. MARTINEZ                                0501
A0101412340000004360041MAYVEEN L. LIPARDO                                       0501
A0101412340000004360296LIWAYWAY M. LANGIT                                       0501
A0101412340000004360365ROSETTE B. ANTONIO                                       0501
A0101412340000004360832DANTE M. CRIZALDO                                        0501
A0101412340850084786001MIRACLE GRACE S. DUMIP-IG                                0501
A0601400230000001062377EUSEBIO, ARVIN VIRAY                                     0502
A0601400230000000990012GO, JONATHAN TAN                                         0501
