B1201400150421821100608**********                                               2001
A1701400230000008555299RAMBAUD, ALBERT LACRO                                    0502
A0101408400394162577001REYES, ELSA UNGSOD                                       0501
A0101408950000003439183AYSON, MARIE KAREEN IDEA                                 0501
A0101408950000007458862CHIO, NANCY BORJA OR                                    10501
A0101408950000007458862CHIO, MARTIN CLARENCE                                   20500
A0101408950396583694001VILLAGOMEZA, ELSA GUERZO                                 0502
A1101400120000006081103BACSAL, EMMYLEEN BATAWAN OR                             10503
A1101400120000006081103BACSAL, DAVID DACUNOS                                   20500
A1101400120000005608191CELSO, GORGIE CAROLA                                     0501
A0101400150000006074911AMO, ANNE KRISSY GAWARAN                                 0501
A0101400150061039916014MANDELINE GALANG OR                                     10501
A0101400150061039916014ODILON GALANG                                           20500
A0101400150061292057004SISON, GIDEON GOCHIOCO                                   0502
A0101400150061292057006SISON, GIDEON GOCHIOCO                                   0501
A0101400150061430140001MIMI C. QUA                                              0501
A0101405810000000016606*****                                                    0502
B0101405810072517097001TANG, CHIU WAN                                           1601
A0601400100081279553001PASAMONTE, VICTOR LAMPA                                  0502
B0601400360000000978845P4 HUMAN RESOURCE SOLUTION, INC.                         1605
A0601400360083550544001MERCADO, LUCITO BLAY                                     0503
A0601400520000011421273DIZON, RYAN MORALES                                      0501
A0101410850000009034606DE LOS REYES, JESTONI DE LA                             10501
A0101410850000009034606CRUZ                                                    20500
A0101410850109053560002HERNANDEZ, JUNE JT DBU JUNE AND                         10502
A0101410850109053560002YVETTE TRUCKING                                         20500
A0101410560000000268320BALTAZAR, BEATRIZ POLO                                   0501
A0101410560000003562025PASCULA DC RAMOS                                         0503
A0101400730111520766046MARIVIC GATDULA                                          0501
A0101406040000000014757ONG, J DBU JILZEN ENTERPRISE OR                         10502
A0101406040000000014757JONATHAN C. BANG                                        20500
B0101406040000006025321ONGZEN BUILDERS INCORPORATED                             1602
A0101401960000006004433GAN, GERALD TING                                         0502
B0101401830000000033592CARITAS SALVE CREDIT COOPERATIVE                        11604
B0101401830000000033592TAYUMAN (004)                                           21600
A7201400170000009673123MONDARTE, EMERSON SIJO                                   0501
A5001400170000000213794UY, ARSENIA LIM                                          0501
A0101400440000000821458ESCULTURA, JOHN HENRY NAGAR                              0501
A0101400440161591337001JENESSEY A. RANCES OR                                   10502
A0101400440161591337001JESSIE O. RANCES                                        20500
A0101407270000006915217ANG, CHITO NOLASCO                                       0501
B0101407270162008381001ABS-CBN BROADCASTING CORPORATION                         1602
B0101407270162028106001MANSMITH AND FIELDERS, INC.                              1601
A0101407270162587936002WILFRIDO G. TIRONA                                       0501
A0101401090000011424821CAGUIOA, FREDERICK JACINTO ASCA                          0501
A0101401090171197483001ANNA LEA L. ENRIQUEZ                                     0501
A0101401090171199666001ELENITA C. MENDOZA                                       0501
A0101401090171375571001********                                                 0503
A0301400530000011431433GUTUAL, ROLAN SPANTALION                                 0501
A0301400530000003573288COSMENO, JELLY JUANILLO                                  0501
A0301400660000006862862PEDRAJAS, MANUEL OR PEDRAJAS, B                         10502
A0301400660000006862862EVERLYN                                                 20500
B0301400660000002348541ERVY LOGISTICS                                           1602
B0301400660000003368325SAN JUAN TIBUNGCO PETRON GAS STATION                     1601
B0301400790000011426770******                                                   1601
B0301400790000000435807ROTARY CLUB OF WEST DAVAO                                1601
A0101413020000006295958CHONGCO, MARIA SONIA SANTOS                              0502
B0101413020000000038388ASISI SYSTEM CORP.                                       1603
A0101413020000000038344FRANCISCO JR., RICARDO ARCILLA                           0502
A0101410720653452116001VIRGILIO R. BACQUEL JR.                                  0501
A0101413600000005794596CORAZON G. SINGIAN OR                                   10501
A0101413600000005794596FRANCISCO B. SINGIAN                                    20500
A3101400160000008941453JULIANO, JOSEPH ALABADO                                  0503
A3101400160221626743001MARANAN, AMADO REDONDO                                   0503
A3101400450223466114002NATIVIDAD, GINA DUNGO                                    0504
B3001400130000008264955TRUMPH MOTORCYCLE CORPORATION                            1602
B1001400190231010692001PHILIPPINE IRON CONSTRUCTION & MARINE                   11605
B1001400190231010692001WORKS INC.                                              21600
A1001400190231520766006DELFIN, LORENA                                           0501
A1001400350000000922058ARENO, ANN JANE BUCO                                     0502
A1001400350233478374026ANNABEL ESTOMO                                           0501
A1001400350233478374033CARAOS, PATROSENIA T.                                    0502
A1001400480000000606893DERECHO, REYNALDO RAMAYLA OR                            10502
A1001400480000000606893DERECHO, MILRENAH                                       20500
B1001400480000003357839ENROGEL CONSTRUCTION CORP.                               1602
A0101401670000000079269IBITA JR., ADELARDO SENA                                 0501
A0101406460272232218001MARIANO, NORMITA T.                                      0501
A0101411820000001356690JOMERLYN S. HUGO                                         0501
A0101411820000002328452GENISES C. SOLOMON                                       0505
A0101412470000000520130FLORES, GINA CRUZ                                        0502
A0101400570000003891452LEGASPI, MELANIE SONON                                   0501
B0101400570281068500001PRIME PACIFIC FOODS CORPORATION                          1601
A2601400270000009497863ROCHELLE ANNE C. LOPEZ OR MARK                          10502
A2601400270000009497863ANTHONY C. CABACCAN                                     20500
A0801400160000002287578************                                             0501
B0801400160311015273001SYSTEMIC FARM CHEMICALS I                                1601
B0801400160000000010271EON REALTY AND DEVELOPMENT CORPORATION                   1605
A1101400120000003022384ELCARTE, ERNA GONZAGA                                    0501
A1101400120313478374112VILLASOTES, JEAN LIBATIGUE                               0502
A1101400120000006186661MORETE, MARELINE RADORES                                 0502
A6601400120000000060380ADRIATICO, ROMEO VILLASIN                                0502
B6601400120314043609009FUNDACION GRAMEEN PILIPINAS INC.                        11605
B6601400120314043609009RAINBOW BRANCH                                          21600
A0101402350321063533001MADRIDEJO JR., ARIEL RECTO DBU                          10501
A0101402350321063533001MADRIDEJO BOARD INSTALLER                               20500
A0101402350321365573001CORAZON M. FERMIN OR ROSARIO C.                         10502
A0101402350321365573001MERCADO OR JOSE G. GANTAN                               20500
A0101402510000000049409CUTHBERT GO OR CECILE GO DBU                            10501
A0101402510000000049409BAOBEI ENTERPRIS                                        20500
A0101409050000011151065SAPORSANTOS, REGINA ANTONIO                              0502
B0101409050000007526414STARPORT ASIATECH INC                                    1602
A0201401020000007458275ONG, JORGE TING                                          0501
B0101402930920130000047JUSTIN TARA INTERNATIONAL CORP.                          1601
A0101408370382299433002CRISTELA A. VILLAREAL OR                                10501
A0101408370382299433002GEORGE B. VILLAREAL                                     20500
A0101402770000001571353DE GUZMAN, NOEL ELLAN                                    0502
B0101405490392006286002LENDING INVESTORS NETWORK, INC.                          1601
A0101405490000001092580MARIA THERESA P. OTSUKA OR                              10501
A0101405490000001092580SUSAN C. VILLAFU                                        20500
B0101405490392575171001ANIMED LABORATORIES, INC.                                1602
A0101405490392591892001RIZZA L. ACOL                                            0501
B0101408400394028450002LIVINGWATER FILTRATION AND REFILLING                    11604
B0101408400394028450002STATION                                                 21600
A0101408400394028886002DEC ORIENTAL FOOD STREET CO. LT                          0503
B0101408400394042504001DOTS PER INCH PRINTING CORPORATION                       1604
A0101408400000010506895DESQUITADO, DBU C ADLIFT ELECTR                          0505
A0101408400394478374062APOLIS, SALVACION G.                                     0501
A0101408400394532241001NEBRES, RODOLFO OR                                      10501
A0101408400394532241001NEBRES, ROWEL                                           20500
A0101408950000000776785AMANTE, ANGEL JOAQUIN MANUEL                             0502
A0101408950396563005001DR. ANDREW GABRIEL JACINTO                              10502
A0101408950396563005001TABBERRAH                                               20500
A0101408950000000472991TABAQUERO, MAY ANNE VILLAMIN                             0502
A0101409180000009240802ANGELYN BADEO                                            0501
A0101409210000011425000SANTOS , ZIRJAYE  REYES                                  0501
A0301400820000001185780RUFEROS, ROY KENNETH OR                                 10501
A0301400820000001185780AREVALO, MICHELLE KAY                                   20500
A5501400120000000047174ADUANA, RACHEL OR                                       10501
A5501400120000000047174ADUANA, ROMMEL                                          20500
A5501400120410688656001PAEZ, RYAN ELEGINO                                       0501
A0101403030441044003001**********                                               0501
A0101403030441240960001**********                                               0501
A0101403320471534421001MICHAEL JOHN A. BAGALAY                                  0501
A0101406330472022555001AUDIO EXCELLENCE MARKETING                               0505
A0101406330472027958001A. ANOLIN ENTERPRISES                                    0502
A0101406330472041459001PROTECH SECURITY MARKETING                               0505
B0101406330000000432795GSD SECURITY AGENCY, INC.                                1601
B3801400170490068538001RIVER OF LIFE INTERNATIONAL MINISTRIES                  11601
B3801400170490068538001CALAPAN, INC.                                           21600
B0701400260000000041083MULTI-WARE ECON-SALES CORPORATION                        1604
A0701400260000001804702**********                                               0502
B0101411400000006560892THOMPSON, CELINA DE PEDRO DBU DENTAGEM                  11603
B0101411400000006560892DENTAL CLINICS                                          21600
A0101412050000000323613ZULUETA, CHARISSE DBU CEM                               10502
A0101412050000000323613TECHNOLOGY ENTERPRISES                                  20500
B0101412050519821100608**********                                               2010
A0101403450000008159940SANTIAGO, AURORA MIRANDA                                 0501
B0101403450521237153001**********                                               1602
A0101403450521405278001**********                                               0502
A0101403610000011430532CONCHE, NICANOR LITONG                                   0501
A0101412180000000501500ALMAZAR, ALLAN GEPIGA                                    0501
A0101404260000007498299LICAROS, NENITA RAMOS                                    0502
A0101404260611478374075VIVENCIA HATOL                                           0501
A0101404260611478374077LUCIA CAPILITAN                                          0502
A0101407690652564294003GALVEZ, NERISA RIVERA                                    0504
B0101413570000005867485POWER BUILT HARDWARE AND CONSTRUCTION                   11603
B0101413570000005867485SUPPLY                                                  21600
B0101406590000003007278********                                                 1601
B1301400340683023491001EMPRESS CHEMICAL INDUSTRIES, INC.                        1602
A1301400500000000213185ESCOPETE JR., ORLANDO SANTOS                             0502
A1701400230000005694200BAQUIRAN, EDWARD GANIRON                                 0502
A1701400230693478374050FAILANO, LYDIA G.                                        0501
A1701400230000005694244VALENTIN-MIGUEL, MAUREEN VALENZ                          0501
A1701400230693650375001CARAG, MARCO JEREMY LUZOD                                0502
A2801400100000009533451ESCOBAR, DOLORES DIMALANTA                               0501
A0101404840000006364907IMELDA SUAREZ                                            0501
A0101404840851520766105ALICAWAY, HELEN                                          0501
A0101405070000010969790LAUREOLA, SUSAN DIZON                                    0502
A0101405070861478374066ELMER LADRES APAS                                        0501
