B0101410560110821100608**********                                               2003
A0101406590000003007096ARROYO, MA LOURDES TUASON                                0501
A0101406590000003007041PUEN, STEPHANIE ANN YU                                   0501
A0101406590662207039001HORTENCIA A. BUENAVENTURA                                0501
B0101412500214055614001A.D.P.P. TRUCKING SERVICES CORP.                         1603
B0101406590662684617001MRBII CONSTRUCTION CORPORATION                           1602
A0101400150000011171478REYES, VIRGILIO                                          0501
B0101412500000016155732TWAPAKTO INC                                             1601
B0101409180000009085281DELA CRUZ, DENNIS TABUJARA DBU                          11605
B0101409180000009085281DTDC BUILDERS                                           21600
B0101406590662037318001NETWORK TWENTYONE, INC.                                  1602
A0101406590662065552001ALINDUGAN, MARIVIC BANDELARIA                           10502
A0101406590662065552001DBU S21 TRADING                                         20500
A0101400730111198377001STARADUB, ROBERT PATRICK                                 0501
A0101412500000008919304LIM JR., LOWELL HOLDER BANGAYAN                          0501
A0101412500000016163581TANA, JOSE MIGUEL MELCHIADES DO                          0505
B2001400290000002406760MILLER SOLUTIONS DEVELOPMENT INC.                        1602
B0101402060351030981001DAVIES PAINTS PHILIPPINES INC.                           1605
A0101412890000009833849UBINCUBE ENTERPRISES                                     0501
B0101400860000001005423***********                                              1603
A0101400860011421983001*********                                                0504
B0101400860011490631002**********                                               1601
A0101401250021178991002CUNETA, BIENVENIDO ESTRELLA  OR                         10501
A0101401250021178991002MA. CONSUELO C. O'CONNOR                                20500
A0101400150000003218226PIA VANESSA V. SORIANO                                   0501
B0101400150061011027001TANY CORPORATION                                         1601
B0101400150061035853001EPICUREAN PARTNERS EXCHANGE, INC.                        1620
A0101400150061226922001INES, PHILIPP DELFUN                                     0501
A0101400150061569034001JOHN R. JACKSON OR TANCHI, JOSE                         10501
A0101400150061569034001PH CHRISTOPHER C                                        20500
A0101405810072234892001**********                                               0501
B0601400100000000142054LEE SADDI REALTY AND DEVELOPMENT CORP                    1602
A0101410560000010317790TOV TRUCKING SERVICES                                    0503
A0101400730111347787002CHAVEZ, LYNN FLORENTINO                                  0501
A0101406040000008915471********                                                 0505
A0101406040112417213002MARIO LOUIE C. GUEVARRA OR                              10502
A0101406040112417213002ELVIRA S. CASTIL                                        20500
A0101412630000001485190CASTRO, AILEEN TORRES                                    0501
A0101413310000014242581ANGCO, JULIE ANN MOJICA OR                              10502
A0101413310000014242581ANGCO, KELVIN ANG                                       20500
A0101413310000006735788FERNANDEZ, RAYMOND SALAZAR DBU                           0503
B0101401830000016163507BANCE, JIMSON RUMION DBU K.E.F.                         11602
B0101401830000016163507COMMERCIAL BLDG                                         21600
A0101400440161525001091CRISTINA A. PADILLA                                      0502
A0101407270000011873284EQUIPAJE, ARON GINO ISIP                                 0510
A0101407270162407622004SANTOS, RONALDO SORIANO                                  0501
A0101401090171196099001MARY JEAN V. GUNO OR                                    10502
A0101401090171196099001ATTY. TOMAS GUNO                                        20500
A0101401090000000772190DIAMANTE, OSCAR RAGAS                                    0501
A0301400530000003087363LEGASPINO, HERMENEGILDA AARON                            0501
A0301400530000009156947CAI, SHAOXIN                                             0503
B0301400530000000025378D' UNIBUENAS CORPORATION                                 1603
A0301400660000002913259PADAPAT, ZALDY GEROMO                                    0503
A0301400790000012273619NACARIO, NEEVA GUMAPAC OR                               10501
A0301400790000012273619NACARIO, JOVEN GERASTA                                  20500
B0301400790000016194031LIAM GLASS ALUMINUM AND STEELWORKS                      11601
B0301400790000016194031FABRICATION                                             21600
A0101401380000002297505BERNARDO, JOSEPH ALLAN ALHAMBRA                          0501
A0101401380000015062592SORIANO, VALERIE GALOYO                                  0502
A0101401380000000414286********                                                 0505
B0101410720000000968123DPE ASIA CONTAINER SERVICES&OUTSOURCING                 11603
B0101410720000000968123SOLUTION INC.                                           21600
A0101410720000008730701MARQUEZ, RAYMAR C DBU PHILMYTH                           0504
A0101412500000014661395QUIAMBAO, FERNANDO CARLOS                                0502
A0101412500000014661395QUIAMBAO, FERNANDO CARLOS                                0502
B0101412500000000041670MOLDEX REALTY INC.                                       1605
B0101412500000000041692MOLDEX PRODUCTS, INC                                     1603
B0101412500000003408131MOLDEX LAND, INCORPORATED                                1601
A0101413600000006779686HOMER NEPOMUCENO                                         0501
A3101400160221519790002MALAYA JR, ELI RODRIGUEZ                                 0501
A3101400450223489008001SIO, MINNIE REGINA OR JOSELITO                           0501
A3001400130000008264842AGOT, VICENTE ANTEGRA DBU PAMIL                         10510
A3001400130000008264842YA TRADING                                              20500
A3001400130230757981001SACAY, RENE CANTOR OR SACAY,                            10502
A3001400130230757981001JOSEPHINE SIMBIT                                        20500
A1001400190231520766119CABANO, BERNADITH CATIWALAAN                             0501
A1001400190231582514001WABAN, BERLIN PAQUINO                                    0501
A1901400290261525986001JOEL D PUA OR                                           10501
A1901400290261525986001MA KATRINA P PUA                                        20500
B0101408660000000034302EDGECOMM INC.                                            1601
A0101411820000004981773ABAYGAR, MA. CARMELA LIPA                                0502
A0101411820000000477145SHERWIN REYMOND M. ICALINA                               0501
B0101400570000003451578CARRYONE HOLDINGS INC.                                   1603
A0501400200000006445150CASTRO, ROSALIA ARIMAS                                   0501
A0501400200000005751782MISLANG, JANELY DELA CRUZ                                0502
A3401400280000000156621LOIDA C. GARCIA                                          0502
A0101402350000003080413************                                             0501
B0101402350321434411001JOMANIQ COMMERCIAL AND DEVELOPMENT                      11605
B0101402350321434411001INCORPORATED                                            21600
A0101405650000004822173BORBON, KATRINA MARIE HERNANDEZ                          0502
B0101405650000013858198MALONES, MARY GRACE ADRIANO DBU                         11602
B0101405650000013858198RTISTIC TRADING                                         21600
A0101402060000000358929ILAYA, FORTUNATO C.                                      0501
B0101409050000007526469MCN FREEDOM! TECH INC                                    1602
A0201400760000011472267ALBA, JOSE MARI ATILLO OR                               10502
A0201400760000011472267ALBA, MARY CHERYL ANNE PA                               20500
B0201400760374055989001GOLDEN GREAT PEAK ENGLISH INC.                           1601
A0201400890376504512001A.I. BUILDERS & SUPPLY                                   0501
B0101402930381045839001EQUILAND PROPERTY MANAGEMENT (EPMC)                      1601
A0101408370382431185001ARNOLD T. SALUD M.D.                                     0503
A0101411660000005324185GENEROSO, VALERIE CHRISTINA REY                          0501
A0101415350000013691200ESPANOLA, MARY ANN GEOCANIGA                             0501
A0101415350000004988492BRANDIS, SHIELA MAUREEN CONSIGN                          0501
B0101402770391009441001ST. ANTHONY HOMEOWNERS' ASSOCIATION INC.                 1602
B0101402770391009705002VICTORIA VALLEY CONDOMINIUM INTEGRATED                  11602
B0101402770391009705002CORPORATION                                             21600
A0101405490392327516002ARAGA, RACHIELLE VILLANUEVA                              0501
A0101405490000001092615SOJI M. BALBIN                                           0502
A0101408400394365111002REYES, DAISY GARCIA                                      0502
A0101409180000011749478ANNA CAUTON OR LUCAS CAUTON III                         10501
A0101409180000011749478OR ROSSELL MICLAT                                       20500
A0101409180000016193629GOZON, MA. JOSEPHINE CRUZ                                0501
A0101409180000003780205SALARDA, JULIUS                                          0501
A0101409180000016184060TENERIFE, DARIUS SOQUERATA                               0501
A0101409210000014368506HERNANDEZ, ODESSA PERALTA                                0501
A0101412210000015368791GREATCZAR MEDIA PRODUCTIONS                              0510
A2401400180411272631001MIGUEL, RAUL JOSEFINO FUENTES                           10506
A2401400180411272631001OR MIGUEL, ALONA                                        20500
A2401400180000007031585BASTARECHE, GLORIA NALDOZA                               0501
A2401400180411472836003OMEGA, LEE ANN GENILO                                    0502
A2401400180411478374044UGAT, ELVA T.                                            0502
A1201400150000015171970QUIANIO, WILFREDO FLORES                                 0502
B1201400150421035585001HOTEL COSMOPOLITAN                                       1601
B1201400150000007556241TREPTOR GREENCARD LENDING CORPORATI                      1605
A1201400150421542323001ACHAPERO, RHODAVITA CORPUZ                               0502
A0901400220000011559472**********                                               0502
A0901400220432478374002EVELYN ALGA DEMECILLO                                    0501
B0101403030000005944738NAUTS AND VECTORS COMPANY INC.                           1607
A0101403030441239049001**********                                               0501
B0101403030441590302001**********                                               1603
A0101412890000002748003CRUZ, BERNADETTE L. OR                                  10502
A0101412890000002748003CRUZ, JOVITO F.                                         20500
A0101403320471207895001AMBROSIO OR JOSEPHINE TOBIAS                            10501
A0101403320471207895001OR MARK ALVIN TOBIAS                                    20500
A0101410140000007294757AURELLANO, DBU WARGODS ARENA                            10505
A0101410140000007294757INTERNET CAFE                                           20500
A0501400170481285059001CHUA, CRISTINA YU OR                                    10501
A0501400170481285059001CHUA, STEVEN                                            20500
A1901400320000016174311FLORES, PAUL JASON CAPULSO                               0501
A1401400110000006680226LLAGAS, SUSAN REYES                                      0501
A0701400260000000041005KALAW, REYNALDO ORTEGA                                   0501
A0101407430000016188342MONTERAS, ROWENA NANAT                                   0501
A0101407430000003193440BURGOS, ARNEL MAGANA                                     0501
A0101405940512338558002CECILIA B. CLAVECILLA                                    0501
A0101408530000003519431SHERWIN C. SANGRADOR                                     0501
A0101411790518055764037ASTORGA, REYDEL GARSAIN                                  0501
B0101403450521011657001UP-TOWN INDUSTRIAL SALES, INC.                           1610
A0101403450521239572002ONG, SIN CHIOK                                           0501
A0101403450000006055665***********                                              0501
A0101403610000015957121MAYO, AMELITA MAGBOO                                     0501
A0101403610000016190044SAKUMA, RUTCHEL MAGNO                                    0501
A0101410690000000001758IGNACIO, JONATHAN DBU JCJ                               10501
A0101410690000000001758MANAGEMENT SERVI                                        20500
B0101404130601010620001AMERICAN WIRE & CABLE CO., INC.                          1601
B0101404130000000321542IPRUDENTIAL STEVEDORING AND PORT                        11603
B0101404130000000321542SERVICES INC.                                           21600
B0101404130601045407001MULTISOFTWARE ASIA, INC.                                 1603
B0101404130000000001372CRE8 MEDIA AND MARKETING CORP.                           1603
A0101407720602355070002SHERYLL MAGALIT-CORNEJO OR                              10502
A0101407720602355070002CARLO CORNEJO                                           20500
A0101409890000007373153MEDALLA, VILOETA TEJOSO DBU VTM                          0504
A0101407690000012226812ANGELES, MARK ANTHONY TOLENTO                            0501
B01014076906520400460017 MG GAS STATION                                         1601
B0101407690652422144001MELENCIO MEDEL OR CORAZON MEDEL                          1603
A0101407690000001919844APUNDAR, MYLENE CABASOY                                  0501
A1301400210000011696101ROXAS, AGAPITO MEMPIN,                                   0502
A1301400340000014341830CASTRO, NARCISA DIMAANO                                  0501
A1301400340000014341841DELA CRUZ, CECILE CASTRO                                 0501
A1701400230000005694233SALAZAR, MARIBETH SALVADOR                               0503
A0101408240000015858561RIVAS JR., FEDERICO ARRIOLA                              0501
B0101408240000013787103GNJ CONSTRUCTION SUPPLIES AND SERVICES                   1601
A0101408240711594684001SABILA, GENARO BARAWID                                   0501
A2801400100000011266801CHOI, BYUNG KYU                                          0502
A2801400100712430047001LEE, JAMES TAN                                           0502
A2801400230000005253292CASTRO, PRIMITIVO LAURIO                                 0502
B2801400230000001580296DEL ROS AMUSEMENT ENTERPRISES, INC.                      1602
A4101400390000001404266SAMARITAN C. SOLAS                                       0502
B4101400420814012632001UCCP - ANABU EVANGELICAL CHURCH                          1602
A4101400420814478374164LENITA PARRILLA BALISA                                   0501
A4101400550815047814001BAUTISTA, MARY THERESE CELINE                           10502
A4101400550815047814001BERNARDO                                                20500
A4101400550000000005950SEGURITAN, JOCELYN DBU SFC                              10506
A4101400550000000005950OFFICE FURNITURE                                        20500
A4101400550000003839349DE LUNA, MONETTE JASARENO OR                            10501
A4101400550000003839349DE LUNA, PATRICK                                        20500
A0101412340000005964225CINCO, NINO VINLUAN                                      0502
A0101412340000010659937MARICEL L. ARRE                                          0501
B0101412340000000031012MALATE CONSTRUCTION AND DEVELOPMENT                     11610
B0101412340000000031012CORPORATION                                             21600
A0101404840851520766067JOSEPHINE V. GABAYERON                                   0501
A0101404840851520766180CARMELITA M. BARBACENA                                   0501
A0101406750000005666817CDB ACCOUNTING AND TAXATION                             10502
A0101406750000005666817SERVICES                                                20500
