A0101400440161478374076JAYNE D. BARBIN                                          0501
A3101400870000004998116DE GUIA, MARIA CONCEPCION                               10501
A3101400870000004998116PASTOR OR DE GUIA, ANDREW                               20500
A3101400870000000957940FARCON, JENYLYN REYES OR                                10501
A3101400870000000957940DE MATA, NENETTE                                        20500
A5501400120410478374001ESTACION, EDELYN                                         0502
A0101400860011374819002**********                                               0506
A0101400860011391313003**********                                               0502
A0101400860011400861002**********                                               0505
A0101400860011478374008LEONORA MACARANAS                                        0501
A0101400150000004093350DEMASU-AY, MA. BEAULAH NALES                             0501
A0101400150061073880003**********                                               0502
A0101400600000001025114CARMELITA V. NATIVIDAD JR.                               0501
B0101400600071325133001**********                                               1602
A0101410560000001944203BANES, GENELYN C DBU ORANGEDROP                         10501
A0101410560000001944203DIGITAL PRINTING SERVICES                               20500
A0101410560000001944210BANES, GENELYN C DBU DARKSIDE                           10501
A0101410560000001944210RESTAURANT AND DISCO BAR                                20500
B0101401960121011807001APCO MARK INDUSTRIAL SALES                               1601
B0101401960121238699002SO, PONCIANO CHUA                JT                      1601
A0101400440000002035198DOVIE T. JERMIA                                          0502
A0101400440161525001153JENNY P. CRUZ                                            0502
B0101407270162019029001ORIENTAL YUASA BATTERY, CORPORATION                      1603
B0101407270162028688001KAISA CONSULTING COMPANY, INC.                           1606
B0101407270162043415001MY HAPPY FARMER MACHINERY CORPORATION                    1601
B0101407270000000830540QUANTUS BUSINESS SERVICES, INC.                          1605
A0101407270162331908032LIZA LEAH JUINIO                                         0504
A0101407270162606606001ROSANNA S. MERCADO                                       0501
A0101401090171202049001BELINDA V. DE CASTRO                                     0502
A0101401090171281347003CECILIA AGLEHAM                                          0502
A0101401090171322573001DR. PORSHIA COMES-NATIVIDAD                              0501
A0301400530193478374012FUEREN, JANETH C.                                        0501
A0301400660000002348461PEREIRA, ANTONIO FERNANDO                                0501
A0101401380000002297527CADAYONA, VENER CAUNCA                                   0501
A0101401380201728152001DEL ROSARIO, ADONIS OR                                  10502
A0101401380201728152001DEL ROSARIO, GIZELLE ROSE                               20500
A0101413020000000056831****************                                         0501
A0101410720000000234860AROMIN JR., BENJAMIN DOMO OR                            10502
A0101410720000000234860AROMIN, MARISSA                                         20500
B0101410720653038296001CREATIVE DESIGNLABS INC.                                 1602
B0101410720000000030053GRACE GOSPEL CHURCH NORTH INC.                           1601
A0101410720653505147001****                                                     0501
A0101410720000002283930LADIA, APRIL IRIS RUPIDO                                 0502
A3101400160000000006500ANNIEFER P MERCADO                                       0501
B3101400160221029066001PANASONIC COMMUNICATIONS PHILS. CORP.                   11601
B3101400160221029066001EMPLOYEES' RETIR                                        21600
B1001400190231017478002CHURCH IN CAGAYAN DE ORO, INCORPORATED                   1604
A1001400190231022073001FARASIA EDUCATIONAL LIBRARY COR                          0502
A1001400190231478374067DAGANATO, NICANORA BALOS                                 0501
A1001400190231520766042GEOTORO, INES MANGUILIMOTAN                              0501
B1001400350233013980001VIC IMPERIAL APPLIANCE CORP.                             1603
B0101401670271017449001HK HARDWARE SUPPLIER CO., INC.                           1601
B0101401670000000739253A.L. SALAZAR CONSTRUCTION, INC.                          1605
A0101401670271228042001TINIO, JUAN ANGEL LIGON                                 10501
A0101401670271228042001OR TINIO, MARIA CELESTE                                 20500
B0101406620273046416002FIRST SHELTER VENTURES & REALTY COR                      1610
B0101411110000000009076E. SAYAGO CONSTRUCTION, INC.                             1601
A0101400570281186842001DR. BENITO H. RAMOS JR.                                  0503
B0101411240000000629334CTU ENTERPRISES, INC.                                    1602
A1101400120000001547268JADOC, MA. ARIELYN PALOGAN                               0501
A1101400120313537396001VILLEZA, ROMEO NIEVES                                    0503
A0101402350321242269001GO, ROSARIO                                              0501
A0101402350321290525001JAIME VIRAY OR REGINA VIRAY                              0505
A0101402350321597544001ARSITIO, ROBERTO T. OR ARSITIO,                         10501
A0101402350321597544001LUVIZMINDA L.                                           20500
A0101402510000001292440SACRAMENTO, GERARDO COVACHA                              0501
A0101402510341381018001DANICA FRANCIA SANCHEZ CAUDAL                            0501
A0101402060000000358565DECENDARIO, MARICHU TADLAN                               0501
A0101402060351479109001ALMADEN, ROSALINDA CLACIO                                0501
B0201401020000000005078COMMONWEALTH INSURANCE COMPANY                           1602
A0101408370382319789001ROCHELA B. CUAYCONG OR                                  10501
A0101408370382319789001CESAR A. CUAYCONG                                       20500
A0101408370382597245001DR. NIKKOH P. MUNOZ                                      0501
A0101408400394034391001INTEGRATED TELENET SOLUTIONS CO                          0502
A5501400120000001121719ONG, DANIEL STEVEN OR                                   10505
A5501400120000001121719YU, MARICA ARMIN                                        20500
A5501400120000002019090PENDON, NIXONLIE PASTRANA                                0502
A5501400120000002019103PENDON, VENISE NICHOLE VILLOREN                          0503
A5501400120410551770002AGUILAR, JEANNY CARDINAL                                 0502
A1201400150000001863323GUANSO, WONDROUS JOSEPH LUYUN                            0501
A0101403320000001803470LODRONIO, ALESSI LORA LUZONG                             0501
A0101410140000001940041ATTWOOD, BARBRA JANE VICTORIA                            0501
B0501400170481018109002****                                                     1602
A0501400170000000495227ARZADON, VOLTAIRE PORSOVIGAN                             0502
A3801400170000000497832RAQUEL D. SALAS OR                                      10504
A3801400170000000497832ENRIQUE R. SALAS                                        20500
B1901400160491341189001VIRGINIA R VARGAS OR                                    11601
B1901400160491341189001RICHARD D LIM                                           21600
B0101405940000001800300STAR MOTORS MANUFACTURING INDUSTRIES                    11601
B0101405940000001800300INC.                                                    21600
A0101408110000001165873LAY BARE WAXING SALON                                    0501
A0101408530516571877187FELIX V. IRINGAN II                                      0502
A0101403450000001769811*******                                                  0501
A0101403450521238265001**********                                               0502
A0101403450521239193002**********                                               0501
A0101404000000001186749GALANG, FEDERICO COMDOHR OR                             10502
A0101404000000001186749GALANG, ELEANOR CALO                                    20500
A0101404000551287485001CECILIA A. MELENDRES OR                                 10502
A0101404000551287485001ISMAEL L. MELEND                                        20500
A0101404130601651469001BIGTAS, APOLINARIA AMONCIO                              10501
A0101404130601651469001OR PELIGRO, MICHELLE                                    20500
A0101407720602381795001FORES, MIGUEL EDGARDO MANUEL                            10503
A0101407720602381795001OR FORES, LUCIA                                         20500
B0101404260611028187002AMERICAN PRIME MANPOWER SERVICES, INC.                   1601
A0101404260611478374085ROSALINA SUMILE                                          0501
A0101409920000001539500TAMAYO, NARISSA                                         10510
A0101409920000001539500DBU SZAMANTA ENTERPRISE                                 20500
A0101409920000002260500DE JESUS, MARIA TERESA S.                                0501
B0101407690000000025083HAPPYMATS INC.                                           1605
A0101413440000000183680LORENA D. FADERANGA                                      0501
A0101413440000000702361DE LEON, JOSEPH CAMACHO                                  0502
B0101413440000000038213ROMBE PHILIPPINES, INC.                                  1605
B0101413440000001085610SEASTEMAS INTERNATIONAL, INC.                            1605
B0101410300000000191677ROPABLANCA CORPORATION                                   1602
B0101410300663789160001FASTRAVEL SPECIALISTS HOLDINGS, INC                      1603
A1301400210000002909306VIVAS, MARICHU NAVALTA                                   0501
B1301400210682036160001RICH-WELL INTERBRAND CORPORATION                         1602
A1301400340683356585002ORBE, ALICIA JUSON                                       0505
A1701400230000002347333SALAZAR, EDWIN ENRIQUEZ                                  0503
A1701400230000001786781SANTOS, STEVEN DBU POLARIS                              10501
A1701400230000001786781BEACH HOUSE                                             20500
A2801400230713792777001LOPEZ, JEAN EBANCULLA                                    0501
A4101400260000000377526ALCEBAR, MAYRA FE MONTE DE RAMO                          0501
A4101400260000003679669ROSARIO, JESSICA GUTIERREZ                               0501
A4101400390000000975139ALBELDA, RHEA LOU CAUILAN                                0501
A0101412340000003761897JOHN MICHAEL L. SION                                     0501
A0101412340000004869816BERNADETTE S. HIDALGO                                    0502
B0101404840851009288001CHRIST BAPTIST CHURCH                                    1602
A0101404840851175235001CEPRES, LOURDES BALAGUER                                 0501
B0101404840851214607001KAWASAKI EMPLOYEES MULTI-PURPOSE                        11605
B0101404840851214607001COOPERATIVE                                             21600
A0101404840851478374121MARISSA L. ESPARAGOSA                                    0502
A0101406750000002040204JULIANDA, DBU TILESTONE TRADING                          0502
B0101413860000001768049MAGIC HEXAGON FLEET CORPORATION                          1602
A0601400230000000452782GOZUN, R-JAY RAMOS                                      10510
A0601400230000000452782OR GOZUN, MYRNA                                         20500
