B1101400120313821100608**********                                               2003
B1101400120313821100608**********                                               2003
A0101413150000002299330******                                                   0503
A0101408240000013983305**********                                               0501
A0101402930920130000105SIGARRA, MARIA KRISTINA ANN ALC                          0502
B0101402930381009079001THE AMERICAN EYE CORRECTION                             11610
B0101402930381009079001CENTER INC.                                             21600
B0101400600071234185001BALAY, FRANCISCO OR BALAY, MELLY                        11601
B0101400600071234185001BALAY, ANDREW                                           21600
B0101400600071603898001*******                                                  1601
A2001400290000014726884GUERRERO JR., RODULFO POGOY DBU                          0504
B2001400290315047753001SILLIMAN UNIVERSITY COMMUNITY COOP.                      1610
A2001400290315081010001TAN, JAMES ERWIN VILLABERT                               0502
B0101409180000012558180SHIMSHON SERVICES CORP.                                  1602
B0101412210000007251669PABAZA IMPORT & EXPORT INC.                              1603
A0101400860000013978802***********                                              0501
B0101400860011011432003MLQES TEACHERS' MULTI PURPOSE COOP                       1601
A0101400860011479962001**********                                               0502
A0101400860011487850002**********                                               0503
A0101401250000002763346**********                                               0503
A0101411370000014023142ROCES, ANTONIO LUIS ROBLES                               0502
B0101411370000000018135FOKUSI CONSTRUCTION INC.                                 1602
B0101400150061010838002INFORMATICS COMPUTER INSTITUTE, INC                      1605
B0101400150061011014001ECHAUZ HOLDINGS CORPORATION                              1602
B0101400150061036325001AIKO ENVIRONMENTAL & GENERAL MANPOWER                   11601
B0101400150061036325001SERVICES INC                                            21600
B0101400150061047569001JACKBILT INDUSTRIES, INCORPORATED                        1602
B0101400150000001708414AC ENERGY DEVCO INC.                                     1605
B0101400600071027347001*****                                                    1601
B0601400360000013047740BGC PHILBUILDER INC                                      1602
A0101413280000005084942SOTELO III, MANUEL SAMSON                                0501
A0101413730000003715837CO, CHRISTOPHER GUEVARRA                                 0501
A0101413730000008263963UY, JASON VERGARA                                        0501
A0101410850000013601815DAUIGOY, PRINCESS COR GALAMAY                            0502
B0101410850000001229852SWM SHIPMANAGEMENT INC.                                  1610
A0101410560000000757240BEATRIZ BALTAZAR & LETICIA GARB                         10501
A0101410560000000757240& CORAZON FELIX                                         20500
A0101400730111478374017VEBELITA G. GALLETO                                      0502
A0101406040112206284001DEMIE S. BULALAS                                        10503
A0101406040112206284001OR CRISTINA A. B                                        20500
B0101401960121024740001**********                                               1610
A0101413150000000038515*******                                                  0502
A0101413150000011778319****                                                     0501
A0101413310000016200609VERGARA JR., CONRADO DE JESUS                            0502
A7201400170000003774072ALEXIS J. ARCENAS-AMOROSO OR                            10501
A7201400170000003774072CARL LEWIS L. AMOROSO                                   20500
A7201400170000006487741TAN, GLENDA NADALA                                       0502
A7201400170000009463852ARNOCO, JULIE TANTAN DBU                                10502
A7201400170000009463852ARCHITEKS DESIGN & ENGG.                                20500
A5001400170000014111858YU, ANGELO INVENTADO                                     0502
B5001400170000000169799ZORAYDA LENDING SERVICES CORPORATION                     1605
A0101400440000013845473ROJAS, JOSE ELTON TERGA                                  0502
A0101400440000008201272OLIVERON, EFREN PERU                                     0501
A0101400440161186940001MARILOU I. DIVINA                                        0505
A0101400440161375261001EUGENE DE LUNA OR                                       10501
A0101400440161375261001THISTLE DE LUNA                                         20500
A0101400440161478374076JAYNE D. BARBIN                                          0501
A0101400440161478374129HAZEL R. SALATAN                                         0502
A0101407270000015584873VALENCIA, FERDINAND CABRIANA                             0502
A0101407270000014296876DOMAYAN, JOEL ALBERCA                                    0502
A0101407270162526657001VALERIE ANNE G. MALIG                                    0502
A0101401090000015531456ROMANA, NADIA BEATRICE SALAMAT                           0501
B0101401090171030100001THOMASIAN MULTI-PURPOSE EMPLOYEES                       11610
B0101401090171030100001COOPERATIVE                                             21600
A0301400530000011715267PIATOS, MARIA LINA PETARCO                               0502
A0301400530000012016890LUSDOC, ARNOLD LINGCONG                                  0501
A0301400530193043858168******                                                   0510
A0301400660194084735001LABARITE, JOSEFA MANCERAS OR                            10502
A0301400660194084735001LABARITE, CHARMANE MANCER                               20500
B0301400660000006862720*****                                                    1602
A0301400950000011694707AUX DELIVERY SERVICES                                    0502
A0101401380000001819872********                                                 0503
A0101401380201554626001BANGURAN, MYRNA BRINGAS                                  0501
A0101410720000000967922MARIA EDUVIJES ANASTACIA M.                             10501
A0101410720000000967922CASTRO                                                  20500
A0101410720000016140140SHEILA M. MADALI                                         0501
B0101413600000002822653PERSONAL COLLECTION DIRECT                              11601
B0101413600000002822653SELLING, INC.                                           21600
A3101400160000017163127SECRETARIO, KAREN MAE HEBRON                             0501
B3101400160221027279002TORCHRESEARCH RESOURCES CORP.                            1601
A3101400450000017158113ARROJO, ALEXIS OBUSAN                                    0501
A3101400450223418716001GARCIA, JESUSA CORAZON PLAZA                             0501
A3101400450000001103433VALDEZ JR, ERNESTO JAMIAS                                0501
A3101400870000005565266GAMO, EMELSON PATAWE                                     0501
A1301400760000000050591DRIO, CONSTANTINO DOMINGUEZ                              0501
A1901400290261244436001DE JESUS OSCAR OR DE JESUS                              10501
A1901400290261244436001TERESITA OR LASALA MARICA                               20500
A0101406620000010983112CANOY, ANNA CRISTINA SULIT                               0501
B0101406620273022309001VISOR RESOURCES, INC.                                    1606
B0101406620273033463001ARL BUSINESS CONSULTANCY, INC.                           1603
A0101411820000002328532FAIDA BURGOS DAWAY                                       0501
A0101412470000010561872*******                                                  0501
A0101400570281361144001ERIC G. IDIESCA                                          0501
A6601400120000003672924AVESTRUZ, MAILYN LEANO                                   0501
A6601400120000011286310MARTIRES, ROMMEL GAMAY OR                               10502
A6601400120000011286310MARTIRES, MHEL J                                        20500
A6601400120000017164073CABANILLAS, LITA DE ASIS                                 0501
A6601400120314042312001NORSAM BUILDERS & CONSTRUCTION                          10503
A6601400120314042312001SUPPLY                                                  20500
A6601400120000003642846FLORESCA, MANOLITO ESTERNON DBU                         10501
A6601400120000003642846RMF SARI SARI ST                                        20500
A6601400120000005710316ALCANTARA, MAR SENOBIO                                   0502
A3401400280000016682214MORALES, HANNA JENICA BERNALES                           0501
A2901400130000012880661ZARADULLA, JOHNELYN DEL CARMEN                           0502
B0101402350321031714001CROWN CRIS INDUSTRIAL SALES AND                         11601
B0101402350321031714001MACHINE SHOP                                            21600
A0101402510341405258001CHRISTINE N. FRESCO                                      0502
A0201400920000012764922TAN, WILSON TAN OR                                      10501
A0201400920000012764922OMANDAC, ALMA ALFECHE                                   20500
A0201400920000015820825S3RA PRINTING PRESS                                      0502
A0201400920000001331571GARE, BONIFACIO PERA DBU                                10502
A0201400920000001331571GAREMED MARKETIN                                        20500
A0201401020000002250482LIM, TANYA LOU RIVERA                                    0502
A0101402930010120000565VILLALOBOS, DBU MD PRINT WORLD                           0505
B0101402930381008829002AXEIA DEVELOPMENT CORP.                                  1615
A0101408370000009296706ATIENZA, BRYAN JASON BALTAZAR                            0501
A0101408790000006026062WANDERLUST TOURS AND TRAVEL                              0502
A0101402770391211531001**********                                               0504
A0101405490000002140943GARCIANO, KIMBERLY MARIE LU                              0501
A0101405490000017158453YLLANA, LESLIE OR NAVAL, MICHAE                         10502
A0101405490000017158453L DBU ENCHANTING 8 TRAVEL                               20500
A0101405490392488782001FRED B. SALAZAR                                          0501
A0101408400394005972001FAUSTINO AND FAUSTINO                                   10510
A0101408400394005972001ENGINEERING                                             20500
A0101408400394401209002YU, ANNA KATRINA MANIQUIS                                0503
A0101409180000017163667SALONGA, ANTONIO MANUEL                                  0503
A0101409210000007864039PINEDA, MARY JANE VALMEO                                 0501
A0101412210000003448680********                                                 0505
B5501400120000000046853LAUNDRYWORLD LAUNDRY SYSTEM CORP.                        1603
B5101400100000010371461ACTUB, JONELYN BERNASOL OR ACTU                         11605
B5101400100000010371461B, MICHAEL CLOMA                                        21600
A0101412890000001056206GERONIMO, ANNABELLE ELEANOR LIM                         10502
A0101412890000001056206OR GERONIMO, MARLON                                     20500
A0101412890000012474301JOANALIE BRUNO DBU KORDERM SKIN                         10501
A0101412890000012474301AESTHETIC & WELLNESS CENT                               20500
A0101403320000015944935GONZALES, VINCENT SAN LUIS                               0503
B0101403320471008879002GOLDWIN MANUFACTURING                                   11608
B0101403320471008879002LABORATORIES                                            21600
A0101403320471047588001RHINA JENEPER C. LIBIRAN DBU                            10502
A0101403320471047588001R-GENESIS DRUG STORE                                    20500
A0101403320471518986001FARAH ALBANIA                                            0502
A0101410140475401189001AGUIRRE, CECILIA DILAO                                   0501
A0501400170000006300670BASCOS, ALMA FE VALERIA GALLARD                          0501
A3801400170000002302807SY, EDGARDO CHENG                                        0503
A0101407430000003235156FEY B. ACOSTA                                            0501
A0101407430503326748001JENELYN R. GALLARDO                                      0501
A0101407430503736499001CECILIA R. NALAUNAN                                      0502
A0101403580000005328821Jillina G. Borja or                                     10501
A0101403580000005328821Karl Frederick S. Borja                                 20500
A0101403580000012314742Leo Z. Ledesma or                                       10501
A0101403580000012314742Corazon D. Ledesma                                      20500
B0101403580000010847391THE CONTAGIOUS SECTION PRODUCTIONS                       1601
A0101403580511420184003MARIA CAROLINA S. MACASAET                               0525
A0101403580511495436001PAUL I. MACASAET OR MARIA                               10505
A0101403580511495436001CAROLINA MACASAET                                       20500
A0101405940000000061623ROMAN, ALLAN GUEVARRA                                    0501
B0101405940512020338001ANGEL LEIAIEL EXPRESS INT'L INC                          1605
B0101405940000008479030MY ONE BAHAY CORPORATION                                 1602
A0101408530516571877028JULIAN ANTONIO P. PACIFICADOR                            0501
B0101411400000017158551DELDIO, MANUEL FIDELIS DBU DELDIO                       11601
B0101411400000017158551LAW OFFICE                                              21600
A0101412050000002314381MIGUEL, SHIRLEY FERNANDEZ                                0501
B0101403450521239197001**********                                               1605
A0101403610000014184380TIONGCO, MYLENE MENDOZA                                  0501
A0101407720000016960711LIM, CHARLES RYAN                                        0501
A0101407720602373276001MACAPAGAL, ANTONIO RAMIREZ                               0502
A0101407720602396272001ROMANA BORROMEO OR RAFAEL                               10502
A0101407720602396272001BORROMEO OR RUTH SY                                     20500
A0101407720602396413002DR. RAMON FRANCISCO OR                                  10504
A0101407720602396413002IRENE FRANCISCO                                         20500
A0101404260611478374017BERTULANO, LUZVIMINDA                                    0502
A0101409890000003097943PACHEO, JOHN REY RAMOS                                   0504
A0101409920000013391312LONTOK, JONATHAN MONTEZA                                 0505
A0101409920000014279042SORILLA, MAUREEN IRAH PEDROSO                            0501
B0101409920000000021245PEREY, GERONIMO DBU TRI-OHMS ENGINEERING                 1602
A0101407690652445517001ALFEROS, MAELLEN GRACE SUALOG                            0501
A0101413440000000702236*******                                                  0502
A0101413440000012579596TACORDA, ELMER CONTRERAS                                 0501
A0101413990000016574233LICERIO, MELQUIADES S. OR                               10501
A0101413990000016574233LICERIO, TERESITA G.                                    20500
B0101414120000011637171ALI I.T. SUPPORT SERVICES INC.                           1601
B0101414120000000399184CANTILEVER CONSTRUCTION CORPORATION                      1602
A0101414120000016395347*****                                                    0502
B0101406590662038794001PRISMODIAL CONSTRUCTION CORPORATION                      1603
A0101410300000000191815CARBALLO, LUIS ANTONIO S. OR                            10503
A0101410300000000191815SALAZAR, EMMANUE                                        20500
A1301400210000004533226MERCADO, ERIC ARCEO                                      0501
A1301400340683478374049DONATO, NENITA M.                                        0502
A1301400500000002063963NICOLAS, JAY JOSEPH GARCIA                               0504
A0101408240711453117001MICHAEL RICHARD RAMIREZ                                  0501
A0101408240711613544001MANISAN, FREDEVER MARIBAO                                0502
A0101408240000000521862ALBARRACIN, MARIO MADAMBA OR                            10501
A0101408240000000521862MARY MAUREEN                                            20500
A2801400230000016302720SARONG, KIWI OPULENTO                                    0501
A4101400260812386293001DR. LORETA B. ZOLETA                                     0501
B4101400390000008744834ASO INTERNATIONAL MANILA, INC.                           1602
B4101400420000009392010SWINELAND INC                                            1602
A4101400550000016729103ITO, TERENCE KENJI BOREGAS                               0502
A4101400550000010508595MICHAEL R. PRADO OR ALEJANDRO                           10501
A4101400550000010508595C. ROSARIO JR.                                          20500
