A0101401960000000008040**********                                               0505
A0101403030000000009003******                                                   0502
A1001400190000000016424DE GUZMAN, MARIA ELENA CARPIO                            0501
A0101404420000000026053ARGUELLES, DAISY CRUZ                                    0501
A0101401700000000040115SAEZ, ELAINE                                             0501
A0101400440000000060255LOUELLIN L. LIM                                          0502
A0101401670000000079270************                                             0501
A2601400270000000084160EVELYN V. ALIVIA                                         0501
A1001400190000000124632ARLIGUE, RACSIEL C                                       0501
A0101406590000000131773CONCHA, JOAN GONZALES                                    0501
A0101410140000000254460RACELA, A DBU BMPS GLASS ALUMIN                          0502
A0101402770000000360592************                                             0501
A0901400220000000425136ROSOS, LORAINE WAYCO                                     0501
A0101412340000000484760ALLAPITAN, VICTORIA YABES                                0501
A0101410980000000533793AMONCIO, FREDIERIC YU                                    0501
A0101413440000000570392**********                                               0501
A0101413440000000570392DELGRA JR., FERNANDO MARASIGAN                           0501
A1401400110000000628488ANG, JOSE EMPROSO  JT                                    0501
A0101400310000000747091CADIZ, MARK LECAY                                        0501
A2401400180000000826164LAUTENGCO JR., PAULINO VENERACI                          0501
A0101401700000000890638LIWANAG, ANALIZA PARTICULO                               0505
A3101400870000000957893AVILA, KARMELA CESISTA                                   0501
A3401400280000000972812BULQUERIN, OZING BERNALDES                               0501
A0101412340000001017689GENESE, GILBERT VALLEJOS                                 0501
A1001400190000001057556EMMA A. BARRETE                                          0501
A6601400120000001065292AOYANG, DONABEL CERBITO                                  0501
A3101400450000001104050DOLOR, ELENA CASTILLO                                    0502
A0101407140000001218262**********                                               0501
A0101408530000001268402RONEL RICHIE E. TAMARGO                                  0501
A0101408530000001268559ARLENE Z. DIZON                                          0502
A0101410560000001290900MANDITA, JHOAN SOL                                       0503
A0101412180000001293261VERSOZA, VITTORIO SANCHEZ                                0501
A0101404840000001312612BERIA, MICHAEL JOHN ALARCON                              0501
A0101411820000001356792LENNIE C. GUEVARRA                                       0501
A0101408110000001364869ENCOMIENDA, CRISANTO LABUGUIN                            0501
A0101413440000001472679LACAMBACAL, MA  AURA DE LEON                             0501
A0101409920000001539573**************                                           0501
A0101403320000001647081VIKER, FEBY HAMOR                                        0501
A0101400570000001681916BLACKA, ELIZABETH UBIAS                                  0502
A0101404260000001725413HATE, CATHELYN BUENAOBRA                                 0501
A4101400390000001732805FLORITA DE JESUS                                         0502
A0101400310000001771542PAUL L. MUNOZ OR ELIZABETH M. G                          0503
A0101400310000001771564PAUL L. MUNOZ OR ELIZABETH M. G                          0503
A0101404130000001831692***********                                              0502
A0101413860000001886979DE LEON, MARTHA DBU JECA PACKAG                          0503
A0101400440000002034782CHARITO IBANEZ                                           0502
A1301400500000002063918RNV APPLIANCE SERVICE CENTER                             0503
A0201400890000002270691BALDELOVAR, ALICIA VILAR                                 0501
A0101413990000002273970BALLESTEROS, LORIE TURBOLENCIA                           0501
A0101411400000002301080VILLASENOR, REYNER AARON MANGCU                          0502
A0101411660000002309393DARGANI, ISHWARLAL ANANDRAM                              0501
A0101404840000002327744RONGAVILLA, JAY MAR CRUZ                                 0501
A0701400260000002338963TAGUM, JOEL NACARIO                                      0501
A0101400310000002659647GARCIA, JOY MARTHA DELA CRUZ                             0501
A0101408110000002907964JUAN ARIEL C. COMIA                                      0501
A0101408110000002907986CONSTANTE C. NORIEGA JR.                                 0501
A0101408110000002907997MARY ANN CAROL L. SAN PEDRO                              0501
A0101408110000002908001MARCELINO DONALDO R. BAUTISTA                            0501
A0101408110000002908012RONALDO S. ALFONSO                                       0501
A0101408110000002908023BEVERLEE A. MENDOZA                                      0501
A0101408110000002908030CATHERINE CONSUELO L. VELAYO                             0501
A0101408110000002908052RAYNER ART DEMOCRITO M. RANIN                            0501
A0101408110000002908063ROWENA N. ALMARIO                                        0501
A0101408110000002908074BARBARA JANE M. REYES                                    0501
A0101401700041505133001DELAMBACA, SUSANA CABALLERO                              0501
A0101400150061227251001CRISTINA V. HENSON                                       0502
A0101400440161186924001LETTY D. HAHN JT                                         0504
A0101401090171196066002MARY JOCELYN OR REDARIO LAYGO                            0502
A0101401090171607920001MARIA BELLE ELAINE S. CRUZ                               0501
A0101401380201299840001KIM, JI YOUNG                                            0501
A0101401380201508360001SAN JOSE, ROSIE DATO                                     0502
A0101401380201686418001FELIX, MARCELA SANTOS                                    0501
A0101401380201710619001ALMOGUERRA, ALONA ERATO                                  0502
A0101400310211038952001MULTICHEM INDUSTRIAL SALES                               0502
A0101400310211434627001TANLIMCO, JANET LEE                                      0501
A0101400310211478374080LELAIDA C. GRAGASIN                                      0501
A0101407140213191654001**********                                               0501
A3101400160221478374030ANALYN A. RICO                                           0501
A1001400190231478374001OCERO, ALGENE                                            0502
A1001400190231520766104MAMBUAY, JOSEPHINE WABE                                  0501
A1001400190231520766118AUSTRIA, MARY FILIPINA PINGGOY                           0501
A1001400190231520766119CABANO, BERNADITH CATIWALAAN                             0502
A1001400350233478374026ANNABEL ESTOMO                                           0501
A0101401670271192058001CARMEN V. SEGOVIA                                        0503
A0101406620273421399001GARCIA, MARY ROSE DE JOYA                                0503
A0101400570281655516001CUETO, JOSEFINA HULAR                                    0501
A6601400120314415183002UY, CHRISTIAN EMMANUEL WAN                               0501
A6601400120314617868088LUCERO, SINCLAIRE A. OR MIRA R.                          0505
A3401400280318751983001PATRICIO, JOYCELYN LACRETE                               0505
A0101402480331345833003****************                                         0502
A0101408820333478374050VICIA BAQUIRAN                                           0503
A0101402060351217441028MARIA VICTORIA A. UMALI                                  0501
A0101402060351551255001ILUSTRE, MARIA EVELINA ARROYO                            0502
A0101402640361478374071RANIEL B. CALIPES                                        0501
A0201400760374478374005ABATAYO, JENNIFER A.                                     0501
A0201400890376745254001BUYSER, IAN CHRISTOPHER COLETO                           0501
A0101408370382379254001DR. CESAR A. DE LEON                                     0501
A0101408950396560269001EVELYN GO GAPUZ                                          0501
A0101408950396601545001DR. GERARDO O. MENDOZA                                   0502
A2401400180411410897002LAO, ZENAIDA QUINO                                       0502
A2401400180411478374059ANALITA R. SUICO                                         0501
A0901400220432754178001432-001540-2                                             0501
A0101403030441239049001**********                                               0501
A0101403030441239254001**********                                               0502
A0101403320471454480001GIMENA, CARLO DE LEON                                    0501
A1901400160491546773001IRENEA M ERLANO                                          0501
A1401400110492478374032ARLENE P. PEDOC                                          0502
A0101405940512401022002JENNIFER P. FERNANDEZ                                    0501
A0101408530516521997001ANGKICO, JEANETTE F.                                     0501
A0101408530516571877062NESTOR A. ALBERTO III                                    0502
A0101403450521313120002**********                                               0501
A0101404000551292555001LAGDAMEO, ENRIQUE BIENVENIDO                             0504
A0101407720602342846003ABLIS-SUN, MARIA LENA DIMAANO                            0501
A0101407720602396498002CAPISTRANO, MA. EVELYN TORRES                            0501
A0101404260611427608001*********                                                0502
A0101413440655054477001LAND FIRST REALTY                                        0501
A0101408240711379848001GINA MARIE R. MEDINA                                     0501
A0101408240711522280001MAGSUCI, MONICA LUCILLE MEER                             0501
A0101408240711643338001ARCAYA, MICHELLE GRASPARIL                               0501
A4101400260812546934001CRISTINA T. BASILIO                                      0501
A4101400550815045531001JR-RK'S PIZZERIA                                         0501
A0601400230891746394001**********                                               0501
A0101408370000000335493DRS.CARYCE EMMA G. JURIDICO OR                          10503
A0101410300000000592198BARBASA, J DBU TIGER WATER                              10502
A0101411240000000629436LLONILLO, MARY GRACE OR LOPEZ,                          10502
A0601400100000000786767TAN, JUANITA YU OR TAN, ADRIEN                          10501
A4101400260000001783902DE GOMAS JR., VICENTE SORIANO                           10501
A0101410300000002375744SUAREZ, ARLENE A. OR                                    10501
A0101408110000002908041GALE MARIE PRECIOSA S.                                  10501
A0101401250021793819001CARASIG, CLARITA ALFONSO OR                             10501
A0101401700041382678002KO, JAMES VINCENT MAGTOTO OR                            10501
A0101400150061365021001ARTHUR P. MARQUEZ OR                                    10501
A0601400100081025360002AMOR REFRIGERATION & AIR                                10501
A0101401090171196106001MA. CELIA P. STA. MARIA OR                              10502
A0101400310211163379002MARCOS, ZENAIDA CABEL OR                                10502
A1301400470252507995001VERA A. BORROMEO AND                                    10502
A0101406620273313420002MARY ROSE G. CAMPOS OR AUGUSTO                          10503
A0101400570281347185001CATALINA P. BARON OR                                    10502
A0101402510341200729002FERNANDEZ, JIM L. OR                                    10501
A0101402060351358628001VICENTE GIL ILUSTRE &/OR MARIA                          10502
A0101402640361423715001DE LEON, JILL SOLOMON  OR                               10501
A2401400180411272631001MIGUEL, RAUL JOSEFINO FUENTES                           10503
A1201400150421443574001RIBAYA, ANTHONY JOSHUA OR                               10502
A0101403320471205738001REBECCA MENDOZA OR                                      10501
A0501400170481253600001NARDING C. CAMERO OR                                    10502
A0101403450521239801001CHARLIE S. TAN &/OR                                     10503
A0101408240711559730001MAGSUCI, KARL BAUTISTA OR                               10501
A2801400100712019694001LUNTIAN LANDSCAPING AND GENERAL                         10502
A2801400100712020606001LAI'S DRUG AND GENERAL                                  10505
A2801400100712088718001FOO, JEROME B. OR FOO, YING YIN                         10509
A0101404840851298552067EMERENCIANA P. BOMBAY &/OR                              10502
A0101408370000000335493JOHN FELMORE A. JURIDICO                                20500
A0101410300000000592198STATION & GEN MERCHANDISE                               20500
A0101411240000000629436ELAINE OR TAN, MYRIAM                                   20500
A0601400100000000786767YU                                                      20500
A4101400260000001783902JT DE GOMAS, RHODORA                                    20500
A0101410300000002375744SUAREZ, JONATHAN S.                                     20500
A0101408110000002908041BUENAVENTURA                                            20500
A0101401250021793819001CARASIG, GIL ALCORIZA                                   20500
A0101401700041382678002KO, MARICEL AU                                          20500
A0101400150061365021001CLARA MARQUEZ                                           20500
A0601400100081025360002CONDITION REPAIR                                        20500
A0101401090171196106001REYNANTE D. STA. MARIA                                  20500
A0101400310211163379002MARCOS, EDUARDO                                         20500
A1301400470252507995001MARY GRACE B. SANTOS                                    20500
A0101406620273313420002JOHN ANTONIO L.                                         20500
A0101400570281347185001MA. JOSEFINA SAWIT                                      20500
A0101402510341200729002FERNANDEZ, MARISSA T.                                   20500
A0101402060351358628001EVELINA ILUSTRE                                         20500
A0101402640361423715001SOLOMON, LUISA M                                        20500
A2401400180411272631001OR MIGUEL, ALONA                                        20500
A1201400150421443574001ESTIGOY, JOANNE                                         20500
A0101403320471205738001FLORANTE MENDOZA                                        20500
A0501400170481253600001JULIE C. CAMERO                                         20500
A0101403450521239801001MYRABELLE C. TAN                                        20500
A0101408240711559730001MAGSUCI, MONICA                                         20500
A2801400100712019694001SERVICES                                                20500
A2801400100712020606001MERCHANDISE                                             20500
A2801400100712088718001OR FOO, ANA T.                                          20500
A0101404840851298552067JEREMY P. BOMBAY                                        20500
B0101400150000000000124WORLD AVIATION CORPORATION                               1603
B3401400280000000002353CHILDFUND INTERNATIONAL, USA DOING                       1604
B0101411790000000005318REM BUILDERS CORPORATION                                 1602
B0101402480000000028242******                                                   1601
B1401400110000000034693LUCENA CITY PHARMA CORPORATION                           1602
B0101403450000000135613AGILE GLOBAL FORWARDING, INC.                            1602
B0101414090000000399457ANTARA VENTURES INC.                                     1602
B0101408790000000599851RAKSO COMPUTER TECHNOLOGY, INC.                          1604
B0101406590000000905657BRAINCHILD SIX INC.                                      1601
B0101401700041509837001MIT-TOYO PARTS CENTER INC.                               1612
B0101400150061010998001CITY INDUSTRIAL CORPORATION                              1602
B0101400150061015091001DUMAGUETE COCONUT MILLS, INC.                            1606
B0101400150061226909001STARS TRAVEL, INC.                                       1602
B0101400150061228576001KZPC HOLDINGS, INC.                                      1601
B0101400150061228665001MALAYAN TOWAGE AND SALVAGE CORPORATION                   1605
B0101400730111042662001CENCAR CORP.                                             1605
B0101400310211043937001MEE MARKETING CORPORATION                                1601
B0101407140213028328001SYTENGCO PHILIPPINES CORPORATION                         1610
B0101407140213034002001LABEL LINE ENTERPRISE                                    1603
B0101407140213190272005**********                                               1601
B0101407140213617397001**********                                               1601
B3101400160221045923001SUNRICH MANUFACTURING CORPORATION                        1610
B1301400760253047149001GCB PROPERTY MANAGEMENT CORPORATION                      1601
B0101402480331024052002OPC ENTERPRISES                                          1601
B0101402480331034503001*******                                                  1601
B0101402480331234185001**********                                               1602
B0101402480331296876001**********                                               1604
B0101402640361559125003JUAN C. TUERES III OR CHRISTINE O TUERES                 1601
B0101408790383047541001DISERV CORPORATION                                       1602
B0101402770391017472002MEGACITY MINISTRIES INCORPORATED                         1604
B0101402770391042672001K-GRAIN TRADING INCORPORATED                             1605
B0101402770391046279001LEGACY RENOVE INC.                                       1610
B2401400180411325173001ERICO T. UY  AND ERICA B.UY                              1605
B0501400170481015881003TDG- INSURANCE                                           1610
B0101408530516477712001JEWELL GOMEZ AND ROBERTO GARCIA                          1602
B0101411400517052551001BCMS INTERNATIONAL SPECIALTY CO                          1602
B0101403450521028565001**********                                               1602
B0101403450521029025001**********                                               1602
B0101410300663044402001******                                                   1603
B0601400230891046531001RD CASH PADALA, INC. - AREA 03 SAN                       1603
B3101400160000000429167NATHANIA SABRINA L VENTURA AND                          11601
B0101411240000001026839JINGCO, EDUARDO URQUICO DBU E.U.JINGCO                  11601
B0101400150061043190001NORTHERN STAR ENERGY & FUEL DISTRIBUTION                11606
B0101400730111035655001FSL INT'L. MANPOWER & PROMOTION SERVICES                11601
B6601400120314042361001AGRICULTURAL DEVELOPMENT WORKERS & EMPLO                11604
B3101400160000000429167SONIA L VENTURA                                         21600
B0101411240000001026839CONSTRUCTION                                            21600
B0101400150061043190001CORPORATION                                             21600
B0101400730111035655001INC.                                                    21600
B6601400120314042361001YEES MULTI-PURPO                                        21600
