B1301400760253821100608**********                                               2002
A0101400440000002035074EDUARTE, MINDA DELA CRUZ                                 0501
A3101400450000011314553SY, JENNY ZHANG OR TAN, YONG                            10501
A3101400450000011314553CHUA                                                    20500
A0101412920000008813623CULASI, ANTONIO CENAS                                    0501
B1101400120313039184001SARC FOODS CORPORATION                                   1603
A1101400120313537396001VILLEZA, ROMEO NIEVES                                    0502
A0101402770391217498011FRANCISCO B. ZAFRA                                       0502
A0101412340000003348587REXEL G. SAAVEDRA                                        0501
B0101400860000000030304****************                                         1601
A0101400860011379561003**********                                               0502
B0101400860011389659002**********                                               1603
A0101400150000003164401SHERWIN A. FERRER                                        0502
A0101400150000003197711ANN MAY C. MERCADO                                       0501
A0101400150000011171558MICHAEL M. VILLARAMA                                     0501
A0101400150000003218022TRISTAN R. SALGADO                                       0501
A0101400150000004090311DENIEGA, ANN LYN FITERO                                  0502
A0101400150000009657867MONTERO, ANA LISA SALUMBIDES                             0501
B0101400150061016151001RAMONA HOLDINGS CORPORATION                              1602
B0101400150061044903001I-GATEWAY MOBILE PHILIPPINES, INC.                       1602
B0101400150061044905001RISING TIDE MOBILE ENTERTAINMENT, INC.                   1602
A0101400150061227098001TITA CARANTO OR PIO CARANTO                              0502
A0101400150061341283001DIAZ, CYNTHIA MARTINEZ                                   0502
A0101400150000001708083SERVER, ERNEST FRITZ DULA OR                            10502
A0101400150000001708083SERVER, CHRISTOP                                        20500
B0101400150061733490001EXCEL CONCRETE LOGISTICS INC.                            1603
A0101405810000011347976UY, RONALD BENSON SIM                                    0501
A0101405810000001021172PUA, C DBU MCK SCHOOL & OFFICE                          10503
A0101405810000001021172SUPPLIES                                                20500
A0101405810072372184001**********                                               0505
B0601400100081675425001VIRTUAL LANDHOLDINGS DEVELOPMENT GROUP                  11601
B0601400100081675425001CORP.                                                   21600
B0601400360000003186907MEDINA FLORES PALARCA & OFRIN                            1602
B0101400730000008477863********                                                 1605
A0101400730111432322010MAUREEN CONSTANTINO                                      0502
A0101406040000000097001********                                                 0501
A0101401960121238667001MARCELO PASCUAL OR                                      10505
A0101401960121238667001MERCEDES PASCUAL                                        20500
A0101401960121240744002MAGNAYE, JESSIE M.                                       0502
A0101413310000001794512EMBRADURA, MA. KRIJANES V.                              10501
A0101413310000001794512EMBRADURA, RYAN                                         20500
B0101401830141021045001TCTS TRUCKING SERVICES                                   1610
A7201400170000009673152**********                                               0501
A0101407270000003254004CLEMENTE, SPIRO LU                                       0502
A0101401090000011367769BODORAYA, SER ALLAN GANADEN                              0501
B0101401090000000210482BLUMEX PLUS CREDIT INVESTOR INC.                         1610
A0101401090171447108001MARIA LETICIA A. CABRAL                                  0501
A0101401090000010238449CATION, MARITESS DRAPEZA                                 0501
A0301400530000001009950RAZ, REX P.                                              0502
A0301400530000005001669CORTEZ, LEAH CASAS                                       0501
B0301400790195054051001VILLA JOSEFINA RESORT VILLAGE HOMEOWNERS                11605
B0301400790195054051001ASSOCIATION INC.                                        21600
A0101413600000003851143CHERRY L. SYTIAO                                         0501
B0101413600000002822700POWERGEN INTEGRATED SOLUTIONS                           11605
B0101413600000002822700COMPANY LTD.                                            21600
A1001400480000000041454SIMON, GEORGIE ABECIA OR                                10502
A1001400480000000041454SIMON, JOEL CAGAPE                                      20500
A1301400470252599213002REYNALDO OR ROSARIO TERESITA OR                         10501
A1301400470252599213002RAYMOND JOSEPH ODULIO                                   20500
B0101401670271007088002A E & E'S DEVELOPMENT CORPORATION                        1603
A0101401670271405179001EMMANUEL OR VIRGILIO OR                                 10501
A0101401670271405179001EDGARDO VELASCO                                         20500
A0101406620000000962250ALMARZA, JESSA MARIE RAMOS                               0501
B0101406620273034421001UNIOIL PETROLEUM PHIL., INC.                             1602
B0101406620273039746001MANTA ENERGY, INC                                        1601
A0101411820000000477338MORDIDO, ABEL RECTO                                      0501
B0101411820000003085112HARDCOM COMPUTER SYSTEM CO.                              1601
A0101400570281186576001DR. ROSEMARIE JEAN J. POBLETE                            0502
A0101400570281189114001DANILO OR LORRAINE FELICIANO                             0510
B0501400200292021985002FOREST LAKE DEVELOPMENT, INC.                            1605
A0801400160311267104001SAN JOSE, BERMUNDO E.                                    0501
A0801400160311478374093AMELIA H. TAYCO                                          0501
A2001400290315641895001WENCESLAO, JUNE CLEO OR                                 10502
A2001400290315641895001WENCESLAO, ANTON                                        20500
A3401400280000004959082OQUENDO, JEAN PORRAS                                     0502
B0101402350321006894003VITALEZ COMPOUND HOMEOWNERS ASSOCIATION                 11602
B0101402350321006894003INC.                                                    21600
A0101402350000003080399BALUTAN, ROSALIE TALISAYSAY                              0501
A0101405650000000448599SIMBULAN, DENNIS DE LEON OR                             10501
A0101405650000000448599SIMBULAN, KARLA ANGEL H.                                20500
B0101405650322019221001ROTARY CLUB OF PQUE. METRO                               1601
B0101405650000004410091RLP TOTAL PACKAGING SYSTEM CORP.                         1603
A0101402510000002150761DAUIGOY, PRINCESS COR GALAMAY                            0501
A0101402510341199160001EDWARD JOHN PECACHE CARRILLO                            10501
A0101402510341199160001AND MARY FRANCES                                        20500
A0101402510341585773001SANTANA, DON ALCANTARA                                   0501
B0101402060351009365002GREEN VALLEY TOWNHOUSE OWNERS                           11601
B0101402060351009365002ASSOCIATION INC.                                        21600
A0101409050000002333302ABAD, NICANOR CASTILLO                                   0501
B0201400760374026266001VISAYAN ELECTRIC COMPANY, INC.                           1603
B0201400760000007134494PILIPINAS ECO-FRIENDLY MINING                           11603
B0201400760000007134494CORPORATION                                             21600
A0201400760374495363001QUIJANO, PERCIVAL BALADJAY or                           10501
A0201400760374495363001QUIJANO, CELESTE ABADILLA                               20500
A0201400890000010370771**********                                               0501
B0101402930000003734861POLICARPIO & ACORDA LAW OFFICE                           1601
A0101402930000003179504TANCHI, PETER FU OR                                     10502
A0101402930000003179504TANCHI, DEONNA                                          20500
A0101408790000001486222CASERES, PRINCESS ROS                                    0501
A0101411660000010561970CHUA, MARIANE DE ASIS OR                                10505
A0101411660000010561970CHUA JR., JOHN F                                        20500
B0101411660384068482001STAR TELECOM ALLIANCE RESOURCES INC                      1601
A0101415350000006730947ROMANO, DINO BALDIA                                      0502
A0101402770000010605033CANILANG, VIRGINIA MANALANG                              0502
A0101402770391217491026MANOLITO MANALASTAS                                      0501
A0101402770391536807001MANUEL JR., REYNALDO RASIMO                              0502
A0101405490000000232562MARICAR D. LEE                                           0502
A0101405490000000232573JERLY D. NABOR                                           0502
A0101409180000001237321VILLAMOR, ROWENA ODTUHAN                                 0501
A0101409180000002252513ENCABO, CARINA OR ENCABO,                               10505
A0101409180000002252513JOSELITO RAMIR                                          20500
A0101409180000011055882AMERIZZA G. JUAN                                         0501
A0101409180000003310287BAUTISTA, AIDA DIANA DELA CRUZ                           0501
B2401400180411017908001LWC CYCLE MART, INC.                                     1602
A2401400180411478374020MORI, LYDIA                                              0502
B1201400150000007556161SALAS, RONALD ANGELES DBU GUSTINE TIRE                  11601
B1201400150000007556161SUPPLY                                                  21600
A0101403030441239055001**********                                               0501
A0101403030441294299001**********                                               0501
A0101403030441502430001**********                                               0501
A0101403030441594340001**********                                               0501
A0101403320000001647003BANZUELO, CLAIRE PADAYAO                                 0501
B0101406330000000432853CEDAR PAYROLL AND BENEFITS MANAGEMENT                   11601
B0101406330000000432853SERVICES CO.                                            21600
A0101406330472458252002BRIAN JOSEPH M. SANCHEZ                                  0501
A0501400170481485605001MACARAEG, MERIAM REASONDA                                0503
B1901400160491012586001BSU CONSUMERS COOPERATIVE                                1602
A1601400170000009954221DIZON, GLENDA ABELLANO                                   0501
A0701400260000003259432ZAMORA, JULIUS SOPENA                                    0504
A0101407430503639469001ROMEO R. FALLORINA JR                                    0501
B0101408530516037477002VXI GLOBAL HOLDINGS B.V.                                 1601
A0101403610531223249002PARAS, LOLITA LEONARDO                                   0501
B0101404130601030412001EXODUS BROADCASTING COMPANY, INC.                        1605
A0101404130601451535001OALLARES, MERITO C.                                      0501
A0101404130000002121000MARIA LOURDES ROSARIO S.                                10501
A0101404130000002121000GONZALES                                                20500
A0101412180000006875310YASON, EMIL MONZONES                                     0501
A0101404260611478374003TROPA, EMELITA                                           0501
A0101411530000007212900**********                                               0502
A0101413990000001947128MARS STONE SUPPLY                                        0502
A0101414120000001142807CASA LUMINARIA PARTY VENUE                               0502
B0101414120000001142818CAS PROPERTIES INC.                                      1602
A0101410300000010774957SANTILICES, MA. CHACHA SALONGA                          10505
A0101410300000010774957DBU SANTILICES TRADING                                  20500
A1301400340000000926825ERIVERA, JOHN PAUL FERNANDO                              0501
A1301400340683467501001ROBERTO P. BANIGUED                                      0503
A1701400230000008555266MUSNI JR., CARLITO CENTENO                               0503
A1701400230000004469763PIEDAD, CHARITY B DBU ALPIE'S T                          0501
A1701400230000008555222PIEDAD, CHARITY BRIOSO DBU CHAN                          0503
B0101408240711018196001BELO MEDICAL GROUP, INC.                                 1601
B0101408240000002419996**********                                               1601
A0101408240000008160143SUSAN CATAYOC                                            0502
A4101400390000001404266SOLAS, SAMARITAN CATARATA                                0502
A4101400390000003346103YABUT, ANNALIZA GAMBOA DBU AGY                          10501
A4101400390000003346103MANAGEMENT SERVI                                        20500
A0101412340000000224035LUNA, NORBERTO CORRAL                                    0502
A0101406750000011370282ABINO, MA ASUNCION  CARCELLAR                            0501
A0101406750000011370340BANTILING, JOSE PANES                                    0501
A0101406750000011370351BUCAO, ANTHONY EJE                                       0501
A0101406750000011370373DELA CRUZ, LINDA VILLANUEVA                              0501
A0101406750000011370419GABAT, GEMMA HONOR                                       0501
A0101406750000011370431ISANAN, ROMA VINNA AMBAY                                 0501
A0101406750000011370453LUAR III, ELIGIO  CASAO                                  0501
A0101406750000011370471RAMANTIN, ROSALIE RANILE                                 0501
A0101406750000011370500SAMAR, JUANALOU HERMORA                                  0501
A0101406750000011370522SANTOS, JACQUELINE SANTIAGO                              0501
A0101406750000011370533TALEON, SHENA MAE DAMASO                                 0501
A0101406750000011370540TORRES, MARYJEAN ZARSUELA                                0501
A0101406750000011378591DIOCERA III, JOSE  REDONDO                               0501
A0101405070861433631001AGGABAO, CAROLYN MANGALONZO                              0501
