A0101410690000003027636BALIAO, JOVITA LINGGON                                   0502
B0101400150061733490001EXCEL CONCRETE LOGISTICS INC.                            1602
A0101410300000006278613CHUA CHIACO, KATHRINE SYCIP                              0502
A0101410300000006278642LITONJUA, KYLE RANDELL MORENO                            0501
A0101410300000006278722ONG, CHERRYAMOUR CUSTODIO                                0503
A0101402060351414987003NOBLE, FELICISIMA CASANOVA                               0502
A0101410300000003290140LACHICA, MARGARET GERTRUDE FERR                          0502
A0101400860000005313171**********                                               0503
A0101400860000002333535*******                                                  0501
A0101400860011398141002**********                                               0505
A0101400860011495810001**********                                               0501
A0101401250021178978001BERTOL, LOLITA B. OR                                    10502
A0101401250021178978001BERTOL, LIEZL B.                                        20500
A0101400150000007710507JULIA M. SEGUI                                           0501
B0101400150061016942006ASIA PACIFIC EXPRESS CORPORATION                         1605
B0101400150061016942007ASIA PACIFIC EXPRESS CORPORATION                         1605
B0101400150061040558001CORDILLERA EXPLORATION CO., INC                          1601
A0101400150061373504001MELINDA C. ESPINO OR                                    10501
A0101400150061373504001AL JEROME ESPINO                                        20500
A0101400150000004619632**********                                               0502
A0101405810072234892001**********                                               0501
B0101405810072361051003**********                                               1602
A0101405810072373265003MANANSALA, JOYCEE CATARATA                               0502
A0601400100000006333951GUTIERREZ, JAMES DAYRIT                                  0503
B0601400100000007185277CYS AQ-AG ENTERPRISES INC.                               1610
B0601400100081256915005KWONG, WILLIAM G. OR                                    11603
B0601400100081256915005ANTONIO, ADELA                                          21600
A0601400360083591896001AGARRADO, ARVIN GAUDIA                                   0501
A0101410850109055102001MANGUNAY, ROLANDO JT DBU R.P.M.                         10505
A0101410850109055102001ENTERPRISES                                             20500
B0101410850000003503733DELTA FIVE AGRI-VENTURES CORPORATION                     1606
A0101410850000006559988MARTIN JR., FERDINAND DBU                               10501
A0101410850000006559988MARUEL TRANSPORT                                        20500
A0101410850000006560034SEMANA, JUDE                                            10502
A0101410850000006560034DBU SEMANA TRUCKING                                     20500
B0101410850000007294331CU, ELBERTO ZALDIVAR DBU FHEDZ VENTURES                  1604
B0101400730111007949002THE TOWER CORPORATION                                    1602
B0101400730111033923001QUICKLEND PHILIPPINES INC.                               1606
B0101400730111036857001FRC SULO RIVIERA HOTEL CORPORATION                       1606
B0101400730111482881001CASA BOCOBO HOTEL, INC.                                  1605
A0101406040112329333001LEO V. MORADA                                            0501
A0101406040112329333002MORADA, LEO VASQUEZ                                      0501
B0101401960121238699002SO, PONCIANO CHUA                JT                      1601
B0101401830141037764001MICHAELJONA TRUCKING SERVICES, CO.                       1602
B0101401830141045610001INTERZONAL COURIER SERVICE                               1601
A0101401830141395937002CARLOS, DIA KRISTINE JAVIER                              0502
A0101401830141538820001YSRAEL G. REBULADO                                       0501
A0101401830141740190001LEBRON, LUIS FRANCISCO VILLACOR                          0501
B0101407270162008343001SPECIALIZED TRADE & MARKETING, INC                       1601
A0101407270162333003004MAURO C. AGUSTINES                                       0505
A0101401090171195802001EVELINA N. LAGAMAYO                                      0504
A0301400530000001010051CUBILLO, DOMINGO D. OR                                  10505
A0301400530000001010051CUBILLO, CARMELI                                        20500
A0301400530000006477310ST. THOMAS MORE SCHOOL OF LAW                           10505
A0301400530000006477310AND BUSINESS INC                                        20500
A0101401380201043506002KOMMODITIES TODAY GENERAL                               10505
A0101401380201043506002MERCHANDISE                                             20500
A0101401380000006542361CUNETA, MA. ANTONIA CARBALLO                             0505
A0101410720000006128792G.R.O.W. ENTERPRISE                                      0502
A3101400870000003515222DIU, ALVIN ROXAS                                         0502
A3001400130000008916218BRAVO, ALEXA ROSE EBARLE                                 0502
A3001400130230767566021MONTALBAN JR., ANTONIO S.                                0501
B1001400190231033679001MINDANAO CHRIST'S GOSPEL FELLOWSHIP                      1602
B1001400350233013980001VIC IMPERIAL APPLIANCE CORP.                             1603
A1001400350233279583008ROQUE CASTILLO PATRIANA                                  0510
B1001400480000003357840BALDADO, MARIA LYDIA PEPITO DBU JOMARI                  11602
B1001400480000003357840TRUCKING SERVICE                                        21600
A1301400470252763998001BEVERLY C. EVANGELISTA                                   0501
A0101401670000007413403TAN, CATHERINE LAO                                       0502
B0101406460272027382001POWER AIRE AIRCONDITIONING &                            11606
B0101406460272027382001AIRWORKS, INC                                           21600
A0101406620000001686893MALLILLIN, FRANCIS MEL GONZALEZ                          0501
B0101406620000003497325FILIPINO DYNAMIC DATA CONSULT INC.                       1603
B0101406620000009695345U-HOP TRANSPORTATION NETWORK VEHICLE                    11602
B0101406620000009695345SYSTEM INC.                                             21600
A0101406620273771081001DE GUZMAN, MARY JEAN NARIO                               0501
A0101400570000000165768GASANG, AMIHAN ARQUILLO                                  0501
A0501400200000005751782MISLANG, JANELY DELA CRUZ                                0502
A0501400200000011068272PABAIRA, JENNALYN MANZANO                                0501
B0801400160311014846001CITI APPLIANCE CORPORATION                               1612
A1101400120313678888001TIU,EDGAR A. OR TIU,MARILYN Y.                          10505
A1101400120313678888001OR TIU,MARC ELDRICH                                     20500
A6601400120000002978121NOGAL, GEMMA ONG                                         0502
B2001400290000002406680HDTS TRANSPORT & CARGO INC.                              1601
B0101402350000000046028IGOLD COMMUNICATIONS INC.                                1603
A0101402510000010100797DE GUZMAN, SUSAN MANGA                                   0502
A0101402510341353926001ROLANDO G. GALAO OR                                     10506
A0101402510341353926001RUE B. GALAO                                            20500
A0101409050000011030876RAMONITO D UNARSE                                        0501
A0101402930920130000102KIM, DAESEOK                                             0501
B0101402930381020092002ASIAN BAPTIST CLEARING HOUSE INC.                       11602
B0101402930381020092002OPERATIONAL ACCT                                        21600
B0101402930381021740001YOSHINOYA CENTURY PACIFIC INC.                           1605
B01014029303810241660051021 DEVELOPMENT CORP.                                   1601
A0101408370000000586038QUINIO, IRENE BALLICAS                                   0501
A0101408790000005251343MARTINEZ, EDMUND DANIEL PAGTALU                          0501
A0101402770000001275970LLORIN, JESUS ABITAN                                     0502
A0101402770391211890001RES S. CORTEZ OR                                        10502
A0101402770391211890001CANDY A. CORTEZ                                         20500
A0101405490392170537002LORNA V. TUGADE                                          0503
B0301400820000008105673VICAR FRANCIS HOSPITAL, INC.                             1602
B5501400120410041754001KENDRICK PETRON STATION                                  1603
A5501400120000000265850SUENO, ISMAEL JADE BERNARDO                              0501
B2401400180411033307078MINCORN MILLING, INC.                                    1602
B2401400180411061343002OBET AND BEA INDUSTRY CORPORATION                        1605
B2401400180000007476875BRIGADA PUBLISHING CORP.                                 1610
B2401400180000007476886BRIGADA GROUP OF COMPANIES, INC.                         1610
A2401400180411431120001GELLANG, JOVY ALBARANDO                                  0501
A2401400180411513730001CUEVAS, ARWIN ROYCE LEYVA                                0502
A2401400180000010066212ENGCONG, JAY CUEVAS                                      0501
A1201400150421253952001DELA PENA, BONIFACIO ILAO OR                            10505
A1201400150421253952001DELA PENA, KARIN                                        20500
A0901400220000007072455**********                                               0505
A0901400220432754178001**********                                               0501
A0101403030441490531001**********                                               0502
A0101403320000006027389BALLETA, MARK ANTHONY DOMINGO                            0501
B0101406330000000432955ADELA LAND CORPORATION                                   1602
A0101406330472214311001JULITA BALCUEVA OR ERMELO                               10505
A0101406330472214311001BALCUEVA                                                20500
A0101406330472356527001ROBERT ANG OR BELLY ANG                                  0502
A0501400170481046585002ANG, JUSSLYNN DBU                                       10504
A0501400170481046585002AVS DISTRIBUTION                                        20500
B1901400160491013681001PJ LHUILLIER, INC.                                       1605
B1901400160491029733001PAWNCARE SERVICES INC.                                   1602
B1401400110492013980002IMPERIAL APPLIANCE PLAZA                                 1601
A1401400110492669090001ACYATAN, ANTONIO PACALDA                                 0502
A1401400110000000628579****************                                         0510
A1601400170000001069125ALDEN O. SAMBAJON OR                                    10502
A1601400170000001069125MINDA O. SAMBAJO                                        20500
B1601400170000009954545DENNIS M. BATOCABE AND ADERMA ANGELIE                   11601
B1601400170000009954545ALCAZAR                                                 21600
A0101407430000001028897JOVITO G. FERNANDEZ                                      0501
B0101407430503042216001HIGH COMMAND AVIATION SECURITY                          11605
B0101407430503042216001SERVICES CORP.                                          21600
A0101407430503736499001CECILIA R. NALAUNAN                                      0501
A0101403580000011069862PURA, KRISTIAN NOEL ALISASIS                             0501
A0101405940512152920001***********                                              0501
A0101408530000009248513MANZANO, MELODY CORONG                                   0501
B0101411790000004808106SPECTRUMED INC.                                          1601
A0101411790518055815097RAYEL, ROSARIO RANOSA                                    0501
A0101411790518055815146SYLUANCIA, LEONARDO                                      0501
A0101403450521567563001********                                                 0503
A2201400250561484428001WILSON LAO SIO OR                                       10502
A2201400250561484428001EDUARD LAO SIO                                          20500
A2201400250561696916001*****                                                    0501
A0101410690000006663552DELA PAZ, AURELIO PERALTA                                0503
B0101404130601100161011PRUDENTIAL CUSTOMS BROKERAGE                            11602
B0101404130601100161011SERVICES, INC.                                          21600
A0101407720000007936221DUENAS, MELODY NICOMEDES                                 0502
B0101407720602035637001AIKONTECH CORPORATION                                    1605
A0101407720602172880002MALAJACAN, MARCELINO Q.                                  0501
A0101412180000001293209SORIANO, JOIE PARAGAS DBU JPS                           10502
A0101412180000001293209INTERNATIONAL TRADING                                   20500
B0101404260611029542001BLOOMFIELD ACADEMY OF MAKATI, INC.                       1604
A0101407690652517989001FLORANO, GUILBERTO COYOG                                 0502
A0101407690652776768001MANANGAT, LETECIA MORALES                                0501
A0101413570000003379908CABANIG, MYRA MELAYA                                     0503
A0101413990000002962918CLAVERIA, RODOLFO MISUGAS                                0510
B0101414120000000399213JOBS ON THE GO SERVICE COOPERATIVE                       1602
A0101406590000005305362HERNANDEZ, JOANNA ROSE BULATAO                           0502
A0101406590662283470003RAMNANI, CARMEN OR PRIYA                                 0502
B0101410300663044385001STAR E GAS TRADING                                       1601
A1301400210682417088002LUCIA B. CLAUDIO                                         0501
A1301400210682635116001DEVORAH M SOTO OR                                       10501
A1301400210682635116001MIGUEL CARLOS B                                         20500
A0101408240000000039518NATIVIDAD, MARIBEL GOYENA                                0501
A4101400260812752512001HIPONIA, CATALINA PEDIDA AND                            10502
A4101400260812752512001JUAN, EMMANUEL B                                        20500
B4101400390813012692002NIHON GARTER PHILS., INC.                                1605
A4101400420000002345331MERCEDITA D. LAGDAMEO                                    0502
A4101400420814520766027ARUTA, CORAZON G.                                        0501
B4101400550815040996002MARICHE APARTELLE, INC                                   1601
B0101412340000000030979GENNEX SOLUTIONS PHILS. INC.                             1603
A0101404840000005396938DIMAUNAHAN, MAY TENORIO                                  0502
B0101404840851021512001STI COLLEGE ALABANG, INC.                                1602
B0101404840000001312690CABINTE MATERNITY AND CHILDRENS                         11603
B0101404840000001312690HOSPITAL                                                21600
B0101404840851064151001ANAHAW PRIME RESOURCES PHIL. INC.                        1601
A0101404840851217640001CONCEPCION L. FERRER                                     0501
A0101404840851320776039JOSEPH URUBIO                                            0501
A0101406750852181208001LOLITA P. JIMENEZ OR ELIAS B.                           10501
A0101406750852181208001JIMENEZ                                                 20500
A0101405070000010298354SINGSON, MARIKU CORRECHE                                 0501
B0601400230000007402100ALBANO, GIENAH PACLA DBU HYDROELECTRIC                   1601
A0601400230891087910001SANCHEZ, POPS DUNGAO                                     0501
