B0101415350390821200608**********                                               2003
A0101406590000003007052SANCHEZ, LUZVIMINDA OR MICHELLE                         10501
A0101406590000003007052OR TENG, MARIE SHARON                                   20500
B0101406590000003007358MIND MOVER PUBLISHING HOUSE INC.                         1601
A0101406590000005305093LLAMAS, TOMAS CORDERO                                    0501
A0101406590000013411493INCIONG, DONNA MARIE OROZCO                              0501
A0201400760000011472187LLENES, MANILA UROT                                      0501
B0101408400000016928742CAINGAT JR., CELESTINO SANTIAGO AND                     11601
B0101408400000016928742TANALA, ROMEL                                           21600
A1901400160000016823513LATAYAN, BRIAN VINAS                                     0501
B1901400160000016896165MPT GLOBAL MOTORS CORP.                                  1601
A0101400860000011516004**********                                               0503
A0101401250021178953002TENSUAN, ERNESTO OR NECITAS OR                          10510
A0101401250021178953002EMMANUEL                                                20500
B0101400150061226498001CYCLOPHIL EDUCATIONAL PROMOTION                          1602
A0101400150061227112001PACITA G. LIM                                            0501
A0101400150061396165001SANTIAGO, MA. SOCORRO S. OR                             10501
A0101400150061396165001PACIFICADOR, AIN                                        20500
A0601400100000016940488MANALO, VAN DANIEL ARROYO                                0501
A0601400100000016940706SANCHEZ, CARLO SORIANO                                   0501
B0601400100081039107001REPLICAS MARITIME & AVIATION MODELS INC.                 1604
A0601400100081254197001                                                         0502
A0601400100081254197001NARCISO                                                 20500
B0601400520000009516218ANGELES WINDS HOTEL MANAGEMENT CORP                      1602
A0101413280000005084942SOTELO III, MANUEL SAMSON                                0501
B0101414090000007344610CTZ-CARGOTRANZ SHIPPING AND TRANSPORT                   11603
B0101414090000007344610INC.                                                    21600
A0101410850000013601848TAN, BEATRIZ REYNOSO                                     0501
A0101410850000016802130REYES, MA. JOSHUA MAGSINO DBU                           10502
A0101410850000016802130MA. JOSHUA REYES CUSTOMS                                20500
A0101410560000015674334CIUDADANO, MAJE LICAYAN                                  0501
A0101410560000014510862MARTINEZ, GEREMIAH DUNGCA                                0502
A0101410560000015674345AVES, JEMIR DANIEL RACIMO                                0501
A0101410560000015674356BARRAQUIAS, JIANCA HERTRISHA GO                          0501
A0101410560000010317790TOV TRUCKING SERVICES                                    0503
A0101401960121504516001YAP, ANNIE BEE SY                                        0501
A0101413150000001288291STEPHANIE D. ANG                                         0503
A0101412630000009425098SERRANO, EFRAIM VELARDE                                  0502
A0101401830000003508632LIM,JOVEN AGUILAR                                        0502
A0101401830000012441779CASISON, RUTH CRISTOBAL                                  0501
B0101401830141029893001ST. JOSEPH'S SCHOOL-PANDACAN ALUMNI                     11602
B0101401830141029893001ASSOCIATION, INC                                        21600
B0101401830000000033592CARITAS SALVE CREDIT COOPERATIVE                        11606
B0101401830000000033592TAYUMAN (004)                                           21600
A0101412920000016956813BONDOC, PROSPERITA BONDOC                                0501
A0101412920000016704039ALMAZAN, MESALINA RABELAS                                0502
B0101400440161040977001JKRFG UPGRADE ENTERPRISE                                 1605
A0101407270000000511566ABIGAIL S. BAYAM                                         0501
A0101401090000011984453ESTRADA, MARIA TERESA CORTEZ                             0503
A0101401090171195893001DR. RICARDO AGBAYANI                                     0501
B0301400530000001409661KE, BINGZHANG OR                                        11605
B0301400530000001409661YE, XIUHUI                                              21600
A0301400530000013780964PAYPA, CLAUDIO JUMAO-AS or                              10501
A0301400530000013780964PAYPA, KARLYN GARSUTA                                   20500
B0301400660000013311152MANTIS SECURITY SERVICES, INC.                           1605
B0301400660000003362052DAVAO DYNAMIC INDUSTRIES CORPORATION                     1602
A0301400790000005691990EMBALSADO JR., ALBERTO GEMPESAW                          0502
B0301400790000002301342MONTEVERDE II, GEORGE MENDEZ DBU GV & HH                11601
B0301400790000002301342MARKETING                                               21600
A0301400790000006269776SARONA JR., GILBERTO A. DBU                             10501
A0301400790000006269776SDES ENTERPRISES                                        20500
A0101401380000013916708DESTURA, KRESTA ANN KRIA P. OR                          10502
A0101401380000013916708BOHOL, FRANCIS K                                        20500
A0101401380000013916606SANCHEZ, KRISTINE JANE SENA                              0501
A0101410720000016140031VILLAFLOR, JENNICA LUMBA                                 0501
A0101412500000007476022BALIN, STEFF ALEXANDRA MITRA                             0501
B0101412500000016948564SYNAPPS CORP                                             1601
A3101400160221220163001AZUCENA R. BEREDO OR                                    10501
A3101400160221220163001CORNELIO REX R. BEREDO                                  20500
A3101400450223223458004ALVERO, LEAH AURORA OR                                  10501
A3101400450223223458004ALVERO, MARIA PATRICIA                                  20500
A1001400190231520766037BONGCALES, JOYCE GOLEZ                                   0501
A1001400350000014511770LAO, REOMEL GO OR LAO, MELBA GO                          0502
B1001400350233039624001ORO LZT MARKETING ENTERPRISES, INC.                      1604
A1001400480000014748822CARERAS, CARLO CIELO                                     0502
A1001400480000016926611YU, LUIS CASAYAS                                         0501
B1001400480000003357840BALDADO, MARIA LYDIA PEPITO DBU JOMARI                  11601
B1001400480000003357840TRUCKING SERVICE                                        21600
A1001400480000003357748DEDEL, PATRICK JUNE Y OR DEDEL,                         10502
A1001400480000003357748FAITH ROSE                                              20500
A1301400470252497499001DON G. BERNABE OR REINA                                 10502
A1301400470252497499001CONCEPCION M. BERNABE                                   20500
A1901400290000002926696ARLENE REYES MINDANAO                                    0501
A1901400290261390520001JOEL PUNZALAN DIMAANO                                    0502
A0101401670271292571001CHRIS RYAN R. CRUZ OR JANICE                            10501
A0101401670271292571001CLAIRE C. CUASO-                                        20500
B0101406620000004595848VIVA LIVE INC.                                           1602
B0101406620273460663001PREMIUMSOLE INTERNATIONAL CORPORATION                    1608
A0101410980000001154409TAN, NELLIE ANN JT                                       0501
A0101411820000005709884DELA CRUZ, MA. SARAH MANIGBAS                            0501
A0101400570000016544731CANLAS, JOAN MINA                                        0501
B0101400570281036353001ST. LUKE'S MEDICAL CENTER DEPT. OF                      11603
B0101400570281036353001OB-GYN, INC.                                            21600
A0101400570281192586002LORINDA ANG OR JENNY JILL DY OR                         10503
A0101400570281192586002LINDSAY RITZ ANG                                        20500
A0101400570281388539054MARIA TERESA T. RODRIGUEZ                                0502
A0101411240000002332441BARIT JR., WILLY CO                                      0502
B0801400160000011219731ROYAL ZHANG PALACE                                       1605
A1101400120000003022373BANTULA, EVELISA FALLE                                   0501
A2901400130000005961151SOL E. ILIO                                              0502
A2901400130000009071789ICAMINA, MARY KAREN VERONICA RO                          0501
A0101402510000013486103ARTEMIO R. LICOS JR.                                     0505
B0101402510341030386001OLIAND HAUTE COUTURE, INC.                               1601
A0101402060351743186001GALPA, NONITO BIAGO                                      0502
A0201400760000013874650DIHIANSAN, WILLIAM JUANTONG                              0501
A0201400920000002804480MIRANDA, SAMMY                                           0501
A0201400890376535273002TOLEDO,HAROLD XAVIER/GUEVARRA,                          10505
A0201400890376535273002KENNETH/CLIMACO,                                        20500
B0101402930000000623410R AND C OUTDOOR MEDIA INC.                               1606
B0101408790000012313432SPIRE PROPERTIES CORP.                                   1601
A0101408790383787785001GUEVARA, CRISTINA JOSEFINA JT                            0501
A0101415350000015170722TAYAO, MARIE AINESS JAYME                                0501
B0101415350000003212437**********                                               1601
A0101402770000016321732DE LEON, LILLIAN ROCHELLE                               10504
A0101402770000016321732SAN JUAN JT                                             20500
B0101402770391752292002JUANITA OR TOMAS OR BENJAMIN                            11601
B0101402770391752292002VICTORIA                                                21600
A0101408400000004490095MACABEO, MINERVA BELDAD                                  0501
A0101408400000016952171WAMELDA, B JT DBU WS BUILDERS                            0501
B0101408400000000077872TECH-ASIA INDUSTRIAL ENTERPRISES                        11602
B0101408400000000077872CORP.                                                   21600
A0101408400394682676001DABI JR., NEMESIO GALENO                                 0501
B0101409180397041823001THE INFINITY CONDOMINIUM CORPORATION                     1603
B0101409180000009085092HILSOFT INC.                                             1602
A5501400120410622095001CORDER, JAIMELITA OR EDWIN                               0502
B2401400180411033403001DADIANGAS CORNERSTONE CENTER                             1605
B2401400180000016516860HOME SOLUTIONS DEPOT PLUS                                1605
A2401400180411455559001VENDIX GEN. MERCHANDISE                                  0501
A1201400150000016104453SUYAT, RICHARD DONATO DBU R.D.                           0501
A1201400150421253624001GUANZON, ALICE D. OR                                    10506
A1201400150421253624001GUANZON, DELFINO                                        20500
A1201400150421397888001GO, BRIAN SY OR                                         10501
A1201400150421397888001GO, CYNDY SY                                            20500
B0901400220000011559512**********                                               1604
A5101400100000010371223ABINES JOHN PAUL BOTIGAN DBU RE                          0501
A0101403320000016614892ORPILLA, EMIR JO A.                                      0501
B0101403320000000522290FIREBIRD HOME DEVELOPMENT CORPORATION                    1601
A0101403320471442721001CANDIDO M. MANEJA OR                                    10502
A0101403320471442721001GLADYS MANEJA                                           20500
A0101406330000015172240VELASCO, ALBERTO SANCHEZ                                 0502
A0101406330472075303001JOSE VICENTE T. TIONGSON                                 0501
A0101412760000001399226SORIANO, DIVINE GRACE DIONISIO                           0501
A0101412760000000767955JAYME, JESUS ANGELES DBU J. JAY                          0501
B0101412760000007821965ENECO WTE PACIFIC INC.                                   1601
B1901400320000014976391PROVEN TECHNOLOGY FEEDS CORPORATION                      1603
B1901400160491013681001PJ LHUILLIER, INC.                                       1603
B1901400160491029733001PAWNCARE SERVICES INC.                                   1603
A1401400110000016955427PASAMBA, ANNA GRACE AMADOR                               0501
A1401400110000016955643DY, SAMUEL SEBASTIAN REBOLLA                             0501
B0101407430503033043001SKYCLUB INC.                                             1601
A0101407430503181551001DICKSON R. ESCOLAR OR                                   10501
A0101407430503181551001MARY ANN R. ESCO                                        20500
A0101408530000014027544DOMINGO, RENEROSE GUTIERREZ                              0502
B0101408530000013741083AIR PREMIER DENTAL                                       1601
B0101408530000013741094GEROCHI DENTAL AND IMPLANT CENTER                        1601
B0101408530000007318001INNOVANTAGE INC.                                         1602
A0101403450000000889472**************                                           0501
B0101403450521011738001INDUSTRIAL WELDING CORPORATION                           1610
A0101403450521239921088*********                                                0505
A0101403450521241170001**********                                               0502
A0101403610000001174910DAVID, MARK ROSCOE VELASCO                               0501
A0101403610000012324428******                                                   0501
A0101407720602405403001MA. LINDA E. QUEVEDO                                     0501
A0101407720602515940001TIGLAO, JENNIFER THERESA                                10501
A0101407720602515940001GONZALES                                                20500
A0101404260000013809504JEFFERSON C. CARLOS                                      0501
A0101409890000015605855CHAN, PETER FLORES OR CHAN,                             10501
A0101409890000015605855MARIVIC MAGLALANG                                       20500
B0101409920650044950001EINSTEIN SCHOOL FOR KIDS, INC.                           1601
A0101407690652045019001AXIS ROOF SERVICES                                       0504
A0101413570656057648230MA ROSE ANN ROBLES                                       0501
A0101413570000005867496POWER PRIME HARDWARE AND CONSTR                         10503
A0101413570000005867496SUPPLY                                                  20500
A0101413990000016912982FLORES, ALLEN PABUNOT                                    0501
A0101413990000016574102NICOMEDES, DAEMARIE MASALING                             0501
A0101413990000016574131MARANA, GILLIAN CHRIS RIMORIN                            0501
A0101406590000010435002HABACON, GEORGE PAUL T. OR                              10502
A0101406590000010435002HABACON, CRISTINA Q.                                    20500
A0101406590000016926371CAILO, RUTH ANN RODRIGUEZ                                0501
B0101406590000003007289ARSENAL CINEMATOGRAPHY COMPANY INC                       1602
A1301400210000005040242SALAMAT, JOSE JIMMY LIONGSON                             0505
B1301400210000005040960ARMS-ABUNDANCE HOMES REALTY SALES,                       1601
B1301400210682248659001ASIANLAND STRATEGIES CORPORATION                         1605
A1301400340683494901001**********                                               0501
B0101408240000013787089BONNESMAINS SERVICES CORP.                               1602
A0101408240711667452001LU, MYLEE BAS                                            0501
A2801400100712411156001VIBAR, RONALD ESPIRITU                                   0503
A2801400100712539678001BELEN, CRISTINA LULU                                     0501
A4101400260000014088350AMOS, JOAN AZENITH T. DBU                               10502
A4101400260000014088350GLENZEN HARDWARE                                        20500
A4101400550000001332570SANTIAGO, MARY GLENDA ENCABO                             0501
A0101412340000010659959REYMERLENE G. ROLDAN                                     0501
A0101404840000005396869************                                             0501
A0101404840851478374115ERLINDA O. PRADO                                         0501
A0101406750000015824167EVANGELINE YU                                            0501
A0101406750852478374119ALIWATE, MARICRIS                                        0501
A0101405070861478374004WINIEFRENDA O. PILANDE                                   0505
A0101413860000014390855CRUZ, MARK ANDREW BONIFACIO                              0502
