A0101412760000014549701CASTILLO, HARMELA SUMUGAT                                0501
B0101400150061010855001MANTA EQUITIES, INC.                                     1610
A0101400860011570367001**********                                               0503
A0101401250000015746884PUERTOLLANO, TRICIA MAE                                  0501
A0101401250000013535303PULUMBARIT, RIZALINO M. OR                              10501
A0101401250000013535303PULUMBARIT, VERONICA V.                                 20500
A0101401250021179007001OLIVEROS, SYLVIA OR WARREN                              10502
A0101401250021179007001OR SHEILA                                               20500
A0101411370000003548947DY, JEFFREY TAN                                          0501
A0101400150000003165200Maria Cecilia C. Maglonso                                0501
A0101400150000016236925CUA, AIBEEMAE SIA LU                                     0501
A0101400150000016237068DAZO, CAROLYN KATE CASAJE                                0501
A0101400150061626610001NATIVIDAD A. PAPPAS OR MARIA                            10502
A0101400150061626610001MARGARITA A. CER                                        20500
A0101400600000000007707**********                                               0505
A0601400100000016237917EVANGELISTA, PAULO NICCOLO FLOR                          0501
A0601400520000009516792GONZALES, ELIZABETH BONDOC DBU                          10503
A0601400520000009516792EBG TRADING                                             20500
A0101414090000006211325DILIGENCIA, MARIA REGINA P OR                           10501
A0101414090000006211325DILIGENCIA, MARK V                                      20500
A0101413150000005944294***                                                      0501
A0101401830141728304001GATCHALIAN, EDWARD ANTHONY GOME                          0501
A7201400170000003773120ASUGAS, GRACE MARIE NARCISO                              0505
A7201400170000009463932YBALANE, MESLIE CORTINA DBU                             10501
A7201400170000009463932WALLIE GEN. MDSE.                                       20500
A7201400170000013006723MEMORANDO, JENELYN BUTALID                               0501
A5001400170000014111858YU, ANGELO INVENTADO                                     0502
A0101412920000005354467LEE, MARIA RICHELLE MALATE                               0501
A0101400440000002034753RADAM, JACKIE LOU LIBIRAN                                0501
A0101400440000002034793ALZONA, SANDRA SORAYA                                    0501
A0101400440000009591820CERRO, ROSEMARIE DEJANO                                  0502
A0101400440161525001174RIZALYN V. GUNTANG                                       0503
A0101407270000009673390CRISTOBAL, RONALDO REMORIN                               0502
A0101401090000016237597RANIDO, MARICEL CORPUZ                                   0501
A0101401090171391665001PUSTA, GWENETHA YBANEZ                                   0501
A0301400530000005300309VALDIVIA, ALICIA MARZON                                  0505
A0301400530000013780931VALDIVIA, ALICIA MARZON                                  0505
B0101401380201183447002CASINO BAR PHILS., INC.                                  1603
A0101410720653383161001PANGANIBAN, DANILO MAINOT                                0501
A0101410720653411174001MA. REMEDIOS OR EDGAR CABALLERO                          0510
A3101400160000014779367EMBRADOR, REBECCA ABITRIA                                0501
A3101400740000003885894ALMEDA, MARIA CRISTINA SALUD                             0501
B1001400350000007920876PEARSON, PILARCITA ROA AND  HEQUILAN,                   11602
B1001400350000007920876ELVIE CORTEZ                                            21600
A1001400350000007762538HERNANDEZ, HIYASMIN TAYLO                                0502
A1301400470000005394389*********                                                0501
B1301400470000003270113OBRIGADO LENDING INVESTOR, INC.                          1601
B1301400760000000050717EJA AGRITECH CORPORATION                                 1605
B0101401670271477778001VIRTUSIO PR INTERNATIONAL, INC.                          1601
A0101406460000012149552BAUTISTA, LEILA MARIE ROXAS                              0501
A0101406460272420187001CHAN, CHRISTINE JOY TAN OR                              10501
A0101406460272420187001CHAN, CHRISTOPHE                                        20500
B0101408660274038999001FRASOR GLASS AND ALUMINUM INC.                           1601
B0101408660274047925001CNT PROMO AND ADS SPECIALISTS, INC.                      1610
A0101411820000014406889JOSE MARI C. CRUZ                                        0501
A0101411240000015897468GREGORIO, HANNAH JOY TEQUIL                              0501
B0801400160000011336422SO,MARIA C.DBU OTANI BAZAR OR SO,WILLIAM                11604
B0801400160000011336422NELSON OR JOSEPH                                        21600
A1101400120313478374094AGAPITO, ROSA POLICARPIO                                 0502
B6601400120314043609004FUNDACION GRAMEEN PILIPINAS INC.                        11605
B6601400120314043609004CATARMAN 2 BR.                                          21600
A2001400290000004890126ABRIO, MARJORIE JAMITO                                   0501
A2001400290000004890171BAROT, HAJJIMAR CANUTO                                   0501
A3401400280000001723531PAJUTINING, JANICE GIGAN                                 0501
B0101405650322033340001PRIME ADVANTAGE PROPERTIES SPECIALIST,                  11605
B0101405650322033340001INC.                                                    21600
B0101405650000000772721PREMIERE COMMUNITY PARTNERS, INC.                        1610
B0101405650322047833001SPRINT INTERNATIONAL, INC.                               1603
B0101409050000007526390GATES ASIA, INC.                                         1602
A0101409050000008087601YBANEZ, GILBERT GRAVADOR                                 0501
A0201400760000015585278KLEE, ELIZABETH CONSERMAN                                0506
A0201400760000009996098ORMOC, MARY JANE UYKINGTAN OR                           10502
A0201400760000009996098ABANO, CATALINA                                         20500
B0201401020000007458195TITCO, MA. CHERIELENE S. DBU WELLSTUFF                  11602
B0201401020000007458195TRADERS                                                 21600
B0101402930381018948001INTERGEN PROPERTIES, INC.                                1601
A0101408370382205119001DR. FLORANTE P. GONZAGA                                  0501
A0101408370382205133001DR. ROWENA P. RIVERA OR                                 10503
A0101408370382205133001REBECCA P. RIVERA                                       20500
A0101408790000000579266BARREIRO JR., ANTONIO CEFERINO                          10501
A0101408790000000579266VILLAR                                                  20500
A0101408790000005251030DELOS SANTOS, ALVIN SOTTO                                0504
B0101408790383047956001NOVARAD ASIA PACIFIC CORPORATION                         1604
A0101411660000015086149REYES, EDWARD RICARDO CORPUZ                             0502
A0101415350000008010437KALINGKING, GRACITA ISABEL                              10501
A0101415350000008010437VILLARMIA                                               20500
A0101402770391460587001CECILIA POTOZA DIZON                                     0501
A0101405490000003178432MIRIAM D. PANO OR MELANIO B.                            10503
A0101405490000003178432PANO JR.                                                20500
A0101405490000016207106CANARE, JOANNE PUSONG                                    0501
B0101405490000003905151ASIA PRIME REALTY NETWORK, INC.                          1603
A0101408400000007264453ABUAN, MARILYN MANGUIN                                   0501
A0101408400394532241001NEBRES, RODOLFO OR                                      10501
A0101408400394532241001NEBRES, ROWEL                                           20500
A0101408950000001039423DIAZ, RAMAYANA SARMIENTO                                 0501
A0101408950000012458492TY, MARIA JOAN RANOSA                                    0502
A0101408950396501550002ANDREW POBLETE                                           0501
A0101408950000008995395LUNA, JO-ANNE MAYOR                                      0501
A0101412210000008068713BEJOSA, THEEZA DANIELLE PEPITO                           0502
A0101412210000016231571GUERRERO, STEPHANIE BALOIS                               0502
A0101412210000001236219RECONALLA, RACHEL GARCIA                                 0501
A0301400820000001554894ESTREMOS, VERONICA T. OR                                10502
A0301400820000001554894ESTREMOS, FERDINAND P.                                  20500
A0301400820000003148616MANGKIKIS, MAYPEARL LAARNIE P.                          10501
A0301400820000003148616OR MANGKIKIS, NOEL C.                                   20500
B0301400820409091735055LIMA, WINDELL BRISTOL DBU DAVAO HOME                    11602
B0301400820409091735055BUILDERS CENTER                                         21600
A2401400180000001676991CASABUENA, RICHARD JOHN JOHN                            10502
A2401400180000001676991FRANCISCO                                               20500
A1201400150421478374035DALAN, LINDA G.                                          0505
B0901400220000000012324SPECIALIST MOTORCYCLE PARTS &                           11610
B0901400220000000012324ACCESSORIES, INC                                        21600
A0101403030441239047001**********                                               0501
A0101403030441239402002**********                                               0501
A0101403030441412000001**********                                               0501
A0101403320000001803258RODEL A. DANGA                                           0501
B0101406330472027929001STO. TOMAS DE VILLANUEVA PAROCHIAL                      11602
B0101406330472027929001SCHOOL                                                  21600
A0101406330472478374049DANILO GIL M. SETENTA OR                                10502
A0101406330472478374049DELIA A. SETENTA                                        20500
A0101412760000002262875DEGAMO, EVITA BUNYI                                      0501
A0101412760000002306332DEGAMO, ALVIN DOMINGO                                    0501
A0501400170000013648176BAUZON, MICHILLE RODRIGUEZ                               0501
B0501400170000000018317DAGUPAN DOCTORS VILLAFLOR MEMORIAL                       1602
A0501400170481403300001ATTY. JACQUELINE V. MEJIA                                0502
B1901400160491014714002TALUMPOK SILANGAN MULTI-PURPOSE COOP.                    1602
B1901400160491037372002FINO PROPERTY VENTURES, INCORPORATED                     1603
B1901400160491065413001CREATIVE HOTEL CONCEPTS, INC.                            1603
A1401400110000014145427JAPOR, ERIC CORDERO                                      0501
B1401400110000012353303BACCILIFE  MARKETING CORPORATION                         1610
A1401400110492023002001THESAURUS DRUGSTORE & GENERAL                           10505
A1401400110492023002001MERCHANDISE                                             20500
A1401400110492222663001SALAZAR, GERARDO CARMELO B.                              0501
A1601400170000001069056CHRISTOPHER S. CO                                        0505
A0101407430000014991963CATOY, LORILYN B                                         0501
A0101407430000014993390MONICA RAGAZA                                            0501
A0101407430000014993436REOTIQUIO, MELANIE                                       0501
A0101407430000014993630SITON, ROMEO MARK JR                                     0501
A0101407430000014993681SUMERA, ROSS ANN                                         0501
A0101407430000015211651DUQUE, LUISITO C                                         0501
B0101407430503039021001NOC GLOBAL MARKETING AND MANAGEMENT                     11601
B0101407430503039021001CORP.                                                   21600
B0101407430503039663001ACES CHASSIS MANAGEMENT AND MARKETING                   11610
B0101407430503039663001CORP.                                                   21600
B0101403580511015363001MILLENNIUM ERECTORS CORPORATION                          1610
B0101403580000010847460MEC - VISTA GL                                           1610
B0101403580000000214662MEC - SUNTRUST PARKVIEW TOWER 1 & 2                      1610
A0101408530516673291001DELA CRUZ, EVELYN G. AND                                10501
A0101408530516673291001LUGADA, EDITHA L                                        20500
B0101408530516758816001ZAB INSURANCE AGENCY, INC.                               1602
A0101411790518055764023ANGELES, LOU VICTORIA DIWAS                              0501
A0101412050000002314552********                                                 0502
B0101403450521011620002FAR EAST ALCOHOL CORPORATION                             1605
A0101403450521238094001**********                                               0502
B0101403450521238191001**********                                               1610
A0101403610531068892001RACSA, ROLY MICHAEL R DBU MERAV                         10504
A0101403610531068892001ENTERPRISE                                              20500
A2201400250000002337982DURIMAN, ERLINDA BALINGIT                                0502
A2201400250000003558190EDWIN S. ESPIRITU OR ANNA                               10501
A2201400250000003558190JESSICA S. ESPIR                                        20500
A2201400250000013859124MOLINA, RUSSELL CARBONILLA                               0501
A2201400250000012983063ESPIRITU, EDWIN SAMSON DBU E.S.                         10501
A2201400250000012983063ESPIRITU ARCHITECTURAL                                  20500
B2201400250000002924741ZUVIN GEN. MERCHANDISE                                   1601
A0101410690000003027603PANELO, REYLEE LOZADA                                    0503
A0101410690000004481852SKIP TRACE HUMAN RESOURCE                               10503
A0101410690000004481852SERVICES                                                20500
A0101407720000016240612SY, WILLY YU                                             0502
B0101407720602005906001ASSOCIATED MEDICAL & CLINICAL                           11610
B0101407720602005906001SERVICES, INC.                                          21600
B0101407720602612671001EMERGENPRO INC.                                          1603
A0101409890000011029477ANGELES, ROMUALDA SANTIAGO DBU                           0501
B0101407690000011457402PALAGANAS, MARY ANN SANTIAGO                             1610
A0101407690000005197913LOPEZ, SHIRLEY LUDOVICE                                  0501
A0101407690652674006001FLORENTIN, LUINELL PAEZ                                  0501
B0101413990000003182534ANDL ENTERPRISES INCORPORATED                            1604
A0101414120000005252831GERALD GALVEZ                                            0501
A1301400340000002158476ALIPIO, ALMA DELOS SANTOS DBU                           10501
A1301400340000002158476ALIPIO GARMENTS                                         20500
A1301400500000016062183JOEL G. PAULE                                            0501
A1301400500000002063941GIANT LUMBER & HARDWARE CO.                              0501
A1701400230000014313883GALANO, JHOAN TUBON OR GALANO,                          10501
A1701400230000014313883JAMES LABUCAY                                           20500
A0101408240000013171501MORRIS, MARIA CELESTE ARCAYNA                           10502
A0101408240000013171501DBU FABACO TRADING                                      20500
A2801400100000005494248VILLANUEVA, BERNADET DBU ANB                            10505
A2801400100000005494248ENTERPRISES                                             20500
A2801400100712487899001NOCUM, LEANDRO CASTELO                                   0502
A4101400260000006042917MANALO, JEFFERSON S. DBU J.S.                           10502
A4101400260000006042917MANALO CONSTRUCT                                        20500
A4101400260812246128002HIPOL, CYNTHIA LAZARO                                    0501
A4101400260000009533564ESTOCADO, EDITHA JARDINIANO                              0505
A4101400420814520766012SUSAN B. MALBOG                                          0502
A4101400420814520766033DELA CRUZ, MARILOU M.                                    0501
A4101400420000003715724FLAVIANO, PERLITA                                        0501
A4101400550000003839112OMANDAM, DANIEL FULGENCIO                                0501
A0101412340000007305757EVELYN D. ALVAREZ                                        0501
A0101404840000016237928YAMAGUCHI, SHOJI .                                       0501
A0101406750000007879381FERNANDEZ, JENNY FABIANA TUBALI                          0501
A0101406750000014700922CAMPOSANO, JOAMA FRANCISCO                               0503
