F0101405100571351663002SANCHEZ, PETER LAM                                       2505CKO
F0301400110000003762685LU, WILSON LU JT WORSLEY,ANDREW                          2601CKR
F0101400570281007178002ALFREDO'S STEAK HOUSE INC.                               2606CKR
F0101410850000001229794TRANSLOGISTICA INTERNATIONAL                            12602CK1
F0101403580511023910001P.J. LHUILLIER DEVELOPMENT                              12601CKR
F0101410850000001229794FREIGHT INC.                                            22600CK1
F0101403580511023910001CORPORATION                                             22600CKR
