B0101405070861821100608**********                                               2002
B0101405070861821100608**********                                               2002
A0101410300000005237781CHAN, RINGO DEL ROSARIO                                  0502
A0101410690000002290779TAYAG, NORMAN GERARDO OLARTE                             0501
A1101400120000001920612MANUTA, HAIDE LIZ SEPTIMO OR MA                         10501
A1101400120000001920612NUTA, MICHAEL ARMAN BAHIA                               20500
A1101400120000013536693GLORIA, VINCENT DADULA DBU Y-KN                         10501
A1101400120000013536693OT CREATIVE EMBROIDERY &                                20500
A1101400120000003022442QUIAO, REYNALDO VIRTUDAZO                                0501
B0101401250021006625003WODEL, INC.                                              1610
A0101405810072234892001**********                                               0501
A0601400100000001442871**********                                               0501
A0601400100000016458732FRIOL, RICHARD PEJO                                      0501
A0601400100000012782060VELISANO, JOSE LUIS                                      0501
A0601400360083748755001CANGCO II, RYAN DIZON                                    0501
A0601400520000009516758NEPOMUCENO, MARCO ARMANDO                               10502
A0601400520000009516758DBU ARMANDO'S PIZZA                                     20500
A0101410850000009034640**********                                               0503
A0101410850000016454245MORALES, CHRISTIAN TIERRA                                0501
A0101410560000005280575BRIAN S. CO                                              0502
A0101400730000014166173JAVIER, ROGELITO B                                       0502
A0101400730000001016471VIOLETA O. SANOY                                         0502
A0101401960121445141002***************                                          0501
A0101413150000011778262*****                                                    0503
A0101413150000006294244********                                                 0504
A0101413150000013434167***                                                      0501
A0101412630000001823274TURINGAN, MARIA ELENA LASAFIN                            0505
A0101413310000006735755RAMOS, JOEL VICENTE P. OR                               10502
A0101413310000006735755RAMOS, EDGARDO P.                                       20500
B0101401830141068237001BERMUDO, SHARALYNN Q. DBU AKEISHA TRAVEL                11601
B0101401830141068237001AND TOURS                                               21600
A0101401830141626261001CHAVEZ, ROGELIO CUDIAMAT                                 0501
A7201400170000009463783MUADS S. MAULANA DBU MMJM ENT.                          10505
A7201400170000009463783OR JAMELLAH L. M                                        20500
A0101400440000002034964LUIS, RODRIGO SAPADEN                                    0501
B0101400440000002035001INTEGRITY DIAGNOSTIC CENTER                              1605
A0101401090000015531387CASTRO, ROSARIO CALISON                                  0501
A0101401090171027703001INSTANT DRUGSTORE AND GENERAL                           10502
A0101401090171027703001MERCHANDISE                                             20500
B0101401090000000772452ASSOCIATION OF PHILIPPINE TAXONOMISTS                   11601
B0101401090000000772452INC.                                                    21600
A0101401090171365357001JAMES B. RABAGO                                          0501
A0301400530000001010051CUBILLO, DOMINGO D. OR                                  10505
A0301400530000001010051CUBILLO, CARMELI                                        20500
B0301400530193044706199ROYAL CROWNE BEVERAGES                                   1601
B0301400530000000025276KONRAD FERNANDO - ROYAL CROWNE TRUCKING                 11602
B0301400530000000025276CATHERINE FERNAN                                        21600
B0301400790000000435705REFCON SYSTEM NETWORK SOLUTION, INC                      1601
B0101410720000000968112*******                                                  1601
A0101410720000007017405CERNA, CECILIA DBU CRN                                  10502
A0101410720000007017405ENTERPRISES                                             20500
A0101410720653407205003MATIAS, ROBERT VINCENT C.                                0501
A0101410720000013857504MARIANO-ENRIQUE, KLARISA AGATEP                          0502
A0101412500000000739657****                                                     0501
A0101412500000015242878ALIVIA, ARVIN MANERA                                     0502
A0101412500000016459491MUNASQUE, JOANNE ABELLANOSA                              0501
A3101400160000012033622RAMILO, DANILO TAPIA                                     0503
A3101400450000005355653RAMOS, JAIME ESPINA                                      0503
A3101400450000004751811UMANDAP, ALLAN DE MESA                                   0502
A3101400870000000957655BITHAO, C DBU BP-1 CAR AUDIO                            10503
A3101400870000000957655AND ACCESSORIES                                         20500
A1001400190000001057385LOTH M. UBAY-UBAY                                        0502
B1001400190000002170850RD PAWNSHOP, INC.                                        1605
A1001400190231520766036ONIPA, JANE ROSE P                                       0501
A1301400470000003270522QUIRICO G. JAVIER JR.                                    0501
B1301400470000007863183DRAGONPINE CORP.                                         1602
A0101406460272314180001********                                                 0503
B0101411820000003085163TECHNOPIPE CONSTRUCTION CORP.                            1602
A0101400570000001681881PALANCA, MARIA LOURDES YOLANDA                           0501
A0101411240000008592725DIOSANA, FRANZIA ZAMUDIO                                 0501
A2601400270000002312243BACCAY, EDNA GAMIS                                       0501
A2601400270302631323001MARIA ISABELL R. DULIG                                   0503
A0801400160000001031387DIMATULAC, NENITA MENDERICO                              0502
A2001400290000015169425BALIOLA, ROY CUENCA DBU BAROROY                         10510
A2001400290000015169425EATERY                                                  20500
B2001400290315528399001**********                                               1601
A0101405650000001912107NAOE, PATRICIA ORONAN                                    0501
B0101402060000000653827EUSTYLE OF LINES, SOLUTIONS AND ARTS                    11601
B0101402060000000653827(E.L.S.A), INC.                                         21600
A0101402060351217441009RONILO MATAS                                             0503
A0101402060351365104002VILLANUEVA, ELSA ROMEA                                   0501
B0201400760374030513001RQLIM RESOURCES, INC.                                    1601
A0201400760000013874752ORTANEZ, PATRICK JOSEPH PLACENC                          0502
A0201400920000002804548BENOLERAO, ALETA PANGAN                                  0501
B0201400920375526997001**********                                               1603
A0201400890000006961864NEGRITE, DARFRENTE ELIZALDE                              0501
B0101402930381014599001HEALTH SOLUTIONS CORPORATION                             1602
A0101402930000007030924AVILA, NORA LACAP OR AVILA,                             10502
A0101402930000007030924MYLEEN LACAP                                            20500
A0101408370382206455001DR. RUBEN G. KASALA OR                                  10502
A0101408370382206455001DR. MA. CARMELA KASALA                                  20500
A0101408370382381086001TULOD, LUZVIMINDA MUNCAL OR                             10501
A0101408370382381086001TULOD JR., AMANTE MUNCAL                                20500
A0101408370000000586016SAMONTE, CRISTY EVANGELISTA                              0502
A0101408790000005251161ARCIGAL, JOSEFINA LUBAO                                  0501
A0101411660000003580243JOAN CATHERINE MANALO                                    0501
A0101411660000015799323ESPIRITU, ANGELI MANZANO                                 0501
A0101415350000007878300CHEN, TENNYSON GO                                        0502
A0101402770391027121001ABBI PRINTHAUZ                                           0502
A0101405490000006300083**********                                               0501
A0101409180000005326443SANTIAGO, MARK ANTHONY BUGAY                             0501
B0101409180000008122752CITY OF IMUS DOCTORS HOSPITAL, INC.                      1602
A0101412210000000238555ABABAO, GLENN DE LEON                                    0501
B5501400120000002949735VALEENLAND REALTY CORPORATION DBU                        1602
B2401400180411040250088HOME SOLUTIONS DEPOT PLUS                                1610
A2401400180000001676913***********                                              0501
A2401400180411668703001DRA. MYRA J. ATENDIDO OR DR.                            10505
A2401400180411668703001BOBBIE EDUARDO A                                        20500
B1201400150421032018001DAP-AYAN TI JOHN HAY EMPLOYEES CREDIT                   11603
B1201400150421032018001COOP.                                                   21600
A1201400150000001863301TAN, DARWIN ANG                                          0506
B0901400220432307053088**********                                               1601
A5101400100000010834067VILLAHERMOSA, LEO PHILIPS CAMOM                          0501
A5101400100000014191454GARAY, MARIA LYDIA RELOVA OR                            10505
A5101400100000014191454GARAY, FLORENTINE TECSON                                20500
A0101403030441643112001**********                                               0501
A0101403320000014818610RIVERA, GILCHRIST S.                                     0502
B0101403320471009122001ELDRICH FOODS CORPORATION                                1603
A0101403320000001803021BERNADETTE F. BAUTISTA                                   0501
A0101406330472022555001AUDIO EXCELLENCE MARKETING                               0510
B0101406330472367379002********                                                 1601
A1601400170000000421161GEORGIA SOFIA GIMENEZ-LUISTRO                           10505
A1601400170000000421161OR LUISITO B. LU                                        20500
B0101407430000013804467YAN YANG AQUAMARINE (PHILS.) CORP                        1605
B0101403580000004558750ECOSSENTIAL FOODS CORP.                                  1605
B0101403580000000383788JER CONSULT CORP.                                        1602
A0101403580000012314840TIU, THERESITA SOLDIVILLO OR                            10510
A0101403580000012314840TIU, LAURENCITO RAGAS                                   20500
B0101405940000009247736COLLABORATIVE INDUSTRIAL REVOLUTION INC.                 1605
A0101405940000012443435LIBAGO, MAYDEEH REYMUNDO                                 0502
A0101411400000007169113RANER, BOBBY TIAGA                                       0501
B0101403450521011769001SAFEWAY CUSTOMS BROKERAGE, INC.                          1610
A0101403610000016107823DUCAY, SANTIAGO                                          0501
B0101403610000013084798TOLLPAK MFG. CORPORATION                                 1603
B0101403610000016439048MMG LOGISTICS CORP.                                      1601
B0101403610000016438869MMG BROKERAGE CORP.                                      1601
B0101403610000016438927MMG BROKERAGE CORP.                                      1601
A0101403610000016448465PACETE, GIDEON MARK C DBU JERUB                         10501
A0101403610000016448465-BAAL GENERAL MERCHANDISE                               20500
A0101403610531069369001SARMIENTO, EDUARDO R DBU ED &                           10510
A0101403610531069369001FANNY PROPERTY LEASING                                  20500
A0101410690000000001758IGNACIO, JONATHAN DBU JCJ                               10502
A0101410690000000001758MANAGEMENT SERVI                                        20500
B0101404130601100074001KING'S DEVELOPMENT, INC.                                 1603
B0101407720602031597001A.F. NAVARRETE AND PARTNERS CO.                          1601
B0101407720602031597001A.F. NAVARRETE AND PARTNERS CO.                          1601
A0101407720602283353001ERWIN HERNANDEZ OR                                      10501
A0101407720602283353001AGNES HERNANDEZ                                         20500
A0101407720602286255002**********                                               0503
A0101407720602333243001MELODIE GRACE M. REMORCA                                 0503
A0101407720602396958002GALI, CELESTE AIDA GILBUELA                              0501
A0101412180603046771001CHING, JONATHAN DBU SYSTEMS PAC                         10505
A0101412180603046771001VENTURES                                                20500
A0101409920000000998569MEMBERS OF NATASHA (SHOECAT INC                         10501
A0101409920000000998569PEDROSA, JULIE                                          20500
A0101411530000006094351CATINDIG, ELIZABETH ANN FERNAND                          0502
A0101411530000006094431RAVELO, NYMLA C                                          0501
A0101413440000001472646CARLO POCHOLO C GONZALEZ                                 0502
A0101413570000008173580MAGAO, JESSICA SALE                                      0502
A0101414120000011288903NGO, JASEN GO OR NGO, HENRY TIN                         10501
A0101414120000011288903G OR CO, WHILBER                                        20500
B0101414120000011765183REGIS HOME BUILDERS SUPPLY CORPORATION                   1602
A0101410300663085457001BRAWNER, PERCY ALIAC                                     0501
A1301400210000005040577**********                                               0502
A1301400210000009982176***                                                      0502
A1301400340000014501838ALVEZA, TRIGIDIA DE VERA                                 0502
A1301400340000015886869ZAMORA, MARY CHRISTINE LEGASPI                           0502
A1701400230000002762985RUBIO, J DBU JOE 10'S                                   10502
A1701400230000002762985RESIDENTIALS                                            20500
A0101408240000012315854RAMOS, ALBERTO EMILIO OR                                10502
A0101408240000012315854RAMOS, ELIZABETH                                        20500
B0101408240711033368001ST. ELOI PAWNSHOP OPERATORS, INC.                        1601
A0101408240000016120362CASTILLO, JUAN MIGUEL ANTONIO                           10501
A0101408240000016120362DOMINGO                                                 20500
A0101408240000016120373CASTILLO, MA.NINA VEDA DOMINGO                           0501
B0101408240711721986001ST. JAMES COPA FOUNDATION, INC.                          1602
B4101400260000006043523CHEF ELMER FOOD SOLUTIONS CORP.                          1601
A4101400390813478374045FIRMALINO, MELECIA ATIENZA                               0503
A0101412340000003761955RODOLFO D. VILLARIZA                                     0501
A0101404840851478374094LETICIA FULLO                                            0502
A0101406750000014700922CAMPOSANO, JOAMA FRANCISCO                               0502
