F0101413990000000915571AQUINO, ALMA MILAGROS VELASCO                            2501CKO
F0101401830141357303001ONGCHUAN, ALEXANDER CO                                   2502CKO
F0101405650322699932001ERIC S. VIRATA                                          12501CKO
F4101400260812444904003HERNANDEZ, ALLAN SANTOS OR                              12505CKO
F0101405650322699932001"SLICK RICK"                                            22500CKO
F4101400260812444904003HERNANDEZ, JEAN                                         22500CKO
F0101406330472033928003NUTRISENSE INT'L., INC.                                  2602CKR
F0101408110515021706002XORAND ZOLUTIONS CORPORATION                             2606CKR
F0101408110515054800001TALIPAPA COMMERCE VENTURES INC.                          2601CK1
F4101400260812033409003NEW DASMA GOLD BAKE INC.                                 2601CKO
F0101405490000001935640ZC KINGS MANPOWER AND                                   12604CK1
F0101405490000001935640JANITORIAL SERVI                                        22600CK1
F0101408820333622285001********                                                 2701CKC
