A6601400120000005710430TURBANADA, NERI SORRO                                    0501
B0101401960121608874001**********                                               1602
A0101400570281595882001LEDESMA, JOSE FORTUNATO GAMBOA                           0505
A0101410300000002375857GARRUCHO, CECILIA B. OR                                 10502
A0101410300000002375857GARRUCHO, MARIA CLARA Y B                               20500
B0101400860011374971002**********                                               1602
A0101405810072367294001**********                                               0503
B0601400100081025333001TRUE NORTH MANUFACTURING SERVICES CORP.                  1610
B0601400100081034790001SHINMEI CREDIT AND LOANS CORP.                           1601
B0601400100000005690393J.C DAVID & ASSOCIATES, INC.                             1602
A0601400360083649312001KIM, KANG WOOK                                           0502
A0101410560000010093426GEVANA, ANGELITO CABAGYO                                 0501
A0101410560000010093437GEVANA, JIOVINA RAMIREZ                                  0501
A0101410560000010093459GAMARA, ROSEMARIE PUEBLO                                 0501
A0101410560000010093460PETIL JR., ARTEMIO TIBAYAN                               0501
B0101401960121240191002LEGRAND PROPERTIES INC.                                  1602
B7201400170000003773524JUSTINIANO, MARIO L. AND DELOS SANTOS                   11601
B7201400170000003773524MARIA THERESA M.                                        21600
A5001400170000005705175MONTANO, JOANNE CRISTINA OR                             10510
A5001400170000005705175ZAPANTA, FRANCIS ANTHONY                                20500
A5001400170000005705186MONTANO, JOANNE CRISTINA OR                             10510
A5001400170000005705186ZAPANTA, FRANCIS ANTHONY                                20500
A0101400440161478374175MARYLEN R. MORADA                                        0503
A0101407270162333006034RUFINA M. CALDERON                                       0502
B0101407270162386869002VIRGILIO D. GARCIA AND HEIDEE G. YUMUL                  11601
B0101407270162386869002AND HAZEL MALLAR                                        21600
A0101401090171195406001BOLISAY, BERNARDO M. OR                                 10502
A0101401090171195406001BOLISAY, FLORENCIA S.                                   20500
A0101401090171353988001CITADEL C. DE CASTRO                                     0502
A0101401090171417083001ABIGAIL T. PAGALILAUAN                                   0501
B0301400660000006862617BANGAYAN, EDWARD LAWRENCE UY                             1602
B0101401380201065233001DRC ENTERPRISES INC.                                     1601
A0101401380201554626001BANGURAN, MYRNA BRINGAS                                  0501
B3101400160221020497001AGUA CALIENTE HOT SPRING RESORT                          1603
A1001400190000002170656AMELINA E. FACTURA                                       0501
B1001400350000000017041LIMKETKAI HOTEL & RESORT CORPORATION                     1610
A1001400350233529082001QUEJA, AILSA QUILALA                                     0501
A1001400480000005355897CREDO-MALALIS, RONAH LYN DENAMA                          0501
B1001400480000006296262MA. DEL CARMEN MART, INC.                                1610
A1901400290000000135060ALELI GUTIERREZ PERCE OR                                10502
A1901400290000000135060FLORENCIO D PERCE                                       20500
A1901400290000001926274GIRLIDIA SANCHEZ PANALIGAN OR                           10503
A1901400290000001926274RODOLFO MARANAN PANALIGAN                               20500
A1901400290261490189001CARLO JOSE V FUENTEBELLA OR                             10505
A1901400290261490189001SARAH SUZANNE FUENTEBELLA                               20500
A1901400290261550479001ARVIN GUCE BRIONES                                       0501
A1901400290261550479002ARVIN GUCE BRIONES                                       0501
A1901400290261627853001PRIMITIVO PEDREGOSA MITAL                               10501
A1901400290261627853001OR PRIMO OCAVA MITAL                                    20500
B0101406620000000193942SOURCEFIT PHILIPPINES INC.                               1602
A0101406620273315888001LAUREL, JOANNA OR LAUREL, CARLA                         10501
A0101406620273315888001LAUREL, CARLOS O                                        20500
A0101406620273483517001BUENAVENTURA, ROWENA PULGA                               0501
A0101411820000005380223MACAPAGAL, EINAR LUNA                                    0502
A0101411820000002328576BALBERONA, JOHNSON VILLAMOR                              0501
A0101400570000004624140PASCUAL, EDGARDO JR CALANOC                              0502
A0101411240000010093682ROXAS, YOLANDA ABELIDO                                   0501
B0101411240283821200608**********                                               2001
A6601400120314780845001RECARE, VILMA GORGONA                                    0501
A0101405650000008025318GONZALES, JUAN MIGUEL GABALEZ                            0501
A0101405650322356435001ENRIQUE BIE OR EVELYN V. PAULI                          10501
A0101405650322356435001OR RICHARD M. PAULI                                     20500
A0101402510341588910001JOPSON, JESSICA GEPOLIO                                  0501
A0101408790000000931048PISON, MARCUS AURELIO ABELARDO                          10501
A0101408790000000931048OR PISON, MARIA TERESA                                  20500
B0101408790000006025769STORM FLEX SYSTEMS, INC.                                 1605
A0101405490000005566509FERNANDEZ, STACY MARIE RAMIREZ                           0502
A0101405490000006241943MINERVA V. VILLACORTA                                    0501
A0101408400394031949001ROBIMIKO ENTERPRISES                                     0504
A0101408400394550097001AMAGO JR., EDGAR MAGDARAOG                               0501
B0101409180397041823001THE INFINITY CONDOMINIUM CORPORATION                     1603
B2401400180000000019769WILL & JOE AGGREGATES, INC.                              1605
A2401400180000002146334OMAY, Z DBU CRIZA ENTERPRISES                            0502
B2401400180411056764001RD PAWNSHOP, INC. - GENSAN REGION                        1603
A2401400180411478374004MESRIYA ABDULLAH                                         0501
B1201400150421496291001LIQUETE, DOLORES SAGUID OR LIQUETE,                     11602
B1201400150421496291001LEONARDO                                                21600
B0101412890000001765426RCCCW CORPORATION                                        1605
A0101403320000010061546AGUSTIN, GINA TRINIDAD                                  10501
A0101403320000010061546OR TRINIDAD, JOSEPHINE S                                20500
A0101403320000001803021BERNADETTE F. BAUTISTA                                   0501
B1401400110492027896004LUCENA UNITED DOCTORS HOSPITAL, INC                      1604
A1401400110492029549002TRIPTORS DIAGNOSTIC CENTRE                               0502
A1401400110492220879001ANGLO, ROMEO F. OR                                      10502
A1401400110492220879001ANGLO, CECILIA N                                        20500
A1601400170000001068640JOSE NOEL R. RUBIO                                       0501
A0101407430503578952001MELVINE JONES T. ROSETE OR                              10502
A0101407430503578952001CHERRY ANN B. ROSETE                                    20500
B0101405940512005312002SHASTA CONCRETE SYSTEM                                   1605
A0101408530000000594423LORELIE Y. GAWAT                                         0502
B0101403450521011748001EUROTILES INDUSTRIAL CORP.                               1604
A0101403450521678458001*********                                                0501
A0101403610000010070252ESQUILLO, ALMA CALOZA                                    0501
A0101403610531047978001TIMONES, ALPHA PINTACASI                                10503
A0101403610531047978001DBU JAZKY BUILDERS                                      20500
A2201400250561038458001PTT SOUTH RAMP GASOLINE STATION                          0501
B0101404130601030838001ELEV 8 MEDIA, INC.                                       1605
A0101404130601450390001VALDES, PAUL DENNIS OR                                  10506
A0101404130601450390001VALDES, MA. THERESA                                     20500
B0101404130601669890001HODREAL HOLDINGS INC.                                    1605
B0101404260611018794002HAVEN MONTESSORI, INC.                                   1601
A0101404260611572162001GALLANOSA, LAICA VELASCO                                 0501
A0101409890000000004520**********                                               0501
A0101413440000006680937CELESTINO, GEMMA TERESA ANGELES                          0501
B0101413570000003580749MORALES, EMIL T. DBU DMD PHOTOGRAPHY                     1605
A0101414120000000875509RESNA BUILDERS & SUPPLIES                                0502
A1301400210000007669096VILLACARLOS, MA JILL PAMPAG                              0501
B1301400210682016750001JFL AGRI VENTURE SUPPLIES                                1606
A1301400340683501003001GO, LLOYD CHUA OR CHERYL B GO                            0502
B1301400500684007395001K SERVICO TRADE, INC.                                    1603
A0101408240711396778001MA. FRANCESCA ROMANA OR                                 10501
A0101408240711396778001PHILIPPE SEYER                                          20500
A0101408240711511389001ESCOTE, SHERYLLIN SILO OR                               10501
A0101408240711511389001ESCOTE, ACE ANTHONY                                     20500
B4101400420814012632001UCCP - ANABU EVANGELICAL CHURCH                          1603
A4101400420814478374170OSO, MARY GRACE                                          0501
A4101400420814520766136VALLEJO, ELVIE                                           0502
A0101412340000006046880JON ROGER D. CENAS                                       0501
A0101412340000004360121CATHERINE B. PAMPLONA                                    0501
B0101404840000000090366BATAAN AUTOMOTIVE RE-MANUFACTURING                       1605
B0101406750000000017609EXTANT PR SYSTEMS, INC.                                  1602
B0601400230891040013001OCAMPO'S METROSALES INC.                                 1602
A0601400230000000452840GOZUN, R-JAY RAMOS OR                                   10510
A0601400230000000452840GOZUN, MYRNA RAM                                        20500
