B0201400760374821100608**********                                               2020
B3101400870225821100608**********                                               2003
A0101402930000014435822CUEVAS, KATRINA FUTOL                                    0501
A7201400170000007185842SARMIENTO, MARY JOAN BRANZUELA                           0503
B0101401090171004145002GRAIL MOVEMENT PHILIPPINES, INC.                         1601
A3101400160000015114502VIVARES, PERLITA PRADO                                   0501
A0101402930381706358002**********                                               0501
A2401400180000000019758ABUHAN, IRENE MERCADO                                    0501
B2401400180411043008008TBB PETRON                                               1604
A1901400160000014655913DRA. AIDEN PANALIGAN DIMAANDAL                           0501
A0101400860000005312981**********                                               0502
A0101400860011386392002**********                                               0503
A0101400860011400959002**********                                               0501
A0101400860011409985002**********                                               0505
A0101400860000005313046**********                                               0502
A0101400150000011647619ISHIDA, TATSUTO                                          0502
B0101400150061038212001COCOPALM AGRI GROUP, INC.                                1603
A0101400150061337099130*****                                                    0501
A0101400150061464185003DE SAGUN, SIGFRID ALEXIS ARCE                           10502
A0101400150061464185003DE SAGUN, ANNE M                                        20500
A0101400150000002749728ZALAMEA, CESAR CABREZA                                   0501
A0101400150000011286190DAVID, EDWIN JOHN OGBAC                                  0501
A0101400150061786740001**********                                               0502
A0101400600000001335591********                                                 0502
B0101400600071233681002**********                                               1606
B0101400600071328360002**********                                               1601
A0601400100081501761001TAN, WINTHEL OR RALPH                                    0502
A0601400360000012820012ROBINSON, KATHLEEN JUNE                                  0501
A0101414090000006211563JUGO, CHELOY CORINA CASTILLO                             0501
B0101410560000015166011QUIZA, ANNELYN MALIGAYA AND QUIZA, PAULO                11601
B0101410560000015166011GUERRA                                                  21600
A0101410560000010318297MA. CRISTINA G. MANALAD                                  0501
A0101410560000005836319CRISTINA L. LUALHATI                                     0501
A0101401960121096152001***************                                          0502
B0101401830141066155001BUCE, ANTONIO C DBU BDMA MOTOR WORKS JT                  1601
A0101401830141740190001LEBRON, LUIS FRANCISCO VILLACOR                          0501
A7201400170000002791262LACIERDA, JANRY H. OR                                   10501
A7201400170000002791262MONTERA, ELIZABETH A.                                   20500
A7201400170000003774390MABULAY, JOHANNES GACUTAN                                0501
B5001400170153821100608**********                                               2003
A0101412920000002359128DIAZ, FRANZ JEREMY AGUAS                                 0503
A0101400440000004889887BALINGBING, LEONORA SINUTO                               0501
A0101400440000000821301TOPCOM CONVENIECE STORE                                  0505
A0101400440161520766062ENGELINE N. MACAILING                                    0501
A0101407270162402587002MA. LOURDES L. SEVILLA                                   0503
B0101401090171007908001PERPETUAL SUCCOR HOSPITAL &                             11606
B0101401090171007908001MATERNITY, INC.                                         21600
A0101401090171427121001SOLLY E. LIM                                             0501
A0101401090171615473001EMERALD C. SUAREZ                                        0503
A0301400530000008307540PIAD, CHACELLIEN NACIPO                                  0501
B0301400660000000195306G.E. 64 ENTERPRISES, INC.                                1605
A0101410720000000234940LARIOSA, MARY ANN GARINO                                 0501
A3101400160000014696656LENIZO, MAYLENE SINGCO                                   0502
A3101400160221478374019MIRIAM M. MIRABUENO                                      0501
A1001400190231520766015CALUMBA, VICTOR ARQUITA                                  0501
A1001400190000001057396LOLITA B. DULCA                                          0501
B1001400350000009439125CROSSBORDER DELIVERY SERVICES COMPA                      1604
A1001400480000008502032GAMBE, CAROLYN ESPANUEVA                                 0501
B1901400290261023671001PONDONG BATANGAN COMMUNITY                              11603
B1901400290261023671001FOUNDATION, INC.                                        21600
A1901400290261298552105AIDA NABOS REYES                                         0501
A1901400290000011244652MACASAET, JOYCE ANN DE CASTRO                            0502
A1901400290261356002001MARICEL REJANO LUCERO                                    0501
A1901400290261470375002NORA BUQUIR MIRAL                                        0501
A0101401670000013222274HERMIDA, ROMELL MERCADO                                  0504
A0101406460000002359793SYLING, RITA KIM GOTAUCO                                 0501
B0101406620273031852001EDGE INTERLINKS CORPORATION                              1603
A0101406620273301500002CAESAR A. GUERZON                                        0502
A0101406620273367221001GUERZON, CAESAR ABESAMIS                                 0502
A0101411110000000842557**********                                               0501
B0101411110276046445088INFINITY DYNAMIC SYSTEMS AND SOLUTIONS                  11601
B0101411110276046445088INC.                                                    21600
A0101411820000005380223MACAPAGAL, EINAR LUNA                                    0502
B0101412470000008927562*******                                                  1602
A0101412470000002136107**********                                               0503
A0101400570281186562001ENGR. JOSELITO MIRAFUENTES OR                           10501
A0101400570281186562001DR. LANA GAN                                            20500
A2601400270000011716420MARICEL C. MACATO                                        0501
B0801400160311014376002PENBANK, INC.(A PRIVATE DEVELOPMENT BANK                 1602
A0801400160311380582001CHUA, ANDREW UY OR                                      10501
A0801400160311380582001CHUA, PAMELA G.                                         20500
B0101402350000007062928MATCH POINT CAFE, INC                                    1601
A0101402350000003880580CAOIBES, ERNESTO DE LEON                                 0501
B0101405650322036086001VISTALAND INTERNATIONAL MARKETING, INC.                  1610
A0101402510000013485913DE LUNA, GENALYN ACAYEN                                  0501
A0101402510000000200153LPR GRAPHIC DESIGNS                                      0502
A0101402510341202843003CONSTANTINO, JOSE GREGORIO OR                           10501
A0101402510341202843003CONSTANTINO, MARICHU                                    20500
A0101409050000000601385NOVILLOS, REYNALDO DISU                                  0501
B0201400760000000989706SORIANO, ADRIAN IBAY                                     1603
A0201400920375503351001**********                                               0503
A0201400890376080642001GALANG, LORLIE PACURIBOT OR                             10505
A0201400890376080642001GALANG, GLENN AN                                        20500
A0201400890376515284001TING, ANTHONY CHUA OR TING,                             10502
A0201400890376515284001GRACE UN                                                20500
A0201401020000003031129DEL PRADO, JOSE VICE DBU DE LAR                          0502
A0201401020000007458275ONG, JORGE TING                                          0502
A0101402930381207504001MA. IMELDA B. BATAR                                      0501
A0101402930381552082001CATABAY, JOEL GALOPE                                     0501
B0101408370000000014586THE MEDICAL CITY DEPARTMENT OF MEDICINE                 11601
B0101408370000000014586INC.                                                    21600
A0101408370382407309003JOHANN MICHAEL G REYES DBU                              10501
A0101408370382407309003JMGREYES EYE CLINIC                                     20500
A0101408370382419815001----------                                               0501
A0101408370382482271001DR. LARRY V. ACUNA                                       0502
A0101408790383671821001ELLEN BALING MENDOZA                                     0502
A0101411660000002309560RIVERA, VENUS TUMPALAN                                  10501
A0101411660000002309560RIVERA, POCHOLO VICENTE                                 20500
A0101402770000002267289FABELLA, MICHELLE MIRANDA OR                            10502
A0101402770000002267289FABELLA, DEAN NOEL MANUEL                               20500
A0101402770391013439001JIREH'S CAR PAINT SHOP                                   0502
A0101402770000007413932MAGBALON, EDNA TAJONERA                                 10502
A0101402770000007413932DBU YALCO MERCHANDISE                                   20500
A0101405490000005210217ESPERANZA M. BAUTISTA OR                                10501
A0101405490000005210217ANGEL P. BAUTISTA                                       20500
A0101405490000006241921LAYDEROS, MARISSA MANALILI                               0501
B0101405490392332339001HUANG, WINFRED YU                                        1603
A0101408400000007906030DE CASTRO, JENER NOVERO                                  0501
A0101408400000012951714*************                                            0502
A0101408400000001855449D'CUPBEARER ACCOUNTING FIRM                              0505
A0101408400394230018001JOSE H. GAOAT JR. OR                                    10503
A0101408400394230018001JANEFER F. GAOAT                                        20500
A0101408950000011598891VELAYO, CLARISSA LIM                                     0501
A0101409210398676774001ATIENZA, NINO CARLO BANAYO  AND                         10501
A0101409210398676774001ATIENZA, KATHERINE                                      20500
A0301400820000000132527DAGADAS, CONCORDIA A.                                    0502
A0301400820000005991906AMODIA, JEAN D.                                          0501
B2401400180000007476875BRIGADA PUBLISHING CORP.                                 1610
B2401400180000007476897BRIGADA PUBLISHING CORP.                                 1605
B2401400180000007476900BRIGADA PUBLISHING CORP.                                 1605
A2401400180411320270002SALARDE, GLORIA TIMKANG                                  0502
B0101403030000008068786LATABERNA CORPORATION                                    1602
B0101403030441240945001**********                                               1602
B0101403030441593223001**********                                               1601
A0101406330472460738003MA. SUSAN P. MORA                                        0501
A1901400160000013648712DRA. SOFIA ROSELYN E. TAYLAN                             0501
A1901400160000012982242MERPOR LOGISTICS                                         0502
A1601400170000009954432POOT, JANELINE BURCE                                     0502
A0101407430000003193326JEREMIAS L. TESTADO                                      0501
A0101403580511005290001ETHEL T. YUSON                                           0501
A0101408530000015156842GUSTILO, NATHANIEL DIOSO                                 0501
A0101408530000015155770APOLONIO, SUZANNE MARIE SAN JOS                          0501
A0101408530000015155901BALAGOT, RUBY LOPEZ                                      0501
A0101408530000015155985CABUCO, JOHN ERIK GUTIERREZ                              0501
A0101408530000015156073SALANATIN, GIOVANI BATAN                                 0501
A0101408530000015156875PEREYRA, MARCEL JOSEPH CAO                               0501
A0101411790518055815153TIONGSON, ENRICHAMEL YANGA                               0501
A0101412050000012912384LU, YAN                                                  0501
A0101412050000013784131CHEN, MEI                                                0501
B0101403450521029235001*******                                                  1605
A0101403450521238538002**********                                               0502
B0101403450521238590001**********                                               1601
A0101403450521389380001**********                                               0501
A0101403450521567563001********                                                 0503
A0101403610000006636991ATIBAGOS, JOY ADIGUE                                     0501
A0101403610000013643875OMBINA, CEDRIC DBU GOLDNINJAS                           10502
A0101403610000013643875MARKETING AND SERVICES JT                               20500
A2201400250000000141200NOEL M. ESPINOSA DBU N.M                                10501
A2201400250000000141200ESPINOSA CONSTRUCTION                                   20500
A0101410690000002290724TE, WILLIE ANGBUE                                        0502
A0101404130601520766001MANEJA, ELIZA T.                                         0501
A0101407720000004664751YUTUC, FE ANN JUNTILLA                                   0501
B0101407720000007951844SNOW WHITE WELLNESS & BEAUTY SPA INC.                    1601
A0101407720000006028473TUAZON, RAPHAEL GINOGINO                                 0502
A0101407720602291724004SEVILLA, JAIME OBIETA                                    0501
A0101407720602382406001SAMANIEGO, RENE MENDOZA                                  0502
A0101407720602547907001DR. CORINA MAE G. TIU-DY                                 0503
A0101404260611478374115FE S. BONDOC                                             0502
A0101409890649723947002**********                                               0501
B0101409920650044950001EINSTEIN SCHOOL FOR KIDS, INC.                           1601
A0101407690652525001051ANNABELLE BADAYOS - DEALERS OF                          10501
A0101407690652525001051SHOECAT INC.                                            20500
A0101407690652640372001DE VEYRA, JOHN EYMARD C. OR                             10501
A0101407690652640372001CANLAS, OSLER LUIS D.                                   20500
A0101413440000006680915LAGUESMA, FLORYVEE JOLBITADO                             0502
A0101413440000014550364ISLER, RYAN LIPAR                                        0501
B0101413440000002691632BREW NATION PHILIPPINES CORPORATION                      1610
A0101413990000015158484TURQUEZA, DOMINIC RANIER T.                              0501
B0101414120000004603398WEBLEND INC.                                             1601
B0101414120000004603310D800 HOLDINGS, INC.                                      1601
A1301400210000011696452BAUTISTA, MIGUEL ALBERTO TENGCO                          0501
A1301400210000009982541****                                                     0502
B1301400210682038636001FBIC INDUSTRIAL ESTATE ASSOCIATION                       1602
B1301400210000005041007***                                                      1602
A1301400340000006402422DE GUZMAN, DENNIS CHING DBU ALL                         10502
A1301400340000006402422ACCESS ENTERPRIS                                        20500
A1301400340000000100374PRADO, ERLINDA SORIENTE                                  0501
B1301400500000005963539IZULINE TRUCK PARTS TRADING                              1602
B0101408240000014995643GENERATION ONE RESOURCE SERVICE AND                     11601
B0101408240000014995643MULTIPURPOSE COO                                        21600
A0101408240711312576001DE OCAMPO, MA. JOSEFINA OR                              10502
A0101408240711312576001DE OCAMPO III, PACIFICO                                 20500
B4101400390000008744914MACALALAD, HIDELISA DBU MACFREI EXPRESS                 11603
B4101400390000008744914BROKERAGE SERVIC                                        21600
A4101400390813478374003ELANE A. AUXTERO                                         0501
A4101400420814757410001SAPANGHILA, GEMMA ILANO                                  0501
B0101405070000006006013ATALIN, ESTERLITA G. AND TANQUINTIC,                    11605
B0101405070000006006013JOY ANN B. JT                                           21600
A0101405070000011795789ACERET, CHARISMA LLEPS GALAPON                           0502
B0101405070861008149004TABAQUERIA DE FILIPINAS INC.                             1606
A0101405070000003439661TALLA, AARON JOSHUA ORTIZ DBU                           10502
A0101405070000003439661AERO ENTERPRISES                                        20500
A0101413860000010298952AL-HAZAR, DIANA GOLING                                   0501
A0601400230000007402224**********                                               0502
A0601400230000000452782GOZUN, R-JAY RAMOS                                      10515
A0601400230000000452782OR GOZUN, MYRNA                                         20500
