B0101400150061821100608**********                                               2010
B0101415350000011253426BAROT, JULIO TORNO AND BRAVO, BRENDA                    11601
B0101415350000011253426FRIAS                                                   21600
B0101410720210046169001ASSAM TEA CORPORATION                                    1605
A0101410720000001602302I. P. W. TRADING                                         0502
A6601400120000011286270GACUSAN, RAUL CORRAL DBU 8.3                            10502
A6601400120000011286270COMPUTER TECHNOL                                        20500
B0101400860000000030371**********                                               1603
A0101400860011420919001**********                                               0505
A0101400860011685244001BANDIOLA, SIDNEY MORALES                                 0501
A0101400150000011714884FRAGANTE, SOCORRO PROTACIO                               0501
B0101400150000000633436HUBB STORES AND SERVICES, INC.                           1603
B0101400150061023257001ISLAND PHOTO CENTER, INC.                                1601
A0101400150061227440001ERIC L. MONTANDON                                        0502
A0101400600000008914990TAN, PHOEBE SY OR                                       10504
A0101400600000008914990TAN, LANCE KEVIN SY                                     20500
B0101400600071516450001TAN, EDNA ANDRES                                         1601
B0101405810072235427001**********                                               1601
A0601400100000010025115SUPAN, JENNIFER DE LEON                                  0501
A0601400100000017701747SAN JUAN, WARWIE .                                       0501
A0601400100081035921001MOTHER'S CAKE HOUSE AND RESTO,                           0505
A0601400100081395539004DELA CRUZ, TERESA SUGANOB                                0501
A0601400100081639196001DIMALANTA, ANALYN TEGIO                                  0502
A0601400520000002271085LIM, REYNOLD CO                                          0501
A0601400520000007553382BUCO, DONALD DELA PENA DBU ADS                           0502
A0101413280092062132001REIKEN AUTOMOTIVE SUPPLY                                 0501
A0101414090000014876301LAVINA, JEROME NARAGA                                    0501
A0101401960121362714002VILMA GUANLAO OR                                        10505
A0101401960121362714002VIENNA MARIE GUA                                        20500
A0101413150000016613622JOHN ONG OR NELLY ONG OR                                10501
A0101413150000016613622ROSARIO ONG                                             20500
A0101412630000016300280MALAPIT, DIANA MARIE REGIO                               0501
A0101413310000008415332DIMARUCUT, ANGELYN BONDOC                                0501
A0101413310000004626802MATEO, MARIZA MARTIN DBU MMMDC                          10502
A0101413310000004626802GRAPHICS & PRINTING SERVI                               20500
B0101401830141004746001RIVERA, RAMIL DBU VITRO TINT SERVICES OR                11601
B0101401830141004746001DUCUSIN, CHERINA                                        21600
B0101401830141008845002PANDACAN TRANSPORT SERVICE & MULTI-                     11603
B0101401830141008845002PURPOSE COOP.                                           21600
B0101401830141744717001DUCUSIN, CHE DBU STUDIO 21 CD PRODN AND                 11601
B0101401830141744717001CABRAL, CARMINA                                         21600
B0101401830141744717002DUCUSIN, CHE DBU STUDIO 21 CD PRODN AND                 11601
B0101401830141744717002CABRAL, CARMINA                                         21600
A0101400440000016275811MANUEL, EMMA MELCHOR                                     0501
A0101407270000011651693SIMEON, WILMA JOYCE BRADY                                0502
A0101407270162331904006**********                                               0501
A0101401090000017706737ACUNA, MA. VICTORIA CRUZ                                 0501
A0301400530000017697795ESTABILLO, ERIK WILLIAM ESTRADA                          0501
A0301400660000006862840PIATOS, ERIC ARELLANO OR                                10503
A0301400660000006862840PIATOS, ANNABELL                                        20500
B0301400660000006755020**********                                               1602
A0301400790000015958339ESCUADRO, DENNIS S DBU NCKK ENT                         10501
A0301400790000015958339OR ESCUADRO, REVENCY C                                  20500
A0301400950000014676210PRICE, SAMUEL LORICO                                     0501
A0101410720000013857479ADZSCON CONSTRUCTION SERVICES                            0502
A0101410720000013857468ADZSCON TRADING                                          0502
A0101410720653380605002DR. ANNE MARIE REALISTA PE                              10502
A0101410720653380605002AGUIRRE-ENECO                                           20500
A0101410720653402452001JONE P. LIU CHIANG OR                                   10501
A0101410720653402452001LEO VILLAVERT                                           20500
A0101413600000014854727JASON A. GO                                              0502
A3101400160000015974900ARANSAZO, CAMILLE NIDO                                   0502
A3001400130000000931208BENDIJO, AMELITO MONDEJA OR                             10501
A3001400130000000931208BENDIJO, ERLEN A                                        20500
A3001400130230718343001MORDENO, GEMMA BANDA                                     0501
A1001400480000006270362LUNA, ESTRELLA GENTICA                                   0501
A1001400480000014024301ACEBU, RIENNA DAWN DE LA CRUZ                            0501
A1001400480000017656487CUSI, VICENTE BLANCO                                     0501
A1001400480000017599712GUANZON, ARTURO CO UNTIAN                                0501
B1001400480000004097154SABAL HOSPITAL, INC.                                     1610
A1301400470252527415001MA. CRISTINA SALAZAR OR                                 10502
A1301400470252527415001MARIA PRISCILA GUTIERREZ                                20500
A1901400290000011794582ARGONZA, MARIELLE JOY TAMAYO                             0501
A0101401670271192170001GERARDO R. MENDOZA                                       0510
A0101401670271217175002TERESITA OLIVEROS OR                                    10503
A0101401670271217175002GREGORIO OLIVERO                                        20500
A0101401670271289633003LIM, ROSARIO C.                                          0501
A0101406460272232218001MARIANO, NORMITA T.                                      0501
B0101406620000011433166VALENS RESEARCH ASIA, INC.                               1602
B0101406620273017284001ACCENT MICRO TECHNOLOGIES, INC.                          1605
A0101406620273236978001CALLEJA, HOWARD MACEDA                                   0503
A0101410980000012981216UY, TERENCE TAN                                          0502
B0101410980000000171975********                                                 1602
B0101411820000010701207GREEN OLIVES LENDING CORP.                               1602
B0101411820000010701241ITECH COMPUTER SYSTEM CO.                                1601
A0101412470000002136049**********                                               0504
B0101400570281007593001KINGSFORD ENVIRONMENTAL PHILS INC.                       1603
A0101400570281020605001FIRST BORN SNACK CORNER                                  0502
B0101400570000003451512MEDICAL ACTION GROUP, INC.                               1602
B0101400570000005666402AUDIO AUTOMATION AUTHORITY INC.                          1602
A0101400570281605214001EDUARDO OR ERNESTINA DEL                                10501
A0101400570281605214001ROSARIO OR MA. K                                        20500
B0501400200292036584001SSS EXPRESS CREDIT, INC.                                 1610
A1101400120000003981237ORTEGA, RICKY GALVEZ DBU RCP                            10501
A1101400120000003981237ENTERPRISES                                             20500
B1101400120313570675001TIU, SAMUEL PO                                           1610
A6601400120314619452001SAJOYAN, GIGI SIERVO                                     0505
B6601400120314665528001**********                                               1601
A6601400120000016158691SAN PABLO, MELBA DAYMON                                  0501
B2001400290315041265001DUMAGUETE GOLDEN RULE STORE                              1602
A2901400130000009071676SAZON, CEDRIC MARAVILLA                                  0505
B0101402350321045454001DIMENSIONAL SERVICE CORPORATION                          1603
A0101402350321406149003********                                                 0503
B0101405650322033249001PEAK PROPERTIES INC.                                     1605
B0101405650000006273178GIGALAND PROPERTIES AND DEVELOPMENT                      1601
A0101402510000011325185PINLAC, MARIA CONCEPCION ORTEGA                          0501
A0101402510000011748715GONZALES, MARY ANN SAENZ                                 0501
A0201400760000015753138SUSARNO, ANGELO GEM YAP                                  0502
A0201400890000012951321WONG, RAPHAEL ABELLANA DBU CHEF                          0501
A0201400890376640179001GO, FLORITA BEE HUA KIOK                                 0501
A0101408790000000579357MA. RINA S. VILLARIZA                                    0502
A0101408790000017336911TEE, KENNETH BIEN DATA                                   0501
A0101408790000017538246DIZON, THERESE MONICA TEE                                0501
B0101408790000006025827WINROCK INTERNATIONAL INSTITUTE FOR                     11602
B0101408790000006025827AGRICULTURAL DEV                                        21600
A0101415350000006731280MALVAR, NANETTE CHAVES                                   0502
A0101402770000015748993DE LA CRUZ, CARMELA MANALO                               0501
A0101402770391481697001BONDOC, LUTHER REYES                                     0501
A0101408400394431373001MABANAG, BERNARDO N. OR                                 10501
A0101408400394431373001MABANAG, MERLYN                                         20500
A0101408950396581982001MARIA ADELAIDA M. IBOLEON-DY                             0502
A0101409180000003882439KENNETH PATRICK C. UY                                    0502
A0101409180000005023705CHERYL MARIE NIEGOS TY                                   0501
B0301400820000015840254UY, JERRY M. DBU KORONA TRADING                          1601
B0301400820000005196669BANSALAN MEDICAL CLINIC &                               11605
B0301400820000005196669HOSPITAL, INC.                                          21600
A2401400180000017703561RAGUDOS, STEPHANIE PINK                                  0501
A1201400150000016104322MONTERO, KEVIN IPO                                       0502
B1201400150000005357906COST OF MONEY LENDING CORPORATION                        1605
B5101400100000010834432MOUNTAIN VIEW COLLEGE EMPLOYEES CRE                      1603
A0101412890000011812985RHEGEL RAAGAS SERAFIN                                    0501
B0101406330000009413758SHUJIMO TRADING INC                                      1602
A0101406330472477539001MA. VICTORIA G. DIEZ                                     0502
A1401400110000008266079SALUMBIDES III, VICENTE ELEAZAR                          0501
A1601400170000015678467ESTADOLA, KARL IVAN ESPENO                               0501
A0101407430000015018356EMPLOYEES OF PANALPINA WORLD TR                          0501
B0101403580000000214673MEC - SHANATA                                            1602
A0101408530000000594207CASAS, MA LOURDES GOJAR                                  0501
A0101403450521679548001**********                                               0502
A0101403610000017699240PASION JR., NICOLAS VERMAN                               0501
B2201400250000014378000*****                                                    1601
A2201400250000007122749RICARDO Y. DIMARUCOT DBU R.Y.                           10504
A2201400250000007122749DIMARUCOT ENTERPRISES                                   20500
B2201400250561258273001*****                                                    1604
A0101404130000015207280TOMAS SONEJA ANTONIO                                     0501
B0101407720000000885645A.F. NAVARRETE CONSULTANTS & ASSOCIATES                  1601
A0101407720602396823001DR. RAQUEL M. ALVAREZ                                    0505
A0101404260611040956001POWER ZONE ELECTRICAL SERVICES                           0501
A0101407690652393522001PADILLA JR., NICANOR BALANE                              0501
A0101413570000004353924MATEO, RIZA FAJUTAG                                      0501
A0101414120000006005367NAJOS, ELVIRA ABAO                                       0501
B1301400340000006402502********                                                 1602
A1301400340000012156182PERILLO, ANALES DALUS                                    0502
A1701400230000009625458DOMINGO, ANDREA NATALIA DAMASO                           0501
A1701400230693712781002BLAS, SAMUEL SIMEON JT                                   0504
A2801400100712394915001SMITH, DONALD LEWIS                                      0501
B4101400420814246112001RODRIGO M. LIBIRAN, JR. OR MA. CARMINA                  11601
B4101400420814246112001G. LIBIRAN                                              21600
B4101400550000006044184E.J.I. PHILCON INC.                                      1602
A0101404840000009616122NACIONAL, ARNEL NABABLIT                                 0501
A0101404840000003069981ATIENZA, SHIRLEY                                         0501
A0101404840851481664021MONNA PANGHULAN                                          0503
A0101406750000015823966CORPUZ, HANNAH LEE MERZA                                 0501
B0101406750852474662001SECURITY MARKETING & PEST MANAGEMENT                    11603
B0101406750852474662001INC.                                                    21600
A0101405070000006006086OLIMPIA CALUGAY CHAN                                     0504
A0101413860000014390542BERBA, CARLO MIGUEL OR                                  10501
A0101413860000014390542SINGSON, HIYAS                                          20500
B0601400230000006045289R3NM GEN. SERVICES & TRADING CORPORATION                 1605
