A0101410720000000008671ARANAS, PAUL ANTHONY VALENTON                            0501
A1001400190000000016468NERI, JENNY RACAZA                                       0501
A0101410720000000029843PILONGO JR., DOMINADOR ALFONSO                           0501
A0601400230000000029901PANGILINAN, RALPH JORGE BUNDALI                          0501
A0301400530000000065854PAMAONG, TERESITA                                        0502
A0101410720000000095130DAGOC, KATHARINE ERLINDA ORENSE                          0502
A5001400170000000214002REQUINA, ORWINO ATAY                                     0504
A4101400550000000315142JMBR TRADING                                             0501
A0101407720000000510745MORONDOZ, ANA LIZA DIMACALI                              0502
A2601400270000000561471MERRY NIKKI CHARMAINE T. OLIVER                          0501
A0101413020000000880520CHONG, SIOK SOAN SY                                      0502
A0101403580000000922769ONG, JOCELYN DEL ROSARIO                                 0501
A4101400390000000975271GERNALE, MARICON DBU BHIM'S EAT                          0502
A0301400530000001009983ALFORO, CRISTOPHER S.                                    0502
A0301400530000001010022PALMERO, ELMAR C.                                        0501
A1001400190000001057614ENDERES, EMMANUEL                                        0501
A0601400520000001120374SALAS, CYNTHIA MARIN                                     0501
A0101411660000001145755JOY A DAFFON                                             0501
A0101408530000001268504JONN DAVID S. BALTAZAR                                   0501
A0101407560000001276119JUMIG, BASILIO ARMAMENTO                                 0502
A4101400390000001732736CLAVERIA III, DON VIVENCIO G                             0501
A0101411950000001771057EMELITA R. VERTUDAZO                                     0501
A4101400260000001783800NGO, MARY PAZ NAVA                                       0501
A1201400150000001863185NORTHERN LUZON MOVERS & BUILDER                          0505
A0101400860011233237001ANGELA JULIAN                                            0501
A0101400860011389648001**********                                               0502
A0101400860011391313002**********                                               0502
A0101400860011416442001**********                                               0505
A0101400860011429714003**********                                               0502
A0101400860011478374008LEONORA MACARANAS                                        0501
A0101400860011483349001**********                                               0505
A0101400860011596645001**********                                               0503
A0101400150061180130001IBRAHIM, FAYSAL                                          0501
A0101400150061226634001ALICIA S. SIO                                            0501
A0101400730111520766008ALOMA M MADUROG                                          0503
A0101401960121285558001**********                                               0501
A0101401090171197706002LINA M. PAGUILA                                          0502
A0301400530193686503001CORPUZ, GLENN A.                                         0501
A3001400130230767566002JUMAPAO, MARILYN CASTRO                                  0501
A1301400470252478374030JERICA P. MATAMMU                                        0503
A0101401670271194255001MARIA MARTHA LOPEZ ANGELES                               0501
A0101406620273075498001MONTIEL, CYNTHIA RITA TIQUE                              0501
A0101406620273306796038BENJAMIN REYES CUMPAS JR.                                0501
A0101406620273458914001**********                                               0503
A0101406620273471170001PANGILINAN, WILHELM JOSEPH C.                            0501
A0101400570281075141001JOANNA T. ADALIM                                         0501
A2601400270302591563001ROSITA R. CHE                                            0501
A0101405650322172164002AQUINO, CHRISTIAN CASTRO                                 0502
A0101408820333335130001ANTONIA S. GORRE                                         0502
A0101408820333640135001******                                                   0502
A0101402510341536180001ELMA O. ABENGOZA                                         0501
A0101402640361044022001JIMBES PRINTING                                          0501
A0101402640361402608001CHI, JOHN CHAN                                           0501
A0101402640361478374067GILDA A. ALCANO                                          0501
A0101408370382207153001MA. TERESITA Z. CABREIRA                                 0501
A0101408790383705873012BETHANY JANISE T. ONG                                    0501
A2401400180411041996001BRIGADAROCK GARDEN RESORT                                0510
A2401400180411389026001VILLANUEVA, REGINA DELFIN                                0505
A1201400150421295171001BORROMEO, CAROL QUILING                                  0501
A1201400150421459509001TEE, CHITO LAYUGAN                                       0503
A0901400220432478374001LEONARD GO LOZADA                                        0501
A0101403580511036648001R2C TRADING                                              0501
A0101403580511156579009RICARDO G. MANABAT                                       0502
A0101403580511592154001ERLINDA L. BUCUD                                         0501
A0101406880513047322001ACTIVE PROPERTY HOLDINGS CORP.                           0502
A0101407720602382305001PARDINAN, ROSSANA O.                                     0501
A0101404260611151009001FERMINA G. TANGCALAGAN                                   0501
A0101404260611337876002CHING, ROSA MATIAS                                       0503
A0101404420631158414003*****                                                    0501
A0101404420631386485008HERMINIA E. BINIBINI                                     0501
A0101404420631589347001*****                                                    0502
A0101410720653378318001NAJOS, ELVIRA ABAO                                       0501
A0101410720653461660001NOCHE, MARIA CORAZON ALARCON                             0501
A0101406590662035265001******                                                   0502
A0101407560686615696002GUTIERREZ JR., VENERANDO GALPO                           0505
A0101408240711550521001SABADO, RUSSELITO PALLAYA                                0501
A4101400260812478374061ELVIRA C. AME                                            0501
A4101400390813536157001DIONEDA, MARIE CECILE DOOC                               0502
A4101400420814572942001ABLAZA, REINA DE GUZMAN                                  0501
A0101404840851046725021HELEN GELIZON                                            0501
A0101404840851478374062VIOLITA V. GIDUCOS                                       0503
A0101406750852384612003JOSEPH MONZON                                            0501
A0601400230891520098001DE LEON, ANTONIO GONZALEZ                                0501
A0601400230891524119001ANNEBELLE S. AQUINO                                      0503
A0101410720000000053238RONALDO C. MANUEL OR                                    10501
A0101413020000000056999SOMBILLO, A DBU THE K-CAMP                              10502
A0601400230000000452806ESGUERRA, ANTHONY QUIAMBAO OR                           10501
A0101406590000000568861CASTILLO, RODEL ROSALES DBU                             10501
A0101413570000000635596MEMBERS OF NATASHA                                      10501
A0701400260000000670768DE LOS SANTOS JR., LEOPOLDO                             10501
A0101411660000000751137FREDERICK JOEL LIM OR                                   10501
A0101401700041355153001BERNARD T. JAO OR                                       10502
A0301400530193037521168NEN ELECTRICAL &                                        10505
A0301400530193753759001TAYONG, EDILBERTO L. OR                                 10502
A1001400190231380503001JANA JOY TUSALEM                                        10502
A1301400470252495255001IMELDA IRENE V. ULIP OR                                 10501
A0101406620273400631001DINDO P. SANCHEZ OR                                     10502
A0101405650322178295001ALLAN YABUT OR                                          10501
A0101402640361580365001LIWANAG, CECILIO ARCEDO OR                              10503
A0101408370382399401001DR. EMILY ROSE C. BELEN OR                              10501
A5501400120410645073001GARCIA, LILIBETH L. OR GARCIA                           10503
A2401400180411478374061JUNRES AGAD OR                                          10501
A0101403320471419204001ROY MAXIMO OR JOEY MAXIMO OR                            10501
A1401400110492220879001ANGLO, ROMEO F. OR                                      10502
A0101403580511390958001CECILE SALANDA OR                                       10502
A0101410720653479613001PABLITO OR FE OR RONALD JOHN OR                         10502
A0101410300663091328001VALENOVA, MARIA CRISTINA T. OR                          10502
A0101408240711400412001MICHAEL MIRCHANDANI OR                                  10501
A0101404840851710251001MALAIKA, ABDULAZIZ OR GONZALES,                         10502
A0101410720000000053238IRENE A. MANUEL                                         20500
A0101413020000000056999TUTORIAL & REVIEW                                       20500
A0601400230000000452806ESGUERRA, CORAZON SIBUG                                 20500
A0101406590000000568861R-19 CONSTRUCTION                                       20500
A0101413570000000635596DOROTEA R. JACINTO                                      20500
A0701400260000000670768PEORO                                                   20500
A0101411660000000751137IMELDA ONG                                              20500
A0101401700041355153001SHEILA A. JAO                                           20500
A0301400530193037521168CONSTRUCTION SUP                                        20500
A0301400530193753759001TAYONG, RITA M.                                         20500
A1001400190231380503001PHILAMCARE DOCTO                                        20500
A1301400470252495255001JUANITO I. ULIP                                         20500
A0101406620273400631001EMILY H. SANCHEZ                                        20500
A0101405650322178295001SOCORRO YABUT                                           20500
A0101402640361580365001LIWANAG, EDNA DE                                        20500
A0101408370382399401001DR. POCHOLO P. BELEN                                    20500
A5501400120410645073001JOHN M.                                                 20500
A2401400180411478374061NORMELITA BLANCO                                        20500
A0101403320471419204001JOHNNY MAXIMO                                           20500
A1401400110492220879001ANGLO, CECILIA N                                        20500
A0101403580511390958001RICARDO V. SALANDA JR                                   20500
A0101410720653479613001PRINCESS JOY FLORES                                     20500
A0101410300663091328001VALENOVA, NOEL S.                                       20500
A0101408240711400412001SHAM MIRCHANDANI                                        20500
A0101404840851710251001KARIMA                                                  20500
B0301400530000000025276ROYAL CROWNE TRUCKING                                    1602
B0101400570000000031756WHITEHORN MOTORS, INC.                                   1602
B0101401250000000057247MP MAGDALENA PAWNSHOP CORPORATION                        1610
B0301400530000000066088********                                                 1602
B2401400180000000073670BRIGADA HEALTHLINE CORP.                                 1620
B1701400230000000097972DURAN, ROBERT CHING                                      1602
B0101404260000000156972PRIME POWER MANPOWER SERVICES                            1650
B0101411820000000477470KLT FRUITS, INC.                                         1602
B0101400570000000749515MATTERHORN MOTOR INC.                                    1602
B0101405650000000772721PREMIERE COMMUNITY PARTNERS, INC.                        1610
B0601400100000000786745SPEEDEXPRESS LOGISTICS INC.                              1605
B0101410300000000919591INTERPLY TRADING                                         1601
B010140358000000092291893 AMORSOLO, INC.                                        1602
B0101413440000001085741ALUMINUM RESOURCE AND INSTALLATION                       1603
B1301400500000002063861*************                                            1603
B0601400230000002649916SINGLE CENTAVO FINANCING CORPORATIO                      1605
B0101401700041007416001**********                                               1603
B0101400150061011066002FOOD SOURCE, INC.                                        1605
B0101401960121339004001**********                                               1601
B0101401960121608874001******                                                   1602
B0301400530193035726188TAGUM PIONEER FOODS CORP. - DT                           1605
B0101401670271345868001REGINA H. CASTILLO                                       1602
B1101400120313040867001PRO 8 CREDIT COOPERATIVE                                 1602
B2001400290315049532001UMEE DEVELOPMENT CORPORATION                             1601
B0101405650322038688001LANDCO/ALC                                               1605
B0101405650322038688002LANDCO/ALC                                               1605
B0101405490392006563001CAPTIVE PRINTING CORPORATION                             1605
B0101405490392039342001COMBINED ELECTRO-MECHANICAL SUPPLY, INC.                 1610
B5501400120410040096002RDJ CORPORATION - POLOMOLOK BRANCH                       1605
B2401400180411040003002BRIGADA MASS MEDIA CORPORATION                           1610
B0101403320471041866001ITP PROPERTIES CORPORATION                               1610
B0501400170481015879001TDG VEHICLE SALES DEPARTMENT                             1610
B0501400170481018109002****                                                     1603
B0101403580511005143001INTERPACIFIC TRANSIT, INC.                               1610
B0101403580511015363076MEC - TMR 2                                              1603
B0101403580511515198001ATMA INTERNATIONAL CORPORATION                           1601
B0101403450521011670001**********                                               1602
B0101410300663044385001STAR E GAS TRADING                                       1602
B0101410300663044402001******                                                   1602
B0101407560686391503001ZHIGANG FAN                                              1601
B0101408240711036897001EVER THEATRICAL, INC.                                    1601
B4101400550815042993001BAGTEC DRUGSTORE & GENERAL MERCHANDISE                   1601
B0101400440000000029343RICHBEEGOLD TRADING&GENERALMERCHANDISING                11602
B0101404000000000461083DIZON, CHRISTOPHER & GARCIA, GENEVIEVE                  11603
B0101401670000000739180INT'L SOLID WASTE INTEGRATED MANAGEMENT                 11605
B0101406040112040017001KNIGHTS OF COLUMBUS OF THE PHILIPPINES                  11601
B3101400160221019509001DYNASTY ALUMINUM, GLASS &                               11601
B0101400570281022330001S.M. CASTRO MANAGEMENT & CONSTRUCTION                   11602
B2001400290315049533001UYMATIAO REALTY & DEVELOPMENT                           11601
B0101400440000000029343INC.                                                    21600
B0101404000000000461083& DIZON, RAQUEL                                         21600
B0101401670000000739180SPECIALIST, INC.                                        21600
B0101406040112040017001FOUNDATION INC.                                         21600
B3101400160221019509001GEN. MDSG CORP.                                         21600
B0101400570281022330001SERVICES                                                21600
B2001400290315049533001CORPORATION                                             21600
