A0101405810000011832869SEE, ELENA SY or                                        10501
A0101405810000011832869LUA, JONATHAN SY                                        20500
A7201400170000003773120ASUGAS, GRACE MARIE NARCISO                              0503
A7201400170000006487610SALDIVAR, SUCENA ANG                                     0501
A0101408790383671821001ELLEN BALING MENDOZA                                     0502
A0101408400000003120805INOVERO, RON ARIZ PENA                                   0502
A0101410690000003027647PATRIMONIO, HIDELINA RACELIS                             0501
B0101410690000001284333TANG, WEI OR LI, HUAIJUN                                 1602
B4101400260000006043829GNM MAHNLEN TRADING INC.                                 1602
B0101400860011409046003**********                                               1601
A0101400860011413316001**********                                               0506
A0101400150000009400442HASHIDA, TAKESHI                                         0502
B0101400150061032076002NEXTRANS INCORPORATED                                    1605
A0101400150061292057001GIDEON G. SISON                                          0503
A0101400150061311743050RAYMUND PUYAT                                            0502
A0101400150061337099182RUBY L. YU                                               0501
A0101400600000001335579********                                                 0502
A0101400600071637368001********                                                 0505
B0101405810072011448001C.P.P.C CONSUMER PACKAGING PRODUCT CORP.                 1603
A0601400520000011898056DELA CRUZ, ANGELICA COSTILLAS                            0501
A0101413730000000144625*******************                                      0501
B01014140900000003994462 TORRE LORENZO CONDOMINIUM CORP.                        1605
B0101400730000008477870B&R FINEST AND FAMOUS FOODS CORPORATION                  1605
B0101400730000010255493B&R FINEST AND FAMOUS FOODS CORPORATION                  1605
A0101412920000011166533CHAIYARA, GLORIA MAE MAGASO                              0501
A0101407270162333154002MANUEL U. AGUSTINES                                      0505
A0101401090000011896652MALACA, ELMER BALAJADIA                                  0501
B0301400660000006755195LOPZCOM BUILDERS CORPORATION                             1603
B0101412500000009179079IHOPE DIGITAL INCORPORATED                               1603
B3101400160221032661001KAOKA TRANSPORT SERVICE                                  1605
A3101400450000011907561AVANZADO, GRACIA GUERRA                                  0501
A3101400870225217498015LITO R. LACAMBACAL                                       0501
A3001400130000008264802AREZO, JOVIE L.                                          0501
A1001400190231370298001CALIMPONG, LILIFE TONGOL &                              10502
A1001400190231370298001DUMANDAN, RICARD                                        20500
A1001400190000000016457ANTIGA, LUNITA                                           0501
A1001400350000011297653ECHEVERIA, LORELAN CAMANCE                               0501
B1001400480000000133520INSTITUTE OF INTEGRATED ELECTRICAL                      11601
B1001400480000000133520ENGINEERS-NMRC                                          21600
B1301400470000003270113OBRIGADO LENDING INVESTOR, INC.                          1601
A1901400290261488341181MARIA SOCORRO KATIGBAK ATIENZA                           0502
B0101401670000004588503PRINCE ROCKWELL MONEY CHANGER                           11603
B0101401670000004588503CORPORATION                                             21600
A0101401670271188489001CARMEN C. LIM                                            0501
A0101401670271396172001MANGAHAS, FERDINAND MILLADO                              0502
A0101401670271747508001MABUTAS, MA. CECILIA RODRIGUEZ                           0501
B0101406460272007487001FOODMACH, INC.                                           1603
A0101410980000004101522JIMENEZ, DAVID HERNANDO DBU                             10501
A0101410980000004101522GOLDEN SUGAR POT HAIR REM                               20500
B0101411820000003085130ALPHA STRENGTH PIONEER INC.                              1601
A0101400570281419686001ANTONIO C. VALERA III                                    0501
B0101411240000000012073ADVANTAGE-VEGA BUSINESS SERVICES INC.                    1601
B0501400200000006444799CRJ 620 QUICK LOANS CORP.                                1605
A6601400120000006154689UY, FLORIANE D OR UY, CHRISTIAN                         10501
A6601400120000006154689EMMANUEL W                                              20500
A6601400120000006154827UY, FLORIANE DY                                          0501
A2001400290000001301368FAELNAR, TRINIDAD EULLARAN                               0501
B2001400290315041276001NEW BIAN YEK COMMERCIAL, INC.                            1601
A0101402060351009385001JORGE ALOMBRO JR. OR                                    10505
A0101402060351009385001NELIA ALOMBRO                                           20500
A0101402060351386715003REGINA OR ADELE MARIE CRUZ OR                           10501
A0101402060351386715003CONCEPCION VESAG                                        20500
A0101402060351687812001SOLER, MA. ASUNCION RAMIREZ                             10501
A0101402060351687812001ARELLANO                                                20500
A0101409050000003534990ABELL LANUZA DOMINGO                                     0501
B0101409050000010506811SKY EASTERNWOOD INC.                                     1601
B0101409050000010506811SKY EASTERNWOOD INC.                                     1601
B0201400760374272956001YU, DESSUM LIM OR YU, EMMA LAU                           1601
B0201400920000000007963THE PERSIMMON CONDOMINIUM CORPORATION                    1602
B0101408370000010555212GLADYS T.CHUA, RICHARD A. MORENO AND                    11601
B0101408370000010555212RACQUEL DE LEON                                         21600
A0101408370000010833188BERNARDINO, RICCA MAE ROCO                               0501
A0101408790000010422350AGUIRRE, MARIA LOURDES G.                                0501
B0101408790383015892001CAPITOL STEEL CORPORATION                                1605
B0101402770391009425001JELSON'S ENTERPRISE CORP.                                1603
A0101405490000004808679PLAZA, MARY GRACE V. DBU CRYSTA                          0502
A0101408400394471974002PESICO, GINA GERALDINO                                   0501
A0101408400394478374024DIONISIO, CRISTITA P.                                    0501
A0101408950000001039412DRILON, CECILIA VICTORIA ORENA                           0502
A0101409210000009966825EVANGELISTA JR., CARLITO ACAR                            0501
A0101412210000008654440TREYES, LEAH LAZARO                                      0502
A5501400120410283898001GARCIA, JOSIE OR                                        10501
A5501400120410283898001GARCIA, GERARDO                                         20500
A5501400120410698584008TRISTEZA, WILSON OR CORAZON                              0501
B2401400180411014550001GSC PROGRESSIVE MULTI-PURPOSE COOP.                      1604
B2401400180411040788088KCC PROPERTY HOLDINGS, INC.                              1605
B1201400150421020444001INFORMATICS BAGUIO CITY CENTER INC.                      1605
A1201400150421254262001RENATO ROMERO &/OR                                      10501
A1201400150421254262001MA. GRACIA G. ROMERO                                    20500
A0901400220432478374001LEONARD GO LOZADA                                        0501
A0901400220432731076001JAMANDRE, EMBE ARAGON                                    0501
A0101403030000000008933**********                                               0502
B01014030304415932230014*********                                               1601
A0101410140475045282001JBL RENTALS                                              0503
A0501400170000001072786PALAGANAS JR., DIONICIO MANINGD                          0502
A3801400170490052246002ALBUERA, DANTE DBU D.A. ALBUERA                          0501
A1901400160491562857001JVICTOR MARKETING CORPORATION                            0508
B0101403580511029847002BAGONG BARRIO HYPERMART & PROPERTIES                    11603
B0101403580511029847002CORPORATION                                             21600
A0101403580511322954003VIRATA, LEONIDES J M CUUNJIENG                           0505
A0101403580511403658009SHARON DAYOAN                                            0506
A0101408530516615903040ROWENA MARIE MANALO                                      0503
A0101411790518055764027ANTONIO, RENATO SALVADOR                                 0501
A0101412050000002314552********                                                 0502
A2201400250561478374010ZENAIDA L. REYES                                        10501
A2201400250561478374010MEMBERS OF NATASHA                                      20500
A0101407720602241314001**********                                               0502
B0101404260611016324002KALAYAAN TALIPAPA CORPORATION                            1603
A0101404260611478374029EVELYN M. DELFIN                                         0501
A0101411530000008555011**********                                               0501
A0101413440000000702156PASOS JR., ARSENIO WANIA                                 0501
B0101413570000000206453DIAMONDS STARS PACKAGING RESOURCES                      11602
B0101413570000000206453CO., INC.                                               21600
B0101406590662659846001THE KIMBERLEY PLACE INC.                                 1602
A0101406590662689059001ESQUIVEL, ARTHUR OR JOSEFINA                            10501
A0101406590662689059001OR MONICA                                               20500
A1301400340683478374047DOMIGPE, MAPET SIMBORIO                                  0502
A1301400500000011254338VILLACORTA, MARK ANTHONY M. OR                          10502
A1301400500000011254338VILLACORTA, MARIO B.                                    20500
A1301400500000003070139SUGAR DADDY MARKETING                                    0502
A1701400230000001786661CASTILLO, MYRA CELESTE JULIAN                            0502
A4101400390000001404266SOLAS, SAMARITAN CATARATA                                0502
A4101400390000001732441RICAFRENTE, MARILYN DBU                                 10502
A4101400390000001732441RICAFRENTE SMOKE                                        20500
A4101400390000000048491MARCOSO, NENA MINGO                                      0501
A4101400420000004848051ROSALES, NOEMI A                                         0501
A4101400550000000981900UMENGAN JR., FELICISIMO BATOON                           0502
B0101404840851043500001KINGSTON TOWER DEVELOPMENT & MANAGEMENT                 11601
B0101404840851043500001CORPORATION                                             21600
A0101404840851520766178ROWENA C. PUNZALAN                                       0501
