A0101400570000011504031FERDINAND R. BUNAG                                       0501
A0101400570281388539042RODELIO L. BATHAN                                        0502
A0101400570281509995001RELUCIO, IMELDA DYAUCO                                   0502
B0201401020377821100608**********                                               2005
B0101400600071496801002******                                                   1601
A2001400290315081010001TAN, JAMES ERWIN VILLABERT                               0501
A5501400120000005492220ROCKWELL, SHARON SILVA                                   0501
A5501400120000005492253CIRINEO, LILA MARIE LITERAL                              0506
A5501400120000011599372INOCENCIO, ELLAIN MARGARET MORE                          0501
A5501400120000002019158SUPERIO, MERLYN G. DBU DIAMOND                          10504
A5501400120000002019158MEMORIAL CARE SA                                        20500
A0101400860000001348669**********                                               0502
A0101400860000001348670**********                                               0502
A0101400860000009496393*************                                            0501
A0101400860011389648001*********                                                0502
A0101401250021184135001MITRA, LAARNI RIVERA OR                                 10503
A0101401250021184135001MITRA, JOHN ERIK RIVERA                                 20500
A0101400150000006759853LUBIS, KAREN ATENTO                                      0501
A0101400150000006551113FURTO, KRISTINE ANN DOMINGO                              0501
A0101400150000009401490TAN MALANTIC, JEANNE SY                                  0501
B0101400150061043190001NORTHERN STAR ENERGY & FUEL DISTRIBUTION                11605
B0101400150061043190001CORPORATION                                             21600
A0101400150061226989001EDUARDO E. CAEG OR                                      10501
A0101400150061226989001BESSIE C. CAEG                                          20500
A0101400150061294042001YVONNE JOANNA P. MARCELO                                 0501
A0101400150061492443002ANDILAB, MA ANAHAW ABARELES                              0501
A0101400600000002335695TAN-AFUAN, KIMBERLY ANNE CHING                           0501
A0101405810000000016559CHUA, HEMAN LAO                                          0502
A0101405810000014023273SY, RONALD LIM                                           0501
B0601400100081013319001ANGELES CITY UNIVERSAL MARKETING                        11604
B0601400100081013319001CORPORATION                                             21600
A0601400100000007250702CANCIO, JIAMEI LIAMCO DBU ONE P                          0502
B0601400100081296256001CHRISTOPHER OR LOYA MALLARI FAO CHRISSAN                11604
B0601400100081296256001AUTO SUPPLY                                             21600
A0101414090000006211256FLORES, NORA LAZARO                                      0501
A0101410850000013601779BANDAO, EDWIN TACYAD DBU JAMES                          10503
A0101410850000013601779BAND LINER                                              20500
A0101401830141404408001CONRAD T. BALBIN                                         0502
B7201400170000003772907LUIS, ANTONIO ONG OR LUIS, EMMA REDUCTO                  1601
A7201400170000009673163YBANEZ, PRINCESS DAWN LAGERA                             0501
A5001400170000000213841GAMALINDA, ELENA TUBAON                                  0502
A0101412920000005354332CAMBA, PERRY PARADO                                      0502
B0101407270000012664789PRIMO FORTEM CONSTRUIR CORP.                             1601
A0101407270162004768002BARBIN, EMMANUEL DOMINIQUE FERN                          0501
B0101407270162037015002THERAYASCHOOL INC.                                       1601
A0101407270162678350010FROILAN Q. TEJADA                                        0501
B0101401090171008005001FOUNDATION FOR THE TRAINING OF SURGEONS                 11601
B0101401090171008005001AND RESEARCH                                            21600
A0101401090171027703001INSTANT DRUGSTORE AND GENERAL                           10502
A0101401090171027703001MERCHANDISE                                             20500
A0101401090171195997002ALICIA M. AGUINALDO                                      0501
A0101401090171280976001MA. CLAUDETTE A. AGNES OR                               10501
A0101401090171280976001JONATHAN AGNES                                          20500
A0101401090171510164001MARIA CECILIA D. LOBO                                    0501
B0301400660000012086623DVO ALUMINA INDUSTRIES, INC.                             1601
A0301400660000006755111**********                                               0501
A0301400790000005691990EMBALSADO JR., ALBERTO GEMPESAW                          0502
A0301400790000005692220CABARUBBIAS, ROCHE T. DBU                               10502
A0301400790000005692220RECHEL'S MOTOR PARTS                                    20500
A0301400950000013129210CHRISTOUS LLANES PALMA GIL                               0502
A0101412500000005300503LINTINGCO JR., JESUS TERRAZOLA                           0501
A3101400160221767573001VICTORIA M DEL ROSARIO                                   0501
A3101400870000014639353QUIAZON, EUGENE ULYSES PANGILIN                          0501
A3101400870000014653951FONTE, ERICSON S. DBU DELIFONTE                         10501
A3101400870000014653951ENTERPRISE                                              20500
A3001400130000005446306CUARIO, RIOSER DIAMULA                                   0503
A1001400190231276493001MERCADAL, ERNIE FLORESCA                                 0503
A1001400190231478374083CHIONG, MARIVIC P.                                       0501
B1001400350233032957001PCCI FINANCE CORPORATION                                 1601
A1001400480000003357691ANG, ANDY MAN CHUNG CHANG                                0503
B1001400480000004097154SABAL HOSPITAL, INC.                                     1610
B0101401670271007087001BELSON SECURITIES, INC.                                  1610
B0101401670000004588445THE ASTRA GROUP, INC.                                    1605
A0101401670271654112001LOPIDO, JENNY ANNE BALUYOT                               0502
B0101406620000000194041ZIOSOFT INC.                                             1601
A0101406620000003661487OLARTE, MARICEL STA ANA                                  0501
A0101406620000010799018CZARINA LAPUZ                                            0501
A0101406620273547486001BACANI, SENEN CARLOS                                     0502
B0101406620273733659001ULTRAGAS CARRIERS CORP.                                  1602
A0101408660000002264939************                                             0501
B0101410980000006014682SINGAZILIAN UNLIMITED SKILLS CORPOR                      1602
A0101411110000005356710DELA PENA, MARILYN M. OR                                10503
A0101411110000005356710DELA PENA, EMMANUEL M.                                  20500
A0101411110276057553001REYES, A DBU ARTREY EXPRESS                             10502
A0101411110276057553001CARGO SERVICES                                          20500
A0101400570000011663119GATMAITAN, DONITA ROSE BUCE AND                         10502
A0101400570000011663119SENA, ARVIN PENI                                        20500
A2601400270000012492490RENEO B. TOMINES DBU RENUS GRAI                         10501
A2601400270000012492490NS CENTER OR CHRISTINE D                                20500
A0801400160000006893196JUANTONG, ALFONSO SOCHANTOO                              0501
B0801400160311268198001JOHNEL REALTY DEVELOPMENT CORP.                          1601
A6601400120000005710663GELERA, ELSA M. OR TEODORO O.                            0501
B2001400290315081901001SILLIMAN UNIVERSITY                                      1650
A3401400280000011150671BELVIS, RONNIE RAYNALDO                                  0501
A0101402350000000145673MA EDITHA E. ABANTE                                      0501
A0101402350000005644602GARCHITORENA, LOURRAINE RUTH M.                          0501
A0101405650322093557001CUEVAS, MA. DONATA NADINE OR                            10502
A0101405650322093557001CUEVAS, RAFAEL                                          20500
A0101405650000000525739RUFA MACABENTA                                           0502
A0101405650000002325515FERNANDO MARTIN TAN                                      0502
A0101402510341202209003********                                                 0501
A0101402510341420133001BONGCAWIL, GHADA ZACARIAS                                0502
A0201400920000012765061IGOT, MARCELO ANTHONY OR                                10502
A0201400920000012765061IGOT, JUDYLYN                                           20500
A0201400920000005168834VILLARIN, FELICIANA FERNANDEZ                            0501
B0201400890376013530052RD PAWNSHOP, INCORPORATED                                1601
B0201400890000007877250EASTERN PACIFIC SHIPPING CORPORATION                     1602
A0201401020000000055952DANO, JOSIE DANAS                                        0502
B0101402930381008829002AXEIA DEVELOPMENT CORP.                                  1615
A0101415350000005085029MAGLENTE, ARLEEN ALBURO                                  0501
A0101402770391436048001GONZALES, ROMEO RAMOS                                    0501
A0101408400000005286320AMEROL, ROSLINA MAROHOMSALIC                             0504
A0101408400394029618001LOTTEX, INC.                                             0501
A0101408400394162577001REYES, ELSA UNGSOD                                       0502
A0101408950396563503001DR. SUE- ANN RIVERA LOCNEN                               0502
A0101409180000004796701MIMILANIE B. CASTANEDA                                   0501
A0101409210000007762710GAVILE, KATHERINE HIPOL                                  0502
A0301400820000001185780RUFEROS, ROY KENNETH OR                                 10501
A0301400820000001185780AREVALO, MICHELLE KAY                                   20500
B0301400820000004746101FAMACION, RAMSEY DBU JARED SUITES OR                    11601
B0301400820000004746101FAMACION, BEULAH                                        21600
A2401400180000014594080UY, SHEILA MAY RAMISO                                    0501
B2401400180411035164001MOMMY GINA TUNA RESOURCES (MGTR), INC.                   1605
A2401400180000012748562JUVINREY TRADERS                                         0501
A2401400180411432546001LIM, ROBERT LIM OR LIM, GINA                            10510
A2401400180411432546001NAZARENO                                                20500
A2401400180411455559001VENDIX GEN. MERCHANDISE                                  0501
A0901400220000000425045LOZADA, ELIZABETH GO                                     0501
A0101403320000001646766EROSA TRADING                                            0502
A0101403320000006026940**********                                               0501
A0101406330000014144986ALVAREZ, BRENDA MAALIHAN                                 0502
B0101406330472034895001PRIME MKTG. AND DIST., INC.                              1603
B0101406330000000432853CEDAR PAYROLL AND BENEFITS MANAGEMENT                   11602
B0101406330000000432853SERVICES CO.                                            21600
A0501400170000013464650ROSARIO, MARGIE DE GUZMAN                                0502
A0501400170481025944001A-1 JANITORIAL SERVICES                                  0502
A0501400170481318580004ANA CRISTINA L SINLAO                                    0503
A3801400170490055006001CARYL OR MICHAEL MONTALES DBU                           10501
A3801400170490055006001MONTALES LEARNING CENTER                                20500
A1901400160000014624427DE JESUS, CYNTHIA RAMOS                                  0501
A1901400160000000243570ROMAN CATHOLIC ARCHBISHOP OF                            10501
A1901400160000000243570LIPA (RCAL)                                             20500
A1901400160491069161002GERON, FRANCO GONZALES                                   0501
A1901400160491247764001MARITES E RAMIREZ                                        0501
B1601400170000009954614LMT COFFEE FRANCHISE CORPORATION                         1610
A0101403580511327187012MARIA LEAH TOPACIO                                       0502
A0101405940000007540992ALBA, JEFFRY ROCERO                                      0501
A0101412050000012373621MARCOS, REUEL OLIVEROS                                   0501
A0101403450000013846501**********                                               0530
A0101403610000007124901LU, JONATHAN GO                                          0505
B0101403610531044399001AURORA QUINTO ESPINO TRUCKING                            1605
A0101403610000001174954HERNAEZ, JOEL A.                                         0502
A0101403610531762081001MIRANDA, SUSAN ESPINILI                                  0501
B2201400250561428755001*****                                                    1602
B0101407720602005874001DOOR OF HOPE COUNSELING                                 11602
B0101407720602005874001RESOURCE CENTER                                         21600
A0101407720602295336001AGUIRRE, ANGELITA MIGUEL                                 0501
B0101404260000000156972PRIME POWER MANPOWER SERVICES                            1650
B0101404260000000156972PRIME POWER MANPOWER SERVICES                            1650
B0101404260611037364001MMF METAL FABRICATION                                    1605
A0101407690652481536002MA KATHRYN ROSE H. MIGUEL  OR                           10506
A0101407690652481536002ROSALINA S.J. IS                                        20500
A0101407690652556332001PENERO, ROGEL BELTRAN                                    0501
A0101407690652609264003DE JESUS, AUGUSTO OR MILA                                0501
A0101413570000001682679ARNOLD HAIRDRESSING SYSTEM CO.                           0507
A0101413990000004511157ROMERO, GINALIN JOY CAPARAS                              0501
A0101413990000013171129HERRERO, IRENE DELA CRUZ                                 0501
A1301400210000009982621VILLENA, RENIESON HADUCA                                 0502
A0101408240711400412005MIRCHANDANI, MICHAEL OR SHERYL                          10501
A0101408240711400412005OR SHAM OR LALA                                         20500
A0101408240711457402001ARCADIO IVAN A. SANTOS III                               0510
A0101408240711490981001MILLS, AMPARO OR VICENTE JR.                             0501
B2801400100000011180639NMC22 EARTHMOVING AND CONSTRUCTION                       1602
B2801400100000003400562FIRSTBASE ADVERTISING INC.                               1601
B2801400100000007629287SELLSIA INTERNATIONAL INC.                               1603
B2801400100000007629287SELLSIA INTERNATIONAL INC.                               1603
B2801400100000007629287SELLSIA INTERNATIONAL INC.                               1603
B2801400100000007896084SELLSIA INTERNATIONAL INC.                               1603
A2801400100712525700001AMADOR JR., RODOLFO BALTAZAR                             0501
A2801400100712582575001LLANTADA, JOANNA LEE BACALA                              0501
A4101400260000012886661VENERACION, MAURICE JOHN                                 0501
B4101400260000006043421FOUR STEPS CORPORATION                                   1605
B4101400420000009392003SWINELAND INC                                            1602
A4101400420814475511001CELESTINO, FLOR OR EDWARD OR                            10501
A4101400420814475511001AIMEE                                                   20500
A4101400420000000120798MILO, ROMELDA F.                                         0501
A4101400420814588219001RODRIGUEZ, GERMAN SANCHEZ                                0502
B4101400550000006044093ABU-EMP UNLIMITED CREDIT RESOURCES INC.                  1605
A4101400550815066244001MERCADO, ELEANOR B.                                     10502
A4101400550815066244001DBU EDJOY ENTERPRISE                                    20500
A0101412340000004359917GLENN R. GREGORIO                                        0501
A0101406750000003393213SORRA, DELIA SOSITO                                      0501
A0101406750852620298001EMILY COLINA OR DOMINGO                                 10501
A0101406750852620298001COLINA JR                                               20500
A0101405070861197522001NOLIE HANS OR BENJAMIN M. LIM                            0504
A0101413860000012248674GONZALES, ANA LIZA                                       0502
B0101413860000000145275CON-PAC WAREHOUSING INCORPORATED                         1605
