A1101400120000001547337ALDIANO, FLORDELUNA LATO                                 0502
A1101400120000006186809SALCEDA, ETHEL ORBITA                                    0501
A1101400120000006186478BOLECHE, MERLINE BANDALA                                 0503
A0101403610000015386533BRIONES, REMIA PROVIDO                                   0501
A1101400120000003981055NAPUTO, CHARLITA C.                                      0501
A3001400130000010506559DEVARAS, JOHN DATAHAN DBU DJAR                          10505
A3001400130000010506559TRADES                                                  20500
A1001400350233644458001LAZO, MICHELLE ATINEN                                    0502
A1901400290000000135220MARGGIE LUMBERA SALES                                    0501
A1101400120000001920587GLORIA, JACINTA DADULA                                   0502
A1101400120000015203113LLEDO, ARIEL REX MACALALAG DBU                          10504
A1101400120000015203113ARL COMMERCIAL                                          20500
B0101405490000002841916SENTIR  INTERNATIONAL TRADING COMPANY                    1601
A5501400120000009875803FERNANDEZ, JACQUILINE GETANO                             0502
A0101403610000015418654PERALTA, DARDO GARCERON DBU DGP                         10501
A0101403610000015418654FIVE NEW BUILDERS                                       20500
A4101400390000007459201JACQUELINE BIANCA RABE MONZON                           10501
A4101400390000007459201OR ABREGALE JOSEPH MONZON                               20500
A4101400390000015425233KATRINA C. FLORES                                        0501
A0101401250000012949910SIOSON, CATHERINE REGANIT                                0501
B0101400150061000619199SB FINANCE COMPANY, INC                                  1610
A0101400150061508836001ERIC LIM LEE OR CHRISTINE LEE                            0502
A0101400150061694968001CHEN, TAI MEI                                            0501
A0101400600000001335706********                                                 0501
A0101400600071426579001**************                                           0501
B0601400100081025784001QUANTA PAPER CORPORATION                                 1602
A0601400520000002086017CLARETE,REGIN BUNGQUE OR                                10505
A0601400520000002086017CLARETE,ESTRELITA BUNGQUE                               20500
A0601400520000005001476CANLAS, LOURDES NAVA                                     0501
A0101413730000003715837************************                                 0501
A0101410850000003503562**********                                               0502
B0101410560000000268319DAGUIO, MELARITA OR JAVIER, LIGAYA OR                   11602
B0101410560000000268319BANGALAN, CHONA                                         21600
A0101400730000005317179ROPA, AILLEN VELASCO OR                                 10505
A0101400730000005317179JARDIOLIN, MAJAR BELLO                                  20500
A0101400730111653023001AMBROSIO, B.A. BRENT CAPUCHINO                           0501
A0101401960121238763003**********                                               0501
A0101401960121238763004**********                                               0501
A0101412630000004062002CENAR, LOIDA DBU LMH MEDICAL                            10510
A0101412630000004062002SUPPLY DISTRIBUTOR                                      20500
B0101401830141039167012CARITAS SALVE CREDIT COOPERATIVE                         1602
A7201400170000015428301MAATA, MERLINDA PANSIB                                   0501
A0101412920000014085997CELO, CLOTILDE CARAG                                     0501
A0101400440161520766084GODELINA C. AQUINO                                       0501
A0101401090000015456552FAJARDO, MARIA KRISTINA RAZON                            0501
A0101401090171391935001JULIE CHRISTIE G. VISPERAS                               0501
A0101401090171659819001LAO, LEVINE ANDRO HERNANDEZ                              0501
A0301400530000008307613VIADO, LEZIL DAGOHOY DBU H2 MED                          0502
A0301400530193455730088BANO, LILIAN CORPUZ                                      0502
A0301400660000006862840PIATOS, ERIC ARELLANO OR                                10502
A0301400660000006862840PIATOS, ANNABELL                                        20500
A0301400660000006863012EA PIATOS CONSTRUCTION AND                              10501
A0301400660000006863012SUPPLY                                                  20500
B0301400950000002115202GUEVARRA, GEMMA D. OR                                   11601
B0301400950000002115202GUEVARRA, ARTURO                                        21600
A0301400950000008869054MCG ENTERPRISE                                           0505
A0101401380000013916708DESTURA, KRESTA ANN KRIA P. OR                          10501
A0101401380000013916708BOHOL, FRANCIS KIM D.                                   20500
B0101412500000015437040E. RIVERSIDE INDUSTRIES INC.                             1601
A0101412500214484520001COBENGKAY JR., FERNANDO LEE                             10501
A0101412500214484520001OR CO, ANICIA                                           20500
B0101413600000000206915LEGEND OF ICE RECRUITMENT                               11605
B0101413600000000206915& SERVICES INC.                                         21600
A3101400160000005459867MEDALLADA, ROWER SAN PABLO                               0501
B3101400160000010010730KABALIKAT PARA SA MAUNLAD NA BUHAY INC.                  1610
A3101400450000002092979SAMONTE, MAXIMA ELEANOR BIENVEN                          0502
A3101400450223221366002*****                                                    0502
A3101400740000001692457MALABANAN, MILANNIE OR                                  10504
A3101400740000001692457MALABANAN, ROHNELL                                      20500
B3101400870000005960701TOMO GOLD TRUCKING SERVICES, INC.                        1603
B3001400130000008264955TRUMPH MOTORCYCLE CORPORATION                            1601
B3001400130230687462001MORALES, NICOLAS PUYO                                    1601
B1001400190231017478002CHURCH IN CAGAYAN DE ORO, INCORPORATED                   1604
B1001400350233611366002**********                                               1601
B1301400470000013689871EDGARDO'S CAFE                                           1601
A1301400760000000050693MARLON P. MALLARI OR LEONCIA                            10501
A1301400760000000050693S. MALLARI                                              20500
A1301400760253487995001EDNA C. SANTIAGO AND                                    10502
A1301400760253487995001JOSE A. MIGUEL JR                                       20500
B0101406460272012461001INFORMATICS HOLDINGS PHILS INC                           1605
B0101406460000000712769BARON 3 GARDENS CONDOMINIUM CORPORATION                  1605
A0101406620000001686871JOHN MICHAEL M. RAZ                                      0501
A0101406620273214161001FLORES, RUTH OR RICARDO JR., OR                         10501
A0101406620273214161001RICARDO OR RACHEL OR ERIK                               20500
A0101408660000002264860**********                                               0501
A0101410980000004101522JIMENEZ, DAVID HERNANDO DBU                             10501
A0101410980000004101522GOLDEN SUGAR POT                                        20500
A0101411240283363452001ONG, JOSEPHINE SY                                        0501
B0801400160311014079001C C C FINANCE CORPORATION                                1601
B1101400120313045854002LEYTE II ELECTRIC COOPERATIVE, INC.                      1602
A1101400120000000652351YAO, RONALD PHILIP GO                                    0502
A6601400120000001065310GETALADO, NORIEL LUCERO                                  0501
A3401400280000000156621LOIDA C. GARCIA                                          0503
B2901400130000015060909PARAMOUNT ANG CORPORATION                                1601
A0101402350000012300211SWIFT, LILIFER ORTIGUESA                                 0501
A0101402350321478374050JESUSA G. CAYLAN                                         0501
B0101405650322023520001ACES CHASSIS LEASING INC.                                1602
A0101402510000015169874SANTIAGO, EMMELYN BONIFACIO                              0501
A0101402510341068366001MAKI SUSHI FACTORY INC.                                  0503
B0101402060000000653890NEW EXCELSIOR GENERAL MERCHANDISING                      1601
A0101409050352614642001**********                                               0502
A0101408790000005169115JUAN R. SUMPAYCO MOVERS                                  0505
A0101402770391404096001PANLILIO, MYLENE BAGON                                   0503
A0101402770391404096002PANLILIO, MYLENE BAGON                                   0502
A0101405490000006299876BENDANA, STEFANIE ANN MATIONG                            0501
A0101405490000014913910CONTI, RENIE MAGADIA DBU                                10502
A0101405490000014913910RC-WOLTRJEA MARKETING                                   20500
A0101408400394517830001LORENZO, JOEL M. OR                                     10502
A0101408400394517830001LORENZO, JOYCE T                                        20500
B0101409180000012558173EPA, RODERICK ANOCHE DBU RAESON'S CONSTR                11602
B0101409180000012558173UCTION                                                  21600
A0101409210000000043763ENDOZO, ANICIA Q. OR                                    10501
A0101409210000000043763ENDOZO, MELECIO                                         20500
A0101409210000007762830YAO, KAREN MELANIE LIM                                   0501
B0101409210398042284001D FORT EXPRESS LOANS & CREDIT, INC.                      1603
B5501400120000000046853LAUNDRYWORLD LAUNDRY SYSTEM CORP.                        1603
B5501400120000005492457VALEENVISTA GLOBAL ESTATES CORPORAT                      1601
A5501400120410688656001PAEZ, RYAN ELEGINO                                       0501
A2401400180000001677012EBITA, ALFREDO OPAO                                      0501
A2401400180411478374040CHERRY S. VICTORIANO                                     0502
A1201400150000007556212URQUIZA, JEAN MELLEZA DBU E.CO                           0501
A5101400100000010371256BASA, RALPH MANUEL VALLAR DBU M                          0503
B0101403030441327386001**********                                               1605
A0101403030000001302178**********                                               0501
A0101403320000000067554SANTOS ESTRELLA, AILLEEN VILLAR                          0501
A0101403320000015467577SIBUG, SANTY RAMOS                                       0501
A0101406330472027958001A. ANOLIN ENTERPRISES                                    0502
B0101406330000012246901PASIG DOCTORS MEDICAL CENTER INC.                        1610
A0101406330000000162490TARP INK ENTERPRISES                                     0502
B0101406330472453846001STR BUCKERS CONSTRUCTION & MGT., INC.                    1601
A0101406330472766049001VERONIDIA G. DELA CRUZ                                   0501
A0501400170000013464672DEE, LILIAN ABLOG                                        0501
B0501400170000013295940ALEJANDRINO, JAYVEE SOKUA DBU HANDY                      1601
A3801400170000000154152RUTH JEANE O SASANA                                      0501
A0701400260000013603771IMPERIAL, A DAISY DIZON                                  0501
B0101407430503023639001LAMBERT WILLIAMS LOGISTICS, INC.                         1610
B0101405940000001800300STAR MOTORS MANUFACTURING INDUSTRIES                    11602
B0101405940000001800300INC.                                                    21600
A0101405940512360728001ERWIN P. HERNANDEZ OR                                   10501
A0101405940512360728001AGNES T. HERNANDEZ                                      20500
B0101411790000000005330ZIMI TECH, INC.                                          1602
B0101403450521012032001**********                                               1602
A0101403450521240346001**********                                               0502
B2201400250000012982993*****                                                    1602
A0101404130601451592002LINDA A. IBUNA OR MARY ANN I.                           10506
A0101404130601451592002PASTRANA                                                20500
B0101407720000006945282GREEN LIFT ELECTRO SYSTEMS &                            11602
B0101407720000006945282SERVICES, INC.                                          21600
A0101407720602163482001RAYNATO R. KASILAG                                       0504
A0101407720602338230001JULIET A. YAP                                            0501
A0101407720602664929001VITAL, ARIES ZOILON                                      0502
A0101412180000002296820NGO, WILLIE ALBON                                        0501
B0101412180000000333617STA. ANA IMPORT-EXPORT, INC.                             1605
B0101409890000007373186WORLD PARTNERS FINANCE CORPORATION                       1601
A0101409920000007952341GUERRERO, BERNADETTE LIZABA                              0501
B0101409920000014359783JMD MOJICA FOOD CORPORATION                              1602
B0101413440000001085694M.S. QUEZON CITY TOURISM COUNCIL INC.                    1603
A0101413570000011434870CAROLINO, MARITES DBU MARC AND                          10501
A0101413570000011434870ANGEL TRADING AND HAULING                               20500
A1301400210000000023229FRANCISCO P CABOTEJA                                     0501
A1301400340000002283741CECILIA R. PRODON                                        0503
A1301400500000010127612DELA MERCED, LESTER VERGARA                              0501
A0101408240000013983316TUASON, RICHELE MARIE DELGADO                            0501
B0101408240711026678001SAMBEL PACIFIC CORPORATION                               1603
A0101408240711510985001DELA CRUZ, RODERICK CRUZ                                 0501
A4101400260000014688294MANDURIAGA, SUELLEN                                      0501
A4101400260000012865351DE LEON, MIKKO                                           0501
A4101400260000012885162TEZON, NORMAN                                            0501
A4101400260000012886405SUNGA, PAMELA JILL                                       0501
A4101400260000012865362MORENO, ROLANDO                                          0501
A4101400260000012865362MORENO, ROLANDO                                          0501
A4101400260000012866292PADUL, OPALYN MAE                                        0501
A4101400260000012866292PADUL, OPALYN MAE                                        0501
A4101400260000012867131PUJANES, LEONOR                                          0501
A4101400260812249154001RIZALDY J. ESTOCADO                                      0501
A4101400390000015467420JEANNE MARIE H. VALES                                    0501
B4101400390813791473001BARIAS, ANA LIZA ORDONEZ OR BARIAS, RICO                11601
B4101400390813791473001GARCIA                                                  21600
B4101400390813821100608**********                                               2010
B4101400420000009392003SWINELAND INC                                           11602
B4101400420000009392003FARM 2                                                  21600
A4101400420814478374122AGUILO, RODENA T.                                        0501
A4101400420814520766138SAN PEDRO, ANA LIZA                                      0502
A0101412340000007305724RODOLFO D. PAGLICAWAN JR.                                0501
B0101412340000002879965TODODIA VENTURES CORPORATION                             1601
B0101404840000006365251NEW GENERATION LINK CONTRACTING AND                     11602
B0101404840000006365251TRADING SERVICES                                        21600
B0101404840000006365171KAWASAKI EMPLOYEES MULTI-PURPOSE CO                      1605
A0101404840851478374062VIOLITA V. GIDUCOS                                       0501
A0101404840851520766082ROGELIO LAYOS                                            0501
A0101406750000004642262THELMA LOBO                                              0502
A0101406750000008644111MENDOZA, GLADYS M.                                       0501
A0101406750000014212050FRANCISCO, CYNTHIA ROQUE                                10501
A0101406750000014212050OR FRANCISCO, CORNELIO                                  20500
A0101406750852043541001GRAFIX VENUE ENTERPRISE                                  0501
A0101406750000010509081MILAN, MA. LIBERTAD PAEZ DBU JA                          0502
A0101406750852451505003ROY, ZENAIDA ABERIA                                      0501
A0101406750852478374117IDA MACARO                                               0501
B0101406750852491986001SPRINGPHIL TRADING & MFG. INC.                           1601
B0101406750852687321003NAVARRETE, JERRY M AND COLOMA,                          11610
B0101406750852687321003FRANCES ROSALIE                                         21600
B0101406750852740034001MORE-NING SUN PACKAGING CORP.                            1601
A0101406750852799786001RIGUERA, JOSE MAURICIO AGUSTIN                          10502
A0101406750852799786001DBU MRIGUERA PRO                                        20500
B0101405070861028770001SHEPHERD HOUSE PUBLISHERS, INC.                          1602
A0101405070861478374086MARLYN C. GABEST                                         0502
A0101413860000002314216PILON, MIRRIAM SAN VICTORES                              0501
