B3101400870225821100608**********                                               2002
B3101400450223821100608**********                                               2002
A0101411400000015206607ZULUETA, MA. THERESA POSADAS                             0501
A0101406590662487808001MARY CAESARYLE S. GENATO OR                             10501
A0101406590662487808001ADRIEL MEYNARD A. GENATO                                20500
A0101406590662728693001VARGAS, RAYMARK JOSEPH S. OR                            10501
A0101406590662728693001GENATO, MARY CAESARYLE                                  20500
A0101408660000008622093REGENCIA, MARICHU MAGHACOT                               0501
A0101404260611478374091ROSITA LLANES                                            0501
A0101407690000000495512MARIA BELEN FEDERIZON OR                                10502
A0101407690000000495512JOSE RENEIRIO FE                                        20500
B0101407690652042938001SIGNWOOD HARDWARE & LUMBER SUPPLY                        1603
A0101407690000000053881********                                                 0506
B0301400530000009035121RUVER CORPORATION DBU THE NAME AND                       1603
A0101405650000016904502TIU, RUTH SABINO                                         0501
A0101400150061387199001AGUILAR, LEAH MOLINYAWE                                  0501
A0301400530000005001647REYES, NENITA CATAYAS                                    0502
A0301400950000017166571DROP AND CLEAN LAUNDRYMATE                               0504
A0101412500000013718793DUAZO, ALYZA JESSALYN FRANCISCO                          0501
A1901400290000003435663ANNALIZA PANGANIBAN GAMEZ                                0502
A1901400290000012351881MARIA LOVELY PETRONILA M CACHO                           0505
B0101406590662659846001THE KIMBERLEY PLACE INC.                                 1602
A0101401250000016824385BALDAGO, MARIA NINA DIEZMOS                              0501
A0101401250021709223001ROLANDO F. ASTILLERO JR. OR                             10501
A0101401250021709223001GINA A. ASTILLERO                                       20500
A0101400150000002394863QUEJANO, RODANTES V. OR                                 10501
A0101400150000002394863QUEJANO, EDUNATILA F.                                   20500
A0101400150000003162267AGONCILLO, APRIL ROSE POLINTAN                           0502
A0101400150000016750642SAPALASAN, CARLOTA MAGBAG                                0501
B0101400150000006432555ESTATEWINE INC.                                          1602
A0101400150061315447001SUBIDO, M.D. JONAS CERTEZA                               0501
A0101405810072316984001HEMAN CHUA                                               0501
A0101405810072368655001***************                                          0501
A0601400100000010683902LASTRILLA, DARWIN AMOROSO                                0501
A0601400100000013256918AREVALO JR., ORESTES CARSON                              0502
A0101410850000015839942ORDONA, CLARISE RENDON                                   0501
A0101410560000009034833ANNELYN M QUIZA                                          0502
A0101410560000010317790TOV TRUCKING SERVICES                                    0503
A0101400730000005808944Victoria Escalera                                        0501
B0101400730000005593597NATASHA SALES & MARKETING CORP.                          1605
A0101401960121096152001***************                                          0502
A0101401960000010787518DOMINGO, REX ALBERT BALTAZAR                             0501
A0101401960121362714001VILMA GUANLAO OR                                        10506
A0101401960121362714001VALERIANO GUANLA                                        20500
A0101401960000006004422***************                                          0501
B0101401830000000033570CARITAS SALVE CREDIT COOPERATIVE                        11606
B0101401830000000033570(MALABON)002                                            21600
A0101401830141206536001PEDRO S. FLORES OR                                      10505
A0101401830141206536001IRMA G. FLORES                                          20500
A5001400170000000169744ONG, ALBINA UY OR                                       10501
A5001400170000000169744RATUNIL, MAUREEN ONG                                    20500
A5001400170000005705222SANCHEZ, JEROME B. OR SANCHEZ,                          10501
A5001400170000005705222LUNINGNING C.                                           20500
A0101412920000018224501SALAYO, RUSSELL RODOLFA DBU GU                           0501
A0101400440000008201323ROELA D. WATTANG                                         0501
A0101400440161781194001MARICHU R. DE CASTRO                                     0501
A0101407270000008409187PASCUAL, JEMAR COSTA                                     0502
A0301400530000001009943PANTUA, JERSON R.                                        0502
A0301400530000013780742MANGAHAS, AL MUYCO OR LOW,                              10505
A0301400530000013780742JOSEPH B                                                20500
A0301400660000013311421PAGUTE, MARIVEL JOY PINO-ON                              0501
A0101401380000010190659MUSNI, MICHAEL ANTONIO JANEIRO                           0502
A0101413020000014434163CANIVEL, ROBERTO LIWAG                                   0502
A0101412500000005300656RAYPON, GRASON KINNY CUBILLAS                            0501
A0101412500000012644252PEREZ, MARIA HOSANNA ALVARO                              0501
A3101400160221533268002BERNARDO, DOLORES BOMBAES AND                           10501
A3101400160221533268002PUA, RONALDO JARUMAYAN                                  20500
A3101400870000008979811FRIVALDO, ANNA JENINA BATAYON                            0501
A3101400870000018209491VILLAR, BERNARDO CERIOLA OR                             10501
A3101400870000018209491VILLAR, MA LIZABETTE M.                                 20500
A1001400190000008743911PO, JAMES CUA                                            0501
B1001400190231300482001ORO SOLID HARDWARE, INCORPORATED                         1605
A1001400190231520766020LUBIDO, CAROLINE JARALES                                 0501
A1001400350000000922150OH, EDMUND YU                                            0501
A1001400480000014024185HAMILTON, RUBY RUVINA                                    0501
A1001400480000014023524PAULO, LYCEL PALAMINE                                    0502
A1001400480000004097103TIU, LEMUEL YAP DBU LERETTE TRU                         10501
A1001400480000004097103SERVICES                                                20500
A1301400760000012980913DIVINO L. FELICIANO OR GEORGINA                         10501
A1301400760000012980913C. FELICIANO                                            20500
A1301400760000017221011JEFFERSON N. LOREZCO OR SHIRLEY                         10501
A1301400760000017221011D. LOREZCO                                              20500
A1301400760253087654001CATHERINE SANVICENTE OR                                 10505
A1301400760253087654001VINCENT PAUL SAN VICENTE                                20500
A1901400290000003252844PEDRO ELLAZAR RAMOS JR                                  10502
A1901400290000003252844OR LEAH GRACE LINAS RAMOS                               20500
A1901400290261478374021JOCELYN MAULEON MAPOLON                                  0506
A0101401670000011364560BERNARDO, JOSEPH VINCENT BALTAZ                          0504
A0101401670271228042001TINIO, JUAN ANGEL LIGON                                 10501
A0101401670271228042001OR TINIO, MARIA                                         20500
B0101406460272007487001FOODMACH, INC.                                           1603
A0101406460272314180001YU, RICHARD TAN                                          0503
A0101406620000010983210SALAZAR, SERLINO MARANAN                                 0501
A0101406620273214161001FLORES, RUTH OR RICARDO JR., OR                         10501
A0101406620273214161001RICARDO OR RACHEL FLORES                                20500
A0101408660000006296622ARANETA III, VICENTE MARTIN OR                          10501
A0101408660000006296622JOAN MARIE C. ARANETA                                   20500
A0101400570000016544348SALIO, FREDERICK BUCANOG                                 0502
A0101400570281189230002REX EDWARD OR CRISTINA SUPAPO                            0501
A0101411240000018225782ALMEROL, METHYL JOY MILABO                               0501
B0101411240283004314001VONK GLOBAL INC.                                         1602
A0501400200000016275899PADIOS, ODREE MERL MARIE                                10501
A0501400200000016275899MOSCARDON                                               20500
A0501400200292567569001LARILYN D. GATCHALLAN                                    0501
A0801400160000016201179AMARANTE, JOSELYN MAPRANGALA                             0501
A0801400160311413609001LIM, JOSEPH PO OR                                       10505
A0801400160311413609001LIM, MICHELANE P                                        20500
A2001400290000002783117MATILDO, RUBY ANN JANGCAN                                0502
A2001400290000015662441MEYER, FE OR MEYER, MARKUS                              10502
A2001400290000015662441OTHMAR                                                  20500
A0101402350000015000174VENZON, LEO CARLO CUSI                                   0501
A0101402350000014999765PASANDALAN, WE AMM LATIP                                 0501
A0101402350321366339001VIRGINIA TOLENTINO OR                                   10501
A0101402350321366339001TITO TOLENTINO                                          20500
A0101402510341487199001NESTOR B. ESTABILLO                                      0502
A0101402060351009359002JIANDANI, SURESH G. &/OR                                10501
A0101402060351009359002JIANDANI, KAVITA                                        20500
A0101409050000008087554TORRES, MIA FAE KOH                                      0502
A0201400920000015820825S3RA PRINTING PRESS                                      0503
A0201400890376763623001BELO, EDWARD JOHN DENNIS R. OR                          10503
A0201400890376763623001BELO, TERESITA L                                        20500
A0201401020000011434056MERCADER JR., JAIME YMBONG                               0502
B0201401020000000005249BOSTON HARDWARE INC.                                     1601
A0101408370000014727518SANTOS, LUCIA SUMAGPANG                                  0501
B0101408370382011532001**********                                               1605
A0101408790000012313209CRUZ, ANGELITA DE JESUS                                  0501
B0101408790000003845727CAPABILITY PHILIPPINES, INC.                             1601
A0101408790383633624001JIM STENIEL TAN GAWSON                                   0502
A0101402770000015748993DE LA CRUZ, CARMELA MANALO                               0501
A0101402770391547587001DIGMA, MA. JOSEFA STA. ANA                               0501
A0101402770391562327001ALARAS, ANNABELLE LUCAS JT                               0501
A0101405490000014677075FLORES, MARILYN PARPAN                                   0501
A0101408400000001855381ABSA BUILDERS                                            0502
A0101408400394160353001JARDIOLIN, JAMES HILADO                                  0504
A0101408400394468516002ORATE, MARIA ELISA VALDEVIESO                            0501
B0101408950396046715001********                                                 1605
B0101408950000010411262MAJ CORNERSTONE DEVELOPER CO. INC.                       1603
A0101408950396695350001ARANDIA, EDSEL FERNANDEZ                                 0501
A0101409180000010760033CAUTON,ANNA OR CAUTONIII,LUCAS                          10502
A0101409180000010760033OR MICLAT, ROSSELL                                      20500
B0101409180000009085127TASTE MATTERS, INC.                                      1610
A0101409210000013858530ABIA, JOANNA CANSON                                      0501
A5501400120000017065782PENDON, VENISE NICHOLE VILLOREN                          0505
A2401400180000017551787OPENA, REYNALDO ABUEME                                   0503
A2401400180411442136088***************                                          0501
A2401400180411478374040CHERRY S. VICTORIANO                                     0502
A1201400150000011266538DE LOS SANTOS, JENNYLYN GALLETE                          0502
A5101400100000015856850NEIS, BABY LLYN MENGUITO DBU AL                          0501
A0101403320471065525003KBV DATA PROCESSING AND                                 10501
A0101403320471065525003RESEARCH SERVICES                                       20500
A0101403320000001646879EIFFEL JARVIS H. DIAZ                                    0502
B0501400170481038907001JODERON AUTO SUPPLY                                      1605
A1901400320489781042002NUESTRO, MALOU RAMOS                                     0501
A3801400170000000154185EVANGELISTA, BABY DAISY DBU                             10502
A3801400170000000154185R.D.E. BEAUTY CE                                        20500
A3801400170490759443001ACOB, ELEANOR OR BROTONEL,                              10501
A3801400170490759443001ELVIRA OR CACHA, EVELYN                                 20500
A1901400160000013233471MAGADIA, EMETERIO                                       10501
A1901400160000013233471OR MAGADIA, MYRA                                        20500
B1901400160491012576001LIMACOR LENDING INVESTOR                                 1602
B1901400160000015840921LIM, VIRGINIA V. OR LIM, RICHARD D.                      1601
A1901400160491422212001OLIVER B BORILLO OR                                     10503
A1901400160491422212001MARIBEL C BORILL                                        20500
A1901400160000007981700ABRENICA, JOVILYN CARINGAL                               0501
A1401400110000008266393ROQUE, KAREN JAY RAMOS                                   0501
A0101403580511152926001MARIO T. MANANGHAYA OR                                  10503
A0101403580511152926001REMEDIOS C. MANANGHAYA                                  20500
A0101408530000018218783OLIVER, GINO DANIEL ROQUE                                0501
A0101412050000011855544CRUZ, AIREEN DE OCAMPO                                   0502
A0101412050000018080850VICENTE, EDGARDO CORTEZ                                  0502
B0101403450521011628001*********                                                1605
B0101403450521011643001NEW PMC CONSTRUCTION                                     1605
B0101403450521029025001CEDARSIDE INDUSTRIES, INC.                               1602
A0101403450521238185001********                                                 0502
A0101403610531762081001MIRANDA, SUSAN ESPINILI                                  0501
A0101407720602378666002FILOTEO CERENO FERRER                                    0502
A0101404260611335308002ALIMBOYONG, JOSEPHINE MAHINAY                            0503
A0101407690000008045921ANGELES, WILFRED JONAH SITCHON                           0501
B0101407690652017362001IGLESIA NI CRISTO                                        1620
B0101407690000003767868VESUVIUS MOTOR CORPORATION                               1602
B0101407690000007720103MONTE ROSA MOTORS, INC.                                  1602
A0101413440000002125531OLBES, EMILIA OR                                        10501
A0101413440000002125531OLBES, WILFREDO                                         20500
A0101413440000002125633DE CASTRO, MARGIE OR                                    10501
A0101413440000002125633PALILEO, EVANGELINE                                     20500
A0101414120000007655163ALFONZO, PATRICK MATIBAG                                 0501
A0101414120000016395303CASAREO, MA. CARMENCITA AQUINO                           0502
B0101414120000007655436WELLFUND LOANS AND CREDIT CORP.                          1602
B0101406590000006921651ACUNA, ROSARIO CAGUIOA DBU RAXTECH                       1601
A0101410300000016641753SANTILICES, MA. CHACHA SALONGA                           0501
A1301400340000014341801VALEROSO, EDITHA CARREON                                 0501
A1301400340683456739001LAZATIN JR., EDUARDO NIONES                              0502
A1301400340683496200001BERNARDINO, PRISCILA DIAZ                                0502
A0101408240000014503123URISANTOS, JARWIN SANCHEZ                                0501
A0101408240000014502853HERNAEZ, NASSER ASIS                                     0502
B0101408240000000832951HOMESMART PROPERTIES AND DEVELOPMEN                      1603
A0101408240711383150001AURELIO III OR AURELIO JR.                              10501
A0101408240711383150001OR AARON LITONJU                                        20500
B2801400230000018004416MOONBAY MARINA RESTAURANT & ENTERTA                      1601
A4101400260000005333671RARALIO, TED AGATEP                                      0501
A4101400260000017671695SHARMA, VISHAL                                           0501
A4101400260000012866714DELA CRUZ, SHARON TIO                                    0501
A4101400260000012867591DEL ROSARIO, MICHELLE CHUA                               0501
A4101400260000012886278SUPANGA JR., BARTOLOME T.                                0501
A4101400260812478374021CATHERINE C. RODA                                        0501
A4101400260812629092001ELLEN C. BUCAO                                           0502
A4101400260812636072001MARY JENNIFER F. MABINGNAY OR                           10501
A4101400260812636072001EDUARDO MABINGNA                                        20500
A4101400550000016371647HALOODA FOOD HOUSE AND CATERING                         10501
A4101400550000016371647SERVICES                                                20500
A4101400550815046007001DIGIBOX PRINTING SERVICES                                0501
A4101400550815066244001MERCADO, ELEANOR B.                                     10501
A4101400550815066244001DBU EDJOY ENTERP                                        20500
A4101400550815066244003MERCADO, E DBU EDJOY                                    10501
A4101400550815066244003ENTERPRISES                                             20500
A0101412340000004360649AIFRED SELWYN P. ROGACION                                0502
A0101412340000014512671MERCADO, CAREN ASUNCION CARINO                           0502
A0101412340000009501291BANIQUED, TERESITA BONDAD                                0502
A0101412340000010659857ELOIDA D. ABAYGAR                                        0502
A0101404840000012411140ARELLANO, EMILYN OWOG-OWOG                               0502
A0101404840851316655013NAPOLEON N. ESCALONA, JR.                                0501
A0101404840851478374171LORENA A. ARES                                           0501
A0101404840851520766073ELIZABETH A. SUAZO                                       0501
A0101405070000008250297FRANCISCO MADRIAGA RUZ JR.                               0501
A0101413860000005527788VELASCO, BERNADETTE GACIAS                               0501
