B0101404260611821100608**********                                               2002
A0501400170000004982232ESTRADA, RON NEIL RAINEER GARCI                          0502
A0101406750000006303384DIWATA, EMILY ROSE GUZMAN                                0501
B0501400170481062547002NATASHA SALES & MARKETING CORP.                          1601
A0101409890000000049089GEMSTAR CLEANING SUPPLIES                               10505
A0101409890000000049089INTERNATIONAL                                           20500
A0101400860011398777002**********                                               0506
A0101400860011422264001**********                                               0503
A0101400860000001348625**********                                               0501
A0101400860011569183001**********                                               0503
B0101401250021040371001ENHANCE CARGO MOVERS CORP.                               1606
A0101400150061487601001BAUTISTA, ANA SOSA                                       0503
B0101400600071536828001CLAXTER GENERAL MERCHANDISE INC.                         1625
B0601400100081023056001ADDERLEY DATA ENCODING SERVICES                          1601
A0101413280092056420001**********                                               0501
B0101410850000000005676LIKAS SHIP AGENCY INC.                                   1605
B0101410850000000005687METRO MANDAUE SERVICE CORP.                              1605
B0101410850000003503733DELTA FIVE AGRI-VENTURES CORPORATION                     1605
A0101400730111412858010LOLITA MANALO                                            0503
A0101400730111520766057PROCLEY C. CRISTOBAL                                     0502
A0101406040112092241001********                                                 0501
A0101401830141283129001YOLANDA M. LIM                                           0503
A0101401830141409771001ALRIC P. BOBO                                            0501
B0101400440161007221001ILA EXPRESS HAULER                                       1602
B0101400440161022597001PHILMAN POWER CENTER INC.                                1612
A0101400440161459294001MARY ANN T. REGINALDO                                    0502
A0101407270000007525320RODICA, JOHN MARTIN BINGIL                               0502
A0101407270000008152185CHIU, CATHERINE CO                                       0501
A0101401090000004983935ALUNAN, GRACE MARIE CAMMAYO                              0501
A0101401090000002358698REYES, ERLINDA BALATBAT                                  0505
A0101401090171196107001UST CENTRAL SEMINARY                                     0520
A0301400530000008156212NASOLE, LOIDA CABRERA OR NASOLE                         10501
A0301400530000008156212, RANEL COSTAN                                          20500
A0101401380201341799001CUA, ISAGANI LAURENTE                                    0503
A0101410720000000967900EFFINGER, JON ERIC                                       0503
A0101410720653478374001MILAGROS F. TAN                                          0502
A3101400450223058711001ESEO, GUIA DBU BUENA-VENTURES                           10501
A3101400450223058711001TRADING POST JT                                         20500
A3101400870000002007727LUMBRIS, ZAHRA DAYO                                      0501
A3001400130230687070138CERVANTES, SONIA BANAWA                                  0501
A1001400480000000133337TUDTUD, NELSON ATAMOSA                                   0501
A0101401670000000016111RAMOS, ANZEL RAMILLE MILLENAS                            0501
A0101401670271188447001PAVES, ANITA OR VELASCO,EDGARDO                         10502
A0101401670271188447001OR VELASCO, EMMANUEL                                    20500
A0101401670271654112001LOPIDO, JENNY ANNE BALUYOT                               0502
B0101406620000000194121UBER APPS INC.                                           1602
A0101400570281388539039ROSAURO E. MANUEL                                        0501
A0501400200292500200002BALLESTA, IMELDA QUIMO                                   0502
A0501400200292567569001LARILYN D. GATCHALLAN                                    0501
A0501400200292581563001TABIN, RUDY DE GUZMAN                                    0503
B0801400160311029906001************                                             1602
B0801400160311039833001JMB TRADERS INCORPORATED                                 1602
A0101402510341196455001ALAJAR, JOFFRE MURILLO                                   0501
A0101402510341196519002CABRERA, AMY PUERTOLLANO                                 0501
A0201400760000005156463WINDY YAP OR SOCRATES YAP                                0501
B0201400920000000047874TURBO TRANSPORT INC.                                     1602
B0101402930381029529001JAVAGROUP INDUSTRIAL COMPANY LTD.                        1601
B0101402930381033903001T.H.E. TRAVEL GURU INC.                                  1602
A0101402930381150057001PAUL TANCHI OR JENNY TANCHI                              0501
A0101408400394542845001PINEDA, DINDO DOMINGO                                    0502
A0101409210000000043763ENDOZO, ANICIA Q. OR                                    10501
A0101409210000000043763ENDOZO, MELECIO                                         20500
A0101409210000007762681HERRERA, MICHELLE STA ANA                                0502
A5501400120410719328001ILAO, YOLANDA CASTILLO                                   0501
A2401400180411344858001CHUA, MAGDALENA SALAZAR                                  0501
A2401400180411621739001JACOB, NOEL RULLON                                       0501
A0101403030441241050001**********                                               0503
A0101410140000001074931LEYSON, JEFFERSON D. OR LEYSON,                         10501
A0101410140000001074931MARRY SHYNE C.                                          20500
A0101410140000001074691MEMBERS OF NATASHA (SHOECAT INC                          0501
A0501400170000002357473QUINTO III, ALFREDO ARZADON                              0502
B1901400320000000041261SAN ISIDRO MULTI-PURPOSE COOPERATIVE                     1601
B1901400320000000041283SAN ISIDRO MULTI-PURPOSE COOPERATIVE                     1601
B1901400320489062995002CLEVERGOLD CREDIT CORPORATION                            1605
A1401400110000001096180GARCIA, ALICIA BASCO OR                                 10501
A1401400110000001096180GARCIA, REX ROSALES                                     20500
A1601400170000001069227NUNEZ, IRENE AJERO                                       0501
B1601400170000000497121LEGASPI HOPE CHRISTIAN SCHOOL, INC.                      1601
B0101407430503027092001MULTIPLE GARMENTS AND APPAREL, INC.                      1601
A0101407430503373233001MANUEL CHARLIE O. LAPUZ                                  0501
B0101405940512022289003MGNP, INC.                                               1606
A0101405940512393176001CARINA N. ARMARILLE                                      0502
B0101406880513021335002ACTIVE REALTY AND DEVELOPMENT CORP                       1610
B0101406880513036413001VISAYA KNOWLEDGE PROCESS OUTSOURCING                     1606
A0101411790000004807972MAGDALUYO, PATRICIA SUSANA RAMO                          0502
A0101411790000006543171TAN, AGNES ABAD                                          0502
A0101411790000000469461PANGILINAN, R DBU RLRM ENTERPRI                          0502
B0101403450521011872001**********                                               1601
B0101403450521036267001**********                                               1606
A0101403450521281581001**********                                               0501
A0101403450521406302002YU, CLIFFORD VELASCO                                     0501
A2201400250000001066017CAROLYN GO KE                                            0501
A2201400250561255010005EMMANUEL D. PASCUAL                                      0501
B0101404130601771934002LEE, RENATO MUNAR AND                                   11601
B0101404130601771934002YAN, EDWIN C.                                           21600
B0101412180000001293016JENNIEDEDIOS INC.                                        1603
A0101404260000005447025BELICENA, RICHARD OCHOA                                  0501
B0101404260611005448001GUADALUPE CATHOLIC SCHOOL                                1605
A0101404260611076717001CHRISTIAN DOMINIC H. ALARCON                             0501
A0101404260611478374099TERESITA DOLLOPAC                                        0501
A0101404260611559253001TAN, SABINA LASALA                                       0506
B0101413440000001085621R-II BUILDERS, INC.                                      1602
A0101413990000006278168ENCOMIENDA, ROSEMARIE LABUGUIN                           0502
B1301400210682026707001GOLDEN DAME FOOD CENTER, INC.                            1602
A1301400210682424320001PRISCILLA B. BAESA                                       0501
A1701400230693063026001JACKIELYNN DRUGSTORE                                     0501
B0101408240000006414400BEAUTE SOINS PHILIPPINES, INC                            1605
B2801400100712024870001SIGMA PACIFIC BPO SOLUTIONS CORP.                        1605
A4101400420814398480001SALVADOR, MARIA LEILANI BONILLA                          0501
A4101400420814478374102MALIBIRAN, MARLYN M.                                     0502
A0101412340000007305520ROWENA P. GONZALES                                       0502
A0101404840851542980001MASANGCAY, NORA VERCELES                                 0501
A0101406750852620479001VICENCIO, GRACE SINDIONG                                 0502
A0101405070000005619398RECANA, MARIA CYREEN ROJAS                               0501
B0601400230891023794002MEGA FROST ICE CREAM BAR                                 1601
