B0101400440000002846600SPIRO PROPERTY HOLDINGS, INC                             1601
A0101400440161344934001OCIDO, TERESITA JAVIER AND                              10501
A0101400440161344934001LEONOR J. MALLAR                                        20500
B0101412890470821100608**********                                               2002
B0101400440161021125001AAREMA SHIPPING AND TRADING COMPANY, INC                 1603
A0101400440000010744824CHRISTINE R. OBTINALLA                                   0502
A1901400290261298552105AIDA NABOS REYES                                         0501
A1901400290261402212002WILFREDO P VIRREY OR                                    10501
A1901400290261402212002LEONIDA VIRREY                                          20500
A0101400440000008201301SENA, MA. CRISTINA MAGNO                                 0501
B0101400440161018835001STRONGHOLD INSURANCE CO., INC                            1604
B1901400290261039358001MERCADO GENERAL HOSPITAL, INC.                           1602
A0101412890000012154339MIRABEL, JOVIE MAKIRAMDAM                                0502
A0101406590662617560001PACHECO, BENITO MORELOS                                  0501
A0101400860000010683253LAGRIMAS,GINENA O DBU ZED                               10503
A0101400860000010683253ALBERT PRINTING                                         20500
A0101400860011398141002**********                                               0505
A0101400860000009198321**********                                               0502
A0101400860011412773001**********                                               0505
B0101400860011487274001**********                                               1601
A0101400860011538514001**********                                               0502
A0101401250000000522472CABRADOR, VANESSA ABORDE                                 0501
A0101401250000004374692MONTES, BHUPERT LUNA                                     0501
A0101400150000003164645CATHERINE ANNE T. HILARIO                                0501
A0101400150000003218595CELICA JANE D. VILLAREAL                                 0501
A0101400150000012145903GADDI, PHILLIP JASON PALCES                              0502
B0101400150061047454001METRO BAKERS PRIME REALTY, INC.                          1601
A0101400150061226969001LUCY E. TIU                                              0501
A0101400150061370228031ENRIQUE LUY JR.                                          0505
A0101400150061396165001SANTIAGO, MA. SOCORRO S. OR                             10501
A0101400150061396165001PACIFICADOR, AIN                                        20500
B0101400600000001335693ANDRES, JOENATHAN DBU JOENATHAN ANDRES                  11603
B0101400600000001335693GENERAL MERCHAND                                        21600
A0101400600071237988001**********                                               0501
A0101400600071237988002*******                                                  0501
A0101400730000002882375ZAPANTA, VIANCA KRISTEL E OR                            10501
A0101400730000002882375ZAPANTA, EDISON M.                                      20500
A0101400730000013638194GARCIA, SHELLY MAE PALMERE                               0501
A0101400730000013638296TEVES, JONAVILLE SOQUINO                                 0501
A0101400730111386485175IVANHOE O. MARASIGAN                                     0502
A0101400730111429247002SANTOS, CAROL MAE ASIDO OR                              10502
A0101400730111429247002SANTOS, ENRICO                                          20500
A0101406040000012695080LAO, FRANCIS YU                                          0501
A0101401960121238838001**********                                               0501
A0101401960000001844668**********                                               0501
A0101401960121614040001SY, EDERICK MELITON TONG                                 0501
A0101401830141292667002GEMMA OR LEE MARVIN OR                                  10505
A0101401830141292667002JOHN GEMMO MAGTA                                        20500
A0101401830141303865002CALIMBAS, ELIZABETH CANTIL                               0501
A7201400170000013636596BERUAL, MARCELISA R. OR                                 10501
A7201400170000013636596BERUAL, ABDULHALIM E.                                   20500
A5001400170000000213954LOPEZ, ISOLDE OR TAMAYO, AILYN                          10505
A5001400170000000213954OR TAMAYO, SHEENA                                       20500
A0101400440000012169385FAGCANGAN, WALTER SEGWABEN                               0502
A0101400440161186940001MARILOU I. DIVINA                                        0506
A0101400440161520766113MARIFE MANZANO                                           0501
A0101400440161525001131RIA B. IBANEZ                                            0501
B0101407270162019023001PHILIPPINE BATTERIES,                                   11610
B0101407270162019023001INCORPORATED                                            21600
A0101407270000000818280DELA PENA, MILA REGALADO                                 0501
A0101407270162251556002MELANDREW T. VELASCO                                     0504
A0101407270162333154008ELPIDIO CARLOTA                                          0501
A0101407270162579248001MINA, JOSE ROMMEL LAPITAN                                0501
A0101401090171197431001JEANETTE ISABELLE V. LOANZON                             0501
A0301400530193605922002MEDINA A. CAMPOREDONDO                                   0501
A0301400660000010222081AGABON, JOSEPH NINAL                                     0502
A0301400660194606143002ANGCOS, ROEL ONGCOY                                      0502
B0301400660194821200608**********                                               2005
B0301400950000013644390ABAS, ALLEN GHENE C. AND ABAS, AIKO R.                   1601
A0301400950000002115231**********                                               0501
B0101401380201041802001D'GLACIERS' MGM INC. - MAC                               1602
A0101413020000002292731CALIXTO, HEIDI CAMMAYO                                   0501
A0101413020000010882238BALTAZAR, JULIAN VENEDICT ENRIQ                          0501
A0101410720653478374001MILAGROS F. TAN                                          0501
A0101412500000008321059ABENDAN, MARIA CECILIA LEVENY S                          0501
A3001400130230478374239ATO, AIREN BERNADEZ                                      0501
A1001400190231520766061IRYNE S. SAGUMHAY                                        0501
A1001400350000011297762DIEZ, MARIA REBECCA VIGILANCIA                           0502
B1001400350233076793001BINHI MICROENTERPRISE DEVELOPMENT                       11605
B1001400350233076793001FOUNDATION INC.                                         21600
A1301400470252428148002DELIA P. GONZALES OR                                    10504
A1301400470252428148002BERNARDINO R. GONZALES                                  20500
A1301400470252634995001LOUISE L. ANG AND LOED L. ANG                            0510
A1901400290000005565773ROBERTO BALANE CRUZ                                      0501
B1901400290261040667001PRIMERA AGRO DEVELOPMENT CORPORATION                     1603
A1901400290261041112001G&G MANPOWER & PROFESSIONAL                             10502
A1901400290261041112001SERVICES                                                20500
A1901400290000001975244LIEZL LUNAR COMIA                                        0501
A1901400290000002337691MARTINA RIVERA REYES OR                                 10502
A1901400290000002337691JOSE LAROZA REYES                                       20500
A1901400290261469914001IMELDA O DIMAYUGA OR                                    10502
A1901400290261469914001NOEL O DIMAYUGA                                         20500
A1901400290261478374021JOCELYN MAULEON MAPOLON                                  0506
A1901400290261488341078DRA DIVINIA A DIMAYUGA                                   0501
A1901400290000007876860DRA. DIVINIA A DIMAYUGA                                  0501
A0101401670271187647001NELINDA B. MANALAC OR EVALINDA                          10501
A0101401670271187647001OR RIZALIANA N.                                         20500
A0101401670271291491001ANA MARIA A. LIM OR                                     10502
A0101401670271291491001LIM, ELISE NOELLE ANNE A.                               20500
A0101401670271291491002LIM, ANA MARIA OR ADRIANO, ANA                          10501
A0101401670271291491002OR AQUINO, ELIZABETH                                    20500
A0101401670271517856001CHUA, MICHELLE NACAGUE OR                               10501
A0101401670271517856001NACAGUE, MARY CHUA                                      20500
A0101401670271603732001GREGORIO, REYNALDO CRUZ                                  0501
B0101406620273020543001GOLDEN DRAGON INDUSTRIAL CORPORATION                     1602
B0101411110000001037096TECHNOVORE SYSTEMS INC.                                  1601
B0101411820000003085094MEDINFINITY INC.                                         1602
A0101412470000002086375NAKPIL, JOSE ANDRES OR                                  10502
A0101412470000002086375DE CASTRO, MARIA                                        20500
A0101411240000005136470GONZAGA, AMADO TAN OR                                   10501
A0101411240000005136470GONZAGA, HELEN LIM                                      20500
A0101411240000010100553LIMPIN, MA LIOBA AYSON                                   0501
B2601400270302047342001WOODSIDE PROPERTIES AND LAND CORPORATION                 1601
B0101405650322043133001LULUBEE CORPORATION                                      1601
A0101409050000013635520LOREMIA, AEMIELVIN CARULLO                               0501
A0101402930381658198001MORENO, ABEGAIL VASQUEZ                                  0501
A0101402770000010605033CANILANG, VIRGINIA MANALANG                              0502
A0101402770391386798001SANTOS, MARLON LISING                                    0502
B0101408400394025635002KETMAR FASTFOOD CORPORATION                              1601
A0101408400000010506884MAGALLEN, MARY GRACE SOLAMO                              0503
A0301400820000001185780RUFEROS, ROY KENNETH OR                                 10501
A0301400820000001185780AREVALO, MICHELL                                        20500
B2401400180411037264001CEVCEG MARKETING INC.                                    1602
B2401400180411041890001BIOCIELO REALTY & DEVELOPMENT                           11601
B2401400180411041890001CORPORATION                                             21600
A0101406330000001235045ERFE, EMMANUEL SERRAON                                   0502
B0101406330472018253001MERCURY DRUG CORP.                                       1601
B0101406330472206899001DANILO A. MARASIGAN OR RODINA B.                        11601
B0101406330472206899001MARASIGAN                                               21600
A0101406330000000451216MARIBEL P. ZAFE OR                                      10502
A0101406330000000451216NOEL B. ZAFE                                            20500
A0501400170481046585002ANG, JUSSLYNN DBU                                       10504
A0501400170481046585002AVS DISTRIBUTION                                        20500
A0501400170481252349002LALAS, MAEVA DELA CRUZ                                   0501
A0501400170481253055002VELASCO, MELANDREW T. OR                                10504
A0501400170481253055002VELASCO, MA. TER                                        20500
B1901400160000013617897TRADEMARKETEERS MARKETING INC.                           1601
A1901400160000011077893MARILYN M. BERBERABE                                     0502
A1901400160000011077882VENTURINA, LUISITO DIATO                                 0503
B1401400110492042503001LUCENA ROOFWARE TRADING & SERVICES                       1601
B1401400110492046339001SOUTHERN QUEZON PACIFIC OIL MILL                        11606
B1401400110492046339001CORPORATION                                             21600
A1401400110492221623001CONSTAN R. ZABALLERO OR                                 10502
A1401400110492221623001MILAGROS D. ZABA                                        20500
B0101407430503038349001GREATDIME DEVELOPMENT COMPANY INC.                       1602
A0101407430503184564001SALVACION V. MENDOZA                                     0502
B0101403580511014830001L OPERA HOLDINGS INC                                     1602
A0101408530000001275190LOPEZ, MA. CARMENCITA TANTOCO                            0506
A0101411400000000001576EBORA, MARIO BALMES                                      0501
B0101403610531403214003MENDIOLA, EMITERIO ALMEIDA AND LEE JR.,                 11601
B0101403610531403214003MATEO AND ALOLOR                                        21600
B2201400250561037709001NEW DAN'S ELECTRICAL                                    11602
B2201400250561037709001REFRIGERATION                                           21600
A2201400250561478374038ZENAIDA B. DELA CRUZ                                    10501
A2201400250561478374038MEMBERS OF NATASHA                                      20500
B0101404130601019310001INQUIRER PUBLICATIONS, INC.                              1601
A0101407720602373276001MACAPAGAL, ANTONIO RAMIREZ                               0502
A0101412180000002296791VASQUEZ, ADELIA DIAZ                                     0502
B0101412180000007360490WS AND LANDIN, INC. DOING BUSINESS                       1602
A0101412180000001293312CASTRILLO, JOSE PAULO BRIONES                            0502
A0101412180000000333593RUIZ, LUISITO LACSAMANA OR                              10501
A0101412180000000333593RUIZ, ABE EDUARD                                        20500
B0101404260611028820001TATE ENTERPRISES                                         1602
A0101404260611333890001SAGARIO, ALBRECHT PERNIA                                 0502
A0101404260611360079002ALOG, DENNIS NINO LEGASTO                               10501
A0101404260611360079002OR STACEY ALOG                                          20500
A0101404260611478374108DELIA BACSA                                              0501
A0101404260611478374119LEA B. DAGANTE                                           0501
B0101409890000003098173V.T. LAGUYO CONSTRUCTION, INC.                           1602
B0101409890649046116001OXY-ACE AIR DISTRIBUTION CORPORATION                     1601
A0101409920000001951982MEMBERS OF NATASHA (SHOECAT INC                         10501
A0101409920000001951982TORRELIZA, GINA                                         20500
B0101407690000003768003MT. SINAI MOTORS CORPORATION                             1601
B0101407690000007720090MT. ARARAT MOTORS, INC.                                  1601
B0101407690000007720103MONTE ROSA MOTORS, INC.                                  1601
B0101407690000007720114MT. OLYMPUS MOTOR CORPORATION                            1601
A0101411530000001393682PACIA, EDWIN MICHAEL JOY B OR                           10502
A0101411530000001393682PACIA, ANNABELLE                                        20500
A0101411530000001393671SALVATIERRA, RENE ANTONIO OR                            10505
A0101411530000001393671SALVATIERRA, RINNA                                      20500
A0101411530000005198336CHUA, CATHERINE CHARMAINE GUECO                          0501
A0101413440000000570303GUARINA, R. DBU GEOMATICA                               10502
A0101413440000000570303ENGINEERING                                             20500
A0101413990000007703575MIGUEL, RHODA PENARANDA                                  0501
A0101413990000000206066MARKVENT ENTERPRISES                                     0501
A0101414120000000875510DELA CRUZ, DARWIN SALTA                                  0501
B0101414120000011637171ALI I.T. SUPPORT SERVICES INC.                           1601
A0101406590000000131706CARRANZA, JANITH BOTALON                                 0502
A0101406590662202228001INIGO JR., CONRADO EUSTAQUIO                             0501
A0101406590662654321001DAVID, ERLINDA HENSON                                    0501
A130140021000000310500001NACIO, IMELDA BUENAFLOR                                0501
A1301400210000007669289GONZALES, MARK OLIVER SANTIAGO                           0503
B1301400210682029385002WINNER EMMISSION TESTING CENTER                          1601
B1301400210000005041007***                                                      1604
A1301400210682378694001TEODORICO F. CASTILLO                                    0502
A0101408240000000521862ALBARRACIN, MARIO MADAMBA OR                            10501
A0101408240000000521862MARY MAUREEN                                            20500
A4101400390000000745380MINDANAO, JERRY FERANIL                                  0501
A4101400420000002084562CANTILERO, NILCE SAMONTE                                 0501
A4101400550000002091009PANGAN, SONIA DINGLASAN                                  0502
A0101412340000003349488JAYSON R. VELASCO                                        0501
A0101412340000007305724RODOLFO D. PAGLICAWAN JR.                                0502
B0101404840851009287001K SERVICO TRADE, INC.                                    1603
B0101404840851060813001NEXT ASIALAND INC.                                       1602
A0101404840000000475923EMPLOYEES OF KAWASAKI MOTORS PH                          0501
A0101404840851520766120MARCELINO I DIPASUPIL                                    0501
A0101406750000008644082MISOLA, ERIC REYES                                       0501
B0101406750000007097227BRIA HOMES, INC.                                         1605
A0101406750852290414001BULAON, MARITES I. OR                                   10501
A0101406750852290414001BULAON, SONNY T.                                        20500
A0101406750852689404001RAYMUNDO, MARVIN TOLENTINO                               0501
A0101405070000003439672GOMEZ, ALFREDO YUMUL OR                                 10501
A0101405070000003439672GOMEZ, PAUL A.                                          20500
B0101405070861008460004STARS TRAVEL INCORPORATED                                1602
B0101405070861501031001MASSAD REAL ESTATE CORPORATION                           1602
A0101413860000000145020DASIGAN, ANGELITA GONZALES                               0501
