A0101410300000007613778HABANA, ANTONIO DEL ROSARIO                              0501
A0101410300000014298970YAMBAO, NOEL ANGELES                                     0502
A3001400130000001261283LIM, EDGAR ALLAN DIAZ                                    0502
B3001400130000000007029CROSS LUG TRADING                                        1602
A1101400120000006081103BACSAL, EMMYLEEN BATAWAN OR                             10503
A1101400120000006081103BACSAL, DAVID DA                                        20500
A0101409050352065203002BARRICA, CRISTINA R                                     10502
A0101409050352065203002DBU QME ENTERPRI                                        20500
A0301400820000010907310DAHAN, MARIBEL L. OR                                    10502
A0301400820000010907310DAHAN, GLENN M.                                         20500
A1301400500684637125001SANTOS, LENYLYN INDON                                    0502
A4101400260000012886347SUNGGAY, MARVIN A.                                       0501
A4101400260812310546003KHO, KWANG TAE                                           0501
A0101400860011233192002**********                                               0501
A0101400860011548447001**********                                               0502
A0101401250021039948001HARI GARMENTS MANUFACTURING                              0510
A0101400150000001422326HERMELITA H. AMBROCIO                                    0501
A0101400150000014965703MARASIGAN, MATTHEW IVAN GRAFIL                           0501
B0101400150000009694659SKYWORLD FINANCIAL HOLDINGS, INC.                        1601
A0101400150000000806677EMELITA G. PURISIMA                                      0501
A0101400150061396548001ALIMURUNG, BENJAMIN N. OR                               10501
A0101400150061396548001ALIMURUNG, ALICE                                        20500
A0101405810072236551001***********                                              0501
B0601400360000013047682ARBORLAND HOLDINGS INC.                                  1602
B0601400360000003186714BSD TRADE SERVICES CORP.                                 1603
B0601400360000003186816GWU MKTG. CORP.                                          1602
A0601400360000007539719EVARISTO, BONIFREDO BARRERA DBU                          0502
A0101414090000011598044ECHEVARRIA III, LEOPOLDO PERALT                          0503
A0101401830000010452741CASTRO, KATRINA INEZ JAVIER                              0501
A0101401830141482333001ELAYNE CO FRIAS                                          0501
B7201400170000003773659LAFFICO MPC - STA. CRUZ BRANCH                           1605
A5001400170000014961403ZERRUDO, ROSE PORTIA GULMATICO                           0501
A0101400440161478374042PEARLY ROSE ALEJO                                        0502
A0101407270000011651660****************                                         0502
A0101401090171203892001RIVERA, CLARA REYES  AND                                10501
A0101401090171203892001GO, OLIVIA                                              20500
A0101401090171310113001RICHARD G. PAZCOGUIN                                     0502
A0101401090000000993353VELASCO, ZENAIDA FAINSAN                                 0502
A0301400530000003088048MINER'S CHEMICAL INDUSTRIES COR                          0504
B0301400660000012086641**********                                               1602
B0301400660194469662088**********                                               1603
A0101401380000010190604MUYA, MARLON BATHAN                                      0503
A0101413020000006295878CANTARA, FRANCIA REMONTE                                 0502
B0101410720210045577001ASIAQUEST VENTURES CORPORATION                           1615
A0101412500000003289941DELOS SANTOS, ARLENE FERNANDEZ                           0501
A0101412500000003289941DELOS SANTOS, ARLENE FERNANDEZ                           0501
A0101412500000014945863BERGANTINOS, IVY RAMOS                                   0501
A0101412500000014967607YUSINGCO, ENRICO DELA LLANA                              0501
B0101412500000014635384BUENAVENTURA, MARILOU DBU JT MARILOU                    11601
B0101412500000014635384ROSERO BUENAVENT                                        21600
B0101412500000014635668ENRIQUEZ, MARILYN DBU JT MARILYN ROSERO                 11601
B0101412500000014635668ENRIQUEZ DENTAL                                         21600
A3101400740000000013823IGNACIO, JOSE CARLO CAGUITQUIT                           0501
A3101400740000006735846DIAZ, ROMER BACAS DBU R.DIAZ                            10501
A3101400740000006735846ENTERPRISES                                             20500
B3101400870000005960687NORTHSTAR TECHNOLOGIES INDUSTRIAL                       11603
B3101400870000005960687CORPORATION                                             21600
B1001400190231038390001MC SHIPPING CORPORATION                                  1603
B1001400350000000017154STRONGHOLD INSURANCE CO., INC                            1610
A1001400350233042653001BLUE ENERGY RESOURCES                                    0504
A1001400480000000041501SALVANA, RODOLFO L OR SALVANA,                          10505
A1001400480000000041501ELIZABETH C                                             20500
A1001400480000006270511RAHON-SUCGANG, ROSE BELLE E                              0501
A0101406620000010200907DORIS MARIE CONCEPCION DIZON                             0501
A0101400570281186576001DR. ROSEMARIE JEAN J. POBLETE                            0502
A0101400570281187271001SIA, STEPHEN TAN                                         0503
A0101400570281663653001OCAMPO, ELIZABETH JOAN ESGUERRA                          0505
A0501400200000013602556CASTISIMO, MARK GREG DE VERA                             0501
A2601400270000003510829SHIRLEY G. PUA OR JUSTIN SEAN                           10502
A2601400270000003510829G. PUA                                                  20500
A2601400270000011415244DEL CATHERINE I. DAMATAN DBU                            10502
A2601400270000011415244RITA ISIDRO'S STORE                                     20500
B0801400160311043928001DELIFRANZ BACKEREI, INC.                                 1602
A1101400120000009119819VERONA, CATHERINE                                        0502
B1101400120000000652880YAO, ANTHONY ROBERTSON GO AND YAO, MARK                 11605
B1101400120000000652880ALAIN GO                                                21600
A0101402350000005644839VILLAHERMOSA, MICHELLE GUMELA                            0501
A0101402510000013486012PELAEZ, KATHLEEN ANNE DE LA CRU                          0501
A0101402510341433983009**********                                               0501
A0101409050000013552911ALVIN MICHAEL HABANA                                    10502
A0101409050000013552911EMPLOYEES OF, DELL GLOBAL                               20500
B0201400760374272956001YU, DESSUM LIM OR YU, EMMA LAU                           1601
A0201400760374720031001******                                                   0505
A0201400920000000048020DONG JUAN CENTRAL CORPORATION                            0501
B0201400920000008813769KABALIKAT PARA SA MAUNLAD NA BUHAY INC.                  1605
B0201401020000002250631********                                                 1602
A0201401020377094857001GO, ALEXANDER DBU WEGO                                  10501
A0201401020377094857001ENTERPRISES                                             20500
B0101408790383046752001LINKAGES OF THE PRESCHOOL EDUCATION                      1602
A0101408400000012652221NICOLAS, KRISTINE ANNE VALINO                            0502
A0101408950000014190757RAZADO, HOMER CLEOFAS                                    0502
A0101408950396559428001HERNANDEZ, MARIANNE PEREZ OR                            10506
A0101408950396559428001PEREZ, MA. MARGARITA                                    20500
A0101409210000007864091**********                                               0502
A0101412210000014846354ROJO, ROLAND MORFE                                       0501
A5501400120000014312282OSORIO, ERO BALUSO                                       0502
A5501400120410616229001ESCANO, CLAIRE BASAN                                     0503
B2401400180411031945044ABC DISTRIBUTORS INCORPORATED                            1605
B2401400180411033733033ECA RESOURCES, INC.                                      1603
A2401400180411555962001SILVA, VIOLETA P. OR                                    10502
A2401400180411555962001SILVA, MARCELINO                                        20500
A2401400180000007031789DIZON, LEANDRO ADOR ANDRES                               0502
A1201400150000006253705GUTIERREZ, REIMON LLORICK ROBLE                          0501
A5101400100000010371461ACTUB, JONELYN BERNASOL OR ACTU                         10505
A5101400100000010371461B, MICHAEL CLOMA                                        20500
A5101400100000010834001BANGCOYO, SHEILA CANOY OR BANGC                         10501
A5101400100000010834001OYO, ROCKY                                              20500
A0101406330472696737001RECHIE LOPEZ RAZON                                       0501
A1901400320000014967663PANOPIO, IVY ALMERO                                      0501
A1901400160000014934860AGNES C. CORDERO OR MARK                                10501
A1901400160000014934860ANTHONY C. CORDERO                                      20500
A1901400160491635678001MARIVIC ATIENZA CANTES                                   0501
A1401400110000010622709CRISOSTOMO, STEPHANIE ARAMBULO                           0501
A0101407430000014965930AGRAVANTE, CYREL MENESES                                 0502
A0101407430000006027903JONAS MARTIN OR MARIAN MARTIN                           10501
A0101407430000006027903DBU SIM ONE TRAD                                        20500
B0101405940512024480001RICHMEAL FOODS CORPORATION                               1605
B0101405940512028580001AUTOMETICS CAR CARE, INC.                                1606
A0101408530000014956440PACRES, DENISE SUELTO                                    0501
A0101403450000009517524*************                                            0501
A0101403450521240366001**********                                               0501
A0101403610531342758001CALUGAY, DANTE ABALOS                                    0501
A2201400250561019818003KIS ENTERPRISES                                          0515
A2201400250000012982960CO, RICHMOND DBU CHISTIAN                               10504
A2201400250000012982960HOME FURNISHING                                         20500
A0101407720000007936243MODESTO, MARIA FARAH KRISTINA G                          0501
B0101412180603047294001COUNTRYBEST INTERNATIONAL PLACEMENT                      1602
B010140426000001479108110 Z AND G PROPERTIES INC.                               1603
A0101404260611335308002ALIMBOYONG, JOSEPHINE MAHINAY                            0503
A0101407690000000495530AMBA, GERALDINE PAGASPAS                                 0501
A0101407690000000587895MANLIMOS, AMALYN DELANI                                  0501
A0101407690000010774713BUENAVENTE, CLA DBU VILLAMOR HO                          0502
A0101407690652042183001MARINA'S FURNITURE SHOP                                  0505
A0101407690652525001083TULABING, VIOLETA - DEALERS OF                          10501
A0101407690652525001083SHOECAT INC.                                            20500
A0101413990000014955123HERMOSO, THEA MARIFOSQUE                                 0501
B0101414120000000399213JOBS ON THE GO SERVICE COOPERATIVE                       1602
B0101406590662037431001DESIGN & FUNCTION INCORPORATED                           1601
A0101406590662506686001UNILONGO, NOLY GELLADO                                   0501
A1301400340683492812001SANTOS, LEONORA DISQUITADO                               0504
A0101408240000010639557SANTAYANA, GREGORIO DILLERA                              0501
B0101408240711023642001SAM SUNG PHILIPPINES CO., INC.                           1602
A0101408240000008160143ROWENA P. GONZALES                                       0502
A2801400100712278476001UYGONGCO JR., JOSE ROBERTO JT                            0502
A2801400230000009022188ISIDRO, MARIA CRISTINA VELUZ                             0501
A4101400260000014487604VALENCIA, RONALD                                         0501
A4101400260000013624567VILLANUEVA, BEVERLY TRIBIANA                             0501
A4101400260000012858170CALMA, CHRISTIAN                                         0501
A4101400260000012862870JULATON, BENJAMIN                                        0501
A4101400260000012864381MASANGCAY, KARIZA                                        0501
A4101400260000012865179MICABANI, HANS JOHN                                      0501
A4101400260000012868390SUAREZ, MARVIN FOJAS                                     0501
A4101400260000012869651VILLAROSA, VIVIERE                                       0501
A4101400260000014088321IDIAN, MA. NERISSA C. DBU MNCI                          10502
A4101400260000014088321MARKETING                                               20500
B4101400260000001199106H3 CONCRETE BUILDERS INC.                                1610
B4101400260000006043909J.E.M. 88 CONSTRUCTION DEVELOPMENT CORP.                 1601
A4101400260000014088292ROMA, CARMELA                                            0501
B4101400390813019416002STI COLLEGE-ROSARIO, CAVITE, INC.                        1602
B4101400420814821100608**********                                               2003
A0101412340000002266753PARCO, JOSEPHINE SOLIS                                   0501
A0101412340000004360132MAMANGUN, MARHIELLE DE VERA                              0501
A0101404840000010969283CUMPAS, ALEXANDER ACOSTA                                 0501
A0101404840000000090213SAPLALA AND SANTILLAN SMILE SYM                          0501
A0101406750000009471894DE LEON, CONSOLACION TAGALAG                             0505
A0601400230891363362001MARITESS P. FLORES                                       0501
