B0101402930000005646164POLICARPIO & ACORDA LAW OFFICE                           1601
A0101402930381019975001UNICOM OFFICE DESIGNS BY                                10501
A0101402930381019975001JEAN C. CHUA                                            20500
B0101402930381040393001RESOURCE ONE CORPORATION                                 1601
A0101402930381205144001LYRA RUTH CLEMENTE-CHUA                                  0501
A1101400120000000992332EJERCITO, CARLA D. OR                                   10502
A1101400120000000992332EJERCITO, RONALD                                        20500
B1101400120313039184001SARC FOODS CORPORATION                                   1605
B0101412500214821100608**********                                               2002
A1101400120000002254946MEJICA, SORIEL BARDIAGO                                  0503
A0101408950000003171188DE CASTRO JR, MANUEL LEUTERIO                            0501
A0101400860000003571715**********                                               0501
A0101400860000008319277**********                                               0502
B0101400860011011432001MLQES TEACHERS' MULTI PURPOSE COOP                       1601
A0101400860011377649001**********                                               0501
A0101400860011383050002**********                                               0501
B0101400860011406841001**********                                               1602
A0101400860011423569001**********                                               0501
A0101400860011435648001**********                                               0505
A0101400860011523266001**********                                               0505
A0101400860011537519001**********                                               0501
A0101400860011619428001**********                                               0501
B0101401250021006626001WODEL INC. EMERGENCY LOAN FUND                           1602
B0101401250021022444001IMARFLEX BATTERY MANUFACTURING                          11601
B0101401250021022444001CORPORATION                                             21600
A0101401250021179099001KAUR, MOHINDER OR                                       10501
A0101401250021179099001KAUR, HARDEEP                                           20500
A0101401250021238627001********                                                 0501
A0101400150000003141408LOPEZ, VILMA ACUNA                                       0501
B0101400150061028980001VALLEY MOUNTAIN MINES EXPLORATION                       11601
B0101400150061028980001INC.                                                    21600
B0101400150061036398001JRMA HOLDINGS, INC.                                      1601
A0101400150061226980001ROMULO G. NICOLAS                                        0501
A0101400150061292057001GIDEON G. SISON                                          0503
A0101400150061691268001KWONG, HAYDEE JANE CHU                                   0501
B0101405810072235877001**********                                               1602
A0101405810072364945005***************                                          0501
B0601400100081035501001RAYMOND DENNIS TRINDER MEMORIAL FOU                      1601
B0601400100081323240001DAVID, ANNABELLE P. OR RICHARD D.                        1602
A0601400520000007553315TAYAG, TRISHA LOUISE GUTIERREZ                           0501
A0101413280000005084840MONTERO, CLARO MANUEL DACANAY                            0501
A0101410560000003562127**********                                               0501
A0101410560000011873153FLORICEL JOY A SELODIO OR                               10501
A0101410560000011873153KATHLYNN P RENZALES                                     20500
B0101400730000005593484ALPHA INSURANCE & SURETY CO., INC.                       1602
A0101400730111379924001**********                                               0503
A0101400730111421721001ROSALITO ITEM OR                                        10505
A0101400730111421721001MAJAR JARDIOLIN                                         20500
A0101400730111481455001JACINTA Y. PHOA OR                                      10502
A0101400730111481455001BELINDA O. TAN                                          20500
A0101406040000001391971ALEX C. DYPUA                                            0501
A0101413150000002299409*******                                                  0501
A0101412630000007168796QUILINGUEN, NIEVEL SISTORIAS                             0501
A0101413310000005433169RICHARD V MINA OR ROSLYN C MINA                          0502
A5001400170000002288242AJOC, RODOLFO PAPELLERAS OR                             10504
A5001400170000002288242AJOC, MARY JUNE                                         20500
A0101412920000005354263YU, GRACE CAJANDING                                      0502
A0101412920000005354310MIRAFLOR II, HERMES MANLANGIT                            0502
B0101412920000013410052NOTABLE REAL ESTATE PRACTITIONERS (nrep)                11601
B0101412920000013410052and associates                                          21600
B0101400440161018835001STRONGHOLD INSURANCE CO., INC                            1604
A0101401090000011984431ALMEDA, CARLOS MENDOZA                                   0505
B0101401090171007899001MARY CHILES GENERAL HOSPITAL PHYSICIANS'                11602
B0101401090171007899001ASSOCIATION                                             21600
B0101401090171030100001THOMASIAN MULTI-PURPOSE EMPLOYEES                       11610
B0101401090171030100001COOPERATIVE                                             21600
A0101401090000003600671RUIZ, ELENA DEL ROSARIO                                  0501
A0101401090171315154001NADY S. NACARIO                                          0501
A0101401090171527856001BOMBARDA, MARY GRACE NAVARRO                             0501
A0101401090171771414001GUSTAVO P. LIM                                           0502
A0301400530000001409650DING, SHUIBEI OR                                        10503
A0301400530000001409650CHEUNG, HENRY B.                                        20500
A0301400530000002318390YAO, MARY KRIS TAN OR                                   10505
A0301400530000002318390YAO, CAIQI                                              20500
B0101401380201020300001AMADEO GAS CORPORATION                                   1602
A0101401380201284406002TAN, SUAT NGO                                            0502
A0101412500000000739635CRUZ, ANNA MARIE CRUZ                                    0502
B0101413600000005524863HIMLAYANG PILIPINO PLANS, INC.                           1610
A3101400160000012033382ALTAR, JANET                                             0501
B3101400160221010055002CALAMBA LUMBER ENTERPRISES                               1605
B3101400450223027200002MOTOWHEELS INC.                                          1601
B3001400130000010506515CUMBA, WENDY GO AND GO, ANTONIO TIMCANG                  1601
B3001400130000000007029CROSS LUG TRADING                                        1601
A3001400130000008264802AREZO, JOVIE L.                                          0502
A1001400190231275093001CAUMBAN, CRISTY MARIE                                    0502
B1001400350233038547008METALITE BUILDERS DEVELOPMENT COMPANY                   11602
B1001400350233038547008INC.                                                    21600
A1001400350233533309001MARIO JOSE A. SIA / CAGAYAN DE                          10505
A1001400350233533309001ORO HARDWARE AND                                        20500
A1001400350233732232002CAUBE, MARIVIC JAMERO                                   10503
A1001400350233732232002OR CAUBE, VICTOR                                        20500
B1301400470252036311001B.M. DOMINGO MOTOR SALES, INC.                           1602
A1301400470252466645001MA. LOURDES M. GOMEZ OR                                 10502
A1301400470252466645001CHRISTOPHER M. GOMEZ                                    20500
A1901400290000004366103WONG, GWENDOLYN KU                                       0505
A1901400290000005565820JUDITH ATE VIRTUDAZO                                     0501
A1901400290000012735774NANCY EVANGELISTA LAPID                                  0501
B1901400290261025650002FIESTA HOME CENTER (FHC) CORP.                           1605
B1901400290261026966002BONTOG SANG-BIRHEN MULTI-PURPOSE                        11602
B1901400290261026966002COOPERATIVE                                             21600
A1901400290000006560090VIRGINIA S MACASAET OR                                  10502
A1901400290000006560090RICKY C MACASAET                                        20500
A1901400290261244424001LULU T SORIANO OR                                       10501
A1901400290261244424001TEODORICO SORIANO                                       20500
A1901400290261432900001JULIUS PIO AFRICA RANA OR                               10501
A1901400290261432900001CHARMAINE DE GUZMAN RANA                                20500
A1901400290261478374009LEILA LUMANGLAS OLAVE                                    0503
A1901400290261642927001KIMBERLY GILLIAN H AMANTE OR                            10501
A1901400290261642927001GUILLANO VICTOR AMANTE                                  20500
A0101401670000003181622CHUNG, JAE WOO DBU ETRAPANOB                            10501
A0101401670000003181622FILM STUDIO                                             20500
A0101401670271388245001ANITA B. MATEO                                           0501
A0101408660274092095001CU UNJIENG, ROMAN BENITO OR CU                          10501
A0101408660274092095001UNJIENG, WILLIAM MARTIN                                 20500
A0101408660274512962001ZIALCITA III, BENIGNO L. OR                             10502
A0101408660274512962001ZIALCITA, BRYCE                                         20500
A0101411110000002320030*********                                                0501
A0101411110000005356787MACEDA, RAFAEL SANCHO G. OR                             10501
A0101411110000005356787MACEDA, ODESSA G.                                       20500
B0101411110276046284001GRAZPOWER, INC.                                          1603
B0101411110276046706088SAHI TECHNOLOGIES UNLIMITED INC.                         1603
A2601400270302263870002RICARDO A. ISIDRO                                        0502
A0801400160000002287590**********                                               0501
A0801400160311473587001JARDELEZA, EMILY HOPE ONGLATCO                           0501
A1101400120000003196996ANZALE, RAFELINA PARINA                                  0501
B1101400120000006186872COASTALVIEW FOODS CORPORATION                            1603
B1101400120000006186941COASTALVIEW FOODS CORPORATION                            1602
B1101400120000006186952COASTALVIEW FOODS CORPORATION                            1602
A6601400120000000060379RIGON, VICTORIA DOMINICE                                 0501
A6601400120314612856001FRANZUELA, SARAH S.                                      0504
B2001400290315041978001KOUKEN CONSTRUCTION                                      1605
B2001400290000007832400RITESTREET LENDING CORPORATION                           1601
B2001400290315635857001****************                                         1601
A2001400290315636761001VILLABERT, WINSTON TAN OR                               10506
A2001400290315636761001VILLABERT, MARIT                                        20500
B2901400130000005961026F & E ENTERPRISES, INCORPORATED                          1610
B0101402350321027311001HH ASIA TRADING INC.                                     1601
A0101402350321618569001DAMASO, GLORIA SANCHEZ                                   0501
A0101405650000006273732EUSEBIO, RAJEL DE LEON                                   0501
A0101405650000013395063MANALO, JAYSON ALCANSE                                   0501
B0101402510341036600001METRO KITCHENWARE INC.                                   1601
B0101402510341036904001CANNON BABY SAFE PRODUCTS, INC.                          1601
B0101402510341036905001GOODY PRODUCTS PHILS., INC.                              1601
A0101402510000000003032SANCHEZ, RIA OCAMPO OR SANCHEZ,                         10502
A0101402510000000003032MANUEL OCAMPO                                           20500
A0101402510341197540001EDILBERTO M. TAWAGON                                     0501
B0101402060351009773001GRB ENTERPRISES                                          1602
B0101402060351043933001ARLO ALUMINUM CO., INC.                                  1601
A0101402060351211701001DANNUG, MARIA DOLORES CARLOS OR                         10502
A0101402060351211701001EDGARDO D. OR AN                                        20500
A0201400760000009466151*********                                                0502
B0201400760374036792001S.E.A. OLYMPUS MARKETING, INC.                           1601
B0201400760374435205001ONGCHANHOI, WILLIAM CHUA OR ONGCHANHOI,                 11601
B0201400760374435205001EDELYN LOMOTOS                                          21600
B0201401020000003031209ELECTRICITY TRANSMISSION SUPPLIES C                      1602
A0101408370000000476700SECTION OF ADULT CRITICAL CARE                           0501
A0101408370382205113001IMELDA V. DELA ROSA OR                                  10501
A0101408370382205113001MA. LORRAINE V. DELA ROSA                               20500
A0101408370382407309003JOHANN MICHAEL G REYES DBU                              10501
A0101408370382407309003JMGREYES EYE CLINIC                                     20500
A0101408790000005954083CULLADO, MA. CORALYN SAGRADO                             0501
A0101408790383619716008PEARL T. CATO                                            0501
A0101402770000000440019GABRIEL, ELVIRA VILLAVERDE                               0501
A0101402770000001841174DEL ROSARIO, ALFREDO RAYOS                               0502
A0101402770000001841094BLANQUISCO, JEFFREY TUAZON JT                           10510
A0101402770000001841094DBU BLANQUISCO TRADING                                  20500
A0101402770000001841152EASYTECH TRADING                                         0501
A0101402770000002267267PARAS, CECILIA DE LEON                                   0501
A0101405490000004352998DE GUZMAN, EDWIN MACARAIG                                0502
B0101405490392030594003ESPINOSA REALTY INC.                                     1601
A0101408400000001835183MADERAZO, JANETH JABONETA                                0501
A0101408400394036671001CAIT FURNITURE SHOP                                      0502
A0101408400394444391001MANALO, MARYLOU REYES                                    0501
A0101408950000002255341MONROY III, HERMOGENES DE JESUS                         10501
A0101408950000002255341OR MONROY, JEANETTE                                     20500
A0101408950000002255330BAMBALAN, NELSON SERRANO                                 0503
B0101408950396047625001DEPARTMENT OF ANESTHESIOLOGY- FORT                      11602
B0101408950396047625001BONIFACIO                                               21600
A0101408950396566192001HERNANDEZ, ALET GERARDO CRUZ                             0503
A0101408950396663666001EDGARDO SAN JOSE CRISTOBAL                               0501
A0101408950396688186002PEREZ,MA.MARGARITA OR HERNANDEZ                         10501
A0101408950396688186002MARIANNE OR PEREZ, JOSEPH                               20500
A0101409180000001694362COO, JANE VILLANUEVA                                     0501
A0101409180000010760255MARTINEZ, RAUL SANTOS                                    0504
B0101409180397041823001THE INFINITY CONDOMINIUM CORPORATION                     1603
A0101409180000002252568SON, DAVID SANTOS OR SON, NELIA                         10501
A0101409180000002252568 AGUINALDO                                              20500
A0101409180000002252648***                                                      0501
A0301400820000001554894ESTREMOS, VERONICA T. OR                                10501
A0301400820000001554894ESTREMOS, FERDINAND P.                                  20500
A0301400820000007373033FUENTES, ELVIE D.                                        0501
B0301400820000001554843MC SELMA AGRI WASTE SUPPLY                               1601
B5501400120000005492402PRIMOS UNIDOS FOOD CORPORATION                           1602
B2401400180000007476751GAISANO, PAUL SY                                         1610
B2401400180000000019769WILL & JOE AGGREGATES, INC.                              1605
A2401400180411367121001CHING, BONIFACIO A. OR                                  10502
A2401400180411367121001CHING, NIDA                                             20500
A2401400180000000427985CULLO, KRISTIANNIE LOVE ROSARIO                          0503
A0901400220432788718002**********                                               0501
A0101403030441534805001**********                                               0502
B0101406330472024180001ACCESS LIFT AND ELECTRONICS CORP.                        1604
A0101406330472027958001A. ANOLIN ENTERPRISES                                    0502
A0101406330000000451249SITYAR, MA. DOLORES SORIANO                              0503
A0501400170000013407011TIU, BENEDICT GO DBU BNL ENTERP                          0501
A0501400170481257443001JUANITO L ONG JR                                         0503
A1901400320000000679261JANE MARIE GONZALES PANGANIBAN                           0501
B1901400320000000041283SAN ISIDRO MULTI-PURPOSE COOPERATIVE                     1601
A3801400170490781086001DON MOISES PESIG                                         0501
A1901400160491247181001DELIA R LIM OR SONIA R LIM                               0501
A1901400160491343996003HERNANDEZ, MARIA DOROTHY MENDOZ                          0501
A1401400110000013091457CARLOS, YOLANDA CACHO                                    0501
A1401400110492040674001ALRICH COMMERCIAL INC.                                   0502
B1401400110492044819001ACYATAN & CO., CPA'S                                     1601
B1401400110492046339002******                                                   1620
A1401400110000008266411QUITAIN, C DBU EDSEL PHARMACY                            0501
A1401400110492220879001ANGLO, ROMEO F. OR                                      10502
A1401400110492220879001ANGLO, CECILIA N                                        20500
A1401400110492386736001***************                                          0502
A1401400110000000628591FULE, JUAN T. OR                                        10502
A1401400110000000628591FULE, DELIA O.                                          20500
A1601400170000009954501MONPONBANUA, MICHAEL PACHECO                             0502
B1601400170000000497109SIMBAG SA EMERHENSYA ASIN DAGDAG PA                      1601
A0101407430503333427005ABNER G. LACSON OR                                      10502
A0101407430503333427005EVELYN D. LACSON                                        20500
A0101407430000001028831LAMBERTO C. AQUINO                                       0502
A0101403580511150653001ERNESTO A. UY                                            0502
A0101403580511418090001ANGEL T. REDOBLE                                         0502
B0101403580511575114002TIGER 22 MEDIA CORPORATION                               1610
A0101405940000005359344QUIBA, REGIE TUGADE                                      0501
B0101405940512018663001MIX MASTERS INC.                                         1609
B0101405940512025099001COMTHEX, INC.                                            1601
B0101405940512025099002COMTHEX, INC.                                            1602
B0101405940512033669001QUESTECH CO. INC.                                        1601
B0101405940000003571771S & P, INC.                                              1601
B0101405940000005359560AUTOBRANDS MEDIA VENTURES, INC.                          1603
A0101405940512151522006**********                                               0502
A0101408530516483678003CASTRO, ROLAND ANTHONY VELASQUE                          0501
A0101408530516571877159JOSE RUDYLIN R. GAMBOA                                   0501
A0101408530000001885692ANN KATHERINE R. JAVINIAR                                0501
A0101408530000001885710MARIA JHOANNA L. QUIZON                                  0501
B0101411400000001280591GIONYX TOTAL BEAUTY INC.                                 1601
A0101403450521192368001NGO, TERESITA TAN OR                                    10504
A0101403450521192368001NGO, EDGAR KING                                         20500
A0101403450000000135533VILLANUEVA, JOHANNS LEE                                  0501
A0101403450521239921089*******                                                  0501
A0101403450521239921090**********                                               0501
A0101403450521388106001**********                                               0501
A0101403450521447529001************                                             0501
B0101403610531009927001SAN LORENZO SCHOOL OF SAN PEDRO                          1602
B0101403610000003053141VALPARADISO LENDING INVESTOR CORPORATION                 1602
B0101403610531659842002DELAMO LENDING INVESTOR CORPORATION                      1603
A0101403610531792048001MORDIDO, IRMA GAMBA                                      0502
B0101404130601018734002NGE CONSTRUCTION & TRADING SERVICES                      1605
A0101407720000004663970AMADOR, JON GERARD CUEVAS                                0501
A0101407720000004664131BAUTISTA, MARLON SIA                                     0501
A0101407720602301024001ALFREDO Z. PIO DE RODA III                               0502
A0101409920000001539602CHOA, LAURENCE JEFFERSON L. OR                          10501
A0101409920000001539602CHOA, MICHELL L.                                        20500
A0101409920000010528964DAVID, ARWIN G. OR DAVID                                10502
A0101409920000010528964ELIZABETH ANN LEENZAE S.                                20500
A0101411530000002260293VENERACION, MICHELLE MARIE                               0501
A0101411530654798243001DAMIAN, ROWENA LEANO                                     0501
A0101413440000007952869EVALE, ANALIE STA AGATA                                  0501
A0101413440655054477001LAND FIRST REALTY                                        0502
A0101413990000013394873DONEZA, RAMON JELO ALIPIO                                0501
A0101414120000002879743DE GUZMAN, JENNY MERLIE APOLINA                          0502
A0101414120000011765014FIDELSON, MARY GRACE FRANCISCO                           0501
B0101414120000000399093*****                                                    1604
A0101414120000002879885FCB TECHNOLOGIES                                         0504
A0101414120000011289002ALCANTARA, ARIEL ALPAY DBU TZ-E                          0501
A1301400210682245918002CHRISTINA JANE TORNO OR                                 10501
A1301400210682245918002  ROMINAVAR TORN                                        20500
A1301400210682569598001PHILIP M PACADA  OR                                     10501
A1301400210682569598001SUSANA L PACADA                                         20500
A1301400340683387803001ESGUERRA, DANILO MEDRANO OR                             10504
A1301400340683387803001ESGUERRA, ANGELITA                                      20500
A1301400340000000100330LAPENA, RAYMOND RANDALL CERTEZA                          0501
A1301400340683756924001ALIPIO,ALEXII MAGTIRA AND                               10501
A1301400340683756924001DE GUZMAN,MELITONA ALIPIO                               20500
A1301400500000001412355MARIA HELEN L. DEL POSO OR                              10502
A1301400500000001412355MARLON S. DEL POSO                                      20500
A0101408240000012882418TOLOSA III, LAZARUS RAPHAEL OR                          10501
A0101408240000012882418ALCOBER, MELINDA                                        20500
A0101408240000012316055DAY, EVELINA OCHANGCO                                    0501
B0101408240711028488001INTAS DESTINATION MANAGEMENT INC.                        1610
B0101408240711032925022DLSZ (DE LA SALLE SANTIAGO ZOBEL SCHOOL)                 1601
B0101408240711038557001THE BRIDGE SCHOOL, INC.                                  1605
B0101408240711038557002THE BRIDGE SCHOOL, INC.                                  1602
A0101408240000002822062TY, ANNETTE SO                                           0502
B2801400100712032213001LIMECH MANUFACTURING AND TRADING                        11601
B2801400100712032213001CORPORATION                                             21600
B2801400100712582034002DONGHYUP PHIL. INC.                                      1603
A4101400390000013407084EDWARD M. ARTITA                                         0501
B4101400420814041065001HERITAGE ALUMINUM SALES CORPORATION                      1602
B4101400420000009391922INFORMATICS COLLEGE CAVITE, INC.                         1605
A4101400420000000710563RAPI, CANDY S OR RAPI SR.,                              10502
A4101400420000000710563NESTOR M                                                20500
A4101400420814342049001MENDOZA, DIVINA LORY ANN E. OR                          10505
A4101400420814342049001MENDOZA, GILBERT                                        20500
A4101400420814478374154CABRERA, FELIZA                                          0501
A4101400420000003715724FLAVIANO, PERLITA                                        0501
A4101400420814628150001PAYAD, NORANICA LOYOLA                                   0501
A4101400550000011973427DORDAS, FLORA ARAYA                                      0502
A4101400550815646085001BALIDO, BENJAMIN SALUD                                   0501
A0101412340000003342123RHEANN J. CRUZ                                           0501
A0101412340000008007776MARY ROSE A. PONGOS                                      0502
B0101412340000012536333UCAAS INC.                                               1601
B0101404840851046041001IFE ELEVATORS PHILIPPINES INC.                           1601
B0101404840851046041001IFE ELEVATORS PHILIPPINES INC.                           1619
B0101404840000006365251NEW GENERATION LINK CONTRACTING AND                     11602
B0101404840000006365251TRADING SERVICES                                        21600
A0101404840851542980001MASANGCAY, NORA VERCELES                                 0501
A0101404840851546795001ALCANTARA, JOEL CASTILLO                                 0501
B0101405070861007996001INTERLINK TRAVEL CORP.                                   1603
B0101413860000011297539NEGROS HOLDINGS AND MANAGEMENT CORP                      1602
A0101413860000001886979DE LEON, MARTHA DBU JECA PACKAG                          0501
A0101413860000001886979DE LEON, MARTHA DBU JECA PACKAG                          0502
B0101413860000008668664DYNAMIC FOOD FACTORY INC.                                1605
B0101413860000009426411ONG, JEFFERSON CHAN DBU STITCH                          11601
B0101413860000009426411PRO MARKETING                                           21600
A0601400230891254711002VITUG, CESAR JAY OR LERMA                                0501
