A3001400130000006145228DEDICATORIA, ROMEO DBU LCM MARK                          0510
B0101412210000003881221SMART & PLAN CONSTRUCTION AND                           11602
B0101412210000003881221CONSULTANTS INC.                                        21600
A0101412890000000007514RICO T RIVERA DBU WISEMIX                               10502
A0101412890000000007514CONSTRUCTION SUPPLY                                     20500
A0101411790518055815164TULID, CHARITO DAUS                                      0501
A0101400860000005312903**********                                               0502
B0101400860011305536001**********                                               1601
A0101400860011658981001**********                                               0502
A0101400860011676841001**********                                               0502
B0101401250021047268001ECO TECH INDUSTRIAL SUPPLY CORPORATION                   1601
A0101401250021393356001ALVIAR, ANGELITO SANTOS OR                              10502
A0101401250021393356001ALVIAR JR., ANGELITO G.                                 20500
A0101400150000006994149BLESS TENORIO                                            0502
A0101400150061510141001MAPANAO, BILLIE TAMSI                                    0501
B0101405810072083905001HONG, HAN MING                                           1601
A0601400100000006333928COMEO, CHAD                                              0502
A0601400100081032473001HOUSE OF MANY MANSIONS MEMORIAL                         10502
A0601400100081032473001CHAPELS                                                 20500
A0601400100081251935001DIZON, HENEDINA OR DIZON, TANYA                         10502
A0601400100081251935001OR DIZON, ROWENA                                        20500
B0601400360000003186689GOLD TREE TOBACCO MANUFACTURING CORP                     1605
B0601400360000003186883GOLD TREE IMPORT AND EXPORT INC.                         1602
B0101413280000000041910INTERNET OF THINGS PHILIPPINES INC.                      1602
A0101413730000000469147PROLINE PLASTIC CO.                                      0502
A0101400730000002882353DELA ROSA, RUTH LABADAN                                  0501
A0101400730000000833083MONTERAS, YOLANDA MABATO                                 0501
A0101401960121318781001**********                                               0502
A0101401830141205710001*****                                                    0503
A0101400440161039572069IMELDA A. ESTRADA                                        0501
A0101400440000002035063BUGA, JULIET BONADOR                                     0502
A0101400440161045289001RAPTURE CAFE' BAR                                        0502
A0101400440161452744001CRISTINA P. UMALI                                        0502
A0101400440161625470001KRISTINE A. CECILIA                                      0501
A0101407270000007502309MORALES, MARC STEVE CONCEPCION                           0501
B0101407270000000830653LA RIE FINE JEWELRY CORPORATION                          1601
A0101407270000000818224****************                                         0502
A0301400530000001409621ARASA, ELEUTERIA A.                                      0501
B0301400660000000195077VALOR SECURITY AGENCY, INC.                              1605
B0101401380201042553001MUSTANG SECURITY AGENCY, INC.                            1605
B0101401380201042910001SECURITRON SECURITY SERVICES, INC.                       1605
A0101401380201618189001CINCO, ROSA OR LAM, LAURENCE                             0505
A0101412500000002304741GONZALES, GEORGE CONCEPCION                              0501
A3001400130000006145193ALBIVA, JERSON TAO-ON                                    0502
B1001400190231010692001PHILIPPINE IRON CONSTRUCTION & MARINE                   11605
B1001400190231010692001WORKS INC.                                              21600
A1001400190231275093001CAUMBAN, CRISTY MARIE                                    0502
A1001400190231478374179BACAN, JULIET                                            0501
A1001400190231520766051NANCY DAAYATA                                            0501
A1001400190231520766087MONTE, LEONORA BATERNA                                   0502
A1001400190000002170656AMELINA E. FACTURA                                       0501
A1001400350000000017774VENADAS, MARC LOUIE L. OR                               10505
A1001400350000000017774VENADAS, ANGELIC                                        20500
A1001400350000004095396PACURIBOT, JERRY MAGANA                                  0501
B1001400350233036184001MINDANAO CHRIST'S GOSPEL ACADEMY, INC.                   1602
B1301400470000000009561FUND LINK CREDIT & LOANS, INC.                           1603
A1901400290000001362903NONATO RODELAS MONFERO OR                               10501
A1901400290000001362903ERVENILDA PATRON MONFERO                                20500
A1901400290000001926296DINDO PATRON BARTE OR FLORINDA                          10502
A1901400290000001926296MASAS BARTE                                             20500
A1901400290000001975255JIAO, AGNES TUBILLEJA                                    0501
A1901400290000000030713DR. VICENTE LORENZO                                     10501
A1901400290000000030713DIMAYUGA JR.                                            20500
A1901400290261478374031REALYN MARASIGAN CUENCA                                  0503
A1901400290261635338001ERWIN R SALES                                            0501
B0101401670271007375003MULTI-FOLD LINKS, INC.                                   1605
B0101401670000006812331WERQUICK INC.                                            1605
A0101401670271603732001GREGORIO, REYNALDO CRUZ                                  0501
A0101406620000000962181RIOJA, MANUEL CALIXTO DELA CRUZ                          0501
B0101411110000000009098NET4SITE PHILIPPINES INC.                                1602
A0101412470000000853834CHUNG, EUN JOO                                           0502
B0101400570281027866001MEDICAL EQUIPMENT HEALTH CARE GROUP                      1602
A0101400570281405675001SALLY ANN CLARK                                          0502
A0101400570000003891521YU, LESTER CO                                            0501
A2601400270302574301001ALEX UY TY                                               0502
A6601400120000001065263AMANDE, BEATRIZ NALAZON                                  0501
A6601400120314614598001BELLAFLORES, MYRLIN LONGCOP                              0502
B3401400280318044735001A & T SANTOS INCORPORATED                                1604
A3401400280000003309208CAPCOR MOTORS CORPORATION                                0502
A0101402350000003880513ENCINA, MANUEL OCOP                                      0501
A0101402350321478374054ALEGERE S. TAPAO                                         0502
A0101402510000007503039CERYL G. SAGUN OR AUBREYROSE J.                         10501
A0101402510000007503039CASILANG                                                20500
A0101402060351370605001*****                                                    0503
A0201400920375609447001RAMIRO, MARIA ARCELI AVANZADO                            0502
A0201400890000002270173CHAVEZ, WILLIAM LOTHO                                    0502
A0201400890000002270202GASPAN, JESUS ANDALES OR                                10502
A0201400890000002270202ENANORIA, ELENITA M.                                    20500
A0201401020000000055952DANO, JOSIE DANAS                                        0501
A0101402770391743730001UMALI, EDUARDO BASCONCILLO                               0502
B01014054903920389180021STSERVE LOGISTICS, INC.                                 1601
A0101405490392171925001MARCELO M. DE LA ROSA                                    0502
A0101408400000004959511TAN, JENNIFER PAJAROJA                                   0501
A0101408400394028638001A. SANCHEZ CARGO SERVICES                                0504
A0101408400394618148001RINGOR, ELMER GULTIENO                                   0501
A0101409180000003780056MARY CRIS G. GUNSAY                                      0502
B1201400150421366008001SUN, FELIPE TAN                  JT                      1604
A0101403030441239449002**********                                               0501
B0101403320471024602001BWN REALTY CORPORATION                                   1601
A0101403320471570181001EMMA R. LIM                                              0502
A0101406330000002277927PRIVADO, NOEL MATAAC                                     0501
A0101406330000001235494DELA CRUZ JR., LORETO CRUZ                               0501
B0101406330000000432831OTO MARKETING, INC                                       1610
A0101406330472478374045LORNA D. GARADO                                          0502
A0101406330000000451329LANTO, PEDRO SILVA                                       0501
B0101412760000001399846BOX, JANUARIO DBU BRAINCHILD MARKETING                  11602
B0101412760000001399846SERVICES                                                21600
B1901400320000000041283SAN ISIDRO MULTI-PURPOSE COOPERATIVE                     1601
A1901400160491494343001RAINIER C UNTALAN OR                                    10504
A1901400160491494343001RELYN M UNTALAN                                         20500
B0101403580511020857001ROBROS INCORPORATED                                      1603
A0101403580511396632002JIMMY FRANCISCO P PEREZ                                  0503
A0101403580511420184003MARIA CAROLINA S. MACASAET                               0512
A0101405940000001534269**********                                               0501
A0101408530000004647996MANUEL, JUAN CARLOS OTEYSA                               0501
A0101411790518055764072BUTON, JUDY ANN VILLAMOR                                 0501
B0101403450000000135613AGILE GLOBAL FORWARDING, INC.                            1602
A2201400250561478374015ARLENE T. CERBAS                                        10501
A2201400250561478374015MEMBERS OF NATASHA                                      20500
B0101407720602022973001MMC SECTION OF PSYCHIATRY                                1601
A0101407720602326333001SATURNINO PEREZ JAVIER                                   0502
A0101407720602345195002GEORGE T. GODUCO OR                                     10502
A0101407720602345195002MA. TERESA P. GODUCO                                    20500
A0101407720602348840002MACALINTAL, CLAVEL MARANAN                               0503
A0101407720602403595001CARMENCHU MARIE ECHIVERRI OR                            10502
A0101407720602403595001JAY VILLAVICENCIO                                       20500
A0101407720000003886831CASTRO, MARC ANTHONY                                     0502
A0101404260611495948001NON, GLORIA CARIAGA                                      0501
A0101404260611635256001ABELLA, EDUARDO JUAN FAUSTINO                            0503
A0101404260000000156778LIM, MILAGROSA EDNA MAGDANGAL                            0503
A0101409890000000437449**********                                               0501
A0101409920000000857989ABUYUAN, NORA G. OR                                     10501
A0101409920000000857989ABUYUAN, JIMMY G                                        20500
A0101411530000006792370FERNANDO, ROWENA V OR                                   10503
A0101411530000006792370FERNANDO, EDGAR P                                       20500
A0101411530000000741720**********                                               0503
A0101413440000002125428FADERANGA, L. DBU CAI MARK                              10502
A0101413440000002125428ENTERPRISE                                              20500
A0101413440000002125640MANUEL, A. DBU OPTIMUM MINDS ME                          0501
A0101413570000007170243KRISTINE GRACE R. TANJUTCO                               0501
A0101414120000000398910REYNOSO, ALMA VILLANUEVA                                 0501
A0101414120000001142852TERESITA M. PUYAT OR MARY ANN                           10505
A0101414120000001142852MAGNO                                                   20500
A0101406590662206741001JOSEPH OR JOCELYN BALANAG                                0501
A0101410300000002375777******                                                   0502
A1301400210000003104912ZEN TEN TRUCKING AND HAULING SE                          0501
B1301400340683353482001MARLENE R. JOSE OR JOSE MARI R. JOSE                     1602
A1301400340683502150002LLANILLO, OSCAR PINEDA                                   0502
B1301400500000005963404PAGASA PHILIPPINES LENDING COMPANY INC.                  1605
A1301400500000002063963NICOLAS, JAY JOSEPH GARCIA                               0502
B1701400230000002762525TOWN BAKERY AND CITY GROCERY INC.                        1602
A0101408240000000521720RICAFRENTE, MA. ANALYN DELFIN                            0504
A0101408240711590128001JUAN, LUZVIMINDA DOMINGO                                 0501
A4101400420814478374167SAN AGUSTIN, EDITHA L.                                   0501
A4101400420000004848006LEGASPI, CHARLENE A                                      0501
A4101400420814520766138SAN PEDRO, ANA LIZA                                      0501
A0101412340000005091292JENNALEE P. VILLASANTA                                   0501
A0101412340000003342492NOEL C. DELA PENA                                        0501
A0101412340000003343513ROALD KEMP M. GARCIA                                     0501
A0101412340000003345753CRISTOFFERSON M. REYES                                   0501
A0101412340000004360376RENEEZZA R. GAYARES                                      0501
A0101412340000004360843MA. CRISTINA F. ABRERA                                   0501
B0101404840851021512001STI COLLEGE ALABANG, INC.                                1603
A0101404840851478374071MARITESS C. CASARILLA                                    0501
A0101406750852084318001SIBUG, GENEATH P. OR                                    10502
A0101406750852084318001SIBUG, ERNESTO M                                        20500
A0101405070861478374086MARLYN C. GABEST                                         0502
