F0101401250021378468001**********                                               2501CKO
F0201400180181062019001CEBU BELMONT INCORPORATED                                2601CK1
F0301400110191059510002ZOOFARI GROUP INC.                                       2605CKR
F19014002902610330920013MSTEAM LAUNDRY INCORPORATED                             2615CKO
F1901400290261035027001GREEN NATURE FEEDMILLING CORPORATION                     2603CKO
F1901400290261047635002SYLPAULJOYCE CORPORATION                                 2603CK1
F0101406620273031145004KOHL INDUSTRIES CORPORATION                              2602CK1
F0101400570281441951009HERNANDO L. CRUZ JR.                                     2505CKO
F0101409500000001160478G-DRIVE SOLUTIONS, INC.                                  2603CKR
F4101400420814012768007UNIDA CHRISTIAN COLLEGES, INC.                           2602CKR
