F0101401670271028082001DDT KONSTRACT, INC.                                      2601CK1
F0601400100081685142001POON, WAISILY LOZANO                                     2502CKO
F0101407300395406964001**********                                               2505CKO
F1901400160491040836004DR MA JOYCELYN R MERCADO                                 2501CKO
F0101414670000001341020CAPRIDRAKE DISTRIBUTORS INC.                             2602CK1
