B0101400730111821100608**********                                               2003
A0101405490392481659001MARITES Q. FACTURA                                       0501
A1001400350000000922218FGCC CONSTRUCTION AND SERVICES                           0502
B2401400180411014206001PANABO MULTI-PURPOSE COOPERATIVE                         1610
A0101412920000003465121MACAALAY, MALOU ANICETE                                  0501
B0101405650000000772721PREMIERE COMMUNITY PARTNERS, INC.                        1610
B0101402930000005645952FARMFRESHFORYOU CORPORATION                              1601
B0901400190431821200608**********                                               2002
A0101412890000001765404ACUNA, SALVADOR A OR ACUNA,                             10506
A0101412890000001765404ALONA C                                                 20500
A0101401250000000907131PERICO, AURORA ATIENZA                                   0501
B0101401250021006627002STA. CLARA PARISH CREDIT                                11601
B0101401250021006627002COOPERATIVE                                             21600
A0101400150061038536144ROMEO S. DAVID                                           0501
A0601400100000005050275RAPSING, DIANALYN DBU FEELBLUE                           0501
A0601400100081501761001TAN, WINTHEL OR RALPH                                    0502
A0101410560000005280699FELIX CHRISTIAN H ZEPEDA III                             0502
B0101400730111008255001MASAGANA TELAMART, INC.                                  1610
B0101400730111008255001MASAGANA TELAMART, INC.                                  1610
B0101400730111023283001INTRALAND RESOURCES & DEV'T. CORP.                       1605
B0101400730111023283001INTRALAND RESOURCES & DEV'T. CORP.                       1605
A0101400730000000833192GLEN T. NIOKO                                            0502
A0101400730111301951008EVALE, BENIGNA D.                                        0502
A0101400730000001822862ALVENDIA, AMADOR PAHATI                                  0502
B0101413310000001928889JPE SECURITY AGENCY                                      1601
B0101401830141045610001INTERZONAL COURIER SERVICE                               1601
B0101401830000001282462JAVIER, RAMONCHITO D. DBU R.D.J. TRADING                11605
B0101401830000001282462ENTERPRISES                                             21600
A0101401830000001281910DE GUZMAN, CONCEPCION FRANCISCO                          0501
B0101401830141521537001SOILTECH ARVAZA CORPORATION                              1603
A5001400170000000044982URBAN PAINTS & MORE ENTERPRISES                          0502
A5001400170000000213998DY JR., DIONESIO KIANG                                  10501
A5001400170000000213998OR DY, TESA TAN                                         20500
B5001400170000000169904GREEN SUMMIT REALTY AND MANAGEMENT                      11601
B5001400170000000169904CONSULTANCY CO.                                         21600
B0101400440161007542001PACE REALTY INVESTMENT INCORPORATED                      1601
A0101400440161525001179EDNA S. VILLENA                                          0501
A0101401090171033023002EXCELINK INSURANCE AGENCY                                0502
A0101401090171315141002VIRGILIO B. CASTRO                                       0504
A0101401090171331804002CAROLYN R. DAYRIT                                        0501
A0101401090000000772156JOHNNA ROSE S. ZERRUDO                                   0501
A0301400530193585849001COSMENO, MARINEO C.                                      0502
A0301400530193686503001CORPUZ, GLENN A.                                         0502
A0301400790000002301400LERIOS, HAMLET MONTEJO                                   0501
A0101401380000000682582********                                                 0502
B0101413020209821200608**********                                               2001
B3101400160221031027002ALLIED DOCTORS FOOD RESOURCES, INC.                     11601
B3101400160221031027002(COMFORT ZONE)                                          21600
A3101400160221478374057SABRINA N JORDA                                          0501
B1901400610226821100608**********                                               2002
B1901400610226821200608**********                                               2002
A1001400480000003357679SUMANDO, EXEQUIEL MANUEL                                 0503
B0401400430244821100608**********                                               2002
B0101401670271007482001VISEVERSA, INC.                                          1605
B0101406460272021222001ORION WIRE & CABLE INC.                                  1602
B0101406620000000194001VICTORIAS MILLING CO., INC.                              1601
B0101408660274042220001****************                                         1605
B0101411820000003085112HARDCOM COMPUTER SYSTEM CO.                              1601
A0101412470000005380303TE, MA. ROSELLA PARASO                                   0503
A0101411240000002332496LAWAN, CARINA CRISOLOGO                                  0502
A6601400120000003673136DOMINICE, IGMELITA PEDROLA                               0501
A3401400280000001723440EDUQUE, JESSIE ECARAN OR EDUQUE                         10502
A3401400280000001723440RUELYN CAPUNONG                                         20500
B0101405650000000772743BF FEDERATION OF HOMEOWNER ASSOCIATION                   1605
A0101405650322764132001BACERO, RENATO ARROJADO                                  0501
A0101402510341199103002********                                                 0502
A0201401020000000470193LOUIE PENA'S TRAVEL TOURS & EVE                          0501
B0101402930381516506001I-ASIATIC INNOVATIONS PHILS., INC.                       1604
A0101408370382076877001KAREN M. LANDICHO                                        0501
A0101402770391338470001ALARCON, EMELITA DE LEON                                 0501
A0101402770391478374049DELA TORRE, EDITHA ZARAGOZA                              0501
A0101405490000004808646MAMUYAC, KRISTIAN PERALTA                                0501
A0101405490000006241903PALLON, EMILY C. DBU MIL-LON EN                          0501
A0101405490000000444477MARIA TERESINA G. MESINA OR                             10504
A0101405490000000444477ALFONSO E. MESIN                                        20500
A0101408400000003421445ANONUEVO, JEANELYN MALANO                                0501
B0101409180000002036846IMPACTHUB PH INC.                                        1601
A0101409180000004959635FERRERAS, EDWIN L. DBU BICORE                           10501
A0101409180000004959635ONE NETWORK ENTE                                        20500
A0101409180000002252648***                                                      0501
A0101409210000003297530ARTHUR POLICARPIO                                        0501
A0101412210000001347611MALICAD, MYLENE QUEMQUEM                                 0502
A0301400820000008056991LADERA, CRISTITO                                         0502
A0301400820000001554894ESTREMOS, VERONICA T.                                    0502
A0301400820000003148605DENUNA, LYNETTE ANN B.                                   0501
A0301400820000006542674DENUNA, JULIUS NICK L. OR                               10501
A0301400820000006542674DENUNA, LYNETTE ANN B.                                  20500
A2401400180411478374050****************                                         0501
A0101403030441239049001**********                                               0501
B0101403030441303324001**********                                               1602
B0101412890000003727924R. ABALOS CONSTRUCTION CO.                               1605
A0101403320000006026911ANA SAYSON DBU MALEFICENT                               10502
A0101403320000006026911ENTERTAINMENT PRODUCTION                                20500
B0101410140475045534001J-BREN STAR CORP. DOING BUSINESS UNDER                  11602
B0101410140475045534001THE NAME AND STY                                        21600
A0101412760000002262864MANAGO, MICHAEL BATIQUIN                                 0501
B1901400160000000007467FIRST UNITED 23, INC.                                    1610
B1401400110492046339002******                                                   1620
A1401400110492220742001DR. JOHN BUNYAN D. CALAMIGAN                             0502
A1601400170000001360689ALBERT S. ALEGRE                                         0501
A1601400170000000421172PARES PRINCE FOOD HOUSE                                  0505
A0101407430000008106698DIOKNO, JACQUES KATE CALVEZ                              0501
A0101407430503185438005LETICIA D. JIMENEZ                                       0503
B0101403580511020857001ROBROS INCORPORATED                                      1603
B0101406880513281235002LUCKY MONEY LENDING CO., INC.                            1603
A0101408110000001823810REMOLACIO, FRANCIS LILIAN DBU                           10502
A0101408110000001823810BLUE SKY TRANSPORT                                      20500
B0101408530516037477002VXI GLOBAL HOLDINGS B.V.                                 1605
B0101403450521011626001**********                                               1602
A0101403450521237475001**********                                               0501
A2201400250561028327002******                                                   0502
A2201400250561254819001ADONIS V. GARCIA OR                                     10502
A2201400250561254819001MARY T. GARCIA                                          20500
A0101407720602298709001JOSEPH B. BARRIL OR FE ANA                              10502
A0101407720602298709001BARRIL                                                  20500
A0101409920000005460737MEMBERS OF NATASHA (SHOECAT INC                         10501
A0101409920000005460737HERRERA, GINA G.                                        20500
A0101413570000001720212NIMFA C. ESPULGAR                                        0501
A0101413990000006768558HERRERA, BOBBY L.                                        0501
A0101406590662363449001LA VINA, ANGELINA SAN JUAN                               0501
A1301400210000003104912ZEN TEN TRUCKING AND HAULING SE                          0501
B0101408240000000832757RARE GLOBAL FOOD TRADING CORP.                           1601
A0101408240711785513001STRACHAN, JAMES JIMENEZ                                  0501
A2801400230713414628001ENDAYA, MARITES PRONTO                                   0504
A4101400260812383492002MARIA OLIVIA V. MARAAN                                   0502
A4101400550000000315040BUMA-AT, THELMA                                          0501
B0101404840851009287001K SERVICO TRADE, INC.                                    1603
A0101406750852445042001BATHAN, ISAGANI GASALATAN OR                            10501
A0101406750852445042001BATHAN, MARIA PE                                        20500
A0101405070861321046001MARK LAURENCE V. LEBRIA OR                              10503
A0101405070861321046001GERLY D.C. LEBRI                                        20500
