B0301400530193821100608**********                                               2010
A0301400530000012016903SALMAGRENDE, EVA MACANAS                                 0503
A1901400290000003252786JOHNAS ENDAYA GALIT                                      0501
A0101400860011379561003**********                                               0502
A0101400860011397182002**********                                               0502
B0101400860011517871001**********                                               1601
A0101400860011562862001**********                                               0501
A0101401250021401825001CHUA, REYNALDO MAGNO OR                                 10506
A0101401250021401825001CHUA, EMMA GESLAni                                      20500
A0101400150000003218373GRISELDA B. TESORO                                       0501
A0101400150000013484221EBRAHIM, ASIF                                            0501
A0101400150061603265001CAMATOG, ROMCYN DEL ROSARIO                              0501
A0101400150061709306001NGABBU, ALFIE JOY BACANI                                 0501
A0101400150061709575001CLEMENTE, MAUREEN LORICA                                 0501
B0101405810000005943320D.W. PLASTIC CORPORATION                                 1601
A0101414090000011598033FERNANDEZ, JELOFEL VILLARO                               0502
A0101414090000014404930RAMOS, PRISCILLA IGNACIO                                 0501
A0101406040000013257422PITUK, JAIME ROQUE DBU JERLU EN                          0502
B7201400170000007185562CARUMBA, MARGIE SEPADA OR CARUMBA,                      11601
B7201400170000007185562DANIECITO PASCO                                         21600
A7201400170000011454287OBAOB, MARIE FE MARAASIN                                 0501
A7201400170000013462716SUSON, SILVESTRE FLORES                                  0501
A0101407270000011651700CARLOS, RAHYAN QUIZON                                    0502
A0101407270000014296978CONANAN, TERESITA DE VERA                                0502
A0101401090171410027001ERIC T. CHIONG OR ELLEN CHIONG                           0503
B0301400530000007345533VENEERING MASTER WOODPHIL CORP.                          1603
A0301400530000000025232LYDIA ESTOSE                                             0501
A0301400660000008940989BANDAYANON, HEMERITO SENDIN                              0506
A0101401380000000106549********                                                 0501
A0101410720000011909687CUA, JEOSEN SY DBU KNIGHT-                              10501
A0101410720000011909687TELECOM VARIETY STORE                                   20500
A0101412500000001147017MOLDEZ, AZIEL JIREH                                      0502
A0101412500000005300758REY-MATIAS, MATTHEW AQUINO                               0501
A3101400160000001792003MARLON G GARCIA                                          0503
A3001400130000002063441JONGKO, JOSE MARI MARCO OR                              10502
A3001400130000002063441JONGKO, DEBORAH                                         20500
B3001400130230043293001L.M. TING FOODILICIOUS CORPORATION                       1620
A3001400130000008915971JUBAC, CHARLES TATAD                                     0502
A1001400190231629873001BOMEDIANO, ANASTACIA SEMAFRANCA                          0502
A1001400350000007762538HERNANDEZ, HIYASMIN TAYLO                                0503
A1001400350000012928155LOBUSTA, CHERYLL AURORA BORROME                         10502
A1001400350000012928155OR LOBUSTA, ERNA                                        20500
A1001400480000014871293SARMIENTO, MARIO PAULUS CESAR B                          0501
A1001400480000011810056NAVAREZ, MARGIE ABASTAS DBU                             10502
A1001400480000011810056MADANO MARKETING                                        20500
A1301400470000013690030JOAHNA MARIE T. SIMON                                    0501
B1301400470000000009561FUND LINK CREDIT & LOANS, INC.                           1602
A1301400470252486858001NICOLAS A. BELEY                                         0501
A1901400290000011203464SHEILA GARCIA STA ANA                                    0501
B1901400290000001363188RD PAWNSHOP, INCORPORATED                                1606
B0101406460000000182370WEE COMMUNITY DEVELOPERS, INC.                           1603
B0101406460000000182409MAN ASIA MANPOWER AND GENERAL SERVI                      1602
A0101406460272358045001VALERIO, RAMON TORRES                                   10502
A0101406460272358045001OR JANE VALERIO                                         20500
A0101406460272411543002ZAMORA, KERI LYNN N. OR ZAMORA,                         10505
A0101406460272411543002FRANCISCO JAVIER                                        20500
A0101406620273523123001RESURECION P. VILLAR                                     0502
A0101406620273575453001*********                                               10501
A0101406620273575453001*********                                               20500
A0101406620273575453002**********                                              10501
A0101406620273575453002**********                                              20500
A0101412470000002135940KUNG, SUSAN GO                                           0502
B0101400570281043944002EXLO MANPOWER AND ALLIED SERVICES, INC.                  1601
A2601400270000007951177RAYMOND RUEL D. VALLE                                    0502
A6601400120000011286430LIM, RAENAR MONFORT DBU WEBUILD                         10501
A6601400120000011286430STRUCTURE                                               20500
A3401400280000000156621LOIDA C. GARCIA                                          0502
A0101405650000005284419BAGAPURO, LESLIE TIMBAL                                  0502
A0101405650322172570002********                                                 0502
B0101402510341008094001MOTHER EDELWINA SCIENCE FOUNDATION, INC.                 1601
A0101402510341487199001NESTOR B. ESTABILLO                                      0502
B0101402060000000022766SUMMA WATER RESOURCES INC.                               1601
A0101409050000006986716PARAGAS, LEAH PATRICE BORJA                              0501
A0101409050000014598340MACAPAGAL, CARL STEPHEN VALLERO                          0502
A0101409050000012409886LLORCA, NGAN LIN YU                                      0501
B0101409050352040431001PACIFIC STARR ALLIANCE CORP.                             1605
A0201400760000011472267ALBA, JOSE MARI ATILLO                                   0501
B0201400760374036911001CEBU ATG REALTY DEVELOPMENT CORP.                        1601
A0101411660000003580341BESSIE L VALENZUELA                                      0502
A0101408400394540276001LIM, JENNIFER S                                         10502
A0101408400394540276001OR LIM, ROBERT C                                        20500
A0101408950000007458997TIONGSON, CRISTINA TALAVERA                              0502
A0101408950396068909002HADAP, B DBU                                            10501
A0101408950396068909002ZION ONE ENTERPRISES                                    20500
A0101409180000002252513ENCABO, CARINA OR ENCABO,                               10503
A0101409180000002252513JOSELITO RAMIR                                          20500
B0101409180000000874773R.R. ENCABO CONSTRUCTORS INC.                            1605
A0101409210000006605450REYNIDA TANDANG                                          0502
A0301400820000006542801FAGUTAO, FERNAND OR                                     10501
A0301400820000006542801FAGUTAO, CYD CELESTE                                    20500
A5501400120000009875763DELA CRUZ, ROY GO                                        0501
B240140018041103580100321 CENTURY SMOKED FISH CORP.                             1602
A2401400180411475726001CED, JAN SYGO                                            0501
A2401400180000000073469TAPUZ, JOSEFINO TORCUATOR                                0501
A1201400150000011415886MACAYAN, FLORDELIZA MARIANO                              0501
A0101410140000014244812MARINAY, EXEQUIELA INOCENTES                             0502
B3801400170000013450101GUMAPAC, RIC R DBU RGDG CONSTRUCTION                     1601
B0101407430000001028988********                                                 1610
B0101403580511005607002RAM FOOD PRODUCTS, INC.                                  1605
B0101403580511036608001WELLTHY SOLUTIONS INC.                                   1610
A0101405940512481887001LEONILA P. ANDAL                                         0501
A0101408530000014866621BAUTISTA, PHILIPPE ANTHONY CHIO                          0501
A0101411790000011046670KELLEY, CLEOFE LYN SARRAGA                               0501
A0101412050000003966763DE LEON, ARTURO PUZON OR                                10501
A0101412050000003966763DE LEON, WILFRED                                        20500
B0101403450521012009001SYMPHONY TECHNOLOGIES, INC.                              1605
A0101403450521386450001Chua, Carlos or Chua, Lily or                           10501
A0101403450521386450001Chua, Charles or Yu,                                    20500
A2201400250000013859055CRUZ, MARIZA COCHON                                      0501
A2201400250561258530021WILSON S. TOLENTINO                                      0501
A0101407720602278177001ELIZABETH B. VILLAGONZALO OR                            10501
A0101407720602278177001FRANCO B. VILLAG                                        20500
A0101404260000014868974CALARA, LEVIS SUNGA OR                                  10501
A0101404260000014868974CALARA, MARIA SUNGA                                     20500
A0101404260611005236001WILTRON ELECTRONICS                                      0502
B0101404260611028921001KICEM TRADERS AND CO. INC.                               1610
B0101404260611155434001SAMMY L. ESGUERRA, INC.                                  1601
A0101409920000001539620PANAGA JR., FLAVIANO AGGUIAO                             0501
A0101409920000001951982MEMBERS OF NATASHA (SHOECAT INC                         10501
A0101409920000001951982TORRELIZA, GINA                                         20500
A0101407690000014867026ZARAGOZA, CHERRY ANN MORLEY DBU                         10501
A0101407690000014867026RETINQ COMPUTER SOLUTIONS                               20500
A0101407690652525001047NOEMI B. BUNDA - DEALERS OF                             10501
A0101407690652525001047SHOECAT INC.                                            20500
B0101413570000005867485POWER BUILT HARDWARE AND CONSTRUCTION                   11603
B0101413570000005867485SUPPLY                                                  21600
B0101414120000001984290GREENERGY SOLUTIONS INC.                                 1601
B0101406590662042173001NEW ARCOND BUILDERS INCORPORATED                         1601
A0101410300000007614093LIMGENCO, DENISE MICHELLE DAYRI                          0501
A1301400500000014046670MPR BUILDERS SUPPLY                                      0501
A1301400500000000213210RBN ENGINEERING & DEVELOPMENT                            0503
B0101408240000013786935STONEGRILL STEAK CONCEPTS INC.                           1605
A0101408240711372755003SIMPAO, IAN FRANCIS OR                                  10501
A0101408240711372755003MENDOZA, JOANNA                                         20500
A2801400100000006279792VEDAJA, SANDY MIRAVALLES OR                             10502
A2801400100000006279792ONG, WILLIAM OCA                                        20500
A4101400260000009533699BAYBAY, MICAH JANE DELOS SANTOS                          0502
A4101400260812246078001EMILANIE J. ESTOCADO                                     0504
A0101412340000009501133JOSEPH RAMON L. CAMPOS                                   0502
A0101404840000014671895LIMOSINERO, MARK BRYAN OAMIL                             0501
B0101404840000014874685INTRAVERTEX REALTY INC.                                  1601
A0101404840851217637095MELINDA VILLAGOMESA                                      0501
B0101405070861008460005STARS TRAVEL INCORPORATED                                1602
