A0901400220000013237742**********                                               0502
A0901400220432478374001LEONARD GO LOZADA                                        0501
A0901400220000000425045LOZADA, ELIZABETH GO                                     0501
A1001400350000012928111LAO, NORMAN GO DBU POWER                                10502
A1001400350000012928111FITNESS GYM OR L                                        20500
A0101402510000000200153LPR GRAPHIC DESIGNS                                      0502
A0101402510000013485640**********                                               0501
B0101410300663082813001DELTA GRID POWER SYSTEM CORPORATION                      1610
A0101400860000002333604**********                                               0503
B0101400860000011853957*************                                            1603
B0101400860011236251001**********                                               1602
A0101400860011462049001**********                                               0502
A0101400860011463583001**********                                               0503
A0101400860011467833001**********                                               0501
A0101400860011467833002**********                                               0502
A0101401250900000845962MANGATONG, CHONA PARCO                                   0502
A0101401250000000441074BUNYE, EMILINA DELA CRUZ OR                             10501
A0101401250000000441074DELA CRUZ, LUISITO                                      20500
B0101400150061011178002SOLID MILLS, INC.                                        1603
A0101400150000012145925CALLAO, JUDITO DEI RAMIREZ                               0501
A0601400100000010024914BOK, JANE DUE DBU MOGORA ASIAN                           0505
A0601400100000018775343DILAG, MARIA ELENA VIRAY                                 0501
A0601400100000018775434EDNER, BRYAN FERRER                                      0501
B0601400100000005690593BALIGRILL FOOD CORPORATION                               1604
A0601400100081742493001SANTIAGO, FELICISIMO VALENCIA                            0502
A0601400520000001349560MAGAT, ALLAN MANLAPIG DBU MAGAT                         10501
A0601400520000001349560ACCOUNTING FIRM                                         20500
A0101410850000000005712MACANAYA, AMELIA DBU NUMBERS                            10501
A0101410850000000005712AND LETTERS LEARNING CENT                               20500
A0101410560000017372500SANTOS, ANNALIZA ZAPATA                                  0502
A0101401960000002331813LADARAN, LANI VILLANUEVA                                 0501
A0101413310000003169293ART GEORGE B. TOBIAS OR                                 10502
A0101413310000003169293MA. CRISTINA C. TOBIAS                                  20500
B0101401830141039167012CARITAS SALVE CREDIT COOPERATIVE                         1602
A5001400170000006294671CHAN, JIDDA BAJAMUNDE                                    0501
A5001400170000000214020ARNOCO, MARIETA DIAMANTE                                 0502
A5001400170000016176642YU, MARICEL BABIA                                        0502
A0101400440161798533001MINGOY JR., ANDIOLO PATCHICO                             0502
A0101401090000018301412ABAYA, ARSINETTE GONZALES                                0501
A0101401090171198491001DR. LARRY S. KING                                        0503
A0101401090171201345002MA. CECILIA OR RAMIL TIO CUISON                          0501
A0101401090171329912002MICHAEL S. CUNANAN                                       0501
B0301400530000007345533VENEERING MASTER WOODPHIL CORP.                          1605
A0301400790000003969611BERSABAL, AGNES TUBANG OR                               10502
A0301400790000003969611BERSABAL, MARVIN                                        20500
B0301400950000013759232DETAIL ONLINE TECHNOLOGY INC.                            1603
B0301400950000000566912SOUTHGATE MANAGEMENT AND CONSULTANCY                    11601
B0301400950000000566912GROUP, INC.                                             21600
A0101401380000018277411REYES, EDWIN SANTOS                                      0501
A0101413020000006295823CORTES, GEORGINA ALEXANDRA ANN                           0501
A0101413600000005355197JULIO CESAR AGUILUZ                                      0501
B0101413600000005524772GENERAL POWER EQUIPMENT                                 11605
B0101413600000005524772SOLUTIONS INC.                                          21600
B0101413600000005524807TRUCKMASTER GOLDEN BODY MFG. CORP.                       1602
A3101400160000008941453JULIANO, JOSEPH ALABADO                                  0503
A3101400160000010054803KEMPIS, LOURDES GABRIOLA AND                            10501
A3101400160000010054803KEMPIS, JESELLE                                         20500
A3101400160221533266001ANGELITO S. LAZARO JR.                                   0504
A3101400870000017261411QUIROL, EVER CHAVEZ                                      0501
A3001400130000012557870DE GUZMAN, SHANE MARIE ALABA                             0501
B1001400190231014376003PENBANK, INC.(A PRIVATE DEVELOPMENT                      1603
A1001400190231520766004YACON, VIOLETA PAUNILLAN                                 0501
A1001400190231520766086ABANG, ELVIE EGDAMIN                                     0501
A1001400190000001057636VIRTUDAZO, JENEFER S.                                    0501
A1001400350000012928053SY, AMY BO                                               0505
A1301400470000013690030JOAHNA MARIE T. SIMON                                    0502
A1301400760000000050671JEFFREY D. ABESAMIS OR                                  10501
A1301400760000000050671CINDY F. ABESAMIS                                       20500
B1301400760000000050773GG&G DISTRIBUTORS INC.                                   1610
A0101401670000015040609CHEUNG, BRAD BOIE PETER SORIANO                          0502
B0101401670271191081001EAGLECOR, INC.                                           1605
A0101406620273038576001VENTURE 11 FOODS EXCHANGE                                0501
B0101411110000000009101ILLUMINATE DYNAMIC MEDIA INC.                            1601
A0101411820000012327252PRINCESS ANGELICA CONSING BDU                           10502
A0101411820000012327252PAC EQUIPMENT RENTAL SVCS                               20500
A0101412470000010561714UY, MARK BENEDICT ABELITA                                0503
A0101400570281186601002DR. JOSE PEPITO AMORES                                   0502
A0501400200000006272153MACARAEG, CHARI DULAY OR                                10501
A0501400200000006272153MACARAEG, RICKY BAYSIC                                  20500
B0801400160311022546001POWER ALLIANCE CORP.                                     1605
B1101400120313022546001POWER ALLIANCE CORP.                                     1605
A3401400280318086148002FLORENTINO, MIRALUNA LOYOLA                              0504
A2901400130000009071972LEGASPI, JANSELMA NINA MIRALLES                          0501
A2901400130000009071983FULGENCIO, CECELLE FRANCISCO                             0501
A2901400130000011947450ANDONG, RIZA MAE CONCEPCION                              0501
A0101405650000016904193CORDIAL, MARIA FLORENTINA ORTEG                          0502
B0101402510341014966001CEUFAWU-SOP                                              1602
A0101409050000003533480SY, MARK RAYMOND C.                                      0502
B0101409050000013167681INS BACK OFFICE SOLUTION SYSTEMS IN                      1601
A0201400760000011325801BELARDO, MARIA KRISTINA SOLIMAN                         10501
A0201400760000011325801DBU KRISJHU FOODS AND MER                               20500
A0201400890000006717053DACAY, RAMON UY OR DACAY,                               10501
A0201400890000006717053THELMA DY PICO                                          20500
B0201401020000005110001HERITAGE 1963 INC.                                       1610
A0101402930000007030980LEE, GWANGSHIN                                           0504
A0101408370000006446302VELASQUEZ, ELIZABETH RAE C.                              0501
A0101408790000014277962OZAWA, FUMIAKI                                           0501
A0101408790000000600002SHAN MARBLE & GRANITE SUPPLY                             0504
A0101402770000018079888BALATBAT, WINEFREDO MATEO                                0502
A0101402770391028626002RED ELEPHANT TRADING                                     0502
A0101402770391212085001CATAPIA, EUGENIA MARASIGAN OR                           10502
A0101402770391212085001CATAPIA, REDEL CRUZ                                     20500
A0101402770391216911001GRACE V. YUZON                                           0502
B0101405490392006541001GLOBALTECH AUTOMATION, INC.                              1605
B0101405490392029745002MESINA BROTHERS, INCORPORATED                            1601
A0101408400000002273207HONG, RHOMINA BERNARDO                                   0501
A0101408400000003120725ANG, ALFONSO ONG                                         0501
B0101408400000003120587YSON, SHERILYN CAJUDAY AND                              11601
B0101408400000003120587YSON, LEONARD                                           21600
A0101408400000018634632LLABORE, ELLEN MARIE OBICO                               0501
A0101408400000015624725CORNELIO, REBECCA SOLERO JT                             10501
A0101408400000015624725CORNELIO, ABNER PENDRE                                  20500
B0101408400000000077872TECH-ASIA INDUSTRIAL ENTERPRISES                        11602
B0101408400000000077872CORP.                                                   21600
A0101408400394517455001ORDENA, JOVITA VALIR                                     0502
A0101408950000011764937CARMELO, MA. LIZA QUETULIO                               0501
A0101408950000001785544MALABANAN, M DBU                                        10505
A0101408950000001785544ONE MEGA LOGISTICS                                      20500
A0101409180000003780701LIM, ROCKFORD TUPAZ                                      0502
A0101409210000018471424PINEDA, JEAN PAULA COTON                                 0501
B0101409210000000031192LSC CORPORATION                                          1602
A1201400150421459509001TEE, CHITO LAYUGAN                                       0503
A1201400150421478374014PERIDO, MARY JANE                                        0502
A1201400150421685972001JUCUTAN, HEIDI BONDAD OR                                10502
A1201400150421685972001JUCUTAN, ROMMEL                                         20500
A0901400220000006214546**********                                               0501
A0101403030441660281001IRENE CHUA WU                                            0503
A0101412890000005913340TAI, EVELYN SIA OR                                      10501
A0101412890000005913340TAI, SUN WAH LAO                                        20500
A0101412890000012154595PAREDES, JOHN RUNDELL GUANGCO                            0502
A0101412890000018329605UMALI, BERNADETH ANNE UBALDO                             0503
A0101412890000012474301JOANALIE BRUNO DBU KORDERM SKIN                         10503
A0101412890000012474301AESTHETIC & WELLNESS CENT                               20500
A0101403320000011834952JOSE M. DELA CRUZ IV OR                                 10501
A0101403320000011834952ERIKA I. PANGAN                                         20500
A0101406330000000451216MARIBEL P. ZAFE OR                                      10503
A0101406330000000451216NOEL B. ZAFE                                            20500
A0501400170000000494611ROQUE, MARK JOHN PEREZ                                   0501
B0501400170481040337001JERON DISTRIBUTION GROUP INC.                            1605
A1901400320000000679250RUEL FLORES ILAO                                         0501
A1901400320000000041181LUISA FAYTAREN MACARAIG                                  0505
A1901400160000014655673FLICKINGER, GENESIS DE SILVA                             0501
A1901400160000018758479MANDIGMA, JELYN M OR                                    10501
A1901400160000018758479MANDIGMA, BIENVENIDO D                                  20500
B1901400160491029820003MONTENEGRO SHIPPING LINES, INC.                          1603
A1901400160491244484001IRENE H BERBA OR                                        10510
A1901400160491244484001CARLOS R BERBA                                          20500
A1401400110000013091559BUERA, ALICIA DBU VJ NARVAEZ GE                          0502
B1401400110492046339002******                                                   1620
B1401400110000000034693LUCENA CITY PHARMA CORPORATION                           1601
A1401400110492433218001MILLA, MAYNARD BUSTAMANTE                                0502
A1601400170000005991973UY, KATHERINE B. OR                                     10501
A1601400170000005991973UY, FERDINAND C.                                        20500
A0101407430000018179394GARCIA, ANNABELLE DELMO                                  0501
A0101407430000013169887LABRADOR, BENJAMIN ASINAS                                0502
A0101403580000015735272ABAN, ANNA MARIA ANGELA MAMON                            0504
A0101403580000014728022MELO'S WESTGATE FINE DINING                              0505
B0101403580000007864222WINNERGY HOLDINGS CORP.                                  1601
A0101408530000018790033SAN GABRIEL, DARWIN PIAD                                 0501
A0101408530000007981977LEE, LEA ANGELA BALINGIT                                 0503
A0101408530516513043001GUINGONA, MA. VICTORIA G. OR                            10502
A0101408530516513043001LORENZO, MARIA FATIMA G.                                20500
A0101408530000001886064MARIA THERESA L. FRANCISCO                               0501
A0101408530000005493369SABLAON, EARLMOND                                        0501
B0101411400000006561048HAMOY & ASSOCIATES                                       1602
A0101411400000017148551PASCUAL, MARISEL QUELING                                 0501
A0101412050000018205773MCGILVRAY, JING WU                                       0502
B0101403450521079217001DEPORRESANMAR CORP.                                      1601
A0101403450521239350001**********                                               0506
A0101410690000000710730DABLIO, PANFILA BARANDA                                  0502
A0101404130601708628001PABALATE, PACITA BATAC OR                               10501
A0101404130601708628001PABALATE, HELENA                                        20500
B0101407720602005906001ASSOCIATED MEDICAL & CLINICAL                           11610
B0101407720602005906001SERVICES, INC.                                          21600
B0101407720000006945282GREEN LIFT ELECTRO SYSTEMS &                            11603
B0101407720000006945282SERVICES, INC.                                          21600
A0101407720602196321001**********                                               0501
A0101407720602342044001DR. DARWIN ALBERT DASIG                                  0501
A0101407720602397745001DE JESUS, CELESTINA MARCOJOS                             0501
A0101407720602398283001JOEL A. DE LA ROSA                                       0505
A0101407720602527643001IGNACIO, ROBERTO GERARDO MASLOG                          0502
A0101407720000002693116PUNO, MARIA PATRICIA ANN TANEDO                          0501
A0101412180000013362799BOCTOT, KHELVIN BANAS                                    0501
B0101404260000008700798ONE SOURCE SPECIALIZED SERVICES INC                      1605
B0101409890000012558737I-TRESHOLD CONSTRUCTION SERVICES                        11602
B0101409890000012558737CORPORATION                                             21600
A0101411530000016783081RANQUE, MARIELLE COME                                    0501
B0101413440000014245160EDVESTMENT INC.                                          1601
A0101413570000005867430**********                                               0502
A0101413570656057648092ALICIA DELA CRUZ                                         0501
B0101406590662058753001F.C. DINO CONSTRUCTION                                   1605
A1301400210000017749949ONGSIAPCO, AL SEVERO SANTOS                              0504
B1301400210682039698001SEVENTY SEVEN TRAVELLERS INN CORP.                       1605
A1301400340000005264973MARCOS, MARVIN CUALA                                     0502
A1301400500000011254407GARBIDA, GABRIEL GUEVARRA                                0502
A1701400230000014313703BANGQUIL JR., JONATHAN PASCUAL                           0501
B0101408240711426139002EVER3 INC.                                               1601
A2801400100000011266954WYCOCO, ROMLEN CASULLA                                   0501
A2801400230000002312481IGNACIO, NORA DACAYO                                     0501
A2801400230000005253481KIM, MARY JOSEPHINE DAMIAN                               0502
B4101400260000006043534MEZELJO BARN YARD FOOD CORP.                             1602
A4101400420814520766135MOTILLA, ROSELLE                                         0501
A0101412340000007305757EVELYN D. ALVAREZ                                        0501
A0101412340850084786001MIRACLE GRACE S. DUMIP-IG                                0502
B0101404840000006365295PI COOL GAGS, INC.                                       1603
A0101404840851520766142ANITA DOGILIO                                            0501
A0101404840851520766180CARMELITA M. BARBACENA                                   0501
A0101413860000014390684MACEDA, CHARRY ANN MEJIA                                 0501
A0101413860000012211731MACARAMBON, ZORHAYA OR MUHAMMAD                         10501
A0101413860000012211731 HARRIS                                                 20500
A0601400230000001687090GUTIERREZ, JOSEPH MONTES                                10502
A0601400230000001687090OR GUTIERREZ, MA                                        20500
A0601400230000002650108TUAZON, REMIGIO ESCANO                                   0501
