F0101400860011041103001FORTUNE BAG FACTORY OUTLET                               2602CKO
F0201400180181396648003LIM, OLIVIA OR JEFFREY                                   2501CKO
F1901400290261039254006DR ERMIN EDGARDO R ONA                                   2502CKO
F1901400290000000030731DRA. EVELYN UY ORTIZ-QUINTO                              2501CKO
F2201400250561409939001DRA. LYRA GRACE S. TORIO                                 2503CKO
