B0101400600071821100608**********                                               2005
B0101400860011821100608**********                                               2002
A0101412630000009425390AMON, RUFO ILAGAN                                        0501
A1101400120000003197084BANEZ, TERESITA BALICANO                                 0502
A1101400120000008001009OCASLA, ALVIN JABONETE                                   0503
A6601400120000004440760CORNEJO, ALLAN GREGORIO                                  0501
A0101408400394047545001JOHNMAYSUZANNE FASHION                                  10505
A0101408400394047545001COLLECTION                                              20500
A0101412890000009833521YULO, JISELLE & SINGSON, JOSE &                         10503
A0101412890000009833521VILLACARLOS, MERLA                                      20500
A0101410690000004969975FERNANDEZ JR., NAPOLEON REYES                            0501
A0101410690000003027669MORELOS, RAZEL GO                                        0501
B0101401250021046483001CONTEMPORAIN DEVELOPMENT CORPORATION                     1601
A0101411370000005524374YANG, YI                                                 0501
A0101400150000003162978JOSE CARLO A. CAPELLAN                                   0501
A0101400150000003163937DIANA A. CRUZ                                            0501
A0101400150000006535668FERMIN, MARIA KARINA HAZEL                              10503
A0101400150000006535668TAROY                                                   20500
A0101400150000013502500MASE, RUEL MARTIN .                                      0502
B0101400150061027665001SYNERGY EXPERTISE INCORPORATED                           1602
B0101400150000005015525ADSTRAT ADVERTISING STRATEGIES, INC                      1602
A0101400150000002374507BARCELONA, KENWAY COO                                    0501
A0101400150061374499002SYLIANTENG, BENEDICT EMANUEL PA                          0502
A0101400150061697165001SERVER, CATHERINE ANNE B. OR                            10502
A0101400150061697165001CHRISTINE MICHEL                                        20500
A0601400100000002365379PARMISANO, EMILY DE GUZMAN DBU                           0501
A0601400360000004915402SEBASTIAN JR., MARIO MANUEL                             10502
A0601400360000004915402MURILLO                                                 20500
B0601400360000003186792SAMBON P&E PHILS. CORP.                                  1601
A0601400520000004423210FLORES, EDITH VALENCIA                                   0501
A0601400520000009516503PEREZ, MARITES BONIFACIO                                 0501
B0601400520000009516172ISHA'S MART INC.                                         1605
A0601400520000003009270NAGUIT, ALFONSO MIRANDA                                  0501
A0101413280000002317740ESMERIA, SHARON EVASCO                                   0501
A0101413280000005084873BUG-OS, WILLIAM GEORGE FERRIOLS                          0501
A0101413280000005279694**********                                               0502
A0101413730000002289438****                                                     0501
A0101414090000006211529INTANO, CATHERINE GRACE D.                               0501
A0101400730000000833396CARBONELL, LEVINA IBALE                                  0502
A0101406040000003332921SY, GIOVANNY CO                                          0501
B0101406040000008915420GOLDEN BAY FRESH SEAFOODS RESTAURAN                      1605
A0101401960121338333001************                                             0501
A0101413150000005944374*******                                                  0503
A0101412630000000801370ANTE, RICHARDSON NARISMA                                 0501
A0101412630000001485292DACANAY, ARNOLF PENAVERDE                                0501
A0101412630000007158194BAINA, DEOGRACIAS AGACAN                                 0501
A0101413310000003169293ART GEORGE B. TOBIAS OR                                 10501
A0101413310000003169293MA. CRISTINA C. TOBIAS                                  20500
A7201400170000006487741TAN, GLENDA NADALA                                       0501
A0101407270000000043518ANTZ ADVERTISING                                         0504
A0101407270162333154022JESUS R. MONTEMAYOR                                      0502
A0101407270162680190001YAP, JOEL GO                                             0502
B0101401090000013433062THOMASIAN INTERNISTS GROUP OF EDUCA                      1601
A0101401090171027703001INSTANT DRUGSTORE AND GENERAL                           10502
A0101401090171027703001MERCHANDISE                                             20500
A0101401090171173915001DEXTER &/OR MA. ARLENE                                  10501
A0101401090171173915001LEDESMA                                                 20500
A0101401090171173915002DEXTER OR MA. ARLENE LEDESMA                             0501
A0101401090171369758001MARY VIVIEN MADELO OR ANASTACIA                         10503
A0101401090171369758001RICO OR RICHARD                                         20500
A0101401090171405355001AIRENE C. EDNACO                                         0501
A0101401090000005320289CABILE, BRENDA CABUTIHAN                                 0501
A0101401090171504210001ALBINA R. GANDALLA                                       0501
A0101401090171551836001ROMEL OR TERESITA RAMIREZ                                0501
A0101401090171791856001CONCEPCION SHERYL DEE T.                                10502
A0101401090171791856001QUERIJERO                                               20500
A03014006601940480850010194048085001                                            0502
B0301400660000003361920CPR GUN TECHNOLOGY, INC.                                 1602
A0301400950000010701149REYES, RINA MANZANO                                      0501
A0101413020000006295098VICENCIO, ROBERT ALAIN P. OR                            10501
A0101413020000006295098VICENCIO, MARIA AURORA D.                               20500
A0101413020000000056933BONDOC, JAVIER PINEDA                                    0501
A0101410720000004626426GATMAYTAN, NAPOLEON BERNARDO                             0501
B0101410720210047660001PROSERVE MULTI RESOURCES SPECIALIST                      1603
A0101410720653575025001CRISTINA G. CUEVAS                                       0503
A0101412500000005300601LACAP, JENNIFER ALMONTE                                  0501
B3101400160000010010610FRANCISCO P GARCIA & CYNTHIA T ALARCON                  11610
B3101400160000010010610& LEILA D TORRES                                        21600
A3101400450000009464684ARAMBULO, ARTRIE N.                                      0501
A3101400450223357912001NAGA, JOSE V.                                            0502
A3101400450000004751811UMANDAP, ALLAN DE MESA                                   0501
A1001400190231436392001UYGUANGCO, JENNIFER PABILLORE                           10501
A1001400190231436392001OR KEN NINO TIRO                                        20500
A1001400350000011297722MENDEZ, IAN GIL DBU ZEDMEN ENTE                          0501
A1001400350233532085001CASTRENCE, CERINO SERINA                                 0502
A1001400480000000606933NOSES, JOANNE MARIE TEJANO OR                           10501
A1001400480000000606933NOSES, KENETH GL                                        20500
A1301400470000005394301ELEZSUR I. CANCIO                                        0501
A1901400290261490189003CARLO JOSE V FUENTEBELLA                                10502
A1901400290261490189003WALTER A DIMAYUG                                        20500
B0101401670271029144001ALICE REALTY HOLDINGS CORPORATION                        1601
B0101401670271029267001GUINOBATAN HOLDINGS CORPORATION                          1601
B01014016702710292680013 A'S DEVELOPMENT CORPORATION                            1601
B0101401670271036487002HI-COOL ENGINEERING CORPORATION                          1602
B0101401670271038121001JCI MANILENA, INC.                                       1601
B0101401670271634026001AAIS HOLDINGS CORPORATION                                1601
B0101406620000003497290SUMI PHILIPPINES WIRING SYSTEMS COR                      1603
A0101411820000002328496MARIA HENNESY VILLASENOR                                 0501
B0101412470000008927551KING, CALIBER UY DBU HIGH-CALIBER                       11603
B0101412470000008927551TRADING                                                 21600
A0101400570281186537001DR. MENEFRIDA REYES                                      0502
A0501400200000005137188GANANCIAL,SHERLYN DBU MAX GEL                           10501
A0501400200000005137188ELECTRONIC SERVICE CENTER                               20500
A1101400120000000652788PRIMER, HERMINIA AZUCENA                                 0501
A1101400120000013505652DY, CHARLES DOMINIQUE NEGADO                            10501
A1101400120000013505652DBU JTC HARDWARE                                        20500
A6601400120000003672877SINGZON, IAN VINCENT MERINO                              0501
A6601400120314612871001**********                                               0501
A6601400120000002249910YRUMA, ALBERT OR EMELITA                                 0510
A3401400280000001723495JENNIFER G ONG OR JOHN OWEN ONG                         10501
A3401400280000001723495OR JOAQUIN C GOCHANGCO JR                               20500
B0101402350321659572001**********                                               1601
A0101405650000008159013AMISTAD, PAUL DOMINIC ALCON                              0502
A0101402510341196515001EMMA Z. BRIOSO                                           0510
A0101402510341283268001LEONORA S. VERZOSA                                       0501
B0101409050352039982002RIVERSTAR FOOD CORPORATION                              11605
B0101409050352039982002(ADMIN)                                                 21600
A0201400760374047906001SAPAYAN LIM ALVAREZ & LIGUTAN                           10502
A0201400760374047906001LAW OFFICES                                             20500
A0201400760000001107599GO, JESS GREGORI DBU GO FIX DIG                          0505
A0201400760374478374015DACAYANA, ROSALIE SIBLA                                  0501
A0201401020000005491910PALALAY JR., ROQUE RUBI                                  0515
B0201401020377821100608**********                                               2002
A0101408370382205328002LIGAYA P. SANGA OR                                      10501
A0101408370382205328002ANNA LEAH P. SANGA                                      20500
A0101408370382391673001DR. JOCELYN V. BONDOC                                    0510
A0101408370382445179001********                                                 0502
B0101408790383046099001AROCREST INVESTMENT HOLDING                             11601
B0101408790383046099001CORPORATION                                             21600
B0101408790383047956001NOVARAD ASIA PACIFIC CORPORATION                         1603
B0101408790000010384591CT BUILDING DEV'T SOLUTIONS INC.                         1604
A0101408790000005251223ODI, TYGRAN ROMEO D.                                    10502
A0101408790000005251223OR IBE, MARTIN GON B.                                   20500
B01014027700000068124627 SEA AIR & LAND LOGISTICS SERVICES                      1602
A0101402770391216029001DE LEON, MANUEL AMATA                                    0501
A0101402770391529757018IBANEZ, JOSELYN B.                                       0501
A0101408400394029894001ANGEL HANNAH FUNERAL HOMES                               0502
A0101408400394032420001MARK JOHN FURNITURE                                      0502
A0101408400000002921020LRD ARCHITECTURE AND INTERIOR                           10501
A0101408400000002921020DESIGN                                                  20500
A0101408400000003120703**********                                               0502
B0101409180000002036846IMPACTHUB PH INC.                                        1602
B0901400220000006214295**********                                               1602
B0101403030441303324001**********                                               1602
A0101403030441343501001**********                                               0502
A0101403320000001647036LORENZO RENAN E. TORRES                                  0502
B0101403320471066739001FRANCES BUILDERS CORPORATION                             1601
B0101406330472027929001STO. TOMAS DE VILLANUEVA PAROCHIAL                      11602
B0101406330472027929001SCHOOL                                                  21600
A0101406330000000162616LAND OF THE PROMISE TRUCKING                            10505
A0101406330000000162616SERVICES                                                20500
A0101406330472459699001NANCY G. HAMOR                                           0502
B0501400170000001032186NGO, CHIAO LIN ONG OR NGO, JUANITA COKEE                 1602
A1401400110000005526741BONUS, ROSALIA BELEN FERNANDEZ                           0501
A1401400110492221048001DE OCAMPO, EMILIE IMPERIAL                               0501
A0701400260000009912774FILIO, JERRY CARINA                                      0501
B0101407430000001213192SHIMBURUM CENTER CORP.                                   1602
B0101403580511046044001STARLITE MANAGEMENT AND ENTERTAINMENT DB                11601
B0101403580511046044001U STARWOOD VIP                                          21600
B0101405940512015044001CASA REGENT PROPERTIES CORPORATION                       1605
B0101405940512035170001DAIRYGOLD FOODS INT'L, INC.                              1601
B0101405940000000002773BT AUTO SPORT CORP.                                      1610
A0101408530000007981911PINEDA, MARIA CARMELA ERICA                             10502
A0101408530000007981911LEGASPI                                                 20500
B0101408530516579627002RED PLANET HOTELS PHILIPPINES                           11610
B0101408530516579627002CORPORATION                                             21600
A0101411400000001280375SALES, MARIA CHRISTINA MANEGO                            0501
A0101412050000002314410PUA, PETER CHUA                                          0501
A0101403450000011972242SUN, YULING                                              0501
B0101403450521025819001******                                                   1601
B0101403450521033779001********                                                 1601
A0101403610000013482463MORDIDO, ALYSSA JANE GAMBA                               0501
A0101403610000013482543MORDIDO JR., AUXENCIO UGAY                               0501
A0101403610531762081001MIRANDA, SUSAN ESPINILI                                  0501
A0101403610531762297001HO, HELEN TAN OR                                        10503
A0101403610531762297001TAN, DOLORES LIM                                        20500
A0101410690000000710632BACANGGOY, EGLYN SURENO                                  0501
A0101404130000006275932GILLEN, DELMAFE FESTIN                                   0510
A0101407720602196321001**********                                               0501
A0101407720602397493001MACALINTAL, VINCENT BEREDO                               0502
A0101404260000000156756JARDIN, MILDELITA VILLENO                                0502
B0101404260611029737001HALIFAXX TRADING CORPORATION                             1601
B0101404260000004781335LIM, HERMAN DONATO DBU ONEFULL TRADING                   1602
A0101404260611312084002*******                                                  0501
B0101404260611312084003*****                                                    1601
B0101404260611515210001S P SALES CORP.                                          1601
A0101409920000005197742VIRATA, RENATO B.                                       10502
A0101409920000005197742TORRES, MARIA TERESA V.                                 20500
A0101409920650478374004DADULA, IRENE INES FAVOR                                10502
A0101409920650478374004MEMBERS OF NATASHA                                      20500
A0101407690000000495409MOLAO JR., EDWIN PLANG                                   0501
B0101407690652036815001TAGALINIS, INC.                                          1605
B0101407690652041404001AUBURN POWER TECHNOLOGIES INC.                           1601
B0101407690000000243930M & HC EQUIPMENT PHILIPPINES INC.                        1601
A0101407690652794241001TUPAZ, MARIA BARROS                                      0501
A0101413990000006768616ALA, ROY B. DBU RBA TRUCKING                            10505
A0101413990000006768616SERVICES                                                20500
A0101414120000004603121FLYRYNE TRAVEL AND TOURS                                 0503
A0101414120000011765047PANTALEON, PATRICK DONATO                                0501
A0101408240000010148211QUIRINO-ABALOS, SYLVIA MARIA                            10502
A0101408240000010148211ANNA PALANCA                                            20500
B0101408240000010815277CULTURAID, INC.                                          1601
B0101408240711007456001SEATRANS CORPORATION                                     1610
B0101408240711024878001INFO-ED MARKETING CORP.                                  1601
A0101408240711478374008CRONILA C. COLO                                          0501
B2801400100000007896051BPRD SUBIC LEISURE CORP.                                 1605
A4101400260000010623542FRANCISCO, RICHIE S.                                     0502
B4101400260812012643001KUM KANG CERAMIC PHILS. CO., INC.                        1603
A4101400390813247071001MA. MAYLYN M. BUHAIN                                     0501
B4101400420814033668001PETRO VENTURE CORPORATION                                1602
A4101400420814357382003REMULLA, GILDA VASQUEZ                                   0501
B4101400550815042470001JIREH BUILDING                                           1601
A4101400550815066244001MERCADO, ELEANOR B.                                     10502
A4101400550815066244001DBU EDJOY ENTERP                                        20500
A0101412340000003340627MELANIE ISABEL N. ALLERA                                 0501
A0101412340000006451112SHAYNE B. BOHOLANO                                       0501
A0101412340000003438624BERNADETTE A. HODGES                                     0502
B0101412340000005964065CM2 CONSTRUX, INC.                                       1601
B0101404840851009262002STAR WEALTH REALTY & DEVELOPMENT CO                      1602
B0101404840851009268001FAMOUS LUMBER & CONST. SUPPLY                            1601
A0101404840851046725028GENERALES, RHODA ALTEZ                                   0502
A0101404840851217637023FERDINAND A. SANTOS                                      0501
A0101406750852631359001BUERA, MELCHOR SEBOLLENA                                 0502
A0101405070861197966001GRACITA L. GARDON OR ROSELLE                            10501
A0101405070861197966001WEDNESDAY L. GARDON                                     20500
A0601400230000007402224**********                                               0501
A0601400230000010703072**********                                               0502
B0601400230891019728001FORTUNE HONGKONG SEAFOOD  RESTAURANT                     1605
B0601400230891036415001PAMPANGA AUTOMOTIVE RESOURCES CORP                       1603
A0601400230000003638960DIZON, JOSE JUN G. DBU INTERTEC                          0501
