F1901400290261035027001GREEN NATURE FEEDMILLING CORPORATION                     2603CKO
F0101408660274039355003BREAD FROM HEAVEN COMMUNITY                             12601CKR
F0101408660274039355003CHURCH                                                  22600CKR
F3101400580452217787005**********                                               2504CKO
F0101403290000000542512VECTOR OUTSOURCING SOLUTIONS                            12601CKR
F0101403290000000542512PHILS INC                                               22600CKR
F2201400250561013235005SIKAP SAVINGS AND CREDIT                                12610CKR
F2201400250561013235005COOPERATIVE                                             22600CKR
F0101407720602531639009INTELLIGENT BEAUTY SKIN                                 12610CKR
F0101407720602531639009SOLUTIONS INC.                                          22600CKR
F4101400260000001673423POTESTADES, MARY GRACE LAJO                              2502CKO
F0101404840851031921001SAINT FRANCIS OF ASSISI COLLEGE                          2605CKO
