B2001400290315821100608**********                                               2002
B0101400150000000633505DIGISCRIPT PHILIPPINES INC.                              1603
B0101413020000006316890METRO HEART SPECIALISTS GROUP (MHSGI)                   11601
B0101413020000006316890INC.                                                    21600
A0101412500000017535281GARCIA, FLOR VITANGCOL OR                               10502
A0101412500000017535281GARCIA, KATRINA VITANGCOL                               20500
A0101412500000017537943VILLANUEVA, ELMER J. OR                                 10501
A0101412500000017537943VILLANUEVA, PAMELA T.                                   20500
A4101400260812409493001AMELIA RAZON OR EMILINO RAZON                            0502
A4101400260000006043049FALIC, JEANNETTE RUGA                                    0501
A4101400260812596576001ROMEO L. FRANCISCO                                       0501
A0101400860000005312890**********                                               0503
A0101401250021404038001SIMPAO, GERALDO JOSE LUIS RUIZ                           0501
A0101400150061302368002SIRENE CHUA OR ARLEEN SISCAR OR                         10501
A0101400150061302368002JOSEPHINE MAPE                                          20500
A0101400150061342460001NISPEROS JR., EMILIO CASCALLA                            0502
B0101400150061484166001HILGARD PROPERTIES INC.                                  1601
A0101400150061666194001GERARD H. BRIMO                                          0503
A0101400150000010296950SEMPIO, VANESA BUSTILLO                                  0501
B0101405810000000016884PLASTIC CONSUMER CORP.                                   1601
B0101405810000000016822VANDA PAPER PRODUCT ENTERPRISES COR                      1602
A0101405810072367320001**********                                               0506
B0601400520000000398625PADSA ENTERPRISES                                        1603
B0101400730111482881001CASA BOCOBO HOTEL, INC.                                  1605
A0101401830141526215001DE LOS REYES, THELMA REMOS                               0501
B5001400170000013435104DIRECT INDUSTRIAL SUPPLIES & EQUIPMENT                  11602
B5001400170000013435104TRADING CO.                                             21600
A0101400440000004901495GENELYN C. RODILLA                                       0501
A0101400440161478374181GERALDINE N. CUTLER                                      0501
A0101401090000011984453ESTRADA, MARIA TERESA CORTEZ                             0502
A0301400530000017535430CRUZ, CLAIRE FLORENCE TAN or                            10501
A0301400530000017535430BRIONES, MICHAEL BRYAN                                  20500
B0301400530000006477321SILANGAN MULTI-PURPOSE COOPERATIVE                       1602
B0301400950000013759221LUCKY 4 CITY APPLIANCE CORP.                             1604
B0101401380201038506001GENIUS GROUNDS INTERNET CAFE TRADING AND                11601
B0101401380201038506001GENERAL SERVICES                                        21600
B0101413020000000038402MY HAPPY FARMER MACHINERY CORPORATION                    1601
B0101410720653006452001INTERNATIONAL GRADUATE SCHOOL OF                        11603
B0101410720653006452001LEADERSHIP INC                                          21600
A0101410720653505147001****                                                     0501
A0101412500000017555103PADUHILAO, PHILIP GARY TEOPE                             0501
A3101400160000000429156SOSMENA, JONATHAN A OR                                  10501
A3101400160000000429156SOSMENA, AILEEN                                         20500
A3101400160000012033480REYNALES, JULITA ARANDA                                  0501
A3101400160221220343001LAARNI A. CALAPATIA                                      0502
A3101400450000017260936ALDEMO JR., ROGELIO CANOY OR                            10501
A3101400450000017260936ALDEMO, ROJUL CANOY                                     20500
A3101400450000016576393BELEN, ARVIN B DBU MED AXIS                             10501
A3101400450000016576393BUSINESS VENTURE                                        20500
A3101400450223221366002*****                                                    0502
B3001400130000013667502MARASIGAN, JR., AURELIO SALUDEZ DBU                      1602
B3001400130230048057088A.M. GOLDEN AUTO PARTS                                   1601
A3001400130000014114368WAGAS, GINAL                                             0501
A1001400480000017496023PINOHON, JUNEL LAGUTIN                                   0501
A0101401670000008015427MANUEL, CHARMAINE MARA ORPIANO                          10501
A0101401670000008015427OR JEHOSHAPHAT D LAGUYO                                 20500
A0101406620000010200770JASMIN JOSEFA P. AGBON                                   0501
A0101408660000002264973LEE, LUCY LINDA DY                                       0502
A0101412470000005380412LIM, MICHELLE LEE OR                                    10501
A0101412470000005380412LIM, JASON YU                                           20500
A0101412470000016805993TAN, SHERILYNE REYES                                     0502
A0101412470000002135973SONGCUYA, BLANCA DBU BNFS                               10502
A0101412470000002135973ARCHITECTURAL DESIGNS                                   20500
A0101400570000011219473PAGAY, FELIX TAYLAN                                      0501
B0101400570000013647275DEVOTED MANPOWER AND ALLIED SERVICES,                   11602
B0101400570000013647275INC.                                                    21600
A0101411240000010100531DELA GUARDIA, CHRISTIAN DOMOSMO                          0501
A0501400200000006272164TOLETE, MELINDA OVALLES                                  0501
A0501400200000006445263JAVIER, MARISSA CUEVAS OR                               10501
A0501400200000006445263JAVIER, JOANN KIRSTEIN C.                               20500
A2601400270000002876011VENUS O. BENITEZ OR FISHER T.                           10501
A2601400270000002876011BENITEZ                                                 20500
A2601400270000014231204LORELEI S. RANJO DBU LORELEI                            10502
A2601400270000014231204BUYING STATION                                          20500
B2601400270000006014733AGRICOMP MACHINERIES AND CONSTRUCTION                   11605
B2601400270000006014733CORP.                                                   21600
B0801400160311029906001************                                             1601
A6601400120000011286321DE ASIS, MA. THERESA DEL FIERRO                          0501
A6601400120000003084717DATO JR., BAYANI EVARISTO DBU C                         10503
A6601400120000003084717CONSTRUCTION JT                                         20500
B2001400290315041598001ACELOGIC COMPUTER SOLUTIONS                              1601
A3401400280000006791188PROCESO B AGUIRRE III DBU LAXMI                         10502
A3401400280000006791188AUTOMOTIVE SVCS                                         20500
A29014001300000152733910UITONG, RODULF CUAL                                     0501
B0101402350000017553603GREGORIO, VIOLETA NERY                                   1601
B0101402350321035833001CAPITAL SHIPMANNING PHILS., INC                          1602
A0101402510000001554030ROQUE, JUDE ERICSON PEREA                                0501
A0101409050000008087656CRISOSTOMO, DAISY MAE LUCAS                              0502
A0201400920000002804480MIRANDA, SAMMY                                           0501
B0101402930381030309001RECEIVERS & LIQUIDATORS, INC.                            1603
A0101411660000005323922**********                                               0502
A0101402770391013439001JIREH'S CAR PAINT SHOP                                   0503
A0101405490000006300021SCHMICH, ZAIDA BONITA                                    0502
A0101408400000000077923LUNASIN, FRENZY CORONADO                                 0501
A0101408400000017477040MANINGAS, RICHARD DE OCAMPO                              0501
A0101408400000017557229GABRIEL ADRIAN TAILORING SERVIC                          0501
B0101408950000015963970MGM MOTOR TRADING INC.                                   1602
A0101409210000011535378VELVEZ, MA. LOURDES CAMILLE TEA                          0501
A0101412210000003979073FERDINAND D. ONG                                         0501
A0301400820000013899462DELA TORRE, AIZA B.                                      0502
A0301400820000000316641PLAZOS, LOLITA V.                                        0501
B2401400180411042194088GSC ECOPARTS                                             1605
B2401400180000000019805CARL'S BROTHERS REALTY CORPORATION                       1602
A2401400180000007031723LA MIRADA INN                                            0503
A0901400220000000425045LOZADA, ELIZABETH GO                                     0501
A0101412890000005944852CHRISTIAN BARRY GO ANG                                   0501
A0101403320000013858741MARQUESES, EMMA KATRINA C. OR                           10501
A0101403320000013858741MARQUESES, GLENN M.                                     20500
A0101403320000016614881PAGLINAWAN, ROLANDO L*                                   0502
B0101403320471019960002DIRECT ELECTRIX EQUIPMENT                               11605
B0101403320471019960002CORPORATION                                             21600
A0101403320000004830995GATTECH SUPPLY AND ENGINEERING                           0505
A0101403320471478374016SONIA SALANIO                                            0501
A1901400320000014027059BARTE, MILDRED MENDOZA                                   0501
B1901400320000000041261SAN ISIDRO MULTI-PURPOSE COOPERATIVE                     1601
B1901400160000000007467FIRST UNITED 23, INC.                                    1610
A1601400170000000094040MARY SYLA A. SURITDA                                     0501
A1601400170000000099172DELAN JOHN M. LLARENA                                    0501
A1601400170000001360838SALIC, FARIDAH BERTODAN                                  0502
B1601400170000009954692EQUIRISE CREDIT CORPORATION                              1603
A0101407430503380888001HARRY U. LIMTONG                                         0502
A0101407430503434847002JOCELYN L. CUSTORIO                                      0501
A0101403580511397803001ESTRELLA, MARVIN ESPENA                                  0502
B0101412050000016141752DELGADO, KRISCHELO DBU NKKLK TAPSILOGAN                  1602
A2201400250000013859055CRUZ, MARIZA COCHON                                      0501
A2201400250000006736281DR.FARRAH ARSENIA AGUSTIN BUNCH                         10505
A2201400250000006736281NATURAL MEDICAL CENTER                                  20500
A0101404130601336736001ANITA Y. CALANGIAN OR                                   10502
A0101404130601336736001D. ANTOINETTE C.                                        20500
A0101407720000011666927MELCHOR S. CASTRO                                        0502
B0101407720602023438001DEPARTMENT OF ENT                                        1601
A0101407720602381785001GUZMAN JR., PATRICIO BALA                                0502
A0101407720602480488001GERALDINE MAJELLA L. JURILLA MD                          0502
A0101407720602573510001LIMSON, MARC ANTHONY MANUEL OR                          10502
A0101407720602573510001CRISTI-LIMSON, MARGARET                                 20500
B0101404260000000157004INTERPRO FOOD SPECIALIST INC.                            1605
A0101411530000010702637**********                                               0502
A0101411530000006094431RAVELO, NYMLA C                                          0501
A0101413570000017175236DIONOR CORDERO                                           0501
A0101413570000013348966FARIN, ELIZABETH DBU NELO INTER                         10502
A0101413570000013348966NATIONAL CARGO E                                        20500
A0101413990000017554297GARCIA, JASHINETH SINAG OR                              10501
A0101413990000017554297PEREZ, KEITH IAN RECTO                                  20500
A0101413990000000206066MARKVENT ENTERPRISES                                     0501
A0101410300000016641691TAN, JESUS LUCERO                                        0501
A1301400340000006402386GREGORIO, MIGUELA DELA CRUZ DBU                         10502
A1301400340000006402386MEL ART ENTERPRISE                                      20500
A1301400500000000213436ROSALINDA P. CASTILLO                                    0501
B1301400500000005963404PAGASA PHILIPPINES LENDING COMPANY INC.                  1605
B2801400100000003116678PINEDA, RAYMUNDO AURELIO VITUG                           1602
A4101400260000017549603GADICHO, WILBUR JURIA                                    0501
A4101400260812478374055ARLENITA E. MORALITA                                     0501
A4101400420814520766045BOCO, ADELA G.                                           0501
A0101406750000010508879LAZARO, JERILLE ANN DBU GOLDEN                          10502
A0101406750000010508879TREE TRAVEL AND TOURS                                   20500
B0101406750852491986001SPRINGPHIL TRADING AND MFG, INC.                         1601
A0101406750000009471650SULIGUIN, MINERVA VENUS DOTON                            0501
A0101406750000001491841MARIA LUISA PULIDO OR PULIDO                            10501
A0101406750000001491841ROMEO                                                   20500
B0101405070861008408001CLINICOMED                                               1605
B0101405070861047281001AVISTELE CORPORATION                                     1601
A0101405070000013277340CARLOS RIVERA OR ANN KARLA                              10501
A0101405070000013277340SAULI OR MARY VILLASIS                                  20500
A0601400230000007954201ESTRADA, JOSEPH CLARK LICUP                              0501
A0601400230000014299580HAZEL D. LABANA                                          0501
