B0101406620273046416001FIRST SHELTER VENTURES & REALTY CORP.                    1610
B0101406620273046416002FIRST SHELTER VENTURES & REALTY CORP.                    1610
A0101411240000008667012JAY JAY CRISTOBAL AND                                   10501
A0101411240000008667012JESSEL A CRISTOBAL                                      20500
A0101402930000007031170TORRALBA, ALTHEA RIVERA                                  0501
B0101406330472034852001CAGUINGUIN, AMBANTA AND ASSOCIATES                       1603
A0101406330000000011752JONAH ROMANO DBU AW ENGINEERING                         10504
A0101406330000000011752SERVICES                                                20500
A0101406330472433082002PAULINA LONTOC OR PATRICIA                              10502
A0101406330472433082002LONTOC                                                  20500
A0101406330472547416001FLORENDO, GILBERT NACPIL                                 0502
A0101406330472573170001WILLARD SY GO                                            0504
B0101400860011389659002**********                                               1605
A0101400860011478374007**********                                               0501
A0101400860011496074002**********                                               0501
B0101401250021023710001PASAYENA FOUNDATION, INC.                                1605
A0101401250021179004001TIBAJIA,JOSEFA OR LAPID,MYRA OR                         10501
A0101401250021179004001SEE,GINA OR TIBAJIA,CESAR                               20500
A0101401250021290630001WINNIE D. VALERIO AND                                   10503
A0101401250021290630001RONALD A. SUPERALES                                     20500
B0101400150061020750001NATIONWIDE DISTRIBUTORS, INC.                            1606
A0101400150061531842002**********                                               0501
A0601400520000005943600RUEDA, ROSE ANGELIE CALARA                               0503
A0101410560000005280699FELIX CHRISTIAN H ZEPEDA III                             0501
A0101413150000003868424*********                                                0502
A0101412630000000045309LAGON, LEO ANTONIO T. OR                                10503
A0101412630000000045309LAGON, ANNA MARIE R                                     20500
A0101400440000004901451*****                                                    0501
A0101400440000002035023DOROTEO C. TICZON                                        0502
A0101400440161511479003SUTICO C. MENDOZA                                        0501
A0101400440161541478001ERWIN S. AGUSTIN                                         0503
A0101400440161591337001JENESSEY A. RANCES OR                                   10502
A0101400440161591337001JESSIE O. RANCES                                        20500
A0101407270000006817047LEONA PAULA MORALES OR                                  10502
A0101407270000006817047IRENE MAGLASANG                                         20500
A0101407270000007525331BABAAN, RONALD ALMONTERO                                 0501
A0101401090171556891001CHARLES ISAAC N. DEITA                                   0502
A0301400530000000065978MAGLENTE, EUGENE L. DBU                                 10503
A0301400530000000065978JAMCARS AUTO SUP                                        20500
A0101401380000000026888YABUT, MA. NICOLE KRISTINE                              10501
A0101401380000000026888GARCIA                                                  20500
A0101413020000000057003********                                                 0501
A0101413600000000206824CHESING GENERAL MERCHANDISE                              0502
A3101400160221220205001RODOLFO ELEPANO OR GILDA PICO                            0503
A3101400160221220343001LAARNI A. CALAPATIA                                      0502
B3101400450223018245001PERLA COMPANIA DE SEGUROS, INC.                          1604
A3001400130000006145137EBARLE JR., VICTORIANO ROMARATE                          0502
A1001400190231478374067DAGANATO, NICANORA BALOS                                 0501
A0101401670271186267001ELOISA L. CAMPOS                                         0502
B0101401670271191081001EAGLECOR, INC.                                           1605
B0101406460272015262001*********                                                1603
B0101406460272047405001ACEBUCHE, E DBU EL ACEBUCHE BUI                          1605
B0101406460000001231725PREMIERE ASIAN MOTORS HOLDING, INC.                      1602
A0101406620000001686893MALLILLIN, FRANCIS MEL GONZALEZ                          0501
B0101406620273037461002FIRENZE CORPORATION                                      1602
B0101406620273349902001*******************                                      1602
A0101408660000005263883CHUA, RUEBY GINIE DELA CRUZ                              0501
B0101408660274046031001INTERNATIONAL SPECIALTY RETAILERS, INC.                  1603
A0101412470000002135973SONGCUYA, BLANCA DBU BNFS                               10503
A0101412470000002135973ARCHITECTURAL DESIGNS                                   20500
A0101412470278095789001NG, MARJORIE JANE DY OR                                 10502
A0101412470278095789001NG, MARCUS TIMOTHY TAN                                  20500
A0101400570000008692811DE LEON, FRANCESCA ROSE GARCIA                           0501
A0101400570000008692811DE LEON, FRANCESCA ROSE GARCIA                           0501
A0101400570000008695838CALAMBA, PRECY GEM SANCHEZ                               0501
B0101400570000000749548ALLIANCEJADE GARMENTS CORP.                              1602
A0101400570281443866001ANA MARIA S. POHANG OR                                  10501
A0101400570281443866001KATRINA S. MARTINEZ                                     20500
A0101400570281767998001BERNARDINO, EDWIN ROLDAN                                 0501
A2601400270000002257201KATHERINE M. GALINGANA                                   0505
A2601400270000000019510GILBERT T. FAGEL OR                                     10501
A2601400270000000019510AILEEN A. FAGEL                                         20500
A6601400120000002249794BALDOS, BERNARDO INIGO                                   0503
B6601400120314043609005FUNDACION GRAMEEN PILIPINAS INC.                        11605
B6601400120314043609005HINA BRANCH                                             21600
A3401400280000003493845DEGALA, WINNIE DOLOR OR DEGALA,                         10502
A3401400280000003493845TERESITA BOLANO                                         20500
A0101405650322172009001EUGENIO, EUGENIA BUSTAMANTE                              0501
A0101409050000008649681SIDDARTH HARI                                            0501
A0201400760000002047274ECARMA, EDITH GLORIO                                     0501
A0201400760374584291001LAYAR, VICENTE CASIPONG AND                             10502
A0201400760374584291001LAYAR, GERMANA M                                        20500
A0101408370382391291001DR. ADRIAN E. MANAPAT OR                                10505
A0101408370382391291001KARINA M. MANAPAT                                       20500
B0101408790383047956001NOVARAD ASIA PACIFIC CORPORATION                         1602
A0101411660000001145788TUMPALAN, SOCRATES DBU FIRST                            10502
A0101411660000001145788SUN MARKETING                                           20500
B0101402770391042672001K-GRAIN TRADING INCORPORATED                             1605
A0101408950000004512116OCAMPO, FROILAN BENEDICT LIMJOC                          0505
B0101408950396026318001GLOBAL CITY AUTO SALES, INC.                             1605
A0101408950000000776694ALVAREZ, YSMAEL BUAN                                     0502
A0101409210000008693030RABANG, DANNA NICOLE BRIONES                             0501
A0101409210000008693074MANGALIMAN, HORTENCIO PHILIP MA                          0501
A0101409210000008693096TAGUBA, REANNE BERANIA                                   0501
A0101409210000008693121ABRIS, JAYSON CERDA                                      0501
A0101409210000008693143BALDADO, JENNIFER CHRISTINE DEL                          0501
A0101409210000008693187MIRANDA, JASMIN TAN                                      0501
A0101409210000008693212SERRANO, MONALIZA GOMEZ                                  0501
A0101409210000008693223SALINEL, FEBE LYNNE ECLARIN                              0501
A0101409210000008693234CABARDO, KIMBERLY ARIANE MAGNO                           0501
B0301400820000004746094QI XIANG REAL ESTATE DEVELOPMENT, INC.                   1601
B5501400120000002949735VALEENLAND REALTY CORPORATION DBU                        1601
A5501400120000000046882CHIU, VALENTIN & JULIA EILEEN &                         10502
A5501400120000000046882CHRISTIAN & CHRI                                        20500
A5501400120410636179018CHIU, VALENTIN & JULIA EILEEN                           10503
A5501400120410636179018& CHRISTIAN & CH                                        20500
A5501400120410636391028CHIU, JULIA EILEEN & VALENTIN                           10505
A5501400120410636391028& CHRISTIAN & CH                                        20500
B2401400180411044274001******************                                       1601
A0101412890000004345022QUADRAGON SECURITY                                       0502
A0101412760000000767762MERCADO, LORNA DIMAFELIX                                 0501
B0501400170481018109001*********                                                1601
B0101405940000005359673RUBY STAR SERVICES, INC.                                 1602
A0101408110515708875001DR. JAMIE ISIP CUMPAS                                    0502
A0101408530000002980830MANOJ PAUL, CHEMPALAKUNNIL JACO                          0501
A0101408530000000035936PARK, JEE WHAN                                           0501
A0101411790000006543228SOLANGON, RAFAELITO CATIIS                               0502
A0101411790518055815171VALIAO, MA. FLORDELIZA CABRIGAS                          0502
B0101403450521035366001***********                                              1603
A0101403610000008696933ROBLEZA, RONALD MAGAT                                    0501
A0101403610531219572003BARRON, DR. JAIME ALBERTO                                0502
A0101404000000003853105ALBERTO, MA. PAZ ROSALES                                 0505
A0101404000551292555001LAGDAMEO, ENRIQUE BIENVENIDO                             0504
B0101404130000000696191PINAGPALANG SAMAHAN NG NAGKAKAISANG                     11601
B0101404130000000696191MANGGAGAWA MULTI                                        21600
B0101404260611016324002KALAYAAN TALIPAPA CORPORATION                            1602
A0101404260611150906001ELEUTERIO T. TAMAYO SR. OR                              10501
A0101404260611150906001ERLANDY TAMAYO                                          20500
B0101404260611537674001KLINI-KAYA MEDICAL SPECIALISTS INC.                      1605
A0101409890649044793001**********                                               0501
B0101407690000000243832IDESCO CONSTRUCTION AND DEVELOPMENT CORP                 1602
A0101407690652525001064JOAQUIN JUANCE - DEALERS OF                             10501
A0101407690652525001064SHOECAT INC.                                            20500
A0101407690652525001081AGUSTINO, ROWENA - DEALERS OF                           10501
A0101407690652525001081SHOECAT INC.                                            20500
A0101413440000001472759HOMO, RONALD G. or HOMO JR.,                            10501
A0101413440000001472759ARMANDO A.                                              20500
B0101413440655056766001ADVISIBLE MARKETING CO.                                  1603
A0101413570000004353877NEDIRA, GINALYN BERONGOY                                 0502
A0101413570000005435223MAROHOM, AMINODEN BAZER                                  0501
A1301400210000007669096VILLACARLOS, MA JILL PAMPAG                              0501
A1301400340683501003001GO, LLOYD CHUA OR CHERYL B GO                            0502
A1701400230000005694142RACCA, SOCRATES CACAYURIN                                0503
A0101408240000006600211SUAREZ JR., JOSE NARCISO                                10501
A0101408240000006600211OR SUAREZ, EVELYN GO                                    20500
A0101408240711681184001PAMISAL, TESSIE UNATING                                  0501
A4101400420814520766084PADILLA, ROSEMARIE E.                                    0501
A4101400550815693134001LLANES, TUDOR HERNANDEZ OR                              10501
A4101400550815693134001LLANES, PRESCILL                                        20500
A0101404840851424338001PAMITTAN, MYRNA M.                                       0503
A0101406750852025967001FILIPINAS ALLIED MAINTENANCE &                          10505
A0101406750852025967001SPECIAL SERVICES                                        20500
B0101406750852474662001SECURITY MARKETING & PEST MANAGEMENT                    11603
B0101406750852474662001INC.                                                    21600
A0101406750852478374065MARIVEL L. MANGUERRA                                     0501
B0101405070861044965001MEGA-PRO INTERNATIONAL RESOURCES, INC.                   1606
A0101413860000000145122WONG, SALUSTIANO CHEONG OR                              10501
A0101413860000000145122WONG, MYRNA                                             20500
