A0101412890000000007570CRISTINA S. SANTOS                                       0501
A0801400160000000009452JESTER FOOD PRODUCTS                                     0505
A0101405940000000061721ALAGAR, DENNIS LIMLINGAN                                 0501
A1701400230000000097869CORTEZ, DEBRAHLIZ DAHILIG                                0501
A0101407720000000112192MOJICA, NANCY BALMACENO                                  0501
A0101406750000000172843GABAYNO, DELIA CHAN                                      0501
A0101413600000000206697******                                                   0505
A0101406750000000358207TABERNA, SYRELLE CRUZ                                    0501
A0101402060000000358805BASIBAS, GLENDA TIMOSA                                   0501
A0101408530000000489652SANTOS, THERESA JOAN MIRANDA                             0501
A0101405650000000525853IMELDA B. VILLALON                                       0501
A2601400270000000561740EMILIA M. BAUTISTA                                       0502
A0101406590000000568758BAUCA, MYRA MEDRANO                                      0501
A0101402930000000580789COPRADA, MICHAEL CLAVE                                   0501
A1101400120000000652351YAO, RONALD PHILIP GO                                    0501
A0101400570000000749593MANOLITO M. TURALBA                                      0502
A0101400150000000760725SOLIS, CHRISTIAN BILLONES                                0501
A0101412050000000890762TORRE, PATRIA ARIVE                                      0502
A3001400130000000931282BALANGA, MARIO FERNANDEZ                                 0501
A0101400860000001005332***********                                              0504
A3101400870000001177093RIVERO, CHRISTOPHER ABRAGAN                              0501
A0101401830000001281910DE GUZMAN, CONCEPCION FRANCISCO                          0502
A0101401090000001618822AVGENT COPY CENTER                                       0502
A0101403320000001647092DIMACULANGAN, RODEL LORIA                                0501
A0101400730000001822322JAQUELINE F. ERLANDEZ                                    0501
A0101406750000002040260TOLENTINO, ROSALINA SABATER                              0501
A0101413990000002273981DAG-AY, RODOLFO JAGONOB                                  0501
A0101406590000002277530ESM FRUITS & VEGETABLES DEALER                           0502
A1001400480000002300292IGNACIO, JESUS OLIVER PACHECO                            0501
A0101402510000002936047NUEVA, CENMARK SORIANO                                   0501
A0101400860011243686001**********                                               0502
A0101400860011298552007MA. TERESA N. MERCADER                                   0503
A0101400860011393751002**********                                               0510
A0101400860011394300002**********                                               0503
A0101400860011477042001**********                                               0503
A0101400860011479962001**********                                               0502
A0101400860011523266001**********                                               0502
A0101400860011541134002**********                                               0502
A0101400860011550744001**********                                               0502
A0101400860011572208001**********                                               0502
A0101401250021180271001ERLINDA V. EQUIBAL                                       0501
A0101401700041386485001MA. SONIA DINO                                           0501
A0101401700041458452001YAMSUAN, EVA HABANA                                      0501
A0101400150061489254001BENSON, JANE                                             0501
A0101400600071684249001******                                                   0503
A0101405810072234892001**********                                               0502
A0101405810072432061001GO, SONIA LALLAVE                                        0501
A0101405810072545795001**********                                               0501
A0101400730111334903033KERWYN D. GARCIA                                         0501
A0101400730111386485182DOLORES SALANG                                           0501
A0101401960121240766001**********                                               0501
A0101401960121554539001TAN, ANNA BELLA                                          0502
A0101401830141333975002RIVERA, TERESITA ILLO                                    0504
A0101401830141404408001CONRAD T. BALBIN                                         0501
A0101400440161039572003JUDELITA S. ECHUAL                                       0501
A0101400440161039572036ANTONIO S. VILLANDA JR.                                  0501
A0101400440161478374198EUFRONIA I. BERGONIA                                     0502
A0101400440161520766131ENRIQUETA PATRIARCA                                      0501
A0101400440161541478001ERWIN S. AGUSTIN                                         0502
A0101401090171195893001DR. RICARDO AGBAYANI                                     0501
A0101401090171199884001CLOTILDE N. ARCANGEL                                     0501
A0101401090171236982001JOVENCIO G. APOSTOL                                      0502
A3001400130230767566088YU, ODILIO UY                                            0501
A1001400190231478374006LIBRADO, HAZEL T.                                        0503
A1001400190231751984001GLARIANA, ALMIRA MASIBA                                  0503
A1901400290261021148001ACR CONSTRUCTION SUPPLY                                  0510
A1901400290261293828001ALFREDO V UY JR                                          0501
A1901400290261298552013LEONILA QUESADA GUEVARRA                                 0501
A1901400290261298552118CONCEPCION GONZALES ESTIGOY                              0502
A0101406460272289071002********                                                 0501
A0101406460272517619001SAMILEY, CAROLINA OLIVEROS                               0501
A0101406620273284854001JOCELYN LI                                               0501
A0801400160311478374102MA. CECILIA A. AVANCENA                                  0501
A2001400290315788438001TEJERO, WILMA MILO                                       0501
A0101402510341499107001GLORIA P RAYO                                            0501
A0101402640361425358001TAN, BETTY DIZON                                         0501
A0201400920375478374015GAYO, LOURDES O.                                         0502
A0101408400394033958001RCBP-STA MARTHA PARISH                                   0502
A0101408400394034391001INTEGRATED TELENET SOLUTIONS CO                          0502
A0101408400394478374065VILLANUEVA, VILMA E.                                     0501
A0101408400394478374088MARLENE NECESARIO                                        0501
A0101408400394478374098EDGAR D. NECESARIO                                       0501
A1201400150421482236001FERNANDEZ, ANNIE GOMEZ                                   0501
A0101403030441371302001**********                                               0502
A1401400110492524359001VELUYA, DALISAY BRIONES                                  0501
A0101403450521241184001**********                                               0501
A0101404130601511766001LOPEZ, JULIETA INES                                      0502
A0101407720602198350002MEDINA, CLEOFE B.                                        0505
A0101407720602332201004LIM, MARIA SOCORRO CAEDO                                 0502
A0101404420631478374067DELIA M. ABENOJA                                         0502
A0101406590662035265001******                                                   0503
A0101411950680497211001******                                                   0501
A0101411950680643262001CRUZ, GLORIA MADAYAG                                     0501
A1301400210682478374053RUBIROSA C CABUGWASON                                    0502
A1301400500684478374003ELMA I. DE LEON                                          0502
A1701400230693478374060ROMOSOD, ADELA PASCUA                                    0501
A0101408240711372726002ANNETTE S. TY                                            0501
A2801400100712253346001CHERYLL P. PERALTA                                       0502
A2801400100712387797001ROCHELLE C. PEREZ                                        0503
A4101400390813427399001VILLANUEVA, ELIZABETH MAIGUE                             0502
A0101404840851520766162JANET H. ESTORES                                         0501
A0101406750852301290001JIMENEZ, EDITHA RANOCO                                   0502
A0101406750852741281002HELEN A FANGON                                           0501
A0101406750852756139001BENITO, ISABELITA CIUDAD                                 0501
A0101406750852794904001MONTERO, MIRIAM CUEVAS                                   0501
A0601400230891788658001LENON, DIOSDADO MANLUTAC                                 0501
A0201400760000000222831RELATUS REALTY & DEVELOPMENT                            10502
A1601400170000000421069CHARLES P. CLEMENTE III OR                              10505
A0101402930000000580778ROMERO, A DBU ALEJANDRO F.                              10501
A0101402930000000859769SANTOS, VIOLETA DALUSONG  DBU                           10501
A3001400130000000931208BENDIJO, AMELITO MONDEJA OR                             10501
A0101403320000001647014MALANA, CARLOS FRANCO OR                                10501
A0101406620000001686906CAPARROS, N DBU ODC TRADING &                           10501
A0101409920000001951942MEMBERS OF NATASHA (SHOECAT INC                         10501
A0101405490000002141082MCMAR & MARY ELECTRICAL &                               10501
A0601400520000002270920PUNZALAN, JOSELITO M. OR                                10501
A5001400170000002288242AJOC, RODOLFO PAPELLERAS OR                             10503
A0101408240000002381386MILLARES, MIRACLE TAZEL                                 10501
A0101400150061227644001JOSEFINA T. GUTIERREZ OR                                10502
A0101401090171293965003VIVECA JANE OR CHARLIE                                  10502
A0101401090171791856001CONCEPCION SHERYL DEE T.                                10505
A3001400130230757981001SACAY, RENE CANTOR OR SACAY,                            10502
A1901400290261245089002SHIRLEY OR DIONISIO GUTIERREZ                           10502
A0101401670271619785001CHONG, ALAINE MARGARET CHUA OR                          10503
A0101400570281021967001CHANGING DIGITAL IMAGING                                10501
A0101402930381626170001JEREH C. RUFIN OR                                       10501
A0101408370382206550001DR. MARIETTA A. PANALIGAN OR                            10502
A0101404420631437955001JORY FRANCISCO OR                                       10501
A0101408240711400412005MIRCHANDANI, MICHAEL OR SHERYL                          10501
A0201400760000000222831CORPORATION                                             20500
A1601400170000000421069CHARLES L. CLEMENTE JR.                                 20500
A0101402930000000580778ROMERO CONSTRUCTIONS                                    20500
A0101402930000000859769VSANTOS TRADING                                         20500
A3001400130000000931208BENDIJO, ERLEN ANGGONG                                  20500
A0101403320000001647014MALANA, BASILISA ESPIRITU                               20500
A0101406620000001686906LOGISTICS                                               20500
A0101409920000001951942TULAYBA, ARLENE                                         20500
A0101405490000002141082CONSTRUCTION SUPPLY                                     20500
A0601400520000002270920BOGNOT, LOURDES G.                                      20500
A5001400170000002288242AJOC, MARY JUNE BERMUDO                                 20500
A0101408240000002381386RODRIGUEZ                                               20500
A0101400150061227644001MA. REGINA PAZ G                                        20500
A0101401090171293965003DEOCADIZ                                                20500
A0101401090171791856001QUERIJERO                                               20500
A3001400130230757981001JOSEPHINE SIMBIT                                        20500
A1901400290261245089002OR DIONISIO GUTIERREZ SR                                20500
A0101401670271619785001CHONG, BERNARD LU                                       20500
A0101400570281021967001GRAPHIC                                                 20500
A0101402930381626170001TRICIA RUFIN                                            20500
A0101408370382206550001PEDRO P. PANALIGAN                                      20500
A0101404420631437955001EVELYN FRANCISCO                                        20500
A0101408240711400412005OR SHAM OR LALA                                         20500
B0201400890000000027916STRONGHOLD GLASS AND ALUMINUM CORP.                      1601
B0101402930000000623432GOODRICH PHARMACY AND GEN. MERCHAND                      1601
B0601400230000001062366BEARING CENTER & MACHINERY, INC.                         1601
B0101408400000001258624KETMAR FASTFOOD CORPORATION                              1601
B0101400600000001335740********                                                 1601
B0101401700041475686001MULTIMOTORS AUTO PARTS INC.                              1605
B0101400150061026122002DDC LAND INC.                                            1605
B0601400360083041164001TOP SELLERS PLUS, INC.                                   1601
B0101401830141043360001MAGNA GOLD PHARMA INCORPORATED                           1603
B0101407140213423268001**********                                               1601
B3101400160221010072001GROLIER INTERNATIONAL, INC.                              1602
B3101400160221016423002GROLIER INTERNATIONAL FINANCE, INC.                      1602
B1001400190231038674001ORO INTEGRATED COOPERATIVE HO                            1603
B1001400350233036049001RANTRADE INDUSTRIAL SALES CORPORATION                    1601
B0101406620273216386001CITIMEX, INC.                                            1602
B2001400290315041308001BOTICA DE SAN FRANCISCO                                  1603
B0101405650322033249001PEAK PROPERTIES INC.                                     1605
B0101405490392030408001BTD ELECTRICAL MERCHANDISE                               1602
B0101409180397753456001PIXEL EYE OOH MEDIA INC.                                 1610
B0501400170481013109001MOTORCENTER INC.                                         1602
B1901400160491027966002SALESFORCE ONE MARKETING, INC.                           1603
B0101406880513769110001SAFESOFT SOLUTIONS PHILIPPINES, INC                      1602
B0101403450521011599001**********                                               1605
B0101403450521011626001**********                                               1603
B1301400210682041874001MBB ROYALE INTERNATIONAL INC.                            1603
B1301400210682041874002MBB ROYALE INTERNATIONAL INC.                            1603
B0101406750852041203002AUTOCIRCULO CORP.                                        1610
B0601400230891252526001AGNES MAY P. DE JESUS                                    1601
B1601400170000000497018ARMANDO R. MAGPANTAY AND                                11601
B0101408400000001258668LAZARO, JENNIFER P AND LAZARO,                          11601
B0601400100081253610002NG, WILFREDO M. AND AQUINO, JANET B. AND                11601
B0801400160311100161001PRUDENTIAL CUSTOMS BROKERAGE SERVICES,                  11603
B1601400170000000497018CARLITO RAMIREZ                                         21600
B0101408400000001258668ARRHENIUS                                               21600
B0601400100081253610002BUAN, ROLAND S.                                         21600
B0801400160311100161001INC.                                                    21600
B0101404840851821100608**********                                               2005
