B1901400160491821100608**********                                               2005
A0101412760000001399880ABUDA, SANDRA MARLENE SANDOVAL                           0502
B0101400730111821200608**********                                               2002
A0101412760000000528205SARAH JAYNE A. SANCHEZ                                   0501
B0101405940000005359560AUTOBRANDS MEDIA VENTURES, INC.                          1603
A0101403610000010315798CARANDANG, CRESILDA ACLAO                                0501
A0101401250021435998001********                                                 0501
B0101411370000000018124AIO FINANCE GROUP INC.                                   1601
A0101400150000002749682RENNA, LAWRENCE DANIEL OR                               10502
A0101400150000002749682RENNA, JUDITH MARIE                                     20500
A0101400150000003601152FANDINO, NATHANIEL ROSS OR                              10502
A0101400150000003601152FANDINO, MARGARITA ANNA                                 20500
B0101400150061011172002CASE SERVICES INC.                                       1605
B0101400150061026196004TRANS ASIA POWER GENERATION CORP.                        1602
B0101400150061085874001ANNING CORPORATION                                       1602
A0101400150061520152001ENGRACIO U. ANG JR.                                      0501
A0101400600000001335604PORRAS, MARIVIC DE GUZMAN                                0502
A0101400600071496801002******                                                   0502
A0101410850000010332315BELOSO, FELIX BANTUGON                                   0501
B0101410850000000000646MG8 TERMINAL INC.                                        1605
A0101410560000005836115CINCO, ANGELA S.                                         0501
A0101400730111386485042ELENA B. PEREZ                                           0502
A0101400730111478374020FERMANES, LILIA S                                        0502
A0101406040000001391960********                                                 0503
A0101406040000003332954NERVES, JOSE ROLITO NAPA DBU                            10502
A0101406040000003332954JRN GENERAL MERCHANDIZE                                 20500
A0101406040112092241001********                                                 0501
A0101406040000001392007********                                                 0501
A0101401960000006004513**********                                               0502
B0101401960121238769001**********                                               1602
A0101401960000006004422***************                                          0501
A0101400440000001439910JESSIERELL F. NACILLA                                    0501
A0101400440161358347001MA. ELSA T. APOSTOL                                      0501
A0101407270000001596810CHARL LESTER E. QUIJANO                                  0502
A0101407270000004915920CHANTE, CHARLOTTE DY                                     0501
A0101407270162163292001ANICETO P. GO                                           10502
A0101407270162163292001OR MILDRED GO                                           20500
A0101407270162587936002WILFRIDO G. TIRONA                                       0501
A0101401090171196080001GIL Y. GAMILLA, M.D.                                     0503
A0101401090171680564001LUMASAG, CHARLOTTE TOLEDO                                0501
B0301400530193750774188********                                                 1602
A0301400790000001244600YBANEZ, RITCHIE AGUIO                                    0501
A0101410720653575643001FARINAS, CARMELITA DAGDAG                                0501
B0101410720000000029996J.C.T. EZ LOAN CORPORATION                               1602
A3101400160000000006500ANNIEFER P MERCADO                                       0502
A3101400160000008941293DIGOS, ROSANNO H OR                                     10502
A3101400160000008941293ALGENIO, RYAN DA                                        20500
A3001400130230045294001TABASA, RICKY CARPIANO                                   0502
A3001400130230478374004BALABA, JANETH BORJA                                     0501
A3001400130000008264740SUMAYO, ERADYL D                                         0501
A1001400190000002266504MARABE, RIKKA AND LA VINA,                              10503
A1001400190000002266504IRISH OR MARABE,                                        20500
A1001400190000002170736MARABE, RIKKA LA VINA AND                               10505
A1001400190000002170736LA VINA, IRISH P                                        20500
A1001400190231520766119CABANO, BERNADITH CATIWALAAN                             0501
A1001400190000002170543NIEVES CABASAN                                          10501
A1001400190000002170543NATASHA MEMBER                                          20500
B1001400480000006296273SMART TECH INDUSTRIAL SALES & SERVICES                   1603
A1001400480000008501951QUILANG, LANI DELA ROSA DBU                             10505
A1001400480000008501951CLIK ENTERPRISES                                        20500
B1301400470000003270157L5 & SONS FINANCING CORP.                                1610
B0101401670000000016300NEWLINE INDUSTRIES, INC.                                 1603
B0101406460272015262001*********                                                1602
A0101408660000002264893CHAN, CHERYL JOY A. OR CHAN,                            10501
A0101408660000002264893EVELINA OR CHAN, PHILIP                                 20500
B0101410980275056888001********                                                 1602
A0101412470000002295838TAN, CAROLINE SHERYL ONG                                 0504
A0101412470000005380558MANZANO, PAOLO MIGUEL SOTTO                             10501
A0101412470000005380558AND MANZANO, AURORA MARIE                               20500
A0101400570281442475001AQUINO-AQUINO, PRUDENCE VALERA                           0501
A0101400570281739506001JOHN CLAUDE S. CABREROS OR                              10502
A0101400570281739506001HERBERT R. FERNANDEZ                                    20500
A0101411240000010254018ALIPIO, BIENVENINIO HERBOSA                              0501
A0101411240000005136458PAMITTAN, JAICE LEMUEL OBISPO D                          0501
A0501400200000006272164TOLETE, MELINDA OVALLES                                  0501
A2601400270000002677569DEXTER C. DUMRIQUE                                       0503
A2601400270000000019510GILBERT T. FAGEL OR                                     10502
A2601400270000000019510AILEEN A. FAGEL                                         20500
A1101400120313478374055OBILLO, EMMA P.                                          0501
A1101400120313478374205QUIAL, ROXANNE                                           0501
B2001400290315045753001HOTEL PALWA                                              1610
A3401400280318086148002FLORENTINO, MIRALUNA LOYOLA                              0504
A3401400280318478374006LOVERAS, EMCY DEL ROSARIO                                0505
A0101402350000001474324MARTINEZ, KENNETH BUHAT                                  0502
A0101402350321180154001IMELDA D. TOYOSHIMA                                      0501
A0101405650000006273601H. NOOR, MALIKSAIF BANGON                                0502
B0101405650322077417001ELEGANT INFOVENTURES, INC.                               1602
A0101405650322298552012ROSITA A. CARANDANG                                      0502
A0101402510341323210001ALBERTO V. ALAMAN JR.                                    0505
A0101402510341323210002ALBERTO V. ALAMAN JR.                                    0502
A0101402060000000358623IMMACULATA, ROWENA MARTINEZ                              0501
B0101402060351028684001EMSI MARKETING NETWORK                                   1603
B0101402060351030802001PACIFIC RESINS INC.                                      1605
A0101402060351039467001LAY BARE WAXING SALON                                    0502
A0101402060351039467002LAY BARE WAXING SALON                                    0502
A0101402060351039467003LAY BARE WAXING SALON                                    0501
A0101402060000000358770LAY BARE WAXING SALON                                    0501
A0101409050000003536565VENKATA RAMANA BOBBA                                     0501
A0201400760374612071001CHAN, ENG HONG SY                                        0501
B0201400920375042734001A. LIM DEVELOPMENT INC.                                  1602
A0201400890376058678001SING, ARTURO YU                                          0503
A0201401020000004409103CHAVEZ, RAYMOND A DBU RGSK TRAD                          0502
A0101402930381423656005EXCELSIS V. ANTOLIN                                      0501
A0101408370382205161001DR. WILLY G. LOPEZ                                       0501
A0101408370382552454001DR. BONIFACIO S. RAFANAN JR.                             0505
A0101408370000000336138SOLOMON, ANA LIZA SOTELO                                 0502
A0101408790000005251332**********                                               0502
A0101408790000005251201VILLADOLID, PAULA ANGELA COLET                           0501
B01014027700000068124627 SEA AIR & LAND LOGISTICS SERVICES                      1601
A0101402770000000360701KELLY TAN CHAN                                           0501
A0101408400000005286320AMEROL, ROSLINA MAROHOMSALIC                             0501
A0101408400000005286320AMEROL, ROSLINA MAROHOMSALIC                             0503
A0101408400394508446002BILIGAN, CHARLENE LASCO                                  0502
A0101408400000000029525PELAEZ, MARIA ANGELINA ARAULLO                           0501
A0101409180000003310221HERNANDEZ, RAFAEL ANTONIO E. OR                         10502
A0101409180000003310221HERNANDEZ, MARIA                                        20500
A0301400820000008995453COMIA, JULIETO M.                                        0501
A5501400120410633082001TAPALES, MARILOU OR TAPALES,                            10501
A5501400120410633082001AMADO                                                   20500
A5501400120410714634001ELISAN, ELVIE JUNTILA                                    0502
B2401400180411033733033ECA RESOURCES, INC.                                      1602
A2401400180411034282001N. CONGSON CONSTRUCTION SUPPLY                           0510
B0101403320471009122001ELDRICH FOODS CORPORATION                                1603
B0101403320471064355001SQUARE METER TRADING AND CONSTRUCTION                   11610
B0101403320471064355001CORP.                                                   21600
B0101403320471066739001FRANCES BUILDERS CORPORATION                             1601
A0101403320471478374016SONIA SALANIO                                            0501
B0101406330472314132001*****                                                    1602
A0101406330472478374046YVONNE M. LOMIBAO                                        0502
A0101410140000000499383USON, PERLA PORTUGUEZ                                    0501
A0101412760000002306229DE GUZMAN, DUSTIN EWALD DANTES                           0501
A0501400170481365467003CALLANTA, JOHN SORIANO                                   0505
A3801400170000002302761NANCY M VINAS                                            0502
A3801400170000008068866LAVEGA JR., RUPERTO JUAYNO OR                           10501
A3801400170000008068866PERONO, EVANGELINE LAVEGA                               20500
A3801400170490055006001MICHAEL OR CARYL MONTALES DBU                           10501
A3801400170490055006001MONTALES LEARNIN                                        20500
B1901400160491039054001ST. VINCENT ARRASTRE STEVEDORING &                      11602
B1901400160491039054001FORWARDING CORP                                         21600
A1901400160000001718087GUNZEN RESOURCES ENTERPRISE                              0501
A1901400160491063133001REMO, NORMAN DBU SKYLINK                                10501
A1901400160491063133001SATELLITE SERVICES                                      20500
A1401400110000000132841*******                                                  0501
B1601400170000000036035SIX IN ONE CORPORATION                                   1603
A0701400260000003259374**********                                               0501
B0101407430000008901268MILLENNIUM OCEAN STAR CORPORATION                        1601
A0101407430000003193946LOPEZ, JENNIFER N. DBU JLO HIGH                         10501
A0101407430000003193946PERFORMANCE MOTOR SHOP                                  20500
B0101407430000008901280JOMARK FOOD CORPORATION                                  1601
B0101403580511697760002SUNNYBING INTERNATIONAL TRADING                         11605
B0101403580511697760002CORPORATION                                             21600
B0101405940512025648001EXPRESSIONS STATIONERY SHOP, INC.                        1601
B0101405940512034257001STERLING PAPER PRODUCTS ENTERPRISES INC.                 1601
B0101405940512034258001STRAIGHT LINES INTERNATIONAL, INC.                       1601
B0101405940512034259001CENTRAL BOOK STORE, INC.                                 1603
A0101405940512401022002JENNIFER P. FERNANDEZ                                    0502
A0101405940512718511001VITANCOL, RAMIRO BAUTISTA                                0502
A0101408530000007719831TAN, KELVIN HO                                           0502
A0101412050000002314443DAYRIT, WILLIAM BRIOL                                    0501
A0101412050000002314494********                                                 0502
A0101412050000000890740********                                                 0501
A0101403450521238178001**********                                               0503
A0101403610531219282001ALMENDRALA, FERNANDO GERODIAS                           10505
A0101403610531219282001OR ALMENDRALA, PAULINA                                  20500
A0101403610531400725002HEREDIA, DALISAY OLIPAS                                  0501
A0101403610531478374002GRAPE, IMELDA HANDOG                                     0501
A0101403610531662330001BERROYA, MARK LESTER AMOR  OR                           10502
A0101403610531662330001BERROYA, CONNIE                                         20500
B2201400250561037709001NEW DAN'S ELECTRICAL                                    11603
B2201400250561037709001REFRIGERATION                                           21600
A2201400250561478374006ANGELINA P. QUIBALLO                                    10501
A2201400250561478374006MEMBERS OF NATASHA                                      20500
A0101407720602382305001PARDINAN, ROSSANA O.                                     0501
A0101407720602664929001VITAL, ARIES ZOILON                                      0502
A0101404260611478374091ROSITA LLANES                                            0501
A0101404260611478374104JUDITH R LUMBO                                           0501
A0101409890000003098008********                                                 0503
B0101409890000003098151TECHNOLINE DIGITAL TRADING INC.                          1605
A0101411530000000013732CALILUNG, TARCISIO SURLA                                 0501
B0101411530000008554952TAN, CHRISTIAN MARK YU                                   1601
A0101413440000000183748MALLONGA, IRENE REYES                                    0503
A0101413990000001202377ELLEN MAE L. GONZALES OR                                10501
A0101413990000001202377RONALDO AMADOR GONZALES                                 20500
B0101406590662043490001CARMEL MKTG & TECHNOLOGY CORP.                           1603
A0101410300000000026542********                                                 0501
A0101410300000000026462SYCIP,JOHN CARLOS/BANTIGUE,JOHN                         10510
A0101410300000000026462PAUL/ESQUIVIAS,J                                        20500
B1301400210000000023543SAN PABLO LIAM FOODS CORPORATION                         1603
A1301400210682478374053RUBIROSA C CABUGWASON                                    0502
A1301400340683456739001LAZATIN JR., EDUARDO NIONES                              0501
A1301400340683776169001BARAQUIEL, JOCELYN LIM                                   0502
A1701400230693711027001AGUSTIN, FERDINAND MENOR                                 0501
A4101400260812660781001AUBREY E. REQUESTO                                       0501
A4101400260812681817001VICEDO, ERMINDA VILLAFLORES                              0501
A0101412340000007305575ACLETO C. RIGOR OR                                      10502
A0101412340000007305575CARINA M. RIGOR                                         20500
A0101404840851281035001NELLIE M. LAW &/OR                                      10503
A0101404840851281035001HERMINIO T. LAW                                         20500
A0101404840851424338001PAMITTAN, MYRNA M.                                       0504
A0101404840000000683461BALMES, GERVACIO FRAGO                                   0501
A0101406750852066750001AVECILLA, JULIUS C. DBU JCA TRU                          0501
A0101406750852377819001LLANES, KRISTINE DIANE PABLEO                            0501
A0101406750852384612003JOSEPH MONZON OR EVELYN MONZON                          10501
A0101406750852384612003OR KIM RYAN MONZON                                      20500
A0101406750852620298001EMILY COLINA OR DOMINGO                                 10501
A0101406750852620298001COLINA JR                                               20500
A0101406750852741281002HELEN A FANGON                                           0501
A0101405070861338912002GIM, LOIDA CONALES                                       0501
A0101405070861405634001KIKUCHIBARA, ROSALIE OR                                 10505
A0101405070861405634001KIKUCHIBARA, TAMIO                                      20500
A0101405070861478374054LUZVIMINDA T. PONTANAR                                   0502
A0601400230000000452839ARCINUE, S DBU SLA ENTERPRISES                           0503
A0601400230891363362001MARITESS P. FLORES                                       0501
