F0601400100081042457001HAFA ADAI COURT                                          2504CKO
F0101401830141372736001JUDY ISABEL S. JAVIER                                    2505CKO
F0101400570281363142002ESPOSO, DR. EVELYN ANDRES                                2504CKO
F0101405650322044089001UNITED GLOBAL LOGISTICS, INC.                            2602CKO
F0101407720602030155002DEPARTMENT OF DERMATOLOGY - MMC                         12603CKO
F0101407720602030155002FOUNDATION INC.                                         22600CKO
F3201400190000001493078*********                                                2505CKO
