A1001400480000000041454SIMON, GEORGIE ABECIA OR                                10502
A1001400480000000041454SIMON, JOEL CAGAPE                                      20500
A0101408400000001614626CANCE, HERMENEGILDO D.G.                                 0501
A0101400860011395459004**********                                               0505
A0101400860011502561001**********                                               0502
A0101400860011516358001**********                                               0503
A0101400860011538614001**********                                               0502
A0101400860011539482001**********                                               0502
A0101400860011603824001**********                                               0505
A0101400860011663274001**********                                               0502
A0101401250000011296923BINAS, JULIE NUAL                                        0503
A0101401250021040561001WOODROSE HEALTHCARE MARKETING                           10504
A0101401250021040561001SERVICES                                                20500
A0101400150000008044233DE JESUS, JOSE ZOSIMO TEANO                              0502
B0101400150061010662001HINATUAN MINING CORP.                                    1610
B0101400150061014885002SB INTERNATIONAL SERVICES INC.                           1601
B0101400150061030497001NAF GLOBAL INC.                                          1610
B0101400150061032248002THE TURF COMPANY, INC.                                   1601
A0101400150061038536193FERNANDO, PABLO                                          0501
B0101400150000000633185SB RENTAL CORPORATION                                    1605
A0101400150061233523001BANGAYAN, TEOFILO OR                                    10503
A0101400150061233523001BANGAYAN, SHIRLEY                                       20500
A0101400150061236944031FE S. ROSANO                                             0501
A0101400150000000807910BALTAZAR, SAVITRI GANDHA FACUN                           0501
B0101400150061604636001GREAT HARVEST MGMT. HOLDINGS CORP                        1601
A0101400600000001335648********                                                 0502
A0101400600071233610003********                                                 0501
A0101400600071236308001********                                                 0501
B0101405810072029570001PLASTIC CONSUMER CORPORATION                             1601
A0601400100081024366001E.A. TRADING                                             0501
A0601400100081578724001ROMERO, OFELIA SUBA                                      0501
B0601400360000003186714BSD TRADE SERVICES CORP.                                 1603
A0601400520000003009321MANANKIL, RODERICK TULABUT DBU                          10501
A0601400520000003009321WATCH YOUR BAGS BOUTIQUE                                20500
A0101413730000003715837************************                                 0503
B0101410560000007071423TOP 8 CARGO MOVERS AND CUSTOMS BROKERAGE                11602
B0101410560000007071423CORP.                                                   21600
A0101410560000001291010SUMAGAYSAY, JENNIFER MACHADO                             0501
B0101400730000002102378IMAGE TRAVEL AND TOURS CORPORATION                       1601
A0101400730111296845001SAMIANO JR., DOMINADOR GONZAGA                           0501
A0101401960121096152001***************                                          0502
A0101412630000000045321*********                                                0502
B0101401830141036071001EURUS ENTERPRISES                                        1601
A0101401830141070560001MARIANO,DERICK/HECITA,JOSEPHINE                         10501
A0101401830141070560001HERNAN,MARIA VAN                                        20500
A7201400170000007185608AMAD, CORAZON MADRINAN                                   0501
A7201400170000013359047YBALANE, MESLIE C DBU WALLIE                            10501
A7201400170000013359047GENERAL MERCHANDISE                                     20500
A0101412920000000276408LECCIONES, GEMINIANO MONTERO JO                          0501
A0101412920000011166691MERJUDIO, LINA COLLADO                                   0501
A0101400440000007904881FRANCISCO, EMILY PALARCA                                 0501
A0101400440000012169374SON, EMILY AUSA                                          0501
B0101400440000003766934APPLIED CVF INCORPORATED                                 1602
A0101400440000000029423ROBINA P. OTAZA                                          0502
A0101400440000002035063BUGA, JULIET BONADOR                                     0501
A0101400440000002035201CRISANTA M. FREO                                         0501
A0101400440161459294001MARY ANN T. REGINALDO                                    0502
A0101400440161525001055MA. LUZ E. ABIERTA                                       0501
A0101407270162772005001EDNA G. HURANO                                           0501
A0101401090000005320490GUEVARRA, CANDICE MAY JUSAY                              0501
A0101401090171195404001FERRER, RAFAEL                                           0503
A0101401090171196113001ROMULO ASIS OR LEILANI ASIS                              0502
A0101401090171196114001LEILANI M. ASIS OR                                      10502
A0101401090171196114001ROMULO Z. ASIS                                          20500
A0101401090171196114003LEILANI M. ASIS                                          0501
A0101401090171200998001LUCAS OR NADINEE ARCEO                                  10502
A0101401090171200998001OR ABIGAIL ARCEO                                        20500
A0101401090000001611267RESTITUTO D. LLAMAS                                      0501
A0101401090171531698001MARIA ISABEL D. CORNEJO                                  0501
A0301400530000002318561VILLANUEVA, FEDERICO MAGPAYO OR                         10501
A0301400530000002318561VILLANUEVA, MARI                                        20500
B0301400660194047894088RAD GREEN SOLUTIONS CORPORATION                          1601
B0301400660000001020124SILVER POWER FUELS                                       1603
A0301400790000003969513VALDEZ, ADORA ZABATE OR                                 10502
A0301400790000003969513VALDEZ, JOSUE BARILLO                                   20500
A0301400790000001010631BAJO, MARICON ONGKINGCO                                  0502
A0301400950000008000706ASTA, MARIO CALUMPANG                                    0501
B0101401380201024067001GLODA BUILDERS & DEV.                                    1601
B0101401380201045863001C.F. SHARP HOLDINGS INC.                                 1603
A0101410720000007843323CUNANAN, JANE CATO                                       0501
A0101410720653089510001GONZALES, GENEVIEVE FRIAS                                0501
B0101410720653481345004VERLIN KONSTRUKT INC.                                    1603
A0101412500000003853474****                                                     0501
B3101400160000002355740TOMAS DAVID A MENESES OR MIRA CYNTHIA M                 11601
B3101400160000002355740ZIALCITA                                                21600
B3101400160000002355739MENESES V, TOMAS BIENVENIDO OR ZIALCITA,                11601
B3101400160000002355739MIRA CYNTHIA                                            21600
B3101400160221036303001GRUPPO MEDICA, INC.                                      1601
B3101400160221038613001INTERMED MRKTG. PHILS. INC.                              1601
B3101400160221063156001METROPOLITAN PHARMACEUTICAL PRODUCTS INC                 1601
A3101400160221278150001DR. CATHERINE A. AMISTAD                                 0502
B3101400160221497995001MENESES, TOMAS VICTORINO OR MA CYNTHIA                  11601
B3101400160221497995001OR MIRA CYNTHIA                                         21600
A3101400160221503120002JOSE A BACUD                                             0501
A3101400160221503120003BACUD JR, JOSE ADDUA AND                                10501
A3101400160221503120003AMISTAD, DOMINGO                                        20500
A3101400160221533269001JOSE P. SANTIAGO JR.                                     0501
A3101400160221533272001NICOLAS S. MOLON                                         0501
A3101400160221534752001MARISSA S. SANTIAGO                                      0501
B3101400160221701165001SAMSON, MIRA GRACIOSA OR MIRA ANGELICA                  11601
B3101400160221701165001OR MIRA CYNTHIA                                         21600
A3101400450000002092888LI, YUXIAO OR SHI, CHUN YAN                              0502
A3101400450223058711001ESEO, GUIA DBU BUENA-VENTURES                           10501
A3101400450223058711001TRADING POST JT                                         20500
A3101400870000013343932BINAYUG, ROMEO BALUBAL                                   0501
A3101400870000013343943DE SILVA, REGINO VICTOR ESCOBAR                          0501
A3101400870000013343954DOLOR, LEA RIZA MATEL                                    0501
A3101400870000013343965FORTALEZA, REYSYL HOLANDA                                0501
A3101400870000013343976FRISNEDI, MARIA ALICIA BANGAYAN                          0501
A3101400870000013343987GASANGUE, ELENITA PESIGAN                                0501
A3101400870000013343998IGNACIO, NESTOR MENDOZA                                  0501
A3101400870000013344002JARDIO, MARISSA QUITAIN                                  0501
A3101400870000013344013LORIA, EMELDA SIGUA                                      0501
A3101400870000013344020MARANAN, RAISSA UMANDAP                                  0501
A3101400870000013344031MARTINEZ, MONICA BUCAL                                   0501
A3101400870000013344042MILES, EVANGELINE CACAYORIN                              0501
A3101400870000013344053NALE, ASUNCION GARCILLANOSA                              0501
A3101400870000013344064PARAISO, ROSEMARIE JUANILLO                              0501
A3101400870000013344075SAGUN, MA URSULA ARAGO                                   0501
A3101400870000013344086SECUNDO, JOY ZAMORA                                      0501
A3101400870000013344097TANEDO, NEIL RANIER NUNEZ                                0501
A3101400870000013344100VALENCIA, JANNET AGODO                                   0501
A3101400870000013344111VARIAS, PAULINO FLORES                                   0501
A3101400870000013344582CONSTANTINO, DENNIS AREVALO                              0501
A3101400870000013344611PAGADUAN, MANUELITO DIOMABOC                             0501
A3101400870000013344640MANAOG JR., BENIGNO ESTRELLA                             0501
A3101400870000013344326QUIOGUE, CARLITOS PAGTAKHAN                              0501
B3001400130230043293001L.M. TING FOODILICIOUS CORPORATION                       1620
A3001400130000000931162VOCALES, MYRA SERENO                                     0501
A3001400130000008264784SANCHEZ, AGNES M.                                        0503
A3001400130000008915971JUBAC, CHARLES TATAD                                     0502
B1001400190231025460003SAFER RIVER LIFE SAVER FOUNDATION I                      1601
B1001400190231045801001SUMMIT WORLD PHILIPPINES INC.                            1601
A1001400190231478374083CHIONG, MARIVIC P.                                       0501
A1001400190231478374154EVELYN A. CABALLERO                                      0501
A1001400190231520766042GEOTORO, INES MANGUILIMOTAN                              0501
A1001400190231520766128MAGLANGIT, JONIE QUIACAO                                 0501
A1301400470252445386001DESIREE G. AGUSTIN                                       0501
A1301400470252538611001LIWAYWAY LUCITA M. OGANIZA OR                           10501
A1301400470252538611001LEOPOLDO F. OGANIZA                                     20500
A0101401670271188302001EDGARDO B. FAVILA                                        0505
A0101401670000003675252SALAZAR, EMMANUEL BERNARDO                               0503
A0101406460272533237001CHUA, CARLA DANIELLE CU                                  0501
B0101408660274047925001CNT PROMO AND ADS SPECIALISTS, INC.                      1610
A0101408660274087487001**********                                               0501
A0101408660274618355001AGUILERA, ALLAN ANTHONY  OR                             10505
A0101408660274618355001DORIA, GRAND MIC                                        20500
A0101412470000002295838TAN, CAROLINE SHERYL ONG                                 0503
B0101412470000000045441LIM KENG HUA FOODS CORPORATION                           1601
B0101412470000003847450EVIZA HEALTH SOLUTIONS INC.                              1604
B0101400570281007182001MEDIC AID DISTRIBUTORS, INC.                             1601
B0101400570281030082001SLMC BONIFACIO GLOBAL CITY MAB CORP                      1610
A0101400570281043930002REALTY & ENTREPRENEURSHIP                               10501
A0101400570281043930002ACADEMY OF THE P                                        20500
B0101400570000003451545ELECTRO MECHANICAL PRODUCTS INTERNA                      1602
A0101400570000000470546DR. JEANETTE TAACA-BITO OR                              10503
A0101400570000000470546IVANA VICTORIA T                                        20500
A0101400570281338114001CARLOS E. DE LAS LLAGAS                                  0501
B0101400570000000031676CAREPLUS HEALTHCARE SERVICES INC.                        1601
B0101411240283047921001VICTORY P REALTY SALES AND LEASING CO.                   1601
A0501400200000005751839GONZALES, GERALD ANACAN                                  0501
B2601400270000011485288MGL RICEMILL                                             1605
A0801400160000002867269EVANGELINE S. BEDANO                                     0501
A2001400290315041683001MINDANAO SIBULAN MACHINE SHOP                            0502
A2001400290315041683001MINDANAO SIBULAN MACHINE SHOP                            0502
A2001400290315648000008ONG, JANE CHUA                                          10501
A2001400290315648000008ONG, HERMOGENES                                         20500
A0101402350321181845001MOJICA, PETER JOEAL H. OR                               10501
A0101402350321181845001MOJICA, HELEN M.                                        20500
A0101402350321584873001*******                                                  0501
A0101405650322289707001GRANADOS, ADOLFO OCAMPO OR                              10501
A0101405650322289707001GRANADOS, LIDA C                                        20500
A0101402510000011695153LAM, LILIBETH CHAN                                       0501
A0101402510341203390001ROSALITA M RIRAO                                         0501
B0201400760374042947001MILDS MARKETING                                          1604
A0201400760374465762003QUE, BENEDICT YAP                                        0505
A0201400760374475574001KOIKE, MASAO                                             0503
A0201400760374720031001******                                                   0505
B0201400890376036039002BALAMBAN ENERZONE CORPORATION                            1602
B0201400890376061846001FREEPOINT MOTORCYCLES & PARTS CO.                        1604
A0201401020000000056415SORELA, DBU M.P. SORELA CONSTRU                          0501
A0201401020000000055952DANO, JOSIE DANAS                                        0502
B0101402930000000038719PROMINENCE PROPERTY DEVELOPMENT COR                      1602
B0101402930000003269334PROMINENCE PROPERTIES INCORPORATED                       1602
A0101402930381205258001DRS. NORMANDO M. BITANGA OR                             10510
A0101402930381205258001ESTER SANTOS-BITANGA                                    20500
A0101408370382205155001DRS. ERWIN B ALCAZAREN OR                               10502
A0101408370382205155001ELIZABETH ANN S ALCAZAREN                               20500
A0101408370382452783001DR. ESTRELLITA F. LOPEZ OR                              10501
A0101408370382452783001DR. FERNANDO L. LOPEZ                                   20500
B0101408790383038209001TRION TRADE, INCORPORATED                                1601
B0101408790383045547001THE ONE DYNAMIC THREE REALTY AND                        11602
B0101408790383045547001DEVELOPMENT CORP                                        21600
B0101408790000006025792EPSON PHILIPPINES CORPORATION                            1610
A0101411660000004597202WAGA, ALICIA MASCARENAS                                  0501
A0101402770000009247127MENDAROS, JACQUILINE ALBIOLA                             0501
A0101402770000007413943BARCELINA, KEVIN BUENAVENTURA                           10504
A0101402770000007413943DBU AVCET CONSTRUCTION                                  20500
A0101402770391215368001VILLACORTA, PAUL LOUIE CRUZ                              0501
A0101402770391355762055SANGALANG, ELMER ALCEDO                                  0501
B0101405490000001935691WESTCROP LENDING CORPORATION                             1605
A0101405490000006241852RED, LOLITA R. DBU CRYSTAL BRAK                          0501
B0101405490000008380723ORIENT STAR TRANSPORT PHILS. INC.                        1603
A0101405490392176390002MELANIE MACARUBBO OR ARTHUR                             10501
A0101405490392176390002MACARUBBO                                               20500
A0101405490392554799001ALLEN NEIL V. PAJARELLANO OR                            10501
A0101405490392554799001FLORANITA V. PAJARELLANO                                20500
A0101408400000004959566DIMAPANGCAT, SORAYA ALAWIYA                              0502
A0101408400000007539942**********                                               0504
B0101408400394019978001BACOLOD WORD OF LIFE MINISTRIES, INC                     1602
A0101408400394476295002UMAGAT, RAUL TUAZON                                      0501
A0101408400394478374092ROSA LAZARO                                              0502
A0101408400394508074001WEE, LEE HIONG TAN                                       0503
B0101408950000004428580CULT FAVORITES UNLIMITED INC.                            1602
A0101408950000000045992TORIO, JOSE AYSON                                        0505
A0101408950396564281001BERNARDO C. CABATINGAN JR.,                              0503
A0101408950396700466001ERIC JOHN LAINEZ MORALES OR                             10502
A0101408950396700466001VICTORIA FRESITA MORALES                                20500
A0101409180000012756322DOMINGO PASCUA JR.                                       0501
A0101412210000003448582TADENA, KRISTINE CARLA SAN JUAN                          0501
B0301400820000002692077TAN, ERWIN P. OR TAN, EMILY C.                           1601
A0301400820000007372809CAI, LILI                                                0503
B5501400120410821100608**********                                               2010
A2401400180411032438001DADIANGAS AUTOWORLD PARTS                                0503
B2401400180000000019805CARL'S BROTHERS REALTY CORPORATION                       1602
A2401400180411525470001DE GUZMAN, ERNESTO MANGONI                               0501
B2401400180411564736001CATULPOS, ELMER VILLEGAS OR                             11615
B2401400180411564736001CATULPOS, YELCY                                         21600
A2401400180411637974001MANANGQUIL, JOHN RAY BETITA  JT                          0510
A1201400150000001863174CABALBAL JR., RODEL MARQUEZ                              0501
B1201400150000000473421E.S. CLEMENTE DEVELOPMENT AND MANAGEMENT                11602
B1201400150000000473421CORPORATION                                             21600
A1201400150421337866001BENITO G. GO                                             0501
A1201400150000000473290BAGSINGIT, SARAH AGWIKING                                0505
A0901400220000003069076TRAVEL EXPRESS                                           0502
A0901400220432093658001LYDIA L. RAMIREZ OR                                     10506
A0901400220432093658001MARIA LEILANI R. YEO                                    20500
A0101403030441238987001**********                                               0501
A0101412890000009833554AMIDO, ANNA LIZA GUEVARA                                 0503
A0101412890000007095549FERNANDEZ, KAISER DE ASIS                                0501
A0101403320471671927001CRUZ, NOLI ESTOY OR                                     10501
A0101403320471671927001LOWELLA M. CRUZ                                         20500
A0101410140000000254460RACELA, A DBU BMPS GLASS ALUMIN                          0502
A0101410140000002307831JARDIN, SAMUEL TABARES                                   0501
B3801400170490058867001KATIPUNAN FOODS SERVICES, INC.                           1615
B0101407430503023081003INTERNATIONAL JOB RECRUITMENT AGENCY INC                 1602
B0101407430503027621001PMEI LEASING CORPORATION                                 1602
B0101407430503039513001CIC INTERNATIONAL DOCUMENT SOLUTIONS,                   11602
B0101407430503039513001INC.                                                    21600
B0101407430503040319001BAYVIEW MANAGEMENT CONSULTANTS INC.                      1602
A0101407430000000141795ALLAS, MARISSA BELLEZA                                   0501
B0101403580511005189001SL SEARCH CORPORATION                                    1605
A0101405940000000061663PELAYO, HUDSON PETER LAPUZ                               0501
B0101405940512020791002ACRYDENTAL LABORATORIES, INC.                            1601
B0101405940512043978001DESTINY CABLE, INC.                                      1601
B0101405940000008479030MY ONE BAHAY CORPORATION                                 1602
B0101408530516005189001SL SEARCH CORPORATION                                    1605
A0101408530000002980750COSEIP, ANITA LIM                                        0501
A0101408530516615903035HELEN GRACE YEE                                          0502
B0101412050000000890922FIELDMEN JANITORIAL SERVICES CORPOR                      1602
A0101403450000001637852*****                                                    0501
B0101403450521011616001EAST INDIES MERCANTILE CO., INC.                         1602
B0101403450521011947001**********                                               1602
B0101403450521025444001**********                                               1601
B0101403450521029992001**********                                               1603
B0101403450000011473675SUNLAND DEVELOPMENT CORP.                                1603
B0101403450521241159001**********                                               1601
A0101403450000001769771SANTOS, EMMA CASTILLO                                    0501
A0101403610000006643230GERNAN, CINDERELLA MAGTULIS                              0501
B0101403610000013074987UYBONTU CORPORATION                                      1601
A0101403610000001174761AMORES, JORENDA BRIGNAS                                 10501
A0101403610000001174761DBU JOHN AMOR ENTERPRISES                               20500
A0101403610531219308001ABANILLA, FRANCISCO APLASCA                              0506
A0101403610531219647001ISLAN, MYLENE AWAYAN                                     0501
A0101403610531508580001ARZOLA, MATHEW MERVIN M. OR                             10501
A0101403610531508580001ARZOLA, MARIA LA                                        20500
A2201400250000013014947RESURRECCION T. QUIAMBAO                                 0501
B2201400250561027176001MALIGAYA TRINITY MULTI PURPOSE                          11601
B2201400250561027176001COOPERATIVE                                             21600
B2201400250000000016920STAPLERS INC.                                            1601
A0101404130000001831727DIMAPILIS, TERESITA GUNIO                                0501
B0101404130601019213002CORONA REALTY AND DEVELOPMENT CORP.                      1603
B0101404130601044365001MANG KIKO CATERING SERVICES INC.                         1601
A0101404130601451280001RAMOS, ANALIZA TAJOR                                     0501
B0101404130601506100002LINK RI LOGISTICS INC.                                   1602
A0101404130601754700001BORCENA, ANA MARIEL TUMANG                               0501
A0101407720000004658799PATIO, MELODY PALENCIA                                   0501
A0101407720000004664860PRESCOTT, MARTIN HAO                                     0501
B0101407720000000885769PHILIPPINE CLINICAL CHEMISTRY &                         11601
B0101407720000000885769DIAGNOSTIC CORP.                                        21600
B0101407720000000885667VIRTUPAK, INC.                                           1601
A0101407720602150510001AGRIPINO BENG A. JAVIER                                  0503
A0101407720602150510002JAVIER, AGRIPINO BENG AGUILA                             0505
A0101407720602162133001MA. DIVINA B. SILVA OR                                  10502
A0101407720602162133001EMMANUEL M. SILVA                                       20500
A0101407720602163422002DR. NOEL V. LAGMAN OR                                   10505
A0101407720602163422002ROSANNA B. LAGMAN                                       20500
A0101407720602200210001EDITHA C. DIZON                                          0501
A0101407720602313008001LEE, BERNADETTE D.                                       0502
A0101407720602318369134MARIA PATRICIA A. CHAVEZ                                 0503
A0101407720000003886911TAMAYO, MA BELEN EVANGELISTA                             0502
A0101407720602396333001RAJAGUKGUK, BELEN PANTANGCO                              0502
A0101407720000004561791RIVERA, LUIS ROBERTO FOOSHEE                             0501
A0101407720602397567001EGAY, LYDIA MORALES                                      0501
A0101407720602397568001CLOMA, ROSARIO MENDOZA                                   0502
B0101412180000000038053HOT SALAD CORPORATION                                    1603
B0101412180604821100608**********                                               2003
A0101404260000013285899SANTIAGO, MARCO ANTONIO LAPARAN                          0501
B0101404260611033622001GOLDEN INFINITY CORP.                                    1604
B0101404260611043675001CIS BAYAD CENTER, INC.                                   1604
A0101404260611478374052ROSEMARY F. ROLDAN                                       0503
A0101409890649751149001CHAN, JERRY ENTIA                                        0501
B0101409890649821200608**********                                               2001
A0101409920000001951931MEMBERS OF NATASHA (SHOECAT INC                         10501
A0101409920000001951931TRASPORTE, GINA                                         20500
B0101407690000003767879MEGARITZ FINANCING CORPORATION                           1603
A0101413440000000702418GARCIA, GREGORIO REY DBU                                10501
A0101413440000000702418SUPERMASTER'S IN                                        20500
A0101413440000001472588DE LA FUENTE, WINONAH TATEL                              0502
A0101413440000002706072PORCIUNCULA, CATHERINE OR                               10502
A0101413440000002706072PORCIUNCULA, JOS                                        20500
A0101413990000013359576LEBIOS, JOBERT G. OR                                    10501
A0101413990000013359576KEELER, MAY PEARL N.                                    20500
B0101413990000000206000CPE MULTI RESOURCES INC.                                 1601
B0101406590662035278001IKENOBO-IKEBANA SOCIETY OF MANILA                        1601
B0101406590662059749001GOLALIAN PROPERTIES INC                                  1602
A0101406590662256412001LORETA C. ARZADON                                        0505
A0101406590662338247001BANTIGUE, JOHN PAUL PANLILIO                             0501
A0101406590662342921003ALBERTO OR MA. LEONOR ATILANO                            0505
A0101410300000000592132DE CASTRO, PAUL JAMES R.                                 0503
B0101410300663789160001FASTRAVEL SPECIALISTS HOLDINGS, INC                      1603
A1301400340683248790001FRANCIA JR., AMOS PEDRO                                  0502
A1701400230000000097881BORJA, DANIEL BOTE                                       0501
B1701400230000002762690TRANSWORLD TIRE AND AUTO SUPPLY COR                      1601
B0101408240000000832622ENSPIRE GLOBAL INC.                                      1602
B0101408240000006414553VILLAPANDO, M DBU JAYMA ENTERPRISES                      1601
A0101408240711383150001AURELIO III OR AURELIO JR.                              10501
A0101408240711383150001OR AARON LITONJUA                                       20500
A0101408240711486190001LOLITA DELA CRUZ OR                                     10505
A0101408240711486190001RAMIL DELA CRUZ                                         20500
A0101408240711558866001OCAMPO, CHRISTOPHER DEL ROSARIO                          0501
A2801400100000011266874BONDOC, CATHERINE MERCADO                                0501
B2801400100712040330001FREEPORT DK INTERNATIONAL INC.                           1603
A2801400230000002312378KIM, WINDY RODRIGUEZ                                     0501
A4101400260000001783508ANTONIO, EMERITO GALANG                                  0501
B4101400260812024721001DORMBUILT, INC.                                          1603
A4101400260812245160001ROMEO P. ARINIEGO                                        0505
A4101400260000006043049FALIC, JEANNETTE RUGA                                    0502
A4101400260000003679943TAN, ANGELINA                                            0501
A4101400260812494463001EMILY V. CARPIO                                          0502
A4101400260000003679669ROSARIO, JESSICA GUTIERREZ                               0501
A4101400420814520766110DELA CRUZ, ARMINDA E.                                    0502
A4101400420000000120798MILO, ROMELDA F.                                         0501
A0101404840000001312656DE VERA, JAYVEE DELA TORRE                               0501
B0101404840000003069663ZETA PRIME PROPERTIES PHIL. CORP.                        1601
B0101404840851061723001INNOVATIVE VENTURES LAND DEVELOPMENT                    11601
B0101404840851061723001PHIL. CORP.                                             21600
A0101404840851217637052FLOR O. RIVERA                                           0501
A0101404840851298552056ROSARIO GABAYERON                                        0501
A0101404840851316655010OCAMPO, JESUS M                                          0501
A0101404840851424338001PAMITTAN, MYRNA M.                                       0506
A0101406750000000358161MUSA, MARICRIS LABAD                                     0502
A0101406750000004641941VILLADIEGO, MA. LOURDES BENITEZ                          0501
A0101406750000007879381FERNANDEZ, JENNY FABIANA TUBALI                          0501
B0101406750000010166382AXONAS INNOVATION INC.                                   1620
B0101406750852039684001PHILJOB MANPOWER SERVICES, INC.                          1601
B0101406750852040242001MANUELA CORPORATION                                      1605
A0101406750000000090833RIVERA, WENDY E. DBU PROSPERITY                         10502
A0101406750000000090833168 FOOD CONCEPT                                        20500
A0101406750000004641678ENDSOFTTECH WEB SOLUTIONS                                0502
A0101406750852478374118RUBY FLAVIER                                             0502
B0101406750852524031001MARY IMMACULATE PARISH MEDICAL SERV                      1601
A0101406750000004642108BANTILING, ALBERT PANES OR                              10501
A0101406750000004642108BANTILING, JULIET LICUAN                                20500
A0101406750000003393173COLLANTES, EMMANUEL BENEDICT TA                          0501
A0101406750852702860001POLANCOS, JUVY ANNE GAMIAO                               0501
A0101406750852787916002TAN, LUZBELLA FORTICH                                    0501
B0101405070861019787001NORTH PHIL. UNION MISSION CORP.                          1601
A0101405070861395809001GUALBERTO ABELLA JR OR                                  10502
A0101405070861395809001ANNABELLE CASTILLO                                      20500
A0101405070861478374066ELMER LADRES APAS                                        0501
A0601400230000002650039ENCISO, ANNELYN RAVARA                                   0502
