F0101403290000000542501VERAFEDE INC.                                            2601CKR
F0101408400394030136001ASP MANPOWER SERVICES                                    2610CKR
F0101403290461027114001ABS PROMOTIONS CORPORATION                               2605CKR
F0101408110515029643001101 BEAT RECORDING STUDIO CO.                            2602CKO
F0101407720602294877009DR. REBECCA B. SINGSON                                   2602CKR
F0101404260611034742001PRIME MOVER BUSINESS SOLUTIONS,                         12605CKR
F0101404840851029765001SENG HIENG FASTFOOD                                     12605CKR
F0101404260611034742001INC.                                                    22600CKR
F0101404840851029765001INCORPORATED                                            22600CKR
