A0101402060351040443001Q-TECH TESTING LABORATORY                                0503
A0101414090000003314923DE CASTRO, ENRICO LLOREN OR                             10502
A0101414090000003314923DE CASTRO, RIZEL ORIT                                   20500
A0101402060000002258988LIM, ALBERT DELA ROSA                                    0502
A0101409920650478374030DELA CALZADA, REGIL OMLANG                               0501
B1101400120313036685001MN MACATO BUILDERS                                       1601
A1101400120000000652351YAO, RONALD PHILIP GO                                    0501
A0101402930381354198001WILFRIDO OR MA ELENA SANCHEZ OR                         10502
A0101402930381354198001MA THERESA MURGA                                        20500
A1201400150000001863123BAGSINGIT, RAUL PALSIW                                   0501
A1201400150421469740001MALECDAN, MARCELA AGWILANG                               0502
A0101412890000001765573******                                                   0501
A2201400250000001066028SALVADOR FREIGHT CORPORATION                             0505
A0101409920000001951891MEMBERS OF NATASHA (SHOECAT INC                         10501
A0101409920000001951891BARTE, CECILE                                           20500
A0101400860000000765691**********                                               0501
A0101400860011399487002**********                                               0505
A0101400860011442261001**********                                               0504
A0101400860011495810001**********                                               0501
A0101400860011549648001**********                                               0505
A0101400860011561618002**********                                               0501
A0101400860011611356001**********                                               0505
A0101400860011685746001**********                                               0505
A0101400150000003352372EMPLOYEES OF ADP (PHILIPPINES),                         10502
A0101400150000003352372NHORMAN A. FAJARDO                                      20500
B0101400150061011018001AUTHENTIC AMERICAN APPAREL, INC.                         1605
A0101400150061226324001NG, TEK SEN TAN/                                        10502
A0101400150061226324001TAN HUI LAN                                             20500
A0101400150061228073002CHONG, SANDRA S. or                                     10501
A0101400150061228073002CHONG, CHRISTOPHER S.                                   20500
B0601400100081045128001BRETTO'S INTERNATIONAL FOOD CORP.                        1610
B0601400100000005690428BRETTO'S INTERNATIONAL FOOD CORP.                        1610
A0601400360000000225250GUIAO, JEFFREY BONUS DBU J3A                            10515
A0601400360000000225250FOODLINE JT GUIAO, JOAN                                 20500
B0101414090000000399424GANJOU INC.                                              1610
B0101400730111035655001FSL INT'L. MANPOWER & PROMOTION SERVICES                11601
B0101400730111035655001INC.                                                    21600
B0101400730111042662001CENCAR CORP.                                             1606
A0101400730111196336001CHAN, ILDEFONSO M. OR                                   10502
A0101400730111196336001CHAN, VALORIE F.                                        20500
A0101400730111520766061BERNADETT BALUTOC                                        0502
A0101400730111608248001BALUYOT-CATCATAN, GLORI JOY S.                           0501
A0101412630000004062020CASTRONUEVO, SHARON CORTEZ                               0501
A0101412920000001313682SANTOS, JOEL CORRECES                                    0501
B0101412920160059095001TORIBIO, EMELY DUAY DBU HIC PRINTING                    11602
B0101412920160059095001SERVICES                                                21600
A0101407270000003264986MAMMUAD, ROGELIO REPANI                                  0502
B0101407270162016355001ONWARD COMMUNICATIONS & SERVICES                         1604
A0101407270162385312001MAE CZARINA R. CRUZ                                      0502
A0101407270162474002002GELACIA M. DALOG                                         0503
A0101407270000003254219SAN PEDRO, ANTONIETTA MACAJELOS                          0502
B0101401090171028145002ELMCREST HOLDINGS CORPORATION                            1603
A0101401090171195639002JOSEPHINE M. AGONCILLO                                   0501
A0101401090171195802001EVELINA N. LAGAMAYO                                      0504
A0101401090171196210003MA. CRISTINA S. LOPEZ, M.D.                              0502
A0101401090171447108001MARIA LETICIA A. CABRAL                                  0501
B0101401380201034247001HOBBIES OF ASIA INC.                                     1604
A0101413020000000056988AGUSTIN, FL DBU FIX AND CARE                            10504
A0101413020000000056988REF & AIRCON REP                                        20500
A0101413020000000880320TIONGSON, MELCHOR DBU: M-CEE                            10501
A0101413020000000880320PHARMACY                                                20500
A0101412500000003811943CHENG, IAN CAESAR LINING                                 0501
B0101412500000000739737MIKEWELL WORLD OF HOUSEHOLD PRODUCTS                    11605
B0101412500000000739737CORPORATION                                             21600
B0101413600000000206926GPRS-UNIFIED PRODUCTS                                   11601
B0101413600000000206926AND SERVICES INC                                        21600
A3101400450223221122001NUA, MELECIO OR MELODY                                   0505
A3101400450223403586001NUA, CHRISTIAN JOHN OR RICHARD                          10520
A3101400450223403586001OR MELODY                                               20500
A1001400190231520766126ORTIZANO, MERLYN B.                                      0501
B1301400470000003270157L5 & SONS FINANCING CORP.                                1610
A1301400470000003270442CHRISTIAN VINCENT R. SALAZAR                             0501
A1301400760000001295370RAQUEL J. GALANG OR                                     10502
A1301400760000001295370RODERICK V. GALANG                                      20500
A0101406620000000577117SEIDEL, EDWARD PUNSALAN                                  0502
B0101406620000003497085ECOVET GROUP INTERNATIONAL INC.                          1602
A0101408660000002264882GO, LESLIE PE                                            0501
A0101400570281343995002RAFAEL C. SOLIS                                          0501
A0101411240000002332496LAWAN, CARINA CRISOLOGO                                  0502
A0501400200000002306150PACIS, WILMA RAMOS                                       0501
A2601400270302561087001ANGELITO OR JOCELYN PEREZ                                0502
A0801400160000002681690TUGBANG, RAMON RAMOS                                     0501
A0801400160000002287658MACARSE, MA. FELY VELASCO                                0501
A6601400120314612973001CABILI, MANUEL MELFORD OR                               10504
A6601400120314612973001MANUEL OR TERESITA                                      20500
B0101402350000000655492RD PAWNSHOP, INCORPORATED                                1603
A0101402350321176404002MATIAS, GINA A. OR DANILO M. OR                         10501
A0101402350321176404002MATIAS JR., DANILO A.                                   20500
A0101402510000003418671CASTILLO JR., JULIO ONIA                                 0501
A0101402510341478374008MARY GRACE B. ANDRES                                     0502
A0101402060000000358463JOROMO, VERALYNN ALMARIEGO                               0501
A0101402060351211809001ALBERTO TAYENGCO                                         0501
A0101402060351212245001MARIA MUTYA T. FAIGAO OR                                10501
A0101402060351212245001EUGENIE F. FAIGA                                        20500
A0201400760000002047092VILLANUEVA, VERNA THERESA SUSON                          0501
A0201400890376667775001BUYSER, MISAN CANAS OR BUYSER,                          10501
A0201400890376667775001RENZIE RAFAEL CANAS                                     20500
A0101402930381515737001VERONICA C. SALES                                        0501
B0101411660384046304001ELITE GLOBAL SOURCING PHIL. INC.                         1602
B0101411660000000032242ALERT GENERAL SERVICES CORPORATION                       1605
A0101402770391217498027MARCELO C. CENIR                                         0501
A0101408400394383346001QUIAMBAO, RENATO BONIFACIO                               0501
A0101408950396567591001DR. DANILO V. CONSTANTINO II                             0501
B2401400180411032398088ECCO HARDWARE, INC                                       1620
A2401400180411478374042JOYCE R. GALLEON                                         0501
A2401400180411539646003ONCADA, VANESSA CALUBIA OR                              10503
A2401400180411539646003ONCADA, JOSEPH Q                                        20500
A0901400220432478374001LEONARD GO LOZADA                                        0501
A0901400220000000425045LOZADA, ELIZABETH GO                                     0501
B0101403030000000531382***********                                              1602
A0101412890000001765539BONGALOS, MA. THERESA S. OR                             10501
A0101412890000001765539ADRIAN LINDON Q.                                        20500
A0101412890000002747971VERGARA, FERNANDO FERNANDO                               0502
A0101403320471463722001ARMANDO DACANAY                                         10501
A0101403320471463722001OR ALONA DACANAY                                        20500
A0101406330472481679001MA. CRISTINA LOPEZ OR                                   10501
A0101406330472481679001ROGELIO LOPEZ                                           20500
B0501400170481023482001ARZADON LEISURE CORPORATION                              1605
A0501400170481253600001NARDING C. CAMERO OR                                    10502
A0501400170481253600001JULIE C. CAMERO                                         20500
A1901400160000006632328PETRONILO MANALO MENDOZA                                 0501
A1901400160491247764001MARITES E RAMIREZ                                        0501
A1901400160000000243683RENILO BALMES PANGANIBAN                                 0501
A0701400260000002339131QUIRANTE, ROSEANN PAPA                                   0501
B0101407430503006843001PACIFIC SHIPPING AND DISTRIBUTION INC.                   1605
B0101407430503043975001SEAHAWK TRANSPORT, INC.                                  1605
B0101407430000004491787NEW FAR TRUCKING SERVICES, INC.                          1605
A0101403580511396632002JIMMY FRANCISCO P PEREZ                                  0505
A0101408110000005716952SANTOS, RACHEL GANTAN                                    0502
A0101408110000004869270TIANSAY, MA. CARMEN SERRANILLA                           0501
A0101408110000001823810REMOLACIO, FRANCIS LILIAN DBU                           10503
A0101408110000001823810BLUE SKY TRANSPORT                                      20500
A0101411400000004406659EMPLOYEES OF MULTIMIND INTERNAT                          0502
A0101411400000005157193BRINAS, AIZZA FRANCESCA VELARDE                          0502
B0101411790000000005318REM BUILDERS CORPORATION                                 1602
B0101403450000002975655***************                                          1602
A0101403450521240963001********                                                 0503
A0101403450521776957001************                                             0501
A0101404000000003706125REX V BATHAN                                             0501
B0101404130000000001270GAME CRAFT, INC.                                         1602
A0101407720602464099001GOMEZ, MARIE RHIAMAR SAULER                              0501
B0101412180000001293038WESTMONT INDUSTRIAL SALES INC.                           1601
A0101409890649721710001MAPILI, ERICK RYAN RIVERA                                0501
B0101409920650044950001EINSTEIN SCHOOL FOR KIDS, INC.                           1601
A0101414120000000875532R.M. PABUSTAN BUILDERS                                   0503
A0101414120000004603121FLYRYNE TRAVEL AND TOURS                                 0501
B0101406590000003007278********                                                 1602
B0101406590662044117001D VISAGE INTERNATIONAL                                  11602
B0101406590662044117001CORPORATION                                             21600
A0101406590662207039001HORTENCIA A. BUENAVENTURA OR                            10501
A0101406590662207039001MA. THERESA TAN                                         20500
A0101406590662711800002ROQUE, EVELYN VALDOMAR                                   0505
A1301400210000005040588HERNANDEZ, DIVINA DELA CRUZ                              0501
A1301400500000005963197MANLICLIC, SONNY MARCELO                                 0502
A1301400500000006217983FLORES, MARIA ELENA GONZALES                             0501
A0101408240711375102001PANICUCCI, MA. PILAR M. JT                               0501
A0101408240711640598002MIOLE, MELCHOR JAYECTIN                                  0502
A0101408240711704194001FRIALDE, JONALY JONALE ASTELLER                          0501
A2801400100000000004720REYES, MYRA DBU MRC DENTAL CLIN                          0501
A0101412340000002266719******                                                   0501
B0101404840000001312412TOM'S WORLD PHILIPPINES CORPORATION                      1602
A0101404840000003069867ELY MARQUEZ                                              0501
A0101404840851530917002CASINO, RONNIE ANTONIO                                   0505
A0101406750852478374055ALBINA, ANALIZA                                          0502
A0101405070000002282082NOLASCO, ELVA CATHERINE INDON                            0503
B0101405070000001161324KEANO MANPOWER AGENCY INC.                               1602
B0601400230891028118001D.M. AUTO SUPPLY                                         1605
