A3001400130230757981001SACAY, RENE CANTOR OR SACAY,                            10501
A3001400130230757981001JOSEPHINE SIMBIT                                        20500
B1001400350233022546001POWER ALLIANCE CORP.                                     1610
A1101400120000006186456HORCA, JEAN ROSE DAROLE                                  0502
A6601400120314040566001GLENCARE PHARMACY                                        0505
A6601400120314657210002VETONIO, LILYBETH DUERO                                  0501
A2401400180411560281002VILLACERAN, JOSEPHINE SURPOSA                            0501
A2401400180411625087001QUILLOPO, ANABELLE BREZO                                 0501
A0101403320471205809002UMALI, FLORENTINO ILAGAN OR                             10503
A0101403320471205809002MARIA LILIBETH DE GUZMAN                                20500
A0101403320471478374016SONIA SALANIO                                            0501
B0101403450521011774002**********                                               1602
A0101400860011388186002TAN, MYRNA MENDOZA                                       0502
A0101400860011478374003**********                                               0502
A0101400860011513024002**********                                               0502
A0101400860011634071001**********                                               0505
A0101400150061055752031PARAS, ANNA LUCIA GALANG                                 0501
A0101400150061504368001CELEBRE, EDGAR OR                                       10502
A0101400150061504368001CELEBRE, CECILIA                                        20500
B0101400600071234158001**********                                               1605
B0101405810072011448001C.P.P.C CONSUMER PACKAGING PRODUCT CORP.                 1602
A0101405810072373149001TAN, JULIET SEE                                          0501
A0101405810072381557003MATEO, ANALYN CASTILLO                                   0503
A0101405810072545795001**********                                               0501
A0601400100081023131001ADYR TRADING                                             0506
A0601400100081478374001SANCHEZ, REGINA OR JERRY                                 0504
A0101410850000003101913DIA, ELVIRA ALEGRE OR DIA,                              10502
A0101410850000003101913ABNER NATHANIEL                                         20500
A0101400730111432322002TOLECO, RICO                                             0501
A0101400730000001822373AGUSTIN, JOSEPHINE DAYRIT                                0502
A7201400170000003774243**********                                               0505
A0101401090000007343695GONZALES, JOSEPHINE BARREDO OR                          10501
A0101401090000007343695GONZALES, VERONICA DEANNE                               20500
A0101401090000001618997GADIANA, LENY GUTIERREZ                                  0501
B0101401090171021620001UST HOSPITAL CREDIT COOPERATIVE                          1606
B0301400530000005001603*******                                                  1601
B0301400530193035726167TAGUM PIONEER FOODS CORP. - 1                            1605
B0301400530000001409741ROBLES, EDDIE DBU VICTORIA CONSTRUCTION                 11601
B0301400530000001409741CELEDONIA ROBLES                                        21600
B0301400530000006477285***************                                          1605
B0301400530193551180168LIM, MARK EDUARD OR LIM, LIZA OR LIM,                   11603
B0301400530193551180168RALPH LOUIE                                             21600
B0301400530193691303188********                                                 1605
A0301400660000000194621PARDILLO, JUDITHA ARFAPO                                 0501
A0301400660000001113795VILLADAREZ, RICHARD RANIS                                0501
A0301400660194772365001*****                                                    0505
A0101401380201779583001OLARTE, EMELINDA RANADA                                  0501
A1001400190231045169001ANG LABAN NG INDIGINONG FILIPIN                          0505
A1001400350000000922190RIVERA, JACKIE LOU VILLAROYA                             0501
A1001400350233478374001JUNIO, ROGELIA A.                                        0501
A1001400480000000041501SALVANA, RODOLFO L OR SALVANA,                          10505
A1001400480000000041501ELIZABETH C                                             20500
A1001400480000003357715OCERO, SHERLITA TUPAS OR OCERO                          10501
A1001400480000003357715MAUREEN ECHAVEZ                                         20500
A0101401670271621865001***************                                          0501
B0101406460272020749001EASTGATE COMPUTER CORPORATION                            1601
A0101406620000000193760DIAZ, FRANCIS PATRICK TAYENGCO                           0502
A0101406620273026212001JRICO TRADE INVESTMENT                                   0503
A0101406620000000962272MENDOZA, EPIFANIA NAVARRO                                0501
A0101406620273580387001VERSOZA III, NOE MARTIN                                  0501
B0101408660000001940610WESTMINN CONSTRUCTION AND DEVELOPME                      1602
A0101408660274539990001BELTRAN, EDGARDO MAR D. OR                              10501
A0101408660274539990001BELTRAN, MARIA C                                        20500
A0101411820000002328452GENISES C. SOLOMON                                       0505
A2601400270000000561619RAUL T. SAWIT OR CARMELITA A.                           10502
A2601400270000000561619SAWIT                                                   20500
A1101400120000005608191CELSO, GORGIE C.                                         0501
A6601400120314615888088FRANCISCO, EMMA OR REYNALDO                             10504
A6601400120314615888088OR CO, ESTELITA OR ELSIE                                20500
A2001400290000001973793RAMAS UYPITCHING, ANGELO BYRON                          10501
A2001400290000001973793SINGCO                                                  20500
B0101402350321500384002ONG, JOSEPHINE T. AND                                   11602
B0101402350321500384002DURA, ELVIRA O.                                         21600
B0101402060351030802001PACIFIC RESINS INC.                                      1605
B0101409050352031646002DELTA EARTHMOVING, INC.                                  1610
A0201400760374041860001ONE URBAN CONSTRUCTION                                   0501
B0201400760000006433401CHUA, JOSEPH DBU COMPOSTELA ICE PLANT                    1601
B0201400760000000222886JAYME, STEPHEN RODRIGUEZ                                 1602
A0201400920375778475001HEALTH WELLNESS VENTURES                                10503
A0201400920375778475001PHILIPPINES CORP                                        20500
B0201400890376037020001BREEDERS AGRIVET SUPPLIES INC.                           1605
B0101402930381041518001PANPISCO TECHNOLOGIES, INC.                              1603
A0101402930381347767001JOSE MARIANO R. BONDOC III                               0506
A0101411660000003580232ABISHAI FAYE D LIMPIN                                    0501
A0101402770391029270001RCABAN-SAN ANTONIO DE PADUA                              0502
A0101402770391211308001*********                                                0504
A0101405490392029745001MESINA BROTHERS, INCORPORATED                            0502
B0101405490392034314001RAEMANN CORPORATION                                      1602
A0101409210000004092200******                                                   0501
B0101409210000000031250******                                                   1602
A0101409210000001294628NETREV MARKETING                                         0501
A0101409210000001294628******                                                   0501
A0301400820000004745842JAAKRIS FUD HAUZ AND CATERING                           10501
A0301400820000004745842SERVICES                                                20500
B5501400120410044567001RASAY INSURANCE AGENCY AND GENERAL                      11601
B5501400120410044567001SERVICES                                                21600
A5501400120410619088001ILAO, MAE CASTILLO                                       0502
A2401400180411272640001VICKY M. BOJE                                            0502
A2401400180411478374061JUNRES AGAD OR                                          10502
A2401400180411478374061NORMELITA BLANCO                                        20500
A0901400220000000012324SPECIALIST MOTORCYCLE PARTS &                           10506
A0901400220000000012324ACCESSORIES, INC                                        20500
B0101403030441037132001MASTER BRAKE AUTO SUPPLY                                 1601
A0101412890000001056280***************                                          0501
A0101403320471478374005JOANN L. ANDAY                                           0503
A0501400170481033355001GOLDEN TIES AND FOOD                                    10502
A0501400170481033355001RESOURCES INC.                                          20500
B1901400160491030520001VETS IN THE CITY VETERINARY CLINIC                       1601
A0101407430000003193888ARVIN P. HIDALGO                                         0501
A0101405940000002268755CARCABUSO, ANGELY SOLLANO                                0501
B0101406880513036413001VISAYA KNOWLEDGE PROCESS OUTSOURCING                     1606
A0101408110000002907964JUAN ARIEL C. COMIA                                      0502
A0101411790000000469621BUSTAMANTE, JOSE MARI KARLO P.                           0501
A0101411790518055815042MEDINA, DANIEL TEODORO                                   0501
A0101411790518055815181VILLAFRANCA, SHALIMAR CAMLIAN                            0501
A0101411790000000005381********                                                 0504
A0101403610000007335493BAGABAY, RONALDO SOTELO                                  0501
A0101404000000003707679JESSICA G TENG                                           0502
A0101404000000007166807JOAN EHLAYNE T GABIA                                     0501
A2201400250000004916110GOMER VILLANUEVA CAPINPIN                                0502
A0101404130000000485661MORALES, ANNALYN MOTOL                                   0503
A0101404130601651761001ASUNCION, EDGARDO MAGDALUYO                              0502
A0101407720602397352001RIVERA, LUIS ROBERTO FOOSHEE                             0501
B0101409890649044639001BISKWIT CO.                                              1604
B0101409920000000437001BELTRAN, RA DBU MJR2 PRINTING SERVICES                   1604
A0101407690000001919902OSTREA, MARILOU DBU M. ZOILO                            10501
A0101407690000001919902TRADING                                                 20500
A0101407690652478374143SHIRLEY PATALOD - DEALERS OF                            10501
A0101407690652478374143SHOECAT INC                                             20500
B0101413440000000038195SIENA MOBILE WORLD CORP.                                 1602
A0101413440655054550001SOMETHING DIFFERENT BAKESHOP                             0502
A0101413570000000206259LEE CHEF'S SECRET ENTERPRISE                             0501
B0101406590662029124001NOLSTEAD INC.                                            1602
A0101410300000005237634MARTINEZ, NICOLE ANGELO ALDEA                            0501
B1301400210682038636001FBIC INDUSTRIAL ESTATE ASSOCIATION                       1602
A1301400500000002063883LUCILA P. DELFINADO                                      0502
A1301400500000000213312RAMOS, LORINO IBERIO ARZADON                             0502
A0101408240000002822120BORRA III, JUAN MERIS                                    0502
A0101408240711570640001TENDIDO, MA. SHYLA DIMO                                  0501
A2801400100712039498002VECTOR PEST CONTROL                                      0502
A4101400260000000048957RENTA PE CAUSING & SABARRE LAW                           0502
A4101400260812494463001EMILY V. CARPIO                                          0502
A4101400550000002091021PIYEZA MOLINO AUTO PARTS                                 0503
A0101412340850093987001CINCO, JENNIFER VILLANUEVA                               0502
A0101412340000002900283MARIFE B. VIADO                                          0501
B0101404840000003069630DE VERA, J DBU TERAVENTURE ENTERPRI                      1602
A0101404840851298552055MELBA C. ENGBINO                                         0501
A0101406750852036401001E.B.A. CONSTRUCTION                                      0505
B0101406750000005608511GREENEARTH HORTICULTURE, INC.                            1610
A0101405070000002281961CAMARSE, RONNIE VITALICIO                                0502
A0101405070861478374066ELMER LADRES APAS                                        0501
A0101405070861478374086MARLYN C. GABEST                                         0502
B06014002300000036448207R FINANCE CORP.                                         1605
A0601400230891691057001QUIZON, EDGAR PANLILIO OR                               10501
A0601400230891691057001QUIZON, NANCY AN                                        20500
B0101416290410422000011**********                                               2001
