B0301400660194821100608**********                                               2010
A1001400480000000133542GUINTO, CHARLOTTE JANE MAGO OR                          10502
A1001400480000000133542GUINTO, NEMER SA                                        20500
A0101412500000003290042PINEDA III, JULIO UGALDE                                 0501
B3001400130000003434671CORONET WOOD INDUSTRIES, INCORPORAT                      1620
A0101405650000005284540**********                                               0501
A0101405650322323452002SALANDANAN, EFREN FLORES                                10503
A0101405650322323452002OR SALANDANAN, LORETTA G                                20500
A0101405650322522833001JIMENEZ, MARIA JEAN BREBONERIA                           0501
A0101405650000006273685CABRERA, ENRICO LARA                                     0501
B0201400890376037020001BREEDERS AGRIVET SUPPLIES INC.                           1605
A0101402930000001445381HSU, LAVELYN CARTAGENA                                   0503
A0101400860011554278001LAMPAWOG, NONIE AGUILAR                                  0501
A0101400860011675338001**********                                               0505
B0101400150061027665001SYNERGY EXPERTISE INCORPORATED                           1602
B0101400150000001708447PHILIPPINE VENDING CORPORATION                           1605
A0101400600071417502001**********                                               0504
A0101400600071461128001**********                                               0502
A0601400100081033811001CIRENEJ ENTERPRISES CO.                                  0505
A0101401830141206540001MEGA NURSERY ORCHIDS                                     0505
A0101401830141546547001REATAZA, NELIA MORABE                                    0503
A7201400170000006487912GUANZON, ROCHELLE R.                                    10501
A7201400170000006487912OR GUANZON, JUANITO E.                                  20500
A5001400170000000214031**********                                               0504
B0101400440161007221001ILA EXPRESS HAULER                                       1602
A0101400440161478374144CELERINA M. MARASIGAN                                    0501
A0101400440161520766189PRESCILA P. DOTONG                                       0501
B0101407270162043721001ABS-CBN HOLDINGS CORPORATION                             1603
A0101407270162333003004MAURO C. AGUSTINES                                       0503
A0101401090171197467002MARY CAROLINE N. CASTANO                                10502
A0101401090171197467002OR ADRIAN CASTAN                                        20500
A0101401090171351928001KONRAD AGUILA OR                                        10503
A0101401090171351928001MA. ROSARIO G. A                                        20500
A0101401090000000210340VILLANUEVA, MARIA CECILIA M.                             0501
A0301400660000003406191*****                                                    0505
B0101413020000000038388ASISI SYSTEM CORP.                                       1603
B0101412500214821100608**********                                               2002
B0101412500214821200608**********                                               2001
A3101400160221221586001RODOLFO C. ELEPANO                                       0502
B1001400190231014449002ACS MANUFACTURING CORP.                                  1603
A1001400480000003357680BALDELAMAR, JACKY ROSE DALE SIM                          0502
A1301400470000000472640SHERRY ANN SEVILLA RODRIGUEZ                             0501
B1301400470252018901001NUEVA ECIJA LAND CO., INC.                               1605
A0101401670271518087001* * * * * * *                                            0501
A0101406620000001686666YU, CHARLES TAN                                          0501
B0101411820000000024142HARDCOM COMPUTER SYSTEM CO.                              1601
A0101400570000000749651LIBERTY B. MALUBAY                                       0501
A0101400570000000470604RABANAL, EVELYN TINONG DBU RAKI                          0501
B0101411240000000012120DIVINE PROVIDENCE COMMUNITY WELFARE                     11602
B0101411240000000012120INCORPORATED                                            21600
A2601400270000000019565ARSENIO I. SUGUE JR.                                     0501
A0801400160311413609001LIM, JOSEPH PO                                           0505
A0801400160311478374008RODELYN LEBUNA                                           0501
A1101400120000003981055NAPUTO, CHARLITA C.                                      0501
B0101405650322047832001MULTISPORTS INCORPORATED                                 1604
A0101409050352718990001DOLORES T. ONG OR PATRICK                               10501
A0101409050352718990001RICHMOND T. ONG                                         20500
A0201400760000002309633ESMERALDO L. HERBITO DBU EXA                            10502
A0201400760000002309633SALES INTERNATIO                                        20500
B0201400760374030513001RQLIM RESOURCES, INC.                                    1601
B0201400920375731987001*******                                                  1602
B0201400890376045790002*************                                            1601
B0201400890376045790003****************                                         1601
A0101402930381209050001GRACE DIMAANO OR                                        10501
A0101402930381209050001ALFREDO DIMAANO                                         20500
A0101408790000000600057SAN MATEO, MANUEL LUIS B.                                0503
A0101408790000005251121TUBIERA, ALDUS RENIER MADAMBA                            0502
A0101408400000004959566DIMAPANGCAT, SORAYA ALAWIYA                              0502
B0101408400394040929001BLUE SAPPHIRE TELECOMS CONSULTANCY                       1602
A0101408400000000403778DELFIN, NERIO DELENA                                     0501
B0101408950396026318001GLOBAL CITY AUTO SALES, INC.                             1605
A0101408950396229648001YUHICO, EMMA A.                                          0502
A0301400820000000316670TIONG, ARISTON D.                                        0502
A5501400120410636179018CHIU, VALENTIN & JULIA EILEEN                           10503
A5501400120410636179018& CHRISTIAN & CH                                        20500
A5501400120410636391028CHIU, JULIA EILEEN & VALENTIN                           10505
A5501400120410636391028& CHRISTIAN & CH                                        20500
A5501400120410639059001TOLEDO, LIBRADO NAPOLITANO                               0503
B2401400180411016835001GENERAL TUNA CORPORATION                                 1610
A2401400180411478374027ELLEN PANTUJAN OR                                       10501
A2401400180411478374027ELMER PANTUJAN                                          20500
A2401400180411478374047YOLANDA L. NINGAL                                        0502
A2401400180411514423001DEALA, BERNARDITA GATCHALIAN                             0502
A1201400150000001863254PRACTICAL ACADEMIC INTERVENTION                          0503
B0101403030441011894001REXSSEL AUTO PARTS CENTER                                1602
A0101403030441303194001**********                                               0505
B0101403320471008879002GOLDWIN MANUFACTURING                                   11610
B0101403320471008879002LABORATORIES                                            21600
B0101403320471030317001UPLIFT PHILIPPINES INC.                                  1608
A3801400170490784760001JANE C TEJIDO DBU SIALDANG                              10502
A3801400170490784760001CONSTRUCTION & ENTERPRISE                               20500
A1901400160491246294001CONSOLACION E PEREZ OR                                  10510
A1901400160491246294001LOURDES P CLEOFE                                        20500
A0101403580000004683121CUMAGUN, ESTER M. OR                                    10501
A0101403580000004683121ANTONIO OR ANN GERALYN                                  20500
A0101405940000000505764SALCEDO, RICHARD REODIQUE                                0501
A0101405940512151914003WASSMER, REBECCA SAMONTE OR                             10501
A0101405940512151914003SAMONTE, TERESITA                                       20500
A0101406880513389429002PEREZ, WILMA GONZALES                                    0502
A0101408110515708875001DR. JAMIE ISIP CUMPAS                                    0501
A0101403450000001769811*******                                                  0501
B0101403450521024597001**********                                               1602
A0101403610531036734001PASTRANA, MARIA DBU JRAE                                10502
A0101403610531036734001DRUGSTORE                                               20500
A0101403610531475509001DE BELEN, VICTOR CONCEPCION                              0505
A0101404000551150196001BENEDICTO ORENSE                                         0501
A2201400250000004916150LEABRES, RONEL DELA CRUZ                                 0502
B0101407720602018717001WORDTEXT SYSTEMS, INC.                                   1602
A0101407720602313008001LEE, BERNADETTE D.                                       0502
A0101407720000001393335************                                             0502
A0101407720602518149001TARRIELA, MARIA ARMELA CASTILLO                          0501
A0101404260000001725242BENEFREDA RIGON                                          0502
B0101404260000004781222**********                                               1602
A0101407690000000913600MARQUI AUTO SUPPLY                                       0502
A0101407690652596871001NOVELOZO, APRIL ANNE NATIVIDAD                           0502
A0101407690652608206001RAQUEL M. GONZALES                                       0501
B0101413990000000206168ASPEN COLDSTORAGE INC.                                   1603
A0101413990000006434922AGUSTIN, JANET J. DBU JAN &                             10502
A0101413990000006434922LEON GENERAL MERCHANDISE                                20500
A0101406590662562414001RUSTE, RUTH ALLEN ANTONIO                                0503
A0101410300000005237623VALDEZ, PABLO BASILIO BUSTAMANT                          0502
A0101410300000000026462SYCIP,JOHN CARLOS/BANTIGUE,JOHN                         10510
A0101410300000000026462PAUL/ESQUIVIAS,J                                        20500
B1301400210682248659001ASIANLAND STRATEGIES CORPORATION                         1605
A1301400500000000213378JEAN G. REYES                                            0501
A0101408240000002822062TY, ANNETTE SO                                           0501
A0101408240711375064001DR. MARILYN P. CALILUNG JT                               0501
A4101400260000000377479PETALCO, BABELITO V. OR                                 10501
A4101400260000000377479PETALCO, VIRGILIA                                       20500
A4101400420814520766110DELA CRUZ, ARMINDA E.                                    0501
A0101404840000003409852DE LAZO, TARHATA O. OR DE LAZO,                         10502
A0101404840000003409852JAIME M.                                                20500
A0101404840851217637056IMELDA A. OSORIO                                         0501
A0101404840851368068003BALAGTAS, ROWELLDA CHIONG                                0501
A0101404840000000085129ESTELA A. BOCO                                           0501
A0101405070861380698001REYES SR., RENATO SISCAR                                 0501
A0101405070861399414001RACELIS, DENNISE DINAQUE                                 0503
B06014002300000060452907R FINANCE CORP.                                         1605
A0601400230891585876001GAGUI, JAY ACOBO                                         0501
