B0101405520442821100608**********                                               2005
A0101405940512497234001MA. CERESA DE TORRES REYES                               0501
A3101400870000003515153YU, ALMEDA TAN                                           0502
B3101400870225060664001ALTECH VIALAB INC                                        1601
B3101400870000004767751MITSUBISHI MOTORS PHILIPPINES CORP                       1604
A0301400530000003087341SILAGAN, ROSALIE BANGAHON                                0502
B2001400290315048888001UY CONSTRUCTION AND DEVELOPMENT                          1605
A0101400730111203514059REYNALDO N. SALAMANCA JR.                                0501
A0101413310000006669863PARROCHA, ANDREA VICTORIA                               10501
A0101413310000006669863FAMISARAN                                               20500
A0101413310000002317966FETIZANAN JR., ARCELIO JOVEN                             0501
A0301400790000002301251VILLADEMOSA, JOSELITO BANIEL                             0502
B0301400790195053525001EMCELI PROPERTY HOLDINGS CORP                            1602
A4101400260812245865001AUGUSTO O. TRIJO                                         0501
A4101400260812478374055ARLENITA E. MORALITA                                     0501
A0101400860000002333513******                                                   0501
A0101400860000002333591******                                                   0502
B0101400860000000030337******                                                   1604
A0101400860011663274001**********                                               0502
A0101400150000000053114************                                             0501
A0101400150000003162290MARLON A. AGUSTIN                                        0501
B0101400150061009719001WOODSON PROPERTY HOLDINGS                                1601
B0101400150061011117001CARAVEL RESOURCES, INC.                                  1601
B0101400150061026122002DDC LAND INC.                                            1605
B0101400150061033461001WOODCHILD HOLDINGS, INC                                  1601
B0101400150061228665001MALAYAN TOWAGE AND SALVAGE CORPORATION                   1605
A0101400150061338964017LELANI MILLARES                                          0501
A0101400150061413413001DULAY, CARLYN THERESE XAVIER                             0501
B0101400600000001335682********                                                 1602
A0101400600071684249001******                                                   0503
B0601400100081038277001B-12 CONSTRUCTION & TRADING CORP.                        1601
B0601400100081296256001CHRISTOPHER OR LOYA MALLARI FAO CHRISSAN                11603
B0601400100081296256001AUTO SUPPLY                                             21600
A0101400730111478374151MELANIE T. SIGUE                                         0502
A0101401960121238686001****************                                         0501
A0101407270000006675518LIM, GINALIE PREJOLES                                    0501
A0101407270162682596001DELOS REYES, MYRNA MIRANDA                               0501
A0101407270000000818224****************                                         0501
A0101401090000005320290MARIBETH ZAIDA M. TOLENTINO                              0501
A0101401090171196097001HERNANDO OR LEONCIA OLONAN OR                           10502
A0101401090171196097001BIANCA NIKKOLA OLONAN                                   20500
A0101401090171237146001SHEILA MARIE OR EDWARD HOCSON                           10502
A0101401090171237146001OR MELITA GUEVARRA                                      20500
A0101401090171335789001JONATHAN C. VASQUEZ                                      0502
A0101401090000000772134RAYMUND GABRIEL A. NARANJILLA                            0501
A0101401090171410027001ERIC T. CHIONG OR ELLEN CHIONG                           0505
A0101401090171622298001IDA MARIE T. LIM                                         0501
B0301400530193042539001NELSHENE MARKETING                                       1610
B0301400530000001409438GENSAN LCL TRADING, INC.                                 1603
A0301400950000005707013BREWMASTER TRUCKING SERVICES                             0502
A0301400950000002115571MIGHTY PEOPLE'S BULLETIN                                 0501
B0101401380201006779001KLG INTERNATIONAL, INC.                                  1601
A0101412500000005675590LADRILLANO, JUNER GUEVARRA                               0502
A0101412500000006677309PAPA, RICARDO CRUZ                                       0501
B0101413600000004661552INSTALINK TRADING CORPORATION                            1601
A3101400160221419880001ROWENA B. SUN                                            0502
A3101400160221478374004SIERVO, MARY JANE RAMOS                                  0501
A3101400450223442002001GARCIA, ROSALINA OR                                     10502
A3101400450223442002001JESUSA CORAZON                                          20500
A3101400870000000957677FLORES, R DBU COLOURBLINDS                              10502
A3101400870000000957677INTERIOR PRODUCTS                                       20500
B3101400870225060825001HOMESVIL INC                                             1601
A3001400130000005446306CUARIO, RIOSER DIAMULA                                   0501
A3001400130000005446306CUARIO, RIOSER DIAMULA                                   0501
A3001400130230691834001ANDAYA, JOSEPH OMAR O. OR                               10502
A3001400130230691834001ANDAYA, ASTRID M                                        20500
A1001400190231380503007DRA. CYNTHIA BACONGA                                    10503
A1001400190231380503007PHILAMCARE DOCTO                                        20500
A1001400480000001054711VILIRAN, PRINCESS SYBIL BADAJOS                          0501
B1001400480000003028873RESMA, EUGENE UTLANG DBU TYPE R                          1601
A1301400470252500617001CLARAFE A. GONZALES OR                                  10502
A1301400470252500617001RUFINO W. GONZALES                                      20500
A1901400290000000135060ALELI GUTIERREZ PERCE OR                                10502
A1901400290000000135060FLORENCIO D PERCE                                       20500
A1901400290000002337782REYNALDO JOVES GARCIA                                    0501
A1901400290000000030800JMARK MICROCREDIT CORPORATION                            0505
A1901400290261244442007ZENAIDA CUENCA OR PRISCO CUENCA                         10502
A1901400290261244442007OR JUAN MIGUEL CUENCA                                   20500
A1901400290261244469002HENRY TEMPLO MERCADO OR                                 10501
A1901400290261244469002DELIA REYES MERCADO                                     20500
A1901400290261298552105AIDA NABOS REYES                                         0501
A1901400290261689596001MARY ERNESTINE C COLUMBRES                               0501
B0101406460000000020931GREATWALL MANPOWER & GENERAL                            11602
B0101406460000000020931SERVICES INC.                                           21600
A0101406620273418923001BACNAN, EMIL AUSTIN BAUTISTA                             0501
A0101406620273609466001LANEDA, RICHARD GOLANGCO                                 0501
A0101411820000003838255EMMERITO C. VENTURA                                      0501
A0101400570281186562001ENGR. JOSELITO MIRAFUENTES OR                           10501
A0101400570281186562001DR. LANA GAN                                            20500
A0801400160000002681707CRH TICKETING SERVICES                                   0505
A0801400160311638278001DE ARROZ, ELMA SAMPIANO                                  0502
B1101400120313039184001SARC FOODS CORPORATION                                   1605
B1101400120000000652904COASTALVIEW FOODS CORPORATION                            1603
A1101400120313094914001CHU,VISITACION UY OR CHU, GARY                          10501
A1101400120313094914001OR HO,EVANGELINE                                        20500
A1101400120313478374123EBUENGA, JULIE C.                                        0501
A1101400120000000065110BOLECHE, CLARA GACUTAN                                   0501
A2001400290000000924572MARTY, CRESLYNN MARIE CERINO                             0501
A2001400290000004889956MARIUS C.C. ONGCOG DBU RAMAR                            10503
A2001400290000004889956TICKETING SERVICES                                      20500
B2001400290315688888001**********                                               1610
A3401400280000000784618UYGEN JR., FRANCISCO MOSQUETE                           10502
A3401400280000000784618OR UYGEN, ANN RELANO                                    20500
A0101402350321353624001FRANCISCA A. COCHING                                     0501
A0101402350321395056001MELANIE F. MUNK                                          0502
A0101402510000005211129GENORGA, MERCEDES OCAMPO                                 0510
A01014025100000066721040000006672104                                            0502
B0101409050352039982002RIVERSTAR FOOD CORPORATION                              11603
B0101409050352039982002(ADMIN)                                                 21600
A0101409050352081841001LOUIE BENEDICT C. HERNANDEZ                              0503
A0201400760000002309582BELDA, RICARDO LIMORAN                                   0501
A0201400920000002250146YEO, JOAN DANIEL                                         0503
A0201400890000000027892FORTRESS ELECTRICAL SUPPLY                               0503
A0201400890000004667103UY, ELWIN YU                                             0503
A0101408790000005169115JUAN R. SUMPAYCO MOVERS                                  0502
A0101415350000005028871JOSE, RAYMOND OLIVER P.  DBU RA                          0502
A0101402770391027121001ABBI PRINTHAUZ                                           0502
A0101408400394035093001D'SEALING ENTERPRISES                                    0510
A0101408400394478374069BLANCAFLOR, JOCELYN R.                                   0501
A0101409180000003813078BERMUNDO, MARIVIC B.                                     0501
B0101409210000002783282NUTRIGENICS ASIA INC.                                    1601
A0301400820000002272022ENCALLADO, LUZETTE C.                                    0502
A5501400120410274259088JAVELLANA, BETTY PO                                      0502
A5501400120410283898001GARCIA, JOSIE OR                                        10510
A5501400120410283898001GARCIA, GERARDO                                         20500
A5501400120410633077001CLAVISILLAS, JOSIE OR                                   10501
A5501400120410633077001CLAVISILLAS, RON                                        20500
A1201400150000002325042ANTIPALA, WILFREDO CARPIO                                0502
A0101403030441241013001**********                                               0503
A0101410140475728876001MERCADO, DAMASO P. OR                                   10501
A0101410140475728876001MERCADO, CARMELI                                        20500
A1901400160491247039001ZALDY G RODRIGUEZ                                        0505
A1401400110492386736001***************                                          0504
A1601400170494076550002MARCIAL MARTIN POMPEYO CALLEJA                          10501
A1601400170494076550002OR MA. DEL CARMEN CALLEJA                               20500
A0101407430503558249001JIMENEZ, FLORENCE VILLANUEVA                             0502
A0101405940512501600001**********                                               0504
A0101405940512543803001ROXAS, HELEN CHAN OR                                    10510
A0101405940512543803001ROXAS, LINCOLN CHAN                                     20500
B0101406880513021335007ACTIVE REALTY AND DEVELOPMENT CORP                       1602
A0101412050519056257001BIHASA, GEORGE MARCO T. DBU                             10501
A0101412050519056257001JAZZ INNOVATIVE                                         20500
B0101403450521011643001**********                                               1606
B0101403450521239119001**********                                               1601
A0101403450521570247001CHAO, DENISE POLLY GAN                                   0502
B0101403610531659842002DELAMO LENDING INVESTOR CORPORATION                      1603
B0101404000000002799899XELEB INC.                                               1603
A0101410690000001284464GRT PRINTING WORKS                                       0501
A0101404130000002121066DEE, PATRICK ALAN LOZANO                                 0501
A0101407720602396602001CAMPOS, GERALDINE DE JESUS                               0503
A0101407720602466238001EDUSMA-DY, REGINA TAN                                    0502
B0101412180000001293061CP OPTICS, INC.                                          1605
B0101404260000000156972PRIME POWER MANPOWER SERVICES                            1650
A0101404260611778918001GARCIA, NATHANIEL CRUDA                                  0502
B0101409890649046783001**********                                               1602
A0101409890000000209094JAVIER, REGALADO TRINIDAD                                0502
B0101407690652042938001SIGNWOOD HARDWARE & LUMBER SUPPLY                        1603
A0101407690652474247001**********                                               0503
A0101407690652478374145MA. ROUMELA LUISA MIJARES -                             10501
A0101407690652478374145DEALERS OF SHOEC                                        20500
A0101407690652525001060SUSANA MORENO - DEALERS OF                              10501
A0101407690652525001060SHOECAT INC.                                            20500
A0101413990000001947128MARS STONE SUPPLY                                        0501
B1301400210682012661001BULACAN PUBLIC SCHOOL TEACHERS                          11603
B1301400210682012661001 ASSOCIATION                                            21600
A1301400500000002063792ANTONIO, ALBERT SILVA                                    0502
A1701400230693710362001CUA, RONALD CU                                           0502
B4101400260812012643001KUM KANG CERAMIC PHILS. CO., INC.                        1603
A4101400390000001732872COLMENAR, LOWIE JEINE DELOS REY                          0501
A4101400390000001732736CLAVERIA III, DON VIVENCIO G                             0501
A4101400550815047780001TIUSECO, MICHAEL MANUEL RUSTIA                           0502
B0101404840851041620020JOY PLANET INC.                                          1605
A0101405070000003439718CHAN, RICARDO GONATO                                     0502
A0101405070000003439741ALARO, JHON REY PADURA                                   0502
B0601400230000000029707TOLENTINO, JOSELITO PANLILIO OR                         11601
B0601400230000000029707LACAP, MILAGROS                                         21600
A0601400230000000990063**********                                               0505
A0601400230891539871001MALONZO, EDUARDO PATAWARAN                               0505
B0101415800001601050124**********                                               2005
