F0101407300000000027789METRO ANTIPOLO HOSPITAL AND                             12601CKR
F0101407300000000027789MEDICAL CENTER                                          22600CKR
F4101400260812443499001JESUS JUAN D. VERSOZA JR.                                2502CKO
F0101406040112403407001REUBEN C. ESTILLORE                                      2502CKO
F0101402770391030168001XYTRIX SYSTEMS CORPORATION                               2605CKR
