B0101406620273821100608**********                                               2010
B0101408110515821100608**********                                               2005
B0101400440161007221001ILA EXPRESS HAULER                                       1602
A0101400440000004901440NLR INSURANCE SERVICES                                   0505
A0101400440161478374175MARYLEN R. MORADA                                        0502
A0101400440161525001103OFELIA B. OLERMO                                         0501
A0101400440161525001139JEMARIE S. SALUDAR                                       0501
A0101400440161537092001EVANGELINE R. BAUTISTA                                   0502
B0101410720653043060001METRO DRY CLEAN VENTURES, INC.                           1603
B0101410720000000968112TAN, R DBU BAGONG PAG-ASA BAKERY &                      11601
B0101410720000000968112GROCERY                                                 21600
A0101410720653306781001OLIVEROS, NENA TULAUAN                                   0502
A0101410720653411174001MA. REMEDIOS OR EDGAR CABALLERO                          0510
A0101411790000000469461PANGILINAN, R DBU RLRM ENTERPRI                          0502
A0101400440161039572004MARIFE M. BUNALADE                                       0502
A0101400440161478374183NORY S. OLIVERON                                         0501
A3001400130000006145148FERNANDEZ, ALICIA LASCUNA                                0501
A3001400130230478374021LOZADA, ROSITA R.                                        0502
A3001400130230713045001CALO, ARTURO MONTEROSO                                   0501
A0101402060351479109001ALMADEN, ROSALINDA CLACIO                                0501
B0101408790383084533001CCGA REALTY CORPORATION                                  1602
B0101405490392196738001BERNARDO MAINTENANCE SERVICES                            1602
A0101405490392481659001MARITES Q. FACTURA                                       0501
A0101412210399094817013ROLANDO R. CRUZ                                          0503
A0101412210000002714592LINAO, RYAN AGUSTIN                                      0501
A0101411790518055764175INSO, GHIA FANGED                                        0501
A0101404260000001725297KOREAN LANGUAGE CULTURE (KLC) T                          0502
A4101400260812721006001TAN, GARRY ROSAS                                         0502
A4101400420814520766033DELA CRUZ, MARILOU M.                                    0501
A4101400420814710353001GRANADA, MILDRED SISON                                   0503
A0101412340000003349171EDWARD B. TALASTAS                                       0501
A0101401250000000907095SY, JANETH M.                                            0501
B0101400150000000633378CEU HOLDINGS CORPORATION                                 1602
A0101400150061226674001FE V. CAPISTRANO                                         0501
A0101400150061231268003TAN, CORAZON J.                                          0501
A0101400150061354288001CORAZON G. TAGLE                                         0501
A0101400150061392849001PINGOL, TERESA GARCIA                                    0501
A0101400150061691268001KWONG, HAYDEE JANE CHU                                   0501
B0101400600071233681002**********                                               1606
A0101413730000001253309*********************                                    0501
A0101410850109046512001*****                                                    0501
A0101410850000003102103MSG BOTTLE WASHING                                       0503
B0101410560110045401001JESUS REIGNS MINISTRIES, INC.                            1601
A0101400730111292942002BANTA, MYRALIN DE PUYART                                10503
A0101400730111292942002OR JARDIOLIN, MAJAR B.                                  20500
A0101400730000000645410ASIS, REDENTOR CONSTANCIO                                0501
A0101400730111561049002CUEVAS, EMMANUEL GUINTO OR                              10501
A0101400730111561049002CUEVAS, NADINE                                          20500
B0101406040112039150001********                                                 1603
B0101401960121238762001VICENTE CO                                               1601
B0101401960121238903001**********                                               1601
B0101401960121239381001****************                                         1601
A0101401830141395434001DESIDERIO M. GROZMAN OR                                 10502
A0101401830141395434001CANDIDA M. GROZMAN                                      20500
A0101401830141396070001MILAGROS P. FALCASANTOS                                  0501
A5001400170000000214020ARNOCO, MARIETA DIAMANTE                                 0502
A0101412920000005915631CASTRO, SONNY VALEN ROMERO                               0501
A0101400440161525001111MA. MARILOU A. ARAFILES                                  0501
A0101401090171033023002EXCELINK INSURANCE AGENCY                                0503
A0101401090171196095001ALBERTO WONCHAI OR                                      10502
A0101401090171196095001MILAGROS W. LIM                                         20500
A0301400530000000066099CHAN, MICHAEL OR ERA                                     0502
A0301400530193044599168INSIDE ROOM INN                                          0502
A0301400530193551646168ROTERSOS, LETICIA D. OR                                 10502
A0301400530193551646168ROTERSOS, MANUEL                                        20500
A0301400660000005691712CORONG, LUZVIMINDA BARBA                                 0502
B0301400660194046395088DAVSAM LINK CORPORATION                                  1601
A0301400790000000435830********                                                 0505
A0101410720210047680001GUARIN, N DBU ENL MANAGEMENT                            10501
A0101410720210047680001SERVICES                                                20500
A0101410720653458986001ALVAREZ, ERLINDA TORNO                                   0501
A0101413600000006779686HOMER NEPOMUCENO                                         0501
A1001400190000000016413LEDESMA, EDITHA LERA                                     0501
A1001400190000000124683ABCEDE, CARMENCITA A.                                    0501
A0101401670271193994001PATRICIO L. RAPADA                                       0502
A0101406460000000182676PUNZALAN, RAMON TIANGCO                                  0501
B0101406620273022427001ELLEE & CO., INC.                                        1602
A0101406620273495068001DANILO B. ESCARLAN                                       0503
B0101408660274047925001CNT PROMO AND ADS SPECIALISTS, INC.                      1610
A0101408660274668915001TEMPORAL, DENNIS OLAVIDES                                0501
B0101400570281041389001SHEPHERD FLOCK WORSHIP CENTER A/G, INC.                  1603
A0101400570281361144001ERIC G. IDIESCA                                          0501
A0101400570281388539002LEONORA N. YNGENTE                                       0502
A0101400570281422071001DRA. ELSIE B. PASCUA                                     0501
A0101400570281423865002RIBAYA, VICTORIA CABRERA                                 0501
A0501400200000005751599BALMEDIANO, MYRNA SOLIVEN OR                            10503
A0501400200000005751599BALMEDIANO, ISMAEL V.                                   20500
A2601400270000000561482WAYNE VINCENT U. CHUA                                    0503
A1101400120313478374054TAN, JEAN POMAREJOS                                      0501
A1101400120000000652697CASTILLOTE, GRACITA G.                                   0502
A1101400120313546456001YAO, MARILYNE GO                                         0501
B1101400120000000652880YAO, ANTHONY ROBERTSON GO AND YAO, MARK                 11605
B1101400120000000652880ALAIN GO                                                21600
A2001400290000000046433NG, CHRISTOPHER SO OR                                   10502
A2001400290000000046433NG, MAVICEL GRAC                                        20500
A2001400290000003663416ZOSA, RED LILY RAGAY                                     0501
A2001400290315746119002BUHISAN, CAROLINE LU   JT                                0505
B01014023503210067510010SM SHIPPING PHILS., INC.                                1610
A0101402350321176404002MATIAS, GINA A. OR DANILO M. OR                         10501
A0101402350321176404002MATIAS JR., DANILO A.                                   20500
A0101402350321179307001GRACE C. AUJERO OR                                      10501
A0101402350321179307001FREDELINO L. AUJERO                                     20500
A0101402350321179570001NEAL ORTEZA OR                                          10501
A0101402350321179570001IMELDA OLIVAREZ                                         20500
A0101405650322321476001DE GUZMAN, MYRNA SARMIENTO OR                           10501
A0101405650322321476001DE GUZMAN, GAZEL                                        20500
B0101402060351009391001MAJA DEVELOPMENT CORPORATION                             1604
A0101402060351211709001MARGARITA B. DINGLASA OR                                10502
A0101402060351211709001ERNESTO D. DINGL                                        20500
B0201400760000001612948LMDC CORP.                                               1605
A0201400920000004087412VILLANUEVA JR., TOMAS BENOLIRAO                          0501
B0201400920375526997001**********                                               1602
A0201400890000002270140**************                                           0501
A0201401020000003031049ARANETA, M DBU NEGROS EY SEALAN                          0502
A0101402930381341460001SUI SIONG T. CANDELARIA OR                              10502
A0101402930381341460001CHRISTINE S. CANDELARIA                                 20500
A0101402930381423656001SUZETTE A. CELICIOUS                                     0501
A0101402930381504048001FRANCES R. ZAMORA                                        0501
A0101402770391217294001VILLAMOR, MA. NORAYDA S.                                 0501
A0101402770391355762071RUEL ALBINO E. VILLANUEVA                                0502
A0101402770391728851001TUBILLO, ARIEL AGUILAR                                   0502
A0101408950396047389001MELROSHEAN CONSTRUCTION                                 10502
A0101408950396047389001CORPORATION                                             20500
A0101408950396166135001ERIC P. HERNANDEZ OR                                    10503
A0101408950396166135001MARIANNE P. HERNANDEZ                                   20500
A0101408950396559428001HERNANDEZ, MARIANNE PEREZ OR                            10504
A0101408950396559428001PEREZ, MA. MARGARITA                                    20500
B0101409180000000874773R.R. ENCABO CONSTRUCTORS INC.                            1605
B0101414830400821200608**********                                               2001
A5501400120000000003152MENOR, EDWIN DEMEGILLO                                   0501
B2401400180411017908001LWC CYCLE MART, INC.                                     1602
A2401400180411034282001N. CONGSON CONSTRUCTION SUPPLY                           0510
A2401400180411501589001VALILA, NOL S. OR VALILA, MA.                           10502
A2401400180411501589001LOURDES D.                                              20500
B0101403320471031672001JARECA PETRON SERVICE STATION                            1601
B0101403320471041480001ITP CONSTRUCTION INC                                     1620
B0101403320471041866001ITP PROPERTIES CORPORATION                               1620
A0101403320000001646766EROSA TRADING                                            0502
A0101410140000000499065MORDIDO, LYN ROBELLES                                    0501
A1901400160491034372001FIESTA HOME CENTER (FHC) CORP                            0505
B1401400110492031376001LUCENA WHEELER ENTERPRISE INC.                           1602
A1401400110492364401001RAFA,RAQUELITA OR RAFA, RENE OR                         10501
A1401400110492364401001RAFA,REI ANTHONY                                        20500
A1401400110000003063425SANTOS, WILFREDO GASPAR                                  0502
A1601400170000001837863RENE N. ESPLANA OR                                      10501
A1601400170000001837863GLORYDEL B. ALAPAD                                      20500
A0101407430000001028897JOVITO G. FERNANDEZ                                      0501
B0101407430503039823001REB FREIGHT MOVERS                                       1602
A0101403580000004683041PAOLO VICTOR S. MANALO                                   0501
A0101408110515336397001JUDITH S. SANTOS                                         0502
A0101411790518055764289MANALOTO, JOHN MANUEL MARTINEZ                           0501
B0101403450521011936001**********                                               1605
B2201400250000000016913ABRAHM CHASE CORPORATION                                 1601
A0101407720602006037001MA. LORNA S. BANGAYAN                                    0501
B0101412180000001292991RELL'S AGRI AND TRADING CORPORATION                      1602
A0101404260000003498602DEROCA, MARVIN GARCIA                                    0501
A0101404260611037351001SMD JANITORIAL SERVICES                                  0501
B0101404260611043949001JCLC TRADING                                             1601
A0101404260611548757001RAMIREZ, CORINA TORCUATOR                                0502
A0101409920000001951880MEMBERS OF NATASHA (SHOECAT INC                         10503
A0101409920000001951880DEJUCOS, PURITA                                         20500
A0101409920650787629001GONZALES, LILLIBETH B  OR                               10502
A0101409920650787629001GONZALES, TEODOR                                        20500
B0101411530000000013572ELIXER MULTI-PURPOSE COOPERATIVE                         1610
B1301400210682036160001RICH-WELL INTERBRAND CORPORATION                         1602
B0101408240000000832962CARMEL LAND SALES & DEVELOPMENT CORP.                    1610
A0101408240711228456002MA. VICTORIA MANIQUIS                                   10502
A0101408240711228456002OR STEVE MANIQUIS                                       20500
A0101408240711624705001ANDRADE, MARK STEPHEN AYAYO                              0504
B4101400260000001198881NAGA CRUSHING ROCK AND DEVELOPMENT                       1605
B4101400420814038765001EG&G CONSTRUCTION SUPPLY                                 1602
A4101400420814478374029ENCISO, ESTER A.                                         0501
A4101400420000002084595TONIO, EDNALYN                                           0501
A4101400420814562876001*****                                                    0501
A0101412340000004360241AYKROYD J. ASTURIAS                                      0501
A0101404840851046725002MA GERALDINE F. BOCADO                                   0502
A0101404840851046725019LETICIA QUINANOLA                                        0502
A0101404840851520766152ADELIA CEMINIANO                                         0501
A0101405070000001455863ERNESTO GONZALES, JR. JT DBU EG                         10501
A0101405070000001455863THREE MANPOWER SERVICES                                 20500
B0101405070000000428966ONEWORLD ALLIANCE LOGISTICS CORPORATION                  1610
A0601400230000003638948**********                                               0501
A0601400230891664298001ALMARIO, RENATO SICAT                                    0505
