A0101400150000000807170FRAGANTE, SOCORRO PROTACIO                               0501
A0101400150061337099104MA. SOCORRO SANTOS                                       0501
A0101400440000004901564DOVIE T. JERMIA                                          0502
A0101400440161520766185FLORA S. CHUA                                            0501
A1001400480000005356065GONZALES, TONNIE MAE MONTERO                             0502
A1001400480000003357748DEDEL, PATRICK JUNE YEMA                                 0501
A0101400150061337855001YNIGUEZ, EPIFANIA GONZALES                               0501
B0101400600071821200608**********                                               2003
A0101400440161039572003JUDELITA S. ECHUAL                                       0501
A1001400480000006270271NAVE, MARY JANE BRAGAT                                   0501
A0101400150000004915253MIRABUENO, MARIA MARGARITA RIVE                          0502
A0101400440161459294001MARY ANN T. REGINALDO                                    0502
A0101400440161525001112JELLIE ANN D. LOMAHAN                                    0501
A0101400440161525001139JEMARIE S. SALUDAR                                       0501
A0101400440161525001159MARITES P. MONTALBAN                                     0501
A3101400870225217498009EMPLOYEES OF MITSUBISHI MOTORS                           0501
A6601400120000005710630DY, FREDERIC JAN TUBELLO                                 0502
B0101403610531056136002ROTARY CLUB OF SAN PEDRO                                 1601
B0101414120000007655345AJM CHEDDAR BURST FOODS CORP.                            1601
A0101410300000003290100JESUS L. TAN                                             0503
A0101401250000004374630GANZON, MARITES M.                                       0502
A0101401250021180401001LOVEREZ, RENE JORDAN                                     0505
A0101400150000003198189Teth J. Rayos Del Sol                                    0501
A0101400150061078605001MORALES, NESCY JOY GEROGALIN                             0502
A0101400150061226679001RODOLFO BERNARDO                                         0503
A0101400600071233728003******                                                   0503
B0601400520000001349719MAGTOTO, KELVIN DBU CALULUT CON                         11605
B0601400520000001349719STORE                                                   21600
A0101401960121239548001MELANIE YAO                                              0501
A0101412630000000801381ROMARAOG, ALENE GARING                                   0501
A0101401830141711975001NORICO, AMELIA SANTOS                                    0501
A7201400170000003773273MERLIN, ERVING NOEL A. OR                               10501
A7201400170000003773273MERLIN, KAY ARLYN P.                                    20500
A7201400170152060879001RENDON, EDNALYN BACAY DBU                               10502
A7201400170152060879001FRIENDLY MOTORS                                         20500
A0101400440161039572004MARIFE M. BUNALADE                                       0502
B0101407270000000830551POULTRYMAX OMNIS, INC.                                   1603
B0101407270162054522002POULTRYMAX OMNIS, INC.                                   1605
A0101407270162402599002MA. LUISA C. PARRENAS                                    0505
A0101401090000001618986ALVAREZ, MA. AILIL BORLONGAN                             0501
A0101401090171376119006MARC LADISLA OR JOHN REYES                              10503
A0101401090171376119006OR ALFONSE ADALIA                                       20500
A0101401090171748197001JOSEPH ERROLL OR SHERRY NAVARRO                          0502
B0301400530193037483168LI, VINA DBU TAGUM AB MARKETING BUY &                   11605
B0301400530193037483168SELL AGRI PRODUC                                        21600
A0301400660194772365001*****                                                    0505
A0301400950000001379604BRYAN YAP LIM                                            0502
B0301400950000002115884TRANSYLVANIA TRANZPORT, INC.                             1603
A0101401380201171279001TSAI, ROBERT                                             0501
A3101400740000000013801PRINZI ENTERPRISES                                       0501
A3101400870225217498012EMPLOYEES OF MITSUBISHI MOTORS                          10501
A3101400870225217498012RODHAN D. BALLER                                        20500
A3001400130230478374004BALABA, JANETH BORJA                                     0501
A1001400190000005709100NERY, JASON JAY JASPER AMPER                             0501
B1301400470252030548001CABANATUAN JAC MARKETING CORPORATION                     1605
A0101401670000007555680*******                                                  0501
A0101401670000000237632BRAGA, ELIZABETH CILS                                    0503
A0101406620273720692001******                                                   0502
A0101408660274362607001SALAZAR, EMMANUEL B.                                     0501
A2601400270000002677503GILBERT V. DAMIAN OR                                    10502
A2601400270000002677503RUBY MILAGROS C. DAMIAN                                 20500
A2601400270000000561459PEDRO A. PAUAL                                           0503
A2601400270000002312203FELICIANO B. SEMANA                                      0501
B6601400120314043609004FUNDACION GRAMEEN PILIPINAS INC.                        11605
B6601400120314043609004CATARMAN 2 BR.                                          21600
B2001400290315047753001SILLIMAN UNIVERSITY COMMUNITY COOP.                      1610
A3401400280000002323451PETER RANDY G. DELA CRUZ OR                             10501
A3401400280000002323451CARINA C. DELA CRUZ                                     20500
A3401400280000003493801BERCADEZ, MICHAEL ANTHONY ADONA                          0505
A0101402350000003880433DUMAYAG, ANGELO BACANI OR                               10505
A0101402350000003880433TAN JR., PATERNO                                        20500
A0101402510000009991797*******                                                  0501
B0101409050352043845001COLLEGE OF ARTS & SCIENCES OF ASIA & THE                11603
B0101409050352043845001PACIFIC (PASIG)                                         21600
B0101409050000006319326COLLEGE OF ARTS & SCIENCES OF ASIA & THE                11602
B0101409050000006319326PACIFIC (PASIG)                                         21600
A0201400760000002309713ARRIOLA, LYLL KAREN BIGORNIA                             0502
A0201400890376585827001**********                                               0501
B0101402930381009648001CHRIST'S COMMISSION FOUNDATION, INC.                     1610
A0101402930381390157001PERLITA C. GAGAN                                         0501
A0101408370000006446073ZARSUELA, EDWIN STA CRUZ                                 0502
A0101411660000002309371RAJAN BHAGWANDAS GIDWANI OR                             10505
A0101411660000002309371MAYA BHAGWANDAS                                         20500
B0101405490000003905151ASIA PRIME REALTY NETWORK, INC.                          1603
A0101405490392637000001EDUVIJES S. BARAL                                        0501
A0101409180000004375382TAN, MARK HANSLEY                                        0501
A0101409180000005326472DEL ROSARIO, CARINA SAMSON                               0502
A0101409210398722475001ZAIDE, RODORA AMADOR OR ZAIDE,                          10502
A0101409210398722475001MICHAEL JOJO GALANG                                     20500
A2401400180000000826233OXALES, HANNAH LOUISE RAQUEDAN                           0501
A2401400180000000427985CULLO, KRISTIANNIE LOVE ROSARIO                          0502
A2401400180411442136088***************                                          0501
A2401400180411501589001VALILA, NOL S. OR VALILA, MA.                           10501
A2401400180411501589001LOURDES D.                                              20500
A0901400220000007072455KAHAL, JONALIZA HITROZA                                  0502
A0901400220000000012324SPECIALIST MOTORCYCLE PARTS &                           10506
A0901400220000000012324ACCESSORIES, INC                                        20500
A0101403320000009999986MALIPOT, CARL DOMINIC MASADRE                            0501
B0101403320471008879002GOLDWIN MANUFACTURING                                   11610
B0101403320471008879002LABORATORIES                                            21600
A0501400170481254469002OSCAR ARCINUE OR LUCIA DE VERA                           0505
A1901400160000007556810MORALES, JEANETH ROBLEDO                                 0502
B0101407430503006821002ADMIN - PEOPLE'S AIR CARGO                               1605
B0101407430503024218001T.O.L. REALTY & DEVELOPMENT CORPORATION                  1603
A0101407430000006027903JONAS MARTIN OR MARIAN MARTIN                           10501
A0101407430000006027903DBU SIM ONE TRADING                                     20500
A0101407430000005358716GARCIA, MA. THERESA ZAPANTA                              0501
B0101407430503821200608**********                                               2001
A0101405940512502817001CASIQUIN, LAIDA CALIZAR                                  0501
A0101408530000002980892LO, JANICE ANNE JARDIOLIN                                0501
A0101408530000007719831TAN, KELVIN HO                                           0501
A0101411790000009977275ESGUERRA, AIDGEILYN DECENA                               0501
A0101403450000001638075ACUNA, TERESITA CABRERA                                  0505
B0101403450521011869001**********                                               1602
A0101403610531204393002DE LEON, INOCENCIA GLORIA                                0501
B0101404130601150581001UNSU PROPERTIES, INC.                                    1604
A0101404130601547411001CO, ROYCE NASIS                                          0505
B0101407720602007039001TRINITY WOMAN & CHILD CENTER                            11605
B0101407720602007039001THE BIRTH PLACE                                         21600
A0101407720602163717001EDWIN E. DIMAYUGA                                        0503
A0101404260611150836001CHING, WILSON OR SUSANA                                  0505
A0101413570000007373875GOZON, MA. ANNABELLE OLINARES                            0503
B0101414120000001984234CAT'S EYE KING INTERNATIONAL INC.                        1602
B1301400210682821200608**********                                               2050
A1701400230000006717651AGUINALDO, ELIZABETH CARIAGA                             0501
A1701400230000001108412DURAN JR., ROBERT MANDAC                                 0503
B2801400100712035549001AUTOTEC AUTOMOTIVE TESTING AND EMISSION                 11602
B2801400100712035549001CENTER INC.                                             21600
A4101400420814506413001IBIAS, JOSEPHINE OCAMPO OR                              10501
A4101400420814506413001IBIAS, SEGISMUND                                        20500
A4101400420814520766138SAN PEDRO, ANA LIZA                                      0501
B0101404840851009287001K SERVICO TRADE, INC.                                    1603
A0101404840851478374121MARISSA L. ESPARAGOSA                                    0502
A0101404840851481664026ABEL F. FRANCISCO                                        0501
A0101406750000009871594DULATRE, THELMA MONTEMAYOR                               0501
A0101405070861027133001WORLDLINKS CABLE WORKS                                   0502
A0101405070000006006097CANTILLO, ALDWIN C. DBU ALDWIN                          10502
A0101405070000006006097C. CANTILLO LOGISTICS SER                               20500
A0101405070861478374066ELMER LADRES APAS                                        0501
A0101413860000009392258*********                                                0505
