F0101400150061036119001PALAFOX ASSOCIATES                                       2601CKR
F0101401380201037645002BRANDEXPORTS PHILIPPINES INC.                            2605CKR
F0301400240004013500224MSU-IIT NMPC DAVAO-1 BR.                                 2601CKR
F2401400180411049051001MSU-IIT NMPC GEN. SANTOS-1 BR.                           2602CKR
F0101414410000001346350TRANSCOM WORLWIDE BV ROHQ                                2630CK1
F1301400210682033690001FELIZA JAZZ CORPORATION                                  2602CKO
F4101400420814573133002MAGNETICA ELECTRONICS, INC.                              2502CKO
