A0101409180397696150001***                                                      0501
A0101407430000015823000RICALDE, DONABEL CAPUL                                   0501
A4101400260000012857520BATONGBAKAL, MARIA LYNN                                  0501
B1001400480000004097132EAGLE EQUIPMENT COMPANY, INCORPORATED                    1602
A0101409050000018006503DE VERA, RONALD EMMANUEL,                                0502
A0101407720000012156080HAUTEA, THERESE ANGELIE TORRE                            0501
A0101407720602294877006REBECCA B. SINGSON                                       0505
A0101407720602396825001EDWIN EPHRAIM G. WENCESLAO, MD                           0502
A0101407720602752994001CASTRO, CARLA VICTORIA ESPINA                            0503
B0101401250021016688001ST. MARY'S ACADEMY OF PASAY CITY, INC.                   1604
A0101401250021356941001HAMODIONG, MARY DIANE MAGLUNSOD                          0503
B0101400150000000052822SEAWOOD CAPITAL INVESTMENTS LIMITED                      1601
B0101400150000000633094KINETIC PHILS. ELECTRICAL CONSTRUCTION                  11605
B0101400150000000633094INC                                                     21600
A0101400150061389261001AYSON, JOEL RAYMOND REDULA                               0502
B0101405810072507268003**********                                               1601
A0601400100081501761001TAN, WINTHEL OR RALPH                                    0501
B0601400360000008477374GENTRY INTERNATIONAL TECHNICAL INSTITUTE                11602
B0601400360000008477374INC.                                                    21600
B0601400360000008477410GENTRY SCHOOL INCORPORATED                               1601
B0101413280000000041783GUERRERO CREATIVE ENTERPRISE                             1601
B0101414090000012425091KRIZIA DOMINIQUE AQUINO DBU LE CONCEPTS                 11602
B0101414090000012425091LIFESTYLE & CAFE                                        21600
B0101414090000012425108ESPANOLA, MARY ANN GEOCANIGA DBU JHAPZY                 11601
B0101414090000012425108ENTERPRISES                                             21600
A0101410560000002316616LORILYN A. JAYSON                                        0502
B0101401830000018473675VIANA, MILA CAJAYON DBU VIANA DENTAL                    11601
B0101401830000018473675CLINIC                                                  21600
B7201400170000011454378KURT WAYNE RICE AND CORN BUYER & TRADER                  1603
B7201400170000013006927PANONG, FELIX SUNDER TAN                                 1604
A7201400170000011454276MALINAO, AMESILE MAGHINAY                                0502
A7201400170000011454389CATIIL, MARIFIE ARSULA                                   0501
A7201400170000009463910EPIFANIO V. ABUCAY DBU MEGATEX                          10502
A7201400170000009463910OR ZENAIDA P. ABUCAY                                    20500
B5001400170153821100608**********                                               2002
A0101401090000011984500CO, EVELINA ANTONIO                                      0502
A0101401090171348052001MARY ANN VENTURINA BULANADI                              0501
B0301400530193035726167TAGUM PIONEER FOODS CORP. - 1                            1605
A0301400790000011509732ELISEO JR., BENJAMIN CASTILLO                            0502
A0101401380000013916651GALANG, REYMOND LACSAMANA                                0502
A0101410720653286682002MACAISA, MICHELLE ABADA                                  0502
A0101412500000018475108OGNITA, ADRIAN NIKOLAS RAVAL                             0501
A3101400450223223483001GALVEZ, RODOLFO OR ANGELINA                              0505
A3101400450223352819001FARAON, RIZALINA OR                                     10502
A3101400450223352819001BELEN, RHODORA                                          20500
A3101400870000017721934CANTILLANO, MARS L. OR                                  10501
A3101400870000017721934CANTILLANO, CHRISTIAN                                   20500
A0101401670000000237701TAYAG, FREDY LINGAD                                      0503
B0101406460000011598533INFINITY ONE GLOBALTECH INC.                             1605
A0101406620000004926096JOHN, HYUNG JOON                                         0501
A0101410980000017336517VILLAVICENCIO, MARGARITA MARINA                          0503
A0101410980000017336528VILLAVICENCIO, VICTORIA ANNA MA                          0503
A0101400570000013360355PANTIN, SONIA ARRIBAS                                    0502
A0101411240000018549643CO JR., ARNOLD TAN OR HSU, KER                          10501
A0101411240000018549643HSIONG TAN                                              20500
A2601400270000016748455DOMINIQUE M. SALAS DBU DM SALAS                         10505
A2601400270000016748455GENERAL MERCHANDISE                                     20500
A2601400270000016515183MARY JEAN S. VILLA DBU XING HAO                         10503
A2601400270000016515183GRAINS TRADING                                          20500
A0801400160000002287590**********                                               0501
B0801400160311494221001JUCABAN, LEO LAGOS                                       1601
A1101400120000000652653SOLAYAO, ROY DACLAG                                      0501
A1101400120000001547235DUGANG, JESSA EBIT                                       0504
B6601400120314043609001FUNDACION GRAMEEN PILIPINAS INC.                         1605
B6601400120314043609009FUNDACION GRAMEEN PILIPINAS INC.                        11606
B6601400120314043609009RAINBOW BRANCH                                          21600
A6601400120000009613685DY, FRANCO NEIL TUBELLO                                  0510
A3401400280000015108562BAARDE, LOURDES BULAQUINA                                0505
B3401400280000006790965JL PRIORITY LENDING CORPORATION                          1602
A0101402350000002310736ARIAS JR., ISIDORO TANZO                                 0504
A0101405650000016904331DE CASTRO, LORECEL BALIWAG                               0501
A0101405650000009768165ESTABILLO, LOURDES DAUS                                  0501
B0101405650000011811219BROKK PROTECTIVE AND DETECTIVE AGEN                      1602
A0101409050000018259711PASTRANA, SHERYLL                                        0502
A0201401020000007458195TITCO, MA. CHERIELENE S. DBU WE                         10501
A0201401020000007458195TRADERS                                                 20500
B0101402930381040455001R & S LAW OFFICES                                        1602
B0101408790000006025849YMSL GOURMET FOOD TRADING CO.                            1602
A0101415350000005085081SALAPARE, LOUIE AURELIO AGUILAR                          0501
B0101402770391027350001STRATEGIC DISTRIBUTORS, INC.                             1620
A0101402770391211669001TERRENAL, RUBEN TAGLE                                    0501
A0101405490000006299945TORRES, MA KARENA ARNAIZ                                 0501
A0101408400000014500631DELA PENA, WARREN GARCIA                                 0520
A0101408950396594011001MA. TERESA V. PEJI                                       0501
A0101409210000018105272CASTILLO, ABIGAIL ADVINCULA                              0501
B0101409210000000031238******                                                   1620
A0101412210000018548628SABAYTON, LOVELLA PILAPIL DBU                           10501
A0101412210000018548628BELLA888 SPACE RENTAL                                   20500
A5501400120410650364008SAY, GILDA OR DANNY OR HENRY OR                         10502
A5501400120410650364008HELEN                                                   20500
A2401400180411594040001LOGMAO, NORE LEE SANIDAD                                 0502
B5101400100000010371223ABINES JOHN PAUL BOTIGAN DBU RE                          1602
B0101403030441031034002**********                                               1610
A0101406330000015172502CANTOS, HAINZ'EL LLANELY GALON                          10502
A0101406330000015172502DBU MANCAVE WELLNESS SPA                                20500
B0101406330000012246901PASIG DOCTORS MEDICAL CENTER INC.                        1610
A0101406330000000162616LAND OF THE PROMISE TRUCKING                            10505
A0101406330000000162616SERVICES                                                20500
B0101406330000000432944PIPETECH CONST. CO. INC.                                 1601
A0101406330472296884001JAYLEE TRADING                                           0502
A0501400170000000018215VILLANUEVA, ENRIQUE MEJIA                                0502
B0501400170481019220002THE GOSPEL OF CHRIST, PHILS. ADPO,                       1601
A3801400170000017651384FORONES JR., EUFRACIO NALICA                             0501
A1401400110000016984273MENDOZA, ANA GRACE SABIO                                 0501
A0701400260000007895718BADURIA, DARIUS DAVID PADRIGON                           0501
A0101407430000014298769CARANTO, EVITA BORJA OR                                 10501
A0101407430000014298769ELISAN, AISSA GAY SALAGA                                20500
B0101407430503021143001PHIL-AMER IMMIGRATION SERVICES, INC.                     1602
B0101407430503030067002PRODATANET INCORPORATION                                 1602
B0101407430000008901291MNL AVIATION SUPPORT SERVICES HOLDI                      1603
A0101403580000005328536OLINGAY, FRANCES JOAN PERILLO                            0502
B0101403580000010847522M22 BUILDERS INC.                                        1605
A0101405940000012443311PALOMA, MARIA CARMEN BUENAGUA                            0501
A0101408530000002980681SAYCON, CARMINA JAVIER                                   0501
A0101408530000008159473JAVIER, BON ANTHONY                                      0501
A0101403450521392545001NANETTE CHRISTY O. CHING                                 0501
B0101403610000016438869MMG BROKERAGE CORP.                                      1603
B0101403610531659842002DELAMO LENDING INVESTOR CORPORATION                      1603
A2201400250000003558190EDWIN S. ESPIRITU OR ANNA                               10501
A2201400250000003558190JESSICA S. ESPIRITU                                     20500
A2201400250000012983063ESPIRITU, EDWIN SAMSON DBU E.S.                         10501
A2201400250000012983063ESPIRITU ARCHITECTURAL                                  20500
A2201400250561368480001CAPONPON, JANETH MAGNO                                   0501
A2201400250561371209001ANTONIO S. TANJUAKIO                                     0501
A0101404130000017429831DIMAPILIS, TERESITA GUNIO                                0502
B0101407720602022821001BLITZ MARKETING AND EVENTS, INC.                         1602
A0101412180000016105985VERZOSA, REY KURASHIMA                                   0503
A0101404260611434067001BARROGA, NORA FLORESCA                                   0502
A0101404260000001725526********                                                 0502
A0101409890000011486470NADONGA, ADRIANA LALU                                    0502
A0101409890000006277563AFURONG, ARMANDO DBU REALMASTER                          0502
A0101409890000009468448MOISES TOLENTINO JR.                                     0502
A0101407690000018548491REYNO, DIONISIO PINZON OR                               10501
A0101407690000018548491REYNO, FLORENCE                                         20500
A0101413440000015535005MANUEL, AMYLENE JUNE CANADA                              0501
A0101413570000001720212NIMFA C. ESPULGAR                                        0501
A0101413990657478374014LABTIC, DULCE D.                                         0501
A0101414120000017210445GASTADOR, MARIVIC AGON                                   0501
A0101414120000000649116STEADFAST BUILDERS, THE                                  0502
A0101406590662044117001D VISAGE INTERNATIONAL                                  10503
A0101406590662044117001CORPORATION                                             20500
B0101410300000000191644KINETICORE CO.                                           1601
A1301400210000018521843HINOJALES JR., JONATHAN RIC SAL                          0501
A1301400340000016229037SANTOS, MARNELL DE GUZMAN                               10502
A1301400340000016229037DBU NEO ELISH TRADING                                   20500
A1301400340683564481001REMO, NILO AVENDANO                                      0501
A1301400500000018543570TAGALAG, TEODORA CAROLINO                                0501
B1701400230693034406001ZS ALONZO FARM SUPPLY                                    1601
B1701400230000002762690TRANSWORLD TIRE AND AUTO SUPPLY COR                      1602
B0101408240000000832757RARE GLOBAL FOOD TRADING CORP.                           1604
A0101408240000000347528RAFAEL,JOSE JAVIER/ROSEMARIE/                           10503
A0101408240000000347528REGINA KRISTINE/                                        20500
A2801400100000005494259MANINGDING, ANALINE ACERO                                0501
A2801400100712311102001CHARINA N. HIPOLITO                                      0501
A2801400100712478374001BERNARD R. CORPUS                                        0503
A2801400100712501278001ARMAMENTO, NELSON ALIWALAS                               0502
A4101400260000016831846CALANSINGIN, CLAUDINE LLASOS                             0501
A4101400260812032880001WE'LL CARE BUILDER &                                    10502
A4101400260812032880001CONSULTANCY SERV                                        20500
A4101400260812246078001EMILANIE J. ESTOCADO                                     0503
A4101400260000006042991CRISTINA P. IGNACIO                                      0502
A4101400420000000710483ESPANOLA, MA. ANGILY CASANDRA                           10501
A4101400420000000710483CARBA                                                   20500
A4101400420814721341001CADIZ JR., TEOTIMO JACABAN                               0510
A4101400420814721341001CADIZ JR., TEOTIMO JACABAN                               0510
A4101400550000000315171ABEL, LUNINGNING EBONA                                   0502
A4101400550000010508722CRISTINO, RENATO MIJARES                                 0501
A4101400550815478374010CRISTINO, DANA JAMAICA                                   0501
A0101412340000004869816BERNADETTE S. HIDALGO                                    0502
A0101412340000007305564ELNA O. GALAROZA                                         0501
B0101404840000006365444GCF SOUTH METRO CHRISTIAN SCHOOL, INC.                   1603
A0101404840000000943248ROMINA LOZANDE                                           0501
B0101404840851671030001QUANTUMMEDIA MARKETING INC                               1602
A0101406750852184574001DELA ROSA, DANILO V. OR                                 10501
A0101406750852184574001DELA ROSA, VILMA                                        20500
A0101406750852636445001AMAPOLA C MANGURNONG                                     0502
A0601400230000013259519LORENZO-REDOBLADO, ZARINA GUEVA                         10502
A0601400230000013259519OR YAO, REGINA C                                        20500
A0601400230891584502001PELAYO, PACITA DUYA                                      0501
