A0101402350321485233001TUI, CHARLES ANGELO                                      0503
A0101402350321618569001DAMASO, GLORIA SANCHEZ                                   0501
A2401400180411272571001*****************                                        0501
A0501400170481257163001LOPEZ, JOCELYN NARCIDA                                   0501
B1901400320489062074001CORROCOAT PHILS. INC                                     1602
A0101400860000001005445************                                             0502
B0101400280051821200608**********                                               2005
A0101400150000004915260*******************                                      0501
A0101400150000003165211Michaela N. Magtoto                                      0502
A0101400150000009401525EMPLOYEES OF, THE BANK OF TOKYO                          0502
B0101400150061027294001HMS CREDIT & FINANCE CO., INC.                           1605
B0101400150061028210001GOLDEN DRAGON MOTOR SALES CORP.                          1607
A0101400150061289689001ROBERTO S. REYES OR                                     10501
A0101400150061289689001PIA MARIE I. REYES                                      20500
A0101400150000009217829VALLESPIN, CHERRYMAE RICHELLE F                          0501
B0101400600071325133001**********                                               1602
A0101405810000002314603WANG, BAOLIANG                                           0505
B0101405810072011448001C.P.P.C CONSUMER PACKAGING PRODUCT CORP.                 1603
B0101405810072020925003DW PLASTIC CORP.                                         1602
B0101405810000005943342PLASTIC TECHNOBAG CO. LTD.                               1601
A0101405810072385132001***********                                              0503
A0601400100000007253912PARALUMAN ENTERPRISE INC.                                0510
A0101413280000009800784DE LEMOS, MILAGROS OCENA                                 0501
B0101413730000000469676MADRIGAL TRADING CO., INC.                               1601
A0101414090000006211461BENEDICTO, LIZA COJANO                                   0501
A0101410560000000268360DE LEON, TERESITA BOTE                                   0502
A0101400730000002882433LI, MARYANN NOVALES                                      0501
B0101400730111035655001FSL INT'L. MANPOWER & PROMOTION SERVICES                11601
B0101400730111035655001INC.                                                    21600
A0101400730111334903012EMELITA E. BATO                                          0501
A0101400730111565363001TIU, DAVID TERENCE YAO                                   0502
A0101412630000007158172STA. CRUZ, CONCEPCION LAZARO                             0501
B0101401830000000033605CARITAS SALVE CREDIT COOPERATIVE                        11603
B0101401830000000033605(QUIAPO-005)                                            21600
A0101401830141724867001GOMEZ, GEORGE CASSIUS ALFONSO F                         10501
A0101401830141724867001OR GOMEZ, JINKY T.                                      20500
A0101407270000009690202GREGORIO, JANNA KRISTA GATUSLAO                          0501
A0101401090171290167001BERNADETTE G. BECARES                                    0501
A0101401090000000993353VELASCO, ZENAIDA FAINSAN                                 0501
B0101401090171767856001USTHS ALUMNI ALLIANCE FOUNDATION INC.                    1601
A0301400530000006477274LUI, LORETO RABI                                         0502
B0301400530193065790001SAMPAO KAPALONG AGRARIAN REFORM                         11601
B0301400530193065790001COOPERATIVE                                             21600
A1001400190231520766094SALAGUSTE, FELIPE B.                                     0501
A1001400350000000922105FACTURA, JACKELOU CORONEL                                0501
B1001400350000007920876PEARSON, PILARCITA ROA AND  HEQUILAN,                   11602
B1001400350000007920876ELVIE CORTEZ                                            21600
A0101406460272377244001ALA, JESSIE ATENTA                                       0501
B0101406620000000194012LAMCO INTERNATIONAL TRADING CO., IN                      1601
B0101406620000000962403GEOWORKS INTERNATIONAL CORPORATION                       1601
A0101406620273337587001SIMPLICIO C. BELISARIO JR. OR                           10503
A0101406620273337587001J0CELYN G. BELIS                                        20500
A0101408660000006296815PERALTA, CARLA MARIE ANGKEE                              0502
B2601400270000000020673JPGLOBAL VENTURES CORPORATION                            1603
A1101400120000006186423VEGA, JILIE UY                                           0501
A1101400120313537396001VILLEZA, ROMEO NIEVES                                    0502
B2001400290315044204001ACEBANK CREDIT, INC.                                     1601
A0101402350321477731003********                                                 0501
A0101405650322294619001VESES, LILIA HERNANDEZ                                   0502
A0101405650322294619002VESES, LILIA HERNANDEZ OR                               10502
A0101405650322294619002VESES, ANTONIO M                                        20500
A0101409050000001662380***************                                          0501
B0201400760374042947001MILDS MARKETING                                          1604
B0201401020000005109893PILIPINAS LOGISTICS & TECHNOLOGIES                      11605
B0201401020000005109893SOLUTIONS INC.                                          21600
A0101408370000006446142CHIONGLO, PHILLIPE RAY SAN MIGU                          0501
A0101408790000005169115JUAN R. SUMPAYCO MOVERS                                  0505
A0101402770391211308001*********                                                0504
A0101402770391211935001RUBEN OR HELEN OR JAY NINO                              10503
A0101402770391211935001SANVICTORES                                             20500
A0101402770391282719001GASPAR, LIBRADA PUNONGBAYAN                              0501
A0101402770391319133001ALMIN, WENDA RESUELLO                                    0502
A0101408400394034391001INTEGRATED TELENET SOLUTIONS CO                          0502
A0101408400000001213574MARGO POTS AND FLOWERS                                   0501
A2401400180000003949140UY, RUBING SIOCO                                         0502
A2401400180411606823002MONACILLO, MARICHU SABANDAL                              0501
A1201400150000006253669LONTOC, JINKY DELOS SANTOS                               0503
B1201400150000005357906COST OF MONEY LENDING CORPORATION                        1605
B1201400150421252673001GALANG, ARMANDO DUNGCA                                   1603
A1201400150421299356004LARANANG, BENITA CRISELDA                               10502
A1201400150421299356004MANONGDO                                                20500
A1201400150000000473290BAGSINGIT, SARAH AGWIKING                                0503
A1201400150421598323001BORJA, LAWRENCE ANTHONY PADUA                            0502
B0901400220000000888202**********                                               1603
B0101403030000000008955**********                                               1602
A0101412890000005944863DELA  PAZ, MICHELLE BUENAFE                              0501
A0501400170481367892001XXXX                                                     0510
A1901400160000000243514CONRADO AUGUST AMBIDA BONDAD JR                          0502
B1901400160491341189001VIRGINIA R VARGAS OR                                    11601
B1901400160491341189001RICHARD D LIM                                           21600
A1401400110000009610599ARANILLA, MARK ANDREW TAN                                0501
A1601400170000001360792CHEN, ZE DENG                                            0501
A0701400260000002339095BERNARDO JR., JAIME MIRALLES OR                         10502
A0701400260000002339095BERNARDO, CYRIL                                         20500
A0701400260000007895718BADURIA, DARIUS DAVID PADRIGON                           0501
B0101407430503006865001AIRTROPOLIS CONSOLIDATORS PHILS. INC.                    1620
A0101403580000005328376MAULION, GENALIN BOJA OR                                10502
A0101403580000005328376MAULION, ARNEL VILLAMIN                                 20500
B0101403580511038113001MACEDA VALENCIA & CO.                                    1605
A0101403580511570521001ELEONOR B. BAYANI OR                                    10501
A0101403580511570521001JOVITO BAYANI                                           20500
A0101405940000002268722DOMINGO, KAREN MUSNI                                     0502
A0101406880000000745000MENDOZA, MARIA THERESA VILLAREA                          0504
A0101406880513417808001DEALINO, FARRAH OR  JOSE MARI                           10502
A0101406880513417808001DEALINO, AIDA                                           20500
A0101408110000005169393VIRTUDAZO JR., SIMPLICIO MANIGO                          0502
A0101408530000001886064MARIA THERESA L. FRANCISCO                               0501
B0101412050000007801552NORTH ASIA CENTRAL MANPOWER SERVICE                      1603
A0101410690000003027625BENJAMIN C PILOTIN JR OR                                10505
A0101410690000003027625MARIA HOSANNA A PILOTIN                                 20500
A0101404130601354508001LOLITA M. HODREAL OR                                    10505
A0101404130601354508001JOSEPH M. HODREA                                        20500
A0101407720602397125001PASTORES, ELOISA GUZMAN                                  0503
A0101407720602398542002DR. ROBERT DENNIS J. GARCIA                              0502
A0101407720000002727762LAUREL, MARLENE NACARIO                                  0501
B0101404260000004781200G1CAFE INC.                                              1602
A0101409890000000049089GEMSTAR CLEANING SUPPLIES                               10505
A0101409890000000049089INTERNATIONAL                                           20500
A0101413440000002629241APILADO, MARYFLOR ILAGAN                                 0501
A0101413570000003379873SANGUYO, CHERYL JIMENEZ                                  0501
A0101413570000005435241SALVADOR, ALVIN ROI ESCUDERO OR                         10501
A0101413570000005435241GONZALES, DANIELLE IZHAR                                20500
A0101413570000005435030BAGUITRO, ARNOLD GUILARAN                                0501
A0101413990000000631907BAGNOL, LINDY BINALOYO                                   0504
A0101413990000004838057MONFORTE, JENNELY TEVES                                  0505
B0101410300663082813001DELTA GRID POWER SYSTEM CORPORATION                      1605
A1301400210682722987001******                                                   0502
B1301400500684602319001*****                                                    1603
A1701400230693478374031VILMA D. BAGAY                                           0501
B0101408240711023642001SAM SUNG PHILIPPINES CO., INC.                           1602
A0101408240000007478171CASTRILLO, CARLITO BARRIAS                               0501
A2801400100712718080001ABANTO, MARGIE LAT                                       0501
B4101400260000005724056EG RANESES TRADING CORP.                                 1602
A4101400420814085521001DEL ROSARIO, JAVIER GUIMAN                               0502
A4101400420814478374030LIGAYA ILANO                                             0501
A4101400420814500009001BERDIN, ANNA BEL JARINA                                  0501
A4101400420814520766084PADILLA, ROSEMARIE E.                                    0501
A0101404840851427853001BIE, JOANNA MARIE GASMEN                                 0502
A0101406750000002251412ADOLFO, MARIA CORAZON OLA                                0502
A0101406750000007879529RODRIGUEZ, OFELIA CRUZ                                   0501
A0101406750000000017427ANTONIO, ARNALDO QUILATAN                                0501
A0101405070861197650002********                                                 0502
B0601400230891028013001OCAMPO'S MARKETING, INC.                                 1602
B0601400230000007953971SAINT MARY KIDNEY CARE, INC.                             1610
