B0101410140475821100608**********                                               2002
B0101405650000014044463RANCHO AMANTE AGRI CORPORATION                           1601
A0101405650322170571001ARTURO LAZATIN OR                                       10501
A0101405650322170571001MA. THERESA LAZATIN                                     20500
B0101410850109062286006SHOGUN SHIPS CO., INC.                                   1601
A0101400860011397182002**********                                               0504
A0101400860011419313002**********                                               0502
A0101400860011507585001LU, SHAOYI                                               0510
A0101401250000008136521ONGSUECO, SYLVIA KIUNISALA                               0502
A0101400150000003162450SETH R. ARCILLA                                          0502
A0101400150000003769160ADAMS, JANET RICO                                        0502
A0101400150000018698465CUNANAN, MELFORD GUINTO                                  0501
A0101400150000013758773ANQUE, ROZEN MAE ISRAEL                                  0501
A0101400150061229814001LEONCIO C. LIM                                           0501
A0101400150061229814002LEONCIO C. LIM                                           0501
A0101405810072696577001CHAN, MERCELYN TAN                                       0502
A0601400100000013802192PINEDA, ANDRO LOUIE DIZON                                0501
B0601400100081013158001TRUST INTERNATIONAL PAPER CORPORATION                    1610
B0601400100081035852001LIBERATO T. REYES & ASSOCIATES,                         11602
B0601400100081035852001CPA                                                     21600
A0601400360000018710380GATBONTON, SHEERY JAY MANEJE                            10501
A0601400360000018710380DBU AA88 TRADING                                        20500
A0101410850000015839919DE LEON, SHARON ANN CHARMAINE                           10502
A0101410850000015839919BELMONTE                                                20500
A0101410560000017372339GALANG, MARY GRACE ALBA                                  0501
A0101401960000004419841**********                                               0501
A0101401960000006004411***************                                          0501
A0101401960121457193001**********                                               0501
A0101401830000012441779CASISON, RUTH CRISTOBAL                                  0501
B0101400440000000337871GERAND BUSINESS CONSULTING CORP.                         1603
A0101400440000014296303ASYAO, MA. SALLY SAMSON                                  0501
A0101400440000002034920MARY GRACE S. UGAT                                       0502
B0101400440000000337751COMMANDER RANGE & SPORTS CLUB, INC.                      1605
A0101400440161478374006JOSEPHINE R. VEGA                                        0502
A0101401090171399340001CARMEN S. QUESADA                                        0501
A0301400530000016099311JOVITA, CHRISTINE JOY GORGONIO                           0501
B0301400530193044706199ROYAL CROWNE BEVERAGES                                   1601
B0301400530000000025276KONRAD FERNANDO - ROYAL CROWNE TRUCKING                 11601
B0301400530000000025276CATHERINE FERNAN                                        21600
A0301400530193774589001CREDO, ARIEL S.                                          0503
A0301400660000006862862PEDRAJAS, MANUEL OR PEDRAJAS, B                         10503
A0301400660000006862862EVERLYN                                                 20500
A0301400660000013311421PAGUTE, MARIVEL JOY PINO-ON                              0501
B0301400950000002115651ZILVERBAND, INC.                                         1603
B0101401380201034247001HOBBIES OF ASIA INC.                                     1604
A0101401380201374236002PENA, JULIETA MILLARE                                    0502
A0101410720000002283996RANOLA, RONN MARLOWE CABILLON                            0501
A0101412500000018707561ENRIQUEZ, MARILYN ROSERO                                 0501
A3101400160000017091106ADAO, TERESITA GRAVADOR                                  0501
B3101400160221037479001TABLERIA LA CONFIANZA CO., INC.                          1601
A3001400130000014779943PIZARRO, JEFFERSON LUNA                                  0501
B1001400190000011057979RD PAWNSHOP, INC.                                        1605
A1001400190231509590001LAGUYAN, ENGRACIO SALONA OR                             10504
A1001400190231509590001LAGUYAN, HELEN B                                        20500
A1001400190231520766112ALIBIO, NELYBETH TACBOBO                                 0501
A1001400350000015675382CAPINPUYAN, LUIS ANTONIO S. OR                          10501
A1001400350000015675382CAPINPUYAN, JULIE ROSE CO                               20500
A1001400350000015675473GALVEZ JR, LEODEGARIO LABADAN                            0502
A1001400480000000041501SALVANA, RODOLFO L OR SALVANA,                          10505
A1001400480000000041501ELIZABETH C                                             20500
A1001400480000000133348ALIPAR, MA. NEDIE D OR                                  10502
A1001400480000000133348ALIPAR JR., JUAN                                        20500
A1001400480000002300372GALUT, MYRNA MANGALLAB                                   0502
A1001400480000006270511RAHON-SUCGANG, ROSE BELLE E                              0502
B1001400480000006296262MA. DEL CARMEN MART, INC.                                1610
A1301400470000011839662**********                                               0502
A0101406620000012373494ESCUDERO, ROSALINDA BENIPAYO                             0502
A0101406620000017765278BACOLOD, GIDEON TABELLA                                  0502
A0101411110000002320110ESCARO, MICHAEL JASON BERINGUEL                          0501
A0101400570281192945001MINDA D. BUENVIAJE                                       0502
A0501400200000017208383ANDRADA, MARK JOSEPH BERGADO                             0502
A2601400270000014231180ALMASITA A. MARAMBA DBU                                 10501
A2601400270000014231180CFD MEATSHOP                                            20500
B2601400270000017479902ANGELITO S. UY DBU STEEL MANPOWER                       11601
B2601400270000017479902SERVICES                                                21600
A6601400120000011286543AMOR, ZALDY FRANCISCO DBU STEVE                          0502
A6601400120000011286350GARABEL, ALEJANDRO LOBERIANO DB                          0501
A3401400280000001723440EDUQUE, JESSIE ECARAN OR EDUQUE                         10501
A3401400280000001723440RUELYN CAPUNONG                                         20500
A0101402350321408269001SALAZAR, FREDERICK R. OR                                10501
A0101402350321408269001SALAZAR, ELLA CRISTINA J.                               20500
A0101402350321536804001MANZANERO, LIGAYA I.                                     0501
A0101405650322150163001CASIBANG, NATALIA T.                                     0501
A0101402060351217441047CLARIZA C. EMALADA                                       0501
A0101409050000012409671BONDOC, CARLA MAGBANUA                                   0501
A0201400760000011472610LUZANO, ERNEST GUSTILO                                   0501
A0201400920375478374008OLELA, DONATILLA OMELGO                                  0502
A0201400890376038937002ECB TRADING                                              0505
A0201400890376458754001NOMBRADO, GILBERT DOMASIS                                0501
A0201401020000003031129DEL PRADO, JOSE VICE DBU DE LAR                          0502
A0101408370382490712001DRS. ROMUALDO G. CACAS JR. OR                           10501
A0101408370382490712001THERESA MARIE REYES-CACAS                               20500
A0101408370000005220182MALONG, MARIA ELENA AZARRAGA                             0501
A0101408790000005251161ARCIGAL, JOSEFINA LUBAO                                  0501
A0101411660000015799505SANTIAGO, MARIA LOURDES SALITA                           0502
A0101405490392029904001ROSH INDUSTRIAL SUPPLY                                   0502
A0101405490000005210320ANDRADE, CAESAR BANAYAG                                  0501
A0101408400000018693173PALCIS, CRISTOREY DAVID                                 10501
A0101408400000018693173OR PALCIS, SHERYL MAON                                  20500
B0101408400000001258599PASAY ULTRASOUND AND PERINATAL SVC.                      1603
A0101408400000001952770MERIAN B BUERE                                           0501
A0101408950000016736277MAGUDDAYAO, CHERRY ANN DE ASIS                           0502
A0101408950000005325571TAN, JOHN ERIC NGO OR                                   10501
A0101408950000005325571QUIROZ,BERNICE V                                        20500
A0101412210000018703238CADAY, MA. AURORA TUZON                                  0502
A0301400820000014658018SARINO, DANNY G.                                         0501
A0301400820000018705070ROMUAR, KRISNA M.                                        0501
B0301400820000012928491GO, EDWARD A. DBU EGO FISHING INDUSTRY                   1605
A0301400820000017664025NEROSA, KATHRYN MONROID DBU                             10501
A0301400820000017664025KNJV ONLINE CENTER                                      20500
B0301400820000008105673VICAR FRANCIS HOSPITAL, INC.                             1602
A2401400180000016516739URIARTE, LOVELY MAY B. DBU LJ                           10503
A2401400180000016516739SMALL SCALE MINING                                      20500
A2401400180411019214001CROPLINK ENTERPRISES                                     0503
A1201400150000016104599CARMELITA ROYALES HUFANA DBU PI                          0502
A1201400150000015799572ANG, ROSARIO CUA                                         0502
A0101412890000007095641MACALIPAY, JOSEPHINE ANTARAN                             0502
A0101406330472093563001SANTOS, ORESTES ROBLES                                   0502
A0101410140000012678474BOBARES, GRACE GUAVES DBU GMMJ                           0502
A1401400110000003475854DAYA, FRANCIS GERARD MOLINA                              0503
B1601400170000009954545DENNIS M. BATOCABE AND ADERMA ANGELIE                   11605
B1601400170000009954545ALCAZAR                                                 21600
A0101405940512456137001JUDY LIM OR MICHAEL LIM                                  0501
A0101403450000013846541PATRICK SUN JT                                           0504
A0101403450521239620001**********                                               0501
A0101403450521239693001*********                                                0506
A0101403450521240285002**********                                               0502
B0101403610000018326326G & C COMPUTER LEARNING SCHOOL INC                       1601
A0101403610000015921743PE BENITO, MAYBELLE AQUINO DBU                          10502
A0101403610000015921743MIRAI MARKETING                                         20500
A0101404130000018556171ZHAO, BAIHANG                                            0502
B0101404130601028598001CAMBRIDGE CHILDREN'S LEARNING AND                       11610
B0101404130601028598001DEV'T., INC.                                            21600
A0101407720000007936210HUISO, MAY ENRIQUEZ                                      0501
B0101407720000011874794MAKATI MEDICAL CENTER EMPLOYEES                         11604
B0101407720000011874794ASSOCIATION                                             21600
A0101404260000003498500GUMIA, NORA PERANDO                                      0501
A0101407690000018233495BUSOG, ROSALYN CARANOG                                   0501
A0101413440000017513229BALOY, GERALDRITZ GUANLAO                                0501
A0101414120000009850780R. ACOSTA ENTERPRISES                                    0502
A0101406590000010435002HABACON, GEORGE PAUL T. OR                              10502
A0101406590000010435002HABACON, CRISTINA Q.                                    20500
B0101406590662038794001PRISMODIAL CONSTRUCTION CORPORATION                      1605
A1301400210000005040760MARCELINO, RUBY DEOGRACIAS                               0501
A1301400340000012156233ESTRANERO, DON XAVIER WERBA                              0501
A1301400340683552455001KO , KUN-YU                                              0501
A0101408240000018210958JUSTINIANI, ALISTAIR P.                                  0501
A0101408240000018708962PIANO, T DBU S212 DISTRICT                              10501
A0101408240000018708962TAVERN                                                  20500
A2801400230000011730351LANGIT, ANNE-MARIE FERNANDEZ                             0501
A4101400260000012886967TORRES, ARTHUR LINGAT                                    0501
B4101400260000006043465VIANKA REALTY CORPORATION                                1601
B4101400260812024721001DORMBUILT, INC.                                          1603
A4101400260000006043049FALIC, JEANNETTE RUGA                                    0501
A4101400390000018694883MARAVILLA, JERABY CHAVEZ                                 0501
A4101400420000009270526BIHAG JR., LAURIANO LAZARTE                              0502
B4101400420814015551002REGATTA CLASSICS HOMEOWNERS ASSOCIATION                  1601
B4101400420000009391955SOUTH MEATS AGRI TRADING INC.                            1602
B4101400420000009392003SWINELAND INC                                           11602
B4101400420000009392003FARM 2                                                  21600
A0101412340000004360558RIZA MARIE C. BELGIRA                                    0501
B0101404840000003069710ESPORLAS, AURELYN AREVALO DBU ALDRE                      1602
A0101404840851520766162JANET H. ESTORES                                         0501
A0101406750000010508868ALMANZOR, CLARIFA DE TORRES                              0501
A0101405070861197981001MANOJ KUMAR IDANMAL OR                                  10501
A0101405070861197981001RESHMA MANOJ IDANMAL                                    20500
