B0101400440000005393717RD PAWNSHOP, INCORPORATED                                1603
A0101413730000002289483ONG, HOSANNA TENG                                        0501
A0101400440000001440000LAPASARAN, MARY GRACE FRANCISCO                          0501
A0101400440000004889876MARICEL D. BACOLOD                                       0501
A0101400440161520766081EVA C. VILLANUEVA                                        0501
A0101400440161520766193LEILANIE P. LOCSIN                                       0501
A0101400440161525001014RHODORA P. SANTOS                                        0501
B0101400440161528688001POWERPHASES CONSTRUCTION SERVICES INC.                   1603
A1001400350233533309001MARIO JOSE A. SIA / CAGAYAN DE                          10505
A1001400350233533309001ORO HARDWARE AND                                        20500
A0101406620273720692001******                                                   0502
A0101402060351009359001JIANDANI, SURESH G. OR                                  10501
A0101402060351009359001JIANDANI, KAVITA                                        20500
A0101402060000000358521KOTODA, HIRONARI                                         0501
B0101402060351427156001METRODORM RESIDENCES CORPORATION                         1603
A2401400180000005536596BATTAD JR., AMADOR CASTILLO OR                          10501
A2401400180000005536596BATTAD, VILMA ESPINOSA                                  20500
A0101412890000001056462GO, FLORINDA DE GUZMAN OR MANAL                         10501
A0101412890000001056462ILI ZARAH JANE G                                        20500
A0101412890000002747846SISA, J DBU OYS MARKETING                                0501
B0101403320471008859001NEW LITE LUMBER & CONSTRUCTION                          11602
B0101403320471008859001SUPPLY                                                  21600
A2801400100712257546001CUSTODIO, GODWIN                                         0501
B0101400150061036527001FUTUREHEADS INDUSTRIES, INC.                             1601
B0101400600071011309001PEDERNAL MARKETING                                       1605
A0101400600071457180001**********                                               0501
A0101405810072234816001CORAZON L. MACATUNO                                      0503
A0101405810072286152001SIY, BAILEY OR JUDY ANN TEUNG                            0503
B0601400100000000032806BLU BLAZE GAZ HAUS                                       1604
B0601400100000002099221JETTWORLD INTEGRATED CORPORATE SERV                      1605
A0601400100081252521001PALACIO JR., ERNESTO R.                                  0503
B0601400360000000978936THE MEDICAL CITY CLARK, INC.                             1610
A0601400360000004915413SIOCO, MARY JANE SORIANO                                 0502
A0101413730000000469125*******************                                      0501
A0101400730000002882502ULOB, GUARDINO MARTINEZ                                  0501
A0101400730111412858042ALMA PATRIARCA                                           0503
A0101400730111741862001ATTY. H. JAMES WILMOT                                    0502
A0101413310000001073745BATAC, MARY GRACE G. DBU MOTHER                         10501
A0101413310000001073745BEAR TUTORIAL & LEARNING                                20500
B7201400170152058498001CHANG, ALAIN MICHAEL D. DBU STARLIGHT                   11601
B7201400170152058498001GENERAL MDSE.                                           21600
A0101400440161444185001ELSA R. BANEZ                                            0501
A0101401090171198478001MAFEL C. YSRAEL                                          0501
A0301400660000003361891TUNAY AGRI-CHEMICALS CORPORATIO                          0502
A0301400660194606143002ANGCOS, ROEL ONGCOY                                      0501
A0101413020000000056955MACAPAGAL, JACKY LOU FULGENCIO                           0501
B0101412500000000739715PACIFIC CONCRETE PRODUCTS INC.                           1603
A3101400160000000006464CANDELARIO, EVELYN DBU                                  10501
A3101400160000000006464RALC REALTY                                             20500
A3101400160221730342001NILO V COSTIBOLO                                         0502
B1001400190000000124810GOCHUICO, PETER LIM                                      1602
A1301400470000001299185MA. CRISTINA B. CARLOS                                   0501
B1301400760000000007121GLOBAL CARS PHILS., INC.                                 1605
B0101401670271007776001ASHTON TECHNOLOGIES CORPORATION                          1605
A0101406460272232218001MARIANO, NORMITA T.                                      0501
B0101406620273031145001KOHL INDUSTRIES CORPORATION                              1603
A0101406620273341737001KAMPITAN, MA. THERESA LEDESMA                            0501
A0101406620000004926103RIMANDO, MITZI LOUIE MANUEL                              0502
A0101412470000005380303TE, MA. ROSELLA PARASO                                   0502
B0101400570000003451589CONTEGO TECHNOLOGIES INC.                                1602
A0101400570000001681858GO, ROBERTO ONG                                          0503
A0101411240000006548930CALUBIA, GRACE-AN BALENDES                               0501
B0101411240283047591001MOVIMENTO 5 CORPORATION                                  1605
B1101400120000000652442GICABAO, KATHLEEN JOY NG OR                             11603
B1101400120000000652442GICABAO, BONGKOK                                        21600
A6601400120314593270001DIAZ, REO DBU RUDMAR TRADING JT                          0505
A0101402350321180119001SHERENA O. PARUCHA OR                                   10501
A0101402350321180119001VIRGILIO B. PARUCHA                                     20500
A0101402350321358067002GEALON, GILDA PALOMARIA€                                 0501
A0101402350321542967001ABUNDIENTE, JONATHAN GUMBA                               0501
A0101405650322677759002BESA, ODESSA MACATIVO                                    0501
A0101402510341199632002ANA LIZA R. DELA CRUZ OR                                10503
A0101402510341199632002ANTONIO T. DELA                                         20500
B0201400760000005156510GO, KEN SAMUEL ECHAVEZ                                   1601
B0201400920000000047874TURBO TRANSPORT INC.                                     1601
A0101402930381207184001JULIUS CAESAR C. GARCIA OR                              10510
A0101402930381207184001LIZA LLANES-GARC                                        20500
A0101402930381430185001GINA M. DOERR OR ANTON A. DOERR                         10501
A0101402930381430185001OR GELIA M. MART                                        20500
A0101402930381478374009MARIVIC R. DELA CRUZ                                     0501
A0101408790383633624001JIM STENIEL TAN GAWSON                                   0501
A0101402770391386798001SANTOS, MARLON LISING                                    0502
B0101405490000001935719KIDSVILLE CREATIVE SYSTEMS, INC.                         1601
B0101405490392047246001JOCELYN C. DELA ROSA DBU JRD FREIGHT                    11601
B0101405490392047246001FORWARDING                                              21600
A0101405490392174685001VICTORIA T. ANGULO                                       0501
A0101408400394033093001KOLETZ ART GALLERY                                       0501
A0101408400394036671001CAIT FURNITURE SHOP                                      0501
A0101408400394042261001L & B CONSTRUCTION                                       0503
A0101408400394508446002BILIGAN, CHARLENE LASCO                                  0503
A0101409210000006564812BORJA, GEAN CARLO RITO                                   0501
A0301400820000001185837RANGGAN, EDNA J.                                         0501
A0301400820000002271912BARAN, DERICK S.                                         0501
B2401400180411496640088ANG, GARY SISON OR XU YUAN HONG                          1601
B0101403030441631353001ANG CHING HUAN & SONS RESOURCE                          11605
B0101403030441631353001PHIL                                                    21600
B0101406330472046636001ENERTECH SYSTEMS INDUSTRIES, INC.                        1610
A0101406330472629526001CHONA E. BORROMEO OR                                    10502
A0101406330472629526001AL KAZ S. BORROMEO                                      20500
A1901400160000004846191MARICEL CULLA CATAPANG                                   0501
A1601400170000000497423MENCHU R. BUADO                                          0501
B0101403580000002185424M22 BUILDERS INC.                                        1604
A0101403580511151398002ARIZA TERESA MANGALILE OR                               10501
A0101403580511151398002REYNALDO JOSE MANGALILE                                 20500
B0101403580511155828001JOUBERT CONSTRUCTION INC.                                1610
A0101403450521238178001**********                                               0503
A0101404000000003813892HAZEL JOYCE O ATIENZA                                    0501
B0101404000000002799775LMA LAW OFFICES                                          1603
A2201400250000001065952ALICE B. DE VERA                                         0502
B2201400250561291930001JOSUE SENGCO &/OR DIGNA REMOLANA &/OR                   11602
B2201400250561291930001DILIDAN PASION                                          21600
A0101407720602161918001MARY ANNE LUCIANO-AMON OR                               10503
A0101407720602161918001JONATHAN M. AMON                                        20500
A0101407720602313008001LEE, BERNADETTE D.                                       0502
A0101407720602396506002DR. ESTELA Z. CABRERA                                    0501
A0101407720602401503001MARIA LIZA G. FRANCISCO                                  0506
A0101407720602402493001**********                                               0502
A0101407720602496503015DANIEL M. LUCHANGCO                                      0501
B0101412180000001293090ADVANI, GHANSHYAM PARASRAM DBU SICHEL &                 11605
B0101412180000001293090SICHEL ENTERPRIS                                        21600
A0101407690000002348832ALUNDAY, TERESITA AREVALO                                0501
A0101407690652020765001STARIAN MARKETING                                        0505
B0101407690000000025032GOLDLINK NETWORK SOLUTIONS INC.                          1601
A0101407690652452375001PALAD, MA. JESUSA FELICIANO                              0503
A0101407690652528874001PEREZ, EMERITA TUAZON                                    0501
A0101413570000002249425CANLAS, GLEN G.                                          0501
B0101406590000005403270ALESNA, JOSEPH JIMENEZ AND CARBON, ARNIL                11601
B0101406590000005403270GIJAN                                                   21600
B0101406590662060670001NATIONAL UNIVERSITY ALUMNI                              11602
B0101406590662060670001FEDERATION INC.                                         21600
A0101410300000000592154MILLAR, JOSEFINA C. OR                                  10502
A0101410300000000592154MELCHOR, GISELA                                         20500
A1301400210000005040511CRUZ, JENNIFER LUMBANG                                   0501
A1301400210682478374053RUBIROSA C CABUGWASON                                    0502
A1301400500000003070037RAMOS, MA. TERESA FLORES                                 0501
A0101408240000003955522BAES, MICHAEL ALBERT MARCO                               0501
B0101408240000000832757RARE GLOBAL FOOD TRADING CORP.                           1603
A0101408240711449000001PECACHE, MONICA BAGATSING                                0501
A0101408240711452627002ITO, ERI KUBOTA                                          0501
A2801400100712386429001SALAZAR, MA. CRISTIN MULANO                              0510
A4101400260812478374005JENITA Z. PALLE                                          0501
A4101400260812629092001ELLEN C. BUCAO                                           0502
A0101404840000000475952GONZALES, ROWENA POLLICAR                                0502
A0101404840000001312725GUERRERO, EDELMARIE BOBIS                                0501
A0101404840851520766104PARAGAS, MARILOU                                         0501
B0101406750852687321002NAVARRETE, JERRY MIRANDA &                              11605
B0101406750852687321002COLOMA, FRANCES                                         21600
A0101406750852687321003NAVARRETE, JERRY M AND COLOMA,                          10505
A0101406750852687321003FRANCES ROSALIE                                         20500
B0101405070000000260331SAISEI TAXI TRANSPORT INC.                               1601
A0101405070861367320001WILLIAM LIM & BERNARD BARRERA                            0505
A0101405070000001726096DIESTRA, AMALIA TENDENCIA                                0501
B0101413860000000145286SEA BREEZE LAUNDRY CO. INC.                              1604
A0601400230000003015903ABAD, ARNALDO MAGCALAS                                  10502
A0601400230000003015903OR ABAD, CONCHITA                                       20500
