F0101402060351018863002FIRST PHIL. SKILLS & EQUIPMENT                          12605CKR
F0101402060351018863002TESTING CORP.                                           22600CKR
F0901400220432401539088**********                                               2602CKR
F3101400160221010538002ADVANCED MEDICAL SYSTEMS, INC.                           2620CKR
F3101400320222448311001YABUT, ERNESTO GONZALES                                  2502CKO
F1001400350000000017063MSU-IIT NMPC CARMEN-CDO BR.                              2601CKR
F0101401670271613655001LIM, TERESA KATIGBAK                                     2503CKO
F0101403290461029738001EZRA GENERAL SERVICES INC.                               2605CKR
F0101403290000000542512VECTOR OUTSOURCING SOLUTIONS                            12605CKR
F0101403290000000542512PHILS INC                                               22600CKR
F0101406330472033928003NUTRISENSE INT'L., INC.                                  2604CKR
F3201400190000001493169***********                                              2601CKO
F0101405070861008464002MB PHILIPPINES, INC.                                     2603CKR
