B0101400730111821100608**********                                               2005
B0201401280379821100608**********                                               2005
B0601400650410492000011**********                                               2004
B0601400100000005690593BALIGRILL FOOD CORPORATION                               1605
B0601400100000005690600BALIGRILL FOOD CORPORATION                               1605
A1001400350233042653001BLUE ENERGY RESOURCES                                    0502
A2401400180000002146265**********                                               0503
A2401400180411478374002ROSALINA VILLASAN SANTUA                                 0502
A2401400180000001676913***********                                              0501
A2401400180411625023001PROVIDO, JULIET MAHINAY                                  0503
A0101412050000000323588HARVEY, MARIA ROSARIO NOBLEZA                            0501
A0101407690000005198001ISIP, SARAH MAY ABLANG                                   0501
A0101407690000005197895SALAZAR JR., ROBIN DBU AQA JOUF                         10502
A0101407690000005197895DIAMOND TRADING                                         20500
B0101407690652030767001KING'S HARVEST, INC.                                     1601
B0101407690652042938001SIGNWOOD HARDWARE & LUMBER SUPPLY                        1603
B0101407690000000243832IDESCO CONSTRUCTION AND DEVELOPMENT CORP                 1602
B0101407690652422144001MELENCIO MEDEL OR CORAZON MEDEL                          1603
A0101407690000001919946REBADOMIA, MARIETA - DEALERS OF                         10501
A0101407690000001919946SHOECAT INC.                                            20500
A0101407690652520766022ELVIE GALENDEZ - DEALERS OF                             10501
A0101407690652520766022SHOECAT INC.                                            20500
A0101407690652525001053JOCELYN B. JONOTA - DEALERS OF                          10501
A0101407690652525001053SHOECAT INC.                                            20500
A0101407690000000243810PAGUIO, ANA CARDENAS                                     0502
A0101400860011083529001**********                                               0501
A0101400860011421221001*********                                                0503
A0101400150000005794381PATERNO, JOSE VICTOR PARDO OR                           10502
A0101400150000005794381PATERNO, MA. ELISA                                      20500
A0101400150061329718001ZABALETA JR., JOSE MARIA PONS                           10501
A0101400150061329718001OR ZABALETA, JOS                                        20500
A0101400150000000052980HERNANDEZ, BRENDA SOLIDUM                                0502
A0101400150061547918001TAMAYO, KRIZALDY PEREZ                                   0505
A0101400600000001335717********                                                 0501
A0101413730000003715837************************                                 0502
B0101410850109061568001SCUD INVESTIGATION SECURITY AGENCY                      11601
B0101410850109061568001(SISA) INC.                                             21600
B0101410850109061569001DALLAS INVESTIGATION & SECURITY SERVICES                11601
B0101410850109061569001CORPORATION                                             21600
B0101410850109061570001SECURITY MASTERS INVESTIGATION, INC                      1601
B0101410850109061585002XPVR PROPERTIES CORPORATION                              1601
A0101410560110478374011MARIQUIT A. PAREJA                                       0501
A0101400730111304745001AUSTRIA, ERNESTO CRUZ OR                                10505
A0101400730111304745001EVELYN AUSTRIA                                          20500
A0101400730111386485162DINA F. ALIBIO                                           0503
A0101400730111386702001CARTAGENA, CRISTINA M.                                   0505
A0101400730111412858010LOLITA MANALO                                            0503
A0101401960000000008022**********                                               0502
A0101401960121238895001**********                                               0501
A0101401960000006004411***************                                          0502
B0101400440161027962002CASAYRA CORPORATION                                      1601
A0101401090171199528001ATTY. NICOLAS B. MEDENILLA                               0504
A0101401090171339233001RODELIO OR ROSALINA DE SAGUN                             0520
A0301400530000006477274LUI, LORETO RABI                                         0502
A0301400530000006239461FAELOGO, ROSALIA PRETAL                                  0502
A0301400790000003969360********                                                 0503
B0301400790000002301342MONTEVERDE II, GEORGE MENDEZ DBU GV & HH                11601
B0301400790000002301342MARKETING                                               21600
A0101401380000005320978KIM, WON KAB                                             0502
A0101401380000005219972GABRIEL, FARA FENOMENO                                   0501
A0101410720653039987001BROTHERS3 GASOLINE STATION                               0501
A0101413600000002122321CANTERAS, MARIANNE DBU CANVASS                          10502
A0101413600000002122321PRINTS MARKETING OR DELA                                20500
B3101400160221017871001ALPHA INSURANCE & SURETY CO., INC.                       1602
A3101400450223339499001SUBIJANO JR., ALFREDO SUMAGUE                            0502
A1001400190231274272001****                                                     0502
A1001400190231478374067DAGANATO, NICANORA BALOS                                 0501
A1001400350233777505001CESAR, NEMAS ACERA                                       0501
A1001400480000000041523PO, MARILOU TRAJANO OR PO,                              10503
A1001400480000000041523MAUREEN TRAJANO                                         20500
A1301400470252518432001*************                                            0510
B0101401670271007075002ACS MANUFACTURING CORPORATION                            1610
B0101401670271191081001EAGLECOR, INC.                                           1605
B0101406460272015262001*********                                                1603
B0101406620000000962403GEOWORKS INTERNATIONAL CORPORATION                       1601
A0101406620273284854001JOCELYN LI                                               0501
A0101406620273372591002****************                                         0502
A0101406620273444658001GINA L. JULIANO OR                                      10502
A0101406620273444658001NOLY P. JULIANO                                         20500
A0101411820000001356441MAIDA DONCIRAS BUENO                                     0502
A0101400570281388539054MARIA TERESA T. RODRIGUEZ                                0502
A0101400570281399721002JOFFREY OR JORDAN UY                                     0501
A0101411240000005135922CALLANTA, JUANCHITO DE GUIA OR                          10501
A0101411240000005135922CARBONEL, ARLYN CARAMAT                                 20500
B1101400120313611247001PORMIDA, PRIMO CHU JT                                    1603
A3401400280000003309219ROMULO D. CAPUNONG OR RUELYN C.                         10502
A3401400280000003309219EDUQUE                                                  20500
B0101402350321738079001OLIVAREZ GENERAL HOSPITAL INC.                           1610
B0101402350000000046062OLIVAREZ GENERAL HOSPITAL INC.                           1601
B0101405650000000772652MARY MOUNT SCHOOL                                        1605
A0101402510341471095001QUIETA, JENIFFER GAY                                     0501
B0101402060351009459001CHATEAU VERDE CONDOMINIUM CORPORATION                    1603
A0101409050000002971555OMENGAN, ROWENA RUTH ALCANTARA                           0503
B0101409050352044426001DELTA CONCRETE CORPORATION                               1620
A0201400920000002804480MIRANDA, SAMMY                                           0501
B0101402930381022284001INVESTORS ASSURANCE CORPORATION                          1601
A0101402930000000859770METT MOTIVATIONAL ENGLISH                               10502
A0101402930000000859770TRAINING                                                20500
B0101402930381047467001FLUID SOLUTIONS, INC.                                    1601
B0101402930000000623410R AND C OUTDOOR MEDIA INC.                               1606
A0101402930381205136001NORA LACAP AVILA M.D.                                    0502
A0101402930381381181001BERNARD FAH OR                                          10502
A0101402930381381181001MARIA CAROLINA F                                        20500
A0101402930381478374004ANALIN ARTIOLA                                           0501
A0101402930000003710603RAMOS, MARIE GRACE BADUA                                 0502
A0101408790383671821001ELLEN BALING MENDOZA                                     0501
A0101415350000006940674MASCARINAS, PATRICK ART A.                               0501
B0101402770391025883001DA LEONARDO INDUSTRIAL INC.                              1601
A0101408400394478374066CASTILLANO, VELLA G.                                     0502
A0101408400394550481001FELICIANO, LEONARDO LAPUZ                                0501
A0101408950000000036779GLOBAL PAIN SPECIALISTS, INC.                            0502
A0101408950396566879001******                                                   0501
A0101409180000005326410DONEZA, DENNIS DONELL TAGRA                              0501
A0101409210000002802688JUNGAYA, MARIA REINA MARTIREZ                            0501
A0101409210000003297643EDUARDO CALAMBRO JR.                                     0501
A0101409210000002278839NICOLAS, ZENAIDA INGALLA                                 0501
B0101412210399061583001SEVEN SEAS PROPERTIES CORP.                              1601
B0101412210399061660001NEWMINCO PACIFIC MINING CORPORATION                      1601
A0101412210000001236219RECONALLA, RACHEL GARCIA                                 0501
B2401400180411036926002JY ENTERPRISES, INCORPORATED                             1601
B2401400180411038622002RAK & ACO GENERAL & ALLIED SERVICES                      1603
A0101403030441241013001**********                                               0506
A0101403030441322500001**********                                               0505
A0101412890000002747846SISA, J DBU OYS MARKETING                                0502
B0101403320000000522290FIREBIRD HOME DEVELOPMENT CORPORATION                    1601
A0101403320471206211003MICHAEL JEROME DE VERA                                   0502
B0101406330472040053001KUS OFFICE SYSTEM MFG. CORP.                             1602
B0101406330000000432619INNOVATI INTERNATIONAL INCORPORATED                      1602
A0101406330472215990001DFB GLASS & ALUMINUM SUPPLY                              0502
A0501400170000002357382DE GUZMAN JR, JOSEFINO MOULIC                            0504
B0501400170000001072968PCCI FINANCE CORPORATION                                 1601
A0501400170481318580005ANA CRISTINA L. SINLAO                                   0510
A0701400260000005303713EVANGELISTA, EDUARDO ERNESTO                            10502
A0701400260000005303713ALMEDA                                                  20500
A0101403580511156550002SARITA S. GARRATON                                       0503
A0101403580511156576001NIDAN E. ALBA                                            0502
A0101403580511327851001MARIETA G. DEL ROSARIO                                   0501
A0101403580511775206001NILA P. DACANAY                                          0501
A0101405940000007298471OCENAR, MARY AIMEELYNNE GARCIA                           0501
A0101405940000007298511BISNAR, DYNA ELOSORIO                                    0501
A0101405940000007298540DELA CRUZ, BEN JORDAN YAO                                0501
A0101405940000007298562CASEDO, LILIBETH MEDALLON                                0501
A0101408530516487118001ADVINCULA, LEONARDO CASTILLO                             0501
B0101411400000002639701ELENA E. AMON                                            1601
B0101411790000004808082PDB PROPERTIES, INC.                                     1602
A0101403450521238152002**********                                               0506
A0101403450521238948002CATUNGAL, JONATHAN                                       0501
A2201400250000001066017CAROLYN GO KE                                            0501
A0101410690000003027636BALIAO, JOVITA LINGGON                                   0502
A0101404130601450078001ROBERT B. OCANA OR                                      10502
A0101404130601450078001MARJORIE OCANA                                          20500
B0101407720602007039001TRINITY WOMAN & CHILD CENTER                            11605
B0101407720602007039001THE BIRTH PLACE                                         21600
B0101407720602018196003BELO MEDICAL GROUP, INC.                                 1610
B0101407720602029713001MMC - SECTION OF NEUROLOGY                               1602
A0101407720602200210001EDITHA C. DIZON                                          0501
A0101407720602343284001MARY ANGELINE RECTO OR                                  10501
A0101407720602343284001RODRIGO RECTO JR                                        20500
A0101407720602479774001JOSE MARIA L. ANSON OR                                  10502
A0101407720602479774001MA. CECILIA D. A                                        20500
B0101407690652008210001AERO COOL SYSTEM                                         1602
A0101407690652517989001FLORANO, GUILBERTO COYOG                                 0504
A0101407690652786467001MADRONO, BENJAMIN PLAZA                                  0502
A0101411530000006217574MOMMY & ME ENTERPRISES                                   0503
A0101413440000002629241APILADO, MARYFLOR ILAGAN                                 0501
A0101413570000003379908CABANIG, MYRA MELAYA                                     0501
A0101413570656057648286AMELIA VILLAMOR                                          0502
A0101413990000005252573OLIVEROS, MORYULA GERU M. OR                            10503
A0101413990000005252573OLIVEROS, JEROME D.                                     20500
A0101413990000003141168PASCUA, JERICKSON LOUIE TAN                              0502
A0101410300000000026520BANTIGUE, JOHN PAUL P. AND ESQU                         10503
A0101410300000000026520IVIAS, JOAQUIN P                                        20500
A1301400500000000213265VINCENT P. JAVIER OR                                    10505
A1301400500000000213265TERESITA F. JAVIER                                      20500
A1301400500684061591001S.A DEL POSO TRADING                                     0501
A1301400500000003070082ROMEO S. CASTRO OR REYNA ANN                            10501
A1301400500000003070082C. REYES                                                20500
A1301400500684593688001DEL POSO, SALVADOR A. OR                                10501
A1301400500684593688001DEL POSO, GLORIA                                        20500
A1701400230693478374078GALVEZO, AVELINA GACAYON                                 0501
A0101408240000006600033BINGABING, LEO LIBUIT OR                                10501
A0101408240000006600033BINGABING, CHARITY DUNCIL                               20500
B0101408240000000005596SILAYSANDIEGO LENDING INVESTOR, INC.                     1602
B0101408240000000832962CARMEL LAND SALES & DEVELOPMENT CORP.                    1610
A0101408240711381561003MARY TERESITA M. DE JOYA                                 0503
A0101408240711443671001CARMENCITA C. GUIAO                                      0501
B2801400100000004560025MONTEONE CONSTRUCTION CORPORATION                        1605
A4101400550000001332570SANTIAGO, MARY GLENDA ENCABO                             0503
A4101400550815737397001PIQUERO, EMILY FERNANDO                                  0502
A0101412340000005496648ALDRIN C. AVENIDO                                        0501
A0101404840000000475952GONZALES, ROWENA POLLICAR                                0502
A0101404840851046725013MARY JANE A. DE GUIA                                     0501
A0101404840851520766075THELMA F. DURAN                                          0501
A0101406750000000017490SESE, ALDEN ANTHONY DIZON                                0502
B0101406750000000090560NATURESCAPE SERVICES INC.                                1610
A0101406750852478374065MARIVEL L. MANGUERRA                                     0502
A0101405070000000186430GANTALA, OSCAR RENTUZA OR                               10501
A0101405070000000186430GANTALA, JONMILLE L.                                    20500
B0101405070000000428911INTERNATIONAL FREIGHT FORWARDERS PHILS                  11603
B0101405070000000428911INC.                                                    21600
