A3101400740000000013845REYES, ROBERT ZAMORA                                     0501
A0101409050000000022420JERGEN B. MACUJA                                         0502
A0101406880000000027067ESQUIVEL, GARY NOBLE                                     0504
A0101406460000000182603LIM, CARLITO TAN                                         0502
A0601400360000000225352TULABOT, BENEZA CENIZAL                                  0502
A0101408400000000471221PAUNTE, LAILANIE DIRAMPATUN                              0501
A0101406590000000568758BAUCA, MYRA MEDRANO                                      0501
A0101408400000000607710****                                                     0501
A0101406880000000745051WU, YAMIN                                                0501
A0101412180000000908390LIM, LEA YAP                                             0502
A1301400210000000915851DARCEN, DIANA INGENTE                                    0501
A1301400210000000915862NAVARRO, EMMANUEL REYES                                  0505
A0601400230000000990052DAYAO, MARIBEL MASIBAC                                   0501
A0101401090000000993375CARPIO, MARITES AGUBA                                    0501
A0101408240000001038846AMORANTO, ROMMEL RODRIGUEZA                              0501
A6601400120000001065372CABILI, JULIUS MICHAEL MACAMAY                           0501
A0101413990000001406342CASTRO, ROMMEL VILLAROSA                                 0501
A0101400150000001422315SAMONTE, HARVEY DAVE FITELO                              0501
A0101400440000001440000LAPASARAN, MARY GRACE FRANCISCO                          0501
A0101408400000001614751ANGLON, JIMMY LANGURAYAN                                 0501
A0101403320000001646880*********                                                0501
A2801400230000001782050MALINAY, AUGUSTUS MONTEVIRGEN                            0501
A0101403320000001803123CHAN, CHUN WAH JOHN                                      0501
A0101403320000001803463LAJOM, MARY CHRISNA CABIERA                              0501
A0101410560000001944141VALERIANO, EMALYN ESTREMOS                               0501
A0101400860000002333455************                                             0505
A0101405490000002880700ANGELA NIEVES A. SARMIENTO                               0502
A4101400260000002888391NOLASCO, VIVIAN LADA                                     0502
A0101404130000003181382BUERANO, NESTOR ALDAY                                    0501
A0301400950000003249916HERRERO, SAMANTHA JANE CANETE                            0501
A6601400120000003642846FLORESCA, MANOLITO ESTERNON DBU                          0505
A0101408110000004868880AMOS, CHRISTINE PENAMANTE                                0501
A0101408110000004868915BAUTISTA, ELAINE SANTOS                                  0501
A0101408110000004868937CONANAN, GENALIN LACONSAY                                0501
A0101408110000004868960DELA CRUZ, MONACARLA VELOSO                              0501
A0101408110000004868993DOMOGMA, FERDINAND MAKAYAN                               0501
A0101408110000004869047FERMO, FERNANDO GRAVADOR                                 0501
A0101408110000004869070HILADO, JEAN ROSE LIBO-ON                                0501
A0101408110000004869105JUDAN, MELISSA ANNE RAMIREZ                              0501
A0101408110000004869116LAPENA, MA. VICTORIA MARA                                0501
A0101408110000004869138LIM, EVANGELINE AMANSEC                                  0501
A0101408110000004869161LIM, SIOW HUI                                            0501
A0101408110000004869183LIPARDO, MARY ANN RONQUILLO                              0501
A0101408110000004869190MIRA, LORNA SAN MIGUEL                                   0501
A0101408110000004869207MOLINA, ANA MARIE MANGALILE                              0501
A0101408110000004869229ORTIZ, DARWIN MENDIOLA                                   0501
A0101408110000004869241PENAMANTE, CESSIL RIVERA                                 0501
A0101408110000004869252SANTOS, FERDINAND CHUICO                                 0501
A0101408110000004869263SANTOS, KAREN ROSE ALEJADO                               0501
A0101408110000004869270TIANSAY, MA. CARMEN SERRANILLA                           0501
A0101408110000004869281ZAMBRANO, JAIME FAUSTINO                                 0501
A0101400150000004885076AQUINO JR., NELSON STO TOMAS                             0501
A0101400150000004885087BALINGIT, NINO ROQUE                                     0501
A0101400860011035923001**********                                               0502
A0101400860011047935001************                                             0501
A0101400860011467833002**********                                               0503
A0101400860011478374003**********                                               0502
A0101400860011653651001**********                                               0502
A0101400150061309480001BITANTES, HERBERT BAUTISTA                               0501
A0101400600071233721001**********                                               0502
A0101400600071478374007LABRADOR, JOVIE R.                                       0501
A0101401960121240773002************                                             0501
A0101400440161478374144CELERINA M. MARASIGAN                                    0501
A0101400440161525001033MARY JANE V. MACALINAO                                   0501
A0101401090171196331001ANTONIO A. ESPEJO                                        0503
A0301400530193047254189TAGUM TRIO LUMBER CORP.                                  0510
A0101401380201561182001ACOTANZA, EDITHA SINCHONGCO                              0502
A3101400160221041646001FLA-BELL TRUCKING SERVICES                               0503
A1001400190231478374178SANCHEZ, MELORY                                          0501
A1001400190231509590001LAGUYAN, ENGRACIO SALONA                                 0503
A0101401670271188489001CARMEN C. LIM                                            0502
A0101406460272289071002********                                                 0501
A0101406460272298552014ELMA BERNARDINO                                          0501
A0801400160311478374102MA. CECILIA A. AVANCENA                                  0501
A0101405650322478374002MAVIS W. PAREJA                                          0503
A0101402510341395239001PATRICIA W. YAM                                          0502
A0101408400394478374090MARY DUMASLAN                                            0501
A0101408400394478374090MARY DUMASLAN                                            0501
A5501400120410691845008INOCENCIO, ELLAIN MARGARET M.                            0503
A2401400180411478374035MERLINDA D. TAMUDTAMUD                                   0501
A2401400180411478374059ANALITA R. SUICO                                         0501
A0101407430503200603001CRISENCIO M. CABANDONG                                   0502
A0101407430503376232001REGIE DE GUZMAN CALAHATI                                 0501
A0101407430503478374017RIC L. ABADIANO                                          0502
A0101406880513571409001ARCILLA, AURIETTA MINDANA                                0501
A0101408530516571877097JESUS R. LICUANAN                                        0501
A0101411790518086259001BANDAY, CELESTE EDULLANTES                               0501
A0101403450521343745001*******                                                  0501
A0101403450521474896001********                                                 0501
A0101404130601451661001CHUA, RUBILIE AIDA S.                                    0501
A0101413570656057648178KERVIN NAVARRETE                                         0501
A1301400340683559768002YU, ARIELLE CRISTINA CLEMENTE                            0510
A4101400260812423341001ESTEFANIA B. RANDOY                                      0505
A4101400260812596576001ROMEO L. FRANCISCO                                       0502
A4101400390813478374059CUEVAS, MERIAM                                           0501
A4101400550815047552003DR. GASPAR MONTENEGRO                                    0501
A0101404840851046725013MARY JANE A. DE GUIA                                     0501
A0101404840851478374012SAPORNO, ANNABELLE G.                                    0501
A0101406750852478374118RUBY FLAVIER                                             0501
A0101406750000001491823VILLA-CUTAMORA, SHERRILYN DBU                           10503
A0301400950000002115388CARMONA, JHENA MARIE M. OR                              10502
A0101413440000002339653VASWANI, ROBERT or VASWANI,                             10501
A0101408110000004869218NALUZ, MICHAEL ANGELO                                   10501
A0101408110000004869230PECSON, MARIA VICTORIA                                  10501
A0101401090000004886400SANTOS-LUGA, MARIA LOURDES                              10501
A0101409050352600066001FAYE CARLIE TUAZON OR                                   10501
A0501400170481046585003ANG, JUSSLYNN DBU AVS                                   10502
A0101405940512634442001LA-O JR., TOMAS CARMEN OR                               10502
A2201400250561478374010ZENAIDA L. REYES                                        10501
A2201400250561478374052MA. CECILIA S. SORIANO                                  10501
A2201400250561478374066MARY ROSE C. ALFONSO                                    10501
A0101409920650478374005CRISOSTOMO, MA. EMELIA GASPAN                           10501
A0101407690652478374123LEONORA CASTROVERDE - DEALERS                           10501
A0101407690652520766005GILNNA M. MALIGAT - DEALERS OF                          10501
A0601400230891533093001DE VERA, RANDY ESPINOZA OR                              10501
A0101406750000001491823DENTAL HAVEN REHAB AND DE                               20500
A0301400950000002115388CARMONA, HEINTJIE M.                                    20500
A0101413440000002339653SHARON M.                                               20500
A0101408110000004869218VILLASANTA                                              20500
A0101408110000004869230CASTANEDA                                               20500
A0101401090000004886400ESGUERRA                                                20500
A0101409050352600066001BENSON RYAN CRUZ                                        20500
A0501400170481046585003DISTRIBUTION CENTER                                     20500
A0101405940512634442001LA-O, LILIBETH C                                        20500
A2201400250561478374010MEMBERS OF NATAS                                        20500
A2201400250561478374052MEMBERS OF NATASHA                                      20500
A2201400250561478374066MEMBERS OF NATASHA                                      20500
A0101409920650478374005MEMBERS OF NATASHA                                      20500
A0101407690652478374123OF SHOECAT INC.                                         20500
A0101407690652520766005SHOECAT INC.                                            20500
A0601400230891533093001DE VERA, CHONA D                                        20500
B0101411370000000018000AIO MANAGEMENT SERVICES SOLUTIONS INC.                   1601
B0101411370000000018113CICC BUSINESS CONSULTANCY INC.                           1601
B0501400170000000018351KAINAN NI MANG PEPING INC.                               1601
B0501400200000000035710GOLDEN DRAGON MOTOR SALES CORP.                          1601
B1601400170000000036148NEW VICENTE DY ENTERPRISES, INC.                         1602
B0101406040000000096640LINKEN-EXIN TRADING CORPORATION                          1602
B0101400440000000337860SEACHON, JOSEPH CLEMENTE                                 1601
B0301400950000000566945BIG Z QUALITY FOODS CORPORATION                          1605
B0101400730000000659649AMITY MARINE DOCUMENTATION SERVICES                      1604
B0101406460000000712805HEALTH CUBE GREENHILLS INC.                              1602
B0101404000000002799797DEVELOPER SYSTEMS CORPORATION                            1602
B0601400360000003186703GOLD TREE IMPORT AND EXPORT INC.                         1603
B0101401250021040371001ENHANCE CARGO MOVERS CORP.                               1610
B0101400150061010613001SECURITY BANK EMPLOYEES UNION                            1601
B0101400150061039626002MENZI & CO., INC.                                        1602
B0101400150061040150001OKEELANTA CORPORATION                                    1604
B0101400150061040665002SOUTH PACIFIC INTERNATIONAL MARBLE                       1601
B0301400530193641218168********                                                 1602
B3101400450223037708001RD CASH PADALA, INC.                                     1603
B0801400160311494221001JUCABAN, LEO LAGOS                                       1601
B0101402350321037708001RD CASH PADALA, INC. - PARANAQUE CITY                    1603
B0101405490392019217001SHEMA RESOURCES, INC.                                    1602
B0101403320471022749001LES SACS MANUFACTURING                                   1602
B0501400170481018109002****                                                     1604
B0501400170481025398002****                                                     1602
B0101406880513036413001VISAYA KNOWLEDGE PROCESS OUTSOURCING                     1604
B0101408110515017881005GROUP MANAGEMENT CORPORATION                             1602
B0101403450521078888003PUREGOLD PRICE CLUB, INC.                                1620
B0101407430000000035247PNC GARNET PROPERTY HOLDINGS                            11602
B0101401830000000060022CARITAS SALVE CREDIT COOPERATIVE                        11603
B0101406750000000480922HIJAZI, ADNAN ADEL AND ARABIA, RHOSDEE                  11601
B0101405650000000772703BASE SECURITY AGENCY & INTER - INV. INC.                11604
B0601400100081675425001VIRTUAL LANDHOLDINGS DEVELOPMENT GROUP                  11601
B1301400210682038666001EMERALD MANAGEMENT SERVICES &                           11601
B2801400100712024577001PHILIPPINE COASTAL STORAGE AND                          11605
B0101407430000000035247CORPORATION                                             21600
B0101401830000000060022(CUBAO 011)                                             21600
B0101406750000000480922BASHIER                                                 21600
B0101405650000000772703BSAI                                                    21600
B0601400100081675425001CORP.                                                   21600
B1301400210682038666001CONSULTANCY                                             21600
B2801400100712024577001PIPELINE CORP.                                          21600
