F0101401960121240982002**********                                               2503CKO
F0101408110515050646003**********                                               2605CK1
F3301400120581552659002**********                                               2603CKR
F3201400190000001493045DR. ROMEO P. PIRA DBU PIRA CLINIC &                     12603CKO
F3201400190000001493045HOSPITAL                                                22600CKO
F0201400180181041625001CEBU HYBRID FARMS CORPORATION                            2702CKC
