B0101412920000015418712CAPULONG, NOEL CRUZ AND CAPULONG, KAREN                 11601
B0101412920000015418712DELA ROSA                                               21600
A0101405650000012457277ABOTANATIN, FILIPINA CALDA OR                           10502
A0101405650000012457277ABOTANATIN, ARNEL HAGOS                                 20500
A0101410300000004361631TANBONLIONG, PATRICK JUSTIN OR                          10501
A0101410300000004361631TANBONLIONG, TER                                        20500
A0101410300000006278420JUAN, MALONE ONG                                         0501
A0101410300000006278642LITONJUA, KYLE RANDELL MORENO                            0501
A0101410300000006278686CO, EDRICK KESTER TRESICO                                0501
A0101412630000000909735SANTIAGO, JENNYVIE ERIKA GOMEZ                           0501
B0101410300663054721001KAPISANAN NG MGA MANGGAGAMOT NG QUIRINO                 11601
B0101410300663054721001MEMORIAL MEDICAL                                        21600
B0101410300000000191688TRIOSTRATA LAND, INC.                                    1601
A0101410300000013366202SAMALA, LLOYD ANGELO JIMENEZ DB                          0501
B0101400150000011138199EVIDENT STRATEGIC RESEARCH AND                          11604
B0101400150000011138199CONSULTING INC                                          21600
A0101400150000000525422ORDIZ, ARLENE CASTILLO                                   0501
A0101401090000016596200SARAGAL, JULIUS WENDELL OR                              10501
A0101401090000016596200SAGARAL, MARIA ZAIRA                                    20500
A1101400120000000652788PRIMER, HERMINIA AZUCENA                                 0501
B0101408950000006424893PALLCARE INC.                                            1602
A0101404840851217637064CESAR D. CO                                              0501
A0101401250001100002716LUBAO, ELYN ILAO                                         0501
A0101401250920010000293MACDON, ANGELITO PILAR                                   0501
A0101411370000005524421BATUIGAS, AURORA REBOQUIO                                0501
A0101400150000012146206FRAGANTE, SOCORRO PROTACIO                               0501
A0101400150000003164058FATIMA S. DE MESA                                        0501
A0101400150000016108291PASCUAL, RIA                                             0501
A0101400150061074546003FERNANDEZ, ROY JOSEPH SALDUA                             0501
A0101400150061088084001ADZUARA, ELOISA TANECA                                   0501
A0101400150000011138560NEVADO, MARIA CRISTINA ORTEGA                            0501
A0101400150000014853433ACEVEDO, CERMINE MARANAN                                 0501
A0101405810000015531183**********                                               0502
B0601400100081029282001L5 & SONS FINANCING CORP.                                1610
B0601400360083787720001PISHON CLARK PHILIPPINES INC.                            1603
A0601400520000001349560MAGAT, ALLAN MANLAPIG DBU MAGAT                         10501
A0601400520000001349560ACCOUNTING FIRM                                         20500
A0101413280000000312643CARLOS R. ATAYDE OR                                     10501
A0101413280000000312643CARMEN M. ATAYDE                                        20500
B0101413730000006042422HI-TOP MERCHANDISING, INC.                               1601
A0101414090000003314843VILLANUEVA, KENNETH BAYLON OR                           10502
A0101414090000003314843VILLANUEVA, JO-AN                                       20500
A0101410850000013666550MINGI, JULIE ANN REYES                                   0501
A0101400730111478374112STO DOMINGO, CONSTANCIA                                 10501
A0101400730111478374112CHARLENE                                                20500
A0101406040000010081420********                                                 0501
B0101406040000001392041********                                                 1603
A0101406040000014388577DAVID, CASEY ANNE PASCO                                  0505
A0101406040112493394001JOSE V. CARANTO JR.                                      0503
A0101412630000007158172STA. CRUZ, CONCEPCION LAZARO                             0501
A0101412630000009425145TAGAMOLILA, KEVIN DWAYNE B.                              0502
A0101401830141409771001ALRIC P. BOBO                                            0503
A7201400170000011454390ANDIGON, GINA NANO OR                                   10501
A7201400170000011454390ANDIGON, JESSIE MUNDO                                   20500
A0101400440000011310180RANILLO, HELEN RONATO                                    0502
B0101400440000000337762SUPREME COMMANDER INVESTIGATION AND                     11610
B0101400440000000337762SECURITY AGENCY                                         21600
A0101400440161525001104EVELYN G. GARCIA                                         0501
A0101407270000016609513DOLOR, JOSE PALARUAN  DBU                               10501
A0101407270000016609513WINNERGIZE INTERNET SHOP                                20500
A0101401090171765676001JAVATE, KENNETH ROSS PAMINTUAN                           0501
A0301400530000003087392MANGARON, GLORIA LAGRAMA                                 0503
A0301400950000013857231**********                                               0501
B0101401380201034155001TINOLEY DIGITAL PHOTOGRAPHY INC.                         1605
A0101410720000000967922MARIA EDUVIJES ANASTACIA M.                             10501
A0101410720000000967922CASTRO                                                  20500
A0101410720000012557363BELLEN, NERISSA MAY MURCIA                               0502
A0101413600000008442591SARAH E. TIMBANG                                         0501
B0101413600000002822653PERSONAL COLLECTION DIRECT                              11601
B0101413600000002822653SELLING, INC.                                           21600
A3101400450000016118524ALIP, JUMLEO AERNELL FELISMINO                           0501
A3101400870000016618890MANUEL, GEORGE ILLIOH E.                                10501
A3101400870000016618890AND MONTERO, ANECITA A.                                 20500
A3101400870000011244196**********                                               0501
A3101400870000005565335ESTRAVO, EULALIA MAGPAYO                                 0502
B3001400130000000910351HIDALGO, ELBERT ANTHONY V AND OCCIDA, RA                11601
B3001400130000000910351NDYLLE SHANE B                                          21600
A3001400130000010813453BRIONES, MARISSA ADARLO                                  0501
A1001400190231520766019GO, JUDITH SATURNO                                       0501
A1001400190000000016457ANTIGA, LUNITA                                           0501
A1301400760000005990003ROWENA D. ALVAREZ                                        0503
A1301400760000014114482DORY MARTIN SANTIAGO                                     0502
A1301400760253087654001CATHERINE F SANVICENTE OR                               10505
A1301400760253087654001VINCENT PAUL SANVICENTE                                 20500
B1901400290000001363188RD PAWNSHOP, INCORPORATED                                1606
A1901400290000000030800JMARK MICROCREDIT CORPORATION                            0505
A1901400290261515482001MA. CARMELA S LOISAGA                                    0501
A1901400290261585775001LITA CUETO MENDOZA OR DORIS                             10502
A1901400290261585775001MARIE MENDOZA MEDINA                                    20500
A0101401670000007555613*******                                                  0501
A0101401670271186217002ERNESTO L. PILARES OR                                   10502
A0101401670271186217002ALICIA L. PILARE                                        20500
B0101406620273021176001MERCURY SYSTEMS CORPORATION                              1601
B0101406620273031145001KOHL INDUSTRIES CORPORATION                              1603
A0101406620273215629001PATRICK G. SANTOS OR                                    10502
A0101406620273215629001MONICA S. SANTOS                                        20500
A0101406620273720692001******                                                   0502
A0101406620000004926052DE GUZMAN, ROSARIO OR DE GUZMAN                         10501
A0101406620000004926052CARLA OR DE GUZM                                        20500
B0101408660000013610882CHEEZCAKE COMPANY, INC.                                  1601
A0101408660000006296622ARANETA III, VICENTE MARTIN OR                          10501
A0101408660000006296622JOAN MARIE C. ARANETA                                   20500
A0101410980000002303811NG SUY, PATRICK ANG                                      0501
A0101412470000000520130FLORES, GINA CRUZ                                        0503
A0101412470000000853834CHUNG, EUN JOO                                           0502
A0101400570281527773001CARANDANG, RICHARD DANTE LOPEZ                           0501
A0501400200000014231000ROSARIO, RAYMUND DAZ OR                                 10502
A0501400200000014231000ROSARIO, CECILLE SANCHEZ                                20500
A0501400200000013602465BARROZO, RAYMOND TAURO                                   0501
A2601400270000011826921CARREON, GREMA ADONA                                     0501
A2601400270000012492490RENEO B. TOMINES DBU RENUS GRAI                         10503
A2601400270000012492490NS CENTER OR CHRISTINE D                                20500
B1101400120000000652442GICABAO, KATHLEEN JOY NG OR GICABAO, BON                11601
B1101400120000000652442GKOK CHAN                                               21600
A1101400120000000652493BELETA, REBECCA OBAOB OR BELETA                         10505
A1101400120000000652493, AMADEO BELETA                                         20500
A1101400120000000992372DONGHIL, ERNILO DINOY OR DONGHI                         10501
A1101400120000000992372L, MAJARANIE CABAHUG                                    20500
A1101400120000001547235DUGANG, JESSA EBIT                                       0502
A1101400120000000652351YAO, RONALD PHILIP GO                                    0502
A6601400120314770822001SY JR., LARRY OR SY, WILLIAM                             0502
A2001400290315636761001VILLABERT, WINSTON TAN OR                               10506
A2001400290315636761001VILLABERT, MARIT                                        20500
A0101402350321685475001WANG, JONG - TING                                        0502
A0101405650000009768176MARTIN, MARDY DE LEON                                    0502
A0101405650000012457222AMANTE, EDGAR                                           10501
A0101405650000012457222OR AMANTE, MA. THERESA                                  20500
B0101405650322035899001CROWN ASIA SALES SPECIALIST, INC.                        1605
A0101405650322795081001VICENTE OR TERESITA VALDEZ OR                           10501
A0101405650322795081001VALDEZ JR., VICENTE                                     20500
B0201400760000011325447PILIPINAS PRECIOUS METAL RESOURCES                       1602
A0201400920375520766002NOVAL JR., ALVIN                                         0501
A0201400890376763623001BELO, EDWARD JOHN DENNIS R. OR                          10502
A0201400890376763623001BELO, TERESITA L                                        20500
B0201401020000005110001HERITAGE 1963 INC.                                       1610
A0101402930381080348001FERNANDEZ, ESMERALDA CASTRO                              0501
A0101402930000007030888LIM, EDWARD PANTILO                                      0501
A0101408790000010423319SANCHEZ, CHRISTOPHER L.                                  0502
A0101411660000014676772SABULAO IV, ATILANO CRUDA                                0502
A0101402770000002267212ONGKEKO, FREDERICK SAYSON                                0502
A0101402770391028626002RED ELEPHANT TRADING                                     0502
A0101405490000014676943MAXIAN, JORDAN DELFIN                                    0502
A0101408400394479058001PACALUNDO, JONAIDA                                      10501
A0101408400394479058001OR PACALUNDO, MAMINTAL                                  20500
A0101408950000008554263ORTIZ, TERESA LIBDAN                                     0502
A0101408950396398206001FRANCISCO VICENTE F. LOPEZ                               0502
A0301400820000010546357CAMEROS, CIRILO G.                                      10501
A0301400820000010546357OR CAMEROS, ELSA D.                                     20500
A0301400820000010907190TAN, ALEC JAY G.                                         0502
B0301400820000005196669BANSALAN MEDICAL CLINIC &                               11601
B0301400820000005196669HOSPITAL, INC.                                          21600
A2401400180000012748517**********                                               0502
A1201400150000013168708PAWID, REBECCA BANGTEGAN                                 0501
B1201400150421023348006PINES CITY BAPTIST CHURCH, INC                           1602
A1201400150000000034437YSIT, EFRAIM TANDOC                                      0501
A1201400150421459509001TEE, CHITO LAYUGAN                                       0502
B0101403030441303194001**********                                               1605
B0101403030000005327657*********************                                    1603
A0101403030441660281001**********                                               0503
A0101412890000011812985SERAFIN, RHEGEL RAAGAS                                   0501
B0101403320471008859001NEW LITE LUMBER & CONSTRUCTION                          11602
B0101403320471008859001SUPPLY                                                  21600
B0101403320471020319001LORD OF THE NATIONS, INC.                                1605
B0101403320471020319002LORD OF THE NATIONS, INC.                                1602
B0101403320471043408001G TECH DENTAL LABORATORY INC.                            1601
A0101403320471196100001CECILIA FERNANDEZ OR                                    10501
A0101403320471196100001DANTE FERNANDEZ                                         20500
B0101406330472046636001ENERTECH SYSTEMS INDUSTRIES, INC.                        1610
A0101410140000010760368BATANGANTANG, MA. ASTRUDE ZARAG                          0503
A0101412760000002067603BAWAR, MARIA THERESA DIZON                               0501
B1901400320000000041301FIRST INNER TRADE CREDIT CORPORATION                     1610
B3801400170000000955131VIC IMPERIAL APPLIANCE CORPORATION                       1603
A1901400160000014655542DRA. JENNIE A. OPULENCIA                                 0501
A1901400160000016565436AMBIDA, ALTHEA SAUSA                                     0501
B1901400160491012898001BNHS - TEMCO                                             1602
A1901400160491298552008VILMA F FALCUNAYA                                        0502
A1901400160491298907001SANTISIMA B HERNANDEZ OR                                10502
A1901400160491298907001MARIE JANE H VINAS                                      20500
A1401400110000011337692CUETO, PABLITO MATIRA                                    0501
A1601400170000012410665YAP, LESLIE APULI                                        0501
A0701400260000014878023CASILI, JUVY PEREZ                                       0501
A0101407430000000521111ROBERTO L. NERI II                                       0501
A0101405940512534017001MARCELO, RONIE DEMAPANAG                                 0501
A0101408530516571877097JESUS R. LICUANAN                                        0501
B0101403450521024597001**********                                               1602
B0101403450521029025001CEDARSIDE INDUSTRIES, INC.                               1602
A2201400250561087470001ANA MARIA B. AGAPITO OR ANTONIO                         10501
A2201400250561087470001T. AGAPITO                                              20500
A0101410690000005383473ALCANTARA JR., RENATO SAHAGUN                            0502
A0101404130000015207202PINPIN, JOSE ANDREW ABERGAS                              0501
B0101404130601022494001CARE BEST INTERNATIONAL, INC.                            1602
A0101404130000001173615KING, ARTHUR CELESTINO                                   0501
A0101404130601595494088GO, ANTHONY LIM                                          0502
A0101407720602341866003SONGCO, JAIME STO. DOMINGO                               0502
A0101407690652520766005GILNNA M. MALIGAT - DEALERS OF                          10501
A0101407690652520766005SHOECAT INC.                                            20500
A0101407690652609264004AUGUSTO DE JESUS OR                                     10501
A0101407690652609264004MILA DE JESUS                                           20500
A0101411530000011424712ORDONO, REX FROILAN OR                                  10501
A0101411530000011424712ORDONO, JOANNA MARIE                                    20500
A0101413440000014087602HARUHI KITCHENETTE                                       0502
A0101413440000002125393ORMIL ENTERPRISE                                         0502
A0101413570000015446525OLIVEROS, JEROME OR                                     10501
A0101413570000015446525OLIVEROS, MORYULA GERU                                  20500
A0101413570000013246236MIRANDA, EROL                                            0501
A0101413570000001069443**************                                           0501
B0101413570000003580749MORALES, EMIL T. DBU DMD PHOTOGRAPHY                     1605
A0101413990000010422101GAETOS, JOHN ALLYSIUS DUCAY                              0501
A0101413990657068745001CLORES, RICARDO R. DBU                                  10505
A0101413990657068745001SAMUEL JOSEPH STORE                                     20500
A0101414120000011289031ERLANO, GLENN MENDOZA                                    0501
A0101410300000007614151LAZO, MA. OLIVE PUZON                                    0501
A0101410300000000026462SYCIP,JOHN CARLOS/BANTIGUE,JOHN                         10510
A0101410300000000026462PAUL/ESQUIVIAS,J                                        20500
A1301400340000013760982BRAZA, CATHERINE NICOLAS                                 0502
B28014001000000001883631 AIMHIGH SECURITY AGENCY INC.                           1610
A2801400100000006977384RAINERI, CHERRY DAVE SAAC DBU W                          0501
B2801400230713045988001NGE TRADING                                              1602
A4101400260000015859075SAHAGUN, ROJANNAH TAYO                                   0501
B4101400260812012643001KUM KANG CERAMIC PHILS. CO., INC.                        1603
A4101400260812478374005JENITA Z. PALLE                                          0502
A4101400260812519502001APOSTOL, JESSIE BOY MARTINEZ                             0502
A4101400260000000048720UBANOS, ELIZABETH CASIMERO                               0501
A4101400550000006044435PARTOSA, ERMILITA MACABUTAS                              0501
A4101400550000002091021PIYEZA MOLINO AUTO PARTS                                 0501
A0101412340000004360536MARY ANGELA C. QUERUBIN                                  0501
A0101404840851520766065TAYSON, FERNANDO                                         0501
A0101405070000002282117CAPOQUIAN, JORDAN NANAG                                  0501
A0101405070861027133001WORLDLINKS CABLE WORKS                                   0502
A0601400230000014575687CKD FOOD ENTERPRISES                                     0502
