A1201400150421485874001FLORES, CHIARA MAE FAROL OR                             10502
A1201400150421485874001FLORES, GLENLIEL                                        20500
A0101400150061227971001FELIPE  BAUTISTA                                         0502
A0101400150061396548001ALIMURUNG, BENJAMIN N. OR                               10501
A0101400150061396548001ALIMURUNG, ALICE                                        20500
A0601400100000000786541GRANIL, ELVIRA CRUZ                                      0501
B0601400100081034116001FIESTA COMMUNITIES INCORPORATED                          1610
B0601400100000000032806BLU BLAZE GAZ HAUS                                       1602
B0601400100000000032760RDF FEED, LIVESTOCK & FOODS, INC.                        1610
B0601400100000002099330RDF FEED, LIVESTOCK & FOODS, INC.                        1610
B0601400360083037368002CLARK INVESTORS AND LOCATORS ASSOCIATION                11601
B0601400360083037368002(CILA)                                                  21600
B0601400360083037368003CLARK INVESTORS AND LOCATORS ASSOCIATION                 1601
B0601400360000003186792SAMBON P&E PHILS. CORP.                                  1601
A0101413730000000144578**********                                               0501
A0101414090000000648493*******************                                      0502
A0101414090000006211472ADANG-AS, FELICLAIRE MANGIBAT                            0503
A0101400730000011297608CARLO E. BATUNGBACAL                                     0502
A0101401960000004419830**********                                               0501
B0101413310000000039978LIBERTAD TRADING CORPORATION                             1601
B0101401830141069176001DEL VALLE, PEPITO DBU VIPECK                            11601
B0101401830141069176001GRAPHIC DESIGNS                                         21600
A0101401830141528394001GONZALES, ALDWIN SEBASTIAN                               0503
A0101412920000018683857ICABALES, ANNA PATRICIA DBU                             10501
A0101412920000018683857RAVID VIDEO PRODUCTIONS                                 20500
A0101401090171346433001CLAUDILLO B. BAGADIONG                                   0501
A0301400530000001409694ALIADO SR., JIMMY M.                                     0502
A0301400530000014269571CAUBE, JOENRIE  DBU J AND G                             10506
A0301400530000014269571MARKETING AND OS                                        20500
A0301400530193504844111NEO, MARY LORRAINE LIAO OR NEO,                         10506
A0301400530193504844111IAN CUYACOT                                             20500
A0301400950000013857311SOBERANO-PARROCHA, MARIA JOMAH                           0501
A0101401380000001412640AQUINO, CHARITO MENDOZA                                  0501
A0101401380201079813001CHOI, JIANN                                              0505
A0101413020000000880422LIM-ESTOROSOS, VICKYLYN CHUA                             0501
A0101413020000000056999SOMBILLO, A DBU THE K-CAMP                              10503
A0101413020000000056999TUTORIAL & REVIE                                        20500
A0101410720000008730774PASCO, ANNALIZA ALCANTARA                                0502
A0101412500000018682490SHERRYLL GLO I. PASCUAL                                  0501
A0101413600000003851187ARNEL L. ARENAS                                          0501
B3101400160221031514001PLASTECH INDUSTRIAL CORPORATION                          1601
B3101400160221043434001NY SAN FELIX LTD. CORP.                                  1610
B1001400190231010692001PHILIPPINE IRON CONSTRUCTION & MARINE                   11605
B1001400190231010692001WORKS INC.                                              21600
A1001400190231520766015CALUMBA, VICTOR ARQUITA                                  0501
A1001400190231520766017PEQUE, DOROTEA CALAGO                                    0501
A1001400350000000922014PEARSON, PILARCITA ROA                                   0501
B1301400470000007863069CARRON AMUSEMENT RIDES CORPORATION                       1610
A1301400470000004626886LOIDA FUNERAL HOME                                       0502
B1301400470000003270124FMN DEVELOPERS CORP.                                     1610
A1301400470252634995001LOUISE L. ANG AND LOED L. ANG                            0510
A1301400760000011058409WENILDA C.OGURA OR SACHIKO                              10501
A1301400760000011058409KENDI I. MANGGIT                                        20500
A0101406460000016571090CHUNG, YOUNGHO                                           0501
B0101406620273216084001EGGS, BEANS & GRAINS, INC.                               1601
A0101411110000017124093BAUTISTA, JEFFREY CARIAGA                                0501
B0101411110000001037074NIECER TRADING COMPANY INC.                              1602
B0101411110000001037096TECHNOVORE SYSTEMS INC.                                  1601
B0101400570000013647297FRUITASGROUP INC.                                        1601
A0101400570281021967001CHANGING DIGITAL IMAGING                                10501
A0101400570281021967001GRAPHIC                                                 20500
A0101400570281388539031HOWELL T. HO                                             0501
A0501400200000006272197AQUINO JR., RICARDO MUNOZ                                0502
A0501400200000017208696CAPILI, EDNA VILLANUEVA                                  0503
A2601400270000008654177CHRISTOPHER JOHN A. FORMOSO OR                          10510
A2601400270000008654177MA. VICTORIA FORMOSO                                    20500
A1101400120000000652620GO, COCAINE YOUNG OR GO, NICHOL                         10501
A1101400120000000652620AS JASON FUENTES                                        20500
A1101400120000003196996ANZALE, RAFELINA PARINA                                  0501
A6601400120000009613703MUNCADA, PAUL RICHARD SEVILLA                            0501
A6601400120000018680892NEBRIDA, GLYN CELAJES                                    0501
B6601400120314043609012FUNDACION GRAMEEN PILIPINAS INC.                        11605
B6601400120314043609012CATUBIG BRANCH                                          21600
B2001400290000016251200CALUNSAG, JAYSON BAROY DBU ALLISON                       1603
B2001400290315528399001**********                                               1601
A0101402350321478374059BERNARDITA D. LOPEZ                                      0501
B0101402060000006931979ESLA LAND DEVELOPERS, INC.                               1605
A0101409050000016682674JIMENO, MESSEAH DUMAOAL                                  0502
A0201400760000018671544MENDIOLA, ERVEN SANSON                                   0501
A0201400890000018678165TAJANLANGIT, RAUL JOSEPH DANOSO                          0501
A0101402930000010657840VILLAREAL, JENNIFER TIPDAS                               0502
B0101402930381016372001INTERLAB PROPERTIES, INC.                                1602
B0101402930000005645894CE INTERNATIONAL DISEGNO INC                             1602
A0101408370000011986153TUAZON, PINNELLOPPI ABIEGOS                              0501
A0101408370000011986288LABUGUEN, MARIA CECILIA CRUZ                             0502
A0101408400000014500642MANZANO, MARK ALVIN LEMON                                0501
A0101408400000017980460ONG, JOHNNIE TEH                                         0501
A0101408400000001614751ANGLON, JIMMY LANGURAYAN                                 0501
A0101408950000011298903BANDANG, LEOCADIO OR GARCIA,                            10502
A0101408950000011298903ANALYN GALANG                                           20500
A0101408950000011598868MURALLON, MARLON VERGARA                                 0502
A0101409180000008700156CAUTON,ANNA KATRINA, HERNANDEZ,                         10501
A0101409180000008700156MIGUEL OR HERNAN                                        20500
A0101409180000003780056MARY CRIS G. GUNSAY                                      0502
A0101412210000010434852RAMOS, GEORGE RAMIL CADIZ                                0501
A5501400120410622095001CORDER, JAIMELITA OR                                    10503
A5501400120410622095001CORDER, EDWIN                                           20500
A2401400180000017603004SUSADA, MICHELLE E. DBU ALVEARE                         10501
A2401400180000017603004RESTO & COWORKING HUB                                   20500
B2401400180411042576001PRIMERA CASA PROPRIEDAD, INC.                            1602
A2401400180411068112001SALANGSANG JR., RODRIGO KIMPO D                         10501
A2401400180411068112001DRIGG'S SUITES                                          20500
B0901400220000016203200NAC MARKETING                                            1603
A0901400220000011299239**********                                               0501
A5101400100000011337061JARDINICO, DANILO MACOSE                                 0501
A5101400100000018521963GENTAPANAN, RONEL RAY CABRERA                            0501
A5101400100000016393807DANGALLO, DANTE LAUD                                     0502
A0101412890000009833827**************                                           0502
B0101406330472043678001NORIMART SUPERMARKET                                     1602
A0101406330472298552001EDWINA M. PADERNAL                                       0501
A0101410140000000482702LABASTIDA, ENGRACIO DOTOLLO                              0502
A0101410140000014574888PELAYO, MA LORNA JUNTURA                                 0506
A3801400170000013431566JESSIE'S GENERAL MERCHANDISE                             0501
A1401400110000017399723DE JESUS, ANNABELLE BASCO                                0501
A1401400110000017376371PASAHOL, MARVIN REPOLLO                                  0501
A1401400110000014145392ZAFRANCO, JEFFERSON DBU TEALDIA                         10501
A1401400110000014145392HARDWARE AND CONSTRUCTION                               20500
B1401400110000014232441SOUTHERN SWINE PARADISE & FARM, INC                      1603
A1601400170000001360805MIQUE, JOEL ORINA                                        0502
A1601400170000001837863RENE N. ESPLANA OR                                      10502
A1601400170000001837863GLORYDEL B. ALAPAD                                      20500
A0101407430000014298496LOPEZ, MELENNY NEPOMUCENO                                0503
B0101407430503045582001PRO FREIGHT INTERNATIONAL CORP.                          1601
B0101403580000010847540CICLO SUERTE CORPORATION                                 1603
A0101408530000018677593VALENTE PRESTES, ISAIAS .                                0501
A0101408530000008159702PUDPUD, JAKE RYAN                                        0501
A0101403450000006055621*********                                                0501
B0101403450521015297001PACIFIC HORIZON PROPERTY VENTURE INC.                    1601
A0101403450521238133001**********                                               0501
A0101403450521238290001********                                                 0501
A0101403450521319825001**********                                               0501
A0101403610000018678450LACSAMANA, ROSEMARIE ORDINEZ                             0501
A0101403610000013964275RAMOS, CHRISTLIEB XERXEZ CONSTA                          0501
B0101404130601047731001RICH MEDIA MANILA INCORPORATED                           1602
B0101407720000007951775JSASIA INC.                                              1601
A0101407720602161854002**********                                               0501
A0101407720602198350002MEDINA, CLEOFE B.                                        0510
A0101407720602241314001**********                                               0502
A0101412180000002340563ADVANI, CHANDER PRAKESH GHANSHY                          0501
B0101412180000014550284MARAVIPE CORP.                                           1601
B0101407690000007720216JAFUDE TRADING INC.                                      1602
A0101407690652528874001PEREZ, EMERITA TUAZON                                    0501
A0101413990000018479613BITUIN, ADRIAN ZEUS RUBIATO                              0501
A0101406590662297269001MARTINEZ, ARMAN M. OR MARTINEZ,                         10501
A0101406590662297269001MARIA THERESE G.                                        20500
A1301400210000002285418REYES, MICHAEL ANGELO CENTENO                            0501
A1301400210682244800001MARINA FLORES OR GERARDO FLORES                          0501
A1301400340683249866001***********                                              0503
B1301400500000005963506HOXON HARDWARE AND TILES                                 1601
A0101408240000005740632LIM, ZARAH ZABLAN                                        0501
A0101408240711399428001JOSELITO OR ROSEMARIE RAFAEL                             0501
A0101408240000011487091AURELIO, LILIA PADERNA                                   0503
A0101408240000017266309OROBIA, JOSE RAMON/ANNA                                 10502
A0101408240000017266309KRISTINE/RACHO, ALEXANDER                               20500
A2801400100712507001001*****                                                    0503
A2801400230000005752303JEM'S GASOLINE STATION                                   0501
A4101400260000010623684DEL MUNDO, EMERIZA DE LEON                               0501
A4101400260000018520953CABEBE, DICK ALVIN PINAGA                                0501
A4101400390000017294812EDELYN M. MACABEO                                        0501
A4101400420000012882834LOPEZ, BERNADITH SORIANO                                 0501
A4101400420814478374026FLORENCIA DELA CALZADA                                   0501
A4101400420814520766085ANNALIZA P. PRADO                                        0502
A4101400550000000315040BUMA-AT, THELMA                                          0501
B0101412340000000030979GENNEX SOLUTIONS PHILS. INC.                             1603
B0101412340000000030980ACTON TECHNOPHILS INC.                                   1603
A0101406750000017168624BLANCO, JOANNA GRACE C. OR                              10501
A0101406750000017168624BLANCO, FREDERICK                                       20500
A0101406750000010508846FANDIDA, MARTINA NIANGO                                  0504
A0101406750000018578579ESCUDERO, FLORINA ROSALES AND                           10501
A0101406750000018578579DE LEON, CONSOLACION                                    20500
A0101406750000017168704ROSALES, MARIA MORALES                                   0501
B0101413860000012289566LOGISTIKUS, INC.                                         1605
B0101413860000011297539NEGROS HOLDINGS AND MANAGEMENT CORP                      1602
A0601400230000015248781TORIO, LIEZL REGALA                                      0501
