A3101400160000000006533DENNISON A DEGUITO                                       0502
A0101406590000000035481EVELYN D. MASCARINAS                                     0501
A0201401020000000056197SANCHEZ, AMELIA CUENCA                                   0501
A0101401250000000057065VILLAS, ROGELIA L.                                       0501
A0101400440000000137346DE CASTRO, FELIXBERTO PANSOY                             0501
A0101400310000000140821LAMBAN, MARVIN VALDEZ                                    0501
A0101408110000000202791MILITAR, MA. VICTORIA GARCIA                             0502
A0101403030000000320481ANALYN V.SOLIVA                                          0501
A2401400180000000428062SAMANION, FLORIVIC ARINO                                 0501
A3101400160000000429203EDITHA M DURAN                                           0501
A0301400790000000435983COLINA, MAE MANILYN CLENUAR                              0501
A0101408110000000474373CUEVAS, ROGELIO MARASIGAN                                0501
A0101407690000000495494CARBUNGCO, MA GLORIA LIMGUANGCO                          0502
A0101410140000000499247YAP, ELENA GAYOSO                                        0501
A1301400210000000540776EDNA S ENANO                                             0503
A2601400270000000561700MILA R. VALDEZ                                           0503
A3401400280000000784692VISTA, LECEL CERILO                                      0502
A0101401700000000890580RICAROS, CHARIVEL DAUAG                                  0510
A3801400170000000955102LEO CALDERON FERNANDEZ                                   0501
A0101405940000001047381MIRANI, DIANA NARESH                                     0502
A0101412890000001056400NEPOMUCENO, LUZ GERONIMO                                 0502
A0101410140000001074646MEMBERS OF NATASHA (SHOECAT INC                          0501
A1901400320000001107726JESSIE PAEZ CANTOS                                       0501
A0601400520000001120385BANAG, ESMERALDO PINEDA                                  0501
A0101408110000001165851MACARIO, EURA JAYNE TRINIDAD                             0501
A0101408530000001268491GLEN HOWARD P. SALAMAT                                   0501
A0101402350000001474233FAST LINE ENTERPRISES                                    0501
A1401400110000001549340CAPIRAL, ROSALIE BELESARIO                               0501
A0101402770000001571200BENIG, ROMEO BALOLOY                                     0501
A0101402770000001571211FERRER, KRISTIAN LORENZO TARIGA                          0501
A0101402770000001571240PANARIGAN, JOEL OLAYTA                                   0501
A0601400520000001706838MENDOZA, JINKY MEDINA                                    0501
A0601400520000001706992UNTALAN, MILAGROS MANALANSAN                             0501
A3401400280000001723360RICHELLE V. ALMOMGUERA                                   0502
A3401400280000001723473AMELIA A. ZAMORA                                         0501
A4101400390000001732623AZUL, VERNADETH DHOREEN PRANI                            0501
A4101400390000001732758JUDAN, EMMANUEL MENDOZA                                  0501
A0101412890000001765528REGALARIO, KRISTINE MAE LAGAYA                           0501
A4101400260000001783800NGO, MARY PAZ NAVA                                       0501
A0101400730000001822431MACUTE, ARIEL PAJARO                                     0501
A0101405650000001911939MOSQUERA, LEO PANAGUITON                                 0501
A5501400120000002018888INOCENCIO, STEVEN DELOS REYES                            0503
A0101400440000002034782CHARITO IBANEZ                                           0502
A0101411530000002260219**********                                               0501
A0101408240000002331179MANIMBAO, STEPHANIE FRANCISCO                            0501
A1001400350000002367206LUCMAN III, HAROUN AL RASHID DI                          0502
A0101400150000002394863QUEJANO, RODANTES VALDORIA                               0501
A0101400150000002394892QUEJANO, GERARDO VALDORIA                                0501
A0101400310000002722301PUNONGBAYAN, BARBARA BAUTISTA                            0501
A0101401250021797345001PALIC, SENEN ROSET                                       0502
A0101401700041190200001*****                                                    0501
A0101401700041594880001DEL MUNDO, EVELYN TANGARORANG                            0501
A0101400150061453761042MARIA CARIDAD ROMERO                                     0501
A0101400150061555486001PERALTA, ANA FE DULDULAO                                 0502
A0101400730111386706001FRANCISCO, GUILLER ARINDAY                               0510
A0101401830141206440002TERESITA S. BERANGO                                      0501
A0101400440161030637001AREMCI BUILDERS                                          0510
A0101400440161391940001*****                                                    0501
A0101400440161478374008MARY FE I. REDONDO                                       0501
A0101400440161525001139JEMARIE S. SALUDAR                                       0501
A0101401090171543387001********                                                 0501
A0101400310211295755008******                                                   0501
A0101400310211295755009******                                                   0501
A0101400310211383117002LOJO, BENITO MACASAET                                    0502
A0101400310211478374020GANDIA, VHIRGIE                                          0503
A0101407140213190508001**********                                               0501
A3101400450223223458004ALVERO, LEAH AURORA TOLENTINO                            0501
A3101400740224671978001BALDONADO, ROWENA LEGASPI                                0501
A3101400740224713030002NEO, NOEL NEBREJA                                        0501
A1001400190231093042001ALBASE, RAMON BURACHO                                    0501
A1001400190231279583002PATRIANA, ROQUE CASTILLO                                 0505
A1001400190231478374067DAGANATO, NICANORA BALOS                                 0501
A1001400190231478374086LORNA A. OMANDAM                                         0502
A1001400190231520766093DACUTANAN, REYNOZA RADOC                                 0501
A1001400350233535706001RUBIN, LOURDES AMBA                                      0502
A1301400470252499542001**************                                           0505
A0101406620273236978001CALLEJA, HOWARD MACEDA                                   0503
A0101406620273294329001**********                                               0510
A0101400570281186595001DR. CHUCHI A. RUIZ                                       0502
A0101400570281186603001DR. RESTITUTO C. BUENVIAJE                               0502
A0101400570281642980001REMNANT HEALTH CARE CENTER                               0510
A1101400120313478374105MARNEL BULAWAN                                           0502
A6601400120314615725001CHING, ZENAIDA LLUZ                                      0502
A6601400120314694059001BANTILO, DEODATO LUTAO                                   0501
A0101402350321179318001GIL M. TALAMPAS                                          0505
A0101402350321180274002JULIE O. GREGORIO                                        0502
A0101405650322183251001COSICO, ANTONIO PARAISO                                  0502
A0101405650322299905001RAUL AURELLANO                                           0501
A0101408820333378700002**********                                               0501
A0101402510341198071001ROSEMARIE I. SO                                          0501
A0101402510341199012001FONTANILLA, CRISANTA TERMULO                             0501
A0101402770391013439001JIREH'S CAR PAINT SHOP                                   0502
A0101402770391381782001MARISA A. SCHROTH                                        0501
A0101405490392492916001**********                                               0501
A2401400180411272641001CLARITA C. SANTIAGO                                      0501
A2401400180411283898088GARCIA, JOSIE JAVELLANA                                  0505
A2401400180411572205001EBRAHIM, MA. AMOR ISHAD                                  0501
A1401400110492395854001MERCEDES C. BARCELONA                                    0501
A0101404000551486335002FAJUT, GARRY FAMERONAG                                   0501
A2201400250561043302001JREL BAKESHOP                                            0501
A0101407720602150510002JAVIER, AGRIPINO BENG AGUILA                             0504
A0101407720602396744002ANG, JENNIFER CU                                         0502
A0101407720602497553001TAN, MARIE CECILIA YU                                    0503
A0101404260611151571002**********                                               0504
A0101404420631651963001AGUILAR, CESAR SEVA                                      0502
A1301400340683247884001LEONARDO, MA. CONCEPCION P.                              0503
A0101408240711410292003**********                                               0505
A4101400260812299913002CAMPOS, FILOMENA FORTICH                                 0502
A4101400420814664415001SAYAROT, DARLON JAY SACDALAN                             0502
A0101406750852620452001VARGAS, JERRICK JAN ANDA                                 0502
A0101412890000000007514RICO T RIVERA DBU WISEMIX                               10502
A0101407690000000154750BARANGAN, ROMEO DBU                                     10503
A0101402770000000360650AGUIRRE, LORY DBU FIRST LINE                            10502
A0101409920000000523551DEL ROSARIO, JACQUELINE JT                              10502
A0101412890000001056393GERONIMO, M DBU A.M.-M.A'S                              10501
A0101407690000001919753DE GRACIA, NICANOR DBU NC DE                            10502
A0101413310000002317820CALIMLIM, JOE FELICIANO                                 10501
A0101401700041365653002AESOPO G. CRUZ OR                                       10503
A0101401960121327478001AIDA MEDEL                                              10502
A3101400450223550865002LOPEZ, CELIA CONDUCTO                                   10510
A0101406460272420187001CHAN, CHRISTINE JOY TAN OR                              10501
A0101406620273521300001GARCIA, LEO MCGUIRE OR                                  10501
A0101408660274618355001AGUILERA, ALLAN ANTHONY  OR                             10505
A3401400280318736732001TERESA A. SANTOS OR MA. AILEEN                          10502
A0101402350321179570001NEAL ORTEZA OR                                          10501
A0101402350321180179002AUDITOR, NATALIA A. OR                                  10501
A0101408820333158770001ARNOLD MATHIAS G. SANTOS OR                             10503
A0101402060351734699002RAMNANI, MICHAEL CHRISTOPHER OR                         10502
A0101402770391752292004JUANITA OR TOMAS OR BENJAMIN N.                         10501
A0101408950396761506001DONALD C. CRISTOBAL OR MA.                              10501
A5501400120410636179118CHIU, VALENTIN & JULIA EILEEN                           10502
A5501400120410636179148CHIU, VALENTIN & JULIA EILEEN                           10501
A2401400180411478374062DAVIS, PEPITO MALINAO OR                                10502
A2401400180411501589001VALILA, NOL S. OR VALILA, MA.                           10501
A0101407430503333427005ABNER G. LACSON OR                                      10501
A0101407720602161918001MARY ANNE LUCIANO-AMON OR                               10505
A0101407690652478374143SHIRLEY PATALOD - DEALERS OF                            10501
A0101407690652478374145MA. ROUMELA LUISA MIJARES -                             10501
A0101407690652525001029TIRSA QUINTERO - DEALERS OF                             10502
A0101407690652525001047NOEMI B. BUNDA - DEALERS OF                             10501
A0101407690652525001060SUSANA MORENO - DEALERS OF                              10501
A4101400260812444997002MARY ANN SAN DIEGO OR                                   10502
A4101400420814034138001MCMAR & MARY ELECTRICAL &                               10502
A0101412890000000007514CONSTRUCTION SUPPLY                                     20500
A0101407690000000154750BARANGAN TRADING                                        20500
A0101402770000000360650TRADING                                                 20500
A0101409920000000523551FABELLA, JHOE ANN                                       20500
A0101412890000001056393BAKERY                                                  20500
A0101407690000001919753GRACIA & ASSOCIATES                                     20500
A0101413310000002317820PUNZALAN                                                20500
A0101401700041365653002GRACE SANTOS CRU                                        20500
A0101401960121327478001OR ROD MEDEL                                            20500
A3101400450223550865002OR LOPEZ, PAOLO                                         20500
A0101406460272420187001CHAN, CHRISTOPHER CO                                    20500
A0101406620273521300001GARCIA, CARMEN                                          20500
A0101408660274618355001DORIA, GRAND MIC                                        20500
A3401400280318736732001A. SANTOS OR TINA S. ONG                                20500
A0101402350321179570001IMELDA OLIVAREZ                                         20500
A0101402350321180179002AUDITOR, SATURNINA                                      20500
A0101408820333158770001NORAINE D. SANTO                                        20500
A0101402060351734699002RAMNANI, ASHOK                                          20500
A0101402770391752292004VICTORIA                                                20500
A0101408950396761506001FLORDELIZA A. CR                                        20500
A5501400120410636179118& CHRISTIAN & CHRISTEL                                  20500
A5501400120410636179148& CHRISTIAN & CHRISTEL                                  20500
A2401400180411478374062DAVIS, BERNADITH                                        20500
A2401400180411501589001LOURDES D.                                              20500
A0101407430503333427005EVELYN D. LACSON                                        20500
A0101407720602161918001JONATHAN M. AMON                                        20500
A0101407690652478374143SHOECAT INC                                             20500
A0101407690652478374145DEALERS OF SHOEC                                        20500
A0101407690652525001029SHOECAT INC.                                            20500
A0101407690652525001047SHOECAT INC.                                            20500
A0101407690652525001060SHOECAT INC.                                            20500
A4101400260812444997002ANTONIO SAN DIEG                                        20500
A4101400420814034138001CONSTRUCTION SUP                                        20500
B0101401250000000020720CLEVELAND DIESEL PARTS AND SERVICES                      1602
B0101404000000000025549QUIAMBAO, L DBU LPQUIAMBAO ENTERPRISE                    1601
B0101401830000000033605CARITAS SALVE CREDIT COOPERATIVE                         1602
B1901400320000000041301FIRST INNER TRADE CREDIT CORPORATION                     1610
B0101401830000000059972CARITAS SALVE CREDIT COOPERATIVE                         1602
B0301400790000000435807ROTARY CLUB OF WEST DAVAO                                1601
B0101402770000001571233LEADER GARMENTS CORPORATION                              1610
B0101401700041190338003**********                                               1601
B0101400730111033923001QUICKLEND PHILIPPINES INC.                               1606
B0101401960121238699002SO, PONCIANO CHUA                JT                      1601
B0101401830141046773001BLUMEX EXPRESS CREDIT, INC.                              1605
B0101401090171029222001QCMP INC.                                                1601
B0101400310211031083001XXX                                                      1602
B0101400310211031083001VALDEZ BUSINESS WORLD                                    1602
B0101407140213608204001**********                                               1601
B0501400200292043488001BEJ LENDING INVESTOR CORPORATION                         1601
B6601400120314617698002CATARMAN DOCTORS HOSPITAL, INC.                          1605
B2001400290315042342001LUZON RAM CYCLES, INC.                                   1601
B3401400280318044735001A & T SANTOS INCORPORATED                                1603
B0101402770391022829002STI COLLEGE OF ORTIGAS - CAINTA INC                      1610
B0101402770391045861001KAI-ANYA FOODS, INC.                                     1610
B2401400180411021162002TBB & SONS MARKETING                                     1603
B2401400180411035164001MOMMY GINA TUNA RESOURCES (MGTR), INC.                   1610
B2401400180411039574001ROS JETTI STATION                                        1602
B0101405940512028580001AUTOMETICS CAR CARE, INC.                                1604
B0101408110515017881001GROUP MANAGEMENT CORPORATION                             1603
B0101407690652035133002********                                                 1630
B4101400260812012608008ROTARY CLUB OF DASMARINAS                                1602
B1601400170000000036160LEGAZPI FOUR SEASONS                                    11603
B0101401250021309334001NAIDA T. TALIMAN AND S. MA. APOLONIA S.                 11601
B0101402350321006984001INTEGRATED HYDRO-PNEUMATIC                              11610
B1301400210682697928001NELXYS ADMINISTRATIVE AND GENERAL                       11603
B1601400170000000036160RESTAURANT, INC.                                        21600
B0101401250021309334001DUMANDAN                                                21600
B0101402350321006984001SYSTEMS INC.                                            21600
B1301400210682697928001SERVICES, INC.                                          21600
