A1101400120000003981317CANETE, ALEXIS JAN DY DBU CANET                         10503
A1101400120000003981317E ENTERPRISE                                            20500
A1901400290000003252844PEDRO ELLAZAR RAMOS JR                                  10502
A1901400290000003252844OR LEAH GRACE LINAS RAMOS                               20500
B1901400290261023671001PONDONG BATANGAN COMMUNITY                              11603
B1901400290261023671001FOUNDATION, INC.                                        21600
B1101400120000006187113SARC FOODS CORPORATION                                   1601
A1101400120000000652351YAO, RONALD PHILIP GO                                    0502
A1101400120313717829001UY, WILSON S. OR UY, CHIQUI                             10510
A1101400120313717829001RUTH CAYUBIT                                            20500
A1101400120000016417839LOMTONG, ERWIN DAANG                                     0501
B0101412630000018272916BROO IDEAS AND SOLUTIONS INC.                            1601
A1101400120000003022533LIM, RICHARD YAP                                         0505
A1601400170000000421070REYNOSO, CARLOS MARTIN ANTONIO                           0501
A3001400130230478374028MAGLASANG, ELIZABETH DAHANG                              0501
A1101400120000006186752MENDOZA, REBECCA LADIOS                                  0501
A1101400120000006186343JABINES, DYANN JAIME DBU LA BOT                         10501
A1101400120000006186343ICA DYANN                                               20500
A1101400120000006186354ROSALIJOS, ROY                                           0501
B1101400120313543446001TY CHAN HAI,SANTIAGO OR TY,LISA OR TY,                  11603
B1101400120313543446001SHANE LAWRENCE                                          21600
A0101402930000007031170TORRALBA, ALTHEA RIVERA                                  0502
A0101402770000017065220CAPISTRANO, JENNIFER FELIZARDO                          10504
A0101402770000017065220OR CAPISTRANO, HERBERT L.                               20500
A0101402770391211325002BARTOLOME SARANGAYA                                      0502
A1201400150421776673001CORREOS, GEROME DUA                                      0502
A1701400230000009625447CHUA, GIAN NICOLETTE GUILLEN OR                         10503
A1701400230000009625447CHUA, LENDELL BENEDICT M.                               20500
A1701400230000011517445MONTANEZ, BEVERLY AQUINO                                 0503
A1701400230000016323943SATURNINO, MICHAEL SYLVESTRE                            10501
A1701400230000016323943AGABIN                                                  20500
A0101400860011425868001**********                                               0503
A0101400860011485313002**********                                               0501
A0101400860011569183001**********                                               0502
A0101400860011685746001**********                                               0505
A0101401250000002290068ALLEN, PATRICIA TESIE M.                                 0502
A0101411370000003294900FARRALES, MARCUS GLEN B. DBU                            10502
A0101411370000003294900GOLDLINE BROKERA                                        20500
A0101400150061311743050RAYMUND PUYAT                                            0502
A0101400150061510141001MAPANAO, BILLIE TAMSI                                    0501
B0101405810072030630001SK PLASTIC RELIANCE COMPANY                              1603
B0601400100000007185062PUREPOWER VENTURES CORP.                                 1601
B06014001000000071851533JJJ MINIBAR COR.                                        1605
A0601400520000005943553VILLANUEVA, MELJOYCE AQUINO                              0502
A0101414090000014404930RAMOS, PRISCILLA IGNACIO                                 0502
A0101410850000013601513CRUZ, NERISSA RAMOS DBU UNISON                           0505
B0101406040000013915783FIESTA CARGO AND LOGISTICS INC.                          1602
A0101406040000008915471********                                                 0505
A0101412630000009425349ILAGAN, JEROME REY P.                                   10501
A0101412630000009425349OR ILAGAN, ELOISA G.                                    20500
A0101412630000014772440GUERRERO JR., HENARIO M.                                10502
A0101412630000014772440OR GUERRERO, HELEN M.                                   20500
A0101412630000012146713SAYSON, EMMANUEL CALUYA                                  0501
B0101412630132058436001SPACE EDSA CORPORATION                                   1603
B0101401830000000033605CARITAS SALVE CREDIT COOPERATIVE                        11604
B0101401830000000033605(QUIAPO-005)                                            21600
A0101412920000015712064RODRIGUEZ, MYLA SOL MENGUITO                             0502
A0101400440161525001103OFELIA B. OLERMO                                         0501
A0101407270000007525375LIM, NELLIE CACHO                                        0502
A0101407270162004768002BARBIN, EMMANUEL DOMINIQUE FERN                          0501
B0101407270000000830682MULTI-LIFECARE FOUNDATION INC.                           1605
A0101407270162775985001EDNEL V. PASCUAL                                         0501
B0101401090171008020002UST PARISH STORE                                         1603
A0101401090171196114001LEILANI M. ASIS OR                                      10502
A0101401090171196114001ROMULO Z. ASIS                                          20500
B0301400530193035726188TAGUM PIONEER FOODS CORP. - DT                           1605
B0301400530193038459168PIONEER BEE CORPORATION 1                                1605
B0301400530000001409438GENSAN LCL TRADING, INC.                                 1603
A0301400530000011715289NGO, JUSTIN CHIU                                         0501
A0301400530193583614088VILLANUEVA, MELISSA MAY OR                              10501
A0301400530193583614088VILLANUEVA, PHIL                                        20500
A0301400530000007345475VILLANUEVA, PHILIP OR VILLANUEV                         10502
A0301400530000007345475A, MELISSA                                              20500
A0301400530193729179088VILLANUEVA, PHILIP OR                                   10501
A0301400530193729179088VILLANUEVA, MELI                                        20500
A0301400530193750774188CHEN, TIANZH OR FU, LIAN                                 0506
A0301400660000000048360DOMINGO, LAARNI GARCIA                                   0501
A0301400660000005691723**********                                               0501
A0301400660000013311250DUMALAG, ROLLIE BARBA                                    0502
B0301400660194044769038LUMINOUS DEVELOPMENT CORPORATION                         1605
B0301400660194046073088WEST EMPIRE SEAFOODS AND CHINESE                        11610
B0301400660194046073088RESTAURANT                                              21600
B0301400660000003361908PHILIPPINE RADIANT PRODUCTS, INC.                        1602
A0101401380201501412001MEDINA, RUEL LIM                                         0501
A3101400160000004952552BILLY A PACURIB                                          0501
A3101400160000012033480REYNALES, JULITA ARANDA                                  0501
A3101400450000002330438PAGUIA, ALBERTO ANGELES                                  0502
A3101400740000018326042DIMAANO, MODESTA MALABANAN                               0501
A3101400740000018321176DIMAANO, ARNEL TUMBAGAHAN DBU                           10501
A31014007400000183211764D INDUSTRIAL ENTERPRISES                               20500
A3101400740000017261126ALVIAR, RACHELLE BARTOLAZO                               0501
A3101400870000018305283REGONDOLA-YU, MA. CRESILDA LARO                          0501
A1001400190000002170769JUGAN, NOUE MALOLOT                                      0501
A1001400350000017316655SALVACION, DIVINA MANGOMPIT                              0501
A1001400350000017316666VILLEJO, DWIGHT JOHN UY                                  0501
A1001400350233653751008CHABON JR., JUDE OR                                     10502
A1001400350233653751008CHABON, CLAIRE                                          20500
A1901400290261355605001PAZ CRISTIANA TIAMSIM LANDICHO                           0501
B0101401670271038486001POWER FASHION INC.                                       1605
B0101401670271041791003A PI SQUARE KINDER SCHOOL INC.                           1610
B0101401670271058808001JADE GARDEN NEIGHBORHOOD ASSOCIATION                     1601
A0101401670271613655003LIM, TERESA KATIGBAK                                     0501
A0101406460272485858001TI JR., WILLIAM TAN                                      0501
B0101406620000013342940*******                                                  1602
A0101406620273444658001GINA L. JULIANO OR                                      10502
A0101406620273444658001NOLY P. JULIANO                                         20500
A0101408660000005109808DE OCAMPO, RONNIE OR DE OCAMPO                          10501
A0101408660000005109808REENA OR DE OCAMPO, MARY                                20500
B0101408660000013601980CORTEZ, JASMIN V. DBU JZ-UP IN THE SKY                  11601
B0101408660000013601980RESTAURANT                                              21600
A0101411110276057553001REYES, A DBU ARTREY EXPRESS                             10502
A0101411110276057553001CARGO SERVICES                                          20500
B0101411820000010701241ITECH COMPUTER SYSTEM CO.                                1601
B0101411820000000024142HARDCOM COMPUTER SYSTEM CO.                              1601
B0101400570281030526001TAPEMASTER MARKETING                                     1601
B0101400570281037511001PHILIPPINE NEUROLOGICAL ASSOCIATION INC                  1601
A0101400570281186594001MA LUISA YU OR YU PEK KIAN OR                           10501
A0101400570281186594001DAWN ISOBEL OR M                                        20500
A2601400270000003510761ROBERT JOHN T. UY OR                                    10501
A2601400270000003510761MARGARITA C. UY                                         20500
A2601400270000012492461JUANITO B. CANCILLER                                     0501
A0801400160000002681730TIO, JEFFREY GO                                          0501
A1101400120000006081103BACSAL, EMMYLEEN BATAWAN OR BAC                         10505
A1101400120000006081103SAL, DAVID DACUNOS                                      20500
A1101400120000013536988BASTIAS, ROSANNA QUISUMBING DBU                         10502
A1101400120000013536988ROSEMAN BREAD AND PASTRIE                               20500
B1101400120000006186894CORBEN ENTERPRISE SOLUTIONS INC.                         1605
A1101400120000006186478BOLECHE, MERLINE BANDALA                                 0502
A2001400290000005395877TABADA-CHU, DINAH BAGARES                                0502
B2001400290315063250001THE BLU CITRUZ COMPANY                                   1605
A0101402350000015000298MADLA, JOHN ROBERT ALLAN RAMOS                           0501
B0101402350321015321001BEST CHOICE MINIMART INC.                                1603
A0101405650000000525717TAMBUNTING, JOY MYRA SALVADOR                            0505
A0101402510341196523001MYRIAM B. BACUD                                          0501
B0101402060351009391001MAJA DEVELOPMENT CORPORATION                             1605
A0101409050000008087612SALAPANTAN, GERARD ADARO                                 0502
A0101409050000006171273MICHELLE R. UMALI                                        0502
A0201400760000011472063PINEDA, ALFREDO BUHAY                                    0501
B0201400920000011194095***********                                              1602
A0201400920375034984002CITY LIGHT ELECTRONICS SERVICE                           0506
A0201400920000002804504BARENG, NATHALYN C.                                      0502
B0101402930000005646153ENGAGE MEDIA MAVEN INC.                                  1606
A0101408790000018332219ANCAJAS, GISELLE TOINETTE CERVA                          0501
B0101408790383047956001NOVARAD ASIA PACIFIC CORPORATION                         1604
B0101402770000006812433CIENTO SYSTEMS CORPORATION                               1602
A0101402770391214496001FRANCISCO KUAN WONG OR                                  10505
A0101402770391214496001JOYAL KUAN WONG                                         20500
A0101405490000003178432MIRIAM D. PANO OR MELANIO B.                            10503
A0101405490000003178432PANO JR.                                                20500
A0101405490000006299774CASTILLO, BENJASON FLORES                                0502
A0101405490000014676954GALE, RUSSIEL FERRAREZA                                  0503
A0101408400000011681782DIESTRO, LAURA DELA CRUZ                                10501
A0101408400000011681782OR DIESTRO JR., SERAFIN                                 20500
B0301400820000012928531MER'S FOODS AND DELICACIES, INC.                         1605
B0301400820409091735055LIMA, WINDELL BRISTOL DBU DAVAO HOME                    11602
B0301400820409091735055BUILDERS CENTER                                         21600
A2401400180411478374027ELLEN PANTUJAN OR                                       10502
A2401400180411478374027ELMER PANTUJAN                                          20500
A1201400150000017292623RITOS II, SAMUEL BRUNO                                   0502
A0901400220000010424909**********                                               0501
A5101400100000015856963KAINDOY, JOHN DIZON DBU JEPN TR                          0505
A0101412890000014437168CABRERA, ANN MARGARET BERNEDO                            0502
A0101412890000014437328JACOB, FLADEA CRUZ                                       0501
A0101412890000017067153RAFLORES, ELOISA JANE M. OR                             10502
A0101412890000017067153AQUINO, REGINA ANGELA L.                                20500
A0101403320000001646926CLIDORO, GERDIE BARCELON                                 0501
B0101403320471008859001NEW LITE LUMBER & CONSTRUCTION                          11602
B0101403320471008859001SUPPLY                                                  21600
B0101403320471047674001MJ COMMODITY FLAVOR & SPICES INC.                        1604
A0101403320471088858001CHERRY B. BOCOBO                                         0503
A0101403320471193254001JOSEPHINE S. BAYSA                                       0503
A0101403320471432699001PONTINES, AVENIDO C.                                     0503
A0101406330000015172119BALDONADO, MILAGROS TOTANES                              0502
B0101406330000009413714ACC TECHNOLOGY CONSULTING INC.                           1602
A0101406330472780167001AGNES D. CHUA                                            0502
A0101412760000015445544GABRIEL, ABELARDO QUITLONG                               0502
A0501400170481687829001SIAPNO, WILBERTO FERNANDEZ                               0501
B3801400170490058867001KATIPUNAN FOODS SERVICES, INC.                           1615
A1901400160491488114001RON VINCENT G CAGUIMBAL                                  0505
A1401400110000016419033AGAWIN, SHERWIN DIMAANDAL                                0501
B1601400170000000036160LEGAZPI FOUR SEASONS                                    11603
B1601400170000000036160RESTAURANT, INC.                                        21600
B0101403580000010847419ARLA FOODS CORPORATION                                   1610
B0101403580511575114002TIGER 22 MEDIA CORPORATION                               1615
A0101405940000016228574SAGGE, LERA MAE ALEGRE                                   0501
B0101403450521026315001**********                                               1602
A0101403450521239194002********                                                 0501
A0101404130601492629001LARRIZA T. DELA CRUZ                                     0502
A0101407720000000051130LEGASPI, LILIAN DOMINGUEZ                                0505
A0101407720602341866003SONGCO, JAIME STO. DOMINGO                               0502
A0101407720602359786001JIMMY B. ARAGON                                          0501
A0101407720602367885001SY ORTIN, TERESA TAN                                     0505
A0101407720602381963001KASILAG, EMMANUEL R.                                     0501
A0101407720602436863001ACEBUCHE, NILO BORJA OR                                 10501
A0101407720602436863001ACEBUCHE, AMELITA                                       20500
A0101407720602472259001CALILONG, LORELEI IRA                                    0501
B0101407720602531639007INTELLIGENT BEAUTY SKIN SOLUTIONS INC.                   1610
A0101404260000018326731GARCIA, JOMAR GALANG                                     0501
A0101404260000003498453CASTILLO, CIPRIANO                                       0501
A0101409890000006277730QIU, LIAO OR DE JESUS, WILTON                            0502
A0101407690652651198001DE LEON, FRANCISCA LEGASPI                              10501
A0101407690652651198001DE LEON, JOSELITO GARCIA                                20500
B01014134400000183267133RJ RUBBERSTAMP & ENGRAVING STATION                      1601
A0101413570000010111636CUALES, MARK FRANCIS ROTA                                0510
A0101414120000000649116STEADFAST BUILDERS, THE                                  0502
A0101406590000009500998SINGH, JASWANT                                           0501
B1301400340683353482001JOSE, MARLENE RODIL OR                                  11602
B1301400340683353482001JOSE, JOSE MARI                                         21600
B1301400500684029282001L5 & SONS FINANCING CORP.                                1605
B0101408240711026715001KINGSROAD ENTERPRISES, INC.                              1601
A0101408240711398939001FERNANDEZ, CHARLES HESED P. JT                          10502
A0101408240711398939001FERNANDEZ, STEPHANIE ANNE                               20500
A0101408240711491329002SALOM, R JOHN CHRISTOPHER OR                            10501
A0101408240711491329002MARIA VICTORIA                                          20500
A4101400260000014081922LACSON, MARIARITA                                        0501
A4101400260000012858658CHAVES, VINCENT PAUL MONTESA                             0501
A4101400260000012867780ROXAS, CHRISTINE                                         0501
A4101400420000002345240CANDELARIA, MARIA ZORAIDA POTAZ                          0502
A4101400420000017688032PALMA, JAYE EHMILY CAMET                                 0501
A4101400550000014782808FALCON JR., D DBU DANYEN DESIGN                          0501
B4101400550000015517521JOLLEE FAMILY FASTFOOD CORP.                             1605
A0101412340000010059866AREVALO, MA. OLIVE ERA                                   0502
A0101404840000018348393ARGANA, MA. MINA SOSA                                    0501
A0101404840000018348560AMPO, ELVIE CADUAN                                       0501
B0101406750852063980001FORECOURT UNLIMITED, INC                                 1601
B0101406750852063981001FORECOURT COOPERATIVE                                    1602
B0101405070000018151247IF LENDING INVESTORS INC.                                1601
B0101405070000018151270IF LENDING INVESTORS INC.                                1601
B0101405070000018151316IF LENDING INVESTORS INC.                                1601
B0101405070000018151338IF LENDING INVESTORS INC.                                1601
B0101405070000018151361IF LENDING INVESTORS INC.                                1601
B0101405070861022087001AIR SPACE TRAVEL AND TOURS INC.                          1605
A0101413860000007255970BATANGAN, HAZEL JOY CUCIO                                0502
A0601400230000003638960DIZON, JOSE JUN G. DBU INTERTEC                          0502
