F0101408400394349214002SILLOCO, NANCITA AGUILLON                                2501CKO
F4101400390000000034033II - VI LASER ENTERPRISE                                12601CKR
F0201400180181042772001WORLDWIDE CENTRAL PROPERTIES,                           12601CKR
F4101400390000000034033PHILIPPINES, INC                                        22600CKR
F0201400180181042772001INC.                                                    22600CKR
