F1901400160491040836004DR MA JOYCELYN R MERCADO                                 2501CKO
F0101407300000000027789METRO ANTIPOLO HOSPITAL AND                             12602CKR
F0301400820409098501001PUENTESPINA, MARY VIC OR                                12601CKR
F0101407300000000027789MEDICAL CENTER                                          22600CKR
F0301400820409098501001MARCELO OR MARCE                                        22600CKR
