B0101408790383821100608**********                                               2005
A0101406460272358045001VALERIO, RAMON TORRES                                   10502
A0101406460272358045001OR JANE VALERIO                                         20500
A0101406460272393022001GAW, ELIZABETH CHENG                                     0501
B0101409180397044045001CACHO CONSTRUCTIONS, INC.                                1603
A0301400950000002115388CARMONA, JHENA MARIE M. OR                              10501
A0301400950000002115388CARMONA, HEINTJI                                        20500
B3001400130000008264922TANJAY, ANNABELLE RACASA                                 1605
A0101412890000000007536JOSEFINA J MENDOZA OR                                   10501
A0101412890000000007536AIREEN S ANGELES                                        20500
A0101412890000003508096MENDOZA II, GENNY OCHOTORINA                             0501
A0101403320471004315001UCLARAY, NASSER JULIUS C. DBU                           10501
A0101403320471004315001UCLARAY TRANSPORT                                       20500
A0101412050000011910739YUAN, LILI                                               0501
A0101407720000000112205VALERIE KRISTINE MARIE VILLEGAS                         10501
A0101407720000000112205SANTILLAN                                               20500
A0101407720602398224001CUSTODIO, DEOGRACIAS BANABAN                            10501
A0101407720602398224001OR CUSTODIO, ELEANOR                                    20500
A0101407720602399815001ALEJANDRO, RUTH MARGARET                                10501
A0101407720602399815001FRANCISCO                                               20500
A0101407720000003099121LANZADERAS, ELVIRA CLAROS                                0501
A0101400860000009198310**********                                               0501
A0101400860011522544001**********                                               0505
A0101400860011572958001**********                                               0502
A0101400860011779757001**********                                               0505
B0101401250021039247001PHILIPPINE REGISTRY OF INTERPRETERS                      1603
A0101400150000003197631Ernesto C. Matanguihan Jr.                               0501
A0101400150000003197802Michelle T. Mucas                                        0501
A0101400150061228094001JOSON, NUMERIANO ROBLES                                  0501
A0101400150061326957001JAVIER, MA. THERESA U.                                   0501
A0101400600071295528002********                                                 0502
B0101400600071325133001**********                                               1602
A0101400600071720668001*******                                                  0501
B0101405810072030630001***************                                          1602
B0101405810000000016811SK PLASTIC RELIANCE COMPANY                              1603
A0101405810072339643001**********                                               0503
B0601400100081015753001TAPANG REALTY COMPANY                                    1602
A0601400100081251940001TAPANG, AURELIO OR                                      10502
A0601400100081251940001TAPANG, GERALD                                          20500
A0101413280000000312701GUERRERO E. GUZMAN OR VICTORIA                          10501
A0101413280000000312701J. GUZMAN                                               20500
A0101410560000011872992MARY CHRISTINE T TEVES                                   0501
A0101410560000005836319CRISTINA L. LUALHATI                                     0501
A0101410560000001944072VALEN, ROSANA RETIG                                      0501
A0101410560000005836080REYNA, CRISTETA REBECCA LAVIDES                          0503
A0101400730000006268966GARCIA, MARICAR DE LEON                                  0501
B0101401960121657830001**********                                               1604
A0101412630000004938029LINTAG, MA. MELODY CRUZ                                  0502
A0101413310000003169300AYPA, MA. CARMEN TERESA G. OR                           10502
A0101413310000003169300AYPA, NOEL S.                                           20500
A0101413310000010284669OBIDA, MARIA DONEL YABA                                  0502
B7201400170000003774163MACARIO N. SEPADA OR                                    11605
B7201400170000003774163JUVY P. SEPADA                                          21600
A7201400170000007185671**********                                               0504
A5001400170000000214002REQUINA, ORWINO ATAY                                     0504
A5001400170000005705277PERATER, ROSEMARIE JOSUE                                 0501
B0101401090171019015003THOMASIAN ENDOCRINE PROGRESS INC.                        1603
A0101401090171196052001DRS. EDGARDO OR MA. LOUISA                              10504
A0101401090171196052001PERALTA                                                 20500
A0101401090171196097001HERNANDO OR LEONCIA OLONAN OR                           10502
A0101401090171196097001BIANCA NIKKOLA OLONAN                                   20500
B0301400530193022834168DAVAO ORCHARD ROAD, INC                                  1610
B0301400660000003361908PHILIPPINE RADIANT PRODUCTS, INC.                        1602
A0301400790000000435830********                                                 0505
A0301400950000002251992******                                                   0502
A0301400950000010701025GOODWIN, GRAY SELWYN                                     0501
B0301400950000011415175BOOMIN' & BLOOMIN' BRAND INC.                            1601
A0101401380201079813001CHOI, JIANN                                              0505
A0101401380201623604001FORONDA, ANALYNN JOY LUZ                                 0501
A0101413020000000880553***************                                          0502
B3101400160221037633001E.W.P. INSURANCE AGENCY CORP.                            1601
A3101400160221220150002ANGELITO LAZARO OR MARCIANO PUA                         10502
A3101400160221220150002OR LEONILO ERCIA                                        20500
A3101400450223223458004ALVERO, LEAH AURORA TOLENTINO                            0501
A1001400190000001057567SIMPSON, REYNALDA PANGONILO                              0501
A1001400350233561731001MORENO, OSCAR SERINA                                     0502
A1901400290261244411001DR. WILLIAM M TEMPLO                                     0505
A1901400290261298552022ALVIN DEL ROSARIO MAGNAYE                                0502
A1901400290261321834001AIDA NINO PESIMO OR                                     10505
A1901400290261321834001NESTOR PALAYPAYON PESIMO                                20500
A1901400290261390520001JOEL PUNZALAN DIMAANO                                    0502
B1901400290261457537001LAYGO EDUCATIONAL CENTER INC.                            1601
A1901400290261525986001JOEL D PUA OR                                           10501
A1901400290261525986001MA KATRINA P PUA                                        20500
A0101401670000005039801ACKERMAN, EMIL DAVID NOEL                               10503
A0101401670000005039801CAINTIC                                                 20500
A0101406460000002359862LIN, CHERRIE JAYCE ONG                                   0501
A0101408660000000059852LIAO, SEVERINO DBU HORIZON                              10501
A0101408660000000059852PRINTERS JT                                             20500
A0101408660274565904001BORROMEO JR., TOMAS BARREDO                              0501
A0101411110276057553001REYES, A DBU ARTREY EXPRESS                             10502
A0101411110276057553001CARGO SERVICES                                          20500
A0101400570281047587002FRC ENTERPRISES                                          0501
B0101400570000000749548ALLIANCEJADE GARMENTS CORP.                              1602
B0101400570000011364782PHYLUM PRODUCTS, INC.                                    1603
A0101400570000001134274EXEQUIEL L. ALLAM                                        0501
A0501400200000000473881EMMA P. ZIPAGAN                                          0502
B0501400200000004456902CBE ESTRADA PAWNSHOP, INC.                               1608
B1101400120313036439002ACME BUILDERS CORPORATION                                1605
B1101400120000000652868TACLOBAN ACME HARDWARE CO., INC.                         1605
A6601400120314079221001TAN, MARVIN JOE CALDERON                                 0502
B6601400120314612845001LOMAGDONG, PETER OR TANG, PATRICIA                      11602
B6601400120314612845001LOMAGDONG, JOYCE                                        21600
B2001400290000002406760MILLER SOLUTIONS DEVELOPMENT INC.                        1602
A2901400130000011947438FERNANDO, ISSANDRA ROSE MARTINE                          0501
A0101402350000010384448UMEREZ, JULIETA CARO                                     0503
A0101402510341370014001LAO, VILMA FARILLAS                                      0501
A0101402510341595415001ESTRELLA, MARIA LANI SARAJAN                             0503
A0101402060000009179564SUPETRAN, ISABELO ERNESTO LUMAQ                          0501
A0101409050000006986749SALAVANTE, FRANCES TRINA AQUINO                          0504
A0101409050000005698997FE ESPERANZA J. PINGKIAN                                 0503
A0201400760000005711079**********                                               0501
A0201400890000005196385RAFANAN, BENSON LIM                                      0501
A0201400890000002270275TAN, MARIANO YAP                                         0501
A0101402930000000859770METT MOTIVATIONAL ENGLISH                               10502
A0101402930000000859770TRAINING                                                20500
A0101408370000010341834CRUZ, XANDREI LUIGI RIVERA                               0505
A0101408370382392325001DR. JOSEPHINE B. RAMOS                                   0504
A0101408370382460759001FUENTES, MARILOU BLANCO                                  0501
A0101402770000000080566DAGOHOY, LARRY CASTANARES                                0501
A0101402770391338470001ALARCON, EMELITA DE LEON                                 0501
A0101402770391425258002FERNANDO REYES BORJA JR. OR                             10501
A0101402770391425258002RODA IGNACIO BORJA                                      20500
B0101408400394006138001ADVANI APPAREL                                           1602
B0101408400394022547001QUALCOM TRADE                                            1602
B0101408400394025635001KETMAR FASTFOOD CORPORATION                              1605
A0101408950000009451189BALBAGUIO, ST JOHN MARQUEZ                               0502
B0101408950000010411262MAJ CORNERSTONE DEVELOPER CO. INC.                       1603
A0101409180000003780272MARILYN GATHERCOLE                                       0501
A0301400820000008995602TIRADO, RUEL DBU WMT MANGO                              10501
A0301400820000008995602TRADING                                                 20500
B1201400150421035585001HOTEL COSMOPOLITAN                                       1601
A1201400150421252657003GLORIA FRANCISCO OR                                     10502
A1201400150421252657003ELIZABETH FRANCI                                        20500
A0101412890000000125419MADAMBA, JOEL VALENTINE F                                0502
A0101403320000000736101ANGELITO S. FERNANDO OR                                 10501
A0101403320000000736101MELDY M. FERNANDO                                       20500
B0101403320471004355001Z & P GLOBAL STEEL MANUFACTURING CORP.                   1601
A0101403320471028478001FILJOY ELECTRICAL AND                                   10502
A0101403320471028478001ELECTRONICS                                             20500
A0101403320471401131001ANTONIO TAN OR GILBERT TAN                              10501
A0101403320471401131001OR BERNANDITA TAN                                       20500
A0101403320471442993001RUBY-MAE R. BOSTRE                                       0501
B0101406330000000432933RIDERS UNIQUE EXPERIENCE CORPORATIO                      1601
A1901400160000005632617CASTILLO, LEVY MALIBIRAN                                 0501
B1901400160491018232002AMA COMPUTER COLLEGE -BATANGAS CITY                      1602
A1401400110492620230001DELOS SANTOS, ENRICO PEREZ                               0502
A1601400170000012307721PAMPLONA II, MAURO OCAMPO                                0501
A0101407430503436029001CACHO III, MARIANO NERA                                  0501
A0101403580000012303723ESPIRITU, LEA MARIE ZABLAN                               0501
B0101403580511005207001ECO TRADERS INCORPORATED                                 1610
A0101403580511154985001BERNADETTE N. BUENSUCESO OR                             10501
A0101403580511154985001FELIX G. BUENSUC                                        20500
A0101403580511397803001ESTRELLA, MARVIN ESPENA                                  0501
B0101405940512005308001ALEXANDER COMMERCIAL, INC.                               1601
A0101405940512597822001HERNANDEZ, ANTONIO PENGSON                               0503
A0101408530000002980921ZOBEL, CAMILA PAOLA CARDENAS                             0503
A0101411790000004807938IGNES, REYNALDO DBU GOLDENREY                           10501
A0101411790000004807938DIRECT MARKETING                                        20500
B0101411790000007879132*********                                                1602
A0101412050000001499670********                                                 0501
A0101412050519061409001O.S.A. CLEAN AND COMFY LAUNDRY                          10502
A0101412050519061409001CLEAN SERVICES                                          20500
B0101403450000000135453*************                                            1601
B0101403450521012010001********                                                 1603
A0101403450521239777001**********                                               0501
A0101407720602232072001LENNIE A. TERRE                                          0501
A0101407720602232072003EMMANUEL SILVA                                           0501
A0101407720602298846008LAMBERTO U. OCAMPO OR                                   10501
A0101407720602298846008ANNABELLE SARMIE                                        20500
A0101407720602330505002NAZARIO A. MACALINTAL JR. OR                            10501
A0101407720602330505002MERCEDITA M. MACALINTAL                                 20500
A0101407720602396602001CAMPOS, GERALDINE DE JESUS                               0503
A0101407720602573340001BERMUNDO, MA. JUANA FLORES                               0502
A0101407720602664929001VITAL, ARIES ZOILON                                      0502
A0101407720602692869001NIELSEN, KAREN LUCERO                                    0502
B0101412180000001293090ADVANI, GHANSHYAM PARASRAM DBU SICHEL &                 11605
B0101412180000001293090SICHEL ENTERPRIS                                        21600
A0101404260611343821001FONTANOZ, EDGAR OR JUDITH                                0505
A0101404260611461489001OBNIAL, ARLENE OPERIO                                    0501
A0101404260611635256001ABELLA, EDUARDO JUAN FAUSTINO                            0505
A0101407690000010774531ESCOLANO JR., BENJAMIN VEGA                              0501
A0101407690652478374034EDNA D. PENALVER - DEALERS OF                           10501
A0101407690652478374034SHOECAT, INC.                                           20500
B0101407690652608206001RAQUEL M. GONZALES                                       1601
A0101413570000007373842WEE, YASMEN ANGELES                                      0501
A0101413990000005447241PANDERO, ALICIA B. DBU ALMEADA                          10501
A0101413990000005447241FASHION                                                 20500
A0101413990000006768581NEBRIA, ESTER P. DBU BUTTER-NUT                         10503
A0101413990000006768581BAKESHOP                                                20500
A0101406590662034547001F.C. DINO CONSTRUCTION                                   0501
A0101406590662206756001LEAH D. SANTIAGO                                         0501
A0101406590662373886002DIZON, ESTELITA UNABIA                                   0502
B1301400210000000023554NORTHCEN DISTRIBUTOR, INC.                               1602
B1301400340000000981933DUNGO, DOLORES LOZADA DBU DOLLY                         11604
B1301400340000000981933DIANNE GARMENTS                                         21600
A1301400340000006402386GREGORIO, MIGUELA DELA CRUZ DBU                         10502
A1301400340000006402386MEL ART ENTERPRISE                                      20500
A1301400500000005963120DIMAPILIS, JESSICA DAYRIT                                0501
A0101408240000006600266SISON, RONNIE CRUZ                                       0502
B0101408240711026617001TOKYO HEALTHLINK, INC.                                   1603
A0101408240000002331204DE LEON, MIGUEL ROBERTO CASUGA                          10501
A0101408240000002331204OR YLAGAN, MARIA TERESA                                 20500
A0101408240711319064001ANA MAY R. WONG LEE                                      0502
A0101408240711604633002MAKASAKIT, ALEX MANALO OR                               10501
A0101408240711604633002ELIZABETH                                               20500
A2801400100712551709001SANTOS, OSCAR CO                                         0510
A2801400230000001782130GOLDEN STATE ALUMINUM GLASS &                           10505
A2801400230000001782130GENERAL MERCHAND                                        20500
B2801400230000005253732WONDERPARK SUBIC CORPORATION                             1601
B4101400260812024102001CITAFEL TRADING & SERVICES                               1606
B4101400260000005724169LANDSQUARE MARKETING CORPORATION                         1601
A4101400390813292154001ANGELO C. MOLATO OR                                     10502
A4101400390813292154001MARIE LYN R. MOLATO                                     20500
A4101400420814478374122AGUILO, RODENA T.                                        0501
A4101400550000001622504ABUDA, ANDRIAN FILBE                                     0501
A4101400550000003839258MATIBAG, JOEY AGDAN                                      0501
B0101412340000000031023OVIALAND INC.                                            1610
A0101404840000004565862CLOTILDE P. ARROYO                                       0501
A0101404840851317230011JIMENO, ROBERT                                           0502
A0101404840851542980001MASANGCAY, NORA VERCELES                                 0501
A0101404840851636387001MATHISEN, MARITES ESTE                                   0501
A0101404840851791747001BALMES, GERVACIO OR SARADAT,                            10501
A0101404840851791747001MONICA OR GALLAG                                        20500
A0101406750000004642320ESPIRITU, ARCHIE VILLANUEVA                              0501
A0101405070000011795712CANAYON, CHERRIE ANNE INOCENCIO                          0501
A0601400230000007402224********************                                     0501
A0601400230000007402224ANGELES, JAY MANABAT OR                                 10501
A0601400230000007402224ANGELES, JOCELYN MUNOZ                                  20500
