B0101401960121821100608**********                                               2003
A3101400160000001559184UEMURA, SEIKO                                            0501
A0101408370382445179001RICKY ALCANTARA SOLAMO                                   0501
A4101400550815042130001DRA. CORAZON MEDINA-DOMINGO DEN                          0501
B4101400550000000900036BACOOR DOCTORS MEDICAL CENTER INC.                       1603
A4101400550000003839167MEMBERS OF NATASHA (SHOECAT INC                          0501
A0101400860011425148001**********                                               0502
A0101400860011478374003**********                                               0502
A0101400860011495810003**********                                               0501
B0101400860011539482001**********                                               1602
A0101400860011541134002**********                                               0502
B0101400150061036325001AIKO ENVIRONMENTAL & GENERAL MANPOWER                   11601
B0101400150061036325001SERVICES INC                                            21600
B0101400150000000633163118 HOOVER CORP.                                         1601
A0101400150061315349052LILIAN MAKALINTAL                                        0501
A0101400150061381319001MYRNA DE JESUS UY                                        0501
A0101400600000001335579********                                                 0501
A0601400100081297133001DIZON, CRISANTA GALANG                                   0510
A0601400100000002365368REGULACION, J DBU JAJEJI MINIBA                          0502
A0601400360000000225221ALFONZO, MA. AILEEN CABALANG                             0502
B0601400520000000398625PADSA ENTERPRISES                                        1602
A0101413280000000312643CARLOS R. ATAYDE OR                                     10501
A0101413280000000312643CARMEN M. ATAYDE                                        20500
A0101410850000003102012MIRAFLOR, JOMAR JOSE                                     0505
A0101410850000003102023******************                                       0505
B0101400730111021999001GLOBETROTTERS, INCORPORATED                              1605
A0101406040000000096957ALVIZ, HAZEL FAJARDO                                     0501
A0101401960000001844500**********                                               0502
B0101401960121748469001GUO, SI CHU                           JT                 1602
A0101400440000000060200LANIE C. BALISONG                                        0501
A0101400440161548266001VICTOR S. GONZALES OR ALMA A.                           10501
A0101400440161548266001GONZALES                                                20500
B0101401090171029222001QCMP INC.                                                1602
B0101401090171037028001MENDOZA & DEL MUNDO JANITORIAL                          11602
B0101401090171037028001SERVICES                                                21600
A0101401090171196061001ROBERTO OR ROLANDO ANASTACIO                            10502
A0101401090171196061001OR MA. TERESA BELMONTE                                  20500
A0301400530000001009943PANTUA, JERSON R.                                        0501
A0301400530000002318509********                                                 0503
A0301400950000002252017**********                                               0501
A0101413600000002122230MARY GRACE EDEJER                                        0501
A3101400160221220150002ANGELITO LAZARO OR MARCIANO PUA                         10502
A3101400160221220150002OR LEONILO ERCIA                                        20500
A3101400160221221032002ARMI ANTIA P MATANGUIHAN    OR                          10502
A3101400160221221032002ARIEN C POLINTAN                                        20500
B3101400160221224760001R. LAPID'S CHICHARON                                     1601
A1001400350000000922252CAUBE, MARIVIC JAMERO DBU                               10503
A1001400350000000922252CAFE LERIS                                              20500
A1001400350233505176001AGAWIN, ERLINDA GALENZOGA                                0502
A1001400350233506665002EMMANUEL C. LIMBO OR HELEN M.                           10505
A1001400350233506665002LIMBO                                                   20500
A0101401670000000739140PESSUMAL, LOKESH KUMAR HASSARAM                         10503
A0101401670000000739140DBU L.H.P. SPECTACLES MFG                               20500
B0101401670271017305001HONGKONG HARDWARE SUPPLIER,                             11601
B0101401670271017305001INC.                                                    21600
B0101401670000000739162ARCHIMATERIALS SUPPLIES TRADING CORP.                    1601
B0101406620273047822001ROCKHAUS REALTY AND DEVELOPMENT INC                      1601
A0101406620273358539001MARIA TERESA L. JAHRLING OR                             10501
A0101406620273358539001ANGELO JAHRLING                                         20500
A0501400200000004456968******                                                   0510
A2601400270000001009118JOSELITO G. VALENCIA                                     0501
B2601400270302047342001WOODSIDE PROPERTIES AND LAND CORPORATION                 1601
A2601400270302631323001MARIA ISABELL R. DULIG                                   0501
A0101402350000003080355TAPEL, BERTILLA TATEL                                    0501
A0101402350321618569001DAMASO, GLORIA SANCHEZ                                   0501
A0101405650322170702003ADAN, ANTONIO D. OR                                     10501
A0101405650322170702003ADAN, GRACE CASTANEDA                                   20500
A0101405650322647248001SEBASTIAN, GENEROSE ALIDO                                0501
B0101402510341018003001COLEGIO MEDICO-FARMACEUTICO                             11606
B0101402510341018003001DE FILIPINAS INC                                        21600
A0101402510341588910001JOPSON, JESSICA GEPOLIO                                  0502
A0101409050352717261001MARIA KATRINA JESSICA M.                                10503
A0101409050352717261001GALLEGOS                                                20500
A0201400760000002309633ESMERALDO L. HERBITO DBU EXA                            10501
A0201400760000002309633SALES INTERNATIONAL                                     20500
A0201400760374327615001MANIQUIS, MA. CELESTE MARTINEZ                           0502
B0201401020000003031141CITADEL MINING CORPORATION                               1602
A0101408370000000014531CARLO EMMANUEL J SUMPAICO                                0501
A0101408790000000579773ASIDDAO, HEHERSON MIRANDA                                0505
A0101411660000000109271JOSE GLEN Y. DE LA ROSA OR                              10501
A0101411660000000109271ROEL S. CONCEPCI                                        20500
A0101408400000000960349CEBALLOS, JUSTINE ANNA CASES                             0502
A0101408950396564288001SYKI-YOUNG, MAE CHUA                                     0503
A0101409210000001024213ESTRADA, JOHN ANTHONY SIASON                             0501
A2401400180000000554949BARONA, ANDYLYN TABACUAN                                 0501
B0101406330000000011690DEUSTONE CORP.                                           1603
A0101406330472478374045LORNA D. GARADO                                          0502
A0101410140000000499054SANSON, NOREEN DBU V.A.N.C.                             10501
A0101410140000000499054GENERAL ENTERPRI                                        20500
A0501400170481252349002LALAS, MAEVA DELA CRUZ                                   0502
A1901400160491476162001GINA A PELESMINA                                         0501
A0101405940512474569001MANAOIS, CYNTHIA HISTORILLO                              0501
A0101405940512502057001MAGSOMBOL, JOSE RESTIE CUETO                             0501
A0101405940512502057001MAGSOMBOL, JOSE RESTIE CUETO                             0502
A0101408110000001823832PATATAG, WILFREDO DBU FLASSIQUE                         10502
A0101408110000001823832FINE FURNITURE & INTERIOR                               20500
A0101408110515705650001************                                             0502
A0101403450000000135544*********                                                0501
B0101403450521011748001**********                                               1603
B0101403450521020358001**********                                               1602
B0101404000551005103001LA HUERTA REALTY & DEVELOPMENT                          11602
B0101404000551005103001CORP.                                                   21600
B0101404000551042547001OCI-UNID PHILS., INC.                                    1602
B0101404130601100121002OMRON ASIA PACIFIC PTE. LTD.                             1602
A0101407720602161854002**********                                               0501
A0101407720602376703002CONRADO T. CALALANG OR                                  10502
A0101407720602376703002JOCELYN CALALANG                                        20500
A0101407720602397125001PASTORES, ELOISA GUZMAN                                  0503
B0101404260000000156972PRIME POWER MANPOWER SERVICES                            1650
B0101404260000000156972PRIME POWER MANPOWER SERVICES                            1650
B0101407690652042381001AUGUSTO S. DE JESUS FARM & LIVESTOCK                     1602
B0101407690652042938001SIGNWOOD HARDWARE & LUMBER SUPPLY                        1603
A0101407690000000914016******                                                   0501
A0101407690652478374140BEATRIZ MANIAGO - DEALERS OF                            10501
A0101407690652478374140SHOECAT INC                                             20500
A0101407690652520766004OLIVE R. DACLIZON - DEALERS OF                          10502
A0101407690652520766004SHOECAT INC.                                            20500
A0101407690652520766009SHERILL S. LOPEZ - DEALERS OF                           10502
A0101407690652520766009SHOECAT INC                                             20500
A0101407690652525001068NORBERTO L. CHO - DEALERS OF                            10502
A0101407690652525001068SHOECAT INC.                                            20500
A0101407690652609264004AUGUSTO DE JESUS OR                                     10502
A0101407690652609264004MILA DE JESUS                                           20500
A0101411530000002260282ROJAS, GERALDINE ABESAMIS                                0501
B0101411530000002641790PETITE GRAINE PRE SCHOOL INC                             1603
A0101413570000002976181MANALILI, EMILY GARCIA                                   0501
B0101413570000000206595CAST IN PLACE SYSTEM BUILDERS INC.                       1601
A0101413990000002962890BACOLOR, ALFREDO SOTERIO                                 0501
B0101413990000000206113DRCB SQUARE CONSTRUCTION AND DEVELOPMENT                11602
B0101413990000000206113CORPORATION                                             21600
B0101410300000000191633THE KIDS FOR KIDS INC.                                   1601
A1301400340683542735002BIUNAS, REMEDIOS GREGORIO                                0501
B0101408240000000832962CARMEL LAND SALES & DEVELOPMENT CORP.                    1610
A0101408240711410292006JOSEFINA OR JUAN OR                                     10505
A0101408240711410292006ALLAN JOSEPH PENA                                       20500
A2801400230000001782123DELOS SANTOS, BERNARD DBU                               10501
A2801400230000001782123MASTER NARD MARKETING                                   20500
A4101400260812492823001BRIAN G. DUA OR SHERYL L. DUA                            0502
A4101400390813017514001PRESTIGE AUTO CARE                                       0501
A4101400420000000120787PENASO, MARIA CONCEPCION LUNA                            0502
A4101400420000003715597DUMA, RAQUEL BIALA                                       0501
A4101400420000004847918VIDAL, TRAZY ALMERIA                                     0501
A0101412340000000223981LUBIS, GIGI S. OR                                       10502
A0101412340000000223981LUBIS, EMMANUEL D.                                      20500
A0101412340000003343597JONATHAN S. GESMUNDO                                     0501
A0101412340000003719522KRISTOFFERSON B. SALVADOR                                0501
A0101412340000003717111EFREN M. PERADILLA                                       0501
A0101412340000001017930SONIA MEDINA SIBI                                        0501
A0101404840851368068003BALAGTAS, ROWELLDA CHIONG                                0502
A0101404840851424338001PAMITTAN, MYRNA M.                                       0503
A0101404840851478374012SAPORNO, ANNABELLE G.                                    0501
A0101404840851542980001MASANGCAY, NORA VERCELES                                 0501
A0101406750000000017490SESE, ALDEN ANTHONY DIZON                                0501
