B0101402510341821100608**********                                               2005
B0601400520000002085890**********                                               1601
A0101402510341379701001ORTEGA, CELIA GEREMIA                                    0501
B0101400150061028993001PHILAGROW INCORPORATED                                   1603
B0101400150000000052695SINAG ENERGY PHILIPPINES INC.                            1602
A0101400150000005015661JOSEPHINE M. ASMUTH                                      0501
A0101400150061227999001HERMOGENE H. REAL                                        0501
A0101400150061541767001INGENIERO, SIEGFRED CANDELARIO                           0501
A0101405810000001021281**********                                               0510
B0601400520000000398512PAGASA PHILIPPINES LENDING COMPANY, INC.                 1606
A0101413730000002289552**********************                                   0501
A0101410850109060464001***************                                          0501
A0101410560000003562138PALIMA, FLEURD ANNE FLOURY O.                            0501
A0101401960121298123001LAILA BURABOD CAY                                        0501
A0101412920000003465063ALMARIO, CORNELIO AQUINO                                 0501
A0101407270000001596876DE PAZ, MAY ANNE CRUZ                                    0501
A0101407270162421293420LIM, JERRY JONES TEH                                     0501
A0101401090171197827001EDWIN S. MARTIN                                          0501
A0301400530000001009943PANTUA, JERSON R.                                        0502
A0301400530000003087392MANGARON, GLORIA LAGRAMA                                 0503
B0301400530000001409741ROBLES, EDDIE DBU VICTORIA CONSTRUCTION                 11601
B0301400530000001409741CELEDONIA ROBLES                                        21600
A0301400950000001379546SARABIA, MAY JOY DUCO                                    0501
A0101401380201371534001JOSIE ASANON                                             0502
B0101410720653030880001NAPOCOR VILLAGE HOMEOWNERS ASSOCIATION                  11601
B0101410720653030880001INC.                                                    21600
A0101410720653046803001BCLOA BUSINESS DATA RESEARCH                            10502
A0101410720653046803001SERVICES                                                20500
A0101410720000000211930NAPOCOR VILLAGE MULTI-PURPOSE                           10501
A0101410720000000211930COOPERATIVE                                             20500
B0101410720000000968112TAN, R DBU BAGONG PAG-ASA BAKERY &                      11601
B0101410720000000968112GROCERY                                                 21600
A0101410720653528817001VINCENT GONZALO SY OR TIMOTHY                           10502
A0101410720653528817001JON SY OR JULIE                                         20500
A0101410720000000095254MIRANDA, ROWENA CRUZ OR                                 10501
A0101410720000000095254MIRANDA, ANTHONY P.                                     20500
A3101400870000005565244ENRIQUEZ II, ANTONIO DEL VALLE                          10501
A3101400870000005565244OR ENRIQUEZ, JOYCE GENSON                               20500
A1001400190231520766103BALCUEVA, CESAR S.                                       0501
A1001400190000001057578LUCIANA B. MAGSAYO                                       0501
A1301400470000004626886LOIDA FUNERAL HOME                                       0504
A1301400470252574644001JERRICO QUIPSE VALINO                                    0501
A1301400760000001295370RAQUEL J. GALANG OR                                     10504
A1301400760000001295370RODERICK V. GALANG                                      20500
B0101406620273016438001LAMCO INTERNATIONAL TRADING CO., INC.                    1602
B0101406620273046998001OAK DRIVE VENTURES, INC.                                 1603
A0101406620273280285001PELAGIO / ROSARIO / REBECCA /                           10501
A0101406620273280285001RAFAEL / ROWENA                                         20500
B0101406620273313299003**********                                               1605
A0101408660274514556002CHOI, JEONG KAY OR                                      10501
A0101408660274514556002LUI, LEUNG CHU                                          20500
B2601400270302045063001ISABELA UNITED DOCTORS MEDICAL                          11620
B2601400270302045063001CENTER, INC.                                            21600
A0801400160000001031332AMIL, WAHAB AHMAD                                        0502
A6601400120314094719001SANTIAGO, CYRIL OR CHERIMIN                              0503
A6601400120314615888088FRANCISCO, EMMA OR REYNALDO                             10504
A6601400120314615888088OR CO, ESTELITA OR ELSIE                                20500
A0101402350321478374054ALEGERE S. TAPAO                                         0501
A0101402510000000003032SANCHEZ, RIA OCAMPO OR SANCHEZ,                         10506
A0101402510000000003032MANUEL OCAMPO                                           20500
A0101402510000001025983ROSITA/MARIE STELLA NAVARRO/                            10501
A0101402510000001025983MARIO POTENCIANO                                        20500
B0201400760374249471002COMMONWEALTH INSURANCE COMPANY                          11602
B0201400760374249471002-OPERATING FUND                                         21600
A0201400760000002309713ARRIOLA, LYLL KAREN BIGORNIA                             0501
A0201401020377046499001TEH, MARIA ELENA BLANCO DBU                             10503
A0201401020377046499001E.T. PRINTSHOPPE                                        20500
A0101408370382387809001DR. LEAH ROSARIO Y. DYCOCO                               0501
A0101408370382433152001DR. ARSENIA V. CRUZ OR                                  10503
A0101408370382433152001MR. ARMANDO E. CRUZ                                     20500
A0101408370000002264080CHAVEZ, CHRISTINE LAOANG                                 0501
A0101408370382652736001VELORO, LYRA VALERA                                      0501
A0101402770000003488033AMBROSE, EDWIN KARL ABAT                                 0501
A0101402770391190325001JOSIE G. PACENCIA                                        0501
A0101402770391712538001RAMOS, MA. CRISTINA JOYCEE                               0501
B0101408400000001258668LAZARO, JENNIFER P AND LAZARO,                          11602
B0101408400000001258668ARRHENIUS                                               21600
A0101409180000006291847LENELLE TRISIA VIDALLON ROSETE                           0502
A2401400180000001676991CASABUENA, RICHARD JOHN JOHN                            10501
A2401400180000001676991FRANCISCO                                               20500
B2401400180411026291001ST. MICHAEL THE ARCHANGEL PARISH                         1610
A2401400180411478374035MERLINDA D. TAMUDTAMUD                                   0501
A1201400150000002325042ANTIPALA, WILFREDO CARPIO                                0501
A1201400150000000034460JOSE, GEMMALYN TANGALIN                                  0501
A0101403320471478374016SONIA SALANIO                                            0501
B0101406330000000432700J30 ADS WORX CO.                                         1601
A0101406330472478374041ROSEMARIE A. NAPIGKIT                                    0502
A0101406330000001235410SHIELA LAPUENTE                                          0501
A0101412760000002067712JOSEPH J. YU                                             0502
B1901400160491012898001BNHS - TEMCO                                             1601
B1401400110492046339001SOUTHERN QUEZON PACIFIC OIL MILL                        11610
B1401400110492046339001CORPORATION                                             21600
B0101407430503015295001PC SUPPLIES, INC.                                        1601
A0101408530000000594149SILVESTRE, AGNES CERVANTES                               0501
B0101403450521011639001**********                                               1605
B0101403450521011657001UPTOWN INDUSTRIAL SALES, INC.                            1610
B0101403450521022302001**********                                               1602
A0101403450521073740001TANDAAN, LEO PANTE                                       0502
A0101403450521240366001**********                                               0502
A0101403450000001769771SANTOS, EMMA CASTILLO                                    0501
A2201400250000001066073JCP AND 3 SONS TRADING CO.                               0502
A2201400250561484428001WILSON LAO SIO OR                                       10502
A2201400250561484428001EDUARD LAO SIO                                          20500
A0101410690000002290815SAN AGUSTIN, ROMUALDO ABAS                               0501
A0101407720602271723012ANTONIO MARLO P. NIEVERA                                 0504
A0101407720602342044001DR. DARWIN ALBERT DASIG                                  0501
B0101412180000000075410ECOLOGY VILLAGE III CONDOMINIUM                         11602
B0101412180000000075410CORPORATION                                             21600
A0101404260000000550092TIU, CH DBU ACN MONEY TRANSFER                           0503
A0101407690652034151001D' ABET JUNK SHOP                                        0502
A0101407690652319667001TANTAMCO, RAMON NICOLAS                                  0510
A0101407690652343143001ANTHONY VINCENT M. BRAVO                                 0501
A0101407690652478374131TARROQUIN, NORA - DEALERS OF                            10501
A0101407690652478374131SHOECAT, INC.                                           20500
A0101407690000000053881********                                                 0503
A0101411530000003238322**********                                               0501
A0101414120000000398961EMERSON VALDEZ OR                                       10502
A0101414120000000398961EDWINA INOCENCIO                                        20500
A0101414120000002879743DE GUZMAN, JENNY MERLIE APOLINA                          0501
B0101414120000001984154RAMY CONSTRUCTION INC.                                   1601
B0101414120000001984289DEMPSEY RESOURCE MANAGEMENT INC.                         1602
A0101408240711478374011LYDIA A. INVENTOR                                        0501
A2801400100712478374001BERNARD R. CORPUS                                        0504
B4101400550815038465004SOUTH EAST ASIAN MEDICAL CENTER INC                      1630
A0101404840851298552055MELBA C. ENGBINO                                         0502
A0101404840851478374190MARIE JEAN A. MOLDEZ                                     0503
A0101405070861027133001WORLDLINKS CABLE WORKS                                   0502
B0101405070000000428795SMARTCOMP SOLUTIONS INC.                                 1601
A0101405070861357456002CARLOS RIVERA OR ARISTOTLE                              10503
A0101405070861357456002NAGUIT OR SHIELA                                        20500
A0601400230891597776001UMANGAY, BEACIELL PANGILINAN                             0502
