B0101401670271821100608**********                                               2005
B0101407850102821100608**********                                               2003
A4101400420814520766038POLINARIO, THERESA BELLEZA                               0501
A4101400420814520766110DELA CRUZ, ARMINDA E.                                    0501
A4101400420000000120696CARMELA G. ROMA                                          0501
A4101400420814768923001VIRTUZ, SALVADOR ABAQUITA OR                            10501
A4101400420814768923001VIRTUZ, REBECCA                                         20500
A1001400350000004095272DADULAS, CHRISTIAN MARK ANTHONY                          0502
B0101401670271029786001AGUIRRE & AGUIRRE LAW FIRM                               1602
A0601400520000001349582MANALOTO, ISRAEL CUNANAN                                 0503
A0101405650322412858003PATATAG, HERMINIA SALAMERO                               0501
A0101403320471047588001RHINA JENEPER C. LIBIRAN DBU                            10502
A0101403320471047588001R-GENESIS DRUG STORE                                    20500
A0101403320000000522381DELA PAZ, CHAUNCEY RAJAL DBU                            10503
A0101403320000000522381GABTECH MEDICAL TRADING                                 20500
A0101403320471633972001CRISTINA LOYOLA YSMAEL                                   0501
A1701400230693045300001INNOVATIVE PHARMACEUTICAL                               10501
A1701400230693045300001MARKETING                                               20500
A1701400230000002762809MUSNI JR., CARLITO  DBU FHAROYO                         10503
A1701400230000002762809TRADING                                                 20500
B4101400420814000717002MARITIME SAVINGS BANK CORPORATION                        1602
A4101400420814422280001DELGADO, ELVIRA CARIENENA                                0502
A0101400150000005015707ROMBAWA, MA JULIE ANN ALIANZA                            0501
A0101400150000006225316GARRA, MARJORIE PEREGRINO                                0501
B0101400150000005015570FIRST DIGITAL FINANCE CORPORATION                        1603
A0601400520000001707028AMBO MARKETING                                           0502
B0101407850102821200608**********                                               2001
B0101414090000002244662THINKSCAPE RESEARCH SERVICES INC.                        1601
A0101401960000002331813LADARAN, LANI VILLANUEVA                                 0501
B0101401830000000033616CARITAS SALVE CREDIT COOPERATIVE                        11604
B0101401830000000033616PACO (006)                                              21600
A0101401830141530136001RACELLE MARY B. ABANES OR                               10501
A0101401830141530136001LUIS FRANCISCO V. LEBRON                                20500
A5001400170000001003381CALIMUTAN, OHARA DELA CERNA OR                          10501
A5001400170000001003381CALIMUTAN, REGINALDO G.                                 20500
A0101400440161044130001KNUFFNA MARKETING                                        0502
A0101407270162472069001MARVIN L. SONGCO OR                                     10503
A0101407270162472069001AMELISA CHELO Y.                                        20500
A0101407270162737553001GERARDO MANUEL LUIS ANONAS OR                           10501
A0101407270162737553001TERESITA ANONAS                                         20500
A0101401090171060220001QUERTI FOOD SERVICES                                     0501
A0101401090171199018001JUDITH TIANGCO QUINTERO                                  0501
A0101401090171310113001RICHARD G. PAZCOGUIN                                     0501
B0301400660000000022835DURABOARD PACKAGING CORP.                                1601
B0101401380201026436088L & G INN CORPORATION                                    1605
B0101412500000000041692MOLDEX PRODUCTS, INC                                     1602
A3101400160221566216001**********                                               0502
A3101400160000002762018*************                                            0501
A3101400450223455809001LANCION, AUREA OR JERIC                                  0502
A3001400130000001271790HERMOSADA, JAME DORIA                                    0501
A3001400130000002063441JONGKO, JOSE MARI MARCO OR                              10502
A3001400130000002063441JONGKO, DEBORAH                                         20500
A1001400190231039064001*****                                                    0504
A1301400470000003270471MARIA CELINA DJ. SIMON                                   0501
A1301400470252690547001EDITH D. MENDOZA                                         0503
A1901400290000003252800CLYMENE LASIN PARCO                                      0501
B1901400290261038035001LMI GROUP FOOD CO. LTD.                                  1603
A1901400290261298552118CONCEPCION GONZALES ESTIGOY                              0502
A1901400290261312691001MA. TERESA LUCELA MIRABEL OR                            10501
A1901400290261312691001JOEL CARDEL MIRABEL                                     20500
A1901400290261380656001DAISY NOCOM CHAN                                         0502
B0101401670271028082002DDT KONSTRACT, INC.                                      1630
B0101401670000004588445THE ASTRA GROUP, INC.                                    1603
A0101401670271291657001ROMULO M. SANTOS, JR. OR                                10502
A0101401670271291657001KATHERINE LOURDES SANTOS                                20500
A0101406620273357236001GABRIELE G. BOSCHI                                       0502
B0101411820000001356827PRINTTALK ADVERTISING INC.                               1604
B0101412470000000949544BEYOND METRO POINTE GREENHILLS INC.                      1604
A0501400200292629875001NAVAL, AMELIA OR NAVAL, MICHAEL                         10501
A0501400200292629875001OR NAVAL JR., ELEUTERIO                                 20500
A2601400270000000561551RODERICK E. MADRIDEO OR                                 10501
A2601400270000000561551JUANITA S. MADRIDEO                                     20500
A2601400270000000561944KAREN B. CARBONEL                                        0501
A0801400160000000476299*********                                                0503
A2001400290315688009001ALGOPERA, LLOYD GARCIA                                   0504
A3401400280318736732001TERESA A. SANTOS OR MA. AILEEN                          10501
A3401400280318736732001A. SANTOS OR TINA S. ONG                                20500
A3401400280000003309139TERESA A. SANTOS OR MARIA                               10501
A3401400280000003309139CONSUELO A. ALMONTE                                     20500
A0101402350321477731003********                                                 0501
A0101402350321526808001LUCITA R. TARRAY                                         0502
B0101405230332821100608**********                                               2002
B0101402510341025648001EXPRESSIONS STATIONERY SHOP, INC.                        1601
A0101402510341305034001PINEDA, MA. THERESA CONCEPCION                          10501
A0101402510341305034001AND CO, ROSARIO                                         20500
A0201400920000000047965TOP WASH LAUNDRY SERVICES                                0501
A0201400920375292220001LIM, HELEN ONG OR LIM, DOMINGO                          10501
A0201400920375292220001OR LIM, ELIZABETH ONG                                   20500
A0201400920000002804504BARENG, NATHALYN C.                                      0503
A0201400890376080642001GALANG, LORLIE PACURIBOT OR                             10502
A0201400890376080642001GALANG, GLENN AN                                        20500
B0101402770391032924001HARRIS MEMORIAL COLLEGE, INC                             1605
A0101402770391043298001BETTER CHOICE CATERING SERVICES                          0501
A0101402770000000360592************                                             0501
A0101405490392040671001JUPX CAR RENTAL                                          0505
A0101405490392481659001MARITES Q. FACTURA                                       0501
A0101408400000001835161LAUD JR., RAYMUNDO CASTROMAYOR                           0501
B0101408950396026318001GLOBAL CITY AUTO SALES, INC.                             1604
A0101409210000006225890VISTRO, LEAH REGALA                                      0501
B2401400180411014575003SOCSKSARGEN FEDERATION OF FISHING &                     11603
B2401400180411014575003ALLIED IND.                                             21600
B2401400180411033733033ECA RESOURCES, INC.                                      1602
A0901400220432478374002EVELYN ALGA DEMECILLO                                    0501
A0101403030441239254001**********                                               0502
A0101403030441560263001MARVIN CO                                                0503
B0101403320471019960002DIRECT ELECTRIX EQUIPMENT                               11605
B0101403320471019960002CORPORATION                                             21600
B0101403320471022141001KINGWANLY ELECTRICAL & EQUIPMENT                        11603
B0101403320471022141001SERVICES                                                21600
A0101403320471478374051MYRA ATANGAN                                             0501
A0101403320471560880001REYNALDO JAMERO SANTIAGO JR.                            10501
A0101403320471560880001OR JOCELYN V. SANTIAGO                                  20500
A0101410140000001074908MEMBERS OF NATASHA (SHOECAT INC                          0501
B1901400160491027966001SALESFORCE ONE MARKETING, INC.                           1605
A1401400110492391436002ELISES, FELIPE VILLAFLOR                                 0501
A1401400110492620230001DELOS SANTOS, ENRICO PEREZ                               0503
A0701400260000000670780JAGUNAP, MARY JEAN SONZA                                 0502
A0701400260000003259432ZAMORA, JULIUS SOPENA                                    0502
B0101407430000000035316D' FRADA ALLIED SERVICES INC.                            1602
A0101407430503557193001ENRICO P. ERIDIO                                         0501
A0101407430503736499001CECILIA P. REVAREZ                                       0501
B0101405940000000886693PHILIPPINE VENDING CORPORATION                           1602
A0101406880000000745000MENDOZA, MARIA THERESA VILLAREA                          0505
B0101406880513038597001ACE AND ASSOCIATES RISK MANAGEMENT, INC.                 1603
B0101408110515021706001XORAND ZOLUTIONS CORPORATION                             1604
A0101411790518701706001********                                                 0503
B0101403610531046549001BIG APPLE PLASTIC PACKAGING INC.                         1602
B0101404000551016034001EASTON PLACE CONDOMINIUM CORP                            1605
A0101404000000003284462SANTOS, DINO LAPUZ                                       0501
A2201400250561478374006ANGELINA P. QUIBALLO                                    10501
A2201400250561478374006MEMBERS OF NATASHA                                      20500
A0101407720602485188001BASBAS, CRISTIE APURADO                                  0501
B0101407720602531639007INTELLIGENT BEAUTY SKIN SOLUTIONS INC.                   1610
A0101404260611478374075VIVENCIA HATOL                                           0501
A0101404260611635256001ABELLA, EDUARDO JUAN FAUSTINO                            0502
A0101409920000000022099DELA VEGA, ANTONIO S. OR                                10501
A0101409920000000022099DELA VEGA, IMELDA                                       20500
A0101409920000000998569MEMBERS OF NATASHA (SHOECAT INC                         10501
A0101409920000000998569PEDROSA, JULIE                                          20500
A0101413990000004511102MANALO, NORA LEGASPI                                     0501
B0101413990000000206204R.R. ENCABO CONSTRUCTORS INCORPORATED                    1605
B0101406590000003007303STUDY PALS ABC INC.                                      1602
A0101406590662519616001MATEO, ARLYN OR LORENZO JR. OR                          10501
A0101406590662519616001LORLYNN OR GERRALD CARLO                                20500
A0101406590662711800002ROQUE, EVELYN VALDOMAR                                   0503
A0101410300000002375904TRISTAN PAUL C. TAGLE OR                                10501
A0101410300000002375904KRISTINE N. TAGL                                        20500
A1301400210682047656001DADSON ENTERPRISES PUMPS                                10510
A1301400210682047656001& WELL DRILLING                                         20500
A1301400340683494901001***                                                      0501
B0101408240000002419923NUTRIBASICS CORPORATION                                  1605
A0101408240711469368001CAGANDA, ANTERO JOSE MADARA                             10501
A0101408240711469368001OR JEANZIE LEE                                          20500
A4101400420000002084584DULAY, BENJIE DBU MADDOX METAL                           0501
A4101400550000000900332FABIAN, APRIL JOY BORRES                                 0502
A0101412340000006046880JON ROGER D. CENAS                                       0501
A0101412340000003438624BERNADETTE A. HODGES                                     0502
B0101406750852023612001LAS PINAS CITY MEDICAL CENTER, INC.                      1610
B0601400230891013018002SAN FERNANDO ELECTRIC LIGHT & POWER                     11602
B0601400230891013018002COMPANY, INC.                                           21600
