A4101400260000000002120LUCIANO, MARIA PAZ GOMEZ                                 0501
A4101400260000000002142TAJANLANGIT, JACKIE C.                                   0502
A0101406750000000090662GONZAGA, LORENDA ABRERA                                  0501
A0101400730000000112881GUTIERREZ, DOMINICA DALISAY                              0501
A0101412630000000180425**************                                           0501
A0301400660000000194701MIJARES, JEFFRAY CASTIGON                                0501
A0101412340000000224035LUNA, NORBERTO CORRAL                                    0501
A0101400150000000253290RULL, RACHEL PELLAS                                      0502
A0101402060000000358565DECENDARIO, MARICHU TADLAN                               0501
A0101414090000000399220ECHEVARRIA III, LEOPOLDO P.                              0502
A0101406330000000451249SITYAR, MA. DOLORES SORIANO                              0503
A0101401250000000460688MAGNO, FLORENCE UY                                       0501
A0101411790000000469596**********                                               0501
A0101411820000000477076SHERYL P. TAYROS                                         0501
A1601400170000000497423MENCHU R. BUADO                                          0501
A0101410560000000590487GAMOLO, CHARLENE NOBLEZA                                 0501
A0101406330000000683307**********                                               0501
A0101411530000000741662**********                                               0501
A0101411660000000751193CLAUDIA M CALIXTO                                        0501
A0101412630000000801596RINONOS, ANALYN TUICO                                    0501
A0101411080000000805936YU, CZARINA ANNE DBU RED DRAGON                          0502
A0101407270000000818246JEFFREY MAIRIM G. GAITAN                                 0502
A0101402930000000859703RIANZARES, ADELINA GARCIA                                0502
A0101401250000000907233JAMITO, GERALDINE QUIBRAL                                0501
A0101407690000000913600MARQUI AUTO SUPPLY                                       0502
A0101407690000000913917MANALAD, ARNOLD SEBASTIAN                                0501
A2801400230000000937640ESCOTO, JOSEPHINE BELTRAN                                0502
A3401400280000000972801FIGUEROA, MA. ANTONETTE HONRADO                          0501
A0101410140000001074862CECILLIA, M DBU DCPM LIGHTS AND                          0502
A0101406330000001235290TERNATE, ERLINDA REYES                                   0501
A0101406750000001491761ANTONIO, IMELDA QUILATAN                                 0501
A0101403320000001646733QUEMADA, ROGENIE BICO                                    0501
A0101400730000001822453RENZ BRYAN R. SAYAROT                                    0501
A0101408400000001952832LUZVIMINDA C AQUINO                                      0501
A0101413280000002317653ANNA MARIE D. MORALES                                    0501
A0101413310000002317831PALACIO, EMMANUEL BANASIHAN                              0502
A0101409890000002802280TAN, JUDY NGO                                            0501
A0101405810000002900961CHUA, JENNIFER GO                                        0501
A0101401250021478374008JENELYN P. DAVID                                         0501
A0101401700041502022001**********                                               0504
A0101405810072234635002DY, SUSANA                                               0501
A0101405810072367320001**********                                               0506
A0101405810072470925002***************                                          0505
A0601400100081033811001CIRENEJ ENTERPRISES CO.                                  0505
A0101400440161525001073TERESITA G. PARRO                                        0501
A0101407270162567717001JONALYN D. DOROJA                                        0501
A0101401090171290167001BERNADETTE G. BECARES                                    0501
A0101401090171335675001ANNIELYN I. CAAG                                         0501
A0101401090171536816001STEPHANIE C. REYES                                       0501
A0101407140213026790001**********                                               0502
A3101400160221443010001ERLYN B. LEVISTE                                         0501
A3001400130230760114088MARTINEZ, NOEL INCHOCO                                   0502
A3001400130230767566052FLORES, VIRGINIA MALBAS                                  0501
A0101400570281441951010VICTOR FELIX S. GADDI                                    0505
A6601400120314041602001LEXTAN GENERAL MERCHANDISE                               0502
A6601400120314628159001EVANGELISTA, RIA CENTINO                                 0501
A3401400280318478374009MIRAFLOR A. DELOS SANTOS                                 0502
A3401400280318751590001DELFIN, ALEX GALLAZA                                     0501
A0101402350321399968003GALEA, CRISTINA ENOY                                     0502
A0101402350321478374038BAJARO, MELANIE                                          0502
A0101402350321485233001TUI, CHARLES ANGELO                                      0503
A0101405650322154163002BABASA, ZENAIDA ROXAS                                    0502
A0101405650322401342001VILLAREAL, EARL FIDEL MONTERO                            0502
A0101405650322643469001ALFUERTO, MILAGROS NARCISO                               0501
A0101402930381205175001DR. MARILYN D. RUARO                                     0501
A0101402930381377809001MA. CRISTINA Z. BORRA                                    0501
A0101408370382390589002ERROL FIDEL H. MANANQUIL                                 0501
A0101408950396567425001DR. SHEILA LYN REMOT RANIN                               0502
A0101403320471429191002CECILE CABALLA                                           0503
A0101406330472206357001ROBERT C. ANG                                            0503
A0101406330472311319001ALEJANDRO V. VICTORINO JR.                               0502
A0101406330472499861001*****                                                    0501
A0101406330472566475001MICHELLE A. MACALINAO                                    0501
A0101406330472696737001RECHIE LOPEZ RAZON                                       0503
A0101408530516568848001TANGCO, ERWIN CHUA                                       0501
A0101403450521238052007**********                                               0520
A0101403450521368963001YAO, SANDRA MAE YU                                       0501
A0101403450521456076001SY, PACITA LIM                                           0501
A0101403450521473538001********                                                 0502
A2201400250561030356001RELIABLE PESOREMIT(PHILS.),INC.                          0501
A0101404130601754982001FERNANDO, ROBERTO MANIBO                                 0502
A0101407720602090199001ABUYEN, MARIA TERESA SISON                               0501
A0101407720602241314001**********                                               0502
A0101407720602340866001HONG, CRISTINA CHO                                       0501
A0101407720602397425001HENSON, MARIA THERESA GUEVARA                            0501
A0101407720602559882001*******                                                  0501
A0101404260611150835001HENRY OR LAI SHA CHING                                   0505
A0101404420631478374124SONIA T. LUBRICO                                         0501
A0101407690652420177001ARTECHE, ARNEL VERSOZA                                   0501
A0101406590662211749002ALONZO, LETICIA TUAZON                                   0501
A1301400340683353482001JOSE, MARLENE RODIL                                      0502
A0101407560686225474002ALBERTO D. SANTIAGO                                      0501
A0101407560686313158002********                                                 0502
A0101407560686478374017JOY CARMELO                                              0501
A0101407560686662041001RACHIEL R. CORDOVA                                       0501
A4101400420814563726001TWANO, ANGELITO DIZON                                    0502
A0101404840851520766155JOSEFINA VERGARA                                         0501
A0101406750852547025001LABANZA, YOLANDA LOZADA                                  0501
A0101406750000000017507VARGAS, ELENNETT LUCAS DBU VIG                          10505
A0101411660000000109271JOSE GLEN Y. DE LA ROSA OR                              10501
A0101410300000000592154MILLAR, JOSEFINA C. OR                                  10503
A2801400230000001734721BASUBAS, L DBU AMBRAND ENGINEER                         10501
A0101409920000001951880MEMBERS OF NATASHA (SHOECAT INC                         10502
A0201401020000002250471CAGASAN, ROBERTO SEFIL OR                               10501
A0101401700041188748001WILLIAM C. TING TAN OR                                  10501
A0601400100081251935001DIZON, HENEDINA OR DIZON, TANYA                         10503
A0101402350321365573001CORAZON M. FERMIN OR ROSARIO C.                         10502
A0101402930381207255002JOCELYN BARTOLOME OR                                    10501
A2401400180411478374061JUNRES AGAD OR                                          10501
A2401400180411539646003ONCADA, VANESSA CALUBIA OR                              10502
A0101405940512522504001YU, JONATHAN MARC CHAM OR                               10502
A0101407720602294677001RAYMUND I. DURAN OR                                     10503
A0101407720602367391001STO. DOMINGO JR., MANUEL RAMON                          10502
A0101407720602398260002JON EDWARD B. JURILLA OR                                10504
A0101407690652478374140BEATRIZ MANIAGO - DEALERS OF                            10501
A0101406590662359479001PILAR JINGCO OR CASTO JINGCO                            10501
A0101406590662470961001VALMOCINA, ESTRELLA C. OR                               10510
A2801400230713045955001LITTLE SCISSORS UNISEX SALON                            10501
A0101406750000000017507ENTERPRISE                                              20500
A0101411660000000109271ROEL S. CONCEPCION                                      20500
A0101410300000000592154MELCHOR, GISELA M.                                      20500
A2801400230000001734721SRVS & TRDNG OR GALO, RON                               20500
A0101409920000001951880DEJUCOS, PURITA                                         20500
A0201401020000002250471CAGASAN, CHRISTINE VANO                                 20500
A0101401700041188748001HELEN O. TAN                                            20500
A0601400100081251935001OR DIZON, ROWENA                                        20500
A0101402350321365573001MERCADO OR JOSE D. GANTAN                               20500
A0101402930381207255002CANDIDO EDUARDO                                         20500
A2401400180411478374061NORMELITA BLANCO                                        20500
A2401400180411539646003ONCADA, JOSEPH Q                                        20500
A0101405940512522504001YU, HENRY                                               20500
A0101407720602294677001IRENE MAE T. DURAN                                      20500
A0101407720602367391001FRANCISCO                                               20500
A0101407720602398260002JOAN S. GATCHALIAN                                      20500
A0101407690652478374140SHOECAT INC                                             20500
A0101406590662359479001CELMA JINGCO                                            20500
A0101406590662470961001GUTIERREZ, MARY ANNE                                    20500
A2801400230713045955001RONNIE B. RUIZ                                          20500
B0101412890000000006919VAMECA FOODS INCORPORATED                                1603
B0101407690000000025083HAPPYMATS INC.                                           1605
B0101413020000000038388**********                                               1602
B0101406620000000194143MATCH CONTRACT FURNITURE, INC.                           1601
B0101406620000000194154ADRENALINE SPORTING GOODS, INC.                          1605
B0101406330000000432762BROADCAST & TELECOM SUPPLY (BTSI) INC.                   1602
B0101406880000001227452E. ZOBEL FOUNDATION, INC.                                1605
B0101408820000001766867******                                                   1605
B0101405810072030630001***************                                          1603
B0101400310211054220001SALAZAR, GAYSLE DBU GBS ENTERPRISE                       1601
B1001400350233041261018CENTRO SUPERSALES INC.                                   1610
B0101406620273031145001KOHL INDUSTRIES CORPORATION                              1603
B0101406620273031145001KOHL INDUSTRIES CORPORATION                              1601
B0101406620273459504001SANOSIL PHILIPPINES INC.                                 1603
B2001400290315044204001ACEBANK CREDIT, INC.                                     1601
B0201400760374043449001CEBU TENPIN BOWLING ASSOCIATION                          1602
B0201400920375036250188OCEAN TRANSPORT GROUP OF COMPANIES, INC.                 1605
B0101402930381008829002AXEIA DEVELOPMENT CORP.                                  1615
B0101403030441593223001**********                                               1601
B0101406330472032269001MONTECRUZ ENTERPRISES, INC.                              1610
B0101406330472441865001HALTBAR INDUSTRIES, INC.                                 1602
B0501400170481013098001MOTORPLAZA INCORPORATED                                  1603
B0101407430503024216001BASIC POLYPRINTERS & PACKAGING CORP.                     1605
B0101406880513515077001CLARKZILLA CORPORATION                                   1610
B0101411790518039183001MONDECO FOREX DEALER, INC.                               1601
B0101403450521011639001**********                                               1605
B0101403450521012009001SYMPHONY TECHNOLOGIES, INC.                              1603
B4101400390813021892003FAREMO INTERNATIONAL, INC.                               1605
B0101406330000000432773SANTOS, RAYMOND D. OR BRIGUERA,                         11601
B0101406620273009744001NORCONSULT MANAGEMENT SERVICES PHILS.,                  11602
B0101406620273026526001LAW FIRM OF KALAW SY VIDA SELVA &                       11601
B0101402930381017213007UNIVERSAL ROBINA CORPORATION                            11602
B1901400160491341189001VIRGINIA R VARGAS OR                                    11601
B4101400550815040997005MAHARLIKA CONCRETE PRODUCTS AND                         11602
B0101406330000000432773LOURDES V.                                              21600
B0101406620273009744001INC.                                                    21600
B0101406620273026526001CAMPOS                                                  21600
B0101402930381017213007URC - CMC                                               21600
B1901400160491341189001RICHARD D LIM                                           21600
B4101400550815040997005CONST. SUPPLY                                           21600
B2101400190229821100608**********                                               2005
B1101400120313821100608**********                                               2003
B0901400190431821100608**********                                               2005
B0101411530654821100608**********                                               2002
