A0101412630000014360215RICALDE, EFREN ESPIRITU SANTO                            0501
A0101412630000000801610CORDERO, ARIANNE CERVANTES                               0501
A5501400120000002348325ANG, ANDY MAN CHUNG CHANG                                0505
A5501400120000006976790CHIU, VALENTIN SIRA                                      0501
A0101410300000012210829FERRER, IGMIDIO MARIANO                                  0501
A0101401250021178978001BERTOL, LOLITA B. OR                                    10502
A0101401250021178978001BERTOL, LIEZL B.                                        20500
B0101400150061010770003GOODWOOD RESOURCE DEVELOPMENT INC                        1601
B0101400150000000633174MEGA TREND FOREX CORPORATION                             1601
B0101400150000004090128TRINOMA ROASTERS INC                                     1605
A0101400600071705835001********                                                 0501
A0101405810072373149001TAN, JULIET SEE                                          0501
B0601400100000000032771**********                                               1610
B0101413280000000041910INTERNET OF THINGS PHILIPPINES INC.                      1602
A0101412630000004609643ARCEO, JESUSA ACULLADOR                                  0501
A0101413310000014242581ANGCO, JULIE ANN MOJICA OR                              10502
A0101413310000014242581ANGCO, KELVIN ANG                                       20500
B0101401830000000033616CARITAS SALVE CREDIT COOPERATIVE                        11603
B0101401830000000033616PACO (006)                                              21600
B0101401830000000033638CARITAS SALVE CREDIT COOPERATIVE                        11603
B0101401830000000033638(MANDALUYONG)008                                        21600
A0101401830141525097002SAMSON, HERMINIO GARCIA                                  0501
B0101401090000000772441B.A. ELECTRICAL SUPPLY                                   1610
B0101401090000000210482BLUMEX PLUS CREDIT INVESTOR INC.                         1610
B0301400660194046073088WEST EMPIRE SEAFOODS AND CHINESE RESTAUR                11610
B0301400660194046073088ANT                                                     21600
B0101401380201018537001VELUZAR(PASAY) INC.                                      1601
A3101400160000014144060PINTO, MARLYN CORTEZ                                     0501
B3101400160221020497001AGUA CALIENTE HOT SPRING RESORT                          1603
A3101400450000002092877ONTE, MICHELLE ENRIQUEZ                                  0501
A1001400190000005944578SARAUS, BAMBET SOGOC                                     0501
B1001400190231022073001FARASIA EDUCATIONAL LIBRARY COR                          1601
B1001400190231059545001LIVINGROCK DEVELOPMENT & GENERAL                        11602
B1001400190231059545001SERVICES INC.                                           21600
A1001400190231380503007DRA. CYNTHIA BACONGA                                    10503
A1001400190231380503007PHILAMCARE DOCTO                                        20500
A1001400190231520766108PALUNPON, EPLIDA J.                                      0501
B1001400350000007920876PEARSON, PILARCITA ROA AND  HEQUILAN,                   11602
B1001400350000007920876ELVIE CORTEZ                                            21600
A1001400350233095700001REBUSORA, RUE ALEJANDRA                                  0501
A1001400480000014370037LEPARTO, JAYMAR CATIAN OR                               10501
A1001400480000014370037LEPARTO, APRIL GRACE N                                  20500
A1001400480000014398851DANGO, JAIME CABILLA                                     0501
B1301400760000000007143CONSUMERREACH, INC.                                      1610
B1301400760000000007201CONSUMERREACH, INC.                                      1610
A0101412470000002086364**********                                               0501
B0101412470000008927540*******                                                  1601
B0101400570000013647253EIGHT TRIMEDIA PRO, INC.                                 1601
A0101400570281491930001RODRIGUEZ, SHAUN DEDICATORIA                             0501
A6601400120314079723001TENTATIVA, ROSALIE BALANDO                               0501
A6601400120314618149001DY, FRANCO NEIL TUBELLO                                  0510
B2001400290315045962001DUPLAMILCO, INC.                                         1602
A0101402510000013485582RAGOS, KATHLEEN CHARMAINE                               10502
A0101402510000013485582SAN JUAN                                                20500
B0101402930381045839001EQUILAND PROPERTY MANAGEMENT (EPMC)                      1601
A0101408370382205161001DR. WILLY G. LOPEZ                                       0505
A0101408790000014440581LAUBAN, DATU SADAT SALIK                                 0501
A0101402770000000360643TY, RICHARD QUIZON                                       0502
B0101402770000001571682ST. ARNOLD JANSSEN SHRINE MULTI-PURPOSE                 11604
B0101402770000001571682COOPERATIVE                                             21600
A0101402770391442003001SONIA A. FUGEN OR NOEL P. FUGEN                          0501
A0101408400000001614659MILLARI, JOANNA EVA MARIE C.                             0501
A0101409180000014440712CIRINEO, RIA MIGUEL                                      0501
A0101409180000011750086ALMAZAR, JOHANNA CONCEPCION J.                           0502
B0101409180397044045001CACHO CONSTRUCTIONS, INC.                                1603
A0101409210000013858570ANGELES, MICHAEL  VITUG                                  0502
A0301400820000007372809CAI, LILI                                                0505
B0301400820000010546437ONG, PETER DBU GINA AND JACKSON                         11605
B0301400820000010546437MARKETING                                               21600
B0301400820000010546493ONG, PETER DBU GINA AND JACKSON                         11605
B0301400820000010546493MARKETING                                               21600
A0101403320000014441595JOHN MARK M. BORJA                                       0501
A0101403320000014446778JASON GERARD P. GONZALES                                 0501
A0101403320000012691500PACIFICAR PLASTIC PRODUCT                                0502
B0101403320000012881886ARCTIQ REALTY CORPORATION                                1602
A0101403320000014444954F. LUCERIO ACCOUNTING SERVICES                           0501
A0101403320471004315001UCLARAY, NASSER JULIUS C. DBU                           10502
A0101403320471004315001UCLARAY TRANSPORT                                       20500
B0101406330000000432631DAROMAR DEVELOPMENT CORP.                                1601
B0101406330000000162690SOLUTIONS CENTER INC.                                    1601
A0101406330472528023001RONALDO L. GERON                                         0502
B1901400160491035389001SAINT PATRICK'S HOSPITAL, INC.                           1601
A0101408530000004647912KEVIN S. JURADO                                          0501
A0101408530516615903006**********                                               0501
A0101403450000001769953**********                                               0501
A0101403610000007124796ALVAREZ, MARIA LUISA ZABALA                              0501
A0101403610000014444743BLANCO, KATRINA GRACE MENDOZA                            0501
A0101407720602163476001PAGDANGANAN, ERNEST APACIBLE                             0501
A0101407720602396272001ROMANA BORROMEO OR RAFAEL                               10502
A0101407720602396272001BORROMEO OR RUTH SY                                     20500
A0101407720000000245145VICTOR L. GISBERT OR                                    10502
A0101407720000000245145ARLENE MAY A. GISBERT                                   20500
A0101407720602471443001PULIDO, ALLYSON VINA                                    10501
A0101407720602471443001CRISOSTOMO                                              20500
A0101412180000010394948CRUZ, MA. KARLA PATRICIA STREEG                          0502
A0101409920000010528639BERNARDO, JOEL O. DBU                                   10502
A0101409920000010528639OR BERNARDO, IRENE                                      20500
A0101407690652513136001GUINTO, ROSARIO OR WINSTON                               0502
A0101411530000005493632**********                                               0501
A0101413570000002976141JENNIFER A. SANTIAGO                                     0501
A0101413570000005867430*******************                                      0501
A1301400500000002063849SOLITA A. BAYAN                                         10505
A1301400500000002063849OR RONALD M. BAYAN                                      20500
A1301400500000006218679BAUTISTA, VENSON FABIAN                                  0501
A0101408240000002821952DIMARUCUT, JEFFREY MACASPAC                              0501
A0101408240000008854480ZAVALLA, MARIO ANGELO SEBASTIAN                         10501
A0101408240000008854480or ZAVALLA, JOSE DOMENICO                               20500
B2801400100712043405001MALAYAN TOWAGE & SALVAGE CORPORATION                    11605
B2801400100712043405001- SUBIC                                                 21600
B2801400230000005253641COST OF MONEY LENDING CORPORATION                        1605
B2801400230000009021932SAMER GLOBAL MANPOWER SERVICES, INC                      1602
B4101400260000006043818IMUS FAMILY HOSPITAL INC.                                1610
A4101400390000003346103YABUT, ANNALIZA GAMBOA DBU AGY                          10502
A4101400390000003346103MANAGEMENT SERVI                                        20500
A4101400390813420483001ALBOLERAS, LIZETTE YOLANGCO                              0501
B4101400550000006044042URESHI FUDO CORPORATION                                  1603
B0101404840000006365295PI COOL GAGS, INC.                                       1601
