A0101414120000004603398WEBLEND INC.                                             0501
A3001400130000006701140BALINGIT, CHRISTINE LASCO                                0501
A0101403320000007984943GESTIADA, DALISAY DELA CRUZ                              0501
A0101400440161478374198EUFRONIA I. BERGONIA                                     0501
B0301400950000002115651ZILVERBAND, INC.                                         1602
A0101401670000003675230CORTEZ, DARYL ANN SANTOS                                 0502
B0101406620000003497278JOBIN-SQM INC.                                           1603
A0101402930381478374002EMILY B. DUENAS                                          0502
A0101414120000006864442VALDEZ, EMERSON V. OR                                   10502
A0101414120000006864442INOCENCIO, EDWIN                                        20500
B0101414120000003584281JD & P FOOD TRADING CORPORATION                          1601
B0101400860000007087121**********                                               1602
A0101400860011475361001**********                                               0505
A0101400860011486826001**********                                               0505
B0101400150061037260001TAO COMMODITY TRADER, INC.                               1602
A0101400150000003601061OJEDA, RENEE BACSAL DBU SECTOR                           0502
A0101400150061073880018ADRIAN G. TE                                             0501
A0101400150061430140001**********                                               0501
B0601400100081029282001L5 & SONS FINANCING CORP.                                1605
A0601400520000001349662TIMBOL ROMAN MANALOTO                                   10501
A0601400520000001349662ACCTNG & TAX CON                                        20500
A0601400520000001349617TIATCO, LIRNA PINEDA                                     0503
A0101410850000003504003**********                                               0501
A0101410850000000778827MABOLO ENTERPRISES                                       0505
A0101410560110478374009SAUDILYN M. PENAS                                        0502
B0101400730111042662001CENCAR CORP.                                             1603
A0101401960121322704001**********                                               0503
B0101412630000002186461**********                                               1604
B0101412630000002186461SUNLAND DEVELOPMENT CORP.                                1601
B0101401830141032221001CARITAS ET LABORA HUMAN RESOURCE SERVICE                11606
B0101401830141032221001COOP.                                                   21600
B0101400440161021125001AAREMA SHIPPING AND TRADING COMPANY, INC                 1603
A0101400440161520766193LEILANIE P. LOCSIN                                       0501
A0101400440161591337001JENESSEY A. RANCES OR                                   10502
A0101400440161591337001JESSIE O. RANCES                                        20500
A0101407270000001596923KATHERINE SUZANNE B. ROBLES                              0501
A0101407270000003253949GERONIMO, KEVIN RAE TAN                                  0501
A0101401090000005320369LAXA JR., ADORABLE PINPIN                                0501
B0101401090171025982001SELEGNA HOLDINGS CORPORATION                             1605
B0101401090171039914001SIMPLELINE INC.                                          1602
A0101401380000005320887BATUIGAS, AURORA REBOQUIO                                0502
A0101413020000000880553***************                                          0502
A0101412500000001146805ARROJADO, JENNIFER DY                                    0501
B0101412500000000739737MIKEWELL WORLD OF HOUSEHOLD PRODUCTS                    11605
B0101412500000000739737CORPORATION                                             21600
A3101400160000002762030RONALDO M. DELA CRUZ AND                                10503
A3101400160000002762030JOSELITO M. GUEVARRA                                    20500
A3001400130000002063412CARIAGA, GIRLY GORGONIO                                  0502
A3001400130230478374004BALABA, JANETH BORJA                                     0501
A1001400190000002698960RONTAL, KENNETH RALPH ACUNA                              0501
A1001400190231036837001RTD MARKETING                                            0505
B1001400190231272348001LAO, SHERWIN                                             1602
A1001400190231520766112ALIBIO, NELYBETH TACBOBO                                 0501
A1001400190000000016457ANTIGA, LUNITA                                           0501
B1301400470000000009641TOYOTA CABANATUAN CITY, INC.                             1603
A0101401670271197188001STO. DOMINGO, CESAR                                      0504
A0101406620000001686882AVINANTE, BERNARD CONCEPCION                             0501
B0101406620273012462006COL FINANCIAL GROUP, INC.                                1610
B0101406620273733659001ULTRAGAS CARRIERS CORP.                                  1602
A0101411820000005380092MARITESS M. SO                                           0502
A0101411820000001356532BLISS BEAUTY SPOT SALON AND SPA                          0502
B0101411820000003085010FEDERAL PIONEER DEVELOPMENT CORP.                        1601
B2301400150301821100608**********                                               2002
A2601400270000000561693ROMARICK G. TABUCOL                                      0501
A66014001203140421880015G GALVEZ CONSTRUCTION                                  10502
A6601400120314042188001AND SUPPLY                                              20500
A6601400120314071890001MARTIRES, MYLA TURLA                                     0502
A6601400120314087821001APELO, ALMIRA TOBES                                      0501
A2001400290000002319520CADAMPOG, JOSE GLENN CENIZA                              0501
A2001400290000002319520CADAMPOG, JOSE GLENN CENIZA                              0504
A3401400280000003309191CAPUNONG, ROMULO DELCANO                                 0502
B0101402350321012315001BENAMI MANUFACTURING CORPORATION                         1601
B0101405650322023520001ACES CHASSIS LEASING INC.                                1602
A0101405650322188520001PACA, ARNULFO G. OR                                     10501
A0101405650322188520001PACA, VIOLETA C.                                        20500
A0101402510341595415001ESTRELLA, MARIA LANI SARAJAN                             0503
B0201400760374006430001CHRIST COMMISSION FOUNDATION INC.                        1602
A0201400760374030540001ST. FRANCIS MANPOWER SERVICES                            0501
B0201400760374033207001W.T. CONSTRUCTION, INC.                                  1606
B0201400760374249471002COMMONWEALTH INSURANCE COMPANY                          11602
B0201400760374249471002-OPERATING FUND                                         21600
B0201400760000000222762UY, JOHN CHIU OR JOHN JEFFERSON                          1605
A0201400920375534474003CHUA, JEFFREY O. OR                                     10502
A0201400920375534474003CHUA, SHEILA FAT                                        20500
A0101402930000003710687JOSON, ANTHONY SIAO OR JOSON,                           10505
A0101402930000003710687MICHAEL ANTHONY                                         20500
B0101402930381009107001PHILIPPINE PSYCHIATRIC                                  11605
B0101402930381009107001ASSOCIATION INC.                                        21600
B0101402930381014599001HEALTH SOLUTIONS CORPORATION                             1603
B0101411660000007555715MALCOLM LAW OFFICES                                      1610
A0101408400000005286524GARCIA, MUSTIOLA STA. ANA                                0501
A0301400820000006542732NAMOC, ROY B. OR NAMOC, ANN                             10502
A0301400820000006542732MARIE K.                                                20500
A0301400820000000316572LOURDES N. DAYRIT                                        0501
B0901400190431821100608**********                                               2002
A0101403030000005944818**********                                               0502
A0101403320000001803190HILARIO, MICHAEL OR HILARIO                             10502
A0101403320000001803190ANNA MARIA GWEND                                        20500
A0101403320471047334001OLIVAR, MARIA CRISTINA DBU AI2                          10502
A0101403320471047334001DECALS & STICKER                                        20500
A0101403320471529589001RUPERTO B. TADY                                          0501
A0101410140000000499134LANORIAS, JOVENNES DAVID                                 0502
A0501400170481318580004ANA CRISTINA L SINLAO                                    0503
B1401400110492046339001SOUTHERN QUEZON PACIFIC OIL MILL                        11615
B1401400110492046339001CORPORATION                                             21600
B0101407430503042216001HIGH COMMAND AVIATION SECURITY                          11605
B0101407430503042216001SERVICES CORP.                                          21600
A0101403580511686241001TOLENTINO, FRANCIA SALAZAR                               0501
A0101405940512397652001JULIETA B. JAVIER                                        0506
A0101411400000005329762BRINAS, AIZZA FRANCESCA VELARDE                          0502
B0101411400000006560990WY, DEE HUA GAN DBU VAGABOND FINE                       11601
B0101411400000006560990RESTAURANT                                              21600
A0101412050000000697241CASTILLON, IMEE                                          0501
A2201400250561028844002CHRISTIAN HOME FURNISHING                                0504
A0101407720602283353001ERWIN HERNANDEZ OR                                      10501
A0101407720602283353001AGNES HERNANDEZ                                         20500
A0101407720602390297001PREYSLER, MARIVIC G.                                     0501
A0101409920000006336785NAVARRO, NORMAN CALAPIS                                  0505
A0101409920000001951931MEMBERS OF NATASHA (SHOECAT INC                         10501
A0101409920000001951931TRASPORTE, GINA                                         20500
A0101407690652525001060SUSANA MORENO - DEALERS OF                              10501
A0101407690652525001060SHOECAT INC.                                            20500
A0101407690652525001081AGUSTINO, ROWENA - DEALERS OF                           10501
A0101407690652525001081SHOECAT INC.                                            20500
A0101407690652564294003GALVEZ, NERISA RIVERA                                    0504
A0101407690652657776001FULLIDO, NOEL MICULOB                                    0502
A0101411530000006217483**********                                               0501
A0101413990000004511077ESPEJO, MA. CAMILLE T. OR                               10501
A0101413990000004511077ESPEJO, MARLO L.                                        20500
B0101406590662044117002D VISAGE INTERNATIONAL CORPORATION                       1602
B0101406590000006921593SAMUEL T. AGUSTIN II CONSTRUCTION CORP.                  1602
A0101406590662283470003RAMNANI, CARMEN OR PRIYA                                 0501
A1301400210000000023263MARIE CONCEPCION M CRUZ                                  0501
B1301400210682016750001JFL AGRI VENTURE SUPPLIES                                1606
A1301400340683378423001OCAMPO, MA. LEONORA EUGENIO                              0502
A1301400500000000213436ROSALINDA P. CASTILLO                                    0501
B0101408240711008252001PETROLIFT CLASSED CARRIERS, INC.                         1610
B0101408240711062863001ILWOOTEC E & C PHILIPPINES INC.                          1601
B0101408240711062863002ILWOOTEC E & C PHILIPPINES INC.                          1601
A0101408240711384215003LOURDES GRACE MAPALAD                                    0501
A0101408240711469368001CAGANDA, ANTERO JOSE MADARA                             10501
A0101408240711469368001OR JEANZIE LEE                                          20500
A4101400260812247086002ROWENA B. ESCALANTE                                      0501
A4101400260812423341001ESTEFANIA B. RANDOY                                      0505
A4101400390000006302483BAGUINDA, FARIDAH MUSTAPHA DBU                          10501
A4101400390000006302483FARD'S FASHION STORE                                    20500
A4101400390813464584001MANDANI, JOCELYN FERNANDEZ                               0502
A4101400550000000506790CANO, GENALYN BUCUD                                      0501
A0101412340000003761795ARNULFO M. DOMINGO                                       0501
A0101412340000004877341ANGELIQUE D. CADISAL                                     0501
B0101404840851214607001KAWASAKI EMPLOYEES MULTI-PURPOSE                        11605
B0101404840851214607001COOPERATIVE                                             21600
A0101404840851415679001AMORES, ROSEMARIE B.                                     0502
A0101404840851420697001LAYAO, FRANCIA CUETO                                     0503
A0101405070000002282048NG, ELAINE LILANI TEE                                    0501
B0101405070861017545001MC TRAVEL AVIATION SERVICES CORP.                        1606
