B0101400440161821100608**********                                               2003
B0601400100081013319001ANGELES CITY UNIVERSAL MARKETING                        11602
B0601400100081013319001CORPORATION                                             21600
B0601400100081253610002NG, WILFREDO M. AND AQUINO, JANET B. AND                11601
B0601400100081253610002BUAN, ROLAND S.                                         21600
A0101412890000002747982CRUZ, VIRGILIO DELA PAZ                                  0501
B0101412890000001765302SOFTWALK MANUFACTURING, INC.                             1605
B0101403580511015363080MEC - TREETOP VILLAS                                     1610
B0101403580000000015738MEC - SPV 5 & 6                                          1610
B0101403580511155011002EXCHANGE EQUITY CORP.                                    1602
A0101403580511156580005MANUEL R. GUILLERMO                                      0502
B0101403580511675350001EMPOWERING BRILLIANT MINDS                              11602
B0101403580511675350001FOUNDATION INC.                                         21600
A0101411790000000469461PANGILINAN, R DBU RLRM ENTERPRI                          0502
A4101400260000001198563BACOLOD, SADAM SARIP                                     0501
A0101401250000003980730GALVAN, IRENE BRIN                                       0501
A0101401250021179125001MA. TERESA LOPA OR ISABEL LOPA                          10502
A0101401250021179125001OR MANUEL LOPA III                                      20500
A0101401250000004374583CASTA, LORENA L.                                         0502
B0101400150061011038001114 VALERO CONDOMINIUM CORPORATION                       1602
A0101400150061226702002**********                                               0501
A0101400150061530614001MACATANGAY, BAMBI DIVINA                                 0501
A0101400150061707501001ANG, JEANILLE ALYANNA UY                                 0501
A0101400600071232719001*******                                                  0501
A0101400600071235573001**********                                               0501
A0101405810072319037001**********                                               0501
A0101405810072354724003FUENTES, LILIA S.                                        0501
B0101405810072361051001**********                                               1601
A0601400100081032955001JENPREZ LAUNDRYNET                                       0501
B0101410560000000757211**********                                               1601
B0101400730111024044002CREDITNET PHILIPPINES INCORPORATED                       1605
B0101401960121044032001EASTERN INTEGRATED SYSTEM & AUTOMATION                   1602
A0101401960000000211036**********************                                   0501
A0101401830141409771001ALRIC P. BOBO                                            0501
A0101401830000001140010SANTOS, ROSIELYN LUCERO OR                              10501
A0101401830000001140010SANTOS, MICHAEL DAGAL                                   20500
A0101401830141762818001MORLA, CRESENCIO TOMINES OR                             10501
A0101401830141762818001MORLA, FRANCISCA CUARESMA                               20500
A0101412920000005230277DEL MORO, KRIS ORIGENES                                  0501
A0101400440000003705946ESTELITA MELEGRITO                                       0502
A0101400440161525001033MARY JANE V. MACALINAO                                   0502
A0101400440161531101001JOVYLYN D. PASCO                                         0502
B0101401090171008455001UNIVERSITY OF SANTO TOMAS FACULTY UNION                 11615
B0101401090171008455001(USTFU)                                                 21600
A0101401090000001619030PESO, MARIA CECILIA S. OR                               10501
A0101401090000001619030AQUINO, MARIA CRISTINA S.                               20500
A0301400530000000065832PERIAS, FE                                               0501
A0301400530193617407001DAHILOG, FELY L. OR                                     10501
A0301400530193617407001DAHILOG, MA. EDI                                        20500
A0301400530193674940001APOLINARIO, FRANCIS A. OR                               10505
A0301400530193674940001LOU JOSEPHINE M.                                        20500
A0301400530193709195001CHENANIE S. ENERIO                                       0501
B0301400660194469662088**********                                               1603
A0301400660194779841088*****                                                    0501
A0301400950000002115413CUNANAN, ELEANOR G. DBU EB                              10504
A0301400950000002115413MARKETING SERVICES                                      20500
A0101413600000003134487MIRRIAM A. DELA CRUZ                                     0502
A3101400450223724088001ALVARAN, HANIEL ANGELO CAPUNO                            0501
A1001400190000002170678*****                                                    0501
A1001400480000001054711VILIRAN, PRINCESS SYBIL BADAJOS                          0501
B1301400760000000007132EXCITE AUTOMOBILES, INC.                                 1610
B0101406460272007511001STERLING GIFTS INC.                                      1605
A0101406620273502279001LOTILLA JR., PERPETUO MERCADO                            0501
A0101406620273587784001MENDIOLA, JOCELYN OR MENDIOLA,                          10501
A0101406620273587784001GABRIEL OR TANCHULING, PA                               20500
A0101408660000000059761TOBILLO, CECILIO NARVAEZ                                 0503
A0101400570281293586001*****                                                    0502
A0101400570281443866001ANA MARIA S. POHANG OR                                  10502
A0101400570281443866001KATRINA S. MARTI                                        20500
B0101411240283046060001GRAND STAR GENERAL CONTRACTOR                            1605
A1101400120000003197233DONNA FE A. BATAN OR                                    10501
A1101400120000003197233DOROTEO B. BATAN III                                    20500
A6601400120000002978096HORCA, ROMAR BABIANO                                     0501
B2001400290315528399001**********                                               1601
A2001400290315662264001MOHAMMAD JAVDANI SEPEHRI                                 0502
A0101402510341429634001TOMAS, MERCEDITA GLINOGA OR                             10501
A0101402510341429634001TOMAS, WENCHIE GLINOGA                                  20500
A0101409050352406449001ARIEL V. BATASIN                                         0502
A0201400760374047906001SAPAYAN LIM ALVAREZ & LIGUTAN                           10502
A0201400760374047906001LAW OFFICES                                             20500
B0201400760000001612971PDY METAL RECYCLING CORPORATION                          1605
A0201400760374473832001**********                                               0501
A0201400920000000047998FAELNAR, IRE CLAUDETTE MANSUETO                          0501
A0201400920000000048155EDIZA, M DBU OULAMS CUISINART T                          0501
B0201400920000000047874TURBO TRANSPORT INC.                                     1601
B0201400890376055653002BROLLEE DISTRIBUTIONS & LOGISTICS INC.                   1601
B0101402930381030309001RECEIVERS & LIQUIDATORS, INC.                            1602
A0101402930381423656004MADELINE ZIALCITA-VILLAPANDO                             0501
A0101402930381581762002FAUSTINO, CHRISTOPHER BUSTILLO                           0501
A0101408790000005182792ANTHONY JOHN S. RULLODA     .                            0501
A0101411660000001145766IGNACIO, GERILYN GONZALEZ                                0501
A0101405490392298552043BETTY R. ARENA                                           0502
B0101405490392494716001MASTERFLOW INCORPORATED                                  1605
B0101408400394019188001PLARIDEL SURETY & INSURANCE CO.                          1602
A0101408950396411684001GANI, SUKARNO KANAY                                      0502
A0101409180000003882337APRIL ANNE C. DUQUES                                     0501
A0101409180000004973526ELIZA RIMANDO                                            0502
A0101409210000002802600ALPUERTO, SARAH GRACE AGAWIN                             0501
B0301400820409091735055DAVAO HOME BUILDERS CENTER                               1602
A2401400180411023998002ENE MARKETING                                            0502
B2401400180000000019769WILL & JOE AGGREGATES, INC.                              1603
A2401400180411079741001NADIES CHICKEN HOUSE                                     0502
A2401400180000000427996TUPAS, MARVIN REY PALLARCO OR                           10505
A2401400180000000427996TUPAS, BEATRIZ P                                        20500
B1201400150421025756001FIRST PINESIDE PROPERTY CORPORATION                      1601
B0101403030441037143001REYCO INDUSTRIAL SALES CORP.                             1603
A0101403030441043810001CORE SOURCE TRADING                                      0504
B0101412890000001765324PARKROAD  INC.                                           1603
B0101410140475045534001J-BREN STAR CORP. DOING BUSINESS UNDER                  11602
B0101410140475045534001THE NAME AND STY                                        21600
A0501400170000001072786PALAGANAS JR., DIONICIO MANINGD                          0501
A0501400170481712963001SALAZAR, MA. JOSEPHINE F.                                0501
A1901400160000003198685FRANCIS LUCENA OR SHIELA COMIA                          10501
A1901400160000003198685OR ARNEL HIBO                                           20500
B1901400160491014714002TALUMPOK SILANGAN MULTI-PURPOSE COOP.                    1602
B1901400160491039054001ST. VINCENT ARRASTRE STEVEDORING &                      11602
B1901400160491039054001FORWARDING CORP                                         21600
A1901400160491641033001ULYSSES M CHAVEZ OR                                     10502
A1901400160491641033001LETICIA M CHAVEZ                                        20500
A1401400110492029549002TRIPTORS DIAGNOSTIC CENTRE                               0504
B1401400110492040383001RCBL - ST. MICHAEL ARCHANGEL PARISH                      1605
A1401400110492478374015ANGCANA, VICTOR                                          0501
A0701400260000001804633OLIVAN, PHILIP MARK UY OR                               10510
A0701400260000001804633UY, NIELSEN EARL                                        20500
A0101407430503478374009HAIDEE F. LIM                                            0501
B0101405940512005310001TRANS-MILLENIUM MERC. CORP.                              1603
B0101405940000000002922SOLIMAN SECURITY SERVICES, INC.                          1605
A0101406880000000511048***************                                          0501
B0101406880513021335002ACTIVE REALTY AND DEVELOPMENT CORP                       1615
A0101406880000001286762***********                                              0501
B0101406880513281235002LUCKY MONEY LENDING CO., INC.                            1603
A0101408110000001823741CHUA, GLORIA MERCADO                                     0501
A0101408110000002907986CONSTANTE C. NORIEGA JR.                                 0501
A0101408110515349308001FRANCISCA ALINCASTRE                                     0503
B0101411790000000005318REM BUILDERS CORPORATION                                 1602
B0101411790518723784001BONJOUR 888 INC.                                         1604
B0101403450521021842005WALL VISION CORPORATION                                  1605
A0101403450521367887001**********                                               0501
A0101403450521478374003GALANG, LILIA VILLENA                                    0502
A0101404000551331553001SUSANA M VILLAFUERTE                                     0501
A2201400250000001545557CHERYL ANNE C. SALVADOR OR                              10501
A2201400250000001545557SHERWIN Q. SALVADOR                                     20500
B2201400250561025864001PISCES 21 ENTERPRISES                                    1601
A2201400250561028844002CHRISTIAN HOME FURNISHING                                0501
A2201400250561717444001SHIRLEY M. QUE                                           0502
B0101407720602027106001SKIN AND CANCER FOUNDATION, INC.                         1604
A0101407720602298846006OCAMPO, LAMBERTO U OR                                   10502
A0101407720602298846006SARMIENTO, ANNABELLE                                    20500
A0101407720602298846010OCAMPO, LAMBERTO UN OR                                  10502
A0101407720602298846010SARMIENTO, ANNABELLE                                    20500
A0101407720602396311002AGUIRRE, WILFRIDA LACANDOLA                              0510
A0101412180000002340610YU, ROVE PAULO TUPAZ                                     0504
A0101409920000001539631MEMBERS OF NATASHA (SHOECAT INC                         10502
A0101409920000001539631SARILE, MICHELLE                                        20500
A0101414120000004603150NACIONAL, MARIA CECILIA ABIERRA                          0502
B0101414120000001984201KAYAK CONSTRUCTION CORP.                                 1615
A0101414120000002879794GOLDEN ORYZA MARKETING                                   0502
A0101406590662044702001PTS TUTORIAL AND REVIEW SYSTEMS                          0501
B0101406590662058753001F.C. DINO CONSTRUCTION                                   1601
A0101406590662208118001CYNTHIA OR CHERYL MYLA ARCINUE                           0502
B1301400210682016750001JFL AGRI VENTURE SUPPLIES                                1604
A1301400340683028272001MARCO INDUSTIRAL SALES                                   0501
B1301400340000000982003WONG, RAYMOND CHAN DBU KEMP MART                         1601
A1301400340683614499001ESPINO, MARIE CARTERO                                    0504
A0101408240711180164001TUPAZ, CORAZON RONQUILLO                                 0501
A0101408240711226051002CHAN, ALFREDO OR CHAN, CEFERINA                          0502
A2801400100000004837641MARGALLO, MARY GRACE ASTORIAS                            0501
B4101400260812012769004PHILIPPINE PIZZA, INC.                                   1603
A4101400390813442190001ASMA, RODELYN MERIADO OR                                10506
A4101400390813442190001ASMA, ROLDAN PAR                                        20500
B0101404840851009329001TRANSPARK ENTERPRISES                                    1605
A0101406750852181175001ANTONIO S. DOMANTAY OR CONCHITA                         10502
A0101406750852181175001DOMANTAY                                                20500
A0101406750000002040260TOLENTINO, ROSALINA SABATER                              0502
B0101405070861020510001SILVERLINK INTL TRAVEL & TOURS CORP.                     1610
B0101413860000001768005CARGO DOMINANT WORLDWIDE LOGISTICS,                      1602
