A0101403450000000009890SANTOS, EMMA CASTILLO                                    0501
A1001400350000000017165MEN DBU A&L MARKETING SOLUTIONS                          0501
A0101404680000000033092NATIVIDAD A. DOMINGO                                     0502
A0101408240000000039701NAVARRO, LIGAYA GAYO                                     0501
A0101411790000000134125********                                                 0501
A0301400660000000194507DIVINO, TERRENJUN BALICOG                                0502
A0101403030000000320492**********                                               0502
A0101408240000000347380MISA, JENNY LYN                                          0501
A0601400520000000398432TEOPACO, ARVIN MANALILI                                  0501
A0101405490000000444671******                                                   0502
A0101404680000000767142LAGMAN, MARIO SERRAN                                     0501
A0101410300000000919422ROQUE, EUGENIE AMANDA V.                                 0502
A0101410300000000919659FLOR, LILIAN F.                                          0501
A0101412890000001056597SEKITO, EDITHA PAULO                                     0501
A0101410980000001154330RAMOS, JANEDEL ANN LOPEZ                                 0501
A3001400130000001261192ZORILLA, MARIE ROSE GONZAGA                              0501
A0101408530000001268708ZOBEL, JACOBO TRISTAN CARDENAS                           0505
A0101403030000001302043**********                                               0503
A0101411820000001356532BLISS BEAUTY SPOT SALON AND SPA                          0501
A0101404680000001617374TANIEGRA, MELANIE PANLILIO                               0503
A0101401380000001819894RUIZ, REGNIER DELAVEGA                                   0501
A0101408400000001855381ABSA BUILDERS                                            0501
A0101402480000001927733*********                                                0501
A2401400180000001935833SUERTE, ALEJANDRE CHIO                                   0501
A0101406620000002009289DAYA, JOANA MARIE ARAGOZA                                0501
A4101400550000002091043RAMIREZ, CYNTHIA TAN                                     0503
A1301400340000002283843********                                                 0501
A0101413150000002299370******                                                   0502
A1301400500000003070128MARIA TERESA V. ABESAMIS                                 0504
A0101402510000003482295CRUZ, MARIA ELIZA PULUMBARIT                             0501
A0101401250021478374014IRENE P. FADULLO                                         0501
A0101401700041290115001**********                                               0503
A0101401700041399527001**********                                               0503
A0101401700041796980001TAMPICO, CELESTINO MACARAEG                              0503
A0101400150061277658001ESTRELLITA V. ONG                                        0501
A0101400150061739693001***********                                              0502
A0601400360083751205001DALINA, MARIA CRISANTA MILLAR                            0503
A0101400730111203514024JOSEPH S. TAROY                                          0504
A0101400730111478374021FLAMIANO, SHERRYL B.                                     0503
A0101401960121484991001**********                                               0510
A0101400440161045289001RAPTURE CAFE' BAR                                        0501
A0101400440161525001115EVA D. SAMILLANO                                         0503
A0101401090171197581001AGRIPINA OR REMIGIO CORPUZ                               0503
A0101407140213035054001**********                                               0504
A3101400160221533266001ANGELITO S. LAZARO JR.                                   0502
A3101400160221611111001AILEEN A. SOSMENA                                        0501
A1001400350233525388001JILL YVES LORRAINE A. LAO                                0502
A0101406620273587884001MARIA THERESA L. BEATO                                   0501
A0101406620273638236001ROBEDILLO, JEROME SALMORO                                0501
A0101400570281359777001LILY LIM LEY                                             0503
A0101400570281388539025ROSALIE B. CABRERA                                       0501
A0101402480331218913001**********                                               0501
A0101402510341198276001SEGUBAN, DANILO H.                                       0501
A0101402060351045373001FARMHAND ENTERPRISES                                     0505
A0201400890376745254001BUYSER, IAN CHRISTOPHER COLETO                           0501
A0101405490392301424001ENCARNACION O. SANTIANO                                  0503
A0101408400394160353001JARDIOLIN, JAMES HILADO                                  0508
A0101408400394429737002MAMBUAY, NAIMAH MINANGA                                  0501
A0301400820409760125002GEPITULAN, DANTE C.                                      0501
A2401400180411516002001GAVINO, RHEA MEA LAUREA                                  0502
A0101403030441029489001**********                                               0506
A0101403030441534805001**********                                               0502
A0501400170481255325008ARZADON, VOLTAIRE PORSOVIGAN                             0501
A0501400170481480835001ONG, FRENZY CLAIRE FERRER                                0501
A1901400160491339841001MELINDA M ILAGAN                                         0502
A1901400160491388469001LORETA L TINAJA                                          0501
A0101406880513193367003GAW, BENITO CO                                           0501
A0101406880513492094001MALLARI, RYAN TURLA                                      0505
A0101408530516615903040ROWENA MARIE MANALO                                      0501
A0101403450521238076005**********                                               0505
A0101403610531717691001PONCE, LUISA BERNABE                                     0501
A0101404130601451610001CONCEPCION L. DEL VILLAR                                 0503
A0101404260611478374099TERESITA DOLLOPAC                                        0501
A0101404680651455291001ELI PAULINO F. MADRONA                                   0502
A0101404680651478374180PRISCILA B. RUBIO                                        0501
A0101404680651708787001DALISAY DE GUIA SIAWINGCO                                0501
A0101411950680046399001ISLANDGRAFICS ENTERPRISES                                0502
A1701400230693635864001SORIANO, JOSE JOEY QUINTO                                0501
A0101408240711219571001MERCEDES M. OLIVER                                       0502
A0101408240711448793001CARLO B. MAGNO                                           0502
A4101400420814453380001TOLENTINO, JONETT MISA                                   0501
A0101406750852055332001OBAR, DOMINIC S DBU GLAM LANE E                          0502
A0101410980000000171942MELODY TRACY A. MALLARE OR                              10501
A0101405490000000355571MA ANASTACIA S. OR RITA THERESE                         10501
A4101400260000000377479PETALCO, BABELITO V. OR                                 10501
A0101406750000001491830FORTIFAES, CHARISSE ANNE                                10501
A3401400280000001723484ESLABON, M DBU GREYS CAR                                10502
A0101412890000001765711BUCCAT, KRISTINE ANNE                                   10501
A0101407720000002693138JADE A. PRESBITERO OR                                   10502
A0101401250021453364001TORREJOS, ALFREDO OR                                    10502
A0101401250021709223001ROLANDO F. ASTILLERO JR. OR                             10501
A0101400150061039916043HERNANDEZ, EUGENIO OR                                   10501
A0101410850109055107001BOTE, MARISSA M. DBU SUN CHASER                         10501
A0101400730111471027001BENEDICT JESS FERRER OR LOURDES                         10501
A3101400160221343018001MODESTO P. ANDRES OR                                    10503
A0101405490392496622002JOCELYN L. FLORETO OR                                   10501
A0101405490392514069001RAUL E. DE LEON OR                                      10501
A0101408400394431373001MABANAG, BERNARDO N. OR                                 10501
A5501400120410636179118CHIU, VALENTIN & JULIA EILEEN                           10501
A5501400120410636391028CHIU, JULIA EILEEN & VALENTIN                           10502
A5501400120410797578008CHIU, CHRISTEL & VALENTIN &                             10502
A0501400170481320433004MELENDEZ, AURORA REYES OR                               10502
A1901400160491244484001IRENE H BERBA OR                                        10505
A0101404680651520766108SANDY V. SANTOS OR                                      10502
A0101410300663238188001SHARE, JACK TAKYAM S. OR SHARE,                         10501
A0101410980000000171942ARISTOTLE ESTEBAN MALLARE                               20500
A0101405490000000355571S. DELA MERCED                                          20500
A4101400260000000377479PETALCO, VIRGILI                                        20500
A0101406750000001491830CARITOS                                                 20500
A3401400280000001723484ANATOMY CLINIC                                          20500
A0101412890000001765711VILLANUEVA                                              20500
A0101407720000002693138CECILIA B. PRESBITERO                                   20500
A0101401250021453364001RYAN ALVIN OR CARMEN                                    20500
A0101401250021709223001GINA A. ASTILLERO                                       20500
A0101400150061039916043HERNANDEZ, MICHAEL ALAN                                 20500
A0101410850109055107001TRUCKING                                                20500
A0101400730111471027001 FERRER                                                 20500
A3101400160221343018001ZENAIDA P ANDRES                                        20500
A0101405490392496622002RUDY P. FLORETO                                         20500
A0101405490392514069001CAROLINA G. DE LEON                                     20500
A0101408400394431373001MABANAG, MERLYN                                         20500
A5501400120410636179118& CHRISTIAN & CHRISTEL                                  20500
A5501400120410636391028& CHRISTIAN & CHRISTEL                                  20500
A5501400120410797578008JULIA & CHRISTIAN                                       20500
A0501400170481320433004COQUIA, MARIBETH                                        20500
A1901400160491244484001CARLOS R BERBA                                          20500
A0101404680651520766108HELEN G. SANTOS                                         20500
A0101410300663238188001JACQUELINE S.                                           20500
B0201401020000000005249BOSTON HARDWARE INC.                                     1603
B0101411820000000024200CHELA MANUFACTURING CORPORATION                          1603
B01014092100000000313186-24 PROPERTY HOLDINGS, INC.                             1605
B0101406750000000090920FIVE OAKS LAND CORPORATION                               1601
B0101407270000000830551POULTRYMAX OMNIS, INC.                                   1602
B0101401700000000890411FREENOR AUTO SUPPLY                                      1606
B3001400130000001271603RUELAN ENTERPRISES                                       1610
B0101404680000001296562ALINE C. PECSON                                          1602
B0601400230000002649927MJ EXPRESS CREDIT INC.                                   1605
B01014092100000027833516-24 PROPERTY HOLDINGS, INC.                             1605
B1301400500000003070117********                                                 1602
B0101401700041021915002CARITAS HEALTH SHIELD, INC.                              1602
B0101401700041636716001HYUKIZU PARTS CENTER INC.                                1610
B0101400150061011050001A & A SECURITIES, INC.                                   1605
B0101400150061016423001GROLIER INTERNATIONAL FINANCE, INC.                      1604
B0101401960121011793001CAPITOL STATIONERY MFG. CO., INC.                        1605
B1001400190231024436001UMALAG FARMS INC.                                        1605
B1001400350233042688001MINDANAO SOLIDMARK, INC.                                 1605
B0101410980275047209001PIONEER STATIONERS, INC.                                 1602
B0101400570281047291001FARMACIA NI DOK INCORPORATED                             1605
B2001400290315041270001DUMAGUETE PROMPT ENTERPRISES                             1601
B2001400290315081901001SILLIMAN UNIVERSITY                                      1650
B0101402480331010039001**********                                               1615
B0101402480331561080001*********                                                1601
B0101405490392006536003GEMINI INTEGRATED SERVICES, INC.                         1605
B0101405490392196738001BERNARDO MAINTENANCE SERVICES                            1603
B0101409180397041229001****                                                     1603
B0101409180397652693001***                                                      1601
B0101403030441303324001**********                                               1602
B0101403320471041866001ITP PROPERTIES CORPORATION                               1620
B0501400170481258347003OUR LADY OF MANAOAG COLLEGE, INC.                        1601
B0101407430503044847001BANJAP PHILTRADE INC.                                    1602
B0101407430503385656004**********                                               1602
B0101404000551005021001LPL PLAZA CONDOMINIUM                                    1605
B0101404420631005725001LA NAVAL ACADEMY                                         1601
B0101404680651006224002NOVALICHES DEVELOPMENT COOPERATIVE, INC.                 1620
B0101404680651629917001ALLUSTEEL DISPLAY CONCEPT INC.                           1603
B0101410720653042569001TUGSON CONSTRUCTION & DEV. CORP.                         1603
B0101413570656056039001VITANGCOL VANDEVUSSE (VIVA) TRADE C                      1601
B0101406750852034199001JOCANIMA CORPORATION                                     1602
B0101406750852046880001DAKKI CLASSICS CONCEPTS, INC.                            1605
B3001400130000000007063GOLDEN HARVEST CATERING SERVICES &                      11602
B2801400230000000008313STRICKLAND, LAILANI DBU L&L TROPICAL BAY                11601
B3801400170000000018788MINDORO PPA EMPLOYEES MULTI-PURPOSE                     11603
B0301400790195054051001VILLA JOSEFINA RESORT VILLAGE HOMEOWNERS                11602
B3001400130000000007063FASTFOOD                                                21600
B2801400230000000008313RESTAURANT JT                                           21600
B3801400170000000018788COOPERATIVE                                             21600
B0301400790195054051001ASSOCIATION INC.                                        21600
B1301400760253821100608**********                                               2002
