A0101410850000000005803JOSE, SHARON KAYE LU                                     0501
A1001400190000000124701JUMARITO, LYNN S.                                        0501
A0101402510000000200062BERNALDEZ, LIGAYA MACALINTAL                             0501
A0101413570000000206259LEE CHEF'S SECRET ENTERPRISE                             0502
A0101405490000000232453ROMEL P. ALMEDA                                          0502
A1901400160000000243514CONRADO AUGUST AMBIDA BONDAD JR                          0501
A09014002200000004251580000-000425-158                                          0501
A0101400570000000470604RABANAL, EVELYN TINONG DBU RAKI                          0501
A0101404840000000475941*************                                            0502
A0101408240000000521720RICAFRENTE, MA. ANALYN DELFIN                            0502
A0101406590000000568758BAUCA, MYRA MEDRANO                                      0501
A0101408660000000855910***************                                          0501
A0101404420000000866600ESTRERA, AMELITA D.                                      0501
A1001400190000001057454PANANDIGAN, MITCHELLE BACUNATA                           0501
A1301400760000001295570**********                                               0502
A4101400550000001332461GONZALES, CARLOS CATALLA                                 0501
A0101408110000001364869**********                                               0501
A6601400120000001370872MORRIS, KRISTOFFER DORADO DBU T                          0503
A0101412760000001399602JOEY L. LAQUINAY                                         0501
A0101405940000001534269**********                                               0501
A1101400120000001547417REDULA, REMEDIOS V.                                      0501
A0101403450000001638086ABRAHAM, ROMIEL ROMANO                                   0501
A4101400390000001732890BAJAN, JERRY JOHN CASTRO                                 0501
A0101403320000001803316AGUILAR, KATHERINE ROBLES                                0501
A0101406750000002251383MORALES, GLORIA REYES                                    0503
A0101413990000002273941CARAMANZANA, EDGAR MABORANG                              0501
A2801400230000002312323RIVERA JR., AMOR GARNODO                                 0501
A0101404420000002358192BARBA, JORICEL A.                                        0501
A0101412890000002747926BALDIVICIO, DOLORES VILLARIN                             0501
A0101412340000003422795JARVIN CHRISTIAN C. PALMA                                0501
A0101404000000003705811EMPLOYEES OF, CSC INFORMATION T                          0501
A0101404000000003707475EMPLOYEES OF, CSC INFORMATION T                          0501
A0101400860011422394002**********                                               0505
A0101400860011453178001**********                                               0502
A0101400860011463630001**********                                               0512
A0101400860011721044001**********                                               0501
A0101401250021077163001OFRACIO, JUAN OLIVER SOLA                                0501
A0101400150061337099182RUBY L. YU                                               0501
A0101407270162331908018CATHERINE MADONNA C. CRUZ                                0501
A0101407270162478141001PHILIP HANS A. PAYAWAL                                   0501
A0101407270162694765001NELSON N. CRUZ                                           0501
A0101401090171335164001LIBERTY F. TRINIDAD                                      0502
A0101401090171447108001MARIA LETICIA A. CABRAL                                  0501
A0101401380201095657001SUANINO, IAN ALTEZA                                      0502
A0101401380201457213001VILLANUEVA, DAVID CUNANAN                                0501
A0101407140213186173001TAN, SUSAN                                               0501
A3101400160221478374027ERNESTINA S. VILLANUEVA                                  0501
A3101400450223455809001LANCION, AUREA OR JERIC                                  0502
A1001400190231478374075BARRON, LORNA                                            0502
A1001400190231520766108PALUNPON, EPLIDA J.                                      0502
A0101401670271352051005SUNTAY, MILAGROS GUEVARA                                 0501
A0801400160311267104001SAN JOSE, BERMUNDO E.                                    0501
A6601400120314617868088LUCERO, SINCLAIRE A. OR MIRA R.                          0505
A0101402480331022723001**********                                               0501
A0101408820333620470001********                                                 0501
A0101402510341331222002ERLINDA C. RECOCO                                        0501
A0201400760374030540001ST. FRANCIS MANPOWER SERVICES                            0501
A0201400760374030829001TOPSPIN CONSTRUCTION & SUPPLIES                          0501
A0101405490392177005001DOMINGA P. BUENAOBRA                                     0501
A0101408400394033958001RCBP-STA MARTHA PARISH                                   0502
A0101408400394160344001CALMA, ALFREDO MATAGA                                    0504
A2401400180411032438001DADIANGAS AUTOWORLD PARTS                                0506
A1201400150421478374035DALAN, LINDA G.                                          0505
A0101403030441319374002**********                                               0502
A0101403320471478374061ROSEMARIE O. HONRADA                                     0501
A0501400170481409728002ANG, JUSSLYNN MAISIE ONG                                 0501
A1401400110492327012002DE LA PENA, LUCILA GIMENEZ                               0501
A1401400110492357128002ESPARAS, TERESA BAUTISTA                                 0502
A1401400110492493108001DEQUITO, BERNABE VILLANUEVA                              0502
A0101407430503390313001RODOLFO C. BULTRON                                       0502
A0101403450521238094001**********                                               0502
A0101403450521239620001**********                                               0502
A0101403450521478374007********                                                 0501
A0101403450521643515001***********                                              0503
A0101403450521753734001TAN, BENJAMIN MASA                                       0503
A0101403450521791474001********                                                 0501
A0101404000551720372001***                                                      0503
A0101407720602279984001AVELINA QUIENG                                           0501
A0101407720602318369104MA. LUZ E. SALVADORA                                     0502
A0101407720602336315002BERNARDO V, SERAFIN LABAO                                0501
A0101407720602398588001GARCIA, JOSEFITA AZCONA                                  0502
A0101407720602750852001TUPAZ, MARIA LOURDES PEREZ                               0501
A0101404420631478374113SUSANA O. MARTINEZ                                       0501
A0101411530654168711001**********                                               0501
A0101407560686678269001*********                                                0501
A0101408240711410292003**********                                               0505
A4101400260812417728001NANETTE V. VILLANUEVA                                    0501
A4101400390813245064002ISMAEL M. MERCADO                                        0501
A4101400420814478374169SANTOCILDES, SALVE S.                                    0501
A4101400420814520766034LEONIDA M. OBELIDOR                                      0501
A4101400420814520766061ESTILLERO, SUSANA O.                                     0501
A4101400420814520766062SALVADOR, MARITES I.                                     0501
A0101404840851520766162JANET H. ESTORES                                         0501
A0101404840851520766175RUTH CONDE                                               0501
A0101406750852649565001AYSON, CRISTLE APELO                                     0501
A4101400260000000048713MANUEL SILVESTRE II OR                                  10501
A0101410300000000191917CABARRUS, GRACE K. OR CABARRUS,                         10503
A1101400120000000652500UY, TINONG Y. OR UY, BELINDA C.                         10502
A4101400420000000710483ESPANOLA, MA. ANGILY CASANDRA                           10502
A0101412500000001146963SANTOS, GERALD J. OR BALILO,                            10502
A4101400550000001332427HILAGA, R DBU RGM EXHIBIT AND                           10501
A1001400190000003881903BOSSMANN TRADING AND                                    10502
A0101401700041382678003KO,JAMES VINCENT OR KO,VICENTE                          10501
A0101400150061323526001SHIRLEY MANESE OR MARIA ELENA                           10501
A0101410850109051774001PANDE, ELEAZER JT DBU DENMARK                           10503
A3101400450223352819001FARAON, RIZALINA OR                                     10502
A1301400470252620184001ARMANDO A. SANTIN OR                                    10501
A2001400290315087033001ROLIDA, JASON UY                                        10502
A2001400290315087033002ROLIDA, JASON UY OR ROLIDA                              10503
A0101405650322795084001PAULO B. VALDEZ OR                                      10503
A0101402770391425258002FERNANDO REYES BORJA JR. OR                             10501
A0101402770391595237001LUZ B. FERRER OR                                        10502
A0101405490392552022001MARIA THERESA D SOLIS OR                                10501
A0101405490392703499001SIMON M. SANDOVAL OR                                    10502
A2401400180411564736001CATULPOS, ELMER VILLEGAS                                10510
A0101410140475339949001SANTOS, ADORACION SANCHEZ OR                            10505
A0501400170481046585002ANG, JUSSLYNN DBU                                       10502
A0101407720602283353001ERWIN HERNANDEZ OR                                      10501
A0101408240711226201001GODOFREDO JR. OR VIRGINIA                               10502
A0101408240711656808001RAMIREZ, ANNA CARMELA OR                                10501
A4101400420814329306001REYNALDO N. TUPAL OR                                    10501
A4101400420814768923001VIRTUZ, SALVADOR ABAQUITA OR                            10501
A0101406750852084318001SIBUG, GENEATH P. OR                                    10501
A4101400260000000048713KRISTINE SILVESTRE                                      20500
A0101410300000000191917GEORGE DENNIS K.                                        20500
A1101400120000000652500UY, STEPHANIE GR                                        20500
A4101400420000000710483CARBA                                                   20500
A0101412500000001146963VICTOR M.                                               20500
A4101400550000001332427EVENTS SERVICES                                         20500
A1001400190000003881903ENGINEERING SERV                                        20500
A0101401700041382678003OR KO,VIRGINIA O                                        20500
A0101400150061323526001MANESE                                                  20500
A0101410850109051774001TRUCKING & GEN.                                         20500
A3101400450223352819001BELEN, RHODORA                                          20500
A1301400470252620184001ADELYN L. SANTIN                                        20500
A2001400290315087033001OR ONG, WILMER R                                        20500
A2001400290315087033002SANDRA, UYMATIAO                                        20500
A0101405650322795084001STEPHANEY ANN S.                                        20500
A0101402770391425258002RODA IGNACIO BOR                                        20500
A0101402770391595237001MARIO G. FERRER                                         20500
A0101405490392552022001BENJAMIN D. SOLI                                        20500
A0101405490392703499001ARCELI A. SANDOV                                        20500
A2401400180411564736001OR CATULPOS, YEL                                        20500
A0101410140475339949001SANTOS, MYRNA SA                                        20500
A0501400170481046585002AVS DISTRIBUTION                                        20500
A0101407720602283353001AGNES HERNANDEZ                                         20500
A0101408240711226201001GALINDEZ                                                20500
A0101408240711656808001MICHAEL RICHARD                                         20500
A4101400420814329306001MARIA VERONICA A                                        20500
A4101400420814768923001VIRTUZ, REBECCA                                         20500
A0101406750852084318001SIBUG, ERNESTO M                                        20500
B0101411240000000012073ADVANTAGE-VEGA BUSINESS SERVICES INC.                    1602
B2401400180000000073670BRIGADA HEALTHLINE CORP.                                 1620
B0101410300000000191644KINETICORE CO.                                           1601
B0101406620000000194012LAMCO INTERNATIONAL TRADING CO., IN                      1601
B0101412050000000890973MCQUEEN AND TOW MATER, INC.                              1602
B0101406880000001286379PENTACAPITAL HOLDINGS, INC.                              1601
B0101412180000001293050RIANTIQUE GLOBAL INC.                                    1602
B0101402480000002906061*********                                                1602
B0101400150061036320001IPM CONSTRUCTION & DEVELOPMENT CORP                      1610
B0101400600071536828001CLAXTER GENERAL MERCHANDISE INC.                         1615
B0101401830141591649001OMNI PROVENTURE ENTERPRISES CORPORATION                  1601
B0101407270162016355001ONWARD COMMUNICATIONS & SERVICES                         1604
B0101407270162019056001QUICKSERVE EQUIPMENT & SERVICES INC                      1605
B0101407270162037605002MAINE CITY PROPERTY HOLDING CORP.                        1610
B3101400450223037708001RD CASH PADALA, INC.                                     1603
B0101406620273016438001LAMCO INTERNATIONAL TRADING CO., INC.                    1601
B0101406620273033463001ARL BUSINESS CONSULTANCY, INC.                           1602
B0101400570281041389001SHEPHERD FLOCK WORSHIP CENTER A/G, INC.                  1602
B6601400120314539341008PORAQUE, VICENTE TAN OR TAN, SANTOS LEE                  1610
B0101405650322679715001HAMBLETON CORPORATION                                    1602
B0101402480331025385001****                                                     1604
B0101402480331025386001***                                                      1602
B0201400760374043666001FORMWORKS RUBIA ARCHITECTS                               1601
B0101402770391041647001G B B TECH ELECTRO MECHANICAL & DEV. INC                 1604
B0101409180397042276001SISON'S PUBLISHING HOUSE, INC.                           1601
B2401400180411035164001MOMMY GINA TUNA RESOURCES (MGTR), INC.                   1605
B0501400170481013098001MOTORPLAZA INCORPORATED                                  1603
B1401400110492031376001LUCENA WHEELER ENTERPRISE INC.                           1601
B0101405940512005556001THE FLOWER FARM CORPORATION                              1604
B0101406880513515077001CLARKZILLA CORPORATION                                   1615
B0101403450521033882001**********                                               1610
B0101404000551038491001BLUE ANGEL KARAOKE BAR, INC                              1602
B0101404000551706229001PHILKO-CHEM LOGISTICS, INC.                              1610
B0101408240711026183005CATERING PROFESSIONALS, INC.                             1602
B0101408240711026183007CATERING PROFESSIONALS, INC.                             1610
B0101408240711039556001TIP-TOP MARKETING                                        1610
B0101406750852044723001AMGEN INSURANCE CENTRE                                   1601
B0101405070861008155001MANDARIN REALTY CORPORATION                              1601
B0601400230891028240001SUPER BIKES CENTER BRANCH FUND                           1601
B0101401830000000033569CARITAS SALVE CREDIT COOPERATIVE                        11603
B0101401830000000033570CARITAS SALVE CREDIT COOPERATIVE                        11603
B0701400260000000041129OLIVA, MA. EMMA PANGANIBAN AND TOLEDO,                  11602
B0101410560000000757262ALLPARTS HYDRAULICS INDUSTRIAL                          11601
B0101408530000001275161FERROTECH PAINTS & COATINGS                             11601
B0101411240283794633001PANAGUITON, DIVINA OR PANTALEON                         11601
B2601400270302047202001UY, EDGARDO PUA DBU AGAT MULTI GRAINS                   11603
B0101406880513034765001DEVELOPED LOGICAL TECHNIQUES FOR AIR-                   11610
B0101401830000000033569(CALOOCAN)                                              21600
B0101401830000000033570(MALABON)                                               21600
B0701400260000000041129EDWARD A                                                21600
B0101410560000000757262CORPORATION                                             21600
B0101408530000001275161INCORPORATION                                           21600
B0101411240283794633001, ANNA ROCIO OR                                         21600
B2601400270302047202001CENTER  JT                                              21600
B0101406880513034765001CONDITIONING TEC                                        21600
