A0601400520000001706827TANGLAO, MARIA CECILIA T.                               10502
A0601400520000001706827OR TANGLAO, VICTOR                                      20500
A0101400600071233615002********                                                 0502
A0601400520000001707028AMBO MARKETING                                           0502
A3001400130000001271363PALUCA, LIZA MORAL                                       0502
B3001400130230043534001BERRY HAPPY MART INC.                                    1603
A0101400570281654095001BUNOY, LERMAH SONICO                                     0502
A2001400290315681977001TEVES, PRYDE HENRY ALIPIT OR                            10502
A2001400290315681977001SERRANO, FELICIA                                        20500
A0101411370000003294900FARRALES, MARCUS GLEN B. DBU                            10502
A0101411370000003294900GOLDLINE BROKERAGE SVCS.                                20500
A0101400150000003218271DADEL E. TADIFA                                          0501
B0101400150061227931001FVA MEDICAL SPECIALTIES, INC.                            1605
A0101400150061354768001FLORDELIZA D. KO                                         0502
A0101400150061368675001JESSE O. ANG                                             0502
A0101400600071457180001**********                                               0501
A0101400600071471186001***********                                              0503
B0101405810072011448001C.P.P.C CONSUMER PACKAGING PRODUCT CORP.                 1602
A0101405810072234816001CORAZON L. MACATUNO OR                                  10503
A0101405810072234816001RODANTE L. MACATUNO                                     20500
A0101405810072234892001**********                                               0501
A0101405810072327817001**********                                               0502
A0101405810072354724003FUENTES, LILIA S.                                        0501
B0101405810072412798001**********                                               1603
B0601400100081042604002CRK LUMBER AND HARDWARE                                  1602
A0601400520000002085792PANGILINAN, SER ANTHONY FRANCO                           0501
A0601400520000003187313PAROLI, VIRGILIA SOLIMAN OR                             10502
A0601400520000003187313PAROLI, ANTONIO                                         20500
A0601400520000005943531BAGA, JEPRIE RAURAS OR                                  10502
A0601400520000005943531BAGA, IRENE CUBACUB                                     20500
B0601400520000000398670UNIWISE VISUAL ADVERTISING CORPORAT                      1602
A0101410560000005280644ALBERTO G. ABAN JR.                                      0502
A0101412630000007158041MANUEL, MARIA CHARINA                                   10501
A0101412630000007158041TAGAMOLILA                                              20500
B7201400170000003773615JAVAVED DEVELOPMENT CORPORATION                          1605
A5001400170000005705197MAGBAGO, JUCEASAR MACALONG                               0501
A0101401090171196066002MARY JOCELYN OR REDARIO LAYGO                            0502
A0101401090171200622001DIONISIO F. DEPENA JR.                                   0501
A0101401090171457732001MARCELA MILA D. DAYA                                     0501
B0301400530000006239654MAGHANOY, SHIRLEY PERALTA                                1603
B0301400530193041929001NEW CORELLA AGRICH MARKETING CORP.                       1601
B0301400530193042539001******** *********                                       1620
A0101401380000000682651PILI, RC JENNIE MAE ASISTIO                              0501
A0101413020000003055358ANGELES, MA.LENY DBU NY2 ENTERP                          0502
B0101410720653044699001HALREY CONSTRUCTION, INC.                                1602
B1001400190231027065001RI CHEMICAL EMPLOYEES MULTI-PURPOSE                      1601
A1301400760000005989771GERIKA LARIZE R. OCAMPO OR                              10501
A1301400760000005989771JOHANN G. OCAMPO                                        20500
A1901400290261016395001GOLDEN OIL GASOLINE STATION                              0502
B1901400290261027293001LIPA MEDICS INC.                                         1610
B1901400290261040667001PRIMERA AGRO DEVELOPMENT CORPORATION                     1605
A1901400290261248453001LEONARDO RETANA GARING                                  10502
A1901400290261248453001OR BUENA FLORES GARING                                  20500
A1901400290261298552066DOLORES SARMIENTO MANGUIAT                               0501
A1901400290000001926285FR NOEL MAGTAAS OR BR LORENZO                           10501
A1901400290000001926285MONEVA OR FR REX ALDAY                                  20500
A1901400290261493025064CELESTINA RAQUEL LAYLO-NAVARRO                           0502
A1901400290261627853001PRIMITIVO PEDREGOSA MITAL                               10501
A1901400290261627853001OR PRIMO OCAVA MITAL                                    20500
A1901400290261734607001ALFREDO ESPANTO LORIN JR                                 0502
A0101406620273280285001PELAGIO / ROSARIO / REBECCA /                           10501
A0101406620273280285001RAFAEL / ROWENA                                         20500
A0101411110276464851088BRIZUELA, BENITO JAVIERTO                                0505
A2601400270000002257296RANDY C. GADDUANG                                        0502
A2601400270302555372001**********                                               0505
B0801400160311265752001DIVINAGRACIA, LLANE GRACE                                1602
A0801400160311267170001BOERSMA, GERARD MARIA OR                                10502
A0801400160311267170001BOERSMA, BELLEZA                                        20500
A0801400160311729709001ZEPEDA, ANNA MAE B.                                      0501
A6601400120314612973001CABILI, MANUEL MELFORD OR                               10504
A6601400120314612973001MANUEL OR TERESITA OR ZYB                               20500
A2001400290315641654001LOZANO, PALMA JANE LIMPIADO                              0501
A0101402510000007706143MIGRINO JR., JULIUS RUAYA                                0501
B0201400760374046036001SAM SOWAH SHIPPING CORPORATION                           1602
A0201400920000001331582********                                                 0501
A0201400890000002270111DONGHIL, ERNILO OR CATURAN,                             10501
A0201400890000002270111GAUDENCIO                                               20500
A0201400890376062347001LYLIE HOTEL                                              0501
B0201401020000003031129DEL PRADO, JOSE VICE DBU DE LARRA FOODS                  1602
B0101402930381019173001MANILA LUXURY CONDOMINIUM CORP.                          1601
A0101408790000000210891TINAMBACAN, JOSELYN AMANTE                               0501
A0101402770000006642793SUESS, FLORENCIA GERODIAS JT                            10502
A0101402770000006642793FGS PACKAGING ENTERPRISES                               20500
A0101408400394078250001MALA, ARATOC DISOCOR                                     0501
A0101408400394241463001BAGAGNAN, MA IRENE COLOMA                                0501
A0101408400394366833003MIRANDA, MICHELLE SILLOCO                                0501
A0101408400394541137001GACIAS, ALBERT OR TAYLOR,                               10501
A0101408400394541137001MARGARET                                                20500
A0101408950000000776609DEL PRADO, BETTINA AQUINO                                0501
A0101408950000005325622DIMALIBOT, MARIA MARTINA                                10502
A0101408950000005325622GERALDINE                                               20500
A0101408950000007458862CHIO, NANCY BORJA OR                                    10502
A0101408950000007458862CHIO, MARTIN CLARENCE ONG                               20500
A0101409180000004940734DOMINIQUE ERIKA VILLARICO                                0501
B0101409210000002783180ABALAJON, ELISA DBU ELISA ALGARRA S                      1601
A0101412210000005303100FOUAD KHALIL, MARIAM SHIEKA EST                          0502
A0101412210000000031381*********************                                    0503
A5501400120410636391018CHIU, JULIA EILEEN OR CHRISTEL                          10502
A5501400120410636391018OR CHRISTOPHER                                          20500
A5501400120410656023001BELTRAN, MANUEL OR                                      10502
A5501400120410656023001BELTRAN, ALEGRIA                                        20500
A2401400180000000427996TUPAS, MARVIN REY PALLARCO OR                           10505
A2401400180000000427996TUPAS, BEATRIZ PALACIOS                                 20500
B0901400220432043554001GERRY'S GRILL                                            1603
A0901400220432339854001**********                                               0502
A0101403030441594340001**********                                               0501
A0101410140475724235002LARRACAS, LYDIA BOLINAO OR                              10501
A0101410140475724235002LARRACAS, ANGELO                                        20500
A1901400160491549024001MYRNA ARCE CORTEZ                                        0502
A0101405940000001534361KOSTKA, CRISELDA VILLEGAS                                0502
B0101405940512030146001CHINO ROCES ESTATES ASSOCIATION INC.                     1601
A0101405940512383078001MAGAT, LENITA BROFAS OR                                 10502
A0101405940512383078001MAGAT, ROBERTO BAUTISTA                                 20500
B0101408110000003281434CYBERONE.PH, INC.                                        1601
B0101408530516032963001387 AUTO CENTER, INC.                                    1602
A0101408530516584330001AOTAY, FREDERICK LEE                                     0501
B0101411400000001280557ROMEO B SIRA DBU RBSS PROJECT MANAGEMENT                11601
B0101411400000001280557SERVICES                                                21600
B0101403450521017837001**********                                               1601
B0101403450521029235001*******                                                  1605
A0101403450521238266001JERONIMO CO CHIN CHIENG OR                              10502
A0101403450521238266001LAWRENCE COBANKIAT                                      20500
B0101403610000000015994PAY PHILEXCHANGE INC.                                    1605
B0101403610531224782001**********                                               1603
B2201400250000001545535PARAGON MANPOWER & GENERAL SERVICES                      1603
A0101407720000004664028BALCE, RIZALDY EBE                                       0501
B0101407720602006018001HEALTH LAB AND MEDICAL SERVICES, INC.                    1610
A0101407720602333243001MELODIE GRACE M. REMORCA                                 0503
A0101407720602396595001DR. MILAN P. TAMBUNTING                                  0504
A0101407720602397820001SIBAYAN, SANTIAGO ANTONIO B.                            10501
A0101407720602397820001OR SIBAYAN, SUSAN                                       20500
B0101412180000000075363CAPSTONE CREATIVES SOURCE CORP.                          1612
A0101413440655054477001LAND FIRST REALTY                                        0502
A0101413990000004511180CAPILOS, JELSON E. OR                                   10501
A0101413990000004511180CAPILOS, HYACINTH B.                                    20500
A0101413990000007703575MIGUEL, RHODA PENARANDA                                  0501
A0101414120000000398972ULDERICO MERCED TRUCKING                                 0502
B0101414120000003584332*****                                                    1601
A0101410300000006278584NANAGAS III, VITALIANO HORACIO                           0501
A0101410300000006278744REYES, MILDRED BELVIS                                    0501
A1301400500000000212995LUDETTE FATIMA T. CASTRO                                 0503
A1301400500000002063918RNV APPLIANCE SERVICE CENTER                             0503
A1701400230693043742001CAFE JUAN                                                0503
A1701400230693092725001ALIPIO JR., ISAIAS PASCUA                                0501
A0101408240000005740694ECHON, RAY VILLETA                                       0503
B0101408240000000832962CARMEL LAND SALES & DEVELOPMENT CORP.                    1610
B0101408240711787035001BUGKALOT COFFEE COMPANY INC                              1601
A2801400230000001782130GOLDEN STATE ALUMINUM GLASS &                           10501
A2801400230000001782130GENERAL MERCHANDISING                                   20500
B2801400230000005253630GLOBAL MARITIME LOGISTICS SUPPORT, INC.                  1605
A4101400260812752512001HIPONIA, CATALINA PEDIDA OR                             10502
A4101400260812752512001JUAN, EMMANUEL B                                        20500
A4101400390813292154001ANGELO OR MARIE LYN MOLATO                               0502
A0101412340000003438577LETICIA M. WALSH                                         0501
A0101412340000003343137LOUIENARDO C. FAUSTINO                                   0501
A0101404840000005396916ROSALES, ANGELO JOSEPH PALCES                            0501
A0101406750000003393140FUENTEBELLA, JOCELYN PANGILINAN                          0501
A0101405070861462736001***********                                              0505
A0101405070000003439741ALARO, JHON REY PADURA                                   0502
A0601400230000000452851SAMBILE, NOEL REYES                                      0502
