A3101400450000005355653RAMOS, JAIME ESPINA                                      0502
B0101403320471030317001UPLIFT PHILIPPINES INC.                                  1605
B0101400860011023116001**********                                               1601
A0101400860011495810001**********                                               0501
A0101400860011634877001**********                                               0505
B0101401250021031012001GM GALES GENERAL MERCHANDISE                             1602
A0101401250021183860001ICASAS, MARY JANET S.                                    0501
A0101401250021453364001TORREJOS, ALFREDO OR                                    10502
A0101401250021453364001RYAN ALVIN OR CARMENCITA                                20500
A0101400150000011138257DONATO, MARK ANTHONY IGNACIO                             0505
B0101400150000000633101NEXTGEN BIOENERGY INC.                                   1601
B0101400600071234185001BALAY, FRANCISCO OR BALAY, MELLY                        11601
B0101400600071234185001BALAY, ANDREW                                           21600
A0101405810072367320001**********                                               0506
A0101413280092047618001JENELYN C. GALEON                                        0501
A0101413730000001029532DE LOS SANTOS, BENITO ONG                                0501
A0101414090000006211712MANANGHAYA, MARIA SALOME A.                              0501
A0101414090000010560982FAJARDO, JONATHAN CERVANTES                              0501
B0101414090000007344541LILAC CENTER FOR PUBLIC INTEREST, INC                    1602
A0101401960121445141002***************                                          0501
A0101412630000009425305LUNA, JAKE CALANOG                                       0503
B0101412630000002186570JEC REALTY CORPORATION                                   1602
A0101401830000001281987PANTALLA, MARICEL MAGUIRANG                              0501
A0101401830000005691056SISON, MARIAN CECILY TAN                                 0502
A7201400170000006487901TEVES, ELMER SULAY                                       0501
B0101407270162008369001NMS CONSTRUCTION COMPANY                                 1605
B0101407270162021675001***************                                          1610
A0101407270162366452001REGINA E. JAVIER                                         0502
A0101407270162629922001EVELYN B. DEMURA                                         0502
A0101407270162770709001MARTIN WILLISON U. REYES                                 0502
B0101401090171016399007UST MEDICAL ALUMNI ASSOCIATION INC.                      1601
A0101401090171203082002JUDE PADAMA GUIANG                                       0501
A0301400950000008869076**********                                               0501
A0301400950000006080417**********                                               0501
B0101410720653043060001METRO DRY CLEAN VENTURES, INC.                           1603
A0101413600000002122281PRONACI JR., JOHNNY MADRIA                               0501
B3101400160221064690001AMSI DOCTORS' MEDICAL CENTER INC.                        1602
A3101400160221361155001AGUAS, MILO QUINTOS                                      0501
A3101400160221443010001ERLYN B. LEVISTE                                         0501
A3101400160221478374031ROMEO C. OLIVEROS                                        0501
A1001400190000008743933MANALOTO JR., PEPITO SANTOS                              0502
B1001400190231014438001ABAYA INVESTMENT CORPORATION                             1602
A1001400190231520766012UBALDE, RICHEL TECSON                                    0501
A1001400190000000016457ANTIGA, LUNITA                                           0501
A1001400350233503410003APARICI, ARMANDO AKIAT                                   0502
A1901400290000003252822ROMA PARAN RECINTO                                       0502
B1901400290261027293001LIPA MEDICS INC.                                         1620
B1901400290261212487001BCBP LIPA CHAPTER                                        1605
A1901400290261493025079DARWIN JAY M INCIONG                                     0502
B0101401670271007105003A & S INVESTMENT CORPORATION                             1602
A0101401670000001598441AGUILA, FELICITAS SARMIENTO                             10502
A0101401670000001598441OR AUDREY CRISOLOGO                                     20500
A0101401670271704101001AGUILA, NESTOR SARMIENTO    AND                         10502
A0101401670271704101001CRISOLOGO, AUDREY AGUILA                                20500
A0101406460272238272001CO, TIN WAH Y. (YAP TIN WAH)                             0501
B0101406620273012462001COL FINANCIAL GROUP, INC.                                1615
A0101406620273528771002***************                                          0501
A0101412470000002086422SALVADOR, KELLY OR SALVADOR, SU                         10501
A0101412470000002086422SANNAH                                                  20500
A0101412470000010561781GONZALEZ, BARBARA CRUZ                                   0501
B0101400570281041389001SHEPHERD FLOCK WORSHIP CENTER A/G, INC.                  1603
A1101400120000012676085AYUSTE, RAQUEL COLES OR AYUSTE,                         10501
A1101400120000012676085JORGE ADRALES                                           20500
A1101400120000000652351YAO, RONALD PHILIP GO                                    0502
A6601400120314041602001LEXTAN GENERAL MERCHANDISE                               0505
A66014001203140421880015G GALVEZ CONSTRUCTION                                  10501
A6601400120314042188001AND SUPPLY                                              20500
B6601400120314617698001CATARMAN DOCTORS HOSPITAL, INC.                          1605
B6601400120314617698002CATARMAN DOCTORS HOSPITAL, INC.                          1605
A2001400290000008502196TEMBLOR SR., FLORIDO VILLAGONZA                          0501
B0101405650000002960752SAVORICH CORPORATION                                     1601
A0101409050000002653147NACARIO, INAN G.                                         0501
B0201400760000011325403PAGES HOLDINGS, INC.                                     1603
B0201400760374249471002COMMONWEALTH INSURANCE COMPANY                          11603
B0201400760374249471002-OPERATING FUND                                         21600
B0201400920375035929001UPLAND STOCK FEEDS, INC.                                 1602
B0101402930381008829002AXEIA DEVELOPMENT CORP.                                  1615
A0101402930381319656001ROBERTO C. NERIA                                         0501
A0101408370000003775100DRS. CECILE CASIMIRO OR MA. LUZ                         10501
A0101408370000003775100CASIMIRO-QUERUBIN                                       20500
A0101415350000007043810CHEN, TENNYSON G. OR                                    10501
A0101415350000007043810CHEN, MARIA THER                                        20500
A0101402770000006642806CARABUENA, ALONA DUBLIN                                  0501
B0101402770391026089001NORTH STAR AGGREGATES, INC.                              1603
B0101402770391601391001SPORTSFOCUS, INC.                                        1605
A0101405490000003633190MENDEZ, KATHERINE RAMOS                                  0502
A0101408400394161748001JUGUETA, ROSITESS M.                                     0501
A0101408950396398206001FRANCISCO VICENTE F. LOPEZ                               0502
A5501400120000002018888INOCENCIO, STEVEN DELOS REYES                            0504
B5501400120000002949495ONG, DANILO VILLARUEL                                    1601
A5501400120410613491001BERIN, ROLANDO MILLAN                                    0501
B2401400180411039574001ROS JETTI STATION                                        1602
B2401400180000011298981UY, ERICA BASILIO AND UY, LUCY BASILIO                   1602
B5101400100000010371212BAGONOC, ALDRIN POLICARPIO                               1601
B5101400100000010833957GAW, AIRY LUNA                                           1603
B5101400100000010370902ESTRELLA, FE BELESARIO DBU GOLDEN T                      1601
A0101403030441303194001**********                                               0505
A0101403320000012668167ROCELLE P. KABIGTING                                     0501
A0101403320000006026911ANA SAYSON DBU MALEFICENT                               10502
A0101403320000006026911ENTERTAINMENT PRODUCTION                                20500
A0101403320471316949002VIRGINIA GALAMGAM                                        0501
A0101403320471402087001CECILIA L. DIAMANTE                                      0501
A3801400170000002302932CABAILO JR., FEDERICO OR MAGNO,                         10501
A3801400170000002302932DON OR ALCANICES                                        20500
A1901400160491247764001MARITES E RAMIREZ                                        0501
A1401400110492372983002FLORES, MYRNA ABAYLE                                     0501
B0101407430503017546001ALL-TO-CUSTOMS BROKERAGE & FREIGHT                      11605
B0101407430503017546001CORPORATION                                             21600
A0101407430503184785001PATRICIA Q. AUSTRIA                                      0502
A0101407430503635946001NAVARRO, DONALD DELA CRUZ                                0501
A0101403580000000383664MARIA LUISA SYLVIA A ABELLO                              0502
A0101403580000002265567GUILLERMO, REYNOLD ORIO                                  0502
A0101408530516722111001PERMEJO, MARIA JOANNA AGUILAR                            0502
A0101411400000007169362DE LEON, JEFFREY SAMPANG                                 0501
A0101403450000008160029DAVID, MARIA GISELA ANGELIQUE T                          0503
B0101403450521012107001**********                                               1602
A0101403450521570247001CHAO, DENISE POLLY GAN                                   0502
B0101403610531029447001QUEENS BEST COOKING OIL AND                             11602
B0101403610531029447001MARKETING CORP.                                         21600
A2201400250561425979001ALEX C. IGNACIO                                          0501
B0101404130601046104001BOOMERANG CORPORATE OUTSOURCING                         11602
B0101404130601046104001SOLUTIONS, INC.                                         21600
A0101407720602470788001ISIDRO, MARIA JOCELYN CAPULI                             0502
A0101412180000002340665CARANDANG, KRYZTLE VERONICA COR                          0502
A0101404260000012676223FABRO, JULIETA CARDINES                                  0501
A0101404260000012668594KHURSHEED, KHALID .                                      0501
A0101404260000012668652HAHN, TRACY LYNN .                                       0501
A0101404260000012668696DELA CRUZ, RIA JANICE DEL ROSAR                          0501
A0101404260000012668743SATUITO, VINCENT SIASAT                                  0501
A0101404260000012668787SANTOS, MARK GALVEZ                                      0501
B0101404260611155434001SAMMY L. ESGUERRA, INC.                                  1601
B0101409890000003098151TECHNOLINE DIGITAL TRADING INC.                          1605
A0101407690652573864001ANG JR., JOSE OR SALVACION                               0502
A0101407690000001919855JOSE MARIA AUGUSTO DE JESUS OR                          10501
A0101407690000001919855LEA MARIE MORALES                                       20500
A0101413440000002125439CABATBAT, MARK LOUIE AGUNOD                              0501
A0101413570000004353957RAMEL H. OROZCO OR                                      10503
A0101413570000004353957NORA B. OROZCO                                          20500
A0101413990000003431314DELA CRUZ, CARLITO B. OR                                10502
A0101413990000003431314DELA CRUZ, SHIRLEY A.                                   20500
A0101413990000006278237DE CASTRO - AGBUYA, HAYDEE AMOR                          0501
A0101413990000012673622ALONZO JR., OSCAR N. OR                                 10501
A0101413990000012673622ALONZO, MARIA CECILIA G.                                20500
A0101413990000009073310JM-AGZ PUBLISHING HOUSE                                  0502
B1301400210682016750001JFL AGRI VENTURE SUPPLIES                                1604
A1301400500000009723151**********                                               0502
A1301400500000009723231VELASCO, MYLENE LAZARO                                   0503
A0101408240000006599991ESTERA, WINSTON GEORGE B.                               10502
A0101408240000006599991OR LLAMAS, ROGIELYN P.                                  20500
B0101408240000006414422YAVIN TECHNOLOGIES INC.                                  1601
A0101408240711228456002MA. VICTORIA MANIQUIS                                   10503
A0101408240711228456002OR STEVE MANIQUIS                                       20500
A0101408240711377201001CARMELITA OR DANILO POSADAS                              0502
A0101408240711579997001MARASIGAN, RANDY ALTAREJOS                               0501
B2801400100712025730002YESE TRADING CORP.                                       1603
B2801400230713045988001NGE TRADING                                              1601
A4101400260000011417939VALDERIA, MA. HAZEL SUYOT                                0501
A4101400260000006043118KAHBLESS, AKA DBU KAHBLESS                              10504
A4101400260000006043118INTERNATIONAL EN                                        20500
A4101400260000006043090SAN PEDRO, MA. ROSITA F.                                 0501
B4101400390000003346187PAGASA PHILIPPINES LENDING COMPANY                       1603
A4101400420000009343175REGALARIO, VIVIAN T                                      0502
A4101400550000000315182MARGAJA, FELICITA BITOR                                  0501
A4101400550000006044424MEDIAVILLO, MARK CHRISTIAN AGUI                          0501
A4101400550815045531001JR-RK'S PIZZERIA                                         0501
A4101400550815637838001MAARAT, NENITA OLIVAR                                    0502
A0101404840000004565953RODULFO, CLARIVEL M.                                     0501
A0101404840851320776049FELIPE N. SHEA JR.                                       0501
A0101404840000000943373MARC REY P LUCAS                                         0501
A0101406750000002950770LOPEZ, CARLO RAFOLS                                      0501
A0101406750852039943001RIGHT CLICK ENTERPRISES                                  0510
A0101406750852493456002JOHN O BULATAO OR ANALISA O                             10502
A0101406750852493456002BULATAO                                                 20500
A0101405070861032590001J-VEL-PIL TRANSPORT SERVICES                             0503
A0101405070861478374074PURISIMA C. STA.ANA                                      0502
A0101405070861553114001IDANMAL, RAJESH KUMAR                                    0501
A0601400230891321941002GENER OR EVANGELINE MAGLAQUI                             0501
