A1101400120000006186558GO, HANS HENDRICK UY DBU H                              10501
A1101400120000006186558SNACKS AVENUE                                           20500
A1101400120000006186730MERCADER, LEDY ABONG                                     0501
A0101412920000011166737PACIS, ROGEN DELA CRUZ                                   0502
A1101400120313537396002VILLEZA, ROMEO NIEVES                                    0503
B1301400500000003070093RONALDO E. AMISTAD                                       1601
