B1301400760253821100608**********                                               2002
B1301400760000000050871ENCORE LEASING & FINANCE CORP.                           1601
A1301400760000005989800PANGILINAN, EDWARDSON CORCUERA                           0501
A0101406750000006303340GUZMAN, LILIA ACUESTA                                    0501
A0101406750852478374115CRISENCIA S BATACANDULO                                  0502
A1301400760000005379531JOBY L. MORENO OR                                       10502
A1301400760000005379531LAWRENCE G. MORE                                        20500
B4101400420814016269002DAMAYAN SA ANABU II B CREDIT COOPERATIVE                 1603
A4101400420814418225001LOPEZ, ROSALINA OR                                      10501
A4101400420814418225001LOPEZ JR., RODRIGO                                      20500
A4101400420814478374044BERATIO, MARITES M.                                      0501
A4101400420814520766061ESTILLERO, SUSANA O.                                     0501
A4101400420000003308972MEMBERS OF NATASHA (SHOECAT INC                         10501
A4101400420000003308972UMALI, FLORDELYN C.                                     20500
A1301400760000000050488ARMANDO E. NIEVES                                        0501
A4101400420000002084471ISIP, CLEOFE J.                                          0501
A1001400480000000133371BINUAG, MARGARET MANGALLAB                               0501
A1901400290000002337759OLIVA LEYESA MALDONADO                                   0502
A1901400290000003252673CASTILLO, RACHEL ACALLAR                                 0501
A1901400290000003252855ELSA VILLAPANDO KASILAG                                  0501
A1901400290261007151001OBLATES OF SAINT JOSEPH                                 10512
A1901400290261007151001(PHILIPPINE PROVINCE)                                   20500
B1901400290261023671001PONDONG BATANGAN COMMUNITY                              11603
B1901400290261023671001FOUNDATION, INC.                                        21600
B1901400290261033408001FEEDS EDITION DISTRIBUTION SYSTEMS INC.                  1615
B1901400290000007876746SPOUSE OF THE BLESSED VIRGIN HOSPITAL                   11605
B1901400290000007876746CORPORATION                                             21600
A1901400290261659949001JONATHAN PLANAS DE ROXAS                                 0504
A0101409050352600066001FAYE CARLIE CRUZ OR                                     10501
A0101409050352600066001BENSON RYAN CRUZ                                        20500
B0101403320471035758001***                                                      1603
B0101403320471518351001LEGACY UNLIMITED, INC.                                   1605
A0101406750000006303522SANTOS, RHADE                                            0501
A0101406750852649565001AYSON, CRISTLE APELO                                     0501
B0101400860011427569001**********                                               1601
A0101400860011473146002*********                                                0502
A0101400860011487850002**********                                               0502
A0101400860011688547001**********                                               0505
A0101411370000003294900FARRALES, MARCUS GLEN B. DBU                            10502
A0101411370000003294900GOLDLINE BROKERAGE SVCS                                 20500
A0101400150000007280540CHRISTANTO, JUDHI                                        0501
B0101400150000000000204TRANS ASIA RENEWABLE ENERGY CORP.                        1605
B0101400150000001708561MONTE SOLAR ENERGY INC.                                  1602
B0101400150000001708414SAN CARLOS CLEAN ENERGY INC.                             1602
A0101400150061226702002**********                                               0501
A0101400150061392447001PENA, SHARON MELANIE                                    10501
A0101400150061392447001OR PENA, PERCIVAL                                       20500
A0101400600071092538001CHAN, GIDEON DY OR                                      10510
A0101400600071092538001CHAN, JEANNE P.                                         20500
B0601400100081013041001SEVERINA REALTY CORPORATION                              1604
A0601400100081315126001GOMEZ, MARVIN BERNARDO OR                               10503
A0601400100081315126001GOMEZ, MADELENE                                         20500
A0601400360083478374001ROSEMARIE L. NARCISO                                     0501
A0101414090000001652444KIM, JONG HO                                             0501
A0101410560000001944072VALEN, ROSANA RETIG                                      0501
A0101401960000006004422***************                                          0501
A0101401960121531351001************                                             0501
A0101401960121569490001************                                             0502
A0101413310000001928969ABARRERA, SIGRID VILLARINO                               0502
A0101412920000005354387CONCEPCION, EDISON JEFFREY JAMI                          0501
A0101407270162293484001MA. TERESA E. GANA                                       0503
A0101401090171339798001GRANADO, GEZZEZ GIEZI GARALDE                            0501
A0101401090171394669001JOEL D. OVEJERA                                          0501
A0101401090171490307001BENJAMIN A. BAUTISTA JR.                                 0501
B0301400530000003573528RD PAWNSHOP, INC.                                        1602
B0301400530193044706199ROYAL CROWNE BEVERAGES                                   1605
B0301400660000003361919DAVAO CONSUMER LINKAGE CORPORATION                       1604
A0301400660000003406180*****                                                    0505
B0101410720653030880001NAPOCOR VILLAGE HOMEOWNERS ASSOCIATION                  11601
B0101410720653030880001INC.                                                    21600
A01014107206530412000014 DOUBLERS TRADING & CONTRACTOR                          0504
A0101410720653478374002ZENAIDA O. CARLOS                                        0501
A3101400160221034001001GOODHOPE PAPERS N' PRINT HAUS                            0502
A3101400450223028468001NEW ARMSTRONG SECURITY AGENCY                            0502
A3101400450223352819001FARAON, RIZALINA OR                                     10502
A3101400450223352819001BELEN, RHODORA                                          20500
A3101400450000005355471CIGARAL, PEDRITO EXCONDE                                 0502
A3101400870000005409974MERGAL, BERYL BEN CONCEPCION                             0501
A3101400870000000957655BITHAO, C DBU BP-1 CAR AUDIO                            10502
A3101400870000000957655AND ACCESSORIES                                         20500
A3001400130000006145148FERNANDEZ, ALICIA LASCUNA                                0501
B3001400130000003434648HAPPYALL3 BUILDERS CORPORATION                           1610
A1001400190231358911001WILLKOM, RICHTER OR ERLINDA                             10501
A1001400190231358911001OR LILLIBELLE                                           20500
A1001400190231478374159TILLO, ROMEO B.                                          0501
A1001400190231520766119CABANO, BERNADITH CATIWALAAN                             0501
A1001400190000002170781RAMIREZ, RHESA CABAGO                                    0501
A1301400470000005394221ALICIA M. HOLGADO                                        0501
A1301400760000008272571BADILLA, BERNARDO MAMARIL                                0501
B0101401670000004588401MAIDSOURCE INC.                                          1602
B0101406460272035154001STUDIO84 INC.                                            1602
A0101406460272089801001**************                                           0506
A0101406620000000577082AREVALO, MARY ANN ESPINOSA                               0502
A0101406620273213924001NAZARIO C. SEGUNDO JR.                                   0502
A0101406620273306796052RIVERA, RITA REICHEL                                     0502
A0101408660274478374013HERRERA, CHRISANTINA DOMINGO                             0502
A0101408660274494662001CRUZ JR., LAMBERT LONTOK                                 0501
A0501400200000008254882AGSALUD, MARK ANTHONY IBASITAS                           0501
A0801400160311478374070GENALYN M. BOTANERO                                      0501
A0801400160311478374103INAYAN, MERLINDA GUARDAMANO                              0501
B2001400290315041270001DUMAGUETE PROMPT ENTERPRISES                             1601
A3401400280000004958563NORTHVILLE CHRISTIAN ACADEMY                             0501
A3401400280318086148002FLORENTINO, MIRALUNA LOYOLA                              0502
B0101402350321015321001BEST CHOICE MINIMART INC.                                1605
A0101402350321025863001PROGRESSIVE MASON CLUB                                  10501
A0101402350321025863001(SOUTH MANILA CHAPTER)                                  20500
A0101402350321478374017RIZA G. SANTOS                                           0503
A0101402350000002310736ARIAS JR., ISIDORO TANZO                                 0502
B0101405650322021985002FOREST LAKE DEVELOPMENT, INC.                            1602
A0101409050000000258371JUSAY, RICHARD MANOZA                                    0501
A0201400760000005711159BORROMEO, KENNETH SERON                                  0501
A0201400760374030540001ST. FRANCIS MANPOWER SERVICES                            0501
B0201400760000000033310SAM SOWAH SHIPPING CORPORATION                           1602
A0201400760374475574001KOIKE, MASAO                                             0503
A0201400760374515999001CU, PRINCE LAO OR CU, SIMEON R.                          0501
A0201400760374718948001CABALUNA, MARK ANTHONY LACIA                             0502
A0201400920000002804480MIRANDA, SAMMY                                           0501
B0201400890376045807001**********                                               1620
A0101402930381341460001SUI SIONG T. CANDELARIA OR                              10502
A0101402930381341460001CHRISTINE S. CAN                                        20500
A0101402770391034936001LOGPRO EXPRESS, INC.                                     0503
B0101402770000006812440NESYAN CORPORATION                                       1602
B0101402770000006812513ALCANTARA, ANA MARGARITA DBU                            11602
B0101402770000006812513FJSP TRADING JT                                         21600
A0101405490392034138001MCMAR & MARY ELECTRICAL                                 10502
A0101405490392034138001& CONSTRUCTION S                                        20500
A0101405490000005566463BALTAZAR, MELANIE GAMBOA                                 0502
A0101408400000001952861DIAZ, JAY ANN BORBE                                      0501
A0101408400394162700001FLORES, CATHERINE DOMINGO                                0502
A0101408400394473872001ARCA, ROWENA LUGTU  OR                                  10501
A0101408400394473872001ARCA, EMMANUEL D                                        20500
A0101408950396709443001CABALUNA, MA. LOURDES JOSEFINA                           0510
A0101408950396761506001DONALD C. CRISTOBAL OR MA.                              10501
A0101408950396761506001FLORDELIZA A. CRISTOBAL                                 20500
A2401400180000008269803IDA, QUEENLIZA JIMENEZ                                   0501
B2401400180411033307078MINCORN MILLING, INC.                                    1602
A2401400180411295890001MANIAGO, JIMMY CATAYNA                                   0502
A2401400180411478374004MESRIYA ABDULLAH                                         0501
A1201400150421515209001DIGMAN, HILAREA BALAGOT                                  0501
B0901400220432043554001GERRY'S GRILL                                            1604
A0101403030441469355001**********                                               0501
B0101403030441677350001**********                                               1602
B0101403320000001647230AMALGAMATED INVESTMENT BANCORP.                          1610
A0101403320471047588001RHINA JENEPER C. LIBIRAN DBU                            10502
A0101403320471047588001R-GENESIS DRUG STORE                                    20500
B0101403320000000037567EESC CONSTRUCTION INC.                                   1602
A0101403320471062110001NUMMER ETT BUILDERS & TRADING                            0502
B01014063304720209890011 TO 1 MARKETING INC.                                    1610
A0101406330472372718001PRISCILA BADELLES                                        0502
A1901400160491246063001ARMANDO O MALALUAN OR                                   10501
A1901400160491246063001GLICERIA C MALALUAN                                     20500
A1901400160491589431001MARILOU D BOOL                                           0510
A1401400110492029549002TRIPTORS DIAGNOSTIC CENTRE                               0503
A1401400110492041611001BLUECLICKER COMPUTER CENTER                              0505
B1401400110000001095905BOMEL CONSTRUCTION, SUPPLY AND                          11602
B1401400110000001095905DEVELOPMENT CORP                                        21600
A0101405940000000505662SANCHEZ, MAURO PIO CUNETA                                0502
A0101408530000001885903PAULINE MAE C. DAVID                                     0501
A0101411400517513576001GRIARTE, KENNETH MARTIN ROBLES                           0501
A0101411400000001140407MANLULU SR., EUGENE PARAS                                0501
B0101411400000000230297RIGA PROPERTIES CORPORATION                              1604
B0101403450000006055892ISETANN DEPARTMENT STORE INC.                            1601
A0101404000551325019001***                                                      0502
A2201400250000004404959MANLANGIT JR., RAFAEL DAVID                              0501
A2201400250561478374026MINDA S. BLAYA                                          10501
A2201400250561478374026MEMBERS OF NATASHA                                      20500
A2201400250561779860001ROBERTO P. VENTURA                                       0501
A0101404130000006275909DEL ROSARIO, GIZELLE ROSE PADUA                          0501
A0101407720000000713171TOMAS, ANGELICA CECILIA VELASCO                          0501
A0101404260611045966001FRONDOZO TRADING                                         0501
A0101409920000000118625DILE, BEBERLYN MUNEZ                                     0502
A0101407690000000587895MANLIMOS, AMALYN DELANI                                  0501
A0101407690000000913600MARQUI AUTO SUPPLY                                       0502
B0101407690000000243952VITORIA REGIO VENCEDOR (VRV) BUILDERS                   11601
B0101407690000000243952CORP.                                                   21600
A0101407690652478374032LILIA SOLOMON - DEALERS OF                              10501
A0101407690652478374032SHOECAT INC                                             20500
A0101407690652478374131TARROQUIN, NORA - DEALERS OF                            10501
A0101407690652478374131SHOECAT, INC.                                           20500
A0101407690652478374194ARQUILLANO, GLORIA - DEALERS OF                         10501
A0101407690652478374194SHOECAT, INC                                            20500
A0101407690652520766022ELVIE GALENDEZ - DEALERS OF                             10501
A0101407690652520766022SHOECAT INC.                                            20500
A0101407690000000154710MATIAS, MARY ANN CURTIS                                  0501
A0101411530654775241001LIM, JENSEN S OR LIM, LILY S OR                         10501
A0101411530654775241001WONG, CHRISTINE C                                       20500
B0101413570000007212962KASAGANA-KA DEVELOPMENT CENTER,  IN                      1608
A0101410300000000919648TAGUDAR, RONETH V. DBU PET TRUC                         10505
A0101410300000000919648KING SERVICES                                           20500
A1301400340000002283781RODELIO D. RUBIO OR                                     10503
A1301400340000002283781ALONA D. ALIPIO                                         20500
A1301400340000005264808DE GUZMAN, ALEX LIZARDO                                  0502
A0101408240000002821763HADUCA, PATRICIA ALEXANDRIA G.                           0501
A0101408240000003955351ORIDO, EDRALIN LOYOLA                                    0502
A0101408240711392058001TAPALES, SILVESTRE NAKPIL OR                            10503
A0101408240711392058001TAPALES, MA. RITA                                       20500
A0101408240711643338001ARCAYA, MICHELLE GRASPARIL                               0501
B2801400100712021648002BIG IRON TRADING AND DEVELOPMENT INC.                    1603
A4101400390000007459187CABRERA, CONRADO MORENA                                  0501
A4101400390813775566002TUAZON, MARIO CALDERON                                   0502
A0101404840000005820479MEMBERS OF NATASHA (SHOECAT INC                          0501
A0101404840851478374121MARISSA L. ESPARAGOSA                                    0502
A0101405070861032590001J-VEL-PIL TRANSPORT SERVICES                             0502
A0101405070000006006097CANTILLO, ALDWIN C. DBU ALDWIN                          10501
A0101405070000006006097C. CANTILLO LOGI                                        20500
A0101405070861478374020SOL G. CONFLOR                                           0503
A0601400230000002310230YUTUC, CATHERINE PANGAN                                  0505
A0601400230000000045230VICENCIO, M DBU HCON BUILDERS &                          0502
