F0301400110191038997168DAVAO HELEN'S PAWNSHOP CORP.                             2605CKR
F0101400150061011039002RIO TUBA NICKEL MINING CORP.                             2610CKR
F0101402480331635109001*********                                                2603CKR
F0101407690000007720158BLISTERS AND BLISTERS, INC.                              2601CK1
F0101408240711469319001ESCOLAR, RICHARD TAN OR JACLYN                           2501CKO
F4101400260812022293003JOMIJOH'S BAKESHOP INC.                                  2601CKO
F4101400260000001673394CANTIMBUHAN, MARIA PATRICIA AUS                          2502CKO
