B0101403450521821100608**********                                               2030
B0101408950396821100608**********                                               2005
A0101414120000001751435ROGELIO F CRUZ CONSTRUCTION                              0505
A0101414090000001652433JANGSIK YUN                                              0502
A3101400870000000957677FLORES, R DBU COLOURBLINDS                              10502
A3101400870000000957677INTERIOR PRODUCT                                        20500
A3101400870225511016002GONZALES, FE REMEDIOS FIGUERAS                           0501
B0101414090000007344410TRI STATE & MELTING POT BISTRO GROUP INC                 1601
B0101408790383821200608**********                                               2001
A0101400440161039572023JIMMY S. PALISOC                                         0502
A0101400440161798533001MINGOY JR., ANDIOLO PATCHICO                             0501
A2001400290000005926069TAN, EARL FRANCIS ROMANO                                 0502
A2001400290000001974029ALEXIS SECURITY AGENCY PROVIDER                          0501
B0101406750000005608453LOREDO, ELMER DE LUNA                                    1601
A0101400860000001005503**********                                               0503
A0101400860011387131002**********                                               0502
B0101400860011388241003**********                                               1603
A0101400860011482819001**********                                               0503
B0101400860011502561003**********                                               1603
B0101401250021821200608**********                                               2002
A0101400150000006759853LUBIS, KAREN A.                                          0501
B0101400150061228665001MALAYAN TOWAGE AND SALVAGE CORPORATION                   1610
A0101400150061370228051RHODORA REMIGIO                                          0501
A0101400150061739693001***********                                              0501
A0601400100081251944001DAVID, GERARDO MORENO                                    0501
A0601400100081507583001CANLAPAN, MARICAR TAPNIO                                 0502
A0101413730000000144625*******************                                      0501
A0101414090000000648493*******************                                      0501
B0101414090108821100608**********                                               2004
A0101400730000005208811CABUAL, EVELYN FERNANDEZ                                 0501
B0101413150000005944050********                                                 1602
A0101413310000005433147CONCEPCION, TERESITA GUINTO OR                          10501
A0101413310000005433147CONCEPCION, ANTONIO D.                                  20500
A0101401830000001139953ROSEMARIE S. NOJADERA OR                                10501
A0101401830000001139953ISAGANI M. NOJADERA                                     20500
B5001400170000000214042*********                                                1605
B5001400170153821200608**********                                               2001
A0101400440000001440000LAPASARAN, MARY GRACE FRANCISCO                          0502
A0101400440000000821298DIOBET ERDIE I. DIOQUINO                                 0502
A0101407270162047398001YACHANG INTERNATIONAL                                   10501
A0101407270162047398001MANAGEMENT SERVI                                        20500
B0101407270000007747013GRABAGILITY INC.                                         1602
A0101401090171195610001WILFREDO/CYNTHIA/MARIFEL MITZI/                         10504
A0101401090171195610001CYNTHIA MARIE FERNANDEZ                                 20500
A0101401090171196109001ANGELES A. UNTALAN                                       0501
A0101401090171202809001KASHMER T. CRUZ                                          0501
A0301400530193043858168******                                                   0510
A0301400530193047254189TAGUM TRIO LUMBER CORP.                                  0510
A0301400950000008868966SEEKHANA STUDY HUB                                       0501
A0101401380000000106538SANCHEZ JR., DELFIN BALAIS                               0501
B3101400160221064925001MEGAPOWER ELECTRO - MECH CONSTRUCTION                   11601
B3101400160221064925001CORPORATION                                             21600
A3101400160221478374058MARIBEL S SIBOR                                          0501
A3101400450223478580003DELOS SANTOS, ROLAN LEE                                  0530
A3101400740000001093903DELA CRUZ, BENITA RICABLANCA                             0502
B3101400740224821200608**********                                               2001
A3001400130000001261283LIM, EDGAR ALLAN DIAZ                                    0502
B3001400130230043293001L.M. TING FOODILICIOUS CORPORATION                       1610
A1001400190000003017789FELIX C. IGCALINOS DBU IFM GENE                         10502
A1001400190000003017789SERVICES                                                20500
A1001400190231520766128MAGLANGIT, JONIE QUIACAO                                 0501
B0101406620273017898002FIRST BALFOUR, INC.                                      1610
B0101406620273045167001VENTURANZA, HOSTALERO AND COMPANY, CPA'S                 1601
B0101406620273046416001FIRST SHELTER VENTURES & REALTY CORP.                    1610
B0101406620000003497103GREENROOF CORPORATION                                    1603
B0101406620273216386001CITIMEX, INC.                                            1602
A0101406620273357236001GABRIELE G. BOSCHI                                       0503
A0101406620273471170001PANGILINAN, WILHELM JOSEPH C.                            0502
A0101408660000007457994F. CURA INDUSTRIES                                       0504
A0101412470000000520192ARCA, ESTHER DBU WASABE SPICE                           10503
A0101412470000000520192OF THE ORIENT                                           20500
B0501400200292037748001FIRST EMA WEST CREDIT CORPORATION                        1605
A0501400200000005137188GANANCIAL,SHERLYN DBU MAX GEL                           10501
A0501400200000005137188ELECTRONIC SERVICE CENTER                               20500
A2601400270302045645001RISING DRAGON ENTERPRISE                                 0501
B0801400160311013978001FAR EASTERN HARDWARE AND FURNITURE                      11602
B0801400160311013978001ENTERPRISES, INC                                        21600
A1101400120000006081056CONDE, ALEXIS CELL ABROGAR                               0501
A1101400120000002254811NEJUDNE, JOSEPH SUMAYO                                   0502
A0101405650000006273601H. NOOR, MALIKSAIF BANGON                                0502
B0101402510341008473001CENTRO ESCOLAR UNIVERSITY EDUCATIONAL                   11602
B0101402510341008473001FOUNDATION, INC.                                        21600
A0201401020000004398363AGURO, ROWELA AGRAMON                                    0501
A0101402930000007031250CUA, GEORGE NICHOLAS                                     0502
A0101408370000006446422SUMULONG, MARIA CARINA TERESA A                         10503
A0101408370000006446422SUMULONG III, LORENZO Y.                                20500
A0101408790000005169126SADIA, MARVIN MIRAS                                      0501
A0101411660000002881161RBE ACCOUNTING SERVICES                                  0502
A0101415350000007877841GIANAN, GENALYN RODRIGUEZ                                0501
A0101408400000001855381ABSA BUILDERS                                            0504
A0101408400394066074001MAKEN MANPOWER SERVICES                                  0501
B0101408400394066082001THE JESUS FESTIVAL INC.                                  1602
A0101408400394542845001PINEDA, DINDO DOMINGO                                    0502
B0101409210000000031192LSC CORPORATION                                          1602
A5501400120000000003203JABONETA, MA. RESTIA JAENA                               0501
A5501400120000006976563ANIVERSARIO, ARNIE ZUYCO                                 0501
B2401400180411026291001ST. MICHAEL THE ARCHANGEL PARISH                         1610
A1201400150000000034493YU, MARTINA BAGONA                                       0506
A0901400220432478374002EVELYN ALGA DEMECILLO                                    0502
B0101403030441039990001TOPTRUCK ENTERPRISES                                     1601
A0101403320000000735882SATUR, NENITA BOROL                                      0501
A0101403320000009950303MARK HARMON O GUZMAN                                     0501
A0101403320471478374005JOANN L. ANDAY                                           0502
A3801400170000000955040EDWIN C ACOB                                             0502
A1901400160491282845001ARTHUR C MALALUAN OR                                    10501
A1901400160491282845001IRENE D MALALUAN                                        20500
A1401400110000008266342DELA ROSA, VIOLETA AQUINO                                0504
A1401400110000008266091ORACION, VALENTINO RANOLA                                0501
B1401400110492010098001CASEI MARKETING CORPORATION                              1610
B1401400110000000034693LUCENA CITY PHARMA CORPORATION                           1601
A1401400110492687149001TAYABAS, JOSIE ABCEDE                                    0502
A1601400170000002334032PALENCIA, CHULO NEPOMUCENO                               0501
B1601400170494821200608**********                                               2001
B0701400260495821200608**********                                               2001
A0101407430503366589002OBRERO JR., ALFREDO FAJARDO                              0502
A0101411400517394278008*******                                                  0502
A2201400250000007122870NATHANIEL E. SERRANO DBU                                10503
A2201400250000007122870JONAD'S KALDERETA KING                                  20500
B0101407720602035637001AIKONTECH CORPORATION                                    1602
B0101407720000007951775JSASIA INC.                                              1601
A0101407720602340866001HONG, CRISTINA CHO                                       0501
B01014077206024892100011stMARK GLOBAL MEDICAL SERVICES, INC                     1603
A0101407720602647462001HONG, JUYON CRISTINA CHO                                 0501
A0101404260611788828001LUSTERIO, JOEL BONGOSIA                                  0502
A0101409920000000998569MEMBERS OF NATASHA (SHOECAT INC                         10502
A0101409920000000998569PEDROSA, JULIE                                          20500
A0101413440000002706072PORCIUNCULA, CATHERINE R. OR                            10502
A0101413440000002706072PORCIUNCULA, JOS                                        20500
B01014134400000090067248MANOR 8BINGO8 CORP.                                     1601
A1301400210000003104974SAN JUAN, BRYAN MARC ALVARAN                             0502
A0101408240000006600131SANTOS, GLENDA BRODETT                                   0502
B0101408240000000005585DLSZ (DE LA SALLE SANTIAGO ZOBEL SC                      1601
B0101408240000000832542SCORPIO TRANSPORT & MANNING SERVICES,                   11605
B0101408240000000832542INC.                                                    21600
A0101408240711377201001CARMELITA OR DANILO POSADAS                              0502
A0101408240711499514001UMALI, RUPERTO VIBAR                                     0501
A2801400100712614223001PAULITE, ARTEMIO REYES                                   0505
A4101400260812339290001DR JOSE ARMAND GURANGO OR                               10504
A4101400260812339290001DRA MARIA CORAZO                                        20500
A4101400390813536157001DIONEDA, MARIE CECILE DOOC                               0505
A4101400550000003267116MYRA CRIST S. TINDO                                      0501
A0101404840000004565851JACKY I. LEONARDO                                        0502
B0101406750852066061001CS-PAC GLOBAL BPO INC.                                   1601
A0101406750852522681001CORONEL, ELENA V. OR                                    10502
A0101406750852522681001CORONEL, CARLIN                                         20500
A0101406750000000172898MANAN, ABDUL RAKIM ELIAS                                 0502
B0101405070861008460005STARS TRAVEL INCORPORATED                                1602
A0101405070861032590001J-VEL-PIL TRANSPORT SERVICES                             0502
A0601400230000007402100ALBANO, GIENAH PACLA DBU HYDROE                          0501
