A1001400190000000016446JOMOC, RENETH TAGARDA                                    0501
A0101408820000000027283JUDITH LACANDULA                                         0501
A0101400310000000140792ARTHUR, ARNEL JERIC ZABLAN                               0501
A0101406620000000193840TAN, APRIL LYNN LEE                                      0501
A0301400660000000194887*****                                                    0501
A0301400660000000194898*****                                                    0501
A2601400270000000561988ROSALINDA S. ORDONEZ                                     0501
A0101404840000000683585ROXANNE P. AGUILLON                                      0502
A0101412500000000739577SALAZAR, PRISCILLA GEMMA H.                              0501
A0101411530000000741713**********                                               0501
A0101411080000000805776********                                                 0501
A0101400150000000807932YU JR., LUIS NG                                          0502
A0101412050000000890831CANDA, JOAN CASTRO                                       0502
A0101412340000001017930SONIA MEDINA SIBI                                        0502
A0601400230000001062344MUNOZ, MYLIN SANTOS                                      0502
A3001400130000001271567LIBRES JR., PONCIANO NICOLASORA                          0502
A0101412180000001293323SANTIAGO, DOMINADOR REYES                                0502
A0101409210000001294606LIU, XIANGCHAO                                           0501
A0101404840000001312725GUERRERO, EDELMARIE BOBIS                                0502
A0101409920000001539595CORNELIO, MARY JOY LERIOS                                0501
A0101413570000001682679ARNOLD HAIRDRESSING SYSTEM CO.                           0505
A1201400150000001863265TAULI, VON RYAN T. DBU T.R.V. E                          0502
A0101408820000001880606MARQUEZ, ELVIRA OLIVEROS                                 0501
A0101408400000001952741ORINA, CHRISTOPHER PASCUAL                               0501
A2401400180000002146152SANTIAGO, CLARITA CASTRO                                 0501
A0101406750000002251394MOLINA, ROSALIE GUMANIT                                  0501
A0101404000000002258471BADIOLA, MAURO BABILONIA                                 0502
A0101405940000002268620GRAIDA, JOHN ALFRED CANDO                                0501
A0101400570000002329740SY, ESTER CHOA                                           0501
A0301400660000002348518MIDDLETON, JAZMIN CAINAP                                 0502
A0101400310000002659749*******                                                  0504
A0101401700041192370001******                                                   0506
A0101400600071233729001**********                                               0501
A0101400600071242964001**********                                               0502
A0101400730111298364001**********                                               0502
A0101400730111386485069DELIA R. PIOQUINTO                                       0502
A0101400730111514587002*******************                                      0501
A0101400440161478374189CORAZON C. BOLA                                          0501
A0101400440161537092001EVANGELINE R. BAUTISTA                                   0502
A0101401090171199408001MA. CRISTINA C. DORIA                                    0502
A0101401090171353988001CITADEL C. DE CASTRO                                     0502
A0101400310211036092001NSC STAINLESS STEEL FABRICATION                          0501
A0101400310211157896001MANUEL P. ROXAS JR.                                      0501
A0101400310211157997001MEDALLA JR., BERNABE BERDEJO                             0504
A0101400310211478374057CLAUDIA S. VIRAY                                         0502
A0101400310211722479002MARTICIO, BONIFACIO CUACHIN                              0501
A0101400310211753220001GERMABI CORPORATION                                      0502
A0101407140213717185001**********                                               0502
A3101400450223028468001NEW ARMSTRONG SECURITY AGENCY                            0502
A0101406460272190124002UNSON, MA. LUISA D.                                      0502
A0101406460272533237001CHUA, CARLA DANIELLE CU                                  0501
A0101406620273301500005MENDIOLA, GABRIEL JOSE E.                                0501
A0101402510341399875001MACAPAGAL, LUISITO SORO                                  0501
A0201400760374485660001SI, MARGARET ANG                                         0501
A0201400920375039398001QCS PHILS. - CONSULTANCY & TRAI                          0502
A0201400920375478374016CERBO, SHAMIR LOU CAGAIS                                 0501
A0201400890376091473001*************                                            0501
A0101408370382391662001MARK JOSEPH J. REYES                                     0503
A0101408370382417960001JOVITA SAN DIEGO                                         0501
A0101408790383508864001BARBOZA, EVELYN JANDUSAY                                 0502
A0101408400394365111002REYES, DAISY GARCIA                                      0503
A0101408400394478374075VIOLETA I MANUEL                                         0501
A0101408400394478374087JANET L BASSIG                                           0502
A2401400180411290049001EDGAR C. FAUNI                                           0505
A2401400180411442136088***************                                          0501
A1201400150421478374066FLORES, JONATHAN                                         0501
A0101403030441239686001**********                                               0502
A0101403030441281741001**********                                               0504
A1901400160491388469006EDWIN V. ALEA                                            0501
A1901400160491414715001JOSEPHINE A CONCEPCION                                   0501
A0101407430503478374012ANALIE YPANTO                                            0502
A0101403580511156598004ALICIA C. DELOS ANGELES                                  0501
A0101405940512326499002CASTRILLO, CARLITO BARRIAS                               0502
A0101408110515041358001MADE IN HEAVEN ENTERPRISE                                0501
A0101408530516615903016**********                                               0501
A0101408530516615903022CHERYLL EILEEN B. NILLO                                  0501
A0101407720602381639001LANDICHO, MARIA PRINCESS M.                              0502
A0101407720602396678002ANTONIO, CRISTINA MEDINA-CUE                             0503
A0101409920650478374005CRISOSTOMO, MA. EMELIA GASPAN                            0501
A0101404680651460280001OFELYN T. YORO                                           0502
A0101407560686478374024LORNA SIBAYAN                                            0501
A0101407560686506885001**************                                           0504
A4101400420814478374040TAN, IMELDA F.                                           0501
A4101400420814478374171MICHAEL G. RIBOT                                         0501
A4101400420814559384001RIBOT, NORMA GAJE                                        0501
A0101406750852241118001FLORES, JOY                                              0501
A0601400230891533093001DE VERA, RANDY ESPINOZA                                  0501
A0201400920000000048177K4M HOLLOW BLOCK/SAND &                                 10501
A3801400170000000154185EVANGELISTA, BABY DAISY DBU                             10502
A1301400500000000213083JUANITO F. GREGORIO OR AURELIA                          10501
A0101411950000000490835EMPEROR'S KITCHEN EQUIPMENT                             10503
A0101412890000001056371CALUSA, MA CRISTEL MAICA LEYNO                          10501
A0101409050000001662426PEFIANCO, FRA DBU DRAGON EMPIRE                         10501
A0101410690000002290677CIOCON, OMEGA DBU RLC WATER                             10501
A0101412890000002747788OCHOADA, R DBU VILLAGE AUTO                             10501
A0101400730000002882273DIVINAGRACIA, ROWENA SANDY                              10503
A0101404680000003000828BEIN ADVANCE CONSULTANCY AND                            10502
A3101400450223403586001NUA, CHRISTIAN JOHN OR RICHARD                          10530
A3101400450223693052001FERRER, PAMELA PIA OR MELVIN                            10506
A0101406620273280285001PELAGIO / ROSARIO / REBECCA /                           10501
A0101406620273410741001JOSE ARNEL G. SANTOS OR                                 10501
A0101400570281347185001CATALINA P. BARON OR                                    10502
A0101409210398070116001LUNA, RACHEL ANGELA GONZALES                            10501
A5501400120410691845008INOCENCIO, ELLAIN MARGARET                              10503
A0101407720602495778001CAPELLAN, MARIA LEONORA                                 10501
A1701400230693478374062AGNES, EVAMARIE KRISTINE                                10501
A4101400420814436355001BAUTISTA, LOIDA U. OR                                   10502
A0201400920000000048177GRAVEL ENTERPRIS                                        20500
A3801400170000000154185R.D.E. BEAUTY CE                                        20500
A1301400500000000213083S. GREGORIO                                             20500
A0101411950000000490835FABRICATION                                             20500
A0101412890000001056371OR CALUSA, RODEL                                        20500
A0101409050000001662426CONSTRUCTION                                            20500
A0101410690000002290677ESSENTIALS                                              20500
A0101412890000002747788CLINIQUE                                                20500
A0101400730000002882273MAGLASANG                                               20500
A0101404680000003000828COPY SERVICES                                           20500
A3101400450223403586001OR MELODY                                               20500
A3101400450223693052001JOHN OR AUSTRIA, APRYL                                  20500
A0101406620273280285001RAFAEL / ROWENA                                         20500
A0101406620273410741001CONCEPCION A. SA                                        20500
A0101400570281347185001MA. JOSEFINA SAWIT                                      20500
A0101409210398070116001DBU LUNA MOON PR                                        20500
A5501400120410691845008OR INOCENCIO, STEVEN                                    20500
A0101407720602495778001DEL ROSARIO                                             20500
A1701400230693478374062DULDULAO                                                20500
A4101400420814436355001BAUTISTA, EPITAC                                        20500
B0101409210000000031290LSC CORPORATION                                          1602
B0101413150000000038639******                                                   1601
B0101412890000000125317LANSANG CONSTRUCTION                                     1601
B0101406620000000193942SOURCEFIT PHILIPPINES INC.                               1601
B0101400150061010797003LA COSTA DEVELOPMENT CORP., INC.                         1605
B0101400150061024429001BRONZEOAK PHILIPPINES INC.                               1603
B0101400310211031469001SWITCHTEK CONSTRUCTION CORPORATION                       1604
B0101400310211043559001FOODDALE ENTERPRISES, INC.                               1602
B0101407140213043970001INNO BEV INC.                                            1603
B0101406460272007487001FOODMACH, INC.                                           1603
B2601400270302039764001MOTORAM MOTOR PARTS                                      1602
B0101402060351033821001BUSMED ARTS, INC.                                        1605
B0201400760374032173001MARIANO & SONS MARKETING, INC.                           1605
B0201400920375046651001CFG QUICKSERVE                                           1605
B2401400180411031390001SYNCHROTEK CORPORATION                                   1605
B0101403580511005445013MILLENNIUM BUSINESS SERVICES, INC.                       1601
B0101405940512035177001FRONTIERS UNLIMITED NETWORK, CO., INC.                   1602
B0101408240711039418001IKOGH'ENIA INC.                                          1602
B2801400100712020330001HOYA MARINE CORPORATION                                  1602
B0101410560000000757240BALTAZAR, BEATRIZ POLO AND GARBILES,                    11602
B0101402060351018216001RGC EMPLOYEES SAVINGS & LOAN ASSOCIATION                11602
B2201400250561013172001INTERNATIONAL WIRING SYSTEMS                            11650
B2801400100712035549001AUTOTEC AUTOMOTIVE TESTING AND EMISSION                 11602
B0101410560000000757240LETICIA MORILLA                                         21600
B0101402060351018216001INC.                                                    21600
B2201400250561013172001PHILS. CORP                                             21600
B2801400100712035549001CENTER INC.                                             21600
B0101403450521821100608**********                                               2030
