F0101401250021599833001HASHIMOTO, LYDIA BONDOC                                  2503CKO
F3201400190000001493169***********                                              2601CKO
F1801400130151048761001MSU-IIT NMPC KIWALAN BR.                                 2602CKR
F3101400160221010538002ADVANCED MEDICAL SYSTEMS, INC.                           2620CKR
F0301400240401025953008ECE MARKETING                                            2602CKR
F1001400480000000133600INDORAMA VENTURES PACKAGING (PH                         12603CKR
F1001400480000000133600ILIPPINES) CORPO                                        22600CKR
F1401400110492010111003QUEZON CAPITAL RURAL BANK                                2705CKC
