F1301400470252428039003REYNALDO OR LUZVIMINDA PINE                              2505CKO
F0801400290000000011490THE SUITES AT CALLE NUEVA, INC.                          2601CKR
F0301400110191040022138BANANA TELECOMMUNICATIONS, INC.                          2603CKR
F0301400110191040022178BANANA TELECOMMUNICATIONS, INC.                          2602CKR
F3101400320222029757001MIYASAKA POLYMER (PHILS), INC.                           2605CKR
F0301400400413014142002BROSCO CONSTRUCTION & DEV'T.                             2605CKR
F1201400150421031460002CJH SUITES CORPORATION                                   2602CKR
F0101406620273037433001QUADCORE CONSTRUCTION &                                 12604CKR
F0101406620273037433001DEVELOPMENT CORP                                        22600CKR
