A1001400190000000016480ANGELITUD, LYDIA LECIAS                                  0501
A0101404420000000025830*****                                                    0520
A0101411080000000026224*****                                                    0501
A0101400440000000029423ROBINA P. OTAZA                                          0501
A0101412630000000045263HUERTO JR., PETRONIO ASINAS                              0502
A1301400470000000061543DAISY BORJA SAGUN                                        0502
A0101405940000000061583CASAS, JOHN VICTOR ABEJURO                               0501
A0101400730000000112972MARINAS, MARIARITA MANAGUIO                              0501
A1901400290000000135093MARITES LIM SANCHEZ                                      0501
A3401400280000000156632ALMERO JR., MACARIO FOJAS                                0501
A0101402510000000200164EVELYN M. TOLENTINO                                      0502
A0101404680000000384190MA. LEONILA C. AGUADO                                    0501
A0101401250000000460542PAPALID, JOEBIE LIBRE                                    0502
A4101400390000000500530ARCILLA, CAESYLYNNE FORTUNO                              0501
A0101408240000000521822MANGLAPUS JR., RAUL LAO                                  0501
A0101410560000000590603MONRAYO, AL ORENCIO                                      0501
A0101407270000000818359DARYL ANN J. PONCE                                       0501
A3001400130000000931373SANCHEZ, AURALYN LUMAMBA                                 0501
A0101408400000000960441PARAGO, ALBERT LUMIO                                     0501
A0101409050000000999620DIMZON, CARMINA AMOR GARCELLANO                          0502
A0101400730000001016453HONEY JEAN R. DACLAG                                     0501
A1001400190000001057396LOLITA B. DULCA                                          0501
A0101410140000001074840SUMULONG, LOLITA PORTUGUEZ                               0501
A5501400120000001121811VILLARUEL, MARIA VIRGINIA                                0505
A0101403610000001174801TAGUINOD, ELISA BEDINA                                   0501
A0701400260000001232017ALCABA, CHERRY DE VERA                                   0501
A0101403030000001302065**********                                               0501
A0601400520000001349491MANALASTAS, MINDA CORREA                                 0501
A0101413990000001406564CONSEJEROS, MYRA M.                                      0501
A0101402770000001571295OSCAR DYCAUSING BANUA II                                 0501
A0101404130000001614513TIONGSON, WILMA LOURDES CUEVAS                           0501
A0101401960000001844588**********                                               0503
A1901400290000001926354MERILYN ESTEPA PACITENG                                  0503
A1901400290000001926434DR.JULIETA ATIENZA-VILLANUEVA                            0505
A0101400440000002034931JOB-ON-LINK STAFFING SERVICES                            0503
A0101413570000002249390**********                                               0501
A2801400100000002253469HERILLA, ANDREA MONTAJES                                 0501
A0101409050000002652899BACANI, MARIA ELOISA                                     0501
A0101409050000002652913BORRAS, JANON G.                                         0501
A0101409050000002652991HERRERA, EUGENIO M.                                      0501
A0101409050000002653192PUNZALAN, DENNIS L.                                      0501
A0101407270000002797193MANGONON, HAMILTON DE GUZMAN                             0501
A0101400600071057858001BESTA SHIPPING LINES, INC.                               0503
A0101405810072234609002TAN, JOSEFINA MANOSCA                                    0505
A0101405810072432190002ZHENG, LI HUA SHI                                        0506
A0101405810072441666001**********                                               0505
A0101405810072478374022***************                                          0501
A0101405810072563073001ADRIANO, MILAGROS ACOSTA                                 0510
A0101400730111386485175IVANHOE O. MARASIGAN                                     0502
A0101400730111478374028LIBRADA MAGNO                                            0502
A1001400190231520766036ONIPA, JANE ROSE P                                       0502
A1901400290261298552022ALVIN DEL ROSARIO MAGNAYE                                0502
A1901400290261298552056TERESITA EUGENIO PUNZALAN                                0501
A1901400290261361810001ALVIN MANALANG ANG                                       0501
A1901400290261390520001JOEL PUNZALAN DIMAANO                                    0502
A1901400290261478374014AILEN CULLARIN AVENDANO                                  0502
A1901400290261478374029CRISTINA BITUIN LORIA                                    0501
A0101401670271191734004CARLOS, EVANGELINA DINO                                  0501
A6601400120314737040001DURA, CARLITO OR DURA, RENY                              0503
A0101408820333478374062SANDRA G. BUENO                                          0502
A0101402060351211784001ANDRES &/OR CYNTHIA PEREZ                                0502
A0101402060351211787001MENELEO &/OR FILOMENA CARLOS                             0501
A0101402060351211807001FILOMENA &/OR ELIZABETH CARLOS                           0501
A0101402060351217440026CARLOS III, MENELEO G.                                   0501
A0101409050352081841001LOUIE BENEDICT C. HERNANDEZ                              0502
A0101402640361394017001HIPOLITO, LUZVIMINDA CRISTOBAL                           0501
A0201400920375609447001RAMIRO, MARIA ARCELI AVANZADO                            0502
A0201400890376595445001SUMALINOG, TRINIDAD ROMULO                               0501
A0101402770391355762071RUEL ALBINO E. VILLANUEVA                                0501
A0101405490392029904001ROSH INDUSTRIAL SUPPLY                                   0501
A0101405490392341291001LYDIA R. CAYOG                                           0502
A0101403030441325147001**********                                               0501
A0101403030441349976001**********                                               0502
A0101408530516499116001***********                                              0502
A0101408530516584323001COLOMA, SHERYL LADD CHENG                                0501
A0101403450521239750002EDDIE L. CHUA                                            0502
A0101404130601452661001KING, ARCHIMEDES OR KING, WYDEN                          0502
A0101404130601454105001LOPEZ, TERESITA YABUT                                    0501
A0101407720602496503011KANY KANE F. BORIA                                       0501
A0101404680651537465002MIABELLE B. BRINGAS                                      0502
A0101408240711374194001ELBA S. CRUZ                                             0510
A0101408240711664308001PELOBELLO, DIVINA MANZANO                                0501
A2801400100712744077001*******                                                  0502
A4101400390813478374014ELIZABETH V. EVAL                                        0502
A0101404840851317230019FURAGGANAN, GENE C.                                      0502
A0101404840851520766156LILIBETH TONGO                                           0501
A0101404840851520766161HELEN S. CARNECER                                        0501
A0101406750852478374059ARLENE GUERRERO                                          0501
A0101406750852478374065MARIVEL L. MANGUERRA                                     0502
A0601400230891398766001..........                                               0502
A3001400130000000007063GOLDEN HARVEST CATERING                                 10502
A1001400480000000041523PO, MARILOU TRAJANO OR PO,                              10502
A1601400170000000421047JUVY G. VILLANUEVA DBU                                  10501
A0101412210000001236333BALLECER, JOSE DBU SUREMED                              10501
A0101402770000001571302MALAGKIT, ROGELIO CABIGAS DBU                           10501
A0101412890000001765517REYES, R DBU RICAR-CELESTINE                            10501
A1901400290000001926332ARMANDO G MORALES                                       10502
A0101401250021453364001TORREJOS, ALFREDO OR                                    10502
A0101400150061229009001MANGLAPUS III, RAUL JAY OR                              10501
A0101401090171787698001INGUSAN, CRISTINA TOLENTINO OR                          10502
A3101400160221557336002JOSELITO M GUEVARRA OR                                  10502
A1901400290261244409001ESPERANZA PAZ M LEYEZA OR                               10502
A0101401670271278468001MICHELLE G. RIVERA AND                                  10502
A0101408660274521676001MABASA, CARISSA MOONYEEN S. OR                          10503
A6601400120314770603001NGALLAWEN, REMY P OR PAILAGAO,                          10505
A2001400290315733226002DAVID, FRANCISCO OR DANILO OR                           10503
A0101408370382452783001DR. ESTRELLITA F. LOPEZ OR                              10502
A0101408370382497608001DR. AZENETTE LACUNA-MENDOZA OR                          10501
A3801400170490784760001EDYLOU B TEJIDO OR                                      10502
A0101405940512152920001NELSON T. LAO OR STELLA MARIE                           10501
A0101405940512360728001ERWIN P. HERNANDEZ OR AGNES                             10501
A0101403610531047237001SAEZ, NORA DBU                                          10505
A0101403610531219472002NAVOA JR., FILOMENO CORPUZ OR                           10501
A0101403610531308186001ANDAL, REGINALD R. OR                                   10502
A0101404130601693981001LIMSICO, ALFREDO OR LIMSICO,                            10501
A0101404130601693981002LIMSICO, ALFREDO OR LIMSICO,                            10501
A0101406590662206509001ELISEO RAZON OR                                         10501
A1301400210682394090002RICARDO CAMUA JR. OR                                    10502
A1301400500684589977001VIOLAGO, MA. LORENA M.OR                                10501
A0101404840851212628001CARLOS JR., ALFREDO AREVALO OR                          10503
A3001400130000000007063SERVICES & FASTFOOD                                     20500
A1001400480000000041523MAUREEN TRAJANO                                         20500
A1601400170000000421047THE BICOL GREENLEAF GRILL                               20500
A0101412210000001236333LABORATORY & MEDICAL PROD                               20500
A0101402770000001571302RCMALAGKIT CONSTRUCTION                                 20500
A0101412890000001765517MARKETING                                               20500
A1901400290000001926332DBU AGM CONSTRUCTION                                    20500
A0101401250021453364001RYAN ALVIN OR CARMEN                                    20500
A0101400150061229009001MANGLAPUS, JENNI                                        20500
A0101401090171787698001INGUSAN, ARFINE                                         20500
A3101400160221557336002JOVEN M GUEVARRA                                        20500
A1901400290261244409001JUAN GUALBERTO M LEYEZA                                 20500
A0101401670271278468001AUGUSTO D. RIVERA                                       20500
A0101408660274521676001MABASA, GERARD Q                                        20500
A6601400120314770603001MERCY B.                                                20500
A2001400290315733226002LINABOG, ALLAN                                          20500
A0101408370382452783001DR. FERNANDO L. LOPEZ                                   20500
A0101408370382497608001TRISTAN PHILIP MENDOZA                                  20500
A3801400170490784760001JANE C TEJIDO                                           20500
A0101405940512152920001CASTILLO LAO                                            20500
A0101405940512360728001T. HERNANDEZ                                            20500
A0101403610531047237001PRECIOUS EYE OPTICAL                                    20500
A0101403610531219472002NAVOA, NANETTE PANO                                     20500
A0101403610531308186001ANDAL, MA. PENELOPE S.                                  20500
A0101404130601693981001LYDIA OR LIMSICO, OLIVER                                20500
A0101404130601693981002LYDIA OR LIMSICO, RUBEN                                 20500
A0101406590662206509001LIBERTAD RAZON                                          20500
A1301400210682394090002MIRAFLOR CAMUA                                          20500
A1301400500684589977001VIOLAGO, GIDO C.                                        20500
A0101404840851212628001FE G. CARLOS                                            20500
B0101404130000000001372CRE8 MEDIA AND MARKETING CORP.                           1604
B0101410300000000191597STAR E GARDEN INC.                                       1602
B0101409050000000258571CITY MARQUE LIMITED                                      1601
B2801400230000000372690SHINING STAR SPA PHILS. INC.                             1603
B2801400230000000372729KRJ TRADING                                              1601
B0101400150000000633527MIL OROS CORPORATION                                     1601
B0101412050000000890922FIELDMEN JANITORIAL SERVICES CORPOR                      1602
B0101404840000001312321JOY PLANET INC.                                          1602
B0101404840000001312343FUNHOUSES CORPORATION                                    1602
B0101404840000001312350FUNHOUSES CORPORATION                                    1602
B0101404840000001312361FUNHOUSES CORPORATION                                    1602
B0101411080042190829001*****                                                    1602
B0101400150061022669001ST. TYKE, INC.                                           1610
B0101400150061494758001MACOLYTES INC.                                           1605
B0101405810072020925003****************                                         1601
B0101407270162044099001GAINESVILLE, INC.                                        1605
B1901400290261012814001PJ LHUILLIER, INC.                                       1603
B0101401670271041791001A PI SQUARE KINDER SCHOOL INC.                           1602
B0101409050352036822001WAX IN WAX OUT WAX SALON INC.                            1605
B0101403450521021842005WALL VISION CORPORATION                                  1605
B0101403610531013980001VIC IMPERIAL APPLIANCE CORP.                             1603
B0101403610531035657001A1 STEELFORMER CORP.                                     1601
B0101404000551700890001HEADLAND ROAD CAPITAL INC.                               1602
B0101404130601046787001NORTHPOINT DEVELOPMENT BANK, INC.                        1605
B0101404130601100034002ADVATECH INDUSTRIES, INC.                                1612
B0101404130601549266001VISUALMEDIA, INC.                                        1603
B0101404420631034750001DELTA FORCE SECURITY AGENCY                              1602
B0101404680651686683001ACZENT CONCEPT DESIGN INC.                               1603
B1301400210682014870001PARAMOUNT LIFE & GENERAL INSURANCE                       1601
B0101413440000000038184THE ONE DYNAMIC THREE REALTY AND                        11610
B0101402060000000653725PRIMUS INTER PARES MULTI PURPOSE                        11601
B0101403610000001174550CASUBUAN, JOSEPH LOPEZ DBU MODERN                       11601
B0101405490000001935673PAVI JOHN M. UNGSOD DBU R.J.L. ONE                      11602
B0101406620273040796001THE LAW FIRM OF PERLAS, DE GUZMAN AND                   11601
B0101413440000000038184DEVELOPMENT CORP                                        21600
B0101402060000000653725COOPERATIVE                                             21600
B0101403610000001174550ROOFING CENTER                                          21600
B0101405490000001935673TRADING                                                 21600
B0101406620273040796001PARTNERS                                                21600
B0101400600071821100608**********                                               2005
B0101412630132821100608**********                                               2003
B0101408530516821100608**********                                               2010
B0101410300663821100608**********                                               2010
