B0101403450521821100608**********                                               2030
A0101402350321618569001DAMASO, GLORIA SANCHEZ                                   0501
A0101402350000014999925GARIANDO, ROCK KEPHIM JORDAN                             0501
B0101402350321027310001NECELINE CORPORATION                                     1606
A0101402350321182462003SALAZAR, ROSALINA R.                                     0502
A0101402350000000521213TONGO, ROWENA V.                                        10501
A0101402350000000521213OR TONGO, CAESAR                                        20500
B0101405650000017917570MOONWALK UNITED METHODIST CHURCH                         1601
A1401400110000003988996CARCIDO, JEFFERSON CU                                    0501
A0301400950000006080291CO, KENNETH CHUA                                         0501
B0101410720000016777950JOMIC TRANSPORT                                          1601
A0101410720653768067001DELOS REYES, MA. ERIKA WONG                              0501
A0101400860000002333513******                                                   0501
A0101400860011452130001**********                                               0503
B0101400860011541134002**********                                               1602
A0101401250000016175930YUMOL JR., ERNESTO SOSA                                  0501
A0101400150000000253314AUSTRIA, MICHAEL MAALIHAN                                0501
A0101400150000018273293ORSOLINO, LUIS MIGUEL BAELLO                             0501
A0101400150000002749659LILIA F. GAYTA                                           0501
A0101400150061684116001MAGRAMO, FREDESWINDA CERDA                               0501
A0601400100000006092639ARRIBE, BAZIL CHRISTIAN OR                              10501
A0601400100000006092639ARRIBE, CHARMIE                                         20500
B0601400100081039730001JETTGARD SECURITY SEVICES                                1605
B0601400100081047066001JETT FORCE INTEGRATED SECURITY SYSTEMS                  11610
B0601400100081047066001INC.                                                    21600
A0601400360000018243273SLOWIK, DALISAY MALLARI                                  0501
A0601400520000004423210FLORES, EDITH VALENCIA                                   0501
A0101410850109068275003ADRIANO, ANTONIO SO DBU ANTONIO                         10501
A0101410850109068275003S. ADRIANO FURNITURE SHOP                               20500
A0101410560000000020195LELIANE D. TORRES                                        0505
A0101410560000016199878FABIAN, MYRNA LIPATA                                     0502
A0101406040000006014288REYES, PHILIP COLE DBU GREAT                            10502
A0101406040000006014288SPEED TRADING OR                                        20500
A0101406040112329333001LEO V. MORADA                                            0501
A0101406040112657540001**********                                               0503
B0101401960121240191002**********                                               1602
A0101412630000012146484MADRID, RONICO MAGLIPON                                  0501
A0101401830000006269652MARIANO, VICTOR TOMAS                                    0501
A0101401830000011228992ELSA M. SERRANO OR IMMANUEL                             10501
A0101401830000011228992MARTIN M. SERRANO                                       20500
A7201400170000011454345CHIO, JESIEL LACIERDA OR                                10502
A7201400170000011454345CHIO, DAVID ABAO                                        20500
A0101400440000017343943GONDA, EDWIN DIMAYUGA                                    0502
B0101400440161007221001ILA EXPRESS HAULER                                       1602
B0101401090000013433062THOMASIAN INTERNISTS GROUP OF EDUCATORS                  1601
B0101401090171041259001THOMASIAN HEART SPECIALIST ALUMNI                       11602
B0101401090171041259001ASSOCIATION,INC.                                        21600
A0101401090171198970001JOSELITO F. DAVID                                        0505
A0101401090171531698001MARIA ISABEL D. CORNEJO                                  0502
A0301400530000002318561VILLANUEVA, FEDERICO MAGPAYO OR                         10501
A0301400530000002318561VILLANUEVA, MARI                                        20500
A0301400530000000066113RUDELA, JIVIR S. OR                                     10502
A0301400530000000066113RUDELA, ANALYN C                                        20500
A0301400790000005692093ALDERITE, ARNOLD P. OR                                  10501
A0301400790000005692093ALDERITE, ROSIGENE                                      20500
A0301400950000002115344DE VERA, JOCELYN D                                       0501
A0101401380201623604001FORONDA, ANALYNN JOY LUZ                                 0501
A0101410720000016140184SOLIVERES IV, MANUEL LIM DBU ON                          0501
A0101410720000012557181PROLOGO, JORDAN CAMINO                                   0502
A3101400160221220343001LAARNI A. CALAPATIA                                      0502
A3101400160221221586002RODOLFO C ELEPANO OR                                    10502
A3101400160221221586002CECILIA LEONORE E PICO                                  20500
A3101400450000011907561AVANZADO, GRACIA GUERRA                                  0502
A3101400450223222902001PENALOZA, JAN ALBERT DE ROMA                             0501
A3101400450000005355471CIGARAL, PEDRITO OR FE OR                               10505
A3101400450000005355471KRISTEL                                                 20500
A3101400870000018274343FIAN, JADE DAVIS                                         0501
A3001400130000014779681NINO, JESSIE SIMBRAN                                     0501
B3001400130000010506515CUMBA, WENDY GO AND GO, ANTONIO TIMCANG                  1602
A1001400350000017316702LOFRANCO, ROGELIO CAHIS                                  0501
B1001400350000007920956F.E.D. CONSTRUCTION COMPANY, INC.                        1601
A1301400470000013690201MARIA TERESA C. CARIAGA                                  0501
A1301400760000000050466GIL P. MENDOZA II                                        0502
A0101406460000002330990ALANO, MICHAEL MONTANO                                   0502
A0101408660274519407001ZIALCITA, MA. CRISTINA B.                                0501
A0101410980000010894912LAO, CARLOS ANG                                          0501
A0101410980000018242827WITKOWSKI, ANTHONY JOSEPH                                0501
B0101400570000002104147AB1 MEGA BUILDERS INC.                                   1602
A6601400120000003673001AFUNDAR, ROGER NOYNAY DBU RNA                           10502
A6601400120000003673001CONSTRUCTION AND                                        20500
A6601400120314040566001GLENCARE PHARMACY                                        0505
A6601400120314050601002CARPIO, WILBERT DBU CTC CONST.                          10501
A6601400120314050601002SUPPLIES JT                                             20500
A2001400290000015169221MARIBAO, STYPHN CANAVERAL DBU M                          0501
A0101402350000003880535ANTONIO, ERLINDA KATINDIG                                0501
A0101402350000016545734TRINIDAD, CYNTHIA ANDAYA                                 0502
A0101402350000003080399BALUTAN, ROSALIE TALISAYSAY                              0501
A0101405650000000525882TICMAN, ROSALIE SCHROTH                                 10501
A0101405650000000525882OR CALUMPAD, HILARIO S.                                 20500
A0101402510000003533060QUE, ALFREDO CHING                                       0503
B0101402510341026003001PHILSOFT TECHNOLOGIES GROUP, INC.                        1601
A0101402060351211713002WENEFREDA &/OR JORGE TORRE                               0501
A0101402060351217446001MERLYN H. MIRANDA &/OR                                  10502
A0101402060351217446001ELISEO MIRANDA                                          20500
A0101409050000002333211JOSEPH BRYAN ASUNCION                                    0501
A0101409050000018109014EMPLOYEES OF, NTT DATA SERVICES                         10501
A0101409050000018109014ANNA MARIE LAZO                                         20500
A0101409050000011558913ARRICIVITA, MARIANE ILLORDE                              0503
B0201400760374032173002MARIANO & SONS MARKETING, INC.                           1605
A0201400920000012765021DUTERTE, LARRY DBU LMD URHOME                           10502
A0201400920000012765021DESIGN                                                  20500
A0101408370382408300001DR. RODRIGO C. SANTOS OR                                10501
A0101408370382408300001DR. ALWYN JOHANN SANTOS                                 20500
A0101408790000011534922LEVERAGE CONSTRUCTION                                    0504
B0101408790383047253001NUVOLAND PHILIPPINES, INC.                               1605
A0101411660000002309560RIVERA, VENUS TUMPALAN                                  10501
A0101411660000002309560RIVERA, POCHOLO                                         20500
B0101415350000007877578J. L. TAGO PARTNERS & COMPANY                            1601
A0101405490392481659001MARITES Q. FACTURA                                       0502
A0101408400394604389001MOLINA, LORETO DE LUNA JT                               10501
A0101408400394604389001MOLINA, JEANNETTE CORTES                                20500
A0101412210000017792237QUIBEDO, MELECIA II SIDO                                 0501
A0301400820000018271393BULALA, CRISTONIE L. OR                                 10501
A0301400820000018271393BULALA, ZENAIDA L.                                      20500
A5501400120000002348278MAGLANGIT, LEAH FIGUEROA                                 0502
A1201400150000011415620TULAS, NIDA PANG-AO                                      0502
A1201400150000015799618TENEZA, MARISSA ALBERTO                                  0502
A5101400100000015856827HERA, ROGER MARK CUEVAS DBU TAG                          0501
A0101403030441378112003TY, CHRISTINE NG                                         0501
A0101412890000012154595PAREDES, JOHN RUNDELL GUANGCO                            0501
A0101406330000014144902PAGUIRIGAN, ARISTOTLE CUETO                              0501
A1901400160000002291534ADARLO, LERMA MATIRA                                     0501
A1401400110000014232241ZALETA, ANGELO VECINO                                    0502
B1401400110492013980002IMPERIAL APPLIANCE PLAZA                                 1601
A1401400110000014232412DY, MARGARETTE EDNA LEY AYCARDO                          0503
A0101407430000015018356LIM, JOHN PHILIP YBANEZ                                  0501
B0101407430000011167445DAVAO AGUILAS, INC.                                      1602
A0101403580000017511796CABALDE, EDGARDO SIMON                                   0501
B0101403580511020857001ROBROS INCORPORATED                                      1603
A0101405940000012443355SODUSTA, JENIEBERN VILLANUEVA                           10501
A0101405940000012443355OR SODUSTA, MARVIN PAUL                                 20500
B0101405940512542852001BRIGHTMED PHILS. INC.                                    1601
B0101408530000010285019MI CAMARA ONLINE INC.                                    1601
A0101412050000014677902AGUIBIADOR, MARIVIC BANAAG                               0501
B0101403450000008069181ANTARCTICA COLD STORAGE INCORPORATE                      1603
B0101403610531042737001ASIA PACIFIC ENVIRONMENTAL MAIN                         11602
B0101403610531042737001SERVICES INC.                                           21600
A0101403610000001450828ANDES, EDNA MASAYDA                                      0502
B2201400250000007720078FRAMAR TRANSPORT PHILS CORP.                             1603
A2201400250000000433572GEELEAN A. LEE DBU DIAMOND STAR                         10501
A2201400250000000433572COMMERCIAL OR JESS CHUA                                 20500
A2201400250561478374015ARLENE T. CERBAS                                        10502
A2201400250561478374015MEMBERS OF NATAS                                        20500
A0101404130601450631001DEL VILLAR. DIOMEDES L.                                  0504
A0101404130601451302001ROMMEL A. IBUNA                                          0503
A0101407720000017880750NOELLE ROSE J. CUNTAPAY                                  0501
B0101407720000007951786OEC CONSULTANTS PHILIPPINES, INC.                        1601
A0101412180000008320216DULHAO, VINCENT MALAZARTE                                0502
A0101409920000001539522CEDENO, NOEMIE DEDICATORIA                               0501
A0101407690000014738093LAGUNDIMAO, THERESA ANDRES                               0501
A0101407690000010774473DIEL, AMOR DALAYAP                                       0503
A0101407690000012227013CHENG, ANTHONY NGUI                                      0502
B0101407690652422144001MELENCIO MEDEL OR CORAZON MEDEL                          1603
A0101414120000001142863*****                                                    0501
A0101414120000002879743DE GUZMAN, JENNY MERLIE APOLINA                          0502
A0101414120000014550604SARABIA, PRISCILA DAWANG                                 0502
A1301400210682389684001DENNIS D. MUNOZ                                          0501
A1301400210682394090002RICARDO CAMUA JR. OR                                    10501
A1301400210682394090002MIRAFLOR CAMUA                                          20500
A0101408240000017717450DEL ROSARIO, BENJAMIN ANICETO                            0501
B0101408240000010815186TOLLFOODS MFG. CORP.                                     1610
A2801400230000009022020TALICTIC, RIA BALDOVINO                                  0501
B2801400230713045988001NGE TRADING                                              1602
A2801400230000001782130GOLDEN STATE ALUMINUM GLASS &                           10505
A2801400230000001782130GENERAL MERCHAND                                        20500
A4101400260000011417757BICOL III, MARIA AVELINA OKOL                            0502
A4101400260000017946688CORTEZ, EUMAR YBANEZ                                     0501
B4101400260000006043909J.E.M. 88 CONSTRUCTION DEVELOPMENT CORP.                 1601
A4101400390813478374035MICHAEL E. PLACIDES                                      0502
A4101400420814520766028THOMPSON, VILMA BASILOY                                  0501
A0101412340000005165139PICONES, EDLYN A.                                        0502
A0101412340000004360212PATRICK MARTIN R. DELA CUEVA                             0502
A0101412340000010660061ESTAYANI, ZHARA LY M.                                    0502
A0101412340000002900283MARIFE B. VIADO                                          0501
B0101404840000006365251NEW GENERATION LINK CONTRACTING AND                     11603
B0101404840000006365251TRADING SERVICES                                        21600
A0101404840851478374062VIOLITA V. GIDUCOS                                       0502
A0101404840851520766105ALICAWAY, HELEN                                          0501
A0101406750852290414001SONNY BULAON OR MARITES BULAON                           0502
A0101413860000005527788VELASCO, BERNADETTE GACIAS                               0501
