A1001400350233669548001YAP, RAMON PONG                                          0502
A0101402770391022532001VIREX ENTERPRISES                                        0501
B3801400170000013431566JESSIE'S GENERAL MERCHANDISE                             1601
A0101401250021179142001SANTOS, ALICIA PUNZALAN                                  0501
A0601400360083528303001********                                                 0503
A0101412890000007095112LINDO, MERCEDES VILLAFANIA                               0501
A3801400170000000497832RAQUEL D. SALAS OR                                      10502
A3801400170000000497832ENRIQUE R. SALAS                                        20500
B0101400860000001005569**********                                               1601
B0101400860011459113001**********                                               1602
A0101400860011533026001**********                                               0502
B0101400600071667893003********                                                 1601
B0601400100081021931001PHILKO SILICATE CORPORATION                              1610
B0601400520000007553731TELESIGHT INTEGRATED TECHNOLOGY AND                      1602
A0101410850000000259949CABREIRA, CLIFFORD PAUL                                 10501
A0101410850000000259949KALINGKING                                              20500
A0101410850000009034617TRINIDAD, ROSE BLANCA ALACON                             0502
B0101410850000000000646MG8 TERMINAL INC.                                        1605
B0101410850000001229670NARRA TANKER CORPORATION                                 1605
B0101410850000001229681MOLAVE TANKER CORPORATION                                1605
A0101410850109072488002JACA, ZENAIDA BERTULFO                                   0501
A0101401960000000008095ANG, PAUL GO                                             0502
B0101401960121035534001CHEE PUCK REFRIGERATION INC.                             1605
A0101401960000004419881SUNWELL ENTERPRISE                                       0502
A0101401960121238763003**********                                               0501
A0101413310000005433147TERESITA G. CONCEPCION OR                               10502
A0101413310000005433147ANTONIO D. CONCEPCION                                   20500
B0101401830000013953552NAGTAHAN TERMINALS, INC.                                 1601
B0101401830141036385001P.I. HARDWARE & MILL SUPPLY, INC.                        1601
A0101401830141058130001ARCANO, MARY ANN  RIVERA                                10501
A0101401830141058130001DBU ICJR PHARMACY                                       20500
A0101401830141208706001EVELYN C. GREGORY                                        0501
A7201400170000006487683INOCENCIO, EDGARDO TAN                                   0501
A7201400170000009673112lADLAD JR., JOSE BANA                                    0501
A7201400170152060879001RENDON, EDNALYN BACAY DBU                               10502
A7201400170152060879001FRIENDLY MOTORS                                         20500
B7201400170152067937001PAGADIAN JUNIOR COLLEGE (PJC), INC.                      1605
A0101400440000010744562GALLARDO, LORNA VASQUEZ                                  0501
A0101400440161525001174RIZALYN V. GUNTANG                                       0505
A0101407270162331908045NATALIE PEREZ                                            0502
A0101401090171395503001MA. TERESA TRICIA OR                                    10502
A0101401090171395503001JIMMY BAUTISTA                                          20500
A0101401090171574253001REJEZZA L. BAETIONG                                      0501
B0301400530000000066000BORDIOS JR., HERMES S.                                   1602
A0301400530000013871202BUCOG, LUDGINA FERNANDO                                  0502
B0101401380000011057731NUMBER ONE DELICIOUS CORPORATION                         1601
A0101401380201538102001**********                                               0502
A0101401380000010190466MORTEL, BELINDA NOLASCO                                  0501
B0101410720653043060001METRO DRY CLEAN VENTURES, INC.                           1603
A0101412500000000041603NG, MICHAEL FLORES OR NG, KAREN                         10501
A0101412500000000041603MONIQUE DEL ROSA                                        20500
A0101412500000013976533REYES, MARIE ANNE YLAGAN                                 0501
A0101412500000013976311CUAN, JOHN PAUL SOCAO                                    0501
A0101412500000013976420ANTONIO, TANYA MARIA GUERRERO                            0501
B0101413600000005524829PRO EMPIRE TRUCK BODY CORP.                              1601
A3101400160000001169262ANTILLON, HONEYLET SANTIAGO                              0501
A3101400450000011907561AVANZADO, GRACIA GUERRA                                  0501
A3101400450223056521002SAMIANO DENTAL CORP DBU THE                             10501
A3101400450223056521002NAME AND STYLE OF SMILE                                 20500
A3101400870000013973221CARMELINA, CATHERINE LIMBO                               0501
B3101400870000013944022STT (PHILIPPINES), INC.                                  1601
A3001400130000001261283LIM, EDGAR ALLAN DIAZ                                    0502
A3001400130000010506617GEMENTIZA, PRISCILLA F DBU FORT                         10502
A3001400130000010506617GEM CONSTRUCTION & SUPPLY                               20500
A1001400190000002170747CABILAO, LORENA BINGCOLADO                               0501
A1001400350000007762390MERCURIO, MARY SHEILA CABALLERO                          0503
B1001400350000000244302NORMIN FOOD CHAIN CORPORATION                            1601
B1001400350000000244288EASTMIN FOOD CHAIN CORPORATION                           1601
B1001400350000000244299EASTMIN FOOD CHAIN CORPORATION                           1601
B1001400350000000244266WESTMIN FOOD CHAIN CORPORATION                           1601
B1001400350000000244244CENMIN FOOD CHAIN CORPORATION                            1601
B1001400350000000244313SOUTHMIN FOOD CHAIN CORPORATION                          1601
A1001400480000011810056NAVAREZ, MARGIE ABASTAS DBU                             10501
A1001400480000011810056MADANO MARKETING                                        20500
A1301400760000004522592KRISTOFFER ROMEO E. GATDULA OR                          10504
A1301400760000004522592SANDRA D. GATDUL                                        20500
B1901400290261048088001B & V FEEDMILL                                           1605
A1901400290261063224002RODELAS, MARK ATIENZA DBU                               10501
A1901400290261063224002PHILLIP YOHANN TRADING                                  20500
A1901400290261493025041DRA REEZA Q MARQUEZ                                      0502
A0101406460272293536001DATOR, CHARLY DE GUZMAN                                  0501
A0101406620273093073001LOZANO, VIRGINIA ANDAYA                                  0501
A0101411820000000589380ROQUE R. SUEMITH                                         0502
B0801400160311039833001JMB TRADERS INCORPORATED                                 1603
A0801400160000001031398GENZO MEDICAL & LABORATORY                              10501
A0801400160000001031398SUPPLIES & EQUIP                                        20500
A0801400160000011336502LIM, MONIEN JOVACON                                      0503
A1101400120000006081103BACSAL, EMMYLEEN BATAWAN OR                             10504
A1101400120000006081103BACSAL, DAVID DACUNOS                                   20500
B1101400120313042009001MACHICA FIRM, INC.                                       1603
A1101400120000003022373BANTULA, EVELISA FALLE                                   0501
B2001400290315722246001MONCADA, RAY JAMORA OR BESARIO, SHEILA                  11602
B2001400290315722246001ET AL                                                   21600
B3401400280318014079001CCC FINANCE CORPORATION                                  1601
B2901400130000005960916PANAY TIGER MARKETING AND DISTRIBUT                      1605
B0101405650322025100001GLOBAL PACKAGING SYSTEMS AND MATERIALS                  11601
B0101405650322025100001CORP.                                                   21600
A0101402510000013485560TOLENTINO, R DBU YOROSHIKU JAPA                          0501
A0101409050000003536372RAMOS, MARIA THERESA                                     0501
A0101409050352645570003MYRNA P. CUASAY                                          0501
A0201400760000002047376YUNAM, HARLEY YU OR                                     10503
A0201400760000002047376YUNAM, KENALI SUN                                       20500
B0201400920375035929001UPLAND STOCK FEEDS, INC.                                 1602
B0201401020000003031181GRAND FIREFLY FIREWORKS, INC.                            1601
A0101402770000000360752VARGAS, NORMAN JOEL JAVIER                               0501
A0101402770391029270001RCABAN-SAN ANTONIO DE PADUA                              0501
A0101402770391530423001DIENZO, ERLINDA CARTINA OR                              10501
A0101402770391530423001DIENZO, KEISHA CARTINA                                  20500
A0101405490000002880573WENCESLAO C. PIMENTEL DBU                               10503
A0101405490000002880573MGV COMMERCIAL                                          20500
A0101405490000005566236CONTI, MA. RIZA AMADA                                    0502
A0101408400000007905793DE JESUS, CELYCA SISON                                   0502
A0101408400000003515120CASTILLO, ROCHELLE BONITA MARQU                          0501
A0101409210000004933028Tolentino, Arc Aldrin N.                                 0501
A0301400820000001554894ESTREMOS, VERONICA T. OR                                10502
A0301400820000001554894ESTREMOS, FERDINAND P.                                  20500
A5501400120000011599270FLORES, JASMIN DELA RIARTE                               0502
B1201400150000005357906COST OF MONEY LENDING CORPORATION                        1605
A1201400150421619129002TUVERA, ROSA DACANAY                                     0510
B0901400220432043554001GERRY'S GRILL                                            1603
A0901400220000003069098**********                                               0501
A5101400100000010833946FERNANDEZ, ALMA MAKILING AND                            10502
A5101400100000010833946ARATEA, ARNEL TANGOG                                    20500
B0101412890000003727855ROAD RUNNER BUILDING TECHNOLOGIES,                       1603
A0101406330472329066002ANTONIO S. DE GUZMAN                                     0510
A0101406330472478374032ROSALINDA R. TOMAS                                       0501
A0101406330472478374042VIRGINIA B. RANADA                                       0501
A0101412760000001399744TODA FAIRY LENDING, INC.                                 0501
B0501400170481018109002CSI WAREHOUSE CLUB INC.                                  1604
B0501400170481025398002COSTSAVER'S SUPERMARKET, INC.                            1604
B1901400160000013704735MONTEMARIA ASIA PILGRIMS, INC.                           1601
A1401400110000000034722GAGAN, ROMA SANGAHIN                                     0501
A1401400110492029549002TRIPTORS DIAGNOSTIC CENTRE                               0504
A0101403580511152926001MARIO T. MANANGHAYA OR                                  10503
A0101403580511152926001REMEDIOS C. MANANGHAYA                                  20500
A0101403580511155834002PURIFICACION SANTIAGO                                    0502
A0101405940000005068020MYRA BIANCA S. RAMOS                                     0501
A0101408530000000136354GARRATON, SARITA SALGADO                                 0502
A0101412050000011949394HU, JINBO                                                0503
A0101403450521238265001**********                                               0502
A0101403610531507236001MARCELO, MELLFORD ARAVISO                                0501
B2201400250000004405218HARMONIC RESOURCES CORPORATION                           1603
A0101404130601450867001COLLIN, BERTRAND                                         0502
B0101404260000000550332S-GERA PAINTING INC.                                     1605
A0101404260611150850002DEDEL, DAVID BAGTAS                                      0505
A0101409890649625039001**********                                               0501
A0101409920650045555001STEELERS IRON SUPPLY                                     0501
A0101409920000000523700CHOA, SORAYA ANG                                         0501
A0101407690652319667001TANTAMCO, RAMON NICOLAS                                  0510
A0101413990000001406564CONSEJEROS, MYRA M.                                      0501
A0101406590000003006975MENDOZA, LYDIA ALVAREZ                                   0501
B0101410300000005331691SPECIFIED CONTRACTORS AND DEVELOPME                      1603
A0101410300000000026531VELHAGEN, MELISA B.                                      0502
A1301400340000006402444PRINZ DENNIS TRUCKING SERVICES                           0502
B1301400340683353482001MARLENE R. JOSE OR JOSE MARI R. JOSE                     1602
A1301400500000011254361KE, JINZENG                                              0502
A1701400230000000097881BORJA, DANIEL BOTE                                       0505
A1701400230000001786792MARTIN, EUPRECITA B. OR MARTIN,                         10501
A1701400230000001786792HONORATO RICARDO                                        20500
A1701400230000005694222SAGISI, JUNALEEN OAMIL                                   0501
A1701400230000009625470ACAB, RHAYAN CACAS                                       0502
A0101408240000008854515LEONIN, ROSELYN BUENSUCESO                               0503
B0101408240711038283002LAGUNA PARKS DEVELOPMENT CORP.                           1603
B0101408240000000832973DSiGLOBAL, INC.                                          1605
A0101408240711390504002ROXAS, CHITO OR SHEILA                                   0510
A0101408240000001038857PESIGAN, ROSALINDA MARTINEZ                              0501
A4101400260000003679943TAN, ANGELINA                                            0501
A4101400420000011952215BORDALLO, NILDA PALACIO                                  0501
A4101400420814520766110DELA CRUZ, ARMINDA E.                                    0501
A4101400420000004848051ROSALES, NOEMI A                                         0501
A0101412340000002900329SERAFIN D MOLDEZ DBU SC MOLDEZ                          10501
A0101412340000002900329ENGINEERING &CON                                        20500
B0101404840851042014005FUNHOUSES CORPORATION                                    1601
B0101404840851490100001ACTIVE-CONCISE TECH. INC.                                1603
A0101406750000002950752FABELLA, MARY JO MISA                                    0501
B0101406750000010166360DOODLE ARTS AGENCY                                       1601
A0101406750852705046001VISAYE, NESTOR PORTO                                     0501
A0101406750000006303242ABDULAZIS, EDORA CECILE ERESTAI                          0501
B0101413860000010275880CODE DISRUPTORS, INC.                                    1605
A0101413860000010948202VILLA, MA. THERESA O'LACO                                0501
A0601400230000007402224**********                                               0501
A0601400230000005185924GAJE, AGNES DBU JCG AIRCONDITIO                          0502
