A0101411790000000005847ISIDRO, MARIA SYLVIA SORIANO                             0501
A0501400170000000018306LLAMAS, ULDARICO MARTINEZ                                0502
A0101412630000000044675FLORES, BRENDA DACULIO                                   0501
A0101412630000000044675FLORES, BRENDA DACULIO                                   0501
A5001400170000000045069SANCHEZ, LUNINGNING CONCHA                               0501
A0101402480000000045816QUE, RENZ SCOTT BRIZ                                     0501
A0101400440000000060255LOUELLIN L. LIM                                          0501
A0101408400000000077941LAUREAN PLANTS & FLOWERS SHOP                            0502
A1001400190000000124683ABCEDE, CARMENCITA A.                                    0501
A1001400190000000124821GONZALES, ROSELYN TUMOPAS                                0501
A1401400110000000132841*******                                                  0501
A0101405490000000232453ROMEL P. ALMEDA                                          0502
A1901400160000000243707ROLYNDA T SOSA                                           0501
A0101402480000000310603*******                                                  0502
A0101412340000000319497PINEDA, IMELDA PEREZ                                     0502
A0101406750000000358281LARSON, DANI DBU D.S. LARSON FI                          0501
A0101402770000000360701KELLY TAN CHAN                                           0501
A0101402060000000445527CRUZ, CRIS HERBERT MARTIN                                0502
A0101405650000000448220BALABA, ARMANDO CASES                                    0501
A0101401250000000460542PAPALID, JOEBIE LIBRE                                    0501
A0101411950000000490879CORDENETE, IRENE MARIE ARANZANS                          0501
A0101412760000000528205SARAH JAYNE A. SANCHEZ                                   0501
A0101413440000000570201GLORIA IDA HIERRO                                        0501
A0101413990000000631907BAGNOL, LINDY BINALOYO                                   0502
A0101410850000000778861MARTE, ANTONIA MAGAT                                     0502
A0101400150000000808151ALZONA, REXAL DOMINGO                                    0501
A0101401670000000843709CHUYACO, MARIA ELISA VALENZUELA                          0501
A0101404680000000862179FLORENCIO, CRISTINA ROQUE                                0502
A0101404680000000862282REYES, ROSARITO BUSCAINO                                 0501
A0101401250000000907324DIASANTA, MARILYN FIGUERAS                               0501
A1301400210000000983826DELA CRUZ, MAE CARDINAL                                  0501
A0201400760000000989706SORIANO, ADRIAN IBAY                                     0501
A0101400860000001005569**********                                               0502
A0101412340000001017850**********                                               0501
A0101410140000001074851SIOCHI JR., ANTONIO DE LEON                              0501
A1701400230000001108412DURAN JR., ROBERT MANDAC                                 0501
A5501400120000001122063NAVARRO JR., ROMERICO BALUYOT                            0501
A0101408110000001165840CALAGUI, JO ANN ESCOBIDO                                 0501
A0101406460000001231587LEE, MARGARET CHAM                                       0501
A3001400130000001271692ASIS, KIRK ANINON                                        0501
A0101411950000001272997BERNARDO, DIGNA CAPOTULAN                                0501
A0101404840000001312601ANNALYN R. VALISCO                                       0501
A0101412760000001399282GARCIA, ROGERICK DIEZ                                    0501
A0101401380000001412742EDUARDO, ANGELINA BALDIMO                                0501
A0101413440000001472873BANARES, EMILIA CHUA                                     0501
A0101408790000001486342********                                                 0501
A1401400110000001549311HAPITA, PAMELA ALVARICO                                  0501
A3101400160000001559297MADONNA A CARIQUITAN                                     0501
A0101402480000001562210PINEDA, LAURO LOPEZ                                      0501
A0101402770000001570598EMALYN ZOLETA LUNDAG                                     0501
A0101402770000001570770BENJAMIN NAVAL VICTORIA                                  0501
A0101400570000001681814JOSEPH J. TUASON                                         0501
A0101413570000001682668ARACELI C. SUYAT                                         0501
A4101400260000001783720GACIAS, NIZAN DOMANAIS                                   0501
A1701400230000001786690BAYANES, JACKSON TABLA                                   0502
A0101408820000001880662***********                                              0501
A0101408820000001880673FERRER, NOEL AUDEA                                       0501
A2401400180000001935840JUNASA, HELEN GRACE CALUMPANG                            0501
A0101406750000002040099BASCONCILLO, ROSEMARIE ROBLES                            0501
A0101400860011387667001**********                                               0501
A0101400860011402005002**********                                               0502
A0101400860011478374003**********                                               0502
A0101400860011533026001**********                                               0502
A0101400860011632451001**********                                               0503
A0101400860011743703001**********                                               0505
A0101400150061383637001DE GUZMAN, CATHERINE YANG                                0501
A0101400150061445187001AMILHUSIN, SITTI DIWATA ACIERTO                          0501
A0101400440161039572026LEONARDO P. DELA CRUZ JR.                                0502
A0101400440161649340001EZRA AQUI N. DIAZ                                        0501
A0101401090171196001001MATILDE GONZALEZ                                         0501
A0101401090171202251001AMELITA OR MARCOS BARTOLOME                              0502
A0101401380201084784001GABRIEL, MARIA CHRISTINA TAN                             0501
A3101400160221478374052MARTA L BONDOC                                           0502
A3001400130230796142001TANO, MERLINA RAGAS                                      0501
A1001400350233543794001LABRADORES, JENIELYN GALARRITA                           0501
A0101401670271188395001ANITA T. ANG                                             0502
A0101406460272395514001PINEDA, MARLETTE ARANETA                                 0502
A0101406460272489183002TIU, MERCY ESPINOSA                                      0501
A0101406620273314677002GEORGE ANGEL OR GLENDA AGUILA                            0501
A0101400570281020605001FIRST BORN SNACK CORNER                                  0502
A0101402480331219799001**********                                               0510
A0101402480331234152001*******                                                  0501
A0101402480331463093001***************                                          0512
A0101402480331520766123RONELIDA P. DE JESUS                                     0501
A0101402480331612607001*********                                                0501
A0101408820333478374002MERLINDA CORTEJO                                         0501
A0101402510341053140001OVEN HOUR CUPCAKERY                                      0501
A0101402060351211701005DANNUG, MARIA DOLORES CARLOS                             0502
A0101402060351217440025ARLENE F. MANGURAY                                       0502
A0201400920375478374016CERBO, SHAMIR LOU CAGAIS                                 0501
A0101408790383046687001ROB.L CONSULTANTS                                        0502
A0101402770391211316001RODOLFO G. PEREZ                                         0501
A0101402770391403390001GEOFFREY PHILIP Q. NG                                    0501
A0101402770391481697001LUTHER REYES BONDOC                                      0501
A0101408400394478374058CHARINA BENIGNOS                                         0502
A2401400180411442136088***************                                          0501
A0101403030441239023001**********                                               0501
A0101403030441707375001**********                                               0502
A0501400170481392485001*****                                                    0502
A0101404000551292555001LAGDAMEO, ENRIQUE BIENVENIDO                             0501
A0101404680651298552014TERESITA DE LEON                                         0501
A0101404680651478374074NELIA A. DELLA                                           0501
A0101404680651497773001POTENCIANO D. SOLIMAN                                    0502
A0101404680651518927001EVANGELINE K. TUMIBAY                                    0501
A0101404680651520766038EVANGELINE F. RICARE                                     0504
A0101404680651520766071EMILY P. PONGPONG                                        0501
A0101404680651520766126MARLITA L. CUSIPAG                                       0502
A0101404680651520766139ESPERANZA T. BORJA                                       0501
A0101404680651520766150ARLENE A. ROSARIO                                        0501
A0101404680651520766168MIRASOL T. FIRMALINO                                     0501
A0101407560686478374034CHENDRINA A. DUHAYLUNGSOD                                0501
A0101407560686478374067SHERLITA T. FERNANDEZ                                    0501
A1701400230693478374028MAY ANN I. CURAMENG                                      0502
A1701400230693478374031VILMA R. BAGAY                                           0501
A0101408240711383964002MA. ESPERANZA OR LAMBERTO MEER                           0502
A0101408240711399428001JOSELITO OR ROSEMARIE RAFAEL                             0501
A4101400260812244954001REYNANTE J. ESTOCADO                                     0502
A0101404840851478374094LETICIA FULLO                                            0501
A0101404840851520766028MARY LILIAN R. PANDONGGAN                                0501
A0101406750852478374015GABIN, GERTRUDES                                         0501
A0601400230891390383003DEOGRACIAS KERR S. GALANG                                0501
A0101408240000000039683MIRCHANDANI, SHERYL OR LALA                             10501
A1301400500000000213265VINCENT P. JAVIER OR                                    10505
A0601400360000000225312SUAREZ, GLORIA DE LEON OR                               10502
A0101413280000000312701GUERRERO E. GUZMAN OR VICTORIA                          10501
A0301400950000001379615CABALLERO, MARY LYNN ONG                                10501
A2001400290000001557575VILLABERT, ROSITA TAN OR                                10502
A0101400570000001681825TEODUCIO SENA DBU                                       10501
A3101400870000001712101CABREA, N DBU LUXE MODERN DAY                           10501
A0101412630000001823321BOLOS, J DBU ADTANK                                     10501
A0101413860000001886902ROSALES, MARK JASON JT                                  10501
A0101400150061326594001REYNALD C. UY OR                                        10501
A1001400350233528399003KO, JOSE NELSON AND                                     10501
A0101400570281365949001DR. FELIX ROBERTO G. TORRES OR                          10502
A0101402510341081001001BALHAG, RAUL ESTOLE OR BALHAG,                          10501
A0101409050352717261001MARIA KATRINA JESSICA M.                                10502
A0101408790383551241001PEREZ IV, FRANCISCO B. OR                               10502
A0101405490392332172001RITCHIE D. REYES OR MARIA PILAR                         10503
A0101408400394412577001REYES, EMMANUEL JOHN JOCSON OR                          10501
A0101408240000000039683OR MICHAEL                                              20500
A1301400500000000213265TERESITA F. JAVIER                                      20500
A0601400360000000225312PONCE, MARLYN DE                                        20500
A0101413280000000312701J. GUZMAN                                               20500
A0301400950000001379615OR CABALLERO, GLENN D.                                  20500
A2001400290000001557575VILLABERT, WINSTON TAN                                  20500
A0101400570000001681825GAARA ENTERPRISE                                        20500
A3101400870000001712101SPA                                                     20500
A0101412630000001823321DESIGNS ADVERTISING                                     20500
A0101413860000001886902SO, MA PAMELA CORAZON F                                 20500
A0101400150061326594001SHIRLEY G. UY                                           20500
A1001400350233528399003KO, CHARMAINE                                           20500
A0101400570281365949001GUIA PARAYNO-TORRES                                     20500
A0101402510341081001001ROSALIE SANTOS                                          20500
A0101409050352717261001GALLEGOS                                                20500
A0101408790383551241001PEREZ, MARIVIC S                                        20500
A0101405490392332172001CONCEPCION T. REYES                                     20500
A0101408400394412577001REYES, MARY GRAC                                        20500
B0101406460000000020920PRIME CREATIVE DIMENSIONE INC.                           1610
B0101412210000000031523JINMANDE MARKETING INC.                                  1601
B1901400320000000041301FIRST INNER TRADE CREDIT CORPORATION                     1610
B0101412180000000075450SUBONAFOOD CORPORATION                                   1603
B0101401670000000178596MA CECILIA BARCELONA & MARITESS GALLARDO                 1601
B0101401090000000210482BLUMEX PLUS CREDIT INVESTOR INC.                         1605
B0301400950000000567022ENTERPRISE BANK, INC.                                    1601
B0301400950000000567033SAGING REPABLIK CORPORATION                              1602
B0101408790000000599793SEVEN SEVEN GLOBAL SERVICES, INC.                        1602
B0101401090000000772350BLUMEX PLUS CREDIT INVESTOR INC.                         1605
B0101404840000001312309LIFTER SYSTEMS INC.                                      1605
B0101408820000002043692*******                                                  1605
B0101400860011023114001**********                                               1605
B0101400860011352814001**********                                               1602
B0101400860011374845003**********                                               1601
B0101400860011409046002**********                                               1601
B0101400860011486476001**********                                               1602
B0101401700041636716001HYUKIZU PARTS CENTER INC.                                1612
B0601400360083042517001PROJEXASIA CORPORATION                                   1606
B0101401090171042218001RD CASH PADALA, INC. - AREA 02                           1603
B0101401380201006734001JAMMA PRINTING SERVICES                                  1602
B0101406620273026509001DG3 IDOCS, INC.                                          1602
B0101406620273031145003KOHL INDUSTRIES CORPORATION                              1601
B0101402480331016564001**********                                               1605
B0101402480331033229001TGP DRUGSTORE                                            1603
B0101402480331033229004TGP DRUGSTORE                                            1603
B0101402480331033229018TGP DRUGSTORE                                            1603
B0101402480331033229022TGP DRUGSTORE                                            1603
B0101402480331033229023TGP DRUGSTORE                                            1603
B0101402480331033229032TGP DRUGSTORE                                            1603
B0101402480331033229036TGP DRUGSTORE                                            1603
B0101402480331034503001*******                                                  1601
B0101402480331035336001******                                                   1603
B0101402480331036207007MYGENERICS PHARMACY INC.                                 1603
B0101402480331039628003TOTALGENERICS PHARMACY INC.                              1603
B0101402480331234185001**********                                               1602
B0101402480331748556003QUALIGEN PHARMACY CORP.                                  1603
B0201400890376723103001DAUZ, NELSON ALEGRE              JT                      1602
B0101402770391043080001ADT MONTESSORI SCHOOL, INC.                              1602
B0101405490392516600001SOLARPOWER CORP.                                         1601
B0101403030441314128003**********                                               1601
B0101403450521036992001********                                                 1601
B0101404680651038602001ASTRAN MARKETING & GEN. CONTRACTOR                       1601
B0101408240711026678001SAMBEL PACIFIC CORPORATION                               1602
B0101408240711232203001SPIRIT OF EDSA FOUNDATION, INC.                          1603
B4101400550815038465004SOUTH EAST ASIAN MEDICAL CENTER INC                      1610
B0101404840851009268001FAMOUS LUMBER & CONST. SUPPLY                            1602
B0601400230891028118001D.M. AUTO SUPPLY                                         1605
B0101413570000000206522HOLY SPIRIT COMMUNITY MULTIPURPOSE                      11601
B0101401250021178953002TENSUAN, ERNESTO OR NECITAS OR                          11610
B0101404680651034190001DIVINE HEART MEDICAL SERVICE AND                        11602
B0101406590662033680001STA. MARIA DELLA STRADA PARISH                          11601
B0101413570000000206522COOPERATIVE                                             21600
B0101401250021178953002EMMANUEL                                                21600
B0101404680651034190001DEVELOPMENT COOP                                        21600
B0101406590662033680001FINANCE COUNCIL                                         21600
