B0101408530516821100608**********                                               2015
B0101407270162821100608**********                                               2015
A0301400530193821100608**********                                               0505
A0101403320471387853001MIRANDA SR., DESIDERIO LUMBANG                           0501
B0301400790000001244531LAGARTO, SHECEL DBU SHEER DEW                           11604
B0301400790000001244531PURIFIED WATER                                          21600
A0101408530000005493267MACABULOS, MARIA RUBETINA JANEO                          0502
A0101400860011634071001**********                                               0505
A0101401250000000906923VILLAMIA, GERRY MALLARI                                  0502
A0101400150000002902752FISCHER, JANICE TUMAMBING                                0501
A0101400150061039917060RIVERA, CHARLIE J.                                       0501
A0101400600000001335579********                                                 0502
A0101405810072367597002WANG, GUO YANG                                           0502
A0601400100000007253945TANGLAO, CARMELO DE LEON DBU ME                          0501
B06014001000000071851533JJJ MINIBAR COR.                                        1603
A0601400100081370388002REYES JR., LIBERATO DAYRIT                              10502
A0601400100081370388002OR MELINA                                               20500
A0601400520000007553326SIGUI, MARY ANNE ANQUILO                                 0501
A0601400520000007553337GONZALES, LEONEL PARE DBU MRS.                          10504
A0601400520000007553337KIMCHIE KOREAN RESTAURANT                               20500
A0101410850000005161320JIMENEZ, ANNABELLE GONGE                                 0501
A0101410850000010978153DE VERA, CHERRY LOU ORPILLA                              0501
B0101410850109067543001KELLY BRYCE LOGISTICS, INC                               1601
B0101410560000008979366JVR PLACEMENT CO. INC.                                   1602
B0101410560000008979377ETON INTERNATIONAL SCHOOL, INC.                          1601
A0101400730111386485021REBECCA R. LANUZA                                        0501
A0101400730111477188001FRANCO, LENITA DELOS SANTOS                              0501
A0101401960121047232001MAGNO, ODILON DBU MAGNO HARDWAR                          0502
A0101401960121490958001TAN, JOSEFINA ONG                                        0502
A0101412630000004062042RACHO, E DBU RAR ELJAY AUTO SUP                          0502
A0101401830141355794001MA. ELIZABETH W. PERNIA                                  0501
A7201400170000006487518ARANDING, LIZA MEDADO                                    0501
A5001400170000005705197MAGBAGO, JUCEASAR MACALONG                               0502
B0101400440000003766956KS PRIME FINANCIAL CORP.                                 1605
A0101407270162203204001OGIE P. DIAZ                                             0502
B0101401090171036158001AIRBORNE MAINTENANCE AND ALLIED                         11602
B0101401090171036158001SERVICES INC.                                           21600
A0101401090171195722001JESUS VALENCIA OR                                       10502
A0101401090171195722001REMEDIOS VALENCIA                                       20500
A0101401090171195724001DRS. JESUS VALENCIA OR                                  10502
A0101401090171195724001REMEDIOS VALENCIA                                       20500
A0101401090171365718002MA. ANNALEAH S. CRUZ                                     0501
B0301400530193035726167TAGUM PIONEER FOODS CORP. - 1                            1605
B0301400530193035726168TAGUM PIONEER FOODS CORP. - 2                            1605
B0301400530193035726188TAGUM PIONEER FOODS CORP. - DT                           1605
B0301400530193038459169PIONEER BEE CORP. 2                                      1605
B0301400790000010553972**********                                               1601
B0301400790195066611002EW DAKUTAN RESOURCES CORPORATION                         1601
A0101413020000003055314JVF COMMERCIAL AND PROJECT DEVT                         10506
A0101413020000003055314SUPPORT SERVICES                                        20500
A0101413600000005355084KENYON S. CHEE                                           0505
B3101400450223025343001CAPUA ENTERPRISES                                        1601
A3101400450223223483001GALVEZ, RODOLFO OR ANGELINA                              0505
A3101400740000000013823IGNACIO, JOSE CARLO CAGUITQUIT                           0501
A3101400740000010818209HAN, SHIN                                                0501
A3101400740224646140001CHUA, JANETTE SY                                         0501
A3001400130000000007063GOLDEN HARVEST CATERING SERVICE                         10502
A3001400130000000007063FASTFOOD                                                20500
A3001400130000000067183CURITANA, COLEEN BARRIENTOS                              0501
A1001400190000008743853IGNACIO, MERCURY RADAZA                                  0501
A1001400190231520766125YANA, MAYFLOR DAGOC                                      0501
A1001400480000004097223PARCON, NEYRA ACENAS                                     0501
A1301400470252478374030**********                                               0503
A1901400290000006560103DR. DAISY SANCHEZ-MOSTIERO                               0503
A1901400290261298552105AIDA NABOS REYES                                         0501
B0101401670271025034001M.P.S. FOOD CORP.                                        1603
B0101406620273017284001ACCENT MICRO TECHNOLOGIES, INC.                          1605
B0101406620273033986001F. YAP SECURITIES, INC.                                  1605
A0101410980000005709606LIMKETKAI, GLENN TAN                                     0501
A6601400120314400833001BRIONES, FERDINAND ABUDA                                 0502
B6601400120314612845001LOMAGDONG, PETER OR TANG, PATRICIA                      11603
B6601400120314612845001LOMAGDONG, JOYCE                                        21600
A0101402350321176404002MATIAS, GINA A. OR DANILO M. OR                         10501
A0101402350321176404002MATIAS JR., DANILO A.                                   20500
A0101402350321478374050JESUSA G. CAYLAN                                         0501
A0101402510000009178247ONG, ARNOLD VINCENT SABULARSE                            0501
A0101402510341199632002ANA LIZA R. DELA CRUZ OR                                10504
A0101402510341199632002ANTONIO T. DELA                                         20500
A0101402510341202521002MA. ELISA A. GALANG                                      0501
A0101402510341392942001MANAHAN, ANTONINO ARTURO                                10501
A0101402510341392942001CONCEPCION                                              20500
A0101402510341564278001MARY GEMMALYN M FIDELINO                                 0502
A0101402060351009359003JIANDANI, SURESH G. OR                                  10501
A0101402060351009359003JIANDANI KAVITA                                         20500
A0101409050000003533515TY, RICA ALABADO                                         0502
A0101409050000010820509EMPLOYEES OF, DELL GLOBAL B.V P                          0501
A0101409050000006986589FEDERIO, CHRISTOPHER ESPENA                              0501
B0101402930381205334001IMPERIAL CONSOLIDATED CORPORATION                        1604
A0101402930381216288001JOSELYN C. TIU                                           0502
A0101408790000005169159BERNARDO, LESLIE ELLEN CHUA OR                          10501
A0101408790000005169159BERNARDO JR., DOMINGO LIM                               20500
A0101411660000005323922**********                                               0502
A0101411660000001145788TUMPALAN, SOCRATES DBU FIRST                            10501
A0101411660000001145788SUN MARKETING                                           20500
A0101405490000000232453ROMEL P. ALMEDA                                          0502
A0101408400394067627144ABUAN, SHEILA MARIE MENDOZA                              0501
A0101408400000001952883GABRIEL TAILORING AND GENERAL                           10501
A0101408400000001952883MERCHANDISE                                             20500
B0301400820000008995577KART & KYLE FEEDS AND VETERINARY                        11605
B0301400820000008995577SUPPLIES, INC.                                          21600
A1201400150421459509001TEE, CHITO LAYUGAN                                       0503
A0101406330472616303001TORRES, JOEPET PABUSTAN                                  0501
B0501400170481015880002TOYOTA DAGUPAN INC.-1                                    1603
A0501400170481253455001NORMELITO QUIMO OR IRENE QUIMO                           0502
A3801400170000005287903ATIENZA, LUCIA RAMOS                                     0501
A0101407430000000359524LEONARD S. TUPAZ                                         0501
B0101407430503021143001PHIL-AMER IMMIGRATION SERVICES, INC.                     1603
B0101407430503039021001NOC GLOBAL MARKETING AND MANAGEMENT                     11602
B0101407430503039021001CORP.                                                   21600
A0101408530516568848001TANGCO, ERWIN CHUA                                       0501
A0101408530516571877053CHRISTIAN DURANTE                                        0502
B0101412050000000890984NINON RETAIL CONCEPTS, INC.                              1603
B0101403450521011671001TIMES TRADING CO., INC.                                  1604
A0101403450000001769771SANTOS, EMMA CASTILLO                                    0501
A0101403610531219680004RONWHEELS PARTS & ACCESORIES                             0502
A0101403610531671318001PAGCALIWAGAN, AMALIA PADUA                               0501
B0101404130601024735001BAUHINIA 10 REALTY CORPORATION                           1601
B0101404130601046104001BOOMERANG CORPORATE OUTSOURCING                         11601
B0101404130601046104001SOLUTIONS, INC.                                         21600
B0101407720602021299002DEPARTMENT OF OPTHALMOLOGY  MMC                          1601
A0101407720602241314001**********                                               0502
A0101407720602330685002VALLE JR., DEMETRIO LIM                                  0501
A0101407720602341866003SONGCO, JAIME STO. DOMINGO                               0502
A0101407720602382805001BAGABALDO, ZENAIDA GARCIA                                0501
A0101407720602398210001MANALO, FRANCISCO CATIBAYAN                              0501
A0101407720602398548001MANALO, EILEEN MALAPAYA                                  0502
A0101407720000000713153UY, ROBERTO BATAC                                        0501
A0101409890000006812928ESQUEJO, ROMMEL ESCARCHA                                 0503
A0101407690000000154830CORPUZ, JERUSA ARNANTE                                   0502
A0101407690652674006001FLORENTIN, LUINELL PAEZ                                  0501
A0101413570000008173580MAGAO, JESSICA SALE                                      0502
A1701400230000008555437RESPICIO, MARILYN LUCERO                                 0502
A1701400230693710362001CUA, RONALD CU                                           0501
B0101408240711026678001SAMBEL PACIFIC CORPORATION                               1602
A0101408240711453117001MICHAEL RICHARD RAMIREZ                                  0501
B2801400100712035549002AUTOTEC AUTOMOTIVE TESTING AND EMISSION                 11602
B2801400100712035549002CENTER                                                  21600
B4101400260812033339002FCE FURNITURE DEPOT & GENERAL                           11601
B4101400260812033339002MERCHANDISE                                             21600
A4101400390813246359001LEGASPI, NORLINDA RODRIGUEZ                              0502
A4101400550000004846835MARQUEZ JR., RAMON BALASOLLA                             0501
A4101400550000002091021PIYEZA MOLINO AUTO PARTS                                 0503
A4101400550815067658001FATHERS' KITCHEN FOOD TO GO                              0501
A0101404840000000683610HAN, CYNTHIA MARAVILLA                                   0501
A0101404840000006364981MARINA ASUGAS                                            0501
A0101406750852023552001DEN-DEN & DJ ANNE                                       10502
A0101406750852023552001GENERAL MERCHAND                                        20500
B0101405070861008149003TABAQUERIA DE FILIPINAS INC.                             1603
A0601400230000000990063**********                                               0508
