F0101413600000002822722GPRS - UNIFIED PRODUCTS AND                             12602CK1
F0101413600000002822722SERVICES INC.                                           22600CK1
F1801400130151048751001MSU-IIT NMPC TIBANGA MAIN BR.                            2602CKR
F3101400160221010538002ADVANCED MEDICAL SYSTEMS, INC.                           2620CKR
F0101401670271029054002HEALTHWEALTH INTERNATIONAL CORP.                         2610CKO
F0101406620000000962421ARMCO HEALTHCARE  SERVICES INC.                          2602CK1
F0101407300395370361001CHUA, MA. CRISTINA AGANON                                2505CKO
F1301400210682306066002JUANITA CABRERA OR ANTONIO                              12501CKO
F1301400210682306066002CABRERA OR JAYNI                                        22500CKO
F4101400260812667299001LANDAS, NICER SAN DIEGO OR                              12502CKO
F4101400260812667299001LANDAS, JOCELYN                                         22500CKO
F0101404840851027809001INFORMATICS COLLEGE NORTHGATE,                          12605CKR
F0101404840851027809001INC.                                                    22600CKR
