B2801400100712821100608**********                                               2005
A0101412920000003464919SOTO, RYAN D ASIS                                        0501
A0101412920000013577056VELASQUEZ, MON RUIZ SONIEGA                              0501
A0101412920000011166680NOLASCO, MA CRISTINA RIVERA                              0501
A0101412920000013640632SANTIAGO, MARY JANE BUNDOC                               0501
A0101403450000011972413**********                                               0510
A0101403450000013091560***********                                              0510
A0101400150000003141380PINEDA, LYNAIRA ANN YAP                                  0501
A0101400440000000337860SEACHON, JOSEPH CLEMENTE                                 0501
A0101400440000004901451JOSEPH C. SEACHON                                        0501
A0101400440000012169385FAGCANGAN, WALTER SEGWABEN                               0502
A0101400440161399445002ELIZABETH A. PALTING                                     0501
A0101400440161520766113MARIFE MANZANO                                           0501
A0101400440161525001131RIA B. IBANEZ                                            0501
A0501400200000005751782MISLANG, JANELY DELA CRUZ                                0502
A2001400290000001301580BONIOR, MARIO CURATIVO                                   0502
A0101411660000000595331ANTON XANDRO S IBITA                                     0502
A1601400170000013660390FABROS, LAURENCE MYLES BACAY                             0501
A1601400170000013660932MONTAS, KARLA MAE LLANERA                                0501
A0101412340000003344443WENDY A. MAITIM                                          0501
B0101400860011041002001BAGS OK MARKETING                                        1602
A0101400860011286612002**********                                               0501
A0101400860011352579001**********                                               0505
A0101400860011397165004**********                                               0503
A0101400860011442261001**********                                               0504
A0101400860011453144001*********                                                0505
A0101400860000008319288**********                                               0503
A0101400860011634071001**********                                               0505
A0101401250021183070002CORLET, EVELYN LACERNA                                   0502
A0101401250021183555001MERCEDES B. CONCEPCION                                   0502
A0101400150000000807209RAMON S. DE MESA OR JASMIN                              10501
A0101400150000000807209CRISTINA ALVARAN                                        20500
A0101400150000003157953DINO JAMES OURADNIK                                      0501
A0101400150000003197813Alistaire Glicerio L. Nacion                            10501
A0101400150000003197813III                                                     20500
A0101400150061232020138RICHARD BENEDICT SO                                      0501
A0101400150061392265002WARNER, CAROL PEREYRA OR                                10502
A0101400150061392265002RONALD WARNER                                           20500
A0101400600000002335673*******                                                  0501
A0101400600071233721001**********                                               0502
A0101405810072373265003MANANSALA, JOYCEE CATARATA                               0502
A0101405810072508809001LEE, YANNILYN TAN                                        0502
B0601400100081025592001HAUSLAND DEVELOPMENT CORPORATION                         1603
A0601400360000002282311KILATES, GUALBERTO CABRERA                               0504
A0601400360000013100440MARILOU MACALINO                                         0501
A0601400360000013102133DALE SCHWARTZ                                            0501
A0601400520000001120385BANAG, ESMERALDO PINEDA                                  0501
A0101413280000002317751LIM, MICHAEL                                             0501
A0101414090000006211563JUGO, CHELOY CORINA CASTILLO                             0501
A0101410850000013629922MABANTA, NAZARETH RAGUDO DBU                            10501
A0101410850000013629922MABANTA BOTTLE WASHING                                  20500
B0101410850000013630609CHANGE-UP FASHION STYLE INC.                             1603
A0101410850000011276594VILLAFLOR, ANDREA AURORA NAVAL                          10501
A0101410850000011276594DBU HOUSE OF FRIED POTATO                               20500
A0101410850000003503999TESORO, PABLITO GOMEZ                                    0501
A0101400730000009218020ANTONIO, DAREEN CALZITA                                  0501
A0101400730111195497001REBOLLEDO, GEORGE AGENA OR                              10501
A0101400730111195497001REBOLLEDO, MARILYN JULIAN                               20500
B0101413150000000038606TRADETON CORPORATION                                     1601
A0101413310000003169242MARIA CRISTINA DM FRANCISCO                              0501
A0101401830000007190572AQUINO, ROGELIO CANADIDO                                 0501
A0101401830000001140010SANTOS, ROSIELYN LUCERO OR                              10501
A0101401830000001140010SANTOS, MICHAEL                                         20500
B5001400170000005705255HUANG, PATRICIA DY OR HUANG, WAN NING OR                11605
B5001400170000005705255PULVERA, MIA H.                                         21600
B5001400170000005989042RED HAT FOOD VENTURES, INC.                              1605
A0101412920000002359015DAIT, FERDINAND BERIDO                                   0501
A0101412920000013672118WEE, JONALYN SY                                          0501
B0101400440161007542001PACE REALTY INVESTMENT INCORPORATED                      1601
A0101400440000007121871LI, VI JU WONG                                           0503
A0101400440161520766060CRESENCIA CLEOFE                                         0501
B0101407270162021081001PROFESSIONAL MULTI SERVICES COOP.                        1602
A0101407270162202282001ALEX CHEUNG OR LUDY H. CHEUNG                           10502
A0101407270162202282001OR MELODY H. CHE                                        20500
A0101407270162333154011DON ALBERT CUESTA                                        0501
A0101401090171196115001AUREA PELAYO-LLANERA                                    10504
A0101401090171196115001OR TRACY ANN LLANERA                                    20500
A0101401090171202640001GIL L. ARCEO                                             0502
A0101401090171242611001RICARDO OR EMERITA CARAIG                                0502
A0101401090000001619012ROMMEL P. ROMANO OR MARIA                               10501
A0101401090000001619012MARGARITA M. ROMANO                                     20500
A0301400530193478374008CHYRL ANN SENANGOTE                                      0502
B0301400660000000195157WISDOM EDUCATIONAL MATERIALS PUBLIS                      1605
A0301400660194721952088TAN SR.,JAIME OR TAN, VICTORIA                           0510
A0101401380000010190499ANGUS, ROBINSON CAL                                      0503
A0101401380201171279001TSAI, ROBERT                                             0501
A0101401380201577691001GATO, EDNA CABANGON                                      0502
A0101413020000003353773ACOBA JR., DOMINADOR VICENTE                             0501
B0101410720000007017290SAN FERNANDO ISUPARTS CENTER INC                         1604
A0101410720653575025001CRISTINA G. CUEVAS                                       0503
A0101412500000000739533CARPIO, RITCHIE MANSILUNGAN                              0501
A0101412500000002304752MARTIN, ERNEST JOGGLER REYES                             0501
A0101412500000002304803BATTUNG, GENEROSO DE POLONIA                             0501
A0101412500000013681842LIM, MARLON ALVAREZ                                      0501
B0101412500000013686883UPPETITE HEALTHY SNACK INC.                              1601
A0101413600000005794643EFREN A. BALINAS DBU FREDEME                            10502
A0101413600000005794643GENERAL MERCHANDISE                                     20500
A3101400450223056521002SAMIANO DENTAL CORP DBU THE                             10501
A3101400450223056521002NAME AND STYLE OF SMILE                                 20500
A3101400450000005355471CIGARAL, PEDRITO OR KLARISSE                            10503
A3101400450000005355471OR KIM PATRICIA                                         20500
A3101400450223693052001FERRER, PAMELA PIA OR MELVIN                            10506
A3101400450223693052001JOHN OR AUSTRIA, APRYL                                  20500
A3101400450223693052001FERRER, PAMELA PIA OR MELVIN                            10501
A3101400450223693052001JOHN OR AUSTRIA, APRYL                                  20500
A3101400740000001692457MALABANAN, MILANNIE G. OR                               10502
A3101400740000001692457MALABANAN, ROHNELL C.                                   20500
A3101400740000006735835DAVIN, LIZA DBU ROMERO DAVIN                            10502
A3101400740000006735835REALTY AND SERVICES                                     20500
A3101400870000005410337ISLA, VINCENT PINCA                                      0505
A3101400870000005410224BLANCO, RUSSELL SIMSUANGCO                               0502
B3001400130230043534001BERRY HAPPY MART INC.                                    1606
A3001400130000008264842AGOT, VICENTE ANTEGRA DBU PAMIL                         10510
A3001400130000008264842YA TRADING                                              20500
B30014001300000082649442PM LENDING INVESTOR CORP.                               1605
A3001400130000010506479MARCA, LEA CONDEMINA                                     0502
A1001400190231380503007DRA. CYNTHIA BACONGA                                    10503
A1001400190231380503007PHILAMCARE DOCTO                                        20500
A1001400190231520766011PETALVER, RICKY FLORENTINO                               0501
A1001400350233042653001BLUE ENERGY RESOURCES                                    0504
B1301400470000003270113OBRIGADO LENDING INVESTOR, INC.                          1602
B1301400760000010656852MARY JANE SIOJO ENTERPRISES                              1603
B0101406460272039896001TOPSERVE MANPOWER SOLUTIONS, INC                         1605
A0101406620000010201091MARTINEZ, GEORGINA CAROLINA Y.                           0502
B0101406620273038508001AMTI COMPUTERS SUBIC INC.                                1605
B0101406620273045521001DELRICO ANIMAL HEALTH INC.                               1601
A0101406620273766429001TING, DIANE DOMINIQUE CO                                 0501
A0101410980000001154472NORLYN AGLIPAY OR                                       10501
A0101410980000001154472FEDERICO HENRY A                                        20500
A0101410980000006014437DEMALATA, MICHAEL DEMDAM                                 0501
A0101411820000001356703IBAY DIGINET INTERNET CAFE                               0501
A0101412470000005380296ABAD, YOLANDA SOCORRO QUIRINO                            0502
A0101400570000006272084TENG, EUCLID SCHUYLER ONG                                0501
B0101400570281023797002PROVINCIAL SUPERIOR OF THE PHILIPPINE                   11602
B0101400570281023797002PROVINCE OF THE                                         21600
A0101400570281186530001CARLOS AGUILA OR                                        10502
A0101400570281186530001MERCEDES AGUILA                                         20500
A0101400570281423865002RIBAYA, VICTORIA CABRERA                                 0502
A0101400570281628531001BILLARDO H. DEL ROSARIO, M.D.                            0501
A0501400200000011009593FARINAS, KRISTINE JOY URBI                               0501
A2901400130000009071676SAZON, CEDRIC MARAVILLA                                  0502
B2901400130000005960927AGUILLON, EMMANUEL SANAGUSTIN                            1605
B0101402350321628463001SEABASE TRAINING CENTER FOR                             11601
B0101402350321628463001WATCHKEEPING INC                                        21600
B0101405650000005382043RPB MANAGEMENT GROUP INC.                                1601
A0101402510000001358163ABAD, EDUARDO ARGOSINO OR                               10501
A0101402510000001358163TUICO, LEOPOLDO                                         20500
A0101402510341478374008MARY GRACE B. ANDRES                                     0501
A0101409050000008087565BERNAL, MALVIN ARRIOLA                                   0502
A0101409050000008087565BERNAL, MALVIN ARRIOLA                                   0502
B0201400760000005711104SANDRA YOUNG OR JANICE LORRAINE YOUNG                    1601
B0201400760374033207001W.T. CONSTRUCTION, INC.                                  1606
B0201400920000008813747VILLANUEVA JR., TOMAS BENOLIRAO DBU                     11601
B0201400920000008813747TOMM'S TRADING                                          21600
A0201400920000002804504BARENG, NATHALYN C.                                      0503
A0201400890376520766004NARBOADA, JULIE M                                        0501
A0101402930000003710381PANLILIO, MARITES YUMUL DBU PAN                          0502
A0101408370382395507001DR. TELLY S. CHENG OR                                   10502
A0101408370382395507001DOMINIQUE S. CHENG                                      20500
A0101408370382396040001DR. STEPHANIE JENNIFER H. PE                             0501
A0101408370382453740001DR. RAYNALD EDLIN P. TORRES                              0506
A0101408790000000210904PIO DE RODA, ATHENA RAMBLA                               0501
A0101411660000005324210CORONA, PERSEVERANDIE NUEVO                              0501
A0101402770000010082601FALLARIA, BENJO MARCO N. OR                             10501
A0101402770000010082601FALLARIA, BENEDICT N.                                   20500
A0101408400000010506942CHAN, KENNETH MARIE MERICO                               0501
A0101408400000010507012ALATRACA, GLENN QUEVEDO                                  0502
B0101408400394005997001STA. MARTA EDUCATIONAL CENTER                            1602
A0101408400000001981586BMFV BEAUTY SALON                                        0502
A0101408400394089542001CRYSTAL FRIAS LAUNDRY SERVICES                           0502
A0101408400000010507001VITALES, MISAEL RANTE                                   10502
A0101408400000010507001OR VITALES, MARI                                        20500
A0101408400394160062001SAMSON, RUFINA                                           0502
A0101408400394462068001ABBAS, ANIAH MALOMALO OR                                10502
A0101408400394462068001ABBAS, JOHN-SACA                                        20500
A0101408400394473443001VITALES, MARIBEL F                                      10502
A0101408400394473443001VITALES, MISAEL                                         20500
A0101408950000000776723VARANDMAL, MICHELLE GRACE FERNA                          0501
A0101408950000011598802ACOSTA, CHRISTOPHER DELA CRUZ                            0502
A0101408950396567114001CESAR JOSEPH CURAMENG GLORIA                             0502
A0101408950000005325753PEDRAZA, MARIA LAURA SUAREZ                              0501
B0101409180000008122683FIRST CIRCLE GROWTH FINANCE CORP.                        1602
A1201400150000011266516DUMALILI JR., GABRIEL SAGUILOT                           0501
A1201400150421252661001JOHN KWAN OR JENNY KWAN                                  0504
A1201400150421350944001AGWIKING, PETER CARLOS                                   0503
A0901400220000000887903**********                                               0501
A0101403030441583043001**********                                               0502
A0101403030441612666001**********                                               0501
A0101403030441687781001**********                                               0502
A1901400160491635678001MARIVIC ATIENZA CANTES                                   0501
B1401400110000012900231VILLAVERDE, A DBU SJTENZEL HARDWARE                      1604
B1401400110492040383001RCBL - ST. MICHAEL ARCHANGEL PARISH                      1604
A1401400110492222049001AMORSOLO S. NIEVA                                        0508
A1401400110000000628659RCBL - YEAR OF THE LAITY                                 0501
B1601400170494060167001*********                                                1603
A0101407430503557193001ENRICO P. ERIDIO                                         0501
A0101407430503736499001CECILIA R. NALAUNAN                                      0502
A0101405940000005068071NINA LINDA B. PIOQUINTO                                  0501
A0101408530000013680838DE LA VEGA, ANNA ROCELIA PEREZ                           0501
A0101408530000013680907GENIO, MYRA PIMENTEL                                     0501
A0101408530000013677193CABRERA, RAYMOND DELA CRUZ                               0501
A0101408530000013677262DOLOR, MARGARITA AGCAOILI                                0501
A0101408530516635897001MARIA TERESA M. CHAN-CASTILLO                           10501
A0101408530516635897001OR VICENTE G. CASTILLO                                  20500
B0101411400517821100608**********                                               2001
A0101411790000012082136JARIUS MARK D. NALUPTA OR                               10503
A0101411790000012082136RINALYN D. PORTU                                        20500
A0101403450521238176001**********                                               0502
A0101403450521240963001********                                                 0503
B0101403450521548227002********                                                 1610
A0101403610000013643875OMBINA, CEDRIC DBU GOLDNINJAS                           10501
A0101403610000013643875MARKETING AND SERVICES JT                               20500
A0101403610000013665631MORANDO, JOVIT R DBU LOT AND                            10501
A0101403610000013665631TAN'S BAKESHOP                                          20500
A0101403610531221633002PACULAN, MARILYN ALCANTARA                               0501
A2201400250000007122749RICARDO Y. DIMARUCOT DBU R.Y.                           10504
A2201400250000007122749DIMARUCOT ENTERPRISES                                   20500
A2201400250561430146001*******                                                  0501
A0101410690000006663585PENG, CHAO                                               0503
B0101404130601324181001KING, ARTHUR CELESTINO OR KING, MARTHA                   1601
A0101404130601451527001MA. PAZ OR EMMA ERLINDA OR                              10502
A0101404130601451527001GERARDO OLIVERIO LAPERAL                                20500
B0101407720602005906001ASSOCIATED MEDICAL & CLINICAL                           11610
B0101407720602005906001SERVICES, INC.                                          21600
B0101407720602008761001DEPT. OF MEDICINE - MMC                                  1601
B0101407720602030254001MMC MEDICAL INTERNIST ASSN. INC.                         1602
B0101407720602031597001A.F. NAVARRETE AND PARTNERS CO.                          1601
B0101407720000000885645A.F. NAVARRETE CONSULTANTS & ASSOCIATES                  1601
B0101407720000007951797*********                                                1602
A0101407720602295336001AGUIRRE, ANGELITA MIGUEL                                 0501
A0101407720602386585001SAN GABRIEL, LOURDES OR                                 10501
A0101407720602386585001SAN GABRIEL, FRANCIS                                    20500
A0101407720602398260002JON EDWARD B. JURILLA OR                                10504
A0101407720602398260002JOAN S. GATCHALIAN                                      20500
A0101407720602485188001BASBAS, CRISTIE APURADO                                  0501
A0101407720602581738001DUCUSIN, MA. ANTONINA SUGUITAN                           0502
B0101404260000000550270SAMACO, VIRGINIA FAVIS                                   1601
A0101404260611005298001VARIAS, FLORDELIZA OR EMMANUEL                           0503
A0101404260611150856002CHING, WILLIAM OR TRINIDAD                               0502
A0101404260611394302003SUNGA, CHITO OCAMPO                                      0501
B0101404260611466163001GAGAN, REBECCA ALVIOR                                    1601
B0101404260611684918001ERAMIS, DIONESIO OR                                     11602
B0101404260611684918001JOCELYN ERAMIS                                          21600
B0101413440000011893180EVOLANDER MOTOR CORPORATION                              1603
B0101413570000007212951WIPE EVERY TEAR, INC.                                    1602
A0101413990000000205843KIMPO, PAUL EDWIN C.                                    10502
A0101413990000000205843OR KIMPO, AILEEN G.                                     20500
A0101408240000001038813RONA, ANGELITO ARGENTE                                   0501
B0101408240000000832586TREE TRUNK DEVELOPMENT CORPORATION                       1605
A2801400100712017190002DE PESTERS PEST MANAGEMENT                               0504
A2801400100712362318001SARTE, MAXIMO PAREDES                                    0503
B2801400100712821200608**********                                               2001
B4101400390813012836001ROYAL CAINTA KING CHOW, INC.                             1601
A4101400390813019225002CUARTOS GLASS & ALUMINUM SUPPLY                          0504
B4101400390000006103673OBIC OMITLU HOLDINGS, INC.                               1602
A0101412340000003342572RODRIGO R. DIAZ JR.                                      0502
B0101404840000006365120PLA MATELS (PHILIPPINES) CORPORATIO                      1602
B0101405070861034856001KIMIKA INDUSTRIAL CORPORATION                            1601
A0101405070861707742001ELMER G. CHAN                                            0501
A0601400230000003015801DABU, CRISTINA CALAGUAS OR                              10501
A0601400230000003015801DABU, CHRISTOPHER MEDINA                                20500
B0601400230891043609001FUNDACION GRAMEEN PILIPINAS INC.                         1605
