A0101411530000003448220**********                                               0502
A1001400350233543683001DONGGAY, CERAEL CAGA-ANAN                               10502
A1001400350233543683001OR DONGGAY, FELI                                        20500
B0101413600215821100608**********                                               2002
B0101413600215821200608**********                                               2001
B0101406590662038794001PRISMODIAL CONSTRUCTION CORPORATION                      1606
B0101406590000000905511MAINEVENT AND MARKETING CORP.                            1602
A0101406590662442723001ROSALES, MARINELLA GUPIT                                 0503
A0101406590662694250001VIDANES, ELIZABETH ALVIAR                                0501
A4101400420000000710143GERONDA, RIZALDY DBU HRDG                               10502
A4101400420000000710143TIRE RECAPPING S                                        20500
A4101400420814520766065ANGUE, HONEYLYN D.                                       0501
B0101401250021018020001BETTY'S VERMILLION ACADEMY, INC.                         1605
A0101406590000000131682SISON, JOANNE TABORA                                     0501
A1701400230000002347333SALAZAR, EDWIN ENRIQUEZ                                  0505
A4101400550000002091043RAMIREZ, CYNTHIA TAN                                     0503
A0101400440161520766113MARIFE MANZANO                                           0501
A0101400440161621420002CANO, EDWIN SANTOS                                       0501
A0101406590000002277603ARMI S. ABEL                                             0501
A0101400860011578978001**********                                               0503
A0101401250021180271001ERLINDA V. EQUIBAL                                       0501
B0101401250021821100608**********                                               2005
B0101401250021821200608**********                                               2002
A0101400150000001422224REYNOSO III, RICARDO ISIDORO MA                          0501
B0101400150061021566001SUGAR MASTER PLAN FOUNDATION, INC.                       1603
B0101400150061021566005SUGAR MASTER PLAN FOUNDATION, INC.                       1602
A0101400600000001335579********                                                 0502
B0101400600000002335753DADULA, ROLANDO LATRAS OR KEY, ERWIN YAP                 1602
A0601400520000001120385BANAG, ESMERALDO PINEDA                                  0501
A0601400520000001706792BUNGQUE, ALDRIN CAPILI                                   0501
A0101414090000003314730BATOON, EDGAR VALDEZ                                     0502
A0101413150000003868253***********                                              0502
A0101413310000001794647E.G. HORTALEZA VACIADOR AND                             10501
A0101413310000001794647BEAUTY SUPPLY                                           20500
A0101401830000000201845CRUZ, ARLENE ROBERTO OR                                 10502
A0101401830000000201845CRUZ, VERNON CRUZ                                       20500
B7201400170000006163300TO, WINNIE OR YU, RAMONA OR TO, MONIQUE                 11601
B7201400170000006163300SHAIRA                                                  21600
B7201400170152060140001CERILLES, ACE WILLIAM E. DBU BOSS GYM                    1601
A0101400440161027568001GARB CLOTHING COLLECTION                                 0503
A0101400440000004889865EVA D. SAMILLANO                                         0502
A0101400440161549901001EMMANUEL C. FLORENDO                                     0504
A0101407270000001596810CHARL LESTER E. QUIJANO                                  0503
A0101407270162421293020MA. CONSOLACION SEMILLA                                  0501
B0101401090171035575001MOSS MANILA EVENTS HOUSE INC.                            1605
A0101401090171309681001FRANCIS MARIE A. PURINO OR                              10503
A0101401090171309681001PIO V. PURINO JR                                        20500
A0101401090171378414001DOROTEA Q. SUAREZ                                        0501
B0301400660000003361971IMAGE CARS DAVAO, INC.                                   1610
A0301400660000003406168*****                                                    0502
B0101401380201525090001HONGKONG MASTER COOK CORPORATION                         1605
A0101413020000002292760********                                                 0501
A0101413600000000206675CECILIA D. AUSTRIA                                       0501
A3101400160000001559231MARY JANE G BAUTISTA                                     0501
A3101400160000002761971ACUZAR, MARIVIC PUNZALAN                                 0502
A1001400190000000124796DAGUDAG, ALFONSO PATRON                                  0501
A1001400190231273303002BAQUILAR, NELDA R.                                       0505
A1001400190231520766036ONIPA, JANE ROSE P                                       0501
A1001400350000002367371FUENTES, NELLIETA DAGAAS                                 0501
B1001400350233041564001INFORMATICS COMPUTER INSTITUTE CAG. DE                  11605
B1001400350233041564001ORO CENTER, INC.                                        21600
A1301400470000003270460RIGOR, PAOLA MARIE BIANCA                               10501
A1301400470000003270460OR RIGOR, NINO ANGELO                                   20500
A0101410980000000533715MACARAEG, DIONISIO BUGAYONG                              0501
A0101412470000005380285QUIRINO, ALELI ANGELA GUZMAN                             0502
A0101400570281494522001SISON, RICARDO JOAQUIN V.                                0502
A6601400120314621349001JAGONOY, EMELIE GARROTE                                  0503
A6601400120314622580001SOSING, CAROL O. OR FELIPE A.                           10505
A6601400120314622580001OR CAROLYN O.                                           20500
A2001400290000002319484RODRIGUEZ, JANET CABIARA                                 0502
B2001400290000000020537LINK RI LOGISTICS INC.                                   1601
A3401400280000002323542PASCUAL, FREDDIE CONDE OR                               10501
A3401400280000002323542PASCUAL, MA. ME CANTILLER                               20500
A3401400280000002323473LOBERIZA, ETHEL IBABAO                                   0501
A0101402350321179411001LARRY RAMOS OR                                          10501
A0101402350321179411001HERMINIA RAMOS                                          20500
A0101402350321478374059BERNARDITA D. LOPEZ                                      0501
A0101405650322093557001CUEVAS, MA. DONATA NADINE OR                            10502
A0101405650322093557001CUEVAS, RAFAEL                                          20500
A0101405650000000348903ESPERANZA F. BAYLON                                      0502
A0101402060000002258911LAU, CINDY HOMO                                          0502
A0101409050000001662368ESTABAYA, MYRA MUDLONG                                   0502
A0201400890000006170156BARRIGA, JAIME PETER                                     0501
B0101402930381007647001EDELSTAHL DRAINAGE SYSTEMS ASIA INC.                     1603
B0101402930381014599001HEALTH SOLUTIONS CORPORATION                             1602
A0101408370000005220080NERY, EMILY ROSE CRUZ                                    0502
A0101408370382234715003DR. ANTHONY RICHARD G. NUNEZ OR                         10501
A0101408370382234715003DR. IRMA G. TAN-NUNEZ                                   20500
A0101408370382485622001DELBERT S. ANG IT OR                                    10501
A0101408370382485622001CHERRY C. ANG IT                                        20500
A0101402770391034936001LOGPRO EXPRESS, INC.                                     0501
A0101405490392554799001ALLEN NEIL V. PAJARELLANO OR                            10501
A0101405490392554799001FLORANITA V. PAJ                                        20500
A0101408400000000607772PAUNTE, SIHAWI PANGCOGA                                  0502
A0101408400394478374075VIOLETA I MANUEL                                         0501
A0101409210000006170350DUNCAN, KENNETH CU                                       0501
A2401400180000003949020CABUENA, NESTOR BOADO OR                                10502
A2401400180000003949020CABUENA, GERALDINE LU                                   20500
B2401400180000000073670BRIGADA HEALTHLINE CORP.                                 1630
A2401400180411320270002SALARDE, GLORIA TIMKANG                                  0502
A2401400180411478374059ANALITA R. SUICO                                         0501
A2401400180000000428051EGOS JR., JEMMERITO CASANA                               0502
A1201400150421253603001FLORES, ISABELITA MENDOZA OR                            10501
A1201400150421253603001DOLOROSA, ROMEO                                         20500
A0101406330000001235012MATIENZO, MONETH STA. ANA                                0501
A0501400170000001072935HERNANDEZ JR., ROMEO FERRER DBU                         10501
A0501400170000001072935ZAIRON TRADING                                          20500
A1401400110000003063469HADLEY, ELIZABETH LAZARTE                                0501
B1401400110492046339002******                                                   1620
A1401400110492621336001MOISES, JESSIE LOSAURO                                   0501
A1601400170494057284001F2M TOWER                                                0501
A0101403580000000509415RICHARD S. CHUATECO                                      0502
A0101405940512204623002EDUARDO B. MANZANO                                       0503
B0101403450521011872001**********                                               1601
B0101403450521078888003PUREGOLD PRICE CLUB, INC.                                1620
A0101403450521239750002EDDIE L. CHUA                                            0502
B0101404000551024348001APPLESEED MONTESSORI INCORPORATED                        1601
A0101404000551351374001LILIAN OR LIL OR MA. CAROLINA                           10505
A0101404000551351374001DOMINGUEZ                                               20500
A2201400250561478374062JENNIFER M. RAMOS                                       10501
A2201400250561478374062MEMBERS OF NATAS                                        20500
A0101404130601027289014MAGANTE, CAROL MUTIA                                     0501
A0101404130601450094004PASCUAL, LORQUEL OR PASCUAL,                            10501
A0101404130601450094004ANNIE S.                                                20500
A0101407720000000051130LEGASPI, LILIAN DOMINGUEZ                                0505
A0101407720602167555001JAIME E. VILLAMIN OR                                    10501
A0101407720602167555001MA. ANGELIE M. V                                        20500
A0101407720602396331001RAMON I. DIAZ JR. OR                                    10504
A0101407720602396331001CYNTHIA M. DIAZ                                         20500
A0101407720602397425001HENSON, MARIA THERESA GUEVARA                            0501
B0101407720602463868001MAKATI HEALTH SPECIALIST CONNECTION,                    11601
B0101407720602463868001INC.                                                    21600
A0101404260611150840002WILLY OR ELIZABETH CHING                                 0501
A0101404260611151320001NAYDA N. SONZA OR ORLANDO SONZA                          0502
A0101404260611478374097MILA B. RIELO                                            0501
A0101411530000002260311**********                                               0501
A0101413440000002125428FADERANGA, L. DBU CAI MARK                              10501
A0101413440000002125428ENTERPRISE                                              20500
A0101406590662368220001LIMGENCO, MYRA R. OR LIMGENCO,                          10503
A0101406590662368220001MARTIN W.                                               20500
A0101406590662368220001LIMGENCO, MYRA R. OR LIMGENCO,                          10503
A0101406590662368220001MARTIN W.                                               20500
A0101410300000000026508TAGLE, E DBU E.S. TAGLE TRADING                          0503
A1301400340000002283741CECILIA R. PRODON                                        0503
A2801400100712551709001SANTOS, OSCAR CO                                         0510
A2801400230000002312356VILLAROSA, RODOLFO NAVALES                               0502
A2801400230000000937548VITUG, QUIRINO DBU VI-JETT                              10502
A2801400230000000937548ACCOUNTING OFFICE                                       20500
A4101400260812478374055ARLENITA E. MORALITA                                     0501
A4101400420814520766004SALVACION D. BITANCUR                                    0501
A4101400420814520766072JOLAMPONG, JUDITH L.                                     0501
A4101400420000003715724FLAVIANO, PERLITA                                        0501
A0101412340000003343906NORBERTO B. JOCSON JR.                                   0501
A0101404840000000475952GONZALES, ROWENA POLLICAR                                0502
A0101406750852006838002***************                                          0502
A0101406750852478374039MERCY MOSLARES                                           0501
B0101405070861008460004STARS TRAVEL INCORPORATED                                1602
B0101405070861028566001AVESTA REALTY, INC.                                      1602
A0101405070861478374004WINIEFRENDA O. PILANDE                                   0503
A0601400230891373030001TULABUT, LIGAYA MALLARI                                 10501
A0601400230891373030001OR TULABUT, CAHM BUTIU                                  20500
