A0101405650322377744001VILLAREAL, DIONISIA M. OR                               10501
A0101405650322377744001LOPEZ, MA. GLADYS                                       20500
A0101412180603752998001ESPINOSA, CECILIA COSME                                  0501
A0101410300000006278631BANTIGUE, MARIA LUISA SAPORSANT                          0502
A0101413280000013234350LUCAS, JAYSON ABAJO                                      0501
B0101410720000000029850NORDHOFF ENTERPRISES INCORPORATED                        1601
A0101412500000012967438TAN, JEROME MONTIERO OR                                 10501
A0101412500000012967438TAN, DENNIS CORDOVA                                     20500
B0101406460272039035001CATS ASIAN CARS, INC.                                    1601
A1101400120000006186672CORDOVA, MA. KRISTINE AGUILON                           10501
A1101400120000006186672DBU RACKS ENTERPRISE                                    20500
A6601400120000001370467FLORALDE, DOLORES ESTAVILLO                              0501
B0201400920375526997001**********                                               1604
A0101405940512155370001ALCANTARA, EDITHA INQUIMBOY                              0501
B0101404260000004781288DAIKINDO CONCEPTS, INC.                                  1601
A0101404260611501323001PERALTA, DIOSDADO NAVARRO                                0503
A0101413860000000859025OCAMPO, RENE CASTILLO                                    0501
B0101400860011041174001**********                                               1602
B0101401250021044420001CONTEMPORAIN FOODS, INC.                                 1601
B0101401250000000057190CONTEMPORAIN FOODS, INC.                                 1601
B0101401250000000057214CONTEMPORAIN FOODS, INC.                                 1601
B0101401250000000057225CONTEMPORAIN FOODS, INC.                                 1601
B0101401250000002763357CONTEMPORAIN FOODS, INC.                                 1601
A0101401250000000907211CORRALES, RITA M.                                        0502
A0101400150000000806906DE LEON, CAROLINE TUAZON                                 0502
A0101400150000003164229VICTOR E. DOMINCIL                                       0501
A0101400150000003141419REYES, EILEEN DAVID                                      0502
A0101400150000003218471BERNADETTE N. TUAZON                                     0501
A0101400150000003601050SHIH JR., BENJAMIN MATAMMU                               0501
B0101400150061011067002ALSONS LAND CORPORATION                                  1601
B0101400150061021085001SEAOIL PHILIPPINES, INC.                                 1610
B0101400150061034947001MAYBANK ATR KIM ENG SECURITIES, INC.                     1602
A0101400150061039916088LLENA, LAGRIMAS R.                                       0501
B0101400150000001708458PHILIPPINE FOODSERVICE GROUP CORPORATION                 1605
B0101400150000001708629INNOVEND CORPORATION                                     1605
A0101400150061226120001JUAN RAMON C. GARCIA                                     0501
A0101400150061231647001JOHN ARTURO MOROTA                                       0502
A0101400150061370228031ENRIQUE LUY JR.                                          0501
A0101400150061720595156MARIA CRISTY AZANES                                      0501
A0101400600071350764002**********                                               0501
A0101405810072359000003MATEO, JOYLEEN CASTILLO                                  0504
A0101405810072365030001**********                                               0502
A0101405810072449066001WANG, WENLI                                              0502
A0601400100000009324049REUTTER, MARIA CHERRYL EVIDENTE                          0504
B0601400100081030352001LIVING STONE INTERNATIONAL SCHOOL INC.                   1605
A0601400100000002365437DELA CRUZ, RAMIR DE JESUS                               10505
A0601400100000002365437OR DELA CRUZ, MA                                        20500
A0601400100081331768001HENSON, CRISTINE SANTOS                                  0505
A0601400360000002282260SANTOS, RAMON ARCIGA                                     0502
A0101413280000005084982GARCIA, JUDE JOSEPH ACUNA                                0501
A0101413280000005084982GARCIA, JUDE JOSEPH ACUNA                                0501
A0101413730000001253241*************                                            0501
A0101414090000000648493*******************                                      0501
B0101414090000002244673FUTURE BRIGHT MGMT. INC.                                 1601
B0101414090000002244680TIME RISE MGMT. INC.                                     1601
B0101400730000002102414ALLANIC, W DBU KYLE SEAFARERS TRADING                    1601
A0101400730111203514009LAILA ABORDO                                             0502
A0101406040112206767001LUZMINIA ALANES OR                                      10502
A0101406040112206767001PEDRO ALANES JR.                                        20500
A0101406040112647381001SY, FRANCISCO ENG HUA                                   10501
A0101406040112647381001OR EDWIN ONG SY                                         20500
A0101406040112657540001**********                                               0503
B0101401960121608874001**********                                               1602
A0101413150000005959966LUMANUG JR., AGA LOPEZ DBU SINI                          0504
A0101401830141206735001GLORIA C. FRIAS OR ELAYNE ONG                           10502
A0101401830141206735001OR ED RAYMUND C.                                        20500
A0101400440161538462001ROMEL A. ADDUCUL OR                                     10501
A0101400440161538462001JOCELYN C. COBAN                                        20500
A0101407270000006675518LIM, GINALIE PREJOLES                                    0502
A0101407270000009673436ORENZA, ERLPE JUNN GUMAWID                               0503
A0101407270000011651620NADAL, ARNEL                                             0501
A0101407270162331908120CHERRY T. PENA                                           0501
A0101401090000007480415***                                                      0502
B0101401090000012629960UST MEDICINE CLASS 1972 INC.                             1601
B0101401090171007896004CPA REVIEW SCHOOL OF THE                                11605
B0101401090171007896004PHILIPPINE INC.                                         21600
B0101401090171040208001GOLDEN CHOPSTICKS DELITE CORP.                           1603
A0101401090171195606004REYNALDO M. JAVATE                                       0510
A0101401090171195628001PATRIA PEREZ PUNSALAN, M.D.                              0502
A0101401090171196831003MERCADO, DR. WILHELMINA ALANO                            0505
A0101401090171200324001PEREZ, MONALISA C.                                       0502
A0301400530000012631515CEDENO, JO ANN SORIA DBU SLN FU                          0504
B0301400530193551184088**********                                               1610
A0301400530193551188168GONG, SHUJIAN                                            0504
A0301400530193560165168YAO, CAIQI                                               0502
A0301400530193583614088VILLANUEVA, MELISSA MAY OR                              10502
A0301400530193583614088VILLANUEVA, PHIL                                        20500
A0301400530000007345475VILLANUEVA, PHILIP OR VILLANUEV                         10501
A0301400530000007345475A, MELISSA                                              20500
A0301400530193729179088VILLANUEVA, PHILIP OR                                   10502
A0301400530193729179088VILLANUEVA, MELI                                        20500
A0301400660000002913282**********                                               0503
B0301400660000006755162KILOTRADE MARKETING CORPORATION                          1604
B0301400660000006755213**********                                               1601
A0301400790000000435961********                                                 0501
A0301400790000005691990EMBALSADO JR., ALBERTO GEMPESAW                          0502
A0301400950000002252119MOLINA, REYNALDO MANGMANG                                0501
A0101401380000012372968LI, SHIYONG                                              0502
A0101401380000012372979HE, ZHENGJING                                            0502
B0101401380000000027045DONNY'S CHOICE FOOD PROCESSING EXPORT                   11602
B0101401380000000027045AND IMPORT CORP.                                        21600
A0101401380000000682673RED, ROBERTO AURELLANO                                   0501
A0101410720653172338001MATIAS, MA. DOLORES C.                                   0502
A0101410720653478374019MEMBERS OF NATASHA, SHOECAT INC                          0501
B0101410720653650376001MICRO QUADKEYS CORPORATION                               1620
A0101412500000013255124TATEL, HOWARD BENEDICT ACOSTA                           10501
A0101412500000013255124OR SISON JR, JAIME DELA                                 20500
B0101412500000009179079IHOPE DIGITAL INCORPORATED                               1603
B3101400160221037479001TABLERIA LA CONFIANZA CO., INC.                          1601
A3101400160221478374061ANDREA E GOLVEO                                          0501
A3101400160221506317001RACHELLE B. ALVIAR                                       0503
A3101400160221533263001DR. DOMINGO O. AMISTAD                                   0504
A3101400450000012147658BAUTISTA, NICO MARVIN AGUILA                             0501
A3101400870000000957702GATCHALIAN, GIANCARLO ENRIQUE                           10501
A3101400870000000957702GOMEZ                                                   20500
A3101400870000000957768CATLI, EMMYLOU REVECHO                                   0501
A3101400870000002007738RECTO, MARY ANN PACAIGUE OR                             10501
A3101400870000002007738RECTO, ARNOLD REBLEZA                                   20500
B3001400130230048097002PENALOZA, DBU UBIC BEARING AND SEAL                      1603
A3001400130230687086188********                                                 0505
A3001400130230687431001ABAD, RAMON APLACADOR                                    0501
A3001400130230788248001TAN, HENRY LUY                                           0505
B1001400190231028789001PHILTYRES CORPORATION                                    1605
B1001400190231045801001SUMMIT WORLD PHILIPPINES INC.                            1601
A1001400190231520766119CABANO, BERNADITH CATIWALAAN                             0501
A1001400350233527287001MARINELA NERI VELEZ                                      0501
A1001400350233545247001KHO, ARWIN TAN                                           0502
A1001400480000000041498TAN, MELECIA GONZAGA OR TAN,                            10503
A1001400480000000041498ARIEL GO OR TAN, CHARLES                                20500
B1301400470252047879001DON PHILIP MARKETING CORPORATION                         1601
A1301400470000000009925EVANGELINE R. SALVADOR                                   0501
A1301400470252491349001ANTONIO I. CHUA JR.                                      0501
A1301400760000005990003ROWENA D. ALVAREZ                                        0503
A1301400760000000007230GARCIA, BENEDICK HERNANDEZ                               0501
A1901400290261244374001ELIZABETH K LOZANO OR                                   10503
A1901400290261244374001MARIE MILAGROS K LOZANO                                 20500
A1901400290261247727001LEVITA LINATOC RAGO OR                                  10501
A1901400290261247727001RODEL TACLA LINATOC                                     20500
A1901400290261532003001ALMA A REMO                                              0501
B0101401670271015326002GIFT GATE, INC. KITTY KIOSK                              1602
B0101401670000000739180INT'L SOLID WASTE INTEGRATED MANAGEMENT                 11605
B0101401670000000739180SPECIALIST, INC.                                        21600
B0101401670000004588581AUTO NATION GROUP, INC.                                  1601
B0101401670271477778001VIRTUSIO PR INTERNATIONAL, INC.                          1601
A0101406460000008890519FLAVIANO, RICARDO TORRES                                 0501
B0101406460272177939002AMALGAMATED IRON WORKS, INC.                             1601
A0101406460272663804001LAVARRO, JOSE SALAO                                      0502
A0101406460272722876003ALLAN V. LAVARRO                                         0502
A0101406620000003661410LIM, SHARON T. OR CHIKIAMCO,                            10501
A0101406620000003661410PAOLO GABRIEL V.                                        20500
B0101406620273022308001BALGOS GUMARU FALLER TAN JAVIER                          1602
A0101406620273213116002***********                                              0501
A0101408660000005109842PAYUMO, LIEZEL AUMENTO                                   0501
B0101408660000013247815MARCELO, R DBU SUNPATH SOLAR POWER                      11601
B0101408660000013247815ENTERPRISE                                              21600
B0101408660274036856001REYES BARBECUE                                           1602
A0101408660274524670001CYRIL C. LORENZANA                                       0502
A0101410980000010894865KEH, ANSON DEE                                           0501
B0101411820000003085050ROPE MASTERS MANUFACTURING CORP.                         1602
B0101411820000003085152PACIFIC CONTINENTAL CO., INC.                            1602
A0101412470000000853801**********                                               0501
A0101412470000002136141DEL ROSARIO, MA PAULA ANGELA OR                         10501
A0101412470000002136141ERLINDA OR LADY KRISTINE                                20500
A0101400570281187717001CELIA A. ZAMORA                                          0501
A2601400270000007951177RAYMOND RUEL D. VALLE                                    0501
A2601400270000010433808FELICIANO B. SEMANA                                      0501
A2601400270302627581168JIMMY OR MARILOU PUA                                     0501
A0801400160000006893163ZALDARRIAGA, CHRISTY LUBATON                             0502
B0801400160000001289807BORACAY BEACHBOYS LEISURE, INC.                          1601
B0801400160311268422001TIU, RODOLFO CHUA                JT                      1602
A0801400160311363414002***********                                              0501
A0801400160311518786001TIU, EUGENE CHUA                                         0502
B1101400120000006187051BUSINESS FRONTIER CORPORATION                            1603
A1101400120000000652602LIM, JOHNNY C. OR                                       10503
A1101400120000000652602LIM, RICHARD Y.                                         20500
B6601400120314040980001CATUBIG MULTI-PURPOSE COOPERATIVE                        1603
B6601400120314040980002CATUBIG MULTI-PURPOSE COOPERATIVE                        1603
B6601400120314040980003CATUBIG MULTI-PURPOSE COOPERATIVE                        1603
A6601400120314071890001MARTIRES, MYLA TURLA                                     0502
A2001400290000003961499BELISTA, BEBIANO BAGALANDO                               0501
A3401400280000004959140BERMOY, GIAN CARLO ALEGRE                                0501
A3401400280000004959151BERMOY, PETULA JOY PEJAY AGERO                           0501
B0101402350321006752001LOPEZVILLE HARDWARE                                      1602
A0101402350321406149003********                                                 0502
A0101405650000000448668BARDON, NELSON BELDA                                     0501
A0101405650000000525831*********                                                0501
A0101405650000005284419BAGAPURO, LESLIE TIMBAL                                  0501
A0101405650000008159035AGUIRRE, MYRNA BASCON                                   10503
A0101405650000008159035OR AGUIRRE, MARTIN                                      20500
A0101405650322401342001VILLAREAL, EARL FIDEL MONTERO                            0502
A0101402510341068366001MAKI SUSHI FACTORY INC.                                  0502
A0101402510341196525001CHONA G. ESPOSO                                          0501
A0101402510341331222002ERLINDA C. RECOCO                                        0502
A0101402510341417224001NEILIA A. BALANON                                        0501
B0101402060351009370001CHEM INSURANCE BROKERS AND SERVICES                     11603
B0101402060351009370001CORPORATION                                             21600
A0101402060351211814001MA. ANA S SANTOS                                         0501
A0101402060351621385001BASCAR, CYD BUHIA                                        0502
A0201400760000005711280JAMANDRE, ANDREW ABADILLA                                0501
B0201400760000005016653VICSAL DEVELOPMENT CORPORATION                           1601
B0201400760374038777001CEBU ADMIRAL CONTAINER TRAILER CORP                      1601
B0201400760374038779001CMC                                                      1601
B0201400760000005016660MENDOZA, NESTOR PATRICIO DBU SOUTHE                      1601
B0201400760374249471001COMMONWEALTH INSURANCE COMPANY                           1604
A0201400920000001331548GALLETA, SONNY                                           0501
B0201400890376661159001SHS-B BATCH 1985 FOUNDATION INC                          1602
B0201401020000005109973SURFACE TECHNOLOGY INTERNATIONAL PH                      1603
A0101402930000009324983FELIZMENIO, E DBU MCPHILA                               10501
A0101402930000009324983ENTERPRISE                                              20500
B0101402930381018178001SUMMIT COLLECTION & ALLIED SERVICES                      1602
B0101402930381023937001COLUMBUS SEAFOODS CORPORATION                            1601
B01014029300000056460514COMMUNICATION CO., INC.                                 1601
A0101402930381323854001*******                                                  0504
B0101408370382018588001FOUNDATION FOR SIGHT INC.                                1605
B0101408370382037051001TMC-CENTER FOR LIVER DISEASE MANAGEMENT&                11601
B0101408370382037051001TRANSPLANTATION                                         21600
B0101408370382037051002TMC - CENTER FOR LIVER DISEASE MGT &                    11601
B0101408370382037051002TRANSPLANTATION                                         21600
A0101408370382209736001DRS. PAUL JESUS S MONTEMAYOR OR                         10503
A0101408370382209736001MA. NATHALIA N MONTEMAYOR                               20500
A0101408370000000335602TIONGSON, JOHN JERUSALEM OR                             10510
A0101408370000000335602TIONGSON, MA. LUISA GWENN                               20500
A0101408370382420447001PAPA, RICARDO TOBIAS MARCELO                             0501
A0101408370382434879001CHUA, ESTELITA MATEO                                     0506
A0101408790000000039085SORIANO, KATHERINE ILAGAN                                0501
A0101408790000000931048PISON, MARCUS AURELIO ABELARDO                          10501
A0101408790000000931048OR PISON, MARIA                                         20500
A0101408790000000599982VELASQUEZ, SHARON BERNADETTE OR                         10501
A0101408790000000599982VELASQUEZ JR., GERUNDIO                                 20500
A0101402770391217498003ARNALDO EXEQUIEL T. JANOLO                               0503
A0101402770391510038001IGNACIO, FLORDELIZA SORIANO                              0501
A0101408400394033832001DANNY'S UPHOLSTERY SHOP                                  0503
A0101408400394508550001BUSTOS, SHARONE ROSE HIJADA                              0501
A0101408950396563990001LUAT-INCIONG, JOY ESCUETA                                0502
A0101408950396567208001MA. CONCEPCION L. CRUZ                                   0504
A0101409180000009240784APPAVU, ARVIND KINGSELY                                  0501
A0101409180000010760175CAUPAYAN, CHARDAN CARBALLO                               0501
B0101409210398047110002MONTEVISTA CONSTRUCTION CORPORATION                      1605
A0101412210000003448582TADENA, KRISTINE CARLA SAN JUAN                          0501
A0101412210399094817008RYAN RENE C. JORNADA                                     0502
A0101412210000001236351AUGUSTO C. VILLALUNA                                     0504
A5501400120410624314001MORALES, RAUL OR                                        10502
A5501400120410624314001MORALES, BELINDA                                        20500
B1201400150421013238002JARCO REALTY AND DEVELOPMENT                             1601
B1201400150421030320001NORTH LUZON TRUCKING FORWARDERS CORP.                    1605
A0901400220000000012313**********                                               0510
A0901400220432704641001**********                                               0502
A0101403030441036808001**********                                               0510
A0101403030441041524001**********                                               0504
A0101403030441239186001**********                                               0505
A0101403030441313818001**********                                               0502
A0101403030441339238001**********                                               0510
A0101403320000008003836ROSANA L. RABUCO OR                                     10502
A0101403320000008003836ELMAR C. LAUREL                                         20500
B0101403320471008859001NEW LITE LUMBER & CONSTRUCTION                          11602
B0101403320471008859001SUPPLY                                                  21600
B0101403320471015404001COVENANT CHILDREN ACADEMY INC.                           1604
B0101403320471041480002ITP CONSTRUCTION INC                                     1602
A0101403320000000452402TEBELIN JR. DBU TRIP TREK                               10501
A0101403320000000452402TRAVEL AND TOUR                                         20500
B0101403320471066581002ITP CONSTRUCTION INC. - GUANGXI                         11602
B0101403320471066581002HYDROELECTRIC                                           21600
A0101403320471311190002*****                                                    0504
B0101403320471518351001LEGACY UNLIMITED, INC.                                   1605
B0101406330000000432762BROADCAST & TELECOM SUPPLY (BTSI) INC.                   1603
A0101406330472495381002JOSE, ERICK JASON L. OR JOSE,                           10502
A0101406330472495381002ERICA NYSSA T.                                          20500
A0101410140000000482702LABASTIDA, ENGRACIO DOTOLLO                              0502
A0101410140000010760379GARCIA, PAULO GASPAR                                     0501
B0501400170481015880003TOYOTA DAGUPAN CITY, INC                                 1605
B0501400170481018109002CSI WAREHOUSE CLUB INC.                                  1602
B0501400170481025398002COSTSAVER'S SUPERMARKET, INC.                            1601
A0501400170000005646197ARCINUE, MARIA RIZALYN VENTINIL                          0501
A0501400170481367892001XXXX                                                     0510
A0501400170481507253001CUASON, NIDA SANTOS                                      0501
B3801400170000000955131VIC IMPERIAL APPLIANCE CORPORATION                       1603
A1901400160491247764001MARITES E RAMIREZ                                        0501
A1401400110000007186630SALES, ELVIRA ARIATE                                     0501
B1401400110000000167457SUPER MAK FOOD CORPORATION                               1607
A0101405940512313486001********                                                 0501
A0101405940512566824001RAMON ARTEFICIO OR MARILYN                              10502
A0101405940512566824001ARTEFICIO OR JUAN CARLOS                                20500
A0101408530000013243873SARSAGAT, LEIDEANNE TAGASA                               0501
B0101408530000003866002ALLONS HOLDINGS, INC.                                    1601
B0101408530000003866013ZEE1 RESOURCES INC.                                      1601
A0101408530516593577117BARIL, JUAN NICOLAS ERISTINGCOL                          0501
A0101411790000002275976GUEVARRA, LEONILA VILLA                                  0501
A0101411790518055764142FERRER, JUAN FLORENCIO CALUZA                            0501
A0101411790518055815096RANA, FATIMA LIORA LLIDO                                 0501
B0101411790000010967903FIRST GLOBAL PRO HEALTH CARE MANAGE                      1605
A0101403450000001769782**********                                               0501
A0101403450000010454350********                                                 0502
B0101403450521011882004PAN PACIFIC TRAVEL CORPORATION                           1603
B0101403450521012002001PUEBLO GONZALES TOWNHOUSE                                1601
B0101403450521015552001**********                                               1602
B0101403450521024807001********                                                 1602
B0101403450521026346001J.G.D. REALTY AND DEVELOPMENT CORP.                      1601
B0101403450521028263001JAMES, JAIME & SONS CORPORATION                          1601
B0101403450000000135624************                                             1601
A0101403450521238052007**********                                               0501
A0101403450521238061001**********                                               0503
A0101403450521238811002**********                                               0501
A0101403450521305916002**********                                               0501
B0101403450521357127002**********                                               1602
A0101403450521798015001*********                                                0501
A0101410690000000001769ANGELES II, ALEJANDRO MEDINA                             0501
B0101404130601027716001PHILIPPINE CHAMBER OF ARRASTRE AND                      11602
B0101404130601027716001STEVEDORING                                             21600
B0101404130601045482001NORTHSTAR TECHNOLOGIES PHILIPPINES                       1601
B0101404130601100034002ADVATECH INDUSTRIES, INC.                                1612
A0101404130601451302001ROMMEL A. IBUNA                                          0502
A0101407720000003886900LAM, ELIZABETH DAHIL                                     0501
A0101407720602163497001DR. CARINA DE TORRES                                     0501
A0101407720602318369081DR. ARCALUCY M. CABALU                                   0502
A0101407720602480488001GERALDINE MAJELLA L. JURILLA MD                          0501
A0101412180000003275381OSUMO, MARK LASTIERE OR                                 10502
A0101412180000003275381PINGOL, ENRIQUE                                         20500
B0101412180000000075318JMNMKE PREMIERE TRADING COMPANY INC                      1601
B0101412180000000075329UNITED VENEER WOODWORKS 168 INCORPORATED                 1601
A0101412180000003275530MANUEL, PAMELA D. DBU P.D.L                             10501
A0101412180000003275530MANUEL DRILLING SERVICES                                20500
A0101412180000003275432DIMAYUGA, ROBERTO BALASBAS                               0502
A0101404260000012668696RIA JANICE DELA CRUZ                                     0502
B0101404260611005246001KENDREX INC.                                             1601
B0101404260611005306001THE HOUSE OF RACOR ADS., INC.                            1605
A0101409890000000987420GUMAPOS, EDNA TIANGCO                                    0501
A0101409920000000523711CHOA, JOSE K. JT.                                        0501
A0101409920000001539442YU, CAROLINE FREDERICKA C JT.                            0501
A0101409920000001951942MEMBERS OF NATASHA (SHOECAT INC                         10502
A0101409920000001951942TULAYBA, ARLENE                                         20500
A0101407690000002348876MANIO, MARITES BARRIBAL                                  0501
A0101407690652522205001VANO, JESUS PINEDA                                       0503
A0101407690000000243810PAGUIO, ANA CARDENAS                                     0502
A0101411530000002260271**********                                               0501
A0101413440000002846262SARET, MARIA JENNIFER JADE M.                            0505
A0101413440000010659282MENDOZA, JERICO ISLA                                     0501
A0101413570000003380010COPAHAN, LEVIE UDCHUN                                    0504
A0101413570000002906578DIVEREP GENERAL MERCHANDISE                              0502
A0101413990000002273918LACAP, MARIA CECILIA REDOBLE                             0501
B0101414120000003584281JD & P FOOD TRADING CORPORATION                          1602
A0101406590662363449001LA VINA, ANGELINA SAN JUAN                               0501
A0101406590662398949001REYES, MARIA VICTORIA R.                                 0501
B0101410300000000191622TEAM SOURCES ALKOASIA COMPANY                            1605
A1301400210000000540936JOCELYN S APOSTOL                                        0502
A1301400500000002063918RNV APPLIANCE SERVICE CENTER                             0505
A1701400230000004469701CORPUZ, FLORINA CONDE DBU ST. M                         10502
A1701400230000004469701ARTIN DE PORRES RENAL                                   20500
A0101408240000012379892WANIWAN, AN CATIN                                        0502
B0101408240711045782001DSI - MANILA, INC.                                       1603
B0101408240711045782001DSI - MANILA, INC.                                       1603
A0101408240711381161001GUADA C. SANTOS                                          0504
A0101408240711427132001SORIANO, AVELINA                                         0501
A0101408240711432040002TIBAYAN, CORAZON OR ISABELO JR.                          0505
A0101408240711471960001LABITA, ERIC MACEDA                                      0505
A0101408240000008160143ROWENA P. GONZALES                                       0502
A0101408240711572348001SALAPAR, MA FE POSITAR                                   0502
B2801400230000005253652BUCHAN GLOBAL SERVICES CO.                               1604
A4101400390000001732678DAVE RONELL S. DY                                        0501
A4101400390000013255099JAN JEAHNETTE R. LABASTIDA                               0501
B4101400390813012636001TEJERO SERVICE STATION                                   1602
A4101400390000007459369LIM, PATRICK ADONACION DBU                              10502
A4101400390000007459369FLYINGCOLOURS REALTY                                    20500
A4101400550815478374008LORELYN C. PARCIA                                        0502
A4101400550000007583864RIVERA, ROSALINDA LOVERIA                                0502
A0101412340000010659937MARICEL L. ARRE                                          0501
A0101412340850082898001******                                                   0502
B0101405070861008408001CLINICOMED                                               1605
B0101405070861019855002BLUE MAGIC, INC.- ALIMALL                                1601
B0101405070861019855003BLUE MAGIC, INC. - FESTIVAL                              1601
B0101405070861019855004BLUE MAGIC, INC.- MALL OF ASIA                           1601
B0101405070861026103002FUNFARE IN BLUE, INC. (SM-MANILA)                        1601
B0101405070861031788001HANS XAVIER, INC.                                        1601
A0101405070861199646001YAP, VANESSA                                             0501
A0101405070861410261001PASCUAL, RACQUEL VICENTE                                 0502
A0101413860000000145093ASUNCION, LETICIA MOJICA OR                             10502
A0101413860000000145093ASUNCION, RONALD                                        20500
B0601400230891029282001L5 & SONS FINANCING CORP.                                1610
A0601400230891520098001DE LEON, ANTONIO GONZALEZ                                0501
