B1301400760253821100608**********                                               2003
B1301400760253821100608**********                                               2003
B1301400760253821100608**********                                               2003
B1301400760253821100608**********                                               2003
B0101412210000005051336GEOGEN CORPORATION                                       1602
B0101412210000010833713C & S TRAVEL & LEISURE CORPORATION                       1610
B0101412210399062897001VINDICO PROTECTIVE AND DETECTIVE                        11605
B0101412210399062897001AGENCY INC.                                             21600
B0101412210000015411953MONTAVO CORP.                                            1601
A0101413860000012211719JACINTO, GLICERIO MARCELO DBU                           10504
A0101413860000012211719JACINTO MONEY CHANGER                                   20500
A0101406040000004587624********                                                 0502
A0101401960000002331813LADARAN, LANI VILLANUEVA                                 0502
B0101401960121023087001**********                                               1602
A6601400120000003673136DOMINICE, IGMELITA PEDROLA                               0502
A0101408950000003171257LLORIN, RYAN MARTE                                       0503
A0101412210000005723166VILLANUEVA, JOHN MARTIN TABBERR                          0501
A0101412210000002714592LINAO, RYAN AGUSTIN OR                                  10502
A0101412210000002714592LINAO, MELODY RO                                        20500
A1901400160000015521105DRA. MAEVEL M. MANALO                                    0501
B2801400230000012211593FREEDOM ONE TELECOM TRADING INC.                         1602
A0101400860000002333580**********                                               0503
A0101400860011605108001**********                                               0503
A0101400860011695108001**********                                               0501
B0101401250021044358001PASAY CITY ALLIANCE CHURCH                               1603
B0101401250021044358002PASAY CITY ALLIANCE CHURCH                               1602
B0101400150061039476001AIR LIQUIDE PHILIPPINES RETIREMENT                       1601
A0601400520000011139410DAVID, JOAN RONQUILLO                                    0501
A0101413280000014969790PINEDA, REX JEFFERSON MARCELO                            0503
B0101414090000007344603BLUEMAX TRADELINK  INC.                                  1602
A0101410560000010317705JARI PETER S. CATANGAL                                   0501
A0101410560000000590556GUTIERREZ, DOMINICA DALISAY                              0501
B0101400730111035655001FSL INT'L. MANPOWER & PROMOTION SERVICES                11601
B0101400730111035655001INC.                                                    21600
A0101400730111469886001ALVENDIA, AMADOR PAHATI                                  0502
B0101401960121652942001SNOWLION HOLDINGS, INC.                                  1601
B0101412630000000023838LC STAR UNICA HIJA SALON INC.                            1603
B0101401830141057463001POLANCOS, JAY-AR PERALTA DBU VISTA                      11601
B0101401830141057463001ADVERTISING                                             21600
B0101401830141060435001AMBM ELECTRICAL SUPPLY AND                              11604
B0101401830141060435001SERVICES                                                21600
A0101401830141207883001HERMOSURA, SARAH LEE C.                                  0501
A5001400170000000213750RATUNIL, JULIETA OR RATUNIL,                            10502
A5001400170000000213750BYRON, OR RATUNIL, CARMEL                               20500
A0101400440000011310180RANILLO, HELEN RONATO                                    0502
B0101400440161025954001DEX INTERNATIONAL CO.                                    1610
A0101400440161045289001RAPTURE CAFE' BAR                                        0503
A0101400440161186930002LAURO M. AMANTE                                          0501
A0101407270000014296967BORRICANO, RICHARD GALLAMORA                             0502
B0101407270162019023001PHILIPPINE BATTERIES,                                   11610
B0101407270162019023001INCORPORATED                                            21600
A0101407270162569405001ALBERTO M. ALVAREZ                                       0504
A0101401090000010238518DE JESUS, JONATHAN CARLOS HORTI                          0502
A0101401090000015581630DIANGSON, MARIBELLE ACEVEDO                              0501
A0101401090171196088001LIBERTAD NAZARENO ROSALES                                0502
A0101401090000005320541PEDROSA, FERNANDO RADAM                                  0501
A0101401090171341240002RAUL M. SUNICO                                           0502
A0301400530000014433768NARISMA, ROSANIE TUAZON                                  0510
A0301400530193697653001PACE, MELYN T. AND                                      10506
A0301400530193697653001EUGENIO, EMILIA                                         20500
A0301400660000006862662CASTANEDA, RENATO DELA ROSA                              0502
A0301400660000007029161SELIM, BAI RASHIA MAKALENDA                              0501
A0301400660194774595001CIMAGALA JR., OSCAR TINGA                                0502
B0301400790195065500001JABEZ LA PRIMERA POWER FIVE                             11603
B0301400790195065500001CORP.                                                   21600
A0301400950000005707046RAMADA, JOSEPHUS JUL DATO                                0501
B0301400950000005707046RAMADA, JOSEPHUS JUL DATO                                1601
B0301400950000005707046RAMADA, JOSEPHUS JUL DATO                                1601
A0101401380201684172001NUNEZ, JOSEFINA LIOK                                     0501
A0101413020000006295270MORA, JOSELITO AQUINO                                    0503
A0101413020000000056955MACAPAGAL, JACKY LOU FULGENCIO                           0501
A0101412500000012575576BALTAZAR JR., DANTE BARBASA                              0502
A3101400160000014696703AGUILAR, GINALYN GONZALES                                0501
A1001400190000000016446JOMOC, RENETH TAGARDA                                    0501
A1001400350233539784001ANITA U. ROLIDA OR                                      10501
A1001400350233539784001FRANCISCO L. ROL                                        20500
A1001400480000010131594ABRAJANO JR., JOSE MANRIQUE                              0501
A1301400760000011058409OGURA, WENILDA CARILLO                                   0502
A1901400290000011794633JOSEPH ROBERT AFRICA KISON                               0502
A1901400290261298552118CONCEPCION GONZALES ESTIGOY                              0501
A1901400290261585775001LITA CUETO MENDOZA OR DORIS                             10502
A1901400290261585775001MARIE MENDOZA MEDINA                                    20500
A0101406620000014144311GOMEZ, NORBELYN PLENO                                    0501
B0101406620273028521001I-REMIT INC.                                             1602
A0101400570281423865002RIBAYA, VICTORIA CABRERA                                 0502
A0101411240000013355454ESPANA JR., ARNEL SANTOS                                 0501
A2601400270000002257172RINSTON R. SERNA                                         0502
B2601400270000012492552JEREMIAH Q. BAUA DBU JS ROCKWELL HOME                   11602
B2601400270000012492552DEPOT                                                   21600
A2601400270000000561506LUCKY PHAN BUILDERS AND                                 10503
A2601400270000000561506CONSTRUCTION SUPPLY                                     20500
A6601400120000000060795ALCAZAR JR., CESAR GIBA DBU                             10501
A6601400120000000060795INK FOR CARE & SERVICES                                 20500
A0101402350000005645121DANAO, LINO DBU L 2 AUTO SHOP                            0501
A0101405650000008025330ROBENTA, RODERICK ACLADO                                 0501
A0101405650322171890001AQUINO, CARLOS P. OR CYNTHIA OR                         10501
A0101405650322171890001CHRISTIAN OR CAROLINE                                   20500
B0101402510341020561001PHILIPPINE PHARMACISTS ASSOCIATION                       1603
A0201400760000002047161RKONSTRUCT CONSTRUCTION                                 10501
A0201400760000002047161SERVICES                                                20500
A0201400760374507828001MANCAO, DAISY SUE KIMBERLY GO                           10501
A0201400760374507828001OR DEXTER RYAN M                                        20500
A0201400890000000027892FORTRESS ELECTRICAL SUPPLY                               0505
A0101402930000000580352TAN, ROWENA ONG                                          0501
A0101408370000009296717******                                                   0501
A0101408370382391439001EDREN S. MONTERDE OR LORNA O.                           10502
A0101408370382391439001MONTERDE                                                20500
A0101408370382391923001DR.ANNALEE S. MORALES-YUHICO                             0501
A0101408790000000931106MUNSAYAC, NICHELLE VELASCO                               0501
B0101408790000010384506BLUEFIN RENEWABLE ALTERNATIVE ENERGY INC                 1603
A0101402770000002267245PACHEO, TRIXIE RONQUILLO                                 0501
B0101405490000006214222MEGANESS PHARMA MARKETING                                1601
A0101408400000001855541CAMPOSANO, MARILYN F DBU MARSDE                         10502
A0101408400000001855541NISSE TRAVEL AND                                        20500
A0101409180000011750002GALLOS, SAMMY GUADALUPE                                  0502
A0101412210000009036904*******                                                  0502
A2401400180000014472045LAYCO, FERDIE SAN JOSE DBU HERO                         10502
A2401400180000014472045CLAD ENTERPRISES                                        20500
B2401400180411016835001GENERAL TUNA CORPORATION                                 1605
B2401400180000000019747DYNAMIC TEAM, INC.                                       1610
B2401400180000000073663CENTURY PACIFIC FOOD, INC.                               1605
A2401400180411478374020MORI, LYDIA                                              0502
A2401400180411514423001DEALA, BERNARDITA GATCHALIAN                             0502
B1201400150000000473370BAGONG PAG-ASA ENTREPRENEURS SAVINGS &                  11605
B1201400150000000473370CREDIT COOP.                                            21600
A1201400150000013825920ABUAN, LYDIA PEDRO                                       0503
A0101412890000001056393GERONIMO, M DBU A.M.-M.A'S                              10502
A0101412890000001056393BAKERY                                                  20500
A0101403320000014818541ZANDRO L. ARCEBUCHE                                      0501
B0101403320471022389001PRIME PIZZA INCORPORATED                                 1603
B0101403320471030317001UPLIFT PHILIPPINES INC.                                  1610
A0101403320471478374055BENITO OR REYZEL ESLABA                                  0501
A0101412760000000528205SANCHEZ, SARAH JAYNE                                     0501
A1901400160000015575376MACABIDANG, BABY JEAN MORTILLA                           0501
A1401400110000003063458LLAMAS, RALPH DBU RFTL BUILDERS                          0504
A1401400110000004891090JOYAS, VICENTE MANDOCDOC                                 0501
B1601400170000009954669LEGAZPI POULTRY AND LIVESTOCK INC.                       1603
A0101407430000006027921DHALYN M. ESTRELLA DBU                                  10501
A0101407430000006027921HYPER CLEAN TRAD                                        20500
A0101408530000014733565ZAPATA, JAPHILLEE                                        0501
B0101408530516190991001MALLORCA REALTY, INC.                                    1607
A0101411790000000469461PANGILINAN, RENATO                                      10504
A0101411790000000469461DBU RLRM ENTERPR                                        20500
B0101403450521011910001KITCHEN BEAUTY MARKETING                                 1605
A0101403450521240366001**********                                               0504
A0101403610000007125124ALVAREZ, FLORENTINO TERCERO                              0502
B0101403610531043097001BOY & ZENY ENTERPRISES INCORPORPORATED                   1601
A0101404130601521127001TIMBANG, AMELIA MENDOZA                                  0501
A0101407720602382305001PARDINAN, ROSSANA O.                                     0501
B0101412180603046674001DELA CRUZ, MARIA DBU MON-EYED TRADING                    1603
B0101412180000000075410ECOLOGY VILLAGE III CONDOMINIUM                         11602
B0101412180000000075410CORPORATION                                             21600
A0101404260611493062001NACINO, BERNADETH VILLAR                                 0501
A0101404260611564274002CARION, ELGANE PATRIA                                    0501
A0101411530000000013732CALILUNG, TARCISIO SURLA                                 0501
A0101411530000010702717**********                                               0502
A0101413440000015576999FIGUERRES, KRISTA PAULA JASPE                            0501
A0101413440000007953351NADUA, CALVIN RYAN PLACENCIA                             0501
A0101413990000015565321JAVILLO, MICHELLE JARO                                   0501
A0101413990000007318687WILHELMINA C. REYES                                      0501
A0101414120000006864511CO, OFELIA QUITO                                         0501
B0101414120000003584281JD & P FOOD TRADING CORPORATION                          1602
A0101406590662346608001ELAINE O. LOPEZ OR                                      10501
A0101406590662346608001CARMELO ELISEO Y. LOPEZ                                 20500
A1301400210682478374032EVELYN P. PEREZ                                          0501
A0101408240711597472001BAES, DANILO ARCENO                                      0501
A0101408240711689610001RODRIGUEZ, MA. LUISA L. JT                               0502
B2801400230000009021830DGL 168 LAND INC.                                        1601
A4101400260000014081922LACSON, MARIARITA                                        0501
A4101400260000013704371CASALA, CHRISTOPHER BRYAN                                0501
A4101400260000015568439CERTEZA, MARIA CHARLENE ASUNCIO                          0501
A4101400260000012877955MARILAG, LESTER                                          0501
A4101400260000012879962RUBICO, MICHAEL JACK                                     0501
A4101400260000012858943CORPUZ, RED                                              0501
A4101400260000012859515DAVID, RONALD                                            0501
A4101400260000012863173LEGASPI, JEAN KATRINA                                    0501
A4101400260000012865077MERCADER, JOAN                                           0501
A4101400260000012865653NATIVIDAD, JUAN MARTIN                                   0501
A4101400260000012867400RETIS, JOHN DAVID                                        0501
A4101400260000012867780ROXAS, CHRISTINE                                         0501
A4101400260000012868750TIRAZONA, FRANCIS ALBERT                                 0501
A4101400260812047321001MEDCREST MULTISPECIALTY DIAGNOS                         10502
A4101400260812047321001CLINIC & PHARMAC                                        20500
A4101400420000012882958SARIA, LESTER CAMILON                                    0501
A4101400420814357382003REMULLA, GILDA VASQUEZ                                   0501
A4101400420000009343175REGALARIO, VIVIAN T                                      0502
A4101400420000004848051ROSALES, NOEMI A                                         0501
A0101412340000007305564ELNA O. GALAROZA                                         0501
B0101404840851029765001SENG HIENG FASTFOOD                                     11605
B0101404840851029765001INCORPORATED                                            21600
A0101404840851217637046REYNALDO D. MONICO                                       0501
A0101405070861478374086MARLYN C. GABEST                                         0502
B0101405070861654489001SY, DERICK TIU                                           1601
A0101413860000014390742DELA CRUZ, DESIREE ADRID                                 0502
B0601400230000003644831PRYCE GASES, INC.                                        1601
A0601400230891398766001..........                                               0503
