B0101407720602821100608**********                                               2005
A0101412890000002747880JALANDONI, JOHN MARK TALADRO                             0502
A0101412890000001056393GERONIMO, M DBU A.M.-M.A'S                              10501
A0101412890000001056393BAKERY                                                  20500
A4101400420000003715564SARIA, LESTER DBU DESERT QUENCH                         10501
A4101400420000003715564WATER REFILLING STATION                                 20500
A4101400420814520766097ORIENDO, CECILIA B.                                      0501
A0101401250000000460564EVANGELISTA, ELAINE DEL ROSARIO                          0502
A0101400570000004624162AREVALO, LAARNI ALVAREZ                                  0501
A0801400160000002287603TUPAS, THOMAS EMMANUEL BALDESWI                          0501
A1101400120000003197051SALVADO, RICARDO ODTUHAN                                 0501
A1101400120000003197244DARANTINAO, VIVIAN OBAOB                                 0501
A0101405490000004353053PERLITA M. DOMINGO                                       0501
A1301400500684589879001YULO III, ANTONIO P. OR                                 10505
A1301400500684589879001YULO , ANGELINA                                         20500
A4101400420814477593003BAUTISTA, TERESA PONCEJA                                 0502
A4101400420814520766118ADOC, MYLEN A.                                           0501
A4101400420814600531001GRAGEDA, JOSEPH BRIAN SANTOS                             0502
A0101400860000001005503**********                                               0503
A0101400860011379561003**********                                               0502
A0101400860011501216001**********                                               0503
A0101400860011626954001**********                                               0503
A0101400860011656351001**********                                               0502
A0101400150000000808122***************                                          0501
A0101400150000002394636KATIGBAK, CARMENCITA D.                                  0503
A0101400150061396548001ALIMURUNG, BENJAMIN N. OR                               10501
A0101400150061396548001ALIMURUNG, ALICE                                        20500
A0101400150061401662001DAYAO, ROSALYN ZAPANTA                                   0501
A0101400600000001335604PORRAS, MARIVIC DE GUZMAN                                0502
A0601400100081023131001ADYR TRADING                                             0506
B0601400520000002085890**********                                               1601
B0101400730111007953001METROPOLITAN TOURS PHILIPPINES,                         11603
B0101400730111007953001INC.                                                    21600
A0101400730111334903023CHAVEZ, ANABEL                                           0501
A0101400730111386485175IVANHOE O. MARASIGAN                                     0502
A0101400730111432322015SHARON ALIBO                                             0501
A0101400730111493349001ATOS, EDITHA PADRE JUAN                                  0501
A0101401960121464343001**********                                               0502
B0101401830141037764001MICHAELJONA TRUCKING SERVICES, CO.                       1602
B0101401830141045610001INTERZONAL COURIER SERVICE                               1601
A0101401830141350743001CORAZON E. TEODORO                                       0504
A0101401830141378973001ALBINO S. JACINTO JR., M.D.                              0501
A5001400170000002023596JEFF CARASICAS GARDOSE                                   0505
B5001400170153821100608**********                                               2002
A0101400440000002035041MARIA GEVELA CARDINOZA                                   0501
B0101400440000000337762SUPREME COMMANDER INVESTIGATION AND                     11610
B0101400440000000337762SECURITY AGENCY                                         21600
A0101401090171322581001DR. LERRIE D. GUTIERREZ                                  0510
A0301400530000000065832PERIAS, FE                                               0501
B0301400790000000435669FIL-ASIA ENERGY & TECHNICAL SERVICES INC                 1603
A0101401380201574072001SY, WYNNE MHAR GACAD                                     0502
A3101400160000000006464CANDELARIO, EVELYN DBU                                  10502
A3101400160000000006464RALC REALTY                                             20500
A3101400160221478374058MARIBEL S SIBOR                                          0501
A3101400160221533274002DANILO T. RAMILO                                         0503
A3101400450000001104174ANGSICO, VOUGHN IVAN ALCANTARA                           0501
A3101400450223466114002NATIVIDAD, GINA DUNGO                                    0502
A3101400450223718102001MANALO, ROMEO LASET                                      0502
B3101400740000004509580HINO MOTORS PHILIPPINES CORPORATION                      1605
B0101401670271345868001REGINA H. CASTILLO                                       1602
B0101401670271668276001QUORUM HOLDINGS (QHC) CORPORATION                        1602
A0101406620000001686815ALMANZOR, MARY GRACE BAGAC                               0502
A0101406620273553996001CHONG, KATE MING                                         0501
B0801400160311022546001POWER ALLIANCE CORP.                                     1610
A0801400160311267069001MA. JIZA BARREDO OR MANUEL                              10502
A0801400160311267069001JOSEPH BARREDO                                          20500
A0801400160311553780001COSTA, HENRY CERDENIA                                    0503
A1101400120000002789833PORMIDA, JAYPEE GO                                       0506
A1101400120000003022373BANTULA, EVELISA                                         0501
A6601400120000001065281ECHALUCE, RAFAEL OR MYRNA                                0503
A6601400120314615888088FRANCISCO, EMMA OR REYNALDO                             10504
A6601400120314615888088OR CO, ESTELITA OR ELSIE                                20500
B0101405650322040854001GRETZ FINANCING CORPORATION                              1601
A0101402060000002259889ROXAS, MA. VERNADETTE HALILI                             0502
B0101402060351022301001TSUCHIYA KOGYO PHILS., INC.                              1601
B0101402060351046908001ORGANITEC LABORATORIES & SYSTEMS, INC.                   1602
A0101402060351211735001GINA Z. VIVO                                             0501
A0101402060351588151001CASAPAO, ELIZABETH ESLIT                                10502
A0101402060351588151001CASAPAO, MANUEL                                         20500
A0201400920000002250102CONJE, CANDELARIA PEPITO                                 0502
A0201400920375478374008OLELA, DONATILLA OMELGO                                  0501
A0201400890000000973439LABRADOR, MIRALUNA EGOS                                  0501
A0201401020377085340001MAGALSO, LESLY COMISO                                    0501
A0101402770391470637001LUCILA FELIZARDO LACANIENTA                              0501
A0101408400000003515120CASTILLO, ROCHELLE BONITA MARQU                          0501
A0101408400394027889001TINA S. BERIN FLOWER SHOP                                0505
A0101408400394028886002DEC ORIENTAL FOOD STREET CO. LT                          0503
A0101408400394587038001OBILLO, SARA ANGELES                                     0501
A0101409210000005629912YSON, TRICIA MAY LOTHO                                   0501
B0301400820000003148489DELIVA, RODEL JOR                                        1601
B0301400820000001554792VIC IMPERIAL APPLIANCE CORP.                             1601
A2401400180000000554927GILLESANIA, RONALD SUNER                                 0501
A2401400180411290049001EDGAR C. FAUNI                                           0504
A2401400180411472836003OMEGA, LEE ANN GENILO                                    0502
A2401400180411478374059ANALITA R. SUICO                                         0501
A2401400180411478374061JUNRES AGAD OR                                          10501
A2401400180411478374061NORMELITA BLANCO                                        20500
A2401400180411666777088DE MESA, FRANCISCA GUBUAT -                             10504
A2401400180411666777088NICESIAN STORE                                          20500
A0101412890000004345146ORTIZ, ANGELO ENCISO                                     0502
A0101412890000004345157OLLADAS, WIEN FELIPE GOTOYCO                             0501
A0101403320000001803407PATERNO, MICHELLE FERNANDO                               0501
A0101403320471400801001MARILEN I. CRUZ                                         10503
A0101403320471400801001OR DENNIS MICHAEL                                       20500
A0501400170000001072753LEYVA, DONNA MAE MALLARI                                 0501
B0501400170000000018373PROGRESSIVE GRAINS MILLING CORPORATION                   1605
A1901400160491343996001MARIA DOROTHY M HERNANDEZ                                0502
B0101407430000004491754OPTIMUS FREIGHT FORWARDING INC.                          1604
B0101407430503509183002RICKNETH DISTRIBUTION, INC.                              1602
B0101406880000000027250BDA MARKETFORCE, INC.                                    1602
A0101411790518055764195LEI, ROLAND ALLAN E.                                     0501
B010141179051805692200188 INFINITY LENDING POOL INC                             1601
B0101403450521029025001**********                                               1602
B0101403450521238087001**********                                               1610
A0101403610531662330001BERROYA, MARK LESTER AMOR  OR                           10502
A0101403610531662330001BERROYA, CONNIE MORADA                                  20500
B0101404000000000460991DAVID'S SALON INC.                                       1601
B0101404130000000696124CENTURY PROPERTIES MANAGEMENT, INC.                      1602
A0101407720602162363001JOHNNY B. SINON, M.D. OR                                10505
A0101407720602162363001VIRGINIA J. SINON                                       20500
B0101411530000000581500EMILY MARIANO OR KRISTINE ABDON OR                      11602
B0101411530000000581500KATRINA TORRES                                          21600
A0101413440000000570223LABSAN, CARMEN DELA CRUZ                                 0501
B0101413440655821100608**********                                               2003
A0101414120000001642633JOVENAL, ALMA GONZALES                                   0501
A0101406590662679888002*****                                                    0502
A0101410300000002375904TRISTAN PAUL C. TAGLE OR                                10501
A0101410300000002375904KRISTINE N. TAGLE                                       20500
A0101410300663737649001ERLINDA G SANTOS                                         0501
A1301400500000002063792ANTONIO, ALBERT SILVA                                    0501
B2801400230000000372781GR888T C CORPORATION (CHOAS)                             1601
B2801400230000001580285GR888T C CORPORATION - (YBC                              1601
A4101400260000000469329FALCUTILA, MARISSA RAMOS                                 0502
A4101400260812478374062SUNNY G. CAPORADO                                        0501
A4101400390813333041001MARIO C. GENUINO,JR.                                     0501
A4101400550000003839269CASUGA, MILDRED RULLAMAS                                 0502
A4101400550000001332632********                                                 0505
A4101400550815478374001ONAYAN, CAROLINA BAUTISTA                                0501
A0101412340000000031136VILLACORTE, BIENVENIDO L. OR                            10501
A0101412340000000031136VILLACORTE, ADELINA C.                                  20500
A0101412340000002266862MARCELO, ARNOLD PABUSTAN                                 0505
A0101412340000003341795AARON PAUL L. CASTILLO                                   0501
A0101412340000003718901CRISTEL ROSE G. CANILLO                                  0501
A0101412340000003719306DECEREN S. MAYORDO                                       0501
A0101404840851478374165MERLITA C. SANTILLAN                                     0501
B0101406750000000090997PAPERS & PIGMENTS PRINTING PRESS CO                      1603
B0101406750852059304001JACET PROPERTY MANAGEMENT CORP.                          1601
A0101405070000003439672GOMEZ, ALFREDO YUMUL OR                                 10502
A0101405070000003439672GOMEZ, PAUL AMATOSA                                     20500
B0101417260001301030586**********                                               2102
