A0101401250000000020424BALIAO, JOVITA LINGGON                                   0505
A0101413440000000038140RAMIREZ LAW & CONSULTING FIRM                            0502
A4101400420000000120696CARMELA G. ROMA                                          0501
A0101402510000000200153LPR GRAPHIC DESIGNS                                      0502
A0101405490000000355593EMILY C. PALLON                                          0501
A0601400520000000398465MERCADO, ELIZABETH CAPATI                                0501
A0101405650000000525853IMELDA B. VILLALON                                       0501
A0101406590000000568981BARBARA, GLENN BORLAGDAN                                 0501
A0101404680000000767120LOCAR B. DESALES                                         0502
A0101404420000000866542ROQUE, AURORA CALINGAL                                   0501
A4101400260000000974089BONGLO, JAIMIE LOUISE MIGUEL                             0501
A0101407430000001028831LAMBERTO C. AQUINO                                       0502
A0501400170000001072731ABCEDE, JORRECA DE PERIO                                 0502
A0101410140000001074908MEMBERS OF NATASHA (SHOECAT INC                          0501
A0101402350000001474335GARCIA, ROSALIE NEPTUNO                                  0501
A0101402770000001571120TANG, SHU WING                                           0501
A0101403320000001646868MANONG CHRIS TAPSILOGAN                                  0501
A0101404260000001725202TIO, MARY CLAIRE DUMAYO                                  0501
A4101400390000001732736CLAVERIA III, DON VIVENCIO G                             0501
A0901400220000001805049**********                                               0502
A0901400220000001805049**********                                               0502
A1901400290000001975255JIAO, AGNES TUBILLEJA                                    0502
A0101409920000002260533DESIDERIO, ROBERTO CAVESTANI                             0502
A0101411950000002266031MERLYN A. CORTES                                         0502
A0301400660000002348483BANGAYAN, EDWARD LAWRENCE UY                             0501
A0301400660000002348552MANILA, KEDDALEN MAE ARFAPO                              0502
A0101407140000002631836**********                                               0503
A0101401700000003257550PUA, RAYMOND P.                                          0502
A0101405070000003266362JAN, HARRY NUBLA                                         0501
A0101404840000003409921OCAMPO, MARICRIS BERMUDEZ                                0501
A1901400290000003476602WONG, CHE WAI BALBUENA                                   0501
A0101408400000003515062LEVY, ALBERT AASEKJAER                                   0501
A0101410560000003562003JUNTILLA, HENRY RENDORA                                  0502
A4101400420000003715520CHIONG, ANNIE M                                          0501
A0101400860011350677001**********                                               0501
A0101400860011392490001**********                                               0503
A0101400860011478374003**********                                               0502
A0101400860011478374007**********                                               0501
A0101400730111203514001JOSEPHINE M. BILLONES                                    0502
A0101400730111386485175IVANHOE O. MARASIGAN                                     0502
A0101401960121031303001FJ'S LUCKY HARDWARE                                      0502
A0301400530193268995001**********                                               0505
A0101401380201623604001FORONDA, ANALYNN JOY LUZ                                 0501
A0101401380201630387001LAI, ZHIYONG                                             0502
A3101400450223223458004ALVERO, LEAH AURORA TOLENTINO                            0501
A1001400190231039064001SUSAN LO OR DENNIS LO                                    0504
A1001400190231283324001GICABAO, BENY CHAN                                       0501
A1901400290261366172001MYLA VIVAS GONZALES                                      0502
A1901400290261493025041DRA REEZA Q MARQUEZ                                      0502
A0101406620273213660001EMILIANA G. MAURICIO                                     0502
A0801400160311794356001GALLOS JR., GLICERIO JOPSON                              0505
A6601400120314618083088PORAQUE, JULIO TAN                                       0502
A0101402480331010038001**********                                               0502
A0101402480331056363001VALLEDO, JOJIELYN DBU ENIGMATIC                          0501
A0101402480331354947001*****                                                    0502
A0101402060351403683001KIM, KANG JI                                             0501
A0101402640361170527002AVENIDA, MA LANI SALAZAR                                 0501
A0101402770391187974003DARWIN DEE PONA                                          0501
A0101402770391636749001ARMANDO RESURRECCION CRUZ                                0503
A5501400120410619088001ILAO, MAE CASTILLO                                       0501
A5501400120410675739001BAYLON, EDWIN ELLON                                      0501
A2401400180411478374039ABRENICA, COSMECIA L.                                    0501
A0901400220432368117001**********                                               0502
A0101403320471356429001NOLY T CAYABYAB                                          0501
A0101403320471638012002CRUZ JR., NARCISO AARON BENAMER                          0505
A0101406330472356527001ROBERT ANG OR BELLY ANG                                  0502
A1401400110492367614001DE MESA, CECILDA LAGAR JT                                0502
A0101403580511666605001ADA, JOCELYN ELVINIA                                     0501
A0101406880513565178001ROMA, ANDRONICA TAPIA                                    0505
A0101411790518055764037REYDEL ASTORGA                                           0501
A0101403450521238140002**********                                               0502
A0101403450521239921090**********                                               0502
A0101404130601506280001BAYSIC, EDEN AUSTRIA                                     0502
A0101407720602302987001RAMOS, CLAVER PORCIUNCULA                                0502
A0101407720602340512009GENOVEVA C. BALLADA                                      0501
A0101404260611478374076NEREZA P RULL                                            0502
A0101404260611478374088MARIFE BARACENA                                          0501
A0101404420631158414003*****                                                    0501
A0101404680651525001021JULIETA G. LIAD                                          0501
A0101404680651525001025MARITES P. FAMORCAN                                      0501
A0101404680651559569001NORBERTO O. VALDISIMO                                    0501
A0101406590662209239001ANNIE LOU OR EDGARDO CRUZ                                0502
A0101407560686173563003CORAZON P. QUEROL                                        0501
A4101400260812478374078DATU, CARMEN                                             0501
A4101400390813046444001ARMESTO, MARIA VICTORIA DBU MAE                          0501
A4101400420814362781001ECOFILTERS ENTERPRISES                                   0502
A4101400420814478374167SAN AGUSTIN, EDITHA L.                                   0501
A0101404840851298552055MELBA C. ENGBINO                                         0502
A0101404840851478374086EDITHA ALOJADO                                           0501
A0101404840851520766075THELMA F. DURAN                                          0501
A0101406750852380584002TUMBOKON, LEAH RABE                                      0501
A0101405070861380698001REYES SR., RENATO SISCAR                                 0501
A0201401020000000056404DEJITO, DBU PAJO BUILDERS &                             10501
A0101406750000000173033TORRES, NOEL DBU FRANZBUILT                             10501
A0101406330000000451216MARIBEL P. ZAFE OR                                      10502
A0101403320000001803190HILARIO, MICHAEL OR HILARIO                             10501
A1901400290000002337704EVARISTO TAN DY OR EVANGELINA                           10503
A0101405490000002880551MARIE GRACE BUITRE DBU CEDAR                            10502
A0101406040112733226001FRANCISCO DAVID OR                                      10502
A1901400290261244456001LEO YAP ONG OR                                          10505
A0101406620273444658001GINA L. JULIANO OR                                      10502
A0101400570281347185001CATALINA P. BARON OR                                    10502
A2001400290315644867001SY, BENSON GO                                           10502
A0101402060351549135001SOLER, JOSE ANTONIO ANDAYA OR                           10510
A0101403580511150629008MIRIAM HIPOLITO OR RAMONA PENA                          10501
A0101404130601450390001VALDES, PAUL DENNIS OR                                  10506
A0101404680651172379001ANGIE EDA O. TAN OR                                     10502
A1301400340683282868001DR. JUAN FRANCO TORDESILLAS OR                          10502
A0101407560686317153002POLICARPIO, BARBARA OR                                  10501
A0101408240711469368001CAGANDA, ANTERO JOSE MADARA                             10501
A4101400420814635620001CORPUZ, ELMER AGSALDA  OR                               10501
A0201401020000000056404GENERAL SERVICES                                        20500
A0101406750000000173033CONSTRUCTION                                            20500
A0101406330000000451216NOEL B. ZAFE                                            20500
A0101403320000001803190ANNA MARIA GWENDOLYN                                    20500
A1901400290000002337704MACALINAO DY                                            20500
A0101405490000002880551TREE CONS. SUPPLY                                       20500
A0101406040112733226001DELIA ADOLFO                                            20500
A1901400290261244456001MEI MEI YULO ONG                                        20500
A0101406620273444658001NOLY P. JULIANO                                         20500
A0101400570281347185001MA. JOSEFINA SAW                                        20500
A2001400290315644867001SY, MARGIE TERES                                        20500
A0101402060351549135001SOLER, MARIA ASU                                        20500
A0101403580511150629008OR GERALDINE LIMOSNERO                                  20500
A0101404130601450390001VALDES, MA. THERESA                                     20500
A0101404680651172379001WOODY TAN                                               20500
A1301400340683282868001DR. ROWENA TORDE                                        20500
A0101407560686317153002POLICARPIO, FERNANDO                                    20500
A0101408240711469368001OR JEANZIE LEE                                          20500
A4101400420814635620001CORPUZ, AMELITA                                         20500
B0101404000000000025549QUIAMBAO, L DBU LPQUIAMBAO ENTERPRISE                    1601
B0101406750000000090986GODYO POULTRY FARMS INC.                                 1603
B0101403580000000214673MEC - SHANATA                                            1610
B01014040000000004610497THMEDIA DIGITAL STUDIOS INC.                            1601
B0101404680000000697929REIAL FOOD CHOICES, INC.                                 1601
B4101400420000000712069EMI EMPLOYEES DEVELOPMENT COOPERATIVE                    1601
B0101405650000000772721PREMIERE COMMUNITY PARTNERS, INC.                        1605
B0101405940000000886682SEWELLS GROUP PHILIPPINES, INC.                          1602
B0601400360000000978936THE MEDICAL CITY CLARK, INC.                             1610
B0101412180000001293107TRIPROPERTIES CORPORATION                                1602
B0201400890000002027936DJD ENGINEERING                                          1603
B0101403450000002975644NEWEST INSURANCE AGENCY, INC.                            1602
B0101406040112016218001JEBSENS MARITIME, INC.                                   1605
B0101412630132047704001THE PROPERTY FORUM PHILS. INC.                           1602
B0101401830141045610001INTERZONAL COURIER SERVICE                               1601
B0101401830141259521001JIMMY N. YANG (SONLY PRINTING PRESS)                     1601
B0101407140213037777001**********                                               1603
B3101400450223668355001LUGAW QUEEN FOOD CORPORATION                             1601
B0101406620273045167001DCA AND PARTNERS, CPAS                                   1601
B0101405650322033184002ASIA PLUS CORPORATION                                    1605
B0101405650322033249001PEAK PROPERTIES INC.                                     1605
B0101402480331010228001******                                                   1601
B0101402480331291905001**********                                               1602
B0201400760374272956001YU, DESSUM LIM OR YU, EMMA LAU                           1601
B0101402770391031763001SIGMA PACKAGING CORPORATION                              1601
B2401400180411033214001RD CASH PADALA, INC.                                     1601
B0101403580511005202001151 CONDOMINIUM CORPORATION                              1602
B0101406880513036413001VISAYA KNOWLEDGE PROCESS OUTSOURCING                     1604
B0101407720602531007002BAJA MEXICAN CANTINA CORPORATION                         1601
B0101404680651006224004NOVALICHES DEVELOPMENT COOPERATIVE                       1602
B0101410300663044473001******                                                   1603
B1301400210682012687001DJ PARADISE RESORT, INC.                                 1605
B0101404680000000095652ANIMAL GENETICS IMPROVEMENT & AGRI                      11610
B0101401090000000772463DELOS SANTOS, EUGENE & SAY, ANTHONY &                   11601
B0301400820000001185779DUGASAN, BENJAMIN E. OR DUGASAN, ERLINDA                11602
B0101401830141032221001CARITAS ET LABORA HUMAN RESOURCE SERVICE                11610
B0101401090171007908001PERPETUAL SUCCOR HOSPITAL &                             11605
B2401400180411055962001BROKENSHIRE COLLEGE SOCSKSARGEN,                        11610
B1401400110492365609001JEORGE S MALIGAT - PILIPINO HARDWARE AND                11601
B0101408110515014870001PARAMOUNT LIFE & GENERAL INSURANCE                      11610
B0101404420631702579001ROSITA B. SAMONTE OR                                    11601
B0101404680000000095652RESOURCES INC.                                          21600
B0101401090000000772463NICOLAS, MARSHA                                         21600
B0301400820000001185779D.                                                      21600
B0101401830141032221001COOP.                                                   21600
B0101401090171007908001MATERNITY, INC.                                         21600
B2401400180411055962001INC.                                                    21600
B1401400110492365609001CONST. SUPPLY                                           21600
B0101408110515014870001CORPORATION                                             21600
B0101404420631702579001RENATO J. TAYAM                                         21600
