B1401400110492821100608**********                                               2003
A1101400120000009119637GLOBA, ROSALIA ABRAHAM                                   0502
A0101408400394424700001QUILAY, EVELINDA QUEBEC                                  0501
A0101400860011388535002*********                                                0502
B0101400860011463583001**********                                               1602
A0101400860011611945002**********                                               0501
A0101400150000015593976ANDAL, ALLAN DE VERA                                     0501
A0101400150000018964380SY, NICOLETTE KARILYN TAN                                0501
B0101400150061021085001SEAOIL PHILIPPINES, INC.                                 1610
B0101400150061230978002CHRIST'S GOSPEL FELLOWSHIP                               1601
A0101400150061326957001JAVIER, MA. THERESA U.                                   0502
A0101400150061412381001VILLARUZ, MA. CORAZON A. OR                             10501
A0101400150061412381001VILLARUZ, JOSEPH                                        20500
A0101405810000014656949GO, JORSEN HERRICK LALLAVE                               0501
A0101410850000009082742CARITATIVO, JUAN PAULO RAZON                             0501
A0101410560000005280462ROSE MARY S. RAPADAS                                     0502
B0101401960000005988790**********                                               1601
B0101401960121238699002SO, PONCIANO CHUA                JT                      1601
A0101413310000005433523MILCAH G. CRESPO OR REZ GERARD                          10502
A0101413310000005433523V. DELA FUENTE                                          20500
A0101400440000010744661KATIPUNAN, ANDRIAN RAMOS                                 0502
B0101400440000009450255MANZANO, MAEDEN MAWIE BERSAMIRA DBU                      1601
A0101400440161187728002MIGUEL P. DE LEON                                        0505
A0101401090171029816001RB TECHNO-POWER ENTERPRISES                              0504
A0101401090000000210306CUVIN, PURIFICACION BORBE DBU P                          0503
A0101401090000007525637GIL Y. GAMILLA OR MA. CORAZON                           10506
A0101401090000007525637ZAIDA N. GAMILLA                                        20500
B0301400660000006755173**********                                               1601
A0301400790000000436008MANALILI, ANNABELLE LEONOR                               0502
B0301400790000000040768********                                                 1602
B0301400790000000040780*********                                                1601
A0301400950000014676185SIA, IVY PINGOL DBU RIKK'S                              10502
A0301400950000014676185SNACK FOOD                                              20500
B0101410720653035012001GENERIC SAVES DRUGSTORE                                  1604
A0101410720653173243001ARLENE MAE LIM OR DOLORES LIM                            0501
A0101410720653173243001ARLENE MAE LIM OR DOLORES LIM                            0501
A0101410720653565189001VICTO, BERNARD KING QUIJANO                              0503
A0101413600000005794643EFREN A. BALINAS DBU FREDEME                            10502
A0101413600000005794643GENERAL MERCHANDISE                                     20500
A3101400870000014724228VERACRUZ, SHIERYL ENTENA                                 0501
A1001400190231520766033BARICUATRO, JESA LABADAN                                 0501
B1001400350233076793001BINHI MICROENTERPRISE DEVELOPMENT                       11605
B1001400350233076793001FOUNDATION INC.                                         21600
A1001400480000016857291GACASAN, VENUS ANONUEVO                                  0501
A1301400470000013690092EFREIM LOUIE S. ILANO                                    0502
A1301400470000000009925EVANGELINE R. SALVADOR                                   0501
A1901400290000002926685MARIA DIVINA AMADOR DUQUE                                0502
A1901400290000003435670LILYBETH HERNANDEZ VALDESANCHO                           0501
B1901400290261027293007LIPA MEDICS INC.                                         1601
A0101401670271039999001INFINITY INSURANCE SERVICES                              0502
A0101401670271332821001BENJAMIN A.I. ESPIRITU OR                               10501
A0101401670271332821001MARIVIC P. ESPIR                                        20500
B0101406460272020749001EASTGATE COMPUTER CORPORATION                            1601
A0101406620000001686655JATAP, JESUS JOHN UY                                     0502
A0101406620000010983152GHORBEL, FATHIMA DORADO                                  0505
A0101406620273489416001TANCHULING, PATRICIA IRIS OR                            10502
A0101406620273489416001TANCHULING, VINCENT                                     20500
A0101411820000002328430CHARMIE CLARE TEMPROSA-GUZMAN                           10502
A0101411820000002328430OR CARL STEPHEN                                         20500
A2601400270000012149967BALIGOD, ARLENE ROQUE                                    0501
A0801400160000016201180CAUTIVAR, JOBERT SENO DBU MOANA                          0502
A1101400120000003595911TUMAMBING, MARLON AGUIRRE                                0502
A1101400120000009119626TOMANDA, ANABELLA NECESARIO DBU                         10502
A1101400120000009119626ANT ENTERPRISES                                         20500
A6601400120314612845001LOMAGDONG, PETER OR TANG, PATRI                         10503
A6601400120314612845001LOMAGDONG, JOYCE                                        20500
A6601400120314612845001LOMAGDONG, PETER OR TANG, PATRI                         10503
A6601400120314612845001LOMAGDONG, JOYCE                                        20500
A6601400120314612973001CABILI,MANUEL MELFORD OR MANUEL                         10503
A6601400120314612973001OR TERESITA OR Z                                        20500
A3401400280000001723531PAJUTINING, JANICE GIGAN                                 0501
A0101402350000000443172TAN JR., PATERNO GOMEZ                                   0501
A0101402350000003880433DUMAYAG, ANGELO BACANI OR                               10505
A0101402350000003880433TAN JR., PATERNO                                        20500
A0101402350000017811202BECK, ANALISA GARCIA                                     0502
A0101402350321772013001NELLY A. MARQUEZ                                         0501
A0101405650322294619001VESES, LILIA HERNANDEZ                                   0506
A0101405650322294619002VESES, LILIA HERNANDEZ OR                               10506
A0101405650322294619002VESES, ANTONIO M                                        20500
A0101402510341331222002ERLINDA C. RECOCO                                        0501
A0101409050000006986636HENSLEY, ADAM BROWNLOW                                   0502
B0101409050000013167841CUERPO, CELERINO AND HERNANDEZ JR,                      11601
B0101409050000013167841RICARDO AND                                             21600
A0201400760000018278374MIRHAN, JIMMY CLAVEL                                     0502
B0201400760374032173001MARIANO & SONS MARKETING, INC.                           1603
B0201400760000000033310SAM SOWAH SHIPPING CORPORATION                           1602
A0101415350000015170653BONIFACIO, RODEL MAGBIRO                                 0503
A0101408400000005286535MACASAET, MAY MARASIGAN                                  0501
A0101408400000016753403PADUA, JOCELYN SALIPIO                                   0502
A0101408950000011077820*****                                                    0501
A0101409180000001237343CAMPA, CARLOS NIETO                                      0502
A0301400820000007135060ROSALITA, JEFF MARK LAMPAGO DBU                         10502
A0301400820000007135060JMR ENTERPRISES                                         20500
B5501400120000005492413SURALLAH PENVIL FAMILY COMMERCIAL INC.                   1605
A2401400180000018971783F AND A PAINT CENTER                                     0501
A2401400180000007031790********                                                 0502
A1201400150000016104271AGSALUD, MARVYLINE MEDENILLA                             0502
B1201400150000000034379GOSHEN LAND CAPITAL INC.                                 1610
B1201400150000005357893THERMMS CONSTRUCTION AND DEVELOPMENT                    11610
B1201400150000005357893CORPORATION                                             21600
A5101400100000018915274MANGUIRAN, CECILIA VILLARUZ                              0501
A5101400100000018914782AHIWE, ROCHELLE JOY BELONIO DBU                          0501
A5101400100000010834023AYOBONG, FELIX MONTANO DBU FMA                           0501
B1901400160491012586001BSU CONSUMERS COOPERATIVE                                1602
B1901400160491012587001BSU CREDIT COOPERATIVE                                   1602
A1401400110000004891061BARRETTO, CORAZON JARDIN                                 0501
B1401400110492821200608**********                                               2001
A0701400260000018976171ABILAY, ANA MAE DBU ANA MAE T.                          10501
A0701400260000018976171ACOBA DENTAL CLINIC                                     20500
B0101407430000008901315ROMINE LASERJET TONER CORPORATION                        1601
A0101407430000006027921DHALYN M. ESTRELLA DBU                                  10501
A0101407430000006027921HYPER CLEAN TRAD                                        20500
B0101407430000011167489CAYANAN II, RICARDO H. DBU RICARDO                       1601
A0101407430000002298315EXCEL A. GRESOS                                          0501
A0101403580000018972300BERNARDO, NIDA DE LEON                                   0501
A0101403580000018972424BOYLES, PEDRO TEMPLA                                     0501
A0101403580000018972515CHOI, CARL LAWRENCE SAY                                  0501
A0101403580000018972593CHU, EMELITA DELA ROSA                                   0501
A0101403580000018972680CRUZ, CHERRY ANN REYES                                   0501
A0101403580000018972720CURA, LEONISA VILLANUEVA                                 0501
A0101403580000018972782DE DIOS, CYNTHIA HILARIA GONZAL                          0501
A0101403580000018972811DELOS REYES, NATHANIEL PANCELES                          0501
A0101403580000018972862DIONISIO, TOBIAS PINGOL                                  0501
A0101403580000018972931GERONGAY, REYNOLD YBANEZ                                 0501
A0101403580000018972964HOLGANZA, RIZALINO RHETT QUIJAN                          0501
A0101403580000018973012MADRIGAL, PHILIP SIA                                     0501
A0101403580000018973052MALIG, GERARDO VILLARINA                                 0501
A0101403580000018973096MARTIREZ, GEORGE JALANDONI                               0501
A0101403580000018973121MARTIREZ, MICHAEL GERARD NANADI                          0501
A0101403580000018973187PAMPOLINA III, GERMAN JEREMY EN                          0501
A0101403580000018973212PAREDES, DENNIS IBAY                                     0501
A0101403580000018973245RATA, JOHN WALVINE CUMPAS                                0501
A0101403580000018973267REGNIM, ANASTACIA CATAAG                                 0501
A0101403580000018973290REYES, MARISSA ENRIQUEZ                                  0501
A0101403580000018973325SAN JOSE, LARRY TADEO                                    0501
A0101403580000018973369SIAPNO, ANNA LIZA MARTIREZ                               0501
A0101403580000018973392SINGSON, MARTHA CECILIA MEDINA                           0501
A0101403580000018973427SIRUG, REDENTOR SECUNDO                                  0501
A0101403580000018973449SIY, JERRISON ERIC GAPUZ                                 0501
A0101403580000018973483TUMALI, ERILENE NOCHE                                    0501
B0101411400000006560892THOMPSON, CELINA DE PEDRO DBU DENTAGEM                  11602
B0101411400000006560892DENTAL CLINICS                                          21600
A0101412050000017094936TORCULAS, JASMIN SANTOS                                  0501
A0101403450521238657001**********                                               0502
A0101404130000009533382PANTIG, MARY GRACE GARCIA                                0501
A0101404130000016161107MORALES, EDSEL SALANG                                    0502
B0101404130601100161011PRUDENTIAL CUSTOMS BROKERAGE                            11601
B0101404130601100161011SERVICES, INC.                                          21600
B0101404130000012210501I.PRUDENTIAL SHIPPING AGENCY SERVIC                      1602
A0101407720000006028451BAUTISTA, WILMER JOHN D or                              10503
A0101407720000006028451BAUTISTA, MARIA EMMA FRAN                               20500
B0101407720602016446001INFORMATICS COLLEGE EASTWOOD, INC.                       1602
A0101407720000000245203*********                                                0501
A0101407720602398542002DR. ROBERT DENNIS J. GARCIA                              0502
A0101412180000000037910DIONISIO, JOEKINS TIU                                    0501
A0101412180000010719576SAYAS, MARY ROSE GAPUZ                                   0502
B0101404260000004781266RD PAWNSHOP, INCORPORATED                                1604
A0101404260611478374084JEAN GONGOB                                              0501
A0101409890000000437405REYES, MICHAEL CONCEPCION                                0502
A0101409920000000998605ECHEVARRIA, DBU JOHN CARL                               10501
A0101409920000000998605ENTERPRISES                                             20500
A0101409920000010528708SUSANA A. LOPEZ                                          0501
B0101413440000002691581DON TINO REALTY AND DEVELOPMENT CORP.                    1602
B0101413570000018975890CUALES, MARK FRANCIS DBU M.F.R CUALES                   11601
B0101413570000018975890CONSTRUCTION SUP                                        21600
A0101413570000001069443**************                                           0501
B0101406590662749087001LOPEZ JR., OSCAR B. OR                                  11601
B0101406590662749087001LOPEZ, GLADICE C                                        21600
B1301400210000008174174SOTO, DEVORAH MENDOZA DBU KIERA SPR                      1601
A1301400340000015886870GUECO, EMMANUEL DULU                                     0501
A1301400500000018972133FRANCIS JONATHAN V. SUMAYAO                              0501
A1301400500000015587292MARY JANE SIOJO ENTERPRISES                              0503
A1701400230000012227393CASTILLO, REUBEN RUIZ                                    0501
A1701400230000014313883GALANO, JHOAN TUBON OR GALANO,                          10502
A1701400230000014313883JAMES LABUCAY                                           20500
A0101408240000011487182WINTER, IAN ROBERT                                       0502
A0101408240000015858874PASAMON, MARK JHON OBOG                                  0501
A4101400260812444997002MARY ANN SAN DIEGO OR                                   10503
A4101400260812444997002ANTONIO SAN DIEG                                        20500
B4101400420814018935001IGLESIA EVANGELICA UNIDA DE CRISTO(ANABU                11602
B4101400420814018935001UNIDA CHURCH)                                           21600
A4101400420000014280241***********                                              0501
B4101400420814573133003MAGNETICA ELECTRONICS, INC.                              1601
B4101400550000006044042URESHI FUDO CORPORATION                                  1603
A4101400550815717038001PITERO, ERWIN BRYAN N.                                  10501
A4101400550815717038001AND PITERO, MARL                                        20500
A0101412340000003340398SHAYNE T. ABIERA                                         0501
A0101404840851424429002MAQUINANA, JOEL MACABUHAY                                0502
A0101405070000014045284MALVAR, ROMUALDO GANIBAN DBU                            10502
A0101405070000014045284R.G. MALVAR CONSTRUCTION                                20500
A0101405070861409490001WU, CHIU HWA                                             0501
A0101413860000000859003RUNEZ JR, SAMUEL RUNES                                   0505
A0101413860000007252399WU, SHEN WEI                                             0502
A0101413860000015679277SINEL III, ANTONIO R.                                    0501
