A0101411530000000013641**********                                               0503
A2001400290000000046273JWAB ENTERPRISES                                         0501
A0101413990000000205898**********                                               0502
A0101401090000000210317EBBA, EDGARDO ESGUERRA                                   0502
A0101408240000000347562SIA, KREI ANNE DE VERA                                   0501
A0101402770000000360945DINULOS, LARRY                                           0501
A4101400260000000377537JASMINE FATIMA WATER STATION                             0505
A2401400180000000428102SAGABAEN, AMALIA COSTALES                                0501
A0301400790000000435909KASER, NELIDA AREVALO                                    0501
A0101401250000000460473DE ASIS, RHEA MARCO                                      0501
A4101400260000000469329FALCUTILA, MARISSA RAMOS                                 0501
A0101404420000000472246GARDOSE, JOSIE F.                                        0501
A0101410140000000498966IBRAHIM, ABDUL FAHD MADID                                0502
A0101400730000000645410ASIS, REDENTOR CONSTANCIO                                0501
A0101410690000000710694TAN, DENNIS LI                                           0501
A0101412630000000909826VILLEGAS, MARISA DUMAGAT                                 0501
A0101404000000001186972MUHARRAM, JESSAH DARANTINAO                              0501
A0101404000000001186994SANTOS, MARIDEL DASMARINAS                               0501
A0101408530000001268413HELENA BAJARDO                                           0501
A3001400130000001271363PALUCA, LIZA MORAL                                       0502
A6601400120000001370503SAYDE, JENNY ANN CAPARIC                                 0501
A0301400530000001409712OCHEA, CHARLYN S.                                        0504
A2201400250000001545557CHERYL ANNE C. SALVADOR                                  0501
A0101402770000001570690PERALTA, JUVY REYES                                      0501
A0101401090000001618753SEVILLENO, MARISA STA. CRUZ                              0501
A0101409180000001694293WHITTING, MENCHIE JAPUZ                                  0501
A0601400520000001706907EVANGELISTA, JHOEMY DIZON                                0501
A3401400280000001723451GONZALES, RANDY PLACIDO                                  0501
A4101400390000001732678DY, DAVE RONELL SY                                       0502
A1101400120000001920521NG, RACHEL CHU OR NG, ANDREW PO                          0501
A0101411950000001925782SANNY O. BALANSAG                                        0502
A0101410560000001943995**********                                               0501
A0101408400000001952707TANDUGON, MARIE CRIS BRIONES                             0502
A3801400170000002302983RENATO L ABALOS                                          0501
A3801400170000002660011VALENTINO D TOLENTINO                                    0505
A0101400150000002671532LORENZO SIXTO T. LICHAUCO                                0501
A0101401700041342964001GENEROSA ANG OR PETER ANG                                0510
A0101401700041360888001ANNEE SAIDA T. ESCLETO                                   0503
A0101401960121338333001************                                             0501
A0101401960121533928001************                                             0510
A0101400440161039572058ERLINDA S. AVERILLA                                      0501
A0101400440161481661001JOMYR C. ARGANOZA I                                      0501
A0101400440161574323001MARISSA P. MAGPAYO                                       0501
A0101407270162424105001ALEXANDER M. VIADO                                       0502
A0101401090171195764001FORTUNATO B. SEVILLA III                                 0501
A0101401090171196285002SISON, LILIAN DE JESUS                                   0502
A0101401090171197427002LEVINA D. ZUNIGA                                         0503
A0301400530193749518088ROBLES, CELEDONIA F.                                     0502
A0101407140213190961001**********                                               0505
A3101400160221220150001PUA, MARCIANO                                            0504
A3001400130230478374029NAGAMURA, SUNANGCAYA B.                                  0501
A3001400130230711844001BLACANO JR., ADOLFO LACORTE                              0501
A1001400190231511493001GALAGNARA, JUVY DAIS                                     0501
A1001400190231520766032BAGARES, JENYFER SATE                                    0501
A1001400190231520766110MAYOR, CARMELITA ANGCAY                                  0501
A0101406460272237293001**********                                               0502
A0101406620273038576001VENTURE 11 FOODS EXCHANGE                                0501
A0101406620273301500002CAESAR A. GUERZON                                        0502
A0101400570281071603001LEGARDA, ROBERTO MORTERA                                 0502
A0501400200292567569001LARILYN D. GATCHALLAN                                    0501
A2601400270302596713001MARY GRACE L. LORENZO                                    0501
A6601400120314043084001SOLID M CONSTRUCTION                                     0504
A3401400280318478374001MARILYN B. BISMANOS                                      0502
A3401400280318478374006LOVERAS, EMCY DEL ROSARIO                                0505
A0101408820333167059002REJUSO, LEVI SALIVIO                                     0503
A0101402510341196519001CABRERA, AMY PUERTOLLANO                                 0501
A0101402510341331222002ERLINDA C. RECOCO                                        0501
A0101402510341382418002PARCO, MA CORAZON BRUNO                                  0501
A0101408370382486917001MA. JENY ROSE B. SOLABO                                  0501
A0101402770391013439001JIREH'S CAR PAINT SHOP                                   0502
A0101402770391213549001RAMON OR MARILOU VILLARETE                               0502
A0101402770391319133001WENDA R. ALMIN                                           0502
A0101412210399094817010PATRICK S. GARCIA                                        0501
A5501400120410787960001TANTERAS, EDWIN MONTEJO                                  0502
A2401400180411343170001RAMOS, EDUARDO UBONGIN                                   0503
A2401400180411606823002MONACILLO, MARICHU SABANDAL                              0501
A1201400150421253726001BADUA, GERARDO SUELLO                                    0501
A1201400150421478374066FLORES, JONATHAN                                         0501
A0101403030441239821001TEDDY T. YAU                                             0501
A0101403030441313818001**********                                               0502
A1401400110492493108001DEQUITO, BERNABE VILLANUEVA                              0502
A0101407430503478374017RIC L. ABADIANO                                          0502
A0101403450521389380001**********                                               0501
A2201400250561028844002CHRISTIAN HOME FURNISHING                                0504
A0101407720602384186003SARMIENTO, JOSIERINA YANEZA                              0502
A0101407720602398542002DR. ROBERT DENNIS J. GARCIA                              0502
A0101404420631478374130SUSANA S. TIANGCO                                        0501
A0101406590662053729001T.S. TRADING                                             0501
A0101408240711180164001TUPAZ, CORAZON RONQUILLO                                 0501
A4101400260812249154001RIZALDY J. ESTOCADO                                      0501
A4101400260812469791001CAROL E. COMIA                                           0501
A4101400390813019225002CUARTOS GLASS & ALUMINUM SUPPLY                          0504
A0101404840851520766124MARGIE A. PEREZ                                          0501
A0101404840851520766126ADELAIDA VILLANUEVA                                      0501
A0101404840851520766194FELIPA O. VILLANUEVA                                     0501
A0101406750852478374085CARMELA REVESENCIO                                       0501
A0101406750852478374095LORENA N TANGPUZ                                         0501
A0101401700000000040217DEL MUNDO, E DBU JPA AUTO PARTS                         10502
A1601400170000000421047JUVY G. VILLANUEVA DBU                                  10501
A1601400170000000421161GEORGIA SOFIA GIMENEZ-LUISTRO                           10505
A1001400480000000606820VARQUEZ, GLADYS LUSTRE OR                               10501
A0101405490000001092740CANAYONG, FERNANDO DBU                                  10501
A0301400950000001379591BARICUATRO, THOMAS JASON DBU                            10503
A3401400280000001723440EDUQUE, JESSIE ECARAN OR EDUQUE                         10501
A1401400110000001806931RIOLA, SIXTO DADIA OR                                   10501
A0601400100081254011001PANLILIO, MARIE CARMEN OR                               10501
A0101400730111195466001DELOS ANGELES, AMADO OR DELOS                           10502
A0101407270162754404001JOSEPHINE SISCAR OR                                     10502
A0301400530193760685002AGUILAR, AGUINALDO V. OR                                10501
A3101400450223088272001ARANGUREN, ROLAND ONTOY                                 10502
A3101400450223442002001GARCIA, ROSALINA OR                                     10502
A3101400450223558112001CRISTINA MADERAZO OR MARIANNE                           10502
A1001400350233528399003KO, JOSE NELSON AND                                     10501
A0101408660274514958002ALVAREZ, CARLOS A. JT                                   10501
A1101400120313717829001UY, WILSON S. OR                                        10510
A0101402510341331222001ERLINDA RECOCO OR JOHN PAUL                             10501
A0101402510341476842001SUSAN I. BALAGTAS OR                                    10501
A0501400170481329536001PERLA C. ROMERO OR                                      10501
A1401400110492377230001BAUTISTA, MA. CHERRY REMOROZA                           10501
A0101407720602697692001SANTOS, GENEVERE SERNA OR                               10501
A1301400500684635536001JOSELYN D SANTOS OR                                     10501
A1701400230693763026001SANCHEZ, REX GUILLERMO  OR                              10501
A0101401700000000040217CENTER                                                  20500
A1601400170000000421047THE BICOL GREENLEAF GRILL                               20500
A1601400170000000421161OR LUISITO B. LUISTRO                                   20500
A1001400480000000606820VARQUEZ JR., FELICISIMO D                               20500
A0101405490000001092740NAGJ SIGNAGES                                           20500
A0301400950000001379591GALACTIC HOME FURNISHING                                20500
A3401400280000001723440RUELYN CAPUNONG                                         20500
A1401400110000001806931RIOLA, MARISSA                                          20500
A0601400100081254011001PANLILIO, AUGUST                                        20500
A0101400730111195466001ANGELES, TRINIDA                                        20500
A0101407270162754404001ALGIN SISCAR                                            20500
A0301400530193760685002AGUILAR, DINA C.                                        20500
A3101400450223088272001OR AGONCILLO JR.                                        20500
A3101400450223442002001JESUSA CORAZON                                          20500
A3101400450223558112001DIMAYUGA OR ENIA                                        20500
A1001400350233528399003KO, CHARMAINE                                           20500
A0101408660274514958002ALVAREZ, JOCELYN C.                                     20500
A1101400120313717829001UY, CHIQUI RUTH                                         20500
A0101402510341331222001ROQUE OR ROLLY BOY ROQUE                                20500
A0101402510341476842001DELFIN G. BALAGTAS                                      20500
A0501400170481329536001BIENVENIDO S ROM                                        20500
A1401400110492377230001OR BAUTISTA, JR.                                        20500
A0101407720602697692001SANTOS, DANILO S                                        20500
A1301400500684635536001EDGAR D VILLAR JR                                       20500
A1701400230693763026001MARLENE                                                 20500
B0101402770000000080613SPRAYED POLYURETHANE FOAM SYSTEM CO                      1604
B1001400480000000133593DELUXE RANCH TRANSPORT CORPORATION                       1603
B5001400170000000169857LINK RI LOGISTICS INC.                                   1602
B0101406620000000194110ICONIC ADVANTAGE INT'L., INC.                            1601
B0101404000000000461038NEWINGTON BUILDERS, INC.                                 1602
B0101411950000000490880********                                                 1601
B0101400150000000633447RNB TRAVEL AND TOURS CORPORATION                         1602
B0101400150000000633481PHILIPPINE TRAVEL AGENCIES ASSOCIATION                   1601
B0101412500000000739748HI-END DATA I.T. SERVICES INC.                           1601
B4101400260000001199048NEW DASMA GOLD BAKE INC.                                 1601
B0101410850000001229709POWERFREIGHT LOGISTICS SERVICES, INC.                    1605
B0101413730000001568367**********************                                   1602
B0101401700041007411001PRESTO MOTOR PARTS                                       1605
B0101400150061021566001SUGAR MASTER PLAN FOUNDATION, INC.                       1602
B0101400150061630413001PANDAN LAND INTERNATIONAL CORPORATI                      1601
B0301400530193589504188********                                                 1601
B0301400530193731049088********                                                 1603
B0101407140213012467001**********                                               1601
B0501400200292036584001SSS EXPRESS CREDIT, INC.                                 1605
B0501400200292036584002SSS EXPRESS CREDIT, INC.                                 1605
B1101400120313037025001RICKY CONCRETE PRODUCTS & AGGREGATE                      1602
B3401400280318047186001CONTRERAS, MICHAEL DBU MILCON BLDRS                      1601
B0101402060351046049001SENCOLINK TECHNOLOGIES INC.                              1601
B0101402770391040524001JTC CRUZ CONSTRUCTION CO., INC.                          1602
B5501400120410043734001ROTARY CLUB OF MARBEL                                    1602
B2401400180411017908001LWC CYCLE MART, INC.                                     1602
B0101403030441011894001REXSSEL AUTO PARTS CENTER                                1601
B1901400160491347054001EMMA MACATANGAY AND MARIO MACATANGAY                     1602
B0101405940512584781001MCSENERGY PHILIPPINES INC.                               1601
B0101403450521012019001TIMCO MANUFACTURING CORPORATION                          1603
B0601400230891021614001QUIOC (D) QUIOC & ASSOCIATE                              1602
B0101410690000000305273RIC POBLETE & SONS AGRICULTURAL                         11603
B3401400280000000784641CAPUNONG, ROMULO DELCANO OR EDUQUE,                     11602
B3401400280000000784652CAPUNONG, ROMULO DELCANO OR EDUQUE,                     11602
B0101403030441631353001ANG CHING HUAN & SONS RESOURCE                          11604
B0101406750852474662001SECURITY MARKETING & PEST MANAGEMENT                    11603
B0101410690000000305273ENTERPRISES,INC.                                        21600
B3401400280000000784641RUELYN CAPUNONG                                         21600
B3401400280000000784652RUELYN CAPUNONG                                         21600
B0101403030441631353001PHIL                                                    21600
B0101406750852474662001INC.                                                    21600
