F1301400470252430385001LEONARDO TING OR ANTONIA TING                            2502CKO
F0101406750000000090515PROSWEAL HEALTHCARE INC.                                 2605CKR
F0101401120131030124003MIGALLOS & LUNA LAW OFFICES                              2602CKR
F0301400820409050364001OKING, MARIE ADELAINE                                   12602CKR
F0101407430503024981001TNT EXPRESS WORLDWIDE                                   12610CKR
F0301400820409050364001DBU  PAULINO HOS                                        22600CKR
F0101407430503024981001(PHILS.), INC                                           22600CKR
