A0101406040000000014677JONATHAN C. BANGAYAN                                     0501
A1001400190000000016413LEDESMA, EDITHA LERA                                     0501
A3801400170000000018904ANGELES M TARIN JR.                                      0503
A0101401380000000026935SARMIENTO, GENE ROUMER VALENCIA                          0501
A0201400890000000027892FORTRESS ELECTRICAL SUPPLY                               0501
A0101413020000000056831****************                                         0501
A0101400440000000060266JOCELYN B. ANDAYA                                        0501
A0101411950000000089861ESPECTACION, TERESITA GERVACIO                           0501
A0101411660000000109311**********                                               0501
A0101413600000000206675AUSTRIA, CECILIA DE GUZMAN                               0501
A0101407560000000477798ISIP JR., JACOB INDEFENSO                                0501
A0601400230000000498608MALONZO, VIOLETA BONDOC                                  0501
A0101407720000000510676DE GUIA, KIRSTEN AVILA                                   0501
A0101401380000000520498OCAMPO, IDA VILLAFANA                                    0502
A0101408790000000579762AGUILAR, MICHAEL CALAMAYAN                               0501
A1101400120000000652631UYVICO, FELINA BORROMEO                                  0502
A0101410690000000711066LIZARES, FELIX MAGALLANES                                0501
A0101402930000000859883VENCIO JR., RONILO ENSO                                  0501
A0101401830000000865141MURILLO, JOSIE FUSTER                                    0501
A0101412050000000890780WONG, YVONNE ENOLA                                       0501
A0101412050000000890893CABALHIN, RENE BRIONES                                   0501
A1001400350000000922014PEARSON, PILARCITA ROA                                   0502
A3101400870000000957666MARASIGAN, JAMES ILAGAN                                  0502
A0601400520000000986592MALONZO, ANNABELLE DELA CRUZ                             0501
A0101407270000000997715MELANIE ACEDILLO                                         0501
A0101409210000001024235SIMPAO, BENJAMIN FELICIANO                               0501
A0601400230000001062504BARLIN, MA CHRISTINA MENDOZA                             0501
A3101400870000001146496BOCAR, GENALYN TRIBDINO                                  0501
A0101412500000001146883CASTANEDA, ELOISA NAVARRO                                0502
A0101412180000001293250MANANSALA, MICHAEL CHASE                                 0501
A0101401380000001412515MATIENZO, ANNE CRUZADO                                   0501
A0101408790000001486211MACARIOLA, MARIA ELENA TURIJA                            0501
A1101400120000001547337ALDIANO, FLORDELUNA LATO                                 0502
A0101402770000001570758MA NEREN CONCEPCION AGUINALDO                            0501
A0101402770000001570816GLORIA VILLAMARIN SANTOS                                 0501
A0101400570000001681847DEE, ANDREW YU                                           0501
A0101408820000001766710ALTIVEROS JR., ERNESTO AGLIBOT                           0501
A1101400120000001920463SAITO GRAPHICS ENTERPRISES                               0501
A1901400290000001926354MERILYN ESTEPA PACITENG                                  0501
A0101406750000002040146CORDERO, MARIE JEANETTE PARAISO                          0501
A2001400290000002385862DURAN, MARK ARGI DE CASTRO                               0501
A0101400150061080044001ALDABA, LOVE ANNE CARMEN ASTETE                          0501
A0101400150061226423001TUNGPALAN, ERLINDA                                       0502
A0101400150061368113001**********                                               0501
A0101400150061514440001SACLAYAN, MYRNA BAUTISTA                                 0501
A0101400600071233615002********                                                 0502
A0601400100081383884001ARCENAS, MA. SHEILA DEMETERIO                            0502
A0601400100081604957001BARREDO, ELIZABETH OMBAO                                 0502
A0101401960121239446001**********                                               0501
A0101400440161039572023JIMMY S. PALISOC                                         0501
A0101400440161039572092JOSEFINA R. JONES                                        0501
A0101400440161478374198EUFRONIA I. BERGONIA                                     0502
A0101407140213289248001LORENZANA, MA. LUISA M.                                  0501
A1001400350233783808001MABAYLAN, MARIPAZ ECHEVERIA                              0501
A1301400470252674097001MARIO A. CABUANG                                         0502
A1901400290261607338001ZALDY BASACA SUHAYON                                     0502
A0101409050352088185001ROLITA Q. GO                                             0501
A0101402930381080348001FERNANDEZ, ESMERALDA CASTRO                              0502
A0101402930381418649001AYON, PETER PLACA                                        0502
A0101408790383657359001CHARMIE CONTAYOSO SOLINAP                                0501
A0101402770391354941001RAYMOND D. VILLANUEVA                                    0503
A0101402770391470637001LUCILA FELIZARDO LACANIENTA                              0501
A0101408400394028886002DEC ORIENTAL FOOD STREET CO. LT                          0502
A0101408400394485507001QUITORIANO, GEORGE OMER DENIS S                          0505
A0101408400394572175001MANALAYSAY, ERICKSON TABLANTE                            0501
A0101408950396501550002ANDREW POBLETE                                           0501
A1201400150421253022001GARCIA, LEONILA LANSANG                                  0501
A0101403030441239391001**********                                               0502
A0101403030441433845001**********                                               0502
A1901400160491343996001MARIA DOROTHY M HERNANDEZ                                0502
A0101403580511403658006EMMANUEL P. BONOAN                                       0510
A0101408530516571877132ERIKA MAITA V. VILLALBA                                  0501
A0101411790518092044001GONZALES, MARIA ZARAH ANGELICA                           0501
A0101403450521029691001**********                                               0501
A0101403450521238905001**********                                               0502
A0101403610531219488001REFORMA, MARILOU                                         0502
A0101403610531441587001DELGADO, YOLANDA GUTIERREZ                               0501
A0101407720602381963001KASILAG, EMMANUEL R.                                     0501
A0101404260611678125001RACPAN, ERMA LOPERA                                      0501
A0101411950680046399001ISLANDGRAFICS ENTERPRISES                                0501
A0101411950680046399001***********                                              0501
A0101411950680090285001MORALES, RITA MENDOZA                                    0501
A1301400210682478374053RUBIROSA C CABUGWASON                                    0502
A1301400340683478374049DONATO, NENITA                                           0502
A1301400340683560929001TAMONDONG, RICARDO MAGTAAN                               0501
A4101400420814520766031GACOSTA, LORENZA N.                                      0502
A4101400420814520766062SALVADOR, MARITES I.                                     0501
A0101404840851478374035MYRNA A. LAGRAN                                          0501
A0601400230891386723002ROMEL OR MA. LORETO CANLAS                               0505
A2201400250000000141153ROSARIO R. DASECO OR                                    10502
A4101400550000000506814DALAGAN, CATALINO B. OR                                 10503
A0601400100000000786701BANAS, CESARLIE AMBASA DBU B &                          10502
A0101400150000000807590BALLESCAS JR., ROGELIO BALDEVIA                         10501
A0101413020000000880495JUMAWAN, SHEILA MATEO OR                                10501
A0101406590000000905533ROMERO, RENATO OR MA. GRACIA OR                         10501
A2601400270000001009170ELIZABETH G. PUA OR                                     10501
A2601400270000001009192RICHELLE ANN P. PIEDAD AND                              10503
A1301400760000001295472WILLIE ONG DBU FUEL ZONE                                10502
A0101401090000001618571MA. LOURDES P. JAVATE OR                                10501
A0101401380000001819770MIRANDA, DEMOCRITO D. OR                                10501
A0101401700041189588001TAN TO, ROSALINA CHUA OR                                10501
A0101400150061456754001ANCHETA, ANGELINO TAGUIBAO                              10502
A0601400100081392014001ELICA, JOVENCIO MERIEL OR                               10502
A0601400100081410730001PUNZALAN, CECILIA C. OR                                 10502
A0101401830141530136001RACELLE MARY B. ABANES OR                               10501
A0101401830141703189001TRIA JR., EXEQUIEL A. OR                                10502
A3101400160221221032002ARMI ANTIA P MATANGUIHAN    OR                          10502
A3101400450223525937001GUNIO, LERICE OR FEDERIZO,                              10501
A0101400570281187247001DR. FRANCISCO PURUGGANAN OR                             10501
A0101405650322172164003AQUINO, CHRISTIAN                                       10501
A0101402510341196514001JAIME LIM OR CHRISTINA LIM OR                           10503
A0101402510341353926001ROLANDO G. GALAO OR                                     10506
A2401400180411683511001AGUINALDO, BARBETTE BALABA OR                           10501
A0101404260611150840001WILLY CHING OR ISIDORA CHING/                           10505
A1301400340683387803001ESGUERRA, DANILO MEDRANO   OR                           10504
A0101404840851298552067EMERENCIANA P. BOMBAY &/OR                              10501
A2201400250000000141153MA. VIVIAN D. MAtIAS                                    20500
A4101400550000000506814DALAGAN, TERESIT                                        20500
A0601400100000000786701Y LAUNDRY SHOP                                          20500
A0101400150000000807590OR MISLANG, CATHERINE                                   20500
A0101413020000000880495JUMAWAN, JODELL                                         20500
A0101406590000000905533ATAYDE, MARGARITA                                       20500
A2601400270000001009170EDDIE C. PUA                                            20500
A2601400270000001009192DIOSA MAY T. TACUSALME                                  20500
A1301400760000001295472GASOLINE STATION                                        20500
A0101401090000001618571MARTIN PETER M. CUNANAN                                 20500
A0101401380000001819770MIRANDA, GOLCONDA G.                                    20500
A0101401700041189588001TAN TO, EDWINA                                          20500
A0101400150061456754001OR ANCHETA, CAND                                        20500
A0601400100081392014001ELICA, LULA LEOD                                        20500
A0601400100081410730001RAMIL M.                                                20500
A0101401830141530136001LUIS FRANCISCO V. LEBRON                                20500
A0101401830141703189001TRIA, RITA VERONICA I.                                  20500
A3101400160221221032002ARIEN C POLINTAN                                        20500
A3101400450223525937001AMPARO                                                  20500
A0101400570281187247001DR. MYRNA PURUGG                                        20500
A0101405650322172164003OR AQUINO, CAROLINE                                     20500
A0101402510341196514001GINA LIM                                                20500
A0101402510341353926001RUE B. GALAO                                            20500
A2401400180411683511001AGUINALDO, ARNOLD                                       20500
A0101404260611150840001GOLDSUN LUMBER                                          20500
A1301400340683387803001ESGUERRA, ANGELITA                                      20500
A0101404840851298552067JEREMY P. BOMBAY                                        20500
B0201400760000000033303SAM SOWAH SHIPPING CORPORATION                           1602
B0201400760000000033310SAM SOWAH SHIPPING CORPORATION                           1602
B1401400110000000034693LUCENA CITY PHARMA CORPORATION                           1602
B1301400760000000050739CQM PETROLEUM GROUP, INC.                                1602
B0101413860000000145286SEA BREEZE LAUNDRY CO. INC.                              1603
B0101407720000000885510PALAFOX ARCHITECTURE GROUP INC.                          1602
B4101400260000001199026**********                                               1602
B0101408530000001275230PHIL-BIKE CONVENTION INC.                                1601
B0101412890000001765426RCCCW CORPORATION                                        1601
B0301400820000002106109POWER ASSET SERVICES CREDIT CORP.                        1602
B0101401250021021605001INSTYLE PHOTOGRAPHY INC.                                 1605
B0101401250021023559001S.B. OLIVEROS PAWNSHOP INC.                              1602
B0101400150061016862001CAGAYAN ELECTRIC POWER & LIGHT CO., INC.                 1603
B0101400150061040157001PAMPANGA SUGAR DEVELOPMENT CO. (PAS                      1606
B0101400150061494758001MACOLYTES INC.                                           1605
B0101400440161007336002EXECUTIVE GENESIS MANPOWER SERVICES INC.                 1605
B0101407270162047861001PHIL. ECOLOGY SYSTEMS CORP.                              1603
B0101401380201040889001YAKITORI DORI RESTAURANT                                 1602
B0101401380201552367001*********                                                1601
B0101407140213631792001ORIGINAL 7 LIME CORPORATION                              1610
B3101400450223365119002VICTOR HUGO ENERGY CORPORATION                           1601
B1301400470252030548001CABANATUAN JAC MARKETING CORPORATION                     1602
B1901400290261027293002LIPA MEDICS INC.                                         1610
B0101406620273028932001VALUE QUEST FINANCE CORPORATION                          1602
B0101402930381016251001THE PACIFIC MEAT COMPANY, INC.                           1602
B0101402930381022284001INVESTORS ASSURANCE CORPORATION                          1601
B0101402930381516506001I-ASIATIC INNOVATIONS PHILS., INC.                       1604
B0101408790383047956001NOVARAD ASIA PACIFIC CORPORATION                         1601
B0101408400394032168001ALQUIROS FOOD CORPORATION                                1603
B0101408400394718230001SEASHELL HOLDINGS, INC.                                  1601
B0101408950396026318001GLOBAL CITY AUTO SALES, INC.                             1603
B2401400180411032703001TOYOTA GENERAL SANTOS INC.                               1610
B2401400180411033214001RD CASH PADALA, INC.                                     1602
B2401400180411276067001GAISANO DADIANGAS, INC.                                  1610
B0101403450521068888001NATION REALTY INC.                                       1610
B0101403610531029120001WHISPERTRAIL SERVICE, INC.                               1602
B1301400210682039698001SEVENTY SEVEN TRAVELLERS INN CORP.                       1605
B0101407560686517949001BLUMOL INC.                                              1610
B2001400290000000020571PHILIPPINE REACHWELL DISTRIBUTION                       11601
B0101400440000000029296DAISY JACOB OR AGNES BALLESTEROS AND                    11603
B0101404680000000095652ANIMAL GENETICS IMPROVEMENT & AGRI                      11610
B1901400290000001363086MARIELLE JOY T ARGONZA AND LOU VINCENT J                11601
B0101401830141744717001DUCUSIN, CHE DBU STUDIO 21 CD PRODN AND                 11601
B0101408790383040950001REDDS CONSTRUCTION & DEVELOPMENT                        11603
B2001400290000000020571CORPORATION                                             21600
B0101400440000000029296JESUS GUANZON                                           21600
B0101404680000000095652RESOURCES INC.                                          21600
B1901400290000001363086RODRIGUEZ                                               21600
B0101401830141744717001CABRAL, CARMINA                                         21600
B0101408790383040950001CORPORATION                                             21600
