A1001400350000000017165MEN DBU A&L MARKETING SOLUTIONS                          0501
A6601400120000000060493ABELA, LEONITA MIJARES                                   0501
A0101411530000000178881BERBANO, JOY ANNE VIDAL                                  0501
A0101413440000000183771AMBAS, ARVEE CALLOS                                      0501
A0101412340000000319497PINEDA, IMELDA PEREZ                                     0502
A0101405650000000348903ESPERANZA F. BAYLON                                      0502
A0101409890000000437449**********                                               0501
A0101401250000000460633MALAYGAY, MARIA FELY SALVINO                             0501
A1601400170000000497423MENCHU R. BUADO                                          0501
A0101404260000000532261GARCIA, AUGEN MILLAN                                     0501
A0101405650000000772947JAVILLONAR, MILAGROS CASTRO                              0501
A0101412470000000853834**********                                               0501
A0101408790000000931117MENDOZA, MARK JOHN FLORES                                0501
A0301400820000001027974MARITESS C. KAMDON                                       0501
A0101413730000001253229************                                             0502
A3001400130000001261169LIM, MICHELLE ZOSA                                       0502
A0101410560000001290911CATUBAY, NICOLAS OCAMPO                                  0501
A0101409210000001294479VELASCO JR., NORMANDO DE VELA                            0501
A0101405650000001377259DAVID, EVITA CAMBE                                       0501
A0301400950000001379546SARABIA, MAY JOY DUCO                                    0501
A0101405940000001534305LAURIO, FLORIEN DOSADO                                   0501
A0101400570000001681881PALANCA, MARIA LOURDES YOLANDA                           0501
A0101404130000001831772DADO, JOHN TUBON                                         0502
A0101408530000001885692ANN KATHERINE R. JAVINIAR                                0501
A0101406750000002040271EVANGELISTA, JOSEFINA MALLARI                            0502
A0101412630000002040573SALAS, JACQUELINE REYES                                  0502
A1301400500000002063992JOSHUA & JAMES CONSTRUCTION                              0502
A0101402640000002069525PADERANGA, IREN RAMO                                     0501
A4101400420000002084419STA ANA, MA CHARINA PASTRANA                             0501
A4101400420000002084551MACAPAGAL, ARVIN JUSTIN TAMONDO                          0501
A0101408240000002331339MARQUEZ, LIZA JOY ENCARNACION                            0501
A0101408950000003171144DORENDEZ, HELEN TALAMPAS                                 0502
A0101412340000003344050LANDICHO, ADRIAN VERGARA                                 0501
A0101402510000003418671CASTILLO JR., JULIO ONIA                                 0501
A0101401250021498847001*****                                                    0502
A0101401700041360888001ANNEE SAIDA T. ESCLETO                                   0503
A0101405810072234684002TAN, RAYMOND                                             0501
A0101405810072319037001**********                                               0501
A0101405810072367320001**********                                               0506
A0101405810072554045001**********                                               0504
A0601400100081251939002ELIZARDO OR WILMA MARTINEZ                               0502
A0601400100081388417001ALONZO, MA.EFIGENIA DEL ROSARIO                          0501
A0101400440161525001103OFELIA B. OLERMO                                         0501
A0101400440161670356001MA. ESTELA CLEOFE                                        0502
A0101401090171451898002LANIWINONA B. DARE                                       0502
A0101400310211295755003*****                                                    0505
A0101400310211537063001********                                                 0502
A3101400450223529066001MORENO, MICHELLE CALALO                                  0503
A3001400130230700871001MUNOZ, BALTAZARA ESCATRON                                0501
A1901400290261244459001MIRIAM S ZAPANTA                                         0503
A1901400290261356002001MARICEL REJANO LUCERO                                    0501
A1901400290261488341075DRA. HELEN BAUTISTA DY                                   0502
A1901400290261493025081MA REINNA R BORCES-SERRANO                               0501
A1901400290261538304001OFELIA HIPOLITO LANDICHO                                 0501
A0101408660274478374012ELSA R. ETCUBANAS                                        0501
A0101408660274648585001* * * * * * * *                                          0501
A0101400570281188813001PALANCA, JOCYLINE AGUDO                                  0502
A01014056503220410060013805 PHARMACY                                            0501
A0101408820333478374048DENNY C. GAVIOLA                                         0502
A0101408820333661523002CAGADOC, ANTONIO PAULA                                   0501
A0201400920375478374015GAYO, LOURDES O.                                         0502
A0201400920375561651001RUIZ, MARIDEL MANINGO                                    0503
A0201400920375792804001OCAMPO, ADELAIDA ESCOTO                                  0502
A0101408950396569875001BERNARDO, MARIA CRISTINA CORNEL                          0505
A2401400180411342705001LETICIA Y. LIM                                           0501
A2401400180411410897002LAO, ZENAIDA QUINO                                       0502
A2401400180411478374059ANALITA R. SUICO                                         0501
A0101403030441337771001**********                                               0501
A1901400160491347259015FE D FAYTAREN                                            0501
A0101407430503529155001JONATHAN M. RAFAEL                                       0502
A0101408530516656163001************                                             0502
A0101403450521238091001**********                                               0501
A0101403610531034542001ESQUIVEL'S GARDEN AND RESORT                             0502
A0101403610531219568002OLIVAREZ, RAUL IMZON                                     0501
A0101403610531219680004RONWHEELS PARTS & ACCESORIES                             0501
A0101403610531321898002ANGELES, ELIZABETH SARANGLAO                             0503
A0101404130601150580001WERLE P. GALANG                                          0501
A0101404130601450865001GINA M. COLLIN                                           0502
A0101404130601488703001EUSTACIO, RONNIE TORRES                                  0501
A0101404260611151662002DETERA JR., AMANDO CAGUIA                                0502
A0101404260611287984002*****                                                    0501
A0101404260611463600001MELDIN CANIMO OR EIZELLE CANIMO                          0503
A0101404260611478374115FE S. BONDOC                                             0501
A0101404420631162801001GERALDINE B. ESTECOMEN                                   0502
A1301400340683511819002DELA CRUZ, NESTOR AGUILERA                               0501
A0101407560686561596002MARILYN Q. ROLDAN                                        0502
A0101408240711427132001SORIANO, AVELINA OR REYNALDO                             0501
A0101408240711478374022PAGLICAWAN JR., RODOLFO                                  0502
A0101408240711667452001LU, MYLEE BAS                                            0501
A4101400420814520766046CUENCA, JULIE B.                                         0501
A0101404840851046725015RODA GRACE DUNGAO                                        0501
A0101404840851520766194FELIPA O. VILLANUEVA                                     0502
A3801400170000000497832RAQUEL D. SALAS OR                                      10504
A0101400310000000851365SUSPER, PRINCESS HAZEL REFUGIA                          10501
A0101413020000000880320TIONGSON, MELCHOR DBU: M-CEE                            10502
A0101400150000001422439IBARRA, MARIA CHRISTINA OR                              10501
A0101409180000001694271LARRAZABAL, MARIA VICTORIA                              10502
A0101409180000002252513ENCABO, CARINA OR ENCABO,                               10502
A0101400440161591337001JENESSEY A. RANCES OR                                   10502
A0101405650322093557001CUEVAS, MA. DONATA NADINE OR                            10502
A0101402510341081001001BALHAG, RAUL ESTOLE OR BALHAG,                          10501
A0101402510341094099001GUIA, KIM SABILLO OR LEAL,                              10502
A0101403320471488976001LIM JR., EMILIO OR EMMA LIM                             10503
A1401400110492047646001ALCANTARA, MARIO DBU JOCALDAR                           10501
A1401400110492427534002BABILONIA, MELCHOR TEJADA OR                            10501
A1401400110492652676001DEZA, VIVIAN P. OR                                      10505
A0101403580511150629008MIRIAM HIPOLITO OR RAMONA PENA                          10501
A0101403610531430756002GERTRUDES A. SALVADOR OR                                10503
A0101404130601310589001ANCKERMANN, CARLOS OR                                   10502
A0101404130601450078001ROBERT B. OCANA OR                                      10502
A0101404130601450094003LORQUEL PASCUAL OR ANNIE                                10501
A0101407720602166527003ALIPIO S. ABAD JR. OR                                   10503
A0101407720602397820001SIBAYAN, SANTIAGO ANTONIO B.                            10501
A0101404420631158423001ELPIDIO SANTOS OR                                       10501
A1301400210682572080001SALOME V CASTILLO OR                                    10502
A4101400420814506413001IBIAS, JOSEPHINE OCAMPO OR                              10501
A0101406750852321956001RODOLFO M. REYES OR                                     10503
A3801400170000000497832ENRIQUE R. SALAS                                        20500
A0101400310000000851365OR VILLARAMA, MA                                        20500
A0101413020000000880320PHARMACY                                                20500
A0101400150000001422439ESTACIO, TERESITA                                       20500
A0101409180000001694271MORENO                                                  20500
A0101409180000002252513JESULITO RAMIR                                          20500
A0101400440161591337001JESSIE O. RANCES                                        20500
A0101405650322093557001CUEVAS, RAFAEL                                          20500
A0101402510341081001001ROSALIE SANTOS                                          20500
A0101402510341094099001MELANIO LAZAGA                                          20500
A0101403320471488976001OR PRISCILLA SY                                         20500
A1401400110492047646001ENTERPRISES                                             20500
A1401400110492427534002BABILONIA, BRIGI                                        20500
A1401400110492652676001DEZA JR., ARSENI                                        20500
A0101403580511150629008OR GERALDINE LIMOSNERO                                  20500
A0101403610531430756002LEONOR A. HADUCA                                        20500
A0101404130601310589001CARMEN ANCKERMAN                                        20500
A0101404130601450078001MARJORIE OCANA                                          20500
A0101404130601450094003PASCUAL                                                 20500
A0101407720602166527003ADORACION ABAD                                          20500
A0101407720602397820001OR SIBAYAN, SUSAN                                       20500
A0101404420631158423001NENITA SANTOS                                           20500
A1301400210682572080001MA SHERINA C ALMEDA                                     20500
A4101400420814506413001IBIAS, SEGISMUND                                        20500
A0101406750852321956001TERESITA S. REYES                                       20500
B0101405810000000016840CHESTERTON INDUSTRIAL CORPORATION                        1602
B0101410300000000191633THE KIDS FOR KIDS INC.                                   1601
B0101406620000000194063LAO-ANG LENDING CORPORATION                              1605
B01014071400000002662998FORM CORP.                                              1601
B0101404260000000550361FELICITAS HAVEN RESORT                                   1601
B0101412470000000949486**********                                               1606
B5501400120000001121742PENDON, NIXONLIE OR PENDON DIVINA                        1603
B0101412470000002086353ISABELA ASIA STAR CORP.                                  1606
B0101400600071232728001**********                                               1605
B0101400440161022597001PHILMAN POWER CENTER INC.                                1612
B0101407270162036459001ULTRATECH PRINTING CORP.                                 1605
B0101401090171035575001MOSS MANILA EVENTS HOUSE INC.                            1605
B0101400310211005640001KUBOTA PHILIPPINES, INC.                                 1605
B0101407140213035967001MAYLAND CONSTRUCTION & ELECTRICAL SUPPLY                 1601
B0101401670271020834002EMSYCLAR, INC.                                           1602
B0101401670271020835002SLTEAS PHOENIX SOLUTIONS, INC.                           1603
B0201400920375034855001SHELLS TREASURES INTERNATIONAL CORP                      1605
B0201400890376034920004CREAM N BAKE CAKES & PASTRIES                            1610
B0201400890376034920005CREAM N BAKE CAKES & PASTRIES                            1605
B0101402770391032924001HARRIS MEMORIAL COLLEGE, INC                             1605
B0101409180397024348001APPLESEED MONTESSORI INCORPORATED                        1601
B1901400160491046052001BANAPRA DEVELOPMENT COOPERATIVE                          1604
B0101403450521011872001**********                                               1601
B0101403450521028158001**********                                               1602
B0101403610531302489001R SQUARE WASTE MANAGEMENT SERVICES                       1602
B2201400250561315113001*******                                                  1601
B0101404130601555406001TALIFUEGO PROPERTIES, INC.                               1601
B0101409890649047416001CHAMPION LIFE CENTRE PHILIPPINES, INC.                   1604
B1301400340683045643001JOURNEY ELITE MOVER'S CORPORATION                        1602
B0101408240711026786001LIQUIGAZ PHILIPPINES CORP.                               1603
B4101400390813036443001JINHOEMB CORPORATION                                     1602
B4101400420814038765001EG&G CONSTRUCTION SUPPLY                                 1602
B4101400550815042993001BAGTEC DRUGSTORE & GENERAL MERCHANDISE                   1601
B1201400150000000034380THE LORD IS MY SHEPHERD CHRISTIAN MINIST                11601
B0101401700041041527001SERVICE SOLUTIONS MULTI-PURPOSE                         11610
B5501400120410044008008FRANCISKOZ MOTORCYCLE PARTS,SRVCS &                     11603
B1201400150421317014001NG, MAN PING SEE OR                                     11601
B1201400150421317014002NG, MAN PING SEE OR                                     11601
B0101410140475045534001J-BREN STAR CORP. DOING BUSINESS UNDER                  11602
B0101404130601028598001CAMBRIDGE CHILDREN'S LEARNING AND                       11610
B1201400150000000034380RIES BAGUIO CITY                                        21600
B0101401700041041527001COOPERATIVE                                             21600
B5501400120410044008008ELEC. SUPPLIES                                          21600
B1201400150421317014001ANG, DHARLENE                                           21600
B1201400150421317014002ANG, DHARLENE                                           21600
B0101410140475045534001THE NAME AND STY                                        21600
B0101404130601028598001DEV'T., INC.                                            21600
B0101400310211821100608**********                                               2002
B0101402930381821100608**********                                               2010
B0101404260611821100608**********                                               2006
B0101409470632821100608**********                                               2001
