F0101414090000007344409EQUILIFE MEDICAL EQUIPMENT                              12601CK1
F0101414090000007344409SUPPLIES & SERVI                                        22600CK1
F0201400180181062744001GRAND FIREFLY MARKETING, INC.                            2601CK1
F0101406880513030331001RESIDENCE INN CORPORATION                                2620CKO
F1301400210682042878001HABITAT TRADING                                          2601CKR
F1301400210682042878002HABITAT TRADING                                          2601CKR
F4101400260812031790001SY ON INC.                                               2610CKO
