B0101408240711821100608**********                                               2010
B0101409210398632476001C3 INTERACTIVE MANILA, INC.                              1604
A0101415350000005085029MAGLENTE, ARLEEN ALBURO                                  0501
B1101400120313036429001PERPETUAL HELP MULTI-PURPOSE COOPERATIVE                 1610
A1101400120000003981317CANETE, ALEXIS JAN DY DBU                               10503
A1101400120000003981317CANETE ENTERPRISE                                       20500
A1101400120000006186581IANZEIL N. SALVATIERRA                                   0501
A0101409210000007762618MACADANGDANG, ALEXANDER KASILAG                          0504
A0301400530000003573368DAGONDON, NINA SORIANO DBU 3EN'                          0502
A1101400120000003197095IBANEZ, JENNY LIND BUENO                                 0502
A0101405940512481887001LEONILA P. ANDAL                                         0501
A0101405940512572851001CANTILLO, ALDWIN CABIGAO                                 0501
B0101400860011236251001**********                                               1601
B0101400860000000030348**********                                               1601
A0101400860011618820001**********                                               0505
A0101400150000000807636TESALONA, MARIA CLAUDETTE CRUZ                           0502
A0101400150000002749660PRIETO JR., ALEJANDRO RAMON RUF                          0502
A0101400150000002902752FISCHER, JANICE TUMAMBING                                0501
B0101400150000001708663MDR MANAGEMENT PARTNERS INC                              1602
A0101400150061684116001MAGRAMO, FREDESWINDA CERDA                               0501
A0101405810072367597002WANG, GUO YANG                                           0502
A0601400520000005943393MANGUERRA, CATHERINE ENRIQUEZ                           10502
A0601400520000005943393OR MANGUERRA, LARA                                      20500
A0101413730000001253150***********                                              0503
A0101413730000002229676***************                                          0501
B0101400730000000002580DALCA CORPORATION                                        1605
B0101412630132058436001SPACE EDSA CORPORATION                                   1602
A0101401830000006269601SANTOS, JAIME ZAPICO                                     0501
A0101401830000001139953ROSEMARIE S. NOJADERA OR                                10501
A0101401830000001139953ISAGANI M. NOJADERA                                     20500
B0101401830141021045001TCTS TRUCKING SERVICES                                   1610
B0101401830141029678001RINA TRANSPORT SERVICES                                  1602
A0101401830141292667003MAGTALAS, GEMMA OR LEE MARVIN                           10505
A0101401830141292667003OR JOHN GEMMO                                           20500
A0101401830141551597001MARIA VEOSELYN B. ESTRELLA OR                           10501
A0101401830141551597001EFREN B. ESTRELLA JR.                                   20500
B7201400170152821100608**********                                               2002
B0101412920000000276700HAPI-DAY COPY KIOSK, INC.                                1601
B0101400440161026806001SUYEN CORPORATION                                        1601
B0101407270000000010180COUNTRY CHATEAU HOTELIERS CORPORATION                    1602
A0101407270162580539001PETER PAUL A. REDOSENDO                                  0501
A0101407270162739083002MICHAEL M. MAYO                                          0501
A0101401090171080484001APOLINARIO, JOSEPH SWIN                                  0501
A0101401380201016338001ELECTRO-R023 ENTERPRISES                                 0501
B0101401380201023821001DAIRO AIRE CORPORATION                                   1603
A0101401380201186475001ORTIZ, ROLANDO REYES                                     0501
A0101401380201508360001SAN JOSE, ROSIE DATO                                     0502
B0101410720000000008722ACELIS SAL OFFSHORE PHILS. INC.                          1601
A0101410720210788809001RAFOLS, CECILIA ANNE LIM                                 0501
A0101412500000002304803BATTUNG, GENEROSO DE POLONIA                             0501
A0101413600000003134512EFREN A. BALINAS                                         0502
A1001400480000000606831VALDEHUEZA, KENT VAN OCERO OR                           10504
A1001400480000000606831OCERO, ALGENE ALEJAN                                    20500
A0101406620000002279718GABALES, FILMAROSA MAURICIO                              0501
B0101406620273045167001VENTURANZA, HOSTALERO AND COMPANY, CPA'S                 1601
B0101406620000003497347BOUNCE.ASIA ONLINE CORPORATION                           1602
A0101411820000002328430CHARMIE CLARE TEMPROSA-GUZMAN                           10502
A0101411820000002328430OR CARL STEPHEN GUZMAN                                  20500
A0101400570281021967001CHANGING DIGITAL IMAGING                                10501
A0101400570281021967001GRAPHIC                                                 20500
A2601400270000002677569DEXTER C. DUMRIQUE                                       0502
A0801400160311380582001CHUA, ANDREW UY OR                                      10501
A0801400160311380582001CHUA, PAMELA G.                                         20500
A1101400120000002254946MEJICA, SORIEL BARDIAGO                                  0502
A1101400120000003981088MORALLOS, ELIZABETH BIANES                               0501
A1101400120000003981102EVARDONE IV, REYNALIS ORGAS                              0501
A0101402510341564483001JULIUS D. CORTEZ                                         0502
A0101402510341722819001PAGUINTO, MELANI BULACAN                                 0501
A0101409050000006986625FERNANDO, MAFE ANGEL                                     0502
B0201400760374044075001ABOMAR EQUIPMENT SALES CORPORATION                       1601
A0201400920375521457001VILLAR, BERNARDO N. OR                                  10502
A0201400920375521457001VILLAR, CARMELA                                         20500
B0201400890376041232001NEW GRANT DISTRIBUTION CORP.                             1604
B0201400890376047100001MANDAUE PRINT SHOP CORPORATION                           1602
B0201401020000002250631********                                                 1602
A0201401020000005491910PALALAY JR., ROQUE RUBI                                  0505
A0201401020000000056437CRUZ, ISAGANI BARBOLINO                                  0501
A0101402930381381233001LEAH LIZETTE M. ESGUERRA                                 0502
A0101408370382490705001DR. TIMOTHY ELBERT R. TAN OR                            10505
A0101408370382490705001DR. GUIA C. TAN                                         20500
A0101408790383758852001GA, NORMAND MACALLOP                                     0502
A0101415350000008010437KALINGKING, GRACITA ISABEL                              10501
A0101415350000008010437VILLARMIA                                               20500
B0101402770391009344001PANASONIC MANUFACTURING PHILIPPINES                     11601
B0101402770391009344001CORPORATION                                             21600
A0101408950000000776507ONE HEALTH MEDICAL CLINIC                                0504
A0101408950396563723001CELLONA, CLARISSA VILLARAMA                              0503
A0101409180000004796778COO, JANE V.                                             0501
A0301400820000003148536ROLDAN, JAY ANN B.                                       0501
B2401400180411033733088ECA RESOURCES, INC.                                      1601
A2401400180411478374059ANALITA R. SUICO                                         0502
A2401400180411564736001CATULPOS, ELMER VILLEGAS OR                             10510
A2401400180411564736001CATULPOS, YELCY YASAY                                   20500
B0101406330472046636001ENERTECH SYSTEMS INDUSTRIES, INC.                        1610
A0101406330472481679001MA. CRISTINA LOPEZ OR                                   10501
A0101406330472481679001ROGELIO LOPEZ                                           20500
A0101406330472780167001AGNES D. CHUA                                            0502
B0101412760000007821801PRIME CUTS SOURCE GENERAL MERCHANDISE                   11603
B0101412760000007821801CORPORATION                                             21600
A1901400160000007425870PULUSAN, LUISITA MALABUYOC                               0501
B0101406880513515077001CLARKZILLA CORPORATION                                   1610
B0101408110000003281478WASHMAN BROS, INC.                                       1601
A0101408530000002980932PAGUYO, JAY LORENZO                                      0503
B0101408530516036896001UNITED GRAPHIC EXPRESSION CORPORATION                    1606
A0101408530516499560001VELASQUEZ, JOSE MARTIN A. OR                            10501
A0101408530516499560001VELASQUEZ, MA. A                                        20500
A0101411790000004808004GOHOC, JOSEF CHIONG                                      0501
B0101404000551005084001ADVANCED MEDIA BROADCASTING SYSTEM INC.                  1610
A0101407720602771217001ESTIPONA, ERLINDA DELA CRUZ                              0502
B0101404260000004781266RD PAWNSHOP, INCORPORATED                                1603
A0101404260000007498233SUNGA, SUSANA MARCELO                                    0505
A0101404260611478374075VIVENCIA HATOL                                           0501
A0101407690000005198012APIGO, PATRICK BALMEO                                    0502
A0101407690652400173001LIM, MARIA CONCHITA GINETE                               0501
B0101407690652537622001CREATIVE DISHES & RECIPES INC.                           1602
A0101407690652599146001BALLARES, CARLO ESPINOSA                                 0501
A0101413570000003379908CABANIG, MYRA MELAYA                                     0501
A0101413990000006278135DIZON, RAOUL S. OR                                      10501
A0101413990000006278135DIZON, WARLENE M.                                       20500
A0101410300000006278533CABARRUS, GEORGE DENNIS KWEK                             0501
A1301400210000005040511CRUZ, JENNIFER LUMBANG                                   0502
A1301400500000000213185ESCOPETE JR., ORLANDO SANTOS                             0502
A1701400230000001786752**                                                       0502
B2801400100712043405001MALAYAN TOWAGE & SALVAGE CORPORATION                    11605
B2801400100712043405001- SUBIC                                                 21600
B4101400260812026622001GREENWOODS HOMEOWNERS ASSOCIATION INC.                   1604
A4101400260812468473002BIANAN, RODNER AYUKIL                                    0501
A4101400260812482906002BARZAGA, MILAGROS TRINIDAD                               0503
A4101400390000000379248TABU, MARIA THERESA NATIVIDAD                            0502
A4101400550000002090893DONAYRE, ROMEO CRISOLOGO PULGO                           0502
A4101400550000000506892PURPLE GRAINS AND                                       10501
A4101400550000000506892GEN. MERCHANDISE                                        20500
A0101404840000005397037BUHAY, ANTONIO RAMON GUERRERO                            0502
B0101404840851009288001CHRIST BAPTIST CHURCH                                    1602
A0101404840851520766165MERLIE S. ELIAS                                          0502
A0101405070861478374054LUZVIMINDA T. PONTANAR                                   0501
A0101405070861478374054LUZVIMINDA T. PONTANAR                                   0501
A0601400230000005185833DUMAN-AG, MERCEDES MANUEL                                0501
A0601400230000005510321**********                                               0502
B0601400230000006045381RD PAWNSHOP, INCORPORATED                                1603
B0601400230000003644853ALL 'BOUT PEOPLE SERVICES & TRADING                      1601
