F0601400360083040826001SG ECO INDUSTRIES INC.                                   2602CKR
F0101403580511033263001TRIDHARMA MARKETING CORPORATION                          2605CKR
F0101403580511042256001HEALTHPLUS DIAGNOSTIC CLINIC                            12605CKR
F0101403580511042256001INC.                                                    22600CKR
F0101404000551005120002QUEST BROADCASTING, INC.                                 2620CKO
F0101415220000002799002QJJ FARM, INC.                                           2610CK1
F0101408240711393859001DR. DEMETRIO R. HADAP                                    2502CKO
F0101406750000000090964COMERCIO DE VARGAS CORP                                  2601CK1
