A0101409890000006812804MACASPAC, SUKHJINDER DBU CENTRA                          0501
A3001400130000001271363PALUCA, LIZA MORAL                                       0502
A5501400120000002019023PINGOY, ALBERT YUSAY                                     0504
A0101400860011086423001**********                                               0503
A0101400860011374752002**********                                               0505
A0101400860011429714003**********                                               0502
A0101401250021179007001OLIVEROS, SYLVIA OR WARREN                              10502
A0101401250021179007001OR SHEILA                                               20500
A0101400150000000253427ARNEL C. CUARESMA                                        0501
A0101400150061226941001ROBERTO L. CO OR                                        10501
A0101400150061226941001DOLORES I. CO                                           20500
A0101400150061315349111********                                                 0501
B0101400150061436247001SEAWOOD RESOURCES INC.                                   1601
A0101400150061540945001REBLE, JESSELLE UY                                       0502
A0101400600071739008001********                                                 0501
A0601400100000002365437DELA CRUZ, RAMIR DE JESUS                               10502
A0601400100000002365437OR DELA CRUZ, MA                                        20500
A0601400100081356145001LACSON JR., RANEL CONRADO TUANO                          0502
A0101413730000001253172*************                                            0501
A0101413730000003981391**************                                           0501
B0101413730000001568367**********************                                   1602
A0101410850000003102012MIRAFLOR, JOMAR JOSE                                     0506
A0101410850000003503562**********                                               0503
A0101410560110478374009SAUDILYN M. PENAS                                        0501
A0101410560000001944174ROWENA PADILLA FRANCIA                                   0501
A0101400730111334903033KERWYN D. GARCIA                                         0501
A0101400730111582716001MANINANG, IRENE ESQUIVEL                                 0501
A0101400730111692067001RABAGO, JACQUELINE ATANACIO                              0502
A0101401960121240760001**********                                               0501
A0101412630000000801363PEREZ, MICHAEL RYAN NICER                                0501
A0101412630000000801643LIZARDO, LOVELY APRIL CARINO                             0501
A0101401830141058130001ARCANO, MARY ANN  RIVERA                                10501
A0101401830141058130001DBU ICJR PHARMACY                                       20500
A0101401830141530136001RACELLE MARY B. ABANES OR                               10501
A0101401830141530136001LUIS FRANCISCO V. LEBRON                                20500
A5001400170000000170141MOISES, RACHEL OR TIU, REBECCA                          10510
A5001400170000000170141OR TIU, EDUARDO                                         20500
A5001400170000000169879WONG, MARIA PERPETUA AND DESPI,                         10502
A5001400170000000169879EDEN AND CARACOL, MARIA                                 20500
A5001400170000002288242AJOC, RODOLFO PAPELLERAS OR                             10504
A5001400170000002288242AJOC, MARY JUNE BERMUDO                                 20500
A0101412920000002358972LEE, ANGELES LU                                          0502
B0101412920000000042071SW TRAVELTIME INC.                                       1602
A0101400440161039572032IAN PAUL A. PADILLA                                      0502
A0101400440161039572036ANTONIO S. VILLANDA JR.                                  0501
A0101400440000002034895LILIA C. ECLEO                                           0501
A0101400440161443113001ARVIN JON A. FU OR                                      10501
A0101400440161443113001DERYL BANGAYAN FU                                       20500
A0101400440161525001091CRISTINA A. PADILLA                                      0502
A0101400440000000821101ORENSE, JULIA AQUINO                                     0501
B0101407270162061497001GRAND TAIPAN LAND DEVELOPMENT INC.                       1601
A0101407270162098965001LACANILAO, GRETZEN BERMEJO                               0501
A0301400530000003088048MINER'S CHEMICAL INDUSTRIES COR                          0504
A0301400660000000194570DEQUITO, CITZY VENTOR                                    0502
A0301400660000001020102RODRIGUEZ, DARREN ALAMPAYAN                              0504
B0301400660000000195011C-ONE TRADING CORPORATION                                1610
B0301400660000000195306G.E. 64 ENTERPRISES, INC.                                1605
A0301400790000003969353JOSE, ROBERTO NATIVIDAD                                  0502
B0301400950000000566945BIG Z QUALITY FOODS CORPORATION                          1610
A0101413020000000880531***************                                          0505
A0101412500000002304774BUGAOAN, IVY ILLESCAS                                    0502
B3101400160221043434001NY SAN FELIX LTD. CORP.                                  1605
A3101400450000001104043CARANZO, MARI BAGACINA                                   0501
A3101400450223310377002PENALOZA, RAINIER OR ROMA                                0501
A3101400450223418716001GARCIA, JESUSA CORAZON PLAZA                             0502
A3101400450223529066001MORENO, MICHELLE CALALO                                  0503
A3101400450223689767001CHAVEZ, DOLORES PAR                                      0501
A3001400130000000931208BENDIJO, AMELITO MONDEJA OR                             10501
A3001400130000000931208BENDIJO, ERLEN A                                        20500
A3001400130000001271312SHAPE & WELL NUTRITIONAL                                10501
A3001400130000001271312PRODUCTS                                                20500
A1001400190231520766034BONITE, ABUNDIA                                          0502
A1001400190000000016457ANTIGA, LUNITA                                           0501
A1301400470000001299196PRECILLA DR. NADORA OR                                  10502
A1301400470000001299196REYNALDO E. NADORA                                      20500
A1301400470252507995001VERA A. BORROMEO AND                                    10502
A1301400470252507995001MARY GRACE B. SANTOS                                    20500
A0101401670271352051004MILAGROS G. SUNTAY OR                                   10501
A0101401670271352051004APOLONIO G. SUNTAY                                      20500
B0101406460272007807001INTEGRATED COMPUTER SYSTEMS, INC.                        1601
A0101406460272197187001AGCAOILI, CANDIDA CABATU OR                             10502
A0101406460272197187001AGCAOILI, TEODOR                                        20500
A0101406620000000962221ABELLON, MARK IAN MARTINEZ                               0501
A0101406620000001686677CASTRO, MA. KATHERINE BASAS                              0501
B0101406620273031145001KOHL INDUSTRIES CORPORATION                              1603
B0101406620000003497278JOBIN-SQM INC.                                           1603
A0101406620273498197001BASILA, GABRIEL EMERSON OR                              10501
A0101406620273498197001BASILA, CARIDAD                                         20500
A0101406620273751724001BENEDICTO, MALVIN SEVILLA                                0501
A0101408660000000059852LIAO, SEVERINO DBU HORIZON                              10501
A0101408660000000059852PRINTERS JT                                             20500
A0101411820000001356241HAO, KENNETH MONDIDO                                     0501
A0501400200292503085001CHU, HONORIO DY OR                                      10502
A0501400200292503085001CHU, MARGARETTE LIM                                     20500
A0801400160311478374056CECILIA B. ASTROLOGO                                     0501
A0801400160000002681650FLORETE, MARGARET RUTH CAPERONC                          0502
A0101405650000006273743FLORANTE S. VILLANUEVA JR.                               0501
A0101402510341523460001BUMANGLAG, JOANN PAR                                     0501
A0101402060351009359003JIANDANI, SURESH G. OR                                  10501
A0101402060351009359003JIANDANI KAVITA                                         20500
A0101402060351213405001LEOZALDY C. LINTAG &/OR                                 10501
A0101402060351213405001DEANA M. LINTAG                                         20500
B0101409050000006319291TORRES BPO CORP.                                         1602
B0201400760374041858001HELPMATE TRADING AND SERVICES                            1601
A0201400760374720031001******                                                   0505
B0201400920375743969001*********                                                1602
B0201400890376056207002MARDZ AIRCONDITIONING SUPPLY &                          11602
B0201400890376056207002SERVICES                                                21600
B0101402930381008829002AXEIA DEVELOPMENT CORP.                                  1615
A0101408370382207662001DR. CELSO F. BATE OR                                    10501
A0101408370382207662001MRS. SOPHIA S. BATE                                     20500
A0101408790000005169137AYTIN, JULIUS REY ALMENDRAS                              0501
B0101408790000003845749**********                                               1602
B0101402770000001571717RFT BUILDRIGHT CONSTRUCTION CORPORATION                  1602
A0101408400000003515108LESABA, MARIBEL SEVA                                     0501
A0101408400394162700001FLORES, CATHERINE DOMINGO                                0502
A0101408400394478374077PEREZ, CONCHITA                                          0502
A0101408950000003439376GOTENGCO, WILFRED BACTOL                                 0502
A0101408950000001760607PANDAN, MARIA JANET MAPA                                 0502
A0301400820000005196670REYES, FRANCISCO A. AND                                 10502
A0301400820000005196670VOSOTROS, BONIFACIO K.                                  20500
A5501400120410729506001JOSOL, ARLIEN BACON                                      0501
A2401400180000002146436KYSA MANPOWER AND GENERAL SERVI                          0501
B1201400150421030173001CHRIST EPISCOPAL CHURCH                                  1604
A1201400150421542323001ACHAPERO, RHODAVITA CORPUZ                               0502
A0901400220000002300845LIM, RENEEROSE VESAGAS                                   0501
B0901400220432043554001GERRY'S GRILL                                            1603
A0101403320471205844001ESTELA OR VICENTE MACARAEG                               0501
B0501400170481018109002****                                                     1605
A0501400170000001072935HERNANDEZ JR., ROMEO FERRER DBU                         10501
A0501400170000001072935ZAIRON TRADING                                          20500
A0501400170481349742001ANTONIO PATUNGAN                                         0501
A0501400170000002354510BERMUDEZ, ELSIE MALAPIRA OR                             10501
A0501400170000002354510LEIZA JR., JUANI                                        20500
B1901400160491018232002AMA COMPUTER COLLEGE -BATANGAS CITY                      1601
A0101407430503185312003MARIFE VALLADA                                           0501
A0101407430503232954001LORECENA S. FOJAS                                        0503
A0101407430000002298315EXCEL A. GRESOS                                          0501
B0101403580511046747001HUDDLE ROOM MEDIA INC.                                   1602
A0101403580511156550001TERESITA DUNGO OR                                       10502
A0101403580511156550001ELPIDIO DUNGO                                           20500
A0101405940512522504001YU, JONATHAN MARC CHAM OR                               10502
A0101405940512522504001YU, HENRY                                               20500
A0101408110515427749001HILARIO TAMONDONG JR. OR                                10502
A0101408110515427749001TRISHA MARIE TAMONDONG                                  20500
A0101411790518055764204CUISON, ANNE DESIREE TINDOY                              0501
A0101412050000005330676LACSI, SHERILYN FLOROGO                                  0501
B0101403450000006055790UNI-LUCKY MANUFACTURING CORP.                            1605
A0101403450521238268001**********                                               0502
A0101403450521240366001**********                                               0503
A0101403450521344500001**********                                               0505
A0101403610531047978001TIMONES, ALPHA PINTACASI                                10505
A0101403610531047978001DBU JAZKY BUILDERS                                      20500
A0101404000551406873003YANG, GEORGE TAN                                         0501
A2201400250561038458001PTT SOUTH RAMP GASOLINE STATION                          0501
A0101404130601449495001BLANCO, DAISY PLATA                                      0501
A0101407720602161863003ROBERTO K. MACASAET OR                                  10502
A0101407720602161863003VIRGINIA M. RAFAEL                                      20500
A0101407720602382305001PARDINAN, ROSSANA O.                                     0501
A0101407720602480488001GERALDINE MAJELLA L. JURILLA MD                          0501
A0101412180000000501500ALMAZAR, ALLAN GEPIGA                                    0501
B0101404260611353663002CLAMAR, GLENDA SUAREZ                                    1601
B0101404680651821100608**********                                               2010
A0101411530000000178905**********                                               0501
A0101413570000001720194JAY RON M. MORA                                          0501
A0101413570000005435070JAMAL SULTAN SALIC                                       0501
A0101413570656057648166ANDREW JAMES G. MERCADO                                  0501
B0101413570000003580727KIRKHILL BUILDERS, CORP.                                 1602
A0101406590000000568805LOGARTA, MICHELE TORRALBA                                0501
B0101406590000003007336OUTBOUND EDUCATION AND INTERNSHIP I                      1601
A0101406590662363449001LA VINA, ANGELINA SAN JUAN                               0501
A1301400210000000983815FELICITAS S SUNGA                                        0503
A1301400210682037806001MANG PABLING MARKETING                                   0502
A1301400340683387803001ESGUERRA, DANILO MEDRANO OR                             10504
A1301400340683387803001ESGUERRA, ANGELITA                                      20500
A1301400340683776169001BARAQUIEL, JOCELYN LIM                                   0502
A0101408240000006599913TARDICILLA, EVELYN CASTILLO                              0501
A0101408240711399428001JOSELITO OR ROSEMARIE RAFAEL                             0501
A0101408240711518229001CHUNG, HYUK JIN                                          0510
A4101400260000001198767ESPIRITU, KAREN SAMSON                                   0501
A4101400260812040216001CARELYNNE REALTY                                         0501
A4101400260000001673503BALURAN, RAQUEL GUZON                                    0501
A4101400260000003679669ROSARIO, JESSICA GUTIERREZ                               0501
B4101400390813036410001THE BOAT SHOP CORPORATION                                1602
A4101400390813511060001CAMERINO, MARJORIE MILITAR                               0501
A4101400550000004846835MARQUEZ JR., RAMON BALASOLLA                             0501
A4101400550000000005950SEGURITAN, JOCELYN DBU SFC                              10506
A4101400550000000005950OFFICE FURNITURE                                        20500
A4101400550000006044311SALVACION ELECTRONICS SALES                             10502
A4101400550000006044311CENTRE                                                  20500
A0101404840000005396938DIMAUNAHAN, MAY TENORIO                                  0501
A0101404840000001312758SOGUECO, TERESITA DALISAY                                0501
A0101404840851520766092VIOLETA G BERMAS                                         0504
B0101406750852034933001HYUNDAI ALABANG INC.                                     1605
A0101405070000002281990LIN, CHUNG CHUAN AND                                    10501
A0101405070000002281990TSAI, ROBERT                                            20500
A0601400230000005510241THOMAS JR., DANIEL DUERERO                               0502
B0101417970001501050106**********                                               2001
