A4101400550815047816001VILLANUEVA, MELANIE AWATIN                               0502
A0101400440161039572032IAN PAUL A. PADILLA                                      0502
A0101400440161525001159MARITES P. MONTALBAN                                     0501
A0301400530000000066113RUDELA, JIVIR S. OR                                     10502
A0301400530000000066113RUDELA, ANALYN C                                        20500
A0101410980000006014415FLORES, RACQUEL DUMLAO                                   0501
A2001400290000005926069TAN, EARL FRANCIS ROMANO                                 0503
B2001400290315698615001********                                                 1602
A0101402930381008880004AIRTIME MARKETING PHILS., INC.                           0502
A0101409180000008122325CAUTON, GIANCARLO DE VERA                                0502
A0101406750000005666817CDB ACCOUNTING AND TAXATION SER                         10502
A0101406750000005666817VICES                                                   20500
A0101400860011496074002**********                                               0501
B0101400860011684800001**********                                               1602
A0101400150000003164918ELAINE GRACE B. LIMOANCO                                 0501
B0101400150000001708301MARSMAN DRYSDALE CORPORATION                             1601
A0101400150061231438001NADONZA, RANILO                                          0501
A0101400150000004619632SISON JR., ANTERO OR SISON,                             10502
A0101400150000004619632MILAGROS OR QUNITOS, MICH                               20500
B0101400600000001335637**********                                               1602
A0101405810000000016559CHUA, HEMAN LAO                                          0502
B0101405810072412798001**********                                               1603
B0101405810072412798002**********                                               1603
B0601400100081046818001J.G. FLORES BUILDERS                                     1602
A0101413730000000144578**********                                               0501
B0101414090000007344501DYNAMIC HUMAN SKILLS SOLUTIONS INC.                      1610
A0101410560000005280502JANICE B. ORENDAIN                                       0501
A0101410560000011873073**********                                               0501
A0101400730111016957003NASSER, MA. THERESA                                      0501
A0101400730000001822602CARREDO, RAMON MANLUNAS                                  0502
A0101406040000002272453********                                                 0502
A0101406040112684740001***********                                              0501
A0101413150000011778104**********                                               0502
B5001400170000000169711LIM, EDDIE ONG OR LIM, GEORGE ONG                        1603
A5001400170000000045003LIONG, JULIUS TAN OR LIONG,                             10505
A5001400170000000045003DANA CORAZON LAMBATAN                                   20500
B0101407270162019008001ORIENTAL & MOTOLITE MARKETING CORP.                      1610
A0101407270162485062001NORLY B. VILLANUEVA                                      0502
A0101407270162519781002ECHIVERRI, EARL VINCENT VALENCI                          0501
A0101407270162739083002MICHAEL M. MAYO                                          0502
A0101401090171027703001INSTANT DRUGSTORE AND GENERAL                           10502
A0101401090171027703001MERCHANDISE                                             20500
A0101401090171195137001DRA. ESTELA RIVERA OR                                   10502
A0101401090171195137001LEAH SOCORRO RIVERA                                     20500
A0101401090171196210002LOPEZ, MA. CRISTINA OR                                  10502
A0101401090171196210002RAMOS, HUBERT                                           20500
B0101401090000000772390NUEVO, FLORIAN RIVERA AND CARLOS, DANILO                11601
B0101401090000000772390ELVAMBUENA                                              21600
A0301400530193750774188********                                                 0504
B0301400660194046002088GARDEN BY THE BAY CORPORATION                            1603
A0301400950000002115242**********                                               0501
B0101401380000011057695BRILLIANCEENTERPRISE INC.                                1605
A0101401380201476813002TO, EVELYN LIM                                           0501
B0101413020000006295583PANCITERIA LIDO CHINESE CUISINE CO.                      1605
B0101410720000000968163PROPERTY 101 INCORPORATED                                1602
A0101410720000007653241RADER, MIRASOL BARNES                                    0503
A3101400160221478374002MA. LOURDES T. ELIZON                                    0505
A3101400160221533274002DANILO T. RAMILO                                         0504
B3101400740000000013889IM DIGITAL PHIL INC.                                     1610
A1001400190231520766021CONDIMAN, MILDRED BAGAIPO                                0501
B1001400350233039624001ORO LZT MARKETING ENTERPRISES, INC.                      1604
A1301400470252430236001ROMEO A. CHUA AND MARCIANO                              10501
A1301400470252430236001G. DELA ROSA                                            20500
B1901400290261013980001VIC IMPERIAL APPLIANCE CORP.                             1602
B0101401670000004588445THE ASTRA GROUP, INC.                                    1605
A0101406460272466369001COSTALES, FE MYBELLENE AGUILAR                          10501
A0101406460272466369001OR COSTALES, ART                                        20500
A0101406620000005394965OPAO, ROSA MAIE SABALONES                                0501
A6601400120314612939001TOBES,SANTIAGO OR TOBES,CECILIA                          0501
A3401400280318478374004MELANIE B. BALDOMERO                                     0502
A0101405650322173595001SANTIAGO, FEDERICO STO DOMINGO                           0501
B0101402510341008473001CENTRO ESCOLAR UNIVERSITY EDUCATIONAL                   11602
B0101402510341008473001FOUNDATION, INC.                                        21600
B0101402510341037516003PRIMEWORLD MANAGEMENT SERVICES, INC                      1601
A0101402060351212497001LICHAUCO, ERNESTO E.                                     0503
B0101409050000007526356AN-TAI APPAREL                                           1601
A0201400760374540680001VELASCO, JACLYN CECILLE SOCO                             0501
A0201401020000002250573CHUA CHAN, BERNY BRYAN CO                                0501
B0101402930381019173001MANILA LUXURY CONDOMINIUM CORP.                          1601
B0101402770391044158001VLF WOOD VENEERS                                         1602
A0101402770391478374049DELA TORRE, EDITHA ZARAGOZA                              0501
A0101408400394420150001CARDENAS, RUBEN OR CARDENAS                             10501
A0101408400394420150001MARIVEL                                                 20500
B0101408950396564292001*****                                                    1603
A0101412210000008654417AGUILLON, DEXTER BERNARD DIMAAN                          0501
A0301400820000002272055DELA VICTORIA, MERLE D.                                  0502
A5501400120410633082001TAPALES, MARILOU OR TAPALES,                            10501
A5501400120410633082001AMADO                                                   20500
A0901400220000001805090**********                                               0501
B0101403030000010602089**********                                               1602
A0101403030441499921001NPERFECTCOMPUTER CORP.                                   0505
A0101412890000001056206GERONIMO, ANNABELLE ELEANOR LIM                         10502
A0101412890000001056206OR GERONIMO, MARLON                                     20500
A0101403320000010061546AGUSTIN, GINA TRINIDAD                                  10501
A0101403320000010061546OR TRINIDAD, JOSEPHINE                                  20500
A0101403320471207226001RIZALINA PAGOROGON, M.D.                                 0502
A0101410140000001939940REGODO, EDITA SANOZA                                     0502
A0501400170481253455001NORMELITO QUIMO OR IRENE QUIMO                           0502
A0501400170481318580004ANA CRISTINA L SINLAO                                    0503
A1901400160000005794892ALCANTARA, JOEY L. OR                                   10502
A1901400160000005794892ALCANTARA, MARICEL A.                                   20500
A1401400110000003988974REYES, JEFFREY ENRILE                                    0502
A1601400170000000036462MARY JEANNE S. YAP DBU                                  10501
A1601400170000000036462MJOHN GENERAL MERCHANDISE                               20500
B0101407430503036580001KOBUS INC.                                               1601
B0101407430503042216001HIGH COMMAND AVIATION SECURITY                          11605
B0101407430503042216001SERVICES CORP.                                          21600
B0101403580000007864222WINNERGY HOLDINGS CORP.                                  1601
A0101408530000010580082PALLON, NOVA BENDANILLO                                  0502
B0101411790000007043887CITYLAND FOR SOCIAL PROGRESS FOUNDATION                  1601
B0101403450521011744001CBK CONSTRUCTORA, INC.                                   1602
B0101403450521012077001**********                                               1601
B0101403450000008380763**********                                               1603
B0101403610531004521001EASITECH BUSINESS SOLUTIONS AND                         11601
B0101403610531004521001SUPPLIES INC.                                           21600
B0101403610000006637170CATALONIA, M DBU MJ CATALONIA TRADING &                 11603
B0101403610000006637170CONSTRUCTION                                            21600
A0101403610531221121001ANDISON REFORMA OR                                      10502
A0101403610531221121001SHIRLEY REFORMA                                         20500
B0101403610000006637114RD PAWNSHOP, INC.                                        1603
A0101403610531496661001AGAYAN JR., FERNANDO LAZ OR                             10501
A0101403610531496661001AGAYAN, MARIA CRISTINA                                  20500
B0101404130601771934002LEE, RENATO MUNAR AND                                   11602
B0101404130601771934002YAN, EDWIN C.                                           21600
A0101407720602353609002ANTONIO V. SANTIAGO                                      0502
A0101407720602391484001GLER, MA. TARCELA SABARRE                                0501
A0101407720602398318001PATRICK R. CARPO                                         0504
A0101409920000002260402ATENTO, SHERRY CLAIRE SOLEDAD F                          0502
A0101407690000006736496SALLY B. LABIANA                                         0501
A0101407690652478374169MEDRAN, ESTELA RAVINA - DEALERS                         10501
A0101407690652478374169OF SHOECAT INC.                                         20500
A0101413440000006680971QUERI, ROLANDO WI                                        0502
A0101413570000004353800REMORIN, JOHN PAUL DOTIMAS                               0502
A0101413990000012406574SARIGUMBA, MARY RUMELLE JOY B.                          10501
A0101413990000012406574OR GANDAWALI, ALI B.                                    20500
A0101413990000006278124ENCINARES, ROVILYN RODRIGUEZ                             0502
B0101414120000001984290GREENERGY SOLUTIONS INC.                                 1602
A0101406590662070270001INOCIAN, MARIA TSARINA OR                               10505
A0101406590662070270001PAJARO,VICENTE OR YOLANDA                               20500
A1301400500000009723140GARCIA, TEDDY MANALAYSAY                                 0505
A0101408240000008160172SALAZAR, L DBU CIANZAR                                  10502
A0101408240000008160172TRANSPORT SERVIC                                        20500
B0101408240711516092001QUE SORTE HOLDING CORPORATION                            1601
B4101400260812012927001ABENSON VENTURES, INC.                                   1605
A4101400260812030742002GODGIVEN PHARMACY & GENERAL                             10510
A4101400260812030742002MERCHANDISE                                             20500
A4101400260000003679625RONG, RAYSA POSTRANO                                     0502
A4101400260000003679932ROSALIE D. BALAGTAS                                      0501
A4101400420814017785001MONZON GENERAL MERCHANDISING                             0510
A4101400420814520766131LACSON, MELIZA FRANI                                     0502
A4101400550815478374008LORELYN C. PARCIA                                        0502
A0101404840000000085061JANINE LAVADA                                            0501
A0101406750000005608453LOREDO, ELMER DE LUNA                                    0502
A0101405070000001455892ROY A. MIRANDA OR JULIE ANNE                            10501
A0101405070000001455892MIRANDA                                                 20500
A0101405070000008250275BAGAIN, ROMEO ACOBA                                      0502
