B0101412050519061409001O.S.A. CLEAN AND COMFY LAUNDRY AND DRY                  11603
B0101412050519061409001CLEAN SERVICES                                          21600
A3101400450000002330541ARAMBULO, ARTRIE DBU ARAMBULO                           10501
A3101400450000002330541PROPERTY LEASING                                        20500
A3001400130000001271790HERMOSADA, JAME DORIA                                    0501
A3001400130230767566004EMPLOYEES OF SANTOS CLINIC, INC                          0501
B0101402930381039931001FIRST ASIA AGRI-INDUSTRIAL RESOURCE                      1603
B0101402930381040455001R & S LAW OFFICES                                        1603
A0101402930381205175001DR. MARILYN D. RUARO                                     0502
A0101402930381419788001ALMARITA JIMENEZ OR                                     10501
A0101402930381419788001MA. REGINA COELI                                        20500
A4101400260000005333335BLANCO, MARCELINA SUAYBAGUIO                             0502
A4101400260000003679870MALAJITO, MARY JANE S. DBU                              10502
A4101400260000003679870MJ MALAJITO ENTERPRISES                                 20500
A4101400420814520766065ANGUE, HONEYLYN D.                                       0502
B0101413860000000145275CON-PAC WAREHOUSING INCORPORATED                         1605
A0101400150000002374552CUA, MICHELLE LIM                                        0501
B0101400150000000052855SOLID MILLS CONDOMINIUM CORP.                            1602
B0101400150061027839001ROSCOR                                                   1602
B01014001500000006332988990 HOLDINGS, INC.                                      1601
B0101400150000004090260LEGASPI VILLAGE LAND PROPERTIES, INC                     1602
B0101400150061227269001BLUE SPHERE PROPERTIES INC.                              1602
A0101400150061292057001GIDEON G. SISON                                          0503
A0101400600000000007690********                                                 0501
B0601400100081032338001SAINT EMILIANA ACADEMY OF EXCELLENCE,                   11601
B0601400100081032338001INC.                                                    21600
B0601400100081200942001CHENG, SZE KIT                                           1610
A0601400520000002085781RAMIREZ, MICHAEL GABAT                                   0501
B0101410850000003503573NATURAL LOGISTICS, INC.                                  1602
A0101400730000002882422DECIAR, ROANNE KAY OLVIDA                                0501
A0101412920000000276340PALAD, AVERY JOHN CANTO                                  0501
A0101407270000004915919NAPOLEON P. MALING OR                                   10501
A0101407270000004915919LUZ Z. MALING                                           20500
A0101401090000000210419RYAN G. GUARIN                                           0502
B0101401090171007908001PERPETUAL SUCCOR HOSPITAL &                             11605
B0101401090171007908001MATERNITY, INC.                                         21600
B0101401090171007908003PERPETUAL SUCCOR HOSPITAL & MATERNITY                   11603
B0101401090171007908003INC.                                                    21600
A0101401090171197581001AGRIPINA OR REMIGIO CORPUZ                               0503
A0101401090171199132001BINAG, CHRISTINA AQUINO                                  0501
B0301400530193038166088FUTURE OPTIONS DISTRIBUTION SYSTEM, INC.                 1605
B0301400530000001409803REPHIL STATION INC.                                      1602
A0301400530193060848001LEPA MILL MASTER                                         0501
B0301400790000003969240D-JAS GENERAL MANPOWER SERVICES, INC.                    1601
A0301400950000005706992ALTAMIRANO JR., RAFAEL CLEMENTE                          0502
A3101400160000000006464CANDELARIO, EVELYN DBU                                  10502
A3101400160000000006464RALC REALTY                                             20500
B3101400450223037708001RD CASH PADALA, INC.                                     1602
A1001400190231520766031CARANO-O, JANFIR JANE V                                  0501
A1001400350233478374026ANNABEL ESTOMO                                           0501
A1301400470000002299825REINA CONCEPCION M. BERNABE                              0501
A1901400290000001975288FLORINDA MASAS BARTE                                     0503
B1901400290261036122001LODLOD PARISH MULTI-PURPOSE COOPERATIVE                  1605
A1901400290261087553001MARIA JEOFFRIZA SARMIENTO DIAZ                          10503
A1901400290261087553001OR RUBYRONA D LLAVE                                     20500
A1901400290261244348001ROLANDO M REYES OR                                      10502
A1901400290261244348001DRA. ERLINDA V REYES                                    20500
A1901400290261244447002LETICIA BAYLON HIPOLITO OR                              10510
A1901400290261244447002ERNESTO B HIPOLITO JR                                   20500
A1901400290261298552022ALVIN DEL ROSARIO MAGNAYE                                0502
A1901400290261427001001ERNESTO A GONZALES                                       0502
A1901400290261470375001NORA BUQUIR MIRAL                                        0501
A1901400290261741509001ROMELIA DE LA CRUZ MACASAET                              0501
A1901400290000003252720DIVINA GINA SANGALANG DE CASTRO                          0501
A0101401670000003675285MARIANO, BIMBO ANGELES                                   0501
B0101401670000004588490H.S. POW CONSTRUCTION AND DEVELOPMENT                   11603
B0101401670000004588490CORPORATION                                             21600
B0101406460272007487001FOODMACH, INC.                                           1604
B0101408660274038999001FRASOR GLASS AND ALUMINUM INC.                           1601
A0101411820000001356703IBAY DIGINET INTERNET CAFE                               0502
B0101411820000003085094MEDINFINITY INC.                                         1601
B0101411820000003085094MEDINFINITY INC.                                         1601
A0101400570281344838001AUGUSTO GUTIERREZ REYES OR                              10502
A0101400570281344838001MARITA REYES                                            20500
B0501400200292036584001SSS EXPRESS CREDIT, INC.                                 1605
A1101400120000000652431SASI, ANA ELEJEDO                                        0501
A1101400120000001547520TAN, MELVIN NATHANIEL ANDRADE                            0502
A1101400120000003595988VILLA, ELVIE DACLIZON                                    0501
B1101400120000000653116LMWD MULTIPURPOSE COOPERATIVE                            1603
B2001400290315081901001SILLIMAN UNIVERSITY                                      1650
B2001400290315528399001**********                                               1601
B3401400280318045071001ASIA PACIFIC AQUA MARINE, INC.                           1610
A3401400280000001723484ESLABON, M DBU GREYS CAR                                10502
A3401400280000001723484ANATOMY CLINIC                                          20500
B0101402350321006431001OLIVAREZ REALTY CORP.                                    1608
B0101402350321006710001DASMA CITYWIDE GEN MDSG INC.                             1604
B0101402350321171971001RADIAL ARCH CONSTRUCTION INC.                            1603
A0101405650000005284248NAANEP, PATRICK CASEY C.                                10501
A0101405650000005284248or NAANEP, MARI CZARINA R                               20500
A0101405650322526192001FUNTILA, CAROL PAULINE TAMAYO                            0501
B0201400890000000027892FORTRESS ELECTRICAL SUPPLY                               1601
B0201401020000000056391MIER, ROSELYN DE LA CERNA AND                           11601
B0201401020000000056391LIMPA, SIALANA                                          21600
A0101402930381364974001GEOFFREY TSE WEI CHEN OR                                10501
A0101402930381364974001GAYNARDIA K. LAO                                        20500
A0101408370382206275002DR. ELIZABETH P. PACHECO OR                             10502
A0101408370382206275002DR. BENITO M. PACHECO                                   20500
A0101408370382400033001DR. EVELYN VICTORIA E. RESIDE                            0502
A0101408790000003812086ADAN, ALLAN RAY MERCADO                                  0502
A0101408790000000600002SHAN MARBLE & GRANITE SUPPLY                             0505
A0101408400000006054553REGALADO, VILMA VELUZ                                    0502
A0101408400394708166001FERNANDEZ, DOLLY DISTOR                                  0502
A0101408400394743505001MARIA CAMILLE J ELIZALDE                                 0501
A0101409180000006558605GADDI, SIXTO SISON                                       0502
A0101412210000003448680QUIAMBAO, ARNELLE YUSI                                   0501
B5501400120410040096002RDJ CORPORATION - POLOMOLOK BRANCH                       1605
A2401400180000000019758ABUHAN, IRENE MERCADO                                    0501
A2401400180000005536523**********                                               0501
B1201400150421037773001HIMMELREICH INC.                                         1602
B0101403030441327386001**********                                               1603
A0101406330000002277847MASCENON, ALEXANDER CHARLES DG.                          0501
A0101406330000000162490TARP INK ENTERPRISES                                     0502
B0501400170000000018317DAGUPAN DOCTORS VILLAFLOR MEMORIAL                       1601
A0501400170481259032001DR. OSCAR RAMIREZ OR                                    10503
A0501400170481259032001DR. NENITA RAMIR                                        20500
B0501400170481398688001**********                                               1601
B0501400170481403222001VILLAFLOR, VIVENCIO V. OR                               11603
B0501400170481403222001RAMIREZ, OSCAR                                          21600
A1901400160491244615002FERDINAND C CHUA  OR                                    10501
A1901400160491244615002DANTE C CHUA                                            20500
A1901400160491659463001GLORIA JARO PENA                                         0502
B1401400110492041160001SAN DIEGO BUILDERS                                       1601
A1401400110492220879001ANGLO, ROMEO F. OR                                      10502
A1401400110492220879001ANGLO, CECILIA N                                        20500
B1401400110492365609001JEORGE S MALIGAT - PILIPINO HARDWARE AND                11601
B1401400110492365609001CONST. SUPPLY                                           21600
A1401400110492777638001DY, EDNA AYCARDO                                         0504
B1601400170000007323635ANELYN N. SUMANGA AND ARTURO T. MENDOZA                  1601
B1601400170000000036035SIX IN ONE CORPORATION                                   1603
B0701400260000000041130TREVOR ETON REALTY CORPORATION                           1603
A0101407430503674542001********                                                 0505
B0101406880513061877001SALCEDO, M DBU ADSPIRE DIGITAL MEDI                      1601
A0101411790000000576012SARTE, JOSE ANTONIO OLAGUER                              0501
B0101403450000000889512*************                                            1601
A0101403450521233116001**********                                               0501
A0101403450521348027001**********                                               0501
A0101403610531279193002MORANO, ELISA QUEJANO                                    0502
B2201400250561043904001POWER MOVERS, INCORPORATED                               1601
A2201400250000001545422DAVID, FELIPE ANGELES                                    0501
A0101404130000000043945FLORES, DOMINIQUE DELA ROSA                              0502
A0101404130601451527001MA. PAZ V. LAPERAL OR                                   10502
A0101404130601451527001GERONIMO F. VELASCO JR                                  20500
A0101407720602241314001**********                                               0502
A0101407720602581738001DUCUSIN, MA. ANTONINA SUGUITAN                           0502
B0101412180000000075421MGNP, INC.                                               1606
B0101404260611028921001KICEM TRADERS AND CO. INC.                               1610
A0101404260611150840001WILLY CHING OR ISIDORA CHING/                           10505
A0101404260611150840001GOLDSUN LUMBER                                          20500
A0101404260611478374076NEREZA P RULL                                            0502
A0101404260611478374078SUPERAL, CORAZON                                         0502
A0101413570000001069443**************                                           0501
A0101413570000001069501MEMBERS OF NATASHA                                      10501
A0101413570000001069501SUSANA B. SANTOS                                        20500
B0101408240000000832815WOWA'S FAST FOODS INC.                                   1610
B2801400230000001580285GR888T C CORPORATION - (YBC)                             1601
A4101400260812015061001AUTO AIRE CAR AIRCON SERVICES                            0502
B4101400420814012637001ANABU DEVELOPMENT COOPERATIVE                           11605
B4101400420814012637001(ANADECO)                                               21600
A4101400420814506413001IBIAS, JOSEPHINE OCAMPO OR                              10501
A4101400420814506413001IBIAS, SEGISMUND                                        20500
A4101400420814520766004SALVACION D. BITANCUR                                    0501
A4101400550000006044504LAGUE, R DBU KAMPER EVENTS                              10502
A4101400550000006044504PRODUCTION                                              20500
A0101412340000003340810KAREN MARIE O. AQUINO                                    0501
B0101412340850047478001HTECH CORPORATION                                        1605
A0101404840000001312576DOMINGUIANO, GLORIA D.                                   0502
A0101405070861027133001WORLDLINKS CABLE WORKS                                   0502
B0101405070861565051001BLAUGRANA CORPORATION                                    1606
