B0101401670271821100608**********                                               2010
A0101411110000012643839ULEP, LARRY AL AQUINO                                    0501
A0101400150000009995197YAKIT, RENE RANOCO                                       0501
A0101408400394027889001TINA S. BERIN FLOWER SHOP                                0505
B5501400120000005492457VALEENVISTA GLOBAL ESTATES CORPORAT                      1601
A0101400150000009401423EMPLOYEES OF, THE BANK OF TOKYO                          0501
B0101400150061011066002FOOD SOURCE, INC.                                        1605
B0101412630000000023850REA INSURANCE AGENCY INC.                                1602
A1001400350233478374020ELMA O. GAWAT                                            0501
A5501400120000011599270FLORES, JASMIN DELA RIARTE                               0501
A0501400170000013464701CACHO, KRISTOFFER RYAN ABRAZALD                          0501
A0101403610000015437580ABANILLA, F DBU CENTRO SAN LO-                          10501
A0101403610000015437580RENZO COMMERCIAL BUILDING                               20500
A0101400860011387131002**********                                               0502
A0101400860011533026001**********                                               0502
B0101401250021005516001THE PROVINCIAL SUPERIOR OF THE PIOUS                    11603
B0101401250021005516001SOCIETY OF THE                                          21600
A0101401250021453364001TORREJOS, ALFREDO OR                                    10502
A0101401250021453364001RYAN ALVIN OR CARMENCITA                                20500
A0101400150000000253278GELANO, ANGELO RECTO                                     0501
A0101400150061038536052EDMUNDO AQUINO                                           0501
A0101400150000002394830INTING, THERESA LEILA ALUNAN                             0501
A0101400150061618555001GALANG III, EMILIO FEDERICO CAL                          0502
A0101400600000001335499********                                                 0502
B0101400600071723988001******                                                   1601
A0601400100000015506335ROSALES, RYAN HERRERA                                    0501
A0601400360000012816074MARTINEZ, JOHN DAVID                                     0501
B0101410560000008979366JVR PLACEMENT CO. INC.                                   1603
A0101400730111203514002MA. CECILIA G. CRUZ                                      0501
A0101400730111392034001SENA, GLENDA A. OR MAHAR B.                             10502
A0101400730111392034001JARDIOLIN                                               20500
A0101401960121240187001**********                                               0501
A0101400440000014243415GARCIA, CONCEPCION ALIORDE                               0502
B0101400440161022597001PHILMAN POWER CENTER INC.                                1612
A0101400440161039572010MYRNA A. CANELAS                                         0502
A0101400440161478374006JOSEPHINE R. VEGA                                        0502
A0101400440161478374076JAYNE D. BARBIN                                          0501
A0101407270000004915908LORENZO, TRICIA MARIE SOLANOY                            0501
A0101407270000014296876DOMAYAN, JOEL ALBERCA                                    0501
B0101407270000012664789PRIMO FORTEM CONSTRUIR CORP.                             1601
B0101407270000012664789PRIMO FORTEM CONSTRUIR CORP.                             1601
B0101407270162039291001ASIATRADERS CORPORATION                                  1601
A0101407270162333006030CAROLYN R. OFILANDA                                      0502
A0101407270162524638001BENJAMIN G. ALCARAZ OR                                  10501
A0101407270162524638001MARIA LERISSA AL                                        20500
A0101407270162642564001BEATRICE E. DE SANTOS OR MARIA                          10502
A0101407270162642564001VICTORIA E. JALU                                        20500
A0101401090000004753851AIJP FOOD SERVICES                                       0502
A0101401090171308472002RAYMUNDO C. DEL ROSARIO                                  0501
A0101401090171565714001ANGELA ROSE HERNANDEZ                                    0501
B0301400530000000066099CHAN, MICHAEL OR ERA                                     1602
B0101410720000000968101VIC-VEL REALTY CORPORATION                               1601
B3001400130000009103491NAHARO BUILDERS, INC.                                    1603
A1001400190000001057498LIGTAS, JOSE CALALIN                                     0501
B1001400350233022546001POWER ALLIANCE CORP.                                     1605
A0101401670000000016195WU, SHI MUH SY                                           0501
A0101406620273514932001ELEGADO, MELANIE ISIDRO                                  0501
B0101410980000006014700EMMANUEL MEDICAL AND DIAGNOSTIC CENTER I                11602
B0101410980000006014700NC.                                                     21600
B0101411110276821100608**********                                               2003
B0101411820000000024142HARDCOM COMPUTER SYSTEM CO.                              1601
A0101412470000000520130FLORES, GINA CRUZ                                        0502
A0101412470000005380365GUTIERREZ, JANINE MARIE                                 10501
A0101412470000005380365ELIZABETH                                               20500
A0101400570281360412001DR. LONABEL A. ENCARNACION                               0501
A0501400200292500200002BALLESTA, IMELDA QUIMO                                   0502
A0801400160000000476379************                                             0503
A2901400130000009071972LEGASPI, JANSELMA NINA MIRALLES                          0501
B0101402350321034292001JACINTHE MANUFACTURING CORPORATION                       1602
A0101402350321179538001MAMACLAY, EDUARDO                                        0501
A0101402350321310360001FLORES, RICARDO TIRSO QUIACHON                           0501
B0101402350321738079001OLIVAREZ GENERAL HOSPITAL INC.                           1610
A0101402350321789115001DOMINGUEZ, DENNIS JOSEPH ADRIAN                          0501
B0101402510341037808001FAIR ALL MARKETING                                       1602
A0101402510341196514001JAIME LIM OR CHRISTINA LIM OR                           10503
A0101402510341196514001GINA LIM                                                20500
A0101402060351554316001DEL ROSARIO JR., RUBEN SANTIAGO                          0501
A0201400920000000048053YU, WILSON LIM                                           0505
A0201400920000002804504BARENG, NATHALYN C.                                      0503
A0201400890376192121001TORRES, GIL FERDINAND ABELLO                             0502
B0101408370382047182001CRITICAL CARE NURSES ASSOCIATION OF                     11603
B0101408370382047182001THE PHILIPPINES                                         21600
A0101408790000013295273ELLAMIL, EMILIO ALDAY                                    0501
A0101408790000009466282ISON, DENNIEL CRUZ                                       0501
A0101411660000014676801TANTAY, MICHAEL ANGELO GOMEZ                             0501
B0101408400394047325001VICLOR MICROLENDING INVESTOR                            11601
B0101408400394047325001CORPORATION                                             21600
A0101408400000009875030IPR FASHION BOUTIQUE                                     0502
A0101408950000011598948PENAFLORIDA, ANDREA MEDENILLA                            0501
A0101408950396564276001CUA, MA. EDWINA CRISOSTOMO                               0501
A0301400820000002692113TAGOSE, RICHARD T.                                       0503
A5501400120000002019158SUPERIO, MERLYN G. DBU DIAMOND                          10503
A5501400120000002019158MEMORIAL CARE SA                                        20500
A2401400180000000826233OXALES, HANNAH LOUISE RAQUEDAN                           0501
A2401400180000000073583BARBON DENTAL CLINIC                                     0501
B2401400180411056150001GENSAN TBB & SONS MARKETING, INC.                        1602
B2401400180411057100001L.H.E. CONSTRUCTION & INDUSTRIAL                        11606
B2401400180411057100001SERVICES, INC.                                          21600
A2401400180000002284153GO, RODRIGO MACABABAYAO                                  0501
B2401400180411338845003ROBERTO OR JANET PERALES JT ANTONIO OR                  11602
B2401400180411338845003ADELENE PERALES                                         21600
A1201400150421397888001GO, BRIAN SY OR                                         10501
A1201400150421397888001GO, CYNDY SY                                            20500
A1201400150421543715001CAMADO, JUSCILLE P. OR                                  10503
A1201400150421543715001CAMADO, MILLER                                          20500
A0101412890000005913464*******                                                  0502
A0101403320000014839542MARIELOU H. DANGALAN                                     0501
B0101403320471035758001***                                                      1603
A0101403320471478374005JOANN L. ANDAY                                           0504
A0501400170000013464701CACHO, KRISTOFFER RYAN ABRAZALD                          0501
A1901400160000013648529DENOSTA, DELIA DUNO                                      0502
A1901400160000012982242MERPOR LOGISTICS                                         0501
B1901400160491046052001BANAPRA DEVELOPMENT COOPERATIVE                          1603
B1401400110492011585002LUCENA GREENVIEW, INC.                                   1602
B1401400110492013980002IMPERIAL APPLIANCE PLAZA                                 1601
B1401400110000003475650RCBL - OUR LADY OF SORROWS PARISH                        1610
B0701400260000000041083MULTI-WARE ECON-SALES CORPORATION                        1605
B0101403580000010847471KARL KARSON CONSTRUCTION CORP.                           1602
B0101403580000004558750ECOSSENTIAL FOODS CORP.                                  1605
B0101411400000006561048HAMOY & ASSOCIATES                                       1601
A0101412050000002314494********                                                 0502
B0101412050000001499932IBEACON INC.                                             1602
A0101403450000009517637***********                                              0502
A0101403450521238596001**********                                               0503
A0101403450521239350001**********                                               0506
A0101403610000015505843TOLENTINO, VICTORIA JAE NOLLORA                          0501
A0101403610531304005001ANCHORIZ, NERRIZA OR                                    10505
A0101403610531304005001ANCHORIZ, FRANCI                                        20500
A0101403610531430756002GERTRUDES A. SALVADOR OR                                10503
A0101403610531430756002LEONOR A. HADUCA                                        20500
A2201400250000010425311*******                                                  0502
B2201400250000007719977R & A FASTFRATE CORP.                                    1605
A2201400250561083413001SUSA NINA A. SAPAD                                       0501
B0101412180000000024302HARBOR STAR SHIPPING SERVICES, INC.                      1602
B0101404260611030938001BUON FORTUNO REALTY DEVELOPMENT                         11602
B0101404260611030938001COMPANY, INC.                                           21600
A0101409920000013391447PENA, SHELOU TAGUBA                                      0502
A0101413440000000570256**********                                               0501
A0101413440000015041642**********                                               0501
B0101413440000011893180EVOLANDER MOTOR CORPORATION                              1603
B0101413570000009426280BINBIN SPA, CO.                                          1601
A0101413990000015509578GERONIMO, CHRISTINE G. OR                               10501
A0101413990000015509578DE LEON, JEROME PAOLO I.                                20500
B0101413990000008250060CELEBRITY DARLING HEIGHTS CONDOMINIUM                   11602
B0101413990000008250060CORP.                                                   21600
B0101414120000000399042SIGNED & DELIVERED, INC.                                 1602
B0101414120000007655378ABMARAC CORPORATION                                      1601
A0101406590662296475001RAMOS, MA. JESUSA FERNANDEZ OR                          10502
A0101406590662296475001RAMOS, JOSE FRAN                                        20500
B1301400210682009648001CHRIST'S COMMISSION FOUNDATION,                          1604
A1301400340000005265123CALAM, MAE RONDINA                                       0508
B1301400500000005963506********                                                 1601
A1301400500684589879001YULO III, ANTONIO P. OR                                 10505
A1301400500684589879001YULO , ANGELINA                                         20500
A1701400230000002762809MUSNI JR., CARLITO  DBU FHAROYO                         10510
A1701400230000002762809TRADING                                                 20500
A0101408240000008854344ORDONEZ, NATHALIE OR NICOLE                             10501
A0101408240000008854344MICHELLE OR MARC                                        20500
A0101408240000010148000VELASCO, MA. ANGELICA VAZQUEZ                            0501
A2801400230000001782130GOLDEN STATE ALUMINUM GLASS &                           10503
A2801400230000001782130GENERAL MERCHAND                                        20500
A2801400230000005253281EMETERIO, EVELYN PANCHO                                  0501
B4101400260812024001001SOUTH STAR DRUG INC.                                     1601
A4101400260000000469329FALCUTILA, MARISSA RAMOS                                 0503
A4101400420814481492001MADERA, EILEEN SOLANO OR                                10501
A4101400420814481492001MADERA, ABEGAIL                                         20500
A4101400550000013901430ABITANG, MARY JOVETTE TORRECHIL                          0501
A0101412340000005496773IAN MANALO PINEDA                                        0501
A0101412340000015487155TORIO, JACQUELINE F.                                     0501
A0101406750000014700773EDINBURGH TADENA                                         0501
A0101405070000005619536AGUIRRE, GENESIS ADAM SY                                 0501
