F4101400260000000469330DEPANO, ABEL GONZALES                                    2503CKO
F4101400260812044826001SEVEN-L AGRIFOOD SYSTEMS, INC.                           2601CKO
F0101401120131030124003MIGALLOS & LUNA LAW OFFICES                              2603CKR
F0201400180181292185001MIGUEL, ROSALINA DELA PENA                               2520CKO
F0201400210371472965002EVER DYNAMIC DISTRIBUTION                               12610CKR
F0201400210371472965002NETWORK, INC.                                           22600CKR
F0101409500000000217109ASPEN CONSTRUCTION &                                    12610CKR
F0101409500000000217109DEVELOPMENT CORP                                        22600CKR
F0101409500000001160478G-DRIVE SOLUTIONS, INC.                                  2602CKR
F0101407720602016082004SPURGEON SCHOOL (FOUNDATION),                           12605CKR
F0101407720602016082004INC.                                                    22600CKR
