B0101404130601821100608**********                                               2010
B2801400100712821100608**********                                               2005
A2201400250561337407001CONRADO T. BAUTISTA JR.                                  0501
A0101409920000000998558MEMBERS OF NATASHA (SHOECAT INC                         10501
A0101409920000000998558PASCUAL, GLORIA                                         20500
A0101413570000004353797GANGANO, GRACE FETALVO                                   0503
B0101406590662036200001SAMUEL T. AGUSTIN II CONSTRUCTION                        1601
B0101406590662037318001NETWORK TWENTYONE, INC.                                  1604
A0101406590662037319001N21 BUSINESS SUPPORT TRADING                             0504
A4101400260000003680073AYUSTE, PRINCESS PENALOSA                                0501
A4101400260000001673452VELUZ, RONALD VILLANUEVA                                 0502
B4101400420814012632001UCCP - ANABU EVANGELICAL CHURCH                          1604
A4101400420000000018453MANSIT, EVELYN DBU MANSIT                               10504
A4101400420000000018453REALTY                                                  20500
A0101400150061039917028TUASON, ANAFLOR                                          0503
A0101400150061564610064BUENAFLOR, MARIA GERALDINE ROSE                          0501
B01014001500617415240011 ESPANA APARTMENT INC.                                  1608
A5001400170000000045003LIONG, JULIUS TAN OR LIONG,                             10505
A5001400170000000045003DANA CORAZON LAMBATAN                                   20500
B3001400130230043534001BERRY HAPPY MART INC.                                    1603
A4101400420814478374167SAN AGUSTIN, EDITHA L.                                   0501
A4101400420814757410001SAPANGHILA, GEMMA ILANO                                  0501
A0101401250000004374583CASTA, LORENA L.                                         0502
A0101411370000003294853CALAMBA, EMILY NARES                                     0501
B0101400150000000052720SOUTHKEY DEVELOPMENT CORPORATION                         1605
A0101400150000000807170FRAGANTE, SOCORRO PROTACIO                               0501
B0101400150061040558001CORDILLERA EXPLORATION CO., INC                          1602
A0101400150061302368002**********                                               0501
A0101400150000000806677EMELITA PURISIMA                                         0501
A0101400600071235565001**********                                               0501
B0101413730000000469734L.Y.S. HARDWARE & INDUSTRIAL SALES INC.                  1606
B0101400730111035695001AFRO-ASIAN TRAVEL AND TOURS, INC.                        1602
B0101401960121238876001**********                                               1602
B0101401830141032221001CARITAS ET LABORA HUMAN RESOURCE SERVICE                11610
B0101401830141032221001COOP.                                                   21600
B0101401830000000060022CARITAS SALVE CREDIT COOPERATIVE                        11603
B0101401830000000060022(CUBAO 011)                                             21600
A0101400440161039572023JIMMY S. PALISOC                                         0501
A0101400440000000821334REYNALDO G. BRIONES                                      0504
A0101400440000004889865EVA D. SAMILLANO                                         0502
A0101400440161190481001HELEN LEONG OR ROSALINDA LI                              0505
A0101400440161525001159MARITES P. MONTALBAN                                     0503
A0101407270162241391001ROMEO L. MALONG                                          0501
A0101407270162427325001KIM PARK, YOUNG HEE                                      0505
A0101401090171297883001CRISTINA C. SAGUM                                        0501
A0101401090171544657001FRANELYNE P. CASUGA                                      0501
A0101401090000003835950ESPERA, MARIVIC ACUNA                                    0501
B0301400530193040936168QUICK LUBE TIRE & SERVICE CENTER, I                      1603
A0301400530193760685002AGUILAR, AGUINALDO V. OR                                10501
A0301400530193760685002AGUILAR, DINA C.                                        20500
A0301400790000000435892ANG, DANILO DEE                                          0501
B0101401380201034247001HOBBIES OF ASIA INC.                                     1604
A0101413020000002292811********                                                 0503
A0101410720000001602102SERRANO, REX VILLANUEVA                                  0502
A01014107206530270550013 J METAL INDUSTRIES                                     0502
B0101410720000000968163PROPERTY 101 INCORPORATED                                1602
A0101410720653332893001LIWAG, VINA VELEZ NUNEZ  OR                             10502
A0101410720653332893001LIWAG, MA. VELEZ                                        20500
B3101400160221037479001TABLERIA LA CONFIANZA CO., INC.                          1601
A3101400160221506317001RACHELLE B. ALVIAR                                       0503
A1001400350233077197001BALBERAN, ANITA BORRES                                   0501
A1001400350233478374001JUNIO, ROGELIA A.                                        0501
A1301400760000004522592KRISTOFFER ROMEO E. GATDULA OR                          10502
A1301400760000004522592SANDRA D. GATDULA                                       20500
B0101401670271027735001PLATINUM 2000 CONDOMINIUM ASSOCIATION                    1601
A0101411110000002319951COSETENG, ERICKSON CASIMIRO                              0501
A0101412470278093268001NG, CRISTINA TAN OR                                     10501
A0101412470278093268001NG, MENG TAM HOI                                        20500
A0101412470000000520170NG, MARJORIE JANE DY                                     0501
A0101400570000002329820AGONCILLO, SHERYLLE JANNE ANN R                          0501
B0101400570281007188002KIMURA CHAVES ENTERPRISE, INC.                           1602
A0101400570281021967001CHANGING DIGITAL IMAGING                                10501
A0101400570281021967001GRAPHIC                                                 20500
A0101400570281188687001LORGENE A. MATA OR                                      10503
A0101400570281188687001CLARISSA MATA                                           20500
A0101400570281663653001OCAMPO, ELIZABETH JOAN ESGUERRA                          0505
B0101410430282821100608**********                                               2003
A0501400200292629061001CARGANILLA, DOMINADOR P. OR                             10501
A0501400200292629061001CARGANILLA, GLADYS B.                                   20500
A2601400270000002677547MILA R. VALDEZ                                           0503
B2601400270000000020673JPGLOBAL VENTURES CORPORATION                            1603
A6601400120314083348001BRIONES, DINAH SORIANO                                   0502
A6601400120314612876001DERAMPATUN, ASIS DORADO                                  0502
A0101402350321478374013ROSALINA M. MARAVILLA                                    0501
A0101402060000002259878ANIMAS, MARC THEUS PADUA                                 0502
A0101402060351295053001VINCENT ADRIAN H. ERMITA                                 0501
A0101402060000000445414BANSER, FLORDELIZA QUIAMBAO                              0501
A0101409050000003533457REGINO, SARAH                                            0501
A0201400760374294913001RODRIGUEZ, ANGEL SANTIAGO                                0501
A0201400760374797465001SITOY, ARLEIGH JAY CONSULAR                              0503
A0201400890376589871001NAVERA, TESSA LIM                                        0501
A0101402770391034936001LOGPRO EXPRESS, INC.                                     0502
A0101412210000005800000CRUZ, LOURDES BAUTISTA OR                               10501
A0101412210000005800000CRUZ, EDGARDO CRUZ                                      20500
B0101414830400821100608**********                                               2002
A0301400820000001554894ESTREMOS, VERONICA T.                                    0502
A0101403030441338826001********************                                     0510
A0101403320471207895001AMBROSIO OR JOSEPHINE TOBIAS                            10502
A0101403320471207895001OR MARK ALVIN TOBIAS                                    20500
A0101403320471402087001CECILIA L. DIAMANTE                                      0502
B0101406330472046636001ENERTECH SYSTEMS INDUSTRIES, INC.                        1610
A0101406330000000011752JONAH ROMANO DBU AW ENGINEERING                         10503
A0101406330000000011752SERVICES                                                20500
A0101406330472428084001DARWIN JEBB YLO OR MARILEN YLO                           0502
A0101410140000001940121CASTILLO, ROMELIA T                                      0501
A0101410140000001940121CASTILLO, ROMELIA T                                      0501
A0501400170000002357359SINO CRUZ, KRISTOFERSON GARCIA                           0502
B1401400110492046339002******                                                   1620
A1601400170000000036531ERNESTO REYNOSO OR ISABEL                               10505
A1601400170000000036531REYNOSO OR CARLOS REYNOSO                               20500
B1601400170000000497172PACARDO, MARC JOSEPH DBU MARC &                         11601
B1601400170000000497172JOSEPH'S EVENTS                                         21600
A0101407430503185437001JOSEPH MADRIGAL                                          0502
A0101407430503700751001MA. ELIZABETH CALAYAN                                    0501
B0101403580511005607002RAM FOOD PRODUCTS, INC.                                  1605
B0101403580511020857001ROBROS INCORPORATED                                      1603
B0101406880000001286415CASES CHUN & ASSOCIATES LAW OFFICES                      1603
A0101408530000001885896BRUCAL, RICA MARIE ANN                                  10501
A0101408530000001885896VILLAPANDO                                              20500
A0101411400000001140350BARCELO, ANA RUBIE TALAG                                 0503
A0101403450000001769811*******                                                  0501
B0101403450521011971001**********                                               1602
A0101403450521237475001**********                                               0501
B0101403450521238098001**********                                               1605
B0101403450521312243001*********                                                1602
B2201400250000000016913ABRAHM CHASE CORPORATION                                 1601
A2201400250561405521001TERESITA ARCEO SORIANO                                   0501
A2201400250561484428001WILSON LAO SIO OR                                       10502
A2201400250561484428001EDUARD LAO SIO                                          20500
A0101404130601450892001DIZON, LOURDES A.                                        0502
A0101407720602373276001MACAPAGAL, ANTONIO RAMIREZ                               0502
A0101407720602396245001******                                                   0503
B0101407720602697838001NCT SPA CORPORATION                                      1601
A0101404260611005236001WILTRON ELECTRONICS                                      0502
A0101404260611151415001TABLANZA, FRANCISCO OR FRITZIE                           0501
A0101409890000000437405REYES, MICHAEL CONCEPCION                                0501
A0101409920000000998661MEMBERS OF NATASHA (SHOECAT INC                         10501
A0101409920000000998661CALORA, DOMINGA                                         20500
A0101413570000003379908CABANIG, MYRA MELAYA                                     0502
A0101413570656059596001ONIA, MARITESS DBU TRADEWLL                             10501
A0101413570656059596001CONSTRUCTION & ELECTRICAL                               20500
A0101413570656059598001ONIA, STEVEN POSTADAN DBU                               10501
A0101413570656059598001BANITRADE ENTERPRISES                                   20500
A0101406590662541726001BUROG, MARITA DE GUZMAN                                  0501
A1301400210000001206820MERLITA R SALAVERIA                                      0505
B1301400210682200942001SZE KIT CHENG                                            1610
A1301400210682248069001ALICIA P. ANDAN                                          0501
B1301400340683040545002BISHOP OF HOPE OF GLORY COMMUNITY INC.                   1605
A1301400340000000980201ROMASANTA, ABEGAIL LLORENTE                              0502
A1301400500000000213436ROSALINDA P. CASTILLO                                    0501
B0101408240711027172001SHARMILA, INC.                                           1601
A0101408240711228456002MA. VICTORIA MANIQUIS                                   10502
A0101408240711228456002OR STEVE MANIQUIS                                       20500
A0101408240000000522001OROBIA, JOSE RAMON INUMERABLE                           10501
A0101408240000000522001OR OROBIA, ANNA KRISTINE                                20500
A2801400100000003116689SANTOS, MA. GRACE MIRANDA DBU G                          0501
A2801400100712094982001DIAZ, EDWIN BACANI                                       0502
A4101400390813478374056LORZANO, ANGELICA                                        0501
A4101400420814246792001GENEDINA A. FERRER, M.D. OR                             10503
A4101400420814246792001LEO CRESENTE M.                                         20500
A4101400420814520766033DELA CRUZ, MARILOU M.                                    0501
A4101400550000001332461GONZALES, CARLOS CATALLA                                 0501
A4101400550815042023002AUTOWELL TRADING                                         0505
A0101412340850170611002EDWIN DE LEON ESPIRITU                                   0505
A0101404840000004565953RODULFO, CLARIVEL M.                                     0501
A0101404840851520766196MARGARET CABANERO                                        0501
A0101406750852059626001VIRAY, NINO DBU SMILE KAZUVIR                           10501
A0101406750852059626001TRADING                                                 20500
A0101406750852059627001VIRAY, NINO DBU SMILE KAZUVIR                           10501
A0101406750852059627001TRANSPORT                                               20500
A0101406750852478374100GLENDA DALOGDOG                                          0501
A0101406750852617055001PUA, HERMINIA SALAS                                      0501
B0101405070000000260331SAISEI TAXI TRANSPORT INC.                               1601
B0101405070861565051001BLAUGRANA CORPORATION                                    1605
A0101413860000005527766CUA, LORY NGO                                            0501
A0101413860000001233830VELASQUEZ, MARIA JONALYN SALTOR                          0501
