A0101409920000012173512VELARDE, IMELDA HERNANDEZ                                0501
A0101412470000002295769CHENG, JEFF TAN OR CHENG,                               10502
A0101412470000002295769EVELYN UY                                               20500
A0101413440000015472423DELA CRUZ, CRISTINA TA-AY                                0501
B0101413440000001085683HYTEC POWER INC.                                         1601
A0101410300000014298930YOUNG, STUART PATRICK                                    0501
A0101400860000013978802***********                                              0501
A0101400860011412769001**********                                               0510
A0101400860011468485001MANALO, DAISY PICAZO                                     0502
A0101401250001100003020ANTONIO, CARLITO BONIFACIO                               0503
A0101411370000010060656GOPALAKRISHNAN, ARUN BABU                                0501
A0601400360000017322399MACTAL, RYAN TIATCO                                      0501
A0101414090000014876016CAVITENO, LILYBETH DE LAS ALAS                           0506
A0101410850000011276492LI, CHO PAN                                              0501
A0101410850000013601400GARCIA, RACHEL P DBU WILSHAN'S                          10501
A0101410850000013601400WATER REFILLING STATION                                 20500
A0101410560000005280462ROSE MARY S. RAPADAS                                     0501
A0101410560000005280860ILDEFONSO, PHILIP MICHAEL ESTEV                          0502
A0101410560000005836319CRISTINA L. LUALHATI                                     0501
A0101410560000001944072VALEN, ROSANA RETIG                                      0501
A0101401960000004419830**********                                               0502
A0101401960000000008011**********                                               0502
A0101401960121238701001**********                                               0501
A0101413310000005433450PINULAN, JOAN PAMAN                                      0501
A0101413310000010284681TIJAMO, MADRIROSE BASILIO                                0501
A0101401830000011228936GALVEZ, EMY ROSE                                         0501
A0101401830000017472163LECAROZ, PAULINE SONG                                    0501
A0101412920000011166555ALCONCEL, MARICRIS OLIVEROS                              0501
A0101412920000016275473SKINNER, CHRISTINE MAE DELOSO                            0501
A0101400440000017532377ABESAMIS, NINA CABRAS DBU                               10501
A0101400440000017532377OPENROUTE TRAVEL & TOURS                                20500
A0101400440000003671670RUTH L. GOZON                                            0502
A0101400440000009591871ROSANA CATCHO                                            0501
A0101400440000009591922MANLAPAS, NELLY TURANG                                   0501
B0101400440000000337773VIENNA PORCELANA PHILS. INC.                             1610
A0101400440161520766075ERA G. LAMATA                                            0501
A0101400440161525001174RIZALYN V. GUNTANG                                       0502
A0101407270000009673538CONCIO, MA.  ROSARIO SANTOS                              0503
B0101407270000016805686REALITY ENTERTAINMENT, INC.                              1610
A0101407270162539457001MARIA LACSINA A. DIAZ OR                                10501
A0101407270162539457001JOHN PAOLO N. CA                                        20500
A0101401090171196120003MERCY LEE-JATICO OR                                     10502
A0101401090171196120003MATTHEW STEPHEN L. JATICO                               20500
A0101401090171481442001STA. ANA, ALVIN MACARAIG                                 0501
A0301400530193584721168YANG, CHAOWEI                                            0505
A0301400790000003969575VERGARA-RUBIO, SHEILLAH OMOSO                            0501
B0301400790000002301342MONTEVERDE II, GEORGE MENDEZ DBU GV & HH                11601
B0301400790000002301342MARKETING                                               21600
A0301400950000006080155SANDOVAL, STEPHEN LU                                     0501
A0301400950000008000648LAGON JR., JOSE JONALD D.                                0501
A0101413020000000056977ROBLES, ANDREW GULA                                      0501
B0101413020000001175428ALL HEALTHY HEALTH VENTURES, INC.                        1605
A0101410720000017534551FULGAR, JOANA CRISTY SUMAMPONG                           0501
A0101410720653503650001TAPE, ANA LYN HERRERA                                    0501
A0101412500000005300747SANTAMARIA, NAOMI MARIN                                  0501
A3101400870000005410213EVANGELISTA, GISELA CASTILLO                             0501
A3001400130000014779590LUGOD, MELFRANK ALOJADO                                  0501
A3001400130230757981001SACAY, RENE CANTOR OR SACAY,                            10503
A3001400130230757981001JOSEPHINE SIMBIT                                        20500
A1001400190000005709195IMAN, DANIEL ACTUB                                       0501
A1001400480000003357533RAGANDANG, PAUL BERNIE DAGUS                             0502
A1301400470252603370001CARLOTA T. HIPOLITO OR                                  10501
A1301400470252603370001ROCKY M. HIPOLITO                                       20500
B0101406620273046998001OAK DRIVE VENTURES, INC.                                 1603
B0101406620000000962403GEOWORKS INTERNATIONAL CORPORATION                       1601
A0101406620273529780001WONG, MERLITA MALACA OR                                 10502
A0101406620273529780001WONG, KRISTINE ALMERA M.                                20500
A0101406620000014144184DE LA CRUZ, NOLIE COTALES                                0502
A0101408660000006296815PERALTA, CARLA MARIE ANGKEE                              0505
B0101408660000001940610WESTMINN CONSTRUCTION AND DEVELOPMENT                   11601
B0101408660000001940610INC.                                                    21600
A0101411110000000009178CHICO, LIEZEL GUTIERREZ                                  0501
A0101411110000014167438**************                                           0501
A0101412470000011026821CHEN, YIZHE OR CHEN, RONGYU                              0502
A0101400570281318871002REYNALDO OR MERCEDES OR                                 10501
A0101400570281318871002HERMENEGILDO VEN                                        20500
A0101400570281388539045MARLON J. GOMEZ                                          0501
A0501400200000001000131DE MESA, JOSEFINA PASCUA OR                             10502
A0501400200000001000131DE MESA III,SERGIO V.                                   20500
A0501400200000006445172LAGMAN, GIRLIE CZARINA M.                                0502
A2601400270000007951177RAYMOND RUEL D. VALLE                                    0501
A0801400160311478374103MERLINDA GUARDAMANO INAYAN                               0502
A1101400120000006081103BACSAL, EMMYLEEN BATAWAN OR BAC                         10504
A1101400120000006081103SAL, DAVID DACUNOS                                      20500
A6601400120000001065281ECHALUCE, RAFAEL OR MYRNA                                0502
A6601400120000013899206CHAN, LITO TAMBANGAN                                     0504
A2001400290000004444513MARTINEZ, CHRISTOPHER CHUA                               0501
A2001400290315042654001GFR TIRE SUPPLY AND SERVICE                             10505
A2001400290315042654001CENTER                                                  20500
A3401400280000015108562BAARDE, LOURDES BULAQUINA                                0505
B3401400280000006790965JL PRIORITY LENDING CORPORATION                          1602
A0101402350000015000298MADLA, JOHN ROBERT ALLAN RAMOS                           0501
A0101405650000000448464LUGTU, LESLIE HOWARD PATINO                              0501
B0101402510341068366001MAKI SUSHI FACTORY INC.                                  1603
A0101402510000013485800ALCALA, GINA CALA  OR                                    0502
A0101409050000016100995SAMSON, JENNIFER MICHELLE ELNAR                          0501
B0201400920375034855001SHELLS TREASURES INTERNATIONAL CORP                      1605
B0101402930000003269287TURQUOISE TRAVEL & EVENTS MANAGEMENT                    11601
B0101402930000003269287CORP.                                                   21600
A0101402930381206445003CHONA CAPILI OR RIZALDY CAPILI                           0501
A0101408370000003775042SOLIS, MA. ANGELA CLET                                   0501
A0101408370000011287284VISCARA, AUBREY GRAZE                                    0501
A0101408370382391662001MARK JOSEPH J. REYES                                     0502
A0101408370382391662002MARK JOSEPH J. REYES OR                                 10502
A0101408370382391662002LORALYN R. REYES                                        20500
B0101402770391033539001VICTORIA VALLEY ASSOCIATION, INC.                        1602
A0101402770391043391001IMPRENTA ISABEL                                          0502
A0101405490000014677122BENITUA, JOSE RAYMUNDO NOTARIO                           0502
A0101405490392510652001ENCARNACION M. GOLDING                                   0501
A0101408400000012951805URIAN, JOHN PAUL CABULAY                                 0501
A0101408400000007905851OCAMPO, SANDY ROY DE LEOZ                                0503
A0101408400000017529530CHUONGCO, KARLINE LIMLINGAN                              0501
A0101408950000015585843DOMACENA, MYCIARALEN NODALO                              0501
A0101409210000007762910PUNO, ANNA CRISTINA TEODORO                              0502
A0101409210000015605520BAGALAY, REGINE BABAGAY                                  0501
A0301400820000014657851RAZONABLE, LEANDRO C.                                    0503
A0301400820000007135060ROSALITA, JEFF MARK LAMPAGO DBU                         10502
A0301400820000007135060JMR ENTERPRISES                                         20500
A5501400120410622095001CORDER, JAIMELITA OR                                    10502
A5501400120410622095001CORDER, EDWIN                                           20500
A2401400180000016516773VELASQUEZ JR NESTOR DBU                                 10510
A2401400180000016516773GAMERSPH GAMING GEARS                                   20500
A2401400180000002146334OMAY, Z DBU CRIZA ENTERPRISES                            0503
A1201400150421252661001JOHN KWAN OR JENNY KWAN                                  0504
A1201400150421776673001CORREOS, GEROME DUA                                      0503
A0901400220000000888086**********                                               0505
A0101403030000010602089**********                                               0502
A0101412890000012474378CONFESOR, JULIAN C DBU JC                               10501
A0101412890000012474378CONFESOR ARCHITECTURAL                                  20500
A0101410140000001939984DELANTAR, DARMEL U. OR                                  10502
A0101410140000001939984SANTOS, JAIKA SO                                        20500
A0101410140000001939984DELANTAR, DARMEL U. OR                                  10502
A0101410140000001939984SANTOS, JAIKA SO                                        20500
A0501400170000009954050CUNA, JOSE MARIANO CHAN                                  0501
A3801400170000011559825COLLANTES, ALICIA TORRES                                 0502
A0101405940512020021002F. LEANO AND COMPANY                                     0502
A0101408530000017532559FLORITA, JOEY NYL VILLAMEJOR                             0501
A0101408530516571877097JESUS R. LICUANAN                                        0501
A0101408530516578215024CRISTIAN F. HALAL                                        0502
A0101411400517381317168*******                                                  0502
B0101403450521011910001KITCHEN BEAUTY MARKETING                                 1605
A0101403450000000009878EBORA, JOSSIE ALMAREZ                                    0501
A0101403610000017538600NODA, SHIRO ANN BARROQUINA                               0501
B0101403610000017535394GERODIAS HEALTH CARE SYSTEMS CORPORATION                 1603
B0101403610531009928002LAMP METALS INDUSTRIES                                   1602
B2201400250000000016913ABRAHM CHASE CORPORATION                                 1602
A2201400250561478374060MARIAN S. BANAAG                                        10501
A2201400250561478374060MEMBERS OF NATASHA                                      20500
B0101404130000005017674IPRUDENTIAL STEVEDORING AND PORT                        11605
B0101404130000005017674SERVICES INC                                            21600
A0101407720000002727791QUIBAEL, MA. PATRICIA BIANCA                            10501
A0101407720000002727791DELAS ALAS                                              20500
A0101407720000007936130TEVES, GERALDINE MARIE GAYOSO                            0501
A0101404260000000532238BONGCAYAO, SUSANA GARINO                                 0501
A0101404260000000156892RENDOQUE, CARMELITA                                     10503
A0101404260000000156892DBU NATURES BOUN                                        20500
A0101404260611343821001FONTANOZ, EDGAR OR JUDITH                                0505
A0101404260611478374075VIVENCIA HATOL                                           0501
A0101409920000005197742VIRATA, RENATO B. OR                                    10502
A0101409920000005197742TORRES, MARIA TERESA V.                                 20500
B0101409920000010528895PROBUS FINSER PHILIPPINES INC.                           1602
B0101409920650821100608**********                                               2002
A0101413440000001472873BANARES, EMILIA CC OR CABRERA,                          10501
A0101413440000001472873KIMBERLY                                                20500
A0101413990000015806154CHUA, MA. CECILIA ANG DBU                               10503
A0101413990000015806154CHE HAULING SERVICES                                    20500
A0101414120000016395336VENTOCILLA, JOHN MABI RAMOS                              0501
B0101414120000001984290GREENERGY SOLUTIONS INC.                                 1602
A0101410300000014299331RAMOS, JOAN VERONICA GARCIA                             10501
A0101410300000014299331RAMOS, JOAN VERONICA G.                                 20500
A1701400230000001786638PASCUA, MINERVA SINANG                                   0506
A1701400230000011517525ERIN, JOEBEL BUCANA                                      0501
A1701400230000017535781AGUSTIN, EWING MAMBA DBU ELOE                           10501
A1701400230000017535781PILGRIMAGE MARKETING                                    20500
B0101408240000010815197GAUDI7 PROPERTIES CORPORATION                            1602
B2801400100712019694001ESGUERRA, G DBU LUNTIAN                                 11601
B2801400100712019694001LANDSCAPING & GE                                        21600
A4101400260000017535992GARINO, KIMBO DAVID                                      0501
A4101400260000017536131GASIS, RICHEL ANNE LAVAREZ                               0501
A4101400260000017536200LAURON, GERLIE CODERA                                    0501
A4101400260000017536295MELODILLAR, MAY CONCIO                                   0501
A4101400260000017536444OLAYRES, CINDY MANAHAN                                   0501
A4101400260000017536524SEVILLA, DENISE MARTINEZ                                 0501
A4101400260000017536604TEVES, ROSAMOND SOTTO                                    0501
A4101400260000017536682YUMANG, KRISTINE ACADEMIA                                0501
A4101400390000017538553EMMANUEL C. OLAES                                        0501
A4101400420814520766027ARUTA, CORAZON G.                                        0501
A0101412340000008007710AMELISSA MARICOR E. RAMOS                                0502
A0101412340000001017930SONIA MEDINA SIBI                                        0501
A0101404840000005396712ACASIO, CYRIL PATRICK P. OR                             10501
A0101404840000005396712ACASIO, CELINE NOELLE M.                                20500
A0101404840851046725012MEDILYN G. CAMMAYO                                       0503
A0101406750000006303588CHUA, LEA THERESE LUCRECIA                              10501
A0101406750000006303588CANTERAS                                                20500
A0101406750000009471809BALDOS, MICHAEL VINCENT or                              10501
A0101406750000009471809BALDOS, ANNA                                            20500
A0101406750000000017427ANTONIO, ARNALDO QUILATAN                                0501
A0101413860000002314249DE LEON, ANGELITA VELASQUEZ                              0501
