B0101412920000000276562ALPHA STONEWORKS ENTERPRISES                             1602
A0101413020000002292742PASCUAL, JIMBE CABAUATAN                                 0502
A3001400130000000944714LIM, KLAUDIO DIAZ                                        0502
A3001400130230478374004BALABA, JANETH BORJA                                     0501
A0101400860011387667001**********                                               0501
A0101400860011478374007**********                                               0501
A0101401250000002290068ALLEN, PATRICIA TESIE M.                                 0501
A0101400150000003162336VENICE ARIANNE P. ALEGARVIZ                              0501
A0101400150061337855001YNIGUEZ, EPIFANIA GONZALES                               0501
A0101400150061430140001**********                                               0501
B0101400600071603898001*******                                                  1601
B0601400100081047066001JETT FORCE INTEGRATED SECURITY SYSTEMS                  11610
B0601400100081047066001INC.                                                    21600
A0601400100081086512001CAPUTOL, MA. JENNIFER PECJO                              0502
A0601400100081680454001POZAR, GREGORY JAMES                                     0502
A0601400520000001349491MANALASTAS, MINDA CORREA                                 0502
A0101410850000000778827MABOLO ENTERPRISES                                       0502
A0101410560000001944163CAINDOG, CHERRIE ADARNI                                  0501
A0101400730111478374017VEBELITA G. GALLETO                                      0502
B0101401960121023340001**********                                               1601
A0101401960121327963001**************                                           0501
A0101401960121380499001**********                                               0501
A0101401960121397501001**********                                               0502
A0101412630000005674393ANI, SHELLANE VERANO OR                                 10501
A0101412630000005674393LU JR., ANGEL AZARES                                    20500
B0101413310000001928856PRIME INTERNATIONAL CONTACT LENS                        11602
B0101413310000001928856INTERNATIONAL                                           21600
A0101413310000001794625ONE EXPLORE MARKETING RESEARCH                           0505
A0101401830000001281998RIVERA, RAMIL DBU ICON RBR                              10501
A0101401830000001281998GLASS AND ALUMINUM SUPPLY                               20500
A0101401830141653090001JOSELITO ALBERTO S. CASTRO OR                           10502
A0101401830141653090001KATRINA INEZ S. JAVIER                                  20500
A0101412920000005675727TUMALA, JEFFREY PANTINO                                  0501
B0101412920160022330002S.M. CASTRO MANAGEMENT & CONSTRUCTION                   11602
B0101412920160022330002SERVICES                                                21600
A0101401090000005673594REDULA, LOURDES ASPERA                                   0501
B0301400790000002301342MONTEVERDE II, GEORGE MENDEZ DBU GV & HH                11601
B0301400790000002301342MARKETING                                               21600
A0101401380201492211001ALMENDRAS, MARIA UMALI                                   0501
A0101413020000000057003********                                                 0501
A0101412500000005675590LADRILLANO, JUNER GUEVARRA                               0501
A3101400160221041646001FLA-BELL TRUCKING SERVICES                               0505
A3101400450223576401001GALLEGO, DHARIA CAJAYON                                  0502
A3101400740224059395001MALIHAN, NATALIE DBU JK AND EJ                          10501
A3101400740224059395001FOOD AND BEVERAGE                                       20500
B3101400740224380395001KU, KUO JEN AND KARUNUNGAN, AURORA                       1603
A3001400130000002063441JONGKO, JOSE MARI MARCO OR                              10502
A3001400130000002063441JONGKO, DEBORAH ELAINE                                  20500
A3001400130000000067183CURITANA, COLEEN BARRIENTOS                              0501
A3001400130230767566016MONTON, RAUL ESCOLASTICO GOMEZ                           0501
A3001400130230767566069AALA, ARMANDO SAJOL                                      0501
A3001400130230767566070AALA, MARIA CLARA ONATE                                  0501
A1901400290000000135220MARGGIE LUMBERA SALES                                    0501
B1901400290261027293001LIPA MEDICS INC.                                         1610
A1901400290261604519001PATRICK KAIBIGAN SILVA                                   0501
A1901400290000003252720DIVINA GINA SANGALANG DE CASTRO                          0501
A0101406460000002330854QUIZON, MARC DAVID LEONIDAS                              0502
A0101406460272401916001ESPIRITU, CELIA ARREZA                                   0502
A0101406620273510562001MARIGMEN, KAREN MAMAUAG                                  0501
A0101410980000000012528IFORE L. YU OR                                          10502
A0101410980000000012528JISELLE COLLEEN                                         20500
A0101411820000000023952SISON JR., JAIME DELA FUENTE                             0501
B0101412470000000045441LIM KENG HUA FOODS CORPORATION                           1602
B0101412470000002338843WEBLEND INC.                                             1601
A2001400290000001301580BONIOR, MARIO CURATIVO                                   0501
B2001400290315041308001BOTICA DE SAN FRANCISCO                                  1602
A3401400280000000002693CRUZ, CONRADO CRUZ                                       0502
A3401400280318758401001FAELDONEA, MILA MONAJAN                                  0501
B0101402350321037708001RD CASH PADALA, INC. - PARANAQUE CITY                    1603
B0101402510000000200153LPR GRAPHIC DESIGNS                                      1601
B0101402060351009365002GREEN VALLEY TOWNHOUSE OWNERS                           11601
B0101402060351009365002ASSOCIATION INC.                                        21600
B0101402060351009431001RPP SAVINGS AND LOANS ASSOCIATION, INC.                  1602
A0101409050000001662357BARAO, JOYLENE CACACHO                                   0501
A0101409050000005384818FREDRIC LANCE ONG                                        0501
A0201400760374030540001ST. FRANCIS MANPOWER SERVICES                            0501
A0201400920000001331526RSTU RED TRADING                                         0501
B0201401020000000470240GOLDEN TONIQ CORPORATION                                 1605
A0101408370382397942001DR. JULIETA S. MAHUSAY OR                               10505
A0101408370382397942001DR. TEODORO S. MAHUSAY                                  20500
B0101402770000001571682ST. ARNOLD JANSSEN SHRINE MULTI-PURPOSE                 11604
B0101402770000001571682COOPERATIVE                                             21600
A0101402770391498109001ONG, EDUARDO H.                                          0501
B0101405490392040758001SIMBAYANAN NI MARIA MULTI-PURPOSE COOP                   1605
A0101405490392170286001MARY JANE P. SABILI                                      0501
A0101405490392591892001RIZZA L. ACOL                                            0501
A0101405490392613731001CORAZON OR RICARDO OR MICHAEL                           10502
A0101405490392613731001CHRISTIAN PICHEL                                        20500
A0101408400000001855392MACASAET, RAFAEL MARASIGAN                               0502
B0101408400394586648001BYZANTINE SALON, INC.                                    1603
A0101408950396565001001GUERRERO, ARTEMIO ROXAS OR                              10502
A0101408950396565001001GUERRERO, GEORGIA ARCEGA                                20500
A5501400120000000046922CHIU, VALENTIN & JULIA EILEEN                           10505
A5501400120000000046922CHRISTIAN & CHRI                                        20500
A5501400120000002949564CLAUDIO, JOSE DACAYANAN                                  0501
A2401400180000000554938DOLERA, CANDELYN FILIPINAS                               0501
B2401400180411014376005PENBANK, INC. (A PRIVATE DEV'T BANK) -                  11603
B2401400180411014376005CALUMPANG BRANCH                                        21600
B2401400180411040906001JOLYROB FISHING                                          1605
A2401400180000002146414ANIMAS, JULIUS PETER CABATO DBU                          0503
A2401400180000001676913***********                                              0501
A2401400180411523954001ANG, DANNY KO JT                                         0502
B0901400220000000888188ST. JOSEPH INDUSTRIAL MARKETING                          1601
A0101403030441319374002**********                                               0502
A0101403030441502430001**********                                               0501
A0101412890000002747788OCHOADA, R DBU VILLAGE AUTO                             10502
A0101412890000002747788CLINIQUE                                                20500
A0501400170000005002913GUILING, ERICSON MALICDEM                                0502
A0501400170481712963001SALAZAR, MA. JOSEPHINE F.                                0501
A1401400110492029549002TRIPTORS DIAGNOSTIC CENTRE                               0504
A1601400170000001360612RUBEN D. TAMONDONG                                       0502
A0101405940000005067943PALLE, SHYAM PRASAD                                      0501
A0101405940000001534269**********                                               0501
B0101411790518059400002PLUTUS TECHNOLOGIES PHILIPPINES                         11601
B0101411790518059400002CORPORATION                                             21600
B0101403450521011671001TIMES TRADING CO., INC.                                  1604
B0101403450521022302001**********                                               1602
B0101407720602047777001MEGAJOY POWER SOLUTION INC.                              1602
B0101407720000000017610GFTG PROPERTY HOLDINGS CORPORATION                       1606
A0101407720602397743001NAZARETH, STEPHEN MAGSINO                                0503
A0101407720602399405002CLAVER P. RAMOS, M.D. OR                                10503
A0101407720602399405002THELMA E. RAMOS                                         20500
A0101407720602401162001CRUZ JR., JOSE DE VEYRA                                  0502
B0101404260000000157037INTERPRO FOOD SPECIALIST INC.                            1605
A0101409920000002260486VIRATA, RENATO BERNARDO                                  0501
A0101413570000001069501MEMBERS OF NATASHA                                      10501
A0101413570000001069501SUSANA B. SANTOS                                        20500
A0101414120000000875521GERARDO BALA OR MARIA CONSUELO                          10501
A0101414120000000875521BALA OR DIANA PATRICIA                                  20500
A0101414120000001642611NEBREJA, GLORIA ANTONIO                                  0501
B0101414120000000399093*****                                                    1604
B0101406590000000905646PENTINO SECURITY AGENCY INC.                             1602
A0101406590662317770001NUVAL, CYNTHIA DALAO                                     0502
A1301400210682478374032EVELYN P. PEREZ                                          0501
A1301400210682478374062MA. ERLINDA C CHUA                                       0501
B1301400340683353482001MARLENE R. JOSE OR JOSE MARI R. JOSE                     1602
A1301400340683478374039ABAOAG, CELIA SALVADOR                                   0502
A1301400500000000213021DARCEN, SOLEDAD MERCADO                                  0501
B1301400500000001412264ROGELIO DELA CRUZ AND                                   11601
B1301400500000001412264ROSE DELA CRUZ                                          21600
A0101408240000003955419UYAMI, NESIE DELA CRUZ                                   0501
B0101408240000000832859TIERRA DE LAS NUBES CORPORATION                          1601
A4101400550000002090940BOGNALOS, CHARMAINE GUMBAN                               0501
A0101404840851520766033FLORDELIZA M. RAVALO                                     0501
A0101404840851520766126ADELAIDA VILLANUEVA                                      0501
B0101406750852032718001PHILGREEN PLASTICS CORPORATION                           1601
A0101406750852374209002ESPINOSA, LYDIA BAUTISTA                                 0501
A0101406750852787916003TAN, LUZBELLA FORTICH                                    0505
A0101405070000000541677BRAGANZA, NORA BALLARES                                  0502
A0101413860000001887056DE LEON, ATHENA ANGELLIE DELA C                          0502
A0601400230891047872001GERONIMO, E DBU QARCH DESIGN AN                          0501
A0601400230891738531001CHUA, MARK ANTHONY GARCHITORENA                         10502
A0601400230891738531001TAYAO, GILBERT A                                        20500
