B0101407430503821100608**********                                               2050
A0301400950000017839331RUFFIN, JOCEYLIN DABUCO                                  0501
A0301400950000006080213ACUIN JR., CARLITO DAYANG                                0505
A0101410300000011355514SISON, ERIC LOUIE OR SISON,                             10501
A0101410300000011355514AURORA MARGARET                                         20500
A0101412630000000801574SALVADOR T. FLORESCA JR. OR                             10501
A0101412630000000801574ADELAIDA O. FLORESCA                                    20500
B0101412630000007157840R. S. MONTOYA & ASSOCIATES INC.                          1601
B0101403320000000037567EESC CONSTRUCTION INC.                                   1601
B0101403320471068525001XELAND, INC.                                             1605
A0101412500000018708239OLACO, ARMAN DIAZ                                        0501
A0101412500000003289992******                                                   0501
B1101400120313036429001PERPETUAL HELP MULTI-PURPOSE COOPERATIVE                 1610
A0101402930000014436023GODALLE, LIEZL MONTOYA                                   0501
A0101402930000015274838GODALLE, LIEZL MONTOYA                                   0501
A0101408400394478374094NUNEZ, GENIE                                             0501
A0101407430000011167883ROLDAN, LILIAN LLAMAS                                    0501
B0101413440000002691661VASWANI, R. DBU SERENA ENTERPRISES                       1601
A0101413570000000206351**********                                               0501
A0101410300000000026480TANSINGCO, EDWIN SANTOS                                  0501
A0101400860011528078001**********                                               0510
A0101400860011575074001**********                                               0502
A0101400860011618820001**********                                               0505
A0101401250021498847001AMELITA C. RIVERA                                        0503
A0101400150000002902752FISCHER, JANICE TUMAMBING                                0501
A0101400150000009399933CARINO, JENNIFER P.                                      0501
B0101400150061010677001MENZI AGRICULTURAL CORP.                                 1603
B0101400150061010833001VELCA TRAVEL & TOURS, INC.                               1602
B0101400150061011058001CHATHAM HOUSE CONDOMINIUM CORP.                          1605
B0101400150061038004001MENZI TRUST FUND, INC.                                   1606
B0101400150000001708681IRC PROPERTIES INC.                                      1605
A0101400150061228073002CHONG, SANDRA S. OR                                     10501
A0101400150061228073002CHONG, CHRISTOPHER S.                                   20500
A0101400150061337098062MARIA MYLIN CAYNILA                                      0504
A0101400150000006433201CHAN, ELIZABETH UY                                       0501
A0101400150000000052980HERNANDEZ, BRENDA SOLIDUM                                0502
A0101400150061518841002PAMINTUAN, MARIA RAQUEL REYES                            0502
A0101405810072234892001**********                                               0501
A0101405810000001021207CHEN, TINGYU                                             0510
A0601400100000009324049REUTTER, MARIA CHERRYL EVIDENTE                          0504
B0601400360000008477330DEPTH OFFSHORE INC                                       1603
A0101413730000002289450***************                                          0501
A0101413730000011325010CARPIO, MAUREEN DIANO OR                                10502
A0101413730000011325010CARPIO, FERNANDO                                        20500
B0101414090000013005451CARNAVAN CAR RENTAL SERVICES INC.                        1602
A0101400730000001822862ALVENDIA, AMADOR PAHATI                                  0502
A0101406040000000096946PHILIP COLE REYES                                        0502
B0101413150000017602125PHILIPPINE XINYI REAL ESTATE INC.                        1605
B0101412630000002186570JEC REALTY CORPORATION                                   1603
A0101413310000015397563ZAPANTA, REYNALDO QUIAMBAO                               0501
A7201400170000006487472PRANZA, JONAS SUMALINOG                                  0501
B7201400170000018062938WESTEAST CREDIT CORP.                                    1602
B7201400170000003773728THE ROMAN CATHOLIC BISHOP OF                            11603
B7201400170000003773728PAGADIAN, INC.                                          21600
A5001400170000001003421LEYNO, KATHERINE MARAON                                  0505
B5001400170000000169857LINK RI LOGISTICS INC.                                   1605
B0101400440161027568001GARB CLOTHING COLLECTION                                 1604
A0101401090000005320369LAXA JR., ADORABLE PINPIN                                0501
A0101401090171323996001JANE A. MACARAEG                                         0501
A0301400950000013536084**********                                               0502
A0301400950000008000762LO, KENNETH ONG                                          0501
B0101401380201034271004LC BUILDERS AND DEVELOPERS, INC.                         1604
A0101410720653478374002ZENAIDA O. CARLOS                                        0501
A0101412500000018728620ELCANO, ALBERTO MUYOT                                    0501
A0101413600000002122321CANTERAS, MARIANNE DBU CANVASS                          10501
A0101413600000002122321PRINTS MARKETING                                        20500
B3101400160221224862001JOYME ROCKSCAPES CORPORATION                             1602
B3101400740000014277513CABALLERO, JOFFER AND MANIPOL, ARLENE                   11602
B3101400740000014277513AND ADO, PERLITA                                        21600
A3101400740000017898287ANIDO, DANICA MANAIG                                     0501
B3101400740000010238898EDAPHILIPPINES INDUSTRIES INC.                           1602
A3101400870000011437619BABILONIA, IAN ANDREW RICAMORA                           0502
A3101400870000011244163LUCINE, JIJI BELONIO                                     0502
A3001400130000010506548RICABORDA, MELANIE C                                     0501
A3001400130000001261249BANJAO, JENELYN LARA                                     0501
A3001400130000008916218BRAVO, ALEXA ROSE EBARLE                                 0502
B1001400190000013508748AUGUSTUS PERFUMERIA PHILS. CORP.                         1603
A1001400190000000124803FANTONIAL, MERILY H.                                     0501
A1001400350000011297784BOLLOZOS, BERNADETTE CAYLO OR                           10501
A1001400350000011297784BOLLOZOS, EMMANUEL B.                                   20500
B1001400480000003357840BALDADO, MARIA LYDIA PEPITO DBU JOMARI                  11602
B1001400480000003357840TRUCKING SERVICE                                        21600
A1301400470000013690109ROBIE JOY A. CRUZ                                        0502
A1301400760000008699090ANA MAY GABAWAN OR MARK ANTHONY                         10510
A1301400760000008699090CHUA OR EDUARDO DELA CRUZ                               20500
A1901400290000012351836MA ADONNA MACARAIG CASTILLO                              0502
B0101401670000000178552LA JOYA PROPERTY HOLDINGS, INC.                          1602
B0101401670271045353001DETECTNET SECURITY CREDIT COOPERATIVE                    1604
A0101401670271283319001JEFFREY A. MAGSUMBOL OR ELLA                            10506
A0101401670271283319001CECILIA C. MAGSU                                        20500
A0101406460000011558326CO, VANISON GO TIAN OR                                  10501
A0101406460000011558326CO, STEPHEN YU                                          20500
B0101406620273019017001PRIMEEAST PROPERTIES, INC.                               1602
B0101411110000013536506DC MANCITA BUILDERS, INC.                                1604
A0101411820000004981728JAIME MARIANO GUILLERMO JR.                              0502
A0101412470000005380558MANZANO, PAOLO MIGUEL SOTTO                             10501
A0101412470000005380558AND MANZANO, AURORA MARIE                               20500
A0101412470000017978973SABALE, LORHEN MONTEPIO                                  0501
A0101411240000018620043LIM, LAILANI RAMOS                                       0501
A0501400200000014231044GONZALES, ROWEL SURLA DBU RGEC                          10505
A0501400200000014231044CONSTRUCTION AND SUPPLY                                 20500
B0801400160000001289892WEST VISAYAN CONFERENCE                                  1604
A0801400160000012928439NOVELYN D. GAJO                                          0502
A0801400160311478374079MANUEL F. RAGANAS JR.                                    0504
A1101400120000006186763PEDOTERA, ARSENIA PACUANCUAN                             0501
A1101400120000003022373BANTULA, EVELISA FALLE                                   0501
A6601400120000011286292ALBARIO, SUSAN GARCIA                                    0501
B3401400280000006791013NORTH PANAY PILOTS' PARTNERSHIP COMPANY                  1601
B0201400920375044764001GOLDEN ROAST CHICKEN INC.                                1603
A0201400920000005168776WILPRINTZ PRINTING AND SERVICES                          0502
A0201400920000002804480MIRANDA, SAMMY                                           0501
A0201400890000007877432TOP OF THE LINE MANPOWER                                10502
A0201400890000007877432SERVICES                                                20500
A0201400890376667775001BUYSER, MISAN CANAS OR BUYSER,                          10501
A0201400890376667775001RENZIE RAFAEL CA                                        20500
A0101402930381504048001FRANCES R. ZAMORA                                        0501
A0101408790000002031390*****                                                    0502
A0101408790383649678002YU, MARK OR LAWRENCE OR STEPHEN                         10510
A0101408790383649678002OR FRANCIS GLENN                                        20500
A0101402770391684642001PANGAN, AVELINO CAUSO                                    0502
B0101408400394037910001HARBOURSQUARE FOOD INC.                                  1605
A0101408400000010506884MAGALLEN, MARY GRACE SOLAMO                              0502
A0101408950000003171268DONATO, CATHERINE CANONIZADO                             0503
A0101408950396726811001GERARD M. MORALES OR REGINA                             10502
A0101408950396726811001ISABEL S. MORALE                                        20500
A0301400820000014657908GUADEZ, EARL LLOYD Q. OR                                10502
A0301400820000014657908GUADEZ, HERLINE M.                                      20500
A0301400820000012928695ROSILLO, JOEBUENA P.                                     0501
A0301400820409094648001LADAGA, SHERRYL E. OR LADAGA,                           10502
A0301400820409094648001JOSEPH FRANKLYN                                         20500
A2401400180000012748740AGBONG, IVY CLARISH T DBU ICM                           10502
A2401400180000012748740AIRCON TRADING AND SERVIC                               20500
A2401400180000017603059BEN-JC TRANSPORT AND ALLIED                             10501
A2401400180000017603059SERVICES                                                20500
B5101400100000010833957GAW, AIRY LUNA JT                                        1603
A5101400100000014191363DE ASIS, ADELAIDA BALOGO                                 0502
A5101400100000014191534ABARRIENTOS, CARLOS EDQUILA                              0501
A5101400100000015856736LOPENA, GAYLE MIRABUENO DBU MED                          0501
B0101403030000005944738NAUTS AND VECTORS COMPANY INC.                           1610
B0101412890000003727913ADD RESEARCH PAINTS & CHEMICALS , INC.                   1601
A0101403320000001646631SANTIAGO, LEILANI SANTIAGO                               0501
B0101403320471008854002JESUS LOVES YOU MINISTRIES, INC.                         1605
A0101403320471478374003BELICANO, LERMA D.                                       0501
A0101403320471478374003BELICANO, LERMA D.                                       0501
B0101406330472046636001ENERTECH SYSTEMS INDUSTRIES, INC.                        1610
A0101406330472298552011CARINA F. FALQUERABAO                                    0501
A0101406330000011106008LANTO, PEDRO SILVA                                       0501
A3801400170000011559916BRIONES, LEO LONTOC                                      0501
A3801400170000018577372BARRANDA, JOHN DBU JSB SECURITY                         10501
A3801400170000018577372AGENCY                                                  20500
A1901400160000013233317MAGADIA, MYRA                                           10501
A1901400160000013233317OR MAGADIA, EMETERIO                                    20500
A1901400160491282845001ARTHUR C MALALUAN OR                                    10501
A1901400160491282845001IRENE D MALALUAN                                        20500
A0101407430503036416001JUPITER'S BUTCHER SHOP                                   0510
B0101407430000013804434PARANAQUE PREMIER HOSPITAL & MEDICA                      1605
A0101407430503485493001RIVERA, MYLEEN BORJA                                     0501
A0101407430503557193001ENRICO P. ERIDIO                                         0501
B0101403580000010847460MEC - VISTA GL                                           1610
B0101403580000000015738MEC - SPV 5 & 6                                          1605
B0101403580511024916001JAYJAY REALTY CORPORATION                                1603
A0101403580511153476002THERESITA S. TIU                                         0505
A0101408530000007304430DELA RAMA, GIAN PAULO GARRA                              0502
A0101408530000011417320GANTUANGCO, ROBERT LINO BILBAO                           0502
A0101408530000008159906PRINCESS ANNE EUGENIO                                    0501
A0101411400000018725103DOYLE, BRETT ALLEN                                       0501
A0101411400000018725341CLEMENTE, KATHLEEN JARO                                  0501
A0101411400000018725432MAGHIRANG, VIKKI JANE GONZALES                           0501
A0101411400000018725512ROCELES, ERIC RAYMOND MOLO                               0501
A0101411400000018725610SALVE, AZIEL ANNE ROYOLA                                 0501
A0101412050000018205751LI, YANLI                                                0501
A0101412050000018205762GAO, JIE                                                 0505
B0101403450521019763001**********                                               1605
B0101403610531037118002SIBULO CONSTRUCTION AND DEVELOPMENT                     11601
B0101403610531037118002CORPORATION                                             21600
A0101403610531478374002GRAPE, IMELDA HANDOG                                     0501
B2201400250000012982839HIPOLITO, ROWENA QUE DBU HQ COMMERCIAL &                11602
B2201400250000012982839CONSTRUCTION SUP                                        21600
A0101410690000000710741FAJARDO, MARIA RAMONA CANLAS                             0501
A0101404130000002329051TULAGAN, JUVELYN CABARLO                                 0501
A0101407720602382305001PARDINAN, ROSSANA O.                                     0502
A0101409890000006277563AFURONG, ARMANDO DBU REALMASTER                          0503
A0101407690652698616001VELARDE, ARLENE PAROCHA                                  0501
A0101407690000000243810PAGUIO, ANA CARDENAS                                     0502
B0101413440000001085661INOCENTES REALTY & SALES CORPORATION                     1602
A0101414120000000648960AZUELA, CYNTHIA LARGADO                                  0502
A0101414120000015400621TRILOGY EVENTS & TALENTS                                10502
A0101414120000015400621MANAGEMENTS                                             20500
A0101410300000003290195MADAMBA, ARCELYN GARCIA                                  0502
A1301400340000000100330LAPENA, RAYMOND RANDALL CERTEZA                          0502
A1301400500000012913376JDG MATERNITY AND                                       10501
A1301400500000012913376LYING IN CLINIC                                         20500
A1301400500000003070139SUGAR DADDY MARKETING                                    0503
B0101408240000016419740TRIPMART TRAVEL CORPORATION                              1605
B0101408240711029537001ED LINK FOUNDATION, INC.                                 1602
A0101408240711449000001PECACHE, MONICA BAGATSING                                0501
A2801400100712039498002VECTOR PEST CONTROL                                      0502
A2801400230000009022246**********                                               0501
A2801400230000011730333JADE PLANTS AND ACCESSORIES                              0501
A2801400230000005253281EMETERIO, EVELYN PANCHO                                  0501
A4101400260000018729463FERNANDEZ, WINMAR ANTONIO                                0501
A4101400260000010623593OBIAS, CHRISTIAN B. DBU TWINJ                           10504
A4101400260000010623593BAR AND RESTAURA                                        20500
A4101400260000005333288CARAMPOT O, DBU OSCPJ                                   10502
A4101400260000005333288ENTERPRISES                                             20500
A4101400420000015978297CABAGTE, NERRIEL MATABA DBU                             10501
A4101400420000015978297NMIX TRADING & CONSTRUCTI                               20500
B4101400420000007305360VIC IMPERIAL APPLIANCE CORP.                             1601
A4101400420814422280001DELGADO, ELVIRA CARIENENA                                0502
A41014004208146005310013RAGEDA, JOSEPH BRIAN SANTOS                             0502
A4101400550000006044457PENA, MARJORIE HIPOLITO                                  0502
B4101400550000015517503LENDVISION CREDIT AND LOANS CORPORATION                  1605
B4101400550000000900014CAVITE PEOPLE FOR SOCIAL CONCERNS MULTI                 11602
B4101400550000000900014PURPOSE COOP                                            21600
A4101400550815693134001LLANES, TUDOR HERNANDEZ OR                              10501
A4101400550815693134001LLANES, PRESCILL                                        20500
A0101412340000004360683DIANNE MONIQUE A. QUERUBIN                               0502
A0101404840000003069889MIRANDA, JACK DBU BESTREAD                              10510
A0101404840000003069889TRADING                                                 20500
A0101404840000004565817FERRER JR., W DBU I & A LAUNDRY                         10502
A0101404840000004565817AND DRY CLEANING SERVICES                               20500
A0101404840851520766070ELSA NAVARRO                                             0502
A0101406750852478374096MARILOU M TERANA                                         0501
A0101405070000014045273CORDOVA, JESSER TABLIGAN DBU DM                          0502
B0101405070861020510001SILVERLINK INTL TRAVEL & TOURS CORP.                     1610
A0101405070000005619434ARTURO VITA TIAOQUI OR PATRICIA                         10503
A0101405070000005619434T. MERCADO                                              20500
A0601400230000007402188CHUA, MARK ANTHONY GARCHITORENA                          0504
A0601400230000007954121CHUA, MARK ANTHONY GARCHITORENA                          0501
