B0201400890376821100608**********                                               2004
B3101400870225821100608**********                                               2002
A0101401670000007555668SAN DIEGO, VICTORIA LAUCHENGCO                           0501
B0101401670271041515001NTC POWER HOLDINGS INC                                   1601
B0101401670271041517001MANCY HOLDINGS CORPORATION                               1601
A0101401670271186245003PATERNO, REGINA ROCES OR                                10502
A0101401670271186245003RAFEL ROCES                                             20500
B0101401670271679785001NE NOUVEAU STAR GARMENTS INC.                            1601
A0101401670000003752976SEE, EDWARD NOLASCO OR                                  10501
A0101401670000003752976SEE, SHIELA MARIE CO                                    20500
A0101401670000003752987AGUILAR, MARITES ISRAEL PARAS                           10502
A0101401670000003752987OR CANAVERAL, JED PONTING                               20500
B0101401670271045353001DETECTNET SECURITY CREDIT COOPERATIVE                    1602
B0101401670000004588423BARRETTO, JERRY LIM DBU JHEMESON TRADING                 1601
B0101401670271555562003GREEN ASIA REAL ESTATE AND DEVELOPMENT                  11601
B0101401670271555562003INC.                                                    21600
B0101402930381032581001CHRIST'S COMMISSION FOUNDATION                          11601
B0101402930381032581001MINISTRIES, INC.                                        21600
A0101400150061370228115MARIA THERESA J. CERDA                                   0501
A0101400150061376613001GABALDON, ESTER TANCO                                    0501
B0501400200292036584001SSS EXPRESS CREDIT, INC.                                 1610
B2401400180411016835001GENERAL TUNA CORPORATION                                 1605
A3801400170000002302881GARCIA, ROMULO LOPEZ                                     0501
B0101407720602018196003BELO MEDICAL GROUP, INC.                                 1605
A0101407720602396823001DR. RAQUEL M. ALVAREZ                                    0505
A0101400860011498919001**********                                               0501
A0101400860011539810003**********                                               0505
A0101400860011542443001**********                                               0505
A0101401250000002290104ATUY, FLOREIVIC JOGEI BENLOT                             0501
A0101400150000000807807ALAMIL, RODEL MIANO                                      0502
A0101400150000003162450SETH R. ARCILLA                                          0501
A0101400150000004090533SALCEDO JR., ALFONSO DE LEON OR                         10503
A0101400150000004090533SALCEDO, CLARABELLE L.                                  20500
A0101400150000009400486HOKIMOTO, NOBUYUKI NMN                                   0501
B0101400150061010985001PHILIPPINE SUGAR RESEARCH INSTITUTE                     11604
B0101400150061010985001FOUNDATION, INC.                                        21600
B0101400150061011006001LUCY CORPORATION                                         1601
B0101400150061037944001MEGAMOBILE INC.                                          1601
B0101400150000004090220RIVER SIDE STUDIOS MANILA, INC.                          1603
A0101400150061074546005VALDELLON, JOSE CHITO LAUREZO                            0501
A0101400150061226702002SISCAR, MA ARLEEN                                        0502
A0101400150061388229001CRUZ, ARISTOTLE IGNACIO                                  0501
A0101400150000006433343CO, ROLLY LORENZO OR CO, ROSINA                         10501
A0101400150000006433343LORENZO                                                 20500
A0101405810072374800002ZHANG, XIANGYING SY                                      0502
B0601400100081029282001L5 & SONS FINANCING CORP.                                1610
A0601400100081355043001LAYUG, FLORANTE OR ANAMARIE                              0501
A0601400100081478374009JOWELL MIRANDA                                           0502
A0101413730000002289609**********************                                   0502
A0101401960000002331813LADARAN, LANI VILLANUEVA                                 0501
B0101401960121241247001**********                                               1601
A0101401960121285558001**********                                               0501
A0101401960121452871001VIENA MARIE GUANLAO OR                                  10501
A0101401960121452871001VILMA V. GUANLAO                                        20500
A0101413150000003208244********                                                 0501
A7201400170000007185660DUHILAG, FELY SABADO                                     0502
A7201400170000013006541YAP, ROWEL DAVID DACULLO                                 0501
A7201400170000013855035LASTIMOSA, JOVITA RAMAYLA                                0501
B5001400170000005705244CHAN, PATRI BAJAMUNDE                                    1603
B0101400440000003766945HYPERVOLT CONTRACTOR CORPORATION                         1602
A0101407270000013048378HALILI, BERNADETTE WARREN                                0501
A0101407270162673794001IMEE P. LIM                                              0502
A0101401090171202251001AMELITA OR MARCOS BARTOLOME                              0502
A0101401090171202961001TERESITA N. SANTOS                                       0502
A0101401090171309046001CESAR M. VELASCO JR.                                     0501
A0101401090171339702001DELFIN R. JACOB                                          0504
A0101401090171343604001RAYMOND Y. NUNEZ                                         0501
A0101401090171494403002ROSALINA DE SAGUN AND MARIA                             10501
A0101401090171494403002ANTONIA AURORA VALENCIA                                 20500
A0101401090171627002001CARMELITA OR JOHN PAUL SEVILLA                           0501
A0101401090171762273001AGNES F. LOSA                                            0501
A0301400530000011715245LOW, JOSEPH BOON AUN                                     0504
A0301400660194721952088TAN SR.,JAIME OR TAN, VICTORIA                           0505
A0301400950000002115322HAO, LIEZL DBU 168MH TRUCKING &                         10505
A0301400950000002115322HEAVY EQUIPMENT                                         20500
A0101401380000000106538SANCHEZ JR., DELFIN BALAIS                               0502
A0101413020000003353831UY, DARWIN CO                                            0502
A0101412500000013853642TAN, JERROLD CO                                          0501
B0101412500000013855104TAN, JEROME MONTIERO DBU JPRIZM LAUNDRY                 11601
B0101412500000013855104SERVICES                                                21600
A3101400450000001104163VELASCO, ANASTACIA ROXANNE                              10501
A3101400450000001104163DELA CRUZ                                               20500
A3101400450223223556001*****                                                    0505
A3101400450223391676001QUITILEN, RAQUEL ORUGA                                   0501
A3101400450000005960541FERRER, MELVIN JOHN JAMORA                               0501
A3101400450223588221003GATDULA, JAMAILA AGONCILLO OR                           10501
A3101400450223588221003MADERAZO, CRISTINA                                      20500
A3101400740224077485001LI JUNG CHUANG OR MEILYN SY TAN                          0501
B3001400130000008264933ROSE EXCELLENCE CORPORATION                              1610
B1001400190231064343001NORTH MIN. YAN-YAN MARKETING CORP.                       1605
B1001400190231303753003* * * * *                                                1602
B1001400350000002048380BACONGA PATRIANA & CO., CERTIFIED P                      1601
A1001400480000006270340DAING, DAISY SALVANA                                     0501
A1301400760253087654001CATHERINE F SANVICENTE OR                               10505
A1301400760253087654001VINCENT PAUL P S                                        20500
A1901400290000009031641MARIA ARLENE BRIONES DE VEYRA                            0501
A1901400290261048993001PINKY GUCE TANGONAN                                      0502
B1901400290261060606001F.J.H. HARDWARE & ELECTRICAL SUPPLIES                    1601
B0101401670271034697001ROPER CONSTRUCTION CORPORATION                           1605
A0101401670271192355001FAVILA, NICOL CHRISTOPHER P.                             0501
A0101401670271541519001LIM, GRACE MILLISCEN LIM                                10501
A0101401670271541519001OR SHERYL ANG                                           20500
A0101408660000008622093REGENCIA, MARICHU MAGHACOT                               0501
B0101408660274044348001EXL PARAGON CORPORATE SEMINARS                          11601
B0101408660274044348001TRAINING                                                21600
A0101408660274547727001******************                                       0501
B0101400570281032931001AMMIRAGLIO INC.                                          1602
A0101400570281305334001SANTAMARIA, KARL THOMAS SERRANO                          0501
A0101400570281343717001MARIA MARGARITA REGUDO ALMORO                            0503
A0501400200000006272186BUADA, MA. GWENDOLYN SACANLE                             0501
A0501400200292499623001RAZONABLE, ALBERT REGASPI                                0501
A0801400160311478374088CHERYL C. CONDINO                                        0501
A6601400120000001065263AMANDE, BEATRIZ NALAZON                                  0501
A6601400120314593270001DIAZ, REO DBU RUDMAR TRADING JT                          0505
A6601400120314618149001DY, FRANCO NEIL TUBELLO                                  0505
B0101402350321012315001BENAMI MANUFACTURING CORPORATION                         1603
B0101405650322033563001C&P PRIME PROPERTIES INTERNATIONAL, INC.                 1602
B0101405650322036086001VISTALAND INTERNATIONAL MARKETING, INC.                  1610
B0101402510341008564002SAN BEDA COLLEGE ALUMNI ASSOCIATION                      1602
A0101402510341196467001GLORIA VERA OR                                          10501
A0101402510341196467001RAMONA SIQUIJOR                                         20500
A0101402510341196687001SIQUIJOR, RAMONA V.                                      0501
A0101402510341335212001BORABO, MILAGROS LIM                                     0501
A0101402510341419631001RUEL ROBERT A. DE GUZMAN                                 0501
A0201400920000000047965TOP WASH LAUNDRY SERVICES                                0501
A0201400890000000027892FORTRESS ELECTRICAL SUPPLY                               0503
B0201400890000007877312NG KHAI DEVELOPMENT CORPORATION                          1601
A0101402930000010658012TUYAY, MA VISITACION MACARUBBO                           0501
B0101402930381042032001GLOBAL STRATEGIC SOLUTIONS AND SERVICES                 11601
B0101402930381042032001INC.                                                    21600
A0101408370000010341710COZ, EULOGIO ROSALES                                     0502
A0101408370382205195001ELVIRA B. PUNDAMIERA OR                                 10501
A0101408370382205195001FRANCISCO R. PUNDAMIERA                                 20500
A0101408370382456514001DR. VENANCIO I. GLORIA OR                               10501
A0101408370382456514001MYRNA D. GLORIA                                         20500
A0101408790000005293825CRUZ, JOYCE ANN PACHECA                                  0501
A0101415350000007877852PELAYO, JESCTONI TORRES                                  0503
B0101402770000001571604MC GENTECH BUILDERS CORP.                                1601
B0101408400394041296001CEBU CARRAGEENAN CORPORATION                             1601
A0101408400394165609001TAN, REX BARRAMEDA                                       0501
B0101408400000006813625ANG, DAVIE UY                                            1602
A0101408400394544653001SAMOZA, MARY ANN VECINA                                  0502
B0101409180000012558140MATRIX ENTERTAINMENT, INC.                               1602
B0101409210000000031169CAISHEN MARKETING SERVICES, INC.                         1606
B0101409210000000031238******                                                   1610
A0101409210398344507001ROXAS, NARCISA NARRA                                     0502
A5501400120000000265810VALDEZ, BEVERLY JAVELLANA                                0501
B5501400120410041534001NOTRE DAME OF NEW ILOILO, INC.                           1605
B5501400120410042035001CYCLERS BYKE HUB                                         1601
A5501400120410643617001SIO, WILLIAM OR SIO, MARINA                             10501
A5501400120410643617001OR SIO, HAZEL                                           20500
B2401400180411038988088AIMICAN CORPORATION                                      1601
A0901400220000006214455**********                                               0502
B5101400100000010833935KAAMINO, MIRALYN BUCAG DBU WELK                          1604
A0101403030441241050001**********                                               0503
A0101403030441631330001**********                                               0501
B0101403320471047234001ITP CONSTRUCTION INC/TOKWING CONST. CORP                11602
B0101403320471047234001JOINT VENTURE                                           21600
A0101406330472044643001A.S.P. BASIC ENTERPRISES                                 0503
A0101406330472428084001DARWIN JEBB YLO OR MARILEN YLO                           0502
A1401400110492041611001BLUECLICKER COMPUTER CENTER                              0505
A0701400260000003259374********                                                 0501
A0101407430000011167683ASUGAS, LICEL MANUEL                                     0502
B0101403580511040308001U.P. LAW 80 FOUNDATION, INC.                             1601
A0101405940000005359902YU, HENRY LEE  OR                                       10502
A0101405940000005359902YU, CATHERINE                                           20500
B0101405940512021383001FRIENDLY ALLIANCES & MEDIA EXPRESSIONS                   1610
A0101408530516653262001CASTRO, MARIA VERONICA OR                               10501
A0101408530516653262001CASTRO, ROLAND ANTHONY                                  20500
A0101411790000013852883ALFONSO, RONALD OR                                      10501
A0101411790000013852883ALFONSO, MAJEAS                                         20500
A0101403450000013091639LU, ZI QUN AKA LU CHITO L. AKA                           0510
A0101403450000013091640YAO, JIN HUA AKA CRISTINA YAO K                          0510
B0101403450521024677001GRAND MAJESTIC MANUFACTURING CORP.                       1602
B0101403450521305916003********                                                 1602
A2201400250000001545580MEMBERS OF NATASHA (SHOECAT INC                         10501
A2201400250000001545580GAUDIOSA A. WAGE                                        20500
A0101404130601078929001EDRALIN, LESLIE KAREN GO                                 0501
A0101404130601451380001MA. RIZALINA CRUZ LIMBO                                  0501
A0101404260000003498373MA. DESIRIE J PATOC                                      0501
A0101409890000006812815PABUSTAN, CORNELIO GAMBOA                                0502
B0101409890649046871001HEINTZ BABY COLLECTIONS INC.                             1601
A0101409890000000049089GEMSTAR CLEANING SUPPLIES                               10505
A0101409890000000049089INTERNATIONAL                                           20500
A0101409890649721710001MAPILI, ERICK RYAN RIVERA                                0501
A0101409920000000523700CHOA, SORAYA ANG                                         0501
A0101413570000009426137JAVIER, MAY RULIBETH LEGAYO                              0501
A0101413570656057648047RUDINI F. CRUZAT                                         0501
B0101414120000000399133Q CLEAN LIVING PHILS. CORP.                              1603
B0101406590000003007347SOLAR REPUBLIC SOLUTIONS, INC                            1602
A0101406590662207517002CASINO, ROSITA M.                                        0501
B1301400210000005041052IRIZH BUILDERS AND SERVICES INC.                         1602
A1301400500000012913274BIO ERIXX PHARMA DISTRIBUTION                            0502
A0101408240000003311031SALVADOR EUGENIO JR.                                     0501
A0101408240000013296669BELL, MELONY MADRIAGA                                    0501
B0101408240000000832575BOCUSE FOOD CORP.                                        1605
A0101408240711196019001PATERNO, MILAGROS LAUDE                                  0501
A0101408240711319064001ANA MAY R. WONG LEE                                      0501
A2801400100000002253590REYES, MA. LERMA MARIANO                                 0501
A4101400420814331543002CHU, LAWRENCE MONERA                                     0501
B4101400550000000900138WILSTAR HARDWARE AND CONST. SUPPLY CORP.                 1602
A0101412340000003342765MARIA RAQUEL A. EDORA                                    0501
A0101412340000008681949SHERWIN DWIGHT O. EBALO                                  0501
B0101406750000000090639REY, MARK DARRELL DBU ARISE                             11601
B0101406750000000090639TRADING                                                 21600
A0101406750852620298001EMILY COLINA OR DOMINGO                                 10501
A0101406750852620298001COLINA JR                                               20500
A0101405070861530813001ELOISA A. RAMOS                                          0502
B0601400230891028118001D.M. AUTO SUPPLY                                         1605
