A1701400230000013092490AVILA, ADONIS CABINGABANG                                0501
A3101400160221219680002RONWHEELS PARTS &                                       10501
A3101400160221219680002ACCESSORIES SUPP                                        20500
A0101402060351009359002JIANDANI, SURESH G. &/OR                                10501
A0101402060351009359002JIANDANI, KAVITA                                        20500
A0101402060351384997001CHOI, JAE SOOK                                           0501
A0101402060351429720002ANGELES, ANNA LEAH LOPEZ                                 0502
A0101405940512368799002LASALA, LANI SALVADOR                                    0501
B4101400260000003679818CAGUIAT, LEONOR C AND GONZALES, GILDA G                  1601
A0101400860000005312981**********                                               0502
A0101400860000008653458**********                                               0504
A0101400860011382943004**********                                               0502
A0101400860011486826001**********                                               0505
A0101411370000005524523PATRICIO, ELIZALDE DE VILLA                              0503
A0101400150000003197700Ma. Erickarose Vanessa L.                               10501
A0101400150000003197700Meneses                                                 20500
A0101400150000010671417SINDAC, MAY HAZEL                                        0501
B0101400150061018245001PERLA COMPANIA DE SEGUROS, INC.                          1601
B0101400150061046439001NEWCRETE MANAGEMENT, INC.                                1601
A0101400150061230586001MARTIN STEPHAN JAKOB KURER                               0502
A0101400150061390534002DY, ANDREW CHUA                                          0501
A0101400150061435637001AILEEN DELIZO SABIAGA                                    0501
B0101400600071235113002******                                                   1601
A0101400600071523473001*******                                                  0501
B0101400600071603898001*******                                                  1601
A0101405810072504630001LIM, BEE SUAN                                            0502
A0101405810072710181001**********                                               0501
B0601400100081013158001TRUST INTERNATIONAL PAPER CORPORATION                    1610
A0601400100000005050202CASTILLO, MADELYN MARIANO                                0501
A0601400360000013863788SINAMBAN, JUAN CARLOS QUIZON                             0501
A0601400360000004915384MIRALLES, JAMES URETA                                    0501
B0101414090000007344665********                                                 1605
A0101400730000013861662AREGLO, CARMELA CABIGAO                                  0501
A0101400730000013861742ARELLANO, MICHELLE BAUTISTA                              0501
A0101400730000013861822GOJIT, RAMIR APOLONIO                                    0501
B0101400730111005722003MANILA TEACHERS SAVINGS AND LOAN                        11601
B0101400730111005722003ASSOCIATION INC.                                        21600
A0101406040000006014277NG, MELANEE TENG                                         0503
B0101406040000006025321ONGZEN BUILDERS INCORPORATED                             1602
A0101401960121081016001*************                                            0501
A0101401960000006004411***************                                          0501
B0101413150000000038582TRADETON CORPORATION                                     1602
B0101412630000000024073ASTRO ADVERTISING, INC.                                  1605
A0101401830141328516001JONATHAN G. SISON                                        0501
A0101401830141329878001CHENG, BELINDA YAO                                       0501
A7201400170000003773017EDULSA, NELSON CALME OR                                 10502
A7201400170000003773017EDULSA, CRISANTA                                        20500
A0101407270000001597088NANA, RAY-ANTHONY FRONDA                                 0501
A0101407270000007525375LIM, NELLIE CACHO                                        0501
B0101407270162037305001MICROGOLD INFORMATION SOLUTION AND                      11610
B0101407270162037305001PRODUCTS, INC.                                          21600
A0101407270162085922001CLEMENTE, SPIRO LU                                       0502
A0101401090171197582002ALBERTO P. PAULINO JR.                                   0501
A0101401090171366670003DAVID T. BOLONG                                          0502
A0101401090171366670004DAVID T. BOLONG                                          0502
A0101401090171366670005DAVID T. BOLONG                                          0501
A0101401090171366670006DAVID T. BOLONG                                          0501
A0101401090171787698001INGUSAN, CRISTINA TOLENTINO OR                          10502
A0101401090171787698001INGUSAN, ARFINE                                         20500
A0301400530000013862785PAL, GRACE GARILLOS                                      0501
A0301400660000010222116HONTANOSAS, LUZVIMINDA CORONG                            0505
B0301400660000003368449CASCABEL CONTRACTOR AND ALLIED SERVICES                 11601
B0301400660000003368449INC.                                                    21600
A0301400950000008868955JOSUE, ANA DBU TINTA AT PRINTA                          10503
A0301400950000008868955PRINTING SERVICE                                        20500
A0101401380000005219916HERNANDEZ, JOHN EDORA                                    0501
A0101401380000010190580LEY, MANUEL TING                                         0502
A0101413020000006295867MACASPAC, ERNESTO CASUPANAN                              0502
A3101400160000013868078RANCAP, FERDELITO P DBU EUGRACE                         10501
A3101400160000013868078ACCOUNTING SERVICES                                     20500
A3101400160221533266001ANGELITO S. LAZARO JR.                                   0504
B3101400870225029703003MITSUBISHI MOTORS PHILIPPINES SUPERVISOR                11601
B3101400870225029703003UNION                                                   21600
A3001400130000008264813SALUDES, GUILLERMA L.                                    0502
B1001400190000003017789FELIX C. IGCALINOS DBU IFM GENE                         11602
B1001400190000003017789SERVICES                                                21600
B1001400190231336026001ESLIT, RODILLO BAYRON                                    1605
A1001400350000000922014PEARSON, PILARCITA ROA                                   0502
A1901400290000008933746ANNA LIZA ALDAY JALUAGUE                                 0502
B0101406620273028992001CLUB GYMNASTICA-PASIG, INC.                              1602
A0101406620273403717001SERRANO, ROSALIE DE JESUS                                0501
A0101411110000002319991Reynaldo B. or Erlinda F.                               10501
A0101411110000002319991Fuentes                                                 20500
A0101400570281360412001DR. LONABEL A. ENCARNACION                               0502
B0801400160000011219571GOLDEN DELTA STEEL CORPORATION                           1605
B0801400160311014846001CITI APPLIANCE CORPORATION                               1612
A6601400120000002249801DE ASIS, MAR  OR LEAH                                    0502
A6601400120000009613583HORCA, ROSE JEAN COLLAMAR                                0501
A2001400290000005926069TAN, EARL FRANCIS ROMANO                                 0504
A0101402350321182462003SALAZAR, ROSALINA R.                                     0501
A0101402350000002310736ARIAS JR., ISIDORO TANZO                                 0502
A0101405650000002960810LIMCAOCO, RAFAEL ACUNA                                   0502
A0201400760374520766001CARULASAN, KRIZIA JANE BUGO                              0501
A0201400920375733530001LIM, WILKY TAN                                           0501
B0201400890376013530017RD PAWNSHOP, INC.                                        1610
A0101402930000013537214LOZADA, CARLO GIOVANNI BANZON                            0504
A0101411660000001145766*****                                                    0501
A0101405490392029745001MESINA BROTHERS, INCORPORATED                            0502
A0101408400394033093001KOLETZ ART GALLERY                                       0502
A0101408400394366627001DE JESUS, ALVIN MALVAR                                   0501
A0101408950000006424853BALILA, ELJOMER DURO                                     0501
A0101409180000011749861MANGGADA, AILENE ANGOLLUAN                               0501
B0101409180000008122876UNIONSTAR DEVELOPMENT CORPORATION                        1602
B0301400820000000132618LEI, WILSON OR LEI, MATILDE OR LEI, JAN                 11601
B0301400820000000132618MICHAELSON                                              21600
A0301400820000002272055DELA VICTORIA, MERLE D.                                  0502
A0301400820000005991882REYES, FRANCISCO A. OR                                  10504
A0301400820000005991882REYES, MARIA TERESA M.                                  20500
A2401400180411304827001JONATHAN ERWIN VILLASIS OR                              10501
A2401400180411304827001DORIZZA VILLASIS                                        20500
B0101403030441075164001**********                                               1601
B0101403030441344487001**********                                               1601
A0101403320000001803338CALAQUIAN JR., RUBEN NUGUID                              0505
B0101403320471032147001MEDZ SHOES CORPORATION                                   1601
B0101403320471043462001TRI POINT BUILDERS                                       1604
A0101403320471490023001AMITY KATHLEEN O. TAN                                    0501
A0501400170000002357359SINO CRUZ, KRISTOFERSON GARCIA                           0502
A1401400110000001806873********                                                 0503
A1401400110000001096208VELUYA, MARICRIS BILEY                                   0501
A0701400260000001804553COLIS JR., BERMUDO FERNANDEZ                             0501
A0101407430000013868610CALVEZ DIOKNO, JACQUES KATE GEO                          0501
B0101407430503024216001BASIC POLYPRINTERS & PACKAGING CORP.                     1605
A0101407430503378430001DOUGLAS ARTHUR U. LIMTONG OR                            10502
A0101407430503378430001JANE R. LIMTONG                                         20500
B0101405940512005319001MANTRADE DEVELOPMENT CORP.                               1605
B0101408530516033397001SPRINGER INTERNATIONAL, INC.                             1610
A0101411400000004555697VILLANUEVA, ELEANOR ANN ELVINA                           0501
A0101411790000013865604GARDUCE, JAIME VITTORIO TABAMO                           0501
B0101403450000011473686************                                             1604
B0101403450521011989001**********                                               1610
B0101403450521021789001**********                                               1603
A0101403450521238152001**********                                               0502
A0101403450521238152002**********                                               0506
A0101403450521238152003**********                                               0502
B0101403610000000015972LAGUNA SCIENCE AND TECHNOLOGY                           11601
B0101403610000000015972COLLEGE INC.                                            21600
A0101403610531323735001OLAZO, ROSE RODILLAS OR                                 10501
A0101403610531323735001REDADO, CHERYL OLAZO                                    20500
A0101407720602396681001DR. HENRY U. LU OR                                      10503
A0101407720602396681001JOSEPHINE Y. LU                                         20500
B0101407720602533105001C.U.R.E. OUR CHILD FOUNDATION, INC                       1601
A0101412180603046126002ALBETH BAKEHOUSE-MAIN                                    0502
A0101412180000003275443ALBETH BAKEHOUSE-MAIN                                    0501
A0101409920000011312591QUILLO, MARISSA DOMINGO                                  0502
A0101407690652034806001BROWNFLY COMMERCIAL                                      0510
A0101411530000003448242**********                                               0502
A0101411530000008555011**********                                               0501
B0101413570000003580749MORALES, EMIL T. DBU DMD PHOTOGRAPHY                     1605
A0101413990000000206033MARITES R. CONANAN                                       0502
A0101414120000000875890FLB RICE MILL                                            0502
A0101406590000011637331SORIANO, J J SAMUEL ALDAY                                0503
B0101406590662044117002D VISAGE INTERNATIONAL CORPORATION                       1602
A0101406590662154983001GALLARDO, ROWENA AGUILA                                  0502
B1301400210000005040960ARMS-ABUNDANCE HOMES REALTY SALES,                       1601
B1301400340683041930002HOPE OF GLORY COMMUNITY, INC.                            1605
B1301400340000006402502********                                                 1602
A1301400500000004093190SANTOS, SHIRLEY VILLAVERDE                               0501
A1301400500000003070082ROMEO S. CASTRO OR REYNA ANN                            10502
A1301400500000003070082C. REYES                                                20500
A1701400230693095574001GUZON, BENJAMIN ALEJO OR GUZON,                         10505
A1701400230693095574001MARIA CORAZON CH                                        20500
A1701400230000011255360TAYLAN, ANDREI BAPTISTA                                  0510
B0101408240000000005114VENTURECAP INC.                                          1602
B2801400100000012667277SUPPORTONE MANPOWER SERVICES INC.                        1610
A2801400100000000004720REYES, MYRA DBU MRC DENTAL                              10501
A2801400100000000004720CLINIC                                                  20500
A2801400100712563975001BAILEY, ROBERT ANDREW                                    0505
A2801400230000005253281EMETERIO, EVELYN PANCHO                                  0501
A4101400260000012856936AOKI, SHO ENRIQUE                                        0501
B4101400390000003346187PAGASA PHILIPPINES LENDING COMPANY                       1603
A4101400390000006302483FARIDAH M. BAGUINDA                                     10502
A4101400390000006302483DBU FARD'S FASHION STORE                                20500
A4101400420814589735001BERAY, RENE REY PULIDO                                   0502
A4101400550000000900321*************                                            0502
A4101400550815716399001DOMINGO, MYRLA GUTIERREZ                                 0502
A0101404840851358441001DOCTOR, MARIA TERESA RAFOL                               0501
A0101406750000005666817CDB ACCOUNTING AND TAXATION SER                         10502
A0101406750000005666817VICES                                                   20500
A0101406750852304046004ROMAN, TERESITA R. OR                                   10501
A0101406750852304046004ROMAN JR., TEODO                                        20500
A0101405070000010969790LAUREOLA, SUSAN DIZON                                    0502
A0101405070861197518001RICARDO G. CHAN OR                                      10505
A0101405070861197518001OLIMPIA C. CHAN                                         20500
B0601400230891038590001DUNGAO-OLALIA & SONS INCORPORATED                        1601
A0601400230000002650108TUAZON, REMIGIO ESCANO                                   0501
