B0301400950196821100608**********                                               2006
B1301400470252821100608**********                                               2003
A0101402060000000793911RONQUILLO JR., REYNALDO GAYAS                            0501
B0101402060351085656001REBINTECH CONSTRUCTION, INC.                             1601
A0101412340000009501337FERRER, ANNIE LAO                                        0502
A1901400290261050401001DIOSDADO M CAPUCHINO                                    10502
A1901400290261050401001DBU DMC DIAGNOSTIC CENTER                               20500
A1901400290261244275001SALVE M QUITASOL                                         0501
B1101400120000000653150PERPETUAL HELP MULTI-PURPOSE COOPERATIVE                 1603
B0101400860000010683231**********                                               1602
B0101400860011403823002********                                                 1601
B0101400860011435537001**********                                               1601
A0101400150000003141431GO, YVETTE DY                                            0501
A0101400600071233729001**********                                               0501
A0601400100000009324192CONCEPCION, REBECCA FRANCISCO                            0501
A0601400100081318637001CABRERA, CYNTHIA NARCISO                                 0501
A0601400520000002086006BALTAZAR, EMILY VILLANUEVA                               0501
A0101413280000000312643CARLOS R. ATAYDE OR                                     10501
A0101413280000000312643CARMEN M. ATAYDE                                        20500
A0101414090000003314843VILLANUEVA, KENNETH BAYLON OR                           10502
A0101414090000003314843VILLANUEVA, JO-AN JAMILO                                20500
A0101400730111386485175IVANHOE O. MARASIGAN                                     0502
B7201400170000008603150QUIBOY LENDING SHOP CORPORATION                          1601
A0101400440161314631001*****                                                    0501
A0101407270162353067001JULIUS CAESAR C. BABAO                                   0503
A0101401090000007525717ALFAR, SHEILA ISRA OR                                   10502
A0101401090000007525717BAOAYAN, RODNEY                                         20500
A0101401090171033023002EXCELINK INSURANCE AGENCY                                0502
A0301400530000002318561VILLANUEVA, FEDERICO MAGPAYO OR                         10501
A0301400530000002318561VILLANUEVA, MARI                                        20500
A0301400530000001409774DUMALUAN, MARIA LUZ D. OR                               10510
A0301400530000001409774DUMALUAN, DOLORE                                        20500
B0301400660000008941055RELY CONSTRUCTION & SUPPLY                               1602
A0301400790000003969484CODINO, JUDITO LAMOSTE OR                               10501
A0301400790000003969484CODINO, MARY ANN                                        20500
B0301400790000001244531LAGARTO, SHECEL DBU SHEER DEW                           11602
B0301400790000001244531PURIFIED WATER                                          21600
A0101401380000000026957BASCO, RENEL VENTURERO                                   0501
A0101410720653176518001GASCO, AMERPHIL OR LAGURA, RUTH                          0501
A0101412500000014661395QUIAMBAO, FERNANDO CARLOS                                0501
A0101413600000009611809JESUSA C. CLARIDAD DBU MAMANG                           10502
A0101413600000009611809PILAR'S FRY AND GRILL                                   20500
B3101400160221013530024RD PAWNSHOP, INC.                                        1606
A1001400350000000922014PEARSON, PILARCITA ROA                                   0502
A1301400470252490342001ELIZABETH E. BAJET                                       0502
A1301400760000005379502MAILEEN B. CAJUCOM                                       0502
A1901400290000014042854JANET AGONCILLO ADELANTAR                                0501
A1901400290000014042887GRESHA ELINA BLAY AMUL                                   0501
A1901400290000014042901KATHLEEN MAE BICERA MACAPAS                              0501
A0101406620000001686502************                                             0501
B0101400570281023961001ST. LUKE'S SAGIP BAYAN FOUNDATION, INC.                  1602
B2601400270000000083947HIMA CARE INTERNATIONAL HEALTH SERVICES                 11605
B2601400270000000083947INC.                                                    21600
B0801400160000011219593SOUTHWEST TOURS (BORACAY), INC.                          1602
B1101400120000006187113SARC FOODS CORPORATION                                   1601
B6601400120000006154150FGP - PROVIDENT FUND                                     1602
A6601400120000002249874GALVEZ, BALTAZAR DBU B. GALVEZ                          10501
A6601400120000002249874CONSTRUCTION JT                                         20500
A0101402510341199103001CORAZON D. HUANG                                         0502
A0101402510000011695073ALIBUYOG, LARRY SOMERA                                   0503
B0101402060351018528001SAN SEBASTIAN ALLIED SERVICES, INC.                      1603
A0101409050000000999562PUNZALAN, SALVE MARIE SOLIDUM                            0502
A0101409050000011559078BASAS, MANUEL VALERIO                                    0501
B0201400760374032173002MARIANO & SONS MARKETING, INC.                           1605
A0201401020000005250691PANGATUNGAN, ALEMODEN AYING                              0502
B0101402930000012171481CHRISTIE TRANSPORT INC                                   1602
B0101402930381022795001JAD PROPERTIES, INC                                      1601
B0101402930381040393001RESOURCE ONE CORPORATION                                 1601
B0101402930381047467001FLUID SOLUTIONS, INC.                                    1601
B0101408790383010868001SAN MIGUEL FOODS, INC.                                   1601
B0101408790000000039012ARDENT COMMUNICATIONS, INC.                              1603
A0101411660000005324345VARQUEZ, CELESTINA DARAUAY                               0502
A0101415350000005028831DE CHAVEZ, MEDARDO DBU MERDEC                           10502
A0101415350000005028831ENTERPRISE                                              20500
A0101405490000014653193YAMUT, JOHAN JON SPELESKI                                0501
A0101408400394039604001VDM WATERLILY ARTS AND CRAFTS                            0501
A0101408400394478374008EDUALINO, LEONORA OR                                    10501
A0101408400394478374008EDUALINO, EDGAR                                         20500
A0101408400394605254001KE, GINA DY                                              0504
A0101409180000005681074ELLA MAE CORPUZ                                          0502
A0101409210000010290198SISON, IVY PUENTEBELLA                                   0501
A0101412210000014662963PAREKH, HIITESH .                                        0501
A0101412210000008654393CAYETANO, RENE CARL SCHRAMM                             10502
A0101412210000008654393OR CALALANG, MARY BIANCA                                20500
B0301400820409091735055LIMA, WINDELL BRISTOL DBU DAVAO HOME                    11601
B0301400820409091735055BUILDERS CENTER                                         21600
B5501400120410044488008**********                                               1610
A2401400180000014543370LANSANGAN, ELIZABETH M. OR                              10501
A2401400180000014543370LANSANGAN, ORLANDO T.                                   20500
B2401400180411044070001MABUHAY TECHNOPARK CORPORATION                           1602
A1201400150421039385001JL'S CLEAN UP JANITORIAL &                              10503
A1201400150421039385001MANPOWER SERVICE                                        20500
A0901400220000011299217**********                                               0504
A0101412890000012154493ENCABO, MARIANNE EVANGELISTA                             0502
B0101406330000000162718IMPLICARE INTERNATIONAL MGT. RESOURCES                   1603
A0501400170481046585002ANG, JUSSLYNN DBU                                       10504
A0501400170481046585002AVS DISTRIBUTION                                        20500
A1901400320000014670512GERONIMO, LUCILLE LAZO                                   0502
A0701400260000013783849BELLECA, WILBUR BALASTA OR                              10501
A0701400260000013783849BELLECA, PRISCILLA P.                                   20500
A0101411400000014672234FRANCISCO, RAY AN DE JESUS                               0501
B0101411400000014228281ABID ALI, LIBERTY A DBU SAS ACCOUNTING                  11602
B0101411400000014228281SERVICES                                                21600
A0101411790000014672245YANEZ, LINUS CONCEPCION                                  0501
A0101403450521563365001RODRIGUEZ, ERNESTO MUTUC                                 0501
B0101404130601030412001EXODUS BROADCASTING COMPANY, INC.                        1605
B0101404130000000321519CARENETT_PHILIPPINES INC.                                1605
A0101404260611210387001MANGAMPAT, GREGORIO AGBUYA OR                           10502
A0101404260611210387001MA. ANNE SHARON                                         20500
A0101409890649044793001**********                                               0501
A0101409890649047047001**********                                               0510
A0101409920000000998569MEMBERS OF NATASHA (SHOECAT INC                         10501
A0101409920000000998569PEDROSA, JULIE                                          20500
A0101407690000000495443MANALO, EDUARDO VILLANUEVA                               0501
A0101407690000014674116LABAO, MERRIAM LIBANAN                                   0501
B0101407690000003767868VESUVIUS MOTOR CORPORATION                               1601
B0101407690000003767880ELBRUS MOTOR CORPORATION                                 1601
B0101407690000003768003MT. SINAI MOTORS CORPORATION                             1601
A0101407690652478374194ARQUILLANO, GLORIA - DEALERS OF                         10502
A0101407690652478374194SHOECAT, INC                                            20500
A0101407690652723779002DE JESUS, AUGUSTO THEODORE OR                           10505
A0101407690652723779002AUGUSTO OR JOSE                                         20500
A0101413440000002846320DIVINAGRACIA, CARMELA OR                                10501
A0101413440000002846320DIVINAGRACIA, MA                                        20500
A0101413570000000635643JOANALINE Z. EVANGELISTA                                 0502
A0101413990000014661500DURIN, JOHN ROMWELL AMANG OR                            10501
A0101413990000014661500DURIN, ANNE PEREZ                                       20500
A0101413990000000726512CASTRO, GIZA A.                                          0501
B0101413990000008250082AGUILA, RONALD LOREMIA AND AGLINAO,                     11610
B0101413990000008250082JUSELYN AGUILA                                          21600
A0101414120000011288910SIMBAJON, MARICEL MACAPUNDAG                             0501
A1301400210000009982198PAULINO, ALEXANDER SARMIENTO                             0501
A1301400340683411152001RIVERA, MYRNALYN LOR                                     0501
A1301400500684611748001CANOZA, MARY JANE C. OR                                 10502
A1301400500684611748001CANOZA, MARK WILLIAM                                    20500
B0101408240000006414422YAVIN TECHNOLOGIES INC.                                  1601
B2801400230000005253561PRAGMATIC DEVELOPMENT & CONSTRUCTION                    11605
B2801400230000005253561CORP.                                                   21600
B2801400230000000372730JEM SECURITY AGENCY CORP.                                1603
A4101400260000001783542FLORES, KAREN BALSOMO                                    0501
A4101400260000012856349ALBIOLA, MICHELLE JEAN VERANO                            0501
A4101400390000012157243ROWENA DE TORRES MARQUEZ                                 0503
A4101400420814418225001LOPEZ, ROSALINA OR                                      10501
A4101400420814418225001LOPEZ JR., RODRIGO                                      20500
A0101412340000014179941MICHAEL M. GALLETO                                       0502
A0101404840000014671895LIMOSINERO, MARK BRYAN OAMIL                             0501
A0101404840000014674127YAMADA, YASUHIRO                                         0501
A0101404840851046725002MA GERALDINE F. BOCADO                                   0501
B0101404840000003069652METRO PASAY HOSPITAL AND MEDICAL CE                      1602
A0101404840851520766092VIOLETA G BERMAS                                         0504
B0101413860000001767815CWI WAREHOUSING & LOGISTICS CORPORA                      1603
A0601400230000003015823ALURA, JIMMY SUENO                                      10502
A0601400230000003015823OR ALURA, MERLE                                         20500
