B1101400120313821100608**********                                               2003
B3101400160221821100608**********                                               2002
B0101406040000010857993GOLDEN BAY RESTAURANTS AND MANAGEMENT,                  11615
B0101406040000010857993INC.                                                    21600
A0101413150000003868424*********                                                0502
B0101412500000003408108EUROKONZEPT MARKETING PHILIPPINES I                      1601
A1101400120000003981317CANETE, ALEXIS JAN DY DBU CANET                         10503
A1101400120000003981317E ENTERPRISE                                            20500
A0101412890000009833872NERA, MAURA DE SAGUN                                     0501
A0101403610000017054518DELA YSLA, AGUSTIN ESPINEDA                              0501
A0101400860011425129001**********                                               0501
A0101400860011496074002**********                                               0502
A0101401250000003803267MUNOZ, JENNIE LYN COMBES                                 0502
A0101401250001120001147SEBALLA, CHERRY ANN TRIBACO                              0501
A0101411370000014023211ANINO, JELYN LUAREZ                                      0501
B0101400150061047005001BUREAUSERV GLOBAL INC.                                   1605
B0101400150000001708345SKIN SCIENCES LABORATORY, INC.                           1603
A0101400150061227864001DENNIS IGNACIO                                           0501
A0101405810072357651002HONG, QING RONG                                          0501
A0601400100081251806002MUNOZ JR., ANACLETO JUICO                                0502
A0601400360000017073148YAP, JORREL SALOVINO                                     0501
A0601400520000007553393RIVERA,JOSEPH SAENZ DBU SAND                            10510
A0601400520000007553393EXPRESS TRADING                                         20500
A0101414090000000399377***************************                              0501
A0101410850000002356885MEDRANO, R DBU RAM TRUCKING                             10502
A0101410850000002356885SERVICES                                                20500
A0101406040000003332976********                                                 0501
A0101406040000013257422PITUK, JAIME ROQUE DBU JERLU EN                          0502
A0101413310000015397592LAPADA, JEMIMA CORPUZ                                    0501
A7201400170000007185562CARUMBA, MARGIE SEPADA OR                               10501
A7201400170000007185562CARUMBA, DANIECITO PASCO                                20500
A7201400170000013006789ARANETA, NICKY VILLONES                                  0501
A7201400170000013006836LIDRES, SHEILA GRACE TAN                                 0501
B7201400170152067937001PAGADIAN JUNIOR COLLEGE (PJC), INC.                      1605
A5001400170000015711516LESTER UY ONG OR HAIDEE GO ONG                           0505
A0101401090000012442181ADALIA, CATHERINE REYES                                  0505
A0301400790000012273886PAMAONG, DENNIS ALOMARDE                                 0502
A0101401380000013916719PELLAZAR, BRIAN BERNALTE                                 0502
A0101401380000016569558YU, BRENDA DEQUITO                                       0501
B0101401380201044448088SWANSHOCK TRADING CO., INC.                              1602
B0101413020000006316849R.A. CULA CONSTRUCTION AND DEVELOPM                      1602
A0101410720000008730785MALIWAT, JETT F. DBU JFM TEXTIL                          0502
A3101400160000012033406RAMIREZ, DANILO AGUILAR OR                              10503
A3101400160000012033406RAMIREZ, JEAN PAUNLAGUI                                 20500
A3101400160221386295002ROBERT J. BANATIN                                        0502
A3001400130000006701140BALINGIT, CHRISTINE LASCO                                0502
A3001400130000012557734VERDAD JR., DANILO JAROPILLO                             0502
A3001400130000012557836MAGALONA, MAGGIE ESCABAL                                 0502
B3001400130000008264933ROSE EXCELLENCE CORPORATION                              1610
A3001400130000001271341SURALTA, GEGINIA MONTICINO                               0501
A1001400190000005709140TAN, RENARIO TOYLO                                       0503
A1001400350000000922014PEARSON, PILARCITA ROA                                   0502
B1001400350000002367273CHAN JR., BENJAMIN PO                                    1603
A1001400480000014023911PENASO, JAYSON MENDOZA                                   0502
A1001400480000017063531CARBAJAL, MARIA IMELDA PAZ                               0501
A1001400480000017030658LEGRIA, RAULIN ANDAM DBU R.A LE                          0501
A1301400470000015271435KAYZELYN F. BASA                                         0501
A1301400470252599213001REYNALDO OR ROSARIO TERESITA OR                         10503
A1301400470252599213001RAYMOND JOSEPH ODULIO                                   20500
A1301400470252599213002REYNALDO OR ROSARIO TERESITA OR                         10502
A1301400470252599213002RAYMOND JOSEPH ODULIO                                   20500
A1901400290000016639442CABALLES, IRENE ANN DIOPENES OR                         10501
A1901400290000016639442CABALLES, JOHN ANGELO E.                                20500
B1901400290261013980001VIC IMPERIAL APPLIANCE CORP.                             1602
A1901400290261246388001THE SUPERIOR OF THE BENEDECTINE                         10501
A1901400290261246388001OF THE INCARNATE INC.                                   20500
A0101401670271186238002AMELIA R. ABAYA                                          0510
A0101406460000011558371EBORA, DENNIS MALALUAN                                   0502
B0101411820000017062618LENDELL OUTSOURCING SOLUTIONS, INC.                      1601
A0101411820000012245668PANGILINAN, SATURNINO VILLARTA                           0501
A0101400570000006271996MANALANG JR., JESUS DOFREDO                              0502
A0801400160000002287590**********                                               0501
A2001400290000015169389AMARANTE, TWINNY LANE BAROT                              0501
A2001400290000011716755DUMALAG, ANTHONY TOLOMIA DBU                            10502
A2001400290000011716755ADS EDGE ADVERTI                                        20500
A0101402350000005644602GARCHITORENA, LOURRAINE RUTH M.                          0502
B0101402350321031479001MED OPTIONS MULTI SPECIALTY CLINIC                       1602
A0101405650000009767997MABINI, CATHERINE ANNE BARRAMED                          0501
B0101405650322036086001VISTALAND INTERNATIONAL MARKETING, INC.                  1610
A0101405650322047677001THE J. BIJE'S WINDOW SHOP                                0505
A0101402510341331222002ERLINDA C. RECOCO                                        0501
A0101402060351632932001MANCILLA, ABIGAIL SARDILLO                               0502
A0101409050000008491009SI, MARK JEFFERSON ANG                                   0502
A0101409050000012409842UGALDE, MERY ANN CODERIS                                 0501
B0201400760000013669355TESSITORE, AMALIA OLVIS DBU OLVIS T                      1601
A0201400920375609447001RAMIRO, MARIA ARCELI AVANZADO                            0503
A0101402930000010657862CUA, GEORGE NICHOLAS OR                                 10502
A0101402930000010657862CUA, INGRID JO-A                                        20500
A0101402930000010657873BASIS, NANCY RACADIO                                     0501
B0101402930000005645952FARMFRESHFORYOU CORPORATION                              1601
A0101402930381706358002**********                                               0501
B0101402770000000080635PHILIPPINE SKYBIRD INDUSTRIAL                           11603
B0101402770000000080635CORPORATION                                             21600
B0101405490392041752001GREAT CHRISTIAN ACADEMY FOUNDATION INC.                  1601
A0101408400000011167018DUBLIN, MARIA THERESA BUNAC                              0502
A0101408400000010506884MAGALLEN, MARY GRACE SOLAMO                              0502
B0101409210398055893001PHILMOVERS HAULING AND LOGISTICS INC.                    1608
A5501400120000015561152MONSALE, BABY JESSETTEE MIANAGU                          0501
A2401400180000002146312VENERACION, CECILIA CARANDANG                            0501
B2401400180411035164001MOMMY GINA TUNA RESOURCES (MGTR), INC.                   1610
B2401400180411040003003BRIGADA MASS MEDIA CORPORATION                           1630
B2401400180411048256002FOTON GENTRUCK CORPORATION                               1601
B2401400180411056764001RD PAWNSHOP, INC. - GENSAN REGION                        1603
B2401400180000003949220BRIGADA ROCK GARDEN RESORT, INC.                         1610
A1201400150000011167161GARCIA, PATRICK KELVIN GAPUZ                             0502
A0101403030441239106001**********                                               0501
B0101403030441241050001**********                                               1602
B0101403030441314128003**********                                               1601
B0101412890000000006920J.C. RODRIGUEZ CONSTRUCTION CORPORATION                  1601
B0101412890000000006931SUPERMIX REDI CONCRETE, INC.                             1601
B0101412890000003727899RUSTY LOPEZ ENTERPRISES INC.                             1601
A0101406330472027958001A. ANOLIN ENTERPRISES                                    0502
A0101412760000011574731TANALA, MARK LEO I DBU MLIT INT                          0501
A0101412760000011574742TANALA, MARK LEO I DBU MLIT ART                          0501
B0501400170481015881001TOYOTA DAGUPAN INC.-2                                    1615
B0501400170481018109002CSI WAREHOUSE CLUB INC.                                  1603
B1901400160491046052001BANAPRA DEVELOPMENT COOPERATIVE                          1603
A1901400160491326737002TEODORA B BORBON OR                                     10502
A1901400160491326737002MA THERESA B CHU                                        20500
A1401400110000015534779ACHACOSO, BILLY RAY GARCIA                               0501
B1401400110000005945526BALDONADO, WILFREDO ALCANTARA                            1601
A1401400110000013091435ESCARO, SHIERALYN CANDELARIA                             0503
A0701400260000006215641LANUZA, ROSE ANN TOLENTINO                               0502
A0101407430503381561001MARY TERESITA M. DE JOYA                                 0503
B0101403580000010847471KARL KARSON CONSTRUCTION CORP.                           1602
B0101403580000000214702MEC - CAMBRIDGE                                          1603
A0101403580511150595001MAXIMO P. MARIANO                                        0501
A0101403580511493558001HBO ENTERPRISES                                          0503
A0101408530000002980512MENENDEZ, MA. PILAR URRA                                 0501
A0101408530000005493132MENENDEZ, MA. PILAR URRA  OR                            10501
A0101408530000005493132MENENDEZ URRA, ANA MARIA                                20500
A0101408530000007981875CABRERA, PAOLO ANGELO TORRES                             0502
A0101403450000013091593CHEN, KUNZHANG                                           0505
B0101403450521025189001LIANA TRADING CORPORATION                                1601
B0101403450521029023001BARRINGTON CARPETS, INC.                                 1602
A2201400250000012749441VICENTE JR., EFREN AQUINO                                0501
A2201400250561258530022JOEL T. PATUBO                                          10501
A2201400250561258530022EMPLOYEES OF IEW                                        20500
A0101410690000016105650PORRAS, VILMA GARCIA                                     0510
B0101404130000012210578LINK RI LOGISTICS INC.                                   1610
A0101412180000007360416MARQUEZ, BRIAN JAMILO                                    0501
A0101412180000000259501CABEBE JR., BER DBU B. CABEBE                           10504
A0101412180000000259501ENGINEERING AND CONSULTIN                               20500
B0101412180000001293049AUTO MAGIC CORPORATION                                   1602
A0101404260000016610781MALLARI, LORENZO VICTOR BENGCO                           0501
A0101404260000016611200CASTILLO, ALFRED ELIZ CAPATI                             0501
A0101404260000013860330NAVA, EMMANUEL HERNANDEZ                                 0501
B0101404260000012711498REBEL MANILA BRAND MARKETING SERVICES IN                 1602
B0101404260000000550401ATLAS GLOBAL ADVANTAGE, INC.                             1602
A0101404260611416854003LLARENAS, MELANIO PARAGATOS                              0502
A0101404260000013860027MA. SHARON FLORES REYES                                  0501
A0101409890000000437449**********                                               0501
A0101407690652481536002MA KATHRYN ROSE H. MIGUEL  OR                           10506
A0101407690652481536002ROSALINA S.J. IS                                        20500
A0101413440000006681003BAUTISTA JR., VIRGILIO M. OR                            10501
A0101413440000006681003LUMAUIG, ALEHLIE M.                                     20500
A0101413570656057648012JUANCHO M. BEJAR                                         0502
B0101414120000007655403INFINITE EDGE CONSTRUCTION, INC.                         1604
A1301400210000003104912ZEN TEN TRUCKING AND HAULING SE                          0501
B1301400340683353482001MARLENE R. JOSE OR JOSE MARI R. JOSE                     1602
A1301400500000016802892DR. KYLESHEEN KAY M. GONZALEZ                            0501
A1701400230000011517445MONTANEZ, BEVERLY AQUINO                                 0503
B1701400230000002762525TOWN BAKERY AND CITY GROCERY INC.                        1602
A0101408240000016574660TARIGA, FRANCES ANN C.                                   0501
A0101408240711228456002MA. VICTORIA MANIQUIS                                   10501
A0101408240711228456002OR STEVE MANIQUIS                                       20500
A0101408240711396310001LESTER C. VICTORIA OR                                   10502
A0101408240711396310001GIL JOSE E. PULUMBARIT                                  20500
A2801400230000001782130GOLDEN STATE ALUMINUM GLASS &                           10505
A2801400230000001782130GENERAL MERCHAND                                        20500
A4101400260000017078883QUINITA, BENIGNO DE GUZMAN                               0501
A4101400260000017079073TOLETE, TYRONE QUINTO                                    0501
A4101400260000001783957DEPANO, ABEL DBU EXCELLENT                              10503
A4101400260000001783957DEPANO DENTAL CL                                        20500
A0101406750000007879490CABURIAN, NOEMI DELA CRUZ                                0501
A0101406750852338027001JANE G. LACHICA                                          0502
A0101406750852787916003TAN, LUZBELLA FORTICH                                    0505
A0601400230000015248667OIDA, JOSEPHINE LAYUG                                    0503
