A0101405650322522833001JIMENEZ, MARIA JEAN BREBONERIA                           0501
B0101401250000000057258EXCEL PRO PLACEMENT AND SERVICES, INC.                   1602
A0101401250021180155001TAN, BENITO KEE OR                                      10501
A0101401250021180155001TAN, DOROTHY LIM                                        20500
A0101411370000003548947DY, JEFFREY TAN                                          0501
A0101400150000003162461APPLE D. ARCO                                            0501
A0101400150000009995153NICDAO, MELINDA DOLOSO                                   0502
B0101400150061000452002DEUTSCHE BANK AG MANILA BRANCH                           1602
B0101400150000000000124WORLD AVIATION CORPORATION                               1603
B0101400150061030484001COMPOSITE WING SAVINGS AND LOAN                         11601
B0101400150061030484001ASSOCIATION INC                                         21600
A0101400150061229818001JOFFREY G. MANAID                                        0501
A0101400150061554336001ROXAS, GRACIA LOPEZ                                      0501
A0101400150000001422155DATUL, JENELYN                                           0501
A0101400150061671519001BUHAY, TELESFORO BERNAL AND                             10501
A0101400150061671519001ARIGO, MYRA NOCH                                        20500
A0101400150000002902296SOLA, ENRIQUE CHAN                                       0502
B0101400600071045155001*******                                                  1603
B0101405810072027398001JSG PREMIER REAL ESTATE, INC.                            1601
A0101405810072367320001**********                                               0506
A0601400100000000032500LACSINA, MARVIN OR CHERYLLAD                             0501
A0601400100000000141864DEL ROSARIO, ROCELLE PENA                                0504
A0601400360083629338001RUBIO JR., EMMANUEL MUNOZ                                0501
A0101410560000000268393MARIA FE TERESA E. TENG                                  0501
A0101400730111423961003ROCES, RAFAEL VILLAREAL OR                              10501
A0101400730111423961003ALCALDE, REYNALDO                                       20500
A0101401960121070250001****************                                         0502
A0101401830000014338560JOVEN, JAY CEE DELA CRUZ OR                             10501
A0101401830000014338560YALUNG, MARIBEL BABIERA                                 20500
B0101401830141029955002SHELL EMPLOYEES MULTI-PURPOSE COOP. -                   11605
B0101401830141029955002CANTEEN                                                 21600
B7201400170000003774163MACARIO N. SEPADA OR                                    11605
B7201400170000003774163JUVY P. SEPADA                                          21600
A7201400170000007185562MARGIE S. CARUMBA OR                                    10502
A7201400170000007185562DANIECITO P. CARUMBA                                    20500
A0101400440161549556001TEODORO R. BAUTISTA                                      0502
A0101407270162333003004MAURO C. AGUSTINES                                       0504
A0301400530000005001669CORTEZ, LEAH CASAS                                       0502
B0301400530193037483168LI, VINA DBU TAGUM AB MARKETING BUY &                   11605
B0301400530193037483168SELL AGRI PRODUC                                        21600
A0301400530193560797088********                                                 0501
A0301400530000002318390YAO, MARY KRIS TAN OR                                   10505
A0301400530000002318390YAO, CAIQI                                              20500
B0101401380000000106692NOCOM & COMPANY, INC.                                    1605
B0101401380201041802001D'GLACIERS' MGM INC. - MAC                               1602
A0101401380000000414286********                                                 0505
B0101412500000014273720RICAFORT, ANTHONY JAY ROSOPA DBU WGIA                   11601
B0101412500000014273720INDUSTRIAL                                              21600
B0101412500214038639002MANLY PLASTICS INC.                                      1601
B0101412500000000041669ACETECH, INC.                                            1605
A3101400870000014327209LASCO, NATZUKO DBU VIEWPOINT                            10501
A3101400870000014327209SECURITY SYSTEMS                                        20500
A3001400130000008264864CACAFRANCA, KARL RUSSEL INOCENC                         10501
A3001400130000008264864IO                                                      20500
A1001400480000014023331CHUA, OSCAR MALACAD OR CHUA,                            10510
A1001400480000014023331YIN NA KUO                                              20500
B0101401670271007779001CHANGE MANAGEMENT INTERNATIONAL,                        11601
B0101401670271007779001INC.                                                    21600
B0101406620000000193942SOURCEFIT PHILIPPINES INC.                               1602
A0101406620000003661512LEH, CANDICE EMILY LAZARO                                0501
A0101411820000001356474GENALYN ELE ASUNCION                                     0505
A0101411820000002328521JUANTA, AL VINCENT SANTIAGO                              0501
B0101411820000003085032PROGRESSIVE IDEAS, INC.                                  1602
A0101400570000000165688********                                                 0501
B0101400570000000031687PHILIPPINE DERMATOLOGICAL SOCIETY, INC.                  1604
A0101400570281359812001DR. HECTOR A. DELURIA                                    0503
A0101400570000000749593MANOLITO M. TURALBA                                      0505
A0801400160311478374106SORILLA, HAYDEE                                          0501
A6601400120314628682001JULATON, EMILY TORRES                                    0501
A0101405650000009767975NATIVIDAD, EDUARDO OR                                   10501
A0101405650000009767975NATIVIDAD, LIWANAG                                      20500
A0101405650000005284493LOPEZ, IMELDA MARCOSA LAUDE                              0502
A0101402510000011748806RUTH O. ROMERO                                           0502
A0101402510000011748908MA. RETCHEL S. MALIBIRAN                                 0502
A0101409050000003535613EMPLOYEES OF, DELL INTERNATIONA                         10501
A0101409050000003535613ARMA LORAINE AGBUYA                                     20500
B0201400760374041914001OUROKU CORPORATION                                       1605
A0101402930000010657753BORLAGDAN, ALLAN CORBELLA                                0501
A0101402930000010658223ANITA L BUENAVENTURA                                     0501
A0101402930381561419001MARIE ANNE G. LAM AND                                   10501
A0101402930381561419001EDWARD P. LIM                                           20500
A0101402930381563576002MAE A AMIHAN OR JERICO S AMIHAN                          0501
A0101411660000005323922**********                                               0502
A0101411660000010562006VARGAS, RAUL ESPANOL                                     0504
A0101402770391025704001JLD GIFTS & MAGAZINES                                    0505
B0101402770391046279001LEGACY RENOVE INC.                                       1605
A0101402770391211324002VOLANTE, EMILIANO                                        0501
B0101405490000011681559RAYOS ACCOUNTING AND ASSOCIATES                          1603
B0101405490392518855001ISABELLE ROYAL HOTEL & SUITES INC.                       1603
B0101408950000002768438WINOL INC.                                               1601
A0101409180397621225001GAQUIT, ANNA LIZA BELTRAN                                0501
A0101409210000001294548AGUILAR, JAMES RUSSEL ONG                                0501
A0101409210000002803049MAYO, ANNA MARIE TULIAO                                  0501
B0101409210398731535001PRIMA SIETE PROPERTIES, INC.                             1601
A0101412210000002714570SANCHEZ, CHRISTIAN PAYSON                                0501
A0101412210000013721318ALI JR., SACAYO MAGBANUA                                 0501
A0301400820409063822002COMEDIDO, DANTE L. DBU DL COMED                         10503
A0301400820409063822002BAKESHOP                                                20500
B0301400820409091735055LIMA, WINDELL BRISTOL DBU DAVAO HOME                    11601
B0301400820409091735055BUILDERS CENTER                                         21600
B2401400180411056150001GENSAN TBB & SONS MARKETING, INC.                        1602
A2401400180000010066201TAN, ANDRESTINE TEMPLADO                                 0502
A0101412890000001056462GO, FLORINDA DE GUZMAN OR                               10502
A0101412890000001056462MANALILI, ZARAH JANE G                                  20500
A0101412890000003237761CLAVERIA, SHERWIN SALONGA                                0502
A0101412890000003508154FALCONIT, CARLA PAGUIA                                   0502
A0101412890000009833850SAGABAEN, LAWRENCE DBU 576 MP                           10501
A0101412890000009833850PHOTO STUDIO                                            20500
A0101403320000014017788GO, MARIZ YVONNE C. DBU                                 10501
A0101403320000014017788GOKONEK MARKETING                                       20500
A0101406330472298552011CARINA F. FALQUERABAO                                    0501
A0101406330472573379001POI HOK SY                                               0501
A0501400170481319119001ENOCH O. TAN OR                                         10501
A0501400170481319119001GWENDOLYN S. TAN                                        20500
A0501400170481542622001GARCIA, PRECY OR LOMBOY, PERLA                          10503
A0501400170481542622001OR QUINTO JR., A                                        20500
A1901400320000014320491BUROG, RHOMAR BAHALA                                     0501
A1901400320000014320720DELGADO, YZOBEL PEREA                                    0501
A1401400110000003988996CARCIDO, JEFFERSON CU                                    0501
A0101407430000004687436D'LIMA, ROLAND ALPHONSUS JOSEPH                          0501
B0101407430000000035305SUREWELL EQUITIES, INC.                                  1601
B0101407430503547682001MARY GRACE NAVARRO & ALONA BARRIOS & J.                 11601
B0101407430503547682001ROBERTO ADRIANO                                         21600
A0101405940000004476222ROXAS, MARK ERIC CHUA                                    0501
A0101408530000002980512MENENDEZ, MA. PILAR URRA                                 0501
B0101408530516030112118FUTURELOGIC CORPORATION                                  1610
B0101408530516042475001ACOSTA, DEL ROSARIO & ASSOCIATES, CPA'S                  1602
A0101412050000008837130GARCIA, MARY NICOLE GALVEZ                               0501
B0101403450521504300001TAN, GREGORIO CHUA                                       1602
A0101403610000007105819ABIERA, CARMINA JAVIER                                   0501
A0101403610531004577001TAN, ELESON B DBU BRIGHTPLAS                            10502
A0101403610531004577001MANUFACTURING OR CO, IVY                                20500
A0101403610531444284001DUENAS, RENDER MACASPAC                                 10501
A0101403610531444284001OR DUENAS, RYAN                                         20500
B0101412180000003275261CBII PHILIPPINES INTERNATIONAL, INC                      1605
B0101404260000014337414JERRIL SLAUGHTERHOUSE                                    1601
A0101404260000003498471TALISAYSAY, LEO DBU ARVADA WAYS                          0502
A0101404260611151435002LORNA VEJANO AND RAUL VEJANO                             0502
A0101404260611607631001RECANA, MA. CARMELA SANTOS                               0501
A0101404260611717389001SUNGA, NERY OCAMPO AND                                  10501
A0101404260611717389001SUNGA, GERMAN OCAMPO                                    20500
B0101409890000003098173V.T. LAGUYO CONSTRUCTION, INC.                           1602
B0101409920000010528902RBV PLASTIC MANUFACTURING CORPORATI                      1603
A0101407690000000495512MARIA BELEN FEDERIZON OR                                10502
A0101407690000000495512JOSE RENEIRIO FE                                        20500
A0101407690652478374131TARROQUIN, NORA - DEALERS OF                            10501
A0101407690652478374131SHOECAT, INC.                                           20500
A0101407690652525001053JOCELYN B. JONOTA - DEALERS OF                          10501
A0101407690652525001053SHOECAT INC.                                            20500
A0101413570000009426171MERCADO, CHRISTOPHER DANIEL TAN                          0501
A0101413570656057648270MARIE YVETTE D. TUNGUIA                                  0502
B0101413990000014236272ACE DIAGNOSTICS CORPORATION                              1620
A0101413990000014328140MY AND NAZ BAKESHOP                                      0501
A0101414120000011289042MARTINEZ, JEREMIAH SOLANO                                0501
A1301400210000009982529ROSARIO, JESUS SANTOS                                    0502
B1301400340683012849001MEYCAUAYAN SECOND RURAL BANK                             1601
A1301400500000002063963NICOLAS, JAY JOSEPH GARCIA                               0503
B0101408240711036013001RSC HOLDINGS CORPORATION                                 1601
B0101408240000002419923NUTRIBASICS CORPORATION                                  1602
A0101408240711373129001HELEN C. AGONIAS                                         0501
A0101408240711383150001AURELIO III OR AURELIO JR.                              10501
A0101408240711383150001OR AARON LITONJU                                        20500
B2801400100712019694001ESGUERRA, G DBU LUNTIAN                                 11602
B2801400100712019694001LANDSCAPING & GE                                        21600
A2801400100712039498002VECTOR PEST CONTROL                                      0502
A4101400260000001783833RIVERA, GENE ARMAND FRANCISCO                            0501
B4101400390813016813001GENERAL CHEMICALS & RESINS                              11601
B4101400390813016813001CONSORTIUM                                              21600
A4101400420814020703001L & AE HOME ENTERPRISES                                  0501
A0101412340000002900238SANTOS, RUSSELL JOHN TUMAGOY                             0501
A0101412340000004360850MA. DAISY N. LIZADA                                      0503
A0101404840000009615983BONAYON, DIVINIA DAIS                                    0501
A0101404840000000683443EVELYN FRIAS                                             0502
B0101405070861047281001AVISTELE CORPORATION                                     1601
B0101405070861385408001UY, ROBERT/TAN, EDWIN/MENDOZA, MANUEL/                  11605
B0101405070861385408001LIM, CHARLIE                                            21600
B0101413860000012289522GLI-GLOBAL IMPEX CONSOLIDATION INC                       1601
