A0301400790000005692093ALDERITE, ARNOLD P. OR                                  10501
A0301400790000005692093ALDERITE, ROSIGENE O.                                   20500
A0301400790000005692106ALDERITE, ROSIGENE O*                                   10501
A0301400790000005692106OR ALDERITE, ARNOLD P.                                  20500
B0201400760374032939002GATEWAY MOTORS (CEBU), INC.                              1605
B0201400760000007134621PAGES HOLDINGS, INC.                                     1605
B0201400760000007134698PAGES HOLDINGS, INC.                                     1605
B0201400760000011325378PAGES HOLDINGS, INC.                                     1605
B0201400760000011325389PAGES HOLDINGS, INC.                                     1605
A0201400760374483197001ASTROLOGO, EDGAR ALLAN CALANG                            0501
B0101410300000007614635GL LIGHTING ACCESS PHILS. INC.                           1601
A0101407270162460613001EDGARDO L. RUSTIA                                        0502
B0301400530193041601001GRANITE CREDIT CORPORATION                               1601
B0301400530000008307700APEX PREMIER PHARMACEUTICAL AND CON                      1602
A0301400530193686503001CORPUZ, GLENN A.                                         0502
B0101400860000001005423***********                                              1602
A0101400860000001348738************                                             0502
A0101400860011035923001**********                                               0502
A0101400860011035923001**********                                               0502
A0101400860011468117001**********                                               0502
A0101400860011665018002**********                                               0501
A0101401250000004374630GANZON, MARITES M.                                       0502
A0101400150000009218008LIM, CELESTE MARIE VALENCIA                              0501
B0101400150061047933001LBP LEASING AND FINANCE CORPORATION                      1601
A0101400600000002335833******                                                   0501
A0101400600071233748640TANKING, FELICIDAD L.                                    0501
A0101405810072373265003MANANSALA, JOYCEE CATARATA                               0502
A0601400360083649312001KIM, KANG WOOK                                           0502
A0601400520000003009270NAGUIT, ALFONSO MIRANDA                                  0501
A0101413730000002229676***************                                          0501
A0101410560000005836291PAULO G. QUIZA                                           0502
A0101400730111386485175IVANHOE O. MARASIGAN                                     0502
A0101413150000000082711***                                                      0501
B0101401830141041657001PQ HEALTHSHIELD INC.                                     1610
B7201400170000003773142CARBONEL, JOHN PICO                                      1601
A0101407270000003253949GERONIMO, KEVIN RAE TAN                                  0502
A0101407270000008185622PAYUMO, MARY GRACE LIGON                                10501
A0101407270000008185622OR PAYUMO, TARA                                         20500
B0101407270162038101001BIRDS INTERNATIONAL, INC.                                1603
A0101401090000005320530AGUILAR, CARLOS ANGELO DAVID                             0502
A0101401090171195112001JOSE OR MARIELY OR JOSEPH NOEL                          10501
A0101401090171195112001OR MA. ANGELA OCONER                                    20500
A0101401090171195633002ESTRELLITA RUIZ OR                                      10501
A0101401090171195633002FREDERICK RUIZ                                          20500
A0101401090171198410001IMELDA S. DORADO                                         0502
A0101401090171200617001JOSE RICARTE OR                                         10501
A0101401090171200617001MARIZZA ORIGENES                                        20500
A0101401090171295293002ERNESTO R. GONZALES                                      0501
A0301400530000006477274LUI, LORETO RABI                                         0505
A0301400660000006755173**********                                               0501
B0301400660000003361862SOUTHSHIP HANDLERS PHILIPPINES INC.                      1602
B0301400660000003362052DAVAO DYNAMIC INDUSTRIES CORPORATION                     1601
B0301400660000003368438GREENHOPE AGRI-DEVELOPMENT CORP.                         1610
A0301400790000001776138ESCAMIS, JOSE PACLAR DBU                                10503
A0301400790000001776138ESCAMIS BUILDERS                                        20500
A0301400790000006269776SARONA JR., GILBERTO A.                                 10501
A0301400790000006269776DBU SDES ENTERPRISES                                    20500
A0301400950000010424841***********                                              0502
B0301400950000000566934YUMCHAY VENTURES CORPORATION                             1605
A0101410720653478374010SOCORRO MARASIGAN JIMENEZ                                0503
B0101410720653561759001KNOX.COM CORP.                                           1602
A3101400450000011907561AVANZADO, GRACIA GUERRA                                  0501
A3001400130230478374026SONOT, RODERICK AMAHOY                                   0501
A3001400130000001271341SURALTA, GEGINIA MONTICINO                               0501
B1001400190231024436001UMALAG FARMS INC.                                        1603
A1301400470252495255001IMELDA IRENE V. ULIP OR                                 10501
A1301400470252495255001JUANITO I. ULIP                                         20500
A1901400290000000135060ALELI GUTIERREZ PERCE OR                                10502
A1901400290000000135060FLORENCIO D PERCE                                       20500
A0101401670271546034001ANG, FELIX REYES                                         0501
A0101406620000008197508MARY ROSE D. VILLAREAL                                   0501
A0101406620000003661432IGNACIO, CHARLES JANSEN MENDOZA                          0502
A0101406620273208209001LEYNES, VIRGILIO CASTILLO                                0502
B0101411110276046529088BOOK MEDIA PRESS INC.                                    1610
A0101412470000005380423GONZAGA, MA BEATRIZ GARCIA                               0502
A0101412470000010561827SY, FAIRYLENE LARDIZABAL                                 0503
A0101400570281293586001*****                                                    0502
A1101400120313478374014ANDALES, IMELDA A.                                       0502
A1101400120313535537001COLLERA, LEONOR M. OR                                   10504
A1101400120313535537001COLLERA JR., AGUSTIN                                    20500
A6601400120000001370649TAN, NENETTE DUMALAG                                     0501
A2001400290000000924345TRINIDAD, VALERIE ANNE PALERMO                           0501
A2001400290000011716755DUMALAG, ANTHONY TOLOMIA DBU                            10502
A2001400290000011716755ADS EDGE ADVERTI                                        20500
A0101402350000005645092BASCUGUIN, GLADYS B. DBU                                10502
A0101402350000005645092GBB RENT-A-CAR                                          20500
B0101405650000000772721PREMIERE COMMUNITY PARTNERS, INC.                        1610
A0101402510000010100797DE GUZMAN, SUSAN MANGA                                   0502
A0101402510341204073001GLORIA RACUYA MAMANSAG                                   0501
A0101402510341381018001DANICA FRANCIA SANCHEZ CAUDAL                            0501
A0101402510341399626001TAMAYO, HONEY LIZA C.                                    0502
A0101409050000000939351DELA CRUZ, JOSEPHINE                                     0501
A0101409050000006986636HENSLEY, ADAM BROWNLOW                                   0501
B0101409050000007526458RELIANCE HR BUSINESS SOLUTION CORP.                      1605
A0201400760000006433398MELLADO, GLADYS GAY AGUILOS                              0501
A0201400760000009466162CUPIN, MARIA ALENINA BOLADAS                             0501
B0201400760374038778001CPERC                                                    1603
B0201400760000001612948LMDC CORP.                                               1605
A0201400920000001331571GARE, BONIFACIO PERA DBU                                10502
A0201400920000001331571GAREMED MARKETING                                       20500
B0201400890376047100001MANDAUE PRINT SHOP CORPORATION                           1605
B0101402930000005645912ARTISTESPACE INC.                                        1610
A0101402930381347955001ILUMIN C. ZAMORA                                         0501
A0101402930000000053381DELA CRUZ, LOMER HOPE BEBOSO                             0501
A0101402930381478374004ANALIN ARTIOLA                                           0501
B0101408790000000599839THE MEGACLINIC INC.                                      1603
A0101411660000000109300WILFREDO M. PADILLA                                      0501
A0101405490000000444477MARIA TERESINA G. MESINA OR                             10504
A0101405490000000444477ALFONSO E. MESIN                                        20500
B0101405490392494716001MASTERFLOW INCORPORATED                                  1605
A0101408400000010506884MAGALLEN, MARY GRACE SOLAMO                              0503
A0101408950000007837161DEL FIERRO, RENAN DE GUZMAN                              0501
A0101408950396576200001VILLALON, ANTONIO DE HITTA OR                           10502
A0101408950396576200001VILLALON, PEARL                                         20500
B0101409180000008122876UNIONSTAR DEVELOPMENT CORPORATION                        1601
A2401400180411038544001PALM, INC.                                               0502
A2401400180411272575001L & S ENTERPRISES                                       10503
A2401400180411272575001ELISEO LAO OR FE                                        20500
A2401400180411606823002MONACILLO, MARICHU SABANDAL                              0501
A1201400150421380503001MA. GEMMA M. PINLAC                                      0501
B0101403030441299321002**********                                               1601
A0101403320000001803327JULIUS CEAZAR SHOE CREATION                              0505
A0101403320471356429001NOLY T CAYABYAB                                          0505
A0101403320471432699001PONTINES, AVENIDO C.                                     0502
B0101406330000010658336SOMBILLO, RICKY CORNEJO DBU                             11602
B0101406330000010658336RBILLO BUILDERS                                         21600
A0101410140000001939984DELANTAR, DARMEL URAGA                                   0501
A0101410140000001939900BOBARES, R DBU 3FJ CONSTRUCTION                          0510
A0101412760000011574782IBITA, JESSICA PICKELL                                   0501
B0501400170481025398002COSTSAVER'S SUPERMARKET, INC.                            1601
A0501400170481254282001DR RODRIGO SEGUI OR                                     10501
A0501400170481254282001DR CARLA SEGUI                                          20500
B0701400260000000670980TOYOTA CAMARINES SUR, INC.                               1610
B0101407430503045582001PRO FREIGHT INTERNATIONAL CORP.                          1601
A0101407430503549239001ARCHIE C. MANALO                                         0502
B0101403580511017392001LENRICK CORPORATION                                      1601
B0101403580511022801001PHIL'S IMPORT-EXPORT CO., INC.                           1601
A0101403580511526199001MARIA RUBY E. REA                                        0501
B0101405940512672346001COAX5748 INC.                                            1601
B0101403450000000135588ALOHA PLASTIC PRODUCTS, INC.                             1603
A0101403610000007105900BAYQUEN, MARK ANTHONY                                   10502
A0101403610000007105900CASTILLEJOS                                             20500
A0101403610000012585110GERTOS, MICHELLE RAMA                                    0501
A0101403610000012585274BANZON, MARK LAWRENCE VALIENTE                           0501
A0101403610531302317002NORVIC D. SOLIDUM                                        0501
B0101404130601653362001SAINT AUGUSTINE'S CITY OF GOD INC.                       1601
B0101407720000007951775JSASIA INC.                                              1601
A0101407720602161915001DR. BENJAMIN ABELA JR. OR                               10503
A0101407720602161915001NADINE ABELA                                            20500
A0101407720602283353001ERWIN HERNANDEZ OR                                      10501
A0101407720602283353001AGNES HERNANDEZ                                         20500
A0101407720602343467001HENSON, GERARD FORES                                     0502
A0101407720602376703002CONRADO T. CALALANG OR                                  10502
A0101407720602376703002JOCELYN CALALANG                                        20500
A0101407720602436863001ACEBUCHE, NILO BORJA OR                                 10501
A0101407720602436863001ACEBUCHE, AMELITA                                       20500
A0101407720602496503032DIAZ, ARNEL DILAY                                        0502
A0101412180000002340676BARON, CRISTINA PATRICIA CRUZ                            0501
B0101412180000001293016JENNIEDEDIOS INC.                                        1603
A0101412180603091011001MIAN, ANNALISA PANIS OR                                 10502
A0101412180603091011001MIAN, TARIQ TAIABA                                      20500
B0101404260611005448001GUADALUPE CATHOLIC SCHOOL                                1605
A0101404260611151745001RIMANDO, AGRIPINA G.                                     0501
B0101407690652035133002********                                                 1620
A0101407690000001919913JAIRUS RAE ENTERPRISE/                                  10501
A0101407690000001919913BOBBY ALEJO                                             20500
A0101407690652445381002ENRIQUEZ, PRISCILLA OR JORAM                            10502
A0101407690652445381002OR JORAM-PIERRE                                         20500
A0101407690652525001019NACENO, LOURDES B. - DEALERS OF                         10501
A0101407690652525001019SHOECAT INC.                                            20500
A0101407690652609264004AUGUSTO DE JESUS OR                                     10501
A0101407690652609264004MILA DE JESUS                                           20500
B0101413440000002691552AGFIELD INTERNATIONAL  CORPORATION                       1601
B0101410300663082813001DELTA GRID POWER SYSTEM CORPORATION                      1610
A1301400210000007669483**********                                               0502
A1301400210000009982198PAULINO, ALEXANDER SARMIENTO                             0501
A0101408240000012315854RAMOS, ALBERTO EMILIO VELOSO                             0502
A0101408240711559938001MA. RHODORA B. SALVADOR                                  0501
A4101400420000006643401PINEDA, MARK ANTHONY ROSAS                               0502
B4101400420814015551002REGATTA CLASSICS HOMEOWNERS ASSOCIATION                  1601
B4101400420814036276001SOLARES STAINLESS TRADING                                1601
B4101400420814038765001EG&G CONSTRUCTION SUPPLY                                 1602
A4101400420814282732001DAYRIT, NICOMEDES VILLACARILLO                           0501
A4101400420814520766061ESTILLERO, SUSANA O.                                     0501
A0101404840000005396745NGO, RACY LAILA CORREA                                   0501
A0101404840851316655013NAPOLEON N. ESCALONA, JR.                                0501
A0101404840851478374116TRIXIA B ABEJERO                                         0501
A0101406750852774013001MARK JEROME SAQUING OR MARY ANN                         10502
A0101406750852774013001SAQUING                                                 20500
A0601400230000006045552LYDIA F PINGUL OR FRANCISCO                             10502
A0601400230000006045552GABRIEL P MANALA                                        20500
