A0601400230000000029930PENA, KATHERINE AMIO                                     0501
A0101412340000000031090BUDOMO, JENNIFER MARCELINO                               0501
A6601400120000000060813AVALON, LUCAS DOCTOR                                     0505
A0101401380000000106470JUNG, SEJUNG                                             0502
A0101401380000000106572AYING, LUZVIMINDA DIAZ                                   0501
A1001400190000000124701JUMARITO, LYNN S.                                        0501
A1001400480000000133439CABELLO, ERLINDA ALARIN                                  0501
A0101400310000000140810***                                                      0501
A0101400310000000141073BELLOSILLO, MAYUMI VICTORIA                              0501
A0101400310000000141102SABATER, LALAINE ESPALLARDO                              0501
A4101400550000000199359GARRIDO JR., JOSE GUILLEN                                0501
A0101408110000000202791MILITAR, MA. VICTORIA GARCIA                             0501
A0101400150000000253461CAYABYAB, EDNA ESCOBER                                   0502
A0101402060000000358781SPT LAND PROPERTIES, INC.                                0502
A0101414090000000399388******                                                   0501
A0101404840000000475952GONZALES, ROWENA POLLICAR                                0501
A0101408790000000579324MARTINEZ, RAUL SANTOS                                    0502
A0101408790000000599953DELOS SANTOS, KATHRYN PAZ                                0502
A1401400110000000628580TIAGA, EMELIA MARTINEZ                                   0501
A0101406330000000683381PENAVERDE, LOUIE MANIGBAS                                0501
A4101400420000000710198ROLITA R. GOMEZ                                          0501
A0101403320000000735739DOMINGO, VELMA RAULE                                     0502
A0101403320000000735882SATUR, NENITA BOROL                                      0502
A0101411080000000805787OR, NENCIE ONG                                           0501
A2801400230000000937537THOMAS, JHOANNA BELINGAN                                 0501
A0301400530000001009961IBOT, LETHLE P.                                          0501
A1001400480000001054795ERENO, MARINA GALLANA                                    0501
A0101412890000001056331ZABALA, MARCO ANGELO VILLA                               0501
A6601400120000001065383ALEXANDER SY OR RITA NILA CHY                            0502
A0501400200000001081112CALIMLIM JR., JOSE FERDINAND ZE                          0501
A0101408400000001231127ROSS, JENNIFER DOROMAL                                   0501
A0701400260000001232040JUDILLA, ELENA STA. ROSA                                 0501
A0101410690000001284373NINO, GLORIA RAMOS                                       0501
A1301400470000001299152MERCEDES POBLADOR PADOLINA                               0501
A1301400470000001299163XP BUILDERS                                              0501
A1301400470000001299174********************                                     0501
A0101404840000001312678ONDOY, FRANCISCO PALER                                   0501
A0101412760000001399868BLAZA, SHERYL MALUNTAD                                   0501
A0301400530000001409683RAMILO, SHARWIN S.                                       0501
A0101402480000001562129**********                                               0501
A0101408400000001614693ANG, ELLEN M DBU ELICARL SALON                           0501
A0101403450000001637874********                                                 0501
A0101403320000001646846DAISY MAE B. DOMINGO                                     0501
A0101403320000001646857***************                                          0501
A0101403320000001646868MANONG CHRIS TAPSILOGAN                                  0502
A0101400570000001681870CABALZA, DUNKIRK JOHN RIVERA                             0501
A0601400520000001706890CASTRO, KASMICHELF MIRANDA                               0501
A1401400110000001806822CHUA, JOCELYN BENITEZ                                    0501
A0101412630000001823332RODRIGUEZA JR., ANTONIO DACIR                            0501
A0101408400000001835150YU, CHUNHUA                                              0502
A0101402480000001927762********                                                 0502
A0101400150000002394625KATIGBAK, CARMENCITA D.                                  0506
A0101400150000002394636KATIGBAK, CARMENCITA D.                                  0503
A0101413440000002634608ESPINOSA, JOCEL BETH CRUZ                                0501
A0101406590000002646853SOGO-AN, SALVADOR BEIGICA                                0501
A0101406590000009055555DE BORJA, ALMA ALARCON                                   0501
A0101400860011388542003**********                                               0502
A0101400860011462049001**********                                               0503
A0101400860011520310001**********                                               0501
A0101400860011634071001**********                                               0505
A0101401250021468980001GENELYN C. CARTON                                        0501
A0101411080042377247001 *****                                                   0503
A0101400150061230586001**********                                               0502
A0101400600071295528002*********                                                0501
A0101400440161478374010VIVIAN T. REGALARIO                                      0503
A0101400440161478374051LILIA S. FELICES                                         0502
A0101401090171615473001EMERALD C. SUAREZ                                        0503
A0301400530193478374012FUEREN, JANETH C.                                        0501
A0101401380201182816002MAYORES, ENERIO A.                                       0505
A0101401380201554626001BANGURAN, MYRNA BRINGAS                                  0501
A0101400310211408110001GEMALYN ROGEL                                            0502
A0101400310211478374049ANITA S. MARTIREZ                                        0501
A0101400310211478374093ANITA F. CANON                                           0501
A3101400160221356270001RONALD J. PUA                                            0501
A3001400130230478374004BALABA, JANETH BORJA                                     0502
A1001400190231520766071MA. CECILIA N. GALMAN                                    0502
A1001400350233478374001JUNIO, ROGELIA A.                                        0501
A1001400350233539705001SIMBAJON, ELENA P.                                       0502
A1301400470252569987001MACTAL, ANGELITO VALENTIN                                0501
A1301400470252634995001LOUISE L. ANG AND LOED L. ANG                            0510
A0101401670271186238002AMELIA R. ABAYA                                          0512
A0801400160311478374084MARY P. PANERGO                                          0501
A0801400160311478374106SORILLA, HAYDEE                                          0501
A0801400160311794356001GALLOS JR., GLICERIO JOPSON                              0505
A0101405650322298552009CARMEN T. ADOR                                           0503
A0101405650322765940001LONGNO, RUDY LUBRICO                                     0501
A0101402480331020937001**********                                               0503
A0101402480331354947001*****                                                    0502
A0101402480331478374061**************                                           0501
A0101402480331497118001***************                                          0503
A0101402480331520766024JOCELYN TAPEL                                            0501
A0101402480331598412001******                                                   0501
A0101408820333041763001Y.A. HORIZON ENTERPRISES                                 0503
A0101402510341532615001HUANG, RICHARD PATRICK DERLA                             0501
A0101408400394162577001REYES, ELSA UNGSOD                                       0501
A0101408400394351061001GARRIDO, TRINIDAD FLORES                                 0501
A0101408400394478374070MARILYN C ZENAROSA                                       0502
A0101408400394666776001DILLERA, ESPERANZA RICARTE                               0501
A0101408950396206480001DAVID YU DY  OR AMY GOLETA DY                            0502
A0101409210398670961001DEL ROSARIO, CECIL GOMEZ                                 0501
A0101403320471470037001JULIETA D. MALLARE                                       0502
A0101406330472478374027MA. LUISA A. LOTERTE                                     0501
A0101406330472478374045LORNA D. GARADO                                          0502
A0101406330472542494001TEODORA A. RAZON                                         0501
A0101406330472573379001POI HOK SY                                               0501
A1401400110492035385001ENGR. MOREL L. ESCALONA                                  0501
A0101405940512682265001BANAL II, HERNANDO TUAZON                                0502
A0101408530516543430012SHERWIN LOPEZ                                            0502
A0101403450521238265001**********                                               0502
A0101407720602081606001DY, JAY VILLAR                                           0501
A0101407720602397131002**********                                               0501
A0101404260611343821001FONTANOZ, EDGAR OR JUDITH                                0505
A0101404260611478374097MILA B. RIELO                                            0501
A0101404420631383651001*****                                                    0504
A0101406590662035265001******                                                   0502
A0101406590662594820001ROYERAS, LEVI ANTHONY ANGELES                            0501
A0101410300663737649001SANTOS, ERLINDA GUTIERREZ                                0502
A1301400340683505465001MANALO, MA. LUISA DIONISIO                               0502
A0101407560686345599001ROFELIN B. SAMAR                                         0502
A1701400230693478374049PATINO, DAISY PINKY TUMAMAO                              0501
A0101408240711593767001JOCSON, ARLENIE TELEBRICO                                0501
A4101400420814478374029ENCISO, ESTER A.                                         0502
A0101404840851415679001AMORES, ROSEMARIE B.                                     0502
A0101404840851478374038EVANGELINE UMALI                                         0501
A0101404840851478374135VIRGINIA AGUILAR                                         0502
A0101404840851520766002CYNTHIA S. GERODIAS                                      0502
A0101404840851520766073ELIZABETH A. SUAZO                                       0501
A0701400260000000041050DELOS SANTOS JR. III, LEOPOLDO                          10502
A0101409050000000258279CANO, FRITZ ANNE BONZONO OR                             10501
A2601400270000000561682JANET A. GELACIO OR                                     10503
A0101412050000000697190RIVERA, TEODO DBU BLAZE EFX                             10501
A0101413280000002648337MITCHELLE ZARAH HORTALEZA OR                            10501
A0101400150061226097001BELEN LIM OR                                            10501
A0101400150061368976001GRACE R. ABESAMIS &/OR                                  10501
A0101400150061697165001SERVER, CATHERINE ANNE B. OR                            10502
A0101407270162085922002SPIRO LU CLEMENTE AND                                   10502
A0101401090171309681002FRANCIS MARIE A. PURINO                                 10501
A0301400530193617407001DAHILOG, FELY L. OR                                     10501
A0301400530193674940001APOLINARIO, FRANCIS A. OR                               10505
A3101400450223545635002ALINA, EMERISSA OR                                      10501
A0101408400394005972001FAUSTINO AND FAUSTINO                                   10504
A0101408400394462068001ABBAS, ANIAH MALOMALO OR                                10501
A0101408400394479058001PACALUNDO, JONAIDA OR PACALUNDO                         10501
A2401400180411478374027ELLEN PANTUJAN OR                                       10501
A1201400150421522578001MESINA, IMELDA RULLODA OR                               10502
A0101406330472478374053NOEL P. MOJICA OR                                       10502
A0101407720602379811001NOEL S. AYPA OR MA. CARMEN                              10502
A0701400260000000041050PEORO                                                   20500
A0101409050000000258279CANO, JESNINO IRVING                                    20500
A2601400270000000561682BARTOLOME L. GELACIO                                    20500
A0101412050000000697190EVENTS PRODUCTIO                                        20500
A0101413280000002648337MARY ROSE HORTALEZA                                     20500
A0101400150061226097001LIM, TIN CHONG                                          20500
A0101400150061368976001ROBERT GLEN R. A                                        20500
A0101400150061697165001CHRISTINE MICHELLE                                      20500
A0101407270162085922002JOSEF CHUA LU                                           20500
A0101401090171309681002OR STEPHANIE C.                                         20500
A0301400530193617407001DAHILOG, MA. EDI                                        20500
A0301400530193674940001LOU JOSEPHINE M.                                        20500
A3101400450223545635002GATDULA, ENRICO                                         20500
A0101408400394005972001ENGINEERING                                             20500
A0101408400394462068001ABBAS, JOHN-SACA                                        20500
A0101408400394479058001OR PACALUNDO, MAMINTAL                                  20500
A2401400180411478374027ELMER PANTUJAN                                          20500
A1201400150421522578001MESINA, ANTHONY PELAUSA                                 20500
A0101406330472478374053JOCELYN P. MOJICA                                       20500
A0101407720602379811001TERESA G. AYPA                                          20500
B0101404130000000001270GAME CRAFT, INC.                                         1603
B0101406620000000015005CARPIO & BELLO LAW OFFICES                               1601
B0101413440000000038253HUMEL REALTY, INC.                                       1601
B0101402480000000045645UNIVERSAL GENERICS PHARMACY INC.                         1603
B0101413730000000469723********************                                     1601
B0101401670000000739191VINCOPACIFIC INC                                         1601
B0101407270000000830722SUPERWEALTH TECHNOLOGIES INC.                            1601
B0101412050000000890951GRANDJURY SECURITY SERVICES INC.                         1602
B0301400530000001009841GUO, YUANSHEN                                            1601
B0101402480000001562301ROSTECH PHILIPPINES, INC.                                1602
B0101403320000001647150ARKTEK SYSTEM BUILDERS INC.                              1602
B0101402480000001927562**********                                               1610
B0101402480000001927591LIM, JOHN EDGAR DBU EASYON TRADING                       1605
B0101402480000001927813**********                                               1601
B0101401250021007015001RIZAL FUNERAL HOMES, INC.                                1605
B0101400730111015420002FELANER REALTY DEVELOPMENT CORPORATION                   1606
B0301400530193041601001GRANITE CREDIT CORPORATION                               1602
B0301400530193044706199ROYAL CROWNE BEVERAGES                                   1603
B0101401380201006746003FIREHOUSE PHILIPPINES, INC.                              1602
B0101401380201006932003PITSTOP, INC.                                            1601
B0101401380201018537001VELUZAR(PASAY) INC.                                      1601
B0101401380201026760001PAG & D BAR & ENTERTAINMENT CORP.                        1602
B0101401380201525090001HONGKONG MASTER COOK CORPORATION                         1603
B3101400450223018245001PERLA COMPANIA DE SEGUROS, INC.                          1604
B3101400740224041181001SHIN HEUNG ELECTRO-DIGITAL INC.                          1603
B0101406620273031852001EDGE INTERLINKS CORPORATION                              1603
B0101405650322018681014LANDCO PACIFIC CORPORATION                               1603
B0101402480331034340088**********                                               1601
B0101402480331039628002TOTALGENERICS PHARMACY INC.                              1603
B0101402480331040325001**********                                               1603
B0101402480331047395001**********                                               1601
B0101402480331224641001**********                                               1603
B0101402480331541030001*****************                                        1601
B0101402480331541505003PHARMAGENERICS, INC.                                     1603
B0101402510341030386001OLIAND HAUTE COUTURE, INC.                               1602
B0101408400394035588001JUANSIXATE CO. INC.                                      1606
B0101408400394042504001DOTS PER INCH PRINTING CORPORATION                       1602
B0101408400394042504001DOTS PER INCH PRINTING CORPORATION                       1602
B0101408400394586648001BYZANTINE SALON, INC.                                    1603
B2401400180411035164001MOMMY GINA TUNA RESOURCES (MGTR), INC.                   1610
B0101407430503030799001EBERS MANPOWER & ALLIED SERVICES INC.                    1602
B0101405940512028730001S' SERVICES, INC.                                        1602
B0101403450521011975001**********                                               1602
B0101403450521036267001**********                                               1606
B0101404130601100142001FOOD INDUSTRIES, INC.                                    1603
B0101407720602612671001EMERGENPRO INC.                                          1602
B0101404260611027994001DELRENE EB CONTROLS CENTER                               1602
B0101404420631542146001GERONIMO, SANTIAGO NICOLAS JT                            1601
B0101408240711026617001TOKYO HEALTHLINK, INC.                                   1603
B0101408110000001199282ASIA SOCIETY FOR SOCIAL IMPROVEMENT AND                 11601
B1001400190231272342001CHOI, ELISA                                             11602
B6601400120314047332001ST. ANTHONY FARM INSTITUTE OF                           11601
B5501400120410041742001BRAKE EN' SHOP CONVENIENCE                              11601
B0101408110000001199282SUSTAINABLE                                             21600
B1001400190231272342001CHOI, WING ON                                           21600
B6601400120314047332001TECHNOLOGY INC.                                         21600
B5501400120410041742001STORE                                                   21600
B3101400450223821100608**********                                               2002
B0101410430282821100608**********                                               2002
B2301400150301821100608**********                                               2002
B1201400150421821100608**********                                               2002
