A4101400420814017785001MONZON GENERAL MERCHANDISING                             0510
A4101400420814520766074VESTUIR, ROSALINDA                                       0501
A4101400420000004847890MEMBERS OF NATASHA (SHOECAT INC                         10502
A4101400420000004847890NELLIE B. CARAIG                                        20500
A0101402930000003710687JOSON, ANTHONY SIAO OR JOSON,                           10502
A0101402930000003710687MICHAEL ANTHONY NOBLEZA                                 20500
A4101400420000002084551MACAPAGAL, ARVIN JUSTIN TAMONDO                          0502
A4101400420000002084631MANICIO, MARIA ARMI ORTEGA                               0501
B4101400420814245166002UCCP-ANABU CHRISTIAN SCHOOL, INC.                        1605
A4101400420814405680001TIBAYAN, CYNTHIA SAPUTIL                                 0501
A4101400420814478374044BERATIO, MARITES M.                                      0501
A0101402060351217441012NAVAL, ABNER A.                                          0502
B0101402060351442278001ASAHI GLASS PHILIPPINES HOSPITALIZATION                 11603
B0101402060351442278001FUND, INC.                                              21600
A0101402060351554316001DEL ROSARIO JR., RUBEN SANTIAGO                          0501
A4101400420814520766102EUFRACIA TINGEL                                          0501
A4101400420814520766118ADOC, MYLEN A.                                           0501
A4101400420814574115001SEBASTIAN, ROSE VIRGINI CARASIG                          0502
A0101405810000001021172PUA, C DBU MCK SCHOOL & OFFICE                          10503
A0101405810000001021172SUPPLIES                                                20500
A0101405810072383141002WANG, CIHAI                                              0502
A3001400130000001261169LIM, MICHELLE ZOSA                                       0503
A3001400130230478374028MAGLASANG, ELIZABETH DAHANG                              0501
A3001400130230767566088YU, ODILIO UY                                            0501
A0501400200000006444982BAUTISTA, BEBOT TING DBU                                10501
A0501400200000006444982CAPTAIN "B" FARM                                        20500
A0101403320471478374055BENITO OR REYZEL ESLABA                                  0501
A0101412050000000367908**************                                           0501
A0101412050000002314443DAYRIT, WILLIAM BRIOL                                    0501
B0101400860000001005321**********                                               1602
A0101400860011412773001**********                                               0505
A0101400860011475514002**********                                               0502
A0101400860011539633001**********                                               0502
A0101400860011570367001**********                                               0504
A0101400860011582198001**********                                               0505
A0101400150000003162887KARINA MARIE V. CACHO                                    0501
A0101400150000003218328ALLAN ADRIAN M. TANALIGA                                 0503
A0101400150000003141471MALCO, CHRISTOPHER LOPE                                  0501
B0101400150061011079001QUASHA ANCHETA PENA & NOLASCO                           11610
B0101400150061011079001LAW OFFICE                                              21600
B0101400150061044906001G-GATEWAY MOBILE PHILIPPINES INC.                        1605
A0101400150061236944140MAE S. VILLANUEVA                                        0501
A0101400150000001708243LAMATA, MANUEL RODRIGUEZ                                 0502
B0101400150061292733001NAF INDUSTRIES INC.                                      1601
A0101400150061433959002KIMURA, KUMI                                             0501
A0101400150061739693001***********                                              0501
A0601400100081345068001GUIAO, JOEL MANABAT                                      0501
A0101413730000003715779**********************                                   0501
A0101410560000001944072VALEN, ROSANA RETIG                                      0501
B0101406040000001392041********                                                 1603
B0101406040000004587646********                                                 1602
A0101401960121238737001*********                                                0503
A0101413150000003868366VIRAY, MERCY RUIZ                                        0501
A0101412630000000909768LAUZON, BEATA GRATIL                                     0501
B7201400170000003773557ASUGAS, GRACE MARIE N. AND DECIPULO                     11604
B7201400170000003773557WILLEJARDO M.                                           21600
A7201400170000002791433PULMANO, DIEROSEL LARIDE                                10503
A7201400170000002791433OR PULMANO, JULIUS MARZAN                               20500
A7201400170000003773017EDULSA, NELSON CALME OR                                 10502
A7201400170000003773017EDULSA, CRISANTA                                        20500
A7201400170000003773200MONSALES, RYAN PAUL ALGAR OR                            10502
A7201400170000003773200KAGATAN, PHILIP LACHARON                                20500
A7201400170000006695972VIRATA, JOSEPHINE NAPAO                                  0501
A7201400170000006698055RANILE, JOHN TIU                                         0501
A5001400170000000213932TAN, WINLEY YU OR                                       10502
A5001400170000000213932YU, LEONARD OLIVAR                                      20500
A0101400440000004901440NLR INSURANCE SERVICES                                   0503
A0101400440000002034731JIM, JENNIFER UY                                         0502
A0101400440161478374006JOSEPHINE R. VEGA                                        0502
A0101407270000006715659REYES, ARVIN SINANG                                      0501
A0101401090000001618731GUGOL LEARNING AND RESEARCH                             10501
A0101401090000001618731SERVICES                                                20500
A0101401090171196085001DR. IVAN OR JANE MARIE                                  10505
A0101401090171196085001VILLESPIN                                               20500
A0101401090171198417001ERLINDA HIPOLITO OR CAROLINA                            10510
A0101401090171198417001AMARO OR LOURDES MEDRANO                                20500
A0101401090000000210339AFURONG, MARICEL MIRALLES                                0501
A0101401090171637280001JOVANI G. BOLIVAR                                        0502
A0101410720000004626379ISHIMURA, LEONIDAS B.                                    0501
A0101410720653452116001VIRGILIO R. BACQUEL JR.                                  0502
A0101410720653478374002ZENAIDA O. CARLOS                                        0501
A0101410720653479613001PABLITO OR FE OR RONALD JOHN OR                         10502
A0101410720653479613001PRINCESS JOY FLORES                                     20500
A0101412500000001146747DELA CRUZ, RITA RAVELO                                   0504
A3101400870000006735271CARREOS, MARIA MARGARITA                                10501
A3101400870000006735271DEL PRADO                                               20500
A3101400870000000074731KARUNUNGAN, RUBY DBU SKY FOOD                           10502
A3101400870000000074731ALLEY                                                   20500
A1001400190231520766110MAYOR, CARMELITA ANGCAY                                  0501
A1001400350000000017774VENADAS, MARC LOUIE L. OR                               10503
A1001400350000000017774VENADAS, ANGELIC                                        20500
A1001400350000000017165MEN DBU A&L MARKETING SOLUTIONS                          0501
A1001400350233272028001MAANDIG, ERLINDA B. OR                                  10503
A1001400350233272028001MAANDIG, CARLSTO                                        20500
A1001400350233478374006IBANEZ, ELSA                                             0501
A1001400350233675969001INESIN, LYDIA TRINIDAD                                   0502
B1001400480000004097103TIU, LEMUEL YAP DBU LERETTE TRUCKING                    11601
B1001400480000004097103SERVICES                                                21600
A1301400470000001299196PRECILLA DR. NADORA                                      0502
A1301400470000001299009NIDA S. AQUINO                                           0501
A1901400290000004366103WONG, GWENDOLYN KU                                       0502
B1901400290000001363199RD PAWNSHOP, INCORPORATED                                1603
B1901400290261023962001CAROUSEL ENTERTAINMENT CORPORATION                       1605
B1901400290261023962003CAROUSEL ENTERTAINMENT CORPORATION                       1610
A1901400290261244409001ESPERANZA PAZ M LEYEZA OR                               10502
A1901400290261244409001JUAN GUALBERTO M LEYEZA                                 20500
A1901400290261488341159DR. JOSEPH E MANGONON                                    0501
B0101401670271007081001BELSON DEVELOPMENT CORPORATION                           1604
A0101401670271188489001CARMEN C. LIM                                            0501
A0101401670000000016195WU, SHI MUH SY                                           0501
A0101406620000000962209ROMBLON, TYRONE JOHN SUMO                                0501
B0101406620273025607004DELL EQUIPMENT & CONSTRUCTION                           11602
B0101406620273025607004CORP.                                                   21600
A0101406620273528771002***************                                          0501
B0101411820000003085112HARDCOM COMPUTER SYSTEM CO.                              1601
A0501400200000006444982BAUTISTA, BEBOT TING DBU                                10501
A0501400200000006444982CAPTAIN "B" FARM                                        20500
B0801400160000001289983QUEEN CITY DEVELOPMENT BANK, INC.                        1602
A0801400160000000009452JESTER FOOD PRODUCTS                                     0505
B0801400160311060733001MABUHAII NURSING HOME, INC.                              1602
A6601400120000000022328MACABUHAY, MARIA LORENA PONELAS                          0503
A3401400280000001723382BENLIRO, ALFIE TIANCHON                                  0501
A0101402350321365573001CORAZON M. FERMIN OR ROSARIO C.                         10501
A0101402350321365573001MERCADO OR JOSE D. GANTAN                               20500
A0101402350321699706001DE LARA, JAY GALLARDO                                    0501
A01014056503220410060013805 PHARMACY                                            0502
A0101402510000000200062BERNALDEZ, LIGAYA MACALINTAL                             0502
A0101402510341232460006LU, HANS TE                                              0501
A0101402510341661836001QUILON, ANNABEL DELA CRUZ                                0501
A0101402060351038780001A.L. AQUINO ENTERPRISES                                  0503
A0101402060351211783001LUISITO &/OR EMILIA BERNARDO                             0505
A0101409050000003533537CASTILLO, PAULO CESAR S.                                 0501
A0101409050000006729526DALISAY, EDUARDO LEGASPI                                 0501
A0101409050000006729582AMAR, JEREMY HARRY CASTILLO                              0501
A0101409050000006730145ARCILLA, DANILO OLIDO                                    0501
A0201400920000002804480MIRANDA, SAMMY                                           0501
A0201400920375524523001MIEL, PRINCESITA OR MIEL, ALEX                           0502
A0201400890376060914001UE ASIA HYDRAULIC ENTERPRISES                            0501
A0101402930381205137001DR. ROMANITO C. CABALONA OR                             10506
A0101402930381205137001LORETA E. CABALO                                        20500
A0101408370382391929001DR. DONATO R. MARANON                                    0510
A0101415350000006733242QUA, LOUIE JOHN LIM                                      0501
A0101415350000006733297ONG, SHERYL CHUA                                         0501
A0101415350000006733311ILIGAN, PRECIOUS DELOS REYES                             0501
A0101415350000006733344PANGILINAN, JOSEPHINE MONTERO                            0501
A0101415350000006733388MIRAM, PHYLLIS JASMINE SACAYACA                          0501
A0101415350000006733413DANGATAG, CRISTAL ALEXIS MALABA                          0501
A0101415350000006733446BELTRAN, DAVID ANDREW CANOY                              0501
A0101415350000006733491MALATE, MAE CHERENE SILLEZA                              0501
A0101415350000006733548TOLOSA, JOCELYN NUCUP                                    0501
A0101415350000006733560CASTADA, LUIGI ANGELO FLORES                             0501
A0101415350000006733582TABONES, ENRICO RODRIGUEZ                                0501
A0101415350000006733606DE PERALTA, JONNA LYN INCIONG                            0501
A0101415350000006733639ALERE, FREDRIK MALINAO                                   0501
A0101415350000006733662APEROCHO, KATHERINE FE FLORES                            0501
A0101415350000006733680FIGUEROA, GERARD MENDOZA                                 0501
A0101415350000006733708FAROCHILEN, CATHERINE BALINGIT                           0501
A0101415350000006733720BRONDA, ROSARIO JOY OTERO                                0501
A0101415350000006733753COLLAO, MARIA VANESSA FRANCISCO                          0501
A0101415350000006733771PUNSALAN, KATRIN BENAS                                   0501
A0101415350000006733793SANTOS, LORELIE LUCIANO                                  0501
A0101415350000006733811CAMACHO, JOSE MARIA ANTONIO TAG                          0501
A0101415350000006733833JAUCIAN, THOM ARJAY CREDO                                0501
A0101415350000006733851RENA, PAMELA NOELLE KUE                                  0501
A0101415350000006733884LIM, ABRAHAM ALLAN UY                                    0501
A0101415350000006733902TAN, LISLE CHRISTIAN COTAOCO                             0501
A0101415350000006733920DE JESUS, IRALYN REFORMA                                 0501
A0101415350000006733953CABATINGAN, JEREMY TAMAYO                                0501
A0101415350000006733975CEDRO, KRISTIANE MANIEGO                                 0501
A0101415350000006734001REVECHE, HANA ANDREA ARAMBURO N                          0501
A0101415350000006730867BAUTISTA, MICHAEL JOYCE BRIGINO                          0501
A0101415350000006730903SATUMBA, LESLIE ANNE DIMAYUGA                            0501
A0101415350000006730947ROMANO, DINO BALDIA                                      0501
A0101415350000006730981YU, SALLY NMN                                            0501
A0101415350000006731046ABOLA, ANNA MARIA MAULEON                                0501
A0101415350000006731080MORENO, KAREN KATE PAZ                                   0501
A0101415350000006731115DY, JERRY YU CHANG                                       0501
A0101415350000006731159REYES, MARIZA YVETTE ALAMEDA                             0501
A0101415350000006731171DE LA CRUZ, VINCENT ANGELO ABEN                          0501
A0101415350000006731193CHUA, VINSON REYES                                       0501
A0101415350000006731228KOA, CHARLOTTE ANN ONG                                   0501
A0101415350000006731251JUDAN, FRANCIS IVAN PETERSON                             0501
A0101415350000006731280MALVAR, NANETTE CHAVES                                   0501
A0101415350000006731319LIBREA, JANINE LAYGO                                     0501
A0101415350000006731353VILLAMORA, WENDELL GUTIERRE                              0501
A0101415350000006731393ZULUETA, LALAINE RUIZ                                    0501
A0101415350000006731433NGAN, MICHAEL NMN                                        0501
B0101402770391009441001ST. ANTHONY HOMEOWNERS' ASSOCIATION INC.                 1602
B0101402770000000360570SAN ANTONIO DE PADUA PARISH                              1601
A0101402770391029270001RCABAN-SAN ANTONIO DE PADUA                              0501
B0101402770000001571142KHAIR BUILDERS AND CONSTRUCTION SUPPLY                   1602
A0101402770391300107001REV. FR. ALBERT THOMAS B. TAN                            0501
A0101402770000000360945DINULOS, LARRY                                           0502
A0101408400394462068001ABBAS, ANIAH MALOMALO OR                                10501
A0101408400394462068001ABBAS, JOHN-SACA                                        20500
A0101408400394478374022CORNELIO, REY OR CORNELIO,                              10501
A0101408400394478374022ROSALIE                                                 20500
A0101408950000000776610LIRIO, JANICE LEGASPI                                    0502
A0101408950000005325622DIMALIBOT, MARIA MARTINA                                10501
A0101408950000005325622GERALDINE                                               20500
A0101408950396563050001CHIO, NANCY BORJA OR                                    10502
A0101408950396563050001CHIO, MARTIN CLA                                        20500
B0301400820409060774001ORANGE FGR BASIC COMMODITIES CORP.                       1601
A2401400180411478374035MERLINDA D. TAMUDTAMUD                                   0501
A2401400180000001676913***********                                              0501
B0901400220432043554001GERRY'S GRILL                                            1603
A0901400220432294143001**********                                               0502
A0101403030441281777001**********                                               0501
A0101412890000001056440CRUZ, PAULITA BERNARDO                                   0502
B0101403320471022749001LES SACS MANUFACTURING                                   1602
B0101403320000000037658AL METAL MASTER INC.                                     1602
A0101403320000001803292BAUTISTA, HERBERT DAYON                                  0501
A0101403320471368063001MARIA CHRISTINA H. VENTURA                               0504
B0101406330472045599001BES SERV LOGISTICS CORP.                                 1603
A0101410140000001939739MEMBERS OF NATASHA (SHOECAT INC                          0501
A0101412760000000208626COMIA, M DBU CINCTURE BIO-ASSET                          0501
A0501400170000000018215VILLANUEVA, ENRIQUE MEJIA                                0502
A1901400160491246285002LOURDES P. CLEOFE                                       10503
A1901400160491246285002OR SHIRLEY D. FLORES                                    20500
A1401400110492220879001ANGLO, ROMEO F. OR                                      10502
A1401400110492220879001ANGLO, CECILIA N                                        20500
A1601400170000001360714ERNESTO C. DACOCO DBU                                   10501
A1601400170000001360714SCORVIL ENTERPRISES                                     20500
A1601400170000000036473BENITA A. CALLEJA                                        0501
A0101407430503434075002ISMAEL V. DE LEON OR                                    10502
A0101407430503434075002ADELINA L. DE LEON                                      20500
A0101408530000002980910CLETO, ANTHONY CRUZ                                      0502
A0101408530000001885823ABELLAR, GLORIDEL VILSES                                 0503
A0101411400000006660160LIM, HELEN KIM                                           0505
A0101412050000006672939DE VELA, MARLON DE LUNA                                  0501
B0101403450521011675001TORQUE BUILDERS, INC.                                    1604
A0101403450521238265001**********                                               0502
A0101403610531036734001PASTRANA, MARIA DBU JRAE                                10502
A0101403610531036734001DRUGSTORE                                               20500
A0101403610531478374002GRAPE, IMELDA HANDOG                                     0501
A2201400250000003558229CUARESMA, JHOANA MANUEL DBU                             10502
A2201400250000003558229BUDERUN SPA                                             20500
B0101404130601016662001PAYROLL SERVICE PROVIDERS, INC                           1603
A0101404260611416131001ORA, ROMEO FOLLOSCO OR                                  10501
A0101404260611416131001JOSEFINA                                                20500
A0101404260000003498408AREVALO, MA. JORLYN                                      0501
B0101409890000003098173V.T. LAGUYO CONSTRUCTION, INC.                           1602
A0101409920650478374012CATUBAY, GLORIA JIMENEZ                                 10501
A0101409920650478374012MEMBERS OF NATAS                                        20500
A0101409920000001951982MEMBERS OF NATASHA (SHOECAT INC                         10501
A0101409920000001951982TORRELIZA, GINA                                         20500
A0101407690000006242086LANTING, NINO ZARA                                       0502
A0101407690652513136001GUINTO, ROSARIO OR WINSTON                               0502
A0101407690652741995001ESTACIO JR., FELIPE ADONA                                0502
A0101411530000003448300**********                                               0504
B0101413570000003580749MORALES, EMIL T. DBU DMD PHOTOGRAPHY                     1603
A0101413570000001720212NIMFA C. ESPULGAR                                        0501
A0101412340000003344943RAYMOND M. OBLEPIAS                                      0501
A0101412340000004360252RICHARD B. CHUA                                          0501
A0101412340000000224035LUNA, NORBERTO CORRAL                                    0501
B0101404840851021512001STI COLLEGE ALABANG, INC.                                1603
A0101406750000002950741VILLENA, JANNETTE APUAN                                  0501
A0101406750852478374004IMELDA TAGUNA                                            0501
B0601400230000003016013CUBACUB, MARY ROSE BASILIO                               1602
A0601400230000003015583HERNANDEZ, VILMA VALENCIA                                0503
