A0101400440161520766193LEILANIE P. LOCSIN                                       0501
A0101400440161520766193LEILANIE P. LOCSIN                                       0501
A0101400440000000596630MARY ANN A. OYARDO                                       0501
B0101406040000006025292HYPERTECH WIRE AND CABLE INCORPORATED                    1605
A0101400440000004901440NLR INSURANCE SERVICES                                   0505
B0101402930381516506001I-ASIATIC INNOVATIONS PHILS., INC.                       1604
A3801400170000000154185EVANGELISTA, BABY DAISY DBU                             10502
A3801400170000000154185R.D.E. BEAUTY CE                                        20500
B0101400860011305536001**********                                               1601
B0101400860000005313137**********                                               1601
A0101400860011422686002**********                                               0505
A0101400860011424395001**********                                               0505
A0101401250000000441052ONGSUECO, SYLVIA K.                                      0502
A0101401250000007121400********                                                 0504
A0101401250021178953002TENSUAN, ERNESTO OR NECITAS OR                          10510
A0101401250021178953002EMMANUEL                                                20500
A0101400150000000807589RODRIGUEZ, RUBEN DACUMOS                                 0501
B0101400150061010637001NIACOR CORP.                                             1601
B0101400150061010741001FIAL CORP.                                               1601
B0101400150061056020001PAWNHERO PAWNSHOP PHILIPPINES, INC.                      1603
A0101400150000004090691CORDOVA, EBENEZER DELIMA DBU CO                          0502
A0101400150061087629001CASTRO, BENEVICI DALAYDAY                                0501
A0101400150061752745001ALONTE JR., JOSE ANTONIO P. OR                          10501
A0101400150061752745001ALONTE, MARGARIT                                        20500
A0101400600071684249001******                                                   0503
A0101405810072312400003************                                             0501
A0101405810072373265003MANANSALA, JOYCEE CATARATA                               0502
A0101405810072392542001JAO, BABY SY                                             0501
A0601400100000007250542MEHEUST, ROWENA ANGELES  DBU MI                          0502
A0601400360000004915413SIOCO, MARY JANE SORIANO                                 0505
A0601400520000007553480CAYETANO, ISHMAEL MAMARIL OR                            10502
A0601400520000007553480CAYETANO, JANET DUERO                                   20500
B0101400730111040798001LY ENTERPRISES                                           1601
A0101406040112684740001***********                                              0501
A0101401960000001844566PANESA, SALVACION VALEZA                                 0501
A0101412630000000180389MARQUEZ, MA. ELIZA LIMCOLIOC                             0501
A0101412630000000801512**********                                               0501
B0101412630000002186461********                                                 1610
A0101401830000004835172PARADELA, MA. ELVIRA BERTULFO                            0501
A0101400440161520766189PRESCILA P. DOTONG                                       0501
B0101407270162044164001SOLUTIONS EXPERTS AND ENABLERS, INC.                     1603
A0101407270162353067001JULIUS CAESAR C. BABAO                                   0503
A0101407270000004832673JULIUS CAESAR C. BABAO                                   0503
A0101401090171020151002THOMASIAN 77 MEDICAL                                    10501
A0101401090171020151002FOUNDATION INC.                                         20500
B0301400530000005001603*******                                                  1602
A0301400530193686503001CORPUZ, GLENN A.                                         0502
A0101401380201681276001PASCUAL, JACQUELINE SANTERA                              0501
B0101410720653031938001YIGGM CORPORATION                                        1606
B0101410720000000968163PROPERTY 101 INCORPORATED                                1602
B1001400190231027858001PATHFINDER MARKETING                                     1601
A1001400190231520766128MAGLANGIT, JONIE QUIACAO                                 0501
A1001400480000003357680BALDELAMAR, JACKY ROSE DALE SIM                          0502
A1901400290000001362976DR. JOSE RENE D. DE GRANO OR                            10504
A1901400290000001362976DR. VILMA M. DE GRANO                                   20500
B0101401670271020835002SLTEAS PHOENIX SOLUTIONS, INC.                           1604
A0101401670271186236004TANG, CLARITA OR GLORIA LIM OR                          10503
A0101401670271186236004ROBERT/CAESAR SY                                        20500
A0101401670271186236005CLARITA S. TANG OR MARGRIET S.                          10502
A0101401670271186236005TANG OR HELEN TA                                        20500
A0101401670271367363001SUACO, JESUS ANGELO ABAYA                                0501
B0101406460272043457001TARSIER SECURITY AGENCY, INC.                            1602
A0101406460000002331022ONG, ANNA LISA CEDENIO                                   0501
A0101406620000006317860DELGADO, JUDY GRACE TIONGCO                              0503
A0101408660274568066001LIM, LUISA O.                JT                          0502
A0101400570281186576001DR. ROSEMARIE JEAN J. POBLETE                            0502
A0101400570281370913001MARY ANN P. DE LOS REYES OR                             10501
A0101400570281370913001LUVIE A. DE LOS REYES                                   20500
A2001400290000000724878QUIAMCO, RHEA V. OR QUIAMCO,                            10501
A2001400290000000724878ERWIN ALPHONSUS O.                                      20500
A0101402350321180273001ALMA S. FERREROS OR                                     10501
A0101402350321180273001ENRIQUE FERREROS                                        20500
A0101405650000008025238CASTRO, JOFRE JAMES LACSON                               0501
B0101405650322033184002ASIA PLUS CORPORATION                                    1610
B0101405650322034969001ALPHINELAKE WATER REFILLING STATION                      1601
B0101405650322036086001VISTALAND INTERNATIONAL MARKETING, INC.                  1610
A0101405650000000348903ESPERANZA F. BAYLON                                      0503
A0101405650000002325515**********                                               0502
B0201400760374033207001W.T. CONSTRUCTION, INC.                                  1606
B0201400760374046036001SAM SOWAH SHIPPING CORPORATION                           1602
A0101402930381205187002JOCELYN M. RESURRECCION                                  0501
A0101408370000005220028REODICA, RONALD ANTONIO S.                              10501
A0101408370000005220028OR AGUINALDO, MARLENE A.                                20500
B0101408790000003845692POLERIO, INC.                                            1601
A0101415350000006731433NGAN, MICHAEL                                            0501
B0101402770000001571659BARUELO, WARREN EPISCOPE AND BARUELO,                   11603
B0101402770000001571659JENNIFER IGNACIO                                        21600
B0101402770391027350001STRATEGIC DISTRIBUTORS, INC.                             1615
A0101402770391034936001LOGPRO EXPRESS, INC.                                     0502
A0101402770000009247149C-NAN WEB TECHNOLOGY SOLUTIONS                           0505
A0101405490392481659001MARITES Q. FACTURA                                       0501
A0101405490392693267001ADELA C. TABALE                                          0502
A0101408400394033625002IVAN COMPUTER SYSTEM                                     0506
A0101408400394162577001REYES, ELSA UNGSOD                                       0501
A0101408400394478374075VIOLETA I MANUEL                                         0501
A0101408950396373113001DR. VIRGILIO M. NOVERO, JR. OR                          10510
A0101408950396373113001MARIA LOWELA C.                                         20500
A0301400820000001185780RUFEROS, ROY KENNETH OR                                 10501
A0301400820000001185780AREVALO, MICHELLE KAY                                   20500
A0901400220000000425045LOZADA, ELIZABETH GO                                     0501
B0101403030441012035006SIMPLEX INDUSTRIAL CORPORATION                           1605
A0101406330472478374043ROLLY A. MALLARI                                         0501
A0101406330472478374049DANILO GIL M. SETENTA OR                                10503
A0101406330472478374049DELIA A. SETENTA                                        20500
B3801400170000000018777ANTONIO CATIBOG II OR ZENAIDA CATIBOG OR                11605
B3801400170000000018777HAZELYN ACEDERA                                         21600
A1901400160491244484001IRENE H BERBA OR                                        10510
A1901400160491244484001CARLOS R BERBA                                          20500
A1901400160491247764001MARITES E RAMIREZ                                        0501
B1901400160491390019001FELICIANA GUTIERREZ OR GINA MADERAZO OR                 11601
B1901400160491390019001NELIA LONTOC                                            21600
A0101405940512155818001ANTONIO C. KO OR LEE MEE LING                            0502
B0101408530516037477002VXI GLOBAL HOLDINGS B.V.                                 1610
B0101408530000003866068AVANT TENT CITY MALL INC.                                1602
A0101408530000006599855**************                                           0501
B0101403450000002975655***************                                          1602
A0101403450521361575001PO, PAULINE LU                                           0501
B0101403450521476625001PIMENTEL, ROSSETTEE CO                                   1601
A0101403450521478374007********                                                 0501
B0101404130000003105751GOLD NUGGETS HAULING AND TRUCKING CORP.                  1602
A0101404130601492243001DONGUINES, ROWENA DREQUITO                               0501
B0101412180604821200608**********                                               2001
A0101404260611478374053VIOLETA P. ORADA                                         0501
A0101404260611478374130CECILIA G. ALOQUINA                                      0502
B0101409890000000049192PLARIDEL PRODUCTS & SERVICES INC.                        1605
A0101407690000000495512MARIA BELEN FEDERIZON OR                                10502
A0101407690000000495512JOSE RENEIRIO FEDERIZON                                 20500
B0101407690652032192001RCBN - ST. PETER SHRINE                                  1612
A0101407690652034806001BROWNFLY COMMERCIAL                                      0504
A0101407690652512043002ESQUIERO, DENNIS DE GUZMAN                               0501
A0101407690652525001075DOCDOCIL, GELITA - DEALERS OF                           10503
A0101407690652525001075SHOECAT INC.                                            20500
A1301400340683678684001BAGOAN, MAOKI IBRAHIM                                    0501
A1301400500000002063849SOLITA A. BAYAN                                         10505
A1301400500000002063849OR RONALD M. BAYAN                                      20500
A0101408240711508477001SOLITANA, ROSEMARIE BORDAJE                              0501
B28014001000000001883631 AIMHIGH SECURITY AGENCY INC.                           1605
A2801400100000002253458DATU, FERDINAND BULAONG                                  0502
A4101400390000000379373CHUA, MARIA MILAGROS LIM                                 0501
A4101400420000002084562CANTILERO, NILCE SAMONTE                                 0502
A4101400420814478374170OSO, MARY GRACE                                          0501
A4101400420814520766077DOMINGUEZ, SYLLIE                                        0501
A4101400420814520766114BAYER, LOWELYN C.                                        0502
A4101400420000002084533VALDISIMO, JENNIFER GEREZ                                0502
A4101400420814600531001GRAGEDA, JOSEPH BRIAN SANTOS                             0502
A4101400550000007583864RIVERA, ROSALINDA LOVERIA                                0502
A0101412340000003438748LEE L. ZAMORA                                            0501
A0101406750000007879570SABA, CRISPOLO FABRICANTE                                0501
A0101406750000010170224BALAJADIA, EDUARDO SANTOS                                0501
