A1201400150000000473574CIANO, NATIVIDAD QUITOYAN                                0501
A1601400170000000497514DANTE D. VALLADOLID                                      0501
A0101408950000000776650VITALEZ, LALYN ESO                                       0501
A0101411370000000903611RAMIREZ, MARISSA MARTINEZ                                0502
A1001400480000001054642DO, GLORIA TOLITOL                                       0501
A0101400150061236944031FE S. ROSANO                                             0501
A0101400150061514440001SACLAYAN, MYRNA BAUTISTA                                 0501
A3001400130230700871001MUNOZ, BALTAZARA ESCATRON                                0501
A1001400190231478374012FARINAS, EVA MAE CENTO                                   0502
A6601400120314668441002MASLOC, SHERRY AMOR GALONO                               0501
A0101405650322522833001JIMENEZ, MARIA JEAN BREBONERIA                           0501
A0101402060351217440011FLORDELIZA PANGANIBAN                                    0501
A0101408950396498542002DR. RIZAL ALBERTO B. NOLIDO, JR                          0502
A0501400170481331480002ARCINUE, MARIA RIZALYN V.                                0501
A0101407720602376178002CABRAL, ANGELICA AMPIL                                   0502
A1701400230693478374031VILMA R. BAGAY                                           0501
A0101408240711383461001SANG, PAUL OR IRIS                                       0502
A0601400230891408979002DIMABUYU, GLENNA MENDIOLA                                0501
A0301400790000001776138ESCAMIS, JOSE PACLAR DBU                                10502
A0301400790000001776230OLAGUER, DENISE ALEXANDRA DBU                           10501
A1601400170000002842602SILVERIO Y. REDOBLADO  OR                               10501
A1301400470252599213001REYNALDO OR ROSARIO TERESITA OR                         10503
A0101405650322170571001ARTURO LAZATIN OR                                       10502
A0101408950396166135001ERIC P. HERNANDEZ OR                                    10504
A0101408950396278592001DR. ERIC P. HERNANDEZ OR                                10504
A0101408950396576467001DR. JOANNA TERESA MARGARITA                             10501
A0301400790000001776138ESCAMIS BUILDERS                                        20500
A0301400790000001776230LJDA ENTERPRISE                                         20500
A1601400170000002842602EILEEN N. REDOBLADO                                     20500
A1301400470252599213001RAYMOND JOSEPH O                                        20500
A0101405650322170571001MA. THERESA LAZATIN                                     20500
A0101408950396166135001MARIANNE P. HERNANDEZ                                   20500
A0101408950396278592001DR. MARIANNE P. HERNANDEZ                               20500
A0101408950396576467001L. MANALO                                               20500
B0601400230000000029883ORO OXYGEN CORPORATION                                   1604
B0301400950000000566990**********                                               1601
B0501400170481016901001CARRIED LUMBER COMPANY, INC.                             1610
B0101408530516032240001BEL-AIR VILLAGE ASSOCIATION, INC.                        1602
B1701400230693034406001ZS ALONZO FARM SUPPLY                                    1601
B1701400230693621490002***                                                      1605
B0101406750852709702001DAFARM CORPORATION                                       1602
