F0101401700041046538001WELLNESS FIRST TRADING                                   2603CKR
F0101406620000004595826NOBLE HOUSE DISTRIBUTION                                12603CK1
F0101406620000004595826ENTERPRISE INC.                                         22600CK1
F0101403450521012151002**********                                               2602CKR
F4101400260812024491001FUJISASH PHILIPPINES, INC.                               2603CKR
