B0101403290461821100608**********                                               2005
B0101403290461821100608**********                                               2005
A3101400740224646140001CHUA, JANETTE SY                                         0501
A0101405490000000444604ROSALIE SAN PEDRO MANUEL                                 0501
A0101412890000001056393GERONIMO, M DBU A.M.-M.A'S                              10502
A0101412890000001056393BAKERY                                                  20500
A0101412890000005913442*****************                                        0501
B0101412890470077699001SKY HIGH FITNESS GYM                                     1602
A1901400320000002296108MARILYN M BERBERABE                                      0502
A1701400230000005694142RACCA, SOCRATES CACAYURIN                                0503
A0101400150000003198178ZARA MAE A. RAMOS                                        0502
A0101400150061228522001**********                                               0501
A0101400150000000806677EMELITA PURISIMA                                         0501
A0101400150061383637001DE GUZMAN, CATHERINE YANG                                0501
B0101400150061468081001MONTALBAN METHANE POWER CORP.                            1610
A0101400600071236517002******                                                   0502
A0101400600071282681001********                                                 0501
A0101400600071523473001*******                                                  0501
A0101400600071720668001*******                                                  0501
B0601400100000002099107ONG, ANDREW OR ONG,ING LEE OR ONG, ANSON                11604
B0601400100000002099107OR HAO, EMILIA                                          21600
B0601400360000003186929KM C&S CLARK PHILIPPINES INC.                            1603
A0601400520000005943440ENGCO, LEAH DOMINGO OR ENGCO,                           10501
A0601400520000005943440GREGORIO SUAYAN                                         20500
A0101413280000003762247CARGAMENTO JR., E DBU EDILBERTO                         10501
A0101413280000003762247CONSTRUCTION                                            20500
A0101414090000001652477SANTOS, MARCELO J OR SANTOS, MY                          0503
A0101406040112092810001********                                                 0502
A0101406040112208404001HULIPAS, ELIZABETH VILLAFRANCA                           0502
A0101406040112653549001JEANETTE G. SY                                           0505
B0101401830141333975001TERESITA I. RIVERA OR                                   11610
B0101401830141333975001IREEN R. BANGUG                                         21600
B0101400440000000337780KNIGHT COMMANDER ARMORED & SECURITY                     11610
B0101400440000000337780SERVICES INC                                            21600
A0101400440161525001107ALMA B. JIMENO                                           0501
A0101407270000008235698MAGDATO, EROQUEL TIRONA                                  0501
A0101401090171201345002MA. CECILIA OR RAMIL                                    10502
A0101401090171201345002TIO CUISON                                              20500
A0301400660000000194552LU, MICHAEL YAP                                          0503
A0301400660194407464001BOLOSITO, ARLENE REGIS                                   0503
A01014130200000030553367A7 ENTERPRISES                                          0502
B3101400160221063156001METROPOLITAN PHARMACEUTICAL PRODUCTS INC                 1601
A3101400160221419880001ROWENA B. SUN                                            0502
A3101400740000006349459SALOM, EUGIENE ZAMORA                                    0501
B3001400130000006004693DEDICATORIA, ROMEO DBU LCM MARKETIN                      1610
A1001400190000002266504MARABE, RIKKA AND LA VINA,                              10503
A1001400190000002266504IRISH OR MARABE,                                        20500
A1001400190231520766017RABANES, ELECTA CAMPION                                  0501
A1001400350000000245361PAJO, APRIL TABIAN                                       0501
B0101406460272020749001EASTGATE COMPUTER CORPORATION                            1601
A0101406460000002331044CHUA, JACINTO SY DBU ALUFORM PR                          0502
A0101406620273367221001GUERZON, CAESAR ABESAMIS                                 0502
A0101412470000000853834CHUNG, EUN JOO                                           0502
B0101400570281007188002KIMURA CHAVES ENTERPRISE, INC.                           1602
B0101411240283044843001GEMINI BUSINESS & REALTY CORPORATION                     1603
A0801400160000006272897TRADIO, GERALDINE BARBARA                                0502
A6601400120314042312002NORSAM BUILDERS & CONSTRUCTION                          10505
A6601400120314042312002SUPPLY                                                  20500
A3401400280000001723360RICHELLE V. ALMONGUERA                                   0501
A0101402350321341109002WONG, PAUL OR EDITA OR                                  10501
A0101402350321341109002CECIL OR PAULINE                                        20500
A0101402350321542967001ABUNDIENTE, JONATHAN GUMBA                               0501
A0101405650322183251001COSICO, ANTONIO PARAISO                                  0502
B0101402060351009401001PHIL. IRON CONSTRUCTION & MARINE WORKS,                 11605
B0101402060351009401001INC.                                                    21600
B0101402060351009431001RPP SAVINGS AND LOANS ASSOCIATION, INC.                  1603
A0201400760374033157001WISE OWL GENERAL MERCHANDISE                             0501
B02014007603740526030018990 DAVAO HOUSING DEVELOPMENT CORP.                     1650
B02014007603740550530018990 MINDANAO HOUSING DEVELOPMENT CORP.                 11650
B0201400760374055053001(DISBURSING)                                            21600
A0201400760374470650001YU, TERESITA SY OR YU, RUSSELL                           0501
A0201400760374478374015DACAYANA, ROSALIE SIBLA                                  0501
A0201400890000006961831JECAIN, DIXEL SABADO                                     0502
B0201400890376034770001NEW GRANT MARKETING                                      1602
A0201400890376515284001TING, ANTHONY CHUA OR TING,                             10501
A0201400890376515284001GRACE UN                                                20500
B0101402930381021287001TELEDATACOM PHILS. INC.                                  1602
A0101402930381505507001TRINOS, ROCHELLE VERANO OR                              10502
A0101402930381505507001AVILES JR., ISAG                                        20500
A0101411660000008027547ANG, ENA LYN                                             0501
B0101402770000001571604MC GENTECH BUILDERS CORP.                                1601
A0101405490000000355571MA ANASTACIA S. OR RITA THERESE                         10501
A0101405490000000355571S. DELA MERCED                                          20500
A0101408400000001855381ABSA BUILDERS                                            0503
A0101409180000003906967JAYSON S. AMOR                                           0502
B0101409180397063151001LIVINGSPRINGS COMMUNITIES REALTY &                      11601
B0101409180397063151001DEVELOPMENT CORP                                        21600
A0301400820000004745962NAKILA, ARMAGIDON M.                                    10501
A0301400820000004745962DBU ALDON PJ MARKETING                                  20500
A2401400180000000073550ALBARRACIN, JEMAR DEGAMO                                 0501
A2401400180000000073527LAFARDZ MARKETING                                        0502
A2401400180411045435001HP FRANCISCO CONSTRUCTION                                0510
A1201400150421302994001ONG, HENRY SY OR ONG, POLLY OR                          10501
A1201400150421302994001ONG, GEOFFREY                                           20500
A1201400150421302994002ONG, HENRY SY                                            0501
A0901400220000001805090**********                                               0502
B0901400220000000888166**********                                               1603
A0101412760000000528205SARAH JAYNE A. SANCHEZ                                   0501
B0501400170481015881001TOYOTA DAGUPAN INC.-2                                    1615
A1901400320000000679250RUEL FLORES ILAO                                         0501
A0101405940000000061594JOWELLSKY NARCISO CEA                                    0501
A0101405940000005068333TIOSECO, DAISY MAE CHUA                                  0502
A0101404000000003705844JUNELL B ALNAS                                           0501
A2201400250561038458001PTT SOUTH RAMP GASOLINE STATION                          0501
B0101404130601018669002QUALITY SHOE CARE PLUS, INC.                             1601
B0101404130601028598001CAMBRIDGE CHILDREN'S LEARNING AND                       11605
B0101404130601028598001DEV'T., INC.                                            21600
B0101407720602047777001MEGAJOY POWER SOLUTION INC.                              1602
A0101407720602389965001NORMAN OR PAULITA OR NORMA                              10501
A0101407720602389965001ABASTILLAS                                              20500
A0101407720602396744002ANG, JENNIFER CU                                         0502
A0101407720602471890001GO-CHU, LOVIE HOPE ONG                                   0503
B0101407720602779384001YUSIN NINE MARKETING INC.                                1602
B0101407720602779437001SOUTH BIENALE MARKETING INC.                             1601
A0101412180000007360325DAZA, JOSEPHINE DIONISIO                                 0501
A0101404260611635256001ABELLA, EDUARDO JUAN FAUSTINO                            0505
A0101404260611778918001GARCIA, NATHANIEL CRUDA                                  0502
A0101413990657062002001CMPEREZ CONSTRUCTION                                     0502
B0101406590662039421001PRINCE DAVID CONDOMINIUM ASSOCIATION,                   11603
B0101406590662039421001INC.                                                    21600
A1301400210682478374053RUBIROSA C CABUGWASON                                    0502
A1301400210682635116001DEVORAH M SOTO OR                                       10501
A1301400210682635116001MIGUEL CARLOS B                                         20500
A1301400500000000213203QUIAMBAO, VICTOR FABIAN                                  0501
A2801400100000000004775ESPIRITU, MARIA JENNIFER VICENT                          0502
A4101400260000000048800CRISTINA DAPAT                                           0502
A4101400260000006042940JIMENEZ, EDWIN MOREDO                                    0501
B4101400550815040996002MARICHE APARTELLE, INC                                   1601
A0101412340000000484822GARCIA, JERIELLE CAGASAN                                 0501
A0101412340000002900283MARIFE B. VIADO                                          0501
A0101404840000000122658MARIFE DE CASTRO                                         0501
A0101404840851419256001INTOD, DELFINA SAMONTE OR                               10502
A0101404840851419256001INTOD, ALGREG M.                                        20500
A0101405070000006006097CANTILLO, ALDWIN C. DBU ALDWIN                          10501
A0101405070000006006097C. CANTILLO LOGISTICS SER                               20500
B0101405070861565051001BLAUGRANA CORPORATION                                    1606
A0601400230000000990063**********                                               0505
