F0101402930381020092004ASIAN BAPTIST CLEARING HOUSE                             2604CKR
F1801400130151048759001MSU-IIT NMPC MANTICAO BR.                                2602CKR
F0101413600000002822722GPRS - UNIFIED PRODUCTS AND                             12601CK1
F0101413600000002822722SERVICES INC.                                           22600CK1
F0401400270000001912341SYNCHROTEK CORPORATION                                   2603CKR
F0401400270242031390006SYNCHROTEK CORPORATION                                   2603CKR
F1301400210682033690001FELIZA JAZZ CORPORATION                                  2602CKO
F1301400210682033690002FELIZA JAZZ CORPORATION                                  2602CKO
