F0101409180397047594001PACIFIC SUMMIT CONSTRUCTION                             12605CKR
F0101409180397047594001GROUP INC.                                              22600CKR
F0101407560686401718002**********                                               2504CKO
F0601400520000000398578GARDEN DINE RESTAURANT INC.                              2602CKR
F3101400450223028412001CERDA MATERNITY CLINIC                                   2503CKO
F3101400450223028412001CERDA MATERNITY CLINIC                                   2502CKO
F0101400570281414182001THELMA MARIE A. ELIO, M.D.                               2501CKO
F0101400570281535953001FRANCISCO P. DALANGIN OR                                12502CKO
F0101400570281535953001MELODY G. DALANG                                        22500CKO
F0101403580000000214720TRENDS AND CONCEPTS TOTAL                               12605CK1
F0101403580000000214720INTERIOR SOLUTIO                                        22600CK1
F4101400420814016644004EMI EMPLOYEES DEVELOPMENT                               12605CKR
F4101400420814016644004COOPERATIVE                                             22600CKR
