B0101412920160058434001OUTKAST PARADIGM APPAREL, INC.                           1601
B0101412920160058434001OUTKAST PARADIGM APPAREL, INC.                           1601
A7201400170000003773017EDULSA, NELSON CALME OR                                 10502
A7201400170000003773017EDULSA, CRISANTA IDOL                                   20500
B0101400440161007221001ILA EXPRESS HAULER                                       1602
B3101400450223821100608**********                                               2001
B0101409760474821100608**********                                               2002
A4101400420814478374171MICHAEL G. RIBOT                                         0501
A4101400420814520766028BASILOY, VILMA                                           0502
B3101401000001802000019**********                                               2101
A0101401250021178973001VICENTE S. BERNARDO OR                                  10510
A0101401250021178973001ARACELI C. BERNARDO                                     20500
A0101400150000000253278GELANO, ANGELO RECTO                                     0501
A0101400150000002749579ALVAREZ, RODERICK GIANAN                                 0502
A0101400150000003164816LAKHI B. LALA                                            0501
B0101400150061010838003INFORMATICS COMPUTER INSTITUTE, INC                      1605
A0101400150061370228039LOURDES DEE                                              0501
A0101400150061442787002CALLEJA, ROSELYN DOLINDO                                 0501
B0101400600071328360002**********                                               1601
B0101405810072011448001C.P.P.C CONSUMER PACKAGING PRODUCT CORP.                 1602
A0101405810072367320001**********                                               0506
B0101405810072507268003**********                                               1601
A0101405810072518695002***************                                          0501
A0601400100081255031002JOEL, PETER L.                                           0502
B0101414090000000399457ANTARA VENTURES INC.                                     1603
A0101400730111203514069HERRERA JR., DOMINGO                                     0501
A0101400730111520766046MARIVIC GATDULA                                          0501
B0101406040000003547580********                                                 1602
B0101401960121652942001SNOWLION HOLDINGS, INC.                                  1602
A0101412630000001485150TAN, IRMA ESTRELLA                                       0501
A0101412630000001823321BOLOS, J DBU ADTANK                                     10501
A0101412630000001823321DESIGNS ADVERTISING                                     20500
A0101401830141028708001RONAR GENERAL CONTRACTOR                                 0510
A5001400170000000169879WONG, MARIA PERPETUA AND DESPI,                         10501
A5001400170000000169879EDEN AND CARACOL, MARIA                                 20500
A0101412920000003464891SOLEDAD, HELEN LUCERO OR                                10501
A0101412920000003464891SOLEDAD, BIANCA FRANCESCA                               20500
B0101412920000000276711KALAKAL FOOD CONCEPT INC.                                1601
A0101400440161039572072MEDITA P. ALIMPUANGON                                    0501
A0101407270000000818508TUBONGBANUA, CHRISEL SANTOS                              0501
B0101401090171041259001THOMASIAN HEART SPECIALIST ALUMNI                       11602
B0101401090171041259001ASSOCIATION,INC.                                        21600
A0101401090000001618920DIVINA, NILO TAGULAO                                     0502
A0301400530193686503001CORPUZ, GLENN A.                                         0502
A0101412500000005184323DELOS SANTOS, LEOMAR GONZALES                            0502
A0101413600000002122252CHONA B. VILLA DBU CHINLEI                              10501
A0101413600000002122252HAULING SERVICES                                        20500
A1001400350233279583008ROQUE CASTILLO PATRIANA                                  0505
A0101401670000000739128**********                                               0502
A0101401670271290800002ERIC SHERWIN T. BASUIL OR                               10503
A0101401670271290800002JASMIN H. BASUIL                                        20500
B0101406620273012462001COL FINANCIAL GROUP, INC.                                1615
B0101410980275821100608**********                                               2002
A0101412470000000026822O, HERBERT LAO DBU EASYBUYS CAR                          0503
A0101412470000000026833O, ALICIA LAO OR O, HERBERT LAO                          0503
A0801400160000001031376GEROCHI, ROMEO PASQUIN                                   0502
A1101400120000000652373MORALES, CHRISTIAN LAGARDE                               0501
A0101402350321503072002GAMBOA SR., REYNALDO OR                                 10501
A0101402350321503072002GAMBOA JR., REYNALDO                                    20500
A0101402510341277724001PRUDENTE, JOSEPHINE ESGRINA                              0501
B0101402060351033204001ROYAL DAVAO DEVELOPMENT CORPORATION                      1601
B01014020603514784560019R MANPOWER AND SERVICES INC.                            1601
A0201400760000002047525CUBILLANES, VICLANDO ANCOG                               0502
B0201400760374043666001FORMWORKS RUBIA ARCHITECTS                               1601
A0201400760000000222886JAYME, STEPHEN RODRIGUEZ                                 0502
A0101408370000002264159FRANCISCO, MICHAEL CARPINA  OR                          10501
A0101408370000002264159TAGAYUNA, MARIA CRISTINA                                20500
A0101408370382227014001ANNIE T. COLEMAN                                         0502
A0101408370382462112001BASA, ALDINE ASTRID ARIVE                                0510
A0101408370382597245001DR. NIKKOH P. MUNOZ                                      0501
A0101408370382660357001DRS. THERESA MARIE R. CACAS OR                          10501
A0101408370382660357001JEANNE MARIE R. MARQUEZ                                 20500
A0101408400394478374064MORANDARTE, ANGELITA B.                                  0501
A0101409180000003813089ELLA, ELLANE ELISES                                      0502
A2401400180000000428051EGOS JR., JEMMERITO CASANA                               0502
A1201400150421256057002ABYADANG, SOLEDAD GAYADOS                                0505
B0101412890000001765288FIGUEROA, ANNE JAMACA ROBLES AND ROBLES,                11601
B0101412890000001765288JOHN MERWIN                                             21600
A0501400170481365467003CALLANTA, JOHN SORIANO                                   0505
A1401400110000005181146DIASANTA, IVAN VILLAMAYOR                                0501
A1401400110000003475774BRIONES, ROSEMARIE GIRON                                 0501
B1401400110492013980002IMPERIAL APPLIANCE PLAZA                                 1601
A0101403580000004683041PAOLO VICTOR S. MANALO                                   0501
B0101403580511005143001INTERPACIFIC TRANSIT, INC.                               1610
B0101403580511042027001BEACON SOLUTIONS, INC.                                   1603
A0101403580511153476001THERESITA S. TIU                                         0510
A0101403580511153476002THERESITA S. TIU                                         0505
A0101403580511420184003MARIA CAROLINA S. MACASAET                               0512
B0101403580511575114002TIGER 22 MEDIA CORPORATION                               1610
A0101403580511642826001GEM P. TORRES                                            0501
A0101406880513698913001JAMITO, LORICE DUMALAG                                   0501
B0101408530000001275230PHIL-BIKE CONVENTION INC.                                1602
A0101408530000002980578ALFONSO, MA VIOLETA GANCAYCO                             0505
A0101412050000000367908**************                                           0502
A2201400250561478374062JENNIFER M. RAMOS                                       10501
A2201400250561478374062MEMBERS OF NATASHA                                      20500
A2201400250561484428001WILSON LAO SIO OR                                       10502
A2201400250561484428001EDUARD LAO SIO                                          20500
A0101404130601618991001TAN, MAY YEE CHAN OR                                    10501
A0101404130601618991001TAN, IVAN C.                                            20500
B0101407720602779384001YUSIN NINE MARKETING INC.                                1602
B0101407720602779437001SOUTH BIENALE MARKETING INC.                             1602
B0101404260611043949001JCLC TRADING                                             1604
A0101404260611491958001******                                                   0502
A0101409890000000209123NADONGA, ADRIANA LALU                                    0502
A0101413440000001472942ANAS, MONINA DELA CRUZ                                   0501
A0101413990000000206033MARITES R. CONANAN                                       0502
A0101414120000003190929FORDAN, MERIAM ELECSION                                  0501
A0101414120000000875532R.M. PABUSTAN BUILDERS                                   0503
A0101414120000000875652PABLITO OR RONALD JOHN OR                               10503
A0101414120000000875652PRINCESS JOY OR                                         20500
B0101406590000000035594*****                                                    1602
A1301400210682248069001ALICIA P. ANDAN                                          0501
A1301400340683478374025REYES, SHIELLA                                           0501
A1301400500684594780002CASTRO, RAYMUNDO OR                                     10502
A1301400500684594780002CASTRO, ROSEMARIE                                       20500
A0101408240711381066001GLORIA A. OKADA                                          0501
A0101408240711582419001BANAS, ANALY NARISMA                                     0502
B2801400100712041114001DML SUBIC FREEPORT CORPORATION                           1605
A2801400230000000937639RAYMUNDO, VILMA JARIEL                                   0501
A0101412340000004360241AYKROYD J. ASTURIAS                                      0501
A0101404840000000475952GONZALES, ROWENA POLLICAR                                0502
B0101404840000000090173JOY PLANET INC.                                          1605
A0101404840000000122590DIVINA CRYSTAL                                           0501
A0101404840851420697001LAYAO, FRANCIA CUETO                                     0501
B0101405070000001161324KEANO MANPOWER AGENCY INC.                               1601
A0101405070861478374073ROSARIO V. PARRENO                                       0502
A0601400230000003015823ALURA, JIMMY SUENO                                      10502
A0601400230000003015823OR ALURA, MERLE MANALAC                                 20500
