A0101408240000000005181POL CAMACHO SECURITY CONSULTANC                          0501
A0101411110000000009156JIMENEZ, ZENAIDA VERGARA                                 0502
A1201400150000000034493YU, MARTINA BAGONA                                       0505
A4101400390000000048520TEDIONG, CATHERINE MAGNO                                 0501
A0101408660000000059829JALANDONI, JOSELITO PURIFICACIO                          0502
A0601400360000000225283SESE, SAMNICOLI CORTEZ                                   0501
A0101404840000000254620JOSEPHINE M DOMINGO                                      0501
A4101400550000000315040BUMA-AT, THELMA                                          0501
A0101404420000000472199*****                                                    0501
A0101413440000000702178DIVINAGRACIA, GIL ESPINO                                 0501
A0101413440000000702269PERALTA, BUENAVENTURA MARASIGAN                          0502
A0101400150000000760703HERNANDEZ, BRENDA SOLIDUM                                0501
A0101412760000000767842JASMINE CATHALINA J. NAVA                                0501
A0101413310000000864006TOLEDANA, RODEL MASAYA                                   0502
A0901400220000000888020**********                                               0501
A0201400890000000973462***************                                          0502
A0601400360000000978703KIM, MYEONGHO                                            0505
A0101400730000001016453HONEY JEAN R. DACLAG                                     0501
A0101413310000001073563LOPEZ, MA CECILIA REYES                                  0502
A0101410140000001074931LEYSON, JEFFERSON DE LA CRUZ                             0502
A0101403030000001302098**********                                               0502
A0101404840000001312736ALVAREZ, MARY ANN A.                                     0501
A1301400500000001412399Y.P. HIZON ACCOUNTING SERVICES                           0502
A0101409920000001539584SANTILLAN JR., SERVILLANO JT.                            0501
A0101402480000001561973*******                                                  0501
A0101407270000001596945CELESTE C. NAPIGKIT                                      0501
A0101409050000001662493DACQUEL, BENJAMIN FRANCIS PONCE                          0501
A3401400280000001723451GONZALES, RANDY PLACIDO                                  0501
A0101400730000001822635JURILLA, LESLIE CATINOY                                  0502
A1201400150000001863203SISON, LINDA ACLOPEN                                     0503
A0101410560000001943995MONTALBAN, MYRA SUGANOB                                  0501
A1301400500000002063970********                                                 0502
A4101400550000002090911LAOSANTOS, JOGIE LYN DEZA                                0501
A0201400890000002270100*****************                                        0502
A0101402480000002307142******                                                   0501
A0101402640000002349522ATIENZA CONSTRUCTION SUPPLY                              0504
A0101400150061370228059MARCELINO DE CHAVEZ                                      0502
A0101400150061564610050DELA ROSA, ROMEO                                         0502
A0101401960121464343001**********                                               0502
A0101400440161520766098JUDITH D. BRISO                                          0501
A0101400440161525001107ALMA B. JIMENO                                           0501
A0101407270162333006013CONCEPCION DELIGERO                                      0501
A0101401090171032179001AJMLARA & ASSOCIATES                                     0504
A0101401090171346433001CLAUDILLO B. BAGADIONG                                   0501
A0101401090171399403001JOHN JOSEPH T. FERNANDEZ                                 0505
A0101401090171455334001********                                                 0501
A0101401380201776189001********                                                 0501
A0101400310211478374054BEATRIZ OFIAZA                                           0501
A0101400310211594310001URTOLA, MARY PEARL VERGARA                               0501
A1001400190231272349001CHAN, MICHAEL L.                                         0503
A1001400190231273296001GENTILES, URCESIO C.                                     0501
A1001400350233505176001AGAWIN, ERLINDA GALENZOGA                                0502
A0101401670271188489001CARMEN C. LIM                                            0501
A0101401670271482067001DANILA, LOURDES RUBIN                                    0501
A0101406620273215980002GLORIA CHOA CHUA                                         0501
A0801400160311478374070GENALYN M. BOTANERO                                      0501
A0801400160311478374102MA. CECILIA A. AVANCENA                                  0501
A0801400160311478374104RUBIE BAGAFORO                                           0501
A6601400120314630541002LIAD, ROSIE ORTIZ                                        0502
A0101402480331022723001**********                                               0501
A0101402480331055213001*********                                                0501
A0101402480331199361001******************                                       0501
A0101402480331491018001******                                                   0501
A0101408820333478374062SANDRA G. BUENO                                          0502
A0101402510341229992001LAMBERTO R. ZOLETA                                       0502
A0101402640361076724001ARELLANO, JOSEPH TOANCO                                  0501
A0101402640361340310003***********                                              0501
A0201400890376677066001******                                                   0501
A0101402930381388763001ULYSSES M. MEJIA                                         0501
A0101408370382488821001DR. ROSALYN C. SARMIENTO                                 0501
A0101408370382677453001TERESITA CELESTINO HOWARD                                0502
A0101403320471393043001MARIA CORAZON C. SAN DIEGO                               0502
A0101403320471478374051MYRA ATANGAN                                             0501
A0101406330472044643001A.S.P. BASIC ENTERPRISES                                 0503
A0101406330472478374038MARIBEL P. ZAFE                                          0501
A0101403450521649009001*************                                            0501
A0101404000551340823001JESUS CLINT O. ARANAS                                    0503
A2201400250561339917001FELICIDAD MIRANDA SANTOS                                 0502
A0101404420631478374095EMILY S. MIRANDA                                         0501
A1301400340683574319001ELLI, RAFAEL ABASTILLAS                                  0501
A0101408240711372726002ANNETTE S. TY                                            0501
A2801400100712320631001ONG, ROY JACKSON DY                                      0501
A2801400100712358472001DECENA S. IGNACIO                                        0510
A2801400100712408983002AMORIN, CRISANTA ADVIENTO                                0501
A4101400420814478374026FLORENCIA DELA CALZADA                                   0501
A4101400420814520766097ORIENDO, CECILIA B.                                      0501
A4101400420814520766119OMNOS, NOVA DESCARTIN                                    0502
A0101404840851217637068ARMANDO ESPORLAS                                         0501
A0101404840851298552056ROSARIO GABAYERON                                        0502
A0601400230891627261001RAMOS, ANGELITA BAUTISTA                                 0503
A0101407270000000010060SPIRO CLEMENTE OR                                       10505
A5001400170000000170141MOISES, RACHEL OR TIU, REBECCA                          10505
A0101411370000000903622JOSEPHINE R. BRACAMONTE OR                              10501
A0101405490000001092524MA ANASTACIA S. DELA MERCED OR                          10502
A6601400120000001370569MONTERA, GLENDA GAZO DBU RONVER                         10502
A2201400250000001545433CATALINA INES B. TAJANLANGIT OR                         10510
A0301400790000001776150SAAVEDRA, EARL JOSEPH B                                 10501
A0101401380000001819843TOLENTINO, N DBU                                        10502
A0101412760000002067541JASMINE CATHALINA J. NAVA DBU                           10501
A0101400440161548266001VICTOR S. GONZALES OR ALMA A.                           10502
A0101401380201303599001ELIBETH KAWATA OR                                       10503
A0101400310211054567001SIA, JENNIFER DBU GLOBAL PROMO                          10505
A0101402930381283149001CARMELO A. ALFILER OR                                   10502
A0101402930381706358001QUIEC, GEOFFREY T.   OR                                 10501
A0101410140475046984001OCAMPO, DBU INDOOR & OUTDOOR                            10506
A0101412760476048071001DEPANO, BERNADETTE GATCHALIAN                           10502
A0101404130601450411001NIDA D. AGCAOILI OR                                     10501
A0101404130601451527001MA. PAZ V. LAPERAL OR                                   10504
A0101404260611703483001BENDANILLO, THELMA PALENTINOS                           10503
A1301400340683387803001ESGUERRA, DANILO MEDRANO   OR                           10504
A0101407560686172490001EMILIO APALISOC OR                                      10501
A0101408240711323526001SHIRLEY A. MANESE OR MARIA                              10501
A0101408240711372798001BENJAMIN OR ESTELA NARCISO                              10502
A0101407270000000010060JENNIFER CLEMENTE                                       20500
A5001400170000000170141OR TIU, EDUARDO                                         20500
A0101411370000000903622CARLITO E. BRACA                                        20500
A0101405490000001092524RAYMOND ANTHONY                                         20500
A6601400120000001370569ENTERPRISES                                             20500
A2201400250000001545433RANDOLPH C. TAJANLANGIT                                 20500
A0301400790000001776150OR SAAVEDRA, MARIE CHONA                                20500
A0101401380000001819843NLT DAMPA RESTAURANT                                    20500
A0101412760000002067541GABB AND NICH ENTERPRISES                               20500
A0101400440161548266001GONZALES                                                20500
A0101401380201303599001GEORGE KAWATA                                           20500
A0101400310211054567001& DISPLAY CONCEPT                                       20500
A0101402930381283149001CONCEPCION P. ALFILER                                   20500
A0101402930381706358001QUIEC, EMELENE CHU                                      20500
A0101410140475046984001LIVING CONST.                                           20500
A0101412760476048071001DBU BERICH TRADING                                      20500
A0101404130601450411001LEOPOLDO A. AGCA                                        20500
A0101404130601451527001GERONIMO F. VELA                                        20500
A0101404260611703483001AND PINGOL, ENRI                                        20500
A1301400340683387803001ESGUERRA, ANGELITA                                      20500
A0101407560686172490001CARMELITA APALIS                                        20500
A0101408240711323526001ELENA M. ISAAC                                          20500
A0101408240711372798001OR MONICA GARCIA                                        20500
B0101405940000000002984SHINCREATIVE GLOBAL DESIGN INC.                          1602
B0101412890000000125306AGREE DEVELOPMENT TRADE INC.                             1601
B0101400440000000337900CASAYRA CORPORATION                                      1601
B0101402930000000623443BLUE MANILA, INC.                                        1605
B0101402930000000862686CADSYS PHILIPPINES INC.                                  1601
B3801400170000000955131VIC IMPERIAL APPLIANCE CORPORATION                       1602
B0101413440000001085610SEASTEMAS INTERNATIONAL, INC.                            1605
B0101413440000001085632SEABAR TERMINAL, INCORPORATED                            1603
B0801400160000001289881JMB TRADERS INCORPORATED                                 1605
B0801400160000001289881STARK PUBLISHING                                         1605
B0101413860000001767917JIA HUA CHEMICAL INT'L. CO. LTD                          1602
B4101400260000001783731STRONG ROCK CONCRETE AGGREGATE CORP                      1605
B0101401700041036641001OMNILEX TRADING                                          1603
B0101400150061026122002DDC LAND INC.                                            1610
B0101400150061039626002MENZI & CO., INC.                                        1602
B0101401960121238769001**********                                               1602
B0101400440161037708002RD CASH PADALA, INC.-AREA 1                              1603
B0101401380201018537001VELUZAR(PASAY) INC.                                      1601
B0101401380201030648001ITEMP HOLDINGS INCORPORATED                              1601
B0101401380201034247001HOBBIES OF ASIA INC.                                     1604
B0101400310211031083001VALDEZ BUSINESS WORLD                                    1602
B0101400310211031083001**********                                               1602
B0101401670271022313001PASDA, INCORPORATED                                      1605
B0101401670271027397001KELEYNA ENTERPRISES                                      1601
B0101406620273026509001DG3 IDOCS, INC.                                          1602
B0101400570281030082001SLMC BONIFACIO GLOBAL CITY MAB CORP                      1610
B0501400200292021985002FOREST LAKE DEVELOPMENT, INC.                            1610
B0801400160311338254001*************                                            1605
B0101402480331010014001EVER REAL ESTATE CORP.                                   1602
B0101402480331010044001SUPERCAST FOUNDRY & MACHINERY                            1610
B0101402480331010415002***************                                          1601
B0101402480331018748001******                                                   1602
B0101402480331026799002**********                                               1610
B0101402480331035192001**********                                               1601
B0101402930381025739001ROBINSONS LAND CORPORATION                               1602
B0101402930381033903001T.H.E. TRAVEL GURU INC.                                  1602
B0101402930381525358001MIRACLE SOYBEAN FOOD INTERNATIONAL                       1601
B2401400180411026291001ST. MICHAEL THE ARCHANGEL PARISH                         1610
B2401400180411033214001RD CASH PADALA, INC.                                     1602
B2401400180411033588088FIESTA APPLIANCECENTER, INC.                             1605
B0101403030441011894001REXSSEL AUTO PARTS CENTER                                1601
B0101403320471018459001SSS CALVARY BAPTIST CHURCH                               1602
B0101403320471018459002SSS CALVARY BAPTIST CHURCH                               1602
B0101406330472021511001ASSOCIATED WIRE CORP. OF THE PHILS.                      1610
B0101406330472027368002R & A FASTFRATE CORP.                                    1603
B0101403450521028565001**********                                               1602
B0101403450521240651001**********                                               1601
B0101404130601019971002GENERAL MILLING CORPORATION                              1601
B0101404130601771934002LEE, RENATO MUNAR AND YAN, EDWIN C.                      1601
B0101407560686025816001************                                             1601
B0101406750852041068088SOUTHERN HELEVICLE TRADING                               1601
B0101404130000000696191PINAGPALANG SAMAHAN NG NAGKAKAISANG                     11602
B1001400350233039880008NORMIN FOOD CHAIN CORPORATION - JOLLIBEE                11610
B1001400350233039881008EASTMIN FOOD CHAIN CORPORATION -                        11610
B1001400350233039882008WESTMIN FOOD CHAIN CORPORATION -                        11610
B1001400350233039882018WESTMIN FOOD CHAIN CORPORATION -                        11610
B1001400350233039883018CENMIN FOOD CHAIN CORPORATION -                         11610
B0101404130000000696191MANGAGAWA MULTI                                         21600
B1001400350233039880008LIMKETKAI                                               21600
B1001400350233039881008GREENWICH                                               21600
B1001400350233039882008JOLLIBEE GAISANO                                        21600
B1001400350233039882018JB PUERTO                                               21600
B1001400350233039883018JOLLIBEE XAVIER                                         21600
B0101410560110821100608**********                                               2002
