F3101400580452024497002MADOCS FAST FOOD SERVICE                                 2606CKO
F0101406330472433642001RENATO O. CHIU                                           2505CKO
F4101400260000000469330DEPANO, ABEL GONZALES                                    2503CKO
