B1001400350233821100608**********                                               2010
B0101408950396821100608**********                                               2010
B0101401830141821100608**********                                               2002
B3101400450223821100608**********                                               2002
A1901400160000019050898S RYE ENTERPRISES                                        0501
A0101407690000000495512MARIA BELEN FEDERIZON OR                                10502
A0101407690000000495512JOSE RENEIRIO FE                                        20500
A0101407690000010774473DIEL, AMOR DALAYAP                                       0503
A3001400130000009103662SERRANO, GENELIN                                         0502
B1601400170000000497570FUN DIVE ASIA INC.                                       1601
A3001400130000008916003HIDALGO, ELBERT ANTHONY VELOSO                           0502
A1001400350233777505001CESAR, NEMAS ACERA                                       0501
A2401400180000014562353BIALA, PSYCHE DARYL LECERA DBU                          10501
A2401400180000014562353PSYCON ENGINEERI                                        20500
A0101403320000018995110MT. ZION LOGISTICS                                       0501
B0101406590000019111309NAILPHILE NAIL AND BEAUTY STUDIO                         1601
A0101400860000015923352**********                                               0502
A0101401250000008233334ANDRADA, MALOU CARBONILLA                                0503
A0101400150061226702002SISCAR, MA ARLEEN                                        0502
A0101400150061227999001HERMOGENE H. REAL                                        0501
A0601400100000016176517TICSAY, CHARISSE ANGELES                                 0502
A0101410560000013758940VERGARA, GLENDA PATULAYIN                                0501
A0101400730111347787002CHAVEZ, LYNN FLORENTINO                                  0501
B0101406040112009142001ASIAN TERMINALS, INC.                                    1610
A0101401830000017559550LEGASPI, REYNALDO EMEMITA                                0502
B0101401830141591649001OMNI PROVENTURE ENTERPRISES CORPORATION                  1605
A7201400170000003773273MERLIN, ERVING NOEL A. OR                               10501
A7201400170000003773273MERLIN, KAY ARLYN P.                                    20500
A7201400170000003773302CERILLES, JUNAFLOR SARMIENTO                             0505
A7201400170000011454287OBAOB, MARIE FE MARAASIN                                 0502
A7201400170000013006836LIDRES, SHEILA GRACE TAN                                 0501
A5001400170000002288311VILLAMIL, MARISSA PULIDO                                 0501
A5001400170000006294580QUILO, JUDY BATION                                       0502
A0101400440000009591831MARTINEZ JR., MANUEL VILLENA                             0501
A0101400440000017672552RICAMATA JR., ANGELITO DBU                              10501
A0101400440000017672552JAY-AIR AUTO & A                                        20500
A0101400440000002035041MARIA GEVELA CARDINOZA                                   0501
A0101400440000000029401ANGEL, HELEN VILLANUEVA                                  0501
A0101400440161483348001CLAUDINE ROSE R. ETCUBANAS                               0501
A0101400440161520766189PRESCILA P. DOTONG                                       0501
A0101400440161520766193LEILANIE P. LOCSIN                                       0501
A0101407270162333154001FELIPE COCADIZ                                           0501
A0101401090171462332001MELODIA B. GESLANI                                       0502
B0301400530193040936168QUICK LUBE TIRE & SERVICE CENTER, INC                    1602
A0301400660000006862651**********                                               0501
A0301400660000005691778MANALASTAS, XAVIER ERIC BANDIOL                          0502
B0301400950000002252131ARCENA, GENE ATANGAN                                     1601
A0301400950000019142173LIDASAN, QUEEN HOLAISSA KAYUGAN                          0501
B0301400950000011415131GO G5 FORWARDING SERVICES CORP.                          1601
A0101401380000005320854TAN, JHONNY ANG                                          0502
A3101400870000019137170FLERAS, ARNALDO TAN                                      0501
A1001400350000015675393GO, ELVIRA LIBAGO                                        0501
B1001400480000000133268**********                                               1610
A1301400760000008698957BERNARD P. TORRES                                        0502
A1901400290000018582499VALENCIA, GLENDA CARRIDO                                 0501
B1901400290000019083048MOCA FAMILY FARM RLEARNING CENTER INC.                   1601
A1901400290261585775001LITA CUETO MENDOZA OR DORIS                             10502
A1901400290261585775001MARIE MENDOZA ME                                        20500
A0101401670000009425561BROZAS, VICROD CARDINES                                  0501
B0101406620000000962512ALLIANCE SELECT FOODS INTERNATIONAL                      1605
B0101406620273216386001CITIMEX, INC.                                            1602
A0101406620273403042001SANTOS, REDENTOR DELA CRUZ                               0502
A0101406620273409092001SALVADOR ARCHES JR. OR ARLENE                           10502
A0101406620273409092001ARCHES OR GRACE GARCIA                                  20500
A0101408660000005109853BALDOZA, JOAN JEAN FAJARDO                               0503
A0101410980000010894865KEH, ANSON DEE                                           0501
A0101411110000011413475MATEO, ALDELA LUALHATI                                   0501
A0101411820000000477361REYNALDO C. PIAMONTE OR                                 10501
A0101411820000000477361MARIA TRACY F. P                                        20500
A0501400200000011516993ELEGORES JR., ROMY MARTINEZ                             10501
A0501400200000011516993OR ELEGORES, JOVELYN G.                                 20500
A2601400270000003510749MARINELL P. JACINTO OR SHERWIN                          10501
A2601400270000003510749G. JACINTO                                              20500
A1101400120000000652380CAYUBIT JR., SERAFIN ASERON                              0501
A1101400120313478374035PINO, ROSE LACANDAZO                                     0501
A3401400280000005525377ALAVA, PABLO SALMORIN                                    0501
A0101405650322298552012ROSITA A. CARANDANG                                      0502
A0101402510341202843003***********                                              0501
A0101409050000018356186RAFAEL, JAYSON MARTIN                                    0501
B0101409050000013167841CUERPO, CELERINO AND HERNANDEZ JR,                      11602
B0101409050000013167841RICARDO AND                                             21600
A0201401020000019130020CUIZON, RIOFLOR PEPITO OR                               10501
A0201401020000019130020CUIZON, BOBBY JAMES VERDU                               20500
A0201401020000015170248PANGATUNGAN, NELISA TORREJAS DB                         10502
A0201401020000015170248                TRUCTION                                20500
A0101402930013100000282OCAMPO, CHARITY DELA ROSA                                0503
A0101408370000009296626HENSON, KARL EVANS RIVERA                                0501
A0101408370000011287342MANSIT, CLAIRE CAPARROS DBU VIN                          0501
A0101408370382313183001DR. SIDNEY Y. CHENG                                      0504
A0101408370382341971001DR. ARNOLD OZAETA OR                                    10501
A0101408370382341971001MA. RAMONA OZAETA                                       20500
A0101408370382460759001FUENTES, MARILOU BLANCO                                  0501
A0101402770000001841094BLANQUISCO, JEFFREY TUAZON JT                           10510
A0101402770000001841094DBU BLANQUISCO T                                        20500
B0101405490000016418376TOS CLOTHING & TRADING OUTLET INC.                       1603
A0101408400000014500533AMBASING, JACQUELINE PASCUAL                             0502
A0101408400394162577001REYES, ELSA UNGSOD                                       0502
A0101408400000007540003HERNANDEZ, AMANDA BEATRICE VENE                          0501
A0101408950000011077842PURACAN, LUCILLE TAN                                     0501
A0101408950000011598799MAGNAYE, EVANGELINE SAPIN                                0501
A0101409180000002036602CHUA, STEPHANIE TAN                                      0505
B0101409180397024348001APPLESEED MONTESSORI INCORPORATED                        1601
A0301400820000001185780RUFEROS, ROY KENNETH OR                                 10501
A0301400820000001185780AREVALO, MICHELLE KAY                                   20500
A5501400120000002018888INOCENCIO, STEVEN DELOS REYES                            0504
A2401400180000005286911LIM, SUSAN LIM                                           0501
B0901400220432750068001NOCOM, JOSELITO GABRIEL                                  1601
A0101403320000007886820RONNIE P SANCHEZ                                         0502
B0101403320471041480001ITP CONSTRUCTION INC                                     1610
B0101403320471041866001ITP PROPERTIES CORPORATION                               1610
A0101406330000015172119BALDONADO, MILAGROS TOTANES                              0501
A0101406330472479887001ELIZABETH U. ALAMAR                                      0502
B1901400320000000041283SAN ISIDRO MULTI-PURPOSE COOPERATIVE                     1601
A3801400170000018536315BARRANDA, JOHN SALONGCONG                                0501
B1901400160491064500001GOOD HEART MARKETING INC.                                1602
A1901400160000008297769CLEOFE, LOURDES PEREZ                                    0502
B1401400110000009019756M2D2 REAL ESTATE CORPORATION                             1601
A0701400260000013603771IMPERIAL, A DAISY DIZON                                  0501
A0701400260000006599520MORANO, JOEL DBU JOEL TIRE CAR                          10505
A0701400260000006599520CHECK CENTER                                            20500
B0101407430000001213034BORDERTRADE MANAGEMENT INC.                              1603
B0101405940512005476001A.C. HERNANDEZ & CO. INC.                                1604
A0101405940512682265001BANAL II, HERNANDO TUAZON                                0501
B0101411400000016322553PASCUAL, MARISEL Q DBU 3 ANGELS FLAT                    11602
B0101411400000016322553APARTELLE                                               21600
B0101411400000001280591GIONYX TOTAL BEAUTY INC.                                 1601
A0101412050000018689464ZHANG, ZHENYING                                          0501
A0101403450000000135500**********                                               0502
B0101403450000002975699DE ORO APENA FOOD PRODUCTS, INC.                         1601
A0101403610531064267001HEPOS, E DBU LCJ MOTORCYCLE                             10502
A0101403610531064267001SHOP AND PARTS                                          20500
A0101403610531219488001REFORMA, MARILOU                                         0502
A0101403610531220657002SOUZA, TERESITA YAMBAO                                   0502
A2201400250000000433510GENDRALA, R DBU GROW STRONG GEN                          0501
B0101404130000014145803LINK RI CUSTOMS BROKERAGE INC.                           1605
A0101407720000004664028BALCE, RIZALDY EBE                                       0501
A0101407720602397448001GUERRERO, CARMENCITA GISBERT                             0503
A0101407720000012156073DOBLON, RICA COLANDOG                                    0501
A0101404260000013860050CRUZ, FLORAMAY FRANCISCO                                 0501
A0101404260611549813001GALLANOSA, JOEL VELASCO                                  0501
A0101409920000002260588MARTILLO, PAULA BIANCA B. OR                            10501
A0101409920000002260588MARTILLO, VIRGINIA B.                                   20500
B0101407690000000243832IDESCO CONSTRUCTION AND DEVELOPMENT CORP                 1602
A0101407690652207359001AMELIA G. AREVALO                                        0504
A0101411530000002260322KRISTINE ANTONIETTE T ABDON OR                          10501
A0101411530000002260322PHILIP L ABDON                                          20500
A0101411530000018947785RAGOJOS, CHRISTIAN NOEL RAPANAN                          0501
B0101413440000018280521GOOD HEALTH MEDICAL AND DIAGNOSTIC                      11601
B0101413440000018280521LAB INC.                                                21600
A0101413570000002976232TAAY, MAYUMIE MAE BERNARDO                               0501
A0101413990000000726512*                                                        0501
A0101413990000000726512CASTRO, GIZA A.                                          0501
A0101414120000000875572REDESIL CONSTRUCTION                                     0502
A0101414120000016395347*****                                                    0503
B0101414120000001984336LRKD MARKETING AND TECHNOLOGY SERVICES                  11603
B0101414120000001984336CORP.                                                   21600
B0101414120000003584350LRKD MARKETING AND TECHNOLOGY SERVICES                  11603
B0101414120000003584350CORP.                                                   21600
A0101406590662044702001PTS TUTORIAL AND REVIEW SYSTEMS                          0505
A1301400210000003104985QUIZON, NELSON GALIT                                     0505
A1301400210682247159001EMMA N. CRISOSTOMO                                       0503
A1301400340000002158476ALIPIO, ALMA DELOS SANTOS DBU                           10501
A1301400340000002158476ALIPIO GARMENTS                                         20500
A1301400340000006402422DE GUZMAN, DENNIS CHING DBU ALL                         10502
A1301400340000006402422ACCESS ENTERPRISES                                      20500
A0101408240711396310001LESTER C. VICTORIA OR                                   10502
A0101408240711396310001GIL JOSE E. PULUMBARIT JR                               20500
A0101408240711461431001PIDO, KARLA PEREZ                                        0505
A0101408240711643338001ARCAYA, MICHELLE GRASPARIL                               0501
B2801400100000019088443FREEPORT MANSION LEISURE CORPORATIO                      1605
B2801400100712046914001IREC CORPORATION                                         1602
A2801400100712507515001PINEDA, JENIPHER VISDA       OR                         10502
A2801400100712507515001PINEDA, RAUL PER                                        20500
B2801400230000001580296DEL ROS AMUSEMENT ENTERPRISES, INC.                      1602
A4101400260000006043312MARTIJA, NORIEL LOJO OR                                 10501
A4101400260000006043312MARTIJA, JINGAY TUAZON                                  20500
A4101400260000011417962MELENDRES, MARY ANN AVELINO                              0502
A4101400260000012877551MA. ROSALINDA M. PASCUAL                                 0501
A4101400260812396084001JOSEFINO S. REBANCOS, M.D.                              10505
A4101400260812396084001LIGAYA S. REBANC                                        20500
A4101400260812403511001BOSITA, CHRISTIAN DUA                                    0501
A4101400420000004848108ISABELO, MORMON TUBELLO                                  0505
A4101400420814478374122AGUILO, RODENA T.                                        0501
A4101400420814520766045BOCO, ADELA G.                                           0501
A0101412340000004681396PATRICK C. FORMOSO                                       0502
A0101404840851520766071TERESITA SANTOS                                          0501
A0101406750000017168953LIMPO, MA. REYCHI GAMOTIN                                0502
A0101406750000016807579CATRAL JR, QUIRINO JIMENEZ                               0501
B0101406750852040279001JEIKA PROPERTIES CORPORATION                             1602
A0101406750852799786001RIGUERA, JOSE MAURICIO AGUSTIN                          10502
A0101406750852799786001DBU MRIGUERA PRO                                        20500
A0101413860000019137421CABANSAY, RONALD GARCIA                                  0501
A0601400230000001687221GUEVARRA, SHARON AUSTRIA                                 0501
B0601400230000013259246VALERIO, RAOUL PEREZ DBU R. VALERIO                     11602
B0601400230000013259246TRADING                                                 21600
B06014002300000060452907R FINANCE CORP.                                         1610
