A0101411400000016322462BERGONIO, RICARDO I DBU                                 10503
A0101411400000016322462LOS ANGELS CAFE                                         20500
A0101411400000012209948MENDOZA III, MIGUEL REGALA                               0501
A1901400290000017290563DE TORRES, WYANETH KAY LATAG                             0501
A0101415350000013691200ESPANOLA, MARY ANN GEOCANIGA                             0501
A0101415350000015170755AGANUS, ALMA JUNSAY                                      0501
A0101403320000013760711BISARES, CECELIA CUDAL                                   0501
A0101400860000017478794************                                             0510
A0101400860011426836001*********                                                0503
A0101400860011435365001**********                                               0505
A0101400860011519806001**********                                               0506
A0101400860011626861001**********                                               0501
A0101401250000012169250TECSON, RACHELLE ANN DOROMAL                             0501
A0101401250920010000287SIASIT, CAROL PAMPLONA                                   0503
A0101401250019120002191MAGNO, ANGELO DELEON                                     0505
A0101411370000003548958CRUZ, CHRISTIAN VENDIVEL OR                             10501
A0101411370000003548958CRUZ, RACQUEL GO                                        20500
A0101400150000001422520RHODORA V. SANTOS                                        0501
A0101400150000011714997MANZANO, KRYSTELE ANN DUPILAS                            0501
A0101400150000010773885PACHECO, AILEN ALITAGTAG                                 0501
A0101400150000016117161DIAMZON, JULIO SANTOS                                    0501
B0101400600071233681002WILLIAM LAO AND MARY VILLARIN                            1606
A0101400600000008914956LORNA PEDERNAL OR                                       10510
A0101400600000008914956ARTURO ANGELES                                          20500
B0101400600071373478001CRUZ, JOSEFINA OR SALVADOR, ALEJANDRA OR                11605
B0101400600071373478001CRUZ, JOHN OR EL                                        21600
B0101405810072300425001**********                                               1601
A0101405810072365030001SHERWIN D. CUA                                           0503
A0601400100000007253978CUNANAN, ALVIN ENRIQUEZ                                  0501
B0601400100000000032771PRESCRIPTO CORPORATION                                   1601
A0101414090000008926996PEYRA, CRISTINA CHAVEZ                                   0501
A0101414090000012425051ANG, FRANCIS LORENZ ORTIZ                                0501
B0101414090000007344541LILAC CENTER FOR PUBLIC INTEREST, INC                    1602
A0101410850000015389532OSABEL, GRACE D. DBU STAGE PRO                          10501
A0101410850000015389532EVENTS MANAGEMENT                                       20500
A0101410850000013190999OSABEL, GRACE D. DBU STAGE PRO                          10501
A0101410850000013190999EVENTS MANAGEMENT                                       20500
A0101410560000001944094CASTILLO, NEIL AYONQUE                                   0501
A0101401960121238737001*********                                                0501
A0101401960000005392485*****                                                    0501
A5001400170000005705277PERATER, ROSEMARIE JOSUE                                 0501
A0101400440000014296701CHAVEZ MURPHY MENDOZA                                    0501
A0101407270000007783375MARIFE J. LOGO                                           0502
B0101407270162008369001NMS CONSTRUCTION COMPANY                                 1601
B0101407270162038101001BIRDS INTERNATIONAL, INC.                                1603
A0101401090171062304001TOMASIAN FASTFOOD CORP.                                  0510
B0101401090171202346001A & P CASTLES REALTY, INC.                               1602
A0101401090000001619030PESO, MARIA CECILIA S. OR                               10501
A0101401090000001619030AQUINO, MARIA CR                                        20500
B0301400530193551185168QIU, YIYI                                                1602
A0301400660000006862873DEQUITO, CITZY VENTOR                                    0502
A0301400660194075360001EGOS, MICHELLE ALBERTO                                   0501
A0301400790000005692173SIMON, DIOSEE GENTILES                                   0501
A0301400790000012273977BONILLA, KEITH CONRAD PANISALES                          0502
A0101410720000016903258QUINESIO, JINETE REBELLO                                 0501
A0101410720653385187001SERVILLANO H. GALVEZ JR. OR                             10504
A0101410720653385187001KAREN F. GALVEZ                                         20500
A3101400740000006735857JARABELO, NATANIEL MADRID DBU                           10502
A3101400740000006735857COZY TREK RENT A CAR                                    20500
A1001400350000015675508JG EVENTS SERVICES                                       0501
A1001400480000005356065GONZALES, TONNIE MAE MONTERO                             0502
B1001400480000011809886MIJARES, ARDEXIS F AND BUNTAG, DANNY AND                11601
B1001400480000011809886RABOY, NOEL                                             21600
A1301400470252547786002EFREN G. DELA CRUZ                                       0502
A1301400760000009812211MARICEL MARILAG DELA MERCED                              0501
A1901400290000000135220MARGGIE LUMBERA SALES                                    0501
A1901400290000017290381LLIVIEN GUY SURMIEDA VILLAPANDO                          0501
B1901400290261047995001SPOUSE OF THE BLESSED VIRGIN                            11605
B1901400290261047995001HOSPITAL INC.                                           21600
A1901400290261488341090ROMULO ROMMEL L ROSITA                                   0501
A1901400290261493025047ROWENA G BAWAR                                           0501
B0101401670000000016300NEWLINE INDUSTRIES, INC.                                 1603
B0101408660274047925001CNT PROMO AND ADS SPECIALISTS, INC.                      1610
B0101408660000000373197KINGS ENVI-TECH CORPORATION                              1601
A0101412470000002136130DAVID, CECILIA SUMULONG                                  0502
A0101400570000016544348SALIO, FREDERICK BUCANOG                                 0501
B0101400570000013647377FRUITASGROUP INC.                                        1601
A0101400570281388539029MATILDE C. ASUNCION                                      0501
B1101400120000000653150PERPETUAL HELP MULTI-PURPOSE COOPERATIVE                 1603
A6601400120000010637562LLANO, MARY JANE LEANO                                   0501
A6601400120000013899228FUENTES, NEIL JOHN CONDE                                 0501
A6601400120314668441002MASLOC, SHERRY AMOR GALONO                               0501
A6601400120314690205001MAMACOS, CRESILDA OR MAMACOS,                           10502
A6601400120314690205001SINFORIANO                                              20500
B0101405650000015273891BERNABE, MA. DARLYNNE ESPINOSA  DBU EL                  11601
B0101405650000015273891EXITO TRAVEL AND                                        21600
B0101405650322036086001VISTALAND INTERNATIONAL MARKETING, INC.                  1605
B0101402510341018003001COLEGIO MEDICO-FARMACEUTICO                             11606
B0101402510341018003001DE FILIPINAS INC                                        21600
A0101402060000002259992CO SAY, ERIC CUA                                         0501
A0101409050000008491043VILLAFLOR, RIA RODELAS                                   0501
A0201400760000009996098ORMOC, MARY JANE UYKINGTAN OR                           10502
A0201400760000009996098ABANO, CATALINA                                         20500
A0201400890000007877501MAGLAD, REDONIO DALOMINGO                                0502
A0201400890000008415703MOORTHY, GANAEISAN SO M                                 10501
A0201400890000008415703THATSHINA                                               20500
A0201401020000005250691PANGATUNGAN, ALEMODEN AYING                              0502
B0101402930000008462493PARIS TECHNOLOGIES PHILIPPINES, INC                      1604
A0101402930381279196001JUAN MIGUEL R. BONDOC                                    0504
A0101402930381302527001HELEN S. PANGAN                                          0501
B0101408790000014115925WINROCK INTERNATIONAL INSTITUTE FOR                     11602
B0101408790000014115925AGRICULTURAL DEV                                        21600
A0101411660000005324196ARTECHE, THOMAS JOSEPH MONTEJO                           0501
A0101402770391485223002AVILA, ROMEO MONTERO OR                                 10501
A0101402770391485223002AVILA, LOURDES RICAFORT                                 20500
A0101405490392032343001TWIN PEAK BRASSIERES                                    10504
A0101405490392032343001MANUFACTURING INC.                                      20500
A0101412210000014244492REBLORA , RHIZALDY DOZON                                 0502
A5501400120000014312306JAVELLANA, JONEL MASA                                    0501
B5501400120410041925008EASY PAY FINANCE CORPORATION                             1610
B2401400180411046609001MATUTUM OIL MILL AND REFINERY                            1601
A1201400150000016104271AGSALUD, MARVYLINE MEDENILLA                             0502
A0101403320000017786424PAJARILLAGA, SYDNEY CLAIRE M.                            0501
A0101403320471205827001JOWIN TRINIDAD OR                                       10501
A0101403320471205827001MARISSA TRINIDAD                                        20500
B0101403320471206926002LOLITA B COLINA                                          1601
B0101406330472021511003ASSOCIATED WIRE CORP. OF THE PHILS.                      1602
B0101406330000000432966ARGENTFARM PRODUCTS SPECIALIST INC.                      1602
A0101407430000011167661DEPALOBOS, JANICE SOLITARIO                              0501
A0101407430000013169592PILAPIL, HAROLD LARA                                     0501
A0101407430000014298383MAGSAYO, ROY PHILIP REGENCIA                             0501
B0101407430503021143001PHIL-AMER IMMIGRATION SERVICES, INC.                     1602
B0101407430503414740001ORBIT AIR SYSTEMS, INC.                                  1610
A0101403580511570521001ELEONOR B. BAYANI OR                                    10501
A0101403580511570521001JOVITO BAYANI                                           20500
A0101408530516571877037MAEA ROMA C. SY                                          0501
B0101411400000004555799BF CORPORATION                                           1605
A0101412050000000323646SCHUCK, MARIA DEODITA MARGARITA                          0501
B0101403450521238082001*********                                                1601
A0101403610000017754395VILLARINO, MA. RITA LADORES                              0501
A0101403610000017777212NATAYA, MELANIE MACARIO                                  0501
B0101403610531029447001QUEENS BEST COOKING OIL AND                             11602
B0101403610531029447001MARKETING CORP.                                         21600
B0101403610000003053170LORENZANA FOOD CORPORATION                               1605
A0101403610531219950001DRA. RUBRICO, KHRISTINE CARRERA                          0503
A2201400250000001066006BERLYN T. COSTALES OR                                   10505
A2201400250000001066006JOYCE D. GOMEZ                                          20500
A0101404130601451527001MA. PAZ OR EMMA ERLINDA OR                              10502
A0101404130601451527001GERARDO OLIVERIO LAPERAL                                20500
A0101407720602318369109NIDA A. EUSTE                                            0501
A0101407720602397470001DR. ELIZABETH IFURUNG-GONZALES                           0501
A0101407720602399405002THELMA E. RAMOS OR                                      10503
A0101407720602399405002CLAVER P. RAMOS                                         20500
A0101412180000000503951JOYCE KATAYAMA OR RENNSE DANGAN                          0502
A0101412180000004089101ORNILLO, MA. CRISTINA REGLOS                             0501
A0101404260611096282001LUCERO, LEILANI DIGO                                     0501
A0101404260611392805001TABLANG, ALEXANDER JOSEPH                               10502
A0101404260611392805001OR TABLANG, SHIRLEY                                     20500
A0101409890000011486350GREGORIO, FEDERICO ANACLETO                              0501
A0101407690000000495512MARIA BELEN FEDERIZON OR                                10501
A0101407690000000495512JOSE RENEIRIO FE                                        20500
A0101407690000008045943ANDRES, JOVINA CARINA BALMACEDA                          0502
A0101407690652034806001BROWNFLY COMMERCIAL                                      0510
A0101407690652520766005GILNNA M. MALIGAT - DEALERS OF                          10501
A0101407690652520766005SHOECAT INC.                                            20500
A0101414120000009850804GOLTIAO, GLORIA JOSEFA KATALBAS                          0501
B1301400210682030329002ANDAN ENTERPRISES, INC.                                  1603
B1301400210682041874001MBB ROYALE INTERNATIONAL INC.                            1605
B1301400210682041874002MBB ROYALE INTERNATIONAL INC.                            1605
B1301400500000001412242SHIMIZU-FF CRUZ JV                                       1601
B0101408240000000832860GATEWAY AIR SERVICES CORPORATION                         1602
A0101408240711385831002SUAREZ, ROBERTO NARCISO  OR                             10501
A0101408240711385831002SUAREZ, SOCORRO                                         20500
A0101408240711588674001INONOG, PRINCE OR LOWELLA                                0501
B4101400260000006043432MAHLE FILTER SYSTEMS PHILIPPINES CO                      1601
A4101400390000015067462MARK ANTHONY R. PALAD                                    0501
A4101400390000017756142SANDRA LUZ C. AMBAT                                      0501
A4101400390813478374003ELANE A. AUXTERO                                         0501
B4101400420000006643387LEAD WITH INTEGRITY AND GOOD GOVERNANCE                 11605
B4101400420000006643387IN HELPING COMMU                                        21600
A0101404840000003069925VALENCIA, JUDY D.                                        0503
A0101404840851478374121MARISSA L. ESPARAGOSA                                    0502
A0601400230000006243136ESCANO, RODERICK FERNANDEZ                               0502
A0601400230000001062377EUSEBIO, ARVIN VIRAY                                     0501
