B0101404260611821100608**********                                               2003
A0101412340000010659879CALICA, JOHN LAZAGA                                      0501
A0101412340000003344341AILEEN L. LUMBANG                                        0501
A0101402770000017703538VALENCIA, CATHERINA ROSENDO                              0501
B1901400160491012917001ALPS THE BUS INC.                                        1610
A1901400160491054530001E C G INDUSTRIAL SERVICES                                0501
A1901400160491494343001RAINIER C UNTALAN OR                                    10505
A1901400160491494343001RELYN M UNTALAN                                         20500
A0101405070000000741360ALMA DE MESA FIEL OR                                    10501
A0101405070000000741360ROMEL TORE FIEL                                         20500
A0101405070861405634001ROSALIE KIKUCHIBARA OR                                  10506
A0101405070861405634001TAM KIKUCHIBARA                                         20500
A0101402350321478374008VICTORIA ELLE                                            0501
B0101415350000005028933DE DIOS, MA. REGINA G. DBU GRABENGO OR                  11603
B0101415350000005028933DE DIOS, ARIEL F                                        21600
A1701400230000016783638ORBINA, MARY JANE MENOR OR BARA                         10501
A1701400230000016783638NGAN, EMILIA FERMIN                                     20500
A0101412340000006451378DINDI MELISSA R. FERNANDEZ                               0501
A0101400860000017478812**********                                               0503
B0101400860011035923001**********                                               1601
B0101400860011305536001**********                                               1601
B0101400860000017478801**********                                               1605
A0101400860011435648001**********                                               0505
A0101401250920010000143RAMOS, LUZ DELOS SANTOS                                  0503
A0101401250000002131759PAZ VALERIO CORPUZ                                       0501
A0101401250021178973001VICENTE S. BERNARDO OR                                  10510
A0101401250021178973001ARACELI C. BERNARDO                                     20500
A0101401250021287294002MARIETTA CHAVEZ ONOFRE                                   0502
A0101400150000000807636TESALONA, MARIA CLAUDETTE CRUZ                           0501
A0101400150000017795527ABESAMIS, EUNICE RAMOS                                   0501
A0101400150000017795629BANDONG, ARNELITO FRIAS                                  0501
A0101400150000017795663CEGUERRA, LUVIENA SANTOS                                 0501
A0101400150000017795710SANTIAGO, ARNEL DIZON                                    0501
B0101400150000009694546LUCKY ONE REALTY VENTURES INC                            1602
A0101405810072234684002TAN, RAYMOND                                             0501
A0101405810072236268001*********                                                0501
A0101405810000015531183**********                                               0502
B0101405810072642761001***************                                          1601
A0601400100000012793249EMPLOYEES OF RMS COLLECT PHILS.                          0501
B0601400100081253610001WILFREDO M. NG                                           1602
A0601400100081286804004WARD, BARRY MAXWELL                                      0501
B0601400360000000978936THE MEDICAL CITY CLARK, INC.                             1620
A0601400520000016098421DAVID, AMY CRUZATA DBU GREATSTA                          0505
A0101413730000002229676***************                                          0501
A0101414090000014876209ZAPANTA, MARIA RITA SALAZAR                              0501
B0101410850000007294382DAHN BERGER PHILS. CONSTRUCTION                         11601
B0101410850000007294382COPRORATION                                             21600
A0101413310000009641152DIZON, YOLANDA ALABANZA                                  0501
A0101413310000017805580CAREN JOYCE PADRONES CRUZ                                0501
A0101412920000017807991MARALIT, MARIA TERESA CECILIA M                          0501
B0101407270162036459001ULTRATECH PRINTING CORP.                                 1608
A0101401090171491755001OLIVIA C. GO                                             0502
B0301400530000015421020COLINA, MANNY DBU MCM AUTO SUPPLY                        1602
A0301400530193269054001ANG, LORETO R.                                           0501
A0301400790000005691990EMBALSADO JR., ALBERTO GEMPESAW                          0502
A0101410720000016140100PALLORAN, JEANNETTE BAUTISTA                             0501
B0101410720000014921241MAGNETRON CONSTRUCTION AND DEVELOPMENT                  11602
B0101410720000014921241CORP                                                    21600
A0101413600000008442604JO MICHELLE P. RESURRECCION                              0501
B3101400160221047376001JFA ELECTRICAL CONSTRUCTION AND GENERAL                 11605
B3101400160221047376001SERVICES INC.                                           21600
B3101400740000000013889IM DIGITAL PHIL INC.                                     1610
A3101400870000017784906ESCUETA, JOAN DALISAY                                    0501
A1001400190231358911001WILLKOM, RICHTER OR ERLINDA                             10501
A1001400190231358911001OR LILLIBELLE                                           20500
A1001400350000004095352PIMENTEL, JOSEPHINE WALTENSPIEL                          0501
B1001400350000000017041LIMKETKAI HOTEL & RESORT CORPORATION                     1610
A1001400350233478374026ANNABEL ESTOMO                                           0501
A1001400350233505176001AGAWIN, ERLINDA GALENZOGA                                0502
A1301400470000004626864ANNA ROBERTA C. MENDOZA                                  0501
A1301400470000005394436SHELLA MARIE C. SANTOS                                   0502
A1301400470000011839833LEAH SAN PEDRO MACTAL                                    0501
A1301400760000005990003ROWENA D. ALVAREZ                                        0501
B1301400760000012984864QUALILAB MEDICAL INSTRUMENTS                             1602
A1901400290000009026022MARIA JANNETTE CRUZ DE GUZMAN                            0503
A1901400290261244687001CARMELITA B LUISTRO OR                                  10501
A1901400290261244687001JOSE B LUISTRO JR                                       20500
B0101406460000011598373URBAN FIT OUT CONSTRUCTION AND DEVE                      1603
B0101406460000000182483WEE COMMUNITY DEVELOPERS, INC.                           1605
B0101406460000010284852MAXWEB, INC.                                             1601
B0101406460000000020975********                                                 1601
B0101406620273012462006COL FINANCIAL GROUP, INC.                                1620
A0101408660274087543001POYAOAN, RODERICK ANCHETA                                0501
A0101411820000008442831GENALINE ESPIRITU CRUZ                                   0502
A0101400570000013360355PANTIN, SONIA ARRIBAS                                    0501
A0101400570281186636001REYNALDO R. PENILLA                                      0502
A0101400570281318871002REYNALDO OR MERCEDES OR                                 10504
A0101400570281318871002HERMENEGILDO VEN                                        20500
B2601400270000002677332CHRIST'S COMMISSION FOUNDATION, INC                      1603
A0801400160311347053002MA ELENA DIVINAGRACIA OR LLANE                          10502
A0801400160311347053002GRACE DIVINAGRAC                                        20500
A6601400120000005710418MENDADOR, ALMANZOR CHAN OR                              10501
A6601400120000005710418DE ASIS, DAHLIA                                         20500
A0101402350000014043959CRUZ, LOLITA FRANCISCO                                   0501
A0101402350321330335001BEATRIZ G. WAKAI                                         0503
A0101405650000006893458ZIOUTOS, ALEXIOS SANTUA                                  0502
A0101402060000000358623IMMACULATA, ROWENA MARTINEZ                              0501
A0101409050000000999619TUMAGAY, ELAINE SUMULONG                                 0501
B0101409050000013167841CUERPO, CELERINO AND HERNANDEZ JR,                      11602
B0101409050000013167841RICARDO AND                                             21600
B0201400760000017656994SME-AG GLOBAL EDUCATION INC.                             1601
A0201400890000017804309LING, ESTERLINA SAROMENIS                                0501
A0101402930000000623363KING, C DBU EASTERN CIRCLE                              10502
A0101402930000000623363HUMAN RESOUCE SE                                        20500
A0101408370382387809001DR. LEAH ROSARIO Y. DYCOCO                               0501
B0101415350000003212391SYNTECH SYSTEMS, INC.                                    1601
A0101405490000006242031BASAS, ELEONOR                                           0501
A0101408400000001213574MARGO POTS AND FLOWERS                                   0501
A0101408400394478374065VILLANUEVA, VILMA E.                                     0501
A0101409210000014368573MACATO, JOSE IAN KIT DEOCAMPO                            0501
A0101412210000002714569SANTIAGO, ROCKWEL RAFAEL                                 0501
A0101412210000017595798BILLAN, JUDY CHARIE S. AND                              10501
A0101412210000017595798BILLAN, JOMAR GATCHALIAN                                20500
A0301400820000008995599SUMAGIT, DANILO S.                                       0502
A5501400120000012653413CABLITAS, KRISTIAN JAY MANUEL                            0503
A5501400120000000003152MENOR, EDWIN DEMEGILLO                                   0501
A5501400120410633077001CLAVISILLAS, JOSIE OR                                   10502
A5501400120410633077001CLAVISILLAS, RON                                        20500
B2401400180000011299024LAPASARAN, RODULFO P. DBU R & J TRADING                 11603
B2401400180000011299024AND SERVICES                                            21600
B2401400180411061343002OBET AND BEA INDUSTRY CORPORATION                        1605
A2401400180000015944542ROWEL A. ALZONA                                          0505
A1201400150000016104253SILVA-NETTO, JOB RICO                                    0501
A0101403030441241013001JUDY S. LAZARO                                           0508
A0101403320000011173509ARIANE MADISON O. ALI                                    0501
A0101403320000017804172BUILD YOUR DREAMS ADVERTISING                            0501
A3801400170000017801628DUDAS, PASCUAL OR DUDAS, LILIA                          10501
A3801400170000017801628DBU RSTN RICEMILL                                       20500
A1901400160000012295580MICHAEL R. BARIL OR                                     10505
A1901400160000012295580SANDRA M. BARIL                                         20500
A0701400260000014169230GAPASANGRA, MARILOU SOLINA                               0502
B0701400260000000670991PURITAN LAND DEVELOPMENT CORPORATION                     1602
B0701400260000000041130TREVOR ETON REALTY CORPORATION                           1602
A0101407430000002298315EXCEL A. GRESOS                                          0501
A0101405940000015773723********                                                 0501
A0101405940512458148001DACLES, MARICAR LAGRIMAS                                 0502
A0101408530000008159484JENNIFER Z. PADIN                                        0501
A0101411400000010984246DELDIO, MANUEL FIDELIS                                   0503
B0101411400000001280615MULTIMIND INTERNATIONAL AB                               1606
B0101403450521036992001********                                                 1601
B0101403610000001450919P.A. METRO RESIDENCE BUILDERS, INC.                      1605
A2201400250000009019892FROSTVILLE ICE CANDY                                     0502
A2201400250561388295004AGONCILLO, ENRIQUETA BOTIO                               0501
A0101410690000000001758IGNACIO, JONATHAN DBU JCJ                               10502
A0101410690000000001758MANAGEMENT SERVI                                        20500
A0101407720000009181551DELA CRUZ, MARY LYN MELGAREJO                            0501
A0101412180000002340723MANACOP, JOEL ABAQUIN                                    0501
B0101412180000012033902ASTRAC SECURITY TRAINING INC.                            1605
A0101404260611478374029EVELYN M. DELFIN                                         0501
A0101404260611478374127BENIGNO G. SURIO JR.                                    10501
A0101404260611478374127OR CARMELITA M.                                         20500
A0101409890649721710001MAPILI, ERICK RYAN RIVERA                                0501
A0101407690000017782700ABUBAKAR, OMMAR KABULOT DBU                             10501
A0101407690000017782700SAGIRA GENERAL MERCHANDIS                               20500
B0101407690652041404001AUBURN POWER TECHNOLOGIES INC.                           1601
A0101407690652647252001VALDEZ, RAFAEL MEJIA                                     0501
A0101411530000001393682PACIA, EDWIN MICHAEL JOY B OR                           10502
A0101411530000001393682PACIA, ANNABELLE                                        20500
A0101413440000000702156PASOS JR., ARSENIO WANIA                                 0501
A0101413440000012579512MABASA, GEOFF DANIELLE CRISOSTO                          0501
B0101413990000014236272ACE DIAGNOSTICS CORPORATION                              1620
A1301400210682040042001EDUARD ALLAN TRADING                                     0501
A1301400210000009982176DNR MEDICAL SUPPLIES                                     0501
A1301400500000015587270NUGUID, RONALDO LLANOS DBU                              10502
A1301400500000015587270RSK TRANSPORT SERVICES                                  20500
A1701400230000005694277SANTOS, ROBERT JOHN SANTELLA                             0501
B0101408240000000832633A & V MALITLIT DEVELOPMENT CORPORATION                   1605
B2801400100000007629276JOBIN-SQM INC.                                           1602
B2801400230000000372729KRJ TRADING                                              1603
A4101400260000015401839DAGANTA, LELLANIE ENRIQUEZ                               0501
A4101400390000015067326LESTER P. REGODON                                        0501
A4101400420814478374043ESPINO, GEMMA D.                                         0501
A4101400550000000315062SUSON, STEVEN OGABANG                                    0502
A0101412340000005964269SANTOS JR., REYNALDO BORJA                               0501
B0101404840000003069630DE VERA, J DBU TERAVENTURE ENTERPRISES                   1601
A0101406750000000090942ADIVISO, SHIRARD LEONARDO CATIG                          0501
A0101406750000004822913AMMIE PE                                                 0502
A0101406750000002040271JOSEFINA M EVANGELISTA                                   0503
A0101405070861553114001RAJESH KUMAR IDANMAL                                     0501
A0101405070000008250275ROMEO ACOBA BAGAIN                                       0501
A0101405070000008250275ROMEO ACOBA BAGAIN                                       0501
B0101413860000001767826SAFEWAY WAREHOUSING, INC.                                1601
B0101413860000001767826SAFEWAY WAREHOUSING, INC.                                1604
A0601400230000014299659MUNOZ, MYLIN SANTOS                                      0501
A0601400230000005185833DUMAN-AG, MERCEDES MANUEL                                0501
