B2401400180411821100608**********                                               2010
B0101413860862821100608**********                                               2003
A0101406040000010081431********                                                 0502
A0101400860000017259895**********                                               0502
A0101400860011410778002**********                                               0510
A0101400860011416222002**********                                               0505
A0101400860000017259884**********                                               0502
A0101400860011428673001**********                                               0502
A0101400860011560288001**********                                               0502
A0101411370000005524421BATUIGAS, AURORA REBOQUIO                                0501
A0101411370022790042001HELEN L. CO OR MICHEL S. CO                              0501
A0101400150000000053114SANTOS-CRUZ, MA. CHRISTINA                               0501
A0101400150000017444947TORRES, RONBERTO VICENTE                                 0501
A0101400150000011714931CIRUJANO, RAYMOND ANTHONY MENDO                          0501
B0101400150061028993001PHILAGROW INCORPORATED                                   1603
A0101400150000000806746GINA D PINZA                                             0501
A0101400150061226341001ROBERTO S. SANTOS OR                                    10502
A0101400150061226341001ELVIRA K. SANTOS                                        20500
A0101400150061226461002SHEILA GOMEZ OR                                         10501
A0101400150061226461002BEDE LOVELL GOME                                        20500
A0101400150061227793001ANASTASIA DY OR EVELYN DY                                0501
A0101400150061315349084DAPHNIE YU KIM TENG                                      0501
A0101400150061430140001MIMI C. QUA                                              0501
A0101400150061696499001YAO, STANLEY MICHAEL W. OR                              10502
A0101400150061696499001YAO, MA. OLIVIA B.                                      20500
A0101400600000002335720LI, MAOHUA                                               0501
A0601400100000007250757TABIOS, ARNOLD BUMANGLAG                                 0503
A0601400100000015559541PANGAN, JOVIE CARILLO                                    0501
B0601400100000007185482ENVY BISTRO SPORTS SUITES, INC.                          1603
B0601400100081034790001SHINMEI CREDIT AND LOANS CORP.                           1601
A0601400100081254011001PANLILIO, MARIE CARMEN OR                               10501
A0601400100081254011001PANLILIO, AUGUST                                        20500
A0601400100081257461001CRUZ, MAGDALENA ESTERO OR                               10501
A0601400100081257461001PINE, KRISTINE G                                        20500
B0101414090000013005560PRIMAL WAD LOGISTICS CORPORATION                         1601
A0101410850000011276601NAYUBA, JONATHAN LAMAYO DBU                             10502
A0101410850000011276601DBNS BOTTLE TRADING                                     20500
A0101410850000003503999TESORO, PABLITO GOMEZ                                    0501
A0101406040000014388577DAVID, CASEY ANNE PASCO                                  0503
A0101406040000003332954NERVES, JOSE ROLITO NAPA DBU                            10502
A0101406040000003332954JRN GENERAL MERC                                        20500
A0101401960000010787541**********                                               0503
A5001400170000002288311VILLAMIL, MARISSA PULIDO                                 0501
A5001400170000015711447YAP, BEBRIN CAMO CAMO                                    0501
A0101412920000016275531ESPULGAR, PRINCESS JOY TELLO                             0501
A0101400440000002034895LILIA C. ECLEO                                           0501
A0101407270162331908150RAMON DANIEL S. RIVERO                                   0501
A0101407270000014296989CAMARILLO, CATHERINE ORFINADA                            0502
B0101401090171007908001PERPETUAL SUCCOR HOSPITAL &                             11606
B0101401090171007908001MATERNITY, INC.                                         21600
A0101401090171200776003ALLAN DE BELEN DE GUZMAN                                 0502
B0301400530000001009950RAZ, REX P.                                              1602
A0301400530000012016914IGADNA, BENITO ANITAP                                    0501
B0301400660000013311050SYCORE BUSINESS SOLUTIONS CORPORATI                      1601
B0301400950000013759141VILLARINO JR., ELISEO H. OR SANCHEZ,                    11602
B0301400950000013759141ELVERA R.                                               21600
B0301400950000011415186SYSTEMSANDSHELVES INC.                                   1602
B0101401380201034247001HOBBIES OF ASIA INC.                                     1604
A0101413020000010882216MAQUINTO, ERICSON BARO                                   0501
B0101413020000006316890METRO HEART SPECIALISTS GROUP (MHSG                      1602
B0101410720653043060001METRO DRY CLEAN VENTURES, INC.                           1603
A0101412500000017434425MANAHAN, DIANA JOY DETRAS                                0501
A3101400160000002355893CHIPECO, ROLANDO MONTANANO                               0501
A3101400740000010897535PERAS, CHRISTIAN OR                                     10502
A3101400740000010897535PERAS, GEMMA MARIE                                      20500
B3101400740224068263001R12 EMS PHILS INC                                        1602
B3101400870225067454001GDNC GAS AND LUBES CORP.                                 1604
A3001400130000014779681NINO, JESSIE SIMBRAN                                     0501
B3001400130000013667531BUTUAN HJR INTERNATIONAL CORPORATIO                      1610
A3001400130230478374028MAGLASANG, ELIZABETH DAHANG                              0501
A3001400130000000931162VOCALES, MYRA SERENO                                     0501
A1001400190000001057396LOLITA B. DULCA                                          0501
A1001400480000002300372GALUT, MYRNA MANGALLAB                                   0501
A1001400480000005356010SEVALLOS-PESQUERA, AILYN T OR                           10501
A1001400480000005356010PESQUERA, JONATHAN M                                    20500
B1001400480000011809922CONPLAS INDUSTRIAL CORPORATION                           1601
B1001400480000017203560NLP ENTERPRISES, INC.                                    1601
B1301400470000013689917CAB-DEL PAINT CENTER                                     1601
A1301400760000011058363ERNESTO B. MENCIAS JR.                                   0501
A1301400760000008699089ANA MAY GABAWAN OR MARK ANTHONY                         10505
A1301400760000008699089CHUA OR EDUARDO DELA CRUZ                               20500
A1301400760000008699090ANA MAY GABAWAN OR MARK ANTHONY                         10505
A1301400760000008699090CHUA OR EDUARDO DELA CRUZ                               20500
A1901400290000011794611ALMOROS, JONALYN EGAR                                    0502
A1901400290000003252720DIVINA GINA SANGALANG DE CASTRO                          0501
A0101406460272190124002UNSON, MA. LUISA D.                                      0502
B0101406620273021869001MACROLITE CORPORATION                                    1605
B0101406620273028521001I-REMIT INC.                                             1602
B0101406620000000015005CARPIO & BELLO LAW OFFICES                               1601
A0101406620273214702001MARIA CONCEPCION                                        10501
A0101406620273214702001ASUNCION U. NOEL                                        20500
A0101410980000002987086**************                                           0503
A0101412470000010561850REYES, DINDO DOMINIC HERRERA                             0501
A0101412470000015623351VILLAVICENCIO, RENATO TUGADE                             0503
A0101400570281188125001LUISITO O. LLIDO, M.D.                                   0501
A0101411240000013962013PIOQUINTO, CHARMAINE MAE CARRER                          0502
A0501400200000016276012PASION, JOSE CARLOS NILO                                 0501
A0501400200000002306127OYAMAN, GERTRUDES ABANDO                                 0502
A2601400270000016515252EROL R. RAMOS OR                                        10501
A2601400270000016515252EMIRALD J. RAMOS                                        20500
A6601400120000013857793AMANDE, BEATRIZ N DBU BETTY'S                           10501
A6601400120000013857793GENERAL MERCHAND                                        20500
B6601400120314612845001LOMAGDONG, PETER OR TANG, PATRI                         11603
B6601400120314612845001LOMAGDONG, JOYCE                                        21600
B0101402350321006710001DASMA CITYWIDE GEN MDSG INC.                             1604
B0101402350000000655492RD PAWNSHOP, INCORPORATED                                1607
A0101405650322071567001AGUIRRE, ACHILLES LIM                                    0501
A0201400760000017093095SORIANO, ROSELYN YU                                      0501
A0201400760000013669100CONTECH SYSTEMS MARKETING &                             10502
A0201400760000013669100SERVICES                                                20500
B0201400760000013669355OLVIS TRAVEL & DOCUMENT SERVICES                         1601
A0201400890000012951343LAO, GERYLGING ITUCAS                                    0502
B0201401020000005109922RED CHERRY 'N SILVER TIPS CORP.                          1605
B0101402930000003734861POLICARPIO & ACORDA LAW OFFICE                           1602
A0101402930381419788001ALMARITA JIMENEZ OR                                     10501
A0101402930381419788001MA. REGINA COELI                                        20500
A0101408370000006446422SUMULONG, MARIA CARINA TERESA A                         10503
A0101408370000006446422SUMULONG III, LO                                        20500
A0101408370000011287342MANSIT, CLAIRE CAPARROS DBU VIN                          0501
A0101408370382205147001DR. JOSE EMMANUEL G. FLANDES OR                         10505
A0101408370382205147001DR. NORA M. FLANDES                                     20500
A0101408790000011534860TOLENTINO, ARSENIA SAMONTE                               0501
B0101405490000013942111REXIM PHILIPPINES UNIVERSAL SALES                       11602
B0101405490000013942111CORPORATION                                             21600
A0101405490392034892001JABEZTECH TRADING                                        0502
A0101405490392170151001MINDA A. TIMTIMAN                                        0504
A0101409210000013276592LIN, HESTER CHUA                                         0501
A0101412210000000238500ZAMBRANO, SUZANNE JUANEZA                                0501
A0301400820000014657982ACLAO, MARILOU G.                                        0501
B5501400120410041377001PEOPLE'S GENERAL MERCHANDISE                             1605
A2401400180000012748573ENOC, MARY ROSE DBU TARGETS                             10501
A2401400180000012748573COMPUTER PARTS &                                        20500
A2401400180000005536621BANTUG, IMELDA MARAVILLOSA DBU                          10510
A2401400180000005536621JMB AGRI SUPPLY                                         20500
A2401400180411276219002NONO, JENNY DIZON                                        0502
A2401400180411525470001DE GUZMAN, ERNESTO MANGONI                               0501
B1201400150000000034380THE LORD IS MY SHEPHERD CHRISTIAN MINIST                11601
B1201400150000000034380RIES BAGUIO CITY                                        21600
A5101400100000010834012ABELANIO  DAFFODIL WYNNROSS NOT                          0501
A0101412890470077060001JACQUELINE LAUREN I. MARCELO                             0501
A0101406330000014144986ALVAREZ, BRENDA MAALIHAN                                 0502
A0101406330472027958001A. ANOLIN ENTERPRISES                                    0502
B0101406330000012246901PASIG DOCTORS MEDICAL CENTER INC.                        1610
A0101406330472298552011CARINA F. FALQUERABAO                                    0501
B0501400170481025398002COSTSAVER'S SUPERMARKET, INC.                            1602
A1901400320000009104283CALLEJA JR., DANILO PERALTA                              0503
A1901400320000011971830RIVERA, MARIA TERESA SUAREZ                              0503
A1901400160000012295580MICHAEL R. BARIL OR                                     10505
A1901400160000012295580SANDRA M. BARIL                                         20500
A1901400160000016603315DRA. DONALYN S. BARCIAL                                  0501
A1901400160491055261001MANALO, KEVIN OLIVER MARQUEZ                             0501
A1401400110000005526990DIHIANSAN, CHRISTINE BRIOSO                              0501
B14014001100000170355797M GARMENTS CORPORATION DOING BUSIN                      1601
A0101403580511562774001ALMA L. AMPER                                            0501
B0101405940000000002751BASK DISTRIBUTORS, INC.                                  1605
A0101408530000017449022BUITA, PHILIPP ANTHONY BALLESTE                          0501
A0101408530000001268504JONN DAVID S. BALTAZAR                                   0501
A0101411400000017189734DIVA R. VELEZ                                            0501
A0101411400000016322382LUO, CHENCHEN                                            0501
B0101411400000006560950PAGDANGANAN AND ASSOCIATES                               1601
B0101403450521011872001**********                                               1601
B0101403450521011975001**********                                               1602
B0101403450521042526001HOPE CHRISTIAN HIGH SCHOOL, INC.                         1605
B0101403450000010454190**********                                               1602
A0101403450521310248001**********                                               0502
A0101404130000016160893SONGCO, MARISSA MEDINA OR                               10501
A0101404130000016160893PE, KELVIN BRIAN ALOG                                   20500
A0101404130601339897001DR. LESLIE V. TIU                                        0501
B0101407720602026114001**********                                               1602
A0101407720602286255002**********                                               0503
A0101407720602296258001GIRLIE C. ABILLE                                         0502
A0101412180000001838946TENEFRANCIA, ROWELA ESPINOSA                             0502
A0101412180603716213001QUIBILAN, JOEL ESPERANZATE                               0502
B0101409890000012559092WQ CONSTRUCTION & TRADING CORP.                          1603
A0101407690000000243810PAGUIO, ANA CARDENAS                                     0502
B0101411530000006217603RADIANT SUNSHINE POWER CORP                              1601
A0101413570000005867430*******************                                      0501
A0101414120000002172527AMELIA DE JESUS OR EDGARDO                              10502
A0101414120000002172527DE JESUS                                                20500
A0101414120000005252853******                                                   0502
A1301400210000005040577**********                                               0501
A1301400210000009982198PAULINO, ALEXANDER SARMIENTO                             0501
A1301400210000017386228VELARDE, EDRENE JEWEL RAMOS                              0502
A1301400210682539468001RAYMOND H CHUA OR NOEMI G CHUA                           0501
B1301400340683501003001GO, LLOYD CHUA OR CHERYL B GO                            1602
A0101408240000012315898BRISENIO, MARIUS VILLADELGADO                            0501
B0101408240000016419631BONGAR ENVIROSYSTEMS TECHNOLOGIES CORP.                  1602
B0101408240711028488001INTAS DESTINATION MANAGEMENT INC.                        1610
A0101408240711087827001PANGILINAN, SUSAN CABRERA                                0501
A0101408240711554763001CUCHON, IRMA BARCELON                                    0501
B2801400100000004560036OAKTREE PRODUCTIVITY INC.                                1601
A4101400260000012876183EMPLOYEES OF, RMS COLLECT PHILS                          0501
B4101400260812012643001KUM KANG CERAMIC PHILS. CO., INC.                        1605
A4101400260812041334001M.B. JIMENEZ RICE DEALER T                               0505
A4101400260812478374062SUNNY G. CAPORADO                                        0501
A4101400260000006043243VALDEMORO, JOCELYN HILARIO                               0501
A4101400390000007459610PHILWARD C. BERNABE                                      0501
A4101400420000015173794ANDIA, ANDREY SEMILLA DBU LUCKY                         10503
A4101400420000015173794OFFICE EQUIPMENTS REPAIR                                20500
B4101400420000007305331DE CASTRO, JEDDPER NERONA DBU                           11601
B4101400420000007305331SHINPOTEKINI ENT                                        21600
A4101400420000015978388ROSALES, DARLENE PASCUA                                  0501
A4101400420814520766135MOTILLA, ROSELLE                                         0501
A4101400550000001622479MOTUS, MA JAMILA RETITA                                  0502
A4101400550000010508777GUYA, MARICRIS CANLOG                                    0503
A0101412340000002900318KATHRINA MARINO                                          0502
A0101412340000001017781MENDOZA, MARITES CAPILI                                  0502
A0101412340000003349455RAMIL DELA CRUZ VARGAS                                   0501
A0101412340000002266720CARMELIZA G. VITUG                                       0501
A0101406750000002251252FERNANDEZ, MARICRIS PASCUA                               0503
A0101406750852290414001MARITES BULAON JT                                        0502
A0601400230000017015451DAVINCI M DAVID                                          0501
A0601400230891380832001ANGELITO OR MARISSA LOPEZ                                0502
