B0101400730111821100608**********                                               2005
A0101410300000000191815CARBALLO, LUIS ANTONIO S. OR                            10502
A0101410300000000191815SALAZAR, EMMANUE                                        20500
A0101410720000017581303CORTES, EDMUNDO-LEMMON                                  10501
A0101410720000017581303RODRIGUEZ                                               20500
B3001400130230043293001L.M. TING FOODILICIOUS CORPORATION                       1620
A3001400130230478374026SONOT, RODERICK AMAHOY                                   0501
B3001400130230688080001TING, LAURENCE /OR                                      11610
B3001400130230688080001TING, EDMUND                                            21600
A0101408400394033093001KOLETZ ART GALLERY                                       0502
A0101409920000006336785NAVARRO, NORMAN CALAPIS                                  0505
A0101409920000007304787***********                                              0502
A0101413990000018030110SEVILLA, GRACE ESCUBIO                                   0501
A0101410300000014338111REYES, RALPH RICHARD GONZALES                            0501
A0101400860011379561003**********                                               0502
A0101400860011498803002**********                                               0501
A0101401250920010000291ANNA PILAR E. AMARGO                                     0510
A0101401250019100000647NENITA D. SANTOS                                         0502
A0101400150000003162490DENNIS JONART T. ASUNCION                                0501
A0101400150000004885076AQUINO JR., NELSON STO TOMAS                             0501
B0101400150061043646001ARRAKIS HOLDINGS, INC.                                   1602
A0101400150061315349055DENNIS JOY EJERCITO                                      0502
A0601400100000013256918AREVALO JR., ORESTES CARSON                              0503
B0601400100000018296303DEL ROSARIO, LOLITA DELA CRUZ                            1601
B0601400100000000142214SIMON AND STANDLEY INTERNATIONAL TRADING                11605
B0601400100000000142214& DEVT CO, INC.                                         21600
A0601400100000010025002TOLENTINO JR., CESAR LAPIRA DBU                         10506
A0601400100000010025002CELIANTO ENTERPR                                        20500
A0601400100000011854181MUNOZ, ANTONIO JUICO                                     0502
B0601400100000007185380MUNOZ, ANTONIO JUICO                                     1602
A0101410850000015839942ORDONA, CLARISE RENDON                                   0501
A0101410850000013396955DAYOT III, ALEJANDRO PLANAS DBU                         10501
A0101410850000013396955JUN D TRUCKING                                          20500
A0101410560000001944072VALEN, ROSANA RETIG                                      0501
B0101400730111030043001SANTORINI FOOD SERVICES INC.                             1601
A0101401960121240766001*********                                                0501
A0101413150000003208175******                                                   0505
A0101413310000003169300AYPA, MA. CARMEN TERESA G. OR                           10503
A0101413310000003169300AYPA, NOEL S.                                           20500
A0101412920000013672118WEE, JONALYN SY                                          0503
A0101400440000000596630MARY ANN A. OYARDO                                       0502
A0101400440000002035041MARIA GEVELA CARDINOZA                                   0501
A0101407270000004915908LORENZO, TRICIA MARIE SOLANOY                            0501
A0101407270000016485279AFABLE, MARY ANN TUAREZ                                  0501
A0101401090000015531683DADIVAS, HAROLD OBLIMA                                   0501
A0301400660000016080232CALUD, MARJORIE PAZ                                      0501
A0301400660194304371001*****                                                    0510
A0301400660194498945088*******                                                  0503
A0301400660194737283088ZHI VENUS INDUSTRIAL SUPPLY                              0502
A0301400790000009806215SR AND RM ENTERPRISES                                    0501
A0101401380000018502193BATAYOLA, JOCELLE SATURNO                                0501
A0101401380000010190502OBA, EDMILLIE SANGALANG                                  0502
A0101401380201421770001DEL ROSARIO, LORETA COSTES                               0501
A0101413020000000038344FRANCISCO JR., RICARDO ARCILLA                           0502
A0101410720000013857491DADIVAS, JACQUELINE PEREZ                                0502
B0101410720000000029996J.C.T. EZ LOAN CORPORATION                               1602
A0101412500000014062432MACSABEJON, NIEVA                                        0505
A0101412500000018528744VALERIO, ROBERT JAMES SANCHEZ                            0501
B0101412500000018529138THOMAS GLASS SUPPLY AND SERVICE INC                      1603
A3101400450000015127089RELEVO, JOSEPHINE JAMORA OR                             10501
A3101400450000015127089JAMORA, JASON JAOJOCO                                   20500
A1001400350000012928202MALFERRARI, GIUSEPPE DE CASTRO                           0501
A1001400350000011297762DIEZ, MARIA REBECCA VIGILANCIA                           0502
A1001400350000015675360FABE, DANIEL NAVALES                                     0502
A1301400760000011058501MARIA CECILIA S. SUNGA-MATIAS                           10502
A1301400760000011058501MELVIN C. MATIAS                                        20500
A1901400290000012351938JAVIER, MARYLIS EVANGELISTA                              0502
A1901400290261042311012LORETOSOL C. GALLARDO-CASTILLO                           0501
A1901400290261470375002NORA BUQUIR MIRAL                                        0501
A0101401670000005039834TEH, JASON SY OR TAMAYO, JEROME                         10502
A0101401670000005039834CABRERA                                                 20500
A0101401670271298552001EPPIE P. ORTEGA                                          0501
A0101406460000015961096UY, MARY IRENE SIY                                       0503
A0101406460272442863001********                                                 0501
B0101406460272681782001HEADLINECONCEPTS INTERNATIONAL INC.                      1601
B0101406620000011433122********                                                 1601
B0101406620273047215001UMIC INTERNATIONAL, INC.                                 1602
B0101406620000000962403GEOWORKS INTERNATIONAL CORPORATION                       1601
A0101406620273075498001MONTIEL, CYNTHIA RITA TIQUE                              0501
A0101411110000017123983CALICA, MARY-JOY BERNARDO                                0504
A0101411240000016158446HORTIZ, FRA ANGELICO BORILLO                             0501
A0101411240000018529310AREVALO, MARVIN GAVARRA                                  0502
A2601400270000002312174JONATHAN U. CORPUZ                                       0505
A2001400290000004444531NEO, GUIDA SAYCON                                        0501
A0101402350000016545621GUILLERMO, BABY JANE TALLENO                             0504
A0101405650000010319052DIARESCO, MICO OR CASTRO,                               10501
A0101405650000010319052MARCIAL LORENZO                                         20500
B0101405650322040854001GRETZ FINANCING CORPORATION                              1601
B0101405650322077417001ELEGANT INFOVENTURES, INC.                               1602
A0101402060351009359001JIANDANI, SURESH G. OR                                  10501
A0101402060351009359001JIANDANI, KAVITA                                        20500
A0101409050000011151236GUINGAB, DONNAFER FAITH SURAT                            0501
A0101409050000008491072ABANILLA, MINERVA NAVERA                                 0502
A0201400760000017602409LUMAKANG, WILSON YU OR                                  10501
A0201400760000017602409LUMAKANG, HEIDI CHIU                                    20500
B0201400760374041914001OUROKU CORPORATION                                       1605
A0201400760374475574001KOIKE, MASAO                                             0505
A0201400890000012951361LEDESMA, TEDDY PO                                        0501
B0201401020000005109900CEBU DULCINEA HOTEL AND SUITES INC.                      1601
B0101402930381008843001BASIC HOUSING SOLUTIONS, INC.                            1605
A0101402930381094837001DUGENIA, ANTHONY FULO OR                                10504
A0101402930381094837001MARY JOYCE O. DU                                        20500
B0101408790383084533001AVISO VALUATION & ADVISORY CORP.                         1602
A0101408400394036671001CAIT FURNITURE SHOP                                      0502
A0101408400000006813647ANONUEVO, JOAN MALANO                                    0504
A0101409180000009241316KRISTOFFER SEACHON                                       0501
A0101409210000000043763ENDOZO, ANICIA Q. OR                                    10501
A0101409210000000043763ENDOZO, MELECIO                                         20500
A0101409210000003297676JEREMY PAUL OBIAL                                        0502
A0301400820000017043180MANLIGUEZ, PIO DALIS                                     0501
A0301400820000012928844CENTILLAS, ARNULFO ANDO DBU                             10501
A0301400820000012928844SOUTHVIEW TOUR AND TRAVEL                               20500
A5501400120000000047389GRANIL, HAZEL CARBON                                     0501
A5501400120000012653413CABLITAS, KRISTIAN JAY MANUEL                            0503
B2401400180411043008008TBB PETRON                                               1603
B2401400180411044070001MABUHAY TECHNOPARK CORPORATION                           1602
B2401400180411085914001FILMIX CONCRETE INDUSTRIES, INC.                         1601
A2401400180411432546001LIM, ROBERT L. OR LIM, GINA N.                          10510
A2401400180411432546001OR LIM, RAMBERT BENEDICT                                20500
A2401400180411455559001VENDIX GEN. MERCHANDISE                                  0501
A5101400100000011337374SORIANO, CHARLITO REMEGIO                                0502
A0101406330000016160600SANTOS, LUIS ROBERTO SOTELO                              0502
A0101410140000012209620CHAN, EDUARDO YAO                                        0503
A3801400170000010082929ARENILLO, GRETHEL MAE DELA AUST                          0501
A3801400170000002302881GARCIA, ROMULO LOPEZ                                     0501
B1401400110492028287001MARYHILL COLLEGE, INCORPORATION                          1605
A1601400170000014245091ONG, ANTHONY CABACANG DBU A. C.                         10503
A1601400170000014245091ONG TRANSPORT SERVICES                                  20500
A0101403580511323054001FEDERICO C. LAFUENTE JR.                                 0501
B0101405940512041188001PREMIUM WINE EXCHANGE INC.                               1601
A0101405940512151522003********                                                 0501
A0101405940512285886001HUI HUN SO TAN                                           0502
A0101405940512368799002LASALA, LANI SALVADOR                                    0502
B0101412050000007801530COOLAIRE CONSOLIDATED INCORPORATED                       1610
B0101403450521020418001**********                                               1605
A2201400250000013859055CRUZ, MARIZA COCHON                                      0501
A0101410690000000498404CABALLERO, ROSALIA TAPIA                                 0503
A0101404130601651761001ASUNCION, EDGARDO MAGDALUYO                              0503
A0101407720602328663002SUBA, EVANGELINE CAACBAY                                 0502
A0101404260611478374075VIVENCIA HATOL                                           0501
A0101409890000000004520DAMASK, TRISHA MAY ROGEL                                 0502
B0101409920000005460624WHITE EAGLE INTERNATIONALE TRADING,                      1603
A0101407690000010774462RIVERA, CATHYRINE ESTACIO                                0501
A0101411530000015886712DACANAY, JENNICA IANA CUETO                              0501
A0101413570000005867430LOPEZ, CYNTHIA JOSE                                      0502
A0101413990000018030132LOBOS, ANGELYN LAGASCA                                   0501
A0101413990000001406564CONSEJEROS, MYRA M.                                      0501
B0101414120000011637193THINKWOLI SYSTEMS INTEGRATORS INC.                       1602
B0101406590662024757001GUPIT INDUSTRIYA INC.                                    1610
A1301400210000009982405DE LEON, ANGELICA LUZ TOMAS                              0501
A1301400210000009982541****                                                     0502
A1301400210682246447001LEA DELA CRUZ MANAYSAY                                   0505
A1301400340000013761036DELA CRUZ, RONNEL SANTIAGO                               0501
A1301400340683528422001MILAOR, SUSANA SAN PABLO                                 0501
A1301400500000018520624DE VERA, ROMEL HAGOS                                    10501
A1301400500000018520624DBU RHDV HOMEBUILDERS                                   20500
A1701400230000001108412DURAN JR., ROBERT MANDAC                                 0503
A2801400100712487899001NOCUM, LEANDRO CASTELO                                   0502
B2801400230000005253732WONDERPARK SUBIC CORPORATION                             1605
A4101400260000005333426ANDAYA, FRANKLIN PASAKDAL                                0503
A4101400260000011417962MELENDRES, MARY ANN AVELINO                              0502
A4101400260000018520953CABEBE, DICK ALVIN PINAGA                                0501
A4101400390000017294841CRISTOPHER EDISON ARZOBAL                                0501
A0101412340000018525727RAMA, MA IRENE AGNITE                                    0501
A0101412340000018526071CAMACHO, AUDREY CLAIRE LUCERO                            0501
A0101404840000013645724CARREON, NESRAIM CUNETA AND                             10502
A0101404840000013645724CARREON, KEVIN C                                        20500
B0101404840000006365142TRIMOTORS TECHNOLOGY CORP.                               1603
A0101404840851534813001CATAPANGAN, SALEA REYES                                  0501
B0101406750000010166560ACCLAIM CONSTRUCTION SOLUTIONS INC.                      1610
A0101406750852620298001EMILY COLINA OR DOMINGO                                 10501
A0101406750852620298001COLINA JR                                               20500
A0101405070000014575341LOPEZ, LANIE DIZON                                       0501
B0101405070861038991001TOYOTA MANILA BAY CORPORATION                            1601
B0601400230891021614001QUIOC (D) QUIOC & ASSOCIATE                              1601
