B0101407430503821100608**********                                               2020
B0301400660194821100608**********                                               2010
B0101402930381016251001THE PACIFIC MEAT COMPANY, INC.                           1605
B0101402930381040001001TURQUOISE TRAVEL & EVENTS                               11602
B0101402930381040001001MANAGEMENT CORP.                                        21600
B0101406460272027382001POWER AIRE AIRCONDITIONING &                            11601
B0101406460272027382001AIRWORKS, INC                                           21600
A0101402930000000859758CELFO, R DBU R.F. CELFO                                 10502
A0101402930000000859758FINANCIAL CONSULTANCY                                   20500
A0101410850109055102001MANGUNAY, ROLANDO JT DBU R.P.M.                         10502
A0101410850109055102001ENTERPRISES                                             20500
A3001400130230687040108JAQUE, ROMEO /OR                                        10510
A3001400130230687040108JAQUE, CONCORDIA                                        20500
A2201400250000002337931GERTRUDES L. MERCADO                                     0505
A0101406750000000500187TIMBOL, MARIA CRISTINE GERARD R                          0501
A0101400860011422686002**********                                               0505
A0101400860011477042002**********                                               0503
B0101400860011486476001**********                                               1602
A0101400860011496538001**********                                               0505
A0101400860011539633001**********                                               0501
A0101400860011557103001**********                                               0502
B0101400150061010838002INFORMATICS COMPUTER INSTITUTE, INC                      1605
A0101400150061341283001DIAZ, CYNTHIA MARTINEZ                                   0501
A0101400150061444972001SARAH P. AGUDON                                          0502
A0101400150061510045001CARINO, MARIA NATIVIDAD SAMSON                           0503
A0601400100081253555002MENDIOLA, JOSEPHINE ADARVE                               0502
A0101410850000002356896*************                                            0505
A0101410560110478374013CYNTHIA EVANGELISTA MENDOZA                              0501
A0101400730111432322013CARLOS S. MORALES JR                                     0501
A0101400730111477184001MARCOS, BEVERLY MEYAS                                    0501
A0101400730111608559001BASCO, SHIRLEY MENDOZA                                   0501
A0101401960121238670001**********                                               0502
A0101401960000000008040**********                                               0505
A0101412630000004062002CENAR, LOIDA DBU LMH MEDICAL                            10505
A0101412630000004062002SUPPLY DISTRIBUTOR                                      20500
A0101412920000000276460OBTINALLA, RODELIA NELMIDA                               0502
A0101400440161039572043CERENO, GLECY GUTIERREZ                                  0502
A0101400440161444616001ELMA B. BADILLES                                         0502
A0101400440161525001139JEMARIE S. SALUDAR                                       0501
A0101400440161525001159MARITES P. MONTALBAN                                     0502
A0101400440161591450001BERNADETTE A. RUTAQUIO OR                               10501
A0101400440161591450001DANILO P. RUTAQU                                        20500
A0101401090171200622001DIONISIO F. DEPENA JR.                                   0501
A0101401090171201345002MA. CECILIA OR RAMIL                                    10502
A0101401090171201345002TIO CUISON                                              20500
A0101401090171336336002IRENE P. EVANGELISTA                                     0501
A0101401090171478374008FERNANDO J. DELA CRUZ                                    0501
B0301400660000003406077JAS MACHINE SHOP & ENGINEERING WORK                      1603
B0301400660194046002088GARDEN BY THE BAY CORPORATION                            1603
A0101401380000000682695FULGAR, FELICIANO DIEGO                                  0501
A0101401380000000682731SERENIO, ANNA MARIE RAGAS                                0502
A3101400160000004362801MAGPANTAY, FLORA NATIVIDAD                               0503
A3101400160221356270002RONALD J. PUA                                            0502
A3101400160000002762007SY QUI, ROMAN CALAMBA                                    0510
A3101400450000002092968MUNOZ, JOCELYN LIMUACO                                   0502
A3001400130000001271750CABRERA, FERDINAND GLORIA                                0503
A1001400190231478374086LORNA A. OMANDAM                                         0502
A1001400190231478374116ESTRELLITA E. BERMUDEZ                                   0502
A1001400190231520766110MAYOR, CARMELITA ANGCAY                                  0501
A1001400480000002300390DAGUMO, ELIZABETH SY                                     0501
B1301400760000000050820V.PALILIO CORPORATION                                    1602
B0101401670271657140001NIC'S GOURMET DESSERTS, INC.                             1605
A0101406460000000182596**************                                           0504
A0101406460000001231565DELA ROSA, ERIC OTHELLO REMENTI                          0501
B0101406460000000020975********                                                 1602
B0101406620000000194121UBER APPS INC.                                           1602
B0101412470000002338843WEBLEND INC.                                             1601
A0101400570281399721002JOFFREY OR JORDAN UY                                     0501
A0101411240000002332503*****                                                    0503
A2601400270000000561482WAYNE VINCENT U. CHUA                                    0501
B0801400160311494221001JUCABAN, LEO LAGOS                                       1601
A1101400120000001920656GULA, ROGELIO PAGPAGUITAN                                0505
A1101400120000002254877POTICANO, BERNARDO IGANA                                 0501
A1101400120313478374009SORIANO, DEMALYN Q.                                      0502
A6601400120314622580001SOSING, CAROL O. OR FELIPE A.                           10505
A6601400120314622580001OR CAROLYN O.                                           20500
A6601400120000000022271MIRANDA, JUNETH LOURDES FIEL                             0502
A3401400280000000156654ROEVELLO P CHU OR ZHEENA D CHU                           0502
B0101402350000000046091ACHIEVE A CAREER TODAY TRAINING CENTER                  11601
B0101402350000000046091& DEV'T. INC.                                           21600
A0101402350321179498001ROSARIO ARCEO                                            0501
A0101405650322369942002POLICARPIO III, JOSE JAIME M.                            0501
A0101402060351009385001JORGE ALOMBRO JR. OR                                    10505
A0101402060351009385001NELIA ALOMBRO                                           20500
A0101402060351426733001HILARIO, SIMONE-MARIE RIVERA                             0501
A0101402060351549135002SOLER, JOSE ANTONIO ANDAYA                               0510
A0101409050000001662528SABADO, ROLANDO RODA OR                                 10502
A0101409050000001662528WELLA JANE SABADO                                       20500
A0201400920000002804559DELA PENA, RUBELYN ARESTOTILES                           0502
A0201400890000005415350***************                                          0501
A0201400890376058962001RACCON BUILDERS                                          0501
A0101408790000004483103MELANIE C. SIAPNO                                        0501
A0101408790000004483114MARILEN D. GONZALES                                      0501
A0101408790000004483125AGNES AILEEN E. LITTAUA                                  0501
A0101408790000005293643DIANE P. PABLICO                                         0501
A0101408790000005293961MARIA ANGELA ABAD                                        0501
A0101411660000002309560RIVERA, VENUS TUMPALAN                                   0501
B0101402770391009532001RIDGEMONT HOMEOWNERS ASSN., INC.                         1601
B0101402770391009532001RIDGEMONT HOMEOWNERS ASSN., INC.                         1601
B0101402770000001571233LEADER GARMENTS CORPORATION                              1610
A0101402770391195487002APILADO, FEDERICO C.                                     0501
A0101402770391216686001MIGUEL P. CASTRO                                         0501
A0101405490392034138001MCMAR & MARY ELECTRICAL                                 10501
A0101405490392034138001& CONSTRUCTION SUPPLY                                   20500
A0101405490000000530874JOYA, MADELYN CASANADA                                   0501
A0101408400394507696001WEE, NORMAN VINCENT LEE                                  0502
A0101408400000001981699HONRALES, ARIEL OR HONRALES,                            10501
A0101408400000001981699CANDY                                                   20500
A0101408950396659332001DR. ANGELICA ANNE ACEDILLO CHUA                          0502
A0101409180000003882417TAGORDA, TRYGVE N.                                       0501
B0101409180397041137001****                                                     1603
A2401400180000001676899ORBE, VENERANDO JUBAS                                    0501
B2401400180411017908001LWC CYCLE MART, INC.                                     1602
A2401400180411478374042JOYCE R. GALLEON                                         0501
A2401400180411537301001**********************                                   0503
A2401400180411744426001ENGCONG, JAY CUEVAS                                      0501
A0901400220000002300823ARMAND B. ASPA                                           0501
A0901400220432478374002EVELYN ALGA DEMECILLO                                    0501
A0101403030441239023001**********                                               0501
B0101403030441339063003**********                                               1602
A0101406330472027958001A. ANOLIN ENTERPRISES                                    0502
A0101406330472031375001DAI-LIN MARKETING & SERVICE CO.                          0502
B0101406330472034852001CAGUINGUIN, AMBANTA AND ASSOCIATES                       1603
A0101406330000000162490TARP INK ENTERPRISES                                     0502
A0101406330472478374007FROILAN DISCAYA                                          0502
A0101406330472479414003GEORGE B. CASQUEJO JR.                                   0501
B1401400110492027100002SACRED HEART COLLEGE                                     1601
B1401400110000000167457SUPER MAK FOOD CORPORATION                               1610
A1401400110492478374010BACULI, TERESA D.                                        0504
A1401400110000000132841*******                                                  0501
A1601400170000000421190JOHN F. TORROCHA OR                                     10501
A1601400170000000421190ROCHELLE A. TORROCHA                                    20500
A1601400170000001360587TRIPLE S & J TRANSPORT SERVICES                          0501
A0701400260000002338985MERILLES, RICHARD L. OR                                 10501
A0701400260000002338985VASQUEZ, MARY FLORENCE B.                               20500
B0701400260000000041130TREVOR ETON REALTY CORPORATION                           1603
A0701400260495054474002**********                                               0503
B0101407430503037323001EARTHDRILL, INC.                                         1604
A0101407430503736499001CECILIA P. REVAREZ                                       0501
B0101408110515018239001INSURANCE OF THE PHILIPPINE ISLANDS CO.,                11606
B0101408110515018239001INC.                                                    21600
A0101408530000000035936PARK, JEE WHAN                                           0502
A0101411790518055764186KHIONG, JANIS CALPO                                      0501
B0101403450521017837001**********                                               1601
B0101404000551024935002VENTURES CREDIT INCORPORATED                             1603
A0101404130601450094003LORQUEL PASCUAL OR ANNIE                                10502
A0101404130601450094003PASCUAL                                                 20500
A0101407720602345195002GEORGE T. GODUCO OR                                     10502
A0101407720602345195002MA. TERESA P. GODUCO                                    20500
A0101407720602781265001DUMAGPI, RUSSELL MALINIS                                 0501
A0101404260611478374078SUPERAL, CORAZON                                         0501
A0101404260611478374082BEATRIZ BELMONTE                                         0501
A0101409920650478374030DELA CALZADA, REGIL OMLANG                               0501
A0101409920000000022055LILI, HELEN RAYNA                                       10502
A0101409920000000022055MEMBERS OF NATAS                                        20500
A0101409920000001951873MEM OF NATASHA SHIRLEY FIGUERAS                          0501
A0101413440655054477001LAND FIRST REALTY                                        0501
B0101410300663044464001FRILOU CONSTRUCTION & TRADING INC.                       1603
A0101410300000000026462SYCIP,JOHN CARLOS/BANTIGUE,JOHN                         10510
A0101410300000000026462PAUL/ESQUIVIAS,J                                        20500
A0101410300663752531001*****                                                    0501
A1301400210000000915884CABRAL, RANDALL REYES                                    0502
B1301400210682039698001SEVENTY SEVEN TRAVELLERS INN CORP.                       1602
B1301400210682248659001ASIANLAND STRATEGIES CORPORATION                         1605
A1301400210682782329001IMELDA R LANUZA OR                                      10501
A1301400210682782329001REGINO A LANUZA                                         20500
A2801400100000001494511MANABAT, CRISTINA DBU A. TEJ.                           10502
A2801400100000001494511TRADE & MARKETING                                       20500
A4101400390813478374046PAGDONSOLAN, ELMA T.                                     0501
A4101400550815478374007ZORAIDA SANTOYO SANTOS                                   0502
A4101400550000003266982*****                                                    0501
A0101404840851329120001XXXXXXXXXXXXXX                                           0501
A0101404840851478374153EUGENIA C. DOMINGO                                       0502
A0101404840851520766057REAMBONANZA, ANECITA BUAL                                0501
A0101404840851520766058JOLARIE ANN DECENA                                       0501
B0101406750852740034001MORE-NING SUN PACKAGING CORP.                            1602
A0101405070861399414001RACELIS, DENNISE DINAQUE                                 0503
A0601400230891363362001MARITESS P. FLORES                                       0501
A0601400230891624655002NUNAG, LIZABETH DABU                                     0501
B0101417710410402000011**********                                               2105
