B0101408790000000599840BETUR, INC.                                              1602
A1101400120000003981317CANETE, ALEXIS JAN DY DBU                               10502
A1101400120000003981317CANETE ENTERPRIS                                        20500
A0101400730111567859001TORRES, SHARON PELAYO                                    0501
B1101400120000003022500GO, LEE HUA UYKIM DBU SOLID                             11605
B1101400120000003022500SALES OR GO SR.,                                        21600
A1101400120000001547268JADOC, MA. ARIELYN PALOGAN                               0501
A0101400730111047618004RONALDO BAARDE PRADO                                     0502
A2401400180411442136088***************                                          0501
B0101410300663062094002SPHEROID DYNAMIC BUILDERS INC.                           1602
A0101400440161525001174RIZALYN V. GUNTANG                                       0505
A0301400950000004455527MADIS, GRACE Q. OR                                      10502
A0301400950000004455527MADIS, BENJIE B.                                        20500
A1001400190000002170769JUGAN, NOUE MALOLOT                                      0501
B2001400290315052317001NRU TRADING                                              1608
A0201400760374078269001REYES, LESLIE ANN ALMEDA                                 0501
A0101400860000008653378**********                                               0502
B0101400860000000030393**********                                               1601
A0101400860000001005445************                                             0502
B0101400860011570928001**********                                               1601
A0101401250021179233001SAGUID, ANTHONY DINO OR                                 10501
A0101401250021179233001SAGUID, ALICIA D                                        20500
A0101400150000001422473CARABIDO, MARIFEL VILLAMAR                               0501
B0101400150061226857001ARL MARITIME SERVICES INC.                               1603
A0101400150061227362001LEONARDO V. DELA CRUZ                                    0501
A0101400150061337855001YNIGUEZ, EPIFANIA GONZALES                               0501
A0101400150061392849001PINGOL, TERESA GARCIA                                    0503
B0101405810072011448001C.P.P.C CONSUMER PACKAGING PRODUCT CORP.                 1603
B0101405810072361051003**********                                               1602
A0601400100000014611593BALUYUT, MARIANNE RUTH MARIANO                           0501
A0601400100000010683986TANHUECO JR., JUAN CANLAS DBU J                          0505
A0601400100081086512001CAPUTOL, MA. JENNIFER PECJO                              0502
A0601400100081478374001SANCHEZ, REGINA OR JERRY                                 0504
A0601400360000012809080PERLITA J. DULAY                                         0502
B0101413730000000469676MADRIGAL TRADING CO., INC.                               1601
B0101414090000007344621DYNAMIC HUMAN SKILLS SOLUTIONS INC.                      1601
A0101406040000012695080LAO, FRANCIS YU                                          0501
B0101406040112017780001ASSOCIATED WORKERS UNION                                 1610
A0101401960000010787461**********                                               0502
B0101401960121035297001APO MERCANTILE, INC.                                     1601
A0101401960000006004411***************                                          0501
A0101412630000002040686APOLINARIO, JANET IPAC                                   0501
A0101412630000004938029LINTAG, MA. MELODY CRUZ                                  0502
A0101412630000007158081MUNCADA, ROSARIO SO                                      0503
A7201400170000003774414GABATO, RAY BAJELOT OR                                  10501
A7201400170000003774414GABATO, FREDGEN TAN                                     20500
B7201400170000012099235DEMETRIO B. SUPERALES JR. AND ARLENE O.                 11601
B7201400170000012099235SUPERALES                                               21600
A7201400170000013006665TRAYA, NELSIE NELMIDA                                    0501
B7201400170000003773637MDSDOC CORPORATION                                       1601
A7201400170000003774389CHUA, STEVEN BAISA                                       0501
A0101407270162202831002WILLY LIM OR ANNA MITCHELL LIM                          10503
A0101407270162202831002OR MICHAEL OR MA                                        20500
A0101407270162524638001BENJAMIN G. ALCARAZ OR                                  10501
A0101407270162524638001MARIA LERISSA AL                                        20500
A0101407270162690201001******                                                   0501
A0101401090171241515001SUSAN M. RELUAO                                          0501
A0101401090171297883001CRISTINA C. SAGUM                                        0502
A0101401090171337167001MENDOZA, GUILLERMA LEGASPI                               0501
A0301400530000001009943PANTUA, JERSON R.                                        0503
B0301400530000005001603*******                                                  1610
A0301400530000011715267PIATOS, MARIA LINA PETARCO                               0502
A0301400530193047866001MALBAS, MAHINAY & CO., CPA'S                             0502
A0301400530000007345464DE GUZMAN, JASMIN ALINDAO DBU                           10502
A0301400530000007345464BEA MARKETING                                           20500
B0301400530193551180168LIM, MARK EDUARD OR LIM, LIZA OR LIM,                   11605
B0301400530193551180168RALPH LOUIE                                             21600
A0101401380000010190604MUYA, MARLON BATHAN                                      0503
B0101401380201034155001TINOLEY DIGITAL PHOTOGRAPHY INC.                         1605
A0101401380201333449001ESCUDERO, MARILOU RONGALERIOS                            0501
A0101401380000001820002********                                                 0504
A0101412500214061098001CEJAS RONEL I DBU DELTA CAFE                            10502
A0101412500214061098001AND RESTO BAR                                           20500
A0101413600000003134501WESLEY A. CHOA OR                                       10502
A0101413600000003134501CHARLES L. LIM                                          20500
B0101413600000002122372INTERNATIONAL ACADEMY OF AESTHETIC                      11603
B0101413600000002122372SCIENCES INC.                                           21600
A3101400160000011243717DIMLA, ELLAINE JOYCE FRANCE                              0501
A3101400160000014366106PARAISO, WILLIAM REGIL CANA                              0501
B3101400160221010168001K SERVICO TRADE, INC.                                    1602
A3001400130000008916070PLAZA, MARIA JOY EVA                                     0501
A1001400190231520766019GO, JUDITH SATURNO                                       0501
A1001400350000008698866BUNGAY, RODELIA CHU                                      0502
B1301400760000010656852MARY JANE SIOJO ENTERPRISES                              1601
A1901400290000003252902LYDIA ESPIRITU ASIADO                                    0501
A1901400290261298552105AIDA NABOS REYES                                         0501
A1901400290261411419001TERESITA DIMAILIG PERCE                                  0502
B0101406460272035154001STUDIO84 INC.                                            1601
A0101406620000000193760DIAZ, FRANCIS PATRICK TAYENGCO                           0502
A0101406620273301500004CONRADO F. BATE                                          0502
A0101406620273380453001**********                                               0502
A0101406620273477411002ESPINA, NORMA RODRIGUEZ                                  0501
A0101406620273523271001BUMBAY, MARIA LOURDES CRUZ                               0502
A0101400570281343995002RAFAEL C. SOLIS                                          0506
A0501400200000006272164TOLETE, MELINDA OVALLES                                  0501
A0501400200000014593292CABOTE, ANNALISA ACOSTA                                  0501
A0801400160000006893210APISTAR, TERESITA JAVELLANA                              0501
A0801400160311389143001CHAN, MILAGROS OR                                       10502
A0801400160311389143001CHAN, NATHANIEL                                         20500
A0801400160000002681729MA. FE M. FACTO                                          0505
A0801400160311478374056CECILIA B. ASTROLOGO                                     0502
A0801400160311478374079MANUEL F. RAGANAS JR.                                    0503
A1101400120000000992394REYES, CRISTINA MARIE OCASLA                             0502
A1101400120000001920678PALMA, JHOWIEN ROYO                                      0502
A1101400120000006186343JABINES, DYANN JAIME DBU LA                             10501
A1101400120000006186343BOTICA DYANN                                            20500
A1101400120000009119791DEL PILAR, EDNA Y.                                       0502
A1101400120000005608191CELSO, GORGIE CAROLA                                     0502
A1101400120000000652351YAO, RONALD PHILIP GO                                    0502
A6601400120314044682001QUINNREEVE'S MOTORCYCLE PARTS                            0502
A6601400120000006154690LUCERO, MIRA ROSALES DBU GOLDEN                          0501
A6601400120314615888088FRANCISCO, EMMA OR REYNALDO                             10504
A6601400120314615888088OR CO, ESTELITA                                         20500
A6601400120314668441002MASLOC, SHERRY AMOR GALONO                               0501
A2001400290000006776716TARIAO, SUSAN ALVAR                                      0503
A2001400290315641654001LOZANO, PALMA JANE LIMPIADO                              0504
A2901400130000005961271LAWRENCE LU                                              0501
A0101402350321045652001BOYET AUTOCARE SERVICES                                  0510
A0101402350321179339001WONG, JOAN A.                                            0501
A0101402350321478374058DELA CRUZ, MERLITA GABON                                 0501
B0101405650322034381001FUDMAN CANTEEN                                           1603
B0101405650000005382032OLYMPUS GLOBAL LOGISTICS INC.                            1602
A0101402510000011695073ALIBUYOG, LARRY SOMERA                                   0503
A0101409050000014589736JUSTINIANO, REYNA FATIMA MONICO                          0501
A0101409050000014619322BACULO, ROMMEL GADDI                                     0501
A0101409050000014619753PANDARAOAN, MA. TRIXY CALLUENG                           0501
A0101409050352734290001CELERINO S CUERPO                                        0505
B0201400760374043449001CEBU TENPIN BOWLING ASSOCIATION                          1601
B0201400920375035545001GSG ARCHITECTS CO.                                       1601
A0101402930381423656022AGUNDAY, ARMESH N                                        0501
A0101402930381423656023DUMLAO, RHONDEE E                                        0501
A0101402930381423656024LOMBOY, ANA MARIE C                                      0501
A0101402930381478374004ANALIN ARTIOLA                                           0501
A0101402930381615796001LOTILLA, CATHERINA MANUELA REME                         10501
A0101402930381615796001OR LOTILLA JR.,                                         20500
A0101408370382205119001DR. FLORANTE P. GONZAGA                                  0501
A0101408370382391600002DR. JONATHAN A.I. SANDEJAS OR                           10505
A0101408370382391600002DR. MELISSA P. SANDEJAS                                 20500
A0101408790000008159137SUNGA, LAEDA BENEDICTO OR                               10502
A0101408790000008159137CEREZO, MICHAEL BONGON                                  20500
A0101408790000004483103MELANIE C. SIAPNO                                        0502
A0101415350000005308430GABINETE, MARIE SUZZETTE ZAPA                            0501
A0101415350000006733662APEROCHO, KATHERINE FE FLORES                            0501
A0101402770391028626002RED ELEPHANT TRADING                                     0502
A0101405490000006214160LUCIANO, LIZELLE SAMSON                                  0501
A0101408400000001952861DIAZ, JAY ANN BORBE                                      0501
A0101408400394167352001CABRERA, FLORIDA                                         0501
A0101408950396565001001GUERRERO, ARTEMIO ROXAS OR                              10502
A0101408950396565001001GUERRERO, GEORGIA ARCEGA                                20500
A2401400180000005536712CALERO, MARIA JOCELYN SUNIO OR                          10502
A2401400180000005536712CALERO, FERNANDO                                        20500
A5101400100000010834192PABONITA, JANNET CUNAHAP                                 0502
A0101412890000012154595PAREDES, JOHN RUNDELL GUANGCO                            0502
B0101406330000000432802FLEXTONE CO.                                             1603
A0101410140000001939973CASTILLO, R DBU VRMJ MANPOWER S                          0502
B3801400170000013657122MANALO, DINORA FERRIOL DBU BOTICA F                      1601
B1401400110492220773002ENGR. LUCILA A CLAMOR                                    1605
A1401400110000000132841*******                                                  0504
A1601400170000000497536WASSER TRADING                                           0501
A0701400260000013603840ANSANO, CRISANTO CASTROVERDE                             0504
A0101407430503423636002********                                                 0501
A0101407430000000521060ESCARA, NORANY DE LOS SANTOS                             0501
A0101405940000002268653BANIEL, BEN FABALE                                       0502
A0101405940000007407452STREIBL, ERIC N.                                         0501
B0101405940512031364001SOLID MANILA FINANCE, INC.                               1601
A0101408530516615903024LIEZEL B. PAGALLAMMAN                                    0501
A0101411400517063547001TOKONG, RITCHE MINORCA DBU RMT                          10502
A0101411400517063547001BUSINESS MANAGEM                                        20500
A0101411790518055764080JACQUELINE LUISA CANTILLO                                0501
A0101411790518055764097CATHERINE C. FAUSTINO                                    0501
B0101411790000004808082PDB PROPERTIES, INC.                                     1605
B0101403450000013091582**********                                               1610
B0101403450000013091571*************                                            1610
B0101403450000013091640**********                                               1610
B0101403450521011626001**********                                               1603
B0101403450521011670001**********                                               1601
A0101403450521360229003**********                                               0501
A0101403450521791474001********                                                 0501
A0101403610000001450828ANDES, EDNA MASAYDA                                      0502
A2201400250000013859055CRUZ, MARIZA COCHON                                      0501
A0101410690000000710990BUENAFLOR, ANNABELLE CALAGUAS                            0501
B0101404130000004437252KING, WYDEN ROSARIO                                      1603
A0101407720000009413992BIGLAEN, RODOLFO OR BIGLAEN,                            10503
A0101407720000009413992ANGELES OR BIGLAEN ARIANE                               20500
A0101407720602161863003ROBERTO K. MACASAET OR                                  10502
A0101407720602161863003VIRGINIA M. RAFAEL                                      20500
A0101407720602172880002MALAJACAN JR.,MARCELINO                                  0504
A0101407720602401936001CORDOVA, MA. CECILIA HITOSIS                             0502
A0101412180000014425260CUSTODIO, MARK JOHN                                      0501
A0101412180000013363036LIANG, TIFFANY DEL ROSARIO                               0502
A0101404260000000532290PESTANO, ALBERT L. OR PESTANO,                          10502
A0101404260000000532290LUCIA M.                                                20500
A0101409920000000998605ECHEVARRIA, DBU JOHN CARL ENTER                          0501
A0101407690652520766005GILNNA M. MALIGAT - DEALERS OF                          10501
A0101407690652520766005SHOECAT INC.                                            20500
A0101411530000002260322KRISTINE ANTONIETTE T ABDON OR                          10501
A0101411530000002260322PHILIP L ABDON                                          20500
A0101413440000006680602CABATANA JR., VICENTE TARSUNA                            0502
A0101413990000004511102MANALO, NORA LEGASPI                                     0501
A0101413990000000206066MARKVENT ENTERPRISES                                     0502
B0101414120000011637171ALI I.T. SUPPORT SERVICES INC.                           1601
A0101406590000000568805LOGARTA, MICHELE TORRALBA                                0501
A0101406590662207517002CASINO, ROSITA M.                                        0501
A0101410300000006278573**********                                               0501
A0101410300000010774899UY, MARISOL AQUINO DBU KIT-KAB                           0501
A1701400230693478374044CECILIA CORRALES                                         0501
A0101408240000012882463******                                                   0502
A0101408240000014555274CADAYONA, NYKA LUNA                                      0501
A0101408240000014555343ABORDO, BEA MARIE LUCILA                                 0501
A0101408240000014555872VIAR, FRANCES RENEE MALABED                              0501
B0101408240711036897001EVER THEATRICAL, INC.                                    1601
A0101408240711372798001BENJAMIN OR ESTELA NARCISO                              10501
A0101408240711372798001OR MONICA GARCIA                                        20500
A0101408240000008160143ROWENA P. GONZALES                                       0502
A2801400100000000496873YABUT, ANNA KATRINA ARMAMENTO                            0501
A4101400260000011417542HASSAN, JEANETTE MENDOZA                                 0503
A4101400260812041696001LUCKY RED CONSTRUCTION AND                              10502
A4101400260812041696001TRADING                                                 20500
A4101400390813445635001MARISSA C. DE OCAMPO                                     0501
B4101400420000000711982VINE DEVELOPMENT CORPORATION                             1601
A4101400420814357382003REMULLA, GILDA VASQUEZ                                   0501
A4101400420814366489001DE VILLA, FELISA DE MESA                                 0502
A4101400420814520766108ESPANOLA, MERELY C.                                      0502
A4101400420000002345280ACOL, FELOMINA ADOAN                                     0502
A4101400550000001332530VANDECASSERIE, CHERRY LYN BARRE                          0501
A4101400550000014608870GARCIA, CELSO PANGILINAN                                 0501
A4101400550815650230001BERNALES, MA ROWEN ACIBO                                 0501
A0101412340000007305757EVELYN D. ALVAREZ                                        0501
A0101404840000003409874*****                                                    0501
A0101404840000012411026WESCA, FERDINAND JIMENEZ                                 0501
B0101404840000006365375SOUTHCALL BUILDERS, INC.                                 1601
A0101404840851334120001MARY ANN R. PANGAN OR                                   10501
A0101404840851334120001JOHN NOEL PANGAN                                        20500
A0101404840851478374002VIOLETA Z. PANZO                                         0501
A0101406750852478374096MARILOU M TERANA                                         0502
B0101405070000009558041CNC SHIPPING AGENCY & MARINE SERVIC                      1605
B0101405070000009557902K2 SOCIAL MEDIA STRATEGISTS INC                          1601
A0101405070861476115001REYES, MA. MILAGROS ABRAJANO                             0503
A0601400230000010702808CABREROS, DAY CLARENCE DIZON                             0503
