B0101414090000002244651KS DIGITAL MARKETING AND IT SERVICES INC                 1602
A0101407720602271723013CARMENCITA B. VERAYO                                     0504
B0101400440161027962002CASAYRA CORPORATION                                      1601
A3001400130230478374004BALABA, JANETH BORJA                                     0501
A0101412050000003966763DE LEON, ARTURO PUZON OR                                10502
A0101412050000003966763DE LEON, WILFRED                                        20500
A0101412050000005169520ALCANTARA, RAQUEL GARCIA                                 0501
A0101410690000000001805MAGNO, JANUARY BARBOSA                                   0501
A0101400860011400073001*********                                                0502
A0101400860000010683264*************                                            0503
A0101400860011608726001**********                                               0505
A0101400860000000031585*********                                                0501
A0101401250021478374014IRENE P. FADULLO                                         0501
A0101400150061227303001EDITH TULAY                                              0502
A0101400150061231736001PUNO, CARMELITA DE MESA                                  0501
A0101400150000002749604LUMANGLAS, ARLENE BALANSAG                               0501
B0101400600000000007781********                                                 1601
B0101400600071603898001*******                                                  1601
A0101405810000010278856**********                                               0502
A0101405810072234635002DY, SUSANA OR DY, DANILO                                 0501
A0601400360000008460300GOMEZ, FREDRICK MONTERDE                                 0501
A0601400520000009516554CORTEZ, MARVIN TOMANENG                                  0501
A0101414090000006211472ADANG-AS, FELICLAIRE MANGIBAT                            0503
B0101410560000008979377ETON INTERNATIONAL SCHOOL, INC.                          1602
A0101413310000001073938ESCANO, JOHN ANGELO DIZON DBU                           10502
A0101413310000001073938J.A.D.E TOWING SERVICE                                  20500
A0101401830000003508632LIM, JOVEN AGUILAR                                       0502
A0101401830141029000001E C ENRIQUEZ TRUCKING SERVICES                          10505
A0101401830141029000001BY ERICK C. ENRIQUEZ                                    20500
A0101401830141069187001BUCE, MIKE ANTHONY SANCHEZ                              10501
A0101401830141069187001DBU MASB FOODCART                                       20500
B7201400170000003773131**********                                               1603
A5001400170000003324074ONG, ALBINA UY                                           0501
A0101400440000009896202MAGALLONES, HUBERT NABONG                                0501
A0101400440161525001159MARITES P. MONTALBAN                                     0502
A0101407270162040940001AQUA LINK                                                0501
B0101407270162044098002GRANTLINE, INC.                                          1603
B0101407270162050140003NORTHPOINT, INC.                                         1605
B0101407270162052125002DELISCENTS, INC.                                         1603
B0101407270162053928002QUANTUS BUSINESS SERVICES, INC.                          1603
A0101401090171201875003ARNELYN M. TORRES                                        0503
A0101401090171592231001GEORGE R. JAMES                                          0502
B0101410720210047551001AUTOCARDINAL INC.                                        1603
A0101410720653505147001****                                                     0501
A3101400160000001792101MARK Y BARRIOS                                           0502
A3101400160000008941431MORENO, RONALD ZARSUELO                                  0503
A3101400160000011728313PUZO, ERICKSON GENECIRAN                                 0501
A3101400160221220343001LAARNI A. CALAPATIA                                      0502
B3101400160221284706001INSTITUTE FOR FOUNDATIONAL                              11605
B3101400160221284706001LEARNING, INC.                                          21600
A3101400450000001149291BALDOVINO, ISABEL VALDOPENA                              0501
B3101400450223078049001NUA, BRYAN D. OR ANTONIO C. OR BENJAMIN                  1601
A3101400450223224361002VILLAPANDO, RIZAL OR SOCORRO                             0502
A3001400130000008264842AGOT, VICENTE ANTEGRA DBU PAMIL                         10510
A3001400130000008264842YA TRADING                                              20500
A1001400190000002266582GAAMIL, JOE ERIC TINONAS DBU                            10502
A1001400190000002266582VICTORY HARDWARE                                        20500
B1001400350233039882008WESTMIN FOOD CHAIN CORPORATION -                        11601
B1001400350233039882008JOLLIBEE GAISANO                                        21600
B1001400350233039883008CENMIN FOOD CHAIN CORPORATION - JOLLIBEE                11601
B1001400350233039883008DIVISORIA                                               21600
A1001400480000001054711VILIRAN, PRINCESS SYBIL BADAJOS                          0502
A1301400470000005394301ELEZSUR I. CANCIO                                        0501
A1301400760000005989902YVETTE S. MALGAPO                                        0502
B1901400290000001363031OBLATES OF SAINT JOSEPH                                 11601
B1901400290000001363031(PHIL. PROVINCE)                                        21600
B1901400290261040973001ICT-ED INSTITUTE OF SCIENCE AND                         11602
B1901400290261040973001TECHNOLOGY, INC.                                        21600
B1901400290261065082001CHRIST THE SAVIOUR GENERAL HOSPITAL INC.                 1601
A1901400290261244459001MIRIAM S ZAPANTA                                         0503
B0101401670000000016242MULTI-MIX INTERNATIONAL MANUFACTURING                   11601
B0101401670000000016242CORP.                                                   21600
A0101401670271333076001BENJAMIN C. VICENTE                                      0501
A0101408660274217223001SERRANO, JINKY ESPERA                                    0502
A0101412470000008158834TOLENTINO, JOHNSON LU DBU NEW                           10503
A0101412470000008158834JOLEN MARKETING                                         20500
A0801400160000000009492MARIA IA JOY ESPINOSA LORING                             0502
B0801400160311494221001JUCABAN, LEO LAGOS                                       1601
A0801400160311754232001CAROLINE B. ROLIDA OR                                   10510
A0801400160311754232001JOHN U. ROLIDA                                          20500
B1101400120000000653190BOSJAN MAIN MARKETING CORP.                              1605
A6601400120314668441002MASLOC, SHERRY AMOR GALONO                               0501
A3401400280000001723495JENNIFER G ONG OR JOHN OWEN ONG                         10501
A3401400280000001723495OR JOAQUIN C GOCHANGCO JR                               20500
A0101402350321478374059BERNARDITA D. LOPEZ                                      0501
B0101402350321738079001OLIVAREZ GENERAL HOSPITAL INC.                           1610
B0101405650322543721001OMNIBILT CONSTRUCTION AND MAINTENANCE                   11601
B0101405650322543721001INC.                                                    21600
B0101402510341035330001CHRIST THE LIGHT MINISTRY, INC.                          1601
A0101402510341278752001HIPOLITO JR., LORENZO SANTOS                             0501
A0101409050000003533480SY, MARK RAYMOND C.                                      0501
A0101409050000008087623AMPELOQUIO III, JOSE MOJICA                              0502
A0101409050000011151065SAPORSANTOS, REGINA ANTONIO                              0502
A0201400760000002047332ROBLES, NONILO JAVIER                                    0502
A0201400890000000027892FORTRESS ELECTRICAL SUPPLY                               0505
A0101411660000004597195RODRIGUEZ, MA. LOURDES HENSON                            0501
A0101402770000009722932TY, ALFRED QUIZON                                        0502
A0101405490000004353086AMBROSIO, JOB ADRIAN MESINA                              0501
A0101408400000008699990DATUMANONG, LALA MARUHOM                                 0502
A0101408400000011681811DILLOMAS, JOVELYN                                        0501
A0101408400394468280001VALLE, ALICIA SANTIAGO                                   0503
A0101408400394522122001MENDOZA, ROSELYN DONADO                                  0501
A0101408950000000776621VISTA, EMMERSON GALE SILVERIO                            0501
A0101409180000005326512USI, MELVIN SEVILLA                                      0501
B0101409180000008122876UNIONSTAR DEVELOPMENT CORPORATION                        1601
A0101409180397696150001MARINO, SALVY OR MARINO, HECTOR                         10501
A0101409180397696150001OR NAVOA, NANETTE                                       20500
A0301400820000002692135MEMBERS OF AGDAO MULTIPURPOSE,                           0501
A5501400120000002348325ANG, ANDY MAN CHUNG CHANG                                0505
B5501400120000005492402PRIMOS UNIDOS FOOD CORPORATION                           1602
A2401400180000010066252DEVERA, EDGAR SURMILLON                                  0503
A2401400180000010066332FUERTE, CHERYL JOAQUIN                                   0501
B2401400180411338845003ROBERTO OR JANET PERALES JT ANTONIO OR                  11604
B2401400180411338845003ADELENE PERALES                                         21600
A2401400180411478374004MESRIYA ABDULLAH                                         0501
A2401400180000000073469TAPUZ, JOSEFINO TORCUATOR                                0501
A2401400180000000019849DELA CRUZ, JOYCE SAGAYDORO                               0501
A2401400180000007031789DIZON, LEANDRO ADOR ANDRES                               0502
A1201400150421200676001MAULBECKER, HEINRICH                                     0501
B0101403030441303324001**********                                               1602
A0101403320000010934262ANDREA T. LORIAGA                                        0501
A0101403320000000522176ALCANTARA, RAEZA LUMBAG                                  0506
A0101406330000000162467CARLOS, EDUARDO S. OR                                   10501
A0101406330000000162467CARLOS, CECILIA A.                                      20500
A0101410140000000499430SANTOS, MARY GRACE SANDOVAL                              0501
A0101410140000002307819SAN AGUSTIN, NATIVIDAD BARCELON                          0502
A3801400170490776539003CHUA, HALCON CHUA                                        0501
A1901400160491244484001IRENE H BERBA OR                                        10510
A1901400160491244484001CARLOS R BERBA                                          20500
B1401400110492010154001RCBL-MARRIAGE TRIBUNAL OF LUCENA                         1603
A1401400110492047717001KKT CONST. & SUPPLY                                      0501
A1401400110000001806873********                                                 0502
A0701400260000003259374**********                                               0501
B0101407430503069253001NINE DRAGONS VENTURES                                    1601
A0101407430503400693001CHITO S. ANONUEVO                                        0501
B0101403580000007864211MILLENNIUM ERECTORS CORPORATION                          1610
A0101403580511289190002SERAFICO PLACER OR VERNIE BUNO                          10510
A0101403580511289190002OR GREZILDA DENS                                        20500
A0101408530516571877078EPPIE C. TITONG III                                      0501
A0101408530000001886053MOYO, LINETH AVEN                                        0501
B0101403450521035366001***********                                              1603
A0101403450521241165001**********                                               0501
A0101403450521282364001**********                                               0502
B0101403610531029447001QUEENS BEST COOKING OIL AND                             11602
B0101403610531029447001MARKETING CORP.                                         21600
A0101403610531453729001CHAMBER, MARY HYACINTH CRUZ                              0501
A2201400250561309166001LENILIZA TANAMAL BUEN                                    0502
A2201400250561339917001FELICIDAD MIRANDA SANTOS                                 0501
B0101407720602005906001ASSOCIATED MEDICAL & CLINICAL                           11610
B0101407720602005906001SERVICES, INC.                                          21600
A0101407720602062463081AURENTO, JAYCE MACABALES                                 0501
B0101407720000007951764SCARLETSNOW, INC.                                        1605
A0101407720602161917001GOYLOS, LORENA CALVO                                     0501
A0101407720602163314001SALLY KING JOAQUINO OR                                  10504
A0101407720602163314001JACQUELINE JOAQUINO                                     20500
A0101407720602396823001DR. RAQUEL M. ALVAREZ                                    0504
A0101407720602401438001JUANCHO ALFREDO DAEL LAS                                 0501
B0101404260000000156972PRIME POWER MANPOWER SERVICES                            1650
B0101404260000000156972PRIME POWER MANPOWER SERVICES                            1650
A0101404260000003498482EDNA S PLAN JANITORIAL SERVICES                          0503
A0101404260611478374104JUDITH R LUMBO                                           0501
A0101404260611549813001GALLANOSA, JOEL VELASCO                                  0501
B0101411530654069250001REV411 LIFE SCIENCES INC                                 1601
A0101413440000010659306SANTIAGO, RAPHAEL VICTOR VERA C                          0503
B0101413990657069241001VP TALENT MANAGEMENT & EVENTS ORGANIZER                  1601
A0101406590000000568805LOGARTA, MICHELE TORRALBA                                0502
A1301400210000009982176DNR MEDICAL SUPPLIES                                     0502
A1301400210682245308001ERNESTO REYES JR.                                        0505
A1701400230693478374044CECILIA CORRALES                                         0501
B0101408240000000832644COLLYER SHIPPING PHILIPPINES, INC.                       1610
A0101408240000003955522BAES, MICHAEL ALBERT MARCO                               0502
A2801400230000005253492PENAS, MARY VIOLETTE PATERNO OR                         10501
A2801400230000005253492PENAS, GREGORIO                                         20500
A2801400230000005253350DE LA PAZ, ROMMICK DE LEON                               0501
B2801400230000005253641COST OF MONEY LENDING CORPORATION                        1605
A4101400550000007583864RIVERA, ROSALINDA LOVERIA                                0502
A0101412340000007305757EVELYN D. ALVAREZ                                        0501
A0101404840851478374190MARIE JEAN A. MOLDEZ                                     0503
A0101404840851520766092VIOLETA G BERMAS                                         0505
A0101404840851520766180CARMELITA M. BARBACENA                                   0501
A0101406750000002040191VITANGCOL, DBU ALVITZ CAFE                               0502
A0101406750000002040180VITANGCOL, DBU A. VITANGCOL LAW                          0502
A0101406750000000017427ANTONIO, ARNALDO QUILATAN                                0502
A0101406750852478374015GABIN, GERTRUDES                                         0501
A0101405070861395809001GUALBERTO ABELLA,JR OR                                  10502
A0101405070861395809001ANNABELLE CASTILLO                                      20500
