B0101400570281821100608**********                                               2005
A0101409210000011535470JEFFREY, ANTHONY TROY                                    0501
A0301400950000010701138BUDAC, JAMMAILA VILLENA                                  0503
A0101410720000009157239ARELLANO, LEO HUYA                                       0503
A3001400130000008915971JUBAC, CHARLES TATAD                                     0501
A1101400120000008000984DAGAMI, RHEA MAE ROSILLO                                 0501
A1101400120000000065110BOLECHE, CLARA GACUTAN                                   0503
A1101400120313537396001VILLEZA, ROMEO NIEVES                                    0503
A0101410300000010774899UY, MARISOL AQUINO DBU KIT-KAB                           0501
A0101400860000011515892**********                                               0501
B0101401250000000057167**********                                               1601
A0101411370000005524421BATUIGAS, AURORA REBOQUIO                                0501
A0101411370000003549002LIM, JENNIFER GAMIDO                                     0501
A0101411370000003294882CHANDRASEKAR, SANJAY                                     0502
A0101411370000003548981*********                                                0501
A0101400150000009400839MARTINEZ, ROWENA ANN ARBOLEDA                            0501
A0601400100081545371002CRUZ, LESLIE BARREDO                                     0501
A0601400100000007599522EMBORONG, LAARNIE VILLACRUSIS                            0502
A0101414090000003314843VILLANUEVA, KENNETH BAYLON OR                           10502
A0101414090000003314843VILLANUEVA, JO-AN JAMILO                                20500
A0101414090000006211369HEBRON, KAREN RAMOS                                      0502
A0101414090000011597701DELA CRUZ, BERNADETTE BALANTA                            0501
A0101410850000003503933GIRAY, EDWIN JOHN BELLO                                  0502
A0101410850000012549714ANG, AMIRA SORIANO                                       0502
B0101410850000007294239SHOGUN SHIPS CO., INC.                                   1603
A0101410560000010318333ARIANE JOY M UBANE                                       0501
B0101410560000000020344TENORIO, M DBU EQUITEE FREIGHT & CUSTOMS                11601
B0101410560000000020344BROKERAGE                                               21600
A0101406040000008915562KHO, MARVIN LAO                                          0501
A0101406040112647403001MICHAEL HICKS OR ROBBYLYN C. SO                          0502
A0101401960000000008022**********                                               0502
A0101401960121239340001***********                                              0504
B0101401830000000033627CARITAS SALVE CREDIT COOPERATIVE                        11603
B0101401830000000033627(LAS PINAS) 007                                         21600
B0101401830000000059972CARITAS SALVE CREDIT COOPERATIVE (NOVA/                 11604
B0101401830000000059972ST.PETER) 010                                           21600
A0101401830141208539002**********                                               0501
B0101407270162038101001BIRDS INTERNATIONAL, INC.                                1603
A0101407270162331904012CHITTY LEE L. BARRA                                      0502
B0101401090171007896001CPA REVIEW SCHOOL OF THE                                11610
B0101401090171007896001PHILIPPINES, INC                                        21600
A0101401090171195606003REYNALDO/MA. LOURDES/KENNETH                            10510
A0101401090171195606003ROSS/KRIZIA JAVA                                        20500
A0101401090171195873001JOSE OR SHIRLEY IRENEO                                   0502
A0101401090171197924001OSCAR D. NG                                              0502
A0101401090171199117001TOBIAS A. BONAOBRA                                       0501
A0101401090171391935001JULIE CHRISTIE G. VISPERAS                               0501
B0301400530193044706199ROYAL CROWNE BEVERAGES                                   1603
B0301400530000000025276KONRAD FERNANDO - ROYAL CROWNE TRUCKING                 11603
B0301400530000000025276CATHERINE FERNAN                                        21600
A0101413600000002122230MARY GRACE EDEJER                                        0502
A3001400130000000931231CHUBB'S AGRIVET SUPPLY AND                              10502
A3001400130000000931231GENERAL MERCHAND                                        20500
A3001400130000001271312SHAPE & WELL NUTRITIONAL                                10501
A3001400130000001271312PRODUCTS                                                20500
A1001400190231478374006LIBRADO, HAZEL T.                                        0501
A1001400190231511493001GALAGNARA, JUVY DAIS                                     0501
A1001400190231520766208LACRE, HAYDEE DAGPIN                                     0501
A1001400350000007762436XXXXXXXXXX                                               0502
B1001400350000000017052TIMBERLAND GENERAL MERCHANDISING                         1603
A1001400350233653751008CHABON JR., JUDE OR                                     10501
A1001400350233653751008CHABON, CLAIRE                                          20500
B130140047000000000957214M MARKETING CORPORATION                                1602
A1901400290261035229002J.M. AQUINO TRADING & SERVICES                           0510
A1901400290261355605001PAZ CRISTIANA TIAMSIM LANDICHO                           0501
A0101401670000003181611CHUANICO, RAYMUND ORTIZ                                  0501
B0101401670271029143001PAISLEY REALTY CORPORATION                               1601
B0101401670271042474001PHILIPPINE-FINLAND SOCIETY                               1601
A0101401670271193994001PATRICIO L. RAPADA                                       0503
B0101406460000000020931GREATWALL MANPOWER & GENERAL                            11603
B0101406460000000020931SERVICES INC.                                           21600
A0101406620000000962243ROXAS, MANUEL ROQUE                                      0501
A0101406620273313236003YU, HARRY LIM                                            0505
A0101406620273577882001GAW, JAMES NG                                            0503
A0101408660000000373051LIM, STEPHEN ALLEN GOTUA                                 0501
A0101408660000000855932ORAYANI, RAUL SALAC OR                                  10501
A0101408660000000855932MARIAN ORAYANI                                          20500
A0101410980000002303862DE GUZMAN, DIANE ROSE CARPIO                             0501
B0101411820000010701183ADVISIBLE MARKETING CO.                                  1603
A0101412470000010561714UY, MARK BENEDICT ABELITA                                0503
A0101412470000002136107**********                                               0501
A0101400570281345943002EDWIN C. DE LEON JR. OR                                 10503
A0101400570281345943002STEVE C. DE LEON                                        20500
A0101411240000013000483ALMADIN, RONALD ANTONIO                                  0501
A0501400200000004456957COBARDO, LEVI DAGSAAN                                   10501
A0501400200000004456957COBARDO, GRACE CARBONELL                                20500
A0501400200000011150277LANDICHO, MILAGROS DAYAG OR                             10502
A0501400200000011150277TINARIPE, JESSE LOPEZ                                   20500
B1101400120000006186930COASTALVIEW FOODS CORPORATION                            1602
A1101400120000003022322CHU, HENRY MANGCAO DBU LEYTE ST                          0501
A1101400120000006186343JABINES, DYANN JAIME DBU LA                             10501
A1101400120000006186343BOTICA DYANN                                            20500
A1101400120000003981088MORALLOS, ELIZABETH BIANES                               0501
A1101400120000009119637GLOBA, ROSALIA ABRAHAM                                   0501
A34014002800000001566212ELA CRUZ, LOIDA GARCIA                                  0502
A3401400280000000156654ROEVELLO P CHU OR ZHEENA D CHU                           0502
A0101402350000003880364GARGOLES, ERLITA SALAC                                   0501
A0101402350321677655001**********                                               0501
B0101405650322023520001ACES CHASSIS LEASING INC.                                1602
A0101402510341198254002MARILYN H. SAMSON                                        0501
A0101402060351214812002BANTIGUE, WILLIAM OR ANGELITA                           10501
A0101402060351214812002OR JOHN PAUL OR                                         20500
A0101409050000002971486SALAS, KATHERINE MARTIN                                  0502
A0101409050352699046001FRUTO, MARIA PATRICIA CUASAY                             0501
A0201400890000011310953OGANG, MARI KRIS DE LUNA                                 0505
A0101408370000005220051FRANCISCO, MIKAEL ANGELO SANTOS                          0501
A0101408370000009296773MARIANO, MELCHOR TOLENTINO                               0502
B0101408370382025854001MEDICAL ARTS TOWER, INC.                                 1601
A0101408790000005169115JUAN R. SUMPAYCO MOVERS                                  0505
A0101402770000001841174DEL ROSARIO, ALFREDO RAYOS                               0502
A0101402770391423524001******************                                       0501
A0101405490000006299887SABALZA, DOLORES BARILLAS                                0505
A0101405490392177005001DOMINGA P. BUENAOBRA                                     0501
A0101408400394478374034MERLA M TANO                                             0502
A0101408400394480785001ISIDRO, MA. THERESE                                     10502
A0101408400394480785001ISIDRO, PAULO                                           20500
A0101409210000013001113TUASON, CARMELA BRODNICKI                                0501
A0301400820000001554894ESTREMOS, VERONICA T. OR                                10501
A0301400820000001554894ESTREMOS, FERDINAND P.                                  20500
A0301400820409094648001LADAGA, SHERRYL E. OR LADAGA,                           10502
A0301400820409094648001JOSEPH FRANKLYN                                         20500
A5101400100000010371461ACTUB, JONELYN BERNASOL                                  0504
B0101403030441012041001**********                                               1601
A0101412890000001056217MEDINA, REYNALDO BONIFACIO OR                           10501
A0101412890000001056217MEDINA, ELENITA                                         20500
A0101403320471047588001RHINA JENEPER C. LIBIRAN DBU                            10502
A0101403320471047588001R-GENESIS DRUG STORE                                    20500
A0101403320471471093001IMELDA M. LIMSICO OR                                    10501
A0101403320471471093001CHARITY M. LIMSICO                                      20500
A0101406330000011106162ARANES, EDITHA VICENTE                                   0501
A0101406330472027958001A. ANOLIN ENTERPRISES                                    0502
A0101406330472298552011CARINA F. FALQUERABAO                                    0501
B0101406330472519207001VIGILSON I & E SERVICES, INC.                            1610
A0101410140000000499065MORDIDO, LYN ROBELLES                                    0502
A0101410140000001074931LEYSON, JEFFERSON D. OR LEYSON,                         10502
A0101410140000001074931MARRY SHYNE C.                                          20500
A0101410140000001940143DONOS,O DBU MYRTLE ANNE                                 10510
A0101410140000001940143TRUCKING SERVICE                                        20500
A0501400170481317383001FERNANDEZ, CLARISSA TOMAS                                0501
A1901400160000012960071KENNETH M. SUAREZ OR MARILEN G.                         10505
A1901400160000012960071SUAREZ                                                  20500
A1401400110492026354001TALIPAN BUILDERS                                         0510
B1401400110000003475661QUEEN MARGARETTE HOTEL, INC.                             1605
A1401400110492372983002FLORES, MYRNA ABAYLE                                     0501
A1401400110000000132841*******                                                  0501
A1601400170000001837863RENE N. ESPLANA OR                                      10503
A1601400170000001837863GLORYDEL B. ALAP                                        20500
A1601400170000001360838SALIC, FARIDAH BERTODAN                                  0501
A0701400260000009912672AMPONGAN, ANDRES PALACIO                                 0501
B0701400260495037805002PRINCETON ENTERPRISES                                    1602
B0701400260000000041130TREVOR ETON REALTY CORPORATION                           1603
B0101405940000008478964SGG HEALTH TRADING CORP                                  1606
B0101408530000001275321THE PURPLE OVEN CORPORATION                              1601
B0101408530000001275332THE PURPLE OVEN CORPORATION                              1601
B0101408530000001275343THE PURPLE OVEN CORPORATION                              1601
B0101408530000001275361THE PURPLE OVEN CORPORATION                              1601
B0101408530000003865992THE PURPLE OVEN CORPORATION                              1601
B0101408530000003866126HOPPLER INC.                                             1602
A0101408530000009248604ROALD ANTHONY M. MOSCARDON                               0501
A0101411400000011599747BAYLON, JOSE LUIS CUENCA                                 0501
A0101412050000004513040ORODIO, ARIEL PASTOR                                     0502
A0101412050519061409001O.S.A. CLEAN AND COMFY LAUNDRY                          10502
A0101412050519061409001CLEAN SERVICES                                          20500
B0101403450521020682001**********                                               1602
B0101403450521025223001**********                                               1601
A0101403450521238097001**********                                               0503
A0101403450000006055665***********                                              0501
B0101403450521475573001**********                                               1602
A0101403610000006497869GALLOR, EDILBERTO ARRUBIO                                0510
A0101403610531064267001HEPOS, E DBU LCJ MOTORCYCLE                             10501
A0101403610531064267001SHOP AND PARTS                                          20500
A2201400250561258530025CATHERINA T. DOMINGO                                    10501
A2201400250561258530025EMPLOYEES OF IEW                                        20500
A0101410690600784905001BELICENA, WILBERT POBLADOR                               0501
A0101407720000004658686RAMCHANDANI, DIVYA HASSARAM                              0501
A0101407720000004664831RAMOS, ERWIN FRANCIS VARIAS                              0501
A0101407720000006627912SANTIAGO, MARIA DONNA DAMO                               0502
A0101407720000010907816CABATIT, RIZZA MAE RENIEDO                               0501
A0101407720602287906001FLORENCIO GERARDO                                       10504
A0101407720602287906001CAEDO JR. M.D.                                          20500
A0101407720602371282001CHAN, MAILA CRUZ                                         0501
A0101407720602382805001BAGABALDO, ZENAIDA GARCIA                                0501
A0101407720602390297001PREYSLER, MARIVIC G.                                     0502
A0101407720602397125001PASTORES, ELOISA GUZMAN                                  0504
A0101404260611636476001GONGOB, DODGE KELLY JORDAS                               0501
A0101409890000002802280TAN, JUDY NGO OR TAN, NATHANIEL                          0501
A0101409890000006277650FORTE, RENATO LAS AY                                     0502
B0101409890000000049170EMICOR, INC.                                             1601
A0101409920650478374005CRISOSTOMO, MA. EMELIA GASPAN                           10501
A0101409920650478374005MEMBERS OF NATASHA                                      20500
A0101407690652525001056ENRIQUE, EMY SANTOS - DEALERS                           10501
A0101407690652525001056OF SHOECAT INC.                                         20500
A0101407690000001919786GINA C URIAN - DEALERS OF                               10503
A0101407690000001919786SHOECAT INC.                                            20500
A0101407690652599146001BALLARES, CARLO ESPINOSA                                 0502
A0101413440000006680602CABATANA JR., VICENTE TARSUNA                            0502
A0101413570000005435161OROZCO, ELIZABETH ARAGON                                 0502
A0101413990000000631838DE OCAMPO, IMELDA C. OR                                 10502
A0101413990000000631838DE OCAMPO, AUGUSTO F.                                   20500
A0101413990000000726432MILITANTE, REYNALDO GONZALES                             0501
A0101413990000004511179DESALISA, EDRIAN YAP                                     0502
A0101413990000006768592MARIA KAYE SEWING SERVICES                               0501
A0101406590000005305140RODRIGUEZ, EVA PAOLA BASCO                               0502
B0101406590000003007290COLAYCO, MAYA JAZMIN AND LACUESTA, ANA                  11602
B0101406590000003007290MARIA SEGUNDA                                           21600
A0101410300663737649001ERLINDA G SANTOS                                         0502
B1301400210000000023521TANK UP ENTERPRISES                                      1602
A1301400340000000293674OPENA, SALVE DELOS SANTOS                                0501
B1301400340683038125001********                                                 1601
A1301400500684178201001DELLOSA, CAROLINA LACSON                                 0502
A0101408240000009453005CARAGUE, MA. CARMELA CALMA                               0501
A4101400550000000006048LIM, JIMMY LITERAL                                       0503
A4101400550000006044344MAGAT, REANNE CARREON                                    0502
A4101400550000013001077JOURNEY ENGINEERING &                                   10501
A4101400550000013001077CONSTRUCTION SERVICES                                   20500
A4101400550000002091021PIYEZA MOLINO AUTO PARTS                                 0503
A0101412340000007305644MAYLENE S. ABELLA                                        0502
B0101412340000002879954BICALDO JR., DBU RAMBIC CONSTRUCTIO                      1602
A0101404840851046725004NELIA MANINGULA                                          0501
A0101404840851217637066BAYANI  ARROYO                                           0503
A0101404840851217637119RODOLFO L. AREVALO JR.                                   0502
A0101404840851298552067EMERENCIANA P. BOMBAY &/OR                              10502
A0101404840851298552067JEREMY P. BOMBAY                                        20500
A0101404840851520766122NENA REUTEREZ                                            0504
A0101404840851520766155JOSEFINA VERGARA                                         0501
A0101404840851520766180CARMELITA M. BARBACENA                                   0501
B0101406750000007097238PRIMA CASA LAND & HOUSES INC.                            1603
A0101406750852402941002**********                                               0501
B0101405070861043213001TEKTON CONSTRUCTION CORP.                                1605
