A0101412050000002314483DARGANI, JAIKISHAN MOHAN OR                             10502
A0101412050000002314483RAMCHANDANI, DIVYA H.                                   20500
A1001400190231040264001WESTBOUND PETRON                                        10502
A1001400190231040264001SERVICE STATION                                         20500
A1001400190231040271001ROADNET 2000 ENTERPRISES                                 0502
B4101400420814016269002DAMAYAN SA ANABU II B CREDIT COOPERATIVE                 1602
A4101400420814463299001MINOZA, NOELA CORPUZ                                     0501
A4101400420814520766111COLETA, JEANNETTE C.                                     0502
A0601400100081370388002REYES JR., LIBERATO DAYRIT                              10502
A0601400100081370388002OR MELINA                                               20500
A0101412630000002040602LEGASPI, BOYET MINDO                                     0501
B0301400660194014140088*****                                                    1602
B0301400660194267943008*****                                                    1603
A0301400660194737283088ZHI VENUS INDUSTRIAL SUPPLY                              0502
A0301400950000002115537DAVIS, JEFF RAY DELA PENA                                0502
B0301400950000002115931DAVAO MARBLED FOOD                                       1605
A0301400950000005706992ALTAMIRANO JR., RAFAEL CLEMENTE                          0501
B3101400450223034655001CENTER FOR AGRICULTURE AND RURAL DEV'T                  11601
B3101400450223034655001(CARD), INC.                                            21600
A1001400190231276909002**********                                               0501
A1001400190231520766017RABANES, ELECTA CAMPION                                  0501
A1001400190000002170656AMELINA E. FACTURA                                       0501
A1001400480000003357691ANG, ANDY MAN CHUNG CHANG                                0502
B1301400470000000009630FIRST KINGSTON LEISURE AND SERVICES                     11610
B1301400470000000009630CORPORATION                                             21600
B1301400470000000009685FIRST KINGSTON LEISURE AND SERVICES                     11605
B1301400470000000009685CORPORATION                                             21600
B0801400160311043928001DELIFRANZ BACKEREI, INC.                                 1602
A0801400160311478374102MA. CECILIA A. AVANCENA                                  0501
A1101400120000003981260ANITO ESTRELLA REALTY CORP.                              0502
A0201400760374700415001GONZALES, ANTHONY GERARD YBANEZ                          0503
A0201400920375478374016CERBO, SHAMIR LOU CAGAIS                                 0501
A0301400820000002692180SUMAYO, JOSELITO U.                                      0501
A2401400180411032438001DADIANGAS AUTOWORLD PARTS                                0506
A0101403320000001803010LORENZO, DANIEL JUN ABULENCIA                            0502
A0101403320000004830984TRINIDAD, MANNY SIONA                                    0501
A0501400170481253455001NORMELITO QUIMO OR IRENE QUIMO                           0502
A1901400320000000679238JOSELITO LUNA DE LUNA                                    0501
A1901400160491343774001MA REGINA THERESA A BLANDO                               0501
A2201400250561253789001MELIZA TRACY G. FLORES                                   0501
A2201400250000001545580MEMBERS OF NATASHA (SHOECAT INC                         10501
A2201400250000001545580GAUDIOSA A. WAGE                                        20500
A0101413570656057648046GENALINE E.CRUZ                                          0501
A0101413570656057648180MA. CATHERINE MUNOZ                                      0501
A0101410300663076796001VILLALON, MARIA TERESA N. OR                            10501
A0101410300663076796001VILLALON, GREGOR                                        20500
A1301400500000000213301CORTEZ, ZENAIDA MENOZA                                   0502
B4101400260812045529001CITISTORES INC.                                          1602
B4101400390000003346198SUPERSTAR PACKAGING CORPORATION                          1601
A4101400550815643498001TATTAO, GRACE ARELLANO                                   0501
B0601400230000001062366BEARING CENTER & MACHINERY, INC.                         1601
