F0501400170481030452001JO REALTY DEVELOPMENT                                   12601CKR
F0501400170481030452001ENTERPRISES                                             22600CKR
F3201400190000001493078*********                                                2502CKO
