A0901400220000000012313**********                                               0505
A0101407270000000043541OINEZA, JENNIFER URBANO                                  0501
A0201401020000000056437CRUZ, ISAGANI BARBOLINO                                  0501
A0601400100000000141944GARCIA, CATHERINE ANTIPUESTO                             0501
A0101411370000000350478**********                                               0502
A3101400160000000429032LOIDA P CALDERON                                         0501
A2401400180000000554950TIONGSON, AILENE OMAMALIN                                0501
A0101400570000000749651LIBERTY B. MALUBAY                                       0501
A0101411370000000903553CASEL, LILIBETH DE BELEN                                 0504
A0101410140000001074806MATURGO, THERESA RUIZ                                    0501
A0101402510000001292371PERRERAS, ROSEMARIE MIRALLES                             0501
A0101403030000001302178**********                                               0501
A0201400920000001331862***********                                              0501
A0101400600000001335604PORRAS, MARIVIC DE GUZMAN                                0502
A0101414090000001669645********************                                     0503
A0101407560000001770798JCN PLASTIC PACKAGING                                    0502
A0101403320000001803349RELAYO, CARL ALBERT IGNACIO                              0501
A0101413860000001887034DOMINGO, SENEN FUA                                       0501
A2401400180000001935782ONAS, ROSITA PLANOS                                      0501
A5501400120000002019001GARCIA, LILIBETH LORILLA                                 0504
A0101400440000002034782CHARITO IBANEZ                                           0502
A2401400180000002146287BAUTISTA, WEDELIZA DIOQUINO                              0501
A0101407560000002152563ESTEBAN, FELIZA DE SOTTO                                 0501
A0101400440000002249652MACOLOR, LINA AGANAN                                     0501
A1301400500000003070173MIRANDA, LOURDES BARROZO                                 0502
A0701400260000003259272GONZAGA, EVA DEL ROSARIO                                 0501
A4101400550000003267150PIELAGO, JANINA PIELAGO                                  0501
A0101413440000003298242BUENDIA, CARLOS COLOYAN                                  0501
A0101412920000003465030REYES, JENNIFER SANTOS                                   0501
A0101408400000003515073MAGO, MAYBELLE DELA CRUZ                                 0501
A0101404000000004080993MEL FRANCIS M MERCADO                                    0501
A0101400860011038338001ANGELS AT HEART FOODS SHOP                               0510
A0101400860011511921001**********                                               0502
A0101411370022790042001HELEN L. CO OR MICHEL S. CO                              0501
A0101401700041360888001ANNEE SAIDA T. ESCLETO                                   0503
A0101400150061390534002DY, ANDREW CHUA                                          0501
A0101410560110764740001RELOJO, RAYMOND JAY DOROMAL                              0501
A0101401960121464343001**********                                               0502
A0101400440161045289001RAPTURE CAFE' BAR                                        0501
A0101400440161525001033MARY JANE V. MACALINAO                                   0501
A0101400440161525001042EVA G. ILAGAN                                            0501
A0101400440161525001135MARIFEL S. BOOC                                          0501
A0101400440161549556001TEODORO R. BAUTISTA                                      0501
A0101401090171196101002GREGORIO OR MARISSA DIZON                                0501
A0301400530193714903001INTINA, VILMA S.                                         0501
A0101401380201599894001CHUA, WILLIAM SOL CRUZ                                   0502
A0101413020209057241001***********                                              0503
A0101407140213380139001**********                                               0506
A3101400160221534743001TRINIDAD T. TAPIA                                        0502
A3101400450223512390001SAMIANO, JAIME OR MARIA CECILIA                          0502
A1001400190231478374001OCERO, ALGENE                                            0502
A1001400190231478374086LORNA A. OMANDAM                                         0502
A0101400570281442779001DR. SANDEE G. GO                                         0502
A0501400200292567569001LARILYN D. GATCHALLAN                                    0501
A0101402480331520766124BONTO, REYAMN B.                                         0501
A0101402510341283268001LEONORA S. VERZOSA                                       0501
A0101408400394039740001KAINAN SA STAFFHOUSE                                     0505
A0101412210399094817019VILLAMOR, MA. ANGELA G.                                  0501
A5501400120410275634001BAUTISTA, RYAN REYES                                     0505
A2401400180411272571001*****************                                        0501
A2401400180411478374055ABREO, EDRALYN LAYANG                                    0501
A2401400180411478374059ANALITA R. SUICO                                         0501
A2401400180411478374067CORTAL, CYNTHIA DE LEON                                  0501
A2401400180411623776001SAUBAN, MARIA LUISA BANDIOLA                             0502
A1201400150421257375001MARA ALOHA DIAZ                                          0505
A1201400150421313524001MOLLY C. ABIOG                                           0503
A1201400150421328018003SUGANO, GUELIRO MOYAEN                                   0501
A1201400150421445636001MENESES, RYAN DE GUZMAN                                  0501
A1201400150421520473001FLORES, MARY JANE KIMAKIM                                0501
A0101403320471326734001ANNALIE S. CALMA                                         0502
A0101403320471368063001MARIA CHRISTINA H. VENTURA                               0504
A0101406330472027958001A. ANOLIN ENTERPRISES                                    0502
A0101406330472329066002ANTONIO S. DE GUZMAN                                     0510
A0101406330472542494001TEODORA A. RAZON                                         0501
A0101408110515349308011ROLANDO E. ESTRELLA                                      0501
A0101411790518055815115ROSALES, MARK ANTHONY ABRASADO                           0501
A0101403450521238265001**********                                               0502
A0101403610531792048001MORDIDO, IRMA GAMBA                                      0502
A0101407720602397745001DE JESUS, CELESTINA MARCOJOS                             0501
A0101404260611005236001WILTRON ELECTRONICS                                      0502
A0101404260611041714001ALEJANDRO DRUG STORE                                     0502
A0101404260611335308002ALIMBOYONG, JOSEPHINE MAHINAY                            0503
A0101404420631162801001GERALDINE B. ESTECOMEN                                   0502
A0101404420631478374024ROWENA PEPANO                                            0501
A0101404420631478374128MELINDA A. DELOS SANTOS                                  0501
A0101404420631478374130SUSANA S. TIANGCO                                        0501
A1301400500684655684001FELIZARDO, FRANCIS CAMOMOT                               0501
A0101407560686177870001JOSE V. YASON III                                        0505
A0101407560686498895001WILLY A. LIM                                             0501
A2801400230713070903001EMETERIO, HONORIO DOMINGO                                0510
A2801400230713771317001NACIONAL, NATHANIEL ARZAGA                               0501
A4101400390813478374023LIZA C. REA¥O                                            0501
A4101400420814478374100LORLIE B. AGPOON                                         0501
A4101400420814478374109ESTER CARBELLIDO                                         0501
A4101400420814520766056MULIG, ESTER R.                                          0501
A4101400420814520766110DELA CRUZ, ARMINDA E.                                    0501
A4101400420814520766119OMNOS, NOVA DESCARTIN                                    0501
A4101400420814520766134TERESITA A. CASTILLO                                     0501
A4101400550815478374001ONAYAN, CAROLINA BAUTISTA                                0501
A0101404840851478374115ERLINDA O. PRADO                                         0501
A0101404840851478374190MARIE JEAN A. MOLDEZ                                     0503
A0101410690000000001758IGNACIO, JONATHAN DBU JCJ                               10502
A0101407720000000713040REVILLA, VICENTE G. OR                                  10501
A0101403450000000889341PATENIO, MARI JANE E. OR                                10502
A0301400950000002115322HAO, LIEZL DBU 168MH TRUCKING &                         10503
A0101406880000004522503CHAVEZ, ARIS ARJONA OR CHAVEZ,                          10501
A0101401700041316267001REYNALDO B. BONGALOS OR                                 10515
A0101401700041365653002AESOPO G. CRUZ OR                                       10505
A0601400100081251941001MARCELINO ALAPAG OR                                     10502
A0601400100081424085001ALAPAG, JASMINDA B. OR                                  10502
A0101401830141292667002GEMMA OR LEE MARVIN OR                                  10501
A0101401830141292667003MAGTALAS, GEMMA OR LEE MARVIN                           10501
A0101401830141530136001RACELLE MARY B. ABANES OR                               10501
A0101406620273587784001MENDIOLA, JOCELYN OR MENDIOLA,                          10501
A1201400150421039385001JL'S CLEAN UP JANITORIAL &                              10502
A1401400110492220854002DIHIANSAN, SAMUEL OR DIHIANSAN,                         10501
A0101403610531662330001BERROYA, MARK LESTER AMOR  OR                           10502
A0101407720602397801001EMMANUEL DE LEON IBAY OR                                10503
A0101407560686173817003ROBERT BUNALES OR                                       10502
A0101410690000000001758MANAGEMENT SERVICES                                     20500
A0101407720000000713040REVILLA, ALEJANDRO L.                                   20500
A0101403450000000889341SANTIAGO, MARY ANN E.                                   20500
A0301400950000002115322HEAVY EQUIPMENT SERVICES                                20500
A0101406880000004522503GEORGINA SABALVARO                                      20500
A0101401700041316267001MARICEL BONGALOS                                        20500
A0101401700041365653002GRACE SANTOS CRU                                        20500
A0601400100081251941001JASMINDA ALAPAG                                         20500
A0601400100081424085001ALAPAG, MARCELIN                                        20500
A0101401830141292667002JOHN GEMMO MAGTALAS                                     20500
A0101401830141292667003OR JOHN GEMMO                                           20500
A0101401830141530136001LUIS FRANCISCO V. LEBRON                                20500
A0101406620273587784001GABRIEL OR TANCHALING, PA                               20500
A1201400150421039385001MANPOWER SERVICE                                        20500
A1401400110492220854002CHRISTINE                                               20500
A0101403610531662330001BERROYA, CONNIE MORADA                                  20500
A0101407720602397801001MA. JESUSA T. IBAY                                      20500
A0101407560686173817003ARLENE BUNALES                                          20500
B0101407140000000015083**********                                               1602
B0101411370000000017990PHILIPPINE WOMEN'S UNIVERSITY                            1605
B0101400860000000030315*************                                            1602
B0101413570000000206642DRICKSLEE BUILDERS COMPANY                               1605
B0101407270000000830493LOUIE C. ESTANOL AND EVELYN T. ESTANOL                   1601
B0101404840000001312292LIFTER SYSTEMS INC.                                      1605
B1401400110000003475650RCBL - OUR LADY OF SORROWS PARISH                        1605
B0101400860011389659002**********                                               1605
B0101400600071040008001*******                                                  1601
B0101401960121011796001**********                                               1605
B0101401960121240191002LEGRAND PROPERTIES INC.                                  1602
B0101407140213007800001ABLAZA-ZAMORA ENTERPRISES                                1602
B0101400570281007818001ACE-NBS MULTI PURPOSE COOPERATIVE                        1605
B0101402480331020511001**********                                               1603
B0101402480331311155002*************                                            1610
B0101402510341020561001PHILIPPINE PHARMACISTS ASSOCIATION                       1601
B5501400120410041754001KENDRICK PETRON STATION                                  1602
B2401400180411033387008BIBIANA FARMS AND MILLS, INC.                            1605
B2401400180411041355088***********                                              1603
B0101403450521011662002SUNTRA INT'L TRADING CO., LTD.                           1605
B0101404000551272030001HUNDRED OAKS REAL ESTATE INC                             1602
B0101412210000000031512WALL STREET ACCOUNTING AND BUSINESS                     11601
B0101411370022055804001VICENTE A. WONG SR, LEADERSHIP FORUM                    11601
B0101407270162037305001MICROGOLD INFORMATION SOLUTION AND                      11610
B0101407270162043148001LA COMMERCIALE M&J REALTY                               11605
B0101400570281007169001ST. LUKE'S TRINITY COLLEGE NURSES                       11602
B5501400120410042731001KENDRICK MANPOWER, ENGINEERING AND                      11602
B2401400180411588207001ANG, CYRIL OR ANG, EVELYN OR ANG, CYNRIC                11605
B0101408110515044192001ASIA SOCIETY FOR SOCIAL IMPROVEMENT AND                 11602
B0101412210000000031512SOLUTIONS INC.                                          21600
B0101411370022055804001CO. LTD.                                                21600
B0101407270162037305001PRODUCTS, INC.                                          21600
B0101407270162043148001INCORPORATED                                            21600
B0101400570281007169001ALUMNI ASSN INC.                                        21600
B5501400120410042731001ALLIED SERVICES                                         21600
B2401400180411588207001OR ANG, CLINTON                                         21600
B0101408110515044192001SUSTAINABLE                                             21600
