F3201400190000001493803CECILE Y. YAGO OR                                       12505CKO
F3201400190000001493803ISAGANI Y. YAGO                                         22500CKO
F0601400360083040826001SG ECO INDUSTRIES INC.                                   2602CKR
F0101401120131367396002BARBARA ANNE C. MIGALLOS                                 2602CKO
F0101408080514032440001DAVAO MOLASSES HAULER INC.                               2603CKR
