B0101411530000012240463**********                                               1601
A0101408240711199637001GIL JOSE E. PULUMBARIT JR.                               0501
A0101408240711393907002CABRERA, MARC LAMSON OR                                 10501
A0101408240711393907002CABRERA, CARLA                                          20500
B1001400350000000244380ECO WORKERS UNLIMITED CORP.                              1603
A1001400350233528399003KO, JOSE NELSON AND                                     10502
A1001400350233528399003KO, CHARMAINE                                           20500
A0101409890000000437449**********                                               0501
B0101411530000000013623ADARNA GROUP FOUNDATION INC                              1601
A0101408240711483260001YU, RYANNE MALVEDA                                       0501
A0101408240711712646001BAUYON, TORIBIA FABELLO                                  0502
A0101400860011095832001**********                                               0503
B0101400860011374971002**********                                               1602
A0101400860011376189001**********                                               0501
A0101400860011449807001**********                                               0503
B0101400860011529339001**********                                               1602
A0101400860011580145001**********                                               0502
B0101400860000000030268**********                                               1605
A0101400860000001005514**************                                           0505
A0101401250000002131993TAN, YAO KUN CHIONG                                      0501
A0101401250021178998001SARILE, FLORIDA P. OR                                   10503
A0101401250021178998001SARILE JR., ALBERTO V.                                  20500
A0101400150000002749808RECOMENDABLE, CAROLINA VALERIO                           0501
B0101400150061038163001QUANTUM FOODS, INC.                                      1602
A0101400150061368976001GRACE R. ABESAMIS &/OR                                  10501
A0101400150061368976001ROBERT GLEN R. A                                        20500
A0101400150061434884001MANUEL R. BERNARDO                                       0502
A0101400150061457016002AURELIO, LEONARDO ALCANTARA OR                          10502
A0101400150061457016002AURELIO, MARIA E                                        20500
A0101400150061578556001ESGUERRA, ELMA FERRER                                    0501
A0101400150061707501001ANG, JEANILLE ALYANNA UY                                 0501
A0101400600000005942509COMIA, JUAN DE ROXAS OR                                 10503
A0101400600000005942509COMIA, ELEAMOR MACALALAD                                20500
A0101400600000005943079*******                                                  0502
A0601400100000002365404BALTAZAR, RODRIGO CAPATI                                 0501
A0601400100081040294001MOIKAI INDUSTRIAL SUPPLIES AND                          10505
A0601400100081040294001AUTOMATION SERVI                                        20500
B0601400100000005690428BRETTO'S INTERNATIONAL FOOD CORP.                        1610
B0601400100000000142087TOTAL HYGIENICARE MARKETING INC.                         1601
A0101413730000007317291************                                             0502
A0101414090000003314843VILLANUEVA, KENNETH BAYLON OR                           10502
A0101414090000003314843VILLANUEVA, JO-AN JAMILO                                20500
A0101410560000002316581**********                                               0502
A0101410560000005280699FELIX CHRISTIAN H ZEPEDA III                             0502
A0101410560000009034840MARISSA J. NAKPIL                                        0501
B0101410560000000757273TONY & JACKEY BEAUTY SALON CORP.                         1603
B0101410560000000757295ASIA BANG'S FIRST GROUP CORP.                            1603
B0101400730111033923001QUICKLEND PHILIPPINES INC.                               1606
A0101400730000005208811CABUAL, EVELYN FERNANDEZ                                 0502
B0101401830141004746001RIVERA, RAMIL DBU VITRO TINT SERVICES OR                11601
B0101401830141004746001DUCUSIN, CHERINA                                        21600
A0101401830141278915001WILFREDA A. NOTARTE                                      0502
A0101401830141453953002ERNANI E. BAUTISTA OR REICHELLE                         10501
A0101401830141453953002JOANNE C. BAUTIS                                        20500
A0101400440000010744661KATIPUNAN, ANDRIAN RAMOS                                 0501
B0101400440161019210001UKC COMMERCIAL PRESS, INC.                               1602
A0101400440000002035041MARIA GEVELA CARDINOZA                                   0501
B0101400440000002846575COMMANDER SECURITY SERVICES, INC.                        1620
A0101400440161045289001RAPTURE CAFE' BAR                                        0503
B0101400440000000337751COMMANDER RANGE & SPORTS CLUB, INC.                      1605
A0101400440000000821301TOPCOM CONVENIECE STORE                                  0505
B0101400440000000337882PHILIPPINE SECURITY & SAFETY                            11605
B0101400440000000337882PROFESSIONAL                                            21600
A0101400440000002035001INTEGRITY DIAGNOSTIC CENTER                              0505
A0101400440161591337001JENESSEY A. RANCES OR                                   10502
A0101400440161591337001JESSIE O. RANCES                                        20500
B0101407270162019026001RAMCAR TECHNOLOGY, INCORPORATED                          1605
A0101407270162680190001YAP, JOEL GO                                             0501
A0101401090171346868001CO, BENJAMIN GO                                          0501
A0301400660000008940978LABOR, JESSIE OR POSADAS, DAN                            0502
A0301400660000008940978**********                                               0501
B0301400660000003368427GARDENSTATE ENTERPRISES, INC.                            1605
A0301400660194456048088*****                                                    0503
A0301400950000010424818COLOMA, MARIA VIRGINIA ASUNCION                          0501
A0101401380000010190671PANTOLLANA, HECTOR ALDWIN LIAO                           0502
A0101413020000006295112GO TAN, M DBU WORLD STAR MARKET                          0504
A0101413020000006295970SIMBULAN, ALLAN ROY CALIBOSO DB                          0501
A0101412500214068283001AOSBC TRADING                                            0501
B0101413600000005524772GENERAL POWER EQUIPMENT                                 11605
B0101413600000005524772SOLUTIONS INC.                                          21600
B010141360000000844249921ST CENTURY MANPOWER RESOURCES, IN                      1605
B1001400190231022073001FARASIA EDUCATIONAL LIBRARY COR                          1601
A1001400190231380503004YAP, MA. JOEVA                                          10501
A1001400190231380503004PHILAMCARE DOCTORS                                      20500
B1001400350000000017096AYA VENTURES CORPORATION                                 1604
A1901400290000000135231MARC MACUHA RECTO OR                                    10506
A1901400290000000135231VANESSA PANGILINAN RECTO                                20500
B1901400290261000718001BANGKO KABAYAN INC.(A PRIVATE                           11601
B1901400290261000718001DEVELOPMENT BANK                                        21600
A1901400290261050401001DIOSDADO M CAPUCHINO                                    10502
A1901400290261050401001DBU DMC DIAGNOSTIC CENTER                               20500
A1901400290261244452001ELEUTERIO METICA MERCADO                                 0501
A1901400290261478374024NANCY MOJARES PALO                                       0503
B0101406460272024042002THE ASCENDURE CO. INC.                                   1601
B0101406460000000182450JUNNA INDUSTRIAL CORPORATION                             1601
B0101406460000000712883WESTBOROUGH LAND REALTY CORPORATION                      1601
B0101406460000000712890GOODWAY INDUSTRIAL SERVICES INC.                         1601
B0101406460000001231612ENJ DISTRIBUTORS, INC.                                   1601
A0101406620000000193720CO CHIEN JR., VICENTE TAN                                0502
A0101406620000010794488ANNALEEN P. REYES                                        0501
B0101406620273026509001DG3 IDOCS, INC.                                          1602
A0101406620273516596001ALVAREZ JR., MIGUEL DULAY                                0501
A0101406620273781168001GONZAGA, MICHELLE ANGELINE HAO                           0502
A0101411820277792428002YAP, JOHN MILTON EMBILE                                  0501
A0101411240000007844991GAERLAN, GERALDINE RODRIGUEZ                             0503
A2601400270000008654177CHRISTOPHER JOHN A. FORMOSO OR                          10510
A2601400270000008654177MA. VICTORIA FORMOSO                                    20500
A2601400270302548459001ALVIN PATRICK GOMEZ OR ALLAN                            10501
A2601400270302548459001JOHN GOMEZ                                              20500
A2601400270302657794001ALLAN JOHN GOMEZ OR ALVIN                               10501
A2601400270302657794001PATRICK GOMEZ                                           20500
A0801400160311478374055LURELA FERASOL                                           0502
A1101400120000003197095IBANEZ, JENNY LIND BUENO                                 0502
B1101400120313041635001JGC FINANCING COMPANY, INC                               1604
A2001400290000000978043UTV CONSTRUCTION & ENG'G.                               10502
A2001400290000000978043SERVICES                                                20500
A2001400290000000724878QUIAMCO, RHEA V. OR QUIAMCO,                            10501
A2001400290000000724878ERWIN ALPHONSUS                                         20500
A2001400290315793280001LLANES, ROILDA ERAMES                                    0501
A0101402350321296828002MARITES G. GASIS                                         0501
B0101405650000005382065CAMARA, MARK DARWIN ATIENZA DBU GAD                      1602
B0101405650322172207001BF TRADERS MULTI-PURPOSE                                11603
B0101405650322172207001COOPERATIVE                                             21600
B0101402510341026003001PHILSOFT TECHNOLOGIES GROUP, INC.                        1601
A0101402510341196487001SALVADOR DIZON OR                                       10501
A0101402510341196487001ZENAIDA DIZON                                           20500
A0101402510341237033001ARMAND PATRICK R. SALAMAT                                0501
A0101409050352602496001DOMINGO,FREDERICK OR BAYANI OR                          10501
A0101409050352602496001CHARITY / CRUZ,M                                        20500
A0201400920000007951662GUANZON, CLIVE ANDREW IT-IT                              0503
B0201400890376004789001ECC FOREIGN LANGUAGE INSTITUTE OF THE                   11601
B0201400890376004789001PHILIPPINES INC.                                        21600
B0101402930381017213001UNIVERSAL ROBINA CORPORATION                             1601
A0101402930381279196001JUAN MIGUEL R. BONDOC                                    0503
A0101402930381413813001CORNELIO, FERNALYN J                                     0501
A0101411660000002881150JOSE C PEPITO JR DBU JCAP                               10501
A0101411660000002881150SIMPLIFIED BUILD                                        20500
B0101411660000007555737HORIZON CONDOMINIUM ASSOCIATION, IN                      1601
A0101402770391355762035NOEMI GERLIE G. RIO                                      0501
A0101405490000011287962KAGINGIN, EULALIA FIDELINO                               0502
B0101408400000002386263CORMANT TECHNOLOGIES INC.                                1602
A0101408400000003120769CHUA, NEIL ALVIN DY                                      0502
B0101409180397056094001REGUS SERVICE CENTRE, PHILIPPINES B.V.                   1610
A5501400120000006976961ELISAN, JOHN CRIS DEDEL DBU JCE                          0503
A2401400180000007031494ORTEGA, ROCHIE ROSARIO                                   0502
B2401400180000007476751GAISANO, PAUL SY                                         1605
B2401400180411016835001GENERAL TUNA CORPORATION                                 1605
B2401400180411276067001GAISANO DADIANGAS, INC.                                  1610
A2401400180411338845001ROBERTO T. PERALES OR                                   10510
A2401400180411338845001JANET C. PERALES                                        20500
B0101403030441239090002**********                                               1601
B0101412890000001765266I-SHARE CLUB, INC.                                       1602
A0101412890000004345113RDCU FURNITURES                                          0501
A0101410140000001939922ENCALLADO, CARLO CRUZ                                    0501
A0101410140000010760391MIGRINO, JERMAINE PLAZA                                  0501
A0701400260000002339120ABANTO, JASMIN DE ROMA                                   0501
B0101407430000001213169FAST LANE INTERNATIONAL LOGISTICS INC.                   1602
A0101407430000003193946JENNIFER N. LOPEZ DBU JLO HIGH                          10502
A0101407430000003193946PERFORMANCE MOTO                                        20500
A0101407430503332538001TERESITA F. AWAT                                         0501
A0101403580511327187012MARIA LEAH TOPACIO                                       0501
A0101403580511412299001DINAH M. VILORIA                                         0501
A0101403580511770331001MARISTELLA B. CLAUDIO                                    0501
A0101408530000010580213REYES, RONA AMORANTO                                     0501
A0101408530000001268662BITE, MARIA KRISTINE NADIA B                             0501
A0101408530000005493518EDMAR ERVENE PATENO                                      0502
A0101411790000012549003HERNANDEZ, MA ANGELA VELASCO                             0501
B0101403450521011895001MANRESA GARDENS TOWNHOMES                                1602
A0101403450521313272001**********                                               0501
B0101403610531024690001ACADEMY FOR CREATIVE LEARNERS OF                        11602
B0101403610531024690001SAN PEDRO LAGUNA                                        21600
A0101403610531321009001ELAMPARO, EVELYN PRESNEDI                                0502
B0101404130601031677003CARRIEDO TOURIST DEVELOPMENT INC.                        1603
B0101404130000000321520HEARN LAND CORPORATION                                   1602
A0101407720602294485002JUGO, GIOVANNI JOSE                                      0502
A0101407720602333243001MELODIE GRACE M. REMORCA                                 0503
A0101407720602398795001*************                                            0503
B0101404260611022505001SEAA CORPORATION                                         1603
B0101404260000000157015INTERPRO FOOD SPECIALIST INC.                            1605
A0101404260611150882001GENEROSA P. LAGAT                                        0501
B0101409890649006451001HBC, INC.                                                1601
A0101409890000000049067VIRGINIA SY JAO                                          0501
B0101409920650044950001EINSTEIN SCHOOL FOR KIDS, INC.                           1601
A0101409920000009055603LINTINGCO, EMELITA DAZA DBU E.D                         10503
A0101409920000009055603LINTINGCO TRAVEL & TOURS                                20500
A0101407690652388719001GONZALES, BOENARGES REYES                                0501
A0101413570000001720230MIRANDA, IRENE JAPON                                     0501
A0101413990000000726512CASTRO, GIZA A.                                          0502
A0101414120000001751446MARIA GRACE LACUESTA OR RICKY                           10505
A0101414120000001751446LACUESTA OR MILE                                        20500
A0101410300000011355616BERTOLDO, YOLANDA MARIANO                                0501
A1301400210682037806001MANG PABLING MARKETING                                   0505
B1301400210000000023412BULACAN GARDEN CORPORATION                               1605
A1301400210682159793001VALENTINA A ALFARO                                       0503
A1301400210000000540914RAMOS, ALLAN BAUTISTA                                    0501
A1301400210000005040726SANTOS, ERNESTO BORLONGAN                                0501
A1301400340683410031001LLANILLO, ROSEMARIE RAMOS                                0510
B1701400230000002762525TOWN BAKERY AND CITY GROCERY INC.                        1602
B0101408240711024126002TRANS-GLOBAL CONSOLIDATORS, INC.                         1605
B0101408240711026786001LIQUIGAZ PHILIPPINES CORP.                               1602
B0101408240711027394002APT TRAVELS INCORPORATED                                 1610
B0101408240711781355001SOLART SHIPPING AGENCIES CORP.                           1605
A2801400230000002312436OCAMPO, GINA SAMSEL                                      0502
A4101400420000009270526BIHAG JR., LAURIANO LAZARTE                              0502
A4101400420814298552026JOSEFINA FERNANDEZ                                       0502
A0101412340000003342098GEYLORD M. CRUZ                                          0501
A0101412340000006386441AILEEN G. SOCHAYSENG                                     0501
B0101404840851029765001SENG HIENG FASTFOOD                                     11605
B0101404840851029765001INCORPORATED                                            21600
A0101404840851419256001INTOD, DELFINA SAMONTE OR                               10502
A0101404840851419256001INTOD, ALGREG M.                                        20500
A0101404840851481664031RAPIRAP, CHERRYL                                         0501
A0101404840851494400001FELICES, REDEMPTA MORALES                                0501
B0101404840000003069685CHOWLEEMIEN FOODS INCORPORATED                           1605
B0101406750000007097272BONA, MECHIE ROMAN DBU ANING'S VULC                      1601
A0601400230000007252628CANLAS, RODRIGO MIRANDA                                  0501
B0601400230891037746002WESTCOAST AUTOMOTIVE CORPORATION                         1603
