F0601400100081685142001POON, WAISILY LOZANO                                     2502CKO
F3101400580452518795001LONTOC, JAYSON TATLONGMARIA OR                          12503CKO
F3101400580452518795001AILEEN ESPELETA                                         22500CKO
F1201400280000000035032*****                                                   12505CKO
F1201400280000000035032*****                                                   22500CKO
F0101408240711078794001ALCANTARA, LELANIE VERONICA                             12510CKO
F0101408240711078794001FACTOR JT                                               22500CKO
F4101400420814520461001MONDERIN, ARNULFO DE LUNA                                2501CKO
