B0201400890376821100608**********                                               2006
B0101410300663821100608**********                                               2002
A0101400600000005943091CHERRY B. PANA                                           0501
A0301400530000017215731ASETRE, JENNIFER URDANETA                                0501
A0301400530000017202009ARCENAL, MARISSA FORONES DBU                            10501
A0301400530000017202009MARIZ CHICHARON                                         20500
A0301400530000017205340EDIOS, RYAN CORDERO DBU                                 10501
A0301400530000017205340QUICKLINE ENTERPRISES                                   20500
A0301400530000017229784ARANETA, EUFEMIA PACCIAL                                 0501
A0101405940000002268722DOMINGO, KAREN MUSNI                                     0502
A0101407690000000495512MARIA BELEN FEDERIZON OR                                10501
A0101407690000000495512JOSE RENEIRIO FE                                        20500
A0101407690000012226856YU, JERRICK LAYSON                                       0501
A0101407690000010774775***                                                      0501
A0101407690652020765001STARIAN MARKETING                                        0505
B0101407690652044546002GLB PLUMBING AND FIRE PROTECTION SYSTEM                  1601
A0101407690652173311001RS JARDIN & ASSOCIATES                                   0505
A0101400860000002262528REA P. DE MESA                                           0503
B0101400860011035923001**********                                               1601
A0101400860011425868001**********                                               0502
A0101400860011548654001**********                                               0502
A0101400860000011515990**********                                               0505
A0101401250019120002328IGAYA, MIRIAM DEROCA                                     0503
A0101401250000003802480JUNIO, CARINA PADRE JUAN                                 0501
A0101400150000003218168RICARDO JR. D. SIMBOL                                    0501
A0101400150000017245240PUZON, ANNA BENJIELINE RIO                               0501
A0101400150000017248158LAJERA, MARY JOY TAIWAN                                  0501
A0101400150061739693001FRANCISCO D. VARUA OR MARIA                             10501
A0101400150061739693001MARLENE A. VARUA                                        20500
B0101400600071011304001**********                                               1602
B0101405810072383141002WANG, CIHAI                                              1602
A0601400100081586342001AGUILAR, REMEDIOS SALAS                                  0501
A0101410560000014510760AMORANTO, JEANETTE GONZALES                              0501
A0101400730000000833410GOMEZ, EDWIN VITUG                                       0501
A0101412630000014772440GUERRERO JR., HENARIO M.                                10501
A0101412630000014772440OR GUERRERO, HELEN M.                                   20500
A0101401830000011228889ALCANTARA, RUBY BAUTISTA                                 0501
B0101401830141205618002ST. JOSEPH SCHOOL OF PANDACAN, INC.                      1610
B0101400440161016011001ALLIED BOTANICAL CORPORATION                             1601
A0101400440000002035063BUGA, JULIET BONADOR                                     0501
A0101400440161520766193LEILANIE P. LOCSIN                                       0501
A0101401090000004753851AIJP FOOD SERVICES                                       0502
A0101401090171198157001DRS. WILLIAM OR                                         10510
A0101401090171198157001MA. SALVE OLALIA                                        20500
A0101401090171202809001KASHMER T. CRUZ                                          0501
A0101401090171558920001MILAGROSA, REGINA SALES                                  0501
A0301400530000017173018AMPONG, JOVITO CASTRO DBU J.A.                          10502
A0301400530000017173018MINING VENTURES                                         20500
B0301400530193044706199ROYAL CROWNE BEVERAGES                                   1602
A0301400660000005691803**********                                               0501
A0301400790000002301393BARCELONA, JANET TIZON                                   0501
A0301400790000012274032MADAYA, ANASTACIO P. OR                                 10501
A0301400790000012274032PAMONGCALES, ELIAS R.                                   20500
A0301400790000001776138ESCAMIS, JOSE PACLAR DBU                                10502
A0301400790000001776138ESCAMIS BUILDERS                                        20500
B0301400790000000435738NEW GREAT LUMBER AND CONSTRUCTION                       11601
B0301400790000000435738SUPPLY, INC.                                            21600
A0301400950000014676232REYSON, JOHN KIM OR ABALLE, MEL                         10502
A0301400950000014676232CHITO OR LUCERO, IVY A.                                 20500
B0301400950000011415175BOOMIN' & BLOOMIN' BRAND INC.                            1601
B0301400950000011415062TIPICON ENGINEERING INNOVATIONS                          1601
A0101410720653173641001ISMAEL, LOLITA FABRE                                    10502
A0101410720653173641001OR ISMAEL, HUBER                                        20500
A3101400450000016825042DAVID, JAYREEN DE LEON                                   0501
A3101400870000003515513MARLON R. LIM                                            0501
B1001400190231032463001PROGRESS BICYCLE CORPORATION                             1602
A1001400190231520766019GO, JUDITH SATURNO                                       0501
A1001400190231520766036ONIPA, JANE ROSE P                                       0501
A1001400350233579422001*****                                                    0501
B1001400480000004097176QUILAB, CABILIN, BATO & CO., CPA'S                       1601
B1301400470000003270135EPS HAULING COMPANY INC.                                 1601
A1301400470000015271457DON G. BERNABE                                           0502
B1301400760000000050842VICTOR R. DEL ROSARIO RICE MILL CORP.                    1602
A1901400290261016395001GOLDEN OIL GASOLINE STATION                              0502
A1901400290261050401001DIOSDADO M CAPUCHINO                                    10502
A1901400290261050401001DBU DMC DIAGNOSTIC CENTER                               20500
A1901400290261245089002SHIRLEY OR DIONISIO GUTIERREZ                           10502
A1901400290261245089002OR DIONISIO GUTIERREZ SR                                20500
A1901400290261488341018ALBERT CESAR S FALLER JR                                 0502
B0101401670271022313001PASDA, INCORPORATED                                      1603
A0101406620000001686882AVINANTE, BERNARD CONCEPCION                             0501
B0101406620000013342871108 ENTERPRISES INCORPORATED                             1601
B0101406620273025607004DELL EQUIPMENT & CONSTRUCTION                           11601
B0101406620273025607004CORP.                                                   21600
A0101408660274346120001SHI, FENG LIAN CHEN                                      0501
A0501400200000000473847KALAW, LITA SISON OR                                    10501
A0501400200000000473847KALAW, REGINA                                           20500
B0801400160000001289932RD PAWNSHOP, INC. - ILOILO NORTH                         1603
A0801400160311638278001DE ARROZ, ELMA SAMPIANO                                  0502
B1101400120313037025001RICKY CONCRETE PRODUCTS & AGGREGATE                      1602
A6601400120314630541002LIAD, ROSIE ORTIZ                                        0502
A0101402350000012300160QUIAMBAO, EDISON C. OR                                  10505
A0101402350000012300160QUIAMBAO, GIA KARLA V.                                  20500
A0101402350000014043824SACARIA, ROHANIE CADAR                                   0501
A0101405650000017212269OCAMPO, PIA ROXAS OR OCAMPO II,                         10501
A0101405650000017212269FELICISIMO VICTOR MAGUYON                               20500
A0101405650000002325515FERNANDO MARTIN TAN                                      0502
A0201400760000005710903ORLANES, GILBERT RUELO                                   0502
A0201400760000017081777DANIEL OCARIZA OLMILLA DBU D OL                          0501
A0201400920000000047976TUBIN, ELVIRA                                            0504
B0201400890000011827042PALMA ROSA RESIDENCES, INC.                              1601
A0101402930381330886001JOSE A. NUNEZ, JR. OR                                   10501
A0101402930381330886001MA. TERESITA A.                                         20500
A0101402930381381181001BERNARD FAH OR                                          10503
A0101402930381381181001MARIA CAROLINA FAH                                      20500
A0101402930381488752001AGUADA JR., JOSE JOEL RACCA                              0502
A0101408790000011517161ARAT, RAQUEL AMAYAN                                      0501
A0101408790000002031430BARRAIRO, DANIELLE CARILLA                               0502
B0101408790383040734001RADIOWEALTH FINANCE COMPANY, INC.                        1605
B0101405490000013942202PROSERV INTERNATIONAL TRADING CORP.                      1603
B0101405490392029745003MESINA BROTHERS INC.                                     1602
A0101405490392298552043BETTY R. ARENA                                           0502
A0101405490000016418503MESINA, MARIA TERESINA G. OR                            10502
A0101405490000016418503MESINA, MARIA PAMELA G.                                 20500
A0101405490000006241943MINERVA V. VILLACORTA                                    0501
A0101408400000001855392MACASAET, RAFAEL MARASIGAN                               0502
A0101408400000004959555RENTOY, NANCY OLANO                                      0501
A0101408400394401209002YU, ANNA KATRINA MANIQUIS                                0503
A0101408400394478374057EVELYN M. BONGAT                                         0504
A0101409180000011749832ANNA KATRINA CAUTON OR                                  10501
A0101409180000011749832CESAR HERNANDEZ                                         20500
A0101409180000017163667ANTONIO M. SALONGA                                       0501
A0101409180000005326621PACARAT, MARICEL GONTINAS                                0502
A0101409180000015943823SANA, ROMELYN AGUILLON                                   0502
A0101412210000004644553DE LEON, EDWARD MAXIMO                                   0501
A2401400180000000554938DOLERA, CANDELYN FILIPINAS                               0501
B2401400180411026932003NOTRE DAME BUSINESS RESOURCE CENTER                     11601
B2401400180411026932003MTTP                                                    21600
A0901400220000011299217**********                                               0505
B0101403030441593223001**********                                               1601
A0101403320000014839651LEGASPI, ERIKA ROSS I.                                   0501
A0101403320000014818665NICEGANDA TRADING                                        0501
B0101403320471068309001GAPAN LAND, INC.                                         1603
A0101403320471208380001EDDY M. JULIAN                                           0501
A0101406330000016116204REYES, EVELYN GARCIA                                     0501
B0101406330472045599001BES SERV LOGISTICS CORP.                                 1603
A0101406330472481679001MA. CRISTINA LOPEZ OR                                   10501
A0101406330472481679001ROGELIO LOPEZ                                           20500
B0101412760000007821794BRIXTON X CHANGE INC.                                    1602
B0501400170481018109002CSI WAREHOUSE CLUB INC.                                  1601
A1901400320000011382751BACAL, NILEA DIMAANO                                     0502
B1401400110492064873003GLOBAL DHI PHIL. INC.                                    1601
B1601400170000000036193EAST JAVA COMPANY                                        1605
A1601400170000000421149EVELYN B. DELVO                                          0502
B0101407430503038048001CLASSIQUE IDEAS INTERIOR DESIGNS INC.                    1605
A0101403580000013963578HUMMEL, VERONICA MIRABUENO                               0501
B0101403580511005199002ACE FOODS, INC.                                          1602
B0101403580000000214684K.S.T. PROPERTIES, INC.                                  1605
B0101403580511043261001FILIPINAS BENSON INDUSTRIAL &                           11602
B0101403580511043261001DEVELOPMENT CORP                                        21600
A0101403580511153476004THERESITA S. TIU                                         0505
A0101405940512666891001ADAN, RONALDO PALENCIA                                   0501
A0101408530516487118001ADVINCULA, LEONARDO CASTILLO                             0502
A0101408530000005493570CARLO G. CRUZ                                            0501
A0101412050000002314494********                                                 0502
A0101412050000008837141SANTOS, ROMMELITO DE JOSE DBU                           10501
A0101412050000008837141ROMSANAIRE TRADING                                      20500
B0101403450521011736001COFTA MOULDINGS CORPORATION                              1603
A0101403450521238088001**********                                               0503
A0101403450521589241001**********                                               0503
A0101403610000017229482GONZALES, ANA MELIZA DIBABAO                             0501
B0101403610000006637114RD PAWNSHOP, INC.                                        1603
A2201400250561417945001MARIEL ANGELA I. PRINCIPE OR                            10501
A2201400250561417945001MAZIAR C. KHALEDI                                       20500
B0101407720000007951800TRENCHNET SOLUTIONS INC.                                 1602
A0101407720602398317001SALCEDA, PACITA RAMOS OR                                10504
A0101407720602398317001DE LEON, BELLA R                                        20500
B0101412180603046946001JBROQUEZA "JB" TOY BALLOONS & PARTY                     11603
B0101412180603046946001NEEDS                                                   21600
A0101404260611478374121FLORDELIZA B. HUVALLA                                    0501
A0101404260611788828001LUSTERIO, JOEL BONGOSIA                                  0502
A0101407690652700817001PITOGO, CECILIA JALEM                                    0501
A0101407690000000053881********                                                 0504
A0101413570000016121816GARCIA, REGINA                                           0501
A0101413570000016005826HERNANDEZ, ODESSA PERALTA                                0502
A0101413570000015140342RUBIO, VIVIAN ABETRIA                                    0503
A0101413570656057648031ANGOG, JENNIVY BOGAC                                     0502
A0101413990000017251980GALI, MERCY LOZADA                                       0501
A0101413990000001947162ZENAIDA O. PAYONGAYONG                                   0501
A0101414120000002879743DE GUZMAN, JENNY MERLIE APOLINA                          0502
A0101406590662207039001HORTENCIA A. BUENAVENTURA                                0501
A0101410300000007614128GALENZOGA, MARILOU VELOSO                                0502
A0101410300000000191939CARBALLO, LUIS ANTONIO S. OR                            10505
A0101410300000000191939SALAZAR, EMMANUE                                        20500
A1301400210000005040577**********                                               0501
A1301400500000002063918RNV APPLIANCE SERVICE CENTER                             0503
A1701400230000014313792ACEDO, RODERICK VILLANUEVA OR                           10502
A1701400230000014313792ACEDO, LORELENE BALOALOA                                20500
A1701400230000012227319MARZAN, JANICE JANE FRANCO DBU                          10503
A1701400230000012227319CAFE JUAN                                               20500
A1701400230000004469643SALAZAR, MARIBETH DBU  NORTH                            10505
A1701400230000004469643TECH BUILDERS & CONSTRUCT                               20500
A0101408240000016574619DAVID, IMELDITA BARBOZA                                  0501
A0101408240711400412005MIRCHANDANI, MICHAEL OR SHERYL                          10501
A0101408240711400412005OR SHAM OR LALA                                         20500
A0101408240711490981001MILLS, AMPARO OR VICENTE JR.                             0501
A2801400100712495268002LEE, JOSEPHINE GLECINDA TULAO                           10502
A2801400100712495268002OR LEE, JAMES TA                                        20500
A4101400260000012863840CLEMENTE JR., IGNATIUS ANTONIO                           0501
B4101400260000001199093SOLOMON MULTI-PURPOSE COOPERATIVE (                      1603
A4101400260000003679669ROSARIO, JESSICA GUTIERREZ                               0501
B4101400420814028628002MN BUSINESS SOLUTIONS CO.                                1601
A4101400420000014280172LIWAG, MARIETTA MANALO                                   0501
B4101400550000006044082TELKHA  HOLDINGS INC.                                    1603
A0101404840000013836763SECRETARIO, HAIDE DILAO                                  0501
A0101404840000013382253EMPLOYEES OF, KYOCERA ASIA PACI                          0501
B0101404840851009292001GEMSTAR MARKETING                                        1605
B0101404840000006365171KAWASAKI EMPLOYEES MULTI-PURPOSE CO                      1605
A0101404840851478374038EVANGELINE UMALI                                         0502
B0101406750000007097290HUEY ENTERPRISES                                         1610
A0101406750852617654001OSORIO, THELMA RAVELAS                                   0502
A0101405070000015800592SANTIAGO, MARLON MERCADO                                 0501
A0101405070000003439741JHON REY PADURA ALARO                                    0501
B0101413860000000145300**********                                               1610
