B2801400100712821100608**********                                               2002
A0101413440000000702156PASOS JR., ARSENIO WANIA                                 0501
A3101400870000002327982MAGTALAS, ENGELBERT ALINSOD                              0501
B2601400140691821100608**********                                               2002
B0301400530193041997001TAGUM LONGFORD COLLEGE, INC                              1602
B0301400950000002115953*************                                            1602
B2001400290315044204001ACEBANK CREDIT, INC.                                     1601
A0101408370382773323001DR.ERIC GEORGE V. CRUZ                                   0502
A0101406750852296707001SAMSON D. HECITA OR                                     10503
A0101406750852296707001JOSEPHINE R. HECITA                                     20500
A0101406750852478374039MERCY MOSLARES                                           0501
B0101400860011409861001**********                                               1603
A0101400860011410778002**********                                               0510
B0101401250000000020782NEW MABUHAY INTERNATIONAL SECURITY                      11605
B0101401250000000020782AGENCY                                                  21600
B0101401250000002763415NEW MANELA SECURITY AGENCY CORPORATION                   1605
A0101400150000003322152GLICELYN I. APO                                          0501
A0101400150061472746001CAPON, ROBERTO MACABENTA                                 0501
A0101400600071233715002********                                                 0505
A0101405810072062210001GOTAUCO, G DBU COLES TRADING                             0501
A0101405810072234635002DY, SUSANA OR DY, DANILO                                 0501
A0101405810072367597002WANG, GUO YANG                                           0502
A0101405810072400768001MONTIEL, MARILYN ESQUERRA                                0501
A0101410850109060489001DAQUIGAN, AUREA L. DBU PURITAN                          10503
A0101410850109060489001TRADING                                                 20500
A0101406040112657540001**********                                               0503
A0101413150000000038480**********                                               0501
B7201400170000003773524JUSTINIANO, MARIO L. AND DELOS SANTOS                   11602
B7201400170000003773524MARIA THERESA M.                                        21600
A7201400170152060879001RENDON, EDNALYN BACAY DBU                               10502
A7201400170152060879001FRIENDLY MOTORS REPUBLIC                                20500
B0101407270162008543001INTERNATIONAL HEAVY EQUIPMENT                           11610
B0101407270162008543001CORPORATION                                             21600
A0301400530000000065865ARASA, NICOLAS                                           0501
B0301400530000001409438GENSAN LCL TRADING, INC.                                 1603
B0101401380201006746003FIREHOUSE PHILIPPINES, INC.                              1603
B0101410720000000029792**********                                               1601
B3101400160221037479001TABLERIA LA CONFIANZA CO., INC.                          1601
B3101400160221045923001SUNRICH MANUFACTURING CORPORATION                        1610
A3101400450223491849001JAO, AUGUSTO RAZEL DOMINO                                0501
A1001400190000002170769JUGAN, NOUE MALOLOT                                      0502
A1001400190231520766205PACULBA, RONALYN NAHIAL                                  0501
A0101401670000000079270************                                             0501
A0101400570281491482001TAN, EMMA ONG                                            0501
A0101411240000000629185DELA CRUZ, LORENA PELAEZ                                 0501
A0801400160000002681729MA. FE M. FACTO                                          0505
A3401400280000003493845DEGALA, WINNIE DOLOR                                     0502
A0101405650000002325691NAOE, PATRICIA ORONAN                                    0502
A0101405650000002325515FERNANDO MARTIN D. TAN                                   0501
A0101402510000007622331BALAGTAS, KRISTILLE JOY IDAGDAG                          0501
A0101402510341200729002FERNANDEZ, JIM L. OR                                    10501
A0101402510341200729002FERNANDEZ, MARIS                                        20500
B0201400760000005156452REAL IMAGINATION HOME & GARDEN                          11602
B0201400760000005156452FURNISHINGS                                             21600
A0201400920000002804480MIRANDA, SAMMY                                           0501
B0201400890376062207001ECC SCHOOL OF GLOBAL COMMUNICATION INC.                  1601
A0201400890376080642001GALANG, LORLIE PACURIBOT OR                             10502
A0201400890376080642001GALANG, GLENN AN                                        20500
B0101408790000002659118HOWAN TEA PALACE INC.                                    1605
A0101411660000003580261MENDOZA, MARISTELA                                       0501
A0101411660000002309560RIVERA, VENUS TUMPALAN                                   0501
A0101402770000002267289FABELLA, MICHELLE MIRANDA OR                            10502
A0101402770000002267289FABELLA, DEAN NOEL MANUEL                               20500
A0101408400394508890002ORDONEZ, JULIUS CRUZ      JT                             0501
A0101408950000003171257LLORIN, RYAN MARTE                                       0503
A0101412210000005303020GEOVANNI M ALIGUAY OR CHRISTINE                         10501
A0101412210000005303020RIZZA PARAGAS                                           20500
B2401400180411036177008VERTICAL BUILDERS                                        1605
A2401400180000000019890TAN, JOSEPHINE TIONGSON                                  0502
A0901400220000000888075**********                                               0501
A0901400220000001805118**********                                               0502
A0101403030441017766001**********                                               0502
B0101403030441039990001TOPTRUCK ENTERPRISES                                     1601
A0101403030441239088001**********                                               0502
B0101406330472027929001STO. TOMAS DE VILLANUEVA PAROCHIAL                      11602
B0101406330472027929001SCHOOL                                                  21600
A0101406330472478374055ESPERANZA L. MALABOTE                                    0501
B0101410140000000038931FRONTGUARD SECURITY SERVICES CORP.                       1610
B0101412760000002068128RUFO'S FAMOUS RESTAURANT SYSTEMS, INC.                   1605
A1401400110492221706002SY, GRACE T.                                             0501
B1601400170494061553001PERFECT PITCH TECH PHILIPPINES INC.                      1602
A0101407430000000447089EMERLITA S. LLAMAS OR                                   10501
A0101407430000000447089EPIFANIO F. LLAMAS II                                   20500
A0101407430503445485001ANGELA B. CANONIGO                                       0501
A0101403580511156706024NANCY S. OROSA                                           0501
A0101405940000000061710JAZO, NOEL BELISTA                                       0502
B0101405940512020338001ANGEL LEIAIEL EXPRESS INT'L INC                          1605
B0101405940512038350001ANGELITO A. BOLANOS CUSTOMS BROKERAGE                    1604
B0101403450521011675001TORQUE BUILDERS, INC.                                    1606
B0101403450521020358001¦*********                                               1602
B0101403450521022302001**********                                               1602
B0101403450000000889698BORACAY TUBI SYSTEM, INC.                                1601
A0101403450521242339001ONG, ROBIN                                               0502
A0101403450000000889410**********                                               0501
A0101403450521690623001*******                                                  0502
A0101403610531656727001HERNANDEZ, ANNA LIZA OMALIN                              0501
A0101404000551748790001ZAMBARRANO, STANLEY CANASTILLO                           0502
A2201400250561297004045ANNA LIZA L. BAYBAY                                      0502
B0101404130601037502001JS PHILIPPINES GLOBAL CORPORATION                        1602
A0101404130601339897001DR. LESLIE V. TIU                                        0501
A0101407720602162070001DR. CLEMENTE GATMAITAN OR                               10503
A0101407720602162070001CARLOS P. GATMAITAN JT                                  20500
A0101407720602298251001GIA D. WASSMER, M.D. OR                                 10510
A0101407720602298251001MICHAEL C. WASSMER, M.D.                                20500
A0101404260000000532283UNI STOP DRUG & GENERAL                                 10501
A0101404260000000532283MERCHANDISE                                             20500
B0101409890649046783001**********                                               1602
A0101409920000001951840MEMBERS OF NATASHA (SHOECAT INC                         10501
A0101409920000001951840RAMOS, MARILYN                                          20500
A0101411530000000581464DE ASIS, ARNULFO P                                       0502
B1301400210000005041018MUNOZ, AILEEN ANDAN DBU JELLI'S GAS                      1602
B1301400210682697928001NELXYS ADMINISTRATIVE AND GENERAL                       11605
B1301400210682697928001SERVICES, INC.                                          21600
A1301400340683494629001DALOPE, GLORIA SWENSON                                   0501
A0101408240000002821912MENORCA, ROY MARKUS MARTIN                               0501
B0101408240711023600003HERSAN REALTY CORPORATION                                1604
A0101408240711226916002FONG, NOREEN CARRILLO                                    0502
A0101408240000000521771CASTILLO, JUAN MIGUEL DOMINGO                           10502
A0101408240000000521771JT                                                      20500
A0101408240711378853001EPIFANIO R. REYES                                        0502
A0101408240711525040002FLORO, MICHAEL CHAVES                                    0501
B2801400100712046914001IREC CORPORATION                                         1602
A0101412340000003344118REYNALDO D. LAYUG                                        0501
B0101404840851009292001GEMSTAR MARKETING                                        1605
A0101404840000004565862CLOTILDE P. ARROYO                                       0501
A0101404840000005820344DELOS SANTOS, MARY ELIZABETH H.                          0503
A0101404840851298552055SIXTA MELBA C. ENGBINO                                   0502
B0101406750852041203001AUTOCIRCULO CORP.                                        1610
B0101405070861038257001GREAT CRESCENT FLOUR CORPORATION                         1604
B0101416740010501011041**********                                               2001
