A4101400420000003715564SARIA, LESTER DBU DESERT QUENCH                         10501
A4101400420000003715564WATER REFILLING                                         20500
B2001400290000000020537LINK RI LOGISTICS INC.                                   1601
A0101400860011391441003**********                                               0503
A0101400860011425868001**********                                               0502
A0101400860011479962001**********                                               0502
A0101400860011541655001**********                                               0501
A0101400860000008319288**********                                               0505
A0101400860011572958001**********                                               0502
A0101400860011591125001**********                                               0502
A0101401250000002131920*****                                                    0501
A0101401250000000522449MOJAR, ANNIE MANGARING                                   0501
A0101401250000002289978TEDIOS, DECILIN SELVESTRE                                0502
B0101401250021031012001GM GALES GENERAL MERCHANDISE                             1602
B0101401250021183347002PREHEAT ENGINEERING & TECHNICAL SERVICES                 1602
A0101400150000002394738CANO, MARIA THERESA RESMA OR                            10501
A0101400150000002394738RESMA, DOMINGA ALIMA                                    20500
B0101400600071045158001*******                                                  1602
B0101405810072301363001**********                                               1603
A0601400100081358739001CHUA, IRENE ANUNCIACION                                 10502
A0601400100081358739001OR REYES, GLORIA                                        20500
A0601400100081399214001LETICIA S. SERVINO                                       0501
A0601400520000005943513BUCO, DONALD DELA PENA                                   0501
A0101413280092064057001LEONCIO LUGANOB JR. DBU                                 10501
A0101413280092064057001ATIMA ENTERPRISES                                       20500
A0101410560000001944072VALEN, ROSANA RETIG                                      0502
A0101412630000001823274TURINGAN, MARIA ELENA LASAFIN                            0503
B0101401830141026671001BRIGGS CONSTRUCTION AND GENERAL SERVICES                11603
B0101401830141026671001COMPANY                                                 21600
B0101401830141032221001CARITAS ET LABORA HUMAN RESOURCE SERVICE                11610
B0101401830141032221001COOP.                                                   21600
A0101401830141366498001GRACE I. RIVERA-JACINTO, MD                              0501
A7201400170000007876520LOPEZ, SHERYLL BALTAR OR LOPEZ,                         10501
A7201400170000007876520PHILIP JASON GARCIA                                     20500
A5001400170000000044960VILLAFUERTE, CELESTINO AMPLAYO                           0505
A5001400170000002288355LIM, LISA YU OR GO, JOJI LIM                             0501
A0101412920000000276340PALAD, AVERY JOHN CANTO                                  0502
A0101400440000004889785ELEANOR A. APO                                           0501
A0101407270000008824200MARIA CRISTINA MENDOZA                                   0501
A0101407270000007596549DIZON, DANIEL SAYO                                       0501
A0101407270162331908051VIVIAN L. ROSARIO                                        0503
A0101401090000002358767ADVINCULA, EDMUND ROJAS                                  0501
B0101401090171035731001UNIVERSITY OF SANTO TOMAS PEDIATRIC                      1602
A0101401090171198756002MARILOU OR MYLA SANTIAGO                                 0501
A0101401090171402989001SUSANA F. BALDIA                                         0501
A0101410720653402452001JONE P. LIU CHIANG OR                                   10502
A0101410720653402452001LEO VILLAVERT                                           20500
B0101413600000005524829PRO EMPIRE TRUCK BODY CORP.                              1602
A3101400450223088272001ARANGUREN, ROLAND ONTOY                                 10502
A3101400450223088272001OR AGONCILLO JR., JOSE                                  20500
A3101400450000002092980MAGHIRANG, SEVERINO A. OR                               10501
A3101400450000002092980MAGHIRANG, JEANN A.                                     20500
A1001400190231040271001ROADNET 2000 ENTERPRISES                                 0502
A1001400190231478374128BONIFACIO, LIZA                                          0501
A1001400190231478374179BACAN, JULIET                                            0501
A1001400190231520766187MONTEMOR, FE MARIE TELIN                                 0501
A1001400190231577958001GORDIEL, JAMES LESTER UY                                 0501
B1001400350233041261018CENTRO SUPERSALES INC.                                   1615
A1001400350233658661001MARILEN L. SANTIAGO OR HARVEY                           10501
A1001400350233658661001KLENT A. SANTIAGO                                       20500
A1001400480000000606780CELOCIA, WENA AUXTERO                                    0501
A1001400480000000606773BENIGA, CHARISSE SABANAL                                 0501
A1001400480000002300383GUINTO, JEAN MAGO OR GUINTO,                            10502
A1001400480000002300383NEMER SARDEA                                            20500
A1001400480000002300463GO, MARIA AMBROCIA BORROMEO                              0502
A1301400470000000472640SHERRY ANN SEVILLA RODRIGUEZ                             0501
B0101406460000000182483WEE COMMUNITY DEVELOPERS, INC.                           1605
B0101406620273017460002ACCENT MICRO PRODUCTS, INC.                              1605
B0101406620273025065001CASCADE COMMERCIAL CORPORATION                           1602
A0101406620273511657001GAYOSO, ALONA GO OR GAYOSO,                             10501
A0101406620273511657001MODESTO                                                 20500
A0101410980275771013001**********                                               0502
B0101412470000002338923YANGCO TEXTILE CENTER INC.                               1601
A0101400570281186594001MA LUISA YU OR YU PEK KIAN OR                           10501
A0101400570281186594001DAWN ISOBEL OR MILES CHRI                               20500
A0101400570281225647001YEUNG, YUEN CHING TONG                                   0501
B0101411240283062097001ALLIED FILIPINO OVERSEAS WORKERS                        11606
B0101411240283062097001INSURANCE AGENCY                                        21600
A3401400280000000784561MARY RENALIN T. LEONIDAS OR                             10501
A3401400280000000784561REYCIL T. SEVILLE                                       20500
A0101402350000003080322DANAO, LINO OR DANAO, RUFINA                            10501
A0101402350000003080322DBU L2 AUTO SHOP                                        20500
B0101402350000000655549FLAGSHIP HOLDINGS CORPORATION                            1602
A0101402510341199103002********                                                 0502
B0101402060351015284001GREEN VALLEY COUNTRY CLUB                                1601
A0201400760000000222922PELUCHI ESSENTIALS SPA                                   0501
B0201400920375036273001PROFOOD INTERNATIONAL CORP.                              1605
B0201400920375064097001L.T. BESANES TRADING CORPORATION                         1601
A0201401020000004409125SALIMBANGON, CESAR LAGO                                  0502
A0101402930381205175001DR. MARILYN D. RUARO                                     0502
A0101402930000003710483VERDOLAGA, MA. GEORGINA DE JESU                          0501
A0101408790000002031429TRONO, ROMAN DUANE OTEYZA                                0501
B0101408790383040950001REDDS CONSTRUCTION & DEVELOPMENT                        11602
B0101408790383040950001CORPORATION                                             21600
B0101408790383084533001AVISO VALUATION & ADVISORY CORP.                         1603
A0101415350000008636460JOHN KELLY FIGUERRA TAN                                  0501
A0101405490000001092524MA ANASTACIA S. DELA MERCED OR                          10501
A0101405490000001092524RAYMOND ANTHONY                                         20500
B0101405490000001092411BARANGAY SUN VALLEY MULTI-PURPOSE                       11603
B0101405490000001092411COOPERATIVE                                             21600
A0101405490392301424001ENCARNACION O. SANTIANO                                  0503
A0101408400000007264613RELLEVE, RACHELLE PLACIDO                                0501
B0101408400394027943001BEST DEAL FOOD CORPORATION                               1605
A0101408400394481923001ECHON, MARCE SERRANO                                     0501
A0101409180000005326698PAGKALINAWAN, JAMES ANGELO                              10501
A0101409180000005326698MEJIA                                                   20500
A0301400820000000316670TIONG, ARISTON D.                                        0501
A0301400820000003148467GALEOS JR., JUAN PANERIO                                 0503
A5501400120000002348325ANG, ANDY MAN CHUNG CHANG                                0505
A5501400120000006976610JAMERO, BEBINA CATALAN                                   0501
A5501400120410633077001CLAVISILLAS, JOSIE OR                                   10501
A5501400120410633077001CLAVISILLAS, RON                                        20500
A2401400180000000554938DOLERA, CANDELYN FILIPINAS                               0501
B2401400180411033403001DADIANGAS CORNERSTONE CENTER                             1605
B2401400180411276067001GAISANO DADIANGAS, INC.                                  1620
A2401400180411478374056GALINDEZ, IRENE AGCAOILE                                 0501
A1201400150000000473283SUNGA, ANTHONY FERNAND MUNSAYAC                          0503
B0901400220432043565001CASA CANELAR PENSION                                     1603
A0901400220432478374002EVELYN ALGA DEMECILLO                                    0501
A0101403030000005327588**********                                               0503
A0101403030441294299001**********                                               0501
B0101403320471036455001D.C.C. PEST CONTROL SERVICE                              1602
B0101406330472028479001TRU-SERV MARKETING CORPORATION                           1602
B0101406330472045827001PRIMARK TOOLING INDUSTRIES CORPORATION                   1604
B0101406330000000432620WESWIN CO., INC.                                         1602
A0101412760000000767762MERCADO, LORNA DIMAFELIX                                 0501
A0501400170481255325007ARZADON, VOLTAIRE PORSOVIGAN                             0501
B3801400170490058867001KATIPUNAN FOODS SERVICES, INC.                           1610
A1901400160000007556810MORALES, JEANETH ROBLEDO                                 0501
A1601400170000001360714ERNESTO C. DACOCO DBU                                   10501
A1601400170000001360714SCORVIL ENTERPRISES                                     20500
A0701400260000002339095BERNARDO JR., JAIME MIRALLES OR                         10503
A0701400260000002339095BERNARDO, CYRIL                                         20500
B0101405940000000886682SEWELLS GROUP PHILIPPINES, INC.                          1604
B0101405940512044411001STARFIRE HOLDINGS CORPORATION                            1602
A0101406880513417808001DEALINO, FARRAH OR  JOSE MARI                           10501
A0101406880513417808001DEALINO, AIDA                                           20500
A0101408530516568727001MARKING, AMADO MATA                                      0502
A0101403450000001770010**********                                               0501
A0101403450521238046001**********                                               0502
A0101403450521238267001LILY CO                                                  0501
B0101404000551024348001APPLESEED MONTESSORI INCORPORATED                        1601
A0101404000551323616002BAYONA, REX ALBOS                                        0501
B2201400250000001066153CHRIST COMMISSION FOUNDATION INC.                        1602
A2201400250561256082002JOSEPH P. CORTEZ                                         0504
A0101404130601150580001WERLE P. GALANG                                          0502
A0101404130601450078001ROBERT B. OCANA OR                                      10502
A0101404130601450078001MARJORIE OCANA                                          20500
A0101407720602498169001CABRAL-PRODIGALIDAD, PATRICIA A                          0502
A0101407720602785772001ESCUREL, CAROLINA NAGUIT                                 0503
A0101404260000000003823TUGADE, ROGELIO BAUTISTA                                 0501
A0101409920000007304787LABAO JR., RESTITUTO CASTRO                              0502
A0101407690652690023002ESTIGOY, REYNALDO CAPINPIN                               0501
A0101413570000005688071PILAR MARIA BALTAZAR                                     0502
A0101413570000004353720NAVARRO, CARMELITA VALENA                                0503
A0101413570000003380009FAH, MARIA ISABELITA DE GUZMAN                           0502
A0101406590662207039001HORTENCIA A. BUENAVENTURA OR                            10501
A0101406590662207039001MA. THERESA TAN                                         20500
B1301400340683012957001JESUS HOPE OF GLORY CHRISTIAN CHURCH                     1605
B1301400340000000011883METAMORPHOSIS SCHOOL INC.                                1605
A1701400230693635864001SORIANO, JOSE JOEY QUINTO                                0501
B0101408240000000832622ENSPIRE GLOBAL INC.                                      1601
A0101408240711395808001HERMENEGILDO P. MANZANO JR. OR                          10502
A0101408240711395808001NORMA Y. MANZANO                                        20500
A2801400230713074852001DOMINGUEZ, MARIVIC MANDADERO                             0503
A4101400390813478374021JERESANO, ASUNCION L.                                    0501
A4101400550000003267127NAVEA, A DBU VELJO ENTERPRISES                           0502
A4101400550000006044606VINYX COMPUTER SERVICES AND                             10501
A4101400550000006044606GENERAL MERCHANDISE                                     20500
A0101412340000003438771********                                                 0501
A0101404840000001312532CHICO, DIVINA DE GULA                                    0501
A0101404840851413054001EDO, NENE GURO                                           0501
A0101404840851507133001SAMONTANES, ANTONIO CANAYA                               0501
A0101404840851520766124MARGIE A. PEREZ                                          0501
A0101406750000004641656PAMARAN, GINA GALANG                                     0501
B0101406750852047058001PRIMA CASA LAND & HOUSES INC.                            1603
A01014067508526176540010SORIO, THELMA RAVELAS                                   0502
B0101405070000003417569PAJULAS, CRISTINA DBU WYAA GENERAL                      11603
B0101405070000003417569MERCHANDISE                                             21600
A0101405070861478374074PURISIMA C. STA.ANA                                      0502
A0101405070861478374086MARLYN C. GABEST                                         0502
A0601400230000000186867SAPNU, D DBU D.L.S.J GLASS ALUM                          0502
A0601400230000002650171SANTOS, K DBU ADRICH ENTERPRISE                          0502
