F0601400100000007185073GARDEN DINE RESTAURANT INC.                              2603CK1
F0101406620273022308002BALGOS GUMARU FALLER TAN &                              12603CKR
F0101406620273022308002JAVIER LAW OFFIC                                        22600CKR
F0201400760374050546001MANASTEEL CONSTRUCTION MANAGEME                         12503CKO
F0201400760374050546001CONSULTANTS                                             22500CKO
F4101400260812031790001SY ON INC.                                               2610CKO
