B0101402770391821100608**********                                               2005
B0101414120658821100608**********                                               2002
A1901400290261478374029CRISTINA BITUIN LORIA                                    0501
B1901400290000007876746SPOUSE OF THE BLESSED VIRGIN HOSPITAL                   11603
B1901400290000007876746CORPORATION                                             21600
A1901400290000004366085CUENCA, NINA ANGELINA TANCHANCO                         10505
A1901400290000004366085DBU CUENCA JEWELRY                                      20500
A1901400290261323396001VERONICA PEREZ CADAVONA                                 10503
A1901400290261323396001OR RONALD M CADAVONA                                    20500
A1901400290261093134001JOY PANALIGAN KATIGBAK                                   0502
A1301400760000000869890PAEZ, SARAH CONCEPCION                                   0501
A1901400290261478374009LEILA LUMANGLAS OLAVE                                    0502
B0101406590000000035594SAYSON COTTAGE INDUSTRIES INC.                           1603
A0101406590662084373001ROA, MA. MARGARITA SANTOS                                0502
A0101413310000005433352ANGCO, JULIE ANN MOJICA OR                              10502
A0101413310000005433352ANGCO, KELVIN AN                                        20500
A0101400440161022597001PHILMAN POWER CENTER INC.                                0512
A0101400440000000060200LANIE C. BALISONG                                        0502
A0101400440161525001139JEMARIE S. SALUDAR                                       0501
A0101413020000003353791SHIPLEY, RICHARD DEAN                                    0501
A0101408370382209650002DR JULIETA P ARAMBULO OR                                10505
A0101408370382209650002DR MIGUEL R ARAMBULO                                    20500
A0101408370382431306001DR MARICAR L SAN BUENAVENTURA                            0503
A0101408370382445179001********                                                 0501
A0101412890000007095750ANGELES, CRISTINA DBU INTERIOR                          10502
A0101412890000007095750PERSPECTIVE MARKETING                                   20500
A0101406590662487808001MARY CAESARYLE S. GENATO OR                             10501
A0101406590662487808001ADRIEL MEYNARD A GENATE                                 20500
A0101400860011388350001**********                                               0505
A0101400860011393568001***********                                              0502
B0101400860011581564001**********                                               1601
A0101400860011605108001**********                                               0503
A0101401250021180940001DOMINGO, LAURA S. OR                                    10506
A0101401250021180940001DOMINGO, EDWIN V.                                       20500
B0101400150000001708425INTELUCK CORPORATION                                     1602
B0101400150061009769001KEYLAND CORPORATION                                      1620
B0101400150061010997001EASTWIND GARMENT MANUFACTURING CORP.                     1602
B0101400150000000052855SOLID MILLS CONDOMINIUM CORP.                            1603
B0101400150061030906001SM DEVELOPMENT CORPORATION                               1602
A0101400150061039916081LEBIN, BLACITA                                           0501
A0101400150061039916084LESAVA, LEONILO                                          0501
B0101400150061044842001TULLET PREBON (PHILIPPINES) INC.                         1601
B0101400150000000052902228 ORTIGAS AVENUE CONDOMINIUM CORP                      1603
B0101400150000004090260LEGASPI VILLAGE LAND PROPERTIES, INC                     1605
B0101400150061227269001BLUE SPHERE PROPERTIES INC.                              1603
B0101400150061228498001SECURITY LAND CORPORATION                                1605
B0101400150061228665001MALAYAN TOWAGE AND SALVAGE CORPORATION                   1610
A0101400150061302188001PAULINO-LEMIE M. ESCABARTE                               0501
A0101400150061422618001JORDAN M. PIZARRAS OR                                   10505
A0101400150061422618001MARIVIC M. PIZAR                                        20500
A0101400600000000007707**********                                               0505
A0101400600071233721001**********                                               0502
A0601400100000005050264ADINO, TITO ADAO                                         0501
A0601400360000004915340SARMIENTO, HAYDEE RUELOS                                 0501
A0601400520000002085930GUEVARRA, MARIA TERESA VIRAY                             0501
A0101413730000007317280YAP, LOUIE RICHIE ANDO                                   0505
A0101413730000000144761****************                                         0502
B0101400730111019776001TRAVELFAST INTERNATIONAL                                 1601
B0101400730111036857001FRC SULO RIVIERA HOTEL CORPORATION                       1606
A0101400730111198710001FERNANDEZ, HENRY F. OR                                  10502
A0101400730111198710001FERNANDEZ, AMELIA                                       20500
A0101401960000004419818**********                                               0501
A0101413150000000038526******                                                   0502
A0101413150000000082700******                                                   0501
A0101401830000006839241CIRIACO C. PASTRANA JR. OR                              10502
A0101401830000006839241EDMUNDO B. CADAVONA                                     20500
B0101401830000000033605CARITAS SALVE CREDIT COOPERATIVE                        11605
B0101401830000000033605(QUIAPO-005)                                            21600
A0101401830141366498001GRACE I. RIVERA-JACINTO, MD                              0501
A0101401830141410817001AMBUYO, AMANDA DIMAPILIS                                 0502
A0101401830141526215001DE LOS REYES, THELMA REMOS                               0501
B7201400170000006487785LADLAD, EMSA BANA                                        1601
B7201400170000003773637MDSDOC CORPORATION                                       1601
A0101412920000011166646PARADA, LEONARDO ANGELES                                 0502
A0101400440000009591922MANLAPAS, NELLY TURANG                                   0501
A0101400440000009896300TABORA, HAZEL TEJONES                                    0501
A0101400440161466113001CATHERINE E. CABACHETE                                   0501
A0101407270000003254253SPIRO L. CLEMENTE                                        0501
B0101401090171008456001UST-USTFU FACULTY HOSPITALIZATION FUND                   1605
A0101401090171201345002MA. CECILIA OR RAMIL TIO CUISON                          0502
A0101401090171310764001PURISIMA OR CESAR CASTILLO                               0501
B0301400530000011715303MUNEZ, GRACE SULLANO                                     1601
A0301400530000011432823SALADAGA, , RADSNIE BINGIL DBU                           0506
B0301400660194014140088DAVAO HONDA CENTER, INC.                                 1604
B0301400660000006755133CINDERBLOCKS TRADE & SERVICES, INC.                      1602
B0301400790000000435705REFCON SYSTEM NETWORK SOLUTION, INC                      1606
A0101413020000002292720*********                                                0501
A0101412500000005300521VILLASENOR, VINCI NICHOLAS RIVE                          0501
A0101412500000008919304LIM JR., LOWELL HOLDER BANGAYAN                          0501
B0101412500214056030001CBL FOODLINE TRAINING & CONSULTANCY                     11601
B0101412500214056030001SERVICES                                                21600
A3101400870000008979920PAGKALINAWAN, EDGARDO ORUGA                              0503
B1001400190231062184001PAQUINOL, GERRAMAE REVACA DBU JAFRENCE                  11602
B1001400190231062184001OR PAQUINOL, JEN                                        21600
A1001400190231520766020LUBIDO, CAROLINE JARALES                                 0501
A1001400190231520766187MONTEMOR, FE MARIE TELIN                                 0501
B1001400350233038141088LIMKETKAI HOTEL & RESORT CORPORATION                     1601
B1001400350233038142008LIMKETKAI SONS, INC.                                     1601
A1001400350233478374026ANNABEL ESTOMO                                           0501
A1001400480000010131721TAN, OLIVER MACASERO OR TAN,                            10505
A1001400480000010131721LYDIA                                                   20500
B1001400480000000041465RAC COMMERCIAL CORPORATION                               1601
A1301400470000001299130ANDREW P. MANGIDUYOS                                     0502
A1301400760000002346129JIMMY C. CENA                                            0502
B1901400290261023450001INNOVATRONIX INC.                                        1601
B1901400290261040973001ICT-ED INSTITUTE OF SCIENCE AND                         11602
B1901400290261040973001TECHNOLOGY, INC.                                        21600
B1901400290000000030800JMARK MICROCREDIT CORPORATION                            1605
A1901400290261057642002CUENCA, NINA ANGELINA TANCHANCO                         10502
A1901400290261057642002DBU CUENCA JEWELRY                                      20500
A1901400290261250069001DRA. JABES BUCE CARRASCOSO                               0505
A1901400290261339478001GLORIA M ARCEGA                                          0506
A1901400290261393168002JUAN MIGUEL PLATON CUENCA                               10502
A1901400290261393168002OR ZENAIDA PLATON CUENCA                                20500
A1901400290261606931001VICENTE KEH AFRICA JR.                                   0505
A0101401670271188447001PAVES, ANITA OR VELASCO,EDGARDO                         10502
A0101401670271188447001OR VELASCO, EMMANUEL                                    20500
A0101401670271405179001EMMANUEL OR VIRGILIO OR                                 10501
A0101401670271405179001EDGARDO VELASCO                                         20500
B0101406620273009619001FILMAL REALTY CORPORATION                                1606
A0101406620000009018662AGUILAR, ANNA THERESA CASIO                              0502
B0101408660000000034288C.WALTER COMPANY, INC.                                   1602
B0101408660000000373131CHEEZCAKE COMPANY, INC.                                  1602
A0101408660000002264882GO, LESLIE PE                                            0501
A0101411240283087798001NEPOMUCENO JR., JOSE APOLLO                              0504
B1101400120313022546001POWER ALLIANCE CORP.                                     1610
B1101400120000000652880YAO, ANTHONY ROBERTSON GO AND YAO, MARK                 11605
B1101400120000000652880ALAIN GO                                                21600
A6601400120314042312003NORSAM BUILDERS & CONSTRUCTION                          10502
A6601400120314042312003SUPPLY                                                  20500
A6601400120000005710630DY, FREDERIC JAN TUBELLO                                 0502
A6601400120314733489001REBADULLA, BERNARDA BALDOMARO                            0501
A3401400280000003309311ARCENAS, HANNAH ROSARIO ORLEANS                          0501
A0101402350321183614001TAJON, ANSELMA B.                                        0502
A0101405650322388029001REYES, MARIA CRISTINA V. OR MA.                         10501
A0101405650322388029001SOPHIA OR MARIE MEDIATRIX                               20500
A0101402510000000049329UNICARE DENTAL, MEDICAL TRADING                         10501
A0101402510000000049329CORPORATION                                             20500
A0101402510341199632002ANA LIZA R. DELA CRUZ OR                                10504
A0101402510341199632002ANTONIO T. DELA CRUZ                                    20500
A0101402510341331222002ERLINDA C. RECOCO                                        0501
A0101402060351405816001**********                                               0501
A0101409050000006986716PARAGAS, LEAH PATRICE BORJA                              0501
B0201400760374046036002SAM SOWAH SHIPPING CORPORATION                           1602
B0201400760374046036004SAM SOWAH SHIPPING CORPORATION                           1602
B0201400760000000033303SAM SOWAH SHIPPING CORPORATION                           1602
B0201400760000000033321SAM SOWAH SHIPPING CORPORATION                           1602
A0201400920000011194073REINA, MOZART VILLARICA                                  0501
A0201400920000005323499REINA, MOZART VILLARICA                                  0502
B0201400890376045807001**********                                               1640
A0201401020000005250691PANGATUNGAN, ALEMODEN AYING                              0502
B0101408790383040734002RADIOWEALTH FINANCE COMPANY, INC.                        1610
A0101415350000012008170JUAN ARMANDO V. ROJO                                     0501
A0101402770000009722892BACCOL, JENNIFER GAGUI                                   0501
A0101402770391046569001BHOP ACCOUNTING & TAX SERVICES                           0502
B0101408400394039516001TEKONTROL INC.                                           1602
A0101408400394492830001MENDOZA IV, JUANITO PALARCA                             10501
A0101408400394492830001OR MENDOZA, NOEMI C.                                    20500
A0101408950000003439143VILLARTA, MARIA                                          0501
B0101408950396040482001PHILIPPINE BOARD OF ORTHODONTICS, INC.                   1602
A0101408950000011434596BASCO, MARVIN DIZON OR                                  10502
A0101408950000011434596BASCO, ELLEN GRACE SIMON                                20500
A0101409180397280451001AILEEN ANN Y. CHEUNG                                     0501
A0301400820000002106161ONTOLAN, MYRNA M.                                        0501
B5501400120410034944001STARBRIGHT OFFICE DEPOT, INC.                            1610
A2401400180000005536712CALERO, MARIA JOCELYN SUNIO OR                          10502
A2401400180000005536712CALERO, FERNANDO                                        20500
B2401400180411044855001GOLDEN ATLANTIC MERCHANDISING                            1605
A2401400180000010066398GACETA, DAVERICK CUARESMA DBU                           10502
A2401400180000010066398DAVICK FARMS                                            20500
A1201400150000011167223LELINA JR., WILFRED WAKIT                                0501
A0901400220000002300845LIM, RENEEROSE VESAGAS                                   0502
B0101403030441012051001**********                                               1605
A0101403030441393652001**********                                               0501
A0101406330000000162616LAND OF THE PROMISE TRUCKING                            10505
A0101406330000000162616SERVICES                                                20500
A0101410140000001940063ARCENAS, CRESENCIA (MEMBERS OF                          10502
A0101410140000001940063NATASHA (SHOECAT                                        20500
B0501400170481025398002COSTSAVER'S SUPERMARKET, INC.                            1603
A1901400320000000679114AMARIE ASI RAMIREZ                                       0501
A3801400170000011559803ILAGAN, ANABEL GARGULLO                                  0501
A1401400110000005181146DIASANTA, IVAN VILLAMAYOR                                0503
B1401400110492046339002******                                                   1625
A1601400170000009954232DELGADO, EMMANUEL LIWANAG                                0501
A0701400260000001804688DY PRIETO, MELODY NGO OR                                10501
A0701400260000001804688DY PRIETO, ANGELO LIM                                   20500
B0101407430000008901326CERILO C. CATALAN DBU CERILO'S CATERING                 11606
B0101407430000008901326SERVICES                                                21600
A0101403580000010176980GAMBOA, MARC PAUL NICOLLETTE EN                          0502
A0101405940000005359902YU, HENRY LEE  OR                                       10502
A0101405940000005359902YU, CATHERINE                                           20500
A0101405940000005359333TIU, BARBARA APRIL CUE                                   0501
B0101405940512036113001MFC BISTRO FOODS CORPORATION                             1605
B0101405940000005359720UNITED GATEWAY BUILDERS INCORPORATED                     1603
A0101405940512366890001RAFAEL R CASTILLO                                        0501
A0101408530516593577106ABHISHEK, ANAND .                                        0501
A0101408530516593577107PESQUERA, RONNIE JACOB BERBALDE                          0501
A0101408530516593577108ALFONSO, NIKA VIEL SUPE                                  0501
A0101408530516593577109FREINO, DARWIN LAYAS                                     0501
A0101408530516593577110ANGUE, RICKY PASCUA                                      0501
A0101403450521239921088*********                                                0505
A0101403450521383834001**********                                               0505
A0101403450521526933001**********                                               0502
A0101403610000012324428******                                                   0501
A2201400250561478374006ANGELINA P. QUIBALLO                                    10501
A2201400250561478374006MEMBERS OF NATASHA                                      20500
B0101404130601542506001ELEV8 TRADING AND MARKETING CORPORATION                  1603
A0101407720000000112170VILLENA JR., CONRADO MENDOZA                             0502
A0101412180000001234202MALIWANAG, DENNIS ATIENZA                                0501
A0101409890000006813038DE JESUS, WILTON DBU WILCHAT MA                          0501
A0101409920000000998683MEMBERS OF NATASHA (SHOECAT INC                         10501
A0101409920000000998683AJETO, MERCY L.                                         20500
A0101413570000009020039MANALASTAS, NATHAN JOSEPH REFUE                          0501
A0101413990000006768627RODRIGUEZ, BENJAMIN ESTRADA                              0501
A0101413990000010422101GAETOS, JOHN ALLYSIUS DUCAY                              0501
A0101413990657478374014LABTIC, DULCE D.                                         0501
A0101414120000000398870JAY CRISTOPHER DELA CRUZ                                 0502
A0101414120000000398892A.R.P. TRUCKING                                          0502
A1301400500000000213425ERIKA AUBREY H. DIMAPILIS                                0501
A1301400500000000213403CHOLLO TRANSPORT                                         0505
A1301400500000003070139SUGAR DADDY MARKETING                                    0502
A1701400230693478374015FERNANDEZ, FEMA L.                                       0501
A1701400230000008555197TAN, LINA KENG                                           0503
B0101408240711030503001ROMLEON INTERNATIONAL, INC.                              1602
A4101400260812574500001LEONCIO P. LIWANAG                                       0502
A4101400390813017514001PRESTIGE AUTO CARE                                       0501
A4101400420000009270617ARAO, MARY ANN OBANI                                     0501
A4101400420814520766066PLAGA, SOLEDAD S.                                        0501
A4101400420000002345280ACOL, FELOMINA ADOAN                                     0502
A4101400550000004847070MULOK, LOMALA MACOTE OR                                 10501
A4101400550000004847070MULOK, RASNIE RA                                        20500
A0101412340000003438555DE LUNA, FREDERICK VELASCO                               0501
A0101412340850084786001MIRACLE GRACE S. DUMIP-IG                                0501
A01014048408510467250280ENERALES, RHODA ALTEZ                                   0502
A0101406750000010508846FANDIDA, MARTINA NIANGO                                  0502
B0101406750852709702001DAFARM CORPORATION                                       1602
A0101406750852728177001GARCIA, MARITESS DELA CRUZ                               0501
A0101405070000011795698FERRER, JOHNALYN GEMINO                                  0501
B0101405070000000260331SAISEI TAXI TRANSPORT INC.                               1602
A0101413860000007110152GONZALEZ, VERONICA SANTOS                                0504
A0601400230891474724001CATHERINE O. TAN OR                                     10501
A0601400230891474724001ABELARDO C. TAN                                         20500
