A0101408370000000014513**********                                               0502
A0101410560000000020140REYES, JONALYN ANN ACUPAN                                0501
A0101401830000000033729ABEJAR, SUSAN GAUNA                                      0501
A2801400230000000063061JAMAJI, ROWENA ANGEL                                     0501
A3001400130000000068211BATTAD, ARNULFO RICAFORTE                                0501
A0101404840000000122590DIVINA CRYSTAL                                           0501
A0101400440000000337579MAYETTE V. PESAYCO                                       0501
A1601400170000000421241LEGAZPI ISUZU CENTER                                     0503
A0101405650000000525751ZAFRA, APRIL ROSE PENALBA                                0501
A0101412500000000739635CRUZ, ANNA MARIE CRUZ                                    0502
A0101405650000000772981DUENAS, MARILYN CEPEDA                                   0501
A0101401380000000791993********                                                 0503
A0101403450000000889363ARES, MICHAEL ERNE                                       0501
A0101411370000000903553CASEL, LILIBETH DE BELEN                                 0502
A0101411370000000903611RAMIREZ, MARISSA MARTINEZ                                0502
A0601400230000000990063**********                                               0505
A0101401090000000993422SIA, DEXTER JOHN CAMACHO                                 0501
A2601400270000001009130ROY ALLAN W. MOLINA                                      0501
A0101412340000001017587ENCARNACION, RACHEL MARCELO                              0501
A0101402480000001099594**************                                           0505
A0101402480000001099798****                                                     0501
A0601400520000001120385BANAG, ESMERALDO PINEDA                                  0501
A3001400130000001261205UY, JEZREL GILSANO                                       0501
A0101407560000001276251***********                                              0501
A0101404840000001312521GALLOR, EMMA                                             0501
A0601400520000001349617TIATCO, LIRNA PINEDA                                     0502
A0101411530000001393660**********                                               0503
A0101402480000001561980*********                                                0501
A2801400230000001734743GONZALES, MARIA ROSARIO CALINAO                          0501
A0101408820000001766674FUENTES, JOAN REBANA                                     0501
A0101403320000001802999CELEBRITY CONSTRUCTION                                   0506
A0101407560000001835092TI, MICHAEL PINEDA                                       0501
A0101402480000001927802***********                                              0503
A0101410140000001939819MEMBERS OF NATASHA (SHOECAT INC                          0501
A0101400440000002034913CLARICE PORRAS                                           0501
A1301400500000002063849SOLITA A. BAYAN                                          0502
A0101414120000002172505EUGENIO JR, BENJAMIN BALASUELA                           0503
A0101413570000002249356**********                                               0501
A0101410720000002283974LLORANDO, DIVINA IMPERIAL                                0502
A0101407560000002307604OROGO, TERESITA SANTOS                                   0502
A0601400100000002365368REGULACION, J DBU JAJEJI MINIBA                          0503
A0101405650000002960810LIMCAOCO, RAFAEL ACUNA                                   0502
A0101400150000003141339ESMIRO, ALEJANDRO SURIO                                  0501
A0101412340000003340821ZARINA S. ARAQUE-AGORILLA                                0501
A0101412340000003341368JENNIFER B. BUENCONSEJO                                  0501
A0101412340000003341379MICHELLETTE B. BUENDIA                                   0501
A0101412340000003341988FATIMA ROSE T. COJUANGCO                                 0501
A0101408110000003438082CARLIZA G. PULIDO                                        0501
A0101400150061341283001DIAZ, CYNTHIA MARTINEZ                                   0501
A0101400150061354288001CORAZON G. TAGLE                                         0501
A0101400150061391947002MONTINOLA, JOSE MA. GO                                   0501
A0601400100081023131001ADYR TRADING                                             0506
A0601400360083576587001ANICIETE, NOEL DABU                                      0502
A0101400730111042129002JONATHAN P. ALVARADO                                     0502
A0101400730111377984001LEGASPI, JULIETA CABRAL                                  0502
A0101401960121348042001YAP, HELEN SY                                            0502
A0101401960121414572001**********                                               0502
A0101400440161039572068REA S. BRIONES                                           0501
A0101400440161040977001JKRFG UPGRADE ENTERPRISE                                 0505
A0101400440161683113001ETHEL D. ARBOLEDA                                        0501
A0101401090171200336001MATEO R. BAGSIC                                          0504
A0101401380201313149001JAIME R. ALANO                                           0501
A0101401380201315884002VELUZ, MONTGOMERY CUNETA                                 0501
A0101401380201371534001JOSIE ASANON                                             0502
A0101401380201554626001BANGURAN, MYRNA BRINGAS                                  0501
A0101401380201689783001CONCEPCION, MAREEN RUFFY                                 0501
A0101400310211295755007******                                                   0501
A0101400310211295755010******                                                   0501
A0101400310211295755011******                                                   0501
A3101400160221556308001ROSALIA E AGBAYANI                                       0501
A3001400130230094974001BRAVO, ROSEPT EBARLE                                     0503
A1001400190231464454001EMATA, EDGAR CHIANG                                      0502
A1001400350233478374001JUNIO, ROGELIA A.                                        0501
A0101406620273357236001GABRIELE G. BOSCHI                                       0502
A0101406620273720692001******                                                   0502
A3401400280318478374004MELANIE B. BALDOMERO                                     0502
A0101402480331020937001**********                                               0503
A0101402480331227537001****************                                         0503
A0101402480331336744003****                                                     0501
A0101402480331520766027CABRELA, SUSAN PANOTES                                   0502
A0101408820333478374065CATHERINE P. HONRUBIA                                    0501
A0101402510341331222002ERLINDA C. RECOCO                                        0501
A0101402060351211783001LUISITO &/OR EMILIA BERNARDO                             0505
A0101402770391013439001JIREH'S CAR PAINT SHOP                                   0502
A0101402770391478374023MA. LUISA L. FELIPE                                      0501
A0101408950396163482001KASILAG, RAYNATO R.                                      0502
A0101408950396493204002DE VERA, JANIS ANN ESPINO                                0501
A1201400150421253798002KUMAR, SUNIL                                             0505
A0101403030441317676001**********                                               0503
A1901400160491522606002AUREA C JAVIER                                           0501
A0101403450521233116001**********                                               0501
A0101404000551658710002ANGLO, ROWENA ANGELES                                    0501
A0101404130601237439001ANCHETA, MIRAFLOR PEREZ                                  0501
A0101407720602466238001EDUSMA-DY, REGINA TAN                                    0502
A0101404420631478374128MELINDA A. DELOS SANTOS                                  0501
A0101410720653768067001DELOS REYES, MA. ERIKA WONG                              0501
A1301400340683501003001GO, LLOYD CHUA OR CHERYL B GO                            0502
A0101407560686204299002RYAN A. LIM OR WENDY LIM                                 0505
A0101407560686290317003SARA JANE L. BELTRAN                                     0502
A0101407560686478374067SHERLITA T. FERNANDEZ                                    0501
A0101407560686728447001********                                                 0502
A2801400230713074852001DOMINGUEZ, MARIVIC MANDADERO                             0503
A4101400420814478374009FELOMINA PERICO                                          0501
A4101400420814520766017ALAVA, JOSEPHINE D.                                      0501
A4101400550815047816001VILLANUEVA, MELANIE AWATIN                               0501
A0101406750852478374098JOCELYN ARBOSO                                           0501
A0101406750852529156002DONGUINES, FLORDELIZA EULLARAN                           0502
A0601400230891527965001BUCAD, SUSAN NUCUM                                       0501
A0101402510000000049329UNICARE DENTAL, MEDICAL TRADING                         10501
A0101410720000000234860AROMIN JR., BENJAMIN DOMO OR                            10502
A0101412180000000259501CABEBE JR., BER DBU B. CABEBE                           10504
A0101410300000000919648TAGUDAR, RONETH V. DBU PET TRUC                         10505
A0101414120000001142790MAGHUYOP, ROMINIA BERNARDINE                            10501
A0101407270000001597204ARMANDO Z. CERNARDO OR                                  10501
A0101407270000001597226EDNALGAN, DARIO                                         10501
A0101403320000001803145GARGARITA, ROBERT OR GARGARITA                          10501
A0101400150000002394932FORTEA, ROMEO B. OR                                     10501
A0101401250021183841001ONOFRE JR., PACIFICO DELA CRUZ                          10502
A0101400150061226158001LUCY Y. DY OR                                           10501
A0101400150061417371001FELICITAS CASTILLO OR                                   10502
A0101400730111196336001CHAN, ILDEFONSO M. OR                                   10502
A0101401090171195733001JOEHANNA KHO NGO OR                                     10502
A0101400310211054567001SIA, JENNIFER DBU GLOBAL PROMO                          10505
A0101401670271611836001ERNEST LAUREL B ARCILLA OR                              10501
A0101408660274521676001MABASA, CARISSA MOONYEEN S. OR                          10502
A0101402060351039707001GJD CARGO FREIGHT FORWARDING                            10502
A0101408110515366914001JOSE PAULO P. LORENZO OR                                10503
A0101407720602396596001DR. REGINA MACALINTAL-CANLAS                            10505
A0101402510000000049329CORPORATION                                             20500
A0101410720000000234860AROMIN, MARISSA                                         20500
A0101412180000000259501ENGINEERING AND CONSULTIN                               20500
A0101410300000000919648KING SERVICES                                           20500
A0101414120000001142790HERRERA                                                 20500
A0101407270000001597204EMMA L. CERNARDO                                        20500
A0101407270000001597226DBU: STAR APPLE PRODUCTIO                               20500
A0101403320000001803145RICHA SUZETTE                                           20500
A0101400150000002394932FORTEA, NATASSIA                                        20500
A0101401250021183841001OR ONOFRE, MARIETTA                                     20500
A0101400150061226158001ANASTASIA Y. DY                                         20500
A0101400150061417371001MA. ASUNCION PANGAN                                     20500
A0101400730111196336001CHAN, VALORIE F.                                        20500
A0101401090171195733001WILLIAM NGO                                             20500
A0101400310211054567001& DISPLAY CONCEPT                                       20500
A0101401670271611836001IRENE ROSE R ARCILLA                                    20500
A0101408660274521676001MABASA, GERARD Q                                        20500
A0101402060351039707001CO.                                                     20500
A0101408110515366914001MA. PILAR P. LORENZO                                    20500
A0101407720602396596001OR DR. MANUEL CANLAS                                    20500
B1301400470000000009561FUND LINK CREDIT & LOANS, INC.                           1602
B0101407140000000015118**********                                               1601
B0501400200000000035710GOLDEN DRAGON MOTOR SALES CORP.                          1601
B0201401020000000042333PHILIPPINE CEBU POULTRY FARM CORPORATION                 1601
B01014024800000000456011 SOHO DESIGN CORPORATION                                1610
B0101406620000000194041ZIOSOFT INC.                                             1601
B0101405650000000772743BF FEDERATION OF HOMEOWNER ASSOCIATION                   1601
B0101406620000000962403GEOWORKS INTERNATIONAL CORPORATION                       1603
B0101402480000001562027************                                             1610
B0101400310000001621658CHOACHUY, REYMONT DBU RJTC REALTY                        1603
B0101414120000001984245CEMHAUL, INC.                                            1601
B0101412760000002068060SUPERV BUSINESS MANAGEMENT INC.                          1603
B0101400150061009769001KEYLAND CORPORATION                                      1605
B0101400150061033285001D' LUCKY ACE DEVELOPMENT CORPORATION                     1601
B0601400100081251751005TAN, WILFREDO MANARANG          JT                       1601
B0601400100081387015002KWONG JR., WILLIAM OR KWONG, WILLIAM                     1602
B0101407270162008369001NMS CONSTRUCTION COMPANY                                 1604
B0101401380201034271004LC BUILDERS AND DEVELOPERS, INC.                         1604
B0101400310211047121001CLEOMEDICS INC.                                          1601
B0101400310211054220001SALAZAR, GAYSLE DBU GBS ENTERPRISE                       1605
B0101406620273017284001ACCENT MICRO TECHNOLOGIES, INC.                          1605
B0101408660274035634001CLARISSA RACELIS-FELICIA DENTAL OFFICE                   1601
B0101402480331010348001**********                                               1610
B0101402480331010350001SUNGLOBE ENTERPRISES                                     1603
B0101402480331017442001*****                                                    1601
B0101402480331020232001******                                                   1601
B0101402480331022633002***********                                              1601
B0101402480331024060001BIO-PHARMA INDUSTRY CORP.                                1601
B0101402480331031876001******                                                   1610
B0101402480331034340088**********                                               1601
B0101402480331034497001*******                                                  1601
B0101402480331366487001******                                                   1601
B0101402480331633610001**********                                               1601
B0101408820333021833001PTFC REDEVELOPMENT CORPORATION                           1605
B0101402060351015284001GREEN VALLEY COUNTRY CLUB                                1601
B0101409050352043882001NONITO SHOES AND BAGS SUBCONTRACTOR                      1605
B0101402640361006208001VILLAGERS MONTESSORI SCHOOL OF Q.C.                      1602
B0101412760476048068001BARBOZA JR., GAUDE DBU GAB MANP                          1601
B0501400170481018109001*********                                                1602
B0101408530516026161118DIGITAL ISYS CORPORATION                                 1601
B0101403450521012075001**********                                               1605
B0101403450521021842005WALL VISION CORPORATION                                  1605
B0101404130601022494001CARE BEST INTERNATIONAL, INC.                            1604
B0101404130601100142001FOOD INDUSTRIES, INC.                                    1603
B0101410300663044402001******                                                   1604
B1301400340683023491001EMPRESS CHEMICAL INDUSTRIES, INC.                        1602
B0101408240711721986001ST. JAMES COPA FOUNDATION, INC.                          1603
B0101404840851009292001GEMSTAR MARKETING                                        1605
B0101404840851042694001YILIN FASTFOOD VENTURE INCORPORATED                      1605
B0101406750852034933001HYUNDAI ALABANG INC.                                     1605
B0101413310000001928890BAYNO, ROSALINDA OR BAYNO JR.,FELIFE DBU                11601
B0601400100081256915005KWONG, WILLIAM G. OR                                    11603
B0601400100081256915011KWONG, WILLIAM GONZALES OR ANTONIO                      11602
B0101401090171036158001AIRBORNE MAINTENANCE AND ALLIED                         11602
B3101400160221039189001SPRINGDALE GARDENS HOMEOWNERS                           11601
B0101403320471033185001VILLA RONAR GARDEN & RESORT,                            11605
B0101413310000001928890ZENCHI TRADING                                          21600
B0601400100081256915005ANTONIO, ADELA                                          21600
B0601400100081256915011ADELA LUBO                                              21600
B0101401090171036158001SERVICES INC.                                           21600
B3101400160221039189001ASSOCIATION                                             21600
B0101403320471033185001INC.                                                    21600
B0101411950680821100608**********                                               2002
