B0101407720000000885598EDUPRO, INC.                                             1601
A0101407720602397271001OZAETA, MA. RAMONA PABLO                                 0502
A0101412340000005566543ALARCON, ARMI KRIZELL SANTOS                             0501
A0101400600000005942969LI, HUOQIAN                                              0502
B0101400600071328360002PETER TAN OR CHARLIE TAN OR JUSTINE                     11601
B0101400600071328360002MICHAEL TAN                                             21600
B0101400600071469137001LIM, REMEDIOS C OR CHOI HOW LIAN                         1603
A1001400190000000124752LEGASPI, CAROLINA                                        0501
A1301400760000016080590AMOR P. BULANDOS OR OLIVER P.                           10501
A1301400760000016080590BULANDOS                                                20500
A0501400200000007980843LOMIBAO, RACHEL PASCUA                                   0501
A0101407720602405403001MA. LINDA E. QUEVEDO                                     0501
A0101410300000000026542********                                                 0501
A0101400860011541655001**********                                               0505
A0101401250920010000143RAMOS, LUZ DELOS SANTOS OR                              10503
A0101401250920010000143RAMOS, REYNAL SITUBAL                                   20500
A0101401250021392635001DEL ROSARIO, JAIME CHUIDIAN                              0506
A0101400150000011715001KLAA, IRENE ISIP                                         0501
A0101400150000019267486ALMONTE, JOYCE EUNICE OLUYA                              0501
A0101400150000019267577ANG GOBONSENG, EDUARDO III CATA                          0501
A0101400150000019267691DACUMOS, KARL ERNEST BAUTISTA                            0501
A0101400150000019267806GLORIOSO, IVAN GRACE OLIVER                              0501
A0101400150000019267862GOMEZ, DARREN MATTHEW WONG                               0501
A0101400150000019267982MENDIOLA, KIEV POLLYANA CORONAD                          0501
A0101400150000019268007PINTOR, MARK ANTHONY REYNANTE                            0501
A0101400150000019268081ROMBAOA, MARDY GRAGASIN                                  0501
B0101400150061041336002SUMITOMO METAL MINING PHILIPPINE                        11601
B0101400150061041336002HOLDINGS CORP                                           21600
B0101400150061227726001UNION ADVERTISING                                        1602
B0101400600071045155001TABORA KITCHEN DEPOT & GENERAL                          11603
B0101400600071045155001MERCHANDISE                                             21600
A0101405810072381557004MATEO, ANALYN CASTILLO                                   0503
A0101405810000018951643HOU, YUZHENG QIU                                         0505
B0601400100081025784001QUANTA PAPER CORPORATION                                 1602
A0101413280000005279643LIM, SUSAN DY                                            0502
A0101414090000014876301LAVINA, JEROME NARAGA                                    0501
A0101410560000013758871MAYNES, ARNOLD FERALDO                                   0501
B0101413310000015734855INNOV8 GROUP REALTY CORPORATION                          1602
A7201400170000003774367MEJOS, ANIEVER ANTEGA                                    0502
B7201400170000009673094SAMMAN, SHERMIN IGGONG OR SAMMAN, SHERRA                11602
B7201400170000009673094MAE DAMSAH                                              21600
A7201400170000007185682DIANA, MELINDA NAVARRO                                   0501
A7201400170000016139230REX ALLAN P CANIZARES OR                                10502
A7201400170000016139230RUSALYN JEANE L CANIZARES                               20500
A7201400170000016139321LABIO, RHAYAN DAMASO OR                                 10501
A7201400170000016139321LABIO, GRACE TIANA                                      20500
A5001400170000015711527YU, CHYZILL FAITH DECIERDO                               0502
A5001400170000018680749ALANO, RENO TEE DBU REAL MOTORS                          0505
A5001400170000018680852ALANO, RENO TEE DBU REAL MOTORS                          0505
A0101400440161478374076JAYNE D. BARBIN                                          0501
A0101400440161525001104EVELYN G. GARCIA                                         0501
A0101400440161525001183JUANITO P. LUSTERIO                                      0502
B0101407270000012698336PURPLE WATER GALLEON INC.                                1602
B0101407270162042614001NPI MACHINERY, INC.                                      1601
B0101407270162042615001TRENDY PLASTIC MANUFACTURING, INC.                       1601
A0101407270000001596898CLEMENTE, SPIRO LU                                       0501
B0101401090171007908003PERPETUAL SUCCOR HOSPITAL & MATERNITY                   11604
B0101401090171007908003INC.                                                    21600
A0101401090171360052001DE VERA JR., PABLITO SOLOMON                             0501
B0301400530000019276152TOCAO, PATRICIA MAE AND LI, VINA AND                    11601
B0301400530000019276152LI, DATIAN                                              21600
A0301400530000015420885BRIONES, MC LOUIE ANG DBU MLB                           10505
A0301400530000015420885PROPERTIES                                              20500
A0301400660000007029070ALVAREZ, MARITONI CRUZ                                   0501
A0301400660000006755213MINDANAO BUTCHERS & CO., INC.                            0502
B0301400790000013578128KABALIKAT PARA SA MAUNLAD NA BUHAY, INC.                11610
B0301400790000013578128(KMBI)                                                  21600
A0301400950000014676196CADSAN MARKETING                                         0501
A0101401380000000414286DE JESUS, DONNA OR BALAGA,AGNES                         10515
A0101401380000000414286OR DE JESUS, MICHAEL JT                                 20500
A0101413020000000057003********                                                 0501
A0101410720000001602131COSETENG, ANNA DOMINIQUE MARQUE                          0503
A0101410720653479613001PABLITO OR FE OR RONALD JOHN OR                         10504
A0101410720653479613001PRINCESS JOY FLORES                                     20500
A3101400450000001104112SY, MARVIN DAANTOS OR                                   10505
A3101400450000001104112SY, REMELIE ISIP                                        20500
A3101400450000008015278ENRIQUEZ, G DBU GINA ENRIQUEZ                           10501
A3101400450000008015278PROPERTY RENTAL                                         20500
A3101400450223479277001AGONCILLO JR, JOSE OR SUSAN                             10501
A3101400450223479277001CHARITO                                                 20500
A3101400450000000163506PEREZ, RAFAEL SALAMAT                                    0501
A3101400450223693053001AUSTRIA, APRYL LYNN EVANGELISTA                          0510
A3101400740000019251460NAYNES, CATHERINE MANJARES                               0501
A3101400870000005409963NATIVIDAD, ANNA LIZA DIRAIN                              0502
A3101400870000000074811ARAPAN, VIVENCIO AGUPITAN                                0501
B1001400190000002266582GAAMIL, JOE ERIC TINONAS DBU                            11601
B1001400190000002266582VICTORY HARDWARE                                        21600
B1001400350000007920876PEARSON, PILARCITA ROA AND  HEQUILAN,                   11601
B1001400350000007920876ELVIE CORTEZ                                            21600
A1001400350233478374001JUNIO, ROGELIA A.                                        0501
A1301400470000013689917CAB-DEL PAINT CENTER                                     0501
A1301400760000016080590AMOR P. BULANDOS OR OLIVER P.                           10502
A1301400760000016080590BULANDOS                                                20500
B1901400290261012868002PILIPINAS HERITAGE LENDING, INC                          1601
A0101406460000000182596DY, JOY ANG OR DY, ALLAN LAO                             0503
A0101406620000010591249NICANOR M. MONTESINES                                    0502
B0101410980000000171997FUNTOURS TRAVEL CORPORATION                              1601
A0101400570000011680863CORDERO, FORTUNE UY                                      0505
A0101400570281188687001LORGENE A. MATA OR                                      10503
A0101400570281188687001CLARISSA MATA                                           20500
A0801400160000006272897TRADIO, GERALDINE BARBARA                                0503
B0801400160311065123001FASOY, CARLOS CIRCULO DBU FASOY IND                      1602
B1101400120313043824001LOLITA HEIGHTS REALTY                                   11601
B1101400120313043824001DEVELOPMENT CORP                                        21600
A3401400280318478374002PIONELO, LENIDIE DEVELOS                                 0501
B0101402350321006710001DASMA CITYWIDE GEN MDSG INC.                             1604
A0101402350321478374013ROSALINA M. MARAVILLA                                    0501
A0101405650000006893298UNISA, DEMMAR MAGNAYE                                    0501
A0101405650000015273857BERNABE, MA. DARLYNNE ESPINOSA                          10501
A0101405650000015273857DBU MDPE TRADING                                        20500
B0101405650322024999001SUPERIOR MAINTENANCE SERVICES, INC.                      1620
A0101405650000000348903ESPERANZA F. BAYLON                                      0502
A0101405650000016904320CALILUNG, MARLO PAJEL                                    0502
A0101402510000013485975DOMINGO, XZY SHANE RIGAT                                 0501
A0101402060000009179575LAXAMANA, FRANCIS EPHRAIM OR                            10501
A0101402060000009179575LAXAMANA, KRISTINE                                      20500
A0201400760000002047401AZNAR, MA. THERESA SOLANO                                0502
A0201400920000005323386ADAMS, JASMIN RACOMA                                     0501
A0201400890376522560001SU, SEYMOUR UY                                           0501
A0101408370000013508806PANGILINAN, FERDINAND ESCUETA                            0501
A0101408370382376113001ERLINDA C. ORACION M.D.                                  0501
A0101405490000002880551MARIE GRACE BUITRE DBU CEDAR                            10504
A0101405490000002880551TREE CONSTRUCTION SUPPLY                                20500
A0101408400000001855449D'CUPBEARER ACCOUNTING FIRM                              0510
B0101408400394670981001W GLOBAL REALTY, INC.                                    1603
A0101409180000011749821MIR, JAWAD ALI                                           0501
A0301400820409093916001RACILLO, FRANK OR                                       10501
A0301400820409093916001RACILLO, MACLARA                                        20500
A5501400120000014838590SONGCUYA, PRINCESS GRACE DAJAY                           0502
B5501400120000014838794STARZEL UNITRADE MERCHANDISE CORP.                       1602
B1201400150421031870001BLESSED ASSOCIATION OF RETIRED PERSONS                   1602
A1201400150421039385001JL'S CLEAN UP JANITORIAL &                              10502
A1201400150421039385001MANPOWER SERVICE                                        20500
B0101403030441590302001**********                                               1603
B0101410140000000038931FRONTGUARD SECURITY SERVICES CORP.                       1610
A0101412760000011574673ALONDAY, VINCENT                                         0502
B0501400170481015881001TOYOTA DAGUPAN INC.-2                                    1620
A0501400170000005646197ARCINUE, MARIA RIZALYN VENTINIL                          0501
A3801400170000012458903SALVADORA, ROMEO REYEG                                   0502
A3801400170000018350051MARAMAG, MARYANVI AWARAYAN                               0501
A3801400170490783617001ARNULFO S SALVIO OR                                     10501
A3801400170490783617001TERESA R SALVIO                                         20500
B1901400160491052059003FIRST UNITED 23, INC.                                    1610
A1601400170000012410654REYNOSO, ISABEL KARINNA OR                              10503
A1601400170000012410654REYNOSO, CARLOS MARTIN                                  20500
A0701400260000014169230GAPASANGRA, MARILOU SOLINA                               0502
A0101403580000012912059HIFE, JENNIFER REYES                                     0501
B0101403580511005607002RAM FOOD PRODUCTS, INC.                                  1608
A0101403580000000383620JEROME ANDREW H. GARCIA                                  0502
A0101408530000000035925CASTRILLO, MILISA CAOIBES                                0503
A0101412050000018689500ZHU, ZHAOLEI                                             0501
A0101403450521368963001YAO, SANDRA MAE YU                                       0502
A0101403610000007124854ALVAREZ, ROMARICO TERCERO                                0505
A2201400250000012982402TANAMAL, TANY TORRES OR,                                10501
A2201400250000012982402TANAMAL, EDCHANENET A.                                  20500
A0101404130601025459001RAMOS, RONALDO B. DBU ERICMAN P                         10502
A0101404130601025459001SERVICES INC.                                           20500
A0101407720000018941901ODA VILMA COLLAMAT                                       0501
B0101407720000000885645A.F. NAVARRETE CONSULTANTS & ASSOCIATES                  1601
A0101407720602200210001EDITHA C. DIZON                                          0501
A0101407720602401503001MARIA LIZA G. FRANCISCO                                  0506
A0101407720000000510870SALUD, VINCENT CERVANTES                                 0505
A0101404260000013860027MA. SHARON FLORES REYES                                  0502
A0101407690000018479162CO, CATHERIN MASAYDA                                     0502
B0101407690652042938001SIGNWOOD HARDWARE & LUMBER SUPPLY                        1603
A0101407690652478374131TARROQUIN, NORA - DEALERS OF                            10501
A0101407690652478374131SHOECAT, INC.                                           20500
B0101413440000018280510ACLC COLLEGE OF ILOILO CITY INC.                         1603
B0101413570000009426217ATELIER CORPO FEMININO INC.                              1602
B0101406590000003007314SINAG CONSULTANCY GROUP INC.                             1601
A1301400210000005040522DELOS SANTOS, CAMILO STA MARIA                           0502
A1301400500000012913332MY EVERLASTING GRACE ENTERPRISE                          0502
A1701400230000005694186GARMA, TROY VALENTINO BALICOCO                           0502
B0101408240711026678001SAMBEL PACIFIC CORPORATION                               1603
B0101408240711027394002APT TRAVELS INCORPORATED                                 1610
A0101408240711384215003LOURDES GRACE MAPALAD                                    0501
A0101408240711511389001ESCOTE, SHERYLLIN SILO OR                               10501
A0101408240711511389001ESCOTE, ACE ANTHONY                                     20500
B2801400100000016445437ANSONY CORPORATION                                       1602
A2801400100712617292001LORENZANA, DAISY GEROCA                                  0501
A2801400230000005253316NAVARRO JR., ERNESTO SITJAR                              0503
A2801400230000014314295AQUINO, MARIA COLUMBA GARCIA OR                         10505
A2801400230000014314295AQUINO, ANTHONY ELAD                                    20500
A4101400420000014667640TWANO, JOCELYN M                                         0501
A4101400420814520766061ESTILLERO, SUSANA O.                                     0502
A0101412340000019109021CARLOS, MA. JENNIFER GONZALES                            0501
A0101406750000017168960GO, MARIFE ALCARDE                                       0501
A0101405070861369428012MARVIE U. TARIGA                                         0502
