F0101401670271029054002HEALTHWEALTH INTERNATIONAL CORP.                         2610CKO
F3101400580452455447001QUEZCA CORPORATION                                       2602CKO
F0101404260611034742001PRIME MOVER BUSINESS SOLUTIONS,                         12610CKR
F0101404260611034742001INC.                                                    22600CKR
F3201400190000001492855RECEL JR., ESTEBAN REYNON                                2505CKO
F4101400390813012636002TEJERO SERVICE STATION                                   2610CKR
F4101400390813039464007MISA, DARWIN O                                           2502CKO
