B0101405780212821100608**********                                               2010
A0101406590000002277603ARMI S. ABEL                                             0501
A0101400150061229814003**********                                               0501
B3101400870225060664001ALTECH VIALAB INC                                        1602
A3001400130000000668479CALUMPANG, CRISTOPHER NAPOLES                            0501
A3001400130000001271363PALUCA, LIZA MORAL                                       0502
A2001400290315733226002DAVID, FRANCISCO OR DANILO OR                           10503
A2001400290315733226002LINABOG, ALLAN                                          20500
B2401400180411044545001H THE 3RD CONCRETE WORKS                                11610
B2401400180411044545001CORPORATION                                             21600
A0101403320471480971001GINA T. CALABIO                                          0502
A0101403580000003311742SEVILLA, GIOVANNI ASUNCION                               0503
A0101403580000000016053MARIA CARMINA S. MESIAS                                  0508
A4101400420000004848039ALAMO, REDENTOR PURIFICACION                             0501
A4101400420000000120696CARMELA G. ROMA                                          0501
A0101400150000001708232REGIS, MANUELITO CORTES OR                              10501
A0101400150000001708232REGIS, IVY ROSE MARIANO                                 20500
A0101400150000003162507ANA CARINA G. ATORDIDO                                   0501
B0101400150061011143001ZABALETA & CO., INC.                                     1610
B0101400150061040558001CORDILLERA EXPLORATION CO., INC                          1602
B0101400150000000633094KINETIC PHILS. ELECTRICAL CONSTRUCTION                  11604
B0101400150000000633094INC                                                     21600
A0101400150061365731001BASILISA R. ROBEA                                        0505
A0101400150061564610064BUENAFLOR, MARIA GERALDINE ROSE                          0501
A0101400600071234440001**********                                               0501
B0101405810072020925003DW PLASTIC CORP.                                         1603
B0101405810072029570001PLASTIC CONSUMER CORPORATION                             1603
A0101405810000001021172PUA, C DBU MCK SCHOOL & OFFICE                          10503
A0101405810000001021172SUPPLIES                                                20500
A0101405810072234892001**********                                               0501
A0101405810072663520003***************                                          0502
A0101413730000001253343*************                                            0501
A0101410560000001944043GOODNESS & MERCY MOVERS                                 10503
A0101410560000001944043SERVICES                                                20500
A0101410560000000590545JAMIE C. MOLINA                                          0501
B0101400730111008426001COUNTRY BANKERS INSURANCE CORPORATION                    1604
B0101400730111019171001RHINE FOODS CORPORATION                                  1601
A0101400730111386485079GLYN G. HORTALEZA                                        0502
A0101400730111589333001LINACERO, MARJORIE MILITAR                               0501
A0101406040000003332954NERVES, JOSE ROLITO NAPA DBU                            10502
A0101406040000003332954JRN GENERAL MERCHANDIZE                                 20500
B0101401830141056446001GADDI DBU GREENTEK ENVIRONMENTAL ENG.                   11601
B0101401830141056446001SERVICES JT                                             21600
A0101401830000005690800MAGTALAS, GEMMA B. OR                                   10501
A0101401830000005690800MAGTALAS, JOHN GEMMO B.                                 20500
B5001400170000000169880WEE, VERNA L. AND PONCE, RECILMA N. AND                 11602
B5001400170000000169880RAMOS, CATHERINE                                        21600
A0101400440161039572058ERLINDA S. AVERILLA                                      0501
A0101407270000007429532MABUTE, PAUL JAMES MORTA                                 0501
A0101407270000007460542CRUZ, OLIVER DE LEON                                     0501
B0101407270162016355001ONWARD COMMUNICATIONS & SERVICES                         1604
B0101407270162036585002STA. MARIA INDUSTRIAL PARK CORPORATION                   1620
B0101407270162041489001******                                                   1604
B0101407270000004558390UBERDELI, CORP.                                          1603
A0101407270162407622001RONALDO S. SANTOS                                        0502
A0101401090171195155001MA. AUXILIADORA R. REBURIANO                             0501
A0101401090171312734001DE LARA, AILEEN CYNTHIA F.                               0502
A0301400530193702921168SELGAS, ROBERT U. OR                                    10501
A0301400530193702921168SELGAS, ELVIRA R                                        20500
A0301400660000000048337*****                                                    0502
B3101400160221029066001PANASONIC COMMUNICATIONS PHILS. CORP.                   11601
B3101400160221029066001EMPLOYEES' RETIR                                        21600
B3101400160221045295001PANASONIC PRECISION DEVICES PHILS. CORP.                11601
B3101400160221045295001WORKERS UNION                                           21600
A3101400450000005355517PASCO, DINAH RAQUEL                                      0501
B3101400450223040091001YAKAP AT HALIK MULTI-PURPOSE COOPERATIVE                 1602
A1001400190231520766119CABANO, BERNADITH CATIWALAAN                             0502
A1001400350000000922058ARENO, ANN JANE BUCO                                     0502
B1301400470000003270613GENEROSO D. MINOR                                        1603
A0101401670271403156001MIRANDA, CARMENCITA DIZON                                0501
A0101406620000000044000BARTOLOME, JOEMER CUYA                                   0501
B0101406620273027272004PEARL OF BORACAY LAND HOLDINGS CORP                      1602
A0101406620273215569001VIRGINIA M. RAFAEL                                       0501
A0101406620273215980002GLORIA CHOA CHUA                                         0501
A0101406620000000051021VICENTE, FROILAN PAGAYON                                 0501
A0101406620273518518001RICALDE, ROSARIO RODRIGUEZ                               0502
A0101406620273575453001*********                                               10501
A0101406620273575453001*********                                               20500
A0101408660000000523824TYW ENTERPRISE                                           0501
A0101408660274519407001ZIALCITA, MA. CRISTINA B.                                0501
B0101400570281007188002KIMURA CHAVES ENTERPRISE, INC.                           1602
A0101400570281388539028GISELA LUNA                                              0502
A0101400570281596972001RAMON F. SOLIS                                           0503
A0801400160311478374102MA. CECILIA A. AVANCENA                                  0510
A0801400160311478374103INAYAN, MERLINDA GUARDAMANO                              0501
A1101400120000006186525YU, MILDRED PENA DBU                                    10502
A1101400120000006186525YU-PLATINUM MARKETING                                   20500
A1101400120000000652351YAO, RONALD PHILIP GO                                    0501
B6601400120314042361001AGRICULTURAL DEVELOPMENT WORKERS & EMP.                 11604
B6601400120314042361001MULTI-PURPOSE                                           21600
A2001400290315044705002REMAN GLASS & ALUMINUM                                   0501
B2001400290315688888001**********                                               1610
A3401400280000000156621DELA CRUZ, LOIDA GARCIA                                  0502
B0101402350321040993001RL SOUND PLUS                                            1602
A0101402350321180985001CHIEN CHUNG HO                                           0501
A0101405650322311534001CALUBAQUIB, RUBY ENRIQUEZ                                0501
A0101402510000000200062BERNALDEZ, LIGAYA MACALINTAL                             0502
A0101402510341196514001JAIME LIM OR CHRISTINA LIM OR                           10501
A0101402510341196514001GINA LIM                                                20500
A0101402510000001025983ROSITA/MARIE STELLA NAVARRO/                            10501
A0101402510000001025983MARIO POTENCIANO                                        20500
B0101402060351033821001BUSMED ARTS, INC.                                        1605
A0101409050000000939282RULONA, ELEAZAR MALIGRO                                  0501
A0201400920375525898003DUTERTE, RANDULPH LEYRITANA                             10502
A0201400920375525898003OR STEPHANY U. DUTERTE                                  20500
A0201400890376080642001GALANG, LORLIE PACURIBOT OR                             10502
A0201400890376080642001GALANG, GLENN AN                                        20500
A0101402930381080348001FERNANDEZ, ESMERALDA CASTRO                              0501
A0101402930381478374003HADAP, MARILOU F.                                        0502
A0101408370000000014473DRA. JUDY O. FUENTES OR                                 10508
A0101408370000000014473SYGRYD MARIE O. FUENTES                                 20500
A0101415350000007451001FORTUNATO, JULIE ANN ANINON                              0501
A0101402770391013439001JIREH'S CAR PAINT SHOP                                   0502
B0101402770391015995001CLAYTON INDUSTRIAL CORPORATION                           1604
B0101402770391025432001A.C. EQUITIES, INC.                                      1604
A0101402770000000360934MENCIAS, LUIS DBU WATER                                 10502
A0101402770000000360934CONSULTANCY TRAINING&SRVC                               20500
A0101412210000000238522QUERODA, MARICRIS ILAGAN                                 0501
B0101412210399061962001WESTERNPHIL SEAWEEDS, INC.                               1601
B0301400820000007134789MADAYAW SOUTH FOODS, INC.                                1610
B5501400120410047927088YELLOW BUS LINE, INC.                                    1601
A5501400120410685210001GUINTIBANO, EDEN VILLARUEL                               0501
A0101403030441239188002**********                                               0501
A0101403030441240653001**********                                               0501
A0101412890000001765404ACUNA, SALVADOR A OR ACUNA,                             10504
A0101412890000001765404ALONA C                                                 20500
A0101403320471478374006NELIA MORALES                                            0502
A3801400170490061963001VANDA SANDERIANA'S                                      10501
A3801400170490061963001AMUSEMENT PARK                                          20500
A1901400160491244484001IRENE H BERBA OR                                        10510
A1901400160491244484001CARLOS R BERBA                                          20500
A1901400160491392399001DANTE V DIMAANDAL OR                                    10505
A1901400160491392399001DIONISIA R DIMAANDAL                                    20500
B1601400170000000497030GLOBALINK NETWORK INTERFACE INC.                         1610
A0101407430503181551001DICKSON R. ESCOLAR                                      10501
A0101407430503181551001OR MARY ANN R. ESCOLAR                                  20500
B0101406880513155494001G & O  REALTY AND DEVELOPMENT CORP.                      1602
A0101408110000000202768**********                                               0502
B0101408530516036530001TEAM GLOBAL FACILITY SOLUTIONS INC.                      1603
A0101412050000003966763DE LEON, ARTURO PUZON OR                                10503
A0101412050000003966763DE LEON, WILFRED                                        20500
A0101412050000000323602FERRER, VIOLETA MANALO                                   0502
A0101403450521360229001**********                                               0501
A0101404000551653777001AGCAOILI, ELVIRA JAVIER                                  0501
A2201400250000000141186WILFREDO N. ONG                                          0510
B0101404130000005961960SPIRALYTICS INC.                                         1605
A0101407720602378666002FILOTEO CERENO FERRER                                    0502
A0101404260000003498551**********                                               0502
B0101409920000005460602TOP-MAR METAL VENTURES CORP.                             1602
A0101413990000005252562VILLAREAL, ETHELINE GUANZON                              0501
A0101406590662338247001BANTIGUE, JOHN PAUL PANLILIO                             0501
B1301400210682492098001ALSC PROPERTY SALES AND MARKETING, INC.                  1603
B1301400340000000981933DUNGO, DOLORES LOZADA DBU DOLLY                         11603
B1301400340000000981933DIANNE GARMENTS                                         21600
B1301400340000000011894RADIANTPOWER CORPORATION                                 1601
A1301400340683512844001ABAD, RENATO DE VERA                                     0504
A1301400500684614643001PANGILINAN, PETRONILA G. OR                             10501
A1301400500684614643001PANGILINAN, RAMON C.                                    20500
A1301400500684655684001FELIZARDO, FRANCIS CAMOMOT                               0502
A1701400230000005455632BERNARDINO, RUVELYN VILLANUEVA                           0502
A0101408240711400412005MIRCHANDANI, MICHAEL OR SHERYL                          10501
A0101408240711400412005OR SHAM OR LALA                                         20500
A2801400100000002253505MENDOZA, EDELYN JOY MARCELLANA                           0501
A2801400100712021525001CONTAWE HATCHERY                                         0502
A2801400100000000188294MENDOZA, VERNIE E DBU VEJ TRADI                          0501
A2801400230713243636001PARAISO, JOCELYN A.                                      0501
A4101400550000001332427HILAGA, R DBU RGM EXHIBIT AND                           10501
A4101400550000001332427EVENTS SERVICES                                         20500
A4101400550815693134001LLANES, TUDOR HERNANDEZ OR                              10501
A4101400550815693134001LLANES, PRESCILL                                        20500
A0101412340000004360445GENVIEVE A. CAJA                                         0501
A0101412340000001017861DERECHO, VIRGINIA ALCONERA                               0501
A0101404840851298552056ROSARIO GABAYERON                                        0501
A0101404840000000085072SYREN JR., WESLEY CABRERA OR                            10501
A0101404840000000085072SYREN, ANA VICEN                                        20500
A0101404840851520766067JOSEPHINE V. GABAYERON                                   0501
A0101404840851791747001BALMES, GERVACIO OR SARADAT,                            10501
A0101404840851791747001MONICA OR GALLAG                                        20500
A0101406750852633773001MARASIGAN, RICARDO JOYAS                                 0505
B0601400230891028240001SUPER BIKES CENTER BRANCH FUND                           1601
A0601400230000002650171SANTOS, K DBU ADRICH ENTERPRISE                          0501
A0601400230000005185935SANKEM TRADING                                           0501
