F0101405780212039885001CENTRAL DIESEL CLINIC                                    2603CKR
F0101409210000002783413KAPUNAN GARCIA & CASTILLO LAW                           12601CK1
F0101409210000002783413OFFICES                                                 22600CK1
F0601400360083040826001SG ECO INDUSTRIES INC.                                   2602CKR
F0101400440161015831001M. DE LEON, INC.                                         2603CKO
F0101400570281499091001DR. EDGARDO R. CORTEZ                                    2505CKO
F0101408530516397748001MARIGOLD P. TANGCO                                       2504CKO
F0101407690652038799002HOME IN-TRUST REALTY                                    12610CKR
F0101407690652038799002DEVELOPMENT INC.                                        22600CKR
F0101413990657050489001**********                                               2502CKO
