B0101406460272821100608**********                                               2005
B0101407690652821200608**********                                               2001
A0101410300663776849001******                                                   0503
A2001400290315641895001WENCESLAO, JUNE CLEO OR                                 10502
A2001400290315641895001WENCESLAO, ANTON                                        20500
A0101409210000001294297GO, JACQUELIN TIMPUG                                     0501
A0101409210000003297574RAYMON CAYABYAB                                          0501
B0101405940000000002762MILKPACT PHILS. INC.                                     1602
A0101412340000003349502CARTER R. VELASQUEZ                                      0502
A0101400860011398777002**********                                               0503
A0101401250021478374014IRENE P. FADULLO                                         0501
A0101400150000003322443RICHARD B. VILLANUEVA                                    0502
B0101400150061018245001PERLA COMPANIA DE SEGUROS, INC.                          1602
A0101400150061227130001EDUARDO I. PLANA OR                                     10501
A0101400150061227130001OLIVER P. PLANA                                         20500
A0101400150061365021001ARTHUR P. MARQUEZ OR                                    10501
A0101400150061365021001CLARA MARQUEZ                                           20500
A0101400600071507394001********                                                 0501
A0101400600071523473001*******                                                  0501
A0101405810072234892001**********                                               0501
A0101405810072312400003************                                             0501
B0601400100081025333001TRUE NORTH MANUFACTURING SERVICES CORP.                  1610
B0601400100081253610002NG, WILFREDO M. AND AQUINO, JANET B. AND                11601
B0601400100081253610002BUAN, ROLAND S.                                         21600
A0601400100081255031002JOEL, PETER L.                                           0502
B0601400100081295398001MALLARI JR., DIOSDADO OR MARY GRACE                     11604
B0601400100081295398001FAO O2 DESIGN                                           21600
A0101410850000003503506BOLADO, CRISYEN CORONA DBU CIEN                         10503
A0101410850000003503506TRADING                                                 20500
A0101410560000001290900MANDITA, JHOAN SOL                                       0503
A0101400730000002882251PUERTO JR., EDUARDO TECSON                               0501
A0101400730111377984001LEGASPI, JULIETA CABRAL                                  0502
A5001400170000000213954LOPEZ, ISOLDE OR TAMAYO, AILYN                          10504
A5001400170000000213954OR TAMAYO, SHEENA                                       20500
A0101412920000002358990ANDEN, MAY EVANGELINE REGASPI                            0501
A0101400440000002034873ELSA C. YGOT                                             0501
A0101400440161320608001EDUARDO &/OR ZOILA DAVID                                 0505
B0101407270162044207001ELIXER MULTI-PURPOSE COOPERATIVE                         1605
A0101401090171390904001AMIE DELOS ANGELES ABELA                                 0501
A0301400660000002913157ZUNIGA, MERLYN CALLAO                                    0501
A010140138020103504200183EM ENTERPRISES                                         0506
B0101401380000001820020SOUTHERN HELEVICLE TRADING                               1601
B0101410720653022858002FOODKING CUISINE & SERVICES INC                          1602
A0101410720653478374012MYRA E. ISIP                                             0502
A0101410720653580485001VALERA, STEPHANIE BEATRIZ OLIVA                         10502
A0101410720653580485001OR VALERA, MA. FLABETH                                  20500
B0101413600000002822733JAOMING MARKETING CORP.                                  1602
A3101400450223588221002GATDULA, JAMAILA AGONCILLO OR                           10501
A3101400450223588221002AGONCILLO, SUSAN                                        20500
A3001400130000001271403xxxxxxxxxx                                               0501
A3001400130000002063554RIVERA JR., OSTRIC REYES DBU GI                          0501
A3001400130230796142001TANO, MERLINA RAGAS                                      0501
A1001400190231478374162TORAYNO, DELILAH B.                                      0501
A1901400290000001975288FLORINDA MASAS BARTE                                     0503
A1901400290261050401001DIOSDADO M CAPUCHINO                                    10502
A1901400290261050401001DBU DMC DIAGNOSTIC CENTER                               20500
A1901400290000001975404MARANAN, MERCEDITA DBU REYMER                           10501
A1901400290000001975404DIGITAL PHOTOGRAPHY                                     20500
A1901400290261244348001ROLANDO M REYES OR                                      10501
A1901400290261244348001DRA. ERLINDA V REYES                                    20500
A1901400290261298552105AIDA NABOS REYES                                         0501
A1901400290261513754001CLEA LAYCO PASTETEO OR                                  10501
A1901400290261513754001ROMULO BUJAUE PASTETEO                                  20500
A0101406460272190124002UNSON, MA. LUISA D.                                      0502
B0101406620273033463001ARL BUSINESS CONSULTANCY, INC.                           1602
A0101406620273417637001LAPUZ, ANNE SHARLYNE GOBOY                               0501
A0101406620273547486001BACANI, SENEN CARLOS                                     0502
A0101411820000004981739CONCEPCION, JONATHAN BAXTER                              0501
B0101412470000000949533ASPEN MULTI SYSTEM CORP.                                 1605
B0101400570000002104147AB1 MEGA BUILDERS INC.                                   1601
A1101400120000001920463SAITO GRAPHICS ENTERPRISES                               0501
A1101400120000003981179BALEOS JR., JOSE RONQUILLO DBU                          10503
A1101400120000003981179APEX AUTO PARTS                                         20500
A0101402350321179400001NILDA Q. APISTAR                                         0503
A0101402350321406149003********                                                 0501
A0101402510000002016773EDWARD JOSEPH M. CHUA                                    0501
A0201400920375048147001COLONIE PEST CONTROL                                     0502
B0201400890000001529642***************                                          1601
B0101402930381009107001PHILIPPINE PSYCHIATRIC                                  11605
B0101402930381009107001ASSOCIATION INC.                                        21600
A0101402930381381233001LEAH LIZETTE M. ESGUERRA                                 0502
A0101408790000006292173SY, HAROLD CHENG                                         0501
B0101408790000000599880HANSTON COMMERCIAL AND INDUSTRIAL                       11602
B0101408790000000599880CORPORATION                                             21600
B0101405490000001935651SIRIS PEOPLE MANAGEMENT SOLUTIONS INC.                   1601
A0101408950396255952001KAWASHIMA, GRACE ROSELLON                                0503
B0101409180397652693001***                                                      1601
A5501400120000002019103PENDON, VENISE NICHOLE VILLOREN                          0502
A5501400120410698584008TRISTEZA, WILSON OR CORAZON                              0501
B2401400180411059128001ELZANO ENTERPRISE                                        1601
A0101403030441368293002**********                                               0503
B0501400170481015879001TDG VEHICLE SALES DEPARTMENT                             1615
A0501400170481046585002ANG, JUSSLYNN DBU                                       10502
A0501400170481046585002AVS DISTRIBUTION                                        20500
B1901400160000006249603GERARDO GIL D. LIPAT AND LYDIA A. BALINA                 1601
A1901400160491403244001OFELIA T LANDICHO OR                                    10502
A1901400160491403244001ROMMEL Y LANDICHO                                       20500
A1401400110492220854002DIHIANSAN, SAMUEL OR DIHIANSAN,                         10501
A1401400110492220854002CHRISTINE                                               20500
A0101407430000003133882JESSERINA M. SORIANO OR                                 10501
A0101407430000003133882AILENE L. ORGA                                          20500
A0101407430503403861001AIDA P. PANCHO                                           0502
A0101405940512152957001CHUA, MA. ELENA OR GO, PHILIP                            0503
A0101406880513033856001LLAMAR BEACH RESORT                                      0504
B0101408530000003866057SUBIC HERMOSA CYBER CITY DEVELOPMENT                    11603
B0101408530000003866057CORPORATION                                             21600
A0101403450000001769811*******                                                  0501
B0101403450521012010001********                                                 1603
B0101403450521033882001**********                                               1610
B0101403450521033882002*********                                                1610
A0101403450521678458001*********                                                0502
B0101404000551047775001BISQUERA, A DBU TOPMINDS GLOBAL                         11601
B0101404000551047775001MARKETING                                               21600
A2201400250561256082002JOSEPH P. CORTEZ                                         0501
A0101407720000000245225RAUL CHRIZALDO MORENA OR                                10501
A0101407720000000245225SINCERELY MORENA                                        20500
A0101404260611478374076NEREZA P RULL                                            0503
B0101409890649046783001**********                                               1602
A0101409890000000049089GEMSTAR CLEANING SUPPLIES                               10505
A0101409890000000049089INTERNATIONAL                                           20500
A0101409920650478374023RENTIGRADO, ELENA ESTOESTA                               0502
A0101407690000000025174MADRIAGA, LUZMINDA CAMINA                                0501
B0101407690000000243843IDESCO CONSTRUCTION AND DEVELOPMENT CORP                 1602
A0101407690000000913600MARQUI AUTO SUPPLY                                       0502
A0101407690000001919833COOL CLASS GARMENTS ENTERPRISE                           0502
B0101407690000003767824ANDRADE, JACQUELINE REYES DBU                           11605
B0101407690000003767824ANDRALYN TRADING                                        21600
B0101414120000003584281JD & P FOOD TRADING CORPORATION                          1602
B0101414120000000399060ALGIRA CORPORATION                                       1603
A0101406590000000035492CARIGAY, PAUL MARTIN TOLIN                               0501
A0101410300000004361580DELAS ALAS, MARTINA EILEEN                              10505
A0101410300000004361580HERNANDEZ                                               20500
A1301400210682037806001MANG PABLING MARKETING                                   0502
A0101408240000003955237BAES, MARCUS ANTHONY MARCO OR                           10502
A0101408240000003955237BAES, MARIA ROWENA                                      20500
A0101408240711384215003LOURDES GRACE MAPALAD                                    0501
A2801400100000000906194LEE, ROBERT NG AND                                      10501
A2801400100000000906194GUY, CESAR TAN                                          20500
B2801400230000000008404A CHILD'S TRUST IS OURS TO NURTURE                      11601
B2801400230000000008404(ACTION), INC.                                          21600
A4101400550815693134001LLANES, TUDOR HERNANDEZ OR                              10501
A4101400550815693134001LLANES, PRESCILLA CARRIDO                               20500
A0101405070861478374086MARLYN C. GABEST                                         0502
A0601400230000003015998CABRERA, JANET DE LEON                                   0501
A0601400230891525600001MARILYN OR CONRADO PACLA                                 0510
