A0101402060000002258944CASTRO, ANNADITH CADORNA                                 0501
A0101412890000000125442ARMANDO DE VERA VENTINILLA                               0501
B0101405940512041188001PREMIUM WINE EXCHANGE INC.                               1602
A0101412890000003237761CLAVERIA, SHERWIN SALONGA                                0501
B0101405490392196738002BERNARDO MAINTENANCE SERVICES                            1602
A1201400150421329809001LAVARIAS, BENEDICT POLIG                                 0501
B0101405940512510160001SIMPLY GREAT DELI INC.                                   1604
A0101412340000004681396PATRICK C. FORMOSO                                       0503
A0101408400394514933001CERVANTES, MICHAEL CRUZ                                  0501
A0101406590000000035418YONG, JAMES LESTER C. AND                               10501
A0101406590000000035418YONG, ROSABELLE                                         20500
A4101400420000002084631MANICIO, MARIA ARMI ORTEGA                               0501
A4101400420814418225001LOPEZ, ROSALINA OR                                      10501
A4101400420814418225001LOPEZ JR., RODRI                                        20500
A4101400420814456030002AGELLON, LILY RADY AGUINALDO                             0502
A4101400420814520766012SUSAN B. MALBOG                                          0501
A4101400420000000120674MARILYN BOSTRILLO                                        0501
A0101412340000000484822GARCIA, JERIELLE CAGASAN                                 0501
A0101412340000002900290MARINA F. ASUGAS                                         0501
B0101400860011775947001**********                                               1602
A0101401250021185179001CABRERA, ZENAIDA SANTOS                                  0501
A0101400150000002394863QUEJANO, RODANTES VALDORIA                               0501
B0101400150061044999001SDI MEDIA (PHILIPPINES) CORPORATION                      1601
A0101400150061360716001QUILALA, KEITH CELESTINE OR                             10501
A0101400150061360716001QUILALA, EMELITA                                        20500
A0101400150061433959002KIMURA, KUMI                                             0501
A0101400150061567479001TAN, CINDY LEE                                           0502
B0101400600071234252001**********                                               1601
A0601400100000000141864DEL ROSARIO, ROCELLE PENA                                0503
B0101400730000001216380ALPHA INSURANCE & SURETY CO., INC.                       1601
B0101406040112036463001GOHOC BROTHERS INC.                                      1602
B0101401960121238876001**********                                               1601
A0101413310000002317900CHAVEZ, RAFAEL SAZON                                     0502
A0101401830141206536001PEDRO S. FLORES OR                                      10505
A0101401830141206536001IRMA G. FLORES                                          20500
A0101400440161045289001RAPTURE CAFE' BAR                                        0501
A0101400440161520766193LEILANIE P. LOCSIN                                       0501
A0101407270162629425001CO, LOLITA SY                                            0501
B0101401090171029283001S.P. RABANO BUILDERS INC.                                1602
A0101401090171509275002NOEL E. ESTRELLA                                         0501
A0301400530000001009830********                                                 0504
A0301400530000001010033YABUT, ELVIS G. OR                                      10502
A0301400530000001010033YABUT, MARELIE L                                        20500
B0301400660000000022868KEIZENNG TRUCKING CORP.                                  1602
B0301400790195053525001EMCELI PROPERTY HOLDINGS CORP                            1602
A0101401380201171279001TSAI, ROBERT                                             0501
A0101401380000000682673RED, ROBERTO AURELLANO                                   0501
A0101401380201689041001TAN, ALBERTO GALLARDO                                    0501
A0101410720653042934001BMLP MOTOR WORKS                                         0504
B0101410720210045577001ASIAQUEST VENTURES CORPORATION                           1610
B0101413600000002122372INTERNATIONAL ACADEMY OF AESTHETIC                      11602
B0101413600000002122372SCIENCES INC.                                           21600
B3101400160000000006602LA SUERTE MULTI-SALES INC.                               1610
A1001400190000000124876JENNY CALDERON                                           0501
A1001400190000001057590ARLYN ATON                                               0501
A1001400480000000133279**********                                               0502
A1001400480000000133542GUINTO, CHARLOTTE JANE MAGO AND                         10502
A1001400480000000133542GUINTO, NEMER SARDEA                                    20500
B1001400480000000133593DELUXE RANCH TRANSPORT CORPORATION                       1602
A1301400470252486858001BELEY, NICOLAS AGUILAR                                   0501
A1301400470252497161001LUCILA L. DELA CRUZ                                      0503
A1301400470000000472622VERA ABRERA BORROMEO                                     0502
A1301400760000000050671JEFFREY D. ABESAMIS OR                                  10501
A1301400760000000050671CINDY F. ABESAMIS                                       20500
B1301400760000000007172HILDEGARD INTEGRATED LEARNING SCHOOL                     1601
A0101406620273301500003LORENA E. VELARDE                                        0501
A0101406620273793427001AMORADO, JOSE AMOR AND AMORADO                          10502
A0101406620273793427001CRISTINA                                                20500
A2601400270302478374003GRACE C. BANCUD                                          0501
A0801400160311267054001JAMORA III, JUAN JOSE OR                                10510
A0801400160311267054001VERONICA JAMORA                                         20500
A0801400160311413609001LIM, JOSEPH PO                                           0505
A6601400120314612961001SALAVARRIA, VICKY OR CRISALDO                            0501
B0101402350321010590001MAG-IRIBA MULTI-PURPOSE COOPERATIVE                      1601
B0101402510341036645001MANG INASAL RESTAURANT                                   1604
A0101402510341565802002GLAISA A. CLAVERIA OR                                   10502
A0101402510341565802002JAMES RONALDO A.                                        20500
A0101402060000000562087RODRIGUEZ JR., LAMBERTO MORALES                          0501
A0101402930381206921002EDUARDO P. PILAPIL OR                                   10502
A0101402930381206921002TERESITA R. PILAPIL                                     20500
A0101408370382365158001RALPH DAVID G. RIVERA                                    0501
A0101408790000000579380TEODORE GILBERT C. ANG                                   0501
A0101405490000000444557LEO ERAYA PIANGCO                                        0501
A0101405490000002141042ALCOREZA, MA.SALOME SISCAR                               0503
A0101405490000001092717ROSLINA M. AMEROL DBU AMEMAR                            10502
A0101405490000001092717GENERAL MERCHAND                                        20500
A0101408400394310823004QUIZON, VIRGINIA RAYMUNDO                                0502
A0101408400394311423002GUEVARA, NORMA RAYOS DEL SOL                             0501
A0101408400394421193001ROMERO, RODELA INOCENCIO                                 0501
A0101408950000000472957LIEZZY GASPAR MANALO                                     0501
A0101408950396773717001AGUILAR, JOSEPHINE CABRERA                               0502
B2401400180411017908001LWC CYCLE MART, INC.                                     1602
A2401400180411459505001MARK T. GO OR MADELINE Q. GO                             0502
A2401400180411478374042JOYCE R. GALLEON                                         0501
A0901400220000001805141**********                                               0501
B0101403030441037132001MASTER BRAKE AUTO SUPPLY                                 1601
B0501400170481018109001*********                                                1601
A1901400160491282845001ARTHUR C MALALUAN OR                                    10501
A1901400160491282845001IRENE D MALALUAN                                        20500
A1901400160491298552008VILMA F FALCUNAYA                                        0502
A1901400160491470708001CECILIA D ABJELINA OR                                   10502
A1901400160491470708001DEAN THOMAS T ABJELINA                                  20500
B1401400110492031376001LUCENA WHEELER ENTERPRISE INC.                           1601
B1401400110492037847001LUCBAN BROADCASTING SYSTEM                               1601
A1601400170000000421069CHARLES P. CLEMENTE III OR                              10505
A1601400170000000421069CHARLES L. CLEMENTE JR.                                 20500
A1601400170000001069181BLISSFUL EMPLOYMENT SERVICES                             0501
A0701400260000003259261MENDOZA, MARK JOSEPH VALDEZ                              0502
B0101407430000000035258LINAHEIM CORPORATE TRAVEL & TOURS INC.                   1601
A0101407430503333427005ABNER G. LACSON OR                                      10501
A0101407430503333427005EVELYN D. LACSON                                        20500
A0101405940512634442001LA-O JR., TOMAS CARMEN OR                               10504
A0101405940512634442001LA-O, LILIBETH C                                        20500
A0101408530000002980669ENCARNADO, TERESITA ISABEL DELA                          0502
A0101411400517057894001CABALLERO, RICHARD CERVANTES                            10501
A0101411400517057894001DBU ZRCAB CONSTRUCTION                                  20500
A0101411790518055764008AFABLE, MARIA FATIMA                                    10501
A0101411790518055764008EVANGELISTA                                             20500
B010141179051805692200188 INFINITY LENDING POOL INC                             1601
B0101403450521078888003PUREGOLD PRICE CLUB, INC.                                1620
A0101403450521357926001**********                                               0501
A0101403610531219303001DR. ROMEO R. ANDAYA  OR                                 10502
A0101403610531219303001DR. ANGELITA Y. ANDAYA                                  20500
A0101404000000003707613ELMER P SUERTE                                           0501
A2201400250561043302001JREL BAKESHOP                                            0501
B0101404260000000550401ATLAS GLOBAL ADVANTAGE, INC.                             1602
B0101409890649033780001WATCH TOWER BIBLE AND TRACT SOCIETY OF                  11610
B0101409890649033780001THE PHILS. INC                                          21600
A0101409920000001539522CEDENO, NOEMIE DEDICATORIA                               0501
A0101413570000002976152MANINGDING, MARIA MARILI CABALL                          0501
A0101410300000004361580DELAS ALAS, MARTINA EILEEN                              10502
A0101410300000004361580HERNANDEZ                                               20500
B1301400210000000023463SAN PABLO MULTI-PURPOSE COOPERATIVE                      1602
A1301400340000000100312MIZUSE, JOSEPH C. OR                                    10510
A1301400340000000100312MIZUSE, ANNE MARIE L.                                   20500
B1301400340683005408001REPUBLIC COURIER SERVICE INC.                            1602
A1701400230693478374047BENITO, ROVILLA GOODALE                                  0501
B0101408240000000832699CARGOLIFT GROUP, INC.                                    1601
A0101408240711721738001AURELIO, LEAH LUZURIAGA                                  0502
A2801400230713045955001LITTLE SCISSORS UNISEX SALON                            10501
A2801400230713045955001RONNIE B. RUIZ                                          20500
A2801400230713045955001LITTLE SCISSORS UNISEX SALON                            10501
A2801400230713045955001RONNIE B. RUIZ                                          20500
A4101400260812661026001JIMENEZ, EMILIANO RANAS                                  0501
A4101400390000000048611JARANILLA - DE JESUS, RIZALIE A                          0501
B4101400420814012637001ANABU DEVELOPMENT COOPERATIVE                           11605
B4101400420814012637001(ANADECO)                                               21600
A4101400420814478374044BERATIO, MARITES M.                                      0501
A0101412340000002266833EVANGELINE A. BUENVIAJE OR                              10502
A0101412340000002266833ROY G. BUENVIAJE                                        20500
A0601400230000001062504BARLIN, MA CHRISTINA MENDOZA                             0501
A0601400230891253188001TERESITA OR EDUARDO PINEDA                               0506
