B0101400150061821100608**********                                               2005
B1001400190231821100608**********                                               2005
B0101408400394821100608**********                                               2002
B0101407690652821100608**********                                               2002
A0101410300000007614208**********                                               0501
A0101402930000000859725YLALIM, JENALYN ALZULA                                   0501
A0101410300000003290100JESUS L. TAN                                             0501
A1101400120313478374094AGAPITO, ROSA POLICARPIO                                 0502
A1101400120000001547235DUGANG, JESSA EBIT                                       0502
B2001400290000002406760MILLER SOLUTIONS DEVELOPMENT INC.                        1602
A0501400170481046585002ANG, JUSSLYNN DBU                                       10504
A0501400170481046585002AVS DISTRIBUTION                                        20500
A0101407720602081606001DY, JAY VILLAR                                           0502
A0101407720602342044001DR. DARWIN ALBERT DASIG                                  0501
B0101404260000004781380BUNO, VERNIE MALABANAN                                   1602
A0101410300000013366155PENA, ISAIAH MICHAEL GASTROCK                            0502
A4101400420000008280615PASCUAL, TERESITA DALINO                                 0501
A0101400860000013484005*******                                                  0503
A0101400860000001005489*************                                            0501
A0101400860011479962001**********                                               0502
B0101400150061036083001ANNEXUS INTERNATIONAL RELOCATION                        11602
B0101400150061036083001SERVICE, INC.                                           21600
A0101400150061227793004DY, ANASTASIA OR                                        10501
A0101400150061227793004DY, EVELYN                                              20500
A0101400150061684116001MAGRAMO, FREDESWINDA CERDA                               0502
A0101400600000005942601ALDAY, ANITA BLANCAFLOR                                  0501
B0101400600071373478001**********                                               1605
A0601400100000009324090SIMSUANGCO, PAUL ALLAN DIWA OR                          10501
A0601400100000009324090DEL ROSARIO, MARIA FRANCE                               20500
A0601400360000000225243SY, JAIME BARRAMEDA                                      0502
A0601400360000008460184CALAGUAS, PETER JOSEPH AVIADO                           10501
A0601400360000008460184OR CALAGUAS, LULU SISON                                 20500
A0601400360083576587001ANICIETE, NOEL DABU                                      0503
B0101414090000007344410TRI STATE & MELTING POT BISTRO GROUP INC                 1601
B0101410850000003503740CANELLE FOOD CORPORATION                                 1610
A0101410560000002316569SIA, BEATRIZ ESCARCHA                                    0501
B0101400730000001242682TOULOUSE FOOD SERVICES INC.                              1605
B0101400730111068282001QUIAMBAO, R DBU DROIDHERO ENTERPRISE JT                  1601
A0101412630000000180425**************                                           0501
A0101413310000002317900CHAVEZ, RAFAEL SAZON                                     0502
B7201400170000011454378KURT WAYNE RICE AND CORN BUYER & TRADER                  1603
A7201400170000003773073SARMIENTO, MARY JOAN BRANZUELA                           0503
A7201400170000003774436MAATA, JANIETH S. OR                                    10502
A7201400170000003774436MAATA, JEFFRY P.                                        20500
A0101401090171198341001HELENA F. CABRERA                                        0501
B0301400530000008307700APEX PREMIER PHARMACEUTICAL AND CON                      1602
A0301400950000010701138BUDAC, JAMMAILA VILLENA                                  0503
B0301400950000000566945BIG Z QUALITY FOODS CORPORATION                          1610
A0101401380000001820002********                                                 0504
A0101401380201618189001CINCO, ROSA OR LAM, LAURENCE                             0505
A3101400160000006497712GONZALES, JUNE CLINT GASMIN                              0501
B3101400160221043434001NY SAN FELIX LTD. CORP.                                  1610
A3101400450223221366002*****                                                    0502
A3101400450223455809001LANCION, AUREA OR JERIC                                  0502
A3001400130000000931208BENDIJO, AMELITO MONDEJA OR                             10501
A3001400130000000931208BENDIJO, ERLEN A                                        20500
A3001400130000005446340BALANGA, MARIO FERNANDEZ                                 0501
B1001400190231038674001ORO INTEGRATED COOPERATIVE HO                            1603
A1001400190231272349001CHAN, MICHAEL L.                                         0503
A1001400190231478374117ASINO, ANNABEL M.                                        0501
A1301400470252518432001*************                                            0510
A1301400760000005989708MARIO O. SALVADOR OR VERONICA                           10501
A1301400760000005989708G. SALVADOR                                             20500
B1301400760000000050728VICTOR R. DEL ROSARIO RICE MILL CORP.                    1603
B1301400760000005989628GREEN LIGHT RENEWABLE ENERGY CORP.                       1601
A1901400290261245089002SHIRLEY OR DIONISIO GUTIERREZ                           10501
A1901400290261245089002OR DIONISIO GUTIERREZ SR                                20500
A1901400290261493025081MA REINNA R BORCES-SERRANO                               0502
B0101401670271041152001PHILADELPHIA BUSINESS INITIATIVES INC.                   1602
A0101401670271188489001CARMEN C. LIM                                            0501
B0101406460272035154001STUDIO84 INC.                                            1602
A0101406620000000577060ALEGARBEZ, ROBERTO ESPERAS OR                           10502
A0101406620000000577060ALEGARBEZ, JENNE                                        20500
A0101406620273314677002GEORGE G. ANGEL OR GLENDA M.                            10501
A0101406620273314677002AGUILA                                                  20500
A0101408660000008622082CARLOS SANTIAGO GONZALEZ                                 0502
B0101410980000006014693**********                                               1601
A0101412470000000520130FLORES, GINA CRUZ                                        0501
A0101412470000000520130FLORES, GINA CRUZ                                        0501
A01014005702810422420011126 ICUT HAIR & BEAUTY SALON                            0501
A0101400570281186611001EMERITA R. DOMINGO                                       0501
A0101400570281628531001BILLARDO H. DEL ROSARIO, M.D.                            0505
A0101411240000014163350TAN, DAVID KENNETH TE                                    0501
A0501400200000014179843LASTRILLA, FEMIE JACOB DBU L.E.                         10501
A0501400200000014179843CONSTRUCTION & SUPPLY                                   20500
A1101400120313478374009SORIANO, DEMALYN Q.                                      0502
A1101400120000000065121ALVARADO, LIEZEL CASINO                                  0501
A1101400120000006186478BOLECHE, MERLINE BANDALA                                 0503
A6601400120000003673067SABONG, MA. TERESITA OR                                 10501
A6601400120000003673067SABONG, EFREN                                           20500
B3401400280000000002313KTKM DISTRIBUTORS INCORPORATED                           1601
A0101402350000003080413************                                             0501
A0101402510000011695073ALIBUYOG, LARRY SOMERA                                   0502
A0101409050000008087690CRUZ, AIDA P. OR                                        10502
A0101409050000008087690CRUZ, OCTAVIO JR                                        20500
A0201400890000007668526YAP, JOSEPH ANTHONY CAUSIN                               0505
A0201400890376724888088***************                                          0501
A0201401020000007935440REGIS, MANUEL ARAZO                                      0501
B0201401020000005109951MACTAN RURAL BANK(LAPU-LAPU CITY),                       1601
B0101402930381030309001RECEIVERS & LIQUIDATORS, INC.                            1602
A0101402930381423656002AGUNDAY, ARMESH N                                        0501
A0101402930381423656003DUMLAO, RHONDEE E                                        0501
A0101402930381423656006LOMBOY, ANA MARIE C                                      0501
A0101402930381423656009MENDOZA, AGNES L                                         0501
A0101402930381423656010VILLAMIN, KATHLEEN M                                     0501
A0101408370000000336161PADER, MICHAEL FERANIL                                   0502
A0101408790000011534860TOLENTINO, ARSENIA SAMONTE                               0501
A0101411660000011949149VILLANUEVA, AE NEIL FAUNILLAN                            0501
A0101411660000004597220BONDOC, NARCISA NAVARRO or                              10501
A0101411660000004597220DELA CRUZ, MYRENE                                       20500
A0101402770391022532001VIREX ENTERPRISES                                        0501
B0101402770391025883001DA LEONARDO INDUSTRIAL INC.                              1601
A0101402770000006642793SUESS, FLORENCIA GERODIAS                               10502
A0101402770000006642793DBU FGS ENTERPRISES JT                                  20500
B0101402770000006812495RAMONLIM CONSTRUCTION & DEVELOPMENT                      1601
A0101402770391195487002APILADO, FEDERICO CASUGA OR                             10501
A0101402770391195487002APILADO, NORMA DOMONDON                                 20500
A0101409180000003882224ROCERO, ANA JOY                                          0502
B0101409180000009085172HOSTELERIA UNO INC.                                      1605
B0101409180000009085183SWOOP INC.                                               1605
B0101409180397821200608**********                                               2002
A0101409210000007763002JERUSALEM, GRACE FARINAS                                 0502
A0101412210000014183741LOS ANES, KIM CAROL JOCSON                               0501
B0101412210000000031512WALL STREET ACCOUNTING AND BUSINESS                     11602
B0101412210000000031512SOLUTIONS INC.                                          21600
A5501400120000002348358MANZANILLA, JENNIFER SUAY                                0504
B5501400120000006976927DEDASE, WILBERT VALENCIA                                 1602
A5501400120000012653355ARANDIA, LINA CONCEPCION DBU HA                          0503
A5501400120410614539002SAGABAY, LOURDES A.                                      0503
B1201400150000011266630BRIGHT HOPE ROOM FOR GROWTH INC.                         1602
B1201400150421253585001ANGELES DIAZ                                             1602
A1201400150421482236001FERNANDEZ, ANNIE GOMEZ                                   0501
B0101403030000000531406**********                                               1601
A0101403320000014185889ROBERTO P. ROMERO                                        0501
A0101406330000004349753PEDRO, MARIA ASUNCION S.                                10501
A0101406330000004349753OR PEDRO, MANUELITO A.                                  20500
A0101406330472369996001DOLORES P. SUMADIC                                       0501
A0101406330472513598001JOSEPH T. MAMUAD OR                                     10501
A0101406330472513598001MARY AUBREY R. MAMUAD                                   20500
A0101412760000002067494LOSARIA, LOVELYN VIOLA                                   0502
B0101412760000000031990PRIVE PROPERTIES DEVELOPMENT INC.                        1601
A0501400170000006300629GAZMEN, ARNEL GERARD RAYOS                               0503
A0501400170481385350001MARILYN FERNANDEZ OR CAROLINE                           10501
A0501400170481385350001FERNANDEZ                                               20500
A3801400170000014139790LIM, JASON O DBU STEEL PORT HAR                          0501
A1401400110000008266137ORTE, ARMIDA RANIAG                                      0502
A1601400170000001360792CHEN, ZE DENG                                            0502
A1601400170000009954385TAN, RONALDO SY                                          0503
A0101408530000010580082****************                                         0503
A0101408530000000035925CASTRILLO, MILISA CAOIBES                                0502
A0101411400000005329875UY, SHARMAINE ANN BARTOLOME                              0504
A01014117900000065432280OLANGON, RAFAELITO CATIIS                               0502
A0101411790518055815083REMIECHELE PETRONIO                                      0501
A0101412050000014184164FELICIANO, MARIA CARMEN DBU                             10501
A0101412050000014184164GPACE FIRE FIGHTING EQUIP                               20500
B0101403450000001769902SACABEN, LOURDES IGNACIO DBU FOUR SQUARE                11602
B0101403450000001769902CARGO HANDLERS                                          21600
A0101403450521469942001**********                                               0501
A0101403610531219568002OLIVAREZ, RAUL IMZON                                     0501
B22014002500000077200123 KIS FOOD STORE CORPORATION                             1601
A0101407720602241314001**********                                               0502
A0101407720602358836001FAMADOR, JAY ARNOLD FLORES                               0501
A0101407720602396293001KANAPI, MANUEL LOPEZ OR                                 10512
A0101407720602396293001KANAPI, GLYNISH                                         20500
A0101407720602399337001MARIO BENITO F. BAUTISTA                                10502
A0101407720602399337001OR JOSEPHINE L.                                         20500
A0101404260611335308002ALIMBOYONG, JOSEPHINE MAHINAY                            0503
A0101407690652020765001STARIAN MARKETING                                        0505
B0101407690652022718001DEL CARMEN SCHOOL OF VETERANS Q.C.                       1601
A0101407690000000914016******                                                   0502
A0101407690652520766005GILNNA M. MALIGAT - DEALERS OF                          10501
A0101407690652520766005SHOECAT INC.                                            20500
A0101411530000002260311**********                                               0501
A0101413440000001472891**********                                               0501
B0101413440000008938678QUERI, ROLANDO OR BERNADAS, MELCHOR OR                  11603
B0101413440000008938678ARGUELLES,JOSEPH                                        21600
B1301400210000000023463SAN PABLO MULTI-PURPOSE COOPERATIVE                      1603
A1301400340000005264780INSIGNE, MERNANDO VOLUNTAD                               0503
A1301400340683461867001MARIANO, LEA LOBATON                                     0501
B1701400230000002762581JOHN HENRY CAR CARE CENTER                               1610
A0101408240000000347200ALVAR, SOCORRO PAGTALUNAN                                0501
A0101408240000009453072ALMANZOR, MATILDE OR DOMINADOR                          10501
A0101408240000009453072OR MELANIE OR MICHELLE                                  20500
A0101408240000014081022ABENOJAR, LUNINGNING SIOBAL                              0501
A2801400100712380695001NOMER A. TALIBONG                                        0503
B4101400260000003679818CAGUIAT, LEONOR C AND CHOCO, GILDA G                     1601
A4101400390000003346132DUMAUA, ARMIDA ABIADA                                    0501
A4101400390813420483001ALBOLERAS, LIZETTE YOLANGCO                              0501
A4101400420000002345331MERCEDITA D. LAGDAMEO                                    0501
A4101400550000000315182MARGAJA, FELICITA BITOR                                  0502
A4101400550000011973405AQUILLO, JENALYN SAN JUAN                                0503
A4101400550815058065003ALPAS, M DBU ALPAS DENTAL CARE                           0501
B0101404840000006365364BIGWORX PRIME CORP.                                      1602
B0601400230000011168437ABE'S MULTIFOODS PRODUCTS CORPORATION                    1605
A0601400230000012134535ARLENE F. CANLAS                                         0501
