A0101401960000000008095ANG, PAUL GO                                             0501
A0101412210000000031410***********************                                  0502
A1301400760000000050466GIL P. MENDOZA II                                        0504
A1301400760000000050693MARLON P. MALLARI                                        0502
A0101406750000000090873DELFINO, ANALILI OR GUZON,GERTR                          0504
A0101412340000000319497PINEDA, IMELDA PEREZ                                     0501
A2201400250000000433532REBECCA C. ALINGOD                                       0501
A0101413730000000469125*******************                                      0501
A0101406590000000568805LOGARTA, MICHELE TORRALBA                                0502
A0101411820000000589380ROQUE R. SUEMITH                                         0501
A1001400480000000606831VALDEHUEZA, KENT VAN OCERO                               0504
A0101403320000000735717BAUTO, GUADA LYNNE CASTILLO                              0501
A0101403580000000922689INTAC, JENNIFER INSEQUEL                                 0501
A3001400130000000931322ML_BUILDERS INC.                                         0505
A0601400360000000978754SERRANO, JON MICHAEL EDOQUE                              0505
A0601400230000000989940SALAO, MARITES AUSTRIA                                   0501
A0101408950000001039412DRILON, CECILIA VICTORIA ORENA                           0502
A1001400190000001057556EMMA A. BARRETE                                          0501
A0101413730000001253229************                                             0504
A1301400760000001295449MEINARDO C. MARIN                                        0502
A1301400760000001295563000-001295-563                                           0505
A1301400470000001299130ANDREW P. MANGIDUYOS                                     0502
A0101400440000001439761EDQUILANE, JOHN MARLON RIVERA                            0502
A0101400440000001440033RAYMUNDO, LEILANI BUNUAN                                 0502
A0101401090000001611449JEROME ALONZO                                            0501
A0101403320000001646777MYRNA M. CRISOSTOMO                                      0501
A0101403320000001647036LORENZO RENAN E. TORRES                                  0503
A2401400180000001676913***********                                              0501
A3401400280000001723360RICHELLE V. ALMONGUERA                                   0501
A3401400280000001723473AMELIA A. ZAMORA                                         0501
A4101400260000001783651CESAR, ELENA ESPABELLA                                   0501
A4101400550000002091021PIYEZA MOLINO AUTO PARTS                                 0503
A0101411950000002151224MOONCHAMPS TRADING                                       0501
A0101413730000002229676***************                                          0501
A0601400230000002310172CHING, NIKKY VILLANUEVA                                  0502
A0101409890000002326752EVANGELINE GONZALES ALFONSO                              0501
A0101411240000002332503*****                                                    0503
A2201400250000002337993FLAMINIANO, ROSITA LOANZON                               0501
A1301400760000002346027MELANIE M. FRANCISCO                                     0501
A0101410300000002375755********                                                 0502
A2601400270000002677547MILA R. VALDEZ                                           0502
A0101408240000002822051COLENDRINO, MARIE YVONNE BRODET                          0501
A4101400260000002888391NOLASCO, VIVIAN LADA                                     0501
A0101412340000002900283MARIFE B. VIADO                                          0501
A1301400210000002908989MERCADO, JOHNSON JIMENEZ                                 0505
A4101400550000003266982*****                                                    0501
A0101412340000003341619DEXTER N. CANONIGO                                       0501
A0101412340000003345053EDSEL P. PAGUNSAN                                        0501
A0101411660000003580221JAMIE ANNE Y. LEE                                        0501
A2001400290000003860155MAGSAYO, MARY ROSE DOMPALES                              0501
A0101412630000003863121DIMACULANGAN, AMELITA GONZALVO                           0501
A0101400860011395673001**********                                               0506
A0101400860011449960001**********                                               0501
A0101400860011496074002**********                                               0501
A0101400150061236944199MA. MICHELLE TACDERAN                                    0501
A0101400730111481455001**********                                               0504
A0101400730111527208001********                                                 0501
A0101400440161402507001ANNABEL A. LACOSTALES                                    0501
A0101400440161520766101FE M. GLODO                                              0501
A0101400440161549463001SONIA D. CARAG                                           0501
A0101400440161709174001JEROME E. YAP                                            0501
A0101407140213385506002**********                                               0501
A0101407140213426192001**********                                               0501
A3101400160221533266001ANGELITO S. LAZARO JR.                                   0502
A1001400350233478374001JUNIO, ROGELIA A.                                        0501
A1301400760253056374001EDNA'S CAKELAND                                          0505
A1901400290261691064001EVELYN BAUTISTA AQUINO                                   0501
A1901400290261717650001MYLENE SUBIA SILVA                                       0501
A0101401670271794897001SIAN, VENERANDA PEDRALVEZ                                0502
A0101406620273518518001RICALDE, ROSARIO RODRIGUEZ                               0502
A0101406620273580387001VERSOZA III, NOE MARTIN                                  0501
A0101400570281388539051CORAZON S. CHIU                                          0501
A2601400270302560511002RONALD PAUL B. BENITO                                    0501
A2601400270302593825001LAILA M. MANZANO                                         0501
A1101400120313478374124BADAR, GINA C.                                           0501
A6601400120314612855001SUNDAY LAVIN JR OR IRIANA LAVIN                          0505
A0101408370382391971001DR. MANUEL FRANCISCO T. ROXAS                            0505
A0101408370382589201001EVANGELINE T. VALENZUELA                                 0501
A0101405490392298552043BETTY R. ARENA                                           0502
A0101408400394478374094NUNEZ, GENIE                                             0501
A2401400180411577135001***************                                          0510
A2401400180411612792001SARDIDO, MARIA NAVALTA                                   0501
A1201400150421258202001VENUS DIOMAMPO                                           0502
A1201400150421311928001RAMOS, GLORIA SILOY                                      0501
A0101403030441239049001**********                                               0501
A0101403320471027493001VICTHEL INDUSTRIAL SUPPLY                                0501
A0101407430503558249001JIMENEZ, FLORENCE VILLANUEVA                             0501
A0101403580511156576001NIDAN E. ALBA                                            0502
A0101403580511344093001**************                                           0510
A0101411790518055764189LARIOSA, MARITES DULAY                                   0501
A0101411790518055815062OCA, ARENZ REBONG                                        0501
A0101411790518055815074PANIS, RONA VANESSA LACHICA                              0501
A0101403450521238122001**********                                               0501
A0101403450521239750002EDDIE L. CHUA                                            0502
A0101403450521703439001***************                                          0502
A0101407720602396501001LOPEZ, GARY ARANETA                                      0503
A0101404420631478374124SONIA T. LUBRICO                                         0501
A0101404420631478374128MELINDA A. DELOS SANTOS                                  0501
A0101407560686176588003***********                                              0501
A0101407560686498899001**********                                               0502
A0101408240711377890002******                                                   0502
A4101400260812324519002DEL ROSARIO, MERLITA BARRERA                             0501
A4101400260812478374029MARIA FE E. TEJERERO                                     0501
A4101400390813329357002DESBARRO, JOHN ONG                                       0501
A4101400550815478374010CRISTINO, DANA JAMAICA                                   0501
A0101404840851217637010NOEL Z. CARRERA                                          0501
A0101404840851478374071MARITESS C. CASARILLA                                    0501
A0101413280000000041852OLA, EDAM CRUZ DBU HIJK SHIRT                           10501
A0201400920000000048188ALTIN TRADING AND                                       10501
A3101400870000000074731KARUNUNGAN, RUBY DBU SKY FOOD                           10502
A1901400290000000135060ALELI GUTIERREZ PERCE OR                                10501
A1901400290000000135173JUDE RECINTO SEMANA OR                                  10502
A0101412760000000208637BERNARDO, RE  DBU VIREX                                 10502
A0101401250000000441103GATDULA JR., CESAR SAN JOSE OR                          10501
A0101400150000000525251TAGALAG, MICHAEL AGAPITO OR                             10501
A0101405490000001092717ROSLINA M. AMEROL DBU AMEMAR                            10502
A0301400790000001776138ESCAMIS, JOSE PACLAR DBU                                10501
A0101403320000001803281LANTIN, RAMON PALOMIQUE                                 10502
A0101409180000002252579HERNANDEZ, RAFAEL ANTONIO E. OR                         10502
A0101412210000002714729HUVALLA, HOSSANA CRISS DELA                             10501
A0101400150061326594001REYNALD C. UY OR                                        10501
A0101400440161322205002LEONCIO P. SANTIAGO OR                                  10503
A0101401090171195610001WILFREDO/CYNTHIA/MARIFEL MITZI/                         10504
A3101400870225056008001MANAIG, A DBU ASSETS EYE                                10501
A1001400190231380503007DRA. CYNTHIA BACONGA                                    10503
A1001400350233405531001SEVILLA, CARLOS S.OR                                    10502
A1001400350233520728001CARLOS BENEDICT A. TAN OR                               10502
A1901400290261432900001JULIUS PIO AFRICA RANA OR                               10501
A0101406460272411543002ZAMORA, KERI LYNN N. OR ZAMORA,                         10503
A0101406620273280285001PELAGIO / ROSARIO / REBECCA /                           10501
A0101402480331224187001CHARLOTTE CHRISTY TAN OR                                10502
A0101402480331452117001ENRIQUEZ,LUCENA OR IRENE OR                             10501
A0101408370382409089001DR. ELIZZA S. SENSENG OR                                10503
A2401400180411478374017PERPECTUO BULAQUINA, JR.  OR                            10501
A0101403320471027491001ULTRA CHEM-ACTANTS INDUSTRIAL                           10501
A0101405940512522504001YU, JONATHAN MARC CHAM OR                               10502
A0101405070861197504001VIRGINIA W. RAZON OR                                    10502
A0101413280000000041852PRINTING & DESIGNS                                      20500
A0201400920000000048188CONVENIENCE STORE                                       20500
A3101400870000000074731ALLEY                                                   20500
A1901400290000000135060FLORENCIO D PERCE                                       20500
A1901400290000000135173EVELYN UMALI SEMANA                                     20500
A0101412760000000208637ENTERPRISES                                             20500
A0101401250000000441103GATDULA, PAMELA SANTOS                                  20500
A0101400150000000525251TAGALAG, ROCHELLE                                       20500
A0101405490000001092717GENERAL MERCHAND                                        20500
A0301400790000001776138ESCAMIS BUILDERS                                        20500
A0101403320000001803281OR LANTIN, GLORIA                                       20500
A0101409180000002252579CONCEPCION, MARIA ELENA R                               20500
A0101412210000002714729CRUZ                                                    20500
A0101400150061326594001SHIRLEY G. UY                                           20500
A0101400440161322205002LOLITA M. SANTIA                                        20500
A0101401090171195610001CYNTHIA MARIE FERNANDEZ                                 20500
A3101400870225056008001MANAGEMENT SERVICES                                     20500
A1001400190231380503007PHILAMCARE DOCTO                                        20500
A1001400350233405531001SEVILLA, ISABELI                                        20500
A1001400350233520728001SONIA B. TAN                                            20500
A1901400290261432900001CHARMAINE DE GUZMAN RANA                                20500
A0101406460272411543002FRANCISCO JAVIER                                        20500
A0101406620273280285001RAFAEL / ROWENA                                         20500
A0101402480331224187001DANIEL TAN                                              20500
A0101402480331452117001ENRIQUEZ JR., DE                                        20500
A0101408370382409089001IMMANUEL DOMINIC SENSENG                                20500
A2401400180411478374017EMMA C. BULAQUIN                                        20500
A0101403320471027491001SALES                                                   20500
A0101405940512522504001YU, HENRY                                               20500
A0101405070861197504001ROBERT RAZON                                            20500
B0301400820000000024911DIGOS DOCTORS' HOSPITAL, INC.                            1620
B1301400760000000050740TILAH CORPORATION                                        1605
B0101403450000000135588ALOHA PLASTIC PRODUCTS, INC.                             1603
B0101413600000000206755********                                                 1601
B0101400440000000337740ERWIN AGUSTIN AND DAIZY SACAGUING                        1605
B0301400820000001554792VIC IMPERIAL APPLIANCE CORP.                             1601
B0101411790000002658273BOBBERIA INCORPORATED                                    1603
B0101407140213007555001CORNERSTONE INTERNATIONAL PHILS.                         1606
B0101407140213028328001****************                                         1610
B0101407140213028527001****************                                         1605
B3101400160221010174001MARINOR DEVELOPMENT CORP.                                1605
B3101400160221037479001TABLERIA LA CONFIANZA CO., INC.                          1601
B1001400350233013980001VIC IMPERIAL APPLIANCE CORP.                             1603
B0101401670271017449001HK HARDWARE SUPPLIER CO., INC.                           1601
B0101405650322030858001WATER FAIRY PURIFIED WATER                               1602
B0101402480331028438001GRACE EVANGELICAL ASSOCIATION INC.                       1606
B0101402480331034497001*******                                                  1602
B0101402480331034755001EUROSEAL INDUSTRIAL PARTS SALES                          1601
B0101402640361177788001BENELCOR MANUFACTURING INC.                              1602
B0201400760374047828001MTO TECHNOTRENDS INC.                                    1602
B1901400160491012917001ALPS THE BUS INC.                                        1610
B1901400160491026197002OMEGA MANPOWER MANAGEMENT CORP.                          1605
B1401400110492040383001RCBL - ST. MICHAEL ARCHANGEL PARISH                      1602
B0101404130601506100004LINK RI LOGISTICS INC.                                   1603
B0101406590662037318001NETWORK TWENTYONE, INC.                                  1604
B0101408240711025397001KINGSMEN CORPORATION                                     1605
B0101404840851013980002VIC IMPERIAL APPLIANCE CORP.                             1601
B0101412210000000031512WALL STREET ACCOUNTING AND BUSINESS                     11601
B0101413990000000206113DRCB SQUARE CONSTRUCTION AND DEVELOPMENT                11602
B0101405490000001092488NORTHSHORE HARDWARE & CONSTRUCTION                      11602
B1901400290261023671001PONDONG BATANGAN COMMUNITY                              11602
B0101412210000000031512SOLUTIONS INC.                                          21600
B0101413990000000206113CORPORATION                                             21600
B0101405490000001092488SUPPLY                                                  21600
B1901400290261023671001FOUNDATION, INC.                                        21600
B0101401830141821100608**********                                               2002
