B0101400150061821100608**********                                               2010
A0101406460272377244001ALA, JESSIE ATENTA                                       0502
A0101400730111561049001EMMANUEL G. CUEVAS                                       0502
A0101403320000000735717BAUTO, GUADA LYNNE C.                                    0501
A2401400180000012748573ENOC, MARY ROSE DBU TARGETS                             10501
A2401400180000012748573COMPUTER PARTS & SERVICES                               20500
A2401400180000003949042ESMOND ENGINEERING RESOURCES                             0505
A0101403320000001646766EROSA TRADING                                            0502
A0101400860000013978897**********                                               0503
A0101400860000001005332***********                                              0504
A0101400860011502526001**********                                               0501
A0101400860011581564001**********                                               0502
A0101400860011705520001**********                                               0505
A0101401250021194572001BASCON, ED DANTE OR                                     10501
A0101401250021194572001BASCON, BLANQUITA                                       20500
B0101400150061023257001ISLAND PHOTO CENTER, INC.                                1601
A0601400100000009324090SIMSUANGCO, PAUL ALLAN DIWA OR                          10501
A0601400100000009324090DEL ROSARIO, MAR                                        20500
B0601400360083505804002BGC PHILBUILDER INC.                                     1602
B0101413280000009368443PART ROCK EQUIPMENT AND CONSULTATION                    11601
B0101413280000009368443SERVICES CO.                                            21600
B0101413730104058514001**********                                               1602
A0101410560000010093437GEVANA, JIOVINA RAMIREZ                                  0501
A0101410560000010317863BANDOLA, LYNETTE BENDANILLO                              0501
A0101412630000009425429REGIO, ALLAN REY ESTRADA                                 0501
A0101400440000000596630MARY ANN A. OYARDO                                       0501
A0101407270000015934526NAKAO, SONIA FAUSTO                                      0501
B0101401090171031978001STUDIO 234 GRAPHICS & DESIGN                             1602
A0301400530000001009943PANTUA, JERSON R.                                        0502
A0301400530000012631548LAUNIO, ANABELLE MAGLUYAN                                0501
B0301400530000009035121RUVER CORPORATION DBU THE NAME AND                       1602
A0301400660000003406088**********                                               0501
B0301400660000002348541ERVY LOGISTICS                                           1605
A0301400950000006080428************                                             0501
A0101401380201564133001NABLO, RODOLFO ORANTE                                    0501
A0101413020000002292680**********                                               0501
A0101410720000000095152SANTOS JR., ROBERT SAN PEDRO                             0505
A3101400450223223458004ALVERO, LEAH AURORA TOLENTINO                            0501
B1001400190231039064001*****                                                    1604
A1001400350000000922058ARENO, ANN JANE BUCO                                     0502
A1001400480000003357668CARREON, RAMIL GORRES                                    0501
A1001400480000014023422GUINTO, NEMER SARDEA DBU GSN                            10502
A1001400480000014023422TRUCKING SERVICES                                       20500
A1301400470252466782002LICERIA CABUHAT MENDOZA                                  0501
A1301400470252497499001DON G. BERNABE OR REINA                                 10501
A1301400470252497499001CONCEPCION M. BERNABE                                   20500
B1901400290261047995001SPOUSE OF THE BLESSED VIRGIN                            11605
B1901400290261047995001HOSPITAL INC.                                           21600
B1901400290000007876746SPOUSE OF THE BLESSED VIRGIN HOSPITAL                   11602
B1901400290000007876746CORPORATION                                             21600
A1901400290000006560090VIRGINIA S MACASAET OR                                  10502
A1901400290000006560090RICKY C MACASAET                                        20500
A1901400290261244456001LEO YAP ONG OR                                          10505
A1901400290261244456001MEI MEI YULO ONG                                        20500
A0101401670271368171001WARREN DOMINIC G. DE GUZMAN                              0502
A0101406460000002330876SEE, LALAINE GO                                          0501
A0101400570281200404001SAMUEL Y. LIM OR BETTY D. LIM                            0501
A0501400200000015227119CASTILLO, SHARMAINE JUNIO                                0501
B3401400280000006791013NORTH PANAY PILOTS' PARTNERSHIP COMPANY                  1601
A0101402510341670455001RECTO, ESTER CHIONG                                      0502
A0101409050000005384852JEREMIAS NAVARRO                                         0502
A0101409050000003536127YULO, SHEROICK NOEL                                      0501
A0101409050000015274014BANTOLINO, KAREN DUMDUM                                  0501
B0101409050352043844001COLLEGE OF ARTS & SCIENCES OF ASIA & THE                11603
B0101409050352043844001PACIFIC - TAYTAY                                        21600
A0201400920000012764831MALAQUE JR., ANSELMO CHAVEZ                              0501
B0201400890376045807001**********                                               1620
B0101402930381017086002HEALTH GALLERY INC.                                      1605
A0101402930000000623363KING, C DBU EASTERN CIRCLE                              10502
A0101402930000000623363HUMAN RESOUCE SERVICES                                  20500
A0101402930000003710701PALINES, LETICIA VILLASENOR                              0502
A0101411660000003976438TALENS, JENNIFER CORONEL                                 0501
A0101402770000006642806CARABUENA, ALONA DUBLIN                                  0502
A0101405490392481659001MARITES Q. FACTURA                                       0502
A0101408950000015653622MENDOZA, MISHAEL KATE ILAGAN                             0501
A0301400820000010907229DUREMDES, RICKY R.                                       0501
A0301400820000010907270TILAP, MARK A.                                           0501
A0301400820000010546415PANUDA, JANELLE DBU JG PANUDA                           10501
A0301400820000010546415ACCTG & AUDITING SERVICES                               20500
B5501400120000007963413JBJAVELLANA VETERINARY SUPPLIES, IN                      1610
B2401400180000011298947GLOBAL DYNAMIC STAR SECURITY AGENCY, INC                 1610
A2401400180411455559001VENDIX GEN. MERCHANDISE                                  0501
A1201400150421301485002GO, ROLANDO DISTOR                                       0503
B5101400100000010833957GAW, AIRY LUNA JT                                        1605
B0101403030441279569001**********                                               1603
A0101403320000000735717BAUTO, GUADA LYNNE C.                                    0501
A1901400160000000243514CONRADO AUGUST AMBIDA BONDAD JR                          0502
A1901400160000015972971MAY F. ARAGO OR                                         10501
A1901400160000015972971NAPOLEON M. ARAGO                                       20500
A1901400160000009055038BONDAD JR., CONRADO AUGUST                              10502
A1901400160000009055038AMBIDA                                                  20500
A1401400110492521817001ZARSADIAS, YBETT TINAMISAN                               0502
A0101407430000005358738YANG, CHI JEN                                            0501
B0101403580000010847351PROMARK PROCESS INTERNATIONAL CORPO                      1603
A0101411790518055764084CASIPE, ANNABE AYALIN                                    0501
A0101403450000000889483*********                                                0503
A0101403610000014268410ARANDEZ, JOSE ERIC TALAWE                                0501
A0101403610531662330001BERROYA, MARK LESTER AMOR  OR                           10502
A0101403610531662330001BERROYA, CONNIE                                         20500
B22014002500000077199993 KIS FOOD STORE CORPORATION                             1601
B22014002500000000169863 KIS FOOD STORE CORPORATION                             1601
A2201400250000001932247CLDH EMPLOYEES CREDIT                                   10505
A2201400250000001932247COOPERATIVE                                             20500
A2201400250000004916194CAJAS, DANTE VALDEZ                                      0501
A0101404130601549433001OLIVAREZ, ROCHELLE NOLASCO                               0501
B0101407720000011874823MEDI LINX LABORATORY INC.                                1602
B0101407720602027024001PHILIPPINE ORTHOPEDIC INSTITUTE INC                      1605
B0101404260611027402002ENTRUSTED CORP                                           1605
B0101404260611065958001QUATTRO BERNARDO CONTRACTORS CORPORATION                 1602
A0101404260611156772001ALINEA, LEONORA OR LENI A PIA                            0501
A0101404260000007498288DE GUZMAN, MARILOU GREGORIO                              0501
A0101409920000000857923**********                                               0501
A0101407690000015972037BALUBAR, ROSSANA DE CANO                                 0501
A0101407690000015971114FERNANDEZ, NELIA SORIANO DBU                            10501
A0101407690000015971114ANNCOLEDREI TRADING                                     20500
A0101413440000002846400STO. DOMINGO, JESSE OR                                  10502
A0101413440000002846400STO. DOMINGO, MARIVIC                                   20500
A0101413990000006768627RODRIGUEZ, BENJAMIN ESTRADA                              0501
A0101413990000001202377ELLEN MAE L. GONZALES OR                                10501
A0101413990000001202377RONALDO AMADOR GONZALES                                 20500
A0101413990000009469441DELA CRUZ JR., EDILBERTO P.                              0501
A0101413990000015973030TILAN, BABERLY QUINTIA                                   0501
B0101414120000001142818CAS PROPERTIES INC.                                      1602
A0101406590000000131648LUNA, ROY ANTHONY CAPISONDA OR                          10501
A0101406590000000131648LUNA, WENDY CASIDSID                                    20500
A1301400210000009982405DE LEON, ANGELICA LUZ TOMAS                              0501
A0101408240711658327001MOROS, MIRAFLOR M. OR                                   10501
A0101408240711658327001MOROS, JOWEL B.                                         20500
A2801400230000009022246**********                                               0501
A4101400550815045531001JR-RK'S PIZZERIA                                         0501
A0101412340000003344210LAARNI S. LIMACO                                         0501
A0101412340000010659959REYMERLENE G. ROLDAN                                     0502
B0101413860000001767980OCEANLINK INSTITUTE, INC.                                1605
A0601400230000006243114CASTILLO, IVY CLAIRE PARUNGAO                            0502
