B0101400440161821100608**********                                               2003
A0101412890470078878001ROBERTO A VILLABROZA                                     0503
A0601400100081358739002CHUA, IRENE ANUNCIACION REYES                           10502
A0601400100081358739002OR REYES, GLORIA                                        20500
B0601400100081675425001VIRTUAL LANDHOLDINGS DEVELOPMENT GROUP                  11601
B0601400100081675425001CORP.                                                   21600
B0201400760000005711104SANDRA YOUNG OR JANICE LORRAINE YOUNG                    1601
A0101412890000001056360AMIDO, NORMA GUEVARA                                     0502
A0101412890000007095152BENAVIDEZ, JOSE RIZALITO SANTOS                          0502
A0101412890000005945071CRISTI, RUSSEL MENDOZA                                   0503
A0601400100081251806002MUNOZ JR., ANACLETO JUICO                                0501
A0601400100081650989001SUMANG, JOYCE PEH                                        0501
B0601400100081791191001TOTAL HYGIENICARE INC.                                   1610
B1301400760000000007121GLOBAL CARS PHILS., INC.                                 1605
A0101411240000001563402ORTIZ, CARLO A.                                          0501
A2001400290000003591100ALTIZA, MAYJORIE NAPITAN                                 0501
B0101412210399062897001VINDICO PROTECTIVE AND DETECTIVE                        11601
B0101412210399062897001AGENCY INC.                                             21600
A2401400180411478374057ELLEN J. DIMACUTAC                                       0502
A1601400170000008078462GIL STA. ANA OR FRANCIS BITARA                          10501
A1601400170000008078462OR JOVEN STO. DOMINGO                                   20500
A0101409890000003098008REYES, VINCENT ALEGRE                                    0507
A1701400230000000097858TAYLAN, ALEJANDRO BAPTISTA                               0501
A1701400230000000097858TAYLAN, ALEJANDRO BAPTISTA                               0504
A0101411370000003548936SANTOS II, VIRGILIO DE GUZMAN                            0501
A0101411370022791173001RAMCHANDANI, MURLI OR NISHA OR                          10501
A0101411370022791173001SAHIJWANI,BHAVAN OR KAPIL                               20500
A0101400150000003162632JAMES ROY D. BARCELONA                                   0501
A0101400150061279089001MILAGROS P. CRUZ                                         0501
B0601400100081034116001FIESTA COMMUNITIES INCORPORATED                          1610
A0601400520000002085792PANGILINAN, SER ANTHONY FRANCO                           0501
A0601400520000004423192CARPIO, SHEILA BORRERO                                   0501
A0101410560000001291021ELEQUIN, IAN RUVEN ARELLANO                              0501
A0101400730111452394001LOPAE, GRACE SAFLOR                                      0502
A0101400730111452394001LOPAE, GRACE SAFLOR                                      0502
B0101406040000000096662CONCEPT SPECIALIST, INC.                                 1606
B0101401830141029955003SHELL EMPLOYEES MULTI-PURPOSE COOP. -                   11610
B0101401830141029955003CREDIT                                                  21600
B0101400440000000337791TOPCOM SECURITY AGENCY INC.                              1610
A0101400440161390124001SOLEMIA C. GAVINO                                        0501
A0101407270000003254026CLEMENTE, SPIRO LU                                       0502
B0101401090171008456001UST-USTFU FACULTY HOSPITALIZATION FUND                   1605
A0101401090171195891002JIMMY DV PAYOT                                           0501
A0101401090171432987001FLAVIANA G. DELGACO                                      0501
A0301400530000001009818SALUTILLO, ALLAN O.                                      0502
A0301400530193567665001APRESA, CECILIA T. OR                                   10501
A0301400530193567665001APRESA, HAZEL MA                                        20500
A3101400450000003739479PESIGAN, ROSALINA AND                                   10501
A3101400450000003739479PAPERA, ELENA                                           20500
B3101400740224041317001CALAMBA PREMIERE INTERNATIONAL PARK                     11615
B3101400740224041317001ASSOCIATION, INC                                        21600
A1001400480000000133428PARRADO, ANGELICA ECHAVEZ                                0501
A1901400290261040973001ICT-ED INSTITUTE OF SCIENCE AND                         10502
A1901400290261040973001TECHNOLOGY, INC.                                        20500
B1901400290261060606001F.J.H. HARDWARE & ELECTRICAL SUPPLIES                    1602
A1901400290000002337613ASYNCRITUS PAMEN ANICETO                                 0501
A1901400290261088814001GIRLIE GONZALES VISPO                                    0502
A1901400290000001363053RUDY B MANGUIAT                                          0505
A1901400290261411419001TERESITA DIMAILIG PERCE                                  0502
A1901400290261412190001DRA RESTITUTA D RIVERA                                   0502
B0101401670271020886001AR INSURANCE AGENCY, INC.                                1602
B0101401670000006812353BLESSINGS 777 INC.                                       1602
A0101406620273477411002ESPINA, NORMA RODRIGUEZ                                  0501
A0101400570281019045001INTRA TIRE RETREADING                                    0505
A0801400160311413609001LIM, JOSEPH PO                                           0505
A0101402350321557382002PARBA, NANCY MUNEZ OR                                   10501
A0101402350321557382002PARBA, JOEL QUIL                                        20500
A0101402350321640781001ELVIRA O. DURA                                           0501
B0101402060351032851001MONARK EQUIPMENT CORPORATION                             1601
A0101402060351211709001MARGARITA B. DINGLASA OR                                10502
A0101402060351211709001ERNESTO D. DINGL                                        20500
A0101402060000000358452SAN JUAN, CARLA LORRAINE CALIWA                          0501
A0201400760000002047143CANOY, JOSEPH LOUIE JEAN MENDEZ                          0501
B0201400760374027591002SUBIC ENERZONE CORPORATION                               1602
A0201400920000001331571GARE, BONIFACIO PERA DBU                                10501
A0201400920000001331571GAREMED MARKETIN                                        20500
A0101408370382042666001TMC DEPARTMENT OF ORTHOPEDICS                            0501
A0101408370382460206001AVELINO, MARIA MAGDALENA SOYOSA                          0501
A0101408400000003120623PEREZ, PAMELA MANECLANG                                  0501
A0101408400000001952770MERIAN B BUERE                                           0501
A0101409180000005326272AVANCENA, ERIKA PILAR FLEUR OR                          10501
A0101409180000005326272AVANCENA, DIEGO ANTONIO                                 20500
A0101409180000004825430BALDO, MARY ROSE DANA                                    0501
A0101409180000006285492JOSEPH MARI V. GARCIA                                    0502
A0101409210000006605450REYNIDA TANDANG                                          0501
A0101409210000007050342HECTOR ESTRELLA                                          0501
A0101412210000005303188LIMJOCO, PAUL ANTHONY GUTIERREZ                          0502
A0101412210000005303199LAGURA, ROLAN GONZALES                                   0502
B0301400820000001554792VIC IMPERIAL APPLIANCE CORP.                             1601
B0301400820000000024911DIGOS DOCTORS' HOSPITAL, INC.                            1620
B5501400120410040530001BLUE CRYSTALS DEVELOPMENT CORPORATION                    1601
A5501400120000002348256VILLORENTE, KRISTINE PRADO                               0505
A2401400180411023998002ENE MARKETING                                            0502
A2401400180411478374027ELLEN PANTUJAN OR                                       10501
A2401400180411478374027ELMER PANTUJAN                                          20500
A0901400220000006214397**********                                               0502
A1901400160491494343001RAINIER C UNTALAN OR                                    10505
A1901400160491494343001RELYN M UNTALAN                                         20500
A1401400110000000132896MORALES, RAIN DBU DIRL AND JANE                          0501
A16014001700000004210690HARLES P. CLEMENTE III OR                              10505
A1601400170000000421069CHARLES L. CLEMENTE JR.                                 20500
B0101405940512038848001JADE ENTERTAINMENT AND GAMING                           11603
B0101405940512038848001TECHNOLOGIES,INC                                        21600
A0101406880000002291790VALENZUELA, MARIA CARMEN LIZARE                          0501
B0101406880513504675001Y-FI CORPORATION                                         1602
A0101408110515349308011ROLANDO E. ESTRELLA                                      0501
A0101408530000002260037************************                                 0501
A0101411400000003750598DR. TWINKY D. BELINO                                     0502
A0101403450521240651001**********                                               0501
B0101403610000003053141VALPARADISO LENDING INVESTOR CORPORATION                 1601
B0101403610531302489001R SQUARE WASTE MANAGEMENT SERVICES                       1602
A0101403610531762081001MIRANDA, SUSAN ESPINILI                                  0501
A0101404000000005039970PASCUA, EISELLE JOY DIEL                                 0501
A0101404130601310589001ANCKERMANN, CARLOS OR                                   10502
A0101404130601310589001CARMEN ANCKERMAN                                        20500
A0101407720602163161002DY, PRUDENCIO DOLORES                                    0502
A0101407720602364154001FRANCISCO, DANILO G., M.D.                               0504
A0101407720602374401001DE GRANO, JOANNE DAVAC                                   0503
A0101404260611151571001*****                                                   10504
A0101404260611151571001*****                                                   20500
A0101404260611524854001CLEMENTE, WILMA RUIZ                                     0502
A0101407690000000495512MARIA BELEN FEDERIZON OR                                10502
A0101407690000000495512JOSE RENEIRIO FEDERIZON                                 20500
A0101407690652207573001GORRA, MARILYN NOVAL OR                                 10503
A0101407690652207573001KRISTINA GORRA D                                        20500
A0101407690652478374044MA. THERESA BACINILLO - DEALERS                         10502
A0101407690652478374044OF SHOECAT INC                                          20500
A0101407690652520766009SHERILL S. LOPEZ - DEALERS OF                           10502
A0101407690652520766009SHOECAT INC                                             20500
A0101407690000000053881********                                                 0503
A0101413570656057648016CHERRY BATION                                            0501
A0101413570656057648095ORLANDO DELA CRUZ JR.                                    0501
A0101414120000000875452RODGE JULIENNE ENTERPRISES                               0504
A0101414120000005252864MVG HARDWARE                                             0502
A0101406590000005305208LEE, EVANGELINE MONDEJAR                                 0502
A0101410300000005237792ZABALLERO, DORCAS FRANCISCO OR                          10501
A0101410300000005237792ZABALLERO, TEODORO ZIALCI                               20500
B1301400210682248659001ASIANLAND STRATEGIES CORPORATION                         1605
B1301400340683398713001***********                                              1601
B0101408240000000832962CARMEL LAND SALES & DEVELOPMENT CORP.                    1610
A0101408240711378646001FELMA C. ONG                                             0502
A0101408240711557097001BANTOC, HERMIS SAGUNI                                    0502
B2801400230000005253612GLOBAL TERMINALS AND DEVELOPMENT, INC.                   1605
B2801400230000005253623GLOBAL HOTEL & LEISURE PROPERTIES, INC.                  1605
A4101400260000001198803NOEL BELINA OR ARLENE BELINA                             0501
A4101400260812386293001DR. LORETA B. ZOLETA                                     0501
A4101400260000003679943TAN, ANGELINA                                            0501
A4101400550000003266982*****                                                    0501
A0101412340000004360412CHRISTOPHER R. LIM                                       0501
A0101406750000006303486OIKAWA, ROZANNE CABRERA                                  0501
A0101406750852081045001RAGAT, GERALDINE DULDULAO                                0502
A0101413860000007110152GONZALEZ, VERONICA SANTOS                                0503
A0601400230000000989962ZHANG, SHAOPENG                                          0503
A0601400230891627261001RAMOS, ANGELITA BAUTISTA                                 0503
