B0101406620273009744001NORCONSULT MANAGEMENT SERVICES PHILS.,                  11602
B0101406620273009744001INC.                                                    21600
A0101405940000004476364MUECO, MA LUISA GARCIA                                   0501
B0101402930381010731001********                                                 1601
A0101402930000003179582GERNALIN, E DBU UNIMAN CONSTRUC                          0502
A0101402930381205350002MARIANO BONDOC/LOURDES MILADEL/                         10503
A0101402930381205350002JUAN MIGUEL BONDOC                                      20500
A0101402770000009247183INOJALES, MARIA JEMM FAYE CANTA                         10501
A0101402770000009247183DBU G.O.I.N.G. GARMENTS                                 20500
A0301400820000002271956COMAINGKING, JESUS B.                                    0501
A0301400820000007372883ABRIL, STEPHEN R.                                        0504
A0301400820000007135060ROSALITA, JEFF MARK LAMPAGO DBU                         10502
A0301400820000007135060JMR ENTERPRISES                                         20500
B0101403320471008859001NEW LITE LUMBER & CONSTRUCTION                          11602
B0101403320471008859001SUPPLY                                                  21600
B0101403320471027450001*****                                                    1601
A0101403320471047588001RHINA JENEPER C. LIBIRAN DBU                            10502
A0101403320471047588001R-GENESIS DRUG STORE                                    20500
A0101403320471402087001CECILIA L. DIAMANTE                                      0502
A0101400150000014288383GONZALES, LADY TRISHIA LOMBOY                            0501
B0101400150000000633221E.M. ZALAMEA ACTUARIAL SERVICES, INC                     1601
A0101410560000000848740ANDO, EMMA BONGAO                                        0501
A0101410560000001944043GOODNESS & MERCY MOVERS                                 10503
A0101410560000001944043SERVICES                                                20500
A5001400170000000045149LACAYA, ROSALIE LEGADOS                                  0501
A0301400790000008015121CADALZO, DENNIS SALOMERI DBU                            10501
A0301400790000008015121ULTRA-GOLD MOTOR                                        20500
A0301400950000008869010PERLAS, MARIELLE DUMAGUIN                                0502
A3001400130000005708545FAYTONE, MARIA FATIMA MAGNO                              0502
A3001400130000010506548RICABORDA, MELANIE C                                     0501
A3001400130000001271341SURALTA, GEGINIA MONTICINO                               0501
A1001400190000008743988OLAIVAR, FATIMA ORBISO                                   0501
B1001400350000007920898NORTH-MIN AUTO DEALERSHIP, INC.                          1603
A1001400480000010131510SO, JIMMY SY                                             0501
A1301400470000003270471MARIA CELINA DJ. SIMON                                   0502
A0101406620273289804001MARY ARLENE P. SATUITO                                   0503
A0101411110000013803737MARIAN LUISA TORRES HUGO                                 0502
A2601400270302631323001MARIA ISABELL R. DULIG                                   0502
A6601400120000004440760CORNEJO, ALLAN GREGORIO                                  0502
A6601400120314415183002UY, CHRISTIAN EMMANUEL WAN                               0501
A2001400290000000046444SOMOZA, MA. CONCHITA ROURA                               0501
A0201400760374682272002OUANO, RUPERTO VILLAFLOR OR                             10501
A0201400760374682272002JAYME, STEPHEN R                                        20500
A0201400920375622087001SIANGCO, FELIPA YUSON                                    0502
A0201400890000000028015*****************                                        0501
B0201400890376065371001EU MEJORA INC.                                           1601
B0101402930381040455001R & S LAW OFFICES                                        1603
A0101408370382205140001DR. PAULA  A. ALONZO OR                                 10502
A0101408370382205140001DR. DANIEL M. ALONZO                                    20500
A0101408370382416284001DR. BERNARDITA O. POLICARPIO OR                         10502
A0101408370382416284001DR. REUBEN D. POLICARPIO                                20500
A0101408370382488821001DR. ROSALYN C. SARMIENTO                                 0501
A0101402770000012616261HEATHER JO GIL ABANALES                                  0501
A0101408400000014148693DAISOG, ALVIN GERONIMO                                   0501
B0101408400394027524001SAINT JO FLORAL DESIGNS & DECORS                         1602
A0101408400000006129193HERNANDEZ, AMANDA BEATRICE VENE                          0501
A2401400180000000073590GUMBOC, LUALHATI CONSTANTINO                             0501
A0101412890000001056495RIVERA, GOLDWYNIE CAOILE                                 0501
A0101412890000009833952CHU, MARITA MONTEMAYOR                                   0505
A0101412890000000371599COBO PAVILLION                                           0502
A0101403320000001646777MYRNA M. CRISOSTOMO                                      0501
B0101406330000001235090MONTESSORI AT WORK PRE-SCHOOL                            1602
A3801400170000011559778CAGALFIN, JIMMY ALMARIO                                  0501
A0701400260000003259432ZAMORA, JULIUS SOPENA                                    0504
A0101403580000014283279ALBO, SHAINE LOREN ARENILLO                              0501
A0101403580511152927002ANTONIO O. MACEDA JR. OR                                10502
A0101403580511152927002PERLA C. MACEDA                                         20500
B0101403450521011968001**********                                               1602
B0101403450000011473675***********                                              1610
B0101407720000006028166MEDGATE PHILIPPINES, INC.                                1602
B0101407720000006945293MEDGATE (PHILIPPINES) HOLDINGS PTY                      11601
B0101407720000006945293LIMITED                                                 21600
A0101407720602305215001DR. ROMAN J. NAVARRO                                     0505
A0101407720602397470001DR. ELIZABETH IFURUNG-GONZALES                           0501
B0101404260611038904001REYESHEN PRINT AND OFFICE                               11601
B0101404260611038904001SUPPLIES                                                21600
A0101404260611340122001SYQUIMSIAM JR., JOSIAS ESPINOLA                          0501
A0101409890000003097972MELENCIO, BENNET                                         0502
A0101409920000000857990QUIZAN, ROMANA C. OR                                    10502
A0101409920000000857990GORRE, RODELYN Q                                        20500
A0101407690652443947001NOLIBETH L. RUELOS OR                                   10501
A0101407690652443947001VINCENT A. RUELOS                                       20500
A0101411530000006792381REYES, JOSINE SANDEJAS                                   0501
A0101413570000002906578DIVEREP GENERAL MERCHANDISE                              0502
A0101413990000014292178GOCHANGCO, AVELINO DULIG                                 0501
B1301400210682041444001SYCLOR CONSULTAX INC.                                    1602
A1301400500000000213436ROSALINDA P. CASTILLO                                    0501
A1301400500684066373001REDBUCK'S COFFEE SHAKES                                  0501
B4101400260812012608008ROTARY CLUB OF DASMARINAS                                1601
A4101400260812396084001JOSEFINO S. REBANCOS, M.D.                              10505
A4101400260812396084001LIGAYA S. REBANCOS M.D.                                 20500
