B0101410720210821100608**********                                               2005
A0101410720653475723001LIWAG, NATHANIEL NUNEZ                                   0502
A0101408400394160344001CALMA, ALFREDO MATAGA                                    0510
B0101400730000001242682TOULOUSE FOOD SERVICES INC.                              1605
A3001400130000001261283LIM, EDGAR ALLAN DIAZ                                    0502
A1001400480000003357500SALVACION JR., DIONISIO CAINGLE                          0502
A1001400480000011810238LAO, CHERRY ESTOQUE                                      0502
A1101400120313478374116MASIN, NANCY KELISTE                                     0501
A0101402350000012300211SWIFT, LILIFER ORTIGUESA                                 0501
B01014023503210067510010SM SHIPPING PHILS., INC.                                1610
A0101400860011425148001**********                                               0502
A0101401250000011296850NEGRIDO, JANNIE LEANO                                    0501
A0101401250000016724260****************                                         0501
A0101401250001120001147SEBALLA, CHERRY ANN TRIBACO                              0502
A0101401250000008460019TIBAJIA, JOSEFA S. OR                                   10501
A0101401250000008460019ZAFRA, MARIE JOSEPHINE T.                               20500
B0101400150061010736001SPCASTRO, INC.                                           1607
A0101400150061380452001EUGENIO, JUDDEUS ABADILLA                                0502
A0601400100000007250600SARITA, V DBU JT VCREATIVE                              10505
A0601400100000007250600PRINTING                                                20500
A0601400520000001349559PINEDA, JIM CARLO                                        0504
A0601400520000003009309DE LEON, RENATO ESTACIO OR                              10501
A0601400520000003009309MANGIRAL, JOCELY                                        20500
B0601400520000000398636PARE, MELVIN SICAT DBU MEDTRUST DIA                      1605
B0101414090000007344443D' UNIVERSITY PLACE CONDOMINIUM CORP                     1602
A0101410560000013688754ANTE, PETER CARTAGENA                                    0501
A0101400730000005317146CASTRO, JACQUELINE DIAZ                                  0502
B0101400730000000002591*****                                                    1601
A0101400730111386485175IVANHOE O. MARASIGAN                                     0502
A0101400730111588315001AGIR, NATHANIEL Y. OR                                   10503
A0101400730111588315001JARDIOLIN, MAJAR                                        20500
A0101413150000000082608MAGADIA, RENO IGNACIO                                    0501
A0101412630000004061954ESPARAGOZA, MARLON ESCALANTE                             0501
B0101401830141029482001ONE BODY CHRISTIAN MINISTRIES INC.                       1601
A0101400440161525001105VIRGIE B. CRUZ                                           0501
B0101407270162036585002STA. MARIA INDUSTRIAL PARK CORPORATION                   1610
A0101401090171054285001EBD REAL ESTATE LESSOR                                   0505
A0101401090171195723001LETICIA DEL ROSARIO OR                                  10501
A0101401090171195723001DELFIN DEL ROSARIO                                      20500
A0101401090171195733001JOEHANNA KHO NGO OR                                     10502
A0101401090171195733001WILLIAM NGO                                             20500
A0301400530000005300310DE VEYRA JR., ALFREDO BARDOS OR                         10506
A0301400530000005300310DE VEYRA, LUCIANA BARDOS                                20500
B0301400660000003361971IMAGE CARS DAVAO, INC.                                   1610
A0301400660000016080330*****                                                    0501
A0101401380201545113002*************                                            0501
A0101401380201577691001GATO, EDNA CABANGON                                      0503
A0101413020000006295167REBOLLIDO, ROWENA CACAS                                  0502
A0101410720000004626380**********                                               0501
A0101410720653624279001FLORES, LEANDRO PAUL BELTRAN                             0501
A0101412500000017831557JAMISOLA, EVAMONA DELA CRUZ                              0501
A0101412500000017894267DE LEON JR., OSCAR PANLILIO                              0501
B0101412500000017256801MRF - ITECH INC                                          1601
B0101413600000000206915LEGEND OF ICE RECRUITMENT                               11606
B0101413600000000206915& SERVICES INC.                                         21600
A3101400450000003072539AZORES, NANILO CABELA OR                                10501
A3101400450000003072539SAHAGUN, ANGELIT                                        20500
A3101400450000014311723BASILIO, SHIRLEY CEREZO DBU                             10502
A3101400450000014311723ROOFLINE TRADING                                        20500
A1001400190000001057498LIGTAS, JOSE CALALIN OR LIGTAS,                         10502
A1001400190000001057498MARIA CRISNA MARGAJA                                    20500
A1001400190231342333001BUSGANO, HIPOLITO S.                                     0503
A1901400290000014042438MYLA AGUILERA VILLANUEVA                                 0502
A0101406620000013961823*************                                            0501
A0101406620273477411002ESPINA, NORMA RODRIGUEZ                                  0501
B0101411110000000604891NICHE PLAY INTEGRATED MEDIA INC.                         1602
A0101411820000005709920GRAFIL, CATHERINE TERESA                                10501
A0101411820000005709920VILLARANDA                                              20500
A0801400160000011336553SO, JAN LAWRENCE GO                                      0503
A1101400120000001920667CAMENFORTE, NEIL MONASTERIO OR                          10502
A1101400120000001920667CAMENFORTE, ELKE SHARON P                               20500
A6601400120314678477001GARROTE, LYEAN CAPOQUIAN                                 0501
A2001400290000003961693UYCHIAT, JOHN CARLO MOTOOMULL                            0503
A2901400130000009072106PANIQUE, MYLENE BAUTISTA DBU JI                          0503
A0101402350321456633001JOY ANNE F. TRINIDAD OR                                 10501
A0101402350321456633001DON PAUL F. TRIN                                        20500
A0101402060000000562065ARGANOSA, MAGDALENA LYN SARZUEL                          0502
A0101409050000017374860DIMLA, AUGUST PAGBA                                      0502
B0101409050000013167749RCE GLOBAL CONSTRUCTION INC.                             1602
B0101409050000015856623PRESTIGE KAMPFSTARK PHILIPPINES, INC.                    1603
A0101409050000015274161SHIRLEY G. ONG                                           0501
B0201400890376013530017RD PAWNSHOP, INC.                                        1610
A0201401020000000055996MAGALLANES, ALPHA ALICANTE                               0502
B0101402930381039931001FIRST ASIA AGRI-INDUSTRIAL RESOURCE                      1602
B0101402930381040001001TURQUOISE TRAVEL & EVENTS                               11602
B0101402930381040001001MANAGEMENT CORP.                                        21600
A0101408370382341825001DR. MAY N. AGNO                                          0501
A0101408370382685982001MICHAEL JOHN FRANCIS GASTON OR                          10504
A0101408370382685982001RETSIEL LORRENZ                                         20500
A0101402770000017233073TUNGOL JR., ALBERTO ALBAN                                0501
A0101408400000017480430BERAN, ARIEL PEREZ                                       0501
A0101408400000001614791DECORMATES INTERIORS SALES AND                          10505
A0101408400000001614791SERVICES                                                20500
A0101408950000000776785AMANTE, ANGEL JOAQUIN MANUEL                             0502
A0101408950000010888807JAMES MICHAEL C. LAYON                                   0501
A0101408950396498542002DR. RIZAL ALBERTO B. NOLIDO JR.                          0502
B0101408950396564292001*****                                                    1601
A0101408950396567114001CESAR JOSEPH CURAMENG GLORIA                             0501
A0101408950396572239001PUYAT, MARIA LUISA TICZON                                0505
A5501400120000002019023PINGOY, ALBERT YUSAY                                     0503
A5501400120000014838663FARROFO, ROSE MARIE CRUZ                                 0501
A5501400120000002348392DARAUG JR., RICARDO DELOS REYES                          0501
A2401400180411550540003CATULPOS, YELCY & QUINTOY,                              10505
A2401400180411550540003YENTEZ & ABELIS, AIMEE                                  20500
B0901400220432750068001NOCOM, JOSELITO GABRIEL                                  1601
A5101400100000010371278PAGAS, NELIA TECSON DBU N. PAGA                          0502
B0101403030441029489001**********                                               1606
A0101403320000014818632CALAQUIAN JR.,  RUBEN NUGUID                            10505
A0101403320000014818632DBU DBC BUILDERS                                        20500
A0101403320471078260001JOSON III, TOMAS NORIEL                                  0503
A0101406330000011106082ABEL, SIMON PETER MIRABEL                                0501
A0101406330000014144986ALVAREZ, BRENDA MAALIHAN                                 0503
A0101406330472564594001MORALES, MA. CORAZON MATULAC                             0501
A1901400160000000243514CONRADO AUGUST AMBIDA BONDAD JR                          0503
B1901400160491249313001BEEPER LENDING CORPORATION                               1601
B1401400110492046339001SOUTHERN QUEZON PACIFIC OIL MILL                        11608
B1401400110492046339001CORPORATION                                             21600
B0101407430503028651001TMC TRUCKING SERVICES                                    1601
A0101407430503736499001CECILIA R. NALAUNAN                                      0502
B0101403580000004558750ECOSSENTIAL FOODS CORP.                                  1605
B0101403580000000383802GRAMONO PROPERTIES AND DEVELOPMENT                      11601
B0101403580000000383802CORPORATION                                             21600
A0101405940000017880794DE GUZMAN, JEREMIAS PATAO                                0501
B0101405940000008478873AUTOBRANDS MEDIA VENTURES, INC.                          1602
A0101408530000001268662BITE, MARIA KRISTINE NADIA B                             0501
A0101408530000008766641CASTILLO, CHRISTIAN MANUBAG                              0501
A0101412050000017094958CAUILAN, PRINCESS HANNAH LUTERO                          0502
A0101403450000001638075ACUNA, TERESITA CABRERA                                  0503
B0101403610000017859062SUGLANI LENDING CORPORATION                              1601
B2201400250000009913260L5 & SONS FINANCING CORP.                                1606
A0101407720000017880750CUNTAPAY, NOELLE ROSE JUEN                               0501
A0101407720602166653018LUCITA F. SULIAN                                         0501
A0101407720602405364001YATCO, MARIA LOURDES GARCIA                              0504
A0101404260611478374109ANGELITA SIQUIJOR                                        0501
A0101407690652478374131TARROQUIN, NORA - DEALERS OF                            10501
A0101407690652478374131SHOECAT, INC.                                           20500
A0101413440000015041511MOLAS, ROSE FRANSES CALUNOD                              0501
B0101413990000000206146CHEN KHARECE TRADING CORP.                               1602
A1301400340000005264995DEL ROSARIO, RUSSEL FRANCISCO                            0502
A1301400500000012913252********                                                 0503
A1301400500000002063992JOSHUA & JAMES CONSTRUCTION                              0502
A0101408240000011487240CAMBAY, KRISTINE ALMA CONTRERAS                          0501
A0101408240711557097001BANTOC, HERMIS SAGUNI                                    0505
A0101408240711584127001LOPEZ, JENNIFER OR                                      10501
A0101408240711584127001SIXTO EMMANUEL RAMON                                    20500
A2801400230000000937479MANLAPAZ, GLECER CONSTANTINO                             0502
B2801400230000000008404A CHILD'S TRUST IS OURS TO NURTURE                      11601
B2801400230000000008404(ACTION), INC.                                          21600
B2801400230000009021812A CHILD'S TRUST IS OURS TO NURTURE                      11601
B2801400230000009021812(ACTION), INC.                                          21600
A2801400230000012228403TUBBAN, MA ESPERANZA ANNA LYN D                          0502
A4101400420000014667640TWANO, JOCELYN M                                         0501
A4101400550000011973438VILLANUEVA, IRENE VILLAN                                 0501
A0101412340000002266811PACETE, MARK ANTHONY DEMA ALA                            0502
A0101404840851415679001AMORES, ROSEMARIE B.                                     0502
B0101406750000010166480SKYDORM REALTY ENTERPRISE CORPORATION                    1601
A0101406750000005666817CDB ACCOUNTING AND TAXATION                             10502
A0101406750000005666817SERVICES                                                20500
B0101406750000007097205PEECHEY & POSH NAIL SPA                                  1601
A0101406750852236873002SISORA OLGAH ELUMIR                                      0501
A0101406750852669100001DUDANG, VICENTA TOLENTINO                                0501
A0101405070000017717752SHERRI ALIANGAN QUELIZA                                  0501
B0101405070000014538760THE CONFLICT RESOLUTION GROUP                           11602
B0101405070000014538760FOUNDATION INC                                          21600
A0101405070861476115001MA. MILAGROS ABRAJANO REYES                              0503
