A3101400870225069990001SANGGALANG, FORTUNATO B. DBU                            10501
A3101400870225069990001GREENVALI MARKETING                                     20500
A0101414120000016395347*****                                                    0503
B0101407720602015710001MMC MANAGER'S COUNCIL LOAN ACCOUNT                       1601
A0101407720000003099132DAVID HAROLD OR KATERINA TANYA                          10503
A0101407720000003099132GOSIENGFIAO                                             20500
B7201400170152821100608**********                                               2002
B0101407270162021675001***************                                          1620
B0101407270162040113001EVERGREEN ENVIRONMENTAL RESOURCES INC.                   1605
A0301400950000002252080AYUSTE, ARACELI LANOY                                    0505
A0301400950000006080155SANDOVAL, STEPHEN LU                                     0502
B0101402350000000655492RD PAWNSHOP, INCORPORATED                                1610
B0101402350000000046051ALLSTUFF TRADERS INC.                                    1603
A0101402930381205168001DR. JOSE BAYANI OR JOSE ANTONIO                         10510
A0101402930381205168001OR JOSE KARLO ALILING                                   20500
B2401400180411715947168YAP, LUCENA MANLUNAS OR YAP, WILLIAM                    11602
B2401400180411715947168SERATO                                                  21600
A0101407720602396602001CAMPOS, GERALDINE DE JESUS                               0503
A0101400860011533026001**********                                               0502
A0101400860011686506001**********                                               0503
B0101401250021031012001GM GALES GENERAL MERCHANDISE                             1602
A0101400150000016750551ABELLANOSA, LOUIES PAOLO MAGSIN                          0501
B0101400150061040558001CORDILLERA EXPLORATION CO., INC                          1601
A0101400150061226639003MA. CRISTINA A. TINGSON      JT                          0502
A0101405810000015531183**********                                               0502
A0601400100000019034192MONTEMAYOR, PAUL RAMOS                                   0501
A0601400100000012797372MANUNTAG JR, LUCENDO DAVID                               0501
B0601400100081013322001LACTO B INCORPORATED                                     1604
A0601400100081358072002NOEL C. DAVID                                            0505
B0601400360000003186714BSD TRADE SERVICES CORP.                                 1602
A0101413280000015734633MEDINA, ALLAN DEL CASTILLO                               0502
B0101414090000013005491E.C. POBLETE PORK AND MEAT SHOP                          1601
A0101414090000011598044ECHEVARRIA III, LEOPOLDO PERALT                          0504
A0101400730000000833396CARBONELL, LEVINA IBALE                                  0502
A0101400730000008478042CASTILLO, ERLANDO P. OR                                 10501
A0101400730000008478042CASTILLO, MILDRED R.                                    20500
B0101400730000016752193HUTCHISON-1 LOGISTICS INC.                               1602
B0101412630000007157715BERNAL AND VILLAREAL AND REJAS AND                      11603
B0101412630000007157715CALINGACION                                             21600
A7201400170000007185853DACAL, GARY CAPACIO                                      0502
A7201400170000009673210DE CASTRO, ROMALYN PARANAL                               0504
A7201400170000011454334TRIA III, PETE ARNEJO                                    0501
A7201400170000009463896KAY ARLYN P. MERLIN DBU MOTHER                          10501
A7201400170000009463896& BABY CARE LYING-IN                                    20500
A5001400170000013661133REGENCIA, MA. MANILONA JAMAICA                           0501
A0101412920000019050405CONTENIDAS, HALLEL DBU MOSIBABA                         10502
A0101412920000019050405COMMERCIAL SPACE RENTAL                                 20500
A0101400440161039572072MEDITA P. ALIMPUANGON                                    0501
A0101400440161520766083ROWENA B. DAVID                                          0501
A0101400440161625470001KRISTINE A. CECILIA                                      0501
A0101401090171335675001ANNIELYN I. CAAG                                         0501
A0101401090171546320001CHARITO P. MALONG                                        0503
A0101401380000010190313FLORES, MA. CLARISSA ALCAUSIN                            0501
A0101401380000002297550**********                                               0501
A0101413020000006295890VEGO, CHERYL SORIANO                                     0501
B0101410720000005786769XCELTEK, INC.                                            1601
A0101410720653175565001GALINDO, FLORELLO CASTANEDA                              0501
A0101410720000017581223TOLIBAS, ARLENE SIBALA                                   0502
B3101400160000010010763MOTORCENTRAL NCR CORPORATION                             1605
A3101400450000011907561AVANZADO, GRACIA GUERRA                                  0502
A3101400450000016704455NAVATA, CAREN LUISTRO                                    0501
A3101400740000006735824GARCIA, EMILY B. DBU MMA EVENTS                         10502
A3101400740000006735824SPECIALISTS AND CATERING                                20500
B1001400190231064343001NORTH MIN. YAN-YAN MARKETING CORP.                       1605
A1001400350000000922058ARENO, ANN JANE BUCO                                     0502
A1001400350000017316837ELUMBA, AGNES D DBU A AND S ENT                          0501
B1001400350233041564001INFORMATICS COMPUTER INSTITUTE CAG. DE                  11605
B1001400350233041564001ORO CENTER, INC.                                        21600
A1301400470000000061463MARIA ELNORA DE GUZMAN DEUS                             10505
A1301400470000000061463OR ANA LIZA VELARDE TAGO                                20500
A1301400470000005394436SHELLA MARIE C. SANTOS                                   0502
A1301400470000013689917CAB-DEL PAINT CENTER                                     0501
A1301400470000003270453CHRISTIAN VINCENT R. SALAZAR                             0502
A1901400290000011794582ARGONZA, MARIELLE JOY TAMAYO                             0501
A0101401670271338381001MA. ANNALIZA A. BARTOLOME OR                            10501
A0101401670271338381001DINO ANTONIO BAR                                        20500
A0101406620000017765303MUSA, VANESSA KATHLEEN DAMASCO                           0503
B0101406620273033463001ARL BUSINESS CONSULTANCY, INC.                           1602
B0101406620273039746001MANTA ENERGY, INC                                        1602
B0101406620000000015221JOURNEYS AND DISCOVERIES, INC.                           1601
A0101408660000014999003SO, MARISSA GO OR SO, MICHAEL                           10501
A0101408660000014999003ISAAC B.                                                20500
A0101411110000012643599GIOCA, PHILIP ANGELES                                    0501
B0101411110000013536551TALENTVIEW INC.                                          1602
B0101411110000013536562TALENTPATH INC.                                          1602
A0101411820000004981762ALBAN, NYMPHA MARIE LUCERO                               0502
A0101412470000005380365GUTIERREZ, JANINE MARIE                                 10501
A0101412470000005380365ELIZABETH                                               20500
A0101400570000014837386SANTOS, GERALD JEFFREY BARRETTO                          0501
B0501400200000006444813CRJ 620 QUICK LOANS CORP.                                1605
A2601400270302657810001UY III, JOAQUIN BENITEZ                                  0505
A3401400280000003309242BICLAR JR., ALBERTO ALMASOL                              0501
A2901400130000005961253YABUT, MARK ARBUES DELA CRUZ DB                          0502
A0101402510341198339002SOLINA M. ALER                                           0501
A0101402510341199178001JAMES LORETO C. PISCOS                                   0504
A0101409050000005364370RACHELLE B. RESURRECCION                                 0501
B0101409050000013167790EBUENGA, KATHLEEN ANN DELADIA DOING                      1602
B0201400760000005711104SANDRA YOUNG OR JANICE LORRAINE YOUNG                    1601
A0201400760000018278294TIBON, SHARON BENAVIDES OR                              10501
A0201400760000018278294TIBON, JEROME GIL L                                     20500
B0201400920000000007963THE PERSIMMON CONDOMINIUM CORPORATION                    1605
A0201400920000002804504BARENG, NATHALYN C.                                      0502
B0201400890000005491363ECC SCHOOL OF GLOBAL COMMUNICATION                       1602
B0201400890000007877294WEBIKE PHILIPPINES CONSULTANCY SERV                      1601
B0101402930000003734861POLICARPIO & ACORDA LAW OFFICE                           1602
A0101408370382592860001ANGELINE S. TINGA                                        0502
A0101408790000005169171MAGISTRADO, GENE CHARLES BERTIJ                          0501
B0101402770391009346001R.D. SAMANIEGO ROOFING CORP.                             1602
A0101402770391338470001ALARCON, EMELITA DE LEON                                 0501
B0101405490000016418401MJK LENDING CORP.                                        1601
B0101405490392518855001ISABELLE ROYAL HOTEL & SUITES INC.                       1603
B0101408400000010906380RAYTECH DATA PROCESSING CORPORATION                      1601
A0101408400000010394237YONGGONG BUILDERS                                        0505
A0101408400394401840001SUSANA S. MILAN                                          0501
A0101408400394639219001ROMERO, FRANCISCO GABION                                 0501
B0101409180000000036644THE TABLE GROUP, INC.                                    1620
B0101409180397063136001COFFEE TABLE INC.                                        1620
A0101409210000013276483MELARPIS JR., ROGELIO GAN                                0501
B0301400820000010907127CORTES, LIZA HONG OR                                    11603
B0301400820000010907127LEYSON, JEMMY L.                                        21600
B0301400820000000024911DIGOS DOCTORS' HOSPITAL, INC.                            1620
B0301400820000010546335MEDICAL CENTER OF DIGOS COOPERATIVE                      1610
B2401400180411036926002JY ENTERPRISES, INCORPORATED                             1602
B2401400180411039574001ROS JETTI STATION                                        1601
A2401400180411478374054LUENGO, IMELDA AMPO                                      0502
A1201400150000016104362DULNUAN, ALPINE SILOT                                    0502
A1201400150000017293039CAOILE, MARY FLOR PAREDES                                0501
B5101400100000016393830RICO, MICHELLE GALENZOGA OR RICO, CONRAD                11605
B5101400100000016393830O CORDOVA                                               21600
A0101403030441393652001UY, HENRY                                                0501
A0101412890000002324152BASWEL, EPPIE MERIS                                      0501
A0101412890000005945093FRANCISCO, DOJIE DIZON                                   0502
A0101412760000001399799GONZALEZ, LEN JOSEPH ABELLA                              0501
A1901400160000019051419CHUNG, SHINOBU PREDILLA                                  0501
B1901400160000016900919AGIEKO CORPORATION                                       1601
B1401400110492031376001LUCENA WHEELER ENTERPRISE INC.                           1603
A0701400260000014169241DE LOS ANGELES, MARINA APONGOL                           0502
A0701400260000015110442SAAVEDRA, MAE CATHERINE OR                              10501
A0701400260000015110442SAAVEDRA, RYAN NELLASCA                                 20500
A0101405940000016882112FRANCISCO, ANTHONY MANAOIS                               0502
A0101408530000010580195ARANA, LYNDON JAY VILLARAZA                              0502
A0101408530516543430011HIBIONADA, ERELYN BATALLA                                0501
B0101412050000007801483BUENA RICH COMMISSARY CORPORATION                        1604
B0101403450521011954001*********                                                1603
B0101403450521033777001**********                                               1610
A0101403450521238303001CATHERINE L. YOUNG &/OR                                 10501
A0101403450521238303001RITA L. YOUNG                                           20500
A2201400250000013859204VILLAMOR, MAY GACUTAN                                    0502
A2201400250000013859766CARLOS, ARMANDO STA MARIA OR                            10503
A2201400250000013859766CARLOS, SULITA HERNANDEZ                                20500
B0101410690000006663610DRAF OFFICE FURNITURE CONCEPTS INC                       1605
A0101407720602364154001FRANCISCO, DANILO G., M.D.                               0502
A0101407720602397464001CESARIO, RODRIGO GONZALES                                0505
A0101407720602566684001CHU, MICHELLE CHAN                                       0502
B0101412180000008320089WELCOME WORLDWIDE INC.                                   1603
B0101404260611023318002EUNEE TRADERS AND CO. INC.                               1604
A0101413440000004882931DEL ROSARIO, MARCOS VALENTIN                             0502
A0101413570000013901281PEREZ, GRACEILL JUDYCERY MOJICA                          0501
A0101413570000017626201YAP, ERNEST WILLIAM SANGALANG                            0501
B0101413570000000206482E SOURCE SYSTEMS DEVELOPMENT COOPERATIVE                 1610
A0101413570656057648126JUN GU                                                   0501
A0101413990000005252562VILLAREAL, ETHELINE GUANZON                              0504
A0101413990000017645800SALAZAR, MARILEN HUFANA                                  0501
A0101414120000000398910REYNOSO, ALMA VILLANUEVA                                 0501
A0101406590000018403306SANTILICES, EDWARD IGNE                                  0502
A1301400210000011696236VALERIO, MA. ROWENA EMFLORGO                             0504
A1301400500000011254349MYLENE L. VELASCO                                        0501
A1301400500000019052827R.M. HIZON ACCOUNTING SERVICES                           0501
A1301400500000004093087ME-ANN'S EGG DEALER                                      0505
B1301400500684821100608**********                                               2002
A1701400230000012227600DELA CRUZ, ANA MARIE BARANGHAY                           0501
A0101408240000006600131SANTOS, GLENDA BRODETT OR                               10501
A0101408240000006600131BROWN-ARANETA, MICHELLE                                 20500
B0101408240711028488001INTAS DESTINATION MANAGEMENT INC.                        1610
A0101408240711432303002PADILLA, BERNADINE BALUYUT                               0501
B2801400100712017643001MAGELLAN'S GALLEON MARINE, INC.                          1605
B2801400230000005253612GLOBAL TERMINALS AND DEVELOPMENT, INC.                   1605
B2801400230000005253623GLOBAL HOTEL & LEISURE PROPERTIES, INC.                  1603
A4101400260812478374062SUNNY G. CAPORADO                                        0502
A4101400390000001732565JOSIE L. BOSITO                                          0502
A4101400420000015978133MENDOZA, RITCHEL H DBU MTLAB                            10501
A4101400420000015978133MEDICAL & INDUSTRIAL CLIN                               20500
A4101400420000003309015MARICHU E. DE GUZMAN                                     0501
A4101400550815067658001FATHERS' KITCHEN FOOD TO GO                              0501
A0101412340000004877392FREDRICK ANTHONY M. ROJAS                                0501
A0101406750000004642313QUEVEDO, MONALISSA MAYE MARCELI                          0502
B0101406750000007097238PRIMA CASA LAND & HOUSES INC.                            1610
A0601400230000017863660TORIO, MANNY CANLAS                                      0501
B0601400230000010299211RD PAWNSHOP, INCORPORATED                                1610
