F4101400420814012768007UNIDA CHRISTIAN COLLEGES, INC.                           2602CKR
F0101402480000008518047TOPMARK STEEL CORP                                       2605CK1
F0301400820000008105593DAVAO MEDIQUEST HOSPITAL, INC.                           2601CK1
F0101405940512507335001TRIANON DIAGNOSTICS, INC.                                2605CKR
F0101411790518021912001NORTH STAR INTERNATIONAL TRAVEL                         12605CKR
F0101411790518021912001INC.                                                    22600CKR
F1701400230693714245001VISIONAIRE, INC.                                         2610CKO
