F0101407720602386725002COLOMA, FAY AGARPAO                                      2504CKO
F1301400210682496862001ROSARIO C PEREZ   OR                                    12502CKO
F1301400210682496862001EDGARDO J PEREZ                                         22500CKO
F0101411820000000477481MORPH ANIMATION, INC.                                    2602CK1
F0101404260000000550343TOP MOVER BUSINESS SOLUTIONS IN                          2602CKR
F0301400110191040022118BANANA TELECOMMUNICATIONS, INC.                          2602CKR
F0301400110191040022178BANANA TELECOMMUNICATIONS, INC.                          2602CKR
F0101408400394030029001KEVIN'S KUT BARBERS, INC.                                2602CKO
F0101404000551018247002SOLUTIONS EXCHANGE, INC.                                 2605CKR
F0101404130601031677001CARRIEDO TOURIST DEVELOPMENT INC.                        2610CKO
F0101404130601033491001TOURIST ACCOMMODATION DEVELOPMENT INC                    2605CKO
F0101404130601033491002TOURIST ACCOMMODATION DEVELOPMENT INC.                   2605CKO
F0101404130601465803001ARTHUR C. KING JT                                        2610CKO
F4101400260812031790001SY ON INC.                                               2610CKO
F4101400420814012768007UNIDA CHRISTIAN COLLEGES, INC.                           2602CKR
F1001400480000000133600INDORAMA VENTURES PACKAGING (PH                         12601CKR
F0101406620273037433001QUADCORE CONSTRUCTION &                                 12606CKR
F0101404130601025271001LIBERTAD TOURIST DEVELOPMENT                            12610CKO
F0101404130601465827001KING, ARTHUR OR MARIA MARTA APOLONIA                    12610CKO
F1001400480000000133600ILIPPINES) CORPO                                        22600CKR
F0101406620273037433001DEVELOPMENT CORP                                        22600CKR
F0101404130601025271001INCORPORATED                                            22600CKO
F0101404130601465827001KING OR ESTRELLA                                        22600CKO
