A0801400160000000009492LORING, MARIA IA JOY ESPINOSA                            0502
A1301400210000000023321MAGNOLIA P BERNARDINO                                    0505
A0101402480000000045850*****                                                    0502
A0201400920000000048202SILO FOOD TRADING                                        0501
A0101408660000000059783**********                                               0501
A0101401250000000460564EVANGELISTA, ELAINE DEL ROSARIO                          0502
A0101408950000000776570GRAGEDA, CHRISTOPHER JAVIER                              0502
A1001400350000000922058ARENO, ANN JANE BUCO                                     0501
A3101400870000000957746FELIX, MALINDA DAGUIO                                    0501
A0101409920000000998707ANTONIO, JOANN DOMINGO                                   0501
A0101407430000001028773ELAINE S. CANLAS                                         0501
A0801400160000001031376GEROCHI, ROMEO PASQUIN                                   0501
A0601400230000001062491SALENGA, MIRASOL BOGNOT                                  0502
A0101408400000001213432VIRAY, JOHN ANTHONY CACDAC                               0501
A0101401830000001281943ISUGA, CORAZON JOY TEANO                                 0501
A0301400950000001379119FRD PRINT WORKX                                          0505
A0101408400000001614693ELICARL SALON                                            0501
A0101400570000001681745*************                                            0502
A0101401380000001819850********                                                 0501
A0101408400000001855381ABSA BUILDERS                                            0501
A0101408400000001855416EBRON, ANA LEA SADIA                                     0501
A0101406750000002040260TOLENTINO, ROSALINA SABATER                              0501
A4101400420000002084442NERIZA C. ORBASIDO                                       0502
A0101409180000002252580LAUREAN, RENATO HIDALGO                                  0502
A0101413150000002299370******                                                   0502
A0101402480000002307153***************                                          0502
A0101407720000002693116PUNO, MARIA PATRICIA ANN TANEDO                          0501
A0101409210000003297530ARTHUR POLICARPIO                                        0501
A0101409210000003297541RECHELLE BERGONIA                                        0501
A0101409210000003297552JOSE BANTIGUE                                            0501
A0101409210000003297563OLIVER  CRUZADO                                          0501
A0101409210000003297574RAYMON CAYABYAB                                          0501
A0101409210000003297585LUZVIMINDA ALOROY                                        0501
A0101409210000003297596TRICIA ELAMPARO                                          0501
A0101409210000003297603RUEL GRAJO                                               0501
A0101409210000003297610DANA ESTRADA                                             0501
A0101409210000003297621JOHN JOSEPH MORFE                                        0501
A0101409210000003297632JOSEPH BRYAN BATERNA                                     0501
A0101409210000003297643EDUARDO CALAMBRO JR.                                     0501
A0101409210000003297654KRISTEL ANN BALBIDO                                      0501
A0101409210000003297665JENNIFER BATUCAN                                         0501
A0101409210000003297676JEREMY PAUL OBIAL                                        0501
A0101409210000003297687MA CRISTINA MAPOY                                        0501
A0101409210000003297698KATHLEEN JOYCE LIM                                       0501
A0101409210000003297701JHENSON RAE MEDRANO                                      0501
A0101409210000003297712NINO ALEJANDRO CHUNG                                     0501
A0101409210000003297723MARIA D. GERONIMO                                        0501
A0101409210000003297734VANESSA ESQUIBAL                                         0501
A0101409210000003297745LORENZ LOMERIO                                           0501
A0101409210000003297756ENZO RONQUILLO                                           0501
A0101401700041042636001******                                                   0502
A0101401700041192415001TIU, RAMON CASTRO                                        0501
A0101411080042241020001 *****                                                   0502
A0101411080042759582001 *****                                                   0502
A0101400150061341283001DIAZ, CYNTHIA MARTINEZ                                   0501
A0101400150061370657001EVANGELINE S. JOSON                                      0502
A0601400100081257414001SYMONS, WILLIAM BRIAN                                    0502
A0101410560110478374013CYNTHIA EVANGELISTA MENDOZA                              0501
A0101401830141724867001GOMEZ, GEORGE CASSIUS ALFONSO F                          0502
A0101400440161039572029LORNA A. CERRO                                           0501
A01014004401610395720872LBERT C. VEGA                                           0503
A0101400440161459294001MARY ANN T. REGINALDO                                    0502
A0101400440161520766105CECILIA P. GUANGCO                                       0501
A0101400440161525001067JENIFFER T. JAVIER                                       0501
A0101400440161525001095MARITES T. TAPIADOR                                      0501
A0101400440161525001139JEMARIE S. SALUDAR                                       0501
A0101400440161525001173ELIZABETH V. FAJARDO                                     0501
A0101407270162081811001LINGA, FIDELA LINING                                     0501
A0101401090171033023002EXCELINK INSURANCE AGENCY                                0502
A0101401380201684400001PERAS, GISELLE AMANTE                                    0502
A0101407140213191439005**********                                               0502
A0101407140213385506002**********                                               0501
A0101407140213429359002**********                                               0510
A3101400160221419880001ROWENA B. SUN                                            0502
A0101408660274519407002ZIALCITA, MA. CRISTINA B.    JT                          0504
A0101400570281036729002LAIYA GOURMET                                            0505
A0101400570281422071001DRA. ELSIE B. PASCUA                                     0503
A0801400160311478374103INAYAN, MERLINDA GUARDAMANO                              0501
A0101402480331055404001********                                                 0501
A0101402480331055433001*******                                                  0501
A0101402480331386055001DELOS SANTOS, MARIFE C.                                  0501
A0101402480331520766125VIRAY, DARIA ZABALA                                      0502
A0201400920375034984002CITY LIGHT ELECTRONICS SERVICE                           0505
A0101408370382352315001LESLIE CARMINA S. CANONIZADO                             0505
A0101408400394468280001VALLE, ALICIA SANTIAGO                                   0502
A0101408400394478374058CHARINA BENIGNOS                                         0504
A0101408400394592886001MARTINEZ, SHERYL ANN GECALE                              0501
A0101408950396411684001GANI, SUKARNO KANAY                                      0501
A0101408950396567208001MA. CONCEPCION L. CRUZ                                   0504
A0101408950396638368001SOBERANO, ALICE BELOSO                                   0501
A0101403030441241013001**********                                               0503
A0101403320471478374054MERLITA CRUZ                                             0502
A0101406330472298552011CARINA F. FALQUERABAO                                    0501
A0501400170481409728004ANG, JUSSLYNN MAISIE ONG                                 0502
A1401400110492495442001REYES, MARIA SOLEDAD JUBIDA                              0502
A1401400110492595818001ARQUIZA, JOSE RAMIL REGODON                              0501
A1401400110492621336001MOISES, JESSIE LOSAURO                                   0501
A0101407430503705718001JAY-ANNE S. ABCEDE                                       0501
A0101403450521029691001**********                                               0501
A0101403450521238948001**********                                               0505
A0101404130601450158001JIMENEZ, JACINTO D.                                      0501
A0101404130601450195002CAYANES, GLORIA M.                                       0504
A0101404130601657831001LAURON, MARCOS ARCADIO GALANG                            0502
A0101404260611040956001POWER ZONE ELECTRICAL SERVICES                           0501
A0101404260611150902001MARITESS OR BERNARD PAMA                                 0501
A0101404420631478374138MARICEL GILIOAGAN                                        0501
A0101404420631520156001ELISEO A. ROQUE JR.                                      0501
A0101409920650478374010EVA B. MANDIIT                                           0501
A0101410720653045798001MZA SECURITY SERVICES                                    0501
A1301400210682478374053RUBIROSA C CABUGWASON                                    0502
A0101407560686283897001CATHERINE R. NAVARROZA                                   0501
A0101407560686498899001**********                                               0502
A0101407560686678708001*********                                                0501
A2801400100712386429001SALAZAR, MA. CRISTIN MULANO                              0510
A4101400260812478374029MARIA FE E. TEJERERO                                     0501
A4101400420814520766128HERNANDEZ, LEONARDO II A.                                0501
A4101400420814520766131LACSON, MELIZA FRANI                                     0501
A4101400550815478374008LORELYN C. PARCIA                                        0505
A0101404840851044151001KID-A ENTERPRISES                                        0503
A0601400230891615142001XERXES C. EVANGELISTA                                    0501
A0101404130000000001361VILORIA, REMEDIOS ONDRA OR                              10503
A5001400170000000213750RATUNIL, JULIETA OR RATUNIL,                            10505
A5001400170000000213954LOPEZ, ISOLDE OR TAMAYO, AILYN                          10504
A0101413570000000635596MEMBERS OF NATASHA                                      10501
A0601400100000000786701BANAS, CESARLIE AMBASA DBU B &                          10503
A1101400120000001920474GALVAN, YVETTE P. OR                                    10501
A0101402480000001927551ALORA'S HEAVY EQUIPMENT PARTS                           10503
A0101401960121327478001AIDA MEDEL                                              10502
A0101400440161582425001JENNIE C. ARGANOZA OR                                   10501
A0101407140213460323001TAN, JOSE SYCHUANCO OR                                  10503
A0101406620273548072001BACANI, AMADOR CARLOS OR                                10501
A0101400570281366194002DR. DINA M. PERALTA OR                                  10502
A0101402060351036156001GREEN VALLEY VILLAGE WATER                              10503
A0101402640361580365001LIWANAG, CECILIO ARCEDO OR                              10503
A0101408400394034261001SALOWA PEARLS & FASHION                                 10501
A0101408400394047545001JOHNMAYSUZANNE FASHION                                  10501
A0101407720602161863003ROBERTO K. MACASAET OR                                  10502
A0101410720653046803001BCLOA BUSINESS DATA RESEARCH                            10502
A0101410720653532754001CHAINGAN JR., CARLOS DE GUZMAN                          10501
A0101404130000000001361VILORIA, EDUARDO C                                      20500
A5001400170000000213750BYRON, OR RATUNIL, CARMEL                               20500
A5001400170000000213954OR TAMAYO, SHEEN                                        20500
A0101413570000000635596DOROTEA R. JACINTO                                      20500
A0601400100000000786701Y LAUNDRY SHOP                                          20500
A1101400120000001920474GALVAN, NEPHTALI A.                                     20500
A0101402480000001927551SUPPLY                                                  20500
A0101401960121327478001OR ROD MEDEL                                            20500
A0101400440161582425001JOMYR C. ARGONOZ                                        20500
A0101407140213460323001TAN, TITA ROSE                                          20500
A0101406620273548072001BACANI, AMANDA ISABEL                                   20500
A0101400570281366194002DR. FRANCISCO PERALTA                                   20500
A0101402060351036156001MANAGEMENT                                              20500
A0101402640361580365001LIWANAG, EDNA DE                                        20500
A0101408400394034261001ACCESSORIES                                             20500
A0101408400394047545001COLLECTION                                              20500
A0101407720602161863003VIRGINIA M. RAFAEL                                      20500
A0101410720653046803001SERVICES                                                20500
A0101410720653532754001OR CHAINGAN, ALI                                        20500
B1301400470000000009623THE INSULAR LIFE ASSURANCE CO., LTD                      1605
B0101412500000000041670MOLDEX REALTY INC.                                       1603
B0101406040000000096713********                                                 1601
B0101409050000000258600LAROSAMA DEVELOPMENT GROUP INC.                          1601
B2801400230000000372729KRJ TRADING                                              1601
B0101406330000000432631DAROMAR DEVELOPMENT CORP.                                1605
B0101411110000000604891NICHE PLAY INTEGRATED MEDIA INC.                         1602
B0101408240000000832644COLLYER SHIPPING PHILIPPINES, INC.                       1603
B0101402480000001099981WE PRINT.BIZ INC.                                        1605
B0101406880000001227441UNISPHERE INTERNATIONAL, INC.                            1601
B0101408400000001258599PASAY ULTRASOUND AND PERINATAL SVC.                      1604
B0101411820000001356827**********                                               1602
B0101402480000001927459*******                                                  1601
B0101401700041047421001GENSENS INC.                                             1603
B0101400150061016166001XPLORE PHILIPPINES, INC.                                 1603
B0601400100081020255001WIDE WIDE WORLD EXPRESS CORPORATION                      1603
B0101401960121023340001**********                                               1601
B0101407140213007696002**********                                               1601
B0101407140213007800001ABLAZA-ZAMORA ENTERPRISES                                1602
B3101400870225054035001WAKABA PHILIPPINES, INC                                  1602
B0101406620273021176001MERCURY SYSTEMS CORPORATION                              1601
B0101406620273031145003KOHL INDUSTRIES CORPORATION                              1601
B0101406620273349902001*******************                                      1602
B1101400120313036495001MANCERA STORE & HARDWARE SUPPLY INC                      1620
B0101402480331035791002*********                                                1601
B0101402480331308653001*******                                                  1602
B0201400760374032843001ALLMIX TRADING, INC.                                     1602
B0201400920375035929001UPLAND STOCK FEEDS, INC.                                 1602
B0201400920375036250188OCEAN TRANSPORT GROUP OF COMPANIES, INC.                 1605
B0201400890376047710001S & S INDUSTRIAL CORPORATION                             1603
B0101408400394028489001KING'S HOLLY, INC.                                       1601
B0101409210398015788001PETNET, INC.                                             1603
B2401400180411038622002RAK & ACO GENERAL & ALLIED SERVICES                      1601
B2401400180411085914001FILMIX CONCRETE INDUSTRIES, INC.                         1601
B1201400150421039171001PILIPINAS METDEV INC.                                    1603
B0101406330472040053001KUS OFFICE SYSTEM MFG. CORP.                             1603
B0101405940512500844001MASTERFOODS RESOURCES INC.                               1601
B0101403450521012048001SANYO SEIKI STAINLESS STEEL CORP.                        1601
B0101404130601024735001**********                                               1601
B0101404130601031677003CARRIEDO TOURIST DEVELOPMENT INC.                        1605
B0101404130601031677004CARRIEDO TOURIST DEVELOPMENT INC.                        1605
B0101404130601039722001HILAGANG EDSA TOURIST INC.                               1605
B0101404130601039722002HILAGANG EDSA TOURIST INC.                               1605
B0101404260611537674001KLINI-KAYA MEDICAL SPECIALISTS INC.                      1605
B0101410720653036522001LEDROMECH ENGINEERING SERVICES                           1605
B1301400210682016750001JFL AGRI VENTURE SUPPLIES                                1605
B0101407560686019374001MEGATECH MULTI RESOURCES CORP.                           1603
B0101407560686045678001SYOBE ENTERPRISES                                        1603
B0101404840000001312270FIRST KINGSTON LEISURE AND SERVICES                     11603
B0101408400000002386252FILAMENT WINDING EQUIPMENT                              11605
B3101400870225055328001URBAN CONSOLIDATED CONSTRUCTORS                         11602
B0101404130601100161011PRUDENTIAL CUSTOMS BROKERAGE                            11602
B2801400100712258102002DE PESTERS PEST MGNT CONSULTANT BY:                     11602
B0101404840000001312270CORPORATION                                             21600
B0101408400000002386252MOBY D. INC.                                            21600
B3101400870225055328001PHILS., INC.                                            21600
B0101404130601100161011SERVICES, INC.                                          21600
B2801400100712258102002NAPOLEON CAMBA                                          21600
B0501400170481821100608**********                                               2002
B0501400170481821100608**********                                               2005
B0101403610531821100608**********                                               2005
B0101404000551821100608**********                                               2010
