A0101412470000000853834CHUNG, EUN JOO                                           0502
B0101406620273028992001CLUB GYMNASTICA-PASIG, INC.                              1601
A6601400120000006154689UY, FLORIANE D OR UY, CHRISTIAN                         10501
A6601400120000006154689EMMANUEL WAN                                            20500
A0101408370000010341721SCHEIRMAN JR., WILLIAM RUSSELL                          10502
A0101408370000010341721MENDOZA                                                 20500
A0101408370382313183001DR. SIDNEY Y. CHENG                                      0504
B0101405490000013942071ALCOS CONSTRUCTION AND EQUIPMENT RE                      1603
A6601400120000013853875REPOLIDON, AGELINE DBU AGELINE                          10501
A6601400120000013853875L PADILLA-REPOLIDON ACCOU                               20500
A3001400130000005708498MATULIN, WILFRED ANORA                                   0502
A0101400860000003571624**********                                               0501
A0101400860000013978853**********                                               0502
A0101400860000015382682**********                                               0506
B0101400860000007087085*******                                                  1601
B0101400860011402223001**********                                               1605
A0101400860011495265001**********                                               0502
A0101400860011534620001**********                                               0502
A0101400150000001707973ONG, JONATHAN GERALD CABO                               10501
A0101400150000001707973CHANPONGCO                                              20500
A0101400150000003141500ROQUE, DANTE VILLAMOR                                    0503
A0101400150061229814001LEONCIO C. LIM                                           0501
A0101400150061573471001UMBALIN, MARILYN SANTIAGO                                0502
A0601400100081254011001PANLILIO, MARIE CARMEN OR                               10501
A0601400100081254011001PANLILIO, AUGUST                                        20500
A0601400100081504737001KAW, GEMINI DEANG                                        0502
B0601400100000002099107ONG, ANDREW OR ONG,ING LEE OR ONG, ANSON                11603
B0601400100000002099107OR HAO, EMILIA                                          21600
A0101413730000000144589**********                                               0503
A7201400170000007185911ARANDING, DWIGHT JOSHUA MEDADO                           0501
A0101412920000008813623CULASI, ANTONIO CENAS                                    0502
A0101412920000008813332MIANO, MARIBEL CASTILLANES                               0501
A0101412920000015383141LATORRE II, TITO ARRIOLA                                 0502
B0101400440161029925001VESPER INSURANCE ADJUSTERS                               1603
A0101400440000000821538MARITES T. JIMENEZ                                       0501
A0101400440000000596641LUZVIMINDA EVANGELISTA                                   0502
A0101400440161188224002MA. AGNES B. BINAG                                       0502
B0101401090171196131001RAYMOND ROSALES& ALEJANDRO DIAZ& JOCELYN                11601
B0101401090171196131001NIEVA BAUTISTA                                          21600
A0301400530000011715290LANTAYA, ARNULFO DIVINAGRACIA                            0503
B0301400530193035726168TAGUM PIONEER FOODS CORP. - 2                            1605
A0301400660000007029223LU, JETT BERNARD YAP                                     0502
B0301400660000006755111**********                                               1601
A0301400790000001010653GABUTERO, RUEL DESIERTO                                  0501
A0301400790000012273966FLORES, RONIE TAMPIPI                                    0502
B0301400950000012244767LUCKY 4 CITY APPLIANCE CORP.                             1604
A0101401380000005219927MANGUBAT, PILAR CELESTE MERCADO                          0501
A3101400160221419880001ROWENA B. SUN                                            0502
A3101400450000001104174ANGSICO, VOUGHN IVAN ALCANTARA                           0501
A3101400450000000163506PEREZ, RAFAEL SALAMAT                                    0502
A3101400870000003349882ROLDAN, HILDA LUNETA                                     0502
A3001400130000008916003HIDALGO, ELBERT ANTHONY VELOSO                           0502
A3001400130230478374027GALIA, RUTH BACLAYO                                      0501
A3001400130230687368088XXXXXXXXXX                                               0502
B1301400760000010656881PRIME YIELD SERVICES & LENDING CORP                      1606
A1901400290000011244709MISSION, LEMUEL GONZALES                                 0501
A1901400290000011244652JOYCE ANN DE CASTRO MACASAET                             0503
A0101401670271186314001DINA OR GERALD OR MARTIN OR MA.                         10501
A0101401670271186314001PILAR OR JOSEFIN                                        20500
A0101408660274448186001GAMO, WEISEN BAGAMANO OR                                10501
A0101408660274448186001GAMO, JOHN BRYAN                                        20500
B0101412470000000949566POSTMANILA, INC.                                         1610
B0101412470000000949566POSTMANILA, INC.                                         1610
A0101400570000005666395RABANAL, ROCKY DELA CRUZ                                 0501
A0501400200000005137188GANANCIAL,SHERLYN DBU MAX GEL                           10501
A0501400200000005137188ELECTRONIC SERVICE CENTER                               20500
A0801400160311478374055LURELA FERASOL                                           0502
A2001400290315641895001WENCESLAO, JUNE CLEO OR                                 10502
A2001400290315641895001WENCESLAO, ANTON                                        20500
B3401400280000004959173MENN LOGISTICS SERVICES INC.                             1601
A0101402060351211807001FILOMENA &/OR ELIZABETH CARLOS                           0501
A0101409050000015274161SHIRLEY G. ONG                                           0501
B0201400890376035150001EAL DEVELOPMENT GROUP, INC.                              1602
A0101402930000014435913SANOL, JAYSON JAVELLANA                                  0501
B0101402930381008880001AIRTIME MARKETING INC (PHILS.)                           1604
B0101402930000005646142FAR EAST ENTERPRISES INC.                                1602
A0101402930381296976002JONATHAN RICHIE L. YAP                                   0501
B0101408370382007364001HUSKY PLASTICS CORPORATION                               1606
B0101408790000010384540SUCDEN PHILIPPINES, INC.                                 1605
A0101411660000000595222ANITA PINEDA SISON                                       0503
A0101405490000014677122BENITUA, JOSE RAYMUNDO NOTARIO                           0501
B0101405490392038676001CLASSIC CHARACTERS (C.C.I.) INC.                         1604
A0101408400394484523001CUYA, DENNIS PATILLA                                     0501
A0101409180000004796778COO, JANE V.                                             0501
A5501400120410275634002BAUTISTA, RYAN REYES OR PIODOS                          10506
A5501400120410275634002EMARIE LEE                                              20500
A2401400180000000073550ALBARRACIN, JEMAR DEGAMO                                 0502
A2401400180000016021155SARAO, GEORGE LEMUEL SORIANO                             0501
B2401400180411031958001***********                                              1605
B0901400220000006214302DIPZA DEVELOPMENT & AMUSEMENT CORP                       1601
B0901400220432043554001GERRY'S GRILL                                            1603
B0901400220432043565001CASA CANELAR PENSION                                     1602
B0101403030441303324001**********                                               1602
A0501400170000000495216DY, JOSELITO MARTINEZ                                    0501
A0501400170000006300629GAZMEN, ARNEL GERARD RAYOS                               0503
B1901400320000000041272SIMCO VILLAGE LEARNING CENTER INC.                       1601
B3801400170490060785001CALAPAN GOLDEN EAGLE MART, INC.                          1620
A1901400160000015042587APRIL CHARLOTTE E. ANDAL                                 0501
A1901400160000000243558JJEG TRADING                                             0501
A1901400160491546773001IRENEA M ERLANO                                          0501
A1901400160491559018001ROWENA M MAKALINTAL                                      0501
B0701400260000007895810PRINCETON ENTERPRISES INCORPORATED                       1603
B0101403610531046549001BIG APPLE PLASTIC PACKAGING INC.                         1602
A0101403610531762081001MIRANDA, SUSAN ESPINILI                                  0501
A2201400250561297004048DENNIS B. DIZON                                          0501
A0101407720602232072001LENNIE A. TERRE                                          0501
A0101404260611665137001TEOXON, ROWENA SILANG                                   10501
A0101404260611665137001OR LEOPOLDO TEOXON                                      20500
B0101407690000000243832IDESCO CONSTRUCTION AND DEVELOPMENT CORP                 1602
A0101407690000000053881********                                                 0504
A0101413570000005867430*******************                                      0502
A1301400210000007669267SANTIAGO, EMILY TAMAYO                                   0501
B1301400210000008173940N.B. VINTA CONSTRUCTION CORPORATION                      1604
A1301400340683424357002LAO, ALMA RUBY OR                                       10503
A1301400340683424357002LAO, JOSELITO                                           20500
B1301400500000005963506********                                                 1602
A1301400500000007096542CRISTINA S. CRUZ                                         0502
A0101408240000000347551TAN, JUAN MIGUEL PAEZ                                    0502
A0101408240711219571001MERCEDES M. OLIVER                                       0502
A0101408240711684679001ERAN, BERNARDINE LLAGUNO                                 0501
B2801400230000005253641COST OF MONEY LENDING CORPORATION                        1605
B4101400390000000034040NENITA B. DY                                             1601
A4101400420814246792001GENEDINA A. FERRER, M.D. OR                             10503
A4101400420814246792001LEO CRESENTE M.                                         20500
A4101400420000006643490LA AS, NORA P.                                           0501
A4101400420000004848028EMMA A. MARSHALL                                         0501
A0101412340000007396914MA. ARLENE T. CALANGI                                    0501
A0101412340000004360605JONATHAN THOMAS F. OLALO                                 0501
B0101412340000005964189AGARD SOLUTION PHILS. INC.                               1602
B0101412340000000030935CHICHIRITA, DBU MPROB INDUSTRIAL PARTS                  11601
B0101412340000000030935AND SERVICES                                            21600
A0101406750000009472539DECENA, MA.LAIZA DUALIN                                  0501
A0101406750852398932001LIMEN, GENEVIEVE ALVARADO                                0501
B0101405070861020451001SOUTHEAST TRAVEL CORPORATION                             1604
