A0101412920000006400697BUIZON, BRYAN KIM GABRIEL AND                           10501
A0101412920000006400697BARBOSA, RAOUL VERGARA                                  20500
B0101406460272027382001POWER AIRE AIRCONDITIONING &                            11601
B0101406460272027382001AIRWORKS, INC                                           21600
A0101400440000004901542REBULLIDA, GERARD LOUIE NELLE                            0501
A0101400440161520766125FELY TUBELLO                                             0501
B3001400130000001271603RUELAN ENTERPRISES                                       1610
A3001400130230767566071SY, RAFAEL BALMORI                                       0503
A0101405650000004822220YANGUAS, DOSIE SALDANA                                   0502
A0101405650322155831001KIM, DONG HEE                                            0502
A0101405650322172164002AQUINO, CHRISTIAN CASTRO                                 0502
A0101405650322369598001YANG, YI CHENG OR                                       10502
A0101405650322369598001SHU, SALLY Y.                                           20500
B2401400180411044855001GOLDEN ATLANTIC MERCHANDISING                            1605
A4101400420000003715564SARIA, LESTER DBU DESERT QUENCH                         10501
A4101400420000003715564WATER REFILLING                                         20500
A4101400420000003309015MARICHU E. DE GUZMAN                                     0501
B3101401000001802000019**********                                               2001
A0101400860000003533413************                                             0501
A0101401250021309334001NAIDA T. TALIMAN AND                                    10501
A0101401250021309334001S.MA.APOLONIA S.DUMANDAN                                20500
B0101400150000000633130HOLCIM PHILIPPINES BUSINESS SERVICES INC                 1602
A0101400150061230586001**********                                               0502
A0101400150061556932002DIA, DON MARIO YAP DIANGCO                               0502
A0101400600000001403638*******                                                  0501
A0101400600071373478001**********                                               0505
A0601400100000006092526*********************                                    0512
A0601400100000006092537GONZALES, ANNA LIZA AYSON                                0501
A0101410850109060489001DAQUIGAN, AUREA L. DBU PURITAN                          10501
A0101410850109060489001TRADING                                                 20500
A0101410560000003562149**********                                               0502
A0101410560000001944083GABAS, EVANGELINE ESPONILLA                              0501
A0101400730111284094001GUZMAN, MICHAEL CHEN                                     0501
A0101401830000001139953ROSEMARIE S. NOJADERA OR                                10501
A0101401830000001139953ISAGANI M. NOJADERA                                     20500
A7201400170000003774123NAYAL, SUNDEM DANO                                       0502
B0101412920160022330002S.M. CASTRO MANAGEMENT & CONSTRUCTION                   11602
B0101412920160022330002SERVICES                                                21600
A0101400440161482033001CZARENO A. GONGORA OR                                   10503
A0101400440161482033001MARY HAZEL D. GONGORA                                   20500
A0101407270000000818428ARBOLEDA, SANITA AREVALO                                 0502
A0101401090000001611461RAYMOND P. CLARIN                                        0501
A0301400530193268995001**********                                               0510
A0301400950000002115242**********                                               0501
A1001400350000000922361SEVILLA, JAN CARLO SALVADOR OR                          10502
A1001400350000000922361SEVILLA, CARLOS SIMBAJON                                20500
B1301400470000000009561FUND LINK CREDIT & LOANS, INC.                           1602
A1301400760000004522592KRISTOFFER ROMEO E. GATDULA OR                          10501
A1301400760000004522592SANDRA D. GATDULA                                       20500
A0101401670000005039834TEH, JASON SY OR TAMAYO, JEROME                         10502
A0101401670000005039834CABRERA                                                 20500
B0101401670000000739219HYDRO-TECH ENVIRONMENT MGT. INC.                         1603
A0101401670271228042001TINIO, JUAN ANGEL LIGON                                 10501
A0101401670271228042001OR TINIO, MARIA CELESTE                                 20500
A0101406460000002330854QUIZON, MARC DAVID LEONIDAS                              0504
B0101406460272007553001STEEL ASIA MANUFACTURING CORP.                           1601
A0101406620273214161001RUTH FLORES OR RICARDO FLORES                           10502
A0101406620273214161001OR RACHEL RUTH                                          20500
B0101406620273791354001APPETITE LABS MARKETING GROUP INC.                       1602
A0101400570281043930002REALTY & ENTREPRENEURSHIP                               10501
A0101400570281043930002ACADEMY OF THE PHILIPPINE                               20500
A0101400570281388539029MATILDE C. ASUNCION                                      0501
A0101400570000000749593MANOLITO M. TURALBA                                      0503
A0101411240000006435452UMALI, HAZEN MELENDREZ                                   0501
B0501400200292821100608**********                                               2002
B0501400200292821200608**********                                               2001
A2601400270000000084360CRISTINA L. CENDANA                                      0501
A6601400120314677757001GONZALES, IGNACIO DELA CRUZ                              0502
A0101402350321341109002WONG, PAUL OR EDITA OR                                  10501
A0101402350321341109002CECIL OR PAULINE                                        20500
A0101405650000000525773PANGANDAMAN, SITIENAIDAH                                10501
A0101405650000000525773H.CAMID                                                 20500
B0101405650322020427003EMPLOYMENT OPPORTUNITIES, INC.                           1601
A0101405650000002325571DEQUIT, DBU PHARMA ASIA DRUGSTO                         10503
A0101405650000002325571RE & GENERAL MERCHANDISE                                20500
A0101405650322170862001SALUD, IMELDA D.                                         0510
A0101405650000000448271ACOSTA, GLORIA RAMOS                                     0501
A0101405650000000348903ESPERANZA F. BAYLON                                      0501
A0101405650000000525717TAMBUNTING, JOY MYRA SALVADOR                            0510
A0101402060351217440018MARY EVELYN C. CHEN                                      0501
B0101402930381724752001RBL TOOL & DIE CORP.                                     1610
A0101408790000002031441LANLOGIC COMPUTER SALES                                  0502
A0101408790383610468008SHERYLL F. TIBURCIO                                      0501
A0101402770391028626002RED ELEPHANT TRADING                                     0503
B0101402770391045742001ORTIGAS CREDINVEST CORP.                                 1601
B0101402770391045861001KAI-ANYA FOODS, INC.                                     1610
A0101408400394402626001GARCIA, NATIVIDAD P. OR GARCIA                          10505
A0101408400394402626001JR., HERMOGENES                                         20500
A0101408400394443611001MAGBANUA, JOSEFINA SANTIAGO                              0502
A0101412210000001236220ABARICO, MAYLEEN CIRIACO                                 0501
B0301400820409821100608**********                                               2002
B0301400820409821200608**********                                               2001
A5501400120000002018888INOCENCIO, STEVEN DELOS REYES                            0504
A5501400120410616229001ESCANO, CLAIRE BASAN                                     0502
B2401400180411033387008BIBIANA FARMS AND MILLS, INC.                            1605
A2401400180411459008001SALES, LYNETH SALVAN OR                                 10501
A2401400180411459008001SALES JR., POTEN                                        20500
B0101403030441327386001**********                                               1603
A0101403030441688065001**********                                               0501
B0101403320471032188001GOLD INDUSTRIAL GAS SALES (GIGS)                         1604
A0101412760000001399293PEREZ, GABRIEL REYNALDO P. OR                           10501
A0101412760000001399293PEREZ, REYNALDO SL                                      20500
B0501400170481013098001MOTORPLAZA INCORPORATED                                  1603
B0501400170481041189001KONSEPTO FOOD HOLDINGS CORPORATION                       1602
A0501400170481046585004ANG, JUSSLYNN DBU AVS                                   10502
A0501400170481046585004DISTRIBUTION CEN                                        20500
B1901400160491012586001BSU CONSUMERS COOPERATIVE                                1602
A1901400160491339841001MELINDA M ILAGAN                                         0502
A1401400110492566715001REFAZO, MARITESS CABANILLA                               0501
A1601400170000000497478BIG BEN'S CARWASH &                                     10503
A1601400170000000497478REPAIR SHOP                                             20500
A0101411790518055815027MANABAT, ELAINE BUNDALIAN                                0501
B0101404000000000025527PNS ADVANCED STEEL TECHNOLOGY, INC.                      1603
A2201400250561039037001TRIZ N' PAO TRADING                                      0501
A0101404130000001614502TANO, JOEL LUTERO                                        0501
A0101404130000001831681LANDISCHAN, ERIKA HAZEL SANTOS                           0501
A0101404130601081357001GO, MERYL CANDICE LIM OR                                10501
A0101404130601081357001GO, JEANNE PAULINE                                      20500
A0101404130601450195002CAYANES, GLORIA M.                                       0504
A0101404130601543448001CALAYAN, REYNALDO OLILA                                  0504
A0101407720602328663002********                                                 0502
A0101407720602343467001HENSON, GERARD FORES                                     0501
A0101413570000002906669PADERNAL, MARIVIC                                       10501
A0101413570000002906669DBU ARMAV MARKETING                                     20500
A0101406590662448164001DE LEON, JUNAME CRUZ                                     0501
A0101410300000004361660BALOCATING, CARMENCITA C. OR                            10502
A0101410300000004361660BALOCATING III,                                         20500
A0101410300000000919626********                                                 0501
B0101414670679821100608**********                                               2002
B1301400210682248659001ASIANLAND STRATEGIES CORPORATION                         1605
A1301400340683326418001BERBOSO, MARIO TRINIDAD                                  0502
A1701400230693478374060ROMOSOD, ADELA PASCUA                                    0501
B0101408240000000832962CARMEL LAND SALES & DEVELOPMENT CORP.                    1610
A0101408240711427132001SORIANO, AVELINA OR REYNALDO                             0501
B2801400100712021347001SBR IMPORT EXPORT SPECIALIST INC.                        1603
A4101400260000002257809MONOY, ELVIE MONTECLAROS                                 0502
A4101400260000005333459IGNACIO, JOSELITO CONCEPCION                             0501
A4101400420814520766115SIOCO, ROSARIO V.                                        0501
A4101400550000001622479MOTUS, MA JAMILA RETITA                                  0501
A4101400550815046007001DIGIBOX PRINTING SERVICES                                0501
A4101400550815048121001IGNACIO, ELLEN JOY TRINIDAD                              0501
A4101400550000002090860AMANCIO, JELLYVIE CARDEL                                 0501
A0101412340000006046982AMELITA B. SIAT                                          0501
B0101404840851042014004FUNHOUSES CORPORATION                                    1603
B0101404840000000090242SOUTHHILL MEDICAL SPECIALISTS, INC.                      1650
B0101406750852034199001JOCANIMA CORPORATION                                     1603
A0101406750000002040271EVANGELISTA, JOSEFINA MALLARI                            0503
A0101413860000001886980LUMBAY, M DBU MARK LUMBAY PROJE                          0503
A0601400230000001062399RODA, ZENAIDA GARCIA or                                 10502
A0601400230000001062399MANIO, CRISTINA                                         20500
B0101418230010301010110**********                                               2004
B0101416610410462000011**********                                               2002
B0101416610920462000022**********                                               2001
