F2301400150301412282001JOSEPH V. BUNAGAN                                        2502CKO
F0101405650322045354001E-SERVE MULTI-PURPOSE COOPERATIVE                        2601CKO
F0101409500000001160478G-DRIVE SOLUTIONS, INC.                                  2603CKR
F0101408240711430048001ISABELO I. TIBAYAN JR. OR                               12505CKO
F0101408240711430048001CORAZON A. TIBAYAN                                      22500CKO
F0101404840000003069641GAZ DE BAY INC                                           2601CK1
