A0101400860011235488001**********                                               0505
A0101400860011425868001**********                                               0502
A0101401250021178953002TENSUAN, ERNESTO OR NECITAS OR                          10510
A0101401250021178953002EMMANUEL                                                20500
B0101400150000000633094KINETIC PHILS. ELECTRICAL CONSTRUCTION                  11603
B0101400150000000633094INC                                                     21600
B0101400150000000633390AVIZE INC.                                               1603
B0101400150061055521001LEGAL REVOLVING FUND                                     1601
A0101400150061338964140BENITO LAMBERTE                                          0501
B0101400600000000007763*********                                                1602
B0101400600071234185001BALAY, FRANCISCO OR BALAY, MELLY                        11601
B0101400600071234185001BALAY, ANDREW                                           21600
B0601400100081013321001BIO-TECH MARKETING CORPORATION                           1604
B0601400360083062818001CLARK HAN IN CHURCH PHILIPPINES INC                      1601
A0601400360000007539719EVARISTO, BONIFREDO BARRERA DBU                          0502
A0601400520000003187251ROMERO, ANGELO SISON                                     0501
A0101414090000006211369HEBRON, KAREN RAMOS                                      0501
B0101414090000007344494ACREDITAR LENDING CORPORATION                            1605
A0101410850000005316763LLAMERA, ANCY DELOS SANTOS                               0501
B0101400730111021999001GLOBETROTTERS, INCORPORATED                              1605
A0101400730000010965332FAJARDO, CHRISTOPHER VILLANUEVA                         10501
A0101400730000010965332(BORROWER'S OF QUICKLEND)                               20500
B0101401960121239874001CHOY, HING HOI JT                                        1601
A0101401960121240563001**********                                               0502
A0101401960000006004411***************                                          0501
B7201400170000006487461FARMACIA JUANA                                           1605
A0101401090171198157001DRS. WILLIAM OR                                         10510
A0101401090171198157001MA. SALVE OLALIA                                        20500
A0101401090171200824001PILAR I. ROMERO                                          0501
A0301400530193047866001MALBAS, MAHINAY & CO., CPA'S                             0502
A0301400660000005691881CHIU, PETER PAUL VINCENT CUE                             0501
A0101401380000000682571ANGSIOCO II, JOVITA DIMAFELIX                            0501
A0101410720000002283985DIAZ, CELINA CRUZ                                        0501
A0101413600000005355197JULIO CESAR AGUILUZ                                      0502
A3101400740000011357925NEWTON, MARICEL ABIQUE                                   0501
B1001400190231273306001CAGAYAN ELECTRIC POWER & LIGHT COMP                      1601
A1001400480000002300390DAGUMO, ELIZABETH SY                                     0501
A1301400470000002299756FRANCISCO CARASCO MARANAN III                            0501
A1901400290261312691001MA. TERESA LUCELA MIRABEL OR                            10501
A1901400290261312691001JOEL CARDEL MIRABEL                                     20500
A1901400290261488341064MARIA THERESA VARGAS                                     0501
A0101406460272377244001ALA, JESSIE ATENTA                                       0501
A0101406620000006317808GALSIM, DONNA KAREN VELORIA                              0501
A0101406620273489850001RODOLFO P. DE GUZMAN JR. OR                             10501
A0101406620273489850001ROSARIO K. DE GU                                        20500
A0101412470000002136061ROMAN, ROSANNA RELUCIO OR                               10505
A0101412470000002136061LORENZANA, ANGELA ROWENA                                20500
B010141247000000731789981 COFFEE INC.                                           1602
B0101400570281029725001THE EPISCOPAL CHURCH IN THE PHILIPPINES                 11602
B0101400570281029725001PENSION FUND INC                                        21600
A0501400200000000473847KALAW, LITA SISON OR                                    10501
A0501400200000000473847KALAW, REGINA                                           20500
A2601400270000000561693ROMARICK G. TABUCOL                                      0501
A2601400270000002677569DEXTER C. DUMRIQUE                                       0503
B2601400270302038314001GOLDEN SEASON GRAINS CENTER, INC.                        1602
A0801400160311389143001CHAN, MILAGROS OR                                       10502
A0801400160311389143001CHAN, NATHANIEL                                         20500
B2001400290315041262001SUGAR HILLS AGRICULTURAL CORPORATION                     1602
B2001400290315528399001**********                                               1601
A3401400280000006791100FERNANADO D. BEGAS JR.,                                 10502
A3401400280000006791100DBU BEGAS MERCHANDISING                                 20500
A0101402350321548644002MANZANO, MARIO OR                                       10502
A0101402350321548644002MANZANO, SHIRLEY                                        20500
B0101405650322034238001APLAYA LAIYA CORPORATION                                 1603
B0101405650322038688001LANDCO/ALC                                               1603
A01014056503220410060013805 PHARMACY                                            0502
B0101402510341023155001**********                                               1620
B0101402060000006931979ESLA LAND DEVELOPERS, INC.                               1606
A0101409050000009981195GUARIN, MICHELLE PACLE                                   0502
B0201400760374041858001HELPMATE TRADING AND SERVICES                            1602
B0201400760000001612857FAIRLANE AUTOMOTIVE VENTURES, INC.                       1602
A0201400890000010370760BLANCAS, LORENZO LANCELOT                               10501
A0201400890000010370760MANUBAG                                                 20500
A0201401020000007458184POBLADOR, HENRY CATUBAY DBU GLO                          0502
B0201401020377111000001BF HOLDINGS, INC.                                        1602
B0101402930000003734872ASIALINK FINANCE CORPORATION                             1601
B0101402930920130000049FINASWIDE CREDIT CORPORATION                             1601
A0101402930381205187002JOCELYN M. RESURRECCION                                  0501
A0101402930381412468001MARIO M. TONGSON OR                                     10502
A0101402930381412468001REBECCA R. TONGS                                        20500
A0101402930381493392001FAVILA, CHERYL VILLARICA OR                             10501
A0101402930381493392001FAVILA, MARIO ANGELO C.                                 20500
A0101408370382396864001DR. ROMEO D. SANTOS OR                                  10502
A0101408370382396864001DOLORES S. SANTO                                        20500
A0101411660000002309560RIVERA, VENUS TUMPALAN                                   0501
A0101411660000011270367SY CHANGCO, FLORENCIO ZAMORA                             0501
A0101402770391355762073MA. VIRGINIA N. AREVALO                                  0502
A0101405490392332172001RITCHIE D. REYES OR MARIA PILAR                         10501
A0101405490392332172001CONCEPCION T. RE                                        20500
A0101405490392333608002NAOMI S. PURISIMA                                        0505
A0101405490392552022001MARIA THERESA D SOLIS OR                                10501
A0101405490392552022001BENJAMIN D.SOLIS                                        20500
A0101409180397635600001MANALO, JOSHUA ALEXANDER S.                              0501
B5501400120000005492413SURALLAH PENVIL FAMILY COMMERCIAL,                       1605
B1201400150421013242002NORTH QUAD CREDIT CORPORATION                            1601
A0901400220000000888086**********                                               0505
A0101403030441295353003**********                                               0502
A0101403320000011361032ERNESTO C DE LEON                                        0502
A0101403320000011362440ERALDO V NEPOMUCENO                                      0501
A0101406330472478374042VIRGINIA B. RANADA                                       0501
A0101412760000000208626COMIA, M DBU CINCTURE                                   10502
A0101412760000000208626BIO-ASSETS MARKETING                                    20500
A0501400170481170180001TAI KOU AN OR LAWRENCE ILARDE                           10503
A0501400170481170180001OR CARLITO LIM O                                        20500
A0501400170000002357508GO, ONASIS YABUT                                         0502
A1901400160000006575693MACATANGAY, NEIL MALKO PASCO                             0501
B1401400110492044975001RAQUEL PAWNSHOP, INC                                     1601
B1401400110000004461972SUPER MAK FOOD CORPORATION                               1603
A0101407430503044461001GMC CARGO SERVICES                                       0501
A0101407430503795890200MALABANAN, CZARISSE MARIELLE AL                          0501
A0101403580000005328569CASIPIT JR., FAUSTINO VINTAYEN                           0501
A0101403580511156579009RICARDO G. MANABAT                                       0502
A0101405940512462757003TERESITA CUEVAS/HELEN JAVINAR/                          10503
A0101405940512462757003JOHN DEE FLORES                                         20500
B0101408530516032240001BEL-AIR VILLAGE ASSOCIATION, INC.                        1605
B0101403450521029025001**********                                               1602
B0101403450000006055734TAGAYTAY VIEWPARK HOTEL INC.                             1605
A0101403450521478374007********                                                 0501
B0101404130601037502001JS PHILIPPINES GLOBAL CORPORATION                        1602
B0101404130601047731001RICH MEDIA MANILA INCORPORATED                           1603
A0101407720602241314001**********                                               0501
A0101407720602271723011JAIME G. TOMAS JR.                                       0501
A0101407720602318369116JOSEPH M. SAQUIN                                         0501
A0101407720602390297001PREYSLER, MARIVIC G.                                     0502
A0101409920000001951982MEMBERS OF NATASHA (SHOECAT INC                         10501
A0101409920000001951982TORRELIZA, GINA                                         20500
B0101413440000008938678QUERI, ROLANDO OR BERNADAS, MELCHOR OR                  11603
B0101413440000008938678ARGUELLES,JOSEPH                                        21600
A1701400230000004469763PIEDAD, CHARITY B DBU ALPIE'S T                          0502
B4101400260000006043829GNM MAHNLEN TRADING INC.                                 1602
A4101400550000006044651AAT COMPUTER SUPPLY                                      0502
A4101400550815660435001ROSALLY B. ANDUTAN OR                                   10501
A4101400550815660435001WILLIAM A. ANDUT                                        20500
A0601400230000006045570GUIAO, JULIETA ONG                                       0505
