B0101401830141821100608**********                                               2002
B0101412500214067230001JOBSFINDER PLACEMENT AGENCY INC                          1605
B0501400170481258347002OUR LADY OF MANAOAG COLLEGE, INC.                        1605
A0101400440000016636983BALUNES, IMELDA PORLUCAS                                 0501
A3101400160221220343001LAARNI A. CALAPATIA                                      0502
A0101401670000006975462******                                                   0502
A0101402060351331171001MICHAEL SARINGAN                                         0502
B0101415350390821100608**********                                               2010
A0101415350390821200608**********                                               0503
B0101408400000014244270SINCERE FACADE INNOVATION, INC.                          1602
B0101408400000015676870SINCERE FACADE PHILIPPINES, INC.                         1603
A0101408950000010507121TUPAS, ROGELIO HINTALAN                                  0501
A0101407720000013900835DE SALIT, ROSEANNE AUSTRIA                               0501
A0101407720602332279002CAYCO, ANTONIO V. OR                                    10501
A0101407720602332279002CAYCO, MARGARITA                                        20500
B0101404260611537674001KLINI-KAYA MEDICAL SPECIALISTS INC.                      1605
A0101400860000005312981**********                                               0502
B0101400860011086656001**********                                               1603
A0101400860011376604001**********                                               0501
B0101400860011392490001**********                                               1602
A0101400860011395102002**********                                               0502
A0101400860011539633001**********                                               0502
A0101400860011572958001**********                                               0503
A0101400150000002749660PRIETO JR., ALEJANDRO RAMON OR                          10502
A0101400150000002749660PRIETO, MARIA ZE                                        20500
A0101400150000009995153NICDAO, MELINDA DOLOSO                                   0502
B0101400150061016166001XPLORE PHILIPPINES, INC.                                 1605
B0101400150000005015489ADSTRAT ADVERTISING STRATEGIES, INC                      1601
B0101400150000006432577H2O LIFE SOURCE (SEA) PRIVATE LIMIT                      1603
A0101400150061370228039LOURDES DEE                                              0501
B0101400600000005943115********                                                 1605
B0101400600071476377003*********                                                1605
A0101405810072444240001*************                                            0505
B0601400100000013801742WOORI MART AND TRADE CORP.                               1605
A0601400100081590627001BASILIO, ADAMSON CUNANAN                                 0501
A0601400360083591896001AGARRADO, ARVIN GAUDIA                                   0501
B0101414090000013005560PRIMAL WAD LOGISTICS CORPORATION                         1601
A0101414090000011598044ECHEVARRIA III, LEOPOLDO PERALT                          0503
A0101410560000010318333ARIANE JOY M UBANE                                       0502
B0101410560000008979468FIRST GOLDEN ACHIEVERS REALTY AND D                      1601
A0101400730111198892001RIGOR, ISAGANI Z.                                        0502
A0101400730111393421007GUILLER CONRAD VILLEGAS                                  0501
A0101406040112428212001MARVIN WILLIAM TRINIDAD OR                              10501
A0101406040112428212001MARIA CERRIZA TR                                        20500
A0101413310000001928969ABARRERA, SIGRID VILLARINO                               0501
A0101413310000016200610TORRES, KATRINA ANNE MACALMA OR                         10501
A0101413310000016200610BALDOMERO, JOSEPH ADAM C.                               20500
B0101401830141008844001BM POWER SUPPLY & ELECTRIC SERVICES                      1610
A0101412920000012287811ANGELES, CRISTOPHER CABRERA                              0502
B0101412920000000042060DIGITAL CCTV & ELECTRONICS CORPORAT                      1602
A0101400440000013845520AIROSO, GRACE SIOSON                                     0501
A0101400440161520766185FLORA S. CHUA                                            0501
A0101400440161679888004QUE, MARTINIANO DE JESUS                                 0501
A0101407270000006675518LIM, GINALIE PREJOLES                                    0503
B0101407270162044738002BARTLE BEYL, INC.                                        1605
B0101407270162053928002QUANTUS BUSINESS SERVICES, INC.                          1605
A0101401090000016596200SAGARAL, JULIUS WENDELL OR                              10501
A0101401090000016596200SAGARAL, MARIA Z                                        20500
B0101401090171198717001UST ENGINEERING ALUMNI ASSN., INC.                       1602
A0101401090171380619001VILLAMIN, CHARLES ABRAHAM C.                             0501
A0301400530000016646163HINGPIT, EUGENIA SOLIS DBU ST.                          10501
A0301400530000016646163EMISSION TESTING CENTER                                 20500
B0301400530193037467168TAGUM SG MARKETING CO.                                   1603
B0301400530193037483168LI, VINA DBU TAGUM AB MARKETING BUY &                   11605
B0301400530193037483168SELL AGRI PRODUC                                        21600
A0301400530193047866001MALBAS, MAHINAY & CO., CPA'S                             0502
A0301400530193686503001CORPUZ, GLENN A.                                         0502
B0301400660000011140222LANANG AUTO FIX CORPORATION                              1605
B0301400660000006755195LOPZCOM BUILDERS CORPORATION                             1605
A0101401380000010190659MUSNI, MICHAEL ANTONIO JANEIRO                           0502
B0101401380000011057684KAIROS INDUSTRIAL OMNI-SOURCE CORP.                      1602
A0101401380000000682673RED, ROBERTO AURELLANO                                   0501
B0101412500000000041670MOLDEX REALTY INC.                                       1605
A0101413600000003134590LUISITO R. GAMBOA                                        0501
A3101400160000015974886SALOM, EUGIENE ZAMORA                                    0501
A3001400130000002063441JONGKO, JOSE MARI MARCO OR                              10502
A3001400130000002063441JONGKO, DEBORAH                                         20500
B3001400130230043534001BERRY HAPPY MART INC.                                    1612
A3001400130230046921001RUBY EGG FARMS                                           0505
A1001400190000012244990TAN, CONSTANTINE ROGERS SAMONTE                          0510
A1001400190231446795001SAARENAS, LOIDA TAN OR SAARENAS                         10502
A1001400190231446795001JR., JULIAN                                             20500
A1001400190231478374100OLAMIT, GENEVIEVE                                        0501
B1001400350000000017096AYA VENTURES CORPORATION                                 1604
A1001400350233528399003KO, JOSE NELSON AND                                     10502
A1001400350233528399003KO, CHARMAINE                                           20500
A1001400480000014024203FERNANDO, ROSEMIN ENGANA                                 0501
A1001400480000003357511RAMOS, MARY JECELLE GO                                   0501
A1901400290261488341075DR. HELEN BAUTISTA DY                                    0502
A0101408660000011998860SUMAYLO SR., GEORGE SULTAN                               0501
A0101408660000000373011LAM, E DBU BAN HOK TRADING                               0505
A0101410980000001154318REA M. VALENZUELA                                        0501
B0101411110000007950783SANDI, JAMES ROBINSON DBU VANROB CUSTOMS                11602
B0101411110000007950783BROKERAGE                                               21600
B2601400270302574301001ALEX UY TY                                               1601
A2901400130000015904102TAY, MARY GRACE REFULGENTE                               0501
B0101402510341037808001FAIR ALL MARKETING                                       1602
B01014020603514784560019R MANPOWER AND SERVICES INC.                            1601
A0101402060351687812001SOLER, MA. ASUNCION RAMIREZ                             10501
A0101402060351687812001ARELLANO                                                20500
A0101409050000002971555OMENGAN, ROWENA RUTH ALCANTARA                           0505
A0101409050000001353213*****                                                    0502
A0101409050000016101043CHING, JOSEPH RAGOS TY                                   0501
A0201400890376520766003MANCAO, MA. RINALYN B.                                   0501
B0201400890376683863002PASEO DE ESCARIO, INC.                                   1605
B0101402930000008462511*********                                                1602
A0101402930381205187002JOCELYN M. RESURRECCION                                  0501
A0101408370000003774987PIA LOREN VIVAR FAJARDO                                  0503
A0101408370000006446386LOPEZ, LIZETTE KRISTINE FERNAND                          0501
A0101408370382352315001LESLIE CARMINA S. CANONIZADO                             0501
A0101408790000004983360EARLMON IGNACIO D. ELEGADO                               0501
A0101415350000006213116CAMAT, RAYVINE FERRER                                    0501
B0101405490000000019963NAJIA MOVERS & PROJECT SPECIALIST INC.                   1602
A0101405490000006241852RED, LOLITA R. DBU CRYSTAL                              10501
A0101405490000006241852BRAKE AND TIRE SUPPLY                                   20500
A0101405490000004808679PLAZA,MARY GRACE DBU CRYSTALITE                         10502
A0101405490000004808679WINDOOR ENTERPRISE                                      20500
A0101408400000001213596HERNANDEZ, MERLITA GAYTA                                 0501
B0101408400394025635001KETMAR FASTFOOD CORPORATION                              1607
A0101408400394506485001EBAJAN, ALEX BERGADO                                    10501
A0101408400394506485001OR EBAJAN, MERCEDITA                                    20500
B0101409210000000031238******                                                   1610
A2401400180000015944684BLANCO, DEHIMA PADERES                                   0501
B2401400180000000073670BRIGADA HEALTHLINE CORP.                                 1630
B2401400180000011299126BRIGADA ROCK GARDEN RESORT, INC.                         1610
B0901400220000006214331SOUTH SEA ENTERPRISES                                    1602
A0101403030000010411353**********                                               0501
A0101406330472027958001A. ANOLIN ENTERPRISES                                    0502
A0101406330472478374055ESPERANZA L. MALABOTE                                    0501
A0101410140000010760335MEDINA, CHRISTOPHER BRYAN DESTU                          0502
A1901400160000015392784MINDANAO, RIMAR BAJA                                     0501
A1401400110000001806920LAMES, EDGARDO LLAGADO                                   0502
A1401400110000008266393ROQUE, KAREN JAY RAMOS                                   0501
B1401400110492027896004LUCENA UNITED DOCTORS HOSPITAL, INC                      1604
B1401400110492042438001ACYATAN FOUNDATION, INC.                                 1601
A0101403580511716577001LEONIDA A. CONCEPCION                                    0502
A0101403580511716577001LEONIDA A. CONCEPCION                                    0502
B0101408530000010055766MIDIA REALTY CORP.                                       1601
A0101411400000012209868***                                                      0501
B0101403450521011913001DIVERSYS SPECTRUM PRODUCTS, INC.                         1610
B0101403450521012010001********                                                 1603
A0101403450521240099001**********                                               0501
A0101403450521441986001**************                                           0520
B2201400250000009913260L5 & SONS FINANCING CORP.                                1607
B2201400250000000016920STAPLERS INC.                                            1601
A2201400250000001545580MEMBERS OF NATASHA (SHOECAT INC                         10501
A2201400250000001545580GAUDIOSA A. WAGE                                        20500
A0101404130601345507001ADRIATICO, ULYSSES CORPUS                                0501
A0101407720000006028280MOJICA, ANNALYN JECIEL                                   0501
A0101407720602381721001MARIA FE P. VILLAFRIA                                    0504
A0101407720602399405002THELMA E. RAMOS OR                                      10503
A0101407720602399405002CLAVER P. RAMOS                                         20500
A0101407720602418565001RELOS, JESUS ALVAREZ                                     0502
A0101407720602750852001TUPAZ, MARIA LOURDES PEREZ                               0504
A0101404260611150840001WILLY CHING OR ISIDORA CHING/                           10505
A0101404260611150840001GOLDSUN LUMBER                                          20500
A0101404260611377592001TUAZON, WAYNE SAHAGUN AND                               10501
A0101404260611377592001LALAINE TUAZON                                          20500
A0101409890000014410429FETALINO, MINERVA YANEZA                                 0504
A0101409890000011029400CHUA, OSBERT CO DBU 4 LITTLE AN                          0501
A0101409890000006813192BERROYA, CRISTINA ROMASANTA DBU                         10501
A0101409890000006813192DALISAY SWEETS                                          20500
A0101407690000012226798YAP, RONALD FERNANDEZ                                    0502
A0101413570000015976951REALOSA, JOVELYN OR                                     10505
A0101413570000015976951DELA CRUZ, JOEY                                         20500
A0101413990000009073365CORADO, FLORA RIZO                                       0501
A0101413990000016083766AGUILAR, RETCHELLE BAUTISTA                              0501
A0101413990000006768558HERRERA, BOBBY L.                                        0501
A0101414120000015400790ROMERO, HENRY LAGMAN                                     0501
B1301400210000000023496JELLI'S GAS STATION                                      1603
A1301400210682248069001ALICIA P. ANDAN                                          0501
A1301400210682722987001******                                                   0502
B1301400500000000011201NICOLINE.FREIGHT, INC.                                   1605
A1701400230000008555255SANTIAGO, DOLORES CENTENO OR                            10502
A1701400230000008555255SANTIAGO, KATHREENAH C.                                 20500
A1701400230000002763011RUMBAOA, ACE JOSEPH RAMOS                                0501
A0101408240711560372001DEL ROSARIO, KATRINA OR FRANCO                          10502
A0101408240711560372001OR TERESA                                               20500
A2801400230000002312367BARTOLOME JR., DAVID SUMEG ANG                           0501
B4101400260000001199128CHEF ELMER FOOD SOLUTIONS CORP.                          1601
B4101400390000008744878E-NAKA-MA CORPORATION                                    1601
A4101400420000014280058DECIAR, RUTHER OLVIDA                                    0501
A4101400420814478374122AGUILO, RODENA T.                                        0501
A4101400420000000120970REYAN S. LINCAY                                          0501
A4101400550000000315171ABEL, LUNINGNING EBONA                                   0501
A4101400550815047621001CHINGCUANGCO, MARIA CRISTINA CO                          0504
A0101420680000016646265RECTO, WILLARD DE LA CRUZ                                0501
A0101412340000007305724RODOLFO D. PAGLICAWAN JR.                                0501
A0101404840000016648001CABRERA, ORENCIO MORALES                                 0501
A0101404840000016648272FALAMIG, NINO CARINGAL                                   0501
A0101404840000016648381FELLER, MAYAN MERCENE                                    0501
A0101404840000016648450LANDICHO, EDWIN SALAZAR                                  0501
A0101404840000016648523LUBID, RONNIE PESIGAN                                    0501
A0101404840000016648585MANALANSAN, MA. KATRINA MERILLE                          0501
A0101404840000016648654QUILLO, MICHAEL CABARLES                                 0501
A0101404840000016648723REALINGO, JESETTE KALAW                                  0501
A0101404840000016648778ROSALES, DANILO GICALE                                   0501
A0101404840000016648825SOLEDAD, TITO BARILLA                                    0501
A0101404840000016648881TANZO, IMMACULADA MONDEZ                                 0501
A0101404840000016648938VALIENTE, CATHLEEN GUIMAN                                0501
A0101404840000016648990VALIENTE, RICHARD POLDO                                  0501
A0101404840000016649037GARELLO, JENNYFER BENDIJO                                0501
B0101404840000014874685INTRAVERTEX REALTY INC.                                  1601
A0101404840000003069801MODESTO DE VERA JR.                                      0501
A0101405070000014045295ERWIN R. LAGAHIT DBU ROWN                               10502
A0101405070000014045295MARINE SERVICES                                         20500
B0101405070861197658001****************                                         1605
