F0101408240711432355001ROSA MARINA C. ANTONINO                                  2505CKO
F3101400580000000015658GREENPHILS INC.                                          2610CKR
F0101401670271029054002HEALTHWEALTH INTERNATIONAL CORP.                         2605CKO
F0101405940512030823008AVID SALES CORPORATION                                   2610CKR
F3101400580452518795001LONTOC, JAYSON TATLONGMARIA AND LONTOC,                 12605CKO
F3101400580452518795001AILEEN ESPELETA                                         22600CKO
