B0101412630000007157806DIANO, IRENE S AND GILLE, MARILOU C AND                 11601
B0101412630000007157806COLAMBO, ARDEN C                                        21600
B0101412630000007157817GILLE, MARILOU C AND DIANO, IRENE S AND                 11601
B0101412630000007157817COLAMBO, ARDEN C                                        21600
A0101405650000009768110LOPENA, MARITES BLANCO OR                               10503
A0101405650000009768110LOPENA, PATRICIO                                        20500
A0101405650322176916001VALDEZ, FLORA P. OR                                     10503
A0101405650322176916001VALDEZ, LAURO L.                                        20500
A0101405940000012443286BARTOLO, JANETH ACUNA                                    0501
B0101413860000000145264GENTRY SPECIALTY BUILDING SOLUTIONS INC.                 1601
A1101400120000001547268JADOC, MA. ARIELYN PALOGAN                               0501
A0101406590000003006964LAO, ERIC MICHAEL GO                                     0501
A0101410300000002375777******                                                   0502
A0101410300000002375880CHUA, MARIA VICTORIA L.                                  0502
A0101413860000009877281ABELLA, CARMENCITA TORRALBA                              0501
B0101400860011352814001HONG, JIAN ZHANG OR CHEN, MAN LI                        11602
B0101400860011352814001HONG, YI YIN                                            21600
B0101400860011400367001**********                                               1603
A0101400860011495810001**********                                               0501
B0101401250021006977002MEDICHECK DIAGNOSTIC LABORATORY, INC.                    1601
B0101411370000000017945ST.THERESE OF THE CHILD JESUS INSTITUTE                 11601
B0101411370000000017945OF ARTS&SCIENCES                                        21600
A0101400150000003162923BERNADETTE C. CAMARILLO                                  0501
A0101400150000014739514KADOWAKI, HIDEKI NIL                                     0501
A0101400150000014739616YOSHIKAWA, AKIRA NIL                                     0501
A0101400150000013484192ADRID, MICHAEL ANGELO DIOLAZO                            0502
A0101400150000004090691CORDOVA, EBENEZER DELIMA DBU CO                          0503
A0101400150061344118001AMIEL M. MERCADO                                         0502
A0101400150000004090544SAY II, MIGUEL CALDERON                                  0501
B0601400100000002099330RDF FEED, LIVESTOCK & FOODS, INC.                        1610
A0601400100081251939002ELIZARDO OR WILMA MARTINEZ                               0503
B0601400520000000398647TELESIGHT COMPUTER AND SURVEILLANCE                     11603
B0601400520000000398647SYSTEM                                                  21600
B0101410850000003503751ONE OPTI MARKETING, INC.                                 1603
A0101410560000010318333ARIANE JOY M UBANE                                       0502
B0101412630000002186449CREATVFX, INC                                            1601
A0101413310000010284830DOLIGON, RUTH CEGUERRA                                   0501
B0101401830141065311001LUCENA, DANTE BORGE DBU DBL & POT                       11605
B0101401830141065311001FEEDS SUPPLY                                            21600
A0101400440000014478374USUQUEN, ANGELITZ IBALIO                                 0501
A0101400440000002035041MARIA GEVELA CARDINOZA                                   0501
A0101400440161369132001NELIA D. SANCHO                                          0501
A0101407270000000818519LAMINARIA, GLORIA                                        0501
B0101407270162008343001SPECIALIZED TRADE & MARKETING, INC                       1601
A0101407270162381769001REYNANTE E. CANTONG                                      0504
A0101401090171196080003GIL Y. GAMILLA OR                                       10510
A0101401090171196080003CARLOS M. ALMEDA                                        20500
A0101401090171430122001EVANGELINE D. PANIZAL                                    0502
A0101401090171531698001MARIA ISABEL D. CORNEJO                                  0501
A0301400660000002348570PALACOL, GILBERT PECHO                                   0501
B0301400660000006755082MALPORTS, INC.                                           1602
B0301400790000013577983AGF ELITEGROUP DISTRIBUTION INC.                         1604
B0301400950000009938301LANZONA LAW AND REALTY                                   1602
A0101401380000010190353PAULINO, ENRIQUE DBU KAKA RESTO                         10501
A0101401380000010190353BAR OR PAULINO,                                         20500
A0101412500000014743401BENEDICTO, NINO MANUEL STA. ANA                          0501
A0101412500000014744740****                                                     0501
A0101413600000005794698PETE NOGALIZA DBU CRECIENTE                             10502
A0101413600000005794698INTERNATIONAL MARKETING                                 20500
A3101400160221220343001LAARNI A. CALAPATIA                                      0502
A3001400130230478374028MAGLASANG, ELIZABETH DAHANG                              0501
B1001400190231010692001PHILIPPINE IRON CONSTRUCTION & MARINE                   11606
B1001400190231010692001WORKS INC.                                              21600
B1001400190231417579001CLAVERIA TREE NURSERY, INC.                              1602
A1001400350000012928246VILLODRES, KARL ROBERT B DBU                            10501
A1001400350000012928246GOLDEN PHALANX ENTERPRISE                               20500
A1001400480000014748822CARERAS, CARLO CIELO                                     0501
A1301400470252492521001PEDRITO P. ABERGAS                                       0501
A1301400470000003270431CHRISTIAN VINCENT R. SALAZAR                             0502
A1901400290000005565820JUDITH ATE VIRTUDAZO                                     0501
A1901400290000014042438MYLA AGUILERA VILLANUEVA                                 0501
A1901400290000014739230MARIA ANTONETTE ALVA BALAJADIA                           0501
B0101401670271007482001VISEVERSA, INC.                                          1605
B0101401670271017449001HK HARDWARE SUPPLIER CO., INC.                           1601
B0101401670000009425992MXCHUA CONSULTANCY CORPORATION                           1601
A0101401670271186228002APOLINARIO OROSA OR                                     10502
A0101401670271186228002MELINDA OROSA                                           20500
A0101401670271520012001ENRICO ATIENZA PINEDA OR                                10505
A0101401670271520012001MARICEL PINEDA                                          20500
B0101406620273007454005GLOBE ASIATIQUE REALTY HOLDINGS CORP.                    1608
B0101406620273031145001KOHL INDUSTRIES CORPORATION                              1603
B0101406620273033463001ARL BUSINESS CONSULTANCY, INC.                           1603
B0101408660274575521001MONSAY '89 INC.                                          1602
A0101411110000009465632LOKIN, MARIA BLANCA KIM BERNARD                          0501
A0101400570281385805001MARIA ELENA T. LAGNITON                                  0503
A0101400570281489513002************                                             0501
A0101411240000007845001CARSOLA, AGNES COLLADO                                   0502
A0501400200000006272200GENOBATIN, HAROLD QUILIOPE                               0501
A0501400200000009556669PASAG, ENGELBERT CALIMLIM                                0505
B0801400160000005656982JUANTONG & SONS BUILDER CORP.                            1605
A1101400120000001920598SOLAJES, PRIMIER SIEGFRIED BATO                          0502
A1101400120000003981306AGULLO, JEFFREY ARTATES                                  0501
A1101400120000003022373BANTULA, EVELISA FALLE                                   0501
B1101400120313544308001**********                                               1610
A1101400120313678888001TIU,EDGAR A. OR TIU,MARILYN Y.                          10505
A1101400120313678888001OR TIU,MARC ELDR                                        20500
A1101400120313678888003TIU, EDGAR ACORIN                                        0505
A2001400290000011355223CONSING, MARIA CORAZON PACHORO                           0502
B3401400280000006790965JL PRIORITY LENDING CORPORATION                          1602
B0101402350000008957042PRECEPTLINE CORPORATION                                  1603
A0101405650000003491398EUDELA, NINO ANGELO JAVIER                               0501
A0101402510341199103002********                                                 0503
B0201400760374032173001MARIANO & SONS MARKETING, INC.                           1602
A0201400760374520766001CARULASAN, KRIZIA JANE BUGO                              0501
A0201400890376520766003MANCAO, MA. RINALYN B.                                   0501
A0201400890376667775001BUYSER, MISAN CANAS OR BUYSER,                          10501
A0201400890376667775001RENZIE RAFAEL CA                                        20500
A0201401020000007935382JOHNSON, MERILYN PEPITO                                  0503
A0201401020000009499201BERMEJO, AGNES IGOT DBU AGNES V                          0502
A0101402930000003710563TSAI, HENRY LEE                                          0501
A0101408370382207662001DR. CELSO F. BATE OR                                    10501
A0101408370382207662001MRS. SOPHIA S. BATE                                     20500
A0101408370382420447001PAPA, RICARDO TOBIAS MARCELO                             0502
A0101402770000010605164AGUILLON JR., LORETO GAYANILO                            0501
A0101402770391211574001OCAMPO, ISAGANI G. OR                                   10501
A0101402770391211574001OCAMPO, LUCILA R.                                       20500
A0101402770391279928001MEDINA, MARCO YUTANGCO OR                               10502
A0101402770391279928001MEDINA, PATRICIA NARCISO                                20500
A0101405490000002880595MICHAEL JOHN ERIC R BALO DBU                            10501
A0101405490000002880595BLISSFUL HOUSE D                                        20500
A0101405490392510652001ENCARNACION M. GOLDING                                   0501
A0101408400000012225415NERY, CHARISMA CRUZ                                      0501
A0101408400000014748884TGASK ENTEPRISE                                          0501
A0101408400000001981586BMFV BEAUTY SALON                                        0502
A0101408400000010507001VITALES, MISAEL RANTE                                   10502
A0101408400000010507001OR VITALES, MARIBEL                                     20500
A0101408400000012951601VITALES, MISAEL RANTE                                    0501
A0101408950000012458463DEPAMAYLO, AGNES LAROBIS OR                             10501
A0101408950000012458463GONZALES, PRINCESS PINEDA                               20500
A0101412210000014745098NICOLAS, ELDRIDGE ERIC BOTE                              0502
A0301400820000006542710FEGI, JANNETTE G.                                        0501
B0301400820000005991871ARCHIMED VENTURES INCORPORATED                           1604
B2401400180411016835001GENERAL TUNA CORPORATION                                 1605
A2401400180411038015001GENSAN ULTIMATE AUTO SUPPLY                             10510
A2401400180411038015001& HARDWARE, INC.                                        20500
B1201400150421013432001BAGUIO MAHARLIKA MULTI PURPOSE                          11605
B1201400150421013432001COOP.                                                   21600
B1201400150000012099935AOYONG, DOMINIC CHENG OR AOYONG, CATHERI                11603
B1201400150000012099935NE LEUNG                                                21600
A0901400220000010424950SUAREZ, VYM BLANDO                                       0501
A0901400220000006214604FERNANDEZ, MARY GRACE LEE DBU Q                          0501
A0101403030000001302087**********                                               0501
A0101412890000001056393GERONIMO, M DBU A.M.-M.A'S                              10502
A0101412890000001056393BAKERY                                                  20500
A0501400170000009954163LIM, CELIA CHUA                                          0506
A0501400170481253600001NARDING C. CAMERO OR                                    10502
A0501400170481253600001JULIE C. CAMERO                                         20500
B1901400320000000041283SAN ISIDRO MULTI-PURPOSE COOPERATIVE                     1601
A1901400160000005632606BALMES, REINHILD ROSALES                                 0501
A1401400110492325538003ARIAS JR., FAUSTINO IBALLO                               0501
A0101407430000013169887LABRADOR, BENJAMIN ASINAS                                0502
B0101407430000008901315ROMINE LASERJET TONER CORPORATION                        1601
A0101407430503583508001TANATE, RAMONET PALMA                                    0501
A0101405940000000505764SALCEDO, RICHARD REODIQUE                                0501
A0101405940000014736417DE JESUS, ROMULUS CRUZ                                   0501
A0101408530000014733252BUENAVENTURA, JEAN ROSE DUHAYLO                          0501
A0101408530000014733350MARCELO, ELLEZAR BASTERECHIA                             0501
A0101408530000014733423PARADO, KRIS DIWA                                        0501
A0101408530000014733510RIPALDA, MARIE LESLEY PERALTA                            0501
A0101408530000014733565ZAPATA, JAPHILLEE .                                      0501
B0101408530516032963001387 AUTO CENTER, INC.                                    1601
B0101408530516033225001KONECT COMPANY                                           1601
A0101411790000004807927JOHN PATRICK L. LLAMAS                                   0502
A0101412050000013784120LIN, XUELING                                             0501
B0101403450521022302001**********                                               1602
B0101403450521587484001NOVELTY IZUTEK CORPORATION                               1601
A0101403610000007106681PATERNO, ANGELITO BACOL                                  0501
B0101404130601037502001JS PHILIPPINES GLOBAL CORPORATION                        1602
B0101404130000002121500CONTINUOUS PRINTING CORPORATION                          1602
B0101404130601100148003UNIESSENCE CHEMICALS PHILIPPINES INC                     1605
A0101404130601451537001JACINTO, D. ANTOINETTE C.                                0501
B0101407720000000017621PHILIPPINE CLINICAL CHEMISTRY &                         11601
B0101407720000000017621DIAGNOSTIC CORP.                                        21600
A0101407720602313008001LEE, BERNADETTE D.                                       0502
B0101407720602779410001DEOKMA EIGHT TRADING INC.                                1602
B0101407720602779427001ROSYDASE MARKETING INC.                                  1602
B0101407720602779437001SOUTH BIENALE MARKETING INC.                             1601
B0101404260611033056001OVT-GRAPHIC LINE INC.                                    1603
A0101404260611416131001ORA, ROMEO FOLLOSCO OR                                  10501
A0101404260611416131001JOSEFINA                                                20500
A0101407690000014748388BONGALOSA, MARITES LAPAZA                                0501
A0101407690652774968001NATAVIO, ROY REMUS CAYETANO                              0501
A0101413440000002706072PORCIUNCULA, CATHERINE OR                               10504
A0101413440000002706072PORCIUNCULA, JOSE PAOLO                                 20500
B0101413440000011893215QUERI, ROLANDO WI DBU RQJA BUILDERS                      1603
A0101413440655004117001MASV TRADING                                             0505
A0101413440000002125684CALAWOD, LYN HAZEL DBU NEUROBAL                         10502
A0101413440000002125684ANCE OCCUPATIONAL THERAPY                               20500
A0101414120000001142807CASA LUMINARIA PARTY VENUE                               0501
B0101406590662042184001BORACAY ISLAND WATER COMPANY, INC.                       1601
A0101406590662208118001CYNTHIA OR CHERYL MYLA ARCINUE                           0501
A1301400500000011254361KE, JINZENG                                              0502
A1301400500000000011343ARTURO C. BENEDICTO OR                                  10501
A1301400500000000011343AMELITA M. BENEDICTO                                    20500
B0101408240000000832939TRUE NORTH GSA, INC.                                     1603
A0101408240000006599946GULINAO, ISAGANI BAUTISTA                                0501
B0101408240711059660001ST. JAMES THE GREAT PARISH                               1605
A0101408240000008160172SALAZAR, L DBU CIANZAR                                  10501
A0101408240000008160172TRANSPORT SERVIC                                        20500
A2801400100000014468483SANTOS, MARIA CARMI MUNGCAL                              0501
A2801400100000014468676VILLANUEVA, SHEENA IGNACIO                               0501
A2801400100712504339001EDELO, JENNILYN PENAFLOR                                 0501
B2801400230000001580296DEL ROS AMUSEMENT ENTERPRISES, INC.                      1602
A4101400260000000002142TAJANLANGIT, JACKIE C.                                   0501
A0101412340000009501348PUNZALAN, AARON MARASIGAN                                0501
A0101404840851633691001BERNAL, ANNA LORRAINE SANTOS OR                         10501
A0101404840851633691001BERNAL, FERNANDO III S.                                 20500
B0101405070000014538760THE CONFLICT RESOLUTION GROUP                           11601
B0101405070000014538760FOUNDATION INC                                          21600
A0101405070861768785001CACAO, DIANA VILLANUEVA                                  0501
B0101413860000001767962COURT OF APPEALS CREDIT COOPERATIVE                      1630
B0101413860000010275873JUMBO 6 REALTY AND LEASING CORPORAT                      1602
