A3101400740000000013845REYES, ROBERT ZAMORA                                     0501
A0101405490000000019612MA. RIZA A. CONTI                                        0501
A0101408240000000039821MORANO, DBU MALM ENTERPRISES                             0502
A0101400730000000112881GUTIERREZ, DOMINICA DALISAY                              0501
A1001400480000000133360ALL TRIO TRADING                                         0504
A0101411530000000178892**********                                               0501
A5501400120000000265690BALDONADO, MIRASOL MACARAEG                              0501
A0101408660000000373022CHUA, REI RICHARD CENTENO                                0501
A0101404420000000471965QUE, WIE BENG CIRO                                       0503
A1001400480000000474942DACALOS, GENMAR MANLOSA                                  0502
A0101413440000000570325NOCUM, JOHN PETER CASTELO                                0505
A0101411240000000629447**********                                               0501
A3401400280000000784663ALMA V. TORREBLANCA                                      0501
A2401400180000000826102SORIA, DONNA DONES                                       0501
A0101400730000000833410GOMEZ, EDWIN VITUG                                       0501
A0101410720000000882884BARTOLOME JR., ENRIQUE ROASA                             0501
A0101404680000000940761CALONZO, BABY MAY LADERAS                                0501
A0101412340000001017623SANTOS, MYRA JOAN MAYOR                                  0501
A0101412890000001056320LICUP, MARIANITA ROQUE                                   0501
A1001400190000001057625MEMBERS OF NATASHA (SHOECAT INC                          0501
A6601400120000001065281ECHALUCE, RAFAEL OR MYRNA                                0503
A0101413310000001073892NAZ, NICK ANTHONY NUNEZ                                  0501
A0101410980000001154421SANTAMARIA, CLARO MONTESENA                              0502
A1301400210000001206882MEMBERS OF NATASHA (SHOECAT INC                          0501
A0301400530000001409752URSUA, PRINCESS F.                                       0501
A0101403450000001637863MARTIN, JAMISON REMOLLO                                  0502
A0101406620000001686848UY-TIOCO, PATRICK SANTIAGO                               0502
A0101412890000001765506DELA CRUZ, MARK JOSEPH CRUZ                              0502
A4101400260000001783833RIVERA, GENE ARMAND FRANCISCO                            0501
A0101405650000001911962LANSANG, GIANCARLO VITAL                                 0501
A5001400170000002023596**********                                               0502
A4101400420000002084419STA ANA, MA CHARINA PASTRANA                             0501
A0101401250021456301001PALILEO, ROSALIE PUNONGBAYAN                             0501
A0101401700041024130001AARON SAMUEL INC.                                        0505
A0101401700041036012001MORNING GLORY AUTO SUPPLY                                0510
A0101400150061315349126WILFREDO C. SEE                                          0501
A0601400100081398734001SANTIANO, LEILA MERCADO                                  0501
A0101410850109046512001*****                                                    0501
A0101406040112684740001***********                                              0501
A0101400440161525001070MARIBEL S. SOLEDAD                                       0501
A0101407270162331908088MARLON L. ANTOLIN                                        0501
A0101407270162692465001REYNANTE G. CORTEZ                                       0501
A0101401090171196069003JUAN D. DOMASIAN                                         0501
A0301400530193047804088**********                                               0502
A3101400740224710022001DAVID, MERRY GRACE CORDERO                               0501
A1001400190231520766051NANCY DAAYATA                                            0501
A0101406460272095168001***************                                          0501
A0101400570281186576001DR. ROSEMARIE JEAN J. POBLETE                            0502
A2601400270302574301001ALEX UY TY                                               0501
A2601400270302591563001ROSITA R. CHE                                            0501
A1101400120313547700001NICOLASORA, ALMARIE EULOGIA P.                           0506
A6601400120314639661001DATO, NORA MORENO                                        0501
A0101405650322170862001SALUD, IMELDA D.                                         0510
A0101405650322171725001LANTAN, NORIZA ENRIQUEZ                                  0502
A0101405650322311534001CALUBAQUIB, RUBY ENRIQUEZ                                0501
A0101405650322412858004GANDOL, ARSENIA BALANE                                   0502
A0101409050352081841001LOUIE BENEDICT C. HERNANDEZ                              0501
A0201400760374033157001WISE OWL GENERAL MERCHANDISE                             0501
A0101408370382493622001DR. JOSEPH AUGUSTUS D. LOPEZ                             0502
A2401400180411555367001EVANGELISTA, EMMANUEL JERUS                              0502
A0101403320471638012002CRUZ JR., NARCISO AARON BENAMER                          0505
A0101410140475478374010PELAEZ, BEATRIZ GUEVARRA                                 0501
A0501400170481253455001NORMELITO QUIMO OR IRENE QUIMO                           0502
A1901400160491044486001TOP GEAR TRADING AND SERVICES                            0501
A1901400160491339841001MELINDA M ILAGAN                                         0502
A1901400160491559850001MARIA THERESA GONZALES LAYAM                             0501
A1901400160491589431001MARILOU D BOOL                                           0510
A1401400110492029549002TRIPTORS DIAGNOSTIC CENTRE                               0502
A0101407430503436029001CACHO III, MARIANO NERA                                  0501
A0101407430503558249001JIMENEZ, FLORENCE VILLANUEVA                             0501
A0101406880513666065001VILLARMINO, JOSELITO VILLANUEVA                          0502
A0101408530516042413001DENTAPRIME DENTAL SERVICES                               0505
A0101407720602398318001PATRICK R. CARPO                                         0505
A0101407720602480488001GERALDINE MAJELLA L. JURILLA MD                          0501
A0101404420631537768001LACSON, MARICEL CARPIO                                   0501
A0101404680651520766081ELIZABETH I. BELARDO                                     0501
A0101404680651520766097FLAVIANA T. PAJANUSTAN                                   0501
A0101404680651520766110LORLEEN M. VILLAFUERTE                                   0501
A0101404680651520766141BENJAMIN BENICO                                          0501
A0101404680651520766150ARLENE A. ROSARIO                                        0501
A0101404680651520766177PURISIMA L. CATCHUELA                                    0501
A0101410720653045798001MZA SECURITY SERVICES                                    0501
A0101410720653733525001SUING, LEONOR PEREZ                                      0502
A0101406590662673251001ABARABAR, MARILOU YU                                     0501
A0101407560686532134001GREGORIO S. REYES                                        0503
A0101408240711390039001CHRISTOPHER OR RAMON CARRION                             0503
A4101400260812040216001CARELYNNE REALTY                                         0501
A4101400260812565457001DEMANDANTE, CELSO VILLAREAL                              0501
A4101400420814478374171MICHAEL G. RIBOT                                         0501
A4101400420814520766056MULIG, ESTER R.                                          0501
A4101400420814559384001RIBOT, NORMA GAJE                                        0501
A4101400420814623365001NOVENO, ATANACIA REYES                                   0501
A4101400550815737397001PIQUERO, EMILY FERNANDO                                  0501
A0101404840851421456001MARCELO, MERIAM ACAIN                                    0503
A0101410720000000053216BOLANO, MA. GUIA JHOANNA                                10501
A2601400270000000084320GERVACIO S. MARFIL OR                                   10502
A3401400280000000156643MELOURD L. BONILLA AND MA                               10501
A1601400170000000421190JOHN F. TORROCHA OR                                     10501
A2201400250000000433452RUBY V. CRUZ OR                                         10504
A0101405650000000448599SIMBULAN, DENNIS DE LEON                                10502
A0101404000000000461209CARLOS DE LEON & RAQUEL DIZON &                         10502
A2601400270000000561682JANET A. GELACIO OR                                     10503
A0101413990000001406553GOLD HANDS WATER REFILLING                              10502
A3401400280000001723484ESLABON, M DBU GREYS CAR                                10501
A4101400260000001783633IBANEZ, DBU FIFTH AND FOUTH                             10502
A0101409920000001951891MEMBERS OF NATASHA (SHOECAT INC                         10501
A0101409920000001951908MEMBERS OF NATASHA (SHOECAT INC                         10501
A0101409920000001951919MEMBERS OF NATASHA (SHOECAT INC                         10501
A0101409920000001951920TUAZON, DENNIS A DBU KAGEYU                             10501
A3801400170000002302772MARISA A. FELIPE OR                                     10502
A0101406460272197187001AGCAOILI, CANDIDA CABATU OR                             10503
A0101400570281186580001DR. ARSENIO C. CANTOS OR                                10503
A0101408370382407309003JOHANN MICHAEL G REYES DBU                              10501
A0101405490392455172001MARIE GRACE B. BUITRE OR                                10501
A0301400820409093916001RACILLO, FRANK OR                                       10502
A0101407430503423636002SOMERA, LUCILA C. OR                                    10501
A0101406880513550279001CADUCO, TEDDY QUILARTO OR                               10501
A0101404000551287485001CECILIA A. MELENDRES OR                                 10502
A2201400250561478374004EDNA G. OUANO                                           10501
A0101404420631412995001VERDE, DALISAY OR VERDE, EMERY                          10501
A0101407560686277688001TERESITA E. JUAN OR                                     10502
A4101400260812030742002GODGIVEN PHARMACY & GENERAL                             10503
A0101410720000000053216BARREDO                                                 20500
A2601400270000000084320REBECCA M. MARFIL                                       20500
A3401400280000000156643RODERICA B. GARGANERA                                   20500
A1601400170000000421190ROCHELLE A. TORROCHA                                    20500
A2201400250000000433452FRANCISCO N. CRUZ                                       20500
A0101405650000000448599OR SIMBULAN, KARLA ANGEL                                20500
A0101404000000000461209JOCELYN DE LEON & CHRISTL                               20500
A2601400270000000561682BARTOLOME L. GELACIO                                    20500
A0101413990000001406553STATION                                                 20500
A3401400280000001723484ANATOMY CLINIC                                          20500
A4101400260000001783633AUTO SHOP                                               20500
A0101409920000001951891BARTE, CECILE                                           20500
A0101409920000001951908FALLARME, MA. CECILIA E.                                20500
A0101409920000001951919ORTIZ, GINA H                                           20500
A0101409920000001951920PACKAGING ENTERPRISES                                   20500
A3801400170000002302772FROILAN B. FELIPE                                       20500
A0101406460272197187001AGCAOILI, TEODOR                                        20500
A0101400570281186580001DRA. CORAZON CANTOS                                     20500
A0101408370382407309003JMGREYES EYE CLINIC                                     20500
A0101405490392455172001MA. TERESA B. BUITRE                                    20500
A0301400820409093916001RACILLO, MACLARA                                        20500
A0101407430503423636002SOMERA, EDWIN C.                                        20500
A0101406880513550279001CADUCO, DAISY CADUCO                                    20500
A0101404000551287485001ISMAEL L. MELENDRES                                     20500
A2201400250561478374004MEMBERS OF NATASHA                                      20500
A0101404420631412995001OR VERDE, TERESITA                                      20500
A0101407560686277688001ARMANDO JUAN                                            20500
A4101400260812030742002MERCHANDISE                                             20500
B2001400290000000020560VIMLE UNIVERSAL SOLUTIONS INC.                           1601
B1601400170000000036035SIX IN ONE CORPORATION                                   1603
B1601400170000000036115SIX IN ONE CORPORATION                                   1603
B0101413440000000038162ACCENDO PROPERTIES CORPORATION                           1603
B0101410980000000171975AMMC - AVERY MANILA MARKETING CORP.                      1602
B0101406620000000193975SIMPLE LIFE DELIGHT COMPANY INC.                         1602
B0101411400000000230300ANARCHY VILA INTERNATIONAL INC.                          1602
B0101408660000000373153EMTO BUILDERS CO.                                        1601
B0101404130000000696259IHUB; CREATIVE RECRUITMENT INC.                          1601
B0101407270000000830460SAINT YVES FUNERAL SERVICES CO.                          1601
B0101406880000001227412ONE GREENBELT SUITES HOTEL INC.                          1602
B0101412630000002186370MAJOR-U CORPORATION                                      1603
B0101412470000002338843WEBLEND INC.                                             1601
B0101400150061010833001VELCA TRAVEL & TOURS, INC.                               1601
B0601400360083036712001NEWONE INCORPORATED                                      1602
B0601400360083039162001ARDI HEALTH SERVICES - ARDI SPECIAL                      1604
B0101401960121240191002LEGRAND PROPERTIES INC.                                  1601
B0101400440161037389001GREAT WAY HARDWARE                                       1602
B0101407270162038101001BIRDS INTERNATIONAL, INC.                                1602
B0101407270162251556002MELANDREW T. VELASCO                                     1603
B0301400530193042539001NELSHENE MARKETING                                       1610
B1001400190231024436002UMALAG FARMS INC.                                        1620
B1001400350233512004001VILLALBA, CHARLIE L.                                     1602
B0101406460272020749001EASTGATE COMPUTER CORPORATION                            1601
B0101406460272038032002WEE COMMUNITY DEVELOPERS, INC.                           1603
B0101403320471039191001MAR-V-RITZ TRADING - BRANCH                              1602
B1901400160491012917001ALPS THE BUS INC.                                        1610
B1401400110492013980002IMPERIAL APPLIANCE PLAZA                                 1601
B0101407430503039823001REB FREIGHT MOVERS                                       1602
B0101410690600046449001APP-AAA PARTNERS CORP.                                   1603
B0101404130601035484001CARE BEST INTERNATIONAL SECURITY                         1604
B0101408240711045524001VIRGIN MARY IMMACULATE SCHOOL, INC.                      1601
B4101400260812047082001SERENITA INC.                                            1601
B0301400530000001409763VALDEZ, ALEX R. OR                                      11602
B2401400180411658629001FRESCO, ALEXANDER P. & CABINTA, JELYN F.                11601
B0101407720602031840001LA CONSOLACION PARADISE BEACH RESORTS,                  11602
B0301400530000001409763VALDEZ, GRETA S.                                        21600
B2401400180411658629001& LALAS, JUVY P.                                        21600
B0101407720602031840001INC.                                                    21600
