B0101408400394821100608**********                                               2002
A1201400150000011416032PARADO, JUN FRED VALDEZ                                  0502
A0101408400000007583186PINEDA, DINDO DOMINGO                                   10502
A0101408400000007583186OR PINEDA, GRACE                                        20500
A0101401250000002131891MAGAS, CRISANTO PACUMBALA                                0501
A0101412630000017579343BARRETTO, RAMON DA ROZA                                  0501
A0101412500000017568700SANTOS, RHETT JOSEPH GOZUM                               0501
A0101412470000000853834CHUNG, EUN JOO                                           0502
A0101402350000011252810TAPEL, BERTILLA TATEL                                    0501
A0101402350000015000254SANTOS, IRENE SAMANTHA ALEXIS D                          0501
A0101402930000013537470PARRAS, CHRISTINE MAGO OR                               10505
A0101402930000013537470AYAB, EDELBERT                                          20500
B0101402930381019173001MANILA LUXURY CONDOMINIUM CORP.                          1601
A0101408370382434379001DR. LOURDES JOSEPHINE                                   10501
A0101408370382434379001ANGLIONGTO-RAMOS                                        20500
A0101405490000015229304MENDOZA, GERALD NELSON PESAYCO                           0502
A1201400150000013825851PALANGDAO, MARYJANE SEGUIN                               0504
A0101400860011406314001*************                                            0502
A0101400860011568203001**********                                               0505
A0101400860011699695001**********                                               0502
A0101401250000016724260****************                                         0501
A0101401250001120001147SEBALLA, CHERRY ANN TRIBACO                              0501
A0101401250021536726001AURELIO D. RIVERA JR. OR                                10504
A0101401250021536726001CRISTINA E. RIVERA                                      20500
A0101400150000009995153NICDAO, MELINDA DOLOSO                                   0502
B0101400150061010975001PHILMETAL PRODUCTS INC.                                  1603
A0101400150061304927001SIY, PATRICIA MAY TAN                                    0504
B0101400600071233729001**********                                               1601
A0101400600071523473001*******                                                  0501
A0601400360000013101523PIANO CRISTINA AUSTRIA                                   0501
A0601400520000009516441GOMEZ, KRISTOFFEN GUTIERREZ                              0501
A0101413280000014969790PINEDA, REX JEFFERSON MARCELO                            0501
A0101413730000005316303***                                                      0501
A0101414090000011597763DOCTOR, MA. LUALHATI PELAYO                              0502
A0101414090000008926996PEYRA, CRISTINA CHAVEZ                                   0501
A0101410850000015085351SEGUERRA, DONN CHRISTIAN                                10502
A0101410850000015085351CABRERA                                                 20500
B0101410850000003503733DELTA FIVE AGRI-VENTURES CORPORATION                     1606
A0101400730000014853779LAFUENTE, DHANNA CORAZON RAMOS                           0501
A0101400730111195576001ROQUE, REYNALDO M. OR                                   10502
A0101400730111195576001ROQUE, ANGELA P.                                        20500
A0101400730111478374028LIBRADA MAGNO                                            0503
A0101406040000004587680********                                                 0502
A0101406040000014388577DAVID, CASEY ANNE PASCO                                  0503
A0101401830000014085593NERY, MARIA ALEGRIA JOSEPH                               0502
B0101401830000017598913MARCOS,ANALYN DBU GKGK GEN. MERCHANDISE                 11601
B0101401830000017598913OR CO, ELIZABETH                                        21600
A0101400440000006679670MAYOR, MEL ARNOLD QUIZON                                 0501
A0101400440000004901564DOVIE T. JERMIA                                          0502
A0101407270000009066899DE OCAMPO, MARIA ROSELA HIPOLIT                          0502
B0101407270162037305001MICROGOLD INFORMATION SOLUTION AND                      11610
B0101407270162037305001PRODUCTS, INC.                                          21600
A0101401090171196097001HERNANDO OR LEONCIA OLONAN OR                           10502
A0101401090171196097001BIANCA NIKKOLA OLONAN                                   20500
B0301400530000014433826LOPEZ, EDWIN LAZARO DBU BUENA GOLD                       1605
B0301400660000001020124SILVER POWER FUELS                                       1603
B0301400660000003368449CASCABEL CONTRACTOR AND ALLIED SERVICES                 11601
B0301400660000003368449INC.                                                    21600
A0301400660194774595001CIMAGALA JR., OSCAR TINGA                                0501
A0301400660194774595001**********                                               0501
A0301400950000014676232REYSON, JOHN KIM OR ABALLE, MEL                         10501
A0301400950000014676232CHITO OR LUCERO, IVY A.                                 20500
B0101401380201006746003FIREHOUSE PHILIPPINES, INC.                              1603
B0101401380201026760001PAG & D BAR & ENTERTAINMENT CORP.                        1602
A0101401380000001820002********                                                 0504
A0101413020000010882283MAGLALANG, ALLEN VINCENT RAMOS                           0501
A0101412500000017595383BUGAOAN, IVY ILLESCAS                                    0501
A0101412500000017592635REGIS, ROBERT LEMUEL SARDIDO                             0501
B0101413600000005524863HIMLAYANG PILIPINO PLANS, INC.                           1610
A3101400160000010543734CAPOTE, MERLIN BELTRAN                                   0501
A3101400160221343018001MODESTO P. ANDRES OR                                    10504
A3101400160221343018001ZENAIDA P ANDRES                                        20500
A3101400450000017427500*****                                                    0501
A3001400130000001271330PITOGO, VINICAR PASA                                     0505
B1001400190231276633001SIA, TOMAS &/OR ANNIE &/OR GINA                         11605
B1001400190231276633001&/OR HENRY                                              21600
A1001400350000000922014PEARSON, PILARCITA ROA                                   0501
B1001400350233039881008EASTMIN FOOD CHAIN CORPORATION -                        11603
B1001400350233039881008GREENWICH                                               21600
B1001400350233039883018CENMIN FOOD CHAIN CORPORATION -                         11605
B1001400350233039883018JOLLIBEE XAVIER                                         21600
A1001400480000010131481SALVADOR, LAVERN UMEREZ OR                              10501
A1001400480000010131481SALVADOR, JOHN P                                        20500
B1001400480000008501871SARMIENTO, VINCENT FLORES DBU SNDC                       1603
A1301400470000005394389*********                                                0501
A1301400760000005379502MAILEEN B. CAJUCOM                                       0502
A1901400290000001195142ESTEBAN ALDRIN HERNANDEZ BISA                           10503
A1901400290000001195142OR DONNA MARIE G ORILLA                                 20500
B0101401670271007091002JUSON REALTY DEVELOPMENT CORPORATION                     1601
B0101401670271026611001MERGE MARKETING STRATEGISTS INC.                         1602
A0101401670271387325002NOCOM, EDWARD GATIAO                                     0501
B0101406460272033798001WTA ARCHITECTURE AND DESIGN STUDIO                       1605
B0101406620273007454005GLOBE ASIATIQUE REALTY HOLDINGS CORP.                    1606
B0101406620000003497176EMERGING POWER INC.                                      1602
B0101406620000003497278JOBIN-SQM INC.                                           1602
A0101410980000006014493YEUNG, MARIBETH PO                                       0502
B0101410980000006014660WEAVE SOLUTIONS INC                                      1601
A0101400570000016544979ESAGUNDE, MARC VINCENT SAAVEDRA                          0501
A0101400570000006271707SIY, PATRICK YIU                                         0502
A0101400570281492317001ABANO, JESSICA MARIE REYES                               0505
A0101400570281553903001BONOAN, DEODATO JOSE REFORMA                             0501
A0501400200000009556603ABELLA, MARIA CRISTINA BORJA                             0501
A2601400270000008654202ORODIO, VANESSA DELMENDO                                 0501
B2601400270302574301001ALEX UY TY                                               1601
A1101400120000000652380CAYUBIT JR., SERAFIN ASERON                              0501
A2001400290315673185001TAHIR, SAMSODIN TOMAWIS                                  0502
A0101402350321287566002LETICIA M. FERNANDEZ                                     0501
A0101402350321573861001KIM, MYUNG KOO                                           0501
A0201400760000016614863DOLOTINA, MARYJOY SALISE                                 0501
B0201400760374249471002COMMONWEALTH INSURANCE COMPANY                          11603
B0201400760374249471002-OPERATING FUND                                         21600
A0201401020000007935411RODRIGUEZ, MYRA DEL CASTILLO                             0501
A0101402930381206360002LILIBETH A. VERTUCIO                                     0502
A0101402930381478374015DIMARANAN, ARNOLD ABEJERO                                0501
A0101408370382205176001IRMINGARDA P. GUECO, M.D.                                0502
A0101408370382413688001DR. CHRISTY S. YAO                                       0501
A0101408790000005251029**********                                               0502
B0101408790000006025850CHILDFUND INTERNATIONAL, USA DOING                       1603
A0101411660000005238477LUCAS, MARIA ROSELLE                                     0505
A0101405490000000232453ROMEL P. ALMEDA                                          0502
A0101405490000014676954GALE, RUSSIEL FERRAREZA                                  0502
A0101405490000017598708BALLESTEROS, CLYDE TORIO                                 0501
A0101408400000012225415NERY, CHARISMA CRUZ                                      0501
A0101408400000016252874GUILING, CHRISERNA SERRANO                               0501
A0101408400000001855450EVANGELINE I. ALIGATO                                    0503
A0101409180000017410689JAIME D. CARLOBOS JR.                                    0501
A0101409180000014368113CARTAGENA, HAZEL MACEDA                                  0501
A0101412210000014244583TACWIGAN, JAYDEE GHYYA ASTROLOG                          0501
A5501400120000005492220ROCKWELL, SHARON SILVA                                   0502
A5501400120000016442825MAGNO, ELMER DE GUZMAN                                   0501
A2401400180000017598997BALINGBING JR., DBU SONNEL                              10502
A2401400180000017598997ENGINEERING SERVICES                                    20500
B2401400180411033733033ECA RESOURCES, INC.                                      1603
A2401400180411344858001CHUA, MAGDALENA SALAZAR                                  0501
A1201400150000011415682PALANGDAO, JOY JASMIN DELA CRUZ                          0502
A1201400150421685972001JUCUTAN, HEIDI BONDAD OR                                10502
A1201400150421685972001JUCUTAN, ROMMEL                                         20500
B0101403030441707375001**********                                               1602
A0101412890000009833970SUSAN VASQUEZ ARCA                                       0501
A0101406330000017599223JERIKALINE MARKETINGM                                    0501
A0101412760000002067512GALLO, RONALD DBU R. M. GALLO T                          0505
A1401400110000017599336GONZALES, ARIES VELENA                                   0501
B1401400110492046339002******                                                   1620
A1401400110000016419288RAMOS, ROG DBU JHON EARNEST MAR                          0502
A1401400110492378227001VEJERANO, ROBERTO MAMORE                                 0501
B0101405940000005359720UNITED GATEWAY BUILDERS INCORPORATED                     1602
A0101403450521360229001**********                                               0501
A0101403610531035023001KAXWAX, INC.                                             0506
A0101403610000001174954HERNAEZ, JOEL A.                                         0502
A0101403610531287259001HIDALGO, ALFREDO MONTEALEGRE                            10501
A0101403610531287259001OR HIDALGO, AMELITA OR                                  20500
A2201400250000013858876TEJERO, ANA THERESA PADILLA OR                          10501
A2201400250000013858876DUNBAR JR., ELDON HENRY                                 20500
A2201400250561656272001ROMERO JR., VIVENCIO MERCADO OR                         10501
A2201400250561656272001CRISTINA B. ROMERO                                      20500
A0101404130601025459001RAMOS, RONALDO B. DBU ERICMAN P                         10502
A0101404130601025459001SERVICES INC.                                           20500
A0101407720602295336001AGUIRRE, ANGELITA MIGUEL                                 0501
A0101412180000010394982GABRIEL, AMERIZA MAY RASALAN                             0502
A0101404260611153715001TERRY LOMANTA                                            0501
A0101407690652400173001LIM, MARIA CONCHITA GINETE                               0502
A0101407690652525001047NOEMI B. BUNDA - DEALERS OF                             10501
A0101407690652525001047SHOECAT INC.                                            20500
B0101413570000003580705ELAD CONSTRUCTION AND SUPPLY INC.                        1602
A0101413990000016684261CATOLICO, JOWEN MIRANDA                                  0501
A0101413990000016958262PACHANO, ARMANDO DE FELIPE                               0501
A1301400210000011696452BAUTISTA, MIGUEL ALBERTO TENGCO                          0501
B1701400230693062547003NATASHA SALES & MARKETING CORP.                          1601
B0101408240711026617001TOKYO HEALTHLINK, INC.                                   1603
A0101408240711383964002MA. ESPERANZA OR LAMBERTO MEER                           0502
A0101408240711448793001CARLO B. MAGNO                                           0502
A2801400230000005253510MARTINEZ, GIRLIE MONDALA                                 0505
B2801400230000009021932SAMER GLOBAL MANPOWER SERVICES, INC                      1602
B4101400260000006043578MACADONIA INC.                                           1603
A4101400390000000379351SOSA JR., REGALADO ROY                                   0501
A4101400390000000745357ABELLAR, CHITO MENDOZA                                   0501
A4101400420814478374030LIGAYA ILANO                                             0501
A4101400420814520766118ADOC, MYLEN A.                                           0501
A4101400550000007583944FERNANDIS, RONI                                          0501
B4101400550000000900138WILSTAR HARDWARE AND CONST. SUPPLY CORP.                 1602
A4101400550815637838001MAARAT, NENITA OLIVAR                                    0503
A0101412340000005431874JAIME P. CRUZ                                            0501
A0101404840000010969374FANLO, FRANCES MICAELA MIRANDA                           0502
A0101404840000013645724CARREON, NESRAIM CUNETA AND                             10502
A0101404840000013645724CARREON, KEVIN C                                        20500
A0101405070000000541677BRAGANZA, NORA BALLARES                                  0502
