B0601400100081821100608**********                                               2020
B0101407720602026057001WASCOR HOLDINGS CORPORATION                              1602
B0101407720602040303001EMERGENCY DOCTORS GROUP OF MAKATI CO.                    1602
A0101407720602162347004OCAMPO, GREGORIO PEDRO                                   0503
A0101407720000002693150FONTAMILLAS, FAYE TORRES                                 0501
A0101407720602341473001VILLASOR, MA. TERESA GUSTILO                             0502
A0101407720602397271001OZAETA, MA. RAMONA PABLO                                 0501
A0101406590662035265001******                                                   0502
A0101400600071787115001**********                                               0501
B0101401090000013774951YU, ANTHONY FERDINAND C. AND CAOILE JR.,                11601
B0101401090000013774951VICENTE O.                                              21600
B1001400480000003028840CO, DONALD SIAO AND DE LEON, JOSE                       11601
B1001400480000003028840RHOEL CENTENO                                           21600
B1001400480000004097110BUKIDNON SECOND ELECTRIC COOPERATIVE                     1601
A1901400290261389616001ROBERITA C BUNQUIN                                       0501
A6601400120314622580001SOSING, CAROL O. OR FELIPE A.                           10505
A6601400120314622580001OR CAROLYN O.                                           20500
B0101406590000006921593SAMUEL T. AGUSTIN II CONSTRUCTION CORP.                  1603
B0101400860000000794958FAN, LINGLING                                            1601
A0101400860011341510001**********                                               0501
B0101400860011402223001**********                                               1603
A0101400860011462040002MERCADO, EDITHA PATIAG                                   0501
A0101400860011517430001*********                                                0501
A0101400860011517871001**********                                               0505
A0101400860011626823001**********                                               0505
B0101400860011629068001************                                             1601
A0101401250021498494001POKLIS, NANCY BANG-I                                     0502
A0101411370000005524421BATUIGAS, AURORA REBOQUIO                                0501
A0101411370000000903611RAMIREZ, MARISSA MARTINEZ                                0502
B0101400150061015091001DUMAGUETE COCONUT MILLS, INC.                            1605
B0101400150000010164513ALPHA FOXTROT MEDIA INC. DOING BUSINESS                 11607
B0101400150000010164513AS ARTILLERIE ME                                        21600
A0101400150061227644001JOSEFINA T. GUTIERREZ OR                                10502
A0101400150061227644001MA. REGINA PAZ GUTTIERREZ                               20500
B0101400150061228576001KZPC HOLDINGS, INC.                                      1601
A0101400150061277712001AFANTE, LIZA ALCANTARA                                   0501
B0101400150061447303001TANY FOUNDATION, INC.                                    1605
B0101400600071234351001**********                                               1602
A0101400600071235565001**********                                               0501
A0101405810072339643001**********                                               0505
A0101405810072385132001***********                                              0503
B0101405810072580124001**********                                               1601
A0601400100000002099374DIONEDA, MARY ANN RIVERA                                 0501
A0601400100000013797749LENON, FRANCIS NOCHOLAS REYES                            0501
A0601400100000013798008PASAMBA, ROBERTO VELA                                    0501
A0601400100000013797750LAXINA, JANETTE SHERYL DELA VEG                          0501
A0601400360000012883677GONZALES, ROSELEO                                        0501
A0601400360000013794795SHARMA, VISHAL .                                         0501
A0601400360000013794820SANCHEZ, KARL CHRISTIAN BUENO                            0501
B0601400520000000398692SIBUL NING AETA FOUNDATION, INC.                         1602
A0101413730000008263901BENIPAYO, VILMA BOBIS                                    0503
A0101413730000011325010CARPIO, MAUREEN DIANO                                    0502
A0101414090000006211472ADANG-AS, FELICLAIRE MANGIBAT                            0503
B0101410850000013800761WESTWIND SERVICE MANAGEMENT CORP.                        1601
A0101400730111562499001URIARTE, ELSIE GREMIO                                    0502
A0101406040000008915551**********                                               0503
B0101406040112009142001ASIAN TERMINALS, INC.                                    1610
A0101401960000005392474******************                                       0501
B0101401960121011953001KINGSLEY COMMERCIAL CORPORATION                          1605
A0101401960000004419830**********                                               0501
A0101401960121239548001MELANIE YAO                                              0501
B0101401830141037575002MATATAG PRINTING PRESS                                   1602
A5001400170000000213998DY JR., DIONESIO KIANG                                  10501
A5001400170000000213998OR DY, TESA TAN                                         20500
A0101412920000005915631CASTRO, SONNY VALEN ROMERO                               0501
A0101412920000013672118WEE, JONALYN SY                                          0502
A0101407270162331908041MA. JUDITH MARCELO                                       0502
A0101407270162385312001MAE CZARINA C. ALVIAR                                    0503
A0101401090171393982001REYES JR., EMILIO RANAS                                  0501
A0101401090171448025001ANDALES, MINERVA DE LEON                                 0501
A0301400530000005300229DE GUZMAN, HUBERT HONORATO LAYE                          0501
A0301400530000000065854PAMAONG, TERESITA                                        0502
B0301400660000003368392MINDANAO AGRI-BANANA VENTURES CORP.                      1601
A0301400950000011694683RJFOUR MOTORPARTS AND HARDWARE                           0504
A0301400950000002115548HERNAEZ JR., EDUARDO DBU GULF                           10501
A0301400950000002115548MARINE CREWING S                                        20500
A0101413020000000056988AGUSTIN, FL DBU FIX AND CARE                            10504
A0101413020000000056988REF & AIRCON REP                                        20500
A0101412500000013791847LOPEZ, QUEEN ANTONETTE DAGDAGAN                          0501
A3101400160000000006500ANNIEFER P MERCADO                                       0502
A3101400160221221032002ARMI ANTIA P MATANGUIHAN    OR                          10502
A3101400160221221032002ARIEN C POLINTAN                                        20500
A3101400450223394475001*****                                                    0501
B3001400130000010506526LOZADA, JOHN MOISES M&SOLIMA,ELEUTERIO M                11602
B3001400130000010506526&FAELNAR, BRANDO                                        21600
B3001400130000010506515CUMBA, WENDY GO AND GO, ANTONIO TIMCANG                  1602
A1001400190231273114001******************************                           0502
A1001400190231478374012FARINAS, EVA MAE CENTO                                   0501
A1001400190231520766020LUBIDO, CAROLINE JARALES                                 0501
A1001400190000002170769JUGAN, NOUE MALOLOT                                      0501
A1001400190000008743886BARRON, LORNA ROA                                        0501
A1001400350233478374001JUNIO, ROGELIA A.                                        0501
A1301400470000010297106VILMA B. CAMATO                                          0502
A1301400470000011839760PAULINA C. PASCUAL AND                                  10501
A1301400470000011839760RODRIGO F. GAOAT                                        20500
A0101401670271197183001PAREDES, ARSENIO                                         0501
B0101406620273020001001ASIAN CABLE ENTERPRISES, INC.                            1601
B0101406620273045167001VENTURANZA, HOSTALERO AND COMPANY, CPA'S                 1601
A0101406620273517001001ASUNCION, JOHN DEXTER LIZARDO                            0501
A0101410980000006014448********                                                 0502
B0101410980000000171986********                                                 1601
B0101412470000000949500NEIL KENDRICK SY AND ANNE CHUA AND                      11601
B0101412470000000949500LESLIE TAN                                              21600
A0501400200000011150368ROSALES, GHESELLE SUBIDO                                 0501
A0801400160000001031387DIMATULAC, NENITA MENDERICO                              0502
A1101400120000000652511BASTIAS, ROSANNA QUISUMBING                              0502
A6601400120314612876001DERAMPATUN, ASIS DORADO                                  0502
A2001400290315043579001U PENSION                                                0501
B2001400290315689243001PERALTA, DIXON WETACK OR CU, SUSANA                     11601
B2001400290315689243001PERALTA                                                 21600
A0101402350000005644782BARJA, ARCHIE ROMARAOG                                   0502
B0101402350321628463001SEABASE TRAINING CENTER FOR                             11609
B0101402350321628463001WATCHKEEPING INC                                        21600
A0101402350321638505001********                                                 0502
B0101405650322027250001UP COLLEGE OF MEDICINE CLASS '87                         1601
B0101405650322040191001GREENROAD VENTURES INC.                                  1601
A0101405650322047677001THE J. BIJE'S WINDOW SHOP                                0505
A0101405650000006273612CALERA, RENILDA DE GUIA                                  0501
A0101405650000001912038SAYSON, JESUS DOMINGO OR                                10502
A0101405650000001912038SAYSON, MICHELLE                                        20500
A0101405650322647248001SEBASTIAN, GENEROSE ALIDO                                0501
A0101402510341198527001PEREZ, TERESA REYES OR                                  10501
A0101402510341198527001PEREZ, ALAN VALENCIA                                    20500
A0101402510341553493001LORENZO, JOSEPHINE DELA PENA                             0501
A0101402060351217441038EMPLOYEES OF REPUBLIC ASAHI GLA                          0501
B0101409050352044235001SPECIALTY INVESTMENTS, INC.                              1602
A0101409050352696779001MONJE, RUDOLFO SUGUITAN OR                              10501
A0101409050352696779001MONJE, ROSALIA T                                        20500
A0101409050352696779001MONJE, RUDOLFO SUGUITAN OR                              10501
A0101409050352696779001MONJE, ROSALIA T                                        20500
A0201400920375478374015GAYO, LOURDES O.                                         0502
A0201400890000012414003EAMIGUEL, WENDY LOU LANORIAS                             0501
A0201400890376038937002ECB TRADING                                              0505
A0201400890376763623001**********                                               0502
B0101402930381037786001GOODWILL MACRO RESOURCES, INC.                           1602
B0101402930000000623385BMC WELTRADE CORP.                                       1620
A0101402930000003710803CHOA, C DBU CJATC ENTERPRISES                            0502
A0101402930381614215001DELA CRUZ, SOLEDAD AMURATO                               0501
A0101408370382209111001DR. JOSEFINA C. PONCIANO OR                             10503
A0101408370382209111001RANDOLF C. PONCIANO                                     20500
A0101408370382403308001DR. MARIA CECILIA I. JOCSON                              0501
A0101408370382433883001DR. RONALD AUGUSTINE O. CAMPOS                           0502
B0101408790383047729001INFINITE GRAFIX & OUTDOOR ADVERTISING                   11602
B0101408790383047729001INC.                                                    21600
B0101408790383762480001JDB PHILIPPINES INC.                                     1602
A0101415350000005085110PATRON, RICO ANDREW PIAMONTE                             0501
A0101415350000007043821TAMBOONG, LORNA DIMAIWAT                                 0502
B0101402770391034781001BAGONG KASAPI TRANSPORT CORP.                            1601
A0101402770391386798001SANTOS, MARLON LISING                                    0502
A0101402770391493694001LARA, MARIA VICTORIA ESTRADA OR                         10502
A0101402770391493694001LARA, RODOLFO I.                                        20500
A0101402770391595237001LUZ B. FERRER OR                                        10503
A0101402770391595237001MARIO G. FERRER                                         20500
A0101402770391684633001VERONICA AVERIA BAUTISTA                                 0503
A0101405490000004353042DAYRIT, JOEL MONTEMAYOR                                  0501
B0101408400394021928001EMERALD COURT SUBD. HOMEOWNERS                          11601
B0101408400394021928001ASSOCIATION                                             21600
A0101408400394027889001TINA S. BERIN FLOWER SHOP                                0505
A0101408400394535624002ORBISTA, AMALIA VALENCIA                                 0501
A0101408400394535998001ANDAM, KATHERINE KRISTY TOMAS                            0501
B0101408950000004428637GLOBAL VASCULAR SURGERY INC.                             1601
B0101409180397047485001SMS GLOBAL TECHNOLOGIES INC.                             1601
B0301400820000012928531MER'S FOODS AND DELICACIES, INC.                         1601
A5501400120410641408001GASCON, MERCEDITA TALAPIAN                               0502
A0101403030000005944670**********                                               0501
A0101403030441240814002**********                                               0504
A0101403320000010061546GINA T. AGUSTIN OR                                      10502
A0101403320000010061546JOSEPHINE S. TRINIDAD                                   20500
A0101403320471213527001ARCEO A. DELA CRUZ                                       0504
A0101403320000001646777MYRNA M. CRISOSTOMO                                      0501
B0101406330000000432944PIPETECH CONST. CO. INC.                                 1601
A0101406330472093563001SANTOS, ORESTES ROBLES                                   0503
A0101406330472296884001JAYLEE TRADING                                           0502
A0101406330472296884001JAYLEE TRADING                                           0502
A0101410140000000482746CHUA, JOANNA LAU                                         0501
A0501400170000009954118CABANGON, JUAN EMMANUEL TIGNO                            0501
A0501400170481334870001BRENDA U SALCEDO                                         0501
A1901400320000002295981SANDOVAL, WENDY AURELIA BALMES                           0501
A3801400170000011559767CABALLERO, CZAR OPENA                                    0502
A1901400160000013789963LOPEZ, LEA OCANAS DBU JULE                              10502
A1901400160000013789963TRUCKING SERVICES                                       20500
B1901400160491341189001VIRGINIA V LIM OR                                       11601
B1901400160491341189001RICHARD D LIM                                           21600
A1401400110000001549271CAMPOS, EDITHA NAVARRO                                   0502
A0701400260000011416685CASIPIT, NOEMI DE LOS TRINOS                             0501
A0701400260000011416696VALENZUELA JR., DOMINGO BADE                             0501
A0101405940000003121933KIDDER, GARY PHILLIP OR                                 10501
A0101405940000003121933KIDDER, AMELIE M                                        20500
B0101405940512023274001MANTRASCO EMPLOYEES SAVINGS & LOAN                       1603
B0101405940512037554001THE COVENANT CAR COMPANY, INC.                           1603
B0101405940000005359606SOMNOMED PHILIPPINES, INC.                               1601
A0101405940512153835001NEMESIO MENDOZA OR                                      10501
A0101405940512153835001ROSEMARIE MENDOZ                                        20500
A0101405940512502817001CASIQUIN, LAIDA CALIZAR                                  0501
A0101412050000012912373LIU, HAO                                                 0501
B0101403450521011891001EMPHASIS TRAVEL & TOURS, INC.                            1601
B0101403450521038001001********                                                 1601
B0101403450521240030001**********                                               1610
A0101403610000012973138GERODIAS, MARIA LUISA MUYOT OR                          10502
A0101403610000012973138SLAGLE, JENILEE GERODIAS                                20500
B0101403610000013681580PH VECTOR ONE, INC.                                      1601
A0101403610531086178001AMANTE, ANTHONY REY DELOS                               10501
A0101403610531086178001SANTOS OR AMANTE AURORA                                 20500
A2201400250000001545342GARCIA, DARRYLL JAMES TALON OR                          10502
A2201400250000001545342GARCIA, ELAINE JANE TALON                               20500
A0101404130601651761001ASUNCION, EDGARDO MAGDALUYO                              0502
A0101407720000004664222BONUS, JOHN CHRISTIAN ABAYA                              0501
B0101407720602022973001MMC SECTION OF PSYCHIATRY                                1601
A0101407720602162890001ARMANDO NAVARRETE OR                                    10501
A0101407720602162890001CARLOTA NAVARRETE                                       20500
A0101407720602283353001ERWIN HERNANDEZ OR                                      10501
A0101407720602283353001AGNES HERNANDEZ                                         20500
A0101407720602375361001SANTIAGO, CARLOS FRANCIS ARCEO                           0501
A0101407720602375361002SANTIAGO, CARLOS FRANCIS ARCEO                           0501
A0101407720000000713051SANTIAGO, CYMBELINE PEREZ                                0501
B0101404260000004781324AMAZIGRACE MANPOWER SERVICES                             1650
B0101404260000004781324AMAZIGRACE MANPOWER SERVICES                             1650
A0101404260611442053001DENSING, GREZILDA NACIONALES                             0501
A0101404260611478374010MARITES R. LACSON                                        0501
B0101409890000012558680SOTOZA, MA. IMELDA ALADO DBU TEXT A                      1605
A0101409920000006336912PANGANIBAN JR., FERNANDO V.                              0503
A0101409920000011312813MERCADO, EMIGDIO LEDESMA                                 0501
B0101407690652209580003LUIS, GRACIA EVANGELISTA                                 1601
B0101407690652505889001VANCOUVER HILL PRESCHOOL, INC.                           1601
A0101407690652520766005GILNNA M. MALIGAT - DEALERS OF                          10501
A0101407690652520766005SHOECAT INC.                                            20500
A0101413440000000702101GREFALDEO, JEAN GUAB                                     0501
A0101413440000001472873BANARES, EMILIA CHUA                                     0501
A0101413570656057648012JUANCHO M. BEJAR                                         0502
A0101406590662478277001SY, RAMONITA YBANEZ                                      0501
A0101406590662679888002*****                                                    0502
A1301400210000009982198PAULINO, ALEXANDER SARMIENTO                             0501
B1301400210682014870001PARAMOUNT LIFE & GENERAL INSURANCE                       1601
A1301400210682708653001CESAR N PAGSANGHAN                                       0501
A1301400340683282868001DR. JUAN FRANCO TORDESILLAS OR                          10510
A1301400340683282868001DR. ROWENA TORDESILLAS                                  20500
A0101408240000003310987DARWIN TANEDO                                            0501
A0101408240000003311257CHERYLLE GALAPON                                         0502
A0101408240000009453038ROJAS, CARMENCITA SORIANO                                0501
B0101408240000006414422YAVIN TECHNOLOGIES INC.                                  1601
A0101408240711226051002CHAN, ALFREDO OR CHAN, CEFERINA                          0502
A2801400230000013790133ESTERON, MOISES ZAMORA                                   0501
A2801400230000013790235GONZALES, ALJEDH JAN DOROTEO                             0501
A2801400230000013790304LOPEZ, ALLEN ATIENZA                                     0501
A2801400230000013790382VILLALOBOS, SALVACION TULIO                              0501
B2801400230000005253696ANG45 VENTURES CORPORATION                               1601
A4101400260000005333426ANDAYA, FRANKLIN PASAKDAL                                0502
B4101400260812599931001EMILIANO BOSITA AND MA. TERESITA URCIA                   1620
A4101400420814478374144JOCELYN TALANA                                           0501
A4101400550000013277066SU, YONGMING                                             0501
A0101412340000004360649AIFRED SELWYN P. ROGACION                                0501
A0101412340000007305757EVELYN D. ALVAREZ                                        0501
A0101412340850084655001ARNOLD CEDRIC E. FOJAS                                   0502
A0101412340000009501337FERRER, ANNIE LAO                                        0501
A0101412340000001017503ORDONEZ, MAMERTA ALVAREZ                                 0501
A0101404840000004565760LEGASPI, DANILO CALUPAS                                  0501
B0101404840851061519001ZTA PROPERTY INVESTMENTS, INC.                           1601
A0101404840851481664038ANGELITA C. HULAR                                        0501
A0101404840851520766037MAGDALENE DE GUZMAN                                      0502
A0101404840851520766067JOSEPHINE V. GABAYERON                                   0501
A0101404840851711784001DE GUZMAN, JERMAINE ROSE DE LOS                          0501
A0601400230000010702882UY, BERNALYN BASILIO                                     0501
A0601400230000002650171SANTOS, K DBU ADRICH ENTERPRISE                         10501
A0601400230000002650171OR SANTOS, CARMI                                        20500
B0601400230891386723002ROMEL OR MA. LORETO CANLAS                               1602
