A0101412630000000801574SALVADOR T. FLORESCA JR. OR                             10501
A0101412630000000801574ADELAIDA O. FLOR                                        20500
A0101412630000000045321*********                                                0501
A0101412630000000045321*********                                                0501
A1101400120000003022333ENFECTANA, EMIL ROY DY                                   0501
A1101400120000000652602LIM, JOHNNY C. OR                                       10505
A1101400120000000652602LIM, RICHARD Y.                                         20500
A0101400600071234252002**********                                               0501
B0301400950000012244869SHUNEM INTEGRITY RESIDENCES, INC.                        1603
A0301400950000013857286KLAB CONSTRUCTION                                        0502
A0101412500000005300758REY-MATIAS, MATTHEW AQUINO                               0501
B0101400860011374740002**********                                               1603
A0101400860011419699001**********                                               0503
A0101400860011533026001**********                                               0502
A0101400860011632451001**********                                               0505
A0101400860011687970001**********                                               0502
A0101401250000002290104ATUY, FLOREIVIC JOGEI BENLOT                             0502
B0101401250000000020771KAAKBAY ENTRE-WORKER COOPERATIVE                         1601
A0101400150000009399933CARINO, JENNIFER P.                                      0501
A0101400150000016357307SANTOS, MARC LAURENCE REAPORT                            0501
A0101400150000016357432BANGIT, REY ANN BOY DE GUZMAN                            0501
A0101400150000016357501PICHAY, CHAOS JEREMY CUADRA                              0501
A0101400150000016357530DELAPAZ, ANTONETE MARIE ENDO                             0501
A0101400150000016357574MANEBO, MICAH BRUAN                                      0501
A0101400150000016357603SUAREZ, ROIJIN GALAURAN                                  0501
A0101400150000016357665FACTURA, TERINA VIKTORIA QUERUB                          0501
A0101400150000016357698ACEVEDA, JANINA CHRISCHELLE MAA                          0501
A0101400150000011714931CIRUJANO, RAYMOND ANTHONY MENDO                          0501
A0101400150061226944001SALVADOR P. CASTRO JR. OR                               10502
A0101400150061226944001NORA D. CASTRO                                          20500
A0101400150061237987001LUBINA, MARINA GARCIA                                    0501
A0101400150061564610102VENTURA, CYRENE GYRIL P.                                 0501
B0101400600071328360002**********                                               1601
A0101405810072376364001***************                                          0501
A0601400100000016352102LINGAD, KRISTINE FATIMA TIGLAO                           0501
A0601400100000016352328PEREZ, ANABELLE ABRUGAR                                  0501
A0601400100000016352408PRESCO, REX BENEDICT ROLLAN                              0501
A0601400100000011854090PASCUAL, SINGERT ASUNCION DBU N                          0501
B0601400100000000142247ANGELES FORTUNE (HONGKONG) SEAFOOD                       1610
A0601400360000007539782SIBUG, MARK-VIN AGUILAR                                  0501
A0101410850000003503842LI, LARS ADRIAN LEE OR LI, KAYE                         10501
A0101410850000003503842CATHLEEN LEE                                            20500
A0101410560000001944072VALEN, ROSANA RETIG                                      0501
A0101406040000013257488********                                                 0502
B01014126301320477580014AJOR HOMES, INC.                                        1605
B0101412630000000024017LC STAR POWER VENTURES INC                               1605
B0101401830141008844001BM POWER SUPPLY & ELECTRIC SERVICES                      1605
B0101401830141037764001MICHAELJONA TRUCKING SERVICES, CO.                       1602
A0101401830141306724003GUEVARRA JR., ANTONIO PASCUAL                            0502
A5001400170000011264850RIVERA, PHILIP JACUBA                                    0502
A0101407270000001596923KATHERINE SUZANNE B. ROBLES                              0501
B0101407270000000830631EERA MARKETING                                           1603
A0101407270162331908032LIZA LEAH JUINIO                                         0504
A0101401090000016265680CHOA, JOANNA MARIE DY                                    0501
B0101401090171069757002ALL JAPAN CONSULTING INC.                                1601
A0101401090171195421001CONRADO T. VALIX                                         0502
A0101401090171201013001EDELBERTO C. BUNQUIN                                     0501
A0101401090000000210339MARICEL A. BALAIS                                        0501
B0301400530193720243088********                                                 1603
A0301400660000006862920BARIO, AIDA LLANA OR BARIO,                             10502
A0301400660000006862920ELITO SABAS                                             20500
B0301400660000000022904POROCO INDUSTRIES CORPORATION                            1605
B0301400660000000022835DURABOARD PACKAGING CORP.                                1605
A0101410720000000095163PAYLAN, JUVY OCER                                        0501
B0101410720653036522001LEDROMECH ENGINEERING SERVICES                           1602
B0101410720653036522001********                                                 1602
A0101412500000016353218TANEDO, CARLO PAOLO HERRERA                              0501
A0101412500000003289872TY, HAROLD LIM                                           0501
B3101400160221013530024RD PAWNSHOP, INC.                                        1606
A3101400450223459293002CORONADO, ABNER LOPEZ                                    0501
A3101400450223693052001FERRER, PAMELA PIA OR MELVIN                            10506
A3101400450223693052001JOHN OR AUSTRIA,                                        20500
A3101400870000005410213EVANGELISTA, GISELA CASTILLO                             0501
A3001400130000001261249BANJAO, JENELYN LARA                                     0501
B1001400190000013508748AUGUSTUS PERFUMERIA PHILS. CORP.                         1603
A1001400190000002170805******                                                   0502
A0101406620000005394783MAYARI, BIERNADETTE MARCELO                              0502
B0101406620273033463001ARL BUSINESS CONSULTANCY, INC.                           1603
A0101406620273471170001PANGILINAN, WILHELM JOSEPH C.                            0502
A0101412470000005380321*************                                            0501
B0101400570281007818001ACE-NBS MULTI PURPOSE COOPERATIVE                        1606
B0101400570000013647333NOLSTEAD INC.                                            1602
B0101411240000013845720RIGHT SOURCE SOLUTIONS, INC.                             1602
A0801400160000013365505PROVIDO, MARY AMETHYST ALIDO                             0502
A1101400120000016364886DELOS SANTOS, JEAN CASTILLO                             10501
A1101400120000016364886OR TY, SIMPLICIO TIU                                    20500
A0101402350000005645132DYL MECHANICAL ENGINEERING                              10502
A0101402350000005645132SERVICES                                                20500
B0101405650322043032001LEAN MANAGEMENT AND PEOPLE SOLUTION                      1601
B0101405650322077417001ELEGANT INFOVENTURES, INC.                               1602
A0101405650322172164002AQUINO, CHRISTIAN CASTRO                                 0502
A0101405650000009768110LOPENA, MARITES BLANCO OR                               10503
A0101405650000009768110LOPENA, PATRICIO                                        20500
A0101405650322210293002VILLANUEVA, TERESITA ESPINOSA                            0501
A0101402060351422451001OLARTE, JOEL QUIAMCO                                     0501
B0101409050352043882001NONITO SHOES AND BAGS SUBCONTRACTOR                      1605
B0201400760374026433001TSUNEISHI HEAVY INDUSTRIES (CEBU), INC.                  1605
B0201400760374045286001C.K. BUILDERS CONST. & DEV'T. CORP.                      1610
A0201400760374751653001KING, CHRISTOPHER LOPEZ                                  0501
A0201400890376535686001SO, RIZZA ANTOINETTE YAP OR                             10502
A0201400890376535686001SO, MAYLINDA YAP                                        20500
B0101402930000005646153ENGAGE MEDIA MAVEN INC.                                  1604
A0101408370382510871001DR. ALVIN C. CAMACHO                                     0501
A0101408370382545939002DRS. JEANNE MARIE R. MARQUEZ OR                         10502
A0101408370382545939002ARTHUR JOSEPH M.                                        20500
A0101402770000013464643MARYBEL GUMTANG OR JOEL GUMTANG                         10502
A0101402770000013464643DBU MAJ VEGETABLES STALL                                20500
A0101402770391190325001JOSIE G. PACENCIA                                        0501
A0101402770000009722910BERNARDITA B. PECSON                                     0502
B0101405490000000020008101 VENTURES SUPPORT CORPORATION                         1605
A0101408400000006129211YAMBAO, JOHN PHILLIP PRAICO                              0501
A0101408400394639219001ROMERO, FRANCISCO GABION                                 0501
A0101409210000005252164CHUA, DANICA CHOI OR CHUA,                              10501
A0101409210000005252164KESTER TAN                                              20500
A0101412210000003448628DELA ROSA, ELIZABETH CRUZ                                0502
A0101412210000009674213CANTILLER JR., ERNESTO DE LUNA                           0501
A0301400820000010907383ONG, RUSSELL RITCHIE B.                                  0502
B0301400820000008995577KART & KYLE FEEDS AND                                   11601
B0301400820000008995577VETERINARY SUPPL                                        21600
A5501400120000013825497NON, ALBERT JOSEPH SUMAGAYSAY                           10503
A5501400120000013825497DBU TRITAN CONSTRUCTION                                 20500
B5501400120410044567001RASAY INSURANCE AGENCY AND GENERAL                      11601
B5501400120410044567001SERVICES                                                21600
A5501400120410677345001RODRIGUEZ, KATHEREN T.                                   0502
A2401400180000014472001GAKO, REMELYN RAISA MANIPOL                              0502
B2401400180411035163088GOLDEN GENESIS MARINE RESOURCES CORP.                    1603
A2401400180411487765001KING, JACKSON OR KING, IRENE OR                         10502
A2401400180411487765001KING, JOHANNA                                           20500
A2401400180411564347001LIM, KENNELYN FELISILDA                                  0502
B1201400150421020444001INFORMATICS BAGUIO CITY CENTER INC.                      1605
A1201400150421039385001JL'S CLEAN UP JANITORIAL &                              10502
A1201400150421039385001MANPOWER SERVICE                                        20500
B1201400150421366008001SUN, FELIPE TAN                  JT                      1604
A0101403030000000531462HARROW, ALAN JAMES ANTHONY CASA                          0502
A0101403030441239066001**********                                               0501
B0101403030441239806001JETCO MOTOR SALES                                        1610
A0101406330472428084001DARWIN JEBB YLO OR MARILEN YLO                           0502
A0101410140000000499065MORDIDO, LYN ROBELLES                                    0502
A0101412760000001399293PEREZ, GABRIEL REYNALDO P. OR                           10501
A0101412760000001399293PEREZ, REYNALDO                                         20500
B0101412760000000031990PRIVE PROPERTIES DEVELOPMENT INC.                        1601
A0501400170481062489001CHUA, JOHN VINCENT ONG DBU JOHN                          0505
A0501400170481256189003SORIANO, JOSEPH ROQUE                                    0501
A0501400170481543161002TOMELDEN, ALMA ETERNA ORTIZ                              0501
A1901400320000016357114MAGSINO, RODERICO FIDEL MAGNO                            0501
B1901400320000000041283SAN ISIDRO MULTI-PURPOSE COOPERATIVE                     1601
A1901400160000015999432DRA. RIZZAH M. AGBAY                                     0501
A1901400160000016000472DRA. CRISTETA I. UNIRA                                   0501
B1401400110492013980002IMPERIAL APPLIANCE PLAZA                                 1601
A0701400260000013603771IMPERIAL, A DAISY DIZON                                  0501
A0101407430503185437004SHIRLEY B. RENIEDO                                       0502
B0101405940512022289003MGNP, INC.                                               1606
A0101408530000016354820PAQUIL, AERON AHMED MONIB                                0501
A0101411400000010984304BRADFORD, AIRA TOLENTINO                                 0501
B0101411400000010984144DELDIO, MANUEL FIDELIS DBU COOL FAITH                   11602
B0101411400000010984144ENTERPRISES                                             21600
A0101403450521240285002**********                                               0504
A0101403450521423441002**********                                               0502
A0101407720000016240612WILLY YU SY                                              0502
A0101407720000007936312PALAFOX, SUZANNE KATRINA                                10502
A0101407720000007936312VILLANUEVA                                              20500
B0101409890000006812724CAMPUS CATER CORE CORP.                                  1601
A0101407690000016132813ORIAS, AURELIO NIMENZO                                   0501
B0101407690000003767879MEGARITZ FINANCING CORPORATION                           1603
A0101407690000008045896YU, JERRICK LAYSON DBU                                  10501
A0101407690000008045896J.L.Y BUILDERS                                          20500
B0101407690000003768003MT. SINAI MOTORS CORPORATION                             1601
A0101407690652478374146BAUTISTA, MARITES - DEALERS OF                          10501
A0101407690652478374146SHOECAT, INC                                            20500
A0101407690652525001047NOEMI B. BUNDA - DEALERS OF                             10501
A0101407690652525001047SHOECAT INC.                                            20500
A0101407690652525001064JOAQUIN JUANCE - DEALERS OF                             10502
A0101407690652525001064SHOECAT INC.                                            20500
B0101413570000003580681FERRER, MARK OLIVER AND FERRER,                         11601
B0101413570000003580681ADLIN MAE                                               21600
A0101406590000016357250REYES, SHERYL DELL CARAG                                 0501
A1301400210682356262001MIGUELITA M. VINTA OR                                   10501
A1301400210682356262001SOLOMON T. VINTA                                        20500
A1301400500000011254349MYLENE L. VELASCO                                        0501
A1301400500000002063992JOSHUA & JAMES CONSTRUCTION                              0503
A1301400500000004093087ME-ANN'S EGG DEALER                                      0505
A4101400260812655003001CATHERINE R. COPIA                                       0501
A4101400420000000710427BONIFACIO, RENCY MENOR                                   0501
A4101400420000016351821FERNANDEZ, CHEYENNE SHANNE FELI                          0501
A4101400420814506413001IBIAS, JOSEPHINE OCAMPO OR                              10501
A4101400420814506413001IBIAS, SEGISMUND                                        20500
A4101400420814744380001BARLAS, MONALIZA GOLIPARDO                               0501
A4101400550000014678881********                                                 0502
A4101400550000013277179DELA CRUZ, FREDERICK GARCIA                              0501
A0101412340000003344312LOZARITA, FRANCIS JAYSON L.                              0501
A0101412340000003348656SALE, EMILY V.                                           0502
A0101412340000014390111JULIE C. GALIDO OR                                      10501
A0101412340000014390111MATLEY JAY C. GALIDO                                    20500
B0101404840851013980002VIC IMPERIAL APPLIANCE CORP.                             1601
B0101404840000006365353INFINITY JOURNEYS, INC.                                  1602
B0101404840000006365142TRIMOTORS TECHNOLOGY CORP.                               1603
A0101404840851424429002MAQUINANA, JOEL MACABUHAY                                0502
A0101406750000009471707PUEYO, JEAN CLARISS FELIZARDO                            0501
A0101406750000005608453ELMER DE LUNA LOREDO                                     0503
A0101406750000002040339DELA CRUZ, HANNAH SANTOS DBU PA                          0502
A0101405070861478374074PURISIMA C. STA.ANA                                      0502
