B0201400760374821100608**********                                               2020
B0201400890376821100608**********                                               2005
B0101406590662044061002ITEMHOUND CORPORATION                                    1601
A0101406590000000568816LEDESMA, JOHN MICHAEL ORBE                               0501
A0101405490000014635037TABIAN, CHRISTOPHER TORRECAMPO                           0501
A0101400730111478374028LIBRADA MAGNO                                            0502
A0101400730111520766051RABAGO, LENY FE                                          0501
B3101400450223821100608**********                                               2001
B0101402930000012171470G & J UNI-GLOBAL CAR RENTAL INC.                         1602
A4101400260000006043210BONGOLAN, NORMITA SALINAS                                0501
A4101400260812629092001ELLEN C. BUCAO                                           0502
A0101412470000008158834TOLENTINO, JOHNSON LU DBU NEW                           10501
A0101412470000008158834JOLEN MARKETING                                         20500
A0201400920000009575153LLEGO, MICHAEL SOCO                                      0501
B1901400160000013617897TRADEMARKETEERS MARKETING INC.                           1603
A1901400160000011077893MARILYN M. BERBERABE                                     0504
A1901400160491244619001ALEJANDRO F UY OR                                       10501
A1901400160491244619001APOLONIA AGNES B                                        20500
B0101405940512041188001PREMIUM WINE EXCHANGE INC.                               1601
A0101406590662070270001INOCIAN, MARIA TSARINA OR                               10505
A0101406590662070270001PAJARO,VICENTE OR YOLANDA                               20500
A0101406590662572714001CECILIA JR., JAIME ACCION                                0502
A0101408240000013171498GASGA, EDWIN GARCIA DBU G.E.G.A                         10501
A0101408240000013171498CARPENTRY SERVICES                                      20500
A4101400260812444997002MARY ANN SAN DIEGO OR                                   10503
A4101400260812444997002ANTONIO SAN DIEG                                        20500
A4101400260812469791001CAROL E. COMIA                                           0502
A4101400260000000377479PETALCO, BABELITO V. OR                                 10502
A4101400260000000377479PETALCO, VIRGILI                                        20500
A0101400860000008653414***********                                              0502
B0101400860011035923001**********                                               1602
A0101400860011663274001**********                                               0502
A0101400150000000053114SANTOS-CRUZ, MA. CHRISTINA                               0501
A0101400150000003197517Allan Paulo E. Malinana                                  0501
A0101400150061038536157VICTORIANO DELA ROSA                                     0502
A0101400150061468533001LO, NONIE YOUNG                                          0503
A0101400150061593323001TAPNIO, JHOMARIE CHRISS REMEDIO                          0501
A0601400100000009324072ARCENAS, MA. SHEILA DEMETERIO                            0503
B0601400100081469857001KAHUNAKUNZ INC.                                          1601
A0101400730111334903011SUSANA M. CATIIS                                         0501
A0101400730111334903039SANTILLAN, HYGEN BLANCA                                  0501
A0101400730000000645410ASIS, REDENTOR CONSTANCIO                                0501
A0101400730111751005001BATHAN, LYNDON LOVINA                                    0501
A0101413310000005433585CONNIE BERNADETTE S. URBANO                              0502
B7201400170000006487785LADLAD, EMSA BANA                                        1601
A0101407270000015177503EQUIPAJE, DIANA ESGUERRA OR                             10501
A0101407270000015177503EQUIPAJE, ARON GINO ISIP                                20500
B0101407270162038101001BIRDS INTERNATIONAL, INC.                                1603
B0101401090000014406452KHO, JOSIE N AND ATIENZA, MELINDA M AND                 11602
B0101401090000014406452RIVERA, CLARA R                                         21600
A0101401090000015243513PLAMERAS, GERTIE MAY BERNABE                             0501
A0101412500000015242509SALAYOG, PRECIOUS SORIANO                                0501
A0101412500000015242878ALIVIA, ARVIN MANERA                                     0501
B0101413600000005524772GENERAL POWER EQUIPMENT                                 11605
B0101413600000005524772SOLUTIONS INC.                                          21600
A3101400450223223458004ALVERO, LEAH AURORA TOLENTINO                            0501
A3101400450223405022001REYES, RIZALINA OR MANOLO                                0501
A3101400450223542163001BECINA, DENNIS HERNANDEZ                                 0501
A3001400130000000668479CALUMPANG, CRISTOPHER NAPOLES                            0501
A3001400130000006145206MEBATO, DIORYGIE BERNADEZ                                0501
A3001400130000005708545FAYTONE, MARIA FATIMA MAGNO                              0502
A1001400350233576675002LEGASPI, ECILIETO AMARGA OR                             10503
A1001400350233576675002LEGASPI, VIRGINI                                        20500
B1001400480000000133593DELUXE RANCH TRANSPORT CORPORATION                       1602
A1301400760000000050706WILLIE ONG DBU FUEL ZONE                                10505
A1301400760000000050706GASOLINE STATION                                        20500
B0101406620273021370001YOUNG'S PAPER SALES, INC.                                1601
B0101412470000003847405NEW LA UNION PLYWOOD TRADING CENTER                     11606
B0101412470000003847405INC.                                                    21600
B0101412470000008927528DOMINICAN SCHOOL (MANILA), INC.                          1605
B0501400200000006444813CRJ 620 QUICK LOANS CORP.                                1605
A1101400120313542847001LAO, WILSON JOSE S. OR LAO,                             10510
A1101400120313542847001JOVITA T. OR LAO                                        20500
A6601400120000008490411CU, LILIA T                                              0501
A6601400120000003084671TURLA JR.,JUVEN DBU JT BUILDERS                         10501
A6601400120000003084671& CONSTRUCTION SUPPLY                                   20500
B6601400120314665528001**********                                               1601
B2001400290315528399001**********                                               1601
A0101402350321459520001TIU, DANTE TAN OR JUAN PUAN TIU                         10501
A0101402350321459520001OR TIU, DAN CARLO                                       20500
A0101402350321478374059BERNARDITA D. LOPEZ                                      0501
A0101402510000011748908MA. RETCHEL S. MALIBIRAN                                 0503
A0101402510341331222002ERLINDA C. RECOCO                                        0502
B0201400760000007134585CHUA, JASON ANTHONY UY DBU VISIONARY                    11601
B0201400760000007134585STUDIO ARCHITECT                                        21600
A0201400920000009575175BANLAYGAS, NIKKI JOY OR                                 10502
A0201400920000009575175BANLAYGAS, FRANCIS JOE                                  20500
A0201400890000007561784SCHIESSL, CHRISTOPH                                      0501
B0201401020000005109922RED CHERRY 'N SILVER TIPS CORP.                          1610
B0101402930000003269458CIRCUIT SOLUTIONS, INC.                                  1601
A0101408370382390985001MRS. NENITA A. OLIVEROS OR                              10501
A0101408370382390985001MR. JESSIE N. OLIVEROS                                  20500
A0101408370000005220039TUAZON, MA. CRISTINA SANTOS                              0502
B0101402770000011812212***************                                          1605
A0101402770000000360672REYES, JENNIFER SANTOS                                   0501
B2401400180411035163088GOLDEN GENESIS MARINE RESOURCES CORP.                    1602
B2401400180411035164001MOMMY GINA TUNA RESOURCES (MGTR), INC.                   1610
B2401400180000000019769WILL & JOE AGGREGATES, INC.                              1605
A0901400220000006214499OH, ROBERT SAAVEDRA                                      0503
B0101403030441021825001**********                                               1605
B0101403030441238999001**********                                               1602
B0101410140000007303642KABUHAYAN SA GANAP NG KASARINLAN CR                      1610
A0101410140475738965001GERERO, MARITES LANGUITA                                 0505
A0501400170481043466001RUSKIN MARKETING                                         0505
B0101407430503010445001PHILIPPINE AIRPORT GROUND SUPPORT                       11640
B0101407430503010445001SOLUTIONS INC.                                          21600
B0101407430000001213089ASSOCIATED FREIGHT CONSOLIDATORS, INC.                   1602
B0101407430503044847001BANJAP PHILTRADE INC.                                    1602
A0101407430000001028831LAMBERTO C. AQUINO                                       0502
A0101405940000014027093HONG, TIANJIANG                                          0505
B0101411400000001280499ALI& CO., CPAS                                           1602
A0101403450521238269001**********                                               0505
A0101407720602271723104DR. ROBERTO G.M. IGNACIO                                 0501
A0101407720602396366001BRAVO, ARLENE RICARTE                                    0502
A0101407720602489773001MERCADER, MARY JOSEPH ABITRIA                            0501
A0101407720602672591001LU, JOSEPHINE YAP                                        0502
A0101412180000014957163SINGSON, ALLAN FERNANDEZ                                 0501
A0101404260611150863001CIPRIANO SAN MIGUEL                                      0501
A0101404260611312084001CHING KIN NAM OR ROSA CHING                              0501
A0101404260611337876002CHING, ROSA MATIAS                                       0503
A0101407690000002348832ALUNDAY, TERESITA AREVALO                                0501
B0101407690652017367002EAGLE BROADCASTING CORPORATION                          11605
B0101407690652017367002(NET 25)                                                21600
B0101407690652042938001SIGNWOOD HARDWARE & LUMBER SUPPLY                        1603
A0101407690000000495603JP PENA ARCHITECTURE AND DESIGN                          0501
B0101407690000000243923EVER READY CREDIT AND FINANCE CORP.                      1602
B0101407690000007720249THERMO-AIRE EXPRESS AIR CONDITIONING                    11605
B0101407690000007720249CORP.                                                   21600
A0101413570656057648005JIM VINCENT L. ACOLOLA                                   0501
A0101414120000001642633JOVENAL, ALMA GONZALES                                   0501
A0101414120000002879743DE GUZMAN, JENNY MERLIE APOLINA                          0502
A0101414120000012536173MARAMAG, REMEDIOS AGUAS                                  0501
B0101406590662348061002ALDABA, FERNANDO      JT                                 1601
A1301400500000012953794DR. MA. WINNIE G. IGNACIO                                0501
A0101408240000000039803GARCIA, MICHAEL PUNZALAN                                 0501
A0101408240711396310001LESTER C. VICTORIA OR                                   10502
A0101408240711396310001GIL JOSE E. PULU                                        20500
A2801400230000011626281ARATEA, SALVADOR REYES                                   0501
A4101400260000010623480PARTOZA, RACHELLE M. DBU JAYLYN                          0502
A4101400260000006043038CAMPOS, AILEEN SOLIDUM                                   0506
A4101400550000010508653LOPEZ, JOCELYN PILI                                      0501
A4101400550000013277102CARREON, N DBU NAIMA ENTERPRISE                          0501
A0101404840851217637055YOLANDA U. BAGA                                          0501
A0101404840851478374115ERLINDA O. PRADO                                         0501
A0101404840851520766067JOSEPHINE V. GABAYERON                                   0501
A0101406750852236873002SISORA OLGAH ELUMIR                                      0501
B0101405070861031615001MD EXPRESS MANILA, INC.                                  1610
B0101405070000000428966ONEWORLD ALLIANCE LOGISTICS CORPORATION                  1610
B0101413860000001768005CARGO DOMINANT WORLDWIDE LOGISTICS, INC.                 1601
B0601400230000000029729JARE TRADING CORPORATION                                 1605
A0601400230891380832001ANGELITO OR MARISSA LOPEZ                                0502
