B0301400400413821100608**********                                               2020
B0101404840851821100608**********                                               2005
A0101404000000003707475JACK RICH JP A SALILLAS                                  0501
A0601400520000005001567ARAGON JR., RODOLFO VIRAY                                0501
A3101400870000005409912ALCANCE, ALBERT JARVIS SORIANO                           0502
A3001400130230757981001SACAY, RENE CANTOR OR SACAY,                            10502
A3001400130230757981001JOSEPHINE SIMBIT                                        20500
A0101400860011393233002**********                                               0505
A0101400860011424924001**********                                               0501
A0101400860011478374003**********                                               0502
A0101400860011539633001**********                                               0501
A0101400860011565007001**********                                               0501
A0101401250021728670001BUDO, MARITES AVENIDO                                    0502
A0101400150000003198178ZARA MAE A. RAMOS                                        0502
B0101400150061010620001AMERICAN WIRE & CABLE CO., INC.                          1650
B0101400150061011076001GENERAL METAL CONTAINER CORPORATION                      1605
B0101400150061021674001JR & R DISTRIBUTORS, INC.                                1602
B0101400150061033314001PACIFIC METALS CO., LTD.                                 1603
A0101400150061337098169MA. GISELLE A. LICERALDE                                 0501
A0101400150061372223001RAFAEL ANTONIO R. MONTILLA                               0502
A0101400150061618555001GALANG III, EMILIO FEDERICO CAL                          0506
A0101400600000001335648********                                                 0502
B0601400100081253610002NG, WILFREDO M. AND AQUINO, JANET B. AND                11603
B0601400100081253610002BUAN, ROLAND S.                                         21600
A0101400730111195466001DELOS ANGELES, AMADO OR DELOS                           10502
A0101400730111195466001ANGELES, TRINIDA                                        20500
B0101406040112016172002LABORATORY EQUIPMENT AND SERVICES,INC.                   1602
A0101401830000000033718ROSACENA, GRACE PAPAS                                    0502
A0101412920000001313773VICTORINO, JOCELYN DELA CRUZ                             0501
A0101412920000003464873CADA, VERONICA NG                                        0501
B0101407270162046726001VALUE CARE HEALTH SYSTEMS, INC.                          1650
B0101407270162046726001VALUE CARE HEALTH SYSTEMS, INC.                          1650
A0101407270162333006028BENEDICT M. CALINA                                       0501
A0101407270162379916001MA. LOURDES A. DE GUZMAN                                 0501
A0101401090171196024001GUTIERREZ, RUTH VILLANUEVA                               0503
B0301400530193038459168PIONEER BEE CORPORATION 1                                1605
A0301400790000002301331SORROCHE, RONALD JAY UY                                  0502
B0301400790000000435807ROTARY CLUB OF WEST DAVAO                                1601
B0301400790000003969251ROSELLO, EDGARDO VILLACURA DBU HAMARCED                 11601
B0301400790000003969251CONSTRUCTION                                            21600
A0101401380000000791993********                                                 0503
B3101400160221031514001PLASTECH INDUSTRIAL CORPORATION                          1601
B3101400160221044142001PERFECT RAYS OUTSOURCING CORPORATION                     1601
A3101400160221478374009GINA A. FACUN                                            0501
B1001400190231020614001LIM, CHARLES EDWARD W.                                   1601
A0101401670271368171001WARREN DOMINIC G. DE GUZMAN                              0502
B0101406620273031207001TANVIC REALTY CORP.                                      1601
A0101406620273326898001CRISELDA GARCIA                                          0501
B0101408660274046032001INTERNATIONAL SPECIALTY WEAR, INC.                       1603
B0801400160311494221001JUCABAN, LEO LAGOS                                       1601
A6601400120000001065281ECHALUCE, RAFAEL OR MYRNA                                0503
B6601400120314047332001ST. ANTHONY FARM INSTITUTE OF                           11601
B6601400120314047332001TECHNOLOGY INC.                                         21600
A0101402350321179570001NEAL ORTEZA OR                                          10501
A0101402350321179570001IMELDA OLIVAREZ                                         20500
A0101402350321478374017RIZA G. SANTOS                                           0501
A0101405650322531153001VILORIA, MARITES QUINTOS                                 0501
A0101402060351328741002CARLOS, JOSE IGNACIO OR CARMEN                          10505
A0101402060351328741002CARLOS OR REGINA                                        20500
A0101409050000002652946DUMALAG, RANULFO C.                                      0501
A0101409050000006171273MICHELLE R. UMALI                                        0501
A0201400890000004667103UY, ELWIN YU                                             0503
A0101408790383698989001CANDELARIA, MARY JANE DOMINGO                            0501
A0101408400394605254001*****                                                    0504
A0101408950396569875001BERNARDO, MARIA CRISTINA CORNEL                          0504
A0101409210000001294377TEMBREVILLA, JEFFREY ALDABA                              0501
A0301400820000000132527DAGADAS, CONCORDIA A.                                    0501
A2401400180000000826186OMOSO, J ZA KO OR OMOSO, JAN                            10501
A2401400180000000826186TRISTAN V.                                              20500
B2401400180411034635001PERJ AGRO ENTERPRISE, INC.                               1605
A2401400180411272643002KMG GAS & DRIVE                                          0501
A2401400180411276219002NONO, JENNY DIZON                                        0502
A2401400180411459505001MARK T. GO OR MADELINE Q. GO                             0501
A2401400180411459505001MARK T. GO OR MADELINE Q. GO                             0501
A2401400180411501589001VALILA, NOL S. OR VALILA, MA.                           10501
A2401400180411501589001LOURDES D.                                              20500
B0301400400413821200608**********                                               2005
A1201400150421348560001ABRATIQUE, BRIGIDA CECILIA                               0501
A0101403030441295362002**********                                               0501
A0101403320000000067612SORREDA, IVY HUBILLA                                     0501
A0101406330472369996001DOLORES P. SUMADIC                                       0501
B0501400170481015881001TOYOTA DAGUPAN INC.-2                                    1615
A0501400170000001032153UNGOS, ROWENA ORFINADA                                   0503
B1901400320000000041283SAN ISIDRO MULTI-PURPOSE COOPERATIVE                     1601
A1901400160491244619001ALEJANDRO F UY OR                                       10502
A1901400160491244619001APOLONIA AGNES B. UY                                    20500
A0701400260000003259294AMPONGAN, ANDRES PALACIO                                 0501
B0101407430503042216001HIGH COMMAND AVIATION SECURITY                          11605
B0101407430503042216001SERVICES CORP.                                          21600
A0101407430503345479001JOSE R. CHUA JR.                                         0501
A0101406880513512239001***********                                              0501
A0101408110515041358001MADE IN HEAVEN ENTERPRISE                                0501
A0101408110515041358001MADE IN HEAVEN ENTERPRISE                                0501
A0101408530516485540001PEREZ, MARY MILLICENT NACION                             0502
A0101403450000001638075ACUNA, TERESITA CABRERA                                  0504
B0101403450521048160001MARINE SUPPORT, INC.                                     1601
A0101404000551455007001CANSINO, ANNA LIEZL GATCHALIAN                           0501
A0101407720602318699001DR. ERWIN R. DIZON                                       0501
A0101407720602398260001JURILLA, JON EDWARD OR                                  10504
A0101407720602398260001CAMILLE L. JURILLA                                      20500
A0101407720602401438001JUANCHO ALFREDO DAEL LAS                                 0502
A0101407720602404060001MARZO, MARIA ROWENA FERNANDEZ                            0502
B0101404260611005306001THE HOUSE OF RACOR ADS., INC.                            1605
A0101409890000000437461RAMPAS, AMELIA CHUA                                      0501
A0101409920000001539522CEDENO, NOEMIE DEDICATORIA                               0501
A0101413440000000702189DEL ROSARIO, ARSENIA ROSANA                              0501
A0101410300000003290100JESUS L. TAN                                             0502
A0101410300663752531001*****                                                    0501
A1301400210000005040679EMPERADO, JANNO GONZALES                                 0502
A1301400340683410031001LLANILLO, ROSEMARIE RAMOS                                0510
A1301400500000003070139SUGAR DADDY MARKETING                                    0502
A0101408240711386973003ROBERTO SANTIAGO OR                                     10502
A0101408240711386973003DIANA SANTIAGO                                          20500
A0101408240711479108001ENVERGA JR., WILFRIDO MCCORMICK                          0502
A2801400100712430047001LEE, JAMES TAN                                           0502
A2801400100712494193001DIANO, BLESILDA MISTICA                                  0501
A4101400390813400893002MORALES, MARICEL DEL ROSARIO                             0505
A4101400390813478374021JERESANO, ASUNCION L.                                    0501
A0101412340000003340941BERNADETTE L. AVANZADO                                   0501
A0101412340000003344614ALVIN C. MEDRANO                                         0501
A0101404840000000122658MARIFE DE CASTRO                                         0501
A0101404840851520766073ELIZABETH A. SUAZO                                       0501
A0101406750000001491841PULIDO, MARIA LUISA T. OR                               10502
A0101406750000001491841PULIDO, ROMEO J.                                        20500
A0601400230000003015998CABRERA, JANET DE LEON                                   0501
