A0101404420000000026013*****                                                    0501
A0101401700000000040251**********                                               0503
A0201401020000000055952DANO, JOSIE DANAS                                        0502
A0101401380000000106470JUNG, SEJUNG                                             0502
A0101406590000000131717MONDRAGON, GLORIA FERNANDEZ                              0501
A0201400760000000222886JAYME, STEPHEN RODRIGUEZ                                 0502
A0101413730000000469205******************                                       0502
A0101407270000000818417LICUP, ROSEMARY MATANZA                                  0502
A3001400130000000931282BALANGA, MARIO FERNANDEZ                                 0501
A0301400530000001009932TAUTHO, SHIRLEY E.                                       0501
A0301400530000001009943PANTUA, JERSON R.                                        0501
A0101412340000001017930SONIA MEDINA SIBI                                        0502
A0101405810000001021207CHEN, TINGYU                                             0510
A0101413310000001073916TORRES, CONSUELO FE CIELO D.                             0501
A0101404130000001173648CALAQUI, JANIS IAN DELOS SANTOS                          0501
A0101413150000001288331******                                                   0501
A0101400600000001335591********                                                 0502
A0101401380000001412559********                                                 0501
A4101400550000001622719MINA, MARY JANE VALDESCONA                               0501
A4101400390000001732805FLORITA DE JESUS                                         0503
A0101401380000001819963ILISCUPIDEZ, LIEZL JANITO                                0501
A0101412630000001823343CABANELA, JUDITH GUIRNALDA                               0503
A5501400120000002019089VILLORENTE, KRISTINE PRADO DBU                           0505
A1301400500000002063792ANTONIO, ALBERT SILVA                                    0501
A2601400270000002257110SHEENA MARIE MAMERTA V. CULHI                            0501
A0201400760000002309731MARASIGAN, YOLANDA PULGO                                 0502
A0101412340000002900330ROSELLE B. BORBE                                         0501
A0101408530000002980658UNCHUAN, JOSE GAVINO ESCANO                              0502
A0101400860000003533413************                                             0501
A0101409180000003780352ORTEGA, MARC-RYAN                                        0501
A0101409180000003780483FAUSTINO, MA. CECILIA                                    0501
A0101409180000003780512MULITAS, LORENA C                                        0501
A0101412340000004359848KRISTIE THERESE O. CACHO                                 0501
A0101412340000004360121CATHERINE B. PAMPLONA                                    0501
A0101409180000004375304NOCHE, MARIA TESSA E.                                    0501
A0101402510000004730341CRUZ, JONAS CONDE                                        0501
A0101400860011502561001**********                                               0502
A0101400860011669392001**********                                               0504
A0101400860011687970001**********                                               0502
A0101401250021183555001MERCEDES B. CONCEPCION                                   0502
A0101401700041192370001******                                                   0506
A0101405810072316984001**********                                               0501
A0101405810072387220001**********                                               0502
A0601400100081028046001TANDEM INTERIOR DESIGN STUDIO                            0503
A0601400100081251783001ANTONIO, ADELA L.                                        0501
A0101401960121238670001**********                                               0503
A0101400440161525001100CATHERINE J. NARAGA                                      0501
A0101400440161525001103OFELIA B. OLERMO                                         0501
A0101401090171199666001ELENITA C. MENDOZA                                       0501
A1001400190231040271001ROADNET 2000 ENTERPRISES                                 0502
A0101401670271189252001LOURDES LIM LEE                                          0503
A0101400570281491697001LAXAMANA, EFREN CORTEZ                                   0505
A0101400570281706972001**********                                               0501
A0101402350321526808001LUCITA R. TARRAY                                         0502
A0101402480331010038001**********                                               0502
A0101402480331057679001*********                                                0501
A0101402480331220621001*****                                                    0502
A0101402480331532602001***************                                          0502
A0101408820333454062001ROQUE, ANTONETTE SIASOL                                  0502
A0101408950396561962001DR. JONNEL LUGOD LIM                                     0502
A0101408950396563990001LUAT-INCIONG, JOY ESCUETA                                0501
A5501400120410619219001PALMA, WILLIAM PEJI                                      0501
A1901400160491326873001JOSEPHINE S CUDAL                                        0502
A0101407430503225389001BRIAN A. PINEDA                                          0501
A0101408110515679384001LUDIVINA L. HIPOLITO                                     0501
A0101407720602271723013CARMENCITA B. VERAYO                                     0503
A0101406590662342921003ALBERTO OR MA. LEONOR ATILANO                            0502
A1301400210682247780001AILEEN A. MUNOZ                                          0502
A0101407560686478374061WILMA SABALBORO                                          0501
A0101407560686506885001**************                                           0504
A0101407560686550325001GEORGE LEO C. GO JR.                                     0502
A0101407560686662041001RACHIEL R. CORDOVA                                       0501
A1701400230693092725001ALIPIO JR., ISAIAS PASCUA                                0501
A4101400260812629092001ELLEN C. BUCAO                                           0502
A0101412500000000041567ALEGRE, JOYCE S. OR ALEGRE,                             10503
A0101410300000000191655LABRADOR JR., VIRGILIO P. AND                           10501
A0101412050000000697190RIVERA, TEODO DBU BLAZE EFX                             10501
A4101400550000000900372ALFORTE BUSINESS CONSULTANCY                            10501
A1301400470000001299010GLADYS JEWELRY AND GENERAL                              10503
A0701400260000001804564MISOLAS, WILSON VARGAS OR                               10501
A0101412470000002086375NAKPIL, JOSE ANDRES OR                                  10501
A0201400920000002249954LORLIE P. GALANG OR GLENN                               10501
A0101412890000002747766BELVIS, G DBU BELVIS MEAT                               10503
A1101400120000003981077CERVANTES JR, VIVENCIO V DBU                            10501
A0601400100081251941001MARCELINO ALAPAG OR                                     10502
A0601400100081424085002ALAPAG, JASMINDA BRIONES OR                             10504
A0101412630132094165001LIM, EMILY TAY OR                                       10502
A0101401090171196077001EUSEBIO E. LLAMAS OR                                    10501
A0101401090171406527001DARWIN HENRY P. PESO OR                                 10503
A3101400740224651043001TORRES, REYNEN SABIO OR                                 10505
A0101402640361778805001TRAVINA, RICHARD PASA OR                                10501
A0101407720602283353001ERWIN HERNANDEZ OR                                      10501
A0101413440655055766001MIRANA, DOLLY D. DBU NINI AND                           10502
A4101400550815693134001LLANES, TUDOR HERNANDEZ OR                              10501
A0101412500000000041567JAMES CEDRIC Y.                                         20500
A0101410300000000191655SALEY, RONIE A.                                         20500
A0101412050000000697190EVENTS PRODUCTIO                                        20500
A4101400550000000900372SERVICES                                                20500
A1301400470000001299010MERCHANDISE                                             20500
A0701400260000001804564MISOLAS, DELIA VARGAS                                   20500
A0101412470000002086375DE CASTRO, MARIA GUIA                                   20500
A0201400920000002249954ANTHONY A. GALAN                                        20500
A0101412890000002747766PRODUCTS                                                20500
A1101400120000003981077VIVENCIO VILLAMOR CERVANT                               20500
A0601400100081251941001JASMINDA ALAPAG                                         20500
A0601400100081424085002SARMIENTO, FE SA                                        20500
A0101412630132094165001ZABAT, JASON REY                                        20500
A0101401090171196077001LOURDES LLAMAS                                          20500
A0101401090171406527001MARIA CECILIA S. PESO                                   20500
A3101400740224651043001TORRES, JOANNE RIVERA                                   20500
A0101402640361778805001TRAVINA, RAQUEL                                         20500
A0101407720602283353001AGNES HERNANDEZ                                         20500
A0101413440655055766001STITCH GARMENTS                                         20500
A4101400550815693134001LLANES, PRESCILLA                                       20500
B0101404260000000003783ABELLA, ROLDAN AND FAINZA LAWYERS                        1605
B0101405650000000012944KORCHINA LOGISTICS PHILIPPINES, INC                      1602
B1301400210000000023496JELLI'S GAS STATION                                      1602
B1301400210000000023503JELLI'S GAS STATION                                      1602
B1301400210000000023521TANK UP ENTERPRISES                                      1602
B0101409210000000031238******                                                   1615
B0101401830000000059983LABNAO, ROWENA P. DBU STAR ARROW TRADING                 1601
B0101404840000001312485VABGREC SECURITY SERVICES, INC.                          1603
B0101413730000001568436********************************                         1602
B0101402770000001571604MC GENTECH BUILDERS CORP.                                1601
B0101413860000001767940PROMPT MANAGERS AND CONSTRUCTION SE                      1601
B0301400820000002692077TAN, ERWIN P. OR TAN, EMILY C.                           1610
B0101412340000002900363ANZAK MODERN MUSIC PRODUCTION                            1601
B0101400860011305536001**********                                               1601
B0101400860011502561003**********                                               1603
B0101400730111042348001SBJ MARIKINA SHOE EXCHANGE CORP.                         1602
B0301400530193022834168DAVAO ORCHARD ROAD, INC                                  1610
B0301400530193768647001DEBILDOS, MILANIE L.                                     1602
B3101400740224022200003*                                                        1610
B3101400740224024279002*                                                        1610
B0101402350321034292001JACINTHE MANUFACTURING CORPORATION                       1601
B0101402350321034292001JACINTHE MANUFACTURING CORPORATION                       1601
B0101402350321035857001MOBICAR TRADING CORPORATION                              1602
B2401400180411037975001ELZANO WORLD VENTURES                                    1601
B2401400180411042157088ERSONS BUY & SELL AGRI-PRODUCTS                          1610
B2401400180411056177001MOUNT MATUTUM PETRON SERVICE STATIO                      1601
B0101403030441237338001**********                                               1601
B0501400170481013098001MOTORPLAZA INCORPORATED                                  1603
B0501400170481025398002****                                                     1601
B1901400160491027966001SALESFORCE ONE MARKETING, INC.                           1605
B0101407430503027092001MULTIPLE GARMENTS AND APPAREL, INC.                      1601
B0101404130601100121002OMRON ASIA PACIFIC PTE. LTD.                             1602
B0101404260611037884001EJFA PROFESSIONAL DEVELOPMENT CORP.                      1605
B1301400210682042117001JELLI'S GAS STATION                                      1602
B4101400260812599931001EMILIANO BOSITA AND MA. TERESITA URCIA                   1610
B4101400390813036410001THE BOAT SHOP CORPORATION                                1602
B4101400420814016269002DAMAYAN SA ANABU II B CREDIT COOPERATIVE                 1603
B0101405070861046561001BILLBOARD PROMOTION, INC.                                1603
B0601400230891037746002WESTCOAST AUTOMOTIVE CORPORATION                         1605
B0601400100000000142214SIMON AND STANDLEY INTERNATIONAL TRADING                11605
B0201400760000001612926ALVIN SANDOVAL & FEDERICO II & NICOLASA                 11602
B0601400100081032338001SAINT EMILIANA ACADEMY OF EXCELLENCE,                   11601
B0101402350321628463001SEABASE TRAINING CENTER FOR                             11610
B0101407430503039663001ACES CHASSIS MANAGEMENT AND MARKETING                   11610
B0601400100000000142214& DEVT CO, INC.                                         21600
B0201400760000001612926ABELLANA                                                21600
B0601400100081032338001INC.                                                    21600
B0101402350321628463001WATCHKEEPING INC                                        21600
B0101407430503039663001CORP.                                                   21600
B0101417420000801010012**********                                               2102
B0101407300395821100608**********                                               2002
B0701400260495821100608**********                                               2002
