B0101400570281821100608**********                                               2005
A0101412890000009833861NERA, MAURA DE SAGUN                                     0502
A0101403580511150737002ELIZABETH C. VIRATA OR                                  10506
A0101403580511150737002LUIS JUAN L. VIR                                        20500
A0101400860011402005002********                                                 0502
A0101400860011550744001**********                                               0502
A0101400860011582735001**********                                               0502
A0101400860011661386001**********                                               0505
A0101400150000002395019LIWANAG JR., ANICETO D. OR                              10501
A0101400150000002395019LIWANAG, WILHEMINA DANSEY                               20500
A0101400150061087284001RODA, JULIUS R. DBU SJA TRADING                          0502
A0101400150061334116001MICHAEL A.P. ADAMS                                       0502
A0101400150061738608001SANTOS, ZOSIMA OR SANTOS, RALPH                          0501
A0601400360000012046405YAPJOCO, MARIO LORENZO ALVAREZ                          10502
A0601400360000012046405OR YAPJOCO, RIZALYN                                     20500
A0601400360000015616501GUECO JR., JOSE CARBUNGCO                                0501
A0601400360000007539719EVARISTO, BONIFREDO BARRERA DBU                         10504
A0601400360000007539719BONI MACHINE SHOP                                       20500
A0601400520000003187313PAROLI, VIRGILIA SOLIMAN OR                             10503
A0601400520000003187313PAROLI, ANTONIO                                         20500
A0601400520000007553326SIGUI, MARY ANNE ANQUILO                                 0501
A0101413730000000144578**********                                               0501
A0101413730000007317291************                                             0502
B0101410850109065680001ONIX MOVERS CORPORATION                                  1601
A0101410560000010318333ARIANE JOY M UBANE                                       0502
A0101400730000011264127RAMOS JR., DONATO AGOOT                                  0501
A0101401960000001844522***************                                          0501
A0101400440000014296325GONZALES JR., SEVERINO PAYAWAL                           0501
A0101400440161538462001ROMEL A. ADDUCUL OR                                     10502
A0101400440161538462001JOCELYN C. COBAN                                        20500
A0101407270000015610169SISON, JEROME ARTHUR ILAGAN                              0501
A0101407270000015617731LEE, JOVENTINO LIONGSON                                  0501
B0101407270000015512757APPS BUILDER TECH INCORPORATED                           1601
B0101407270000000830368ONE FOOD GROUP MANAGEMENT SERVICES, INC.                 1610
A0101407270162582558001CHENG, EDMUNDO VICTOR ENCISO                             0502
A0101401090000015607828ICO, AIDA PALAD                                          0501
A0101401090000015619982BUENAFLOR, MARIA KATRINA                                10501
A0101401090000015619982ARRIOLA                                                 20500
A0101401090171195427002URSULA E. REGIO                                          0501
A0101401090171197472001HELEN HIDELITA OR                                       10501
A0101401090171197472001ROMEO JOSEPH IGNACIO                                    20500
A0301400530000013781012RAFOLS, JADE KIRBYL GO                                   0501
A0301400660000014406674BUENAVENTURA, VICTOR JOSEPH DEL                          0501
A0301400790000002301400LERIOS, HAMLET MONTEJO                                   0501
A0301400790000002301273DANGCALAN, MARITES DALOGDOG                              0501
B0101401380201034247001HOBBIES OF ASIA INC.                                     1604
A0101410720000007017405CERNA, CECILIA DBU CRN                                  10501
A0101410720000007017405ENTERPRISES                                             20500
B0101410720000007017336SUNWEALTH LAND DEVELOPMENT CORPORATION                   1605
A0101412500000005300601LACAP, JENNIFER                                          0502
A3101400160000002761931DIANGKINAY, ENGRACIA CARRO                               0502
A3101400160000006497563DR. SAUL SONNY M. OBUNGEN                                0502
A3101400160000015617771ROQUE, ROMEO SANTIAGO                                   10502
A3101400160000015617771DBU RS ROQUE CONSTRUCTION                               20500
B3101400160221013980001VIC IMPERIAL APPLIANCE CORPORATION                       1605
A3101400450000009464684ARAMBULO, ARTRIE N.                                      0501
B3001400130000000067218LIGHT ME UP CORPORATION                                  1601
B1001400190000011058001BUATIS, RICHELLE FRIAS                                   1601
B1301400470252044739001PHILIPPINE DENTAL ASSOCIATION NUEVA                     11601
B1301400470252044739001ECIJA CHAPTER                                           21600
A1901400290261063224002RODELAS, MARK ATIENZA DBU                               10502
A1901400290261063224002PHILLIP YOHANN TRADING                                  20500
A1901400290261432900001JULIUS PIO AFRICA RANA OR                               10501
A1901400290261432900001CHARMAINE DE GUZMAN RANA                                20500
B0101401670271025034001M.P.S. FOOD CORP.                                        1603
A0101406620000010983083ABIA, JOHN GUIEB                                         0501
A0101411110000014167392GALLARDO, JANDALE ALEDIA                                 0501
A0101411820000004981762ALBAN, NYMPHA MARIE LUCERO                               0501
B0101400570000011364782PHYLUM PRODUCTS, INC.                                    1602
A0101400570281200175001MARLENE M. GONZALES                                      0501
A2601400270000005301751FELITA C. MARANA                                         0501
A2601400270000000561642ROMINA FRANCESCA C. MOLINA                               0501
A08014001600000004763463SC SUPREME MOTOR SHOP                                   0503
A0801400160311399110001DRA. ELLEN ABELITA OR                                   10505
A0801400160311399110001DANILO ABELITA                                          20500
A0801400160000011336440ABELITA, ELLEN DUMAYAS OR                               10502
A0801400160000011336440DUMAYAS, RODOLFO JR SISON                               20500
A3401400280000011150660ACEVEDO, FREDERICK ESCUTIN                               0501
B3401400280000006790954808 PRIME HOLDINGS, INC.                                 1601
B0101402350321024658002OLIVAREZ COLLEGE INC.                                    1608
B01014056503220335510024252 GENERAL MERCHANDISE                                 1601
A0101402510341196690001PATRICIA R. ALVIAR                                       0501
A0101409050000013552853EMPLOYEES OF, DELL GLOBAL B.V P                         10501
A0101409050000013552853CALINGO, MA. RANIELLA                                   20500
A0201400760000005156587TIONG KEE YU OR RYAN RAYMOND YU                         10501
A0201400760000005156587MA ADELINA UY                                           20500
B0201400760000011325681ACT SURE INTERNATIONAL SALES CORP.                       1605
B0201400760374032939001GATEWAY MOTORS (CEBU), INC.                              1605
B0201400760374032939002GATEWAY MOTORS (CEBU), INC.                              1605
B0201400920375042734001A. LIM DEVELOPMENT INC.                                  1602
A0201401020000005250691PANGATUNGAN, ALEMODEN AYING                              0502
A0101415350000007878242SALCEDO, RUBINA H. DBU RJG ENTE                          0501
A0101405490000000126463LORNA V. TUGADE                                          0502
A0101408400394478374058CHARINA BENIGNOS                                         0504
A0101408950000000776490AQUINO, CHERILYN RUIZ                                    0502
A0101408950000014190702SORIAGA, JOYLEEN MANALO                                  0501
A0101409180000003310185VIZMONTE, FRANCINE NELANIE P.                            0501
A0101409180000006558605GADDI, SIXTO SISON                                       0502
B0101409180000008122854THE VERANDA SNACK BAR CORP.                              1605
A0101409210000005251901ESTALANI, MARICHU BERNARDO                               0502
A0101412210000003448640MABANGLO, GHEMA DEO OR                                  10501
A0101412210000003448640TUANGCO, MARK ANTHONY                                   20500
A0301400820000006542754CORONADO, TAMERLANE D.                                   0503
A5501400120000013825442GACIS, STARLYN JAVELLANA                                 0502
B2401400180411033588088FIESTA APPLIANCECENTER, INC.                             1610
B2401400180411043569001PHOENIX UNIVERSAL MEGA GAS STATION                       1605
B1201400150000011266652ZAMBRANO, IMELDA COL-COLI DBU THE MOUNTA                11603
B1201400150000011266652IN BEAT NEWS                                            21600
B1201400150000005357906COST OF MONEY LENDING CORPORATION                        1605
B0101403030441481559002**********                                               1602
A0101412890000009833554AMIDO, ANNA LIZA GUEVARA                                 0501
A0101412890000009833827**************                                           0501
B0101406330472021511001ASSOCIATED WIRE CORP. OF THE PHILS.                      1610
A0101406330000000162616LAND OF THE PROMISE TRUCKING                            10505
A0101406330000000162616SERVICES                                                20500
A0101406330472311319001ALEJANDRO V. VICTORINO JR.                               0502
A0101406330472478374044ARMES SMITH B. ALVARADO                                  0501
A0101412760000011574964MARINAS, LORENA MECHILINA                                0501
B0501400170000013295917LEAD WITH INTEGRITY AND GOOD GOVERN                      1603
A0501400170000006300629GAZMEN, ARNEL GERARD RAYOS                               0503
A3801400170000012458981VILLALOBOS, EVANGELINE REYES                             0501
A3801400170000015356659ANONUEVO, JUNILA OR ANONUEVO,                           10501
A3801400170000015356659ROGEL DBU GMIX ENTERPRISE                               20500
A1901400160000015553490CRUZAT, JESUSA AREVALO                                   0501
B1901400160491013980001VIC IMPERIAL APPLIANCE CORP.                             1603
A1901400160491494343001RAINIER C UNTALAN OR                                    10503
A1901400160491494343001RELYN M UNTALAN                                         20500
A1401400110000011337403CABANGON, EDGARDO MATRIANO                               0502
A1401400110000013091559BUERA, ALICIA DBU VJ NARVAEZ GE                          0503
A1401400110000003063425SANTOS, WILFREDO GASPAR                                  0502
A1401400110492635504001TOLOSA, RUBY ROSE ARINO                                  0501
A1601400170000001360792CHEN, ZE DENG                                            0502
A1601400170000013603504BORAGAY, HENRY REPOLLES                                  0501
A1601400170494047880001AIREEN I. SALAZAR DBU A.                                10501
A1601400170494047880001SALAZAR LEARNING                                        20500
B0101407430000000035316D' FRADA ALLIED SERVICES INC.                            1602
A0101407430503375315003LILIAN LIZA C. MACATO                                    0501
A0101403580511156576001NIDAN E. ALBA                                            0504
A0101403580511693764001MESIAS, MARIA CARMINA SANTIAGO                           0503
A0101405940000001047381MIRANI, DIANA NARESH  JT                                 0502
B0101405940000000002773BT AUTO SPORT CORP.                                      1610
B0101408530000001275229PEOPLE'S CREDIT PAWNBROKERAGE                           11601
B0101408530000001275229CORPORATION                                             21600
B0101408530516505337002********                                                 1602
A0101408530000008159768SARIO, CLARENCE MORENO                                   0502
B0101411400000001280557ROMEO B SIRA DBU RBSS PROJECT MANAGEMENT                11601
B0101411400000001280557SERVICES                                                21600
A0101411790000015609380VIRADOR, HAIDEE TAN                                      0501
B0101403450521027036001**********                                               1601
B0101403450521238082001*********                                                1601
B0101403450521239481001**********                                               1602
A0101403610000015418654PERALTA, DARDO GARCERON DBU DGP                         10502
A0101403610000015418654FIVE NEW BUILDER                                        20500
A0101403610531031022001JNC PEN PLUS SUPPLY                                      0501
B0101403610531064864001168 PLASTIC CORP.                                        1605
A0101403610531220414001CASACOP, WILFREDO OR                                    10501
A0101403610531220414001CASACOP, TERESIT                                        20500
A2201400250561478374010ZENAIDA L. REYES                                        10501
A2201400250561478374010MEMBERS OF NATASHA                                      20500
B0101404130601100079001POWERDIESEL PHILIPPINES, INC.                            1610
A0101404130601450536001CRISENTE G. CAYABYAB                                     0501
A0101407720000000245214LEORNA, IRENE CASUBUAN                                   0502
A0101407720602241314001**********                                               0502
A0101407720602343284001MARY ANGELINE RECTO OR                                  10501
A0101407720602343284001RODRIGO RECTO JR                                        20500
A0101407720602399405002THELMA E. RAMOS OR                                      10503
A0101407720602399405002CLAVER P. RAMOS                                         20500
B0101412180000008320089RONNIE AND JOE RETAIL CONCEPTS INC.                      1602
A0101412180000002340643BENITEZ, ELVIRA OBEDIENCIA                               0501
B0101409890000003098202BRS CERTIFICATION SERVICES PHILS.CO                      1602
B0101409890000006812980S.V.U. FEEDMILL                                          1602
B0101407690000000243901ETNA MOTORS, INC.                                        1601
B0101407690000003768003MT. SINAI MOTORS CORPORATION                             1601
A0101407690652208976001NOVAL, TERESITA CABATINGAN                               0501
A0101407690652476351001DAGOHOY, APRILENE ROMANO                                 0501
A0101407690652640372001DE VEYRA, JOHN EYMARD C. OR                             10502
A0101407690652640372001CANLAS, OSLER LUIS D.                                   20500
A0101413440000000570303GUARINA, RONALDO DBU GEOMATICA                          10503
A0101413440000000570303ENGINEERING                                             20500
A0101413570000003379953MICAWAYAN, ALIMODEN LANTO                                0502
A0101413570000005867423ASUNCION, DEVLIN ANCHETA                                 0501
A0101413570000012301561HERNANDEZ, DIAHNE                                        0502
A0101413990000015607920AGUSTIN, JAIME CAUILAN                                   0501
A0101413990000015619442GAJO, DAYLYN G. OR                                      10501
A0101413990000015619442NADAL, MARY GRACE L.                                    20500
A1301400210000005040577**********                                               0501
A1301400210000003104974SAN JUAN, BRYAN MARC ALVARAN                             0501
B1301400210000008174032THE PASTRY CHEF CAKES & DESSERTS                         1602
A1301400210682194622001WILSON SY GAN                                            0501
A1301400500000001412355MARIA HELEN L. DEL POSO OR                              10502
A1301400500000001412355MARLON S. DEL POSO                                      20500
A1301400500000012953721DILIG, SUSANA GARCIA                                     0502
A1701400230000002762832ANG, MARY ANN LIU OR ANG, VICTO                         10505
A1701400230000002762832R FORMOSO                                               20500
B0101408240000006414422YAVIN TECHNOLOGIES INC.                                  1602
A2801400230000014314193SEDADE AVIATION CONSULTANCY AND                         10501
A2801400230000014314193ENGINEERING SERVICES                                    20500
A4101400260000015612110HUGO, JEB ZUNIGA                                         0501
A4101400260000015612252OFRECIO, MARWIN CAHINDE                                  0501
A4101400390000000500529CALMA, MARLISA NARVAEZ                                   0501
A4101400420000015173681LIZA, MICHAEL PALANAS DBU                               10501
A4101400420000015173681KLEENWAY MARKETING                                      20500
A4101400420814462792001RICHARD W. WU OR LOURDES WU                              0502
A4101400420000000710483ESPANOLA, MA. ANGILY CASANDRA                           10502
A4101400420000000710483CARBA                                                   20500
A4101400550000013277146BANIQUED, RONNIE ALEJANDRO                               0502
A0101412340000003438806CAGUIOA, ANALYN MARCELINO                                0501
A0101412340000010628823ANTONIO M. TORRE JR.                                     0501
B0101404840851064410001VELOCITY MADE GOOD INTERNATIONAL (P                      1605
A0101406750000000173044REYES, JOEL FLORENTINO                                   0501
A0101406750000008644151SHUBERT D ANCHETA                                        0502
A0101406750000008644213SALVADOR, CECILIA QUIZON                                 0501
A0101406750000000017427ANTONIO, ARNALDO QUILATAN                                0502
A0101406750852765930002ACLO JR., JAIME CABANILLAS                               0501
A0101405070861385924001GRICO, EDWIN A. OR                                      10502
A0101405070861385924001GRICO, MARY LEE                                         20500
A0601400230000010702973FLORES, RANDY TIGLAO                                     0502
A0601400230000013259451CRUZ, WILMA DELA CRUZ                                    0501
A0601400230000012134433MALLARI JR., PABLO GUINTO DBU E                          0502
B0601400230891029282001L5 & SONS FINANCING CORP.                                1610
