A0101406590000000131751DOUBLE NINE CONSTRUCTION                                 0501
A0101406750000000172774DELA CRUZ, LUALHATI ANGELES                              0501
A1301400500000000213021DARCEN, SOLEDAD MERCADO                                  0501
A1301400500000000213203QUIAMBAO, VICTOR FABIAN                                  0501
A0101405650000000525739RUFA MACABENTA                                           0501
A3801400170000000955040EDWIN C ACOB                                             0501
A0101412890000001056360AMIDO, NORMA GUEVARA                                     0502
A0101413570000001069443***********                                              0501
A0101408530000001268559ARLENE Z. DIZON                                          0502
A0101401830000001281885SANTOS JR., LAURO DOCENA                                 0502
A0101400440000001439812DILAO, DOROTHY LIMPAJAN                                  0502
A0101403320000001803338CALAQUIAN JR., RUBEN NUGUID                              0501
A0901400220000001805118**********                                               0501
A1401400110000001806873BUERA, ALICIA NARVAEZ                                    0501
A0101413860000001886833**********                                               0501
A0101410560000001944094CASTILLO, NEIL AYONQUE                                   0501
A0101410560000001944123VIZCARRA, LYDIA DIAZ                                     0502
A0101412470000002135951TAN, MERNALYN TICOY                                      0502
A3801400170000002302830JAMIL HUSSEIN D. PENA                                    0501
A0101410300000002375824HERNANDEZ, EVA P.                                        0501
A1301400500000003070037RAMOS, MA. TERESA FLORES                                 0501
A0101405940000003121842DOCTOR, HENRIELENE GRACE NULADA                          0501
A4101400550000003267127NAVEA, A DBU VELJO ENTERPRISES                           0501
A0101408400000003515040ABDULRAHMAN, ROWENA DITUCALAN                            0502
A2201400250000003558092AMELIA F. MANAGER                                        0501
A0101413600000003851290DINA L. CHAVEZ                                           0502
A0101412340000003908601GENERALISMA B. OBREGON                                   0501
A0101404000000003950710DENNIS C AQUINO                                          0501
A0101409210000004364294BALIAO, ROCKY CANDA                                      0501
A0101405940000004369682JOAQUIN, KARLA CRISAIDA LARA                             0501
A0101400860011608256001**********                                               0502
A0101401700041193436002CORAZON C. LOBENDINO                                     0505
A0101400150061307470001ALOCILJA, MARGARITA                                      0504
A0601400100081517035002DASCO, DAVE SALEN                                        0503
A0101400730111386485076MERLITA P. CARANGUIAN                                    0501
A0101400730111479460001TABORA, JOSE QUIOGUE                                     0510
A0101401960121504516001YAP, ANNIE BEE SY                                        0501
A0101400440161520766116GLENDA M. CAMPILLANOS                                    0501
A0101401090171349823001LEAH ANN S. SARMIENTO                                    0501
A0301400530193789457001PARUNGAO, DESIDERIO V.                                   0501
A0101407140213190693001**********                                               0506
A0101407140213478374008GATA, VICKY VILLASENOR                                   0501
A3101400160221478374002MA. LOURDES T. ELIZON                                    0503
A3101400740224710022001DAVID, MERRY GRACE CORDERO                               0501
A1001400190231463797001DECANO, CESARIO PIZANA                                   0501
A0101406620273035687001GOLDRICH MANAGEMENT SERVICES                             0502
A0101402350321296828002MARITES G. GASIS                                         0501
A0101402350321518812001KAO, SHIH CHEN                                           0501
A0101405650322522833001JIMENEZ, MARIA JEAN BREBONERIA                           0501
A0101402510341419631001RUEL ROBERT A. DE GUZMAN                                 0501
A0101408370382652736001VELORO, LYRA VALERA                                      0501
A0101409210398519633001ROSALES, MARIEL CABRERA                                  0501
A5501400120410636168001SUENO, JOCELYN BERNARDO                                  0504
A2401400180411320270002SALARDE, GLORIA TIMKANG                                  0502
A0101403030441590302001**********                                               0505
A0101411790518055764052RYAN F BATALLA                                           0501
A0101411790518055764141FERNANDEZ, JOYCELYN ARGALLON                             0501
A2201400250561258530005ERWIN T. AQUINO                                          0501
A0101404130601278977001************                                             0501
A0101404260611478374075VIVENCIA HATOL                                           0501
A0101404420631677803001LONGA, MELANIE BALASTA                                   0502
A1301400340683708672001CANO, ERLINDA PEREZ                                      0501
A0101407560686006360001BOBBY AND KATES ACADEMY INCORP.                          0501
A01014075606860413810013**********                                              0502
A0101408240711491413003SALVO, MARISSA OPEDA                                     0504
A2801400100712507001001*****                                                    0502
A4101400390813037789001SUDS PLUS LAUNDRY SERVICES                               0501
A0101404840851520766068SONIA VILLARIN                                           0501
A0101406750852081045001RAGAT, GERALDINE DULDULAO                                0502
A1001400480000000133542GUINTO, CHARLOTTE JANE MAGO AND                         10501
A2001400290000000724510JUCOM, RODORA TUALE                                     10502
A2401400180000000826277NOLEAL, MARLON DBU MRP AUTO                             10501
A0101405070000001256100JAVIER, MARIA IRENE ANDREANA OR                         10501
A0101405650000002325571DEQUIT, DBU PHARMA ASIA DRUGSTO                         10504
A1001400190000003017789FELIX C. IGCALINOS DBU IFM GENE                         10501
A0101400150061697165001SERVER, CATHERINE ANNE B. OR                            10502
A0101400440161538462001ROMEL A. ADDUCUL OR                                     10502
A0101400570281186530001CARLOS AGUILA OR                                        10502
A6601400120314593270001DIAZ, REO OR MARIEGIL OR                                10505
A2001400290315666711001MARIUS CRESENCIO C ONGCOG OR                            10503
A0101405650322225574001HORNSHAW, ALICIA S. OR                                  10502
A0201400890376534224001PAYOT, CARLOS COPERNICUS OR                             10502
A0201400890376731894001JIMENEZ, JEREMY MICHAEL ALMARIO                         10502
A0101403320471207023001CESAR MADRIAGA OR                                       10503
A0101404680651525001027GERRY M. PEPITO OR                                      10501
A0101406590662487808001MARY CAESARYLE S. GENATO OR                             10501
A1301400340683249082002RICARDO HERMOSO II OR                                   10501
A0101408240711383150001AURELIO III OR AURELIO JR.                              10501
A4101400390813043811001OXY CLEAR WATER FILTRATION AND                          10502
A1001400480000000133542GUINTO, NEMER SARDEA                                    20500
A2001400290000000724510OR JUCOM, JHUFEL                                        20500
A2401400180000000826277CENTER AND NOLEA, ROSIE                                 20500
A0101405070000001256100JAVIER, HERSEL JOSEPH                                   20500
A0101405650000002325571RE & GENERAL MERCHANDISE                                20500
A1001400190000003017789SERVICES                                                20500
A0101400150061697165001CHRISTINE MICHEL                                        20500
A0101400440161538462001JOCELYN C. COBAN                                        20500
A0101400570281186530001MERCEDES AGUILA                                         20500
A6601400120314593270001REMEDIOS                                                20500
A2001400290315666711001AGRIPINE THERESE L ONGCOG                               20500
A0101405650322225574001HORNSHAW, RAYSON                                        20500
A0201400890376534224001PAYOT, ANA ISABE                                        20500
A0201400890376731894001OR JIMENEZ, MARI                                        20500
A0101403320471207023001SHIRLEY MADRIAGA                                        20500
A0101404680651525001027MYRNA C. PEPITO                                         20500
A0101406590662487808001ADRIEL MEYNARD A. GENATO                                20500
A1301400340683249082002AGRIPINA HERMOSO                                        20500
A0101408240711383150001OR AARON LITONJUA                                       20500
A4101400390813043811001REFILLING STATIO                                        20500
B0101408820000000027363********                                                 1603
B1101400120000000065132STARLITE GLASS AND ALUMINUM SUPPLY                       1605
B1001400350000000244404GOLDEN MACHINE WORKS CORPORATION                         1601
B4101400550000000900069JEEMEE ENTERPRISE INC.                                   1601
B0101401700041047421001GENSENS INC.                                             1603
B0101400150061044903001I-GATEWAY MOBILE PHILIPPINES, INC.                       1605
B0101400730111022247001AMAARA CORPORATION                                       1603
B0101401380201025256001MESSE & HANDEL CORPORATION                               1601
B0101401380201030648001ITEMP HOLDINGS INCORPORATED                              1601
B1001400190231033210001NEW CON CONSTRUCTION SUPPLY                              1601
B0101406460272678428001ARTESAN PRIME PROPERTIES INC.                            1603
B2001400290315055459001SMSBI                                                    1605
B2001400290315528399001**********                                               1601
B0101402350321738079001OLIVAREZ GENERAL HOSPITAL INC.                           1610
B0101402480331033229002TGP DRUGSTORE                                            1603
B0101402480331541505012PHARMAGENERICS, INC.                                     1603
B0101402480331541505016PHARMAGENERICS, INC.                                     1603
B0101408820333042383001********                                                 1604
B0101402510341038206002EVER PLUS SUPERSTORE INC                                 1605
B0101402770391009317001FIBERTEX CORPORATION                                     1605
B0101403320471623011001RON-ARK SERVICES & TECH. INC.                            1601
B1901400320489052588001RAS BACOLOD INC.                                         1601
B0101405940512028580001AUTOMETICS CAR CARE, INC.                                1605
B0101408530516758816001ZAB INSURANCE AGENCY, INC.                               1602
B010141179051805692200188 INFINITY LENDING POOL INC                             1601
B0101408240711028488001INTAS DESTINATION MANAGEMENT INC.                        1605
B2801400230713045988001NGE TRADING                                              1602
B0101404840851009287001K SERVICO TRADE, INC.                                    1603
B0101406750852041682001ALPINE COMMERCIAL CORPORATION                            1602
B0301400950000000566912SOUTHGATE MANAGEMENT AND CONSULTANCY                    11601
B0101402350000000655447OBEDOZA, GABRIEL CORPUZ AND                             11602
B3401400280000000784641CAPUNONG, ROMULO DELCANO OR EDUQUE,                     11602
B0601400100081022878001DM CRISSAN AUTO SUPPLY & CAR ACCESSORIES                11604
B2601400270302045063001ISABELA UNITED DOCTORS MEDICAL                          11620
B0101402770391009705002VICTORIA VALLEY CONDOMINIUM INTEGRATED                  11602
B0301400950000000566912GROUP, INC.                                             21600
B0101402350000000655447OBEDOZA, BIANCA                                         21600
B3401400280000000784641RUELYN CAPUNONG                                         21600
B0601400100081022878001SAN FERNANDO                                            21600
B2601400270302045063001CENTER, INC.                                            21600
B0101402770391009705002CORPORATION                                             21600
B0101417000002502000011**********                                               2102
B0101409210398821100608**********                                               2010
B0101413570656821100608**********                                               2001
