B0101405230332821100608**********                                               2002
A0101408400394162577001REYES, ELSA UNGSOD                                       0501
A1001400350000004095432BOLLOZOS JR., ARMANDO MOLE OR                           10502
A1001400350000004095432BOLLOZOS, EVELYN U.                                     20500
B1001400350233036707001KASANAG DAUGHTERS FOUNDATION, INC.                       1603
B1101400120000000652879TY, WILLIAM LOBRIO OR TY, MARILOU CHU                    1602
B0101402930381008829002AXEIA DEVELOPMENT CORP.                                  1615
A2401400180000000428102SAGABAEN, AMALIA COSTALES                                0501
A4101400420814357382003REMULLA, GILDA VASQUEZ                                   0501
B0101400150061027861001THE CORPORATE PARTNERSHIP FOR MANAGEMENT                11601
B0101400150061027861001IN BUSINESS, INC                                        21600
A0101400150061227953001MA. DYMPHNA U. RAYMUNDO OR                              10501
A0101400150061227953001JOSE S. RAYMUNDO                                        20500
B0101400150061228665001MALAYAN TOWAGE AND SALVAGE CORPORATION                   1610
A0101400150061228723001HELEN B. MEJIA                                           0501
A0101400150061347426001RAYMOND A. RACHO                                         0501
A0101400150061379081001SIMON, CHRISTINE MARIE BISCOCHO                          0501
A0101405810072234609002TAN, JOSEFINA MANOSCA                                    0505
A0101405810072236551001***********                                              0501
A0101405810072376364001***************                                          0501
A0601400360000008386250LAMINERO, NUR NADEREV SINDATOK                           0501
B0601400360000003186770JM VILLA GRANDE INC.                                     1601
A0601400520000007553428GARON, AVELINO URBANO                                    0501
A0101414090000001652444KIM, JONG HO                                             0505
A0101410560000000020162EDNA S. CAMBARIJAN                                       0501
A0101400730111368112001**********************                                   0501
A0101412630000000801512CRUZ, MARY CLAIRE S.                                     0501
B0101401830141046312001TIMA-AN, RICHILLE DBU TMR CARGO SERVICES                11601
B0101401830141046312001OR JAVIER, ALLAN                                        21600
A5001400170000003324121CAVAN, MILAGROS MARTINEZ                                 0503
B5001400170000000169824VICTORY CHRISTIAN FELLOWSHIP OF                         11601
B5001400170000000169824ZAMBOANGA CITY                                          21600
B0101407270162023333001MEDIA TOUCHSTONE VENTURES, INC.                          1603
B0101407270162036333001DONA ALEJANDRA, INC.                                     1620
A0101407270162534074001BENTER S. BATANES                                        0502
A0101401090171493594001CELINA S. TADY                                           0501
A0301400660194774595001CIMAGALA JR., OSCAR TINGA                                0501
B0301400790000000435738NEW GREAT LUMBER AND CONSTRUCTION                       11602
B0301400790000000435738SUPPLY, INC.                                            21600
A0101412500000002304701FACTORA, MYLA MARCO                                      0501
B3101400160221063410001SUNFRUITIONS FOODS CORPORATION                           1601
A3101400450223577252001REYES, PAUL RAMOS                                        0502
A3001400130000001271312SHAPE & WELL NUTRITIONAL                                10501
A3001400130000001271312PRODUCTS                                                20500
A3001400130000006145126SY, JOSEPH PAPILLERA DBU JOHNMI                          0502
A1001400190000000124683ABCEDE, CARMENCITA A.                                    0501
A1001400350000007762390MERCURIO, MARY SHEILA CABALLERO                          0503
A1001400350000000017165MEN DBU A&L MARKETING SOLUTIONS                          0501
B1301400470000000009630FIRST KINGSTON LEISURE AND SERVICES                     11620
B1301400470000000009630CORPORATION                                             21600
A1301400470000005394232CELSO C. FERRER                                          0505
B1901400290261046556001MEAT ADVANTAGE EXCHANGE INC.                             1620
A1901400290000001975380HERNANDEZ, ALILY SAMSON DBU                             10501
A1901400290000001975380BAKE IT UP BAKING NEED                                  20500
A1901400290261093134001JOY PANALIGAN KATIGBAK                                   0502
A1901400290261244409001ESPERANZA PAZ M LEYEZA OR                               10502
A1901400290261244409001JUAN GUALBERTO M LEYEZA                                 20500
A1901400290261249075001WILLIAM  SOMOSO OR                                      10502
A1901400290261249075001JULITA  SOMOSO                                          20500
A1901400290261298552022ALVIN DEL ROSARIO MAGNAYE                                0502
A1901400290261500749001GERVASIO IGLE GARING OR                                 10502
A1901400290261500749001JULIETA LACORTE GARING                                  20500
A1901400290261717650001MYLENE SUBIA SILVA                                       0502
B0101406460000001231689DY, TERENCE LAO DBU PROALMIGHTY ENT                      1601
B0101406620273009650001CROWN SMART LTD.                                         1606
B0101406620000000962403GEOWORKS INTERNATIONAL CORPORATION                       1601
A0101408660274217223001SERRANO, JINKY ESPERA                                    0501
A0101410980000000171931MICHELLE C. CO OR                                       10501
A0101410980000000171931CHESTER ALLAN T.                                        20500
A0101411820000001356172BUDHRANI, ASTRID JIMENEZ                                 0501
A0101411820000001356241HAO, KENNETH MONDIDO                                     0502
A0101400570281021967001CHANGING DIGITAL IMAGING                                10501
A0101400570281021967001GRAPHIC                                                 20500
B0101400570000000031723EVEREST MOTORS INC.                                      1605
A0101400570281258962001POOTEN JR., JAMES BAGANO                                 0502
B0101411240283063413001ZOEB ENTERPRISE                                          1601
A2601400270000002312196GERALD D. GANNOD OR                                     10502
A2601400270000002312196MARY JANE N. GANNOD                                     20500
A1101400120000000992394REYES, CRISTINA MARIE OCASLA                             0503
B1101400120313036430002LEYTE HOME DEPOT INC.                                    1610
A3401400280000000784630VILLASOTO, LEXIE ARTATES                                 0501
A0101402350321478374048GLENDA D. ESTRELLA                                       0501
B0101405650322020426005LEISURE FARMS TAGAYTAY, INC.                             1605
B0101402060351009376001AVC CHEMICAL CORPORATION                                 1605
A0201400760000001107599GO, JESS GREGORI DBU GO FIX DIG                          0502
A0201401020000004409125SALIMBANGON, CESAR LAGO                                  0502
A0101402930381205187002JOCELYN M. RESURRECCION                                  0501
A0101405490000002253010ROSEMAE J. SISON                                         0501
A0101405490392563453002ALLAN L. DE GUZMAN OR                                   10501
A0101405490392563453002MARIVEL R. DE GU                                        20500
A0101408400394429737002MAMBUAY, NAIMAH MINANGA                                  0502
B0101409180397044045001CACHO CONSTRUCTIONS, INC.                                1603
A0101409210000001294377TEMBREVILLA, JEFFREY ALDABA                              0501
A0101409210398273045001TAN, ROGER KO OR                                        10505
A0101409210398273045001TAN, MAE ROLEN H                                        20500
A5501400120000002949611GREENROCKS ENGINEERING SERVICES                          0501
A2401400180000003949093DEVERA, EDGAR SURMILLON                                  0502
B2401400180411037264001CEVCEG MARKETING                                         1602
A2401400180411478374020MORI, LYDIA                                              0502
A1201400150421463344001MACABANTOG, NAMRODING TONGAO                             0501
A0101403030441239254001**********                                               0501
A0101412760000005723673OREJOLA, FRIA SUCUANO                                    0501
A0101412760000001399293PEREZ, GABRIEL REYNALDO P. OR                           10501
A0101412760000001399293PEREZ, REYNALDO                                         20500
A0101412760000000528205SARAH JAYNE A. SANCHEZ                                   0502
A0701400260000005303702TAGUPA, MARIA CECILIA TOLENTINO                          0502
A0101403580000000922805ALBERT P. DAGNALAN                                       0501
A0101403580511026941001CECILIA NARVAEZ Y DISENOS                               10502
A0101403580511026941001INTERIOR                                                20500
A0101403580511031783001ROYAL BARGE TRAVEL AND TOURS                             0510
A0101403580511196754001CARMELITA E. LA O' JT                                    0502
A0101408110000001823832PATATAG, WILFREDO DBU FLASSIQUE                         10502
A0101408110000001823832FINE FURNITURE & INTERIOR                               20500
A0101411790518681263002TIMOG, ANALIZA MANAHAN                                   0505
B0101403450521011882004PAN PACIFIC TRAVEL CORPORATION                           1603
B0101403450521020418001**********                                               1605
B0101403450521238082001*********                                                1601
A0101404130601014815025GARY CLINT S. BORJA                                      0501
B0101404130601025748001OTSUKA (PHILS) PHARMACEUTICAL, INC.                      1650
A0101407720000004664973SURIAGA, JOANN DY                                        0501
A0101407720602377406002LAURA SAN LUIS ETROIT OR                                10502
A0101407720602377406002MA. CARMELA VILLEGAS                                    20500
A0101407720602384186003SARMIENTO, JOSIERINA YANEZA                              0502
A0101407720602398462001GOMEZ, JOHN MANALO OR                                   10502
A0101407720602398462001GOMEZ, MA. PAZ C                                        20500
A0101412180000000908452OBINETA, JEIZLE REGIS                                    0501
A0101412180000004955648SALAZAR, MARISSA TACORDA                                 0501
A0101404260611478374127BENIGNO G. SURIO JR.                                    10503
A0101404260611478374127OR CARMELITA M.                                         20500
A0101411530000006217574MOMMY & ME ENTERPRISES                                   0503
A0101413990000006278055GREGORIO, OSCAR DELOS REYES                              0501
A0101410300000006278722ONG, CHERRYAMOUR CUSTODIO                                0502
B0101408240000000832837SPIRIT OF EDSA FOUNDATION, INC.                          1601
A0101408240711383461001SANG, PAUL OR IRIS                                       0502
A0101408240711478374009MARIVIC C. FLORA                                         0501
A0101408240711487311001RACHO, DESIDERIO OR TRANQUILINA                         10502
A0101408240711487311001OR ANNA OR ARTHUR                                       20500
A4101400260812403511001BOSITA, CHRISTIAN DUA                                    0501
A4101400260000006043049FALIC, JEANNETTE RUGA                                    0501
A4101400420000006643490LA AS, NORA P.                                           0501
A4101400420814520766115SIOCO, ROSARIO V.                                        0501
A4101400550815046007001DIGIBOX PRINTING SERVICES                                0501
A4101400550000002090831STANCE AUTO AND WHEELS SHOP                              0501
B4101400550000000900138WILSTAR HARDWARE AND CONST. SUPPLY CORP.                 1602
A0101404840851046725021HELEN GELIZON                                            0502
A0101404840851511006001OLETA, KATRINE RELLON                                    0501
B0101413860000001767860FTD LAND CORPORATION                                     1601
