F0201400180181054203001ALVAREZ AND BORROMEO DEV'T                              12620CK1
F0201400180181054203001CORPORATION (ABD                                        22600CK1
F1901400290261039254001DR. VINCENT ANDREW MARAJAS                              12502CKO
F1901400290261039254001QUINTO                                                  22500CKO
F1901400290261039623001B & V LAYER FARM                                         2602CKR
F0101409890000000049136ENROE MARKETING CORPORATION                              2601CKR
F4101400260812038727001METRO CAVITE HEALTH SYSTEM INC.                          2610CKR
