B0101405070861821100608**********                                               2003
B0101412500214821100608**********                                               2002
A2001400290315790366001KIRIT, GRACE UY                                          0501
A0101400150061671519001BUHAY, TELESFORO BERNAL AND                             10501
A0101400150061671519001ARIGO, MYRA NOCHE                                       20500
A0101400440161525001119NORA S. TALENTO                                          0501
A0101400440161525001124THELMA F. ESCURZON                                       0501
A0301400950000003249972GONZALES, KARL CYRIL L. OR                              10501
A0301400950000003249972GONZALES, NARINDER K.                                   20500
A3001400130000001271465LUCERO, MARIA CHELO RESMA                                0501
A3001400130000001271341SURALTA, GEGINIA MONTICINO                               0501
A0101407720000004656833ANGULO, PAMELA VICTORIA                                  0501
A0101407720000004657570BONGCO, PETER PAUL MANALO                                0501
A0101407720000004657694BURGONIO, JOSEPHINE MARGARET                            10501
A0101407720000004657694DELOS SANTOS                                            20500
A0101407720000004657810CRUZ, ALEXIS MAE MANGUERRA                               0501
A0101407720000004657923DAGAMAC  JR., VILLAMOR OCAMPO                            0501
A0101407720000004658011DUCUSIN, CHRISTELLE LYN BARANDA                          0501
A0101407720000004663970AMADOR, JON GERARD CUEVAS                                0501
A0101407720000004664028BALCE, RIZALDY EBE                                       0501
A0101407720000004664051BARTOLOME, CINDY TIBAYAN                                 0501
A0101407720000004664091BARTOLOME, MARIA IMELDA MACTAL                           0501
A0101407720000004664120BATULAN, LEONEIL SANICO                                  0501
A0101407720000004664131BAUTISTA, MARLON SIA                                     0501
A0101407720000004664160BERMUNDO, REX RAYEL                                      0501
A0101407720000004664193BLANCO, JENIPHER VIZCONDE                                0501
A0101407720000004664222BONUS, JOHN CHRISTIAN ABAYA                              0501
A0101407720000004664251BRIONES, FRANCIS SALVADOR                               10501
A0101407720000004664251ZARATE                                                  20500
A0101407720000004664284CASUPANAN, THEA KRISTA MANLAPAZ                          0501
A0101407720000004664313CINCO, JOSEPH ELEAZAR ABINGOSA                           0501
A0101407720000004664342DAVID, RICHELLE NG                                       0501
A0101407720000004664637DELA CRUZ, OLIVER NICOLAS                                0501
A0101408240711385252001NISA B. CADIZ                                            0502
A0101400860011398141002**********                                               0505
A0101400860011743392001**********                                               0502
A0101401250000004374583CASTA, LORENA L.                                         0502
A0101400150000003600962PERMILUNA, PATRICK BERNARDO                              0501
B0101400150061010617001REPUBLIC GLASS HOLDINGS CORP.                            1602
B0101400150061010680001CONSORTIUM INDUSTRIES, INC.                              1603
B0101400150000001708618PRODIGYMEDIA PRODUCTIONS INC.                            1602
A0101400600071496801002******                                                   0501
A0601400100000001442751CACHO, EDGAR ESPIRITU                                    0501
A0101414090000002244753GASPI, MA. CRISTINA GROYON                               0501
B0101414090000000399435TORRE LORENZO DEVELOPMENT CORPORATION                    1603
A0101400730111195439001TAN, ROWENA                                              0501
A0101400730111195461002JOSE L. DIZON OR                                        10502
A0101400730111195461002JANICE D. DIZON                                         20500
A0101406040000000096855MARVIN U. LIM                                            0501
A0101413150000001288342******                                                   0502
A0101413310000001794647E.G. HORTALEZA VACIADOR AND                             10501
A0101413310000001794647BEAUTY SUPPLY                                           20500
A0101401830141546547001REATAZA, NELIA MORABE                                    0503
B5001400170000000045105UY, GODOFREDO YU OR UY, WILLIAM YU OR                   11602
B5001400170000000045105UY, ELSON QUIMBO                                        21600
A5001400170000000044982ANTONIO, JORDANNE DBU URBAN                             10502
A5001400170000000044982PAINTS & MORE ENTERPRISES                               20500
A0101401090000004864046DE JESUS, JONATHAN CARLOS H.                             0501
A0101401090171195764001FORTUNATO B. SEVILLA III                                 0501
A0101401090171196029003DURAN, JOSE OR EVELYN DURAN                              0505
A0101401090171243605002EDEN M. CHAPOCO                                          0501
A0101401090171381768001MA. CAROLE LISA C. SIBULO                                0502
A0301400790000000435983COLINA, MAE MANILYN CLENUAR                              0501
B0301400790000000040940ASIAN HYBRID SEED TECHNOLOGIES, INC                      1605
A0301400950000000566683CARISSA ANNE C. DELOS SANTOS                             0501
A0101401380201180056001HARG TIMOTHY ANG OR JERILYN ANG                          0504
A0101401380201242225001TORRES, MARIA KATRINA GONZALES                           0501
A0101410720000000968094FIGUERAS, RAINIER C.                                    10501
A0101410720000000968094DBU FIGUERAS TRA                                        20500
A0101410720653478374046MONALIZA F. MALDONADO                                    0501
A0101412500000000739533CARPIO, RITCHIE MANSILUNGAN                              0501
B3101400450223010142002FORTUNE CORPORATION                                      1605
B3101400450000000014159FANTASTIC WEB GAMING CO.                                 1601
A1001400480000000041523PO, MARILOU TRAJANO OR PO,                              10502
A1001400480000000041523MAUREEN TRAJANO                                         20500
A1001400480234051824001DESCALLAR, DARWIN LEE CUNADO                            10501
A1001400480234051824001DBU CYNON AGRI CENTER                                   20500
A1301400470252445386001AGUSTIN, DESIREE G.                                      0502
B0101401670271038514001DWIGHTSTEEL BUILDING SYSTEMS INC.                        1604
B0101401670000004588401MAIDSOURCE INC.                                          1602
B0101406620273039712001OMNIPRIME MARKETING, INC.                                1603
A0101408660274547727001******************                                       0501
B0101411110276046529001BOOK MEDIA PRESS INC.                                    1601
A0101400570000002329706TAYAG JR., DANILO OCAMPO                                 0501
B0101411240000001026839JINGCO, EDUARDO URQUICO DBU E.U.JINGCO                  11601
B0101411240000001026839CONSTRUCTION                                            21600
A2601400270000000561682JANET A. GELACIO OR                                     10503
A2601400270000000561682BARTOLOME L. GELACIO                                    20500
A0801400160311483955001TANG, ROWENA LIONG                                       0501
A0801400160000001031332AMIL, WAHAB AHMAD                                        0501
B2001400290315041978001KOUKEN CONSTRUCTION                                      1605
B2001400290315638201001HO, NELLA OR HO, EMMANUEL                                1603
A0101402350321597544001ARSITIO, ROBERTO T. OR ARSITIO,                         10501
A0101402350321597544001LUVIZMINDA L.                                           20500
A0101405650000000525751ZAFRA, APRIL ROSE PENALBA                                0501
A0101405650322047677001THE J. BIJE'S WINDOW SHOP                                0504
A0101405650000000525871CEDILLA, PATRICK JOSEPH V.                              10501
A0101405650000000525871OR CEDILLA, LILIAN V.                                   20500
A0101402510341386137001*****                                                    0503
A0201400760000002309651VENECARIO, DAISY GUIAMLOD                                0501
A0201400760374033157001WISE OWL GENERAL MERCHANDISE                             0502
B0201400760000001612802CRUISERS PROPERTY MANAGEMENT CORP.                       1601
A0201400760000002047321HELPING HANDS PRODUCTION                                 0502
B0201400920375034855001SHELLS TREASURES INTERNATIONAL CORP                      1605
A0201400890000004869372MONTEROLA, CARLO PINEDA                                  0501
B0101402930381020092002ASIAN BAPTIST CLEARING HOUSE INC.                       11603
B0101402930381020092002OPERATIONAL ACCT                                        21600
B0101402930381021740001YOSHINOYA CENTURY PACIFIC INC.                           1603
A0101408790000000931093KAW, CHRISTIAN ALLEN CHEN                                0501
A0101411660000004066211DEVELOS, CORINA MITRA                                    0501
B0101408400394027823001COTTON TOUCH ENTERPRISE                                  1602
A0101408400394027889001TINA S. BERIN FLOWER SHOP                                0505
A0101408400000001835230DILIDILI, JAYDIELOU BACANI                               0501
A0101409180000004375968DALE BRIAN E. GUMBA                                      0502
A0301400820000002692180SUMAYO, JOSELITO U.                                      0501
A2401400180000000826233OXALES, HANNAH LOUISE RAQUEDAN                           0501
A2401400180000001676913***********                                              0501
A2401400180411761154001LOZADA, JOJIE OMAS AS                                    0501
A1201400150000000034460JOSE, GEMMALYN TANGALIN                                  0501
A0901400220432518401001**********                                               0506
B0101403320471008879002GOLDWIN MANUFACTURING                                   11610
B0101403320471008879002LABORATORIES                                            21600
A0101403320471478374003LERMA BELICANO                                           0501
A0101403320471550493001VILLAMIEL, MARIA ANTONIA ESCASA                          0501
B0101412760000002068037DOROTHY ANNE C. TORRES AND GERALD M.                    11602
B0101412760000002068037TORRES                                                  21600
A3801400170490774244001ROLANDO A AXALAN OR                                     10501
A3801400170490774244001CATALINA V AXALAN                                       20500
A1901400160000003134909DR. BENSON B. CALAPIT                                    0501
A1601400170000001069147JEZZALEN A. DIZON                                        0503
A0101403580000000509404ROBERTO R. CASTANARES OR                                10501
A0101403580000000509404MAROLIND A. CASTANARES                                  20500
B0101405940512015044001CASA REGENT PROPERTIES CORPORATION                       1605
A0101403450521012086001**********                                               0502
B0101403450000000889621FERRIS SOBELL PROPERTIES INC.                            1603
A0101403450521240266002**********                                               0501
A0101403450521271999001**********                                               0501
B2201400250561499339001JOEY Y. UY OR NORMA D. OBIENA AND                       11610
B2201400250561499339001GAUDENCIA B. UY                                         21600
A2201400250561639490001AUDREY LIM TAN                                           0501
A0101407720000004658102ESER, XAVIER JOSIER OCAMPO                               0501
A0101407720000004658179FAUSTINO, ROMMEL VILLARIN                                0501
A0101407720000004658260FERNANDEZ, JOYCE ANN ANTONIO                             0501
A0101407720000004658328GALLENERO, JENNETTE TOLEDO                               0501
A0101407720000004658380VERGARA, JOHN ANDRE ANG-ANGCO                            0501
A0101407720000004658453TAN, DILBERT DOMINGO                                     0501
A0101407720000004658522SANTIAGO, LOUIE PHILLIP CARPIO                           0501
A0101407720000004658573RIVERA, MARILEN TANEDO                                   0501
A0101407720000004658631REYES, XAVIER IAN VILLASTIQUI                            0501
A0101407720000004658686RAMCHANDANI, DIVYA HASSARAM                              0501
A0101407720000004658744PILANDE, JACQUELINE PRADO                                0501
A0101407720000004658799PATIO, MELODY PALENCIA                                   0501
A0101407720000004658846PANLILIO, JAY MICHAEL BACANI                             0501
A0101407720000004658891ONIA, ROBERT JAN VALEROS                                 0501
A0101407720000004658971MARIANO, MILAGROS CRISTINA                              10501
A0101407720000004658971BUSTILLO                                                20500
A0101407720000004659025MARIANO, DIANNE CARLA RAMIREZ                            0501
A0101407720000004659058MALANSING, EMILLIANO MANIKAN                             0501
A0101407720000004659092LIM, REAYEN RON TAN                                      0501
A0101407720000004659138GUTIERREZ, ANDREA LUZ TAN                                0501
A0101407720000004659150GRUENBERG, JANICE MARIE VELASCO                          0501
A0101407720000004663992AMISTOSO, REAGAN FUGUIAO                                 0501
A0101407720000004664375MACALINDONG, JHOANNA EUNICE                             10501
A0101407720000004664375PACIS                                                   20500
A0101407720000004664400LIM, LOVE LEE                                            0501
A0101407720000004664433LANDICHO, MARLOWE JASON DELOS                           10501
A0101407720000004664433REYES                                                   20500
A0101407720000004664477LAMATA, ANNALYN FE DE GUZMAN                             0501
A0101407720000004664502IBON, MARIA ROSVEMIN VIERNES                             0501
A0101407720000004664535IBARRETA, MARIA LESLIE ANNE                             10501
A0101407720000004664535CASTILLO                                                20500
A0101407720000004664591ESPERA, RINALDI ODOVER                                   0501
A0101407720000004664615ENCARNACION, JOSEPHINE FAJARDO                           0501
A0101407720000004664659SALUTAN, MARINETTE UNAS                                  0501
A0101407720000004664682VALENCIA, EVANGELINE TEKIKO                              0501
A0101407720000004664693VILLANUEVA, JEFFREY AGBULOS                              0501
A0101407720000004664717VITOR, XANTHE VILLANUEVA                                 0501
A0101407720000004664740WARREN, MIGUEL NOLASCO                                   0501
A0101407720000004664751YUTUC, FE ANN JUNTILLA                                   0501
A0101407720000004664773SALAZAR, DJONIVIC GARDIOLA                               0501
A0101407720000004664791ROBLES, JOHN RUSSEL CUETO                                0501
A0101407720000004664819RANESES, ERNESTO RODILA                                  0501
A0101407720000004664831RAMOS, ERWIN FRANCIS VARIAS                              0501
A0101407720000004664853QUINES, MEGAN MARIEL OROZCO                              0501
A0101407720000004664860PRESCOTT, MARTIN HAO                                     0501
A0101407720000004664871PINLAC, RODOLFO SANTOS                                   0501
A0101407720000004664882PARRA, OPHELIA DUCUSIN                                   0501
A0101407720000004664893PANO, MARICEL VELASCO                                    0501
A0101407720000004664911ORDONIO, MA. RUFINA VALDEZ                               0501
A0101407720000004664922MANLAPAS, EISEL GUILLERMO                                0501
A0101407720000004664933MAGSAJO, MARITES CALINGASAN                              0501
A0101407720000004664940MAGNO, JENNIFER YUVIENGCO                                0501
A0101407720000004664951SANTOS, JUAN MIGUEL ABADA                                0501
A0101407720000004664962STA.MARIA, JASON PICHAY                                  0501
A0101407720000004664973SURIAGA, JOANN DY                                        0501
A0101407720000004664984TABARDILLA, CHRISTOPHER                                 10501
A0101407720000004664984MENDEEBAL                                               20500
A0101407720000004664995TANKIANG, ANGELITA LAM                                   0501
A0101407720000004665009TOLENTINO JR., ROMEO BARRETO                             0501
A0101407720000004665010TONG, KRISTERR MARC QUIN                                 0501
A0101407720000004665021TONGCO, CRISTINA GARCIA                                  0501
A0101407720000004665032UY, REMAR JUDE LEANO                                     0501
A0101407720000004665043UY, SARAH KAY CO                                         0501
A0101407720000004668059ESTRADA, KYLE YANNIS MATIENZO                            0501
B0101407720602026114001**********                                               1603
A0101407720602318369109NIDA A. EUSTE                                            0501
A0101412180000004089043ALMENDRALA, ALLAN ALFREDO                                0503
B0101404260000000550423BIMECH FOOD CHAINS CORPORATION                           1602
B0101409920000001539642MATALA, WILLIAM DBU WPM TRANSPORT                        1602
A0101409920650478374010EVA B. MANDIIT                                           0501
A1301400340683523858001PURIFICACION, DYAN CRISEL D. OR                         10501
A1301400340683523858001PURIFICACION, MA                                        20500
A1701400230693478374070CALUYA, LANIE PASCUA                                     0501
A1701400230693497012001BANGILAN, LOURDES JIMENEZ                                0502
B0101408240711023689001ENL COURIER EXPRESS, INC.                                1602
A0101408240711390329001AGUILAR, ALDEN OR CECILIA                                0501
A0101408240711443671001CARMENCITA C. GUIAO                                      0501
A0101408240711583964001TECLA, MA. THERESA ESPERIDA                              0501
A4101400390813248327001SARIEGO, DANILO BAGONA                                   0501
B4101400390813560022001FAITH ACHIEVE PLASTICS CORP.                             1605
A4101400420000000710103JARIN, MARIA FE SAPINOSO                                 0501
A4101400420000002345262LOPEZ, ERENE TADEO                                       0501
A4101400420000003715688RAMIREZ, EMMANUEL TALAMAN DBU                           10502
A4101400420000003715688BETA LOADED STEEL ENTERPR                               20500
A4101400420814520766060DILAO, ROLINA B.                                         0503
A4101400420814520766110DELA CRUZ, ARMINDA E.                                    0502
A4101400420814520766140LUCANAS, BLENDA BILAOS                                   0502
A4101400550000003266926SABADO, ROSALINDA QUERUBIN                               0502
A4101400550000000315142JMBR TRADING                                             0501
A4101400550000000900394MONTENEGRO, MONINA CACAWA                                0501
A4101400550000003266982*****                                                    0501
A0101412340000003342572RODRIGO R. DIAZ JR.                                      0501
A0101412340000004360387CHRISTINE B. PLATA                                       0501
A0101404840000000943380HERMINIA L. ENGOC                                        0501
A0101406750000000017427ANTONIO, ARNALDO QUILATAN                                0501
A0101405070861463084001CATAPANG, JOCELYN LAUREL                                 0501
A0101413860000001887056DE LEON, ATHENA ANGELLIE DELA C                          0501
B0601400230891046531001RD CASH PADALA, INC. - AREA 03 SAN                       1602
B0101418520003002000029**********                                               2105
