F0301400110191033341008MILL CENTER TRADING CORPORATION                          2604CKR
F0101401670271427082001GUADALUPE V. CALALANG                                    2503CKO
F0101412470000003847483LIVAN TRADE CORPORATION                                  2604CK1
