A1001400190000000016457ANTIGA, LUNITA                                           0501
A0101410560000000020151JERLYN B. SAMSON                                         0503
A0101401250000000020424BALIAO, JOVITA LINGGON                                   0505
A0201400890000000027892FORTRESS ELECTRICAL SUPPLY                               0502
A0101412210000000031392EMMANUEL L. SAMSON                                       0503
A0101410140000000038771ANG, PAMELA JOANNE BAYA                                  0501
A0101413280000000041761JENNIFER MICHELLE N. LUMBO                               0501
A3101400870000000074844ROA, ROSEMARIE JUNDOS                                    0501
A0101404840000000085141NICOLASA R. GUIAS                                        0503
A1901400290000000135220MARGGIE LUMBERA SALES                                    0501
A0101412630000000180425**************                                           0501
A0101413570000000206282**********                                               0501
A0101412340000000224079ROSANA, CZARINA KAYE TIQUI                               0501
A0101412210000000238577GANTUANGCO, MOSES EMNACE                                 0501
A0101408530000000489823MARIE ARVI T. ALIAS                                      0501
A0101412180000000501493MANLONGAT, MA THERESA DIZON                              0501
A0101412050000000697229********                                                 0504
A0101412760000000767762MERCADO, LORNA DIMAFELIX                                 0501
A0101404420000000866440FELICIANO, MELVA PATALINGHUG                             0501
A0101410300000000919626********                                                 0501
A2801400230000000937480ROLDAN, RUTH MARIE ALBANO                                0501
A0101412210000000977415TAN, ALFRED CASTRO                                       0501
A0101409920000000998792ALCANTARA JR., WILSON DIMANARIG                          0501
A0101405810000001021332UY, RAYMOND VELASCO                                      0501
A1601400170000001069023MARIA TERESA Q. RANOLA                                   0505
A3001400130000001261227QUIMZON, SVETTE SANCHEZ                                  0501
A1301400760000001295541IREEN R. MIRANO                                          0501
A1301400470000001299009NIDA S. AQUINO                                           0502
A0101411820000001356554JOSEFINA M. CALABIG                                      0503
A0101414120000001427623MONTERO, ISABEL EGUIA                                    0501
A0101400440000001439732ANALY M. VILLARMA                                        0501
A0101400440000001439976ANALOU M. PANSACALA                                      0501
A0101403610000001450760SUANMONTHIRA, NICOLE TUASON                              0501
A0101412630000001485321ALLEJE, SAMANTHA MICHELE MARCO                           0501
A0101407270000001596967LORNA D. GARCIA                                          0501
A3101400870000001712130******                                                   0502
A1701400230000001786996**                                                       0510
A0101403320000001803098VALENZONA, RAUL PAL                                      0502
A0101401960000001844522***************                                          0501
A0101405650000001912107NAOE, PATRICIA ORONAN                                    0501
A1901400290000001975357JOAN DIMAANO MILLAVE                                     0501
A0201400890000002028160*****************                                        0501
A0101413860000002314272SEVILLA, MA. ELLEN SANTOS                                0502
A3101400870000002861538ALEMAN, EULALIA JAUM                                     0501
A0101410980000002986998EDGARDO N. ANONUEVO                                      0501
A0101414120000003190890CRISTE, RODELLA VILLAFLOR                                0501
A0101412340000003344790KAREEN MICHELLE T. NADADO                                0501
A0101412340000003349524PAUL B. VERGARA                                          0501
A3101400870000003478626VEGA, KATHLEEN BANIQUED                                  0501
A3101400870000003480511PASCUA, ALLAN REX JASPE                                  0501
A2001400290000003492222WILSON, GAUDELIA ZAMORA                                  0501
A0101400860011442261001**********                                               0504
A0101400860011478374003**********                                               0502
A0101401700041605890001CASAPAO, RHOMMEL CASAPAO                                 0503
A0101411080042514207001 *****                                                   0501
A0101400150061073867004VILMA S. OCHAVILLO                                       0501
A0101400150061712935001RECTO, ERIC ONGPIN                                       0502
A0101405810072234635002DY, SUSANA                                               0501
A0101405810072296003001**********                                               0501
A0101405810072376922001LALLAVE, GONZALO GAN                                     0501
A0101405810072383768001**********                                               0501
A0601400100081586342001AGUILAR, REMEDIOS SALAS                                  0501
A0101400730111432322010MAUREEN CONSTANTINO                                      0501
A0101400730111477188001FRANCO, LENITA DELOS SANTOS                              0505
A0101401960121238672001**********                                               0502
A0101401960121238686001*********                                                0501
A0101400440161520766071MA. TERESITA M. ROA                                      0501
A0101400440161520766113MARIFE MANZANO                                           0501
A0101407270162331908014JENNIFER C. RAVELA                                       0502
A0101401090171312734001DE LARA, AILEEN CYNTHIA F.                               0503
A0101401090171399132001ROLANDO A. TOLENTINO                                     0501
A0101401090171405355001AIRENE C. EDNACO                                         0501
A0101401090171421977001AIMIE M. MAGLANGIT                                       0502
A0301400530193551185168QIU, YIYI                                                0504
A0101401380201562273001MONTEMOR, JENEVEBE LACAY                                 0502
A0101407140213192506001**********                                               0502
A1001400190231520766103BALCUEVA, CESAR S.                                       0501
A1301400470252478374021RIZANETTE F. SANTOS                                      0501
A1901400290261250069001DRA. JABES BUCE CARRASCOSO                               0505
A0101408660274478374013HERRERA, CHRISANTINA DOMINGO                             0501
A0101400570281186603001DR. RESTITUTO C. BUENVIAJE                               0502
A0101405650322444318001FONTE, JENNIFER OCAMPO                                   0502
A0101402480331526623001****                                                     0501
A0101402510341196483001OLIVIA MENDOZA LIMUACO                                   0502
A0101402510341325995001ALEX TAN LIM                                             0501
A0101405490392044249001SAMAIREE CLOTHING SHOPPE                                 0502
A0101406330472356808002CHRISTIAN E. CANGCO                                      0510
A0101406330472573158001CHRIS WILSON Y. GO                                       0502
A0101410140475478374005ORENSE, EVELYN                                           0501
A0101406880513033856001LLAMAR BEACH RESORT                                      0503
A0101408530516571877132ERIKA MAITA V. VILLALBA                                  0501
A0101411790518094095001MAGCALE, EVANGELINE BORJA                                0502
A0101403450521238140001**********                                               0502
A0101403450521392545001NANETTE CHRISTY Y. ONG                                   0501
A0101403610531219488001REFORMA, MARILOU                                         0502
A0101403610531223249002PARAS, LOLITA LEONARDO                                   0501
A0101403610531317615001LAL, CHAMAN                                              0501
A0101403610531397445001*********                                                0502
A0101404130601450174001MARISSA A. TALENTO                                       0501
A0101404130601595494088GO, ANTHONY LIM                                          0502
A0101407690652045019001AXIS ROOF SERVICES                                       0502
A0101406590662464079001PERALTA, PATRICIA BIANCA G.                              0501
A1301400210682478374033ALICIA M. CARREON                                        0501
A0101407560686174589001JOHNSON UY OR DELIA UY                                   0504
A0101407560686288699001***************                                          0501
A0101408240711478374015EMILY MONTILLANO                                         0501
A2801400100712295699001HERMINIA L. DEL AGUA                                     0501
A2801400100712501278001ARMAMENTO, NELSON ALIWALAS                               0502
A4101400260812681572001PROCESO, CESAR FRAGO                                     0501
A4101400550815047780001TIUSECO, MICHAEL MANUEL RUSTIA                           0501
A0101404840851415679001AMORES, ROSEMARIE B.                                     0502
A0101404840851424338001PAMITTAN, MYRNA M.                                       0503
A0101404840851478374193JONALYN BACALANGCO                                       0501
A0101404840851506389001LANUZA, KHAREEN BALLESTEROS                              0501
A0101406750852478374055ALBINA, ANALIZA                                          0502
A0101406750852689404001RAYMUNDO, MARVIN TOLENTINO                               0501
A0101403610000000015818AGUJO, MARILUZ SANCHEZ OR                               10504
A0101408790000000039096YU, MARK ANTHONY LU OR                                  10502
A0101405940000000061572SOLIMAN, TERESITA L. OR LUIG,                           10502
A0101403320000000067543ATENDIDO, MANUEL T. JT                                  10501
A0101400570000000470546DR. JEANETTE TAACA-BITO OR                              10503
A0101409050000000601432GARCIA, CHARLES PHILIP ISTURIS                          10501
A2801400100000000906194LEE, ROBERT NG AND                                      10501
A0101405490000001092717ROSLINA M. AMEROL DBU AMEMAR                            10502
A0101403610000001174772BERROYA, EDRALIN OLIVAREZ OR                            10503
A1901400290000001195142ESTEBAN ALDRIN HERNANDEZ BISA                           10502
A0101412760000001399260SAN BUENAVENTURA, LILIA                                 10502
A0101412890000001765795DIOLA, R DBU LUCAOKAS BAG                               10501
A0101407690000001919866CORTEZ, NELIA C. - DEALERS OF                           10501
A0101405650000002325571DEQUIT, DBU PHARMA ASIA DRUGSTO                         10502
A2401400180000003430975TIONGSON, VICTOR & LLIDO,                               10501
A0101407270162300223002DANIELA A. PAYAWAL OR                                   10501
A1001400350233272028001MAANDIG, ERLINDA B. OR                                  10503
A0101410980275076641001TAN, GLENN RYAN UY OR                                   10505
A2001400290315043995001NAVARRO STOP N'SURF INTERNET                            10502
A0101405650322356435001ENRIQUE BIE OR EVELYN V. PAULI                          10501
A0201400920375534474003CHUA, JEFFREY O. OR                                     10502
A0101408370382545939002DRS. JEANNE MARIE R. MARQUEZ OR                         10502
A0101407430503358085001CHRISTIAN C. SANTAMARIA OR                              10501
A0101403610531047978001TIMONES, ALPHA PINTACASI                                10504
A0101403610531219472002NAVOA JR., FILOMENO CORPUZ OR                           10502
A0101403610531279108002FERRER, DOMINGO G.  OR                                  10502
A0101410690600046558001RANDXELL'S DIGITAL PRINTING &                           10502
A0101407690652478374142MARLENE C. ALVAREZ - DEALERS OF                         10501
A0101407690652563634001RUEL L. LECAROS  OR                                     10502
A1301400500684635536001JOSELYN D SANTOS OR                                     10501
A0101407560686277688001TERESITA E. JUAN OR                                     10502
A0101404840851419256001INTOD, DELFINA SAMONTE OR                               10502
A0101403610000000015818AGUJO, JUANITO JR. M.                                   20500
A0101408790000000039096YU, LAWRENCE KRISTOFFER                                 20500
A0101405940000000061572ISABELA OR LUIG, CARL                                   20500
A0101403320000000067543DBU ATENDIDO REALTY                                     20500
A0101400570000000470546IVANA VICTORIA T. BITO                                  20500
A0101409050000000601432OR MA. JESSA RIC                                        20500
A2801400100000000906194GUY, CESAR TAN                                          20500
A0101405490000001092717GENERAL MERCHANDISE                                     20500
A0101403610000001174772BERROYA, MA. ANA ESGUERRA                               20500
A1901400290000001195142OR DONNA MARIE G ORILLA                                 20500
A0101412760000001399260DE SILVA                                                20500
A0101412890000001765795MANUFACTURING AND SALES                                 20500
A0101407690000001919866SHOECAT, INC.                                           20500
A0101405650000002325571RE & GENERAL MERCHANDISE                                20500
A2401400180000003430975VIRGINIA & TAN, JOSEPHINE                               20500
A0101407270162300223002SERGIO B. PAYAWA                                        20500
A1001400350233272028001MAANDIG, CARLSTO                                        20500
A0101410980275076641001TAN, JANET DE JO                                        20500
A2001400290315043995001CAFE                                                    20500
A0101405650322356435001OR RICHARD M. PAULI                                     20500
A0201400920375534474003CHUA, SHEILA FAT                                        20500
A0101408370382545939002ARTHUR JOSEPH M. MARQUEZ                                20500
A0101407430503358085001ANNA LILLIE S. SANTAMARIA                               20500
A0101403610531047978001DBU JAZKY BUILDERS                                      20500
A0101403610531219472002NAVOA, NANETTE P                                        20500
A0101403610531279108002KALAW, MA. CRISTINA F.                                  20500
A0101410690600046558001PHOTOCOPY CENTER                                        20500
A0101407690652478374142SHOECAT, INC.                                           20500
A0101407690652563634001JOVITA M. LECAROS                                       20500
A1301400500684635536001EDGAR D VILLAR JR                                       20500
A0101407560686277688001ARMANDO JUAN                                            20500
A0101404840851419256001INTOD, ALGREG M.                                        20500
B0101407270000000010180COUNTRY CHATEAU HOTELIERS CORPORATION                    1602
B0101405490000000019963NAJIA MOVERS & PROJECT SPECIALIST INC.                   1602
B0101411820000000024142HARDCOM COMPUTER SYSTEM CO.                              1601
B0101401700000000030064**********                                               1603
B0101404840000000090286I & E CONSTRUCTION CORPORATION                           1602
B0101406620000000193942SOURCEFIT PHILIPPINES INC.                               1601
B0101411820000000477492DSD BATTERY & TIRES SUPPLY INC.                          1602
B0101405650000000772834MIFFI LOGISTICS CO. INC.                                 1610
B0101408240000000832962CARMEL LAND SALES & DEVELOPMENT CORP.                    1610
B0101412470000000949555OPENSIDE INC.                                            1601
B0201400760000001612879ZEARS CAKE NETWORK CORPORATION                           1602
B0101413860000001767893SEVILLA, DBU AMIRAH INSURANCE M                          1602
B0101413860000001767939JUDICIARY SAVINGS & LOAN ASSN., INC                      1620
B0101402480000001927493********                                                 1601
B1301400500000003071894********                                                 1603
B0101401700041190338003**********                                               1601
B0101411080042041218001******                                                   1601
B0101405810072018018001**********                                               1601
B0101405810072029570001PLASTIC CONSUMER CORPORATION                             1603
B0101405810072030630001***************                                          1603
B0101405810072034989001TRANSWELL ENGINEERING CO.                                1601
B0101405810072035930001************                                             1601
B0101405810072040696002PLASTIC TECHNOBAG CO. LTD.                               1602
B0101405810072564262001GOKONSENG, JOHN LIM                                      1601
B0101407270162024200001IGROS MARKETING CORPORATION                              1603
B0101407140213012467001**********                                               1601
B3001400130230043534001BERRY HAPPY MART INC.                                    1605
B1001400190231015575001*****                                                    1602
B1901400290261012814001PJ LHUILLIER, INC.                                       1603
B1901400290261029733001PAWNCARE SERVICES INC.                                   1603
B1901400290261048088001B & V FEEDMILL                                           1605
B0801400160311014376002PENBANK, INC.(A PRIVATE DEVELOPMENT BANK                 1602
B6601400120314040691001NORTHERN SAMAR ELECTRIC COOPERATIVE,INC.                 1610
B0101402510341008058002CEU ALUMNI FOUNDATION INC.                               1610
B0101405490392032515002DORALEX HARDWARE                                         1603
B0101405490392043918001GOLDENGRACE MARKETING INC.                               1601
B2401400180411014383001RD EMPLOYEES CREDIT COOPERATIVE                          1606
B0101406880513043042001OHANA PROPERTY HOLDINGS CORPORATION                      1601
B0101406880513155494001G & O  REALTY AND DEVELOPMENT CORP.                      1601
B0101406880513281235002LUCKY MONEY LENDING CO., INC.                            1603
B0101403450521025882001**********                                               1601
B0101403450521238191001**********                                               1610
B0101403610531046502001SAN PEDRO APOSTOL PARISH                                 1603
B0101403610531224782001**********                                               1603
B0101404000551005477001EDI STAFFBUILDERS INTERNATIONAL INC                      1605
B1301400210682047989001CARLBUILT CONSTRUCTION AND TRADING                       1603
B1301400340683025550001HONDA MINERVA INC.                                       1601
B0101409890000000004542TAN, MARY OR TAN, FEDERICO OR                           11602
B1301400210000000023430SANTIAGO, CASTOR OR DIONISIA OR JADE OR                 11605
B3101400870000001177128BALITE, G DBU BGT FOOD ESSENTIAL                        11603
B1001400190000003491781ECHAVEZ, HEREC LOU PAULIN AND MICHAEL                   11601
B0101403320471008859001NEW LITE LUMBER & CONSTRUCTION                          11602
B0101409890000000004542TAN, MELODY TE                                          21600
B1301400210000000023430JENNY OR DOJOE                                          21600
B3101400870000001177128CATERING SRVS                                           21600
B1001400190000003491781J. HEFFNER                                              21600
B0101403320471008859001SUPPLY                                                  21600
B0201400180181821100608**********                                               2005
B0101410270202821100608**********                                               2003
B0101401670271821100608**********                                               2005
B0201400890376821100608**********                                               2005
B0101408950396821100608**********                                               2005
