B0301400110191821100608**********                                               2030
A0101405490392298552043BETTY R. ARENA                                           0502
B0101400440161007221001ILA EXPRESS HAULER                                       1602
A0101405650322488260001BARREDO, CARMENCITA CALIXIHAN                            0502
A0101401250021376381001MACARANAS, ARLYN C.                                      0501
A0101400150061456754001ANCHETA, ANGELINO TAGUIBAO                              10502
A0101400150061456754001OR ANCHETA, CANDELARIA                                  20500
A0601400100081025360002AMOR REFRIGERATION & AIR                                10501
A0601400100081025360002CONDITION REPAIR                                        20500
B0601400100000000032839TANCUNGCO BENSING LIVESTOCK CORPORA                      1605
A0101413280000002317682**********                                               0501
B0101414090000000399457ANTARA VENTURES INC.                                     1603
A0101410560000000268342LESLIE ANN F. MERCADO                                    0502
A0101410560000000020195LELIANE D. TORRES                                        0503
A0101401960121240187001**********                                               0501
B7201400170000003772981LADLAD, EMSA BANA                                        1601
A7201400170000006495043SABADO, JODLEY JAMES GACITA                              0501
A0101400440161039572046MELVIN D. VILLACO                                        0501
A0101400440161478374189CORAZON C. BOLA                                          0501
A0101407270162525008001RAYMOND S. FERNANDEZ                                     0502
B0101401090171007908001PERPETUAL SUCCOR HOSPITAL &                             11605
B0101401090171007908001MATERNITY, INC.                                         21600
B0301400530193014206001PANABO MULTI-PURPOSE COOPERATIVE                         1604
A0301400530000002318390YAO, MARY KRIS TAN OR                                   10502
A0301400530000002318390YAO, CAIQI                                              20500
A0301400660194618862001TAJON, NONILO                                            0501
B3101400160221000717001MARITIME SAVINGS BANK CORPORATION                        1601
A3101400160221377318001JOVAN A. CHUA OR                                        10501
A3101400160221377318001AILEEN ANG-CHUA                                         20500
A3101400450223574720001GO, RONNIE OR CELESTIAL                                  0505
A3101400870000006501053MIRANDA, ROWENA RAMOS                                    0501
A1001400190231039064001*****                                                    0504
B1001400190231276633001SIA, TOMAS &/OR ANNIE &/OR GINA                         11610
B1001400190231276633001&/OR HENRY                                              21600
A1001400190231478374067DAGANATO, NICANORA BALOS                                 0501
B1001400350233076793001BINHI MICROENTERPRISE DEVELOPMENT                       11605
B1001400350233076793001FOUNDATION INC.                                         21600
A1301400470252763998001BEVERLY C. EVANGELISTA                                   0501
B0101406620000000962403GEOWORKS INTERNATIONAL CORPORATION                       1601
A0101406620273346102001ANIANA F. FORDELON JT                                    0501
A0101406620273523123001RESURECION P. VILLAR                                     0501
A0101400570281739506001JOHN CLAUDE S. CABREROS OR                              10502
A0101400570281739506001HERBERT R. FERAN                                        20500
A0501400200000002306070ORPIA, MARY HAZELLE BRAULIO OR                          10501
A0501400200000002306070PEREZ, RONALDO P                                        20500
A0501400200000005751599BALMEDIANO, MYRNA SOLIVEN                                0503
A2601400270302728942001RODERICK B. CADAUAN                                      0501
A1101400120000001920521NG, RACHEL CHU OR NG, ANDREW PO                          0502
A1101400120000003981271BUSTAMANTE, CS GIDEON GRANIL                             0501
A1101400120000003022384ELCARTE, ERNA GONZAGA                                    0501
A6601400120000001105833CARDENAS, NICANOR OR IRMA                                0501
A6601400120000001065292AOYANG, DONABEL CERBITO                                  0501
B0101402350000000655403FUTUREHEADS INDUSTRIES, INC.                             1602
A0101402510000002029210AGUSTIN, EDGAR MAGAT                                     0503
A0101402060351211754001ABAD H. &/OR LOWIDA C. ALVARO                            0501
A0101409050352688698001MARIA CHERYL B. SAMSON                                   0503
B0201400920375035043001EIGHT TO EIGHT CATERING SERVICES                         1601
A0201400920000002804480MIRANDA, SAMMY                                           0501
A0101402930000003710603RAMOS, MARIE GRACE BADUA                                 0502
A0101408370382205897001CHARMAINE L. ROQUE                                       0502
A0101402770391472751004DE GUZMAN, JERVIE RACELIS                                0502
A0101405490392034138001MCMAR & MARY ELECTRICAL                                 10501
A0101405490392034138001& CONSTRUCTION S                                        20500
A0101405490000004808635BEDES, BERNADETTE B.DBU RIGHTED                         10502
A0101405490000004808635GE DOCUMENTATION SERVICES                               20500
A0101408400000001614791DECORMATES INTERIORS SALES AND                           0505
A0101409180000006375897DE VEGA, IRENE LIBUT                                     0502
A0101412210000005302885RAMOS, FATIMA CAMELA REYES                               0501
B0101412210000005051336GEOGEN CORPORATION                                       1602
A0301400820000000132447BRANA, PACOMIA D.                                        0501
A0301400820000005991473LEGASPI, JECELYN TE DBU SOLIO                           10502
A0301400820000005991473TRUCKING SERVICES                                       20500
A5501400120000002949575ESCLETO, RONNIE DIAZ                                     0501
B5501400120000002949746JSTAR GROUP OF COMPANIES CORPORATIO                      1605
A5501400120410625044001ARANDIA, JOSEPH TANON                                    0503
A2401400180411275775001GARCIA JR., VICENTE BORNEO OR                           10504
A2401400180411275775001GARCIA, NELISSA                                         20500
B1201400150000005357859TIONG SAN HARRISON DEPARTMENT STORE                      1625
B1201400150000005357860TIONG SAN HARRISON SUPERMART                             1625
B0901400220000000888166**********                                               1602
A0101403320471638012002CRUZ JR., NARCISO AARON BENAMER                          0503
B0101405940000000886682SEWELLS GROUP PHILIPPINES, INC.                          1603
B0101408530000001275281THE COVENANT CAR COMPANY, INC.                           1602
B0101408530516618100001ZEREXIST, INC.                                           1602
A0101411400000003750598DR. TWINKY D. BELINO                                     0504
A0101403450000001769708**************                                           0501
B0101403450521011666002********                                                 1602
B0101403450521011882004PAN PACIFIC TRAVEL CORPORATION                           1603
A0101404000000000136536NAVASERO, SYLVIA ARNALDO                                 0501
A0101410690000000710712MONTEMAR, DONN DBU DHLM TRADING                          0501
A0101410690000000710672BADE, MINERVA V DBU E3V                                 10502
A0101410690000000710672ENTERPRISE                                              20500
B0101404130601023740001CAREER DEVT ASSO.OF THE PHILS.,INC.                      1602
B0101404130601037502001JS PHILIPPINES GLOBAL CORPORATION                        1602
A0101404260611478374088MARIFE BARACENA                                          0501
A0101409890649044793001**********                                               0501
A0101413990000002273963AVILA, ANNABELLE CARRERAS                                0503
B0101406590662024235003RCDG CONSTRUCTION CORPORATION                            1605
B0101411950680821100608**********                                               2002
B0101411950680821200608**********                                               2001
A1301400210000005040691SANTOS, MA LUISA CANDELARIA                              0501
A1301400340683367953001FELLO, ROSEMARIE RODIL OR                               10503
A1301400340683367953001FELLO, BISMARK C                                        20500
A0101408240711528457001CUERVA, ISABEL BECK                                      0501
A0101408240711618385001RONALD MANESE OR LEO PRINCIPE                           10502
A0101408240711618385001OR PIO RENATO                                           20500
A2801400230000002312301GAMBOA, LOVELY KAHAEL DOMINGUEZ                         10504
A2801400230000002312301OR PURUGGANAN, AJ P.                                    20500
A4101400260812386293001DR. LORETA B. ZOLETA                                     0501
A4101400390000003346103YABUT, ANNALIZA GAMBOA DBU AGY                           0502
B0101406750000005608595METROWIDE HOMEBUILDERS, INC.                             1620
B0101406750000005608431METROWIDE HOMEBUILDERS, INC.                             1620
A0101413860000001233681LEE, SAMUEL UY                                           0505
A0101413860000002314216PILON, MIRRIAM SAN VICTORES                              0501
A0601400230000005185833DUMAN-AG, MERCEDES MANUEL                                0501
A0601400230000005185800MR. BEST                                                 0502
A0601400230891506645001SALLY M. DABU OR                                        10501
A0601400230891506645001BERNARDINO D. DA                                        20500
