A0101407720602326333001SATURNINO PEREZ JAVIER                                   0502
A0101414120000008642699NACARIO, SOLINA GARCIA                                   0503
A0101400860000005313126*******                                                  0505
A0101401250000000441052ONGSUECO, SYLVIA K.                                      0501
A0101400150000000806906DE LEON, CAROLINE TUAZON                                 0501
B0101400150061044906001G-GATEWAY MOBILE PHILIPPINES INC.                        1602
A0101400600071350764002**********                                               0502
A0101405810072234892001**********                                               0501
B0101405810072374751001**********                                               1601
A0601400100000007250688DIZON, ERWIN SINGIAN                                     0505
B0601400100081027127001NARCISO BROS., INC.                                      1602
B0601400100081031017001KITA CORPORATION                                         1603
A0601400520000005001487ORQUIA, GERMAINE REVELLAME                               0502
A0101413730000000144716*********************                                    0501
A0101400730111203514026ELEONOR MAGBANUA                                         0501
A0101400730111432322013CARLOS S. MORALES JR                                     0502
A0101400730111477011001SAMSON, CECILIA DURAN                                    0501
A0101401960121505415001************                                             0501
B0101412630000000023850REA INSURANCE AGENCY INC.                                1601
B0101401830141045610001INTERZONAL COURIER SERVICE                               1601
A0101401830000001281998RIVERA, RAMIL DBU ICON RBR                              10501
A0101401830000001281998GLASS AND ALUMINUM SUPPLY                               20500
A0101401830000003508592CAPISTRANO JR., LEONARDO TENORI                          0502
B0101400440161044506001STAR COMMANDER SECURITY AGENCY, INC                      1610
A0101400440000000821301TOPCOM CONVENIECE STORE                                  0505
B0101400440000000337762SUPREME COMMANDER INVESTIGATION AND                     11610
B0101400440000000337762SECURITY AGENCY                                         21600
A0101400440000002035001INTEGRITY DIAGNOSTIC CENTER                              0505
A0101400440000000029401ANGEL, HELEN VILLANUEVA                                  0501
A0101400440161549556001TEODORO R. BAUTISTA                                      0501
A0101407270162225350001GRACE Q. AGCAOILI                                        0501
A0101407270162526657001VALERIE ANNE G. MALIG                                    0502
B0101401090171020037001ASTREA MARKETING CORPORATION                             1601
A0101401090171062304001TOMASIAN FASTFOOD CORP.                                  0510
A0301400530000005001669CORTEZ, LEAH CASAS                                       0501
A0301400530193774589001CREDO, ARIEL S.                                          0501
A0301400660194737283088ZHI VENUS INDUSTRIAL SUPPLY                              0502
A0301400790000009806215RODRIGUEZ, SOCRATES SALDUA OR                           10501
A0301400790000009806215RODRIGUEZ, ROWENA MANACAP                               20500
B0301400950000001379648**********                                               1603
A0301400950000002251992******                                                   0501
B0301400950000002115731MINDANAONE EXPERTS DISTRIBUTORS, INC.                    1602
A0101410720000000008620SANTOS, KEIO MARK TUYA                                   0501
A0101410720653528817001VINCENT GONZALO SY OR TIMOTHY                           10502
A0101410720653528817001JON SY OR JULIE                                         20500
B0101413600000005524772GENERAL POWER EQUIPMENT                                 11605
B0101413600000005524772SOLUTIONS INC.                                          21600
B3101400160221010055002CALAMBA LUMBER ENTERPRISES                               1605
B3101400740000000013889IM DIGITAL PHIL INC.                                     1610
A3101400740000006735813CHOSEN JADE ENGINEERING INDUSTR                         10504
A3101400740000006735813IAL SUPPLY AND SERVICES                                 20500
A3101400870225065864001BROSAS, MAY THERESE A. DBU AMCT                          0501
B3001400130000006004671UHLAND LOANS CORPORATION                                 1601
A1001400190231520766042GEOTORO, INES MANGUILIMOTAN                              0501
A1301400470000001299196PRECILLA DR. NADORA OR                                  10503
A1301400470000001299196REYNALDO E. NADORA                                      20500
A1301400760000000050422RAFAEL R. CLEMENTE                                       0502
B1301400760253821200608**********                                               2001
A0101408660000006296837FABELLA, AUGUSTO K. OR                                  10501
A0101408660000006296837CARMEN ROSA F. MUELLER                                  20500
A0101408660000007457994F. CURA INDUSTRIES                                       0505
A0101411820000001356241HAO, KENNETH MONDIDO                                     0502
B0101400570281036729002LAIYA GOURMET                                            1603
A0101400570281388539038ELENA R. CATALO                                          0501
A2601400270000000561693ROMARICK G. TABUCOL                                      0501
B2601400270302170180001TAI, KUO AN OR ILARDE, LAWRENCE BRIAN OR                11601
B2601400270302170180001LIM, CARLITO                                            21600
A6601400120314041602001LEXTAN GENERAL MERCHANDISE                               0502
A3401400280000004959060LEGASPI, MINALYN CONSTANTINO                             0502
A0101402510000009784974AMORILLO, VIRGINIA ABUEVA                                0501
A0101402510000000049318********                                                 0503
A0101402060351687812001SOLER, MA. ASUNCION RAMIREZ                             10501
A0101402060351687812001ARELLANO                                                20500
A0101409050000002971384RESULLAR, ALLEN CURAY                                    0501
B0101402930381014599001HEALTH SOLUTIONS CORPORATION                             1602
B0101402930381667403001PRIVE PROPERTIES DEVELOPMENT INC.                        1601
B0101402770391009312001CAPITAL GARMENT CORPORATION                              1603
A0101402770391478374036GENARO S. PEREZ OR                                      10501
A0101402770391478374036VICTORIA L. PEREZ                                       20500
A0101408400000007905839VILLAR, CHRISTOPHER BUENO                                0501
A0101408400000002921013GUMARO, S DBU RICHMAIN CONSTRUC                          0501
A0101408400000001213512GUEVARA, NORMA RAYOS DEL SOL                             0501
A5501400120410691763008DR. JANET P. CELIZ                                       0502
A2401400180411599903088***********************                                  0502
A0101406330000006943526DELOS REYES, ESTRELLITA MONTERO                          0501
B0101406330472040053001KUS OFFICE SYSTEM MFG. CORP.                             1602
B0101406330000000432802FLEXTONE CO.                                             1602
B0101406330000000432820SIVI INTERNATIONAL TRADING INCORPORATED                  1602
B0101406330000000432831OTO MARKETING, INC                                       1610
A0101403580511150629008MIRIAM HIPOLITO OR RAMONA PENA                          10501
A0101403580511150629008OR GERALDINE LIM                                        20500
A0101403580511156580005MANUEL R. GUILLERMO                                      0502
A0101403580511156599049MARTIN MONARBA                                           0501
A0101403580511326292001HELENE ORDONEZ OR BELINDA RAMOS                          0501
B0101408110515017722001STORES SPECIALISTS, INC.                                 1615
A0101411790000002276086LOZANO, CARLITO CULASI                                   0501
A0101411790000006543451LIM, JACKIELOU PAPELERIN                                 0501
B0101403450521011975001**********                                               1602
A0101403610531220657002SOUZA, TERESITA YAMBAO                                   0504
A0101403610531355089001MACASAET, DOMINGA YAMBAO                                10501
A0101403610531355089001MACASAET, LOPE M                                        20500
A0101403610531712013001LUMPAS, MARILYN DEL ROSARIO                              0502
A0101413440000003298340CALATRAVA, EVELYN ABAO                                   0501
B0101414120000000399093*****                                                    1604
A0101414120000001984256MARTINEZ, CONSOLACION APO                                0501
A0101406590662209239001ANNIE LOU OR EDGARDO CRUZ                                0502
B1301400210000008173740GOLDEAST CONSOLIDATED CORP.                              1602
A1301400340000000011650CHIU, BRYAN EDWARD LLENADO                              10502
A1301400340000000011650OR CHIU, EDWARD                                         20500
A1301400500684635536001JOSELYN D SANTOS OR                                     10501
A1301400500684635536001EDGAR D VILLAR JR                                       20500
A1701400230000005694113ALBANO, BENJAMIN JOSEPH EUGENIO                          0501
A1701400230000005694062LOPEZ, BENJAMIN REYES                                    0501
A1701400230693478374060ROMOSOD, ADELA PASCUA                                    0501
B2801400100000004560025MONTEONE CONSTRUCTION CORPORATION                        1605
A4101400550000003267127NAVEA, A DBU VELJO ENTERPRISES                           0502
A0101406750000007879507YUSON, MERCILINA MENDOZA                                 0501
A0101406750000002040328HERNANDEZ, R DBU RJM LEARNING I                          0501
B0101413860000000145275CON-PAC WAREHOUSING INCORPORATED                         1605
