B0101405650322043381001ACE-REM MESSENGERIAL & GENERAL SERVICES                 11610
B0101405650322043381001INC.                                                    21600
B1001400480000003028931BELICAN, ALDIN TORNIADO DBU BELICAN                     11602
B1001400480000003028931TRUCKING                                                21600
A1101400120000003981055MEMBERS OF NATASHA (SHOECAT INC                          0501
A0101408400394478374094NUNEZ, GENIE                                             0501
A0101408400394483376001IBRAHIM, ROHANIE BUBONG POTANO                           0503
A0501400170000005003041VILLAMIL III, ALFONSO CLAVERIA                          10502
A0501400170000005003041VILLAMIL, NENITA DE LEON                                20500
A0501400170481320433004MELENDEZ, AURORA REYES OR                               10502
A0501400170481320433004COQUIA, MARIBETH                                        20500
A0101400860011084001001**********                                               0505
A0101401250000002131793AGUIRRE, JANETTE CHAVEZ                                  0501
A0101400150000000807863ZALAMEA JR., ENRIQUE MAURICIO                            0501
B0101400150061047262001SUPER GT MOTOR SALES AND SERVICES INC.                   1603
A0101400150061229814001LEONCIO C. LIM                                           0501
A0101400150000001708083SERVER, ERNEST FRITZ DULA OR                            10501
A0101400150000001708083SERVER, CHRISTOP                                        20500
A0101400150000004090726CRISTELLE CATES U. REYES                                 0501
A0101400150061720595122HENRY ZARA JR.                                           0501
B0601400100081030352001LIVING STONE INTERNATIONAL SCHOOL INC.                   1605
A0601400100081033811001CIRENEJ ENTERPRISES CO.                                  0505
A0601400100081090200001VALDEZ, SHIELA MARIE UMBINA                              0501
A0601400360000000978732MAGTIRA, J DBU SAINT HOMOBONUS                          10501
A0601400360000000978732PHARMA HEALTH EN                                        20500
A0101413730000002229723***********************                                  0501
B0101400730000001216324TRIPLE A SECURITY AGENCY, INC.                           1601
A0101400730111644159001CASUNCAD, CATHERINE GRAGASIN                             0501
A0101406040000002272442JACQUELINE C. SAMONTE                                    0502
A0101406040112209765001**********                                               0503
B0101400440161037708002RD CASH PADALA, INC.-AREA 1                              1603
A0101400440161625470001KRISTINE A. CECILIA                                      0501
A0101401090171330568001FELICIDAD G. PERENA                                      0501
A0101401090171331630001MARIA ARCELI G. MAGSINO                                  0501
A0101401090171359385001VIRGILIO G. VELEZ                                       10501
A0101401090171359385001OR CECILIA G. VELEZ                                     20500
A0301400530000001009943PANTUA, JERSON R.                                        0501
B3101400160221010055002CALAMBA LUMBER ENTERPRISES                               1605
B3101400160221039189001SPRINGDALE GARDENS HOMEOWNERS                           11602
B3101400160221039189001ASSOCIATION                                             21600
A3101400450223455809001LANCION, AUREA OR JERIC                                  0502
A1001400480000002659783REFUGIO, SOFRONIO RETUTAS                                0501
B0101401670271028082002DDT KONSTRACT, INC.                                      1630
A0101401670271333076001BENJAMIN C. VICENTE                                      0502
A0101401670271361002001JOSE ABRAHAM V. PLANA II OR                             10503
A0101401670271361002001RACQUEL Y. PLANA                                        20500
A0101406620000001686871*******                                                  0501
A0101406620000003661534VALERIANO, MA. TARA ANDREA P.                            0501
A2601400270000002312174JONATHAN U. CORPUZ                                       0501
A1101400120313094914001CHU,VISITACION UY OR CHU, GARY                          10501
A1101400120313094914001OR HO,EVANGELINE                                        20500
A1101400120313478374112VILLASOTES, JEAN L.                                      0502
A2001400290315044705002REMAN GLASS & ALUMINUM                                   0501
B2001400290000000020571PHILIPPINE REACHWELL DISTRIBUTION                       11603
B2001400290000000020571CORPORATION                                             21600
A3401400280000002323484JENIFER G. BATAAN OR ALEX C.                            10501
A3401400280000002323484BATAAN                                                  20500
A0101405650000001912118ANICO, MARION C. OR                                     10502
A0101405650000001912118ANICO, JOECEL JONES A.                                  20500
A0101405650000004822202SIA CUNCO, KUH SORRERA                                   0503
B0101405650322022711001BF MANRESA HOMEOWNERS' ASSN., INC.                       1602
A0101405650000000525739RUFA MACABENTA                                           0501
A0101402510341202149003AMALIA L. ABUSTAN                                        0501
A0101409050000005292888TARA DUENAS                                              0501
A0101409050000005364358JORDANEE MANARANG                                        0501
A0101409050000005364370RACHELLE B. RESURRECCION                                 0501
B0201400760374249471002COMMONWEALTH INSURANCE COMPANY                          11602
B0201400760374249471002-OPERATING FUND                                         21600
B0201400760374499501002PRIMEHOMES DEVELOPMENT CORPORATION                       1601
A0101402770391319133001WENDA R. ALMIN                                           0502
A0101402770391535293001BAYOT, RICARDO GONZALES                                  0505
B0101402770391752292002JUANITA OR TOMAS OR BENJAMIN VI                          1601
A0101408400394478374008EDUALINO, LEONORA OR                                    10501
A0101408400394478374008EDUALINO, EDGAR                                         20500
A0101409210000002279018AGONCILLO, CONSUELO FLORES                               0502
A2401400180411516002001GAVINO, RHEA MEA LAUREA                                  0501
B1201400150421023348006PINES CITY BAPTIST CHURCH, INC                           1602
A0901400220432478374001LEONARD GO LOZADA                                        0501
B0101403030000000531382***********                                              1601
A0101403030441469355001**********                                               0501
B0101412890000000125380CHRIST'S COMMISSION FOUNDATION, INC                      1602
A0101406330000000162467CARLOS, EDUARDO S. OR                                   10501
A0101406330000000162467CARLOS, CECILIA A.                                      20500
A0101406330000001235001VERTEX SECURITY AGENCY                                   0504
A0101406330472666344001MA. THERESA C. SALONGA                                   0502
A0101406330472682430001ROBERTO S. DEL ROSARIO OR                               10502
A0101406330472682430001HERMINIA DEL ROSARIO                                    20500
A0501400170000001072731ABCEDE, JORRECA DE PERIO                                 0502
B0501400170481005408003REPUBLIC COURIER SERVICE INC.                            1603
B1901400160491246031001CARLITO GO/FELIE GO/MYRNA MORALES/MONINA                11602
B1901400160491246031001REMO/CARLEEN SIH                                        21600
B1901400160491246031002CARLITO/FELIE/TIMOTHY GO / MONINA REMO                  11602
B1901400160491246031002/MYRNA MORALES                                          21600
A1601400170000000643889ADONNE T. ESPANTO                                        0501
A0101411400517394278008*******                                                  0501
B0101403450521039814001JADE BROS. FREIGHT INT'L. INC.                           1603
A2201400250561478374006ANGELINA P. QUIBALLO                                    10501
A2201400250561478374006MEMBERS OF NATASHA                                      20500
A2201400250561674634001MABETH B. LUGTU                                          0501
B0101404130000000001263DYNASTRUCT INC.                                          1605
A0101404260611452490002MARISA A. MONTALVO                                       0502
A0101404260000000532290PESTANO, ALBERT L. OR PESTANO,                          10501
A0101404260000000532290LUCIA M.                                                20500
A0101413570000003379891ESTERLITA AUTENTICO DBU                                 10501
A0101413570000003379891CARLITA'S DRESS SHOP                                    20500
A0101413570000002976192*************                                            0502
B0101406590000000905566CRAVINGS FOOD SERVICES, INC.                             1610
B0101406590662059079001TIDY HEIDY INCORPORATED                                  1601
B1301400500000004093189ALVIN GUILLERMO OR  ANTONIO YULO III                     1603
A0101408240711408868001ARTURO D. TANO OR ANA MAY WONG                          10502
A0101408240711408868001LEE                                                     20500
A4101400390000000379215VYTINGCO, ANALIZA ANGELIA                                0501
A4101400550000000081616ONG, JOSE MENDOZA OR                                    10502
A4101400550000000081616CHEN YUETING                                            20500
A0101412340000002900290MARINA F. ASUGAS                                         0501
B0101404840851013980002VIC IMPERIAL APPLIANCE CORP.                             1601
B0101406750852023612001LAS PINAS CITY MEDICAL CENTER, INC.                      1610
A0101405070861573349001GRACIANO, SCHUBERT DULAY                                 0502
A0101413860000002314352CARBON, RYAN PAUL BATISLAON JT                           0501
A0601400230000000029901PANGILINAN, RALPH JORGE BUNDALI                          0501
A0601400230000003015823ALURA, JIMMY SUENO                                      10502
A0601400230000003015823OR ALURA, MERLE                                         20500
