F3101400580452032570001JARTON SECURITY AGENCY INC.                              2615CKO
F0201400180181025728003MDR MICROWARE SALES, INC.                                2603CKR
F3101400450223038326001BLUE DIAMOND COURT INC.                                  2602CKR
F1101400120000004088966FERNANDO D. CARPIO OR                                   12601CKR
F1101400120000004088966WILBERT D. CARPI                                        22600CKR
F0101408370382046274001SMART DRIVING CORPORATION                                2605CKR
F0101408400394032365001AC TECHNICAL SERVICES, INC.                              2603CKO
F0101407720602405340002QUIAMBAO, MONICA SISON                                   2502CKO
F1301400210682030278001DOVE TRADING                                             2610CKO
F1301400340683027056001STI EDUCATION SERVICES                                  12703CKC
F1301400340683027056001GROUP, INC.                                             22700CKC
