B0301400660194821100608**********                                               2010
A1101400120000003022500GO, LEE HUA UYKIM DBU SOLID                             10505
A1101400120000003022500SALES OR GO SR., SALVADOR                               20500
A0101412890000000007605MELQUIADES A DE JESUS OR                                10503
A0101412890000000007605MARIA ELOISA C D                                        20500
B1101400120000006186883ONG, VIRGINIA PO AND ONG, WAN LIAN PO                    1601
A1101400120000001920714TAMAYO, ALMA A. OR                                      10501
A1101400120000001920714TAMAYO, GERARDO                                         20500
A1101400120313094914001CHU,VISITACION UY OR CHU, GARY                          10501
A1101400120313094914001OR HO,EVANGELINE CHU                                    20500
A0101408400000005286422BONGAROS, NORHAYNI DATUMANONG                            0502
A0101410690000004969920OQUENDO, MARY CHRISTINE JACOB                            0501
A0101410300000007614140********                                                 0501
B0101400860000000030315*************                                            1601
A0101400860011412773001**********                                               0505
A0101400860011583993001**********                                               0503
A0101401250021498847001*****                                                    0502
A0101400150000009832631GOMEZ, MANUEL ANGELO CO                                  0501
B0101400150061010855001MANTA EQUITIES, INC.                                     1610
B0101400150061027012001PRECEPT MINISTRIES INTERNATIONAL OF                     11601
B0101400150061027012001THE PHILIPPINE                                          21600
B0101400150000005015489ADSTRAT ADVERTISING STRATEGIES, INC                      1605
A0101400150061236944101NOEMI T. BOLIVAR                                         0502
A0101400150061365021001ARTHUR P. MARQUEZ OR                                    10501
A0101400150061365021001CLARA MARQUEZ                                           20500
B0101405810072045865001UNO FOREX INCORPORATED                                   1602
B0101405810000000016840CHESTERTON INDUSTRIAL CORPORATION                        1602
A0101400730111203514007UNGOCO, EMMA L.                                          0503
A0101406040112733226001FRANCISCO DAVID OR                                      10502
A0101406040112733226001DELIA ADOLFO                                            20500
A0101401830141306724003GUEVARRA JR., ANTONIO PASCUAL                            0502
A0101401830141747011001MARINAS, GINA DELOS ANGELES                              0501
A5001400170000005705197MAGBAGO, JUCEASAR MACALONG                               0502
A0101401090171200336001MATEO R. BAGSIC                                          0504
A0101401090171390256001LERMA, ELEANORE BARROZO                                  0501
A0101401090171551007001MARY MILITANT RICAFRENTE OR                             10502
A0101401090171551007001MARIETTA C. ABELLA                                      20500
B0301400660000000048213G.J.T.F. BUILDERS AND CONTRACTORS, INC.                  1601
A0301400950000000566723FERNANDEZ, NESTY VON CHI                                 0502
A0101401380000001819821PARK, SUNGMAN                                            0501
B0101401380201041802001D'GLACIERS' MGM INC. - MAC                               1602
A0101410720000008730701MARQUEZ, RAYMAR C DBU PHILMYTH                           0503
A0101410720000000967900EFFINGER, JON ERIC                                       0502
A0101413600000005794687JUBY BERNADETTE R. RUIZ                                  0501
A1001400190000005709140TAN, RENARIO TOYLO                                       0502
A1001400190231520766110MAYOR, CARMELITA ANGCAY                                  0501
A1001400190000002170769JUGAN, NOUE MALOLOT                                      0501
A1001400350233478374001JUNIO, ROGELIA A.                                        0501
B0101401670000000178552LA JOYA PROPERTY HOLDINGS, INC.                          1602
A0101401670000005039765TERRE JR., RONY LOBREZA                                  0501
B0101401670271058808001JADE GARDEN NEIGHBORHOOD ASSOCIATION                     1601
A0101400570000006272095YU, LESTER CO                                            0501
A0801400160000002287669ANTIDO, ELLEN JOY ABAJAR                                 0502
A0801400160000001031387DIMATULAC, NENITA MENDERICO                              0502
A0801400160311638278001DE ARROZ, ELMA SAMPIANO                                  0502
A1101400120000003981226HO, EVANGELINE CHU DBU TWINS                            10501
A1101400120000003981226HORIZON ENTERPRISES                                     20500
A01014056503220410060013805 PHARMACY                                            0502
A0101405650322210293002VILLANUEVA, TERESITA ESPINOSA                            0501
A0101405650322526192001FUNTILA, CAROL PAULINE TAMAYO                            0501
A0101402510000010142108MAGAT, ALELENE HEMBRA                                    0501
A0201400760374469965001********                                                 0502
A0101402930381205288002GRACE F. FAVILA OR                                      10501
A0101402930381205288002ALICE FAVILA                                            20500
A0101402930381330886001JOSE A. NUNEZ, JR. OR                                   10502
A0101402930381330886001MA. TERESITA A.                                         20500
A0101402930000001445370OCDEN, MARIANE ARIOLA                                    0501
B0101408790000006025850CHILDFUND INTERNATIONAL, USA DOING                       1603
B0101408790000006025861CHILDFUND INTERNATIONAL, USA DOING                       1603
A0101405490000002880573WENCESLAO C. PIMENTEL DBU                               10502
A0101405490000002880573MGV COMMERCIAL                                          20500
A0101408400394037647001FRIAS WATER STATION                                      0502
A0101408400394089542001CRYSTAL FRIAS LAUNDRY SERVICES                           0502
A0101408950000009451190ESPANA, JOSE FROILAN CRUZ                                0502
B0101408950396026318001GLOBAL CITY AUTO SALES, INC.                             1605
A0101409180000008122405KEARNEY, MARIA LIZA FUNDAR                               0501
B0101409180397777777008DHOLWANI, GEETA OR DHOLWANI, MADHU OR                   11601
B0101409180397777777008WANI, VICTOR OR                                         21600
A0101409210398071502001DE GUZMAN, DENNIS CASTILLO                               0502
B0101409210398821200608**********                                               2001
A5501400120000006977004GUSTO, DANDY GONZALES                                    0502
A2401400180000005287021BAYHON JR., EDUARDO DIESTRO                              0502
A2401400180411320270002SALARDE, GLORIA TIMKANG                                  0502
A2401400180411572205001EBRAHIM, MA. AMOR ISHAD                                  0501
A2401400180411718926001VALENCIA, JOSIE RODRIGUEZ                                0501
B1201400150421035585001HOTEL COSMOPOLITAN                                       1601
B1201400150000007556161SALAS, RONALD ANGELES DBU GUSTINE TIRE                  11601
B1201400150000007556161SUPPLY                                                  21600
A0901400220000007072499**********                                               0502
A0101403030000001302087**********                                               0501
A0101406330472216347002MARION B. SINGH OR EDWIN G. LEE                          0501
A0101410140000006015407EDORIA, DBU MLE VALVE ENTERPRIS                          0504
B0501400170481018109002****                                                     1605
A0501400170481062103001ANG, JUSSLYNN MAISIE ONG DBU SO                          0501
A0501400170481252349002LALAS, MAEVA DELA CRUZ                                   0502
A1401400110492378227001VEJERANO, ROBERTO MAMORE                                 0502
A1401400110492493108001DEQUITO, BERNABE VILLANUEVA                              0502
B0101407430503034519001D.G.X. PHILS., INC.                                      1602
A0101407430000000141733ROBERTO G. FERRER                                        0501
A0101403450521240285002**********                                               0502
B0101403610531063656001UNIVERSAL OUTSOURCE (UNO) ASSOCIATIONAL                 11602
B0101403610531063656001MULTI-PURPOSE CO                                        21600
A0101404130000002329051TULAGAN, JUVELYN CABARLO                                 0501
A0101407720602198350002MEDINA, CLEOFE B.                                        0505
A0101407720000005100109STO. DOMINGO, MARINETTE TUASON                           0502
A0101404260611151074002BALASA, OFELIA ROSALDO                                   0501
A0101404260000007498288DE GUZMAN, MARILOU GREGORIO                              0501
A0101409890000003098213AQUINO, VIL DBU JOVAROM COMMERC                          0502
A0101409890649748239001**********                                               0508
A0101406590000005305140RODRIGUEZ, EVA PAOLA BASCO                               0502
A1301400210000001206820MERLITA R SALAVERIA                                      0510
A1301400340683542735002BIUNAS, REMEDIOS GREGORIO                                0502
A1301400500000009723082JOSEPH  BRYAN G. IBARRA                                  0501
B0101408240711028488001INTAS DESTINATION MANAGEMENT INC.                        1605
B0101408240711030848001*****                                                    1601
A0101408240711427132001SORIANO, AVELINA OR REYNALDO                             0501
A0101408240711501043002ESPINOSA, FRANCIA RICAFRENTE                             0501
A2801400230000001782130GOLDEN STATE ALUMINUM GLASS &                           10504
A2801400230000001782130GENERAL MERCHANDISING                                   20500
B4101400390813036410001THE BOAT SHOP CORPORATION                                1601
A4101400390000000975162DULCE, MARRIANNE DBU KLARENZ-                           10502
A4101400390000000975162KRIZELLE'S CATER                                        20500
A4101400550000000900350SANTOSIDAD AUTO SUPPLY                                   0504
A4101400550815066244001MERCADO, ELEANOR B.                                     10502
A4101400550815066244001DBU EDJOY ENTERPRISES                                   20500
A0101404840000005820344DELOS SANTOS, MARY ELIZABETH H.                          0503
A0101404840851463516002ARCIAGA, FRANCISCO OR                                   10520
A0101404840851463516002ARCIAGA, GERALDI                                        20500
A0101404840851478374094LETICIA FULLO                                            0502
B0101405070000003417570MASANGYA, CHRISTOPHER JOHN DBU DECALHUB                 11602
B0101405070000003417570CUSTOMIZED STICK                                        21600
A0101405070861197496001DE JESUS, JOSEFINA OR                                   10506
A0101405070861197496001OSBERG-SNEED, JOSEPHINE                                 20500
A0101405070000000336816CABALLERO, MA JONETTE DIONISIO                           0501
A0601400230000005185833DUMAN-AG, MERCEDES MANUEL                                0501
A0601400230000006045570GUIAO, JULIETA ONG                                       0505
B0601400230000006045370REALSTEEL CORPORATION                                    1605
