F0101413600000002822722GPRS - UNIFIED PRODUCTS AND                             12602CK1
F0101413600000002822722SERVICES INC.                                           22600CK1
F0101402480331010181004******                                                   2605CKR
