A0101407560000000003390MAPLE LEAF MOVERS, INC.                                  0505
A1001400190000000016480ANGELITUD, LYDIA LECIAS                                  0501
A4101400390000000048640DAMIAN, KAREN BULSECO                                    0501
A4101400390000000048651TIAMZON, ALTHEA MARIA SANTOS                             0501
A3001400130000000067183CURITANA, COLEEN BARRIENTOS                              0501
A1401400110000000132896MORALES, RAIN DBU DIRL AND JANE                          0501
A0101413570000000206328ELVIS MANYIKA                                            0501
A0101408660000000373011LAM, E DBU BAN HOK TRADING                               0502
A2201400250000000433441*****                                                    0501
A0101411400000000484548CACHOLA, AR DBU RVJC STONE ART                           0504
A0101405940000000505775ROXAS, LINCOLN CHAN                                      0501
A0101400440000000596630MARY ANN A. OYARDO                                       0502
A0701400260000000670791BISANA, WILFREDO MILLAPRE                                0502
A0101412500000000739657****                                                     0501
A0101407430000001028831LAMBERTO C. AQUINO                                       0501
A0101404000000001186932PABLO, CONCEPCION FLORENTINO                             0502
A0101412180000001293312CASTRILLO, JOSE PAULO BRIONES                            0502
A1301400760000001295405G-ELEVEN POULTRY FARM                                    0502
A1301400760000001295529JOSE P. LOPEZ                                            0501
A0101412920000001313773VICTORINO, JOCELYN DELA CRUZ                             0501
A0101413990000001406371BCD TRANSPORT SERVICES                                   0502
A0101404260000001725560DE LEON, ANGIE LYN PASCUAL                               0501
A4101400390000001732850JOEL D. OMANA                                            0501
A0101407560000001770798JCN PLASTIC PACKAGING                                    0501
A1701400230000001786683ULEP, FLORIEVEL                                          0501
A1301400500000002063769SUNSHINE N. SICAT                                        0501
A4101400550000002090922PENALES, CHRISTINE HIBALAY                               0505
A0101401250000002131806JESSE A. PERICO II                                       0501
A1101400120000002254844AREVALO, COLEEN CARASO                                   0503
A0301400660000002348461PEREIRA, ANTONIO FERNANDO                                0501
A1401400110000003025214BLUE HIGH POINT TRADING                                  0501
A0101401700041193436002CORAZON C. LOBENDINO                                     0505
A0101401700041502022001**********                                               0504
A0101400150061230098001SALVADOR R. SERRANO                                      0504
A0101400150061398851002ANDAYA, ETHYL EROLIN                                     0501
A0101405810072284224001**********                                               0501
A0601400100081251805001ANTONIO OR MA. JESUSA MUNOZ                              0501
A0101400440161039572046MELVIN D. VILLACO                                        0501
A0101400440161039572095WISHELLE C. RECLA                                        0501
A0101400440161186940001MARILOU I. DIVINA                                        0506
A0101400440161520766092RITA R. LABANGON                                         0502
A0101407270162331904006**********                                               0501
A0301400660194721952088*****                                                    0506
A0101401380201517488001BENEDICTO, HERIBERTH MEDINA                              0501
A0101407140213483164001TAN, WILLIAM LAO                                         0502
A1001400190231394585002AGUDO, DAVID CALO                                        0501
A1001400350233077197001BALBERAN, ANITA BORRES                                   0501
A1001400350233525240001CASINO, ANGELICA RODRIGUEZ                               0501
A0101406460272232218001MARIANO, NORMITA T.                                      0501
A0101406620273314677002*****                                                    0501
A0101400570281258962001POOTEN JR., JAMES BAGANO                                 0502
A6601400120314612855001SUNDAY LAVIN JR OR IRIANA LAVIN                          0505
A0101408820333332886001ALDOVER, EDNA MIRANDA                                    0501
A0201400760374563441001GOCUAN, MARILOU DUYONGCO                                 0501
A0201400760374744338008LIM, KENNETH AIZON                                       0503
A0101406330472478374044ARMES SMITH B. ALVARADO                                  0501
A0501400170481365467003CALLANTA, JOHN SORIANO                                   0505
A1401400110492041611001BLUECLICKER COMPUTER CENTER                              0505
A0101403610531220921002MEALA, BELEN PARACALE                                    0503
A0101403610531321898002ANGELES, ELIZABETH SARANGLAO                             0503
A0101403610531478374002GRAPE, IMELDA HANDOG                                     0501
A0101404000551150364001MA. ELENA R. ALBERTO                                     0505
A2201400250561308260001*****                                                    0501
A0101408240711377091002AARON LITONJUA                                           0501
A4101400260812247613001LUZVIMINDA J. ESTOCADO                                   0504
A4101400390813478374060CASTRO, AMELIA                                           0501
A0601400230891409285001NESTOR OR CORAZON YAMBAO                                 0502
A0101401380000000026888YABUT, MA. NICOLE KRISTINE                              10501
A0101406590000000131579JEREZ, JOANNE ROXANE DBU                                10502
A0101401380000000414275DE LUNA, ANNABELLE FEDELINO                             10501
A2601400270000001009107JOHN 3:16 MUSIC CENTER AND                              10501
A0101412890000001765784NEW POWER PAVER ASPHALT                                 10505
A0101400150061226801001LORETTA G. MANGILIT OR                                  10502
A0101400150061456754001ANCHETA, ANGELINO TAGUIBAO                              10502
A0601400100081424085001ALAPAG, JASMINDA B. OR                                  10502
A0101400440161591337001JENESSEY A. RANCES OR                                   10502
A0101407270162386869002VIRGILIO D. GARCIA AND                                  10501
A0101401380201656378001FERIA, ALEXANDER L. OR FERIA,                           10502
A0101411110276448822002SYJUICO, WILCON JOHN CHRISTOPHE                         10501
A0101402640361540929001CAINA, RODOLFO AQUINO OR                                10502
A0201400890376763623001BELO, EDWARD JOHN DENNIS OR                             10503
A0201401020377046499001TEH, MARIA ELENA BLANCO DBU                             10505
A0501400170481046585002ANG, JUSSLYNN DBU                                       10502
A0501400170481536304001BANEZ, CORAZON M. OR                                    10502
A1901400160491035294001BATANGAS CITY GOVERNMENT                                10520
A0101403610531219303001DR. ROMEO R. ANDAYA  OR                                 10502
A0101403610531662330001BERROYA, MARK LESTER AMOR  OR                           10501
A0101406590662650417001RAISSA LACSON OR SHERYLL ANN                            10502
A1301400210682628277001ADELIA MARIA B SOTO OR                                  10501
A0101408240711396310001LESTER C. VICTORIA OR                                   10502
A0101401380000000026888GARCIA                                                  20500
A0101406590000000131579ROXIEMAR CONSTRUCTION                                   20500
A0101401380000000414275JMD TRAVEL AND TOURS                                    20500
A2601400270000001009107SERVICES                                                20500
A0101412890000001765784PLANT AND CONSTRUCTION                                  20500
A0101400150061226801001REYNALDO T. MANG                                        20500
A0101400150061456754001OR ANCHETA, CAND                                        20500
A0601400100081424085001ALAPAG, MARCELIN                                        20500
A0101400440161591337001JESSIE O. RANCES                                        20500
A0101407270162386869002HEIDEE G. YUMUL                                         20500
A0101401380201656378001RICHEL C.                                               20500
A0101411110276448822002AND DIMAUNAHAN, DORELENE                                20500
A0101402640361540929001CAINA, SHEILA LU                                        20500
A0201400890376763623001BELO, TERESITA L                                        20500
A0201401020377046499001E.T. PRINTSHOPPE                                        20500
A0501400170481046585002AVS DISTRIBUTION                                        20500
A0501400170481536304001BANEZ, MARCO PAO                                        20500
A1901400160491035294001EMPLOYEES CREDIT                                        20500
A0101403610531219303001DR. ANGELITA Y. ANDAYA                                  20500
A0101403610531662330001BERROYA, CONNIE MORADA                                  20500
A0101406590662650417001SOBREMONTE OR RACHEL YU                                 20500
A1301400210682628277001MANOLET C SOTO                                          20500
A0101408240711396310001GIL JOSE E. PULUMBARIT                                  20500
B0101405940000000002773BT AUTO SPORT CORP.                                      1610
B2201400250000000016913ABRAHM CHASE CORPORATION                                 1601
B01014026400000000326577MG HAULING SERVICES PHIL. CORPORAT                      1605
B0101413310000000039989IRECOMMEND, INC.                                         1601
B0101406460000000182370WEE COMMUNITY DEVELOPERS, INC.                           1604
B0101413570000000206631MB VERSOZA POWER SYSTEM INC.                             1610
B0201401020000000470251SHANGS DEVT. CORP.                                       1601
B0101406460000000712703WEE COMMUNITY DEVELOPERS, INC.                           1602
B0101406460000000712714WEE COMMUNITY DEVELOPERS, INC.                           1602
B0101414250000000794936**********                                               1601
B0101412050000000890984NINON RETAIL CONCEPTS, INC.                              1604
B1201400150000001863254PRACTICAL ACADEMIC INTERVENTION                          1601
B0101401700041190338003**********                                               1601
B0101400150061010833001VELCA TRAVEL & TOURS, INC.                               1601
B0101400150061010971001PANANAW NG SINING BAYAN, INC.                            1602
B0101405810072034176001***********                                              1605
B0601400100081024665001CLARK PIPELINE & DEPOT COMPANY, INC                      1603
B0101401960121240911001WILLIE TEE                                               1605
B0101400440161021125001AAREMA SHIPPING AND TRADING COMPANY, INC                 1603
B01014010901710435610013M PETROLEUM DEALER CORP.                                1605
B0101401380201041802001D'GLACIERS' MGM INC. - MAC                               1602
B0101401380201043041001IBARRA BIO MED INT'L. TRADING CORP.                      1610
B0101401380201525090001HONGKONG MASTER COOK CORPORATION                         1603
B0101407140213032369001PROJECT G-CCOTE MINISTRY                                 1601
B0101407140213034695001**********                                               1603
B0101406460272038032004WEE COMMUNITY DEVELOPERS, INC.                           1604
B05014002002920365840015SS EXPRESS CREDIT, INC.                                 1605
B0101402510341008474001CEU CONSUMERS COOPERATIVE                                1610
B0201400760374030513001RQLIM RESOURCES, INC.                                    1601
B0201400920375044764001GOLDEN ROAST CHICKEN INC.                                1603
B2401400180411035164001MOMMY GINA TUNA RESOURCES (MGTR), INC.                   1610
B0101403320471035191001ST. GABRIEL CREDIT COOPERATIVE                           1601
B0101405940512041026001PILLARS 5, INC.                                          1603
B0101403450521011608001***********                                              1603
B0101403450521011955001KINGSWOOD TRADING CO., INC.                              1603
B0101404130601150036001ANGELO KING FOUNDATION, INC.                             1605
B0101401380000000027045DONNY'S CHOICE FOOD PROCESSING EXPORT                   11603
B0101401380000000106732ANIMAL FIRST PET PRODUCTS CORPORATION                   11605
B0101413990000000206135SERENDIPITY SALON AND WELLNESS CENTER                   11601
B0101401380000000027045AND IMPORT CORP.                                        21600
B0101401380000000106732DOING BUSINESS                                          21600
B0101413990000000206135CORP.                                                   21600
