B0201400760374821100608**********                                               2050
A0601400360000008460344ANOS, RICHARD JOSEPH LAVARIAS                            0501
B0101409180397041823001THE INFINITY CONDOMINIUM CORPORATION                     1603
A0101400150061520152001ENGRACIO U. ANG JR.                                      0501
A0601400520000005943702IMPACT BALIBAGO ARTS AND CRAFTS                          0502
A1001400480000002300390DAGUMO, ELIZABETH SY                                     0501
B1001400480000006296262MA. DEL CARMEN MART, INC.                                1610
A1901400290000001737715DONNA BELLE STONEY M MATIBAG                             0502
B1901400290261063999001DEA HAN APPAREL, INC.                                    1605
A1901400290261390520001JOEL PUNZALAN DIMAANO                                    0502
A0101402350321180119001SHERENA O. PARUCHA OR                                   10501
A0101402350321180119001VIRGILIO B. PARUCHA                                     20500
A0101405650000009768030INOCENCIO, MARIE AGNES MACALINO                          0502
A0101405650000002960865FADUL, PATRICIA MAE PANGILINAN                           0501
A0101405650322553972001CALUGAY, PAULO M. OR                                    10501
A0101405650322553972001CALUGAY, KATRINA                                        20500
A0101405650000014026090BARBERS, ROBERT NINO PENA                                0501
B0101402060351009401001PHIL. IRON CONSTRUCTION & MARINE WORKS,                 11605
B0101402060351009401001INC.                                                    21600
A0101408790000001486171CHAO, CARL FALLER                                        0501
A5501400120000005492311LINCON, MARJORIE SEGUMPAN                                0501
A5501400120000009875650FEDERIZO JR., RODOLFO ESTORPE                            0502
A0101412890000001056531MIAVE, MARIA CONCEPCION TABLICO                          0501
A0101412050000002314443DAYRIT, WILLIAM BRIOL                                    0501
A0101413570000005867430*******************                                      0501
A4101400390813464584001JOCELYN F. MANDANI                                       0502
A0101404840851217637018EDNA M. FAGARA                                           0501
B0101400860011376523004**********                                               1602
A0101400860011511921001**********                                               0502
A0101400860011570367001**********                                               0503
A0101400860011743392001**********                                               0503
A0101400860011783032001**********                                               0502
A0101401250000008136521ONGSUECO, SYLVIA KIUNISALA                               0502
A0101401250000005313422ROTONI, MARIA LUZ CLAUDIO                                0501
A0101401250021180271001ERLINDA V. EQUIBAL                                       0502
A0101411370000014023193TORRES, RENALYN MANALO                                   0501
A0101400150000003197711ANN MAY C. MERCADO                                       0501
A0101400150000002902752FISCHER, JANICE TUMAMBING                                0501
A0101400150061229009001MANGLAPUS III, RAUL JAY OR                              10501
A0101400150061229009001MANGLAPUS, JENNI                                        20500
B0101405810072020925003DW PLASTIC CORP.                                         1603
B0101405810000005943342PLASTIC TECHNOBAG CO. LTD.                               1601
A0601400100000014942099MARCOS, DULCE FORTO                                      0503
B0601400100000007185120LE MANS STELLAR MOTOR CORP.                              1610
A0601400100000010024947ANAQUE, MICHAEL VASQUEZ DBU TRI                          0501
B0601400360000012046370POLICARPIO, JOLLY DE LEON DBU JPOL                      11602
B0601400360000012046370TRADING                                                 21600
A0601400360083649312001KIM, KANG WOOK                                           0502
A0601400520000005001589HIRASE, MYRNA TANEDO                                     0501
A0601400520000009516758NEPOMUCENO, MARCO ARMANDO MARTI                          0501
A0101413280000005084971SO, CHERLYN ANN PENALOSA OR                             10501
A0101413280000005084971BUYSON, RILEY ANDRE P.                                  20500
A0101410850000011276630SANTIAGO, BERNARDO SY DBU BSYS                          10501
A0101410850000011276630TRANSPORT                                               20500
A0101410850000003101968MATANGUIHAN, EDWIN CUEVAS                                0501
A0101413310000004735757ENANO, MARIEL PINKY SERWELAS                             0510
A5001400170000008743802ANG, EDLIN DBU HBE ENTERPRISES                           0505
B0101412920000015107252ORADIA, MA ODESSA UTOD DBU TOP SYNERGY                  11601
B0101412920000015107252MARKETING SERVIC                                        21600
A0101400440000008234560SUBA, FLORITA LUCAS                                      0501
A0101400440000014296490NAVARETTE, JOWAJER CABRERA                               0501
A0101400440161039572069IMELDA A. ESTRADA                                        0501
B0101400440000003766956KS PRIME FINANCIAL CORP.                                 1605
A0101400440161525001105VIRGIE B. CRUZ                                           0501
B0101407270162016355001ONWARD COMMUNICATIONS & SERVICES                         1604
A0301400530000000066099CHAN, MICHAEL OR ERA                                     0502
B0301400530000001409392PHILFRUITS PREMIUM CORPORATION                           1606
A0301400660000013311272LIM, GINA CANEDO                                         0501
A0301400660000005691767VILLALBA, ERIKA MAITA VILLAGRAC                          0501
A0101412500214069342001UY, MARK HOMER SEE DBU JT VMU                           10502
A0101412500214069342001CONSTRUCTION                                            20500
A3101400160000014696496CETRA, EVELYN MAGSINO                                    0501
A3101400160000015103061GOMEZ, MA GIA ANA ABELARDO                               0501
A3101400450000011907561AVANZADO, GRACIA GUERRA                                  0502
B3101400450223022719001GENCARS SAN PABLO, INC.                                  1610
B3101400450223043892001ULTIMART COMMERCIAL AND DEVELOPMENT                      1601
B3101400450000005960574CARE LINE ENTERPRISES, INC.                              1601
A3101400450223352819001FARAON, RIZALINA OR                                     10502
A3101400450223352819001BELEN, RHODORA                                          20500
A3101400450223529066001MORENO, MICHELLE CALALO                                  0503
A3101400740000006735879BALBOA, REYNALDO DBU GREAT HEAD                         10504
A3101400740000006735879BUILDING SYSTEM                                         20500
A1001400190231358911001WILLKOM, RICHTER OR ERLINDA                             10501
A1001400190231358911001OR LILLIBELLE                                           20500
A1001400480000006270413MANUTA, ARSENIO BALABA                                   0501
A1301400760000009812302MANUEL, RAUL BARTOLOME                                   0502
A0101406620273217523001SANTOS, SONIA C.                                         0501
A0101411820277773020001JOSEPH OLIVER V. GAN                                     0501
A0101412470000005380285QUIRINO, ALELI ANGELA GUZMAN                             0501
A0101400570000006272102MAGDALEINE D. CHANG OR ROMAIN                           10501
A0101400570000006272102HOTTERBEEX                                              20500
A0101400570281047282001WORLDTECH ENGINEERING &                                 10504
A0101400570281047282001INDUSTRIAL SALES                                        20500
A0101400570281187271001SIA, STEPHEN TAN                                         0502
A0101400570000006271930ERAZO, CHRISTOPHER SEBRIO                                0503
A0501400200000011150380ALAMAY JR., MOISES PANGLAO DBU                          10502
A0501400200000011150380JMP TRADING                                             20500
A0501400200292669422001SALAGUBANG, LILIBETH ANONAS                              0501
A2601400270000001009050BATTAD, AURELIO DBU AUB CONSULT                         10501
A2601400270000001009050MGT&ENGINEERING SERVICES                                20500
A0801400160000000476368**********                                               0501
A3401400280000006791188PROCESO B AGUIRRE III DBU LAXMI                         10501
A3401400280000006791188AUTOMOTIVE SVCS & PARTS                                 20500
A3401400280318478374002PIONELO, LENIDIE DEVELOS                                 0501
A0101402510341433983009**********                                               0505
A0101402060351415441001YAP, ANDREW NICHOLAS ANG                                 0501
A0101409050000003533424CHRISTOPHER S. PAPA                                      0501
B0201401020000005109893PILIPINAS LOGISTICS & TECHNOLOGIES                      11605
B0201401020000005109893SOLUTIONS INC.                                          21600
B0101402930381041771001AII SYSTEMS, INC.                                        1601
A0101402930000000859770METT MOTIVATIONAL ENGLISH                               10502
A0101402930000000859770TRAINING                                                20500
A0101402930000000859792PULMONES, NOE BANAWA                                     0501
A0101402930381419788001ALMARITA JIMENEZ OR                                     10501
A0101402930381419788001MA. REGINA COELI                                        20500
B0101408370000007031409CTMED CENTRAL CHAIN CORPORATION                          1601
A0101408370382372061001DR. ELSA S. DIONISIO                                     0501
A0101408370382399121001IB THOMSEN OR WALTER VILLANUEVA                         10502
A0101408370382399121001OR TITA VILLANUEVA                                      20500
A0101408370000000336150REYES, SELENA TRICIA SANTOS                              0501
A0101408370382431175001EDITA Q. SALUDARES M.D.                                  0501
A0101411660000005324243SANTIAGO, SHERWIN GARCIA OR                             10503
A0101411660000005324243ABELLA, CYNTHIA REYES                                   20500
B0101402770391009425001JELSON'S ENTERPRISE CORP.                                1603
A0101402770391355762071RUEL ALBINO E. VILLANUEVA                                0502
B0101405490392037215001CORNERSTONECONSTRUCTION CORPORATION                      1602
A0101405490000001092557KIKUCHI, RUBY JT                                         0502
A0101408400000001981644HINOSO, PATNUBAY RAMEL OR                               10501
A0101408400000001981644HINOSO, EDWIN BE                                        20500
B0101408400000008319911KING'S HOLLY, INC.                                       1602
A0101408400394434229001CASTILLO, HOSANNA JOY DOMINGO                            0501
A0101408400394478374075VIOLETA I MANUEL                                         0501
A0101409210000000043683ACOYMO, JOSE MARIA GAMIR                                 0502
A0101409210000014368619INFANTE, JENNELYN MENDOZA                                0502
A2401400180000003949151ONG, JANNETTE KO                                         0502
A2401400180000007031676CARINO JR., DOMINGO CHAVEZ DBU                          10501
A2401400180000007031676SINGKO HERMANAS FISH MILL                               20500
A0901400220432478374001LEONARD GO LOZADA                                        0501
A0101403030000005944783*********                                                0501
A0101403030441378112003TY, CHRISTINE NG                                         0501
A0101412890000014437157REYES, MARIA CRISTINA TAMAYO                             0501
A0101412890000007095629CUENTO, C DBU CENTERLINE                                10501
A0101412890000007095629ARCHITECTURE                                            20500
A0101412890000009833849UBINCUBE ENTERPRISES                                     0501
A0101403320000015106420MARY JOY L. ALOG-SIBUG                                   0501
A0101406330000006943468FADRILAN, CHRISTINE HAZEL ACOST                          0501
A1901400320000013129976BAYLOSIS, MILANI BERBERABE                               0505
A1901400160000013912493MARIA SAMANTHA YSABEL A. CHAN                            0501
B1901400160000000007467FIRST UNITED 23, INC.                                    1610
A1901400160000008297769CLEOFE, LOURDES PEREZ                                    0502
A1401400110000009447765CAGUITE, JUNE MERANO                                     0501
A1401400110000003025214BLUE HIGH POINT TRADING                                  0510
A1401400110000007186612DY, EDNA AYCARDO                                         0502
A1601400170000009954396YAP, RHODA AYDALLA                                       0501
B1601400170000009954534TEKTONE GLOBAL TECHNOLOGIES FOUNDATION                  11605
B1601400170000009954534INC.                                                    21600
A0101403580000012911990URI, ESTELA PAPERA                                       0502
A0101411400000003311144KIM, JEONGHEE                                            0510
B0101411400000006560983PMG INTEGRATED COMMUNICATIONS                           11605
B0101411400000006560983PHILIPPINES, INC                                        21600
A0101411790000011046669RODRIGUEZ, JOEL CORPORAL                                 0501
A0101403450521361573001**********                                               0502
A0101403450521562000001***********                                              0501
B0101407720602029713001MMC - SECTION OF NEUROLOGY                               1602
A0101407720602313458002QUIBAEL, ARMI DE LAS ALAS                                0501
A0101404260000000156789NICOLAS, EVELYN C.                                       0503
A0101404260611478374075VIVENCIA HATOL                                           0501
A0101404260611478374076NEREZA P RULL                                            0501
A0101404260611631387001LINCUNA, LOJIEROSE AVILA                                 0501
A0101404260000006374514GARDE, JOEL BABLES                                       0501
A0101407690000012226856YU, JERRICK LAYSON                                       0501
A0101407690652520766012CLARITA BUENAVENTE - DEALERS OF                         10502
A0101407690652520766012SHOECAT INC.                                            20500
A0101407690652525001079AILYN C DIZON - DEALERS OF                              10501
A0101407690652525001079SHOECAT INC.                                            20500
A0101411530000002260231MOYA, MARIE DELOS SANTOS                                 0501
A0101413440000000570289CACAO, MARILEEN ATIENZA                                  0501
A0101413440000000702441ANTONIO, GINA ASIS                                       0501
A0101413440000007953015**********                                               0502
A0101413570000002906727**********                                               0502
A0101414120000000398950PENGSON, LORNA GUTIERREZ                                 0501
A0101414120000001142863*****                                                    0501
A0101414120000002879743DE GUZMAN, JENNY MERLIE APOLINA                          0502
A0101414120000011765081CRUZ, EDWARD RICH NIKKO GUALTER                          0501
B0101414120000003584281JD & P FOOD TRADING CORPORATION                          1602
A0101414120000012536242TZ-E TRADING                                             0503
B0101414120000007655436WELLFUND LOANS AND CREDIT CORP.                          1601
A0101414120000001427601ISABEL MONTERO OR CARLOSA                               10501
A0101414120000001427601TUGADO                                                  20500
A1301400210000007669289GONZALES, MARK OLIVER SANTIAGO                           0503
A1301400500000013604752VASALLO, PILAR CHRISTINA                                10501
A1301400500000013604752ANTONIO                                                 20500
A1301400500000012913332MY EVERLASTING GRACE ENTERPRISE                          0501
A1301400500684594780002CASTRO, RAYMUNDO OR                                     10502
A1301400500684594780002CASTRO, ROSEMARIE                                       20500
A1701400230000005694153ROA, MARK BRIAN SIMON                                    0501
A1701400230000004469643SALAZAR, MARIBETH DBU  NORTH                            10505
A1701400230000004469643TECH BUILDERS & CONSTRUCT                               20500
A0101408240711395808001HERMENEGILDO P. MANZANO JR. OR                          10502
A0101408240711395808001NORMA Y. MANZANO                                        20500
B2801400230000012211593FREEDOM ONE TELECOM TRADING INC.                         1602
B2801400230000009021812A CHILD'S TRUST IS OURS TO NURTURE                      11601
B2801400230000009021812(ACTION), INC.                                          21600
A4101400390000000745313NOEL JOVEN M. OBILLO                                     0502
B4101400390000006103559LEAD WITH INTEGRITY AND GOOD GOVERNANCE                 11610
B4101400390000006103559IN HELPING COMMU                                        21600
A4101400420000014279968BRONIO, MA. ASILA VELOS                                  0502
A4101400420000004847883PAKIDING, GRACELYN A.                                    0501
A4101400420814693143001CRUZ, ALLAN ANG                                          0501
A4101400550815478374008LORELYN C. PARCIA                                        0502
A4101400550000007583864RIVERA, ROSALINDA LOVERIA                                0503
A0101412340000007305757EVELYN D. ALVAREZ                                        0501
A0101412340000010660038MARIA NELIA M. LUMAGUI                                   0502
B0101412340000005964065CM2 CONSTRUX, INC.                                       1603
A0101404840000006364907FERNANDO, MARINO                                         0501
B0101404840000000090242SOUTHHILL MEDICAL SPECIALISTS, INC.                      1650
A0601400230000006243067GOMEZ, MARY-GRACE ANGELICA SANT                          0501
