B0101408370382821100608**********                                               2006
B0101408370382821100608**********                                               2005
B0601400360083821100608**********                                               2006
A0101402770000001841130A.B. MANALANG ENGINEERING SVCS                          10502
A0101402770000001841130AND INDUSTRIAL SUPPLY                                   20500
B0101402770391009425001JELSON'S ENTERPRISE CORP.                                1603
A1101400120000016418143LATORRE, ARCADIO TAN DBU WEBTOU                         10502
A1101400120000016418143R COMPUTERS                                             20500
A0101411660000005324243SANTIAGO, SHERWIN GARCIA OR                             10503
A0101411660000005324243ABELLA, CYNTHIA                                         20500
A0101411660000015799469ANDRES, JEFFREY SALVADOR                                 0501
A0101411660000004597220BONDOC, NARCISA NAVARRO or                              10501
A0101411660000004597220DELA CRUZ, MYREN                                        20500
B0101408400394046727001HYOPAN LAND PHILIPPINES, INC.                            1602
B0101407720602463868002MAKATI HEALTH SPECIALIST CONNECTION, INC                 1602
A0101400860000017478794************                                             0510
A0101400860000018581770***********                                              0502
A0101400860011413667001**********                                               0503
A0101401250021298552002CLARITA L. ARCEGA                                        0502
A0101401250021401825001CHUA, REYNALDO MAGNO OR                                 10506
A0101401250021401825001CHUA, EMMA GESLA                                        20500
A0101400150000017248574ABALOS, KENNETH LLOYD JAMIAS                             0501
B0101400150000000633469RNB TRAVEL AND TOURS CORPORATION                         1603
A0101400150061422618001JORDAN M. PIZARRAS OR                                   10503
A0101400150061422618001MARIVIC M. PIZARRAS                                     20500
B0101400600071603898001JUSTINA SEWING CARE, INC.                                1602
A0601400100000012781385TUALLA, CECILIO ISIDRO ORANTES                           0502
A0601400100000019317343VICTORIANO, CRISTINE DE JESUS                            0501
B0601400100081019978001BACOLOD WORD OF LIFE MINISTRIES, INC.                    1602
B0601400100081029282001L5 & SONS FINANCING CORP.                                1605
A0601400100081382138001MANGUERRA JR., WILFREDO TORRES                           0510
A0601400100081382138001MANGUERRA JR., WILFREDO TORRES                           0510
A0601400100081387358002DAVID, AR-JAY TINIO                                      0502
A0601400360083591896001AGARRADO, ARVIN GAUDIA                                   0501
A0601400520000018532391MA, JENNIFER TECSON DBU CHRISTO                          0502
A0101413730000003715837CO, CHRISTOPHER GUEVARRA                                 0502
A0101413730000005959722**********                                               0501
A0101413730000005959733**********                                               0501
A0101413730000017123329******                                                   0502
B0101414090000013005531CARGO WORTHY FREIGHT SERVICES INC.                       1603
A0101414090000012425091KRIZIA DOMINIQUE AQUINO DBU LE                          10501
A0101414090000012425091LIFESTYLE & CAFE                                        20500
A0101400730000015360693GAW, FRANCIS YAO                                         0501
A0101400730111478374151MELANIE T. SIGUE                                         0501
A0101401830000013856681BALUBAR, JANILEEN JOVELLANO                              0501
A0101412920000019306620CASTRO, MELINDA OCAN DBU PSALMS                         10501
A0101412920000019306620THERAPY CLINIC                                          20500
A0101400440000004901564DOVIE T. JERMIA                                          0502
A0101400440161459294001MARY ANN T. REGINALDO                                    0502
A0101400440161478374018MA. DELIA P. FERMANTE                                    0502
A0101407270000006862286VILLANUEVA, ALBERT FEDELINO DBU                          0502
A0101401090000000037841XERILLE MARJO V. CRISTOBAL                               0501
A0101401090000001618862REBURIANO, ROSSANO DEL CARMEN                           10501
A0101401090000001618862OR MA. AUXILIADORA                                      20500
A0101401090000000772247ALA, ELLEROSE MORCEN                                     0501
B0101401090171007896001CPA REVIEW SCHOOL OF THE                                11605
B0101401090171007896001PHILIPPINES, INC                                        21600
A0101401090171200386001DR. JULIE TAN LI-YU                                      0505
A0301400660000016080341DEL ROSARIO, SUZANNE ROCHELLE R                          0501
A0301400950000000566832HERNANDEZ, SHEILA MARIE QUIACHO                          0501
A0301400950000017011373ALLADIN, JOANNE PALMA GIL                                0501
A0101401380000018252683BETITA, MARICAR HABLA                                    0501
A3101400160000013868078RANCAP, FERDELITO P DBU EUGRACE                         10502
A3101400160000013868078ACCOUNTING SERVICES                                     20500
B3101400160221041792001ROYAL CABLEVISION CORPORATION                            1601
A3101400160221220163001AZUCENA R. BEREDO OR                                    10501
A3101400160221220163001CORNELIO REX R. BEREDO                                  20500
B1001400190231032404002EUROPORT LOGISTICS AND EQUIPMENT, Inc.                   1601
A1001400190231520766043RAMIREZ, CATHERINE BANDA                                 0501
A1901400290000013436323SANTIAGO, NESTOR TUAZON                                 10502
A1901400290000013436323OR SANTIAGO, MA ROSALINA                                20500
A1901400290261247767001ERLINDA P GARING                                         0501
A0101401670000002341691TULIAO, PATRICK HEBRON OR                               10501
A0101401670000002341691TULIAO, CHRISTINE JOAN                                  20500
A0101406460000008890428CRUZ, MIGUEL BENIPAYO                                    0502
A0101406460000018633019VILLANUEVA, MARICON SANCHEZ                              0501
B0101406460000000182370WEE COMMUNITY DEVELOPERS, INC.                           1605
B0101406460000000182483WEE COMMUNITY DEVELOPERS, INC.                           1605
B0101406460000000712849WEE COMMUNITY DEVELOPERS, INC.                           1603
A0101406460000001285558TAN, KEK HUI TEE OR TAN,                                10501
A0101406460000001285558JOCELYN POBLETE                                         20500
A0101406620000017765358DE GUZMAN, MA. CRISTINA                                 10501
A0101406620000017765358SALVADOR                                                20500
B0101406620273025607004DELL EQUIPMENT & CONSTRUCTION                           11602
B0101406620273025607004CORP.                                                   21600
B0101406620000011433013*********                                                1601
A0101406620273470847001JAINE O. AGNAS                                           0501
A0101411110000019320362MAPALO, BERNARD AMPER                                    0501
B0101411110276046529088BOOK MEDIA PRESS INC.                                    1612
B0101411110276046578001KNS CHUA INC.                                            1602
B0101400570281027866001MEDICAL EQUIPMENT HEALTH CARE GROUP                      1602
B0101400570000000031687PHILIPPINE DERMATOLOGICAL SOCIETY, INC.                  1603
A0101400570281360412001DR. LONABEL A. ENCARNACION                               0502
A0501400200000017208703DE MESA, JOSEFINA PASCUA OR                             10502
A0501400200000017208703DE MESA III, SERGIO V.                                  20500
A0501400200000000473869RAFANAN,CHIELA DBU RAFANAN'S                            10501
A0501400200000000473869TRADING OR RAFANAN JR.,L                                20500
A2601400270000014231340QUIATCHON, JOCELYN AGUSTIN DBU                          10501
A2601400270000014231340JOY'S PLACE & RESTAURANT                                20500
A1101400120000003197084BANEZ, TERESITA BALICANO                                 0502
B6601400120314040235001VILLEGAS APPLIANCE & HOME FURNISHING INC                 1603
A6601400120000003642653SULTAN, ALEX GRUTAS DBU ANDREA                          10503
A6601400120000003642653CONSTRUCTION                                            20500
B6601400120314617698002CATARMAN DOCTORS HOSPITAL, INC.                          1610
A2001400290000002319575BONIOR, MARIO CURATIVO                                   0502
B0101402350000000046028IGOLD COMMUNICATIONS INC.                                1603
A0101402350000005644635LOPEZ, IRENE REYES                                       0502
A0101402060351604435001BUIQUIL, EDDIE D. OR BUIQUIL,                           10502
A0101402060351604435001MARITES B.                                              20500
A0201400890000002270286RACAZA, GEMMA YAP                                        0505
B0201401020000010966813ARQUILLANO, JAIME CAPUTOL DBU BJA                       11601
B0201401020000010966813TRUCKING                                                21600
B0201401020000000042355CEBU RINGO TRUCKING INC.                                 1605
A0101402930381419788001ALMARITA JIMENEZ OR                                     10501
A0101402930381419788001MA. REGINA COELI                                        20500
A0101411660000005324323DUAVIT, MICHAEL JOHN ROY                                 0502
A0101402770000013464643MARYBEL GUMTANG OR JOEL GUMTANG                         10502
A0101402770000013464643DBU MAJ VEGETABLE                                       20500
B0101402770391032924001HARRIS MEMORIAL COLLEGE, INC                             1605
A0101405490000014913910CONTI, RENIE MAGADIA DBU                                10502
A0101405490000014913910RC-WOLTRJEA MARK                                        20500
A0101408400000007264511SALGADO, ARNEL LOZADA                                    0502
B0101408400000014004643BGC LIVING SPACES, INC.                                  1603
B0101408400000018449120STA. ROSA BIOSPHERE HOLDINGS INC                         1603
A0101412210000016641060GELITO, KATHERINE MIRANDA                                0502
B2401400180411056764004RD PAWNSHOP, INC. - GENSAN REGION                        1605
B2401400180411821100608**********                                               2010
A1201400150000016104191CANDELARIA, FARA KRISHNA ASKALA                          0501
A1201400150421039600001CIMAS VERDES CORPORATION                                 0506
B1201400150000007556132CASA INFINI BUILDERS AND REALTY CO. LTD.                 1605
A1201400150421371201001MEDALLA, OSCAR D. OR MEDALLA,                           10505
A1201400150421371201001KATHERINE                                               20500
A0901400220432294143001**********                                               0502
A0101403320000014839651LEGASPI, ERIKA ROSS I.                                   0501
A0501400170481033355001GOLDEN TIES AND FOOD                                    10501
A0501400170481033355001RESOURCES INC.                                          20500
B1901400160491030520001VETS IN THE CITY VETERINARY CLINIC                       1601
A1901400160491366144001CHARMAINE L. DE CASTRO OR                               10501
A1901400160491366144001KATHERINE L. DE CASTRO                                  20500
A1401400110492621336001MOISES, JESSIE LOSAURO                                   0502
B0101407430503039823001REB FREIGHT MOVERS                                       1602
A0101405940000016882287SANTOS, MARK BENMIR NAVARES                              0502
A0101405940000019336300VALDEZ, ROEL JOSEPH GALICIA                              0501
B0101408530516033397001SPRINGER INTERNATIONAL, INC.                             1610
A0101403610000007106414HART, JOHN PAUL AYLLON                                   0501
A2201400250000013858821VIVIAN V. MENESES                                        0501
B2201400250561028028002ASSOCIATION OF SUGAR PLANTERS OF CENTRAL                11610
B2201400250561028028002LUZON, INC.                                             21600
A0101404130601490093001CUEVAS, REYNALDO MAKILING                               10504
A0101404130601490093001OR CUEVAS, BERNA                                        20500
A0101407720000013900766FORONDA, JONNALYN REGINIO                                0502
A0101407720602326333001SATURNINO PEREZ JAVIER                                   0502
A0101407720602399405002THELMA E. RAMOS OR                                      10503
A0101407720602399405002CLAVER P. RAMOS                                         20500
A0101407720602402493001MICHAEL CORTEZ PADLAN                                    0503
A0101407720000000713171TOMAS, ANGELICA CECILIA VELASCO                          0501
A0101404260611337036001LUGTU, MERCEDITA RESURRECCION                            0501
A0101404260611478374121FLORDELIZA B. HUVALLA                                    0501
A0101413570000002906647EMMANUEL J. AGCAOILI OR                                 10501
A0101413570000002906647MILDRED O. AGCAO                                        20500
A0101413570000018892990BALANA, CHARMEN ANSING                                   0501
A0101413570656057648015JOSE PAULO E. BORJA                                      0501
B0101414120000001142818CAS PROPERTIES INC.                                      1602
A0101406590000014678421LIM, VINCE ANGELO ELA                                    0501
B1301400210000000023474RICH-WELL INTERBRAND CORPORATION                         1602
A1301400340000002283781RODELIO D. RUBIO OR                                     10503
A1301400340000002283781ALONA D. ALIPIO                                         20500
A1301400500000016802892DR. KYLESHEEN KAY M. GONZALEZ                            0503
A1301400500000011254594RAMOS, MA. TERESA FLORES                                 0501
A0101408240000006600277ZAMORA, POCH EDWARD IMPERIAL OR                         10502
A0101408240000006600277ZAMORA, PAMELA ANN GO                                   20500
B0101408240711036897001EVER THEATRICAL, INC.                                    1601
A0101408240711226051002CHAN, ALFREDO OR CHAN, CEFERINA                          0501
A2801400100000002253590REYES, MA. LERMA MARIANO                                 0501
A4101400260000019332084DE VERA, RICHARD GOMEZ                                   0501
A4101400260000019329936SANCHEZ, SHEILA ANNE ARSENIO                             0501
A4101400260000019330048SOBERANO, JUDY DEOCAMPO                                  0501
B4101400390813016813001GENERAL CHEMICALS & RESINS                              11601
B4101400390813016813001CONSORTIUM                                              21600
B4101400390813026108001IIEE NORTHERN CAVITE CHAPTER                             1601
A4101400420000008280626JUMAWAN, RICHELE EVANGELIO                               0501
A4101400420814520766138SAN PEDRO, ANA LIZA                                      0502
A0101412340000000224079ROSANA, CZARINA KAYE TIQUI                               0501
A0101412340000003340616JUSYL U. ALIPASA                                         0501
B0101404840851013980002VIC IMPERIAL APPLIANCE CORP.                             1601
B0101405070861031615001MD EXPRESS MANILA, INC.                                  1610
A0101405070861196343001EDGARDO DAVID OR ANGELINA DAVID                         10505
A0101405070861196343001OR MARY ELAINE DAVID                                    20500
A0101413860000007255970BATANGAN, HAZEL JOY CUCIO                                0502
B0601400230000013259188SAINT MARY KIDNEY CARE, INC.                             1602
