B0101400150000011138202ADMOVPH TECHNOLOGIES INC                                 1602
A0101412920000018326279NOVENO, PANCHO NERVEZA DBU PSAL                          0501
A0101412920000015383130OCAMPOS, DELVIN JOHNLUZ ARANAS                           0502
A0101412920000014086063RONAN, CINDY CASTANEDA                                   0502
A0101414120000000875652PABLITO OR RONALD JOHN OR                               10501
A0101414120000000875652PRINCESS JOY OR                                         20500
A3001400130000001261283LIM, EDGAR ALLAN DIAZ                                    0502
A3001400130000008264784SANCHEZ, AGNES M.                                        0502
A3001400130000008264813SALUDES, GUILLERMA L.                                    0502
A0101412920000016956813BONDOC, PROSPERITA BONDOC                                0502
A3001400130230094974001BRAVO, ROSEPT EBARLE OR BRAVO,                          10503
A3001400130230094974001ALEXA ROSE EBARL                                        20500
B2401400180411055578168NEW KAMAN MARKETING CORPORATION                          1610
A0101403320000018459999REAL & RARE ENTERPRISE                                   0501
B0101404260000004781200G1CAFE INC.                                              1605
A0101401250000013488292LALAGUNA JR., WELMER MILLANO                            10505
A0101401250000013488292DBU LALAGUNA CONSTRUCTION                               20500
A0101411370000005524421BATUIGAS, AURORA REBOQUIO                                0501
A0101400150000002413645MARTINEZ, RENANTE CABALLERO                              0501
B0101400150061010662001HINATUAN MINING CORP.                                    1610
A0101400150061372223001RAFAEL ANTONIO R. MONTILLA                               0501
A0101405810072318492001CHUA, MARVIN CUA                                         0501
B0601400100081032338001SAINT EMILIANA ACADEMY OF EXCELLENCE,                   11601
B0601400100081032338001INC.                                                    21600
A0601400360000007539708VICENCIO, JORGE AMADO DIZON                             10501
A0601400360000007539708OR PILAPIL III, ANTONINO                                20500
B0601400360000000978936THE MEDICAL CITY CLARK, INC.                             1620
A0101414090108067349001ORALDENT DENTAL CENTER                                   0502
A0101410850000003101877MONTEMAYOR, REYNALDO SAPLAN DBU                         10501
A0101410850000003101877RSM TRUCKING                                            20500
A0101406040000010081453CARANTO, MELISSA MORALA                                  0503
A7201400170000006487887CARBONEL, JEAN TAN                                       0501
A7201400170000009463932YBALANE, MESLIE CORTINA DBU                             10503
A7201400170000009463932WALLIE GEN. MDSE                                        20500
A0101412920000011166555ALCONCEL, MARICRIS OLIVEROS                              0501
B0101400440161007542001PACE REALTY INVESTMENT INCORPORATED                      1601
B0101400440161037218001RELIGIOUS MISSIONARY SISTERS OF LEAVEN O                11602
B0101400440161037218001THE IMMACULATE                                          21600
A0101400440000000821538MARITES T. JIMENEZ                                       0501
A0101400440000004901564DOVIE T. JERMIA                                          0502
A0101401090000000210391CRISTOBAL, SHARAMAIGNE VILLAROS                          0501
A0301400530193776408001AQUINO, MARICEL B.                                       0502
A0301400660000016080232CALUD, MARJORIE PAZ                                      0501
A0301400660194737283088ZHI VENUS INDUSTRIAL SUPPLY                              0502
B0301400790000002301342MONTEVERDE II, GEORGE MENDEZ DBU GV & HH                11601
B0301400790000002301342MARKETING                                               21600
A0301400950000005706981**********                                               0502
A0301400950000013129312CANETE, ALAIN BRAYHE REGALADO                            0503
A0301400950000018469168DESIGNER'S TOUCH FURNITURE                              10501
A0301400950000018469168SUPPLIES                                                20500
A0101410720000006128792G.R.O.W. ENTERPRISE                                      0502
A0101412500000018495180RESURRECCION, ERIKA ANDREA                              10501
A0101412500000018495180LADERO                                                  20500
A0101412500000018504082MAMARARLO, SARAH JEAN MALIMBAN                          10501
A0101412500000018504082OR MAMARARLO, EMMANUEL                                  20500
A3101400160000018501509NOCUM, JULIUS ABESAMIS                                   0501
B3101400160221031027001ALLIED DOCTORS FOOD RESOURCES, INC.                      1605
A3101400160221662314001ROLLAN ERIC P. ESTUITA                                   0501
A3101400450000013739734PASUMBAL, JANNETH MEDALLA                                0501
A3101400450223529066001MORENO, MICHELLE CALALO                                  0503
A3101400870000003515313ABUYEN, CORAZON L. JT DBU                               10501
A3101400870000003515313SOVEREIGNTY MARKETING                                   20500
A1001400350000000922014PEARSON, PILARCITA ROA                                   0502
B1001400350000007920876PEARSON, PILARCITA ROA AND  HEQUILAN,                   11602
B1001400350000007920876ELVIE CORTEZ                                            21600
B1001400350233013980001VIC IMPERIAL APPLIANCE CORP.                             1603
A1301400470000013690201MARIA TERESA C. CARIAGA                                  0501
A1901400290000007876906MARASIGAN, MARIETA BALAGAT                               0501
A1901400290261248453001LEONARDO RETANA GARING OR BUENA                         10503
A1901400290261248453001FLORES GARING                                           20500
A1901400290000018027124VELASCO, IRENE OLAN                                      0501
A0101406460272287912001********                                                 0501
A0101408660000013602072BUENAFE, MILAGROS DE PERALTA                             0501
A0101408660274521676001MABASA, CARISSA MOONYEEN                                10501
A0101408660274521676001SINGSON JT                                              20500
A0101411110000012643839ULEP, LARRY AL AQUINO                                    0502
B0101411110276046445088INFINITY DYNAMIC SYSTEMS AND SOLUTIONS                  11602
B0101411110276046445088INC.                                                    21600
A0101412470000000853834CHUNG, EUN JOO                                           0502
A0101412470000014657715CHANTE, CHARLOTTE DY                                     0501
A0101412470000005380376CHAN, JOHN HOWARD TING                                   0505
A0101400570000013360264AQUINO, CHRISTINE ANNE TONGOL                            0501
A0101400570000011680921YAP, ANTONIO NEMESIO BROCE                               0505
A0101411240000018505347MANEJA, ADELUISA ALAYAN                                  0501
B0501400200000006444799CRJ 620 QUICK LOANS CORP.                                1605
A0801400160311380582001CHUA, ANDREW UY OR                                      10501
A0801400160311380582001CHUA, PAMELA G.                                         20500
B1101400120313039184001SARC FOODS CORPORATION                                   1605
B1101400120000006187113SARC FOODS CORPORATION                                   1602
B1101400120000006186930COASTALVIEW FOODS CORPORATION                            1602
A6601400120000009613787MIJARES, LEOPOLDO HERMOSILLA                             0502
B6601400120314612844001MARTINEZ, ANGELINE OR MANUEL OR ORTIZ,                  11605
B6601400120314612844001LEOVIGILDO                                              21600
A0101402350321478374058DELA CRUZ, MERLITA GABON                                 0501
B0101402350000000046062OLIVAREZ GENERAL HOSPITAL INC.                           1601
A0101405650000000772969DAVADILLA, KENNETH LOUIS CARTON                          0502
A0101409050000018006503DE VERA, RONALD EMMANUEL,                                0501
A0201400760000005711320TECSON, GELINE CABANGANAN                                0502
A0201400890000012951321WONG, RAPHAEL ABELLANA DBU CHEF                          0502
B0101402930381758467001PATRICIA GENEVIEVE V. TABIA AND CARLO                   11601
B0101402930381758467001GABRIEL O. TABIA                                        21600
A0101415350000007877852PELAYO, JESCTONI TORRES                                  0502
A0101415350000007878122LAGARTO, JOSEPHINE CUA                                   0501
A0101402770391013439001JIREH'S CAR PAINT SHOP                                   0502
A0101402770391319133001ALMIN, WENDA RESUELLO                                    0502
B01014054903920389180021STSERVE LOGISTICS, INC.                                 1601
B0101405490392598457001FORBES DENTAL PROSTHETICS INC.                           1601
A0101409180000018405568EDUARDO MORAN                                            0502
A0101409210000013276552SORIANO, NICANOR LAZARO                                  0501
A0301400820000000316670TIONG, ARISTON D.                                       10502
A0301400820000000316670OR TIONG, FLORITA C.                                    20500
A0301400820000010907270TILAP, MARK A.                                           0502
A2401400180000015944571TRAZO, ALLAN REY LEDESMA                                 0502
A2401400180411372265001LOPEZ, ALLAN GO                                          0501
A2401400180411478374020MORI, LYDIA                                              0502
A1201400150000012099935AOYONG, DOMINIC CHENG OR AOYONG                         10506
A1201400150000012099935NE LEUNG                                                20500
A1201400150000002325060ESTRELLA, MARK NINO ARMILLOS                             0503
A5101400100000015857364APOSTOL, JENNY RAMAYRAT                                  0501
A5101400100000015856827HERA, ROGER MARK CUEVAS DBU TAG                          0501
A5101400100000018447595LCG ENTERPRISES                                          0501
B5101400100000010370862CENTRO SUPERSALES INC.                                   1601
A0101403030441239072002**********                                               0502
A0101412890000000125419MADAMBA, JOEL VALENTINE F                                0502
A0101412890000011813033LIM, ESTELA ALEGRE                                       0501
A0101412890000016227811TATING, LINDSAY MYR OLIDAN                               0501
A0101406330000015172142MIRABITE, DESIREE TUBIERA                                0501
A0101406330000015172153ZALDIVAR, JOSEPHINE ROBAS                                0501
A0501400170000002357491BANLAOI, ALFREDO ESPINO                                  0501
A1401400110000014855504MANINGDING, MADELAINE MECIJA                             0502
A0101403580511404778001GENALYN B. MARBEBE                                       0502
A0101405940000000061583CASAS, JOHN VICTOR ABEJURO OR                           10501
A0101405940000000061583CASAS, CECILIA T                                        20500
A0101405940000016228472FAJARDO, ROSSANA BENCALO                                 0502
A0101405940000012443480SANTOS, KATHERINE GABITO                                 0501
A0101405940512522504001YU, JONATHAN MARC CHAM OR                               10502
A0101405940512522504001YU, HENRY LEE                                           20500
A0101412050000014678067CABANTAC, MARY JANE ABINA                                0502
A0101412050000014869802BORRAS, SUNSHINE                                         0501
B0101403450521011770001**********                                               1601
A0101403450521321842001**********                                               0501
A2201400250000017326240GARCIA, RAUL TONGIO DBU                                 10501
A22014002500000173262401127 ENTERPRISES                                        20500
A0101410690000000001758IGNACIO, JONATHAN DBU JCJ                               10501
A0101410690000000001758MANAGEMENT SERVI                                        20500
B0101410690000001284395ALDANA, MA. ELENA M. DBU PANSOL TRADING                  1604
A0101404130000006275909DEL ROSARIO, GIZELLE ROSE PADUA                          0502
A0101404130000018205933REYES, MOISES MARLON PALIMA                              0501
B0101404130601015346002GLOBAL GAS & OIL CARRIERS, INC.                          1602
B0101407720602779410001DEOKMA EIGHT TRADING INC.                                1601
B0101407720602779427001ROSYDASE MARKETING INC.                                  1601
B0101412180000001293038WESTMONT INDUSTRIAL SALES INC.                           1602
B0101412180000003275290INTERNATIONAL EXPERTS FOR TECHNICAL                     11605
B0101412180000003275290SUPPORT SERVICES                                        21600
A0101412180000000037932*******                                                  0502
A0101413440000000702441ANTONIO, GINA ASIS                                       0501
A0101413440655054477001LAND FIRST REALTY                                        0502
A0101413570000013876003JJ-KING MARKETING                                        0502
A0101413990000013171072DELA CRUZ, JANLEREY NALDA                                0501
A0101414120000011288998PASAY, NIGEL BYRON PAZ                                   0502
A1301400210000002285167VILLAMOR P CRUZ OR                                      10505
A1301400210000002285167ANGELA DC CRUZ                                          20500
A1301400340000000100352DE ERE, MARY ANN BULARAN                                 0502
B1301400500000018374731INFRA ERECTOR AND CONSTRUCTION, INC                      1601
A1701400230000004469650CANTORNA, GENEVIEVE ALBANO                               0501
A2801400230000014971998LAGARDE, LUDELYN DE GUZMAN                               0501
A2801400230000012211468MENDOZA, EDITHA DE GUZMAN DBU E                          0501
B2801400230713045988001NGE TRADING                                              1602
B4101400390000008744969JOSELITO GALAN OR ALIDA GALAN DBU J.S.                  11606
B4101400390000008744969GALAN BUILDERS                                          21600
B4101400390000003346198SUPERSTAR PACKAGING CORPORATION                          1601
A4101400420000017688101ASPRIL, LEYNOR SUELA DBU OLWAYS                         10501
A4101400420000017688101TRAVEL AND TOURS                                        20500
A4101400550815711802001PAHAYAHAY, MA. ROSANNA CISNEROS                          0501
A4101400550815721603001JOHN JOSEPH Q. MACABINGUIL                               0501
A0101412340000003341415MANSUBRE, IRENE BULOSAN                                  0501
A0101412340000003343611DELA CRUZ, GLENNDA ODONO                                 0501
A0101412340000018503498ESPIRITU, ABEGAIEL SILVESTRE OR                         10501
A0101412340000018503498DE GUZMAN, LAWRENCE S.                                  20500
A0101412340850496699001LIM, ANTHONY HO                                          0501
A0101406750000017168522ADLAON, EFRINIA BAUTISTA                                 0502
B0101406750000005608573ALLHOME CORP.                                            1601
B0101406750852709702001DAFARM CORPORATION                                       1603
A0101405070000003439741JHON REY PADURA ALARO                                    0501
A0601400230000017015571MANARANG, ELEANOR CRUZ                                   0501
