A4101400550000000005938EVANGELISTA, CHARISMA TOLENTINO                          0502
A0101402350000000019138VALENZUELA, MARIJOY CRUZ                                 0501
A0301400820000000024951FAULVE, JUDYNAH                                          0501
A1001400190000000124701JUMARITO, LYNN S.                                        0501
A1001400190000000124730GORME, MARIANITA L.                                      0501
A0901400220000000425045LOZADA, ELIZABETH GO                                     0501
A0101402060000000445436J. ANTONIO FORWARDING SERVICES                           0501
A1001400480000000474993ESCOBIDO, JOSE LABADAN                                   0501
A0101404840000000683610HAN, CYNTHIA MARAVILLA                                   0501
A0101400150000000807881REYES, NOEL SERRANO                                      0503
A0101414120000000875463FERDINAND OR ANNE MARIE ENECO                            0502
A1601400170000001068684JOANNE MARIE L. BUBAN                                    0501
A0101405940000001209972CRUZ, SHIELA CATAINA                                     0502
A3001400130000001271772xxxxxxxxxx                                               0503
A0101404840000001312725GUERRERO, EDELMARIE BOBIS                                0501
A0101402350000001474415DANAO, RUFINA NUEZ                                       0501
A4101400390000001732805FLORITA DE JESUS                                         0503
A4101400390000001732861PASCUA, JONALYN                                          0501
A0101414120000001751388LVQ MERCHANDISING                                        0502
A4101400260000001783480COLICO, DBU JT 568 GLASS, ALUMI                          0501
A1701400230000001786901**                                                       0501
A0101413860000001886946FERNANDEZ, DOLORES GOZON                                 0505
A0201400760000002047241TE, SHELAMAR LOUREN BAUTISTA                             0501
A0101411370000002269394CAPALOS, MELISSA TADURAN                                 0502
A0101402350000002310601YAP, VIVIANA CABUG                                       0502
A1001400480000002650860VARQUEZ JR, FELICISIMO DACER                             0501
A0101408240000002821810VILA, THADEO HONTONARES                                  0501
A0101407430000003235134DINO FERNANDO S. NAVARRA                                 0501
A0101407430000003235145FERNANDO V. NAVARRA JR.                                  0501
A0101407430000003235156FEY B. ACOSTA                                            0501
A0101400860011387943002**********                                               0503
A0101400860011463630001**********                                               0505
A0101400860011473146002*********                                                0502
A0101400860011583993001**********                                               0505
A0101400860011665018003**********                                               0503
A0101400860011685244001BANDIOLA, SIDNEY MORALES                                 0501
A0101400860011743703001**********                                               0510
A0101401700041311242002**********                                               0510
A0101400150061228038001MANUEL C. CHAN                                           0501
A0101400150061381319001MYRNA DE JESUS UY                                        0501
A0101400150061392447001PENA, SHARON MELANIE SINGSON                             0502
A0101400730111478374179MARIA LUISA S. TRUJILLO                                  0501
A0101401090171462332001MELODIA B. GESLANI                                       0502
A0101407140213687102001**********                                               0502
A3101400160221220198002MINERVA B. ALAVA                                         0502
A3101400450223577252001REYES, PAUL RAMOS                                        0502
A3101400450223689767001CHAVEZ, DOLORES PAR                                      0501
A1001400190231509590001LAGUYAN, ENGRACIO SALONA                                 0502
A1001400190231520766110MAYOR, CARMELITA ANGCAY                                  0501
A0101400570281186822001MELCHOR C. BUENVIAJE, M.D.                               0504
A0801400160311494221001JUCABAN, LEO LAGOS                                       0501
A0101402350321478374013ROSALINA M. MARAVILLA                                    0501
A0101402350321573861001KIM, MYUNG KOO                                           0502
A0101402060351367584001JAVA, MARY ANN VILLEGAS                                  0501
A0101402060351553377001ALVAREZ, JACQUELINE BARRION                              0501
A0201400920375478374008OLELA, DONATILLA OMELGO                                  0501
A0201400920375503351001**********                                               0501
A0101408370382400033001DR. EVELYN VICTORIA E. RESIDE                            0502
A0101408370382431146001DR. ETHEL L. MENDOZA                                     0501
A0101402770391338470001EMELITA L. ALARCON                                       0501
A0101409180397280451001YAP, AILEEN ANN SY                                       0501
A5501400120410478374002EVELYN P. BOLIVAR                                        0501
A1201400150421478374035DALAN, LINDA G.                                          0505
A0901400220432095446001CARLA CHUA DONAYRE                                       0501
A0901400220432368117001**********                                               0502
A1901400160491247764001MARITES E RAMIREZ                                        0501
A0101407430503478374017RIC L. ABADIANO                                          0502
A0101403580511153109001ARTHUR P. ISRAEL                                         0503
A0101403580511420184003MARIA CAROLINA S. MACASAET                               0510
A0101403450521239867001**********                                               0503
A0101403450521240963001********                                                 0503
A0101403450521310248001**********                                               0501
A0101404000551401500001FEROLIN, HAZEL JOY PESCADOR                              0501
A0101407720602692869001NIELSEN, KAREN LUCERO                                    0501
A1301400340683776169001BARAQUIEL, JOCELYN LIM                                   0502
A1701400230693744218001LOPEZ, JOY NAVARRO                                       0502
A4101400260812362318006MAXIMO P. SARTE                                          0505
A4101400390813478374014ELIZABETH V. EVAL                                        0502
A0101404840851281071005MA. THERESA LAVINA                                       0501
A0101404840851329120001XXXXXXXXXXXXXX                                           0501
A0101404840851538596001ALADO, ROSLEEN ANN ALEGRE                                0502
A0101406750852022181001DATHAN ENTERPRISES                                       0505
A0101403580000000016053MARIA CARMINA S. MESIAS OR                              10506
A1001400480000000041545SADIE, GILDA DIAZ DBU                                   10504
A0301400530000000065898BARTOLOME, MICHAEL, SOLIDGROUND                         10501
A0101411660000000109271JOSE GLEN Y. DE LA ROSA OR                              10501
A0101405490000000355719CRISTOBAL, IMMANUEL C. OR                               10501
A1901400320000000679147DRJ TRADING AND GENERAL                                 10501
A0101412050000000697190RIVERA, TEODO DBU BLAZE EFX                             10501
A0101414120000001142852TERESITA M. PUYAT OR MARY ANN                           10505
A2201400250000001545433CATALINA INES B. TAJANLANGIT OR                         10510
A0101401090000001618651BERNARDINO, REYLAN OROS OR                              10501
A0301400530000002318430GUO, YUANSHEN OR HONG, YINGSHAN                         10501
A1001400190231040264001WESTBOUND PETRON                                        10502
A0101402350321179570001NEAL ORTEZA OR                                          10501
A0101402060351211788002ROMUALDEZ, FRANCISCO C. OR                              10501
A0101407430503348468001JOSEPHINE B. MATALOBOS OR                               10502
A4101400260812396084001JOSEFINO S. REBANCOS, M.D.                              10502
A4101400260812396084001JOSEFINO S. REBANCOS, M.D.                              10503
A4101400260812613746001LEONARDO V. USTARES JR. OR                              10501
A0101403580000000016053MARIA CRISTINA S. RIVERA                                20500
A1001400480000000041545RGIE TRADING                                            20500
A0301400530000000065898SECURITY AGENCY                                         20500
A0101411660000000109271ROEL S. CONCEPCI                                        20500
A0101405490000000355719CRISTINA C. OR LIBRADO                                  20500
A1901400320000000679147SERVICES                                                20500
A0101412050000000697190EVENTS PRODUCTIO                                        20500
A0101414120000001142852MAGNO                                                   20500
A2201400250000001545433RANDOLPH C. TAJANLANGIT                                 20500
A0101401090000001618651FERNANDEZ, MYRA GARCIA                                  20500
A0301400530000002318430OR GUO, SENMIAO OR GUO, Q                               20500
A1001400190231040264001SERVICE STATION                                         20500
A0101402350321179570001IMELDA OLIVAREZ                                         20500
A0101402060351211788002ROMUALDEZ, ANNA                                         20500
A0101407430503348468001DARWIN E. MATALO                                        20500
A4101400260812396084001LIGAYA S. REBANCOS, M.D.                                20500
A4101400260812396084001LIGAYA S. REBANCOS, M.D.                                20500
A4101400260812613746001ARMIDA C. USTARE                                        20500
B0101411240000000012073ADVANTAGE-VEGA BUSINESS SERVICES INC.                    1602
B0101402060000000022766SUMMA WATER RESOURCES INC.                               1603
B0101411660000000032208GOLDLOOP PROPERTIES, INCORPORATED                        1601
B0101407430000000035305SUREWELL EQUITIES, INC.                                  1602
B0101403320000000037567EESC CONSTRUCTION INC.                                   1601
B0101404840000000090275LIFTER SYSTEMS INC.                                      1603
B0101409050000000258571CITY MARQUE LIMITED                                      1601
B0101402060000000653758RPP SAVINGS AND LOANS ASSOCIATION                        1601
B4101400260000001199093SOLOMON MULTI-PURPOSE COOPERATIVE (                      1602
B0101400150061010688010SB CARDS CORPORATION                                     1610
B0101400150061040558001CORDILLERA EXPLORATION CO., INC                          1602
B0101401830141045610001INTERZONAL COURIER SERVICE                               1601
B0301400530193792821088LI, DENNIS JOSEPH T.                                     1601
B0101407140213035339001TRACKSTAR ENTERPRISES CORP.                              1605
B3101400450223365119003VICTOR HUGO ENERGY CORPORATION                           1601
B0801400160311000689001BANGKO BUENA, INC. (A RURAL BANK)                        1601
B08014001603110189040013 TOPS TRADING                                           1610
B0801400160311311114002*********                                                1601
B3401400280318028083002LEMACEL TRADING CORPORATION                              1610
B0101402350321013681001P.J. LHUILLIER, INC.                                     1610
B0101402350321031463001STATE ENTERPRISE                                         1606
B0101402640361036763001FOLE GANDROS FOOD SVCS., INC.                            1605
B0201400760374272956001YU, DESSUM LIM OR YU, EMMA LAU                           1601
B0101408790383046165001RAINSTAR LOGISTICS, INC.                                 1602
B0101402770391009461001CNRG INC.                                                1601
B0101412890470048862640J.C. RODRIGUEZ CONSTRUCTION CORPORATION                  1601
B1901400160491012827001PORT CITY CREDIT AND LOANS CORP.                         1605
B0101403580511005607002RAM FOOD PRODUCTS, INC.                                  1602
B0101405940512038350001ANGELITO A. BOLANOS CUSTOMS BROKERAGE                    1604
B0101403450521011643001**********                                               1606
B0101403450521011677001**********                                               1602
B0101407720602047777001MEGAJOY POWER SOLUTION INC.                              1602
B0101401830000000033569CARITAS SALVE CREDIT COOPERATIVE                        11602
B0101401830000000059972CARITAS SALVE CREDIT COOPERATIVE                        11603
B0101405490392423294001JOEL CONRAD OR IRENE OR CECILIO OR DAISY                11601
B0101401830000000033569(CALOOCAN)                                              21600
B0101401830000000059972(NOVA/ST. PETER)                                        21600
B0101405490392423294001OR ROSEMARIE                                            21600
B3101400740224821100608**********                                               2020
