B1401400110492821100608**********                                               2003
B0301400950196821100608**********                                               2004
A0101401090000015531843GOROSPE, RENE BALLESTEROS                                0501
B0101401090000016451871UPSMART STRATEGY CONSULTING INC.                         1601
A0101408400000001981666MANANSALA, MAPHIT NUDALO DBU J2                          0501
A0101410850000005316989NOBLEZA, SHERYL DOMONDON                                 0501
B0101411660000009219945ADEKAYA 1ST CORP.                                        1610
A0901400220432080362001**********                                               0501
B0101400860000013483939**********                                               1602
B0101400860011398964001***********                                              1601
A0101400860011407777001**********                                               0505
A0101400860011422394002**********                                               0505
A0101400860000000100863**********                                               0503
B0101400860011487274001**********                                               1601
A0101400860011656088001**********                                               0502
A0101400860011743392001**********                                               0501
A0101401250000008136521ONGSUECO, SYLVIA KIUNISALA                               0502
A0101401250000011296843PERRIN, CLAUDE MICHEL                                    0502
A0101401250001120000175DIMATULAC, FRANCISCA RAMOS                               0502
A0101401250001120001066DY, SEGUNDINA RANIT                                      0501
A0101401250920190000007DISOMIMBA, TANAUN MINANG                                 0502
B0101401250021019457001BOAZ AND JACHIN FOOD COMPANY                             1604
A0101401250021178978001BERTOL, LOLITA B. OR                                    10502
A0101401250021178978001BERTOL, LIEZL B.                                        20500
A0101411370000011680261RAMIREZ, LEONARD MARTINEZ                                0501
A0101400150000001422042RICO PAMFILO, RENA MORELOS                               0501
A0101400150000016507658TSUNEKUNI, TAKASHI .                                     0501
B0101400150061014878001ASIASEC EQUITIES, INC                                    1610
B0101400150061018843001E N L COURIER EXPRESS, INC.                              1602
A0101400150061720595198COLLAO, MA. ZNY MERILLES                                 0501
B0101405810072374800001**********                                               1602
A0601400100081022019001CLARK HOUSE OF WINE & GEN MDSE.                         10502
A0601400100081022019001BY: CSC                                                 20500
B0601400100081027134001FUJIX WORLD, INC.                                        1601
A0601400520000002085930GUEVARRA, MARIA TERESA VIRAY                             0501
A0601400520000003187313PAROLI, VIRGILIA SOLIMAN OR                             10502
A0601400520000003187313PAROLI, ANTONIO                                         20500
A0101413280092062132001REIKEN AUTOMOTIVE SUPPLY                                 0501
A0101413730000005959751************                                             0505
A0101414090000014405084BAQUIRAN, MARK JOSEPH LAGUNDI                            0501
A0101410850000003503493OCAMPO, ERWIN ARANEZ DBU DIANNE                         10502
A0101410850000003503493ELIZABETH ENTERPRISE                                    20500
B0101410850000007294342JCEBEE AGRO INDUSTRIAL CORPORATION                       1610
A0101410560000005836319CRISTINA L. LUALHATI                                     0501
A0101401960000004419830**********                                               0501
A0101401960121238672001**********                                               0502
A0101413310000001073574VILLEGAS, LORNA LOTERENA                                 0501
A0101401830141396070001MILAGROS P. FALCASANTOS                                  0501
A7201400170000013006927PANONG, FELIX SUNDER TAN                                 0502
B0101400440000003766923RIVERMOUNT HOTEL & RESORT INC.                           1610
B0101407270000016008012CAMPAIGN ACTIVATION LINKS INC.                           1602
A0101407270162203614002ROBERTO LEYBA                                            0501
A0101407270162587936002WILFRIDO G. TIRONA                                       0501
A0101401090000000772361CRUZADA, KATHLEEN NGITNGIT                               0501
A0101401090000009572001CORDEL F. TRINCHERA                                      0502
A0101401090171310764001PURISIMA OR CESAR CASTILLO                               0502
A0101401090171417083001ABIGAIL T. PAGALILAUAN                                   0501
A0101401090171448116002SYLVIA BERNARTE-ALS OR                                  10501
A0101401090171448116002ANDREA MARIE BERNALES                                   20500
A0301400530000005300229DE GUZMAN, HUBERT HONORATO LAYE                          0502
B0301400530000007345533VENEERING MASTER WOODPHIL CORP.                          1605
A0301400530193617407001DAHILOG, FELY L. OR                                     10501
A0301400530193617407001DAHILOG, MA. EDI                                        20500
B0301400660000006862640EMARCOS BUILDERS AND SUPPLY                              1602
B0301400950000012244789WESTGATE AGRI-VENTURES ENTERPRISES,INC.                  1601
B0301400950000000566945BIG Z QUALITY FOODS CORPORATION                          1610
B0101401380201045990001MORE FUN SOUVENIR CO.                                    1602
A0101401380201183432002ABASTILLAS, NORMA B.                                     0501
A0101413020000006295372*********                                                0502
A0101412500000014744740****                                                     0501
A0101412500000016510973ABADILLA-MOLDEZ, EMILE-JOYCE                            10502
A0101412500000016510973VALENZUELA                                              20500
A0101413600000003851132SHYELA MARIE BADLON                                      0502
B0101413600000011614565INDOOR AIR QUALITY PHILIPPINES INC.                      1605
A3101400160000015975430GALIAS, ANABELLE FRANCISCO                               0501
A3101400450000005355540SILVA, MILO GENIL OR                                    10501
A3101400450000005355540SILVA, EDNA TICZON                                      20500
A3101400450223466114002NATIVIDAD, GINA DUNGO                                    0503
B3101400740224068263001R12 EMS PHILS INC                                        1601
A3101400740224710022001DAVID, MERRY GRACE CORDERO                               0503
A3101400870225363693001SORIANO, FILBERT ARCIA                                   0501
A3001400130000014114299ALQUIZAR, MYLENE B DBU MGJ PAIN                         10502
A3001400130000014114299T CENTER                                                20500
A3001400130230478374004BALABA, JANETH BORJA                                     0501
A3001400130000008915971JUBAC, CHARLES TATAD                                     0501
A1001400350000000245361PAJO, APRIL TABIAN                                       0501
A1001400480000001054711VILIRAN, PRINCESS SYBIL BADAJOS                          0502
B1001400480000003357817LINAAC JR., CECILIO GRANADA DBU LINAAC                  11602
B1001400480000003357817TRUCKING SERVICE                                        21600
A1301400760000002346005LUISA J. DIMAANO OR                                     10503
A1301400760000002346005DENER G. DIMAANO                                        20500
A1301400760000011058409WENILDA CARILLO OGURAO                                   0502
A1301400760000001295438WALTER S. NAVARRO OR                                    10501
A1301400760000001295438JANCEL J. NAVARRO                                       20500
A0101406620000004925902ESPINOSA, ELIZA MADRIAGA                                 0501
A0101406620000014257731BILLY B. GRAGASIN JR.                                    0501
A0101406620273417637001LAPUZ, ANNE SHARLYNE GOBOY                               0501
B0101408660274046032001INTERNATIONAL SPECIALTY WEAR, INC.                       1603
A0101408660274511572001VIRREY, WINDA LUBIAN                                     0501
A0101411110000009465643**************                                           0501
A0101411820000005380183JIMMY PUYING CANUTO                                      0502
A0101412470000010561703CHAN, KIRSTIN GELYNNE SIH                                0501
A0101412470000000520192ARCA, ESTHER DBU WASABE SPICE                           10501
A0101412470000000520192OF THE ORIENT                                           20500
A0501400200000002306092VICENTE, MARK CYRILL PAGUYO OR                          10501
A0501400200000002306092VICENTE, RUTH GAIL MIGUEL                               20500
A0501400200000005751635PERDIDO JR., LEONARDO DIWATA OR                         10501
A0501400200000005751635FLORES, JOAN MAY                                        20500
A0501400200000011150335RAMIREZ, RAFFY GABAT                                     0502
A2601400270000002312196GERALD D. GANNOD OR                                     10503
A2601400270000002312196MARY JANE N. GANNOD                                     20500
A1101400120000006186616GALO, TERESITA ECLE                                      0502
A6601400120000002249830LUCERO, MYRNA DELA TORRE OR                             10501
A6601400120000002249830LUCERO, ARPON U                                         20500
A6601400120000013857793AMANDE, BEATRIZ N DBU BETTY'S                           10501
A6601400120000013857793GENERAL MERCHAND                                        20500
B6601400120314042361001AGRICULTURAL DEVELOPMENT WORKERS & EMP.                 11604
B6601400120314042361001MULTI-PURPOSE                                           21600
B2001400290315040975001COURONNE ALLIANCE CORPORATION                            1603
A2001400290000000724890RAYMOND, PRISTINE MARTINEZ OR                           10501
A2001400290000000724890RAYMOND JR., JOH                                        20500
B3401400280000006790965JL PRIORITY LENDING CORPORATION                          1602
A2901400130000009071789ICAMINA, MARY KAREN VERONICA RO                          0501
A0101402350000011252832CALIWAN, RICHELLE LAURENTE                               0501
B0101402350321006431001OLIVAREZ REALTY CORP.                                    1608
A0201400760000005710981CUIZON, JOVEN PANSIT                                     0503
A0201400760000015753503SOLON, NOEMI CARPIO OR VILLON,                          10501
A0201400760000015753503DUANE PATRICK JOSEPH S                                  20500
A0201400920375478374015GAYO, LOURDES O.                                         0502
A0201400920000012764860VERIL JR., RODULFO LIBRIA                                0502
A0201400890376633154001JIMENEZ, PETER OR JIMENEZ,MARIA                         10503
A0201400890376633154001THEREZA OR ALAZA                                        20500
A0201400890376633154002JIMENEZ, PETER UTLANG OR                                10503
A0201400890376633154002JIMENEZ, MARIA T                                        20500
A0201400890376633154003JIMENEZ, PETER UTLANG OR                                10503
A0201400890376633154003JIMENEZ, MARIA T                                        20500
A0201400890376762070001JIMENEZ, MARIA THERESA ALMARIO                           0503
A0201401020000015170135IGOT, MARIE CRIS BALADJAY DBU J                          0501
A0101408370382431175001EDITA Q. SALUDARES M.D.                                  0501
A0101408790000004983257RONALDO C. ASTORGA                                       0501
A0101408790000014749945CAPUCHINO, JULIANA BIOJON                                0502
B0101408790383015892001CAPITOL STEEL CORPORATION                                1606
B0101402770391039149001ASIA PACIFIC ACCELERATED CHRISTIAN                      11602
B0101402770391039149001SCHOOL                                                  21600
A0101402770391355762049DENIEGA, WILLIAM DELA CRUZ                               0501
A0101409180000009769124MACARIO, RENE BOY SIBUL                                  0502
A0101409210000010895664FILART JR., NICANDRO ESCOTON                             0502
B5501400120000013825668BAUTISTA, LAURO LAO OR BAUTISTA,                        11601
B5501400120000013825668SONNY LIM                                               21600
A2401400180000010066605BALANA, ANDREW DY                                        0501
A2401400180000015944600CAMILLO, PETER PAUL COMALING                             0503
A2401400180000015944633DALUMPINES, DENBE GALORPOT OR                           10503
A2401400180000015944633PARUCHEL, ELSA PITA                                     20500
A2401400180000015944611GALORPOT, GODOFREDO DALOGDOG                             0503
A2401400180411051200002NOLEAL, MARLON M. DBU MRP AUTO                          10502
A2401400180411051200002CENTER OR NOLEAL, ROSIE D                               20500
A2401400180411344858001CHUA, MAGDALENA SALAZAR                                  0501
A2401400180411561483088CED, CHAM SYGO                                           0501
A2401400180411610828001PACHECO JR., SIMPLICIO OR                               10501
A2401400180411610828001PACHECO, MARIA THERESA                                  20500
A0901400220000001805107**********                                               0502
B0101403030441368293002**********                                               1602
A0101403320000014340579CASTOR, VEGA MARTINEZ                                    0501
A0101406330000000162445UY, JONATHAN DOUGLAS C. OR                              10502
A0101406330000000162445UY, KRISELINE JEAN C.                                   20500
B0101410140000000499032V-COPY DUPLICATOR SERVICES AND                           1602
A0501400170000012558464OGATIS, SHIRLEY ALKONGA                                  0504
B0501400170481018109002CSI WAREHOUSE CLUB INC.                                  1603
B0501400170481025398002COSTSAVER'S SUPERMARKET, INC.                            1601
A0501400170000002354510BERMUDEZ, ELSIE MALAPIRA OR                             10502
A0501400170000002354510LEIZA JR., JUANI                                        20500
A1401400110000016503132CASTRO, FRITZ GERALD DBU FGP                            10502
A1401400110000016503132CASTRO TRADING                                          20500
A1601400170000001837863RENE N. ESPLANA OR                                      10502
A1601400170000001837863GLORYDEL B. ALAP                                        20500
A0101407430000005359008MORALES, RHEA ELEFAN DBU REM                            10505
A0101407430000005359008CUSTOMS BROKER                                          20500
A0101403580511403658007ROBERTO G. MANABAT                                       0504
A0101405940000012443355SODUSTA, JENIEBERN VILLANUEVA                           10501
A0101405940000012443355OR SODUSTA, MARVIN PAUL J                               20500
A0101408530000016503456PEREZ, ANALYN PENA                                       0501
A0101408530000016503445VILLAMIL, APRIL FAITH GRAPA                              0501
A0101408530000016502413ESTANTE, REMNIE ROSE TALAMAN                             0501
A0101408530000016507932CORTEZ, JENINA RICA CHUA                                 0501
A0101408530000016502395TRINIDAD, ALEXANDER VILLALUNA                            0501
A0101403450521239777001**********                                               0501
A0101403450521348057001CO, LYDIA TENG                                           0502
A0101403450521622520001**********                                               0502
B0101404130000003105751GOLD NUGGETS HAULING AND TRUCKING CORP.                  1602
A0101407720000004665009TOLENTINO JR., ROMEO BARRETTO                            0502
B0101412180000001293038WESTMONT INDUSTRIAL SALES INC.                           1602
B0101412180000008320103VERTICAL SPACE INTERIORS, INC                            1610
A0101404260611469557001MANTOJAC, BREINSTON DE PADUA                             0501
B0101409890000003098184X-SAKTO COMMERCIAL CORP.                                 1601
A0101413440000015534962DATU, MARIANEL KYAMKO                                    0501
A0101413440000001472873BANARES, EMILIA CHUA                                     0501
A0101413440000006680722GALZOTE, NICK OR                                        10501
A0101413440000006680722GALZOTE, ROSELITA                                       20500
A0101413990000014678114FABON, JEHIEL LEGALISA                                   0502
B0101413990000000206168ASPEN COLDSTORAGE INC.                                   1605
A0101414120000013721789VICENTE, JANET PANIZARES                                 0502
B0101414120000003584281JD & P FOOD TRADING CORPORATION                          1602
B0101414120000000399140AL3 HOLDINGS CORPORATION                                 1605
A0101406590662211749002ALONZO, LETICIA TUAZON                                   0501
A1301400210000012445044ORTIZ, IMELDA TENORIO                                    0502
B13014002100000081738711960 METAL INDUSTRIES INC.                               1604
B1301400340000014501918MAULA, AIDA NUBLA OR MAULA,                             11601
B1301400340000014501918CONRADO, NUBLA                                          21600
A1301400340683093687001CANTOR, DANJELLO NAVARRO                                 0501
A1301400340683478374058RUBIO, YUME ADANTE                                       0501
A0101408240711377201001CARMELITA OR DANILO POSADAS                              0502
B2801400100000016457080SUBIC FILTRAVEL TRANSPORT CORP.                          1601
B2801400230000000372781GR888T C CORPORATION (CHOAS)                             1602
A4101400260000011418118DEPANO, ABEL GONZALES                                    0503
A4101400420814478374144JOCELYN TALANA                                           0501
A4101400550000000900394MONTENEGRO, MONINA CACAWA                                0501
A0101412340000014512784TIBUS, CHARLIE CANSINO                                   0502
A0101412340000007305644MAYLENE S. ABELLA                                        0502
B0101412340000005964076PRESTIGE PEOPLE SOLUTIONS INC.                           1604
A0101404840000012410961SUCUANO, ANNABELLE CACHO                                 0501
B0101404840000006365400GCF SOUTH METRO, INC.                                    1610
B0101404840000006365455TALK2ME INC.                                             1602
A0101404840000010224516NAVARRO, SHARON ROSE D.                                  0502
A0101404840000006364792BAGAYAN, LOVELY KRISTINE MAY                             0501
A0101404840851217637031JOSELITO DANCEL                                          0502
A0101404840851488872001DAVIDE, JOSEPH BRYAN OR                                 10501
A0101404840851488872001DAVIDE, FLORA MA                                        20500
A0101404840851520766071TERESITA SANTOS                                          0501
A0101404840851520766126ADELAIDA VILLANUEVA                                      0502
A0101404840851520766144PANA, ZENAIDA C.                                         0501
A0101404840851770300001MARLON R. PAPARES OR MA. MARGAR                         10502
A0101404840851770300001ITA N. PAPARES                                          20500
A0101406750000001491852DELA TORRE, RODA JANE ANTONIO                           10502
A0101406750000001491852OR DECENA, ARNUL                                        20500
