B0101407140213821100608**********                                               2005
B0101407140213821100608**********                                               2005
B0101407140213821100608**********                                               2005
A0101401670271189928002ALBERTO A. ABUNDO                                        0501
A0101403320000001646813LAURENTE, ARNOLD SILVERIO                                0501
A0601400520000003187313PAROLI, VIRGILIA SOLIMAN OR                             10501
A0601400520000003187313PAROLI, ANTONIO PASION                                  20500
A0101410850109075882001DIONISIO, SUSANA REYES                                   0501
B0301400820000000024911DIGOS DOCTORS' HOSPITAL, INC.                            1620
A2401400180000000428102SAGABAEN, AMALIA COSTALES                                0501
A2401400180000003949133SAYDIN, SAIDALI JAMLAHI                                  0501
A2401400180411344858001CHUA, MAGDALENA SALAZAR                                  0501
A2401400180411623776001SAUBAN, MARIA LUISA BANDIOLA                             0502
A0101412890000000125500EMYRITA R LLERENA                                        0501
B4101400420000000712036IMUS L.Y.S. TOOLS AND HARDWARE INC.                      1602
A4101400420814478374044BERATIO, MARITES M.                                      0501
B0101413860862821100608**********                                               2004
A0101400860011388049002**********                                               0502
A0101400860011421983001**********                                               0502
A0101400860011475361001**********                                               0505
A0101400150000001708221B.P. ASTUDILLO                                           0501
A0101400150000002671532LORENZO SIXTO T. LICHAUCO                                0501
A0101400150061370228045MA. WILMA J. MANGABAT                                    0501
B0101400150061494758001MACOLYTES INC.                                           1615
A0101405810000001021350*************                                            0501
B0101405810072034989001TRANSWELL ENGINEERING CO.                                1602
A0101405810072381557004MATEO, ANALYN CASTILLO                                   0502
A0101405810072544534001PORNELOS, RAUL REYES                                     0502
A0601400100081028046001TANDEM INTERIOR DESIGN STUDIO                            0505
B0601400100000000032782BARANGAY CUTCUT MULTIPURPOSE COOPER                      1601
A0601400100081621919001DAVID, CRISANDA MERCADO                                  0505
A0101410560110478374009SAUDILYN M. PENAS                                        0501
A0101400730111483566001MONZON, HOPE CUBITA                                      0503
A0101412630000000909826VILLEGAS, MARISA DUMAGAT                                 0501
B0101412630000000024073ASTRO ADVERTISING, INC.                                  1605
A0101413310000003169219ARCILLA, CARLO INFANTE                                   0503
A0101401830141206661001FERNANDA T. MARIANO                                      0502
A0101401830141666778001DIVINA P. MARQUEZ OR                                    10501
A0101401830141666778001JOSELITO P. MARQUEZ                                     20500
A0101400440000000060255LOUELLIN L. LIM                                          0501
A0101400440161520766060CRESENCIA CLEOFE                                         0501
A0101400440161525001112JELLIE ANN D. LOMAHAN                                    0501
A0101407270000006122732LIBAO, MARIA VICTORIA FAVORITO                           0501
B0101407270000000010139BATTERYWORLD, INC.                                       1603
A0101407270162036357002CIRCLES PLASTIC MANUFACTURING                            0501
A0101401090171201876001SANDRA NAVARRA OR                                       10510
A0101401090171201876001SALVADOR NAVARRA                                        20500
A0301400530000000065898BARTOLOME, MICHAEL DBU SOLID                            10502
A0301400530000000065898GROUND SECURITY                                         20500
B0301400530000005001603*******                                                  1602
A0301400530193504844111********                                                 0501
A0301400530193713405001CONDE, ARTHUR BARRIENTOS                                 0505
A0301400530193770598002MABALE, MARIANE S.                                       0502
B0301400790000000435783CAPCOR MOTORS CORPORATION                                1601
B0301400790195821100608**********                                               2002
A0101410720000000968009MADAMBA, MA IMELDA LUCILA SARAN                          0502
B0101410720000000030020BINGO PALACE CORPORATION                                 1605
A0101410720653329387001MACALINCAG, DALISAY DEL ROSARIO                          0501
A0101410720653478374001MILAGROS F. TAN                                          0501
A0101410720653693151001SAMBRANO, CARMELITA ASIS                                 0501
B0101410720210764716001J.C.T. EZ LOAN CORPORATION                               1602
A1001400190000002266504MARABE, RIKKA AND LA VINA,                              10502
A1001400190000002266504IRISH OR MARABE, LUIGI                                  20500
B0101401670271007375003MULTI-FOLD LINKS, INC.                                   1605
A0101401670271479173002RESURRECCION, MARIA VERONICA                            10505
A0101401670271479173002GARCIA                                                  20500
A0101401670271518087001* * * * * * *                                            0501
B0101401670271684108001UP ABOVE THE SKYE, INC.                                  1605
B0101411820000000024142HARDCOM COMPUTER SYSTEM CO.                              1601
A0101411240000000629221LACSAMANA, ORLANDO VERGARA OR                           10501
A0101411240000000629221LACSAMANA, EVELYN M.                                    20500
A0101411240000000629232CHAVEZ, ABEGAIL BITANCUR                                10501
A0101411240000000629232CHAVEZ, REZA JOANA L.                                   20500
A2601400270000002257161RACHEL A. GALOLO                                         0502
A2601400270302555372001**********                                               0505
A0801400160311040177001TRI ADVERTISING                                          0502
B0801400160311059958001GRAND CANYON MULTI HOLDINGS, INC.                        1601
B1101400120000000652391ONG, VIRGINIA PO OR ONG, WEE CHI PO OR                  11602
B1101400120000000652391ONG, WAN LIAN PO                                        21600
A1101400120313094914001CHU,VISITACION UY OR CHU, GARY                          10501
A1101400120313094914001OR HO,EVANGELINE                                        20500
A0101402350000000655356CANDIDATO, ADRIL VERANO DBU                             10501
A0101402350000000655356ADZ MANPOWER SERVICE                                    20500
A0101402350321296032001GONZALES, NEAL JOSE ORTIZ                                0503
B0101402060351041410001MSI-ECS PHILS., INC.                                     1610
A0101402060351217440016ELIZABETH STEPHANIE R. CARLOS                            0503
A0101402060351414987003NOBLE, FELICISIMA CASANOVA                               0502
A0101409050000000999619TUMAGAY, ELAINE SUMULONG                                 0501
A0101409050000000601385NOVILLOS, REYNALDO DISU                                  0501
A0101408370382407309003JOHANN MICHAEL G REYES DBU                              10501
A0101408370382407309003JMGREYES EYE CLINIC                                     20500
A0101402770391529757034FRANCO, FRANCISCO                                        0501
A0101405490000001092524MA ANASTACIA S. DELA MERCED OR                          10502
A0101405490000001092524RAYMOND ANTHONY                                         20500
B0101405490392039459001MEGANESS PHARMA MARKETING                                1601
A0101408400394386712001FERANIL, EDNA DECENA                                     0501
A0101408400000001855450EVANGELINE I. ALIGATO                                    0506
A0101408400394712542001SERRANO JR., ERNESTO AGLER                               0501
A0301400820000000024893ALIVO, JOENALD C.                                        0501
B2401400180411033588088FIESTA APPLIANCECENTER, INC.                             1605
A2401400180411304827001JONATHAN ERWIN VILLASIS OR                              10501
A2401400180411304827001DORIZZA VILLASIS                                        20500
A0101403030441239066001**********                                               0501
B0101403320000001647183TRIX-ZION VENTURES CORPORATION                           1602
A0101410140475046983001OCAMPO, DBU MAAY POOL SUP &                             10506
A0101410140475046983001EQPT CTR                                                20500
A0101410140475046984001OCAMPO, DBU INDOOR & OUTDOOR                            10506
A0101410140475046984001LIVING CONST.                                           20500
A0101410140000000499407EDORIA, MLE VALVE ENTERPRISE                             0503
A0101410140000000254420DANCEL, LORNA BUENAVENTURA                               0502
B1401400110000004461949DY, E DBU ENJ-F MEGA STORE                               1603
A1601400170000000497592MARLYN A. RELINGADO                                      0501
B0701400260000001804677DELLORO JR., WILLIAM PASTOR DBU WCPP                    11602
B0701400260000001804677GLASSTEK SPECIAL                                        21600
B0101405940512005328001MAY BLOSSOM CAR RENTAL, INC.                             1602
A0101408110515708717001JOAN IRIS T. CACHO                                       0501
A0101408530000002260117LUCERO, FELOMINO GONZALES                                0501
A0101411400000000001587SALONGA, DANILO SOLIMAN                                  0501
A0101411790000002275976GUEVARRA, LEONILA VILLA                                  0501
B0101411790518723784001BONJOUR 888 INC.                                         1603
A0101403450521239928001********                                                 0501
A0101404130601339889002HODREAL JR., JOSEPH MATIAS                               0510
B0101407720000000885656JBB & AFB CORPORATION                                    1601
A0101407720602326333001SATURNINO PEREZ JAVIER                                   0502
B0101404260000000156972PRIME POWER MANPOWER SERVICES                            1650
B0101404260000000156972PRIME POWER MANPOWER SERVICES                            1650
B0101404260611047841001PR GAZ, INC.                                             1603
A0101404260611337876002CHING, ROSA MATIAS                                       0503
A0101404260611338813001CASTILLO, ALREZEL ROBLES                                 0503
A0101404260611526457001BAUTISTA, JULIE ANN OLARTE                               0501
A0101409920650478374030DELA CALZADA, REGIL OMLANG                               0501
A0101409920000001951982MEMBERS OF NATASHA (SHOECAT INC                         10501
A0101409920000001951982TORRELIZA, GINA                                         20500
A0101407690000005197931DE VILLA, RYAN TAN                                       0501
A0101410300000000919648TAGUDAR, RONETH V. DBU PET TRUC                         10505
A0101410300000000919648KING SERVICES                                           20500
A0101410300663091328001VALENOVA, MARIA CRISTINA T. OR                          10502
A0101410300663091328001VALENOVA, NOEL S                                        20500
B1301400210000000915673EDCON CARGOTRANS, INC.                                   1601
A1301400210682628277001ADELIA MARIA B SOTO OR                                  10501
A1301400210682628277001MANOLET C SOTO                                          20500
A1301400340683406123001TOBIAS, SUSANA FULGENCIO                                 0502
A0101408240711536525001CALABAZARON, JOYCE PAJATIN                               0501
A0101408240711681273001PACIENTE, LIANN DELDOC                                   0502
A2801400230000001782123DELOS SANTOS, BERNARD DBU                               10501
A2801400230000001782123MASTER NARD MARKETING                                   20500
A4101400390000001732736CLAVERIA III, DON VIVENCIO G                             0501
A4101400390813470914001AZIS, ARMELA MERIADO OR HADJI                           10510
A4101400390813470914001AZIS JR., SAILAN                                        20500
A4101400420000004848039ALAMO, REDENTOR PURIFICACION                             0501
A4101400420814413936001DONCILLO, ROSITA YMATA                                   0501
A4101400420814443810001DORIO, MELANIE AQUITANA                                  0501
A0101412340000001017930SONIA MEDINA SIBI                                        0502
A0101404840000001312690CABINTE MATERNITY AND CHILDRENS                         10503
A0101404840000001312690HOSPITAL                                                20500
A0101404840851520766175RUTH CONDE                                               0501
A0101406750000002950763RIVERA, MARIA CAROLINA D. OR                            10501
A0101406750000002950763RIVERA, RUFINO D                                        20500
B0101405070861047281001AVISTELE CORPORATION                                     1601
A0601400230000005185833DUMAN-AG, MERCEDES MANUEL                                0501
B0101416030001201010044**********                                               2003
