A0101400150000000000077SALONGA, MARIE AUDREY SALVADOR                           0501
A0101410690000000001805MAGNO, JANUARY BARBOSA                                   0501
A0101404840000000004020TORRES, MARY ROSE S.                                     0501
A0101411110000000009145DAVID, ACE MENDOZA                                       0502
A0301400820000000024860HERNAN, PESARLITO T.                                     0502
A0301400660000000194530JATTRO MARKETING                                         0501
A1301400500000000213163MARCELINO, NORVY GARCIA                                  0504
A0101400440000000596527MARY ALEXIS M. MARTIN                                    0501
A0101412050000000697230PADILLA JR, ROMEO CANONOY                                0501
A0101407720000000713131SANTOS, MARIA CLARIZA M.                                 0501
A0101400150000000807170FRAGANTE, SOCORRO PROTACIO                               0501
A0301400790000001010682ASTILLO, EDGAR AGTON                                     0501
A6601400120000001065263AMANDE, BEATRIZ NALAZON                                  0501
A1601400170000001068968MICHELLE D. ARANDIA                                      0501
A0501400200000001081043ROSARIO II, FLORENTE ROJOLLY P.                          0501
A0101407560000001276200SHIONEL OR ROSINE GESITE                                 0502
A1301400500000001412399Y.P. HIZON ACCOUNTING SERVICES                           0502
A1301400340000001415634********                                                 0501
A0101403320000001647025MANONGSONG, J DBU JOHN BRYCE RO                          0501
A0101403320000001647069FAUSTO, ROVIE BUNGCAYAO                                  0502
A0101406620000001686882AVINANTE, BERNARD CONCEPCION                             0501
A0701400260000001804520LLONADO, JOLAND PADRIGON                                 0502
A0101406750000002040066GUIYAB, MA. ELENA ONCHER                                 0501
A0101408240000002331282PINEDA, GISBERT DEL CARMEN                               0501
A0601400100081330252001DIMABUYU, ERIC PANTIG                                    0502
A0101400440161525001188ROSEMARIE A. TICZON                                      0502
A0101407270162333006038LILIBETH C. SARMIENTO                                    0501
A0101407270162353067001JULIUS CAESAR C. BABAO                                   0503
A0101407270162465291003JEFFREY R. JETURIAN                                      0505
A0101401090171427121001SOLLY E. LIM                                             0501
A0101401090171442848001ALAN REGIN S. MALVAR                                     0501
A0301400660194407464001BOLOSITO, ARLENE REGIS                                   0501
A3001400130230094974001BRAVO, ROSEPT EBARLE                                     0502
A1001400190231283324001GICABAO, BENY CHAN                                       0501
A1001400350233478374022EDILLOR, DORISITA S.                                     0501
A0101400570281359812001DR. HECTOR A. DELURIA                                    0503
A0101402510341196679001CALIXTRO, ANGELINA FARALA                                0501
A0101402770391043391001IMPRENTA ISABEL                                          0503
A0101405490392044249001SAMAIREE CLOTHING SHOPPE                                 0502
A0101405490392478374022ELEONOR C. BASAS                                         0502
A1201400150421351199003DALANGIN, MIRIAM AQUINO                                  0501
A1201400150421776673001CORREOS, GEROME DUA                                      0503
A0101403030441041524001**********                                               0504
A0101403320471366846002EDNA D RODRIGUEZ                                         0503
A1401400110492674430001SALCEDO, LORENA ALBRANDO                                 0501
A0101403450521397819001**********                                               0501
A2201400250561258513006ADY NOEL MERCADO                                         0502
A0101404260611570903001OCCENO, VERNA RIVERA                                     0501
A0101404420631158444001ALBERT RAMOS   JT                                        0502
A0101404680651541506001VIRGINIA M. DE VILLA                                     0501
A1301400340683478374058RUBIO, YUME ADANTE                                       0501
A0101407560686324885001PALAPUS, EVAROSE S.                                      0501
A0101408240711289295001BLAS PEREZ JR. OR ALICE PEREZ                            0501
A0101404840851478374121MARISSA L. ESPARAGOSA                                    0502
A1601400170000000497401ALEXANDER S. DELAS ALAS OR                              10502
A0101413310000000863963CONCEPCION, MICHAEL JOSEPH G.OR                         10501
A3801400170000000955142DELA FUENTE, CZARINA LUCIA LUNA                         10501
A0601400520000000986563RIVERA III, ARTURO JOHN                                 10502
A1101400120000000992332EJERCITO, CARLA D. OR                                   10501
A0301400790000001010671DELA CRUZ JR., VALENTIN                                 10501
A0101412890000001765539BONGALOS, MA. THERESA S. OR                             10501
A0101405650000001911973GARIN, DANTE OLASE  OR                                  10501
A0101401830000002274364ALEXANDER JULIAN C ONGHUAN OR                           10502
A0101401090171196099001MARY JEAN V. GUNO OR                                    10501
A1301400470252428148002DELIA P. GONZALES OR                                    10501
A0101402770391758040001TOMAS N VICTORIA OR                                     10502
A0101407430503378430001DOUGLAS ARTHUR U. LIMTONG OR                            10502
A1301400500684589879001YULO III, ANTONIO P. OR                                 10505
A4101400390813043811001OXY CLEAR WATER FILTRATION AND                          10501
A0601400230891252023001MA. TERESA V, EUGENIO OR                                10501
A1601400170000000497401MA. VANESSA T. DELAS ALAS                               20500
A0101413310000000863963CONCEPCION, JACQUELINE R.                               20500
A3801400170000000955142DBU SPEEDWAY ENTERPRISES                                20500
A0601400520000000986563BALBERAN                                                20500
A1101400120000000992332EJERCITO, RONALD B.                                     20500
A0301400790000001010671BERGONIA                                                20500
A0101412890000001765539ADRIAN LINDON Q.                                        20500
A0101405650000001911973GARIN, BERNADETTE PERLADO                               20500
A0101401830000002274364MARK SEVERINO C ONGCHUAN                                20500
A0101401090171196099001TOMAS GUNO                                              20500
A1301400470252428148002BERNARDINO R. GONZALES                                  20500
A0101402770391758040001LOURDES C. VICTORIA                                     20500
A0101407430503378430001JANE R. LIMTONG                                         20500
A1301400500684589879001YULO , ANGELINA                                         20500
A4101400390813043811001REFILLING STATION                                       20500
A0601400230891252023001MA. LUISA                                               20500
B1301400470000000009550ADVANCE MICROFINANCING CORP.                             1605
B0101412340000000031023OVIALAND INC.                                            1601
B0101406620000000194132UMIC INTERNATIONAL, INC.                                 1601
B0601400520000000398614ENNEAD CORPORATION                                       1601
B0101404000000000461061PIAHSTREAMS CONSULTANT SERVICES, IN                      1602
B0101400150000000633538MANISA TERRANO DEVELOPMENT CORPORATION                   1601
B1101400120000000652868TACLOBAN ACME HARDWARE CO., INC.                         1605
B1101400120000000653036THE BAGACAY ROYAL THREE CORPORATION                      1601
B0101407270000000830471SPIRO L. CLEMENTE AND JEFFERSON T. SO                    1602
B0101407270000000830795UNITED MULTIFIBER CORPORATION                            1601
B0101413860000001767871JUMBO WORLDWIDE EXPRESS LOGISTICS I                      1602
B0901400220000001804991**********                                               1601
B0301400820000002106109POWER ASSET SERVICES CREDIT CORP.                        1603
B0101400150061011053001HOYA LENS PHILIPPINES, INC.                              1610
B0101400150061011143001ZABALETA & CO., INC.                                     1605
B0601400100081022002001ANTON'S PURIFIED WATER                                   1603
B0101401830141037331001Q-PHIL PRODUCTS INT'L.                                   1602
B0101407140213007657002DANTES RADIATOR ENTERPRISES CORP.                        1604
B0101406620273044226002QUANTUM REINSURANCE BROKERS, INC.                        1603
B0101406620273047215001UMIC INTERNATIONAL, INC.                                 1602
B0101409050352045430001POWER BOX MEDIA & MARKETING CO. LTD.                     1601
B0101403320471030317001UPLIFT PHILIPPINES INC.                                  1605
B0101403320471041653001CRYSTAL DREAMS DEVELOPMENT CORPORATION                   1604
B0101406880513021335002ACTIVE REALTY AND DEVELOPMENT CORP                       1610
B0101404420631051259168*****                                                    1605
B0101404420631161851001IRMA FISHING  & TRADING INC.,                            1605
B0101410300663044473001******                                                   1603
B0101408240711032925015DLSZ (DE LA SALLE SANTIAGO ZOBEL SCHOOL)                 1601
B0101408240711032925023DLSZ (DE LA SALLE SANTIAGO ZOBEL SCHOOL)                 1601
B0101408240711032925024DLSZ (DE LA SALLE SANTIAGO ZOBEL SCHOOL)                 1601
B2801400100712021347001SBR IMPORT EXPORT SPECIALIST INC.                        1602
B4101400420814034500001PRODLINE ENTERPRISES COMPANY                             1605
B0101408530000001275252MANAHAN, ENAGE-ARANGUREN AND ORTEGA                     11602
B0101400150061036325001AIKO ENVIRONMENTAL & GENERAL MANPOWER                   11601
B0301400660194733226088DAVID, FRANCISCO OR ZAMORA JR.,                         11605
B0101402770391752292003JUANITA OR TOMAS OR BENJAMIN N.                         11601
B1301400210682012854002BULACAN PUBLIC SCHOOL TEACHERS MULTI-                   11605
B0101408240711032925004PARENTS ASSOCIATION OF DE LA SALLE                      11602
B0101408530000001275252LAW OFFICES                                             21600
B0101400150061036325001SERVICES INC                                            21600
B0301400660194733226088 CERIACO                                                21600
B0101402770391752292003VICTORIA                                                21600
B1301400210682012854002PURPOSE COOP INC                                        21600
B0101408240711032925004ZOBEL                                                   21600
B0101407270162821100608**********                                               2020
B0101403450521821100608**********                                               2030
B0101414120658821100608**********                                               2002
B0101405070861821100608**********                                               2005
