B0101400570281821100608**********                                               2005
B1001400350233044580001GTS CONSTRUCTION SUPPLY AND DEVELOPMENT                 11610
B1001400350233044580001CORPORATION                                             21600
A0101400440000007121906REYES, MAY FAJARDO                                       0502
A0101402930000000859770METT MOTIVATIONAL ENGLISH                               10502
A0101402930000000859770TRAINING                                                20500
A0101402350000000521413REMELYN F. PIA                                           0501
B0101402930000000038691THE SPINAL CORPORATION                                   1602
A0101412890000001056360AMIDO, NORMA GUEVARA                                     0502
A4101400420000000710483ESPANOLA, MA. ANGILY CASANDRA                           10502
A4101400420000000710483CARBA                                                   20500
A4101400420814562876001*****                                                    0501
A0101400860011391589003**************                                           0510
B0101400860011792731001**********                                               1603
A0101400150061230586001**********                                               0502
A0101400150061697165001SERVER, CATHERINE ANNE B. OR                            10502
A0101400150061697165001CHRISTINE MICHEL                                        20500
A0101413730000000144738**********                                               0502
A0101410850000006559831CHY, JIMMY OR RACHELL ANN DBU                           10502
A0101410850000006559831JOCHELL TRUCKING SERVICES                               20500
A0101400730111478374112STO DOMINGO, CONSTANCIA                                 10502
A0101400730111478374112CHARLENE                                                20500
A0101401830141396070001MILAGROS P. FALCASANTOS                                  0501
B0101412920160059095001TORIBIO, EMELY DUAY DBU HIC PRINTING                    11602
B0101412920160059095001SERVICES                                                21600
A0101400440000006679692ARLENE CABRERA                                           0501
B0101400440000000337773VIENNA PORCELANA PHILS. INC.                             1620
A0101400440161409021001DYLAN ROMULO C. SANTOS                                   0501
A0101407270162390914001MELCHOR P. ANTONIO OR                                   10501
A0101407270162390914001JOSEPHINE S. ANT                                        20500
A0101401090171200033001MARIA ROSARIO R. ARANDA                                  0501
A0101401090171374243001ANNABELLE G. LAURO                                       0501
A0101401090171427121001SOLLY E. LIM                                             0501
A0301400530000000065865ARASA, NICOLAS                                           0501
B0301400660194014152088*****                                                    1602
B0301400660194046002088GARDEN BY THE BAY CORPORATION                            1603
A0301400790000001776138ESCAMIS, JOSE PACLAR DBU                                10502
A0301400790000001776138ESCAMIS BUILDERS                                        20500
A0301400950000002115231**********                                               0501
A0101401380201084784001GABRIEL, MARIA CHRISTINA TAN                             0501
A0101401380201367197001MERCEDITA B. PAREDES                                     0502
A0101401380201672244001******************************                           0501
A0101412500214063375001JUANILLO ARIANNE SARMIENTO DBU                          10501
A0101412500214063375001HEA EVENTS MANAGEMENT                                   20500
B3101400160221224862001JOYME ROCKSCAPES CORPORATION                             1602
A3101400160221478374019MIRIAM M. MIRABUENO                                      0501
A3001400130230757981001SACAY, RENE CANTOR OR SACAY,                            10501
A3001400130230757981001JOSEPHINE SIMBIT                                        20500
A1001400350000002367228YBANEZ, FRANCISCO TIEMPO                                 0504
B1001400350000000017096AYA VENTURES CORPORATION                                 1604
A0101406620000006317860DELGADO, JUDY GRACE TIONGCO                              0502
B0101406620273026509001DG3 IDOCS, INC.                                          1602
A0101411820277775683001**********                                               0504
A0101412470000005380285QUIRINO, ALELI ANGELA GUZMAN                             0501
B0101400570281036729002LAIYA GOURMET                                            1603
A0101400570281043930002REALTY & ENTREPRENEURSHIP                               10501
A0101400570281043930002ACADEMY OF THE PHILIPPINE                               20500
A0101400570281047282001WORLDTECH ENGINEERING &                                 10503
A0101400570281047282001INDUSTRIAL SALES                                        20500
B0101400570281074052003LACDAO, BRIDGET BALITOG AND CAWATIG,                    11601
B0101400570281074052003FARIDA PASIWEN                                          21600
A0501400200000006445081LUSTINA, CHARITO E. DBU LUCKY                           10502
A0501400200000006445081STAR LUMBER, HARDWARE                                   20500
B08014001603110189040013 TOPS TRADING                                           1610
A0801400160311456671001DAMASCO, ROMMEL APISTAR                                  0503
A1101400120000001547508DESUASIDO, IMELDA FAJARDO                                0501
A1101400120313478374093GIMARANGAN, JINKY A.                                     0501
A1101400120313582919001CHAN, WILLARD LIU                                        0501
A6601400120000002249943KAMIYAMA, ROUCELIN BRENZUELA                             0501
B0101402350321029848001PASAY CITY FILIPINO CHINESE CHARITY                     11601
B0101402350321029848001HEALTH CENTER                                           21600
A0101402510000008352410PURUGGANAN, PATRICK FERNANDEZ                            0501
B0101402510341058757001RCAM-NATIONAL SHRINE OF SAINT MICHAEL &                 11605
B0101402510341058757001THE ARCHANGELS                                          21600
A0101402510341199103001CORAZON D. HUANG                                         0502
A0101409050000000999562PUNZALAN, SALVE MARIE SOLIDUM                            0502
A0101409050352686644001REYNALDO M. COQUIA                                       0501
A0201400760374033157001WISE OWL GENERAL MERCHANDISE                             0501
A0201400920000006791968CEBU M&D PHARMA MERCHANDISE                              0502
A0101402930000003710767ABADILLA, ARVEN VENDIOLA                                 0502
B0101402930381010731001********                                                 1601
A0101402930381419788001ALMARITA JIMENEZ OR                                     10501
A0101402930381419788001MA. REGINA COELI                                        20500
A0101408370382391284001MA FELICIA CORAZON E. LACANILAO                          0501
A0101408370382697528001ARISTEO T. GERONIMO                                      0501
A0101402770000006642793SUESS, FLORENCIA GERODIAS DBU                           10502
A0101402770000006642793FGS ENTERPRISES JT                                      20500
A0101402770391211574001OCAMPO, ISAGANI OR                                      10501
A0101402770391211574001OCAMPO, LUCILA                                          20500
A0101402770391586509001ALBINO, CHERYL BERNALES                                  0501
A5501400120000006976585PAMA, ANNA LIZA BAYLON                                   0501
A0901400220000002300845LIM, RENEEROSE VESAGAS                                   0502
B0901400220432750068001NOCOM, JOSELITO GABRIEL                                  1601
A0101412890000005944910***************                                          0504
A0101412890000005945031************                                             0502
A0101403320000008340112IVAN S. FERRERAS                                         0501
A0501400170481289695001MEJIA, RANDOLFO R. OR                                   10501
A0501400170481289695001MEJIA, JACQUELIN                                        20500
A0501400170481712963001SALAZAR, MA. JOSEPHINE F.                                0502
B1901400320000000041301FIRST INNER TRADE CREDIT CORPORATION                     1610
A1901400160491063374001EG PLUS FEEDS AND POULTRY                               10501
A1901400160491063374001SUPPLY                                                  20500
A1401400110492222049001AMORSOLO S. NIEVA                                        0508
A1401400110000000034802RAZA, EMMANUEL RECAMARA                                  0501
A1601400170000000421150ARCANGEL, HELEN M. AND                                  10501
A1601400170000000421150JOSE MA. G. ARCANGEL                                    20500
A1601400170000001069227NUNEZ, IRENE AJERO                                       0502
A1601400170000001360849JOSON, RICHARD FORTUNO                                   0501
B0701400260000001804633OLIVAN, PHILIP MARK UY OR                               11610
B0701400260000001804633UY, NIELSEN EARL                                        21600
A0101405940512666891001ADAN, RONALDO PALENCIA                                   0501
A0101406880000006986972LINGON, MELANIE CABAHUG                                  0501
A0101408530000008348192GONZALES, CHARLENE TOLENTINO                             0501
A0101403450521678458001*********                                                0502
B0101403610531046549001BIG APPLE PLASTIC PACKAGING INC.                         1602
A0101403610531368279001PITERO, MARLENE NEPOMUCENO                               0501
A0101404000551153238001KATIGBAK, VIRGILIO J.                                    0501
A0101404000551303308001***                                                      0501
A2201400250561478374038ZENAIDA B. DELA CRUZ                                    10501
A2201400250561478374038MEMBERS OF NATASHA                                      20500
A0101407720602294680001PEDREGOSA, GERARDO STA ANA                               0502
A0101407720602390297001PREYSLER, MARIVIC G.                                     0502
A0101407720602455271001SARROSA, DONNA MARIE LEELIN OR                          10502
A0101407720602455271001SARROSA, EDWARD                                         20500
A0101404260000000532283UNI STOP DRUG & GENERAL                                 10501
A0101404260000000532283MERCHANDISE                                             20500
A0101409890000000437405REYES, MICHAEL CONCEPCION                                0502
A0101409920000000998569MEMBERS OF NATASHA (SHOECAT INC                         10501
A0101409920000000998569PEDROSA, JULIE                                          20500
B0101407690000000243843IDESCO CONSTRUCTION AND DEVELOPMENT CORP                 1602
A0101407690652060073510STELLA PANLILIO                                          0501
A0101407690000000025152MONCEDA, MARINA - DEALERS OF                            10501
A0101407690000000025152SHOECAT INC.                                            20500
A0101413570000002249527VICTORIA H. VILLEGAS                                     0501
B0101413990000003141146**********                                               1601
A0101406590662040759001MI BELLA SALON                                           0503
B1301400340683353482001MARLENE R. JOSE OR JOSE MARI R. JOSE                     1602
B1301400500000003070093AMISTAD, RONALDO ESTAVILLEO                              1602
B1301400500000005963404PAGASA PHILIPPINES LENDING COMPANY INC.                  1605
B1301400500000005963175*********                                                1602
A1301400500000007096520BAUTISTA, SHIELA MARIE OR                               10501
A1301400500000007096520BAUTISTA, ERICKSON                                      20500
A0101408240711384215001PAUL LOUIE M. TUGADE                                     0505
A0101408240711384215002RHODA DELOS ANGELES                                      0501
B2801400100000004560003BENEFIC CORPORATION                                      1603
A4101400260000000377366MEDEL, RAQUEL LACUATA OR                                10501
A4101400260000000377366MEDEL, ANDRES                                           20500
B4101400390000003346198SUPERSTAR PACKAGING CORPORATION                          1602
A4101400390000000745335MARIANO, JENNIFER CARPIO                                 0501
A4101400550000006044571TECSON, AIRENNE CELIZ                                    0501
A0101412340000003438544CHERMAINE PORTIA P. LODERO                               0501
A0101406750852043322001JMRS TOURS & TRAVEL                                      0502
A0101406750000004641714DELFINO, A DBU LAPCON HUMAN RES                          0503
A0101406750852388877001LAMBUSON, MARIA AGNES PENAMANTE                          0501
A0601400230000001062504BARLIN, MA CHRISTINA MENDOZA                             0501
A0601400230000005185866CHUA, MARK ANTHONY OR VELASQUEZ                         10503
A0601400230000005185866MYRICK OR LLAVE,                                        20500
A0601400230000006243056CABRERA, MILAINE KAIRINE TAMAYO                          0501
