F0101406750000000090515PROSWEAL HEALTHCARE INC.                                 2605CKR
F0601400100081685142001POON, WAISILY LOZANO                                     2502CKO
F0301400820409051644001DIWACO                                                   2602CKR
F0301400820409051644002DIWACO                                                   2602CKR
F0101408110515029643001101 BEAT RECORDING STUDIO CO.                            2601CKO
F0101407690652029452004CA TELEMARKETING INC.                                    2610CKR
F4101400260812543920001ARTHUR B. ALVIAR                                         2508CKO
