A3001400130000000068273JOSE, KRISTINE CASSION                                   0501
A3001400130000000068273JOSE, KRISTINE CASSION                                   0501
A3101400870000000074742******                                                   0503
A0101401380000000414286********                                                 0510
A0101404260000000550149MAYO, CESAR MASUPIL                                      0502
A0101413570000000635643JOANALINE Z. EVANGELISTA                                 0502
A0101406330000001235370**********                                               0502
A3101400870000001712130******                                                   0502
A0101401960000001844668ONG, ALVIN OCAMPO                                        0501
A0101400440000002034782CHARITO IBANEZ                                           0502
A0101407270000002334721MOPER ANGELICA P. PAPA                                   0502
A0101408110000002364861MORALES, DANILO TAGAL                                    0501
A0101413990000003431336*                                                        0502
A0101402770000003488120LACANIENTA, RICARDO LACANIENTA                           0501
A0101404000000003707760VLADIMIR S VALERO                                        0503
A0101408790000003812097TAN II, ALBERT KING SETI                                 0502
A0101400860011385744004**********                                               0505
A0101400860011426931001**********                                               0501
A0101400150061302188001PAULINO-LEMIE M. ESCABARTE                               0501
A0101400600071457180001**********                                               0501
A0101401830141225806001EDWIN P. GUAZON                                          0502
A0101407270162331904012CHITTY LEE L. BARRA                                      0502
A0101407270162331908041MA. JUDITH MARCELO                                       0501
A0101407270162506659001MA. JUDITH N. MARCELO                                    0501
A0101401090171199858001RODELIO DOMINGO LIM, M.D.                                0501
A0101401380201478374010ANA GABANZO                                              0502
A3001400130230478374025DECAMOTAN, JOCYGLIN VILLAMOR                             0501
A1001400190231556864001KHU, JOY LACDOO                                          0502
A1301400760253056374001EDNA'S CAKELAND                                          0510
A0101406620273781168001**********                                               0501
A0101402060351211701004MA. DOLORES DANNUG                                       0503
A0201400920375587193001RABARA, MERCEDITA CADELINA                               0501
A0101408370382236431001IMELDA B. REGIO                                          0502
A0101402770391388661003VARGAS, NANETTE PANA                                     0501
A0101402770391526213002*********                                                0501
A0101408400394028886002DEC ORIENTAL FOOD STREET CO. LT                          0502
A0101408400394160344001CALMA, ALFREDO MATAGA                                    0504
A5501400120410272724001DIZON, GABRIEL ESPINO                                    0502
A0101403030441240653001**********                                               0501
A0101406330472035160001QUICKFIRE METAL FABRICATION                              0502
A0101406330472372718001PRISCILA BADELLES                                        0501
A0101406330472459699001NANCY G. HAMOR                                           0501
A1901400160491343774001MA REGINA THERESA A BLANDO                               0501
A1401400110492596423001TAN, RUDY HONG                                           0501
A0101407430503400693001CHITO S. ANONUEVO                                        0501
A0101406880513433846003PAMA JR., ARTEMIO PATINO                                 0501
A0101406880513596267001PARAGUYA, SUSAN MANGAHAS                                 0501
A0101403450521563148001**********                                               0502
A0101404000551401500001FEROLIN, HAZEL JOY PESCADOR                              0501
A1301400340683542735002BIUNAS, REMEDIOS GREGORIO                                0501
A2801400100712490144001LADIERO, LIZA BABERA                                     0501
A2801400230713414628001ENDAYA, MARITES PRONTO                                   0503
A0101404840851428321001GUTIERREZ, OLIVER OR ROGELIO                             0501
A0101406750852633773001MARASIGAN, RICARDO JOYAS                                 0503
A0101405070861478374054LUZVIMINDA T. PONTANAR                                   0501
A0101413280000000041852OLA, EDAM CRUZ DBU HIJK SHIRT                           10501
A0101413860000000144994SORONGON, PRECIOSA VALENZUELA                           10501
A0101409050000000258280CODERA, ROWENA SIASAT DBU WECO                          10501
A0101408790000000579802QUIMQUE, MA PAULINE IRIS D. OR                          10502
A0601400230000001687090GUTIERREZ, JOSEPH MONTES                                10502
A3401400280000001723440EDUQUE, JESSIE ECARAN OR EDUQUE                         10501
A0101409180000002252513ENCABO, CARINA OR ENCABO,                               10502
A1001400190000004873703MUTIA, RIZALINA QUIMPANG                                10501
A0101401250021453364001TORREJOS, ALFREDO OR                                    10502
A0101400150061473504001SAGUIL, EDUARDO FABELLA                                 10501
A0101400440161194113001MA. CYNTHIA S. CAJUCOM OR                               10501
A2001400290315636761001VILLABERT, WINSTON TAN OR                               10505
A0101402060351213405001LEOZALDY C. LINTAG &/OR                                 10501
A0101402060351734699002RAMNANI, MICHAEL CHRISTOPHER OR                         10502
A0101405490392571716001GERALDINE O. ACTHLEY OR                                 10501
A0101404130601310589001ANCKERMANN, CARLOS OR                                   10502
A0101407720602381795001FORES, MIGUEL EDGARDO MANUEL                            10501
A0101407720602417064001IRMA RAJAGUKGUK-MAGNAYE OR                              10502
A0101406590662470961001VALMOCINA, ESTRELLA C. OR                               10510
A0101408240711743061001LAWS, TIMOTHY REYNOSO OR                                10504
A0101413280000000041852PRINTING & DESIGNS                                      20500
A0101413860000000144994JT FLORENTINO, C                                        20500
A0101409050000000258280PRINT AND GRAPHI                                        20500
A0101408790000000579802QUIMQUE, MA PRECILLA IVY                                20500
A0601400230000001687090OR GUTIERREZ, MA                                        20500
A3401400280000001723440RUELYN CAPUNONG                                         20500
A0101409180000002252513JESULITO RAMIR                                          20500
A1001400190000004873703OR MUTIA, DANILO GONZAGA                                20500
A0101401250021453364001RYAN ALVIN OR CARMEN                                    20500
A0101400150061473504001OR ANNE MARIE SA                                        20500
A0101400440161194113001VIRGINIA CAJUCOM                                        20500
A2001400290315636761001VILLABERT, MARIT                                        20500
A0101402060351213405001DEANA M. LINTAG                                         20500
A0101402060351734699002RAMNANI, ASHOK                                          20500
A0101405490392571716001RAQUEL A. TAJONERA                                      20500
A0101404130601310589001CARMEN ANCKERMAN                                        20500
A0101407720602381795001OR FORES, LUCIA                                         20500
A0101407720602417064001ELGIN MAGNAYE                                           20500
A0101406590662470961001GUTIERREZ, MARY                                         20500
A0101408240711743061001KATRINA OR JOSEPH                                       20500
B130140047000000000957214M MARKETING CORPORATION                                1602
B6601400120000000060864PALAPAG FINANCING COMPANY INC.                           1602
B0101401380000000106692NOCOM & COMPANY, INC.                                    1605
B0101413860000000145300**********                                               1610
B06014005200000003987051164 BUILDERS INC.                                       1602
B0101404000000000460973LOS PRIMOS TRAVEL AND TOURS INC.                         1605
B0101400150000000633505DIGISCRIPT PHILIPPINES INC.                              1603
B0101402060000000653883DISTRICT MILL ARTISAN BAKERY, CO.                        1603
B2801400230000001580296DEL ROS AMUSEMENT ENTERPRISES, INC.                      1602
B0201400760000001612948LMDC CORP.                                               1603
B0101407270162046726001VALUE CARE HEALTH SYSTEMS, INC.                          1650
B0101407270162046726001VALUE CARE HEALTH SYSTEMS, INC.                          1650
B0101411240283046151001DISTINCTION LAMPS AND FURNITURE, INC.                    1601
B2001400290315097988001UYMATIAO TRADING CORPORATION                             1601
B0101402350321006710001DASMA CITYWIDE GEN MDSG INC.                             1604
B0101402510341203394001NATIONAL SHRINE OF SAINT JUDE THADDEUS                   1602
B0101402060351085656001REBINTECH CONSTRUCTION, INC.                             1604
B0101402770391033332001MARYLAND DISTRIBUTOR'S, INC.                             1605
B2401400180411040906001JOLYROB FISHING                                          1605
B0101406330472021511001ASSOCIATED WIRE CORP. OF THE PHILS.                      1610
B0101403450521028565001**********                                               1602
B0101403450521036992001********                                                 1601
B0101404130601037502001JS PHILIPPINES GLOBAL CORPORATION                        1602
B0101405070861038512001**********                                               1602
B1101400120000000652880YAO, ANTHONY ROBERTSON GO AND YAO, MARK                 11605
B0101410850000001229863PARKER CHUA AND TIMMIE CHUA                             11602
B0601400100081035852001LIBERATO T. REYES & ASSOCIATES,                         11602
B0101406620273216139001ABANO PAMFILO PARAS PINEDA AGUSTIN                      11603
B1101400120000000652880ALAIN GO                                                21600
B0101410850000001229863AND LLOYD CHUA                                          21600
B0601400100081035852001CPA                                                     21600
B0101406620273216139001LAW OFFICE                                              21600
