B0301400530193821100608**********                                               2003
B0601400360083821100608**********                                               2003
B0101414120658821100608**********                                               2002
A0101401830000011222761DYHIANTO, MARIA ANJELYN JOCSON                          10501
A0101401830000011222761OR DYHIANTO JR., JOSE ONG                               20500
A0501400170481252349002LALAS, MAEVA DELA CRUZ                                   0502
A0101410300000000026508TAGLE, E DBU E.S. TAGLE TRADING                          0503
A0101400860000003571668**********                                               0503
A0101400860000009198354**********                                               0502
A0101400860011388542003**********                                               0502
A0101400860011514595002**********                                               0502
A0101400860011548430001**********                                               0502
A0101400860011582735001**********                                               0502
A0101401250000000441052ONGSUECO, SYLVIA K.                                      0501
A0101400150061399342001CREMAN, POLLY MARIBEL DUMBRIQUE                          0501
A0101400600000005942470REYES, ZALDY B. OR                                      10501
A0101400600000005942470REYES, SOFIA D.                                         20500
B0101400600000005943115********                                                 1601
A0601400100000010024914BOK, JANE DUE DBU MOGORA ASIAN                           0502
A0601400360000002282180GRAVAMEN, MARIO CARGAR                                   0502
A0601400520000009516554CORTEZ, MARVIN TUMANENG                                  0501
A0101401960000006004422***************                                          0501
A0101401830000001281885SANTOS JR., LAURO DOCENA                                 0502
A0101401830000004835172PARADELA, MA. ELVIRA BERTULFO                            0501
B0101401830000000033570CARITAS SALVE CREDIT COOPERATIVE                        11603
B0101401830000000033570(MALABON)002                                            21600
A0101401830000000033729ABEJAR, SUSAN GAUNA                                      0502
A5001400170000002288388PANOZA, PRECIOUS ESTEBAN                                 0502
B0101400440161029744001PAWNSAFE SERVICES CORPORATION                            1606
A0101400440000002035063BUGA, JULIET BONADOR                                     0501
A0101400440000008201283JAMES E. PACHECO                                         0502
B0101407270162036459001ULTRATECH PRINTING CORP.                                 1610
A0101401090171198373001MARIVIC G. USITA                                         0501
A0101401090171198417001ERLINDA HIPOLITO OR CAROLINA                            10510
A0101401090171198417001AMARO OR LOURDES MEDRANO                                20500
A0101401090171417083001ABIGAIL T. PAGALILAUAN                                   0501
A0301400530000005691114PALMERO, MARY CRIS GUILLANO                              0502
B0301400790000003969484CODINO, JUDITO LAMOSTE OR                               11601
B0301400790000003969484CODINO, MARY ANN                                        21600
A0301400790000003969611BERSABAL, AGNES TUBANG OR                               10501
A0301400790000003969611BERSABAL, MARVIN                                        20500
A0301400790000003969644VILLAVER, GENEROSE VILLAGONZALO                          0502
A0101401380000010190364MALVAR, ROSELVI DOLLISON                                 0501
A0101401380000005320990*********                                                0503
B0101401380000003954461PLATINUM FANTASY AMUSEMENT CORP.                         1601
A0101401380201618189001CINCO, ROSA OR LAM, LAURENCE                             0505
A0101412500000002304774BUGAOAN, IVY ILLESCAS                                    0502
A0101412500214068283001RAYPON, GRASON KINNY CUBILLAS                           10502
A0101412500214068283001DBU AOSBC TRADING                                       20500
A0101413600000000650964ANNE B. HIPOS                                            0501
A3101400160221724137001ALICIA P MANAIG                                          0501
A3101400450223386261002TONGSON, ALFREDO OR FATIMA LUZ                           0501
A3101400740224710022001DAVID, MERRY GRACE CORDERO                               0503
A3101400870000002007727LUMBRIS, ZAHRA DAYO                                      0501
A3001400130000000931373SANCHEZ, AURALYN LUMAMBA                                 0501
A3001400130230478374026SONOT, RODERICK AMAHOY                                   0501
A1001400190231478374164SARAUS, BAMBET SOGOC                                     0501
A1001400190000002170678GENTILES, KEVIN                                          0501
B1001400350000007920865LPP PROPERTIES, INC.                                     1602
A1001400480000001054784LONGOS, CHIMBEE CABIGUIN                                 0501
B1001400480000003357880PBRAGANDANG DEVELOPMENT CORPORATION                      1604
B1301400470000003270135EPS HAULING COMPANY INC.                                 1601
B1301400760000000050871ENCORE LEASING & FINANCE CORP.                           1601
A1901400290261040973001ICT-ED INSTITUTE OF SCIENCE AND                         10502
A1901400290261040973001TECHNOLOGY, INC.                                        20500
A1901400290261244475001EFRENILA VINAS FAJARDO                                   0503
A1901400290261513732001ROSELLE MARIE DE LEON AZUCENA                            0502
A0101406460000002330843YOUNG, MARIBETH CARCIDO                                  0501
B0101406460272035154001STUDIO84 INC.                                            1602
A0101406460272395514001PINEDA, MARLETTE ARANETA                                 0502
B0101406460272506117001AXIS DISTRIBUTION, INC.                                  1602
A0101408660000006296746SULIGUIN, RODERICK REYES                                 0502
A0101411820000004981808CARINO, TESSIE LACORTE                                   0501
B0101412470000003847405NEW LA UNION PLYWOOD TRADING CENTER                     11606
B0101412470000003847405INC.                                                    21600
A0101400570281501253001ROLAND DOMINIC G. JAMORA                                 0502
A0501400200000005751599BALMEDIANO, MYRNA SOLIVEN OR                            10505
A0501400200000005751599BALMEDIANO, ISMAEL                                      20500
B0501400200000004456902CBE ESTRADA PAWNSHOP, INC.                               1605
A2601400270000000019601THELMA P. GARCIA OR HENSON                              10503
A2601400270000000019601JESUS A. DULDULAO                                       20500
A2601400270000009896388MFC FASHION HOUSE AND GENERAL                           10501
A2601400270000009896388MERCHANDISE                                             20500
A6601400120000003673158REBADOMIA, RUBY IRINCO                                   0501
A6601400120000008490411*                                                        0501
A6601400120314593270001DIAZ, REO DBU RUDMAR TRADING JT                          0505
A6601400120314648197001PAJOTA, RUNETO OLMEDA                                    0505
A2001400290000000046240SIBUL, EVELYN TORETE                                     0501
A3401400280318478374006LOVERAS, EMCY DEL ROSARIO                                0505
A0101402350000003080468ORCULLO, THERESA VALERIO                                 0501
A0101402350000005645121DANAO, LINO DBU L 2 AUTO SHOP                            0501
A0101402350321618569001DAMASO, GLORIA SANCHEZ                                   0501
A0101402510000010100902GARBIN, JOAN MAE LUCIDO                                  0501
B0101402510341019659002PANDORA EQUIPMENT SPECIALIST CORPORATION                 1603
A0101402510000000200062BERNALDEZ, LIGAYA MACALINTAL                             0502
A0101402060351392275001YAP, KENNETH YU                                          0503
A0101409050000011151134SAMIADO, MARY ANN SALVADOR                               0502
A0101409050352228509001JOHN ANTHONY M. CASTRONUEVO                              0501
B0201400760000000989706SORIANO, ADRIAN IBAY                                     1602
A0201400760000002047041ANG, STEPHANIE JOIE JAYME                               10501
A0201400760000002047041OR JAYME, STEPHE                                        20500
A0201400760374047906001SAPAYAN LIM ALVAREZ & LIGUTAN                           10502
A0201400760374047906001LAW OFFICES                                             20500
A0201400760374483079001STEINBERGER, OTTO WILHELM                                0501
A0201400760374572437001GEMPARO, ELLEN KRISTINE YAUN                             0501
A0201400920000005323386ADAMS, JASMIN RACOMA                                     0501
B0201400890000001529642***************                                          1601
B0201400890376068269001CEBUCCTV INC.                                            1601
A0101402930000000859770METT MOTIVATIONAL ENGLISH                               10502
A0101402930000000859770TRAINING                                                20500
A0101402930381205175001DR. MARILYN D. RUARO                                     0502
A0101408370382550885001DR MARIA ROSEMARY N SAN MIGUEL                           0501
A0101411660000000109311**********                                               0501
A0101411660000005324243SANTIAGO, SHERWIN GARCIA                                 0502
B0101411660000002808051MALACCI APPAREL, CORP.                                   1602
B0101402770391009441001ST. ANTHONY HOMEOWNERS' ASSOCIATION INC.                 1602
A0101402770391043298001BETTER CHOICE CATERING SERVICES                          0501
A0101402770391095895001RAMOS, JAYAR DE CASTRO                                   0502
A0101402770391095895001RAMOS, JAYAR DE CASTRO                                   0502
A0101408400000000471152VALLEJO, JAIME BENJAMIN MAULEON                          0501
B0101408400000003120587YSON, SHERILYN CAJUDAY AND                              11601
B0101408400000003120587YSON, LEONARD                                           21600
A0101408400000005286320AMEROL, ROSLINA MAROHOMSALIC                             0504
A0101408400000011077557LALOG, CHARMANE CASTILLO                                 0501
B0101408400000008319911KING'S HOLLY, INC.                                       1602
B0101408400000000077872TECH-ASIA INDUSTRIAL ENTERPRISES                        11602
B0101408400000000077872CORP.                                                   21600
A0101408400394478374077PEREZ, CONCHITA                                          0502
A0101408950000003171268DONATO, CATHERINE CANONIZADO                             0501
A0101408950396336315001DR. SERAFIN LABAO BERNARDO V                             0501
A0101408950396773717001AGUILAR, JOSEPHINE CABRERA                               0502
B0301400820409821100608**********                                               2003
B0301400820409821200608**********                                               2001
B5501400120000005492399DSSD FAMILY REALTY DEVELOPMENT CORP                      1610
B5501400120000005492435FOUR M RESOURCES AND ADVANCED TECHN                      1610
A5501400120000000265850SUENO, ISMAEL JADE BERNARDO                              0503
B1201400150421039569002GODS CHURCH CALVARY CHAPEL, INC.                         1601
A0101403030441239072002**********                                               0502
A0101412890000001056462GO, FLORINDA DE GUZMAN OR                               10501
A0101412890000001056462MANALILI ZARAH JANE G                                   20500
A0101412890000005913362SAIGANO, LEONILA MENDOZA                                 0501
A0101412890000007095783***********                                              0501
A0101406330472081531001MARIA SHIERILA I. YANG                                   0503
A0101406330472215608001JOSEFINA "JOJO" SALAZAR                                  0502
A0101410140000000482746CHUA, JOANNA LAU                                         0501
A0501400170481046585002ANG, JUSSLYNN DBU                                       10502
A0501400170481046585002AVS DISTRIBUTION                                        20500
A0501400170481062103001ANG, JUSSLYNN MAISIE ONG DBU SO                          0501
A0501400170481409728002ANG, JUSSLYNN MAISIE ONG                                 0501
A0501400170000001072713ANG, JUSSLYNN MAISIE ONG                                 0501
A1901400160000011148724JUSTO, GONDALINA LIMENDOG                                0503
A1401400110000010622630UY, MYRA MEDENILLA                                       0503
A1601400170494057284001F2M TOWER                                                0502
B0101407430503015295001PC SUPPLIES, INC.                                        1602
A0101403580000007265387ZAPANTA, ROZABELLE APAREJO                               0501
B0101403580511020857001ROBROS INCORPORATED                                      1603
A0101403580000000016082SWEET BELLA DESSERTS                                     0508
A0101403580511150737001LUIS JUAN L. VIRATA                                      0515
A0101408530516571877140SORILLA, ELTON JOHN SORONGON                             0501
A0101408530000007719660SINGH, ANANT                                             0501
A0101411790000008854071ABAD, MARIVIC DBU JIRAH RAPHA                           10501
A0101411790000008854071ENTERPRISES                                             20500
A0101411790518701706001********                                                 0503
B0101403450000002975622CROWN ASIA CHEMICALS CORPORATION                         1610
A0101403450521237819001**********                                               0501
A0101403450521238046001**********                                               0502
A0101403450521360388001**********                                               0502
A0101403610531036705002A.P.D. LEASING OF REAL PROPERTY                          0502
B0101403610531044363001RAIN'S PLACE CORPORATION                                 1603
B0101403610000003053170LORENZANA FOOD CORPORATION                               1605
A0101403610531068266001OLAYVAR, ELMER H DBU HANLEX                             10501
A0101403610531068266001FASHION COLLECTIONS                                     20500
A0101403610531792048001MORDIDO, IRMA GAMBA                                      0502
A0101404130000006275921LAO, RYAN QUEZADA                                        0501
B0101404260611028921001KICEM TRADERS AND CO. INC.                               1610
B0101407690000003767879MEGARITZ FINANCING CORPORATION                           1602
B0101407690000007720181STORAGE PROVIDERS INC.                                   1603
A0101407690652520766005GILNNA M. MALIGAT - DEALERS OF                          10501
A0101407690652520766005SHOECAT INC.                                            20500
A0101413440000000038100MARY SHERYL G. DELA CRUZ                                 0501
A0101413440000002339540SABILE, WYETHGLEN LUMALES                                0501
A0101413990000006278066CHIONG, EUFROSINA C. OR                                 10501
A0101413990000006278066CHIONG, HENRY A.                                        20500
A0101413990000005252711BAUTISTA, DERWIN DANIEL C. OR                           10501
A0101413990000005252711SARMIENTO, QUENNIE MADELL                               20500
A1301400500000003070139SUGAR DADDY MARKETING                                    0502
A1301400500684637125001SANTOS, LENYLYN INDON                                    0501
A1301400500684762106001VICEO III, JAIME S.                                      0503
B0101408240711008390001TRANSLIFT SHIP MANAGEMENT, INC.                          1610
B0101408240711028488001INTAS DESTINATION MANAGEMENT INC.                        1605
B0101408240000000832962CARMEL LAND SALES & DEVELOPMENT CORP.                    1610
A0101408240000003501282GERVACIO HOME MANAGEMENT AIDE                           10502
A0101408240000003501282SERVICES                                                20500
A0101408240711487311001RACHO, DESIDERIO OR TRANQUILINA                         10502
A0101408240711487311001OR ANNA OR ARTHUR                                       20500
A4101400260000010623695LARAN, MICHAEL JOHN EGONIA                               0502
A4101400390813378814001GIGI D. ABOGADO                                          0501
A4101400390813442190001ASMA, RODELYN MERIADO OR                                10505
A4101400390813442190001ASMA, ROLDAN PAR                                        20500
A4101400420814085521001DEL ROSARIO, JAVIER GUIMAN                               0502
A4101400420000002345320CALLEJO, LILIBETH                                        0501
A4101400550000009642913NABONG, AMYLENE VICTORIA                                 0502
A4101400550000007583660DIZON, C DBU C.D. DIZON CONSTRU                          0502
A4101400550815478374008LORELYN C. PARCIA                                        0502
A4101400550000002344236URIARTE, JACINTA MIRANDA                                 0502
A0101412340000001017816MARANAN, JENNIFER GONZALES                               0501
A0101404840851210994001LIGAYA P. GASCON OR                                     10503
A0101404840851210994001MARIA LOVELY DEL                                        20500
A0101404840851317230015ROMEL Y. DIMAANO                                         0502
A0601400230000005185833DUMAN-AG, MERCEDES MANUEL                                0501
B0601400230891013063001IMPERIAL EXPRESS SERVICE CORP.                           1601
