B0101405940512821100608**********                                               2007
B0101400310211821100608**********                                               2002
A2001400290315641895001WENCESLAO, JUNE CLEO OR                                 10502
A2001400290315641895001WENCESLAO, ANTON                                        20500
A4101400420814328455001LARGA, ROMMEL YAP                                        0501
B0101400150061033285001D' LUCKY ACE DEVELOPMENT CORPORATION                     1601
A1001400350233531238001YRASTORZA, MARIA TERESA NERI                             0502
B0101415060385821100608**********                                               2002
B2401400180411031945001ABC DISTRIBUTORS INCORPORATED                            1605
A2401400180000002146152SANTIAGO, CLARITA CASTRO                                 0501
B4101400420814044710001RDJ CAR PARTS CENTER                                     1601
A4101400420814478374122AGUILO, RODENA T.                                        0501
A4101400420000006643490LA AS, NORA P.                                           0501
A0101400860011396464001**********                                               0502
A0101400860011523266001**********                                               0505
A0101400860011533026001**********                                               0502
A0101400860011559271001**********                                               0505
A0101400150000001422042RICO PAMFILO, RENA MORELOS                               0501
A0101400150000002902605RITUALO, JOEL BANAGA                                     0501
A0101400150061315349187GUIA R. MEDINA                                           0501
A0101400600000001335579********                                                 0502
B0101400600071234514001**********                                               1601
A0101400600071672958001*********                                                0501
A0101400600071739008001********                                                 0501
B0101405810072020925003DW PLASTIC CORP.                                         1603
B0101405810000005943320D.W. PLASTIC CORPORATION                                 1601
B0101405810072034989001TRANSWELL ENGINEERING CO.                                1602
B0101405810000005943331TRANSWELL ENGINEERING CO.                                1601
A0601400520000004423192CARPIO, SHEILA BORRERO                                   0501
A0101412630000004062086BANZUELA, ELEANOR ADORNA                                 0502
A0101412630000007158110BALDEO JR., MANUEL CRUZ                                  0502
A7201400170000006487461FARMACIA JUANA                                           0501
A0101412920000003464908BARRETTO, JOCELYN EXCONDE OR                            10503
A0101412920000003464908BARRETTO, KRISTEL JOY                                   20500
A0101400440000007904870SHERRYL B. FLAMIANO                                      0501
A0101400440161192214001MANUEL DE LEON OSORIO                                    0502
A0101407270000007987077BRAGAS, DIANE KAREN BUTAY                                0502
B0101407270162041339001PRIMERA PHARMA CORP.                                     1605
B0101407270162044207001ELIXER MULTI-PURPOSE COOPERATIVE                         1620
B0101407270162064886001PIROUETTE CORPORATION                                    1601
A0101401090171063399001DE VILLA, A DBU ARETE RESEARCH                          10501
A0101401090171063399001& REVIEW CENTER                                         20500
A0101401090171368642001ARLENE Z. AGUILAR                                        0501
A0101401090171417083001ABIGAIL T. PAGALILAUAN                                   0501
A0101401090171492683001JEANELYN P. SUNGA                                        0502
B0301400660000003361953ORIENTAL & MOTOLITE MARKETING CORP.                      1602
B0301400660194044769038LUMINOUS DEVELOPMENT CORPORATION                         1610
B0301400950000002115964ESTIMADA, SHERWIN LASAGA AND PORRAS,                    11601
B0301400950000002115964CARMELITA Z.                                            21600
B0101401380000000106692NOCOM & COMPANY, INC.                                    1605
A0101413020000003055290JOROLAN, LIDA GALAPIN DBU G Y C                          0502
A0101413020000003055314JVF COMMERCIAL AND PROJECT DEVT                         10505
A0101413020000003055314SUPPORT SERVICES                                        20500
A0101413020000000038344FRANCISCO JR., RICARDO ARCILLA                           0501
A0101413600000006604913EDELIZ T. TAN                                            0501
B3101400160221064925001MEGAPOWER ELECTRO - MECH CONSTRUCTION                   11601
B3101400160221064925001CORPORATION                                             21600
A3101400450000004751713ALARVA, VIDAL VILLAPANDO                                 0501
A3001400130000005708498MATULIN, WILFRED ANORA                                   0502
A3001400130000006145262DELICANO, MECHIEL                                        0501
A3001400130230796142001TANO, MERLINA RAGAS                                      0501
A1001400190000002266691JAKOSALEM, VIRGILIO TORRALBA                            10503
A1001400190000002266691DBU VIPER MARKET                                        20500
B1001400190000008744123NEOTRINITY CORPORATION                                   1610
A1001400190231520766128MAGLANGIT, JONIE QUIACAO                                 0501
A1001400190231629873001BOMEDIANO, ANASTACIA SEMAFRANCA                          0502
A1001400350000000922058ARENO, ANN JANE BUCO                                     0502
A1001400480000002300372GALUT, MYRNA MANGALLAB                                   0502
A1001400480000008501922BOLLOZOS, SHELDON LABASAN                                0501
B1001400480000007775286DOUBLE SEVEN CORPORATION                                 1603
A0101406620000004925873******                                                   0502
B0101406620273015217001LANDPATCH CORP.                                          1604
B0101406620273031145001KOHL INDUSTRIES CORPORATION                              1603
B0101406620000000962501SEENERGY MULTI-PURPOSE COOPERATIVE                       1601
B0101406620273642590001TERRAPRIME, INC                                          1615
A0101410980000009231954SALANGA, SUSAN CARLOS                                    0501
A0101411820000004981762ALBAN, NYMPHA MARIE LUCERO                               0501
B0101411820277048022001FORGEMS MARKETING COMPANY, INC.                          1605
B0101411820277048023001FORGEMS PLUS TECHNOLOGIES CORPORATION                    1605
B0101400570281063498001THE EPISCOPAL CHURCH ACTION FOR RENEWAL                 11601
B0101400570281063498001AND EMPOWERMENT                                         21600
A0101400570281186867001DR. DIANA JEAN ROXAS                                     0501
A0101400570281388539039ROSAURO E. MANUEL                                        0501
A0801400160311033342001ILOILO PRIME REALTY MARKETING                            0501
A0801400160311413609001LIM, JOSEPH PO                                           0505
A6601400120314593270001DIAZ, REO DBU RUDMAR TRADING JT                          0505
B2001400290315064947001XTENSA INC.                                              1601
B0101402350321006431001OLIVAREZ REALTY CORP.                                    1608
B0101402350321024658002OLIVAREZ COLLEGE INC.                                    1608
A0101402350000005645092BASCUGUIN, GLADYS B. DBU GBB RE                          0501
A0201400920000004087423OSORNO, ARNEL ARDA                                       0502
A0201400920375478374015GAYO, LOURDES O.                                         0502
A0201400890376515159001LARIDA, ELISA MINA                                       0503
A0101408370000000586038QUINIO, IRENE BALLICAS                                   0501
A0101402770000001570725DBU CHRISTINE MANALO VILLAMORA                          10501
A0101402770000001570725INTERIOR DESIGNS                                        20500
A0101405490000000444397VIVIAN V. BADEJOS OR JONATHAN                           10502
A0101405490000000444397C. DINOY                                                20500
A01014084000000018553813BSA BUILDERS                                            0503
A0101408400000001855381ABSA BUILDERS                                            0503
A0101409180000003882348SHERILL ENCARNACION                                      0501
B0101409180397044045001CACHO CONSTRUCTIONS, INC.                                1602
B0101409180000000036597ICONIC DEALERSHIP, INC.                                  1601
A0101409180000003310221HERNANDEZ, RAFAEL ANTONIO E. OR                         10501
A0101409180000003310221HERNANDEZ, MARIA                                        20500
A0101409210000004092255ENDOZO, LEAH APOSTOL                                     0501
B0301400820000001554792VIC IMPERIAL APPLIANCE CORP.                             1601
A5501400120000002949597MANLANGIT, BERNEL D. DBU VDM MA                          0501
B5501400120000005492413SURALLAH PENVIL FAMILY COMMERCIAL,                       1605
A2401400180000000073550ALBARRACIN, JEMAR DEGAMO                                 0501
A2401400180000005536723ARGUELLES, SHIELO DUBOUZET DBU                           0501
A2401400180411514423001DEALA, BERNARDITA GATCHALIAN                             0502
B0101403030441064937001SYLING BROS., INC                                        1601
A0101412890000001056440CRUZ, PAULITA BERNARDO                                   0502
A0101412890000005913340TAI, EVELYN SIA                                          0501
B0101403320471008879002GOLDWIN MANUFACTURING                                   11610
B0101403320471008879002LABORATORIES                                            21600
A0101403320471033222001PHENOLIC TRADING                                         0505
B0101403320000000522290FIREBIRD HOME DEVELOPMENT CORPORATION                    1602
A0101403320000004830951MANZANARES, MA. LOURDES D.M.                             0502
B0101406330000000432573FULRUBELL CORPORATION                                    1605
B0101406330000000162478JOSE JR.,IGNACIO/REGIO,ELISA/SAYOS,MA.CE                11602
B0101406330000000162478CILIA/MATRE,DANI                                        21600
A0101406330472369996001DOLORES P. SUMADIC                                       0501
A0101406330472427734001ERNESTO T. REYES                                         0503
A0101406330472478374037LOLITA D. AMADOR                                         0501
A0101410140475478374010PELAEZ, BEATRIZ GUEVARRA                                 0501
A0501400170000009116592CAYABYAB, LUISA FERNANDEZ                                0501
B0501400170481015879001TDG VEHICLE SALES DEPARTMENT                             1610
B0501400170481015881001TOYOTA DAGUPAN INC.-2                                    1610
A3801400170000006083883CZAR OPENA CABALLERO                                     0502
A1901400160000005632628ALBAY, RUSSEL RUBILLOS                                   0502
B1901400160491341189001VIRGINIA R VARGAS OR                                    11601
B1901400160491341189001RICHARD D LIM                                           21600
B1401400110000005945388HOLANDA, W DBU COMPREMED TRADING                         1602
A1401400110492541441001MANTALA, ROSEMARIE ARAOJO                                0502
A1401400110492575977001HERRERA, MA. BULAKLAK ROSAS                              0501
B0101403580511005406001SHINRYO (PHILIPPINES) COMPANY INC.                       1605
B0101405940512041188001PREMIUM WINE EXCHANGE INC.                               1601
B0101405940512821200608**********                                               2002
B0101412050000007801530COOLAIRE CONSOLIDATED INCORPORATED                       1605
A0101403610000006637034**********                                               0501
A0101403610531064530001YEO KA CHU, M DBU YEOMAN PLASTI                          0501
B0101403610531064892001BALIBAGO BUS LINE INC.                                   1601
A2201400250000001066073JCP AND 3 SONS TRADING CO.                               0504
A2201400250000001932258RCT MED PHARMA CORPORATION                               0503
A0101407720000000051130LEGASPI, LILIAN DOMINGUEZ                                0504
A0101407720602358982001FLUER DE LIZA H. LEBUMFACIL OR                          10501
A0101407720602358982001GERALDINE ANN LEBUMFACIL                                20500
A0101407720602380476001JAMORA, MARIA JASMIN JACINTO                             0501
A0101407720602396958002GALI, CELESTE AIDA GILBUELA                              0501
A0101404260611549813001GALLANOSA, JOEL VELASCO                                  0501
A0101404260611607634001MARIA FATIMA B. SANTOS                                   0501
A0101411530000003238275MACAPAGAL, JENNIFER VILA OR                             10502
A0101411530000003238275MACAPAGAL, EINAR LUNA                                   20500
B0101411530000003238344BEYOND SCENTS ENTERPRISES                                1602
A0101413440000000702441ANTONIO, GINA ASIS                                       0501
A0101413570000005435212ROY A. SANTOS                                            0502
B0101413990000000206146CHEN KHARECE TRADING CORP.                               1602
A0101406590000000568805LOGARTA, MICHELE TORRALBA                                0501
A1301400210000000540652LEONCIO, GENE ANTHONY GIRON DBU                          0501
A1301400340683478374058RUBIO, YUME ADANTE                                       0501
A1301400500000002063992JOSHUA & JAMES CONSTRUCTION                              0503
A1701400230000005694102SALAZAR, EDWIN ENRIQUEZ                                  0505
A0101408240000006599902ALMANZA, RONALD MARASIGAN                                0501
A0101408240711408868001ARTURO D. TANO OR ANA MAY WONG                          10502
A0101408240711408868001LEE                                                     20500
A0101408240711449303001MORALES, PEARL MERCEDES ARCACHE                          0501
B2801400100712028150001SUBIC NEXUS TECHNOLOGIES INC.                            1603
A4101400260000002888346CLAUDIA M. NABOS                                         0501
A4101400550000007583762ROLDAN, GILBERT DELOS SANTOS                             0502
A4101400550000003266982*****                                                    0501
A0101412340000004360070JEFFREY PHILLIP R. SUELEN                                0501
A0101404840000008968530ANGELES-BAYOG, MARGARITA OCRETO                          0501
A0101406750000000172843GABAYNO, DELIA CHAN                                      0501
A0101406750000003393162GHALAINI, GHASSAN ABDULL RAZZAK                          0501
A0601400230000001687090GUTIERREZ, JOSEPH MONTES                                10502
A0601400230000001687090OR GUTIERREZ, MA                                        20500
B0601400230000000029894DREAMMAKERS PHILS CONSTRUCTION COMP                      1602
