B0101406040112821100608**********                                               2005
B0101406040112821100608**********                                               2005
B0101406040112821100608**********                                               2005
B0101406040112821100608**********                                               2005
B0101401380201821100608**********                                               2002
A0501400170481712963001SALAZAR, MA. JOSEPHINE F.                                0502
A0101406460272336562001SEMILLA, JENELYN PAJINAG                                 0502
B1401400110492776542001****************                                         1601
A0101409920000007304914RUBIS JR., AMADOR CASTILLO                               0501
A0101414120000011288863TORRALBA, MA. EMILIA ASIS                                0502
A0101414120000000398892A.R.P. TRUCKING                                          0502
B0101414120000003584281JD & P FOOD TRADING CORPORATION                          1602
A0101414120000000875509RESNA BUILDERS & SUPPLIES                                0502
B0101414120000001984289DEMPSEY RESOURCE MANAGEMENT INC.                         1601
B0101412500000000041670MOLDEX REALTY INC.                                       1605
B0101410300000000191531PERALTA, MONETTE RIVERA JT                               1603
A0101405070861399414001RACELIS, DENNISE DINAQUE                                 0505
A0101400860011425868001**********                                               0502
B0101400860011427569001**********                                               1601
A0101400860011501216001**********                                               0503
A0101401250000011296923BINAS, JULIE NUAL                                        0501
A0101400150061354288001CORAZON G. TAGLE                                         0501
A0101400150000006551055ESTACIO, ERIK CHOI TIU                                   0501
A0101400150061501754001LOPEZ, MANUEL MORALES                                    0501
A0101410560000001944072VALEN, ROSANA RETIG                                      0502
A0101400730111477184001MARCOS, BEVERLY MEYAS                                    0502
A0101406040000007842659UY, RAYMOND VY                                           0501
B0101406040000000096662CONCEPT SPECIALIST, INC.                                 1605
A0101406040112373801001MONTEVIRGEN, EMELINDA CANAS                              0501
A0101413310000001073892NAZ, NICK ANTHONY NUNEZ                                  0501
A0101413310000005433205DAMPIL, RONALD MENDOZA                                   0502
A0101401830141281212001IMELDA G. CABALUM                                        0501
A5001400170000000169700KMMR TOP PHARMACY INCORPORATED                           0501
A0101407270000014139863MARTIN, MADEL GONZALES                                   0501
B0101401090171007908001PERPETUAL SUCCOR HOSPITAL &                             11605
B0101401090171007908001MATERNITY, INC.                                         21600
A0101401090000001619030PESO, MARIA CECILIA S. OR                               10502
A0101401090000001619030AQUINO, MARIA CR                                        20500
B0301400530193037457168SHIRLINA LU OR                                          11605
B0301400530193037457168WILLIAM LU                                              21600
B0301400660000006755173**********                                               1601
A0301400660000006862942RCDC TISSUE SUPPLIES                                     0501
B0301400660000001113802CHIU, CLAUDETTE CUE                                      1601
B0301400790195065500001JABEZ LA PRIMERA POWER FIVE                             11602
B0301400790195065500001CORP.                                                   21600
A0101401380000009961362DE LA CRUZ, AILEEN NAVARRO                               0501
A0101412500000014186848RICAFORT, ANTHONY JAY ROSOPA                             0501
A0101413600000002276491PONCIANO E. RIVERA JR. OR                               10507
A0101413600000002276491TERESITA C. RIVE                                        20500
A0101413600000005794698PETE NOGALIZA DBU CRECIENTE                             10502
A0101413600000005794698INTERNATIONAL MARKETING                                 20500
A3101400450223479277001AGONCILLO JR, JOSE OR SUSAN                             10501
A3101400450223479277001CHARITO                                                 20500
A3001400130230687086188********                                                 0502
A3001400130230713045001CALO, ARTURO MONTEROSO                                   0501
A1001400190000002170769JUGAN, NOUE MALOLOT                                      0501
A1001400350000012928064TABASUARES JR, SEVERINO VELASCO                          0501
A1001400350233599284001ELEAZAR, NANCY CONCEMINO                                 0502
A1301400760000005379411VON RYAN J. MARQUEZ                                      0502
A1301400760000013988179GRASSTONE TRADING                                        0501
B0101401670271007091002JUSON REALTY DEVELOPMENT CORPORATION                     1601
A0101401670271186236006CLARITA S. TANG OR MARGRIET S.                          10502
A0101401670271186236006TANG OR HELEN TA                                        20500
B0101406460000001231656EASTGATE COMPUTER CORPORATION                            1601
A0101406460272197187001AGCAOILI, CANDIDA CABATU OR                             10503
A0101406460272197187001AGCAOILI, TEODOR                                        20500
B0101408660274038999001FRASOR GLASS AND ALUMINUM INC.                           1601
B0101408660274042655001FIRST SCAN PHILS., INC.                                  1601
B0101411820277048023001FORGEMS PLUS TECHNOLOGIES CORPORATION                    1605
A2601400270000007951177RAYMOND RUEL D. VALLE                                    0501
A0801400160000013623815FRIAL, VICTORIA AGUDO                                    0501
B1101400120000000652880YAO, ANTHONY ROBERTSON GO AND YAO, MARK                 11605
B1101400120000000652880ALAIN GO                                                21600
A6601400120314627865001MOSCARE, DAISY LILY OPINION                              0501
A2001400290315641654001LOZANO, PALMA JANE LIMPIADO                              0501
B0101402350321006984001INTEGRATED HYDRO-PNEUMATIC                              11610
B0101402350321006984001SYSTEMS INC.                                            21600
B0101402350321713326001IDESCON, INC.                                            1602
A0101405650322496481001PANGANIBAN JR, JOHRIEL CRISPIN                           0501
A0101402510000011695233KIM, JONG HO                                             0503
B0201400760000000223098CHOCO HILL FOOD CHAIN, INC.                              1601
B0201400890376062549001GIBBY'S EQUITY GROUP, INC.                               1610
A0101402930381232212001MA. ESTELLA ABAD SANTOS                                  0501
A0101415350000005356889MARCELO, LEA D. OR GABINETE                             10501
A0101415350000005356889MARIE SUZZETTE Z                                        20500
B01014027700000068124627 SEA AIR & LAND LOGISTICS SERVICES                      1601
A0101408400000000029514SULIT, MARIA ADELMA ALVARADO                             0501
B0101408400000001258599PASAY ULTRASOUND AND PERINATAL SVC.                      1603
A0101408400394468610001HIDALGO, JOY CORAZON LORENZO OR                         10502
A0101408400394468610001HIDALGO, JAIME F                                        20500
A0101409210000007762954TOLENTINO, JENAIDA MANDADO                               0502
A0301400820000002106285FONTANILLA, ARNOLD S. OR                                10520
A0301400820000002106285FONTANILLA, EVELYN D.                                   20500
A5501400120410622095001CORDER, JAIMELITA OR EDWIN                               0502
A2401400180000010066401MALANA, ZENIA CONGSON                                    0502
A2401400180000012748551********                                                 0503
A2401400180000007031723LA MIRADA INN                                            0503
A2401400180411514423001DEALA, BERNARDITA GATCHALIAN                             0502
A0901400220000011299262THREE J BUILDERS AND DEVELOPER                           0501
A0101403030441029489001**********                                               0506
A0101403030000005944670**********                                               0501
A0101403030441306357001**********                                               0501
A0101406330472478374041ROSEMARIE A. NAPIGKIT                                    0502
B1401400110492046339001SOUTHERN QUEZON PACIFIC OIL MILL                        11606
B1401400110492046339001CORPORATION                                             21600
A1401400110492377230001BAUTISTA, MA. CHERRY REMOROZA                           10501
A1401400110492377230001OR BAUTISTA JR., NARCISO                                20500
B0101407430000006027801LIGHT RAIL MANILA CORPORATION                            1602
B0101403450000002975655***************                                          1602
B0101403450000008380763**********                                               1614
B0101403450521344500001**********                                               1603
B0101403610000006637170CATALONIA, M DBU MJ CATALONIA TRADING &                 11602
B0101403610000006637170CONSTRUCTION                                            21600
A2201400250000012982588CO, PAUL JEREMIAH KHO                                    0501
A2201400250561028844002CHRISTIAN HOME FURNISHING                                0501
A2201400250000012982960CO, RICHMOND DBU CHISTIAN                               10501
A2201400250000012982960HOME FURNISHING                                         20500
A2201400250000012982413CO, JUANITA KHO                                          0501
B0101412180000001293049AUTO MAGIC CORPORATION                                   1602
A0101409890000006812860GAJUDO, JAY VALLEDO                                      0502
A0101409920000000998683MEMBERS OF NATASHA (SHOECAT INC                         10501
A0101409920000000998683AJETO, MERCY L.                                         20500
A0101413440000000570449BACO, KING MARK PAGSIAT                                  0501
A0101413440000002125371RAFAEL, ROSARIO LAYUG                                    0501
A0101413440000007953311ASAYO, JAYLORD TACAZON DBU                              10503
A0101413440000007953311GTEA-HAVEN WELLNESS HUB                                 20500
B0101413440000001085712ROTARY CLUB OF BALINTAWAK                                1601
A0101413570000003380021NEGRE, JOHANNE DANIEL OR                                10501
A0101413570000003380021PAGUNTALAN, GERALDINE                                   20500
A0101413570000013875933DESALIT, CHARDENE LEDESMA                                0501
A0101414120000002879830ROSARIO JR., NICANOR DACASIN                             0501
A0101406590662323104002MADAMBA, EVANGELINE YAP                                  0502
A0101410300000007613927MURILLO, VINCENT JOSEPH SORIANO                          0502
A1301400340683559768002*************                                            0510
A1301400500000000213163NORVY G. MARCELINO OR GILLYN                            10505
A1301400500000000213163D. MARCELINO                                            20500
B0101408240000010815197GAUDI7 PROPERTIES CORPORATION                            1601
A4101400260812035863001GREAT CAVITENO TRADING                                   0502
B4101400260000006043829GNM MAHNLEN TRADING INC.                                 1603
A0101412340000007305757EVELYN D. ALVAREZ                                        0501
B0101412340000000030935CHICHIRITA, DBU MPROB INDUSTRIAL PARTS                  11601
B0101412340000000030935AND SERVICES                                            21600
A0101404840851770300001MARLON R. PAPARES OR MA. MARGAR                         10501
A0101404840851770300001ITA N. PAPARES                                          20500
A0101406750000000172796OLARITA, MARIA ANA CORDEZAR                              0501
B0101405070861008154001KUMAR PLASTICS                                           1603
B0101413860000001767906GLEN CEDAR INSURANCE AGENCY CORP.                        1602
A0601400230000010702808CABREROS, DAY CLARENCE DIZON                             0502
B0601400230000010299211RD PAWNSHOP, INCORPORATED                                1605
B06014002300000060452907R FINANCE CORP.                                         1605
B2001400290315688888001**********                                               1610
