A0101409890000000004593RAGOS TY, DESMOND CARVEY TAN                             0501
A1001400190000000016480ANGELITUD, LYDIA LECIAS                                  0501
A0101404420000000026053ARGUELLES, DAISY CRUZ                                    0501
A0101401700000000040068TUBLE, CHRISTIAN CHUATOCO                                0502
A1001400480000000041534BASHER, ASHARY ABDULWAHAB                                0501
A0101406040000000096811********                                                 0501
A0101400730000000112881GUTIERREZ, DOMINICA DALISAY                              0501
A0101400310000000141051FERRER, JUN ALEXTER DE LA LUNA                           0501
A0101400310000000141062ESCOVILLA, ROSANNA ORTIZ                                 0501
A0101402510000000200222LUCY MAY B. CANASTA                                      0501
A0101413600000000206824CHESING GENERAL MERCHANDISE                              0501
A0101408240000000347539RIVERA, RANDOLPH MARK DOMINGO                            0501
A0101408240000000347540PINESLIGHT MANPOWER SERVICES                             0501
A0101402060000000445549CRUZ, CRIS HERBERT MARTIN                                0503
A0101405650000000448453AQUINO, CHRISTIAN CASTRO                                 0501
A0101404840000000475952GONZALES, ROWENA POLLICAR                                0501
A1601400170000000497592MARLYN A. RELINGADO                                      0501
A0101412470000000520294*******                                                  0501
A0101412470000000520301DIAZ II, MOISES LELIS                                    0501
A0101409920000000523653CLEMENTE, L DBU BLYZ TRADING                             0502
A0101404000000000574618OH, JONG EUN                                             0503
A0101402930000000580803SUNGA, LAEDA BENEDICTO                                   0501
A1001400480000000606940ENTOMA, RIZA BALANSAG                                    0501
A0101413570000000635676CHARO DE HITTA                                           0503
A0101402930000000859736ALMA V. PATAY                                            0501
A0101404420000000866440FELICIANO, MELVA PATALINGHUG                             0501
A4101400390000000975173NOAH'S ARK MANPOWER SERVICES                             0503
A0101403030000000993984YAP, AMY DELA CRUZ                                       0502
A2601400270000001009250NOEL V. QUIATCHON                                        0505
A2601400270000001009272SATURNINO A. RAMIRO                                      0502
A0301400820000001027792DELA CRUZ, MARIA THERESA BELLA                           0502
A1001400480000001054700MEJARES, DARCY GARREN GAID                               0501
A6601400120000001065281ECHALUCE, RAFAEL OR MYRNA                                0502
A1601400170000001068702ANA MARIE B. BARRAMEDA                                   0502
A0301400820000001185713ARANETA, EVA NANCY P.                                    0501
A1301400760000001295490KENNETH DC. MACALINAO                                    0501
A1301400760000001295507VICTORINO W. MANGABAT JR.                                0501
A0201400920000001331833CEBRERO, JAPHETH VILLANUEVA                              0501
A6601400120000001370672BROTO, ANTONIO SEVILLENA                                 0502
A0101412050000001499749QUILOAN, ZENAIDA SAMERA                                  0501
A0101405940000001534258BAUTISTA, JUVY PAGSUGUIRON                               0501
A0101412890000001765415CAMORONGAN, RONIMIE VELASCO                              0501
A0101411950000001771035ASCO, ELIZABETH CANASA                                   0501
A0301400790000001776183SAMSON, PETER JOHN PIELAGO                               0501
A1101400120000001920430MAILIM, ERLINDA PADULLO                                  0503
A3101400450000002092866PAURA, ANITA MANUEL                                      0503
A0101401700041190452002******                                                   0510
A0101400150061236944046JOHANNA S. HERNANDEZ                                     0501
A0101400600071233729001**********                                               0501
A0101400600071457180001**********                                               0501
A0101400600071478374009******                                                   0502
A0101400730111199231001BUNAN, MANUEL G.                                         0501
A0101406040112256305002BARBARA G. DELOS REYES                                   0502
A0101401830141338177001ETHYLENE TAN ONGCHAN                                     0502
A0101400440161036868003JOB-ON-LINK STAFFING SERVICES                            0504
A0101400440161520766042MONINA H. DUKA                                           0501
A0101400440161520766079MARCELINA LAPUZ                                          0503
A0101401090171195828001SANCHEZ, JOSEFINO IGNACIO                                0510
A0101400310211044313001EXICON CONSTRUCTION SUPPLY                               0501
A0101400310211167264001REYES, VILLANUEVA LACAP                                  0502
A0101407140213190756002LIM, DONNA S.                                            0503
A3101400160221221196002LEONILO ERCIA                                            0510
A3101400450223028468001NEW ARMSTRONG SECURITY AGENCY                            0502
A3001400130230045294001TABASA, RICKY CARPIANO                                   0502
A3001400130230478374001MARY JEAN B. CASAS                                       0501
A1301400470252444744002PAMELA FAYE P. CRUZ                                      0501
A0101401670271452929168***********                                              0503
A0101406620273215980002GLORIA CHOA CHUA                                         0501
A0101406620273524846001PABUSTAN, REMEDIOS MATIC                                 0501
A2601400270302476252001********                                                 0501
A2001400290315043996001STOP N' SHOP ENTERPRISE                                  0506
A0101405650322170618002SAN PEDRO, TERESITA S.                                   0503
A0101408820333638235001******                                                   0501
A0201400760374030540001ST. FRANCIS MANPOWER SERVICES                            0501
A0101402930381150057001PAUL TANCHI OR JENNY TANCHI                              0501
A0101402930381205187002JOCELYN M. RESURRECCION                                  0501
A0101409210398786227001CAPICOY, ANNA CHRISTINA PASTOR                           0505
A5501400120410274259088JAVELLANA, BETTY PO                                      0501
A0901400220432079352001ONG, LIONEL ROY ZAPANTA                                  0502
A1401400110492620230001DELOS SANTOS, ENRICO PEREZ                               0503
A0101408530516548003001EUGENE T. TAN                                            0502
A0101403450521240346001**********                                               0502
A0101407720602343467001HENSON, GERARD FORES                                     0501
A0101407720602496503017DICK A. CORTES                                           0502
A0101404260611043969001FREEDOM B TRADING                                        0502
A0101404260611337876002CHING, ROSA MATIAS                                       0503
A0101404420631478374134DENNIS F. GULA                                           0501
A1301400210682245541001ALICE F. CASTILLO                                        0502
A0101408240711769346001ALBANO, GILMENA CUDERA                                   0502
A0101403320000001646891CUA, EDWARD SALVADOR OR                                 10502
A0101411950000001771046TAMPIS, MA. LUZ C. OR                                   10501
A0101401830141206536001PEDRO S. FLORES OR                                      10505
A0101407270162300223002DANIELA A. PAYAWAL OR                                   10501
A0101400310211005848001ALMANSUR TRADING                                        10501
A0101407140213317389002LIM, EDSON LEE OR                                       10502
A1301400470252529647001MICHAEL PATRICK L. BANZON OR                            10501
A0101401670271192707006FEDERICO C. LIM OR TORRES,                              10502
A0101406620273046520001FAMA, JOHN JASON DBU                                    10502
A0101406620273280285001PELAGIO / ROSARIO / REBECCA /                           10501
A2001400290315043995001NAVARRO STOP N'SURF INTERNET                            10502
A0101402930381041949001METT MOTIVATIONAL ENGLISH                               10502
A0101402930381205137001DR. ROMANITO C. CABALONA OR                             10506
A0101402930381419788001ALMARITA JIMENEZ OR                                     10501
A1901400160491244484001IRENE H BERBA OR                                        10505
A1901400160491250555001MARCELO  BUQUID OR                                      10501
A0101405940512360728001ERWIN P. HERNANDEZ OR AGNES                             10501
A1301400340683613009001GICHELLE R. IPAPO OR                                    10502
A1301400500684611370001STA. JUANA, ELENA L. OR                                 10502
A0101403320000001646891AILEEN CUA                                              20500
A0101411950000001771046TAMPIS, NORBERTO D.                                     20500
A0101401830141206536001IRMA G. FLORES                                          20500
A0101407270162300223002SERGIO B. PAYAWA                                        20500
A0101400310211005848001BY: LUZVIMINDA V                                        20500
A0101407140213317389002ONG, CHARLIE                                            20500
A1301400470252529647001EMILY GRACE V. BANZON                                   20500
A0101401670271192707006VIRGINIA CHRISTINE L.                                   20500
A0101406620273046520001AGILE PARADOX I.                                        20500
A0101406620273280285001RAFAEL / ROWENA                                         20500
A2001400290315043995001CAFE                                                    20500
A0101402930381041949001TRAINING & TUTORIAL                                     20500
A0101402930381205137001LORETA E. CABALO                                        20500
A0101402930381419788001MA. REGINA COELI JIMENEZ                                20500
A1901400160491244484001CARLOS R BERBA                                          20500
A1901400160491250555001JOSEPHINE BUQUID                                        20500
A0101405940512360728001T. HERNANDEZ                                            20500
A1301400340683613009001JAYSON S. IPAPO                                         20500
A1301400500684611370001STA. JUANA, FATIMA                                      20500
B0101407560000000003607*****************                                        1601
B0101410850000000005643LIKAS YAMAN SERVICE CORP.                                1605
B0101410850000000005676LIKAS SHIP AGENCY INC.                                   1605
B0101405650000000013112DEARJOHN SERVICES, INC.                                  1601
B1001400350000000017096AYA VENTURES CORPORATION                                 1604
B0101406750000000017592COUNTRYTRADERS, INC.                                     1603
B0101407720000000017694MAKATI MEDICAL CENTER-MEDICAL STAFF                      1601
B0101401830000000033569CARITAS SALVE CREDIT COOPERATIVE                         1601
B0101408530000000035812HUGE MANUFACTURING CORPORATION                           1602
B0101406620000000193942SOURCEFIT PHILIPPINES INC.                               1601
B0101409050000000258553EXAAMP, INC.                                             1601
B0301400950000000566923DAVAO TOPCHING AUTO PARTS                                1603
B0101402930000000623374CCF LIFE ACADEMY FOUNDATION INC.                         1602
B0101412470000000949566POSTMANILA, INC.                                         1605
B0101400600071233681002**********                                               1606
B0101407270162040676001MARGANN, INC.                                            1605
B0101407270162044101001CHUCKFIELD, INC.                                         1605
B0101400310211042537001***                                                      1603
B0101400310211046817002LINKS & VISIONS, INC.                                    1602
B0101402930381008800001THE PEARL PLAZA INC.                                     1603
B0101403030441012179001**********                                               1602
B0101407430503023639001LAMBERT WILLIAMS LOGISTICS, INC.                         1610
B0101403450521011604001**********                                               1610
B0101403450521011954001*********                                                1603
B0101403450521011989001**********                                               1610
B0101404000551046316001PHILAB INDUSTRIES, INC.                                  1603
B1101400120000000653014ANDRADE,WILLIAM AND ANDRADE,VIRGILIO AND                11602
B0101406620273036393001REYES, REYES & RIVERA-LUMIBAO LAW                       11602
B2601400270302045063001ISABELA UNITED DOCTORS MEDICAL                          11610
B1101400120000000653014ANDRADE,FRANCISC                                        21600
B0101406620273036393001OFFICES                                                 21600
B2601400270302045063001CENTER, INC.                                            21600
B2301400150301821200608**********                                               2001
