B0101404710681821100608**********                                               2010
A0101402930920130000089PLOPENO, NOEL DBU NOTEPEAL                              10505
A0101402930920130000089DEVELOPMENT                                             20500
A0101402930381488888001EDWARD P. LIM                                            0502
B2001400290315688888001**********                                               1610
A2401400180000005536676*********************                                    0502
A2401400180411535356001DOPLAYNA JR., HASDROBAL                                 10510
A2401400180411535356001DESAMERO                                                20500
A2401400180000005536552MANANGQUIL, JOHN RAY BETITA                              0501
B0101403030441021825001**********                                               1603
A0101400860000002333591******                                                   0503
A0101400860011559995001**********                                               0503
A0101400860011681002001**********                                               0502
A0101400860011779757001**********                                               0505
A0101401250021180271001ERLINDA V. EQUIBAL                                       0501
A0101401250021401825001CHUA, REYNALDO MAGNO OR                                 10504
A0101401250021401825001CHUA, EMMA GESLANI                                      20500
A0101401250021453364001TORREJOS, ALFREDO OR                                    10501
A0101401250021453364001RYAN ALVIN OR CARMEN                                    20500
B0101400150061043646001ARRAKIS HOLDINGS, INC.                                   1602
A0101400150000001708083SERVER, ERNEST FRITZ DULA OR                            10501
A0101400150000001708083SERVER, CHRISTOP                                        20500
A0101400150061739693001***********                                              0501
A0101400600071496801002******                                                   0502
A0101410850000002356896*************                                            0505
B0101406040000000014815TWINCOM ASIA PACIFIC INC.                                1605
A0101401830000001139997VIOLAGO, MA. MERCEDES MENDOZA                            0501
A0101401830000005095843MELANY MAY M DALIDA OR                                  10501
A0101401830000005095843SANCHO C DALIDA                                         20500
A0101401830141037575002MATATAG PRINTING PRESS                                   0502
B0101401830141205618002ST. JOSEPH SCHOOL OF PANDACAN, INC.                      1610
A0101401830000005690800MAGTALAS, GEMMA B. OR                                   10505
A0101401830000005690800MAGTALAS, JOHN GEMMO B.                                 20500
A7201400170000003773160ALEGRADO, FLORENCE CORAGE                                0501
A0101412920000001313739ADAZA, EVA VERA OR                                      10503
A0101412920000001313739ADAZA, ROQUITO S                                        20500
B0101412920160057483001ADAZA, EVA VERA DBU KTOYZ MOTOR ENT                      1601
A0101400440161478374021DOROTHY D. SANICO                                        0501
A0101400440161525001116MARITESS Q. MIRANDA                                      0501
A0101407270162331908140LORELA Z. ALIPIO                                         0501
A0101401090171196050001DR. MENNEN OR ANNA ALSOL                                 0501
A0101401090171200092001AGNES Z. CRUZ                                            0501
A0101401090171399340001CARMEN S. QUESADA                                        0501
B0301400530193038633008JHG TRADING, INC. - A                                    1610
B0301400530193043054001TAGUM CITY COUNCIL OF WOMEN, INC.                        1605
A0301400660000005691712CORONG, LUZVIMINDA BARBA                                 0502
B0301400660000003362052DAVAO DYNAMIC INDUSTRIES CORPORATIO                      1601
A0101401380000002297550**********                                               0501
A0101413020000003055358ANGELES, MA.LENY DBU NY2 ENTERP                          0502
B0101410720210821100608**********                                               2003
B3101400160221224862001JOYME ROCKSCAPES CORPORATION                             1602
A3101400870000005410235BUERE JR., ROMULO DE VERA                                0502
B3101400870000005960687NORTHSTAR TECHNOLOGIES INDUSTRIAL                       11605
B3101400870000005960687CORPORATION                                             21600
A3001400130000001271669OLACO, BELINDA LACORTE                                   0501
A3001400130230478374004BALABA, JANETH BORJA                                     0501
A3001400130230478374006SALAS, SEZIEL GENER                                      0501
A1001400190231032517001FRAN-FRAN TRADING                                        0503
A1001400190231520766031CARANO-O, JANFIR JANE V                                  0501
B1001400350233039880008NORMIN FOOD CHAIN CORPORATION - JOLLIBEE                11605
B1001400350233039880008LIMKETKAI                                               21600
B1001400350233039883018CENMIN FOOD CHAIN CORPORATION -                         11605
B1001400350233039883018JOLLIBEE XAVIER                                         21600
A1001400350233527287001MARINELA NERI VELEZ                                      0501
A1001400480000003357748DEDEL, PATRICK JUNE YEMA                                 0501
A1301400470000001299185MA. CRISTINA B. CARLOS                                   0501
B0101401670000008000842FERDINAND MARCELINA VALDERAMA FOUNDATION                11602
B0101401670000008000842INC.                                                    21600
A0101401670271192058001CARMEN V. SEGOVIA OR JACQUELINE                         10504
A0101401670271192058001ANNE CHUA                                               20500
A0101401670271304199001OLIVIA B. PABLO                                          0501
A0101401670271327375003ELVIRA L LIBORO OR MA ANNA                              10505
A0101401670271327375003XIMENA L LIBORO                                         20500
A0101401670000003181666BAESA, CORAZON PINEDA                                    0503
B0101401670271477778001VIRTUSIO PR INTERNATIONAL, INC.                          1601
A0101406620273485833001DE BELEN, GEM KRISTINE P.                                0502
A0101400570281188813001PALANCA, JOCYLINE AGUDO                                  0502
A2601400270000002677365BULACAN CONCRETE PRODUCT                                 0502
A0801400160000007444302WOO, JOHN KENNETH FINES OR                              10501
A0801400160000007444302WOO, PATRICIA SERVANDO                                  20500
A0801400160311785590001********                                                 0503
A6601400120000001105833CARDENAS, NICANOR OR IRMA                                0501
A6601400120314612853001INTAL, FERNANDO OR MARLENE                               0502
A6601400120000002249874GALVEZ, BALTAZAR DBU B. GALVEZ                          10501
A6601400120000002249874CONSTRUCTION                                            20500
A6601400120314668441002MASLOC, SHERRY AMOR GALONO                               0501
B3501400180317821100608**********                                               2003
A3401400280000003309180CAPUNONG, ROMULO DELCANO                                 0506
B0101402350321006752001LOPEZVILLE HARDWARE                                      1602
A0101402350321179411001LARRY RAMOS OR                                          10501
A0101402350321179411001HERMINIA RAMOS                                          20500
A0101402350321349226001********                                                 0502
A0101405650322670247001LUIS, MARIA DYESEBEL BLANCAS                             0503
A0101402510341278435001MARIE ELIZABETH Y. SOLIDUM, MD                          10501
A0101402510341278435001OR GIL M. SOLIDU                                        20500
A0101402510341305034001PINEDA, MA. THERESA CONCEPCION                          10501
A0101402510341305034001AND CO, ROSARIO                                         20500
A0101402510341381018001DANICA FRANCIA SANCHEZ CAUDAL                            0501
B0101402060351085656001REBINTECH CONSTRUCTION, INC.                             1604
A0101409050000001662471RAPISURA, JONALYN BLANCO                                 0501
B0101409050000000258531HENDERSON BLAKE BUSINESS SOLUTIONS,                      1602
B0201400760000005016682MARTIR, KATHE  DBU HAPPY FIT OPTICA                      1601
B0201400920000000047910JR INVESTING CORPORATION                                 1601
A0201400920000002804504BARENG, NATHALYN C.                                      0503
A0201400890376077824001NAVARRETE, RONALIN CONLU                                 0501
B0201400890376668181001ST. MARK'S RESIDENCIA, INC.                              1603
B0201401020000002250620********                                                 1602
A0101402930013120000238PORCINCULA, DBU MITONI BUSINESS                         10510
A0101402930013120000238VENTURES                                                20500
A0101408370382212341001ENGR. LEORICO E. SAMONTE OR                             10501
A0101408370382212341001DR. CRISTINA C. SAMONTE                                 20500
A0101408370382232546001DR. RAUL E. RAMBOYONG                                    0502
A0101408370382237007001DR. NENITA C. CRUZ OR                                   10505
A0101408370382237007001RODOLFO A. CRUZ                                         20500
A0101411660000005324009SEHWANI, JHARNA ARJANDAS OR                             10501
A0101411660000005324009SEHWANI, RAVIN ARJANDAS                                 20500
A0101411660384367370001JUGUETA, RONALD POBLETE                                  0501
A0101415350000007043752PARAJAS, ARSENIO P. DBU AAGP                            10506
A0101415350000007043752OR PARAJAS, GRACE                                       20500
B0101402770391033539001VICTORIA VALLEY ASSOCIATION, INC.                        1602
B0101402770391041647001G B B TECH ELECTRO MECHANICAL & DEV. INC                 1603
A0101402770391211287001ALVIAR, LOURDES RAMIREZ                                  0501
A0101402770391472751004DE GUZMAN, JERVIE RACELIS                                0503
A0101405490000002880551MARIE GRACE BUITRE DBU CEDAR                            10503
A0101405490000002880551TREE CONS. SUPPL                                        20500
A0101408400000007540076CARAG, MARC HENRY BUCALING                               0501
A0101408400000005286331SALINIO, NARCISO MANTIQUILLA                             0504
A0101408950000003171155TANJANGCO, MICHAEL ARGUELLES                             0502
A0101408950000007458953YAO, OLIVIA BORLONGAN                                    0501
A0101408950396761506001DONALD C. CRISTOBAL OR MA.                              10501
A0101408950396761506001FLORDELIZA A. CRISTOBAL                                 20500
A0101409180000003310232HERNANDEZ, RAFAEL ANTONIO E. OR                         10501
A0101409180000003310232HERNANDRZ, MARIA                                        20500
B0301400820000000024911DIGOS DOCTORS' HOSPITAL, INC.                            1620
A5501400120000006976869SABUDAN, JERRY LANAS DBU REDAN                           0502
A5501400120410729506001JOSOL, ARLIEN BACON                                      0501
B2401400180411032703001TOYOTA GENERAL SANTOS INC.                               1610
A2401400180411478374004MESRIYA ABDULLAH                                         0501
A2401400180411577135001***************                                          0505
A2401400180411621739001JACOB, NOEL RULLON                                       0501
A0101403030000000008999*******                                                  0502
A0101410140000001074908MEMBERS OF NATASHA (SHOECAT INC                         10501
A0101410140000001074908PENA, DINA Y.                                           20500
A3801400170000005287965MANALO, EARL ROALDO TALENS                               0505
A1901400160491422212001OLIVER B BORILLO OR                                     10503
A1901400160491422212001MARIBEL C BORILLO                                       20500
A1901400160491494343001RAINIER C UNTALAN OR                                    10506
A1901400160491494343001RELYN M UNTALAN                                         20500
B1401400110000005945457POWERPHIL HR NETWORKS, INC.                              1603
A1601400170000002333940JERRY U. PALANCA OR                                     10510
A1601400170000002333940KEITH Y. PALANCE                                        20500
A1601400170494047880001AIREEN I. SALAZAR DBU A.                                10502
A1601400170494047880001SALAZAR LEARNING CENTER                                 20500
A0101405940000005359771**********                                               0502
B0101406880000001286448CASES COLLECTION MANAGEMENT, INC.                        1603
B0101406880513021335002ACTIVE REALTY AND DEVELOPMENT CORP                       1610
B0101406880513037148001MULTI PLUS KONSTRUCT                                     1602
B0101406880513040116002GREENMILES TRANSPORT SERVICES CO.                        1602
B0101406880513281235002LUCKY MONEY LENDING CO., INC.                            1603
A0101406880513618947001HUKOM, SHERYLL JOY ROQUE OR                             10503
A0101406880513618947001HUKOM, EMERICO M                                        20500
B0101403450521011639001**********                                               1604
B0101403450521011643001**********                                               1602
B0101404000551005023001MECHANICAL HANDLING EQUIPMENT CO., INC.                  1620
B0101404000000000460940MTQCORP INC.                                             1605
A0101404130601451021008JESUS D. CHUAUNSU OR                                    10502
A0101404130601451021008JOVANNI V. CHUAUNSU                                     20500
A0101407720602396413002DR. RAMON FRANCISCO OR                                  10504
A0101407720602396413002IRENE FRANCISCO                                         20500
A0101404260000000550172PIA, KENNETH VINSON FERNANDEZ                            0501
A0101409920000001951931MEMBERS OF NATASHA (SHOECAT INC                         10501
A0101409920000001951931TRASPORTE, GINA                                         20500
A0101413990000007318687WILHELMINA C. REYES                                      0501
B0101406590000000035601NORZON CONST. AND DEVELOPMENT CORP.                      1605
B0101404710681821200608**********                                               2010
A1301400210682635116001DEVORAH M SOTO OR                                       10501
A1301400210682635116001MIGUEL CARLOS B                                         20500
A0101408240711404554001CANDELARIO OR EMILY OR PATRICK                          10502
A0101408240711404554001OR ERICA PATINO                                         20500
A0101408240000003955306MORALES, ANTONIO JIMENEZ                                 0501
A0101408240711712646001BAUYON, TORIBIA FABELLO                                  0502
A2801400100000007822935FOO, JEROME B. OR FOO, ANA T.                           10502
A2801400100000007822935OR FOO, JUSTIN B.                                       20500
A2801400230000005752536BGB GEN. MERCHANDISE AND                                10502
A2801400230000005752536CONSTRUCTION SUPPLY                                     20500
A4101400420000004847930GADUINA, MARY GRACE ANIMO                                0501
A4101400420000003715564SARIA, LESTER DBU DESERT QUENCH                         10501
A4101400420000003715564WATER REFILLING                                         20500
A4101400420814357382003REMULLA, GILDA VASQUEZ                                   0501
A4101400420814478374100LORLIE B. AGPOON                                         0501
B4101400550000000900092MC BASSIG CATERING SERVICES, INC.                        1602
B4101400550000003387991ERMO & CEN SYSTEM ENTERPRISES, INC.                      1610
A4101400550000006044651AAT COMPUTER SUPPLY                                      0502
A0101412340000003341459JEFFREY S. CABRERA                                       0501
A0101412340000002900283MARIFE B. VIADO                                          0501
A0101404840851046725002MA GERALDINE F. BOCADO                                   0502
A0101404840000000004042DE ASIS, ERIC BARAMEDA                                   0502
A0101404840851520766180CARMELITA M. BARBACENA                                   0501
B0101406750852456290001**********                                               1602
A0101406750852787916002TAN, LUZBELLA FORTICH                                    0502
A0101406750852787916003TAN, LUZBELLA FORTICH                                    0505
A0101405070000005619434TIAOQUI, ARTURO VITA OR                                 10503
A0101405070000005619434MERCADO, PATRICIA TIAOQUI                               20500
