B2201400250561821100608**********                                               2005
A0101412630000009425167GARCIA, GILBERTO MARTIN                                  0505
B0101403320471041480001ITP CONSTRUCTION INC                                     1620
B0101403320471064355001SQUARE METER TRADING AND CONSTRUCTION                   11605
B0101403320471064355001CORP.                                                   21600
A0101400730000008478162VALDEZ, ELMA TANGONAN                                    0501
A1101400120000002254800CU, WILSON CHAN OR                                      10505
A1101400120000002254800CU, ALBERT CHAN                                         20500
A0101403320000001803349RELAYO, CARL ALBERT I.                                   0501
B0101406590000017450534LOS SANTOS HERMANOS PRINTING CORP.                       1601
A0101400860011390202002*********                                                0502
A0101400860011421986001*********                                                0510
A0101400860011509252001**********                                               0503
A0101401250000008136550CUERDO, MARIA STELLA DE LEON                             0501
B0101400150061033419001ITAWES MINING EXPLORATION LIMITED CORP.                  1601
B0101400150061035406001CATTACA REALTY CORPORATION                               1601
A0101400150061039721001LASALLE MINING EXPORATION COMPA                          0501
B0101400150061041269001KEPHA RESOURCES DEVELOPMENT CORPORA                      1601
B0101400150061047065001SUREWIN MINING DEVELOPMENT CORPORAT                      1601
A0101400150061226305001TERESITA R. PAULINO                                      0501
A0101400150061323526001SHIRLEY MANESE OR MARIA ELENA                           10501
A0101400150061323526001MANESE                                                  20500
A0101400150061456754001ANCHETA, ANGELINO TAGUIBAO                              10501
A0101400150061456754001OR ANCHETA, CAND                                        20500
B0101400150061478608002CATTACA MINING EXPLORATION CORPORAT                      1601
A0101405810072234609002TAN, JOSEFINA MANOSCA                                    0505
A0101405810072685689001***************                                          0501
A0601400100000000786574LIM, RIZA LAGMAN DBU ORISSA GAR                          0502
A0101414090000003314821QUIAMBAO, LIZA DIZON                                     0501
B0101414090000013005491E.C. POBLETE PORK AND MEAT SHOP                          1601
A0101410850000000259949CABREIRA, CLIFFORD PAUL                                 10501
A0101410850000000259949KALINGKING                                              20500
A0101410850000011219246BAUTISTA, BILLIE SANTOS                                  0501
A0101410850000003503482CANILLAS, MARTIN LAPPAY DBU                             10501
A0101410850000003503482MARCCHARM INDUSTRIAL                                    20500
A0101406040000010081493YU, ARLENE KING                                          0502
A0101413150000016613713***                                                      0502
B0101412630000007157828VALUE GLOBAL TRADING INC.                                1602
B0101412630000000024073ASTRO ADVERTISING, INC.                                  1601
A0101413310000017475226KATHERINE MANZANO SUMALINOG                              0501
A0101413310000017466270MARLON DE LARA NASOL                                     0501
A5001400170000000170141MOISES, RACHEL OR TIU, REBECCA                          10510
A5001400170000000170141OR TIU, EDUARDO                                         20500
A0101412920000013672118WEE, JONALYN SY                                          0502
A0101400440000010744661KATIPUNAN, ANDRIAN RAMOS                                 0501
A0101400440161520766031EDITHA FELARCA                                           0501
B0101407270162019008001ORIENTAL & MOTOLITE MARKETING CORP.                      1610
B0101407270000004558367SANTIAGO, DAREEN DEL MONTE                               1602
A0101407270162642564001BEATRICE E. DE SANTOS OR MARIA                          10502
A0101407270162642564001VICTORIA E. JALU                                        20500
A0101401090171362096001ROSE ANN H. BULAN                                        0502
A0301400530000005001669CORTEZ, LEAH CASAS                                       0501
A0301400530000008307631ARCENAL, EVELYN DECIO                                    0501
A0301400530000017443784SEBUMPAN, JOSE MYCHEL MENDOZA                            0501
B0301400530000014433837GFD78 COLOUR STATION, INC.                               1601
B0301400530000003573528RD PAWNSHOP, INC.                                        1603
B0301400950000017166439REPULLES, JUANITA DBU RKR ELECTRICA                      1602
B0301400950000002116001JINZAI IKUSEI LANGUAGE AND BUSINESS                     11602
B0301400950000002116001SOLUTIONS, INC.                                         21600
B0101401380201018537001VELUZAR(PASAY) INC.                                      1601
A0101413020000010882318VIRAY, CHRISTIANNE MARIEL SEVIL                          0501
B0101410720000011310208NAPOCOR VILLAGE MULTI-PURPOSE                           11601
B0101410720000011310208COOPERATIVE                                             21600
A3101400160000001559264DEZERTECH ENGINEERING & GENERAL                         10502
A3101400160000001559264MERCHANDISE                                             20500
A3101400450000005960530PAPERA, ELENA DE GORIO                                   0501
A3101400450000013739734PASUMBAL, JANNETH MEDALLA                                0501
B1001400190000002266582GAAMIL, JOE ERIC TINONAS DBU                            11601
B1001400190000002266582VICTORY HARDWARE                                        21600
A1001400190231520766119CABANO, BERNADITH CATIWALAAN                             0501
B1001400350000007920876PEARSON, PILARCITA ROA AND  HEQUILAN,                   11601
B1001400350000007920876ELVIE CORTEZ                                            21600
A1001400350000000922058ARENO, ANN JANE BUCO                                     0502
A1001400350000007762538HERNANDEZ, HIYASMIN TAYLO                                0502
A1001400350000003867261SIA, RAMIL UAYAN                                         0501
B1001400480000017385623ELCAROSA GENERAL MERCHANDISE CORP.                       1601
B1001400480000008501819SACAL, ALAN GO DBU A FIVE TRUCKING                       1604
A1301400470252033790001A-1 SHELL SERVICE STATION                                0501
A1901400290261488341030DRA ZENAIDA S PASION                                     0504
A0101401670271333076001BENJAMIN C. VICENTE                                      0501
A0101401670271403156001MIRANDA, CARMENCITA DIZON                                0501
A0101406620273213498001JORGE, LEILA EBORA OR                                   10502
A0101406620273213498001JORGE, ROBERT WILLIAM                                   20500
A0101410980000001154443SANCHEZ, JOSE MARI OR                                   10501
A0101410980000001154443SANCHEZ, JENNY                                          20500
A0101411820000016514880DE ASAS, REYNA CERILLO                                   0501
A2601400270000016515229HENSON U. FERNANDEZ DBU SPEED                           10520
A2601400270000016515229DREAM GRAINS TRADING                                    20500
B2601400270000011485211JAYSON P. PUA DBU JPK GRAINS CENTER OR                  11602
B2601400270000011485211JOSEPHINE P. PUA                                        21600
B0801400160311013980004VIC IMPERIAL APPLIANCE CORPORATION                      11605
B0801400160311013980004IAP - CASH BOND                                         21600
B0801400160000001289852EON PHILIPPINES INDUSTRIES CORPORATION                   1606
B0801400160000005656993JUAN TONG LUMBER CO., INC.                               1602
A1101400120000003981226HO, EVANGELINE CHU DBU TWINS                            10502
A1101400120000003981226HORIZON ENTERPRI                                        20500
A6601400120000002978154DIAZ, MARIBEL GIRAY                                      0501
A2001400290000016141347GUIRIT, JAGTEL JOE LIM                                   0501
A2901400130000005961253YABUT, MARK ARBUES DELA CRUZ DB                          0502
A0101405650322225574001HORNSHAW, ALICIA S. OR                                  10503
A0101405650322225574001HORNSHAW, RAYSON                                        20500
A0101402510000014897677HAN, KU WOOK                                             0520
B0101402060351009365002GREEN VALLEY TOWNHOUSE OWNERS                           11601
B0101402060351009365002ASSOCIATION INC.                                        21600
A0201400920000012764962PO, WILFORD LLOYD TIU                                    0501
B0201400890000007877352CEBU MERCURY AUTO PARTS                                  1601
A0201401020000015170135IGOT, MARIE CRIS BALADJAY DBU J                          0501
A0101402930000015274689BERGAVERA, ERWIN DAGUSU-AN                               0502
A0101408370000010833291SODUSTA, MARIAN VITA NOVA CUPIN                          0502
A0101408370000003775086FUERTE, FATIMA DE GUZMAN                                 0502
A0101408370382677453001TERESITA CELESTINO HOWARD                                0502
A0101408790000003701340MARIA ASUNCION V. LAGMAN                                 0501
A0101408790000010422350AGUIRRE, MARIA LOURDES G.                                0501
A0101408790000017466878SARIO, JEWEL ALDAY                                       0501
B0101408790000017006369AARON JOSHUA H. LEE AND MARIA FE S. LEE                  1601
B0101408790000010384528JVC HENGUN ADVERTISING INC.                              1601
A0101402770391404096001PANLILIO, MYLENE BAGON                                   0502
A0101405490000006300254IMELDA C. ENDAYA OR SIMPLICIO                           10502
A0101405490000006300254L. ENDAYA                                               20500
A0101405490000016538284DACUMOS, JOY LOURDES AUSTRIA                             0501
B0101405490392034314001RAEMANN CORPORATION                                      1601
A0101405490392170286001MARY JANE P. SABILI                                      0501
A0101405490392626069001JOY R. CASTILLO                                          0503
A0101408400394508088001WEE, FRANCIS AUGUSTUS LEE                                0502
A0101408950396563436001ARLENE ANTONIO GUANZON                                   0501
A0101412210399094817007PADILLO, IRYAN UNGSON                                    0501
A5501400120000011599401BACONGCO, TERESITA CASTRONUEVO                           0501
B0901400220000000888133ZC SECURITY CREDIT CORPORATION                           1602
A0101412890000009833678ZAPATA, ISIDORA OCAMPO                                  10501
A0101412890000009833678OR CABAL, THERESE ZAPATA                                20500
A0101412890000012474378CONFESOR, JULIAN C DBU JC                               10502
A0101412890000012474378CONFESOR ARCHITECTURAL                                  20500
B0101412890000000125380CHRIST'S COMMISSION FOUNDATION, INC                      1601
A0101403320000009846542GERARD JADE D. CRUZ                                      0501
A0101403320000016614881PAGLINAWAN, ROLANDO LABAYAN                              0501
A0101403320000004830995GATTECH SUPPLY AND ENGINEERING                           0505
B0101406330472043677001EXPRESS LANE MINIMART                                    1602
A0101410140000002307773DAWAL, FLORENCE JACINTO                                  0501
A0101410140000001939739MEMBERS OF NATASHA (SHOECAT INC                          0501
A0101412760000007822280HERNANDEZ, JANET ARCEGA DBU EIS                          0503
A3801400170000017475022REYES,JAMESY DBU SOUTHERN                               10501
A3801400170000017475022AGGREGATES AND CRUSHING                                 20500
A1901400160491244286001CARLITO GO OR FELIE GO OR                               10505
A1901400160491244286001CARLEEN OR CHERY ANNE                                   20500
A1901400160491709873001OSCAR JOHN D SAUZA OR                                   10501
A1901400160491709873001GRACE A SAUZA                                           20500
B1401400110000014232441SOUTHERN SWINE PARADISE & FARM, INC                      1603
B1401400110492028896002CARLOS DRUGS-LUCENA, INC                                 1601
B1601400170000009954523ARTISAN'S SPECIALTY COFFEE                               1601
A0701400260000009912683PEYRA, SUSAN MARIE EGUIA OR                             10501
A0701400260000009912683PEYRA, JAYSON PELECIA                                   20500
A0101408530000002260037RADOVAN, HERMINIA MAPALO                                 0501
A0101408530000016394480YELLINA, RAYAN BABU                                      0501
A0101411400000017194759JHANIEL S. CORONEL                                       0501
A0101411400000015206692PENUELA, MA. ANA BAUTISTA                                0501
A2201400250561297004045ANNA LIZA L. BAYBAY                                      0501
A2201400250561297004045ANNA LIZA L. BAYBAY                                      0501
A0101410690000016105661SIGLOS, DINA TAMAYO                                      0501
A0101404130000016160940ZHANG, MENGJIA                                           0501
A0101404130601618991001TAN, MAY YEE CHAN OR                                    10501
A0101404130601618991001TAN, IVAN C.                                            20500
A0101407720602343284001MARY ANGELINE RECTO OR                                  10501
A0101407720602343284001RODRIGO RECTO JR                                        20500
A0101407720602387084002VILLON, ROZAIDA RESTRIVERA                               0502
A0101407720602404060001MARZO, MARIA ROWENA FERNANDEZ                            0502
A0101407720602496503007CYNTHIA RAMILO                                           0501
A0101412180000001293374CEDILLA, JEANNETTE REGALADO                              0502
A0101412180000013363047REYES, KATRINA SANGSTER                                  0503
B0101412180603047294001COUNTRYBEST INTERNATIONAL PLACEMENT                      1602
B0101412180000000038053HOT SALAD CORPORATION                                    1603
A0101404260611335308002ALIMBOYONG, JOSEPHINE MAHINAY                            0503
A0101404260000007498288DE GUZMAN, MARILOU GREGORIO                              0501
A0101404260611478374097MILA B. RIELO                                            0501
A0101404260000000003772CRESPO, FLORENCE SANGA                                   0501
A0101407690000000913600MARQUI AUTO SUPPLY                                       0502
A0101407690652478374145MA. ROUMELA LUISA MIJARES -                             10501
A0101407690652478374145DEALERS OF SHOEC                                        20500
A0101411530000000013732CALILUNG, TARCISIO SURLA                                 0501
A0101413570000003379920MARQUEZ, MICHAEL RUESON OR                              10501
A0101413570000003379920MARQUEZ, MARIE DIANNE                                   20500
A0101413990000016958211JOAQUIN, JONATHAN CALUAG                                 0501
A0101413990000006768638***                                                      0502
A0101414120000008642702CLIMACO, JOEY BARRETO                                    0502
A0101414120000012536139VILLALON, ERIBERTO SALVADOR                              0502
A0101414120000000875481AMPILAM ENTERPRISES                                      0504
A0101406590662679888002QUE, MARTINIANO DE JESUS                                 0501
A1301400500000000011274*************                                            0505
A0101408240711385845004DE OCAMPO III, PACIFICO LAGDAME                          0502
A0101408240000003955340SIMPAO, MELISSA OCHANGCO                                 0501
A0101408240711390504002ROXAS, CHITO OR SHEILA                                   0502
A2801400230000009022246**********                                               0501
A4101400260000016685311RELACION, REYNALDO RIEL ZAMORA                           0501
A4101400260000006043090SAN PEDRO, MA. ROSITA F.                                 0501
A4101400420000017466969UMAPATHY, VIJAY KUMAR                                    0501
A4101400420814520766031GACOSTA, LORENZA N.                                      0502
A4101400420814520766061ESTILLERO, SUSANA O.                                     0502
A4101400550000004846891PAROLE, GLORIA RAYO                                      0502
A4101400550000016729363MENDOZA, JENALYN GABRIEL DBU                            10501
A4101400550000016729363ADENG'S CATERING SERVICES                               20500
A0101406750852478374117IDA MACARO                                               0501
A0101405070861368305001MASUMI MORIYAMA TANABE                                   0504
B0101413860000001767906GLEN CEDAR INSURANCE AGENCY CORP.                        1602
A0601400230000009662973QUEENIE HAZEL DIZON                                      0501
B0601400230000011168437ABE'S MULTIFOODS PRODUCTS CORPORATION                    1605
