A0101403450000000009890SANTOS, EMMA CASTILLO                                    0501
A0101406750000000017427ANTONIO, ARNALDO QUILATAN                                0502
A0101409920000000022077VINLUAN, ELMER DE VERA                                   0502
A0201400920000000048202SILO FOOD TRADING                                        0502
A0101402510000000049370MR. RAUL S. OLIVEROS                                     0501
A0201401020000000055952DANO, JOSIE DANAS                                        0502
A6601400120000000060580CELESPARA, DINA ESTOLATAN                                0501
A0301400530000000065796SEPRADO, OSIAS S.                                        0501
A0101405070000000069458BUENA, TEBURCIO SABOCOHAN                                0501
A1001400190000000124785PELONGCO, ALPHA JOY B.                                   0503
A0101400730000000168529******                                                   0501
A0101400150000000253427ARNEL C. CUARESMA                                        0501
A0101412050000000367920LU, JINGBO                                               0501
A2401400180000000428051EGOS JR., JEMMERITO CASANA                               0502
A3401400280000000784663ALMA V. TORREBLANCA                                      0501
A0101400440000000821298DIOBET ERDIE I. DIOQUINO                                 0502
A0101404680000000940807CENITA, ANNE GELLI MANABO                                0501
A3801400170000000955040EDWIN C ACOB                                             0501
A4101400260000000974078CUMARA, CHRISTO RENE DBU TIPTOP                          0501
A0101409920000000998843AVENA, MELANIE ANTONIO                                   0501
A0301400530000001009943PANTUA, JERSON R.                                        0501
A0501400170000001032153UNGOS, ROWENA ORFINADA                                   0505
A0601400230000001062491SALENGA, MIRASOL BOGNOT                                  0502
A16014001700000010689460000-001068-946                                          0502
A0101413310000001073494CORONA, JENNIFER RAMIREZ                                 0501
A0101405490000001092546MA. EDITH B. HIDALGO                                     0501
A1301400210000001206893SOLARES ENGINEERING SERVICES AN                          0501
A0101408530000001275190LOPEZ, MA. CARMENCITA TANTOCO                            0513
A0101407720000001393335************                                             0501
A0301400530000001409785VILLANUEVA, MELISSA MAY MATA                             0503
A0301400530000001409796LIU, FRITZIE E.                                          0501
A0101403320000001647036LORENZO RENAN E. TORRES                                  0504
A3401400280000001723411BASAN, DIANE JANE PLACIDO                                0501
A0101404260000001725275DE LEON, ZENAIDA RODRIGUEZ                               0501
A4101400390000001732781CAFUIR, MA. JESUSA FUERTE                                0501
A0701400260000001804531MARZAN, ELVIE SALON                                      0501
A0101413310000001928958PELINGO, JOEL SOLLORANO                                  0501
A0101408530000002260060GREGONIA, GREGG CARPIO                                   0505
A0101406750000002834842ELIZES, GIL ZURBANO                                      0501
A0101401700041193436002CORAZON C. LOBENDINO                                     0505
A0601400100081028046001TANDEM INTERIOR DESIGN STUDIO                            0515
A0101401960121281386001**********                                               0501
A0101401090171196001001MATILDE GONZALEZ                                         0501
A0301400530193659725008********                                                 0503
A0101407140213314748003**********                                               0501
A3101400450223221977001TSOUROUS, STEVEN PATRICK                                 0501
A1001400190231520766032BAGARES, JENYFER SATE                                    0501
A1001400190231520766083ASUNCIONITA G. ALBULADORA                                0502
A0101408660274478374013HERRERA, CHRISANTINA DOMINGO                             0501
A2601400270302762450001JOYCE ANN MAYE V. LANUZA                                 0501
A6601400120314647277001AGUILAR, CHANTE OR ROMALYN                               0501
A0101402510341727351001FERNANDEZ, BERNARD JOEL ROBLEZA                          0502
A0101402060351038689001E.E. REYES ENTERPRISES                                   0502
A0101402060351445404001ACOSTA, REYNALDO DELA TORRE                              0503
A0101402060351666785001*************                                            0501
A0101402640361170524001CAMPOSANO, CELSA RUZGAL JT                               0501
A0201400920375524523001MIEL, PRINCESITA OR MIEL, ALEX                           0502
A0101408370382205209002OCCENA, LUZVIMINDA MAYBITUIN                             0501
A0101405490392170537002LORNA V. TUGADE                                          0501
A2401400180411333023088BOHOLST, PERCY SISTOSO                                   0505
A0101403030441239047001**********                                               0501
A0101403030441241050001**********                                               0503
A0101403320471333222002RAYMON VILLANUEVA                                        0501
A0501400170481409728004ANG, JUSSLYNN MAISIE ONG                                 0502
A1901400160491635678001MARIVIC ATIENZA CANTES                                   0501
A0101406880513345925001EDUARDO TORNITO VICENCIO JR.                             0501
A0101406880513573270001TURALBA JR., ANTONIO VALERA                              0502
A0101403450521326639002**********                                               0501
A0101404000551452012001PANGILINAN, CORAZON CATALASAN                            0501
A0101407720602397975001MARIA THERESA R. DE LEON M.D.                            0504
A0101404260611478374084JEAN GONGOB                                              0501
A0101404420631386485013LILIBETH BAMBA                                           0501
A0101409890649047047001**********                                               0506
A0101409890649748239001**********                                               0506
A0101404680651520766125ROSALINDA A. CRISTOBAL                                   0501
A0101404680651520766125ROSALINDA A. CRISTOBAL                                   0501
A0101407560686328712001MARIANITO C. ARCEO                                       0510
A0101407560686478374069ROLANDO PATAC                                            0502
A1701400230693478374031VILMA R. BAGAY                                           0501
A2801400100712551709001SANTOS, OSCAR CO                                         0505
A4101400260812478374029MARIA FE E. TEJERERO                                     0501
A4101400260812666951001IRMA C. LANADA                                           0504
A4101400420814520766034LEONIDA M. OBELIDOR                                      0501
A4101400420814520766088LOS BANEZ, DIONEROSE O.                                  0501
A4101400420814588219001RODRIGUEZ, GERMAN SANCHEZ                                0502
A0101406750852236873002SISORA OLGAH ELUMIR                                      0501
A0101406750852519587001DE LEON, ENECIA VILLAGOMEZ                               0502
A0101405070861364092001JASON VICTOR G. LACUNA                                   0503
A0101405070861478374074STA. ANA PURISIMA                                        0502
A0101405070861799068001GARRIDO, MARY ANN PEREZ                                  0502
A0601400230891624655002NUNAG, LIZABETH DABU                                     0501
A3801400170000000154130ILAGAN, ROCKEY OR ILAGAN, MA.                           10501
A0201400760000000223101PHILIPPINE SOCIETY OF HOSPITAL                          10501
A3101400870000000957917GATDULA, J DBU SIX PENCE                                10501
A0101409920000000998569MEMBERS OF NATASHA (SHOECAT INC                         10502
A0301400530000001409774DUMALUAN, MARIA LUZ D. OR                               10505
A0101403320000001646744VERINA, MA ZARAH ASUNCION                               10501
A4101400260000001673372BUENDIA DANTE DBU PATIO BUENDIA                         10505
A3401400280000001723495JENNIFER G ONG OR JOHN OWEN ONG                         10501
A0101410560000001944043GOODNESS & MERCY MOVERS                                 10503
A0201400760000002047041ANG, STEPHANIE JOIE JAYME                               10501
A0101401670271186314001DINA OR GERALD OR MARTIN OR MA.                         10501
A6601400120314615888088FRANCISCO, EMMA OR REYNALDO                             10504
A0101409050352600066001FAYE CARLIE TUAZON OR                                   10501
A0101409050352603489001REGINA TIRONA OR JULIA TIRONA                           10501
A0101409180397742135001ILAGAN, SAM ANTHONY OR ILAGAN,                          10501
A0101404420631719037001ALBERT C BARRERA OR                                     10502
A0101410720653528817001VINCENT GONZALO SY OR TIMOTHY                           10502
A2801400100712088718001FOO, JEROME B. OR FOO, YING YIN                         10501
A4101400420814246792001GENEDINA A. FERRER, M.D. OR                             10504
A0101405070861035394088AMITY SATELLITE SYSTEMS,                                10512
A3801400170000000154130CECILIA DBU RDI GAMMA ENT                               20500
A0201400760000000223101PHARMACISTS INC.                                        20500
A3101400870000000957917TRUCKING SERVICE                                        20500
A0101409920000000998569PEDROSA, JULIE                                          20500
A0301400530000001409774DUMALUAN, DOLOREICH A                                   20500
A0101403320000001646744MENESES                                                 20500
A4101400260000001673372FARM RESORT AND EVENT PLA                               20500
A3401400280000001723495OR JOAQUIN C GOCHANGCO JR                               20500
A0101410560000001944043SERVICES                                                20500
A0201400760000002047041OR JAYME, STEPHEN                                       20500
A0101401670271186314001PILAR OR JOSEFINA SILVA                                 20500
A6601400120314615888088OR CO, ESTELITA                                         20500
A0101409050352600066001BENSON RYAN CRUZ                                        20500
A0101409050352603489001OR THEODORE TIRO                                        20500
A0101409180397742135001CHERYL OR ISIDRO, PAULO                                 20500
A0101404420631719037001ROLEN C BARRERA                                         20500
A0101410720653528817001JON SY OR JULIE                                         20500
A2801400100712088718001OR FOO, ANA T.                                          20500
A4101400420814246792001LEO CRESENTE M.                                         20500
A0101405070861035394088INCORPORATED                                            20500
B0101405940000000002739********                                                 1601
B0201401020000000005078COMMONWEALTH INSURANCE COMPANY                           1602
B0101411790000000005370RE'DIS GLOBAL CORP.                                      1602
B0201400920000000008000**************                                           1601
B0101405650000000012977AZARCON JR., NOEL PIERRE HACHERO                         1601
B0101408370000000014666SOLIDWORKS ADVERTISING INC.                              1601
B0101410300000000191600NS COLABORACION INC.                                     1602
B0101409050000000258593E.M. CUERPO, INC.-ITP CONSTRUCTION                       1601
B0101412920000000276711KALAKAL FOOD CONCEPT INC.                                1601
B0101405650000000772732LEISURE FARMS TAGAYTAY, INC.                             1601
B0101400150061010885003SBM LEASING, INC.                                        1603
B0101401090171008010001UST COMMUNITY                                            1610
B0301400530193042322002TRUMPH MOTORCYCLE CORPORATION                            1602
B2601400270302771764001JOSE T. UY OR AARON CHRISTIAN A. UY                      1602
B0101402510341204183001ANA ABERILLA AND GILBERT MURILLO                         1601
B2401400180411033429088GS JODI FORWARDER INCORPORATED                           1601
B0101403030441012179001**********                                               1602
B0101403030441021825001**********                                               1602
B0101403450521020358001**********                                               1604
B0101404000551005006001LEMANS INCORPORATED                                      1605
B0101404260611020600001MAKATI SAVINGS COOPERATIVE                               1610
B0101409920650044950001EINSTEIN SCHOOL FOR KIDS, INC.                           1601
B0101405070861008460004STARS TRAVEL INCORPORATED                                1602
B0101405070861008460005STARS TRAVEL INCORPORATED                                1602
B0101405070861028566002AVESTA REALTY, INC.                                      1602
B0101405070861039306001JACINTH TOURS & TRAVEL, INC.                             1603
B0301400530000000025265AJOC, JEANIFER P. OR                                    11604
B0101412920000000042111DIZON, DELEXTER JOHN SCHNUPP DBU 3                      11601
B0101401250000000057236ORIENTAL INTERNATIONAL INVESTMENTS AND                  11603
B0101405070000000428922ALLSEAS INTERNATIONAL SHIPMANAGEMENT                    11601
B0101408660274047230001CHANTILLY VILLAS-TOWNHOUSES HOMEOWNERS                  11601
B0301400530000000025265AJOC, SANTIAGO B                                        21600
B0101412920000000042111ANGELS MARKETING                                        21600
B0101401250000000057236DEVELOPMENT CORP                                        21600
B0101405070000000428922PHILIPPINES INC.                                        21600
B0101408660274047230001ASSOCIATION INC.                                        21600
