A4101400260812039607023MONTALES, MA. GLERISSA                                   0501
A0101400440161478374076JAYNE D. BARBIN                                          0501
B3001400130000000067241BUTUAN BRAKE CENTER SALES CORPORATION                    1606
A3001400130230767566026URAG, EDECIO CUDERA                                      0501
A2001400290315043996001STOP N' SHOP ENTERPRISE                                  0505
A0101400440000005393502BABY JONI JANET REYES                                    0502
A0101400440161520766023PACITA R. ENRIQUEZ                                       0501
A3001400130000001271669OLACO, BELINDA LACORTE                                   0501
A3001400130230478374004BALABA, JANETH BORJA                                     0501
A0101411790000000039303GAN, JOSEPHINE DELA CRUZ                                 0501
B0101411790000004807938IGNES, REYNALDO DBU GOLDENREY DIRECT                    11601
B0101411790000004807938MARKETING                                               21600
A0101411790518055764154GENORGA, HERBERT, BASALLOTE                              0501
A0101411790518055815155TIRADO-ORGANO, LORY GRACE G.                             0501
A0101400860000003571657**********                                               0501
A0101400860011687970001**********                                               0502
A0101401250000002763346**********                                               0505
A0101400150000006535668FERMIN, MARIA KARINA HAZEL TARO                          0501
A0101400150000006535704BILON, MICHELLE MAGO                                     0501
B0101400150061019824001EUSKARA HOLDINGS, INC.                                   1605
B0101400150061043190001NORTHERN STAR ENERGY & FUEL DISTRIBUTION                11605
B0101400150061043190001CORPORATION                                             21600
A0101400150061354288001CORAZON G. TAGLE                                         0501
B0101400600000001335853********                                                 1610
A0601400360000000025629WARREN D. RAMOS                                          0502
A0101400730111483566001MONZON, HOPE CUBITA                                      0503
A0101406040000002272442JACQUELINE C. SAMONTE                                    0502
B0101401830141205618002ST. JOSEPH SCHOOL OF PANDACAN, INC.                      1610
A0101401830141498181001LESLIE A ESPINOSA                                        0501
A7201400170000003773142CARBONEL, JOHN PICO                                      0501
A0101407270162691727001RODEL J. CELO                                            0502
B0101401090171016399005UST MEDICAL ALUMNI ASSOCIATION INC                       1601
A0101401090171197481002MA. NOEMI OR ELIEZER SALAZAR                             0502
A0101401380000001820031SERRANO, JAY JOSEPH C DBU SEVEN                         10502
A0101401380000001820031CONTINENTS TRAVEL & TOURS                               20500
A0101401380000000026888YABUT, MA. NICOLE KRISTINE                              10501
A0101401380000000026888GARCIA                                                  20500
A0101401380201554626001BANGURAN, MYRNA BRINGAS                                  0501
A0101401380000002297470MURAOKA, MA. ANGELITA CORTEZ                             0503
B0101410720210047551001AUTOCARDINAL INC.                                        1601
B0101410720000005786736S+P GLASS CO.                                            1601
A0101410720653478374002ZENAIDA O. CARLOS                                        0501
A0101410720653478374048VILLAFLOR E. OPELADA                                     0501
B0101412500000003408040SOUTHEAST ASIAN COLLEGE, INC.                            1620
A3101400160000000006500ANNIEFER P MERCADO                                       0501
A3101400160221533266001ANGELITO S. LAZARO JR.                                   0502
A3101400450223060573001TABILOG, NOLI DBU NJT ENTERPRIS                          0501
A1001400190231520766092TACBOBO, BEATRIZ WABE                                    0501
A1001400190231520766187MONTEMOR, FE MARIE TELIN                                 0501
A1301400470252697686001AUGUSTUS CEACZAR P. RUIZ                                 0502
B1301400760253044451001CONSUMERREACH, INC.                                      1610
B1301400760253044451002CONSUMERREACH, INC.                                      1610
B1301400760000000007143CONSUMERREACH, INC.                                      1610
B1301400760000000007201CONSUMERREACH, INC.                                      1610
B1301400760000000050871ENCORE LEASING & FINANCE CORP.                           1602
B1901400290261060606001F.J.H. HARDWARE & ELECTRICAL SUPPLIES                    1602
A1901400290261244408001ISIDRO HERNANDEZ OR                                     10502
A1901400290261244408001ISABELITA HERNAN                                        20500
A1901400290261298552022ALVIN DEL ROSARIO MAGNAYE                                0502
A0101401670000000016111RAMOS, ANZEL RAMILLE MILLENAS                            0502
A0101406460272722876001JOSE R LAVARRO                                           0502
B0101406620273034224002JDS CONSTRUCTION PHILS., INC.                            1602
B0101406620000000193942SOURCEFIT PHILIPPINES INC.                               1602
A0101410980000002987002GARCIA, JOHN LEE MARTIN                                  0501
A0101412470000000520130FLORES, GINA CRUZ                                        0502
A0101400570000002329717HERNANDEZ, JOHNNY TRINIDAD                               0502
A0101400570281399955002**********                                               0506
B0801400160311268198001JOHNEL REALTY DEVELOPMENT CORP.                          1601
A6601400120314616978001SAURO, MICHEL CASTILLO                                   0501
A6601400120000000060493ABELA, LEONITA MIJARES                                   0501
A2001400290000000094706JAMES-NEW, KEVIN LESLIE                                  0502
A2001400290000001301580BONIOR, MARIO CURATIVO                                   0502
B0101402350321045386001FIRSTLINERS MANPOWER SERVICES INC.                       1602
B0101405650322018011001MONTESSORI DE MANILA, INC.                               1602
B0101402510341035591001PALACE APARTMENTS CONDOMINIUM                           11602
B0101402510341035591001CORPORATION                                             21600
B0101402060351009395001PIGMENTEX INC.                                           1601
B0101402060000000653758RPP SAVINGS AND LOANS ASSOCIATION                        1602
A0101409050000006171320ALBERTO S. HERMOSO III                                   0502
B0201400920375038236001FERAC BUILDERS & DEVELOPMENT                             1605
A0101402930381488752001AGUADA JR., JOSE JOEL RACCA                              0502
A0101408790000002031463CASTANEDA, CAMILLA ANN LASALA                            0501
B0101402770391041647001G B B TECH ELECTRO MECHANICAL & DEV. INC                 1604
A0101402770000001570770BENJAMIN NAVAL VICTORIA                                  0501
A0101405490392341023001JAZMIN P. GONZALES                                       0502
A0101405490000000444313BENITO M. LOJO                                           0503
A0101408400394028886002DEC ORIENTAL FOOD STREET CO. LT                          0503
A0101408400394478374063LACSON, MARITES                                          0502
B2401400180000000019850LORENZO, JOANNA GENOVIVA PALOSO                          1602
A2401400180411574421001CASTILLON, MARLON PA-ALISBO                              0501
A0101403030441239402002**********                                               0501
A0101403030441239686001**********                                               0502
A0101406330472359169001JENNIFER  ROMUALDEZ OR                                  10501
A0101406330472359169001LOUIE LIM                                               20500
A0101406330472478374044ARMES SMITH B. ALVARADO                                  0501
B0101412760000000032037AGRI-BUSINESS RURAL BANK, INC.                           1601
A0501400170481043466001RUSKIN MARKETING                                         0505
A0501400170481043466001RUSKIN MARKETING                                         0501
A1901400160491307939001EDWIN P CHUA OR EDDIE P CHUA                             0501
A0101407430000001028831LAMBERTO C. AQUINO                                       0502
B0101403580511005322001O.S.I. AQUAMARINE CORPORATION                            1602
B0101403580511032801001NORTHCREST HIGHLAND VENTURES CORP.                       1601
B0101403580000000922930CAM32 INC.                                               1602
B0101408110515044192001ASIA SOCIETY FOR SOCIAL IMPROVEMENT AND                 11605
B0101408110515044192001SUSTAINABLE                                             21600
B0101408110000003281467BMACS, LIMITED                                           1603
B0101403450521011599001**********                                               1605
B0101403450521020358001**********                                               1602
B0101403450521028565001**********                                               1602
B0101403450000001769902SACABEN, LOURDES IGNACIO DBU FOUR SQUARE                11601
B0101403450000001769902CARGO HANDLERS                                          21600
A2201400250561409662001JEFFERSON B. CASTRO                                      0501
A0101404130601771934002LEE, RENATO MUNAR AND                                   10502
A0101404130601771934002YAN, EDWIN C.                                           20500
B0101407720602027414001GAN ADVANCED OSSEOINTEGRATION CENTER                     1606
A0101407720602301024001ALFREDO Z. PIO DE RODA III                               0501
A0101407720602398826001LACSON, ESTEBAN JONATHAN T.                              0502
A0101404260611478374075VIVENCIA HATOL                                           0501
A0101407690652025438001BETA BAKERY SUPPLIES & GENERAL                          10501
A0101407690652025438001MERCHANDISE                                             20500
A0101407690652034834001PASSION8 AUDIO & LIGHTS SERVICE                          0502
A0101407690000000243810PAGUIO, ANA CARDENAS                                     0502
A0101411530000006217483**********                                               0501
B0101411530000002641761FOOTBOOK CORPORATION                                     1602
B0101413440655056766001ADVISIBLE MARKETING CO.                                  1602
A0101413570000000635596MEMBERS OF NATASHA                                      10501
A0101413570000000635596DOROTEA R. JACINTO                                      20500
A0101413570000001682544**********                                               0502
B0101410300663044402001****                                                     1604
A1301400500000005963153ONG, ANALIZA GONZALES                                    0503
B2801400230000001580303SUBIC PEARL INN                                          1601
A4101400260000003679830LABRADOR, DBU ALGEMS TRAVEL &                           10501
A4101400260000003679830TOURS                                                   20500
A4101400260000000469329FALCUTILA, MARISSA RAMOS                                 0502
A4101400260812478374078DATU, CARMEN                                             0501
A0101412340000003342190FREDERICK F. DABU                                        0501
A0101412340000003349320MARLON N. TUANO                                          0501
A0101412340000002900283MARIFE B. VIADO                                          0501
A0101412340000002900352GHIE M. ROMERO                                           0501
A0101404840851520766068SONIA VILLARIN                                           0501
B0101405070861024123001TRAVEL SCENE, INC.                                       1605
A0601400230000005185866CHUA, MARK ANTHONY OR VELASQUEZ                         10501
A0601400230000005185866MYRICK OR LLAVE, VIC ATHN                               20500
