A0101408400000001981688REGALADO JR., ARTURO BENESISTO                           0503
A3801400170000013685839DEINLA, ROMEL DBU KASANGA                               10501
A3801400170000013685839CONSRUCTION AND SUPPLY                                  20500
B0101408400394035588001JUANSIXATE CO. INC.                                      1605
A0101408400000007583186PINEDA, DINDO DOMINGO                                   10501
A0101408400000007583186OR PINEDA, GRACE                                        20500
A3801400170000015888514YLAGAN, JAYLEN GAYTO                                     0501
B3801400170000002691110JOSEPH M BOONGALING AND BEN M CHUA OR                   11601
B3801400170000002691110DANILO A ACEVEDA                                        21600
B3801400170000000018733CALAPAN VENDORS MULTI-PURPOSE                           11601
B3801400170000000018733COOPERATIVE                                             21600
B0601400520000007553797BRIGHTLIVES LENDING PHILS. INC.                          1603
A0101405940000001534305LAURIO, FLORIEN DOSADO                                   0501
B0101410300000000026428INTERIOR ASIA CONSTRUCTION SUPPLIES &                   11602
B0101410300000000026428SERVICES CORPORA                                        21600
B0101402770000000080635PHILIPPINE SKYBIRD INDUSTRIAL                           11603
B0101402770000000080635CORPORATION                                             21600
A0101405940000002268653BANIEL, BEN FABALE                                       0502
A0101400860000013978813***********                                              0501
A0101400860011578978001**********                                               0503
B0101400860011580145001**********                                               1603
A0101401250021629902001BASIANO, NEIL OR BASIANO,                               10501
A0101401250021629902001WILMAR OR MANDAP, RAENARD                               20500
A0101400150000002374427DIZON, EDEN TITA JOSEF                                   0501
A0101400150000003218642ANTON DANIEL V. YAP                                      0501
A0101400150000004915219MERCADO, ABRAHAM RAMON MANALOTO                          0504
A0101400150061739693001FRANCISCO D. VARUA OR MARIA                             10501
A0101400150061739693001MARLENE A. VARUA                                        20500
A0101400600000001403638SEGOVIA, MELVIN JOHN VEGA                                0502
A0101400600071720668001*******                                                  0502
A0101405810072574589002CHEN, BINGHUI WANG                                       0503
A0601400520000000786409HERRERA, REBECCA DIMARUCUT OR                           10501
A0601400520000000786409HERRERA, RUBEN J                                        20500
A0601400520000005943513BUCO, DONALD DELA PENA                                   0502
A0601400520000007553480CAYETANO, ISHMAEL MAMARIL OR                            10503
A0601400520000007553480CAYETANO, JANET                                         20500
A0101413730000011325010CARPIO, MAUREEN DIANO OR                                10502
A0101413730000011325010CARPIO, FERNANDO DIANO                                  20500
A0101413310000001073654********                                                 0502
B0101401830141056446001GADDI DBU GREENTEK ENVIRONMENTAL ENG.                   11605
B0101401830141056446001SERVICES JT                                             21600
A7201400170000008392832IMRAEL, FAHAD BONGA OR IMRAEL,                          10505
A7201400170000008392832NADIA MAULANA                                           20500
A0101400440000000029412EDEN JOY V. TAN                                          0501
A0101401090171195906001DR. IRWIN V. RIVERA OR                                  10502
A0101401090171195906001DR. CLARA R. RIVERA                                     20500
A0101401090171390510001CHRISTIAN ESGUERRA                                       0502
B0301400950000006080360***********                                              1601
A0301400950000008869076**********                                               0502
A0101401380201554626001BANGURAN, MYRNA BRINGAS                                  0501
A0101410720000007843470SAMBRANO, MARIE CAMILLE ASIS                             0502
B0101412500214031540001EMBROCAL BUILDERS, INC.                                  1601
A0101413600000008442615WILLIAM P. TAN                                           0503
B3101400740224045253001MADISON SOUTH HOMEOWNERS' ASSOCIATION,                  11601
B3101400740224045253001INC.                                                    21600
A1301400470000011839833LEAH SAN PEDRO MACTAL                                    0501
B1901400290000015835240JE DISTRIBUTORS (JEDI) INC.                              1601
A1901400290261298552105AIDA NABOS REYES                                         0501
B0101401670271038486001POWER FASHION INC.                                       1605
A0101406460272521121001CHUA, DANNY CHING                                        0501
A0101406620273482326001REMOTO JR., FRANCISCO R. OR                             10502
A0101406620273482326001ARACELY M. REMOT                                        20500
A0101400570000009080928GUMBOC, RODALIZA MANGLICMOT                              0502
A0101400570281518037001TAN, WINDFIELD LIM                                       0502
A0101411240000002332532LAMSEN, RAMON MACASIEB                                   0502
A2601400270000012492570DARREL N. ALIVIA DBU DRAGON                             10501
A2601400270000012492570MINE HAULERS                                            20500
A2001400290315688009001ALGOPERA, LLOYD GARCIA                                   0504
A0101402510341196467001GLORIA VERA OR                                          10501
A0101402510341196467001RAMONA SIQUIJOR                                         20500
A0201400760000002047401AZNAR, MA. THERESA SOLANO                                0502
A0201400760374520766001CARULASAN, KRIZIA JANE BUGO                              0501
A0201400890376763623001BELO, EDWARD JOHN DENNIS R. OR                          10502
A0201400890376763623001BELO, TERESITA LIM                                      20500
A0201401020000004409089DELFINO, RHEENAN GONZALES                                0501
A0101402930000010657793CRUZ JR., JESUS VICTOR PASCUAL                          10501
A0101402930000010657793OR CRUZ, ROCHELLE M.                                    20500
B0101402930381008829002AXEIA DEVELOPMENT CORP.                                  1615
B0101402930381008843001BASIC HOUSING SOLUTIONS, INC.                            1605
B0101402930381020092001ASIAN BAPTIST CLEARING HOUSE INC.                       11604
B0101402930381020092001MISSIONARY ACCT                                         21600
B01014029300000056460953PEAS IN A POD, INC.                                     1605
A0101402930000009324870LOPEZ, AILEEN DBU ROBDEN                                10501
A0101402930000009324870LOCKSMITH                                               20500
A0101411660000000751137FREDERICK JOEL LIM OR                                   10501
A0101411660000000751137IMELDA ONG                                              20500
A0101408400394028886002DEC ORIENTAL FOOD STREET CO. LT                          0505
B0101408400000006813603NANOTECH INTERNATIONAL LIFT SERVICE                      1603
B0101409180000012558271PHYSIXARE ADTEK SOLUTIONS, INC                           1602
B0101409180000015677048PHYSIXARE ADTEK SOLUTIONS, INC                           1602
A5501400120000000046940MARMONEJO, HERNANE AND MARMONEJ                          0502
A0101412890000000371599COBO PAVILLION                                           0505
A0101403320471705896001BELO, RAWELL ROSCO                                       0501
A0101403320471705896001BELO, RAWELL ROSCO                                       0501
A0101406330000000451392CABRERA, MARITA VICTORINO                                0502
B0101406330000000162661BRILLIANT IMAGE, INC.                                    1603
A0101410140000007294780ENCOMIENDA, MARIA ANGELICA MATE                          0502
B0501400170481018109002CSI WAREHOUSE CLUB INC.                                  1603
B3801400170000000018788MINDORO PPA EMPLOYEES MULTI-PURPOSE                     11605
B3801400170000000018788COOPERATIVE                                             21600
A1901400160000013233317MAGADIA, MYRA                                           10501
A1901400160000013233317OR MAGADIA, EMETERIO                                    20500
A1401400110000005526990DIHIANSAN, CHRISTINE BRIOSO                              0501
B1401400110492046339002******                                                   1620
A1401400110492221115001MANOLO A MERCADO                                         0503
A1401400110492321242001***************                                          0504
A0101407430503379026002RENATO G. MACANDILI OR                                  10501
A0101407430503379026002ELENA C. MACANDILI                                      20500
A0101403580511420184003MARIA CAROLINA S. MACASAET                               0525
A0101405940000005359902YU, HENRY LEE  OR                                       10502
A0101405940000005359902YU, CATHERINE                                           20500
A0101408530516615903001TRACY ELINOR AGUIRRE                                     0501
B0101411400000004555799BF CORPORATION                                           1602
A0101403610000007105940BUCO, EVELYN MALATE                                      0502
B0101403610000015572640MMG LOGISTICS CORP.                                      1601
A0101403610531219303001DR. ROMEO R. ANDAYA  OR                                 10504
A0101403610531219303001DR. ANGELITA Y.                                         20500
A0101404130000002121282LOUISITA O. ARISTORENAS OR                              10502
A0101404130000002121282PRECIOUS O. ARIS                                        20500
A0101404130601518901001VISITACION, MERCEDITA LANGOMEZ                           0502
B0101407720602027024001PHILIPPINE ORTHOPEDIC INSTITUTE INC                      1605
A0101407720602458018001MALABANAN, MICHAEL MARTIN                               10502
A0101407720602458018001HUSMILLO                                                20500
B01014077206024892100011stMARK GLOBAL MEDICAL SERVICES, INC                     1603
A0101409920000006336945CRUZ, CHRISTIAN REYES                                    0501
A0101411530000012048907PABLITA L ESTRADA                                        0501
B0101413990000003182556PRECISE SOLUTION SECURITY AGENCY,                       11602
B0101413990000003182556INCORPORATED                                            21600
A0101413990000006768581NEBRIA, ESTER P. DBU BUTTER-NUT                         10503
A0101413990000006768581BAKESHOP                                                20500
A0101414120000001984143VERZOSA, SANTANINA SALIH OR                             10501
A0101414120000001984143ABAINZA, DARIUS                                         20500
A0101410300000003290100JESUS L. TAN                                             0503
A0101410300000007613814LOON, JOSE MARTIN AZCARRAGA                              0505
B1301400210000005040960ARMS-ABUNDANCE HOMES REALTY SALES,                       1601
A0101408240000009452980JOSEF, VIOLETA JUSAY                                     0502
B0101408240711036897001EVER THEATRICAL, INC.                                    1601
A0101408240711405456001ROMERO, SHELLEY ARCIAGA                                  0501
B2801400100712020330001HOYA MARINE CORPORATION                                  1602
B2801400100712028150001SUBIC NEXUS TECHNOLOGIES INC.                            1603
B4101400260812047165001MPS LENDING SERVICES INCORPORATED                        1602
A4101400260000006043049FALIC, JEANNETTE RUGA                                    0501
A4101400420814478374154CABRERA, FELIZA                                          0501
A0101412340000009889418ROLANDO V. NOTO                                          0501
A0101412340000003438771********                                                 0501
A0101404840000012411180BALACUA, ERNESTO DE GUZMAN                               0506
A0101404840000010969487GATMAITAN, MA SOCORRO OR JULIAN                         10505
A0101404840000010969487OR JOMINI                                               20500
A0101404840851520766037MAGDALENE DE GUZMAN                                      0502
A0101406750852519277001ANG, MARICEL FELIPE                                      0501
A0101405070861321046001MARK LAURENCE V. LEBRIA OR                              10510
A0101405070861321046001GERLY D.C. LEBRIA                                       20500
A0101405070861321046002MARK LAURENCE LEBRIA OR                                 10501
A0101405070861321046002GERLY LEBRIA                                            20500
B0101413860000000145275CON-PAC WAREHOUSING INCORPORATED                         1605
A0601400230000003638824ABARQUEZ, EDWARD BACANI                                  0501
A0601400230000007402280KAM, MARICAR GONZALES                                    0501
A0601400230000015248598CAPULONG, MA. CRISTINA SANCHEZ                           0501
