F0101410690000001284219OPTIMUM EXCHANGE REMIT, INC.                             2601CK1
F0101408660274508786001VIVIAN T. UY OR BRIAN B. TAN                             2504CKO
F0301400820409062963001LLANOS MEDICAL CLINIC                                   12601CK1
F0301400820409062963001AND HOSPITAL                                            22600CK1
F0101403290461035044001JUNO CARS INC.                                           2602CKR
F0101406880513029228001PMPI CREATIVE SUITES                                     2603CKO
F0101404840000003069623ROYAL THAI FOOD PHILIPPINES INC                          2602CK1
F0101404840000003069641GAZ DE BAY INC                                           2603CK1
