B0101400570281821100608**********                                               2005
B0101400570281821100608**********                                               2005
B0101400570281821100608**********                                               2005
B0401400430244821200608**********                                               2002
B0101406750852821100608**********                                               2003
B0101409180397042779002***                                                      1601
A0101415350000006213003DE GUZMAN, MARIA KATRINA R. OR                          10501
A0101415350000006213003DE DUZMAN, MARK ANTHONY R                               20500
A0101415350000005356981CHI, MARIA JESUSA CORDES                                 0501
A4101400550815557725001VALDEZCO, EDWIN BACANI                                   0501
A0101406750852043541001GRAFIX VENUE ENTERPRISE                                  0502
B0101400860011374845003**********                                               1601
A0101400860011425868001**********                                               0501
A0101401250000007121433BARRAMEDA, MA BEATA OR                                  10501
A0101401250000007121433BARRAMEDA, MARIA ANGELICA                               20500
A0101400150000000807170FRAGANTE, SOCORRO PROTACIO                               0501
B0101400150061028993001PHILAGROW INCORPORATED                                   1603
B0101400150000000633505DIGISCRIPT PHILIPPINES INC.                              1605
A0101400150061315349116JOSEPH C. TIU                                            0501
A0101400150061344118001AMIEL M. MERCADO                                         0502
A0101400150061373685003ALAMPAYAN, LUCENA PENARANDA                              0501
A0101400150061500418001FLORES, JEANJIE CARIÑO                                   0502
A0101400150061694968001CHEN, TAI MEI                                            0502
A0101400600000005942463******                                                   0504
A0101405810000001021321SHI, QUNMEI                                              0501
A0601400100081478374009JOWELL MIRANDA                                           0502
B0101401830141008845001PANDACAN TRANSPORT SERVICE & MULTI-                     11603
B0101401830141008845001PURPOSE COOP.                                           21600
A7201400170000003774312SECUYA, LYNFEL ALBURO                                    0501
B5001400170000000169915VASQUEZ, J DBU ALOHA TRAVEL AGENCY                       1601
A0101401090171195610001WILFREDO/CYNTHIA/MARIFEL MITZI/                         10502
A0101401090171195610001CYNTHIA MARIE FERNANDEZ                                 20500
A0101401090171195958002CARILLO, CLARITA DE LEON OR                             10501
A0101401090171195958002CARILLO, EDWIN MARASIGAN                                20500
A0101401090171199702001NELIA T. LOPEZ                                           0501
A0101401090171336336002IRENE P. EVANGELISTA                                     0501
A0101401090171355558003QUINTANA, MARIELYN CARAAN                                0503
A0101401090171374175001ADENA M. GARCIA                                          0503
B0301400660000003361908PHILIPPINE RADIANT PRODUCTS, INC.                        1602
A0301400790000001010620SIMON, DIOSEE GENTILES                                   0501
A0101413020000003353860REGUERA, JUDE ROMER VERGARA                              0501
A0101412500000008321059ABENDAN, MARIA CECILIA LEVENY S                          0501
A3101400160000006497723YAMBALLA, CLETO CUSTODIO                                 0501
A3101400160221400512001BARTOLOME, ESTELA GUILLERMO                              0501
B3001400130000006004706RUELAN, NEIL DBU RUELAN ENTERPRISES                      1601
B0101401670000004588445THE ASTRA GROUP, INC.                                    1605
B0101401670271555562003GREEN ASIA REAL ESTATE AND DEVELOPMENT                  11601
B0101401670271555562003INC.                                                    21600
B0101406460272021223001ORION INDUSTRIES INC,                                    1602
A0101406460272238272001CO, TIN WAH Y. (YAP TIN WAH)                             0501
B0801400160000005656904VARDELEON, ABEGAIL CRISTIE PANIQUE                       1601
B2001400290315528399001**********                                               1601
A2001400290000000724878QUIAMCO, RHEA VILLANUEVA                                 0501
B0101402060000005137359ESPINA, WILBERT BALUYOT DBU WBE LOG                      1602
A0101402060351217440011FLORDELIZA PANGANIBAN                                    0501
A0101402930000000623363KING, C DBU EASTERN CIRCLE                              10502
A0101402930000000623363HUMAN RESOUCE SE                                        20500
B0101411660000000751495HYDRA PAINTING COMPANY, INC                              1603
A0101402770391390677001LEONGSON, RETCHELL RUBIN NAVAL                           0501
A0101405490392032343001TWIN PEAK BRASSIERES                                    10504
A0101405490392032343001MANUFACTURING IN                                        20500
B0101408400394028489001KING'S HOLLY, INC.                                       1602
A0101409180000003780712CATHERINE A. ESCOSIO                                     0501
B0101409180397024348001APPLESEED MONTESSORI INCORPORATED                        1601
B0101409180397041823001THE INFINITY CONDOMINIUM CORPORATION                     1603
A2401400180000002284142TANYEN, IRENE JADE SANTIAGO                              0501
A2401400180411516002001GAVINO, RHEA MEA LAUREA                                  0502
A1201400150421253551001GONZALO, JULIETA PALOR                                   0502
A0101403030441239186001**********                                               0505
A0101412890000000125362CRISTINE MARIE LEGASPI DBU                              10502
A0101412890000000125362OLIVIA SHOE MANUFACTURING                               20500
B0501400170481016901001CARRIED LUMBER COMPANY, INC.                             1610
A1901400160491244619001ALEJANDRO F UY OR                                       10502
A1901400160491244619001APOLONIA AGNES B                                        20500
A1401400110492364401001RAFA,RAQUELITA OR RAFA, RENE OR                         10501
A1401400110492364401001RAFA,REI ANTHONY                                        20500
A1401400110492391345002R'S WINE CENTER                                          0503
B0101407430000000035316D' FRADA ALLIED SERVICES INC.                            1602
A0101403580000000922689INTAC, JENNIFER INSEQUEL                                 0501
A0101403580511150595001MAXIMO P. MARIANO                                        0501
B0101406880000001286357KRIS FINSOFTWARE, INC.                                   1601
A0101406880513454169001PE, CAROLINE UY                                          0504
B0101408530516005188001SEARCHERS & STAFFERS CORP.                               1610
A0101412050000003966763DE LEON, ARTURO PUZON OR                                10503
A0101412050000003966763DE LEON, WILFRED                                        20500
B0101403450000002975655***************                                          1602
A0101403450521271999001**********                                               0501
B0101404000000002799775LMA LAW OFFICES                                          1603
A0101412180000000908463SORIANO, JOIE PARAGAS                                    0503
B0101412180000000075410ECOLOGY VILLAGE III CONDOMINIUM                         11602
B0101412180000000075410CORPORATION                                             21600
A0101404260000002302209MARGALLO, MILLAN MACADINI                                0501
B0101404260000000550332S-GERA PAINTING INC.                                     1605
B0101404260611034715001LAY BARE FRANCHISING CORPORATION                         1605
B0101414410612821100608**********                                               2001
B0101409890649044639001BISKWIT CO.                                              1605
A0101409920000001951880MEMBERS OF NATASHA (SHOECAT INC                         10503
A0101409920000001951880DEJUCOS, PURITA                                         20500
A0101407690000003207343RECODO, NEOMILYN BALANAY                                 0501
B0101407690652034012001CONSUMER ADVANCES AND SERVICES HOUSE,                   11602
B0101407690652034012001INC.                                                    21600
A0101407690652455653001PEREZ, EDGARDO OR PERLA                                  0501
A0101407690652525001019NACENO, LOURDES B. - DEALERS OF                         10501
A0101407690652525001019SHOECAT INC.                                            20500
A0101407690652525001079AILYN C DIZON - DEALERS OF                              10501
A0101407690652525001079SHOECAT INC.                                            20500
A0101410300000004361608REYES, MA CARMEN ALCUAZ                                  0502
A1301400340683564481001REMO, NILO AVENDANO                                      0501
A0101408240000002331226VECIN, LUIS MIGUEL HERNANDEZ                             0501
B0101408240000000832633A & V MALITLIT DEVELOPMENT CORPORATION                   1603
A2801400230000008314032DIMACALE, KEVIN DE GUZMAN                                0501
B4101400390000006103559LEAD WITH INTEGRITY AND GOOD GOVERNANCE                 11605
B4101400390000006103559IN HELPING COMMU                                        21600
A4101400550000002091101MENDIZABEL, ROMEL GAERLAN OR                            10502
A4101400550000002091101MENDIZABEL, VINA ABIGAIL                                20500
A4101400550815648589004GICA, JENNIFER ALONZO OR                                10502
A4101400550815648589004GICA, EZRA VAN ABRIGO                                   20500
A0101404840851428321001GUTIERREZ, OLIVER OR ROGELIO                             0501
A0101406750000001491812GEOCALLO, ELIZABETH DACERA                               0501
A0101405070861197650002********                                                 0502
B0101419040403821100608**********                                               2002
B0101419040403821200608**********                                               2002