B0101406880513821100608**********                                               2010
B2201400250561821100608**********                                               2004
A0101410720653478374012MYRA E. ISIP                                             0502
A0101410720000000968061FRANCISCO, SALVACION QUINTIA                             0501
A0101403320000001646602PERALTA, MARITES FARINAS                                 0501
B0101403320471020319002LORD OF THE NATIONS, INC.                                1602
B0101407720602005968001MEDICAL PLAZA MAKATI CONDOMINIUM                        11605
B0101407720602005968001CORPORATION                                             21600
A0101407720602399815001ALEJANDRO, RUTH MARGARET                                10501
A0101407720602399815001FRANCISCO                                               20500
A0101400860011419699001**********                                               0505
A0101400150061226461002SHEILA GOMEZ OR                                         10501
A0101400150061226461002BEDE LOVELL GOMEZ                                       20500
A0101400150061229814001LEONCIO C. LIM                                           0501
A0101400150061656401001GOMEZ, SHEILA OR                                        10501
A0101400150061656401001GOMEZ, BEDE LOVELL                                      20500
A0101405810072490012001***************                                          0505
B0601400100000000142247ANGELES FORTUNE (HONGKONG) SEAFOOD                       1605
B0601400100000002099421**************************                               1603
A0101410850000000005789AUSTRIA, MA. DOLORES RODRIGUEZ                           0501
A0101410850000000778770PEREZ, ANNA NERISSA BAUTISTA                             0501
A0101410850109053560002HERNANDEZ, JUNE JT DBU JUNE AND                         10501
A0101410850109053560002YVETTE TRUCKING                                         20500
A0101410850000003101902HERNANDEZ, DBU R & D MOVERS                             10504
A0101410850000003101902TRUCKING SERVICES                                       20500
A0101410560110478374009SAUDILYN M. PENAS                                        0502
A0101401960121238841001**********                                               0502
A0101412630000004062002CENAR, LOIDA DBU LMH MEDICAL                            10510
A0101412630000004062002SUPPLY DISTRIBUTOR                                      20500
B0101401830000000033638CARITAS SALVE CREDIT COOPERATIVE                        11603
B0101401830000000033638(MANDALUYONG)008                                        21600
A0101400440000000337535ABELLA, RICHELLE CERILLA                                 0501
A0101400440000000596630MARY ANN A. OYARDO                                       0501
A0101407270000009025872CAIRO, MARIE JANICE LINDSAY OBA                          0501
A0101407270162333003007******                                                   0502
A0101407270162333154022JESUS R. MONTEMAYOR                                      0502
A0101401090171061136002GR MANLANGIT CONSTRUCTION                                0501
A0101401090171543197002MARY DIANE S. REYES OR                                  10502
A0101401090171543197002CRISTINA R. ADAL                                        20500
B0301400530000000025356RAZONABLE, MARILOU DBU VICTORY                          11601
B0301400530000000025356JAM AGRI BUY AND                                        21600
B0301400660194044769038LUMINOUS DEVELOPMENT CORPORATION                         1610
A0301400660000006862720LIU, HSIPIN UY                                           0502
A0301400950000006080359REYSON, JOHN KIM D. OR                                  10502
A0301400950000006080359ABALLE, MEL CHITO G.                                    20500
B0301400950000002115895************                                             1602
A0101413020000003055369JCBC ENTERPRISES                                         0502
A0101410720000000967922MARIA EDUVIJES ANASTACIA M.                             10501
A0101410720000000967922CASTRO                                                  20500
A0101413600000005355040MA. REGINA SINTA Y. TECSON                               0501
A1001400190231520766125YANA, MAYFLOR DAGOC                                      0501
A1301400760000001294902FIA S. APOLONIO                                          0501
A1901400290000005565820JUDITH ATE VIRTUDAZO                                     0501
A1901400290000009026022MARIA JANNETTE CRUZ DE GUZMAN                            0501
A1901400290000001975244LIEZL LUNAR COMIA                                        0501
A1901400290261478374021JOCELYN MAULEON MAPOLON                                  0506
A0101406620273444658001GINA L. JULIANO OR                                      10502
A0101406620273444658001NOLY P. JULIANO                                         20500
B0101411820277821100608**********                                               2003
B0101400570281025379002UNITED PHYSICIAN HEALTH SERVICE INC                      1601
A2601400270000002312221BETTY D. ABUAN JR.                                       0502
A1101400120000000652620GO, COCAINE Y. OR                                       10502
A1101400120000000652620GO, NICHOLAS JASON F.                                   20500
A1101400120000006080844TIU, LUCHIE LACAMBRA                                     0501
A1101400120000003981157CASIO, GIL POTESTAD DBU GIL                             10502
A1101400120000003981157LUMBER DEALER                                           20500
A1101400120000000652351YAO, RONALD PHILIP GO                                    0501
A6601400120314761671001CORILLA, MARIEDEL SAMPAYAN                               0501
B2001400290315044204001ACEBANK CREDIT, INC.                                     1601
B0101402350321035857001MOBICAR TRADING CORPORATION                              1602
A0101402350321179570001EPHRAIM NEAL C. ORTEZA OR                               10501
A0101402350321179570001IMELDA L. OLIVAR                                        20500
A0101402350000000019127ARDIENTE, MARIA CORAZON CASTRO                           0501
A0101402510000000049329UNICARE DENTAL, MEDICAL TRADING                         10501
A0101402510000000049329CORPORATION                                             20500
A0201401020000000055952DANO, JOSIE DANAS                                        0502
A0101408370000002264079CHRISTOPHER A. SANTOS M.D                                0501
B0101411660384046304001ELITE GLOBAL SOURCING PHIL. INC.                         1602
A0101402770391575057002VENTURA, EVANGELINE RAMOS                                0501
A0101408400394478374063LACSON, MARITES                                          0502
A0101408400394604389001MOLINA, LORETO OR                                       10501
A0101408400394604389001MOLINA, JEANNETT                                        20500
A0101408950000003978861PLACIDO, NARCISA CABALLERO                               0501
A0101409210000009030324CADIZ, MA. DINAH LINO                                    0501
A0101409210000009030415SAGAD, ANGELINE HUIDEM                                   0501
A0101409210000009030471CALINGO, EMELITA MANUEL                                  0501
A0101409210000009030539MONTILLA, REY ANTHONY ENELLUNA                           0501
A0101409210000009030580PEREZ, RHEA JEAN NAVARRO                                 0501
A0101409210000009030619ESCUDERO, CARLA TOLENTINO                                0501
A0101409210000009030631EQUIPAJE, JENNIFER GUZMAN                                0501
A0101409210000009030660GONZALES, ARIS LAWAS                                     0501
A0101409210000009030693BERMUDEZ, MARK KRISTOFFER SALAV                          0501
A0101409210000009030711FLORES, MARY ROSE DELA VEGA                              0501
A0101409210000009030740ABANTO, ALEXANDRA KIM ORTEGA                             0501
A0101409210000009030762QUISUMBING, JOHN MICHAEL VINCEN                          0501
A5501400120410616229001ESCANO, CLAIRE BASAN                                     0502
A0901400220000006214455**********                                               0501
A0101403030000008089323**********                                               0503
A0101412890000001056360AMIDO, NORMA GUEVARA                                     0501
A0101403320000006026893**********                                               0501
A0101403320471560880001REYNALDO JAMERO SANTIAGO JR.                            10501
A0101403320471560880001OR JOCELYN V. SANTIAGO                                  20500
A0101403320471633972001CRISTINA LOYOLA YSMAEL                                   0501
B0501400170481020083003COLEGIO DE DAGUPAN, INC.                                 1610
B1901400160491046052001BANAPRA DEVELOPMENT COOPERATIVE                          1603
A1901400160491055261001MANALO, KEVIN OLIVER MARQUEZ                             0501
A1401400110492029549002TRIPTORS DIAGNOSTIC CENTRE                               0502
A0101406880000000511093LUCERO, GRETCHEN PANGAN                                  0502
A0101406880513635484001MONTOYA, JENINA MANABAT                                  0501
B0101408530516005188001SEARCHERS & STAFFERS CORP.                               1610
B0101408530516524823001SL TEMPS INC.                                            1610
A0101408530516571877145RODOLFO H. HERRERA JR.                                   0501
A0101408530000001885629ARIANNE JOIE D. ANDAL                                    0501
A0101411400000004555733MANOLOTO JR., ANTONIO CANDELARI                          0501
B0101403450521011744001CBK CONSTRUCTORA, INC.                                   1602
A0101403450521238538002**********                                               0502
A0101403450521656347001CO, SHARON VALERIE CHIONG                                0501
A0101403450521656358001CO, STEPHEN VINCENT CHIONG                               0501
B2201400250561035770001TARLAC MAC ENTERPRISES, INC.                             1602
A2201400250561478374025LUZMINDA M. GACILAN                                     10501
A2201400250561478374025MEMBERS OF NATAS                                        20500
A0101404130601286913001SEVILLANO, PILAR CEAS                                    0501
A0101407720602358398001ELIZABETH D. SERRA-SANTOS                                0502
A0101407720602396333001RAJAGUKGUK, BELEN PANTANGCO                              0502
A0101409890000000437336RAZON, FLORENTINA CAYCO                                  0501
A0101407690000002348832ALUNDAY, TERESITA AREVALO                                0502
A0101407690652609264006AUGUSTO S. DE JESUS OR                                  10501
A0101407690652609264006MILA S. DE JESUS                                        20500
A0101413440000000702178DIVINAGRACIA, GIL E. OR CARMELA                         10501
A0101413440000000702178G. OR TIMOTHY JO                                        20500
A0101413990000006768638***                                                      0501
A0101406590662297269001MARTINEZ, ARMAN M. OR MARTINEZ,                         10501
A0101406590662297269001MARIA THERESE G.                                        20500
A1301400340000000100352DE ERE, MARY ANN BULARAN                                 0502
A1301400340000001415598TILA, REAGAN CRUZ OR TILA,                              10501
A1301400340000001415598JACQUELINE ONG                                          20500
A0101408240711373129001HELEN C. AGONIAS                                         0501
A0101408240711390504002ROXAS, CHITO OR SHEILA                                   0501
A0101408240711537919001MANIPOL, URBANO GADO                                     0501
B4101400390000003346187PAGASA PHILIPPINES LENDING COMPANY                       1603
A4101400390813482809001AGCAOILI, EVANGELINE EDROSA JT                           0502
A4101400420814520766085ANNALIZA P. PRADO                                        0502
A4101400550000000315062SUSON, STEVEN OGABANG                                    0502
A0101412340000003343768LEE MARVIN C. HORMILLOSA                                 0501
A0101412340000003348634GABRIEL S. SALCEDO                                       0501
A0101404840851317230019FURAGGANAN, GENE C.                                      0502
A0101406750852380584002TUMBOKON, LEAH RABE                                      0501
A0101405070000005619354BARRERA, BERNARD PAGUIRIGAN                              0502
B0101405070861008154001KUMAR PLASTICS                                           1603
A0101405070861478374066ELMER LADRES APAS                                        0501
B0601400230891028118001D.M. AUTO SUPPLY                                         1605
