F0101412470000003847529LIVAN TRADE CORPORATION                                  2602CK1
F1401400110492031397001MGDJ CONSTRUCTION                                        2505CKO
F0101405940512015937004BATAAN 2020, INC.                                        2606CKR
F0101414410000001346327TRANSCOM WORLDWIDE                                      12650CK1
F0101414410000001346327(PHILIPPINES) IN                                        22600CK1
F0101414410000001346338TRANSCOM WORLDWIDE                                      12650CK1
F0101414410000001346338(PHILIPPINES) IN                                        22600CK1
F0101409890649047374001FRIGID ZONE AUTO AIRCON                                 12603CKR
F0101409890649047374001SPECIALIST CO.                                          22600CKR
