A0101404840000000004042DE ASIS, ERIC BARAMEDA                                   0501
A0101410720000000053272BARUANG, SALOMBAI AZIS                                   0502
A2801400230000000063192DE VERA, MIGUEL MONTEMAYOR                               0501
A0101406460000000182654**********                                               0501
A0101413570000000206620MCDM TRADING                                             0502
A4101400550000000315040BUMA-AT, THELMA                                          0501
A4101400550000000315171**********                                               0502
A0101405490000000444313BENITO M. LOJO                                           0503
A0101404260000000532205DUKA, CEZAR COQUILLA                                     0501
A0101411820000000589391LOIS MAE P. MENDOZA                                      0501
A0101406590000000905486CUCUECO, FILOMENO ROQUE                                  0505
A1301400340000000926927DELA CRUZ, RONNEL SANTIAGO                               0501
A0601400230000000990063**********                                               0505
A0501400170000001072731ABCEDE, JORRECA DE PERIO                                 0502
A0301400660000001113795VILLADAREZ, RICHARD RANIS                                0501
A0101402350000001474324MARTINEZ, KENNETH BUHAT                                  0501
A4101400390000001732736CLAVERIA III, DON VIVENCIO G                             0501
A0101400730000001822839UBINA, EDITHA TAROY                                      0503
A0101408400000001855450EVANGELINE I. ALIGATO                                    0506
A0101405490000002253010ROSEMAE J. SISON                                         0501
A0101412890000002747937********                                                 0503
A0101401090000003178589RAVINA, ELIMAR ALUPAY                                    0501
A1301400760000003415665GIL P. MENDOZA II                                        0501
A0101409180000003780610ELAINE NAUMAI CHEE                                       0501
A0101405490000004353002ERICK VICTOR R. MARTINEZ                                 0502
A0101412340000004359940GEORGE PAUL N. GALANG                                    0501
A0101409180000004940723DAMOLE, GLENN LYNARD                                     0501
A0101400860011426836001*********                                                0502
A0101400860011453178001**********                                               0502
A0101400860011483349001**********                                               0505
A0101400860011532652001**********                                               0502
A0101400860011540778001**********                                               0505
A0101400860011653135001**********                                               0505
A0101400150061226342001MA. NIDA Q. AMISTAD                                      0501
A0101400150061671569001********                                                 0501
A0101400600071233611001WELLINGTON GO                                            0502
A0101405810072312400003************                                             0501
A0101405810072385132001***********                                              0503
A0101400440161478374018MA. DELIA P. FERMANTE                                    0501
A0101400440161520766189PRESCILA P. DOTONG                                       0501
A0101400440161525001111MA. MARILOU A. ARAFILES                                  0501
A0101401090171195155001MA. AUXILIADORA R. REBURIANO                             0501
A0101401090171290445001MARY ANN G. SANTOS                                       0501
A0301400660194737283088ZHI VENUS INDUSTRIAL SUPPLY                              0502
A3101400450223479138001GUEVARRA, LARRY OR EVANGELINE                            0501
A1001400190231333948001ABELLA, LYDIA ROMULO                                     0502
A1001400190231731854001APDIAN, BETCHEROS OTOC                                   0501
A0101401670271423175001ANDREW L. AGUIRRE                                        0501
A0101406620273723071001NG, BERTRAND CHENG   JT                                  0501
A0101408660274371567001DEL CARMEN, MICHAEL                                      0503
A0101408660274478374012ELSA R. ETCUBANAS                                        0501
A0101400570281347924003BATARA, JULETTE-MARIE FELICIANO                          0512
A0101400570281388076001DR. RAJU MURLI SADHWANI                                  0501
A0201400890376038937002ECB TRADING                                              0505
A0101408370382318435001ARMANDO E. QUINTONG                                      0502
A0101408370382507231001DR. HELEN GRACE I. ORJALO                                0501
A0101402770391476396003MA. LOURDES O. MAGSINO                                   0503
A1201400150421252661001JOHN KWAN OR JENNY KWAN                                  0504
A1201400150421478374035DALAN, LINDA G.                                          0505
A0101403030441490531001**********                                               0502
A0101408110515708875001DR. JAMIE ISIP CUMPAS                                    0502
A0101404130601492243001DONGUINES, ROWENA DREQUITO                               0501
A0101404260611157044001DEMIAR, ROSIE                                            0502
A0101409890649721710001MAPILI, ERICK RYAN RIVERA                                0501
A01014107206530270550013 J METAL INDUSTRIES                                     0502
A0101410720653333633001NAVIDAD, NOEL NILLO                                      0502
A0101406590662501295001DE GUZMAN, MARIO TUBADEZA                                0501
A1701400230693478374044CECILIA CORRALES                                         0501
A0101408240711219571001MERCEDES M. OLIVER                                       0502
A0101404840851046725019LETICIA QUINANOLA                                        0501
A0101404840851520766032MILA SALAZAR                                             0502
A0101405070861380698001REYES SR., RENATO SISCAR                                 0501
A0601400230891398766001..........                                               0502
A0301400530000000065898BARTOLOME, MICHAEL DBU SOLID                            10501
A0601400230000000452782GOZUN, R-JAY RAMOS                                      10510
A0101413440000000570303GUARINA, R. DBU GEOMATICA                               10501
A3401400280000000784561MARY RENALIN T. LEONIDAS OR                             10501
A0101412890000001765711BUCCAT, KRISTINE ANNE                                   10501
A1001400190231273298001NORTH CENTRAL MINDANAO DISTRICT                         10505
A1001400350233272028001MAANDIG, ERLINDA B. OR                                  10501
A0101402510341554527001GO, LONG CHEN OR                                        10501
A0201401020377046499001TEH, MARIA ELENA BLANCO DBU                             10502
A0101408370382034783001TMC - DEPARTMENT OF                                     10502
A1901400160491422212001OLIVER B BORILLO OR                                     10502
A0101403610531219472002NAVOA JR., FILOMENO CORPUZ OR                           10502
A0101404130601786219001CONCEPCION, JULITA M. OR                                10501
A0101407720602161863003ROBERTO K. MACASAET OR                                  10502
A0101407720602167450001RAPHAEL GERARDITO MIRASOL OR                            10504
A0101410300663091328001VALENOVA, MARIA CRISTINA T. OR                          10502
A0301400530000000065898GROUND SECURITY AGENCY                                  20500
A0601400230000000452782OR GOZUN, MYRNA                                         20500
A0101413440000000570303ENGINEERING                                             20500
A3401400280000000784561REYCIL T. SEVILLE                                       20500
A0101412890000001765711VILLANUEVA                                              20500
A1001400190231273298001COUNCIL                                                 20500
A1001400350233272028001MAANDIG, CARLSTO                                        20500
A0101402510341554527001GO, CECILE ONG                                          20500
A0201401020377046499001E.T. PRINTSHOPPE                                        20500
A0101408370382034783001ANESTHESIOLOGY                                          20500
A1901400160491422212001MARIBEL C BORILLO                                       20500
A0101403610531219472002NAVOA, NANETTE P.                                       20500
A0101404130601786219001CONCEPCION, LUIS                                        20500
A0101407720602161863003VIRGINIA M. RAFAEL                                      20500
A0101407720602167450001NORMA JEAN MIRASOL                                      20500
A0101410300663091328001VALENOVA, NOEL S.                                       20500
B1301400470000000009583PCCD FOODS CORP.                                         1610
B0601400230000000029672BATTERY DEPOT OF CENTRAL LUZON INC.                      1605
B2401400180000000073709ULTRAVOLTS CORP.                                         1605
B0101410300000000191633THE KIDS FOR KIDS INC.                                   1601
B0301400660000000195135DAVAO CORNER PLAS CORPORATION                            1610
B0101410300000000919580ONG, WILLIAM DY                                          1601
B0101402770000001571233LEADER GARMENTS CORPORATION                              1610
B2801400100000003400506COLLEGE OF SUBIC MONTESSORI SUBIC B                      1601
B0101400860011374971002**********                                               1602
B0101405810072011390001MODISTE ACCESSORIES INC.                                 1604
B0101406460272038141001LIMKETKAI HOTEL & RESORT CORPORATION                     1601
B0101402930381008829002AXEIA DEVELOPMENT CORP.                                  1615
B0101402930381009171001CREDIT PILIPINAS INC.                                    1602
B2401400180411046609001MATUTUM OIL MILL AND REFINERY                            1603
B1401400110492046339002******                                                   1620
B0101403450521012107001**********                                               1603
B0101403610531046549001BIG APPLE PLASTIC PACKAGING INC.                         1602
B0101407720602463868002MAKATI HEALTH SPECIALIST CONNECTION, INC                 1601
B0101404260611057756001SYNERGOS PASSION ASIA, INC.                              1601
B0101409890649044639001BISKWIT CO.                                              1603
B0101408240711023642001SAM SUNG PHILIPPINES CO., INC.                           1602
B0101411240000000012120DIVINE PROVIDENCE COMMUNITY WELFARE                     11602
B3801400170000000018777ANTONIO CATIBOG II OR ZENAIDA CATIBOG OR                11610
B1201400150000000034380THE LORD IS MY SHEPHERD CHRISTIAN MINIST                11601
B1101400120000000652391ONG, VIRGINIA PO OR ONG, WEE CHI PO OR                  11602
B1001400480000003357817LINAAC JR., CECILIO GRANADA DBU LINAAC                  11602
B2001400290315071661001R.UYPITCHING, IRWIN, KATRINA, ADAM, KEN                 11601
B0101402930381024568001MCKS FOOD FOR THE HUNGRY                                11603
B0101412210399056471008UY, MARCO DBU MARPO TECH INTERNATIONAL                  11601
B0101411240000000012120INCORPORATED                                            21600
B3801400170000000018777HAZELYN ACEDERA                                         21600
B1201400150000000034380RIES BAGUIO CITY                                        21600
B1101400120000000652391ONG, WAN LIAN PO                                        21600
B1001400480000003357817TRUCKING SERVICE                                        21600
B2001400290315071661001& LU,CIPRIANO II                                        21600
B0101402930381024568001FOUNDATION, INC                                         21600
B0101412210399056471008TRADING                                                 21600
B0101416740010501011041**********                                               2102
B0201400210371821100608**********                                               2020
B0101405490392821100608**********                                               2005
B2401400180411821100608**********                                               2010
