F0101400150061372876001SUMULONG, JUAN CARLOS BENARES                            2501CKO
F1801400130151048751001MSU-IIT NMPC TIBANGA MAIN BR.                            2602CKR
F0201400180181053267001NEW GOODLY MERCANTILE, INC.                              2702CKC
F0301400110191038997168DAVAO HELEN'S PAWNSHOP CORP.                             2605CKR
F0301400820409050364001OKING, MARIE ADELAINE                                   12610CKR
F0301400820409050364001DBU PAULINO HOSP                                        22600CKR
F0101403580511018993001DANADA PHILIPPINES, INC.                                 2602CKO
F0101403580000000214720TRENDS AND CONCEPTS TOTAL                               12605CK1
F0101403580000000214720INTERIOR SOLUTIO                                        22600CK1
F0101403580511496054001THE SERENISSIMA ENTERPRISES INC                          2602CKR
F0101404130601614586002UNICHAMP MINERAL PHILIPPINES                            12602CKR
F0101404130601614586002INC.                                                    22600CKR
F0101404260611034502001RSC MARKETING SERVICES                                  12601CKR
F0101404260611034502001CORPORATION                                             22600CKR
F1301400210682033690001FELIZA JAZZ CORPORATION                                  2601CKO
F1301400210006825500383LINGKOD NG PAG-ASA FOUNDATION INC.                       2601CKO
