B0101400730111008426002COUNTRY BANKERS INSURANCE CORP.                          1602
A0101400730111203514021BANTA, MYRALIN                                           0501
A0101400730111483566001MONZON, HOPE CUBITA                                      0504
A0101400730111520766051RABAGO, LENY FE                                          0501
A4101400420814641056001LARROZA, ELOIDA LOJA                                     0501
B3001400130230048097001PENALOZA, VICTOR DBU UBIC BEARING AND                   11603
B3001400130230048097001SEALS DEPOT                                             21600
A3001400130230478374011BULADACO, RUBY MADRIO                                    0501
A3001400130230478374025DECAMOTAN, JOCYGLIN VILLAMOR                             0501
A0101412890000001056331ZABALA, MARCO ANGELO VILLA                               0501
A4101400420814520766012SUSAN B. MALBOG                                          0501
A4101400420814520766034LEONIDA M. OBELIDOR                                      0501
A4101400420814520766065ANGUE, HONEYLYN D.                                       0501
A0101401250021453364001TORREJOS, ALFREDO OR                                    10502
A0101401250021453364001RYAN ALVIN OR CARMEN                                    20500
B0101400150061047235001ROYAL METRO POINTE DEVELOPMENT INC.                      1602
A0101400150061055752056BUNSOY, CHRISTIAN ERWIN GARCIA                           0501
A0101400150061227098001TITA CARANTO OR PIO CARANTO                              0501
A0101400150061236944002MARY CHRISTINE L. CHUA                                   0501
A0101400150000001708083SERVER, ERNEST FRITZ DULA OR                            10501
A0101400150000001708083SERVER, CHRISTOP                                        20500
B0601400100081013258001CLARKTON HOTELS, INC.                                    1620
B0601400100000000142214SIMON AND STANDLEY INTERNATIONAL TRADING                11605
B0601400100000000142214& DEVT CO, INC.                                         21600
B0101414090000006743542BAUTISTA, FLORENTINO C AND BAUTISTA,                    11601
B0101414090000006743542MA. CECILIA                                             21600
A0101406040000000014757ONG, J DBU JILZEN ENTERPRISE OR                         10502
A0101406040000000014757JONATHAN C. BANGAYAN                                    20500
A0101413150000000082562******                                                   0501
A0101412630000001823321BOLOS, J DBU ADTANK                                     10502
A0101412630000001823321DESIGNS ADVERTISING                                     20500
A0101401830141060973001OLIVA, KEVIN JUDDRIAN A DBU                             10501
A0101401830141060973001OLIVE AIR ENTERPRISES                                   20500
A7201400170152060879001RENDON, EDNALYN BACAY DBU                               10501
A7201400170152060879001FRIENDLY MOTORS REPUBLIC                                20500
A0101400440161478374021DOROTHY D. SANICO                                        0501
A0101407270000006746843DE JESUS, ANGELICA AMOR BERNAL                           0501
A0101407270162507882001ALETH ARTHER M. ONG                                      0501
A0101401090000000772225EDLYN ABAN EBIAS                                         0501
A0101401090000005320530AGUILAR, CARLOS ANGELO DAVID                             0501
B0101401090171021639001UST HIGH SCHOOL PARENTS                                 11602
B0101401090171021639001ASSOCIATION, INC                                        21600
A0101401090171195155001MA. AUXILIADORA R. REBURIANO                             0501
A0101401090171775528001JULIETA A. PERALTA                                       0502
B0301400530000006239654MAGHANOY, SHIRLEY PERALTA                                1601
A0301400950000002251992******                                                   0501
B0101412500000000041670MOLDEX REALTY INC.                                       1602
B0101412500000000041692MOLDEX PRODUCTS, INC                                     1602
A3101400450000005960363LAYLO, CHINO D. DBU                                     10502
A3101400450000005960363CDL LAND DEVELOPMENT                                    20500
B3101400450223709906001SPC HARDWARE & CONSTRUCTION SUPPLY                       1602
A1001400190231292400004JUGADOR, MARIO EBARLE                                    0501
A1001400190231478374041MARIVIC D. MARFORI                                       0501
B1001400350233040872001MARIA CRISTINA AGRO TRADING, INC.                        1602
A1001400480000000041523PO, MARILOU TRAJANO OR PO,                              10502
A1001400480000000041523MAUREEN TRAJANO                                         20500
B1301400470000003270135EPS HAULING COMPANY INC.                                 1602
A1901400290000003435663ANNALIZA PANGANIBAN GAMEZ                                0501
A1901400290000006560114MARK BRANDO ALMERO INFANTE OR                           10501
A1901400290000006560114BERWIN ALMERO ALMERO                                    20500
B1901400290261013980001VIC IMPERIAL APPLIANCE CORP.                             1602
A1901400290261048991001DRA EDELWISSA ILAGAN GUTIERREZ                           0501
A1901400290261298552034MA. LUCIA D CALINGASAN                                   0501
A1901400290261478374030NATIVIDAD GONZALES MAGTIBAY                              0501
A0101406460272381558001********                                                 0501
A0101406620273361194001DANILO T. CHUA JR.                                       0503
B0101412470000002338843WEBLEND INC.                                             1601
A0101400570281345943002EDWIN C. DE LEON JR. OR                                 10503
A0101400570281345943002STEVE C. DE LEON                                        20500
A0101400570281395118001HONEYLIN C. ROXAS                                        0501
A0801400160311265752001DIVINAGRACIA, LLANE GRACE                                0501
A0101402350321036762001TRADE SPECS BUILDERS                                     0503
A0101402350321327731001JOHNNY S. CO                                             0502
A0101402350321526808001LUCITA R. TARRAY                                         0502
A0101402060000002259823MAQUILING, VIRGILIO S. OR                               10501
A0101402060000002259823MAQUILING, PETER PAUL B.                                20500
A0101409050000006746581UY, MICHAEL JOSEPH CABELLO                               0501
A0201400760000005710992BELUAN, CRISCELDA DAGANI                                 0502
A0201400920000001331559JNJ FURNITURE AND DESIGNS                                0504
A0201400890000006739800HUANG, JEREMY RYAN LIMTONG OR                           10501
A0201400890000006739800HUANG, DIANNE GANDIONCO                                 20500
A0201401020000000056379MALLAPRE DBU HOME MOVIE THEATER                          0501
A0101402930381423656005EXCELSIS V. ANTOLIN                                      0501
A0101408370382205147001DR. JOSE EMMANUEL G. FLANDES OR                         10505
A0101408370382205147001DR. NORA M. FLANDES                                     20500
B0101411660000000032220ELIZABETH A JOSE AND FRANCO C                           11601
B0101411660000000032220JOSE                                                    21600
A0101402770000005324458MINOZA, JEROME PAUL P. OR                               10501
A0101402770000005324458SOTTO, LORDANA C.                                       20500
B0101402770000001571637BERMUDEZ, MARCELIANA E. DBU BERMUDEZ CUT                11605
B0101402770000001571637S LIVELIHOOD ENT                                        21600
A0101408400000001855381ABSA BUILDERS                                            0502
A0101408400394478374057EVELYN M. BONGAT                                         0505
A0101408400394478374090MARY DUMASLAN                                            0501
B0101408950396037899001NOLSEN CONSTRUCTION & TRADING                            1602
A0101408950396420560001MICHAEL LIM VILLA OR PATRICIA                           10501
A0101408950396420560001YUKIJI JAVIER VILLA                                     20500
B2401400180411033833088JOLISA AGRIBUSINESS CORPORATION                          1610
B2401400180411036768001MJ CARGO EXPRESS LOGISTICS, INC.                         1610
A2401400180000002146334OMAY, Z DBU CRIZA ENTERPRISES                            0502
B2401400180411276067001GAISANO DADIANGAS, INC.                                  1610
A2401400180000000073469TAPUZ, JOSEFINO TORCUATOR                                0501
A1201400150421257268004MIRANDA, GEMMA VITUG                                     0520
B0101412890000003727866SUMMIT CONSTRUCTION AND DEVELOPMENT                      1602
A0501400170000002357326DE LEON, JOSEPHINE ESPANOL                               0501
A0501400170481318580004ANA CRISTINA L SINLAO                                    0503
A3801400170000000955040EDWIN C ACOB                                             0501
A1901400160491488114001RON VINCENT G CAGUIMBAL                                  0502
A1401400110492246101001DE VILLA, MADGELINA AURE                                 0501
A1601400170000001360703BENJAMIN PO OR MONA PO OR                               10505
A1601400170000001360703ORLANDO ROCES                                           20500
A1601400170000000497423MENCHU R. BUADO                                          0501
A1601400170000000497569MARISSA A. ARCANGEL                                      0501
A0701400260000001804713LIZARDO, CHRISTOPHER REYES DBU                          10502
A0701400260000001804713CRL TRANSPORT                                           20500
A0101407430000004687470EDWARD C. RIVERA                                         0501
A0101407430503333427005ABNER G. LACSON OR                                      10501
A0101407430503333427005EVELYN D. LACSON                                        20500
B0101403580511005406001SHINRYO (PHILIPPINES) COMPANY, INC.                      1605
A0101403580000000016082SWEET BELLA DESSERTS                                     0508
A0101403580511155830002ALFREDO R. SERVINIO OR                                  10501
A0101403580511155830002PATRICK E. SERVINIO                                     20500
A0101403580511156598004ALICIA C. DELOS ANGELES                                  0501
A0101403580511196754001CARMELITA E. LA O' JT                                    0502
B0101411790000004808106SPECTRUMED INC.                                          1603
B0101403450521011675001TORQUE BUILDERS, INC.                                    1604
B0101403450521011968001**********                                               1602
B0101403450521078888003PUREGOLD PRICE CLUB, INC.                                1620
A0101403450521238185001********                                                 0502
A0101403450521389561001**********                                               0505
A0101403610531219680004RONWHEELS PARTS & ACCESORIES                             0501
A0101404000551150316001JOCELYN A. CASTRO                                        0505
B0101404130601025459001RAMOS, RONALDO BALILO DBU ERICMAN                       11602
B0101404130601025459001PRINTING SERVICE                                        21600
A0101407720602399815001ALEJANDRO, RUTH MARGARET                                10501
A0101407720602399815001FRANCISCO                                               20500
A0101407720602450511001CARCASONA, ALEJANDRA M.                                  0501
B0101407720602531639007INTELLIGENT BEAUTY SKIN SOLUTIONS INC.                   1610
A0101407720602708669001HIPOLITO, MAUDE MAXINE ROLLE                             0501
A0101413570000004353797GRACE F. GANGANO                                         0503
A0101410300000002375904TRISTAN PAUL C. TAGLE OR                                10501
A0101410300000002375904KRISTINE N. TAGL                                        20500
B0101410300000000191564FITNESSCAPE CREATIVE STUDIO, INC.                        1604
A0101410300000000592198BARBASA, J DBU TIGER WATER                              10502
A0101410300000000592198STATION & GEN ME                                        20500
A1301400210682555728001MARINA M. ROQUE                                          0505
B1701400230000002762569JOHN HENRY CAR CARE CENTER                               1605
A1701400230693662898002DUQUEZ, REYNALDO AQUINO                                  0501
A0101408240000000039530MORADA, VICTOR GERARDO M. OR                            10501
A0101408240000000039530MORADA, MARIA MAI MONICA                                20500
A2801400100000000188232VILLAFLOR, ANGELITA CORPUZ                               0501
B2801400100712028940001HUANG CONSTRUCTION CORPORATION                           1605
A4101400260000000541182BUENA, JOCELYN DELA CRUZ                                 0502
A4101400390813478374023LIZA C. REAÑO                                            0502
B4101400550815000593001IMUS RURAL BANK, INCORPORATED                            1601
A0101404840851478374121MARISSA L. ESPARAGOSA                                    0502
A0101404840851520766180CARMELITA M. BARBACENA                                   0501
A0101404840851563081001CRISTOBAL, MARY JANE E.                                  0501
A0101405070000003439718CHAN, RICARDO GONATO                                     0501
A0101413860000006463807RAMOS, GRACE BRUAN                                       0502
B0601400230891037137001CARWORLD, INC.                                           1605
B0601400230000000029729JARE TRADING CORPORATION                                 1603
