B0301400660194821100608**********                                               2020
A0101412890000009833612FLORES, MA AISSA ONG                                     0502
B2401400180411014376002PENBANK, INC. (A PRIVATE DEVELOPMENT                    11603
B2401400180411014376002BANK)                                                   21600
B2401400180411014575003SOCSKSARGEN FEDERATION OF FISHING &                     11603
B2401400180411014575003ALLIED IND.                                             21600
B2401400180411031958001***********                                              1605
B2401400180411038622002RAK & ACO GENERAL & ALLIED SERVICES                      1603
B2401400180411055962001BROKENSHIRE COLLEGE SOCSKSARGEN,                        11630
B2401400180411055962001INC.                                                    21600
A2401400180411572205001EBRAHIM, MA. AMOR ISHAD                                  0501
A0101412890000005913242BELVIS, GOODY LACSON                                     0504
B0101403320471067650001AQUALINE CONSTRUCTION - ITP CONSTRUCTION                11601
B0101403320471067650001(JOINT VENTURE)                                         21600
B0101400860000000030279**********                                               1605
A0101400860011386650002**********                                               0502
A0101400860000005312845**********                                               0501
A0101400860011487850002**********                                               0501
A0101400860011746708001**********                                               0501
A0101401250021483705002SISON, ROSIVINI ISIDRO                                   0502
A0101411370000005524421BATUIGAS, AURORA REBOQUIO                                0501
A0101400150000011034583BAUTISTA, BANJO ESPINO                                   0501
B0101400150061055521001LEGAL REVOLVING FUND                                     1601
A0101400150061226341001ROBERTO S. SANTOS OR                                    10503
A0101400150061226341001ELVIRA K. SANTOS                                        20500
B0101400150061227726001UNION ADVERTISING                                        1602
A0101400150061229814002LEONCIO C. LIM                                           0501
B0601400100081022437001FHK ENTERPRISES, INC.                                    1603
A0601400100081025360002AMOR REFRIGERATION & AIR                                10501
A0601400100081025360002CONDITION REPAIR                                        20500
B0601400100081296256001CHRISTOPHER OR LOYA MALLARI FAO CHRISSAN                11603
B0601400100081296256001AUTO SUPPLY                                             21600
A0601400520000011030843MENDOZA, STEPHANY CLAIRE LAURET                          0501
A0101410850000003503999TESORO, PABLITO GOMEZ                                    0501
A0101410560000005280611JOEL L. BURAGA                                           0501
A0101401960000006004535SY, ESTER CHOA                                           0502
A0101401960121238709001**********                                               0501
A0101401960121362714001VILMA GUANLAO OR                                        10510
A0101401960121362714001VALERIANO GUANLA                                        20500
A0101401960121362714003************                                             0505
A0101413150000005944272********                                                 0501
A0101412630000004062086BANZUELA, ELEANOR ADORNA                                 0502
B5001400170000005705244CHAN, PATRI BAJAMUNDE                                    1603
A0101400440161037218001RELIGIOUS MISSIONARY SISTERS OF                         10502
A0101400440161037218001LEAVEN OF THE IMMMACULATE                               20500
A0101400440161039572023JIMMY S. PALISOC                                         0502
B0101400440000000337893BIGRED DIGITAL IMAGING                                   1601
A0101400440161525001111MA. MARILOU A. ARAFILES                                  0501
A0101400440161525001119NORA S. TALENTO                                          0501
B0101407270162019023003PHILIPPINE BATTERIES, INCORPORATED                       1605
B0101407270162021675001TACTICAL PROMOTIONS, INC.                                1605
A0101407270162081565001EDUARD P. VELASCO                                        0504
A0101401090171197481002MA. NOEMI OR ELIEZER SALAZAR                             0502
A0101401090171491755001OLIVIA C. GO                                             0502
A0101401090171680564001LUMASAG, CHARLOTTE TOLEDO                                0501
A0301400950000009324534REYES, HERNAN MANZANO                                    0501
A0101413020000002292851PASCUA, KRISTINE BELEN CANICULA                          0501
B0101410720653036522001**********                                               1605
B0101410720653043060001METRO DRY CLEAN VENTURES, INC.                           1603
A0101410720000002283996RANOLA, RONN MARLOWE CABILLON                            0501
A0101412500000003289941DELOS SANTOS, ARLENE FERNANDEZ                           0502
A0101412500000003289930EVANGELISTA, MARCOS RAYTOS                               0501
A3101400450000003072539AZORES, NANILO CABELA OR                                10501
A3101400450000003072539SAHAGUN, ANGELIT                                        20500
A3101400450223223556001*****                                                    0505
A3101400450223491849001JAO, AUGUSTO RAZEL DOMINO                                0501
A3101400870225217498014ARDEN P. PARIAN                                          0501
A3001400130000008916081CAVAN, MELCHOR SUIZO                                     0502
A1001400190231036927001YONG SURPLUS PARTS                                       0502
B1001400350000009439125CROSSBORDER DELIVERY SERVICES COMPA                      1604
A1001400480000006270340DAING, DAISY SALVANA                                     0501
B1301400470000000009696MAKOBOBI DISTRIBUTORS INC.                               1603
A1901400290261067040002MITAL, PRIMO OCAVA DBU MAESTRO                          10502
A1901400290261067040002SYSTEMAS TECHNOLOGIES                                   20500
A1901400290261193220001JOSEPHINE YU TAN                                         0501
A1901400290261469905001VAREMOZA M DOCTOR                                        0501
A1901400290261488341159DR. JOSEPH E MANGONON                                    0501
B0101401670271043894001V 8 COMMERCIAL CO., INC                                  1602
B0101406460272033798001WTA ARCHITECTURE AND DESIGN STUDIO                       1603
A0101406460272529147001BIACAN, MARIA TERESA LAYGO                               0501
B0101406460272678428001ARTESAN PRIME PROPERTIES INC.                            1603
B0101406620000000962465TOP TIER INNOVATION ENTERPRISES                          1604
A0101406620273214432001RAYMOND PETER L. UNLAY                                   0503
A0101406620273216080001MARIA CONCESSA V. DAROY                                  0501
A0101406620000001686702SINCONEGUE, FELIX                                        0501
B0101411110000000604904TENDER LOVE CORPORATION                                  1602
A0101412470000011026821CHEN, YIZHE OR CHEN, RONGYU                              0501
A0101400570281281443001SHIA, JOHNNY TORRES                                      0501
A0101400570281360412001DR. LONABEL A. ENCARNACION                               0502
B0101411240000000012073ADVANTAGE-VEGA BUSINESS SERVICES INC.                    1601
A0101411240000001563457*****                                                    0501
A0501400200000002306025QUISMONDO, ARNEL LAPENA                                  0501
B6601400120314040235001VILLEGAS APPLIANCE & HOME FURNISHING INC                 1603
A6601400120000006154703MEMBERS OF NATASHA, SHOECAT INC                         10501
A6601400120000006154703RENNYROSE L PUASO                                       20500
A6601400120314622580001SOSING, CAROL O. OR FELIPE A.                           10505
A6601400120314622580001OR CAROLYN O.                                           20500
A3401400280318088489001ARTILLERO, RODELO AGUASON OR                            10501
A3401400280318088489001ARTILLERO, RONALD BOCALA                                20500
A0101402350321655062001EDGARDO B. COQUILLA                                      0502
B0101405650322033249001PEAK PROPERTIES INC.                                     1605
A0101402510000003418671CASTILLO JR., JULIO ONIA                                 0502
B0101402510341016819001PHILIPPINE ASSOCIATION OF CHEMISTRY                     11601
B0101402510341016819001TEACHERS, INC.                                          21600
B0101402510341063891002BMS JANITORIAL AND ALLIED SERVICES INC                   1603
A0101402060000002258900LAO, MINERVIA DE LOS SANTOS                              0501
A0101402060351483772001CAPUMPUE, ADOR PEREZ                                     0503
A0101409050000002971566TUMALIN, SALLY BALDINAR                                  0501
B0101409050000007526403PARANE, J DBU KJY EVENTS MANAGEMENT                      1601
A0201400890376535273001TOLEDO,HAROLD XAVIER OR CLIMACO                         10502
A0201400890376535273001BRYAN OR GUEVARRA,KENNETH                               20500
A0101408790000005293756CRISTY LAINE P. GAVINO                                   0502
A0101408400000000607761CRISOLOGO, PINKY ANTONIO                                 0505
A0101408400394163404001PILI, JUANITO AROLFO                                     0501
A0101408400394478374065VILLANUEVA, VILMA E.                                     0501
A0101412210000009036904*******                                                  0502
B0101412210000000031530BREWS AND BLUES, INC.                                    1602
B0301400820000008995555NATURE'S GAIN AGRICULTURAL RESOURCES INC                 1602
A2401400180411564347001LIM, KENNELYN FELISILDA                                  0501
A5101400100000010371358DELA TORRE, MARY GRACE ESCUADRO                          0501
A0101412890000009833601DACER, CESIAH OPULENCIA                                  0502
A0101403320471402087001CECILIA L. DIAMANTE                                      0502
A1901400160000000243514CONRADO AUGUST AMBIDA BONDAD JR                          0502
B1901400160491012578001NEMARIANS CREDIT CORPORATION                             1604
A1901400160491570348001THADDEUS EVANGELIO AQUINO                                0501
B0701400260000000041130TREVOR ETON REALTY CORPORATION                           1602
B0701400260000007895810PRINCETON ENTERPRISES INCORPORATED                       1602
A0101407430000006027921DHALYN M. ESTRELLA DBU                                  10501
A0101407430000006027921HYPER CLEAN TRADING                                     20500
A0101407430503185438005LETICIA D. JIMENEZ                                       0503
A0101407430503375315003LILIAN LIZA C. MACATO                                    0501
A0101403580511341306001JUAN N. OROLA JR.                                        0502
A0101405940512330738001MANUEL B. ROXAS OR                                      10501
A0101405940512330738001SUSAN S. ROXAS                                          20500
A0101405940000001047392ANGUSTIA S BARRIENTOS OR                                10505
A0101405940000001047392MARICON ANGELI M MAMARIL                                20500
A0101408530000007981813MOJICA, ALLEN ALBERT                                     0501
A0101408530000001268286BENJAMIN B. LAURENA JR. OR                              10501
A0101408530000001268286LIBERTY GRACE C. RAMO                                   20500
A0101411400000005330001SALAZAR, JORGE QUINTOS                                   0501
B0101403450521011989001**********                                               1610
B0101403450521023224001PURECHEM CORPORATION                                     1601
B0101403450521025342001FERNA CORPORATION                                        1601
A0101403450000007072546************                                             0502
A0101403610000000015818AGUJO, MARILUZ SANCHEZ OR                               10502
A0101403610000000015818AGUJO, JUANITO JR. M.                                   20500
A2201400250000003558190EDWIN S. ESPIRITU OR ANNA                               10501
A2201400250000003558190JESSICA S. ESPIRITU                                     20500
A2201400250561377607001JOSE L. MONTANCES                                        0501
A2201400250561409662001JEFFERSON B. CASTRO                                      0501
B0101404130000003105820SINONET TECHNOLOGY, INC.                                 1601
B0101407720000006028166MEDGATE PHILIPPINES, INC.                                1602
A0101407720602390297001PREYSLER, MARIVIC G.                                     0501
A0101407720602396366001BRAVO, ARLENE RICARTE                                    0502
A0101407720000007936312PALAFOX, SUZANNE KATRINA                                10502
A0101407720000007936312VILLANUEVA                                              20500
B0101404260611028585001ARC WATER REFILLING STATION                              1606
A0101404260611484749002BAHALA, AURELIA MANINANG                                 0505
A0101413440000000570358**********                                               0503
A0101413440000002125662**********                                               0503
A0101406590662363449001LA VINA, ANGELINA SAN JUAN                               0501
A1301400340683363297001APOLONIO, MA. CONCEPCION AMURAO                          0501
A1301400340683445514002DE JESUS, ROMARICO MACAPAGAL                             0502
A0101408240000008854366BROWN-ARANETA, MICHELLE LANA                             0503
B0101408240711041158001ACCUWORK COMPANY, INC.                                   1610
A0101408240711491413003SALVO, MARISSA OPEDA                                     0503
A0101408240711557139001NAVA, JACQUELINE OBENITA                                 0501
A0101408240711643338001ARCAYA, MICHELLE GRASPARIL                               0501
B2801400100712035008001ASIA INTERNATIONAL AUCTIONEERS, INC.                     1620
B2801400100712043405001MALAYAN TOWAGE & SALVAGE CORPORATION                    11605
B2801400100712043405001- SUBIC                                                 21600
A2801400100712386429001SALAZAR, MA. CRISTIN MULANO                              0510
A4101400260000006042917MANALO, JEFFERSON S. DBU J.S.                           10501
A4101400260000006042917MANALO CONSTRUCTION                                     20500
A4101400260812501573003BALICHA, JAY OR                                         10504
A4101400260812501573003CABASAG JR., EMERSON                                    20500
A4101400390813333041001MARIO C. GENUINO,JR.                                     0501
A4101400390813478374060CASTRO, AMELIA                                           0501
A4101400420814478374193CONDE, EMMA D.                                           0501
A4101400420814710353001GRANADA, MILDRED SISON                                   0503
A4101400550000000315040BUMA-AT, THELMA                                          0501
A0101412340000002266822CHAN, HUAN KIAM LEE                                      0501
A0101404840851488872001DAVIDE, JOSEPH BRYAN OR                                 10501
A0101404840851488872001DAVIDE, FLORA MA                                        20500
A0101404840851520766067JOSEPHINE V. GABAYERON                                   0501
A0101406750000008644213SALVADOR, CECILIA QUIZON                                 0502
B0101406750852023612001LAS PINAS CITY MEDICAL CENTER, INC.                      1610
A0101406750000005666817CDB ACCOUNTING AND TAXATION SER                         10502
A0101406750000005666817VICES                                                   20500
A0101406750852084318001SIBUG, GENEATH P. OR                                    10501
A0101406750852084318001SIBUG, ERNESTO M                                        20500
A0101406750852180947001JAIME P. MARANAN OR                                     10502
A0101406750852180947001RIZALYNOR G. MAR                                        20500
B0101413860000007953873**********                                               1605
B0601400230891030219001ALPHA SIERRA INDUSTRIAL SOLUTION CORP.                  11602
B0601400230891030219001(ASISCO)                                                21600
