A1001400190000000016402LEGASPI, LUCILO BALATERO                                 0503
A0101406040000000096811********                                                 0501
A0101404840000000122658MARIFE DE CASTRO                                         0501
A0101406750000000172843GABAYNO, DELIA CHAN                                      0502
A0101413990000000205898**********                                               0502
A0101412210000000238500ZAMBRANO, SUZANNE JUANEZA                                0501
A0101400150000000253278GELANO, ANGELO RECTO                                     0501
A0101408110000000380090SANTIAGO, EMMALYN BONIFACIO                              0501
A1201400150000000473530ZAMORA, JENNYLYN NAYAD                                   0501
A0101404260000000532283UNI STOP DRUG & GENERAL MERCHAN                          0501
A1101400120000000652351YAO, RONALD PHILIP GO                                    0501
A1101400120000000652788PRIMER, HERMINIA AZUCENA                                 0501
A0101401700000000890422ARENZA AUTO SUPPLY                                       0505
A0101401700000000890488CAGARA, RONIEL CAIMOY                                    0502
A0101408790000000931059***                                                      0501
A0601400230000000989973SAPNU, ALBERT EVANGELISTA                                0502
A0301400530000001009943PANTUA, JERSON R.                                        0501
A1301400760000001295483LRCAPON TRUCKING SERVICES                                0502
A3401400280000001723473AMELIA A. ZAMORA                                         0501
A0101404260000001725297KOREAN LANGUAGE CULTURE (KLC) T                          0501
A0101407560000001770812ZALDY-MAR HAULING SERVICES                               0501
A0101400730000001822511NG, JAMES LUK                                            0502
A0101406750000002040260TOLENTINO, ROSALINA SABATER                              0502
A3101400450000002092935SIMBULAN, KARLA ANGEL HERRERA                            0502
A0101407560000002152596HERNANDEZ, ROLANDO RIVERA                                0503
A0101405490000002253010ROSEMAE J. SISON                                         0501
A0101414250000002262528**********                                               0503
A0201400890000002270140**************                                           0501
A0101413600000002276451PERLA L. DICANG                                          0502
A0101406590000002277603ARMI S. ABEL                                             0501
A0101413020000002292742PASCUAL, JIMBE CABAUATAN                                 0501
A0101400570000002329773CHUNG, JANE LEE                                          0501
A2601400270000002677547MILA R. VALDEZ                                           0502
A1101400120000003197051SALVADO, RICARDO ODTUHAN                                 0501
A0101412340000003341175RICHARD C. BECHAIDA                                      0501
A0101400860011449713001**********                                               0502
A0101401700041028243001YACK'S AUTO SUPPLY & ELECTRICAL                          0504
A0101401700041795213001SO, MARY GAW                                             0501
A0101400150061337855001YNIGUEZ, EPIFANIA GONZALES                               0501
A0101400730111478374018JAYME, CORAZON                                           0502
A0101401960121311963002**********                                               0502
A0101401960121444286002**********                                               0501
A0101401830141206866001ANTONIO S. FELIZARDO                                     0502
A0101400440161525001139JEMARIE S. SALUDAR                                       0501
A0101400440161525001166CELESTE G. CASABAR                                       0501
A0101401090171197452001RICARDO BALOG                                            0501
A0101401090171481442001STA. ANA, ALVIN MACARAIG                                 0501
A0101407140213190468001**********                                               0501
A0101407140213239594002**********                                               0501
A3101400740224369648001CHO, MA. CECILIA SAMUYA                                  0501
A3001400130230767566046CUSTODIO, JOSEPH TAAY                                    0502
A3001400130230796142001TANO, MERLINA RAGAS                                      0501
A1001400190231478374006LIBRADO, HAZEL T.                                        0503
A1001400190231520766094SALAGUSTE, FELIPE B.                                     0501
A0101401670271188173001EMMANUEL G. LIM                                          0505
A0101401670271298552001EPPIE P. ORTEGA                                          0501
A0101408660274556645001PINERA, ROBERT CLEMENTE                                  0503
A0101400570281186611001EMERITA R. DOMINGO                                       0501
A0101400570281186835002ONGUE, MARY GRACE BARBO                                  0502
A0101402480331055816001************                                             0501
A0101402480331478374182ELADIA TAMANO                                            0502
A2401400180411284689001DEMONTANO, RODOLFO BARROSO                               0502
A2401400180411478374035MERLINDA D. TAMUDTAMUD                                   0501
A1201400150421036214001PINES ARCADE                                             0501
A1201400150421253953001CRISTINA F. TEJADA                                       0502
A0101403030441241051001**********                                               0501
A0101406330472035709001MUSIC101 MUSIC TRAINING CENTER                           0501
A0501400170481297225002TACIANA M CAYABYAB                                       0502
A0101408530516571877132ERIKA MAITA V. VILLALBA                                  0501
A0101403450521238152002**********                                               0505
A0101404000551150196001BENEDICTO ORENSE                                         0501
A0101404130601543448001CALAYAN, REYNALDO OLILA                                  0503
A0101407720602397425001HENSON, MARIA THERESA GUEVARA                            0501
A0101407720602480488001GERALDINE MAJELLA L. JURILLA MD                          0501
A0101404260611317695001DENSING, CRISTETO BRAGAT                                 0502
A0101404260611337036001LUGTU, MERCEDITA RESURRECCION                            0501
A0101404260611409096001SOLIVEN, VIOLETA DIAZ                                    0501
A0101404260611442053001DENSING, GREZILDA NACIONALES                             0503
A0101409890649748239001**********                                               0508
A0101406590662044702001PTS TUTORIAL AND REVIEW SYSTEMS                          0501
A0101406590662071956001GARCIA JR., VALENTIN BERNABE                             0501
A0101406590662474394001SANTOS, GLORIA PASION                                    0503
A0101406590662684958001GUTIERREZ, EVANGELINE ALCANTARA                          0501
A0101406590662791852001MALAIT, CESAR MANDAWE                                    0501
A1301400210682478374027MARY ANN M. DE LEON                                      0502
A1301400500684762106001VICEO III, JAIME S.                                      0501
A0101407560686484185001LABRADOR, GEROME CERVANTES                               0501
A0101408240711478374015EMILY MONTILLANO                                         0502
A0101408240711558866001OCAMPO, CHRISTOPHER DEL ROSARIO                          0501
A4101400420814520766004SALVACION D. BITANCUR                                    0501
A0101404840851046725002MA GERALDINE F. BOCADO                                   0501
A0101404840851520766067JOSEPHINE V. GABAYERON                                   0501
A0101404840851520766180CARMELITA M. BARBACENA                                   0501
A0101406750852637927001VILLA-CUTAMORA, SHERRILYN D.                             0502
A3101400740000000013856DESACOLA, EMILIA VELAYO OR                              10501
A0101402770000000360650AGUIRRE, LORY DBU FIRST LINE                            10502
A4101400260000000377366MEDEL, RAQUEL LACUATA OR                                10501
A1601400170000000421190JOHN F. TORROCHA OR                                     10501
A1201400150000000473541DACANAY, E DBU ERLINDA I.                               10503
A0101413990000000631883NEBRIA, ESTER PUJOL OR                                  10503
A0101406330000000683329EJE, ANA DBU TAMARAW MANPOWER                           10501
A0101407720000000713040REVILLA, VICENTE G. OR                                  10501
A0101413020000000880473LAGUNDA, JOAN DBU:                                      10503
A0101401090000001618942PIATREL ECCLESIASTICAL                                  10501
A0101400730000001822679NEBRES, RONALD MORAL OR                                 10510
A0101400730000001822680BALBES, JASMINE MONTEPOSO OR                            10510
A0101400730000002882273DIVINAGRACIA, ROWENA SANDY                              10503
A0101401250021290630001WINNIE D. VALERIO AND                                   10503
A0101401090171432366001MICHAEL RONALD OR                                       10501
A3101400450223311764001MUNOZ, JOUBERT ABANIA                                   10502
A3101400450223442002001GARCIA, ROSALINA OR                                     10502
A0101401670271186228002APOLINARIO OROSA OR                                     10502
A0101411820277796678001CLAROS, MICAH OR                                        10501
A6601400120314622580001SOSING, CAROL O. OR FELIPE A.                           10505
A0101408370382434379001LOURDES JOSEPHINE ANGLIONGTO-                           10501
A2401400180411478374061JUNRES AGAD OR                                          10501
A2401400180411577534001LASOLA, EDITHA RIVERAL OR                               10502
A0101406330472294535002DE VERA'S COMBINED SERVICES REF                         10506
A0101406330472464109002FLORANTE FALCON OR                                      10501
A0501400170481252588001ESTRELLITO MAGLIBA OR                                   10502
A0101407720602396510001MARTINEZ, MARIA LOURDES CRUZ OR                         10502
A0101407560686289843001EMETERIA HIJOSA OR RONALDO                              10501
A3101400740000000013856DESACOLA, RODRIGO MANDIA                                20500
A0101402770000000360650TRADING                                                 20500
A4101400260000000377366MEDEL, ANDRES                                           20500
A1601400170000000421190ROCHELLE A. TORROCHA                                    20500
A1201400150000000473541DACANAY RICE COM                                        20500
A0101413990000000631883NEBRIA, NATHANIEl CIRUNAY                               20500
A0101406330000000683329SVCS                                                    20500
A0101407720000000713040REVILLA, ALEJANDRO L.                                   20500
A0101413020000000880473JJ CONSTRUCTION                                         20500
A0101401090000001618942ART GALLERY                                             20500
A0101400730000001822679JARDIOLIN, MAJAR BELLO                                  20500
A0101400730000001822680JARDIOLIN, MAJAR BELLO                                  20500
A0101400730000002882273MAGLASANG                                               20500
A0101401250021290630001RONALD SUPERALES                                        20500
A0101401090171432366001SHARIE MADARANG                                         20500
A3101400450223311764001OR ANASTACIA SHERRY N.                                  20500
A3101400450223442002001JESUSA CORAZON                                          20500
A0101401670271186228002MELINDA OROSA                                           20500
A0101411820277796678001CLAROS-CORRUBIA, EVELYN                                 20500
A6601400120314622580001OR CAROLYN O.                                           20500
A0101408370382434379001RAMOS                                                   20500
A2401400180411478374061NORMELITA BLANCO                                        20500
A2401400180411577534001LASOLA, ROGELIO                                         20500
A0101406330472294535002& AIRCON SPECIALIST                                     20500
A0101406330472464109002EVELINA FALCON                                          20500
A0501400170481252588001ERLINDA MAGLIBA                                         20500
A0101407720602396510001MARTINEZ JR., GREGORIO                                  20500
A0101407560686289843001HIJOSA OR CELIA                                         20500
B0101413150000000038640GREBBS NARANGHITA MANSION INC.                           1601
B0101404260000000156972PRIME POWER MANPOWER SERVICES                            1650
B0101404260000000157026INTERPRO FOOD SPECIALIST INC.                            1605
B0101404260000000157037INTERPRO FOOD SPECIALIST INC.                            1605
B0101413730000000469734L.Y.S. HARDWARE & INDUSTRIAL SALES INC.                  1606
B0101404260000000550230INTERPRO FOOD SPECIALIST INC.                            1605
B0101400730000001216379THE PREMIERE INSURANCE & SURETY CORP.                    1605
B3001400130000001271374GLOBALCARS, INC.                                         1602
B0101408530000001275172PHILIPPINE BRITISH ASSURANCE CO., INC                    1610
B0101412180000001293049AUTO MAGIC CORPORATION                                   1601
B0101400600000001335637**********                                               1602
B0101400600000001335791CHOKMA INDUSTRY INC                                      1601
B0101402770000001571233LEADER GARMENTS CORPORATION                              1605
B0301400950000002115639**********                                               1602
B0301400950000002115731MINDANAONE EXPERTS DISTRIBUTORS, INC.                    1602
B0101401700041007411001PRESTO MOTOR PARTS                                       1610
B0101400150061016435001DEVELOPER SYSTEMS CORPORATION                            1603
B0101400150061021914001E- SCRIBIR INC.                                          1605
B0101400440161048165001UNITED PERLITE CORPORATION                               1601
B0101401090171042218001RD CASH PADALA, INC. - AREA 02                           1601
B0101407140213035786001DVJ TELECOMMUNICATION INC.                               1602
B3101400450223024184001MIGUEL A. TORRES FOUNDATION, INC.                        1602
B0101401670271025682002* * * * * *                                              1620
B2601400270302046854001H.A. DULDULAO & CO., INC.                                1605
B0101402480331234185001**********                                               1602
B0101402480331367460001************                                             1602
B0101402640361006195001JORDAN REALTY INC.                                       1602
B0101402640361174526001KAINOS DEVELOPMENT CORP.                                 1602
B5501400120410047720008********                                                 1606
B0101403450521078888003PUREGOLD PRICE CLUB, INC.                                1620
B0101407720602031597001A.F. NAVARRETE AND PARTNERS CO.                          1601
B0101404260611043949001JCLC TRADING                                             1604
B0101406590662038794001PRISMODIAL CONSTRUCTION CORPORATION                      1606
B1301400500684029282001L5 & SONS FINANCING CORP.                                1620
B0101407560686042990001FAN WOODWORKS                                            1601
B4101400390813751573001E.GROUP VENTURES INC.                                    1602
B0101411240000000012102BRHL TRADING & INDUSTRIAL CONSTRUCTION                  11601
B01014132800000000418632ND PASADENA PLACE NEIGHBORHOOD                         11601
B0101408820000001766889BLACK ROCK BUSINESS CONSULTANCY                         11601
B0101402640361030613002LCTSI-LEAD CORE TECHNOLOGY SYSTEM                       11605
B0101411240000000012102CORP.                                                   21600
B0101413280000000041863ASSOCIATION INC.                                        21600
B0101408820000001766889COMPANY                                                 21600
B0101402640361030613002INCORPORATED                                            21600
B0101408530516821100608**********                                               2010
