F0101408240007115501332GARCIA, JUAN CARLOS OR                                  12501CKO
F4101400260812044042001PALIPARAN KING CONSTRUCTION                             12505CKO
F0101408240007115501332SONGCO, JOHN CHRISTOPHER                                22500CKO
F4101400260812044042001SUPPLY                                                  22500CKO
F4101400260000000002222INVESTRENEUR MULTI-PURPOSE COOPERAT                      2605CKO
F0401400270242449588006SUKLIN PENA OR BONIFACIO PENA                            2605CKR
F4101400260812046703001INVESTRENEUR MULTI-PURPOSE COOPERATIVE                   2605CKO
F3101400580452033424001SANDPIPERS TECHNOLOGIES                                 12601CKO
F0101408080514038702001RECTO & SONS INSURANCE AGENCY,                          12602CKR
F0101410690600047000002HOLIDAY HILLS STOCK & BREEDING                          12602CKR
F3101400580452033424001CORPORATION                                             22600CKO
F0101408080514038702001INC.                                                    22600CKR
F0101410690600047000002CORPORATION                                             22600CKR
