A0101412050000000043325AGUILA, AMELIA CAMANGIAN                                 0501
A0201400920000000048053YU, WILSON LIM                                           0503
A6601400120000000060493ABELA, LEONITA MIJARES                                   0501
A1101400120000000065103BELLO, TERESITA CASTARITAS                               0501
A1001400190000000124898CHERYL M. SAIM                                           0501
A3801400170000000154163ALLAN A GARONG                                           0502
A2801400100000000188301LACBAIN, JOEL GROESBECK                                  0501
A0101406620000000193822BAUTISTA, VERLICEL DELA VEGA                             0501
A5001400170000000213761ISAW, NEIL JOHN ATAYAN                                   0501
A5501400120000000265861FABIE, ELENA TINDUGAN                                    0501
A2201400250000000433543******                                                   0501
A0301400790000000436008MANALILI, ANNABELLE LEONOR                               0502
A0101408950000000776643SAMSON, ROSELIE MANGUBAT                                 0501
A0101400440000000821538MARITES T. JIMENEZ                                       0501
A0101412470000000853834EUN JOO CHUNG                                            0501
A2001400290000000924572MARTY, CRESLYNN MARIE CERINO                             0501
A0601400230000000990012GO, JONATHAN TAN                                         0501
A0301400660000001020102RODRIGUEZ, DARREN ALAMPAYAN                              0505
A0301400820000001027821VILLANUEVA, RADO C.                                      0501
A1001400480000001054886CUEVAS, JONATHAN MAGHINAY                                0501
A0101412890000001056360AMIDO, NORMA GUEVARA                                     0502
A0501400170000001072731ABCEDE, JORRECA DE PERIO                                 0502
A0101414120000001142807CASA LUMINARIA PARTY VENUE                               0501
A0101412180000001293232BALINGIT, MAR ALVIN ALVAREZ                              0501
A0101411820000001356554JOSEFINA M. CALABIG                                      0502
A6601400120000001370752VILLANUEVA, FELOMINA SELENCIO                            0501
A0101403450000001637885*****************                                        0501
A0101404260000001725173TUBOLA, JHIKKY GAMBOA                                    0501
A1701400230000001786809C.F GENERAL MERCHANDISE                                  0502
A0101412470000002086364**********                                               0501
A1001400190000002170503QUILAB, JEANIE                                           0502
A0101400860011382654002**********                                               0505
A0101400860011401071002**********                                               0502
A0101400860011419699001**********                                               0503
A0101400860011422604001**********                                               0505
A0101400860011516358001**********                                               0503
A0101400860011519469001**********                                               0502
A0101400860011533026001**********                                               0502
A0101401250021478374014IRENE P. FADULLO                                         0501
A0101400150061398851002ANDAYA, ETHYL EROLIN                                     0501
A0101400150061681737001IMPERIAL, KRISTINE SORIANO                               0502
A0101400600071233721001**********                                               0502
A0601400360083591896001AGARRADO, ARVIN GAUDIA                                   0501
A0101400730111334903036EDGAR F. CAGINDAGAN                                      0501
A0101401960121238686001*********                                                0501
A0101400440161525001097NORMINDA G. ROSARIO                                      0501
A0101400440161525001119NORA S. TALENTO                                          0501
A0101407270162333154028MYRNA G. REYES                                           0501
A0101407270162661881001ALCANTARA, LEONARDO ARAZA                                0504
A0101407270162678350010FROILAN Q. TEJADA                                        0502
A0301400660194618862001*****                                                    0501
A3101400450223394475001*****                                                    0502
A1301400470252430515002**********                                               0501
A1901400290261022373001AJEL BUILDERS                                            0503
A1901400290261298552105AIDA NABOS REYES                                         0501
A1901400290261478374006VIRGINIA D MAKALINTAL                                    0502
A1901400290261488341021DRA DALISAY A KISON                                      0501
A1901400290261488341041DR DENNIS C TENORIO                                      0502
A0101406620273217425001JOSELITO R. JACOB                                        0501
A0101406620273306796008OSCAR B. BIASON                                          0501
A0101406620273560879001BROSAS, MA. CORAZON SANGA                                0501
A2601400270302567227001ROSITA TAN VALLE                                         0501
A1101400120313478374016NAVAL, DOLLY Q.                                          0503
A6601400120314614572001OSIDO, ARNIZA VIRTUDES                                   0502
A3401400280318478374002PIONELO, LENIDIE DEVELOS                                 0501
A0101402060351217441016FERNANDINO Y. CONCEPCION                                 0502
A0201400760374478374005ABATAYO, JENNIFER A.                                     0501
A0201400890376502597001UY, RYAN N.                                              0502
A0101408370382453740001DR. RAYNALD EDLIN P. TORRES                              0506
A0101405490392625345001**********                                               0501
A0101408950396565613001AGCAOILI, MA. DULCE FLORENCE                             0501
A5501400120410283898002GARCIA, JOSIE JAVELLANA                                  0502
A5501400120410701425001NON, KARINNA MAE LECHONSITO                              0502
A0901400220432095446001CARLA CHUA DONAYRE                                       0501
A0101403450521238064001**********                                               0504
A0101403450521239620001**********                                               0502
A0101403450521282364001**********                                               0502
A0101407720602390297001PREYSLER, MARIVIC G.                                     0501
A0101407720602472259001CALILONG, LORELEI IRA                                    0501
A0101404260611459534001LAOLAO, MARDELYN CALLORA                                 0502
A0101409920650478374030DELA CALZADA, REGIL OMLANG                               0501
A0101404680651520766171JONIS PRELYN MONTILLANO                                  0501
A0101410720653452116001VIRGILIO R. BACQUEL JR.                                  0501
A0101410720653478374046MONALIZA F. MALDONADO                                    0501
A0101406590662463403001CALIJAN, RICKY UY                                        0501
A1301400340683478374021GERONIMO, MARY ANN HERRERO                               0501
A0101407560686478374034CHENDRINA A. DUHAYLUNGSOD                                0501
A1701400230693038725001DISHNET ELECTRONICS SUPPLY                               0502
A4101400260812423341001ESTEFANIA B. RANDOY                                      0505
A4101400420814478374164LENITA PARRILLA BALISA                                   0501
A4101400550815646085001BALIDO, BENJAMIN SALUD                                   0501
A0601400230891454850001WILLIAM J. NACIONAL                                      0504
A0101412500000000041625OMEGA ONE ON ONE FITNESS AND                            10501
A1901400290000000135231MARC MACUHA RECTO OR                                    10506
A5001400170000000213954LOPEZ, ISOLDE OR TAMAYO, AILYN                          10504
A02014007600000002227846M MANAGEMENT & CONSULTANCY                             10503
A0101410720000000234860AROMIN JR., BENJAMIN DOMO OR                            10502
A0101408950000000776507SAULOG, V DBU                                           10504
A2001400290000000978043UTV CONSTRUCTION & ENG'G.                               10501
A0101412500000001146918ENRIQUEZ, MARILYN R. OR                                 10501
A0101414120000001642600GASPI JR, BALTAZAR E. OR                                10503
A0101414120000001751446MARIA GRACE LACUESTA OR RICKY                           10502
A0101414120000001751457R.S. BAUTISTA TRUCKING                                  10503
A0101412890000001765517REYES, R DBU RICAR-CELESTINE                            10501
A0101409920000001951891MEMBERS OF NATASHA (SHOECAT INC                         10501
A0101414120000001984198STRATEGIC CONSULTANCY LINK                              10501
A0101401250021179020001LLAMADO, REYNALDO C. OR                                 10501
A0101400730111370569001MANABAT, DANILO MORALES OR                              10501
A1001400350233533309001MARIO JOSE A. SIA / CAGAYAN DE                          10505
A0101400570281296123001BANARES, MYRNA N. OR                                    10502
A1101400120313543913001PALANCA, JUANITO DY OR                                  10501
A0101408110515427749001HILARIO TAMONDONG JR. OR                                10502
A2201400250561258531014LYDELIO V. ESMAEL                                       10501
A0101410690600085096001YEE, SONNY L. OR YEE, KARRIE                            10503
A0601400230891253086001ENGR. EMER C. FELICIANO OR                              10501
A0101412500000000041625WELLNESS CENTER                                         20500
A1901400290000000135231VANESSA PANGILINAN RECTO                                20500
A5001400170000000213954OR TAMAYO, SHEEN                                        20500
A0201400760000000222784COMPANY INC.                                            20500
A0101410720000000234860AROMIN, MARISSA                                         20500
A0101408950000000776507ONE HEALTH MEDICAL CLINIC                               20500
A2001400290000000978043SERVICES                                                20500
A0101412500000001146918BUENAVENTURA, MARILOU R.                                20500
A0101414120000001642600GASPI, JOCELYN N.                                       20500
A0101414120000001751446LACUESTA OR MILEAH GUMELA                               20500
A0101414120000001751457SERVICES                                                20500
A0101412890000001765517MARKETING                                               20500
A0101409920000001951891BARTE, CECILE                                           20500
A0101414120000001984198INTERNATIONAL                                           20500
A0101401250021179020001LLAMADO, NATIVID                                        20500
A0101400730111370569001ARLENE MANABAT                                          20500
A1001400350233533309001ORO HARDWARE AND                                        20500
A0101400570281296123001BANARES, LEOPOLDO II J.                                 20500
A1101400120313543913001PALANCA, JULITA                                         20500
A0101408110515427749001TRISHA MARIE TAMONDONG                                  20500
A2201400250561258531014EMPLOYEES OF SSMPC                                      20500
A0101410690600085096001ANNE CANDACE M.                                         20500
A0601400230891253086001EDITA B. FELICIA                                        20500
B0101400730000000002580DALCA CORPORATION                                        1601
B5501400120000000003298MARBEL FIT MART, INC.                                    1605
B0101409050000000022562ULTRAPAVE DEVELOPMENT CORPORATION                        1601
B1301400210000000023463SAN PABLO MULTI-PURPOSE COOPERATIVE                      1602
B0101400440000000029263CABARO, MOHAMMAD DBU ASHLEY MP3 PHONES                   1603
B0101410720000000029996J.C.T. EZ LOAN CORPORATION                               1602
B0101412470000000045423KINGS OF REFINEMENT RESTAURATEURS, INC                   1601
B0101414120000000399093*****                                                    1604
B0101407270000000830773FUTURE FULLY ADVANCED REALITIES IN                       1601
B0101407430000001213056AERO EQUIPT AVIATION INC.                                1601
B0101400860011427569001**********                                               1602
B0101401700041190252001**********                                               1602
B0101411080042759548001 *****                                                   1602
B0101400150061010833001VELCA TRAVEL & TOURS, INC.                               1601
B0101400730111482881002CASA BOCOBO HOTEL, INC.                                  1605
B0101400440161027726002GEOTECH MERCANTILE CORPORATION                           1602
B1901400290261033214001RD CASH PADALA, INC.                                     1603
B0101406620273012462001COL FINANCIAL GROUP, INC.                                1610
B0101406620273024061001MOUNTAINGATE GOLF SERVICES, INC.                         1605
B0101402510341030620001JAFEL PROPERTIES INC.                                    1601
B0101402060351009577001AGC FLAT GLASS PHILIPPINES, INC.                         1602
B0101402060351427156001METRODORM RESIDENCES CORPORATION                         1603
B0101408950396026318001GLOBAL CITY AUTO SALES, INC.                             1604
B0101409180397043819001VALUE ADVERTISING                                        1602
B5501400120410622300001BAUTISTA, LAURO OR BAUTISTA, SONNY                       1601
B2401400180411014376002PENINSULA RURAL BANK INC.                                1610
B2401400180411046609001MATUTUM OIL MILL AND REFINERY                            1602
B0101403030441574082001**********                                               1610
B0101410140475046427001EQUAL LENDING INVESTOR CORPORATION                       1610
B0101408530516035673001FERROTECH STEEL CORPORATION                              1608
B0101407720602027106001SKIN AND CANCER FOUNDATION, INC.                         1601
B1301400210682016750001JFL AGRI VENTURE SUPPLIES                                1605
B4101400420814497546001**********                                               1601
B0101406750852023612001LAS PINAS CITY MEDICAL CENTER, INC.                      1604
B0101412180000000075410ECOLOGY VILLAGE III CONDOMINIUM                         11602
B2001400290315071661001R.UYPITCHING, IRWIN, KATRINA, ADAM, KEN                 11601
B5501400120410274984158ONG, DANILO & ONG, SUSAN & ONG, DANNY                   11605
B0101412180000000075410CORPORATION                                             21600
B2001400290315071661001& LU,CIPRIANO II                                        21600
B5501400120410274984158& ONG, DANIEL                                           21600
B0101400860011821100608**********                                               2002
B0101404710681821100608**********                                               2003
