F3201400190000001492888TAN, ADRIAN KUA                                          2502CKO
F0201400180181444704001ROBLE, JOSE EMERY FULACHE                                2505CKO
F0101407300395406964001KO, CHRISTINE CABUANG                                    2505CKO
F0101408240711023579001PARITAS TRADING CORPORATION                              2601CKO
F0301400400413031893168COLUMBIA COMPUTER CENTER DAVAO,                         12610CKR
F0301400400413031893168INC.                                                    22600CKR
