A0301400530193821100608**********                                               0504
B0101400860011821100608**********                                               2003
A6601400120314693027001CABIDOG, ROSALINDA DAGANTA OR                           10501
A6601400120314693027001CABIDOG, MERRIAM LEIROSE                                20500
B1101400120000006186952COASTALVIEW FOODS CORPORATION                            1602
A0101406620000010426278JOSEPHINE CORPUZ                                         0501
A0101406620000010697693CHUCKIE TOQUE                                            0501
B1101400120000000653190BOSJAN MAIN MARKETING CORP.                              1605
A2201400250000000017290EUGENE Y. GO                                             0501
B0101400860011305536001**********                                               1601
A0101400860011591125001**********                                               0502
A0101400860011656351001**********                                               0502
A0101400860011794038001**********                                               0503
A0101401250021375869001QUIZON, SHEENA ARCALAS                                   0501
A0101400150000004090613GONZALES, ROCHELLE DELA PENA                             0501
A0101400150000000807545GO, CLEMENT TAN                                          0501
B0101405810000000016884PLASTIC CONSUMER CORP.                                   1601
A0101405810072383141002WANG, CIHAI                                              0502
A0601400520000005943400ARCEO, MARIA RACHEL ROMERO                               0501
A0101413730000002229701*************                                            0501
A0101400730111520766061BERNADETT BALUTOC                                        0502
B0101406040000004587646********                                                 1602
A0101401960000004419761**********                                               0505
A0101412630000007158081MUNCADA, ROSARIO SO                                      0502
A0101412630000000045321*********                                                0501
A0101401830000005051785RAMOS, JOSHUA ORTEGA                                     0501
A5001400170000000213750RATUNIL, JULIETA OR RATUNIL,                            10502
A5001400170000000213750BYRON, OR RATUNIL, CARMEL                               20500
A0101400440000006679732REVILE C. ABONG                                          0501
A0101400440000009591860BANGAYAN, ALEXANDER SO                                   0502
A0101400440161525001112JELLIE ANN D. LOMAHAN                                    0501
A0101401090171200124001CRISTETA L. SUMERA                                       0502
A0101401090171201465001MICHAEL JORGE OR CHERYL PERALTA                          0503
A0301400530000003573380CALAWIGAN, AICY VILLAGONZA JT                            0504
B0301400530000001409763VALDEZ, ALEX R. OR                                      11602
B0301400530000001409763VALDEZ, GRETA S.                                        21600
A0301400660000005691881CHIU, PETER PAUL VINCENT CUE                             0501
A0301400950000006080360***********                                              0501
A3101400160221329641001CARMELITO F. CARACUEL JR. OR                            10501
A3101400160221329641001ROWENA B. CARACUEL                                      20500
A3101400450223058711001ESEO, GUIA DBU BUENA-VENTURES                           10501
A3101400450223058711001TRADING POST JT                                         20500
B1001400350000007920876PEARSON, PILARCITA ROA AND  HEQUILAN,                   11602
B1001400350000007920876ELVIE CORTEZ                                            21600
B1001400350233032957001PCCI FINANCE CORPORATION                                 1601
A1001400480000006270282CULTURA, SHIELA MAE VILLADORES                           0502
B1001400480000004097154SABAL HOSPITAL, INC.                                     1610
A0101401670271186319003NIEVA, OSCAR E. OR                                      10501
A0101401670271186319003NIEVA, RENATO E.                                        20500
B0101406620000009695174FOREXWORLD PHILIPPINES, INC.                             1602
A0101410980000006014335LIM, JENNIFER MARIE WEE                                  0501
B0101410980275821100608**********                                               2002
B0101411820000003085112HARDCOM COMPUTER SYSTEM CO.                              1601
B0101412470000000949566POSTMANILA, INC.                                         1610
B0101412470000003847490DOMINICAN SCHOOL (MANILA), INC.                          1605
A0101400570281342304001JOSEPHINE P. RAFER OR                                   10502
A0101400570281342304001NELSON T. RAFER                                         20500
A0101400570281417780003JOYCELYN TAN TANZO, D.M.D                                0501
A0101400570281527773001CARANDANG, RICHARD DANTE LOPEZ                           0502
A0101411240000001026851MARQUEZ, YOLLY MONTESA                                   0501
B0101411240283067416001ADCAELUM ENTERPRISES                                     1601
B0101411240283067418001AGRICOMFLEX TRADING                                      1601
A0501400200000005751759ANDRADA, EVELYN MORDENO OR                              10501
A0501400200000005751759ANDRADA, BENJAMIN M.                                    20500
A2001400290000000046222HUANG, MIA DY                                            0501
B2001400290315044204001ACEBANK CREDIT, INC.                                     1601
A2001400290315666711001MARIUS C. C. ONGCOG OR AGRIPINE                         10503
A2001400290315666711001T. L. ONGCOG                                            20500
A0101402350000005645183RAVANILLA, HELEN CORPUZ                                  0501
A0101402510000010100742BANZUELA, MA. CECILIA ASENJO                             0501
A0101402510341201364001MA. JESUSA M. LAURIO OR                                 10501
A0101402510341201364001ALVIN F. LAURIO                                         20500
A0101409050000003536361GUTIERREZ, MIRIAM                                        0502
B0201400890376045790003****************                                         1603
B0101402930920130000106REAL CONNECT CALL CENTER INC.                            1605
B0101402930000003734901TELESERV ASIA SOLUTIONS INC.                             1605
B0101402930000005646113PHILIPPINE SOCIETY OF ALLERGY, ASTH                      1605
A0101408370000003774987FAJARDO, PIA LOREN VIVAR                                 0501
A0101408370382207011001DRS. GERARD C. AGCAOILI OR                              10502
A0101408370382207011001MA. THERESA C. AGCAOILI                                 20500
A0101408370382393302002DR. CORAZON C. CONDE                                     0506
B0101402770391047565001FAITH ACADEMY, INCORPORATED                              1601
A0101402770391350884001ARIEL A. NAVARRO                                         0502
A0101405490000006241998PESIMO, NICAR A. DBU LBG CARGO                           0501
A0101408950000001760607PANDAN, MARIA JANET MAPA                                 0502
A0101409210000007762794RAMIREZ, GUIDO HONORE CAPULONG                           0501
A0301400820000002692113TAGOSE, RICHARD T.                                       0502
A5501400120410622095001CORDER, JAIMELITA OR EDWIN                               0501
B2401400180000007476762VITA-LIZE DISTRIBUTIONS INCORPORATE                      1603
A2401400180411516002001GAVINO, RHEA MEA LAUREA                                  0502
A1201400150421379218001AGWIKING, JONA MANGACCAM                                 0505
B0101403030441021825001**********                                               1605
A0101403030441337771001**********                                               0501
A0101403030441371302001**********                                               0502
A0101406330000000683381PENAVERDE, LOUIE MANIGBAS                                0501
A0101410140000007294746REGINO, MA. CONCEPCION PONADO                            0501
A0101410140475478374005ORENSE, EVELYN                                           0501
A0101410140000001074691MEMBERS OF NATASHA (SHOECAT INC                          0501
B0501400170481029507001ARCINUE DEVELOPMENT CORPORATION                          1603
A0501400170481257443001JUANITO L ONG JR                                         0502
A1901400160491389128001ELSA CUETO LONTOC                                        0502
A1901400160491728466001SY, MARIA JOCELYN CENIZA                                 0501
A1401400110492372983002FLORES, MYRNA ABAYLE                                     0501
A0701400260000000041005KALAW, REYNALDO ORTEGA                                   0501
A0101408530000002260117LUCERO, FELOMINO GONZALES                                0501
A0101408530000008159564DENVER S. GUADILLA                                       0501
B0101411400000006560892THOMPSON, CELINA DE PEDRO DBU DENTAGEM                  11602
B0101411400000006560892DENTAL CLINICS                                          21600
B0101411400000008249970EKO MUSIC PLATINUM, INC.                                 1602
A0101411400517227872001DE JESUS, CONCEPCION BARTOLOME                           0501
A0101411790000000469574MISLANG, EMMANUEL CARREON                                0501
A0101412050000003966763DE LEON, ARTURO PUZON OR                                10502
A0101412050000003966763DE LEON, WILFRED                                        20500
A0101403450521562000001***********                                              0501
A0101403450521649009001*************                                            0501
B0101403610000006637114RD PAWNSHOP, INC.                                        1603
B0101404130601028598001CAMBRIDGE CHILDREN'S LEARNING AND                       11610
B0101404130601028598001DEV'T., INC.                                            21600
B0101404260611027974001E.B. KARMINE COMMERCIAL                                  1602
A0101404260611406249003ESPERANZA C. VILORIA                                     0501
A0101413570000005867474LIM, ROSALYN ROSANTO DBU SANROS                          0502
A0101414120000000398921MC DAGGLE'S CONSTRUCTION &                              10502
A0101414120000000398921TRADING                                                 20500
A0101410300000005237678BARRIOS, ROSANNA VERONICA                               10501
A0101410300000005237678TAN-TORRES                                              20500
A1301400210000000540765LHARA DG MERCADO                                         0502
A1301400210000007669103MANANSALA, FIDEL CLEMENTE                                0501
A0101408240711378646001FELMA C. ONG                                             0502
A0101408240000003955340SIMPAO, MELISSA OCHANGCO                                 0501
A0101408240711427627002********                                                 0501
B2801400100712021648002BIG IRON TRADING AND DEVELOPMENT INC.                    1601
A2801400100712614003001ARMAMENTO, ROSENDO ALIWALAS                              0503
A4101400260000006043061DEPANO, ABEL DBU EXCELLENT                              10505
A4101400260000006043061DEPANO DENTAL CLINIC                                    20500
B4101400420814047949001SOUTHWOODS SCHOOL OF CAVITE, INC.                        1603
B0101404840851009455001GEM GAS DISTRIBUTOR                                      1605
A0101404840851478374179SALVADOR R. MANUEL                                       0505
A0101404840851520766163JOCELYN ANONUEVO                                         0501
A0101406750852084318001SIBUG, GENEATH P. OR                                    10501
A0101406750852084318001SIBUG, ERNESTO M                                        20500
A0101406750852181680002NELSON V. MONTARDE OR                                   10502
A0101406750852181680002MILDRED P. MONTA                                        20500
A0101406750852236873002SISORA OLGAH ELUMIR                                      0501
B0101405070861022107001PHIL-NIPPON KYOEI CORPORATION                            1603
B0101405070861197658001****************                                         1602
A0101405070861393536001SANUCO, VICENTE DENNA OR                                10503
A0101405070861393536001SANTIAGO, GIGIBETH SANUCO                               20500
A0601400230891253188001TERESITA OR EDUARDO PINEDA                               0502
A0601400230000007402188CHUA, MARK ANTHONY GARCHITORENA                          0502
