B0101406620273821100608**********                                               2010
B0101414120658821100608**********                                               2003
A0101411530000000013703SABERON, RAUL DBU                                       10502
A0101411530000000013703RALCO COMMERCIAL                                        20500
A0101402060000005137337ESPINA, MARY ROSE SUMBILLO                              10505
A0101402060000005137337OR ESPINA, RENE                                         20500
A0101412340000000224115LEONIDA, GILBERT SALARDA                                 0501
A0101402060351479109001ALMADEN, ROSALINDA CLACIO                                0501
A0101406460000002330832MESINA, DENNIS GREGORY                                   0502
A0101410300000002375904TRISTAN PAUL C. TAGLE OR                                10503
A0101410300000002375904KRISTINE N. TAGLE                                       20500
A0101412340000004702663RELLY B. SANTIAGO                                        0502
B0101400860011402223001**********                                               1605
A0101400860011557059001**********                                               0504
A0101400150000000053023ARZAGA, RACHELL DE LEON                                  0501
A0101400150000008306934TASARRA, MA. ARNI LEONARDO                               0501
B0101400150061036320001IPM CONSTRUCTION & DEVELOPMENT CORP                      1610
A0101400150061230586001**********                                               0502
A0101400150061412381001VILLARUZ, MA. CORAZON A. OR                             10501
A0101400150061412381001VILLARUZ, JOSEPH                                        20500
A0101400150000004619632**********                                               0501
B0101400150061484166001HILGARD PROPERTIES INC.                                  1601
A0101400150061681415001CALLEJA, HENRY GERARD M.                                10501
A0101400150061681415001OR CALLEJA, HOMOBONO B.                                 20500
B0101400600000001335637**********                                               1602
B0101400600071396916001II                                                       1605
A0601400100081318637001CABRERA, CYNTHIA NARCISO                                 0501
A0601400100081403474003TAYAG, DENISE OCAMPO                                     0502
A0601400360000007539719EVARISTO, BONIFREDO BARRERA DBU                          0502
B0101410850000000005610AKARI LAND CORPORATION                                   1601
A0101410850000002356841DELA CRUZ, E DBU E. DELA CRUZ                           10504
A0101410850000002356841GRAVEL & SAND/TRUCKING                                  20500
B0101406040000000096662CONCEPT SPECIALIST, INC.                                 1605
A0101406040112653549001JEANETTE G. SY                                           0510
B0101400440000005393882JKRFG UPGRADE BUSINESS SOLUTION CORP.                    1605
A0101407270000006939082DELA PENA, AIDA ROSAURO                                  0502
A0101407270162287683001JOSE FREDDIE P. BAUTISTA                                 0502
A0101401090171565714001ANGELA ROSE HERNANDEZ                                    0501
A0301400530000003573379CABALLERO, SORAYA MIGUEL OR                             10502
A0301400530000003573379CABALLERO, JOEMARIE D.                                  20500
B0301400530000000025378D' UNIBUENAS CORPORATION                                 1603
B0301400660000000022824PHILSAGA MINING CORPORATION                              1605
A0301400790000005691990EMBALSADO JR., ALBERTO GEMPESAW                          0502
A0301400790000003969542******                                                   0501
A0101401380000005320956**********                                               0501
A0101413600000005355095KARYL B. FRANCISCO                                       0501
A3101400160221065923001APACIONADO, MARY JOCELYN DBU                            10501
A3101400160221065923001ROYAL VERTEX ENTERPRISE                                 20500
A3101400450223056521002SAMIANO DENTAL CORP DBU THE                             10501
A3101400450223056521002NAME AND STYLE OF SMILE                                 20500
A3001400130000002063412CARIAGA, GIRLY GORGONIO                                  0501
A3001400130000008264762RICHELLE SUMIPO DRESSED CHCKEN                           0501
B1001400190231061482001MAGSAYO, ALLAN CASTRO DBU                               11601
B1001400190231061482001SCORPION SACKS M                                        21600
A1001400190231520766119CABANO, BERNADITH CATIWALAAN                             0501
A1301400470252538628001JENNY BILOG                                              0501
A1901400290261566480001AIDA BAROJA INDINO                                       0501
B0101406460272015676001HINNOX TRADING CORPORATION                               1601
A0101406460272420187001CHAN, CHRISTINE JOY TAN OR                              10501
A0101406460272420187001CHAN, CHRISTOPHE                                        20500
A0101406620273417682001BELDAD, DULCE ESPLANA                                    0501
B0101406620273460371001PHIL. MANAGEMENT, INC.                                   1602
A0101406620273575453001*********                                               10501
A0101406620273575453001*********                                               20500
A0101408660274478374013HERRERA, CHRISANTINA DOMINGO                             0502
A0101412470000002295769CHENG, JEFF TAN OR CHENG,                               10502
A0101412470000002295769EVELYN UY                                               20500
A0101411240000001026851MARQUEZ, YOLLY MONTESA                                   0501
B0501400200000000035710GOLDEN DRAGON MOTOR SALES CORP.                          1601
A2601400270302698462001ALBERT C. LIM OR NELIA V. LIM                            0502
A0801400160000006893210APISTAR, TERESITA JAVELLANA                              0502
B6601400120314612845001LOMAGDONG, PETER OR TANG, PATRICIA                      11603
B6601400120314612845001LOMAGDONG, JOYCE                                        21600
B2001400290315044204001ACEBANK CREDIT, INC.                                     1601
B2001400290000000020537LINK RI LOGISTICS INC.                                   1601
B3401400280000000002331SUPER K DRUG CORPORATION                                 1601
A3401400280318478374002PIONELO, LENIDIE DEVELOS                                 0501
A0101402510341564659001JEFFREY D. CORTEZ                                        0501
A0101402510341733749002ALCALA, GINA CALA-OR                                     0505
A0101402060351707814001SONSING, MARIA REGINA SANGA                              0502
A0101408370000002264159FRANCISCO, MICHAEL CARPINA  OR                          10503
A0101408370000002264159TAGAYUNA, MARIA CRISTINA                                20500
A0101408370382493622001DR. JOSEPH AUGUSTUS D. LOPEZ                             0502
A0101408370000000014542GO, ANGELICA MONTANO                                     0501
B0101415350000003212380TECH1 CORPORATION                                        1602
A0101408400000006129193HERNANDEZ, AMANDA BEATRICE VENE                          0501
A0101408950000003171279POBLETE, ROSEMARIE JEAN JAUCIAN                          0502
B0101409210398015788001PETNET, INC.                                             1606
B0101412210399043175001POLAR BEAR FREEZING AND STORAGE (POBECO)                11601
B0101412210399043175001CORPORATION                                             21600
A5501400120000001121719ONG, DANIEL STEVEN OR                                   10505
A5501400120000001121719YU, MARICA ARMIN                                        20500
A2401400180000001935793PACULANAN, NORMA REPONTE                                 0503
B2401400180411056764001RD PAWNSHOP, INC. - GENSAN REGION                        1602
A1201400150421039385001JL'S CLEAN UP JANITORIAL &                              10502
A1201400150421039385001MANPOWER SERVICE                                        20500
A1201400150421329088003DR. LILY MUNSAYAC-SUNGA OR DR.                          10502
A1201400150421329088003BENITO V. SUNGA                                         20500
B0901400220000000888111**********                                               1601
A0101403030441239184001DARWIN NG                                                0501
A0101403320000009846542GERARD JADE D. CRUZ                                      0501
B0101407430503006843001PACIFIC SHIPPING AND DISTRIBUTION INC.                   1605
B0101407430503040314001MONDE LEI IMPORT                                         1602
B0101405940512015044001CASA REGENT PROPERTIES CORPORATION                       1605
A0101411790000009841530SALAZAR, MARILYN DE DIOS                                 0501
B0101411790000000005318REM BUILDERS CORPORATION                                 1603
A0101412050519056257001BIHASA, GEORGE MARCO T. DBU                             10501
A0101412050519056257001JAZZ INNOVATIVE                                         20500
B0101403450000000889621FERRIS SOBELL PROPERTIES INC.                            1603
A0101403450521238571002*********                                                0501
A0101403450521582387001**********                                               0501
A0101403610000001174954HERNAEZ, JOEL A.                                         0501
B0101404000551024348001APPLESEED MONTESSORI INCORPORATED                        1601
A0101410690000000001792*********                                                0502
B0101410690000000710821KERYGMA SECURITY SERVICES, INC.                          1601
A0101407720000002151439CUEVAS, MICAH ANGELI MASIAN                              0501
A0101404260611005236004WILTRON ELECTRONICS                                      0502
B0101404260611034987001JS TRAVEL & TOURS                                        1604
B0101404260000008700710ROYO, E DBU PROSPERLAND HOME REALTY                      1605
A0101404260611478374115FE S. BONDOC                                             0502
A0101409890649047047001**********                                               0508
B0101411530654047280001ALPHA VILLAGE HOMEOWNERS ASSOCIATION INC                 1601
A0101410300000000191893********                                                 0501
A1301400340683387803001ESGUERRA, DANILO MEDRANO OR                             10504
A1301400340683387803001ESGUERRA, ANGELITA TOBIAS                               20500
A1301400340683533736001BULAO JR., CHARLES GO                                    0501
A0101408240711397533001RONALD P. MERCADO                                        0502
A2801400230000001781984BORLONGAN, P DBU SAYONG'S                               10502
A2801400230000001781984PASILYO COUNTRY                                         20500
B4101400390000006103559LEAD WITH INTEGRITY AND GOOD GOVERNANCE                 11605
B4101400390000006103559IN HELPING COMMU                                        21600
B4101400390813821100608**********                                               2005
A4101400550000002344101TROPEL, RAZZEL LOUISE MALAYAO                            0501
A0101412340000003343462ALLAN ROY R. GARCIA                                      0501
B0101404840851047431001ISUZU AUTOMOTIVE DEALERSHIP, INC.                        1610
A0101404840851478374153EUGENIA C. DOMINGO                                       0502
A0101406750000000480573ACOSTA, GRACE TAMAYO                                     0501
A0101406750000004642302CORPUZ, MARIA DONNA SIAO                                 0502
A0101406750000007879450ARCILLA, JENNIFER SALAZAR                                0501
A0101413860000007110152GONZALEZ, VERONICA SANTOS                                0503
A0601400230000005185811YU, DON PAOLO VINCENT BERZAMIN                           0501
