A0101407270000008731982ELVINA, DON LEONARDO ALVIAR                              0501
B0201400920375035473001UNI KEANNE TRANSPORT SERVICES                            1605
A0101408400000001981542CUANO, MARITA GUEVARA                                    0502
A0101413440000006680948SATA, MANUEL SUMADIC                                     0501
A4101400420000002084408DEL MUNDO, CYNTHIA EROMA                                 0501
A4101400420000006643490LA AS, NORA P.                                           0501
B0101417420000801010012**********                                               2002
A0101400860011539633001**********                                               0502
A0101401250000000460586AZUCENA, MARIA PAMELA ENRIQUEZ                           0501
A0101400150000004090311DENIEGA, ANN LYN FITERO                                  0502
A0101400150000006551259SALCEDO, THEL CHRISTOFFER MARQU                          0502
A0101400150061233523001BANGAYAN, TEOFILO OR                                    10505
A0101400150061233523001BANGAYAN, SHIRLEY                                       20500
B0601400360000000978845P4 HUMAN RESOURCE SOLUTION, INC.                         1602
A0101410560000005280859MA. EDITHA A. MENDOZA                                    0502
A0101401960000002331813LADARAN, LANI VILLANUEVA                                 0501
A5001400170000000045138UY JR., ROBERTO TAN                                      0502
B0101412920160821100608**********                                               2005
A0101400440161478374198EUFRONIA I. BERGONIA                                     0501
A0101407270162293484001MA. TERESA E. GANA                                       0502
A0101407270162333006028BENEDICT M. CALINA                                       0501
A0101401090171201876001SANDRA NAVARRA OR                                       10520
A0101401090171201876001SALVADOR NAVARRA                                        20500
A0101401090171312734001DE LARA, AILEEN CYNTHIA F.                               0502
B0301400530000005001603*******                                                  1601
A0301400530193060848001LEPA MILL MASTER                                         0501
B0301400530193551180168LIM, MARK EDUARD OR LIM, LIZA OR LIM,                   11605
B0301400530193551180168RALPH LOUIE                                             21600
A0101401380000005320978KIM, WON KAB                                             0502
A0101401380000006542350PARTOSA, MARIA ISABEL LARA                               0502
A0101401380000008519911CLAROS, DON ALDRICH CHIU                                 0501
A0101401380201545113002*************                                            0501
B3101400160221043434001NY SAN FELIX LTD. CORP.                                  1610
A3101400870000005410213EVANGELISTA, GISELA CASTILLO                             0501
B1001400190231032463001PROGRESS BICYCLE CORPORATION                             1601
A1001400190231520766036ONIPA, JANE ROSE P                                       0501
A1001400190231520766103BALCUEVA, CESAR S.                                       0501
A1001400190000002170656AMELINA E. FACTURA                                       0501
A1001400350000004095272DADULAS, CHRISTIAN MARK ANTHONY                          0502
A1301400470000005394221ALICIA M. HOLGADO                                        0502
B0101401670271031093001NUOVO ART & POWER GROUP, INC.                            1603
B0101401670000000739219HYDRO-TECH ENVIRONMENTAL MGT. INC.                       1603
A0101401670271327344001REBECCA F. MARONILLA                                     0502
A0101411110000002319951COSETENG, ERICKSON CASIMIRO                              0501
A0101411820000001356474GENALYN ELE ASUNCION                                     0503
B0101412470000002086353ISABELA ASIA STAR CORP.                                  1606
A0101400570281529282001HERNINA V. CALALANG OR DAVE                             10501
A0101400570281529282001CLARKE C. ESTRERA                                       20500
A0501400200000005751771CAJIGAL, BRENDA LEE ELEFANTE                             0503
A2001400290315636761001VILLABERT, WINSTON TAN OR                               10505
A2001400290315636761001VILLABERT, MARIT                                        20500
A3401400280000002323473LOBERIZA, ETHEL IBABAO                                   0501
A0101402350321380116001MANANSALA, ELENA CARPIO                                  0501
A0101402350321542967001ABUNDIENTE, JONATHAN GUMBA                               0501
A0101402350321597544001ARSITIO, ROBERTO T. OR ARSITIO,                         10501
A0101402350321597544001LUVIZMINDA L.                                           20500
B0101405650322024999001SUPERIOR MAINTENANCE SERVICES, INC.                      1640
A0101405650322677759002BESA, ODESSA MACATIVO                                    0501
A0101402060351009359001JIANDANI, SURESH G. OR                                  10501
A0101402060351009359001JIANDANI, KAVITA                                        20500
B0101402060351017870003HANIN CORPORATION                                        1605
A0101402060000005323160SANTOS, MA. ANA SUMO                                     0501
A0101409050000000999619TUMAGAY, ELAINE SUMULONG                                 0501
A0101409050000006986716PARAGAS, LEAH PATRICE BORJA                              0501
A0101409050352621170001**********                                               0505
B0201400760374249471001COMMONWEALTH INSURANCE COMPANY                           1604
B0201400760374249471002COMMONWEALTH INSURANCE COMPANY                          11602
B0201400760374249471002-OPERATING FUND                                         21600
B0201400920375035929001UPLAND STOCK FEEDS, INC.                                 1602
B0101402930000005645952FARMFRESHFORYOU CORPORATION                              1601
A0101408370000006446233JUNIO, ANALENE NUNEZ                                     0501
A0101408370000002264057REYES, ALEXANDER JOSEPH LAI                             10505
A0101408370000002264057OR PALMERO, ELIZABETH                                   20500
A0101408790000004697101DE GUZMAN JR., JOSE GUTIERREZ                            0501
A0101408790000008494566JASON YU LIM                                             0501
A0101415350000005356889MARCELO, LEA D. OR GABINETE                             10502
A0101415350000005356889MARIE SUZZETTE Z.                                       20500
A0101402770391472751004DE GUZMAN, JERVIE RACELIS                                0503
A0101408400394028886002DEC ORIENTAL FOOD STREET CO. LT                          0505
A0101408400394030081001XPRINT CO.                                               0505
B0101408950000006424911BRITISH UNITED AUTOMOBILES, INC.                         1603
A0101408950396563233001************                                             0510
A0301400820409094648001LADAGA, SHERRYL E. OR LADAGA,                           10503
A0301400820409094648001JOSEPH FRANKLYN                                         20500
A1201400150421543715001CAMADO, JUSCILLE P. OR                                  10504
A1201400150421543715001CAMADO, MILLER                                          20500
A0901400220000002300878**********                                               0502
B0101403030441239806001JETCO MOTOR SALES                                        1604
A0101403030441545175001**********                                               0501
A0101412890000005945031************                                             0504
A0101403320000000736112GRACE A. GERVACIO                                        0502
A0101403320471206534001QUION, ELENITA C.                                        0502
A0101403320471638012002CRUZ JR., NARCISO AARON BENAMER                          0502
A0101406330000000162467CARLOS, EDUARDO S. OR                                   10501
A0101406330000000162467CARLOS, CECILIA A.                                      20500
B0101406330000000432842**********                                               1605
A0101406330472512058001BELLA L. LIM OR LOUIE L. LIM                             0501
B0101406330000000432864**********                                               1605
B3801400170490063880001MEGALIFE DRUGSTORE INCORPORATED                          1602
B1901400160491018232002AMA COMPUTER COLLEGE -BATANGAS CITY                      1602
A1901400160491372379001AGUDA, RENY SIMBAHAN                                     0501
A1901400160491635678001MARIVIC ATIENZA CANTES                                   0501
A1601400170000000497592MARLYN A. RELINGADO                                      0501
B0101407430000004491787NEW FAR TRUCKING SERVICES, INC.                          1605
A0101407430503181127001ALBERT S. SAW                                            0501
B0101405940000000002773BT AUTO SPORT CORP.                                      1603
A0101408110515524136001BRIAN STEPHEN T. YAP                                     0501
B0101408530516524823001SL TEMPS INC.                                            1610
A0101412050000000890882********                                                 0502
B0101403450521011657001UPTOWN INDUSTRIAL SALES, INC.                            1610
B0101403450000000009823***********                                              1601
B0101404000551017749001PHILKO PEROXIDE CORPORATION                              1610
A2201400250561484428001WILSON LAO SIO OR                                       10502
A2201400250561484428001EDUARD LAO SIO                                          20500
A0101407720602340512006SHANGRI-LA U. JUAN I                                     0502
A0101407720602521571001BARADI, MACRINA RACHEL DIWATA A                          0501
B0101412180000000075409EMPEROR'S 168 PALACE INC.                                1605
B0101412180000001293090ADVANI, GHANSHYAM PARASRAM DBU SICHEL &                 11605
B0101412180000001293090SICHEL ENTERPRIS                                        21600
A0101404260000001725537PORTILLO, HARRY MARTIN CLARAVAL                          0501
A0101404260611484749002BAHALA, AURELIA MANINANG                                 0505
B0101407690652041404001AUBURN POWER TECHNOLOGIES INC.                           1601
A0101407690652393522001PADILLA JR., NICANOR BALANE                              0502
A0101407690652525001073ELVIRA D. BASA  DEALERS OF                              10503
A0101407690652525001073SHOECAT, INC.                                           20500
A0101411530000001393642FERDINAND ONG OR NELLIE ONG OR                          10502
A0101411530000001393642EMIL RAYMUND ONG                                        20500
A0101413990000001202377ELLEN MAE L. GONZALES OR                                10501
A0101413990000001202377RONALDO AMADOR GONZALES                                 20500
B0101406590662043490001CARMEL MKTG & TECHNOLOGY CORP.                           1603
B1301400210682016750001JFL AGRI VENTURE SUPPLIES                                1606
A1301400210000001206882GIPIT, GEMMA C.                                          0501
A1301400500000004093087ME-ANN'S EGG DEALER                                      0505
A2801400100000000188294MENDOZA, VERNIE E DBU VEJ                               10502
A2801400100000000188294TRADING                                                 20500
A2801400100712320516001CLEMENTS, ANTHONY ALLEN                                  0501
A2801400230713771317001NACIONAL, NATHANIEL ARZAGA                               0501
A4101400260000001198603DELOS SANTOS MARICAR DBU MDS GR                          0510
A4101400260812299913002CAMPOS, FILOMENA FORTICH                                 0501
A4101400260000003679943TAN, ANGELINA                                            0501
A4101400420814760374001QUINONES, GABRIELA LARIOSA OR                           10501
A4101400420814760374001QUINONES, GIL IGNACIO                                   20500
A0101404840851710251001MALAIKA, ABDULAZIZ OR GONZALES,                         10502
A0101404840851710251001KARIMA                                                  20500
A0101405070000005619525GATDULA, ESTER CABUGA                                    0501
A0101413860000001886855CRUZ, MALAYANG DIWA MEDIJA                               0502
A0601400230000006045570GUIAO, JULIETA ONG                                       0505
B0101415930410412000011**********                                               2003
