F0601400100081553525001UY, PETER ALEXANDER SO                                   2505CKO
F3101400320222400583001GAMALIEL C LINO                                          2501CKO
F0401400270000000006715ISECURE REALTY CORPORATION                               2603CKR
F0101407140213026129001ECE PHARMACEUTICALS, INC.                                2604CKR
F0101402060351009773002GRB ENTERPRISES                                          2606CKR
F0101408400394031095003LIVINGWATER SYSTEM, INC.                                 2620CKO
F0201400180181037108002SAN REMIGIO TRUCKING                                    12605CKR
F1201400280671768440001BATANES, BONNER S. OR BATANES, BENTER S.                12610CKO
F0201400180181037108002SERVICES, INC.                                          22600CKR
F12014002806717684400016715500142                                              22600CKO
