B1601400170494821100608**********                                               2003
A0101400860011498256002**********                                               0503
A0101400860011529457003**********                                               0501
A0101400860011688925001**********                                               0501
A0101400860011774650001**********                                               0502
B0101400150000000633094KINETIC PHILS. ELECTRICAL CONSTRUCTION                  11605
B0101400150000000633094INC                                                     21600
B0101400150000010164513ALPHA FOXTROT MEDIA INC. DOING BUSINESS                 11610
B0101400150000010164513AS ARTILLERIE ME                                        21600
A0601400100000017614347DE LEON, JOHN ERWIN LABACLADO                            0501
A0601400100000017614507GARCIA, ACE PINEDA                                       0501
A0601400100000017614610MACAINAG, PATRICK JOHN CANLAS                            0501
A0601400100000017614683MORGA, VALENCIA MAKEBA .                                 0501
A0601400100000017614763SEXON, KAREN MICHELLE DAVID                              0501
B0601400100000013801800ANGELES FORTUNE HONGKONG SEAFOOD RE                      1610
B0601400100081039025001JOHN KRISKA DISTRIBUTION CENTER INC                      1610
A0601400360000017611400TAGAMA III, AQUILINO ROBLES                              0501
A0101406040112209765001**********                                               0502
A0101401960000013979258**********                                               0501
A0101401960121238667001MERCEDES PASCUAL OR                                     10501
A0101401960121238667001MARCELO PASCUAL                                         20500
A0101412630000004598132BOLANOS, ELLEN JAVIER                                    0501
A0101412630000004062002CENAR, LOIDA DBU LMH MEDICAL                            10510
A0101412630000004062002SUPPLY DISTRIBUTOR                                      20500
A7201400170000003772918TAN, ROSITA LUY OR TAN, MELANIE                         10503
A7201400170000003772918LUY OR TAN, MICHAEL LUY                                 20500
A7201400170000003774112AMPIL, FLOYD TABAYAG                                     0502
A7201400170000013006745PAULIN, GYRNYLL ALBARRACIN                               0502
B7201400170000013006916G & A YAP TRUCKING SERVICES                              1602
B0101407270162063091001MOTHERSHIP, INC.                                         1620
B0101401090000000210482BLUMEX PLUS CREDIT INVESTOR INC.                         1610
A0101401090171195893001DR. RICARDO AGBAYANI                                     0501
A0101401090171198420002GIL A. CAUYAN                                            0501
A0101401090171199075001LORNA O. KUGENUMA                                        0501
B0301400530000017269075FRUIT TALKS INTERNATIONAL CORPORATI                      1601
A0301400790000003969597SENERES, LEO VILLAREAL OR                               10502
A0301400790000003969597SENERES, ALLEN MORAN                                    20500
B0301400790000000435818********                                                 1601
B0301400790195066646001SKPHIL CORPORATION                                       1601
B0301400950000011694683RJFOUR MOTORPARTS AND HARDWARE                           1604
A0101401380000010190659MUSNI, MICHAEL ANTONIO JANEIRO                           0501
B0101413020000001175440TBS INDUSTRIAL SERVICES, INC                             1601
A3101400450000016637953FULGENCIO, RACHELLE MOSQUEDA                             0501
A3101400740000006735835DAVIN, LIZA DBU ROMERO DAVIN                            10502
A3101400740000006735835REALTY AND SERVICES                                     20500
A3001400130000008915971JUBAC, CHARLES TATAD                                     0503
A3001400130230688380002**********                                               0502
A3001400130000000067183CURITANA, COLEEN BARRIENTOS                              0502
A1001400190231275093001CAUMBAN, CRISTY MARIE                                    0502
A1001400190231520766012UBALDE, RICHEL TECSON                                    0501
B0101406620273012462001COL FINANCIAL GROUP, INC.                                1620
B0101406620273028932001VALUE QUEST FINANCE CORPORATION                          1602
B0101406620273046416002FIRST SHELTER VENTURES & REALTY CORP.                    1610
A0101408660000017616634VILLA, FABIOLA BARRIENTO                                 0501
B0101410980000006014551FATIMA DOMINIQUE C. VENTURA AND GEREMY                  11601
B0101410980000006014551VANDER F. KHO                                           21600
B0101411110000001037187ALPA EXPONENTIAL BUILDERS INC.                           1601
A0101412470000012130997ARELLANO JR., OSCAR GOMEZ                                0501
B0101412470278821100608**********                                               2010
A0101400570281186530001CARLOS AGUILA OR                                        10502
A0101400570281186530001MERCEDES AGUILA                                         20500
A0101411240000017599132CASTELLON, JANET CADELINA                                0501
A2601400270000012149956DIEGO G. PUA OR TERESA A. PUA                            0505
A6601400120000002249794BALDOS, BERNARDO INIGO                                   0503
B6601400120314043609006FUNDACION GRAMEEN PILIPINAS INC.                        11605
B6601400120314043609006LAVEZARES BRANCH                                        21600
A6601400120314755333001NAVAROZA, BRYAN VERANO OR NAVAR                         10502
A6601400120314755333001OZA, MARICEL DON                                        20500
A2001400290000001301580BONIOR, MARIO CURATIVO                                   0502
A2001400290315043996001STOP N' SHOP ENTERPRISE                                  0510
A2001400290000003160790REPEROGA, ROLAND LIM                                     0505
B2901400130319821100608**********                                               2002
B0101402350000008956921FLASH CARGO LOGISTICS NETWORK INC.                       1605
A0101405650000014026045AMPUAN, JALILAH MAMAO                                    0502
A0101405650000015273857BERNABE, MA. DARLYNNE ESPINOSA                          10501
A0101405650000015273857DBU MDPE TRADING                                        20500
A0201400760000009996189MODINA, LORNA MAPA                                       0501
B0201400760374032939002GATEWAY MOTORS (CEBU), INC.                              1605
B0201400760374033008001METAPHIL INTERNATIONAL, INC                              1610
A0201400890376589871001NAVERA, TESSA LIM                                        0501
A0201400890376763623001BELO, EDWARD JOHN DENNIS R. OR                          10502
A0201400890376763623001BELO, TERESITA L                                        20500
B0101408790000010384608KEYS 2PROSPERITY INNOVATIONS INC.                        1601
A0101411660000008027547ANG, ENA LYN                                             0501
A0101415350000015170766FELIPE, DARMO SANTIAGO                                   0502
B0101402770391009461001CNRG INC.                                                1602
A0101405490000014677097ENRIQUEZ, PAUL JOHN G. OR                               10501
A0101405490000014677097ENRIQUEZ, MONICA SUYIN C.                               20500
B0101408400000003120521GILIGAN'S ISLAND BAGUIO, INC.                            1602
A0101408400000008744787BOLISAY, BEULAN ANN D.                                  10502
A0101408400000008744787DBU FIRMITAS MARKETING JT                               20500
A0101409180000002252455DIZON, ROMULO ENRIQUE MANGA                              0502
B0101409210000013390313GLASS SOLUTIONS PREMIER, INC                             1603
A2401400180000016516671RAMOS, JEREMY OR KING, JOHANNA                           0502
A2401400180000017501194SANCHEZ, CHAKII SAGABAEN                                 0501
B2401400180411058219001BRIGADA PHARMACY, INC.                                   1620
A2401400180411472836003OMEGA, LEE ANN GENILO                                    0502
A5101400100000010834078GABRINO, GENEVIEVE CHINGBEE TUL                         10505
A5101400100000010834078ANG JT                                                  20500
A0101403320471478374053*************                                            0501
A0101403320471548510002CATAPANG, LILIA CASTILLO OR                             10501
A0101403320471548510002CATAPANG, LEOVIGILDO G                                  20500
B0101406330000000432671WHIFF EMISSION TESTING CENTER, INC.                      1602
B0101406330000000432682MAGAYON EMISSION TESTING CENTER, INC.                    1602
B0501400170000013295940ALEJANDRINO, JAYVEE SOKUA DBU HANDY                      1602
B0501400170000000018317DAGUPAN DOCTORS VILLAFLOR MEMORIAL                       1602
A0501400170481319119001ENOCH O. TAN OR                                         10501
A0501400170481319119001GWENDOLYN S. TAN                                        20500
A3801400170000002302852NICA RAVEN A CHUA                                        0501
A3801400170000002302783GANIR JR., ANGEL PANGALIMAN                              0501
A1901400160000013648563MACATANGAY, RAQUEL EBORA                                 0501
A1401400110000017622101ROMULO, Z DBU ROMULO'S CATERING                         10501
A1401400110000017622101SERVICES                                                20500
B1401400110492027896003LUCENA UNITED DOCTORS HOSPITAL, INC                      1615
B0101407430503039663001ACES CHASSIS MANAGEMENT AND MARKETING                   11610
B0101407430503039663001CORP.                                                   21600
A0101405940000015247777COCJIN, SUSAN ANG                                        0504
A0101408530000017606823CORTEZ, ZERWIN AQUINO                                    0501
B0101408530516035673001FERROTECH STEEL CORPORATION                              1620
A0101408530000008159746GONZALES, CZARINA CLARICE ABAN                           0501
B0101403450000002975780***********                                              1605
B0101403450000000135599TCB ROYAL INDUSTRIES INC.                                1602
A0101403450521238267001*******                                                  0502
A0101403450521309909001MA. TERESA R. SURATOS                                    0501
A0101403450521638611001**********                                               0501
A0101403610000013964242SEDAYA, MARY ANNE PAMILAR                                0501
A0101403610000016901490SUAREZ, JOAN CAYANGHO                                    0501
A0101403610000014051213PUYAWAN, FERNANDO V DBU FVP                             10501
A0101403610000014051213PAINTING ENTERPRISES                                    20500
B0101403610000017330648MMG CORPORATION                                          1601
B0101403610000016482116EXPEDISE TRADING COMPANY, INC.                           1601
B0101403610000016534402ASIA WORLD TRANSPORT PHILS. CO., INC.                    1601
B0101403610000017201251ASIA WORLD TRANSPORT PHILS. CO., INC.                    1601
B0101403610000017196751MMG FORWARDING CORP.                                     1601
B0101403610000017198940MMG FORWARDING CORP.                                     1601
B0101403610000017330604MMG RESOURCES, INC.                                      1601
B0101403610000017445104MONGCOPA, JEREMIAH JUDE AMOR DBU SOLASTA                11601
B0101403610000017445104TRAVEL AND TOURS                                        21600
B0101403610531059133001TRI-MOON GRAPHIC ARTS COMPANY                            1601
A0101403610531219472002NAVOA JR., FILOMENO CORPUZ OR                           10501
A0101403610531219472002NAVOA, NANETTE P                                        20500
A0101403610531762081001MIRANDA, SUSAN ESPINILI                                  0501
A2201400250000001932258RCT MED PHARMA CORPORATION                               0503
A2201400250561503884001DELIE C. CASTILLEJO                                      0502
B01014041306010254590010AMOS, RONALDO B. DBU ERICMAN P                         11601
B0101404130601025459001SERVICES INC.                                           21600
B0101412180000001293061CP OPTICS, INC.                                          1603
A0101404260611416131001ORA, ROMEO FOLLOSCO OR                                  10501
A0101404260611416131001JOSEFINA                                                20500
A0101404260000013860027MA. SHARON FLORES REYES                                  0502
A0101409890000002326741ROJAS, RAYMOND DE VERA OR                               10502
A0101409890000002326741ROJAS, MARIA LEBERTAD                                   20500
A0101409890000006812780**********                                               0505
B0101409890000007373255ZINGY LINE INTERNATIONAL TRADING CO                      1602
A0101409920000016984604CRUZ, IANNE MARIE DEL ROSARIO                            0502
A0101407690000000587895MANLIMOS, AMALYN DELANI                                  0501
B0101407690652047936001WATER DRAGON CONST. & DEVELOPMENT INC.                   1601
A0101411530000017618863ESPIRITU, MARIA ERICA OLA                                0501
B0101413570000003580738A. COLMENARES REALTY INC.                                1601
A0101413990000016958284PLATA, MADILYN B. OR                                    10501
A0101413990000016958284ABUNDO, ROMMEL P.                                       20500
A0101413990000016958273LUGUE, MARVIN KARLO TOLENTINO                            0501
A0101414120000004603081BRIONES, HELEN RUTH PASCUAL                              0502
B0101414120000001142818CAS PROPERTIES INC.                                      1602
A1301400210000005040577**********                                               0501
A1301400210000016548299VILLARICO, BILLY JEAN MORALES                            0502
A1301400210000001206893SOLARES ENGINEERING SERVICES AN                          0501
A1301400340000010467462GONZALES, ROSALINDA DELA CRUZ                            0501
B1301400340683821100608**********                                               2001
A0101408240000010148222ULANDAY, VERGEL ALEXANDER XENOS                          0502
B0101408240000017622243RJK DRAGONS TRAVEL & TOURS INC.                          1601
A0101408240711643338001ARCAYA, MICHELLE GRASPARIL                               0501
B0101408240711691416001FIVESOME INC.                                            1601
A4101400260000017549603GADICHO, WILBUR JURIA                                    0501
A4101400260000000469329FALCUTILA, MARISSA RAMOS                                 0503
A4101400260000001783866FLORES, PEDRO FROMENCIO FERNAND                          0506
B4101400390000017319821FREDERICK C CASTANEDA DBU FJC TRADING                    1601
A4101400420814456030002AGELLON, LILY RADY AGUINALDO                             0503
A4101400420814520766108ESPANOLA, MERELY C.                                      0502
A4101400420000000710483ESPANOLA, MA. ANGILY CASANDRA                           10501
A4101400420000000710483CARBA                                                   20500
A4101400420814562876001*****                                                    0502
B4101400420814821100608**********                                               2003
A0101412340000003344083ELINOR JOY L. PERIDAS                                    0501
A0101412340000017430541BERMUNDO, ZANFORD VELASCO                                0503
A0101404840000004565953RODULFO, CLARIVEL M.                                     0501
A0101404840851520766008ERLINDA G. MATOCINOS                                     0503
A0101404840851520766163JOCELYN ANONUEVO                                         0501
A0101405070000015208034URSAIS, FELICITAS VIRAY OR                              10501
A0101405070000015208034URSAIS JR., CIRIACO VILLA                               20500
A0601400230000015248781TORIO, LIEZL REGALA                                      0501
B0601400230891029282001L5 & SONS FINANCING CORP.                                1610
B0601400230000007402100ALBANO, GIENAH PACLA DBU HYDROE                          1601
