B0101400280051821100608**********                                               2005
B0101409500473821100608**********                                               2003
A0601400520000004423210FLORES, EDITH VALENCIA                                   0501
A0101410850109058582001CHRISTINE MAY BURLAZA'S CUSTOMS                         10501
A0101410850109058582001BROKERAGE                                               20500
B0101405650000004410039MIDNIGHTHOOCH INCORPORATED                               1604
A0101400860000002333455************                                             0505
A0101400860011479962001**********                                               0502
A0101400860011549648001**********                                               0505
A0101400860011606340001**********                                               0506
A0101401250000005022860BORRA, ROMEO SOLERO                                      0501
B0101400150061010998001CITY INDUSTRIAL CORPORATION                              1602
A0101400150061311743050RAYMUND PUYAT                                            0502
A0101400150061663651001********                                                 0501
A0101400600071523030001*************                                            0502
B0601400360083042517001PROJEXASIA CORPORATION                                   1620
A0101410560000000590556GUTIERREZ, DOMINICA DALISAY                              0501
A0101410560000005836080REYNA, CRISTETA REBECCA LAVIDES                          0503
A0101401960121317797001**********                                               0503
A0101413150000003208175******                                                   0505
A0101413150000003208277******                                                   0501
A0101413310000000039901EVANGELISTA, JANICE MARIE                               10501
A0101413310000000039901MASILANG                                                20500
A7201400170000003773353GUINEA, HERMINIA BAYA DBU CTG                           10501
A7201400170000003773353CONSTRUCTION & ENT.                                     20500
A0101412920000005354252PEDRON, ALEXANDER ERICSON LUGTU                          0501
B0101412920160057439001VILLAMOR, ROA NATURAL DBU HOLY ROCK                     11602
B0101412920160057439001BUILDERS                                                21600
A0101400440161444616001ELMA B. BADILLES                                         0501
A0101400440161503597001JOEL F. TUBOG                                            0504
A0101400440161520766098JUDITH D. BRISO                                          0501
A0101400440161525001153JENNY P. CRUZ                                            0502
A0101407270000007987077BRAGAS, DIANE KAREN BUTAY                                0501
B0101401090171034513001HAWK SECURITY SERVICE INC.                               1603
A0101401090171271520001CRISTINO A. CARBONELL                                    0501
B0301400660194044769038LUMINOUS DEVELOPMENT CORPORATION                         1610
A0101401380000000106538SANCHEZ JR., DELFIN BALAIS                               0502
A0101401380201421770001DEL ROSARIO, LORETA COSTES                               0501
B0101413020000000038333WORLD STAR MARKETING                                     1604
B0101410720653006452001INTERNATIONAL GRADUATE SCHOOL OF                        11602
B0101410720653006452001LEADERSHIP INC                                          21600
A0101410720653286682002MACAISA, MICHELLE ABADA                                  0502
B0101413600000002122372INTERNATIONAL ACADEMY OF AESTHETIC                      11602
B0101413600000002122372SCIENCES INC.                                           21600
B3101400160221037479001TABLERIA LA CONFIANZA CO., INC.                          1601
A3101400160000004362903REYVELINDA E GUEVARRA                                    0502
A1001400190231520766110MAYOR, CARMELITA ANGCAY                                  0501
A0101406460272083012020CRUZ, MIGUEL  BENIPAYO                                   0501
A0101406460272314180001********                                                 0503
B0101406620273042754001WINALITE INTERNATIONAL, INC.                             1602
A0101406620273236978001CALLEJA, HOWARD MACEDA                                   0503
A0101406620273301500002CAESAR A. GUERZON                                        0502
B0101406620273459504001SANOSIL PHILIPPINES INC.                                 1601
A0101400570281192972002BALMORES JR., BENJAMIN A.                                0502
B0801400160311014079002C C C FINANCE CORPORATION                                1610
A2001400290315478374001MEMBERS OF NATASHA (SHOECAT INC                         10502
A2001400290315478374001ABANTE JR., FELI                                        20500
A3401400280000003309260DEGALA, JARETTE GUALIN                                   0501
A0101402350321478374013ROSALINA M. MARAVILLA                                    0501
A0101402350321478374059BERNARDITA D. LOPEZ                                      0501
B0101405650000004410039MIDNIGHTHOOCH INCORPORATED                               1610
A0101405650322170744002DELA PENA, DINA REYES OR                                10501
A0101405650322170744002DELA PENA,LAURENCE                                      20500
A0101402060000005137337ESPINA, MARY ROSE SUMBILLO                              10503
A0101402060000005137337OR ESPINA, RENE                                         20500
A0101409050000002971475EQUIPAJE, GERARD PAOLO ISIP                             10510
A0101409050000002971475OR FELICIANO, RUEL PAUIG                                20500
B0101409050000000258440JEFRA MARKETING CORPORATION                              1603
B0201400760000006433581YOUNG, SANDRA SIAO DBU LITRO GAS                        11606
B0201400760000006433581AND OIL                                                 21600
A0201400760374483079001STEINBERGER, OTTO WILHELM                                0501
B0201400920375034419001GONZALODO ENTERPRISES                                    1609
A0201400920000002804480MIRANDA, SAMMY                                           0501
B0101402930381040455001R & S LAW OFFICES                                        1603
A0101408790383549402001*****                                                    0501
A0101402770000000360592************                                             0501
A0101405490392298552043BETTY R. ARENA                                           0502
A0101405490000000444313BENITO M. LOJO                                           0503
A0101408400000001981600YU, ELVIS ANG                                            0502
A0101408400394033958001RCBP-STA MARTHA PARISH                                   0502
A0101408400000004490244JISON, VICTOR LEDESMA OR                                10502
A0101408400000004490244JISON, THERESE POLICARPIO                               20500
A0101408400394478374075VIOLETA I MANUEL                                         0501
A0101408400394510820001SONGCO, CHARLOTTE ARIOLA                                 0501
A0101408950000007983871SANTOS, VANESSA MENDOZA                                  0501
A0101408950396420560001MICHAEL LIM VILLA OR PATRICIA                           10501
A0101408950396420560001YUKIJI JAVIER VILLA                                     20500
A0101408950396615818001PASCUAL, CECILIA MARIE GLINOGA                           0501
A0301400820000001185780RUFEROS, ROY KENNETH OR                                 10501
A0301400820000001185780AREVALO, MICHELLE KAY                                   20500
A0301400820000004746043ALFAJORA, AL G.                                          0505
A0301400820409760125002GEPITULAN, DANTE C.                                      0501
A2401400180000002146312VENERACION, CECILIA CARANDANG                            0501
A2401400180000000826299GENSAN VIEW RESORT                                       0502
A2401400180411272602001HELEN B. NOGRALES OR EDDIE                              10502
A2401400180411272602001NOGRALES                                                20500
A2401400180411744426001ENGCONG, JAY CUEVAS                                      0501
A0901400220000003069065**********                                               0503
A0901400220000001805072**********                                               0502
A0101403030441240945001**********                                               0504
A0101403030441687781001**********                                               0502
A0101410140000001074555MANALO, TERESITA BAUTISTA                                0501
A1901400160491641033001ULYSSES M CHAVEZ OR                                     10502
A1901400160491641033001LETICIA M CHAVEZ                                        20500
B1401400110492031376001LUCENA WHEELER ENTERPRISE INC.                           1601
A1401400110000003475643*******                                                  0502
B1401400110000000034619TEE, JAMES ANG OR                                       11601
B1401400110000000034619TEE, SALLY ONG                                          21600
A1601400170000000497354YOLANDA Y. CHAN                                          0501
A0101407430503478374012ANALIE YPANTO                                            0501
A0101408110515041358001MADE IN HEAVEN ENTERPRISE                                0501
B0101411400000000230220LA SALANGANE, INC.                                       1601
B0101403450000006055836**********                                               1610
B0101403450521012112001********                                                 1602
A0101403450521547532001***********                                              0502
B0101403610531659842002DELAMO LENDING INVESTOR CORPORATION                      1603
A0101404000000001186807JAPITANA JR., ANGELITO RAMADA                            0501
A2201400250561088535001CHRISTOPHER JORDAN L. CHUA                               0501
A2201400250561478374010ZENAIDA L. REYES                                        10501
A2201400250561478374010MEMBERS OF NATASHA                                      20500
A0101404130601708628001PABALATE, PACITA BATAC OR                               10501
A0101404130601708628001PABALATE, HELEN                                         20500
A0101404130601716274002ISIDRO, INIGO PAREDES                                    0501
A0101407720602162890001ARMANDO NAVARRETE OR                                    10501
A0101407720602162890001CARLOTA NAVARRETE                                       20500
B0101409920000005460635PHILSOUTH HIGHLAND VENTURES & CONST.                    11602
B0101409920000005460635CORP.                                                   21600
B0101411530000000013601ROACH INCORPORATED                                       1602
A0101413990000000205901CO, EDGAR                                                0501
A0101413990000006278102LIM, ANA MARIE LIZA ELAGO                                0502
A0101413990000003141168PASCUA, JERICKSON LOUIE TAN                              0502
A0101413990000001406564CONSEJEROS, MYRA M.                                      0501
A0101410300000000191939CARBALLO, LUIS ANTONIO S. OR                            10510
A0101410300000000191939SALAZAR, EMMANUE                                        20500
A1301400210000005040646**********                                               0501
A1301400340683560929001TAMONDONG, RICARDO MAGTAAN                               0501
A1301400340683686116002RAUL C. DEL ROSARIO OR                                  10502
A1301400340683686116002EDGARDO C. DEL ROSARIO                                  20500
A1301400340683776169001BARAQUIEL, JOCELYN LIM                                   0503
A1301400500000000213210RBN ENGINEERING & DEVELOPMENT                            0503
A0101408240711605603001SANTOS, MARK ANDREW FETISAN                              0501
A4101400260000005333471RAPISTA, JOHNNY APISTAR                                  0503
B4101400260000001198916FIRST SOLID BUILDERS, INC.                               1610
A0101412340000006046880JON ROGER D. CENAS                                       0501
A0101412340000006326489AMOR D. NONES                                            0501
A0101412340000007396936ROMINA ANN F. DIOLA                                      0501
A0101404840851316655001VIRGILIO L. DE JESUS, JR.                                0502
A0101404840851520766175RUTH CONDE                                               0501
B0101405070861034415001ROTARY CLUB OF DOWNTOWN MANILA                           1601
A0101405070861478374073ROSARIO V. PARRENO                                       0501
B3101401000001802000019**********                                               2001
B3101401000920182000022**********                                               2001
