F2301400150301408683001ESTHER BUNAGAN                                           2610CKO
F0201400180181409254001SING, SUSANA YU                                         12505CKO
F0201400180181409254001OR ARTURO SING                                          22500CKO
F0301400110191059510002ZOOFARI GROUP INC.                                       2605CKR
F0101406620000000962421ARMCO HEALTHCARE  SERVICES INC.                          2601CK1
F0101405940512030823008AVID SALES CORPORATION                                   2610CKR
F4101400260812362318002MAXIMO P. SARTE                                          2602CKO
