F3101400320222039409001CORTEZ, LORELA LAMBINO·                                  2503CKO
F1801400130151048749001MSU-IIT NMPC TUBOD BR.                                   2601CKR
F0401400270242000173002FIRST COMMUNITY BANK, INC.                               2601CKR
F0101407560686028809001INTERNATIONAL JOURNEYS, INC.                             2602CKR
F0101403580000000214720TRENDS AND CONCEPTS TOTAL                               12605CK1
F0101401120131007793002CENTRAL COLLEGES OF THE                                 12610CKR
F0101404130601614586002UNICHAMP MINERAL PHILIPPINES                            12604CKR
F0101403580000000214720INTERIOR SOLUTIO                                        22600CK1
F0101401120131007793002PHILIPPINES                                             22600CKR
F0101404130601614586002INC.                                                    22600CKR
F0201400180181041364008CENTRAL VISAYAS TRUCKING SVC. INC.                       2701CKC
F0201400180181080425001MR INTERNATIONAL CONTAINER YARD INC                      2701CKC
