A0201400890000000027892FORTRESS ELECTRICAL SUPPLY                               0502
A0101412630000000045263HUERTO JR., PETRONIO ASINAS                              0502
A0201401020000000056426TRADIO, ALTERESITA MATA                                  0501
A0101408400000000077930MARILOU DE GUZMAN                                        0501
A0101405650000000080117*******                                                  0501
A0101409920000000118589****************                                         0510
A1001400190000000124785PELONGCO, ALPHA JOY B.                                   0505
A0101409050000000258348MELITA B. ADAME                                          0502
A0101412340000000319497PINEDA, IMELDA PEREZ                                     0501
A0101408530000000489572SRIKANTH SRINIVASAN                                      0501
A0101413990000000631872MONREAL, ESTELITA GUINTO                                 0501
A0101408950000000776552FAVIA, WALBERTO DE BELEN                                 0501
A0101400150000000806906DE LEON, CAROLINE TUAZON                                 0501
A0101412470000000853834**********                                               0501
A0101409050000000999562PUNZALAN, SALVE MARIE SOLIDUM                            0502
A1001400480000001054795ERENO, MARINA GALLANA                                    0501
A1601400170000001068957VERZONTAL BUILDERS                                       0501
A0101406330000001235272VHANZ HARDWARE                                           0501
A0101412210000001347611MALICAD, MYLENE QUEMQUEM                                 0501
A0101405650000001377431MELENCIO, RICHARD ANDRES                                 0501
A0101409210000001501524PANDAAN JR., ELUETERIO ALIM                              0502
A0101410720000001602244CANON, TEODORO MARASIGAN                                 0501
A1201400150000001863298MOLL, MONICA ISABEL NILO                                 0501
A0101408530000001885783UZZIELYN D. DIAZ                                         0501
A0101411660000001899187KANSIBIT ENGINEERING SERVICES                            0506
A0101406750000002040271EVANGELISTA, JOSEFINA MALLARI                            0502
A0201400760000002047230ZAPANTA, CHARITA JOY CAPANGPANG                          0501
A0101411080000002243129****************                                         0502
A0101405940000002268686LOPENA, CARMEN LACORTE                                   0502
A1301400210000002284999ANGULO, OSCAR CASTRO                                     0501
A1001400480000002300349HUERTAS, SAMUEL PONDOC                                   0505
A0301400790000002301280SENEN, PATRICK VINCENT GAPUZAN                           0501
A1001400350000002367273CHAN JR., BENJAMIN PO                                    0508
A0101410300000002375777******                                                   0501
A0101410300000002375880CHUA, MARIA VICTORIA L.                                  0502
A0101410980000002987122JUNTILA, MAY ANN DALIDA                                  0502
A0101401670000003181644SY, YVONNE SO MON                                        0502
A0101400150000003218653MICHELLE D. YAP                                          0501
A0101407270000003253950BORJA, FE ARELLANO                                       0501
A0101408400000003515108LESABA, MARIBEL SEVA                                     0501
A0101404000000003706905ERWIN E HERMOGINO                                        0501
A0101404000000003707106ILDEN D MANERE                                           0501
A0101404000000003707679JESSICA G TENG                                           0501
A0101404000000003707828JASON P VERIDIANO                                        0501
A0101411080000003798905CANLAPAN, NERSITA VILORIA                                0501
A0101404000000003814026ABIGAEL S SAN JUAN                                       0501
A0101400310000004075187AUSTRIA, VANESSA REYES                                   0501
A0101400860011483037001CASTRO, ROWENA                                           0502
A0101400860011498256002**********                                               0501
A0101400860011572958001**********                                               0502
A0101401700041024130001AARON SAMUEL INC.                                        0505
A0101400150061230098001SALVADOR R. SERRANO                                      0502
A0101400150061337098023RONALDO PALAGANAS                                        0501
A0101400600071335835002********                                                 0510
A0101407270162402587002MA. LOURDES L. SEVILLA                                   0503
A0101407270162526657002VALERIE ANNE G. MALIG                                    0502
A0101401090171203024001VICTORIA D. CORRAL                                       0501
A0301400530193478374012FUEREN, JANETH C.                                        0501
A0101407140213044909001AMBERGLOW MANPOWER SERVICES                              0501
A3101400450223478374004MORENO, JONALYN                                          0501
A3101400450223489008001SIO, MINNIE REGINA OR JOSELITO                           0501
A1001400190231478374027EUBRA, LIBERTY O.                                        0501
A1001400190231520766042GEOTORO, INES MANGUILIMOTAN                              0501
A1301400470252045619001GOLEM ENTERPRISES                                        0504
A0101406460272277789001********                                                 0501
A0101406620273517001001ASUNCION, JOHN DEXTER LIZARDO                            0505
A0101410980275076628001TAN, GIAN CARLO UY                                       0501
A0101410980275091760168MICHELLE CO OR CHESTER ALLAN CO                          0501
A2001400290315044705002REMAN GLASS & ALUMINUM                                   0501
A0101405650322664073001TABIEROS, SATURNINA TACUYAN                              0501
A0101402480331515864001*****************                                        0502
A0101408820333375363001MADRILEJO, ERNESTO SAMSON                                0502
A0101402510341057294001LEGAL AID BUREAU - SBC                                   0501
A0101402510341196483001OLIVIA MENDOZA LIMUACO                                   0502
A0101402510341199103002********                                                 0503
A0101402510341203195001REMIGIO, MA CANDIDA PENACERRADA                          0501
A0101402060351217441024VINORNA V. LIM                                           0501
A0101402930381478374015DIMARANAN, ARNOLD ABEJERO                                0501
A0101408370382625178001DR. KAREN ANNE R. BALANA                                 0502
A0101402770391212339002CORAZON DIZON MADERAZO                                   0503
A0101408400394727990001FERNANDEZ, MARJORIE LYNN JASMIN                          0503
A5501400120410656138002OBINA, ANGELITA URETA                                    0501
A0101403030441239725001**********                                               0501
A0101406330472766049001VERONIDIA G. DELA CRUZ                                   0501
A0501400170481331480002ARCINUE, MARIA RIZALYN V.                                0501
A1901400160491366464001ANA MARIA H BALMES                                       0501
A1401400110492710433001MACABUAG, PIER PAOLO DE LOS ANG                          0501
A0101403580511153103001CRISTINA M. CARBON                                       0501
A0101408530516578215031RHYNE A. YPULONG                                         0501
A0101411790518055764228HABACON, MARIA GLORIA BALANA                             0501
A0101411790518055815163TUDAYAN, ADRIAN PAUL YAMAT                               0501
A0101403610531321009001ELAMPARO, EVELYN PRESNEDI                                0502
A0101403610531707024001NUNEZ, ANGELITO RONQUILLO                                0501
A2201400250561038458001PTT SOUTH RAMP GASOLINE STATION                          0501
A2201400250561253929002BENJAMIN DAVID CUDAL                                     0501
A2201400250561655717001JAIME Y. MARIANO                                         0505
A0101407720602313257002PARRA, JOSEPH DINULOS                                    0503
A0101404420631478374124SONIA T. LUBRICO                                         0501
A0101407690652041716001******                                                   0501
A0101407690652452375001PALAD, MA. JESUSA FELICIANO                              0502
A0101410720653378318001NAJOS, ELVIRA ABAO                                       0501
A0101410720653409732001ATIENZA, OLIVA MAILA ANYAYAHAN                           0501
A0101410720653478374048VILLAFLOR E. OPELADA                                     0501
A0101410720653478374054CRISTINA CALDERON                                        0501
A0101406590662209694001MOZO JR., VIRGILIO DELA CRUZ                             0502
A1301400340683529077002RIVERO, CELESTINA MADRIAGA                               0501
A2801400100712311102001CHARINA N. HIPOLITO                                      0501
A4101400390813378814001GIGI D. ABOGADO                                          0501
A0101405070861197970002OKA, TOSHIKATSU                                          0502
A0301400530000000065978MAGLENTE, EUGENE L. DBU                                 10503
A2201400250000000141200NOEL M. ESPINOSA DBU N.M                                10501
A0101410300000000191804RONQUILLO, RONNIE GERALD OR ENR                         10502
A0101405940000000505980MARTINEZ, M DBU MARIA THERESE                           10502
A2601400270000000561784CAUAYAN UNITED ENTERPRISE &                             10503
A0101410560000001944043GOODNESS & MERCY MOVERS                                 10503
A1001400480000002300430YU, WINEFREDO NISNISAN DBU                              10503
A0101406460000002330730LINTAO, CATHERINE ERMENILDA                             10501
A1901400320000004552038RONNIE BARIL ABANDO OR                                  10501
A0101401700041789761001PLANTAS, LETICIA BUSTANTE OR                            10502
A2001400290315636080001LIM, HERBERT VALDE OR                                   10501
A2001400290315681977001TEVES, PRYDE HENRY ALIPIT OR                            10501
A0101408370382241442001DR. JOSE FRANCO J. BANZON OR                            10510
A5501400120410633077001CLAVISILLAS, JOSIE OR                                   10501
A1201400150421317778001REDEN MANARANG RONQUILLO OR                             10501
A0101403610531355089001MACASAET, DOMINGA YAMBAO                                10501
A2201400250561256285001JESUS C. CHUA                                           10501
A0101407690652520766009SHERILL S. LOPEZ - DEALERS OF                           10501
A0101407560686289843001EMETERIA HIJOSA OR RONALDO                              10501
A0301400530000000065978JAMCARS AUTO SUP                                        20500
A2201400250000000141200ESPINOSA CONSTRUCTION                                   20500
A0101410300000000191804IQUEZ, ENRICO LOUIE                                     20500
A0101405940000000505980FLOWER SHOP                                             20500
A2601400270000000561784CONSTRUCTION BUILDERS                                   20500
A0101410560000001944043SERVICES                                                20500
A1001400480000002300430WINKIM TRUCKING SERVICES                                20500
A0101406460000002330730VERGARA                                                 20500
A1901400320000004552038MARITES JAPOR ABANDO                                    20500
A0101401700041789761001PLANTAS, MARY ST                                        20500
A2001400290315636080001LIM, HENRISA                                            20500
A2001400290315681977001SERRANO, FELICIA                                        20500
A0101408370382241442001DR. MA. EIDLLEN BANZON                                  20500
A5501400120410633077001CLAVISILLAS, RON                                        20500
A1201400150421317778001LENIE RONQUILLO                                         20500
A0101403610531355089001MACASAET, LOPE MERCADO                                  20500
A2201400250561256285001OR JOSEFINA G. CHUA                                     20500
A0101407690652520766009SHOECAT INC                                             20500
A0101407560686289843001HIJOSA OR CELIA                                         20500
B0101404130000000001241PREMIER CREATIVE PACKAGING, INC.                         1610
B2401400180000000019736L' ARC EN CIEL CORPORATION                               1620
B0101413020000000038424BIOSPEED CORPORATION                                     1601
B0101401380000000106750CHARM AND CHARM COMPANY LTD. INC.                        1601
B1001400350000000244222MADONNA AND CHILD HOSPITAL                               1605
B0101406330000000432733PRECISION CRESTEC, INC.                                  1605
B0301400790000000435727OUR BRIGHT SEEDS, INC.                                   1601
B0101407270000000830460SAINT YVES FUNERAL SERVICES CO.                          1601
B0101410720000000968141CIGLY ADVERTISING INC.                                   1603
B0101411400000001280626POWER QUALITY ENGINEERING LIMITED-R                      1602
B0101412180000001293016JENNIEDEDIOS INC.                                        1603
B0101400150000001708470V MONEY INC.                                             1601
B0101409920000002260599BRIAN GO TAN                                             1602
B0101409210000002783384ELEVATE PHILIPPINES INC..                                1602
B0101402480000002906061*********                                                1602
B0101408110000003281434CYBERONE.PH, INC.                                        1602
B0101400150061023257001**********                                               1601
B0101400150061023257001ISLAND PHOTO CENTER, INC.                                1601
B0101400600071233702001FE ZAMORA                                                1601
B0101407270162019008001ORIENTAL & MOTOLITE MARKETING CORP.                      1610
B0101407270162046726001VALUE CARE HEALTH SYSTEMS, INC.                          1650
B0101407270162046726001VALUE CARE HEALTH SYSTEMS, INC.                          1650
B0101407140213016574001LONDON INDUSTRIAL PRODUCTS, INC.                         1603
B0101407140213040685001PETROGREEN CORPORATION                                   1602
B0101407140213530984001**********                                               1601
B0101406620273017284001ACCENT MICRO TECHNOLOGIES, INC.                          1605
B0101402480331044501001WHITEPORT, INC.                                          1620
B0101402480331313437002************                                             1601
B0201400890376057036001DAIRY MILK CORPORATION                                   1601
B0101406330472045599001BES SERV LOGISTICS CORP.                                 1603
B0101403580511005207001ECO TRADERS INCORPORATED                                 1610
B0101408530516032963001387 AUTO CENTER, INC.                                    1602
B0101404000551046316001PHILAB INDUSTRIES, INC.                                  1604
B0101404130601022494001CARE BEST INTERNATIONAL, INC.                            1604
B0101404130601035861001METRO MOTORBIKES CORPORATION                             1603
B0101410720653022858002FOODKING CUISINE & SERVICES INC                          1602
B0101406590662023341005PAMAHAY DEVELOPMENT CORPORATION                          1603
B0101410300663044402001******                                                   1604
B2801400100712710286001JJJ ONE-STOP INC.                                        1605
B0101405070861457027001SJCM PROPERTIES, INC.                                    1602
B2601400270000000020680MEGABUCKS CONSTRUCTION &  DEVELOPMENT                   11603
B0101406330000000432842GOH, KATHY OR GO, CARTER & YAO,SHERIDINE                11605
B0101407270000000830660EARTH-YOU-OWN REALTY AND DEVELOPMENT                    11602
B0101402770000001571659BARUELO, WARREN EPISCOPE AND BARUELO,                   11601
B2601400270000000020680CORP                                                    21600
B0101406330000000432842OR YAO, CARLOS                                          21600
B0101407270000000830660CORPORATION                                             21600
B0101402770000001571659JENNIFER IGNACIO                                        21600
B1301400920002901010002**********                                               2103
B0101404130601821100608**********                                               2005
B0101407560686821100608**********                                               2005
