B2001400290315821100608**********                                               2005
A0101402770391355762044JOCELYN A. JAVINEZ                                       0501
A6601400120000002978096HORCA, ROMAR BABIANO                                     0502
A6601400120314615888088FRANCISCO, EMMA OR REYNALDO                             10504
A6601400120314615888088OR CO, ESTELITA OR ELSIE                                20500
A6601400120000002249910YRUMA, ALBERT OR EMELITA                                 0510
A0101400860000001005478***************                                          0502
A0101400860011380653002**********                                               0505
B0101400860011475106001**********                                               1601
A0101400860011570367001**********                                               0503
A0101400860011661386001**********                                               0505
B0101400150061047452001PRIDEZ FOODS SERVICES, INC.                              1605
B0101405810072034021001ACCUFORM FABRICATION INC.                                1601
A0601400100000002365551STO DOMINGO, JEFFRIE ALCOBENDAS                         10502
A0601400100000002365551OR STO DOMINGO,                                         20500
B0601400100000002099330RDF FEED, LIVESTOCK & FOODS, INC.                        1610
A0601400100000009324130KWONG, CRISTINE JOY ANTONIO                              0503
A0601400520000002085883MA, JENNIFER TECSON DBU                                 10502
A0601400520000002085883D'AFFAIR FURNITURE                                      20500
A0101414090000002282668TUBONGBANUA, FE FRANCIA                                  0501
A0101410850000011225942SACRAMENTO, RENATO HERNALE                               0501
A0101410850000009034782GRAFIA, JULIUS BELAS                                     0502
A0101410850000002356761**********                                               0503
A0101410850000002356830OPANO, ANNE  DBU RICHWIN                                10501
A0101410850000002356830TRADING ENTERPRISES                                     20500
A0101410850109064314001ANARCON, ALFREDO DBU MCA                                10502
A0101410850109064314001BUILDERS                                                20500
A0101410560000005836291PAULO G. QUIZA                                           0503
A0101406040000001391960********                                                 0505
B7201400170000003774163SEPADA, MACARIO NAVARRO OR                              11605
B7201400170000003774163SEPADA, JUVY PAC                                        21600
A5001400170000003324063ZAMORA, CYNTHIA ADRIATICO                                0502
A0101412920000002359093CALING, MERIE KRIS CABRERA                               0501
B0101400440000003766945HYPERVOLT CONTRACTOR CORPORATION                         1602
A0101400440161298552121MILMA M. QUIAMBAO                                        0501
A0101400440161506992001ARCHIE M. SEMBLANTE                                      0501
A0101400440161520766098JUDITH D. BRISO                                          0501
A0101407270000003254260CHERYL C. SOLANGON                                       0501
B0101407270162044602002FRONTLAKE, INC.                                          1603
B0101407270162050140003NORTHPOINT, INC.                                         1603
B0101407270000000830551POULTRYMAX OMNIS, INC.                                   1603
B0101407270162063089001REALITY ENTERTAINMENT, INC.                              1610
B0101407270162063091001MOTHERSHIP, INC.                                         1610
A0101401090171200878001LESTER A. DENIEGA                                        0502
A0101401090171332080001BASILIA A. LANUZA                                        0501
B0301400530193551180168LIM, MARK EDUARD OR LIM, LIZA OR LIM,                   11605
B0301400530193551180168RALPH LOUIE                                             21600
B0301400530193639123188EDUARD DANIEL G. VALDEZ                                  1603
B0301400660194044353088WEST JBT LAND AND REALTY CORPORATION                     1605
A0101413600000011225806MA. CATHERINE CROISSANT LUMANAS                          0501
B3101400160000004362889MOTORCENTRAL FINANCE CORPORATION                         1615
A3101400450000005355471CIGARAL, PEDRITO EXCONDE                                 0502
A3101400870000003515222DIU, ALVIN ROXAS                                         0502
A3001400130000001271670EMPISTO, GENAH JUMAWAN                                   0501
A1001400190000000124796DAGUDAG, ALFONSO PATRON                                  0501
A1001400190231446795001SAARENAS, LOIDA TAN OR SAARENAS                         10502
A1001400190231446795001JR., JULIAN                                             20500
A1001400190231478374086LORNA A. OMANDAM                                         0501
A1001400190231520766110MAYOR, CARMELITA ANGCAY                                  0501
A1001400190000002170769JUGAN, NOUE MALOLOT                                      0501
A1001400480000005558381GO, VENCITO TORRES                                       0502
A1301400470252507213001LEA P. WONG                                              0505
A1901400290000004366103WONG, GWENDOLYN KU                                       0503
A1901400290261244433001SHIRLEY M NARIO OR                                      10501
A1901400290261244433001MARIA SHERINA M NARIO                                   20500
A1901400290261244456001LEO YAP ONG OR                                          10505
A1901400290261244456001MEI MEI YULO ONG                                        20500
A1901400290261298552066DOLORES SARMIENTO MANGUIAT                               0501
A1901400290261551257003ALEJANDRO AFRICA MARALIT                                 0502
A1901400290261585775001LITA CUETO MENDOZA OR DORIS                             10502
A1901400290261585775001MARIE MENDOZA MEDINA                                    20500
A0101406620000003661421ROBLEZA, RICHARD DALE                                    0501
A0101406620000000193840TAN, APRIL LYNN LEE                                      0501
A0101406620000003661578TAN, APRIL LYNN LEE                                      0501
A0101408660274371567001DEL CARMEN, MICHAEL                                      0503
A0501400200000005751635PERDIDO JR., LEONARDO DIWATA OR                         10501
A0501400200000005751635FLORES, JOAN MAY                                        20500
A2601400270000000561551RODERICK E. MADRIDEO OR                                 10501
A2601400270000000561551JUANITA S. MADRIDEO                                     20500
A0801400160000006893210APISTAR, TERESITA JAVELLANA                              0502
A0801400160311478374079MANUEL F. RAGANAS JR.                                    0503
A1101400120313478374096MAGLALANG, MARISA YADAWON                                0501
A1101400120313478374123EBUENGA, JULIE CASIMPOY                                  0501
A6601400120314041602001LEXTAN GENERAL MERCHANDISE                               0502
A3401400280000003493798FORMILLEZA, JR BERNAL                                    0501
A3401400280000001723473AMELIA A. ZAMORA                                         0501
A3401400280318736058001NINFA U. EZPELETA OR CORRIE E.                          10501
A3401400280318736058001ADONAY                                                  20500
A0101402350321485233001TUI, CHARLES ANGELO                                      0503
A0101409050000005364314PATRICIA M CAMACHO                                       0501
A0101409050000007511908TADENA, MIRASOL VENERABLE                                0502
B0201400760374027555001HOYUGOH STEEL CORPORATION                                1605
B0201400760374027591002SUBIC ENERZONE CORPORATION                               1602
B0201400760374032173002MARIANO & SONS MARKETING, INC.                           1605
B0201400760374261158001*****                                                    1608
B0201400760374261294001*****                                                    1603
A0201400920000002804480MIRANDA, SAMMY                                           0501
A0201400890000002270111DONGHIL, ERNILO OR CATURAN,                             10501
A0201400890000002270111GAUDENCIO                                               20500
A0201400890376458050001LUIS LIM NGO OR JENNIFER NGO                            10502
A0201400890376458050001CABIGAS OR VILLA                                        20500
A0101402930000003710512GOMEZ, JONI ROJAS                                        0503
A0101402930920130000097DESCALSO, MARITES VIDAL                                  0501
A0101402930381418649001AYON, PETER PLACA                                        0503
A0101408370000002264159FRANCISCO, MICHAEL CARPINA  OR                          10504
A0101408370000002264159TAGAYUNA, MARIA                                         20500
A0101408370382485515003MARGUERITHA LOUISE LUCENA OR                            10503
A0101408370382485515003VICTOR MICHAEL LUCENA                                   20500
A0101415350000005356981CHI, MARIA JESUSA CORDES                                 0502
A0101402770391479320001ANG, WASHINGTON CHUA                                     0501
B0101408400000010906340PASAY ULTRASOUND AND PERINATAL SVC.                      1602
A0101408400394028638001A. SANCHEZ CARGO SERVICES                                0503
A0101408400394041759001BUILTLINE INTERIOR FINISHES AND                         10502
A0101408400394041759001CONSTRUCTION                                            20500
A0101408400000003120770CAYTON, MARIANNE OCHOA                                   0501
A0101408950396622079001DR.CHRISTOPHER CHRISTIAN P. ARO                          0501
A0101409180000003780410BAUTISTA JR., EDGAR ROLDON                               0501
A0101409180000004409814PALLANAN, CRISTIAN MANZON                                0501
A0301400820000001027850AYAP, RIO S.                                             0501
A5501400120000002019158SUPERIO, MERLYN G. DBU DIAMOND                          10505
A5501400120000002019158MEMORIAL CARE SA                                        20500
B2401400180411035163088GOLDEN GENESIS MARINE RESOURCES CORP.                    1602
B2401400180411036768001MJ CARGO EXPRESS LOGISTICS, INC.                         1615
A2401400180000007031950LOPEZ, ALVIN DBU ALTEK COMPUTER                         10501
A2401400180000007031950SOLUTIONS AND LOPEZ, A.                                 20500
A2401400180411284689001DEMONTANO, RODOLFO BARROSO                               0501
A1201400150421351199003DALANGIN, MIRIAM AQUINO                                  0502
B0901400220000000012175FLORIVEL M. DE JESUS ACCOUNTING OFFICE                   1602
A0901400220432478374002EVELYN ALGA DEMECILLO                                    0502
A0101403320471067829001RED COUCH KTV BAR                                        0501
A0101403320471205840001*****                                                    0504
A0101403320471515619001RONALDO B MARTIN OR                                     10502
A0101403320471515619001MA ISABEL P MARTIN                                      20500
A0101403320471633972001CRISTINA LOYOLA YSMAEL                                   0501
A0101406330000000162456DAVID, EMMANUEL KAVIN OR                                10501
A0101406330000000162456ORTIGUERO, MARIA                                        20500
B0101406330472021511001ASSOCIATED WIRE CORP. OF THE PHILS.                      1610
A0101406330000001235329BALUARTE TRUCKING                                        0502
A0101410140000001939984DELANTAR, DARMEL URAGA                                   0501
A0101410140000001939739MEMBERS OF NATASHA (SHOECAT INC                          0501
A0101412760000007822177MEMBERS OF NATASHA SHOECAT  INC                          0504
A0501400170000006300629GAZMEN, ARNEL GERARD RAYOS                               0502
A0501400170000000018237DISTOR, ARMI CEREZO                                      0501
A1401400110000005181146DIASANTA, IVAN VILLAMAYOR                                0503
A1401400110000010702499MUSA, RUNALYN SAMPAYAN                                   0501
A0701400260000001069676MURODA II, MARK ANTHONY                                 10501
A0701400260000001069676FERNANDEZ                                               20500
B0101403580511015363081MEC - SUNTRUST PARKVIEW                                  1603
B0101403580000000214702MEC - CAMBRIDGE                                          1605
B0101403580511034776001CRISAIR INDUSTRIAL INC                                   1601
A0101403580511150737004LUIS JUAN L. VIRATA JT                                   0510
A0101403580511693764001MESIAS, MARIA CARMINA SANTIAGO                           0503
A0101405940000000002739********                                                 0501
A0101408530516571877196SUICO, JOEY YUSON                                        0501
A0101408530000001886075RAFOLS, ARACELI MAE SUMADANG                             0501
A0101408530516615903001TRACY ELINOR AGUIRRE                                     0501
A0101411790000011225931DELA CUESTA, JOSEF ROMEO                                 0502
A0101411790518055764273DE LOS REYES, ADONIS ALCANTARA                           0501
A0101411790000006543440CUETO, MARIA TERESA CASTILLO                             0503
A0101403450000006055552*************                                            0502
B0101403450521012056001**********                                               1602
B0101403450521012105001**********                                               1601
A0101403450521240531001**********                                               0501
A0101403610000011227186ADARLO, NICCA ARCAYOS                                    0501
A2201400250561478374062JENNIFER M. RAMOS                                       10501
A2201400250561478374062MEMBERS OF NATASHA                                      20500
B0101410690000000305291MENOLD MARKETING CORP.                                   1603
A0101407720000007936192CARPIO, BERNARDO SANTOS                                  0502
A0101407720602326333001SATURNINO PEREZ JAVIER                                   0502
A0101407720602343284001MARY ANGELINE RECTO OR                                  10501
A0101407720602343284001RODRIGO RECTO JR                                        20500
A0101407720602397975001MARIA THERESA R. DE LEON M.D.                            0503
A0101407720602596264001RAMOS, GLENN MICHAEL MEDINA                             10503
A0101407720602596264001OR MIZPAH M. RAMOS                                      20500
A0101409920000000998569MEMBERS OF NATASHA (SHOECAT INC                         10502
A0101409920000000998569PEDROSA, JULIE                                          20500
A0101407690652020765001STARIAN MARKETING                                        0505
A0101407690652096491001JAMES A. CABANERO OR                                    10502
A0101407690652096491001NIDA P. CABANERO                                        20500
A0101411530000002260322KRISTINE ANTONIETTE T ABDON OR                          10501
A0101411530000002260322PHILIP L ABDON                                          20500
A0101414120000001142852TERESITA M. PUYAT OR MARY ANN                           10503
A0101414120000001142852MAGNO                                                   20500
A0101406590662478374008CARMILITA C. LEYSA                                       0501
B1301400210682042117001JELLI'S GAS STATION                                      1602
B1301400210000000023510JELLI'S GAS STATION                                      1602
A0101408240000000347299BENDITA, MICHELLE DELOS SANTOS                          10501
A0101408240000000347299AND AQUINO, MARILEN                                     20500
A0101408240000009452871SUAREZ JR., JOSE NARCISO OR                             10501
A0101408240000009452871SUAREZ, JANINA ANNA GO.                                 20500
A0101408240711381977001VALENCIA, DEORI DEANO                                    0501
A0101408240711384215003LOURDES GRACE MAPALAD                                    0501
A0101408240711557981001PETALVO, CARINA MARTIRES                                 0501
A2801400100000005475301MANUEL, DENNIS MORALES OR                               10501
A2801400100000005475301CUNANAN, MILDRED TONGOL                                 20500
A2801400100712257546001CUSTODIO, GODWIN                                         0501
A2801400100000002253458DATU, FERDINAND BULAONG                                  0502
B2801400230000005253641COST OF MONEY LENDING CORPORATION                        1602
A4101400260812085437001CORONEL, RODALYN PEDRIDO                                 0501
A4101400260812478374052DAISY COSTILLAS                                          0501
A4101400390000000745302TEROME P. NABLO                                          0502
A4101400420814246792001GENEDINA A. FERRER, M.D. OR                             10503
A4101400420814246792001LEO CRESENTE M.                                         20500
A4101400420814520766061ESTILLERO, SUSANA O.                                     0501
A4101400420814520766138SAN PEDRO, ANA LIZA                                      0501
A4101400550000004846891PAROLE, GLORIA RAYO                                      0502
A4101400550815478374010CRISTINO, DANA JAMAICA                                   0501
A0101412340000002266895LIZA G. OPULENCIA OR                                    10501
A0101412340000002266895NICANOR L. OPULENCIA                                    20500
A0101412340000007404373ENJELICA D. TAN                                          0501
A0101404840851046725013MARY JANE A. DE GUIA                                     0501
A0101404840000001312543CERBITO, SALVACION                                       0501
A0101404840851217637039RAMON R. JOSON                                           0501
A0101404840851542458001FALCO, MILAGROS JETANO                                   0501
A0601400230000006243114CASTILLO, IVY CLAIRE PARUNGAO                            0501
