B0101401090171821100608**********                                               2004
A0101409920000000857990QUIZAN, ROMANA C. OR                                    10502
A0101409920000000857990GORRE, RODELYN Q                                        20500
A0101400860000002333568**********                                               0501
A0101401250021180387001********                                                 0501
A0101400150000006239392ROXAS, JEMINA RHEA LIM                                   0501
B0101400150061040558001CORDILLERA EXPLORATION CO., INC                          1601
B0101400150061047585001888 ETHNIC HOME FURNISHING CORP.                         1608
A0101400150061236944048JENNIFER TRINITY S. MAYNIGO                              0501
B0101400150061495790001BUILDING BRIDGES CHRISTIAN MINISTRIES                   11602
B0101400150061495790001FOUNDATION INC.                                         21600
A0101400150061564610050DELA ROSA, ROMEO G.                                      0502
B0101400600071232728001Ong, Ludivina Espiritu or Ong, Emelita                  11601
B0101400600071232728001Espiritu                                                21600
A0101405810000010278856**********                                               0502
B0101405810072038705001NBC GENERAL MERCHANDISE                                  1601
A0601400360000012816074MARTINEZ, JOHN DAVID                                     0501
A0101400730000014276769DANGANAN, GARI PULUMBARIT                                0501
A0101400730000001822322JAQUELINE F. ERLANDEZ                                    0501
B0101400730000009389940AMARONN FOOD AND SERVICES INCORPORATED                   1602
B0101400730000010487540EDKAM FOOD VENTURES INC                                  1602
A0101400730000001822602CARREDO, RAMON MANLUNAS                                  0504
A0101401960000001844624****************                                         0501
B5001400170000000169711LIM, EDDIE ONG OR LIM, GEORGE ONG                        1602
A0101400440000006679663AIDA S. RIVERA                                           0502
A0101401090171201680002RAFAEL P. BANTAYAN JR.                                   0502
A0101401090171787698001INGUSAN, CRISTINA TOLENTINO OR                          10502
A0101401090171787698001INGUSAN, ARFINE                                         20500
B0301400530193042539001NELSHENE MARKETING                                       1620
A0301400530193268995001**********                                               0505
A0301400530193356168188MILA A. BRIONES                                          0510
A0301400950000008000717ANG, JAN KRISTOFFER TE                                   0502
A0101401380000005219916HERNANDEZ, JOHN EDORA                                    0501
B0101401380201042553001MUSTANG SECURITY AGENCY, INC.                            1605
A0101413020000000880531***************                                          0505
B0101410720000011310282SENO, HAROLD AYING DBU HARLEYMIN TRADING                 1605
A0101412500000017555103PADUHILAO, PHILIP GARY TEOPE                             0501
A0101413600000005794596CORAZON G. SINGIAN OR                                   10501
A0101413600000005794596FRANCISCO B. SINGIAN                                    20500
A3101400740000016957598PACOT, MARILOU CASTARITAS                                0502
A3001400130000005708545FAYTONE, MARIA FATIMA MAGNO                              0502
A3001400130000014114299ALQUIZAR, MYLENE B DBU MGJ PAIN                         10504
A3001400130000014114299T CENTER                                                20500
B3001400130000013667495CARAGA MULTILINES DISTRIBUTION INC.                      1610
A3001400130230478374025GUERZON, MERLINDA FALLER                                 0501
A3001400130000008264864CACAFRANCA, KARL RUSSEL INOCENC                         10501
A3001400130000008264864IO                                                      20500
B1001400190231025146001PHIL. PROGRESSIVE MASON CLUB.,                           1601
A1001400350000000245281BAGARES, AGUSTINA BALALA                                 0502
B0101401670271007305001METROPOLY PROPERTIES CORPORATION                         1605
B0101401670271045353001DETECTNET SECURITY CREDIT COOPERATIVE                    1604
B0101406460272035154001STUDIO84 INC.                                            1602
A0101406460272358045001VALERIO, RAMON TORRES                                   10502
A0101406460272358045001OR JANE VALERIO                                         20500
A0101408660000016416756MARK BACOLOD                                             0504
B0101408660000013601906CAL PERSONNEL PROVIDERS                                  1603
B0101410980000000171975********                                                 1602
A0101411110000002320081LAO, KIRK PATRICK NOBLESA                                0501
A0101411820000004981871HERTHIEL E. TORRES                                       0501
A0101412470000002135991TIU, EDGAR ACORIN OR TIU,                               10504
A0101412470000002135991MARVIN ERICSON Y                                        20500
A0101400570281366194002DR. DINA M. PERALTA OR                                  10502
A0101400570281366194002DR. FRANCISCO PE                                        20500
A0801400160311456671001DAMASCO, ROMMEL APISTAR                                  0501
A01014056503220410060013805 PHARMACY                                            0502
B0101405650000000772685WISEMEDIA GROUP, INC.                                    1601
B0101402510341008564001SAN BEDA COLLEGE ALUMNI ASSOCIATION                      1602
A0101402060351212497001LICHAUCO, ERNESTO E.                                     0502
A0101402060351217440015CAROLINA PAULA R. CARLOS                                 0503
A0101409050000007511971DUGURAN, JAN CHRISTER VARGAS                             0501
B0101409050000001662886TAN, HANS GARCIA DBU ANABOLIC MARKE                      1601
A0201400760000017093095SORIANO, ROSELYN YU                                      0501
B0201400760374249471001COMMONWEALTH INSURANCE COMPANY                           1604
A0201400890000017661140POGIO, ANALYN RUNA                                       0501
B0201401020000003031192BUDGET BUILDERS, INC.                                    1602
B0101402930381008829002AXEIA DEVELOPMENT CORP.                                  1615
B0101402930381008843001BASIC HOUSING SOLUTIONS, INC.                            1605
B0101402930381008885001ASIATIC LAND INC.                                        1601
B0101402930381045839001EQUILAND PROPERTY MANAGEMENT (EPMC)                      1602
A0101402930381505507001TRINOS, ROCHELLE VERANO OR                              10503
A0101402930381505507001AVILES JR., ISAG                                        20500
A0101408370000011986539LAZARO, KAREN DOMINGO                                    0502
A0101408790000014749978G26 TALENTS MANAGEMENT                                   0502
A0101408790383770830001DE ROSSI, ARMANDO                                        0501
B0101402770391009425001JELSON'S ENTERPRISE CORP.                                1603
A0101408400000006253243LIM, JIAN JEBIE REYES                                    0502
B0101408400394027524001SAINT JO FLORAL DESIGNS & DECORS                         1602
A0101408400000002921020LRD ARCHITECTURE AND INTERIOR                           10501
A0101408400000002921020DESIGN                                                  20500
B0101408950396026318001GLOBAL CITY AUTO SALES, INC.                             1605
A0101408950396726811001GERARD M. MORALES OR REGINA                             10502
A0101408950396726811001ISABEL S. MORALES                                       20500
A0101412210000011968253YAP JR., ENRIQUE YNSON                                   0502
A0101412210000017651657BALQUIN, MARK JOHN MARTINEZ                              0502
A0301400820409094648001LADAGA, SHERRYL E. OR LADAGA,                           10501
A0301400820409094648001JOSEPH FRANKLYN                                         20500
A5501400120000013825533BELONIO, IMELDA LEYSA                                    0501
A5501400120000013825464TRINIDAD, RHODELIN LATORILLA DB                          0503
A5501400120000015561016DATO, PEDRO DELA RAMA DBU P.M.                           0501
A5501400120410636179148CHIU, VALENTIN & JULIA EILEEN                           10501
A5501400120410636179148& CHRISTIAN & CH                                        20500
A2401400180000012748506CATOLICO, GEMMA COMBATIR                                 0501
A2401400180000017622009LLORENTE, RITA MAMMAH                                    0501
A2401400180411023998002ENE MARKETING                                            0502
B2401400180411044274001******************                                       1602
A2401400180000007031687BODHI YOGA CENTER                                        0502
A5101400100000015856850NEIS, BABY LLYN MENGUITO DBU AL                          0501
A0101403030000011253842**********                                               0501
A0101412890000001056393GERONIMO, M DBU A.M.-M.A'S                              10502
A0101412890000001056393BAKERY                                                  20500
A0101403320000017356782FONTANILLA, MICHELLE M.                                  0501
B0101403320471009043001ABCOR INDUSTRIAL CORPORATION                             1605
A0101410140000014574593PASCUAL, LEANDRO CALBAY DBU MAX                          0502
A0501400170481385350001MARILYN FERNANDEZ OR CAROLINE                           10501
A0501400170481385350001FERNANDEZ                                               20500
A0501400170481556172001VALENZUELA, ROBERTO TOLENTINO                            0501
A1401400110000017652183ABUY, BENILDA FATIMA REYES                               0501
A1601400170000001360792CHEN, ZE DENG                                            0502
A0101407430503041466001AFCSI-ASIA FREIGHT FORWARDERS                            0502
A0101403580511196754001CARMELITA E. LA O' JT                                    0503
A0101405940000012443708PUNAY, MAXIMO JAY-R TORRES                               0502
B0101405940512005319001MANTRADE DEVELOPMENT CORP.                               1604
A0101408530000017209859HUERTO, GINO ANGELO OTAZU                                0502
B0101403450521011878001**********                                               1602
B0101403610000017330648MMG CORPORATION                                          1603
B0101403610000016439048MMG LOGISTICS CORP.                                      1603
B0101403610000016534402ASIA WORLD TRANSPORT PHILS. CO., INC.                    1602
B0101403610000017196751MMG FORWARDING CORP.                                     1602
A2201400250000006275670MANNONG, NATIVIDAD MALIAMAN                              0501
A2201400250000013859813DIAZ JR., NICOLAS ZAMORA DBU                            10501
A2201400250000013859813NZD CONSTRUCTION                                        20500
A2201400250000015111230INTAL, HERALDO DBU HERSHEE                              10502
A2201400250000015111230MARKETING OR INTAL,SHEENA                               20500
B0101404130000009342376PROVENTA CONSULTING LIMITED                              1602
A0101407720000001393266ALCANTARA, IVY GAY SENARILLOS                            0501
A0101407720000006028439UY, EDWARD CO                                            0502
A0101407720602390297001PREYSLER, MARIVIC G.                                     0502
A0101412180000008320261NAVARRO III, CIPRIANO ADRIAN MA                          0501
B0101412180000009200231MOGUL FOOD VENTURE MFV CORPORATION                       1602
B0101404260611005274001ETR DEVELOPMENT CORPORATION                              1602
A0101404260611150837001EMILIANO OR MARIETTA REYES                               0502
A0101407690000017652763ROMBANO, BRYAN BALAORO OR                               10501
A0101407690000017652763ROMBANO, CARLA                                          20500
A0101413570000017388800TABILIN, LOURDES MARIANO                                 0501
A0101413570000000206306ABUDA, LAURENCIA DBU CRESTEVEN                           0502
A0101414120000008642655PLAZA, MICHELLE PADAYAO                                  0501
A0101406590000003007030BATOCABE, MARY GRACE TABLIZO                             0501
A0101406590000000131579JEREZ, JOANNE ROXANE DBU                                10502
A0101406590000000131579ROXIEMAR CONSTRUCTION                                   20500
A0101410300663790131001VALDEZ, JENNIFER ANN Z OR VALDE                         10502
A0101410300663790131001Z, PABLO BASILIO                                        20500
A1301400210000011696327REYES, GIAN LUIGI CABILI                                 0503
A1301400340683245916001GARCIA, CRISTINA GALLEGO                                 0502
A1301400340683385493002ORBE, SUSAN JUSON                                        0505
A1301400340683794950001BATONGBACAL, JAIME JOSE                                  0501
A1301400500684594780002CASTRO, RAYMUNDO OR                                     10502
A1301400500684594780002CASTRO, ROSEMARIE                                       20500
A1701400230000012227633RITON, FREDDIE DAUZ DBU ACCV                            10502
A1701400230000012227633BUILDERS                                                20500
A4101400260000012873797LOPEZ, JOSEPHINE                                         0501
B4101400390813019416002STI COLLEGE-ROSARIO, CAVITE, INC.                        1602
A4101400420000012882867NELLIE B. CARAIG                                         0502
A0101404840851520766189DIAGO, MARY JANE                                         0502
A0101404840851542980001MASANGCAY, NORA VERCELES                                 0501
A0101406750000010508993CENON, YVONNE BACOLOD                                    0501
A0101405070000003439672ALFREDO Y. GOMEZ OR PAUL A.                             10502
A0101405070000003439672GOMEZ                                                   20500
A0101405070000014045302MARIA FAINA CHAN REYES                                   0502
A0101413860000011796191TAGUD, STEPHEN REY REYES                                 0503
A0601400230000003015823ALURA, JIMMY SUENO                                      10502
A0601400230000003015823OR ALURA, MERLE                                         20500
B0601400230000002649927MJ EXPRESS CREDIT INC.                                   1605
A0601400230000002650171SANTOS, K DBU ADRICH ENTERPRISE                         10502
A0601400230000002650171OR SANTOS, CARMI                                        20500
