A0101400440161039572095WISHELLE C. RECLA                                        0501
A0101400440161478374010*****                                                    0503
A0101400440161525001096ZENAIDA F. ISLETA                                        0502
A0101408370382211448001DR. JOSE PAOLO A. PRADO                                  0501
A0101408370382403308001DR. MARIA CECILIA I. JOCSON                              0501
B1201400150421366008001SUN, FELIPE TAN                  JT                      1603
A4101400420000002084631MANICIO, MARIA ARMI ORTEGA                               0501
A4101400420814520766034LEONIDA M. OBELIDOR                                      0501
A4101400420814520766119OMNOS, NOVA DESCARTIN                                    0502
B0101416870000401010112**********                                               2103
A0101400860011385076002**********                                               0502
B0101400600071637415001CHAN, DOMINGO MATONDO                                    1601
A0601400520000002085872RIEMAN MANPOWER SERVICES                                 0501
A0101410560000001291021ELEQUIN, IAN RUVEN ARELLANO                              0501
A0101400730000001822679NEBRES, RONALD MORAL OR                                 10510
A0101400730000001822679JARDIOLIN, MAJAR                                        20500
A0101412630000000180436ORDONEZ, NEPTHALIE R. OR                                10501
A0101412630000000180436LEE, JEFFREY C.                                         20500
A0101401830000004835161VELORIA, MARK JOHN REFORMA                               0502
A0101407270162333006013CONCEPCION DELIGERO                                      0501
A0101407270162353067001JULIUS CAESAR C. BABAO                                   0503
A0101407270162390807002THOMAS P. MANOTOC JR. OR                                10510
A0101407270162390807002MA. ROSARIO C. M                                        20500
A0101407270162390807003THOMAS P. MANOTOC JR OR                                 10505
A0101407270162390807003MA. ROSARIO C. M                                        20500
A0101407270162390807004THOMAS P. MANOTOC JR OR                                 10505
A0101407270162390807004MA. ROSARIO C. M                                        20500
A0101401090171353988001CITADEL C. DE CASTRO                                     0502
A0101401090171358473001VAL G. BRILLO                                            0502
A0101401090171399334003CATHERINE R. CORDOVA                                     0501
A0301400530193047804088**********                                               0502
A0301400530193047804168JULIE'S BAKESHOP                                         0502
A0301400530000000025345OROSET PHARMA, INC.                                      0502
A0301400530193760685002AGUILAR, AGUINALDO V. OR                                10501
A0301400530193760685002AGUILAR, DINA C.                                        20500
B0101410720653022858002FOODKING CUISINE & SERVICES INC                          1602
B0101410720653028089001INOCENTES REALTY & SALES CORPORATION                     1602
B0101410720653042569001TUGSON CONSTRUCTION & DEV. CORP.                         1602
A0101410720653380605002DR. ANNE MARIE REALISTA PE                              10504
A0101410720653380605002AGUIRRE-ENECO                                           20500
B0101412500214055614001A.D.P.P. TRUCKING SERVICES CORP.                         1601
A3101400870000000074713VEGA, ROGER FLORES                                       0501
B1001400190000000124901AMPIT, MERILENE OR NILO OR RHEMA INDUSTR                11603
B1001400190000000124901IAL SALES                                               21600
B1001400350233041261018CENTRO SUPERSALES INC.                                   1610
A1001400350233478374020ELMA O. GAWAT                                            0502
A1001400480000002300372GALUT, MYRNA MANGALLAB                                   0502
B1901400290261027293001LIPA MEDICS INC.                                         1610
B1901400290261046556001MEAT ADVANTAGE EXCHANGE INC.                             1615
A1901400290261298552022ALVIN DEL ROSARIO MAGNAYE                                0502
A1901400290261395813001PAZ LAYGO JOSE                                           0501
A1901400290261659949001JONATHAN PLANAS DE ROXAS                                 0504
B0101406620000000962523TUNE BRADCO MART INC                                     1602
A0101406620273280285001PELAGIO / ROSARIO / REBECCA /                           10501
A0101406620273280285001RAFAEL / ROWENA                                         20500
A0101411820000004981717MARTIN INAKI M. LAZATIN OR                              10501
A0101411820000004981717PRINCESITA M. LAZATIN                                   20500
A0101412470000000853834**********                                               0502
A0101400570000001681950WILFRED U. TIU                                           0501
A0101400570000001681858GO, ROBERTO ONG                                          0503
A0801400160311389143001CHAN, MILAGROS OR                                       10503
A0801400160311389143001CHAN, NATHANIEL                                         20500
A0801400160311645060001**************                                           0502
A6601400120000001370536CORNILLEZ, LIDANY FUENTEBLANCA                           0502
B6601400120000001370850NITA ENTERPRISES                                         1620
A3401400280000003309219ROMULO D. CAPUNONG OR RUELYN C.                         10502
A3401400280000003309219EDUQUE                                                  20500
B0101402350321046288001TMI FOOD PROCESSING & DEV. INC.                          1601
A0101402510000000200062BERNALDEZ, LIGAYA MACALINTAL                             0501
A0101402510341208875001DECENA, MELCHOR PAR                                      0501
A0101402510341323210001ALBERTO V. ALAMAN JR.                                    0510
A0101402060000000358634ESPINA, WILBERT BALUYOT                                  0502
A0101402060351211631001VILLONGCO, DOLORES G. OR                                10501
A0101402060351211631001AGIAS, CYNTHIA M                                        20500
A0201400760374475574001KOIKE, MASAO                                             0503
B0201400920375035929001UPLAND STOCK FEEDS, INC.                                 1602
B0201400920375035929002UPLAND STOCK FEEDS, INC.                                 1601
A0201400920375635534001CANETE, JANET YOSORES                                    0502
A0101408370382410095001DR. EDNA C. BANTA                                        0505
A0101408370382453740001DR. RAYNALD EDLIN P. TORRES                              0504
A0101408370382592860001ANGELINE S. TINGA                                        0502
A0101408790000005293621LOTUS POSTRADO                                           0501
A0101408790000005293632LAUREN ANN PASCUA                                        0501
A0101408790000005293687MARIA CARMELA ROSARIO MANIEGO                            0501
A0101408790000005293756CRISTY LAINE P. GAVINO                                   0501
A0101408790000005293790MARC DAINIEL CRUZ                                        0501
A0101408790000005293990ANDREA TERAN                                             0501
A0101408400394425846001LORENZO, ANGELINA  OR                                   10501
A0101408400394425846001LORENZO, JESSE N                                        20500
A0101408400394497079001MANUEL, HONORIO SACATROPEZ                               0501
A0101408950396574308001DR. VERNILO E. LIBAGO                                    0504
A2401400180411514423001DEALA, BERNARDITA GATCHALIAN                             0502
B0101403320471008859001NEW LITE LUMBER & CONSTRUCTION                          11602
B0101403320471008859001SUPPLY                                                  21600
B0101403320000001647172SDS MEDICAL CENTER INC                                   1602
A0101403320471638012002CRUZ JR., NARCISO AARON BENAMER                          0503
A0101410140000002307791VILLARANTE, JERRY GRACIA                                 0501
A0101410140475478374003ERLINDA P. MABIN (MEMEBERS OF N                         10501
A0101410140475478374003ATASHA (SHOECAT INC.)                                   20500
B0501400170481038907001JODERON AUTO SUPPLY                                      1605
A1601400170000000497354YOLANDA Y. CHAN                                          0501
A1601400170000000421047JUVY G. VILLANUEVA DBU                                  10501
A1601400170000000421047THE BICOL GREENLEAF GRILL                               20500
B0701400260000000041083MULTI-WARE ECON-SALES CORPORATION                        1605
A0101406880513197649001HARPER, ANNA MARIA LAMMOGLIA                             0501
A0101406880513565496002DIZON, JUDITH P                                          0501
B0101403450521028565001**********                                               1602
A0101403450521679548001**********                                               0502
B0101403610531047549001GAP GRAPHIX AND PRINT CORP.                              1601
B0101403610531659842002DELAMO LENDING INVESTOR CORPORATION                      1603
A0101404000000003705833TITUS J AGUILAR                                          0501
B0101404000551005103001LA HUERTA REALTY & DEVELOPMENT                          11601
B0101404000551005103001CORP.                                                   21600
B0101404130000004437252KING, WYDEN ROSARIO                                      1602
A0101407720000000510869ESTEBAN, JOCELYN CANDA                                   0501
B0101407720000000885714MMC PEDIA ASSOCIATION, INC.                              1601
A0101407720602166527001ALIPIO ABAD JR. OR                                      10505
A0101407720602166527001ADORACION ABAD                                          20500
A0101407720602396681001DR. HENRY U. LU OR                                      10504
A0101407720602396681001JOSEPHINE Y. LU                                         20500
A0101407720602399815001ALEJANDRO, RUTH MARGARET                                10501
A0101407720602399815001FRANCISCO                                               20500
A0101407720602415232033ROSEMARIE C. ONG                                         0501
B0101407720602428613001DERMA 360 CORP.                                          1601
A0101404260611150840001WILLY CHING OR ISIDORA CHING/                           10505
A0101404260611150840001GOLDSUN LUMBER                                          20500
A0101404260611478374121FLORDELIZA B. HUVALLA                                    0501
A0101413990000000631872MONREAL, ESTELITA GUINTO                                 0501
B1301400210682043735001BULACAN SPORTS COUNCIL FEDERATION I                      1604
B1301400210000000023543SAN PABLO LIAM FOODS CORPORATION                         1603
A1301400210682371374001PRISCILA G GARCIA                                        0501
A1301400500684762106001VICEO III, JAIME S.                                      0501
A1701400230000000097916GARVIDA, DENTON DBU DTN GRAVEL,                         10503
A1701400230000000097916SAND CONSTRUCTION SUPPLY                                20500
A0101408240711383150001AURELIO III OR AURELIO JR.                              10501
A0101408240711383150001OR AARON LITONJUA                                       20500
A0101408240711398939001FERNANDEZ, CHARLES HESED P. JT                           0502
A0101408240711399428001JOSELITO OR ROSEMARIE RAFAEL                             0501
A2801400100712487899001NOCUM, LEANDRO CASTELO                                   0505
A4101400550000003267105MCMAR & MARY ELECTRICAL                                 10501
A4101400550000003267105& CONSTRUCTION SUPPLY                                   20500
A0101404840851046725015RODA GRACE DUNGAO                                        0502
A0101404840000001312554MARIA FE V. MALIG-ON                                     0501
A0101406750000003393140FUENTEBELLA, JOCELYN PANGILINAN                          0501
A0601400230000000990030TALAVERA, FRANCIS GADDI                                 10501
A0601400230000000990030OR TOLENTINO, FELICIDAD                                 20500
B0101416900410392000011**********                                               2105
A0101406750852478374098JOCELYN ARBOSO                                           0501
A0101406750852478374117IDA MACARO                                               0501
A0101406750000000480660VARGAS, RAYMOND JOSEPH B. OR                            10502
A0101406750000000480660VARGAS, ELENNETT                                        20500