B0401400270242821100608**********                                               2010
A0101403610000008139606LAM, SUK TUEN LEE OR                                    10501
A0101403610000008139606HSIEH, AARON LAM                                        20500
A0101408400000003120805INOVERO, RON ARIZ PENA                                   0501
B0501400170481040337001JERON DISTRIBUTION GROUP INC.                            1610
A3001400130230478374023CHAVIT, SHEKINAH MAE CANETE                              0501
A1001400350000000017774VENADAS, MARC LOUIE L. OR                               10502
A1001400350000000017774VENADAS, ANGELICA                                       20500
A1001400350233478374001JUNIO, ROGELIA A.                                        0501
B0101408400394028323001U-MYX TRADING-MARKET MARKET BRANCH                       1601
B0101408400000003120521GILIGAN'S ISLAND BAGUIO, INC.                            1602
B0101403580000002185424M22 BUILDERS INC.                                        1605
A0101403610531792048001MORDIDO, IRMA GAMBA                                      0501
A0101407720602277703001GUIA AVECILLA                                            0502
A0101400860011379561003**********                                               0502
A0101400860011412769001**********                                               0510
A0101400860011449713001**********                                               0502
A0101401250021704731001PALILEO, CHARISSMA CHAMORRO                              0502
A0101400150000007280391CRUZ, MICHELLE YAP                                       0501
B0101400600071538520001*********                                                1603
B0601400100000005690593BALIGRILL FOOD CORPORATION                               1605
B0601400100000005690600BALIGRILL FOOD CORPORATION                               1605
A0601400100081478374009JOWELL MIRANDA                                           0502
B0601400360083036723001BERTHAPHIL INC.                                          1610
A0101413730000002229756****************************                             0501
B0101413730000000469687UNITED EVANGELICAL CHURCH OF THE PHILS.                  1610
A0101410850000003503642EVANGELISTA, K DBU NEOSTAR                              10501
A0101410850000003503642INTERNATIONAL MANPOWER SE                               20500
A0101410850000000472428RAFOLS, R DBU REY RAFOLS                                10510
A0101410850000000472428ENTERPRISES                                             20500
B0101410560000007071401RFM MACHINERY AND EQUIPMENT                             11602
B0101410560000007071401CORPORATION                                             21600
A0101400730111478374020FERMANES, LILIA S                                        0502
A0101400730111493349001ATOS, EDITHA PADRE JUAN                                  0501
A0101406040000000096888********                                                 0501
B0101401960121044032001EASTERN INTEGRATED SYSTEM & AUTOMATION                   1603
A0101401960121484991001**********                                               0510
A5001400170000001003421LEYNO, KATHERINE MARAON                                  0505
B0101400440161045969001JOPRA SECURITY AND GENERAL SERVICES                      1603
A0101400440161525001095MARITES T. TAPIADOR                                      0501
A0101407270000008221776LIM, JUANITA TAN                                         0501
B0101407270162063089001REALITY ENTERTAINMENT, INC.                              1602
B0101407270162063091001MOTHERSHIP, INC.                                         1602
A0301400660000000194570DEQUITO, CITZY VENTOR                                    0502
A0101413020000000880531***************                                          0505
A0101410720653036642001JCB ADVERTISING SERVICES                                 0501
A0101410720653478374010SOCORRO JIMENEZ                                          0503
A0101410720653582864001ASIS, KRISTIAN JOSEPH MOZO OR                           10501
A0101410720653582864001ASIS, PAMELA XENA B.                                    20500
A3101400160000006520032LLANES, MARGERY APOLEGA                                  0501
B3101400160221041192001MJM ROCK CENTER                                          1601
A3101400450000001104043CARANZO, MARI BAGACINA                                   0501
A1001400190231022073001FARASIA EDUCATIONAL LIBRARY COR                          0502
A1001400190231040264001WESTBOUND PETRON                                        10502
A1001400190231040264001SERVICE STATION                                         20500
A1001400190000005708972MARIVIC A. ALFORQUE                                      0501
B1001400350000000017023LIMKETKAI HOTEL & RESORT CORPORATION                     1605
A1001400350233478374006IBANEZ, ELSA                                             0501
A1001400480000002300390DAGUMO, ELIZABETH SY                                     0501
B0401400270242821200608**********                                               2002
A0101401670000005039834TEH, JASON SY OR TAMAYO, JEROME                         10502
A0101401670000005039834CABRERA                                                 20500
A0101401670271193994001PATRICIO L. RAPADA                                       0502
B0101406460272040151001FIRST BARON RESIDENCES CONDOMINIUM                      11605
B0101406460272040151001CORPORATION                                             21600
B0101406620000000194041ZIOSOFT INC.                                             1601
A0101400570281022080002COSMOPOLITAN AD                                          0510
A2601400270000000561740EMILIA M. BAUTISTA                                       0503
A2601400270302574301001ALEX UY TY                                               0501
A2601400270302728942001RODERICK B. CADAUAN                                      0501
B0801400160000000009452JESTER FOOD PRODUCTS                                     1605
A6601400120314536373001DY, THELMA BALENA OR                                    10510
A6601400120314536373001DY, CHARLIE BALEna                                      20500
A6601400120314612855001SUNDAY LAVIN JR OR IRIANA LAVIN                          0505
A3401400280000003493845DEGALA, WINNIE DOLOR                                     0502
B0101402350321040284002THERMOCOOL TECHNOLOGY INC.                               1605
B0101405650322038688002LANDCO/ALC                                               1605
A0101402510341487199001NESTOR B. ESTABILLO                                      0502
A0101402510341538955001********                                                 0502
A0101402060351009359001JIANDANI, SURESH G. OR                                  10501
A0101402060351009359001JIANDANI, KAVITA                                        20500
A0101409050000000601385NOVILLOS, REYNALDO DISU                                  0501
A0101409050352694168001********                                                 0505
B0201400760374046036003SAM SOWAH SHIPPING CORPORATION                           1602
A0201401020000000470193LOUIE PENA'S TRAVEL TOURS & EVE                          0503
A0101408370382527801002PHILIP LANCE ANTHONY A. LIU                              0502
A0101411660000001145799ANIANO D ALCANTARA                                       0503
A0101415350000005085109FABRO, GENEVA NIMO                                       0501
A0101408400000000960430DITUCALAN, JAMILA FAISAL                                 0502
A0101408400000005286320AMEROL, ROSLINA MAROHOMSALIC                             0502
A0101408950396581982001MARIA ADELAIDA M. IBOLEON-DY                             0503
A0301400820000003148569YMALAY, MICHAEL DOMINIQUE A.                             0501
A0301400820000000024893ALIVO, JOENALD C.                                        0501
B5501400120410044008008FRANCISKOZ MOTORCYCLE PARTS,SRVCS &                     11603
B5501400120410044008008ELEC. SUPPLIES                                          21600
B5501400120410046322198DSO GLOBAL DISTRIBUTION, INC.                            1605
A5501400120000002018980BJ'S LECHON HOUSE                                        0505
A5501400120000002949495ONG, DANILO VILLARUEL                                    0501
A2401400180411455559001VENDIX GEN. MERCHANDISE                                  0502
A0101403320000000736152DEL ROSARIO, ROMMEL ELISEO                               0501
B0101403320471009122001ELDRICH FOODS CORPORATION                                1603
B0101403320471022984002UNITED ARCHITECTS OF THE                                11601
B0101403320471022984002PHILIPPINES                                             21600
A0101403320000001646766EROSA TRADING                                            0502
A0101403320471452852001EDGAR C. MONTOYA                                         0501
A0101403320471478374055BENITO OR REYZEL ESLABA                                  0501
A0101403320471543698001JONATHAN R MANUCAT                                       0501
A0101406330000000451392CABRERA, MARITA VICTORINO                                0502
B0101406330472009646001MANILA MAHOGANY MKTG. CORP.                              1601
A0101406330472027958001A. ANOLIN ENTERPRISES                                    0502
B0501400170481018109002****                                                     1605
B0501400170481025398002****                                                     1602
A0501400170481046585002ANG, JUSSLYNN DBU                                       10504
A0501400170481046585002AVS DISTRIBUTION                                        20500
A3801400170000008184390GERARDO L CONCEPCION OR                                 10501
A3801400170000008184390JOCELYN L CONCEPCION                                    20500
A1901400160491635678001MARIVIC ATIENZA CANTES                                   0501
A1401400110000005526701GARCIA, NIESEL SARSABA                                   0501
A1401400110492521817001ZARSADIAS, YBETT TINAMISAN                               0501
B0101403580000000214713OFFICE ESSENTIALS SYSTEMS                               11605
B0101403580000000214713FURNITURE INC.                                          21600
A0101403580000000016053MARIA CARMINA S. MESIAS                                  0512
B0101405940000000002740TRANS-MILLENNIUM MERCANTILE CORPORATION                  1603
A0101405940512452748001GALAMGAM, GARETTE LOVELL T.                             10505
A0101405940512452748001OR JANE GALAMGAM                                        20500
A0101408530516506423002***************                                          0501
A0101403450521238821001**********                                               0505
A0101404000000006418533MELANIE R SORATIO                                        0501
A2201400250561484428001WILSON LAO SIO OR                                       10502
A2201400250561484428001EDUARD LAO SIO                                          20500
A0101407720602480488001GERALDINE MAJELLA L. JURILLA MD                          0501
A0101409890000000209141BATACLAN, KATHLYN JOY YUMUL                              0501
B0101409890000003098173V.T. LAGUYO CONSTRUCTION, INC.                           1601
A0101409920000000998558MEMBERS OF NATASHA (SHOECAT INC                         10501
A0101409920000000998558PASCUAL, GLORIA                                         20500
A0101407690000006242097BRIONES, LUZVIMINDA SONGALIA                             0501
A0101407690000006736532SELUCE, GRACIA DBU GRACIA MON                           10502
A0101407690000006736532ENTERPRISES                                             20500
A0101407690652478374034EDNA D. PENALVER - DEALERS OF                           10501
A0101407690652478374034SHOECAT, INC.                                           20500
B0101413440000000038213ROMBE PHILIPPINES, INC.                                  1605
A0101413570000006596430DOMINGO, MARIA THERESA M.                                0501
A0101413990000005854048BITUIN, MA. ZITA CARMELITA C.                           10501
A0101413990000005854048OR BITUIN, ANGEL C.                                     20500
B0101406590662058753001F.C. DINO CONSTRUCTION                                   1605
A1301400210682047656001DADSON ENTERPRISES PUMPS                                10510
A1301400210682047656001& WELL DRILLING                                         20500
A1301400340683283077001DR. JUAN GREGO V. TORDESILLAS                           10510
A1301400340683283077001OR DR. ETHEL CHRISTINE                                  20500
B1301400500000000213414MATEA ESTEVEZ OR JOEY ESTEVEZ OR JOSEPH                 11605
B1301400500000000213414ANTHONY ESTEVEZ                                         21600
A0101408240711719275001SORREDA, SONNY CORPUZ                                    0501
B2801400100712028940001HUANG CONSTRUCTION CORPORATION                           1605
B4101400260812043809001UPLIFT DASMARINAS                                        1610
B4101400390000003346187PAGASA PHILIPPINES LENDING COMPANY                       1606
B4101400390000006103548IZU NOBLELINK INC.                                       1603
A4101400390813640996001DELA CRUZ, LILIA PALON                                   0502
A0101404840000003069981ATIENZA, SHIRLEY                                         0501
A0101404840000005820560BERBANO, MARY JEAN ARGENCITA A.                          0502
A0101404840851478374115ERLINDA O. PRADO                                         0501
A0101404840851520766122NENA REUTEREZ                                            0504
A0101405070000006006166AGUASITO, JUNLY HERNANDEZ DBU J                          0501
