A0101410690000000061856LAMUSAO, ARNOLD ADDUN                                    0501
A1001400190000000124832LIGTAS, ELSA D.                                          0501
A0101413990000000205898**********                                               0502
A0101408240000000521822MANGLAPUS JR., RAUL LAO                                  0501
A2601400270000000561671EDGAR D. ZARA                                            0501
A0101403320000000735717BAUTO, GUADA LYNNE CASTILLO                              0501
A0101401700000000890397JOSE BRAGAIS BORITO                                      0503
A0101410720000000968061FRANCISCO, SALVACION QUINTIA                             0501
A0501400170000001072651ANG, JUSSLYNN MAISIE ONG                                 0501
A0101404000000001186818BERGADO, KELVI ANN LICO                                  0501
A0101412180000001293192DICHE, ANNA LORELA PIZARRO                               0501
A0101402930000001445450ALVES, LETICIA PLACIGO                                   0502
A0101403320000001646993RIOLITA E. FLORES                                        0501
A0101403320000001647070SUAREZ, MA LIZA DAGU OB                                  0501
A2401400180000001676957MERCADO, MABEL POVADORA                                  0505
A0101404260000001725297KOREAN LANGUAGE CULTURE (KLC) T                          0501
A0101410560000001944072VALEN, ROSANA RETIG                                      0501
A0101400440000002034800ARMAN BESTUDIO                                           0501
A0101413440000002125393ORMIL ENTERPRISE                                         0503
A0101407430000002298202JENNYLYN A. CAPUL                                        0504
A0601400230000002310229GUTIERREZ, DANTE ROMERO                                  0510
A3101400450000003072471REJUSO, MA. THERESA ALVAREZ                              0501
A0101412340000003340923DENNIS G. AUSTRIA                                        0501
A3101400450000003478284ALARVA, CLARIBEL TALAVERA                                0501
A0101400150000003601021DIALA, JEFFREY MARIANO                                   0502
A0101411080000003798905CANLAPAN, NERSITA VILORIA                                0503
A0101409050000003838642MILLICENT S. VELAZCO                                     0501
A0101412340000004359882IZUN AISHA AL-RASCHID                                    0501
A0101412340000004359951QUENNIE A. BRITOS                                        0501
A0101412340000004359991CHRISTOPHER C. PABALAN                                   0501
A0101412340000004360070JEFFREY PHILLIP R. SUELEN                                0501
A0101412340000004360109JOSEL A. ROSALES                                         0501
A0101412340000004360303MA. ANGELICA CARMEL M. CEDO                              0501
A0101412340000004360332JOSEMARI B. CARAG                                        0501
A0101412340000004360343ANNA LEE A. AVES                                         0501
A0101412340000004360376RENEEZZA R. GAYARES                                      0501
A0101412340000004360423EMMANUEL V. TULIO                                        0501
A0101412340000004360445GENVIEVE A. CAJA                                         0501
A0101412340000004360605JONATHAN THOMAS F. OLALO                                 0501
A0101412340000004360683DIANNE MONIQUE A. QUERUBIN                               0501
A0101412340000004360730APRIL CAMILLE R. REVESENCIO                              0501
A0101412340000004360741JOANNE CRISCILLE G. PACANA                               0501
A0101412340000004360850MA. DAISY N. LIZADA                                      0501
A0101412340000004360861MARICOR P. DAGDAGAN                                      0501
A0101412340000004557717KATHRINA B. BENITEZ                                      0501
A0101400860011385484001**********                                               0503
A0101400860011559271001**********                                               0505
A0101401700041189400002**********                                               0501
A0101400150061227112001PACITA G. LIM                                            0501
A0101400150061231647001JOHN ARTURO MOROTA                                       0502
A0601400100081545371002CRUZ, LESLIE BARREDO                                     0501
A0601400100081560024001VERGARA, ELSIE MAGLAMBAYAN                               0501
A0101401960121239340001***********                                              0504
A0101400440161007223002BENJAMIN H. SILVERIO                                     0504
A0101400440161478374021DOROTHY D. SANICO                                        0501
A0101400440161525001067JENIFFER T. JAVIER                                       0501
A0101401090171195893001DR. RICARDO AGBAYANI                                     0501
A0301400530193639123188EDUARD DANIEL G. VALDEZ                                  0502
A0101407140213387594002**********                                               0501
A0101407140213417838001**********                                               0510
A3101400160221478374061ANDREA E GOLVEO                                          0501
A1001400190231274559001SY, MAN CHAK                                             0501
A1001400350233478374020ELMA O. GAWAT                                            0502
A1301400470252638757001**********                                               0503
A0101401670271186311001BENEDICT SANDEJAS                                        0501
A0101402510341198339002SOLINA M. ALER                                           0501
A0101409050352449617001STEPHEN PUNZALAN CUASAY                                  0501
A0101409050352686644001REYNALDO M. COQUIA                                       0501
A0101402640361405401001IMUAN, NELIA AGNASAN                                     0502
A0201400920375478374016CERBO, SHAMIR LOU CAGAIS                                 0501
A0201400890376192121001TORRES, GIL FERDINAND ABELLO                             0502
A0101402930381188380002MANUEL G. ZAMORA III                                     0501
A0101408370382488821001DR. ROSALYN C. SARMIENTO                                 0501
A0101408400394476295002UMAGAT, RAUL TUAZON                                      0501
A0101408400394494749001MAGPANTAY, LOTA CADAG                                    0502
A2401400180411478374020MORI, LYDIA                                              0502
A0101403320471629175001ERLINDA P SANTOS                                         0505
A1401400110492777638001DY, EDNA AYCARDO                                         0505
A0101403450521238594001**********                                               0501
A0101407720602166820002CUA, DIANA ONG                                           0501
A0101407720602555698001DE LEON, ANTHONY TIMBOL                                  0502
A0101404420631764043001MARVELUZ DELOS REYES CAPULI                              0501
A0101404680651048093001MARCH MANPOWER SERVICES                                  0502
A0101404680651176306002ROSIE B. REGUALOS                                        0501
A0101407690652034151001D' ABET JUNK SHOP                                        0502
A0101407690652297173003LAQUINDANUM, ELIAS CONCEPCION                            0502
A0101407690652297432001NOEL R. MAGTURO                                          0502
A0101407690652368362001GALLENTES, JENNIFER DONES                                0501
A0101410720653478374002ZENAIDA O. CARLOS                                        0501
A0101410720653693151001SAMBRANO, CARMELITA ASIS                                 0501
A1301400340683564481001REMO, NILO AVENDANO                                      0501
A0101407560686170077002********                                                 0501
A0101404840851368068003BALAGTAS, ROWELLDA CHIONG                                0502
A0101407690000000025152MONCEDA, MARINA - DEALERS OF                            10501
A0101412340000000031136VILLACORTE, BIENVENIDO L. OR                            10501
A0101411660000000109271JOSE GLEN Y. DE LA ROSA OR                              10501
A0101402770000000360763FELIX, ELEONOR MAKABUHAY DBU                            10502
A0101404260000000532169ROMAN, JOCELYN LAXAMANA                                 10501
A1001400350000000922207MAXIMO A. UY OR                                         10505
A0101403030000001302076TUNGOL, MARJORIE CAJIMAT OR                             10503
A0301400950000001379615CABALLERO, MARY LYNN ONG                                10502
A0601400230000001687232CHRISTLE M.TUNGUL OR                                    10502
A2801400230000001781984BORLONGAN, P DBU SAYONG'S                               10501
A0601400100000002698413DANTE DEO GLASS AND ALUMINUM                            10501
A2201400250000004404891ARBILON, JESSA HABAGAT DBU                              10501
A0101400150061422618001JORDAN M. PIZARRAS OR                                   10505
A0101406040112428212001MARVIN WILLIAM TRINIDAD OR                              10501
A0101412630132094898001VENTURA, ELIZABETH CERVANTES OR                         10501
A0101401670271361002001JOSE ABRAHAM V. PLANA II OR                             10503
A6601400120314593270001DIAZ, REO OR MARIEGIL OR                                10505
A0101405650322321476001DE GUZMAN, MYRNA SARMIENTO OR                           10501
A0201400760374584291001LAYAR, VICENTE CASIPONG AND                             10502
A0101405490392170475001ERNESTO A. CHUA OR                                      10501
A2401400180411478374017PERPECTUO BULAQUINA, JR.  OR                            10501
A1201400150421685972001JUCUTAN, HEIDI BONDAD OR                                10502
A0101403320471640763001RIJISA LENDING INVESTOR                                 10520
A0101407720602436863001ACEBUCHE, NILO BORJA OR                                 10501
A0101407690652478374034EDNA D. PENALVER - DEALERS OF                           10501
A0101407690652520766012CLARITA BUENAVENTE - DEALERS OF                         10502
A0101410720653402452001JONE P. LIU CHIANG OR                                   10501
A0101407690000000025152SHOECAT INC.                                            20500
A0101412340000000031136VILLACORTE, ADELINA C.                                  20500
A0101411660000000109271ROEL S. CONCEPCI                                        20500
A0101402770000000360763JELLY ICE DELIVERY                                      20500
A0101404260000000532169OR SORIANO, NOEL                                        20500
A1001400350000000922207JEORGE HERNANITO                                        20500
A0101403030000001302076TUNGOL SR., RONA                                        20500
A0301400950000001379615OR CABALLERO, GL                                        20500
A0601400230000001687232LIONEL M. TUNGUL                                        20500
A2801400230000001781984PASILYO COUNTRY LIVING JT                               20500
A0601400100000002698413SUPPLY                                                  20500
A2201400250000004404891DRAGON'S DEN APPAREL                                    20500
A0101400150061422618001MARIVIC M. PIZARRAS                                     20500
A0101406040112428212001MARIA CERRIZA TRINIDAD                                  20500
A0101412630132094898001VENTURA, ALEX NGO                                       20500
A0101401670271361002001RACQUEL Y. PLANA                                        20500
A6601400120314593270001REMEDIOS                                                20500
A0101405650322321476001DE GUZMAN, GAZEL                                        20500
A0201400760374584291001LAYAR, GERMANA M                                        20500
A0101405490392170475001MA. SOCORRO R. CHUA                                     20500
A2401400180411478374017EMMA C. BULAQUIN                                        20500
A1201400150421685972001JUCUTAN, ROMMEL                                         20500
A0101403320471640763001CORPORATION                                             20500
A0101407720602436863001ACEBUCHE, AMELITA                                       20500
A0101407690652478374034SHOECAT, INC.                                           20500
A0101407690652520766012SHOECAT INC.                                            20500
A0101410720653402452001LEO VILLAVERT                                           20500
B0101400150000000000124WORLD AVIATION CORPORATION                               1603
B0101402930000000038719PROMINENCE PROPERTY DEVELOPMENT COR                      1603
B0201401020000000056186MACTAN RURAL BANK(LAPU-LAPU CITY)                        1603
B0101400150000000633458PATH 2 PURCHASE INC.                                     1602
B0101406620000000962403GEOWORKS INTERNATIONAL CORPORATION                       1602
B0101410720000000968152MAXIPRO TRADING COMPANY                                  1602
B0101410850000001229783PSPA MARINE AND CARGO SURVEYORS, INC.                    1601
B0101400150000001708663MDR MANAGEMENT PARTNERS INC                              1601
B0101400150061018219002SUGAR INDUSTRY FOUNDATION, INC.                          1605
B0101400150061026597001HONDA MOTOR SPORTS INC.                                  1605
B0101400150061027294001HMS CREDIT & FINANCE CO., INC.                           1605
B0101400150061028210001GOLDEN DRAGON MOTOR SALES CORP.                          1605
B0101400150061041993001FILPROGRESS CREDIT CO., INC.                             1605
B0101400600071011309001PEDERNAL MARKETING                                       1605
B0601400100081038110001QUANTA PAPER MARKETING INC.                              1605
B0101401960121023340001**********                                               1601
B0101412920160056666001ALM WATER REFILLING STATION                              1603
B0101400440161022597001PHILMAN POWER CENTER INC.                                1612
B0101400310211036097001LSY OFFICE & COMPUTER SUPPLIES                           1603
B0101401670271389719001PHILREM SERVICE CORP.                                    1605
B0101400570281043564001ST. JOSEPH'S COLLEGE OF QUEZON CITY                      1601
B0101405650322612381001GREENTREND PRODUCT LINES CORPORATION                     1602
B0101402930381008829002AXEIA DEVELOPMENT CORP.                                  1615
B0101402930381014599001HEALTH SOLUTIONS CORPORATION                             1602
B2401400180411032398088ECCO HARDWARE, INC                                       1620
B0101407430503034519001D.G.X. PHILS., INC.                                      1602
B0101403450521011968001**********                                               1602
B0101403450521012010001********                                                 1603
B2201400250561035096001SOUTH PEARL PROPERTIES, INC.                             1610
B1001400350000000244368PHILIPPINE GAMS GENERAL INSURANCE AND                   11605
B1201400150000000473370BAGONG PAG-ASA ENTREPRENEURS SAVINGs &                  11602
B0101400440161021777004PROTECT SECURITY & INVESTIGATION                        11602
B0101402060351009401001PHIL. IRON CONSTRUCTION & MARINE WORKS,                 11605
B1001400350000000244368FINANCIAL SRVCS                                         21600
B1201400150000000473370CREDIT COOP.                                            21600
B0101400440161021777004SERVICES CO.INC                                         21600
B0101402060351009401001INC.                                                    21600
B0101418490002802000408**********                                               2102
B0101408530516821100608**********                                               2020
B0101407690652821100608**********                                               2003
