B0101403580511821100608**********                                               2005
B0101403580511821100608**********                                               2005
B0101407690652821100608**********                                               2002
B0101407690652821100608**********                                               2002
B0101405650000006273258AAR FABRICATION AND CONSTRUCTION                         1601
A1001400190231478374006LIBRADO, HAZEL T.                                        0501
A1001400190231520766038SOGOC, MAR-IEL ALIMPULOS                                 0501
A0101412500000006708336TAN, JEROME MONTIERO                                     0502
A1001400190000008743988OLAIVAR, FATIMA ORBISO                                   0503
A0101402350321584873001*******                                                  0501
A0101405650322795084001PAULO B. VALDEZ OR                                      10502
A0101405650322795084001STEPHANEY ANN S.  VALDEZ                                20500
A1001400190000002170587GANDAROSA, MUSTAPHA M                                    0501
A1001400190231380503007DRA. CYNTHIA BACONGA                                    10503
A1001400190231380503007PHILAMCARE DOCTO                                        20500
A1101400120000001547520TAN, MELVIN NATHANIEL ANDRADE A                         10505
A1101400120000001547520ND TAN, MARY CLAIRE MACIO                               20500
B1101400120000000653190BOSJAN MAIN MARKETING CORP.                              1605
A1101400120313478374071ZACARIAS, MARIA FE LERIOS                                0502
A0901400220000007072477**********                                               0501
A3101400450000017232310LANDIG, AL HOLDEN VERGARA                                0501
B3001400130000000067241BUTUAN BRAKE CENTER SALES CORPORATION                    1610
B1001400190231014206001PANABO MULTI-PURPOSE COOPERATIVE                         1610
A2001400290000000924447CLAVEL, ALAN ZAMORA                                      0504
A0101402350321478374048GLENDA D. ESTRELLA                                       0501
A0901400220000000888042**********                                               0505
A1901400160000015840903UY, DULCE GASCO DBU                                     10502
A1901400160000015840903EMGAS TRADING                                           20500
A1901400160491048459001KLENSTAR MANPOWER SERVICE                               10502
A1901400160491048459001SPECIALIST                                              20500
A2201400250000015111398ARVIN R. FERNANDO                                        0504
A0101409920000013391389**********                                               0501
A0101400860011339565001**********                                               0502
B0101400860011399627003**********                                               1605
A0101400860011474911001**********                                               0502
B0101401250000000057258EXCEL PRO PLACEMENT AND SERVICES, INC.                   1602
A0101400150000012350053IGNACIO, JOCYLYN ALVARADO                                0502
B0101400150061025388001RTN FOUNDATION, INC.                                     1601
A0101400150061369552001ROMEO TONGOL OR                                         10505
A0101400150061369552001FLORDELIZA TONGO                                        20500
A0101400150000015974346PAGUINTO, CECILIA LIWAG                                  0502
A0101400150061696499001****************                                         0502
A0101400600000013979076********                                                 0502
B0101405810072235172001LIM, JULIE GUAT                                          1605
A0101400730111195466001DELOS ANGELES, AMADO OR DELOS                           10502
A0101400730111195466001ANGELES, TRINIDA                                        20500
A0101412920000017367483MALANA, MANOLO NINO MALICAT DBU                          0501
A0101400440000009896202MAGALLONES, HUBERT NABONG                                0501
A0101400440161402508001MARIA MARGARITA A. ASUNCION                              0502
A0101401090000010238518DE JESUS, JONATHAN CARLOS HORTI                          0502
B0301400530193044968008ASIAMOTOR, INC.                                          1620
A0301400660000008941180DU, RACHEL ANNE CHIU                                     0501
A0301400950000008000660PE BENITO, HAZEL ANN NERI                                0505
B0301400950000002115913GCW9 LAND, INC.                                          1605
A0101401380000005960067SAMSON, EDISON MARCELO                                   0502
A0101401380000016158231YIN, LIFEN                                               0501
A0101413020000010882250VIRAY, JOJIE LAUS                                        0501
A0101412500000017359532SANTAMARIA, CLARO MONTESENA                              0501
A0101412500000012967438TAN, JEROME MONTIERO OR                                 10502
A0101412500000012967438TAN, DENNIS CORD                                        20500
A3101400160000015270983NANEZ, GRACE SEMINIANO                                   0501
A3101400160221220205001RODOLFO ELEPANO OR GILDA PICO                            0503
A3101400160221419880001ROWENA B. SUN                                            0502
A3101400870000017351656MACARANDANG, RAMON CARTECIANO                           10501
A3101400870000017351656OR MACARANDANG, REMEDIOS                                20500
A3101400870000003515313ABUYEN, CORAZON L. JT DBU                               10501
A3101400870000003515313SOVEREIGNTY MARKETING                                   20500
B1001400350233034600001UPTOWN GROUP OF COMPANIES INC.                           1603
B1301400470000007863036PRIMEWATER INFRASTRUCTURE CORPORATION                    1605
B1301400470000007863116PRIMEWATER INFRASTRUCTURE CORPORATION                    1605
B1301400470000003270204FMN DEVELOPERS CORP.                                     1602
A1301400760000005990003ROWENA D. ALVAREZ                                        0502
A1901400290000014042336VERGARA, VICTORIA LOURDES MORAT                          0502
B1901400290261048088001B & V FEEDMILL                                           1605
A0101401670271482067001DANILA, LOURDES RUBIN                                    0501
B0101408660274035623001PROPERTY COMPANY OF FRIENDS, INC.                        1602
A0101411820000008442842JOVERT LECHUGA DERECHO DBU                              10501
A0101411820000008442842JOLD MARKETING                                          20500
B0101412470000012117592**********                                               1602
A0801400160000006893163ZALDARRIAGA, CHRISTY LUBATON OR                         10504
A0801400160000006893163ZALDARRIAGA, JAYSON L.                                  20500
A0801400160311170180001TAI, KUO AN                                              0501
A0801400160311378358001SUEGAY, JOEY PAJARILLO                                   0501
A1101400120000000652351YAO, RONALD PHILIP GO                                    0502
A6601400120000008490546ELIC, DAISY GEECERY ANOBA                                0501
A6601400120000008490455ORTIZ JR., JUAN CARANDANG DBU N                          0502
B2001400290315044204001cCEBANK CREDIT, INC.                                     1601
A2901400130000005961395LIMA, ELAINE TRIESTE                                     0510
B0101405650000000772812ONE BFCEA INC.                                           1601
A0101405650000010318931REMULLA, DANIEL JOHN PEN                                 0501
A0101405650000006893389MACATULA, JOEL OCHOA                                     0501
A0101405650000016904206ADIONG, ALDRICH DANE PEREZ                               0501
B01014056500000029607964-S HOMEOWNERS' ASSOCIATION, INC                         1601
A0101402510341325995001ALEX TAN LIM                                             0503
A0101402510341331222002ERLINDA C. RECOCO                                        0501
A0101402060351495895002ARCEO, FLORDELIZA CHAVEZ                                 0501
A0101409050000017361412ACOSTA, HAROLD MAZON                                     0501
A0101409050000017361616CHUA, CHARLES LESTER .                                   0501
A0101409050000017361752DE GUZMAN, JIMBO C                                       0501
A0101409050000017361821TARROZA, LUISITO J                                       0501
A0201400890000017370673MADELO, MARECHIR UBAUB DBU SGR                          10501
A0201400890000017370673ONLINE MARKETING                                        20500
A0201400890376506755001SARMIENTO, ANDREW PHILIP OR                             10502
A0201400890376506755001SARMIENTO, JENNI                                        20500
A0201401020000013926753ARADO, STEVEN CHAN                                       0501
A0101408370000011287119TOLENTINO, ANNA MA. RICA UY                              0501
A0101408370000015475780NILDA T. TESTADO                                         0502
A0101408790000000931048PISON, MARCUS AURELIO ABELARDO                          10501
A0101408790000000931048OR PISON, MARIA                                         20500
B01014027700000068124627 SEA AIR & LAND LOGISTICS SERVICES                      1601
B0101402770000006812495RAMONLIM CONSTRUCTION & DEVELOPMENT                      1601
A0101408400000016252743QUIMING, LAARNIE MISAGAL                                 0502
B0101408950000000036939ROQUE EYE CLINIC                                         1604
A0101409210000017353061DULLER, IXARA GRACE SIONOSA                              0501
B0101412210000000031512WALL STREET ACCOUNTING AND BUSINESS                     11602
B0101412210000000031512SOLUTIONS INC.                                          21600
A0301400820000010907270TILAP, MARK A.                                           0501
A2401400180000015944640ESVER, MARK NEIL OMAS                                    0502
B2401400180411044070001MABUHAY TECHNOPARK CORPORATION                           1602
A1201400150000016104071JALLORINA, NORA NALIBHAN                                 0501
A0101412890000012474378CONFESOR, JULIAN C DBU JC                               10501
A0101412890000012474378CONFESOR ARCHITECTURAL                                  20500
A0101403320000015944866VICENTE, RONALDO PENALOSA                                0501
A0101406330000001235370F. G. NUCUM                                              0502
A0101410140000007294757AURELLANO, DBU WARGODS ARENA                            10510
A0101410140000007294757INTERNET CAFE                                           20500
A0501400170000009954163LIM, CELIA CHUA                                          0505
B0501400170481018109002CSI WAREHOUSE CLUB INC.                                  1604
A1401400110000008266273GAMBOA, JUNE ANNE ALCANTARA                              0501
A1401400110000011337567ENRIQUEZ, LONILY ANDAL                                   0502
A1401400110000015925718JOSEPH OR PAULITA OR JEFFREY                            10505
A1401400110000015925718OR JESSIE ALVARE                                        20500
A1401400110000016984302ALEGRE, MARITES MEOLLO                                   0501
A1401400110000016984331LABORTE, MARIA CORAZON GINALYN                           0501
A1401400110492220879001ANGLO, ROMEO F. OR                                      10502
A1401400110492220879001ANGLO, CECILIA N                                        20500
A0101407430503073598001GARCIA, PATRICK SANVICTORES                              0501
A0101403580000017359652CHUA, JAMES DULAN                                        0502
A0101403580000000016082SWEET BELLA DESSERTS                                     0510
A0101408530000007719700RAPHAEL JOSHUA NACORDA                                   0501
A0101411400000014087362BANCOD, FATIMA ANDRADE                                   0501
B0101403450521012019001TIMCO MANUFACTURING CORPORATION                          1605
A0101403450521213501001KHO, DAVIDSON ONG                                        0501
A0101403450521239151001**********                                               0505
A0101403450000014728453***********                                              0501
A2201400250000012982748JANINE A. LATONIO                                        0503
A2201400250000012983007MARIANO F. MALLARI                                       0502
B0101410690600045550001BEST ELECTRICAL COMPONENTS (BEC), INC.                   1606
A0101410690000005383542SANTOS, PATRICIA ANNE GUZMAN                             0502
A0101404130000015586675XIANG, YANG                                              0502
A0101404130000015586686WANG, CHUNMING                                           0502
A0101404130000016160973ZHOU, PING                                               0501
A0101404130601554807001FERMIN, GENEROSA DIMARUCOT                               0501
A0101404260000002302118APARENTE, RHODORA OLVIDA                                 0501
B0101404260000006374547JEANJAQUET, S DBU SERIAL KITTEN                         11602
B0101404260000006374547EVENT MANAGEMENT                                        21600
A0101404260611366377001MAGSUMBOL, RISSA REYES                                   0501
A0101409890000006812791**********                                               0501
A0101409890000000049089GEMSTAR CLEANING SUPPLIES                               10504
A0101409890000000049089INTERNATIONAL                                           20500
B0101411530654821100608**********                                               2002
A0101413990000006278237DE CASTRO - AGBUYA, HAYDEE AMOR                          0501
A0101414120000009850871URRUTIA, LETECIA CALIBOSO                                0501
B0101414120000011637222RWVCE FOOD CORPORATION                                   1602
A0101406590662209401001ALMA DE BORJA OR HORTENCIA                              10501
A0101406590662209401001BUENAVENTURA                                            20500
B1301400210682016750001JFL AGRI VENTURE SUPPLIES                                1606
A1301400340000003458202TECSON, RENITA FLORO                                     0501
B1301400340000006402502********                                                 1602
A0101408240000010148113ENRIQUEZ, JOSE MARIA ALVARO                             10502
A0101408240000010148113ADAP                                                    20500
B0101408240711036897001EVER THEATRICAL, INC.                                    1601
A0101408240711199637001GIL JOSE E. PULUMBARIT JR.                               0502
A0101408240711383150001AURELIO III OR AURELIO JR.                              10501
A0101408240711383150001OR AARON LITONJUA                                       20500
A0101408240711593767001JOCSON, ARLENIE TELEBRICO                                0501
A2801400230000009022188ISIDRO, MARIA CRISTINA VELUZ                             0501
A4101400260000015859053FRENCILLO, JOCELYN MAGNO                                 0501
A4101400390000015067480LUISITO G. BINAS                                         0502
B4101400420814012637001ANABU DEVELOPMENT COOPERATIVE                           11605
B4101400420814012637001(ANADECO)                                               21600
B4101400420000007305360VIC IMPERIAL APPLIANCE CORP.                             1601
A4101400420814478374163MA. CORAZON C. REATAZAN                                  0501
A4101400420000002345320CALLEJO, LILIBETH                                        0501
B4101400550815000593001IMUS RURAL BANK, INCORPORATED                            1601
A0101404840851046725019LETICIA QUINANOLA                                        0502
A0101404840851217637117MARIEL DE OCAMPO                                         0502
A0101404840851298552055SIXTA MELBA C. ENGBINO                                   0501
A0101406750000009472335LORENZO, CHARMINE MAE REYES                              0501
A0101406750852359932001FRANCISCO PANAHAON OR                                   10501
A0101406750852359932001FILIPINAS PANAHON                                       20500
A0101405070000002281961RONNIE VITALICIO CAMARSE                                 0502
A0101405070000015207980EMMA MELCHOR MANUEL                                      0501
A0101405070861478374086MARLYN C. GABEST                                         0502
A0101413860000001887012GALICIA, MARY ANN GONZALES                               0501
