F0601400100081685142001POON, WAISILY LOZANO                                     2502CKO
F3201400190000001493045DR. ROMEO P. PIRA DBU PIRA CLINIC &                     12605CKO
F3201400190000001493045HOSPITAL                                                22600CKO
F4101400260812028403001AQUA DE TAAL PURIFIED DRINKING                          12508CKO
F4101400260812028403001WATER                                                   22500CKO
F4101400260812543920001ARTHUR B. ALVIAR                                         2508CKO
