B0101410140475821200608**********                                               2001
A0101412890000004638820LOPEZ, MARIA CONCHITA TORRICER                           0501
A0101412890000000371453DOLERA, PERLA DE GRACIA                                  0502
B0101412050519065493002SANTOS, ROMMELITO DE JOSE DBU ROMSANAIRE                11601
B0101412050519065493002TRADING                                                 21600
B0101413860000000145275CON-PAC WAREHOUSING INCORPORATED                         1605
A0101400150000000807170FRAGANTE, SOCORRO PROTACIO                               0501
A0101400150000001422075MANDAP, MARK JOSEPH DUNGCA                               0502
B2401400180411044070001MABUHAY TECHNOPARK CORPORATION                           1602
A2401400180411272614002BALAYO, JOEL BASCO                                       0510
A2401400180411555367001EVANGELISTA, EMMANUEL JERUS                              0502
A0101403030000008089334TAN, JESUSA POTIAN                                       0501
A0101412890000007095732TRABALLO, M DBU MARK ANTHONY                            10502
A0101412890000007095732ROCK SUPPLY                                             20500
A0101412890000007095750ANGELES, CRISTINA DBU INTERIOR                          10501
A0101412890000007095750PERSPECTIVE MARKETING                                   20500
A4101400420814462792001RICHARD W. WU OR LOURDES WU                              0502
A0101400860011663274001**********                                               0502
A0101400860011685746001**********                                               0505
A0101400150000002394818INOCENCIO, JOEL MACARAEG M.                             10501
A0101400150000002394818INOCENCIO, ANNABELLE E.                                 20500
A0101400150000002902718TOLENTINO, ROMEL TUCAY                                   0501
A0101400150061338964182RESHELL MENGUITO                                         0501
A0101400150000004090497MONTINOLA, JOSE MA. HORACIO GO                           0501
B0101400600071011309001PEDERNAL MARKETING                                       1602
A0601400100000007250597SANTIANO, LEILA MERCADO                                  0501
A0601400520000005001432SERRANO, JELEZA PEROCHO OR                              10502
A0601400520000005001432SERRANO, ARNEL FRANCISCO                                20500
B0101413730000007317213**************                                           1601
B0101414090000002244662THINKSCAPE RESEARCH SERVICES INC.                        1603
A0101412630000004062064BANZUELA, ELEANOR ADORNA                                 0502
A0101412630000007158092BAYANI L. MANALASTAS                                     0501
B0101401830141019859001NIPPON WARE MANUFACTURING CORPORATION                    1602
A0101401830141546547001REATAZA, NELIA MORABE                                    0503
B0101407270162046726001VALUE CARE HEALTH SYSTEMS, INC.                          1650
B0101407270162046726001VALUE CARE HEALTH SYSTEMS, INC.                          1650
A0101407270162454388001PABLITO J. ARTILLERO OR                                 10501
A0101407270162454388001JOSEFINA F. ARTI                                        20500
A0101401090171196026001AURORA OR LESLIE BAUZON                                  0502
A0101401090171327925001REMEDIOS C. ONG                                          0503
B0301400660000000195328TYRENE SHIPPING CORPORATION                              1603
A0301400660000000475592*****                                                    0510
A0301400660194737283088ZHI VENUS INDUSTRIAL SUPPLY                              0502
B0301400790195062743001GREATSYSTEMS WORKX, INC.                                 1602
A0101410720653092226001SECILLANO, LUIS SAYSON                                   0501
A3101400450000005355528PAGKALIWANGAN, VENUS LEI BRIONE                          0501
B3001400130230048097001CORALOZA, VICTOR DBU UBIC BEARING AND                   11603
B3001400130230048097001SEALS DEPOT                                             21600
B1001400190231029291001JAMESON CONSTRUCTION SUPPLY                              1610
A1001400190000001057589NORMALIS C. REYES                                        0501
A1001400350000000922014PEARSON, PILARCITA ROA                                   0502
B1301400470000003270113OBRIGADO LENDING INVESTOR, INC.                          1601
A0101401670271603732001GREGORIO, REYNALDO CRUZ                                  0501
A0101406460272190124002UNSON, MA. LUISA D.                                      0501
A0101406620273380453001**********                                               0501
B0101408660274035634001CLARISSA RACELIS-FELICIA DENTAL OFFICE                   1601
B0101400570281007188002KIMURA CHAVES ENTERPRISE, INC.                           1602
B0101400570281074052003LACDAO, BRIDGET BALITOG AND CAWATIG,                    11602
B0101400570281074052003FARIDA PASIWEN                                          21600
A0101400570281189230002REX EDWARD OR CRISTINA SUPAPO                            0501
A0101400570281333519007**********                                               0501
B0801400160311014376002PENBANK, INC.(A PRIVATE DEVELOPMENT BANK                 1602
A6601400120314612973001CABILI,MANUEL MELFORD OR MANUEL                         10503
A6601400120314612973001OR TERESITA OR ZYBELLE                                  20500
A2001400290000008502196TEMBLOR SR., FLORIDO VILLAGONZA                          0501
A0101405650322400866001LEVISTE, PANCHO M. OR                                   10502
A0101405650322400866001LEVISTE, EDITHA                                         20500
B0101402060351009459001CHATEAU VERDE CONDOMINIUM CORPORATION                    1603
A0101402060351211631001VILLONGCO, DOLORES G. OR                                10501
A0101402060351211631001AGIAS, CYNTHIA M                                        20500
B0201400760000006433401CHUA, JOSEPH DBU COMPOSTELA ICE PLANT                    1601
A0201400890000002270617*************                                            0505
A0201400890376667775001BUYSER, MISAN CANAS OR BUYSER,                          10501
A0201400890376667775001RENZIE RAFAEL CA                                        20500
B0101402930381043429001MVMA INT'L. RESOURCES, INC.                              1602
A0101402930381080348001FERNANDEZ, ESMERALDA CASTRO                              0501
A0101408370382299433001VILLA-REAL, CRISTELA ABAD                                0501
A0101408370000005220040TAMAYO, MA BELEN EVANGELISTA                             0502
A0101408400394295045001TAN, ERWIN ARANDELA                                      0501
A0101408400394478374094NUNEZ, GENIE                                             0501
A0101408950000007458822NUGUID, ROMEO SALUD                                      0505
B0101408950000004428671FWD LIFE INSURANCE CORPORATION                           1605
A1201400150000000473552QUINTO, D. DBU TRIPLE EIGHT HOM                         10501
A1201400150000000473552E FINISHING                                             20500
A0101403030441029489001**********                                               0506
A0101403030441239047001**********                                               0501
A0101403320000001646631SANTIAGO, LEILANI SANTIAGO                               0501
B0101403320000001647230AMALGAMATED INVESTMENT BANCORP.                          1610
A0101403320471442721001CANDIDO M. MANEJA OR                                    10502
A0101403320471442721001GLADYS MANEJA                                           20500
A0101403320471478374006NELIA MORALES                                            0501
A0101406330000002277881CHIU, LARA PRINCESS COSTALES                             0504
A0101410140000006015390LOPEZ, DIOSDADO ORDANZA                                  0501
A1901400160491405481001CARMELA P LLANA OR                                      10504
A1901400160491405481001VINCENT WIGBERT                                         20500
A1401400110000008266115YARA, ARNELLEE FAYE AGUNIAS                              0502
B1401400110492011585002LUCENA GREENVIEW, INC.                                   1602
B0701400260000007895821VERMAMED PHARMACEUTICAL CO.                              1602
A0101407430000005358534SIKANDAR, SAAD                                           0503
B0101407430000001213169FAST LANE INTERNATIONAL LOGISTICS INC.                   1602
A0101407430503478374012ANALIE YPANTO                                            0501
A0101403450000001769997**********                                               0501
A0101403450521679548001**********                                               0502
A2201400250000003558081RAMOS, RICARDO RAZON DBU                                10505
A2201400250000003558081AMAZING KIDS INTERACTIVE                                20500
B2201400250561291930001JOSUE SENGCO &/OR DIGNA REMOLANA &/OR                   11602
B2201400250561291930001DILIDAN PASION                                          21600
A2201400250000001545580MEMBERS OF NATASHA (SHOECAT INC                         10501
A2201400250000001545580GAUDIOSA A. WAGE                                        20500
A0101407720602397745001DE JESUS, CELESTINA MARCOJOS                             0502
A0101404260000007498288DE GUZMAN, MARILOU GREGORIO                              0501
A0101409890649047047001**********                                               0508
A0101409890000002161411LLORICO RODERICK CAMACHO DBU JO                          0501
A0101409920000001951982MEMBERS OF NATASHA (SHOECAT INC                         10501
A0101409920000001951982TORRELIZA, GINA                                         20500
A0101407690000000495530AMBA, GERALDINE PAGASPAS                                 0501
A0101407690000000587793CECILIA F. PILI                                          0501
B0101407690652537622001CREATIVE DISHES & RECIPES INC.                           1602
B0101407690652537622001CREATIVE DISHES & RECIPES INC.                           1603
A0101407690000000914027BUYAYO, ELIZABETH KIDAYAN                                0501
A0101407690652786467001MADRONO, BENJAMIN PLAZA                                  0502
A0101413440000002846262SARET, MARIA JENNIFER JADE M.                            0505
A0101413570000004353957RAMEL H. OROZCO OR                                      10503
A0101413570000004353957NORA B. OROZCO                                          20500
A0101413990657064294003BARREL SMOKER FOODS                                      0501
A0101414120000002172583DELOS SANTOS, AUREA LOPEZ                                0501
A0101414120000008642564FERMA, MAIENNE RUSSEL LAYGO                              0501
A0101414120000005252864MVG HARDWARE                                             0502
B0101406590000003007336OUTBOUND EDUCATION AND INTERNSHIP I                      1602
B1301400210682040563001ACTISERVE CORP.                                          1605
B1301400210682047989001CARLBUILT CONSTRUCTION AND TRADING                       1605
A1301400210682396526001GUIA E. PESTANO-DACUMOS, M.D.                            0502
A1301400340683456739001LAZATIN JR., EDUARDO NIONES                              0502
A1301400500000000213210RBN ENGINEERING & DEVELOPMENT                            0503
B1301400500684065768001MASTERS FLYING SCHOOL INC.                               1602
A1701400230693478374015FERNANDEZ, FEMA L.                                       0501
A0101408240711610529001ROLEDA, JEAN MARIE MANALO                                0501
B0101408240711691416001FIVESOME INC.                                            1601
A4101400260812389694002OLIVIA P. RODEROS                                        0502
A4101400260000006043243VALDEMORO, JOCELYN HILARIO                               0501
A4101400420000008280637BALUYOT, LIZA MACARAIG                                   0502
A0101412340850084604001CALALANG, CHERYL MARIE ESPINOSA                          0502
A0101412340000001017930SONIA MEDINA SIBI                                        0502
A0101404840851217637020JULIUS G. ARGANA                                         0501
A0101404840851298552056ROSARIO GABAYERON                                        0501
B0101406750852687321002NAVARRETE, JERRY MIRANDA &                              11603
B0101406750852687321002COLOMA, FRANCES                                         21600
A0101406750852687321003NAVARRETE, JERRY M AND COLOMA,                          10505
A0101406750852687321003FRANCES ROSALIE                                         20500
A0601400230000005185866CHUA, MARK ANTHONY OR VELASQUEZ                         10504
A0601400230000005185866MYRICK OR LLAVE,                                        20500
B0601400230891043609001FUNDACION GRAMEEN PILIPINAS INC.                         1601
B0601400230891821200608**********                                               2001
