A0101410300000011355616BERTOLDO, YOLANDA MARIANO                                0501
A0101410300000011355514SISON, ERIC LOUIE OR SISON,                             10502
A0101410300000011355514AURORA MARGARET                                         20500
B0101409210000002783373WORLD TREE HOLDINGS CORPORATION                          1601
A3801400170000000154210HALCON C CHUA OR BEVERLY S CHUA                          0502
A0101410300000000191655VIRGILIO P. LABRADOR JR. AND                            10501
A0101410300000000191655RONIE A. SALEY                                          20500
A1301400500000000011343ARTURO C. BENEDICTO OR                                  10501
A1301400500000000011343AMELITA M. BENEDICTO                                    20500
A0101400860000000030360********                                                 0501
A0101400860011458859001**********                                               0501
A0101400860011498803002**********                                               0502
A0101400860011539633001**********                                               0502
B0101401250021016688001ST. MARY'S ACADEMY OF PASAY CITY, INC.                   1604
B0101401250021039454001PREMIUM PLASTIC GROUP MFG. CORP.                         1601
A0101401250021528042001UBALDE, JUMAR TALENTO OR                                10502
A0101401250021528042001UBALDE, ALONA POTESDA                                   20500
B0101400150061010975001PHILMETAL PRODUCTS INC.                                  1603
B0101400150061043419001SOUTH LUZON THERMAL ENERGY CORPORATION                   1606
A0101400150000002902263***********                                              0501
A0101400600071519944001********                                                 0501
A0601400100000005050333PEREGRINO, ARIEL PAMBID                                  0505
A0601400100000012776080ABUBO, CHRISTINE MARIE REYTANA                           0501
A0601400100000012776182AGUSTIN, PATRIXIA ANN ACOSTA                             0501
A0601400100000012776319ALFONSO, MARY ANN MANLAPIG                               0501
A0601400100000012776451ALLA, MARJORIE ANNE VERENDIA                             0501
A0601400100000012776600ALPAS, ROMELYN BONDA                                     0501
A0601400100000012776724AMARRADOR, CARLO MOISES DIZON                            0501
A0601400100000012776837AMBROSIO, PAULO AGUDO                                    0501
A0601400100000012776951ANGELES, JONATHAN JAY ABERIN                             0501
A0601400100000012777061ANTONIO, ALESSI DIZON                                    0501
A0601400100000012777181ANTONIO, GIOVANNI DIZON                                  0501
A0601400100000012777312ANTONIO, MARICAR MIRANDA                                 0501
A0601400100000012777432AQUINO, JUSTINE BANTING                                  0501
A0601400100000012777556AROMIN, MANNA PRECIOSA JOSE                              0501
A0601400100000012777692ASIS, RINA MAY .                                         0501
A0601400100000012777829AUSTRIA, KENNETH GAMBOA                                  0501
A0601400100000012777921AVASTHI, ASHU .                                          0501
A0601400100000012778060BACALE, MICHELENE CERVANTES                              0501
A0601400100000012778173BACOLOR, MAVERICK QUINTOS                                0501
A0601400100000012778300BALGUE, MARK PHILIPPE LOPEZ                              0501
A0601400100000012778435BALOLONG, JOSE .                                         0501
A0601400100000012778593BALTAZAR, BENNYLEE LUAT                                  0501
A0601400100000012778753BANAAG, CHEERY DAVID                                     0501
A0601400100000012778873BAQUING, JOVEN MAGCALING                                 0501
A0601400100000012779001BARAYOGA, KEVINPAULO CANLAPAN                            0501
A0601400100000012779154BASCO, JAY MOAJE                                         0501
A0601400100000012779245BASILIO, MYCO TABAQUERO                                  0501
A0601400100000012779405BAUL, REYMON TRANATE                                     0501
A0601400100000012779541BELGICA, JOE PERSON DOCTOR                               0501
A0601400100000012779661BERNARDEZ, PERCY IMMANUEL LOPEZ                          0501
A0601400100000012779803BIACORA, ABEGAIL TONGIO                                  0501
A0601400100000012779912BONDOC, RIZA MAE MANINANG                                0501
A0601400100000012780024BONDOC, HEIDY .                                          0501
A0601400100000012780137BORJA, ALLAN BASA                                        0501
A0601400100000012780240BORJA, LILYN LINGAD                                      0501
A0601400100000012780342BRIZA, JONATHAN SUMAGAYSAY                               0501
A0601400100000012780495CABANG, ELMER MARCELO                                    0501
A0601400100000012780611CABILDO, GILBERT GOPEZ                                   0501
A0601400100000012780757CALIMPUSAN, AILENE IGNACIO                               0501
A0601400100000012780860CALIXTO, RANDY SANTOS                                    0501
A0601400100000012781016CALMA, JENCELL PASCUA                                    0501
A0601400100000012781130CANDELARIA, ANNATERESA DELEON                            0501
A0601400100000012781272CANLAS, JAIMIE CASTRO                                    0501
A0601400100000012781396CAPARAS, XERLYNN VILLANUEVA                              0501
A0601400100000012781512CAPULONG, MA KATRINA TARUC                               0501
A0601400100000012781625CAPULONG, CARLO RUIZ                                     0501
A0601400100000012781772CARANGUIAN, JEROME SANCHEZ                               0501
A0601400100000012781921CARANTO, JOCELYN PALISOC                                 0501
A0601400100000012782053CARBUNGCO, JOSEPHINE GAMBOA                              0501
A0601400100000012782162CARIDAD, MELOIDA HERMOSURA                               0501
A0601400100000012782300CARLOS, ANGELICA AGUSTIN                                 0501
A0601400100000012782446CARREON, ERNIE COLLADO                                   0501
A0601400100000012782571CARREON, NINO ANTHONY KENNETH B                          0501
A0601400100000012782691CARTER, JESSA MAE MANEGO                                 0501
A0601400100000012782884CASTRO, NICA BULAUN                                      0501
A0601400100000012783001CENTENO, ANACEL SITCHON                                  0501
A0601400100000012783121CHAUHAN, RAHUL .                                         0501
A0601400100000012783234CHOI, COREY .                                            0501
A0601400100000012783381CHRISTIE, MICHELE LYNN ARBUES                            0501
A0601400100000012783490CLARIDADES, MA THERESA JENNIFER                          0501
A0601400100000012783632CONCEPCION, MA VERONICA JABA                             0501
A0601400100000012783730CONCEPCION, JOHN ERICK ARCEO                             0501
A0601400100000012783854CONCEPCION, SHARY DE JESUS                               0501
A0601400100000012784011CORDERO, FRANCES GRACE DUMO                              0501
A0601400100000012784102COSTUNA, ENRICO GODINO                                   0501
A0601400100000012784237CRUZ, MARIA JESUSA PANGILINAN                            0501
A0601400100000012784339CUA, ZENAIDA TERESITA QUINAN                             0501
A0601400100000012784442CUENCO, RAMIEL DE GUZMAN                                 0501
A0601400100000012784551CUENCO, KRISTINA MARIE CASTRO                            0501
A0601400100000012784664CUMIGAD, ANDRELYN FRAN                                   0501
A0601400100000012784799CUNAN, RAYMOND MICHAEL GOMEZ                             0501
A0601400100000012784891CUNANAN, RENEPAOLO TORRES                                0501
A0601400100000012784993CUSTODIO, MARIA THERESA MANGUNE                          0501
A0601400100000012785105CUY, ALEXANDER FAJARITO                                  0501
A0601400100000012785207DAHINA, JOANNAMARIE DOMINGO                              0501
A0601400100000012785332DAVID, TESSA ALEINA SIGUA                                0501
A0601400100000012785463DAVID, ROLANDO PINEDA                                    0501
A0601400100000012785612DAVID, ROMMEL GABARDA                                    0501
A0601400100000012785714DAVID, ROMMEL FRANCIS GOPEZ                              0501
A0601400100000012785838DE ARROZ, JONILYN PAGUNSAN                               0501
A0601400100000012785970DE GUZMAN, LUIS CARLO .                                  0501
A0601400100000012786108DE GUZMAN, PAOLO BADILLO                                 0501
A0601400100000012786233DE LEON, KEVIN DARBY MALLARI                             0501
A0601400100000012786331DE VERA, MARLENE FIGUEROA                                0501
A0601400100000012786400DE VERA, CHERYL TIAM                                     0501
A0601400100000012786535DE VERA, MIRASOL DE GUZMAN                               0501
A0601400100000012786637DELA CRUZ, MARIA LOLITA RAZON                            0501
A0601400100000012786740DELA CRUZ, JOHN BENNETH JAVIER                           0501
A0601400100000012786842DELA CRUZ, GERARD BRONZEE VALLO                          0501
A0601400100000012786951DELA ROSA, JAIME CARLO MARTIN                            0501
A0601400100000012787061DELROSARIO, KRISTINE UMALI                               0501
A0601400100000012787174DIAMZON, PAUL SANCHEZ                                    0501
A0601400100000012787298DIMABUYU, CHRISTOPHER ESPIRITU                           0501
A0601400100000012787436DIMAILIG, ARLEEN SORIANO                                 0501
A0601400100000012787550DIMALANTA, CHRISTINE CUARESMA                            0501
A0601400100000012787663DINGAL, ALAIN LACSON                                     0501
A0601400100000012787761DUNGCA, CRISTABEL LALU                                   0501
A0601400100000012787863DUNGCA, DEXTER QUIZON                                    0501
A0601400100000012787965ENRIQUEZ, RONALD CARPIO                                  0501
A0601400100000012788064ERMITANIO, HERBERT NOVENARIO                             0501
A0601400100000012788155ERMITANIO, HARIETTE JOY PEREZ                            0501
A0601400100000012788257ESCOPETE, DANIEL MENDOZA                                 0501
A0601400100000012788359ESTEVES, BEVERLY PINZA                                   0501
A0601400100000012788451FERNANDEZ, PAULA KRIS NA                                 0501
A0601400100000012788611FERNANDEZ, RONNIE VARONA                                 0501
A0601400100000012788702FERNANDEZ, FLORENCE DELA ROSA                            0501
A0601400100000012788800FERRER, MICHAEL RICHARD PABLO                            0501
A0601400100000012788968FIGUEROA, MAUREEN JANE MANANSAL                          0501
A0601400100000012789125FLORES, TYRONE RUMBEE ARELLANO                           0501
A0601400100000012789216FLORES, JANIS YUTUC                                      0501
A0601400100000012789381FORTO, JEMUEL SANAREZ                                    0501
A0601400100000012789523FRONDA, MARIA LINDA CISCAR                               0501
A0601400100000012789632GABOR, FLORDELIZA MENDOZA                                0501
A0601400100000012789734GACULA, EDWARD QUILARTO                                  0501
A0601400100000012789869GADIA, RIA RHESA USON                                    0501
A0601400100000012789961GALANG, MA ODETTE HERNANDEZ                              0501
A0601400100000012790080GALANG, ANDRE MACAPAGAL                                  0501
A0601400100000012790182GALAPIN, MARK JAYSON ESTOCHE                             0501
A0601400100000012790284GALBAN, CATHERINE DAYRIT                                 0501
A0601400100000012790386GANTAN, KELIA CHRISTA BRIONES                            0501
A0601400100000012790524GARCIA, ARISTOTLE ALBERT ANTONI                          0501
A0601400100000012790660GARCIA, ABIGAIL ROSE RAMOS                               0501
A0601400100000012790762GARCIA, ARISTOTLE MANINANG                               0501
A0601400100000012790893GARCIA, ARISTIDESARLON ANTONIO                           0501
A0601400100000012791009GARCIA, ACE PINEDA                                       0501
A0601400100000012791101GOMEZ, LEAH CABALLERO                                    0501
A0601400100000012791210GONZALES, CHRISTOPHER MENESES                            0501
A0601400100000012791345GUEVARRA, SHAYNE GABRIEL                                 0501
A0601400100000012791469GUIAO, RAFAEL OLALIA                                     0501
A0601400100000012791590GUILLEDO, NAIZA EVANGELISTA                              0501
A0601400100000012791743GUTIERREZ, LEEROY GACUSAN                                0501
A0601400100000012791852GUTIERREZ, JEROME .                                      0501
A0601400100000012791987HAKHOO, AMIT .                                           0501
A0601400100000012792086HALILI, ROMMEL CALARA                                    0501
A0601400100000012792213HENSON, ROSELLE BANAWA                                   0501
A0601400100000012792348HENSON, ANNA LIZA QUIAMBAO                               0501
A0601400100000012792491HERNANDEZ, SHIRLEY USI                                   0501
A0601400100000012792731ICMAT, JEFFREY DADIVAS                                   0501
A0601400100000012792888IMATONG, TREVOR BARRY MACAYANA                           0501
A0601400100000012793034INFANTE, PAULO LUGTU                                     0501
A0601400100000012793136IRAL, RONALD DIONISIO                                    0501
A0601400100000012793249JOHNSON, MILDRED NUNAG                                   0501
A0601400100000012793330JUTA, MICHAELA OCAMPO                                    0501
A0601400100000012793432KABIGTING, JONIE TRINIDAD                                0501
A0601400100000012793541KHOSLA, ANKUSH .                                         0501
A0601400100000012793676KROUGH, WEBSTER D                                        0501
A0601400100000012793825LA ROQUE, CYRUS LANCE DAVID                              0501
A0601400100000012793949LACUARTA, GENNY GUINTU                                   0501
A0601400100000012794059LAO, MARIO RUBEN PARAS                                   0501
A0601400100000012794162LEANDADO, MARIA CECILIA ELUNA                            0501
A0601400100000012794260LEJARDE, LIBERTY NULUD                                   0501
A0601400100000012794362LIBU, JOHN ELLIS VISDA                                   0501
A0601400100000012794453LIMPIN, RYAN JOSEPH DAVID                                0501
A0601400100000012794588LIWANAG, MITZ JHONA GOCO                                 0501
A0601400100000012794679LLANETA, LORENZO MISA                                    0501
A0601400100000012794839LORENZO, LEAH PINEDA                                     0501
A0601400100000012794920LOVENDINO, CARLO HIPOLITO                                0501
A0601400100000012795030LUMAGUE, CHERYL NUNAG                                    0501
A0601400100000012795150LUMBOY, MOHAMAD PINEDA                                   0501
A0601400100000012795241MABASA, JOSEPH WINSTON                                   0501
A0601400100000012795376MACABUHAY, ALAIDA SIGUA                                  0501
A0601400100000012795490MACAMAY, JAYSON DIMARUCUT                                0501
A0601400100000012795592MACAPAGAL, MAUREEN C                                     0501
A0601400100000012795718MACAPAGAL, JANICE CORTEZ                                 0501
A0601400100000012795843MADARANG, LEO TARUC                                      0501
A0601400100000012795923MADRID, CRISSALM DIORY CADAG                             0501
A0601400100000012796062MAGDANGAL, LEAH MARTINEZ                                 0501
A0601400100000012796153MAGO, DIANA MAY UMAYAM                                   0501
A0601400100000012796244MAHUSAY, JAMES DANIEL SABALO                             0501
A0601400100000012796368MALHOTRA, KIRANDEEP .                                    0501
A0601400100000012796460MALICDEM, RALPH JIMERICK RINO                            0501
A0601400100000012796562MALLARI, ARLON DATU                                      0501
A0601400100000012796660MALONZO, PAULINO SANTOS                                  0501
A0601400100000012796784MANALESE, JOY DELOS REYES                                0501
A0601400100000012796897MANALOTO, IRENE DAVID                                    0501
A0601400100000012797003MANARANG, LEA SINGSON                                    0501
A0601400100000012797112MANIBA, SHIELA MAY MACASPAC                              0501
A0601400100000012797236MANUEL, LESLEY JAN EDNALINO                              0501
A0601400100000012797372MANUNTAG JR, LUCENDO DAVID                               0501
A0601400100000012797470MARQUEZ, NATHANIEL PASUQUIN                              0501
A0601400100000012797594MASLIAN, CYNTHIA REMIENDO                                0501
A0601400100000012797703MATA, JAN ROWELL MENDOZA                                 0501
A0601400100000012797812MENESES, PATRICK SICANGCO                                0501
A0601400100000012797958MESA, QUIRINO MIGUEL VALENCIA                            0501
A0601400100000012798079MILLAN, PHILIP JASON TIO                                 0501
A0601400100000012798171MIRANDA, MA SHARON VALENZUELA                            0501
A0601400100000012798280MIRANDA, CLARENCE BUSTOS                                 0501
A0601400100000012798393MORIDO, REUBEN BACHINI                                   0501
A0601400100000012798495MUHALLIN, JANNO BENEDICT MONTIL                          0501
A0601400100000012798597MURPHY, KEVIN JOEL                                       0501
A0601400100000012798702NATIVIDAD, MAUREEN CASTRO                                0501
A0601400100000012798826NAVARRO, NOLI JUNE OCAMPO                                0501
A0601400100000012798928NEPOMUCENO, ROSE MARIE .                                 0501
A0601400100000012799050NEPOMUCENO, RACHQUEL CRUZ                                0501
A0601400100000012799152OCAMPO, OLIVER DELA ROSA                                 0501
A0601400100000012799261OLINO, JOY IRENE .                                       0501
A0601400100000012799403PABELONIA, ANDREA MANALAC                                0501
A0601400100000012799501PABIANO, MA JUNIEDAY ELISAN                              0501
A0601400100000012799614PALAGANAS, ROMARK GEORGE ARMOR                           0501
A0601400100000012799749PALICOS, CHRISTIANNE OFOOB                               0501
A0601400100000012799909PAMINTUAN, LOVELY ALIPOYO                                0501
A0601400100000012799972PAMINTUAN, ISHMAEL MARQUEZ                               0501
A0601400100000012800092PAMINTUANJR, ANTONIO PRESQUITO                           0501
A0601400100000012800183PANGILINAN, JERVIC PARTOSA                               0501
A0601400100000012800310PANGILINAN, CHITO MANUCUM                                0501
A0601400100000012800412PANGILINAN, JOSEPH CHRISTIAN DA                          0501
A0601400100000012800554PANTIG, KAREN TEJERERO                                   0501
A0601400100000012800690PARAAN, JEFFREY PADIERNOS                                0501
A0601400100000012800805PARAS, GIAN PAOLO TUAZON                                 0501
A0601400100000012800941PARRAS, JAMIE BERNABE                                    0501
A0601400100000012801039PARRAS, EDGAR JR GARCIA                                  0501
A0601400100000012801153PASION, MARICEL PANLILIO                                 0501
A0601400100000012801262PATAO, TRACEY RECABAR                                    0501
A0601400100000012801342PENA, ROWENA DELA ROSA                                   0501
A0601400100000012801411PENOLIAR, ESTHER SIANEN                                  0501
A0601400100000012801488PERDIDO, BABY JANE BALIBAGO                              0501
A0601400100000012801568PERIA, ARJUN ALFARO                                      0501
A0601400100000012801580PERLAS, JANIS PATRICIA CASUSI                            0501
A0601400100000012801604PICARDAL, DEXTER DENILA                                  0501
A0601400100000012801626PINE, ALEXIS JOYCE TABINAS                               0501
A0601400100000012801659PINEDA, PHIL NORMAN ICMAT                                0501
A0601400100000012801660PINEDA, ELEANOR ICMAT                                    0501
A0601400100000012801671PINLAC, EDGAR YUMANG                                     0501
A0601400100000012801682PRADHAN, RAHUL .                                         0501
A0601400100000012801693PRESCO, ARIENE MEDINA                                    0501
A0601400100000012801706PRESCO, REI BENELORD ROLLAN                              0501
A0601400100000012801717PUNSALAN, RAYMOND GUEVARRA                               0501
A0601400100000012801728QUIAZON, ERROL RIVERA                                    0501
A0601400100000012801739QUINTOS, ESTRELLA JASPE                                  0501
A0601400100000012801740QUITO, KRISHZA MAE SISON                                 0501
A0601400100000012801751QUIZON, ARCHIE ARTHUR PEREZ                              0501
A0601400100000012801762RACILES, RUBY ANN ROSE SANTOS                            0501
A0601400100000012801773RAJAN, TARON .                                           0501
A0601400100000012801780RAMORES, VICTOR GRANT .                                  0501
A0601400100000012801791RAPUANO, NICOLE .                                        0501
A0601400100000012801808RASAY, JOAN RACHELLE PARAS                               0501
A0601400100000012801820RENA, MARK IAN .                                         0501
A0601400100000012801831RESTUA, MARIA KATHRINA JALLORIN                          0501
A0601400100000012801842REYES, ARNOLD TINIO                                      0501
A0601400100000012801853RIVERA JR, EFREN BUENAFE                                 0501
A0601400100000012801860ROJAS, AIKA MARIE LAYSON                                 0501
A0601400100000012801871RONQUILLO, JAYNALD MASCARINA                             0501
A0601400100000012801882RUIZ, PRECIOUS ANNE TACTACAN                             0501
A0601400100000012801893SABILE, SHAIRA LYN ALANGILAN                             0501
A0601400100000012801900SABLAN, ROXANNE ZAMORA                                   0501
A0601400100000012801911SAHAGUN, ROMINIC ATIENZA                                 0501
A0601400100000012801922SAJO, MICHELLE MAGAT                                     0501
A0601400100000012801933SALAC, JANUS LUMBANG                                     0501
A0601400100000012801940SAMARES, JESSIE PARADERO                                 0501
A0601400100000012801951SAMSON, MARLON GUANLAO                                   0501
A0601400100000012802287IBO, CHARINA THERESE RIVERA                              0501
A0601400100000012775969SAMSON, KENNEDY MIRANDA                                  0501
A0601400100000012776046SANCHEZ, RELYN NUDO                                      0501
A0601400100000012776159SANCHEZ, JOSIE .                                         0501
A0601400100000012776273SANGUYO, MARK JAYSON GREGORIO                            0501
A0601400100000012776400SANTOS, KHIM CANLAS                                      0501
A0601400100000012776520SANTOS, EMILIE TIOTUICO                                  0501
A0601400100000012776633SANTOS, MARITESS ALFARO                                  0501
A0601400100000012776746SANTOS, JOSEPHINE BANGATE                                0501
A0601400100000012776859SANTOS, JOHN PAUL QUIAZON                                0501
A0601400100000012776991SANTOS, ANNA KARLA TRAJANO                               0501
A0601400100000012777141SANTOS, FLORA ALONZO                                     0501
A0601400100000012777301SAPIDA, JAMES LEMUELL ZULLA                              0501
A0601400100000012777410SEBASTIAN, BLECYL ANN GARCIA                             0501
A0601400100000012777534SHARMA, ANKIT .                                          0501
A0601400100000012777647SIBUG, CHANDLER .                                        0501
A0601400100000012777790SIGUA, MARILYN MUSNI                                     0501
A0601400100000012777932SILVERIO, EUGENIA JUSAY                                  0501
A0601400100000012778071SIMBULAN, JONEL RIVERO                                   0501
A0601400100000012778202SINIO, BOEM SUNDAE BINUYA                                0501
A0601400100000012778333SOLIMAN, FRANCIS NICOLAS                                 0501
A0601400100000012778480SORIANO, KRISTINE KAY SAPUL                              0501
A0601400100000012778617SORIANO, GLENN SANTOS                                    0501
A0601400100000012778720SOTTO, MARYANN CABALUNA                                  0501
A0601400100000012778851STANLY, NOEL .                                           0501
A0601400100000012778986STEVENSON, LEAH GALIT                                    0501
A0601400100000012779103STEVENSON, ROBERT PAYABYAB                               0501
A0601400100000012779212SUAREZ, MISHELL DAVID                                    0501
A0601400100000012779325SUGAY, ARNEL FRANCISCO HIPOLITO                          0501
A0601400100000012779427SUNGA, KATHLEEN DIZON                                    0501
A0601400100000012779552TALAVERA, ARJIENEL ORTEZA                                0501
A0601400100000012779650TANGLAO, MARIA NELLIE CONSEBIDO                          0501
A0601400100000012779774TAYAG, JENNIFER ROSE RONQUILLO                           0501
A0601400100000012779923TEKING, MARIA CORAZON ROTA                               0501
A0601400100000012780035THOMAS, MARISSA ZAPANTA                                  0501
A0601400100000012780160TIGLAO, GLAIZA SOLIMAN                                   0501
A0601400100000012780308TIGLAO, MONICA PIA ZABLAN                                0501
A0601400100000012780422TIONGSON, MARIA CRISTINA MASANG                          0501
A0601400100000012780553TOLEDANO II, JOSE RUPERTO                                0501
A0601400100000012780699TOLENTINO, ROSELLE SINDANUM                              0501
A0601400100000012780928TONGIO, JENNIFER MANALOTO                                0501
A0601400100000012781050TONGOL, ANGELICA CALMA                                   0501
A0601400100000012781170TORRES, LYNDON DE LEON                                   0501
A0601400100000012781294TORRIJOS, RAYMUND SIAZON                                 0501
A0601400100000012781385TUALLA, CECILIO ISIDRO ORANTES                           0501
A0601400100000012781501TUAZON, RICHELLE JULIAN                                  0501
A0601400100000012781614TUAZON, JONALYN LOBO                                     0501
A0601400100000012781761URBANO, MARLENE DULDULAO                                 0501
A0601400100000012781943VALLETE, ALELIE MIRANDA                                  0501
A0601400100000012782060VELISANO, JOSE LUIS MANGUBAT                             0501
A0601400100000012782195VENEGAS, ALEX GAMOS                                      0501
A0601400100000012782344VERMA, GAURAV .                                          0501
A0601400100000012782479VERMA, AMIT .                                            0501
A0601400100000012782582VILLALUNA, JONARD GUIANG                                 0501
A0601400100000012782708VILLAMUCHO, MARICRIS DELA PENA                           0501
A0601400100000012782862VILLAPANA, HELEN TIMBOL                                  0501
A0601400100000012782997VILLAR, MICHELLE KAY DE GUZMAN                           0501
A0601400100000012783132VILLAREY, GLEN DELA CRUZ                                 0501
A0601400100000012783256VILLARUEL, GENEMARIE .                                   0501
A0601400100000012783370VINUYA, KIMBERLY KIM LACANDOLA                           0501
A0601400100000012783518VIPUL, ARORA .                                           0501
A0601400100000012783610YTURRALDE, ALLEN MUNOZ                                   0501
A0601400100081566998001LAO, FREDERICK LI                                        0502
A0601400360000012802301ACOSTA, KIMBERLY CALZITA                                 0501
A0601400360000012802356AGUAS, ROSHARA VIANCA GONZALES                           0501
A0601400360000012802447AGUAS, ROSEANN SANTOS                                    0501
A0601400360000012802550AGUSTIN, LULEN SANCHEZ                                   0501
A0601400360000012802709ALDE, HAIDEE CANITES                                     0501
A0601400360000012802823ALEGRE, KRISTINE JOY MANARANG                            0501
A0601400360000012802943ALMARIO, AIMIFF MALLARI                                  0501
A0601400360000012803064ANDONG, JEN MARIE NARVAEZ                                0501
A0601400360000012803199ANDONG, EZEKIEL ROSARIO                                  0501
A0601400360000012803315ANGELES, ARSEL JOYCE PANGILINAN                          0501
A0601400360000012803451ANTONIO, LUIGI MIGUEL BARTOLOME                          0501
A0601400360000012803553ANTONIO, LEO CHRISTOPHER DE LEO                          0501
A0601400360000012803673ARCILLA, DONNA BELLE GOMEZ                               0501
A0601400360000012803833ARMADA, PAMELA LEANDICHO                                 0501
A0601400360000012803968BACANI, SHERRIE ANN BANGIT                               0501
A0601400360000012804089BANTING, JOSSEL MELO                                     0501
A0601400360000012804170BARLES, RACHELLE C                                       0501
A0601400360000012804272BASANES, VAN RAYMOND DELA CRUZ                           0501
A0601400360000012804443BASILLIO, RONNIE TUDIO                                   0501
A0601400360000012804596BELINGON, MARY JANE NO MIDDLE N                          0501
A0601400360000012804676BERNAL JR, DOMINADOR MENDOZA                             0501
A0601400360000012804836BIRCO, KAREN HUBILLA                                     0501
A0601400360000012804961BONDOC, PAMELA BATA                                      0501
A0601400360000012805071BUCUD, JOELLYN TOLENTINO                                 0501
A0601400360000012805180BULATAO, JENNY CASTRO                                    0501
A0601400360000012805282BURELL, ALRIC NO MIDDLE NAME                             0501
A0601400360000012805395CABARLES, MELVIN JUABAN                                  0501
A0601400360000012805500CABARLES, CARMENCITA BATANG                              0501
A0601400360000012805679CABRAL, JAMES MICHAEL AGUJA                              0501
A0601400360000012805828CABUYAO, RODEL LACBAYEN                                  0501
A0601400360000012805931CADAO, MYLA DAVID                                        0501
A0601400360000012806052CAGALAWAN, RONNIE SUAREZ                                 0501
A0601400360000012806183CAPILI, KING VILLANUEVA                                  0501
A0601400360000012806332CARANDANG, JOSE CARLO FRONDA                             0501
A0601400360000012806412CARPIO, JOALA LAYSON                                     0501
A0601400360000012806627CASIONAN, MICHELLE RABANAL                               0501
A0601400360000012806730CASTRO, DARLENE CANLAS                                   0501
A0601400360000012806843CAYANAN, RICARDO JR NO MIDDLE N                          0501
A0601400360000012806923CIMINI, RANIEL BAIS                                      0501
A0601400360000012807051CODUCO, HOMER JR MEREZ                                   0501
A0601400360000012807164CRUZ, MICHAEL PALMERO                                    0501
A0601400360000012807288CUANANG, JHEREMY JAMES LIM                               0501
A0601400360000012807391CUBACUB, DANNY BOY QUIRUZ                                0501
A0601400360000012807506CUELLAR, MONICAANGELICA RAMOS                            0501
A0601400360000012807693DAVID, RODYL MAGAT                                       0501
A0601400360000012807762DAYRIT, FREDENROSS ANSALE                                0501
A0601400360000012807900DE GUZMAN, LILIBETH VIROLA                               0501
A0601400360000012808021DE GUZMAN, MAIDA SANTOS                                  0501
A0601400360000012808156DE JESUS, RUPERT ALDRIN HORMILL                          0501
A0601400360000012808258DE MESA, JENIFFER BERNARDO                               0501
A0601400360000012808390DE PEDRO, RIZELLE ALEXANDRIA CR                          0501
A0601400360000012808470DEGUZMAN, ROBINJAY HALILI                                0501
A0601400360000012808601DEL FIN, KIMBERLYJOY SALCEDO                             0501
A0601400360000012808732DELA CRUZ, PAUL XAVIER SALACUP                           0501
A0601400360000012808867DELOS SANTOS, OMAR DIMALANTA                             0501
A0601400360000012808947DIZON, JUSTIN BALILO                                     0501
A0601400360000012809080DULAY, PERLITA JACOB                                     0501
A0601400360000012809182ESPANTA, ALLI SANDRA SANTOS                              0501
A0601400360000012809320EUSEBIO, CHRISTOPHER HERMOSA                             0501
A0601400360000012809473FAUSTINO, CHRISTIAN NUNGAY                               0501
A0601400360000012809586FELICIANO, RYAN RITZ TAPNIO                              0501
A0601400360000012809724FERNANDEZ, JOAN VENTURA                                  0501
A0601400360000012809826FRANCO, BILLY JOEL SIBAL                                 0501
A0601400360000012809906GALANG, IVY ROMERO                                       0501
A0601400360000012810029GALANG, SHIRLEY OCAMPO                                   0501
A0601400360000012810132GALLARDO, MICHAEL PUNO                                   0501
A0601400360000012810230GALVAN, RONNIE COSME                                     0501
A0601400360000012810376GANDEZA, ARLENE GULLA                                    0501
A0601400360000012810489GARCIA, GIAN LIJE NO MIDDLE NAM                          0501
A0601400360000012810570GARCIA, ARIEL MACATUNO                                   0501
A0601400360000012810729GARCIA, ADELOYD MELECIO                                  0501
A0601400360000012810861GARCIA, JERBY MEDINA                                     0501
A0601400360000012810985GECONCILLO, MARKJOHN ALAGON                              0501
A0601400360000012811142GERENTE, SHEMVYCHRIS CATACUTAN                           0501
A0601400360000012811255GESLANI, JULIET SANDOVAL                                 0501
A0601400360000012811380GOMEZ, RENZ ISMAEL MELECIO                               0501
A0601400360000012811506GONZALES, SUZZETTE GONZALES                              0501
A0601400360000012811722GOPEZ, RENE DAYRIT                                       0501
A0601400360000012811875GRANDE, DANILENE ANN RODRIGUEZ                           0501
A0601400360000012812003GUINA, HONEYLOU RIVERA                                   0501
A0601400360000012812167GUTIERREZ, DARWIN LOPEZ                                  0501
A0601400360000012812292HIZON, MELVINLEE MAGAOAY                                 0501
A0601400360000012812429IBE, ABIGAIL LISING                                      0501
A0601400360000012812532IGNACIO, LEAH GONZALES                                   0501
A0601400360000012812652IMPORTANTE, NOILYN COLOCADO                              0501
A0601400360000012812798JONES, DONNIE NO MIDDLE NAME                             0501
A0601400360000012812890JOSON, ERICSON DELA PENA                                 0501
A0601400360000012813002JOVEN, JOSE PAOLO MARQUEZ                                0501
A0601400360000012813159JUCO, ED JEFFERSON LISING                                0501
A0601400360000012813262JUICO, MARK LESTER TAGAPIA                               0501
A0601400360000012813393JUSON, NIKKI CLAIRE SONZA                                0501
A0601400360000012813495KAPIL, GOEL NO MIDDLE NAME                               0501
A0601400360000012813633LACSON, ARJAY DALAGAN                                    0501
A0601400360000012813804LAFUENTE, ANTONIO KITIMCO                                0501
A0601400360000012813906LASTIMOSA, ANDREW VIALA                                  0501
A0601400360000012814050LAYUG, SHERYL DULA                                       0501
A0601400360000012814130LOPEZ, JULIAN BYRA                                       0501
A0601400360000012814250LOPEZ, JUWENNES FELICIDARIO                              0501
A0601400360000012814385LUNOD, LORRAINE ANNE NICART                              0501
A0601400360000012814498LUNOD, EDISON REYES                                      0501
A0601400360000012814589MACALINO, EUNICE JANINE GOMEZ                            0501
A0601400360000012814750MACEDA, HAZEL JUNE MACASINAG                             0501
A0601400360000012814870MAGAT, MARIA FE SESE                                     0501
A0601400360000012814983MAGTUTO, RAMIL GONZALES                                  0501
A0601400360000012815111MALLARI, LIANNE MARIBHET JOI DI                          0501
A0601400360000012815220MANALO, RIZZA CALZADO                                    0501
A0601400360000012815333MANALOTO, LEONETH ANDREW ISIDRO                          0501
A0601400360000012815435MANASIS, RANULFO MELIDA                                  0501
A0601400360000012815560MANGILIN, ALVIN GARCIA                                   0501
A0601400360000012815708MANIEGO, DANDREB BALAGTAS                                0501
A0601400360000012815840MANIO, ERLEEN REGALA                                     0501
A0601400360000012815953MARIN, ALFIE MAGAT                                       0501
A0601400360000012816074MARTINEZ, JOHN DAVID BOGNOT                              0501
A0601400360000012816187MARZO, JEROME MAGPAYO                                    0501
A0601400360000012816303MASANGKAY, LAARNI LAXA                                   0501
A0601400360000012816416MATEO JR, ROBERT FRANCIS SAN DI                          0501
A0601400360000012816530MAZON, ALYSSA MARIE LISING                               0501
A0601400360000012816701MEDINA, MARIBETH PINLAC                                  0501
A0601400360000012816821MEJIA, PROCESO III NO MIDDLE NA                          0501
A0601400360000012816956MENDOZA, MARIA IMY YGRUBAY                               0501
A0601400360000012817066MERCADO, PRINCESS GRABRIELLE PI                          0501
A0601400360000012817179MICLAT, PATRICK JOSEPH MORENO                            0501
A0601400360000012817282MORCILLA, ROSEMARIE BERRY                                0501
A0601400360000012817431MUNGCAL, GENELINE TALAROK                                0501
A0601400360000012817595NARANJA, VALERIE HUBILLA                                 0501
A0601400360000012817711NAVALSEGARRA, JOVELYN NO MIDDLE                          0501
A0601400360000012817835NIDEA, JOCELYN DATU                                      0501
A0601400360000012817960NUGUID, NATHANIEL DELA ROSA                              0501
A0601400360000012818081NUNAG, ANGELICA MALLARI                                  0501
A0601400360000012818207OPENA, JAYBEE TABAN                                      0501
A0601400360000012818332PADILLA, ARMAR BESA                                      0501
A0601400360000012818452PALMA, LILYBETH NO MIDDLE NAME                           0501
A0601400360000012818587PAMINTUAN, JONAR VERGARA                                 0501
A0601400360000012818714PANGAN, JENNELYN CO                                      0501
A0601400360000012818827PANGAN, ARIES IBAY                                       0501
A0601400360000012818941PANGILINAN, EDWARD JOSEPH CORTE                          0501
A0601400360000012819073PARAS, CAROLINE SALEY                                    0501
A0601400360000012819171PASCUAL, FRANCIS AQUINO                                  0501
A0601400360000012819295PAULO, RHYSHA MAY EDU                                    0501
A0601400360000012819433PERIDAS, MICHAEL JOHN MAQUILLER                          0501
A0601400360000012819546PINEDA, RUTHLY DASALLA                                   0501
A0601400360000012819660PONIO, PRINCESS ZORAIDA OLETA                            0501
A0601400360000012819780QUIAMBAO, JENNIFER MERIALES                              0501
A0601400360000012819900RAMONEDA, CHERRYANNE PATIO                               0501
A0601400360000012820012ROBINSON, KATHLEEN NO MIDDLE NA                          0501
A0601400360000012820154ROMERO, JOANNE VALENCIA                                  0501
A0601400360000012820314ROQUE, NINA RICH YABUT                                   0501
A0601400360000012820461RUBIA, LEONARDO JR CACAO                                 0501
A0601400360000012820570RUTAO, JEAN LELAY                                        0501
A0601400360000012820694SAHAGUN, RENATO JR MALLARI                               0501
A0601400360000012820803SALUNGA, MARLA BERMUDO                                   0501
A0601400360000012820912SANTOS, RYAN JAY MIRANDA                                 0501
A0601400360000012821022SANTOS, JESSAIDA PAGULAYAN                               0501
A0601400360000012821157SANTOS, ARCHIE GARCIA                                    0501
A0601400360000012821339SANTOS, RHAYAN DELA CRUZ                                 0501
A0601400360000012821431SERRANO, MAY GALANG                                      0501
A0601400360000012821511SONZA, MONIQUE ANN BALUYUT                               0501
A0601400360000012821642SORIANO, KELVIN AQUINO                                   0501
A0601400360000012821777SOSA, RUBIE ANN DELA CRUZ                                0501
A0601400360000012821880SUMAGAYSAY, SHYLENE SORIANO                              0501
A0601400360000012822014SY, JOHN NO MIDDLE NAME                                  0501
A0601400360000012822161TABUGAN, ALEXANDER MEDINA                                0501
A0601400360000012822270TANHUECO, ALETSKY GUINTO                                 0501
A0601400360000012822401TEOXON, ANTHONETTE VARGAS                                0501
A0601400360000012822532UMBAC, ALFRED GARCIA                                     0501
A0601400360000012822667URQUICO, DEBORAH DAVID                                   0501
A0601400360000012822736VALLERO, DANICA ODOG                                     0501
A0601400360000012822861VICTORIA, DESIREE ANGELES                                0501
A0601400360000012823006VILLANUEVA, MERVIN JUSTINBASTI                           0501
A0601400360000012823119VILLANUEVA, MITCHELE THOMAS                              0501
A0601400360000012823233VILLEGAS, LORENNY CAPA                                   0501
A0601400360000012823342VINCOY, MARICHU CABUGUANG                                0501
A0601400360000012823466YUMUL, CRYSTAL LYN RENDON                                0501
A0601400360000012823579ZABLAN, MICHAEL SALA                                     0501
A0601400360000012823706ZARA, JERRY LEE MAGLAYA                                  0501
B0601400360000003186678SUAREZ, RAMON & SEBASTIAN II, CLAIRE &                  11601
B0601400360000003186678PENAFIEL, ALVIN                                         21600
A0601400520000009516963MANANSALA, MILDRED MUNOZ                                 0502
A0601400520000003009309DE LEON, RENATO ESTACIO OR                              10501
A0601400520000003009309MANGIRAL, JOCELY                                        20500
A0101413280000002317773LAPUS, MARIA TRISHA SOLER                                0501
B0101410850000001229663AMITY TRAVEL                                             1605
A0101410850000002356783NONES, EMMA RIVERA OR NONES,                            10503
A0101410850000002356783SAMUEL BERMUDEZ                                         20500
A0101410850000003503886GOMONID, JIMMY DEMAGNAONG                                0501
A0101410850000000005778****                                                     0501
B0101410850000003503733DELTA FIVE AGRI-VENTURES CORPORATION                     1610
A0101410850109061716001MONTEMAYOR JR., T DBU PRINCESS                          10501
A0101410850109061716001HANNAH TRUCKING                                         20500
A0101410850109066227001APAN, NICANOR J DBU ERLNICE                             10502
A0101410850109066227001CARGO SERVICES                                          20500
A0101406040000003332976********                                                 0501
B0101406040000003547631LUCKY5 CORPORATION                                       1601
A0101413150000011778217LIN, YINGYING                                            0503
B0101401830141032221001CARITAS ET LABORA HUMAN RESOURCE SERVICE                11610
B0101401830141032221001COOP.                                                   21600
A0101401830141409771001ALRIC P. BOBO                                            0501
A7201400170000003773120ASUGAS, GRACE MARIE NARCISO                              0502
A7201400170000003773273MERLIN, ERVING NOEL A. OR                               10501
A7201400170000003773273MERLIN, KAY ARLY                                        20500
B0101407270000000830459EMPRESSO CREATIVE CO.                                    1601
A0101407270162666343001GUERRERO, BENJAMIN GABBUAT                               0501
B0101401090171023583001RHEUMATOLOGY EDUCATIONAL TRUST                          11601
B0101401090171023583001FOUNDATION INC.                                         21600
A0101401090171195155001MA. AUXILIADORA R. REBURIANO                             0501
B0101401090000000034517DAGOHOY, HERMINIO OR BAUTISTA, FERDINAND                 1601
A0301400530193551185168QIU, YIYI                                                0502
A0301400660000008941033FERNANDEZ, GIL BREINARD SY OR                           10505
A0301400660000008941033REPONTE, RUBELYN                                        20500
A0301400790000003969542******                                                   0501
A0301400790000001776105ANG, DANILO DEE OR PANTINOPLE,                          10501
A0301400790000001776105ANTHONY GOZO                                            20500
A0101412500000003290053PISTA, ANA RUBY BERNARDO                                 0502
A0101412500000005300463PISTA, ANA RUBY BERNARDO                                 0502
B3101400160221032495001POWERSERVER MULTI-SERVICES CORPORATION                   1605
A3001400130000005708545FAYTONE, MARIA FATIMA MAGNO                              0502
A1001400350233633268008**********                                               0502
A1001400480000000041501SALVANA, RODOLFO L OR SALVANA,                          10510
A1001400480000000041501ELIZABETH C                                             20500
A1301400470000003270471MARIA CELINA DJ. SIMON                                   0502
A1301400470000004626886LOIDA FUNERAL HOME                                       0506
A1301400470252603370001CARLOTA T. HIPOLITO OR                                  10501
A1301400470252603370001ROCKY M. HIPOLITO                                       20500
B1301400760000000050762AMAZING GRACE CHRISTIAN SCHOOL OF                       11601
B1301400760000000050762CAB. CITY INC.                                          21600
A1901400290261244696002ELIZABETH G MUTIA                                        0502
A1901400290261298552105AIDA NABOS REYES                                         0501
A1901400290261488341070ALICE ESTOLANO DE CASTRO                                 0502
A0101401670271510404001******                                                   0501
B0101406460272038032004WEE COMMUNITY DEVELOPERS, INC.                           1602
A0101406460272411543002ZAMORA, KERI LYNN N. OR ZAMORA,                         10503
A0101406460272411543002FRANCISCO JAVIER                                        20500
A0101408660000006296780TOBILLO, PAUL JOSEPH NARVAEZ                             0502
A0101411820000000477054ESTORES, BELINDA DALISAY                                 0501
B0101400570000005666402AUDIO AUTOMATION AUTHORITY INC.                          1602
A0101400570000000165702MARIA CYNTHIA OR VICTOR ANTHONY                         10502
A0101400570000000165702STA. ROMANA                                             20500
A0101400570281670563001JANET M. MARTINEZ                                        0502
A0801400160311040177001TRI ADVERTISING                                          0501
A0801400160000002287556QUIMADO JR., NEMENCIO RODRIGO                            0502
A1101400120000000652675YU, ANTONIO ALMENARIO                                    0503
A1101400120000005608260SANITA, ERIC SALIENTE                                    0502
A1101400120000000652824NIPAL, MARIA TERESA RIVERA                               0501
A2001400290315641654001LOZANO, PALMA JANE LIMPIADO                              0501
A0101402350000010384368HUIDEM, JORGE HOMO DBU H.E. &                           10501
A0101402350000010384368G. ENTERPRISE                                           20500
B0101402350321367886001LITE SIGNS & DESIGNS INC.                                1602
A0101405650000001912107NAOE, PATRICIA ORONAN                                    0501
A0101402510341196451001EDMUNDO R. BADOLATO                                      0503
A0101402510341309469001CUARESMA, ESTHER ROGON                                   0501
A0101402510000010100811ALCALA, GINA CALA - OR                                   0504
A0101402060000000358623IMMACULATA, ROWENA MARTINEZ                              0501
A0101402060000005137337ESPINA, MARY ROSE SUMBILLO                              10501
A0101402060000005137337OR ESPINA, RENE                                         20500
B0101402060351009577003AGC FLAT GLASS PHILIPPINES, INC.                         1601
A0101402060351358628001VICENTE GIL ILUSTRE &/OR MARIA                          10502
A0101402060351358628001EVELINA ILUSTRE                                         20500
A0101409050352494647001LOIDA M. HONORAS                                         0501
A0201400760000006433398MELLADO, GLADYS GAY AGUILOS                              0503
B0201400760000006433401CHUA, JOSEPH DBU COMPOSTELA ICE PLANT                    1601
B0201400760000000040291KARGADOOR LOGISTICS CONSULTANCY                         11601
B0201400760000000040291SERVICES                                                21600
A0201400760374700415001GONZALES, ANTHONY GERARD YBANEZ                          0505
A0201400760000002047467**********                                               0501
B0201400920000000047910JR INVESTING CORPORATION                                 1601
B0101402930000008462460RED BIRD MULTIMEDIA CORP.                                1603
A0101402930381337834001CHESHIRE J. QUE OR                                      10502
A0101402930381337834001ROSEMARIE J. QUE                                        20500
A0101408370382391976001DR. MA. DIGNA M. PENA OR                                10502
A0101408370382391976001MARIO DANTE M. P                                        20500
B0101408790000002659129SUNFISH ASIA ENERGY SOLUTIONS INC.                       1603
A0101411660000006727666MA CECILIA SISON                                         0503
A0101402770391029270001RCABAN-SAN ANTONIO DE PADUA                              0501
A0101402770391529757018IBANEZ, JOSELYN B.                                       0501
A0101405490392173745001LUCIO P. DEL MUNDO OR                                   10502
A0101405490392173745001LALAINE A. DEL MUNDO                                    20500
A0101408400394027773002DIRECTO JR., ROGELIO VELASCO                             0501
A0101408400000006813647ANONUEVO, JOAN MALANO                                    0502
A0101409180397681135001UICHICO, ERNESTO FLORO                                   0501
B0101409210000000031192LSC CORPORATION                                          1602
A5501400120000002019023PINGOY, ALBERT YUSAY                                     0504
A5501400120000002949600HUERTAS, ALEX SUSTENTO                                   0503
B5501400120000000003265THE DOCTORS' CLINIC AND HOSPITAL, INC.                   1601
A5501400120410632176001MIGUEL, WILFREDO OR MIGUEL, EDI                          0501
A2401400180000000073550ALBARRACIN, JEMAR DEGAMO                                 0501
A2401400180000007031676CARINO JR., DOMINGO CHAVEZ DBU                           0501
A0901400220000010424921YOUNG, IRVIN MADRAZO                                     0501
B0101403030000005944738NAUTS AND VECTORS COMPANY INC.                           1607
A0501400170481046585002ANG, JUSSLYNN DBU                                       10504
A0501400170481046585002AVS DISTRIBUTION                                        20500
A0501400170481256494001ALFEO OR LALAINE BAUTISTA                                0501
A3801400170000005287932BAUTISTA, MARLON PAPA                                    0501
A1901400160000012769872LYDIA M. VILLAREAL OR BONNIELEE                         10501
A1901400160000012769872GERARD M. VILLAREAL                                     20500
A1901400160491282845001ARTHUR C MALALUAN OR                                    10501
A1901400160491282845001IRENE D MALALUAN                                        20500
B1401400110492010098001CASEI MARKETING CORPORATION                              1610
B1401400110492011585002LUCENA GREENVIEW, INC.                                   1602
B1401400110492365609001JEORGE S MALIGAT - PILIPINO HARDWARE AND                11601
B1401400110492365609001CONST. SUPPLY                                           21600
A1401400110492549990001**************                                           0502
B0101407430000007512052BT-AMPS TECHNOLOGIES, INC.                               1602
A0101407430503478374009HAIDEE F. LIM                                            0501
A0101403580000005328423MILAN, PATRICIA CELINE TAN                               0501
A0101403580511150595001MAXIMO P. MARIANO                                        0501
A0101403580511388107001ANTONIO G. PEDRO OR                                     10501
A0101403580511388107001FELISA C. PEDRO                                         20500
A0101405940000005067716ESPARTERO, ALIOTH S.                                     0502
B0101405940000000002751BASK DISTRIBUTORS, INC.                                  1603
B0101405940000000886762MYAPP CORPORATION                                        1601
B0101408530000010284972JUSTINO CORPORATION                                      1603
A0101408530516622804001HENRY P. CUREG AND                                      10505
A0101408530516622804001EDNA Y. CUREG                                           20500
A0101408530516741704001FILIO, MARIA LEONORA FLORENDO                            0501
B0101411790000007879096LANDPRIME FSP, INC.                                      1601
B0101403450521012212001JERRONE CORPORATION(RADO-CITIZEN SERVICE                11602
B0101403450521012212001CENTER-MAKATI)                                          21600
B0101403610531044363001RAIN'S PLACE CORPORATION                                 1602
A2201400250000003558190EDWIN S. ESPIRITU OR ANNA                               10501
A2201400250000003558190JESSICA S. ESPIRITU                                     20500
A2201400250561361310001LESLIE T.BAUN                                            0501
A0101410690000003027512MAGSOMBOL, ARJAY CANOBAS                                 0501
B0101404130601037502001JS PHILIPPINES GLOBAL CORPORATION                        1602
B0101404130601491951001LUGANO ENGINEERING CONSULTANCY                           1603
A0101407720000009414120PILLA, ZARRIE WAYNE ORTEA                                0501
A0101407720602162070001DR. CLEMENTE GATMAITAN OR                               10503
A0101407720602162070001CARLOS P. GATMAITAN                                     20500
A0101407720602162144001SUSAN ABAD OR ANTOINETTE                                10502
A0101407720602162144001KATRINA ONGKIKO                                         20500
A0101404260000000532125RIVERA, VINCENT BANIEL                                   0501
A0101404260611434067001BARROGA, NORA FLORESCA                                   0501
A0101409890000006813090DEL ROSARIO JR., FLORENCIO DBU                           0501
A0101407690000012290903PALACIOS, JACK RENE B.                                   0501
B0101407690652042381001AUGUSTO S. DE JESUS FARM & LIVESTOCK                     1602
A0101407690652556483001TERMINEZ, ALEJANDRO ABRIO                                0502
A0101413570000003379908CABANIG, MYRA MELAYA                                     0503
A1301400210682245617001RAQUEL M. MENDOZA                                        0501
A1301400210000003104952CLIMACO, RAQUEL INONCILLO                                0501
A1301400340683248882001SAW, EDUARDO LAI                                         0501
A1301400340683639556001DOMINGO, EDNA LARRACAS                                   0501
A1301400500000011951472BALITA-BRAGA, CECILE ARETA                               0502
A1301400500000000213210RBN ENGINEERING & DEVELOPMENT                            0503
B0101408240711023642001SAM SUNG PHILIPPINES CO., INC.                           1602
A0101408240711377890002******                                                   0502
A0101408240711393029002CHUA, ERLYN JOAN LIM                                     0501
B2801400100712020330001HOYA MARINE CORPORATION                                  1601
B2801400100712024577001PHILIPPINE COASTAL STORAGE AND                          11605
B2801400100712024577001PIPELINE CORP.                                          21600
A4101400260000012856281ABAD, JOSEPH MARI ANGELO ZAMORA                          0501
A4101400260000012856430ABADILLA, PERCIVAL SAULOG                                0501
A4101400260000012856543ABELLA, KELVIN MORRIS ODRIAL                             0501
A4101400260000012856652ABOT, VERGEL PRESBITERO                                  0501
A4101400260000012856801ACOSTA, DENNIS FAJARDO                                   0501
A4101400260000012856925ADAMS, WILLIAM NO MIDDLE NAME                            0501
A4101400260000012857024AGLIDAY, LALEIN MACARANAS                                0501
A4101400260000012857126AGUILA, EDWARD ANGELO DUAVIS                             0501
A4101400260000012857273ALA, ROSE ANNE BEO                                       0501
A4101400260000012857393ALANO, SHEELA MEI BERMAS                                 0501
A4101400260000012857502ALBA, RODOLFO JR GONZAGA                                 0501
A4101400260000012857600ALBERIO, MAVERICK REM RABE                               0501
A4101400260000012857702ALMARIO, JOY MALABANAN                                   0501
A4101400260000012857837ALTAREZ, MA EDISA HONOR RESTRIV                          0501
A4101400260000012857951AMAYA, SARAH OSIAS                                       0501
A4101400260000012858061AMBANTA, KURT JOSEFF NO MIDDLE                           0501
A4101400260000012858163ANOS, GILBERT BARLAAN                                    0501
A4101400260000012858272ANTONI, MA KARREN MOLINA                                 0501
A4101400260000012858410APACIBLE, FE MARIE CANEZA                                0501
A4101400260000012858534ARANETA, CRISTY ROBLES                                   0501
A4101400260000012858647ARANO, BEVERLY ANN EGUIN                                 0501
A4101400260000012858772ARBOLEDA, MARIA CRISTINA RECAID                          0501
A4101400260000012858892ARCOS, ROSA FRANCESCA VICTORINO                          0501
A4101400260000012859019ASO, GISSELLE GRACE BAUTISTA                             0501
A4101400260000012859111AYALA JR, LEOPOLDO SIERRA                                0501
A4101400260000012859231AYCOCHO, MA ISABEL DEL CORRO                             0501
A4101400260000012859333BAGAY, MARY JANE NO MIDDLE NAME                          0501
A4101400260000012859446BAGUE, ANGELICA DOLOR                                    0501
A4101400260000012859571BAGUE, GERANIEL DOLOR                                    0501
A4101400260000012859662BAILE, JONATHAN PEREZ                                    0501
A4101400260000012859793BAJANDE, JOSEPHINE EBINA                                 0501
A4101400260000012859913BALDO, CHERYL ABBU                                       0501
A4101400260000012860054BALMES, ELBERT NO MIDDLE NAME                            0501
A4101400260000012860167BALMES, YVES LAURENCE RIVERA                             0501
A4101400260000012860270BANAL, MELVIN BERALDE                                    0501
A4101400260000012860390BANZON, JENNY LYNNE PARUNGAO                             0501
A4101400260000012860543BARCELONA, ALAN PINEDA                                   0501
A4101400260000012860663BARDOS, EMMA ZHEQUIA MADRID                              0501
A4101400260000012860765BAROBARO, JUNEZEL DOMINGUEZ                              0501
A4101400260000012860889BARONDA, MICHAEL BENAVIDEZ                               0501
A4101400260000012861024BASA, ABBY MAY NO MIDDLE NAME                            0501
A4101400260000012861148BASILIO, SEDFREY ROY ALIGAN                              0501
A4101400260000012861262BASILLA, ANDRES COLANZA                                  0501
A4101400260000012861371BATTICK, JAMES NO MIDDLE NAME                            0501
A4101400260000012861495BAUTISTA, RACHELLE ANN BANDAL                            0501
A4101400260000012861600BAYOT, DONNA ORBETA                                      0501
A4101400260000012861735BELOCURA, BABY CELESTE QUINTO                            0501
A4101400260000012861860BETONIO, MICHAEL JOHN DAGANIO                            0501
A4101400260000012861973BHASKAR, SAURABH NO MIDDLE NAME                          0501
A4101400260000012862072BHATTARCHARYA, PRATIM NO MIDDLE                          0501
A4101400260000012862181BOLIGOR, RYAN NHEL DE LA CRUZ                            0501
A4101400260000012862301BORDEOS, KENNEDY MANALO                                  0501
A4101400260000012862454BORROMEO, CLARINDA GAYOSO                                0501
A4101400260000012862567BROWN, YVETTE BASILIO                                    0501
A4101400260000012862670BUENAVENTURA, RYAN RHONIEL NICO                          0501
A4101400260000012862783BUENAVENTURA, JUMARIL FLORES                             0501
A4101400260000012862909BUNA, WILLIAM CABRERA                                    0501
A4101400260000012863042CADELINA, JEAH MARIE ORTEGA                              0501
A4101400260000012863151CAMANAG, LOVELYN POSADAS                                 0501
A4101400260000012863253CAMPANG, JHOAN BONQUIN                                   0501
A4101400260000012863377CAPISTRANO, ALFRED MORA                                  0501
A4101400260000012863491CAPULONG, CATHERINE JOY SON                              0501
A4101400260000012863628CENTENO, MAILA SAMSON                                    0501
A4101400260000012863720CINCO, EDWIN GASTARDO                                    0501
A4101400260000012863840CLEMENTE JR, IGNATIUS ANTONIO H                          0501
A4101400260000012863964COLETA, MARY GRACE REYES                                 0501
A4101400260000012864063CORPUZ, HANNAH THERESE BALSAMO                           0501
A4101400260000012864187CRESCINI, JULUIS JOHN TANTAY                             0501
A4101400260000012864289CRUZ, CHEENEE MANANSALA                                  0501
A4101400260000012864392CRUZ, CATHERINE GARCIA                                   0501
A4101400260000012864490CUENCO, CHRISTIAN JOY GANADEN                            0501
A4101400260000012864643DATING, ARBIE DELA CRUZ                                  0501
A4101400260000012864763DAUDEN, MARC ANTHONY AGUINALDO                           0501
A4101400260000012864876DAYAO, ADELINE THERESE QUESADA                           0501
A4101400260000012864989DAYRIT, JEFFERSON LEUTERIO                               0501
A4101400260000012865099DE GUZMAN, ORCHID JOY BASAS                              0501
A4101400260000012865248DE GUZMAN, ROJO VIKTOR SISON                             0501
A4101400260000012865351DE LEON, MIKKO NO MIDDLE NAME                            0501
A4101400260000012865460DE LOS REYES, REX LORIAGA                                0501
A4101400260000012865584DULAY, MARICAR DE GUZMAN                                 0501
A4101400260000012865700DUCAY, NARVIN NO MIDDLE NAME                             0501
A4101400260000012865926DONES, JON MARK GUSTILO                                  0501
A4101400260000012866036DINGLASAN, JEFERSON SILVA                                0501
A4101400260000012866149DIMATULAC, MARIA ANNA CALINOG                            0501
A4101400260000012866263DIAZ, RAY JASON SALINAS                                  0501
A4101400260000012866361DIASANTA, GIAN CARLO ENRIQUEZ                            0501
A4101400260000012866485DELOS ANGELES, BABY ROSE ORAA                            0501
A4101400260000012866598DELFIN, GLADYS BORNILLA                                  0501
A4101400260000012866714DELA CRUZ, SHARON TIO                                    0501
A4101400260000012866849FERNANDEZ, REMUEL ARONG                                  0501
A4101400260000012866941FIRME, MEL ARVEEN MALIGAYA                               0501
A4101400260000012867051FORMENTERA, ARNIE ZONIO                                  0501
A4101400260000012867153FRANCISCO, SHERRYL FAJARDO                               0501
A4101400260000012867284DELA CRUZ, JENNIELYN CIFRA                               0501
A4101400260000012867386DELA CRUZ, RICHARD GABITO                                0501
A4101400260000012867488DELA CRUZ, RAECEL DELOS REYES                            0501
A4101400260000012867591DEL ROSARIO, MICHELLE CHUA                               0501
A4101400260000012867739DEL CARMEN, KATHERINE VELASCO                            0501
A4101400260000012867853DEGUZMAN, ARNEL HERMANO                                  0501
A4101400260000012867951DE RAMA, PAULO GERHARD NO MIDDL                          0501
A4101400260000012868072GENUINO, RODNEY PANIS                                    0501
A4101400260000012868196GERADA, APRIL ROSE TAHUM                                 0501
A4101400260000012868345GERVACIO, MANOLO JR RAMOS                                0501
A4101400260000012868458DE OCAMPO, ROXANNE JAVIER                                0501
A4101400260000012868561DE OCAMPO, NELSON GOMEZ                                  0501
A4101400260000012868681ESMA, KLYD BOLOCON                                       0501
A4101400260000012868812ESCALANTE, EMILOU GRACE SENTELL                          0501
A4101400260000012868910ENCABO, JAYSON PAUL DEL ROSARIO                          0501
A4101400260000012869042ELLANA, MARIVIC MEJIA                                    0501
A4101400260000012869155EDO, MYRA LOURDES MONTERO                                0501
A4101400260000012869280DUMASIS, ROGER ALLAIN DORONILA                           0501
A4101400260000012869406INCIONG, ROGEL OCAMPO                                    0501
A4101400260000012869520ESPALDON, PAUL JASON GENERAL                             0501
A4101400260000012869633ESPIRITU, MODESTA SARAZA                                 0501
A4101400260000012869764ESQUIVEL, LEA MONICA VICENCIO                            0501
A4101400260000012869877ESTEBAN, ANTONIO LEANDRO DE VER                          0501
A4101400260000012870003ESTENZO, QUEEZON DAVID                                   0501
A4101400260000012870127KAWASHIMA, MICK MERIS                                    0501
A4101400260000012870229KINTANAR, ROBERT JOHN PAUL SOBR                          0501
A4101400260000012870350LABANDA, RIEL ABANO                                      0501
A4101400260000012870463LADO, TRISHAJANE CANEDA                                  0501
A4101400260000012870576LALATA, VHENNA LYRA SOLICITO                             0501
A4101400260000012870678EVANGELISTA, JEAN FERNAN PATIAG                          0501
A4101400260000012870781FARILLON, JUCELYN LLOVIA                                 0501
A4101400260000012870890FELIX, CYNTHIA ANNE SANTOS                               0501
A4101400260000012871017FERNANDES, DAVID LLOYD SARIGUMB                          0501
A4101400260000012871120GABRIEL, JOYCE P                                         0501
A4101400260000012871211GALLARDO, ROSE ANN ZABLAN                                0501
A4101400260000012871331GALURA, JESSICA MAPULA                                   0501
A4101400260000012871433GARCES, TYANA MARCH MENDEZ                               0501
A4101400260000012871524GARCIA, HAZEL ANN GONZALES                               0501
A4101400260000012871648GATUS, WILLIAM VICTOR VICTOR                             0501
A4101400260000012871751GENTOGAYA, MARK JOSEPH VINELES                           0501
A4101400260000012871853GRAMO, JESSICA NOELINE AVILA                             0501
A4101400260000012871962GUTIERREZ, MONRYLL DE LEON                               0501
A4101400260000012872050HADLOCON, JULIE ANNE BORJA                               0501
A4101400260000012872174HERNANDEZ, RANIELA CUETO                                 0501
A4101400260000012872287ILEDAN, FREDERICK PAUL LUALHATI                          0501
A4101400260000012872389JACINTO, TREBOR JAC TESORERO                             0501
A4101400260000012872470JACINTO, LORD JAYSON TESORERO                            0501
A4101400260000012872572JAKOSALEM, MARJORIE FLORES                               0501
A4101400260000012872641JOSOL, MEZIEL ZOLETA                                     0501
A4101400260000012872750JUACALLA, PIERRE ALDRINNE MENDO                          0501
A4101400260000012872852GIRON, ARIES MARTIN GARCIA                               0501
A4101400260000012872943GO, MONILICE ANJI PEREZ                                  0501
A4101400260000012873042GONZALEZ, CHRISTINE ROMA SAN AG                          0501
A4101400260000012873144LONGNO, MARIVIC JULIO                                    0501
A4101400260000012873268MANDIGMA, GLEN ENTREDICHO                                0501
A4101400260000012873371MANZANES, JUNELLE ARELLANO                               0501
A4101400260000012873473MARASIGAN, MAY ANN MIRANDA                               0501
A4101400260000012873571MARIANO, JEFFREY SALCEDO                                 0501
A4101400260000012873695LOPEZ, JOHN DARWIN CAMANA                                0501
A4101400260000012873797LOPEZ, JOSEPHINE MONZON                                  0501
A4101400260000012873902LORICO, EMILENE JOY PILI                                 0501
A4101400260000012873991LORZANO, GLENN GUTIERREZ                                 0501
A4101400260000012874078MADRIAGA, MARIA KRISTINA TANCIN                          0501
A4101400260000012874205MAGAT, ALEXIS TALLADA                                    0501
A4101400260000012874318MALICDEM, JULIENNE AUSTERO                               0501
A4101400260000012874501MOJICA, GENNALYN DEJAN                                   0501
A4101400260000012874603MOTILLA, JOHN JYNELL CAPISTRANO                          0501
A4101400260000012874701MALING, ROSSWELL BELMONTE                                0501
A4101400260000012874836MALIPOT, JEREMY SAN DIEGO                                0501
A4101400260000012874927LAMOSA, DRAZEN RAY SALAS                                 0501
A4101400260000012875015LANI, JOSHUA BASTON                                      0501
A4101400260000012875128LAPITAN, DINO BERNARD FLORES                             0501
A4101400260000012875384OGOT, FRANCESCA MIRA MARTIN                              0501
A4101400260000012875486OLARTE, PATRICIA KAYE TERRADO                            0501
A4101400260000012875577OLVIDO, DANCIL DAGOHOY                                   0501
A4101400260000012875668ORAPA, ROBEL JUNE FRONTERAS                              0501
A4101400260000012875760LEDESMA, CHARO ANNE NO MIDDLE N                          0501
A4101400260000012875862LEGION, PAMELA VALENCIA                                  0501
A4101400260000012875960LEVARDO, ERWIN LESTER NOLA                               0501
A4101400260000012876081LILLO, RYAN RAYMUNDO                                     0501
A4101400260000012876183LIM, HAZELLE ANNE LEGASPI                                0501
A4101400260000012876274LIM JR, JOSEPH BENJAMIN NO MIDD                          0501
A4101400260000012876401PAGTALUNAN, JANET VILLANUEVA                             0501
A4101400260000012876514PAIGE, ANTHONY NO MIDDLE NAME                            0501
A4101400260000012876605PALATIS, HELEN TIO                                       0501
A4101400260000012876718PALOMARES, KAREN GONZALES                                0501
A4101400260000012876810LIMCOLIOC, ISAGANI DE LEON                               0501
A4101400260000012876901LINGAD, CHRISTIAN JEM TAPIRU                             0501
A4101400260000012877022LLANES, KRISTIAN JPAOLO NO MIDD                          0501
A4101400260000012877131MALLO, PERLYN PROLINO                                    0501
A4101400260000012877222MANALO, WYNN MARK BENITEZ                                0501
A4101400260000012877313PAREDES, EDDISON ALARCON                                 0501
A4101400260000012877448PASCUAL, CHRISTIAN PAULO SALLEG                          0501
A4101400260000012877551PASCUAL, MA ROSALINDA MESA                               0501
A4101400260000012877642PAYNAGA, JOSSIELYNN MARCO                                0501
A4101400260000012877733PEL, ALEXANDER BAUTISTA                                  0501
A4101400260000012877831MANALO, JAKIE LOU MILLER                                 0501
A4101400260000012877955MARILAG, LESTER EBRADA                                   0501
A4101400260000012878076MARIN, PAUL MARTIN GALINEA                               0501
A4101400260000012878178MARQUEZ, ALAN NOCHE                                      0501
A4101400260000012878270MARTINEZ, JOHN RONN TIANGSON                             0501
A4101400260000012878390MEDINA, ANNA MARIE GRACE REYES                           0501
A4101400260000012878470MENDOZA, CRISTINA LLEMOS                                 0501
A4101400260000012878572MIRANDA, MARJORIE ANN NO MIDDLE                          0501
A4101400260000012878674MURIERA, RYAN CALAZAN                                    0501
A4101400260000012878787NAPIZA, APRIL JAVILINAR                                  0501
A4101400260000012878903NIQUE, MILAGROS PORTILLO                                 0501
A4101400260000012879002OCCIDENTAL, EZRA LEA BELLUDO                             0501
A4101400260000012879115OCENAR, JIMMA NEPOMUCENO                                 0501
A4101400260000012879206ORDIALES, ERIKA MAE JAVIER                               0501
A4101400260000012879320ORENDAIN, MARVIN NO MIDDLE NAME                          0501
A4101400260000012879433ORIG, TONIEL AISIATICO                                   0501
A4101400260000012879520PACAUD, CHRISTOPHE GERARD LUNA                           0501
A4101400260000012879586PADILLA, EVANN KRIS CARILLO                              0501
A4101400260000012879677PAGADUAN, MARIFE DELA CRUZ                               0501
A4101400260000012879735REYES, LLOYD FUENTESPINA                                 0501
A4101400260000012879779RIVERA, MA LUISA PADILLA                                 0501
A4101400260000012879804RIVERO, MALAYA KRISTAL ESPINAS                           0501
A4101400260000012879837RIVERO, FRANCIA ESPINAS                                  0501
A4101400260000012879860RIZAL, JEAN TORRES                                       0501
A4101400260000012879882ROA, IRENE ATIENZA                                       0501
A4101400260000012879906ROBLES, JESS NORILLE LIMBO                               0501
A4101400260000012879928ROBLES, MA LOURDES BERNADETTE G                          0501
A4101400260000012879940ROCA, RAYMOND RELLY BORINAGA                             0501
A4101400260000012879951ROCHA, ERED DACLAG                                       0501
A4101400260000012879962RUBICO, MICHAEL JACK CADIZ                               0501
A4101400260000012879973RUIZ, KATRINA MAY PENARANDA                              0501
A4101400260000012879980SABANGAN, ENGELBERT PADASAS                              0501
A4101400260000012879991SALAMATIN, ERIC BEN                                      0501
A4101400260000012880007SALDIVIA, ALYSSA FAYE LLAVE                              0501
A4101400260000012880018SALIVA, KRISTINE CARINGAL                                0501
A4101400260000012880029SALVACION, RACHEL KATANGKATANG                           0501
A4101400260000012880030PAMINTUAN, MA CARMENCITA SISON                           0501
A4101400260000012880041PANES, JULIE ANN MOLDES                                  0501
A4101400260000012880052PANGANIBAN, JOON MARK SARMIENTO                          0501
A4101400260000012880063PANIQUE, KIMBERLYN BLESS LUMAND                          0501
A4101400260000012880070PARCO, JOMMEL DELA CRUZ                                  0501
A4101400260000012880081PO, AUDREY MAE CANDADO                                   0501
A4101400260000012880092POLINTAN, MARK VINCENT ARCHE                             0501
A4101400260000012880109PONDEVIDA, JHOMARI NARVAEZ                               0501
A4101400260000012880110POONNARK, EDWARD SANTOS                                  0501
A4101400260000012880121PORTALES, ACE MICHAEL DIENTE                             0501
A4101400260000012880143PULGO JR, MARIO JOSE ERA                                 0501
A4101400260000012880150PUTAL, RAFAEL LADD BAUTISTA                              0501
A4101400260000012880161QUIOC, JOHN KARLO LEYTTE                                 0501
A4101400260000012880172QUISEL, IRENE PICKRELL                                   0501
A4101400260000012880183RAMOS, EDRIANE AMORIN                                    0501
A4101400260000012880194RAMOS, PAUL IVAN BERNAL                                  0501
A4101400260000012880201RANARIO, RUSSEL AMARLES                                  0501
A4101400260000012880212RAURAS, RUBY MIRANDA                                     0501
A4101400260000012880230REGALADO, NEIL KEVIN BARBON                              0501
A4101400260000012880241REMO, MA THERESA GERONIMO                                0501
A4101400260000012880252REOSORA, DAVE HARRIS BERNAL                              0501
A4101400260000012880263REYES, JOSHUA JOHN GRANDE                                0501
A4101400260000012880274PENA, VERONICA PANGGO                                    0501
A4101400260000012880285PENSON, JANE TESTADO                                     0501
A4101400260812032880001WE'LL CARE BUILDER &                                    10502
A4101400260812032880001CONSULTANCY SERV                                        20500
B4101400260000001198881NAGA CRUSHING ROCK AND DEVELOPMENT                       1610
A4101400390000001732441MARILYN DELOS REYES RICAFRENTE                          10502
A4101400390000001732441DBU RICAFRENTE SMOKE                                    20500
A4101400550000010508777GUYA, MARICRIS CANLOG                                    0502
B4101400550815043037001BETAFOAM CORPORATION                                     1601
A4101400550000000506892RUBY M. RUIZ                                             0501
A4101400550815693134001LLANES, TUDOR HERNANDEZ OR                              10501
A4101400550815693134001LLANES, PRESCILL                                        20500
A0101412340000003341988FATIMA ROSE T. COJUANGCO                                 0501
A0101404840851413610001GUIRIT, CLARITA E.                                       0501
A0101405070000000741393URSAIS, FELICITAS OR URSAIS JR.                         10502
A0101405070000000741393CIRIACO                                                 20500
A0101405070861401501001ROLDAN, JOSEPHINE MARAVILLA                              0503
A0101405070000003439741ALARO, JHON REY PADURA                                   0501
B0601400230000010299211RD PAWNSHOP, INCORPORATED                                1605
