A0101406040000000096946PHILIP COLE REYES                                        0501
A0101404840000000122658MARIFE DE CASTRO                                         0501
A4101400550000000199382VILLANUEVA, ALLAN MERZA                                  0501
A0101404840000000254595JESSICA P. SALCEDO                                       0501
A0101405490000000444546******                                                   0501
A0101402060000000445425LIMJUCO, DIANA GOROSPE                                   0501
A0101400730000000645410ASIS, REDENTOR CONSTANCIO                                0501
A0101400150000000806677EMELITA PURISIMA                                         0501
A0101402930000000859565ARLEEN A. CRUZ                                           0501
A1601400170000001069147JEZZALEN A. DIZON                                        0501
A0601400520000001120385BANAG, ESMERALDO PINEDA                                  0501
A0101414120000001142863*****                                                    0501
A0101403030000001302123**********                                               0501
A0201400920000001331793TAYLAN, BENEDICTO PE BENITO                              0502
A0101400730000001697265CAWALING, MARY ANN                                       0501
A0101400730000001822657MARY JANE P. SHAKEEL                                     0502
A0101400310000001842800REGUNAN, ROGELIO TORIBIO                                 0501
A0101413860000001887023FRANCISCO, MILAN CORTEZ                                  0501
A2601400270000002257201KATHERINE M. GALINGANA                                   0502
A0901400220000002300812**********                                               0502
A0101411660000002309417ROMERO, MICHAEL LAGMAN                                   0503
A2001400290000002319520CADAMPOG, JOSE GLENN CENIZA                              0501
A0101412890000002324192*************                                            0503
A0101400310000002659647GARCIA, JOY MARTHA DELA CRUZ                             0501
A0101405490000003178374LOURDES BERNADETTE B. CERRADA                            0501
A0101412340000003340467KAREN CHARLLOTTE A AGLIPAY                               0502
A0101412340000003343564MICHAEL U GARRIDO                                        0501
A0101408820000003377662ARCIGAL, ELMA DE JESUS                                   0501
A0101404260000003498419LACAP, LARINA LUSABIA                                    0501
A4101400550000003839247RICTER BUILDERS                                          0501
A1301400500000004093087ME-ANN'S EGG DEALER                                      0501
A0101409180000004375246ESMA, MARIE CELESTE LICERALDE                            0501
A0101409180000004375337RAMOS, ENRICO                                            0501
A0101411790000004537775GLAZER, CHERRYL MORANO                                   0501
A0101400860011551733001MARIA TERESA S ESTANDARTE                                0502
A0101401250021698692001ROCELIE M. PALMOS                                        0501
A0101400150061720595156MARIA CRISTY AZANES                                      0501
A0101400730111203514002MA. CECILIA G. CRUZ                                      0501
A0101400730111387834003GONZALES, CHERRIELEN SALAMANCA                           0501
A0101400730111452394001LOPAE, GRACE SAFLOR                                      0501
A0101401090171331007001JONAS Y. SANTIAGO                                        0501
A0301400660194084735001LABARITE, JOSEFA MANCERAS                                0502
A0101401380201179684001ANTONIA C. CUNETA                                        0508
A0101400310211165218001MELANIA JOCOY                                            0503
A0101400310211330256001LIM, CHARLES LIM                                         0505
A0101400310211478374093ANITA F. CANON                                           0501
A0101400310211753220001GERMABI CORPORATION                                      0501
A0101407140213026790001**********                                               0502
A3101400450223466114002NATIVIDAD, GINA DUNGO                                    0503
A1901400290261244490001SONIA PINPIN BRIONES                                     0502
A1901400290261547956001REYES, ELMER OBVIAR                                      0502
A0101406460272381558001********                                                 0502
A0101402350321036762001TRADE SPECS BUILDERS                                     0503
A0101402480331220053003ALCARAZ JR., JOSELITO S.                                 0501
A0101402480331380455001********                                                 0501
A0101402510341331222002ERLINDA C. RECOCO                                        0502
A0101402510341441640001TAN, WILLIE LO                                           0502
A0101409050352621588001KATHERINE TIU - PINEDA                                   0510
A0101409050352621588002KATHERINE T. PINEDA                                      0510
A0101402640361422235001GAYOD, NORA VELMA MATIAS                                 0502
A0101402640361478374071RANIEL B. CALIPES                                        0501
A0101402930381552082001CATABAY, JOEL GALOPE                                     0501
A0101408370382205236001DR. CYNTHIA A. AGUIRRE                                   0502
A0101408370382425270001ARLENE C. CABANGANAN                                     0501
A0101408400394478374075VIOLETA I MANUEL                                         0501
A0101408950396389054001LUZ, XERES DIMALALUAN                                    0501
A0101408950396563183001HUERTO, ANTONIO PETRONIO SIMPAO                          0502
A0101406330472217737001ARR MARKETING & GENERAL MDSE.                            0501
A0101405940512458148001DACLES, MARICAR LAGRIMAS                                 0501
A0101408530516571877099BAN A. CAPON                                             0501
A0101403610531219680004RONWHEELS PARTS & ACCESORIES                             0501
A0101403610531370621001KUMAR, MANISH                                            0502
A0101407720602318369072RUTH B. ORILLAZA-CHI                                     0501
A0101404260611478374048CHERRY F. NAIGAR                                         0501
A0101404260611478374115FE S. BONDOC                                             0501
A0101409920650089841001SIA, REYNALDO CABRERA                                    0503
A1301400340683385493002ORBE, SUSAN JUSON                                        0502
A1301400340683540272001REMO, MA. CARMELITA MENDOZA                              0501
A0101408240711418819006RICA S. BAGATSING                                        0503
A0101408240711606837001MAYS, CHERYL ANN                                         0501
A4101400420814563726001TWANO, ANGELITO DIZON                                    0502
A4101400420814572265006JOCELYN M. TWANO                                         0501
A4101400420814572265007JAILANE J. CALILAP                                       0501
A0101404840851520766124MARGIE A. PEREZ                                          0501
A0101406750852617055001PUA, HERMINIA SALAS                                      0501
A0101405070861008886002AD INT'L. SS & MS                                        0510
A0101405070000000260313FLOGIO, JONATHAN FRANCISCO OR                           10501
A0101408660000000373073ROBERTO MONROY OR                                       10501
A2601400270000000561682JANET A. GELACIO OR                                     10503
A2601400270000000561762EDGAR M. ROSETE OR EMELITA R.                           10503
A0101400730111198710001FERNANDEZ, HENRY F. OR                                  10502
A0101400730111703359001JAVIER, MAGDALENA DIONISIO                              10505
A0101401090171467544001ANDREI DOMINIC A. AVELLANOSA                            10501
A0301400660194731082088PEJI, JUNE ANN SOLER OR PEJI,                           10506
A0101400310211051063001NEDA BALADAD OR ARCELIE AGBALOG                         10504
A0101400310211161171001GAYUNDATO, IMELDA OR                                    10501
A0101400310211162533001BACALLAN, JOYCE OR                                      10502
A3101400160221329641001CARMELITO F. CARACUEL JR. OR                            10501
A1001400350233559184001KHO, PACITA T. OR CORDERO,                              10501
A1901400290261007151001OBLATES OF SAINT JOSEPH                                 10515
A1901400290261056851001KU, LORENZO CO DBU HANG CHOW                            10501
A0101408950396565472001DEBBIE GUANI DY MEGUIZO OR                              10502
A1901400160491405481001CARMELA P LLANA OR                                      10501
A0101407430503378430001DOUGLAS ARTHUR U. LIMTONG OR                            10501
A0101407430503385656002JANE R. LIMTONG OR                                      10501
A0101404130601693981001LIMSICO, ALFREDO OR LIMSICO,                            10501
A0101404130601695706001LIMSICO, LYDIA K. OR                                    10501
A0101407720602379811001NOEL S. AYPA OR MA. CARMEN                              10502
A1301400340683756924001ALIPIO,ALEXII MAGTIRA AND                               10501
A4101400260812246527001ISIDRO B. DELA CRUZ JR. OR                              10520
A0101406750852078501001TAKEDA, RACQUEL G. OR                                   10502
A0101405070000000260313FLOGIO, IMELDA S.                                       20500
A0101408660000000373073ANNELLE MONROY                                          20500
A2601400270000000561682BARTOLOME L. GELACIO                                    20500
A2601400270000000561762ROSETE                                                  20500
A0101400730111198710001FERNANDEZ, AMELI                                        20500
A0101400730111703359001OR MAJAR B. JARDIOLIN                                   20500
A0101401090171467544001OR ANGEL MA. S. AMPIL                                   20500
A0301400660194731082088JONATHAN CORTES                                         20500
A0101400310211051063001DBU VON MIGUEL S                                        20500
A0101400310211161171001GAYUNDATO, ALFRE                                        20500
A0101400310211162533001BACALLAN, FATIMA                                        20500
A3101400160221329641001ROWENA B. CARACUEL                                      20500
A1001400350233559184001KORINA K.                                               20500
A1901400290261007151001(PHILIPPINE PROVINCE)                                   20500
A1901400290261056851001GARDEN RESTAURANT                                       20500
A0101408950396565472001DONALD JUDE UY M                                        20500
A1901400160491405481001VINCENT WIGBERT P LLANA                                 20500
A0101407430503378430001JANE R. LIMTONG                                         20500
A0101407430503385656002TONY U. LIMTONG                                         20500
A0101404130601693981001LYDIA OR LIMSICO, OLIVER                                20500
A0101404130601695706001LIMSICO, OLIVER K.                                      20500
A0101407720602379811001TERESA G. AYPA                                          20500
A1301400340683756924001DE GUZMAN,MELITONA ALIPIO                               20500
A4101400260812246527001LILIAN H. DELA CRUZ                                     20500
A0101406750852078501001JULAO, FLORENCE                                         20500
B0101405810000000016884PLASTIC CONSUMER CORP.                                   1602
B0101405490000000019981H.E. & G. ENTERPRISES                                    1601
B0101402480000000028191QUALIGEN PHARMACY CORP.                                  1603
B0101408950000000036826SLMC GLOBAL CITY ER                                      1602
B0101410300000000191622TEAM SOURCES ALKOASIA COMPANY                            1603
B0101414090000000399504JUANASPA CORP.                                           1601
B0101402480000001100023QUALIGEN PHARMACY CORP.                                  1603
B0101407430000001213205CHANNEL OF BLESSING ENTERPRISE INC.                      1601
B0101411400000001280615MULTIMIND INTERNATIONAL AB                               1603
B0101408820000001766867******                                                   1605
B0101414120000001984290GREENENERGY SOLUTIONS INC.                               1602
B0101400310000002659772YAP, SHERYL TANGCO DBU CENTURY HARD                      1602
B3001400130000003434648HAPPYALL3 BUILDERS CORPORATION                           1603
B0101400860011374740004**********                                               1603
B0101401830141037764001MICHAELJONA TRUCKING SERVICES, CO.                       1602
B0101401830141043121002ASIA DIRECT CONSOLIDATORS INC.                           1610
B0101400310211021165001FIL CONCEPT INC.                                         1605
B1901400290261025650002FIESTA HOME CENTER (FHC) CORP.                           1610
B1901400290261034107001FIESTA WORLD MALL CORPORATION                            1610
B0101401670271042155002D C SANDIL CONSTRUCTION AND REALTY                       1605
B0101406460272039835001TECHNOMED INTERNATIONAL, INC.                            1605
B0101406620273009495006CITISECURITIES, INC.                                     1601
B0101411110276046529088BOOK MEDIA PRESS INC.                                    1606
B0101402480331033229024TGP DRUGSTORE                                            1603
B0101402480331033229030TGP DRUGSTORE                                            1603
B0101402480331039628005TOTALGENERICS PHARMACY INC.                              1603
B0101402480331748556002QUALIGEN PHARMACY CORP.                                  1603
B0101402480331748556004QUALIGEN PHARMACY CORP.                                  1603
B0101408820333042436001TM TOPS MERCHANDISING                                    1605
B0101402640361043708001DSS EMPLOYEES' MULTI-PURPOSE COOPERATIVE                 1610
B0201400890376013530017RD PAWNSHOP, INC.                                        1610
B0101406330472046636001ENERTECH SYSTEMS INDUSTRIES, INC.                        1610
B1401400110492013980002IMPERIAL APPLIANCE PLAZA                                 1601
B1401400110492041768001************                                             1603
B0101403450521012056001**********                                               1602
B0101404130601018669002QUALITY SHOE CARE PLUS, INC.                             1601
B0101404130601771934002LEE, RENATO MUNAR AND YAN, EDWIN C.                      1601
B1301400500684046206001TRIGON ENTERPRISE                                        1601
B0101408240711026617001TOKYO HEALTHLINK, INC.                                   1602
B2801400100712031823001REYES, DIANO, TUMANDA & CO.                              1602
B0601400100081024450001ANGELES FORTUNE HONGKONG SEAFOOD                        11610
B1001400350233076793001BINHI MICROENTERPRISE DEVELOPMENT                       11605
B0201400760374531639001INTELLIGENT BEAUTY SKIN                                 11602
B0101403320471008859001NEW LITE LUMBER & CONSTRUCTION                          11602
B0601400100081024450001REASTAURANT INC.                                        21600
B1001400350233076793001FOUNDATION INC.                                         21600
B0201400760374531639001SOLUTIONS INC.                                          21600
B0101403320471008859001SUPPLY                                                  21600
B0101400730111821100608**********                                               2005
