A0101405810000000016559CHUA, HEMAN LAO                                          0501
A0201400890000000028048ENGRACIAL, JEFFREY GLORIA                                0501
A0101407690000000053881********                                                 0502
A1901400290000000135220MARGGIE LUMBERA SALES                                    0501
A0101413990000000206022BAUTISTA, LOLITA SUAREZ                                  0501
A0101400440000000342390APOSTOL, MARLO RAMOS                                     0502
A0101405490000000444671******                                                   0502
A0101402060000000445549CRUZ, CRIS HERBERT MARTIN                                0505
A0501400170000000494640PADLAN, FRANK ABARRA                                     0501
A0101410140000000499054SANSON, N DBU V.A.N.C. GENERAL                           0502
A0101400440000000596630MARY ANN A. OYARDO                                       0501
A3001400130000000668526DIONG, EVANGELINE BALANSAG                               0502
A0101405650000000772992BALUBAR, TEODORA VILLEGAS                                0501
A0101408820000000800280MELANDRA SENA                                            0501
A1301400340000000926789SAMPIANO, SAHARA PAUTE                                   0501
A0101405810000001021229MALONE, LARRY S.                                         0501
A3101400450000001149291BALDOVINO, ISABEL VALDOPENA                              0501
A1301400760000001295369LEIF KRISTOFFER M. CORPUS                                0501
A0101402770000001571284DELA PENA, EMMA CAPARROS                                 0501
A0101400150000001708221B.P. ASTUDILLO                                           0501
A0301400790000001776190JULAILY, ROMEO AROBO                                     0502
A1701400230000001786832TAYLAN, ABSALOM MARCOS                                   0502
A0101405650000001911940BARBERS, RAINIER LOUISE PENA                             0501
A1101400120000001920678PALMA, JHOWIEN ROYO                                      0502
A1901400290000001926398JOCELYN OROLA DE LUNA                                    0501
A0101409920000001951873MEM OF NATASHA SHIRLEY FIGUERAS                          0501
A4101400550000002091021PIYEZA MOLINO AUTO PARTS                                 0503
A0101407560000002307502GABRIEL, MA. LIZA CORDON                                 0502
A0101402510000002785619MORALES, MA. RANIE FERNANDEZ                             0501
A0101401700041752697001********                                                 0502
A0101400150061232043002WILSON RICARTE                                           0501
A0101400150061564610141EMMIE N. AVENA                                           0502
A0101405810072234574001**********                                               0503
A0101405810072374800002ZHANG, XIANGYING SY                                      0501
A0101405810072383141002WANG, CIHAI                                              0502
A0101405810072508809001LEE, YANNILYN TAN                                        0502
A0101400730111520766063MICHAEL T. VILLAMAR                                      0504
A0101401960121614040001SY, EDERICK MELITON TONG                                 0501
A0101400440161039572045DOVIE T. JERMIA                                          0502
A0101400440161039572063EVELYN Y. BALLADARES                                     0501
A0101401090171198756002MARILOU OR MYLA SANTIAGO                                 0501
A0101401090171560160001MA. ROSARIO IRENE D. CASTILLO                            0501
A0101401380201564133001NABLO, RODOLFO ORANTE                                    0501
A0101407140213190365001**********                                               0503
A0101407140213193549002**********                                               0501
A3101400450223478374005DE LEON, MA. FE G.                                       0502
A1001400190231520766026AYSON, ROWENA L                                          0501
A1001400350233478374001JUNIO, ROGELIA A.                                        0501
A1901400290261042311009DR. CORNELIO CUAYZON ONG II                              0501
A1901400290261298552118CONCEPCION GONZALES ESTIGOY                              0501
A1901400290261356002001MARICEL REJANO LUCERO                                    0501
A1901400290261387614001LAILANE MANDO CUSTODIO                                   0503
A1901400290261488341053DRA. HELEN PEREZ COMIA                                   0501
A1901400290261530754004DESSIRE MALALUAN ONG                                     0501
A0101406620273306796043RICA MARIA R. MANGAHAS                                   0502
A0101400570281347924003BATARA, JULETTE-MARIE FELICIANO                          0510
A0101400570281395118001HONEYLIN C. ROXAS                                        0501
A0101405650322171725001LANTAN, NORIZA ENRIQUEZ                                  0501
A0101405650322176826001LINAN, ESTRELLA NERI                                     0501
A0101405650322298552015EMELITA P. ERALINO                                       0501
A0101408820333159328001AIDA M. GENERALI                                         0501
A0101402510341202149003AMALIA L. ABUSTAN                                        0501
A0101402510341595415001ESTRELLA, MARIA LANI SARAJAN                             0502
A0101402060351464138001SALAZAR, CHRISTINE ANN DELA CRU                          0502
A0101409210398071502001DE GUZMAN, DENNIS CASTILLO                               0501
A0101407430503338970002MISHEL MISTAS                                            0502
A0101403610531035023001KAXWAX, INC.                                             0504
A0101403610531042775001POINT PLUS DIGITAL PRINTING AND                          0501
A0101403610531219680004RONWHEELS PARTS & ACCESORIES                             0501
A2201400250561078548001BENIGNO M. ALMAYDA                                       0510
A0101407720602373276001MACAPAGAL, ANTONIO RAMIREZ                               0502
A0101407690652535280001PABLO, ERNESTO DELA CRUZ                                 0502
A0101407690652621379001LAO, LORRAINE DELA CRUZ                                  0502
A0101410720653478374001MILAGROS F. TAN                                          0501
A0101410720653478374054CRISTINA CALDERON                                        0501
A0101410720653579026001PROLOGO, JORDAN CAMINO                                   0502
A0101407560686172632001JAMES B. VERGARA                                         0501
A0101407560686544131001ORLANDO B. LEONARDO                                      0501
A0101408240711397533001RONALD P. MERCADO                                        0501
A0101408240711478374019ESTUYE, GILDA PLACIDES                                   0505
A4101400260812247613001LUZVIMINDA J. ESTOCADO                                   0501
A4101400390813292154001ANGELO OR MARIE LYN MOLATO                               0502
A4101400420814520766097ORIENDO, CECILIA B.                                      0501
A4101400420814520766138SAN PEDRO, ANA LIZA                                      0501
A0101413860000000145008GALICIA, MARY ANN GONZALES JT                           10501
A0101413860000000145060VICENCIO, RENATO G. DBU                                 10502
A0601400360000000225250GUIAO, JEFFREY BONUS DBU J3A                            10510
A0101405490000000355571MA ANASTACIA S. OR RITA THERESE                         10501
A1601400170000000497490MARIO M. SILOS OR AUDREY MELDY                          10502
A0101413990000000631883NEBRIA, ESTER PUJOL OR                                  10504
A0101407690000001919797RODRIGUEZ, PAULO DBU PARIZ-AIRE                         10501
A1901400290000001926274GIRLIDIA SANCHEZ PANALIGAN OR                           10501
A3001400130230687040108JAQUE, ROMEO /OR                                        10510
A1001400350233506665002EMMANUEL C. LIMBO OR HELEN M.                           10505
A1001400350233653751008CHABON JR., JUDE OR                                     10502
A0101405650322172897001ORTILLO, JOEL OR                                        10502
A0101408370382449935001DR. ALBERT JEROME C. QUINTOS                            10502
A0101408370382660357001DRS. THERESA MARIE R. CACAS OR                          10501
A5501400120410636391018CHIU, JULIA EILEEN OR CHRISTEL                          10501
A0501400170481253773001BAUZON, MARLON P. OR                                    10502
A0101403610531508580001ARZOLA, MATHEW MERVIN M. OR                             10501
A0101407720602283353001ERWIN HERNANDEZ OR                                      10502
A0101407690652298552010ANGELINA CANETE - DEALERS OF                            10502
A0101407690652478374139NELIDA DELA CRUZ - DEALERS OF                           10503
A0101407690652520766005GILNNA M. MALIGAT - DEALERS OF                          10501
A0101407690652520766020JUDY MAE YAP - DEALERS OF                               10502
A0101407690652520766034ANNABELLE P. TANALGO - DEALERS                          10501
A0101407560686435124001OROGO, TERESITA OR MIGUEL OR                            10502
A4101400420814475511001CELESTINO, FLOR OR EDWARD OR                            10501
A4101400420814481492001MADERA, EILEEN SOLANO OR                                10501
A0101413860000000145008DAVID, ERLINDA                                          20500
A0101413860000000145060RENATO G VICENCI                                        20500
A0601400360000000225250FOODLINE JT GUIA                                        20500
A0101405490000000355571S. DELA MERCED                                          20500
A1601400170000000497490GALLARDO OR JEREMY MATTI                                20500
A0101413990000000631883NEBRIA, NATHANIEL CIRUNAY                               20500
A0101407690000001919797AIRCONDITIONING SVC CTR                                 20500
A1901400290000001926274RODOLFO MARANAN PANALIGAN                               20500
A3001400130230687040108JAQUE, CONCORDIA                                        20500
A1001400350233506665002LIMBO                                                   20500
A1001400350233653751008CHABON, CLAIRE                                          20500
A0101405650322172897001ORTILLO, JASMIN                                         20500
A0101408370382449935001OR MA. FININA A. QUINTOS                                20500
A0101408370382660357001JEANNE MARIE R. MARQUEZ                                 20500
A5501400120410636391018OR CHRISTOPHER                                          20500
A0501400170481253773001BAUZON, MARIBEL                                         20500
A0101403610531508580001ARZOLA, MARIA LANLET C.                                 20500
A0101407720602283353001AGNES HERNANDEZ                                         20500
A0101407690652298552010SHOECAT INC.                                            20500
A0101407690652478374139SHOECAT.INC                                             20500
A0101407690652520766005SHOECAT INC.                                            20500
A0101407690652520766020SHOECAT INC.                                            20500
A0101407690652520766034OF SHOECAT, INC.                                        20500
A0101407560686435124001MARIBETH                                                20500
A4101400420814475511001AIMEE                                                   20500
A4101400420814481492001MADERA, ABEGAIL                                         20500
B0101411530000000013623ADARNA GROUP FOUNDATION INC                              1601
B0101402060000000022766SUMMA WATER RESOURCES INC.                               1603
B0101407690000000025032GOLDLINK NETWORK SOLUTIONS INC.                          1601
B1301400760000000050740TILAH CORPORATION                                        1603
B0101400440000000337893BIGRED DIGITAL IMAGING                                   1601
B0301400950000000566945BIG Z QUALITY FOODS CORPORATION                          1605
B2201400250000001066131EXCELLENT TEAM INTERMARKETING INC.                       1601
B2201400250000001066142WOWFUL CHOICE MARKETING, INC.                            1601
B0801400160000001289870MARY JANE GASOLINE STATION                               1601
B0201400760000001612835GLOBAL STAR MOTORS CORPORATION                           1601
B0201400760000002047109SY, ARTHUR KENNETH LIM                                   1602
B0101400150061023257001**********                                               1602
B0101405810072018018001**********                                               1602
B0101405810072642761001***************                                          1601
B0101405810072642761001***************                                          1601
B0101410560110045564001S\M. LAZO MEDICAL CLINIC, INC.                           1610
B0101401960121024740001**********                                               1605
B0101400440161024825001UYB PRINTING CORPORATION                                 1601
B0101401380201030648001ITEMP HOLDINGS INCORPORATED                              1601
B0101406620273025674001PHIL. GAME FISHING FOUNDATION INC.                       1602
B0801400160311013980001VIC IMPERIAL APPLIANCE CORP.                             1650
B6601400120314041984001SAMNEST FOOD CORPORATION                                 1602
B0101402510341020561002PHILIPPINE PHARMACISTS ASSOCIATION                       1601
B0201400760374032939001GATEWAY MOTORS (CEBU), INC.                              1610
B0201400890376717564001***************                                          1601
B0101409210398044082001ALABANG AUTO EXCHANGE                                    1603
B5501400120410042897008MARBEL UNIVERSAL TRADING, INC.                           1602
B0101403320471030588001TACTICAL PERFORMANCE  (TPC) CORPORATION                  1610
B0101403610531302489001R SQUARE WASTE MANAGEMENT SERVICES                       1602
B0101409890649044639001BISKWIT CO.                                              1603
B0101410720653028089001INOCENTES REALTY & SALES CORPORATIO                      1602
B0101410720653038296001CREATIVE DESIGNLABS INC.                                 1602
B0101407560686009918001ACQUISITIONS INDUSTRIAL CORP.                            1602
B2801400100712022658001SUBIC MONTESSORI SCHOOL INC.                             1601
B0601400230891029282001L5 & SONS FINANCING CORP.                                1605
B0901400220000000888122AEJ HARDWARE CONSTRUCTION & ENTERPRISES                 11604
B0101405490000001092488NORTHSHORE HARDWARE & CONSTRUCTION                      11602
B3001400130230048097001PENALOZA, VICTOR DBU UBIC BEARING AND                   11603
B1401400110492046339001SOUTHERN QUEZON PACIFIC OIL MILL                        11605
B0101404420631702579001ROSITA B. SAMONTE OR                                    11601
B0901400220000000888122MANUEL VERAR JR.                                        21600
B0101405490000001092488SUPPLY                                                  21600
B3001400130230048097001SEALS DEPOT                                             21600
B1401400110492046339001CORPORATION                                             21600
B0101404420631702579001RENATO J. TAYAM                                         21600
