F0101400570281347924002JULETTE-MARIE F. BATARA, M.D.                            2505CKO
F0101407300395418711001LUKBAN, HELEN BELLEN                                     2505CKO
F0201400180181051540001CUYOS, ABUNDIA DBU GOLD &                               12501CKO
F0201400180181051540001ART PRINT                                               22500CKO
F0101409890000000049147BIG QUEEN FOODS CORPORATION                              2606CKR
F3101400580452015475002INDEPENDENT TELEPHONE COMPANY                            2604CKR
