B0101410850109821200608**********                                               2002
A0101400150061563463002VANZUELA, BEVER LIZA BRUCE                               0501
A1001400350233526734002BORROMEO, MA CAROUSEL LUMAPAS                            0502
A1001400350233543683001DONGGAY, CERAEL CAGA-ANAN                               10502
A1001400350233543683001OR DONGGAY, FELI                                        20500
A0101412890000002324192*************                                            0503
A0101410850109066380001ORAYLE, GENEROSO B DBU PAN DE                           10501
A0101410850109066380001OLE' BAKESHOP                                           20500
A1001400480000001054711VILIRAN, PRINCESS SYBIL BADAJOS                          0502
A0101410300000006278602LEONCIO, MIKAELLA ALCANTARA                              0501
A0101410300000007614004RIMANDO, CARLO MEYNARD SANTOS                            0502
A0101400860011035923001**********                                               0502
B0101400860011459113001**********                                               1602
A0101400860011495265001**********                                               0502
A0101400860011498256002**********                                               0502
A0101400860011608631001**********                                               0501
A0101401250000004980576EVANGELISTA, ELAINE DEL ROSARIO                         10502
A0101401250000004980576DBU GILLAINE STORE                                      20500
A0101400150000000807636TESALONA, MARIA CLAUDETTE CRUZ                           0501
A0101400600071233721001**********                                               0502
A0601400100000006334005MORADA, FLORDELIZA ZABALATE                              0501
B0101410850000000005665BASECO SHIPYARD CORPORATION                              1602
A0101401960121096152001***************                                          0502
A0101401960121238686001****************                                         0501
A0101413310000009910385PLANA, ZARAH ABESAMIS                                    0501
A0101401830141536580001ALFONSO L. GAGUI JR. OR                                 10502
A0101401830141536580001MARIA BELLA A. GAGUI                                    20500
B7201400170000003773637MDSDOC CORPORATION                                       1601
A5001400170000005705200ASPRER, IVY GAMALINDA                                    0501
A0101407270000010200667JAMLIG, CARLO RAMIRO BUENAVENTU                          0501
B0101407270162037605002MAINE CITY PROPERTY HOLDING CORP.                        1605
A0101401090000000210373MARC ROBERT LADISLA OR MARIA                            10510
A0101401090000000210373VICTORINA LADISLA                                       20500
A0301400530000002318561VILLANUEVA, FEDERICO MAGPAYO OR                         10501
A0301400530000002318561VILLANUEVA, MARI                                        20500
A0301400530193709171001MARIA THERESA R. TAG AT OR                              10501
A0301400530193709171001ZEUS CHRISTOPHER                                        20500
A0301400660000002348552MANILA, KEDDALEN MAE ARFAPO                              0502
A0301400790000003969597SENERES, LEO VILLAREAL OR                               10502
A0301400790000003969597SENERES, ALLEN MORAN                                    20500
A0101410720000000211930NAPOCOR VILLAGE MULTI-PURPOSE                           10501
A0101410720000000211930COOPERATIVE                                             20500
B0101413600000004661541DVF DAIRY FARM, INC.                                     1610
A3101400160221478374061ANDREA E GOLVEO                                          0501
A3001400130000005708545FAYTONE, MARIA FATIMA MAGNO                              0502
A1001400190000005709253SANTOS, METCHIE ABAYON                                   0501
A1001400190231520766006DELFIN, LORENA                                           0501
A1001400190000002170612BAJUYO, MARJORI B                                        0501
A1001400190000002266662MARY JOY S. MASTAIL                                      0501
B1001400350233036049001RANTRADE INDUSTRIAL SALES CORPORATION                    1601
A1901400290000005565922AVELINA KATIGBAK RECTO                                   0501
B1901400290261023671001PONDONG BATANGAN COMMUNITY                              11602
B1901400290261023671001FOUNDATION, INC.                                        21600
B1901400290261023671002PONDONG BATANGAN COMMUNITY                              11601
B1901400290261023671002FOUNDATION, INC.                                        21600
B1901400290261036122001LODLOD PARISH MULTI-PURPOSE COOPERATIVE                  1605
A1901400290000001975302MARELLA SALONGA DE CASTRO                               10501
A1901400290000001975302DBU FIVE M'S TRADING                                    20500
A1901400290261298552056TERESITA EUGENIO PUNZALAN                                0502
A1901400290261390520001JOEL PUNZALAN DIMAANO                                    0502
B0101401670271026611001MERGE MARKETING STRATEGISTS INC.                         1602
A0101406620000010200952GENTILES, SILYN GRACE SUCALIT                            0501
A0101406620000010201017LABAYANI, ANTONIO GERONA                                 0501
A0101406620000010201040LUNA, JUDITH ANN MAE MATUNDAN                            0501
A0101406620000010201091MARTINEZ, GEORGINA CAROLINA YAM                          0501
A0101406620000010201119NERVA, APRIL ANN BELIGAN                                 0501
A0101406620000010201131PAJE, ROMMEL VENTURA                                     0501
A0101406620000010201153TABILLA, EDELIZA MEDINA                                  0501
A0101406620000010201171TUPE, JOSEPH ALMAR AQUINO                                0501
A0101406620000009018622******                                                   0505
B0101411110000000604959**********                                               1601
A0101400570000000749673MICHAEL B. SANTOS                                        0502
B0101400570281018010001EARLY STEPS SCHOOL CORPORATION                           1602
A0101400570281047282001WORLDTECH ENGINEERING &                                 10503
A0101400570281047282001INDUSTRIAL SALES                                        20500
A0101411240000005136469SANTIAGO, MA. CORAZON DIZON DBU                         10502
A0101411240000005136469CORS ENTERPRISES                                        20500
B2601400270302046854001H.A. DULDULAO & CO., INC.                                1605
A6601400120314593270001DIAZ, REO DBU RUDMAR TRADING JT                          0505
A6601400120314617688001CARANZO JR., EXUPERANCIO OR                             10502
A6601400120314617688001CARANZO, MARY                                           20500
A2001400290000003160790REPEROGA, ROLAND LIM                                     0503
A0101402510341487199001NESTOR B. ESTABILLO                                      0503
A0201400760000008869765*********                                                0501
B0201400760374030513001RQLIM RESOURCES, INC.                                    1601
B0201400760374047477001MARRO MARKETING CORPORATION                              1601
A0201400760374520766001CARULASAN, KRIZIA JANE BUGO                              0501
A0201400760374705541001FELICEN, CARLITO                                         0501
A0201400920375609447001RAMIRO, MARIA ARCELI AVANZADO                            0501
B0201400890376683863002**************.                                          1603
B0201401020000003031152VIRLO CONSTRUCTION DEV. CORP.                            1610
A0101408370000006446039LABIO, MADALINEE ETERNITY DIZON                          0502
A0101411660000005238477LUCAS, MARIA ROSELLE                                     0501
A0101402770000007921033ABDULRAHMAN, ROWENA DITUCALAN                            0502
B0101402770000006812473STEELITE CONST. CORP.                                    1602
A0101405490392029745001MESINA BROTHERS, INCORPORATED                            0502
A0101408400394027889001TINA S. BERIN FLOWER SHOP                                0505
A0101408400394066507001RODRIGUEZ, J DBU                                        10501
A0101408400394066507001TECHNOROD BUILDERS                                      20500
A0101408400394089355097MENDOZA, MA. JAZELLE SARANGILO                           0501
A0101408400394478374062APOLIS, SALVACION G.                                     0502
A0101408400394507696001WEE, NORMAN VINCENT LEE                                  0502
A0101409210000007763013VILLALUNA, BERNIE INJUG                                  0501
A0101409210000007762965YABUT, FHREA MYLIE NEMIS                                 0501
A0101412210000000031450ZARATE, FRANCIS RYAN P. OR                              10501
A0101412210000000031450ZARATE, JOHN MICHAEL P.                                 20500
A0301400820000007135060ROSALITA, JEFF MARK LAMPAGO DBU                         10502
A0301400820000007135060JMR ENTERPRISES                                         20500
B5501400120000005492402PRIMOS UNIDOS FOOD CORPORATION                           1601
B2401400180411032703001TOYOTA GENERAL SANTOS INC.                               1610
A2401400180411304827001JONATHAN ERWIN VILLASIS OR                              10501
A2401400180411304827001DORIZZA VILLASIS                                        20500
A2401400180411514423001DEALA, BERNARDITA GATCHALIAN                             0503
B0901400220432043554001GERRY'S GRILL                                            1603
A0101403030441239049001**********                                               0501
A0101403030441325147001**********                                               0501
A0101412890000000007514RICO T RIVERA DBU WISEMIX                               10502
A0101412890000000007514CONSTRUCTION SUPPLY                                     20500
A0501400170000002357359SINO CRUZ, KRISTOFERSON GARCIA                           0502
A0501400170000000494651CHU, FELICIANA DBU NEW                                  10502
A0501400170000000494651POZORRUBIO MERCH                                        20500
B0101407430000000035247PNC GARNET PROPERTY HOLDINGS                            11602
B0101407430000000035247CORPORATION                                             21600
B0101405940512036731001NEW MARKETLINK PHARMACEUTICAL CORP.                      1601
A0101408530516508072001TOMACRUZ, ANTHONY R. OR                                 10501
A0101408530516508072001TOMACRUZ, MA. GERARDINA                                 20500
A0101411400000002301148TORRES, ELENA MANLULU                                    0501
A0101411790000006648053VILLANUEVA, RONABETH I.                                  0501
A0101411790000010203155CATRAL, KRISTEL DIANA PASCUAL                            0501
A0101411790000004807938IGNES, REYNALDO DBU GOLDENREY D                         10502
A0101411790000004807938MARKETING                                               20500
A0101412050000006005163**********                                               0502
B0101412050519061409001O.S.A. CLEAN AND COMFY LAUNDRY AND DRY                  11602
B0101412050519061409001CLEAN SERVICES                                          21600
B0101403450521022302001**********                                               1602
A0101403610531220148001LUMBANG, RAQUEL VIAJE                                    0501
A2201400250561478374010ZENAIDA L. REYES                                        10501
A2201400250561478374010MEMBERS OF NATASHA                                      20500
B0101404130601018669001QUALITY SHOE CARE PLUS, INC.                             1601
A0101407720602165627001DR. ALVIN M. SANTOS OR                                  10502
A0101407720602165627001DR. NORA FIGUEROA-SANTOS                                20500
A0101409920000001951840MEMBERS OF NATASHA (SHOECAT INC                         10501
A0101409920000001951840RAMOS, MARILYN                                          20500
A0101413570656057648197MA. JENNILYN PADUA                                       0501
A0101413570000005867310LEJANO, VIRGILIA PAHAYAHAY DBU                           0505
A0101406590662209694001MOZO JR., VIRGILIO DELA CRUZ                             0501
A1301400210000007669289GONZALES, MARK OLIVER SANTIAGO                           0503
A1301400210682037806001MANG PABLING MARKETING                                   0502
B1301400210000005041029AIROCLAD INCORPORATED                                    1601
B1301400340000006402502********                                                 1602
A1301400340683087471001BAUTISTA, GINA AQUINO OR                                10502
A1301400340683087471001BAUTISTA, RODERICK                                      20500
A0101408240711377890002******                                                   0502
A0101408240711417400001PAGUNSAN, ANSELMO JR. OR                                10501
A0101408240711417400001JULIANA                                                 20500
A2801400100000002253538DE GUZMAN, JOSELITO MENDOZA                              0501
A2801400100712401674002DEL ROSARIO, DANILO LARACAS                              0501
A2801400230000001734761FERMIDA CONSTRUCTION SERVICES                           10501
A2801400230000001734761AND SUPPLIES                                            20500
A4101400260000000048957RENTA PE CAUSING & SABARRE LAW                           0502
A4101400260812245420001EDUARDO B. SIMON OR                                     10501
A4101400260812245420001CATALINA I. SIMO                                        20500
A4101400390813478374014ELIZABETH V. EVAL                                        0502
A4101400420000008280604VITAMOG, JERIELENE REYES DBU KI                          0501
A0101412340000009948463SHIENEL M. RONCAL                                        0501
A0101404840851217637095MELINDA VILLAGOMESA                                      0501
A0101404840851298552056ROSARIO GABAYERON                                        0501
A0101404840851520766067JOSEPHINE V. GABAYERON                                   0501
A0101406750000006303180ESTROPIA, ISMAEL CIFRA                                   0501
A0101406750852478374100GLENDA DALOGDOG                                          0501
A0101405070000002282139GUARIN, JULIAN BRIONES                                   0502
A0101413860000001886866AMIRIL, AMILBAHAL HASSAN                                 0501
A0601400230000003015830BERSALES, DAVISON MANLAPAZ                               0502
A0601400230000006045552PINGUL, LYDIA FERNANDO                                   0501
A0601400230000007954110ANGELES, PAUL BENIGNO TONGOL                             0502
