B0101405490392821100608**********                                               2003
B0101408660274821100608**********                                               2005
B0101412210000010833695MAXX LUNA COFFEE CORPORATION                             1602
A0101400150000009400793MALLARI, MA. REENA JOY APAN                              0501
B01014006000712341850010ALAY, FRANCISCO OR BALAY, MELLY                        11601
B0101400600071234185001BALAY, ANDREW                                           21600
A0101400600071637415001CHAN, DOMINGO MATONDO                                    0501
A0101405810072234892001**********                                               0501
A0101405810072390933001**********                                               0502
A0101405810072490012001***************                                          0505
A0101414090000007236428DOMINGO, GUIA GALA                                       0501
A0101410560000002316616LORILYN A. JAYSON                                        0501
A0101410560000010318388LARRY M. MANSUKHANI                                      0502
B0101401960121239556001**************                                           1601
A0101401960121504516001YAP, ANNIE BEE SY                                        0501
B0101401830141021014001GINTONG ARAL PUBLICATIONS, INC.                          1603
B0101401830000000033569CARITAS SALVE CREDIT COOPERATIVE                        11603
B0101401830000000033569(CALOOCAN)-001                                          21600
A0101401830141208540001JASVIR SINGH OR PARDEEP KAUR                             0501
A0101401830141208540001JASVIR SINGH OR PARDEEP KAUR                             0501
A5001400170000013661133REGENCIA, MA. MANILONA JAMAICA                           0501
A0101400440000002035774ROLDAN, KATHERINE GATUS                                  0501
A0101407270000004915919NAPOLEON P. MALING OR                                   10501
A0101407270000004915919LUZ Z. MALING                                           20500
B0101401090171040961001BATULAO PROPERTY HOLDINGS, INC.                          1601
A0101401090171199028001EVANGELINE E. TIMBANG                                    0501
A0101401090000005320234KHO, SJOBERG A. OR KHO, JOSIE N                          0505
A0101401090171462332001MELODIA B. GESLANI                                       0502
B0301400530193480168001********                                                 1601
A0301400530193556515001DELA CRUZ, ADELINA S.                                    0502
B0301400660000003368461IMAGE AUTOMOBILES GENERAL SANTOS, I                      1605
A0101413020000006295958CHONGCO, MARIA SONIA SANTOS                              0501
B3101400160000002355728MENESES, MIRA ANGELICA OR                               11601
B3101400160000002355728MENESES, MIRA CY                                        21600
A3101400160221356270001RONALD J. PUA                                            0501
A3101400160221724137001ALICIA P MANAIG                                          0501
A3101400870000013661213MABAGOS, OLIVER SERADILLA                                0501
A3001400130000008916003HIDALGO, ELBERT ANTHONY VELOSO                           0502
A3001400130000008916321DEL ROSARIO, EDNA MANILENA CERV                          0501
A3001400130230478374004BALABA, JANETH BORJA                                     0501
B1001400190000011057979RD PAWNSHOP, INC.                                        1605
A1001400190231040271001ROADNET 2000 ENTERPRISES                                 0502
A1001400190000002170565CHABON, CLAI DBU SOUTHERNFIELDS                          0502
A1001400190231272341001MABILEN, ERNESTO                                         0502
B1001400190231282055001PIOUS SOCIETY OF THE DAUGHTERS OF                       11602
B1001400190231282055001ST PAUL                                                 21600
A1001400190231520766119CABANO, BERNADITH CATIWALAAN                             0501
A1001400350000000922412FHEDZ VENTURES                                           0505
B1301400760000000007110LFCI-KPP KASANIB SA PAGABOT NG                          11610
B1301400760000000007110PANGARAP, INC.                                          21600
A1901400290000013358880SHIELAN CRISEL M DIMAANO                                 0501
A1901400290261247580001ERLINDA R FORTES                                         0502
A1901400290261478374240LIZA CUADRA REANO                                        0501
A1901400290261493025068DR EDWIN C CASTILLO                                      0502
B0101406620000000193942SOURCEFIT PHILIPPINES INC.                               1602
B0101406620000000962403GEOWORKS INTERNATIONAL CORPORATION                       1601
A0101406620273442851001DELA CRUZ, ERLINDA Q. OR                                10503
A0101406620273442851001GALLARDO, EDELYN D.                                     20500
A0101406620273484869001DELOS REYES, MYRNA VALDEZ                                0501
A0101408660000000373011LAM, E DBU BAN HOK TRADING                               0505
A0101410980000005709606LIMKETKAI, GLENN TAN                                     0501
B0101410980000000171975AMMC - AVERY MANILA MARKETING CORP.                      1602
A0101400570000000165757BOLIMA, MELCHOR YABUT                                    0501
A0101400570281192945001MINDA D. BUENVIAJE                                       0502
A2601400270000002257201KATHERINE M. GALINGANA                                   0505
A0801400160311267069001MA. JIZA BARREDO OR MANUEL                              10502
A0801400160311267069001JOSEPH BARREDO                                          20500
A0801400160311468808001LAURON LOQUIANO, MARIA ZENY LOS                          0503
A0101402350321406560001DELA CRUZ, AMYLYNE B.                                    0501
A0101402350321682283001ANDAMUN, ABUHISHAM LUMANO                                0501
A0101405650000001377328ZAMORA, JOSEPH ENRICO IGNACIO                            0501
A0101402510341196676001CRISTETA C. SUMIRAN                                      0501
A0101402510341198988001RAMON FIEL G. ABCEDE OR                                 10502
A0101402510341198988001MARIA VICTORIA D. ABCEDE                                20500
A0101409050000000258326CECILLE C. NEPOMUCENO                                    0501
A0201400920000002804480MIRANDA, SAMMY                                           0501
A0101408370000006446342LAZARO, MELISSA PERPETUA                                 0501
A0101408370382564299001ALETA, KARLOS NOEL ROJAS                                 0503
B0101411660000000751462AUTODRAFT TECHNICAL SERVICES STEEL                      11601
B0101411660000000751462DETAILING INC.                                          21600
A0101402770000012616261HEATHER JO GIL ABANALES                                  0501
B0101402770391040524001JTC CRUZ CONSTRUCTION CO., INC.                          1602
A0101402770391366493001LYONS, JOSEPH CORBETT OR                                10501
A0101402770391366493001LYONS, JESSIE MARIE                                     20500
B0101408400394038538001THE HEAD PASTOR & MINISTER OF KING DAVID                11601
B0101408400394038538001 MINISTRIES                                             21600
A0101408400394513981001ANDALIS, ARMIE BREBONERIA                                0501
A0101409180000004642739VILLARBA, JUNALYN CEDO                                   0501
A0101409180000003310323PANGILINAN, CHARISSE CRUZ                                0501
A0101409180000009769293BLAIR, IAN LESLIE                                        0501
A0101412210000000238577GANTUANGCO, MOSES EMNACE                                 0501
A0301400820000000316670TIONG, ARISTON D.                                       10501
A0301400820000000316670OR TIONG, FLORITA C.                                    20500
B0301400820409091735055LIMA, WINDELL BRISTOL DBU DAVAO HOME                    11601
B0301400820409091735055BUILDERS CENTER                                         21600
A5501400120000000047174ADUANA, RACHEL OR                                       10501
A5501400120000000047174ADUANA, ROMMEL                                          20500
A2401400180000003949140UY, RUBING SIOCO                                         0502
A2401400180000010066536LGN SERVICES AGENCY                                      0502
A2401400180411442136088***************                                          0501
A1201400150421459509001TEE, CHITO LAYUGAN                                       0503
A0101403320000001803305LADORES, DON EIKEL N. OR                                10501
A0101403320000001803305LADORES, KRISTINE Y.                                    20500
A0101403320000000067543ATENDIDO, MANUEL T. JT                                  10501
A0101403320000000067543DBU ATENDIDO REALTY                                     20500
A0101403320000004831021TUBUNGAN, MA. CECILIA O. DBU                            10502
A0101403320000004831021EIGHT SILVER ALAS TRADING                               20500
A0101403320471326734001ANNALIE S. CALMA                                         0502
A0101403320471439566001JOSE G. VALLEJOS OR                                     10501
A0101403320471439566001DELIA VALLEJOS                                          20500
A0101406330472629526001CHONA E. BORROMEO OR                                    10502
A0101406330472629526001AL KAZ S. BORROM                                        20500
A0101406330472780167001AGNES D. CHUA                                            0502
B0501400170481000055001RURAL BANK OF BOLINAO, INC                               1601
A1401400110000008266393ROQUE, KAREN JAY RAMOS                                   0502
A1401400110492041197001A-ON ENTERPRISES                                         0503
A1401400110492560122001VELUZ, NORMAN GAMBOA                                     0501
B0101407430503006790002PEOPLE'S AIR CARGO AND WAREHOUSE INC                     1605
B0101407430000001212991YEUNG MARINE PRODUCTS, INC.                              1602
B0101403580511026385001BSA MANSION CONDOMINIUM CORPORATION                      1601
A0101403580511493558001HBO ENTERPRISES                                          0502
A0101405940512035308001UP-TECH BUILDERS                                         0503
A0101408530000010083284SANGIL, JEROME BANSIL                                    0501
B0101403450521011675001TORQUE BUILDERS, INC.                                    1606
A0101403450000001638064************                                             0501
A0101403610000007106061CASTRO, PETER CASTRO                                     0501
A0101404130601496234001IBUNA, MA. ROSSELLINA ANGELINE                           0501
A0101407720000002693161DIWA, MICHELE HERNANDEZ                                  0502
A0101407720602298709001JOSEPH B. BARRIL OR FE ANA                              10504
A0101407720602298709001BARRIL                                                  20500
A0101412180000001838899ASIGA, LEONEZZAR SIAO                                    0502
B0101412180000000038042PRIME EA24 INCORPORATED                                  1601
A0101404260611156216001JAKUBEK, BELLA ROBELLE VIVO                             10501
A0101404260611156216001OR VIVO, BELLA                                          20500
A0101409890000000209123NADONGA, ADRIANA LALU                                    0502
A0101409890000009468619DE JESUS, JENNY CINDY JEREOS                             0501
A0101407690000006242188LEE, AURORA M OR LEE-CATALAN,                           10502
A0101407690000006242188YASMIN M                                                20500
B0101407690000007720170MACWELL ELECTRICAL SYSTEMS CORP.                         1602
A0101407690652388179001JOSEPHINE CHING OR MARK JAYSON                          10502
A0101407690652388179001CHING OR VICENTE                                        20500
A0101407690000000154830CORPUZ, JERUSA ARNANTE                                   0502
A0101413440655055446001QFOUR-KONSTRUKT BUILDERS                                 0501
A0101413570000013237833GOLIN, CEDRIC TONALETE                                   0501
A0101413570000013237844GARCIA, MARIA BERNADETH PASIGAN                          0501
B0101413570000000206453DIAMONDS STARS PACKAGING RESOURCES                      11602
B0101413570000000206453CO., INC.                                               21600
A0101414120000000875652PABLITO OR RONALD JOHN OR                               10504
A0101414120000000875652PRINCESS JOY OR                                         20500
B0101406590000011637466SOULFLOWER CO.                                           1601
A0101410300000011355649TORIO, JACOB PRADO                                       0501
A1301400340000011813620REPONTE, RONILO PANTUJAN DBU                            10502
A1301400340000011813620SENSORMEDICS ENTERPRISES                                20500
B2801400100000007629276JOBIN-SQM INC.                                           1602
A2801400100712381563002GUZMAN, CHERRYL BANGAYAN                                 0501
A4101400390000013661075RONIEL O. LEE                                            0501
A4101400390000000500416JERRIMO L. GENUINO                                       0501
A4101400390000000500609BERNARDITA M. FIGUEROA                                   0501
A4101400390000007459392FAMOUS CARE MEDICAL CLINIC, LAB                         10502
A4101400390000007459392& DIAGNOSTIC CENTER                                     20500
A4101400390000007459450GENALYN N. PABUA DBU                                    10503
A4101400390000007459450CUTIE RIBBON CAKE SHOP                                  20500
A4101400420000002084362SINONGCO, MICHAEL ANGELI CABRAL                          0501
A4101400420000012882685ACOL, NINO ABRAHAM A.                                    0501
A4101400550000003266926SABADO, ROSALINDA QUERUBIN                               0502
A4101400550815047552002SHEILA S. TROVELA                                        0501
A0101412340000003344118REYNALDO D. LAYUG                                        0502
A0101404840000003410000HALUM, JEANINE ALINDOGAN                                 0501
A0101404840851517206001GARCIA, EVELYN INIEGO                                    0502
A0101404840851791747001BALMES, GERVACIO OR SARADAT,                            10501
A0101404840851791747001MONICA OR GALLAG                                        20500
A0601400230891799642001BAGUISA, GRACE CAYMO                                     0501
