B0101407430503821100608**********                                               2020
B0101403320471062076001LA ESCUELA DEL NINO JESUS, INCORPORATED                  1601
A0101403320471047588001RHINA JENEPER C. LIBIRAN DBU                            10502
A0101403320471047588001R-GENESIS DRUG STORE                                    20500
A0101403320471400801001MARILEN I. CRUZ                                         10503
A0101403320471400801001OR DENNIS MICHAE                                        20500
A0101400860011546416001**********                                               0502
A0101401250021478374014IRENE P. FADULLO                                         0501
A0101411370000005524670***                                                      0501
A0101400150061039916031GUEVARRA, BENEDICTO OR                                  10501
A0101400150061039916031GUEVARRA, JEAN                                          20500
A0101400150061229002001REGINA S. ALCANTARA                                      0501
A0101400150061231935001EMILINA P. GARCIA                                        0502
B0101400150061436247001SEAWOOD RESOURCES INC.                                   1603
A0101400150061567341002CORDOVA JR., EBENEZER ADOLFO OR                         10501
A0101400150061567341002CORDOVA, MARIAME                                        20500
A0601400100081251899001YALUNG, ROBERT OR MA. CRISTINA                          10502
A0601400100081251899001OR SANTOS, MA. L                                        20500
A0101413280092062132001**********                                               0501
A0101400730000002882502ULOB, GUARDINO MARTINEZ                                  0501
A0101401960121238686001****************                                         0501
A0101401830000001281998RIVERA, RAMIL DBU ICON RBR                              10501
A0101401830000001281998GLASS AND ALUMINUM SUPPLY                               20500
A0101401830000002274353CUEVAS, ALFREDO SIDERIO                                  0501
B0101400440161015324003RADIANCE OF CHRIST MINISTRIES INTER                      1601
A0101400440161039572029LORNA A. CERRO                                           0501
B0101407270162035909001REYSONS EXIM INTERNATIONAL, INC.                         1610
A0101407270000003254004CLEMENTE, SPIRO LU                                       0501
A0101407270000000511635DAVID STEPHEN STA. MARIA                                 0501
A0101407270162379916001MA. LOURDES A. DE GUZMAN                                 0501
A0101401090171199028001EVANGELINE E. TIMBANG                                    0502
A0301400530000000025232LYDIA ESTOSE                                             0501
A0301400660000002913113UY, JOHNY DOMINGUEZ                                      0503
A0301400660194084735001LABARITE, JOSEFA MANCERAS                                0501
A0301400660194758323001FERNANDEZ, GIL BREINARD SY                               0503
A0101410720000001602175JAVIER, SERGIO L. OR                                    10502
A0101410720000001602175JAVIER, ELENITA                                         20500
A0101410720653694384001SAMBRANO II, SANTIAGO GARCIA                             0501
A0101412500000007580001NG, KAREN MONIQUE DEL ROSARIO                            0501
A3101400160000002761953PUA, JENI MAUNAHAN                                       0502
A3101400160000006497596MONTERO, EDNA SABILAO                                    0501
B3101400160221019509001DYNASTY ALUMINUM, GLASS &                               11601
B3101400160221019509001GEN. MDSG CORP.                                         21600
A3101400160221767573001VICTORIA M DEL ROSARIO                                   0501
A3101400450223019912001LAGUNA HEALTH SERVICES                                  10510
A3101400450223019912001COOPERATIVE                                             20500
B3101400450223022719001GENCARS SAN PABLO, INC.                                  1610
B3101400450223037708001RD CASH PADALA, INC.                                     1601
A3101400450223478374004MORENO, JONALYN                                          0501
A3101400450223702062001BALBUENA, BENIZON BIRON                                  0502
A1001400190231520766049JOCELYN S. LLUBIT                                        0501
A1001400190000002170612**********                                               0501
B1001400350000000244222MADONNA AND CHILD HOSPITAL                               1610
B1001400350000000244404GOLDEN MACHINE WORKS CORPORATION                         1620
A1301400470000003270431CHRISTIAN VINCENT R. SALAZAR                             0502
A1301400760000002346005LUISA J. DIMAANO OR                                     10503
A1301400760000002346005DENER G. DIMAANO                                        20500
A1901400290000002926696ARLENE REYES MINDANAO                                    0501
A1901400290000003252731REBECCA VELASQUEZ ARIOLA                                 0502
A1901400290000005565875MARIA CONSUELO JOSE CUETO                                0501
B1901400290000001363199RD PAWNSHOP, INCORPORATED                                1603
B1901400290261049824001BONLOU, INC.                                             1610
A1901400290261244490001SONIA PINPIN BRIONES                                     0502
A1901400290261772647001ALEX CAMOS BUQUIR                                        0501
B0101401670271007091002JUSON REALTY DEVELOPMENT CORPORATION                     1601
A0101408660000000372985NUQUI, MADELINE AMOR DECENA                              0501
B0101412470000002338843WEBLEND INC.                                             1601
B0101400570281043944002EXLO MANPOWER AND ALLIED SERVICES, INC.                  1602
A0101400570000001134212GERRY C. ABANILLA                                       10503
A0101400570000001134212DBU LAIYA GRILL                                         20500
A0101400570281466604001BONGALA, TERESA DIANA BOLISAY                            0502
A0101411240000005136469SANTIAGO, MA. CORAZON DIZON DBU                         10501
A0101411240000005136469CORS ENTERPRISES                                        20500
B0501400200292021985002FOREST LAKE DEVELOPMENT, INC.                            1605
A0501400200292622096001BAUTISTA, SIMEON LAGASCA                                 0501
A1101400120000006186365DAROLE, GINA LYN PACE                                    0502
B0101402350321016002002GOLDRICH PAWNSHOP, INC                                   1601
A0101402350321043504001JOLEMARA GARMENTS                                        0501
A0101402510341441640001TAN, WILLIE LO                                           0502
A0101409050000006729526EDUARDO LEGASPI DALISAY                                  0501
A0101409050000006730145DANILO OLIDO ARCILLA                                     0501
B0201400890000005491330GREENWORLD LED SOLUTIONS, INC.                           1601
A0101408370382407998001COLLADO, FRENCHIE MAE RETUYA                             0501
A0101408370382490712001DRS. ROMUALDO G. CACAS JR. OR                           10501
A0101408370382490712001THERESA MARIE REYES-CACAS                               20500
A0101411660000000595222ANITA PINEDA SISON                                       0503
A0101415350000007481801VILLENA, NOEL MENDOZA                                    0501
B0101405490000001092477ARKIMETRICS INC.                                         1602
B0101408400394035589001MARINE RESOURCES DEVELOPMENT CORPOR                      1605
A0101408400394468280001VALLE, ALICIA SANTIAGO                                   0503
A0101408950000004511982GUEVARA, MARIA MALAYA DOROTAN                            0501
A0101409180000007416113ARGEL PANGAN                                             0501
B0101409210398703674001J.LEGACY BUILDERS CORPORATION                            1605
A0101409210398786227001CAPICOY, ANNA CHRISTINA PASTOR                           0510
B5501400120410046647088YAP MABUHAY ENT., INC.                                   1605
A0901400220000000425045LOZADA, ELIZABETH GO                                     0501
A0101403030441239005001**********                                               0503
A0101403320000000735762LORENZO RENAN E. TORRES                                  0501
A0101403320000001647036LORENZO RENAN E. TORRES                                  0502
A0101403320000007574852GALANG JR., FESTO RIANO                                  0501
A0101403320000007574910BUENAVENTURA, ROLANDO                                    0501
B0101403320471022749001LES SACS MANUFACTURING                                   1602
B0101403320471022749001LES SACS MANUFACTURING                                   1602
A0101412760000002067501ALMAZAN, AMI JANE CAMACHO                                0501
B0101412760476048068001BARBOZA JR., GAUDE DBU GAB MANPOWER                     11601
B0101412760476048068001AND SERVICES                                            21600
A0501400170481059315001ABAOAG, MAGELINE DBU M.K.A                              10502
A0501400170481059315001INSURANCE SERVICES                                      20500
A0501400170000001072713ANG, JUSSLYNN MAISIE ONG                                 0501
A1901400160491244619001ALEJANDRO F UY OR                                       10502
A1901400160491244619001APOLONIA AGNES B UY                                     20500
A0701400260000003259432ZAMORA, JULIUS SOPENA                                    0503
A0101408530000000035970RAMON M. TEODORO                                         0501
A0101411790518055764074CABALON, LEOVIE                                          0501
A0101411790518055764114DE ZUNIGA, REYNA KING                                    0501
A0101411790518055764147FRANCISCO, JONELO NAPARAN                                0501
A0101411790518055764234BUSTAMANTE, SHEKA MAE HIPOLITO                           0501
A0101411790518055815099REGALA, JORDAN COTERON                                   0501
A0101411790518072794001PASCUAL, MARIA VANESSA GUINTO                            0501
B0101403450521011655001**********                                               1605
B0101403450521028565001**********                                               1602
A0101403610000007572970DOMANAIS, LORNA GITO                                     0501
A0101403610000007573040OCAMPO, RIO BUYCO                                        0501
B0101403610000000015972LAGUNA SCIENCE AND TECHNOLOGY                           11601
B0101403610000000015972COLLEGE INC.                                            21600
B0101403610531029447001QUEENS BEST COOKING OIL AND                             11601
B0101403610531029447001MARKETING CORP.                                         21600
A0101403610000002347140TALOSIG, ANN MARGARE DBU ZAFIRA                          0501
A0101407720602242619001CO, CONCEPCION VALDEZ                                    0501
A0101412180000004089076MORONA, JHAYLORDE SAMPANG                                0501
B0101404260611037364001MMF METAL FABRICATION                                    1605
A0101404260611545062001TIRONA, ESTRELLA MANUGO                                  0501
A0101404260611582274001REYES, FYONNAH AYTONA                                    0502
A0101409920650478374030DELA CALZADA, REGIL OMLANG                               0501
A0101407690652208976001NOVAL, TERESITA CABATINGAN                               0501
B0101406590000003007314SINAG CONSULTANCY GROUP INC.                             1603
A0101406590662594215001SISON JR., VICTOR OR                                    10501
A0101406590662594215001SISON, MA. ANGELA                                       20500
A0101406590662689114001ALVAREZ JR., AGUSTIN PARAFINA                            0501
B1301400210682038666001EMERALD MANAGEMENT SERVICES &                           11601
B1301400210682038666001CONSULTANCY                                             21600
A1301400210682040042001EDUARD ALLAN TRADING                                     0501
A1301400340683385493002ORBE, SUSAN JUSON                                        0505
A0101408240711226051002CHAN, ALFREDO OR CHAN, CEFERINA                          0501
A0101408240711375102001PANICUCCI, MA. PILAR M. JT                               0501
A0101408240711383198001FABELLA, ROY OR CELINE                                   0501
B0101408240711691416001FIVESOME INC.                                            1601
A4101400260812030742002GODGIVEN PHARMACY & GENERAL                             10505
A4101400260812030742002MERCHANDISE                                             20500
A4101400260000001673503BALURAN, RAQUEL GUZON                                    0501
A4101400260812576485001SARAH MARIE M. JALANDOON                                 0501
B4101400390813019416002STI COLLEGE-ROSARIO, CAVITE, INC.                        1602
B4101400390813027260001PHILS-JEON GARMENTS, INC.                                1604
A4101400550000006044242TOLEDO, ARLA VANESSA DANAYRE                             0501
A4101400550000000315142JMBR TRADING                                             0501
A0101412340000000031090BUDOMO, JENNIFER MARCELINO                               0501
A0101404840000000085141NICOLASA R. GUIAS                                        0501
A0101406750852241118001FLORES, JOY                                              0501
A0101406750000000480660VARGAS, RAYMOND JOSEPH B. OR                            10503
A0101406750000000480660VARGAS, ELENNETT                                        20500
B0101405070861022087001AIR SPACE TRAVEL AND TOURS INC.                          1605
A0101405070861478374066ELMER LADRES APAS                                        0501
A0101405070861707742001ELMER G. CHAN                                            0501
B1901400580496821100608**********                                               2002
B1901400580496821200608**********                                               2002