B0101403450521821100608**********                                               2030
B3101400870225821100608**********                                               2002
B0101411240283004670001GRAND LARAIN PRODUCTIONS CORP.                           1601
A0101402930381209432003JOSELYN T. PEREZ OR                                     10503
A0101402930381209432003EXEQUIELITO PEREZ                                       20500
A0101400440000001440000LAPASARAN, MARY GRACE FRANCISCO                          0502
A0101400440161478374018MA. DELIA P. FERMANTE                                    0501
A3001400130000002063474ANTIPASADO, ROMELITO ALISOSO OR                         10510
A3001400130000002063474ANTIPASADO, ANGELA M                                    20500
A3001400130000008916252AGPAOA, ERWIN AGPAOA                                     0505
B3001400130230688080001TING, LAURENCE /OR                                      11605
B3001400130230688080001TING, EDMUND                                            21600
A1001400350233506665001EMMANUEL LIMBO OR HELEN LIMBO                            0503
A1001400350000000017712VILLODRES, KARL ROBERT B.                               10502
A1001400350000000017712OR VILLODRES, AN                                        20500
A4101400260000010623542FRANCISCO, RICHIE S.                                     0502
A4101400260812519502001APOSTOL, JESSIE BOY MARTINEZ                             0502
A0101400860011398302003**********                                               0501
A0101400860011565007002**********                                               0502
A0101400860011594952001**********                                               0505
A0101401250000004980645DE GUZMAN, CANDY LOU MANZANO                             0502
A0101401250021498847001********                                                 0503
A0101411370000003548925AW, HARVEY LIM                                           0502
A0101400150000003322443RICHARD B. VILLANUEVA                                    0502
B0101400150000001708670NSJS REALTY AND DEVELOPMENT CORPORA                      1601
B0101400150000001708345SKIN SCIENCES LABORATORY, INC.                           1602
A0101400150061226989001EDUARDO E. CAEG OR                                      10501
A0101400150061226989001BESSIE C. CAEG                                          20500
B0101400600071328360002**********                                               1601
B0101405810072011448001C.P.P.C CONSUMER PACKAGING PRODUCT CORP.                 1603
B0101405810072020925003DW PLASTIC CORP.                                         1602
B0101405810072040696002PLASTIC TECHNOBAG CO. LTD.                               1601
A0101405810072234684002TAN, RAYMOND                                             0501
A0101405810072234892001**********                                               0501
A0101405810072385132001***********                                              0503
B0101413730000006042422HI-TOP MERCHANDISING, INC.                               1601
A0101414090108067349001ORALDENT DENTAL CENTER                                   0502
A0101410850000012490403CADANO, DIONESIO TENOSO                                  0502
A0101410850109004571001KIM, JOSEPHINE PANGANIBAN DBU                           10501
A0101410850109004571001J.P.K. ENTERPRISES                                      20500
B0101410850000003503762POWERLANE LOGISTICS & BROKERAGE COR                      1605
A0101400730000001822771DY, G DBU GWDY MARKETING                                 0502
A0101400730000001822782lIM, C DBU LOEWE MARKETING                               0502
A0101400730111203514015GONZALES, KARLEEN B.                                     0503
B0101406040112022797001ASSOCIATED SKILLED & TECHNICAL EMPLOYEES                11601
B0101406040112022797001UNION                                                   21600
A0101401960121096152001***************                                          0502
A0101413150000000038515*******                                                  0502
A0101401830000001281976TUNGCUL, MA. ANTONINA REYES                              0502
A0101401830141724867001GOMEZ, GEORGE CASSIUS ALFONSO F                         10501
A0101401830141724867001OR GOMEZ, JINKY T.                                      20500
A7201400170152060879001RENDON, EDNALYN BACAY DBU                               10502
A7201400170152060879001FRIENDLY MOTORS                                         20500
A0101400440000007904881FRANCISCO, EMILY PALARCA                                 0501
A0101407270000011150164LACAP, OLIVE ATACADOR                                    0501
B0101407270162036459001ULTRATECH PRINTING CORP.                                 1610
A0101401090000011984588MARIA ANGELA T. CUMAGUN                                  0506
B0101401090171021620001UST HOSPITAL CREDIT COOPERATIVE                          1606
A0101401090171196128001DRS. ROLANDO CABATU OR                                  10502
A0101401090171196128001MARCELLA RUIZ-CA                                        20500
A0101401090171200500001VENUS OR DANTE ENDAYA                                    0501
B0301400530000008307755VALDIVIA, ALICIA MARZON DBU YUM SHI                      1603
A0301400660000006862920BARIO, AIDA LLANA OR BARIO,                             10501
A0301400660000006862920ELITO SABAS                                             20500
B0301400660000003368427GARDENSTATE ENTERPRISES, INC.                            1605
A3101400450223352819001FARAON, RIZALINA OR                                     10502
A3101400450223352819001BELEN, RHODORA                                          20500
A3101400870000003515513MARLON LIM                                               0501
A3001400130000001261169LIM, MICHELLE ZOSA                                       0502
A3001400130000008916309MONES, POCHOLO NIKKO ASIS                                0502
B3001400130000010506515CUMBA, WENDY GO AND GO, ANTONIO TIMCANG                  1601
B3001400130000008264933ROSE EXCELLENCE CORPORATION                              1610
A1001400190231283324001GICABAO, BENY CHAN OR                                   10501
A1001400190231283324001GICABAO, VILMA A                                        20500
A1001400190231520766015CALUMBA, VICTOR ARQUITA                                  0501
A1001400350233506665001EMMANUEL LIMBO OR HELEN LIMBO                            0503
A1001400350000000017712VILLODRES, KARL ROBERT B.                               10502
A1001400350000000017712OR VILLODRES, AN                                        20500
A1001400480000005356010SEVALLOS-PESQUERA, AILYN TECSON                          0501
A0101401670271188395001ANITA T. ANG                                             0502
A0101401670271206317002* * * * *                                                0502
A0101406460000001285570SANTOS, JEREMIAH PERLADO OR                             10501
A0101406460000001285570SANTOS, FELICITAS DE LEON                               20500
B0101406460272007553001STEEL ASIA MANUFACTURING CORP.                           1601
B0101406620000004595699SUPREME SUMMIT MOTORS, INC                               1601
A0101406620273280285001PELAGIO / ROSARIO / REBECCA /                           10501
A0101406620273280285001RAFAEL / ROWENA                                         20500
A0101406620273536982001FERNANDEZ, JUDITH RIANN T.                               0502
A0101408660274478374013HERRERA, CHRISANTINA DOMINGO                             0501
B0101410980000000172012QUALITY LEARNING CENTER, INC.                            1601
B0101411110276014917088YUNG SUNG IND. PHILS., INC                               1602
B0101411110276047021088CSQ SAHI CONSTRUCTION AND DEVELOPMENT                   11602
B0101411110276047021088CORPORATION                                             21600
A0101412470000005380672FERMO, MARIA ROSE CAREN BITUIN                           0501
A0101400570000011680863CORDERO, FORTUNE UY                                      0505
B0101400570281026341001PUBLIC SAFETY SAVINGS AND LOAN ASSOCIATI                 1605
A0101400570281075141001JOANNA T. ADALIM                                         0501
A0101400570281623828001REGINA OR AGNES FELIZA OR                               10501
A0101400570281623828001MA. REGINA EDILLON                                      20500
A0101411240000012504697ONG, FAUSTINE RICHELLE CHUA                              0501
A0501400200000006272197AQUINO JR., RICARDO MUNOZ                                0502
B2601400270302045063001ISABELA UNITED DOCTORS MEDICAL                          11620
B2601400270302045063001CENTER, INC.                                            21600
A0801400160311380582001CHUA, ANDREW UY OR                                      10501
A0801400160311380582001CHUA, PAMELA G.                                         20500
A2001400290000000978269UYMATIAO, CATHLEEN AMIL                                  0503
B2001400290315040975001COURONNE ALLIANCE CORPORATION                            1603
A2001400290315636070001DY, DANILO BANCAIREN                                     0501
A3401400280000004958563NORTHVILLE CHRISTIAN ACADEMY                             0501
A0101402350321180054001TUPAZ, MARILYN T.                                        0501
A0101409050352645570003MYRNA P. CUASAY                                          0501
A0201400760374621056001TOROY, MARILOU GALEON                                    0501
A0201400920000002250135SOCO, TRINIDAD OR CLARK OR                              10501
A0201400920000002250135PATRINA OR ROSANA IGOT                                  20500
B0201400920375034855001SHELLS TREASURES INTERNATIONAL CORP                      1605
A0201401020000000055930BELL, ESTELA PAGOBO                                      0501
A0201401020000004409089DELFINO, RHEENAN GONZALES                                0501
A0201401020377046499001TEH, MARIA ELENA BLANCO DBU                             10503
A0201401020377046499001E.T. PRINTSHOPPE                                        20500
A0201401020000000056200TRIX SIGNADS AND SERVICES                                0502
A0201401020000004409103CHAVEZ, RAYMOND A DBU RGSK TRAD                          0502
B0101402930381017086002HEALTH GALLERY INC.                                      1603
A0101408790000005293687MARIA CARMELA ROSARIO MANIEGO                            0501
A0101411660000004597213CHENG, PEARLY ANNE CRUZ                                  0501
A0101402770391361726001FLORENDO, CYNTHIA BOTON                                  0501
A0101405490000006299774CASTILLO, BENJASON FLORES                                0502
A0101405490000002880551MARIE GRACE BUITRE DBU CEDAR                            10504
A0101405490000002880551TREE CONSTRUCTION SUPPLY                                20500
A0101408400394028886002DEC ORIENTAL FOOD STREET CO. LT                          0503
A0101408400394478374058CHARINA BENIGNOS                                         0505
B0301400820000005196750POWER ASSET SERVICES CREDIT CORP.                        1603
A2401400180411345642001DR. FRANCISCO OR DRA. LORNA                             10510
A2401400180411345642001LORENZO                                                 20500
A2401400180000010066514ROMERO, RONALD CUARTO CRUZ                               0505
A1201400150421328285001DIAZ, DEMETRIO VELASCO                                   0501
A1201400150421776673001CORREOS, GEROME DUA                                      0503
A0101403030441241051001**********                                               0501
A0101412890000011812974VICENTE, JEFFREY SEVIDAL                                 0502
B0101403320471008879002GOLDWIN MANUFACTURING                                   11605
B0101403320471008879002LABORATORIES                                            21600
A0501400170000006300629GAZMEN, ARNEL GERARD RAYOS                               0502
A1901400160000004501346PLATA, CHERRYLYN MENDOZA                                10501
A1901400160000004501346OR SALAZAR, MARK LESTER                                 20500
A1901400160491246087001NIDA F UY                                                0501
A1901400160491346311001NIDA M LACSAMANA                                         0501
A1401400110000005526843CALAYCAY, RAINELDA GUERRERO                              0501
B0701400260000000041083MULTI-WARE ECON-SALES CORPORATION                        1605
A0101403580000004091901HERUELA, MARIA VIRGINIA JOSE                             0501
B0101403580000000214731MILLENNIUM ERECTORS CORPORATION - NORTH                 11605
B0101403580000000214731RESIDENCES                                              21600
B0101405940512028580003AUTOMETICS CAR CARE, INC.                                1603
B0101405940512028580004AUTOMETICS CAR CARE, INC.                                1603
B0101405940000000002773BT AUTO SPORT CORP.                                      1603
B0101408530516557675001ZEE2 RESOURCES INC.                                      1603
B0101411400000006561048HAMOY & ASSOCIATES                                       1602
A0101412050000000890882********                                                 0502
B0101403450521011649002**********                                               1601
B0101403450521011837001***********                                              1602
B0101403450521012112001********                                                 1602
A0101403450521238265001**********                                               0502
A0101403450521238943001**********                                               0501
B0101403450521240030001**********                                               1610
A0101403610531302317002NORVIC D. SOLIDUM                                        0501
A0101407720000002727819CHUA, ARLIE MARTIREZ                                     0501
A0101407720000005100285BANATAO, MARIA C. OR BANATAO,                           10502
A0101407720000005100285DIOSDADO P.                                             20500
A0101407720000005100241CHAVEZ, CHERRYMAR TAN                                    0502
A0101404260000003498562DY, DONALD FERNANDEZ                                     0501
B0101404260000004781200G1CAFE INC.                                              1604
A0101404260000003498631ACIERDA, R DBU ROGER ACIERDA FL                          0505
B0101407690000011457333GUERRERO, SHERYL ROSE CONCEPCION                         1605
A0101406590662209401001ALMA DE BORJA OR HORTENCIA                              10501
A0101406590662209401001BUENAVENTURA                                            20500
A0101406590662454222002MEDINA JR., ALFONSO OR MEDINA,                          10501
A0101406590662454222002ADELE OR MEDINA,                                        20500
A1301400210682045774001POP WASH LAUNDRY SHOP                                    0503
B1301400210000005040960ARMS-ABUNDANCE HOMES REALTY SALES,                       1601
A1301400340000009813750CLEMENTE, MARIFEL ROXAS                                  0502
A1301400500000002063805VENDIVIL, MA. TERESITA OCAMPO                            0501
A1301400500000009723060GERARDO GERRY C. STA. ANA                                0502
A2801400100712019694001ESGUERRA, G DBU LUNTIAN                                 10502
A2801400100712019694001LANDSCAPING & GENERAL SER                               20500
A2801400100712639265001FARINAS, RICHARD FARINAS                                 0501
A2801400230000005752401SERVANT ARTS & SIGN                                      0503
A4101400390813378814001GIGI D. ABOGADO                                          0501
A4101400390813478374045FIRMALINO, MELECIA ATIENZA                               0503
A4101400390813511060001CAMERINO, MARJORIE MILITAR                               0502
B4101400420814034216001BETHANY BIBLE BAPTIST ACADEMY,                          11603
B4101400420814034216001CAVITE INC.                                             21600
A4101400420000011952044BORROMEO, LUISA CECILIA C DBU                           10502
A4101400420000011952044METRODERM AESTHETIC AND                                 20500
A4101400420814520766072JOLAMPONG, JUDITH L.                                     0501
A4101400420814520766110DELA CRUZ, ARMINDA E.                                    0501
A0101412340000003719620JENNY LYN S. TANGCO                                      0501
A0101412340000002900283MARIFE B. VIADO                                          0501
B0101404840851004043001ROTARY CLUB OF PARANAQUE SOUTH, INC                      1601
A0101404840851298552055SIXTA MELBA C. ENGBINO                                   0502
A0101406750852787916001TAN, LUZBELLA FORTICH OR TAN,                           10503
A0101406750852787916001ANTHONY CLIFFORD                                        20500
A0101405070000002281961CAMARSE, RONNIE VITALICIO                                0502
A0101405070861478374086MARLYN C. GABEST                                         0502
A0601400230000005185833DUMAN-AG, MERCEDES MANUEL                                0501
A0601400230000002650028CORDOVA JR., IGNACIO DBU NICHE                          10505
A0601400230000002650028ADVISORS                                                20500
