A0101406460000002359919TAN, JENELYN HERNANDEZ                                   0503
B0101400150061039643001J.M.PIZARRAS AND ASSOCIATES LAW OFFICE                   1605
B0101400150061044905001RISING TIDE MOBILE ENTERTAINMENT, INC.                   1605
B0101400150000001708403NEGROS ISLAND SOLAR POWER INC.                           1602
A0101400150000004090691CORDOVA, EBENEZER DELIMA DBU CO                          0502
B0101400150061227678001GOP ADVERTISING                                          1602
A0101400150061697165001SERVER, CATHERINE ANNE B. OR                            10502
A0101400150061697165001CHRISTINE MICHEL                                        20500
A0101400150061739693001***********                                              0501
B0601400100081022507002FORTUNE FOOK YUEN TEA HOUSE, INC.                        1610
A0601400100081407396001AMORA, MARICEL ROSAURO                                   0501
B0101412630132047975001ELR REALTY CORPORATION                                   1603
A0101412630000001485321ALLEJE, SAMANTHA MICHELE MARCO                           0501
A7201400170000003773142CARBONEL, JOHN PICO                                      0501
B0101400440161032916001S.D. CUBILLAN CONSTRUCTION                               1601
A0101400440000000596583ELIZABETH G. TALPLACIDO                                  0501
A0101400440000004901564DOVIE T. JERMIA                                          0502
A0101400440000005393615BEFE C. ANGCAY                                           0502
A0101407270000006862275ONOFRE C. AYALA JR.                                      0501
B0101407270162038101001BIRDS INTERNATIONAL, INC.                                1603
B0101407270162044098002GRANTLINE, INC.                                          1602
B0101407270162044104002BARDSTOWN, INC.                                          1602
B0101407270162044107002KNOXPORT, INC.                                           1602
B0101407270162044164002SOLUTIONS EXPERTS AND ENABLERS, INC                      1602
B0101407270162044602002FRONTLAKE, INC.                                          1602
B0101407270162044738002BARTLE BEYL, INC.                                        1602
B0101407270162050140003NORTHPOINT, INC.                                         1602
B0101407270162050373002AMARELA, INC.                                            1602
B0101407270162050380003DROPBOX, INC.                                            1602
B0101407270162052125002DELISCENTS, INC.                                         1602
B0101407270162053928002QUANTUS BUSINESS SERVICES, INC.                          1602
B0101407270162054522002POULTRYMAX OMNIS, INC.                                   1602
B0101407270162054806002NUTRIDOUGH, INC.                                         1602
A0101401090171314756001MARY ANDY A. DELOS REYES                                 0502
A0101401090000005320234KHO, SJOBERG A. OR KHO, JOSIE N                          0503
A0101401090171491755001OLIVIA C. GO                                             0502
B0301400530000000025378D' UNIBUENAS CORPORATION                                 1603
A0301400530193504844111********                                                 0503
B0101410720000005786747EDURESOURCES PUBLISHING INC.                             1605
A0101410720653478374010SOCORRO JIMENEZ                                          0502
A0101410720653478374048VILLAFLOR E. OPELADA                                     0501
A3101400160000000006500ANNIEFER P MERCADO                                       0502
A3101400450223221366002*****                                                    0501
A3101400870000000074844ROA, ROSEMARIE JUNDOS OR ROA,                           10501
A3101400870000000074844JAMES ROQUE GARCIA                                      20500
B1001400190000002170850RD PAWNSHOP, INC.                                        1605
A1001400350233566627008CHOU, PAI CHUN                                           0501
A1001400480000000474891***************                                          0502
B1301400470000000009696MAKOBOBI DISTRIBUTORS INC.                               1605
A1301400470000004626886LOIDA FUNERAL HOME                                       0505
B0101406460272027382001POWER AIRE AIRCONDITIONING &                            11602
B0101406460272027382001AIRWORKS, INC                                           21600
A0101406460272770235001LOPEZ, SUSANNA LIM                                       0502
A0101406620000003661454HEO, DAE HOI                                             0501
A0101406620273357236001GABRIELE G. BOSCHI                                       0502
A0101411110000004342829*******                                                  0501
A0101412470000000520130FLORES, GINA CRUZ                                        0502
A0101400570281186530001CARLOS AGUILA OR                                        10502
A0101400570281186530001MERCEDES AGUILA                                         20500
A0101400570281186617001DR. SALLY RACHEL T. MACAPAGAL                            0503
A0101400570281203059002TEOFILO O. SAN LUIS JR.                                  0504
A0101400570281370364001HUNG, MAN YEE                                            0501
A0801400160000002287625DALIPE, JINGLE GALVEZ                                    0501
B0801400160311100161001PRUDENTIAL CUSTOMS BROKERAGE SERVICES,                  11603
B0801400160311100161001INC.                                                    21600
A6601400120314612855001SUNDAY LAVIN JR OR IRIANA LAVIN                          0505
A6601400120314612939001TOBES,SANTIAGO OR TOBES,CECILIA                          0501
A6601400120314619929001ZOSA, ALEJANDRO RAMIREZ                                  0502
A2001400290315636761001VILLABERT, WINSTON TAN OR                               10505
A2001400290315636761001VILLABERT, MARITES HO                                   20500
A0101405650322219483001ELISES, LENORA OR NELSON OR                             10502
A0101405650322219483001JOSE MARI OR JOSE MIGUEL                                20500
B0101402930381014599001HEALTH SOLUTIONS CORPORATION                             1601
A0101411660000003580232ABISHAI FAYE D LIMPIN                                    0501
A0101411660000003580301MARIA INEZ G PACIA                                       0502
A0101402770000006642793SUESS, FLORENCIA GERODIAS JT                            10501
A0101402770000006642793FGS PACKAGING ENTERPRISES                               20500
A0101402770000001571364JOSE E. ZAULDA JR.                                       0502
A0101405490000002253010ROSEMAE J. SISON                                         0501
A0101405490392034138001MCMAR & MARY ELECTRICAL                                 10501
A0101405490392034138001& CONSTRUCTION S                                        20500
A0101408400000006253221CRUZIN, JEZELLE MILAN                                    0501
A0101408400000001213574MARGO POTS AND FLOWERS                                   0501
A0101408400394539659001**********                                               0502
B0301400820409091735055DAVAO HOME BUILDERS CENTER OR LIMA,                     11601
B0301400820409091735055DIANA                                                   21600
A2401400180411572205001EBRAHIM, MA. AMOR ISHAD                                  0501
A0901400220000000888064**********                                               0502
A0101403320000001647003BANZUELO, CLAIRE PADAYAO                                 0501
A1901400160000007333133HERNANDEZ, ANA TERESA SANTOS                             0501
A1901400160491282845001ARTHUR C MALALUAN OR                                    10501
A1901400160491282845001IRENE D MALALUAN                                        20500
B1401400110000000034660RCBL - LAY CATECHISTS OF ST. PEDRO                       1601
A1601400170000001360781DAVID CODY OR ROSEMARIE CODY                             0502
B1601400170000000036160LEGAZPI FOUR SEASONS                                    11603
B1601400170000000036160RESTAURANT, INC.                                        21600
B0101407430503015295001PC SUPPLIES, INC.                                        1602
B0101405940000000002940DLSU MED CLASS 1991 INC.                                 1601
A0101408530000000489692SANTIAGO, ELIZABETH LALU                                 0501
B0101408530516033225001KONECT COMPANY                                           1601
A0101408530516571877089MUNICHE C. ANGODUNG                                      0501
B0101403450521011872001**********                                               1601
A0101403450521608765001**********                                               0502
B0101403610531044231001BLOOMING STAR                                            1603
A0101403610531662330001BERROYA, MARK LESTER AMOR  OR                           10502
A0101403610531662330001BERROYA, CONNIE MORADA                                  20500
B0101404000551038493001TKKK RESTAURANT CORPORATION                              1605
A2201400250000003316463CHRISTOPHER RAYMUND N. URQUICO                           0501
A0101412180000002340574DE DIOS, JENNIFER KRISTINE M                             0502
A0101404260611351828001YUMUL, AGNES ANNE OR                                    10501
A0101404260611351828001YUMUL, JHONATAN                                         20500
A0101409890000000987408GAYUNDATO, MARIA DIVINA FABELLA                          0502
B0101409890000003098151TECHNOLINE DIGITAL TRADING INC.                          1610
A0101409920000001951982MEMBERS OF NATASHA (SHOECAT INC                         10501
A0101409920000001951982TORRELIZA, GINA                                         20500
A0101411530000006217483**********                                               0501
A0101413570000007382416DRA. RAFAELA FLORENCE N. SANTOS                          0501
A0101410300000003290133PENA, ISAIAH MICHAEL G.                                  0502
A1301400340000002158476ALIPIO, ALMA DELOS SANTOS DBU                           10501
A1301400340000002158476ALIPIO GARMENTS                                         20500
A1301400340000000100374PRADO, ERLINDA SORIENTE                                  0501
A1301400500000002063872DELA CRUZ, RODOLFO LAJOM OR                             10502
A1301400500000002063872DELA CRUZ, ALICIA SANTOS                                20500
B0101408240000000832575BOCUSE FOOD CORP.                                        1605
B0101408240000000832611BU-DA SNAX CORP.                                         1602
B2801400100712035030002FREEPORT SKC INC.                                        1602
A4101400260812520563001GARGAR, JOAN AVENIR                                      0504
B4101400420814017613001BOARDWALK BUSINESS VENTURES, INC.                        1602
A4101400420814478374163MA. CORAZON C. REATAZAN                                  0502
B4101400550815040997005MAHARLIKA CONCRETE PRODUCTS AND                         11602
B4101400550815040997005CONST. SUPPLY                                           21600
A0101404840851217637025ARCHIMEDES D. CORPUZ                                     0501
A0101406750000006992570ARLENE B. LOYOLA                                         0501
A0101406750000006992581ANN KATE S. WASING                                       0501
B0101406750000005608595METROWIDE HOMEBUILDERS, INC.                             1650
A0101405070861478374089FABIANTES, CHARITY CRES                                  0501
A0101405070000006006086CHAN, OLIMPIA CALUGAY                                    0502
A0101405070861788836001GASCON, JOSEPH                                           0501
