F0301400790195061897001WORKMATIC INDUSTRIAL SOLUTIONS                           2601CK1
F0101402930381017038002BATARASA CONSOLIDATED, INC.                              2608CKR
F1901400160491433820001MARICEL A ALCANTARA OR                                  12501CKO
F1901400160491433820001JOEY L ALCANTARA                                        22500CKO
F0101403580511029871001RED REX AUTO SALON                                       2603CKR
F0101408530516476384001FRITZ KENNETH L. CHUA                                    2504CKO
F4101400260000000002222INVESTRENEUR MULTI-PURPOSE COOPERATIVE                   2603CKO
