B0101410980275821100608**********                                               2002
A3001400130000006145148FERNANDEZ, ALICIA LASCUNA                                0501
A0101400730111432322010MAUREEN CONSTANTINO                                      0502
A0101400440000006679663AIDA S. RIVERA                                           0501
A0101400440161466113001CATHERINE E. CABACHETE                                   0501
A0101400440161525001181MARIA C. QUINONES                                        0501
B0301400950000002115731MINDANAONE EXPERTS DISTRIBUTORS, INC.                    1602
A1101400120000000065110BOLECHE, CLARA GACUTAN                                   0501
A0101402060351588151001CASAPAO, ELIZABETH ESLIT                                10502
A0101402060351588151001CASAPAO, MANUEL                                         20500
A0101403320471062221001PARCO, NESTOR LOBETANIA DBU N.L                          0501
A0101403320471548510002CATAPANG, LILIA CASTILLO OR                             10501
A0101403320471548510002CATAPANG, LEOVIGILDO GUIT                               20500
A0101413570000003379908CABANIG, MYRA MELAYA                                     0503
A4101400260812478374058DHIESEL M. SAULOG                                        0501
B0101400860011389653001**********                                               1602
A0101400860011792246001**********                                               0501
A0101400150000003162810MARIA SALOME S. BUAN                                     0501
A0101400150061337098041EDITHA N. BAUTISTA                                       0501
B0101405810072020925003DW PLASTIC CORP.                                         1603
B0101405810072034989001TRANSWELL ENGINEERING CO.                                1602
A0101405810072265481001PLAZA, LEONORA LIM                                       0503
B0601400100081024665001CLARK PIPELINE & DEPOT COMPANY, INC                      1610
A0601400100081358072002NOEL C. DAVID                                            0505
A0601400100081374646001PAULE, BERNICE DELA CRUZ                                 0501
A0601400360000000978710B. LEGG                                                  0501
B0101413280092821100608**********                                               2002
A0101414090000003315000MENDOZA , FELICIDAD PUYAL DBU J                          0502
A0101410850109075882001DIONISIO, SUSANA REYES                                   0501
A0101410850109554406001DELA CUESTA, ZHEENA CHOO                                 0501
A0101410560000005836148FLORDELIZ N. MONTERAS DBU AGUA                          10501
A0101410560000005836148BENDITA WATER STATION                                   20500
B0101400730111007949002THE TOWER CORPORATION                                    1602
A0101400730000006572278NENA B. RELEVO                                           0501
A0101412920000004707186BODOSO, GERELYN PONES                                    0501
A0101400440161039572023JIMMY S. PALISOC                                         0502
A0101400440000005393524NENIA B. ACAO                                            0502
A0101407270000007635585REMODO, ROSELLE CALIXTO                                  0501
B0101407270162046726001VALUE CARE HEALTH SYSTEMS, INC.                          1650
B0101407270162046726001VALUE CARE HEALTH SYSTEMS, INC.                          1650
A0101407270162370131001CHERRY PIE S. PICACHE                                    0502
A0101407270162384433001ROBERTO B. SISON OR                                     10504
A0101407270162384433001IMELDA S. SISON                                         20500
A0101407270162597281001RAYMUND T. TOLENTINO                                     0501
B0101401090000000772429CAROLINE MIRANDA AND CARLOS ALMEDA                       1605
B0101401090171013988007RD PAWNSHOP, INCORPORATED                                1605
A0101401090171196072004CARLOS M. ALMEDA                                         0510
A0101401090171546320001CHARITO P. MALONG                                        0502
A0301400790000003969531POL, ANGELITO DILIMA                                     0501
A0301400950000000566810**********                                               0501
B0301400950000002115975KCC MODERN REALTY SERVICES, INC.                         1602
A0101412500000007633112CHAN, DERRICK UY                                         0501
A0101413600000003134669WILSON T. PADRONES                                       0501
A3101400160000004952245GENIE MALLARI CHAN                                       0501
A3101400450223455887001PITOGO, LINDON JARABE                                    0501
A1001400190000004487641SIAO, MICHAEL FRANKLIN NERI                              0501
A1001400190231520766129SANCHEZ, CATHLYN E.                                      0502
A1001400190000000016480ANGELITUD, LYDIA LECIAS                                  0501
A1001400190231520766187MONTEMOR, FE MARIE TELIN                                 0501
A1301400470000000061463DEUS, MARIA ELNORA DE GUZMAN                            10505
A1301400470000000061463OR TAGO, ANA LIZA VELARDE                               20500
A1301400470000000061470PROCESO V. HIPOLITO                                      0502
B0101401670271041152001PHILADELPHIA BUSINESS INITIATIVES INC.                   1603
A0101406620000003661465PALOMATA, MICHELLE MARAYA                                0502
B0101410980000000171975AMMC - AVERY MANILA MARKETING CORP                       1602
A0101411110000001036811PEARL JOY U. BANGAYAN OR                                10501
A0101411110000001036811JULIET U. BANGAYAN                                      20500
A0101400570000006271649MACOLOR, LINA AGANAN                                     0502
A0101400570281359728001LIMJOCO, DIOSDADO DE LA CRUZ                             0502
A0101400570281361144001ERIC G. IDIESCA                                          0501
A0101400570000001681858GO, ROBERTO ONG                                          0503
B0801400160311014376002PENBANK, INC.(A PRIVATE DEVELOPMENT BANK                 1602
A1101400120000000652511BASTIAS, ROSANNA QUISUMBING                              0502
B1101400120313036439002ACME BUILDERS CORPORATION                                1605
A1101400120313478374103ENVERZO, NARISSA LEONORA G.                              0501
A1101400120313478374123EBUENGA, JULIE C.                                        0501
A1101400120313547700001NICOLASORA, ALMARIE EULOGIA P.                           0510
A6601400120314612861001ALCERA SR., IGMEDIO E. OR                               10501
A6601400120314612861001ALCERA V, IGMEDIO                                       20500
A6601400120314690963001UY, ELENA WAN OR UY, CHRISTIAN                          10501
A6601400120314690963001EMMANUEL WAN                                            20500
A2001400290000000978043UTV CONSTRUCTION & ENG'G.                               10502
A2001400290000000978043SERVICES                                                20500
A0101402350321180459002TING, CHING LAN OR CHANG, CHIAO                         10501
A0101402350321180459002FEI OR CHANG, CHIAO FENG                                20500
A0101405650000000525911TORRES, ROD JEFFREY GUMABAO                              0501
A0101402060351414987003NOBLE, FELICISIMA CASANOVA                               0502
A0101402060000000042253COLLARGA, ERIC DBU TECHYPE I.T.                         10501
A0101402060000000042253SERVICES OR AVEL                                        20500
A0101409050000006729582JEREMY HARRY CASTILLO AMAR                               0501
A0101408370000006446211GEPTY, HENRY FAJARDO                                     0501
A0101408370382070779001DR. ANDRES R. LIPANA,JR.                                 0501
A0101408370382205330001DR. MA. CECILIA G. VICENCIO                              0505
A0101408370382391120001DR. SALVADOR M. EUSTAQUIO                                0502
A0101405490000005210273SANTOS, MARY JEAN PEDALGO                                0501
B0101405490000003905162CORDELION INC.                                           1601
A0101405490000003178421REYNON, RANDY FARAON                                     0502
A0101408400000002921188CONCEPCION, CORAZON DE MARIA SE                          0501
B0101408950000002768416H2004 VENTURES INC.                                      1603
A0101408950396563284001DIMAGIBA, RICHARD VINCENT                               10501
A0101408950396563284001NICOLA JT                                               20500
A5501400120000000047174ADUANA, RACHEL OR                                       10501
A5501400120000000047174ADUANA, ROMMEL                                          20500
A5501400120410636168001SUENO, JOCELYN BERNARDO                                  0506
A2401400180000005286922AMADEO, ANNIE MILES                                      0503
A2401400180411516002001GAVINO, RHEA MEA LAUREA                                  0502
B1201400150421013432001BAGUIO MAHARLIKA MULTI PURPOSE                          11603
B1201400150421013432001COOP.                                                   21600
B1201400150421013432002BAMACO - CR OPERATIONS                                   1602
B1201400150421035585001HOTEL COSMOPOLITAN                                       1601
A1201400150421152351001JISON, THERESE                                           0505
A1901400160000000243514CONRADO AUGUST AMBIDA BONDAD JR                          0501
A1401400110000001095916SY, DENNIS LOO                                           0501
A0701400260000002339095BERNARDO JR., JAIME MIRALLES OR                         10502
A0701400260000002339095BERNARDO, CYRIL                                         20500
A0101406880513565496019EMPLOYEES OF ACTIVE REALTY DEVE                          0501
A0101408110000000380090SANTIAGO, EMMALYN BONIFACIO                              0501
A0101408530000002260059ESTANOL, ANALIZA RUMBINES                                0501
A0101408530516483967002RICHARD L. FLORENTINO                                    0502
A0101403450521389380001**********                                               0501
B0101403610000000016008LEE TOP BUILD INDUSTRIES CORP.                           1602
B0101403610531046549001BIG APPLE PLASTIC PACKAGING INC.                         1602
A0101404000551150178001RICO V. DOMINGO   &/OR                                  10502
A0101404000551150178001PATRICIA DOMINGO                                        20500
A0101404000000003284411ARAGONCILLO, JOSEPH BREN CENINA                          0501
A2201400250561529504002*****                                                    0502
A0101410690000001285303CORTEZ, DARWIN AUDIE DBU WINCOR                         10503
A0101410690000001285303CONSTRUCTION                                            20500
A0101404130601354508001LOLITA M. HODREAL OR                                    10505
A0101404130601354508001JOSEPH M. HODREA                                        20500
A0101404260611478374095NORMA MIGRINO                                            0501
A0101409920000000998661MEMBERS OF NATASHA (SHOECAT INC                         10501
A0101409920000000998661CALORA, DOMINGA                                         20500
A0101413440000006680602CABATANA JR., VICENTE TARSUNA                            0501
A0101413440000003298282GRAGASIN, MANNY VILLARIAZA                               0502
B0101413570656056048001SATRE TECHNOLOGY RESOURCE DEVELOPME                      1602
A0101413570656057648270MARIE YVETTE D. TUNGUIA                                  0502
A0101413570656057648282ANDREA C. DE GUZMAN                                      0501
B0101413570000003580749MORALES, EMIL T. DBU DMD PHOTOGRAPHY                     1605
B0101406590662026663002MOJAR CONSTRUCTION                                       1603
B0101406590000000905624CHANBAR BUILDERS CORPORATION                             1603
A0101410300000000191951ANGULUAN, PAUL ARIS A.                                   0501
A0101410300000000026531VELHAGEN, MELISA B.                                      0502
A0101410300663776537001SANTOS, PATRICIA REGALA                                  0502
A1301400210000005040635***                                                      0502
B1301400210682041874001MBB ROYALE INTERNATIONAL INC.                            1605
B1301400340683036384001PLAN ADMINISTRATOR INSTRUCTION'S                         1602
A1301400500000004093087ME-ANN'S EGG DEALER                                      0505
B0101408240711028643001MPM CORPORATION                                          1601
B0101408240000002419996**********                                               1602
A4101400260812038197001BEAUCHE INTERNATIONAL BY                                10501
A4101400260812038197001CONCHITA 1                                              20500
A0101412340000006047105MARK S. RASTRULLO                                        0501
A0101412340000003438646******                                                   0502
A0101404840851478374115ERLINDA O. PRADO                                         0501
A0101404840851520766073ELIZABETH A. SUAZO                                       0501
A0101404840851520766178ROWENA C. PUNZALAN                                       0501
A0101406750000004642006MALINIS, LISBETH MANALANG                               10501
A0101406750000004642006OR MARIO MALINIS                                        20500
B0101417390000101010117**********                                               2003
B0101416320000701010029**********                                               2005
B0101416290410422000011**********                                               2001
