B0101407270162821100608**********                                               2005
B0101411370022821200608**********                                               2001
A0101409050000013851726EMPLOYEES OF, DELL GLOBAL B.V P                          0501
A0101411820000005380110***********                                              0501
A0101410720000001602244CANON, TEODORO MARASIGAN                                 0501
A1901400290261488341084DRA LILIA M BANAAG                                       0502
A1101400120000002254877POTICANO, BERNARDO IGANA                                 0501
A1101400120000003981237ORTEGA, RICKY GALVEZ DBU RCP                            10502
A1101400120000003981237ENTERPRISES                                             20500
A1101400120313478374066FUNCION, LANIE ECIJA                                     0502
A1101400120000005608260SANITA, ERIC SALIENTE                                    0502
B1101400120313543446001TY CHAN HAI,SANTIAGO OR TY,LISA OR TY,                  11603
B1101400120313543446001SHANE LAWRENCE                                          21600
B3101400740000014271520KENNERY HARDWARE AND CONSTRUCTION                       11601
B3101400740000014271520SUPPLY CO.                                              21600
A1001400480000014271575SEPULVEDA, ROLAND ARIZALA                                0501
A1101400120000009119819ARROJO, JASMIN B.                                        0502
A4101400420000003715724FLAVIANO, PERLITA                                        0501
A0101400860000010683297**********                                               0503
A0101400860000002333411**********                                               0505
B0101400860011426546001**********                                               1605
A0101400860011430314001**********                                               0501
A0101400860011458859001**********                                               0501
A0101400860011477042001**********                                               0503
A0101400860011520310001**********                                               0502
B0101401250021038065001NEW IMAGE MULTI-LINE INDUSTRIAL                         11601
B0101401250021038065001RESOURCES                                               21600
A0101401250021309334001NAIDA T. TALIMAN AND                                    10502
A0101401250021309334001S.MA.FLORLINDA V. ACEBEDO                               20500
A0101400150000002749693CASAS, KAMILLE ROSE HIZON                                0501
A0101400150000009217972TAN, DOBBIN ANG                                          0501
A0101400150061038536185HONESTO EVANGELISTA                                      0501
B0101400150000005015489ADSTRAT ADVERTISING STRATEGIES, INC                      1603
A0101400150061227793004DY, ANASTASIA OR                                        10501
A0101400150061227793004DY, EVELYN                                              20500
A0101400150061379081001SIMON, CHRISTINE MARIE BISCOCHO                          0501
A0101405810000001021172PUA, C DBU MCK SCHOOL & OFFICE                          10503
A0101405810000001021172SUPPLIES                                                20500
A0601400100081252521001PALACIO JR., ERNESTO R.                                  0502
A0601400100081387908001MANARANG, GOLDA MA. REMEDIOS T.                          0501
A0601400100081501761001TAN, WINTHEL OR RALPH                                    0501
B0601400520000007553797BRIGHTLIVES LENDING PHILS. INC.                          1603
A0601400520000000786421NAGUIT JR., JOSEFINO FIGUEROA                           10502
A0601400520000000786421DBU JOSEFINO'S G                                        20500
A0101413150000011778171**********                                               0501
A7201400170000006487610SALDIVAR, SUCENA ANG                                     0502
A5001400170000000044982URBAN PAINTS & MORE ENTERPRISES                          0502
A0101400440000009591951CASTRO, RYAN ART ATIENZA                                 0501
B0101407270162031529001CENTER INDUSTRIAL SUPPLY CORPORATION                     1605
B0101407270162046726001VALUE CARE HEALTH SYSTEMS, INC.                          1650
B0101407270162046726001VALUE CARE HEALTH SYSTEMS, INC.                          1650
B0101401090171026934001PCCHS 1962 ALUMNI ASSOCIATION, INC.                      1601
A0101401090171390398001CORPUZ, MARY JHO-ANNE TOLENTINO                          0502
A0101401090171531698001MARIA ISABEL D. CORNEJO                                  0501
A0301400530000000066124LICAYAN, PRINCE LLOYD M. OR                             10502
A0301400530000000066124LICAYAN, ZENAIDA                                        20500
A0301400530000012631537ALVIOR, SUZETTE JOCELYN ESTOQUE                          0502
B0301400660000003368427GARDENSTATE ENTERPRISES, INC.                            1605
A0301400660194737283088ZHI VENUS INDUSTRIAL SUPPLY                              0502
A0301400790000002301393BARCELONA, JANET TIZON                                   0501
A0301400790000003969542******                                                   0501
A0301400950000002115231**********                                               0501
A0101410720000000008642MC BUILT ENTERPRISES                                     0501
A0101412500000005300656RAYPON, GRASON KINNY CUBILLAS                            0501
A3101400160000014143932DORADO, BENITO ROBERT EDEZA                              0501
A3101400740224646140001CHUA, JANETTE SY                                         0501
A3101400870000005409974MERGAL, BERYL BEN CONCEPCION                             0501
A3001400130000006145251CAUSON, RONALDO C                                        0502
B3001400130000000931322ML_BUILDERS INC.                                         1605
A1001400190231520766029COTIAMCO, EDEN                                           0501
A1001400350000012928202MALFERRARI, GIUSEPPE DE CASTRO                           0501
A1001400350000012928166SALINAS, LORILYN LAPLANA                                 0501
A1001400350233478374033CARAOS, PATROSENIA T.                                    0502
A1001400480000013955456JIMENEZ, ALJAY ABELLANOSA                                0501
A1001400480000005355933SILAGAN, ARLENE BALBAO                                   0502
A1001400480000011810381SAA, MOISES EDWARD ENERIO                                0501
A1001400480000014310231ARANETA, MAUREEN IRISH SAMBAAN                           0501
A1001400480000014023331CHUA, OSCAR MALACAD OR CHUA,                            10501
A1001400480000014023331YIN NA KUO                                              20500
A1301400760000001295541IREEN R. MIRANO                                          0501
B1301400760000002346130GARY MATEO                                               1602
A0101401670271745163001ONG, CHRISTOPHER ALLAN L. OR                            10501
A0101401670271745163001ONG, ANNA LISA C                                        20500
A0101406460000008890440**********                                               0501
A0101406620000012950799TSANG, PERLYN SANTIAGO                                   0501
B0101410980000006014562TECHNOMED INTERNATIONAL, INC.                            1603
A0101412470000010561781GONZALEZ, BARBARA CRUZ                                   0501
B0101400570281026341001PUBLIC SAFETY SAVINGS AND LOAN ASSOCIATI                 1605
A0101400570281036729002LAIYA GOURMET                                            0505
A0101400570281742045002**********                                               0502
A0101411240000010100531DELA GUARDIA, CHRISTIAN DOMOSMO                          0501
B1101400120000009119568KO, JEFFERSON UY OR                                     11601
B1101400120000009119568KO, GERARDA LETA                                        21600
B2001400290315044204001ACEBANK CREDIT, INC.                                     1601
B0101402350321031479001MED OPTIONS MULTI SPECIALTY CLINIC                       1602
B0101402350321500384002ONG, JOSEPHINE T. AND                                   11601
B0101402350321500384002DURA, ELVIRA O.                                         21600
A0101405650000010318931REMULLA, DANIEL JOHN PEN                                 0501
A0101405650322791533001DE LIMA II, VICENTE LEON                                 0502
A0101402060351160004003***************                                          0505
B0201400760000011325425BANILAD CEBU TRADECENTER, INC.                           1605
A0201400920000011194051AMORES, RENE CABANILLAS OR                              10505
A0201400920000011194051AGUIPO, MICHAEL YGOT                                    20500
B0201400920375024652001FASTCARGO LOGISTICS CORPORATION                          1601
B0201400890000000180021CEBU AUTOCENTRALE CORPORATION                            1602
A0201400890000007877534**********                                               0503
B0201400890376036838001AUTOCENTRAL INCORPORATED                                 1602
A0201400890376522560001SU, SEYMOUR UY                                           0501
B0201401020000010966831ASIA PACIFIC EXPRESS CORPORATION                         1603
B0201401020000005110001HERITAGE 1963 INC.                                       1603
A0101408790000013295262SANTOS JR., LEONARDO CENTENO                             0501
A0101405490000005692511GARCIA, MYLENE MENDOZA                                   0501
A0101405490000006300061SOCORRO, CRISTETA ALCALA                                 0501
B0101405490392043958001LIPA TRADING CENTER                                      1602
A0101405490000000126463LORNA V. TUGADE                                          0502
B0101408400000000077872TECH-ASIA INDUSTRIAL ENTERPRISES                        11602
B0101408400000000077872CORP.                                                   21600
A0101408950396563005001DR. ANDREW GABRIEL JACINTO                              10502
A0101408950396563005001TABBERRAH                                               20500
A0101408950396726811001GERARD M. MORALES OR REGINA                             10502
A0101408950396726811001ISABEL S. MORALES                                       20500
A0301400820000008105622CABALLERO, MARY JANE GUNSI DBU                          10501
A0301400820000008105622MJ CABALLERO CALL CENTER                                20500
A0301400820000005991860TORMIS, CHRISTOPHER                                      0501
A5101400100000010371461ACTUB, JONELYN BERNASOL OR ACTU                         10505
A5101400100000010371461B, MICHAEL CLOMA                                        20500
B0101403030441314004001**********                                               1605
A0101412890000004345146ORTIZ, ANGELO ENCISO                                     0502
A0101403320000012881966MA. SYLVETTE G. MARCELO                                  0501
A0101403320000014144742SY, NINO ALVIN JOHN T.                                   0501
B0101406330000012246901PASIG DOCTORS MEDICAL CENTER INC.                        1605
B0101406330000000432966ARGENTFARM PRODUCTS SPECIALIST INC.                      1602
A0101406330472478374044ARMES SMITH B. ALVARADO                                  0501
B0101410140000010858172ECHEVARRIA, AMARIDY L. AND                              11601
B0101410140000010858172ECHEVARRIA, GARY                                        21600
A0101412760000001399339DEL ROSARIO, MARCO ZALETA                                0501
A0101412760000001399271MA. ELENA C. CHING                                       0501
A0101412760000011574782IBITA, JESSICA PICKELL                                   0501
B0501400170000001072968PCCI FINANCE CORPORATION                                 1601
A3801400170000002302950TOLENTINO, LUCIANO ARNEL DIMALI                          0501
A1901400160491549024001MYRNA ARCE CORTEZ                                        0502
B1601400170000014303970BALMES, JACINTO RONQUILLO DBU JRB                       11601
B1601400170000014303970CALIBRATION JT                                          21600
A0101405940000007540925CALDO, DOROTHY HOLLESCA                                  0501
A0101405940000007644757YUTIG, ARLITA ALVAREZ                                    0501
B0101405940512018055001PREMIERE MANAGEMENT CORPORATION                          1603
A0101408530000007981722CAHANDING, ROLAND RYAN VIDAL                             0501
A0101408530516486562001DR. REZA M. ARABPOUR                                     0502
A0101408530516486562001**********                                               0502
A0101408530516571877197AUTIDA, CAROLINE T.                                      0502
A0101408530000004647923BARRANTES XAVIERA KARR TONGCO                            0502
A0101411790000006543228SOLANGON, RAFAELITO CATIIS                               0502
B0101411790000003252582PAYNAMICS TECHNOLOGIES INC                               1603
A0101411790000000039336TIMOG, ABIGAIL MANAHAN                                   0501
A0101412050000012912420KUNITACHI, HAJIME                                        0501
A0101403450000013091742TAN, VON BISMARCK LEONARDO                              10502
A0101403450000013091742OR TAN, VENERANDO EDUARDO                               20500
B0101403450521011749001TWF CUSTOMS BROKERAGE CORPORATION                        1610
B0101403450521036992001********                                                 1601
A0101403450521239750002EDDIE L. CHUA                                            0502
A0101403450521346715001MURILLO, MARY JANE BARBAS                                0502
A2201400250000012749430WILLIAM JAE M. BALENTON                                  0501
B2201400250000000016931ASUCAL MULTIPURPOSE COOPERATIVE                          1605
B0101404130601021574001XYTRON INTERNATIONAL INC.                                1601
A0101407720000004656833ANGULO, PAMELA VICTORIA                                  0501
B0101407720602042362001MMC-MEDICAL SECRETARIES STAFF                           11601
B0101407720602042362001ASSOCIATION                                             21600
A0101407720602381785001GUZMAN JR., PATRICIO BALA                                0502
A0101407720602382305001PARDINAN, ROSSANA O.                                     0502
A0101407720602741510001LUCHAVEZ, ROMEL NUDALO                                   0501
A0101412180000013362982SABALBURO, MARIA KATHLEEN ROSE                           0501
B0101412180000001293090ADVANI, GHANSHYAM PARASRAM DBU SICHEL &                 11603
B0101412180000001293090SICHEL ENTERPRIS                                        21600
B0101404260611044359158GREAT ARCHER SALES                                       1602
A0101409920000000523584MASACUPAN, PHILIP GONZALES                               0506
A0101407690000003207212ACOSTA, BIENVENIDO ABE NARCISA                           0502
B0101407690652042938001SIGNWOOD HARDWARE & LUMBER SUPPLY                        1603
A0101407690652609264005AUGUSTO S. DE JESUS OR                                  10505
A0101407690652609264005MILA S. DE JESUS                                        20500
A0101407690652662274001LACASANDILE, AGUSTINA LASTIMOZA                          0501
A0101411530000010702637**********                                               0502
B0101413440000001085621R-II BUILDERS, INC.                                      1601
A0101413990000014305465CHING, DENISE VALENZUELA DBU                            10501
A0101413990000014305465DEVALUCHI JEWELRIES                                     20500
A1301400210000005040577**********                                               0502
A1301400210000009982592PLACER JOURNEY TRAVEL AND                               10502
A1301400210000009982592TICKETING SERVICES                                      20500
A1301400500000000011274*************                                            0510
A1701400230000009625447CHUA, GIAN NICOLETTE GUILLEN OR                         10505
A1701400230000009625447CHUA, LENDELL BENEDICT M                                20500
A0101408240000001038653CASING, IRENE TOMENIO OR                                10501
A0101408240000001038653CASING, SALVADOR                                        20500
A4101400420000012882867MERCY A. ROMAN                                           0502
A4101400420814520766061ESTILLERO, SUSANA O.                                     0501
A4101400550815693134001LLANES, TUDOR HERNANDEZ OR                              10501
A4101400550815693134001LLANES, PRESCILL                                        20500
A0101412340000003341033BALLE, MARLYNI GISON                                     0501
A0101412340000003349211DOANNE J. GUMOGDA                                        0501
B0101404840000006365444GCF SOUTH METRO CHRISTIAN SCHOOL, I                      1603
A0101404840851217637010NOEL Z. CARRERA                                          0501
A0101404840851217637110WILFREDO LONZAME                                         0502
A0101404840851298552055SIXTA MELBA C. ENGBINO                                   0502
A0101404840851478374171LORENA A. ARES                                           0502
A0101406750852478374055ALBINA, ANALIZA                                          0502
