B0101408950396821100608**********                                               2010
B0101400570281011155001SOUND BUSINESS HOLDINGS, INC.                            1601
A0101400570281359687003CERVANTES, JULIETA GOPEZ                                 0501
B0301400790000003969280HERRADURA, GLICERIO L DBU                               11601
B0301400790000003969280NEWDAY MARKETING                                        21600
B0101408950000000036826SLMC GLOBAL CITY ER                                      1602
A0101408950396563723001CELLONA, CLARISSA VILLARAMA                              0503
A0101408950396565613001AGCAOILI, MA. DULCE FLORENCE                             0501
A0101400600000005942509COMIA, JUAN DE ROXAS OR                                 10505
A0101400600000005942509COMIA, ELEAMOR MACALALAD                                20500
B0101408950396041569001HEART INSTITUTE STAFF DEV. FUND                          1601
B0101408950000002768416H2004 VENTURES INC.                                      1603
B0101408950000006424882H2004 VENTURES INC.                                      1603
A1901400160000001718065BOSS HOBS SHOES AND                                     10503
A1901400160000001718065BAG REPAIR SHOP                                         20500
A1901400160491405481001CARMELA P LLANA OR                                      10504
A1901400160491405481001VINCENT WIGBERT LLANA                                   20500
A0101400860011376010001**********                                               0505
A0101401250000002763346**********                                               0505
B0101401250000003803336OCEAN AIRE HOTEL CORPORATION                             1605
A0101400150000003163011MA. LOURDES E. CASTILLO                                  0501
A0101400150000007280306PALANCA, JUNIQUE MENORCA                                 0501
B0101400150000007599082VANCOUVER LANDS INCORPORATED                             1601
A0101400150061381319001MYRNA DE JESUS UY                                        0501
A0101400150061405016001DOMINGO, SANTA MANOGUID                                  0501
B0101400600000000007627**********                                               1601
B0101405810000011484649PILI, IAN JOHN ZENG                                      1602
A0101405810072470925002QIU, XIULI                                               0505
A0601400100000014958811YAMBAO, DENNIS MALLARI                                   0501
A0101410850000013601837SAMONTE, MA. MONINA TAMAYO                               0502
A0101410850000000005778****                                                     0501
A0101410560000013688787PASCUAL, RICHIE CASTRO JT                               10501
A0101410560000013688787PASCUAL, RICA SAMONTE                                   20500
A0101410560000005836262MORITA H. NACOR                                          0502
A0101400730000016579212ZONIEGA, REYMOND TAMESIS                                 0501
A0101400730111386911001JONEL M. PAULE OR MAHAR B.                              10505
A0101400730111386911001JARDIOLIN                                               20500
A0101406040112092241001********                                                 0501
A0101401960000006004422***************                                          0501
B0101401830141011349001EAST MANILA CREDIT CORPORATION                           1601
A7201400170000009673112LADLAD JR., JOSE BANA                                    0501
A0101407270162331904012CHITTY LEE L. BARRA                                      0502
A0101401090000016583683PHOA, TIMOTHY BREN DY                                    0501
A0101401090000001618913EMMANUEL M. BATULAN                                      0501
A0301400530000012016903SALMAGRENDE, EVA MACANAS                                 0505
A0301400530000014433713GAJE, JOSEPH MELLOMIDA DBU BIG                          10502
A0301400530000014433713G CALIBRATION SERVICES                                  20500
A0301400790000012273900CABUANG, MARIA THERESA                                  10501
A0301400790000012273900ATONDUCAN                                               20500
A0301400790000009412540ANDRES, FRANCIS CAESAR PALU-AY                           0501
B0301400950000013857355***********                                              1602
B0301400950000013857366***************                                          1602
A0101401380000006542463MANGROBANG JR., CESAR CUISIA                             0501
B0101401380201043041001IBARRA BIO MED INT'L. TRADING CORP.                      1610
A3101400450000016576393BELEN, ARVIN B DBU MED AXIS                             10501
A3101400450000016576393BUSINESS VENTURES                                       20500
B3101400450223025343001CAPUA ENTERPRISES                                        1601
A3101400450223701659001GRANT INSTITUTE OF TRADE AND                            10506
A3101400450223701659001TECHNOLOGY                                              20500
A1001400190231520766031CARANO-O, JANFIR JANE V                                  0501
B1001400350000009439056KANSAI JAPAN AUTO SURPLUS CORPORATI                      1601
A1001400350233533309001MARIO JOSE A. SIA / CAGAYAN DE                          10505
A1001400350233533309001ORO HARDWARE AND                                        20500
A1301400760000005989986REINWALD ARDEN O. CORTEZ OR                             10501
A1301400760000005989986KRISTEL P. CORTEZ                                       20500
A1901400290000001975288FLORINDA MASAS BARTE                                     0503
A1901400290261488341032BOBBY PUZON NAVAL                                        0501
A0101406460272722876011EMPLOYEES OF TECHNOMED INTERNAT                          0501
B0101411110000001037096TECHNOVORE SYSTEMS INC.                                  1601
A0101400570000015533123MACAPAGAL, MARICAR M.                                   10502
A0101400570000015533123OR MACAPAGAL, MICHAEL T.                                20500
B0101400570000013647322PHILIPPINE SOCIETY OF REPRODUCTIVE                      11602
B0101400570000013647322ENDOCRINOLOGY &                                         21600
B0101400570000003451556DE LOS SANTOS MEDICAL CENTER, INC.                       1603
A0101400570281442308001ABAYA, CAMILLE ANN CASTANEDA                             0505
A0501400200000001081087ALOG, ALMA PORTUGAL OR                                  10501
A0501400200000001081087ALOG, RONALDO TALE                                      20500
A0801400160311478374056CECILIA B. ASTROLOGO                                     0502
A6601400120000013899206CHAN, LITO TAMBANGAN                                     0503
A2001400290000010684483BALUCAN, GIOVANNI DAYAGDAG                               0501
A2901400130000009072139LIMA, SEARCH ALAMIGO DBU LIBROS                          0505
A0101402350000012300411PASANDALAN, MORSHIEDAH HABIB                             0502
A0101402350000002310667CULTURA, REA SALENGUA                                    0501
B0101405650322022799005FUEGO LAND CORPORATION                                   1602
A0101409050000002333364ARAW, BELINDA SARFATI                                    0503
A0101409050000006319702PADILLA, RENE SANCHEZ                                    0501
A0201400760374520766001CARULASAN, KRIZIA JANE BUGO                              0501
A0101408370382379254001DR. CESAR A. DE LEON                                     0501
A0101408370382409089001DR. ELIZZA S. SENSENG OR                                10502
A0101408370382409089001IMMANUEL DOMINIC                                        20500
A0101408790000011517150POTESTAD, BORNEO CARPIZ                                  0501
A0101402770391286509001TABIOS, ANDRES D.                                        0502
A0101405490000016587903CANITA, BRIGITTE DEONIO  OR                             10501
A0101405490000016587903CANITA, ARMANDO MENDOZA                                 20500
A0101408950000007571482*************                                            0501
B0101408950000010411273MELROSHEAN CONSTRUCTION CORPORATION                      1603
B0101409180000000036644THE TABLE GROUP, INC.                                    1620
A0101409210000016563612LEDESMA, MARY ROSE JUNIO                                 0501
B0301400820000005991871ARCHIMED VENTURES INCORPORATED                           1610
B0301400820409091735055LIMA, WINDELL BRISTOL DBU DAVAO HOME                    11601
B0301400820409091735055BUILDERS CENTER                                         21600
B240140018041103580100321 CENTURY SMOKED FISH CORP.                             1605
A1201400150000013825851PALANGDAO, MARYJANE SEGUIN                               0502
A1201400150421459509001TEE, CHITO LAYUGAN                                       0503
A0101403030000005944783*********                                                0501
A0101403030441295362002**********                                               0501
A0101403030441497564001**********                                               0501
A0101406330000006943673RUBY JEAN M. AGUADO OR                                  10502
A0101406330000006943673JOHN ROBERT M. AGUADO                                   20500
A0101406330000015172119BALDONADO, MILAGROS TOTANES                              0502
B0501400170481018109001CSI WAREHOUSE CLUB INC.                                  1602
B1901400160491012587001BSU CREDIT COOPERATIVE                                   1602
B1401400110000014232441SOUTHERN SWINE PARADISE & FARM, INC                      1603
A1601400170494066242001BALOLOY, DBU LEIBAR LABORATORY                          10501
A1601400170494066242001OR BALOLOY, LEA                                         20500
B0101407430000000035247PNC GARNET PROPERTY HOLDINGS                            11603
B0101407430000000035247CORPORATION                                             21600
A0101403580000012912059HIFE, JENNIFER REYES                                     0501
A0101405940000001534269**********                                               0501
A0101405940000003121911LIM, JONATHAN JOSEPH CHUA CHAM                           0501
A0101408530000007457141ARLENE C. FRANCISCO                                      0501
A0101412050000000890882********                                                 0502
A0101412050000012912464GALVEZ, RENE GERARD FLORES AND                          10501
A0101412050000012912464CARINO, MARY FRANCINE                                   20500
A0101412050000005330169SADULANG, FLORLYN GRACE RUBI                             0502
A0101412050000016105570PRESAS, AIREEN MAY                                       0501
B0101403450521011639001**********                                               1602
B0101403450521035366001***********                                              1603
A0101403450521241165001**********                                               0501
A0101403610000016564397JAINGA, F DBU MOTHER SAVIOUR                            10501
A0101403610000016564397POLYCLINIC AND LABORATORY                               20500
A0101403610531537850001ESCANDOR, MARY AILEEN CRUZ                               0501
A2201400250000010425311ROBERTO G. ROBLES OR                                    10501
A2201400250000010425311MELLANIE P. ROBL                                        20500
A0101407720602399337001MARIO BENITO F. BAUTISTA                                10502
A0101407720602399337001OR JOSEPHINE L.                                         20500
A0101412180000013362926AMORES, MADELEINE JOY ENDAYA                             0501
A0101404260000003498419LACAP, LARINA LUSABIA                                    0502
B0101404260000000003710KIDDO ACADEMY & DEVELOPMENT CENTER                       1601
B0101404260611038904001REYESHEN PRINT AND OFFICE                               11601
B0101404260611038904001SUPPLIES                                                21600
A0101404260000000156803ORDONA, JEREMIAH RAMILO                                  0502
B0101409920000013050321PHILSOUTH HIGHLAND VENTURES & CONST                     11602
B0101409920000013050321CORP.                                                   21600
A0101413440000002125359GAMANA, ROWENA CHAN                                      0501
A0101413570000013901281PEREZ, GRACEILL JUDYCERY MOJICA                          0501
A0101413990000003431325YUHICO, MANUEL C. DBU M. YUHICO                         10503
A0101413990000003431325ENTERPRISES                                             20500
B0101414120000007655378ABMARAC CORPORATION                                      1601
B1301400210000013219131JINJIANG, WUHAO BUILDING MATERIALS                       1602
A1301400500000000212951GUILLERMO, ALVIN MANLAPIG                                0503
A1301400500000016502771******                                                   0501
A1301400500000016341752DR. ELAIZA MARIZ G. BONDOC                               0501
A1701400230693478374044CECILIA CORRALES                                         0501
A0101408240711428123001VICENTE V. IBE                                           0501
A0101408240711443671001CARMENCITA C. GUIAO                                      0501
A0101408240000013983178DE LOS REYES, MARTIN MANZANO OR                         10505
A0101408240000013983178MARIE YVONNE                                            20500
A2801400100712311102001CHARINA N. HIPOLITO                                      0501
A4101400260812244954001REYNANTE J. ESTOCADO                                     0502
A4101400390813246359002NORLINDA R. LEGASPI                                      0501
A4101400420814470604001ABANES, MARILOU CANTORIA                                 0501
A4101400420814478374171MICHAEL G. RIBOT                                         0502
A4101400420814557947001SAYAROT, GLENN MAGO                                      0502
B0101406750000005608595METROWIDE HOMEBUILDERS, INC.                             1620
A0101406750852617055001HERMINIA S PUA                                           0501
B0601400230000011168357MAA GENERAL ASSURANCE PHILS., INC                        1602
B06014002300000036448207R FINANCE CORP.                                         1610
