F0101409050352031646004DELTA EARTHMOVING, INC.                                  2610CKR
F3101400580452455447001QUEZCA CORPORATION                                       2601CKO
F3201400190000001493078*********                                                2505CKO
