F4101400420814012768007UNIDA CHRISTIAN COLLEGES, INC.                           2602CKR
F3201400190000001492855RECEL JR., ESTEBAN REYNON                                2503CKO
F0101405650322467364001PENALOZA, WILLIAM TAN                                    2503CKO
F0101405650322467364001PENALOZA, WILLIAM TAN                                    2503CKO
F0201400210371037287002CORBOX CORPORATION                                       2605CK1
F0301400240401028768168AGWAY CHEMICALS CORP.                                    2605CKR
F4101400260812022293003JOMIJOH'S BAKESHOP INC.                                  2601CKO
F4101400260812022293004JOMIJOH'S BAKESHOP INC.                                  2601CKO
F4101400260812033409001NEW DASMA GOLD BAKE INC.                                 2601CKO
F4101400260812033409002NEW DASMA GOLD BAKE INC.                                 2601CKO
F4101400260812044833001RAJAN TRUCK MOVERS, INC.                                 2605CKO
F0101406750852479415001JOSE P. BANTILING OR ELENITA P.                         12502CKO
F0101406750852479415001BANTILING                                               22500CKO
