A4101400420814366489001DE VILLA, FELISA DE MESA                                 0503
A0101414120000005252922STQRM CONSTRUCTION SUPPLY                                0501
A4101400420814281659001MORALES, LALAINE DIATO                                   0501
A4101400260000000377479PETALCO, BABELITO V. OR                                 10501
A4101400260000000377479PETALCO, VIRGILIA                                       20500
A4101400420814520766138SAN PEDRO, ANA LIZA                                      0501
A4101400420000003308983BELOSO, WENNIE H.                                        0501
A0601400520000001706918NAGUIT JR., JOSEFINO F. OR                              10510
A0601400520000001706918NAGUIT, MHELODIE                                        20500
A0601400520000004423209INNO-WORX TRADING AND GENERAL                           10502
A0601400520000004423209SERVICES                                                20500
A3101400450223060573001TABILOG, NOLI DBU NJT ENTERPRIS                          0501
B6601400120314821100608**********                                               2010
B6601400120314821200608**********                                               2005
A4101400420000000710103JARIN, MARIA FE SAPINOSO                                 0502
A4101400420814436355001BAUTISTA, LOIDA U. OR                                   10502
A4101400420814436355001BAUTISTA, EPITAC                                        20500
A4101400420814478374122AGUILO, RODENA T.                                        0501
A4101400420814520766033DELA CRUZ, MARILOU M.                                    0502
A4101400420814520766110DELA CRUZ, ARMINDA E.                                    0501
A4101400420000002345280ACOL, FELOMINA ADOAN                                     0502
A4101400420000004848028EMMA A. MARSHALL                                         0501
A4101400420814572942001ABLAZA, REINA DE GUZMAN                                  0501
A0101400860011387943002**********                                               0503
B0101400860011409046003**********                                               1601
B0101401250021040371001ENHANCE CARGO MOVERS CORP.                               1606
A0101401250021709223001ROLANDO F. ASTILLERO JR. OR                             10501
A0101401250021709223001GINA A. ASTILLERO                                       20500
A0101400150000003141500ROQUE, DANTE VILLAMOR                                    0502
B0101400150061033431001CORE LIFESTYLE CLOTHING, INC.                            1602
B0101400150061039626002MENZI & CO., INC.                                        1602
B0101400150061040558001CORDILLERA EXPLORATION CO., INC                          1602
A0601400100081257414001SYMONS, WILLIAM BRIAN                                    0502
A0601400100081358072002NOEL C. DAVID                                            0505
A0601400100081358739001CHUA, IRENE ANUNCIACION                                 10503
A0601400100081358739001OR REYES, GLORIA                                        20500
B0101413280000000041910INTERNET OF THINGS PHILIPPINES INC.                      1602
B0101410850000001229863PARKER CHUA AND TIMMIE CHUA                             11605
B0101410850000001229863AND LLOYD CHUA                                          21600
B0101410850000000005643LIKAS YAMAN SERVICE CORP.                                1606
A0101410850109046512001*****                                                    0501
B0101410850000003503733DELTA FIVE AGRI-VENTURES CORPORATION                     1605
A0101410560000002316558LAGASCA, CHERIELYN                                       0502
A0101406040112055495001********                                                 0503
B0101401960121240767001PRESTIGE INDUSTRIAL SUPPLY INC.                          1605
B0101412630000002186370MAJOR-U CORPORATION                                      1603
A0101407270162331908059DHINNO FRANCIS TIU                                       0503
A0101401090171196037001EMILIO A. HERNANDEZ JR.                                  0505
A0101401090171196080003GIL Y. GAMILLA OR                                       10501
A0101401090171196080003CARLOS M. ALMEDA                                        20500
A0101401090171389017001GACULA, BENNYPAUL PANED                                  0501
A0301400530000001409785VILLANUEVA, MELISSA MAY MATA                             0501
A0101401380201179817001PROTACIO, ANTONIO C.                                     0502
A3101400160000006520032LLANES, MARGERY APOLEGA                                  0501
A3101400450000002092980MAGHIRANG, SEVERINO A. OR                               10501
A3101400450000002092980MAGHIRANG, JEANNE A.                                    20500
A1001400190231520766042GEOTORO, INES MANGUILIMOTAN                              0501
B0101401670000000739253A.L. SALAZAR CONSTRUCTION, INC.                          1605
B0101411110276046578001**********                                               1602
A0101411820000001356554JOSEFINA M. CALABIG                                      0502
A0101412470000000853834**********                                               0502
B0101411240000000012073ADVANTAGE-VEGA BUSINESS SERVICES INC.                    1602
A2601400270302762450001JOYCE ANN MAYE L. DOON                                   0501
B6601400120314612844001MARTINEZ, ANGELINE OR MANUEL OR ORTIZ,                  11602
B6601400120314612844001LEOVIGILDO                                              21600
B2001400290315043653001G & S SOLID CORPORATION                                  1601
A3401400280000002323451PETER RANDY G. DELA CRUZ OR                             10501
A3401400280000002323451CARINA C. DELA CRUZ                                     20500
B0101402350321040218001L.A. KUSTOM CORPORATION                                  1602
A0101402510341083629001CADAOAS, MA. CECILIA CASTILLANO                          0501
A0101409050000001662493DACQUEL, BENJAMIN FRANCIS PONCE                          0501
A0201400890376038937002ECB TRADING                                              0505
A0201401020000004409125SALIMBANGON, CESAR LAGO                                  0502
A0101408370382577247001MELISSA R. SARMIENTO                                     0501
A0101408370382661460001DEBBIE JOSEFINE G. FRANCISCO OR                         10502
A0101408370382661460001JAY FIDELI A. FRANCISCO                                 20500
A0101402770391309722001SIERRA, CONCEPCION BAUTISTA                              0501
A0101408400000001981513CAGURANGAN, JOHNNY BOHOL                                 0501
A0101408400000005286320AMEROL, ROSLINA MAROHOMSALIC                             0502
A0101408400000001614693ELICARL SALON                                            0501
B0101408950396046715001PRIMELINK INSURANCE AGENCY, INC.                         1605
A0101408950396736406001DEFENSOR, MA. THERESA AMADOR                             0502
B0301400820000005196750POWER ASSET SERVICES CREDIT CORP.                        1603
A2401400180411037686001DADIANGAS HEAVEN STAR MARKETING                          0505
B2401400180000000019747DYNAMIC TEAM, INC.                                       1610
A1201400150421520473001FLORES, MARY JANE KIMAKIM                                0501
B0901400190431821200608**********                                               2002
B0901400220000000888177**********                                               1603
B0101403030441011894001REXSSEL AUTO PARTS CENTER                                1601
A0101403030441590302001**********                                               0503
A0101403030441594340001**********                                               0502
A0101412890000000007514RICO T RIVERA DBU WISEMIX                               10502
A0101412890000000007514CONSTRUCTION SUPPLY                                     20500
A0101403320471356429001NOLY T CAYABYAB                                          0502
A0101406330472207383001*****                                                    0501
A0501400170000001072662VILLAFLOR III, VIVENCIO JOSE P.                         10501
A0501400170000001072662or ABELLA, ANDREI CESAR S                               20500
A1401400110492029549002TRIPTORS DIAGNOSTIC CENTRE                               0504
B1601400170000000036160LEGAZPI FOUR SEASONS                                    11603
B1601400170000000036160RESTAURANT, INC.                                        21600
A0101405940000001534305LAURIO, FLORIEN DOSADO                                   0501
B0101408530000001275310THE PURPLE OVEN CORPORATION                              1601
A0101403450521239620001**********                                               0502
A0101403610531444284001DUENAS, RENDER MACASPAC                                 10501
A0101403610531444284001OR DUENAS, RYAN                                         20500
B0101404000551019197001MAA GENERAL ASSURANCE PHILS., INC                        1610
B0101404000551029461001PCCI EMPLOYEES RETIREMENT PLAN                           1605
A2201400250561299317001MIRASOL M. SAN SEBASTIAN OR                             10501
A2201400250561299317001ALLAN M. SAN SEBASTIAN                                  20500
B0101407720602022821001BLITZ MARKETING AND EVENTS, INC.                         1602
A0101407720602241314001**********                                               0502
A0101407720602290947001ABADINES, MARIE DINIA A                                  0501
A0101407720602298846010OCAMPO, LAMBERTO UN OR                                  10502
A0101407720602298846010SARMIENTO, ANNAB                                        20500
A0101407720602332203002MANAHAN, MARTIN  PEDROSA                                 0510
A0101407720602381785001GUZMAN JR., PATRICIO BALA                                0502
A0101407720602415233004MARILYN T. RADA                                          0501
B0101404260611031116003FLORA'S TRADING                                          1602
A0101404260611151874002ZAIDE, VICTORINO ACLETA                                 10501
A0101404260611151874002OR ZAIDE, LUZ R                                         20500
A0101404260000003498453CASTILLO, CIPRIANO                                       0501
A0101404260611478374109ANGELITA SIQUIJOR                                        0501
A0101413570000002906625ASTRERO, EDINA DBU                                      10501
A0101413570000002906625ASTERDEN ENTERPRISE                                     20500
A0101413990000002274039CARDENO, ELMER C. OR                                    10501
A0101413990000002274039CARDENO, MA. RIZZA GRACE                                20500
A0101414120000005252813LINTAG, ELISA SANTIAGO                                   0502
A0101414120000000648960AZUELA, CYNTHIA LARGADO                                  0502
B0101414120000000399184CANTILEVER CONSTRUCTION CORPORATION                      1602
A0101406590662347924001BATARA, JULETTE-MARIE FELICIANO                          0501
A0101406590662347924001JULETTE BATARA                                           0501
B1301400210000000023503JELLI'S GAS STATION                                      1602
B1301400210682245013002JAIME K. CRISOSTOMO                                      1601
A1301400210682403812002DOMINGO P PASCUAL JR.                                    0505
A1301400340000000100330LAPENA, RAYMOND RANDALL CERTEZA                          0501
B1301400500000001412253PBOLT INCORPORATED                                       1603
A4101400390813378814001GIGI D. ABOGADO                                          0501
A4101400420814362598001SABINO, JOSE RIVERA OR                                  10502
A4101400420814362598001SABINO, MA. VICT                                        20500
A4101400550000000315182MARGAJA, FELICITA BITOR                                  0501
A4101400550000000506814DALAGAN, CATALINO B. OR                                 10504
A4101400550000000506814DALAGAN, TERESITA S.                                    20500
A0101404840000000475952GONZALES, ROWENA POLLICAR                                0501
B0101404840000000004144JOY PLANET INC.                                          1603
A0101404840851520766065TAYSON, FERNANDO                                         0501
A0101404840851520766155JOSEFINA VERGARA                                         0501
A0101406750000000090639REY, MARK DARRELL DBU ARISE                             10501
A0101406750000000090639TRADING                                                 20500
A0101406750852184616001EUGENE T. MANGUBAT                                       0502
A0601400230000003015823ALURA, JIMMY SUENO                                      10502
A0601400230000003015823OR ALURA, MERLE                                         20500
B0101415930410412000011**********                                               2003
B0101415930920412000022**********                                               2001
