A0101409180000003780421ESPERANZA LUZ BUNI                                       0501
B0101400150000005015525ADSTRAT ADVERTISING STRATEGIES, INC                      1602
A0101410850000005316945CREENCIA, CHEERISH LIMSON                                0503
A1101400120000003197255GOLONG, CHRISTINE FLORES                                 0502
A0101412890000000371497EDGARDO B NEPOMUCENO OR                                 10501
A0101412890000000371497IVY B BENDAL                                            20500
A0101411790000000469596**********                                               0502
B0101400860011374845003**********                                               1601
A0101400860011400861002**********                                               0503
A0101400860000001005401**********                                               0502
A0101401250021178978001BERTOL, LOLITA B. OR                                    10502
A0101401250021178978001BERTOL, LIEZL B.                                        20500
A0101400150000008938970CRUZ, VERA DIMA                                          0501
A0101400150000003198270PAUL ANDREW D. ROSALES                                   0503
A0101400150000003218373GRISELDA B. TESORO                                       0501
B0101400150061016942007ASIA PACIFIC EXPRESS CORPORATION                         1605
B0101400150061026122002DDC LAND INC.                                            1610
A0101400150061088084001ADZUARA, ELOISA TANECA                                   0501
A0101400600000005942509COMIA, JUAN DE ROXAS OR                                 10502
A0101400600000005942509COMIA, ELEAMOR MACALALAD                                20500
A0101405810000001021310TAN, T DBU T S T TRUCKING SERVI                          0501
A0101405810072234622006HONG, WEN XIAN                                           0501
A0101405810072354724003FUENTES, LILIA S.                                        0501
A0601400100000000032500LACSINA, MARVIN OR CHERYLLAD                             0501
A0601400100081251942001FERNANDO R. NARCISO                                      0504
A0601400100081501761001TAN, WINTHEL OR RALPH                                    0501
A0601400360000008460162MICLAT, MICHAEL CO                                       0501
A0601400520000001706792BUNGQUE, ALDRIN CAPILI                                   0501
A0601400520000005943564FELIPE, DONNA FIDES SOMERA                               0502
A0601400520000007553144SICAT, ARNEL GUZMAN DBU CARD                            10501
A0601400520000007553144WASTE HAULING AN                                        20500
B0101400730111008426001COUNTRY BANKERS INSURANCE CORPORATION                    1603
A0101400730111412858010LOLITA MANALO                                            0503
A0101401960121238731001**********                                               0504
B0101412630132058436001SPACE EDSA CORPORATION                                   1602
A7201400170000003773120ASUGAS, GRACE MARIE NARCISO                              0502
A5001400170000000170152RUSIANA, CRISELDA JACINTO                                0501
A0101400440000000596630MARY ANN A. OYARDO                                       0501
A0101400440161478374198EUFRONIA I. BERGONIA                                     0501
A0101401090171347113001LINO N. BARON                                            0501
A0301400530000001409712OCHEA, CHARLYN S.                                        0504
A0301400530000003573493MORENO, ISAIAS LOYOLA                                    0503
A0101410720653505147001****                                                     0501
B0101412500214065244001NEGRILLO, ALEX DBU POWERSAW TRADING                      1601
B0101412500214065245001NEGRILLO, PU DBU POWERSAN CHAINSAW                       1601
B0101412500214065246001NEGRILLO, ALAN DBU SPS CHAINSAW TRADING                  1601
A3101400160221218333001KATHERINE OR CARLOS SION                                 0505
A3101400450223466114002NATIVIDAD, GINA DUNGO                                    0503
A3101400870000000957917GATDULA, J DBU SIX PENCE                                10502
A3101400870000000957917TRUCKING SERVICE                                        20500
A3001400130000006145206MEBATO, DIORYGIE BERNADEZ                                0501
B1001400190231022229001CITY ALLIANCE CHURCH                                     1602
A1001400190231024431001FMN AGRICULTURAL SUPPLY, INC.                            0503
A1001400190000000124683ABCEDE, CARMENCITA A.                                    0501
A1001400190000002170781RAMIREZ, RHESA CABAGO                                    0501
B1001400350000000017096AYA VENTURES CORPORATION                                 1604
A1001400350233478374033CARAOS, PATROSENIA T.                                    0501
B1301400470252034288003GLOBAL KIDS MONTESSORI OF NUEVA ECIJA                   11610
B1301400470252034288003INC.                                                    21600
A0101406620273458914001**********                                               0501
A0101408660000000034244CO, JOYCE ANGELA NG                                      0503
B0101408660274038999001FRASOR GLASS AND ALUMINUM INC.                           1601
B0101411820000000477430CONLINS COFFEE WORLD, INC.                               1602
A0101400570000002329717HERNANDEZ, JOHNNY TRINIDAD                               0502
B0801400160000002676793TRI-LINE CAR CARE CENTER                                 1603
A1101400120313478374094AGAPITO, ROSA P.                                         0503
A2001400290000004890013RAMAS UYPITCHING, ALEMBERT BRIA                          0501
A0101402350000003880444PAZZIBUGAN, GEMMA DOMINGO                                0501
A0101405650322345025001GASGONIA, DONNA ZAPA                                     0501
A0101405650322412858004GANDOL, ARSENIA BALANE                                   0502
A0101405650000002960843ZAMORA, ENRICO RAMIREZ                                   0501
A0101405650322553258001KHO, MYRNA P. OR                                        10501
A0101405650322553258001KHO, MARIAN P.                                          20500
A0101402510341295367002RETARDO, PRICILA MOJICA                                  0501
A0101402510341325995002ALEX T LIM OR ELISA N LIM                               10502
A0101402510341325995002A.E.L. MARKETING                                        20500
A0101402510341532051001PARAS, JANICE ANN LUPIBA                                 0502
B0101409050000006319348CONCEPCION, GEMMA JOY DARIO                              1602
A0101409050000008087554TORRES, MIA FAE KOH                                      0501
A0201400890000006717053DACAY, RAMON UY OR DACAY,                               10501
A0201400890000006717053THELMA DY PICO                                          20500
A0201401020000003031129DEL PRADO, JOSE VICE DBU DE LAR                          0504
A0101402930381786332002UY, LORRAINE SHEUNG-WING                                 0502
A0101408370000000336150REYES, SELENA TRICIA SANTOS                              0501
B0101408790000006025827WINROCK INTERNATIONAL INSTITUTE FOR                     11602
B0101408790000006025827AGRICULTURAL DEV                                        21600
A0101411660000005324298SABADO, LYKA GARCIA                                      0501
A0101415350000006213172JOSE, ROSEMARIE PADUGA                                   0502
A0101402770000007935746GARE, FRANCESCA PAMELA TAN OR                           10501
A0101402770000007935746GARE, FERDINAND LAURE                                   20500
A0101405490000006214006BENDANA, JACOB CONCEPCION                                0502
B0101405490392047473001DONA SOLEDAD DRUG TESTING LABORATOR                      1601
A0101408400394478374061SONAJO, LOLITA C.                                        0502
A0101408950396084257001HIZON, MARIA POMPEIA ILAGAN                              0502
A0101408950396560269001EVELYN GO GAPUZ                                          0501
A0101408950396594011001MA. TERESA V. PEJI                                       0501
A0101408950396656895001DR. KHRISTINE GRACE CRUZ PULIDO                          0502
A0101409180000003906956ALBERT C. PASICOLAN                                      0502
A5501400120000005492195AUTENTICO, ARLENE SAMON                                  0502
A0901400220000000012299GAYON, MARINA TACHADO                                    0502
B0101403030441031034002**********                                               1610
A0101406330472298552011CARINA F. FALQUERABAO                                    0501
A0101406330472478374041ROSEMARIE A. NAPIGKIT                                    0502
A0101406330472573379001POI HOK SY                                               0501
A0501400170000002354510BERMUDEZ, ELSIE MALAPIRA OR                             10502
A0501400170000002354510LEIZA JR., JUANI                                        20500
A1901400320000002296108MARILYN M BERBERABE                                      0501
A1901400320000002296108MARILYN M BERBERABE                                      0502
A3801400170490080228001SODUSTA, JODY DELOSO AND                                10501
A3801400170490080228001SODUSTA, LEA MANGCUPANG                                 20500
A1401400110492222234003MARTINEZ, FERNANDO PELIPADA OR                          10504
A1401400110492222234003MARTINEZ, MA. LU                                        20500
A1601400170000001360769DON B. NICOL OR MA. DONNA                               10501
A1601400170000001360769MARCY B. NICOL                                          20500
A0101407430000000521071TERESITA V. LORENZO                                      0501
A0101407430503749850012JAYSON M. RUBIC                                          0501
A0101407430503749850013ALBERT G. CHEN                                           0501
A0101403580511155837001JAIME C. LAYA OR                                        10510
A0101403580511155837001ALMA CONCEPCION                                         20500
A0101408530000002980830MANOJ PAUL, CHEMPALAKUNNIL JACO                          0501
A0101411400000001280353SALAMAT, CLOYD DAIRO                                     0502
A0101411400000000484424VILLANUEVA, ALVIN ELVINA                                 0501
A0101411790518055764168GUEVARA, GALVIN LISING                                   0501
A0101412050000009495510YAP, KELVIN H. OR                                       10501
A0101412050000009495510YAP, INGRID MARIE H.                                    20500
B0101403450521011905001**********                                               1604
B0101403450521029235001*******                                                  1605
A0101403450521237751001**********                                               0502
A0101403450521238133001**********                                               0501
A0101403450521238628001**********                                               0501
A0101404000000005867138MANAHAN, JANELLE ANN CAREN QUIN                          0501
A0101404130000000485701MASANGCAY, FREDERICK PACIS                               0501
A0101404130000005962172CASTILLO, EMMA APOLINAR                                  0501
A0101407720000003099154LUCHANGCO, DANIEL NOEL OR                               10501
A0101407720000003099154LUCHANGCO, KARLA ANGELA                                 20500
B0101407720000006945282GREEN LIFT ELECTRO SYSTEMS &                            11602
B0101407720000006945282SERVICES, INC.                                          21600
A0101407720602496503015DANIEL M. LUCHANGCO                                      0501
A0101409890000000209123NADONGA, ADRIANA LALU                                    0502
A0101411530000003238253**********                                               0502
B0101413440000001085610SEASTEMAS INTERNATIONAL, INC.                            1605
A0101413570000005743791MATT LESTER N. MATEL                                     0502
A0101406590000000568758BAUCA, MYRA MEDRANO                                      0501
A0101410300000002375857GARRUCHO, CECILIA B. OR GARUCCH                         10502
A0101410300000002375857O, MARIA CLARA Y                                        20500
A1301400210000000023394FILIPINAS A CALAYAG                                      0501
A1301400340000002283810EDNAVE, KERIMA ANN GARCIA                                0510
A1301400340000000100374PRADO, ERLINDA SORIENTE                                  0501
A1301400500000009606395RUDY V. VELASCO OR                                      10501
A1301400500000009606395MODESTA Q. VELASCO                                      20500
A1301400500684094788001GERODIAS, ANALYN ALCANTARA                               0503
B0101408240711038089001RAJI INC.                                                1602
B0101408240711039803002NUMANCHA INC.                                            1602
A2801400100000005475403SOLENO, MARY ANN CABAL                                   0505
A4101400260812075947001PARADERO, CHARISSE SITCHON                               0501
A4101400260812246527001ISIDRO B. DELA CRUZ JR. OR                              10510
A4101400260812246527001LILIAN H. DELA C                                        20500
A4101400420814477593003BAUTISTA, TERESA PONCEJA                                 0502
A4101400420000000710483ESPANOLA, MA. ANGILY CASANDRA                           10502
A4101400420000000710483CARBA                                                   20500
A4101400550815042023002AUTOWELL TRADING                                         0505
A4101400550815785749001DEQUINA, SOPHIANA YU                                     0501
A0101412340000005964316SCOTT DOUGLAS FESLER OR                                 10502
A0101412340000005964316ANGELINE S. FESLER                                      20500
A0101404840000000475941*************                                            0502
A0101406750000007879483HALASAN, JOSE RANDE POLIDARIO                            0501
A0101406750000008643545CRISTOBAL, ROMINA PENA                                   0501
B0101405070861028566001AVESTA REALTY, INC.                                      1602
B0101413860000001768049MAGIC HEXAGON FLEET CORPORATION                          1601
A0601400230000001062402SALAZAR, MARY DBU PRIMUS TAILOR                          0503
B0601400230000003644808STA. ANA HEALTHCARE PLUS CORP.                           1602
A0601400230000002649950RUSSELL DIZON PELAYO                                     0501
