F0601400520000000398625PADSA ENTERPRISES                                        2605CK1
F4101400260812444904003HERNANDEZ, ALLAN SANTOS OR                              12505CKO
F4101400260812444904003HERNANDEZ, JEAN                                         22500CKO
