B0101407720602821100608**********                                               2005
B0101407720602821100608**********                                               2005
B0101407720602821100608**********                                               2005
B0101407720602821100608**********                                               2005
B0101407720602821100608**********                                               2005
B0101407720602821100608**********                                               2005
B0301400950196821100608**********                                               2003
A0101409210000001294457ARCEGA, SHEILA MARIE L.                                  0501
A0101410140000012678503CATOLOS, ROWENA ZUASULA                                  0501
A0101407720602166653012DR. ERIC S. NUBLA JR.                                    0502
A2401400180411525820001**********                                               0501
A1301400210682251077001CECILIA C. MIRANDA                                       0501
B0101404840851022231001PAINTPLAS CORPORATION                                    1605
A0101400860000010683253LAGRIMAS,GINENA O DBU ZED                               10501
A0101400860000010683253ALBERT PRINTING                                         20500
A0101400860011298552007MA. TERESA N. MERCADER                                   0503
A0101400860011302753002**********                                               0501
B0101400860011305536001**********                                               1601
A0101400860011412769001**********                                               0510
A0101400860011543498001**********                                               0501
A0101400860011656351001**********                                               0502
A0101400860011690030001**********                                               0501
A0101400860011715602001**********                                               0502
A0101400860011746708001**********                                               0505
A0101401250021708864001HAROLD T. TARRAS                                         0502
A0101400150000006239318MORTILLERO, JENNELYN MARIE PICA                          0501
A0101400150061038536044ANDRADE, GIBRIANNE OR ANDRADE,                          10501
A0101400150061038536044JOSEPHINE                                               20500
A0101400150061038536045ANDRADE, JOSEPHINE                                       0501
A0101400150061227111001MOBIUS, MARK                                             0501
B0101400600071328360002**********                                               1601
B0101400600071396916001II                                                       1605
A0101400600071739008001********                                                 0501
B0601400100000002099050TRUE NORTH MANUFACTURING SERVICES C                      1601
A0601400100081254011001PANLILIO, MARIE CARMEN OR                               10501
A0601400100081254011001PANLILIO, AUGUST                                        20500
B0601400520000001706918NAGUIT JR., JOSEFINO F. OR                              11610
B0601400520000001706918NAGUIT, MHELODIE                                        21600
A0101414090000003314843VILLANUEVA, KENNETH BAYLON OR                           10503
A0101414090000003314843VILLANUEVA, JO-AN JAMILO                                20500
A0101400730111386485042ELENA B. PEREZ                                           0502
A0101401960000001844475****************                                         0505
A0101401960121238667001MERCEDES PASCUAL OR                                     10501
A0101401960121238667001MARCELO PASCUAL                                         20500
B0101401960121238903001**********                                               1601
A0101413150000002299290******                                                   0505
A0101412630000007158172STA. CRUZ, CONCEPCION LAZARO                             0501
A0101413310000002318003DELA CRUZ, JOEL ANQUI                                    0501
B0101401830000000033616CARITAS SALVE CREDIT COOPERATIVE                        11603
B0101401830000000033616PACO (006)                                              21600
A7201400170000013359047YBALANE, MESLIE C DBU WALLIE                            10502
A7201400170000013359047GENERAL MERCHAND                                        20500
A0101400440161520766029GLORIA BIADORA                                           0501
B0101401090171034162001UST FACULTY OF MEDICINE AND SURGERY                      1602
A0101401090171195628001PATRIA PEREZ PUNSALAN, M.D.                              0502
A0101401090171196120003MERCY LEE-JATICO OR                                     10502
A0101401090171196120003MATTHEW STEPHEN L. JATICO                               20500
A0101401090171405617001RITA G. DETERALA                                         0501
A0101401090171608247001MARYANN O. ALEMANIA OR                                  10502
A0101401090171608247001JOHN ALDRIN P. EBIO                                     20500
A0301400530000013780873BONGA, VALLIE ROSS BAGA OR                              10505
A0301400530000013780873BONGA, BALDWIN BRIONES                                  20500
B0301400530000013780913CASTRODES, LOUELITO PAINAGAN                             1601
A0301400660000013311210TOLENTINO JR., MODESTO MORENO                            0502
A0301400790000003969644VILLAVER, GENEROSE VILLAGONZALO                          0502
A0101401380201341799001CUA, ISAGANI LAURENTE                                    0503
A0101413600000007006782SHERWIN GILBERT I. ESTEBAN                               0504
A0101413600000012980491SHARON ROSE R. MORTEL                                    0502
B3101400160221224862001JOYME ROCKSCAPES CORPORATION                             1602
A3101400160000001792098TABAMO, LOLITA RODRIGUEZ                                 0502
A3001400130000000067230GAMBA, RAZEL CURILAN AND GAMBA,                         10501
A3001400130000000067230KRISTIN SUAZO                                           20500
A3001400130000008916127MANLIGUES, ELVIRA AGOT                                   0502
A1001400190231520766051NANCIE DAAYATA                                           0501
A1001400190231520766125YANA, MAYFLOR DAGOC                                      0501
B1301400470000003270135EPS HAULING COMPANY INC.                                 1601
A1901400290000001975324CLARIZZ JIMENEZ DEL CASTILLO                             0501
A1901400290000012632490DYNNA MARIEJAVE JAVIER MENDOZA                           0502
A1901400290261298552118CONCEPCION GONZALES ESTIGOY                              0501
A1901400290261499267001ALBERTO GUEVARRA MENDOZA JR.                             0501
B0101401670271022903001PHILIPPINE ASSOCIATION OF THE RECORD                    11603
B0101401670271022903001INDUSTRY, INC.                                          21600
B0101401670271027397001KELEYNA ENTERPRISES                                      1601
B0101401670271038486001POWER FASHION INC.                                       1605
A0101401670000008478242YU, JONATHAN PUA DBU APY FOOD                           10501
A0101401670000008478242PROCESSING                                              20500
A0101406460272288541001********                                                 0501
A0101406620000012950802LOBRAMONTE, JAIME A. OR                                 10503
A0101406620000012950802LOBRAMONTE, MARIE ROSE S.                               20500
B0101406620273017284001ACCENT MICRO TECHNOLOGIES, INC.                          1605
A0101411820000001356332REVUELTA, FRANZ LEONARD CADIZ                            0502
A0101411820000005709931FRANZ LEONARD C. REVUELTA OR                            10502
A0101411820000005709931ANECITA G. REVUELTA                                     20500
A0101400570281188813001PALANCA, JOCYLINE AGUDO                                  0502
B0501400200292037748001FIRST EMA WEST CREDIT CORPORATION                        1610
A0101402350000001474324MARTINEZ, KENNETH BUHAT                                  0502
A0101402350321286438001*************                                            0501
A0101402350321478374013ROSALINA M. MARAVILLA                                    0501
A0101402350000003080435BRION, ALGER LINDO                                       0501
A0101405650322038044001BAYANTILES ENTERPRISES                                   0508
A0101402510000011695153LAM, LILIBETH CHAN                                       0501
A0101402060351043801001EMICOR MARKETING                                         0501
B0101402060000006931946CGD SKIN CARE AND AESTHETIC INC..                        1603
A0101409050000000999619TUMAGAY, ELAINE SUMULONG                                 0501
A0201400890376056207001MARDZ AIRCONDITIONING SUPPLY &                          10502
A0201400890376056207001SERVICES                                                20500
B0201400890376084820001*****************                                        1605
B0101402930381008843001BASIC HOUSING SOLUTIONS, INC.                            1605
A0101402930381207504001MA. IMELDA B. BATAR                                      0501
B0101402930000000057521SYSKEEPER CORP.                                          1602
A0101408370382387809001DR. LEAH ROSARIO Y. DYCOCO                               0501
A0101408370382392588002DR. CECILE S. CASIMIRO                                   0501
B0101408790383065564001URBAN ECO-LIVING DEVELOPMENT CORP.                       1602
A0101402770000001571273TAMAYO, ANGELO PADER                                     0501
B0101405490392030959002DIAMOND ROAD INTERNATIONAL CORPORATION                   1601
A0101408400000003515091IMLANI JR., KUHUTAN HORA                                 0501
B0101408400394025834001TRELLIS RESTAURANT, INC.                                 1605
A0101408400394383346001QUIAMBAO, RENATO BONIFACIO                               0501
B0101409180397042774001CDC REALTY INC.                                          1601
B0101409210398042656001FIELD OUTSOURCE ASIA, INC.                               1612
A0101412210399094817002TEODY A. PASCUAL                                         0501
A0301400820000001185780RUFEROS, ROY KENNETH OR                                 10501
A0301400820000001185780AREVALO, MICHELLE KAY                                   20500
A0301400820000010546391ALALONG, FILIBETH HERUELA                                0510
B2401400180000011299068GS GAVEL LOGISTICS CO., INC.                             1601
A2401400180411752561001OSORIO JR., EUGERLY JANOLINO                             0501
A1201400150000006253716DAPLIAN, BRIAN RAGUINDIN                                 0503
B1201400150421287283001TAN, CORAZON ANG OR TAN, JOSE NG                         1601
A1201400150421464835001PADLAN, MICHAEL G. OR PADLAN,                           10502
A1201400150421464835001CHARINA L.                                              20500
A0901400220000001805129**********                                               0502
A0901400220432478374002EVELYN ALGA DEMECILLO                                    0501
A5101400100000011337090COLINARES, CRISTOPHER NAGUIO                             0501
B0101412890000007906092PAPAJEK FOOD CORPORATION                                 1602
A0101406330000001235421GABUTERO, ROSELYN OBENIETA                               0501
A0101406330000004349519MENDEZ, RELYN NICOLAS DBU                               10503
A0101406330000004349519MENDEZ BAKERY                                           20500
A0101410140000000499189CASULLA, MELANIE PITAO                                   0502
A0101410140000006015390LOPEZ, DIOSDADO ORDANZA                                  0501
B0501400170481023333001MEDIA TOUCHSTONE VENTURES, INC.                          1602
A0501400170481330355001JESSE STEWARD L ONG                                      0502
A0501400170481478374001JOSEPHINE MACARAEG                                       0501
B1901400160491027966001SALESFORCE ONE MARKETING, INC.                           1605
B1901400160491027966002SALESFORCE ONE MARKETING, INC.                           1605
B1901400160491027966003SALESFORCE ONE MARKETING, INC.                           1605
A1901400160000009055038BONDAD JR., CONRADO AUGUST                              10502
A1901400160000009055038AMBIDA                                                  20500
A1401400110492064340001DY, D DBU DAVE AND GOLIATH ENTE                          0503
A1601400170000013603071BALDOZA, RIAN BORILLA                                    0501
A0101407430000014083757MENDOZA, JOSEPHINE BANZON                                0501
B0101407430000001213089ASSOCIATED FREIGHT CONSOLIDATORS, INC.                   1601
A0101403580511005225001CARMELO SANTIAGO                                         0510
B0101403580511015363072MEC - EMD ANGONO                                         1610
B0101403580000000214673MEC - SHANATA                                            1603
B0101403580000000214702MEC - CAMBRIDGE                                          1603
A0101403580511151398002ARIZA TERESA MANGALILE OR                               10501
A0101403580511151398002REYNALDO JOSE MA                                        20500
A0101403580511151510001NOEL B. SALAZAR                                          0502
A0101403580511196754001CARMELITA E. LA O' JT                                    0501
A0101408530000014069600GRINO, BRYAN MARCO ANTONIO                               0501
A0101408530000014069673JOSE, JASON ALEXIS ROSELLO                               0501
A0101408530516488162001JASPER P. VALLEJO                                        0501
A0101411790000012947907PULIDO, PATRICK ALVIN ERMITA                             0501
A0101411790000014058716PARRENO, ANGELO ESPIRITU                                 0501
B0101403450521011878001**********                                               1602
A0101403450521238268001**********                                               0502
A0101403450521697442001**********                                               0501
A0101403610000007106185TUAZON, JERICO MANALANG                                  0501
A0101403610000014051213PUYAWAN, FERNANDO V DBU                                 10501
A0101403610000014051213FVP PAINTING ENTERPRISES                                20500
A2201400250000003558218REYNALDO R. RARAMA DBU TRIPLE R                         10501
A2201400250000003558218FABRICATION & METAL WORKS                               20500
A2201400250561085982001ALLEN BRIAN SY CO                                        0501
A2201400250561297004020NOEMI M. MADAMBA                                         0501
B0101404130000005017696IPRUDENTIAL STEVEDORING AND PORT SE                      1601
B0101404130000003105751GOLD NUGGETS HAULING AND TRUCKING CORP.                  1602
B0101404130601563008001I. PRUDENTIAL SHIPPING AGENCY SERVICES                  11605
B0101404130601563008001INC.                                                    21600
A0101407720602210403001JOSEPHINE QUINTOS-APOSTOL OR                            10502
A0101407720602210403001CARLOS FAUSTINO                                         20500
A0101404260611151095003SELORIO, ANNA RUTH C.                                    0502
A0101413990000006278237DE CASTRO - AGBUYA, HAYDEE AMOR                          0501
A0101414120000002879743DE GUZMAN, JENNY MERLIE APOLINA                          0502
B0101414120000001142829HOLCIM BULACAN MULTI-PURPOSE                            11602
B0101414120000001142829COOPERATIVE                                             21600
B0101414120000007655378ABMARAC CORPORATION                                      1601
A0101414120000012536173MARAMAG, REMEDIOS AGUAS                                  0501
A0101406590000013927147GAMBOA, MIRASOL MADRID                                   0501
B0101406590000000905511MAINEVENT AND MARKETING CORP.                            1604
B1301400210000008173911FTC77 CORPORATION                                        1602
A1301400210682539533001ROBERTO L TUGADE OR                                     10504
A1301400210682539533001MARA B TUGADE                                           20500
A1301400500000012913252********                                                 0503
B1301400500000005963404PAGASA PHILIPPINES LENDING COMPANY INC.                  1605
A0101408240000000039392RAMIREZ, RENATO OR AURORA                                0502
A0101408240000003955135RAMIREZ, CASSIUS GABRIEL OR                             10501
A0101408240000003955135RAMIREZ, MA. ROSARIO                                    20500
B0101408240000010815200CLEARCHOICE ADVANTAGE CORP.                              1601
A0101408240000001038777MOHAMMAD, JORRY VIDAL                                    0501
A0101408240711621775001BICHARA, MIGUEL PANAYOTTI                               10501
A0101408240711621775001OR BICHARA, CRISTINA                                    20500
A2801400100000002253458DATU, FERDINAND BULAONG                                  0502
A2801400230000000937480ROLDAN, RUTH MARIE ALBANO                                0501
A4101400260000014081660ESPOSO, PAOLO MONTE                                      0501
A4101400260000014081922LACSON, MARIARITA OLVIS                                  0501
A4101400260000014082076TEMPLO, VANESSA MICHELLE MATANG                          0501
A4101400260000000469329FALCUTILA, MARISSA RAMOS                                 0503
A4101400260812478374058DHIESEL M. SAULOG                                        0501
A4101400420000004848108ISABELO, MORMON TUBELLO                                  0505
A4101400420000003715564SARIA, LESTER DBU DESERT QUENCH                         10501
A4101400420000003715564WATER REFILLING                                         20500
A4101400420814520766027ARUTA, CORAZON G.                                        0501
A4101400420000006643490LA AS, NORA P.                                           0501
A4101400420814520766135MOTILLA, ROSELLE                                         0501
A0101404840000004565793MURAKAMI, TAKU                                           0501
A0101404840851509778001LABAROZA, RAZEL GOLINGAN                                 0501
A0101404840851520766175RUTH CONDE                                               0501
A0101406750000004642006MALINIS, LISBETH MANALANG                               10501
A0101406750000004642006OR MARIO MALINIS                                        20500
A0101406750852717935001GOROSPE, MARVIN AGUILAR                                  0501
A0101405070861197611001TIU, DANNY TY                                            0501
A0101405070861478374066ELMER LADRES APAS                                        0501
B0601400230000010299153PACIFICOIL ENTERPRISE INC                                1605
A0601400230000010702995NAGUIT, MHELODIE OCAMPO                                  0502
A0601400230891453005001NUNAG, VIRNA GALANG                                      0501
A0601400230000007402188CHUA, MARK ANTHONY GARCHITORENA                          0503
