F3101400450223028412001CERDA MATERNITY CLINIC                                   2501CKO
F0101408370382339241001MICHELLE MARIE D. JARIN M.D.                             2501CKO
F3201400190000001493067PRUDENCIO R. REQUILMAN DBU                              12602CKO
F3201400190000001493067DENIKS MARKETING                                        22600CKO
