F1901400160491040836004DR MA JOYCELYN R MERCADO                                 2501CKO
F0101406880513026861001BONIFACIO WEST DEVELOPMENT CORPORATION                   2602CKO
F4101400260812033409001NEW DASMA GOLD BAKE INC.                                 2601CKO
F4101400260812033409002NEW DASMA GOLD BAKE INC.                                 2601CKO
F4101400260000001673423POTESTADES, MARY GRACE LAJO                              2508CKO
F4101400260812444904003HERNANDEZ, ALLAN SANTOS OR                              12505CKO
F4101400260812444904003HERNANDEZ, JEAN                                         22500CKO
