A0101409920000010528800PALMA, MA. LOURDES JIMENEZ                               0502
A0301400950000014675871NARCA JR., CESAR PASAOL                                  0502
A0101400860000007087132*******                                                  0502
A0101400860011397182002**********                                               0503
B0101400860000001005343**********                                               1606
A0101400860011426836001*********                                                0502
A0101400860011498256002**********                                               0503
A0101400860011549648001**********                                               0505
A0101400860000016724168***********                                              0501
A0101400860011686506001**********                                               0502
A0101400860011717406001**********                                               0502
A0101401250001120000426CHING, SHIRLY SY                                         0501
A0101401250000016175901BALIAO, JOVITA LINGGON                                   0502
A0101401250021183977001RCAM - SANTA CLARA DE MONTEFALC                         10503
A0101401250021183977001PARISH                                                  20500
B0101401250021185567001STA. CLARA PARISH SCHOOL                                 1605
A0101400150000003141482CABRERA JR., PELAGIO ESPERAT                             0502
A0101400150061242841001MA. AURORA ORTIZ  OR                                    10501
A0101400150061242841001MA. AURORA CARLA ORTIZ                                  20500
A0101400150000012145925CALLAO, JUDITO DEI RAMIREZ                               0501
B0101400600071396916001II                                                       1605
B0101400600071396921001**********                                               1605
A0101413280000011101690CHRISTIAN C. LIM                                         0501
A0101413730000008263930*************                                            0501
A0101400730111386485162DINA F. ALIBIO                                           0502
B0101401830000000033649CARITAS SALVE CREDIT COOPERATIVE-                       11605
B0101401830000000033649PASAY (009)                                             21600
A0101401830141206150003MARIA ROSALINDA M. GUAZON                                0503
A5001400170000000044982URBAN PAINTS & MORE ENTERPRISES                          0502
A0101400440000001440000LAPASARAN, MARY GRACE FRANCISCO                          0501
A0101400440000004889887BALINGBING, LEONORA SINUTO                               0502
A0101400440161478374018MA. DELIA P. FERMANTE                                    0501
A0101400440161478374021DOROTHY D. SANICO                                        0501
A0101407270162331908108WILLIAM VILORIA                                          0501
A0101407270162333006028BENEDICT M. CALINA                                       0501
A0101407270162587936002WILFRIDO G. TIRONA                                       0501
A0101401090000017119023MAGNO, BELMAR TINA                                       0501
A0101401090171390510001CHRISTIAN ESGUERRA                                       0502
A0301400530193042429001********                                                 0505
A0301400530193044799001AJB AUTO GLASS AND                                      10505
A0301400530193044799001ALLIED SERVICES                                         20500
B0301400660000012086787KUDOS AIR SHUTTLE & SERVICES CORP.                       1601
A0301400790000003969644VILLAVER, GENEROSE VILLAGONZALO                          0501
A0301400790000008015121CADALZO, DENNIS SALOMERI DBU                            10502
A0301400790000008015121ULTRA-GOLD MOTOR                                        20500
A0301400950000013857275CRAFTY-CREATIONS CATERING                               10501
A0301400950000013857275SERVICES                                                20500
A0301400950000011694707AUXILLO, JAIME DBU AUX DELIVERY                          0505
A0101401380000015062552GALICIA, CARINA DELA PENA OR                            10503
A0101401380000015062552GALICIA, ANNA DELA PENA                                 20500
A0101410720653173243001ARLENE MAE LIM OR DOLORES LIM                            0502
B3101400160221039189002SPRINGDALE GARDENS HOMEOWNERS                           11601
B3101400160221039189002ASSOCIATION, INC                                        21600
B3101400450223022719001GENCARS SAN PABLO, INC.                                  1610
A3101400450223588221003GATDULA, JAMAILA AGONCILLO OR                           10502
A3101400450223588221003MADERAZO, CRISTINA                                      20500
A3101400450000005355539ANGELES, LINDSAY CELINO                                  0501
B3101400740000000013878S & P MEDICAL AND DENTAL TRADING, INC.                   1605
A3101400870000008979742ALTEZ, MARY ANN ORTAL                                    0501
A3001400130000010506457DE GUZMAN, GEMMA MORENO                                  0501
A1001400190231436392001UYGUANGCO, JENNIFER PABILLORE                           10501
A1001400190231436392001OR KEN NINO TIRO                                        20500
A1001400480000000133337TUDTUD, NELSON ATAMOSA                                   0501
A1001400480000014023433RANIDO, LORNA ZAMBRANO                                   0501
B1301400470000000009550ADVANCE MICROFINANCING CORP.                             1601
B1301400760253044451002CONSUMERREACH, INC.                                      1610
B1901400290261038595002B & V TRADING                                            1605
A1901400290000011794519DR. ROMMEL D. ALCANTARA                                  0503
A0101406620000001686940TOBIAS, ADRIAN LUIS MA CHENG                             0502
A0101406620273553996001CHONG, KATE MING                                         0501
B0101411110000000604982LUCKY STARGAZER CORP.                                    1601
A0101412470000000853834CHUNG, EUN JOO                                           0502
A0101400570281186580001DR. ARSENIO C. CANTOS OR                                10505
A0101400570281186580001DRA. CORAZON CANTOS                                     20500
B0501400200000006444868LIS INVESTMENT CORPORATION                               1610
B0501400200000006444813CRJ 620 QUICK LOANS CORP.                                1605
A2601400270000002257223FERDINAND D. TALAVERA                                    0501
A2601400270000007951177RAYMOND RUEL D. VALLE                                    0501
A0801400160000012928473AGUILLON,FILAMIE OR TAPALES, MA                         10505
A0801400160000012928473RIBEL OR SANAGUSTIN,MARIA                               20500
A6601400120314071890001MARTIRES, MYLA TURLA                                     0502
A6601400120314612973001CABILI,MANUEL MELFORD OR MANUEL                         10503
A6601400120314612973001OR TERESITA OR Z                                        20500
A6601400120314618149001DY, FRANCO NEIL TUBELLO                                  0510
A6601400120314646431001DUBONGCO JR., ARTURO OR                                 10502
A6601400120314646431001DUBONGCO, ARLENE                                        20500
A3401400280000000156621LOIDA C. GARCIA                                          0502
A0101402350000003880502REGINALDO, STEPHANIE CUSI                                0501
A0101402350000014043959CRUZ, LOLITA FRANCISCO                                   0501
A0101402350000014044070JANGAYO, DOMINGO BUENAVIDES                              0504
A0101402350321180119001SHERENA O. PARUCHA OR                                   10501
A0101402350321180119001VIRGILIO B. PARUCHA                                     20500
A0101402350321533961001GAMBOA, ERIC S. OR                                      10502
A0101402350321533961001GAMBOA, SHIELA P                                        20500
A0101402350321548644002MANZANO, MARIO OR                                       10502
A0101402350321548644002MANZANO, SHIRLEY                                        20500
A0101405650000001912107NAOE, PATRICIA ORONAN                                    0501
B0101402510341570408001DIO IMPLANT PHILS CORP.                                  1602
B0101402060000000653907LAY BARE SUPPLIES DISTRIBUTION                           1603
B01014020603512175500020ETRON VALLE VERDE                                       1610
A0101409050000005364314PATRICIA M CAMACHO                                       0501
B0201400760374043666001FORMWORKS RUBIA ARCHITECTS                               1601
A0201400890376272044002LEE, JOSEPH KENNETH G. OR                               10502
A0201400890376272044002LEE, MARIA CARME                                        20500
A0101402930381279196001JUAN MIGUEL R. BONDOC                                    0503
A0101402930381410766001MILADEL LOURDES R BONDOC                                 0503
A0101408370382445179001********                                                 0502
A0101408790000016571789DIO, NINO LANDICHO                                       0502
A0101408790000005251387**********                                               0502
A0101415350000005356889MARCELO, LEA D. OR GABINETE                             10502
A0101415350000005356889MARIE SUZZETTE Z.                                       20500
A0101408400000005286411GUILLERMO, PRESCILLA SALISE                              0502
A0101408400394078250001MALA, ARATOC DISOCOR                                     0502
A0101409180000002252488SIETEREALES, SERGIO CARLO INARD                          0502
A0101409210000009309811CACHERO, HELENE ANDREA LIMGUANG                          0501
A0101412210000005302812QUEVENCO, MIRIAM CECILIA                                10504
A0101412210000005302812MAGBANUA                                                20500
A0301400820000012928542BELDORO, LORRAINE V.                                    10501
A0301400820000012928542OR BELDORO, RAMIL S.                                    20500
A5501400120410633077001CLAVISILLAS, JOSIE OR                                   10502
A5501400120410633077001CLAVISILLAS, RON                                        20500
A5501400120000000046922CHIU, VALENTIN & JULIA EILEEN                           10505
A5501400120000000046922CHRISTIAN & CHRI                                        20500
A5501400120410691845008INOCENCIO, ELLAIN MARGARET M.                            0502
A1201400150000016104322MONTERO, KEVIN IPO                                       0501
A0901400220000010424950SUAREZ, VYM BLANDO                                       0501
A0901400220000011299239**********                                               0501
B0901400220432750068001NOCOM, JOSELITO GABRIEL                                  1601
A5101400100000011337090COLINARES, CRISTOPHER NAGUIO                             0501
A5101400100000011337243BALAGULAN, ABNER TUQUIB                                  0501
A5101400100000010834352RAMOS, EDETORIO SABADO                                   0501
B0101403030000011253886ONG, BIANCA MARIEFER DBU IACA88 TRADING                  1601
A0101412890000009833890TAGAYO, BERNARD TORRENTE                                 0501
A0101412890000009833554AMIDO, ANNA LIZA GUEVARA                                 0501
A0101412890000011813142HERNANDEZ, ANNALIZA PALANA                               0501
B0101403320471031797001SUNBEAM MARINE SPORTS CORPORATION                        1603
A0101406330472032469001SILVER SPOON GIFT SHOP                                   0501
B0501400170000013295917LEAD WITH INTEGRITY AND GOOD GOVERN                      1610
A1901400160000016875562MALALUAN, ARVIN DE TORRES                                0502
B1401400110000016690581ARAPELES, BENJAMIN NAVARRO DBU JIEN                      1601
A1601400170000000036531ERNESTO REYNOSO OR ISABEL                               10503
A1601400170000000036531REYNOSO OR CARLO                                        20500
B1601400170494055482002ROOTWORX, INC.                                           1601
B0101403580000000214651MEC - ANGONO PC                                          1605
B0101403580511427656001PHILIPPINE ASSOC. OF AMUSEMENT PARKS &                  11601
B0101403580511427656001ATTRACTIONS INC.                                        21600
A0101403450000011972322*************                                            0501
A0101403610000007106221TABUZO, FLORLITA GONZALES                                0501
A0101403610000009973642CABATINGAN, JOHANNA APRIL                               10502
A0101403610000009973642DURANGO                                                 20500
A0101403610000017054518DELA YSLA, AGUSTIN ESPINEDA                              0501
A0101403610000017063439MERCED, EMERALD JOY GATUS                                0501
A0101403610000012945325PILI, RUEL S DBU GIMAYA FOOD                            10502
A0101403610000012945325STOP OR PILI, GISELLA                                   20500
A2201400250000006275749BARBIN, MARESH CASTILLO                                  0502
A2201400250000013859813DIAZ JR., NICOLAS ZAMORA DBU                            10501
A2201400250000013859813NZD CONSTRUCTION SUPPLY                                 20500
A2201400250561478374006ANGELINA P. QUIBALLO                                    10502
A2201400250561478374006MEMBERS OF NATASHA                                      20500
A0101407720602573340001BERMUNDO, MA. JUANA FLORES                               0501
A0101412180000002340603PAGAYATAN, ALLEN TAAY                                    0501
A0101412180000013362813********                                                 0501
A0101404260000003498631ACIERDA, R DBU ROGER ACIERDA FL                          0505
B0101404260000004781335LIM, HERMAN DONATO DBU ONEFULL TRADING                   1602
A0101404260611150932002DELIA D. UY                                              0501
A0101404260611151571002CHING, GUANZON JT                                        0502
A0101409920650078985001REYES, ANGELINA BERSABE                                  0502
B0101407690000003767846DATUIN, AG DBU SMDS MEDICAL DOCUMEN                      1601
B0101407690000007720090MT. ARARAT MOTORS, INC.                                  1601
A0101407690000006736532SELUCE, GRACIA DBU GRACIA MON                           10502
A0101407690000006736532ENTERPRISES                                             20500
A0101407690652297173003LAQUINDANUM, ELIAS CONCEPCION                            0501
A0101413570000010013313JONEE AZUCENA                                            0501
A0101413990000006278237DE CASTRO - AGBUYA, HAYDEE AMOR                          0501
A0101413990000006768581NEBRIA, ESTER P. DBU BUTTER-NUT                         10503
A0101413990000006768581BAKESHOP                                                20500
A0101414120000007655298STORM CONSTRUCTION                                       0502
A0101414120000002879863******                                                   0501
A1301400210682540902001MARISA J RAMOS                                           0510
A1301400500684478374003ELMA I. DE LEON                                          0501
A1701400230000011255273ACE STAR SECURITY AGENCY, INC.                           0501
A2801400100712584654001GARCIA, RACHELLE EDELO       OR                         10501
A2801400100712584654001GARCIA, EMMANUEL                                        20500
A2801400230000005752478BIRON, JUDITH MANLAGNIT                                  0502
A2801400230000005253305EMETERIO, MARY JANE GUMAFELIX                            0501
A4101400260000010623844DIVINA, NORIETA IBALIO                                   0502
A4101400260000014840412ALDANA, RESTY FRANCISCO                                  0502
B4101400390000006103548IZU NOBLELINK INC.                                       1601
A4101400420814520766004SALVACION D. BITANCUR                                    0501
A4101400420814520766027ARUTA, CORAZON G.                                        0501
A0101412340000003340401ABUYUAN, GLENN REYES                                     0501
A0101412340000003564436LOUIE REZZIE R. LUARCA                                   0502
A0101412340000004869816BERNADETTE S. HIDALGO                                    0502
A0101412340000007305757EVELYN D. ALVAREZ                                        0501
A0101404840000010224505Ricalde, Mary Ann A.                                     0502
B0101404840000006365295PI COOL GAGS, INC.                                       1601
A0101404840851334120001MARY ANN R. PANGAN OR                                   10501
A0101404840851334120001JOHN NOEL PANGAN                                        20500
A0101404840851520766067JOSEPHINE V. GABAYERON                                   0501
A0101404840851520766073ELIZABETH A. SUAZO                                       0501
A0101405070000011795778CHEN, YI                                                 0502
A0601400230000007954183SIACO, JAMES NGAN                                        0505
A0601400230000007402122TULOP, HELEN ACAR DBU STRONGSCR                          0505
