B0101403030441821100608**********                                               2005
B0101410560110821100608**********                                               2002
B0101410560110821100608**********                                               2002
B0101410560110821100608**********                                               2002
B0101410560110821100608**********                                               2002
B0101410560110821100608**********                                               2002
B0101410560110821100608**********                                               2002
A1201400150000016721590BAJO, MERCILITA GANIELA                                  0501
A1601400170000001068640JOSE NOEL R. RUBIO                                       0501
A4101400390813775566002MARIO C. TUAZON                                          0502
A0101412340000017430552ROSARIO, MA. SHERLITA DE LEON                            0502
A0101400860011298552007MA. TERESA N. MERCADER                                   0503
A0101400860011479962001**********                                               0502
A0101401250000016175901BALIAO, JOVITA LINGGON                                   0502
A0101401250000000460586AZUCENA, MARIA PAMELA ENRIQUEZ                           0501
A0101411370000014023211ANINO, JELYN LUAREZ                                      0504
A0101400150061230586001MARTIN STEPHAN JAKOB KURER                               0502
A0101400150061344118001AMIEL M. MERCADO                                         0502
A0101400600071295528002ONG, LULU SEE                                            0502
A0101405810000016514362WU, QING BO                                              0502
A0601400100000007250702CANCIO, JIAMEI LIAMCO DBU ONE P                          0502
B0601400100081256915005KWONG, WILLIAM G. OR                                    11603
B0601400100081256915005ANTONIO, ADELA                                          21600
A0601400100081403474003TAYAG, DENISE OCAMPO                                     0502
A0601400100081462821001TAN, CHRISTOPHER RYAN TAGUBA                             0505
A0601400360000008460184CALAGUAS, PETER JOSEPH AVIADO                           10501
A0601400360000008460184OR CALAGUAS, LULU SISON                                 20500
A0601400520000009516485CRISTOBAL, LUISITO QUIZON                                0502
A0601400520000013873260CARREON JR., LEONARDO MAGDALENO                          0502
B0101413280000000041910INTERNET OF THINGS PHILIPPINES INC.                      1602
A0101413280000011809233SABILE, ALVIN DORINGO                                    0501
A0101414090000016344666TACORDA, JHOANNA PAULA ESPIRITU                          0501
A0101410560000005280939CELZO, ARIEL TENGCO                                      0501
A0101410560000013758940VERGARA, GLENDA PATULAYIN                                0501
A0101401960121238762001VICENTE CO                                               0501
A0101412630000004062042RACHO, E DBU RAR ELJAY                                  10501
A0101412630000004062042AUTO SUPPLY                                             20500
B7201400170000003773477RONALD O. DIAZ OR LORRAINE C. DIAZ                       1602
A7201400170000000040575ELCAMEL, BELEN PEDROZA                                   0502
A7201400170000017780373VELAYO JR., ROSALIO OSORES                               0501
A7201400170000007185911ARANDING, DWIGHT JOSHUA MEDADO                           0501
A7201400170000013006836LIDRES, SHEILA GRACE TAN                                 0502
A7201400170000017777223ACTUB, DENIS DE FIESTA                                   0501
A0101412920000016275633GONZALES, BOBBIE JIMENEZ                                 0501
A0101400440161525001116MARITESS Q. MIRANDA                                      0502
A0101407270000007525295CORTEZ, ALFRED BALATBAT                                  0501
A0101401090171195271002MARQUINEZ, LILIA AQUINO                                  0501
A0101401090171679816001GRACIA MARIA P. PIMENTEL                                 0502
B0301400530000002318463YANG, ANDREI REYES                                       1605
A0301400530000015818570CELESTE, LESTHER CYRELL BALOGO                           0502
B0301400530000003573493MORENO, ISAIAS LOYOLA                                    1604
A0301400790000012274236GENTILES, DIOSA CASCABEL                                 0505
B0101413020000006316805SYNDTITE CONSTRUCTION CORPORATION                        1606
B1001400190000011826823COTEJO, JUNIE JARABE DBU JEC EQUIPM                      1605
A1001400350000000922014PEARSON, PILARCITA ROA                                   0502
A1001400480000010131441BERJES, RINO OPOL                                        0505
A1001400480000014636007BAYHON, ARTURO O. DBU AVL INDUS                         10505
A1001400480000014636007TRIAL SALES & SERVICES                                  20500
B1001400480000017158419TASTYBITE FOOD CORPORATION DOING BUSINES                11601
B1001400480000017158419S UNDER THE NAME                                        21600
A1301400760000009812320BESA, LEAH MAE CRUZ                                      0501
A1301400760000012980913DIVINO L. FELICIANO OR GEORGINA                         10501
A1301400760000012980913C. FELICIANO                                            20500
B1901400290261034107001FIESTA WORLD MALL CORPORATION                            1610
B0101406460000000182512FG GLOBAL MARKETING INC.                                 1601
A0101406620000000193760DIAZ, FRANCIS PATRICK TAYENGCO                           0501
A0101406620000004926201REQUILMAN, OLIVER CHAN                                   0503
A0101406620273401834001JACOB, JIMMY MIRAVALLES                                  0501
B0101411110000000009098NET4SITE PHILIPPINES INC.                                1604
B0101412470000008927551KING, CALIBER UY DBU HIGH-CALIBER                       11603
B0101412470000008927551TRADING                                                 21600
B0101400570281015729001SLMC EMPLOYEES ASSOCIATION - AFW                         1602
B0101400570281015729002ST. LUKE'S MEDICAL CENTER EMPLOYEES                     11603
B0101400570281015729002ASSOCIATION                                             21600
A0101400570281340990001JOSEFA A. PALANCA OR JOSEPHINE                          10504
A0101400570281340990001P. RAFER                                                20500
A0101400570281385805001MARIA ELENA T. LAGNITON                                  0503
A0101400570281544571001CRUZ, BORIS CAMPOS                                       0502
A0101400570281739506001JOHN CLAUDE S. CABREROS OR                              10502
A0101400570281739506001HERBERT R. FERANDEZ                                     20500
A2001400290000014190002GUYLAN, ADRIAN UYAG                                      0501
A3401400280000016682214MORALES, HANNA JENICA BERNALES                           0501
A0101402350000005645121DANAO, LINO DBU L 2 AUTO SHOP                            0501
B0101402350000014043562QUEG, CHRISTOPHER MULI DBU CM QUEG                       1602
B0101405650000000772652MARY MOUNT SCHOOL                                        1605
B0101409050000007526403PARANE, J DBU KJY EVENTS MANAGEMENT                      1601
A0101409050000007511891LEYRAN, JENNIFER SICILIA SALMIN                         10501
A0101409050000007511891OR LEYRAN, JUAN                                         20500
A0101409050352600066001FAYE CARLIE CRUZ OR                                     10503
A0101409050352600066001BENSON RYAN CRUZ                                        20500
B0201400760374031471004PHILPACIFIC INSURANCE BROKERS &                         11610
B0201400760374031471004MANAGERS, INC                                           21600
B0201400760374031471005PHILPACIFIC INSURANCE BROKERS &                         11610
B0201400760374031471005MANAGERS, INC                                           21600
A0201400890000014086581BORJA, GRAY-BOY P. OR BORJA,                            10501
A0201400890000014086581RIZALYN JOY G.                                          20500
B0101408400394032168001ALQUIROS FOOD CORPORATION                                1602
A0101408400394471974002PESICO, GINA GERALDINO                                   0501
A0101412210000016641060GELITO, KATHERINE MIRANDA                                0501
A0101412210000009674224CHENG, SAN-HO                                            0503
B0101412210000007251716ROCK OF REFUGE CHRISTIAN CHURCH INC.                     1602
A0301400820000010546459ESCANO, EMIRY FERNANDEZ DBU                             10501
A0301400820000010546459DOUBLE S BANANA CHIPS                                   20500
A0301400820000005991633SARABILLO, MERIAM M.                                     0501
A0301400820409094648001LADAGA, SHERRYL E. OR LADAGA,                           10501
A0301400820409094648001JOSEPH FRANKLYN                                         20500
A5501400120000012653300MAHUSAY, EVANGELINE                                      0501
A5501400120000015561016DATO, PEDRO DELA RAMA DBU P.M.                           0502
B5501400120000005492435FOUR M RESOURCES AND ADVANCED TECHN                      1610
A5501400120410614539002SAGABAY, LOURDES A.                                      0502
A2401400180000017622009LLORENTE, RITA MAMMAH                                    0502
A1201400150000011415682PALANGDAO, JOY JASMIN DELA CRUZ                          0502
A1201400150000015799572ANG, ROSARIO CUA                                         0501
B0101403030441821200608**********                                               2001
A0101412890000007095232LINNUEL SANTOS LORICO                                    0501
A0101412890000014437237MAGNO, MARIAN CARMELA BERNAL                             0501
A0101412890000017805808****************                                         0501
A0101403320000017917434MANUIT, BEVERLY A.                                       0501
A0101406330472536028001ARLES MIRANDILLA OR KRISTINE                            10501
A0101406330472536028001MIRANDILLA                                              20500
A1401400110000014892789BACUNGAN, CHERRY PADILLA                                 0501
A1401400110000013091559BUERA, ALICIA DBU VJ NARVAEZ GE                          0502
A1601400170000012410803AZOTEA, MARJORIE FRESADO OR                             10502
A1601400170000012410803AZOTEA, WARREN BERMILLO                                 20500
A1601400170000014244969DY, JERRY SY OR DY, MARIA                               10502
A1601400170000014244969SALUD VITO                                              20500
A0701400260000014169036ANGELES, SARAH CELESTE                                  10501
A0701400260000014169036DEL CASTILLO                                            20500
A0701400260000015110413ZABALA, VILMA DELA CRUZ                                  0505
A0701400260000006599582WONG, ALEX OR EUGENIA DBU                               10501
A0701400260000006599582RICHWOOD CONST. SUPPLY                                  20500
A0101407430000001028864CECILIA SY CAMPOSANO                                     0502
A0101407430000017588004EMPLOYEES OF, PANALPINA GLOBAL                           0502
B0101405940512023092001CONSUNJI & BONIFACIO LAW OFFICES                         1603
A0101405940512152920001***********                                              0501
A0101408530000008159564DENVER S. GUADILLA                                       0501
B0101403610531035875001G'TECHNOLOGIES INTL. INC.                                1605
A0101410690000016105661SIGLOS, DINA TAMAYO                                      0502
A0101407720602294677001RAYMUND I. DURAN OR                                     10503
A0101407720602294677001IRENE MAE T. DURAN                                      20500
A0101407720602384186003SARMIENTO, JOSIERINA YANEZA                              0501
A0101407720602421754002LIM, CHRISTINE EBARVIA OR                               10502
A0101407720602421754002LIM, LEONCIO N.                                         20500
A0101407690000006736423SALUDES, DONALYN SALUDES DBU                            10502
A0101407690000006736423NJJS REFRIGERATION                                      20500
A0101407690652740599001FORMARAN, EDNA MARIANO                                   0502
A0101413440000006680602CABATANA JR., VICENTE TARSUNA                            0502
A0101413990000017513532AVILES, ADRIAN JULIUS BULAYA                             0501
A0101414120000011288910SIMBAJON, MARICEL MACAPUNDAG                             0502
A0101414120000001142852TERESITA M. PUYAT OR MARY ANN                           10505
A0101414120000001142852MAGNO                                                   20500
B0101414120000004603398WEBLEND INC.                                             1601
B0101410300000000191586******                                                   1602
A1301400210000005040577**********                                               0502
A1301400210000007669314TOLENTINO, JEZREEL LAZARO                                0501
A1301400210000013218616ATIENZA, NICOMEDES ATIENZA                               0502
B0101408240711024975001ZMC INTERNATIONAL INC.                                   1601
A0101408240711390504002ROXAS, CHITO OR SHEILA                                   0510
A0101408240000006600244CARAG, KATHRYN CONCEPCION                                0502
A2801400230000014972075GUTAY, ARACELI SAPLAN                                    0501
A4101400260000017904606LACORTE, IVAN JOHN DEE BARON                             0501
A4101400260000017904840MARCOS, NESTOR BRENSON BARDA                             0501
A4101400260000017904964SARTHOU, JAN CARLOS MERCADO                              0501
B4101400260000005724169LANDSQUARE MARKETING CORPORATION                         1601
A4101400390000007459483GERARD C. SOLIS                                          0501
A4101400420000016909252LAVISORES, JOHN ALBERT UMPONG                            0501
A0101412340000003348714NELSON C. SANGALANG                                      0501
B0101404840000003069652METRO PASAY HOSPITAL AND MEDICAL CENTER                  1602
A0101405070000001455892ROY A. MIRANDA OR JULIE ANNE                            10501
A0101405070000001455892MIRANDA                                                 20500
B0101405070861017328003SHEPHERD'S NOVELTY CORNER                                1602
