B0101407720602821100608**********                                               2005
B0101407720602821100608**********                                               2005
B0101407720602821100608**********                                               2005
A0101403320000012926364VINLUAN, RIZZA JANE R.                                   0501
A0101412630000012146433LAGAHIT, ALLEN MARIE BUTI                                0502
A0101412050000016573143ZHANG, YU                                                0501
A0101412630000009425407MANUEL C. BALDEO JR. AS SEC APP                          0520
A0101412630000007168821**********                                               0510
A0101403320000006026940**********                                               0501
A0101408950000011598799MAGNAYE, EVANGELINE SAPIN                                0501
A2401400180000007031803DELLOSA, KERVIN LUKE DINOPOL OR                         10502
A2401400180000007031803DELLOSA, MARIA C                                        20500
A2801400100000000188232VILLAFLOR, ANGELITA CORPUZ                               0501
A0101400860000001005581**************                                           0503
B0101400860011374845003**********                                               1601
A0101411370000002269430DUCANES, JASON GUERRERO OR                              10501
A0101411370000002269430GUYA, ADELFA GLORE                                      20500
A0101400150000003218460JENNIFER B. TRINIDAD                                     0501
A0101400150000016750766TENEDERO, CHRISTINE TAN                                  0501
B0101400150061010797002LA COSTA DEVELOPMENT CORP., INC.                         1605
B0101400150061011038001114 VALERO CONDOMINIUM CORPORATION                       1603
B0101400150000001708345SKIN SCIENCES LABORATORY, INC.                           1603
B0101400150061065074002KUYANG DONG'S RESTO GRILL INC.                           1601
B0101400150061436247001SEAWOOD RESOURCES INC.                                   1603
A0101400600000008914945********                                                 0502
A0601400100000017335018HERNANDEZ, JOHN PAUL LULU                                0501
A0601400360000012809080PERLITA J. DULAY                                         0502
A0101413280000005084840MONTERO, CLARO MANUEL DACANAY                            0501
B0101414090000007344654GLOCAL FOOD CONCEPTS, INC DBU HOLY GRILL                11604
B0101414090000007344654SMOKE HOUSE                                             21600
A0101410560000001944174ROWENA PADILLA FRANCIA                                   0501
A0101401960121285558001**********                                               0501
A0101413150000005944421***                                                      0502
A0101412630000004062086BANZUELA, ELEANOR ADORNA                                 0502
A0101412630000015033666DOLORES F. CHENG                                         0501
A0101412630000012146633MARY BENJIELYN B. PEDREGOSA                              0501
A0101412630000000045292***************                                          0501
B0101413310000006144732SHAREVIS, INC.                                           1605
B0101412920000000276711KALAKAL FOOD CONCEPT INC.                                1601
B0101401090171016138001BETTER HEARING PHILIPPINES, INC.                         1602
A0301400530000012273222TORRES, ELMER VILLASIS                                   0502
A0301400530000016185405PANGANIBAN, RICHARD PELINO                              10501
A0301400530000016185405PANGANIBAN, DAPHNE                                      20500
B0301400530000016821813UNITED CREW, INC.                                        1602
A0301400530193583614088VILLANUEVA, MELISSA MAY OR                              10503
A0301400530193583614088VILLANUEVA, PHIL                                        20500
A0301400530193729179088VILLANUEVA, PHILIP OR                                   10502
A0301400530193729179088VILLANUEVA, MELI                                        20500
A0301400530000002318583LIBRE, MARISSA NAQUINES                                  0505
A0301400530193774589001CREDO, ARIEL S.                                          0502
B0101401380000011057662LAORDIN BUILDERS & CONSTRUCTION CO.                      1604
A0101410720000016656076SORIANO, ROSALVE MIRABEL                                 0501
A0101410720653409732001ATIENZA, OLIVA MAILA ANYAYAHAN                           0502
A0101413600000009806419IVAN LOUIE O. GUMATAY                                    0501
A3101400450000017260801BALDOZA, JOSENITO RAMOS                                  0501
A3001400130000001261169LIM, MICHELLE ZOSA                                       0502
A1001400190231495870001MICAYABAS, EMMA CACAFRANCA                               0502
B1001400350000007920876PEARSON, PILARCITA ROA AND  HEQUILAN,                   11601
B1001400350000007920876ELVIE CORTEZ                                            21600
A1001400350233478374006IBANEZ, ELSA                                             0502
A1001400480000000133279DACUDAO, LILUISA OR DACUDAO,LEO                          0501
A1001400480000017352819MAGPULONG, JAY MARC LAGUE                                0501
B1001400480000017333734MTP DOS PAPAYAS FARM CORPORATION                         1601
B1001400480000000133593DELUXE RANCH TRANSPORT CORPORATION                       1602
A1301400470000013690052**********                                               0502
A1301400760000002346129JIMMY C. CENA                                            0505
B1901400290261012814001PJ LHUILLIER, INC.                                       1605
A1901400290261538304001OFELIA HIPOLITO LANDICHO                                 0501
B0101406620000009695298JK CAPITAL FINANCE, INC.                                 1604
A0101406620273403501001BASA, CATHERINE VIRAY                                    0501
A0101406620000003661330GUPIT, JEANETTE ASUNCION                                 0502
A0101400570000003891492REBIBIS JR., FELIPE GOJAR                                0504
A0101400570281491697001LAXAMANA, EFREN CORTEZ                                   0505
B0501400200000006444891UNIVERSAL ADVANCE MEDICAL DIAGNOSTICS                   11602
B0501400200000006444891LABORATORY, INC.                                        21600
A2601400270000011716420MARICEL C. MACATO                                        0505
A6601400120314702171001ANDAYA, REYMUNDO M.                                     10502
A6601400120314702171001OR ANDAYA, LETIC                                        20500
A0101405650000013858212GARCIA, SANDRA PANGILINAN                                0501
A0101402510000017398582CHENG, HERMAN LIU DBU                                   10501
A0101402510000017398582HLC AUTOMOTIVE PARTS                                    20500
A0101409050000000999562PUNZALAN, SALVE MARIE SOLIDUM                            0502
A0101409050000002971384RESULLAR, ALLEN CURAY                                    0501
A0101409050000014598351GORDON, VANESSA OGKING                                   0501
A0101409050000016682532VILLAJUAN, JAYMIE SUELO                                  0501
B0101409050000013167670OLIVER SYCIP CHUA CORP.                                  1601
A0201401020000000056233BIG ATIN TRADING                                         0505
A0101402930000014435884REALEZA, KRYSTELLE CUNANAN                               0501
A0101402930000003710789BUGAYONG, RONALD BERNABE                                 0501
A0101408370382391723002FRITZIE C. CHUA                                          0501
A0101408790000016826369LIM, JULIE ANN ORGANO                                    0504
B0101408790000012313385NAZARENO GUERRERO DESIGN CONSULTANCY,                   11605
B0101408790000012313385INC.                                                    21600
A0101402770000017065180DBU JOHANNA BRIDGETTE                                   10502
A0101402770000017065180GENERAL MERCHANDISE                                     20500
A0101408400000016252732SAN DIEGO, NORMAN PASCUAL                                0501
A0101408950396387468001ABELLA, ANDREI CESAR SANARES                             0502
A0101412210000013647800OCLARIT, LOUIS CARLO SANTOS                              0501
A0101412210000017396962TORRES, YOLANDA JORE                                     0502
B0101412210000013721249VATOS URBAN TACOS, INC.                                  1602
A0101412210399094817010PATRICK S. GARCIA                                        0501
A0301400820000007372809CAI, LILI                                                0510
A5501400120000016443173GARSULA, ANNA LEE REMOLLO                                0501
A5501400120000013825486BULLECER, YOLANDA SICAT                                 10502
A5501400120000013825486DBU SOUTHKEY PRINTSHOP                                  20500
A2401400180411555962001SILVA, VIOLETA P. OR                                    10502
A2401400180411555962001SILVA, MARCELINO                                        20500
A0101403030000000008831**********                                               0502
A0101403320000015139901MANLUTAC, MILDRED T.                                     0501
B0101403320471043308001DAMAYAN AT TIYAGA FOUNDATION, INC.                       1601
A0101403320471478374079SANTOS, FILEMON R.                                       0503
A0101406330000000451216MARIBEL P. ZAFE OR                                      10502
A0101406330000000451216NOEL B. ZAFE                                            20500
B0101406330000000432842**********                                               1610
B0501400170481018109001CSI WAREHOUSE CLUB INC.                                  1601
A3801400170000001698097ILAO SR., ANTONIO REYES  OR                             10501
A3801400170000001698097ILAO, MARRIETA A                                        20500
A3801400170000015701312RAMOS, HECTOR DBU CENTENNIAL                            10501
A3801400170000015701312GOLD ENG'G AND CONST SUPP                               20500
A1901400160491247764001MARITES E RAMIREZ                                        0501
A1401400110000016984411TAWAGIN, NANCY BARRETTO                                  0501
B1401400110492013980002IMPERIAL APPLIANCE PLAZA                                 1601
B0701400260000014694358TIMEZONE LENDING INVESTOR CORP.                          1602
A0101407430000015521861JHEYMAR MAY-AS                                           0501
B0101403450521013451001**********                                               1605
A0101403450521238153002**********                                               0501
A0101403610000001174823HERNANDEZ, CORAZON SULAYAO                               0503
A2201400250000013859077PAUL NORMAN U. DE GUZMAN                                 0501
B2201400250561039037001TRIZ N' PAO TRADING                                      1601
A0101407720000000245214LEORNA, IRENE CASUBUAN                                   0502
A0101407720602398260001JURILLA, JON EDWARD OR                                  10504
A0101407720602398260001CAMILLE L. JURILLA                                      20500
A0101407720602398260002JON EDWARD B. JURILLA OR                                10504
A0101407720602398260002JOAN S. GATCHALIAN                                      20500
A0101407720000005100172ESTRELLA, RICO DE CASTRO OR                             10502
A0101407720000005100172CANLAS-ESTRELLA,                                        20500
B0101412180000003523793MGNP, INC.                                               1606
B0101404260611034987001JS TRAVEL & TOURS                                        1601
A0101409890000006277570LAGUYO,VICTOR OR LAGUYO,REGINE                          10502
A0101409890000006277570OR LAGUYO, DANIEL ALFONSO                               20500
B0101409890000003098173V.T. LAGUYO CONSTRUCTION, INC.                           1602
A0101414120000016395325LEUTERIO, CLAIREYENNE MALANYAON                          0501
A0101414120000015400665ESMUNDO, RINA CANLAS DBU RINA                           10502
A0101414120000015400665CANLAS ENTERPRISES                                      20500
A0101410300000011355514SISON, ERIC LOUIE OR SISON,                             10501
A0101410300000011355514AURORA MARGARET                                         20500
A0101410300000016302457TOLENTINO, ROY PABLO                                     0502
A0101410300663076796001VILLALON, MARIA TERESA N. OR                            10501
A0101410300663076796001VILLALON, GREGOR                                        20500
A1301400500000015562402ROBLES, LEO CRUZ                                         0503
A1701400230000008555415MACARAEG, BERNARDO DE GUZMAN                             0501
A0101412340000005964316SCOTT DOUGLAS FESLER OR                                 10502
A0101412340000005964316ANGELINE S. FESL                                        20500
A0101406750000014701054REYMART RODGER MEJIA NERIZON                             0501
A0101405070000008250151GATDULA, MARIEL DAQUIZ                                   0501
A0101413860000012211731MACARAMBON, ZORHAYA OR MUHAMMAD                         10501
A0101413860000012211731 HARRIS                                                 20500
B0601400230891023794002MEGA FROST ICE CREAM BAR                                 1601
B0601400230000007402166MALANG, HENRY T DBU SADELMI CONSTRUCTION                11602
B0601400230000007402166AND TRADING                                             21600
