A0101407560000000003481***************                                          0503
A0901400220000000012299GAYON, MARINA TACHADO                                    0502
A0101412210000000031381*********************                                    0503
A0101411790000000039303GAN, JOSEPHINE DELA CRUZ                                 0501
A6601400120000000060493ABELA, LEONITA MIJARES                                   0501
A6601400120000000060922I AM WHO I AM FOUNDATION, INC.                           0501
A1301400470000000061550FLORENDO M. HOLGADO JR.                                  0502
A0101410690000000061834IQBAL, BERNADETTE GESTOPA                                0505
A0101402770000000080544SHERELENE RAMOS BALLAD                                   0501
A0101412630000000180414BONIFACIO, JOCELYN MADRID                                0501
A0101401670000000237530TRINIDAD, CATHERINE LADIA                                0502
A1901400160000000243525SHIRLEY M PAGCALIWANGAN                                  0501
A0101400150000000253278GELANO, ANGELO RECTO                                     0501
A0101401250000000460542PAPALID, JOEBIE LIBRE                                    0501
A0101408240000000521720RICAFRENTE, MA. ANALYN DELFIN                            0503
A0101404260000000550092TIU, CH DBU ACN MONEY TRANSFER                           0502
A0101405650000000772890ERNESTO G. LAURENTE                                      0503
A0101410850000000778827MABOLO ENTERPRISES                                       0502
A0101405940000001047363GACHO, CARLOTA CANON                                     0502
A0101406330000001235352ACOSTA, DOREEN GARCIA                                    0501
A6601400120000001370649TAN, NENETTE DUMALAG                                     0501
A6601400120000001370763CUYCO, RAMON GAZO                                        0501
A0101406040000001391971ALEX C. DYPUA                                            0501
A0101413150000001688582****                                                     0501
A0101413570000001720201CORTEZ, ANDREW TAMUNAN                                   0501
A4101400390000001732805FLORITA DE JESUS                                         0503
A0101412890000001765482CARLOS, FANNIE MEJIA                                     0501
A1701400230000001786941CORNEJO, NONITA SABAY                                    0501
A0101400440000002034964LUIS, RODRIGO SAPADEN                                    0501
A1301400500000002063838CANOZA, WILFREDO GARCIA                                  0501
A0101406880000002291761ALJELEIFI, SAAD MOHAMMED SAAD                            0501
A0101406460000002330854QUIZON, MARC DAVID LEONIDAS                              0502
A0601400230000002650193MIRANDA, R DBU JOY SKIN ESSENTI                          0502
A1101400120000002789833PORMIDA, JAYPEE GO                                       0502
A2001400290000003108181HASSARAM, MARISSA FAMAT                                  0502
A0101408240000003311257CHERYLLE GALAPON                                         0502
A0101412340000003349728MITZI E. WALKER                                          0501
A0101409050000003536161RAMOS, THERESA YVETTE                                    0501
A3101400740000003885894ALMEDA, MARIA CRISTINA SALUD                             0501
A0101401700041663216001LEE, JAIME TIU                                           0501
A0101400150061777201002SANTOS, ALEXANDER ARAGON                                 0501
A0601400100081504737001KAW, GEMINI DEANG                                        0502
A0601400100081590627001BASILIO, ADAMSON CUNANAN                                 0501
A0101401960121464343001**********                                               0502
A0101401830141543824001BENIGNO L. GRAGEDA JR.                                   0501
A0101400440161395112001GERLY T. VILLEGAS                                        0501
A0101400440161525001091CRISTINA A. PADILLA                                      0502
A0101400440161525001139JEMARIE S. SALUDAR                                       0501
A0101401090171198489001ROSEMARIE D. ORDINARIO                                   0501
A0101401090171200386001DR. JULIE TAN LI-YU                                      0504
A0101401090171418840001LOUISITA O. ARISTORENAS                                  0503
A0101401090171636462001BERNARDITA GWYNNE P. BONDOC                              0501
A0101401380201628222001CALAGUAS, AILEEN CABUSO                                  0501
A0101407140213376844001**********                                               0501
A3101400160221557336001JOSELITO M GUEVARRA                                      0502
A3101400450223576401001GALLEGO, DHARIA CAJAYON                                  0502
A3101400450223689767001CHAVEZ, DOLORES PAR                                      0501
A0101400570281020605001FIRST BORN SNACK CORNER                                  0502
A0101400570281519630001CARLOS, MARIA ARLENE DUMANDAN                            0501
A0801400160311478374103INAYAN, MERLINDA GUARDAMANO                              0501
A6601400120314041602001LEXTAN GENERAL MERCHANDISE                               0502
A0101402480331520766083SOCORRO, RUBELYN ESPINOSA                                0501
A0101408820333478374064GINA T. LUIS                                             0501
A0101402510341421483001******                                                   0502
A0101408370382314711001DR. CRISTINA TERESA C. SAMONTE                           0501
A0101408370382404604001DR. MARIANN N. ALMAJAR                                   0503
A0101408400394027889001TINA S. BERIN FLOWER SHOP                                0505
A0101408400394089542001CRYSTAL FRIAS LAUNDRY SERVICES                           0504
A2401400180411478374020MORI, LYDIA                                              0502
A1901400160491307939001EDWIN P CHUA OR EDDIE P CHUA                             0504
A0101405940512285886001HUI HUN SO TAN                                           0502
A0101405940512502817001CASIQUIN, LAIDA CALIZAR                                  0501
A0101404130601452661001KING, ARCHIMEDES OR KING, WYDEN                          0502
A0101407720602418565001RELOS, JESUS ALVAREZ                                     0504
A0101406590662363449001LA VINA, ANGELINA SAN JUAN                               0501
A0101407560686478374069ROLANDO PATAC                                            0502
A1701400230693478374031VILMA R. BAGAY                                           0501
A0101408240711655327001MACAS, RONA FABIANO                                      0501
A4101400420814422280001DELGADO, ELVIRA CARIENENA                                0502
A4101400420814520766119OMNOS, NOVA DESCARTIN                                    0502
A0101404840851478374012SAPORNO, ANNABELLE G.                                    0501
A0101404840851520766073ELIZABETH A. SUAZO                                       0501
A0101404840851520766163JOCELYN ANONUEVO                                         0502
A0101404840851530917002CASINO, RONNIE ANTONIO                                   0502
A3101400160000000006599RISSEL GENERAL MERCHANDISE                              10502
A0101406330000000011729GILBERT MILANA DBU GLOBE                                10505
A0101401700000000040239ESTINOPO, DBU RJL CAR PARTS                             10510
A0101404260000000550127SALAZAR, CARL P DBU ACN OFFICE                          10503
A0601400520000001349662TIMBOL ROMAN MANALOTO                                   10502
A2001400290000002319531SANOY, EZELBETHA ABLON OR                               10502
A0101410850000002356830OPANO, ANNE  DBU RICHWIN                                10503
A0101401250021709223001ROLANDO F. ASTILLERO JR. OR                             10501
A0101401700041522099001UY, KARL RUSSELL ONG OR UY II,                          10502
A6601400120314415183001UY, CHRISTIAN EMMANUEL OR                               10501
A2001400290315478374001MEMBERS OF NATASHA (SHOECAT INC                         10501
A0101402510341353926001ROLANDO G. GALAO OR                                     10506
A0201400760374625336001REYES, BAYANI CARLOS                                    10502
A0101408370382489193001DR. MICHAEL EDMOND S. DAZO                              10502
A0101402770391353811001GARY P. HERNANDEZ OR                                    10502
A0101408950396761506001DONALD C. CRISTOBAL OR MA.                              10501
A2401400180411038015001GENSAN ULTIMATE AUTO SUPPLY                             10510
A2401400180411555962001SILVA, VIOLETA P. OR                                    10502
A1201400150421453286001FLORENDA J. ABELLERA OR                                 10502
A1901400160491547151002GINA F TORIAGA OR                                       10501
A1601400170494047880001AIREEN I. SALAZAR DBU A.                                10501
A0101405940512155853001HIGINIO C. TAN OR CAROL M. TAN                          10501
A1301400210682470535001JINKY C. GATCHALIAN OR                                  10501
A4101400420814304997002ABAD, EVELINA OR ALVIN VINCENT                          10502
A3101400160000000006599MARISSA G ESTENOR                                       20500
A0101406330000000011729MARITIME TRAINING CENTER                                20500
A0101401700000000040239CENTER                                                  20500
A0101404260000000550127MART                                                    20500
A0601400520000001349662ACCTNG & TAX CON                                        20500
A2001400290000002319531SANOY, REY CECILIO TING                                 20500
A0101410850000002356830TRADING ENTERPRISES                                     20500
A0101401250021709223001GINA A. ASTILLERO                                       20500
A0101401700041522099001FELICIANO ONG                                           20500
A6601400120314415183001UY, FLORIANE                                            20500
A2001400290315478374001ABANTE JR., FELICISMO                                   20500
A0101402510341353926001RUE B. GALAO                                            20500
A0201400760374625336001OR REYES, VIRGINIA                                      20500
A0101408370382489193001OR ARLENE S. DAZO                                       20500
A0101402770391353811001EZEL S. HERNANDEZ                                       20500
A0101408950396761506001FLORDELIZA A. CRISTOBAL                                 20500
A2401400180411038015001& HARDWARE, INC.                                        20500
A2401400180411555962001SILVA, MARCELINO                                        20500
A1201400150421453286001JAROD JAMES A. M                                        20500
A1901400160491547151002BERNARDO I TORIA                                        20500
A1601400170494047880001SALAZAR LEARNING CENTER                                 20500
A0101405940512155853001OR CHRISTOPHER M. TAN                                   20500
A1301400210682470535001GILBERT T. GATCH                                        20500
A4101400420814304997002OR CHRISTINE MAR                                        20500
B3101400740000000013936EXELPACK CORPORATION                                     1610
B1301400210000000023543SAN PABLO LIAM FOODS CORPORATION                         1603
B0101412050000000890940********                                                 1601
B0101412470000000949544BEYOND METRO POINTE GREENHILLS INC.                      1603
B0101413020000001175439DEOCAREZA, ALEJANDRO DIDIE NICOLAS                       1602
B0101407430000001213192SHIMBURUM CENTER CORP.                                   1601
B0101410690000001284395ALDANA, MA. ELENA M. DBU PANSOL TRADING                  1602
B0801400160000001289807BORACAY BEACHBOYS LEISURE, INC.                          1601
B0801400160000001289841NEXT BARRIOS ESTATE, INC.                                1601
B0101400570000002104170PHYLUM PRODUCTS, INC.                                    1601
B0101403450000002975622CROWN ASIA CHEMICALS CORPORATION                         1610
B0101406040112017780001ASSOCIATED WORKERS UNION                                 1610
B0301400530193037586088I. NEO ENTERPRISES                                       1603
B3101400160221016581001ONE WORLD REALTY CO.                                     1603
B3101400740224017345001PALMPHIL GARMENTS PHILIPPINE CORPORATION                 1610
B3101400870225056197001GOLDWELL SUMMIT HARDWARE INC.                            1601
B0101406620273007454005GLOBE ASIATIQUE REALTY HOLDINGS CORP.                    1610
B2001400290315688888001**********                                               1610
B0101402480331034503001*******                                                  1601
B0101402770391022829001STI EDUCATION SERVICES GROUP, INC.                       1612
B2401400180411017908001LWC CYCLE MART, INC.                                     1602
B0101403580511005521001R.G. MANABAT & CO. (CONFI-ACCT)                          1602
B0101405940512034259001CENTRAL BOOK STORE, INC.                                 1605
B0101403450521011604001CROWN ASIA COMPOUNDERS CORP.                             1602
B0101404130601491951001LUGANO ENGINEERING CONSULTANCY                           1602
B0101407720602026114001**********                                               1603
B0101404260611005448001GUADALUPE CATHOLIC SCHOOL                                1605
B1301400500684602319001*****                                                    1602
B3101400450000000014115KABALIKAT PARA SA MAUNLAD NA BUHAY INC.                 11606
B0101408950000000036837ST. LUKE'S MEDICAL CENTER (GLOBAL CITY)                 11603
B0101406330472313424001MARIO OR TIFFANIE OR ERNESTO                            11603
B0101403580511029847001BAGONG BARRIO HYPERMART & PROPERTIES                    11610
B3101400450000000014115(KMBI)                                                  21600
B0101408950000000036837EMPLOYEES ASSOCI                                        21600
B0101406330472313424001GOBACO                                                  21600
B0101403580511029847001CORPORATION                                             21600
