B0101400150061005123003ARK TRAVEL EXPRESS, INC.                                 1610
A0101400150061226702002**********                                               0502
A0101400150061326594001REYNALD C. UY OR                                        10501
A0101400150061326594001SHIRLEY G. UY                                           20500
A0101400150061380452001EUGENIO, JUDDEUS ABADILLA                                0501
A0101400150061469189001FERNANDEZ JR., PEREGRINO                                10501
A0101400150061469189001OR FERNANDEZ, JO                                        20500
A0101400150061663651001********                                                 0502
B0101400150061821200608**********                                               2002
B0101412920000000276711KALAKAL FOOD CONCEPT INC.                                1601
A0101412920000001313660DUCOT, JAMES AVILA                                       0501
A0101406040112209765001**********                                               0502
A0101400440161520766060CRESENCIA CLEOFE                                         0501
A0101402350000005645194MUYOT, KATRINA QUIBRANZA                                 0501
A0101402350321708802001ALMAROSE C. VILLAPANDO                                   0501
A0101400860011235378001**********                                               0502
A0101400860011374819002**********                                               0506
A0101400860011429714003**********                                               0502
A0101400860011444169001**********                                               0505
A0101400860011475361001**********                                               0505
A0101400860011479505001**********                                               0505
A0101400860011541655001**********                                               0502
A0101401250000002763346**********                                               0505
A0101411370000003294882CHANDRASEKAR, SANJAY                                     0505
A0101400150000008860971ZUNIGA, LLEANDRO                                         0501
B0101400150061022669001ST. TYKE, INC.                                           1610
A0101400150061231268001CORAZON J. TAN                                           0502
A0101400600071233718001YOLANDA VILLAR                                           0501
B0601400100081016360001T. CAPATI ESTATE & DEVELOPMENT CORP                      1601
A0601400520000001707051LIMON, REMEDIOS Y. OR                                   10501
A0601400520000001707051POLICARPIO, JUDY SUE L.                                 20500
A0601400520000002085963CANLAPAN, ARNOLD OR                                     10510
A0601400520000002085963CANLAPAN, REBECC                                        20500
A0601400520000004423209INNO-WORX TRADING AND GENERAL                           10505
A0601400520000004423209SERVICES                                                20500
A01014105600000058362730RDOYO, ROSALIE M DBU ROSEDON                           10502
A0101410560000005836273GENERAL MERCHANDISE                                     20500
A0101410560110478374009SAUDILYN M. PENAS                                        0501
A0101400730111412858042ALMA PATRIARCA                                           0501
A0101400730111520766051RABAGO, LENY FE                                          0501
A0101400730111592040001VILLEGAS, GUILLER CONRAD OR                             10505
A0101400730111592040001JARDIOLIN, MAJAR                                        20500
B0101406040000003547580********                                                 1601
A0101401960121238737001*********                                                0503
A0101412920000003465121MACAALAY, MALOU ANICETE                                  0501
B0101412920160066369001BORGONA, MARIA ROLINDA DE LEON DBU                       1601
A0101400440000003671670RUTH L. GOZON                                            0501
A0101407270000010118979MIRA BELLA L. PERCE                                      0501
B0101407270162019525001CASTFOOD CORPORATION                                     1602
A0101407270162478374001JOCELYN S. ESTRADA                                       0501
A0101401090171196072001CARLOS M. ALMEDA                                         0505
A0301400530193044799001AJB AUTO GLASS AND                                      10502
A0301400530193044799001ALLIED SERVICES                                         20500
A0301400530000000065923POWER-UP TIRES, BATTERY AND                             10524
A0301400530000000065923AUTO SUPPLY                                             20500
A0301400660000006862559**********                                               0501
A0101401380000006542407SORBITO, ALLAN RAMIREZ                                   0501
B0101410720653043060001METRO DRY CLEAN VENTURES, INC.                           1603
A3101400160000008941293DIGOS, ROSANNO H OR                                     10501
A3101400160000008941293ALGENIO, RYAN DALE P                                    20500
B3101400160221037479001TABLERIA LA CONFIANZA CO., INC.                          1601
A3101400450000002330438PAGUIA, ALBERTO ANGELES                                  0503
A3101400450223693052001FERRER, PAMELA PIA OR MELVIN                            10506
A3101400450223693052001JOHN OR AUSTRIA, APRYL                                  20500
A3101400740000001692457MALABANAN, MILANNIE G. OR                               10502
A3101400740000001692457MALABANAN, ROHNELL C.                                   20500
A3101400740000006735835DAVIN, LIZA DBU ROMERO DAVIN                            10501
A3101400740000006735835REALTY AND SERVICES                                     20500
B3101400870225821100608**********                                               2003
B3101400870225821200608**********                                               2001
A3001400130000008264864CACAFRANCA, KARL RUSSEL INOCENC                         10501
A3001400130000008264864IO                                                      20500
B1001400190231015575001GOLDEN CITY AUTO PARTS & HARDWARE,INC.                   1602
B0101406460272021222001ORION WIRE & CABLE INC.                                  1602
B0101406460000000020975********                                                 1601
A0101406620273280285001PELAGIO / ROSARIO / REBECCA /                           10501
A0101406620273280285001RAFAEL / ROWENA                                         20500
B0101408660274038999001FRASOR GLASS AND ALUMINUM INC.                           1601
B0101411820000003085112HARDCOM COMPUTER SYSTEM CO.                              1601
A0101400570281399721001JOFFREY U. UY                                            0501
A0101400570281399721002JOFFREY OR JORDAN UY                                     0501
A0101400570000001681927ANA MARIA LORETTA S. POHANG                              0502
A2601400270000002312141NELSON D. ALBANO JR.                                     0502
A6601400120000002978096HORCA, ROMAR BABIANO                                     0503
A0101402350321319273002VALDEZ, MIGUELA D. OR                                   10501
A0101402350321319273002VALDEZ, REDENCIO                                        20500
A0101405650000000080015BRIONES, JOSEPH LIMBO                                    0502
A0101402510341331222002ERLINDA C. RECOCO                                        0501
B0201400920000003713448ELOPRE, HERMINIGILDO DBU ELOPRE COFFEE                  11601
B0201400920000003713448SHOP                                                    21600
B0201400890376717564001***************                                          1601
A0101408370000005220006VILLANUEVA, ANNALIZA PEREZ                               0501
A0101408400000006813738MATA, WILLIAM GUZMAN                                     0501
A0101408400394503387001TAMO, ELVIE RIGOR                                        0501
B0101412210000000031461PINTXOS & TAPAS INC.                                     1610
A0301400820000000024893ALIVO, JOENALD C.                                        0501
B5501400120410044567001RASAY INSURANCE AGENCY AND GENERAL                      11601
B5501400120410044567001SERVICES                                                21600
A5501400120410787960001TANTERAS, EDWIN MONTEJO                                  0502
A2401400180000005536712CALERO, MARIA JOCELYN SUNIO OR                          10502
A2401400180000005536712CALERO, FERNANDO                                        20500
B2401400180411014381001RD FISHING INDUSTRY, INC.                               11630
B2401400180411014381001TIN:000-939-913                                         21600
B2401400180000000073670BRIGADA HEALTHLINE CORP.                                 1630
A2401400180411344858001CHUA, MAGDALENA SALAZAR                                  0501
A2401400180411496346001OCIEL, MARIA MAGDALINA S. OR                            10503
A2401400180411496346001OCIEL, RANDY L.                                         20500
A1201400150000006253658GARCIA, BRYAN MIRHAN                                     0502
B0101403030441011894001REXSSEL AUTO PARTS CENTER                                1602
B0101403030441339063003**********                                               1602
B0501400170481020083003COLEGIO DE DAGUPAN, INC.                                 1610
B0501400170481023482001ARZADON LEISURE CORPORATION                              1605
B0501400170481025398002****                                                     1601
A0501400170481318580004ANA CRISTINA L SINLAO                                    0503
A0501400170481329536001PERLA C. ROMERO OR                                      10501
A0501400170481329536001BIENVENIDO S ROM                                        20500
A1901400320000010117783DINGLASAN, VICTORINO EBORA OR D                         10501
A1901400320000010117783INGLASAN, CELEDONIA DOTIG                               20500
B1901400320489062995002CLEVERGOLD CREDIT CORPORATION                            1605
B1901400160491012586001BSU CONSUMERS COOPERATIVE                                1602
B1901400160491012587001BSU CREDIT COOPERATIVE                                   1602
A1901400160491522606002AUREA C JAVIER                                           0502
A0701400260000005303702TAGUPA, MARIA CECILIA TOLENTINO                          0503
B0101407430503006761001QUICKFLO FORWARDERS, INC.                                1605
B0101407430503044847001BANJAP PHILTRADE INC.                                    1602
B0101403580511243690001CAVITEX HOLDINGS INC.                                    1603
A0101403580511317279001JOJI P. MORALES                                          0502
A0101403580511434858001ADOR C. MEJIA                                            0501
A0101403580511561518002MARIA LARA U. ESPINUEVA                                  0501
B0101403580511682308001AMARA HOLDINGS INC.                                      1608
A0101408530516558878001HENSON, HERSHEY KATE A.                                  0501
A0101411790518055815141SOTO, CYNDIE DE ASIS                                     0501
B0101403450521011666001**********                                               1615
A0101403450521238138001**********                                               0501
A0101410690000001285285ALFARO, LECEL PEREZ                                      0501
A0101410690000001284322CO, MARIANO L DBU ASAP COMPUTER                         10502
A0101410690000001284322SYSTEM                                                  20500
A0101404130601450078001ROBERT B. OCANA OR                                      10502
A0101404130601450078001MARJORIE OCANA                                          20500
A0101404130601618991001TAN, MAY YEE CHAN OR                                    10501
A0101404130601618991001TAN, IVAN C.                                            20500
A0101404130601771934002LEE, RENATO MUNAR AND                                   10502
A0101404130601771934002YAN, EDWIN C.                                           20500
A0101407720000004664535IBARRETA, MARIA LESLIE ANNE                             10501
A0101407720000004664535CASTILLO                                                20500
A0101407720602161918001MARY ANNE LUCIANO-AMON OR                               10503
A0101407720602161918001JONATHAN M. AMON                                        20500
A0101407720602271723042BERNARDO C. CUETO                                        0505
A0101407720602398166001TAN, HERMAN TAN OR TAN, PIA                             10501
A0101407720602398166001CAROLYN                                                 20500
A0101407720602436863001ACEBUCHE, NILO BORJA OR                                 10501
A0101407720602436863001ACEBUCHE, AMELITA                                       20500
A0101407720602708669001HIPOLITO, MAUDE MAXINE ROLLE                             0501
A0101404260611158307002GALICIA, CONSOLACION OR RAFAEL                          10501
A0101404260611158307002OR FELIZARDO OR                                         20500
A0101409890000006812906**********                                               0502
A0101409920650478374005CRISOSTOMO, MA. EMELIA GASPAN                           10501
A0101409920650478374005MEMBERS OF NATASHA                                      20500
A0101409920000000022088ASUNCION, MARILYN JUANEZA                                0501
A0101409920000001951891MEMBERS OF NATASHA (SHOECAT INC                         10501
A0101409920000001951891BARTE, CECILE                                           20500
A0101409920000001951851MEMBERS OF NATASHA (SHOECAT INC                         10501
A0101409920000001951851ANNALYN E. AMPELOQUIO                                   20500
A0101411530000006217574MOMMY & ME ENTERPRISES                                   0503
A0101413570000001069501MEMBERS OF NATASHA                                      10501
A0101413570000001069501SUSANA B. SANTOS                                        20500
A0101406590000003007052SANCHEZ, LUZVIMINDA OR MICHELLE                         10501
A0101406590000003007052OR TENG, MARIE SHARON                                   20500
B1301400210000000023532SKYMAT FIBERGLASS ENTERPRISES                            1603
A1301400210000003104912ZEN TEN TRUCKING AND HAULING SE                          0501
B1301400210000005040817ROSSEN LENDING CORPORATION                               1610
A1301400210682073330001MICHAEL M AQUINO                                         0502
A1301400340683092718001GUMBAN, ROLANDO SEMPIO                                   0502
A1301400340000002283741CECILIA R. PRODON                                        0503
A1301400340683708672001CANO, ERLINDA PEREZ                                      0502
A1301400500000010127612DELA MERCED, LESTER VERGARA                              0501
A1301400500684066373001REDBUCK'S COFFEE SHAKES                                  0501
B0101408240711036897001EVER THEATRICAL, INC.                                    1601
B0101408240000000832962CARMEL LAND SALES & DEVELOPMENT CORP.                    1610
A0101408240711451620002SAN LUIS, FELICIDAD                                      0501
A2801400100712744077001*******                                                  0501
A4101400420000010059279PARAS, MILAGROS MANELA OR                               10501
A4101400420000010059279VIDALLO, ALBA PARAS                                     20500
A4101400420814357382003REMULLA, GILDA VASQUEZ                                   0501
A4101400420814470604001ABANES, MARILOU CANTORIA                                 0501
A4101400420814478374063AVECIA, REGINA D.                                        0501
A4101400420814478374154CABRERA, FELIZA                                          0501
A0101412340000004360241AYKROYD J. ASTURIAS                                      0501
A0101404840000004565931PABLO, R DBU UBEE LOGISTICS                              0502
A0101404840851316655013NAPOLEON N. ESCALONA, JR.                                0501
A0101404840851428321001GUTIERREZ, OLIVER OR ROGELIO                             0501
A0101404840851520766092VIOLETA G BERMAS                                         0504
A0101404840851520766162JANET H. ESTORES                                         0501
A0101406750000000480591MOSURA, ERWIN IAN BROSAS                                 0501
A0101406750000007879154ROQUE, MA. CONCEPCION BONUS                              0501
A0101406750000002040066GUIYAB, MA. ELENA ONCHER                                 0501
A0101406750852478374027ELENA HINUNANGAN                                         0501
A0101405070861478374086MARLYN C. GABEST                                         0502
