B0101407720602821100608**********                                               2005
B1301400760253821100608**********                                               2002
A0101412890000000371402RUTH A SIENES                                            0501
A0101409890649394664001LIM, MA. TERESA GRACE URBANOZO                           0501
A0101413150000001288342******                                                   0501
A0101412890000005913402FELICIANO, V DBU VDKS                                   10501
A0101412890000005913402CONSTRUCTION                                            20500
A0101410980000002303800SY, BRYLLE JANSTED YUCHONGTIAN                           0502
A0101412890000004435563REYNOSO, ROSEMARIE GOCO OR                              10501
A0101412890000004435563GLORI, DOMINIQUE                                        20500
A0101409920650478374014LIEZL SORETA                                             0501
A0101414120000002879743DE GUZMAN, JENNY MERLIE APOLINA                          0501
A0101410300000007614173CABILES III, ALFREDO SAN MATEO                           0501
A0101410300000006278533CABARRUS, GEORGE DENNIS KWEK JT                          0504
A0101400860011421335001********                                                 0502
A0101400860011425148001**********                                               0502
B0101400150061023739001MAGNO MAGNO & GINGOYON LAW OFFICES                       1601
B0101400150000000000204TRANS ASIA RENEWABLE ENERGY CORP.                        1605
B0101400150061039626002MENZI & CO., INC.                                        1602
A0101400150061453761091MADRID, PAUL ALLEN G.                                    0501
B0101400600071045155001*******                                                  1602
B0101400600071045158001*******                                                  1602
A0601400100081478374009JOWELL MIRANDA                                           0502
A0601400100081639196001DIMALANTA, ANALYN TEGIO                                  0502
B0601400360000000978936THE MEDICAL CITY CLARK, INC.                             1610
B0601400360000008477283EVERTRUST BUSINESS SOLUTIONS INC.                        1610
B0601400520000007553742HOLY ANGEL UNIVERSITY                                    1605
A0601400520000007553315TAYAG, TRISHA LOUISE GUTIERREZ                           0501
A0101410560000001944210BANES, GENELYN C DBU DARKSIDE                           10502
A0101410560000001944210RESTAURANT AND DISCO BAR                                20500
B0101401960000000008186GOLDEN WING STAINLESS STEEL CORPORATION                  1602
A0101413150000005944312*********                                                0501
A0101412630000004062086BANZUELA, ELEANOR ADORNA                                 0501
A0101400440000004889810MARILOU A. RAMISO                                        0501
A0101400440161390124001SOLEMIA C. GAVINO                                        0501
A0101400440161478374198EUFRONIA I. BERGONIA                                     0501
A0101400440161481661001JOMYR C. ARGANOZA I                                      0502
A0101407270000003254242MUPRA, ROSAME BARGAYO                                    0501
B0101401090171007908001PERPETUAL SUCCOR HOSPITAL &                             11606
B0101401090171007908001MATERNITY, INC.                                         21600
A0101401090171196831003MERCADO, DR. WILHELMINA ALANO                            0505
A0301400530000002318390YAO, MARY KRIS TAN OR                                   10505
A0301400530000002318390YAO, CAIQI                                              20500
A0301400660000006862862PEDRAJAS, MANUEL OR PEDRAJAS, B                         10502
A0301400660000006862862EVERLYN                                                 20500
B0301400660000003368490ARBICON, INC.                                            1603
B0301400950000002115975KCC MODERN REALTY SERVICES, INC.                         1605
B0101401380201034247001HOBBIES OF ASIA INC.                                     1604
A0101410720000000882782**********                                               0505
A0101412500000001146981LUMBO, ALCHER DELA CERNA                                 0501
A0101413600000005354850CYNTHIA S. PERALTA                                       0502
A0101413600000005354974ALVIN B. SAHAGUN                                         0505
A3101400870225067023001LADAGA, R DBU BT BRAIN - TRAIN                          10501
A3101400870225067023001ACADEMIC CENTER                                         20500
A3001400130000000931208BENDIJO, AMELITO MONDEJA OR                             10501
A3001400130000000931208BENDIJO, ERLEN A                                        20500
A3001400130000002063474ANTIPASADO, ROMELITO ALISOSO OR                         10510
A3001400130000002063474ANTIPASADO, ANGE                                        20500
A3001400130000005708487DERILO, ROY ANTHONY ORDONO                               0502
A3001400130000008264784SANCHEZ, AGNES M.                                        0501
A1001400190231427280002GAYAPA, JESSICA GADIAN                                   0502
A1001400190231520766036ONIPA, JANE ROSE P                                       0501
A1301400760000005379520LUIS V. CHUA                                             0502
B0101401670271477778001VIRTUSIO PR INTERNATIONAL, INC.                          1601
A0101401670271491442001MARICHELLE TORRES                                        0502
B0101406620000000194096SUNPRIME FINANCE INC.                                    1605
A0101406620273458914001**********                                               0502
B0101411110000001037074NIECER TRADING COMPANY INC.                              1601
B0101400570281026341001PUBLIC SAFETY SAVINGS AND LOAN ASSOCIATI                 1605
A0501400200000010493148BONIFACIO JR., REMIGIO BALINGIT                          0501
A2601400270000002677398SHEENA GRACE F. GARCIA AND                              10502
A2601400270000002677398PRINCESS FAE S. FRANCISCO                               20500
B2601400270302045063001ISABELA UNITED DOCTORS MEDICAL                          11620
B2601400270302045063001CENTER, INC.                                            21600
B2001400290000000020537LINK RI LOGISTICS INC.                                   1601
B0101402350321006431001OLIVAREZ REALTY CORP.                                    1608
B0101402350321015321001BEST CHOICE MINIMART INC.                                1603
B0101402350321738079001OLIVAREZ GENERAL HOSPITAL INC.                           1610
A0101405650000002325691NAOE, PATRICIA ORONAN                                    0502
B0201400920375035043001EIGHT TO EIGHT CATERING SERVICES                         1601
A0101408370382205155003DR. ERWIN B. ALCAZAREN                                   0502
B0101402770000001571626BEARING CENTER & MACHINERY, INC.                         1601
B0101408400394047325001VICLOR MICROLENDING INVESTOR                            11603
B0101408400394047325001CORPORATION                                             21600
A0101408950000010434505GAERLAN, ANGELA DAVID                                    0503
B0101409180397716801001CACHET.HOLDINGS, INC.                                    1602
A0301400820000001185780RUFEROS, ROY KENNETH OR                                 10501
A0301400820000001185780AREVALO, MICHELLE KAY                                   20500
A5501400120410283898001GARCIA, JOSIE OR                                        10510
A5501400120410283898001GARCIA, GERARDO                                         20500
B2401400180411043008008TBB PETRON                                               1602
A2401400180411330256008LIM, CHARLES LIM OR                                     10505
A2401400180411330256008LIM, LETICIA YAP                                        20500
B0101403030441039990001TOPTRUCK ENTERPRISES                                     1601
B0101403030000000531406**********                                               1603
B0101403030441382008001**********                                               1602
A0101403320000010524540CATHERINE ANN D. BANAAG OR                              10501
A0101403320000010524540ARVIN P. BANAAG                                         20500
A0101403320471067069001HOJAS, S DBU GILSUN'S TIRE                              10501
A0101403320471067069001SUPPLY & VULCANIZING SHOP                               20500
A0101403320471478374079SANTOS, FILEMON R.                                       0503
A0501400170000006300863SEGUI, CARLA AVENA                                       0501
A3801400170000010082992DELA CRUZ, MIRRIAM S DBU YAM                            10501
A3801400170000010082992GENERAL MERCHANDISE                                     20500
A1901400160491403244001OFELIA T LANDICHO OR                                    10501
A1901400160491403244001ROMMEL Y LANDICHO                                       20500
A0101403580000009899645GEMALYN R. SIAPCO                                        0501
B0101405940512034259001CENTRAL BOOK STORE, INC.                                 1602
B0101408530516034772001INFOSTORAGE CORPORATION                                  1603
A0101412050000000890882********                                                 0502
A0101412050000002314472PINGOL, ANTHONY FERNANDEZ                                0501
B0101403610531044399001AURORA QUINTO ESPINO TRUCKING                            1605
A0101403610531219310001ESPINO, SAMUEL CATABAY OR                               10503
A0101403610531219310001ESPINO, AURORA Q                                        20500
A2201400250000003558070VIRGINIA G. ROBLES OR ROBERTO                           10502
A2201400250000003558070G. ROBLES                                               20500
A0101404130601150580001WERLE P. GALANG                                          0502
A0101407720000004659058MALANSING, EMILLIANO MANIKAN                             0501
B0101407720602044366001A. ILUSTRE & ASSOCIATES, ARCHITECTS                      1602
A0101407720602318369088MARY HELEN E. SABAS                                      0503
A0101407720602398462001GOMEZ, JOHN MANALO OR                                   10502
A0101407720602398462001GOMEZ, MA. PAZ C                                        20500
A0101412180000007360370VILLANUEVA, EUGENIO DEL ROSA JT                          0502
B0101412180000008320089RONNIE AND JOE RETAIL CONCEPTS INC.                      1605
A0101409890000000049012BONDOC, ADORAIDA TAHIR OR                               10502
A0101409890000000049012BONDOC, ROBERTO                                         20500
A0101409920000002260486VIRATA, RENATO BERNARDO                                  0501
A0101409920650478374005CRISOSTOMO, MA. EMELIA GASPAN                           10501
A0101409920650478374005MEMBERS OF NATASHA                                      20500
A0101407690000000587895MANLIMOS, AMALYN DELANI                                  0501
B0101407690652042381001AUGUSTO S. DE JESUS FARM & LIVESTOCK                     1602
B0101407690000000154812AIKA RECORDS                                             1602
A0101407690652443947001NOLIBETH L. RUELOS OR                                   10501
A0101407690652443947001VINCENT A. RUELOS                                       20500
A0101407690652609264004AUGUSTO DE JESUS OR                                     10501
A0101407690652609264004MILA DE JESUS                                           20500
A0101407690000000587811BANAAG, ARVIN PECSON                                     0502
B0101411530000002641761FOOTBOOK CORPORATION                                     1604
A0101413440000007953015DELA CRUZ, MIRRIAM ALVIOR                                0502
B0101413570000003580681FERRER, MARK OLIVER AND FERRER, ADLIN                   11601
B0101413570000003580681MAE                                                     21600
B0101406590662037318001NETWORK TWENTYONE, INC.                                  1602
A0101406590662044117001D VISAGE INTERNATIONAL                                  10502
A0101406590662044117001CORPORATION                                             20500
B0101406590662044117002D VISAGE INTERNATIONAL CORPORATION                       1602
A0101406590662211749002ALONZO, LETICIA TUAZON                                   0501
A0101406590662505081001BULAONG, MANUEL JR. ROCHA                                0503
A0101410300000006278482LAUENGCO, CORNELIO HAOS OR                              10502
A0101410300000006278482NAZARIO, LEONOR TORRES                                  20500
B1301400500684039637001SIMBULAN INDUSTRIES PHILIPPINES, INC.                    1601
A0101408240711383150001AURELIO III OR AURELIO JR.                              10501
A0101408240711383150001OR AARON LITONJUA                                       20500
A0101408240711398939001FERNANDEZ, CHARLES HESED P. JT                           0503
A0101408240711551929001CASTILLO, ALLAN FRUELY                                   0501
A0101408240000000347528RAFAEL,JOSE JAVIER/ROSEMARIE/                           10501
A0101408240000000347528REGINA KRISTINE/JOSELITO                                20500
A2801400230713792777001LOPEZ, JEAN EBANCULLA                                    0502
A4101400420814422280001DELGADO, ELVIRA CARIENENA                                0502
A4101400550000002091043RAMIREZ, CYNTHIA TAN                                     0505
A0101404840000000475901MARGIN, ARIANNE MAE CALOPEZ                              0501
A0101404840851520766104PARAGAS, MARILOU                                         0502
B0101406750000005608482MERCURY ACE TRADING                                      1603
A0101406750000004642331DEL PONSO, ALVIN PAZ                                     0501
B0601400230000002649927MJ EXPRESS CREDIT INC.                                   1605
A0601400230891390768002FATIMA CANLAS                                            0501
