A0101410720000007843312ALVIS, NENETTE LUBI                                      0501
A0101410720000001602175JAVIER, SERGIO L. OR                                    10502
A0101410720000001602175JAVIER, ELENITA                                         20500
B0101406590000000035550GLOBAL GAS & OIL CARRIERS, INC.                          1603
A0101410720653528817001VINCENT GONZALO SY OR TIMOTHY                           10503
A0101410720653528817001JON SY OR JULIE                                         20500
A1001400190231520766020LUBIDO, CAROLINE JARALES                                 0501
A1001400190231520766041ABANIL, KLYNN MYKLE BAGAIPO                              0501
A1001400350000017316882TAN, LUCIA BALBIN OR TAN,                               10502
A1001400350000017316882EDUARDO PUNG                                            20500
A1101400120000018104622ESCAPE, ALJONNE CEZAR ROSILLO                            0502
A1101400120000016418161MONTALLA, BIENVENIDO MALQUISTO                           0501
A0101407690000018586726DE JESUS, JAM SHIELA NOCUM                               0501
A0101400860000008319277**********                                               0505
A0101400860011387131002**********                                               0502
A0101400860011549648001**********                                               0505
A0101401250000017790286GLIFONEA, LINDY PUJANTE DBU BOD                          0501
A0101401250021471792001PIOQUINTO, DELIA ROSQUITES                               0501
A0101401250021708864001HAROLD T. TARRAS                                         0502
A0101400150000011758640BRAVO, RODOLFO GARLIT                                    0502
A0101400150000013484301OSIAS, KIARA VESTA ILAGAN                                0501
B0101400150061023739001MAGNO MAGNO & GINGOYON LAW OFFICES                       1601
A0101400150061236944093REBECCA P. MUYOT                                         0501
A0101400150000016117263PUNO, ENRICO DE JESUS                                    0502
A0101400150000000808140MADRID, ROCHELLE ANNE SADICON                            0501
B0101405810000011484581CHAISON TRADING CORPORATION                              1603
A0101405810072354724003FUENTES, LILIA S.                                        0501
B0601400100081030352001LIVING STONE INTERNATIONAL SCHOOL INC.                   1605
B0601400100081039107001REPLICAS MARITIME & AVIATION MODELS INC.                 1604
A0601400360000013780402KIM, SEUNGHWAN                                           0501
A0601400520000001349662TIMBOL ROMAN MANALOTO                                   10501
A0601400520000001349662ACCTNG & TAX CON                                        20500
A0101413280000011809211BINALUYO, JONATHAN PASION                                0501
A0101410850000019083362NOLASCO, DAVID LAWRENCE TANGHAL                         10501
A0101410850000019083362DBU TOY EMPIRE ENT.                                     20500
A0101400730111386485069DELIA R. PIOQUINTO                                       0502
A0101400730111478374112STO DOMINGO, CONSTANCIA                                 10501
A0101400730111478374112CHARLENE                                                20500
A0101401960000004419830**********                                               0501
A0101401830000014085782EVANGELIO, JUSTINE MARIELLE PIL                          0501
B0101401830141029955001SHELL EMPLOYEES MULTI-PURPOSE COOP. -                   11605
B0101401830141029955001STORE                                                   21600
A7201400170000009673083YBANEZ, RICK ANGELO LAGERA                               0504
A0101412920000018507792ALCALA, DEANNE DE CASTRO                                 0501
A0101400440000010744562GALLARDO, LORNA VASQUEZ                                  0501
A0101400440161525001105VIRGIE B. CRUZ                                           0501
A0101407270000004915908LORENZO, TRICIA MARIE SOLANOY                            0501
A0101407270162575836001EMMANUEL L. JALANDONI                                    0501
A0101401090171669483001REGINA C. YAO                                            0502
B0301400530000008307700APEX PREMIER PHARMACEUTICAL AND CON                      1608
A0101410720000018425700SANCHEZ, NICOLE MANGAOANG                                0502
A0101410720653470975001BELTRAN, ROBERT LUI                                      0502
A0101412500000019207920DELA CRUZ, RENZ MARION OR                               10501
A0101412500000019207920DESCALZO, MARY PHILLINE                                 20500
A0101412500000019210818GUTIERREZ JR., JOSE SALAS OR                            10501
A0101412500000019210818GUTIERREZ, ESTRELLA                                     20500
A3101400870000019157987CORPUZ, MICHAEL DESCARTIN                                0501
A3101400870000019207480AGUILUZ, JOSE MARIE SITO P.                              0501
A3001400130000012557836MAGALONA, MAGGIE ESCABAL                                 0501
A3001400130000014779954SOLIS JR., JAIME AZUMBRADO                               0501
B3001400130000010506515CUMBA, WENDY GO AND GO, ANTONIO TIMCANG                  1602
A3001400130230478374004BALABA, JANETH BORJA                                     0501
A1001400190231520766019GO, JUDITH SATURNO                                       0501
A1001400350000002367319CHAN, ALFREDO CAGARA                                     0502
A1001400350000018947541R AND J PHARMACY - OPOL                                  0502
A1001400350000018947609R AND J PHARMACY - MACANHAN                              0502
A1001400350000000017165MEN DBU A&L MARKETING SOLUTIONS                          0501
A1001400350233478374006IBANEZ, ELSA                                             0502
A1301400470000003270471MARIA CELINA DJ. SIMON                                   0502
A1301400470000003270493MAILEEN L. VILLEGAS                                      0501
A1301400760000017221011JEFFERSON N. LOREZCO OR SHIRLEY                         10501
A1301400760000017221011D. LOREZCO                                              20500
A1301400760000000050499PAOLO'S TRUCKING                                         0503
A0101401670271186208001BENJAMIN C. RAMOS OR                                    10504
A0101401670271186208001VIRGINIA S. RAMOS                                       20500
A0101412470000010561781GONZALEZ, BARBARA CRUZ                                   0501
A0101400570281441951010VICTOR FELIX S. GADDI                                    0505
A0501400200000005751646JACINTO, JOCELYN ORPILLA                                 0501
A0501400200000006272164TOLETE, MELINDA OVALLES                                  0501
A1101400120000008001378MANCERA, RAINIER DY                                      0501
A1101400120000013536722MANCERA, RAINIER DY DBU D RIZ M                         10501
A1101400120000013536722OTORWORKS                                               20500
A1101400120000009119546DUGANG, DAYLENE ABING                                    0502
A6601400120314625677001ORSOLINO, JOY SURIO                                      0501
A6601400120000016158862BOLOS, FELOMINA VILLA                                    0502
A2001400290000010684336CHUA, JEOREX POBLACION OR CHUA,                         10501
A2001400290000010684336MELANIE ROSE GAR                                        20500
B0101402350321006984001INTEGRATED HYDRO-PNEUMATIC                              11610
B0101402350321006984001SYSTEMS INC.                                            21600
A0101402060000011455188WONG, EILEEN SY                                          0501
A0101402060000005323222CRUZ, MARIE JOCELYN OCAMPO                               0501
B0201400890376034720001CEBU AGRI CHEM TRADE INC.                                1602
B0201400890376035150001EAL DEVELOPMENT GROUP, INC.                              1603
A0201401020000007458275ONG, JORGE TING                                          0501
A0101402930010100003151ARCEGA, EDWIN S.                                         0501
A0101408370000010833304DR. CHRISTOPHER DELOS REYES                              0501
A0101408370382498940001DR. MARIA VANESSA H. DE VILLA                            0501
A0101408370382502189001CECILIA ANNA E. MOLINA                                   0501
A0101408370000000336149SAWIT, SIMONETTE KRISTINE                               10502
A0101408370000000336149TIANGCO                                                 20500
A0101411660000005323922**********                                               0502
A0101402770391472751004DE GUZMAN, JERVIE RACELIS                                0502
B0101408400000014004687ABSHA CONSTRUCTION & DEVELOPMENT INC.                    1602
A0101408400000001855381ABSA BUILDERS                                            0502
A0101408400394478374008EDUALINO, LEONORA OR                                    10501
A0101408400394478374008EDUALINO, EDGAR                                         20500
A0101408400394606034001PANDA, DIANALAN MACABANDING                              0501
A0101408950000002255329PAGCALIWAGAN, MELISSA O'CONNER                          10501
A0101408950000002255329OR PAGCALIWAGAN,                                        20500
B0101408950000015963970MGM MOTOR TRADING INC.                                   1603
B0101408950000008364494GLOBAL CITY CAR LEASE & TRANSPORT CORP.                  1603
A0101408950000004512058TABLANTE, EMILIANO BAULA                                 0501
A0301400820000008623267ALMENDRAS, AILEEN C. OR PANCHO,                         10501
A0301400820000008623267CLARICE V.                                              20500
A0301400820000014657851RAZONABLE, LEANDRO C.                                    0503
A0301400820000017043180MANLIGUEZ, PIO DALIS                                     0502
A0301400820000004073352TAKBILANI, KIMSOY                                        0501
A2401400180000015944684BLANCO, DEHIMA PADERES                                   0504
B2401400180411016835001GENERAL TUNA CORPORATION                                 1605
B0901400220432044564001MARCIAN CONVENTION CENTER                                1610
B0901400220000000012175FLORIVEL M. DE JESUS ACCOUNTING OFFICE                   1602
A5101400100000011337243BALAGULAN, ABNER TUQUIB                                  0501
A0101403030441673721001**********                                               0502
A0101403320000014839811SOLOMON A. MANUBA JR.                                    0501
A0101403320000000067532YAGUEL, SALVE L.                                         0502
A0101406330472478374049DANILO GIL M. SETENTA OR                                10503
A0101406330472478374049DELIA A. SETENTA                                        20500
A0101406330000000683290FAJARDO, THELMA ESGUERRA                                 0502
A0101410140000012678521FLORES, POL ALBERT ABLITAS                               0502
A0101410140000014278196SERRANO, ROSARIO MIRANDA DBU RM                          0501
A0501400170000013648325SORIANO, VERONICA FRANCISCO                              0501
A1901400320000019207571GERONIMO, LUCILLE LAZO                                   0501
A1901400320000011382751BACAL, NILEA DIMAANO                                     0501
A1901400320000013754031TORIO, KATE CONCEPCION                                   0502
A1901400160000013648490DE CASTRO, EMA MATIBAG                                   0501
A1901400160000018747421CARAG, NEONITA ASENSI                                    0501
A1901400160491300270001JOSEPH ANTHONY R JAVIER OR                              10502
A1901400160491300270001JEMELLE T JAVIER                                        20500
A1401400110000013091515PEREZ, GERARDO MARANAN                                   0502
A1401400110000003475832RADONES, ARIEL SACRISTIA                                 0504
A0101403580000000016082SWEET BELLA DESSERTS                                     0510
B0101405940512005330001DACON CORPORATION                                        1601
B0101405940000005359720UNITED GATEWAY BUILDERS INCORPORATED                     1602
B0101405940000008479030MY ONE BAHAY CORPORATION                                 1602
B01014034505210117480012UROTILES INDUSTRIAL CORP.                               1602
B0101403450521011748001EUROTILES INDUSTRIAL CORP.                               1602
A0101403610000012132686BALOSCA, MERLYN BRUCELO                                  0502
A0101403610531219680004RONWHEELS PARTS & ACCESORIES                             0502
B0101403610531224782001**********                                               1603
A0101403610531224782002********                                                 0501
A0101403610531400970001BRILLANTE, ROSARIO AMIL                                  0502
A2201400250000017069148RAZON, ARJAY RIVERA                                      0501
B0101410690000000001872JOLLY MANAGEMENT SOLUTIONS, INC.                         1603
B0101404130000004437223CAPTIVATE SHOPPER MARKETING INC.                         1606
A0101407720000004664773SALAZAR, DJONIVIC GARDIOLA                               0501
A0101407720602210403001JOSEPHINE QUINTOS-APOSTOL OR                            10502
A0101407720602210403001CARLOS FAUSTINO                                         20500
A0101407720602396506002DR. ESTELA Z. CABRERA                                    0501
A0101404260000002302090*****                                                    0501
A0101409890000006812991CHUA, JOHNNY CHAN                                        0502
A0101407690000003207376BASCONCILLO, JENNYLYN CANILLAS                           0501
A0101407690000016370308NACION, JONALYN PETILLA                                  0501
A0101407690652207772001ROBIN OR TERESITA SY SUAN                                0502
A0101411530000019210181MAIPID, AUDREY DENISE NG                                 0501
A0101411530000018733878SUAREZ, NAPOLEON ALANO                                   0501
A0101411530000019202445GREGORIO, GILFREDO LLANTOS                               0501
B0101411530654089400001**********                                               1602
A0101411530654089400002**********                                               0502
A0101413570000017626201YAP, ERNEST WILLIAM SANGALANG                            0501
B0101413990000018578682IPROTECT CONSULTANCY AND INSURANCE                      11602
B0101413990000018578682AGENCY, INC.                                            21600
B0101413990000018578740IPROTECT CONSULTANCY AND INSURANCE                      11602
B0101413990000018578740AGENCY, INC.                                            21600
A0101414120000012536191MONTALBO, ELSON SANDOVAL                                 0501
A0101406590000002277523GO, VILINO SY OR GO, CHRISTY NG                          0501
A0101406590000017234470BERTOLDO, YOLANDA MARIANO                                0501
B0101406590662059749001GOLALIAN PROPERTIES INC                                  1602
A0101410300000006278642LITONJUA, KYLE RANDELL MORENO                            0502
A1301400210000000540652LEONCIO, GENE ANTHONY GIRON DBU                          0502
A1301400340000015587069CONCHA, REA ESTEBAN                                      0501
A1301400340000011813693CONCHA, REY BUENAVENTURA DBU                            10502
A1301400340000011813693BOSSING POWER                                           20500
B1301400500000018550024FREEWAY MOTOR SALES OF BALIUAG CORP                      1602
B1301400500684029282001L5 & SONS FINANCING CORP.                                1610
A0101408240000018210612DACOCO, CHRISTIAN FLORES                                 0501
A0101408240000000347528RAFAEL,JOSE JAVIER/ROSEMARIE/                           10501
A0101408240000000347528REGINA KRISTINE/                                        20500
B2801400100000011180720VOLTRON SUBIC TRADING CORP.                              1602
B2801400100712024577001PHILIPPINE COASTAL STORAGE AND                          11605
B2801400100712024577001PIPELINE CORP.                                          21600
A2801400100000000004775ESPIRITU, MARIA JENNIFER VICENT                          0505
A4101400390813378814001GIGI D. ABOGADO                                          0501
A4101400420000015173681LIZA, MICHAEL PALANAS DBU                               10501
A4101400420000015173681KLEENWAY MARKETI                                        20500
A4101400420814478374156OLIVIA V. ALGARA                                         0502
A0101412340000007305724RODOLFO D. PAGLICAWAN JR.                                0501
B0101404840000016807182PUA, ALLEN CASAPAO DBU ACPOWER ENGINEERI                11602
B0101404840000016807182NG SERVICES                                             21600
A0101404840000004565862CLOTILDE P. ARROYO                                       0502
B0101404840851061723001INNOVATIVE VENTURES LAND DEVELOPMENT                    11601
B0101404840851061723001PHIL. CORP.                                             21600
A0101404840851298552055SIXTA MELBA C. ENGBINO                                   0502
B0101406750000010166371PRCOCO PRODUCTION INC.                                   1610
A0101406750852617055001HERMINIA S PUA                                           0501
A0101413860000016826609**********                                               0503
A0601400230000017863795PACIA, MITOS SANTOS                                      0501
