F0201400180000000086913AGUILON JR., ROMEO CANETE DBU                           12505CKO
F0201400180000000086913A-BUILD CONSTRUCTION                                    22500CKO
F0101400570281506759001EDUARDO ROMMEL S. POBLETE                                2503CKO
F0101408400394506185003PRADES, BELYNE BANGCOT                                   2505CKO
F3101400580452015475002INDEPENDENT TELEPHONE COMPANY                            2603CKR
