B0101408950396821100608**********                                               2010
B0601400520000001706918NAGUIT JR., JOSEFINO F. OR                              11605
B0601400520000001706918NAGUIT, MHELODIE                                        21600
B0101412210399021173002ABOITIZ EQUITY VENTURES, INC.                            1601
A0101400860011397647001**********                                               0502
A0601400520000003009270NAGUIT, ALFONSO MIRANDA                                  0501
A0101413730000000144625*******************                                      0501
B0101400730111020534001BAYANIHAN MULTI-PURPOSE AND TRANSPORT                   11601
B0101400730111020534001SERVICE COOP                                            21600
B0101400730111482881002CASA BOCOBO HOTEL, INC.                                  1605
A0101412630000004062064BANZUELA, ELEANOR ADORNA                                 0503
A0101401830000002274353CUEVAS, ALFREDO SIDERIO                                  0501
A0101407270162390914001MELCHOR P. ANTONIO OR                                   10501
A0101407270162390914001JOSEPHINE S. ANT                                        20500
A0101401090171303520001NICOLAS, ANNA CECILIA ENRIQUEZ                           0501
A0101412500000001146963SANTOS, GERALD J. OR BALILO,                            10502
A0101412500000001146963VICTOR M.                                               20500
A0101412500000000739657****                                                     0501
A3101400160221398049001REMEDIOS L. LUNA                                         0501
B3101400450000000014160FANTASTIC WEB GAMING CO.                                 1601
A3101400450000005355471CIGARAL, PEDRITO EXCONDE                                 0501
A3001400130000000931282BALANGA, MARIO FERNANDEZ                                 0501
A3001400130000005446340BALANGA, MARIO FERNANDEZ                                 0501
B1001400190231015575001*****                                                    1602
A1001400190231520766051NANCY DAAYATA                                            0501
A1001400190231520766087MONTE, LEONORA BATERNA                                   0501
A1001400190000000124752LEGASPI, CAROLINA                                        0501
A1001400190000002170532PADIZ, ROSA ALMA V.                                      0501
A1301400470000000366450GABRIEL LEONARDO CALLING                                 0502
A1301400760000000050568VICTOR DEL ROSARIO ENTERPRISES                           0505
B0101401670271007482001VISEVERSA, INC.                                          1605
A0101401670000003752954*********                                                0502
B0101406460272036367001GRACE GOSPEL CHURCH, INC.                                1602
A0101400570000006240262RAMOS, ALFIE ALAGANO                                     0501
A0101400570281019045001INTRA TIRE RETREADING                                    0505
A0501400200292567569001LARILYN D. GATCHALLAN                                    0501
A2601400270302591563001ROSITA R. CHE                                            0501
B0801400160311100161001PRUDENTIAL CUSTOMS BROKERAGE SERVICES,                  11603
B0801400160311100161001INC.                                                    21600
A0801400160311478374104RUBIE BAGAFORO                                           0501
B2001400290000002406628RAMAS UYPITCHING, NICOLAS S DBU NRU                      1610
A0101402350321180459002TING CHING LAN OR CHANG CHIAO                           10501
A0101402350321180459002FEI OR CHANG CHIAO FENG                                 20500
A0101409050000000939408RANCAPAN, ARLYN BALTISOTO                                0501
A0101409050000003536565VENKATA RAMANA BOBBA                                     0501
B0101409050352212676001LIAMZON, MA. ANTONIA/FRANCISCO/FRANCIS                  11601
B0101409050352212676001KEVIN/CATHERINE                                         21600
A0101409050352734290001*********                                                0505
A0201400760000000223043OJALES, FEIAN ARCUINO                                    0501
A0201400920375074571001MONTEALEGRE, FRITZIE MARIE OR                           10502
A0201400920375074571001MONTEALEGRE, DAX                                        20500
B0101408790000003845749**********                                               1602
A0101405490392032343001TWIN PEAK BRASSIERES                                    10504
A0101405490392032343001MANUFACTURING IN                                        20500
A0101405490392462023001SANTIAGO, JUAN PAOLO TAPIC                               0501
A0101408400394027889001TINA S. BERIN FLOWER SHOP                                0505
A0101408400394033958001RCBP-STA MARTHA PARISH                                   0505
A0101408400394047545001JOHNMAYSUZANNE FASHION                                  10510
A0101408400394047545001COLLECTION                                              20500
A0101408400394160344001CALMA, ALFREDO MATAGA                                    0504
A0101408400394717440001RICANA, IVONNE PEDRAGOZA                                 0501
A0101408950396572239001PUYAT, MARIA LUISA TICZON                                0505
B0101409180000002036846IMPACTHUB PH INC.                                        1601
B5501400120410042322003TRUMPH MOTORCYCLE CORPORATION                            1601
A2401400180000005286940ESEO, JONAIDA BARDON                                     0501
B2401400180411014376002PENINSULA RURAL BANK INC.                                1605
A2401400180411045435001HP FRANCISCO CONSTRUCTION                                0506
A2401400180000000826299GENSAN VIEW RESORT                                       0502
B0101403030000000320425**********                                               1601
B0101403320000000452242DEL ROSARIO, FREDERICK AND DEL ROSARIO,                 11602
B0101403320000000452242MELISSA                                                 21600
A0101406330000000451067DE LEON, MARIA AURORA GUZMAN                             0501
A0101406330472793585001ROMMEL F. VIERNESTO                                      0501
A1901400160491246087001NIDA F UY                                                0501
B1401400110492046339002******                                                   1620
B1401400110492365609001JEORGE S MALIGAT - PILIPINO HARDWARE AND                11601
B1401400110492365609001CONST. SUPPLY                                           21600
B0101407430503028318001LONGHORN TRANSPORT SERVICES INC.                         1605
A0101407430503181730001WINSTON D. DUCO                                          0501
B0101405940000000002739********                                                 1601
A0101408530516486562001DR. REZA M. ARABPOUR                                     0504
A0101408530000001885794EDITHA M. MOJAR                                          0502
B0101411400000001280320RBSS PROJECT MANAGMENT SERVICES                          1601
A0101411790000000134169CATALAN, SHEILA ESTRADA                                  0501
B0101403450521021842005WALL VISION CORPORATION                                  1605
A0101403450521240285002**********                                               0502
A0101403450521319825001**********                                               0501
B0101403450521504300001TAN, GREGORIO CHUA                                       1602
A0101403610531308186001ANDAL, REGINALD R. OR                                   10505
A0101403610531308186001ANDAL, MA. PENELOPE                                     20500
A2201400250000003558081RAMOS, RICARDO RAZON DBU                                10505
A2201400250000003558081AMAZING KIDS INTERACTIVE                                20500
A0101407720000004664819RANESES, ERNESTO RODILA                                  0501
A0101407720602404990001ILUSTRE, CORAZON C. OR                                  10503
A0101407720602404990001ILUSTRE, ANA MARIA                                      20500
A0101404260611150837001EMILIANO OR MARIETTA REYES                               0503
A0101404260611478374099TERESITA DOLLOPAC                                        0502
A0101409920000001539420PADUA, ANTHONY MILLAN                                    0501
A0101409920000000118590CARDENAS, CAROL SALUNA                                   0501
A0101411530000003238333**********                                               0502
A0101413440000002339573CABRERA, LEOTHENY ALBANO                                 0502
A0101406590000003007096ARROYO, MA LOURDES TUASON                                0501
B0101406590000000905657BRAINCHILD SIX INC.                                      1601
B0101406590000000905657BRAINCHILD SIX INC.                                      1601
B0101410300000005331613UNIVERSAL WINDOORS PRODUCTS CO.                          1601
A1301400210000000983815FELICITAS S SUNGA                                        0504
A1301400210682478374027MARY ANN M. DE LEON                                      0502
A1301400340683528422001MILAOR, SUSANA SAN PABLO                                 0501
B1701400230693621490002***                                                      1606
B4101400390000000034022GLOBAGILITY INC.                                         1602
B4101400390813036443001JINHOEMB CORPORATION                                     1602
A0101404840851046725013MARY JANE A. DE GUIA                                     0501
A0101404840000000683443EVELYN FRIAS                                             0502
A0101404840851329120001XXXXXXXXXXXXXX                                           0502
A0101404840851520766105ALICAWAY, HELEN                                          0501
A0101406750000000017490SESE, ALDEN ANTHONY DIZON                                0501
A0101406750852620298001EMILY COLINA OR DOMINGO                                 10501
A0101406750852620298001COLINA JR                                               20500
A0101405070000001256133CEZAR, RONALD APOLO RITARDO                             10501
A0101405070000001256133OR CEZAR, ANYLENE QUEZADA                               20500
B0101405070861028770001SHEPHERD HOUSE PUBLISHERS, INC.                          1603
A0601400230000000186867SAPNU, D DBU D.L.S.J GLASS ALUM                          0501
A0601400230000003638960DIZON, JOSE JUN G. DBU INTERTEC                          0501
