A0101410560000000020151JERLYN B. SAMSON                                         0501
A1101400120000001920678PALMA, JHOWIEN ROYO                                      0501
A1101400120000000652380CAYUBIT JR., SERAFIN ASERON                              0501
A1101400120313478374074UNGAB, ROSALINDA B.                                      0502
A1101400120313478374103ENVERZO, NARISSA LEONORA G.                              0501
A1101400120000005608260SANITA, ERIC SALIENTE                                    0501
A1101400120000006186581IANZEIL N. SALVATIERRA                                   0501
B0101410850109821100608**********                                               2020
A1101400120000000652351YAO, RONALD PHILIP GO                                    0501
A2401400180411455559001VENDIX GEN. MERCHANDISE                                  0501
B0101403580511005170001JOLOU REALTY AND DEVELOPMENT CORP.                       1601
A0101403580511495573001VITALIANO N. NANAGAS II OR                              10502
A0101403580511495573001ROSARIO B. NANAGAS                                      20500
A0101407720000005100212LITIATCO III, JOSE LEGASPI OR                           10501
A0101407720000005100212LITIATCO, ARLEEN                                        20500
A0101400860000002333488**********                                               0502
B0101400860011236251001**********                                               1601
A0101400860000002262551**********                                               0501
A0101400860011399605001**********                                               0502
B0101411370000000018135FOKUSI FACADE INC.                                       1604
A0101400150000003141351BALDWIN H. YU                                            0501
A0101400150000010671417SINDAC, MAY HAZEL PIRAMIDE                               0501
A0101400150000010671600HARON, CRISTA ZAIRA CORRAL                               0501
A0101400150061368675001JESSE O. ANG                                             0502
A0601400100000009324049REUTTER, MARIA CHERRYL EVIDENTE                          0502
B0601400100081025592001HAUSLAND DEVELOPMENT CORPORATION                         1602
B0601400100081251412001TAN, WILFREDO OR MARIANO                                 1605
B0601400100081251751006TAN, WILFREDO OR TAN, MARIANO                            1602
B0601400100081251751009TAN, WILFREDO M. OR TAN, MARIANO G.                      1602
B0601400100081251751012TAN, WILFREDO MANARANG OR TAN, MARIANO                   1602
A0601400100000000141864DEL ROSARIO, ROCELLE PENA                                0504
A0601400520000010665791DE JESUS, MICHELLE BUSQUE                                0501
A0101410850000009034720ROQUE, KATRINA LIGON                                     0501
A0101410560000010318173ROSEMARIE Y RIVERA                                       0501
A0101412630000004062086BANZUELA, ELEANOR ADORNA                                 0501
A0101401830000008424060LEIGHTLEY, NINJA AGBON                                   0501
A7201400170000003774436MAATA, JANIETH S. OR                                    10502
A7201400170000003774436MAATA, JEFFRY P.                                        20500
B5001400170000000045025S. A. MALON LENDING CORP.                                1602
A0101412920000000276373TANYAG, IMELDA BARJA                                     0502
A0101400440000006679692ARLENE CABRERA                                           0501
A0101400440161525001153JENNY P. CRUZ                                            0502
A0101400440161563348001GERALDINE C. LUMAGDA                                     0501
A0101401090000005320336CUEVAS, GEORGE CHAVEZ                                    0501
A0301400530000003088037PADILLA, SORAHYA PRIETO                                  0501
A0301400660000005691778MANALASTAS, XAVIER ERIC BANDIOL                          0503
A0301400950000000566832HERNANDEZ, SHEILA MARIE QUIACHO                          0501
A0101412500000000739657****                                                     0501
A3101400160221478374055JOSEPHINE C DEMAFELIZ                                    0502
A3101400160221533266001ANGELITO S. LAZARO JR.                                   0503
A3101400450223529066001MORENO, MICHELLE CALALO                                  0503
A3001400130000000931162VOCALES, MYRA SERENO                                     0501
A1001400190231520766119CABANO, BERNADITH CATIWALAAN                             0501
A1301400470000004626886LOIDA FUNERAL HOME                                       0504
A1301400470252599213001REYNALDO OR ROSARIO TERESITA OR                         10503
A1301400470252599213001RAYMOND JOSEPH ODULIO                                   20500
A1301400760000009441987JOHN JEFFREY G. SANTIAGO OR                             10501
A1301400760000009441987MA. FILIPINA V. SANTIAGO                                20500
A1301400760253087654001CATHERINE F SANVICENTE OR                               10505
A1301400760253087654001VINCENT PAUL P SANVICENTE                               20500
B0101401670271025682002* * * * * *                                              1620
B0101406620273027549001E-BUSINESS SERVICES, INC.                                1601
A0101400570000010680316SIBAL, VIVIEN MILDRED FRANCISCO                          0502
A0801400160311478374008RODELYN LEBUNA                                           0501
A1101400120313570675001TIU, SAMUEL PO                                           0520
A6601400120000003672980TURBANADA, NOEL SORRO                                    0504
A6601400120314040857002MEDLINE DRUG & MEDICAL SUPPLY                            0501
A6601400120314041602001LEXTAN GENERAL MERCHANDISE                               0502
A6601400120314612856001FRANZUELA, SARAH S.                                      0505
A6601400120314613974002UY, CESAR LIM                                            0503
B0101402350000000046108ABSOLUTE INDUSTRIAL SOLUTIONS, INC.                      1606
A0101402060351217446002HELEN R. FLORES                                          0501
A0201401020000004409089DELFINO, RHEENAN GONZALES                                0501
B0201401020377821200608**********                                               2002
B0101402930000003734861POLICARPIO & ACORDA LAW OFFICE                           1601
B0101402930381008843001BASIC HOUSING SOLUTIONS, INC.                            1605
B0101402930000003269403PETRA CEMENT INC.                                        1601
B0101402930000005645952FARMFRESHFORYOU CORPORATION                              1601
B0101408370000000014597MANILA HEALTHTEK INC.                                    1606
A0101408370000010341754ROMANO, IAN ROD FELICIANO OR                            10501
A0101408370000010341754CRUZ, XAVIER YUL RIVERA                                 20500
A0101408790000002326132CARPIO, JOSEPH LOU GAMUYOD                               0501
A0101408790000005293990ANDREA B. TERAN                                          0501
B0101408790383047276001SYSCO DEVELOPMENT CORPORATION                            1601
A0101408790000006026062WANDERLUST TOURS AND TRAVEL                              0502
A0101405490000000444513RYAN MARCK WONG JIMENEA                                  0501
A0101409180000003780045RUTH ROSELLE JOAQUIN                                     0501
A0101409180000003310221HERNANDEZ, RAFAEL ANTONIO E. OR                         10502
A0101409180000003310221HERNANDEZ, MARIA                                        20500
A0101409210000005251781LANSANG, CHERYL JOY VITA OR                             10501
A0101409210000005251781MILAN, KRIS LAWRENCE                                    20500
B0101409210000000031238******                                                   1620
B0101412210000007255270TH COFFEE SERVICES PHILIPPINES                          11605
B0101412210000007255270CORPORATION                                             21600
A0301400820000007372996DOMINGO, RITA P. OR DOMINGO,                            10503
A0301400820000007372996SOTERO C.                                               20500
A2401400180000005286922AMADEO, ANNIE MILES                                      0503
A2401400180411555962001SILVA, VIOLETA P. OR                                    10502
A2401400180411555962001SILVA, MARCELINO                                        20500
A2401400180411623776001SAUBAN, MARIA LUISA BANDIOLA                             0501
A2401400180000007031789DIZON, LEANDRO ADOR ANDRES                               0501
B1201400150000000034379GOSHEN LAND CAPITAL INC.                                 1605
B0101410140000005945140KASAGANA-KA DEVELOPMENT CENTER,  IN                      1603
A0101410140000001939871MARIANO, REBECCA ISAGON                                  0501
A0101410140000001940063ARCENAS, CRESENCIA (MEMBERS OF                          10502
A0101410140000001940063NATASHA (SHOECAT                                        20500
B0101412760000000032004TIGER EYES SECURITY SOLUTION INC.                        1603
A1601400170000000497423MENCHU R. BUADO                                          0501
B1601400170494061553001PERFECT PITCH TECH PHILIPPINES INC.                      1610
A0101405940000005068162CATHERINE E. CEBRERO                                     0502
A0101405940000005359275PASTORIN, MARIA RUSSEL AGUIRRE                           0501
B0101403450521011910001KITCHEN BEAUTY MARKETING                                 1605
A0101403610000010682385DE RAMOS, MARK JOY MANIPOL                               0502
A0101403610531370621001KUMAR, MANISH                                            0502
A2201400250561558363001JOSEPH B. SAWIT OR                                      10501
A2201400250561558363001JOSEFINA B. SAWIT                                       20500
A0101404130601027289001JULIUS L NONO                                            0501
B0101404130000000696191PINAGPALANG SAMAHAN NG NAGKAKAISANG                     11602
B0101404130000000696191MANGGAGAWA MULTI                                        21600
B0101404130000003105751GOLD NUGGETS HAULING AND TRUCKING CORP.                  1602
A0101404130601450174001MARISSA A. TALENTO                                       0501
A0101407720602480488001GERALDINE MAJELLA L. JURILLA MD                          0501
B0101412180000001293130BLADESANDBOWS INC.                                       1610
A0101412180000000037943ORTIZ, ROLANDO REYES                                     0501
B0101404260611780269001CARMELLE O. ALOG OR                                     11605
B0101404260611780269001FREDERICK L ALOG                                        21600
A0101411530000007212900**********                                               0501
A0101413440000001472873BANARES, EMILIA CHUA                                     0501
A0101413440655054550001SOMETHING DIFFERENT BAKESHOP                             0501
B0101413440000002691643KASAPI-KAAGAPAY SA PANGKABUHAYAN LE                      1603
A1301400210000001206882GIPIT, GEMMA C.                                          0501
A1301400210682551025001ANA LIZA P DIMAWALA  OR                                 10501
A1301400210682551025001ARLENE S DELA CR                                        20500
A1301400340683484839001CAPULE, JANICE ARRADAZA                                  0502
A1301400500000000213378JEAN G. REYES                                            0501
B0101408240000000832622ENSPIRE GLOBAL INC.                                      1601
A0101408240000008160132RICAFRENTE, MA. ANALYN DELFIN                            0502
B2801400100712028150001SUBIC NEXUS TECHNOLOGIES INC.                            1603
A4101400260812478374062SUNNY G. CAPORADO                                        0501
A4101400390000000048520TEDIONG, CATHERINE MAGNO                                 0502
A4101400390000000379180LIBATON, NENA MORALDE                                    0502
A4101400420814520766004SALVACION D. BITANCUR                                    0501
A4101400550000003267127NAVEA, A DBU VELJO ENTERPRISES                           0502
A4101400550815647258001JOAN Q. TEMBLIQUE AND                                   10501
A4101400550815647258001CONRADO B. TEMBLIQUE                                    20500
A0101412340000003349455RAMIL DELA CRUZ VARGAS                                   0501
A0101412340000004359991CHRISTOPHER C. PABALAN                                   0502
A0101404840000008871332MENDOZA, WIL ANNE GANDA                                  0502
A0101404840851046725013MARY JANE A. DE GUIA                                     0501
B0101404840851671030001QUANTUMMEDIA MARKETING INC                               1602
A0101406750852180691001LUIS V. JIMENEZ                                          0505
A0101406750852184574001DELA ROSA, DANILO V. OR                                 10502
A0101406750852184574001DELA ROSA, VILMA                                        20500
A0101406750852241118001FLORES, JOY                                              0501
B0101405070861020451001SOUTHEAST TRAVEL CORPORATION                             1604
B0101405070861654489001SY, DERICK TIU                                           1601
