F0101403580511032944002SOUTH RENOVA VENTURES, INC                               2605CKR
F0301400110191038997168DAVAO HELEN'S PAWNSHOP CORP.                             2605CKR
F0101405780212039655001CMC DIAGNOSTICS, INC.                                    2602CKR
F0301400240401025953008ECE MARKETING                                            2605CKR
F1301400210682459876001JOSE ADRIAN R. SY-ALVARADO                               2510CKO
F0101406750000000090515PROSWEAL HEALTHCARE INC.                                 2605CKR
