B0101406590662821100608**********                                               2003
A0101410300000014299108ELUMBARING, RENE JAMOLOD                                 0501
A0101410300000000191939CARBALLO, LUIS ANTONIO S. OR                            10505
A0101410300000000191939SALAZAR, EMMANUE                                        20500
A0101413860000013130373DIOKNO, GENER BARCELOS                                   0502
A0101413860000002314227BONCAVIL, CLARISSA MORRE                                 0502
A0101413860000009967015ARCEGA, ANA RHEA DELA CRUZ                               0502
A0101413860000016349510LAVILLA, ORLIE JOHN YAP                                  0501
B0101413860000000145286SEA BREEZE LAUNDRY CO. INC.                              1605
A0101400570000006272051BAGAIN, ANDREA MARTHA DE BORJA                           0501
A0101406590000005305242CHUA, CHARLENE ANGELIQUE CHENG                           0502
A0101406590000003007198TONGSON, MARILYN ROSALES                                 0501
A0101406590000003007096ARROYO, MA LOURDES TUASON                                0502
B0101413860000000145275CON-PAC WAREHOUSING INCORPORATED                         1605
A0601400100000005050202CASTILLO, MADELYN MARIANO                                0501
A0101410850000017121021IGUBAN, ELEONORE BAUTISTA                                0501
A0101411240000001026851MARQUEZ, YOLLY MONTESA                                   0502
B1101400120000006186883ONG, VIRGINIA PO AND ONG, WAN LIAN PO                    1601
A1101400120000001920678PALMA, JHOWIEN ROYO                                      0501
A2001400290000010222883LAMONT, STEPHEN JOHN                                     0501
B2001400290315688888001**********                                               1610
A0101405650000015273904MENDOZA, KRISTINE JOYCE MERCADO                          0501
B0101405650000002960752SAVORICH CORPORATION                                     1601
A3801400170000017120706ROGELIO, R DBU PXJ CONSTRUCTION                         10501
A3801400170000017120706SERVICES AND SUPPLIES                                   20500
A0101410300000014299211TRINIDAD, CATHERINE LADIA                                0502
A0101408240000015858710ANTONIO, JOHN REVIN SARMIENTO                           10501
A0101408240000015858710JT                                                      20500
A0101404840851217637114CARAY, ALFREDO                                           0501
A0101400860011559271001**********                                               0505
A0101411370000005524512URQUICO, ROXANNE SUAZO                                   0502
B0101400150061010833001VELCA TRAVEL & TOURS, INC.                               1602
A0101400150061041250001LM INDUSTRIAL TRADING                                    0502
A0101400150061236944008GRACE R. DE ASIS                                         0501
B0101405810072011448001C.P.P.C CONSUMER PACKAGING PRODUCT CORP.                 1603
B0101405810072018018001AIMWAY PLASTIC & PRINTING CORP.                          1602
B0101405810072020925003DW PLASTIC CORP.                                         1603
B0101405810000005943342PLASTIC TECHNOBAG CO. LTD.                               1601
B0601400100000000142214SIMON AND STANDLEY INTERNATIONAL TRADING                11605
B0601400100000000142214& DEVT CO, INC.                                         21600
A0601400360000013099522DAR, GLEN II ELIAS                                       0501
B0601400360000013047693SILVER HERITAGE TECHNICAL SERVICES                       1602
A0601400520000005943542ARCEO, TEEJAY ROMERO                                     0505
A0101410850000005316887TAMAYO, RUBILYN DE VERA                                  0501
B0101410560000014511194WIND TRADE LINK BROTHERS CORPORATIO                      1602
A0101410560000005836080REYNA, CRISTETA REBECCA LAVIDES                          0503
A0101400730000009156463SY, KATHERINE RODRIGUEZ OR                              10501
A0101400730000009156463SY. LUVY RODRIGUEZ                                      20500
B0101400730111008593001TITAN TRAVEL & TOURS, INC.                               1603
A0101400730111304745001AUSTRIA, ERNESTO CRUZ OR                                10505
A0101400730111304745001EVELYN AUSTRIA                                          20500
A0101400730111328387002NIDEA, MAGDALENA RAPIRAP                                 0501
A0101406040112094295001********                                                 0501
B5001400170000006294653GO, AUGUSTINE EWAY OR GO, EMMA DY                        1602
A5001400170000006294608DOBLE, GENEVIEVE A.                                      0502
B0101400440000016121598SAMONTE, RAY SAMUEL C AND SAMONTE, ROLAN                11602
B0101400440000016121598STEPHEN C                                               21600
A0101400440000000596630MARY ANN A. OYARDO                                       0502
A0101401090171198478001MAFEL C. YSRAEL                                          0501
A0101413020000003055405AVO-AIR ENGINEERING SERVICES                             0501
A0101410720000016140060PERDIZ, ELMA REYES                                       0501
A0101412500000017132906ODIVER, RICHELLE ANIZ                                    0501
A3101400160000016570235CUASAY, RIO RIVAS                                        0501
A3101400160000015974922DELA CRUZ, MAY OPULENCIA                                 0501
A3101400450223223556001*****                                                    0505
A1001400190231478374086LORNA A. OMANDAM                                         0501
A1001400350000012928053SY, AMY BO                                               0505
B1001400350233034758001MARIA REYNA XAVIER UNIVERSITY HOSPITAL                  11601
B1001400350233034758001ALUMNI ASSOCIATI                                        21600
B1001400350000000017096AYA VENTURES CORPORATION                                 1604
A1001400480000002300383GUINTO, JEAN MAGO OR GUINTO,                            10502
A1001400480000002300383NEMER SARDEA                                            20500
A1901400290261298552013LEONILA QUESADA GUEVARRA                                 0501
A1901400290261659949001JONATHAN PLANAS DE ROXAS                                 0503
A0101401670000003181677ANG, BENITA TAN                                          0502
B0101401670000004588490H.S. POW CONSTRUCTION AND DEVELOPMENT                   11604
B0101401670000004588490CORPORATION                                             21600
A0101406460000011558371EBORA, DENNIS MALALUAN                                   0502
B0101406460272821200608**********                                               2002
A0101406620000000193782CASTILLO, CARMENCITA REYES                               0501
B0101406620273025674001PHIL. GAME FISHING FOUNDATION INC.                       1602
A0101406620000000193840TAN, APRIL LYNN LEE                                      0501
B0101411110000001037074NIECER TRADING COMPANY INC.                              1602
B0101411820000010701241ITECH COMPUTER SYSTEM CO.                                1601
A0101400570000016822509IRINCO, ELISA CABANILLA                                  0502
A0101400570000016544235**********                                               0502
A0501400200000001081065DELOS REYES JR., PEDRO BULOSAN                           0503
A0801400160000016201179AMARANTE, JOSELYN MAPRANGALA                             0502
A1101400120000001547337ALDIANO, FLORDELUNA LATO                                 0502
A1101400120000003197233BATAN, DONNA FE ABOGADO OR BATA                         10501
A1101400120000003197233N III, DOROTEO BACAY                                    20500
B1101400120000000653190BOSJAN MAIN MARKETING CORP.                              1605
A1101400120000009119819VERONA, CATHERINE                                        0502
A1101400120000006186478BOLECHE, MERLINE BANDALA                                 0502
A1101400120000000652351YAO, RONALD PHILIP GO                                    0502
B3401400280318821100608**********                                               2002
A0101402350000016177225CHUA, ALEXANDER SANTOS                                   0501
B0101402350000017142751CHING, YEE GUAN DBU C.Y.G. GENERAL                      11601
B0101402350000017142751OR CHING, ERIC                                          21600
A0101405650000011810778BESANA, PENELOPE AGAPITO                                 0501
A0101402510000013485731HAN, JIYOUNG                                             0501
A0101402510000011748908MA. RETCHEL S. MALIBIRAN                                 0503
B0101402510341069271001CHERRY BERRY FLOWERS AND DECOR INC.                      1601
A0101402060000009179871RAYMUNDO, RAFAEL SANTOS                                  0502
A0201401020000009627089PHEBE L. VITALES                                         0501
B0201401020000007458162SEMPERFI TRANSPORT INC.                                  1603
A0101408370382422891001DR. MA. NATHALIA N. MONTEMAYOR                           0502
A0101408790000009593224KATTY FAYE F. REGASPI                                    0501
B0101411660000002808040GETZ PHARMA (PHILS.), INC.                               1602
A0101402770000001570725DBU CHRISTINE MANALO VILLAMORA                          10501
A0101402770000001570725INTERIOR DESIGNS                                        20500
A0101405490392563453002ALLAN L. DE GUZMAN OR                                   10501
A0101405490392563453002MARIVEL R. DE GUZMAN                                    20500
A0101408400000007264577RAFAEL, MARK JOSEPH REYES                                0502
A0101408400000014500642MANZANO, MARK ALVIN LEMON                                0501
A0101408400394162577001REYES, ELSA UNGSOD                                       0502
A0101408950000011055740LORELEI L. VEA                                           0502
A0101412210399675747002FERRER, RAYMUNDO BENITEZ                                 0501
A0301400820000014657920DE LUNA, RAMELITO A.                                     0503
A0301400820000006542812MILAN, JANICE CALIP                                      0502
A0301400820000014657953CAMANZO, PRECIOUS PAGALAN                                0501
B0301400820000000024911DIGOS DOCTORS' HOSPITAL, INC.                            1620
A5501400120000002348325ANG, ANDY MAN CHUNG CHANG                                0505
A5501400120000014312248SUAREZ, SHEMIE MASA                                      0502
A5501400120000015561118SORMILLO, LIZA ONG                                       0502
A2401400180000017108793JUNSAY, CLINT KRISTOFFER C                               0501
B2401400180411017908001LWC CYCLE MART, INC.                                     1602
B2401400180411033588088FIESTA APPLIANCECENTER, INC.                             1610
A2401400180411478374032ROSANNA M. CANTERO                                       0501
A2401400180411542448001GUATLO, ANNA MARIE VILLASENCIO                           0501
A2401400180411587639001GILBERO, EVELYN BUT-AY                                   0502
A1201400150421542693001KVAALEN, SVEIN OLAV OR KVAALEN,                         10501
A1201400150421542693001ARLENE FONTANILL                                        20500
B0901400220432044564001MARCIAN CONVENTION CENTER                                1610
B0101412890000009624513UPLIFT CONSTRUCTION AND AUGMENTATION                    11603
B0101412890000009624513SERVICES INC.                                           21600
A0101412760000015445588PERALTA, FLORENCIO ROCERO                                0501
A0101412760000011574651CORTEZ, MARLIN MARARAC DBU PF 1                          0501
A0101412760000000528205SANCHEZ, SARAH JAYNE                                     0502
A0101412760000015445599TANALA, MARK LEO INIGO                                   0501
B0501400170481025398002COSTSAVER'S SUPERMARKET, INC.                            1603
B1401400110492046339002******                                                   1620
A1401400110492403388002ENVASE, EDELYN RAMOS                                     0501
A1401400110492455411001BELEN, ROSEMARIE SABATER                                 0502
B0701400260000014694358TIMEZONE LENDING INVESTOR CORP.                          1601
B0101407430503015295001PC SUPPLIES, INC.                                        1601
B0101408530516032963001387 AUTO CENTER, INC.                                    1601
B0101411400000004555802BOP INTERNATIONAL COMPANY, INC.                          1602
B0101412050000007801665PRIMEBEEF COMPANY INC.                                   1603
B0101403450000002975677SAFEWAY CUSTOMS BROKERAGE, INC.                          1605
B0101403610000017133385JAD MEASUREMENT AND CONTROL TECHNOLOGY                  11601
B0101403610000017133385CORPORATION                                             21600
B0101403610531022064001CLP INDUSTRIES CO.                                       1601
B0101403610531029447001QUEENS BEST COOKING OIL AND                             11602
B0101403610531029447001MARKETING CORP.                                         21600
A0101403610531047978001TIMONES, ALPHA PINTACASI                                10504
A0101403610531047978001DBU JAZKY BUILDE                                        20500
A0101403610531049193001BARRON, JAIME ALBERTO DBU PHIL-                         10501
A0101403610531049193001CANADA MEDICAL INDUSTRIAL                               20500
A2201400250000004916109GUTIERREZ, RALPH GABRIEL CRISTO                          0501
A2201400250561655717001JAIME Y. MARIANO                                         0501
A0101404130601039572001NORMA SANTOS ESTEBAN                                     0501
A0101407720000003886955SANCHEZ, ARISTOTLE FRANCIS GERO                          0505
A0101407720602163494001SHERMAN O. VALERO                                        0504
B0101407720602463868002MAKATI HEALTH SPECIALIST CONNECTION, INC                 1601
A0101412180000005360958MANCIO, ALAN GLENN LUSTRE                                0501
B0101404260611034987001JS TRAVEL & TOURS                                        1601
A0101409920000005460679MIRANDA, JULIUS NEPTALIO DL.                            10501
A0101409920000005460679DBU DON'S ENTERPRISE                                    20500
B0101407690652042938001SIGNWOOD HARDWARE & LUMBER SUPPLY                        1603
A0101407690652478374034EDNA D. PENALVER - DEALERS OF                           10501
A0101407690652478374034SHOECAT, INC.                                           20500
A0101407690652525001056ENRIQUE, EMY SANTOS - DEALERS                           10501
A0101407690652525001056OF SHOECAT INC.                                         20500
A0101407690652572431002MIRANDA, JULIUS NEPTALIO DE LAZ                          0501
A0101411530000000741713MARIA PERLITA PACIA OR ANNA                             10501
A0101411530000000741713KRISTINA PACIA OR ANNABEL                               20500
A0101413440000000183748MALLONGA, IRENE REYES                                    0505
B0101410300000000191611CLEMENTE, N DBU CNC CREATIVE EVENTS                      1601
A0101408240711094357001OLIQUINO, LOIDA ALMENDRALA                               0501
A0101408240000016120362CASTILLO, JUAN MIGUEL ANTONIO                           10501
A0101408240000016120362DOMINGO                                                 20500
A0101408240000016574682RACHO, TRANQUILINA OR ALEXANDER                         10502
A0101408240000016574682OR OROBIA, ANNA                                         20500
A4101400260000010623844DIVINA, NORIETA IBALIO                                   0502
A4101400260812249068001FANNY J. SU                                              0501
A4101400260812299913002CAMPOS, FILOMENA OR CAMPOS,                             10501
A4101400260812299913002BERNIE OR CAMPOS                                        20500
A4101400550000016729114PANIZALES, CYREEN LORENZO                                0501
A0101412340000003342521MICHAEL ANGELO C. DELA ROSA                              0501
B0101412340000000030888WIT AUTO GROUP CORP.                                     1605
B0101404840851018774001FIL-LABOR COMM'L & INDUSTRIAL CORP.                      1601
A0101404840851424338001PAMITTAN, MYRNA M.                                       0506
B0101404840851490100001ACTIVE-CONCISE TECH. INC.                                1605
A0101406750852478374065MARIVEL L. MANGUERRA                                     0502
A0101406750852741281002HELEN A FANGON                                           0501
B0101405070861028566001AVESTA REALTY, INC.                                      1602
B0101405070000013392257TEKTON CONSTRUCTION CORP.                                1605
A0101405070861202773002CHING CHUEN HUI                                          0501
A0101405070861499418001OCAMPO, IRENE PENA                                       0501
A0101413860000009426484SAMONTE, ROSEVILLE JOY TOLENTIN                          0502
B0101413860000012289566LOGISTIKUS, INC.                                         1605
A0601400230000013259520GUEVARRA, JULIET YUSIKEE                                 0501
