A0101411530000000013743**********                                               0501
A0101411530000000013743ALFREDO D AQUINO                                         0501
A1001400190000000016457ANTIGA, LUNITA                                           0501
A0101401250000000020424BALIAO, JOVITA LINGGON                                   0505
A0101401090000000034528ALEJO, MA. SERENA ADONIS                                 0501
A0101408660000000059841SANOY, MEDINA PLAZA                                      0502
A1001400190000000124854MEMBERS OF NATASHA (SHOECAT INC                          0501
A0101406750000000172989VELEZ, PALMY REPRADO                                     0501
A0101413570000000206351**********                                               0501
A1301400500000000213021DARCEN, SOLEDAD MERCADO                                  0501
A0101400150000000253234ESTANISLAO, RONNA MA LARGO                               0502
A0101408370000000335551AMADOR, ROSANNA JOY SANTIAGO                             0501
A0101411790000000469585BUTCHAYO, JANE ENTERO                                    0501
A0101404840000000475996MANNAG, ANTONIO QUILANG                                  0502
A0101407560000000477703YOGI PIA BANAL HEBRES                                    0502
A0101408790000000579368CARLOS, CARLOS BALDEMOR                                  0503
A0701400260000000670882SALLES, GERILISA CANONICO                                0501
A0101405650000000772947JAVILLONAR, MILAGROS CASTRO                              0501
A0101408820000000840642**********                                               0501
A0101409920000000998821LANIP, JOCELYN BOLINA                                    0502
A0101405810000001021207CHEN, TINGYU                                             0505
A0101413730000001029543*********                                                0503
A0601400230000001062491SALENGA, MIRASOL BOGNOT                                  0502
A0501400170000001072902DELA CRUZ, JOHNNY MANALESE                               0501
A0101410140000001074953HILARIO, IMELDA RAMOS                                    0501
A0101403610000001174954HERNAEZ, JOEL A.                                         0501
A0101404000000001186950ELBO, SUSAN SANCHEZ                                      0501
A0101409210000001294479VELASCO JR., NORMANDO DE VELA                            0501
A0101412920000001313740LINGAN, ROSALINDA PALATAN                                0502
A0101412920000001313751RADAZA, RONA MARISSA BURIAS                              0502
A0101406040000001392018BERNARDO JORGE B. MITRA                                  0502
A0101400150000001422473CARABIDO, MARIFEL VILLAMAR                               0501
A0101412630000001485172ARCILLA, FE INFANTE                                      0503
A0101412050000001499783FERRAREN, JOEL ORTEGA DBU JOF F                          0502
A0101404680000001617312TACMO, EDNA RAMOS                                        0501
A0601400230000001687118**********                                               0501
A0101413860000001767893SEVILLA, DBU AMIRAH INSURANCE M                          0501
A4101400260000001783786CACAPIT, KATHERINE MANUEL                                0501
A1401400110000001806811SALIBIO, MARIA RHODA DELOS ANGE                          0501
A1201400150000001863163GABOY, WILMA KIMBATOY                                    0501
A1101400120000001920532MEDRANO, JEFF JAYMELL JARAMILLA                          0501
A1101400120000001920543AEJIN'S COMPUTER SHOP                                    0502
A0101410560000001943995MONTALBAN, MYRA SUGANOB                                  0501
A2001400290000001999804CUAL, BASILISA LIMPAHAN                                  0501
A1301400500000002063827FLORES, CHRISTINE                                        0503
A0301400790000002652742AGAD, FLORA ALBARILLO                                    0501
A0101413990000002654071DELOS SANTOS, CONNIE TAJO                                0501
A0101411400000002657798CLUTTON, CHARMAINE CORNELIA CHA                          0501
A0101401700041502022001**********                                               0504
A0101400150061226922001INES, PHILIPP DELFUN                                     0501
A0101400600071233624002**********                                               0502
A0101400600071705835001********                                                 0501
A0101405810072239541002**********                                               0502
A0101405810072344420003CHING, JENNIFER TIN                                      0502
A0601400100081045690001MERCEDITA ANDRES TRUCKING                                0501
A0101400730111347787002CHAVEZ, LYNN FLORENTINO                                  0501
A0101400730111386485021REBECCA R. LANUZA                                        0501
A0101400730111520766002MA. LIZA C MALAQUE                                       0502
A0101401960121569490001************                                             0502
A0101400440161478374175MARYLEN R. MORADA                                        0502
A0101400440161525001159MARITES P. MONTALBAN                                     0502
A0101407270162504412001DOMINGO, JOSE JR. LOPEZ                                  0502
A0101401090171196210002*********                                                0502
A0101401090171531698001MARIA ISABEL D. CORNEJO                                  0501
A1001400190231520766108PALUNPON, EPLIDA J.                                      0502
A2601400270302567227001ROSITA TAN VALLE                                         0501
A1101400120313537396001VILLEZA, ROMEO NIEVES                                    0503
A6601400120314613008001QUILETORIO, RUEL OR ANALIZA                              0501
A0101408820333158716002**********                                               0501
A0101408820333478374062SANDRA G. BUENO                                          0501
A0201400920375711941001**********                                               0501
A0101402930381478374009MARIVIC R. DELA CRUZ                                     0501
A1201400150421301485002GO, ROLANDO DISTOR                                       0502
A1201400150421329098001NENITA D. TANGONAN                                       0501
A0101403320471402087001CECILIA L. DIAMANTE                                      0502
A0101403450521238594001**********                                               0501
A0101403450521240285002**********                                               0502
A0101403610531219950001DRA. RUBRICO, KHRISTINE CARRERA                          0503
A0101403610531453729001CHAMBER, MARY HYACINTH CRUZ                              0501
A0101404000551556290001GESTOPA, ELENITA QUIZAN                                  0501
A2201400250561585887001GINA P. CORPUZ                                           0501
A0101407720602313257002PARRA, JOSEPH DINULOS                                    0503
A0101404260611042511001KEN TAXI                                                 0505
A0101404260611478374081ROSITA VIVIT                                             0502
A0101404420631579303001VICENCIO, MELENCIO FRANCISCO                             0501
A0101408240711488775001TAN-YU, ANITA SY                                         0501
A4101400390813333041001MARIO C. GENUINO,JR.                                     0501
A0101404840851403558001SOLIVERES, YOLANDA A.                                    0501
A0601400230891606250001DAVID, JERICHO FABIAN                                    0501
A0601400230891708534001ANICETE, JUN MANDAP                                      0501
A0101408370000000014495DR. DONALD JUDE U. MEGUIZO OR                           10502
A0101403610000000015818AGUJO, MARILUZ SANCHEZ OR                               10502
A0101408790000000039110CALIMLIM JR., CARLITO SAN JUAN                          10501
A0101413570000000206373MARY ANN C. REYES OR BENEDICT                           10502
A0101403320000000522381DELA PAZ, CHAUNCEY RAJAL DBU                            10502
A2601400270000000561773VOLTAGE COMPUTER TECHNOLOGY AND                         10502
A0101407720000000713142PUNSALAN, ERANIO OR PUNSALAN,                           10501
A0101407270162712523001JOHNMORRIS P. LIMPANGAN OR                              10501
A0101400570281188818002REXIE F. BARRERA OR                                     10501
A0101402930381381181001BERNARD FAH OR                                          10502
A5501400120410611619001PERNIA, NELLY M. OR                                     10503
A2401400180411338845001ROBERTO T. PERALES OR                                   10505
A2401400180411530850001SABULAO, ROSALYN B. OR                                  10501
A0101403450521238266001JERONIMO CO CHIN CHIENG OR                              10502
A2201400250561478374010ZENAIDA L. REYES                                        10501
A0101408240711652748001SUAREZ, ANTONIO MENCHACA OR                             10501
A2801400100712688356001DEL ROSARIO, RICHARD F. OR                              10501
A0101408370000000014495DRA. DEBBIE GUANI MEGUIZO                               20500
A0101403610000000015818AGUJO, JUANITO JR. M.                                   20500
A0101408790000000039110OR SALCEDO, MICHAEL                                     20500
A0101413570000000206373MARIANETTO A. REYES                                     20500
A0101403320000000522381GABTECH MEDICAL TRADING                                 20500
A2601400270000000561773SERVICE CENTER                                          20500
A0101407720000000713142EMIR, OR PUNSALAN, ENJL                                 20500
A0101407270162712523001JANEL S. LIMPANGAN                                      20500
A0101400570281188818002JOLINE D. BARRERA                                       20500
A0101402930381381181001MARIA CAROLINA FAH                                      20500
A5501400120410611619001PERNIA, JOSE REY                                        20500
A2401400180411338845001JANET C. PERALES                                        20500
A2401400180411530850001SABULAO, INOCENCIO                                      20500
A0101403450521238266001LAWRENCE COBANKI                                        20500
A2201400250561478374010MEMBERS OF NATASHA                                      20500
A0101408240711652748001SUAREZ, MIGUEL ANTONIO                                  20500
A2801400100712688356001DEL ROSARIO, EVE                                        20500
B1301400470000000009561FUND LINK CREDIT & LOANS, INC.                           1602
B0101405810000000016811***************                                          1603
B0101400440000000029310PERLA COMPANIA DE SEGUROS, INC.                          1602
B0101411950000000036411KIMBERLY TECH METAL WORKS & SERVICES                     1601
B0101412470000000045372KIDMASTER INC.                                           1601
B0101402930000000057521SYSKEEPER CORP.                                          1603
B0101413570000000206562JENDRICKS S. LUNA AND EDWIN Y. RUTAQUIO                  1601
B0301400790000000435790AGSUR IMPEX CORPORATION                                  1605
B0101413020000001175371******************                                       1602
B0101400730000001242313SOLID EVTAC CORP.                                        1602
B3001400130000001271523BERRYL DRUG CORP.                                        1602
B0101412470000002086353ISABELA ASIA STAR CORP.                                  1606
B0101401700041036641001OMNILEX TRADING                                          1601
B0101400150061010670001ASIASEC EQUITIES INC.                                    1610
B0101400150061027678002RAKUEN SEIKATSU MANAGEMENT SERVICES                      1603
B0101400600071234158001**********                                               1605
B0101405810072011390001MODISTE ACCESSORIES INC.                                 1603
B0101405810072027398001JSG PREMIER REAL ESTATE, INC.                            1602
B0101405810072040696002PLASTIC TECHNOBAG CO. LTD.                               1602
B0101405810072042730001**********                                               1603
B0101405810072367597005***************                                          1601
B0601400100081034790001SHINMEI CREDIT AND LOANS CORP.                           1601
B0101401090171029222001QCMP INC.                                                1601
B0101406620273041414001GANO I-TOUCH PHILIPPINES INCORPORATED                    1605
B0101406620273459504001SANOSIL PHILIPPINES INC.                                 1601
B0101405650322016488003CALOOCAN BEARING AND PARTS CORP.                         1605
B0101405650322043619001ALSTAR CHEMIE SALES (PHILIPPINES)                        1601
B0101402510341021863002SAN BEDA COLLEGE UNION (SBCU)                            1601
B0101402930381008954001FOURTH VALLE VERDE ASSOCIATION INC.                      1602
B0101402930381021740001YOSHINOYA CENTURY PACIFIC INC.                           1605
B0101402930381033256001BENMARK GROUP HOLDINGS, INC.                             1603
B0101402930381041518001PANPISCO TECHNOLOGIES, INC.                              1603
B0101402930381690943001LA CUMBRE LAND INC.                                      1608
B0101403030441382008001**********                                               1602
B1401400110492046339002****                                                     1615
B0101406880513005447001THE TREZZA GROUP INC.                                    1606
B0101403450521021003002GRANVILLE INDUSTRIAL CHEMICAL CORP.                      1606
B0101403450521034672001**********                                               1603
B0101404260611043949001JCLC TRADING                                             1603
B0101406590662038794001PRISMODIAL CONSTRUCTION CORPORATION                      1606
B2801400100712582034002DONGHYUP PHIL. INC.                                      1601
B0101406750852040331001INTUITIVE MEDICAL BUSINESS SOLUTION                      1603
B0301400790000000435772NG, RANDY & LEE, RICARDO & DANO, ARTURO                 11605
B1201400150000000473370BAGONG PAG-ASA ENTREPRENEURS SAVINGs &                  11602
B0101413150000001688593CHENG, VICENTE OR CHENG, EVANGELINE OR                  11601
B0601400100081013319001ANGELES CITY UNIVERSAL MARKETING                        11602
B0301400790000000435772& TOMAS, ETHEL                                          21600
B1201400150000000473370CREDIT COOP.                                            21600
B0101413150000001688593CHENG, VINCENT                                          21600
B0601400100081013319001CORPORATION                                             21600
B0101412470278821100608**********                                               2003
