A0101408370382397942001DR. JULIETA S. MAHUSAY OR                               10505
A0101408370382397942001DR. TEODORO S. MAHUSAY                                  20500
A1101400120000006186809SALCEDA, ETHEL ORBITA                                    0501
A6601400120000009613674GALVEZ, GENARO CASTILLO                                  0503
A0101401250021368766001ZAGUIRRE, ELIZA R. OR                                   10501
A0101401250021368766001ZAGUIRRE, RENATO                                        20500
A0101400150000016108291PASCUAL, RIA                                             0501
A0101400150000012997903DUNGCA, ERWINA DELA CRUZ                                 0501
A0101400150000002902547CANTO, MARIANNE JANDAYAN                                 0502
A0101400150000009217818CHANG, ERICA RITZ LEE                                    0501
A0101400150000009401445SUGIOKA, SATOSH                                          0501
B0101400150061018219002SUGAR INDUSTRY FOUNDATION, INC.                          1605
B0601400100081256915005KWONG, WILLIAM G. OR                                    11603
B0601400100081256915005ANTONIO, ADELA                                          21600
B0601400100081458246001VANDERPAS DEVELOPMENT CORPORATION                        1603
A0101413730000007317291************                                             0502
B0101414090000007344603BLUEMAX TRADELINK  INC.                                  1603
B0101400730111019171002RHINE FOODS CORPORATION                                  1603
A0101400730111741862001ATTY. H. JAMES WILMOT                                   10502
A0101400730111741862001OR JODETH S. AGU                                        20500
B0101401960121023340001**********                                               1601
A0101401960121569490001************                                             0502
B0101412920000000042071SW TRAVELTIME INC.                                       1602
B0101412920000000276533MIRAMAR MANPOWER SERVICES, INC.                          1603
A0101400440000014296529BALAJADIA, ERLINDA MANIEGO                               0503
A0101400440161039572058ERLINDA S. AVERILLA                                      0501
A0101400440000009591882LIEZEL G. OBSIOMA                                        0502
A0101407270000011150186JOY BACERRA DBU SMART MOVERS                            10503
A0101407270000011150186TRUCKING SERVICE                                        20500
A0101407270162453493004CESAR GERARDO S. RAVELA JR.                              0502
A0101401090171331007001JONAS Y. SANTIAGO                                        0501
A0101401090171479987001MA.FARRAH ARACELI B.PANGANIBAN                           0501
A0301400660000002913124ROMERA, VICTOR CANINOCAN                                 0501
A0301400790000012274101JALALON, CONNIE GENTILES                                 0501
A0301400790000006269834JALALON, CONNIE GENTILES DBU                            10501
A0301400790000006269834D C G GASOLINE STATION                                  20500
A0301400950000002975013MERCADO, GRACE ARANA                                     0502
B0301400950000000566945BIG Z QUALITY FOODS CORPORATION                          1610
A0101413020000006295098VICENCIO, ROBERT ALAIN P. OR                            10501
A0101413020000006295098VICENCIO, MARIA                                         20500
B0101410720000000008733SMARTSERVE MANPOWER RESOURCES, CO.                       1602
B0101413600000005524807TRUCKMASTER GOLDEN BODY MFG. CORP.                       1602
A3101400160000005459798DE ROXAS, HONELYN MIRANDA                                0501
A3101400160000015974733LIWANAG, RACHELL MUTYA RUBIO                             0502
A3101400160221042310001STAR NETWORK REALTY                                      0501
A3101400450223529066001MORENO, MICHELLE CALALO                                  0503
A3101400450223577252001REYES, PAUL RAMOS                                        0501
A3101400870000016644069BONGALON, LIBERTY CHAVEZ                                 0501
A3101400870000016873953ZARSAGA, URIEL LACIA                                     0501
A3101400870000016874267PASUMBAL, ANDREILYN CORTEZ                               0501
A3101400870000016874518CAPLIS, VERALLEL EVE RACILES                             0501
A3101400870000011244276QUIROL, EVER CHAVEZ                                      0501
A3001400130230478374236SALES, CHARRIE ANN SINGCO                                0502
A3001400130000008264864CACAFRANCA, KARL RUSSEL INOCENC                         10501
A3001400130000008264864IO                                                      20500
A1001400190231427280002GAYAPA, JESSECA GADIAN                                   0502
A1001400350000014511821OTARA, DANTE SILVERIO MADERO                             0501
B1001400350000000244222MADONNA AND CHILD HOSPITAL                               1605
A1001400350233042653001BLUE ENERGY RESOURCES                                    0504
B1301400470000007862879BANZCORE COMPANY                                         1601
A1301400760000002346090GLORIA G. MAGDANGAL OR                                  10502
A1301400760000002346090RICARDO E. MAGDANGAL                                    20500
A1301400760000005989862EDUARDO B. GARCIA OR                                    10503
A1301400760000005989862JENALYN P. GARCIA                                       20500
A1901400290000002337679TOLENTINO, ALLAN OR                                     10501
A1901400290000002337679TOLENTINO, CELESTE                                      20500
B0101401670271188302003FAVILA, EDGARDO BALTAZAR OR ANNETTE B.                  11601
B0101401670271188302003FAVILA                                                  21600
A0101401670271188489001CARMEN C. LIM                                            0501
B0101406460272020749001EASTGATE COMPUTER CORPORATION                            1601
A0101406620273358539001MARIA TERESA L. JAHRLING OR                             10502
A0101406620273358539001ANGELO JAHRLING                                         20500
A0101408660000000059932MARGAS, HELEN DUMAYAC                                    0501
A0101400570281464580001GALVEZ, ARLEEN DECENA                                    0502
B0501400200292021985002FOREST LAKE DEVELOPMENT, INC.                            1610
B0801400160000005656982JUANTONG & SONS BUILDER CORP.                            1610
B0801400160311267111001CHRIST THE KING MEMORIAL PARK, INC.                      1606
A0801400160311380582001CHUA, ANDREW UY OR                                      10501
A0801400160311380582001CHUA, PAMELA G.                                         20500
A0801400160311478374102MA. CECILIA A. AVANCENA                                  0501
A0801400160311563526001HERNANDEZ, JASMINE LINN CELIZ                            0502
A1101400120000009119671ARCELO, MARK LOPREZ DBU KYLES M                         10501
A1101400120000009119671OTOR PARTS                                              20500
A1101400120000000652351YAO, RONALD PHILIP GO                                    0502
A6601400120000003673012VASQUEZ, FERDINAND ENDONELA                              0505
A3401400280000004958563NORTHVILLE CHRISTIAN ACADEMY                             0502
A0101402350000012300028BANICO, POL ALVISOR DBU J.P.B                           10501
A0101402350000012300028MOBILE CIRCUIT SHOP                                     20500
B0101405650000011811117BNSM REALTY & DEVELOPMENT INC.                           1605
A0101402510000011748704RAGOS, KATHLEEN CHARMAINE                               10502
A0101402510000011748704SAN JUAN                                                20500
B0101409050000013167841**********                                               1601
A0201400920000002804559DELA PENA, RUBELYN ARESTOTILES                           0502
A0201400890000003645123SOCO, GLENN ANTHONY OCAMPO                               0501
A0201400890000010370771**********                                               0501
A0201400890376062347001LYLIE HOTEL                                              0501
A0201401020000002250573CHUA CHAN, BERNY BRYAN CO                                0502
A0101408370382205119001DR. FLORANTE P. GONZAGA                                  0501
A0101408370382425270001ARLENE C. CABANGANAN                                     0501
A0101408790000010422583ALCANTARA, ELIZABETH P.                                  0501
A0101402770391211308001***************                                          0502
A0101402770391476396002RICHARD A. SARMIENTO                                     0502
A0101408400000016877295OLEA, ODETTE PANALIGAN                                   0501
A0101408400000013877079LLANZA, MARICEL RECUENCO                                 0503
A0101408400394034391001INTEGRATED TELENET SOLUTIONS CO                          0502
A0101408400394230018001JOSE H. GAOAT JR. OR                                    10502
A0101408400394230018001JANEFER F. GAOAT                                        20500
A0101409180000014368200OHMORI, HONEY JHUNE TANYAG                               0501
A5501400120000014312380LOPEZ, SONA MARIE SOLOREN                                0501
A5501400120000015561005FORRO, LORENZO ALEGARIO DBU                             10502
A5501400120000015561005L.M. FORRO CONSTRUCTION                                 20500
B5501400120410046322198DSO GLOBAL DISTRIBUTION, INC.                            1605
B2401400180411069002001PA FUEL 118 CORPORATION                                  1603
A2401400180411272614002BALAYO, JOEL BASCO                                       0510
A2401400180411567472001CRUZ, GEORGE FONTANILLA                                  0502
B0101403030000014004790DURAN, CHAD WILLIAM SY                                   1601
A0101403030441313818001**********                                               0502
A0101403320471047334001OLIVAR, MARIA CRISTINA DBU AI2                          10503
A0101403320471047334001DECALS & STICKER                                        20500
B0101412760000007821954OLYMPUS COPY PRINTING CORP.                              1603
A1901400160000016875562MALALUAN, ARVIN DE TORRES                                0501
A1901400160000015539890BUNO, ANGELO MARQUEZ                                     0501
B1401400110492031376001LUCENA WHEELER ENTERPRISE INC.                           1603
A1601400170000015678467ESTADOLA, KARL IVAN ESPENO                               0501
B0701400260000007895850BICOL RENAL CARE ASSOCIATES CORP.                        1605
A0101407430503043601001M.R. SUNGA TRADING                                       0501
B0101407430000006027783FTM BROKERAGE & PORT SERVICES, INC.                      1602
B0101407430503067977001MARK ALFRED F. LAFUENTE DBU JML CARGO                   11601
B0101407430503067977001TRANSPORT                                               21600
A0101407430503291798002LEA D. JOVER OR                                         10501
A0101407430503291798002JAIME EDUARDO K.                                        20500
A0101407430503378525001EMMA C. MANALO                                           0501
A0101407430000000141733ROBERTO G. FERRER                                        0501
B0101403580511020857001ROBROS INCORPORATED                                      1603
B0101405940512041188001PREMIUM WINE EXCHANGE INC.                               1601
B0101403450521022302001**********                                               1602
B0101403450000011473675***********                                              1610
B2201400250561013172001INTERNATIONAL WIRING SYSTEMS                            11650
B2201400250561013172001PHILS. CORP                                             21600
B22014002500000077200123 KIS FOOD STORE CORPORATION                             1601
B2201400250000002924861RDGUZMAN, INC.                                           1601
A2201400250000009019892FROSTVILLE ICE CANDY                                     0502
A2201400250561258530025CATHERINA T. DOMINGO                                    10501
A2201400250561258530025EMPLOYEES OF IEW                                        20500
A2201400250561401949001ROSANNA TIGLAO MANALO                                    0502
A0101404130601559335001TABULA, FLORANTE HIDALGO                                 0501
A0101404130000002121293UDTOHAN, MARISA ARGALLO                                  0501
A0101407720000006028462AZAGRA, MICHELLE DIMAALIHAN                              0501
A0101407720602200210001EDITHA C. DIZON                                          0501
A0101407720602436863001ACEBUCHE, NILO BORJA OR                                 10501
A0101407720602436863001ACEBUCHE, AMELITA                                       20500
A0101407720602692869001NIELSEN, KAREN LUCERO                                    0504
A0101407720602780335001ABAYA, MA. LUZ VIRGINIA SUNTAY                           0502
A0101404260000013859937TADEO, MARK ANGELO DIAZ                                  0501
B0101404260611034715001LAY BARE FRANCHISING CORPORATION                         1603
A0101404260611043982001J.G BALDEO RTW & BAGS STORE                              0502
A0101409890000006812780**********                                               0505
A0101409920000011312751**********                                               0501
A0101407690000010774640RAMOS, MARYDAE HANNAH MAYARI DB                          0502
B0101407690652042381001AUGUSTO S. DE JESUS FARM & LIVESTOCK                     1602
A0101407690000006736496SALLY B. LABIANA                                         0501
B0101407690652537622001CREATIVE DISHES & RECIPES INC.                           1602
A0101407690652643259001JOSE MARIA AUGUSTO DE JESUS OR                          10505
A0101407690652643259001AUGUSTO THEODORE                                        20500
A0101413570000001069585AMPARO L. HERNANDEZ                                      0501
A0101413570000015446525OLIVEROS, JEROME OR                                     10502
A0101413570000015446525OLIVEROS, MORYULA GERU                                  20500
A0101413570000010676543DAYAO, ELIZABETH BASA                                    0502
A0101413570000013875922MANLUSOC, LUCIA TALENS                                   0501
A0101413570000014621564CASTILLO, JAYMARIE AQUINO                                0501
A0101413570000001069443**************                                           0501
A0101413990000006278113VARONA, HENRY ALABADO                                    0501
A0101413990000016574073DE GUZMAN, EDUARDO ZARATE                                0501
A0101414120000006005265GALGANA, ARPHISOL REALES                                 0502
A0101414120000000875601CELSO OR CONSOLACION                                    10501
A0101414120000000875601MARTINEZ                                                20500
A1301400340000015886905MAMANSAG, ELENA ALBA                                     0502
A1301400340000005264922************                                             0502
A1701400230000011517354*                                                        0501
A1701400230000012227553ALOG,ERWYN OR ALOG,ALDWYN BLASS                         10501
A1701400230000012227553JUSTIN OR ALOG II,ERWYN F                               20500
B0101408240711024238001GEBO CERMEX PHILIPPINES INC.                             1602
B0101408240711026678001SAMBEL PACIFIC CORPORATION                               1605
B0101408240711496116001FIZZFASHION MERCANTILE & TRADING, INC.                   1601
A4101400390000008744969JOSELITO GALAN OR ALIDA GALAN                           10504
A4101400390000008744969DBU J.S. GALAN BUILDERS                                 20500
B4101400390813004424001EASYFAST TRANSPORT SERVICES INC.                         1601
A4101400390813482809001EVANGELINE E. AGCAOILI OR                               10502
A4101400390813482809001CARLITO E. AGCAOILI                                     20500
A4101400390000015067257ARNEL J. LEGASPI                                         0502
B4101400420000016875179AIR BLOW VENTILATION INC.                                1601
A4101400420814520766084PADILLA, ROSEMARIE E.                                    0501
A4101400420000009270593DINGLASAN, JENEBETH MERCADO                              0501
A4101400550000009642975IGLESIAS, WILMA RICACHO                                  0502
A4101400550000015887071RIVERA, ROSALINDA LOVERIA                                0503
A0101412340000003341700CARLOS, ERIC RUSSEL C.                                   0501
A0101412340000003719055KINSKI G. GAGAN                                          0501
A0101412340000009501451UMEREZ, YASMIN ALCALA                                    0501
B0101412340000005964123WME PHILS. CORP.                                         1602
A0101404840000005396949ESPORLAS, AURA AREVALO                                   0503
A0101404840000000085050NIKKI DE ISO                                             0501
A0101406750000016395581GENERILLO, JOSHUA MIOLE                                  0501
A0101406750000016395609CANARES, RENATO DELA ROSA OR                            10501
A0101406750000016395609CANARES, BERNADITH G.                                   20500
A0101406750000004641861SIMBUL III, FILEMON NICOLAS OR                          10503
A0101406750000004641861ADELFINA SIMBUL                                         20500
A0601400230000012134455VET YARD MARKETING                                       0502
A0601400230000007402188CHUA, MARK ANTHONY GARCHITORENA                          0504
A0601400230000007954121CHUA, MARK ANTHONY GARCHITORENA                          0501
