B1901400290261821100608**********                                               2005
B1901400290261821100608**********                                               2005
B1901400290261821100608**********                                               2005
B1901400290261821100608**********                                               2005
B1901400290261821100608**********                                               2005
B1901400290261821100608**********                                               2005
B1901400290261821100608**********                                               2005
B1901400290261821100608**********                                               2005
B1901400290261821100608**********                                               2005
B1901400290261821100608**********                                               2005
B1901400290261821100608**********                                               2005
B1901400290261821100608**********                                               2005
B1901400290261821100608**********                                               2005
A0101411790000000469596**********                                               0502
A0101412890000011813142HERNANDEZ, ANNALIZA PALANA                               0502
B0101400150000013484432ROMULO DELOS REYES JR AND JOSEPHINE                     11601
B0101400150000013484432DELOS REYES                                             21600
B0101410720653030880001NAPOCOR VILLAGE HOMEOWNERS ASSOCIATION                  11601
B0101410720653030880001INC.                                                    21600
A3101400450000014748093TOLENTINO, MARINEL SAHAGUN                               0501
A3101400450000014748286AKIYAMA, AISHIN ARIATE                                   0501
B0101400860011490477001**********                                               1601
A0101400860011536336001**********                                               0502
A0101401250000000460586AZUCENA, MARIA PAMELA ENRIQUEZ                           0501
A0101411370000002269372BELEN, MICHAEL ANGELO SUAVERDEZ                          0502
A0101400150000003197875Dennis Michael D. Orellana                               0501
B0101400150061044903001I-GATEWAY MOBILE PHILIPPINES, INC.                       1601
A0101400150061315447001SUBIDO, M.D. JONAS CERTEZA                               0501
B0101400600071325133001**********                                               1602
A0101405810072234892001**********                                               0501
A0601400100000010024914BOK, JANE DUE DBU MOGORA ASIAN                           0505
A0101414090000006211643HAN, JIYOUNG                                             0502
A0101414090000006211650HAN, JIYOUNG                                             0502
B0101400730111201825001HEIRS OF CALIXTO CHIKIAMCO                               1601
A0101400730000001822680BALBES, JASMINE MONTEPOSO OR                            10503
A0101400730000001822680JARDIOLIN, MAJAR                                        20500
A0101400730111588315001AGIR, NATHANIEL Y. OR                                   10502
A0101400730111588315001JARDIOLIN, MAJAR                                        20500
A0101401960121396302001**********                                               0501
A0101413150000003208175******                                                   0505
A0101412630000002040602LEGASPI, BOYET MINDO                                     0501
A0101412630000014772440GUERRERO JR., HENARIO M.                                10501
A0101412630000014772440OR GUERRERO, HELEN M.                                   20500
B0101401830141035193001ARAL KID'S ACADEMY                                       1601
A0101401830141432694001ARROJO, KAREN MADRIAGA OR                               10501
A0101401830141432694001ARROJO, NECKO OR                                        20500
A0101401830141551597001MARIA VEOSELYN B. ESTRELLA OR                           10501
A0101401830141551597001EFREN B. ESTRELL                                        20500
A7201400170000003774083AMOROSO, CARL LEWIS LEGASPI                              0501
A7201400170000006487621**********                                               0504
B5001400170000000045127CHAN, ALFRED UY OR CHAN, AMY TIU OR CHAN                11605
B5001400170000000045127MICHAEL TIU                                             21600
A0101400440000009896242VILLAREAL, ZEMMA ZACARIAS                                0501
A0101400440161525001119NORA S. TALENTO                                          0501
A0101407270162497036001HERMAN C. SALVADOR                                       0501
A0101401380000013916651GALANG, REYMOND LACSAMANA                                0501
A0101410720653505147001****                                                     0501
A0101412500000003289952TIAM-LEE JR., SIMEON GO                                  0501
A3101400160000014366139IMPERIO, KEVIN BRENDT PEDERNAL                           0501
A3101400160000014775854NONATO, JANICE ESPELA                                    0501
A3101400160000004362903REYVELINDA E GUEVARRA                                    0502
A3101400450000014657282TAN, MARVIN JOHN ERILLO                                  0501
A3101400450223403586001NUA, CHRISTIAN JOHN OR RICHARD                          10550
A3101400450223403586001OR MELODY                                               20500
A3101400450223519356001AQUINO, SHERWIN AND BEVERLY                              0502
B3101400740224041181001SHIN HEUNG ELECTRO-DIGITAL INC.                          1603
A1001400190000002266606MORAN, LEONIDO MANAGIT                                   0502
B1001400190000002170850RD PAWNSHOP, INC.                                        1605
A1001400350233478374001JUNIO, ROGELIA A.                                        0501
A1301400760000012980855DENDEN VICENTE CANLAS                                    0501
A1901400290000001362954WILLIE AMBAL MERCADO                                     0501
A1901400290000014042923MARIA DOREEN ELEFANTE ILUSTRE                            0501
B1901400290261046556001MEAT ADVANTAGE EXCHANGE INC.                             1620
A1901400290261099052001ROWENA ANA R CORNEJO OR                                 10502
A1901400290261099052001GALICIANO B CORNEJO                                     20500
B0101401670000000016300NEWLINE INDUSTRIES, INC.                                 1603
A0101406460000001231503************                                             0502
B0101406620273022309001VISOR RESOURCES, INC.                                    1606
B0101406620273039746001MANTA ENERGY, INC                                        1602
B0101406620000000962465TOP TIER INNOVATION ENTERPRISES                          1606
B0101406620273460663001PREMIUMSOLE INTERNATIONAL CORPORATION                    1608
A0101408660274715819001FRONDOSO, ROSEMARIE SYCIP OR                            10501
A0101408660274715819001FRONDOSO, MANUEL TIOSEJO                                20500
B0101411110000013536506DC MANCITA BUILDERS, INC.                                1604
A0101412470000002295769CHENG, JEFF TAN OR CHENG,                               10503
A0101412470000002295769EVELYN UY                                               20500
A0101400570000011681082JOHN EDWARD P. HERNANDEZ OR                             10502
A0101400570000011681082JOHNNY T. HERNANDEZ                                     20500
A0801400160311478374103MERLINDA GUARDAMANO INAYAN                               0502
A3401400280000011652098ACEJO, ROMMEL RAMOS                                      0505
A3401400280000001723502KUAN, NELSON BAYOGOS                                     0501
A0101402510000011695033ORTEGA, DECELYNDA CABARDO                                0505
A0101402510341094471001NATIVIDAD, LIZEL ROSE QUIRAY                             0501
A0201401020000002250562URGELLO, ALVIN SACEDON                                   0501
B0101402930381008843001BASIC HOUSING SOLUTIONS, INC.                            1605
A0101402930381478374015DIMARANAN, ARNOLD ABEJERO                                0501
A0101408790000004697065VASQUEZ, ALLEN KRISTIAN AVILES                           0501
B0101408790000000599726KESTREL IMC CORP.                                        1604
A0101415350000013691197PARIL, LASHEEL HUYA                                      0503
B01014027700000068124627 SEA AIR & LAND LOGISTICS SERVICES                      1602
A0101405490000014662730MONDEJAR, CASTEN REY DBU                                10501
A0101405490000014662730CASTEN SECURITY AGENCY                                  20500
A0101405490000004808668DAISY B. MAJAIT                                          0501
A0101408400000010394259DIMAL, JAIMILA LACSON                                    0505
B0101408400000002386263CORMANT TECHNOLOGIES INC.                                1603
A0101408400394420934001SANTIBANEZ, EUGENIA SANTIAGO                             0505
A0101412210399094817058MARTINEZ, GEORGINA CAROLINA                             10501
A0101412210399094817058YAMBAO                                                  20500
A5501400120000005492377JAVELLANA, LEMUEL MASA                                   0502
B1201400150000000473432MGD GOLF TOURNAMENT FOR A CAUSE INC                      1601
A0101412890000005945053JAVIER, EDILBERTO MANALO                                 0501
A0101403320000014741450ESPALDON, MA. FATIMA GLAICIA E.                          0501
A0101403320000014713469NORTHAMPERE ELECTRICAL SERVICES                          0501
B0101403320471068309001GAPAN LAND, INC.                                         1603
A0101403320471464326001HILDA C. SALONGA                                         0502
A0101406330472341087001WILFREDO L. ORTIZ                                        0501
A0501400170000005646197ARCINUE, MARIA RIZALYN VENTINIL                          0501
A3801400170000000154185EVANGELISTA, BABY DAISY DBU                             10502
A3801400170000000154185R.D.E. BEAUTY CE                                        20500
A1401400110000014198633VILLAFLOR, JOEL DBU TAYABAS DEF                          0501
A0101407430503478374009HAIDEE F. LIM                                            0501
A0101403580000012314793MONDRAGON, MAMERTO ZAPATA                                0502
A0101408530000014027544DOMINGO, RENEROSE GUTIERREZ                              0501
A0101411790000014776697QUIAMBAO, ROSE MARIE OR                                 10501
A0101411790000014776697QUIAMBAO, PRISCILLA                                     20500
A0101403610000014748793ALMENDRALA, JOSEPH REYES                                 0501
B0101403610531036705002A.P.D. LEASING OF REAL PROPERTY                          1602
B0101404130000000001270GAME CRAFT, INC.                                         1602
A0101404130601237439001ANCHETA, MIRAFLOR PEREZ                                  0502
A0101407720602286255002**********                                               0502
A0101407720602396506002DR. ESTELA Z. CABRERA                                    0501
A0101407720602399810001DE LA CRUZ-ODI, MERLE FONTILLAS                          0502
A0101404260611156327002GAGAN, CIPRIANO CAPISONDA                                0501
A0101409920000014278874FAELGA, ANNE RHODORA GEPA                                0502
A0101407690000014738093LAGUNDIMAO, THERESA ANDRES                               0501
A0101407690652365792001DANCEL, KRISTINA OR VINCENT OR                          10502
A0101407690652365792001MARILYN GORRA                                           20500
A0101407690652478374140BEATRIZ MANIAGO - DEALERS OF                            10501
A0101407690652478374140SHOECAT INC                                             20500
A0101407690652478374145MA. ROUMELA LUISA MIJARES -                             10501
A0101407690652478374145DEALERS OF SHOEC                                        20500
A0101407690652525001056ENRIQUE, EMY SANTOS - DEALERS                           10501
A0101407690652525001056OF SHOECAT INC.                                         20500
A0101413440000002125348**********                                               0501
A0101413440000000570278SANTOS, MARY JOCELYN OR                                 10501
A0101413440000000570278SANTOS, NOEL                                            20500
A0101414120000001142852TERESITA M. PUYAT OR MARY ANN                           10505
A0101414120000001142852MAGNO                                                   20500
A0101406590662419004001CASAS, CATALINO ASIS                                     0503
B1301400210000005040817ROSSEN LENDING CORPORATION                               1610
A1701400230693478374015FERNANDEZ, FEMA L.                                       0501
A0101408240711405662001ARTURO B. DUMAUP                                         0502
A2801400230000009022166CAMORONGAN, LORENA MANALAD                               0501
A4101400260000010623560SABANDO, MELANIE T. DBU VAUGHN                          10504
A4101400260000010623560KYRIE ENTERPRISES                                       20500
A4101400260000003679943TAN, ANGELINA                                            0501
A4101400390813292154001ANGELO C. MOLATO OR                                     10502
A4101400390813292154001MARIE LYN R. MOLATO                                     20500
B4101400390813821100608**********                                               2010
A4101400420814520766110DELA CRUZ, ARMINDA E.                                    0501
A4101400550000014767470SANTOSIDAD, M DBU EARTH & STYLE                         10501
A4101400550000014767470BUILDERS AND CONST.SUPPLY                               20500
B4101400550815045371001MAROWILL APARTMENT                                       1601
B0101404840000006365477SOUTH CARE COSMETICS MFG. INC.                           1603
A0101404840851478374038EVANGELINE UMALI                                         0502
A0101406750000009472142ANGELES, IRENE MALLARI                                   0502
B0101406750000007097238PRIMA CASA LAND & HOUSES INC.                            1605
A0101413860000010529887DIOKNO, CAROLYNNE BUNYI                                  0501
A0101413860000011795927PAJO, FRED SAA                                           0503
