B0101400570281821100608**********                                               2005
B0101410720000000029850NORDHOFF ENTERPRISES INCORPORATED                        1601
B0101410720000000968163PROPERTY 101 INCORPORATED                                1603
A1101400120000003197175LAGRIMAS, DENNIS CILLO                                   0501
A0101409920000001951919MEMBERS OF NATASHA (SHOECAT INC                         10501
A0101409920000001951919ORTIZ, GINA H                                           20500
A0601400520000002270913MICLAT, IMELDA ANCHETA                                   0505
B0101413310000000040057REBAC CONST. AND DEV. CORP.                              1601
A3001400130230478374004BALABA, JANETH BORJA                                     0501
B1001400350233042236001**********                                               1601
B0101409470632821100608**********                                               2001
A4101400420814478374144JOCELYN TALANA                                           0501
A4101400420814520766027ARUTA, CORAZON G.                                        0501
A4101400420000002345308CABIL, GENIELYN                                          0501
A0101400860011409220002**********                                               0505
B0101400150000005015570FIRST DIGITAL FINANCE CORPORATION                        1603
A0101400150061226911001FLORA CECILIA SANTOS                                     0501
A0101400150061227112001PACITA G. LIM                                            0501
A0101400150061315349055DENNIS JOY EJERCITO                                      0501
A0101400150000000525211NGUYEN, HUYEN THI THANH                                  0501
A0601400100000005050333PEREGRINO, ARIEL PAMBID                                  0501
A0601400100081251941001MARCELINO ALAPAG OR                                     10502
A0601400100081251941001JASMINDA ALAPAG                                         20500
A0601400100081424085002ALAPAG, JASMINDA BRIONES OR                             10502
A0601400100081424085002SARMIENTO, FE SA                                        20500
A0601400100081590627001BASILIO, ADAMSON CUNANAN                                 0501
B0101410850109061834001RMM ACCOUNTING MANAGEMENT AND                           11601
B0101410850109061834001CONSULTANCY CO.                                         21600
A0101410850109554406001DELA CUESTA, ZHEENA CHOO                                 0501
A0101410560000005836035MELY A. DELMENDO                                         0501
A0101400730111195439001TAN, ROWENA                                              0501
A0101400730111386485063LYNETTE E. BENDANILLO                                    0501
A0101400730111562499001URIARTE, ELSIE GREMIO                                    0502
B0101400730111579627001RED PLANET HOTELS PHILIPPINES CORP.                      1605
A0101406040000002272460********                                                 0501
A0101412630000004062064BANZUELA, ELEANOR ADORNA                                 0502
A0101413310000004735757ENANO, MARIEL PINKY SERWELAS                             0503
A0101413310000001794614SARSUELO, SHAUN PAUL CASSIDY R.                          0501
B0101401830000000033581CARITAS SALVE CREDIT COOPERATIVE                        11602
B0101401830000000033581(BULACAN) 003                                           21600
A0101401830141366498001GRACE I. RIVERA-JACINTO, MD                              0501
A0101401830141378973001ALBINO S. JACINTO JR., M.D.                              0501
A0101401830141436200002BESITAN, FLUELLEN NOTAR                                  0501
A0101401830141444325004ROUTSON, ELIZA ATIENZA                                   0504
B7201400170000003773637MDSDOC CORPORATION                                       1601
A0101400440161478374010VIVIAN T. REGALARIO                                      0502
A0101400440161520766125FELY TUBELLO                                             0501
B0101407270000000830551POULTRYMAX OMNIS, INC.                                   1603
A0101407270162225350001GRACE Q. AGCAOILI                                        0501
A0101407270162587936002WILFRIDO G. TIRONA                                       0501
A0101401090000001618811KRYZLER BEVERAGES STATION                                0501
A0101401090171365357001JAMES B. RABAGO                                          0501
B0301400660000000022835DURABOARD PACKAGING CORP.                                1603
A0301400660000000475592*****                                                    0510
A0101410720000001602113PALAD, L DBU E.L. PALAD                                 10502
A0101410720000001602113CONTRUCTION                                             20500
A0101413600000001430551ARNEL T. TANAEL                                          0502
B0101413600215821100608**********                                               2002
B3101400160221061832001ZAKRAH INDUSTRIAL CONSTRUCTION AND                      11601
B3101400160221061832001DEV'T CORP.                                             21600
A3101400160221220150002ANGELITO LAZARO OR MARCIANO PUA                         10502
A3101400160221220150002OR LEONILO ERCIA                                        20500
A3101400870000000957940FARCON, JENYLYN REYES OR                                10501
A3101400870000000957940DE MATA, NENETTE                                        20500
A3101400870000007391337SAQUILABON, ERIC CUESTA AND                             10501
A3101400870000007391337SAQUILABON, CHERRY CLAIRE                               20500
A1001400350233478374020ELMA O. GAWAT                                            0501
A0101401670000007397371ALABANZA, EDDIE YOUNG AND                               10501
A0101401670000007397371RINO, QUEENIE M.A.                                      20500
A0101401670271194525001MIGUEL G. RIPOLL OR MICHAEL G.                          10501
A0101401670271194525001RIPOLL                                                  20500
A0101401670271491442001MARICHEL TORRES                                          0502
A0101406460000002330990********                                                 0502
B0101406620273047044001CAYLUM TRADING INSTITUTE INC.                            1605
B0101408660274047925001CNT PROMO AND ADS SPECIALISTS, INC.                      1620
A0101400570281347185001CATALINA P. BARON OR                                    10502
A0101400570281347185001MA. JOSEFINA SAW                                        20500
A0101411240000005136492CARRANCEJA, MARYBETH LUKBAN                              0503
A0501400200000005751668SALCEDO III, ERNESTO SNOOKY                             10502
A0501400200000005751668BAMBILLA                                                20500
A2601400270000002677547MILA R. VALDEZ                                           0502
A2601400270000001009050BATTAD, AURELIO DBU AUB CONSULT                         10501
A2601400270000001009050MGT&ENGINEERING SERVICES                                20500
B0801400160000002676806**********                                               1601
A0801400160311447288001MARIA FE EMILY DIVINAGRACIA OR                          10501
A0801400160311447288001LLANE GRACE DIVI                                        20500
A0801400160000002287556QUIMADO JR., NEMENCIO RODRIGO                            0502
A1101400120000000992394REYES, CRISTINA MARIE OCASLA                             0502
A1101400120000001547473LIM, DOROTHY DELL S. OR                                 10503
A1101400120000001547473LIM, RICHARD Y.                                         20500
A6601400120000000060751CARPIO, WILBERT DIANO DBU CTC                           10503
A6601400120000000060751CONSTRUCTION & SUPPLIES                                 20500
A6601400120314648197001PAJOTA, RUNETO OLMEDA                                    0503
A2901400130000006742265SALAZAR, ANN CONCEPCION                                  0502
A0101402350321526808001LUCITA R. TARRAY                                         0502
A0101402350321528563001SABANDO, JULIETA A.                                      0502
B0101405650322018681011LANDCO PACIFIC CORPORATION                               1601
B0101405650322018681012LANDCO PACIFIC CORPORATION                               1605
B0101405650322018681014LANDCO PACIFIC CORPORATION                               1605
A0101402510000003533060QUE, ALFREDO CHING                                       0502
A0101402510341165340001DACUDAO, JESUSA ROGADOR                                  0504
A0101402510341198131001PALO, RICARDO ROMERO                                     0502
A0101402510341400450001NG, SHERWIN JUAN                                         0501
B0101402060351046908001ORGANITEC LABORATORIES & SYSTEMS, INC.                   1602
A0101402060000000147613AGUIRRE, KITCHIE REBANCOS                                0502
A0201400760374294913001RODRIGUEZ, ANGEL SANTIAGO                                0502
B0201400760374507828001MANCAO, DAISY SUE KIMBERLY GO                           11601
B0201400760374507828001OR DEXTER RYAN M                                        21600
B0201401020000005109922RED CHERRY 'N SILVER TIPS CORP.                          1615
A0101408370382205140001DR. PAULA  A. ALONZO OR                                 10502
A0101408370382205140001DR. DANIEL M. ALONZO                                    20500
A0101408370382391723002FRITZIE C. CHUA                                          0501
A0101408370382593318001DRS. MICHAEL JOSEPH B. REYES OR                         10501
A0101408370382593318001SEIZAN MARIE E. REYES                                   20500
A0101408370382629554001JUMAWAN, JOHANNA BARGOLA                                 0501
A0101408790000002031492AGUILAR JR., ERNESTO VERONA                              0501
B0101408790383015892001CAPITOL STEEL CORPORATION                                1605
A0101402770000006812553MACASA, IKE CECIL FERNANDEZ DBU                         10510
A0101402770000006812553IMACS BUILDERS                                          20500
A0101402770391200888001ALIREZA K. LIBRE                                         0501
A0101402770391214496001FRANCISCO KUAN WONG OR                                  10505
A0101402770391214496001JOYAL KUAN WONG                                         20500
A0101402770391355762049WILLIAM DENIEGA                                          0503
A0101402770391383276018MICHAEL ADRIAN BORJA                                     0501
A0101408400394034391001INTEGRATED TELENET SOLUTIONS CO                          0502
B0101408400000000077872TECH-ASIA INDUSTRIAL ENTERPRISES                        11602
B0101408400000000077872CORP.                                                   21600
A0101408400394530015001CERAFICA, JOHN MENDIOLA                                  0501
A0101408950000004512150CASTILLO, JOSEFINO CORTEZ                                0502
A0101412210000003448673MONSALVE, MARIO CANLAS OR                               10503
A0101412210000003448673MONSALVE, MARIAN VANESSA                                20500
B2401400180411032703001TOYOTA GENERAL SANTOS INC.                               1610
A2401400180411478374027ELLEN PANTUJAN OR                                       10502
A2401400180411478374027ELMER PANTUJAN                                          20500
A2401400180000001676935GABRIEL, MARVIN RODRIGUEZ                                0502
A1201400150421397888001GO, BRIAN SY OR                                         10501
A1201400150421397888001GO, CYNDY SY                                            20500
A1201400150421606494001CALDERON, LORRAINE CHUIDIAN                              0505
B0101403030441339063003**********                                               1602
B0101412890000003727844SULHEN & TJJ CORPORATION                                 1602
B0101403320471039191001MAR-V-RITZ TRADING - BRANCH                              1603
A0101406330472035160001QUICKFIRE METAL FABRICATION                              0502
A0101410140000001074908MEMBERS OF NATASHA (SHOECAT INC                         10501
A0101410140000001074908PENA, DINA Y.                                           20500
A1901400320000002295918ENRIQUEZ, EDNA JARENO                                    0501
A1901400160491244286001CARLITO GO OR FELIE GO OR                               10505
A1901400160491244286001CARLEEN OR CHERY                                        20500
A1401400110000000132841*******                                                  0501
A0701400260000001804600VILLAMOR, LUCIANO FRANCISCO DBU                         10502
A0701400260000001804600VILUFRA AGRI SOLUTIONS                                  20500
A0101403580000002265523LUGTO, MARCELINO DELA CRUZ                               0501
A0101406880513492094001MALLARI, RYAN TURLA                                      0506
B0101408530000001275172PHILIPPINE BRITISH ASSURANCE CO., INC                    1615
A0101408530000000136110JAY SAN JUAN GARCIA                                      0501
A0101408530000003519420ETHEL A. HERRERA                                         0503
A0101411790000002276100SALAZAR, MARILYN DE DIOS                                 0501
B0101403450521021842005WALL VISION CORPORATION                                  1605
A0101403450521753734001TAN, BENJAMIN MASA                                       0503
B0101403610531046502001SAN PEDRO APOSTOL PARISH                                 1603
A2201400250561088535001CHRISTOPHER JORDAN L. CHUA                               0502
A2201400250561478374060MARIAN S. BANAAG                                        10501
A2201400250561478374060MEMBERS OF NATASHA                                      20500
A0101404130000001614433ESTRADA, JOHN VINCENT OCTAVIO                            0501
A0101404130601451645001MONTEBON, LYN RHONA F. OR                               10501
A0101404130601451645001CAPUCION, ERMA E                                        20500
A0101407720602161917001GOYLOS, LORENA CALVO                                     0501
A0101407720602332279002CAYCO, ANTONIO V. OR                                    10501
A0101407720602332279002CAYCO, MARGARITA                                        20500
A0101407720602397425001HENSON, MARIA THERESA GUEVARA                            0501
A0101409890649748239001**********                                               0508
A0101409920000000998558MEMBERS OF NATASHA (SHOECAT INC                         10501
A0101409920000000998558PASCUAL, GLORIA                                         20500
A0101409920000000998569MEMBERS OF NATASHA (SHOECAT INC                         10501
A0101409920000000998569PEDROSA, JULIE                                          20500
A0101411530000002260282ROJAS, GERALDINE ABESAMIS                                0501
B0101413990000000206113DRCB SQUARE CONSTRUCTION AND DEVELOPMENT                11602
B0101413990000000206113CORPORATION                                             21600
A0101406590662209733001PANGILINAN, ANTHONY N. OR                               10503
A0101406590662209733001PANGILINAN, MA. CECILIA                                 20500
A0101406590662594700001SISON, GERARD ANTHONY DE LEON                            0501
A0101410300000000191655VIRGILIO P. LABRADOR JR. AND                            10501
A0101410300000000191655RONIE A. SALEY                                          20500
A0101410300663745072001SANTOS, RENATO EMMANUEL BAUTIST                          0501
B1301400340683022873001MERFEL PLASTIC PRODUCTS                                  1602
B1301400500684061591001S.A DEL POSO TRADING                                     1602
B1301400500684593688001DEL POSO, SALVADOR A. OR                                11602
B1301400500684593688001DEL POSO, GLORIA                                        21600
A0101408240711390329001AGUILAR, ALDEN OR CECILIA                                0502
A0101408240711443671001CARMENCITA C. GUIAO                                      0501
A4101400260812246527001ISIDRO B. DELA CRUZ JR. OR                              10510
A4101400260812246527001LILIAN H. DELA CRUZ                                     20500
A4101400260000003679932ROSALIE D. BALAGTAS                                      0501
A4101400260000003679807JOAN DANTE                                               0501
A4101400390000001732736CLAVERIA III, DON VIVENCIO G                             0501
B4101400420814571500001TELDATA NETWORK & TECHNICAL SERVICE                      1601
A4101400420814759273001SALAZAR, GILBERT NAGUIT OR                              10501
A4101400420814759273001SALAZAR, TEODORA                                        20500
A4101400550000000315182MARGAJA, FELICITA BITOR                                  0502
A4101400550000007390710CO, ROXANNE STEPHANIE MANANSALA                          0501
A4101400550000007390772FOUAD KHALIL, MARIAM SHIEKA  ES                          0501
B4101400550000000900025ACADEMY FOR CHRISTIAN EDUCATION, IN                      1602
A4101400550815514042001LIM, AURORA TAN                                          0501
A0101412340000003344590MAR LYNDON Q. MATCHA                                     0501
B0101405070861008175001CO, MARIO- STUDIO LABORATORY                             1602
B0101413860000001768061TRAVELLERS INSURANCE & SURETY CORP.                      1605
A0601400230000005185833DUMAN-AG, MERCEDES MANUEL                                0501
