A1101400120000002254946MEJICA, SORIEL BARDIAGO                                  0502
A1101400120000001547268JADOC, MA. ARIELYN PALOGAN                               0501
B5501400120000007963424MARBEL UNIVERSAL TRADING, INC.                           1603
A0301400530000003573540GO, JOANNE LU OR XU, ZHIPEI                              0505
A0301400530193551185168QIU, YIYI                                                0502
B0101401380201821200608**********                                               2001
B0101409920650821200608**********                                               2001
B0101406590662821200608**********                                               2001
A4101400420814246372001ERIBERTO P. CABREZA OR                                  10501
A4101400420814246372001MARIETTA V. CABR                                        20500
A0101400150061337098192EVELYN LUSUAN                                            0501
A0101400150061337099134MELLY C. TAN                                             0501
B0301400790195066646001SKPHIL CORPORATION                                       1601
B1101400120313039184001SARC FOODS CORPORATION                                   1603
B1101400120000000652904COASTALVIEW FOODS CORPORATION                            1603
B5501400120000001121913PINGOY, ALBERT YUSAY DBU PUREWATER                       1603
B5501400120000002949757VALEENLAND REALTY CORPORATION DBU R                      1602
B5501400120000005492399DSSD FAMILY REALTY DEVELOPMENT CORP                      1610
A0101400860011397165002**********                                               0503
A0101400860011397246002**********                                               0503
A0101411370000002269412BRACAMONTE, JOSEPHINE ROMARAOG                          10501
A0101411370000002269412OR BRACAMONTE, CARLITO                                  20500
A0101411370000000903611RAMIREZ, MARISSA MARTINEZ                                0503
B0101400150061029759002A.M. SISON, JR. & PARTNERS LAW OFFICE                    1610
B0101400150061047820001TOYAMA INC.                                              1603
A0101400150061055752053BARTOLOME III, RICARDO MANALOTO                          0501
A0101400150061316369006ALEX LI                                                  0501
A0101400150061370228039LOURDES DEE                                              0501
A0101400150061564610128VICENTE N. BORJAL JR.,                                   0501
A0101405810000010278856**********                                               0502
A0101405810072236268001KENG, LOUELLA JOCELYN BARRETTO                           0501
A0601400520000002086051FRANCISCO, MARRY ANN RAMIREZ                             0503
A0101413280000000312643CARLOS R. ATAYDE OR                                     10501
A0101413280000000312643CARMEN M. ATAYDE                                        20500
B0101413280092821200608**********                                               2001
A0101410850109060688001FELY BACULIO TRUCKING SERVICES,                         10505
A0101410850109060688001INC.                                                    20500
A0101410850109061716001MONTEMAYOR JR., T DBU PRINCESS                          10501
A0101410850109061716001HANNAH TRUCKING                                         20500
A0101410850109075882001DIONISIO, SUSANA REYES                                   0502
A0101400730111574027001BERNARDO, FRANCIS ROBERT SANTOS                          0510
A0101401960121569490001************                                             0502
A0101413310000002317933MACALINTAL, CHRISTOPHER                                 10502
A0101413310000002317933DELA CRUZ                                               20500
A0101413310000005433392SIA, HENRY DELA CRUZ                                     0503
A7201400170000000040575ELCAMEL, BELEN PEDROZA                                   0502
A7201400170000003774210HORTELANO, SATURN BACOLOD                                0501
A0101400440000003671743ARGANOZA II, JOMYR CALUGAY                               0502
A0101400440000000821196JETHRO JEWELRY SHOP                                      0501
A0101400440161582425001JENNIE C. ARGANOZA OR                                   10501
A0101400440161582425001JOMYR C. ARGONOZ                                        20500
A0101407270000004915919NAPOLEON P. MALING OR                                   10501
A0101407270000004915919LUZ Z. MALING                                           20500
A0101401090171196085001DR. IVAN OR JANE MARIE                                  10505
A0101401090171196085001VILLESPIN                                               20500
A0101401090000005320234KHO, SJOBERG A. OR KHO, JOSIE N                          0504
A0301400530000001009943PANTUA, JERSON R.                                        0501
A0301400530193696379001MALDO, MAE AMOR C.                                       0501
B0101401380201034271004LC BUILDERS AND DEVELOPERS, INC.                         1604
A0101410720000006239803CAUDAL, MA. THERESA MATA                                 0510
A3101400160221220343001LAARNI A. CALAPATIA                                      0502
A3101400870000000957677FLORES, R DBU COLOURBLINDS                              10502
A3101400870000000957677INTERIOR PRODUCT                                        20500
A3001400130000001261249BANJAO, JENELYN LARA                                     0501
A1001400190000005709082ONG, CHARO VEDUA OR                                     10502
A1001400190000005709082ONG, KELLY ACHAS                                        20500
A1001400190231520766112ALIBIO, NELYBETH TACBOBO                                 0501
A1001400190000002170747CABILAO, LORENA BINGCOLADO                               0501
B1001400350000000017187LIMKETKAI SONS, INC.                                     1601
B0101406460272043498001MEDECOR PHILIPPINES, INC.                                1601
A0101406620273075498001MONTIEL, CYNTHIA RITA TIQUE                              0501
A0101406620273420925001NAING, MILBOON TRINIDAD                                  0501
A0101406620273471129001TAN, APRIL LYNN LEE                                      0503
A0101410980000000533759TIOSIC, RUSTICA TANSENGCO                                0502
A2601400270000009497863LOPEZ, ROCHELLE ANNE C. OR                              10501
A2601400270000009497863CABACCAN, MARK ANTHONY C.                               20500
B0801400160311046688002HI-GRADE LIQUID OXYGEN CORP.                             1605
A0801400160311478374103INAYAN, MERLINDA GUARDAMANO                              0501
B1101400120000000652442GICABAO, KATHLEEN JOY NG OR                             11603
B1101400120000000652442GICABAO, BONGKOK                                        21600
B2001400290000002406720DY, LOREEN LAO AND YAO, MARIANNE SY                      1601
A0101405650000006893389MACATULA, JOEL OCHOA                                     0501
A0101405650322795081001VICENTE OR TERESITA VALDEZ OR                           10501
A0101405650322795081001VALDEZ JR., VICENTE                                     20500
A0101402510000000049318********                                                 0502
A0101402510341196566001LUZVIMINDA G. CRUZ                                       0501
A0101402510341199103001CORAZON D. HUANG                                         0502
A0101402510341199103002********                                                 0502
A0101402060000005137337ESPINA, MARY ROSE SUMBILLO                              10506
A0101402060000005137337OR ESPINA, RENE                                         20500
B0201400890000005491363ECC SCHOOL OF GLOBAL COMMUNICATION                       1602
A0101408370382319789001ROCHELA B. CUAYCONG OR                                  10502
A0101408370382319789001CESAR A. CUAYCONG                                       20500
A0101408370382416284001DR. BERNARDITA O. POLICARPIO OR                         10502
A0101408370382416284001DR. REUBEN D. POLICARPIO                                20500
A0101408370382447964001EIZMENDI JR., FRANCISCO CUERVO                          10501
A0101408370382447964001EIZMENDI, AURORA FULE                                   20500
A0101408790000001486353AQUINO, MERVIN P. OR AQUINO,                            10501
A0101408790000001486353MARICAR E.                                              20500
A0101411660000010282550BASILAN, EUGENIO MANALO                                  0501
B0101411660000005434782G-MAX ENVIRONMENTAL SOLUTIONS INC.                       1603
A0101415350000005028831DE CHAVEZ, MEDARDO DBU                                  10502
A0101415350000005028831MERDEC ENTERPRIS                                        20500
A0101408400000001855416EBRON, ANA LEA SADIA                                     0501
A0101408400000004959577H-LINK BUSINESS CONSULTANCY                              0502
A0101408400394028886002DEC ORIENTAL FOOD STREET CO. LT                          0504
B0101408400000003120521GILIGAN'S ISLAND BAGUIO, INC.                            1602
A0101408400394717440001RICANA, IVONNE PEDRAGOZA                                 0502
B0101408950000006424893PALLCARE INC.                                            1602
B0101409180000000036644THE TABLE GROUP, INC.                                    1610
A0101412210000002714570SANCHEZ, CHRISTIAN PAYSON                                0501
A0301400820000001554894ESTREMOS, VERONICA T.                                    0503
A0301400820000006542685MIER, JUNALYN R.                                         0501
A0301400820000006542776ORTEGA, CHRISTOPHER G.                                   0502
A5501400120000005492253CIRINEO, LILA MARIE LITERAL                              0505
A5501400120410622095001CORDER, JAIMELITA OR EDWIN                               0502
A5501400120410636179118CHIU, VALENTIN & JULIA EILEEN                           10503
A5501400120410636179118& CHRISTIAN & CH                                        20500
A5501400120410670077001DOMINGO, SOLOMON SAPONGAY                                0503
A1201400150000006155040ZAMBRANO, IMELDA COL COLI                                0502
A1201400150000006253681HUANG, ZHENZHI                                           0505
A0101403320471065525002VINOYA DBU KBV DATA PROCESSING                          10501
A0101403320471065525002AND RESEARCH SERVICES                                   20500
A0101410140000000499065MORDIDO, LYN ROBELLES                                    0502
A0101410140475478374010PELAEZ, BEATRIZ GUEVARRA                                 0501
B1901400160491046052001BANAPRA DEVELOPMENT COOPERATIVE                          1603
A1601400170000002333962AGUILAR, MARIVIC JADIE                                   0504
A0101407430503464629001EMERLITA T. SISON                                        0501
A0101403580511156549003MARIO BISCOCHO                                           0501
A0101408530000010282743AMIL, RIAVEY DE OCAMPO                                   0501
A0101408530000010282787BAUTISTA, AIDA DIANA  DELA CRUZ                          0501
A0101408530000010282801MENDOZA, JANELYN GORGONIO                                0501
A0101408530000010282834PENUS, LINA ROSE SARAVIA                                 0501
A0101408530000010282856SANTOS, MARIEL SANDRA TAPIA                              0501
A0101408530000010282878FIGURACION, ROMENA BAYANI                                0501
A0101408530000010282889CALABIG, APRIL CUSE                                      0501
A0101411790518055764107DABU, EDDA RECATO                                        0501
A0101403450000001637896********                                                 0501
B0101403450521011898001**********                                               1605
B0101403450521504300001TAN, GREGORIO CHUA                                       1602
A0101403610000007124821ALVAREZ, PETER JUDE TERCERO                              0501
A2201400250561297004045ANNA LIZA L. BAYBAY                                      0501
A2201400250000004916092DE GUZMAN, FRANCES MANIALONG                             0501
A0101407720000003886802OLIVAREZ, MA. CELESTE JACOBE                             0501
B0101407720000000885667VIRTUPAK, INC.                                           1601
A0101407720602271723141RODRIGO T. TILOS                                         0501
A0101407720602396960001GANZON, DOMINGO ESTEBAN                                  0505
B0101404260000004781266RD PAWNSHOP, INCORPORATED                                1603
A0101404260611416131001ORA, ROMEO FOLLOSCO OR                                  10501
A0101404260611416131001JOSEFINA                                                20500
A0101404260611555480003LARGO, JULITA MERCED                                     0501
A0101404260611635256001ABELLA, EDUARDO JUAN FAUSTINO                            0506
A0101409920650478374004DADULA, IRENE INES FAVOR                                10501
A0101409920650478374004MEMBERS OF NATASHA                                      20500
A0101407690000005197964******                                                   0501
B0101413570000007212951WIPE EVERY TEAR, INC.                                    1601
A0101406590662363449001LA VINA, ANGELINA SAN JUAN                               0501
A1301400210000005040522DELOS SANTOS, CAMILO STA MARIA                           0503
A1301400210000005040577**********                                               0501
A1301400210682478374027MARY ANN M. DE LEON                                      0502
A1301400340000005264995DEL ROSARIO, RUSSEL FRANCISCO                            0502
B1301400340683353482001MARLENE R. JOSE OR JOSE MARI R. JOSE                     1602
A4101400260000001783593PARAS, MARIA LOREINE MONTARIAL                           0501
A4101400420814418225001LOPEZ, ROSALINA OR                                      10502
A4101400420814418225001LOPEZ JR., RODRIGO                                      20500
A4101400420814744380001BARLAS, MONALIZA GOLIPARDO                               0501
B4101400550815821200608**********                                               2001
A0101412340000003341175RICHARD C. BECHAIDA                                      0501
A0101412340000010218127GABRIEL S. SALCEDO                                       0501
A0101412340000002266884MARGELETTE B. BAUTISTA                                   0504
A0101412340000009405061MARY EILEEN J. ARCEO                                     0501
A0101412340000007305520ROWENA P. GONZALES                                       0502
A0101404840000004565931PABLO, R DBU UBEE LOGISTICS                              0503
A0101404840851520766058JOLARIE ANN DECENA                                       0501
A0101404840851520766155JOSEFINA VERGARA                                         0501
A0101406750852296707001SAMSON D. HECITA OR                                     10502
A0101406750852296707001JOSEPHINE R. HECITA                                     20500
A0101406750852478374115CRISENCIA S BATACANDULO                                  0502
A0101406750852478374117IDA MACARO                                               0501
A0101405070861478374066ELMER LADRES APAS                                        0501
A0101413860862062881001BAUTISTA, LAIZA CUREG DBU RCBM                          10502
A0101413860862062881001MOTOR REPAIR SHO                                        20500
A0601400230891390768002FATIMA OR ARISTOTLE CANLAS                               0501
A0601400230891698269001DIMABUYU, LESLIE BALUYUT                                 0501
