A3001400130000001271312SHAPE & WELL NUTRITIONAL                                10501
A3001400130000001271312PRODUCTS                                                20500
A3001400130230767566002JUMAPAO, MARILYN CASTRO                                  0501
A0101413860000000858948DELA TORRE, ANTONIO CARDONA                              0501
A0601400520000002086028IMPACT BALIBAGO ARTS & CRAFTS                            0503
A0101412630000001823274TURINGAN, MARIA ELENA LASAFIN                            0503
A1001400350000000922190RIVERA, JACKIE LOU VILLAROYA                             0502
B1001400350233039624001ORO LZT MARKETING ENTERPRISES, INC.                      1604
A1001400350233478374006IBANEZ, ELSA                                             0501
B0101406620273010537001SOROPTIMIST INTERNATIONAL                               11601
B0101406620273010537001OF MANDALUYONG                                          21600
A0101412890000001056575UDOG, MA GINA SAN PEDRO                                  0504
A0101412890000001765404ACUNA, SALVADOR A OR ACUNA,                             10506
A0101412890000001765404ALONA C                                                 20500
A0101412890000000007514RICO T RIVERA DBU WISEMIX                               10502
A0101412890000000007514CONSTRUCTION SUPPLY                                     20500
A0101412890000000371599MARITA CHU OR BONIFACIO CHU                             10503
A0101412890000000371599DBU COBO PAVILLI                                        20500
A0101412890470057311001MENESES, M DBU DAYNNY                                   10502
A0101412890470057311001ENTERPRISES                                             20500
A0101410690000000710694TAN, DENNIS LI                                           0501
A0101404260000001725479VILLAMOR, EDMUND RAMOS                                   0501
A4101400550000000315062SUSON, STEVEN OGABANG                                    0501
A4101400550000001622662VERANO, GRACE BAYONA                                     0501
B0101400860011375355001***********                                              1601
A0101400860011449713001**********                                               0502
A0101400860011663274001**********                                               0502
A0101400150000004850904SEVILLANO, DANILO MENDOZA                                0501
B0101400150061010962002PHILIPPINE WELDING SOCIETY INC.                          1604
B0101400150061022773001GREEN CHAIR CREATIVE SOLUTIONS CO.                       1603
B0101400150061047585001888 ETHNIC HOME FURNISHING CORP.                         1606
B0101405810072042730001**********                                               1603
B0101405810072412798001**********                                               1603
B0601400100081034790001SHINMEI CREDIT AND LOANS CORP.                           1602
B0601400100081253610002NG, WILFREDO M. AND AQUINO, JANET B. AND                11601
B0601400100081253610002BUAN, ROLAND S.                                         21600
A0601400360000000978903SERRANO, NATHANIEL EDOQUE                                0502
B0601400520000001706970RECENO, R DBU RECENO MARKETING AND                       1602
A0101413730000000469147PROLINE PLASTIC CO.                                      0503
B0101410850000001229852SWM SHIPMANAGEMENT INC.                                  1602
A0101410560000001291043MELVIN G. BESINGA                                        0501
A0101400730000001822293*******                                                  0503
A0101400730111386485042ELENA B. PEREZ                                           0502
A0101401960121357972001**********                                               0502
A0101401960121357972001**********                                               0501
A0101401960121569490001************                                             0502
B0101401960121608874001******                                                   1602
A0101413150000003868286*******                                                  0502
A0101412630000000801410NAVARRO, MARC ANGELES                                    0501
B0101401830141037520001DLPRO PHOTOGRAPHY                                        1601
A7201400170000003772918TAN, ROSITA LUY OR TAN, MELANIE                         10502
A7201400170000003772918LUY OR TAN, MICHAEL LUY                                 20500
A0101407270000003254260CHERYL C. SOLANGON                                       0502
A0101407270162333154014RONALDO DE LEON                                          0502
A0101407270162333301001AILEEN T. TEMPLONUEVO                                    0501
A0101401090171195810001LUIS M. FERRER                                           0502
A0301400660194725413001ALTAMIRANO JR., RAFAEL CLEMENTE                          0502
B0101401380201006932003PITSTOP, INC.                                            1602
A0101413600000001430620JULIO CESAR R. AGUILUZ                                   0501
B0101413600000002822671AUNICAJ INTERNATIONAL TRADING                           11604
B0101413600000002822671CORPORATION                                             21600
A1001400190231036837001RTD MARKETING                                            0505
A1001400190231478374067DAGANATO, NICANORA BALOS                                 0501
A1001400350233532089001MARIO T. JUNI OR RUTH S. JUNI                            0505
A1001400480000000133371BINUAG, MARGARET MANGALLAB                               0501
A1001400480000000606819TAN, LYDIA OR TAN, OLIVER                                0505
B1001400480000003357840BALDADO, MARIA LYDIA PEPITO DBU JOMARI                  11601
B1001400480000003357840TRUCKING SERVICE                                        21600
A1901400290000002337782REYNALDO JOVES GARCIA                                    0501
B1901400290000001363188RD PAWNSHOP, INCORPORATED                                1603
B1901400290000001363199RD PAWNSHOP, INCORPORATED                                1603
A1901400290000001975277SAMARITA, SOFRONIO DOLOR DBU                            10505
A1901400290000001975277SHOLLEN CONSTRUCTION                                    20500
A1901400290261247727001LEVITA LINATOC RAGO OR                                  10502
A1901400290261247727001RODEL TACLA LINATOC                                     20500
A1901400290261390520001JOEL PUNZALAN DIMAANO                                    0502
A0101406460000001231430**************                                           0504
A0101406620273360841003ASUNCION, ALEXANDER GOMEZ                                0505
A0101406620273405307001ZAMUDIO, EDWARD ROCA                                     0501
B0101406620273545544001SUMMIT TEAM WELLNESS CORP.                               1601
A0101400570281296123001BANARES, MYRNA N. OR                                    10503
A0101400570281296123001BANARES, LEOPOLD                                        20500
A0101400570281509995001RELUCIO, IMELDA DYAUCO                                   0501
A0501400200292622096001BAUTISTA, SIMEON LAGASCA                                 0501
A2601400270000000084360CRISTINA L. CENDANA                                      0501
A1101400120313478374099SALAS, ERIKA GALAROSA                                    0501
A3401400280000002323433AZARRAGA, KATHERINE VILLAR                               0501
A3401400280000001723382BENLIRO, ALFIE TIANCHON                                  0501
B0101405650322043032001LEAN MANAGEMENT AND PEOPLE SOLUTION                      1601
A0101402510341196700001GO, MILDRED BAYOTAS                                      0501
A0101409050000002971384RESULLAR, ALLEN CURAY                                    0501
B0201400920000000047885VEL-OUANO REALTY, INC.                                   1601
B0101402930381022284001INVESTORS ASSURANCE CORPORATION                          1601
A0101402930381206511001*****                                                    0512
A0101402930381569104001********                                                 0502
B0101408790383762480001JDB PHILIPPINES INC.                                     1605
A0101402770000002267121RIVERA, JOHNNY CONTRERAS                                 0501
A0101408400394047545001JOHNMAYSUZANNE FASHION                                  10503
A0101408400394047545001COLLECTION                                              20500
B0101408950396037899001NOLSEN CONSTRUCTION & TRADING                            1602
A0101409180000003780136LEVI VELASCO                                             0502
A0101409180000003780158MALIG, JAY LOREN CRUZ                                    0501
A0101409180000003780227MIDELYN ORCHID G. MAIGUE                                 0502
A0101409180000003780238SIGGAOAT, RHODORA MAE                                    0502
A0101409180000003780261MARK CYNEL P. CRUZ                                       0501
A0101409180000003780272MARILYN GATHERCOLE                                       0502
A0101409180000003780283LABAGUIS, MICAELA                                        0503
A0101409180000003780318LORENZO L. ARCA JR.                                      0501
A0101409180000003780329OLIVER V. GUEVARRA                                       0501
A0101409180000003780381VICENCIO, AMY ROSE                                       0501
A0101409180000003780432GODRICK MEDINA                                           0502
A0101409180000003780450MARICEL JOSON                                            0501
A0101409180000003780472MADISON CORRALES                                         0503
A0101409180000003780494PERCIVAL DENNIS PENALOSA                                 0502
A0101409180000003780523MARIA OFELIA CAYAS                                       0501
A0101409180000003780541RUDI JASON ASINAS                                        0502
A0101409180000003780574LANI S. HERNANDEZ                                        0502
A0101409180000003780654MANSUETA B. REYES                                        0501
A0101409180000003780687FRANCHETTE BERNADETTE UMALI                              0502
A0101409180000003780698AILEEN GRACE S. CAALIM                                   0501
A0101409180000003780723AARON GLENN B. YU                                        0501
A0101409180000003780734MADONNA VILLANUEVA                                       0501
B0101409210000002783300EASTERN RIZAL JALAJALA R.B. HOLDINGS INC                 1620
A0301400820000001185791****                                                     0501
A2401400180000002284164MALUBAY, JERMIN MEJIA                                    0501
A2401400180000002146390MERCADO, JOSELITO GONZALES                               0505
A2401400180411478374061JUNRES AGAD OR                                          10501
A2401400180411478374061NORMELITA BLANCO                                        20500
B1201400150421020245001BAGUIO BUS LINE ASSOCIATION, INC.                        1601
A1201400150000001863312LAO, IMELDA DBU LINDI HOTEL                              0501
A1201400150421464835001*****                                                    0501
A1201400150421485874001FLORES, CHIARA MAE FAROL OR                             10502
A1201400150421485874001FLORES, GLENLIEL                                        20500
A1201400150421606494001CALDERON, LORRAINE CHUIDIAN                              0505
A0901400220432093658001LYDIA L. RAMIREZ OR                                     10503
A0901400220432093658001MARIA LEILANI R. YEO                                    20500
A0101403030441658787001**********                                               0503
A0101412890000002747857ROBLES, ROBBY SANTOS  OR                                10502
A0101412890000002747857JOHN CARLO ROBLES                                       20500
A0101403320000001646653RAGSAC, RICHARD ADOLF PAYUAN                             0501
A0101403320000001647058TAN, MA LUISA LUZ                                        0501
A0101403320000001803452LANAZA, NOIME REBADULLA                                  0501
A0101403320000001646766EROSA TRADING                                            0501
A0101403320471478374055BENITO OR REYZEL ESLABA                                  0502
A0101403320000001646777MYRNA M. CRISOSTOMO                                      0501
A0101403320000001803021BERNADETTE F. BAUTISTA                                   0501
A0101403320471483816002FRESHNAIDA D. VERSOZA                                    0502
B0101410140000000038931FRONTGUARD SECURITY SERVICES CORP.                       1610
B1901400320000000041301FIRST INNER TRADE CREDIT CORPORATION                     1610
B3801400170000000955131VIC IMPERIAL APPLIANCE CORPORATION                       1602
A1901400160491635678001MARIVIC ATIENZA CANTES                                   0501
B1601400170000000497132LAWRENCE ANGELO P. SENDIN AND SIMEON P.                 11601
B1601400170000000497132MUNOZ III                                               21600
B1601400170000000497121LEGASPI HOPE CHRISTIAN SCHOOL, INC.                      1605
A1601400170000000036473BENITA A. CALLEJA                                        0501
A1601400170000000036473BENITA A. CALLEJA                                        0501
A0701400260000001804451BERINA, MELVIN CELOS OR                                 10501
A0701400260000001804451BARCELO, NORMILYN                                       20500
A0101407430503375315003LILIAN LIZA C. MACATO                                    0501
A0101407430503705718001JAY-ANNE S. ABCEDE                                       0501
A0101406880000000027158ABELLO, JULIUS IVAN SAGMAKIN                             0502
B0101406880513036413001VISAYA KNOWLEDGE PROCESS OUTSOURCING                     1604
B0101406880000000027227METROGUARD SECURITY SERVICES INC.                        1602
A0101406880513351519001PACENCIA C. SIERDA                                       0501
A0101406880513566209001ABDON, CARLO                                             0501
A0101406880513618947001HUKOM, SHERYLL JOY ROQUE OR                             10502
A0101406880513618947001HUKOM, EMERICO M                                        20500
A0101408530516635897001MARIA TERESA M. CHAN-CASTILLO                           10502
A0101408530516635897001OR VICENTE G. CASTILLO                                  20500
A0101403450521239776001**********                                               0501
A0101404000000001187020TADENA III, ISIDRO RICARDO FLOR                          0501
A2201400250000003558190EDWIN S. ESPIRITU OR ANNA                               10501
A2201400250000003558190JESSICA S. ESPIRITU                                     20500
A2201400250000001932305PAMINTUAN, BENIGNO CUNANAN                              10501
A2201400250000001932305DBU GTP ENTERPRISE                                      20500
A0101407720602453904001ROSAS, NOEL LANETE                                       0502
B0101407690652044546002GLB PLUMBING AND FIRE PROTECTION SYSTEM                  1601
A0101407690000000913859CASTILLO, MANDRICK DBU THINKING                         10501
A0101407690000000913859MASTER DUPLICATOR SRVCS &                               20500
A0101407690652089748001VILLAFLORES, MICHAEL BAYLOSIS                            0503
A0101407690652298552010ANGELINA CANETE - DEALERS OF                            10502
A0101407690652298552010SHOECAT INC.                                            20500
A0101407690652674006001FLORENTIN, LUINELL PAEZ                                  0501
A0101407690652715181001GALAMITON, ROXANNE GANANCIAL                             0501
A0101407690000000243810PAGUIO, ANA CARDENAS                                     0502
A0101406590662057939001VALERIO, IAN DBU I.A.G. VALERIO                         10501
A0101406590662057939001RAMEN HOUSE                                             20500
A1301400210000000540765LHARA DG MERCADO                                         0501
A1301400210682047656001DADSON ENTERPRISES PUMPS                                10505
A1301400210682047656001& WELL DRILLING                                         20500
A1301400210682170443001NERISSA B. SANTOS OR                                    10502
A1301400210682170443001  ARTEMIO SANTOS                                        20500
A2801400100712019694001LUNTIAN LANDSCAPING AND GENERAL                         10502
A2801400100712019694001SERVICES                                                20500
B4101400260812039799001LAGAMAYO DENTAL CORPORATION                              1602
A4101400260812478374058DHIESEL M. SAULOG                                        0502
A4101400390000000034073NELLA O. MERCADO                                         0501
A4101400550000003839316ESCARO, MARIA LOURDES MAGSOMBOL                          0501
B4101400550815821100608**********                                               2003
A0101404840000002327915ALBA, HONEYLYNE MABBORANG                                0502
B0101404840000000090202JOY PLANET INC.                                          1603
B0101404840000001312241FUNHOUSES CORPORATION                                    1603
A0101406750852292958001VARONA, ALICIA PEREZ                                     0501
A0101406750852478374106LETICIA P ALCAIDE                                        0502
A0101405070000000414753SACAYAN, RUDOLPH CASTRO                                  0502
B0101405070861008408001CLINICOMED                                               1605
A0101413860000001233681LEE, SAMUEL UY                                           0504
B0101413860000000145275CON-PAC WAREHOUSING INCORPORATED                         1605
