B0301400530193014206001PANABO MULTI-PURPOSE COOPERATIVE                         1604
A2001400290315641654001LOZANO, PALMA JANE LIMPIADO                              0501
A0101405490000000232511MICHSJA MOPET MAY C. FELIX                               0502
B0101412890000000006920J.C. RODRIGUEZ CONSTRUCTION CORPORATION                  1602
B0101400150061018245001PERLA COMPANIA DE SEGUROS, INC.                          1601
A0101400150061039916160RAMIREZ, MA. ROSARIO OR                                 10501
A0101400150061039916160RAMIREZ, CASSIUS                                        20500
A0101400150000000000022FORTU, ANNE LORRAINE FESALBONI                           0502
A0101400600071295528002********                                                 0502
A0601400100081518167001BASA, GOMER PANLILIO                                     0501
A0601400360000000025681CHUA, EVELYN ALVAREZ                                     0501
B0101413730104821100608**********                                               2002
A0101410560000001291032VILLACIETE, DAHLIA SAPE                                  0501
B0101400730111015420002FELANER REALTY DEVELOPMENT CORPORATION                   1606
B0101400730111033923001QUICKLEND PHILIPPINES INC.                               1605
A0101400730000001016500CRISTINA A. DIAZ                                         0503
A0101406040000000096979********                                                 0502
B0101401960121238876001**********                                               1601
A0101401960121327478001AIDA MEDEL                                              10502
A0101401960121327478001OR ROD MEDEL                                            20500
A0101401960121464343001**********                                               0502
A0101412630000004938029LINTAG, MA. MELODY CRUZ                                  0510
B0101412630132058121001STRATEGIC GLOBAL SOLUTIONS CONTACT                       1601
A5001400170000001003381CALIMUTAN, OHARA DELA CERNA OR                          10501
A5001400170000001003381CALIMUTAN, REGINALDO G.                                 20500
A5001400170000000170181REMATE, ALMA JOY MALON                                   0502
B5001400170000000169880WEE, VERNA L. AND PONCE, RECILMA N. AND                 11602
B5001400170000000169880RAMOS, CATHERINE                                        21600
A0101400440000001439885OBEDOZA, RODRIGO AGNES                                   0501
A0101400440000002249652MACOLOR, LINA AGANAN                                     0501
B0101400440161027962002CASAYRA CORPORATION                                      1601
A0101400440161039572010MYRNA A. CANELAS                                         0501
A0101400440000002035041MARIA GEVELA CARDINOZA                                   0501
A0101400440000002035165EMERITA I. DIOQUINO                                      0502
B0101400440000000337762SUPREME COMMANDER INVESTIGATION AND                     11605
B0101400440000000337762SECURITY AGENCY                                         21600
B0101400440000000337791TOPCOM SECURITY AGENCY INC.                              1605
B0101400440000000337808COMMANDER AUTOMATION & ELECTRONIC                       11605
B0101400440000000337808SECURITY SYS INC                                        21600
A0101400440161520766153VIRGILIA C. SIEGA                                        0501
A0101401090171196109001ANGELES A. UNTALAN                                       0501
A0101401090171197582002ALBERTO P. PAULINO JR.                                   0501
B0301400530193038620001RD CASH PADALA, INC. - TAGUM                             1602
B0301400660000000195215COUNTRYSIDE PRODUCT MANUFACTURING VENTUR                11603
B0301400660000000195215ES, INC.                                                21600
A0301400790000002301331SORROCHE, RONALD JAY UY                                  0501
A0301400950000002975068**********                                               0501
A0101401380000001819985FABILA JR., VICTORINO ESPIRITU                           0501
B3101400160221024274002STA. CECILIA BUSINESS CENTER                             1601
A3101400160221478374062LANI R PEREZ                                             0501
A3101400160221775869001TAKESHI MISUMI                                           0502
B3101400450223040091001YAKAP AT HALIK MULTI-PURPOSE COOPERATIVE                 1603
A3001400130000001271312SHAPE & WELL NUTRITIONAL                                10501
A3001400130000001271312PRODUCTS                                                20500
A3001400130230094974001BRAVO, ROSEPT EBARLE                                     0503
A3001400130230478374004BALABA, JANETH BORJA                                     0501
A3001400130230767566002JUMAPAO, MARILYN CASTRO                                  0501
A1901400290000001917313NEONEVA PIAD MAGTAAS                                     0502
A1901400290261048991001DRA EDELWISSA ILAGAN GUTIERREZ                           0501
A1901400290000001975404MARANAN, MERCEDITA DBU REYMER                           10502
A1901400290000001975404DIGITAL PHOTOGRAPHY                                     20500
A1901400290261078910001THOR VICTOR DIZON KORIONOFF                              0501
A1901400290261193220001JOSEPHINE YU TAN                                         0501
A1901400290261244348001ROLANDO M REYES OR                                      10502
A1901400290261244348001DRA. ERLINDA V REYES                                    20500
A1901400290261488341084DRA LILIA M BANAAG                                       0501
A1901400290261532003001ALMA A REMO                                              0502
A1901400290261717650001MYLENE SUBIA SILVA                                       0502
A0101406620000001686655JATAP, JESUS JOHN UY                                     0501
A0101406620273314677002ANGEL, GEORGE G. OR                                     10501
A0101406620273314677002AGUILA, GLENDA M.                                       20500
A0101400570281200175001MARLENE M. GONZALES                                      0501
A0501400200000000473836******                                                   0501
A2601400270000003259545YUMANG, CHRISTINA DBU JAN PAOLA                         10501
A2601400270000003259545CONSTUCTION & GEN MDSE                                  20500
A0801400160311380582001CHUA, ANDREW UY OR                                      10501
A0801400160311380582001CHUA, PAMELA G.                                         20500
A0101402350321179521001FELLIZAR, CESAR OR EMILIA OR                            10503
A0101402350321179521001ABUDA, MICHELLE                                         20500
A0101405650000001912107NAOE, PATRICIA ORONAN                                    0502
A0101405650322084139001PRECILLA, MARIA ADORACION GABIN                          0501
A0101405650322345025001GASGONIA, DONNA ZAPA                                     0501
A0101402060351032636001ELP AMERICAN WHEELCHAIR STORE                            0501
B0201400760000001612904TAMIYA CHUO PHILIPPINES, INC.                            1601
A0201400760374681548001ESPINA, RIA LIDIA GELAGA                                 0501
B0201400920375743969001*********                                                1602
B0201401020000000470211DULCINEA SUITES AND HOTEL                                1601
A0101408790000002326165CHOI, CHANG MOO                                          0502
B0101408790383039290001AUTO SOURCES INC.                                        1605
A0101402770391211301002TENG MU KUNG                                             0503
A0101408400394425228001CRUZ, CONRADO JIMENO                                     0502
A0101408400394566645001SIMON, SUSAN BABOL                                       0501
A0101408950396084409001ALETA, LARA THERESA ALENTAJAN                            0502
B2401400180411039574001ROS JETTI STATION                                        1601
B2401400180411057100001L.H.E. CONSTRUCTION & INDUSTRIAL                        11604
B2401400180411057100001SERVICES, INC.                                          21600
A2401400180411478374047YOLANDA L. NINGAL                                        0501
A2401400180411577534001LASOLA, EDITHA RIVERAL OR                               10502
A2401400180411577534001LASOLA, ROGELIO                                         20500
A2401400180000000019890TAN, JOSEPHINE TIONGSON                                  0501
B0101403030441327386001**********                                               1603
B0101403320000001647230AMALGAMATED INVESTMENT BANCORP.                          1610
B0101403320471027450002********                                                 1601
B0101403320471041653001CRYSTAL DREAMS DEVELOPMENT CORPORATION                   1604
A0101403320471478374053*************                                            0501
A0101403320471505013001RIVERA, REYNALDO MANALAC                                 0501
B0101406330472009779001DORADO'S GENERAL CONTRACTOR CORP.                        1605
A0101406330000001235272VHANZ HARDWARE                                           0501
B0101406330472441865001HALTBAR INDUSTRIES, INC.                                 1602
A0101406330472478374053NOEL P. MOJICA OR                                       10502
A0101406330472478374053JOCELYN P. MOJICA                                       20500
A0101406330000000451216MARIBEL P. ZAFE OR                                      10502
A0101406330000000451216NOEL B. ZAFE                                            20500
B0101407430503036580001KOBUS INC.                                               1601
A0101403580000000016042EUGENE M. MANALO                                         0502
A0101403580000002265625PAGADUAN, QUINTIN RINGOR                                 0502
A0101406880000001286580URBANO, MARY ROSE ZUNIGA DBU HA                          0504
A0101408530000001268571ANGELO L. REYES                                          0501
B0101403450521305942001**********                                               1601
A0101403610531219282001ALMENDRALA, FERNANDO GERODIAS                           10505
A0101403610531219282001OR ALMENDRALA, PAULINA                                  20500
A0101404000000004802204MARY JANE C WALKER                                       0501
B0101404000551023227001DZL ENTERPRISES                                          1605
A0101404000551489983001DE LEON, JOCELYN FOO                                     0502
B0101404130601027716001PHILIPPINE CHAMBER OF ARRASTRE AND                      11602
B0101404130601027716001STEVEDORING                                             21600
A0101407720602165558001PAGTANAC-PAGUNTALAN, ROSARIO                             0503
A0101404260611005236004WILTRON ELECTRONICS                                      0502
A0101409890649300585001LI, ELVIRA FRANCISCO                                     0502
A0101409920000000118625DILE, BEBERLYN MUNEZ                                     0501
B0101409920650617803001ZAMORA, EVELYN MIRAL                                     1601
A0101413570656057648243GINA B. SANTOS                                           0502
A1301400340683367953001FELLO, ROSEMARIE RODIL OR                               10502
A1301400340683367953001FELLO, BISMARK C                                        20500
A1701400230693510832001DUQUEZ, ROBERTO AQUINO                                   0503
B0101408240711027476003PARTY KITCHEN CATERING SERVICES                          1601
B0101408240000000832702FORTUNE DWELLING BUILDERS AND                           11601
B0101408240000000832702DEVELOPMENT                                             21600
A0101408240000000521720RICAFRENTE, MA. ANALYN DELFIN                            0501
A4101400260000001198610RAPISTA, JOHNNY A. OR                                   10503
A4101400260000001198610RAPISTA, PROCENT                                        20500
A4101400260000000002120LUCIANO, MARIA PAZ GOMEZ                                 0502
A4101400390813470914001AZIS, ARMELA MERIADO OR HADJI                           10508
A4101400390813470914001AZIS JR., SAILAN                                        20500
A4101400420814520766034LEONIDA M. OBELIDOR                                      0501
A4101400420814520766118ADOC, MYLEN A.                                           0501
A4101400420814520766138SAN PEDRO, ANA LIZA                                      0501
A4101400550000000315182MARGAJA, FELICITA BITOR                                  0501
A4101400550815730023001PUTI, ELIZABETH SOTTO                                    0501
A4101400550815737397001PIQUERO, EMILY FERNANDO                                  0501
A0101412340000003341517ALFRED REY P. CAHIGAS                                    0501
A0101412340000003719540EM-EM V. SANCHEZ                                         0501
B0101412340000002879943ROSET CONCIERGE SERVICES INC.                            1602
A0101404840000000085107JELLA M. GERONIMO                                        0502
A0101404840851478374171LORENA A. ARES                                           0501
B0101406750852023612001LAS PINAS CITY MEDICAL CENTER, INC.                      1610
A0101406750852361074001BARTOLOME, JAIME OR BARTOLOME,                          10501
A0101406750852361074001JOSEPHINE OR JOANNE                                     20500
A0101406750000002040066GUIYAB, MA. ELENA ONCHER                                 0501
A0601400230000000186867SAPNU, D DBU D.L.S.J GLASS ALUM                          0501
