B0101404840851821100608**********                                               2005
A0201400920000002804480MIRANDA, SAMMY                                           0502
A0201400920000000048020DONG JUAN CENTRAL CORPORATION                            0501
B0201400920375047524001CUBAROL, VILMA SARMIENTO DBU                            11603
B0201400920375047524001NEW FRONTIER LOG                                        21600
B0201400920375792681001TOTAL SHIELD SECURITY SPECIALISTS                        1601
B0101405650322022799002FUEGO LAND CORPORATION                                   1603
B0101405650322038688002LANDCO/ALC                                               1603
A0101405650322350126001SABADO, MILAGROS SEBASTIAN                               0505
B0101402930381009093001PHILIPPINE ASSOCIATION OF COLLEGES AND                  11610
B0101402930381009093001UNIVERSITIES                                            21600
A0101412890000001765539BONGALOS, MA. THERESA S. OR                             10501
A0101412890000001765539ADRIAN LINDON Q.                                        20500
A4101400420814635620001CORPUZ, ELMER AGSALDA  OR                               10501
A4101400420814635620001CORPUZ, AMELITA                                         20500
A0101400860000002262528**********                                               0503
B0101400860011375200002**********                                               1603
A0101400860011388241003**********                                               0503
A0101400860011397246002**********                                               0503
A0101400860011435365001**********                                               0505
A0101400860011479962001**********                                               0502
A0101401250021184677001WENCESLAO B. TRINIDAD OR                                10506
A0101401250021184677001NELFA D. TRINIDA                                        20500
A0101400150000002394669TAN, MA. PATRICIA NUGUID                                 0502
A0101400150000004915220FRANCO, ESTELITA FLORES                                  0501
B0101400150061032087002CGF ACADEMY OF LEARNING & LEADERSHIP INC                 1603
B0101400150000000052662PEG SOUTH EAST ASIA, INC.                                1620
A0601400100081401956001AQUINO, ANA MARIE DIMATULAC                              0501
A0601400520000002086017CLARETE, REGIN BUNGQUE                                   0501
B06014005200000009867416ANCHEZ MANUCUM & CO. CERTIFIED PUBLIC                  11605
B0601400520000000986741ACCOUNTANTS                                             21600
A0101400730111370569001MANABAT, DANILO MORALES OR                              10501
A0101400730111370569001ARLENE MANABAT                                          20500
A0101413150000003208175******                                                   0502
A0101413150000003868297******                                                   0502
A0101412630000000180389MARQUEZ, MA. ELIZA LIMCOLIOC                             0501
B0101412630132058436001SPACE EDSA CORPORATION                                   1601
A0101413310000001928981ACOSTA, JOY SEMANA                                       0501
A0101401830000003647381ABENDANO, EDWIN CIRERA                                   0502
A0101401830000000865050URGINO, MARIA CARMENCITA                                10501
A0101401830000000865050GATCHALIAN                                              20500
A0101400440161520766185FLORA S. CHUA                                            0501
A0101400440161525001103OFELIA B. OLERMO                                         0501
A0101401090000001618639MA. LOURDES C. MEDINA OR                                10501
A0101401090000001618639CESAR A. MEDINA                                         20500
A0301400530000002318481PALMA, JUNE CRIS MEDIOS                                  0501
B0301400530193035726167TAGUM PIONEER FOODS CORP. - 1                            1605
B0301400530000000025378D' UNIBUENAS CORPORATION                                 1603
A0301400530193697653001PACE, MELYN T. AND                                      10505
A0301400530193697653001EUGENIO, EMILIA                                         20500
A0301400660194047387001*****                                                    0505
A0101401380000001412606CAIRME, GINA BAGSIK                                      0501
B0101413020000000038388ASISI SYSTEM CORP.                                       1603
A3101400160221419880001ROWENA B. SUN                                            0502
A3101400160221533269001JOSE P. SANTIAGO JR.                                     0501
A3101400450223028468001NEW ARMSTRONG SECURITY AGENCY                            0502
A3101400450223222902001PENALOZA, JAN ALBERT DE ROMA                             0501
A3101400450223702062001BALBUENA, BENIZON BIRON                                  0501
A3101400740000005111533BARRERA, JENNELY ORQUILLANO                              0501
B1001400190231057237001HMG PRIME BUILDERS DEVELOPMENT CORP                      1602
A1001400190000000016468NERI, JENNY RACAZA                                       0501
A0101406620273720692001******                                                   0502
B0101408660274047999001JMV FISHER CORPORATION                                   1601
B0101408660274611722001RUGGED MANAGEMENT SALES & INDUSTRIAL INC                 1601
A0101400570000001681949SUN, BRYAN HERMOSA                                       0501
A0501400200000002306105MAXIMO, PERLA MENDOZA                                    0501
A2601400270000000561966NELIA A. CORTEZ OR MARVIN T.                            10501
A2601400270000000561966CORTEZ                                                  20500
A2601400270000000561988ROSALINDA S. ORDONEZ                                     0501
B1101400120000000652926BUSINESS FRONTIER CORPORATION                            1601
A0101402350321180302001EFREN S. BORDADOR OR                                    10502
A0101402350321180302001JOCELYN Y. BORDA                                        20500
B0101402060351030802001PACIFIC RESINS INC.                                      1605
A0101402060351217440011FLORDELIZA PANGANIBAN                                    0501
A0101409050000002333364ARAW, BELINDA SARFATI                                    0503
B0101409050000000258462THE NEW REEDLEY INTERNATIONAL SCHOO                      1602
B0201400760374038778001CPERC                                                    1602
B0201400920375031185001MOBEL HAUS PHILIPPINES, INC.                             1605
B0201400920375041285001VIRLO CONSTRUCTION DEV. CORP.                            1610
A0201401020000000056357SALA, JUBELEN MANSING                                    0501
A0101402930381209432003JOSELYN T. PEREZ OR                                     10510
A0101402930381209432003EXEQUIELITO PEREZ                                       20500
A0101405490000001092524MA ANASTACIA S. DELA MERCED OR                          10502
A0101405490000001092524RAYMOND ANTHONY DAYLEG                                  20500
A0101405490000003178432MIRIAM D. PANO OR MELANIO B.                            10502
A0101405490000003178432PANO JR.                                                20500
B0101405490392034314001RAEMANN CORPORATION                                      1602
B0101405490392037215001CORNERSTONECONSTRUCTION CORPORATION                      1602
A0101408400394033625002IVAN COMPUTER SYSTEM                                     0506
A0101408400394162577001REYES, ELSA UNGSOD                                       0503
A0101408400000001035476ODOYA, CONCHITA ESTACA                                   0502
A0101408400394478374028ELMA T. BAGA AN                                          0502
A0101408400394508446002BILIGAN, CHARLENE LASCO                                  0505
A0101408950000003171202LIM, CHAUNCEY KESTER LAO                                 0501
A0301400820000002272033ASARAK, YASIR A.                                         0501
B2401400180411037037001GENSAN FEEDMILL, INC                                     1605
A2401400180411478374035MERLINDA D. TAMUDTAMUD                                   0501
A2401400180000001935913PERALES, EVARISTO TAN                                    0501
A2401400180411549938001SALANIO, ISIDRO DIANGCO OR                              10501
A2401400180411549938001SALANIO, CATHERINE                                      20500
A2401400180411577534001LASOLA, EDITHA RIVERAL OR                               10502
A2401400180411577534001LASOLA, ROGELIO                                         20500
A2401400180411625023001PROVIDO, JULIET MAHINAY                                  0502
A2401400180411683511001AGUINALDO, BARBETTE BALABA OR                           10501
A2401400180411683511001AGUINALDO, ARNOL                                        20500
A0901400220000000888002**********                                               0505
A0101403030000000008831**********                                               0501
A0701400260000001069701MAGTUTO, RENATO VILLAFUERTE                              0501
B0101406880513040116002GREENMILES TRANSPORT SERVICES CO.                        1602
A0101406880513565496018HERNANDEZ, RODELIO FARAON                                0501
A0101408110515041358001MADE IN HEAVEN ENTERPRISE                                0501
A0101408530516042413001DENTAPRIME DENTAL SERVICES                               0505
B0101403450521011658001**********                                               1605
B0101403450521042526001HOPE CHRISTIAN HIGH SCHOOL, INC.                         1605
B0101403450521078888003PUREGOLD PRICE CLUB, INC.                                1620
A0101403610000001450828ANDES, EDNA MASAYDA                                      0501
B0101404130601019971002GENERAL MILLING CORPORATION                              1601
B0101404130000000696260ASSIST AND ASSISTANCE CONCEPT INC.                       1602
B0101407720602531007002BAJA MEXICAN CANTINA CORPORATION                         1601
A0101404260000001725515NORA B. VALENCIA                                         0502
A0101409890000000437449**********                                               0501
A0101413440000000570223LABSAN, CARMEN DELA CRUZ                                 0502
A0101413440000002339528MACATLANG JR., RODRIGO C.                                0502
A0101406590662455518001ESTRADA, RAFAEL G.                                      10505
A0101406590662455518001OR REUBEN ENRIQUE                                       20500
A0101406590000000035481EVELYN D. MASCARINAS                                     0502
A0101410300000000026508TAGLE, E DBU E.S. TAGLE TRADING                          0502
A1301400210000000540936JOCELYN S APOSTOL                                        0501
A1301400340683776169001BARAQUIEL, JOCELYN LIM                                   0502
B0101408240000000832484RTI SYSTEM AUTOMATION, INC.                              1612
A0101408240711381561003MARY TERESITA M. DE JOYA                                 0503
B0101408240711458793001RICHETEC INC.                                            1612
B2801400100712258102002DE PESTERS PEST MGNT CONSULTANT BY:                     11603
B2801400100712258102002NAPOLEON CAMBA                                          21600
A4101400260812292364001AMELIA C. VIDALLON                                       0501
A4101400260812566504001GERRY W. ROJAS                                           0501
A4101400550815478374008LORELYN C. PARCIA                                        0502
A0101404840000000683443EVELYN FRIAS                                             0501
A0101404840851478374115ERLINDA O. PRADO                                         0501
A0101404840851520766180CARMELITA M. BARBACENA                                   0501
B0101406750000000480955AUTOCIRCULO CORP.                                        1603
B0101406750000000480966AUTOCIRCULO CORP.                                        1603
B0101406750000000480977AUTOCIRCULO CORP.                                        1603
A0101406750000002040339DELA CRUZ, HANNAH SANTOS DBU PA                          0502
