F0101409890000000049125DCINEMA ALLIANCE CORP.                                   2603CKR
F1801400130151048758001MSU-IIT NMPC PALA-O ILIGAN BR.                           2602CKR
F0101408400394034371002W GROUP, INC.                                            2605CKR
F4101400260812022293003JOMIJOH'S BAKESHOP INC.                                  2601CKO
F4101400260812033409002NEW DASMA GOLD BAKE INC.                                 2601CKO
F0101404680651297826002LIM,YOLANDA OR CABIGON, MELISSA                         12605CKR
F0101404680651297826002OR LANGCAY, SHIE                                        22600CKR
