B0101410720653035012001GENERIC SAVES DRUGSTORE                                  1604
A0101410720653565189001VICTO, BERNARD KING QUIJANO                              0504
A0101410720000000882782**********                                               0505
B0101405940512025099002COMTHEX, INC.                                            1603
A3001400130000005446340BALANGA, MARIO FERNANDEZ                                 0501
A3001400130000001261249BANJAO, JENELYN LARA                                     0501
A4101400420814281659001MORALES, LALAINE DIATO                                   0501
A4101400420000001063785RAMIREZ, JEREME                                          0501
A0301400530193037469001SONRISE COOPERATIVE                                      0501
A0101408370382027935001MCBEAVKAT ENTERPRISES                                    0501
A0101408370382409089001DR. ELIZZA S. SENSENG OR                                10502
A0101408370382409089001IMMANUEL DOMINIC SENSENG                                20500
A0101408370382434379001DR. LOURDES JOSEPHINE                                   10502
A0101408370382434379001ANGLIONGTO-RAMOS                                        20500
A0101400860000000100830**********                                               0502
A0101401250000004969213BAGNOL, NORA ABACAHIN                                    0502
A0101400150000003322443RICHARD B. VILLANUEVA                                    0502
B0101400150061038596001CENTURY PEAK ENERGY CORPORATION                          1605
A0101400150061227441001ERNESTO T. ECHAUZ                                        0503
B0101400150061284390001UPTREND STRATEGIC SERVICES, INC.                         1601
A0601400520000005001363LIWANAG, SHELLEY SANTOS                                  0502
B0101410560000000757251MERCADO GENERAL HOSPITAL, INC.                           1603
B0101410560000000757200MERCADO AMBULATORY AND SURGICAL                         11603
B0101410560000000757200CENTERS, INC.                                           21600
B0101406040112033244001PATIO VICTORIA CORPORATION                               1605
B0101401960121035534001CHEE PUCK REFRIGERATION INC.                             1605
A0101412630000000909826VILLEGAS, MARISA DUMAGAT                                 0502
B7201400170000003773648LAFFICO MPC - BULANIT BRANCH                             1604
B0101400440000000337773VIENNA PORCELANA PHILS. INC.                             1620
A0101400440161549463001SONIA D. CARAG                                           0501
B0101400440161821200608**********                                               2002
A0101407270162062086001ALVARADO DBU AALVARADO-MARKET                           10501
A0101407270162062086001COMMUNICATORS MARKETING                                 20500
A0101407270162331908032LIZA LEAH JUINIO                                         0502
B0101401090171041259001THOMASIAN HEART SPECIALIST ALUMNI                       11602
B0101401090171041259001ASSOCIATION,INC.                                        21600
A0101401090171330568001FELICIDAD G. PERENA                                      0501
A0101401090171679816001GRACIA MARIA P. PIMENTEL                                 0502
B0301400530193062030001YEE MART, INCORPORATED                                   1601
A0301400790000001010693BACALI, JOVI TINGSON OR                                 10503
A0301400790000001010693BACALI, KRYSMAE                                         20500
A0101410720000000234860AROMIN JR., BENJAMIN DOMO OR                            10502
A0101410720000000234860AROMIN, MARISSA                                         20500
A0101410720000004626380**********                                               0501
A0101410720653240354001ONG CHIONG, WILLIAM C. OR                               10501
A0101410720653240354001ONG CHIONG, JULI                                        20500
A0101410720000007017358OCAMPO, FRANCISCO C.                                    10501
A0101410720000007017358OR OCAMPO, IMELDA E.                                    20500
A0101410720653624279001FLORES, LEANDRO PAUL BELTRAN                             0501
A0101413600000005354850CYNTHIA S. PERALTA                                       0503
A3101400160221041646001FLA-BELL TRUCKING SERVICES                               0505
A3101400160221386295002ROBERT J. BANATIN                                        0502
A3101400160221478374027ERNESTINA S. VILLANUEVA                                  0501
A1001400190231478374067DAGANATO, NICANORA BALOS                                 0501
A1301400470000003270471MARIA CELINA DJ. SIMON                                   0501
A1301400470000001299210A.V. PAWAY ENTERPRISES                                   0501
B0101406620273022260001CROWN SYNERGY TRADING CORP.                              1608
B0101406620273031852001EDGE INTERLINKS CORPORATION                              1603
A0101412470000000026811VALENCIANO JR., ALBINO G.                                0502
A0101400570281740687001ANA LIZA L. ONG OR                                      10501
A0101400570281740687001IGNACIO B. ONG                                          20500
A2601400270000002312174JONATHAN U. CORPUZ                                       0501
A6601400120000002978012RONDINA, RACHED PIAMONTE                                 0501
A6601400120000001065383ALEXANDER SY OR RITA NILA CHY                            0503
A3401400280000003493776CRUZ, CONRADO CRUZ                                       0502
A3401400280000004958574JR FORMILLEZA DBU AMAZING DISCO                         10502
A3401400280000004958574VERIES TRAVEL AND TOURS                                 20500
A0101402350321179570001EPHRAIM NEAL C. ORTEZA OR                               10501
A0101402350321179570001IMELDA L. OLIVAREZ-ORTEZA                               20500
A0101405650000003893476TAMBUNTING, JOSEPH SUAREZ OR                            10502
A0101405650000003893476TAMBUNTING, IAN DOMINIC                                 20500
A0101402510341397178001RUTH JAVIER REYES                                        0501
A0101402060351043801001EMICOR MARKETING                                         0501
A0101402060351211701004MA. DOLORES DANNUG                                       0503
A0101402060351464138001SALAZAR, CHRISTINE ANN DELA CRU                          0501
A0201400920375524523001MIEL, PRINCESITA OR MIEL, ALEX                           0502
A0201400890000007546872**************                                           0501
B0101402930381008829002AXEIA DEVELOPMENT CORP.                                  1615
A0101408370000002264159FRANCISCO, MICHAEL CARPINA  OR                          10502
A0101408370000002264159TAGAYUNA, MARIA                                         20500
A0101408370382205133001DR. ROWENA P. RIVERA OR                                 10503
A0101408370382205133001REBECCA P. RIVER                                        20500
A0101411660000005324061LIMOS, CONSUELO DOCTOR                                   0503
B0101402770391044158001VLF WOOD VENEERS                                         1602
A0101408400000005286211VITO, LOUIE NANDRO MAGNO                                 0502
B0101408400000001258599PASAY ULTRASOUND AND PERINATAL SVC.                      1602
A0101408400394163404001PILI, JUANITO AROLFO                                     0501
A0101408400394166249001LACAMBACAL JR., MARIANO R.                               0505
A0101408950396658407001GREGORIO ARTEMIO L. INCIONG OR                          10501
A0101408950396658407001JESUS FERNANDO B                                        20500
A0301400820000001185780RUFEROS, ROY KENNETH OR                                 10501
A0301400820000001185780AREVALO, MICHELLE KAY                                   20500
A0301400820000005196790NARCISO JR., AGUSTIN OR                                 10502
A0301400820000005196790NARCISO, SHIRLEY                                        20500
A5501400120000002949622SANDIG, EDGARDO REYES                                    0501
A2401400180000005286973FONTANILLA, MA. LISA BETITA                              0502
B1201400150421013242002NORTH QUAD CREDIT CORPORATION                            1601
A0901400220000000012324SPECIALIST MOTORCYCLE PARTS &                           10506
A0901400220000000012324ACCESSORIES, INC.                                       20500
B0901400220432750068001NOCOM, JOSELITO GABRIEL                                  1601
A0101403030441338826001********************                                     0510
A0101406330472214807001EMELDA P. LINDAYAG                                       0501
A0101406330472329066002ANTONIO S. DE GUZMAN                                     0508
A0101406330472513598001JOSEPH T. MAMUAD OR                                     10501
A0101406330472513598001MARY AUBREY R. MAMUAD                                   20500
A0101406330472573379001POI HOK SY                                               0501
A0101410140000007294757AURELLANO, DBU WARGODS ARENA                            10505
A0101410140000007294757INTERNET CAFE                                           20500
A0501400170481046585002ANG, JUSSLYNN DBU                                       10501
A0501400170481046585002AVS DISTRIBUTION                                        20500
A0501400170481255325008ARZADON, VOLTAIRE PORSOVIGAN                             0501
A0501400170481329536001PERLA C. ROMERO OR                                      10501
A0501400170481329536001BIENVENIDO S ROM                                        20500
B1401400110000000167457SUPER MAK FOOD CORPORATION                               1610
A1401400110492220854002DIHIANSAN, SAMUEL OR DIHIANSAN,                         10501
A1401400110492220854002CHRISTINE                                               20500
A1601400170000000421241LEGAZPI ISUZU CENTER                                     0504
A0101407430000003193439MARK JHON O. ALMASE                                      0501
A0101407430000000446702ESTRELLA, DHALYN M. DBU                                 10503
A0101407430000000446702VALON MARKETING                                         20500
B0101407430000006027812LAN ASTUTE LOGISTICS, INC.                               1605
B0101403580511005591001PUHUNAN INC.                                             1603
B0101403580511005607002RAM FOOD PRODUCTS, INC.                                  1605
B0101403580000000214731MILLENNIUM ERECTORS CORPORATION - NORTH                 11605
B0101403580000000214731RESIDENCES                                              21600
B0101403580511015363083MILLENNIUM ERECTORS CORPORATION                          1610
A0101403580000000016082SWEET BELLA DESSERTS                                     0508
A0101403580511387392001VASHI BALANI OR HARSHA BALANI                            0503
B0101406880513005447001THE TREZZA GROUP INC.                                    1606
B0101406880000001286391NUTRECO TRADING CORPORATION                              1601
A0101408110000001823821LORENZO, DOMINADOR MELCHOR DBU                          10502
A0101408110000001823821DMLORENZO BUILDERS                                      20500
A0101411400000005330023EBBAH, CZARINA ALEGRE                                    0502
A0101411790518055764307PILLAS, MAJESTY AQUINO                                   0501
B0101403450521012171001**********                                               1602
A0101403450521367887001**********                                               0501
A0101404000000001187053GARCIA, MARISTELA GARCIA                                 0501
A2201400250561383886001WILFREDO D. TOLDANES                                    10501
A2201400250561383886001OR ROWENA O. TOLdanes                                   20500
A0101410690000004969895ALDER ALLEN V NASSER                                     0501
B0101410690000001284395ALDANA, MA. ELENA M. DBU PANSOL TRADING                  1604
B0101404130601024227001AQUATREAT ENVIRONMENTAL SYSTEMS INC                      1604
B0101404130601100142001FOOD INDUSTRIES, INC.                                    1603
A0101407720602334203001RAFAEL G. GRANDE                                         0502
A0101407720602342044001DR. DARWIN ALBERT DASIG                                  0501
A0101407720602397567001EGAY, LYDIA MORALES                                      0501
A0101407720602397743001NAZARETH, STEPHEN MAGSINO                                0505
A0101407720602398542002DR. ROBERT DENNIS J. GARCIA                              0502
B0101409890649046783001**********                                               1601
A0101407690000000495409MOLAO JR., EDWIN PLANG                                   0501
A0101407690000002348832ALUNDAY, TERESITA AREVALO                                0501
A0101407690000005198023MUNCAL III, NICANOR ROYONG                               0502
B0101407690000003767891IDESCO CONSTRUCTION AND DEVELOPMENT CORP                 1602
A0101407690652089739001CRISELLE CAMILLE T. BRIONES                              0501
A0101407690652648224001LLADONES, ESTRELLITA REYES                               0501
A0101407690652741995001ESTACIO JR., FELIPE ADONA                                0503
B1301400340000000982076AMADEO, CIELITO FAUSTINO DBU C.FAUSTINO                 11601
B1301400340000000982076BUILDERS                                                21600
A1301400340683456739001LAZATIN JR., EDUARDO NIONES                              0501
B0101408240711008390001TRANSLIFT SHIP MANAGEMENT, INC.                          1610
A0101408240000002821872SANTILLAN, ENYA GABOR                                    0504
A2801400100712255396001VITT O GUTIERREZ OR                                     10502
A2801400100712255396001MARY ANN GUTIERR                                        20500
A2801400100712401674002DEL ROSARIO, DANILO LARACAS                              0501
A2801400230713045955001LITTLE SCISSORS UNISEX SALON                            10501
A2801400230713045955001(RONNIE B. RUIZ)                                        20500
A4101400420814559384001RIBOT, NORMA GAJE                                        0501
A0101412340000006046880JON ROGER D. CENAS                                       0501
A0101412340000004869816BERNADETTE S. HIDALGO                                    0502
A0101404840000004565953RODULFO, CLARIVEL M.                                     0501
A0101404840851217637018EDNA M. FAGARA                                           0501
A0101404840851520766066CYNTHIA A HERMEDILLA                                     0502
A0101406750000004642017GUERRA, JOSEPH ANGELO TOLOSA                            10502
A0101406750000004642017OR MARILOU TOLOSA                                       20500
A0101406750000001491823VILLA-CUTAMORA, SHERRILYN DBU                           10503
A0101406750000001491823DENTAL HAVEN REHAB AND DE                               20500
A0101405070861197518001RICARDO G. CHAN OR                                      10505
A0101405070861197518001OLIMPIA C. CHAN                                         20500
