F0301400110191423860118CO, JAMES LUI                                            2603CKR
F0101407140213026129001ECE PHARMACEUTICALS, INC.                                2604CKR
F3101400450223342877002RILI, ERWIN DALE OR FLORIDA                              2515CKO
F0101406620000003497074AMERICAN E-DISCOVERY RESOURCES,                          2605CK1
F0301400240401025953008ECE MARKETING                                            2606CKR
F3101400580452217787005**********                                               2502CKO
F0101406880513029228001PMPI CREATIVE SUITES                                     2601CKO
