B0101402480331821100608**********                                               2010
A1001400350233576675002LEGASPI, ECILIETO AMARGA OR                             10503
A1001400350233576675002LEGASPI, VIRGINI                                        20500
A3001400130000000931271MAJA, RODEL FIEL                                         0501
A3001400130000002063474ANTIPASADO, ROMELITO ALISOSO OR                         10505
A3001400130000002063474ANTIPASADO, ANGELA MINOZA                               20500
B1001400190000000016311AREA FCL CARGO LOGISTICS, INC.                           1601
A1001400190231520766112ALIBIO, NELYBETH TACBOBO                                 0501
A1001400190000001057589NORMALIS C. REYES                                        0501
A2601400270000000561966NELIA A. CORTEZ OR MARVIN T.                            10501
A2601400270000000561966CORTEZ                                                  20500
B0501400170481025398002****                                                     1602
A0101404260000003498420LABRADOR, ROGELIO DBU PRL METAL                          0502
A0101409920000000118625DILE, BEBERLYN MUNEZ                                     0501
A0101409920000001951840MEMBERS OF NATASHA (SHOECAT INC                         10501
A0101409920000001951840RAMOS, MARILYN                                          20500
A0101400860000002262539PAYABYAB, ROGER SALVADOR                                 0502
A0101400860011452750001**********                                               0501
A0101400150000002902752FISCHER, JANICE TUMAMBING                                0501
B0101400150000000000124WORLD AVIATION CORPORATION                               1603
B0101400150000001708312CIP II POWER CORPORATION                                 1601
A0101400150061228038001MANUEL C. CHAN                                           0501
A0101400150061292057001GIDEON G. SISON                                          0503
B0101405810072027398002JSG PREMIER REAL ESTATE, INC.                            1601
B0101405810072046264001TOPWELL PLASTIC PROCESSING CO.                           1601
A0101405810000001021172PUA, C DBU MCK SCHOOL & OFFICE                          10502
A0101405810000001021172SUPPLIES                                                20500
A0101405810072367320001**********                                               0506
A0101405810072385132001***********                                              0502
A0601400100000005050151NICDAO, SUNSHINE SUAREZ                                  0502
B0601400100000000142214SIMON AND STANDLEY INTERNATIONAL TRADING                11605
B0601400100000000142214& DEVT CO, INC.                                         21600
A0601400520000002085963CANLAPAN, ARNOLD OR CANLAPAN                            10510
A0601400520000002085963REBECCA                                                 20500
A0101410850109046512001*****                                                    0501
A0101400730111520766015MARISA C RAMOS                                           0501
A0101406040000003332954NERVES, JOSE ROLITO NAPA DBU                            10501
A0101406040000003332954JRN GENERAL MERCHANDIZE                                 20500
A0101401830000002274400TIRAO, ANDREA DE VERA OR                                10501
A0101401830000002274400TIRAO, FRANCISCA FERRER                                 20500
A0101400440000004901520ROUILLIER, NERISSA ESCONDE                               0501
A0101400440161039572032IAN PAUL A. PADILLA                                      0502
A0101407270162333003374MARIA MELANIE ANTIPORDA                                  0501
A0101407270162353067001JULIUS CAESAR C. BABAO                                   0503
A0101401090171306787002MYRNA A. PUNZALAN                                        0501
A0101401090171500760001ERIC B. ZERRUDO                                          0502
B0301400530000001409741ROBLES, EDDIE DBU VICTORIA CONSTRUCTION                 11601
B0301400530000001409741CELEDONIA ROBLES                                        21600
B0301400660194044769038LUMINOUS DEVELOPMENT CORPORATION                         1605
B0301400660000002348541YPARRAGUIRRE, E DBU ERVY LOGISTICS                       1601
A0101401380201497560001MONSOD, MELCHOR ROMERO                                   0503
A0101410720000001602299MARIANO, NORANIA ABEDIN                                  0501
A0101410720000000967882LAZER SILKSCREEN PRINTING                                0502
A0101410720653528817001VINCENT GONZALO SY OR TIMOTHY                           10502
A0101410720653528817001JON SY OR JULIE                                         20500
A0101410720000001602153*****                                                    0501
B0101413600000002822711IDESIGN CONSTRUCTION AND TRADING CO                      1603
A3101400160221059314001THE SHEPHERD'S VINEYARD                                 10501
A3101400160221059314001MANPOWER RES. & GEN. SVCS                               20500
A1001400190231520766051NANCY DAAYATA                                            0501
A1001400190231520766119CABANO, BERNADITH CATIWALAAN                             0502
A1001400190000000124876JENNY CALDERON                                           0501
A0101401670271186351003BONITA L. DABU OR                                       10501
A0101401670271186351003LUCILA S. CLEMENTE                                      20500
B0101406620273026509001DG3 IDOCS, INC.                                          1602
B0101406620000000194085MERCHANT EXPRESS E-CARD SERVICES IN                      1605
A0101406620273075498001MONTIEL, CYNTHIA RITA TIQUE                              0501
B0101406620273349902001*******************                                      1602
A0101400570000000031814TYLER-BOOM ENTERTAINMENT                                 0501
A0101400570281385805001MARIA ELENA T. LAGNITON                                  0503
A2601400270302591563001ROSITA R. CHE                                            0501
B0801400160311014376002PENBANK, INC.(A PRIVATE DEVELOPMENT BANK                 1602
A0801400160311267104001SAN JOSE, BERMUNDO E.                                    0501
A6601400120000001370490GALIT, VERNIE GAZO DBU RVG                              10501
A6601400120000001370490DIGITAL PRINTING                                        20500
B0101402350321434411001JOMANIQ COMMERCIAL AND DEVELOPMENT                      11604
B0101402350321434411001INCORPORATED                                            21600
A0101402510341081001001BALHAG, RAUL ESTOLE OR BALHAG,                          10501
A0101402510341081001001ROSALIE SANTOS                                          20500
B0101409050352042444001XTRINSIC ENTERPRISES CORP.                               1603
A0201400760000002047401AZNAR, MA. THERESA SOLANO                                0502
B0201400760374490906001******                                                   1602
A0201400920000000991711MAGDUA, MAY ANN DARUNDAY                                 0503
A0201400890376080642001GALANG, LORLIE PACURIBOT OR                             10502
A0201400890376080642001GALANG, GLENN AN                                        20500
B0101402930381008829002AXEIA DEVELOPMENT CORP.                                  1615
A0101402930000003710432ARRIESGADO, ALIZON GELIG                                 0504
B0101402770391009312001CAPITAL GARMENT CORPORATION                              1602
A0101408400394037811001*****                                                    0503
B0101408950396039019001DEPT. OF ENT-HNS, SLMC-GC                                1605
A0301400820000002692180SUMAYO, JOSELITO U.                                      0501
A0301400820000002692055SALAJOG, ALEXANDER DBU AJ                               10501
A0301400820000002692055SALAJOG METAL SCRAP                                     20500
B5501400120000000003298MARBEL FIT MART, INC.                                    1605
B5501400120410274984158ONG, DANILO & ONG, SUSAN & ONG, DANNY                   11605
B5501400120410274984158& ONG, DANIEL                                           21600
A2401400180000003949140UY, RUBING SIOCO                                         0501
A2401400180411668703001DRA. MYRA J. ATENDIDO OR DR.                            10503
A2401400180411668703001BOBBIE EDUARDO ATENDIDO                                 20500
B1201400150421017756001KEYSTER PARTS AND GENERAL                               11601
B1201400150421017756001MERCHANDISE                                             21600
B1201400150421324279001AOYONG, NENITA OR ANTONIO                               11605
B1201400150421324279001OR DOMINIC                                              21600
A0101406330472296884001JAYLEE TRADING                                           0502
A0101406330472458252002BRIAN JOSEPH M. SANCHEZ                                  0501
A0101406330472478374020SHERLY M. CONDING                                        0501
A0101406330000001235410SHIELA LAPUENTE                                          0501
A0501400170481046585002ANG, JUSSLYNN DBU                                       10503
A0501400170481046585002AVS DISTRIBUTION                                        20500
A0501400170481059315001ABAOAG, MAGELINE DBU M.K.A                              10501
A0501400170481059315001INSURANCE SERVICES                                      20500
A0101407430503381561001MARY TERESITA M. DE JOYA                                 0503
A0101407430503381561002MARY TERESITA M. DE JOYA                                 0503
A0101407430000002298315EXCEL A. GRESOS                                          0501
A0101405940512357111001LEONITA M. LABAYO                                        0502
A0101406880513193367003GAW, BENITO CO                                           0501
A0101406880513746030001ZAPANTA, VICTOR QUIAMBAO                                 0502
B0101408110515036613001DASECO-AIRE TECHNOLOGIES INCORPORATED                    1601
A0101408530000002980512MENENDEZ, MA. PILAR URRA                                 0501
A2201400250000003558070VIRGINIA G. ROBLES OR ROBERTO                           10502
A2201400250000003558070G. ROBLES                                               20500
A0101407720602161863003ROBERTO K. MACASAET OR                                  10502
A0101407720602161863003VIRGINIA M. RAFAEL                                      20500
A0101407720602161917001GOYLOS, LORENA CALVO                                     0501
A0101407720602397470001DR. ELIZABETH IFURUNG-GONZALES                           0501
A0101407720602398224001CUSTODIO, DEOGRACIAS BANABAN                            10501
A0101407720602398224001OR CUSTODIO, ELE                                        20500
A0101407720602544224001CECOGO, JENNIFER A. OR CECOGO,                          10501
A0101407720602544224001CARLA MAE A.                                            20500
B0101404260611027974001E.B. KARMINE COMMERCIAL                                  1602
B0101414410612821100608**********                                               2050
B0101411530000001393653**********                                               1602
A0101413570000002906705PAMINTUAN, ALEX DBU TOPLEX                              10503
A0101413570000002906705ADVERTISING SERVICES                                    20500
A0101406590662297269001MARTINEZ, ARMAN M. OR MARTINEZ,                         10501
A0101406590662297269001MARIA THERESE G.                                        20500
A0101406590662562414001RUSTE, RUTH ALLEN ANTONIO                                0503
A1701400230000002347333SALAZAR, EDWIN ENRIQUEZ                                  0505
A1701400230000003471674CASTRO, ROMERO GAOIRAN                                   0501
A1701400230693059295001CALUCAG'S FARM AND LIVESTOCK                            10501
A1701400230693059295001DEALER                                                  20500
B0101408240711026617001TOKYO HEALTHLINK, INC.                                   1603
A2801400230000002312414FREDELUCES, JUANA MYRNA BANAWA                           0501
A4101400260000000828815SAULOG, IAN CHESTER AUSTRIA                              0501
A4101400260000001198610RAPISTA, JOHNNY A. OR                                   10503
A4101400260000001198610RAPISTA, PROCENT                                        20500
A4101400420814342049001MENDOZA, DIVINA LORY ANN E. OR                          10503
A4101400420814342049001MENDOZA, GILBERT                                        20500
A4101400420814462792001RICHARD W. WU OR LOURDES WU                              0502
A4101400420814520766036**********                                               0502
A4101400420814520766076MORTEGA, ANABELLE G.                                     0501
A4101400420814520766138SAN PEDRO, ANA LIZA                                      0501
A4101400550815047816001VILLANUEVA, MELANIE AWATIN                               0502
A4101400550815650230001BERNALES, MA ROWEN ACIBO                                 0502
B0101404840851041585001TOM'S WORLD PHILIPPINES CORPORATION                      1602
A0101404840851478374038EVANGELINE UMALI                                         0501
A0101404840000003069823HERMOSO, JOYETTE CARDENO                                 0501
A0101406750000000358310TRIAS, AGNES DE JESUS                                    0502
A0101406750000001491830FORTIFAES, CHARISSE ANNE                                10501
A0101406750000001491830CARITOS                                                 20500
A0101406750852702860001POLANCOS, JUVY ANNE GAMIAO                               0502
A0101406750852774013001MARK JEROME SAQUING OR MARY ANN                         10502
A0101406750852774013001SAQUING                                                 20500
B0101413860000001768072KASAPI MULTI-PURPOSE COOPERATIVE                         1602
A0601400230891257858002LUCIA G. MAGTOTO                                         0510
A0601400230000002310092PARAFINA, LORENZA ALIPIO                                 0501
