B0101401830141821100608**********                                               2002
B1601400170494821100608**********                                               2003
A0101412760000001399180BONGCAWEL JR., JULITO LARGO                              0501
A2401400180000010066570LEBIOS, AURORA MAHOMOC DBU AURI                          0502
A2401400180000000073527LAFARDZ MARKETING                                        0502
A2401400180411276130002VILLAMOR, EDUARDO REGASPI                                0502
A2401400180000002146367ONG, FE LEAH PACAYRA                                     0501
B0101411790000000005318REM BUILDERS CORPORATION                                 1603
B0101406590000013686172GO SIGLA DISTRIBUTION INC                                1601
B0101400600071325133001**********                                               1602
B1001400480000004097223PARCON, NEYRA ACENAS                                     1601
A2401400180000001935822ANOS, LINDALEE LAROZA                                    0501
A2401400180000002146185SUICO, RENATO PADAL                                      0502
A2401400180000012748517**********                                               0501
A2401400180411592060001BABASA, STEPHEN JOY RIVERA                               0502
B0101403320471068309001GAPAN LAND, INC.                                         1603
A0101410140000001074908MEMBERS OF NATASHA (SHOECAT INC                         10501
A0101410140000001074908PENA, DINA Y.                                           20500
A0101406590000005305191QUE, MARTINIANO DE JESUS                                 0501
A0101400860011435365001**********                                               0505
A0101400860011492835001**********                                               0501
A0101400860011610276001**********                                               0502
A0101401250021478374014IRENE P. FADULLO                                         0501
A0101400150000000253370DEGUMBIS, GILA ROSE AMBRAD                               0501
A0101400150000011034583Bautista, Banjo Espino                                   0501
B0101400150061014673001COFFEE MASTERS, INC.                                     1605
B0101400150061024429001BRONZEOAK PHILIPPINES INC.                               1603
B0101400150000000000204PHINMA RENEWABLE ENERGY CORPORATION                      1605
B0101400150000004090117GOLDENBLEND CORP.                                        1603
B0101400150000004090139TRINOMA COFFEE INC                                       1603
A0101400150061227971001FELIPE  BAUTISTA                                         0501
A0101400600000000007616ANGEL T. CONCEPCION JR. OR                              10503
A0101400600000000007616MAJA MARIE C. CONCEPCION                                20500
A0101400600000005942481ABELLO, ROLANDO OR                                      10502
A0101400600000005942481ABELLO, MARIA KR                                        20500
B0101405810072301363001**********                                               1602
A0601400100000011854181MUNOZ, ANTONIO JUICO                                     0501
A0601400360000013722635OLIVERIA, NEIL FRANCIS GATBONTO                          0501
B0601400360000012046290BDH TYCOON INC.                                          1602
B0601400360000008477323I.B.D. MARKETING INC.                                    1601
A0601400520000009516485CRISTOBAL, LUISITO QUIZON                                0501
A0101400730111209357002AGRAVANTE, ESTEBAN BERNARDINO                            0503
A0101400730111347787002CHAVEZ, LYNN FLORENTINO                                  0501
A0101406040000000097001********                                                 0501
B0101406040000000096702********                                                 1601
A0101412630000009425145TAGAMOLILA, KEVIN DWAYNE B.                              0502
A0101413310000001073596LIM, DIANNE ALIPIO                                       0501
A0101401830141088092001DEGAYO, JOCELYN MARQUEZ                                  0501
A0101401830141397459001LACANLALAY, FLORINDA MANUEL JT                           0501
A0101401830141503457001MODALES, EDMAR LEJERO                                    0501
A7201400170000003774072ARCENAS, ALEXIS JAVIER                                   0501
A7201400170000007185900BARBADILLO, ELSIE ALANGCAS                               0501
A5001400170000000214002REQUINA, ORWINO ATAY                                     0502
A0101412920000013738633ALMOCERA, MARY JOY GEDUCOS                               0501
A0101412920000013738304DIMAANO, MA. CHRISTINA G                                 0501
A0101412920000013738844JAVIER, MERLYN BERDAN                                    0501
B0101401090171008021001THE CENTRAL SEMINARY FOUNDATION,INC                      1603
A0101401090171035575001MOSS MANILA EVENTS HOUSE INC.                            0505
A0101401090171431634001MARIA SOCORRO B. CONTRERAS                               0502
A0301400530000012016903SALMAGRENDE, EVA MACANAS                                 0502
A0301400530193689944001ECHON, MERCY E.                                          0502
A0301400660000005691712HONTANOSAS, LUZVIMINDA CORONG                            0505
A0301400950000011694605PILPIL, VANESSA GUIRA OR                                10506
A0301400950000011694605GUIRA, EDEN ROQUE                                       20500
A0101401380000005219916HERNANDEZ, JOHN EDORA                                    0501
A0101401380201497560001MONSOD, MELCHOR ROMERO                                   0503
A3101400870000009082457REYEL, JERUBELLE JOY MUPAZ                               0502
A1001400190000005709242GOKING, GEORGE SIO                                       0502
B1001400350000000017096AYA VENTURES CORPORATION                                 1604
B1001400350000000244368PHILIPPINE GAMS GENERAL INSURANCE AND                   11605
B1001400350000000244368FINANCIAL SRVCS                                         21600
A1001400350000004095294LIMBO, EMMANUEL CHAVES                                   0501
B1001400350233611366001MENDOZA, MARGARET LITONJUA OR DE                        11604
B1001400350233611366001MARCAIDA, JAN RO                                        21600
A1001400480000010131430SIA, CHRISTIANE PALEN OR                                10502
A1001400480000010131430SIA, JOHN CHRISTOPHER                                   20500
A1301400470000011839720VIRGINIA G. DAYAO                                        0502
A1301400470252495255001IMELDA IRENE V. ULIP OR                                 10501
A1301400470252495255001JUANITO I. ULIP                                         20500
B1301400760000000050871ENCORE LEASING & FINANCE CORP.                           1601
A0101401670271075808001BORLONGAN, ANDREW TUNG                                   0501
A0101401670271188097002MAE GOCHAN                                               0502
B0101406460272015262001*********                                                1603
A0101406620000006317860DELGADO, JUDY GRACE TIONGCO                              0502
A0101408660000006296622ARANETA III, VICENTE MARTIN OR                          10501
A0101408660000006296622JOAN MARIE C. AR                                        20500
A0101408660000011998962DEJARESCO, ROWENA HORTILANO                              0502
A0101408660274637545001NAVARRO, CECILIA CONSUNJI OR                            10501
A0101408660274637545001NAVARRO, ANTONIO                                        20500
B0101410980000000171986********                                                 1601
A0101411820000012245555MENDOZA, SHERYLLE MAY CORPUZ                             0501
B0101411820000003085112HARDCOM COMPUTER SYSTEM CO.                              1601
A0101412470000002135991TIU, EDGAR ACORIN OR TIU,                               10507
A0101412470000002135991MARVIN ERICSON Y                                        20500
A0101400570281045125001ROADWAY MOTORPARTS TRADING                               0501
A0501400200000002306092VICENTE, MARK CYRILL PAGUYO OR                          10502
A0501400200000002306092VICENTE, RUTH GAIL M.                                   20500
A0501400200000013659151FONTANILLA, PRINCESSITA M. OR                           10502
A0501400200000013659151FONTANILLA, MICHAEL JOHN                                20500
A0801400160311478374102MA. CECILIA A. AVANCENA                                  0501
B1101400120313038526001LEYTE LUMBER YARD & HARDWARE CO.INC                      1604
A1101400120000003981099ROSAS, HERBIE TONIDO                                     0501
A1101400120313478374077ROMO, ALILY PECASO                                       0501
A1101400120313568149001DY, LUCER BALENA                                         0502
A1101400120313717829001UY, WILSON S. OR                                        10510
A1101400120313717829001UY, CHIQUI RUTH                                         20500
A6601400120000011286270GACUSAN, RAUL CORRAL DBU 8.3                            10502
A6601400120000011286270COMPUTER TECHNOLOGY                                     20500
A6601400120314645535001TAN, MARIA MELISSA BALASOLLA                             0502
B2001400290315044204001ACEBANK CREDIT, INC.                                     1601
A2001400290315666711001MARIUS C. C. ONGCOG OR AGRIPINE                         10503
A2001400290315666711001T. L. ONGCOG                                            20500
A3401400280318478374002PIONELO, LENIDIE DEVELOS                                 0501
B0101402350321034292001JACINTHE MANUFACTURING CORPORATION                       1602
A0101402350321179524001MA. TERESITA PAJARILLO OR                               10501
A0101402350321179524001ROMEO PAJARILLO                                         20500
B0101402350321500384001ONG, JOSEPHINE T. AND HERRERA,                          11601
B0101402350321500384001VICTORIA                                                21600
A0101402350000001474255********                                                 0501
A0101402350321640781001ELVIRA O. DURA                                           0501
B0101405650322018011001MONTESSORI DE MANILA, INC.                               1602
A0101402510341196525001CHONA G. ESPOSO                                          0501
A0101402510000011695095DE NULLY, CORAZON MORANTE                                0502
A0101409050000012409722ABARRO, HECTOR ABELLA                                    0501
A0101409050000012409711MARCELO II, JACINTO TOLENTINO                            0501
A0201400760000005711320TECSON, GELINE CABANGANAN                                0502
B0201400760374046327001PELAYO, R. DBU TOTO ENTERPRISES                         11605
B0201400760374046327001COMMODITIES                                             21600
B0201400920000000047841CREATIVE IMAGE AND INSIGNIA                             11601
B0201400920000000047841CLOTHESLINE INC.                                        21600
B0101408790383047289001ACTUATE BUILDERS, INC.                                   1601
B0101408790000000038975MLBG FOODS CO., INC.                                     1601
B0101411660000009219945ADEKAYA 1ST CORP.                                        1605
A0101402770000002267198ROMA, FREDERICK LUDOVICE                                 0501
A0101405490392034138001MCMAR & MARY ELECTRICAL                                 10502
A0101405490392034138001& CONSTRUCTION S                                        20500
A0101408400000007264464DELA CRUZ, ROLLET MEJIA OR                              10501
A0101408400000007264464DELA CRUZ, VERONICA                                     20500
A0101408400394089355097MENDOZA, MA. JAZELLE S.                                  0501
A0101408400394478374094NUNEZ, GENIE                                             0501
A0101408400394542845001PINEDA, DINDO DOMINGO                                    0501
A0101408400394550481001FELICIANO, LEONARDO LAPUZ                                0501
A0101408400394605254002******                                                   0504
A0101408950000005325582****************************                             0502
B0101408950396564292001*****                                                    1602
A0101408950396567425001DR. SHEILA LYN REMOT RANIN                               0502
B0101409180000000036644THE TABLE GROUP, INC.                                    1615
A0101409210000006605314PANTOJA, BIEN MARTIN CONSTANTIN                          0501
B0301400820000001554792VIC IMPERIAL APPLIANCE CORP.                             1601
A5501400120000002019012CRUZ, JESSIE PASCUAL                                     0501
B2401400180411055117001KABRIGADA FOUNDATION, INC.                               1602
B2401400180000000073709ULTRAVOLTS CORP.                                         1602
B2401400180411057100001L.H.E. CONSTRUCTION & INDUSTRIAL                        11604
B2401400180411057100001SERVICES, INC.                                          21600
A2401400180411275775001GARCIA JR., VICENTE BORNEO OR                           10504
A2401400180411275775001GARCIA, NELISSA                                         20500
A2401400180411295890001MANIAGO, JIMMY CATAYNA                                   0503
A2401400180411567472001CRUZ, GEORGE FONTANILLA                                  0501
A1201400150421658183001BANDA, LILLIAN PIT-OG                                    0501
A0901400220000000888042**********                                               0510
A5101400100000010371096DESIERTO, ODELIO PAPAS DBU BUTC                          0501
A0101403320000012881933CRISTOPHER E. SANTOS                                     0501
A0101403320000012881733DE STIJL DESIGN & CONSTRUCTION                          10501
A0101403320000012881733SERVICES                                                20500
A1901400160491346311001NIDA M LACSAMANA                                         0501
A1601400170000011416418BUEN, ALMA BURAC                                         0501
A1601400170000001360736UPTOWN ENTERPRISES                                       0502
B1601400170494821200608**********                                               2003
B0101411790000013596119DROP DEAD GORGEOUS INC.                                  1601
A0101411790518055815027MANABAT, ELAINE BUNDALIAN                                0502
A0101403450521237287001*********                                                0501
A0101403450521238046001**********                                               0502
A0101403610000013733438GREGORIO, LEONARD ESTANISLAO                             0501
A0101403610531712013001LUMPAS, MARILYN DEL ROSARIO                              0502
A2201400250000004405025*******                                                  0501
A0101404130601288502002JOCELYN LOPEZ                                            0502
A0101404130601788108001PAPA, HANNIELYN AISA ABORDE                              0501
A0101407720000003099165AVENTURA JR., AVENILO LICUD                              0504
A0101407720000004664342DAVID, RICHELLE NG                                       0501
A0101407720000004664682VALENCIA, EVANGELINE TEKIKO                              0501
A0101407720602332203002MANAHAN, MARTIN  PEDROSA                                 0510
A0101407720602404990001ILUSTRE, CORAZON C. OR                                  10503
A0101407720602404990001ILUSTRE, ANA MAR                                        20500
A0101407720602472259001CALILONG, LORELEI IRA                                    0501
A0101407720000000051112******                                                   0503
A0101407720602537364001SANTIANO, JOHN ALMODOVAR                                 0501
A0101407720602587464001SIOSON, LERMA SATUMBA                                    0501
A0101412180000001293363VILLANUEVA, EUGENIO DEL ROSARIO                          0502
A0101412180000000908470ANG, KENNETH                                             0501
A0101412180603759861001VALLEJO, CRISTIE CABOBOS                                 0501
B0101404260000000157037INTERPRO FOOD SPECIALIST INC.                            1605
B0101404260000004781346LGR ATHLETIC WEARS, INC.                                 1602
A0101404260611080620001TIMBANCAYA, DAVID DOMINIC VELHA                          0502
A0101404260611749390001JOSE ANDREW ENRICO B. PASTORIL                          10501
A0101404260611749390001OR NERI SUNGA PASTORIL                                  20500
A0101407690000008045823BARCELONA, JONATHAN DBU                                 10503
A0101407690000008045823BDZ TRUCKING SERVICES                                   20500
A0101407690000001919902OSTREA, MARILOU DBU M. ZOILO                            10501
A0101407690000001919902TRADING                                                 20500
A0101407690652093287002ANNA LEAH Y. TIONGSON-MENDOZA                            0501
A0101407690000000587800*****                                                    0501
A0101407690652468270001JYNELLE SUSANA CONCEPCION OR                            10501
A0101407690652468270001J. WIGMORE CONCEPCION                                   20500
A0101407690652554052005ALCANTARA, MICHAEL QUIGLEY                               0502
A0101414120000000649116STEADFAST BUILDERS, THE                                  0502
A0101414120000000398921MC DAGGLE'S CONSTRUCTION &                              10502
A0101414120000000398921TRADING                                                 20500
B0101414120000001984234CAT'S EYE KING INTERNATIONAL INC.                        1604
A0101414120000000875652PABLITO OR RONALD JOHN OR                               10504
A0101414120000000875652PRINCESS JOY OR                                         20500
A0101406590000009500830LAGANAPAN, AEGINA MARI KABAMALA                          0501
B1301400210682041874001MBB ROYALE INTERNATIONAL INC.                            1603
B1301400210682041874002MBB ROYALE INTERNATIONAL INC.                            1603
A1301400340683361153001LICAROS JR, ALEJANDRO LAGPAO OR                         10502
A1301400340683361153001LICAROS, ELSA R.                                        20500
A1301400340000006402477LUSTRE, MA. CECILIA QUETUA                               0501
B0101408240000008160070BLUE DRAGON ENTERPRISES                                  1601
A0101408240000000005450BAILON, CAROLINA PATRICIA                               10501
A0101408240000000005450GARCIA                                                  20500
A0101408240711562355001BERMUDEZ, ROBERT SANTIAGO OR                            10501
A0101408240711562355001BERMUDEZ, ANA LYN                                       20500
B2801400100712046914001IREC CORPORATION                                         1602
A2801400100000001494522**********                                               0502
A2801400230000005253510MARTINEZ, GIRLIE MONDALA                                 0505
A4101400260000003679994ESPIRITU, NELIA BAUTISTA                                 0501
B4101400260000001198949MONTALBAN CONCRETE AND ASPHALT INC.                      1610
B4101400390813043479001UNITED IMUS DOCTORS, INC.                                1602
A4101400390813046444001MARIA VICTORIA H. ARMESTO DBU                           10501
A4101400390813046444001MAESTRO'S BUSINESS CONSUL                               20500
A4101400420000002084595TONIO, EDNALYN                                           0501
A0101412340000000031125CABUS JR., AUREO ALOTA                                   0501
B0101404840000006365171KAWASAKI EMPLOYEES MULTI-PURPOSE CO                      1605
A0101404840851427853001BIE, JOANNA MARIE GASMEN                                 0502
A0101406750000000090913OCE METAL PRODUCTS                                       0501
B0101406750000000090480ALEXANDRIA MARINE AND GENERAL SHIPPING                  11605
B0101406750000000090480AGENCY INC.                                             21600
B0101406750000000090559GLOBAL ACCESS FINANCIAL SERVICES, INC                    1605
A0101406750852180858002MARTIN, ALPHA DEVOTA HERNANDEZ                           0501
A0101406750852478374027ELENA HINUNANGAN                                         0501
A0101406750852530814001PUNZALAN, HEYDE MAGRO                                    0501
A0101406750000000173022DE GUZMAN, VERONICA RAFAEL                               0501
A0101405070000000741315MOSENABRE, DECOROSO PULGO OR                            10502
A0101405070000000741315MOSENABRE, VILMA                                        20500
A0101405070861027133001WORLDLINKS CABLE WORKS                                   0502
B0101405070861028566001AVESTA REALTY, INC.                                      1603
