A0101400570281500167001**********                                               0504
B0101409890649821100608**********                                               2005
A0101411790000013894610DIZON, MARIE FRANCES                                     0501
A0101411790000013894610DIZON, MARIE FRANCES                                     0501
A0101411790000011046050MO, NI                                                   0501
B0101400570281032093001ALPHA VICTORIA HOMEOWNERS ASSOCIATION                    1602
A2001400290315641895001WENCESLAO, JUNE CLEO OR                                 10502
A2001400290315641895001WENCESLAO, ANTON                                        20500
A1301400500000002064028SAGAMPUD JR., JOSEPH DONGLA                              0501
B0101400860011374845003**********                                               1601
A0101400860011394300002**********                                               0503
A0101400860011410778002**********                                               0510
B0101400860011412598001**********                                               1601
A0101400860011449266001**********                                               0502
B0101400860011581564001**********                                               1602
A0101401250000002763346**********                                               0505
B0101400600071684249001******                                                   1602
B0101405810072040696002PLASTIC TECHNOBAG CO. LTD.                               1601
A0101405810072236268001KENG, LOUELLA JOCELYN BARRETTO                           0501
A0601400100000014247402RIVERA, MARIANNE MADERA                                  0501
A0601400100000014247651VALENZUELA, ROMMEL BESARRA                               0501
A0601400520000009516850LIMJOCO, MAYRA CAPITLI                                   0505
A0601400520000005943542ARCEO, TEEJAY ROMERO                                     0502
A0101400730111046434049FLORES, SAMUEL OR                                       10501
A0101400730111046434049FLORES, DEMETRIA                                        20500
A0101401960121096152001***************                                          0502
A0101413150000002299307*******                                                  0502
A7201400170000006487683INOCENCIO, EDGARDO TAN                                   0502
A7201400170000011160700LOQUIAS, CECILIA VIDAD                                   0501
A7201400170000009463783MUADS S. MAULANA DBU MMJM ENT.                          10505
A7201400170000009463783OR JAMELLAH L. MAULANA                                  20500
A7201400170000011454312ISERAEL, MASJEDEL GEGUIERA                               0502
A0101412920000013738633ALMOCERA, MARY JOY GEDUCOS                               0501
B0101407270162028106001MANSMITH AND FIELDERS, INC.                              1602
A0101401090000011424821CAGUIOA, FREDERICK JACINTO ASCA                          0501
B0301400530193014284008COLOURLAND INC. - TAGUM                                  1602
B0301400530193024226001DAVAO METRO SHUTTLE CORPORATION                          1601
A0301400950000002115582************                                             0502
A0301400950000006080417**********                                               0502
B0101413020000000038388ASISI SYSTEM CORP.                                       1603
A0101410720000012557410JACINTO, SHIRLEY ANNE SANTOS DB                          0505
A0101410720653470975001BELTRAN, ROBERT LUI                                      0502
A0101413600000000206744KENNY SIY CHEE                                           0501
A0101413600000003134501WESLEY A. CHOA OR                                       10501
A0101413600000003134501CHARLES L. LIM                                          20500
A3101400450223478374004MORENO, JONALYN                                          0502
A3101400450223689767001CHAVEZ, DOLORES PAR                                      0501
B3101400740000014271520KENNERY HARDWARE AND CONSTRUCTION SUPPLY                11601
B3101400740000014271520AND CONSTRUCTION                                        21600
A3101400870000008979997MIRANDA, MARLON TONGGA                                   0501
A3101400870000014260032MAGSISI, PAMELA BASILIO                                  0501
A1001400190000008743897HANDUMON, CORWENDA YANCHA                                0502
B1001400190000002266582GAAMIL, JOE ERIC TINONAS DBU                            11601
B1001400190000002266582VICTORY HARDWARE                                        21600
A1001400190231520766009MAGBUNAG, CONSORCIA TORRES                               0501
A1001400190231520766013PATALINGHUG, BEVERLY MERCADO                             0501
A1001400190231520766020LUBIDO, CAROLINE JARALES                                 0501
A1001400190231520766036ONIPA, JANE ROSE P                                       0501
A1001400350000012928053SY, AMY BO                                               0502
A1001400350233478374001JUNIO, ROGELIA A.                                        0501
A1001400480000003357748DEDEL, PATRICK JUNE YEMA                                 0502
B1901400290261047995001SPOUSE OF THE BLESSED VIRGIN                            11605
B1901400290261047995001HOSPITAL INC.                                           21600
B0101401670000004588401MAIDSOURCE INC.                                          1601
A0101406460272322679001HERBOLARIO, MA. PILAR HERNANDEZ                          0501
A0101406620000010796326MARIE KAR CABAL                                          0501
A0101406620000014256254ADEL, ERRKI REANTILLO                                    0501
A0101406620000014256414ALBANO, JOANNA LYNNE DATUIN                              0501
A0101406620000014256549BARANGAN, RODELF ELVEN TATUNAY                           0501
A0101406620000014256692BARELA, CHRISTINA CONCEPCION                             0501
A0101406620000014256801BELEN, KAREN COLLEEN GIRON                               0501
A0101406620000014256896BELONZA, POLICARPIO CAPACIO                              0501
A0101406620000014256998BONDOC, VANESSA FRANCISCO                                0501
A0101406620000014257042BORROMEO, MARLON VILLAMIN                                0501
A0101406620000014257155CALES, JEED VILLANUEVA                                   0501
A0101406620000014257213CARACAS, JESSICA CLAIRE VECIDA                           0501
A0101406620000014257268CATANGAY, JOANN JOY SABAYBAY                             0501
A0101406620000014257315DAFFON, JOY AWITANON                                     0501
A0101406620000014257382DE ZAFRA, DENNIS CANTILLON                               0501
A0101406620000014257439DEIPARINE, MA. TERESITA ALCANTA                          0501
A0101406620000014257508DELA CRUZ, DENZEL ERIZ YEAT                              0501
A0101406620000014257582DELA ROSA, JOHN LEO ZAPANTA                              0501
A0101406620000014257622DULAY, MARY GRACE BOBIAS                                 0501
A0101406620000014257662ESTRADA, AMOR VILLA                                      0501
A0101406620000014257702FAMADULAN, JOEL AYUDA                                    0501
A0101406620000014257731GRAGASIN JR., BILLY BRANGERO                             0501
A0101406620000014257786IBANEZ, FAY ANGELA SARENAS                               0501
A0101406620000014257822LUMANLAN, ROWENA MACALINTAL                              0501
A0101406620000014257866MAGNO JR., NICANOR PASCUA                                0501
A0101406620000014257913MENGOTE, VIRGINIA BATHAN                                 0501
A0101406620000014257957NAVALES, KENNETT CARLO CABRERA                           0501
A0101406620000014257980NUNEZ, BART MAROE MONDIA                                 0501
A0101406620000014258034PARALEJAS, R VIE DURUSAN                                 0501
A0101406620000014258090PELANTE, ARNEL DE ASIS                                   0501
A0101406620000014258125PINEDA, GERALDINE ROXAS                                  0501
A0101406620000014258169PUNZALAN, KARL ANTHONY DAGDAGAN                          0501
A0101406620000014258205QUILING, KIMBERLY REYES                                  0501
A0101406620000014258249SALAZAR, MICHELLE PEDREGOSA                              0501
A0101406620000014258272SO NEVAREZ, JHENALYN CASTOR                              0501
A0101406620000014258329SUNGA, ROY QUIAMBAO                                      0501
A0101406620000014258363TOLENTINO, MYLENE CRUZ                                   0501
A0101406620000014258392VICTORIA, NICOLE PALOMERA                                0501
A0101406620000014258410VILLACENTINO, MARK JOAR VALDOZ                           0501
A0101406620000014258443VILLAFLOR, SANDY MARIE TAMAYO                            0501
A0101406620000014258472VILORIA, JOSE RENIDO                                     0501
A0101406620000014258494VITALIS, JUMAR RAFAN                                     0501
B0101408660000001940610WESTMINN CONSTRUCTION AND DEVELOPMENT                   11603
B0101408660000001940610INC.                                                    21600
B0101400570000002104147AB1 MEGA BUILDERS INC.                                   1602
A0501400200000005751759ANDRADA, EVELYN MORDENO OR                              10502
A0501400200000005751759ANDRADA, BENJAMIN M.                                    20500
A0501400200000007980912REDULFIN, ROY RONDIE RAMIREZ                             0502
A0501400200292567569001LARILYN D. GATCHALLAN                                    0501
B2601400270302574301001ALEX UY TY                                               1601
A0801400160000002681661NOE'S UPHOLSTERY FURNITURE & EN                          0503
B0801400160311035991001HAPI ILOILO CORPORATION                                  1601
A0801400160311478374070GENALYN M. BOTANERO                                      0501
A1101400120313478374093GIMARANGAN, JINKY A.                                     0501
A0101402350000012300455SIBUGAN, JAQUILYN ISAIAS                                 0501
A0101402350000000046073ERIC OLIVAREZ                                            0502
A0101405650000005284351OTAKE, BERNALYN GALAURAN                                 0503
A0101405650322170862001SALUD, IMELDA D.                                         0510
B0101402510341014767006SCHOOL OF ACCOUNTANCY AND MANAGEMENT                     1601
A0101402510000000049329UNICARE DENTAL, MEDICAL TRADING                         10501
A0101402510000000049329CORPORATION                                             20500
A0101402510341197758001CARMINA P. CATAPANG                                      0501
A0101402060351039467001LAY BARE WAXING SALON                                    0502
A0101402060351039467002LAY BARE WAXING SALON                                    0502
A0101402060351039467004LAY BARE WAXING SALON                                    0502
A0101402060000000358770LAY BARE WAXING SALON                                    0502
A0101402060000009179917MANAHAN, RONA CALACDAY                                   0504
A0101402060000009179502BARTOLOME, CARLAINE CHUA                                 0501
A0201400760374033157001WISE OWL GENERAL MERCHANDISE                             0501
A0101408370000009296546ROXAS, MANUEL FRANCISCO TANADA                           0504
A0101408370382497608001DR. AZENETTE LACUNA-MENDOZA OR                          10501
A0101408370382497608001TRISTAN PHILIP MENDOZA                                  20500
A0101411660000002881127***********                                              0501
A0101411660000011949207ANTONIO, REGINALD QUILATAN                               0502
B0101415350000007839954TAN, CATHERINE A. AND TAN, FRANCIS LOUIE                11601
B0101415350000007839954G.                                                      21600
B0101402770391033539001VICTORIA VALLEY ASSOCIATION, INC.                        1602
A0101402770391364535001ESPE, EDITHA ENRIQUEZ                                    0502
A0101408400000005286171PONCE, MINA MUSNGI                                       0502
A0101408400000011277411MACABIA, RENER KIM ARVIN TOMAGA                         10501
A0101408400000011277411OR MACABIA, FRANDHEL P.                                 20500
A0101408950000001760618ISIDRO, JESSORE IBABAO                                   0502
A0101408950396705700002MARIANO, BUENJIM LARDIZABAL                              0505
A0101409180000014268330KATIGBAK, EDUARDO DE JESUS                               0501
A0101409210000013276449BACIT, JOVELYN BUCAHAN                                   0501
B2401400180000000073663CENTURY PACIFIC FOOD, INC.                               1605
A2401400180000005286922AMADEO, ANNIE MILES                                      0503
A2401400180411537301001**********************                                   0503
A0101403030000000531439**********                                               0501
A0101403030441239449002**********                                               0501
A0101406330000001235136ROBELO, IRMA MOYA                                        0501
A0101406330472027958001A. ANOLIN ENTERPRISES                                    0502
B0101406330000010658289SIBUG, NASTAZHA ANN YU DBU ACCUCLEAN                    11602
B0101406330000010658289ENTERPRISE                                              21600
B0501400170481018109002CSI WAREHOUSE CLUB INC.                                  1604
B0501400170481025398002COSTSAVER'S SUPERMARKET, INC.                            1603
A0501400170481255549001GAZMEN, MA. HAZEL RITA THERESE                          10503
A0501400170481255549001RAYOS                                                   20500
A1401400110000014241351BUERA, ALICIA DBU VJ NARVAEZ GE                          0501
A1601400170000011416390AGUILAR, EDGAR OBRERO DBU                               10501
A1601400170000011416390NUPRINT MASTER                                          20500
A0701400260000006215629****************                                         0502
A0101403580000012912059HIFE, JENNIFER REYES                                     0502
A0101403580511388107001ANTONIO G. PEDRO OR                                     10502
A0101403580511388107001FELISA C. PEDRO                                         20500
A0101405940512151914003WASSMER, REBECCA SAMONTE OR                             10501
A0101405940512151914003SAMONTE, TERESIT                                        20500
A0101408530000014262643GERMONES, GERALD SANSANO                                 0501
A0101408530000014265379CANELA, CHARLEMAGNE DUGANG                               0501
A0101408530000014260130ABRAU, JAYSON JOE LELIS                                  0501
A0101408530000007981842CORPUZ, CHARMAINE ACOSTA                                 0502
A0101408530000014265653RIVERA, ANAFE DE GUZMAN                                  0501
A0101408530000014265762VERGABERA, JOHN ANTHONY SADAYA                           0501
A0101408530000014268534HERNANDEZ, RALPH JOSEPH JAVIER                           0501
A0101408530000014268603NAYRE, RHIYALLYN PINGUL                                  0501
A0101408530000014268421BALDESIMO JR., JULIUS ZAPATA                             0501
B0101408530516005188001SEARCHERS & STAFFERS CORP.                               1605
B0101408530000001275292TRIUMPH INTERNATIONAL (PHILIPPINES), INC                 1601
A0101411790000014046885RESURRECCION, MARGOT ROSARIO                            10501
A0101411790000014046885ANNE S.                                                 20500
A0101412050000001499783FERRAREN, JOEL ORTEGA                                   10503
A0101412050000001499783DBU JOF FOREX TRADING                                   20500
B0101403450521011744001CBK CONSTRUCTORA, INC.                                   1603
A0101403610000014268323AMPIG, EDGAR ALLAN NAVARRO                               0501
A0101403610000014268410ARANDEZ, JOSE ERIC TALAWE                                0501
A0101403610000014268523AZUELO, CAESAR BALINGIT                                  0501
A0101403610000014268614BARAWID, HOWELL SURETA                                   0501
A0101403610000014268658BATUNGBACAL, FERKINS ARANDEZ                             0501
A0101403610000014268716BATUNGBACAL, MA LUISA DE LINO                            0501
A0101403610000014268783ESQUILLO, ALMA CALOZA                                    0501
A0101403610000014268830FAMINI, ARMANDO MACAPAGAL                                0501
A0101403610531446799001RAMIREZ, MARY JOHNA ANTONIO                              0502
A2201400250000000141186WILFREDO N. ONG                                          0510
A2201400250561038458001PTT SOUTH RAMP GASOLINE STATION                          0501
A0101410690000008568163CHAVEZ JR., XAVIER CAYAO                                 0501
A0101407720000004658328GALLENERO, JENNETTE TOLEDO                               0504
A0101407720602006037001MA. LORNA S. BANGAYAN                                    0501
A0101407720602283353001ERWIN HERNANDEZ OR                                      10501
A0101407720602283353001AGNES HERNANDEZ                                         20500
A0101407720602332798001ARNEL DIAZ OR LOURDES DIAZ                               0502
A0101407720602390297001PREYSLER, MARIVIC G.                                     0502
A0101407720602396146001FRANCISCO DE LEON ERANA OR                              10502
A0101407720602396146001ROWENA MARIA INES ERANA                                 20500
A0101407720602399169001MARIA RONELLA FRANCISCO-MALLARI                          0505
A0101407720000000510512SALUD, CARMENCITA ESGUERRA                               0501
A0101404260000003498540MABBORANG, WILBAR CABUNAG                                0501
A0101404260000005447036KAWAKAMI, SHINJI RAMOS                                   0501
A0101404260000000156892RENDOQUE, CARMELITA                                     10502
A0101404260000000156892DBU NATURES BOUN                                        20500
A0101409890000009468608MANUEL, MARILOU LUCELO                                   0501
A0101409920650478374024DUMAWING, LUALHATI SANTIAGO                              0501
A0101407690652045019001AXIS ROOF SERVICES                                       0502
A0101413440000010659248BARONA, LEILA SOCORRO HEDRIANA                           0502
A0101413990000014271182DELA FUENTE, WEE IAN LEGSON                              0501
A0101413990000000205934MGN GARMENT LINE SERVICES                                0503
A0101414120000001984143VERZOSA, SANTANINA SALIH                                 0501
A0101414120000013721961RICOHERMOSO, JED AVITO RIUS                              0501
B0101406590000000905657BRAINCHILD SIX INC.                                      1602
A0101406590662058970001MERCADO, LIGAYA SAN PEDRO DBU                           10502
A0101406590662058970001QUADEM ENTERPRISES                                      20500
A1301400210000009982198PAULINO, ALEXANDER SARMIENTO                             0501
B1301400210000008174009****                                                     1602
A1301400210682378737001PRIMITIVA E. SUAREZ                                      0501
A1301400210682496862002ROSARIO C. PEREZ OR                                     10502
A1301400210682496862002EDGARDO J. PEREZ                                        20500
A1301400210682673429001CHERRY ROSE P CALDERON                                   0501
A1301400500684593458001JOSE MARI D. ARCEGA OR                                  10505
A1301400500684593458001MUREECUNI C. ARCEGA                                     20500
A1301400500684762106001VICEO III, JAIME S.                                      0502
A0101408240000011487273LOPEZ, ANTONIO RUBIO                                     0501
A0101408240711319064001ANA MAY R. WONG LEE                                      0501
A4101400260000012884961SON, JENNY ANN                                           0501
A4101400260812423341001ESTEFANIA B. RANDOY                                      0505
A4101400260000006043243VALDEMORO, JOCELYN HILARIO                               0501
A4101400260812581094002GACUTAN, RICO VASQUEZ                                    0501
A4101400260812593191001ELVIRA T. GELISANGA                                      0501
A0101412340000003344027JEROME C. LACANILAO                                      0502
A0101406750852361074001BARTOLOME, JAIME OR BARTOLOME,                          10501
A0101406750852361074001JOSEPHINE OR JOANNE                                     20500
A0101406750852673534001TOLENTINO, DEBORAH SARAH D OR                           10502
A0101406750852673534001DE LEON, RUBEN L                                        20500
B0101405070000013392257TEKTON CONSTRUCTION CORP.                                1605
B0101405070861198521002MSYTR                                                    1602
A0601400230000012134546MABBAYAD, JAMELO RAMEL DBU                              10502
A0601400230000012134546CLIMATE CONTROL TRUCK REF                               20500
