B0101406590662018451001ROTARY CLUB OF LOYOLA HEIGHTS                            1601
A0101406590662693253001BOCALA, JULIET TORRIFIEL                                 0501
A0101406590000016358004BASIRI, SHANDI MAR LAO                                   0501
A0101406590000014341345ORGANO, HOMAR ANTHONY CHUA                               0501
B0101400150061016942006ASIA PACIFIC EXPRESS CORPORATION                         1605
B0101400150061032076002NEXTRANS INCORPORATED                                    1605
A0101413150000013434167***                                                      0502
A0101402930381225861002PAJARA, JAIME HERNANDEZ                                  0503
B0101406590000011637499DR. UNK AND CO. PH CORPORATION DBU THE                  11601
B0101406590000011637499NAME AND STYLE O                                        21600
A0101406750000005666873MABINI, ALEXANDER PIMENTEL                               0501
A0101406750000000173022VERONICA DE GUZMAN                                       0501
A0101401250001120001147SEBALLA, CHERRY ANN TRIBACO                              0502
A0101400150000011138268PUA, HANSEL ZEE OR                                      10501
A0101400150000011138268PUA, MICHAEL ZEE                                        20500
A0101400150061226989001EDUARDO E. CAEG OR                                      10501
A0101400150061226989001BESSIE C. CAEG                                          20500
B0101400150061228665001MALAYAN TOWAGE AND SALVAGE CORPORATION                   1610
A0101400600071057858001BESTA SHIPPING LINES, INC.                               0503
A0101400600071233611001WELLINGTON GO                                            0502
B0101405810000000016851******************                                       1601
B0101405810072236433002NG, SHUK YU                                              1610
A0101405810000000016560***************                                          0501
A0601400100081403474003TAYAG, DENISE OCAMPO                                     0502
B0101406040000006025321ONGZEN BUILDERS INCORPORATED                             1602
A0101401960000002331675**********                                               0501
A0101413150000000082682******                                                   0503
B0101401830141045610001INTERZONAL COURIER SERVICE                               1602
A5001400170000000214002REQUINA, ORWINO ATAY                                     0501
A0101400440161572623001RASIEL S. LATORRE                                        0501
A0101401090171197481002MA. NOEMI OR ELIEZER SALAZAR                             0503
B0301400660000012086696PHILIPPINE HALAL MANOK CORPORATION                       1601
B0301400660000006755111SABIDO PROPERTY MANAGEMENT, INC.                         1601
B0301400950000002115840DAVAO BARRIO BISTRO, INC.                                1603
B0301400950000006054111THE DRJ - BARNEYS CONCEPT CORP.                          1602
A0101401380000010190477CASTILLO, MELQUIADES ALEXUS ANG                          0502
A0101401380201493851001ALFECHE, GREGORIA REDOLLA                                0501
A0101410720000001602051CRUZ, E DBU JEFF & F-ROSE PALAY                          0505
A0101413600000005355175ERWIN B. LARAYA                                          0501
A3101400160000011243853DE VERA, LADY RO ANNE ALVIAR                             0501
B3101400160000004362889MOTORCENTRAL FINANCE CORPORATION                         1610
A3001400130230478374239ATO, AIREN BERNADEZ                                      0502
A1001400350233528978001MONNETTE GUANGCO OR                                     10501
A1001400350233528978001HECTOR GUANGCO                                          20500
B1301400760000010656830ELITE MOTORBIKE SALES CORPORATION                        1610
B0101401670271034948001REALTY INVESTMENTS INC.                                  1605
B01014016702710417910014 PI SQUARE KINDER SCHOOL INC.                           1610
A0101401670271380919001NACAGUE, MARY CHUA                                       0501
A0101401670271383413002NACAGUE, MIDY CHUA                                       0501
A0101401670271383413003*****                                                    0501
A0101401670271383413003NACAGUE, MIDY OR NACAGUE, WATSO                         10501
A0101401670271383413003N OR NACAGUE, PENG HUNG                                 20500
B0101406460000011598500CHICKENERO GROUP INC                                     1601
B0101406460272038032002WEE COMMUNITY DEVELOPERS, INC.                           1601
A0101408660274365658001YAO, YAN LUN                 JT                          0501
A0101411820000005380110***********                                              0501
B0101412470000012117650UNITED LIMSUN INTERNATIONAL TRADING                      1603
A0101400570281442779001DR. SANDEE G. GO                                         0501
A0101400570281514703001SEVERA C. RONQUILLO OR                                  10501
A0101400570281514703001TITO P. RONQUILLO                                       20500
B2601400270000013294429FM ORANI & SON'S DEVELOPMENT CORPORATION                 1603
B0801400160000005656915JD AGRO PROJECTS INCORPORATED                            1602
A1101400120000001547268JADOC, MA. ARIELYN PALOGAN                               0501
B2001400290315052317001NRU TRADING                                              1605
B2001400290000002406628RAMAS UYPITCHING, NICOLAS S DBU NRU                      1605
A0101402350321459520001TIU, DANTE TAN OR JUAN PUAN TIU                         10501
A0101402350321459520001OR TIU, DAN CARL                                        20500
B0101405650000005382043RPB MANAGEMENT GROUP INC.                                1605
A0101402510000011748862QUICHO, NELFA EDORA OR QUICHO,                          10503
A0101402510000011748862FERNANDO CATCHIL                                        20500
A0101409050000016473319EMPLOYEES OF, MCN FREEDOM! TECH                          0501
B0101409050000013167749RCE GLOBAL CONSTRUCTION INC.                             1601
B0201400920000000007923AVANT TEACH INTERNATIONAL CORP.                          1610
A0201400920375504647001**********                                               0504
B0101402930381023938001SNOW MOUNTAIN DAIRY CORPORATION                          1603
B0101402930381321280003S.D. FLORES CORPORATION                                  1602
B0101402770000001571626BEARING CENTER & MACHINERY, INC.                         1601
A0101408400394323358001SANTOS, DURWIN CRUZ                                      0501
A0101408400000005286353CERVANTES, NENITA FRANCO                                 0501
A0101408950000000776507ONE HEALTH MEDICAL CLINIC                                0503
A0101408950396564553001NEIL STEPHEN ANGELO A. TORRES                            0503
A0101409210000005251923TRIAS, AGNES DE JESUS                                    0502
A0101409210000004736129SANTOS, ILA KYRA SEGUI                                   0501
A5501400120000006976790CHIU, VALENTIN SIRA                                      0501
A2401400180000015944695ALVAREZ, NEALL DOMINICK TY                               0501
B2401400180411039945002JMP BUILDING 2                                           1602
A2401400180000010066376NIEDO, TETCHIE OBRA DBU TETCHIE                          0502
B1201400150000011415762EVER READY CREDIT AND FINANCE CORP.                      1605
A0101406330000011106133PARILLA, CARLA OGAD                                      0501
A0101406330000015172120SALIGUMBA, ROSALIA CEDAN                                 0501
B0101406330000000432842**********                                               1605
A0101406330472780167001AGNES D. CHUA                                            0502
A0101412760000000767762MERCADO, LORNA DIMAFELIX                                 0501
A0501400170481033355001GOLDEN TIES AND FOOD                                    10501
A0501400170481033355001RESOURCES INC.                                          20500
A3801400170000010312760HAZEL RAMIREZ REYES                                      0501
B1901400160491027966001SALESFORCE ONE MARKETING, INC.                           1607
B1901400160491027966003SALESFORCE ONE MARKETING, INC.                           1606
B1401400110000012900231VILLAVERDE, A DBU SJTENZEL HARDWARE                      1605
B0101407430503045993001VIREO LOADWORKS INC.                                     1602
B0101407430000001212979FRUS CORP.                                               1603
B0101403580000015735483UNIBROS TRANSPORT SERVICES INC.                          1605
A0101403580000000016082SWEET BELLA DESSERTS                                     0510
A0101403580000005961920PINEDA, BRIAN DBU TWIST OF FATE                         10510
A0101403580000005961920TRADING                                                 20500
A0101403580511693764001MESIAS, MARIA CARMINA SANTIAGO                           0504
B0101405940000000886728TORRE LORENZO PROPERTY MANAGEMENT                       11605
B0101405940000000886728CORPORATION                                             21600
B0101408530516035673001FERROTECH STEEL CORPORATION                              1608
A0101408530516044264001DATA ART DESIGN & PRINT SERVICE                          0501
B0101408530000001275252MANAHAN, ENAGE-ARANGUREN AND ORTEGA                     11602
B0101408530000001275252LAW OFFICES                                             21600
A0101411400000005329831WY, DEE HUA GAN                                          0501
A0101412050000003966763DE LEON, ARTURO PUZON OR                                10502
A0101412050000003966763DE LEON, WILFRED                                        20500
A0101403450000013091742TAN, VON BISMARCK LEONARDO                              10503
A0101403450000013091742OR TAN, VENERAND                                        20500
A0101403610000016692781PAGCALIWANGAN, RESHYL IDJAO                              0501
A0101407720602294680001PEDREGOSA, GERARDO STA ANA                               0505
A0101407720602384186003SARMIENTO, JOSIERINA YANEZA                              0501
A0101407720602396506002DR. ESTELA Z. CABRERA                                    0501
B0101412180000003275261CBII PHILIPPINES INTERNATIONAL, INC                      1605
A0101404260611478374130CECILIA G. ALOQUINA                                      0502
A0101409920000014279042SORILLA, MAUREEN IRAH PEDROSO                            0502
A0101413440000002339631PRIETO, ELOISE INFANTE                                   0501
B0101413570000016679848YAMAT, GENELL DBU THAIWHITE SKINCARE                     1601
A0101406590000014678272VILLAS, LORENZA CARMELOTES                               0503
A1301400210000007669289GONZALES, MARK OLIVER SANTIAGO                           0503
A1301400210682405530003MARITA Y. ESPIRITU                                       0501
A1301400210682635116001DEVORAH M SOTO OR                                       10501
A1301400210682635116001MIGUEL CARLOS B                                         20500
B1301400500000005963404PAGASA PHILIPPINES LENDING COMPANY INC.                  1605
B1301400500000009723071ESTEVEZ, JOEY CENTENO                                    1604
A0101408240000016702179KIM, AMRIT PAL SINGH                                     0501
A0101408240711558994001REAL, RENALYN GASGA                                      0502
B2801400230713045817001ROWENA MINOO SAMURAI, INC.                               1610
B2801400230000009021830DGL 168 LAND INC.                                        1602
A4101400260000016694221GAMBOA, DENNIS AQUINO                                    0501
B4101400260812039799001LAGAMAYO DENTAL CORPORATION                              1601
A4101400420000000711926VILLAFLOR, MINERVA RAQUINO                               0501
A4101400550000011973392GADAYAN, J DBU QUALIHUB MARKETI                          0501
A0101404840000001312656DE VERA, JAYVEE DELA TORRE OR                           10502
A0101404840000001312656DE VERA, FLORDELIZA COSME                               20500
A0101404840000001312554MARIA FE V. MALIG-ON                                     0501
A0101404840851320776002JONATHAN DANCEL                                          0501
A0101404840851415656001LEAL, MARIETTA I. OR                                    10502
A0101404840851415656001LEAL, LEONARDO L                                        20500
A0101405070861197650002********                                                 0502
A0601400230000003015903ABAD, ARNALDO MAGCALAS                                  10504
A0601400230000003015903OR ABAD, CONCHIT                                        20500
B0601400230000010299211RD PAWNSHOP, INCORPORATED                                1605
B0601400230000001062366BEARING CENTER & MACHINERY, INC.                         1601
