B0101403450521821100608**********                                               2030
A0101402060000000445425LIMJUCO, DIANA GOROSPE                                   0501
A0101410300000000592198BARBASA, J DBU TIGER WATER                              10501
A0101410300000000592198STATION & GEN MERCHANDISE                               20500
A0101410300000007613961LASQUETY, MA. WELMINA HONORIO                            0501
B0101400150061025214001MAA CONSULTANTS, INC.                                    1601
A3001400130000014167121NGO, NOEL ENRICO TIU                                     0501
A0101412890000009833521YULO, JISELLE & SINGSON, JOSE &                         10504
A0101412890000009833521VILLACARLOS, MERLA                                      20500
A4101400550000010508631SATO, VIRGIE ABASQUEZ                                    0502
A0101400860000000031621**********                                               0505
A0101401250000008460111SERAFICA, JONATHAN TASIC                                 0501
A0101411370000005524487JOCELYN G. YOSHINO                                       0501
A0101400150000009400613JARDIN, ANALISSA L.                                      0501
B0101400150061010770001GOODWOOD RESOURCE DEVELOPMENT INC                        1601
B0101400150000000633083PHILIPPINE SUGAR MILLERS ASSOCIATION,                   11610
B0101400150000000633083INC.                                                    21600
A0101400150061226678001PAMELA A. CASIN                                          0501
A0101400150061363491001PENA, NILO BITANGA                                       0501
A0101405810072234892001**********                                               0501
A0101405810072696577001CHAN, MERCELYN TAN                                       0502
B0601400100000000032782BARANGAY CUTCUT MULTIPURPOSE COOPER                      1602
B0601400520000009516172ISHA'S MART INC.                                         1605
B0101410850000000005676LIKAS SHIP AGENCY INC.                                   1606
A0101401960121240766001*********                                                0501
B0101401090171036158001AIRBORNE MAINTENANCE AND ALLIED                         11602
B0101401090171036158001SERVICES INC.                                           21600
B0101401090171040108001CANCARE FOUNDATION INC.                                  1605
A0101401090171196128001DRS. ROLANDO CABATU OR                                  10502
A0101401090171196128001MARCELLA RUIZ-CABATU                                    20500
A0101401090171198347002ANGELINA OR JOSELITO PAYURAN                             0501
A0101401090171531698001MARIA ISABEL D. CORNEJO                                  0502
B0301400530193038459169PIONEER BEE CORP. 2                                      1605
B0301400660000012086743ASIA PACIFIC EXPRESS CORPORATION                         1601
A0301400660000014406612VELASCO, ELEANOR SELERIO                                 0501
A0301400790000006269856DEDELES, ARMAN CASCABEL                                  0501
A0301400950000001379091ANGALA, ASTRID ADA SARENAS                               0501
B0301400950000012244870ONEGEN PHARMA                                            1601
B0101401380201025256001MESSE & HANDEL CORPORATION                               1601
B0101401380201026436088L & G INN CORPORATION                                    1604
B0101401380201030648001ITEMP HOLDINGS INCORPORATED                              1601
B0101410720000000029792**********                                               1603
A0101412500000015395523DIZON, MARIA TANYA CRUZ                                  0501
B3001400130000012557892DIANA, MARY ANNE BIANO                                   1602
A3001400130230478374239ATO, AIREN BERNADEZ                                      0501
B1001400190231009544004RI CHEMICAL CORPORATION                                  1608
A1001400190231520766012UBALDE, RICHEL TECSON                                    0501
A1001400190000000016457ANTIGA, LUNITA                                           0501
B1001400350000007920887JCL CONSTRUCTION INCORPORATED                            1603
A1001400480000014370037LEPARTO, JAYMAR CATIAN OR                               10501
A1001400480000014370037LEPARTO, APRIL G                                        20500
A1901400290000011837713CHAVEZ, REMEGIA LAT                                      0502
A1901400290000015392773MARIA CARMELA MARAVILLA DBU                             10501
A1901400290000015392773LOPEZ-MARAVILLA DENTAL CL                               20500
B1901400290261004758001PHILTIMES CREDIT CORPORATION                             1602
A1901400290261198389001ELISA H STURM                                            0501
B0101406460000011598408ESTRELLAS PILIPINAS, INC.                                1610
A0101406620273471170001PANGILINAN, WILHELM JOSEPH C.                            0502
A0101410980000013898867SOLLEZA, ENRIQUE M DBU ES PYTHO                          0502
A0101411110000013536608JUMANGIT III, AMBROSIO CLAUD                             0501
A0101400570281417780001JOYCELYN TAN TANZO, D.M.D.                               0502
B0101402350000012299997CHEM-KHO ENTERPRISES                                     1601
B01014023503210067510010SM SHIPPING PHILS., INC.                                1610
B0101402350000000655492RD PAWNSHOP, INCORPORATED                                1610
A0101402350321456633001JOY ANNE F. TRINIDAD OR                                 10501
A0101402350321456633001DON PAUL F. TRINIDAD                                    20500
A0101405650000006893298UNISA, DEMMAR MAGNAYE                                    0501
A0101405650322337867002LARIOSA, BENECER SANTIAGO                                0501
A0101405650322342825001DIAZ, RHANI JOY TERESITA M.                              0501
A0101402510000015348151DELA CRUZ, CYIR LLANA LIGON                              0501
A0101402510000015356160HERMOSO, EARL KEVIN ANCHETA                              0501
A0101402510341565802002GLAISA A. CLAVERIA OR                                   10502
A0101402510341565802002JAMES RONALDO A.                                        20500
A0101402060000009695607LAI, ALBERT OR LAI, VINCE OR                            10505
A0101402060000009695607LAI, PAOLA OR LAI,LEONIDA                               20500
A0101402060351009359001JIANDANI, SURESH G. OR                                  10501
A0101402060351009359001JIANDANI, KAVITA                                        20500
B0101402060351009365002GREEN VALLEY TOWNHOUSE OWNERS                           11601
B0101402060351009365002ASSOCIATION INC.                                        21600
B0101402060000006931902ASSURANT MANAGED SOLUTIONS INC.                          1602
A0101402060351734699001RAMNANI, MICHAEL CHRISTOPHER                            10502
A0101402060351734699001MURPHY                                                  20500
B0101409050352041306001STRAWBERRY FOODS CORPORATION                             1603
A0101409050352622303001PRINCESS P. SNELL                                        0501
B0201400760374032867001J.I. PRINTERS, INC.                                      1601
A0201400920000012765101TANILON, ELENA CIMAFRANCA                                0503
B0101402930381019173001MANILA LUXURY CONDOMINIUM CORP.                          1601
A0101402930381063874001PASCUA, J DBU BEYOND D' NUMBERS                          0501
A0101402930000007031001DELOS SANTOS, YOLANDA MAGSINO                           10501
A0101402930000007031001OR DELOS SANTOS, EMMANUEL                               20500
A0101408370000010833480CO, PATRICK JAMES ENDICO                                 0501
A0101408370382376113001ERLINDA C. ORACION M.D.                                  0501
A0101408370000006446455ESGUERRA, CARLOS PONCIANO REYES                          0501
B0101408400000012225482SINCERE FACADE INNOVATION, INC.                          1604
B0101408400000004733773SINCERE FACADE PHILIPPINES, INC.                         1603
A0101408950000014970751CATARROJA, RAYMUNDO BAMBAO                               0501
A0101409180000002036642GARCIA, KAREN MICHELLE PADILLA                           0501
B0101409210000006599002MERCANTILE SECURITIES CORPORATION                        1603
A0101412210000000238544QUIOHILAG, ABAIGEAL LIM                                  0501
A0301400820000002106310AQUINO, ROLAND RAPHAEL A.                                0501
B5501400120000002348290BASILIO, STEFEN ENDAYA                                   1602
A2401400180000002146185SUICO, RENATO PADAL                                      0502
A1201400150000006253669LONTOC, JINKY DELOS SANTOS                               0504
A0101412890000007095447BERNARDO, ZENA BERNARDO                                  0501
A0501400170000002354623CARDOZO, JENNY MAE GARCIA                                0501
B0501400170481025398002COSTSAVER'S SUPERMARKET, INC.                            1602
A1901400160491063374002GARING, DBU EG PLUS FEEDS AND                           10502
A1901400160491063374002POULTRY SUPPLY                                          20500
B1401400110492031376001LUCENA WHEELER ENTERPRISE INC.                           1603
A1601400170000001069103KEN CLEMENTE OR CHARLES CLEMENT                         10502
A1601400170000001069103E JR OR LORENA C                                        20500
B0701400260000007895883DELLORO JR., WILLIAM PASTOR DBU JODANS                  11605
B0701400260000007895883ENGINEERING                                             21600
A0701400260000014169081PRIMERO, LIAH ALBIA                                      0501
B0101407430503045582001PRO FREIGHT INTERNATIONAL CORP.                          1601
A0101407430503436029001CACHO III, MARIANO NERA                                  0501
A0101403580000013963625ANAMA, RONALD GERMAN                                     0502
B0101403580000010847391THE CONTAGIOUS SECTION PRODUCTIONS                       1601
A0101405940000001534269**********                                               0501
A0101411790000011045768TACBAS, ANALYN LAURETA                                   0501
A0101412050000011949372Macey's Trading                                          0504
B0101403450000008069181ANTARCTICA COLD STORAGE INCORPORATE                      1603
A0101403450521392545001NANETTE CHRISTY O. CHING                                 0501
A2201400250000003558252MALONZO, VICTOR SANTOS                                   0501
B0101404130000009342376PROVENTA CONSULTING LIMITED                              1602
A0101412180000014979829HALAMANI JR., WILMOR CASTRO                              0501
A0101409890000006812906TEODORO, JACKIELYN DBU                                  10502
A0101409890000006812906JRGT ENTERPRISE                                         20500
A0101407690652478374131TARROQUIN, NORA - DEALERS OF                            10501
A0101407690652478374131SHOECAT, INC.                                           20500
B0101413440000001085672AMA EDUCATIONAL SYSTEMS HOLDINGS INC.                    1605
A0101413990000006278237DE CASTRO - AGBUYA, HAYDEE AMOR                          0501
A0101414120000002172527AMELIA DE JESUS OR EDGARDO                              10502
A0101414120000002172527DE JESUS                                                20500
B0101414120000000399093*****                                                    1602
A0101406590662044702001PTS TUTORIAL AND REVIEW SYSTEMS                          0502
A0101410300000000191939CARBALLO, LUIS ANTONIO S. OR                            10510
A0101410300000000191939SALAZAR, EMMANUE                                        20500
B1301400340000009310401NAZARENUS COLLEGE AND HOSPITAL                          11602
B1301400340000009310401FOUNDATION INC.                                         21600
A1301400340683776169001BARAQUIEL, JOCELYN LIM                                   0502
B0101408240000015356615PCPEREZ AQUA FARM INC.                                   1601
A0101408240711432303002PADILLA, BERNADINE BALUYUT                               0501
A0101408240000008160143ROWENA P. GONZALES                                       0502
A4101400390000000975015EMMARUTH FERRY ONNAGAN                                   0501
A4101400390000015381816TOSHIO KIMURA                                            0501
A4101400390813478374060CASTRO, AMELIA                                           0501
A4101400420000012882834LOPEZ, BERNADITH SORIANO                                 0501
A4101400420814520766064ANDAYA, AURORA A.                                        0501
A4101400550000002091043RAMIREZ, CYNTHIA TAN                                     0502
A0101404840000007937111COLANGOY, JENNY ROSE R.                                  0501
B0101404840000015242992BAESA STA.QUITERIA PLAZA CORP.                           1601
B0101405070000006006002SFM EXPRESS LOGISTICS CORPORATION                        1602
A0101405070000003439741ALARO, JHON REY PADURA                                   0501
A0601400230000005185833DUMAN-AG, MERCEDES MANUEL                                0501
A0601400230000013259326MUNOZ, MICHAEL FERNANDO                                  0505
