A0101400150000012146160RAMOS, JENIFER LOBRIGO                                   0501
A0101400150061192731001SHIRLEY BANGAYAN OR LUCIO RODRI                         10502
A0101400150061192731001GUEZ OR TEOFILO BANGAYAN                                20500
A0101413150000011778308***                                                      0505
B0101403580000007864211MILLENNIUM ERECTORS CORPORATION                          1610
B0101403580000010847460MEC - VISTA GL                                           1610
A0101403580511693764001MESIAS, MARIA CARMINA SANTIAGO                           0502
A0101403580000000016053MARIA CARMINA S. MESIAS                                  0506
A0101400860000005313148******                                                   0506
A0101400860011388535002*********                                                0502
B0101400860011389659002**********                                               1603
A0101400860011507959001**********                                               0501
A0101401250000000057101*****                                                    0501
A0101401250000000057101RENDON, JOSEPHINE REYES                                  0501
A0101401250021282275001FRANCISCO D. RESTRIVERA                                  0502
B0101400150000000052720SOUTHKEY DEVELOPMENT CORP.                               1620
A0101400150000006004251MIRANDA, MARY GRACE LUCERO                               0501
B0101400150061010719001MAGALLANES SHELL EXPRESSWAY STATION                      1601
B0101400150061010845001LUCY PROPERTIES, INC.                                    1603
B0101400150061044752001BASIC ENERGY CORPORATION                                 1601
B0101400150061228498001KEYLAND AYALA PROPERTIES INC.                            1605
A0101400150061229009001MANGLAPUS III, RAUL JAY OR                              10501
A0101400150061229009001MANGLAPUS, JENNI                                        20500
A0101400150061510141001MAPANAO, BILLIE TAMSI                                    0501
A0101400150061686122002ZABALETA, JUAN XAVIER OR                                10503
A0101400150061686122002BERENGUER-TESTA,                                        20500
A0101400600071351088001LIM, IT BENG                                             0501
B0101405810072019239001**********                                               1601
A0101405810072369274002***********                                              0505
B0601400520000007553764ACHIEVERS SPECIAL EDUCATION CENTER                       1601
A0601400520000009516907LAZATIN,JANET RITA BAUTISTA DBU                         10503
A0601400520000009516907PRINCESS KIT CARGO MOVERS                               20500
A0101414090000011597650GONZALES, MICHELLE ANNE BALUYUT                          0505
A0101410850109053560002HERNANDEZ, JUNE JT DBU JUNE AND                         10501
A0101410850109053560002YVETTE TRUCKING                                         20500
A0101400730000000645692ELEGIDO, FELIX ERIA OR                                  10502
A0101400730000000645692LEONA D. ELEGIDO                                        20500
B0101400730111008426001COUNTRY BANKERS INSURANCE CORPORATION                    1606
A0101400730111203514012BERNARDO, FRANCIS ROBERT S.                              0501
A0101401960000012773092HUANG, LIYI                                              0501
B0101401960121033060001**********                                               1601
A0101401960121238671001**********                                               0501
A0101413150000005319142****                                                     0501
A0101413150000006294120*******                                                  0501
A0101412630000009425190RAMIREZ, WILLIAM REYES                                   0501
A0101413310000013764086PACAMARRA, GILMARIE FE SALVA                             0501
B0101401830000013778482CUEVAS, ALFREDO S. DBU ASC501 ELECTRICAL                11601
B0101401830000013778482SUPPLY AND SVCS                                         21600
B0101401830141008916001PRIMARY ELECTRICAL & ELECTRONIC                         11603
B0101401830141008916001SUPPLY, INC.                                            21600
A0101401830141069176001DEL VALLE, PEPITO DBU VIPECK                            10501
A0101401830141069176001GRAPHIC DESIGNS                                         20500
A0101401830000011228958PAGDUNZULAN, ALLAN MACALINTAL                            0501
A0101401830000002274302ESTRERA, ESCOLASTICO NAVA                                0501
B7201400170000003773477RONALD O. DIAZ OR LORRAINE C. DIAZ                       1602
A0101412920000011166544PAGUIO, PATRICK JOHN SALALILA                            0502
A0101400440161039572043CERENO, GLECY GUTIERREZ                                  0503
A0101400440000006679732REVILE C. ABONG                                          0502
B0101400440161186956001NUMERIANO H. HERNANDEZ                                   1604
B0101407270162043119001GREENFIELD AGRI-MACHINES & PARTS                        11601
B0101407270162043119001CORPORATION                                             21600
A0101407270162431645001MARYO J. DE LOS REYES                                    0501
B0301400530000002318463YANG, ANDREI REYES                                       1610
A0301400790000005692180DAHOYAG, JINGKIE ALEJADO                                 0502
A0301400950000001379546SARABIA, MAY JOY DUCO                                    0501
A0301400950000008869076**********                                               0502
A0301400950000010701105TRAYA, JONATHAN SANCHEZ                                  0502
A0101401380000002297550**********                                               0501
A0101412500000002304774BUGAOAN, IVY ILLESCAS                                    0501
A3101400870000008979964MACABABAYAO, ALLAN ESQUEJO                               0501
A3101400870000005565335ESTRAVO, EULALIA MAGPAYO                                 0502
A3001400130000000007063GOLDEN HARVEST CATERING SERVICE                         10502
A3001400130000000007063FASTFOOD                                                20500
B3001400130000000067252INTERPACE CORP.                                          1602
A1301400470000005737835CHAROL GAY G. FERNANDEZ                                  0501
A1301400470252542724001EMMANUEL S. PAYNOR OR                                   10502
A1301400470252542724001MA. CRISTINA SALAS-PAYNOR                               20500
A1301400470252763998001BEVERLY C. EVANGELISTA                                   0501
A1301400760000008698957TORRES, BERNARD PACHECO                                  0502
A0101406460272391534001MA. VICENTA G. NAVAL OR                                 10504
A0101406460272391534001COSME ILDEFONSO                                         20500
A0101408660000002264826NATHANIEL C. ZULUETA                                     0505
A0101408660274346120001SHI, FENG LIAN CHEN                                      0502
B0101411110000001037103D2B MULTI-VENTURES INC.                                  1601
A0101400570281192972002BALMORES JR., BENJAMIN A.                                0506
A0101411240000013639415CABANILLA, LUZVIMINDA VALLENTE                           0501
A0501400200000013753038CABOTE, ANNALISA ACOSTA OR                              10502
A0501400200000013753038CABOTE, ARNULD PACLIBONG                                20500
A0501400200000013757361GRAMATA, ROSEMARIE TENOZO                                0502
B0801400160000000010271EON REALTY AND DEVELOPMENT CORPORATION                   1605
A1101400120313478374028NEGRIDO, JINKY G.                                        0501
A1101400120000006186478BOLECHE, MERLINE BANDALA                                 0502
A1101400120000000652351YAO, RONALD PHILIP GO                                    0502
A2901400130000011947483TOLENTINO, MARIA MAYA BIEN MAYO                          0501
A0101402350321030449001R.L. OK AUTO SALES & SERVICES                            0501
A0101402350321612188001CAMACHO, ALLAN OBIES                                     0501
A0101402350321612188001CAMACHO, ALLAN OBIES                                     0501
A0101402510341196445001ROSITA G. SANTOS OR                                     10503
A0101402510341196445001HEPTY D. SANTOS                                         20500
A0101402510341196719001YOUNG, FELINA U.                                         0501
A0101402510341588910001JOPSON, JESSICA GEPOLIO                                  0502
A0101402060351217440026CARLOS III, MENELEO G.                                   0501
A0101402060351384997001CHOI, JAE SOOK                                           0501
A0101409050352512591001JENNEFER A. FLORES OR JOHN                              10501
A0101409050352512591001KENNETH C. FLORES                                       20500
B0101409050352701366001GATE DISTRIBUTION ENTERPRISE, INC                        1601
A0201400920000000007883TE, MARIA LUISA I. OR                                   10501
A0201400920000000007883TE, HAROLD DERRICK                                      20500
B0201401020000000042264DEJARESCO DBU PCD TRDNG & GEN MDSE                       1601
B0201401020000005109900CEBU DULCINEA HOTEL AND SUITES INC.                      1601
B0101402930381018948001INTERGEN PROPERTIES, INC.                                1601
B0101402930381030518001CREEKSIDE PARK (CSP), INC.                               1601
A0101402930381241546001DRS. AMIEL CORNELIO DELA CRUZ                           10502
A0101402930381241546001OR MA. LENNIE DE                                        20500
A0101402930000000053330BANIQUED, CARLOS G.                                      0502
A0101402930381453357001DR. CARLO GIOVANNI B. LOZADA                             0504
B0101408370382033484001THE MEDICAL CITY CARDIOVASCULAR CENTER                   1601
B0101415350000003212448VESTICOM, INC.                                           1601
A0101402770000009247150ESTANOL, ANGIE MALATE                                   10501
A0101402770000009247150DBU ALLIANCE CRAFTS                                     20500
A0101405490000000355673PASCUA, VIOLETA ZACARIAS                                 0501
A0101405490392741525001JO A. BANAWA                                             0501
A0101408400394409975001LUZON, MARY JANE DE TORRES                               0501
A0101408400394559866001SALCEDO, JULIETA GARCIA                                  0501
B0101408950396040461001ST. LUKES MEDICAL CENTER GLOBAL CITY                    11601
B0101408950396040461001CANCER INSTITUTE                                        21600
B0101408950000002768392SECTION OF MEDICAL ONCOLOGY SLMC GLOBAL                 11601
B0101408950000002768392CITY                                                    21600
A0101408950396560269001EVELYN GO GAPUZ                                          0501
A0101409210000000502361CARLE, NOMAR CULTURA                                     0501
B0301400820000013756551ARELLANO, TITO AND ARELLANO, MERLYN                      1601
A5501400120410079529001DENOSTA, ERLYN DUMAQUITA                                 0501
A5501400120410633077001CLAVISILLAS, JOSIE OR                                   10501
A5501400120410633077001CLAVISILLAS, RON                                        20500
A1201400150421295171001BORROMEO, CAROL QUILING                                  0501
A5101400100000011337141POBLETE II, REYNALDO DE ASIS                             0501
A5101400100000010371245CHEN, LILIBETH DONAIRE DBU JINF                         10505
A5101400100000010371245ATS ENTERPRISES JT                                      20500
A0101403030441405779001**********                                               0502
A0101403030441481559002**********                                               0501
A0101412890000000543020ANGAT, FILBERT GLORIOSO                                  0501
A0101412890000009833601DACER, CESIAH OPULENCIA                                  0502
A0501400170000000018248MONTEMAYOR, AILENE JOY SAMOY                             0501
B3801400170490051151002MINDORO PPA EMPLOYEES MULTI-PURPOSE                     11601
B3801400170490051151002COOPERATIVE                                             21600
A0701400260000000041027CU, LYNDY ROSE ESCALONA                                  0501
A0101407430000013169507ABALOYAN, MA. LIZA NATIVIDAD                             0501
B0101403580511015363001MILLENNIUM ERECTORS CORPORATION                          1610
A0101408530000005493438MENDOZA, MIKHAIL                                         0501
A0101408530516615903040ROWENA MARIE MANALO                                      0502
A0101411400000001140350BARCELO, ANA RUBIE TALAG                                 0503
A0101411400000002301126PALMA, APRIL NORICH SUAZO                                0503
A0101411400517750119001AGUINALDO, SONNY SY                                      0501
A0101411790000013778573PUGAY, MARTT ERRUZE OR ZAPANTA,                         10501
A0101411790000013778573MAITTA RIZZA                                            20500
A0101412050000000890882********                                                 0502
A0101412050000009495510YAP, KELVIN H. OR                                       10501
A0101412050000009495510YAP, INGRID MARI                                        20500
B0101403450000011473533*********************                                    1602
A0101403450521012086001**********                                               0502
A0101404130000000043901BRILLO, RUBIAN GENER                                     0501
B0101404130000005962092GOLD NUGGETS HAULING AND TRUCKING C                      1602
B0101404130601100161001PRUDENTIAL CUSTOMS BROKERAGE SERVICES,                  11610
B0101404130601100161001INC.                                                    21600
A0101412180000004089043ALMENDRALA, ALLAN ALFREDO                                0502
B0101412180000001293118PREMIERE GLOBAL LAND REALTY 888 INC                      1602
A0101412180000000037881GONZALES, NEAL JOSE ORTIZ                                0502
A0101404260611478374075VIVENCIA HATOL                                           0501
A0101409890649044793001**********                                               0501
A0101409890000003098213AQUINO, VIL DBU JOVAROM                                 10502
A0101409890000003098213COMMERCIAL                                              20500
A0101411530000002260384PALILEO, JOANNE CATRAL OR                               10501
A0101411530000002260384PALILEO, AARON ANDRADA                                  20500
A0101413440000007952961FERRER, JASPER VALIENTE                                  0501
A0101413440655056675001CUEVAS, MELANIE  DBU                                    10501
A0101413440655056675001COVA ENTERPRISES                                        20500
A0101413440000000570369CUEVAS, MELANIE ELAINE JAVIER                            0501
A0101413990000013769663BENZON JR., JACINTO REYES                                0501
B0101413990000013769156ARKEFELLER CONSTRUCTION INC.                             1601
A0101410300000000026462SYCIP,JOHN CARLOS/BANTIGUE,JOHN                         10510
A0101410300000000026462PAUL/ESQUIVIAS,J                                        20500
B1301400210000000023543SAN PABLO LIAM FOODS CORPORATION                         1603
A0101408240000011487126NAPA, MARJORIE LASCANO                                   0501
A0101408240711478374015EMILY MONTILLANO                                         0502
A0101408240711487311001RACHO, DESIDERIO OR TRANQUILINA                         10502
A0101408240711487311001OR ANNA OR ARTHU                                        20500
A2801400230000000008244FRONDA, GREGGSON JULONGBAYAN                             0501
A4101400260000002888380SILLA, LUZVIMINDA LUMBRE                                 0501
A4101400260000010623462TORTONA, EDGARDO J. DBU DOUBLE                           0502
A4101400260812391243001SHUANG TING CAI                                          0501
A4101400420814044710001RDJ CAR PARTS CENTER                                     0502
A4101400550000004846857CATIPAY, LADELLE PAGLINAWAN                              0501
A4101400550000002344178RAMOS, JOVITA ROQUE AND GAWARAN                         10502
A4101400550000002344178GREGONITO GREGORIO                                      20500
A0101412340000003345760MIGUEL ANGELO A. REYES                                   0501
A0101406750000004642062EDGAR LITTAUA                                            0501
A0101405070861280267001CHUA, SONNY HUI                                          0501
A0601400230000000452782GOZUN, R-JAY RAMOS                                      10510
A0601400230000000452782OR GOZUN, MYRNA                                         20500
