A3001400130230478374004BALABA, JANETH BORJA                                     0501
A1301400760000003415596PATRICK C. MUNCAL OR                                    10501
A1301400760000003415596LEA IVY F. MUNCAL                                       20500
A0101403610531219534002DUNGLAO, FELICIDAD ANCHORIZ                             10502
A0101403610531219534002OR DUNGLAO, JOSE                                        20500
A1701400230693635864001SORIANO, JOSE JOEY QUINTO                                0501
A0101400860000003571680*************                                            0501
A0101400860011543498001**********                                               0501
A0101401250000004374641DOMINGO, EDWIN V. OR                                    10505
A0101401250000004374641DOMINGO, LAURA MANUELA S.                               20500
B0101400150061010855001MANTA EQUITIES, INC.                                     1610
B0101400600000001335682********                                                 1605
A0601400100081028046001TANDEM INTERIOR DESIGN STUDIO                            0505
A0601400100081095913001BASA, AISA LEDOMA                                        0501
B0101413730000001568469***********************************                      1602
A0101400730111201344001LUI, CHI WAI OR LUI, ADELE                              10502
A0101400730111201344001SALIGUMBA                                               20500
B0101406040000000096633*********                                                1601
A0101413150000002299283******                                                   0502
A0101413150000003208335SHI, SHANYA                                              0501
A0101413310000002317886DELA ROSA, RAMIL MIRANDO                                 0502
B0101401830000000033605CARITAS SALVE CREDIT COOPERATIVE                        11604
B0101401830000000033605(QUIAPO-005)                                            21600
A0101407270162642564001BEATRICE E. DE SANTOS OR MARIA                          10501
A0101407270162642564001VICTORIA E. JALU                                        20500
B0101401090000005157780INGUSAN, GREGORIO & INDUCTIVO, LINA &                   11604
B0101401090000005157780INGUSAN, ARSENIO                                        21600
A0101401090171031503001MINT MUNCH CANTEEN & GENERAL                            10501
A0101401090171031503001MERCHANDISE                                             20500
A0101401090171200556002MARY CATHERINE C. CHUA                                   0501
A0101401090171679816001GRACIA MARIA P. PIMENTEL                                 0502
A0301400660000001113795VILLADAREZ, RICHARD RANIS                                0501
A0101410720000002284000ANCHETA, B DBU BEATALENT                                10501
A0101410720000002284000DEVELOPMENT                                             20500
A0101410720653385187001SERVILLANO H. GALVEZ JR. OR                             10504
A0101410720653385187001KAREN F. GALVEZ                                         20500
A0101410720653528817001VINCENT GONZALO SY OR TIMOTHY                           10502
A0101410720653528817001JON SY OR JULIE                                         20500
B0101412500000000041749UNITED DOCTORS MEDICAL CENTER, INC.                      1620
A3101400160221356270003RONALDO PUA & JOSE BACUD & ELI                          10502
A3101400160221356270003MALAYA JR & NICOlAS MOLON                               20500
B1001400190000000016366CAREWELL BIO-MEDICAL SYSTEMS CO.                         1605
A1001400480000000606911FREGIL JR., BENITO GO OR FREGIL                         10501
A1001400480000000606911MICHELLE                                                20500
A1901400290000001975324DEL CASTILLO, CLARIZZ JIMENEZ                            0502
B1901400290261049824001BONLOU, INC.                                             1610
A1901400290261249438001TERESITA LAZCANO LARDIZABAL                              0502
A1901400290261355605001PAZ CRISTIANA TIAMSIM LANDICHO                           0501
A0101406460272770235001LOPEZ, SUSANNA LIM                                       0501
A0101406620273215980002GLORIA CHOA CHUA                                         0501
A0101406620000001686768GUERZON, ANGELUZ                                         0501
A0101400570281043930002REALTY & ENTREPRENEURSHIP                               10501
A0101400570281043930002ACADEMY OF THE P                                        20500
A0101400570281235501001CARLOS TIU OR ROSARIO TIU OR                            10502
A0101400570281235501001CHRISTOPHER TIU                                         20500
A2601400270000002677547MILA R. VALDEZ                                           0503
B2601400270302046854001H.A. DULDULAO & CO., INC.                                1605
A1101400120000001547473LIM, DOROTHY DELL S. OR                                 10502
A1101400120000001547473LIM, RICHARD Y.                                         20500
B1101400120000000653105PERPETUAL HELP MULTI-PURPOSE COOPER                      1602
B1101400120313036430002LEYTE HOME DEPOT INC.                                    1610
A1101400120000003022555ABUYABOR,JOY O. DBU SEVENTH                             10502
A1101400120000003022555ANGEL FAMILY HEALTH CARE                                20500
A1101400120000000652697CASTILLOTE, GRACITA G.                                   0501
A1101400120313634109001ANDALES, IMELDA ANGULO                                   0502
B6601400120314050601002CARPIO, WILBERT DIANO DBU CTC                           11601
B6601400120314050601002CONSTRUCTION AND                                        21600
A6601400120314668441002MASLOC, SHERRY AMOR GALONO                               0501
B0101402350321006710001DASMA CITYWIDE GEN MDSG INC.                             1604
B0101405650322024999001SUPERIOR MAINTENANCE SERVICES, INC.                      1620
A0101402510341395821002ALAMILLO, JUANITA P. OR                                 10501
A0101402510341395821002ALAMILLO, KENNETH P.                                    20500
A0101402060351038689001E.E. REYES ENTERPRISES                                   0501
B0101409050352043882001NONITO SHOES AND BAGS SUBCONTRACTOR                      1605
A0201400760374030540001ST. FRANCIS MANPOWER SERVICES                            0501
B0201400760374048047001MHT REAL ESTATE DEVELOPMENT                             11601
B0201400760374048047001CORPORATION                                             21600
A0201400920375513629001CHUA, JENNIFER OR CHUA, EUGENE                           0501
A0201400890000002270231CORTES, MARICEL MONTEROSO                                0502
A0201400890000005159957***************                                          0501
A0101408370382379254001DR. CESAR A. DE LEON                                     0501
A0101402770000001570725DBU CHRISTINE MANALO VILLAMORA                          10501
A0101402770000001570725INTERIOR DESIGNS                                        20500
A0101402770391211308001*********                                                0506
A0101408400394036671001CAIT FURNITURE SHOP                                      0501
A0101408400394471974002PESICO, GINA GERALDINO                                   0501
A0101408400394524529001EMERSON CRUZ OLIVER                                      0501
A0101408950000002255370CHIA, CATHERINE ANNE TEO                                 0503
A0101408950000004512092BERT DC CHU                                              0501
A0101408950396046916001DentalOne, Inc.                                          0503
A0101408950396754657001ALTONAGA, TIMOTHY JIM SANTOS                             0502
A2401400180000002284131GARCERA, MARK ZEANREH HERNAEZ                            0501
B2401400180411043965001BRIGADA HEALTHLINE CORP.                                 1605
B2401400180000000073670BRIGADA HEALTHLINE CORP.                                 1620
A2401400180000000427985CULLO, KRISTIANNIE LOVE ROSARIO                          0502
A2401400180411539646003ONCADA, VANESSA CALUBIA OR                              10502
A2401400180411539646003ONCADA, JOSEPH Q                                        20500
A2401400180411555367001EVANGELISTA, EMMANUEL JERUS                              0502
A2401400180000001935782ONAS, ROSITA PLANOS                                      0501
A2401400180000000826102SORIA, DONNA DONES                                       0501
A2401400180411623548001ASIS, CITA DELIA CABADING                                0504
A2401400180411658464001FRUTO, RUTH GENAYAS                                      0501
A0901400220432731076001JAMANDRE, EMBE ARAGON                                    0501
B0101403030441021825001**********                                               1603
A0101403320000001803481GUZMAN, MARLON ONG                                       0502
A0101403320471040994002E. LAJERAS BUILDERS AND TRADING                          0501
A0101403320000000067565DE CASTRO, RENIEL DBU                                   10502
A0101403320000000067565E+DC ARQUITECTOS                                        20500
B0101403320000001647149UNIGOLD EVENTS AND PROMOTION MANAGEMENT                 11602
B0101403320000001647149INC.                                                    21600
A0101406330000001235409DE LOS ANGELES, JAIME EMILIO                             0501
B01014063304720209890011 TO 1 MARKETING INC.                                    1605
A0501400170481046585002ANG, JUSSLYNN DBU                                       10501
A0501400170481046585002AVS DISTRIBUTION                                        20500
B1401400110492010148001COTTA REALTY & DEVELOPMENT CORP.                         1606
A0701400260000001804622PENTECOSTES, MEDINA GUERRERO OR                         10501
A0701400260000001804622HONRADO, MARILYN SERRANO                                20500
A0101407430000000521071TERESITA V. LORENZO                                      0501
A0101406880000000027090NG SY, CHARLES STEPHEN SUPAN                             0501
B0101406880513281235001LUCKY MONEY LENDING CO., INC.                            1603
B0101403450521020418001**********                                               1605
A0101403450521372678001**********                                               0502
B0101403610531036705002A.P.D. LEASING OF REAL PROPERTY                          1602
A0101403610531323735001OLAZO, ROSE RODILLAS OR                                 10501
A0101403610531323735001REDADO, CHERYL OLAZO                                    20500
A0101403610531478374003ARANA, MA. CORAZON B.                                    0502
A0101404000551303308001***                                                      0501
B2201400250000001545535PARAGON MANPOWER & GENERAL SERVICES                      1603
B0101404130601563008001I. PRUDENTIAL SHIPPING AGENCY SERVICES                   1605
B0101407720602005968001MEDICAL PLAZA MAKATI CONDOMINIUM                        11605
B0101407720602005968001CORPORATION                                             21600
A0101407720602397464001CESARIO, RODRIGO GONZALES                                0505
A0101407720602484582001MARIA ROWENA M. ANTENOR OR                              10501
A0101407720602484582001MARIA VICTORIA M. ANTENOR                               20500
A0101412180000000501482********                                                 0502
A0101404260611150835001HENRY OR LAI SHA CHING                                   0506
A0101404260611478374109ANGELITA SIQUIJOR                                        0501
A0101409890000003098008REYES, VINCENT ALEGRE                                    0503
A1301400340000002283843********                                                 0502
A1301400340000002283810EDNAVE, KERIMA ANN GARCIA                                0503
B1701400230693041727001SHOP AND GO CONVENIENCE STORE                            1603
A0101408240711656808001RAMIREZ, ANNA CARMELA OR                                10502
A0101408240711656808001MICHAEL RICHARD                                         20500
A4101400550815043110001AAD GASOLINE STATION                                     0510
A0101404840851214627001ALLAN GERVASIO OR                                       10501
A0101404840851214627001EMMA GERVASIO                                           20500
A0101404840851416355001SUREL, ANDREA H.                                         0502
A0101404840000001312703RUIZ, ELLEN ESPELETA                                     0501
A0101406750000001491783LUNA, CHERRY ANNE YERRO                                  0501
A0601400230000000029923VARGAS, ELVIN OLIVEROS                                   0501
