F0101402770391030168001XYTRIX SYSTEMS CORPORATION                               2605CKR
F0101403290461029163001PHIL.ASSO.OF SERVICE EXPORTERS,                         12605CKR
F0101403290461029163001INC.                                                    22600CKR
F0101403320471046476001ZHOEBLESS CORP.                                          2601CKR
F0101409500000000217109ASPEN CONSTRUCTION &                                    12610CKR
F0101409500000000217109DEVELOPMENT CORP                                        22600CKR
F0101407720602020882004UNIVERSAL STAFFING SERVICES,                            12601CKR
F0101407720602020882004INC.                                                    22600CKR
F0101414670000003090111POWER EXPRESS FORWARDER, INC.                            2601CK1
F4101400260812031790001SY ON INC.                                               2610CKO
F4101400260000000002171CAPACIO, MILAGROS RAFOL                                  2502CKO
