B0101401090171821100608**********                                               2004
B1201400150421821100608**********                                               2001
A0101408530000002260151GEROCHI, AXEL TRECHO OR                                 10502
A0101408530000002260151GEROCHI, RICO MA                                        20500
A0101410720653693151001SAMBRANO, CARMELITA ASIS                                 0501
A0101410720000004626346**********                                               0501
B0101410720000005786736S+P GLASS CO.                                            1601
A0101410720653768067001DELOS REYES, MA. ERIKA WONG                              0501
A1901400290261061718001CUMAGUN, DULCIS MA. PURISSIMA R                         10503
A1901400290261061718001DBU DULCISSIMA BAKESHOP                                 20500
A1101400120000013536700DAIZ, MA. CHONA BADANOY                                  0501
A0301400950000002115377MANGAHAS, REX REYES                                      0502
B0301400950000006054097IN-VITRO FERTILIZATION - DAVAO (IVF)                     1602
A0101410720000008730774PASCO, ANNALIZA ALCANTARA                                0502
A0101410720653478374002ZENAIDA O. CARLOS                                        0501
A0101412500214069342001UY, MARK HOMER SEE DBU VMU                              10501
A0101412500214069342001CONSTRUCTION                                            20500
A1901400290000011794593EMMANUEL MATANGUIHAN DIMAYUGA                           10501
A1901400290000011794593OR SHIELA MARIE DIMAYUGA                                20500
B1901400290261012814001PJ LHUILLIER, INC.                                       1605
B1901400290261029733001PAWNCARE SERVICES INC.                                   1605
A1901400290261247051001RUFINA LAYLO COMIA                                       0501
A1901400290261290534001EDNA G IMPERIAL OR                                      10501
A1901400290261290534001LUCITO N IMPERIAL                                       20500
B1101400120000006186883ONG, VIRGINIA PO AND ONG, WAN LIAN PO                    1601
A1101400120000001547520TAN, MELVIN NATHANIEL ANDRADE                            0503
A1101400120000009119706CORMERO, GRACE VELARDE DBU                              10503
A1101400120000009119706VORTEX A                                                20500
A1101400120313478374071ZACARIAS, MARIA FE LERIOS                                0501
B1101400120000008001210YU, ROBERT LIM OR YU, ROXANNE LIM OR                    11610
B1101400120000008001210YU, PAMELA LIM                                          21600
A0101412050000014386979SALVADOR, MARIA CHRISTINE I. OR                         10501
A0101412050000014386979SALVADOR, EMERSON D.                                    20500
B0101409890000003098122GOLDEN CITY PRINTS & NOVELTIES, INC                      1601
B0101413440000014338100FRANCISCO, MEGAN SHYNNE DBU MEGA-APPS                   11601
B0101413440000014338100BUILDERS                                                21600
A0101400860000005313171**********                                               0503
A0101400860011498256002**********                                               0503
A0101411370000003294882CHANDRASEKAR, SANJAY                                     0503
B0101400150061033285001D' LUCKY ACE DEVELOPMENT CORPORATION                     1601
B0101400150000000633527MIL OROS CORPORATION                                     1601
B0101400150061040558001CORDILLERA EXPLORATION CO., INC                          1601
B0101400150000000633538MANISA TERRANO DEVELOPMENT CORPORATION                   1601
B0101400150000000633561TOTAL CLEAR SVCS. CORP.                                  1601
B0101400150000000633572DACARNES, INC.                                           1601
B0101400150000001708356TARRIELA MANAGEMENT COMPANY, INC.                        1602
A0101400150061055752087PATRICIA ANN V. CELIS                                    0503
A0601400100000006092548****************************                             0501
A0601400100081507583001CANLAPAN, MARICAR TAPNIO                                 0502
A0101414090000002282793CHUA, PAMELA LESLIE JEAN LEE                             0502
A0101401830000001140101BLANCO, ROSALIE NAVARRETE                                0501
A7201400170000009673152**********                                               0501
A7201400170000009673345PUNSALAN, JOVER CALMA OR                                10501
A7201400170000009673345PUNSALAN, ROWENA LIANSING                               20500
A7201400170000011454287OBAOB, MARIE FE MARAASIN                                 0501
A7201400170000011454276MALINAO, AMESILE MAGHINAY                                0501
A7201400170000006487723BRANZUELA, KHIR GONZAGA DBU                             10502
A7201400170000006487723UNILEAD BUILDERS AND ENT.                               20500
B0101400440000005393717RD PAWNSHOP, INCORPORATED                                1605
A0101400440000000821298DIOBET ERDIE I. DIOQUINO                                 0502
A0101400440000000596630MARY ANN A. OYARDO                                       0501
A0101400440000004889785ELEANOR A. APO                                           0501
B0101400440000005393842GOLDEN SQUARE TURNKEY SOLUTIONS, IN                      1602
A0101407270162332974002MARIO I. ALBA                                            0501
A0101407270162472069001MARVIN L. SONGCO OR                                     10502
A0101407270162472069001AMELISA CHELO Y.                                        20500
B0101401090000000210551CYNTHIA C. AFABLE AND MARY ROSE CORONEL                  1601
A0101401090171202809001KASHMER T. CRUZ                                          0501
A0101401090000010238416CHERILEEN R. CRUZ                                        0501
A0301400530000014269571CAUBE, JOENRIE  DBU J AND G                             10502
A0301400530000014269571MARKETING AND OSIN, GLEN                                20500
A0301400530193659725008********                                                 0502
A0301400530193659725168TIU, GWYNETH TERESA W.                                   0502
A0301400950000008000660PE BENITO, HAZEL ANN NERI                                0503
B0301400950000009938334COASTLAND CONSTRUCTION AND DEVELOPMENT                  11601
B0301400950000009938334CORPORATION                                             21600
A0101412500000014395925VILLANUEVA, MANSUETA EMPLEO                              0501
A3101400160000014144019SAAVEDRA, POLLY ANNE LORRAINE                            0501
A3101400450000001104083GAVINO, NELJAY FLORES                                    0501
A3101400450000012147647DELA CRUZ, ESTELA ESCUETA                                0502
A3101400450000009464684ARAMBULO, ARTRIE N.                                      0501
A3001400130000008916270OLIVA, JOEVY JAY CARIAGA OR                             10501
A3001400130000008916270OLIVA, NAOMI OROG                                       20500
B3001400130000003434626GCT & SONS AGRICULTURAL DEVELOPMENT                      1601
A3001400130000001261103FERRER,ODELIO Y. OR FERRER, IVY                         10501
A3001400130000001261103M. OR VALEROSO,                                         20500
A1001400190000002266504MARABE, RIKKA AND LA VINA,                              10503
A1001400190000002266504IRISH OR MARABE,                                        20500
B1001400190000011057968SAVELINK PHARMA AND TRADING CO.                          1605
A1001400190231040264001CHABON, CLA DBU WESTBOUND PETRO                         10504
A1001400190231040264001STATION                                                 20500
A1001400190231478374006LIBRADO, HAZEL T.                                        0501
A1001400350000002367353GAABUCAYAN, EMMANUEL ALLENA                              0501
A1001400350000000017165MEN DBU A&L MARKETING SOLUTIONS                          0501
A1301400470000004626886LOIDA FUNERAL HOME                                       0503
A1301400470252442538001DOMINGO, CARLITO OR                                     10501
A1301400470252442538001DOMINGO, SONIA                                          20500
A1901400290261493025047ROWENA G BAWAR                                           0501
A0101406460272287912001********                                                 0501
B0101400570000005666191CAZAIC COMPANY INC.                                      1601
A0101411240000014398060JORDAN, REMEDIOS CLEMENTE                                0501
A0101411240000014360419LU, DEANINA CEZANNE GUE                                  0501
B2601400270000006014813RMQ GRAINS CENTER CORPORATION                            1610
B0801400160311058407002MADISON HOTEL PHL                                        1605
A0801400160311389233002VILLALUNA, JUANITA BONTO                                 0502
B0801400160311793743002GRAND XING IMPERIAL HOTEL                                1605
A6601400120314385521001PASAG, DR. CLIFF OR                                     10502
A6601400120314385521001PASAG, DRA. MARIA LOURDES                               20500
A6601400120314700866001VILLACORTES, MYLENE SOMBRERO                             0503
A3401400280318736732001TERESA A. SANTOS OR MA. AILEEN                          10501
A3401400280318736732001A. SANTOS OR TINA S. ONG                                20500
A3401400280000003309139TERESA A. SANTOS OR                                     10501
A3401400280000003309139MARIA CONSUELO ALMONTE                                  20500
B0101402350321039906001SHAWN MARTI ENTEPRISES                                   1605
A0101402510000011695186HAN, GUE SUNG                                            0520
A0101402510341196440002MA. FLORDELIZA L. ANASTACIO                              0501
B0101402510341197412001PHILIPPINE SOCIETY FOR EDUCATIONAL                      11601
B0101402510341197412001RESEARCH                                                21600
A0101409050000003533571RAYMOND R. REMOQUILLO                                    0502
A0101409050000003536183CASTILLO, ARNOLD                                         0501
A0201400920375034984002CITY LIGHT ELECTRONICS SERVICE                           0505
A0201400890000005196396LIM, JORGEN YU                                           0501
B0201400890376045790003****************                                         1603
A0101408370000005220028REODICA, RONALD ANTONIO S.                              10502
A0101408370000005220028OR AGUINALDO, MA                                        20500
A0101408370382400439001DR.CORAZON JESUSA SERAFICA-DIAZ                          0501
A0101408370382652736001VELORO, LYRA VALERA                                      0501
A0101405490000000355571MA ANASTACIA S. OR RITA THERESE                         10501
A0101405490000000355571S. DELA MERCED                                          20500
B0101405490000011681628EMPIRE DRAGON GRAND ALLIANCES SECURITY                  11602
B0101405490000011681628AGENCY CORP.                                            21600
A0101405490392024649001T.G. MONTEJO WELL DRILLING &                            10505
A0101405490392024649001FABRICATION                                             20500
B0101405490392047473001DONA SOLEDAD DRUG TESTING LABORATOR                      1601
B0101405490000003905151ASIA PRIME REALTY NETWORK, INC.                          1603
A0101405490392298552043BETTY R. ARENA                                           0502
A0101408400000014396513ZABAL, ROY                                               0501
B0101408400000013016692JRBB LEARNING CAMP                                       1601
B0101408400000003120521GILIGAN'S ISLAND BAGUIO, INC.                            1602
B0101408400000003120554GILIGAN'S ISLAND BAGUIO, INC.                            1602
A0101408400394444684001SY-WICO, MARY GRACE DORIA                                0502
A0101408400394494749001MAGPANTAY, LOTA CADAG                                    0502
A0101408950000011764971GERVACIO-DOMINGO, GISELLE GASPA                          0501
A0101408950000001039412DRILON, CECILIA VICTORIA ORENA                           0501
A0101409180000004375144ALVIN DREXEL ABAD                                        0501
B2401400180411040906001JOLYROB FISHING                                          1603
A2401400180000007031745REGALADO, RONALD SABORNIDO DBU                          10502
A2401400180000007031745REGAL MOVERS                                            20500
A2401400180411478374067CORTAL, CYNTHIA DE LEON                                  0502
A1201400150421253624001GUANZON, ALICE D. OR                                    10506
A1201400150421253624001GUANZON, DELFINO                                        20500
A1201400150000000473283SUNGA, ANTHONY FERNAND MUNSAYAC                          0504
A0101403030441239399001**********                                               0503
B0101403030441336479001**********                                               1603
A0101403320000014144811JOSHUA IVAN S. INOCENCIO                                 0502
A0101403320471478374002GONZALES, ELIZABETH                                      0501
A0101403320471478374016SONIA SALANIO                                            0501
A0101403320471524371001SHERRIL C MONTEZOR                                       0501
A0501400170481039591001MACA DEO REGALIA REALTY                                  0502
A0501400170481679606001CARINO, JOSEPHINE B. OR                                 10502
A0501400170481679606001BANGSAL, CARMELI                                        20500
A1901400320000002296073MAYO, ANAMARIE ABRACOSA                                  0501
A3801400170490759443001ACOB, ELEANOR OR BROTONEL,                              10501
A3801400170490759443001ELVIRA  OR CACHA                                        20500
B1901400160491030520001VETS IN THE CITY VETERINARY CLINIC                       1602
A1401400110000005181146DIASANTA, IVAN VILLAMAYOR                                0501
B1401400110492365609001JEORGE S MALIGAT - PILIPINO HARDWARE AND                11601
B1401400110492365609001CONST. SUPPLY                                           21600
B0701400260000000670980TOYOTA CAMARINES SUR, INC.                               1610
A0101408530000008159564DENVER S. GUADILLA                                       0502
A0101411400000001280386ANGELES, LEE ANGELO ELLA                                 0503
A0101411790518055764178JALECO, RIA VERONICA SAN                                10501
A0101411790518055764178ESTEBAN                                                 20500
A0101412050000014400265AYENTO, GUERLAIN ROSS OR FAGER                          10501
A0101412050000014400265ROSS OR VERONICA ROSS                                   20500
B0101403450521012053001CHRISTINE ENT. INT'L. INC.                               1601
A0101403450521241170001**********                                               0502
A0101403610000014184380TIONGCO, MYLENE MENDOZA                                  0501
B0101403610000013478765LOFAT RETAIL CORPORATION                                 1601
B0101403610000014402654SUPER 9 SHOPPING CENTRE INC.                             1601
B2201400250000002924770GOLDEN TAN CORPORATION                                   1601
A0101410690000000478962**********                                               0501
A0101404130601451610001CONCEPCION L. DEL VILLAR                                 0503
A0101407720000013900766FORONDA, JONNALYN REGINIO                                0501
A0101404260611524854001CLEMENTE, WILMA RUIZ                                     0502
B0101409890000003098122GOLDEN CITY PRINTS & NOVELTIES, INC                      1601
B0101407690000007720181STORAGE PROVIDERS INC.                                   1601
A0101413440655054477001LAND FIRST REALTY                                        0501
A0101413570000002976209LUMABAN, FELICIANO PEDRALVEZ                             0502
A0101414120000011764993RAWLINS, MARY ANN ORAP-ORAP                              0502
A0101406590662525251001DE LEON, JASON FOURTH TOLENTINO                          0501
A0101410300663790131001VALDEZ, JENNIFER ANN Z OR VALDE                         10502
A0101410300663790131001Z, PABLO BASILIO                                        20500
A1301400210000007669289GONZALES, MARK OLIVER SANTIAGO                           0503
B1301400210682040563003ACTISERVE CORP.                                          1602
A1301400340683178771002CHUA, HERNAN SUAREZ                                      0501
A1301400340000003458166IMANI, AARON DAZO                                        0501
A1301400340683660353001MILAN, ARTURO DAZO                                       0501
B1301400500000014309025GEOMAX MOTORS CORP.                                      1602
A1301400500684762106001VICEO III, JAIME S.                                      0502
A1701400230000013092461SIMON, KEVIN CESAR VALDEZ                                0501
A1701400230693478374080MANEJA, MARIEGIN RAMOS                                   0501
A0101408240000010148011YNION, ROMMEL SALVA                                      0503
B0101408240711025872001CDI SAKATA INX CORP.                                     1601
B0101408240000000832484RTI SYSTEM AUTOMATION, INC.                              1610
A2801400100712255396001VITT O GUTIERREZ OR                                     10502
A2801400100712255396001MARY ANN GUTIERR                                        20500
A4101400260812246527001ISIDRO B. DELA CRUZ JR. OR                              10510
A4101400260812246527001LILIAN H. DELA C                                        20500
A4101400260812681817001VICEDO, ERMINDA VILLAFLORES                              0501
A4101400390000000048684GONZALES, AUREA JIMENEZ                                  0501
B4101400550815821100608**********                                               2002
A0101404840000014398231MONROY, KAREN JOY MARQUEZ                                0501
A0101404840000014398355NANO, JEANETTE PALONPON                                  0501
A0101404840000014398424TAYOTO, CHRISTOPHER T                                    0501
A0101404840000014398515VILLACORTA, FLORDELIZA BUENO                             0501
A0101404840000014398593VILLORIA, JOSELITO G                                     0502
A0101404840851046725006MELA M. GEROLAO                                          0501
A0101404840000005820344DELOS SANTOS, MARY ELIZABETH H.                          0503
A0101404840851298552067EMERENCIANA P. BOMBAY &/OR                              10502
A0101404840851298552067JEREMY P. BOMBAY                                        20500
A0101404840851478374175CHONA S. SOTES                                           0502
B0101406750000007097272BONA, MECHIE ROMAN DBU ANING'S VULC                      1601
A0101406750000010508879LAZARO, JERILLE ANN DBU GOLDEN                          10501
A0101406750000010508879TREE TRAVEL AND TOURS                                   20500
A0101405070861478374086MARLYN C. GABEST                                         0501
A0101405070861776321001RANARA, MATILDE ALIVIO                                   0501
B0601400230000002649927MJ EXPRESS CREDIT INC.                                   1605
B0601400230000006045223MAZZARATY ENERGY CORPORATION                             1601
B0601400230000007954172SAN FERNANDINO CAPAMPANGAN                              11602
B0601400230000007954172DELICACIES                                              21600
A0601400230891462664001MARIANNE M. CARLOS                                       0501
