B0101401670271821100608**********                                               2003
B0101413860862821100608**********                                               2006
A0101409890000016031713LUSTRE, ICY MAY DE ASIS                                  0501
B3001400130230064445001GOLDEN SEACRAFT MARINE CORPORATION                       1602
A1901400160491476162001GINA A PELESMINA                                         0501
A0101410300000016302355BONIFACIO, RACQUEL DE LEON                               0502
A0101400860011509252001**********                                               0503
A0101401250021771670001FLORANDA, NAGEL DIMATATAC                                0501
A0101400150000008939091MARAVILLA, CECILIA CANUEL                                0501
A0101400150000012145812ALVARADO, CATHERINE PALCES                               0501
A0101400150061226356001ALELI R. SANTOS                                          0501
A0101400150061327908001CRUZ, FERNANDO PADERES                                   0501
B0101405810072554045001**********                                               1605
A0601400100000018406761JAVIER, JAYSON BASTO                                     0501
A0101413280000000312643CARLOS R. ATAYDE OR                                     10501
A0101413280000000312643CARMEN M. ATAYDE                                        20500
B0101410560000014511212PHILIPPINE SOCIETY FOR RESPONSIBLE                      11605
B0101410560000014511212PARENTHOOD INC.                                         21600
A0101410560000013758940VERGARA, GLENDA PATULAYIN                                0501
A0101400730111334903033KERWYN D. GARCIA                                         0501
A0101401830141546656001JENNY V. CATRIZ                                          0501
A7201400170000006842675PANCHO, VENUS SIPIN                                      0501
A0101412920000016899962COMXAI COMPUTER TRADING                                  0502
B0101407270162028688001KAISA CONSULTING COMPANY, INC.                           1608
A0101401090000006050620YOUNG JR., ROBERT TIA                                    0505
A0101401090171358689001MA. ELENA &/OR CESAR RAMIREZ                             0502
B0301400530000015818707IBARRA, LLOYD EUGENE BITOY                               1605
A0301400790000018384757RANESES, LEAH PANTIG                                     0503
B0101401380000005960103SHOOTERS SECURITY SERVICES, INC.                         1602
A0101401380000000414286********                                                 0505
A0101410720000016140100PALLORAN, JEANNETTE BAUTISTA                             0501
A0101410720000016140195SADSAD, CAROLYN SACLUTI DBU EC3                          0505
A0101412500000018420612CALDERON, ALEXANDER FERRER                               0501
B3101400160221010177001SUNSTAR LAND RESOURCES MANAGEMENT                        1605
A3101400740000010818209HAN, SHIN                                                0501
A1001400190000005709242GOKING, GEORGE SIO                                       0503
A1001400350233478374020ELMA O. GAWAT                                            0501
A1001400350233777505001CESAR, NEMAS ACERA                                       0502
A1001400480000005355911PARCON, NEYRA ACENAS                                     0501
A1301400470252484142001LOUIE C. KING                                            0505
B1301400760000010656881PRIME YIELD SERVICES & LENDING CORP                      1610
A0101401670271186319001OSCAR E. NIEVA OR                                       10501
A0101401670271186319001JOANNE LEE NIEVA                                        20500
A0101406460000008890473CABABAO, DANILO BONGATO                                  0502
A0101406620000005394852SILVA, JENNY CHUA                                        0501
B0101406620000000962421ARMCO HEALTHCARE SERVICES INC.                           1602
A0101406620273502279001LOTILLA JR., PERPETUO MERCADO                            0501
A0101410980000014620630CALLANGAN, KONEYLIZ BORJA                                0501
B0101410980000000171975AMMC - AVERY MANILA MARKETING CORP                       1602
A0101411110000000009134**********                                               0501
A0101411820000005380183JIMMY PUYING CANUTO                                      0502
B0101400570281027711001TRINITY UNIVERSITY OF ASIA, INC.                         1602
B2601400270000018396695MARY JANE A. HUANG DBU GOOD HOPE TRADING                11601
B2601400270000018396695OR WUJIAN HUANG                                         21600
B0801400160000001289932RD PAWNSHOP, INC. - ILOILO NORTH                         1603
B0801400160000001289932RD PAWNSHOP, INC. - ILOILO NORTH                         1603
A6601400120000000060368LAGRIMAS, MARIA ISABEL VERANO                            0501
A6601400120000008490400BENESISTO, MYRA LOBESTO                                  0501
A2001400290000009721804BUENAFLOR, MILDRED ELEMIA                                0501
A2001400290000015662710GILLELAND, CRAIG MICHAEL                                 0501
A3401400280000002323451PETE'S STOP TIRE                                        10504
A3401400280000002323451AND CAR CARE CENTER                                     20500
A0101402510341196566001LUZVIMINDA G. CRUZ                                       0501
A0101402060351653390001ACAYAN, MARY ANN OR                                     10501
A0101402060351653390001ACAYAN, JACINTO                                         20500
B0101409050000013167852CUERPO, DAN MARSEN LORENZO                               1603
A0201400920000000048020DONG JUAN CENTRAL CORPORATION                            0501
A0101402930000003710756RAMISCAL, ANNA BELINDA MORALES                           0503
A0101408370382416284001DR. BERNARDITA O. POLICARPIO OR                         10502
A0101408370382416284001DR. REUBEN D. POLICARPIO                                20500
A0101402770000017233040TIRADOS, MARIA LOURDES FABIAN                            0502
A0101405490000000232511MICHSJA MOPET MAY C. FELIX                               0502
A0101408400000009875012BALMACEDA, MA. CHRISTINA LUMAGB                          0501
A0101408400394028886002DEC ORIENTAL FOOD STREET CO. LT                          0505
A0101408400394478374058CHARINA BENIGNOS                                         0504
A0101408400394639219001ROMERO, FRANCISCO GABION                                 0501
A0101408950000018394262AGBAY, MARIA KATHERINE AMURAO                            0501
A0101408950396563723001CELLONA, CLARISSA VILLARAMA                              0503
A0101408950396565472001DEBBIE GUANI DY MEGUIZO OR                              10504
A0101408950396565472001DONALD JUDE UY MEGUIZO                                  20500
A0101409180000002036675VILLANUEVA, WILMA BASAN                                  0501
A0101409180000018405182ROAQUIN, RONALD MIRANDA                                  0501
A0101409180000018405386MALANAO, REBECCA LEDESMA                                 0501
A0101409180000018405568MORAN, EDUARDO LUIS ANTONIO CAG                          0501
A0301400820000014657920DE LUNA, RAMELITO A.                                     0503
B0301400820409047876001REDSONS REALTY DEVELOPMENT CORP.                         1602
A0301400820000000024893ALIVO, JOENALD C.                                        0502
B5501400120000000046842TACURONG FIT MART, INC.                                  1620
B2401400180411056764004RD PAWNSHOP, INC. - GENSAN REGION                        1605
A1201400150421256222002SOHAL, GURDEEP                                           0501
A0101403030441239047001**********                                               0501
A0101412890000009833554ANNA LIZA GUEVARA AMIDO                                  0502
A0101403320000018404890CATHERINE V. ARCEBUCHE                                   0501
A0101403320000018421768SAMILLANO, ROLAND E.                                     0501
B0101406330472009779001DORADO'S GENERAL CONTRACTOR CORP.                        1605
A0501400170481256494001ALFEO OR LALAINE BAUTISTA                                0501
A0501400170000009953973GO, CHARLIE QUE                                          0502
A1901400320000013129954ZARA, HAZEL FRANCES DAGLI                                0501
A3801400170000017120706ROGELIO, R DBU PXJ CONSTRUCTION                         10501
A3801400170000017120706SERVICES AND SUP                                        20500
B1901400160491013980001VIC IMPERIAL APPLIANCE CORP.                             1603
B1901400160491027966001SALESFORCE ONE MARKETING, INC.                           1607
B1901400160491046052001BANAPRA DEVELOPMENT COOPERATIVE                          1603
A1901400160491247764001MARITES E RAMIREZ                                        0501
A1401400110492221180003SIA, ERWIN THOMAS C                                      0501
A0101407430503181127001ALBERT S. SAW                                            0501
A0101403580511339686001PRAKASH GHANSHYAMDAS CHANDNANI                           0503
B0101405940000009247747LCEUS TRAVEL AND TOURS VISA CONSULTANT                  11602
B0101405940000009247747INC.                                                    21600
A0101408530000008656431ABROGENA, JAANA LOREEN F.                                0501
A0101408530000011779932GUARINO, JOEL PUNA                                       0502
A0101408530000001885630BARBARA ANNE VICEDO                                      0501
A0101408530000008766743JOHN CHRISTIAN MAGNO                                     0501
A0101412050000000890740LIM, JOSELITO QUERI OR LIM,                             10501
A0101412050000000890740CARLINA JOYCE SY                                        20500
B0101403450521032691001************                                             1605
B0101403610000017198940MMG FORWARDING CORP.                                     1601
B0101403610531013980001VIC IMPERIAL APPLIANCE CORP.                             1603
A0101403610531219534002DUNGLAO, FELICIDAD ANCHORIZ                             10502
A0101403610531219534002OR DUNGLAO, JOSE                                        20500
B0101403610000006637114RD PAWNSHOP, INC.                                        1604
A0101404130000002121157MIRANDA, FRANCIS GERALD SANTOS                           0501
A0101407720602381795001FORES, MIGUEL EDGARDO MANUEL                            10502
A0101407720602381795001OR FORES, LUCIA                                         20500
A0101407720602397661001LAZARO-DIZON, GERGEN MARIE SERR                          0503
A0101412180000005360203STA. ANA, ROSALIE CINCO                                  0502
A0101412180000011559961CHU, ANGELO ROBERTO TORRES                               0502
A0101404260000013859982STA. ROSA, DONNA PEARL SALES                             0502
A0101409890000003097994**********                                               0501
B0101413440000002691592ZABAT, KHELVIN MIRANDA AND                              11603
B0101413440000002691592ZABAT, MICHELLE                                         21600
A0101413990000014570044MADRONA JR., SEVERO CANETE                               0501
A0101406590662207847001MARY ANN P. FLORENDO                                     0501
A0101410300000005237816PANGANIBAN III, DELFIN RAYMUND                          10503
A0101410300000005237816OR PANGANIBAN, N                                        20500
A0101410300000012210829FERRER, IGMIDIO MARIANO                                  0502
A1301400210682045774001POP WASH LAUNDRY SHOP                                    0504
A1301400500684594780002CASTRO, RAYMUNDO OR                                     10502
A1301400500684594780002CASTRO, ROSEMARIE                                       20500
A0101408240000016120482PEREZ, DEVINE GRACE LAGUMBAY                             0501
A0101408240000018408687SALAZAR, GEORGINA AGATHA MARIE                           0501
A0101408240711323526001SHIRLEY A. MANESE OR MARIA                              10501
A0101408240711323526001ELENA M. ISAAC                                          20500
A2801400100000000188152DELA CRUZ, EDITHA LAXAMANA                               0501
B2801400230000018004449SUBIC COASTAL DEVELOPMENT CORPORATI                      1601
A4101400260000001135011OMELGO, RAMIL MERSADO OR                                10501
A4101400260000001135011OMELGO, MARIVIC                                         20500
A4101400260000018406874BOBILES, JAMES PAULO .                                   0501
A4101400260000018406965BOSCH, NADINE ALYSIA RAMIREZ                             0501
A4101400260000018407031PLAMERAS, SAM LENARD RIVERA                              0501
A4101400420814015061002AUTO AIRE CAR AIRCON SERVICE                             0502
A0101404840000000683585ROXANNE P. AGUILLON                                      0501
A0101406750000017168668MIGUEL, JEANIE MANALASTAS                                0501
B0101405070861008460005STARS TRAVEL INCORPORATED                                1602
A0601400230000014299659MUNOZ, MYLIN SANTOS                                      0501
A0601400230000006045570GUIAO, JULIETA ONG                                       0505
B0601400230000010299211RD PAWNSHOP, INCORPORATED                                1605
B0601400230891047075001DRIVEASIA MOTOR CORPORATION                              1601
B0601400230891255071002ATTY. MARIA ELISSA VELEZ                                 1603
