A0101411240000000012040CHUA, MICHAEL LI                                         0502
A0101400310000000019441SANTIAGO, TIMOTHY JOHN REYES                             0501
A0101408240000000039774BADLIS, MARCIANITA M.                                    0502
A0301400790000000040859PILAY, ROMANITO BELACHO                                  0502
A0301400530000000065832PERIAS, FE                                               0501
A0101402770000000080500JOHN MICHAEL C. ARCEO II                                 0501
A0101404840000000122658MARIFE DE CASTRO                                         0501
A1401400110000000132812JUNDAK, HENRY IGLESIA                                    0501
A0301400660000000194570DEQUITO, CITZY VENTOR                                    0502
A0301400820000000316641PLAZOS, LOLITA V.                                        0501
A0101405490000000355742FONG, JAN MICHAEL MANALO                                 0501
A0101402060000000358736DELA CRUZ, ELISA ROBLES                                  0501
A0101407140000000446144*************                                            0501
A1601400170000000497536WASSER TRADING                                           0502
A0101403320000000522176ALCANTARA, RAEZA LUMBAG                                  0502
A0101400150000000525580RAGOS TY, STEPHANIE TRACY                                0501
A0101408530000000594292MELANIE MARGARET P. MIGUEL                               0501
A0601400520000000786450**********                                               0501
A0101400310000000851376CALALAY, ADAM ROSALES                                    0501
A0101400310000000851401TUYAY, MA VISITACION MACARUBBO                           0501
A0101404420000000866571ANITA P. SANTOS                                          0501
A0101413020000000880513GEN ONE FIVE ONE CAR EXCHANGE                            0501
A2801400230000000937640ESCOTO, JOSEPHINE BELTRAN                                0501
A0201400890000000973480GALANG, LORLIE PACURIBOT                                 0501
A0201400890000000973491GALANG, LORLIE PACURIBOT                                 0501
A0101400730000001016511ESPILOY, J DBU JPLE OFFICE SUPP                          0501
A0101408240000001038631LIMIN, SHEREE JOYCE BALUYUT                              0501
A0101413570000001069443***********                                              0501
A0101410140000001074908MEMBERS OF NATASHA (SHOECAT INC                          0501
A0101405490000001092693JOVELYN V. LUCENO                                        0501
A0101404000000001186727MANALILI, MA TERESA QUEBRAR                              0501
A1301400210000001206973JANICE D DE LEON                                         0501
A0301400790000001244564MAGSUBAR, NATIVIDAD ZAMORA                               0501
A0301400530000001409694ALIADO SR., JIMMY M.                                     0501
A0301400530000001409701CHEN, SHICONG                                            0503
A0101400150000001422122LUBI, KRYSTEL YVETTE ORTILLA                             0501
A0101400440000001439607MARYLANE P. PABELICO                                     0501
A0101412630000001485161DAYAPERA, DELILAH ROMULO                                 0501
A2201400250000001545466JUNABETH O. BUENO                                        0501
A4101400550000001622640VISAYA, ROGELIO AMPONG                                   0501
A0601400520000001706930DIZON, ISAGANI CHANTENGCO                                0502
A0601400520000001706963**********                                               0501
A0101404260000001725435CALANNO, J DBU JDCALANNO VENTUR                          0501
A0101408950000001760607PANDAN, MARIA JANET MAPA                                 0501
A0101400730000001822293DY, VICTOR SERRANO                                       0505
A0101408820000001880651TORRELIZA, GENALYN VECINAL                               0501
A0101413860000001886935PANGANDAMAN, SALEM DIMAPORO                              0501
A0101413310000001928925SALIDO, GINA BUID                                        0501
A1301400340000002283730*********                                                0501
A0101400310000002674359PATRICIO, DEVIE ONTOLAN                                  0501
A0101400860011386392002**********                                               0503
A0101400860011399497002**********                                               0504
A0101400860011421986001**********                                               0505
A0101400860011581564001**********                                               0503
A0101400860011653864001**********                                               0502
A0101400150061229814001LEONCIO C. LIM                                           0501
A0101400150061311743050RAYMUND PUYAT                                            0502
A0101400150061496726001CALMA, JOYSEN SOPHIA TAGUBA                              0502
A0101400730111478374120LUIS G. PUNO                                             0502
A0101401830141366498001GRACE I. RIVERA-JACINTO, MD                              0501
A0101401830141740190001LEBRON, LUIS FRANCISCO VILLACOR                          0501
A0101400440161459294001MARY ANN T. REGINALDO                                    0502
A0101400440161520766134LEONORA SANTOS                                           0501
A0101400440161525001196EDNA D. VINLUAN                                          0501
A0101407270162038034001MARGIE & GIGI CATERING SERVICE                           0501
A0101407270162587936002WILFRIDO G. TIRONA                                       0501
A0301400660194758323001FERNANDEZ, GIL BREINARD SY                               0502
A0101400310211032336001885 STONE TOOLS TRADING                                  0505
A0101400310211455983001*****                                                    0506
A0101400310211478374011YEPES, BASILISA                                          0501
A0101400310211478374057CLAUDIA S. VIRAY                                         0502
A0101400310211478478001PALMA, ARIEL SALUD                                       0501
A0101400310211576470001******                                                   0502
A3101400160221478374031ROMEO C. OLIVEROS                                        0501
A1001400350233503410002APARICI, ARMANDO AKIAT                                   0502
A1901400290261250069001DRA. JABES BUCE CARRASCOSO                               0505
A0101406620273306796004FE FORTUNATA R. RIO                                      0501
A0101408660274387702002ANG, DESIREE T.                                          0502
A0101400570281419686001ANTONIO C. VALERA III                                    0501
A0501400200292735444001OYAMAN, GENEVIVE ABANDO                                  0501
A2601400270302698462001ALBERT OR NELIA LIM                                      0502
A1101400120313478374104EMADIN, LLANA L.                                         0501
A6601400120314041602001LEXTAN GENERAL MERCHANDISE                               0502
A6601400120314624040001BATULA, MARICIL OR RICARDO                               0503
A6601400120314624062001GIPAY, MARICEL DIAZ                                      0501
A0101402350321477731003******                                                   0501
A0101405650322488260001BARREDO, CARMENCITA CALIXIHAN                            0502
A0101408820333478374057PERLITA DEL CASTILLO MERADOR                             0501
A0101402640361478374074MARIANO, LOLITA MIRANDA                                  0501
A0101402640361491175001CHAN, JAMES                                              0510
A0201400760374042274001MPC TRADING                                              0504
A0201400920375525898002DUTERTE, RANDULPH LEYRITANA                              0502
A0101408370382227014001ANNIE T. COLEMAN                                         0502
A0101405490392444214001MELANIO B. PANO, JR.                                     0502
A0101409180397681135001UICHICO, ERNESTO FLORO                                   0501
A2401400180411455559001VENDIX GEN. MERCHANDISE                                  0501
A2401400180411535432001FRANCISCO, HERBERT PADIOS                                0505
A0501400170481402560002ARCINUE, JOHN RODNEY VENTENILLA                          0501
A1401400110492222049001AMORSOLO S. NIEVA                                        0508
A0101403580511028909001E.M. MOLINA'S CONSULTANCY FIRM                           0501
A0101403580511327187012MARIA LEAH TOPACIO                                       0502
A2201400250561296301002MARIA ANTONETTE I. BELMONTE                              0502
A0101404260611478374129RUBY VIRTUDAZO                                           0501
A4101400390813464584001MANDANI, JOCELYN FERNANDEZ                               0501
A4101400420814520766012SUSAN B. MALBOG                                          0501
A4101400550815718538001RONQUILLO, ANITA SELABAO                                 0503
A0101404840851212512001TESORO, JOY A.                                           0502
A0101404840851320776039JOSEPH URUBIO                                            0501
A0101406750852180858002MARTIN, ALPHA DEVOTA HERNANDEZ                           0503
A0101405490000000355571MA ANASTACIA S. OR RITA THERESE                         10501
A1001400480000000474862PARAS, LEAH MAE R OR PARAS,                             10502
A0101409050000000601432GARCIA, CHARLES PHILIP ISTURIS                          10501
A1001400350000000922172CAUBE, MARIVIC JAMERO OR                                10502
A0101402640000001054211ARCIETE, AGAPITO M. OR                                  10501
A0101404260000001725388CABUGATAN, EXCHAN ABDULLAH OR                           10501
A0701400260000001804502DEL BARRIO, DBU JR-JANNA                                10510
A0101400730000001822271JEAN Y. DY OR KIMBERLEY D. SOLO                         10505
A0101400730000001822282JEAN Y. DY OR CARL STEPHEN L. L                         10505
A0601400100081370388002REYES JR., LIBERATO DAYRIT                              10502
A0301400530193736529088VASQUEZ, BERNIE M OR                                    10505
A0101400310211276524001MARIANITO ALEMANIA OR                                   10501
A1901400290261099052001ROWENA ANA REYES CORNEJO OR                             10502
A1901400290261244345001FERNANDO C GO OR LUCY S GO                              10502
A0101401670271192707006FEDERICO C. LIM OR TORRES,                              10502
A0101402350321035519001ANTONIO'S GARMENTS                                      10502
A0101408950396697080001DR. ROMULO L. MADRID OR                                 10503
A0101403580511151510002NOEL SALAZAR OR ARIZA MANGALILE                         10502
A2201400250561478374015ARLENE T. CERBAS                                        10502
A0101405490000000355571S. DELA MERCED                                          20500
A1001400480000000474862JAVIER FRANCISCO                                        20500
A0101409050000000601432OR MA. JESSA RICCA GARCIA                               20500
A1001400350000000922172CAUBE, VICTOR CODAL                                     20500
A0101402640000001054211ARCIETE, CATALIN                                        20500
A0101404260000001725388CABUGATAN, SANAIRA                                      20500
A0701400260000001804502KAKANON BIKOL RESTO & CAT                               20500
A0101400730000001822271N                                                       20500
A0101400730000001822282IM                                                      20500
A0601400100081370388002OR MELINA                                               20500
A0301400530193736529088VASQUEZ, JENI ROSE                                      20500
A0101400310211276524001ALEJANDRO CARTAG                                        20500
A1901400290261099052001GALICANO BRIONES CORNEJO                                20500
A1901400290261244345001OR ALDWIN S GO                                          20500
A0101401670271192707006VIRGINIA CHRISTINE                                      20500
A0101402350321035519001SUB-CONTRACTING                                         20500
A0101408950396697080001DR. EDNA M. MADRID                                      20500
A0101403580511151510002OR SUSAN EVANGELISTA                                    20500
A2201400250561478374015MEMBERS OF NATASHA                                      20500
B0601400100000000032782BARANGAY CUTCUT MULTIPURPOSE COOPER                      1601
B0101401830000000033592CARITAS SALVE CREDIT COOPERATIVE                         1603
B0101401830000000033616CARITAS SALVE CREDIT COOPERATIVE                         1602
B1601400170000000036057MULTI-WARE ECON-SALES CORPORATION                        1605
B0301400530000000065898SOLID GROUND SECURITY AGENCY                             1601
B0301400660000000195157WISDOM EDUCATIONAL MATERIALS PUBLIS                      1601
B0101413570000000206573ZAMORA, EVELYN M. DBU AMZA REALTY                        1601
B0101413440000001085712ROTARY CLUB OF BALINTAWAK                                1601
B0601400100081013248001REPUBLIC COURIER SERVICE, INC.                           1610
B0601400100081013322001LACTO B INCORPORATED                                     1605
B0601400100081046420001REAL BLOCK CONCRETE PRODUCTS, INC.                       1601
B0601400100081046835001SPRINGFONT REALTY CORP.                                  1602
B0301400530193555747168YANG, CHAO CHENG                                         1605
B0301400530193792821088LI, DENNIS JOSEPH T.                                     1601
B0301400660194454300088*****                                                    1606
B0301400660194789062088*****                                                    1602
B0301400790195053788001ATC MERCHANDISE & TRADE CENTER, INC                      1601
B0101400310211021165001FIL CONCEPT INC.                                         1605
B0101400310211029880001MTZ FORTUNE RESOURCES INC.                               1605
B0101400310211241258002BONAMY, ARTHUR CHUA                                      1601
B0101407140213046941001ONG, SERGIO DBU SERG-ENG COMMERCIAL                      1601
B3101400450223037708001RD CASH PADALA, INC.                                     1603
B0101401670271041791002A PI SQUARE KINDER SCHOOL INC.                           1601
B0101401670271041791003A PI SQUARE KINDER SCHOOL INC.                           1602
B0101402350321035857001MOBICAR TRADING CORPORATION                              1602
B0101408820333037098001**********                                               1601
B0101402060351046908001ORGANITEC LABORATORIES & SYSTEMS, INC.                   1601
B0101402640361036763001FOLE GANDROS FOOD SVCS., INC.                            1605
B0101409180397024348001APPLESEED MONTESSORI INCORPORATED                        1601
B2401400180411033307078MINCORN MILLING, INC.                                    1603
B0501400170481257491001CARING FOR THE FUTURE FOUNDATION INC                     1604
B0101407430503027092001MULTIPLE GARMENTS AND APPAREL, INC.                      1601
B0101403580511022003001SUNWISE BROKERAGE AND FREIGHT FORWARDING                 1603
B0101403580511042027001BEACON SOLUTIONS, INC.                                   1602
B0101408110515041304001RUSTAN EMPLOYEES CREDIT COOPERATIVE                      1610
B0101404000551039954002FRAIGN REALTY CORPORATION                                1605
B0101409890649053745001AVESCO MARKETING CORPORATION                             1605
B0101409890649053745002AVESCO MARKETING CORPORATION                             1605
B0101404840851041620019JOY PLANET INC.                                          1602
B0101412180000000075392BLTN JR. RESTAURANT MANAGEMENT                          11605
B0101400310000001621589HISTORILLO JR., HECTOR DBU HISCON                       11601
B0101401700041192799001ZFG REFRIGERATION & AIR CONDITIONING                    11601
B0101400730111007943002PHILIPPINE DAILY INQUIRER NEWSBOY                       11603
B0101401670271017305001HONGKONG HARDWARE SUPPLIER,                             11601
B0101404260611028963001PARC HOUSE II CONDOMINIUM ASSOCIATION                   11603
B0101412180000000075392INCORPORATED                                            21600
B0101400310000001621589ENGINEERING SERV                                        21600
B0101401700041192799001SERVICES                                                21600
B0101400730111007943002FOUNDATION INC                                          21600
B0101401670271017305001INC.                                                    21600
B0101404260611028963001INC.                                                    21600
