A0101400570281706972001**********                                               0501
B1001400350233039883018CENMIN FOOD CHAIN CORPORATION -                         11605
B1001400350233039883018JOLLIBEE XAVIER                                         21600
A0101412890000001056575UDOG, MA GINA SAN PEDRO                                  0503
B0101412050000000890951GRANDJURY SECURITY SERVICES INC.                         1605
A0101412050000006005174SUPREMO, EUGENE ERROL L. DBU                            10501
A0101412050000006005174STUDIO SUPREMO ARCHITECT                                20500
B1701400230693034406001ZS ALONZO FARM SUPPLY                                    1601
A0101400860000001348658**********                                               0510
A0101400860011394300002**********                                               0503
A0101400860011503590001**********                                               0503
A0101400150000000253278GELANO, ANGELO RECTO                                     0502
B0101400150061010736001SPCASTRO, INC.                                           1605
B0101400150061026122002DDC LAND INC.                                            1610
B0101400150000000633203PHINMA INC.                                              1601
B0101400150061230482001CASE PROPERTY MANAGEMENT, INC.                           1602
A0101400150061433959002KUBOTA, KUMI                                             0501
A0101400600000000007707**********                                               0503
A0601400100000006092526*********************                                    0510
A0601400100000006333962ALIPIO, JOSE EDRALIN GUEVARRA                            0501
B0601400100081024789001ASUMCO PAINT & HARDWARE CENTER                           1602
B0601400100081296256001CHRISTOPHER OR LOYA MALLARI FAO CHRISSAN                11603
B0601400100081296256001AUTO SUPPLY                                             21600
A0601400100000002365528CABRERA, CYNTHIA NARCISO                                 0501
A0101410850000006559966CORILLA, E DBU DIACOR ENTERPRIS                          0501
A0101400730111386485175IVANHOE O. MARASIGAN                                     0502
A0101401960121569490001************                                             0502
A5001400170000000044982URBAN PAINTS & MORE ENTERPRISES                          0501
A0101400440161030637001AREMCI BUILDERS                                          0505
A0101400440161520766075ERA G. LAMATA                                            0501
A0101400440161520766098JUDITH D. BRISO                                          0501
A0101407270162449396006EDGAR P. FERNANDO                                        0503
A0101407270000001596945CELESTE C. NAPIGKIT                                      0501
A0101401090000000993353VELASCO, ZENAIDA FAINSAN                                 0501
A0101401090171468916001FRANCISCO, MA. GENEVIEVE RAMOS                           0502
B0301400530193014284008COLOURLAND INC. - TAGUM                                  1602
B0301400530000006477321*****                                                    1601
A0301400530193047804168JULIE'S BAKESHOP                                         0502
A0101401380000000106505SY, WILFREDO O. DBU TITO ROM                            10503
A0101401380000000106505SA CAPITOL RESTAURANT                                   20500
A0101401380201684172001NUNEZ, JOSEFINA LIOK                                     0502
A0101412500000000739657****                                                     0502
A3101400160221478374061ANDREA E GOLVEO                                          0501
A3101400160221724137001ALICIA P MANAIG                                          0501
B3101400740224041741001CASA DEL NINO MONTESSORI SCHOOL CIUDAD                  11602
B3101400740224041741001DE CALAMBA, INC.                                        21600
A1001400190000002266548LOS BANOS, LOREMO LUSICA                                 0502
A1001400190000000016446JOMOC, RENETH TAGARDA                                    0502
A1001400190000000124898CHERYL M. SAIM                                           0501
A1001400480000000606819TAN, LYDIA OR TAN, OLIVER                                0506
B1001400480000003028931BELICAN, ALDIN TORNIADO DBU BELICAN                     11602
B1001400480000003028931TRUCKING                                                21600
A1301400760253047800001CHRISTIAN EDWARD C. BAGUISA                              0501
A0101401670000000237603BELEN, PAULO ENRICO PAGDANGANAN                          0501
A0101406460000001285627SARAH INGRID AU SIA'S PERSONAL                           0502
A0101406460272199691001BAYOT, RODERICK                                          0501
A0101406620000001686768GUERZON, ANGELUZ                                         0501
A0101408660000000373011LAM, E DBU BAN HOK TRADING                               0505
A0101411820000004981791JOSE WILLIAM L. YUTUC OR                                10501
A0101411820000004981791MICHAEL VINCENT S. MANALO                               20500
B0101411820000003085112HARDCOM COMPUTER SYSTEM CO.                              1601
B0101400570000003451589CONTEGO TECHNOLOGIES INC.                                1602
A0101400570281286356001KEVIN D. YU                                              0503
A0501400200000002306150PACIS, WILMA RAMOS                                       0502
B6601400120000003084717DATO JR., BAYANI EVARISTO DBU CSJ                       11601
B6601400120000003084717CONSTRUCTION                                            21600
A6601400120314612870001MAGPAYO, FORTUNATO OR AILEEN                             0502
A6601400120314668441002MASLOC, SHERRY AMOR GALONO                               0501
A0101402350321478374048GLENDA D. ESTRELLA                                       0501
B0101405650322018681007LANDCO PACIFIC CORPORATION                               1605
A0101405650000000772947JAVILLONAR, MILAGROS CASTRO                              0501
A0101402510341318724004SEGUNDINA Y. CASTRO                                      0502
A0101402510341480465001ABREU, MARVIN MAXIMO                                     0501
B0101402060351027905001TWIN TREES CORP                                          1602
B01014020603514784560019R MANPOWER AND SERVICES INC.                            1601
B0201400760000005711013TAN, KAISER CHRISTOPHER FRANCIS                          1601
A0201400920000000048155EDIZA, M DBU OULAMS CUISINART T                          0501
A0201400920000001331571GARE, BONIFACIO PERA DBU                                10501
A0201400920000001331571GAREMED MARKETING                                       20500
A0201400920375478374015GAYO, LOURDES O.                                         0502
A0101408370382205314001CABRERA, MARY JANE SILAYAN                               0501
A0101408790000005182792ANTHONY JOHN S. RULLODA                                  0503
B0101402770391041647001G B B TECH ELECTRO MECHANICAL & DEV. INC                 1604
A0101408950000000776592GENOVIA, MA. VICTORIA LIM                                0501
A0101408950396761506001DONALD C. CRISTOBAL OR MA.                              10501
A0101408950396761506001FLORDELIZA A. CRISTOBAL                                 20500
A2401400180000000073505GOTAN, RYAN ROBERT HO                                    0501
B2401400180411041355088***********                                              1605
A2401400180000003949071PROVIDO, JULIET MAHINAY DBU PRO                          0503
A0101403030000005327588**********                                               0502
A0101412890000004345146ORTIZ, ANGELO ENCISO                                     0502
A0101406330000001235170CORDOVA, JESSER TABLIGAN                                 0503
A0101410140000001939933**********                                               0501
A3801400170000000154152RUTH JEANE O SASANA                                      0501
A1901400160491546773001IRENEA M ERLANO                                          0501
A1401400110492455411001BELEN, ROSEMARIE SABATER                                 0504
A1601400170000001360623ROLANDO S. AUSTERO                                      10501
A1601400170000001360623NELIA M. AUSTERO                                        20500
A0101405940000001209916BALUYUT, PETER GOPEZ                                     0501
B0101405940512030581001PREMIER AUTOTECK, INC                                    1605
A0101405940512692439001ROXAS, CHARLENE TAN OR                                  10501
A0101405940512692439001ROXAS, JEFFERSON                                        20500
A0101406880513618947001HUKOM, SHERYLL JOY ROQUE OR                             10503
A0101406880513618947001HUKOM, EMERICO M                                        20500
A0101408110000001823810REMOLACIO, FRANCIS LILIAN DBU                           10502
A0101408110000001823810BLUE SKY TRANSPORT                                      20500
B0101408530000003866115ZP LIFESTYLE TRADING, INC.                               1603
A0101411790518055764087CASTRO, MARIA KATRINA CANON                              0501
A0101412050000002314443DAYRIT, WILLIAM BRIOL                                    0501
B0101403450521011628001*********                                                1605
A0101403450521240346001**********                                               0502
A0101403610531089014001PANUNCIO, MA. ASUNCION GRECIA                            0501
A0101403610531430756002GERTRUDES A. SALVADOR OR                                10503
A0101403610531430756002LEONOR A. HADUCA                                        20500
A2201400250000006275818RAQUEL ARSENA PACHECO                                    0502
B0101404130601044275001MYOUTDESK INC                                            1601
A0101404130601322347001MA. PERPETUA T. CRUZ                                     0501
B0101407720000000885565NOVELIS SOLUTIONS INC.                                   1602
A0101407720602313187002SANTOS, CHRISTINE THERESE AMURA                          0506
A0101407720602373276001MACAPAGAL, ANTONIO RAMIREZ                               0502
A0101404260611153241002TAN, ESTEFANIA QUITALIG                                  0501
A0101404260611428317001*****                                                    0501
A0101404260611478374081ROSITA VIVIT                                             0502
A0101413570000002976129BRYAN P. ROSALES OR                                     10501
A0101413570000002976129ELLEN Q. MENDOZA                                        20500
B0101413570656821100608**********                                               2001
A0101413990000002962929TIRANO, PATRICK DARROLES                                 0502
A0101413990000001947128MARS STONE SUPPLY                                        0501
B0101414120000000399093*****                                                    1604
A0101414120000006005367NAJOS, ELVIRA ABAO                                       0501
A0101406590662035265001******                                                   0502
A0101406590662297269001MARTINEZ, ARMAN M. OR MARTINEZ,                         10501
A0101406590662297269001MARIA THERESE G.                                        20500
A0101410300000000191815CARBALLO, LUIS ANTONIO S. OR                            10505
A0101410300000000191815SALAZAR, EMMANUE                                        20500
A0101410300000006278431ROQUE, EVELYN VALDOMAR                                   0501
A1301400210000000540801SANTIAGO, EMILY TAMAYO                                   0501
B1301400210000000023270CHENG ENGINEERING                                        1602
A1301400340683282868001DR. JUAN FRANCO TORDESILLAS OR                          10502
A1301400340683282868001DR. ROWENA TORDESILLAS                                  20500
A1301400340683400365001MEDINA, EUGENIO DE SAGUN                                 0502
A1301400340000000100330LAPENA, RAYMOND RANDALL CERTEZA                          0501
A1301400500000005963244RUSTIA, DAPHNE NAVARRO                                   0501
A1701400230000002347457DAQUIOAG, AILEEN CORPUZ                                  0501
A2801400100712088718001FOO, JEROME B. OR FOO, YING YIN                         10520
A2801400100712088718001OR FOO, ANA T.                                          20500
A4101400390813017514001PRESTIGE AUTO CARE                                       0501
B4101400550815040996002MARICHE APARTELLE, INC                                   1601
A0101412340000003438635GENESE, FREDERICK VALLEJOS                               0502
A0101412340000007012022ALLAN M. PUNZALAN                                        0501
A0101412340000002266884MARGELETTE B. BAUTISTA                                   0505
A0101412340000003438817FAITH MARY A. THURSTON                                   0501
A0101404840000001312543CERBITO, SALVACION                                       0501
A0101404840851212512001TESORO, JOY A.                                           0502
A0101406750000000173044REYES, JOEL FLORENTINO                                   0501
A0101406750000000017427ANTONIO, ARNALDO QUILATAN                                0502
A0101405070000003439707BARRIETA, CHRISTINE DOCOG                                0503
A0601400230000001062399RODA, ZENAIDA GARCIA OR                                 10504
A0601400230000001062399MANIO, CRISTINA                                         20500
A0601400230000002310092PARAFINA, LORENZA ALIPIO                                 0501
