A0101405940000016991045NAVARETTE, ALMIRA BRENDA IBARRA                          0501
B0101409920000009981851NORTHERNLAND REALTY COMPANY                              1604
B3001400130000008264955TRUMPH MOTORCYCLE CORPORATION                            1601
A3001400130000001261249BANJAO, JENELYN LARA                                     0501
A3001400130230762305154CABELA, TERESITA MATA                                    0503
A0201400920000002804504BARENG, NATHALYN C.                                      0502
A0101408950000015585843DOMACENA, MYCIARALEN NODALO OR                          10501
A0101408950000015585843DOMACENA, ROY MICHAEL G.                                20500
A0501400170481046585002ANG, JUSSLYNN DBU                                       10505
A0501400170481046585002AVS DISTRIBUTION                                        20500
A1601400170000000497525HAZEL E. GAVERIA                                         0501
A1601400170000012410712CUA, MATTHEW LAWRENZ TAN                                 0502
B0101413990657821100608**********                                               2002
A0101400860000013978813***********                                              0501
A0101400860011400073001*********                                                0502
A0101400860000017478830**********                                               0508
A0101400860011533026001**********                                               0502
A0101400150000003141271SANTOS, ROSALINA GUY                                     0501
A0101400150000009400839MARTINEZ, ROWENA ANN ARBOLEDA                            0501
B0101400150061044999001SDI MEDIA (PHILIPPINES) CORPORATION                      1601
A0101400150061368976001GRACE R. ABESAMIS &/OR                                  10501
A0101400150061368976001ROBERT GLEN R. A                                        20500
A0101400150061469189001FERNANDEZ JR., PEREGRINO                                10501
A0101400150061469189001OR FERNANDEZ, JONAH                                     20500
A0101400150061786740001LIM, JOSE ANTONIO ONG OR                                10502
A0101400150061786740001LIM, ELAINE DEL ROSARIO                                 20500
A0101400150061786740001LIM, JOSE ANTONIO ONG OR                                10502
A0101400150061786740001LIM, ELAINE DEL ROSARIO                                 20500
A0101400600071233615002SALES, ANGELINA AMURAO                                   0502
A0101400600071351088001LIM, IT BENG                                             0501
A0601400100000007253945TANGLAO, CARMELO DE LEON DBU ME                          0502
A0601400520000013872712DE MESA, ELMER DE LEON                                   0502
B0101413730000000469676MADRIGAL TRADING CO., INC.                               1601
A0101400730000013688958SALONGA, RAYMARK DOMINGO OR                             10501
A0101400730000013688958SALONGA, CZARIANE BUGARIN                               20500
A0101401960000001844668**********                                               0501
A7201400170000013006643BELZA, RODELITH TUAL OR                                 10501
A7201400170000013006643BELZA, DANIEL REJAS                                     20500
A5001400170000000214020ARNOCO, MARIETA DIAMANTE                                 0502
B5001400170000008743795PETRA CEMENT INC.                                        1601
A0101400440161092595001DIONSON, ROCELYN CABALIN                                 0501
B0101401090000000772481RED IMAGES TIMELESS PHOTOGRAPHY INC.                     1605
A0101401090171202961001TERESITA N. SANTOS                                       0502
A0101401090171427121001SOLLY E. LIM                                             0501
A0101401090000004753806GUEVARRA JR., LEONARDO ACOSTA                            0501
B0301400530000003088048MINER'S CHEMICAL INDUSTRIES COR                          1604
B0301400790000002301342MONTEVERDE II, GEORGE MENDEZ DBU GV & HH                11601
B0301400790000002301342MARKETING                                               21600
A0301400950000001379535SO, GIOK SU OR                                          10501
A0301400950000001379535SO, FELISA CHENG                                        20500
A0301400950000014676232REYSON, JOHN KIM OR ABALLE, MEL                         10504
A0301400950000014676232CHITO OR LUCERO,                                        20500
A0101401380000005219836ONGAYO, MICHAEL ABAO                                     0501
A0101401380000000682622********                                                 0501
A0101412500000002304632CARITATIVO, PETER DALLARTE                               0501
A0101412500000017807382LEONOR, MARIA CRISTINA BALEROS                           0501
A0101412500000017807844ABING, MARIA CORAZON MARTIN                              0501
A0101412500000003289816RODRIGUEZ, RACHEL ROQUE                                  0502
A0101413600000013508657ISLA, ALGERICO LOPEZ                                     0502
A3101400450000001104174ANGSICO, VOUGHN IVAN ALCANTARA                           0501
A3101400450000002092979SAMONTE, MAXIMA ELEANOR B                                0502
A1001400350000015675542TORRES, DORIS PAMISA                                     0501
B1001400480000003028902TADIFA, ROSIE FLORES AND TADIFA, RENATO                  1601
A1001400480000014024210DELIMA, MELODIA RAMONA VALMORIA                          0501
A1901400290000017290530ORENCIA, MARCELINO BOADO                                 0501
A1901400290000017681035KHEDRICK CATERING SERVICES                               0501
A1901400290261780745001FLOR MENDOZA CRUZ                                        0502
A0101401670000002341646TAN, HINES HENRICSON TAO                                 0501
A0101401670000015040581DAYRIT, MA. KATRINA NARCISO                              0503
A0101401670271186280001OFELIA O. CRUZ                                           0502
B0101406460272038141001LIMKETKAI HOTEL & RESORT CORPORATION                     1602
A0101406620000016904013BASMAYOR, LOURDES DADEA                                  0502
B0101406620273038508001AMTI COMPUTERS SUBIC INC.                                1605
A0101406620000004925884SINON, VIRGINIA GENOVEVA J. OR                          10501
A0101406620000004925884SINON, JOHN VINCENT J.                                  20500
A0501400200000005751760SISON, JESUS BENITO PELAEZ                               0501
B0501400200000000035710GOLDEN DRAGON MOTOR SALES CORP.                          1601
A2601400270000006014751MAILA R UY DBU SABAI SPA AND                            10501
A2601400270000006014751BEAUTY CENTER                                           20500
A1101400120000003022373BANTULA, EVELISA FALLE                                   0501
A2001400290000009722005JOMAO-AS, REGAN PYPONCO                                  0501
A2001400290000016545381BUHISAN, CARL BERNARD LU DBU BU                          0501
A2001400290315688009001ALGOPERA, LLOYD GARCIA                                   0503
A0101402510341331222002ERLINDA C. RECOCO                                        0501
A0101409050000012409988PANGCO, JESIREE CHUA                                     0501
B0201400920000013598844HOME AND HOSPITALITY FURNITURE                           1601
B0201400920375034692001HERMAG VILLAGE HOMEOWNERS                               11602
B0201400920375034692001ASSOCIATION                                             21600
A0201400920000000048031FMC CATERING SERVICES                                    0504
A0201400890376625358001GAYATIN, CYBILL ANCAJAS OR                              10501
A0201400890376625358001LUYM, MA ELVIRA KAY                                     20500
A0101402930381205147002DRS. NORA FLANDES OR                                    10503
A0101402930381205147002EMMANUEL FLANDES                                        20500
A0101408370000011986368NAVAL, DENNIS LOGAN                                      0501
A0101408790000013824523JANG, KICHUL                                             0505
A0101411660000001145766IGNACIO, GERILYN GONZALES                                0501
A0101415350000005357002GALANG, MELVIN GONZALES                                  0501
A0101405490000006214160LUCIANO, LIZELLE SAMSON                                  0501
A0101408950000001760607PANDAN, MARIA JANET MAPA                                 0502
B0301400820000001554792VIC IMPERIAL APPLIANCE CORP.                             1601
B5501400120000012653491VALEENLAND REALTY CORPORATION DBU R                      1602
B5501400120410085274008VILLARUEL, MARIA VIRGINIA H.                             1605
A5101400100000015857364APOSTOL, JENNY RAMAYRAT                                  0501
B0101403030441039990001TOPTRUCK ENTERPRISES                                     1601
A0101412890000012474301JOANALIE BRUNO DBU KORDERM SKIN                         10502
A0101412890000012474301AESTHETIC & WELLNESS CENT                               20500
B0101403320471043598001ITP CONSTRUCTION INC./PRISMODIAL CONTS.                 11601
B0101403320471043598001CORP. JV                                                21600
A0101403320000001803327JULIUS CEAZAR SHOE CREATION                              0505
A0101403320471189593001LEVISTE, DIONISIA JAYECTIN OR                           10501
A0101403320471189593001SANTIAGO T. LEVISTE                                     20500
A0101403320471400801001MARILEN I. CRUZ                                         10503
A0101403320471400801001OR DENNIS MICHAEL CRUZ                                  20500
A0501400170481259032001DR. OSCAR RAMIREZ OR                                    10503
A0501400170481259032001DR. NENITA RAMIR                                        20500
B0501400170481357950001JASPER SPENCER L. ONG OR JESSE STEWARD                  11602
B0501400170481357950001L. ONG                                                  21600
A1901400160000000243581ROMAN CATHOLIC ARCHBISHOP OF                            10501
A1901400160000000243581LIPA (RCAL)                                             20500
B1401400110492365609001JEORGE S MALIGAT - PILIPINO HARDWARE AND                11601
B1401400110492365609001CONST. SUPPLY                                           21600
A1401400110492620230001DELOS SANTOS, ENRICO PEREZ                               0502
A0701400260000010423575**********                                               0501
B0101407430503006865001AIRTROPOLIS CONSOLIDATORS PHILS. INC.                    1620
A0101407430000000446702ESTRELLA, DHALYN M. DBU                                 10502
A0101407430000000446702VALON MARKETING                                         20500
B0101405940512033756001C.B. ANDREW ASIA, INC.                                   1603
B0101405940000003571793UNIVILLE DEVELOPMENT CORPORATION                         1602
A0101411400000007169317CASTILLO, JOSE NICOMEDES ABAD                            0501
B0101411400000002639701ELENA E. AMON                                            1605
A0101411400000017512135REMEDIOS M PARAON DBU EMLI BEEF                         10502
A0101411400000017512135NOODLES HOUSE                                           20500
B0101403450521011615001EAGLE ELECTRIC OF THE PHILS.                             1603
B0101403450521011989001**********                                               1610
B0101403450000008380810KOLONWEL TRADING                                         1605
A0101403450521238092002**********                                               0501
A0101410690000016105718ANUPOL, SHEENA LUZ HUBILLAR                              0501
A0101404130000009342536RAMOS, JANET PENDON                                      0501
A0101404130000010883311NAMESA, SHEANYLEE ONG                                    0501
B0101404130000009342387D'WORLD SPECIALISTS TRAVEL & TOURS                       1602
A0101404130000005962150**********                                               0501
B0101407720000011874772SPECTRES.SOLUTIONS INC.                                  1601
A0101412180603046674001DELA CRUZ, MARIA DBU MON-EYED T                          0505
A0101409890000017592464SABADO, PAUL ANTHONY                                    10501
A0101409890000017592464OR SABADO, PAULINO                                      20500
B0101409920000010528884PHILIPPIANS BUS LINE, INC.                               1610
B0101409920000000437001BELTRAN, RA DBU MJR2 PRINTING SERVICES                   1603
A0101406590662070270003INOCIAN, MARIA TSARINA PAJARO                           10504
A0101406590662070270003OR PAJARO, IRENE OR ZOAN                                20500
A0101410300000007614219MELCHOR, GISELA MILLAR                                   0501
A1301400340000005264973MARCOS, MARVIN CUALA                                     0501
A1301400500000015562399********                                                 0503
B1301400500684007395001K SERVICO TRADE, INC.                                    1603
A1301400500000011254407GARBIDA, GABRIEL GUEVARRA                                0501
A1701400230000009625516DOMINGO, CLIFFORD TEODORO                                0502
A0101408240711398939001FERNANDEZ, CHARLES HESED P. JT                          10501
A0101408240711398939001FERNANDEZ, STEPHANIE ANNE                               20500
A0101408240711430471002*******                                                  0501
A2801400100000014169714SONZA, MILAGROS SOLONGA DBU MIL                          0503
B2801400100000007896084SELLSIA INTERNATIONAL INC.                               1605
A4101400420000017827762VALENCIA, BERNARDO APELADO DBU                          10501
A4101400420000017827762LDS CAFE                                                20500
A4101400550000013901496RASE, IRENE LAXAMANA                                     0501
A4101400550815047780001TIUSECO, MICHAEL MANUEL RUSTIA                           0502
A4101400550000002091043RAMIREZ, CYNTHIA TAN                                     0502
B0101404840000006365142TRIMOTORS TECHNOLOGY CORP.                               1603
A0101404840851317230019FURAGGANAN, GENE C.                                      0502
A0101406750000017661031SALVADOR, RANILLO I QUIZON DBU                           0501
A0101405070861433631001CAROLYN MANGALONZO AGGABAO                               0501
A0601400230000005510281DAGDAG, MARY MAE VELASCO OR                             10501
A0601400230000005510281DAGDAG, JOHNDITCH TIGLAO                                20500
