B0101407300395821100608**********                                               2002
A0101408370382631595001DR. DOMINADOR A. ACOSTA JR.                              0502
A0101405490000003178432MIRIAM D. PANO OR MELANIO B.                            10503
A0101405490000003178432PANO JR.                                                20500
B0101405490392006563001CAPTIVE PRINTING CORPORATION                             1608
B0101405490392030564001NEW FS COOL AIRE INDUSTRIES, INC.                        1603
B0601400100081013321001BIO-TECH MARKETING CORPORATION                           1605
B0601400100081013322001LACTO B INCORPORATED                                     1605
A0601400100081357036001MUTSUJI, LEONORA MANGUERA                                0502
A1001400190231040264001WESTBOUND PETRON                                        10502
A1001400190231040264001SERVICE STATION                                         20500
A1001400190000002170656AMELINA E. FACTURA                                       0501
A3401400280000002323393ANTONINO, LYNNA JOY LIMBANA                              0501
A0101405650322643469001ALFUERTO, MILAGROS NARCISO                               0501
A2801400100000002253458DATU, FERDINAND BULAONG                                  0502
A0101404840000001312543CERBITO, SALVACION                                       0501
A0101400860011375890001AGUIRRE, VICTORIA ANDAL                                  0501
A0101400860011478374008LEONORA MACARANAS                                        0501
B0101400150000000633436HUBB STORES AND SERVICES, INC.                           1610
B0101400150061010686001AIR NIUGINI                                              1610
B0101400150061015841002ENZIMA INTERNATIONAL, INC.                               1602
A0601400100000001442706TINIO, JAIME DIAZ OR ATILANO,                           10501
A0601400100000001442706RACHEL T OR WADA                                        20500
A0601400520000002270913MICLAT, IMELDA ANCHETA                                   0503
A0601400520000003187273TUAZON, MA. ELISA MACAPAGAL                              0502
A0101413280000002317682**********                                               0501
A0101400730000004901159MASINAS, BELLBETH SALLOMAN                               0501
A0101412920000003464873CADA, VERONICA NG                                        0501
A0101400440000003705899ROSARIO, MARIETTA DEL ROSARIO                            0502
A0101400440000000596629ZENAIDA O. CALLEJO                                       0501
A0101400440161525001094MARIFE M. ENDE                                           0502
B0101401090000000772510MELMARICIO CORPORATION                                   1601
A0101401090171195867002MIGUEL L. NOCHE JR.                                      0502
A0101401090171196077001EUSEBIO E. LLAMAS OR                                    10503
A0101401090171196077001LOURDES LLAMAS                                          20500
A0101401090171421977001AIMIE M. MAGLANGIT                                       0502
A0301400530000002318561VILLANUEVA, FEDERICO MAGPAYO OR                         10501
A0301400530000002318561VILLANUEVA, MARI                                        20500
A0301400530193044799001AJB AUTO GLASS AND                                      10502
A0301400530193044799001ALLIED SERVICES                                         20500
A0301400660194731082088PEJI, JUNE ANN SOLER OR PEJI,                           10505
A0301400660194731082088JONATHAN CORTES                                         20500
A0101401380000001412593BATION, MARRY JOY ACAYEN                                 0501
B0101401380201038251001PRIME ROCK PHILIPPINES, INC.                             1601
A0101401380201501412001MEDINA, RUEL LIM                                         0501
A0101410720000004626380**********                                               0501
B0101410720000000029996J.C.T. EZ LOAN CORPORATION                               1602
A3101400870000004575662LOTIVIO, ANIKA BIANCA DE GUZMAN                          0501
B1001400190231014376003PENBANK, INC.(A PRIVATE DEVELOPMENT                      1603
B1001400190000001057669HEXAGONTECH AUTOMATION, INC.                             1602
A1001400190231582514001WABAN, BERLIN PAQUINO                                    0501
B1001400350233039881018EASTMIN FOOD CHAIN CORPORATION -                        11610
B1001400350233039881018JOLLIBEE GATEWAY                                        21600
B1001400350233039882018WESTMIN FOOD CHAIN CORPORATION -                        11610
B1001400350233039882018JB PUERTO                                               21600
B1001400350233039884008SOUTHMIN FOOD CHAIN CORPORATION -                       11610
B1001400350233039884008JB SUPERCENTER                                          21600
B1001400480000003357840BALDADO, MARIA LYDIA PEPITO DBU JOMARI                  11601
B1001400480000003357840TRUCKING SERVICE                                        21600
A1301400760000000050488ARMANDO E. NIEVES                                        0501
B0101401670271025034001M.P.S. FOOD CORP.                                        1602
A2601400270000002312210JANET GELACIO OR BARTOLOME                              10501
A2601400270000002312210GELACIO                                                 20500
A2601400270000000561693ROMARICK G. TABUCOL                                      0501
A2601400270000005301693ISAIAH 8:15 ENTERPRISES                                  0501
A0801400160000001031434LERRA MARIE SOLIVIO OR                                  10501
A0801400160000001031434DANILO SOLIVIO                                          20500
A2001400290000005841972ABRAHAM, PRISCILLA MAGDAMO                               0501
A0101402350321365573001CORAZON M. FERMIN OR ROSARIO C.                         10503
A0101402350321365573001MERCADO OR JOSE D. GANTAN                               20500
B0101402510341048034001PHILDIZ PHOTO GALLERY, INC.                              1610
A0101402510341433983008GO, SAU FONG LAM                                         0505
B0101402060351009544002RI CHEMICAL CORPORATION                                  1602
B0101402060000000653827EUSTYLE OF LINES, SOLUTIONS AND ARTS                    11601
B0101402060000000653827(E.L.S.A), INC.                                         21600
A0101402060351211808003AUGUSTO OR TERESITA ROSALES                              0506
B0201400760374046327001PELAYO, R. DBU TOTO ENTERPRISES                         11605
B0201400760374046327001COMMODITIES                                             21600
A0201400760374093398001YNCLINO, CHERRY TERESA RACAZA                            0502
B0201400920375047524001CUBAROL, VILMA SARMIENTO DBU                            11605
B0201400920375047524001NEW FRONTIER LOG                                        21600
B0201400920000000047943ECCON DEV'T. CORPORATION                                 1602
B0201401020000005109893PILIPINAS LOGISTICS & TECHNOLOGIES                      11603
B0201401020000005109893SOLUTIONS INC.                                          21600
A0101402930000003710574SOLATORIO, LOLLY ANN RAMOS                               0501
A0101402930381387448001DRA. MA. PAZ PAULA M. RAMA                               0503
A0101408370382394648002DRS. IRMA GERONIMO TAN NUNEZ OR                         10502
A0101408370382394648002ANTHONY RICHARD G. NUNEZ                                20500
A0101408370382400439001DR.CORAZON JESUSA SERAFICA-DIAZ                          0501
A0101408790383787785001GUEVARA, CRISTINA JOSEFINA JT                            0501
A0101402770391214496001FRANCISCO KUAN WONG OR                                  10505
A0101402770391214496001JOYAL KUAN WONG                                         20500
B0101405490000002880562AMARNANI, RAVI RAMESH                                    1602
A0101405490000004353053PERLITA M. DOMINGO                                       0501
A0101405490392038127001FEB 5 TRUCKING                                           0503
B0101405490000001935680HUGE MANUFACTURING CORPORATION                           1604
A0101405490392298552038MANUEL G. IBAÑEZ                                         0502
A0101405490392787306001JOEL S. BERNARDO OR                                     10502
A0101405490392787306001JENETTE Y. BERNA                                        20500
A0101408400394424700001QUILAY, EVELINDA QUEBEC                                  0501
A0101409210000004736163MINDANAO, WENCEL VINCENT CASABA                          0501
A2401400180000001935793PACULANAN, NORMA REPONTE                                 0502
A2401400180411478374042JOYCE R. GALLEON                                         0501
A0101403320000001646653RAGSAC, RICHARD ADOLF PAYUAN                             0501
A1401400110000003475854DAYA, FRANCIS GERARD MOLINA                              0502
B1401400110492028287001MARYHILL COLLEGE, INCORPORATION                          1605
A1401400110492777638001DY, EDNA AYCARDO                                         0510
A0101405940000005583553ERIKA KATHRINA V. NGO                                    0501
A0101405940000005837118LOMONGO, ELITA GAIL ALFONSO                              0501
B0101405940000000002740TRANS-MILLENNIUM MERCANTILE CORPORATION                  1603
B0101405940000000002751BASK DISTRIBUTORS, INC.                                  1603
B0101405940512025675001THE MARKETING EXECUTIVES OF THE PHARMACE                11602
B0101405940512025675001(MEPI)                                                  21600
B0101405940512571470001MEIVEN MARKETING AND CONSULTING INC                      1602
A0101403450521366584001**********                                               0501
A0101404000000003706136BATUCAN, PAUL ANWAR ROBLE                                0501
A0101404000000003707402KAREN ANNE GUNGON REYES                                  0501
A0101404000000003707602MARK ANTHONY DE GUZMAN SORIO                             0501
B0101404000551005114001ASSOCIATION OF PETROCHEMICAL                             1605
A0101404000000001186841UY, WILFREDO CO/UY, DANILO/                             10502
A0101404000000001186841PAREDES, MAILA                                          20500
A0101404130601345507001ADRIATICO, ULYSSES CORPUS                                0501
A0101407720602358836001FAMADOR, JAY ARNOLD FLORES                               0501
A0101407720602398203001CONRADO GABRIEL C. LORENZO                              10503
A0101407720602398203001OR PIA L. LORENZ                                        20500
A0101407720602461436003JANICE STEPHANIE                                        10502
A0101407720602461436003GIMENEZ-MENDOZA                                         20500
B0101404260611031875001CIPRIANO C. GAGAN CONSTRUCTION                           1602
A0101409920000001539522CEDENO, NOEMIE DEDICATORIA                               0501
A0101413440000002846320DIVINAGRACIA, CARMELA OR                                10501
A0101413440000002846320DIVINAGRACIA, MARGARET                                  20500
A0101413440000000570256********                                                 0501
A0101413990000005854048BITUIN, MA. ZITA CARMELITA C.                           10501
A0101413990000005854048OR BITUIN, ANGEL C.                                     20500
A0101406590662365707001JOSEPHINE P. VELASCO OR                                 10506
A0101406590662365707001ERNESTO U. VELASCO                                      20500
A0101410300000000191906MARIA JOSEFINA O SILVA                                   0501
A1301400500684592585001ROBERTO M CARLOS OR                                     10504
A1301400500684592585001MILAGROS T. CARLOS                                      20500
A0101408240711441984001SANTOS, MARIA VIRGINIA QUESADA                           0501
B0101408240711516092001QUE SORTE HOLDING CORPORATION                            1602
A0101408240711681184001PAMISAL, TESSIE UNATING                                  0501
B2801400100000004560014PHILIPPINE SOCIETY OF HOSPITAL PHAR                      1601
A2801400100000002253561DEL GALLEGO, ALICIA SANTOS                               0502
A4101400260000000002120LUCIANO, MARIA PAZ GOMEZ                                 0502
A4101400390000001732736CLAVERIA III, DON VIVENCIO G                             0501
A4101400420814478374030LIGAYA ILANO                                             0501
A4101400420814520766084PADILLA, ROSEMARIE E.                                    0501
A4101400420000002084540MEMBERS OF NATASHA (SHOECAT INC                         10501
A4101400420000002084540PELIMIANO, EDNA                                         20500
A0101412340000001017890CAMINERO, EDILBERTO NARVAEZ                              0505
A0101412340000003344881RYAN GREGORY C. NOLASCO                                  0501
A0101412340000003349160ALEKHINE G. TALANA                                       0501
A0101412340000003719471ROXANNE Q. PEREZ                                         0501
A0101404840851046725009MONINA G SAN JUAN                                        0501
A0101404840851213737001*****                                                    0502
A0101404840000000085061JANINE LAVADA                                            0501
B0101406750852041203001AUTOCIRCULO CORP.                                        1610
B0101405070861008149001TABAQUERIA DE FILIPINAS INC.                             1605
A0101413860000001233663DE DIOS, AMAL ESCORA                                     0501
A0101413860000005527766CUA, LORY NGO                                            0501
