A0101402060000002259823MAQUILING, VIRGILIO S. OR                               10502
A0101402060000002259823MAQUILING, PETER                                        20500
B0101402060000010846650AMANDA, SPENCER AND DOMINIQUE APPLIANCE                 11610
B0101402060000010846650CENTRE INC.                                             21600
A0101402060351217444016VIRGILIO S. MAQUILING                                    0501
B0101402060351217550001PETRON VALLE VERDE                                       1604
A0101402060351687812001SOLER, MA. ASUNCION RAMIREZ                             10501
A0101402060351687812001ARELLANO                                                20500
A1301400760000002346083PASION, JONALYN ROSETE                                   0501
A1901400290000013358880SHIELAN CRISEL M DIMAANO                                 0501
A1901400290261016395001GOLDEN OIL GASOLINE STATION                              0502
B1901400290261038430001LIPA CITY DENTAL CHAPTER                                 1601
B0101402060351702943001WINGI INC.                                               1601
A0101400150000012117241ANG, CHERYL LOU                                          0501
B0101400150061000544001CITIBANK - N.A.                                          1601
B0101400150061010600001SUAVIS INCORPORATED                                      1614
B0101400150061016942006ASIA PACIFIC EXPRESS CORPORATION                         1605
A0101400150061231268001CORAZON J. TAN                                           0502
A0101400600071389421001*******                                                  0501
A0101405810072400768001MONTIEL, MARILYN ESQUERRA                                0501
A0601400100000009324118BALL, SHIELA SOTELO                                      0501
A0601400100000010024914BOK, JANE DUE DBU MOGORA ASIAN                           0505
B0601400100081035501001RAYMOND DENNIS TRINDER MEMORIAL FOU                      1601
A0601400100081251939002ELIZARDO OR WILMA MARTINEZ                               0502
A0601400100081256573002LIM, JUDY C.                                             0501
A0601400520000005943633LACSON JR., DANIEL LISING                                0502
B0601400520000007553797BRIGHTLIVES LENDING PHILS. INC.                          1602
A0601400520000002085883MA, JENNIFER TECSON DBU                                 10505
A0601400520000002085883D'AFFAIR FURNITURE                                      20500
A0101414090000001652433JANGSIK YUN                                              0510
A0101414090000004803623RELOVA, CHRISTIAN MABANTA                                0501
A7201400170000002791320BALACE, GAUDIOSO TALONDONG                               0501
A0101400440000010744835SY, DIANNE MARICRIS GALIMA                               0502
A0101400440000000029401ANGEL, HELEN VILLANUEVA                                  0501
A0101400440161673269001GREGORIO G. BALLENA JR                                   0501
B0101407270162040127001SEVEN-SEGMENT BUSINESS SOLUTIONS INC.                    1601
A0101407270000001597157DE OCAMPO, LOLITA DBU FIRST                             10501
A0101407270000001597157BORN INDUSTRIAL                                         20500
A0101407270162331908091EDUARDO G. DE GUZMAN                                     0503
A0101407270000000010106DENIS RICARDO LUCINDO                                    0502
A0101407270162536579001ANGELITO DE JESUS DOMINGO                                0503
A0101401090171195629001HERMINIGILDO G. RANERA                                   0503
A0101401090171196194001DR. JESUS EUSEBIO JR.                                    0510
B0101401090171202346001A & P CASTLES REALTY, INC.                               1602
B0101401090171203550001LUNINGNING MALABANAN SEPTIC SLUDGE                       1601
A0101401090171416998001CABRERA, JOSE PEDRO GAGUI                                0503
A0301400660000000048315UY, OCTAVIO WEE                                          0501
B0301400660000001020124SILVER POWER FUELS                                       1602
B0301400660000001020124SILVER POWER FUELS                                       1603
A0301400790000009806215SR AND RM ENTERPRISES                                    0501
A0301400790000006269878PACIA, JENNIFER ANDAYA                                   0501
B0301400790000002301342MONTEVERDE II, GEORGE MENDEZ DBU GV & HH                11601
B0301400790000002301342MARKETING                                               21600
A0101401380000001412720BARRETTO, STEWART LIM                                    0501
B0101410720000000030053GRACE GOSPEL CHURCH NORTH INC.                           1601
A0101410720653509852001SOMOSIERRA, NERIO G. OR                                 10502
A0101410720653509852001SOMOSIERRA, ANNA MARIA A.                               20500
B3101400160221017929001PILI BATTERY SALES, INC.                                 1602
B3101400160221045869001LICEO DE CALAMBA                                         1605
A3101400160000004362798YBUAN, ROMMEL ARLATA DBU R.A.Y.                         10501
A3101400160000004362798METAL FABRICATION                                       20500
A3101400160000002355751FAJARDO, HONORATA LUCIDO OR                             10501
A3101400160000002355751REGENCIA, NARCISA FAJARDO                               20500
A3101400450223046748001PLAN ELECTROTECH CENTER                                  0502
A3101400870000000074786KARUNUNGAN, ALLAN MALALUAN                               0501
B3101400870225067454001GDNC GAS AND LUBES CORP.                                 1603
A3001400130000001271498VILLANUEVA, ARNEL JUDE LUY DBU                          10501
A3001400130000001271498AJL VILLANUEVA ACCOUNTING                               20500
A3001400130000010506559DEVARAS, JOHN DATAHAN DBU DJAR                          10503
A3001400130000010506559TRADES                                                  20500
A1301400470252507986001MARY JANE C. MARTE OR                                   10502
A1301400470252507986001ANGELITO B. MARTE                                       20500
A1301400760000009812211DELA MERCED, MARICEL MARILAG                             0501
A1301400760000005990054SANTOS, MARY ANN RESPICIO                                0501
A1901400290261198389001ELISA H STURM                                            0501
A1901400290261384094002VIRGILIO B SILVA OR                                     10501
A1901400290261384094002LUCENA P SILVA                                          20500
A0101406620000001686940TOBIAS, ADRIAN LUIS MA CHENG                             0502
A0101406620000003661567CIUTI, ALESSANDRO MARCO                                  0501
B0101406620273043712001DEKACORD, INC.                                           1601
B0101406620000003497052DEKA HOLDINGS, INC.                                      1601
B0101406620000003497063DEKA PROPERTIES, INC.                                    1601
B0101406620000003497289NATURASI, INC                                            1605
B0101406620273733659001ULTRAGAS CARRIERS CORP.                                  1602
A0101406620000003661545DE GUZMAN, ROSARIO ANGELES                              10501
A0101406620000003661545KATIGBAK                                                20500
B0101410980275046025001SPRINT ASIA LOGISTICS INC.                               1601
B0101410980275047209001PIONEER STATIONERS, INC.                                 1602
B0101400570281007186002SUKYO MAHIKARI PHILIPPINES, INC.                         1603
B0101400570281022091003ST. JOSEPH'S COLLEGE OF QUEZON CITY                     11605
B0101400570281022091003DEPOSIT PAYABLE                                         21600
B0101400570000000749491SILANGAN FOUNDATION FOR ART, CU                         11610
B0101400570000000749491AND ECOLOGY INC                                         21600
A0501400200000009556625MANAOIS, JAIME BOCALOY                                   0502
B0101402350321030788001TRADEMASTER RESOURCES CORPORATION                        1601
A0101402350321176404002MATIAS, GINA A. OR DANILO M. OR                         10501
A0101402350321176404002MATIAS JR., DANI                                        20500
A0101402350321367238002QUIMSON S. TAN                                           0502
A0101402350321485233001TUI, CHARLES ANGELO                                      0503
B0101402350321738079001OLIVAREZ GENERAL HOSPITAL INC.                           1610
B0101405650322020426005LEISURE FARMS TAGAYTAY, INC.                             1605
B0101405650000005382032OLYMPUS GLOBAL LOGISTICS INC.                            1601
A0101405650322343954002VAN ELDIK, MA. TERESA JUSON                              0502
A0101405650000004822242BABASA, FRANCO ANTONIO ROXAS                             0502
A0101402060351549135001SOLER, JOSE ANTONIO ANDAYA OR                           10502
A0101402060351549135001SOLER, MARIA ASU                                        20500
A0101409050000000258360ILAGAN, CHRISTOPHER MATTHEW JT                           0501
A0101409050000008087656CRISOSTOMO, DAISY MAE LUCAS                              0501
A0101409050352716164001ANYAYAHAN, EDWARD GONZALES                               0502
B0201400760374030466002A.D. GOTHONG MANUFACTURING CORP.                         1602
B0201400760000005016608AKTIV FOOD EXPRESS INC.                                  1601
A0201400760374442376001YU, JOSEPHINE OR ESTEBAN                                10501
A0201400760374442376001OR STEVENSON OR JOVELYN                                 20500
B0201400920375044764001GOLDEN ROAST CHICKEN INC.                                1602
A0201400920375529534001BESANES, LAVOISIER OR BESANES,                          10510
A0201400920375529534001CHUCHI OR BESANE                                        20500
B0101402930381009648001CHRIST'S COMMISSION FOUNDATION, INC.                     1601
A0101402770391756907001MAKAYAN JR., CONRADO ADORNA                              0502
B0101405490392332339001HUANG, WINFRED YU                                        1603
B0101408400394017929002PILI BATTERY SALES, INC.                                 1602
A0101408400394478374056JENNIFER C. TIMOLA                                       0502
A0101408950000008554223JUSON, AQUARIUS TAMAYO                                   0502
B0101408950396026318001GLOBAL CITY AUTO SALES, INC.                             1605
A0101408950396278592001DR. ERIC P. HERNANDEZ OR                                10505
A0101408950396278592001DR. MARIANNE P. HERNANDEZ                               20500
A0101408950396397661001LAZARO-DIZON, GERGEN MARIE SERR                          0502
A0101408950000007458942HUFANA, VLADIMIR DIZON                                   0502
A0101409210000000043763ENDOZO, ANICIA Q. OR                                    10501
A0101409210000000043763ENDOZO, MELECIO                                         20500
A0101409210000002278942OCAY, JEYSON MONTA                                       0501
B0101409210398026417001HAFELE PHILIPPINES, INC.                                 1601
A0101412210000004644593CLARITO, IAN BARTOLOME                                   0501
A2401400180411023998002ENE MARKETING                                            0502
B2401400180411033588088FIESTA APPLIANCECENTER, INC.                             1605
A2401400180411459008001SALES, LYNETH SALVAN OR                                 10501
A2401400180411459008001SALES JR., POTEN                                        20500
A1201400150000006253603ACLOPEN, ANGELINA NGA-EB                                 0505
A1201400150421039385001JL'S CLEAN UP JANITORIAL &                              10503
A1201400150421039385001MANPOWER SERVICE                                        20500
A1201400150421393051001CHENG, NIDA MOLANO OR CHENG,                            10505
A1201400150421393051001VENJOHN MOLANO                                          20500
A1201400150421790666001ANG, AILEEN LIM                                          0502
A0901400220000010424892**********                                               0501
B0901400220432043554001GERRY'S GRILL                                            1602
A0101403030000000531462HARROW, ALAN JAMES ANTHONY CASA                          0502
A0101403030000011253831SY, MICHELLE                                             0501
A0101403030441660281001**********                                               0503
A1901400160000011077860REYES, FELIPE GARCIA OR REYES,                          10501
A1901400160000011077860ROSEMARIE CUTTERMAS                                     20500
A1901400160000007981620ASEPTIQUE TRADING                                        0502
A1401400110000010622670FRANCISCO FERDINAND F LAGMAN OR                         10503
A1401400110000010622670MILDRED F PIAD PH.D                                     20500
A1401400110000005526990DIHIANSAN, CHRISTINE BRIOSO                              0501
B1401400110000000034631THOCH MARKETING CORPORATION                              1601
B1401400110000000034642CHRIS JANN CORPORATION                                   1601
B1401400110000003475723RCBL-OLMCS-FUNDRAISING                                   1601
A1401400110492502818001OBISPO, ALONA VILLAMAYOR                                 0505
A1401400110492575977001HERRERA, MA. BULAKLAK ROSAS                              0501
A1601400170000002842602SILVERIO Y. REDOBLADO  OR                               10502
A1601400170000002842602EILEEN N. REDOBL                                        20500
B0101407430503020556001AIRFREIGHT 2100 INCORPORATED                             1601
B0101407430000000035316D' FRADA ALLIED SERVICES INC.                            1602
A0101403580000000016042EUGENE M. MANALO                                         0502
A0101403580000002265578POSA, CYNTHIA CERVANTES                                  0501
B0101403580511005168001HILLSIDE VIEW REALTY CORP.                               1601
B0101403580000000015807MEC - SD                                                 1605
B0101403580000004558709MILLENNIUM ERECTORS CORPORATION                          1601
B0101403580000004558750ECOSSENTIAL FOODS CORP.                                  1605
B0101403580511043262001VY REALTY DEVELOPERS INC.                                1601
A0101403580000007265263DOOD'S INDUSTRIAL PIPE LAYING S                          0501
B0101403580000000922849CASHPINAS REMITTANCE CORP.                               1601
B0101403580000000922850CASHPINAS REMITTANCE CORP.                               1601
B0101403580000002185457VY, ALVIN DBU VYCA WAREHOUSE RENTAL                      1601
B0101403580000002185468VY, ALFONS DBU A & C IMPORT EXPORT                       1601
B0101403580000004558681VY, ALLEN DBU LGSS MARKETING                             1601
B0101403580511155274001ZOBELLA & CO., INC.                                      1602
A0101403580511403658006EMMANUEL P. BONOAN                                       0505
A0101403580511509576001EMMANUEL P. BONOAN                                       0505
B0101408530000000035867WE SEARCH @ SEARCHERS & STAFFERS CORP.                   1605
B0101408530516524823001SL TEMPS INC.                                            1610
A0101408530516571877076GIOVANNI C. BROCOY                                       0501
A0101411790000012535249MAGTARAYO, HELEN BRUL                                    0501
A0101412050000000323613ZULUETA, CHARISSE DBU CEM                               10502
A0101412050000000323613TECHNOLOGY ENTER                                        20500
B0101403450521048101168SKYBLUE LENDING CORPORATION                              1605
B0101403450000008380854*********                                                1603
A0101403450521326639002**********                                               0502
A0101403450521638611001**********                                               0510
A0101404130601694013001TAN, NANCY LIMSICO                                       0501
A0101409920000011312802MARAVILLOSA, MARIA LIEZL BALAGB                          0502
A0101413990000010191265CARAMANZANA, EDGAR MABORANG                              0501
A0101410300000012210772MAGANA, ARBIEL BUNAG OR                                 10510
A0101410300000012210772BUNAG, BELLA SEVILLA                                    20500
A1301400210000005289676JANORAS, JOEL MONTESA                                    0501
B1301400210682012959002COLEGIO DE CALUMPIT INC.                                 1610
B1301400210682030329002ANDAN ENTERPRISES, INC.                                  1602
A1301400210682249265001AGNES P. ANDAN                                           0501
A1301400210000005040271MADRID, PIA MARIE ISABELLE BUHA                          0501
B1701400230693043895001ILOCOS NORTE ELECTRIC COOPERATIVE,I                      1601
B0101408240000000832677THE BRIDGE SCHOOL, INC.                                  1601
A0101408240711305225001AURELIO K. LITONJUA JR.                                  0501
A0101408240711372664001EDWARD M. ESTORNINOS                                     0501
A0101408240711376741001KANG, UKJONG OR SANG, IRIS                               0501
A0101408240711379193001MARIA LEAH OR MARTIN LORENZO                             0502
A0101408240711387030001WISCO, CHRISTIAN PAUL MARIANO                            0501
A2801400230000005253316NAVARRO JR., ERNESTO SITJAR                              0502
B2801400230000000372729KRJ TRADING                                              1602
B4101400260812012641001ROYAL DASMARINAS KING CHOW, INC.                         1601
B4101400260812022853001ROYAL GEN TRI KING CHOW, INC.                            1601
A4101400260000009533553BANGILAN, JAHMAE JIMENEZ                                 0502
A4101400390000000048582NENITA N. ALONZO OR                                     10501
A4101400390000000048582DIONESIO C. ALONZO JR                                   20500
A4101400390000007459198BERNARDO P. GUINOO OR                                   10503
A4101400390000007459198ANA B. GUINOO                                           20500
A0101412340000002900318******                                                   0502
A0101412340000003340650RODOLFO V. AMBITA JR.                                    0501
A0101412340000003345537NESTOR B QUINIQUINI                                      0501
A0101412340000003438873ALVARADO, JOCELYN GAYTE                                  0501
A0101404840000003409852DE LAZO, TARHATA O. OR DE LAZO,                         10502
A0101404840000003409852JAIME M.                                                20500
A0101404840000004565817FERRER JR., W DBU I & A LAUNDRY                          0501
B0101404840000003069696SIGMATECH INC                                            1601
A0101404840851298552055SIXTA MELBA C. ENGBINO                                   0502
A0101404840851520766131RAQUEL L. CINENSE                                        0501
A0101404840851546795001ALCANTARA, JOEL CASTILLO                                 0501
A0101406750852025577002INTHRUE AUTO PARTS TRADING                               0502
A0101406750852181065001MARICAR V. PANGILINAN                                    0502
B0101405070861038512001**********                                               1603
A0101405070861463084001CATAPANG, JOCELYN LAUREL                                 0502
A0101405070861540871001***************                                          0502
A0101413860000000859025OCAMPO, RENE CASTILLO                                    0501
