A0101410140000000254408COMSTI, CHARITO C.                                       0502
A0101410140000012209584DELA ROSA, FELICISIMA EMELINE Y                          0501
A0101412630000001823398BANZUELA, ELEANOR ADORNA OR                             10501
A0101412630000001823398ZAPANTA, VICTOR                                         20500
B0101412630132058436001SPACE EDSA CORPORATION                                   1602
A0101400440161525001092EDNA D. DOLORES                                          0502
A0101400440000004901564DOVIE T. JERMIA                                          0502
A0101400440161443113001ARVIN JON A. FU OR                                      10501
A0101400440161443113001DERYL BANGAYAN F                                        20500
A0101400440161478374076JAYNE D. BARBIN                                          0501
A2401400180411658464001FRUTO, RUTH GENAYAS                                      0501
A1301400210682040042001EDUARD ALLAN TRADING                                     0502
A0101401250000008460031DR. CHRISTOPHER BAGA GAVIOLA                             0502
B0101400150061019593001FLEUR ESSENCE, INC.                                      1601
B0101400150061027783001CRESCENT MINING AND DEVELOPMENT                         11601
B0101400150061027783001CORP.                                                   21600
A0101400150061600364001BROWDER, THOMAS MARTIN                                   0501
A0601400100000013993003MANALANG, SHIELLA MARIE SERRANO                          0501
A0601400520000001349651OLIVA, RONALD DAYOS                                      0502
A0101413730000002229701*************                                            0501
A0101410560000005836319CRISTINA L. LUALHATI                                     0501
A0101400730111386485158ANITA B. ALDAY                                           0501
A0101401960000004419761**********                                               0501
A0101401960121238456001**********                                               0501
A0101412630000002040500DEPALAC, GLENDA TABARANZA                                0501
B0101401830141028161001EXTERMICON GENERAL SERVICES, INC.                        1602
A0101401830141306069001CORTES, GENARA MOLINA                                    0504
A7201400170000010016056GANANCIAL JR., CARLOS FUENTES                            0502
A5001400170000000045003LIONG, JULIUS TAN OR LIONG,                             10510
A5001400170000000045003DANA CORAZON LAMBATAN                                   20500
A5001400170000000214020ARNOCO, MARIETA DIAMANTE                                 0502
A0101400440161459294001MARY ANN T. REGINALDO                                    0502
A0101407270000003254106SIGUAN, PERLITA LABUTAP                                  0501
A0101407270162331908049RIVERA, SHEILA                                           0502
A0101407270162629158001JANET R. RAGOJOS                                         0501
A0301400530193623755001SALIBAY, FREDIE G.                                       0501
A0301400950000000566683CARISSA ANNE C. DELOS SANTOS                             0502
A0301400950000001379615CABALLERO, MARY LYNN ONG                                10502
A0301400950000001379615OR CABALLERO, GLENN                                     20500
A0301400950000005707068SON, PATRICK JAMES BERNAL                                0501
A0101401380000012373023HUANG, PENGXIANG                                         0502
B0101401380201019285001E BUGIA CUSTOMS BROKERAGE INC.                           1601
A0101401380201179828002RIANO, EPIFANIA M.                                       0502
A3101400160221220343001LAARNI A. CALAPATIA                                      0502
A3001400130000005708523MANGAO, NECITAS BATALUNA                                 0502
A3001400130000010813486MANANSALA, NINA ASIS                                     0501
A3001400130000006145228DEDICATORIA, ROMEO DBU LCM MARK                         10520
A3001400130000006145228ETING                                                   20500
B3001400130000006004693DEDICATORIA, ROMEO DBU LCM MARKETING                     1610
A1001400190231283324001GICABAO, BENY CHAN OR                                   10501
A1001400190231283324001GICABAO, VILMA A                                        20500
A1001400190000000016468NERI, JENNY RACAZA                                       0501
A1001400190231520766208LACRE, HAYDEE DAGPIN                                     0501
A1001400480000003357500SALVACION JR., DIONISIO CAINGLE                          0502
A1001400480000010131481SALVADOR, LAVERN UMEREZ OR                              10501
A1001400480000010131481SALVADOR, JOHN PAUL J                                   20500
B1001400480000003028913MA. DEL CARMEN MART, INC.                                1602
B1001400480000003357891AYA VENTURES CORP DBU ASONHUAT AGRO INDU                11601
B1001400480000003357891STRIAL GROWER                                           21600
B1301400470000003270157L5 & SONS FINANCING CORP.                                1610
A1901400290000003252844PEDRO ELLAZAR RAMOS JR                                  10502
A1901400290000003252844OR LEAH GRACE LINAS RAMOS                               20500
A1901400290261244409001ESPERANZA PAZ M LEYEZA OR                               10502
A1901400290261244409001JUAN GUALBERTO M LEYEZA                                 20500
B0101406460272020749001EASTGATE COMPUTER CORPORATION                            1601
B0101406460272043457001TARSIER SECURITY AGENCY, INC.                            1602
A0101406460272369676001CO, ADELA GO                                             0501
B0101406620000011433166VALENS RESEARCH ASIA, INC.                               1605
B0101406620273009495006CITISECURITIES, INC.                                     1601
B0101406620273029790001NCM SERVICE COOPERATIVE                                  1601
A0101406620273236978001CALLEJA, HOWARD MACEDA                                   0503
A0101408660000000373073ROBERTO MONROY OR                                       10501
A0101408660000000373073ANNELLE MONROY                                          20500
B0101410980000003479470CRAFTISTRY INC                                           1610
A0101411820000005380081MARK MIKHAIL F. SUBIDO                                   0501
A0101400570281412649001ALEJANDRO P. ORTIGAS                                     0501
A0101400570281497303001FELICIANO, JONATHAN DOMINIC HER                          0501
A0101400570281500167001**********                                               0501
A0101411240000005135911DE TORRES, JULIAN RAMOS                                  0502
B0501400200000006444824C SQUARED PRIME COMMODITIES CORPORATION                  1602
B0801400160311029906001************                                             1602
A1101400120000003022413DUCENTES, GLORIA TROCINO                                 0501
A1101400120000003022413DUCENTES, GLORIA TROCINO                                 0501
A1101400120000003197095IBANEZ, JENNY LIND BUENO                                 0502
A1101400120000013976093HAMBRE, MARGIE BAYONA                                    0501
A1101400120000006186770LATORRE, NOEL TAN DBU SKYE                              10505
A1101400120000006186770COFFEE AND WINE BAR                                     20500
A1101400120000000652351YAO, RONALD PHILIP GO                                    0502
A6601400120000014001411DELA ROSA, MA. THERESA DORMIEND                          0501
A6601400120314042312002NORSAM BUILDERS & CONSTRUCTION                          10502
A6601400120314042312002SUPPLY                                                  20500
B6601400120314083829001**********                                               1602
A6601400120314622580001SOSING, CAROL O. OR FELIPE A.                           10505
A6601400120314622580001OR CAROLYN O.                                           20500
B0101402350321015321001BEST CHOICE MINIMART INC.                                1603
A0101405650322342825001DIAZ, RHANI JOY TERESITA M.                              0501
A0101402510000005284620SANTOS, RUTH ROMAN                                       0502
A0101402510000011325243ANDRES, MYLETTE VELASCO                                  0501
B0101402510341059824002SAN SEBASTIAN COLLEGE-RECOLETOS MANILA                  11601
B0101402510341059824002P.T.A HIGHSCHOOL                                        21600
B0101402060000006931753POLYMER PRODUCTS PHILS., INC.                            1601
A0101402060351211820001ROMUALDEZ, RAFAEL OR ANTONIO OR                         10503
A0101402060351211820001CRISTINA OR MART                                        20500
A0201400760000006433569SALIMBANGON, CESAR LAGO                                  0503
A0201400760000000222922PELUCHI ESSENTIALS SPA                                   0501
B0201400760000007134341CLS PROPERTIES INC.                                      1603
A0201400920000001331862***********                                              0501
A0201400890376596483001MEDINA, MANUEL VALENCIA                                  0501
A0201401020000003031129DEL PRADO, JOSE VICE DBU DE LAR                          0502
A0101402930000003710643CHUA, JEAN CHAN                                          0501
B0101402930381022284001INVESTORS ASSURANCE CORPORATION                          1602
A0101415350000011119809URRUTIA, STEVEN KEITH KING                               0501
B0101408400000012225471CPAP PH                                                  1601
A0101408400394028886002DEC ORIENTAL FOOD STREET CO. LT                          0503
A0101408400394739898001TAN, BOON KIN OR ALINDADA,                              10501
A0101408400394739898001CARLOS                                                  20500
A0101408950000002255432DELA CRUZ, JORDAN YAO OR D                              10501
A0101408950000002255432DELA CRUZ, MARIA CARINA                                 20500
A0101409210000004092255ENDOZO, LEAH APOSTOL                                     0502
A0301400820000010907150PERALTA, MONLEO L.                                       0502
A0301400820000012928593UY, HARRISON DELA CRUZ                                  10510
A0301400820000012928593DBU H08 TRADING                                         20500
A0301400820409094648001LADAGA, SHERRYL E. OR LADAGA,                           10502
A0301400820409094648001JOSEPH FRANKLYN                                         20500
A2401400180411478374020MORI, LYDIA                                              0502
A2401400180411514423001DEALA, BERNARDITA GATCHALIAN                             0502
A0101403030441239047001**********                                               0501
A0101410140475339949001SANTOS, ADORACION SANCHEZ OR                            10505
A0101410140475339949001SANTOS, MYRNA SA                                        20500
A1901400160000013996326ARCE, MYRLIE RAY ANDOY                                  10502
A1901400160000013996326OR ARCE, EDRIAN MERCADO                                 20500
A1601400170000009954232DELGADO, EMMANUEL LIWANAG                                0501
B1601400170000000421241LEGAZPI ISUZU CENTER                                     1604
A0101407430000011167707SELISANA, ELVIS ESPANTO                                  0502
A0101407430503434847002JOCELYN L. CUSTORIO                                      0501
A0101405940512447601001********                                                 0501
B0101408530516036896001UNITED GRAPHIC EXPRESSION CORPORATION                    1606
A0101408530516508072001TOMACRUZ, ANTHONY R. OR                                 10501
A0101408530516508072001TOMACRUZ, MA. GE                                        20500
B0101403450521011936001**********                                               1605
B0101403450521240651001**********                                               1601
B0101403450521441848001**********                                               1602
A0101404130601756004001TENIDO, ROLDAN SUMILANG                                  0502
A0101404260000003498420LABRADOR, ROGELIO DBU PRL METAL                          0502
A0101404260611150835001HENRY OR LAI SHA CHING                                   0505
A0101404260611478374135EMELITA B. MONCHEZ                                       0502
A0101409890649798776001LOCK, HERBERT FONG OR                                   10501
A0101409890649798776001WONG, FRED LOCK                                         20500
A0101409890649798776002LOCK, HERBERT FONG OR                                   10501
A0101409890649798776002TY, JEANETTE                                            20500
B0101407690000011457351TITA ELY'S FOOD SHOP INC.                                1605
A0101407690652376195001DIDELES, JOSEFINA BALINGIT                               0501
A0101413570000004353720NAVARRO, CARMELITA VALENA                                0502
A0101413570000013692470RECIO, MARINA C. OR                                     10502
A0101413570000013692470RECIO, RAFAEL APOLINAR H.                               20500
A0101413570000001720212NIMFA C. ESPULGAR                                        0501
A0101413990000004511113SALEM JR., REYNALDO PLACIO                               0501
A1301400210000007669392ESPIQUE, TEODORO SANTOS                                  0502
A1301400210000011696236VALERIO, MA. ROWENA EMFLORGO                             0503
A1301400340683431915001ANTONIO, MARIO RAMIREZ                                   0501
A1301400500684635536001JOSELYN D SANTOS OR                                     10501
A1301400500684635536001EDGAR D VILLAR J                                        20500
A1301400500000002063872DELA CRUZ, RODOLFO LAJOM OR                             10502
A1301400500000002063872DELA CRUZ, ALICIA SANTOS                                20500
A1701400230693633961002CHUA, HENRY YANG or CHUA, ERIC                          10502
A1701400230693633961002HERBERT TANG                                            20500
A0101408240711480752001ESTACIO, GERONIMO CAPULONG JT                            0501
B2801400100000007629243PLANATE MANAGEMENT GROUP CORP.                           1601
B2801400100000007629287SELLSIA INTERNATIONAL INC.                               1603
A2801400230000011730395PENTINIO, JENNIFER NOCEDA                                0501
B2801400230000000372741PRIME COSMOPOLITAN SERENITY INC. DOING                  11602
B2801400230000000372741BUSINESS UNDER                                          21600
A4101400260000011418050MELO, MARCO ANTONIO REYES                                0501
A4101400260000006042917MANALO, JEFFERSON S. DBU J.S.                           10501
A4101400260000006042917MANALO CONSTRUCT                                        20500
A4101400260812478374062SUNNY G. CAPORADO                                        0502
A4101400420814329306001REYNALDO N. TUPAL OR                                    10502
A4101400420814329306001MARIA VERONICA A                                        20500
A4101400550000002091101MENDIZABEL, ROMEL GAERLAN OR                            10502
A4101400550000002091101MENDIZABEL, VINA                                        20500
A4101400550000006044651AAT COMPUTER SUPPLY                                      0502
A0101412340000004360143SHEILA MARIE Y. SERAFICA                                 0502
A0101412340000004360296LIWAYWAY M. LANGIT                                       0501
A0101412340000003438760THERESITA G. HERRERA                                     0501
A0101412340000005964270CASTRO, KAREN ANN DAMIAN                                 0501
A0101412340000010659857ELOIDA D. ABAYGAR                                        0502
B0101404840000006365400GCF SOUTH METRO, INC.                                    1603
A0101406750000012930051LAGMAN, SHEALA CANIVEL                                   0501
A0101405070000011289086MAPE, ROWENA PIOQUID                                     0501
A0601400230000000029718LACAP, MILAGROS MACATO                                   0502
A0601400230000006243045PALOMO, JEROME BUSTOS                                    0501
A0601400230000013259393JOHN MARK N PARAS                                        0502
A0601400230891525600001MARILYN OR CONRADO PACLA                                 0510
A0101404260611034987640JS TRAVEL & TOURS                                        0501
