F0101413600000002822722GPRS - UNIFIED PRODUCTS AND                             12601CK1
F0101413600000002822722SERVICES INC.                                           22600CK1
F1901400290261041321001SHERRY EVETT YAP GONZALES                                2501CKO
F1201400150421017589003CJH HOTEL CORPORATION                                    2610CKR
F1901400160491040836004DR MA JOYCELYN R MERCADO                                 2501CKO
F1301400340683012920002MEYCAUAYAN COLLEGE INC.                                  2610CKR
F3201400190000001492935SY, MIMI ENA LUCIA PIRA OR                              12501CKO
F3201400190000001492935FERNANDO L. SY J                                        22500CKO
F4101400550000006044133BINAKAYAN HOSPITAL AND MEDICAL                          12602CK1
F4101400550000006044133CENTER, INC.                                            22600CK1
