F0101409760474065757001FIRST PILIPINAS POWER &                                 12601CKR
F0101409760474065757001AUTOMATION INC.                                         22600CKR
F0101402060000000653907LAY BARE SUPPLIES DISTRIBUTION                           2605CK1
F0101404260611033385001LAY BARE WAXING PHILIPPINES                             12605CKR
F0101404260611033385001INCORPORATED                                            22600CKR
