A4101400390000000048611JARANILLA - DE JESUS, RIZALIE A                          0501
A0101407720000000051130LEGASPI, LILIAN DOMINGUEZ                                0505
A0101400440000000060346JANICE C. BILBAO                                         0501
A2801400230000000063107TUBLE, MARIA ELIZABETH CABRERA                           0501
A0301400530000000065774WILLIAMS, ANTHONY P.                                     0502
A0301400530000000065832PERIAS, FE                                               0501
A4101400420000000120856NAPILI, EMELY DACOYCOY                                   0502
A1001400190000000124683ABCEDE, CARMENCITA A.                                    0501
A1001400480000000133337TUDTUD, NELSON ATAMOSA                                   0501
A0101403580000000383664MA. LUISA SYLVIA A. ABELLO                               0503
A0901400220000000425045LOZADA, ELIZABETH GO                                     0501
A0101405490000000444313BENITO M. LOJO                                           0503
A0101404840000000475952GONZALES, ROWENA POLLICAR                                0501
A2601400270000000561460VILINDA J. HAMOR                                         0501
A0101413570000000635494**********                                               0501
A0101403320000000735717BAUTO, GUADA LYNNE CASTILLO                              0501
A0101403320000000736112GRACE A. GERVACIO                                        0502
A0101404680000000767120LOCAR B. DESALES                                         0502
A3401400280000000784681LUSANTA, EDEN OTON                                       0502
A0101404680000000862180ONAKA IPPAI FASTFOOD                                     0502
A0901400220000000887987MUESCO, MAYBELLENE JOY ANDOG                             0501
A0101412050000000890882********                                                 0502
A0301400530000001009830********                                                 0504
A0301400530000001009932TAUTHO, SHIRLEY E.                                       0502
A0301400530000001010033YABUT, ELVIS G.                                          0501
A0101412890000001056575UDOG, MA GINA SAN PEDRO                                  0502
A1001400190000001057545JAIME C. BEDRO                                           0502
A1001400190000001057603EDA C. CAWALING                                          0501
A0101409050000001662517SANTOS, MARNELLI DELA CRUZ                               0501
A1101400120000001920645GO, EDEN VILLANUEVA                                      0501
A0101410560000001944032CHAN, JONALYN VALLE                                      0501
A4101400420000002084471ISIP, CLEOFE J.                                          0501
A2601400270000002257110SHEENA MARIE MAMERTA V. CULHI                            0501
A0101406590000002646853SOGO-AN, SALVADOR BEIGICA                                0502
A0101401700041565412001COMEDA, MARIO TADURAN                                    0505
A0101400150061564610185GUILBERT S. CRUZ                                         0501
A0101400730111741862001ATTY. H. JAMES WILMOT                                    0502
A0101400440161039572023JIMMY S. PALISOC                                         0501
A0101400440161478374062MARIA E. ERLANO                                          0501
A0101401090171195915001MARILOU M. MARISTELA                                     0501
A0101401090171197827001EDWIN S. MARTIN                                          0501
A0301400530193551185168QIU, YIYI                                                0504
A0101407140213385506002**********                                               0501
A3101400160221478374062LANI R PEREZ                                             0501
A3101400160221724137001ALICIA P MANAIG                                          0501
A1001400190231478374128BONIFACIO, LIZA                                          0501
A0101400570281360412001DR. LONABEL A. ENCARNACION                               0502
A0101408370382205209002***                                                      0501
A0101408370382436793001DR. ESTHER FREDELYN M. TOMAS                             0502
A0101408370382592860001ANGELINE S. TINGA                                        0502
A0101402770391224464002JOSELITO Q. YAP                                          0502
A0101408400394478374075VIOLETA I MANUEL                                         0501
A0101408400394478374092ROSA LAZARO                                              0502
A2401400180411749238001PABLICO, GERMAN  GONZALES                                0505
A0101403320471342086001MARIA ELIZABETH B. CAMIT                                 0502
A0101410140475478374006ARISTAIN, MARIVIC VILLANUEVA                             0501
A1901400160491288229001EUFROSINA A MAROCOM                                      0501
A0101403580511150595001MAXIMO P. MARIANO                                        0501
A0101403580511156706025CATHY LEE TOLENTINO                                      0503
A0101403450521238176001**********                                               0501
A0101407720602404060001MARZO, MARIA ROWENA FERNANDEZ                            0502
A0101404260611005236004WILTRON ELECTRONICS                                      0501
A0101404260611005236004WILTRON ELECTRONICS                                      0501
A0101404260611157044001DEMIAR, ROSIE                                            0502
A0101404260611469967001MERLYN CABADDU                                           0502
A0101404420631478374113SUSANA O. MARTINEZ                                       0501
A0101404680651520766032JOAN S. DORONIO                                          0502
A0101404680651640893001VIVIAN D. FERMIN                                         0501
A0101407560686498899001**********                                               0502
A1701400230693662898002DUQUEZ, REYNALDO AQUINO                                  0501
A0101408240711383964002MA. ESPERANZA OR LAMBERTO MEER                           0502
A2801400100712553031001PROHHOROV, GINA OCOL                                     0501
A4101400420814520766061ESTILLERO, SUSANA O.                                     0502
A4101400420814520766074VESTUIR, ROSALINDA                                       0501
A4101400420814520766119OMNOS, NOVA DESCARTIN                                    0501
A0101404840851413054001EDO, NENE GURO                                           0501
A0101404840851478374175CHONA S. SOTES                                           0501
A0101404840851520766071TERESITA SANTOS                                          0501
A0101408240000000521964SARAZA, SHERWIN GLENN GARCIA                            10502
A0101412050000000697190RIVERA, TEODO DBU BLAZE EFX                             10501
A6601400120000001370729DURITAN, NOLI OR                                        10501
A1301400760000002346005LUISA J. DIMAANO OR                                     10502
A0101401250021709223001ROLANDO F. ASTILLERO JR. OR                             10502
A0101401700041316267001REYNALDO B. BONGALOS OR                                 10515
A0101400150061232035003NORBERTO REYES OR                                       10501
A0101400150061738224001NUBLA, MELVIN SIXTO                                     10501
A0301400530193044799001AJB AUTO GLASS AND                                      10502
A6601400120314622580001SOSING, CAROL O. OR FELIPE A.                           10505
A6601400120314714452001CONSEBIDO JR., NAPOLEON O. OR                           10501
A0101405650322570781001OANIA, CARLITO V. OR                                    10502
A0201400890376272044001LEE, JOSEPH KENNETH GUEVARRA OR                         10503
A0101408370382663801001DRS. RICARDO G. ROCO OR                                 10503
A0101405490392758395001ROBERTO V. SALAS OR                                     10501
A2401400180411048131001ONTARIO PURIFIED DRINKING WATER                         10501
A2401400180411693424001TUPAS, BEATRIZ PALACIOS OR                              10505
A0101404680651048135001CORE GLASS & ALUMINUM SUPPLY &                          10501
A1301400340683248074001CONCEPCION, EDUARDO LARDIZABAL                          10505
A1301400340683367953001FELLO, ROSEMARIE RODIL OR                               10502
A4101400420814727886002FLORES, NESTORIO CAPATAR OR                             10501
A0101408240000000521964AND BETONIO, EVELYN                                     20500
A0101412050000000697190EVENTS PRODUCTIO                                        20500
A6601400120000001370729ALCOBER, JEANETTE                                       20500
A1301400760000002346005DENER G. DIMAANO                                        20500
A0101401250021709223001GINA A. ASTILLERO                                       20500
A0101401700041316267001MARICEL BONGALOS                                        20500
A0101400150061232035003SOLEDAD REYES                                           20500
A0101400150061738224001OR NUBLA, KAREN                                         20500
A0301400530193044799001ALLIED SERVICES                                         20500
A6601400120314622580001OR CAROLYN O.                                           20500
A6601400120314714452001CONSEBIDO, GILBERT                                      20500
A0101405650322570781001OANIA, SHARON T.                                        20500
A0201400890376272044001LEE, MA. CARMEN                                         20500
A0101408370382663801001URSULA V. ROCO                                          20500
A0101405490392758395001ARLYN D. SALAS                                          20500
A2401400180411048131001DISTRIBUTOR                                             20500
A2401400180411693424001TUPAS, MARVIN PA                                        20500
A0101404680651048135001INSTALLATION SERVICES                                   20500
A1301400340683248074001CONCEPCION, NANCY                                       20500
A1301400340683367953001FELLO, BISMARK C                                        20500
A4101400420814727886002FLORES, MA. SOCO                                        20500
B0101412890000000006960HAPAG SA MARIKINA FOOD SERVICES, INC.                    1620
B0101403580000000015761SUNNYGLOBE TRADING CORPORATION                           1602
B2601400270000000020673JPGLOBAL VENTURES CORPORATION                            1603
B0101403320000000037567EESC CONSTRUCTION INC.                                   1601
B0101411400000000230297RIGA PROPERTIES CORPORATION                              1602
B4101400550000000900081REEBARS CONSTRUCTION CORP.                               1601
B0101400150061228665001MALAYAN TOWAGE AND SALVAGE CORPORATION                   1605
B0101401960121023340001**********                                               1601
B0101400440161037708002RD CASH PADALA, INC.-AREA 1                              1603
B0301400530193035726168TAGUM PIONEER FOODS CORP. - 2                            1605
B0301400530193768647001DEBILDOS, MILANIE L.                                     1603
B0101406620273692749001EAS GROUP ASIA INC                                       1605
B0101402510341020561001PHILIPPINE PHARMACISTS ASSOCIATION                       1602
B0101409180397716801001CACHET.HOLDINGS, INC.                                    1602
B2401400180411041355088***********                                              1603
B2401400180411042157088ERSONS BUY & SELL AGRI-PRODUCTS                          1610
B0101403320471041480001ITP CONSTRUCTION INC                                     1610
B0501400170481013098001MOTORPLAZA INCORPORATED                                  1603
B0101403580511016327001KSEARCH ASIA CONSULTING INC.                             1610
B0101405940512036113001MFC BISTRO FOODS CORPORATION                             1605
B0101408110515017881005GROUP MANAGEMENT CORPORATION                             1602
B0101404000551046316001PHILAB INDUSTRIES, INC.                                  1604
B0101408240711041773001GCHS BATCH 71                                            1601
B2801400100712027300001PORTLAND MARINE SERVICES INC.                            1603
B0101411370000000017945ST.THERESE OF THE CHILD JESUS INSTITUTE                 11601
B1101400120000000652442GICABAO, KATHLEEN JOY NG OR                             11603
B0101411370000000017945OF ARTS&SCIENCES                                        21600
B1101400120000000652442GICABAO, BONGKOK                                        21600
B0301400370192821100608**********                                               2003
B0101405490392821100608**********                                               2005
B0101412050519821100608**********                                               2002
