A0101400440161520766186NANETTE N. SERION                                        0501
A0101400440161520766186NANETTE N. SERION                                        0501
B2401400180411017908001LWC CYCLE MART, INC.                                     1602
A0101400150000002749615CAINAP, MAY NABO                                         0501
A0101407270000003253512JOHN BYRON JAKES LASAM                                   0501
B0301400950000002115840DAVAO BARRIO BISTRO, INC.                                1604
A0101409890000011486338STA. ROSA, JED PEREZ                                     0501
A0101410300000014298918LOPEZ, OFELIA ARANETA OR LOPEZ,                         10503
A0101410300000014298918DIANA ARANETA                                           20500
B0101400860000000100830**********                                               1602
A0101400860011402778002**********                                               0501
A0101400860011534620001**********                                               0502
A0101401250021376381001MACARANAS, ARLYN C.                                      0501
A0101401250021757622001SINGH, MANJIT KAUR OR                                   10501
A0101401250021757622001KAUR, SURINDER                                          20500
A0101400150061074546008UY, MIRABELLE RANGASAJO                                  0501
A0101400150061226983001AGNES ADELA V. ALCID                                     0501
A0601400100000002698486**********************                                   0501
A0601400100000009323991CAI, GLORIA CO                                           0504
A0601400100000014457975FABIAN, EDUARD DAVID                                     0501
B0601400100081013322001LACTO B INCORPORATED                                     1604
B0601400100000000032806BLU BLAZE GAZ HAUS                                       1604
A0101413280000012146262**********                                               0502
B0101410560110045564001S.M. LAZO MEDICAL CLINIC, INC.                           1610
B0101410560000008979311THRILLON INC.                                            1602
B0101410560000008979377ETON INTERNATIONAL SCHOOL, INC.                          1602
B0101401960121026591001**********                                               1601
A0101401960000004419870SY, MA. KATHERINE LAO DBU                               10502
A0101401960000004419870DAINTY MARKETING                                        20500
A0101413310000009641152DIZON, YOLANDA ALABANZA                                  0501
A7201400170000007185900BARBADILLO, ELSIE ALANGCAS                               0501
B0101412920160065986001ENERTHRUST INTERNATIONAL INC.                            1610
B0101400440161007222001RURAL IMPROVEMENT CLUBS OF THE PHIL                      1601
A0101400440161039572006DINAH I. GARCIA                                          0501
A0101400440161039572050MARIA TERESA A. LIM                                      0501
A0101400440000013915944BAGUE, JAMES DE GUZMAN                                   0501
A0101400440161478374198EUFRONIA I. BERGONIA                                     0502
A0101400440161478374198EUFRONIA I. BERGONIA                                     0501
A0101400440161520766193LEILANIE P. LOCSIN                                       0501
A0101400440161520766193LEILANIE P. LOCSIN                                       0501
A0101400440161525001040DOLORES A. DE GUZMAN                                     0501
A0101407270000003254219MACAJELOS, ANTONIETTA                                    0502
A0101401090000001618840POLICARPIO, MARIA REGINA LLAMAS                          0501
A0101401090000012442083RODABLAS P. NICOLAS OR ANNA                             10503
A0101401090000012442083CECILIA E. NICOLAS                                      20500
B0301400660000000195135DAVAO CORNER PLAS CORPORATION                            1606
B0301400660194042953001EVITA BANANA TRADING COMPANY INC.                        1601
B0301400790000001244531LAGARTO, SHECEL DBU SHEER DEW                           11602
B0301400790000001244531PURIFIED WATER                                          21600
A0301400950000006080382MATIAS, ESTHER CAGARA                                    0501
A0301400950000002115446HILAY, JEREMIAS C DBU JHC                               10502
A0301400950000002115446WELDING SHOP                                            20500
B0301400950000009938334COASTLAND CONSTRUCTION AND DEVELOPMENT                  11602
B0301400950000009938334CORPORATION                                             21600
B3101400740000000013914BETA NANOCOATING PHILIPPINES INC.                        1602
B3001400130000000067252INTERPACE CORP.                                          1602
B1001400350233013980001VIC IMPERIAL APPLIANCE CORP.                             1603
B1001400350233036049001RANTRADE INDUSTRIAL SALES CORPORATION                    1601
A1001400350233478374020ELMA O. GAWAT                                            0501
A1001400350233478374026ANNABEL ESTOMO                                           0501
A1001400350233512624001BARLAAN, DORIS BEDE OR                                  10503
A1001400350233512624001BARLAAN, ALEX E.                                        20500
A1001400480000006270282CULTURA, SHIELA MAE VILLADORES                           0502
A1001400480000010131583QUILANG, ISRAEL DELA ROSA OR                            10505
A1001400480000010131583QUILANG, TANYA ROSSINI G                                20500
A1901400290000008851236EDWARD BONGALOS JAMIS                                    0502
A1901400290000005565922AVELINA KATIGBAK RECTO                                   0501
A1901400290261488341049DR. JOHN RODOLFO D. SUAN JR.                             0502
A0101401670271376066001***********                                              0501
A0101401670271407418001PILARICA MARCELO EJERCITO                               10501
A0101401670271407418001OR MARITA EJERCITO                                      20500
A0101406460000002331000YAP, MICHAEL KEN BLAS                                    0501
A0101406460272520727001SY, HARLEY TAN                                           0501
A0101406620000003661341TAN, KARL MELVIN NG                                      0502
A0101406620273035687001GOLDRICH MANAGEMENT SERVICES                             0504
B0101408660000000034302EDGECOMM INC.                                            1601
A0101400570000002329780REYES, GABRIEL AGUILA                                    0502
A0101400570281189115002LORRAINE P FELICIANO OR                                 10515
A0101400570281189115002YOLANDA A PALANCA                                       20500
A0101400570281453706002SHIRLEY C. TEEHANKEE OR MARIE                           10502
A0101400570281453706002THERESE C. TEEHA                                        20500
B0101411240000007844531SDL FOOD SERVICES                                        1601
A0801400160000006272820TIU, FELICITO HUPAN                                      0502
A0801400160311478374102MA. CECILIA A. AVANCENA                                  0501
A0801400160000002287692****************                                         0503
A0101402350000005644691SANDOVAL, MONETTE ANDRADA                                0502
A0101402350321179544001ANGELITA D. FUNAYAMA                                     0503
A0101405650000009767975NATIVIDAD, EDUARDO OR                                   10501
A0101405650000009767975NATIVIDAD, LIWANAG                                      20500
B0101405650322047833001SPRINT INTERNATIONAL, INC.                               1603
B01014056500000029607964-S HOMEOWNERS' ASSOCIATION, INC                         1601
A0101402510000011695033ORTEGA, DECELYNDA CABARDO                                0503
A0101402510000013485851VILLAMOR, MARY GRACE SOLIS                               0501
A0101402510341325995001ALEX TAN LIM                                             0501
A0101402510000010100702MATINING, KRISNA ENCOMIO                                 0501
A0201400760374655993001IMAI, TAKAHARU                                           0501
B0201400920000008813747VILLANUEVA JR., TOMAS BENOLIRAO DBU                     11601
B0201400920000008813747TOMM'S TRADING                                          21600
A0101402930920130000097DESCALSO, MARITES VIDAL                                  0501
B0101402930000003734861POLICARPIO & ACORDA LAW OFFICE                           1601
B0101402930381014599001HEALTH SOLUTIONS CORPORATION                             1602
A0101408370000006446171BARLIN, ANN KATHLEEN CABAHUG                             0502
B0101415350000007877567FABRO, JUN M. DBU SDB INDUSTRIAL SUPPLY                 11601
B0101415350000007877567AND SERVICES                                            21600
A0101402770391013439001JIREH'S CAR PAINT SHOP                                   0503
B0101402770000011812194EVFTC TRANSPORT, INC.                                    1605
A0101402770000001841130A.B. MANALANG ENGINEERING SVCS                          10505
A0101402770000001841130AND INDUSTRIAL SUPPLY                                   20500
B0101402770391752292002JUANITA OR TOMAS OR BENJAMIN                            11601
B0101402770391752292002VICTORIA                                                21600
A0101405490000000232533JERICHO GUILLER H. GAGAJENA                              0502
A0101405490000011287962KAGINGIN, EULALIA FIDELINO                               0502
A0101408400000000029525PELAEZ, MARIA ANGELINA ARAULLO                           0502
A0101412210000013721283REODIQUE, DOMINIQUE PAULO                                0502
B2401400180411026265001SOUTH SEA FISHING VENTURES PHILS, INC.                   1615
A2401400180411075579001JALALAGTOY, MARVIN SUAREZ                                0502
A0901400220432079352001ONG, LIONEL ROY ZAPANTA                                  0502
A5101400100000010371212BAGONOC, ALDRIN POLICARPIO                               0502
A0101403030441594340001**********                                               0501
A0101406330472216347002MARION B. SINGH OR EDWIN G. LEE                          0501
A1901400160491448897001DELIA P PORTUGAL                                         0501
A1601400170000000421069CHARLES P. CLEMENTE III OR                              10505
A1601400170000000421069CHARLES L. CLEME                                        20500
B1601400170000005992232BICOL MEMORIAL PARK INCORPORATED                         1605
A0101407430000013169810DAGOHOY, GERALDINE CASIDSID                              0502
A0101405940000005067716ESPARTERO, ALIOTH S.                                     0502
A0101405940512020200001G. DE MESA ENTERPRISES                                   0502
A0101408530000002980692ARCOS, MARIA TERESA CENAR OR                            10502
A0101408530000002980692ARCOS, GILBERT T                                        20500
A0101408530000004648040ROSALES, AMEYRA VIRGINIA                                 0501
B0101412050519061409001O.S.A. CLEAN AND COMFY LAUNDRY                          11601
B0101412050519061409001CLEAN SERVICES                                          21600
B0101403450521024608001********                                                 1601
A0101403610000014430121DE GUZMAN, VENUS MARIE CASILLAN                          0501
A0101403610531034542001ESQUIVEL'S GARDEN AND RESORT                             0502
A2201400250000002337982DURIMAN, ERLINDA BALINGIT                                0502
B2201400250561016174001NAY'S HOUSE INCORPORATED                                 1601
B0101404130601028598001CAMBRIDGE CHILDREN'S LEARNING AND                       11610
B0101404130601028598001DEV'T., INC.                                            21600
A0101404130601450094004PASCUAL, LORQUEL OR PASCUAL,                            10502
A0101404130601450094004ANNIE S.                                                20500
B0101404130601669890001HODREAL HOLDINGS INC.                                    1610
A0101407720602163514002LAGOS, MARIA THERESA MARTA B.                            0501
A0101409890000000049089GEMSTAR CLEANING SUPPLIES                               10505
A0101409890000000049089INTERNATIONAL                                           20500
A0101409920000002260442ESTOQUE, CARLO MAGNO BALGOS                              0501
A0101409920000007304787***********                                              0502
A0101413440000004883029ZAMORA, MITHI KALAYAAN SOLIS                             0501
A0101406590000003007085SIXTO HIZON ANTONIO JR OR GEMMA                         10501
A0101406590000003007085OR MA CHRISTINA ANTONIO                                 20500
A0101406590000003007085SIXTO HIZON ANTONIO JR OR GEMMA                         10501
A0101406590000003007085OR MA CHRISTINA                                         20500
A0101406590662044117001D VISAGE INTERNATIONAL                                  10502
A0101406590662044117001CORPORATION                                             20500
A1301400210000002909259PULUMBARIT, RENATO VASQUEZ                               0501
A1301400210682247780001AILEEN A. MUNOZ                                          0502
A1701400230693192297001CHUA, ERIC HERBERT TANG                                  0501
A0101408240000007478126ALDANA, FELIPE FLORENCIO B. JT                           0502
A0101408240000010639400BARITUGO, RYAN ULYSSES BATTAD                            0502
A0101408240000010639444DAEZ, JOSELINE TABORA                                    0503
B0101408240711038460001AYALA ALABANG HOSPICE CARE FOUNDATION                    1601
A0101408240711491329002SALOM, R JOHN CHRISTOPHER OR                            10501
A0101408240711491329002MARIA VICTORIA                                          20500
A4101400260000012860685DUNGCA, JOEL SANTOS                                      0501
A0101412340000000031090BUDOMO, JENNIFER MARCELINO                               0501
A0101404840851046725013MARY JANE A. DE GUIA                                     0501
A0101404840851298552056ROSARIO GABAYERON                                        0501
A0101404840851478374094LETICIA FULLO                                            0502
A0101404840851520766008ERLINDA G. MATOCINOS                                     0501
A0101404840851520766071TERESITA SANTOS                                          0501
A0101406750000004642240MARQUINA, FRANCINE NICAEL GARCI                          0502
A0101406750000009472164ILAO, EVANGELINA ARGAO                                   0501
B0101406750852033894088AVELICON MARKETING CORPORATION                           1602
B0101406750852046880001DAKKI CLASSICS CONCEPTS, INC.                            1610
A0101406750000004641598DILIG, ZARA DBU ZPD ACCOUNTING                          10502
A0101406750000004641598AND MANAGEMENT SERVICES                                 20500
A0101406750000005666817CDB ACCOUNTING AND TAXATION SER                         10502
A0101406750000005666817VICES                                                   20500
A0101406750000000500201RAYMUNDO, AMABELLE ESPIRITU                              0502
B0101405070000003417570MASANGYA, CHRISTOPHER JOHN DBU DECALHUB                 11601
B0101405070000003417570CUSTOMIZED STICK                                        21600
A0101413860000011796300NOMBRA-AN, ABDULCODOS DERAGUN                           10501
A0101413860000011796300DBU ABBSIDY COMPUTER SHOP                               20500
A0601400230891326099001MACASPAC, MARIANNE A. OR                                10501
A0601400230891326099001MACASPAC, ARLEN                                         20500
