A0101402930381575372001ROGEN B. REYES OR                                       10506
A0101402930381575372001JO ANN P. REYES                                         20500
A0101402930000013537470PARRAS, CHRISTINE MAGO OR                               10505
A0101402930000013537470AYAB, EDELBERT                                          20500
B0101402930000003734861POLICARPIO & ACORDA LAW OFFICE                           1601
A0101402930381208046001**********                                              10502
A0101402930381208046001**********                                              20500
A0101406590662363449001LA VINA, ANGELINA SAN JUAN                               0501
A0101413020000000056988AGUSTIN, FL DBU FIX AND CARE                            10504
A0101413020000000056988REF & AIRCON REP                                        20500
A3101400870000008979895CO, ELOISA GUEVARRA                                      0501
A3101400870000015669211BERSALUNA, JOCELYN R. DBU WATER                         10501
A3101400870000015669211CAMP PURIFIED WATER                                     20500
A0101403580000007265398PILAPIL, MA. ANGELICA NACION                             0501
B0101403580511005607002RAM FOOD PRODUCTS, INC.                                  1605
B0101403580000000214731MILLENNIUM ERECTORS CORPORATION - NORTH                 11605
B0101403580000000214731RESIDENCES                                              21600
B0101403580511038113001MACEDA VALENCIA & CO.                                    1605
A0101403580511150429001PHILIP Z. YAPTINCHAY                                     0502
A0101405940000000061641GOMEZ, ENRIQUE EDUARDO MONTES                           10501
A0101405940000000061641OR GOMEZ, LUZVILLA RAZON                                20500
A0101406590000005305139MAYO, HELEN PETINES                                      0502
B0101400860011427569001**********                                               1601
A0101400860011518992001**********                                               0510
B0101401250021016688001ST. MARY'S ACADEMY OF PASAY CITY, INC.                   1604
B0101411370000015669073COFIPORT INC.                                            1601
A0101400150000003197620MARTINEZ, MARIE CAROLYN DORONIO                          0501
A0101400150000006759853LUBIS, KAREN ATENTO                                      0501
A0101400150000009832686PANESA, SHAMIELENE KATE ALMOZAR                          0502
B0101400150061018828001DOME CAFE FRANCHISE CORP.                                1605
B0101400150061023139001ENTERPRISE TRADING CONCEPT, INC.                         1601
B0101400150061029759002A.M. SISON, JR. & PARTNERS LAW OFFICE                    1610
B0101400150061284390001UPTREND STRATEGIC SERVICES, INC.                         1601
A0101400150061383637001DE GUZMAN, CATHERINE YANG                                0501
A0101405810000001021207CHEN, TINGYU                                             0510
B0601400100081738425001ENGRANDE ENTERTAINMENT INC.                              1601
A0601400360000011027846YOO, JENILYN VALENCIA DBU MAGIC                         10502
A0601400360000011027846STONE MASSAGE                                           20500
B0101413730000011325094*********                                                1601
B0101413730104058514001**********                                               1602
A0101414090000008927051SALARDA, ARIEL GALLANO                                   0501
A0101410850000003119111RAMA, MARIE JOAN ESTOLOGA                                0502
A0101410850000009034571VELONZA, VICTORIO CAMBA                                  0502
A0101410850000011276583*****                                                    0502
B0101410850109069934001TAMIYA ENTERPRISES CORPORATION                           1605
A0101410560000014337976BENILDA C. LICAYAN                                       0501
A0101406040112657540001**********                                               0503
A0101401960121569490001************                                             0502
B0101412630000002186570JEC REALTY CORPORATION                                   1602
A0101413310000010284807DY, CHRISTIAN OLIVER VILLARANDA                         10501
A0101413310000010284807OR DY, APRIL JOY SEVILLE                                20500
B0101401830141018560001DEG GEN. CONTRACTOR                                      1606
B7201400170000003773626**********                                               1605
A5001400170000000214002REQUINA, ORWINO ATAY                                     0501
A0101400440161563348001GERALDINE C. LUMAGDA                                     0501
B0101407270162019525001CASTFOOD CORPORATION                                     1601
B0101407270162036459001ULTRATECH PRINTING CORP.                                 1610
A0301400950000013536084**********                                               0502
A0301400950000013536084**********                                               0502
B0301400950000000566934YUMCHAY VENTURES CORPORATION                             1605
A0101413020000010882370SO, RACQUEL JOY YOUNG                                    0501
A0101410720000008730723DE JESUS, C DBU CARL'S FURNITUR                          0502
A0101410720000001602288TANJUTCO, JOHN HALLEY OCAMPO                             0501
A3101400160000012033480REYNALES, JULITA ARANDA                                  0501
A3101400160000012033393DELOS REYES, MARK BRYAN REGINO                           0501
A3101400160221221586001RODOLFO C. ELEPANO                                       0502
A3101400740224087806001NECESARIO, EDUARDO PASTOR                                0504
A3001400130000000931208BENDIJO, AMELITO MONDEJA OR                             10501
A3001400130000000931208BENDIJO, ERLEN A                                        20500
A3001400130000014114255ITING, GLEE BAJAO                                        0501
A1001400190231520766019GO, JUDITH SATURNO                                       0501
B1001400350000000017041LIMKETKAI HOTEL & RESORT CORPORATION                     1610
A0101401670271188831002REGINALDO C. LIM                                         0501
A0101401670271298552001EPPIE P. ORTEGA                                          0501
B0101406460000001231770*******                                                  1603
A0101406460272232218001MARIANO, NORMITA T.                                      0501
A0101406460272377244001ALA, JESSIE ATENTA                                       0502
B0101406620273020543001GOLDEN DRAGON INDUSTRIAL CORPORATION                     1602
A0101410980000006014391CHAN, HUAN CHYANG                                       10502
A0101410980000006014391CHAN, PELAGIA YU                                        20500
A0101411820000003838153ANGUSTIA REBLORA                                         0501
A0101411820000005380110***********                                              0501
A0101412470000010561827SY, FAIRYLENE LARDIZABAL                                 0504
B0101400570000000749526KNIGHTS OF COLUMBUS CAPITOL COUNCIL 3695                 1601
A0101400570281347185001CATALINA P. BARON OR                                    10502
A0101400570281347185001MA. JOSEFINA SAWIT                                      20500
A0501400200000011150324ARIMAS, FE ESPERANZA AQUINO                             10501
A0501400200000011150324OR CASTRO, RHIZZA JOY A.                                20500
A0501400200000006445138DE GUZMAN, LORELIE BANAGA                                0502
A0801400160000009574952VILLOSO, DEPHRA JANE ARTICULO                            0501
B0801400160000005656993JUAN TONG LUMBER CO., INC.                               1601
B2001400290315064947001XTENSA INC.                                              1601
B2001400290000007832400RITESTREET LENDING CORPORATION                           1602
A0101405650000014026238CACULITAN, JOSE MELVIN ESPIRITU                         10502
A0101405650000014026238OR CACULITAN, MARIANA F                                 20500
B0101405650000000772721PREMIERE COMMUNITY PARTNERS, INC.                        1610
B0101402060351009376001AVC CHEMICAL CORPORATION                                 1605
B0101402060351009395001PIGMENTEX INC.                                           1601
B0101409050000006319257STOK MNL INC.                                            1601
A0201400890000007668548IGNACIO, ANNA LOURDES LEGARIO                            0501
B0201400890376040103002*********************                                    1601
A0201400890000011827086******                                                   0502
A0201401020000010983549ABAD, NOEL GALVAN DBU WELL-WELL                          0505
B0201401020000000005078COMMONWEALTH INSURANCE COMPANY                           1602
A0101402930381205175001DR. MARILYN D. RUARO                                     0502
A0101402770391476396001DEANNE A. SARMIENTO                                      0505
A0101405490000000530910CORTES, ALMA NOVA VIDA BAJESTA                           0501
A0101408400000011986660ORDONEZ, LUIS ANGEL TAMBUNTING                           0501
B0101409180397062516001PHYSIXARE ADTEK SOLUTIONS, INC                           1601
A0101412210000010256710BARTOLOME, ELLISON SISON                                 0502
A0101412210000012652636BERMUDEZ, WILHELMINA YUMPING                             0501
A1201400150421478593001*****                                                    0503
A0101406330000011106162ARANES, EDITHA VICENTE                                   0502
B0101406330000010658290TRU-SERV MARKETING CORPORATION                           1602
A0101406330472351343002MARIETA S. PERERAS OR RAYMOND                           10502
A0101406330472351343002OR RHEA ELFLEDA                                         20500
A0101412760000000528147CRUZ, LADY CLAIRE BALDEMORO                              0501
B0501400170000000018317DAGUPAN DOCTORS VILLAFLOR MEMORIAL                       1602
A0501400170481329536001PERLA C. ROMERO OR                                      10501
A0501400170481329536001BIENVENIDO S ROM                                        20500
A1901400160000009055027LOURDES CLEOFE OR TARA DENISSE                          10502
A1901400160000009055027CLEOFE OR AKIM CLEOFE                                   20500
A1901400160491307939001EDWIN P CHUA OR EDDIE P CHUA                             0505
A1401400110492774804001*************                                            0501
B1601400170000009954523ARTISAN'S SPECIALTY COFFEE                               1601
A0101407430000006028002PENARANDA, LARRY LLAVE DBU HIGH                          0502
A0101403580511150595001MAXIMO P. MARIANO                                        0501
A0101403580511151532002CYNTHIA R. MAMON                                         0506
A0101403580511325132010MA. SANDRA G. GALVEZ                                     0501
A0101403580511782714001CARINUGAN, DEXTER SANTOS                                 0502
A0101412050000003966763DE LEON, ARTURO PUZON OR                                10501
A0101412050000003966763DE LEON, WILFRED                                        20500
A0101403450000013846512MUNOZ, EDITHA VAPOROSO                                   0501
A0101403450521361575001PO, PAULINE LU                                           0501
B0101403610000006637158RVM BONNE NOURRITURE, INC.                               1601
A0101410690000000061834IQBAL, BERNADETTE G.                                     0502
B0101404130601100007004SMART COMMUNICATIONS, INC.                               1601
B0101407720000006028177BIOCARE LIFESCIENCES, INC.                               1602
A0101407720602163717001EDWIN E. DIMAYUGA                                        0505
A0101407720602165575005DR. MA. VICTORIA G. BELO                                 0505
A0101407720602285561001GERALDINE P. MENDOZA MD. OR                             10502
A0101407720602285561001PAUL B. MENDOZA                                         20500
A0101407720602343467001HENSON, GERARD FORES                                     0502
A0101407720602346136002DR. SIXTA NAVARRO-FORONDA OR                            10510
A0101407720602346136002DR. J.D. FORONDA                                        20500
A0101407720000001393324FORES, LEO BIENVENIDO MANUEL                             0503
A0101407720602397349002MARIN, MA. ROSARIO PASCUAL                               0502
A0101412180000003275541HULIGANGA, BUTCH SANTOS OR                              10502
A0101412180000003275541HULIGANGA, LALETTE T                                    20500
B0101412180000001293050RIANTIQUE GLOBAL INC.                                    1602
A0101404260000002302181CRUZ, RODOLFO ESTEBAN D OR                              10502
A0101404260000002302181CRUZ, RHONA KARU                                        20500
A0101404260000005446915**********                                               0501
A0101404260611335308002ALIMBOYONG, JOSEPHINE MAHINAY                            0503
B0101409890000003098173V.T. LAGUYO CONSTRUCTION, INC.                           1602
A0101407690000015709227PARRENO, ELISHA CYRIL ATEGA                              0501
A0101407690652474247001**********                                               0503
A0101413570000011963963YMATA, MICHAEL                                           0501
A0101413990000010191265CARAMANZANA, EDGAR MABORANG                              0502
B0101414120000000399053REDBALL TECHNICA INC.                                    1602
B0101406590000014988040WATTOON INTERTRADE CORPORATION                           1601
A0101406590000000905500AJMEC TRADING                                            0501
A0101408240711436371001YAP, MILAGROSA ROSLINDA                                  0501
A2801400230713045955001LITTLE SCISSORS UNISEX SALON                            10502
A2801400230713045955001(RONNIE B. RUIZ)                                        20500
A4101400260000006043396MENDOZA, MARIA JANICE M. DBU                            10503
A4101400260000006043396CREZYLREN FOOD S                                        20500
A4101400390813049954002FERIZA L. PLETA                                          0501
A4101400420814520766004SALVACION D. BITANCUR                                    0501
A4101400420814520766036AGUAS, LEOPISIT                                          0501
A4101400420814520766139VILLAMAYOR, MINA                                         0502
A4101400420000015173772SANTOS, RACHELLE MONTANTE                                0502
A4101400550000014678790BERNAL, MARISSA BERNALTE                                 0501
A0101412340000008007710AMELISSA MARICOR E. RAMOS                                0501
A0101404840851298552055SIXTA MELBA C. ENGBINO                                   0502
A0101404840851520766066CYNTHIA A HERMEDILLA                                     0501
A0101406750000002251309DE LEON, MICHELLE TAGALAG                                0501
A0101406750000009471821DE LEON, MICHELLE TAGALAG                                0501
A0101406750852687321002NAVARRETE, JERRY MIRANDA &                              10510
A0101406750852687321002COLOMA, FRANCES                                         20500
A0601400230891253188001TERESITA OR EDUARDO PINEDA                               0503
