A0101409920000000118625DILE, BEBERLYN MUNEZ                                     0501
A0101408240000000347379GONZALEZ, GRACE ANN RIVERA                               0501
A1201400150000000473283SUNGA, ANTHONY FERNAND MUNSAYAC                          0502
A0101407720000000510512SALUD, CARMENCITA ESGUERRA                               0501
A0101400440000000596630MARY ANN A. OYARDO                                       0501
A0101406620000000962221ABELLON, MARK IAN MARTINEZ                               0501
A2201400250000001066017CAROLYN GO KE                                            0502
A0101407720000001393266ALCANTARA, IVY GAY SENARILLOS                            0501
A0101400440000001439863MARY JONEN T. GUILLERMO                                  0501
A0101401380000001819832LEY, RICHARD NOEL CO                                     0501
A5501400120000002019114GARCIA, JOSIE JAVELLANA                                  0505
A0101406750000002040260TOLENTINO, ROSALINA SABATER                              0502
A0101411080000002343988******                                                   0501
A0101411080000002343999**********                                               0503
A1001400480000002659783REFUGIO, SOFRONIO RETUTAS                                0501
A0101412890000002748003CRUZ, BERNADETTE LOPEZ  JT                               0501
A0101400150000003164430RIEKO O. FRANCO                                          0502
A0101412340000003344950JOHANA ERLIZA D. ORTIZ                                   0501
A0101409050000003533457REGINO, SARAH                                            0501
A0201401020000004398363AGURO, ROWELA AGRAMON                                    0501
A0101411400000004406648LIM-TENORIO, MARIVEN CHAVEZ                              0501
A0101411400000004406659SERRANO, PAOLO DANIELE SANTOS                            0501
A0101400860011284810001**********                                               0505
A0101400150061055752090HENRY H. LIWANAG                                         0501
A0101400150061364636001YOSHII, TSUNENORI                                        0501
A0101400730111334903036EDGAR F. CAGINDAGAN                                      0501
A0101400730111565363001TIU, DAVID TERENCE YAO                                   0501
A0101401960121467439001**********                                               0503
A0101400440161483348001CLAUDINE ROSE R. ETCUBANAS                               0502
A0101400440161525001103OFELIA B. OLERMO                                         0501
A0101407270162508001002FREDDIE H. CASTOR                                        0502
A0101401090171639865001CHRISTIAN PAUL CAMPANO                                   0501
A0301400530193551188168GONG, SHUJIAN                                            0503
A0101401380201436370001MONSALE, MENLY ABENOJA                                   0501
A0101401380201561182001ACOTANZA, EDITHA SINCHONGCO                              0502
A0101401380201564133001NABLO, RODOLFO ORANTE                                    0501
A0101401380201716805001BORJA, JENNY HERRERA                                     0502
A3101400160221220343001LAARNI A. CALAPATIA                                      0502
A3101400160221546022001SASAKI, HIDEYUKI EGUCHI                                  0501
A3101400450223028468001NEW ARMSTRONG SECURITY AGENCY                            0502
A3101400870225056928001GABA, A DBU CRM ENTERPRISES                              0501
A1001400190231520766079JANDAYAN, SATURNINA                                      0501
A1001400350233684752001CHIONG, FE YAP                                           0501
A0101406620273502279001LOTILLA JR., PERPETUO MERCADO                            0501
A0101402350321478374038BAJARO, MELANIE                                          0502
A0101402350321712665001ALEX U. PASCUAL                                          0501
A0101402480331520766027CABRELA, SUSAN PANOTES                                   0502
A0101402060351217441018JOSEPH PAUL J. JAURIGUE                                  0501
A0101402060351566849001YABUT, FELINO CANJA                                      0501
A0101411660384085144001ANGELYN T. NEPOMUCENO                                    0502
A0101402770391013439001JIREH'S CAR PAINT SHOP                                   0502
A0101408400394550155001GATPAYAD, JHOANA VISTA                                   0501
A5501400120410283898004GARCIA, JOSIE JAVELLANA                                  0503
A2401400180411432546001LIM, ROBERT LIM                                          0505
A0101403450521559329001***********                                              0501
A0101404130601391578001SORIANO, JOHN DENNIS SABINIANO                           0501
A0101407720602164095001BIGLAEN, ANGELES LIGARTE                                 0503
A1301400210682673429001CHERRY ROSE P CALDERON                                   0501
A1301400340683361124002BUENAVENTURA, MYLINE SORIANO                             0502
A0101407560686478374074ADELINA A. ALCORIZA                                      0501
A0101408240711478374019ESTUYE, GILDA PLACIDES                                   0505
A2801400100712401674002DEL ROSARIO, DANILO LARACAS                              0501
A0101404840851046725012MEDILYN GUINGAB                                          0502
A0101404840851542980001MASANGCAY, NORA VERCELES                                 0501
A0101406750852765930002ACLO JR., JAIME CABANILLAS                               0501
A0101405070861540871001***************                                          0501
A0101408240000000005181POL CAMACHO SECURITY                                    10501
A0101404840000000085072SYREN JR., WESLEY CABRERA OR                            10501
A0101406750000000358025PARADO, ASUNCION DBU REPSONS                            10503
A0101412340000001017565TABUCO, JOHN ROGER N. OR                                10501
A0101413990000001202377ELLEN MAE L. GONZALES OR                                10501
A0101412890000002747766BELVIS, G DBU BELVIS MEAT                               10502
A0101400150061740216001MAISOG, WILFREDO JUNASA OR                              10501
A3101400450223588221001GATDULA, JAMAILA  OR AGONCILLO,                         10501
A0101400570281192586002LORINDA ANG OR JENNY JILL DY OR                         10503
A66014001203140421880015G GALVEZ CONSTRUCTION                                  10503
A0101402930381205320001SIMON BUMANLAG SAWIT OR                                 10501
A5501400120410283898001GARCIA, JOSIE OR                                        10510
A0101408240711170768001MELISSA O. SIMPAO OR                                    10501
A0101404840851334120001MARY ANN R. PANGAN OR                                   10501
A0101408240000000005181CONSULTANCY                                             20500
A0101404840000000085072SYREN, ANA VICEN                                        20500
A0101406750000000358025TRADING                                                 20500
A0101412340000001017565TABUCO, JANE FRANCES M.                                 20500
A0101413990000001202377RONALDO AMADOR G                                        20500
A0101412890000002747766PRODUCTS                                                20500
A0101400150061740216001MAISOG, IRENE BIGCAS                                    20500
A3101400450223588221001JAYVEE OR JOSE                                          20500
A0101400570281192586002LINDSAY RITZ ANG                                        20500
A6601400120314042188001AND SUPPLY                                              20500
A0101402930381205320001FILIPINAS TIANGC                                        20500
A5501400120410283898001GARCIA, GERARDO                                         20500
A0101408240711170768001RAFAEL F. SIMPAO                                        20500
A0101404840851334120001JOHN NOEL PANGAN                                        20500
B0201401020000000005078COMMONWEALTH INSURANCE COMPANY                           1601
B0101406620000000015005CARPIO & BELLO LAW OFFICES                               1601
B2201400250000000016913ABRAHM CHASE CORPORATION                                 1601
B0101407430000000035316D' FRADA ALLIED SERVICES INC.                            1602
B0701400260000000041130TREVOR ETON REALTY CORPORATION                           1601
B0301400660000000195351LIM, ALEXANDER MEJORADA                                  1601
B0101407270000000830540QUANTUS BUSINESS SERVICES, INC.                          1605
B0101402480000001100143KOINONIA HAULING AND SALES INC.                          1601
B0301400950000001379648**********                                               1610
B0101409050000001662864EUGENIO, ROMAN BALAAN DBU RT CRISMA                      1601
B0101412470000002338843WEBLEND INC.                                             1601
B0101411790000002658308BRAINSWAY ASIA INC.                                      1601
B1001400480000003357839ENROGEL CONSTRUCTION CORP.                               1601
B0101401250021039454001PREMIUM PLASTIC GROUP MFG. CORP.                         1601
B0101405810072642761001***************                                          1601
B0101400730111015420002FELANER REALTY DEVELOPMENT CORPORATION                   1606
B0101400440161007542001PACE REALTY INVESTMENT INCORPORATE                       1601
B3101400160221224862001JOYME CONSTRUCTION SUPPLIES, INC.                        1602
B3101400870225056746001SORRERA, A DBU CREAMY SPLENDOR                           1601
B0101406620273031145001KOHL INDUSTRIES CORPORATION                              1603
B0101406620273460663001PREMIUMSOLE INTERNATIONAL CORPORATION                    1605
B0101402480331010415002***************                                          1601
B0101402480331234185001**********                                               1602
B0101402510341204183001ANA ABERILLA AND GILBERT MURILLO                         1601
B0101402930381516506001I-ASIATIC INNOVATIONS PHILS., INC.                       1604
B0101408400394028323001U-MYX TRADING-MARKET MARKET BRANCH                       1601
B1201400150421253585001ANGELES DIAZ                                             1601
B0101403320471041480001ITP CONSTRUCTION INC                                     1620
B0101407430503028318001LONGHORN TRANSPORT SERVICES INC.                         1605
B0101405940512030146001CHINO ROCES ESTATES ASSOCIATION INC.                     1601
B0101408530516033357001FIRST METALEX MANAGEMENT CORPORATION                     1603
B0101403450521011657001UPTOWN INDUSTRIAL SALES, INC.                            1610
B0101403450521011882004PAN PACIFIC TRAVEL CORPORATION                           1603
B0101404000551005037005CONRAD & SONS REALTY INC.                                1610
B0101407560686027053001TECHWOOD MANUFACTURING CORPORATION                       1601
B0101412340850047478001HTECH CORPORATION                                        1601
B0101401700041192799001ZFG REFRIGERATION & AIR CONDITIONING                    11601
B0101412630132047700001KNIGHTGOLD PROPERTIES & INSURANCE                       11602
B0101401700041192799001SERVICES                                                21600
B0101412630132047700001AGENCY INC.                                             21600
