B2001400290315821100608**********                                               2002
A0101414120000009850780R. ACOSTA ENTERPRISES                                    0501
B0101414120000001984201KAYAK CONSTRUCTION CORP.                                 1620
B0101407270000000830459EMPRESSO CREATIVE CO.                                    1601
A0101410720000007843243MONASTERIO, MA. LOURDES ELVIRA                           0502
A0101402350321180985001CHIEN CHUNG HO                                           0501
B0101402350321738079001OLIVAREZ GENERAL HOSPITAL INC.                           1610
A0101400860000015923432**********                                               0501
A0101401250021333461001SATURNINO, EDRALIN P.                                   10501
A0101401250021333461001OR SATURNINO, JE                                        20500
A0101411370000003548925AW, HARVEY LIM                                           0502
A0101411370000005524421BATUIGAS, AURORA REBOQUIO                                0501
A0101400150000016750700ASUNCION, JAYMAYLEE RAMIN                                0501
B0101400150061035853001EPICUREAN PARTNERS EXCHANGE, INC.                        1620
B0101400150061043190001NORTHERN STAR ENERGY & FUEL DISTRIBUTION                11605
B0101400150061043190001CORPORATION                                             21600
A0101400150061228036001DELA CRUZ, VICTORIA LIM                                  0501
A0601400100000011854192BALBOA, YOLANDA PAGAY DBU YOLAN                          0502
A0601400100081251815001DIZON, CLEOPATRA S.                                      0501
A0601400360000012811142GERENTE, SHEMVY CHRIS CATACUTAN                          0501
B0601400360000015474269TAT-PRINTING PHILS. INC.                                 1602
A0601400520000009516850LIMJOCO, MAYRA CAPITLI                                   0505
A0101414090000002282668TUBONGBANUA, FE FRANCIA                                  0501
A0101414090000003314843VILLANUEVA, KENNETH BAYLON OR                           10502
A0101414090000003314843VILLANUEVA, JO-AN                                       20500
A0101410560000010317783ERNANI C. CRISTOBAL                                      0502
A0101400730111392034001SENA, GLENDA A. OR MAHAR B.                             10502
A0101400730111392034001JARDIOLIN                                               20500
A0101401960121306015001JOSE C. SALES OR MARY ANN U.                            10501
A0101401960121306015001SALES                                                   20500
A0101413310000005433363MARJORIE A. VILLASENOR                                   0501
A0101401830000001139953ROSEMARIE S. NOJADERA OR                                10501
A0101401830000001139953ISAGANI M. NOJAD                                        20500
B0101401830141044673001CAMBRIA REALTY & DEVELOPMENT CORPORATION                 1603
B0101401830141060435001AMBM ELECTRICAL SUPPLY AND                              11604
B0101401830141060435001SERVICES                                                21600
A7201400170000001585533SAMUEL R. EPE DBU SAM'S ENT. OR                         10501
A7201400170000001585533WENIFREDA I. EPE                                        20500
A5001400170000000213750RATUNIL, JULIETA OR RATUNIL,                            10502
A5001400170000000213750BYRON, OR RATUNI                                        20500
B5001400170000000169904GREEN SUMMIT REALTY AND MANAGEMENT                      11601
B5001400170000000169904CONSULTANCY CO.                                         21600
B0101412920160065986001ENERTHRUST INTERNATIONAL INC.                            1610
A0101400440161186924001LETTY D. HAHN JT                                         0504
A0101407270000010118979MIRA BELLA L. PERCE                                      0501
A0101401090000010238518DE JESUS, JONATHAN CARLOS H.                             0501
A0101401090000018125612PINLAC, JOHN CLEMENCE MANGANTI                           0501
A0101401090171335821001FLORA JEAN R. CABRERA                                    0502
B0301400530193037617168PIONEER BUENAS COMMODITIES CORP.                         1620
B0301400530193821200608**********                                               2001
B0301400660194469662088**********                                               1605
B0101401380000000027045DONNY'S CHOICE FOOD PROCESSING EXPORT                   11602
B0101401380000000027045AND IMPORT CORP.                                        21600
A0101401380000010190591LEY, MONICA JOY CO                                       0501
A0101410720000000967882LAZER SILKSCREEN PRINTING                                0501
A0101410720653674611001TABIJE, JAY HANSEL INACAY                                0501
B3101400160221019509001DYNASTY ALUMINUM, GLASS &                               11601
B3101400160221019509001GEN. MDSG CORP.                                         21600
A3101400450000016320864BELEN, MARY GRACE HERNANDEZ                              0502
B3101400450223709906001SPC HARDWARE & CONSTRUCTION SUPPLY                       1602
B3101400740224022200003FILCON MANUFACTURING CORPORATION                         1605
A3101400740000006735846DIAZ, ROMER BACAS DBU R.DIAZ                            10502
A3101400740000006735846ENTERPRISES                                             20500
B3101400870225067454001GDNC GAS AND LUBES CORP.                                 1605
A3001400130230478374004BALABA, JANETH BORJA                                     0501
A1001400350000003867250PEARSON, LAARNIE PEARL ROA                               0502
B1001400350000011297842FUND ACCESS MICRO CREDIT INVESTOR                       11605
B1001400350000011297842CORPORATION                                             21600
A1001400350000000922412FHEDZ VENTURES                                           0505
B1001400480000017385623ELCAROSA GENERAL MERCHANDISE CORP.                       1602
A1301400470252507868001EDGAR P. CASTILLO, JR. OR                               10502
A1301400470252507868001EVANGELINE N. CASTILLO                                  20500
A1301400760000003415596PATRICK C. MUNCAL OR                                    10501
A1301400760000003415596LEA IVY F. MUNCAL                                       20500
B1301400760000010656994JETFLARE CORPORATION                                     1601
A1901400290261298552022ALVIN DEL ROSARIO MAGNAYE                                0502
A1901400290261772647001ALEX CAMOS BUQUIR OR                                    10501
A1901400290261772647001MARIA LUCY GUCE BUQUIR                                  20500
B0101406620000000194041ZIOSOFT INC.                                             1601
B0101406620273313299003**********                                               1605
A0101411110000013803737MARIAN LUISA TORRES HUGO                                 0502
A0101400570000011681213LIBO-ON, ADELINA LIGON                                   0502
A0101400570281191853002GREGORIO, JULIETA ORBISO                                 0501
A2601400270000010433808FELICIANO B. SEMANA                                      0502
A6601400120000002249830LUCERO, MYRNA DELA TORRE OR                             10501
A6601400120000002249830LUCERO, ARPON U                                         20500
A2001400290000016825300SANTILLAN, AUGUSTUS CAESAR LIM                           0503
A2901400130000009071869TEODOSIO, NELSON OTE DBU FORTUN                          0505
A0101402350000012300400DUMLAO JR., ROGELIO BASILIO                              0502
B0101402350000012299895GEMCONSTRUCK, INC.                                       1602
A0101402350321477731003YAYA, WILLY CASUPANAN                                    0501
A0101405650000016831595FELICIANO, ROLANDO BURGOS OR                            10502
A0101405650000016831595FELICIANO, MA. CARMELITA                                20500
A0101402510341323210001ALBERTO V. ALAMAN JR.                                    0505
A0101402060000010882723SKAAR, PERLITA MARCELO DBU SKAA                          0502
A0201400920000006792034LIM, ROSARIO TAN                                         0501
A0201400890000012414003EAMIGUEL, WENDY LOU LANORIAS                             0501
A0201400890376056207001MARDZ AIRCONDITIONING SUPPLY &                          10501
A0201400890376056207001SERVICES                                                20500
A0201400890376534224001PAYOT, CARLOS COPERNICUS OR                             10503
A0201400890376534224001PAYOT, ANA ISABEL                                       20500
A0101402930000007031012RAMIREZ, ROSA EDADES                                     0502
A0101408370000006446524SANTIAGO, ALVINA PAULINE DY                              0501
A0101408370382391439001EDREN S. MONTERDE OR LORNA O.                           10503
A0101408370382391439001MONTERDE                                                20500
A0101408370382429069001LILIBETH A. MERENCILLO                                   0501
A0101408370382488821001DR. ROSALYN C. SARMIENTO                                 0501
B0101408790383039789002MINDANAO ENERGY SYSTEMS, INC.                            1602
B0101411660000002881161RBE ACCOUNTING SERVICES                                  1602
A0101411660000000032082BERNARD LEO U. ZAPANTA                                   0503
A0101411660000000751137FREDERICK JOEL LIM OR                                   10501
A0101411660000000751137IMELDA ONG                                              20500
A0101408400000013877013EBRO, GRACE MABUNGA                                      0501
A0101408400394467620001MARTELINO, MARICAR PRUDENCIO                             0501
A0301400820000014657942DIAZ, CHRISTIAN H.                                       0502
A0301400820000015840210LIN, FRITZIE C. DBU HTL MOTORCY                         10504
A0301400820000015840210CLE PARTS AND ACCESSORIES                               20500
A5501400120000015560951HUANG, SHENGMIN                                          0503
A2401400180000000073550ALBARRACIN, JEMAR DEGAMO                                 0501
A2401400180411272714001PAGCO, MARCELO TOLENTINO                                 0501
A2401400180000016516791ESTILLORE JR., JUANITO RECLA                             0503
B0901400220000002300878**********                                               1602
B0901400220000006214302DIPZA DEVELOPMENT & AMUSEMENT CORP                       1601
B0901400220432043565001CASA CANELAR PENSION                                     1601
A0101412890000002747904SARMIENTO, CHARLIE CORREA OR                            10502
A0101412890000002747904SARMIENTO, MYLENE                                       20500
A0101412890000012474265RAMOS, MAR MARQUEZ DBU MARKOOL                          10503
A0101412890000012474265TRAN                                                    20500
B0101406330000000432922JEWELS STAINLESS FABRICATION CENTER                      1603
B0501400170481013150001MEDICAL CITY DAGUPAN, INC.                               1605
B0501400170481018109002CSI WAREHOUSE CLUB INC.                                  1604
B0501400170481025398002COSTSAVER'S SUPERMARKET, INC.                            1601
A3801400170000013611499CABAGYO, NONETA M DBU PLA PLA                           10502
A3801400170000013611499GENERAL MERCHAND                                        20500
A3801400170490061963001VANDA SANDERIANA'S                                      10501
A3801400170490061963001AMUSEMENT PARK                                          20500
A1901400160000000243514CONRADO AUGUST AMBIDA BONDAD JR                          0502
A1901400160491249550004ROCHELLE B MALALUAN                                      0501
A1901400160000000483783PAULA REA S. CASTOR                                      0502
B1401400110000014232350SUPPLEMED DISTRIBUTOR & MARKETING C                      1603
B1401400110000018077488PAGKATIPUNAN, EFREN NANAGAS DBU PAG                      1601
A1401400110492047717001KKT CONST. & SUPPLY                                      0502
A1401400110492047717001KKT CONST. & SUPPLY                                      0501
A1401400110000010622652TAN, FERNANDO LIM                                        0501
B0101407430503023639001LAMBERT WILLIAMS LOGISTICS, INC.                         1610
A0101403580000000016082SWEET BELLA DESSERTS                                     0510
B0101405940512018663001MIX MASTERS INC.                                         1609
B0101405940000008479030MY ONE BAHAY CORPORATION                                 1602
B0101403450000008069238SAVEMORE SOLUTIONS INC.                                  1602
B0101403450000008380898***************                                          1602
B0101403450521240588001**********                                               1602
A0101403610000016928719BUHAIN, MA ISABEL NAVASCA                                0501
A0101403610000017902848CAINAP, RACQUEL ODIVILAS                                 0501
B0101403610531046502001SAN PEDRO APOSTOL PARISH                                 1603
A0101403610000006637045GUEVARA, EVA ALTURA AND MATELA,                         10502
A0101403610000006637045ANGELEO MONTILLA                                        20500
A0101403610000001174772BERROYA, EDRALIN OLIVAREZ OR                            10506
A0101403610000001174772BERROYA, MA. ANA ESGUERRA                               20500
B0101407720000007951844SNOW WHITE WELLNESS & BEAUTY SPA INC.                    1601
A0101407720602345195002GEORGE T. GODUCO OR                                     10501
A0101407720602345195002MA. TERESA P. GODUCO                                    20500
A0101407720602397448001GUERRERO, CARMENCITA GISBERT                             0503
A0101412180000003275432DIMAYUGA, ROBERTO BALASBAS                               0502
B0101404260000000156972PRIME POWER MANPOWER SERVICES                            1650
B0101404260000000156972PRIME POWER MANPOWER SERVICES                            1650
B0101404260611044359158GREAT ARCHER SALES                                       1602
B0101404260000000003783ABELLA, ROLDAN AND FAINZA LAWYERS                        1605
A0101404260000016934744GOMEZ, REMIA FERNANDEZ                                   0501
A0101409890000014410543FERNANDEZ, JANEL ERICA CHAN                              0501
A0101409890000011029400CHUA, OSBERT CO DBU 4 LITTLE AN                          0502
B0101409890000012558828CHAN, JACQUES EVAN TIU DBU PINTAKAS                      1602
B0101409890000000049192PLARIDEL PRODUCTS & SERVICES INC.                        1605
A0101409920000001951880MEMBERS OF NATASHA (SHOECAT INC                         10502
A0101409920000001951880DEJUCOS, PURITA                                         20500
A0101413570656057648168MIRANDA, FRANCIS LAWRENCE                                0501
A0101413990000000206033MARITES R. CONANAN                                       0502
B0101406590662042173001NEW ARCOND BUILDERS INCORPORATED                         1602
A1301400210000005040577**********                                               0502
A1301400210000016548299VILLARICO, BILLY JEAN MORALES                            0505
A1301400210000016548142UY, SHALIE FLORES                                        0502
A1301400340683406123001TOBIAS, SUSANA FULGENCIO                                 0502
A1301400500000005963740MARK GIL S. ARCENAL                                      0501
B1301400500684042899001BALIUAG FEDERATION OF MULTIPURPOSE                      11601
B1301400500684042899001COOPERATIVES                                            21600
A1701400230000012227531RAMOS,SHERWIN SANTOS DBU SHAWIN                         10502
A1701400230000012227531KONSTRAK CONSTRUCTION                                   20500
A1701400230000018124131CALAJATE, JOSEPH VERGEL PRIETO                          10501
A1701400230000018124131DBU LINAMNAM J V C HOT                                  20500
A1701400230000008555391ANG, ENRICO FORMOSO DBU COUNTRY                         10510
A1701400230000008555391RICE MILL AND TRADING                                   20500
A0101408240000002821872SANTILLAN, ENYA GABOR                                    0503
A2801400230000002312823CASTANEDA, VERONICA ONG                                  0501
A2801400230000009022188ISIDRO, MARIA CRISTINA VELUZ                             0501
B2801400230000005253721PERLA COMPANIA DE SEGUROS, INC.                          1601
A4101400390813442190001ASMA, RODELYN MERIADO OR                                10505
A4101400390813442190001ASMA, ROLDAN PAR                                        20500
A4101400420814520766033DELA CRUZ, MARILOU M.                                    0502
A0101404840000010224641ASUGAS, MARINA FUSINGAN                                  0501
B0101404840000003069623ROYAL THAI FOOD PHILIPPINES INC                          1603
B0101404840000003069641GAZ DE BAY INC                                           1603
A0101405070000003439683PANINGBATAN, MARIA APRIL L DBU                          10502
A0101405070000003439683MAKI BELA TRUCKI                                        20500
A0101405070861629632001NOLINA Q. GONZALES OR LOUIE                             10501
A0101405070861629632001GONZALES                                                20500
A0101413860000009426520MARIA SUZETTE ABINES                                     0501
A0601400230000003015583HERNANDEZ, VILMA VALENCIA                                0505
A0601400230000017015600SIMBILLO, DOLLY YALUNG                                   0501
