F3101400450223024477001CARE LINE ENTERPRISES                                    2601CKR
F0101415190000001745702LIZARDBEAR TASKING INC.                                  2606CK1
F1201400150421031460002CJH SUITES CORPORATION                                   2603CKR
F0101403290000000542501VERAFEDE INC.                                            2602CKR
F0101406880513039486001HDP SOFTWARE DEVELOPMENT SERVIC                          2502CKO
