B0101410980275821100608**********                                               2002
A6601400120314668441002MASLOC, SHERRY AMOR GALONO                               0501
A0101400600000005943057********                                                 0502
A0101413280092062132001REIKEN AUTOMOTIVE SUPPLY                                 0501
A0101410560000005836079**********                                               0501
A0101400730111458403002ABREGANA, CLEOFE TAMPOS                                  0502
B0101406040000006025321ONGZEN BUILDERS INCORPORATED                             1601
A0101406040112659995001*********                                                0501
A0101413310000008415343BURGOS, LANI SIOSON                                      0501
B0101412920000000276700HAPI-DAY COPY KIOSK, INC.                                1601
B0301400660194046395088DAVSAM LINK CORPORATION                                  1601
B0301400660000006862811ONG, WENDY DUARTE DBU BOTTLED KING                       1605
B0301400790000002301342MONTEVERDE II, GEORGE MENDEZ DBU GV & HH                11602
B0301400790000002301342MARKETING                                               21600
A0101413600000005794621ROMMEL G. DE JESUS                                       0501
B0101413600000005524790SAKURA DIRECT SELLING                                   11601
B0101413600000005524790CORPORATION                                             21600
A3101400160000006497814LU, MARITES A. OR LU, JUSTIN A                           0510
B3101400160221284706001INSTITUTE FOR FOUNDATIONAL                              11605
B3101400160221284706001LEARNING, INC.                                          21600
A3101400160221478374031ROMEO C. OLIVEROS                                        0501
B1001400190231015575001GOLDEN CITY AUTO PARTS & HARDWARE,INC.                   1601
A1001400190000002170747CABILAO, LORENA BINGCOLADO                               0501
B1001400350233032957001PCCI FINANCE CORPORATION                                 1601
A1301400470000003270471MARIA CELINA DJ. SIMON                                   0501
A0101401670000000237701TAYAG, FREDY LINGAD                                      0502
B0101401670271028082002DDT KONSTRACT, INC.                                      1630
A0101401670271648166001TORRES, CAROL GARRAEZ                                    0502
A0101406460272377244001ALA, JESSIE ATENTA                                       0501
A0101406460272722876011EMPLOYEES OF TECHNOMED INTERNAT                          0501
A0101406620273410741001JOSE ARNEL G. SANTOS OR                                 10501
A0101406620273410741001CONCEPCION A. SA                                        20500
A0101410980000001154341LYRA D. LACUNA                                           0501
A0801400160311267104001SAN JOSE, BERMUNDO E.                                    0501
A1101400120000003981317CANETE, ALEXIS JAN DY DBU                               10503
A1101400120000003981317CANETE ENTERPRISE                                       20500
A6601400120314622580001SOSING, CAROL O. OR FELIPE A.                           10505
A6601400120314622580001OR CAROLYN O.                                           20500
B3401400280000006790965JL PRIORITY LENDING CORPORATION                          1602
A2901400130000005961128**********                                               0501
A2901400130000005961162SALAS, MICHAEL MANANSALA                                 0501
A0101405650000006893732ARGUELLES, JUSTIN NICCOLO                                0501
B0101405650322006460001SOUTHGATE SERVICE CENTER, INC.                           1603
A01014056503220410060013805 PHARMACY                                            0501
A0101405650322094496002ANGELES, JAY NAVAL                                       0501
A0101402060351009359001JIANDANI, SURESH G. OR                                  10501
A0101402060351009359001JIANDANI, KAVITA                                        20500
A0201400920000002804480MIRANDA, SAMMY                                           0501
A0201401020000006598921ESTARDO, MARLIT                                          0501
A0101408370000006446313GORDO, SYRA KARLA CASTELLON                              0501
A0101408370382315305001HERMINIA F. FRESNOZA                                     0501
A0101408790000009331442LANA M. BADON                                            0501
A0101405490392568879003ALMEDA, ALAN PEREZ                                       0503
A0101408400394089469001DIVINAGRACIA, MARIA ESPERANZA G                          0503
B0101408400394586648001BYZANTINE SALON, INC.                                    1603
A0101408950396420560001MICHAEL LIM VILLA OR PATRICIA                           10503
A0101408950396420560001YUKIJI JAVIER VI                                        20500
A0101408950396572239001PUYAT, MARIA LUISA TICZON                                0505
B0101409180397062516001PHYSIXARE ADTEK SOLUTIONS, INC                           1601
A0301400820000001554912SAGARINO, MARIA CECILIA OR                              10501
A0301400820000001554912SAGARINO, JOSE JIMMY                                    20500
A5501400120000002348325ANG, ANDY MAN CHUNG CHANG                                0505
B2401400180411014550001GSC PROGRESSIVE MULTI-PURPOSE COOP.                      1603
A2401400180411345642001DR. FRANCISCO OR DRA. LORNA                             10510
A2401400180411345642001LORENZO                                                 20500
A0901400220000002300845LIM, RENEEROSE VESAGAS                                   0502
B0901400220432750068001NOCOM, JOSELITO GABRIEL                                  1601
A0101403320000008003836ROSANA L. RABUCO OR                                     10502
A0101403320000008003836ELMAR C. LAUREL                                         20500
B0101403320471035758001***                                                      1603
A0101403320471207895001AMBROSIO OR JOSEPHINE TOBIAS                            10501
A0101403320471207895001OR MARK ALVIN TOBIAS                                    20500
A0101403320471478374016SONIA SALANIO                                            0501
A0101403320471543955001RAMIREZ, CESAR LANDICHO                                  0502
A3801400170000005702723DE LEON, ANTONIO ROXAS OR                               10501
A3801400170000005702723DE LEON, JESITA                                         20500
A1901400160000003198703IRMINA BLANCO DE VILLA                                   0502
A1901400160491298907001SANTISIMA B HERNANDEZ OR                                10501
A1901400160491298907001MARIE JANE H VINAS                                      20500
A1601400170000001069227NUNEZ, IRENE AJERO                                       0503
A0101407430503185438005LETICIA D. JIMENEZ                                       0503
A0101403580511150751001RUFIA DOROTHY C VERA JT                                  0505
B0101406880513021335010ACTIVE REALTY AND DEVELOPMENT CORP                       1610
B0101406880000007430293PACKOS VENTURES CORP.                                    1602
A0101406880513666065001VILLARMINO, JOSELITO VILLANUEVA                          0502
A0101408530000000489692SANTIAGO, ELIZABETH LALU                                 0501
A0101408530516571877007LEX REGIS L. CALUBAG                                     0501
B0101403450521012019001TIMCO MANUFACTURING CORPORATION                          1605
A0101403450521238268001**********                                               0502
A0101403450521240285002**********                                               0502
A0101404000000001187019METTA PRINTING SERVICES                                  0501
A0101407720602397743001NAZARETH, STEPHEN MAGSINO                                0505
B0101407720602779410001DEOKMA EIGHT TRADING INC.                                1602
B0101407720602779427001ROSYDASE MARKETING INC.                                  1601
B0101412180000001293049AUTO MAGIC CORPORATION                                   1602
A0101404260000003498391SILVA, ARISTOTLE GIMOTEA                                 0501
A0101409890649741648001LIM, KIAN PANG                                           0502
B0101407690652041404001AUBURN POWER TECHNOLOGIES INC.                           1601
A0101407690652312048001ANNIE L. FERRER                                          0502
A0101407690652520766012CLARITA BUENAVENTE - DEALERS OF                         10502
A0101407690652520766012SHOECAT INC.                                            20500
A0101413440000001472602GP-GENESIS DIALYSIS CLINIC                              10502
A0101413440000001472602DIAGNOSTIC CENTE                                        20500
B0101413570656821100608**********                                               2001
A0101413990657478374016MONDEJAR, MARICRIS MALACHICO                             0501
A0101410300000000191655VIRGILIO P. LABRADOR JR. AND                            10501
A0101410300000000191655RONIE A. SALEY                                          20500
A1301400210682371374001PRISCILA G GARCIA                                        0502
A1301400500000007510227********                                                 0502
B0101408240000003501282GERVACIO HOME MANAGEMENT AIDE SERVICES                   1602
B2801400100000000188421AV SURFER SUBIC CORP.                                    1605
A2801400100000007822935FOO, JEROME B. OR FOO, ANA T.                           10502
A2801400100000007822935OR FOO, JUSTIN B                                        20500
A2801400230000000063221CARBALLO, LUDIVINA LOPEZ                                 0501
A4101400260000000469329FALCUTILA, MARISSA RAMOS                                 0502
A4101400390000007459290GARCIA JR., DANILO RODRIGUEZ DB                          0501
A4101400550815047814001BAUTISTA, MARY THERESE CELINE                           10501
A4101400550815047814001BERNARDO                                                20500
A4101400550815478374010CRISTINO, DANA JAMAICA                                   0501
B0101404840000001312452EL ORO MEDALLIC ENGRAVER CORP                            1601
A0101405070861196343001EDGARDO DAVID OR ANGELINA DAVID                         10505
A0101405070861196343001OR MARY ELAINE DAVID                                    20500
A0101405070861793236001ROGELIO M. MORANA DBU                                   10502
A0101405070861793236001ANAROM ENTERPRISE                                       20500
A0601400230000005185877SUBA, JOSE PANLILIO                                      0501
