F4101400420814035011001GRJ JARO ENTERPRISE INC.                                 2705CKC
F0601400360000003186792SAMBON P&E PHILS. CORP.                                  2601CK1
F0301400790195054735001BROTHER BRYAN'S FOOD                                    12605CK1
F0301400790195054735001CORPORATION                                             22600CK1
F0101400570281042882001NEW DAVAO OIL MILL INC.                                  2602CKR
F0101405650322694925001ADAD JR., EMMANUEL CERVANTES                             2501CKO
F4101400550815044429001CAMELLA HARDWARE & CONSTRUCTION SUPPLY                   2605CKO
