A4101400420000002084551MACAPAGAL, ARVIN JUSTIN TAMONDO                          0502
A4101400420814040145001DOPARO MARKETING                                         0501
A4101400420814453380001TOLENTINO, JONETT MISA                                   0501
A4101400420814478374144JOCELYN TALANA                                           0501
A0101402930381205175001DR. MARILYN D. RUARO                                     0502
A0101404260611451653004SUNGA, NERY OCAMPO                                       0505
A0101404260611478374084JEAN GONGOB                                              0502
A4101400420000000018493AQUINO, LANIE BANDOLA                                    0502
A4101400420814478374023MORA, THELMA V.                                          0503
A4101400420814559384001RIBOT, NORMA GAJE                                        0501
A0101401250021282275001FRANCISCO D. RESTRIVERA                                  0502
A0101401250021349772001********                                                 0503
B0101400150000001708629INNOVEND CORPORATION                                     1602
A0101400150061326594001REYNALD C. UY OR                                        10501
A0101400150061326594001SHIRLEY G. UY                                           20500
B0601400100000002099330RDF FEED, LIVESTOCK & FOODS, INC.                        1610
A0601400100081358072002NOEL C. DAVID                                            0505
A0101410560110478374007LENNIE C. MOQUETE                                        0501
A0101400730000000112881GUTIERREZ, DOMINICA DALISAY                              0501
A0101401960121306015001***********                                              0501
A0101401960121338333001************                                             0501
A0101412630000000044711TULAGAN, JANE KATLYN DOMINGUEZ                           0501
A0101401830141037575002MATATAG PRINTING PRESS                                   0502
B0101401830141046773001BLUMEX EXPRESS CREDIT, INC.                              1605
A0101400440161039572092JOSEFINA R. JONES                                        0501
B0101400440000002846575COMMANDER SECURITY SERVICES, INC.                        1610
B0101400440000000337773VIENNA PORCELANA PHILS. INC.                             1610
A0101407270000005229578**********                                               0501
A0101407270162203204001OGIE P. DIAZ                                             0502
B0101401090171007908001PERPETUAL SUCCOR HOSPITAL &                             11605
B0101401090171007908001MATERNITY, INC.                                         21600
A0101401090171039151001ECOWASTE MANAGEMENT COMPANY                              0502
A0101401090171195628003PUNSALAN, PATRIA PEREZ OR                               10502
A0101401090171195628003KING, LARRY SIA                                         20500
A0101401090171335789001JONATHAN C. VASQUEZ                                      0502
A0301400950000002115300*******                                                  0502
A0101401380201566837001ALARCON, LAILA ABADIER                                   0501
A3101400870000000074844ROA, ROSEMARIE JUNDOS OR ROA,                           10501
A3101400870000000074844JAMES ROQUE GARCIA                                      20500
A1001400350000000922058ARENO, ANN JANE BUCO                                     0502
A1001400350233531951001PIZARRO, ROBERTINO OR PIZARRO,                          10502
A1001400350233531951001MA. CRISTINA                                            20500
A1001400480000002300430YU, WINEFREDO NISNISAN DBU                              10505
A1001400480000002300430WINKIM TRUCKING                                         20500
B1001400480000000133593DELUXE RANCH TRANSPORT CORPORATION                       1602
A0101406460272570208001MENDOZA, ANGELO DEL MUNDO                                0503
B0101406620273026285001DBQUEST, INC.                                            1602
B0101406620273027549001E-BUSINESS SERVICES, INC.                                1602
B0101406620273044226002QUANTUM REINSURANCE BROKERS, INC.                        1604
A0101406620273521300001GARCIA, LEO MCGUIRE OR                                  10501
A0101406620273521300001GARCIA, CARMEN                                          20500
A0101400570281397860001CASTIGADOR, GUISEPPE FAJARDO                             0501
A0101411240000001563479********                                                 0501
A2601400270000002312196GERALD D. GANNOD OR                                     10501
A2601400270000002312196MARY JANE N. GANNOD                                     20500
B2601400270000000020673JPGLOBAL VENTURES CORPORATION                            1603
B2601400270000000020639IGNACIO DATU OR WILMA DATU                               1610
A0801400160000002287512LIM, EMERSON JUNN CHUNG                                  0501
A0801400160000002287556QUIMADO JR., NEMENCIO RODRIGO                            0502
B1101400120313040867001PRO 8 CREDIT COOPERATIVE                                 1601
A1101400120000001920634GUIRON, TERESA GALLARON                                  0501
A1101400120313578811001YAP, NYDIA TY OR YAP, ANNA                              10502
A1101400120313578811001MARIE TY                                                20500
A0101402350321699706001DE LARA, JAY GALLARDO                                    0501
A0101402510000005269941LINGATONG, CRISTINA BALANE                               0501
A0101402060351211769002RENATO R. ERMITA &/OR                                   10503
A0101402060351211769002RENATO H. ERMITA                                        20500
A0101402060351384997001CHOI, JAE SOOK                                           0501
A0101409050352619777001VANESSA THERESE D. FRANCISCO                             0502
A02014009203755067500012ORTES, WYLLE ISOK                                       0501
A0201400890000003179680ROSKA, RAMON CAUSING OR                                 10501
A0201400890000003179680ROSKA, ELSA PILA                                        20500
A0201400890000005265841TANCHAN, CONSTANTINE CHUA                                0501
B0201400890376052650001NEWSAN TRADING LTD. CO.                                  1605
B0101408790000002659072LEAD HOPE DIGITAL INC.                                   1601
B0101402770391046279001LEGACY RENOVE INC.                                       1610
A0101402770000001841130A.B. MANALANG ENGINEERING SVCS                          10501
A0101402770000001841130AND INDUSTRIAL SUPPLY                                   20500
A0101405490000000530885GRIESER, MARY ANN SEVERINO                               0501
B0101405490392030408001BTD ELECTRICAL MERCHANDISE                               1603
B0101405490392035300001TECHNO-ASIA CONSTRUCTION AND DEVT.INC.                   1603
A0101405490392040671001JUPX CAR RENTAL                                          0505
A0101405490392177005001DOMINGA P. BUENAOBRA                                     0501
B0101405490392518855001ISABELLE ROYAL HOTEL & SUITES INC.                       1602
A0101409210000000043752EARL NICHOLLSON CHUA                                     0502
A2401400180000000073527LAFARDZ MARKETING                                        0502
A2401400180411542448001GUATLO, ANNA MARIE VILLASENCIO                           0501
A0101403030441044003001**********                                               0501
A0101403030441239075002**********                                               0502
A0101406330472478374055ESPERANZA L. MALABOTE                                    0501
A0101406330472573379001POI HOK SY                                               0501
B0101412760476821100608**********                                               2005
A1901400160000000243592CARLITO RAMOS BAGON JR.                                  0502
A1401400110492308038002AMPARO, BENJAMIN MACALINAO                               0501
A1401400110492788204001***************                                          0504
A1601400170000001837863RENE N. ESPLANA OR                                      10501
A1601400170000001837863GLORYDEL B. ALAPAD                                      20500
A0101407430000004687403JUDITH R. VILLACRUCIS OR                                10503
A0101407430000004687403LUZ C. AMORES                                           20500
B0101403580511015363080MEC - TREETOP VILLAS                                     1605
B0101403580511015363081MEC - SUNTRUST PARKVIEW                                  1605
B0101403580000000015738MEC - SPV 5 & 6                                          1610
B0101403580511022003001SUNWISE BROKERAGE AND FREIGHT FORWARDING                 1603
B0101403580000002185413ACUMU CONSULTANTS INC.                                   1602
A0101403580511293144001EDIBERTH G. LLUZ                                         0501
A0101403580511323054001FEDERICO C. LAFUENTE JR.                                 0501
A0101403580511424422001ELIZALDE S. UY                                           0502
A0101406880513016429002CHADA ENTERPRISES                                        0501
A0101406880000000027067ESQUIVEL, GARY NOBLE                                     0504
A0101408110000000380090SANTIAGO, EMMALYN BONIFACIO                              0501
B0101408110515017881005GROUP MANAGEMENT CORPORATION                             1602
A0101408110000001364869**********                                               0502
B0101403450521011657001UPTOWN INDUSTRIAL SALES, INC.                            1610
A0101403450000000889483*********                                                0504
A0101410690000000001758IGNACIO, JONATHAN DBU JCJ                               10502
A0101410690000000001758MANAGEMENT SERVICES                                     20500
A0101407720602480488001GERALDINE MAJELLA L. JURILLA MD                          0501
B0101407720602612671001EMERGENPRO INC.                                          1602
B0101404260611026599001FILIPINO PEST CONTROL AND GENERAL                       11610
B0101404260611026599001SERVICES, INC.                                          21600
B0101404260611045033001GENSERVE SOLUTIONS INC.                                  1610
A0101407690000003207241DELA CRUZ, RONALD FRANCIS ROQUE                          0502
A0101407690652028378002HIGHER GROUND FOOD STATION                               0501
A0101407690652468270001JYNELLE SUSANA CONCEPCION OR                            10501
A0101407690652468270001J. WIGMORE CONCEPCION                                   20500
B0101407690652763117001MARILYN BAGGAYAN AND CONSTANCE REYES                     1601
B0101406590662042173001NEW ARCOND BUILDERS INCORPORATED                         1602
B0101406590662050723002DOUBLE NINE CONSTRUCTION                                 1601
B1301400210682030329002ANDAN ENTERPRISES, INC.                                  1602
B1301400500000000011201NICOLINE.FREIGHT, INC.                                   1605
A1701400230000001786729PALADO, LEICEL                                           0502
A1701400230000001786730LIGOT, CHARITY RANADA                                    0501
B0101408240000000832780WOWA'S FAST FOODS INC.                                   1610
B0101408240000000832791WOWA'S FAST FOODS INC.                                   1610
A0101408240711383461001SANG, PAUL OR IRIS                                       0502
A0101408240711478374022PAGLICAWAN JR., RODOLFO                                  0502
A2801400100712701754001DALIT, MADONNA VERSOZA                                   0501
B4101400260000000048991*****                                                    1605
A4101400420000003715575ABAD, CHRISTINE MARIE REYES                              0502
A4101400420000000120856NAPILI, EMELY DACOYCOY                                   0502
A4101400420814520766004SALVACION D. BITANCUR                                    0501
A4101400420814520766051GANZON, WILMA A.                                         0501
A4101400420814568834001BARCELON, ALEX DAYANDAYAN                               10501
A4101400420814568834001BARCELON, ZORAID                                        20500
B0101412340850821100608**********                                               2005
A0101404840851046725013MARY JANE A. DE GUIA                                     0501
A0101406750000000090673DIMAIYACAN, MARCELINA MANALO                             0501
B0101405070861022087001AIR SPACE TRAVEL AND TOURS INC.                          1605
A0101405070861530813001ELOISA A. RAMOS                                          0502
A0601400230891738531001CHUA, MARK ANTHONY GARCHITORENA                         10502
A0601400230891738531001TAYAO, GILBERT A                                        20500
