B1801400130151821100608**********                                               2010
B0201400890376821100608**********                                               2005
B0101401830141821100608**********                                               2002
A0101400730111203514058MARY ANNE CUARTERO                                       0502
A0101401380201478374009CORNELIO, CHERRYLYN J.                                   0501
A0101405490392478374008MARGARITA R. CIELO                                       0502
A0101405490392499176001ANICIA B. MORALES                                        0501
A0101400860011426836001*********                                                0502
A0101400860011514595002**********                                               0502
A0101401250021709223001ROLANDO F. ASTILLERO JR. OR                             10501
A0101401250021709223001GINA A. ASTILLER                                        20500
A0101400150000003197711ANN MAY C. MERCADO                                       0501
A0101400150000002902467BEJOSANO, SUSAN REGALA                                   0502
B0101400150061010662001HINATUAN MINING CORP.                                    1610
B0101400150061010855001MANTA EQUITIES, INC.                                     1610
A0101400150061055752085VILORIA, RAUL AQUINO                                     0501
B0101400150000006004153JELKA 5 STAR FISHING CORPORATION                         1603
A0101400150061073873001CHARLENE DIANE NEY-REYES                                 0501
A0101400150061514440001SACLAYAN, MYRNA BAUTISTA                                 0501
A0101400150061531871001MAANO, OLIVER ALVIAR                                     0501
A0101400150061554336001ROXAS, GRACIA LOPEZ                                      0501
A0101400600071092538001CHAN, GIDEON DY OR                                      10510
A0101400600071092538001CHAN, JEANNE P.                                         20500
A0101400600071684249001******                                                   0503
B0101400600071787115001**********                                               1602
B0101405810000000016884PLASTIC CONSUMER CORP.                                   1603
B0101405810072030630001***************                                          1603
A0101405810072390933001**********                                               0502
A0601400100000005050286***************                                          0501
A0601400100081251783001ANTONIO, ADELA L.                                        0501
A0101410850000000844753TOLENTINO, F DBU TOL CHARTERING                         10501
A0101410850000000844753 & SHIPPING AGENCY                                      20500
A0101410850000002356841DELA CRUZ, E DBU E. DELA CRUZ                           10502
A0101410850000002356841GRAVEL & SAND/TRUCKING                                  20500
A0101400730111478374198DE VERA, NORLINDA                                        0501
B0101401830000000033569CARITAS SALVE CREDIT COOPERATIVE                        11604
B0101401830000000033569(CALOOCAN)-001                                          21600
A0101401830141416060002BIENVENIDO ALBANIEL MADRID JR.                           0502
A5001400170000000045069SANCHEZ, LUNINGNING CONCHA                               0501
A0101400440161591337001JENESSEY A. RANCES OR                                   10502
A0101400440161591337001JESSIE O. RANCES                                        20500
A0101407270162085922016SPIRO L. CLEMENTE                                        0501
A0101407270162085922017SPIRO L. CLEMENTE                                        0501
A0101407270162331908018CATHERINE MADONNA C. CRUZ                                0501
A0101407270162402587002MA. LOURDES L. SEVILLA                                   0501
A0101407270162402587002MA. LOURDES L. SEVILLA                                   0502
A0101401090171200861001ELVIRA OR MELVIN DOLIENTE                                0502
A0101401090000001619030PESO, MARIA CECILIA S. OR                               10502
A0101401090000001619030AQUINO, MARIA CRISTINA S.                               20500
B0101401380201030648001ITEMP HOLDINGS INCORPORATED                              1601
A0101413020000000057003********                                                 0501
A01014130200000030553367A7 ENTERPRISES                                          0502
A0101410720210658417001CANTALEJO, EUGENIANO BORJA                               0501
A0101413600000003851187ARNEL L. ARENAS                                          0501
B3101400160221572901001ATTGIG INTERNATIONAL INC.                                1602
A3101400870000005410086VILLANUEVA, RIZALYNN ROMERO                              0501
A1001400190231520766204VELEZ, RUSTICA LABADAN                                   0501
A1001400350233611366001**********                                               0502
B0101401670271022313001PASDA, INCORPORATED                                      1603
B0101401670000004588445THE ASTRA GROUP, INC.                                    1605
A0101401670271507870001MANUEL, PATRICIA SUACO                                   0502
A0101410980000002303800SY, BRYLLE JANSTED YUCHONGTIAN                           0501
B0101411110276046706088SAHI TECHNOLOGIES UNLIMITED INC.                         1603
A0101411240000005136458PAMITTAN, JAICE LEMUEL OBISPO D                          0501
B0501400200000001081145MANIPON,W. DBU FA WELS CONSTRUCTION SUPP                11602
B0501400200000001081145LY OR MANIPON,C.                                        21600
B2601400270000000083947HIMA CARE INTERNATIONAL HEALTH SERVICES                 11601
B2601400270000000083947INC.                                                    21600
A1101400120000001920587GLORIA, JACINTA DADULA                                   0501
A1101400120000003197153SERRATO, ELSA OCASLA                                     0501
B0101402350000000655527MONICA PUBLISHING CORPORATION                            1605
A0101402350321178721001********                                                 0510
A0101402350321597544001ARSITIO, ROBERTO T. OR ARSITIO,                         10501
A0101402350321597544001LUVIZMINDA L.                                           20500
A0101402510000007408815JUAN, DIANA GRACE CRUZ                                   0501
A0201400760000001457723CUTOR, MICHAEL OGAYON                                    0501
A0201400760000005710992BELUAN, CRISCELDA DAGANI                                 0503
A0201400920375513629001CHUA, JENNIFER OR CHUA, EUGENE                           0501
B0201400890376061846001FREEPOINT MOTORCYCLES & PARTS CO.                        1601
A0201400890376737585001LIM, MARICEL RANILI                                      0501
A0101408370382457017001DR. RONEIL M. NOGOY                                      0502
A0101408370382482271001DR. LARRY V. ACUNA                                       0502
A0101408370382507541001CESAR V. VILLAFUERTE JR. OR                             10503
A0101408370382507541001LILLIAN L. VILLAFUERTE                                  20500
B0101402770391009325001SAKURAI PHILIPPINES CORP.                                1604
A0101402770391187974003DARWIN DEE PONA                                          0501
A0101405490392654055001ROA, MIGUEL GUILLERMO P. OR                             10501
A0101405490392654055001ROA, MA CONCEPCI                                        20500
A0101405490392699917001RAMON ADRIAN B. BERNAL                                   0501
A0101408400000001855381ABSA BUILDERS                                            0503
A0101408400394478374063LACSON, MARITES                                          0502
B0101412210000000031512WALL STREET ACCOUNTING AND BUSINESS                     11602
B0101412210000000031512SOLUTIONS INC.                                          21600
A0301400820000002272033ASARAK, YASIR A.                                         0501
A5501400120000002019078AGUERO, RONNIE SUMBLINGO                                 0501
A2401400180000001935833SUERTE, ALEJANDRE CHIO                                   0501
B2401400180411046609001MATUTUM OIL MILL AND REFINERY                            1604
A2401400180000001677023METRO GENSAN HARVEST CHRISTIAN                          10504
A2401400180000001677023ACADEMY, INC.                                           20500
A2401400180411478374047YOLANDA L. NINGAL                                        0501
A1201400150000001863094SOMNGI, ESTEBAN ACROPEN                                  0503
A1201400150000000034493YU, MARTINA BAGONA                                       0505
A0101412890000005944910FLORES, MARIA  AISSA ONG                                 0503
A0101403320000000067565DE CASTRO, RENIEL DBU                                   10501
A0101403320000000067565E+DC ARQUITECTOS                                        20500
A0101403320000004830911726RADLEY TRADING                                        0501
A0101403320471478374053*************                                            0501
A0101406330000000683363EDUARDO LEGARIO                                          0501
A0101412760000002262733PERICO, JOSEPH MARIA AGUSTIN                             0501
A0101412760000001399260SAN BUENAVENTURA, LILIA                                 10501
A0101412760000001399260DE SILVA                                                20500
A0501400170000005002953ORFINADA, TERRY A. OR                                   10501
A0501400170000005002953ORFINADA, ALBERT                                        20500
B0501400170481005408003REPUBLIC COURIER SERVICE INC.                            1603
B0501400170481025398002****                                                     1601
A1401400110492669359001************                                            10503
A1401400110492669359001************                                            20500
A0101407430000003193946LOPEZ, JENNIFER N. DBU JLO HIGH                         10501
A0101407430000003193946PERFORMANCE MOTOR SHOP                                  20500
A0101407430503434847002JOCELYN L. CUSTORIO                                      0501
A0101403580000000922598VIRSIL O. FLAMINIANO                                     0501
A0101403580511005219001ENRIQUE T. CALAYAG                                       0501
A0101403580511026941001CECILIA NARVAEZ Y DISENOS                               10502
A0101403580511026941001INTERIOR                                                20500
A0101403580511617964001JEROME MATTHEW Y. GATMAITAN                              0502
B0101403580511682308001AMARA HOLDINGS INC.                                      1602
A0101405940000007407452STREIBL, ERIC NMN                                        0501
A0101405940512035308001UP-TECH BUILDERS                                         0503
A0101405940000000061721ALAGAR, DENNIS LIMLINGAN                                 0501
A0101408110000000016800999 FOOD AND BEVERAGE                                    0510
A0101408530516494431001******************                                       0501
B0101403450521011882004PAN PACIFIC TRAVEL CORPORATION                           1603
A0101403610000006497847PERPETUA, MA. BELINDA BESTUDIO                           0501
A0101403610000007402877POSADAS, GLENN USON                                      0501
A0101403610531762297001HO, HELEN TAN OR                                        10502
A0101403610531762297001TAN, DOLORES LIM                                        20500
B0101404000000006028042****                                                     1601
B0101404000551005037005CONRAD & SONS REALTY INC.                                1610
A2201400250561478374006ANGELINA P. QUIBALLO                                    10501
A2201400250561478374006MEMBERS OF NATASHA                                      20500
A2201400250561478374062JENNIFER M. RAMOS                                       10501
A2201400250561478374062MEMBERS OF NATASHA                                      20500
A0101404130601451188001**********                                               0502
A0101404130601511766001LOPEZ, JULIETA INES                                      0502
A0101407720000000245214LEORNA, IRENE CASUBUAN                                   0501
A0101407720000004664962STA.MARIA, JASON PICHAY                                  0501
B0101407720000006028166MEDGATE PHILIPPINES, INC.                                1601
A0101407720602692869001NIELSEN, KAREN LUCERO                                    0502
B0101409890000006812780**********                                               1605
A0101409920000005461183MARQUEZ, SORAYDA RODRIGUEZ                               0501
A0101409920650478374011MELFLOR M. SILVINO                                      10501
A0101409920650478374011MEMBERS OF NATAS                                        20500
A0101409920000000022088ASUNCION, MARILYN JUANEZA                                0501
B0101407690000003767879MEGARITZ FINANCING CORPORATION                           1601
A0101407690652060073273FRANCISCO V. DELA CRUZ JR.                               0501
A0101407690652478374179LENIE ANDO - DEALERS OF                                 10502
A0101407690652478374179SHOECAT INC                                             20500
A0101407690652678597001HERRERA, ALICIA ARCEO                                    0501
A0101413990000001202377ELLEN MAE L. GONZALES OR                                10501
A0101413990000001202377RONALDO AMADOR G                                        20500
B1301400340683027908001BBC EMPLOYEES ASSOCIATION                                1605
B1301400340683821100608**********                                               2001
B0101408240711028488001INTAS DESTINATION MANAGEMENT INC.                        1605
A0101408240711497975001PLOTTECK, SALUSTIANA BANGAYSISO                          0501
A4101400550000002090962JESSIE CASTILLO OR PETER SIMON                          10502
A4101400550000002090962LARA OR EVANGELI                                        20500
B0101406750000000480933MINATO VM REFRESHMENT, INC.                              1601
A0101406750852636445001MANGURNONG, AMAPOLA CELESTRE                             0501
A0101406750852711795001MARCELINO, NIELSON GRAMMS MIRAN                          0502
B0101405070861043213001TEKTON CONSTRUCTION CORP.                                1605
A0101405070861478374054LUZVIMINDA T. PONTANAR                                   0501
