F0101406620273037433001QUADCORE CONSTRUCTION &                                 12610CKR
F0101406620273037433001DEVELOPMENT CORP                                        22600CKR
F0201401280000003538516ASIA MARINE CARGO SHIPPING CORP                          2601CK1
F0301400240004013500224MSU-IIT NMPC DAVAO-1 BR.                                 2601CKR
F0101403580511023910001P.J. LHUILLIER DEVELOPMENT                              12601CKR
F0101403580511023910001CORPORATION                                             22600CKR
F0101403580511023913001PJL CORPORATE CENTRE, INC.                               2601CKR
F0101403580511153712001P AND EL REALTY CORPORATION                              2601CKR
