A0101412050000000697190RIVERA, TEODO DBU BLAZE EFX                             10501
A0101412050000000697190EVENTS PRODUCTIO                                        20500
A0101400570281388539063HENRY L. DE GUZMAN                                       0501
A0101400570000001681870CABALZA, DUNKIRK JOHN RIVERA                             0502
B0101400860011011432003MLQES TEACHERS' MULTI PURPOSE COOP                       1601
A0101400860011581522001**********                                               0502
A0101401250021179657001PIGAO, SOCRATES CLAVERIA                                 0503
B0101400150061009769001KEYLAND CORPORATION                                      1610
B0101400150061027839001ROSCOR                                                   1602
B0101400150061058388001KINETICS DIS3BUTION, INC.                                1601
A0101400150061236944115MA. SHARON COMIA                                         0501
B0101400600071045155001*******                                                  1602
B0101405810072369274002***********                                              1605
A0101405810072383141002WANG, CIHAI                                              0502
A0601400520000002085907BONDOC, AURORA LACANLALE                                 0501
A0601400520000001706918NAGUIT JR., JOSEFINO F. OR                              10510
A0601400520000001706918NAGUIT, MHELODIE                                        20500
B0601400520000004423385THE XEVERA HOMEOWNERS ASSOCIATION,                       1605
B0101401960121026591001CLIMATROL MARKETING CORPORATION                          1601
A0101401960121238731001**********                                               0505
A0101401960121240766001**********                                               0501
B0101413150000000082784*********                                                1605
B0101401830141259521001JIMMY N. YANG (SONLY PRINTING PRESS)                     1601
A0101401830141367511001VELASCO, MA. TERESA ABUYO                                0501
A0101400440000002035121RUBY R. BUGAY                                            0501
A0101400440161188224002MA. AGNES B. BINAG                                       0502
A0101400440161525001070MARIBEL S. SOLEDAD                                       0501
A0101400440161541478001ERWIN S. AGUSTIN                                         0502
A0101400440000003671721ALCANTARA, MARLYN DACORO                                 0501
B0101407270162032578001I.LEARN.CENTER INC.                                      1601
B0101407270162033286001DESIGN.STUDIO INC.                                       1601
A0101407270162047398001YACHANG INTERNATIONAL                                   10502
A0101407270162047398001MANAGEMENT SERVICES CORP                                20500
B0101407270000000010180COUNTRY CHATEAU HOTELIERS CORPORATION                    1602
A0101407270162770709001MARTIN WILLISON U. REYES                                 0502
A0101401090171347113001LINO N. BARON                                            0501
A0101401090171368642001ARLENE Z. AGUILAR                                        0501
A0301400530193560165168YAO, CAIQI                                               0501
A0301400530000001010033YABUT, ELVIS G. OR                                      10502
A0301400530000001010033YABUT, MARELIE L                                        20500
A0301400660000002348570PALACOL, GILBERT PECHO                                   0501
B0301400950000000566923DAVAO TOPCHING AUTO PARTS                                1605
A0101401380000001819996********                                                 0501
B3101400450223018245001PERLA COMPANIA DE SEGUROS, INC.                          1604
A3101400450223357912001NAGA, JOSE V.                                            0503
A3101400450223459293002CORONADO, ABNER LOPEZ                                    0501
A3101400870000000074844ROA, ROSEMARIE JUNDOS OR ROA,                           10501
A3101400870000000074844JAMES ROQUE GARC                                        20500
A3101400870000000957702GATCHALIAN, GIANCARLO ENRIQUE                           10503
A3101400870000000957702GOMEZ                                                   20500
A1301400470252033790001A-1 SHELL SERVICE STATION                                0501
A1301400470000000472695LOIDA SERENITY FUNERAL SERVICES                          0504
A1301400470252547627001RODERICK V. GALANG OR                                   10503
A1301400470252547627001RAQUEL J. GALANG                                        20500
B0101401670271025503001SANTUARIO DE SAN JOSE-PARISH PASTORAL                   11602
B0101401670271025503001COUNCIL                                                 21600
B0101401670271025503002SANTUARIO DE SAN JOSE-PARISH PASTOR                      1602
A0101401670271475286001ALBERNINA PASCUAL-LOPEZ                                  0501
A0101401670271570222001*********                                                0503
B0101406620273007454005GLOBE ASIATIQUE REALTY HOLDINGS CORP.                    1610
B0101406620000000193953PROSALES MARKETING CORPORATION                           1602
B0101406620273046416001FIRST SHELTER VENTURES & REALTY CORP.                    1610
B0101406620273047215001UMIC INTERNATIONAL, INC.                                 1602
B0101406620000000962512ALLIANCE SELECT FOODS INTERNATIONAL                      1601
B0101412470000002338843WEBLEND INC.                                             1601
A0501400200000001000131DE MESA, JOSEFINA PASCUA OR                             10502
A0501400200000001000131DE MESA III,SERGIO V.                                   20500
B2601400270000002677332CHRIST'S COMMISSION FOUNDATION, INC                      1601
A6601400120000002249910YRUMA, ALBERT PAJUELAS                                   0505
B2001400290000000020537LINK RI LOGISTICS INC.                                   1601
A2001400290315640426001**************                                           0505
A2001400290315641895001WENCESLAO, JUNE CLEO OR                                 10501
A2001400290315641895001WENCESLAO, ANTON                                        20500
B2001400290315688888001**********                                               1610
A0101402350321477731003******                                                   0501
B0101405650000000772812ONE BFCEA INC.                                           1602
A0101405650000002325640ZIOUTOS, ALEXIOS SANTUA                                  0501
A0101405650322435370001DRA. C.J. BUSTAMANTE-REYES                               0502
B0101402510341021863002SAN BEDA COLLEGE UNION (SBCU)                            1601
A0101402510341346704001DIZON, AMELIA TIOSEJO                                    0501
A0101402060351380733002UY, ANNA LISSA GAW                                       0502
A0101409050000001662426PEFIANCO, FRA DBU DRAGON EMPIRE                         10501
A0101409050000001662426CONSTRUCTION                                            20500
A0201400760000000989591SANTOS, CATALINA DE BELEN                                0503
A0101402930000000623363KING, C DBU EASTERN CIRCLE                              10501
A0101402930000000623363HUMAN RESOUCE SE                                        20500
A0101408370382457717001O.Q. MALANYAON, M.D.                                     0502
A0101408370382738984001MEDRANO, ANA BEATRIZ                                    10503
A0101408370382738984001DELOS REYES                                             20500
A0101408790000001486211MACARIOLA, MARIA ELENA TURIJA                            0501
A0101415350000005027241CATAMORA, MA LIZA LORENA ARVESU                          0501
B0101402770391009809002MITSUBISHI MOTORS PHILS. SALARIED                       11601
B0101402770391009809002EMPLOYEES UNION                                         21600
A0101402770391034936001LOGPRO EXPRESS, INC.                                     0502
A0101402770391211531001**********                                               0504
A0101402770391380022001KUNG, CHIEN-LIANG                                        0501
A0101402770391550490001MORILLO, ZENAIDA Z.                                     10501
A0101402770391550490001TAN, DANILO G.                                          20500
A0101408400394033958001RCBP-STA MARTHA PARISH                                   0503
A0101408400000001614693ELICARL SALON                                            0502
A0101408400394478374061SONAJO, LOLITA C.                                        0502
A0101408400394500051001MATIBAG, ABRAHAM TIMAJO                                  0503
A0101409180000003813078BERMUNDO, MARIVIC B.                                     0501
A0101409180397685358002ONGAYO, MELVIN ABAO                                      0502
A0301400820000001027809CERVANTES, ROY C. OR CERVANTES,                         10501
A0301400820000001027809FLORA MAY C.                                            20500
A0301400820000002272044OREAL, FLORDELIZA M.                                     0502
B5501400120000001121913PINGOY, ALBERT YUSAY DBU PUREWATER                       1603
A5501400120000001122063NAVARRO JR., ROMERICO BALUYOT                            0501
B5501400120000000046853LAUNDRYWORLD LAUNDRY SYSTEM CORP.                        1603
B5501400120000000046900RENAISSANCE CHAPELS                                      1602
A5501400120410283898001GARCIA, JOSIE OR                                        10510
A5501400120410283898001GARCIA, GERARDO                                         20500
B5501400120000002949859CHIU, VALENTIN SIRA                                      1602
A5501400120410636179018CHIU, VALENTIN & JULIA EILEEN                           10503
A5501400120410636179018& CHRISTIAN & CH                                        20500
B5501400120410636179088CHIU, VALENTIN & JULIA & CHRISTIAN &                    11603
B5501400120410636179088CHRISTEL                                                21600
A5501400120410636391028CHIU, JULIA EILEEN & VALENTIN                           10505
A5501400120410636391028& CHRISTIAN & CH                                        20500
A5501400120410656023001BELTRAN, MANUEL OR                                      10502
A5501400120410656023001BELTRAN, ALEGRIA                                        20500
B5501400120410685505008THAIRAPEUTIC, CORPORATION                                1603
A2401400180000002146185SUICO, RENATO PADAL                                      0502
A1201400150421459509001TEE, CHITO LAYUGAN                                       0503
A1201400150000000034493YU, MARTINA BAGONA                                       0506
A1201400150421542323001ACHAPERO, RHODAVITA CORPUZ                               0502
A1201400150421598323001BORJA, LAWRENCE ANTHONY PADUA                            0502
A0101403320471311190002*****                                                    0505
A0101403320471429191002CECILE CABALLA                                           0503
A0101403320471489460001ALMA CALAVERA OR                                        10503
A0101403320471489460001KENNETH CALAVERA                                        20500
B0101406330472046636001ENERTECH SYSTEMS INDUSTRIES, INC.                        1610
A0101406330472215905001MARCELO OR ERLINDA DELAS ARMAS                           0503
A0101406330472408233001HERMOGENES D. LIM III                                    0501
A0101410140000001074533MEMBERS OF NATASHA (SHOECAT INC                          0501
A0501400170481043466001RUSKIN MARKETING                                         0505
A1401400110000003063447ABADILLA, JEFFREY PIZARRA                                0501
A0101407430503436029001CACHO III, MARIANO NERA                                  0501
A0101405940000001047381MIRANI, DIANA NARESH  JT                                 0502
B0101408110515041304001RUSTAN EMPLOYEES CREDIT COOPERATIVE                      1610
A0101411790518055764150MARIA LOURDES L. FRANCISCO                               0501
B0101411790000003252542****************                                         1601
A0101412050000000890882********                                                 0502
B0101403450521017494001YU ENG KAO ELECTRICAL SUPPLY &                          11601
B0101403450521017494001HDWE, INC                                               21600
A0101403450521239872002**********                                               0502
A0101403450521240998002********                                                 0504
A0101403450521389380001**********                                               0501
A0101403450521579097002SUSTITUEDO, KAREN OR                                    10501
A0101403450521579097002SUSTITUEDO, DENNIS                                      20500
B0101403610531044363001RAIN'S PLACE CORPORATION                                 1602
A0101403610000001174943MIR & RYVI HOME OF ORGANICS COM                          0502
A0101404000000003706432RAINIER L COMIA                                          0501
A0101404000551390720001BRIONES, ANGELITA MANAIG                                 0505
B2201400250561027176001MALIGAYA TRINITY MULTI PURPOSE                          11610
B2201400250561027176001COOPERATIVE                                             21600
A2201400250561255010005EMMANUEL D. PASCUAL                                      0502
A0101404130000002121113VERIDIANO, AIMEE DUMARAOS                                0501
B0101404130601100161001PRUDENTIAL CUSTOMS BROKERAGE SERVICES,                  11610
B0101404130601100161001INC.                                                    21600
A0101412180000001293374CEDILLA, JEANNETTE REGALADO                              0501
A0101404260000003498373*********                                                0501
A0101409920000000998569MEMBERS OF NATASHA (SHOECAT INC                         10501
A0101409920000000998569PEDROSA, JULIE                                          20500
A0101413990000001947128MARS STONE SUPPLY                                        0501
A0101413990000003141168PASCUA, JERICKSON LOUIE TAN                              0502
A0101406590000002277603ARMI S. ABEL                                             0501
A1301400210682478374053RUBIROSA C CABUGWASON                                    0502
A1301400210682478374060ROBERTA CARLOS                                           0501
B1301400340683353482001MARLENE R. JOSE OR JOSE MARI R. JOSE                     1602
A1301400340000000926869CUERDO, MARIA ANA SORNE                                  0503
A0101408240000003955237BAES, MARCUS ANTHONY MARCO OR                           10503
A0101408240000003955237BAES, MARIA ROWENA                                      20500
B0101408240000000832702FORTUNE DWELLING BUILDERS AND                           11603
B0101408240000000832702DEVELOPMENT                                             21600
A0101408240711228456002MA. VICTORIA MANIQUIS                                   10502
A0101408240711228456002OR STEVE MANIQUIS                                       20500
A0101408240711375763001TUGADE-HLATKY, PILAR                                     0501
A0101408240000001038755DEMETRIA, ALBINA PAGCANLUNGAN                            0501
A4101400260000001198790PAZ, IRNA BAS OR REAL, JOEL L.                           0501
A4101400260000000541159REMOLACIO, MARIA DOLOR DURAN                             0501
A4101400390000001732805FLORITA DE JESUS                                         0503
A4101400550000002091010UNIFIL MANPOWER RESOURCES                                0502
A4101400550815568762001RASAY, EDNA GOMEZ                                        0501
A4101400550000003839338RIVERA, ROSALINDA LOVERIA                                0502
A0101412340000004360490RONICA ARLENE M. EUGENIO                                 0501
A0101404840851520766144PANA, ZENAIDA C.                                         0501
A0101404840851579779001MENDOZA, DELIGHT COMETA                                  0501
A0101406750852043322001JMRS TOURS & TRAVEL                                      0503
A0101406750852084318001SIBUG, GENEATH P. OR                                    10501
A0101406750852084318001SIBUG, ERNESTO M                                        20500
A0101406750852381214002METTA ABBY V. FORMIENTO                                  0501
A0101406750852711795001MARCELINO, NIELSON GRAMMS MIRAN                          0501
B0601400230000002649927MJ EXPRESS CREDIT INC.                                   1605
A0601400230000002649983REYES, JODEL MANUEL                                      0502
