F0101403580000000214720TRENDS AND CONCEPTS TOTAL                               12608CK1
F0101403580000000214720INTERIOR SOLUTIO                                        22600CK1
F3101400320222400583001GAMALIEL C LINO                                          2501CKO
F0101404680651297826002LIM,YOLANDA OR CABIGON, MELISSA                         12605CKR
F0101404680651297826002OR LANGCAY, SHIE                                        22600CKR
F0101407560686401718002**********                                               2504CKO
