B0101402060351821100608**********                                               2020
B0101407720602821100608**********                                               2005
B0101406460000000020964CEFCO BUILDERS, INC.                                     1606
A0101409050000003535135LUCILLE DYAN BOMBEO                                      0501
A3001400130000005708545FAYTONE, MARIA FATIMA MAGNO                              0502
A0101406460000002359931QUIZAN, RODA CANLAS                                      0501
A0101405490000005729473MA. ALVILYN MANGLINONG                                   0501
A3001400130000002063441JONGKO, JOSE MARI MARCO OR                              10502
A3001400130000002063441JONGKO, DEBORAH                                         20500
A1201400150000000473341SAKING, DONALD ANNIBAN                                   0501
A1901400320000000679205JOSE M AQUINO JR OR                                     10502
A1901400320000000679205MARIA KATHLEEN G                                        20500
B0101403580511034776001CRISAIR INDUSTRIAL INC                                   1601
B0101403580511037494001MAGENTE BPO CO. LTD.                                     1602
B0101403580000004558670KPMG CONSULTING (PHILIPPINES) INC.                       1605
A0101400150061055752021LAGCAO, LIA MENDOZA                                      0502
A0101400150061231935002EMILINA P. GARCIA OR                                    10502
A0101400150061231935002MA. CARMEN JAVIE                                        20500
A0101400150061315349079NOEMI V. UNIDAD                                          0501
B0101400600071516450001********                                                 1601
B0101405810072018018001AIMWAY PLASTIC & PRINTING CORP.                          1603
B0101405810072040696002PLASTIC TECHNOBAG CO. LTD.                               1602
B0601400100081035852001LIBERATO T. REYES & ASSOCIATES,                         11603
B0601400100081035852001CPA                                                     21600
B0601400100081044308001CRYSTAL LIQUID PHILS. INC - PORAC BRANCH                 1603
A0601400100081604957001BARREDO, ELIZABETH OMBAO                                 0502
B0601400360083036712001NEWONE INCORPORATED                                      1602
A0101414090000000399377***************************                              0502
A0101400730111432322015SHARON ALIBO                                             0501
A0101412630000004062086BANZUELA, ELEANOR ADORNA                                 0502
A0101412630000000045292***************                                          0501
A0101413310000002317886DELA ROSA, RAMIL MIRANDO OR                             10501
A0101413310000002317886ROPA, MIRACLE MEDINA                                    20500
B0101412920160062535001ASEC LAND INC.                                           1601
A0101407270162453493004CESAR GERARDO S. RAVELA JR.                              0502
A0101401090171195421001CONRADO T. VALIX                                         0502
A0101401090171201395001JOSE S. BLAS                                             0501
B0301400790000002301342MONTEVERDE II, GEORGE MENDEZ DBU GV & HH                11601
B0301400790000002301342MARKETING                                               21600
A0101401380000000792201HERRERA, OLIVER BAETIONG                                 0501
B0101413600000005524790SAKURA DIRECT SELLING CORPORATION                        1601
B3101400160221029706001SAN JOSE HOSPITAL AND MEDICAL CENTER INC                 1601
B3101400160221224862001JOYME ROCKSCAPES CORPORATION                             1602
A3101400450223352819001FARAON, RIZALINA OR                                     10502
A3101400450223352819001BELEN, RHODORA                                          20500
A3101400740000006349460SANTOS, MARIA TERESA DIMALALUAN                          0502
B1001400480000000133593DELUXE RANCH TRANSPORT CORPORATION                       1602
B1001400480000004097165SABAL HOSPITAL, INC.                                     1610
B1901400290261244374003ELIZABETH LOZANO AND GODOFREDO KATIGBAK                 11603
B1901400290261244374003FOR ARLIKA                                              21600
A1901400290261312691001MA. TERESA LUCELA MIRABEL OR                            10501
A1901400290261312691001JOEL CARDEL MIRABEL                                     20500
A1901400290261390520001JOEL PUNZALAN DIMAANO                                    0502
A0101406460000002331044CHUA, JACINTO SY DBU ALUFORM PR                          0502
A0101406460272552417001GO, JEAN SHERYL PUA                                      0503
B0101406620273017284001ACCENT MICRO TECHNOLOGIES, INC.                          1605
A0101411820000001356190NOLASCO, EMMANUEL MARTIN VILLAR                          0501
A0101400570281190382002******                                                   0502
A0101400570281453706002SHIRLEY CHEONG TEEHANKEE, M.D.                           0502
A0101400570281484005001ARANAS, JOSEPH ANTHONY MERCADO                           0502
B0501400200000004456902CBE ESTRADA PAWNSHOP, INC.                               1605
A2601400270000003259534FORTU, MERCY JOY DBU MJ UMIPIG                          10501
A2601400270000003259534POULTRY & AGRI SUPPLY                                   20500
A6601400120314612855001SUNDAY LAVIN JR OR IRIANA LAVIN                          0505
B0101402350321030821001OMNI SOLID SERVICES, INC.                                1605
A0101402060351216229001FRANCISCO F. GONZAGA                                     0502
A0101402060351595339001CARLOS, CORAZON ALIMARIO                                 0501
A0101409050000007511817TAGUBA, ANTENOR FUGABAN                                  0502
A0201400760000005710947CHUA, BERNARD ONG                                        0510
B0101402930381015075001KEYSTONE SOLUTIONS, INC.                                 1601
A0101402930381364974001GEOFFREY TSE WEI CHEN OR                                10501
A0101402930381364974001GAYNARDIA K. LAO                                        20500
A0101411660000004597220BONDOC, NARCISA NAVARRO                                  0502
A0101402770391217498030GONZALES, GEORGE GARCIA                                  0501
A0301400820000002692033ESCOBARTE, LUCIL C.                                      0501
A5501400120000002019158SUPERIO, MERLYN G. DBU DIAMOND                          10502
A5501400120000002019158MEMORIAL CARE SA                                        20500
A0101403030441660281001**********                                               0503
B0101403320471040565001HUMAN SHELTER REALTY CORPORATION                         1603
B0101409760474821100608**********                                               2002
A0101410140000001939900BOBARES, R DBU 3FJ CONSTRUCTION                          0502
A3801400170000000154185EVANGELISTA, BABY DAISY DBU                             10502
A3801400170000000154185R.D.E. BEAUTY CENTER                                    20500
A1901400160000005794905JEFFREY M PEREZ                                          0502
A1901400160491742078001TEOFITA P OLANGO OR                                     10501
A1901400160491742078001EDISON P OLANGO                                         20500
A1601400170000000421161GEORGIA SOFIA GIMENEZ-LUISTRO                           10505
A1601400170000000421161OR LUISITO B. LUISTRO                                   20500
B0101411400000004555799BF CORPORATION                                           1601
B0101403450000002975688**********                                               1605
B0101403450000006055858*                                                        1608
B0101404000551044718001EBRL INTERNET CAFE                                       1601
A0101404000551515186001JOSE, FRANCIS PARONG                                     0501
A0101404130601754700001BORCENA, ANA MARIEL TUMANG                               0501
A0101407720602161863003ROBERTO K. MACASAET OR                                  10502
A0101407720602161863003VIRGINIA M. RAFAEL                                      20500
A0101407720602363809001DR. MICHAEL SABALZA OR                                  10502
A0101407720602363809001DR. MA. JO ANN SABALZA                                  20500
A0101407720602398798001AVANCENA, MARIA CORAZON MONZON                           0501
B0101412180000001293061CP OPTICS, INC.                                          1605
A0101409920000005460771MEMBERS OF NATASHA, SHOECAT INC                         10501
A0101409920000005460771ALCANTARA, CORAZON R.                                   20500
A0101413570000004353957RAMEL H. OROZCO OR                                      10501
A0101413570000004353957NORA B. OROZCO                                          20500
A0101413570656057648082LAILA R. FERNANDEZ                                       0502
A0101414120000000875572REDESIL CONSTRUCTION                                     0502
A0101414120000005252831***************                                          0501
A0101406590000003007063ALMERIA, JANSEN BACANI                                   0501
A0101408240000000521862ALBARRACIN, MARIO MADAMBA OR                            10501
A0101408240000000521862MARY MAUREEN                                            20500
B2801400100712028150001SUBIC NEXUS TECHNOLOGIES INC.                            1603
B2801400100000003116656DIZON, JORDAN MANGALINO DBU OPTIMA                      11602
B2801400100000003116656MONEY EXCHANGE                                          21600
A2801400100712311102001CHARINA N. HIPOLITO                                      0501
A2801400230000002312447PAJELA, MARY JANE LABANDELO                             10503
A2801400230000002312447OR PAJELA, BENIGNO RAMOS                                20500
A4101400260812629092001ELLEN C. BUCAO                                           0502
A4101400390000003346103YABUT, ANNALIZA GAMBOA DBU AGY                           0502
A4101400420814520766012SUSAN B. MALBOG                                          0501
A4101400550000000900350SANTOSIDAD AUTO SUPPLY                                   0503
A0101404840851410953062RUIZ, MARIEVIC                                           0501
A0101404840851478374038EVANGELINE UMALI                                         0502
A0101404840851481664012HITOSHI INOUE                                            0501
B0101406750000005608453LOREDO, ELMER DE LUNA                                    1601
A0101406750000007786803GUEVARRA, JETT AZOR                                      0501
B0101406750852026021001GLOVISION CREDIT COOPERATIVE                             1602
A0101406750000004641678ENDSOFTTECH WEB SOLUTIONS                                0501
A0101406750000002040271EVANGELISTA, JOSEFINA MALLARI                            0503
A0101413860000002314249DE LEON, ANGELITA VELASQUEZ                              0501
B0601400230891028118001D.M. AUTO SUPPLY                                         1605
B1301400920002901010002**********                                               2002
B1301400920920292000022**********                                               2001
