B0101404130601821100608**********                                               2020
B0101405070861821100608**********                                               2001
A0101409050000014544066SABADO, TWEETIE JR DACERA                                0501
A0101414090000014209053SOLIS, ARIEL C DBU A.C. SOLIS                           10501
A0101414090000014209053BUILDERS                                                20500
A0101400440161520766083ROWENA B. DAVID                                          0501
B3101400870000004767751MITSUBISHI MOTORS PHILIPPINES CORP                       1604
B1601400170000000036182FIRST INNER TRADE CREDIT                                11601
B1601400170000000036182CORPORATION                                             21600
A0101403580511583180001SO, ARMINA OR SO, RODRIGO OR                            10501
A0101403580511583180001MANGALILE, ARIZA                                        20500
A0101410300663082423001LICUP, DINAH DALUSONG                                    0501
A0101400860000005313104**********                                               0503
A0101400860000010683253LAGRIMAS,GINENA O DBU ZED                               10501
A0101400860000010683253ALBERT PRINTING                                         20500
A0101400860011401779001***********                                              0501
A0101400860000008319313******                                                   0505
A0101401250021695381001******                                                   0501
A0101411370000010060656GOPALAKRISHNAN, ARUN BABU                                0501
B0101400150061010833001VELCA TRAVEL & TOURS, INC.                               1601
B0101400150061014673001COFFEE MASTERS, INC.                                     1610
B0101400150061047577001A. CHAN RESORTS & ENTERTAINMENT COR                      1602
B0101405810072030630001***************                                          1603
A0101405810000002314632GO, SONIA LALLAVE                                        0501
A0601400360000014579054SOMERA, JULIET SOMERA                                    0501
A0601400360000014579098LICHTENSTEIN, MICHELLE .                                 0501
B0601400360000000978936THE MEDICAL CITY CLARK, INC.                             1615
A0601400360000007539793SUAREZ, RAMON JOSE FLORES OR                            10502
A0601400360000007539793SUAREZ, GLORIA D                                        20500
A0601400360083693423001CALADIAO, CHERYL ARCE                                    0501
A0101413730000000144625*******************                                      0501
A0101413730000002289592*****                                                    0501
A0101414090000008926996PEYRA, CRISTINA CHAVEZ                                   0502
A0101410850000000005778****                                                     0501
A0101410850000003102125TAN, A DBU ALRIC TRADING AND                            10501
A0101410850000003102125IMPORTER                                                20500
A0101410850000000472417COLIYAT, R DBU RMJC'S WAREHOUSE                          0502
B0101410850109063583001BRITISH ROLLMAKERS (CHINA) LTD.                          1601
B0101400730111030850001SOLID MANILA CORPORATION                                 1601
A0101413150000011778171**********                                               0504
A0101412630000004062086BANZUELA, ELEANOR ADORNA                                 0502
A0101401830141433370001ARNALDO P. SERRANO                                       0502
A5001400170000000214002REQUINA, ORWINO ATAY                                     0502
A0101400440000004901553BISMAR, MICHEL ESCOBER                                   0501
B0101400440161007221001ILA EXPRESS HAULER                                       1602
A0101400440161027568001GARB CLOTHING COLLECTION                                 0501
A0101400440161027568001GARB CLOTHING COLLECTION                                 0502
B0101407270000000830631EERA MARKETING                                           1602
A0101401090000014354800REBURIANO, RHIA ADRIENNE RIVERA                          0501
A0101401090000014590286JULIAN, JOMELL CORRAL & MANICO,                         10501
A0101401090000014590286PAMELA ROSE                                             20500
A0101401090171200236001LORETO S. SAUZ                                           0501
A0101401090171669483001REGINA C. YAO                                            0501
A0301400530000003088162LAAB, REGINA DONQUE                                      0501
B0301400530000012665162MD NABUNTURAN AGRI-VENTURES, INC.                        1605
B0301400530000012665180MD RIO VISTA AGRI-VENTURES, INC.                         1605
B0301400530000012665173MD DAVAO AGRI-VENTURES, INC.                             1610
B0301400530000012665151MD PANABO AGRI-VENTURES, INC.                            1605
B0301400530000012665191MD ISALON ORGANIC BANANA AGRI-VENTU                      1605
B0301400530000006477310ST. THOMAS MORE SCHOOL OF LAW                           11605
B0301400530000006477310AND BUSINESS INC                                        21600
A0301400790000000435852NG, RANDY CO                                             0501
A0301400790000006269823MONTEVERDE, CHARMAINE MONINA M.                          0501
A0301400950000002115242**********                                               0501
A3101400160000006520032LLANES, MARGERY APOLEGA                                  0501
B3101400160000010010763MOTORCENTRAL NCR CORPORATION                             1605
B3101400160221284706001INSTITUTE FOR FOUNDATIONAL                              11605
B3101400160221284706001LEARNING, INC.                                          21600
A3101400160221557336001JOSELITO M GUEVARRA                                      0504
B3101400740000000013958STARWORLD CORPORATION                                    1601
A3101400740224623513001SERON, DRA. VENUS MARIE OR                              10501
A3101400740224623513001SERON JR., MARCIAL                                      20500
A3101400870000002328092AGUIRRE, LALAINE GASGA                                   0501
A3101400870225478374002BODORAYA, RUZIEL RAMOS                                   0502
A1001400350233528399003KO, JOSE NELSON AND                                     10502
A1001400350233528399003KO, CHARMAINE                                           20500
A1001400480000014570904CAPEGSAN, PEDRO MODESTO OR                              10501
A1001400480000014570904CAPEGSAN, CINDY S                                       20500
B1001400480000004097132EAGLE EQUIPMENT COMPANY, INCORPORATED                    1602
A1301400470252445386001DESIREE G. AGUSTIN                                       0502
A1901400290000011244527MAULLION, ROMEL C DBU JEWEL                             10501
A1901400290000011244527ORGANIC BEAUTY PRODUCTS                                 20500
A1901400290261057642002CUENCA, NINA ANGELINA TANCHANCO                         10502
A1901400290261057642002DBU CUENCA JEWELRY                                      20500
A1901400290261432900001JULIUS PIO AFRICA RANA OR                               10501
A1901400290261432900001CHARMAINE DE GUZMAN RANA                                20500
A1901400290000003252720DIVINA GINA SANGALANG DE CASTRO                          0501
A0101406620273403717001SERRANO, ROSALIE DE JESUS                                0501
A0101408660274346120001SHI, FENG LIAN CHEN                                      0502
A0101410980275091760168MICHELLE CO OR CHESTER ALLAN CO                          0502
A0101410980000000171931MICHELLE C. CO OR                                       10502
A0101410980000000171931CHESTER ALLAN T.                                        20500
B0101411110276046529088BOOK MEDIA PRESS INC.                                    1610
A0101400570281491930001RODRIGUEZ, SHAUN DEDICATORIA                             0501
A0101411240000005136458PAMITTAN, JAICE LEMUEL OBISPO D                          0502
B2601400270000000020680MEGABUCKS CONSTRUCTION &  DEVELOPMENT                   11601
B2601400270000000020680CORP                                                    21600
A6601400120000009613674GALVEZ, GENARO CASTILLO                                  0502
A6601400120314087821001APELO, ALMIRA TOBES                                      0501
A6601400120314613974002UY, CESAR LIM                                            0503
A6601400120314617688001CARANZO JR., EXUPERANCIO OR                             10502
A6601400120314617688001CARANZO, MARY                                           20500
B0101402350000000655390TIA, CHARISSA REYES AND                                 11601
B0101402350000000655390ANG, MONICA CHOY                                        21600
A0101405650322041571001EUGENE D. MANIQUIZ                                       0502
A0101402510341318724004SEGUNDINA Y. CASTRO                                      0502
A0101402060351039467001LAY BARE WAXING SALON                                    0502
A0101402060351039467002LAY BARE WAXING SALON                                    0502
A0101402060351039467004LAY BARE WAXING SALON                                    0502
A0101402060000000358770LAY BARE WAXING SALON                                    0502
A0101402060351214812002BANTIGUE, WILLIAM OR ANGELITA                           10501
A0101402060351214812002OR JOHN PAUL OR                                         20500
A0101402060351365104002VILLANUEVA, ELSA ROMEA                                   0501
A0101402060351409718001SUBIJANO, SHERWIN BALTAZAR                               0503
A0101409050000008491061BALBUENA, JOYCE FELICE PASTORFI                          0502
A0101409050000014568193DY, ALDEN VINCENT SERVIDAD                               0501
A0101409050000014570500PARAYNO, RENATO FERNANDEZ                                0501
A0201400920375609447001RAMIRO, MARIA ARCELI AVANZADO                            0503
A0201400920000006792034LIM, ROSARIO TAN                                         0501
A0201400890000007668480CABAHUG, PROSPERO IMBONG                                 0505
A0101402930000007030913PISON, MARIA TERESA PENA                                 0502
A0101402930381423656007AGUNDAY, ARMESH N                                        0501
A0101402930381423656013DUMLAO, RHONDEE E                                        0501
A0101402930381423656014LOMBOY, ANA MARIE C                                      0501
A0101402930381423656019MENDOZA, AGNES L                                         0501
A0101402930381423656020VILLAMIN, KATHLEEN M                                     0501
A0101415350000005085143LANDOY, SUSAN JAVELLANA                                  0501
A0101402770391300107001REV. FR. ALBERT THOMAS B. TAN                            0501
A0101402770391319133001ALMIN, WENDA RESUELLO                                    0502
A0101405490000002141031GUNDAO, CIPRIANO D                                       0501
A0301400820000007373033FUENTES, ELVIE D.                                        0502
A2401400180000014420554RADI, NASIB SUMALI DBU NASIB RA                          0501
B2401400180411040003003BRIGADA MASS MEDIA CORPORATION                           1630
B2401400180000000073670BRIGADA HEALTHLINE CORP.                                 1630
B2401400180411276067001GAISANO DADIANGAS, INC.                                  1610
B1201400150421032018001DAP-AYAN TI JOHN HAY EMPLOYEES CREDIT                   11603
B1201400150421032018001COOP.                                                   21600
B1201400150000000034379GOSHEN LAND CAPITAL INC.                                 1610
A1201400150421351199003DALANGIN, MIRIAM AQUINO                                  0502
A0901400220000000888002**********                                               0501
A0901400220000000012299GAYON, MARINA TACHADO                                    0502
A0901400220432478374002EVELYN ALGA DEMECILLO                                    0501
A0101406330472027958001A. ANOLIN ENTERPRISES                                    0504
A0101406330000000162616LAND OF THE PROMISE TRUCKING                            10505
A0101406330000000162616SERVICES                                                20500
B0101406330000000432820SIVI INTERNATIONAL TRADING INCORPORATED                  1603
A0101410140475478374005ORENSE, EVELYN                                           0501
A0501400170481252599002GOYENA, CRISTETA LORIA                                   0501
A1401400110000005526843CALAYCAY, RAINELDA GUERRERO                              0501
B0101403580511005216001EXCHANGE EQUITY CORPORATION                              1601
A0101403580511150707001ERNST H. BEHRENS OR                                     10501
A0101403580511150707001BELLA BEHRENS                                           20500
B0101405940512030850002SOLID MANILA CORPORATION                                 1601
B0101411790000003252553THE HIMALAYA DRUG COMPANY                                1602
A0101412050000013784073HSU, TZU-HSIEN                                           0501
A0101403450521282364001**********                                               0502
A2201400250561026927001FILTERED SURE                                           10502
A2201400250561026927001PURIFIED DRINKING WATER                                 20500
A0101410690000003027681ISIDORO, REGINA DE GUZMAN                                0502
A0101407720602298846008LAMBERTO U. OCAMPO OR                                   10501
A0101407720602298846008ANNABELLE SARMIE                                        20500
A0101412180000013805266LI, JIAN                                                 0501
A0101409890000006813129VILLAR, RUSSELBERT YUZON                                 0501
A0101407690000010774473DIEL, AMOR DALAYAP                                       0503
A0101407690652034151001D' ABET JUNK SHOP                                        0502
A0101407690652455653001PEREZ, EDGARDO OR PERLA                                  0501
A0101407690000000243810PAGUIO, ANA CARDENAS                                     0502
B0101411530000002641790PETITE GRAINE PRE SCHOOL INC                             1603
A0101413990000014594400FABITO, MARIA CRISTINA MAMING                            0501
B0101413990000014506015KENJA FINE CLOTHING SHOP                                 1601
A0101413990000003141157**********                                               0505
A0101413990657068745001CLORES, RICARDO R. DBU                                  10505
A0101413990657068745001SAMUEL JOSEPH STORE                                     20500
B01014065906626875010017SEVENTY7 INC.                                           1601
B1301400210682016750001JFL AGRI VENTURE SUPPLIES                                1604
B13014002100000081738711960 METAL INDUSTRIES INC.                               1601
A1301400210682429487001ATTY. LIAM PAGDANGANAN OR                               10505
A1301400210682429487001 ATTY. JOSEPHINE                                        20500
A1301400210682435928001EMMANUEL DC RAMOS                                        0501
A1301400340683561330001GARCIA, DEXTER SILVERIO                                  0501
A1301400340000005264973MARCOS, MARVIN CUALA                                     0502
A1301400500000004093112*************                                            0501
A0101408240000003955408MESINA, OLIVER ROLDAN                                    0501
A0101408240000013296681FLORIDA, REGINALD ATADERO                                0502
B0101408240711033951001MILCOR MANAGEMENT CORPORATION                            1602
B0101408240000002419941ALFONSO GAS & FUEL STATION, INC.                         1602
A2801400100712676952001ROSALINDA E. LICO                                        0501
A4101400260812469303001GUIA, LEAH SCHOFIELD OR                                 10501
A4101400260812469303001GUIA, SAMUEL IBA                                        20500
A4101400420000009270479TALENJALE, EDWIN NAVIA                                   0501
A0101412340000009839201JUSTIN CLAIRE S. LIM                                     0502
A0101404840000002327904ADVINCULA, MARY CHRISTINE REYES                          0501
B0101404840851013980002VIC IMPERIAL APPLIANCE CORP.                             1601
A0101406750852319162001TANGKEKO, NOEL S. OR                                    10501
A0101406750852319162001TANGKEKO, JOSEPHINE A.                                  20500
A0101405070000005619423CUEVAS, LIBRALYN CATUBIG                                 0503
A0601400230000013259473MICHAEL ANTHONY BELTRAN                                  0505
A0601400230000005510190LACAP, ROANE MARIE OCAMPO OR                            10501
A0601400230000005510190LACAP, KEVIN PAUL A                                     20500
A0601400230000000452782GOZUN, R-JAY RAMOS                                      10510
A0601400230000000452782OR GOZUN, MYRNA                                         20500
