A3001400130000000931162VOCALES, MYRA SERENO                                     0501
A3001400130000000931362LABADO, FREDELINO VERE                                   0502
A1101400120000000992394REYES, CRISTINA MARIE OCASLA                             0502
A0801400160000001031423PROVIDO JR., RICARDO PALMARES                            0501
A5501400120000001122074GARCIA, MARIENEL TAMAYO                                  0501
A1101400120000001547462QUEBEC, ZAIRA MAE SELESTE OLAES                          0501
A3001400130230094280001DOYSABAS, CHERYL JO                                      0501
A1001400190231273158001PACHECO, ESTRELLA S.                                     0502
A1001400190231478374012FARINAS, EVA MAE CENTO                                   0501
A1001400190231478374116ESTRELLITA E. BERMUDEZ                                   0502
A0801400160311298552119EDNA A. FADERUGAO                                        0502
A0801400160311478374053JONNA O. ALCAIN                                          0501
A0801400160311478374063SUBALDO, ROSELLA VILLANUEVA                              0502
A0801400160311478374092MALLORCA, ROSEMARIE A.                                   0501
A1101400120313478374067COSTIMIANO, LUCY D.                                      0501
A2601400270000000561966NELIA A. CORTEZ OR MARVIN T.                            10502
A0201400890376597888088ONG, LUCY CHOACHUY OR RODERICK                          10501
A2601400270000000561966CORTEZ                                                  20500
A0201400890376597888088RYAN ONG OR RICH                                        20500
B0201400760000000223087THE QUEEN CITY FOOD CHAIN, INC.                          1601
B0201400760000000223098CHOCO HILL FOOD CHAIN, INC.                              1601
B0801400160311014376002PENBANK, INC.(A PRIVATE DEVELOPMENT BANK                 1602
B0201400760374047828001MTO TECHNOTRENDS INC.                                    1601
B0501400170481015881001TOYOTA DAGUPAN INC.-2                                    1610
B0501400170481015881003TDG- INSURANCE                                           1610
