A0101405810000010446909LOAYON, ROWENA MAGTIRA                                   0501
B2401400180411026932003NOTRE DAME BUSINESS RESOURCE CENTER                     11601
B2401400180411026932003MTTP                                                    21600
A0101412500000001146758MARIANO, RICHEL PELIGRO                                  0501
B1101400120000006186872COASTALVIEW FOODS CORPORATION                            1602
A1101400120313543913001PALANCA, JUANITO DY OR                                  10501
A1101400120313543913001PALANCA, JULITA YU                                      20500
A0101408400394042747001CHARIS GLASSBLOWING PRODUCT                              0502
A2401400180000002146287BAUTISTA, WEDELIZA DIOQUINO                              0502
B2401400180411035801003\1 CENTURY SMOKED FISH CORP.                             1605
B2401400180411040003003BRIGADA MASS MEDIA CORPORATION                           1610
A2401400180411042912088QUISHA FOODS                                             0501
A2401400180411744426001ENGCONG, JAY CUEVAS                                      0501
A0501400170481297225002TACIANA M CAYABYAB                                       0502
A0101406750000000480631PANGANIBAN, MANNY AVANCENA                               0501
A0101406750000004641690ALDEMITA, PAULO ANTIN VALERIANO                          0501
A0101406750852478374096MARILOU M TERANA                                         0502
A0101400860000005313046**********                                               0502
A0101401250000004374710**********                                               0502
B0101400150061047569001JACKBILT INDUSTRIES, INCORPORATED                        1603
B0101400150061542944001COOLMINE HOLDING INC.                                    1602
B0101405810072067001001ZAICHUN TRADING CORP.                                    1601
B0101405810072573152001COMEBUY ENTERPRISES CORP.                                1602
A0601400100081742493001SANTIAGO, FELICISIMO VALENCIA                            0502
A0601400100081765431001CASTILLO, MADELYN MARIANO                                0501
A0101413280000000312621ALVIN D. SABILE                                          0501
B0101414090000002244782A&A KNOWLEDGE BASE RESEARCH CONSULTANCY                 11602
B0101414090000002244782TRAINING INC.                                           21600
B0101414090108821200608**********                                               2002
A0101400730000000833192GLEN T. NIOKO                                            0502
A0101400730000004948592MEMBERS OF NATASHA(SHOECAT,INC)                         10501
A0101400730000004948592GLORIA C. GLORIA                                        20500
A0101400730111334903033KERWYN D. GARCIA                                         0501
A0101406040000008915471********                                                 0503
A7201400170000003774312SECUYA, LYNFEL ALBURO                                    0501
A0101400440000000060335LYNDEE ANN D. SIA                                        0501
A0101400440161478374006JOSEPHINE R. VEGA                                        0501
A0101400440161525001107ALMA B. JIMENO                                           0501
A0101400440161525001125MAY M. RAMOS                                             0501
A0101400440161591337001JENESSEY A. RANCES OR                                   10502
A0101400440161591337001JESSIE O. RANCES                                        20500
A0101401090000001618800ESCOBAR, MARIA LOURDES OR                               10502
A0101401090000001618800PROCESO OR LEONILA                                      20500
A0101401090000001618931ESCOBAR, MARIA LOURDES B.                                0502
A0101401090171198347002ANGELINA OR JOSELITO PAYURAN                             0501
A0101401090000000993411UY, ROBERTO NICOLAS                                      0501
A0101401090171669483001REGINA C. YAO                                            0501
A0301400530000003087363LEGASPINO, HERMENEGILDA AARON                            0501
A0301400660000000048406GEORGE T. BAUTISTA AND AMELITA                          10501
A0301400660000000048406M. BAUTISTA                                             20500
B0301400790195053525001EMCELI PROPERTY HOLDINGS CORP                            1601
A0101401380000006542452RESULTA, ANGELICA ARELLANO                               0501
A0101410720000006239892MACAM, JASMINE ANGELICA VILLANU                          0502
B0101410720653038296001CREATIVE DESIGNLABS INC.                                 1602
A0101412500000006708336TAN, JEROME MONTIERO                                     0502
B0101412500000000041749UNITED DOCTORS MEDICAL CENTER, INC.                      1620
A0101412500000000041647CHAN, EDITHA GO DBU TOP EDGE                            10503
A0101412500000000041647GARMENTS                                                20500
A0101412500000003289816RODRIGUEZ, RACHEL ROQUE                                  0502
B0101412500214821100608**********                                               2002
B3101400740224041181001SHIN HEUNG ELECTRO-DIGITAL INC.                          1603
B3001400130000000067241BUTUAN BRAKE CENTER SALES CORPORATION                    1610
B3001400130000006004728AMPAYON AGRO-INDUSTRIAL CORPORATION                      1610
A3001400130000006145262DELICANO, MECHIEL                                        0501
B1001400190231274999001CHRIST'S COMMISSION FOUNDATION,                          1610
A1001400190231478374057MARIA LOURDES LIMBAGA                                    0501
A1001400190231478374083CHIONG, MARIVIC P.                                       0501
A1001400190231520766085OBSIOMA, MADELYN A.                                      0501
A1001400190000000124730GORME, MARIANITA L.                                      0501
A1001400350000000017165MEN DBU A&L MARKETING SOLUTIONS                          0501
A1301400470000005394390ROLAND M. STO. DOMINGO                                   0502
A1301400470252503090002ERBITO B. TIONGSON OR                                   10504
A1301400470252503090002CHRISTINE S. TIONGSON                                   20500
A1301400760253066858001LEXTER D. EDIZON DBU GOLDEN                             10501
A1301400760253066858001HULL TRADING                                            20500
A1301400760253066862001VICTOR S. DEL ROSARIO III DBU                           10501
A1301400760253066862001MILESTONE AGGREGATES                                    20500
B1901400290261033408001FEEDS EDITION DISTRIBUTION SYSTEMS INC.                  1610
B1901400290000001363097SILANGAN POULTRY FARM, INC.                              1603
A1901400290000001975380HERNANDEZ, ALILY SAMSON DBU                             10501
A1901400290000001975380BAKE IT UP BAKING NEED                                  20500
A1901400290261244339001RUDY BARRETO MANGUIAT OR                                10503
A1901400290261244339001BENITO BARRETO MANGUIAT                                 20500
A1901400290261488341075DR. HELEN BAUTISTA DY                                    0502
A1901400290261493025047ROWENA G BAWAR                                           0501
A1901400290261707123001MARLYN LABAY REYES                                       0501
A0101401670271217175002TERESITA OLIVEROS OR                                    10503
A0101401670271217175002GREGORIO OLIVEROS                                       20500
A0101410980000002987075GEORGE GO OR ELISA NGO                                   0502
A0801400160000002287578************                                             0501
A1101400120000003981124CO, JULIO CHAN DBU THE BEE                              10501
A1101400120000003981124TRADING OR CO, NELY ANG                                 20500
A3401400280000003309191CAPUNONG, ROMULO DELCANO                                 0502
B0101405650000000772721PREMIERE COMMUNITY PARTNERS, INC.                        1610
B0101405650000000772743BF FEDERATION OF HOMEOWNERS                             11602
B0101405650000000772743ASSOCIATION INC.                                        21600
A0101405650322388029001REYES, MARIA CRISTINA V. OR MA.                         10501
A0101405650322388029001SOPHIA OR JOSE G                                        20500
A0101402060351217440016ELIZABETH STEPHANIE R. CARLOS                            0502
A0101402060351367081001CLAVECILLAS, ELIZABETH C. &/OR                          10502
A0101402060351367081001CLAVECILLAS, REY                                        20500
A0101409050000008087690CRUZ, AIDA P. OR                                        10502
A0101409050000008087690CRUZ, OCTAVIO JR. V.                                    20500
A0201400760000001612891TOLEDO DEVELOPMENT SERVICES                              0504
A0101402930381205667001SALVADOR B. FRANCO OR                                   10504
A0101402930381205667001JOCELYN J. YAMBAO                                       20500
A0101408370382410095001DR. EDNA C. BANTA                                        0505
A0101408790000010422350AGUIRRE, MARIA LOURDES G.                                0501
A0101408790000010422510ALBAR, PAMELA MAY L.                                     0501
A0101408790000010422583ALCANTARA, ELIZABETH P.                                  0501
A0101408790000010422652ALVAREZ, RICHARD A.                                      0501
A0101408790000010422710ARADA, SAMUEL B.                                         0501
A0101408790000010422776AUSTRIA, THEA MARIA E.                                   0501
A0101408790000010422812BARCELLANO, EDGAR V.                                     0501
A0101408790000010422856BONOAN, EDUARDO P.                                       0501
A0101408790000010422890BUCAG, FELIPE B.                                         0501
A0101408790000010422936CABRERA, RUSSER T.                                       0501
A0101408790000010422970CRUZ, JESTER J.                                          0501
A0101408790000010423013DE GALA, LEONITO C.                                      0501
A0101408790000010423057DELA REA, RYAN ARMANDO MIGUEL                           10501
A0101408790000010423057C.                                                      20500
A0101408790000010423080FELIX, MARIA TERESA S.                                   0501
A0101408790000010423126FERRO, ANNA MARIA RHODORA V.                             0501
A0101408790000010423160LIZARONDO, LYN A.                                        0501
A0101408790000010423193LOMANGAYA, ARIEL O.                                      0501
A0101408790000010423228MENDOZA, JEFFREY ORVEN V.                                0501
A0101408790000010423251ORTIZ, CARLO JOHN M.                                     0501
A0101408790000010423280REAL, JULIETA D.                                         0501
A0101408790000010423319SANCHEZ, CHRISTOPHER L.                                  0501
A0101408790000010423331VILLACORTA III, BENJAMIN M.                              0501
A0101408790000010423353VITUG, JOSELITO D.                                       0501
A0101408790000008159182RECAIDO, MARY HAZEL FAMPULME                             0501
A0101402770391355762049DENIEGA, WILLIAM DELA CRUZ                               0501
A0101402770391357751002ROBERTO OR DOLORES OR REIGIN                            10501
A0101402770391357751002ROYCE LEONGSON                                          20500
A0101408400394036671001CAIT FURNITURE SHOP                                      0502
A0101408400000000403778DELFIN, NERIO DELENA                                     0501
A0101408950396565472001DEBBIE GUANI DY MEGUIZO OR                              10503
A0101408950396565472001DONALD JUDE UY M                                        20500
A0101409180000003780318LORENZO L. ARCA JR.                                      0501
A0101409180000003882439KENNETH PATRICK C. UY                                    0501
A0901400220000003069043**********                                               0503
B0101403030441011866003**********                                               1610
A0101403320000000522052*****                                                    0502
A0101403320000010492247FONTE JR., ASCENCION GALON OR                           10501
A0101403320000010492247FONTE, JULIETA G.                                       20500
A0101403320471478374055BENITO OR REYZEL ESLABA                                  0501
A0501400170481365467003CALLANTA, JOHN SORIANO                                   0505
A3801400170000002302783GANIR JR., ANGEL PANGALIMAN                              0501
A1401400110000003988996CARCIDO, JEFFERSON CU                                    0501
A1601400170000000497592MARLYN A. RELINGADO                                      0501
A0101407430503345479001JOSE R. CHUA JR.                                         0501
A0101403580000007265296CASTRO, FERNANDO CASTRO                                  0501
B0101403580511015363081MEC - SUNTRUST PARKVIEW                                  1602
B0101403580511598100001ASIAN INSTITUTE OF IMMUNOLOGY INC.                       1612
B0101405940512005320001BASK DISTRIBUTORS, INC.                                  1603
A0101408530000000035925CASTRILLO, MILISA CAOIBES                                0501
A0101408530000008159451IRENE F. PALACOL                                         0502
A0101411790000010491062LIBATIQUE, CRISTINA RENACIA                              0501
A0101403450521240346001**********                                               0502
A0101403610000010489160MARQUEZ, JERALD FAJARDO OR                              10501
A0101403610000010489160MARQUEZ, KATRINA AINA                                   20500
B0101403610531046549001BIG APPLE PLASTIC PACKAGING INC.                         1602
A2201400250000004916132ATIENZA, LEANDRO RODEL VELASQUE                          0501
A2201400250561478374025LUZMINDA M. GACILAN                                     10501
A2201400250561478374025MEMBERS OF NATASHA                                      20500
A0101410690000008568163CHAVEZ JR., XAVIER CAYAO                                 0501
A0101410690000004969920OQUENDO, MARY CHRISTINE JACOB                            0501
A0101407720000000112089RAMOS, JENNIFER GALAPIN                                  0501
A0101404260000003498482EDNA S PLAN JANITORIAL SERVICES                          0501
A0101404260000003498664IGNACIO, ADELAIDA SUNGA DBU                             10503
A0101404260000003498664KIDDIES KITCHENETTE                                     20500
A0101408240000010492327CASTROMAYOR, PHILIP HISUG                                0501
A4101400260812386293001DR. LORETA B. ZOLETA                                     0501
A4101400260812478374058DHIESEL M. SAULOG                                        0502
A4101400390000000975173NOAH'S ARK MANPOWER SERVICES                             0505
A4101400390000000975180BISDA, JANETTE ENRIQUEZ                                  0505
B4101400420814038765001EG&G CONSTRUCTION SUPPLY                                 1602
A4101400420000000710223ROMERO, MARICRIS BAUTISTA                                0501
A4101400550000000081605MAXILOM, SWEETHEART FILNIL PERA                          0503
A0101412340000003438544CHERMAINE PORTIA L. ALCALDE                              0501
B0101404840851039541001CBC INTEGRATED SCHOOL, INC.                              1603
A0101404840851046725021HELEN GELIZON                                            0502
A0101404840000005820479YOLANDA W. GAGAN                                         0501
A0101405070861527090001RYU, KYOUNG HWA                                          0501
A0601400230891254779001MEDIADORA OR JIMMY ANTHONY                               0501
