F0101409180397045175001NUFFNANG PHILIPPINES INC.                                2605CKR
F1701400230693065711002BGMMCM FAST FASHION, INC.                                2601CK1
F0101401830141024770001METROPOLITAN ACADEMY OF MANILA                          12601CKR
F0101401830141024770001INC.                                                    22600CKR
F0301400110191047580122MEGA DURIAN MOBILE GROUP, INC.                           2602CKR
F0301400110191047580168MEGA DURIAN MOBILE GROUP, INC.                           2602CKR
F0301400110191059510006ZOOFARI GROUP INC.                                       2601CKR
F0301400110191059510007ZOOFARI GROUP INC.                                       2601CKR
F0101401670271062360001ANGLINYA-LINYA ENTERPISES CORP                           2602CK1
F0301400240401025953008ECE MARKETING                                            2605CKR
F3101400580452455447001QUEZCA CORPORATION                                       2602CKO
F1301400210682033690002FELIZA JAZZ CORPORATION                                  2602CKO
F1701400230000002762605BGMMCM FAST FASHION, INC.                                2601CK1
F1701400230693714245001VISIONAIRE, INC.                                         2505CKO
