B1001400350233821100608**********                                               2006
A0101401090000015091860MILO, ANNE MARIE MAYO                                    0501
B6601400120000005195973TANGHAN CORPORATION                                      1602
B0101413020209821100608**********                                               2003
A3001400130000001261249BANJAO, JENELYN LARA                                     0501
A6601400120314043084001SOLID M CONSTRUCTION                                     0504
B5501400120000012653242JAVELLANA, LEMUEL MASA DBU EULAP SOFTWAR                11602
B5501400120000012653242E SOLUTIONS                                             21600
A5501400120000002019089VILLORENTE, KRISTINE PRADO DBU                          10505
A5501400120000002019089GRV MARKETING                                           20500
A5501400120000002348256VILLORENTE, KRISTINE PRADO                               0505
A0101412890000012474203MORENO,FIDES DBU SILK AESTHETIC                         10503
A0101412890000012474203SKIN AND BODY CLINIC                                    20500
A0101410140000000499065MORDIDO, LYN ROBELLES                                    0502
A0101410140000011288823LANORIAS, JOVENNES D. DBU JDL B                          0501
B0101412760000000032004TIGER EYES SECURITY SOLUTION INC.                        1602
A0101412340000001017816MARANAN, JENNIFER GONZALES                               0501
A0101400860000010683253LAGRIMAS,GINENA O DBU ZED                               10502
A0101400860000010683253ALBERT PRINTING                                         20500
A0101401250000000441085LINGANAY, GYSSELLE LAURICE U.                            0502
A0101400150000002394658NAVAL, RICHARD CARO                                      0501
A0101400150000004090333ABALON, JAYSON BALANDAY                                  0502
A0101400150000015103210FRANCISCO JR., VIRGILIO OR                              10501
A0101400150000015103210FRANCISCO, PATRICK VERNON                               20500
B0101400150061016942006ASIA PACIFIC EXPRESS CORPORATION                         1605
A0101400150061038536173CHESTER EBUEN                                            0501
B0101400150061044906001G-GATEWAY MOBILE PHILIPPINES INC.                        1601
A0101400150061338964002CAROLYN M. ATIDO                                         0501
A0101400150061372223001RAFAEL ANTONIO R. MONTILLA                               0501
A0601400100081478374009JOWELL MIRANDA                                           0502
A0601400100081641355001HOSSACK, MA. OLIVIA TORRES                               0502
B0101413730104060378002**                                                       1605
B0101413730104060379002***                                                      1605
B0101410560110045481001JESUS REIGNS MINISTRIES (JRM)                           11601
B0101410560110045481001FOUNDATION, INC.                                        21600
A0101410560000000020162EDNA S. CAMBARIJAN                                       0501
A0101406040000008915471********                                                 0503
A0101401830141395937002CARLOS, DIA KRISTINE JAVIER                              0502
A0101401830141395937002CARLOS, DIA KRISTINE JAVIER OR                          10502
A0101401830141395937002CARLOS, MELVIN ESPIRITU                                 20500
A7201400170000007185842SARMIENTO, MARY JOAN BRANZUELA                           0502
A7201400170000011454345CHIO, JESIEL LACIERDA OR                                10501
A7201400170000011454345CHIO, DAVID ABAO                                        20500
A0101407270000013577825OCAMPO, RAYMUND BENEDICT                                 0501
B0101407270162036333001DONA ALEJANDRA, INC.                                     1620
B0101407270162044107002KNOXPORT, INC.                                           1610
B0101407270162052125002DELISCENTS, INC.                                         1610
A0101407270162496878002ABIGAIL SULVITA                                          0502
A0101401090171196070001NICOLAS J. DE JESUS                                      0501
A0101401090171196220003DR. IMELDA S. DAVID                                      0505
A0101401090171198420002GIL A. CAUYAN                                            0501
A0301400660194734141001ALCEBAR, JONATHAN PANTINOPLE                             0505
A0101401380000010190353PAULINO, ENRIQUE DBU KAKA RESTO                         10502
A0101401380000010190353BAR OR PAULINO,                                         20500
A0101412500000003289992****                                                     0501
A0101412500214331365001CRUZ, WYNALDI TABLIZO                                    0501
A0101413600000009535344EDMUND DANTE M. BAUTISTA                                 0501
B010141360000000844249921ST CENTURY MANPOWER                                   11605
B0101413600000008442499RESOURCES, INC.                                         21600
A3101400160000015196684LANCETA, REMIGIO MANAIG DBU                             10501
A3101400160000015196684JLMP TRUCKING                                           20500
A3101400160221533272001NICOLAS S. MOLON                                         0502
A3001400130000005446340BALANGA, MARIO FERNANDEZ                                 0501
A3001400130000008264784SANCHEZ, AGNES M.                                        0503
B1001400190231022959001ORORAMA SUPERCENTER INC.                                 1601
A1001400190231478374006LIBRADO, HAZEL T.                                        0501
A1001400190000002170769JUGAN, NOUE MALOLOT                                      0501
B1001400350000007920876PEARSON, PILARCITA ROA AND  HEQUILAN,                   11602
B1001400350000007920876ELVIE CORTEZ                                            21600
A1001400480000000041501SALVANA, RODOLFO L OR SALVANA,                          10505
A1001400480000000041501ELIZABETH C                                             20500
A1001400480000005356010SEVALLOS-PESQUERA, AILYN TECSON                          0501
A1001400480000010131481SALVADOR, LAVERN UMEREZ OR                              10502
A1001400480000010131481SALVADOR, JOHN P                                        20500
A1901400290000015194626RICO MAGNAYE MARALIT                                     0501
A1901400290261493025096DR CELESTE TOLENTINO                                     0501
A1901400290261709396001GRACE AGUILA RAMIREZ                                     0501
A0101406620000003661498*************                                            0502
B0101406620273040727001CUTTING EDGE FOOD ENTERPRISES, INC.                      1601
A0101406620000005395053REGALA, MICHAEL JOHN MALAGAMBA                           0501
A0101410980275076628001TAN, GIAN CARLO UY                                       0506
A0101400570000011680863CORDERO, FORTUNE UY                                      0505
A0101400570281191853002GREGORIO, JULIETA ORBISO                                 0501
A0101411240000001026851MARQUEZ, YOLLY MONTESA                                   0501
A0101411240000001563491SINGH, BALBIR KAUR                                       0501
B0101411240283064772002GINTONG BUHAY WORKERS COOPERATIVE                        1601
A0501400200000015194331DE VERA, CHRYSOGONUS PEREZ OR                           10501
A0501400200000015194331GONZALES, GLENN ANACAN                                  20500
A2601400270000002312123MARY JANE C. MANAS                                       0501
A0801400160311478374039LEONORA J. ESFORMA                                       0502
A0801400160311478374102MA. CECILIA A. AVANCENA                                  0501
B0101402350000005645850MARIANO JR., CLEMENTINO BASTAOANG D                      1601
A0101402350321179301002PABLO PEFANCO & ERLINDA PEFANCO                         10505
A0101402350321179301002& MA FLORINDA PE                                        20500
A0101402350321353624001FRANCISCA A. COCHING                                     0502
A0101402350321772013001NELLY A. MARQUEZ                                         0501
A0101402510341622026001ALER III, DIOSDADO MARTINEZ                              0501
B0201401020000010966820BEX HAUL TRANSPORT CO.                                   1602
A0101402930013100000240DE DIOS, MARIO MANOTOK                                   0503
B0101402930000012171407VITOPROALLIANCE INC.                                     1602
B0101402930000008462562CABERO, MA. EDITHA AGCANAS DBU MAINELYN                 11601
B0101402930000008462562PRESS AND                                               21600
B0101408370000010545263MONTUANO, REMENISENCE DBU ZENPOWER                      11603
B0101408370000010545263ENTERPRISE                                              21600
A0101408370382227014001ANNIE T. COLEMAN                                         0501
A0101411660000000751239YANG, JEONG HO                                           0501
A0101411660384578823001HEBREO, JUSTIN LOUIS ABUEG                               0501
B0101415350000007877578J. L. TAGO PARTNERS & COMPANY                            1601
A0101402770000000360865CRUZADO, ARNEL OLA                                       0501
A0101402770000007921033ABDULRAHMAN, ROWENA DITUCALAN                            0502
A0101402770000006642793SUESS, FLORENCIA GERODIAS                               10501
A0101402770000006642793DBU FGS ENTERPRISES JT                                  20500
A0101402770000006642793SUESS, FLORENCIA GERODIAS                               10501
A0101402770000006642793DBU FGS ENTERPRISES JT                                  20500
B0101409210000000031192LSC CORPORATION                                          1602
A0101412210000003448639MANZALA, SHERWIN PERALTA OR                             10501
A0101412210000003448639MANZALA, GLADYS FATIMA B.                               20500
B0101412210000003448731AIKKAITO CORP.                                           1601
A5501400120000014641875ALOCADA, RASHEL BENITEZ                                  0501
B2401400180000000073710MABUHAYONE CORPORATION                                   1602
A2401400180000005536723ARGUELLES, SHIELO DUBOUZET DBU                          10501
A2401400180000005536723MONINA HAULERS                                          20500
A1201400150000011415864FELIX, FELY MADARANG                                     0501
A1201400150000011266492SUYAT JR, RODOLFO TABAJONDA                              0502
A0901400220432708709001MAHILUM, CATHERINE RIZALDE                               0501
B0101403030000001302076TUNGOL, MARJORIE CAJIMAT OR                             11603
B0101403030000001302076TUNGOL SR., RONA                                        21600
A0101403030441325147001**********                                               0501
A0101403320000001646879EIFFEL JARVIS H. DIAZ                                    0501
B0101406330000000432955ADELA LAND CORPORATION                                   1603
A0101406330472542494001TEODORA A. RAZON                                         0501
A1901400320000015196202CARMONA, DIONYLYN ASI AND                               10501
A1901400320000015196202CARMONA, ROGER SARMIENTO                                20500
A1401400110000014892789BACUNGAN, CHERRY PADILLA                                 0501
A1401400110000002286815TELAR, NEPOMUCENO LORETIZO                               0502
B0701400260000000041152P.A. JASARENO'S TRADING, INCORPORATED                    1603
A0101407430000011167861TEODORO JR., JOSE ANDREW DIMEN                           0502
B0101407430503027906001CHURCH STRENGTHENING MINISTRY INC.                       1610
A0101403580000015195630SAKATA, KAZUHIITO .                                      0501
B0101403580511015363083MEC - CT                                                 1610
B0101408530516035673001FERROTECH STEEL CORPORATION                              1608
A0101408530516571877040LEGASPI, EDMER CRUZ                                      0501
A0101411790518055815178VELASCO, MARJORIE CARRASCO                               0501
A0101403450521238220001**********                                               0502
A0101403610000015192124JIMENA, LINDSEY MILLAN                                   0501
B0101403610531013980001VIC IMPERIAL APPLIANCE CORP.                             1603
B2201400250561088535001CHRISTOPHER JORDAN L. CHUA                               1602
A0101410690000001285285ALFARO, LECEL PEREZ                                      0501
A0101404130601150580001WERLE P. GALANG                                          0502
A0101404130601595494088GO, ANTHONY LIM                                          0501
A0101404130601708628001PABALATE, PACITA BATAC OR                               10501
A0101404130601708628001PABALATE, HELENA                                        20500
A0101407720602398670002PAULITA ANOVER VILLEGAS                                  0502
A0101407720602401162001CRUZ JR., JOSE DE VEYRA                                  0502
B0101407720602697838001NCT SPA CORPORATION                                      1602
A0101407720000007936312PALAFOX, SUZANNE KATRINA                                10502
A0101407720000007936312VILLANUEVA                                              20500
B0101404260000004781200G1CAFE INC.                                              1604
A0101404260611337823001MACARIA OR MANUEL TAN                                    0501
B0101409920000013050281SZAMANTA ENTERPRISES, INC.                               1610
A0101407690000015193890TUAZON, CECILIA CONSUELO VEGA                            0501
B0101413440000011893226PRICENETPHILS.COM INC.                                   1603
B0101413570000013276843DOMINGO, MARK VINCENT MACALINO DBU                       1601
A0101413990657056598002**                                                       0503
A0101414120000008642702CLIMACO, JOEY BARRETO                                    0501
A0101414120000007044522NEPOMUCENO, ANGELYN TAMONDONG                            0501
A1301400210682045774001POP WASH LAUNDRY SHOP                                    0504
B1301400210000008173706BTM TRADING                                              1601
A1301400210682529408001VINTA, DAVID ALLISON MARCO                               0501
B0101408240711023689001ENL COURIER EXPRESS, INC.                                1602
A0101408240711373327001MARVIN PAUL CHASE OR                                    10501
A0101408240711373327001SHELLEE GAYE CHA                                        20500
A2801400230713414628001ENDAYA, MARITES PRONTO                                   0501
A4101400390813248327001DANILO B. SARIEGO                                        0501
A4101400420000014280230BARORO, ANGELO PUNONGBAYAN                               0501
A4101400420000015192482FERNANDEZ, WILMA TARNATE                                 0501
A4101400420000014280241FIGUERAS, VINCENT ROY D DBU RJS                         10501
A4101400420000014280241PARTY NEEDS OR APOLINAR,                                20500
A4101400420814520766065ANGUE, HONEYLYN D.                                       0502
A4101400550000006044480QUIOYO, EMELIA BOONGALING                                0502
A4101400550000010508686LALO, REBECCA GONZALES                                   0501
A4101400550815047760001MUCAS, MURIEL SANSAET                                    0501
A0101412340000005431874JAIME P. CRUZ                                            0501
A0101412340000010277335LEONILA S. GARCIA                                        0501
B0101412340000002879943ROSET CONCIERGE SERVICES INC.                            1610
B0101406750000005608431METROWIDE HOMEBUILDERS, INC.                             1610
B0101406750000005608540PRO BEATBOX ENTERTAINMENT CONCEPT C                      1610
A0101406750852739022001REMITAR, NATHANIEL VASQUEZ                               0501
A0101405070000005619354BARRERA, BERNARD PAGUIRIGAN                              0502
A0601400230000010702871SUNGLAO, THRICIA SALIDO                                  0502
