A0101415350000009103797LANDOY, SUSAN JAVELLANA OR                              10502
A0101415350000009103797LANDOY, BRIAN JORGE J                                   20500
A0101415350000009103800RIT, MIER AGUINALDO                                      0501
A3001400130000010506651LOPEZ, LEIZL TA                                          0501
A3001400130230757981001SACAY, RENE CANTOR OR SACAY,                            10502
A3001400130230757981001JOSEPHINE SIMBIT                                        20500
A1001400350233534612001ANDRADA, ALICE L. OR                                    10502
A1001400350233534612001TAMPARONG, ERNESTO                                      20500
A1901400290261530754004DESSIRE MALALUAN ONG                                     0501
A1401400110000000628568MAYUGA, LOURDES MAGTURO                                  0501
B1401400110000014232441SOUTHERN SWINE PARADISE & FARM, INC                      1603
A1401400110492042503001LUCENA ROOFWARE TRADING & SERVI                          0502
B1401400110000014232412DY, MARGARETTE EDNA LEY AYCARDO                          1603
A0101400860000002333580**********                                               0503
A0101400860011393233002**********                                               0505
B0101400150061047577001A. CHAN RESORTS & ENTERTAINMENT COR                      1602
B0101405810072011448001C.P.P.C CONSUMER PACKAGING PRODUCT CORP.                 1603
B0101405810000000016884PLASTIC CONSUMER CORP.                                   1601
B0101405810000011484592UNO FOREX INCORPORATED                                   1603
A0601400100000000032500LACSINA, MARVIN OR CHERYLLAD                             0501
A0601400100081251812001CAPATI, EMILIA L. OR                                    10504
A0601400100081251812001SANGALANG, HAZEL                                        20500
A0601400360000012046405YAPJOCO, MARIO LORENZO ALVAREZ                          10502
A0601400360000012046405OR YAPJOCO, RIZALYN                                     20500
A0601400360000015035571BROWN, GLORIA FUENTES                                    0501
A0101413730000003715791***                                                      0501
A0101414090000014876589FAJANILAN, BELINDA APUYA                                 0502
B0101414090000007344610CTZ-CARGOTRANZ SHIPPING AND TRANSPORT                   11603
B0101414090000007344610INC.                                                    21600
A0101400730111423961003ROCES, RAFAEL VILLAREAL OR                              10502
A0101400730111423961003ALCALDE, REYNALD                                        20500
A0101401960000010787483ISLA, DEVINE GRACE LLAGAS                                0502
A0101401960000004419830**********                                               0501
A0101413150000017601877CHEN, YACI                                               0501
A0101412630000012146564REGENCIA, ROBERT CYRILL GALANG                           0501
A0101413310000005433410ASPRER, CARMENIA MIA BAUTISTA                            0501
B0101413310000006144798ESR99 INC.                                               1605
A0101401830000016115898VALGUNA, NOVEMAY NAVARETTE                               0501
A0101401830000018116246SAN JOSE, TERRENCE JOHN SANOL                            0501
A7201400170000008740023ARANDING, LIZA MEDADO                                    0502
A7201400170000016139343RONDRIQUE, ROLINDA NEPOMUCENO                            0501
B7201400170000003773637MDSDOC CORPORATION                                       1601
A5001400170000015711447YAP, BEBRIN CAMO CAMO                                    0502
B0101407270162031049001CBB FOOD BEVERAGE AND SERVICES COR                       1601
A0101401090000018234545MANALANSAN, HAZEL ANN TARIN                              0501
B0101401090171007908001PERPETUAL SUCCOR HOSPITAL &                             11606
B0101401090171007908001MATERNITY, INC.                                         21600
A0101401090171195610001WILFREDO/CYNTHIA/MARIFEL MITZI/                         10503
A0101401090171195610001CYNTHIA MARIE FERNANDEZ                                 20500
A0101401090171500760001ERIC B. ZERRUDO                                          0501
A0301400530000013781012RAFOLS, JADE KIRBYL GO                                   0501
A0301400530193551188168GONG, SHUJIAN                                            0502
A0301400660000013311261LIM, JUSTIN GO                                           0501
B0301400660000012086623DVO ALUMINA INDUSTRIES, INC.                             1602
A0301400660000018192231REMOLAR, CHERRY MAE LOBO DBU SW                          0501
A0301400660000006755213MINDANAO BUTCHERS & CO., INC.                            0502
A0301400660000016080312*****                                                    0501
A0301400790000012274190AGUIPO, JAMES ALEGRO OR                                 10501
A0301400790000012274190ABARICO, MAY BEVERLY F.                                 20500
B0301400950000013759112MGA HEALTH AND WEALTH BUSINESS                          11605
B0301400950000013759112ENTERPRISE                                              21600
B0301400950000013759196AMALGATED CAP (ACI) INCORPORATED                         1605
B0101401380000014548844R.W. & A. INTERNATIONAL TRADING COR                      1602
A0101401380000010190386CO, JESNARD CESAR LUIS DBU NACO                          0501
B0101413020000000038388ASISI SYSTEM CORP.                                       1603
A0101410720000017581132*********                                                0502
A0101412500000018249631DY, LAWRENCE EDWARD LEE                                  0501
A3101400160000012033651RETUERMA, MA. ELENA BULABOS                              0502
A3101400160000015975076MARQUEZ, CLARITO CRUZ                                    0501
B3101400160000010010661ERCIA, LEONILO AND PUA, JULIETA AND PUA,                11601
B3101400160000010010661MARC AND GARCIA,                                        21600
B10014001902310390640011****                                                    1604
A1001400190231380503007DRA. CYNTHIA BACONGA                                    10503
A1001400190231380503007PHILAMCARE DOCTO                                        20500
A1001400190231520766007BUDLAO, RITCHEL                                          0501
A1001400190231520766119CABANO, BERNADITH CATIWALAAN                             0501
B1001400350233036049001RANTRADE INDUSTRIAL SALES CORPORATION                    1601
A1001400350233635947001GOMEZ, CHRISTOPHER IAN CARILLO                           0501
A1001400480000002300463GO, MARIA AMBROCIA BORROMEO                              0501
A1001400480000010131492LEGARDA, CELSO ENRIQUE KAHN                              0501
A1901400290000001917313NEONEVA PIAD MAGTAAS                                     0502
A1901400290261530754004DESSIRE MALALUAN ONG                                     0501
A0101401670271621865001MANDALEJO, RIZALINA BIONA                                0501
A0101401670271745163001ONG, CHRISTOPHER ALLAN L. OR                            10501
A0101401670271745163001ONG, ANNA LISA C                                        20500
A0101406620000012950777GARCIA, MIGUEL ANTONIO TRINIDAD                          0501
B0101406620273025877001EASTBAY PROPERTY & DEVELOPMENT, INC                      1602
B0101406620273037236001SANTOS SANTOS & SANTOS LAW OFFICES                       1601
A0101406620273483517001BUENAVENTURA, ROWENA PULGA                               0502
B0101412470000014657420COUNTRY CHATEAU HOTELIERS CORP                           1602
A0101411240000018225880TANCO, IRVIN JANN BORBON                                 0501
B2601400270000012492472ERIKA RYNELL C. UY DBU AGAT TRADING JT                   1605
A0801400160000012928326GABIO, KHARL DORONILA                                    0501
B0801400160311015273001SYSTEMIC FARM CHEMICALS I                                1601
A0801400160311170180001TAI, KUO AN                                              0501
A6601400120000002978176GELERA, MARIA JEAN CORAZON MERI                          0501
A3401400280000013294703DELIA NUFABLE                                            0502
A2901400130000009071870TALISLIS, HERBERT MAGSAEL DBU H                          0502
A0101402350000014999776FAST FORWARD VICE VERSA CO.                              0502
B0101402350000007062860PRIMERA BIOSOLUTIONS INCORPORATED                        1602
A0101402510341202209003********                                                 0501
A0101402510341278435001MARIE ELIZABETH Y. SOLIDUM, MD                          10501
A0101402510341278435001OR CAPT. GIL SOLIDUM                                    20500
A0101402510341478374008MARY GRACE B. ANDRES                                     0501
B0101409050000015856587CUERPO, CELERINO SANGUYO AND HERNANDEZ                  11601
B0101409050000015856587JR. RICARDO                                             21600
A0201400920375044441001SUI'S PRINTSONIC                                         0502
B0101408790000012313363DIGIBANK INC.                                            1602
B0101408790383063205001SIMPLY TRUE WELLNESS CENTER                              1602
A0101415350000009103800RIT, MIER AGUINALDO                                      0501
A0101415350000012246514CUNADO, PHOBE MAE PISCOS                                 0503
A0101415350000017012634STA. ROSA, GILBERT SALES                                 0502
A0101402770000015748993DE LA CRUZ, CARMELA MANALO                               0501
B0101402770000011812230JRATECH AIRCONDITIONING SERVICES INC.                    1601
A0101402770391547587001DIGMA, MA. JOSEFA STA. ANA                               0501
A0101405490000014676987OGOT, AILE ROXAS                                         0501
A0101405490000014913910CONTI, RENIE MAGADIA DBU                                10502
A0101405490000014913910RC-WOLTRJEA MARK                                        20500
B0101405490392006536003GEMINI INTEGRATED SERVICES, INC.                         1605
A0101408950000016226663MARQUEZ, MARISE VILLANUEVA                               0502
A0101408950396373113001DR. VIRGILIO M. NOVERO, JR. OR                          10510
A0101408950396373113001MARIA LOWELA C. NOVERO                                  20500
A0101409210000018105130HU, JINGJUAN                                             0501
A0301400820409063822002COMEDIDO, DANTE L. DBU DL COMED                         10506
A0301400820409063822002BAKESHOP                                                20500
A5501400120000015561163YABUT, MARC RHODWYN AGUSTIN                              0502
A5501400120410044488008GREEN AGRI FARM SUPPLY                                   0510
B5501400120000000003232ANG, JISON LOPEZ DBU KORONADAL AGRO                     11603
B5501400120000000003232MARKETING                                               21600
B5501400120000002949757VALEENLAND REALTY CORPORATION DBU R                      1602
B5501400120000005492402PRIMOS UNIDOS FOOD CORPORATION                           1602
A2401400180000002284131GARCERA, MARK ZEANREH HERNAEZ                            0501
A2401400180000015944633DALUMPINES, DENBE GALORPOT OR                           10504
A2401400180000015944633PARUCHEL, ELSA P                                        20500
A2401400180000015944611GALORPOT, GODOFREDO DALOGDOG                             0504
B2401400180411014376005PENBANK, INC. (A PRIVATE DEV'T BANK) -                  11605
B2401400180411014376005CALUMPANG BRANCH                                        21600
B2401400180411276067001GAISANO DADIANGAS, INC.                                  1610
A1201400150000016104128BULUSAN, ORLYNJOYCE BONDAD                               0502
B5101400100000010834450PINAT, MARESEL NOBONG DBU DON'S STO                      1601
A0101412890000014437306AGATHA KRISTINE D. VALERIO                               0503
A0101406330000016160586**********                                               0501
A0101406330472206513002MARIO O. QUE OR                                         10502
A0101406330472206513002ROSALINDA Y. QUE                                        20500
A0101406330472428084001DARWIN JEBB YLO OR MARILEN YLO                           0502
A0101406330472573166001ROSA Z. TIUTING                                          0501
A0101412760000002067632VILORIA, REMEDIOS O. OR                                 10501
A0101412760000002067632VILORIA, EDUARDO                                        20500
A1901400160491546773001IRENEA M ERLANO                                          0501
A1401400110000005181146DIASANTA, IVAN VILLAMAYOR                                0503
A1401400110492041611001BLUECLICKER COMPUTER CENTER                              0502
B1601400170000009954692EQUIRISE CREDIT CORPORATION                              1603
A0701400260000018245519PUNCIA, ERMAN MISOLAS DBU                               10502
A0701400260000018245519MASTER MANERP ENTERPRISE                                20500
A0101407430000002298257ABDULLA, AISA PINEDA                                     0502
A0101407430000016881882ESPIRAZ, MARIENE MAE PAGUIO                              0501
A0101407430000016881893LADERA, JAMIE GIL SIMEON                                 0501
A0101403580511237144004VALENCIA, JOSE OR MA FLORECITA                          10501
A0101403580511237144004OR MA CLARISE                                           20500
B0101405940512020791002ACRYDENTAL LABORATORIES, INC.                            1601
A0101408530000002260026AGNESE, PHILIPPE HENRI H. OR                            10503
A0101408530000002260026AGNESE, THERESA                                         20500
A0101412050000017094936TORCULAS, JASMIN SANTOS                                  0501
B0101412050000013296072EIHCIR LENDING CORP.                                     1601
B0101412050000000890973MCQUEEN AND TOW MATER, INC.                              1601
B0101412050000007801621LOCTEK ERGONOMIC PHILIPPINES CORP.                       1601
A0101403450521239750002EDDIE L. CHUA                                            0502
B0101403450521548227002JR 888 INC.                                              1610
A2201400250000002337982DURIMAN, ERLINDA BALINGIT                                0501
A2201400250561038458001PTT SOUTH RAMP GASOLINE STATION                          0501
A0101407720602399815001ALEJANDRO, RUTH MARGARET                                10501
A0101407720602399815001FRANCISCO                                               20500
A0101407720000000112158CHUA, JEFFREY LIM                                        0502
A0101407720602781707001CHUA, ERNESTO PUA                                        0502
A0101404260611005266001SHAMM PHOTO SUPPLY                                       0502
B0101404260000000157037INTERPRO FOOD SPECIALIST INC.                            1605
B0101404260000000550230INTERPRO FOOD SPECIALIST INC.                            1605
A0101404260611155266001YU, SUSANA OR EDDIE                                      0501
A0101404260611478374076NEREZA P RULL                                            0502
B0101404260000004781222**********                                               1601
A0101407690000010774764MONTON, REYGEN SHEM GUARDAYA                             0502
A0101407690000008045841MERJUDIO, EDNA PANGAN DBU VENOC                          0501
A0101407690000008045874CRUZ, MARITES ZOILO DBU TICKLAI                          0502
A0101407690000010774702DEQUITO, MAR DBU DEVINE ELECTRI                          0501
A0101413440000002125600RCCG BUILDERS AND TRADING                                0502
A0101413570000013931596CRUZ, GENALINE                                           0502
A0101413570000013901252CALIMPOSAN, GERALDINE TAGAPAN                            0501
A0101413570000017793452ANGELES, APPLE MAE BAGUIO                                0501
A0101413570656057648022INAH BALAIS                                              0501
B0101413570000009426193UNIVERSAL SIMBA DISTRIBUTION CORP.                       1603
A0101414120000012536300******                                                   0503
A0101406590662070270001INOCIAN, MARIA TSARINA OR                               10504
A0101406590662070270001PAJARO,VICENTE OR YOLANDA                               20500
A0101406590662398949001REYES, MARIA VICTORIA R.                                 0501
A0101410300000002375777******                                                   0502
A1301400210000011696065DIMAGIBA, MARIA FE VALDERAMA                             0501
A1301400340683387803001ESGUERRA, DANILO M.OR                                   10504
A1301400340683387803001ESGUERRA, ANGELITA T.                                   20500
A1301400500000009723151**********                                               0502
A1301400500000005963700GATMAITAN, JOSELITO LABAO                                0502
A1301400500000015587292MARY JANE SIOJO ENTERPRISES                              0502
B0101408240000003501464BAUTISTA, MA. ROSARIO PILAR ANASTAC                      1601
A0101408240000015858550OCAMPO, VENUS ROSALES                                    0501
B0101408240000016419631BONGAR ENVIROSYSTEMS TECHNOLOGIES CORP.                  1602
B0101408240000010815186TOLLFOODS MFG. CORP.                                     1607
A0101408240000006599935DEL ROSARIO, FRANCO GOMEZ OR                            10502
A0101408240000006599935DEL ROSARIO, TERESA                                     20500
A2801400230000011973176SAN JOSE, JOVILON TEODORO                                0501
A4101400390000018244458ABUTIN, ANTHONY CERBITO                                  0501
A4101400420000006643456BALAGA, MARS CIELO TABLATIN                              0502
A0101412340000003349659ANGELENE L. VILLARUZ                                     0502
A0101412340000012464772Jeannette Panghulan                                      0501
A0101404840851737546001MERCADO, LAUREL ASPREC                                   0501
A0101404840851737546001MERCADO, LAUREL ASPREC                                   0502
B0101413860000012289522GLI-GLOBAL IMPEX CONSOLIDATION INC                       1610
B0601400230000015978413ALPHA INSURANCE & SURETY COMPANY IN                      1603
B0601400230000013259246VALERIO, RAOUL PEREZ DBU R. VALERIO                     11602
B0601400230000013259246TRADING                                                 21600
A0601400230891664298001ALMARIO, RENATO SICAT                                    0506
