A0101404840000012411093DE FROIDMONT, FREDERIC PIERRE Y                          0501
A0101411530000010858412ELIZABETH N PINEDA OR                                   10504
A0101411530000010858412VIRGILIO G PINEDA                                       20500
A0101400860000011515961**********                                               0502
A0101400860011389546003**********                                               0502
A0101400860011514409001**********                                               0503
A0101400150000003164601MARIA CRISTINA G. GUINOO                                 0501
A0101400150000016852278FERNANDEZ, LORIA LYN MALLORCA                            0501
B0101400150061010814001TONE GUIDE PRESS, INC.                                   1604
B0101400150000004090162FLASHBOX INC.                                            1601
A0101400150061389261001AYSON, JOEL RAYMOND REDULA                               0502
B0101400600000001335637**********                                               1602
A0601400100000000032500LACSINA, MARVIN OR CHERYLLAD                             0501
A0601400100081028046001TANDEM INTERIOR DESIGN STUDIO                            0503
A0601400100081033811001CIRENEJ ENTERPRISES CO.                                  0505
B0101413730000000144625*******************                                      1601
B0101413730000006042473********                                                 1601
A0101414090000014404930RAMOS, PRISCILLA IGNACIO                                 0502
A0101410850000015839942ORDONA, CLARISE RENDON                                   0501
A0101410560000000848722**********                                               0502
A0101400730000001822577REMO JR., JOSE HARI                                     10502
A0101400730000001822577OR REMO, EVELINA                                        20500
A0101400730111386485042ELENA B. PEREZ                                           0502
B0101401960121011793001CAPITOL STATIONERY MFG. CO., INC.                        1605
A0101413150000005944352******                                                   0501
A0101412630000005319568MEERAN, HUSSAIN ANWAR                                    0501
A0101401830000006839241CIRIACO C. PASTRANA JR. OR                              10502
A0101401830000006839241EDMUNDO B. CADAV                                        20500
A0101401830000016843551OLORIS, LEAH ANDREA MANALO                               0501
A0101412920000003465070TALEON-PARAZO, ANGELENE TAMAYO                           0501
A0101400440161525001131RIA B. IBANEZ                                            0501
A0101400440161525001174RIZALYN V. GUNTANG                                       0502
A0101400440161760132001LANDIG, MA. GUIA GONZALES                                0501
A0101407270162239303003*****                                                    0502
A0101401090000016854321VELONZA, MARTINI PASQUIL                                 0501
A0101401090171218085002ANTONIO J. DAYAG                                         0502
A0101401090171399334003CATHERINE R. CORDOVA OR                                 10501
A0101401090171399334003ALVIAR, NOMAR                                           20500
B0301400530000009035085PO SR., RODRIGO GO JT                                    1602
A0301400530000011432812LITERATOS, AUREA ARANGCON                                0501
B0301400660000014406630HAO, MANUEL ATENCION                                     1605
B0301400790000000435705REFCON SYSTEM NETWORK SOLUTION, INC                      1605
A0301400790000008015121CADALZO, DENNIS SALOMERI DBU                            10501
A0301400790000008015121ULTRA-GOLD MOTOR                                        20500
A0301400950000002115231**********                                               0502
B0101401380000014548822MUYA, MARLON BATHAN DBU                                 11603
B0101401380000014548822NEWREIGN TRADING                                        21600
A0101401380000000026888YABUT, MA. NICOLE KRISTINE                              10501
A0101401380000000026888GARCIA                                                  20500
A0101401380201320598001CHUA, CHING KAI                                          0502
A0101401380201782577001DEL ROSARIO, MARY ANNE ESLABON                           0501
A0101413020000006295145BELLEZA, ALELI VILLAVIZA                                 0501
A0101413020000003055369JCBC ENTERPRISES                                         0503
A0101410720000009157024HUSMILLO, ZOSIMA ROALLOS                                 0502
A0101410720000013857424BERNAS, CHRISTINE JOY BACHO DBU                         10501
A0101410720000013857424CJBB ENTERPRISES                                        20500
A3101400450000016704193REVECHE, JOHN FERRY BORROMEO                             0501
A3101400740000010258476SOBOL, VALERIE GOROSPE                                   0501
A3101400870000016677922RINOZA, MA. TERESA BALINTEC OR                          10501
A3101400870000016677922RINOZA, NESTOCARLO CO                                   20500
A1001400190231040264001CHABON, CLA DBU WESTBOUND PETRO                         10504
A1001400190231040264001STATION                                                 20500
A1001400190231520766112ALIBIO, NELYBETH TACBOBO                                 0501
A1001400350000002367228YBANEZ, FRANCISCO TIEMPO                                 0505
A1001400350000015675235AGBAYANI, IMELDA BENIGNO                                 0501
A1301400470000013689882LEAH A. LINSANGAN URGENT CARE                           10505
A1301400470000013689882MEDICAL CLINIC                                          20500
A1301400470000013689951TECHMAZE COMPUTERS & REPAIR                             10503
A1301400470000013689951SERVICES                                                20500
A1301400760000008698979GILBERT ANTHONY B. TAYAO JT                              0505
A1301400760000016820861MELQUISEDEC TIMBANG LINDO                                0501
A1301400760000008699045DIANA LAREEN S. ANGELES                                 10501
A1301400760000008699045DBU A-STAR PAWNSHOP                                     20500
A1901400290261250069001DRA. JABES BUCE CARRASCOSO                               0505
A1901400290261384094002VIRGILIO B SILVA OR                                     10501
A1901400290261384094002LUCENA P SILVA                                          20500
B1901400290261488594003SOUTH LUZON UROLOGY SPECIALIST, INC.                     1605
B0101401670000000739253A.L. SALAZAR CONSTRUCTION, INC.                          1605
A0101401670271186360001ROBERT OR CAESAR SYLIANTENG OR                          10501
A0101401670271186360001TANG,CLARITA OR LIM,GLORI                               20500
A0101406460000002331113***************                                          0501
B0101406460272021222001ORION WIRE & CABLE INC.                                  1602
A0101411110000000009112DOMINGO P. PANLILIO                                      0501
A0101412470000002295872LIM, DORINA ALODIE NERIA                                 0501
A0101400570281293586001*****                                                    0502
A0101400570281552287002MALIMAS, RAQUEL CAROLINE D.                              0501
A0501400200000013602374ANCHETA, REMEDIOS PARAN                                  0502
A0501400200000014556102BORJA, PETER PAUL JOHN DELA CRU                          0501
A0501400200292622096001BAUTISTA, SIMEON LAGASCA                                 0501
A2601400270000016515116ALVIN C. ABALAJEN DBU GM I.T.                           10503
A2601400270000016515116SOLUTION                                                20500
A2601400270000002257201KATHERINE M. GALINGANA                                   0505
B1101400120000000652880YAO, ANTHONY ROBERTSON GO AND YAO, MARK                 11610
B1101400120000000652880ALAIN GO                                                21600
A0101402350000012300433TAHER, SOHRIA BONSALAGAN                                 0501
B0101402350321020540001UMEREZ PROPERTIES                                        1603
B0101402350321038337001JC UMEREZ PRIME HOLDINGS CORP.                           1606
A0101402350321179570001EPHRAIM NEAL C. ORTEZA OR                               10501
A0101402350321179570001IMELDA L. OLIVAREZ-ORTEZA                               20500
A0101402350321183124003MARLON L. CALILUNG                                       0502
A0101402350321197969001RONY O. ESPERIDA OR                                     10501
A0101402350321197969001LYN M. ESPERIDA                                         20500
A0101402350321478374058DELA CRUZ, MERLITA GABON                                 0501
A0101402350321478374059BERNARDITA D. LOPEZ                                      0501
A0101405650000000080071JORDUELA, NOBY BAUTISTA                                  0501
A0101405650000000525717TAMBUNTING, JOY MYRA SALVADOR                            0505
A0101402510341199103001CORAZON D. HUANG                                         0502
A0101402510341514366001**********                                               0501
A0101402510000013485800ALCALA, GINA CALA  OR                                    0502
A0101409050000000601403MILITAR, JODIELYN GUSTILO                                0502
A0101409050000011151225MARANAN, MARIE FJEL IGNACIO                              0501
B0201400760374030540001ST. FRANCIS MANPOWER SERVICES                            1601
B0101402930013130000244R.I. ARCADIO CONSTRUCTION CORPORATION                    1604
B0101402930381047467001FLUID SOLUTIONS, INC.                                    1601
B0101402930000008462573ENERGY AND AVIATION SUPPORT CORPORA                      1601
A0101402930381205667001SALVADOR B. FRANCO OR                                   10505
A0101402930381205667001JOCELYN J. YAMBA                                        20500
A0101402930381706358001QUIEC, GEOFFREY T.   OR                                 10501
A0101402930381706358001QUIEC, EMELENE C                                        20500
A0101408370000010341845ANGUE, KENDY QUIACOS                                     0502
A0101408790000006025981MORALES, MANUEL SIOCO DBU                               10502
A0101408790000006025981NASHFIL ENTERPRISES                                     20500
A0101405490000006214153RUIZ, IAN JERICHO NAZARETH E.                            0501
A0101405490000016836114LALLAVE, KEVIN CELDRAN                                   0501
A0101405490392177005001DOMINGA P. BUENAOBRA                                     0501
B0101405490392494716001MASTERFLOW INCORPORATED                                  1605
A0101408400000002273252LUCZON, LANIER CABADDU JT                                0501
A0101408400000004959533VILLARENTE, JULITO SANATE                                0503
A0101408400000015676869CALDERON, JOSEPH CONRAD SANTIAG                          0501
A0101408400394033958001RCBP-STA MARTHA PARISH                                   0506
B0101408400394047325001VICLOR MICROLENDING INVESTOR                            11601
B0101408400394047325001CORPORATION                                             21600
A0101408400394478374077PEREZ, CONCHITA                                          0502
A0101408400394510820001SONGCO, CHARLOTTE ARIOLA                                 0501
A0101408950000004512105LUIS JR., LOLITO RODRIGUEZ                               0502
B0101408950000015963970MGM MOTOR TRADING INC. DOING BUSINESS                    1603
A0101409180000003780363TECSON, ANGELICA CALDERON                                0501
A0101409180397033832002DANNY'S UPHOLSTERY SHOP                                  0501
A0101409210000002278839NICOLAS, ZENAIDA INGALLA                                 0501
A0301400820000001027832TORRES, REY P.                                           0501
A5501400120000014312237VELASCO JR., ALEJANDRO EGOS                              0502
A5501400120000013825613PADILLA, LUZMILA ASO DBU                                 0501
B2401400180411033387008BIBIANA FARMS AND MILLS, INC.                            1605
A2401400180411037686001DADIANGAS HEAVEN STAR MARKETING                          0505
B2401400180411042719001VITA-LIZE DISTRIBUTIONS INCORPORATED                     1603
B2401400180000000073710MABUHAYONE CORPORATION                                   1602
B2401400180000000073663CENTURY PACIFIC FOOD, INC.                               1605
A2401400180000001676979TUPAS, MARVIN REY DBU BBMT                              10505
A2401400180000001676979TRADING                                                 20500
A2401400180000007031676CARINO JR., DOMINGO CHAVEZ DBU                          10501
A2401400180000007031676SINGKO HERMANAS                                         20500
A2401400180411478374067CORTAL, CYNTHIA DE LEON                                  0501
A2401400180000000427996TUPAS, MARVIN REY PALLARCO OR                           10505
A2401400180000000427996TUPAS, BEATRIZ P                                        20500
A2401400180411580355001MAGLINTE, MA. FLOYDA MONDIGO                             0502
B2401400180411588207001ANG, CYRIL OR ANG, EVELYN OR ANG, CYNRIC                11605
B2401400180411588207001OR ANG, CLINTON                                         21600
B1201400150421025695002PRINTERS N PUBLISHERS SERVICE                           11602
B1201400150421025695002COOPERATIVE                                             21600
A0901400220432478374001LEONARD GO LOZADA                                        0501
A0101412890000007095750ANGELES, CRISTINA DBU INTERIOR                          10502
A0101412890000007095750PERSPECTIVE MARKeting                                   20500
A0101403320000001803054GANCIA, JOSEPH RANDALL A.                                0501
A0101403320471633972001CRISTINA LOYOLA YSMAEL                                   0501
A1901400160491346311001NIDA M LACSAMANA                                         0501
A1901400160491379828001BONIFACIO, LORNA ARMAMENTO                               0501
A1401400110000014487819GUANZON, JOCELYN SCHROTH                                10501
A1401400110000014487819OR JOVENCIO GUANZON                                     20500
A1401400110492493108001DEQUITO, BERNABE VILLANUEVA                              0502
A1601400170000000421172PARES PRINCE FOOD HOUSE                                  0505
A0101407430000013169661FORTUNO, SHENILYN RAVELO                                 0501
B0101407430000016624390SAPPHIRE AVIATION SUPPORT SYSTEM, I                      1601
B0101403580511005339002NONILLION HOLDING CORPORATION                            1603
B0101405940512030146001CHINO ROCES ESTATES ASSOCIATION INC.                     1601
A0101408530516484120001ARCILLA, WILFRIDO E. OR                                 10501
A0101408530516484120001ARCILLA, MARIZA                                         20500
A0101411400000007169237GO, TIFFANY MICHELLE SHIH                                0501
A0101412050000014501714SAUNDERS, MICHELLE AGUILLON                              0504
A0101403450000010454350********                                                 0505
A0101403610000016820690KUROKI, SHINICHI VALENCIA                                0501
A0101403610000016770140REYES, NORA SAEZ                                         0501
A0101403610000016770140REYES, NORA SAEZ                                         0501
A0101403610000016744691UY JR., ARLES ALINSUAG                                   0501
A0101403610531553944003LLAET, REMELYN FLORENDO                                  0501
A0101407720602326333001SATURNINO PEREZ JAVIER                                   0502
A0101404260611005236004WILTRON ELECTRONICS                                      0502
A0101409920000010528708***************                                          0501
A0101409920000010528862ASENJO, PINK DAILYN B.                                   0501
A0101413440000000702418GARCIA, GREGORIO REY DBU                                10501
A0101413440000000702418SUPERMASTER'S INSURANCE                                 20500
A0101413570000005435143VALENCIA, SYLVIA MARIE MEDEZ                             0502
B0101413570000013276843DOMINGO, MARK VINCENT MACALINO DBU STYLE                11601
B0101413570000013276843MANILA TRADING                                          21600
A0101413570000002976192*************                                            0502
A0101406590662347924001BATARA, JULETTE MARIE F. OR                             10505
A0101406590662347924001BATARA EDMUND ABDULRAKIM                                20500
A1301400210000011696350DIZON, JANE MICHELLE TOLENTINO                           0501
A1301400340683512844001ABAD, RENATO DE VERA                                     0505
A1301400500000016062510REYES, ANGELICA LOPEZ                                    0501
A1301400500000016836136SJGC TRADING                                             0501
A1301400500000003070139SUGAR DADDY MARKETING                                    0503
A1301400500684762106001VICEO III, JAIME S.                                      0502
A0101408240000011487251IMPAT, JONNAH MAE GARRINO                                0501
B0101408240000010815142SHIELDCOACH SECURITY COMPANY                             1603
B2801400100000012667277SUPPORTONE MANPOWER SERVICES INC.                        1610
A2801400100712381563002GUZMAN, CHERRYL BANGAYAN                                 0501
A2801400100712404040001ABERAS, MARY ANN DIANGZON                                0502
A2801400230000012228294ESPIRITU, IRENE CRUZ                                     0502
B2801400230713046357001THE PROFESSIONAL GROUP MULTIPURPOSE                     11602
B2801400230713046357001COOPERATIVE                                             21600
B2801400230000000372729KRJ TRADING                                              1601
A4101400260000014840430UNDATO, ANALYN CABUDOL                                   0501
A4101400260812681572001PROCESO, CESAR FRAGO                                     0502
A4101400420814017785001MONZON GENERAL MERCHANDISING                             0510
A4101400420000004847883PAKIDING, GRACELYN A.                                    0501
A4101400420814572265006JOCELYN M. TWANO                                         0501
A4101400550000014782808FALCON JR., D DBU DANYEN DESIGN                          0501
B4101400550815040996002MARICHE APARTELLE, INC                                   1601
B4101400550815040997003MAHARLIKA CONCRETE PRODUCTS AND CONST.                  11601
B4101400550815040997003SUPPLY                                                  21600
B4101400550000000900036BACOOR DOCTORS MEDICAL CENTER INC.                       1603
A4101400550000010508602M.A. NACIONAL BUILDERS                                   0501
A0101412340000004360041MAYVEEN L. LIPARDO                                       0501
A0101404840000005396949ESPORLAS, AURA AREVALO                                   0503
B0101404840000001312452EL ORO MEDALLIC ENGRAVER CORP                            1601
B0101404840000003069685CHOWLEEMIEN FOODS INCORPORATED                           1605
B0101406750852020394002EQUITABLE BANK VILLAGE HOMEOWNERS                       11601
B0101406750852020394002ASSOCIATION                                             21600
A0101406750852478374064LETICIA B MADRID                                         0501
A0101405070000005619354BERNARD PAGUIRIGAN BARRERAN                              0502
A0101405070861366707001ARELLANO, MA. ELENA BALLESTEROS                          0502
B0101413860000010275851EXPRESSLEAD LOGISTICS CORPORATION                        1605
A0601400230000010703072**********                                               0502
A0601400230000013259519LORENZO-REDOBLADO, ZARINA GUEVA                         10501
A0601400230000013259519OR YAO, REGINA CHAO                                     20500
A0601400230000012134397PONIO, LEILA LUMBA DBU JHO L CA                          0501
A0601400230891218085001DAYAG, ANTONIO JARAMILLO OR                             10502
A0601400230891218085001DAYAG, JENNIFER                                         20500
