F01014130200000000567844TH WALL PRODUCTION DESIGN                              12602CKR
F0101413020000000056784STATION                                                 22600CKR
F0301400240401022834003DAVAO ORCHARD ROAD, INC                                  2610CKR
F0101408110515024895001CREATION STATION, INC.                                   2605CKR
F0101404000551022435002ARANAS LAW OFFICES                                       2602CKR
F0101410690000000001850COLOR1DIGITAL, INC.                                      2603CKR
F1301400210682033690002FELIZA JAZZ CORPORATION                                  2601CKO
