B0101408400394821100608**********                                               2003
A1901400320000000679249RODERICK UMALI MAGBOO                                    0502
A3001400130000000007041CHAQ GLASS & ALUMINUM SUPPLY                             0501
B3001400130000001271772xxxxxxxxxx                                               1603
B4101400550000000900138WILSTAR HARDWARE AND CONST. SUPPLY CORP.                 1602
A0101400860011388542003**********                                               0502
A0101400860011402223002**********                                               0503
A0101400860011441876001**********                                               0502
B0101411370000000018135FOKUSI FACADE INC.                                       1601
A0101400150000003162267APRIL ROSE P. AGONCILLO                                  0501
A0101400150000003322210RAYMUND ENRIQUEZ                                         0501
B0101400150061015628001PETRON CORPORATION                                       1601
A0101400150061364435001BINAMIRA, PETER ABUEVA                                   0501
A0101400150061681415001CALLEJA, HENRY GERARD MACEDA                             0501
A0601400100000001442808BERNARDO, LILIAN VILLAPANA                               0503
A0101413280000000312683**********                                               0503
A0101400730000001822453RENZ BRYAN R. SAYAROT                                    0502
A0101400730111386702001CARTAGENA, CRISTINA M.                                   0503
A0101401960121327478001AIDA MEDEL                                              10502
A0101401960121327478001OR ROD MEDEL                                            20500
B0101401960121339004001**********                                               1601
B0101401830000000033638CARITAS SALVE CREDIT COOPERATIVE                        11603
B0101401830000000033638(MANDALUYONG)008                                        21600
A0101401830141352632001ALDEN R. SERRANO OR                                     10505
A0101401830141352632001ELSA M. SERRANO                                         20500
A0101400440161584859002RENATO M. BIYO                                           0506
A0101407270000002334823MIGUEL EDUARDO R. DALISAY                                0501
A0101407270000002334823MIGUEL EDUARDO R. DALISAY                                0502
A0101407270162081811001LINGA, FIDELA LINING                                     0501
B0101401090171008018001SANTISIMO ROSARIO PARISH                                 1601
A0101401090171197850001TERESITA G. ALMADIN                                     10501
A0101401090171197850001OR ROMEO G. ALMADIN                                     20500
A0101401090171203087001MARICEL M. SALVA                                         0501
A0101401090171376119001MARC ROBERT LADISLA OR                                  10505
A0101401090171376119001MARIA VICTORINA LADISLA                                 20500
A0101401090000000210373MARC ROBERT OR MARIA VICTORINA                          10510
A0101401090000000210373LADISLA                                                 20500
A0301400530193738511001GAMENG, RUBEN ABAYA                                      0501
B0301400950000000566887CHRISMA TRAVEL AND TOURS, INC.                           1602
A0101401380201689041001TAN, ALBERTO GALLARDO                                    0502
A0101413020000002292680**********                                               0501
A0101413600000002276406GERRY C. ABANILLA                                        0505
A3101400160221220343001LAARNI A. CALAPATIA                                      0502
A3101400450223693053001AUSTRIA, APRYL LYNN EVANGELISTA                          0505
A1001400190000000124730GORME, MARIANITA L.                                      0501
A1001400190000001057625REPUNO, REBECCA                                          0501
A1001400190000002170656AMELINA E. FACTURA                                       0501
A1301400760000002346090GLORIA G. MAGDANGAL OR                                  10503
A1301400760000002346090RICARDO E. MAGDANGAL                                    20500
A1901400290261042311007DR. AVITO SAGUN NICANOR                                  0501
A1901400290261405037001DENNIS LINATOC ATIENZA OR MARIA                         10502
A1901400290261405037001SOCORRO KATIGBAK ATIENZA                                20500
A1901400290261493025064CELESTINA RAQUEL LAYLO-NAVARRO                           0501
A0101406460000000182563TI, WINNIE ANN TAN                                       0501
A0101406460000002330832MESINA, DENNIS GREGORY                                   0502
B0101406620273025674001PHIL. GAME FISHING FOUNDATION INC.                       1602
A0101406620273236978001CALLEJA, HOWARD MACEDA                                   0503
B0101406620273460196001CA NEWFOUNDLAND SOLUTIONS, INC.                          1603
B0101406620273791354001APPETITE LABS MARKETING GROUP INC.                       1601
A0101400570281388539050EMPLOYEES OF TRINITY COLLEGE OF                          0502
A0101400570000001681927ANA MARIA LORETTA S. POHANG                              0502
B0101400570281551802002SHERYL LYNN A. YU OR STEVEN L. YU                        1602
A0101400570281628531001BILLARDO H. DEL ROSARIO, M.D.                            0505
B0801400160311100161001PRUDENTIAL CUSTOMS BROKERAGE SERVICES,                  11603
B0801400160311100161001INC.                                                    21600
A0801400160311478374070GENALYN M. BOTANERO                                      0501
A0801400160311478374082ZAIDA FERNANDEZ TAMON                                    0501
A1101400120000003197222DEL PILAR, JULIUS GO                                     0502
A1101400120000003022522GABRINO, ROSARIO A. DBU                                 10501
A1101400120000003022522GABRINO CONVENIENT STORE                                20500
A1101400120000003981168MAHID M. SIDIC DBU MAHID                                10502
A1101400120000003981168CELLPHONE ACCESSORIES                                   20500
A6601400120000001105855RUFIN, ROGELIO FORTUNO                                   0501
B6601400120314040691001NORTHERN SAMAR ELECTRIC COOPERATIVE,INC.                 1610
A6601400120314617688001CARANZO JR., EXUPERANCIO OR                             10502
A6601400120314617688001CARANZO, MARY                                           20500
B2001400290315042342001LUZON RAM CYCLES, INC.                                   1601
B2001400290315080808001RAMAS-UYPITCHING SONS, INC. (RUSI)                       1601
A3401400280318478374002PIONELO, LENIDIE DEVELOS                                 0501
B0101402350321020540001UMEREZ PROPERTIES                                        1603
A0101402350321278975001LORDELITA A. MARTINEZ OR                                10501
A0101402350321278975001JOHNNY V. MARTINEZ                                      20500
A0101402350321406149003********                                                 0502
A0101402350321542967001ABUNDIENTE, JONATHAN GUMBA                               0501
A0101402350321584873001********                                                 0501
A0101405650322670876001INACAY, VICTORIA T. OR                                  10501
A0101405650322670876001INACAY, ORLANDO                                         20500
A0101405650000000525717TAMBUNTING, JOY MYRA SALVADOR                            0510
B0101402510341058757001RCAM-NATIONAL SHRINE OF SAINT MICHAEL &                 11607
B0101402510341058757001THE ARCHANGELS                                          21600
A0101402510341399626001TAMAYO, HONEY LIZA C.                                    0501
A0101402060351009359001JIANDANI, SURESH G. OR                                  10501
A0101402060351009359001JIANDANI, KAVITA                                        20500
B0201400760000000222762UY, JOHN CHIU OR JOHN JEFFERSON UY                       1605
A0201400890000000027892FORTRESS ELECTRICAL SUPPLY                               0502
B0201400890376047100001MANDAUE PRINT SHOP CORPORATION                           1602
A0201401020000000056062GERIBISE, NENA ENOT                                      0501
B0201401020000000056266PINOY ENTREPRENEURS CONSUMERS                           11602
B0201401020000000056266COOP.                                                   21600
A0101402930000000859736ALMA V. PATAY                                            0501
A0101402930381526000001JODEENA MANTATAO                                         0502
B0101408370382033381002THE MEDICAL CITY, DEPARTMENT OF SURGERY                  1602
A0101408370000000014495DR. DONALD JUDE U. MEGUIZO OR                           10502
A0101408370000000014495DRA. DEBBIE GUANI MEGUIZO                               20500
A0101408370382416284001DR. BERNARDITA O. POLICARPIO OR                         10504
A0101408370382416284001DR. REUBEN D. POLICARPIO                                20500
A0101408370382418088001DR. REGINA P. BERBA                                      0510
A0101408370382515647001MA. TERESITA P. FONACIER OR                             10504
A0101408370382515647001EDMUNDO D. FONACIER                                     20500
A0101411660384047607001QUEEN'S LAIR HAIR CARE AND                              10503
A0101411660384047607001BEAUTY SALON                                            20500
A0101402770000001570781AVEGAIL LAGMAY DONALDO                                   0502
A0101405490000002252951BENDANA, JAYVEE CONCEPCION                               0501
A0101405490000002141020APOSTOL, MARIA  CELINA ALARCON                           0501
A0101405490000004353097LASTIMOSA, RONALD BACAY                                  0501
A0101405490392301424001ENCARNACION O. SANTIANO                                  0503
A0101408950396562714001DR. RICARDO FELICIANO DE CASTRO                          0503
A0101412210399094817014JOSE RODERICK F. FERNANDO                                0501
A2401400180000002284142TANYEN, IRENE JADE SANTIAGO                              0501
A0101403320000001803010LORENZO, DANIEL JUN ABULENCIA                            0502
A0101403320000001803305LADORES, DON EIKEL N. OR                                10501
A0101403320000001803305LADORES, KRISTINE                                       20500
A0101403320471442993001RUBY-MAE R. BOSTRE                                       0501
A0101403320471478374057EMMA G. FELIPE                                           0501
A0101406330472206499001LUZVIMINDA H. GERONIMO OR                               10502
A0101406330472206499001LUZDIVINA H. GERONIMO                                   20500
A0101406330472315246002FRANCISCO JASON ANGELES OR                              10502
A0101406330472315246002EVA ANGELES                                             20500
A0101406330472622987001EMMANUEL H. GERONIMO                                     0502
A0101410140000001940063ARCENAS, CRESENCIA (MEMBERS OF                          10501
A0101410140000001940063NATASHA (SHOECAT INC.)                                  20500
A0101412760476048071001DEPANO, BERNADETTE GATCHALIAN                           10502
A0101412760476048071001DBU BERICH TRADING                                      20500
A1901400160491244615002FERDINAND C CHUA  OR                                    10501
A1901400160491244615002DANTE C CHUA                                            20500
A1401400110492220879001ANGLO, ROMEO F. OR                                      10502
A1401400110492220879001ANGLO, CECILIA N                                        20500
A1401400110492600851001DE VERO, ROBERTO TANEDO                                  0503
A1601400170000000497423MENCHU R. BUADO                                          0501
B1601400170000000036035SIX IN ONE CORPORATION                                   1603
B0101407430503009819002AIRGLOBE, INC.                                           1610
A0101405940512151522005**********                                               0502
A0101405940512478374010COMPANERO, MARILYN ESMABE                                0502
A0101408530000000594116LEE MICHAEL STA. ANA                                     0501
A0101403450521397310001**********                                               0502
A0101403450521405528001DY, JANICE GO                                            0502
A0101407720602397746003NOLIDO, ANNA MARIE SAGE                                  0502
A0101407720602454953001BERNARDO, JASMIN MELISSA BALLEN                          0503
B0101404260000000157015INTERPRO FOOD SPECIALIST INC.                            1605
A0101409890000000004531CHAN, CILO TAN                                           0501
A0101409890000000004531CHAN, CILO TAN                                           0501
A0101407690652039085001JUNBEL INDUSTRIAL SYSTEM CORP.                           0502
B0101407690652041404001AUBURN POWER TECHNOLOGIES INC.                           1601
A0101407690000000495381DE GUZMAN, THEODORE PARTIBLE                             0501
A0101407690652478374131TARROQUIN, NORA - DEALERS OF                            10501
A0101407690652478374131SHOECAT, INC.                                           20500
A0101407690652655826001MALIBIRAN, ROSALINA BERNABE                              0501
A0101413440000003298242BUENDIA, CARLOS COLOYAN                                  0503
A0101413570656057648155MANTARING, LOURDES                                       0502
B0101414120658821100608**********                                               2003
A0101406590662354457001DOMINGO M. DE GUZMAN JR.                                 0503
A0101406590662711800002ROQUE, EVELYN VALDOMAR                                   0502
A0101410300000002375777******                                                   0502
A1301400210000002909146CATAHAN, AGNES SUNPONGCO                                 0501
A1301400210682037806001MANG PABLING MARKETING                                   0502
A1301400210682478374027MARY ANN M. DE LEON                                      0501
A1301400210000000023229FRANCISCO P CABOTEJA                                     0501
A1301400340683249082002RICARDO HERMOSO II OR                                   10501
A1301400340683249082002AGRIPINA HERMOSO                                        20500
A1301400340683361153001LICAROS JR, ALEJANDRO LAGPAO OR                         10502
A1301400340683361153001LICAROS, ELSA RE                                        20500
A0101408240711433276001CONCEPCION WU OR                                        10501
A0101408240711433276001KATRINA JOY WU                                          20500
A0101408240711469368001CAGANDA, ANTERO JOSE MADARA                             10501
A0101408240711469368001OR JEANZIE LEE                                          20500
A0101408240711569003001VILLAMORA, JENNIFER DAVID                                0501
A0101408240711630500001BELEN, VICTOR POSADAS                                    0502
A4101400390813478374045FIRMALINO, MELECIA ATIENZA                               0503
A4101400550000002091050BUNDA, AMYSKY ALEGRE                                     0502
B0101404840851009292001GEMSTAR MARKETING                                        1605
A0101404840851424429002MAQUINANA, JOEL MACABUHAY                                0502
A0101404840851520766088PERLINA CADA                                             0501
A0101404840851520766155JOSEFINA VERGARA                                         0501
B0101406750852041203005AUTOCIRCULO CORP.                                        1610
B0101406750852041203006AUTOCIRCULO CORP.                                        1610
A0101406750852296707001SAMSON D. HECITA OR                                     10503
A0101406750852296707001JOSEPHINE R. HECITA                                     20500
A0101406750852665756001ELARDO, GRACE OR                                        10501
A0101406750852665756001PADILLA, GLORIA                                         20500
B0101405070000000428922ALLSEAS INTERNATIONAL SHIPMANAGEMENT                    11601
B0101405070000000428922PHILIPPINES INC.                                        21600
