F0101406590662422303001OLIN, LUCIA ARCENAL                                      2505CKO
F0601400360000000978925RONDAYVU MANUFACTURING                                  12605CK1
F0601400360000000978925CORPORATION                                             22600CK1
F01014007301110313820010RAL CONFIDENCE ORTHO-DENTAL                            12512CKO
F0101400730111031382001CLINIC                                                  22500CKO
F0201400180001815500841ONG, PACITA YU                                           2601CKO
F0101405650322690380001BAGATSING, MARIA LUISA OR                               12502CKO
F0101405650322690380001BAGATSING, VALENTINO                                    22500CKO
F0801400290000000011490THE SUITES AT CALLE NUEVA, INC.                          2601CKR
F1301400210682306066002JUANITA CABRERA OR ANTONIO                              12501CKO
F1301400210682306066002CABRERA OR JAYNIE CABRERA                               22500CKO
F4101400260812444904003HERNANDEZ, ALLAN SANTOS OR                              12505CKO
F4101400260812444904003HERNANDEZ, JEAN                                         22500CKO
