A0101406590662630506001******                                                   0501
B0101411790518821100608**********                                               2001
A3401400280000000972783DELA CRUZ, EMILIO BILLONES                               0501
B0101414410612821100608**********                                               2002
A0101414120000001751491TALERO, REY TANO                                         0501
A0101414120000000649081MC EDRICK TRUCKING SERVICES                              0502
B0101414120000001984336LRKD MARKETING AND TECHNOLOGY SERVICES                  11602
B0101414120000001984336CORP.                                                   21600
B0101414120000003584350LRKD MARKETING AND TECHNOLOGY SERVICES                  11603
B0101414120000003584350CORP.                                                   21600
B0101400860011459113001**********                                               1602
A0101400860011743703001**********                                               0510
A0101400150000003537222RAPOSAS, ALEXANDER CHRISTIAN                             0501
B0101400150061043646001ARRAKIS HOLDINGS, INC.                                   1602
B0101400150061228576001KZPC HOLDINGS, INC.                                      1601
B0101400600071233681002**********                                               1605
B0101400600071234158001**********                                               1605
A0601400360000002282260SANTOS, RAMON ARCIGA                                     0501
A0101410560000001944072VALEN, ROSANA RETIG                                      0501
B0101400730111032627001R.C. TAN TRANSPORT                                       1604
A0101412630000000852346PERALTA, MARILYN CASTANEDA                               0501
A0101401830141409771001ALRIC P. BOBO                                            0501
A0101412920000002359117GOMEZ, CLODUALDO MARANAN                                 0502
A0101400440161667573001EVELYN P. DE ZUNIGA                                      0501
A0101407270000000818348QUE, LUCITA LIM                                          0501
A0101407270000006110981BATAC, ELIZABETH BULANADI                                0501
A0101401090000006050620YOUNG JR., ROBERT TIA                                    0505
A0101401090000000210522JMR INTERIOR DESIGNS                                     0501
A0101401090000001618628OCSON, VIRGILIO ESPIRITU                                 0502
A0101401090171503089001RUEL VALERIO R. DE GRANO                                 0501
A0301400950000001379073FERNANDEZ, NESTY VANLORD CHI                             0501
B0101413020000000038424BIOSPEED CORPORATION                                     1601
B3101400160221636424001MAGIC FAIR FUN SNACKS, INC.                              1602
B3001400130000001271523BERRYL DRUG CORP.                                        1602
A3001400130000001271312SHAPE & WELL NUTRITIONAL                                10501
A3001400130000001271312PRODUCTS                                                20500
A1001400190000000016480ANGELITUD, LYDIA LECIAS                                  0501
A1001400480000000606911FREGIL JR., BENITO GO OR FREGIL                         10501
A1001400480000000606911MICHELLE                                                20500
A1001400480000003357555RUAMAR, JOSE RONIE MARFA                                 0502
A1001400480000003357635LABININAY, JENNIFER MAE PAAS                             0501
A1301400470252478374021RIZANETTE F. SANTOS                                      0501
A1301400470252478374028NORMA S. BALLESTEROS                                     0506
A1301400470252495255001IMELDA IRENE V. ULIP OR                                 10501
A1301400470252495255001JUANITO I. ULIP                                         20500
A1301400760000000007263EFREN D. MELOSANTOS                                      0501
A1301400760000003415676LOURDES DAY S. MESDE OR                                 10502
A1301400760000003415676LOUIE S. MESDE                                          20500
A0101406460000000712725PALANCA JR., BERNARD GERARD                             10502
A0101406460000000712725AND EJERCITO, MA                                        20500
A0101406460272287912001********                                                 0501
A0101406460272298552014ELMA BERNARDINO                                          0501
A0101406620000000193800SILVA, CLARITA BUSALPA OR                               10501
A0101406620000000193800SILVA, ANGELO PH                                        20500
A0101406620273215629001PATRICK G. SANTOS OR                                    10502
A0101406620273215629001MONICA S. SANTOS                                        20500
A0101406620273458914001**********                                               0501
A0101400570281186565002DANILO D. REYES                                          0505
A0501400200000002306150PACIS, WILMA RAMOS                                       0501
A0801400160000002287669ANTIDO, ELLEN JOY ABAJAR                                 0503
A0801400160311478374102MA. CECILIA A. AVANCENA                                  0501
B1101400120313040867001PRO 8 CREDIT COOPERATIVE                                 1601
A6601400120314042312002NORSAM BUILDERS & CONSTRUCTION                          10502
A6601400120314042312002SUPPLY                                                  20500
A6601400120314737040001DURA, CARLITO OR DURA, RENY                              0503
A2001400290315044705002REMAN GLASS & ALUMINUM                                   0502
B3901400100316821100608**********                                               2005
A3401400280000002323433AZARRAGA, KATHERINE VILLAR                               0501
A0101402350000003880433DUMAYAG, ANGELO BACANI OR                               10502
A0101402350000003880433TAN JR., PATERNO GOMEZ                                  20500
A0101402350321478374053ROWENA S. FLORES                                         0501
B0101405650322035899001CROWN ASIA SALES SPECIALIST, INC.                        1605
B0101405650000000013003CARISSA PROPERTIES SPECIALIST, INC.                      1605
A0101405650322170571001ARTURO LAZATIN OR                                       10502
A0101405650322170571001MA. THERESA LAZATIN                                     20500
A0101402060351212490001AGUILA, ALBERTO MALAPITAN OR                            10503
A0101402060351212490001AGUILA, GERALD CHRISTOPHE                               20500
A0101402060351595339001CARLOS, CORAZON ALIMARIO                                 0501
B0101414540354821100608**********                                               2010
B0201400920375036322002PALMAS VERDES HOMEOWNERS ASSOCIATION                     1601
A0101402930000006092275FAMORCA, RICHARD VICTOR DE LEON                          0501
B0101402930381016251001THE PACIFIC MEAT COMPANY, INC.                           1605
A0101402930381478374010LEONILA Y. DAIZ                                          0504
A0101408370382070779001DR. ANDRES R. LIPANA,JR.                                 0501
A0101408370382314711001DR. CRISTINA TERESA C. SAMONTE                           0501
A0101408370382527801002PHILIP LANCE ANTHONY A. LIU                              0501
A0101408790000003812075BERNARDO, PAOLO VICENTE ARCE                             0501
A0101411660000000109271JOSE GLEN Y. DE LA ROSA OR                              10501
A0101411660000000109271ROEL S. CONCEPCI                                        20500
A0101402770000004842217UNTAO, BELAWIRA MANGONDAYA OR                           10501
A0101402770000004842217UNTAO, SOLAIMAN CALAMATA                                20500
B0101402770391031763001SIGMA PACKAGING CORPORATION                              1601
A0101408400000000077923LUNASIN, FRENZY CORONADO                                 0501
B0101408400394027524001SAINT JO FLORAL DESIGNS & DECORS                         1602
A0101408400394162678001MARINAY, ISIDRO T.                                       0504
A0101409180000006002993LAWRENCE ROSS JIM YAP                                    0501
A0101409210398752106001HERMOZA, HAZEL ANNE DELGADO                              0501
A0101410140000001939984DELANTAR, DARMEL URAGA                                   0501
A0101410140000001940063ARCENAS, CRESENCIA (MEMBERS OF                          10501
A0101410140000001940063NATASHA (SHOECAT                                        20500
B0501400170481018109002****                                                     1603
B3801400170000000018777ANTONIO CATIBOG II OR ZENAIDA CATIBOG OR                11610
B3801400170000000018777HAZELYN ACEDERA                                         21600
A3801400170000000154203DON ERIX TROY M MAGNO                                    0503
B1901400160491341189001VIRGINIA R VARGAS OR                                    11601
B1901400160491341189001RICHARD D LIM                                           21600
A1401400110492023002001THESAURUS DRUGSTORE & GENERAL                           10505
A1401400110492023002001MERCHANDISE                                             20500
A1401400110492029549002TRIPTORS DIAGNOSTIC CENTRE                               0504
A1401400110492427534002BABILONIA, MELCHOR TEJADA OR                            10501
A1401400110492427534002BABILONIA, BRIGI                                        20500
A1601400170000001360634ALDON, CONSUELO DAYTO                                    0501
A0701400260000003259294AMPONGAN, ANDRES PALACIO                                 0501
A0101408530516571877132ERIKA MAITA V. VILLALBA                                  0502
A0101411790000002276086*******************                                      0501
A0101412050000000890773NICDAO, ED PAUL ISIP                                     0502
A0101412050000004513028NICDAO, YVETTE ISIP                                      0501
B0101403450000001770076TAN, HENRY CORTEZ                                        1602
B0101403450521548227002********                                                 1610
A0101404000000001187031LUNA, ANNE CHERISSE SY                                   0502
B0101410690000001284395ALDANA, MA. ELENA M. DBU PANSOL TRADING                  1604
A0101407720000000510836JOVEN, MYLAH ABELLA                                      0504
A0101407720602397271001OZAETA, MA. RAMONA PABLO                                 0501
A0101409920650478374004DADULA, IRENE INES FAVOR                                10501
A0101409920650478374004MEMBERS OF NATAS                                        20500
A0101409920650478374004DADULA, IRENE INES FAVOR                                10501
A0101409920650478374004MEMBERS OF NATAS                                        20500
A0101409920650478374005CRISOSTOMO, MA. EMELIA GASPAN                           10501
A0101409920650478374005MEMBERS OF NATAS                                        20500
B0101413440000000038213ROMBE PHILIPPINES, INC.                                  1605
B0101413440000001085632SEABAR TERMINAL, INCORPORATED                            1603
A0101413440000003298242BUENDIA, CARLOS COLOYAN                                  0503
A1301400500000006109122SAMANIEGO, PERRY GALVEZ                                  0501
B0101408240711028488001INTAS DESTINATION MANAGEMENT INC.                        1605
B0101408240000000832622ENSPIRE GLOBAL INC.                                      1601
A0101408240711226051002CHAN, ALFREDO OR CHAN, CEFERINA                          0501
A0101408240711478374015EMILY MONTILLANO                                         0502
A2801400230000001782072ALUNDAY, KR DBU KRISSON HAIR                            10501
A2801400230000001782072CLIPPERS                                                20500
A2801400230000001782083DE GUZMAN, LITO C. DBU D.G.L                            10501
A2801400230000001782083MOTOR WORKS & GE                                        20500
A4101400390813478374043CORTEZ, FELICITAS                                        0502
A0101412340000001017849MASUBAY, MA. CHRISTINA B.                                0501
A0101404840851046725019LETICIA QUINANOLA                                        0502
A0101404840000001312576DOMINGUIANO, GLORIA D.                                   0502
A0101404840851368068003BALAGTAS, ROWELLDA CHIONG                                0502
A0101404840851478374171LORENA A. ARES                                           0501
B0101406750000000017552SIEGRANZ CHEMWORKS CORPORATION                           1602
A0101406750852524772001VELEZ, MARY ANN QUBING                                   0502
B0601400230000002649927MJ EXPRESS CREDIT INC.                                   1605
