A1101400120000009119626TOMANDA, ANABELLA NECESARIO DBU                         10502
A1101400120000009119626ANT ENTERPRISES                                         20500
A0301400950000006080417**********                                               0501
A0101412500000016378731QUISING, SAMUEL PATRIMONIO                               0501
A0101412500000017760482LEDESMA, NESTOR RAMONSITO LIM                            0501
A0101402510000015169965GUERZON, CRISTINA DIONISIO                               0502
A0101402060000009179564SUPETRAN, ISABELO ERNESTO LUMAQ                          0502
A0101407690000008045896J.L.Y BUILDERS                                           0502
A0101400860011398777002**********                                               0508
A0101400860011453144001*********                                                0505
A0101400860011478374007**********                                               0501
A0101400860011549648001**********                                               0505
A0101401250001120000035ESPIRITU, BELINDA CRUZ                                   0501
A0101401250021468980001GENELYN C. CARTON                                        0502
A0101400150000003218317ANGEL RIZZA D. TAN                                       0502
A0101400150000008307179LACHICA, CIPRIANO FONSECA                                0501
A0101400150000016117401ALVAREZ, BERNIE VICTORIA                                 0502
B0101400150000000633174MEGA TREND FOREX CORPORATION                             1601
A0101400150061231268003TAN, CORAZON J.                                          0502
A0101400600071057858001BESTA SHIPPING LINES, INC.                               0503
B0101405810072020925003DW PLASTIC CORP.                                         1603
B0101405810072040696002PLASTIC TECHNOBAG CO. LTD.                               1601
A0101413730000007317291************                                             0502
A0101413730000013294269POCSIDIO JR., MANUEL BONAGUA                            10501
A0101413730000013294269OR POCSIDIO, WINNIE ONGTO                               20500
A0101414090000008927062BOLA, MARIE STEPHANIE RIEGO DE                          10501
A0101414090000008927062DIOS                                                    20500
A0101414090000011597712VILLEGAS, MERISA DELA CRUZ                               0501
A0101414090000014876603BAYLON, JOHN MAYNARD STA MARIA                           0501
A0101413150000001288240HONG, QINGREN                                            0501
A0101401830000002274455CIRIACO, MICHELLE BUQUIRIN                               0501
A5001400170000000045003LIONG, JULIUS TAN OR LIONG,                             10510
A5001400170000000045003DANA CORAZON LAM                                        20500
A0101412920000017354291ANCHETA, SARA ZAYNAB LUBATON                             0502
A0101412920000015711863ALONSO, JEAN ROSCHELLE MENESES                           0502
A0101407270000003253949GERONIMO, KEVIN RAE TAN                                  0502
A0101401090171196285002SISON, LILIAN DE JESUS                                   0502
B0301400530193038633008JHG TRADING, INC. - A                                    1610
B0301400530193038633088JHG TRADING, INC. - B                                    1610
A0301400790000003969542******                                                   0501
A0301400950000002115344************                                             0501
A0301400950000017381170PAN NI JOSE                                              0503
A0101412500000018101434FESTIN, BERNARDO LOTERENA                                0501
B0101413600000005524807TRUCKMASTER GOLDEN BODY MFG. CORP.                       1602
A3101400160000017370651USI, ANNALYN APELO DBU FOUR                             10502
A3101400160000017370651PILLARS HUMAN RESOURCES                                 20500
B3101400870000018101894JUSON, MA. VICTORIA GALANG DBU SONJ                      1601
A3001400130000000931191RACHO, AGNES ARAGON                                      0505
A3001400130000010506673VILLANUEVA, DEBORAH BATTUNG                              0501
A1001400190000008743875OCERO, ALGENE ALEJAN OR                                 10502
A1001400190000008743875VALDEHUEZA, KENT                                        20500
A1001400190231520766125YANA, MAYFLOR DAGOC                                      0501
A1001400350000003867250PEARSON, LAARNIE PEARL ROA                               0502
A1001400350000017316633HUIZO, ARMANDO MIJOS                                     0501
A1001400350233272028001MAANDIG, ERLINDA B. OR                                  10503
A1001400350233272028001MAANDIG, CARLSTO                                        20500
A1001400480000014024301ACEBU, RIENNA DAWN DE LA CRUZ                            0501
B1001400480000011809820TORREPALMA, JELLYFE CELESTIANO DBU                      11601
B1001400480000011809820VIBRANT DOCUMENT                                        21600
A1901400290000009117351STANLEY GONEZ SEVILLANO                                  0501
A1901400290000017582248PANGANIBAN, DIANNE CAMILLE MERC                          0501
A1901400290261093134001JOY PANALIGAN KATIGBAK                                   0502
A1901400290261366172001MYLA VIVAS GONZALES                                      0501
B0101401670000000016286PSE-CST JV CORP.                                         1602
A0101406460000001231441Jordan Calvin Cheng Uy                                   0501
A0101406460000016571078****************************                             0501
B0101406620273009650001CROWN SMART LTD.                                         1605
B0101406620273020543001GOLDEN DRAGON INDUSTRIAL CORPORATION                     1602
B0101408660000013601951BALASBAS, VERNON PAMINIANO DBU 38M                      11601
B0101408660000013601951CONSTRUCTION                                            21600
A0101400570281378117001SHERYL LYNN A. YU                                        0505
A0501400200000006445172LAGMAN, GIRLIE CZARINA M.                                0502
A0801400160000011336644***********************                                  0502
A1101400120000008001345OMANDAM, ELVIRA LANGAM                                   0505
A6601400120314044682001QUINNREEVE'S MOTORCYCLE PARTS                            0502
A0101402510341278752001HIPOLITO JR., LORENZO SANTOS                             0501
A0101409050000013851726EMPLOYEES OF, DELL GLOBAL B.V P                          0502
A0101409050000016682521SIMANGAN, MARY ANNE PAITON                               0501
A0201400760000016614761OLIVA, FRANK IGNATIUS GUINARES                          10502
A0201400760000016614761OR OLIVA, MARY JOSEPHINE                                20500
B0201400760000005016711PALERMO GRAND RENEWABLE ENERGY MANA                      1603
B0201400890376069939001*******************                                      1602
B0201400890000007877330ESPRINT SYSTEMS, INC.                                    1602
A0201401020000016203006MAYONILA, CHRISTY JANE SALA                              0501
B0101402930381014599001HEALTH SOLUTIONS CORPORATION                             1602
B0101402930000003269447DETOXICARE PHILS INC                                     1603
A0101402930381205350002MARIANO BONDOC/LOURDES MILADEL/                         10505
A0101402930381205350002JUAN MIGUEL BOND                                        20500
A0101408790000000039154ROMEO R. LIM JR.                                         0501
A0101411660000009107255SANTIAGO, MARIAN MEDINA                                  0501
A0101402770391340396001ERLINDA D. VILLANUEVA                                    0502
B0101408400000002386172DIGNOS, MARIA VIOLETA SALVADOR                           1601
A0101408400000010507052ROCABO, HAZEL SUPERABLE                                  0501
A0101408400000017480543CALEJA, ELMER JOJO URBIZTONDO                            0502
A0101408400394518233001CABADING, FEBY OR                                       10502
A0101408400394518233001CABADING JR., AN                                        20500
A0101408400394524529001EMERSON CRUZ OLIVER                                      0501
A0101408950000005325622DIMALIBOT, MARIA MARTINA                                10503
A0101408950000005325622GERALDINE                                               20500
A0101408950396607322001CARIAGA, NATHANAEL CATANGAY                              0502
B5501400120000017065680GARCIA, RALPH FRANCIS JAVELLANA                          1605
B5501400120410042035001CYCLERS BYKE HUB                                         1601
A2401400180000010066456CONGSON, PAULINO LUNZAGA                                 0503
A2401400180000016516831ENOC, RONWALDO VILLEGAS                                  0502
A2401400180411320270002SALARDE, GLORIA TIMKANG                                  0502
B1201400150421031870002BLESSED ASSOCIATION OF RETIRED PERSONS                   1602
A1201400150421253551001GONZALO, JULIETA PALOR                                   0502
B0101403030441011894001REXSSEL AUTO PARTS CENTER                                1601
B0101403030441021825001**********                                               1603
A0101412890000014437380NUESTRO, JOEY CERVANTES                                  0501
A0101412890000017067000SABILE, MARY GRACE TAMAYO                                0502
A1901400320000016197683SORIANO, EUFEMIO CANTOS OR                              10501
A1901400320000016197683SORIANO, ILYN CATUD                                     20500
A3801400170000011559745CASTILLO, EMMANUEL DELA CRUZ                             0501
A0701400260000002339095BERNARDO JR., JAIME MIRALLES OR                         10503
A0701400260000002339095BERNARDO, CYRIL                                         20500
A0701400260000006599560DE LA ROSA, JUAN MIGUEL II DBU                          10505
A0701400260000006599560DLR POWERTECH ENTERPRISES                               20500
B0101407430000001028988********                                                 1610
A0101407430503436029001CACHO III, MARIANO NERA                                  0501
A0101403580511327187012MARIA LEAH TOPACIO                                       0502
A0101403580000005328456PERLAS, EUNICE PRIETO                                    0501
B0101405940000005359708NEXUS INDUSTRIAL GLOBAL SOLUTIONS                       11603
B0101405940000005359708CORP.                                                   21600
A0101408530000018091482DELOS REYES JR., ANGEL PIETRO G                          0501
A0101408530000018091693GUTIERREZ, FRANCIS SOLANO                                0501
A0101408530000018091886MACALINAO, ALVIN DEL ROSARIO                             0501
A0101408530000018091977PAGUIO, DOMINICA JANE CARIAGA                            0501
A0101408530000018100748MANLANGIT, JESSICA ARCEGA                                0501
A0101408530000018100840MONJE, JEAN CAMILLE DECENA                               0501
A0101408530000012953112GARCIA, CONSTANCIO DAYANGHIRANG                         10510
A0101408530000012953112DBU ROBERT KING                                         20500
A0101412050000017512551RADAM, CONRADO                                           0501
A0101412050000014677946CASTRILLO, CATHERINE ANABO DBU                           0502
B0101403450521012010001********                                                 1603
B0101404130601100007004SMART COMMUNICATIONS, INC.                               1601
A0101407720602455271001SARROSA, DONNA MARIE LEELIN OR                          10502
A0101407720602455271001SARROSA, EDWARD                                         20500
A0101412180000018097460YAP, MA. CECILIA AVERION                                 0501
B0101412180000003523782DE CASTRO, DENISE LOREENA VILLAR DBU DDC                11603
B0101412180000003523782ARCHITECTURE STU                                        21600
B0101404260611040787001ARONMAC TRADING AND GENERAL MERCHANDISE                  1601
B0101404260611042763001ACJEM INDUSTRIAL MANPOWER & GEN.                        11605
B0101404260611042763001SERVICES, INC.                                          21600
B0101409890000012559030APD EXPERTS MANPOWER AND CONSULTANC                      1603
A0101409890000006812973DELORAYA, ABEGAYLE PEREZ DBU                            10503
A0101409890000006812973APD EXPERTS MANPOWER SERV                               20500
A0101407690000005198132BERMASE, ELIZABETH TAN                                   0501
A0101407690652520766005GILNNA M. MALIGAT - DEALERS OF                          10501
A0101407690652520766005SHOECAT INC.                                            20500
A0101407690000010774451TANTAMCO, PAOLO SANCHEZ                                  0502
B0101411530000002641783TRI GONZ FLOWER TRADING CORPORATION                      1601
A0101413440000010659215**********                                               0503
A0101413440000015535072SINGSON, TONI MAY DE LEON                                0501
A0101413990000017513667ABONITA, DIANE VALDEZ                                    0501
B0101414120000001984201KAYAK CONSTRUCTION CORP.                                 1615
A0101406590662035265001******                                                   0502
B0101406590662725736001A.C. MOJARES CONSTRUCTION, INC.                          1610
B1301400340000018043528PET WELLNESS UNITY MARKETING INC.                        1602
A1701400230000005694277SANTOS, ROBERT JOHN SANTELLA                             0501
A0101408240000006600153OCHOA, RIZALINA GUZMAN                                   0502
A0101408240000013983247MAGO, CORNELIO RODEL DACLES                              0502
A0101408240000016574573DE GUZMAN, JENNIFER LOU LORICO                           0501
A0101408240000017266138QUELNAN, MARK JOSE CADIGOY                               0501
A0101408240000008160194FAUSTINO, T DBU                                         10501
A0101408240000008160194DE JURAS TRADING                                        20500
B0101408240000000832484RTI SYSTEM AUTOMATION, INC.                              1610
A0101408240000008160161QUINONES, C DBU CGQ MACHINE                             10501
A0101408240000008160161SHOP                                                    20500
A0101408240711383461001SANG, PAUL OR IRIS                                       0505
A0101408240711396310001LESTER C. VICTORIA OR                                   10502
A0101408240711396310001GIL JOSE E. PULUMBARIT                                  20500
A0101408240711539799001LAGORA JR., LORENZO ROMERO                               0501
A0101408240711643338001ARCAYA, MICHELLE GRASPARIL                               0501
A2801400100000016575003BELGA, MARIEL FERNANDEZ                                  0502
A2801400100000015478187SUNGA, NANCY REYES                                       0510
A4101400260000011418545VILLANUEVA, RUFO ACOL                                    0503
A4101400390000000500472MAPALAD, GEMMA TABUG                                     0501
A4101400390000012157549JAY P. GREGORIO                                          0502
A4101400420000003715542DUCOT, ERNESTO MALLARI                                   0502
A4101400420814478374144JOCELYN TALANA                                           0501
A4101400420814520766138SAN PEDRO, ANA LIZA                                      0502
A4101400420814768923001VIRTUZ, SALVADOR ABAQUITA OR                            10502
A4101400420814768923001VIRTUZ, REBECCA                                         20500
A4101400550000012406585CURABO, SHEILA JAVIER                                    0501
A0101412340000003348747DENNIS OLIVER O. SANTOS                                  0501
A0101412340000003349397VERDICT ED B. VALDEZ                                     0501
A0101412340000003719540EM-EM V. SANCHEZ                                         0501
A0101412340000009501133JOSEPH RAMON L. CAMPOS                                   0505
A0101404840000006365080VICENTE, MENCHIE MONTILLANA                              0501
A0101404840000016575236IGNO, MILAGROS IGNACIO                                   0501
A0101404840851478374115ERLINDA O. PRADO                                         0501
A0101404840851478374135VIRGINIA AGUILAR                                         0501
A0101406750000005608493SOUTHERN HELEVICLE TRADING                               0503
B0101406750000004641645FESTEJO, BIANCA JASA DBU BIANCA                         11605
B0101406750000004641645FESTEJO HAIR STA                                        21600
A0101405070000018101810BAGAIN, JOSELITA NONNATA G. DBU                         10501
A0101405070000018101810JRGB ENTERPRISE                                         20500
A0101405070861197518001RICARDO G. CHAN OR                                      10504
A0101405070861197518001OLIMPIA C. CHAN                                         20500
