A1901400290000000030800JMARK MICROCREDIT CORPORATION                            0505
A1001400190000000124876JENNY CALDERON                                           0501
A0101405490000000126401SONNY A. REMOLACIO                                       0501
A0101402640000000202068**********                                               0503
A0101413990000000206022BAUTISTA, LOLITA SUAREZ                                  0501
A0201400760000000222886JAYME, STEPHEN RODRIGUEZ                                 0502
A0101400150000000253369DELA CRUZ, ANGELA BALASBAS                               0501
A0101408370000000335613LANTO, PEDRO SILVA                                       0501
A0101406750000000358310TRIAS, AGNES DE JESUS                                    0502
A0101402060000000358929ILAYA, FORTUNATO C.                                      0501
A0101408820000000408780********                                                 0502
A0101400150000000807476TAN, PATRICK ANG                                         0501
A0101401250000000907022BALLESCA, ARCELIE CALUMPIT                               0502
A1001400350000000922105FACTURA, JACKELOU CORONEL                                0501
A1101400120000000992394REYES, CRISTINA MARIE OCASLA                             0503
A0101412340000001017503ORDONEZ, MAMERTA ALVAREZ                                 0501
A0101413730000001029543*********                                                0503
A0101410140000001074759CATALUNA, RONALDO GONZALES                               0501
A3001400130000001271556WABINA, JOEL BASADRE                                     0501
A2201400250000001545557CHERYL ANNE C. SALVADOR                                  0501
A0101412890000001765573******                                                   0501
A0101407560000001770812ZALDY-MAR HAULING SERVICES                               0502
A0101410140000001939882BUGAWAN, CORINNA VALIENTE                                0501
A0101400440000002035110EVA D. SAMILLANO                                         0502
A0101406750000002040260TOLENTINO, ROSALINA SABATER                              0502
A0601400520000002085890REMLINGER, MARISSA DE DIOS DBU                           0501
A0301400950000002252051**********                                               0503
A0301400530000002318509********                                                 0502
A0501400170000002354598JOVEN, BONNIE VINLUAN                                    0501
A0101400150000002749615CAINAP, MAY NABO                                         0501
A0301400530000003088048MINER'S CHEMICAL INDUSTRIES COR                          0502
A0101404000000003705684JEMER C ISLETA                                           0501
A0101404000000003705855ALENETTE C ALPAPARA                                      0501
A0101404000000003706341RONALD M CARIZO                                          0501
A0101404000000003706392MARIA LIRA ANGELI C CHANTONG                             0501
A0101404000000003706501VAN RAOUL V DATUIN                                       0501
A0101404000000003706778ARACELI I FRUTO                                          0501
A0101404000000003706847KENDRICK B GOHETIA                                       0501
A0101404000000003706938ARTHUR JOHNSON B JACILDO                                 0501
A0101404000000003707140MELISSA F MENDIOLA                                       0501
A0101404000000003707231CHRISTOPHER N PAGUINTO                                   0501
A0101404000000003707511RODRICK B SANTIAGO                                       0501
A0101404000000003707760VLADIMIR S VALERO                                        0501
A0101404000000003813961NESTOR C GARDON                                          0501
A0101402510000004084662HAN, BO                                                  0501
A0101401700041190295002CHUA, CONSUELO LEE                                       0501
A0101400150061236944159JOYCE L. SO                                              0501
A0101400730111520766061BERNADETT BALUTOC                                        0502
A0101400440161478374189CORAZON C. BOLA                                          0501
A0101400440161525001179EDNA S. VILLENA                                          0501
A0101407140213380988001**********                                               0501
A0101407140213505600001**********                                               0501
A3001400130230478374004BALABA, JANETH BORJA                                     0501
A3001400130230698427001GILOS JR., DEMETRIO FALERION                             0501
A1001400350233478374033CARAOS, PATROSENIA T.                                    0501
A1301400470252518432001**********                                               0510
A1901400290261411419001TERESITA DIMAILIG PERCE                                  0502
A1901400290261488341049DR. JOHN RODOLFO D. SUAN JR.                             0501
A0101406620273236978001CALLEJA, HOWARD MACEDA                                   0503
A0101406620273536554001ONG, RAMON UY                                            0505
A0101400570281378117001SHERYL LYNN PE ACOSTA                                    0505
A0101402480331089359002*****                                                    0502
A0101402480331354947001*****                                                    0502
A0101402060351040443001Q-TECH TESTING LABORATORY                                0502
A0101409050352645570003MYRNA P. CUASAY                                          0501
A0101402640361449691001POLICARPIO, MYRNA OCCIANO                                0501
A0101408370382418088001DR. REGINA P. BERBA                                      0502
A0101408370382431175001EDITA Q. SALUDARES M.D.                                  0502
A0101408370382460206001AVELINO, MARIA MAGDALENA SOYOSA                          0501
A0101402770391398444001LYONS, LAWRENCE JACOB                                    0501
A0101408400394033625002IVAN COMPUTER SYSTEM                                     0504
A0101408400394478374056JENNIFER C. TIMOLA                                       0502
A0101408400394563679001TAN, ELSA ALFORJA                                        0501
A2401400180411023998002ENE MARKETING                                            0502
A0101403580511327851001MARIETA G. DEL ROSARIO                                   0501
A0101407720602288390002ALFONSO U. BENGZON                                       0502
A0101404260611478374028ARNEL N. SANTIAGO                                        0503
A0101404680651520766171JONIS PRELYN MONTILLANO                                  0501
A0101408240711373129001HELEN C. AGONIAS                                         0501
A0101408240711478374022PAGLICAWAN JR., RODOLFO                                  0502
A0101408240711572882001BERONDO, AGNES FIGUERA                                   0501
A4101400390813427399001VILLANUEVA, ELIZABETH MAIGUE                             0502
A4101400420814478374171MICHAEL G. RIBOT                                         0501
A4101400420814520766114BAYER, LOWELYN C.                                        0502
A4101400420814559384001RIBOT, NORMA GAJE                                        0501
A0101404840851212259001ANORMA, MELCHOR R.                                       0501
A0101404840851478374094LETICIA FULLO                                            0501
A0101406330000000162456DAVID, EMMANUEL KAVIN OR                                10501
A1301400500000000213265VINCENT P. JAVIER OR                                    10505
A1601400170000000421190JOHN F. TORROCHA OR                                     10501
A0101407560000000477721SABADO, MARISSA OR                                      10502
A0101405070000001124350DESCALZO, MARIA KHARIN H. OR                            10501
A0101400730111592040001VILLEGAS, GUILLER CONRAD OR                             10505
A1901400290261244447002LETICIA BAYLON HIPOLITO OR                              10510
A0101402060351009359001JIANDANI, SURESH G. OR                                  10501
A0101402060351734699002RAMNANI, MICHAEL CHRISTOPHER OR                         10502
A0101408370382394648002DRS. IRMA GERONIMO TAN NUNEZ OR                         10503
A0101408370382416284001DR. BERNARDITA O. POLICARPIO OR                         10502
A0101405490392654055001ROA, MIGUEL GUILLERMO P. OR                             10501
A1901400160491494343001RAINIER C UNTALAN OR                                    10504
A0101403610531762297001HO, HELEN TAN OR                                        10502
A0101404260611150840001WILLY CHING OR ISIDORA CHING/                           10505
A0101406750852180947001JAIME P. MARANAN OR                                     10502
A0101406330000000162456ORTIGUERO, MARIA THERESA                                20500
A1301400500000000213265TERESITA F. JAVIER                                      20500
A1601400170000000421190ROCHELLE A. TORROCHA                                    20500
A0101407560000000477721SABADO, RIZALDY                                         20500
A0101405070000001124350DESCALZO, LUZVIM                                        20500
A0101400730111592040001JARDIOLIN, MAJAR                                        20500
A1901400290261244447002ERNESTO B HIPOLITO JR.                                  20500
A0101402060351009359001JIANDANI, KAVITA                                        20500
A0101402060351734699002RAMNANI, ASHOK                                          20500
A0101408370382394648002ANTHONY RICHAR G                                        20500
A0101408370382416284001DR. REUBEN D. PO                                        20500
A0101405490392654055001ROA, MA CONCEPCI                                        20500
A1901400160491494343001RELYN M UNTALAN                                         20500
A0101403610531762297001TAN, DOLORES LIM                                        20500
A0101404260611150840001GOLDSUN LUMBER                                          20500
A0101406750852180947001RIZALYNOR G. MARANAN                                    20500
B01014046800000000135508LUDEREY FOOD SERVICE INC.                               1604
B1001400350000000017041LIMKETKAI HOTEL & RESORT CORPORATION                     1610
B0101400440000000029310PERLA COMPANIA DE SEGUROS, INC.                          1602
B0301400950000000566923DAVAO TOPCHING AUTO PARTS                                1605
B0101406460000000712714WEE COMMUNITY DEVELOPERS, INC.                           1603
B0101407720000000885576ACTIMED INC.                                             1605
B0101402770000001571233LEADER GARMENTS CORPORATION                              1610
B0101404420000001959802BLUMEX EXPRESS CREDIT, INC.                              1605
B0101404420000001959813BLUMEX EXPRESS CREDIT, INC.                              1605
B0101412630000002186483SCOOPSHOTS INC.                                          1601
B2801400100000003400506COLLEGE OF SUBIC MONTESSORI SUBIC B                      1601
B0101401700041007609001BLAZER CAR MARKETING INC.                                1605
B0101400150061021085001SEAOIL PHILIPPINES, INC.                                 1620
B0101400150061026597001HONDA MOTOR SPORTS INC.                                  1602
B0101400150061028210001GOLDEN DRAGON MOTOR SALES CORP.                          1604
B0101400150061035190001FUEL USING ETHANOL LTD., INC.                            1603
B0101401830141056758001YANG, JIMMY NG DBU SONLY PRINTING PRESS                  1601
B0101407270162044164001SOLUTIONS EXPERTS AND ENABLERS, INC.                     1605
B0101401380201045990001MORE FUN SOUVENIR CO.                                    1602
B0101406620273046064001OROQUIETA BICYCLE PARTS STORE & SER                      1601
B2001400290315056070001SUMC FOUNDATION, INC.                                    1601
B2001400290315056070002SUMC FOUNDATION, INC.                                    1601
B0101402480331296761004*****                                                    1602
B0101402510341037808001FAIR ALL MARKETING                                       1602
B0101408400394565771001W VENTURES, INC.                                         1602
B0501400170481013109001MOTORCENTER INC.                                         1602
B0101408110515037833001CWS PHILIPPINES INC.                                     1602
B0101406750852041203007AUTOCIRCULO CORP.                                        1610
B0601400230891028118001D.M. AUTO SUPPLY                                         1605
B0101410560000000757200MERCADO AMBULATORY AND SURGICAL                         11603
B0101406590000003007369J.D. LEGASPI CONSTRUCTION/AYLAN CONST &                 11610
B2401400180000003949019PARAICO, TERESITA DELA CUEVA DBU BTS                    11601
B0101403580511005445021MILLENNIUM BUSINESS SERVICE INC FAO NZMP                11601
B0601400230891030219001ALPHA SIERRA INDUSTRIAL SOLUTION CORP.                  11602
B0101410560000000757200CENTERS, INC.                                           21600
B0101406590000003007369TRADING JV                                              21600
B24014001800000039490191920 ENTERPRISES                                        21600
B0101403580511005445021(SEA) PTE LTD                                           21600
B0601400230891030219001(ASISCO)                                                21600
B0101400570281821100608**********                                               2005
