B0101408080514821100608**********                                               2010
B0101402480331821100608**********                                               2010
A0101410720653380605002DR. ANNE MARIE REALISTA PE                              10501
A0101410720653380605002AGUIRRE-ENECO                                           20500
A1101400120000002254811NEJUDNE, JOSEPH SUMAYO                                   0502
A1101400120313478374116MASIN, NANCY KELISTE                                     0501
A0101400150000000807881REYES, NOEL SERRANO                                      0503
B0101410720210047660001PROSERVE MULTI RESOURCES SPECIALIST                      1603
A1101400120000003022566VICENTE, ELENITA ESCUADRA DBU                           10501
A1101400120000003022566ITINERARY THIRTY TICKETIN                               20500
A0101412890000001765506DELA CRUZ, MARK JOSEPH CRUZ                              0502
A4101400260000001135011OMELGO, RAMIL MERSADO OR                                10501
A4101400260000001135011OMELGO, MARIVIC PARAN                                   20500
A0101400730000002900001ANDAMON, ARNEL LOPEZ                                     0501
B0301400790000001776161TAN, CHARLIE SANCHEZ DBU                                11601
B0301400790000001776161CSTAN AQUAMARINE                                        21600
A0101410720000006128792LAUCHENGCO JR., R DBU G.R.O.W.                           0501
A3001400130000000931191RACHO, AGNES ARAGON                                      0501
A0101412890000005944910FLORES, MARIA  AISSA ONG                                 0502
B0101400860011678167001**********                                               1604
A0101400860011685244001BANDIOLA, SIDNEY MORALES                                 0501
A0101401250021509883001JIMENEZ, MA. THERESA HILARIO                             0501
A0101400150000006866386GINEZ, ANGELYN CAHILIG                                   0501
A0101400150000006866400COLMENARES, JOACHIM VICENTE ZUL                          0501
B0101400150000000633094KINETIC PHILS. ELECTRICAL CONSTRUCTION                  11602
B0101400150000000633094INC                                                     21600
A0101400150061360113002MA. CRISTINA LIMJUCO OR                                 10501
A0101400150061360113002ROBERTO LIMJUCO                                         20500
A0101400150000004090497MONTINOLA, JOSE MA. HORACIO GO                           0501
A0101400150061396165001SANTIAGO, MA. SOCORRO SANCHEZ                            0502
A0101400150061617467001HANDA, AKIO                                              0502
B0101400600071233702001FE ZAMORA                                                1601
A0101400600071295528002********                                                 0502
A0101400600071738447001***                                                      0502
A0601400100000006092526*********************                                    0510
A0601400100081040294001MOIKAI INDUSTRIAL SUPPLIES AND                          10502
A0601400100081040294001AUTOMATION SERVI                                        20500
B0601400100000002099107ONG, ANDREW OR ONG,ING LEE OR ONG, ANSON                11603
B0601400100000002099107OR HAO, EMILIA                                          21600
A0601400360083591896001AGARRADO, ARVIN GAUDIA                                   0501
B0101400730111008255001MASAGANA TELAMART, INC.                                  1605
B0101400730111023283001INTRALAND RESOURCES & DEV'T. CORP.                       1605
A0101400730111347787002CHAVEZ, LYNN FLORENTINO                                  0501
A0101400730111386485175IVANHOE O. MARASIGAN                                     0502
A0101412630000002040540BUE, JACQUELINE TAN                                      0502
A0101412630000006867652RAMOS, JOHANSON BURCELIS                                 0501
A0101401830000006839241CIRIACO C. PASTRANA JR. OR                              10501
A0101401830000006839241EDMUNDO B. CADAVONA                                     20500
A5001400170000003324041BOMBEO, BEODALDY PATERNO OR                             10502
A5001400170000003324041BOMBEO, JANNIE CHU                                      20500
B0101412920000000276562ALPHA STONEWORKS ENTERPRISES                             1602
B0101412920160057439001VILLAMOR, ROA NATURAL DBU HOLY ROCK                     11602
B0101412920160057439001BUILDERS                                                21600
A0101407270000006817047LEONA PAULA MORALES OR                                  10501
A0101407270000006817047IRENE MAGLASANG                                         20500
A0101407270000006869723ESPINOSA, MARIA NARCISA AGUILAR                          0501
B0101407270000000830551POULTRYMAX OMNIS, INC.                                   1605
A0101407270162377333003******                                                   0501
A0101401090171197794001PERLINA M. PENAFLOR                                      0502
A0101401090000000993295VALMOJA, ESTELA OR GERARDO OR                           10501
A0101401090000000993295VALMOJA, ROQUITO                                        20500
A0101401090171791624001MARIBEL B. GARCIA                                        0501
A0101401380000001412457RUBIANO, NICOLE C. DBU                                  10501
A0101401380000001412457NCR DENTAL CLINIC                                       20500
A0101410720000000053238RONALDO C. MANUEL OR                                    10501
A0101410720000000053238IRENE A. MANUEL                                         20500
A0101410720653478374048VILLAFLOR E. OPELADA                                     0501
A3101400450223478374005DE LEON, MA. FE G.                                       0501
A3101400740224771231001VILLASANTA, MELANY LUMABAO                               0501
A1001400190231463797001DECANO, CESARIO PIZANA                                   0503
B1001400350233042688001SOLIDMARK, INC.                                          1605
A1001400350233653751008CHABON JR., JUDE OR                                     10502
A1001400350233653751008CHABON, CLAIRE                                          20500
B0101411110276047438088VANTAGEONE FINANCING CORPORATION                         1601
A0101412470000000520192ARCA, ESTHER DBU WASABE SPICE                           10503
A0101412470000000520192OF THE ORIENT                                           20500
A1101400120000003981271BUSTAMANTE, CS GIDEON GRANIL                             0503
A2001400290000004444440PO, LESLEY UY                                            0505
A0101402350000000145640PATRICK E. YAP                                           0501
A0101402350321455174001CARVAJAL, DOROTHY S. OR                                 10501
A0101402350321455174001CARVAJAL, KIM APPLE S.                                  20500
B0101405650000005381886SMS CEBU, INC.                                           1610
A0101405650000003893556OPRECIO, ERWINA ZABALA                                   0501
A0101405650322703967001VIVO, ELEANOR A. OR                                     10501
A0101405650322703967001VIVO, ROMEL B.                                          20500
A0101409050352694168001********                                                 0505
A0201400920000002250011FELIX S. TAN OR SANDRA MAE TAN                          10501
A0201400920000002250011OR SAMANTHA ALYSSA Y. TAN                               20500
B0201400920375047524001CUBAROL, VILMA SARMIENTO DBU                            11605
B0201400920375047524001NEW FRONTIER LOG                                        21600
A0201400920000002804504BARENG, NATHALYN C.                                      0503
A0201400920375478374008OLELA, DONATILLA OMELGO                                  0501
B0201400890376037020001BREEDERS AGRIVET SUPPLIES INC.                           1605
B0201400890376041610001SOUTH SEAS CARGO FORWARDERS INC.                         1605
B0201400890376046394001GREENWORLD LED SOLUTIONS, INC.                           1602
B0101408370000000014586THE MEDICAL CITY DEPARTMENT OF MEDICINE                 11601
B0101408370000000014586INC.                                                    21600
A0101408370382319789001ROCHELA B. CUAYCONG OR                                  10502
A0101408370382319789001CESAR A. CUAYCONG                                       20500
A0101408370382433883001DR. RONALD AUGUSTINE O. CAMPOS                           0501
A0101408370382461772001MACARR_PARKING CORP.                                     0501
A0101408370382677453001TERESITA CELESTINO HOWARD                                0502
A0101411660000002309520DELA CRUZ, LIZABETH RONGAVILLA                           0501
A0101411660000002309417ROMERO, MICHAEL LAGMAN                                   0505
A0101402770000000360530MARIA ESPERANZA E. GUTIERREZ                             0502
B0101402770391046279001LEGACY RENOVE INC.                                       1610
A0101402770391764626001TORRES JR., FIDEL S. OR                                 10504
A0101402770391764626001TORRES, MARIA CECELIA V.                                20500
B0101409180397061109001PRESTIGE PEOPLE SOLUTIONS INC.                           1601
A5501400120410079529001DENOSTA, ERLYN DUMAQUITA                                 0501
B2401400180411036177008VERTICAL BUILDERS                                        1605
A2401400180411478374020MORI, LYDIA                                              0501
B1201400150421496291001LIQUETE, DOLORES SAGUID OR LIQUETE,                     11601
B1201400150421496291001LEONARDO                                                21600
A0901400220000002300845LIM, RENEEROSE VESAGAS                                   0501
A0101410140000001940085LOWELA FELIPE                                            0501
B1901400160491026197001OMEGA MANPOWER MANAGEMENT CORP.                          1610
A1601400170000001068662MARIA JULIETA I. SALVOSA                                 0501
A0701400260000003259432ZAMORA, JULIUS SOPENA                                    0503
A0101407430503417249001MA. CECILIA R. CRUZ                                      0501
B0101405940000000002773BT AUTO SPORT CORP.                                      1605
B0101405940000003571737HOT DISK CORP.                                           1602
A0101408110000001165811ALBARICO, MARIA CHRISTINE V.                             0501
A0101408530000000136310MIRABUENO, PIERRE PAULINE                               10502
A0101408530000000136310RIVERA                                                  20500
A0101408530516629972001ESTACIO, DANIEL LLANTO                                   0502
A0101411790518701706001********                                                 0504
A0101404000551542750001LATAP, EUFEMIA RESURRECCION                              0501
A0101410690000002290724TE, WILLIE ANGBUE                                        0501
B0101404130000000001321PARADIGM DEVELOPMENT CORPORATION OF                     11605
B0101404130000000001321THE PHILIPPINES                                         21600
A0101407720602396498002CAPISTRANO, MA. EVELYN TORRES                            0501
A0101407720602397425001HENSON, MARIA THERESA GUEVARA                            0501
A0101407720602397745001DE JESUS, CELESTINA MARCOJOS                             0501
A0101407720602515940001TIGLAO, JENNIFER THERESA                                10501
A0101407720602515940001GONZALES                                                20500
A0101407720602527643001IGNACIO, ROBERTO GERARDO MASLOG                          0502
A0101404260611025464001STEWELL KLEEN JANITORIAL                                10505
A0101404260611025464001SUPPLIES & SERVI                                        20500
B0101404260611041703001BKM PLUMBING SERVICES                                    1601
A0101404260611410374002ESPINOZA, GENEROSA B.                                    0502
B0101414120000003584281JD & P FOOD TRADING CORPORATION                          1602
A0101414120000004603121FLYRYNE TRAVEL AND TOURS                                 0502
A1301400210682582829001ELENA G DEL ROSARIO OR                                  10503
A1301400210682582829001VICTORIA G DEL R                                        20500
A1301400210682782329001IMELDA R LANUZA OR                                      10501
A1301400210682782329001REGINO A LANUZA                                         20500
B1301400340000000982087********                                                 1601
A1301400340683542735002BIUNAS, REMEDIOS GREGORIO                                0502
B0101408240711036897001EVER THEATRICAL, INC.                                    1601
A0101408240711379193001MARIA LEAH OR MARTIN LORENZO                             0504
A0101408240711384215003LOURDES GRACE MAPALAD                                    0501
B2801400230000005253561PRAGMATIC DEVELOPMENT & CONSTRUCTION                    11605
B2801400230000005253561CORP.                                                   21600
A2801400230000000937480ROLDAN, RUTH MARIE ALBANO                                0501
A4101400260000000541115VILLA, APRILLE PANGALIMAN                                0501
A4101400260000005333357TAN, JAYSON LIM                                          0505
A0101404840000003069981ATIENZA, SHIRLEY                                         0501
A0101404840851478374071MARITESS C. CASARILLA                                    0501
A0101404840851791747001BALMES, GERVACIO OR SARADAT,                            10501
A0101404840851791747001MONICA OR GALLAG                                        20500
A0101405070000000741326BELLEZA JR., RAFAEL TABANG OR                           10501
A0101405070000000741326BELLEZA, SHEIRLEN PALAY                                 20500
B0601400230000000029941ST. THERESA DIALYSIS CENTER, INC.                        1610
B0101415640012102000014**********                                               2002
