A4101400550000000425170BEB, MERCURY P                                           0510
A0101400310000000140872ARANA, EVANGELYN                                         0502
A0101406750000000358230INCLAN, SANDRALIE SERRA                                  0501
A0101402060000000358612PACIFICO ERIC E. CALDERON MD                             0501
A0101410140000000482702LABASTIDA, ENGRACIO DOTOLLO                              0502
A0101410980000000533726ELLARINA JR., ILDEFONSO LAMBOT                           0502
A0101410690000000710672BADE, MINERVA V DBU E3V ENTERPRISE                       0502
A0101403320000000736061PANOGA, LYNN NOCUM                                       0501
A4101400390000000975173NOAH'S ARK MANPOWER SERVICES                             0503
A0301400790000001010620SIMON, DIOSEE GENTILES                                   0501
A0101407140000001218422BACARRO, MELANIE ABARETA                                 0501
A6601400120000001370627NIKKI C DELA CRUZ                                        0501
A1301400340000001415769********                                                 0501
A0101404130000001614502TANO, JOEL LUTERO                                        0501
A0101403320000001646631SANTIAGO, LEILANI SANTIAGO                               0502
A0101404260000001725515MEMBERS OF NATASHA (SHOECAT INC                          0502
A4101400390000001732781CAFUIR, MA. JESUSA FUERTE                                0501
A0101403320000001803076GODOY, MERRICK JAMES ESTRELLADO                          0501
A0101400600000002335651PAMINTUAN, DAHLINE THURS                                 0502
A0101400440000002639176ALTAREJOS, JOSELITO ONTOG                                0501
A0101400150000002749579ALVAREZ, RODERICK GIANAN                                 0502
A0101400150061383637001DE GUZMAN, CATHERINE YANG                                0501
A0601400100081478374001SANCHEZ, REGINA OR JERRY                                 0504
A0101400730111386485042ELENA B. PEREZ                                           0502
A0101401960121444286002**********                                               0501
A0101400310211478374049ANITA S. MARTIREZ                                        0501
A3101400160221220163001AZUCENA R. BEREDO                                        0501
A3001400130230767566064BALAHAY, ETHEL OCULARES                                  0501
A1301400470252763998001BEVERLY C. EVANGELISTA                                   0502
A0101400570281022921001SALON DE ORIENT                                          0503
A0101400570281399721002JOFFREY OR JORDAN UY                                     0501
A6601400120314624040001BATULA, MARICIL OR RICARDO                               0504
A0101402350321455602001ISAAC JAMES D. JIMENEZ                                   0502
A0101408820333478374062SANDRA G. BUENO                                          0502
A0101402640361168317002**********                                               0505
A0101408370382205302001DR. ARDEA ARDEOLA RABOR                                  0502
A0101408370382318435001ARMANDO E. QUINTONG                                      0502
A0101408400394444684001**********                                               0502
A0101403320471664135001JARAPLASAN, LEONARDO ELECHOSA                            0501
A0101403580511156599042EDELMIRA Z. ALAMBRA                                      0503
A0101403580511156599049MARTIN MONARBA                                           0501
A0101405940512558822002**********                                               0502
A0101403450521012086001**********                                               0502
A2201400250561509420001ALMA D. PAGADUAN                                         0501
A2201400250561529504002*****                                                    0502
A0101408240711375064001DR. MARILYN P. CALILUNG JT                               0501
A0101408240711478374015EMILY MONTILLANO                                         0502
A4101400260812478374075RACHEL PALOQUIA                                          0501
A4101400260812544647001ESMERALDA D. BARAOIDAN                                   0502
A0101404840851478374116TRIXIA B ABEJERO                                         0501
A0601400230891788658001LENON, DIOSDADO MANLUTAC                                 0501
A0201400760000000223156TORRES, NELSON ANDREWS OR                               10502
A0101412340000001017918ASERON, FELINITA R. OR                                  10503
A0101412340000001017929ASERON, FELINITA R. OR                                  10503
A0101401090000001618708CAYETANO C. JIMENEZ OR                                  10501
A0201400760000002047161RKONSTRUCT CONSTRUCTION                                 10504
A2401400180000002146276ARINZOL, CHRISTOPHER CASERIAL                           10505
A0101400310211157436001GERONIMO TAN OR FRANCIS TAN                             10505
A0101400310211799830001ESPIRITU, EDGAR DBU CHRISTIAN                           10503
A0101402350321179301001PABLO PEFANCO OR                                        10501
A0101402350321618389001ELVIRA V. MAGLONZO OR                                   10502
A0101408530516556974001CASTILLO, RUSSELL C. OR                                 10501
A0101404260611150906001ELEUTERIO T. TAMAYO SR. OR                              10501
A0101404420631163183001HENRY GALSIM OR                                         10520
A0101409890649723947002TONGOS, ROMARICO MACARANAS OR                           10501
A0101406590662594215001SISON JR., VICTOR OR                                    10501
A0101408240711383150001AURELIO III OR AURELIO JR.                              10501
A0201400760000000223156TORRES, ASUNSCION G.                                    20500
A0101412340000001017918MANUTO, JAMILLE MAE A.                                  20500
A0101412340000001017929MANUTO, JAMILLE MAE A.                                  20500
A0101401090000001618708REBECCA Q. JIMEN                                        20500
A0201400760000002047161SERVICES                                                20500
A2401400180000002146276DBU BLT HARDWARE                                        20500
A0101400310211157436001OR JOHN TAN                                             20500
A0101400310211799830001PRINTING                                                20500
A0101402350321179301001ERLINDA PEFANCO                                         20500
A0101402350321618389001MARICRIS V. MAGLONZO                                    20500
A0101408530516556974001CASTILLO, CHRIST                                        20500
A0101404260611150906001ERLANDY TAMAYO                                          20500
A0101404420631163183001VIRGIE GALSIM                                           20500
A0101409890649723947002TONGOS, RALPH JU                                        20500
A0101406590662594215001SISON, MA. ANGELA                                       20500
A0101408240711383150001OR AARON LITONJUA                                       20500
B1001400350000000017041LIMKETKAI HOTEL & RESORT CORPORATION                     1610
B0101402060000000022777PORK PRODUCERS FEDERATION OF THE PH                      1602
B0101401250000000057258EXCEL PRO PLACEMENT AND SERVICES, INC.                   1602
B0101406750000000090782MANTECH CORPORATE SUPPORT INC.                           1610
B0101410980000000171975AMMC - AVERY MANILA MARKETING CORP.                      1602
B0101410980000000171997FUNTOURS TRAVEL CORPORATION                              1601
B0101413730000000469676MADRIGAL TRADING CO., INC.                               1601
B0101400150000000633425GOOD PROVIDER FINANCING AND LEASING                      1602
B0101411400000001280513YOSHIMO ONLINE SHOP                                      1601
B0101410690000001284395PANSOL TRADING                                           1601
B0101404840000001312452EL ORO MEDALLIC ENGRAVER CORP                            1601
B0101404840000001312463LF GLOBAL LOGISTICS SOLUTIONS INC.                       1602
B6601400120000001370850NITA ENTERPRISES                                         1601
B0101400310000001621578CORDERO, CHERYL DBU POLYRICHE TRUCK                      1601
B0601400360083043705001JTO EVERLAND RESORT CORPORATION                          1601
B0101407140213015323001AUTOCITY INC.                                            1602
B0101407140213510054001FULL CIRCLE EVENTS ASIA, INC.                            1604
B3101400160221033214001RD CASH PADALA, INC. AREA 02                             1603
B1001400350233013980001VIC IMPERIAL APPLIANCE CORP.                             1603
B0101411240283046060001GRAND STAR GENERAL CONTRACTOR                            1603
B0101402350321037708002RD CASH PADALA, INC.-AREA 1                              1603
B0101402350321046288001TMI FOOD PROCESSING & DEV. INC.                          1603
B0101408820333041843001SERVICTORY CO. LTD.                                      1601
B0201400760374036911001CEBU ATG REALTY DEVELOPMENT CORP.                        1601
B0101402770391033539001VICTORIA VALLEY ASSOCIATION, INC.                        1602
B2401400180411037975001ELZANO WORLD VENTURES                                    1601
B0101404130601045903001SEIKI DIGITAL PH INC.                                    1602
B0101406590662038794001PRISMODIAL CONSTRUCTION CORPORATION                      1606
B0101406590662744080002MARKETMIX TRADING INC.                                   1602
B2801400100712031823001REYES, DIANO, TUMANDA & CO.                              1602
B4101400260812043808001UPLIFT CAVITE HEAD OFFICE                                1605
B0101406750852033630001NEO-TES CONSTRUCTION SERVICES                            1601
B0201401020000000005034PINOY ENTREPRENEURS FOR SUSTAINABLE                     11602
B3801400170000000018722ANTONIO OR ZENAIDA OR WESLEY CATIBOG OR                 11610
B0601400100081253610002NG, WILFREDO M. AND AQUINO, JANET B. AND                11601
B2601400270302733483001JENNIFER OR EMILIA TALAVERA OR GAUDIOSO                 11605
B0101402350321031714001CROWN CRIS INDUSTRIAL SALES AND                         11602
B0101403320471019960002DIRECT ELECTRIX EQUIPMENT                               11605
B4101400390813016813001GENERAL CHEMICALS & RESINS                              11601
B0201401020000000005034OPPORTUNITIES                                           21600
B3801400170000000018722HAZELYN ACEDERA                                         21600
B0601400100081253610002BUAN, ROLAND S.                                         21600
B2601400270302733483001TALAVERA JR.                                            21600
B0101402350321031714001MACHINE SHOP                                            21600
B0101403320471019960002CORPORATION                                             21600
B4101400390813016813001CONSORTIUM                                              21600
B0101413020209821100608**********                                               2002
