A0101408370382205140001DR. PAULA  A. ALONZO OR                                 10502
A0101408370382205140001DR. DANIEL M. ALONZO                                    20500
A0101408370382212341001ENGR. LEORICO E. SAMONTE OR                             10501
A0101408370382212341001DR. CRISTINA C. SAMONTE                                 20500
A0101408370382205151001DR. JEANE JUDAN AZARCON                                  0502
A3101400870000002327960GABA, RODRIGUEZ ALIWALAS                                 0502
A0101412210000004644582PAYABYAB, SHEENA ROSE CHUA                               0501
A0101412890000001056393GERONIMO, M DBU A.M.-M.A'S                              10501
A0101412890000001056393BAKERY                                                  20500
A0101404000551404835001REGINO, MA. CECILIA FERNANDEZ                           10502
A0101404000551404835001OR REGINO, RODOL                                        20500
A4101400550000004846824PANGAN, S DBU SDP REALTY                                 0502
A4101400550815478374008LORELYN C. PARCIA                                        0502
A0101400150000000806906DE LEON, CAROLINE TUAZON                                 0501
A0101400150061232035003NORBERTO REYES OR                                       10501
A0101400150061232035003SOLEDAD REYES                                           20500
B0101400150061534780001STRAITS WINE COMPANY WHOLESALERS, INC.                   1602
A0101400600071233729001**********                                               0501
B0601400100081039107001REPLICAS MARITIME & AVIATION MODELS INC.                 1604
A0101414090000006211234******                                                   0503
A0101400730111375290001TOLENTINO, NERREN VIRAY                                  0510
A0101400730111567859001TORRES, SHARON PELAYO                                    0501
A0101406040000000097001********                                                 0501
A0101406040112094295001********                                                 0501
A0101413150000003208175******                                                   0503
A0101412630000006706129NAMOC, REX BARNES                                        0501
A0101413310000004626795HYUN, SUNG EUN                                           0502
A0101401830000001139953ROSEMARIE S. NOJADERA OR                                10501
A0101401830000001139953ISAGANI M. NOJADERA                                     20500
A0101401830141377758001********                                                 0501
A0101412920000003465121MACAALAY, MALOU ANICETE                                  0501
A0101401090000003835916NOVIO, RONA REGADO                                       0502
A0101401090171336336002IRENE P. EVANGELISTA                                     0501
A0101412500000006708336TAN, JEROME MONTIERO                                     0502
B3101400740000000013914BETA NANOCOATING PHILIPPINES INC.                        1602
A3101400870000006708530BALLARES, RENELYN RODIS                                  0501
A3101400870000000957655BITHAO, C DBU BP-1 CAR AUDIO                            10502
A3101400870000000957655AND ACCESSORIES                                         20500
A3101400870000005565211VALERIO JR., E DBU WEBER                                10502
A3101400870000005565211FORWARDING SERVICES                                     20500
A1001400190000000124821GONZALES, ROSELYN TUMOPAS                                0501
A1001400480000003357715OCERO, SHERLITA TUPAS                                    0501
B1301400470252033145001CABANATUAN CATHOLIC EDUCATIONAL                         11601
B1301400470252033145001SYSTEM                                                  21600
B1901400290261047635001SYLPAULJOYCE CORPORATION                                 1604
A1901400290261323470001MYRA ELENA ARANDA COZ                                   10502
A1901400290261323470001OR EUGENE LAROZA COZ                                    20500
A1901400290261390520001JOEL PUNZALAN DIMAANO                                    0502
A1901400290261470375002NORA BUQUIR MIRAL                                        0501
A1901400290261515705001WILLIAM K UMALI                                          0501
B0101406620273017284001ACCENT MICRO TECHNOLOGIES, INC.                          1605
B0101406620273017460002ACCENT MICRO PRODUCTS, INC.                              1605
A0101406620000004926063GARCIA, D DBU A2H ENTERPRISES                            0501
A0101406620273306796025MYLENE J. BICO                                           0501
A0101406620273771081001DE GUZMAN, MARY JEAN NARIO                               0501
A0101400570281054795001JIROVEL ENTERPRISE                                       0502
A0101411240000005135922CALLANTA, JUANCHITO DE GUIA                              0501
B0801400160311025736001CMC WORLD WIDE TRAVEL & TOURS                            1610
B0101405650000000772630PTP MOROLLING MARKETING                                  1601
A0101405650322172156002AGUILAR, MELINDA NAVARRO                                 0501
A0101405650000000525740SARTE, EVELYN CORTEZ                                     0504
A0101402060351009385001JORGE ALOMBRO JR. OR                                    10505
A0101402060351009385001NELIA ALOMBRO                                           20500
A0101408370000005220142******                                                   0501
B0101408370000001991659TAYLORMADE CONSTRUCTION AND REALTY                       1610
A0101408370382288390002DR. ALFONSO U. BENGZON                                   0502
A0101408370382433161001DR. ANTHONY MARC B. ANCHETA OR                          10502
A0101408370382433161001DR. CELINA Z. ANCHETA                                   20500
A0101408400394666776001DILLERA, ESPERANZA RICARTE                               0503
B0101412210000003448742NOLASCO INTERNATIONAL MEDICAL AND                       11603
B0101412210000003448742DIAGNOSTIC                                              21600
B1201400150421035995001CHRIST EPISCOPAL CHURCH AND CREDIT                      11601
B1201400150421035995001COOPERATIVE                                             21600
A1201400150421329088003DR. LILY MUNSAYAC-SUNGA OR                              10502
A1201400150421329088003DR. BENITO V. SU                                        20500
A1201400150421373246001GO, JOHNSON CHEONG                                       0501
A0901400220000001805090**********                                               0502
A0101403030441239078001**********                                               0501
A0101403030441239078002**********                                               0501
B0101403030441382008001**********                                               1602
A0101403030441707375001**********                                               0502
B0501400170481250825001CHUA, EVANGELINE G./ GAPUZ, IMELDA G./                  11601
B0501400170481250825001SIY, ELIZABETH G                                        21600
A0501400170481485605001MACARAEG, MERIAM REASONDA                                0504
B1901400160491046052001BANAPRA DEVELOPMENT COOPERATIVE                          1603
A1401400110000003475832RADONES, ARIEL SACRISTIA                                 0502
A1401400110492047646001ALCANTARA, MARIO DBU JOCALDAR                           10501
A1401400110492047646001ENTERPRISES                                             20500
B0101407430503039663001ACES CHASSIS MANAGEMENT AND MARKETING                   11610
B0101407430503039663001CORP.                                                   21600
A0101403580511150661003CELIA O. ANGELES OR                                     10501
A0101403580511150661003ALEXIS A. ALCANTARA                                     20500
A0101403580511420184003MARIA CAROLINA S. MACASAET                               0525
A0101403580000000016053MARIA CARMINA S. MESIAS                                  0508
A0101403580511771223001CHERILYN FADERAGAO                                       0501
A0101405940512558822002**********                                               0501
B0101408110000003281434CYBERONE.PH, INC.                                        1601
B0101408530516032963001387 AUTO CENTER, INC.                                    1601
A0101411790000000576034LEMON II, CARL MARK                                      0502
A0101411790518055764246MAHINAY, JOHN PATRICK MONTILLA                           0501
A0101403450521241173001**********                                               0502
A0101403610531221282002ZAGUIRRE, WALFREDO ALCANTARA OR                         10502
A0101403610531221282002ZAGUIRRE, JULIETA T.                                    20500
B0101407720602029151001R.H. CULLEN MEDICAL CLINIC                               1601
B0101407720602035999001GALLANTRY SECURITY & INVESTIGATION                       1605
A0101407720000005100194BERNARDO, CARMINA GRECIA                                 0501
B0101407720602531638001ESCADA DE ORO HOLDINGS, INC.                             1601
A0101409890000003097983DY, SHERWIN PATRICK OR DY, EILE                         10501
A0101409890000003097983EN OR QUE, FRANCISCO ONG                                20500
A0101409890000003097994QUE, ELENA DY OR QUE, FRANCISCO                         10501
A0101409890000003097994ONG                                                     20500
A0101409920000001951919MEMBERS OF NATASHA (SHOECAT INC                         10501
A0101409920000001951919ORTIZ, GINA H                                           20500
A0101413440655054477001LAND FIRST REALTY                                        0501
A0101413570000002249367MA. ROMINA M. MATEO                                      0501
A0101413570000004353855SUPERA, FEBE B.                                          0502
A0101413990000000205898**********                                               0502
A0101414120000002879743DE GUZMAN, JENNY MERLIE APOLINA                          0501
A0101414120000006005390EVANGELISTA, IMEE MALAGAYO                               0501
A0101414120000000398892A.R.P. TRUCKING                                          0502
A0101414120000003584190EQUAL TRADE ENTERPRISES                                  0509
A1301400210682045774001POP WASH LAUNDRY SHOP                                    0502
A1301400210000000540776EDNA S ENANO                                             0505
A1301400500684761703001DELOS SANTOS, MILLETTE MERCADO                           0501
A0101408240711534497001LACUESTA, ANTHONY GERVASIO                               0501
A2801400100712278476001UYGONGCO JR., JOSE ROBERTO JT                            0502
A4101400390813292154001ANGELO OR MARIE LYN MOLATO                               0502
A4101400550815478374001ONAYAN, CAROLINA BAUTISTA                                0501
A0101404840000000943248ROMINA LOZANDE                                           0501
A0101404840851520766122NENA REUTEREZ                                            0504
A0101404840851520766189DIAGO, MARY JANE                                         0501
B0101406750852041203001AUTOCIRCULO CORP.                                        1610
A0101405070861629632001GONZALES, NOLINA QUINONEZ                               10501
A0101405070861629632001OR GONZALES, LOU                                        20500
A0601400230000002310138MIRANDA, RAYNES CALILUNG                                 0502
