A0101410980000000012528********                                                 0501
A0101404680000000013509VILMA D. SAGAY                                           0501
A0101405070000000028782MALATA, ANAMER CABRILLOS                                 0501
A1901400290000000030684ARNOLD ADELIN EXTRA                                      0501
A0101411950000000036217LAZARO, RAYMOND FAUSTINO                                 0501
A0101413440000000038071VIRGINIA D. FLORES                                       0501
A0101402350000000145571GOSGOLAN, JOSELINA SARIO                                 0501
A0101409890000000209163CAMBRONERO, ELENITA APO                                  0502
A0101412920000000276460OBTINALLA, RODELIA NELMIDA                               0502
A0101412340000000319497PINEDA, IMELDA PEREZ                                     0502
A0101408240000000347288MIRCHANDANI, SHERYL SHAM JT                              0501
A0101412890000000371402RUTH A SIENES                                            0501
A0101408400000000403847BALOLOY, RODELIA MORALES                                 0502
A0101406330000000451370VILLARANTE, MARIA LUZ PELAYO                             0502
A0101405940000000505764SALCEDO, RICHARD REODIQUE                                0501
A0101408790000000579379DARIUS S. TENERIFE                                       0501
A0101400440000000596629ZENAIDA O. CALLEJO                                       0501
A1101400120000000652420MACATO, JUANCHO CUA                                      0502
A0101401380000000682582********                                                 0502
A0101403320000000735717BAUTO, GUADA LYNNE CASTILLO                              0501
A0101404680000000766963NEMESIO C. DELIGERO JR.                                  0501
A0101402480000000794470BALENA, EMELYN                                           0501
A0101404680000000862248CHUA, WESLEY CHAN                                        0501
A0101404680000000862271ROSALES, SALUD CALIBARA                                  0501
A0101403580000000922770CATALINA ORTEGA GUEVARRA                                 0502
A0101404680000000940829VIRGIE C. CAIS                                           0502
A3101400870000000957757BALLESTER, RAQUEL DEL ROSARIO                            0501
A0101407270000000997726LEONARDO V. CELESTIAL JR.                                0501
A0101412890000001056148**********                                               0501
A5501400120000001122063NAVARRO JR., ROMERICO BALUYOT                            0501
A0101408530000001268333QUIBALLO JR., GAUDENCIO SABINO                           0501
A0101409210000001294628NETREV MARKETING                                         0502
A0101412920000001313933MARASIGAN, FERDINAND MATUNDAN                            0501
A1901400290000001363064MARIANO BENEDICTO GUTIERREZ JR.                          0501
A0101405650000001377442MARY ANGELAINE J. LIBANAN                                0505
A0101400440000001439998KIMPO JR, AUGUSTO HAMOY                                  0501
A0101412050000001499705PADIERNOS, E DBU ORIGINS HOME F                          0501
A0101404680000001617301GABION, MARISSA FORMANES                                 0501
A0101403320000001646777MYRNA M. CRISOSTOMO                                      0501
A0101412890000001765573******                                                   0501
A0101412890000001765580EUGENIO, EMENILDA CARO                                   0501
A0101412630000001823241AGUSTIN JR., WILFREDO MUECA                              0501
A1901400290000001926445VICENTE DUPITAS SANTIAGO JR.                             0502
A0101402480000001927740*********                                                0505
A0101400440000002034920MARY GRACE S. UGAT                                       0501
A3101400870000002723402GUANZON, CRISTINA TUNGOL                                 0501
A3101400870000002727604MORCOZO, SIDNEY JOHN BAUTISTA                            0501
A0101400860011375281002**********                                               0502
A0101400860011491304001**********                                               0510
A0101400860011496636002**********                                               0503
A0101400860011557547001**********                                               0502
A0101400860011575074001**********                                               0502
A0101401250021298552002CLARITA ARCEGA                                           0502
A0101400150061331787095MAYBEL G. DANTES                                         0501
A0101400150061469895001MENDOZA, JULLIENE MARY ABELIDA                           0501
A0601400100081507583001CANLAPAN, MARICAR TAPNIO                                 0501
A0101406040112687823001********                                                 0502
A0101407270162203204001OGIE P. DIAZ                                             0501
A0101407270162333003004MAURO C. AGUSTINES                                       0501
A0101407270162629425001CO, LOLITA SY                                            0502
A0101407270162661881001ALCANTARA, LEONARDO ARAZA                                0504
A0101407270162739083005RICHARD A. CHAN                                          0501
A0101401380201016338001ELECTRO-R023 ENTERPRISES                                 0502
A0101401380201079813001CHOI, JIANN                                              0502
A0101401380201436370001MONSALE, MENLY ABENOJA                                   0501
A0101401380201503228001CATANES, RONALIE PEREZ                                   0503
A0101407140213023148001**********                                               0502
A0101407140213191178001**********                                               0501
A0101407140213429359002**********                                               0504
A3101400740224481227002JABOLA, MICHAEL CONTRERAS                                0502
A3001400130230478374025DECAMOTAN, JOCYGLIN VILLAMOR                             0501
A1901400290261048991001DRA EDELWISSA ILAGAN GUTIERREZ                           0501
A1901400290261488341181MARIA SOCORRO KATIGBAK ATIENZA                           0502
A0101406620273511411001MORALES, APRILYN MARQUEZ                                 0502
A0101400570281385805001MARIA ELENA T. LAGNITON                                  0502
A2601400270302560511002RONALD PAUL B. BENITO                                    0502
A0801400160311265752001DIVINAGRACIA, LLANE GRACE                                0502
A0801400160311687864001LATAQUIN, PHILIP JOEL P.                                 0501
A0101402350321708802001ALMAROSE C. VILLAPANDO                                   0501
A0101402480331093748001RURAL, MYRNA DIAZ                                        0505
A0101402480331219134001ROSALINDA A. CAYABYAB                                    0501
A0101402480331220621001*****                                                    0502
A0101402480331520766083SOCORRO, RUBELYN ESPINOSA                                0501
A0101402480331520766088ROSELYN M. ATANOSO                                       0501
A0101402480331536363001***************                                          0502
A0101408790383705873006AUGUSTO G. LEONARDO JR.                                  0501
A0101402770391300107001REV. FR. ALBERT THOMAS B. TAN                            0501
A0101408400394471974002PESICO, GINA GERALDINO                                   0501
A0101408400394478374063LACSON, MARITES                                          0502
A0101408400394478374080FIESTADA, PINKY                                          0501
A0101408950396389054001LUZ, XERES DIMALALUAN                                    0501
A0101408950396564675001MARTIN-BRAGANZA,SAMANTHA CLAIRE                          0502
A0101412210399094817001JANE T. URBANEK                                          0501
A2401400180411032438001DADIANGAS AUTOWORLD PARTS                                0505
A1201400150421478374014PERIDO, MARY JANE                                        0502
A0101406330472022555001AUDIO EXCELLENCE MARKETING                               0505
A0101406330472027958001A. ANOLIN ENTERPRISES                                    0502
A0101406330472041459001PROTECH SECURITY MARKETING                               0505
A0101406330472298552011CARINA F. FALQUERABAO                                    0501
A0101407720602161917001GOYLOS, LORENA CALVO                                     0501
A0101407720602715175001LACONICO, MINERVA MAGNO                                  0501
A0101404680651041629001JDC ADVERTISING                                          0501
A0101404680651230380001ROMEO C. RUBI                                            0501
A0101404680651298552042SUSAN R. TANA                                            0501
A0101404680651415804001HEDDA U. SOLIS                                           0501
A0101404680651478374114ARNALDO E. DELOS REYES                                   0501
A0101404680651488172001TILLO, THERESA SAYLON                                    0501
A0101404680651520766157LUZVIMINDA P. ALAGADMO                                   0501
A0101404680651572326001NECITA Z. QUINTO                                         0501
A0101404680651662738001JAVISON, MUSTIOLA ORO                                    0502
A0101413440655053854001LMOP NAIL AND WAXING SERVICES                            0501
A0101410300663776849001******                                                   0502
A0101408240711501043002ESPINOSA, FRANCIA RICAFRENTE                             0501
A4101400390813359800001GRASPARIL, ROSITA LEGASPI                                0502
A0101404840851424338001PAMITTAN, MYRNA M.                                       0503
A0101405070861478374054LUZVIMINDA T. PONTANAR                                   0501
A0101405070861526695001CARIGMA, REYNAN ALEJO                                    0501
A0601400230891664298001ALMARIO, RENATO SICAT                                    0504
A1901400290000000030695LEONILA ARIZO POTAYRE OR                                10501
A0101413280000000041852OLA, EDAM CRUZ DBU HIJK SHIRT                           10501
A0101406330000000162616LAND OF THE PROMISE TRUCKING                            10505
A0101412760000000208637BERNARDO, RE  DBU VIREX ENTERPR                         10502
A0101413020000000880320TIONGSON, MELCHOR DBU: M-CEE                            10501
A0101403450000000889341PATENIO, MARI JANE E. OR                                10501
A6601400120000001065394SAN PABLO, MELBA DAYMON OR                              10501
A0101404000000001186716BRAGADO, CATHERINE GONZALES OR                          10502
A0101412210000001236117FERNANDO, GERALDINE OR                                  10501
A0101402770000001571262WILFREDO DE CASTRO DBU VECS                             10501
A0101412890000001765562CRUZ, AMANDA OR FERDINAND OR                            10502
A2201400250000001932247CLDH EMPLOYEES CREDIT                                   10503
A0101412210000002629143GREGORIO, DAVID ANDREW TUESCA                           10501
A0101413440000002706072PORCIUNCULA, CATHERINE R. OR                            10501
A3101400160000002711775MA ANGELA L GARCIA AND                                  10501
A0101400440161194113001MA. CYNTHIA S. CAJUCOM OR                               10501
A0101407270162374976001GARCIA, ROBERTO VILLASENOR OR                           10502
A0101407140213376846001GAN, KATHY SY OR                                        10501
A1901400290261244469002HENRY TEMPLO MERCADO OR                                 10501
A1901400290261630453001LORNA MAYO AMPARO OR CORNELIO                           10502
A0101400570281047282001WORLDTECH ENGINEERING &                                 10503
A0801400160311380582001CHUA, ANDREW UY OR                                      10501
A0101402350321459520001TIU, DANTE TAN OR JUAN PUAN TIU                         10502
A0101402350321578007001OCTAVIO S. MALOLES II OR                                10505
A0101409050352615086001XYZA CHLOE C. VEGA OR                                   10501
A0201400760374625336001REYES, BAYANI CARLOS                                    10501
A0201400890376667775001BUYSER, MISAN CANAS OR BUYSER,                          10501
A0101408400394411836001GO, ONASIS YABUT OR                                     10502
A0101408400394462591002VILMA REGALADO OR BALTAZAR                              10503
A0101406330472494607001MARIA ELIZA E. SANCHEZ OR BRIAN                         10502
A0101405940512355710001TAN, THOMAS ANG OR                                      10502
A0101407720602283353001ERWIN HERNANDEZ OR                                      10501
A0101407720602332279002CAYCO, ANTONIO V. OR                                    10501
A0101404260611416131001ORA, ROMEO FOLLOSCO OR                                  10501
A0101404680651543781001ROGELIO R. MANALANG OR                                  10501
A1301400340683686116002RAUL C. DEL ROSARIO OR                                  10501
A1301400500684594780002CASTRO, RAYMUNDO OR                                     10502
A0101408240711323526001SHIRLEY A. MANESE OR MARIA                              10501
A0101408240711395808001HERMENEGILDO P. MANZANO JR. OR                          10502
A0601400230891682041001ERNESTO A. BALTAZAR OR                                  10502
A1901400290000000030695MARIA VICTORIA A POTAYRE                                20500
A0101413280000000041852PRINTING & DESIGNS                                      20500
A0101406330000000162616SERVICES                                                20500
A0101412760000000208637ISES                                                    20500
A0101413020000000880320PHARMACY                                                20500
A0101403450000000889341SANTIAGO, MARY ANN E.                                   20500
A6601400120000001065394UY, IMELDA SAN PABLO                                    20500
A0101404000000001186716BRAGADO, PETER L                                        20500
A0101412210000001236117FERNANDO, JOSE RODERICK                                 20500
A0101402770000001571262POULTRY PROCESSING                                      20500
A0101412890000001765562BERNADETTE                                              20500
A2201400250000001932247COOPERATIVE                                             20500
A0101412210000002629143OR GREGORIO, SOFIA MARIE                                20500
A0101413440000002706072PORCIUNCULA, JOSE PAOLO C                               20500
A3101400160000002711775LEONILO E ERCIA                                         20500
A0101400440161194113001VIRGINIA CAJUCOM                                        20500
A0101407270162374976001GARCIA, MARIA BA                                        20500
A0101407140213376846001GAN, RAYMOND KRISTOPHER                                 20500
A1901400290261244469002DELIA REYES MERCADO                                     20500
A1901400290261630453001CUENCA AMPARO                                           20500
A0101400570281047282001INDUSTRIAL SALES                                        20500
A0801400160311380582001CHUA, PAMELA G.                                         20500
A0101402350321459520001OR TIU, DAN CARLO                                       20500
A0101402350321578007001JESSIE V. MALOLES                                       20500
A0101409050352615086001TYRONE JOSETT R. VEGA                                   20500
A0201400760374625336001OR REYES, VIRGINIA                                      20500
A0201400890376667775001IAN CHRISTOPHER                                         20500
A0101408400394411836001KWOK, PAMELA JAN                                        20500
A0101408400394462591002REGALADO                                                20500
A0101406330472494607001JOSEPH SANCHEZ                                          20500
A0101405940512355710001TAN, MARY IRIS                                          20500
A0101407720602283353001AGNES HERNANDEZ                                         20500
A0101407720602332279002CAYCO, MARGARITA                                        20500
A0101404260611416131001JOSEFINA                                                20500
A0101404680651543781001YOLANDA L. MANALANG                                     20500
A1301400340683686116002EDGARDO C. DEL R                                        20500
A1301400500684594780002CASTRO, ROSEMARIE                                       20500
A0101408240711323526001ELENA M. ISAAC                                          20500
A0101408240711395808001NORMA Y. MANZANO                                        20500
A0601400230891682041001ANGELITO M. LOPEZ                                       20500
B0101400730000000002591********                                                 1601
B2801400100000000004811TRADER RIC'S RESORT CORPORATION                          1605
B0801400160000000010260ILOILO SUPERMART, INC.                                   1601
B2001400290000000020537LINK RI LOGISTICS INC.                                   1601
B0101402480000000028173QUALIGEN PHARMACY CORP.                                  1602
B0101412340000000030888WIT AUTO GROUP CORP.                                     1604
B1401400110000000167446SOUTHERN PROCESSING CORPORATION                          1601
B1401400110000000167457SUPER MAK FOOD CORPORATION                               1601
B0101410300000000191553*****                                                    1602
B0301400660000000195180'****                                                    1604
B2801400230000000372707BALOOGA GRILLERIA CORP.                                  1601
B0101400150000000633470RHEMAWAY INC.                                            1602
B0101407270000000830517STEDCON CONSTRUCTION INC.                                1602
B0901400220000000888144**********                                               1601
B0101411110000001037154SOUTH PACIFIC (Y.S.) HOLDINGS, INC.                      1601
B0101402480000001099947**********                                               1601
B0101402480000001100023QUALIGEN PHARMACY CORP.                                  1602
B0101402480000001100132***********                                              1601
B0801400160000001289841NEXT BARRIOS ESTATE, INC.                                1601
B0101404680000001296533HEAVEN'S GOLD STEEL MARKETING CORPO                      1602
B1901400290000001363100MALARAYAT INNOVATIVE FINANCING CORP                      1610
B0101402480000001562027************                                             1610
B0101402770000001571579LEADER GARMENTS CORPORATION                              1605
B0101402480000001927539**********                                               1601
B0101400860011376523004**********                                               1602
B0101400150061505436001NICKEL ASIA CORPORATION                                  1603
B0101407270162028106001MANSMITH AND FIELDERS, INC.                              1602
B0101407270162031640002RVG SPARROW HOLDINGS INC.                                1602
B0101401380201006703001EARTHDEAL REALTY CORPORATION                             1602
B0101401380201045863001C.F. SHARP HOLDINGS INC.                                 1602
B0101401380201047543001TIARA TOTAL BEAUTY SHOP CORP.                            1602
B1901400290261015948001CANOSSA ACADEMY                                          1602
B1901400290261027293002LIPA MEDICS INC.                                         1610
B0801400160311043928001DELIFRANZ BACKEREI, INC.                                 1602
B0801400160311268198001JOHNEL REALTY DEVELOPMENT CORP.                          1602
B0101402350321037708002RD CASH PADALA, INC.-AREA 1                              1603
B0101402480331033229035TGP DRUGSTORE                                            1602
B0101402480331223126002**********                                               1602
B0101402480331541505002PHARMAGENERICS, INC.                                     1602
B0101402480331541505004PHARMAGENERICS, INC.                                     1602
B0101402480331541505012PHARMAGENERICS, INC.                                     1602
B0101402480331561080001*********                                                1601
B0101402480331633610001**********                                               1602
B0101402480331663504001******                                                   1602
B0101402480331748556005QUALIGEN PHARMACY CORP.                                  1602
B0101402480331748556009QUALIGEN PHARMACY CORP.                                  1602
B0101402480331748556015QUALIGEN PHARMACY CORPORATION                            1602
B0201400760374006430001CHRIST COMMISSION FOUNDATION INC.                        1602
B0101402770391041647001G B B TECH ELECTRO MECHANICAL & DEV. INC                 1604
B0101402770391630383002FIRST LOAD MASTER AND POWER SERVICE INC.                 1601
B0101408400394028560001NEW LIFE CHRISTIAN CENTER (THE FORT) INC                 1601
B0101408400394030962004H B C INC. - MARKET MARKET BRANCH                        1603
B0101403320471206926002LOLITA B COLINA                                          1601
B1401400110492031376001LUCENA WHEELER ENTERPRISE INC.                           1602
B0101405940512021682001PINNACLE PROPERTIES INC.                                 1605
B0101403450521011882004PAN PACIFIC TRAVEL CORPORATION                           1603
B0101404680651006224003NOVALICHES DEVELOPMENT COOPERATIVE                       1601
B0101404680651006224004NOVALICHES DEVELOPMENT COOPERATIVE                       1602
B0101404680651027638001ENIGMATRONIX ENTERPRISES                                 1603
B0101404680651043475001SANTO GOLD FOOD CHOICES INC.                             1604
B0101408240711042133001GOOD SHEPHERD ACADEMY OF TAGUIG, INC.                    1602
B0101405070861025608001G-LINE TRADING                                           1602
B0101405070861034415001ROTARY CLUB OF DOWNTOWN MANILA                           1601
B0101412340000000031012MALATE CONSTRUCTION AND DEVELOPMENT                     11601
B0101407270000000830539BRIAN STEPHEN T. YAP AND MIGUEL M.                      11602
B0601400100081253610002NG, WILFREDO M. AND AQUINO, JANET B. AND                11601
B0101408790383045547001THE ONE DYNAMIC THREE REALTY AND                        11610
B0101412340000000031012CORPORATION                                             21600
B0101407270000000830539REYES JR.                                               21600
B0601400100081253610002BUAN, ROLAND S.                                         21600
B0101408790383045547001DEVELOPMENT CORP                                        21600
B0101410980275821100608**********                                               2002
