A0101412210000002714661TOLENTINO, BEVERLY BONIFACIO                             0502
B0101413860862821100608**********                                               2005
A3001400130000008916292ABELLA, CARLOS CATUBIG                                   0501
A3001400130230478374004BALABA, JANETH BORJA                                     0501
B2001400290315044204001ACEBANK CREDIT, INC.                                     1601
A5501400120000013825599DEDASE JR., ALBERTO CABUSLAY DB                         10502
A5501400120000013825599U HAVIENE CONSTRUCTION SU                               20500
B0101400860011374845003**********                                               1601
A0101400860011394631002**********                                               0502
A0101401250000008136521ONGSUECO, SYLVIA KIUNISALA                               0501
A0101401250000002131920*****                                                    0501
A0101411370000003548914BUENAVENTURA, JOEL HERNANDEZ                             0501
A0601400100000013802034ANDONG, SHEENA ARIANE CABE                               0501
A0601400100081650989001SUMANG, JOYCE PEH                                        0501
B0601400100081675425001VIRTUAL LANDHOLDINGS DEVELOPMENT GROUP                  11601
B0601400100081675425001CORP.                                                   21600
A7201400170000003774367MEJOS, ANIEVER ANTEGA                                    0502
A7201400170000013006676LUMACANG, MA. DEMNAH ANOLING                             0501
A7201400170000013006676LUMACANG, MA. DEMNAH ANOLING                             0501
A7201400170000007185682DIANA, MELINDA NAVARRO                                   0501
A7201400170000011454276MALINAO, AMESILE MAGHINAY                                0502
A5001400170000001003421LEYNO, KATHERINE MARAON                                  0505
A5001400170000000214020ARNOCO, MARIETA DIAMANTE                                 0501
A0101407270162387970001******                                                   0503
A0101401090000001619030PESO, MARIA CECILIA S. OR                               10502
A0101401090000001619030AQUINO, MARIA CRISTINA S.                               20500
B0301400530000015463546PO, VERONICA BUNGABONG DBU RV BAYAN                      1605
A0301400950000002252040GOTAMCO, KATHERINE ANN                                  10501
A0301400950000002252040DELOS REYES                                             20500
B0101401380000014548822MUYA, MARLON BATHAN DBU NEWREIGN TRADING                 1603
B0101413020000000038388ASISI SYSTEM CORP.                                       1603
B0101413020000006295583PANCITERIA LIDO CHINESE CUISINE CO.                      1605
A0101412500000016084725REGALA, AILEEN RUTH CASTANEDA                            0501
B0101413600000013508577******                                                   1601
A3101400160221529439001ESTELLA MARIE M RAMIREZ                                  0502
A3101400450223479138001GUEVARRA, LARRY OR EVANGELINE                            0501
A1001400190000002820082VILLAMALA JR., VICENTE TY                                0501
A1001400190231370866001*******                                                  0501
A1001400350000000017165MEN DBU A&L MARKETING SOLUTIONS                          0501
A1001400480000014398851DANGO, JAIME CABILLA                                     0503
A1301400470000013690143JOSELITO DE GUIA TANTOCO OR                             10502
A1301400470000013690143SHIRLEY DE GUZMAN TANTOCO                               20500
A1301400470252529647002MICHAEL PATRICK L. BANZON                                0501
B0101401670271020834002EMSYCLAR, INC.                                           1601
B0101401670271020835002SLTEAS PHOENIX SOLUTIONS, INC.                           1603
A0101406620000002009201GANCAYCO, MARIA CARMEN                                  10501
A0101406620000002009201BERNADETTE K.                                           20500
A0101406620000004079590JOSE JOSEPH S. LAGMAN                                    0501
A0101406620000004079590JOSE JOSEPH S. LAGMAN                                    0501
B0101406620000011433166VALENS RESEARCH ASIA, INC.                               1605
B0101406620000003497325FILIPINO DYNAMIC DATA CONSULT INC.                       1605
A0101406620273313236003YU, HARRY LIM                                            0505
A0101411110000005356754BANTIGUE, ANGELITA P. OR                                10501
A0101411110000005356754LAW, IRIS MICHELLE P.                                   20500
A0101400570281235501001CARLOS TIU OR ROSARIO TIU OR                            10501
A0101400570281235501001CHRISTOPHER TIU                                         20500
A2601400270302555372001MARIO P. UY JT                                           0505
B0801400160000001289932RD PAWNSHOP, INC. - ILOILO NORTH                         1603
A1101400120000002254811NEJUDNE, JOSEPH SUMAYO                                   0503
A1101400120000009119546DUGANG, DAYLENE ABING                                    0502
B0101402350000000046051ALLSTUFF TRADERS INC.                                    1603
A0101402350321180985003HO, CHIEN CHUNG OR                                      10501
A0101402350321180985003CHUANG, SHIH-SEN                                        20500
A0101402350321181737001ZENAIDA T. GARCIA OR                                    10501
A0101402350321181737001CHRISTMA G. CORR                                        20500
A0101405650000008025249DEJON, JANIS GUERRERO                                    0501
B0101405650000000772732LEISURE FARMS TAGAYTAY, INC.                             1601
A0101405650000000348903ESPERANZA F. BAYLON                                      0503
B0101402060351009544001RI CHEMICAL CORPORATION                                  1605
B0201400760374032939001GATEWAY MOTORS (CEBU), INC.                              1605
A0201400920000005323499REINA, MOZART VILLARICA                                  0505
B0201400920000000047874TURBO TRANSPORT INC.                                     1604
A0201400890000016091991SERGIE'S CYCLE PARTS                                     0501
A0201400890000005491556NGO, ALVIN OMEGA                                         0502
A0101402930000013537390JABLA, EMMANUEL RUBIA                                    0501
A0101411660000000751273MARY GRACE P CATABAY                                     0501
A0101415350000007878031IBANEZ, KIM EZETH SUMAYA                                 0502
A0101405490000016087957ARISTAN, MA. TERESA MELENDRES                            0501
A0101405490000016088034BUSTILLO, REX JUN GRANDE                                 0501
A0101405490000016088089CARBONEL, ROMEO BUENAVENTURA                             0501
A0101405490000016088136CARBONEL, MINERVA ASOY                                   0501
A0101405490000016088181CARBONEL, MARC ANDREW ASOY                               0501
A0101405490000016088216FALGUERA, LOUDIE JAY CANONOY                             0501
A0101405490000016088249ILAO, JACINTO VALDORIA                                   0501
A0101405490000016088261MILANES, VICTOR GARCIA                                   0501
A0101405490000014913910CONTI, RENIE MAGADIA DBU                                10502
A0101405490000014913910RC-WOLTRJEA MARKETING                                   20500
B0101405490000008380610MCD CREDIT CORPORATION                                   1605
A0101408400394060869002SPSD PRIMAICONS CASTING AGENCY                           0503
A0101408400394397490001SANTOS, SHARON CLAIRE REQUERME                           0502
A0101408950396294877002SINGSON, REBECCA BAUTISTA                                0501
A0101409210000011535447OFLEAR, MARIA KRISTINA MANALO                            0501
A0101412210000009036857MITCHELL, GENE KATES LAGMAN                              0502
A5501400120000014312282OSORIO, ERO BALUSO                                       0506
A5501400120000013825599DEDASE JR., ALBERTO CABUSLAY DB                         10505
A5501400120000013825599U HAVIENE CONSTR                                        20500
B5501400120410042731001KENDRICK MANPOWER, ENGINEERING                          11603
B5501400120410042731001ALLIED SERVICES                                         21600
A5101400100000011337385DURON, FLORENCE OMANIA                                   0504
A5101400100000010834023AYOBONG, FELIX MONTANO DBU FMA                           0501
A0101403320471524918001EMMA OR WILMA DIGUANGCO                                  0502
A0101410140475339949001SANTOS, ADORACION SANCHEZ OR                            10505
A0101410140475339949001SANTOS, MYRNA SA                                        20500
B0501400170481023482001ARZADON LEISURE CORPORATION                              1605
A1901400160000012295580MICHAEL R. BARIL OR                                     10505
A1901400160000012295580SANDRA M. BARIL                                         20500
A1401400110000014855504MANINGDING, MADELAINE MECIJA                             0501
A1401400110000015528988GUTIERREZ, JENA MARIELLA INDICI                          0501
A0101407430503184785001PATRICIA Q. AUSTRIA                                      0502
A0101405940000005068042BALTAZAR, DORIS DE MESA                                  0501
A0101405940000012443708PUNAY, MAXIMO JAY-R TORRES                               0501
B0101405940512028580005AUTOMETICS CAR CARE, INC.                                1601
A0101408530000008161682VILLADOLID, JOYCE MANZANARES                             0501
A0101408530516581751001KISHAN, JAI OR CHHATTANI, JYOTI                          0503
A0101411400000005330023EBBAH, CZARINA ALEGRE                                    0501
A0101411400000013086129ERICSON DE LEMOS TADEJA                                  0501
B0101411790518050226002ZIMI TECH, INC.                                          1602
A0101412050000003966763DE LEON, ARTURO PUZON OR                                10502
A0101412050000003966763DE LEON, WILFRED                                        20500
A0101403450000001637903UNG, NATHANAEL SO                                        0501
A0101403450000001637910UNG, JACOB SO                                            0501
A0101403610000016094672MINDANAO, QUINCY ANNE ABCEDE                             0501
B0101403610531029447001QUEENS BEST COOKING OIL AND                             11602
B0101403610531029447001MARKETING CORP.                                         21600
A2201400250000013858832LUDWIGO S. SANTOS                                        0501
A2201400250561037321001PTT NORTH RAMP GASOLINE STATION                          0501
A0101410690000000478962**********                                               0503
A0101407720000004657923DAGAMAC  JR., VILLAMOR OCAMPO                            0501
A0101407720602396499002GLENN B. BENITEZ OR                                     10501
A0101407720602396499002BERNADETTE C. BENITEZ                                   20500
A0101407720602397272001OCA-BUNYE, MIRAFLOR T. OR                               10501
A0101407720602397272001BUNYE, IGNACIO R.                                       20500
A0101407720602415306001LACSON, STEPHEN THOMAS F.                                0501
A0101407720602521571001BARADI, MACRINA RACHEL DIWATA A                          0502
A0101404260611323614001EVANGELINE S. MANGUBAT                                   0501
A0101411530000000581464DE ASIS, ARNULFO P                                       0502
A0101413440000002846262SARET, MARIA JENNIFER JADE M.                            0505
A0101413440000004882960CRUZ, MARX CYRUS COBARRUBIAS                             0501
A0101413570000015605935TIGA, JOSE EDUARDO MIRANDA                               0501
A0101413990000016088574REJANO, RAISABELLE THERESE R.                            0501
A0101413990000016094809NAGPIING, JEAN REYES                                     0501
A0101414120000007655254ZHUANG, JUNMIN OR                                       10502
A0101414120000007655254DE JESUS, WILTON                                        20500
A0101414120000009850882VEGA, REYNA TAPIADOR                                     0501
A0101414120000014971032ADACHI, RIZALINA ABENOJAR                                0501
A0101414120000000398892A.R.P. TRUCKING                                          0502
B1301400210000005041007***                                                      1603
A1301400210000000540776EDNA S ENANO                                             0506
A1301400340683055116001BENIGNO D. GUEVARRA DBU IRON                            10506
A1301400340683055116001ANGELO ENGINEERING                                      20500
A1701400230000011517445MONTANEZ, BEVERLY AQUINO                                 0503
A0101408240000012882492MACASAET, MARIA GENEVIEVE FRUCT                          0501
B0101408240000002419941ALFONSO GAS & FUEL STATION, INC.                         1603
B0101408240000006414502CONCIERGEMED CLINIC INC.                                 1602
A4101400260000003679841MARTINEZ II, REYNALDO BORROMEO                           0501
A4101400260000016086210BANGUIS, CLARELL MORALES                                 0501
A4101400260812423341001ESTEFANIA B. RANDOY                                      0505
A4101400260812423341001ESTEFANIA B. RANDOY                                      0505
B4101400420000007305360VIC IMPERIAL APPLIANCE CORP.                             1602
B0101406750000000480900**********                                               1602
A0101405070861360022002SUJIN PARK                                               0508
A0101413860000001233743OBIN, ARLENE VELASCO                                     0501
B0101413860000009426411ONG, JEFFERSON CHAN DBU STITCH                          11601
B0101413860000009426411PRO MARKETING                                           21600
A0601400230000000186856CASTRO, RAFAEL ROSARIO                                   0501
B0601400230891028013001OCAMPO'S MARKETING, INC.                                 1603
A0601400230000000452840GOZUN, R-JAY RAMOS OR                                   10520
A0601400230000000452840GOZUN, MYRNA RAMOS                                      20500
