B0101405070861821100608**********                                               2001
B0101401250021821100608**********                                               2003
A0101412630000004062144MADRIDANO,JASON S.                                      10501
A0101412630000004062144MADRIDANO,HYACINTH MAE A.                               20500
B0301400790195821100608**********                                               2002
B0101400570281007188002KIMURA CHAVES ENTERPRISE, INC.                           1602
A0101411240000001563457*****                                                    0501
A0101403580511156598004ALICIA C. DELOS ANGELES                                  0501
A0101403580511327851001MARIETA G. DEL ROSARIO                                   0501
A0101403580000005328401PINEDA, KATHERINE TIU                                    0515
A0101403580000005961908PINEDA, BRIAN RAMOS                                      0508
A0101403580000005961891PINEDA, BRIAN RAMOS OR PINEDA,                          10508
A0101403580000005961891KATHERINE TIU                                           20500
A0101410300663792087001YBANEZ, ROSALIE VILLANUEVA OR                           10501
A0101410300663792087001NELSON JR., JOHN                                        20500
A0101400860000013483991*************                                            0502
A0101400860000005312801**************                                           0501
A0101400860011395625002**********                                               0502
A0101400860011549648001**********                                               0505
A0101401250021483705002SISON, ROSIVINI ISIDRO                                   0502
A0101400150000003162803MARIA RELA J. BRASILENO                                  0501
A0101400150000003197933Charo B. Padilla                                         0501
A0101400150000010560391WONG, SOLOMON CHENG                                      0501
A0101400150000016217457GOBING, KARL HEINZ CHUA                                  0501
B0101400150061011041001PHILIPPINE INTERNATIONAL AIR TERMINALS                  11602
B0101400150061011041001COMPANY, INC.                                           21600
A0101400150061055752085VILORIA, RAUL AQUINO                                     0501
A0101400150061341245002BENILDA CARPIO                                           0503
A0101400150000011138280SANTILLAN, AMALIA CHUA                                   0502
A0101400600000008914978TIU, MARC LOUISE ESPIRITU                                0501
A0101400600071478374004JULIET E. SY                                             0505
A0101405810000001021332UY, RAYMOND VELASCO                                      0501
B0601400100000005690582CONVERGE INFORMATION AND COMMUNICAT                      1601
B0601400100000005690611CENTRAL LUZON CABLE TELEVISION NETW                      1601
A0101413730000013294269******                                                   0501
A0101414090000016020492OCAMPO, ANGIE LYN SANGALANG                              0501
A0101414090108067349001ORALDENT DENTAL CENTER                                   0502
A0101410850000003503820STA. MARIA, R DBU MSCR TRUCKING                          0502
A0101410560000001291043MELVIN G. BESINGA                                        0501
A0101410560000005280688ELIZA N. ADIAO OR                                       10501
A0101410560000005280688MARLON G. ADIAO                                         20500
A0101410560000005836148FLORDELIZ N. MONTERAS DBU AGUA                          10501
A0101410560000005836148BENDITA WATER STATION                                   20500
A0101400730111527208001********                                                 0501
A0101400730111555905001ROMERO, MARIA CECILIA TAN OR                            10501
A0101400730111555905001ROMERO, CESAR DELA CRUZ                                 20500
A0101401960121436064001TAGLE, IMELDA CHUA                                       0501
B0101401960121608874001**********                                               1601
A0101412630000004062086BANZUELA, ELEANOR ADORNA                                 0502
A7201400170000009673265ETA, ROLAND PERIGO                                       0502
A7201400170000011454469ARDIENTE, RICHARD AMACANIN                               0501
B0101400440161032916001S.D. CUBILLAN CONSTRUCTION                               1601
A0101400440161039572032IAN PAUL A. PADILLA                                      0502
B0101400440161044506001STAR COMMANDER SECURITY AGENCY, INC                      1605
A0101400440000000029434VITRIOLO, JERVIE DELA CRUZ                               0501
A0101407270000004915908LORENZO, TRICIA MARIE SOLANOY                            0501
A0101407270162333006037JANNET OROSCO LOCSIN                                     0501
B0101401090171019015001THOMASIAN ENDOCRINE PROGRESS INC.                        1602
A0101401090171195155001MA. AUXILIADORA R. REBURIANO                             0501
A0101401090171197664001ELIZABETH D. CORTEZ                                      0501
A0101401090171396960002GANZON, DOMINGO ESTEBAN                                  0502
A0301400790000002301393BARCELONA, JANET TIZON                                   0502
A0101401380000001412606CAIRME, GINA BAGSIK                                      0501
A0101401380000015062530MUYA, MARLON BATHAN                                      0503
A0101401380201695057001ONG, MARGARET HONG OR                                   10501
A0101401380201695057001ONG, JOHN CARY L                                        20500
A0101413020000010882330**********                                               0501
A0101412500000016221628REYES, MARIE ANNE YLAGAN OR                             10501
A0101412500000016221628NICOLAS, KRISTINE ANNE V.                               20500
A3101400160000016270325DELOS SANTOS, VILMA ORTIZ DBU                           10501
A3101400160000016270325VILMA MILITARY SUPPLY                                   20500
A3101400160000008941271PEREZ, RICHARD TAGLE                                     0504
A3101400870000002007738RECTO, MARY ANN PACAIGUE OR                             10501
A3101400870000002007738RECTO, ARNOLD REBLEZA                                   20500
B1001400190000003881903LAURON, ALEXIS PEREZ DBU BOSSMANN TRADIN                11603
B1001400190000003881903G AND ENGINEERIN                                        21600
A1001400480000014024203FERNANDO, ROSEMIN ENGANA                                 0501
A1301400470000003270471MARIA CELINA DJ. SIMON                                   0502
A1301400470252527415001MA. CRISTINA SALAZAR OR                                 10501
A1301400470252527415001MARIA PRISCILA GUTIERREZ                                20500
A1301400470252569987001MACTAL, ANGELITO VALENTIN                                0501
A1301400760000004522592KRISTOFFER ROMEO E. GATDULA OR                          10504
A1301400760000004522592SANDRA D. GATDULA                                       20500
B1301400760000010656852MARY JANE SIOJO ENTERPRISES                              1601
A0101401670000000237541BENSON, MARIA AURORA LAPERAL                             0501
A0101406460272548275001SUNGA, PETER EDWIN JAO OR                               10502
A0101406460272548275001SY JR., MARCIANO                                        20500
A0101408660000005263849LIM, ARISTOTLE C. OR                                    10504
A0101408660000005263849LIM, JENNIFER                                           20500
A0101408660274365658001YAO, YAN LUN                 JT                          0501
B0101410980275047209001PIONEER STATIONERS, INC.                                 1602
B0101410980275056888001********                                                 1603
A0101411110000009465654PADILLA, MARIA THERESA DONATO                            0502
A0101411820000002328612RIOJA, DAISY GO                                          0501
A0101412470000010561929************                                             0502
A0101400570281399721002JOFFREY OR JORDAN UY                                     0501
A0101400570281399721002JOFFREY OR JORDAN UY                                     0501
A0101400570281399721002JOFFREY OR JORDAN UY                                     0501
B0101411240000013845786LAWAN, CARINA CRISOLOGO DBU JCSR EN                      1601
B0501400200000004456902CBE ESTRADA PAWNSHOP, INC.                               1605
A0801400160000000009492MARIA IA JOY ESPINOSA LORING                             0503
A6601400120314044682001QUINNREEVE'S MOTORCYCLE PARTS                            0502
A0101402350321242269001**********                                               0502
B0101405650322036086001VISTALAND INTERNATIONAL MARKETING, INC.                  1605
A0101405650000011810972OCOT, ROGER MODECHO OR OCOT,                            10502
A0101405650000011810972EDLYN PEREZ                                             20500
A0101402510000000200153LPR GRAPHIC DESIGNS                                      0502
A0101402510341196483001OLIVIA MENDOZA LIMUACO                                   0502
A0101402510341199632002ANA LIZA R. DELA CRUZ OR                                10504
A0101402510341199632002ANTONIO T. DELA CRUZ                                    20500
B0101402060351009431001RPP SAVINGS AND LOANS ASSOCIATION, INC.                  1603
A0101402060351211701004MA. DOLORES DANNUG                                       0503
A0101402060351460779001GOMEZ, MAYLENE LAVERIA                                   0501
A0101402060000000147613AGUIRRE, KITCHIE REBANCOS                                0502
A0101409050352691163001MARIA ROWENA AMELIA V. GUANZON                           0501
A0201400760374625964001SOLON, ENRICO MENDOZA                                    0501
A0201401020000004409103CHAVEZ, RAYMOND A DBU RGSK TRAD                          0502
B0201401020377111000001BF HOLDINGS, INC.                                        1602
A0101402930381571287001TINIO, EDNA LIGON                                        0502
A0101408370382391359001DR. JULIUS C. CAJUCOM                                    0502
A0101408370382411639001DR. CONSTANTINO CASTILLO III                             0503
B0101408790000012313363DIGIBANK INC.                                            1602
A0101402770391034936001LOGPRO EXPRESS, INC.                                     0502
A0101402770391550490001MORILLO, ZENAIDA ZAMBRANO OR                            10501
A0101402770391550490001TAN, DANILO GABI                                        20500
A0101405490392307722003JIEL C. SANTOS                                           0502
A0101408400000005286320AMEROL, ROSLINA MAROHOMSALIC                             0504
A0101408400000011986671MANARPAAC, GERWEL FERNANDO                               0504
A0101408950000015585990BINARAO, LACILDA CERINA                                  0501
A0101409180000004959635FERRERAS, EDWIN L. DBU BICORE                           10501
A0101409180000004959635ONE NETWORK ENTE                                        20500
A5501400120000011599401BACONGCO, TERESITA CASTRONUEVO                           0501
A5501400120000012653355ARANDIA, LINA CONCEPCION DBU HA                          0505
A5501400120000006976905MANALO, ELIZABETH NAVARRO DBU N                          0501
A5501400120410276936008DE JESUS, NIDA DUAY OR ALAJAR,                          10501
A5501400120410276936008CELESTINA DE JESUS                                      20500
A5501400120410622095001CORDER, JAIMELITA OR EDWIN                               0502
A5501400120410754425001ERUM, ZENAIDA CATOLICO                                   0501
B2401400180000007476853ECA RESOURCES, INC.                                      1602
B2401400180411037264001CEVCEG MARKETING INC.                                    1602
B2401400180411056764004RD PAWNSHOP, INC. - GENSAN REGION                        1605
A2401400180000002284142TANYEN, IRENE JADE SANTIAGO                              0502
A2401400180411338845001ROBERTO T. PERALES OR                                   10505
A2401400180411338845001JANET C. PERALES                                        20500
A1201400150421253953001CRISTINA F. TEJADA                                       0502
A0101403030441239449002**********                                               0501
A0101403030441673721001**********                                               0502
A0101403320000016273302MAGBANUA, ARLENE SHIELA S.                               0501
B0101403320471024815001GOLDRICH FOODS CORPORATION                               1603
B0101403320471039191001MAR-V-RITZ TRADING - BRANCH                              1603
A0101403320471387853001MIRANDA SR., DESIDERIO L.                               10501
A0101403320471387853001OR MIRANDA, CORAZON B.                                  20500
B0501400170481018109002CSI WAREHOUSE CLUB INC.                                  1602
B0501400170481025398002COSTSAVER'S SUPERMARKET, INC.                            1602
A0501400170481257443001JUANITO L ONG JR                                         0504
A1901400160000016264130MA. TERESA G. VELLON OR                                 10501
A1901400160000016264130REYNALDO G. VELLON JR.                                  20500
A1901400160000013648563MACATANGAY, RAQUEL EBORA                                 0501
A1901400160000015840885BARTE, MILDRED MENDOZA                                   0501
B1401400110000016153963ST. APOLONIA DENTAL MULTI-PURPOSE C                      1602
B1601400170000009954670GONZALES, FRANCES CARMI DBU ASK                         11601
B1601400170000009954670PRODUCTIONS                                             21600
A0101407430000005358950DIONISIO, SUSAN MAGCALAYO                                0501
A0101407430000015018987MORRIS D. PALOMARES                                      0501
A0101407430000015524100HOLMES, LEE KEITH                                        0501
A0101407430000013170319GOPEZ, AILEEN ZITA SAN FELIPE                            0501
A0101405940000005068311JENNIE T. TONG                                           0501
A0101408530000016264221FERRER, KATHERINE JOYCE DEMITIO                          0501
A0101408530000016261966DOLLISON, BRIDGET MATIVO                                 0501
B0101408530000000035903INTERNATIONAL SPECIALTY FASHIONS, I                      1603
A0101408530516571877040LEGASPI, EDMER CRUZ                                      0501
A0101411790000006543228SOLANGON, RAFAELITO CATIIS                               0502
B0101403450000006055778HT-S VENTURE PHILIPPINES CORPORATION                     1602
A0101403610000016246230MAPUSAO, KENNY MALEJANA OR                              10501
A0101403610000016246230MAPUSAO, ROSALINDA                                      20500
A0101403610000011127950PILI, RUEL SANTIAGO OR PILI,                            10502
A0101403610000011127950GISELLA ALVAREZ                                         20500
A0101403610531219572001DR. JAIME A. BARRON                                      0502
A2201400250000013859697MY CREATIVE PANDA WEB DESIGN &                          10505
A2201400250000013859697DEV'T CONSULTANCY SERVICE                               20500
B2201400250000015110613E-D & C SOLUTIONS DELIVERY, INC                          1605
B2201400250000007719977R & A FASTFRATE CORP.                                    1605
A2201400250561433545001IVANA MAE MOLINA BALIGOD                                 0501
A0101404130000005962321DE LA CRUZ, MARC FRANCIS AYO                             0501
A0101412180000001293385CRUZ, ALICE STREEGAN OR                                 10502
A0101412180000001293385CRUZ, JOSE GERARDO ANONAS                               20500
B0101412180000001293090ADVANI, GHANSHYAM PARASRAM DBU SICHEL &                 11603
B0101412180000001293090SICHEL ENTERPRIS                                        21600
A0101409890000000049089GEMSTAR CLEANING SUPPLIES                               10505
A0101409890000000049089INTERNATIONAL                                           20500
A0101407690000000587895MANLIMOS, AMALYN DELANI                                  0501
A0101411530000011326075**********                                               0503
A0101413440000000702156PASOS JR., ARSENIO WANIA                                 0501
A0101413990000016273200ALLERA, CHRISTINE PAGADOR                                0501
A0101410300000011355547SOTTO-DE GUZMAN, SUSAN DE VERA                           0501
A0101410300000014298890PELAGIO, MARIA ISABEL REBONG                             0501
A1301400210000000023401*******                                                  0503
A1301400210682389684001DENNIS D. MUNOZ                                          0501
A1701400230000004469650CANTORNA, GENEVIEVE ALBANO                               0501
A0101408240711704169001LEE, HYO JIN                                             0501
A2801400100712405165001FOO, DICKSON TAM                                        10502
A2801400100712405165001OR FOO, SUSAN TA                                        20500
B2801400230713045988001NGE TRADING                                              1601
A2801400230713414628001ENDAYA, MARITES PRONTO                                   0503
A2801400230000009022199BUSTAMANTE, JOSEFINA MERLUZA                             0502
A4101400260000012860390BANZON, JENNY LYNNE                                      0501
A4101400260000012871433GARCES, TYANA MARCH M.                                   0501
A4101400260000010623428CASTILLO, ANNABELLE C. DBU SHIN                          0501
A4101400260812478374052DAISY COSTILLAS                                          0501
A4101400260812523104002DOLOROSA G. VICENCIO                                     0502
A4101400260812640850001EMETERIO P. LOPIO JR.                                    0501
A4101400390000001732496HARIM E. SANTOS JR                                       0501
B4101400420814018935001IGLESIA EVANGELICA UNIDA DE CRISTO(ANABU                11602
B4101400420814018935001UNIDA CHURCH)                                           21600
A4101400420000001063785RAMIREZ, JEREME                                          0501
A0101412340000004543635FLORES, ADELA FAYE LAGUNILA                              0501
A0101412340000003343633MIGUEL ROY M. GOTERA                                     0501
A0101404840000000683501DELA MERCED, GEMMARI GUNDRAN DB                          0501
A0101404840851281071016ELSA A. LUSUEGRO                                         0502
A0101404840851334120001MARY ANN R. PANGAN OR                                   10501
A0101404840851334120001JOHN NOEL PANGAN                                        20500
A0101406750000014701010LIN, MING DER                                            0502
B0101406750000000090559GLOBAL ACCESS FINANCIAL SERVICES, INC                    1605
A0601400230000000990063**********                                               0508
A0601400230000006045552LYDIA F PINGUL OR FRANCISCO                             10501
A0601400230000006045552GABRIEL P MANALA                                        20500
B0601400230000002649927MJ EXPRESS CREDIT INC.                                   1605
