F0101401250000004851161LORENZO, AURORA DELA CRUZ DBU                           12602CK1
F0101401250000004851161A. LORENZO SHELL                                        22600CK1
F1801400130151048765001MSU-IIT NMPC SUAREZ-TOMINOBO BR                          2602CKR
F0101405780212039885001CENTRAL DIESEL CLINIC                                    2605CKR
F0401400270242031390007SYNCHROTEK CORPORATION                                   2603CKR
F0401400270242031390008SYNCHROTEK CORPORATION                                   2603CKR
F0101401670271047018001BUSINESSCOACH INC.                                       2603CKR
F1501400140291027914001FL MEMORIAL PARKS, INC.                                  2610CKR
F0101408240000003501431CONCIERGEMED CLINIC INC.                                 2601CK1
