B1901400290261821100608**********                                               2005
B1901400290261821100608**********                                               2002
B1901400290261821100608**********                                               2005
B1901400290261821100608**********                                               2002
B1901400290261821100608**********                                               2005
B1901400290261821100608**********                                               2002
B1901400290261821100608**********                                               2005
B1901400290261821100608**********                                               2002
A0101409180000000036677SENIRES, GULLIVER LAPITAN                                0501
A0201400760374478374015DACAYANA, ROSALIE SIBLA                                  0501
A0101407270162202831003WILLY F. LIM OR                                         10505
A0101407270162202831003MICHAEL O. LIM                                          20500
A3001400130000005446340BALANGA, MARIO FERNANDEZ                                 0501
B0101406460272021222001ORION WIRE & CABLE INC.                                  1602
A2001400290000011716755DUMALAG, ANTHONY TOLOMIA DBU                            10502
A2001400290000011716755ADS EDGE ADVERTI                                        20500
A0101406330000007331713QUICKFLAMES METAL FABRICATION                            0501
B1301400500684061209002********                                                 1601
A0101401250000002763346**********                                               0505
A0101400150000003218328ALLAN ADRIAN M. TANALIGA                                 0501
B0101400150061043646001ARRAKIS HOLDINGS, INC.                                   1602
A0101400150061532771001PALMA, CRISTINA FELLIZAR                                 0501
A0101400150061697165001SERVER, CATHERINE ANNE B. OR                            10502
A0101400150061697165001CHRISTINE MICHEL                                        20500
B0601400100000002099107ONG, ANDREW OR ONG,ING LEE OR ONG, ANSON                11602
B0601400100000002099107OR HAO, EMILIA                                          21600
B0601400360083787720001PISHON CLARK PHILIPPINES INC.                            1602
A0101410850000013396955DAYOT III, ALEJANDRO PLANAS DBU                         10501
A0101410850000013396955JUN D TRUCKING                                          20500
A0101413150000011778104**********                                               0501
A0101413150000011778104**********                                               0501
B0101401830141019859001NIPPON WARE MANUFACTURING CORPORATION                    1603
A5001400170000002288311VILLAMIL, MARISSA PULIDO                                 0501
A0101400440000000137346DE CASTRO, FELIXBERTO PANSOY                             0502
B0101400440161026216001TELEGA, INC.                                             1605
A0101407270000000818519LAMINARIA, GLORIA                                        0501
A0101407270162506659001MA. JUDITH N. MARCELO                                    0502
B0101401090000014794906FOOD REVELRY INC.                                        1601
A0101401090171717958001ORLINA, EDMUND CEDRIC ABAD OR                           10501
A0101401090171717958001TOLENTINO, PAULA CHRISTI                                20500
A0301400530000000065865ARASA, NICOLAS                                           0501
B0301400660194047064088CVM PETRON SERVICE STATION                               1605
B0301400790000000435738NEW GREAT LUMBER AND CONSTRUCTION                       11601
B0301400790000000435738SUPPLY, INC.                                            21600
A0101401380000013916662SARMIENTO, ANGELLE SAMSON                                0501
A0101413020000006295225**********                                               0502
A0101410720000006239869******                                                   0503
B0101412500000014731610BUENAVENTURA, MARILOU ROSERO DBU JT                      1601
A3101400450000010894012ACORDA, EDGAR PAUL RAMIRO                                0501
A1901400290000014042694PAULENE JOY DE LUNA SORIANO                              0501
A1901400290000007876893DANTE VALENCIA ANDAL                                     0502
A0101401670271692697001PRINCIPE, FLORIDA LORENZO                                0501
A0101406620273358539001MARIA TERESA L. JAHRLING OR                             10501
A0101406620273358539001ANGELO JAHRLING                                         20500
A0101406620273428427001******                                                   0501
B0101410980000000171997FUNTOURS TRAVEL CORPORATION                              1601
A0101412470000002295725TIU, FILBERT AARON GAW                                   0501
A0101400570000004624139EQUIPAJE, HIGINO GARCELAZO                               0501
A0501400200000005751635PERDIDO JR., LEONARDO DIWATA OR                         10501
A0501400200000005751635FLORES, JOAN MAY                                        20500
A0501400200292735444001OYAMAN, GENEVIVE ABANDO                                  0504
B1101400120000000652891COASTALVIEW FOODS CORPORATION                            1603
A1101400120000001547417REDULA, REMEDIOS V.                                      0501
A1101400120000000652351YAO, RONALD PHILIP GO                                    0502
A6601400120314648197001PAJOTA, RUNETO OLMEDA                                    0503
A0101402350321526808001LUCITA R. TARRAY                                         0502
A0101402510000009178247ONG, ARNOLD VINCENT SABULARSE                            0502
A0101402510341292145001NAPARAM, DIVINA OLJINA                                   0501
B0101402510341377930001RUBEN KING                                               1601
A0101402060000000358565DECENDARIO, MARICHU TADLAN                               0502
A0101409050000000999653PARUNGAO, RAFAEL ADVINCULA                               0501
A0101409050000002333313TIOJANCO, JASE NATHANIEL GABITO                          0502
A0101409050000012410023MAYOR, BRYAN ABULENCIA                                   0501
B0201400760374037583002..........                                               1610
B0201400890000014736268MY DTABNK INC.                                           1601
B0101402930381008957002BANIQUED LAYUG AND BELLO                                 1605
B0101402930381040001001TURQUOISE TRAVEL & EVENTS                               11602
B0101402930381040001001MANAGEMENT CORP.                                        21600
A0101402930381381181001BERNARD FAH OR                                          10502
A0101402930381381181001MARIA CAROLINA FAH                                      20500
A0101408370382205236001DR. CYNTHIA A. AGUIRRE                                   0502
B0101411660000009219990REDSTONE APPAREL, INC.                                   1603
A0101411660000004597220BONDOC, NARCISA NAVARRO or                              10502
A0101411660000004597220DELA CRUZ, MYREN                                        20500
A0101402770391214496001FRANCISCO KUAN WONG OR                                  10505
A0101402770391214496001JOYAL KUAN WONG                                         20500
A0101405490000002253010ROSEMAE J. SISON                                         0501
B0101405490392699535001FUTURISTIC SUNSHINE MANAGEMENT DEVT. INC                 1601
A0101408950000002255409LIM, EDNA LAPUZ OR                                      10502
A0101408950000002255409LIM, ALVIN CHE                                          20500
B0101409180000009085270DISTINTO BEVERAGE SOLUTIONS, INC.                        1605
A0101409210000001294275PINEDA, FEDERICK JOHN RAMOS                              0501
A5501400120000002019023PINGOY, ALBERT YUSAY                                     0504
B5501400120000007963435AYP FIESTA MART, INC.                                    1603
B5501400120000007963548AYP FIESTA MART, INC.                                    1603
B2401400180000014774366SECAJA DESIGN AND BUILD CONSTRUCTION                    11601
B2401400180000014774366CORPORATION                                             21600
B2401400180411014376005PENBANK, INC. (A PRIVATE DEV'T BANK) -                  11605
B2401400180411014376005CALUMPANG BRANCH                                        21600
A2401400180411023998002ENE MARKETING                                            0502
A2401400180411288023001MANANGQUIL, MA. SOLEDAD BETITA                           0510
A1201400150000001863334BADUA III, EDUARDO MANZANO OR                           10503
A1201400150000001863334BADUA, JO-ANN BA                                        20500
A0101403030441241013001**********                                               0508
A0101406330000006943640BONIFACIO, STEPHAINE HITEROZA                            0501
B0101406330472010916001COLLINS INTERNATIONAL TRADING CORP.                      1601
A0101406330000012633340SIDOR, JOSEPHINE DELA CERNA                              0503
A0101410140000001939984DELANTAR, DARMEL U. OR                                  10502
A0101410140000001939984SANTOS, JAIKA SOLEIL V.                                 20500
A0101410140000001940110BARRIOS, MARISSA ACHACOSO                                0502
B1401400110000009019803DY, MARK FRANCIS AYCARDO                                 1602
A1401400110492652676001DEZA, VIVIAN P. OR                                      10505
A1401400110492652676001DEZA JR., ARSENI                                        20500
A1601400170000001360576SAYAT, MARJORIE CASTUERA OR                             10501
A1601400170000001360576SAYAT, ZALRIAN Z                                        20500
B1601400170000009954545DENNIS M. BATOCABE AND ADERMA ANGELIE                   11605
B1601400170000009954545ALCAZAR                                                 21600
A1601400170000001360714ERNESTO C. DACOCO DBU                                   10502
A1601400170000001360714SCORVIL ENTERPRI                                        20500
A0701400260000012724173CHIA, CHIARA MAE NIDEA                                   0501
A0101407430000005358716GARCIA, MA. THERESA ZAPANTA                              0501
A0101405940000007298540DELA CRUZ, BEN JORDAN YAO                                0501
A0101411790000011046658MARQUEZ, ALMALYN MATUTE                                  0501
B0101412050000007801530COOLAIRE CONSOLIDATED INCORPORATED                       1610
B0101403450000006055734TAGAYTAY VIEWPARK HOTEL INC.                             1605
A2201400250000003558190EDWIN S. ESPIRITU OR ANNA                               10501
A2201400250000003558190JESSICA S. ESPIRITU                                     20500
A2201400250000012983063ESPIRITU, EDWIN SAMSON DBU E.S.                         10501
A2201400250000012983063ESPIRITU ARCHITECTURAL                                  20500
B0101407720602027833001PHILIPPINE CENTER FOR DIABETES EDUCATION                11602
B0101407720602027833001FOUNDATION INC.                                         21600
A0101407720602316120001LUCIA CASTRO-FORES OR                                   10501
A0101407720602316120001MIGUEL EDGARDO FORES                                    20500
A0101407720602318369061MUNDO, RACHEL M.                                         0501
A0101407720602381963001KASILAG, EMMANUEL R.                                     0501
B0101407720000009181653EDUARDO M. JAMORA AND JENNIFER AND MARIA                11602
B0101407720000009181653JASMIN JAMORA                                           21600
A0101407720602421754002LIM, CHRISTINE EBARVIA OR                               10501
A0101407720602421754002LIM, LEONCIO N.                                         20500
A0101407720602697692001SANTOS, GENEVERE SERNA OR                               10501
A0101407720602697692001SANTOS, DANILO SANTOS                                   20500
B0101411530654821100608**********                                               2001
A0101413570000002906727**********                                               0501
B0101413570000009426217ATELIER CORPO FEMININO INC.                              1601
A0101413990000000206033MARITES R. CONANAN                                       0502
A1301400210000005040577**********                                               0502
B1301400210000008173933***                                                      1604
A1301400340000000100352DE ERE, MARY ANN BULARAN                                 0502
B0101408240711008252001PETROLIFT INC.                                           1610
B0101408240711008262001TRANSOIL CORPORATION                                     1610
B0101408240000002419996**********                                               1602
A2801400100712255396001GUTIERREZ, VITTORIUS O. OR MA.                          10501
A2801400100712255396001ANTONNETTE G. GUTIERREZ                                 20500
A4101400260000014088292ROMA, CARMELA                                            0501
A4101400260812478374051TUMLOS, LILIAN                                           0501
A4101400390813478374045FIRMALINO, MELECIA ATIENZA                               0503
A4101400420814520766117ARAO, CONSORCIA L.                                       0501
A0101412340000003349568ELFRED JOHN R. VIDOLA                                    0501
A0101406750000014212050FRANCISCO, CYNTHIA ROQUE                                 0501
A0101406750852540982001VICTORIA C HERRERA                                       0501
B0101405070861017545001MC TRAVEL AVIATION SERVICES CORP.                        1606
