B0101401670271821100608**********                                               2010
B1201400150421821100608**********                                               2001
A0101406620000000962243ROXAS, MANUEL ROQUE                                      0501
A0101411400000003750576TONOLETE, DANSKER MOLO OR                               10502
A0101411400000003750576GHRAZEL MARIE C. HILARIO                                20500
A4101400390000013570606DAISY SOFIA S. GARANGAN                                  0501
B0101401830141011349001EAST MANILA CAPITAL FINANCING CORP.                      1601
B0101401830000000033638CARITAS SALVE CREDIT COOPERATIVE                        11603
B0101401830000000033638(MANDALUYONG)008                                        21600
B0101401830000000033649CARITAS SALVE CREDIT COOPERATIVE-                       11605
B0101401830000000033649PASAY (009)                                             21600
A0101405940000000061623ROMAN, ALLAN GUEVARRA                                    0501
A0101400860011399972002*********                                                0502
A0101400860011483241002**********                                               0510
A0101401250000000441052ONGSUECO, SYLVIA K.                                      0502
A0101401250021183964002SATURNINO, ESTRELLA P. OR                               10502
A0101401250021183964002SATURNINO, NAPOLEON P.                                  20500
A0101411370000011680272PARAS, LUISA MAULION                                     0503
A0101400150000003141351BALDWIN H. YU                                            0501
B0101400150061044881001PRICE PRODUCT TESTING SERVICES INC.                      1601
A0101400150061230432001RAMON M. PANER                                           0501
A0101400150061231935002EMILINA P. GARCIA OR                                    10502
A0101400150061231935002MA. CARMEN JAVIE                                        20500
B0101400150061534780001STRAITS WINE COMPANY WHOLESALERS, INC.                   1602
A0101400600071330397001PELITO, JACQUELINE OR                                   10503
A0101400600071330397001SONGCUAN, EVELYN                                        20500
A0101405810072398505001**********                                               0501
A0101405810072520867001***********                                              0501
A0601400100000013624232LIM, DON BRIAN VILLANUEVA                                0501
A0601400360000013624250GOMEZ, GERALD CASTRO                                     0501
A0601400360000013624476JOAQUIN, REYNALDO JR MATUBIS                             0501
A0101413730000011325123*                                                        0503
A0101410560000011873182KRISTEL P. TELAN                                         0501
B0101401960121035387001**********                                               1601
B7201400170000008603172RCBPI (SAN PEDRO PARISH)                                 1608
A0101407270000002334732REDUCINDO, SONIA VASWANI                                 0501
A0101407270000011364173MEJIA, ROBERT RAMOS                                      0501
B0101407270162037605002MAINE CITY PROPERTY HOLDING CORP.                        1607
B0101407270162038101001BIRDS INTERNATIONAL, INC.                                1603
B0101401090171007908001PERPETUAL SUCCOR HOSPITAL &                             11606
B0101401090171007908001MATERNITY, INC.                                         21600
A0101401090171020726002UST DEPARTMENT OF PEDIATRICS                             0501
A0301400530000001409643TAHADLANGIT, ROEL P. OR                                 10501
A0301400530000001409643TAHADLANGIT, DIV                                        20500
B0301400530000005001603*******                                                  1602
A0301400530000011715290LANTAYA, ARNULFO DIVINAGRACIA                            0502
B03014005301936127900010193-612790-001                                          1601
A0101401380000001819781FUENTES, JENNA DEAN                                      0510
B0101401380201044189168**************************                               1605
A0101401380201502664001LEY, RICHARD NOEL CO                                     0501
A0101401380201562273001MONTEMOR, JENEVEBE LACAY                                 0502
A0101413020000000880393CUARESMA, PEDRO DORIA DBU:839                           10503
A0101413020000000880393MACHINE WORKS                                           20500
A0101413020000000038322MERCADO, ANGELITA SANCHEZ                                0501
A0101410720000007843470SAMBRANO, MARIE CAMILLE ASIS                             0502
A0101410720653027645001AZERI INDUSTRIAL SALES                                   0506
B0101412500000013532713DEQUINA JR., RAMON POTENTE DBU RPDJ                     11601
B0101412500000013532713TRADING                                                 21600
B0101413600000000206915LEGEND OF ICE RECRUITMENT                               11605
B0101413600000000206915& SERVICES INC.                                         21600
B3101400450223024184001MIGUEL A. TORRES FOUNDATION, INC.                        1602
B3101400740224045253002MADISON SOUTH HOMEOWNERS' ASSOCIATION                   11601
B3101400740224045253002INC.                                                    21600
A3101400870000005565255DE GUZMAN JR., O DBU ODG                                10501
A3101400870000005565255ENGINEERING SERVICES                                    20500
A3001400130000000068364SALEM, RICHEL TRUGILLO                                   0502
A1001400190231277021002BONGABONG, DANIE MINTALAR                               10501
A1001400190231277021002BONGABONG, ARACE                                        20500
A1001400190000000124803FANTONIAL, MERILY H.                                     0501
A1001400350000000017821TE, CINDY SANCHEZ                                        0501
A1001400350000003867250PEARSON, LAARNIE PEARL ROA                               0504
A1001400350000000922218FGCC CONSTRUCTION AND SERVICES                           0505
A1001400480000002300383GUINTO, JEAN MAGO OR GUINTO,                            10502
A1001400480000002300383NEMER SARDEA                                            20500
B0101406620273047215001UMIC INTERNATIONAL, INC.                                 1602
A2601400270302519844001JULIUS CEASAR OR JENNIFER BAYSA                          0503
B08014001603110372760011957 MARKETING CORPORATION                               1601
A0801400160311380582001CHUA, ANDREW UY OR                                      10501
A0801400160311380582001CHUA, PAMELA G.                                         20500
A6601400120000001105833CARDENAS, NICANOR OR IRMA                                0501
A6601400120000011286270GACUSAN, RAUL CORRAL DBU 8.3                            10502
A6601400120000011286270COMPUTER TECHNOLOGY                                     20500
A2901400130000009071789ICAMINA, MARY KAREN VERONICA RO                          0501
A2901400130000009071789ICAMINA, MARY KAREN VERONICA RO                          0501
B0101405650322432069001MANRESA SCHOOL PARENTS AUXILIARY                        11601
B0101405650322432069001(MSPA)                                                  21600
B0101402510341008060001PHILIPPINE ASSOCIATION FOR TEACHERS AND                 11602
B0101402510341008060001EDUCATORS, INC.                                         21600
A0101402510341382418002PARCO, MA CORAZON BRUNO                                  0501
B0201400760374095164001DE LEON, MARIE JOY OR                                   11601
B0201400760374095164001DE LEON, CECILIO                                        21600
B0201401020000000042333PHILIPPINE CEBU POULTRY FARM CORPORATION                 1605
B0101402930000000057532PALINSAD JIMENEZ & ASSOCIATES                            1601
B0101402930381100004001MANILA ELECTRIC COMPANY                                  1603
B0101408370000010545161NEDSTEEL CONSTRUCTION & DEVELOPMENT                      1601
A0101408370000003774976*******                                                  0501
A0101408370382205365001DR. BENITO V. PURUGGANAN                                 0503
A0101408370382570492001DR. GLENICE KANE C. NOCOM OR                            10503
A0101408370382570492001ELIZABETH C. NOCOM                                      20500
A0101408370000006446039LABIO, MADALINEE ETERNITY DIZON                          0503
A0101408790000000039110CALIMLIM JR., CARLITO SAN JUAN                          10501
A0101408790000000039110OR SALCEDO, MICH                                        20500
A0101402770391282719001GASPAR, LIBRADA PUNONGBAYAN                              0501
A0101405490000013624130DINIO, LEA PETITA BRAVO                                  0501
A0101405490392745509001MA DULCE CORAZON BESS C. GAURAN                          0501
A0101405490000005210160GAURAN, JOSE ANDRES CRUZ                                 0501
A0101409180000009769293BLAIR, IAN LESLIE                                        0501
A0101409180000010760113KATIPUNAN, KRIZEL CASUPANAN                              0501
B5501400120410045168008SUNRICE SOLIVIO RICE MILL                                1602
B5501400120410283898002GARCIA, JOSIE JAVELLANA                                  1602
A5501400120000009875518ASUMBRA, JOSEFINA PECSON                                 0502
A2401400180000002146265**********                                               0503
A1201400150421253952001DELA PENA, BONIFACIO ILAO OR                            10505
A1201400150421253952001DELA PENA, KARINA                                       20500
A1201400150421254822001GARALDE, GERARDO SUAREZ                                  0501
A0101403030000005327588**********                                               0503
A0101403030441239031002**********                                               0501
A0101403030441413980001**********                                               0501
B1901400160491245851001CARLITO/FELIE/TIMOTHY JOSEPH/CHERYL ANNE                11601
B1901400160491245851001GO/CARLEEN G SIH                                        21600
A1901400160491405481001CARMELA P LLANA OR                                      10504
A1901400160491405481001VINCENT WIGBERT                                         20500
B1401400110492013980002IMPERIAL APPLIANCE PLAZA                                 1601
B1401400110000004461972SUPER MAK FOOD CORPORATION                               1602
A1401400110492652676001DEZA, VIVIAN P. OR                                      10505
A1401400110492652676001DEZA JR., ARSENI                                        20500
A1601400170000012410756GONZALES JR., RENNIE LUIS BELLE                          0501
B0701400260000000671072ROSAM DAILY EXPRESS, INC.                                1601
A0101407430503388398001LINCHOCO, MARIETTA CONCEPCION                            0501
B0101405940512019757001COLEGIO SAN AGUSTIN MAKATI ALUMNI                        1602
B0101408530000000035823CHEVIGNON CLOTHING COMPANY, INC.                         1601
B0101408530000001275394SUNNY SKY DRAGON RESOURCE INC.                           1601
B0101408530516485782001DANIEL LIM OR CARLEEN LIM                                1601
A0101408530000005029196SANTIAGO, ANNE MARYKNOLL LACUNA                          0501
A0101411400000005329875UY, SHARMAINE ANN BARTOLOME                              0501
A0101411790000013621608SORIANO, ABBY GRACE GATMAITAN                            0501
A0101411790518055764342HUSSEIN, ABRAHAM PASCUAL                                 0501
B0101403450521011666001**********                                               1620
B0101403450521238615001**********                                               1603
A0101403450521240998001**********                                               0503
A0101403450521240998002********                                                 0503
A0101403610000013482463MORDIDO, ALYSSA JANE GAMBA                               0501
B0101403610531056136004ROTARY CLUB OF SAN PEDRO                                 1601
B0101403610531690989001REFORMA, BENISON AND MARILOU                            11601
B0101403610531690989001AND ANDISON                                             21600
A0101403610000001174772BERROYA, EDRALIN OLIVAREZ OR                            10506
A0101403610000001174772BERROYA, MA. ANA ESGUERRA                               20500
A2201400250561028327002******                                                   0502
B2201400250561033264001HILCRES BUILDERS CENTER                                  1601
A0101412180000001838899ASIGA, LEONEZZAR SIAO                                    0502
B0101412180000008320103VERTICAL SPACE INTERIORS, INC                            1610
A0101404260611485722001RIVERA, MARIE ANTONETTE RICARIO                          0502
B0101409890000012558668KIDDIE BLOSSOM GROUP INTERNATIONAL                      11602
B0101409890000012558668INCORPORATED                                            21600
A0101409890000006812906TEODORO, JACKIELYN DBU                                  10502
A0101409890000006812906JRGT ENTERPRISE                                         20500
A0101409920000011312751**********                                               0501
A0101409920000000022099DELA VEGA, ANTONIO S. OR                                10501
A0101409920000000022099DELA VEGA, IMELDA                                       20500
A0101407690000008045823BARCELONA , JO DBU BDZ TRUCKING                          0501
B0101407690000003767937IGLESIA NI CRISTO                                        1601
B0101407690652020777001IGLESIA NI CRISTO-CONTINGENCY FUND                       1601
A0101413440000000038140RAMIREZ LAW & CONSULTING FIRM                            0501
A0101413570000001720161DELA CRUZ, LANI ROSE CARRIDO                             0501
A0101413570000002976130FLORINDA J. BUBAN                                        0501
A0101413990000009469463***                                                      0505
A0101414120000001984256MARTINEZ, CONSOLACION APO                                0502
B0101410300663045464001DRAGONPAY CORPORATION                                    1601
A1301400210682555728001MARINA M. ROQUE                                          0506
A1301400340000012156171MAALA, ERWYN FRAN GARCIA                                 0501
A1301400340683406123001TOBIAS, SUSANA FULGENCIO                                 0502
A1301400340683493166001BUNDOC, REDMOND CASAJE                                   0502
A1301400500000005963277VENTURINA, REGINO VICTORIA                               0503
A1301400500000011254463SAMSON, JACQUELINE DIAZ                                  0501
B1301400500684602319001*****                                                    1603
A1701400230693712781001BLAS, SAMUEL SIMEON  OR BLAS,                           10501
A1701400230693712781001MANUEL SIMEON                                           20500
A1701400230000000097687BLAS, SAMUEL SIMEON                                      0501
A0101408240711392969002SAZON, MARGARET MARY GOLDEN                              0501
A0101408240711520240001ESTORNINOS, KLARISE ANNE CUNANA                          0501
A0101408240711591742001LIMOS, DOMINADOR CASIM                                   0501
B2801400230000005253710RICH AXXESS DISTRIBUTION INC.                            1601
A4101400260000013624221MEDINA, KRIS MANZANILLA                                  0501
A4101400260000013624454RICALDE, CHRISTIAN TRIVINO                               0501
A4101400260000013624567VILLANUEVA, BEVERLY TRIBIANA                             0501
A4101400260000013624261AFUANG, CARLA S SIGUA                                    0501
A4101400260000013624465ROMERO, MARK DANIEL ROQUE                                0501
A4101400390000001404266SAMARITAN C. SOLAS                                       0502
A4101400390000000500416JERRIMO L. GENUINO                                       0501
A4101400390000001732689VILLANUEVA, JOYCE ANGELI PELAYO                          0501
A4101400420000009270640ILANO, JENNIFER DAYRIT DBU                              10502
A4101400420000009270640DOUBLE EIGHT AUTO SUPPLY                                20500
A4101400420814478374122AGUILO, RODENA T.                                        0501
A4101400550000007583660DIZON, C DBU C.D. DIZON CONSTRU                          0502
A0101404840000000683530SISON, JOANE KAROL CABRERA                               0501
A0101404840000000683530SISON, JOANE KAROL CABRERA                               0501
B0101404840000006365466PARDO, FERNANDO UY DBU VOLMAX MARKE                      1601
A0101404840851520766121ESTREMOS, LUNES                                          0502
B0101413860000001767991OCEAN WAVE CRUISERS INTERNATIONAL M                      1603
B0601400230000000029707TOLENTINO, JOSELITO PANLILIO OR                         11601
B0601400230000000029707LACAP, MILAGROS                                         21600
B0601400230000010299200DEL ROSARIO, ANTONIO GUTIERREZ                           1602
