B0101400570281026272001THE EPISCOPAL CHURCH IN THE PHILIPP                      1602
B0101410720210821100608**********                                               2005
A0101411790000012947907PULIDO, PATRICK ALVIN AND                               10501
A0101411790000012947907PULIDO, ABIGAIL TIMOG                                   20500
A0101405810072385132001***********                                              0503
A0101402060351211631001VILLONGCO, DOLORES G. OR                                10501
A0101402060351211631001AGIAS, CYNTHIA M                                        20500
B0101402930381042608001ROBIG BUILDERS AND DEVELOPMENT CORP                      1602
A0101411790000000039303GAN, JOSEPHINE DELA CRUZ                                 0501
A0101411790000011045951MONTANO, JULIETA CORTES                                  0502
A0101407720000013900766FORONDA, JONNALYN REGINIO                                0501
A0101407720602381795001FORES, MIGUEL EDGARDO MANUEL                            10501
A0101407720602381795001OR FORES, LUCIA                                         20500
A0101400860011393568001***********                                              0502
A0101400860011605096001**********                                               0501
A0101400860011653864001**********                                               0501
A0101400860011706509001***************                                          0505
B0101400150061011066001FOOD SOURCE, INC.                                        1605
B0101400150061034531001PHILIPPINE PLAZA HOLDINGS, INC                           1601
B0101400150061035853001EPICUREAN PARTNERS EXCHANGE, INC.                        1610
B0101400150000001708345SKIN SCIENCES LABORATORY, INC.                           1603
A0101400150061229814001LEONCIO C. LIM                                           0501
A0101400150000000053089BORLONGAN, IVAN RUDOLF RECABE                            0501
B0101400600071233733001********                                                 1601
A0101400600000000007649*****                                                    0505
B0101405810072234719002***************                                          1605
A0101405810072234816001CORAZON L. MACATUNO OR                                  10503
A0101405810072234816001RODANTE L. MACAT                                        20500
B0601400100081028347001NP ANGELES SERVICES, INC.                                1603
A0601400100081383884001ARCENAS, MA. SHEILA DEMETERIO                            0503
B0101413730000000144589**********                                               1602
A0101400730111718087001PASAGUE, LALAINE TRINANES                                0501
A0101406040112378037001JOSE L. PABALAN IV                                       0502
B0101406040112764714001********                                                 1601
A0101413150000003868300**********                                               0501
A0101413310000010500037PONCIANO, RHOBEN V OR                                   10501
A0101413310000010500037PONCIANO, ROSITA V                                      20500
A7201400170000011454390ANDIGON, GINA NANO OR                                   10501
A7201400170000011454390ANDIGON, JESSIE MUNDO                                   20500
A0101412920000005354223COMPANERO, LORENETE ISLETA                               0501
A0101400440161039572049ALCALA O. GENUINO                                        0502
A0101400440161266594001EMMANUEL A. BILLONES                                     0501
B0101407270162029977002TECHNOFAST ENTERPRISES, INC.                             1601
B0101407270162053928002QUANTUS BUSINESS SERVICES, INC.                          1610
B0101407270000000830551POULTRYMAX OMNIS, INC.                                   1603
A0101401090171195137001DRA. ESTELA RIVERA OR                                   10502
A0101401090171195137001LEAH SOCORRO RIV                                        20500
A0101401090171195155001MA. AUXILIADORA R. REBURIANO                             0501
A0101401090171347113001LINO N. BARON                                            0501
A0101401090171394706001ROSA D. SULLERA-LUMBRERA OR                             10501
A0101401090171394706001SERAPION SULLERA                                        20500
A0301400530000000066077SHI, PING PING                                           0502
A0301400530000014250250CARPIO, CARLITO TAN                                      0503
B0301400530193037796168WANSE COMPANY, INC.                                      1604
A0301400530193478957001RUFILA, LLEUWELYN BUSTAMENTE                             0502
B0301400790195069710001MITHRIL DEV'T. CORP.                                     1601
A0101401380000012373090ISAAC, FERMINA ALMIRA                                    0502
A0101401380000012373103PINANGAT, ROLL STEIN TIERRO                              0502
B0101401380201042910001SECURITRON SECURITY SERVICES, INC.                       1605
A3101400160000012033348BARANDA, NIMROD BARRIENTOS OR                           10501
A3101400160000012033348RAMORES, EDLIE JOIE                                     20500
A3101400160000014144031AVELINO, RONALDO UY                                      0501
A3101400160000014144042LAHORRA, ANGELITE WEYNE MATEO                            0501
A3101400450223365991003DR. RUEL REYES OR                                       10502
A3101400450223365991003JANET JOY REYES                                         20500
A3101400740000014426401CACALDA, MA. CRISTINA JAYLO DBU                         10501
A3101400740000014426401CJW ENTERPRISES                                         20500
B3101400870225054540001ONE SOURCE GENERAL SOLUTIONS INC.                        1602
B3001400130000008264886PIPRIME CORPORATION                                      1606
B3001400130000008264966PIPRIME CORPORATION-OZAMIS                               1606
B1001400190231022229001CITY ALLIANCE CHURCH                                     1602
A1001400480000000606842MADERA, GEORGE ENCALLADO                                 0501
A1001400480000003357737***************                                          0501
A1001400480000014310231ARANETA, MAUREEN IRISH SAMBAAN                           0501
A1301400470000001004071FERDINAND U. CRUZ                                        0501
A1301400470000001299009NIDA S. AQUINO OR                                       10502
A1301400470000001299009MANUEL M. AQUINO JR.                                    20500
B1301400760000000050871ENCORE LEASING & FINANCE CORP.                           1601
B1301400760253062601001EXTREME MOTOR BIKE TRADING CORPORATION                   1601
A1901400290000012351847IMELDA V SIASOCO                                         0501
A1901400290261380656001DAISY NOCOM CHAN                                         0501
A1901400290261488341199CLAIRE P AGUIRRE                                         0502
A0101401670000006975520DELA CRUZ, LUIS TOLENTINO                                0501
B0101401670271007101001CONTINENTAL HOMES, INC.                                  1604
B0101401670000000739173MALL TILE EXPERTS CORPORATION                            1602
A0101401670271186217002ERNESTO L. PILARES OR                                   10502
A0101401670271186217002ALICIA L. PILARE                                        20500
B0101406460272021223001ORION INDUSTRIES INC,                                    1601
B0101406460272033798001WTA ARCHITECTURE AND DESIGN STUDIO                       1603
B0101406620273037236001SANTOS SANTOS & SANTOS LAW OFFICES                       1601
A0101406620000010983152GHORBEL, FATHIMA DORADO                                  0504
A0101411820000002328452GENISES C. SOLOMON                                       0501
A0101412470000000520170NG, MARJORIE OR SIY, CHERRIE OR                         10502
A0101412470000000520170BARCELON, MARILYN                                       20500
A0101400570000002329831GAN, RICHARD BALAGOT                                     0501
A1101400120000006186763PEDOTERA, ARSENIA PACUANCUAN                             0501
B1101400120000008001210********                                                 1610
A6601400120000002249794BALDOS, BERNARDO INIGO                                   0502
A3401400280000011150711MORALES, MARIANNE AVELINO                                0501
A3401400280000001723513BILLONES, EMMANUEL ACUNA                                 0501
A2901400130000009072128NAGTALON, DONNA DELA CRUZ                                0502
B0101402350321012513001CONNER HARDWARE CORP                                     1601
A0101402350321022842001FALCIS FRESH CHICKEN                                     0503
A0101402350321179538001MAMACLAY, EDUARDO                                        0501
A0101405650322551484001CHUNG, PIEN LUNG                                         0501
A0101402510000013485560TOLENTINO, R DBU YOROSHIKU                              10502
A0101402510000013485560JAPANESE RESTAURANT                                     20500
A0101402510341395239001PATRICIA W. YAM                                          0501
A0101402510000013485800ALCALA, GINA CALA  OR                                    0502
B0101402060000000358781SPT LAND PROPERTIES, INC.                                1602
A0101402060351213405001LEOZALDY C. LINTAG &/OR                                 10501
A0101402060351213405001DEANA M. LINTAG                                         20500
B0201400760000001612948LMDC CORP.                                               1605
A0201400890376763623001**********                                               0502
B0201401020377249471001COMMONWEALTH INSURANCE COMPANY                           1602
A0101402930000002269127MOFFAT, KIMBERLY BATAC OR                               10501
A0101402930000002269127MOFFAT, JAMES LEE REYNOSO                               20500
A0101402930013100000282OCAMPO, CHARITY DELA ROSA                                0503
B0101402930381017213003UNIVERSAL ROBINA CORPORATION                            11602
B0101402930381017213003URC - GD                                                21600
B0101402930381017213007UNIVERSAL ROBINA CORPORATION                            11602
B0101402930381017213007URC - CMC                                               21600
B0101402930000005646000CORDEOS INTEGRATED TECHNOLOGY INC                        1601
A0101408370382205131001DR. ELENA C. AZARRAGA                                    0505
A0101402770391211308001***************                                          0504
A0101408400000001855381ABSA BUILDERS                                            0503
A0101408400394478374094NUNEZ, GENIE                                             0501
B0101408950000012665828MORATILLO, A DBU MORATILLO ENTERPRISES                   1601
B0101409180397062516001PHYSIXARE ADTEK SOLUTIONS, INC                           1601
B1201400150421013242002NORTH QUAD CREDIT CORPORATION                            1601
A1201400150421478374014PERIDO, MARY JANE                                        0503
A0101403030441241050001**********                                               0503
A0101412890000002747744GUERRERO, GLORIA GARCIA                                  0501
A0101403320000014144862SHEILA CONCETTA L. ACAO                                  0503
A0101406330472081531001MARIA SHIERILA R. IGOT                                   0503
A0101406330472215905001MARCELO OR ERLINDA DELAS ARMAS                           0503
A0501400170481485605001MACARAEG, MERIAM REASONDA                                0504
A1401400110000014424734ALVAREZ, ASCEL IDEA                                      0501
A1401400110492364401001RAFA,RAQUELITA OR RAFA, RENE OR                         10501
A1401400110492364401001RAFA,REI ANTHONY                                        20500
A1401400110000000132841*******                                                  0501
A0101403580000002265590CRUZ, JOHN IRA VENTIGAN                                  0501
A0101403580000012912293ASCANO V, AARON ALEXANDER                               10501
A0101403580000012912293JOSELLO                                                 20500
A0101405940000000061561VELARDE, FRANKLIN CHURCHILL OR                          10502
A0101405940000000061561VELARDE, MILISSA IRENE                                  20500
A0101405940000012443253LOPEZ, JOSELITO OR DABELA,                              10502
A0101405940000012443253ANALYN                                                  20500
B0101405940000000002740TRANS-MILLENNIUM MERCANTILE CORPORATION                  1603
A0101408530000003519351WILSON CHRISTIAN V. TIU                                  0502
A0101411400000005157211LORENA, LEVIE NOBLE                                      0501
B0101411400000001280557ROMEO B SIRA DBU RBSS PROJECT MANAGEMENT                11601
B0101411400000001280557SERVICES                                                21600
A0101411790000000039358RANGAS, ADILYN VILLARMIA                                 0501
B0101411790000004808106SPECTRUMED INC.                                          1602
B0101411790000007879132*********                                                1602
A0101412050000002314381MIGUEL, SHIRLEY FERNANDEZ                                0501
A0101412050000012912453HUANG, CHANGHONG                                         0501
B0101403450000011473697OLLERES, EVANGELINE DOMINGO DBU ZAE                      1601
B0101403450000011473573**********                                               1605
A0101403610000011343701SAN PEDRO, LOUELY CANULLAS OR                           10501
A0101403610000011343701SAN PEDRO, LOREM                                        20500
B0101404130000002121522CONTROL PRINTING CORPORATION                             1602
B0101407720602028787001RTN HEAD OFFICE CREDIT ASSOCIATION                       1601
A0101407720602379811001NOEL S. AYPA OR MA. CARMEN                              10503
A0101407720602379811001TERESA G. AYPA                                          20500
B01014077206024892100011stMARK GLOBAL MEDICAL SERVICES, INC                     1602
A0101407720602500492001GUTIERREZ, JOSEPH DALE                                  10502
A0101407720602500492001DEL ROSARIO                                             20500
A0101412180000000503933VIRAY, DOMINIC MILAR                                     0501
A0101404260611005236004WILTRON ELECTRONICS                                      0503
B0101404260000004781357TRACEBEST INC.                                           1610
A0101404260611434067001BARROGA, NORA FLORESCA                                   0502
A0101407690000005197975VIDAL, JONATHAN ISLA                                     0501
B0101407690652039085001JUNBEL INDUSTRIAL SYSTEM CORP.                           1602
A0101407690000001919946REBADOMIA, MARIETA - DEALERS OF                         10501
A0101407690000001919946SHOECAT INC.                                            20500
A0101407690652621379001LAO, LORRAINE DELA CRUZ                                  0502
A0101413440000003436393SARMIENTO, ROSARIO T. or                                10501
A0101413440000003436393SARMIENTO, LEXAN                                        20500
B0101413570000003580681FERRER, MARK OLIVER AND FERRER,                         11601
B0101413570000003580681ADLIN MAE                                               21600
A0101413990000014425993SARON, ANNALIZA ADOLFO                                   0501
A0101414120000000648960AZUELA, CYNTHIA LARGADO                                  0502
A0101414120000000398870JAY CRISTOPHER DELA CRUZ                                 0501
A0101414120000006005367NAJOS, ELVIRA ABAO                                       0501
A0101414120000000649047TEJA, LORENA DELA CRUZ                                   0501
A0101406590662673251001ABARABAR, MARILOU YU                                     0501
A1301400210000014161172CHAVEZ,ANGELLO OR DE CHAVEZ,                            10501
A1301400210000014161172ANGELITA OR CHAVEZ, AMELI                               20500
A1301400340000010467502ESTERBAN JR., DONALD BENJAMIN                            0501
A1301400340000002158454MICRO TECH STEAM LAUNDRY                                 0501
A1701400230000001786901CU, DENNIS LIM OR CU, RENEE SY                           0501
A1701400230000008555255SANTIAGO, DOLORES CENTENO OR                            10502
A1701400230000008555255SANTIAGO, KATHREENAH C.                                 20500
A1701400230000012227319MARZAN, JANICE JANE FRANCO DBU                          10503
A1701400230000012227319CAFE JUAN                                               20500
A0101408240711088740001BICHARA, JUSTIN KAHLIL OR                               10501
A0101408240711088740001MIGUEL OR CRISTINA                                      20500
A0101408240711180164001TUPAZ, CORAZON RONQUILLO                                 0501
A0101408240711292762001HERMINA H. TAGAYUN OR                                   10501
A0101408240711292762001CRIS B. TAGAYUN                                         20500
A0101408240000000039683MIRCHANDANI, SHERYL OR LALA                             10501
A0101408240000000039683OR MICHAEL                                              20500
B0101408240711721986001ST. JAMES COPA FOUNDATION, INC.                          1602
A4101400260000012866678PANGILINAN, MARIA MAY                                    0501
A0101404840000013645724CARREON, NESRAIM CUNETA AND                             10501
A0101404840000013645724CARREON, KEVIN C                                        20500
B0101404840851060813001NEXT ASIALAND INC.                                       1602
A0101404840851322219001PINEDA, IMELDA DE LEON                                   0501
A0101404840851526058001DIZON, EDWIN OBRA                                        0501
A0101406750000009472062CLEMENTE, JOSELLE SIAN                                   0502
A0101406750000002040328HERNANDEZ, R DBU RJM LEARNING I                          0501
A0601400230000007402224**********                                               0502
B0601400230000000029894DREAMMAKERS PHILS CONSTRUCTION COMP                      1603
