F0101406880513030572001HIGH GRADE OIL TRADING CORPORATION                       2601CKO
F3201400190000001492935SY, MIMI ENA LUCIA PIRA OR                              12501CKO
F3201400190000001492935FERNANDO L. SY J                                        22500CKO
