A0101408400000001835161LAUD JR., RAYMUNDO CASTROMAYOR                           0501
B1001400190231025146001MISOR PROGRESSIVE MASON TEMPLE, INC                      1601
A1001400190231478374086LORNA A. OMANDAM                                         0501
A0101412340000012464772Jeannette Panghulan                                      0501
B0101410720653022858002FOODKING CUISINE & SERVICES INC                          1602
A1001400190231520766129SANCHEZ, CATHLYN E.                                      0501
A1001400190000000124832LIGTAS, ELSA D.                                          0501
A0101400860000005312958**********                                               0502
A0101400860000010683297**********                                               0506
A0101400860011426836001*********                                                0502
A0101400860011478374002RENDOQUE, WIRANDA SAUDI                                  0502
A0101400860011715602001**********                                               0502
A0101400860011742046001**********                                               0504
A0101401250001120001147SEBALLA, CHERRY ANN TRIBACO                              0502
A0101411370000005524261ROMA, GABRIEL CHUA                                       0501
A0101400150000000253278GELANO, ANGELO RECTO                                     0501
A0101400150000017404701ZAVALA, JOAQUIN MIGUEL ORSOLINO                          0504
B0101400150000004980805STRATICON DEVELOPMENT CORPORATION                        1602
A0101400150061337098171LINDA LIM HONG                                           0501
A0101400150061697165001SERVER, CATHERINE ANNE B. OR                            10502
A0101400150061697165001CHRISTINE MICHEL                                        20500
B0101405810000013190820REYES, GINA TING DBU JOLLY NUTS & C                      1601
B0101405810072029570001PLASTIC CONSUMER CORPORATION                             1602
B0101405810072030630002SK PLASTIC RELIANCE COMPANY                              1601
A0601400100000010683964EPRM TRADING                                             0501
B0601400100081675425001VIRTUAL LANDHOLDINGS DEVELOPMENT GROUP                  11601
B0601400100081675425001CORP.                                                   21600
A0601400520000013872643PUNO, JASMINE NICOLE SANTIAGO                            0501
A0101413730000013294350*********                                                0504
A0101410850000013601382MORENO, BLAS JOJIT MANGUNAY DBU                         10505
A0101410850000013601382JBMM ENTERPRISES                                        20500
A0101413310000008415350RAMOS, RICHMOND DE GUZMAN                                0502
A0101401830000001140134DELA PENA, REA JUSI                                      0501
A0101401830000012287684DILAO JR., EDWIN MAGDAMIT                                0501
A0101412920000015711885LATORRE, ARLEEN DELA VEGA                                0502
A0101412920000015711874ABARRIENTOS, JILLIAN SOCORRO                            10502
A0101412920000015711874PASIA                                                   20500
B0101407270000018275051HIDALGO, JOANNA BERNICE BUENSUC                          1605
B0101407270162035909001REYSONS EXIM INTERNATIONAL, INC.                         1610
B0101407270162037605002MAINE CITY PROPERTY HOLDING CORP.                        1607
B0101407270162038144001RAINCHEM INTERNATIONAL INC.                              1602
B0101407270000000043643ROSECOMB, INC.                                           1602
A0101407270162331908018CATHERINE MADONNA C. CRUZ                                0501
A0101407270162599488001ROMEO M. SALAZAR OR                                     10504
A0101407270162599488001BERNADETTE V. SALAZAR                                   20500
A0101401090000011984588MARIA ANGELA T. CUMAGUN                                  0506
A0101401090171196348003SONGCO, EVELYN ARIOLA                                    0501
B0301400530000012665139*****                                                    1602
B0301400530000008307700APEX PREMIER PHARMACEUTICAL AND CON                      1605
B0301400530000008307700APEX PREMIER PHARMACEUTICAL AND CON                      1605
A0301400790000001776138ESCAMIS, JOSE PACLAR DBU                                10505
A0301400790000001776138ESCAMIS BUILDERS                                        20500
A0301400950000013857202GO, SAMUEL DBU EMVG FOOD PRODUC                          0502
B0301400950000002115840DAVAO BARRIO BISTRO, INC.                                1604
A0101401380000005320990*********                                                0503
A0101401380000000682622********                                                 0501
B0101410720000014921150PIER CAPITAN GOURMET CORPORATION                         1602
B1001400190000005708983GARAY, FLORENTINE TECSON DBU GARAY GENER                11602
B1001400190000005708983AL MERCHANDISE O                                        21600
B1001400190000008744123NEOTRINITY CORPORATION                                   1610
A1001400190231520766031CARANO-O, JANFIR JANE V                                  0501
A1001400190231520766051NANCIE DAAYATA                                           0501
A1001400350000015675462FERNANDEZ, LUCIEH JULIE JACUTIN                          0501
A1001400350000015675473GALVEZ JR, LEODEGARIO LABADAN                            0501
B1301400470000013689928MONCHERRY HEALTH AND BEAUTY PRODUCTS                     1602
A1301400760000004522627ALFONSO S. MATIAS OR MARY ANN                           10501
A1301400760000004522627A. MATIAS                                               20500
A1301400760000005990003ROWENA D. ALVAREZ                                        0504
A1901400290000017582460SATSATIN, EDSIE ANGELA MALUPENG                          0502
A1901400290000017582442DE GUZMAN, GEELA VIARRA EVVOIA                           0501
A1901400290000017582653DIOSO, GRACE APIREN                                      0502
B0101406460000010284921S.I. GENERAL BUILDERS AND LAND DEVE                      1602
A0101406620000000962243ROXAS, MANUEL ROQUE                                      0501
A0101406620000000193639************                                            10501
A0101406620000000193639************                                            20500
A0101411820000001356474GENALYN ELE ASUNCION                                     0505
A0101411240000016158457LIBANO, NAOMI LOMIBAO                                    0501
A0501400200000013602323AQUINO, EDWIN GUTIERREZ OR                              10501
A0501400200000013602323AQUINO, NOEMI ESTRADA                                   20500
A0501400200000015227120GERONA, WERNHER LLEGO                                    0510
A2601400270000000561619RAUL T. SAWIT OR CARMELITA A.                           10504
A2601400270000000561619SAWIT                                                   20500
A2601400270000000561733ARCEL A. CAPUCHINO OR                                   10503
A2601400270000000561733MA BIATA A. CAPUCHINO                                   20500
B0801400160000012928360TIO, JEFFREY GO DBU WINEGARD                            11601
B0801400160000012928360MARKETING OR TIO                                        21600
B0801400160311043928001DELIFRANZ BACKEREI, INC.                                 1602
A0101405650000008159013AMISTAD, PAUL DOMINIC ALCON                              0503
A0101409050000008491061BALBUENA, JOYCE FELICE PASTORFI                          0503
A0201400890000015943243AMORA, MARLEN SURRONDA                                   0501
B0201401020000010966831ASIA PACIFIC EXPRESS CORPORATION                         1605
A0101402930381387448001DRA. MA. PAZ PAULA M. RAMA                               0503
A0101408370000010341732FABELLON, DIANE SUMALJAG                                 0502
A0101408370000010833480CO, PATRICK JAMES ENDICO                                 0501
A0101408370000010833593PELAEZ, CORNELIO DELA PAZ                                0502
A0101408370000003775133BANZON, MA. EIDLLEN AZARRAGA                             0505
A0101408790000016226469BADINAS, ESPERANZA VILUNTA                               0501
B0101402770000001571233LEADER GARMENTS CORPORATION                              1605
A0101402770391757431001HAYDEEN CHAN OR                                         10501
A0101402770391757431001PAULINO CHAN                                            20500
B0101408950000010411295ACUTE CARE AND TRAUMA SURGEONS                          11602
B0101408950000010411295ADMINISTRATIVE                                          21600
A0101408950000010507165ABAYA-BLAS, ROSARIO SALUD                                0502
A0101408950396564287001DR. IMELDA S. ESTRELLAS  OR                             10502
A0101408950396564287001ESTRELLAS,REGINE ISABELLE                               20500
A0101409180000005326330PALLANAN, CRISTIAN MANZON                                0502
A0101409180000016933723CONCEPCION, CHRISTOPHER TAN                              0501
B0101409210000002783384ELEVATE PHILIPPINES INC.                                 1603
A0301400820000001185780RUFEROS, ROY KENNETH OR                                 10501
A0301400820000001185780AREVALO, MICHELLE KAY                                   20500
A0301400820000002271956COMAINGKING, JESUS B.                                    0501
A0301400820000003148467GALEOS JR., JUAN P.                                      0503
A5501400120000015561118SORMILLO, LIZA ONG                                       0502
A5501400120000015561016DATO, PEDRO DELA RAMA DBU P.M.                           0502
A1201400150000017292827LARDIZABAL, JENALYN WIDWID                               0505
B1201400150421253585001ANGELES DIAZ                                             1601
A1201400150421549621001OCYADEN, ROSALIA ANGLIB                                  0501
A1201400150421789029002CO, JOHN SALVADOR AND                                   10502
A1201400150421789029002CORREOS, GEROME                                         20500
A0101403030441094224001******                                                   0501
A0101403030441239063001**********                                               0503
A0101403030441239399001**********                                               0502
A0101403320471004298001CACB PLYWOOD TRADING                                     0505
B0101403320471039191001MAR-V-RITZ TRADING - BRANCH                              1603
A0101403320471452852001EDGAR C. MONTOYA                                         0501
A0101406330472027958001A. ANOLIN ENTERPRISES                                    0502
A0101412760000015445646VILLAFUERTE, MAXIMINA DALANGIN                           0501
B0501400170481015881001TOYOTA DAGUPAN INC.-2                                    1615
A1901400160491069156002ALVES, LOLITA ILAGAN                                     0501
A1401400110000011337403CABANGON, EDGARDO MATRIANO                               0502
A1401400110000016975972CALINGASAN, ALDRIN ZOLETA                                0501
B0101403580000007864211MEC - PINES T2                                           1610
B0101403580511015363072MEC - EMD ANGONO                                         1605
A0101405940512497234001MA. CERESA DE TORRES REYES                               0501
A0101408530000002980512MENENDEZ, MA. PILAR URRA                                 0501
A0101408530000018320851LAGOS, JOANNE OBELIDON                                   0501
A0101408530000018320884TANGCAY, ABEL EVE YRAY                                   0501
B0101408530516042413001DENTAPRIME DENTAL SERVICES                               1604
A0101408530000010083331Emilen V. Palma Gil                                      0501
A0101412050000018080907GERONIMO, JOSHUA MIGUEL DE CAST                          0501
B0101403450521039412001SOLOMON COBOONPENG & ASSOCIATES                          1601
A0101403450521240099001**********                                               0501
A0101403610000006643274MINDEORO, DORECA BAGOS                                   0501
B0101403610000015239422HERCULES FINANCING CORP.                                 1603
A2201400250561256285001JESUS C. CHUA                                           10501
A2201400250561256285001OR JOSEFINA G. CHUA                                     20500
A0101410690000005383495TAN, DENNIS LI                                           0501
A0101407720602296141001ROMULO AUZA TROCINO OR MARIA                            10505
A0101407720602296141001CORAZON V. TROCINO                                      20500
A0101412180000002296820NGO, WILLIE ALBON                                        0501
A0101412180000008480104HERRERA, ERIC DBU HOTWHEELS TRA                          0503
A0101404260611478374080ESMENIA GRANDE                                           0501
B0101409890000012558817RUBITE, JESTER DBU JESTIN ENTERPRIS                      1602
B0101409890000000049169WQ CONSTRUCTION &TRADING CORP.                           1602
A0101413440000015535130BAQUILOD, THOMAS ROEL MIGUEL                             0501
B0101413440000014245182INSIGHTS & TRENDS MASTER YOUR MARKET INC                 1604
B0101413440000014245320AMA COMPUTER LEARNING CENTER, INC.                       1603
A0101413990000018030052TORRES, IMELDA F. OR                                    10501
A0101413990000018030052TORRES, YOLANDA F.                                      20500
A0101414120000008642702CLIMACO, JOEY BARRETO                                    0501
A1301400210000009982358***                                                      0501
A2801400100000002253458DATU, FERDINAND BULAONG                                  0502
A4101400260000010623731QUIRAP, JERIZAL F. OR                                   10505
A4101400260000010623731BAGO, MARIA CRIS                                        20500
A4101400260000018321336GUATNO, JANE T                                           0501
A4101400260000018313189IBANEZ, MIKAELA CAMILLE TAGAPIA                          0501
A4101400420000016908408PESTANO, EDWIN PODACA                                    0503
A4101400550000016729181TECSON, MARIA SALOME ROBLES                              0502
A4101400550000016729136BALAGOT, MARICEL DELA CRUZ                               0502
B0101412340000012536384MYOUTDESK INC.                                           1605
A0101404840000003409874*****                                                    0501
A0101404840000008968530ANGELES-BAYOG, MARGARITA OCRETO                          0502
B0101404840000001312270FIRST KINGSTON LEISURE AND SERVICES                     11601
B0101404840000001312270CORPORATION                                             21600
B0101404840000001312394FIRST KINGSTON LEISURE AND SERVICES                      1601
B0101404840000001312310KINGSTON COMMERCIAL AND RESIDENCES                       1601
A0101404840851298552056ROSARIO GABAYERON                                        0501
A0101406750000017168624BLANCO, JOANNA GRACE CODILLA                             0501
B0101405070000018220183COMPETENT MARITIME PROFESSIONALS AND SEA                11601
B0101405070000018220183STAFF(COMPASS)                                          21600
B0101405070861024123001TRAVEL SCENE, INC.                                       1605
A0101405070861197650002********                                                 0502
A0101405070861197650002********                                                 0501
A01014050708611979700020KA, TOSHIKATSU                                          0510
A0101413860000007558612BORROWERS OF FIRST DIGITAL FINA                          0501
B0601400230891028118001D.M. AUTO SUPPLY                                         1605
