A0101407720602387946001EDUARDO S. RONDAIN M.D.                                  0505
A0101412630000000180425**************                                           0501
A1101400120000006186434ZALDARRIAGA, MONA BACUYAG                                0501
A0101402930000000859736ALMA V. PATAY                                            0501
B0101407720000000885714MMC PEDIA ASSOCIATION, INC.                              1601
B0101407720000000885587ERIKAGEN, INC.                                           1602
A0101400860000002262539PAYABYAB, ROGER SALVADOR                                 0503
B0101400860000005313137**********                                               1601
B0101400860000001005354**********                                               1602
B0101400860011487274001**********                                               1602
B0101401250021016688001ST. MARY'S ACADEMY OF PASAY CITY, INC.                   1604
A0101401250021298552002CLARITA ARCEGA                                           0502
A0101400150000002902423FORMACION, MA. MERA SANAGUSTIN                           0501
A0101400150061337098032**********                                               0501
A0101400150061564610050DELA ROSA, ROMEO G.                                      0502
A0101400600000001335604PORRAS, MARIVIC DE GUZMAN                                0502
A0101400600000000007649*********                                                0510
A0601400520000004423272ZAPATA, CHRISTOPHER BRYAN                               10501
A0601400520000004423272OTCHENGCO                                               20500
A0101413730000000144625*******************                                      0501
B0101410850000003503773WHITE MOVERS TRUCKING CORPORATION                        1601
A0101400730111386485063LYNETTE E. BENDANILLO                                    0501
A0101406040000000014779********                                                 0502
A0101412630000000801643LIZARDO, LOVELY APRIL CARINO                             0502
A0101412630000004062086BANZUELA, ELEANOR ADORNA                                 0502
B0101401830000005577984BILLONES, MARIE ANN DISONGLO DBU                        11602
B0101401830000005577984LEVONTECH ENT.                                          21600
A5001400170000000213954LOPEZ, ISOLDE OR TAMAYO, AILYN                          10505
A5001400170000000213954OR TAMAYO, SHEEN                                        20500
B0101400440000000029310PERLA COMPANIA DE SEGUROS, INC.                          1603
A0101407270000006761482ARGUELLES, LUIS LLANERA                                  0501
A0101407270000008578214ELEFANO, PIERRE JAN CAVESTANY                            0502
A0101407270162506659001MA. JUDITH N. MARCELO                                    0502
A0101401090171303171001MARIVIC L. TORRES                                        0502
A0301400530000003087363LEGASPINO, HERMENEGILDA AARON                            0501
A0301400530000003573313PENAREJO JR., EDUARDO CANADA                             0501
A0301400530000008044353PARADO, TJ JOSSIE FERNANDEZ DBU                          0503
A0301400530000000065854PAMAONG, TERESITA                                        0502
A0301400530193504844111********                                                 0503
B0101401380201025256001MESSE & HANDEL CORPORATION                               1601
B0101401380201030648001ITEMP HOLDINGS INCORPORATED                              1601
A0101412500000003289941DELOS SANTOS, ARLENE FERNANDEZ                           0501
A3001400130000005446340BALANGA, MARIO FERNANDEZ                                 0501
A1001400190000002170781RAMIREZ, RHESA CABAGO                                    0501
A1001400350000000017810RITCHE G. ROSAL OR                                      10501
A1001400350000000017810RUTHEL G. ROSAL                                         20500
A1001400350000000922058ARENO, ANN JANE BUCO                                     0502
A1001400350233478374001JUNIO, ROGELIA A.                                        0501
B1101400250246821100608**********                                               2002
B1101400250246821200608**********                                               2002
B1301400470000000009561FUND LINK CREDIT & LOANS, INC.                           1602
B0101401670271034472001UNITED POLYRESINS, INC.                                  1601
A0101406620000005394710LIWANAG, RAQUEL ONG                                      0502
A0101412470000000520130FLORES, GINA CRUZ                                        0502
B0101400570000005666402AUDIO AUTOMATION AUTHORITY INC.                          1601
A0101400570281412453001TAYAG JR., DANILO OCAMPO                                 0501
A0101400570281452706001LEONARDO S. VALENCIA JR.                                 0502
A0101411240000002332532LAMSEN, RAMON MACASIEB                                   0502
A0801400160311371749001GANGE, ERMAN GALLETO                                     0501
A0801400160311478374053JONNA O. ALCAIN                                          0501
A0801400160311478374070GENALYN M. BOTANERO                                      0501
B1101400120313039184001SARC FOODS CORPORATION                                   1605
A1101400120000003197062COLLERA, JUSTIN MACATO                                   0504
A1101400120000000652380CAYUBIT JR., SERAFIN ASERON                              0502
A1101400120000003022373BANTULA, EVELISA                                         0501
A6601400120000000060711SIXTO C ESPINA III DBU LFCE                             10501
A6601400120000000060711PETRON JT                                               20500
A6601400120000003673056EVASCO, OTELIA ENRERAS JT                                0503
A2901400130000005961680JAYLO, MA JACINTA CERDON                                 0502
A0201400760374520766001CARULASAN, KRIZIA JANE BUGO                              0501
A0201400920000002804559DELA PENA, RUBELYN ARESTOTILES                           0501
A0201400920375504647001**********                                               0503
A0201400890376038937002ECB TRADING                                              0505
A0101415350000005028871JOSE, RAYMOND OLIVER P. DBU                             10502
A0101415350000005028871RAYBENJEN MARKETING                                     20500
A0101405490000000232453ROMEL P. ALMEDA                                          0502
A0101408400000005286302RIVERA, ROWELL CRUZ                                      0501
B0101408400394022813001PHILIPPINE RESEARCH & MARKET INFORM                      1602
B0101408400394028560001NEW LIFE CHRISTIAN CENTER (THE FORT) INC                 1602
A0101409180000001694271LARRAZABAL, MARIA VICTORIA                              10501
A0101409180000001694271MORENO                                                  20500
A0101409180000003780227MIDELYN ORCHID G. MAIGUE                                 0502
A0101409210000003297530ARTHUR POLICARPIO                                        0502
A0301400820000005196790NARCISO JR., AGUSTIN OR                                 10504
A0301400820000005196790NARCISO, SHIRLEY                                        20500
B2401400180411031945044ABC DISTRIBUTORS INCORPORATED                            1605
A2401400180000007031665LEGWORK ENGINEERING &                                   10502
A2401400180000007031665INDUSTRIAL SUPPLY                                       20500
A2401400180000000826299GENSAN VIEW RESORT                                       0501
A2401400180411338748001MARCO V. PERALTA OR                                     10501
A2401400180411338748001YU, ROWENA TAN                                          20500
A2401400180411472836003OMEGA, LEE ANN GENILO                                    0502
A2401400180411495475001SANCHEZ, HANNY CORPUZ OR                                10502
A2401400180411495475001SANCHEZ, RUFO                                           20500
A2401400180411577534001LASOLA, EDITHA RIVERAL OR                               10502
A2401400180411577534001LASOLA, ROGELIO                                         20500
A1201400150421455733001TUVERA-ORBITA, XENIA FERRER                              0501
A0101403030441239391001**********                                               0503
A0101403030441241050001**********                                               0503
A0101403320000008578087PIA MARIE J. CHANG OR                                   10501
A0101403320000008578087RODERICK S. CHANG                                       20500
B0101403320471063545001JAC PLASTIC PRINTING ENTERPRISE INC.                     1602
A0101410140000000254420DANCEL, LORNA BUENAVENTURA                               0502
B0101419750477821100608**********                                               2002
B0101419750477821200608**********                                               2002
B3801400170490786195001PATRICK C GO                                             1601
B1901400160491027966001SALESFORCE ONE MARKETING, INC.                           1605
B1401400110492013980002IMPERIAL APPLIANCE PLAZA                                 1601
B1401400110492028287001MARYHILL COLLEGE, INCORPORATION                          1605
A0101407430000003193359ARLENE B. ERASMO                                         0501
B0101407430000001028988********                                                 1608
B0101407430000000035247PNC GARNET PROPERTY HOLDINGS                            11602
B0101407430000000035247CORPORATION                                             21600
A0101407430503370162006MELIZA PADUA                                             0501
B0101408110515017722001STORES SPECIALISTS, INC.                                 1615
A0101408110000000379971CEPEDA, RODELLA G DBU                                   10502
A0101408110000000379971ZRRC ENTERPRISE                                         20500
B0101408110000001199208INTERNATIONAL SPECIALTY APPAREL INC                      1603
B0101403450521012010001********                                                 1603
B0101403610531085168008********                                                 1605
A0101403610531219335003MANGUNE, MACARIO C.  OR                                 10502
A0101403610531219335003MANGUNE, RITA R.                                        20500
A0101403610531399779001CABANATAN, JOSE MARIA MEALA                              0502
A2201400250000004404904AGONCILLO, ENRIQUETA BOTIO                               0501
B0101404130601030412001EXODUS BROADCASTING COMPANY, INC.                        1605
B0101404130601046787001NORTHPOINT DEVELOPMENT BANK, INC.                        1605
A0101407720602326333001SATURNINO PEREZ JAVIER                                   0502
A0101407720602372601001ENRIQUE E. CAMPOS M.D. OR                               10510
A0101407720602372601001SUSANA P. CAMPOS                                        20500
A0101407720602397661001LAZARO-DIZON, GERGEN MARIE SERR                          0502
A0101404260611005236004WILTRON ELECTRONICS                                      0502
A0101404260000003498533JOUSELYN PONTILLAS                                       0501
A0101409890000000049089GEMSTAR CLEANING SUPPLIES                               10505
A0101409890000000049089INTERNATIONAL                                           20500
A0101409890000000049034**********                                               0502
A0101409920650478374005CRISOSTOMO, MA. EMELIA GASPAN                           10501
A0101409920650478374005MEMBERS OF NATAS                                        20500
A0101413570000005867372ULGADO JR., NORBERTO NOSA                                0505
B0101414120000001984187WELL FITT LIFESTYLE CORP                                 1601
A0101414120000004603121FLYRYNE TRAVEL AND TOURS                                 0502
A0101414120000005252820JKJK WATER STATION                                       0501
A0101414120000000875652PABLITO OR RONALD JOHN OR                               10504
A0101414120000000875652PRINCESS JOY OR                                         20500
A0101410300000006278471TRINIDAD, CATHERINE LADIA                                0502
A0101410300000004361619LASTIMADO, ROGER ANTHONY IBANEZ                          0502
A1301400210000002909135BERNARDO JR., PASCUAL QUETUA                             0501
A1301400210682478374062MA. ERLINDA C CHUA                                       0501
A4101400390813292154001ANGELO OR MARIE LYN MOLATO                               0502
A4101400390813723742001EMILY SANTIAGO                                           0502
A4101400420814478374154CABRERA, FELIZA                                          0501
A4101400550000000506814DALAGAN, CATALINO B. OR                                 10504
A4101400550000000506814DALAGAN, TERESIT                                        20500
A4101400550000003266926SABADO, ROSALINDA QUERUBIN                               0502
A0101404840000000683443EVELYN FRIAS                                             0502
B0101404840000000090242SOUTHHILL MEDICAL SPECIALISTS, INC.                      1650
A0101404840851520766105ALICAWAY, HELEN                                          0501
A0101404840851520766163JOCELYN ANONUEVO                                         0501
A0101405070861197518001RICARDO G. CHAN OR                                      10505
A0101405070861197518001OLIMPIA C. CHAN                                         20500
B06014002300000060452907R FINANCE CORP.                                         1605
A0101414090000002282657                                                         0503
B2301400280304821100608**********                                               2002
B2301400280304821200608**********                                               2002
