F4101400420814016644004EMI EMPLOYEES DEVELOPMENT                               12605CKR
F4101400420814016644004COOPERATIVE                                             22600CKR
F0101400570281363142002ESPOSO, DR. EVELYN ANDRES                                2505CKO
F0101403320471046476001ZHOEBLESS CORP.                                          2601CKR
F0101414670000001340652****                                                     2606CKO
