B0101408660274821100608**********                                               2005
B5501400120410040763001JAO TAY MARKETING INCORPORATED                           1601
A0101412920000015383141LATORRE II, TITO ARRIOLA                                 0505
A0101412500214069342001UY, MARK HOMER SEE DBU JT VMU                           10502
A0101412500214069342001CONSTRUCTION                                            20500
B3001400130000013667502MARASIGAN, JR., AURELIO SALUDEZ DBU                      1602
B0101405650322006460001SOUTHGATE SERVICE CENTER, INC.                           1603
A1701400230693478374079GAN, MARIETTA FERNANDEZ                                  0502
A0101401250000016175901BALIAO, JOVITA LINGGON                                   0502
A0101401250021179040001NORMA LANORIA VALEROSO                                   0503
A0101400150000004090402CAMIT, RONALD ALARCON                                    0501
B0101400150000001708458PHILIPPINE FOODSERVICE GROUP CORPORATION                 1610
B0101400150000001708629INNOVEND CORPORATION                                     1605
A0101400150061087284001RODA, JULIUS R. DBU SJA TRADING                          0502
A0101400150061226941001ROBERTO L. CO OR                                        10501
A0101400150061226941001DOLORES I. CO                                           20500
B0101400600071011421002TECHNOLOGIES EPICENTER INC.                              1602
B0601400100081039554001GOLD MILES GAS STATION                                   1602
A0601400100081689611001MALINIT, MARSHAL OR MALINIT,                            10502
A0601400100081689611001JENNIFER                                                20500
A0601400520000012434332GALLARDO, LEONARD FLORES                                 0501
A0601400520000009516930GONZALES, PAULO PULMANO                                  0501
A0601400520000014433308TIGLAO, ANNA CHRISTINA NAGUIT                            0501
A0101410850000008264040MANABAT, GINO EMMANUEL P. OR                            10504
A0101410850000008264040MANABAT, AUDREY SARAI                                   20500
A0101410560000017372431UBANE, ARIANE JOY MABELIN                                0501
A0101400730000000833396CARBONELL, LEVINA IBALE                                  0502
A0101401960000013979338**********                                               0501
B0101401830141043438001R.A. ROSILIO ENGINE REBUILDER                            1602
B7201400170000003773557ASUGAS, GRACE MARIE N. AND DECIPULO                     11601
B7201400170000003773557WILLEJARDO M.                                           21600
B7201400170000003774301ROGER E. ALIVIO OR JENNIFER                             11601
B7201400170000003774301C. ALIVIO                                               21600
A7201400170000016056052MADARANG III, CARLOS NENGASCA                            0501
A7201400170000011160700LOQUIAS, CECILIA VIDAD                                   0502
A7201400170000009673141TRAYA, MARY JOY SEPADA OR                               10505
A7201400170000009673141TRAYA, REX JULIU                                        20500
A7201400170000011454287OBAOB, MARIE FE MARAASIN                                 0502
B7201400170000003773615JAVAVED DEVELOPMENT CORPORATION                          1605
A7201400170152060879001RENDON, EDNALYN BACAY DBU                               10502
A7201400170152060879001FRIENDLY MOTORS                                         20500
A0101400440000013845473ROJAS, JOSE ELTON TERGA                                  0502
A0101400440161186947001ROBERTO L. SENA                                          0502
A0101400440161459294001MARY ANN T. REGINALDO                                    0502
A0101407270000008824200MARIA CRISTINA MENDOZA                                   0501
A0101407270162377333002******                                                   0501
A0101407270162387970001******                                                   0503
A0101407270162422120001LENNEL L. DIAZ                                           0505
A0101407270162654312001GERARDO N. FERNANDEZ                                     0501
A0101401090171293965003VIVECA JANE OR CHARLIE                                  10502
A0101401090171293965003DEOCADIZ                                                20500
A0101401090171394706001ROSA D. SULLERA-LUMBRERA OR                             10501
A0101401090171394706001SERAPION SULLERA                                        20500
B0301400530193014284008COLOURLAND INC. - TAGUM                                  1602
B0301400660000012086663EBBERMAN CORPORATION                                     1601
B0301400660000012086674CHICKEEN CORPORATION                                     1601
B0301400660000012086696PHILIPPINE HALAL MANOK                                  11602
B0301400660000012086696CORPORATION                                             21600
B0301400660000002348541ERVY LOGISTICS                                           1602
B0301400660000006755111SABIDO PROPERTY MANAGEMENT, INC.                         1601
A0301400950000014676101TINDOY, FEDILINA PARALUMAN                               0501
A0101401380000015062541YABUT II, RAMON GILBERTO                                10501
A0101401380000015062541PUNONGBAYAN                                             20500
A0101401380201171279001TSAI, ROBERT                                             0501
A0101401380201689783001CONCEPCION, MAREEN RUFFY                                 0501
B0101410720000011276710AVAN & CO. INC.                                          1602
A0101412500000017555103PADUHILAO, PHILIP GARY TEOPE                             0501
A0101412500000018374844NARVASA, FREDERICK CARLO                                 0501
A0101412500000018376180BERJA, MICHELLE PAGBILAO                                 0501
B3101400160221010175001MARYMOUNT DEVELOPMENT CORPORATION                        1601
A3101400870000018377018AGUJA, MARVIN PALMARIA                                   0501
A1001400480000003357737***************                                          0501
A1001400480000014023353HARRIS, DIVINA VALENCIA                                  0501
B1001400480000011810012SUNDO, NORLYN MANGKILALA DBU SNS FARM                    1602
B1001400480000003357891AYA VENTURES CORP DBU ASONHUAT AGRO INDU                11601
B1001400480000003357891STRIAL GROWER                                           21600
B1301400470000007862904**********                                               1601
A1301400760000000050693MARLON P. MALLARI OR LEONCIA                            10501
A1301400760000000050693S. MALLARI                                              20500
A1901400290000017290541MANALO, MARIGOLD MACALALAD                               0501
A1901400290261048993001PINKY GUCE TANGONAN                                      0502
A1901400290261057642002CUENCA, NINA ANGELINA TANCHANCO                         10502
A1901400290261057642002DBU CUENCA JEWELRY                                      20500
A1901400290261298552066DOLORES SARMIENTO MANGUIAT                               0501
A1901400290261478374026CRISTY P MOLO                                            0502
A0101406460000011558371EBORA, DENNIS MALALUAN                                   0502
B0101406460272021381001CAMFEL HOLDINGS PHILIPPINES,INC.                         1601
B0101406620273007454001GLOBE ASIATIQUE REALTY HOLDINGS CORP.                    1606
B0101411820000000477470KLT FRUITS, INC.                                         1601
A0101412470000008158970JAVIER, LUIGI RAPHAEL CUEVAS                             0501
A0101412470000008158969CHON, HANYONG                                            0501
A0101400570000011504031FERDINAND R. BUNAG                                       0501
A0101411240000002332496LAWAN, CARINA CRISOLOGO                                  0502
A1101400120313478374066FUNCION, LANIE ECIJA                                     0502
A1101400120000009119693ADELINE DARUNDAY                                         0503
A6601400120314041602001LEXTAN GENERAL MERCHANDISE                               0501
A2001400290000014470750LLENA, FRANCIS LLOYD SUICO DBU                           0501
A0101402350000014044047CIELO III, SEBASTIAN QUILAGA                             0501
B0101405650322033184002ASIA PLUS CORPORATION                                    1610
A0101402510000013485582RAGOS, KATHLEEN CHARMAINE                               10501
A0101402510000013485582SAN JUAN                                                20500
B0201400920000008813770JRUEHLE LENDING CORPORATION                              1601
B0101402930381017213003UNIVERSAL ROBINA CORPORATION                            11602
B0101402930381017213003URC - GD                                                21600
B0101402930381030725001SURTIDOS TRADING                                         1601
A0101402770000007413892CAIDO, GIRLIE TOLENTINO                                  0501
A0101402770000015748937TANQUECO, SHEELAN KARL ALCANTAR                          0501
A0101402770391340733001DOMINGO, CESAR ESGUERRA                                  0501
A0101405490000004352954PAJARILLO, ROWJELYN MARAVER                              0501
A0101408950000011077773CASTRO, ROD TAMONDONG                                    0501
A0101409210000013276518JOAQUIN, CATHERINE DIZON                                 0501
A0101412210000015904711BELEN, CLAUDETTE MITZI MINGOA                            0501
B5501400120410040763001JAO TAY MARKETING INCORPORATED                           1601
A2401400180000003949122RAMOS, RENE ANGELO FAMORCAN                              0503
A2401400180000005536712CALERO, MARIA JOCELYN SUNIO OR                          10504
A2401400180000005536712CALERO, FERNANDO                                        20500
A2401400180000015944640ESVER, MARK NEIL OMAS                                    0502
A2401400180000015944684BLANCO, DEHIMA PADERES                                   0502
B2401400180000017602961ARTHEL GENERAL INSURANCE AND MANAGEMENT                 11601
B2401400180000017602961SERVICES                                                21600
B2401400180000000019769WILL & JOE AGGREGATES, INC.                              1605
B2401400180000011298981UY, ERICA BASILIO AND UY, LUCY BASILIO                   1603
A0901400220000000888002**********                                               0502
A0901400220000011299217**********                                               0504
B0901400220000006214295**********                                               1602
A0901400220432478374002EVELYN ALGA DEMECILLO                                    0501
A5101400100000015856930COLANAG, PETCHIE EMAT                                    0501
A5101400100000015856981TEMPLORA, FARRAH TORRENTO DBU O                          0505
A0101403320000018376679BAKING, MARSHA ANN R.                                    0501
A0101403320000018366380RGRL ENTERPRISES                                         0501
A0101406330472458252002BRIAN JOSEPH M. SANCHEZ                                  0501
B0501400170481025398002COSTSAVER'S SUPERMARKET, INC.                            1602
A0501400170481255549001GAZMEN, MA. HAZEL RITA THERESE                          10503
A0501400170481255549001RAYOS                                                   20500
A1901400160000015668703ANDAL, MARINEL DINEROS AND                              10501
A1901400160000015668703SUSTRINA, JOHN PHILIP                                   20500
A1401400110000001806920LAMES, EDGARDO LLAGADO                                   0502
A1401400110000018002181GANGAN, WELA MARIA IRLANDA                               0501
A1601400170000015678467ESTADOLA, KARL IVAN ESPENO                               0502
A0101407430503181551001DICKSON R. ESCOLAR OR                                   10501
A0101407430503181551001MARY ANN R. ESCO                                        20500
A0101403580511420184003MARIA CAROLINA S. MACASAET                               0530
B0101405940000000002773BT AUTO SPORT CORP.                                      1610
B0101405940000003571737HOT DISK CORP.                                           1602
A0101411400000007169293MENDOZA, CYNTHIA BUIZON                                  0501
B0101403450000011473533*********************                                    1602
B0101403450521020682001CAPRICORN AIRCONDITIONING INC.                           1602
A0101403450521638611001**********                                               0505
A0101403610000018364526VILLAMOR, GINA PANGO                                     0501
A0101403610000014268716MA. LUISA B. BATUNGBACAL                                 0501
A0101403610531304005001ANCHORIZ, NERRIZA OR                                    10505
A0101403610531304005001ANCHORIZ, FRANCI                                        20500
A0101407720602298846008LAMBERTO U.OCAMPO OR                                    10501
A0101407720602298846008ANNABELLE SARMIENTO                                     20500
B0101407690000018374462YU, JERRICK LAYSON DBU J.L.Y BUILDERSCOR                 1601
B0101411530000003038257Mindanao Integrated Commercial                          11603
B0101411530000003038257Enterprises Inc                                         21600
A0101410300000016641811VALDEZ, PABLO BASILIO BUSTAMANT                          0502
A0101410300000011355649TORIO, JACOB PRADO                                       0502
A1301400210000005040577**********                                               0502
A1301400210000007669289GONZALES, MARK OLIVER SANTIAGO                           0503
A1301400500000009723162CUERPO, RINA CANLAS                                      0501
A1301400500000011254463SAMSON, JACQUELINE DIAZ                                  0502
B1701400230000002762558STA. TERESITA HOSPITAL  (STH) INC.                       1601
B0101408240000013787045UMBRELLA CONCOXION CORP.                                 1601
A2801400100000011266830MANZANO, LAILANI OSALBO                                  0502
B2801400100712031823001REYES, DIANO, TUMANDA & CO.                              1602
B2801400100712035008001ASIA INTERNATIONAL AUCTIONEERS, INC.                     1620
A2801400100000012289442VALDEZ, CORAZON REYES                                    0502
B2801400230000018350502VICTORY CHRISTIAN FELLOWSHIP OF ZAM                      1601
A4101400260000018360999MIRASOL, JOAN .                                          0501
A4101400260000012857520BATONGBAKAL, MARIA LYNN                                  0501
A4101400260812774482001PACALDO, DANILO ALINTON                                  0502
A4101400420000002345331MERCEDITA D. LAGDAMEO                                    0501
A0101412340000003341084BARNEDO, NOEL RYAN D.                                    0502
A0101412340000014512642MENDOZA, ANGELYN BOCO                                    0501
A0101405070000010969790SUSAN DIZON LAUREOLA                                     0503
A0101405070000015207980EMMA MELCHOR MANUEL                                      0501
A0601400230000010703072**********                                               0502
