F0101406880513035370001IDEA CIRCUIT PUBLICITY & ADVERT                          2510CKO
F0301400110191048656101BAYANMALL CORPORATION                                    2601CKR
F0101402350321171832002CORTEZ, BELINDA SANTOS                                   2502CKO
F0201401020000000470251SHANGS DEVT. CORP.                                       2601CK1
F0101408400394034368007W HYDROCOLLOIDS, INC.                                    2604CKR
F0101408530516035432001ROGUE MEDIA, INC.                                        2610CKO
F0101414410000001346327TRANSCOM WORLDWIDE                                      12620CK1
F0101414410000001346327(PHILIPPINES) IN                                        22600CK1
F0101404840851031921001SAINT FRANCIS OF ASSISI COLLEGE                          2605CKO
