A0101414120000000398932R. ACOSTA ENTERPRISES                                    0502
A3101400450223028468001NEW ARMSTRONG SECURITY AGENCY                            0502
A3101400450223403126001RACE, ROMEO B. OR                                       10501
A3101400450223403126001RACE, MARISSA M.                                        20500
A0101414120000000398863MHAY C. PINGUL                                           0501
A0101414120000000398852GEM V. ARCEGA                                            0501
A0101414120000004603150NACIONAL, MARIA CECILIA ABIERRA                          0502
A3001400130000005446339SANCHEZ, MARVIN CAYETANO OR                             10505
A3001400130000005446339SANCHEZ, ANNE MARIE                                     20500
A3001400130000000931333K AND S ENTERPRISES                                      0502
A0101400570281361144001ERIC G. IDIESCA                                          0501
A0101412890000006596310SARMIENTO, FRANCIS MOSES CLAVIT                          0501
A0101414120000005252864MVG HARDWARE                                             0502
A0101400860011395673001**********                                               0506
A0101400860011496074002**********                                               0501
A0101400860011504202002**********                                               0501
A0101400860000001005445************                                             0502
A0101400860011626823001**********                                               0503
A0101401250021178953002TENSUAN, ERNESTO OR NECITAS OR                          10510
A0101401250021178953002EMMANUEL                                                20500
A0101400150000000253278GELANO, ANGELO RECTO                                     0502
B0101400150061010885003SBM LEASING, INC.                                        1605
A0101400150061073867002BAQUIRAN, BRIAN PULIDO                                   0502
A0101400150061356527002**********                                               0501
A0101400150061363491001PENA, NILO BITANGA                                       0501
A0101400150061720595198COLLAO, MA. ZNY MERILLES                                 0501
A0601400100081251914002TANG, EVA OR ROBERT                                      0501
A0601400100081251939002ELIZARDO OR WILMA MARTINEZ                               0502
A0601400100081501761001TAN, WINTHEL OR RALPH                                    0502
A0101406040000000014848********                                                 0505
B0101401960121238876001**********                                               1602
A0101413150000000082722******                                                   0505
A0101401830141056352001PULIDO JR., JUAN DEL ROSARIO                            10501
A0101401830141056352001DBU PULIDO SERVI                                        20500
A0101401830141404416002MAYLA L. UNGOS                                           0501
A0101400440161478374189CORAZON C. BOLA                                          0501
A0101407270000004915908LORENZO, TRICIA MARIE SOLANOY                            0501
A0101407270162087457001DURAN, MERLY                                             0501
A0101407270162454469004MATHILDA C. SEE                                          0501
A0101407270162587936002WILFRIDO G. TIRONA                                       0501
A0101401090171032179001AJMLARA & ASSOCIATES                                     0503
B0101401090171036158001AIRBORNE MAINTENANCE AND ALLIED                         11602
B0101401090171036158001SERVICES INC.                                           21600
A0101401090171196072001CARLOS M. ALMEDA                                         0505
A0101401090171280240004FLORES, MERRIAN RAMOS                                    0501
B0301400530193044706199ROYAL CROWNE BEVERAGES                                   1605
B0301400530000000025276KONRAD FERNANDO - ROYAL CROWNE TRUCKING                 11605
B0301400530000000025276CATHERINE FERNAN                                        21600
A0301400530193551188168GONG, SHUJIAN                                            0503
A3101400160000004952592FELIPE M PAPA                                            0501
B3101400160221010174001MARINOR DEVELOPMENT CORP.                                1610
A3101400160221478374058MARIBEL S SIBOR                                          0501
A3101400160000002355893CHIPECO, ROLANDO MONTANANO                               0501
A3101400450000001104174ANGSICO, VOUGHN IVAN ALCANTARA                           0501
A3101400450223491849001JAO, AUGUSTO RAZEL DOMINO                                0501
A3101400450000004751811UMANDAP, ALLAN DE MESA                                   0501
A3001400130000001261125SANCHEZ, JOY PEREGRINO                                   0501
A1001400190000001057523MEDA B. REYES                                            0501
A1001400480000000133542GUINTO, CHARLOTTE JANE MAGO OR                          10502
A1001400480000000133542GUINTO, NEMER SARDEA                                    20500
A1301400470000000366461EDSEL C. DOMINADO OR                                    10505
A1301400470000000366461EPRENILDA JOY G. DOMINADO                               20500
A0101408660274511572001VIRREY, WINDA LUBIAN                                     0501
A0101412470000002295747NGO, VICTOR AUYON OR NGO,                               10501
A0101412470000002295747BRENDA BRAVO                                            20500
A0101400570281360412001DR. LONABEL A. ENCARNACION                               0502
A0101411240000006597973DEGOLLACION, HERMIE CUNANAN                              0501
A0101411240000006610500DEGOLLACION, HERMIE CUNANAN                              0501
B2601400270000000084382ONG JR,PEDRO DBU CELCIUS MDSING AND AUTO                11610
B2601400270000000084382PARTS SUPPLY                                            21600
B0801400160311060733001MABUHAII NURSING HOME, INC.                              1601
A6601400120000003672866APULI, ALMA JEPOLLO                                      0501
A3401400280000001723440EDUQUE, JESSIE ECARAN OR EDUQUE                         10502
A3401400280000001723440RUELYN CAPUNONG                                         20500
A3401400280000003309219ROMULO D. CAPUNONG OR RUELYN C.                         10502
A3401400280000003309219EDUQUE                                                  20500
A0101405650000000080117*******                                                  0501
A0101402510000006606982MANALO, KATRINA REGINA BASISTER                          0501
A0101402510341606270001SOLOMON, GIRLIE LOBENDINA                                0501
A0101402060351211787001MENELEO &/OR FILOMENA CARLOS                             0501
B0101409050352043845001COLLEGE OF ARTS & SCIENCES OF ASIA & THE                11603
B0101409050352043845001PACIFIC (PASIG)                                         21600
A0201400920375478374015GAYO, LOURDES O.                                         0502
B0201400890376045807001**********                                               1620
A0101402930000003179582GERNALIN, E DBU UNIMAN CONSTRUC                          0502
A0101408370382205321001IMELDA B. CAMPANA OR                                    10502
A0101408370382205321001JOSE RUFO U. CAMPANA                                    20500
A0101408370382473958001DR. MARIANNA S. SIOSON OR                               10501
A0101408370382473958001PAOLO ENRIQUE S. SIOSON                                 20500
A0101408370000005220039TUAZON, MA. CRISTINA SANTOS                              0502
A0101408790000005251018ORDANEZ, CAROLYN CAMPOS                                  0501
A0101402770000001570725DBU CHRISTINE MANALO VILLAMORA                          10501
A0101402770000001570725INTERIOR DESIGNS                                        20500
A0101408400394041759001BUILTLINE INTERIOR FINISHES AND                         10501
A0101408400394041759001CONSTRUCTION                                            20500
A0101408400394492830001MENDOZA IV, JUANITO PALARCA                              0501
A0101408950396047004001LYRE BOOKKEEPING SERVICES                                0505
A0101408950396596036001REYES, KARL MICHAEL GUTIERREZ                            0502
A0101408950396705700002MARIANO, BUENJIM LARDIZABAL                              0505
A0101409180000006558605GADDI, SIXTO SISON                                       0501
A0101409210000006604931BUISER, FLORI ANN MARASIGAN                              0501
A0101409210000006604986CUBIO, CHARLESON CLARO                                   0501
A0101409210000006605052DEL CARMEN, CATHRINA DELA CRUZ                           0501
A0101409210000006605103DELA CRUZ, JAN REX SIOCO                                 0501
A0101409210000006605154GARCIA, MARY GRACE LABAO                                 0501
A0101409210000006605198MARTINEZ, HERSHEY BARCENAS                               0501
A0101409210000006605223MERGILLA, MARK CYRUS ABADIER                             0501
A0101409210000006605278ORTIZ, MERRYCRIS KAREN MURILLO                           0501
A0101409210000006605314PANTOJA, BIEN MARTIN CONSTANTIN                          0501
A0101409210000006605347REBONG, SAMUEL GONZALES                                  0501
A0101409210000006605405TALAVERA, JOY ENRIQUEZ                                   0501
A0101409210000006605450TANDANG, REYNIDA TALUSAN                                 0501
A0101409210000006605483ZARZUELA, BLESSIE CAPERLAC                               0501
A0101409210000006607014CUBIO, CHARLESON CLARO                                   0501
A5501400120410636179018CHIU, VALENTIN & JULIA EILEEN                           10503
A5501400120410636179018& CHRISTIAN & CH                                        20500
A2401400180000003949140UY, RUBING SIOCO                                         0501
A2401400180411478374004MESRIYA ABDULLAH                                         0501
A2401400180411514423001DEALA, BERNARDITA GATCHALIAN                             0501
A0901400220000000888002**********                                               0505
B0901400220432043565001CASA CANELAR PENSION                                     1602
A0901400220000003069043**********                                               0502
A0101403030441241051001**********                                               0501
B0101403030441677350001**********                                               1601
A0101410140000000499372MARVIDA, FRANCIS BORROMEO                                0501
A1901400320000004552038RONNIE BARIL ABANDO OR                                  10501
A1901400320000004552038MARITES JAPOR AB                                        20500
B1901400160491012587001BSU CREDIT COOPERATIVE                                   1602
A1401400110000001806920LAMES, EDGARDO LLAGADO                                   0502
A1401400110000005526876MACABUAG, P DBU CITITRADE GENER                          0501
B1401400110000000034693LUCENA CITY PHARMA CORPORATION                           1602
A1401400110492444354001************                                             0502
A1601400170000006608933LIM, DEXTER IAN GOYENA                                   0501
B0101408530516034772001INFOSTORAGE CORPORATION                                  1603
A0101408530516578215024CRISTIAN F. HALAL                                        0501
B0101403450000000009812********                                                 1602
A0101403450521237287001*********                                                0501
A0101403610000002347093ALCASID, CATHERINE JOYCE CORDER                          0502
B0101403610531035875001G'TECHNOLOGIES INTL. INC.                                1605
B0101404130601100034002ADVATECH INDUSTRIES, INC.                                1612
B0101407720602015076001TRANS WORLD TRADING COMPANY,                            11605
B0101407720602015076001INCORPORATED                                            21600
A0101407720602397660001LAZARO, GISELLE MARY SERRANO                             0504
A0101407720602421754002LIM, CHRISTINE EBARVIA                                   0501
A0101407720602581738001DUCUSIN, MA. ANTONINA SUGUITAN                           0502
B0101404260611028921001KICEM TRADERS AND CO. INC.                               1610
A0101404260611478374115FE S. BONDOC                                             0501
B0101409890000003098213AQUINO, VIL DBU JOVAROM COMMERCIAL                       1601
A0101409920650478374005CRISOSTOMO, MA. EMELIA GASPAN                           10501
A0101409920650478374005MEMBERS OF NATASHA                                      20500
A0101409920650478374009PABILONIA JR. SALVADOR B.                                0501
A0101409920000001952041MEMBERS OF NATASHA (SHOECAT INC                         10501
A0101409920000001952041LOPEZ, ERICA R.                                         20500
A0101413990000006434897CASTILLON, DARIAN M. DBU                                10501
A0101413990000006434897D-MANGADA BAG REPAIR SHOP                               20500
A0101406590000005304892MENDOZA, JASON ANGELES                                   0501
A0101410300000000191815CARBALLO, LUIS ANTONIO S. OR                            10505
A0101410300000000191815SALAZAR, EMMANUE                                        20500
B1301400340683024674002ST. JOSEPH SCHOOL OF LAWANG BATO INC.                    1601
B1301400500684040904001EARLY RISERS CLUB OF RNGCI INC.                          1601
A1301400500000004093087ME-ANN'S EGG DEALER                                      0504
B0101407560686821100608**********                                               2005
B0101407560686821200608**********                                               2003
A1701400230693478374044CECILIA CORRALES                                         0501
A0101408240000002331271SALAZAR, ROGELIO COLENDRINO                              0501
A0101408240711396310001LESTER C. VICTORIA OR                                   10502
A0101408240711396310001GIL JOSE E. PULUMBARIT                                  20500
B2801400230000000372729KRJ TRADING                                              1602
A4101400260812478374076MAILYN L. EVASCO                                         0506
A4101400260000003679943TAN, ANGELINA                                            0501
A4101400260000003679807JOAN DANTE                                               0501
A4101400390813046750001MARQUEZ, MELANIE DBU LEIYHZ                             10502
A4101400390813046750001TRADING                                                 20500
A4101400390000000048611JARANILLA - DE JESUS, RIZALIE A                          0502
A4101400390813671136001ESTEPA, LINARIS ISO                                      0502
A4101400550000000315040BUMA-AT, THELMA                                          0501
A0101412340000003438577LETICIA M. WALSH                                         0502
B0101406750852041698001MELIX MANPOWER & JANITORIAL SERVICES                     1605
A0101406750852293235001FERDINAND H. PALAFOX OR                                 10501
A0101406750852293235001CRISHELLE F. PALAFOX                                    20500
A0101406750000002040066GUIYAB, MA. ELENA ONCHER                                 0501
A0101406750000000017427ANTONIO, ARNALDO QUILATAN                                0501
B0101405070861043213001TEKTON CONSTRUCTION CORP.                                1605
B0101405070861197658001****************                                         1602
A0101405070861393536001SANUCO, VICENTE DENNA OR                                10502
A0101405070861393536001SANTIAGO, GIGIBE                                        20500
A0601400230891370231002SAMSON, CLEOFE ROQUE                                     0501
