B0101400600071821100608**********                                               2005
B1101400120313821100608**********                                               2005
A0101410720000000211736GABRIEL, JOEL ORTIZ                                      0503
A0601400520000005001556SUNGA, RAFAEL YABUT                                      0501
A0101410720653006349001YZA COPY SYSTEM AND TRADING                              0505
B0101410720653028089001INOCENTES REALTY & SALES CORPORATION                     1602
A0601400520000005943440ENGCO, LEAH DOMINGO OR ENGCO,                           10502
A0601400520000005943440GREGORIO SUAYAN                                         20500
A0601400520000001349662TIMBOL ROMAN MANALOTO                                   10501
A0601400520000001349662ACCTNG & TAX CON                                        20500
A0101405650000006273601H. NOOR, MALIKSAIF BANGON                                0501
B0101405650000000012933CASTLE MERCHANTS AND HAULAGES INC.                       1605
A0101405650322172164002AQUINO, CHRISTIAN CASTRO                                 0502
A0101408370382205176001IRMINGARDA P. GUECO, M.D.                                0501
A0101405490000006241874CALAPINI, GERALD G.DBU PRECIOUS                         10501
A0101405490000006241874JEWEL RENT A CAR AND TRUC                               20500
A0101405490392558162001RONIE MARIE P. REYES                                     0502
A0101406750852540982001HERRERA, VICTORIA CENIZA                                 0501
A0101400860011396464001**********                                               0503
A0101400860011413316001**********                                               0503
A0101400860011537484001**********                                               0503
A0101400860000005312890**********                                               0502
A0101401250000000441052ONGSUECO, SYLVIA K.                                      0501
A0101400150000001422560MA. SONIA DE GUZMAN                                      0501
B0101400150061009628001EASTMAN INSURANCE AGENCY, INC.                           1601
B0101400150061010962002PHILIPPINE WELDING SOCIETY INC.                          1603
B0101400600071045155001*******                                                  1602
B0101400600071045158001*******                                                  1602
B0101400600071282495001********                                                 1602
B0601400100081022002001ANTON'S PURIFIED WATER                                   1604
B0601400100081256915005KWONG, WILLIAM G. OR                                    11604
B0601400100081256915005ANTONIO, ADELA                                          21600
B0101413730000003715757******************                                       1601
A0101414090000001669634ACOL, MIGUEL D OR ACOL, MARTIN                          10502
A0101414090000001669634OR ACOL, MARIA C                                        20500
B0101410850000001229794TRANSLOGISTICA INTERNATIONAL                            11602
B0101410850000001229794FREIGHT INC.                                            21600
A0101413150000001288331******                                                   0501
B0101413150124821100608**********                                               2002
A0101413310000004626802MATEO, MARIZA MARTIN DBU MMMDC                           0501
A7201400170000000040575ELCAMEL, BELEN PEDROZA                                   0501
B7201400170000003773240WEE, PATRICK TOE                                         1601
B7201400170000003773240WEE, PATRICK TOE                                         1601
A0101400440000004901451SEACHON, JOSEPH CLEMENTE                                 0501
A0101400440000002034822RIZZA A. REBUTCHADO                                      0501
A0101407270000004915920CHANTE, CHARLOTTE DY                                     0501
B0101407270000000010180COUNTRY CHATEAU HOTELIERS CORPORATION                    1602
A0101407270162627653001MALLARI, HAZEL GARCIA                                    0501
A0101401090171195709001ANGELITA S. SARILE                                       0501
B0301400530193041076168BLACK FIGHTER SECURITY AGENCY, INC                       1610
A0301400530193269054001ANG, LORETO R.                                           0501
A0301400530193697653001PACE, MELYN T. AND                                      10506
A0301400530193697653001EUGENIO, EMILIA                                         20500
B0101413020209821100608**********                                               2003
B3101400160221284706001INSTITUTE FOR FOUNDATIONAL                              11605
B3101400160221284706001LEARNING, INC.                                          21600
A1001400190000002266504MARABE, RIKKA AND LA VINA,                              10502
A1001400190000002266504IRISH OR MARABE,                                        20500
A1001400190000002266582GAAMIL, JOE ERIC TINONAS DBU                            10501
A1001400190000002266582VICTORY HARDWARE                                        20500
A1001400190231520766092TACBOBO, BEATRIZ WABE                                    0501
A1001400190231520766103BALCUEVA, CESAR S.                                       0501
A1001400190231520766110MAYOR, CARMELITA ANGCAY                                  0501
A1001400190231520766112ALIBIO, NELYBETH TACBOBO                                 0501
A1001400190000002170656AMELINA E. FACTURA                                       0501
A1301400470252495255001IMELDA IRENE V. ULIP OR                                 10501
A1301400470252495255001JUANITO I. ULIP                                         20500
A0101401670271289633003LIM, ROSARIO C.                                          0501
A0101401670271333076001BENJAMIN C. VICENTE                                      0501
B0101406460272047465001LIFE-CARE FITNESS MANAGEMENT, INC.                       1603
A0101406620273281364001BANTIGUE, WILLIAM ANISCO                                 0503
A0101406620273458914001**********                                               0501
A0101406620273521300001GARCIA, LEO MCGUIRE OR                                  10501
A0101406620273521300001GARCIA, CARMEN                                          20500
A0101400570000003891429RAFAEL, NORMA DUQUE                                      0502
A0101400570281344782001LYDE ALDAY-MAGPANTAY, M.D.                               0501
A0801400160311389143001CHAN, MILAGROS OR                                       10502
A0801400160311389143001CHAN, NATHANIEL                                         20500
A1101400120000003022522GABRINO, ROSARIO A. DBU                                 10503
A1101400120000003022522GABRINO CONVENIENCE STORE                               20500
A1101400120000001547235DUGANG, JESSA EBIT                                       0502
A6601400120314593270001DIAZ, REO DBU RUDMAR TRADING JT                          0505
A3401400280000003493754CORPUZ, JESSAN FEGARIDO                                  0501
A3401400280318095661001OROLA, AIMEE PERALTA                                     0501
B0101405650322033184002ASIA PLUS CORPORATION                                    1605
A0101405650322688572001JAVIER, MIGUEL ALFONSO BUNCIO                            0501
A0101405650000005284293**********                                               0502
A0101405650000000525717TAMBUNTING, JOY MYRA SALVADOR                            0510
A0101402510341491014001MINA, MA. VICTORIA PAULINO                               0502
A0101402060000000358634ESPINA, WILBERT BALUYOT                                  0502
B0101402930000005645912ARTISTESPACE INC.                                        1610
A0101402930000003710789BUGAYONG, RONALD BERNABE                                 0501
A0101408370382618960001JOHN GEOFFREY G. PALISOC                                 0501
B0101408790000002658991SOUTHWEST GAS TRADING INC.                               1602
B0101408790000003845692POLERIO, INC.                                            1601
A0101408790383633624001JIM STENIEL TAN GAWSON                                   0502
A0101411660000003580323JENNIFER C TALENS                                        0501
A0101411660000003976438TALENS, JENNIFER CORONEL                                 0501
A0101402770391286509001TABIOS, ANDRES D.                                        0502
A0101402770391481697001LUTHER REYES BONDOC                                      0501
B0301400820000001554792VIC IMPERIAL APPLIANCE CORP.                             1601
A2401400180411577534001LASOLA, EDITHA RIVERAL OR                               10502
A2401400180411577534001LASOLA, ROGELIO                                         20500
A1201400150000002325042ANTIPALA, WILFREDO CARPIO                                0502
B1201400150000000034380THE LORD IS MY SHEPHERD CHRISTIAN MINIST                11601
B1201400150000000034380RIES BAGUIO CITY                                        21600
A1201400150421478593001*****                                                    0503
A1201400150421520473001FLORES, MARY JANE KIMAKIM                                0501
A0101403030441279569001**********                                               0506
A0101412890000001056393GERONIMO, M DBU A.M.-M.A'S                              10502
A0101412890000001056393BAKERY                                                  20500
A0101412890470340665001POLICARPIO, WILMA D. OR                                 10501
A0101412890470340665001POLICARPIO, REYMIL C.                                   20500
B0101403320471019960002DIRECT ELECTRIX EQUIPMENT                               11605
B0101403320471019960002CORPORATION                                             21600
A0101403320000001646777MYRNA M. CRISOSTOMO                                      0501
B0101412760000002068060SUPERV BUSINESS MANAGEMENT INC.                          1604
A0501400170481400649001REYNA, CICEL MANAOIS                                     0501
B1401400110492046339002******                                                   1615
B0101407430503024216001BASIC POLYPRINTERS & PACKAGING CORP.                     1605
B0101407430000000035316D' FRADA ALLIED SERVICES INC.                            1602
A0101407430503370409012ROWENA ANDRADE                                           0502
A0101403580000004683041PAOLO VICTOR S. MANALO                                   0501
B0101408530516036896001UNITED GRAPHIC EXPRESSION CORPORATION                    1606
B0101408530516037477002VXI GLOBAL HOLDINGS B.V.                                 1605
B0101411790000003252553THE HIMALAYA DRUG COMPANY                                1601
A0101411790518055764069BUNAG, ARON FRANCISCO                                    0501
B0101411790518821100608**********                                               2001
A0101403450000001769811*******                                                  0501
A0101403450521238060001*********                                                0501
A0101403450521589241001**********                                               0502
A2201400250561395433001JOSE M. SALTING JR.                                      0502
A2201400250561469451001ROMEO A. TAGUINES OR                                    10502
A2201400250561469451001MA. TERESA V. TAGUINES                                  20500
A2201400250561478374010ZENAIDA L. REYES                                        10501
A2201400250561478374010MEMBERS OF NATASHA                                      20500
A2201400250561484428001WILSON LAO SIO OR                                       10502
A2201400250561484428001EDUARD LAO SIO                                          20500
A0101407720602390297001PREYSLER, MARIVIC G.                                     0501
A0101407720602496503014KAREN O. TORRES                                          0502
B0101407720602697838001NCT SPA CORPORATION                                      1602
B0101409890649044639001BISKWIT CO.                                              1604
A0101413990000002962963TRAZO, PHOEBE ORIAS                                      0501
A1301400210682628277001ADELIA MARIA B SOTO OR                                  10501
A1301400210682628277001MANOLET C SOTO                                          20500
A1301400340000002283781RODELIO D. RUBIO OR                                     10502
A1301400340000002283781ALONA D. ALIPIO                                         20500
A0101408240000006600095ANGELES JR., ALFREDO FERNANDEZ                          10502
A0101408240000006600095OR ANGELES, MA. LOURDES                                 20500
B0101408240711026678001SAMBEL PACIFIC CORPORATION                               1602
B0101408240711029537001ED LINK FOUNDATION, INC.                                 1602
B0101408240711032925004PARENTS ASSOCIATION OF DE LA SALLE                      11602
B0101408240711032925004ZOBEL                                                   21600
A0101408240711396576001CAGANDA, JEANZIE LEE                                     0501
A2801400230000001782083DE GUZMAN, LITO C. DBU D.G.L                            10502
A2801400230000001782083MOTOR WORKS & GEN. SRVS                                 20500
B4101400390000006103560LEAD WITH INTEGRITY AND GOOD GOVERN                      1602
A4101400390813478374003AUXTERO, ELANE                                           0501
A0101412340000003761933RAYMUND BENIDICT SAMALA                                  0501
A0101404840851415656001LEAL, MARIETTA I. OR                                    10501
A0101404840851415656001LEAL, LEONARDO L                                        20500
A0101404840851478374071MARITESS C. CASARILLA                                    0501
A0101406750000002950763RIVERA, MARIA CAROLINA D. OR                            10501
A0101406750000002950763RIVERA, RUFINO D                                        20500
A0101406750852078501001TAKEDA, RACQUEL G. OR                                   10502
A0101406750852078501001JULAO, FLORENCE                                         20500
A0101405070861366707001ARELLANO, MA. ELENA BALLESTEROS                          0502
A0601400230000000989911**********                                               0503
A0601400230000000452840GOZUN, R-JAY RAMOS OR                                   10510
A0601400230000000452840GOZUN, MYRNA RAM                                        20500
