A0101411790000000005381GOLANGCO, MARILYN UY                                     0503
A0101409920000000022066DAVIS, JONALYN ARGUILLES                                 0501
A0301400820000000024893ALIVO, JOENALD C.                                        0501
A0101412630000000045292***************                                          0501
A2001400290000000046222HUANG, MIA DY                                            0502
A5501400120000000047356JOCSON, JACKIELYN COCJIN                                 0501
A1301400470000000061509PRICILLA GALMAN CALARA                                   0502
A1901400160000000243672KERVIN FRANCIS DE LA CRUZ LIM                            0501
A0601400230000000452839ARCINUE, S DBU SLA ENTERPRISES                           0502
A0101408790000000579415SHEILAH E. UYBOCO                                        0502
A0101412920000000585757ACUNA III, EMILIANO S.                                   0501
A0101408790000000600002SHAN MARBLE & GRANITE SUPPLY                             0502
A0101408950000000776723VARANDMAL, MICHELLE GRACE FERNA                          0501
A0101403580000000922623JESSICA BALLANO TONIZA                                   0501
A0301400820000001185791JARED HOTEL AND CONDOTEL                                 0503
A3001400130000001271403xxxxxxxxxx                                               0501
A0101411400000001280962ROJALES, GLENN TEODORO                                   0501
A0101404260000001725333ESPINO, MARY MAY PIALA                                   0501
A0101403320000001803087DE CASTRO, CHRISTIAN JOSE SANTO                          0501
A1901400290000001926321ARLENE BAQUILLAS GUNAY                                   0501
A1901400290000001926401CELESTINA RIMAS GREGORIO                                 0501
A1901400290000001926412MYLENE PENTASON ABERTE                                   0501
A1901400290000001926423MANUEL MANTUANO MAGPANTAY                                0501
A0101406750000002040260TOLENTINO, ROSALINA SABATER                              0501
A0101411080000002243129****************                                         0503
A0601400230000002310149LAMPA, JULIE PANGILINAN                                  0502
A0101412890000002324221SANTIAGO, GENEROSO SERRATO                               0501
A0201400920000002804504BARENG, NATHALYN C.                                      0503
A0101400150061337099104MA. SOCORRO SANTOS                                       0501
A0101400150061400244001********                                                 0501
A0101400150061453761063JESUS ROMEO A. RIVERA                                    0501
A0101400150061739693001***********                                              0501
A0601400100081300983001MARILYN OR JONATHAN LACSON                               0501
A0601400100081478374009JOWELL MIRANDA                                           0502
A0101400730111195439001TAN, ROWENA                                              0501
A0101400730111477184001MARCOS, BEVERLY MEYAS                                    0501
A0101407140213031109002MRS V'S MEAT SHOP                                        0504
A0101407140213422438001**********                                               0503
A0101407140213587892002**********                                               0501
A3101400450223466114002NATIVIDAD, GINA DUNGO                                    0503
A3101400450223489008001SIO, MINNIE REGINA OR JOSELITO                           0502
A3001400130230767566026URAG, EDECIO CUDERA                                      0501
A1001400190231478374027EUBRA, LIBERTY O.                                        0501
A1001400190231478374154EVELYN A. CABALLERO                                      0501
A0101406620273306796004FE FORTUNATA R. RIO                                      0501
A6601400120314076124001MARCELINO, JOCELYN LESIGUES                              0501
A2001400290315673185001TAHIR, SAMSODIN TOMAWIS                                  0501
A0101402770391029270001RCABAN-SAN ANTONIO DE PADUA                              0502
A0101409210398785387001GERONIMO, RICHARD SANTIAGO                               0502
A5501400120410785033001ALCANTARA, ROBERTO LORENZANA                             0502
A2401400180411478374042JOYCE R. GALLEON                                         0501
A2401400180411580807001BESANEZ, MARITES ARCENAL                                 0501
A0101403030441560524001**********                                               0501
A0101403450521238538002**********                                               0502
A0101404130601767210001ARAGONCILLO, JOSEPH BREN CENINA                          0501
A0101407720602271723141RODRIGO T. TILOS                                         0501
A0101404260611478374085ROSALINA SUMILE                                          0501
A0101404420631478374124SONIA T. LUBRICO                                         0501
A0101404420631485469001******                                                   0501
A0101407560686041381001***********                                              0502
A0101407560686331247001AMALIA C. DELFIN                                         0502
A1701400230693478374015FERNANDEZ, FEMA L.                                       0501
A0101408240711387030001WISCO, CHRISTIAN PAUL MARIANO                            0501
A0101408240711479108001ENVERGA JR., WILFRIDO MCCORMICK                          0504
A4101400260812478374078DATU, CARMEN                                             0501
A4101400420814328455001LARGA, ROMMEL YAP                                        0501
A4101400420814477593003BAUTISTA, TERESA PONCEJA                                 0502
A4101400420814478374102MALIBIRAN, MARLYN M.                                     0502
A4101400420814478374122AGUILO, RODENA T.                                        0501
A4101400420814478374154CABRERA, FELIZA                                          0501
A4101400420814520766084PADILLA, ROSEMARIE E.                                    0502
A4101400420814520766110DELA CRUZ, ARMINDA E.                                    0501
A4101400420814520766135MOTILLA, ROSELLE                                         0501
A0101404840851520766088PERLINA CADA                                             0501
A0101404840851520766180CARMELITA M. BARBACENA                                   0501
A5501400120000000046882CHIU, VALENTIN & JULIA EILEEN &                         10502
A5501400120000001121800LADARAN JR., JOSE BINOLA                                10501
A0101406750000001491823VILLA-CUTAMORA, SHERRILYN DBU                           10502
A0101410560000001944043GOODNESS & MERCY MOVERS                                 10503
A0101406590000002277596BABCOCK, MONICA ANGELINE OR                             10504
A0101401700041188995001MURPHY CHU OR BETTY CHU OR                              10502
A0101400730111361187001RAYMUNDO JR, JOSE MARCELO                               10503
A0101401090171195628003PUNSALAN, PATRIA PEREZ OR                               10502
A0101406620273489850001RODOLFO P. DE GUZMAN JR. OR                             10501
A0101402060351009385001JORGE ALOMBRO JR. OR                                    10510
A0101408950396726811001GERARD M. MORALES OR                                    10502
A0101408950396771951001EVANGELINE S. MAGNAYE OR                                10501
A5501400120410638200001ALAJAR, CELESTINA OR ROLAN OR                           10505
A1301400500684594780002CASTRO, RAYMUNDO OR                                     10502
A5501400120000000046882CHRISTIAN & CHRISTEL                                    20500
A5501400120000001121800OR LADARAN, LANI                                        20500
A0101406750000001491823DENTAL HAVEN REHAB AND DE                               20500
A0101410560000001944043SERVICES                                                20500
A0101406590000002277596ROSALES, MARINELLA                                      20500
A0101401700041188995001JAIMIE LYNN GUE                                         20500
A0101400730111361187001& OR MARILOU C.                                         20500
A0101401090171195628003KING, LARRY SIA                                         20500
A0101406620273489850001ROSARIO K. DE GU                                        20500
A0101402060351009385001NELIA ALOMBRO                                           20500
A0101408950396726811001REGINA ISABEL S. MORALES                                20500
A0101408950396771951001SHIELA MARIZ S. MAGNAYE                                 20500
A5501400120410638200001ANNABELLE                                               20500
A1301400500684594780002CASTRO, ROSEMARIE                                       20500
B0101404420000000025874EXAMEN, NENA C. AND TAGUINOD, VILMA G.                   1601
B1901400320000000041283SAN ISIDRO MULTI-PURPOSE COOPERATIVE                     1601
B1901400320000000041294YANA MARKETING & DISTRIBUTION SERVICES                   1601
B3001400130000000067241BUTUAN BRAKE CENTER SALES CORPORATION                    1602
B0101409890000000209221A.M. GATBONTON DRILLING CORPORATION                      1603
B0101400150000000633345THE CHURNER GROUP INC.                                   1601
B0101410560000000757222JESUS REIGNS MINISTRIES, INC.                            1601
B0101410850000001229732POWERFREIGHT LOGISTICS SERVICES, INC.                    1605
B1301400500000001412231DE LEON JR., PLACIDO HIZON                               1601
B0101411370022046175001NEW FORM REALTY CORP.                                    1602
B0101411370022046185001PRIMORIS MANPOWER SERVICES COMPANY                       1602
B0101401700041007412001NEW BANAWE AUTO SUPPLY                                   1605
B0101400150061010855001MANTA EQUITIES, INC.                                     1610
B0101400150061027665001SYNERGY EXPERTISE INCORPORATED                           1602
B0101400440161013681001P.J. LHUILLIER, INC.                                     1606
B1001400190231024407001FIRESTONES JEWELRY & PAWNSHOP                            1601
B1001400350233540058188**************                                           1602
B1901400290261013980001VIC IMPERIAL APPLIANCE CORP.                             1602
B1901400290261033214001RD CASH PADALA, INC.                                     1603
B1901400290261034107001FIESTA WORLD MALL CORPORATION                            1610
B0101406620273017284001ACCENT MICRO TECHNOLOGIES, INC.                          1605
B0101406620273215897003PATHLAND DEVELOPMENT CORP.                               1606
B0101408820333046551001********                                                 1603
B0101409050352041357001COZY NAIL LOUNGE INC.                                    1605
B0101403320471235950001LUCIA DE LOS ANGELES DI RAMOS                            1601
B0101403580511015363016MILLENNIUM ERECTORS CORPORATION (SF)                     1605
B0101403580511046747001HUDDLE ROOM MEDIA INC.                                   1602
B0101405940512542852001BRIGHTMED PHILS. INC.                                    1601
B0101403450521312243001*********                                                1603
B0101407720602035637001AIKONTECH CORPORATION                                    1605
B0101409890649044639001BISKWIT CO.                                              1603
B1301400210682245013002JAIME K. CRISOSTOMO                                      1601
B0101401090171007908001PERPETUAL SUCCOR HOSPITAL &                             11605
B0101404420631702579001ROSITA B. SAMONTE OR                                    11601
B0101401090171007908001MATERNITY, INC.                                         21600
B0101404420631702579001RENATO J. TAYAM                                         21600
B0101401670271821100608**********                                               2005
