F2401400180411276248001MACABANGON, MARLON M.                                    2505CKO
F4101400260812546031001EDNA R. ALVAREZ                                          2501CKO
F0301400110191040022138BANANA TELECOMMUNICATIONS, INC.                          2603CKR
F0101403580511153712001P AND EL REALTY CORPORATION                              2607CKR
F0101408240711029699001POWER AD & PROMO VENTURE, INC.                           2601CKO
F3201400190000001493045DR. ROMEO P. PIRA DBU PIRA CLINIC &                     12605CKO
F3201400190000001493045HOSPITAL                                                22600CKO
F0201400180181041364008CENTRAL VISAYAS TRUCKING SVC. INC.                       2701CKC
