F0101401090171025904002PERS PROPERTY HOLDINGS, INC.                             2605CKR
F1001400190231048773001MSU-IIT NMPC COGON-CDO BR.                               2601CKR
F0101400570281535953001FRANCISCO P. DALANGIN OR                                12502CKO
F0101400570281535953001MELODY G. DALANGIN                                      22500CKO
F0101402060000006931877PHILIPPINE CHAMBER OF COMMERCE                          12601CK1
F0101402060000006931877& INDUSTRY - PAS                                        22600CK1
F0101408400000000077850PORTUGUESE REALTY INC.                                   2603CKR
F0101408110515062411001XORAND SOLUTIONS COMPUTER                               12704CKC
F0101408110515062411001CORPORATION                                             22700CKC
F0101411790000003252593DRAKE PERSONNEL (PHILS.), INC.                           2601CK1
F0101411790000003252600ASC GLOBAL RECRUITMENT INC.                              2601CK1
