A0101401250000000020424BALIAO, JOVITA LINGGON                                   0503
A0101408660000000034244CO, JOYCE ANGELA NG                                      0502
A1301400760000000050422RAFAEL R. CLEMENTE                                       0501
A0101413020000000056864ABELLA, CRISTINA CABICO                                  0501
A1001400480000000133235DACUDAO, LILUISA ACIERTO                                 0501
A0101403450000000135464********                                                 0505
A2201400250000000433463MARY GRACE V. NAVARRO                                    0502
A0101403320000000452351FARRAH FAYE LAVARIAS                                     0501
A0101410560000000590636ESTORCA, MELANIE BUSILACAN                               0501
A0101407270000000818359DARYL ANN J. PONCE                                       0501
A0101414120000000875914NHOEL JR. CONSTRUCTION                                   0501
A1001400350000000922058ARENO, ANN JANE BUCO                                     0501
A1001400350000000922263CACULBA, MARICRIS CATHERINE CLA                          0501
A0101403030000000993995**********                                               0501
A0101414120000001427521ALBA, KATHYRN AMOR                                       0501
A0101403610000001450771O. ESCUDERO FUNERAL HOME                                 0502
A2201400250000001545488MARY GRACE LUMNA GARCIA                                  0501
A0101407270000001597011FROILAN TEJADA                                           0502
A0101410720000001602255RADER, MIRASOL BARNES                                    0502
A0101403320000001802999CELEBRITY CONSTRUCTION                                   0503
A0101414120000002172630ZARAGOZA, CHARITO SINGSON                                0502
A0101408530000002260117LUCERO, FELOMINO GONZALES                                0501
A1001400480000002300305TINGTING, JO ANN BENDICIO                                0503
A1001400480000002300316LUCAS, ERNESLITO IGNACIO                                 0502
A0101409050000002653114PELOVELLO, BERNARD M.                                    0501
A0101400150061292057001GIDEON G. SISON                                          0503
A0101400440161039572010MYRNA A. CANELAS                                         0501
A0101400440161452744001CRISTINA P. UMALI                                        0501
A0101400440161478374189CORAZON C. BOLA                                          0501
A0101400440161525001189TERESITA F. NARANJO                                      0502
A0101407270162039326001TITANIUM ENTERPRISES                                     0502
A0101407270162655883002RAMON REYES BALATBAT                                     0501
A0101401090171054285001EBD REAL ESTATE LESSOR                                   0501
A0101407140213233732001**********                                               0501
A0101407140213377247001**********                                               0503
A3101400450223418716001GARCIA, JESUSA CORAZON PLAZA                             0501
A3101400450223478374004MORENO, JONALYN                                          0501
A1001400190231379927001IRISH P LA VINA                                          0505
A1001400190231520766049JOCELYN S. LLUBIT                                        0501
A0101406460272369676001CO, ADELA GO                                             0501
A0101400570281361144001ERIC G. IDIESCA                                          0501
A6601400120314040566001GLENCARE PHARMACY                                        0506
A6601400120314614806001DURA, RENY OR NOEMI                                      0502
A0101402350321179536001MARIE VIRGINCITA G. LAPUT                                0501
A0101402350321443261001FLOR DE JASMIN S. ACUZAR                                 0503
A0101402350321478374013ROSALINA M. MARAVILLA                                    0501
A0101402350321542967001ABUNDIENTE, JONATHAN GUMBA                               0503
A0101405650322401342001VILLAREAL, EARL FIDEL MONTERO                            0502
A0101402060351424071001HILADO, ALBERTO LACSON                                   0501
A0101402640361632094001**********                                               0504
A0201400760374474028001*****                                                    0501
A0101408370382042666001TMC DEPARTMENT OF ORTHOPEDICS                            0501
A0101408370382410095001DR. EDNA C. BANTA                                        0505
A0101402770391025704001JLD GIFTS & MAGAZINES                                    0505
A0101402770391547587001DIGMA, MA. JOSEFA STA. ANA                               0501
A1201400150421545497002PILAYO, ABRAHAM LASOY                                    0502
A0901400220432368117001**********                                               0502
A0101403030441239186001**********                                               0505
A1401400110492364401001RAFA, RAQUELITA RAQUEL                                   0501
A0101407430503583508001TANATE, RAMONET PALMA                                    0501
A0101406880513193367003GAW, BENITO CO                                           0501
A0101406880513197649001HARPER, ANNA MARIA LAMMOGLIA                             0501
A0101406880513432321001TUMULAK, REMEDIOS DELA PENA                              0501
A0101403610531221282002ZAGUIRRE, WALFREDO ALCANTARA JT                          0501
A2201400250561019818003KIS ENTERPRISES                                          0510
A2201400250561339671001JOSELITO D. SISON                                        0502
A0101404680651460549001VILLARICA, AMADEO AZARCON                                0501
A0101404680651478374074NELIA A. DELLA                                           0501
A0101404680651520766139ESPERANZA T. BORJA                                       0501
A0101404680651547083001DIONESIO L. PEDROSA                                      0503
A0101404680651724104001SONIA R. BOLISIG                                         0501
A0101410720653505147001*****                                                    0501
A0101410720653505843001LIMONGCO, GRACE POLO                                     0502
A0101413440655054550001SOMETHING DIFFERENT BAKESHOP                             0501
A1301400340683378168001RODIL, CONSUELO CREUS                                    0501
A4101400420814710353001GRANADA, MILDRED SISON                                   0502
A0101404840851217637028SERENIO, DANILO                                          0501
A0101404840851520766065TAYSON, FERNANDO                                         0501
A0601400230891471229001LOLITA C. CRUZ                                           0501
A5001400170000000045003LIONG, JULIUS TAN OR LAMBATAN,                          10510
A0101414120000000875601CELSO OR CONSOLACION                                    10501
A0101405490000001092524MA ANASTACIA S. DELA MERCED OR                          10502
A0101407270162754404001JOSEPHINE SISCAR OR                                     10502
A0101401090171196097001HERNANDO OR LEONCIA OLONAN OR                           10502
A0101401090171201345002MA. CECILIA OR RAMIL                                    10501
A0101406620273563901001DELA CRUZ, GEMMA BELLE OR                               10501
A0101400570281342304001JOSEPHINE P. RAFER OR                                   10502
A6601400120314714452001CONSEBIDO JR., NAPOLEON O. OR                           10501
A0101402770391644678001SEBASTIAN, HELEN TAN                                    10501
A1201400150421039385001JL'S CLEAN UP JANITORIAL &                              10502
A1301400210682364925001PRESCILLA P. SANTIAGO OR                                10503
A0601400230891326099001MACASPAC, MARIANNE A. OR                                10502
A5001400170000000045003DANA CORAZON LUA                                        20500
A0101414120000000875601MARTINEZ                                                20500
A0101405490000001092524RAYMOND ANTHONY DAYLEG                                  20500
A0101407270162754404001ALGIN SISCAR                                            20500
A0101401090171196097001BIANCA NIKKOLA OLONAN                                   20500
A0101401090171201345002TIO CUISON                                              20500
A0101406620273563901001DELA CRUZ, BLESILDA                                     20500
A0101400570281342304001NELSON T. RAFER                                         20500
A6601400120314714452001CONSEBIDO, GILBERT                                      20500
A0101402770391644678001SEBASTIAN, ARTHUR                                       20500
A1201400150421039385001MANPOWER SERVICE                                        20500
A1301400210682364925001  CELESTINO SANT                                        20500
A0601400230891326099001MACASPAC, ARLEN                                         20500
B4101400260000000002273BERNARD MOJICA AND MARIA CRISTINA MOJICA                 1601
B0101402770000000023725KOYOGAWA MOTORS CORPORATION                              1605
B0101407430000000035270TURPS AND TUCKER INTERNATIONAL CORP.                     1601
B0101404680000000095710MVG HARDWARE                                             1601
B0101403450000000135635PHILIPPINE TRADE CENTER, INC.                            1603
B0101414120000000399111LINMER PHARMA INCORPORATED                               1605
B0301400790000000435647PANABO MULTI-PURPOSE COOPERATIVE                         1605
B0301400950000000567000SOUTHICON BUILDERS CORPORATION                           1601
B0101402350000000655389********                                                 1603
B0101407270000000830671VALUE CARE HEALTH SYSTEMS, INC.                          1650
B0101407270000000830671VALUE CARE HEALTH SYSTEMS, INC.                          1650
B0601400360000000978845P4 HUMAN RESOURCE SOLUTION, INC.                         1602
B2201400250000001066153CHRIST COMMISSION FOUNDATION INC.                        1602
B0101412180000001293016JENNIEDEDIOS INC.                                        1603
B0101414120000001984212MEGACEM INC.                                             1602
B1301400500000002063890********                                                 1602
B0101401700041017100001ECL INTERGROUP, INC.                                     1602
B0101401700041021540001TITAN-MILDE MOTORS INC.                                  1601
B0101400150061010612001INTERNATIONAL ELEVATOR & EQUIPMENT                       1605
B0101400150061010838002INFORMATICS COMPUTER INSTITUTE, INC                      1603
B0101400150061010845001LUCY PROPERTIES, INC.                                    1602
B0101400150061047452001PRIDEZ FOODS SERVICES, INC.                              1603
B0101400150061047454001METRO BAKERS PRIME REALTY, INC.                          1602
B0101406040112033761001A.B.V. FIVE LOGISTICS INC.                               1603
B0101400440161043402001GRAND MONACO ESTATE DEVELOPERS, INC                      1606
B0301400790195054277001BODEGA SALES CENTER CORPORATION                          1602
B0101407140213042472001***********                                              1603
B0101407140213362968001*******************                                      1604
B1001400190231014206001PANABO MULTI-PURPOSE COOPERATIVE                         1603
B1001400190231035648001ORO B AND W CORPORATION                                  1610
B0101401670271007776001ASHTON TECHNOLOGIES CORPORATION                          1605
B0101402350321016640001ST LAWRENCE ACADEMY                                      1601
B0101402350321031479001MED OPTIONS MULTI SPECIALTY CLINIC                       1602
B0101402510341008564001SAN BEDA COLLEGE ALUMNI ASSOCIATION                      1602
B0101402640361720070001MEDCARE SPECIALTY CLINIC, INC.                           1604
B0501400170481013156001K SERVICO TRADE, INC.                                    1603
B0101403610531044363001RAIN'S PLACE CORPORATION                                 1603
B0101404130601100121002OMRON ASIA PACIFIC PTE. LTD.                             1602
B0101407720602016446001INFORMATICS COLLEGE EASTWOOD, INC.                       1605
B0101407720602779384001YUSIN NINE MARKETING INC.                                1602
B0101410720653022858002FOODKING CUISINE & SERVICES INC                          1602
B0101410720653481345005VERLIN KONSTRUKT INC.                                    1604
B0101410720653481345005VERLIN KONSTRUKT INC.                                    1604
B0101406590662026244001JOLLIWELL INC.                                           1602
B1301400210682041444001SYCLOR CONSULTAX INC.                                    1602
B0101404840851040098001PEOPLE'S HEALTHCARE MANAGEMENT INCO                      1601
B0101406750852028229008SUPER PLUS CORPORATION                                   1602
B1601400170000000036024HI-TONE CONSTRUCTION AND DEVELOPMENT                    11605
B0301400660000000195191GENERAL PACKAGING SOLUTIONS SPECIALISTS                 11602
B2201400250000001066193ACERES, RODELL BETANIO AND                              11601
B0101402770000001570667BOLANOS, A DBU A.E BOLANOS                              11602
B0101414120000001984165UNITED ACHIEVER ASSESSMENT & TRAINING                   11601
B1201400150421025695001PRINTING AND PUBLISHING MULTI-PURPOSE                   11602
B0101409890649033780001WATCH TOWER BIBLE AND TRACT SOCIETY OF                  11610
B1601400170000000036024CORPORATION                                             21600
B0301400660000000195191INC.                                                    21600
B2201400250000001066193ACERES, JINEPEL                                         21600
B0101402770000001570667ENTERPRISE                                              21600
B0101414120000001984165CENTER INC.                                             21600
B1201400150421025695001COOPERATIVE                                             21600
B0101409890649033780001THE PHILS. INC                                          21600
B0101400440161821100608**********                                               2005
B0301400110191821100608**********                                               2010
B0101408790383821100608**********                                               2002
B0101411400517821100608**********                                               2001
