B0101402930381821100608**********                                               2006
B0101413860862821100608**********                                               2006
B0101413860862821100608**********                                               2006
B0101413860862821100608**********                                               2006
B0101413860862821100608**********                                               2006
B0101413860862821100608**********                                               2006
B0101413860862821100608**********                                               2006
B0101413860862821100608**********                                               2006
B0101413860862821100608**********                                               2006
B0101413860862821100608**********                                               2006
A3001400130000008264864CACAFRANCA, KARL RUSSEL INOCENC                         10501
A3001400130000008264864IO                                                      20500
A3001400130230706849001XXXXXXXX                                                 0501
A0101404260000013860330NAVA, EMMANUEL HERNANDEZ                                 0501
A0101404260611384119001PAGULAYAN, LETICIA CEPEDA                                0501
B0101406590000011637466SOULFLOWER CO.                                           1601
A0101400860011516358001**********                                               0503
A0101400860011550744001**********                                               0502
A0101400150000001422213Maria Lira S. Catli                                      0501
B0101400150061011066002FOOD SOURCE, INC.                                        1605
B0101400150061447303001TANY FOUNDATION, INC.                                    1605
A0101400600071234440001CHOA,FRANCISCO YU                                        0501
A0101400600071271611001BALAY, FELICIANO KANG                                    0502
A0101405810072291768001**********                                               0501
A0101413730000005959784******************                                       0501
A0101410850000015085493NAZARRO, CLAIRE ANTONETTE DE                            10501
A0101410850000015085493DIOS                                                    20500
B0101410850000000000646MG8 TERMINAL INC.                                        1610
A0101400730111565363001TIU, DAVID TERENCE YAO                                   0502
A0101412630000017892141CRISANTO D. MONTOYA OR                                  10501
A0101412630000017892141AGNES ANGELINA D. MONTOYA                               20500
B0101412630132047758001MAJOR HOMES, INC.                                        1605
A0101401830000006269732MONIS,JOSEPH ARGUELLES                                   0502
A0101401830141444325004ROUTSON, ELIZA ATIENZA                                   0502
A0101400440000018103452GATDULA, JANEL TORRES                                    0501
B0101400440161007222001RURAL IMPROVEMENT CLUBS OF THE PHIL                      1601
A0101400440000014296650DELA CRUZ,MARIA CARINA MANIGBAS                          0501
A0101400440161565865001MARIA KATHRINA G. SALVADOR                               0501
A0101407270162479362001ERYMAR D.C. REYES OR                                    10501
A0101407270162479362001AUBREY S. REYES                                         20500
A0101401090171195667001MARY JOCYLYN OR NOEL BAUTISTA                            0502
A0101401090171198417001ERLINDA HIPOLITO OR CAROLINA                            10510
A0101401090171198417001AMARO OR LOURDES MEDRANO                                20500
A0101401090171243605002EDEN M. CHAPOCO                                          0501
A0101401090171326584001DRS. NOEL OR MARY JOCYLYN                               10502
A0101401090171326584001BAUTISTA                                                20500
A0301400530000013780719DADIS, ERWIN CABEJE OR                                  10503
A0301400530000013780719DADIS, YVONNE DUNCOMBE                                  20500
A0301400530000015818781BERMEJO, JENNY GRACE GALLO                               0501
A0301400790000002301393BARCELONA, JANET TIZON                                   0502
A0301400790000017907383DALANON, EUNICE ANN BANEZ DBU                           10501
A0301400790000017907383DALSONS ENTERPRISES                                     20500
A0301400950000005707217QUIDILLA, TITO LIM                                       0501
A0101401380000001819810LEY, VALENTINO TING                                      0503
A0101413020000014434232CO, JEREMIAH Q. OR CO, OFELIA Q                          0502
B0101410720210047680001GUARIN, N DBU ENL MANAGEMENT                            11601
B0101410720210047680001SERVICES                                                21600
A3101400160000004362765MA TERESA L RODRIGUEZ                                    0501
B3001400130000000067229YU, MARK PETER U. AND YU, SAMANTHA S.                    1602
A1001400350233478374020ELMA O. GAWAT                                            0501
A1901400290261040973001ICT-ED INSTITUTE OF SCIENCE AND                         10501
A1901400290261040973001TECHNOLOGY, INC.                                        20500
A1901400290261298552118CONCEPCION GONZALES ESTIGOY                              0501
A1901400290261390520001JOEL PUNZALAN DIMAANO                                    0501
A1901400290261390520001JOEL PUNZALAN DIMAANO                                    0501
A0101401670271327375003ELVIRA L LIBORO OR MA ANNA                              10502
A0101401670271327375003XIMENA L LIBORO                                         20500
B0101406620273031145001KOHL INDUSTRIES CORPORATION                              1603
B0101406620273459504001SANOSIL PHILIPPINES INC.                                 1601
B010141247000000731789981 COFFEE INC.                                           1602
A0101412470000008158845SONGCUYA, EMMANUEL BERNALDEZ                             0504
A0101400570000011681008ABUTAR, ERICSON INVENTO                                  0501
B0101400570281032931001AMMIRAGLIO INC.                                          1602
A0501400200000002306014MAXIMO JR., ALFREDO PATRIARCA                            0502
A0801400160000002681729MA. FE M. FACTO                                          0505
A0801400160311478374004MAELYN HACERMIDA                                         0502
B3401400280000012245840VILLA BAGO-GRANDE, INC.                                  1602
A3401400280000017124162ROXAS, NENITA BARRIOS                                    0501
A0101402350000011252741OLIVA, EVANGELINE COMIA                                  0502
A0101402350321557382002PARBA, NANCY MUNEZ OR                                   10502
A0101402350321557382002PARBA, JOEL QUIL                                        20500
B0101405650322024999001SUPERIOR MAINTENANCE SERVICES, INC.                      1620
B0201400760000007134341CLS PROPERTIES INC.                                      1603
A0201400890000011310982CONTAPAY, RHYS CYRELL TUAN                               0502
A0201400890000015943254UY, MARK SAMUEL SAMSON                                   0501
A0201400890000015943265RABORAR, JOANA ZAFICO                                    0501
A0201400890000015943276RABORAR, ALLAN FERDINAND MERCAD                          0501
B0101402930000003734861POLICARPIO & ACORDA LAW OFFICE                           1601
B0101402930000012171407VITOPROALLIANCE INC.                                     1601
A0101408370382319789001ROCHELA B. CUAYCONG OR                                  10502
A0101408370382319789001CESAR A. CUAYCONG                                       20500
A0101408370382341971001DR. ARNOLD OZAETA OR                                    10501
A0101408370382341971001MA. RAMONA OZAETA                                       20500
A0101408790000006025981MORALES, MANUEL SIOCO DBU                               10502
A0101408790000006025981NASHFIL ENTERPRISES                                     20500
A0101408790383511958001DELOS REYES, NADINE ANNE                                10501
A0101408790383511958001CZIARAH MERCADO                                         20500
A0101405490000011287995VALIMENTO, ANNALIZA CRUZ                                 0505
B0101405490000013942162KIDSVILLE CREATIVE SYSTEMS, INC.                         1602
A0101408400000016252783DIAZ, ERIKA MANANSALA                                    0501
A0101408400394478374070MARILYN C ZENAROSA                                       0501
A0101412210000015507776DAMASCO, MARY EILEEN BISA                                0501
A0301400820000000045554DENUNA, HAZEL F. OR DENUNA,                             10501
A0301400820000000045554JOZEL HANZ F.                                           20500
A1201400150000001863276KLEMSON MEDICAL SUPPLY                                   0502
A1201400150421253603001FLORES, ISABELITA MENDOZA OR                            10501
A1201400150421253603001DOLOROSA JR. ROM                                        20500
A5101400100000011337221CASUGA, DEARIE BEAM ALBITE                               0501
A5101400100000015856861INDA, CATHY GUILLERMO DBU MCI T                          0502
A0101412890000009833952CHU, MARITA MONTEMAYOR                                   0505
A0101412890000011812985RHEGEL RAAGAS SERAFIN                                    0501
A0101412890000012154419DADO, NIKKI WINONA GELWA                                 0501
A0101412890000014437328JACOB, FLADEA CRUZ                                       0501
A0101412890000014437642FRANCIS LILIAN A. REMOLACIO                              0502
A0101406330000002277847MASCENON, ALEXANDER CHARLES DG.                          0501
A0101406330472478374041ROSEMARIE A. NAPIGKIT                                    0502
A0501400170000005646197ARCINUE, MARIA RIZALYN VENTINIL                          0501
A3801400170000012458947INCIONG, RICHARD VALENCIA                                0502
A1601400170000013603504BORAGAY, HENRY REPOLLES                                  0501
A0101407430000004687516BARCELON, JODEE GAYONDATO                                0503
B0101407430000011167525POWER CLEAN BLDG. CARE & GEN. SERVI                      1605
A0101403580511150595001MAXIMO P. MARIANO                                        0501
A0101405940000018389309ESPOSITO, MAURIZIO .                                     0501
B0101405940000008478895MANACO JAPANESE FOODS CORP.                              1602
A0101411400000005329762BRINAS, AIZZA FRANCESCA VELARDE                          0502
A0101411400000015206692PENUELA, MA. ANA BAUTISTA                                0501
B0101403610000013963932EQUITAS FUEL CORPORATION                                 1602
A0101407720000005100285BANATAO, MARIA C. OR BANATAO,                           10502
A0101407720000005100285DIOSDADO P.                                             20500
A0101407720602397131002**********                                               0501
A0101412180000014410098SAMAUPAN, ROBERTO RASALAN                                0502
A0101404260000000532056REGINA C ALTO                                            0501
A0101409890000009468671REYES, MYLENE ANTONIO                                    0501
B0101409920650044950001EINSTEIN SCHOOL FOR KIDS, INC.                           1601
A0101413440000018386771IMLAN, FATIMAH NASEYHA A.                                0501
B0101413440000011893260TRUMP SERVICES INC.                                      1610
A0101413570000005867474LIM, ROSALYN DBU                                        10501
A0101413570000005867474SANROSE CONSTRUC                                        20500
A0101414120000011765025G.S. REYES CONSTRUCTION                                  0502
B0101406590662206754001EDWIN L. DIZON OR ERWIN GUILE DIZON                      1602
A1301400210000005040942ACTIVE MEDIA DESIGNS & PRINTING                          0501
A1301400210682624256001ANDAL, KATRINA JOIE RAMOS                                0501
A1701400230000011517514DIEGO, MARITESS DELGADO                                  0502
A1701400230000008555404LACSA, RENATO PASCUA DBU                                10501
A1701400230000008555404RNJ TRUCKING                                            20500
B0101408240711023931001CHRIST'S COMMISSION FOUNDATION, INC.                     1608
A4101400260000012873371MANZANES, JUNELLE                                        0501
A4101400260000016832138SANTIAGO, JEANNE CLEIO ADRIANO                           0501
A4101400260000010623542FRANCISCO, RICHIE S.                                     0502
A4101400420814477593003BAUTISTA, TERESA PONCEJA                                 0502
A0101404840000018394911ORJALO, MICHAEL ALEXANDER DONAT                          0501
A0101404840851320776028JOSE ELIVER V. LEONORAS                                  0501
A0101405070000010298478VICTORIA DIZON MORANA                                    0501
A0101405070000015207979MANUEL AGUB UY                                           0501
A0101413860000016349554PAREDES, NINA FRANCHESKA ABUEL                           0501
B0601400230891026193001PHILIPPINE COLLEGE OF OCCUPATIONAL                       1601
A0601400230891032012001AQUA SPARKLETTS BY CARLYN                               10510
A0601400230891032012001NICOLE ALKALINE                                         20500
B0601400230891046232001ST. THERESA DIALYSIS CENTER, INC.                        1610
A0601400230000002650200ST. THERESA DIALYSIS CENTER, IN                          0505
