B0101410300000000026428INTERIOR ASIA CONSTRUCTION SUPPLIES &                   11602
B0101410300000000026428SERVICES CORPORA                                        21600
B7201400170152821100608**********                                               2002
A0101408370000002264024CAPIRAL, RAUL ELLARD SERRA                               0501
A13014005000000070964408810 OH KAMURA TRADING                                   0501
B0101400860011086656001**********                                               1603
A0101400860011362855001**********                                               0502
A0101400860011385076002**********                                               0502
B0101400860011427569001**********                                               1601
A0101400860011496074002**********                                               0501
A0101400860011546416001**********                                               0502
A0101400860000005313068**********                                               0505
A0101411370000009102841DAYAN, N DBU INTERNATIONAL                              10502
A0101411370000009102841INSTITUTE OF SAFETY AND                                 20500
A0101400150000011519878AL AJAMI, NAYEF CATOLICO                                 0501
B0101400150061047005001BUREAUSERV GLOBAL INC.                                   1605
A0101400150061287682001RAFAEL S. ALGARRA OR                                    10501
A0101400150061287682001MARY JOSEPHINE A                                        20500
A0101400150061363491001PENA, NILO BITANGA                                       0501
A0101400150061364636001YOSHII, TSUNENORI OR                                    10501
A0101400150061364636001YOSHII, MASAKO                                          20500
A0101400150000004090635DIOQUINO, MA. VICTORIA MANLAPAZ                          0501
A0101400150061564610064BUENAFLOR, MARIA GERALDINE ROSE                          0501
A0101400600071719765001********                                                 0501
A0101400600071739008001********                                                 0501
B0601400100081022878001DM CRISSAN AUTO SUPPLY & CAR ACCESSORIES                11604
B0601400100081022878001SAN FERNANDO                                            21600
A0601400100000007253990SIANSON, MICHAEL VINCENT CRUZ D                          0502
B0601400100081295398001MALLARI JR., DIOSDADO OR MARY GRACE                     11604
B0601400100081295398001FAO O2 DESIGN                                           21600
A0601400100081501761001TAN, WINTHEL OR RALPH                                    0502
A0601400520000009516543DAVID, MARK ANTHONY MARCELO                              0501
A0101410850000000005734CALIBO, JANE EUPENADO                                    0502
A0101410850000009034651MARCHAN, HELEN PERALTA OR                               10501
A0101410850000009034651MARCHAN, MICHELLE PERALTA                               20500
A0101410850000008264113BORJA, C DBU GOD'S WAY                                  10502
A0101410850000008264113DIAGNOSTIC CENTER                                       20500
A0101410560000010317669MARY GRACE T. DOLENDO                                    0501
A0101400730111047618004RONALDO BAARDE PRADO                                     0503
A0101400730000005208811CABUAL, EVELYN FERNANDEZ                                 0502
A0101400730111520766071PRECIOUS B. RAYMUNDO                                     0501
B0101406040000000096731B O S S INCORPORATED                                     1601
A0101412630000000852346PERALTA, MARILYN CASTANEDA                               0503
A7201400170000007185660DUHILAG, FELY SABADO                                     0501
A7201400170000006487621**********                                               0503
A7201400170000003774389CHUA, STEVEN BAISA                                       0501
A0101400440161358347001MA. ELSA T. APOSTOL                                      0502
A0101407270000001596810CHARL LESTER E. QUIJANO                                  0503
A0101407270162539457001MARIA LACSINA A. DIAZ OR                                10501
A0101407270162539457001JOHN PAOLO N. CA                                        20500
A0301400530193504844111********                                                 0503
B0301400660000000022835DURABOARD PACKAGING CORP.                                1603
A0301400790000008015121CADALZO, DENNIS SALOMERI DBU                            10501
A0301400790000008015121ULTRA-GOLD MOTOR TRADING                                20500
B0301400950000000566887CHRISMA TRAVEL AND TOURS, INC.                           1602
A0101401380000000682702MERCADO, LELANIE DE ASIS                                 0502
B0101401380201035409001LEY CONSTRUCTION AND DEVELOPMENT CORP                    1601
A0101413020000002292840SANTIAGO, CHRISTOPHER MACAM                              0502
A0101410720653478374010SOCORRO JIMENEZ                                          0502
A0101412500000000739657****                                                     0502
A3101400450000008015201DM SKIN CARE WELLNESS CENTER                             0502
A3101400450000005355471CIGARAL, PEDRITO EXCONDE                                 0503
A3101400740000011514508ANSELMO, EDGAR GANIO                                     0501
A3101400870000002328058DOLORES, NORBERTO DIESTA                                 0502
A1001400190000000016457ANTIGA, LUNITA                                           0501
A1001400350000007762447ROLLO, SAMUEL EVALLO OR ROLLO,                          10501
A1001400350000007762447ELAINE                                                  20500
A1301400470252508767001ANTIE T. BANALAGAY OR                                   10502
A1301400470252508767001MAUREEN GRACE BANALAGAY                                 20500
A1901400290261361810001ALVIN MANALANG ANG                                       0501
A1901400290261390520001JOEL PUNZALAN DIMAANO                                    0502
B0101401670271018719001BIBLE STUDY FELLOWSHIP BSF INTERNATIONAL                11601
B0101401670271018719001CLASS 501                                               21600
B0101401670000009426068MONTON VIRGIE GOMEZ DBU LAVAPORT TRADING                11602
B0101401670000009426068INTERNATIONAL                                           21600
A0101401670271192058001CARMEN V. SEGOVIA OR JACQUELINE                         10506
A0101401670271192058001ANNE CHUA                                               20500
A0101401670271356341002*****                                                    0505
B0101406620000000015005CARPIO & BELLO LAW OFFICES                               1601
A0101406620273072069001LEANO, DEVI PESSUMAL                                     0502
A0101408660000005109791CANLAS, FERMIN PANGILINAN                                0502
B0101400570000000031745JOHNNY AND CORAZON ALMIRANTE AND SONS                   11602
B0101400570000000031745CORPORATION                                             21600
A2601400270000000561642ROMINA FRANCESCA C. MOLINA                               0501
B2601400270302698462001ALBERT C. LIM OR NELIA V. LIM                            1602
A6601400120000005710269HORCA, ROMEO PETRONIO                                    0501
B6601400120314041984001SAMNEST FOOD CORPORATION                                 1604
A3401400280000004958563NORTHVILLE CHRISTIAN ACADEMY                             0501
A0101402350321518812001KAO, SHIH CHEN                                           0502
A0101402510341068728001BARRION, I DBU IMELDA E.                                10502
A0101402510341068728001BARRION TRADING                                         20500
A0101402510341400450001NG, SHERWIN JUAN                                         0501
A0101402060351211754001ABAD H. &/OR LOWIDA C. ALVARO                            0501
A0101409050000008491009SI, MARK JEFFERSON ANG                                   0501
B0201400760374044075001ABOMAR EQUIPMENT SALES CORPORATION                       1601
B0201400760000005016762MERCADO, ERLINDA ABARIA DBU SHERILI                      1602
A0201401020377046499001TEH, MARIA ELENA BLANCO DBU                             10503
A0201401020377046499001E.T. PRINTSHOPPE                                        20500
B0101402930920130000048SOUTH ASIALINK CREDIT CORPORATION                        1601
A0101408370382391600002DR. JONATHAN A.I. SANDEJAS OR                           10505
A0101408370382391600002DR. MELISSA P. SANDEJAS                                 20500
B0101411660000007555737HORIZON CONDOMINIUM ASSOCIATION, IN                      1601
A0101411660000004597220BONDOC, NARCISA NAVARRO                                  0502
A0101415350000007699043DY, AMANDA IVY                                           0501
A0101415350000007877994LEE, JOSHUA JOREL TAGLE                                  0501
A0101405490392301424001ENCARNACION O. SANTIANO                                  0503
A0101408400394614424001OMISOL, FRIMALYN JOY D.                                  0501
A0101408950000005325888SIOSON, LAILANI ANTONIO                                  0501
B0101409180397716801001CACHET.HOLDINGS, INC.                                    1602
A5501400120410283898001GARCIA, JOSIE OR                                        10501
A5501400120410283898001GARCIA, GERARDO                                         20500
A5501400120410633077001CLAVISILLAS, JOSIE OR                                   10501
A5501400120410633077001CLAVISILLAS, RON                                        20500
B0101412890000009624477MARTINA PAULA'S CATERING SERVICE CO.                     1601
A0101403320471045143001KISH-ANDRE ENTERPRISES                                   0502
A0101403320471627457001ROMER C. CABIAS                                          0502
A0101410140000006015390LOPEZ, DIOSDADO ORDANZA                                  0501
A0101410140475728876001MERCADO, DAMASO P. OR                                   10503
A0101410140475728876001MERCADO, CARMELI                                        20500
A3801400170490068759001GRACE POWER BUSINESS SOLUTION                           10501
A3801400170490068759001CENTER                                                  20500
A1901400160491467905003EMELBA B PANGANIBAN                                      0502
A1601400170000000497592MARLYN A. RELINGADO                                      0501
B0101407430000000035316D' FRADA ALLIED SERVICES INC.                            1602
A0101407430503181551001DICKSON R. ESCOLAR                                      10501
A0101407430503181551001OR MARY ANN R. ESCOLAR                                  20500
A0101407430503377193001ROMEO A. MARTINEZ                                        0502
A0101407430503561286001JELITA P. ORTIZ                                          0501
A0101403580511562774001ALMA L. AMPER                                            0501
A0101411790000011045779CHUA, JESSICA MACHETE                                    0501
B0101403450521012137001**********                                               1610
B0101403450521030888001SUPER 8 RETAIL SYSTEMS, INC.                             1601
A0101403450521238091001**********                                               0502
A0101403450521240841003**********                                               0501
A0101403610000011520953ARRIOLA, HERNANDO ESPIRITU                               0501
B0101403610531010019001SEPP MARKETING, INC.                                     1601
A0101403610531395776001SERRANO JR., RIZALITO REYES                              0502
A0101403610531671476001RANI, SARITA OR JEERH, REENA                             0501
A2201400250000006275852GARCIA, MINERVA TABION                                   0501
A2201400250561040968002PADRE PIO ENTERPRISES                                    0503
A2201400250000001066039TIRSO G. POQUIZ                                         10501
A2201400250000001066039INTERNATIONAL ELECTRIC WI                               20500
A0101407720602165627004ALVIN SANTOS OR                                         10502
A0101407720602165627004NORA FIGUEROA-SANTOS                                    20500
A0101407720602390297001PREYSLER, MARIVIC G.                                     0502
A0101407720602397352001RIVERA, LUIS ROBERTO FOOSHEE                             0501
B0101412180000000075283ARRC WOOD CONSTRUCT CORP.                                1606
B0101412180000001293049AUTO MAGIC CORPORATION                                   1602
A0101404260611151571003*******                                                  0501
A0101404260000007498255JOELITO P. JERUSALEM                                     0501
A0101409890649747345004SORIANO, DONNA MARCELA OR                               10502
A0101409890649747345004SORIANO, GERARDO                                        20500
A0101413990657068745001CLORES, RICARDO R. DBU                                  10501
A0101413990657068745001SAMUEL JOSEPH STORE                                     20500
A0101406590000000568930JOSE, EMMANUEL NOEL MARAVILLA                            0502
A0101406590662044117001D VISAGE INTERNATIONAL                                  10502
A0101406590662044117001CORPORATION                                             20500
A0101406590662494991001PAJARILLO, MICHAEL GIOVANNI A.                           0505
A0101410300000007614128GALENZOGA, MARILOU VELOSO                                0502
A1301400210000001206893SOLARES ENGINEERING SERVICES AN                          0501
A1301400340683537487001PILIIN, VICTORIANA ARCILLO                               0501
A1301400340683614499001ESPINO, MARIE CARTERO                                    0505
A1301400500000000213436ROSALINDA P. CASTILLO                                    0501
A2801400230713717967001VANTA, PAZ ROWENA LABACO                                 0501
A4101400390813249458001SOLEDAD C. BAYAYA OR CIPRIANO                           10501
A4101400390813249458001M. BAYAYA                                               20500
A4101400390813478374003AUXTERO, ELANE                                           0501
A4101400420814357382003REMULLA, GILDA VASQUEZ                                   0501
A4101400550000002090831STANCE AUTO AND WHEELS SHOP                              0502
A4101400550000004846960PADILLA, ROSELY                                          0501
A4101400550815693134001LLANES, TUDOR HERNANDEZ OR                              10502
A4101400550815693134001LLANES, PRESCILL                                        20500
A0101404840851424338001PAMITTAN, MYRNA M.                                       0506
A0101405070861478374004WINIEFRENDA O. PILANDE                                   0503
B0601400230000002649927MJ EXPRESS CREDIT INC.                                   1605
A0601400230000002650171SANTOS, K DBU ADRICH ENTERPRISE                         10502
A0601400230000002650171OR SANTOS, CARMINA                                      20500
