F1701400230693714245001VISIONAIRE, INC.                                         2503CKO
F0101408240711078794001ALCANTARA, LELANIE VERONICA                             12505CKO
F0101408240711078794001FACTOR JT                                               22500CKO
F0101408790383043173001PASCO PHILIPPINES CORPORATION                            2610CKR
F0101411400517052551001BCMS INTERNATIONAL SPECIALTY CO                          2601CKR
F01014130200000000567844TH WALL PRODUCTION DESIGN                              12602CKR
F0101413020000000056784STATION                                                 22600CKR
