F0101408530516484429001DIAZ, DOMINGO IGNATIUS F. OR                            12502CKO
F0101408530516484429001DIAZ, NATALIA F.                                        22500CKO
F0301400110191033341008MILL CENTER TRADING CORPORATION                          2604CKR
F0101406620273027395002BRANDGATEWAY, INC.                                       2605CKR
F0101408370382046274001SMART DRIVING CORPORATION                                2605CKR
F0801400290591014054002MILAGROSA-J SHIPPING CORP.                               2615CKR
F0101407720602021008002WAYFAIR TOURS, INC.                                      2602CKR
F0101410850000001229710PRODUCERS CONNECTION LOGISTICS                          12601CK1
F0101406590662032090002JESUIT VOLUNTEERS PHILS.                                12603CKR
F0101410850000001229710INC.                                                    22600CK1
F0101406590662032090002FOUNDATION, INC.                                        22600CKR
