A1301400470000000009925SALVADOR, EVANGELINE REYES                               0501
A0201400890000000027892FORTRESS ELECTRICAL SUPPLY                               0501
A0201400920000000048155EDIZA, M DBU OULAMS CUISINART T                          0501
A6601400120000000060660DATO, TINA CAMPOSANO                                     0501
A3001400130000000068302ANDAYA, ROSALIE ALOJADO                                  0502
A0601400230000000452759BELMONTE, MARIA PATRICIA DEANG                           0501
A0201401020000000470211DULCINEA SUITES AND HOTEL                                0501
A0201401020000000470222SENITE MASSAGE AND SPA                                   0501
A0201401020000000470251SHANGS DEVT. CORP.                                       0501
A0101404420000000471932GEMPEROA, ALJON DAYAO                                    0501
A1301400470000000472622VERA ABRERA BORROMEO                                     0502
A0101407720000000510881**************                                           0501
A0101407430000000521071LORENZO, TERESITA VIROCEL                                0501
A2001400290000000724878QUIAMCO, RHEA VILLANUEVA                                 0501
A0101409050000000999619TUMAGAY, ELAINE SUMULONG                                 0501
A0101413440000001472793DINO, ELIZABETH GRACE CASTRO                             0501
A0101403320000001647058TAN, MA LUISA LUZ                                        0501
A0101414090000001669645********************                                     0502
A1701400230000001786843LIM, ALEAH TAMBIDAN                                      0501
A0101400730000001822453RENZ BRYAN R. SAYAROT                                    0502
A0101400730000001822475DAJAY, JENAMAE KATIGBAK                                  0501
A0101400440000002034953VULGARY ENTERPRISES                                      0501
A0101404840000002327733BACARO, EDRALYN DEQUINA                                  0501
A3101400870000002327960GABA, RODRIGUEZ ALIWALAS                                 0502
A0101400150061227441001ERNESTO T. ECHAUZ                                        0503
A0101400600071031379001MFT! ENTERPRISES                                         0503
A0101405810072387220001**********                                               0502
A0101400730111477011001SAMSON, CECILIA DURAN                                    0501
A0101400440161039572087ALBERT C. VEGA                                           0502
A0101400440161186934001VICTORIA D. SISON                                        0505
A0101400440161520766101FE M. GLODO                                              0501
A0101400440161525001115EVA D. SAMILLANO                                         0501
A0101401090171201465001MICHAEL JORGE OR CHERYL PERALTA                          0501
A0301400660194725413001ALTAMIRANO JR., RAFAEL CLEMENTE                          0501
A0301400660194737283088ZHI VENUS INDUSTRIAL SUPPLY                              0502
A0101400310211081620001EUGENIO, TERESA KRIS MARIE ESPI                          0501
A0101400310211414144002YUZON, RICARDO CAPILIT                                   0501
A0101400310211478374047TABIOSAS, PRECY                                          0501
A0101400310211478374065MARIVIC DELA PAZ                                         0501
A0101400310211726420001NG, MANUEL OR NG, PRESENTACION                           0503
A0101400310211753220001GERMABI CORPORATION                                      0502
A0101407140213026740001DSQ MARKETING                                            0503
A3101400450223459293002CORONADO, ABNER LOPEZ                                    0501
A1001400190231478374084UBAGAN, MARISA T.                                        0501
A1001400190231478374086LORNA A. OMANDAM                                         0502
A1001400350233478374033CARAOS, PATROSENIA T.                                    0501
A0101406460272552417001GO, JEAN SHERYL PUA                                      0502
A0101400570281509995001RELUCIO, IMELDA DYAUCO                                   0501
A6601400120314686166001ESCALDERON JR., SIXTO ESTINOR                            0501
A0101405650322526192001FUNTILA, CAROL PAULINE TAMAYO                            0501
A0101402060351566849001YABUT, FELINO CANJA                                      0501
A0101402060351595339001CARLOS, CORAZON ALIMARIO                                 0501
A0201400760374478374015DACAYANA, ROSALIE SIBLA                                  0501
A0101402930381205378001LINCOLN CHEN OR JULIA CHEN                               0502
A0101402930381209797001LAURA VICTORIA A.S. YUSON                                0502
A0101402930381209797002LAURA VICTORIA Y. LAYUG                                  0502
A0101402930381478374015DIMARANAN, ARNOLD ABEJERO                                0501
A0101408790383446835001OLAYRES, DUGH SISON                                      0501
A0101408400394426438001DETOYATO, LAURA ROSANNA LAOAGAN                          0501
A5501400120410685210001GUINTIBANO, EDEN VILLARUEL                               0501
A2401400180411442136088***************                                          0501
A0101406330472027958001A. ANOLIN ENTERPRISES                                    0503
A0101406330472206513002**********                                               0505
A0101406330472217737001ARR MARKETING & GENERAL MDSE.                            0501
A0101406330472478374015MARIA R. JURINARIO                                       0501
A1401400110492502818001OBISPO, ALONA VILLAMAYOR                                 0502
A0101403450521259629001**********                                               0501
A0101407720602166653018LUCITA F. SULIAN                                         0501
A0101407720602382805001BAGABALDO, ZENAIDA GARCIA                                0502
A0101407720602397125001PASTORES, ELOISA GUZMAN                                  0504
A0101404420631478374072FELY UGDORACION                                          0501
A0101404420631478374195ANA A. EMPERIO                                           0501
A0101407690652034806001BROWNFLY COMMERCIAL                                      0504
A0101407690652496446002BUNSAY, LYDIA GUEVARRA                                   0501
A0101407690652573864001ANG JR., JOSE OR SALVACION                               0505
A0101407690652641682001DELA CRUZ, ZENAIDA JASMIN                                0501
A0101406590662084373001ROA, MA. MARGARITA SANTOS                                0501
A0101406590662207847001MARY ANN P. FLORENDO                                     0501
A0101407560686288699001***************                                          0501
A1701400230693478374061BAUTISTA, CRESENCIO RISCAL                               0501
A4101400420814520766064ANDAYA, AURORA A.                                        0502
A0101407690000000025141MEJIA III, MARIANO DBU                                  10503
A0101407690000000025152MONCEDA, MARINA - DEALERS OF                            10501
A0101412340000000031136VILLACORTE, BIENVENIDO L. OR                            10501
A0101413020000000056988AGUSTIN, FL DBU FIX AND CARE                            10502
A0101412890000001765404ACUNA, SALVADOR A OR ACUNA,                             10506
A0101405650000001911973GARIN, DANTE OLASE  OR                                  10501
A0101400150061229962001ACLETO C. RIGOR OR                                      10503
A0101400150061287682001RAFAEL S. ALGARRA OR                                    10501
A0101400600071092538001CHAN, GIDEON DY OR                                      10510
A0101401090171195606003REYNALDO/MA. LOURDES/KENNETH                            10515
A0301400660194731082088PEJI, JUNE ANN SOLER OR PEJI,                           10505
A0101400310211051063001NEDA BALADAD OR ARCELIE AGBALOG                         10503
A0101400310211157817001INTERINO, LOLITA OR MARIA                               10502
A0101400310211461822003GALVEZ, JINKIE SEMING OR                                10501
A0101400310211688179001SIBUG JR., JOSEPH OR SIBUG,                             10502
A3101400450223442002001GARCIA, ROSALINA OR                                     10502
A0101400570281189115002LORRAINE P FELICIANO OR                                 10510
A0101405650322170744002DELA PENA, DINA REYES OR                                10502
A0101402510341488461001ORDOYO, DOROTHY BARREZA OR                              10502
A0101402060351351442001ROSALES, JOSEPH PHILIP &/OR                             10503
A0101402060351734699002RAMNANI, MICHAEL CHRISTOPHER OR                         10502
A0101406330472315246002FRANCISCO JASON ANGELES OR                              10502
A0101405940512383078001MAGAT, LENITA BROFAS OR                                 10502
A0101408530516499560001VELASQUEZ, JOSE MARTIN A. OR                            10501
A0101407690652478374131TARROQUIN, NORA - DEALERS OF                            10501
A0101407690652478374179LENIE ANDO - DEALERS OF                                 10502
A0101407690652525001056ENRIQUE, EMY SANTOS - DEALERS                           10501
A0101407690652563634001RUEL L. LECAROS  OR                                     10502
A0101408240711417400001PAGUNSAN, ANSELMO JR. OR                                10501
A0101408240711658327001MOROS, MIRAFLOR M. OR                                   10503
A0101407690000000025141MGVM CONSTRUCTION                                       20500
A0101407690000000025152SHOECAT INC.                                            20500
A0101412340000000031136VILLACORTE, ADELINA C.                                  20500
A0101413020000000056988REF & AIRCON REPAIR SERVI                               20500
A0101412890000001765404ALONA C                                                 20500
A0101405650000001911973GARIN, BERNADETTE PERLADO                               20500
A0101400150061229962001CARINA M. RIGOR                                         20500
A0101400150061287682001MARY JOSEPHINE ALGARRA                                  20500
A0101400600071092538001CHAN, JEANNE PAR                                        20500
A0101401090171195606003ROSS/KRIZIA JAVATE                                      20500
A0301400660194731082088JONATHAN CORTES                                         20500
A0101400310211051063001DBU VON MIGUEL S                                        20500
A0101400310211157817001CRISTINA INTERIN                                        20500
A0101400310211461822003GALVEZ, EDGARDO                                         20500
A0101400310211688179001MARIA CHERMAINE                                         20500
A3101400450223442002001JESUSA CORAZON                                          20500
A0101400570281189115002YOLANDA A PALANC                                        20500
A0101405650322170744002DELA PENA,LAUREN                                        20500
A0101402510341488461001HAGHANI RAD, MOZHDEH                                    20500
A0101402060351351442001JOSEPHINE &/OR T                                        20500
A0101402060351734699002RAMNANI, ASHOK                                          20500
A0101406330472315246002EVA ANGELES                                             20500
A0101405940512383078001MAGAT, ROBERTO B                                        20500
A0101408530516499560001VELASQUEZ, MA. A                                        20500
A0101407690652478374131SHOECAT, INC.                                           20500
A0101407690652478374179SHOECAT INC                                             20500
A0101407690652525001056OF SHOECAT INC.                                         20500
A0101407690652563634001JOVITA M. LECAROS                                       20500
A0101408240711417400001JULIANA                                                 20500
A0101408240711658327001MOROS, JOWEL B.                                         20500
B0101404130000000001292ARKHI INTERIOR DESIGN AND BUILDERS                       1602
B0101408110000000016651DEVCONS 3E CO.                                           1603
B0301400660000000022868KEIZENNG TRUCKING CORP.                                  1602
B0301400660000000022904POROCO INDUSTRIES CORPORATION                            1610
B2401400180000000073663CENTURY PACIFIC FOOD, INC.                               1610
B0101406460000000182512FG GLOBAL MARKETING INC.                                 1601
B0101406620000000194121UBER APPS INC.                                           1601
B0601400520000000398512PAGASA PHILIPPINES LENDING COMPANY, INC.                 1606
B0101402930000000623396BENMARK GROUP HOLDINGS, INC.                             1602
B0601400360000000978798GOLDEN FROST, INC.                                       1610
B0301400660000001020124SILVER POWER FUELS                                       1605
B0301400660000001020135*****                                                    1605
B0101411400000001280477NEXT TECH. RESOURCES CORPORATION                         1603
B0101400600000001335773BACKJE PHILIPPINES INC.                                  1603
B0301400820000001554792VIC IMPERIAL APPLIANCE CORP.                             1601
B0201400760000001612824METRO RETAIL STORES GROUP, INC.                          1610
B0101413310000001928856PRIME INTERNATIONAL CONTACT LENS IN                      1601
B0101400150061018828001DOME CAFE FRANCHISE CORP.                                1610
B0101400600071233748002**********                                               1601
B0101405810072034989001TRANSWELL ENGINEERING CO.                                1602
B0101405810072035930001************                                             1602
B0101405810072412798001**********                                               1603
B0101405810072412798002**********                                               1603
B0101405810072557134001JSG PREMIER HOME INC.                                    1601
B0101405810072573152001COMEBUY ENTERPRISES CORP.                                1602
B0601400100081042607001W.O. VALENCIA GROUP HOTEL & RESTAURANT                   1605
B0601400360083040429001TOKWING INFINITE READY MIX CONCRETE                      1610
B0101400730111019776001TRAVELFAST INTERNATIONAL                                 1601
B0101400310211043559001FOODDALE ENTERPRISES, INC.                               1601
B0101407140213190851001**********                                               1602
B0101407140213557621001FLUID ENERGY PHILIPPINES, INCORPORATED                   1604
B0101405650322006460001SOUTHGATE SERVICE CENTER, INC.                           1603
B0101402510341038206002EVER PLUS SUPERSTORE INC                                 1601
B0101402060351030802001PACIFIC RESINS INC.                                      1605
B0201400760374047828001MTO TECHNOTRENDS INC.                                    1601
B0101402930381021740001YOSHINOYA CENTURY PACIFIC INC.                           1602
B0101405490392494716001MASTERFLOW INCORPORATED                                  1605
B2401400180411033064001P.G. ANG AND SONS, INCORPORATED                          1620
B0101406330472045599001BES SERV LOGISTICS CORP.                                 1603
B0101403450521011838001**********                                               1602
B0101403450521032242001**********                                               1604
B0101404000551038492001UP STAGE RESTAURANT & BAR CAFE INC.                      1602
B1301400500684602319001*****                                                    1602
B4101400420814010838001INFORMATICS COMPUTER INSTITUTE, INC                      1605
B0101413310133821100608**********                                               2002
