F4101400260812039607009CASTRO, DINDO                                            2501CKO
F4101400260812059608001HEATSENSOR TRADING AND                                  12601CK1
F4101400260812059608001CALIBRATION INC.                                        22600CK1
F0101407270162037998001DCINEMA INC.                                             2603CKR
F0101407270162040419001ARRAY'S TECHNOLOGY, INC.                                 2603CKR
F0301400110191040022118BANANA TELECOMMUNICATIONS, INC.                          2601CKR
F0301400110191040022138BANANA TELECOMMUNICATIONS, INC.                          2601CKR
F0301400110191040022138BANANA TELECOMMUNICATIONS, INC.                          2601CKR
F0301400110191040022178BANANA TELECOMMUNICATIONS, INC.                          2601CKR
F0301400110191048656101BAYANMALL CORPORATION                                    2601CKR
F0101400570281042885001COCO DAVAO, INC.                                         2603CKR
F0101408110000003281478WASHMAN BROS, INC.                                       2601CK1
F3201400190000001493056RECEL ELNORA DBU STEFAN'S PHARM                         12505CKO
F3201400190000001493056DRUGSTORE                                               22500CKO
F0101406750852032744001COSCO INTEGRATED OFFICE SYSTEMS                         12605CKR
F0101406750852032744001INC.                                                    22600CKR
F0101406750852415575001VILLACRUZES, MERLY MELEGRITO                             2503CKO
F0101405070861197520002QUINTIN C. DEE OR STELLA DEE                             2501CKO
