A0101412920000003464982RIVERA, EDEN BORJA                                       0502
B1101400120000000010680NEW LEYTE ASIA TRADING CORPORATION                       1602
B1101400120000000652926BUSINESS FRONTIER CORPORATION                            1603
A1101400120000001547360CAUSING, MORPHEUS SALARDA                                0501
A1101400120000003197095IBANEZ, JENNY LIND BUENO                                 0501
A1101400120000003197175LAGRIMAS, DENNIS CILLO                                   0501
A1101400120000003981179BALEOS JR., JOSE RONQUILLO DBU                          10503
A1101400120000003981179APEX AUTO PARTS                                         20500
B1101400120000000652879TY, WILLIAM LOBRIO OR TY, MARILOU CHU                    1605
A1101400120000000652540VILLEGAS, MALCOLM JAMES P. OR                           10502
A1101400120000000652540VILLEGAS, ALVIN BRIAN P.                                20500
B0101405650322033184002ASIA PLUS CORPORATION                                    1605
A0101405650322172164002AQUINO, CHRISTIAN CASTRO                                 0502
B0101402060351020652001SUZUKI PHILIPPINES, INC.                                 1603
A0101412050000002314494RAMCHANDANI, VASUDEV DOULATRAM                           0501
A1701400230693478374044CECILIA CORRALES                                         0501
A4101400260812752512001HIPONIA, CATALINA PEDIDA OR                             10501
A4101400260812752512001JUAN, EMMANUEL B                                        20500
A4101400260812752512001HIPONIA, CATALINA PEDIDA OR                             10501
A4101400260812752512001JUAN, EMMANUEL B                                        20500
B0101400860011418038001**********                                               1603
A0101400860011496074002**********                                               0501
B0101400860011507585001LU, SHAOYI                                               1605
A0101400150061469895001MENDOZA, JULLIENE MARY ABELIDA                           0501
A0101400150061573471001UMBALIN, MARILYN SANTIAGO                                0501
A0101400150061720939001HUANG, OLIVIA SHAU                                       0501
A0101413310000004735757ENANO, MARIEL PINKY SERWELAS                             0502
A0101401830141292667002GEMMA OR LEE MARVIN OR                                  10505
A0101401830141292667002JOHN GEMMO MAGTALAS                                     20500
A0101401830141392466002SANTOS, ROBERTO VERSUELA                                 0501
A0101400440161039572010MYRNA A. CANELAS                                         0501
A0101407270162421293007YOLANDA L. DE ALBA                                       0501
A0101401090000003835916NOVIO, RONA REGADO                                       0502
A0101401090171399403001JOHN JOSEPH T. FERNANDEZ                                 0505
A0301400660000000048326CANADA, PAULENE CHAVEZ                                   0502
A0301400660000002348563*****                                                    0505
B0301400660000003361908PHILIPPINE RADIANT PRODUCTS, INC.                        1601
A0301400790000002301239NATAD, JULIET ALBARILLO                                  0502
B3101400160221045923001SUNRICH MANUFACTURING CORPORATION                        1610
A3101400160221218333001KATHERINE OR CARLOS SION                                 0505
A3101400870000003515211NESPEROS JR., DOMINGO MIRAN                              0501
A3101400870225478374002BODORAYA, RUZIEL RAMOS                                   0501
A3001400130000001271523*******                                                  0501
A3001400130000000931333K AND S ENTERPRISES                                      0501
B3001400130000003434693SWEETSATION, INC.                                        1610
A3001400130230478374026SONOT, RODERICK AMAHOY                                   0501
B0101401670271007153001LEARNING PARTNERS SCHOOL, INC.                           1602
A0101401670271186233001ASTEYA SANTIAGO OR                                      10502
A0101401670271186233001ABIGAIL SANTIAGO                                        20500
A0101401670271375347001HENEDINA L. VELASCO OR                                  10502
A0101401670271375347001EDGARDO T. VELASCO                                      20500
A0101401670271482067001DANILA, LOURDES RUBIN                                    0501
B0101406460272020749001EASTGATE COMPUTER CORPORATION                            1601
A0101406620000002009234INFANTE, DANDIN YANOS                                    0501
A0101406620273038576001VENTURE 11 FOODS EXCHANGE                                0501
B0101408660000001940621ANTA CONSTRUCTION CORPORATION                            1602
A0101408660274448186001GAMO, WEISEN BAGAMANO OR                                10501
A0101408660274448186001GAMO, JOHN BRYAN                                        20500
A0101411820000002328452GENISES C. SOLOMON                                       0502
A0101400570000003891550ABELLA, JENEFE BIRAO                                     0502
B0801400160311267059001DULALIA'S INCORPORATED                                   1602
B1101400120000000652442GICABAO, KATHLEEN JOY NG OR                             11603
B1101400120000000652442GICABAO, BONGKOK                                        21600
A1101400120000003981248ABUNALES SR., MARLO PAANO DBU                           10505
A1101400120000003981248ML ABUNALES ENTERPRISES                                 20500
A6601400120000002249910YRUMA, ALBERT OR EMELITA                                 0510
A0101402350000000019127ARDIENTE, MARIA CORAZON CASTRO                           0501
B0101405650000000012977AZARCON JR., NOEL PIERRE HACHERO                         1601
A0101402060351043801001EMICOR MARKETING                                         0501
A0101402060351687812001SOLER, MA. ASUNCION RAMIREZ                             10501
A0101402060351687812001ARELLANO                                                20500
A0101409050000002971384RESULLAR, ALLEN CURAY                                    0501
A0201400760374483079001STEINBERGER, OTTO WILHELM                                0501
A0201400920375524523001MIEL, PRINCESITA OR MIEL, ALEX                           0502
A0101411660000002309462DEL ROSARIO, JORGE HERNANDEZ                             0502
A0101408400000003515108LESABA, MARIBEL SEVA                                     0501
A0101408400000005286273CI, ZHIGONG                                              0501
B0101409180397024361001ASALUS CORPORATION                                       1602
A0301400820000002271956COMAINGKING, JESUS B.                                    0501
A0301400820000004746101FAMACION, RAMSEY DBU JARED SUIT                         10501
A0301400820000004746101ES OR FAMACION, BEULAH                                  20500
B0301400820000005196750POWER ASSET SERVICES CREDIT CORP.                        1603
B0301400820000005196669BANSALAN MEDICAL CLINIC &                               11602
B0301400820000005196669HOSPITAL, INC.                                          21600
B2401400180411030534001GENSAN-PRIMAL AUTO PARTS                                 1601
B2401400180411032703001TOYOTA GENERAL SANTOS INC.                               1620
A2401400180411478374061JUNRES AGAD OR                                          10502
A2401400180411478374061NORMELITA BLANCO                                        20500
B2401400180411542448002GUATLO, ANNA MARIE VILLASENCIO                           1601
A0901400220000000887954ALANANO, NATHANIEL P. OR                                10501
A0901400220000000887954ALANANO, MADELYN A.                                     20500
A0901400220000000425045LOZADA, ELIZABETH GO                                     0501
B0101403030000000008955**********                                               1601
A0101403030441240945001**********                                               0504
A0101412890000002324192*************                                            0503
A0101403320000001803407********                                                 0501
B0101403320000004831009JAVIER, EMIL DBU                                        11605
B0101403320000004831009CENDAUR ENGINEER                                        21600
A0101403320000000522176ALCANTARA, RAEZA LUMBAG                                  0505
A0101403320471478374006NELIA MORALES                                            0501
B0101406330472313424001MARIO OR TIFFANIE OR ERNESTO                            11603
B0101406330472313424001GOBACO                                                  21600
A0101403580511323054001FEDERICO C. LAFUENTE JR.                                 0501
A0101403580511434858001ADOR C. MEJIA                                            0501
A0101406880513565496013ABDON, ANTONELLA TURALBA                                 0502
A0101408110000001364825YUHENGCO, JEFFERSON JOHN CHUA                            0501
A0101408110000001165771SUAREZ, MAE VELASCO                                      0501
A0101408110515366914001JOSE PAULO P. LORENZO OR                                10503
A0101408110515366914001MA. PILAR P. LORENZO                                    20500
A0101408110515427749001HILARIO TAMONDONG JR. OR                                10502
A0101408110515427749001TRISHA MARIE TAMONDONG                                  20500
A0101408530516571877110EMILIE JUNE C. CALONGE                                   0503
A0101403450521240285002**********                                               0502
A0101403450521389380001**********                                               0501
A0101404000000003853149DEE, GERARD TIONG                                        0501
B0101404000551031038001FUNHAUS BALLOONS AND PARTY NEEDS                         1602
A2201400250561478374019ELOISA F. VIGILIA                                       10502
A2201400250561478374019MEMBERS OF NATASHA                                      20500
A2201400250561478374026MINDA S. BLAYA                                          10501
A2201400250561478374026MEMBERS OF NATASHA                                      20500
B0101407720602005874001DOOR OF HOPE COUNSELING                                 11602
B0101407720602005874001RESOURCE CENTER                                         21600
B0101407720602027414001GAN ADVANCED OSSEOINTEGRATION CENTER                     1605
A0101407720602332279002CAYCO, ANTONIO V. OR                                    10501
A0101407720602332279002CAYCO, MARGARITA                                        20500
A0101407720602399095001JUNSAY, RAYMUND GEPILANO                                 0501
A0101407720602493587001CABUJAT, ROSEMARIE BALIBALOS                             0504
A0101407720602497553001TAN, MARIE CECILIA YU                                    0504
A0101407720602499900001***************                                          0501
A0101404260611042511001KEN TAXI                                                 0505
A0101404260611150902001MARITESS OR BERNARD PAMA                                 0501
A0101413570000002249403DE GUZMAN, EDUARDO PURIFICACION                          0502
B1301400210682012854002BULACAN PUBLIC SCHOOL TEACHERS MULTI-                   11605
B1301400210682012854002PURPOSE COOP INC                                        21600
A1701400230693497012001BANGILAN, LOURDES JIMENEZ                                0502
B0101408240711023600003HERSAN REALTY CORPORATION                                1602
B0101408240711036910001ASIAN CENTRE FOR INSULATION PHILS.,                      1603
B4101400260812047082001SERENITA INC.                                            1601
A4101400260812396084001JOSEFINO S. REBANCOS, M.D.                              10505
A4101400260812396084001LIGAYA S. REBANCOS                                      20500
A4101400260000002888186ROSANO, ROXANNE ANDRADA                                  0501
A4101400260812578947001RENFRED A. LUSTESTICA                                    0502
A4101400390000000048662DEL ROSARIO, MARLON VIRAY                                0501
A0101412340000004360850MA. DAISY N. LIZADA                                      0503
B0101404840851042694001YILIN FASTFOOD VENTURE INCORPORATED                      1610
A0101404840851298552055MELBA C. ENGBINO                                         0502
A0101406750000000500154MAGRACIA, MARY ANN DELA CRUZ                             0501
A0101406750000004641930VELASQUEZ, MAY ANN RASONABLE                             0502
A0101405070861347460002HELEN MASANGYA OR                                       10502
A0101405070861347460002ZENIA GRICO                                             20500
