A3401400280000000972783DELA CRUZ, EMILIO BILLONES                               0501
A0101400150061230908001MAPE, JOSELITO E.                                        0502
A3001400130000000931208BENDIJO, AMELITO MONDEJA OR                             10501
A3001400130000000931208BENDIJO, ERLEN A                                        20500
A2001400290000001973839FUENTES, MACRINA R. DBU ORIENTW                          0502
A0101412890000001056206GERONIMO, ANNABELLE ELEANOR LIM                         10501
A0101412890000001056206OR GERONIMO, MAR                                        20500
A0101412890000000543031ANOZO, JESUSA FLORES                                     0501
A0101401250021435998001********                                                 0501
A0101400150061341283001DIAZ, CYNTHIA MARTINEZ                                   0501
A0101400150061412381001VILLARUZ, MA. CORAZON A. OR                             10501
A0101400150061412381001VILLARUZ, JOSEPH                                        20500
B0101400150061436247001SEAWOOD RESOURCES INC.                                   1602
B0101400150061447303001TANY FOUNDATION, INC.                                    1605
A0101400150061464371002RODA, MARY ANN FLORES                                   10501
A0101400150061464371002OR RODA, JULIUS                                         20500
A0601400100081380435001MARQUEZ JR., RAYMUNDO PARAS OR                          10504
A0601400100081380435001MARQUEZ, DEBBIE                                         20500
A0101412630000001485218DESIDERIO, JOHNSER LAWAS                                 0501
B0101412630132047975001ELR REALTY CORPORATION                                   1603
A0101407270162542118001MARISSA DV. BAUTISTA OR                                 10501
A0101407270162542118001SANDY M. BAUTISTA                                       20500
B0101407270162558669001UNIPRIME BEAVER STEEL PRODUCT                           11610
B0101407270162558669001CORPORATION                                             21600
B0301400530193044706199ROYAL CROWNE BEVERAGES                                   1603
B0301400660000000195259ORIENTAL & MOTOLITE MARKETING CORP.                      1602
B0301400790195053525002EMCELI PROPERTY HOLDINGS CORP                            1601
B3101400160221037479001TABLERIA LA CONFIANZA CO., INC.                          1601
A3101400450223491849001JAO, AUGUSTO RAZEL DOMINO                                0501
A1001400190000000124683ABCEDE, CARMENCITA A.                                    0501
A1001400480000000041454SIMON, GEORGIE ABECIA OR                                10502
A1001400480000000041454SIMON, JOEL CAGA                                        20500
B1001400480000000133480SMART TECH INDUSTRIAL SALES AND SERVICES                 1602
A0101406620273380453001**********                                               0501
A0101410980000002987086**************                                           0502
A0101400570000001681790ELIZABETH U. BLACKA                                      0502
A0101400570000001681916BLACKA, ELIZABETH UBIAS                                  0502
A0101400570281340990001JOSEFA A. PALANCA OR JOSEPHINE                          10504
A0101400570281340990001P. RAFER                                                20500
A1101400120000002254902BARREDA, EDKENS MARASIGAN                                0501
B1101400120313036429001PERPETUAL HELP MULTI-PURPOSE COOPERATIVE                 1602
B6601400120314040180001NORTHERN LIGHT HOME DEPOT                                1604
A3401400280000002323371RAYMUND D. BUENSALIDO OR                                10503
A3401400280000002323371SHIRLEY B. BUENSALIDO                                   20500
A0101405650000000013054NATCORP CAREER GROWTH AND                               10505
A0101405650000000013054MANPOWER SERVICES                                       20500
B0101405650322036086001VISTALAND INTERNATIONAL MARKETING, INC.                  1608
A0101402060351434359001USON, RODOLFO RODRIGUEZ                                  0501
A0101409050000003536474ARCE, ERIC                                               0501
B0201400760374272956001YU, DESSUM LIM OR YU, EMMA LAU                           1601
B0101402930381009093002PHILIPPINE ASSOCIATION OF COLLEGES                      11605
B0101402930381009093002AND UNIVERSITIES                                        21600
B0101402930381022284001INVESTORS ASSURANCE CORPORATION                          1601
B0101402930381022675002CEBU AIR, INC.                                           1605
A0101402930381615796001LOTILLA, CATHERINA MANUELA REME                          0501
A0101408790000002031463CASTANEDA, CAMILLA ANN LASALA                            0501
A0101408790000003812144TUAZON, JANE TOLENTINO                                   0502
A0101405490392478374008MARGARITA R. CIELO                                       0501
A0101405490392691872001JASMIN GERALDINE G. GALLARDO                             0501
A0101408400394041759001BUILTLINE INTERIOR FINISHES AND                         10501
A0101408400394041759001CONSTRUCTION                                            20500
B0101408950396026318001GLOBAL CITY AUTO SALES, INC.                             1604
B0101408950000002768416H2004 VENTURES INC.                                      1603
A0101409180000004796701MIMILANIE B. CASTANEDA                                   0501
A0101409180000004796778COO, JANE V.                                             0501
A0101409210000002802768ESER, GLADYS ROSAL                                       0501
A5501400120000000047174ADUANA, RACHEL OR                                       10501
A5501400120000000047174ADUANA, ROMMEL                                          20500
B5501400120000000003298MARBEL FIT MART, INC.                                    1605
A0101403320471047588001RHINA JENEPER C. LIBIRAN DBU                            10502
A0101403320471047588001R-GENESIS DRUG STORE                                    20500
A0101403320000001802999CELEBRITY CONSTRUCTION                                   0505
A0101406330000001235170CORDOVA, JESSER TABLIGAN                                 0501
B0101406330000000432886PAN-EURASIA SALES MARKETING CORPORATION                  1601
A0101406330472780167001AGNES D. CHUA                                            0502
A0101410140000000499054SANSON, NOREEN DBU V.A.N.C.                             10502
A0101410140000000499054GENERAL ENTERPRISES                                     20500
A0501400170481018109005*****                                                    0501
A0501400170481319119001XXXXX                                                    0501
B3801400170490058565001KRUSTY PATTY PIZZA CORP.                                 1602
A3801400170000002302783GANIR JR., ANGEL PANGALIMAN                              0501
B1901400160491046052001BANAPRA DEVELOPMENT COOPERATIVE                          1603
A1401400110492391436001ELISES, FELIPE VILLAFLOR OR                             10505
A1401400110492391436001DIJAMCO, MA. BIL                                        20500
A1601400170000000099029MYRA T. LAUSON                                           0501
A1601400170000001069216LARRY M. RIVERO                                          0502
A0101407430000005148783PURAL, EMAN REAL                                         0501
A0101407430000002298304JOSE ELIGIO TEODORO J. OCAMPO                            0506
A0101405940000005067738KATHLEEN THERESE M. PACHECO                              0501
A0101405940000005067772MHARIE VI T. REYES                                       0501
A0101405940000005067790MARK LESTER SY SUAN CHING                                0501
A0101405940000005067841ADRIAN S. ARCEO                                          0501
A0101405940000005067921CATHERINE CHIQUI F. DIONISIO                             0501
A0101405940000005067961FLORENCE A. BACSA                                        0501
A0101405940000005067983LORELIE Y. LACSON                                        0501
A0101405940000005068008JERRY S. CANTEMPRATE                                     0501
A0101405940000005068020MYRA BIANCA S. RAMOS                                     0501
A0101405940000005068071NINA LINDA B. PIOQUINTO                                  0501
A0101405940000005068140EDWARD MAXCEL N. FILIO                                   0501
A0101405940000005068162CATHERINE E. CEBRERO                                     0501
A0101405940000005068184ANGELICA N. DIVINAFLOR                                   0501
A0101405940000005068195MAGNOLIA C. BAYLAN                                       0501
A0101405940000005068213JOCELYN C. CO                                            0501
A0101405940000005068220REMEDIOS N. BUENAOBRA                                    0501
A0101405940000005068231AMELIA S. GREFALDA                                       0501
A0101405940000005068242AIMEE R. CACAYORIN                                       0501
A0101405940000005068253MARIA CHARMINIA T. BRAVO                                 0501
A0101405940000005068264RUBERSON P. TRIA                                         0501
A0101405940000005068297RICKY M. SEDA                                            0501
A0101405940000005068311JENNIE T. TONG                                           0501
B0101405940512028580005AUTOMETICS CAR CARE, INC.                                1601
A0101408110515696022001ROMEO V. BATO OR                                        10505
A0101408110515696022001BENJAMIN T. ALONZO                                      20500
B0101408530000001275252MANAHAN, ENAGE-ARANGUREN AND ORTEGA                     11602
B0101408530000001275252LAW OFFICES                                             21600
B0101408530516190991001MALLORCA REALTY, INC.                                    1604
B0101411790000003252520RE'DIS GLOBAL CORP.                                      1602
A0101412050000000367971BUGAS, HAZEL CAGAANAN  AND                              10501
A0101412050000000367971GATMAITAN, NILDA                                        20500
A0101404000000001186818BERGADO, KELVI ANN LICO                                  0501
B2201400250561000814001RURAL BANK OF STA. IGNACIA, INC.                         1601
A0101404130601451592002LINDA A. IBUNA OR MARY ANN I.                           10506
A0101404130601451592002PASTRANA                                                20500
A0101404130601547411001CO, ROYCE NASIS                                          0505
A0101407720602379811001NOEL S. AYPA OR MA. CARMEN                              10502
A0101407720602379811001TERESA G. AYPA                                          20500
B0101412180000000075461CLOVERLINK CORP.                                         1601
B0101412180000001293129MARKETLIFE MANAGEMENT AND LEASING C                      1605
A0101404260611478374081ROSITA VIVIT                                             0502
A0101407690000000914061MERJUDIO, EDNA PANGAN                                    0501
A0101407690652371018001**********                                               0501
A0101407690652478374179LENIE ANDO - DEALERS OF                                 10502
A0101407690652478374179SHOECAT INC                                             20500
A0101407690652525001067MAILA M. NACIN - DEALERS OF                             10501
A0101407690652525001067SHOECAT INC.                                            20500
A0101407690652525001075DOCDOCIL, GELITA - DEALERS OF                           10501
A0101407690652525001075SHOECAT INC.                                            20500
A0101407690652564294003GALVEZ, NERISA RIVERA                                    0503
B1301400210682026707001GOLDEN DAME FOOD CENTER, INC.                            1602
A1301400340683380503008ALVEZA, TRIGIDIA DE VERA                                 0501
A0101408240000000005181POL CAMACHO SECURITY                                    10502
A0101408240000000005181CONSULTANCY                                             20500
A0101408240711561474001LAKANDULA, CHRISTINE LOLO                                0501
A4101400550000002091021PIYEZA MOLINO AUTO PARTS                                 0504
A0101412340000003340536EMELYN M. ALANO                                          0501
A0101412340000004360029CHRISTOPHER F. CASEM                                     0501
A0101412340000003438544CHERMAINE PORTIA P. LODERO                               0501
A0101412340000002900370MARINEL O. OBIDO                                         0502
A0101404840851478374062VIOLITA V. GIDUCOS                                       0503
A0101406750000000173000SUMANG, WILFREDO SALONGA                                 0502
