A0101410560000000020140REYES, JONALYN ANN ACUPAN                                0501
A1301400210000000023229FRANCISCO P CABOTEJA                                     0501
A1001400190000000124803FANTONIAL, MERILY H.                                     0501
A0101413990000000205876MALIG, RICHIE PASCUAL                                    0501
A1001400350000000245361PAJO, APRIL TABIAN                                       0501
A0101412890000000371431GINA B BARBUENA                                          0501
A0101409920000000523584MASACUPAN, PHILIP GONZALES                               0503
A0101401250000000907200LEYNES III, GREGORIO M.                                  0501
A0101412340000001017521JIMENEZ, JANICE BANGUILAN                                0504
A4101400260000001198603DELOS SANTOS MARICAR DBU MDS GR                          0510
A0101413440000001472737MANAOIS, MAMERTO CRUZ                                    0501
A0101403320000001646846DAISY MAE B. DOMINGO                                     0501
A0101412890000001765682MARIA ROSELLE M SANTOS                                   0502
A0101401380000001819941PARK, JIN YONG                                           0503
A0101401960000001844657SUMANDE, RUBY SERZO                                      0503
A0101413990000001947128MARS STONE SUPPLY                                        0501
A1301400500000002063792ANTONIO, ALBERT SILVA                                    0501
A0101412470000002295827KO, JANET                                                0501
A0101411660000002309393DARGANI, ISHWARLAL ANANDRAM                              0502
A0101409890000002326741ROJAS, RAYMOND DE VERA                                   0501
A0101406460000002359782RICAFRANCA, EVELYN ACUIN                                 0501
A0101412890000002747879SILCOCK, PAMELA PALLON                                   0501
A0301400950000002975046PUNDAG, AS-ARIE SANTA CRUZ                               0502
A0101402480000002975360MILANO, RYAN OTIS                                        0501
A0101413990000003141168PASCUA, JERICKSON LOUIE TAN                              0502
A0101409050000003533515TY, RICA ALABADO                                         0502
A0101409050000003536521GUTIERREZ, SHERYLL                                       0501
A2201400250000003558092AMELIA F. MANALO                                         0501
A0101404000000003706870MICHELLE M GUEVARA                                       0501
A0101412340000003719675VILLAVERDE, CHERRYLL FILIO                               0501
A0101413600000003851074ELAINROSE FAITH ESBERTO                                  0501
A0101412890000003908127************                                             0501
A0101401250000004374583CASTA, LORENA L.                                         0502
A0101402510000004489294MORFE, MARK ANTHONY MAGPANTAY                            0501
A0101409210000004490277CLEDERA, KIM DEBRA CAMPO                                 0501
A0101400860011388241003**********                                               0502
A0101400860011402005002**********                                               0502
A0101400860011550110001**********                                               0502
A0101401250021704731001PALILEO, CHARISSMA CHAMORRO                              0501
A0101401700041188743001CAROLINE T. ONG OR WILSON ONG                            0502
A0101401700041575649001PERAN, JONI ANN JO                                       0501
A0101400150061541767001INGENIERO, SIEGFRED CANDELARIO                           0501
A0101400150061701388001SUALIBIO, EMILY SOLERO                                   0501
A0101401960121240744002MAGNAYE, JESSIE M.                                       0502
A0101400440161478374198EUFRONIA I. BERGONIA                                     0501
A0101407270162333006037JANNET OROSCO LOCSIN                                     0501
A0101407140213190389001**********                                               0501
A0101407140213385506002**********                                               0501
A3101400450223576401001GALLEGO, DHARIA CAJAYON                                  0502
A0101401670271039999001INFINITY INSURANCE SERVICES                              0502
A0101400570281507878001CHENG, FEDERICK CO                                       0501
A0801400160311478374053JONNA O. ALCAIN                                          0502
A2001400290315043996001STOP N' SHOP ENTERPRISE                                  0505
A0101405650322035182001*****                                                    0501
A0101402060351413570001WONG, EILEEN SY                                          0501
A0101409050352228509001JOHN ANTHONY M. CASTRONUEVO                              0501
A0201400760374041860001ONE URBAN CONSTRUCTION                                   0501
A0101402770391403646001PANGILINAN, JOSEPH MANIO                                 0502
A0101408400394544653001SAMOZA, MARY ANN VECINA                                  0502
A0101408950396569875001BERNARDO, MARIA CRISTINA CORNEL                          0505
A2401400180411572205001EBRAHIM, MA. AMOR ISHAD                                  0501
A0501400170481255325007ARZADON, VOLTAIRE PORSOVIGAN                             0501
A1901400160491246087001NIDA F UY                                                0501
A1401400110492433218001MILLA, MAYNARD BUSTAMANTE                                0501
A0101408530516543430004EMILIE JANE RAVAGO                                       0501
A0101403450521241204001**********                                               0502
A0101403450521690623001*******                                                  0502
A0101407720602384186003SARMIENTO, JOSIERINA YANEZA                              0502
A0101404260611478374136ZENAIDA P. SINGUEO                                       0501
A0101406590662590885001BARRIENTOS, MARITES ABRAHAM                              0501
A1301400210682045774001POP WASH LAUNDRY SHOP                                    0502
A1301400340683736423001********                                                 0502
A0101407560686478374069ROLANDO PATAC                                            0502
A0101414120000001142852TERESITA M. PUYAT OR MARY ANN                           10505
A4101400260000001198610RAPISTA, JOHNNY A. OR                                   10503
A0101404130000001831670CHUAUNSU, JESUS D. OR CHUAUNSU                          10502
A0101401250000002289989SUNICO, ERLINDA RS OR RAQUEL-                           10505
A0101413280000002648337MITCHELL ZARAH HORTALEZA OR                             10501
A0101414120000003584105TRILOGY EVENTS & TALENTS                                10502
A0101407270162479362001ERYMAR D.C. REYES OR                                    10501
A0101401090171201345002MA. CECILIA OR RAMIL                                    10501
A1001400350233272028001MAANDIG, ERLINDA B. OR                                  10503
A0101409050352603489001REGINA TIRONA OR JULIA TIRONA                           10501
A2401400180411478374061JUNRES AGAD OR                                          10501
A0101407430503279466001CARINA S. TALEON OR                                     10501
A4101400260812320551001MAGDALENO S. SICO OR                                    10502
A0101414120000001142852MAGNO                                                   20500
A4101400260000001198610RAPISTA, PROCENT                                        20500
A0101404130000001831670JANE INVA                                               20500
A0101401250000002289989SANTOS, FRANCISCO O.                                    20500
A0101413280000002648337MARY ROSE HORTALEZA                                     20500
A0101414120000003584105MANAGEMENTS                                             20500
A0101407270162479362001AUBREY S. REYES                                         20500
A0101401090171201345002TIO CUISON                                              20500
A1001400350233272028001MAANDIG, CARLSTO                                        20500
A0101409050352603489001OR THEODORE TIRO                                        20500
A2401400180411478374061NORMELITA BLANCO                                        20500
A0101407430503279466001CESAR L. TALEON                                         20500
A4101400260812320551001MARICAR T. DELOS SANTOS                                 20500
B0901400220000000012175FLORIVEL M. DE JESUS ACCOUNTING OFFICE                   1602
B0101400440000000029321PERLA COMPANIA DE SEGUROS, INC.                          1601
B0101408660000000373211CCA ENTERTAINMENT PRODUCTIONS CORP.                      1605
B0101411110000000604891NICHE PLAY INTEGRATED MEDIA INC.                         1603
B0101411660000000751513BEAUTY-LOOM MANUFACTURING INCORPORATION                  1602
B0301400530000001409438GENSAN LCL TRADING, INC.                                 1603
B1301400500000002063941GIANT LUMBER & HARDWARE CO.                              1603
B0601400520000002085890**********                                               1601
B0601400520000002085890MEDISETH ENTERPRISE                                      1601
B0101401700041047548001PHILIPPINE PEDIATRIC DENTAL SOCIETY                      1602
B0101400150061037656001TAO SHIPPING CORP.                                       1605
B0101407270162041489001******                                                   1601
B0301400530193035726188TAGUM PIONEER FOODS CORP. - DT                           1605
B3101400740224022200003FILCON MANUFACTURING CORPORATION                         1601
B0101400570281035080001LEGEND OF ICE RECRUITMENT & SERVICES INC                 1602
B2001400290315044204001ACEBANK CREDIT, INC.                                     1601
B0101402480331224100001PREMIUM BEE FOODS CORP.                                  1603
B0101402510341026003001PHILSOFT TECHNOLOGIES GROUP, INC.                        1601
B0101408790383710805001NOVEL FINANCE COMPANY INCORPORATED                       1610
B0101405940512016604001ZORIN SYSTEMS INTERNATIONAL INC.                         1603
B0101403450521023964001**********                                               1605
B0101403450521025223001**********                                               1601
B0101407720602035792001SECTION OF CARDIOLOGY                                    1601
B1301400210682038636001FBIC INDUSTRIAL ESTATE ASSOCIATION                       1602
B0101408240711788024001RB & SONS PACIFIC TRADING CORPORATION                    1602
B0601400230891029282001L5 & SONS FINANCING CORP.                                1606
B0101410300000000026428INTERIOR ASIA CONSTRUCTION SUPPLIES &                   11602
B0101412470000000026764MA ASUNCION REYES AND JUAN ENRIQUEZ AND                 11601
B0101412180000000075392BLTN JR. RESTAURANT MANAGEMENT                          11606
B0101414120000003584350LRKD MARKETING AND TECHNOLOGY SERVICES                  11602
B0301400530193551180168LIM, MARK EDUARD G. OR                                  11605
B0101400570281024862001FILIPINO SOCIETY OF COMPOSERS, AUTHORS &                11610
B2401400180411057100001L.H.E. CONSTRUCTION & INDUSTRIAL                        11602
B0101404000551047775001BISQUERA, A DBU TOPMINDS GLOBAL                         11601
B0101404840851043500001KINGSTON TOWER DEVELOPMENT & MANAGEMENT                 11601
B0101404840851214607001KAWASAKI EMPLOYEES MULTI-PURPOSE                        11605
B0101410300000000026428SERVICES CORPORA                                        21600
B0101412470000000026764IGNACIO ENRIQUEZ                                        21600
B0101412180000000075392INCORPORATED                                            21600
B0101414120000003584350CORP.                                                   21600
B0301400530193551180168LIM, LIZA S.                                            21600
B0101400570281024862001PUBLISHERS, INC.                                        21600
B2401400180411057100001SERVICES, INC.                                          21600
B0101404000551047775001MARKETING                                               21600
B0101404840851043500001CORPORATION                                             21600
B0101404840851214607001COOPERATIVE                                             21600
