B0301400530193039717168BFSAI SECURITY TRAINING CENTER, INC                      1601
A0101405650000002325640ZIOUTOS, ALEXIOS S.                                     10502
A0101405650000002325640OR ZIOUTOS, JULIZELLE T.                                20500
B0101405650322006460001SOUTHGATE SERVICE CENTER, INC.                           1603
B0101405650322034381001FUDMAN CANTEEN                                           1605
B0101404260611005561001WILSTRONG LUMBER & HARDWARE                              1602
B0101404260000004781266RD PAWNSHOP, INCORPORATED                                1603
B0101404260000000156972PRIME POWER MANPOWER SERVICES                            1650
A0101404260611150835001HENRY OR LAI SHA CHING                                   0506
A0101404260611343821001FONTANOZ, EDGAR OR JUDITH                                0505
A4101400420814520766004SALVACION D. BITANCUR                                    0501
A4101400420000002084471ISIP, CLEOFE J.                                          0501
A0101400860011398141002**********                                               0505
A0101400860011401779001***********                                              0501
A0101400860011407777001**********                                               0503
A0101400860011469369001**********                                               0502
A0101400860011534620001**********                                               0502
A0101401250021180909001DOMINGO, LAURA S. OR                                    10505
A0101401250021180909001DOMINGO, EDWIN V.                                       20500
A0101401250021180940001DOMINGO, LAURA S. OR                                    10505
A0101401250021180940001DOMINGO, EDWIN V.                                       20500
A0101401250021183904001EDNA G. QUINSAY OR                                      10502
A0101401250021183904001ANTONIO E. QUINSAY                                      20500
A0101401250021757700001RIVERO, ELISEA OR RIVERO, MARY                          10501
A0101401250021757700001GRACE OR RIVERO, RAMON                                  20500
A0101400150061383637001DE GUZMAN, CATHERINE YANG                                0501
A0101400150061496726001CALMA, JOYSEN SOPHIA TAGUBA                              0502
A0101400150061564610050DELA ROSA, ROMEO G.                                      0502
A0101400150061632464002ANGELES, TERESITO AND LADEZA,                           10502
A0101400150061632464002AMON AND DAGDAYA                                        20500
A0101400600000000007707**********                                               0502
B0101400600071011421002******                                                   1602
B0101400600071234514001**********                                               1602
A0101410560000001944163CAINDOY, CHERRIE                                         0501
A0101410560000005836057MARIBEL L. ORTIZ                                         0502
A0101400730111478374021FLAMIANO, SHERRYL B.                                     0505
A0101400730111520766064LITA L. LARIZA                                           0501
A0101413150000002299352******                                                   0501
A0101413150000001288353******                                                   0505
A0101412630000000801621LIBREA JR., ENRICO MAURICE S.                            0501
B5001400170000000169857LINK RI LOGISTICS INC.                                   1605
A0101412920000000276493DIAZ, VIRGILIO FRANCISCO                                 0501
B0101400440000000029310PERLA COMPANIA DE SEGUROS, INC.                          1602
A0101400440000000060346JANICE C. BILBAO                                         0502
A0101400440000002035741CARMI M. MAGDARAOG                                       0501
A0101407270000006781559BARAOIDAN, CELINA ROSARIO ARAO                           0501
A0101401090171195863001DRS. ERLINDA B. REYES OR                                10510
A0101401090171195863001RENATO REYES                                            20500
A0101401090171196008001JESUS OR AMELIA POBLETE                                  0502
A0101401090171197472001HELEN HIDELITA OR                                       10502
A0101401090171197472001ROMEO JOSEPH IGNACIO                                    20500
A0101401090171197481002MA. NOEMI OR ELIEZER SALAZAR                             0502
A0101401090171225530001BEE-GIOK TAN-SALES OR                                   10502
A0101401090171225530001RENATO SALES                                            20500
A0101401090000001619030PESO, MARIA CECILIA S. OR                               10502
A0101401090000001619030AQUINO, MARIA CRISTINA S.                               20500
A0301400530000003573539PATINDOL, LOVELLA BENTINGANAN                            0503
B0301400530193035726188TAGUM PIONEER FOODS CORP. - DT                           1605
B0301400530000006477303BUENAS HOME CENTER CORP.                                 1605
A0301400530000000065832PERIAS, FE                                               0501
B0101413020000000038388ASISI SYSTEM CORP.                                       1603
A0101413600000000206697******                                                   0505
A3101400450000000163493BAUTISTA, DARREN SOTOMANGO                               0501
A3101400870000000074844ROA, ROSEMARIE JUNDOS OR ROA,                           10501
A3101400870000000074844JAMES ROQUE GARCIA                                      20500
A1001400190000003881903BOSSMANN TRADING AND                                    10502
A1001400190000003881903ENGINEERING SERV                                        20500
A1001400190000000016480ANGELITUD, LYDIA LECIAS                                  0501
A1001400480000003357500SALVACION JR., DIONISIO CAINGLE                          0502
B0101406620273017898002FIRST BALFOUR, INC.                                      1610
B0101406620000000015005CARPIO & BELLO LAW OFFICES                               1601
B0101400570281007188002KIMURA CHAVES ENTERPRISE, INC.                           1602
A0101400570281021967001CHANGING DIGITAL IMAGING                                10501
A0101400570281021967001GRAPHIC                                                 20500
A0101400570000000165746ZACHAEUS B. SERRANO                                      0501
A0101411240000002332532LAMSEN, RAMON MACASIEB                                   0501
A0501400200000005751599BALMEDIANO, MYRNA SOLIVEN OR                            10505
A0501400200000005751599BALMEDIANO, ISMAEL V.                                   20500
A1101400120000006186412PESARIO, JOSUE DBU ARGO                                 10501
A1101400120000006186412SECURITY AND INVESTIGATIO                               20500
A1101400120000005608191CELSO, GORGIE C.                                         0501
A1101400120000000652351YAO, RONALD PHILIP GO                                    0501
A0101402350000001474324MARTINEZ, KENNETH BUHAT                                  0501
B0101405650322077417001ELEGANT INFOVENTURES, INC.                               1602
A0101405650322400866001LEVISTE, PANCHO M. OR                                   10502
A0101405650322400866001LEVISTE, EDITHA                                         20500
A0101402510341278752001HIPOLITO JR., LORENZO SANTOS                             0501
A0101409050352645570003MYRNA P. CUASAY                                          0501
A0201400760374030540001ST. FRANCIS MANPOWER SERVICES                            0501
B0201400760374043666001FORMWORKS RUBIA ARCHITECTS                               1601
A0201400920375503351001**********                                               0503
A0201400890376080642001GALANG, LORLIE PACURIBOT OR                             10502
A0201400890376080642001GALANG, GLENN AN                                        20500
A0201400890376763623001**********                                               0503
A0101402930000006776141PANGILINAN, EMILIO CRUZ OR                              10501
A0101402930000006776141PANGILINAN, LIZA MARY C.                                20500
B0101402930381027154001GREENWOODS MANPOWER SERVICES                             1601
A0101402930381370682002DR. RONELON PAGKALIWAGAN OR                             10501
A0101402930381370682002DR. LUDIVINA PAGKALIWAGAN                               20500
A0101402930381388763001ULYSSES M. MEJIA                                         0501
B0101408370382047182001CRITICAL CARE NURSES ASSOCIATION OF                     11601
B0101408370382047182001THE PHILIPPINES                                         21600
A0101408370382205209002*****                                                    0501
A0101408370382206210001DR. NOEL MENOR CASTILLO                                  0503
A0101408370382318824001NODADO, IRENE PANGANIBAN                                 0501
A0101408370382449935001DR. ALBERT JEROME C. QUINTOS                            10502
A0101408370382449935001OR MA. FININA A. QUINTOS                                20500
A0101408370382486917001MA. JENY ROSE B. SOLABO                                  0501
B0101411660000000032242ALERT GENERAL SERVICES CORPORATION                       1608
A0101402770391282719001GASPAR, LIBRADA PUNONGBAYAN                              0501
A0101402770391375946001BELINDA BADOY CASTILLO                                   0501
A0101408400394478374092ROSA LAZARO                                              0502
A0101408400000006129200TANALA, MARK LEO INIGO                                   0503
A0101408950396622136001MICHELLE VERGARA DELA CRUZ, M.D                          0503
A0101408950396771951001EVANGELINE S. MAGNAYE OR                                10501
A0101408950396771951001SHIELA MARIZ S.                                         20500
B0101409210398015788001PETNET, INC.                                             1604
A0101412210000000031410***********************                                  0502
B0101412210399821100608**********                                               2003
B0101412210399821200608**********                                               2001
A0301400820000002272033ASARAK, YASIR A.                                         0501
A1201400150421039385001JL'S CLEAN UP JANITORIAL &                              10502
A1201400150421039385001MANPOWER SERVICE                                        20500
A1201400150421329088003DR. LILY MUNSAYAC-SUNGA OR DR.                          10502
A1201400150421329088003BENITO V. SUNGA                                         20500
A0101412890000001056360AMIDO, NORMA GUEVARA                                     0501
B0101412890000001765266I-SHARE CLUB, INC.                                       1601
A0101406330472027958001A. ANOLIN ENTERPRISES                                    0502
A0101406330000001235090MONTESSORI AT WORK PRE-SCHOOL                            0502
A0101406330472459699001NANCY G. HAMOR                                           0502
A0101410140475751670001MISAGAL, TRISTAN GRAGAS                                  0501
A1601400170000001360747CHAN, BERNIE SABULARSE                                   0501
B0101407430000006027750BAIO MEDICAL SOLUTION INC.                               1601
A0101403580000004091894ONGCAPIN, LUZVIMINDA SESE                                0502
B0101403580511038552001J DEL INVESTMENTS AND MANAGEMENT CORP.                   1605
A0101403580511150737002ELIZABETH C. VIRATA OR                                  10506
A0101403580511150737002LUIS JUAN L. VIRATA                                     20500
A0101403580511152575001REX REDENTOR C. BERDOS                                   0503
A0101403580511495573001VITALIANO N. NANAGAS II OR                              10502
A0101403580511495573001ROSARIO B. NANAGAS                                      20500
A0101405940512020272004EVENTS MANAGEMENT & TRAINING                            10502
A0101405940512020272004SERVICES                                                20500
A0101405940512285886001HUI HUN SO TAN                                           0502
A0101405940512597822001HERNANDEZ, ANTONIO PENGSON                               0503
B0101408110515017881001GROUP MANAGEMENT CORPORATION                             1603
B0101408110000001199282ASIA SOCIETY FOR SOCIAL IMPROVEMENT AND                 11602
B0101408110000001199282SUSTAINABLE                                             21600
B0101408530516035451001DAVE-LOUIE ENTERPRISES                                   1601
A0101408530516044264001DATA ART DESIGN & PRINT SERVICE                          0501
B0101411400000001280568HOSPITALITY REWARDS SYSTEMS INC.                         1602
B0101411790518821100608**********                                               2001
B0101403450521021453001SAN FERNANDO REGALA TRADING INC.                         1605
B0101404000000002799844CBN ASIA FAMILY OF MINISTRIES CREDIT                    11601
B0101404000000002799844COOPERATIVE                                             21600
A0101404000551229789001GUTIERREZ, ALEXANDRA KATRINA L.                          0501
A0101404000551735313001DE LUNA, PATRICK JOHN LUPISAN                            0501
A0101407720000000112170VILLENA JR., CONRADO MENDOZA                             0502
B0101407720602005985001MONTEMAR MANAGEMENT &                                   11601
B0101407720602005985001DEVELOPMENT CORP                                        21600
B0101412180000001293049AUTO MAGIC CORPORATION                                   1602
B0101412180000001293152AGORA TECHNOLOGIES, INC.                                 1603
A0101404260611150902001MARITESS OR BERNARD PAMA                                 0501
A0101409890000000437405REYES, MICHAEL CONCEPCION                                0502
A0101407690000000495512MARIA BELEN FEDERIZON OR                                10503
A0101407690000000495512JOSE RENEIRIO FEDERIZON                                 20500
A0101407690652478374034EDNA D. PENALVER - DEALERS OF                           10501
A0101407690652478374034SHOECAT, INC.                                           20500
A0101407690652478374131TARROQUIN, NORA - DEALERS OF                            10501
A0101407690652478374131SHOECAT, INC.                                           20500
A0101407690652478374179LENIE ANDO - DEALERS OF                                 10502
A0101407690652478374179SHOECAT INC                                             20500
A0101407690652525001056ENRIQUE, EMY SANTOS - DEALERS                           10502
A0101407690652525001056OF SHOECAT INC.                                         20500
A0101407690000001919899DE LEON, LIADENETH - DEALERS OF                         10501
A0101407690000001919899SHOECAT INC.                                            20500
B0101410300663044385001STAR E GAS TRADING                                       1602
A0101410300000000919422ROQUE, EUGENIE AMANDA V.                                 0502
B1301400210000005041007***                                                      1602
A1301400210682478374062MA. ERLINDA C CHUA                                       0501
A1301400340683361105001DELA CRUZ, ESTER SANTIAGO                                0501
A1301400340683552624001ENRACA, MA. THERESA GREGORIO                             0502
A1301400500000004093281PAJARILLAGA, MAGDALENA CUNANAN                           0504
A0101408240000000521720RICAFRENTE, MA. ANALYN DELFIN                            0503
A2801400100712290478004HALE, MARY SHERYLL SANTIAGO OR                          10502
A2801400100712290478004WYRSCH, WALTER J                                        20500
A4101400420814342049001MENDOZA, DIVINA LORY ANN E. OR                          10501
A4101400420814342049001MENDOZA, GILBERT                                        20500
A4101400420814520766138SAN PEDRO, ANA LIZA                                      0501
A4101400420000004847883PAKIDING, GRACELYN A.                                    0502
A4101400420814721341001CADIZ JR., TEOTIMO JACABAN                               0505
A0101406750000003393140FUENTEBELLA, JOCELYN PANGILINAN                          0501
A0101406750852084318001SIBUG, GENEATH P. OR                                    10502
A0101406750852084318001SIBUG, ERNESTO M                                        20500
B06014002300000036448207R FINANCE CORP.                                         1605
A0601400230891738531001MARK ANTHONY CHUA OR GILBERT A                          10502
A0601400230891738531001TAYAO OR ABELARDO LEYDA                                 20500
