A1301400500000000011296JUSTINIANO, ROBERTO CRUZ                                 0502
A1001400190000000016333LUCAS, MERIAM                                            0502
A2201400250000000016942AMELIA F. MANALO                                         0501
A2201400250000000017245JUROAN MARAYAG PASCO                                     0501
A1301400500000000213403CHOLLO TRANSPORT                                         0502
A0101413730000000469147PROLINE PLASTIC CO.                                      0503
A0101405650000000525751ZAFRA, APRIL ROSE PENALBA                                0501
A2401400180000000554938DOLERA, CANDELYN FILIPINAS                               0501
A0101410560000000590589MARIA MINERVA D. DE LEON                                 0501
A1901400320000000679283ANABELLA PABLO BEREDO                                    0501
A0101410690000000711033TIMBALOPEZ, MONINA DABU                                  0502
A2601400270000001009130ROY ALLAN W. MOLINA                                      0501
A2601400270000001009232ROSALIE G. JAQUIAS                                       0501
A1601400170000001068702ANA MARIE B. BARRAMEDA                                   0502
A1601400170000001068979MARIA VICTORIA T. PAULINO                                0501
A0101410140000001074793SALINAS, ROWENA VELARDE                                  0501
A0101410140000001075007JAVIER, DADIVA DE PANCHAKANTRA                           0501
A0101410140000001075018YAPCHIONGCO, OLIVER BAUTISTA                             0502
A0101403610000001174903LIZARDA, MICHELLE CASACOP                                0505
A0101405650000001377442MARY ANGELAINE J. LIBANAN                                0505
A0101403320000001647070SUAREZ, MA LIZA DAGU OB                                  0501
A0101400570000001681927ANA MARIA LORETTA S. POHANG                              0502
A1701400230000001786810NORTHPOINT COMPUTER TECHNOLOGY                           0502
A1301400500000002063792ANTONIO, ALBERT SILVA                                    0501
A1701400230000002347300AGUINALDO JR., FELIX DANCEL                              0503
A0101402510000002744790GENOSO, ISAGANI BATOTO                                   0501
A3101400870000002861538ALEMAN, EULALIA JAUM                                     0501
A0101400860011035923001**********                                               0502
A0101400150061315349187GUIA R. MEDINA                                           0501
A0101400600071351088001LIM, IT BENG NG                                          0502
A0101401960121348042001YAP, HELEN SY                                            0501
A0101401960121728854001ALLAN T. SAVELLANO                                       0502
A0101400440161027568001GARB CLOTHING COLLECTION                                 0503
A0101400440161039572094BALLADARES, GINA BOCATOT                                 0502
A0101400440161525001115EVA D. SAMILLANO                                         0501
A0101401090171195155001MA. AUXILIADORA R. REBURIANO                             0501
A0101401090171198489001ROSEMARIE D. ORDINARIO                                   0501
A0101401090171201339001GASPAR A. TOLENTINO                                      0501
A0101401090171775528001JULIETA A. PERALTA                                       0502
A3101400160221460058001HAYDEE A DIAZ                                            0501
A1001400190231478374075BARRON, LORNA                                            0502
A1001400190231478374179BACAN, JULIET                                            0501
A1001400190231520766117TAROY, MARIONNE ANGELOU SALEM                            0502
A1901400290261048932001DRA. FLORDELIZEL G VERGARA                               0501
A0101406460272785825001***********                                              0502
A0101410980275424608001LIM, CARMEN RITA GOMEZ                                   0502
A0101400570281500167001**********                                               0505
A0501400200292603466001PADLAN, GENELYN RAMEL                                    0502
A0801400160311478374070GENALYN M. BOTANERO                                      0501
A2001400290315054321001WPG PHILCAN TOURS                                        0501
A0101405650322035182001*****                                                    0501
A0101405650322507762001LERIOS, NARISSA SANTOS                                   0501
A0101408820333478374013IRENE FERRER                                             0501
A0101402640361171569003MYRNA S. VERGEL DE DIOS                                  0502
A0201400920375478374016CERBO, SHAMIR LOU CAGAIS                                 0501
A0101408370382398259001DR. MARIA LIZA ASUNCION M. CRUZ                          0503
A2401400180411537301001**********************                                   0502
A2401400180411577135001***************                                          0502
A2401400180411621739001JACOB, NOEL RULLON                                       0501
A2401400180411623548001ASIS, CITA DELIA CABADING                                0504
A0501400170481367892001XXXX                                                     0510
A1901400160491247764001MARITES E RAMIREZ                                        0501
A1901400160491659463001GLORIA JARO PENA                                         0502
A0101403580511327851001MARIETA G. DEL ROSARIO                                   0501
A0101408110515349308002CORAZON G. CAMANAG                                       0504
A0101408530516433800001***************                                          0502
A0101403610531569077001AMANTE, CATALINA SARANGAYA                               0503
A0101404000551553257001MARIA JANELLE J. CUSTODIO                                0502
A0101404130601451302001ROMMEL A. IBUNA                                          0505
A0101407720602161917001GOYLOS, LORENA CALVO                                     0501
A0101404260611151278002OFELIA F. RAMOS                                          0501
A0101404260611335308002ALIMBOYONG, JOSEPHINE MAHINAY                            0503
A0101404260611559253001TAN, SABINA LASALA                                       0504
A0101409890649721710001MAPILI, ERICK RYAN RIVERA                                0501
A1301400340683373499001DELOS REYES, MARILYN FRANCISCO                           0505
A1301400340683484518001DELOS REYES, ANDRES JOSE                                 0505
A1301400340683521030002PILA JR., MARIANO CLIMACO                                0502
A1301400340683533736001BULAO JR., CHARLES GO                                    0501
A1301400500684772140001ISABEL S. AZURIN                                         0501
A0101407560686359592001MA. MAY JASMIN R. YASON                                  0501
A0101407560686744382001***********                                              0502
A1701400230693478374044CECILIA CORRALES                                         0501
A0101408240711699904001LO JR., ROGELIO AMBE                                     0501
A2801400100712373301001BAUN, CIPRIANO LAXAMANA                                  0501
A4101400420814520766108ESPANOLA, MERELY C.                                      0502
A0101404840851516732001CARPIO, ANA MARIA RUALO                                  0501
A0101404840851520766195JEANNIE RACUYA                                           0502
A0101406750852081045001RAGAT, GERALDINE DELA CRUZ                               0502
A3101400160000000006566RENATO B GALICIA DBU MANHATTAN                          10502
A0101405650000000013214LOPEZ, MARIA AGATHA C. OR                               10501
A0101406750000000173033TORRES, NOEL DBU FRANZBUILT                             10501
A1301400500000000213083JUANITO F. GREGORIO OR AURELIA                          10501
A0101404130000000321406SUPANGAN, ARTURO C OR SUPANGAN,                         10501
A2601400270000000561733ARCEL A. CAPUCHINO OR                                   10502
A0101412050000000697190RIVERA, TEODO DBU BLAZE EFX                             10501
A4101400420000000710483ESPANOLA, MA. ANGILY CASANDRA                           10502
A0101400730000000833465DANILO L. CATAM OR                                      10501
A0101411370000000903571URBAN FONTS ADVERTISING                                 10503
A0601400230000001062399RODA, ZENAIDA GARCIA or                                 10502
A0101406750000001491841PULIDO, MARIA LUISA T. OR                               10501
A0101401090000001618800ESCOBAR, MARIA LOURDES OR                               10501
A1901400290000001926332ARMANDO G MORALES                                       10502
A0101400150061226944001SALVADOR P. CASTRO JR. OR                               10502
A0601400100081041818001MALIG, RONALDO PANGILINAN  DBU                          10501
A0101401960121687403001SANTILLAN, SEVILLA OR                                   10501
A0101401090171203461002LEAH SOCORRO N. RIVERA OR                               10503
A1001400190231274272001SUSAN L. LO OR JAN MICHAEL L.                           10501
A1901400290261627853001PRIMITIVO PEDREGOSA MITAL                               10502
A5501400120410275634002BAUTISTA, RYAN REYES OR PIODOS                          10503
A1201400150421485874001FLORES, CHIARA MAE FAROL OR                             10501
A0101404130601310589001ANCKERMANN, CARLOS OR                                   10502
A4101400420814436355001BAUTISTA, LOIDA U. OR                                   10502
A4101400420814480121001FABREAG, DELIA FLORES OR                                10502
A3101400160000000006566METAL TRADING                                           20500
A0101405650000000013214LOPEZ, RODEL D.                                         20500
A0101406750000000173033CONSTRUCTION                                            20500
A1301400500000000213083S. GREGORIO                                             20500
A0101404130000000321406LAURA T                                                 20500
A2601400270000000561733MA BIATA A. CAPUCHINO                                   20500
A0101412050000000697190EVENTS PRODUCTIO                                        20500
A4101400420000000710483CARBA                                                   20500
A0101400730000000833465LORD KRISTINE V.                                        20500
A0101411370000000903571SERVICES                                                20500
A0601400230000001062399MANIO, CRISTINA                                         20500
A0101406750000001491841PULIDO, ROMEO J.                                        20500
A0101401090000001618800PROCESO OR LEONILA                                      20500
A1901400290000001926332DBU AGM CONSTRUCTION                                    20500
A0101400150061226944001NORA D. CASTRO                                          20500
A0601400100081041818001EAGLENEST RENT A                                        20500
A0101401960121687403001RANCES, JUANITA                                         20500
A0101401090171203461002ESTELA RIVERA                                           20500
A1001400190231274272001LO                                                      20500
A1901400290261627853001OR PRIMO OCAVA MITAL                                    20500
A5501400120410275634002EMARIE LEE                                              20500
A1201400150421485874001FLORES, GLENLIEL                                        20500
A0101404130601310589001CARMEN ANCKERMAN                                        20500
A4101400420814436355001BAUTISTA, EPITAC                                        20500
A4101400420814480121001FABREAG, BOBBY F                                        20500
B0101408240000000005552PACIFIC AOE LOGISTICS INC.                               1602
B0101412500000000041692MOLDEX PRODUCTS, INC                                     1601
B0201401020000000470251SHANGS DEVT. CORP.                                       1601
B0101401700041036990002AGILE DISSOLUZIONE VENTURES CORP.                        1601
B0101400150061000544001CITIBANK - N.A.                                          1602
B0101400150061011178002SOLID MILLS, INC.                                        1603
B0101400150061016435001DEVELOPER SYSTEMS CORPORATION                            1601
B0101400150061028210001GOLDEN DRAGON MOTOR SALES CORP.                          1606
B0101400440161032916001S.D. CUBILLAN CONSTRUCTION                               1601
B0101407140213035784001CHEMISOL INC.                                            1602
B0101407140213047947001*****************                                        1603
B3101400870225054035001WAKABA PHILIPPINES, INC                                  1601
B0101401670271041152001PHILADELPHIA BUSINESS INITIATIVES INC.                   1605
B0101408660274038999001FRASOR GLASS AND ALUMINUM INC.                           1601
B0101402060351017870003HANIN CORPORATION                                        1605
B0101409050352040597001TOEI ANIMATION PHILS., INC.                              1610
B0201400760374033207001W.T. CONSTRUCTION, INC.                                  1605
B0201400920375034855001SHELLS TREASURES INTERNATIONAL CORP                      1603
B5501400120410043108008ST. PAUL'S PHARMACY                                      1605
B0101403030441031092001**********                                               1602
B0101403450521022302001**********                                               1602
B0101403450521038001001********                                                 1601
B0101403610531009928002LAMP METALS INDUSTRIES                                   1602
B0101403610531035875001G'TECHNOLOGIES INTL. INC.                                1605
B0101403610531041038001ANM CHEMICAL RESOURCES INC.                              1605
B0101404000551026854001MACKIM PRINTS, INC.                                      1602
B0101404130601022494001CARE BEST INTERNATIONAL, INC.                            1604
B0101404130601031478001ERGOTRONICS AUTOMATION ENTERPRISE CORP                   1601
B0101404130601100072001GERVEL, INC.                                             1601
B0101404260611018794002HAVEN MONTESSORI, INC.                                   1601
B0101408240711721986001ST. JAMES COPA FOUNDATION, INC.                          1602
B0101408950000000036848ST. LUKE'S MEDICAL CENTER (GLOBAL CITY)                 11603
B3801400170000002691110JOSEPH M BOONGALING AND BEN M CHUA OR                   11601
B0801400160311040442001ILOILO ASIAN LUMBER & HARDWARE,                         11601
B0101405650322025100001GLOBAL PACKAGING SYSTEMS AND MATERIALS                  11601
B0101407720602005906001ASSOCIATED MEDICAL & CLINICAL                           11610
B0101408950000000036848EMPLOYEES ASSOC                                         21600
B3801400170000002691110DANILO A ACEVEDA                                        21600
B0801400160311040442001INC.                                                    21600
B0101405650322025100001CORP.                                                   21600
B0101407720602005906001SERVICES, INC.                                          21600
B0701400130493821100608**********                                               2005
