B0101401090171821100608**********                                               2004
B0601400520000000398647TELESIGHT COMPUTER AND SURVEILLANCE                     11601
B0601400520000000398647SYSTEM                                                  21600
A0101402930000003710610PAJARILLO, RIZALYN D. OR                                10502
A0101402930000003710610PAJARILLO, DAVID S.                                     20500
A0101411790000011940691CABACUNGAN, MA. KRISTAL TENGZON                          0501
A0101411790518055764290TEMPLANZA, ZHARLYN VERDERA                               0501
A0301400950000010424870MILLANO, CARL MURILLO                                    0503
A6601400120000005710418MENDADOR, ALMANZOR CHAN OR                              10501
A6601400120000005710418DE ASIS, DAHLIA TAGABAN                                 20500
A6601400120314593270001DIAZ, REO DBU RUDMAR TRADING JT                          0505
A6601400120314618149001DY, FRANCO NEIL TUBELLO                                  0505
B0101400860011374740004**********                                               1605
A0101400860011559271001**********                                               0505
A0101401250000008233276MASIGLA, MA. SOCORRO BUSTAMANTE                          0502
A0101401250021527654002MERCEDITA M. DUNGO                                       0501
A0101400150000003141340MADRIDEJOS, ESTELA CABRAL                                0501
A0101400150061315349028BENETTE DELA CRUZ                                        0501
A0101400150061369552001ROMEO TONGOL OR                                         10505
A0101400150061369552001FLORDELIZA TONGO                                        20500
A0101400150000002902412NAVATO, MAEBELLE P.                                      0501
A0101400150061493053001DEMPSEY, RAY ARTHUR ENCARNACION                          0505
B0101400150061534780001STRAITS WINE COMPANY WHOLESALERS, INC.                   1602
B0101400150061617940001BIOMASS RENEWABLE ENERGY ALLIANCE INC                    1601
B0101400600071233745001**********                                               1602
A0101400600071426579001**************                                           0501
B0101405810072296440002SHI XING QI                                              1603
B0601400100000005690593BALIGRILL FOOD CORPORATION                               1605
A0601400520000001706941DE GUZMAN, JESSPER MANALOTO OR                          10502
A0601400520000001706941DE GUZMAN, CHARINA MUNOZ                                20500
A0601400520000002270920PUNZALAN, JOSELITO M. OR                                10502
A0601400520000002270920BOGNOT, LOURDES G.                                      20500
A0101414090000003314923DE CASTRO, ENRICO LLOREN OR                             10503
A0101414090000003314923DE CASTRO, RIZEL ORIT                                   20500
B0101400730111063473273CALAGOS, DOLORES PAMPANGA OR ALFONSO,                   11601
B0101400730111063473273RONALD CIELOS                                           21600
A0101400730111386485079GLYN G. HORTALEZA                                        0502
A0101412630000007158172STA. CRUZ, CONCEPCION LAZARO                             0501
A0101413310000000863941SUMALINOG, KATHERINE MANZANO                             0501
A0101413310000011336320FRADES, MALEEN SHEILA P. OR                             10501
A0101413310000011336320FRADES, JEFFERSON MARTIN                                20500
B0101401830141032221001CARITAS ET LABORA HUMAN RESOURCE SERVICE                11610
B0101401830141032221001COOP.                                                   21600
A0101401830000005690800MAGTALAS, GEMMA B. OR                                   10508
A0101401830000005690800MAGTALAS, JOHN GEMMO                                    20500
B5001400170000000169733BRILLANTES, RUTH MARAON                                  1605
A0101401090171640963001JOSEPH OR MARITES CRISTOBAL                              0501
A0301400530193583614088VILLANUEVA, MELISSA MAY OR                              10502
A0301400530193583614088VILLANUEVA, PHIL                                        20500
A0301400530000007345475VILLANUEVA, PHILIP OR VILLANUEV                         10502
A0301400530000007345475A, MELISSA                                              20500
A0301400530193729179088VILLANUEVA, PHILIP OR                                   10502
A0301400530193729179088VILLANUEVA, MELI                                        20500
B0101410720210045834001GGC NORTH - WELFARE                                      1601
A0101410720000000211930NAPOCOR VILLAGE MULTI-PURPOSE                           10501
A0101410720000000211930COOPERATIVE                                             20500
A0101410720653286682002MACAISA, MICHELLE ABADA                                  0502
A0101412500000011725170HEREDIA, MARIA CECILIA PORAL                             0501
A0101412500214069342001UY, MARK HOMER SEE DBU VMU                              10501
A0101412500214069342001CONSTRUCTION                                            20500
A3101400740000006349482RONGAVILLA, ALVIN CRIS                                   0501
A3101400870000008979760YASUDA, CHARIZA DE VERA                                  0501
B3001400130000008264911UNIBAKERS CORPORATION                                    1602
A1001400480000000133280SABAL, MICHAEL CASINO                                    0501
A1901400290000002926685MARIA DIVINA AMADOR DUQUE                                0501
A1901400290261244409001ESPERANZA PAZ M LEYEZA OR                               10502
A1901400290261244409001JUAN GUALBERTO M LEYEZA                                 20500
A1901400290261488341038DR ALICE L LACORTE                                       0502
A0101406460272517619001SAMILEY, CAROLINA OLIVEROS                               0501
B0101406620000009695323FIRST COUNTERTRADE INC.                                  1601
A0101410980000002303800SY, BRYLLE JANSTED YUCHONGTIAN                           0501
A0101411240283772298001CO, CATHERINE SIY OR                                    10501
A0101411240283772298001CO, ANITA SIY                                           20500
B0801400160311265752001DIVINAGRACIA, LLANE GRACE                                1602
A6601400120000001065309SOSA, NESTOR OR TERESITA                                 0501
A2001400290000002319462ARCO, MARIA ISABEL MOMONGAN                              0502
A0101402350000000145640PATRICK E. YAP                                           0501
A0101402350321584873001*******                                                  0501
A0101405650000010318931REMULLA, DANIEL JOHN PEN                                 0501
A0101405650322210293002VILLANUEVA, TERESITA ESPINOSA                            0501
A0101405650322531153001VILORIA, MARITES QUINTOS                                 0501
A0201400760000008869765*********                                                0502
A0201400760374705541001FELICEN, CARLITO                                         0501
B0201401020000005109911PHL ECOGREEN FARMS CORP.                                 1603
A0101402930381205378001LINCOLN CHEN OR JULIA CHEN                               0502
A0101408370000006446364BALUYUT, GABRIEL TEODORO CASTEL                          0501
A0101408370382795237001DR. LUIGI PIERRE S. SEGUNDO                              0501
A0101408790000004983622RODERICK E. RIVAS                                        0501
B0101408790383040734002RADIOWEALTH FINANCE COMPANY, INC.                        1605
A0101402770000009247150*********                                                0501
A0101405490392089764001ESTEE C. DIMASUPIL AND JOEY M.                          10501
A0101405490392089764001DIMASUPIL                                               20500
A0101409180000003780363TECSON, ANGELICA CALDERON                                0501
B0101409180000000036644THE TABLE GROUP, INC.                                    1610
A0101409210000005252244DELA ROSA, CHARISSE CRUZ                                 0501
A0301400820000001185780RUFEROS, ROY KENNETH OR                                 10501
A0301400820000001185780AREVALO, MICHELL                                        20500
A0301400820000004745962NAKILA, ARMAGIDON M.                                    10501
A0301400820000004745962DBU ALDON PJ MAR                                        20500
A2401400180000007031927MADERA, LILY KING                                        0501
A2401400180000010066354***************                                          0502
B2401400180411046647001YAP MABUHAY ENTERPRISES, INCORPORATED                    1605
A2401400180411672340001TEOFILO, ROLLY ALIB                                      0501
A1201400150421478374014PERIDO, MARY JANE                                        0503
A0901400220000006214455**********                                               0501
B0901400220000006214331SOUTH SEA ENTERPRISES                                    1602
A0101403030441239873002**********                                               0502
B0101403030441707375001**********                                               1602
A0101403030000002292873ONG, JONEL CHENG                                         0501
A0101412890000002747904SARMIENTO, CHARLIE CORREA OR                            10501
A0101412890000002747904SARMIENTO, MYLENE M.                                    20500
A0101403320000011982622SHAINE C. JIMENEZ                                        0501
A0101406330000009181437PASCUA, CRYSTEL ANN C. OR                               10501
A0101406330000009181437SADORRA, JONATHAN D.                                    20500
A0101406330472436213002SUSAN CAGUINGUIN OR DIOMEDES                            10504
A0101406330472436213002CAGUINGUIN                                              20500
A0101406330472460738003MA. SUSAN P. MORA                                        0501
B1901400320489062995002CLEVERGOLD CREDIT CORPORATION                            1610
A3801400170000005287976LUNA, LINAFE GEMPES OR                                  10501
A3801400170000005287976LUNA JR., MANUEL                                        20500
A3801400170490068759001GRACE POWER BUSINESS SOLUTION                           10501
A3801400170490068759001CENTER                                                  20500
A1901400160491024494002MONTENEGRO TRAVEL AND TOURS                              0503
B1901400160491042042002MARINA FERRIES, INC.                                     1601
B1401400110492010096001THE HOUSE OF HALINA INC.                                 1603
A0101407430000011167683ASUGAS, LICEL MANUEL                                     0501
B0101407430503034519001D.G.X. PHILS., INC.                                      1603
A0101403580511153103001CRISTINA M. CARBON                                       0501
B0101405940512005319001MANTRADE DEVELOPMENT CORP.                               1603
A0101405940512357111001LEONITA M. LABAYO                                        0502
A0101408530516629159001VILLANUEVA, JOSE DIAZ OR                                10502
A0101408530516629159001MA. LETICIA V. R                                        20500
A0101411790518055815084PIAMONTE, MA. LAILANE LESLY                             10501
A0101411790518055815084ALVARADO                                                20500
A0101411790518086259001BANDAY, CELESTE EDULLANTES                               0502
B0101403450521011643001**********                                               1602
B0101403450000002975688**********                                               1610
A0101403610000002347151**********                                               0501
B0101403610531044231001BLOOMING STAR                                            1605
A0101403610531219488001REFORMA, MARILOU                                         0502
A2201400250561256285001JESUS C. CHUA                                           10501
A2201400250561256285001OR JOSEFINA G. CHUA                                     20500
A0101407720000004664028BALCE, RIZALDY EBE                                       0501
A0101404260611150835001HENRY OR LAI SHA CHING                                   0505
A0101404260611478374017BERTULANO, LUZVIMINDA                                    0502
A0101407690000000495512MARIA BELEN FEDERIZON OR                                10502
A0101407690000000495512JOSE RENEIRIO FEDERIZON                                 20500
A0101407690652358934001ERNESTO V. SURATOS OR                                   10502
A0101407690652358934001SHIRLEY A. SURATOS                                      20500
A0101413990000001947151AQUINO, ALMA MILAGROS V. DBU                            10502
A0101413990000001947151AQUIVEL PETRON                                          20500
B0101414120000000399184CANTILEVER CONSTRUCTION CORPORATION                      1602
B0101414120000003584270WELL-BUILT SPECIALTY CONTRACTORS, INC.                   1610
B0101414120000001984336LRKD MARKETING AND TECHNOLOGY SERVICES                  11603
B0101414120000001984336CORP.                                                   21600
B0101414120000003584350LRKD MARKETING AND TECHNOLOGY SERVICES                  11603
B0101414120000003584350CORP.                                                   21600
A0101406590000000131579JEREZ, JOANNE ROXANE DBU                                10503
A0101406590000000131579ROXIEMAR CONSTRUCTION                                   20500
A0101406590662297269001MARTINEZ, ARMAN M. OR MARTINEZ,                         10501
A0101406590662297269001MARIA THERESE G.                                        20500
A0101410300000004361591BLANCO, JAMES BLAS                                       0501
A1301400210000002285087AGUILUZ, AMARIE CRISTIE DELOS S                          0502
B1301400210000005040960ARMS-ABUNDANCE HOMES REALTY SALES,                       1601
A1301400210682568092001BAUTISTA, LUZVIMINDA CASTELO                             0502
B1301400340000005264831NET20 CREDIT & ENTERPRISE DEVELOPMENT                   11601
B1301400340000005264831SERVICES                                                21600
A0101408240000010148011YNION, ROMMEL SALVA                                      0503
A0101408240000011487206TUMABIAO, MICHAEL CAMASIS                                0501
A0101408240000001038613TAGAYUN, CRIS BAUTISTA OR                               10501
A0101408240000001038613TAGAYUN, HERMINIA                                       20500
A0101408240000001038602TAGAYUN, HERMINIA HERNANDEZ                              0501
A0101408240711557097001BANTOC, HERMIS SAGUNI                                    0502
A2801400100000007822935FOO, JEROME B. OR FOO, ANA T.                           10520
A2801400100000007822935OR FOO, JUSTIN B                                        20500
A4101400260000000377515SALAZAR, WERNER VILLANUEVA                               0501
A4101400260000009533677DOMILE, DAISY ARTISTA                                    0501
A4101400260812699781001ESPANTO, RHIA VERGARA                                    0501
A4101400390000006302483BAGUINDA, FARIDAH MUSTAPHA DBU                          10502
A4101400390000006302483FARD'S FASHION S                                        20500
A4101400420000006643467CACA, MARIETA C                                          0501
A4101400550000000081650**********                                               0502
A0101412340000010659891CARANDANG, KENNETH                                       0505
A0101404840851040206001RZB PROPERTY MANAGEMENT                                  0501
A0101404840851478374115ERLINDA O. PRADO                                         0501
A0101404840851520766097CURAY, TEODORA                                           0502
B0101404840851671030001QUANTUMMEDIA MARKETING INC                               1602
A0101405070861046186001LUXURY VACATION HOLIDAYS & TOUR                          0501
B0101405070000006006053RGB LTD PHILIPPINE BRANCH                                1604
A0101413860000001886833**********                                               0501
