B0101400600071282495001********                                                 1603
A0101401090171493594001CELINA S. TADY                                           0501
B010141360000000844249921ST CENTURY MANPOWER                                   11605
B0101413600000008442499RESOURCES, INC.                                         21600
A0101403320000015944957ADRIANO, MICHELLE TAVERNA                                0501
B0101400860011490631002**********                                               1602
A0101400860011552265001**********                                               0501
A0101401250000000460586AZUCENA, MARIA PAMELA ENRIQUEZ                           0501
A0101400150000009400060CRUZ, MAY FRANCES ESTAVILLO                              0501
A0101400150000011138348FRANCO, RICHARD VON MORENO                               0503
A0101400150000016511261MURAKAMI, HERMINIGILDO JR                               10501
A0101400150000016511261GUMBAN                                                  20500
B0101400150061015091001DUMAGUETE COCONUT MILLS, INC.                            1605
B0101400150061039786001SAMAR NICKEL MINING RESOURCES CORP.                      1601
A0101400150061315349111BRENDA A. HERNANDEZ                                      0501
A0101400150000000253052CARINGIAN, ELENA SAMPANG                                 0501
A0601400100000007253912PARALUMAN ENTERPRISE INC.                                0510
A0601400520000001706792BUNGQUE, ALDRIN CAPILI                                   0502
A0601400520000011139307MAGNAYE-DE VERA, LOUISA TERESSA                         10501
A0601400520000011139307GONZALES                                                20500
B0601400520000002085890MEDISETH ENTERPRISE                                      1601
A0101400730111386485175IVANHOE O. MARASIGAN                                     0502
A0101406040000007842659UY, RAYMOND VY                                           0502
A0101401960121238763003**********                                               0501
A0101401960121238763004**********                                               0501
A0101413150000001288331MANALAYSAY II, FRANCISO DBU                             10501
A0101413150000001288331RIQUEZA EVENTS                                          20500
B0101412920160049575002DIGITAL CCTV & ELECTRONICS CORPORATION                   1601
B0101412920160065603001CELEBRITY CONSTRUCTION INC.                              1603
A0101400440000009591831MARTINEZ JR., MANUEL VILLENA                             0501
A0101400440161027962002CASAYRA CORPORATION                                      0501
A0101407270162033562001BIG DAWG HOSTING INTERNET CAFE                           0501
A0101407270162333154028MYRNA G. REYES                                           0501
A0101407270162402587002MA. LOURDES L. SEVILLA                                   0503
A0101401090000011984646MARABI, MONALYN                                          0501
A0101401090171312734001DE LARA, AILEEN CYNTHIA F.                               0501
A0101401090171327925001REMEDIOS C. ONG                                          0503
A0301400530000016133543DELUMBAR, ROSALIE FALCATAN                               0501
A0301400660000013311487NATAD, MARK ANTHONY CUA                                  0501
B0301400660000012086743ASIA PACIFIC EXPRESS CORPORATION                         1601
A0301400950000002115242**********                                               0501
B0301400950000011415186SYSTEMSANDSHELVES INC.                                   1602
A0101401380000000682622********                                                 0501
A0101413600000013508500MANOLO MITCHELL M. DY                                    0501
B3101400160000010010763MOTORCENTRAL NCR CORPORATION                             1605
B3101400160000016819666PANGKABUHAYAN REGION 4A AND 4B CREDIT                   11601
B3101400160000016819666COOPERATIVE                                             21600
B3101400160221028210002GOLDEN DRAGON MOTOR SALES CORP.                          1601
B3101400160221061207001BIKEWORLD CREDIT CORPORATION                             1602
B3101400160221061214001BIKEWORLD INC                                            1602
A3101400160221221196002LEONILO ERCIA                                            0510
A3101400160221478374002MA. LOURDES T. ELIZON                                    0505
A3101400450000005355471CIGARAL, PEDRITO OR KLARISSE                            10505
A3101400450000005355471OR KIM PATRICIA                                         20500
A1001400190000001057578LUCIANA B. MAGSAYO                                       0501
A1901400290000011794582ARGONZA, MARIELLE JOY TAMAYO                             0501
B0101406460000011598533********************************                         1603
B0101406620000009695221APPETITE LABS MARKETIBG GROUP INC.                       1603
A0101400570000011680830**********                                               0502
A0101400570281022080002COSMOPOLITAN AD                                          0505
A0101400570281494522001SISON, RICARDO JOAQUIN V.                                0501
A0101411240000002332452BAUTISTA, ANNA NICOLE POVADORA                           0502
B1101400120313036439002ACME BUILDERS CORPORATION                                1605
A1101400120000006186478BOLECHE, MERLINE BANDALA                                 0502
A2001400290000002319564RAMAS UYPITCHING, IRWIN NOEL                             0501
A0101402350000005645172GARCIA, ELFLEDA MENDOZA                                  0501
B0101405650322036428001PINK CHEEKS AND CATERPILLAR COMPANY                      1601
A0101405650322172897001ORTILLO, JOEL OR                                        10503
A0101405650322172897001ORTILLO, JASMIN                                         20500
B0101402060351017870003HANIN CORPORATION                                        1605
B0101402060351022399001GOLDEN POT N' PAN FOOD SERVICES                         11601
B0101402060351022399001COMPANY                                                 21600
A0101402060351319677002HAK JIN KIM                                              0502
A0101409050000015274161SHIRLEY G. ONG                                           0501
B0201400760374030466002A.D. GOTHONG MANUFACTURING CORP.                         1603
A0201400760374033157001WISE OWL GENERAL MERCHANDISE                             0501
A0201400760374047906001SAPAYAN LIM ALVAREZ & LIGUTAN                           10502
A0201400760374047906001LAW OFFICES                                             20500
B0201400920000000007832JTL CABINET CONCEPTS                                     1605
B0201400890000001529642***************                                          1601
A0201400890000014168777KEBERS, LEOHRINE JOY CASIMIRO                            0501
B0201400890000007877250EASTERN PACIFIC SHIPPING CORPORATION                     1602
A0201400890376522560001SU, SEYMOUR UY                                           0501
A0201401020000012951474GUJAR, NOEL LOPERA                                       0501
A0101402930000015821691SALANDANAN, RUEL RIO AVELINO                             0501
A0101402930000000859598ZABALA, IMEE DE LIMA                                     0501
B0101402930381041771001AII SYSTEMS, INC.                                        1602
A0101408790000004697054PINEDA, DANILO GINGCO                                    0501
A0101408790000001486262SICAM, MICHELLE ANGELA TORRALBA                          0502
A0101411660000016368639ALDAMIA, ALDRIN ABIERA                                   0501
A0101415350000005085041MARCELO, JOSEPH ESGUERRA                                 0501
A0101408400000016817482CASERO, JOY CATHERINE BAJARO                             0501
A0101408950396431312001TANSENGCO, MARIA LORA GARCIA                             0501
A0101408950396576467001DR. JOANNA TERESA MARGARITA                             10501
A0101408950396576467001L. MANALO                                               20500
A0301400820000008995602TIRADO, RUEL DBU WMT MANGO                              10501
A0301400820000008995602TRADING                                                 20500
A5501400120410636391008CHIU, JULIA EILEEN R.                                    0502
B2401400180411044855001GOLDEN ATLANTIC MERCHANDISING                            1605
A5101400100000010370953DABLIO, RAIA ELLORIN DBU RED-I                           0503
B0101403320471019960002DIRECT ELECTRIX EQUIPMENT                               11605
B0101403320471019960002CORPORATION                                             21600
B0501400170481020083003COLEGIO DE DAGUPAN, INC.                                 1610
B0501400170481025398002COSTSAVER'S SUPERMARKET, INC.                            1602
A0501400170481043466001RUSKIN MARKETING                                         0505
A1901400160000016193130ARELLANO, VICTOR ADAME                                   0501
A1901400160491244484001IRENE H BERBA OR                                        10510
A1901400160491244484001CARLOS R BERBA                                          20500
A1901400160491247764001MARITES E RAMIREZ                                        0501
A1901400160491343996001MARIA DOROTHY M HERNANDEZ                                0502
B1601400170494061553001BOOMSOURCING INC.                                        1610
A0101407430000001028897JOVITO G. FERNANDEZ                                      0501
A0101407430503338970001LEOPOLDO M. LACBO                                        0502
A0101407430503370564001DAVILENE OR QUINTIN BARELLANO                           10501
A0101407430503370564001OR MA. SOTERA HERNANDEZ                                 20500
A0101403580000007265296CASTRO, FERNANDO CASTRO                                  0502
B0101403580511024541001TRADEXCHANGE, INC.                                       1602
B0101405940512025099002COMTHEX, INC.                                            1602
B0101405940512025099002COMTHEX, INC.                                            1602
A0101403610000016708117GERONIMO, JUSELINE CABANATAN                             0501
A0101403610000016813571SOLOMON, MELISSA RENELLE ENTENA                          0501
A0101403610000016813720RAMIREZ, RICHELLE ANNE MAE                              10501
A0101403610000016813720MAGTANONG                                               20500
A0101403610531036734001PASTRANA, MARIA DBU JRAE                                10502
A0101403610531036734001DRUGSTORE                                               20500
B2201400250561041156008COLINTAN CORPORATION                                     1601
A2201400250561258530025CATHERINA T. DOMINGO                                    10501
A2201400250561258530025EMPLOYEES OF IEW                                        20500
B0101404130601024735001BAUHINIA 10 REALTY CORPORATION                           1601
B0101404130601031677003CARRIEDO TOURIST DEVELOPMENT INC.                        1605
B0101404130601031677004CARRIEDO TOURIST DEVELOPMENT INC.                        1605
B0101404130601039722001HILAGANG EDSA TOURIST INC.                               1603
B0101404130601039722002HILAGANG EDSA TOURIST INC.                               1605
B0101404130601100148003UNIESSENCE CHEMICALS PHILIPPINES INC                     1605
A0101404130601451188001**********                                               0502
A0101407720602287906001FLORENCIO GERARDO                                       10502
A0101407720602287906001CAEDO JR. M.D.                                          20500
A0101407720602341807001DR. JOSE DANTE P. DATOR                                  0502
A0101407720602396498002CAPISTRANO, MA. EVELYN TORRES                            0501
A0101407720602397975001MARIA THERESA R. DE LEON M.D.                            0504
A0101404260000000550092TIU, CH DBU ACN MONEY TRANSFER                           0502
A0101404260000013860243PAGLINAWAN, RONELYN ALADANO                              0501
A0101404260000016809451SANTOS, RONALDO VERTUCIO                                 0501
B0101404260000000156972PRIME POWER MANPOWER SERVICES                            1650
B0101404260000000156972PRIME POWER MANPOWER SERVICES                            1650
A0101404260611037351001SMD JANITORIAL SERVICES                                  0501
A0101404260611478374104JUDITH R LUMBO                                           0501
A0101404260000003498408AREVALO, MA. JORLYN                                      0501
A0101404260611788828001LUSTERIO, JOEL BONGOSIA                                  0502
A0101411530000011326075**********                                               0502
A0101411530000014898341**********                                               0504
A0101413990000016811951VERDILLO, MARIA THERESA VERDILL                          0501
A0101413990657056598002**                                                       0503
A1301400210000009982198PAULINO, ALEXANDER SARMIENTO                             0501
A1301400210000013218963FRIAS, RAYMOND TAN                                       0502
B1301400340683025550001HONDA MINERVA INC.                                       1601
A1301400500000012953761YAP, SUSIE JIMENEZ                                       0502
A1301400500000016814432MARIE CRIS H. ABRAHAM                                    0501
A0101408240711609524002REYES, MARIA ELMA MONTELOYOLA                            0501
A2801400100000015478198GONZALES, ERWIN LAZALITA                                 0502
A2801400100000015478201GRATE, DONNEY RAY VILLAGRACIA                            0502
B2801400100712046914001IREC CORPORATION                                         1602
A2801400100712295699001HERMINIA L. DEL AGUA                                     0501
B2801400230000000372770DBA GLOBAL SHARED SERVICES INC.                          1605
A2801400230000005253281EMETERIO, EVELYN PANCHO                                  0501
A4101400260000001673412NARCISO, CHARLENE FABELLA                                0502
A4101400260812444997002MARY ANN SAN DIEGO OR                                   10503
A4101400260812444997002ANTONIO SAN DIEG                                        20500
A4101400260812469791001CAROL E. COMIA                                           0502
A4101400260812752512001HIPONIA, CATALINA PEDIDA AND                            10502
A4101400260812752512001JUAN, EMMANUEL B                                        20500
B4101400420000016771752TELDATA NETWORK & TECHNICAL SERVICES                    11601
B4101400420000016771752CORP.                                                   21600
A4101400420000004848051ROSALES, NOEMI A                                         0501
A0101412340000003340401ABUYUAN, GLENN REYES                                     0501
A0101412340000003348758SANTOS II, ED THERESE                                    0501
A0101412340000009501508MORON, ORLYN COLINARES                                   0501
A0101404840851046725013MARY JANE A. DE GUIA                                     0501
B0601400230891021614001QUIOC (D) QUIOC & ASSOCIATE                              1601
B0601400230000003644853ALL 'BOUT PEOPLE SERVICES & TRADING                      1603
