A1101400120000006186741LATORRE, NOEL TAN DBU MEAT D                            10502
A1101400120000006186741SHRIMP RESTAURANT                                       20500
A1101400120000006186770LATORRE, NOEL TAN DBU SKYE                              10502
A1101400120000006186770COFFEE AND WINE BAR                                     20500
B1101400120000000652442GICABAO, KATHLEEN JOY NG OR GICABAO,                    11603
B1101400120000000652442GICABAO, BONGKOK                                        21600
A1101400120000006186729CHUA, ROMEO ALCONABA DBU                                10501
A1101400120000006186729ERR BUILDERS                                            20500
A0101408950000010888807JAMES MICHAEL C. LAYON                                   0501
A1101400120000006081103BACSAL, EMMYLEEN BATAWAN OR                             10503
A1101400120000006081103BACSAL, DAVID DACUNOS                                   20500
A1101400120313478374077ROMO, ALILY PECASO                                       0502
A0101408370382341971001DR. ARNOLD OZAETA OR                                    10502
A0101408370382341971001MA. RAMONA OZAETA                                       20500
A0101408400394478374034MERLA M TANO                                             0502
A0101408400394536858001DE ROXAS, DEMETRIO CASTILLO                              0501
A0101408950396622136001MICHELLE VERGARA DELA CRUZ, M.D                          0503
A1901400160491063374001EG PLUS FEEDS AND POULTRY                               10502
A1901400160491063374001SUPPLY                                                  20500
A0101405940000007540685ESPANOLA, MARY ANN GEOCANIGA                             0501
A0101400860000008653436********                                                 0502
B0101401250000000057247MP MAGDALENA PAWNSHOP & JEWELRY, INC.                    1605
A0101401250000008460031DR. CHRISTOPHER BAGA GAVIOLA                             0502
A0101400150061337098046DOLORES T. BIO                                           0501
A0101400150061354288001CORAZON G. TAGLE                                         0502
A0101400150000002394727ESTOESTA, JOCELYNE SOLIVEN                               0501
A0101400600071233611001WELLINGTON GO                                            0502
B0101405810072040421001SK-T COMPANY                                             1602
A0101405810072316984001**********                                               0501
A0101405810072377502002SHI, CAIXIA SY                                           0503
A0601400520000001706792BUNGQUE, ALDRIN CAPILI                                   0501
A0101414090000001669634ACOL, MIGUEL D OR ACOL, MARTIN                          10502
A0101414090000001669634OR ACOL, MARIA CARMELA D                                20500
A0101406040112041599001FIRESTONE TRADING                                        0501
A0101406040000007842660********                                                 0510
A0101401960121238768001ZENAIDA L. CUA                                           0501
B0101401960121339004001**********                                               1601
A0101413150000005944330******                                                   0501
A0101413150000003208335******                                                   0501
A0101412630000007158172STA. CRUZ, CONCEPCION LAZARO                             0501
A0101401830141292667003MAGTALAS, GEMMA OR LEE MARVIN                           10505
A0101401830141292667003OR JOHN GEMMO                                           20500
B7201400170000003772981LADLAD, EMSA BANA OR LADLAD, JOSE JULIAN                 1601
A5001400170000000213841GAMALINDA, ELENA TUBAON                                  0502
A0101400440161591450001BERNADETTE A. RUTAQUIO OR                               10501
A0101400440161591450001DANILO P. RUTAQU                                        20500
A0101401090171196218001SANTOS, JERRY HILARIO                                    0502
A0301400530193551320168SO, MARIA CARMEN F.                                      0504
A0301400530000003087409GAVIOLA, MARCO RAY DELA CRUZ                             0501
A0101401380000006542390MIRAFELIX, ARLENE LARA                                   0501
A0101401380201500598001CARREON, DAISY FONG OR CARREON                          10501
A0101401380201500598001JR., PONCIANO SIKANGKO                                  20500
A0101401380201563615001ABAYA, JESUS NACINO                                      0502
B0101410720653030880001NAPOCOR VILLAGE HOMEOWNERS ASSOCIATION                  11601
B0101410720653030880001INC.                                                    21600
B3101400160221024274002STA. CECILIA BUSINESS CENTER                             1601
B3101400870000003151253DRAKE XYRGICAL INC.                                      1602
A3001400130230478374239ATO, AIREN BERNADEZ                                      0501
A3001400130230478374241PAGAPONG, NEN KENNETH D.                                 0501
A1001400190000004487641SIAO, MICHAEL FRANKLIN NERI                              0501
A1001400190000002266606MORAN, LEONIDO MANAGIT                                   0501
A1001400190231478980001NUNEZ, CONCEPCION FABELLA                               10501
A1001400190231478980001MAGAWAY, REMIA FABELLA                                  20500
A1001400190231520766117TAROY, MARIONNE ANGELOU SALEM                            0501
A1001400350000000922014PEARSON, PILARCITA ROA                                   0502
A1001400480000003357737***************                                          0501
A1301400470000002299870MANUEL BIEN S. PINE                                      0505
A1301400760000000050546DELA CRUZ, RUEL ZABAT                                    0505
A1901400290000005565853BELEN ILAGAN BAUTISTA                                    0505
B0101401670271007091002JUSON REALTY DEVELOPMENT CORPORATION                     1601
A0101401670271278468001MICHELLE G. RIVERA OR                                   10502
A0101401670271278468001AUGUSTO D. RIVER                                        20500
B0101406460272015262001*********                                                1602
A0101406620000006317900RICAFORT, RAYMOND ALPHONSE                              10501
A0101406620000006317900HENSON                                                  20500
A0101406620000001686768GUERZON, ANGELUZ                                         0502
A0101406620273401579001CHIKIAMCO, TERESITA VALLARTA                             0501
A0101408660274648585001* * * * * * * *                                          0501
B0101411110276118888008JJIPP INCORPORATED                                       1605
A0101400570000001681734QUILIT, ABIGAIL BONIFACIO                                0501
B0101400570281047910001SACRED HEART OF JESUS PARISH-SVD                         1603
A0101400570281192838001ERNESTO GUARIN MEDINA                                    0502
A1101400120000001920587GLORIA, JACINTA DADULA                                   0502
A1101400120000003022373BANTULA, EVELISA FALLE                                   0501
A1101400120000006186401DOROJA, LORIEFE  TAN                                     0501
A0101402510341202209003********                                                 0501
A0101402510000010100702MATINING, KRISNA ENCOMIO                                 0501
A0101402510000010100731FILAMOR, JOEL GONZAGA                                    0502
A0101402510341478374008MARY GRACE B. ANDRES                                     0502
A0101402510000010100720AMBION, LARRY JAVIER                                     0502
A0101402060000000358463JOROMO, VERALYNN ALMARIEGO                               0501
A0101409050352600066001FAYE CARLIE CRUZ OR                                     10501
A0101409050352600066001BENSON RYAN CRUZ                                        20500
A0201400920000006792023IGOT, JUDYLYN LIM OR IGOT,                              10501
A0201400920000006792023MARCELO ANTHONY CAYLAN                                  20500
B0101402930381022284001INVESTORS ASSURANCE CORPORATION                          1602
A0101408370382211448001DR. JOSE PAOLO A. PRADO                                  0501
A0101408370382449935001DR. ALBERT JEROME C. QUINTOS                            10502
A0101408370382449935001OR MA. FININA A. QUINTOS                                20500
A0101408370382593318001DRS. MICHAEL JOSEPH B. REYES OR                         10501
A0101408370382593318001SEIZAN MARIE E. REYES                                   20500
A0101408790000000931059***                                                      0501
A0101408790383647157001CO BUCHONG, WILLIAM UY JT                                0501
A0101411660000003580301MARIA INEZ G PACIA                                       0502
A0101402770391638700001MC NELLIS, TREVOR R. OR                                 10502
A0101402770391638700001MC NELLIS, CHRISTI M.                                   20500
A0101402770000010605011MC NELLIS, TREVOR R. OR                                 10501
A0101402770000010605011MC NELLIS, CHRISTI M.                                   20500
B0101405490000003905151ASIA PRIME REALTY NETWORK, INC.                          1603
A0101408400394521468001SANTONIA, MARY GRACE PAREL                               0501
A0101412210000009674257CRUZ, JUN REY CLEMENTE                                   0501
B0101412210000005051336GEOGEN CORPORATION                                       1602
A0101412210000004644553DE LEON, EDWARD MAXIMO                                   0502
A2401400180000005536563GUINTO, ANNA CORINNA ASTURIAS                            0510
A0101403030000005944783**********                                               0501
B0101403030441303324001**********                                               1602
A0101403320000010061546AGUSTIN, GINA TRINIDAD                                  10502
A0101403320000010061546OR TRINIDAD, JOSEPHINE                                  20500
A0101403320000001803190HILARIO, MICHAEL OR HILARIO                             10502
A0101403320000001803190ANNA MARIA GWENDOLYN                                    20500
B0101403320471047674001MJ COMMODITY FLAVOR & SPICES INC.                        1605
A0101403320000000067543ATENDIDO, MANUEL T. JT                                  10501
A0101403320000000067543DBU ATENDIDO REALTY                                     20500
B0101403320471063948001POBLACION BINAN REALTY, INC.                             1602
A0101410140000000499065MORDIDO, LYN ROBELLES                                    0501
B0501400170481038907001JODERON AUTO SUPPLY                                      1605
A1901400320000009104272BERBERABE, MARIA RITA PASTOR                             0502
A1401400110000005526912CASTILLO, ALFREDO MALTE                                  0501
A0101403580000004091883PELAYO, KARLENE THERESE TIU                              0505
A0101403580000007265296CASTRO, FERNANDO CASTRO                                  0502
B0101403580000000214731MILLENNIUM ERECTORS CORPORATION - NORTH                 11605
B0101403580000000214731RESIDENCES                                              21600
B0101403580511017676001SHIMIZU CORPORATION                                     11610
B0101403580511017676001(MANILA OFFICE)                                         21600
A0101403580000000383620JEROME ANDREW H. GARCIA                                  0502
B0101405940512032585001DMCI PROJECT DEVELOPERS, INC.                            1604
B0101405940000003571793UNIVILLE DEVELOPMENT CORPORATION                         1602
A0101405940512370383001MARIA REGINA D. SAMSON                                   0503
B0101408530516005188001SEARCHERS & STAFFERS CORP.                               1610
B0101408530516033356001**********                                               1601
B0101408530516033357001FIRST METALEX MANAGEMENT CORPORATION                     1602
B0101408530516548189001METAL EXPONENTS, INC.                                    1603
A0101408530516571877007LEX REGIS L. CALUBAG                                     0501
B0101411400000006560949CHUANGXING TRADING PHILIPPINES, INC                      1601
B0101403450000000889381SANTOS, JAN MICHAEL MERCADO DBU JMS                      1610
A0101403450521237475001**********                                               0501
A0101403450521478374007********                                                 0501
A0101403450521736290001TAN, ANGELINE KUA                                        0502
A0101403610000010985341MANDAPAT, JHON MAJAN                                     0501
A0101403610000010985409ECO , ANGELO LAGDAMEO                                    0501
B0101404130601621189001PROPEL MANILA 360, INC.                                  1612
A0101407720000003886875QUETUA, PAUL CONDES                                      0501
A0101407720602164176002ROSENDA D. OGALESCO OR                                  10502
A0101407720602164176002ALBERT R. OGALESCO                                      20500
A0101404260611150835001HENRY OR LAI SHA CHING                                   0505
A0101409890649774914001ELEFANO, ROSITA CASTRO                                   0502
A0101407690652586008001CABANGCALA, SANIE SUMALBAG                               0503
A0101411530000000178881BERBANO, JOY ANNE VIDAL                                  0502
A0101413440000000570358**********                                               0503
A0101413570656057648156EDGARDO MARASIGAN JR.                                    0501
A0101414120000007044482TALATTAD, FRANCES FRANCISCO                              0502
B0101406590000000905511MAINEVENT AND MARKETING CORP.                            1604
A0101406590662297269001MARTINEZ, ARMAN M. OR MARTINEZ,                         10501
A0101406590662297269001MARIA THERESE G.                                        20500
A0101406590000005305220TANGONAN, ALENA FLORIAN DUQUEZ                           0501
A1301400210000003104996SURIO, CRISTINO B OR SURIO,                             10501
A1301400210000003104996MARGARITA M                                             20500
A1301400340000002283781RODELIO D. RUBIO OR                                     10502
A1301400340000002283781ALONA D. ALIPIO                                         20500
A1301400340683496200001BERNARDINO, PRISCILA DIAZ                                0502
A1301400340683530561001******                                                   0510
A1301400500000006218555JONNA MAY N. CRISOLO                                     0502
B0101408240711028488001INTAS DESTINATION MANAGEMENT INC.                        1605
B0101408240711044039001RMR 888 ENTERPRISE CO.                                   1601
A0101408240711387030001WISCO, CHRISTIAN PAUL MARIANO                            0501
A2801400100712278476001UYGONGCO JR., JOSE ROBERTO JT                            0502
B2801400230000000372770DBA GLOBAL SHARED SERVICES INC.                          1605
A4101400420000000710427BONIFACIO, RENCY MENOR                                   0502
A4101400420000002345240CANDELARIA, MARIA ZORAIDA POTAZ                          0501
A4101400420000008280706BRAGANAZA, EUFEMIA NINO                                  0501
B4101400420000000018540NGG PROPERTIES INC.                                      1601
A4101400420000002084471ISIP, CLEOFE J.                                          0501
A4101400550815046007001DIGIBOX PRINTING SERVICES                                0501
A0101412340000004877283LORIEDEL M. GARCIA                                       0501
B0101404840851013980002VIC IMPERIAL APPLIANCE CORP.                             1601
B0101404840851064410001VELOCITY MADE GOOD INTERNATIONAL (P                      1603
A0101404840851563081001CRISTOBAL, MARY JANE E.                                  0501
A0101406750000001491852DELA TORRE, RODA JANE ANTONIO                           10502
A0101406750000001491852OR DECENA, ARNUL                                        20500
A0601400230000003015885MABBAYAD, MILANIE LAZARO                                 0502
A0601400230000007402326CUNANAN, ALMIRA MEDINA DBU SWIM                          0502
