A0101402770391217498019GEORGE A. MIRAS II                                       0502
A0101402770391607207001ISON, JEFFREY GARCIA OR                                 10501
A0101402770391607207001ISON, ATHENE LYN                                        20500
A0101413570000005867372N. ULGADO JR. OR A. SALVADOR OR                         10504
A0101413570000005867372E. BAUTISTA                                             20500
A0101406590662474394001SANTOS, GLORIA PASION                                    0502
A0101400440000008234560SUBA, FLORITA LUCAS                                      0501
B0101400440161187807001WILLIAM C. LAO                                           1601
A0101402060000000562101ALONSABE, ARLAN S.                                       0501
B4101400260812012893001VV PROPERTY HOLDINGS CORPORATION                         1602
A4101400260812478374062SUNNY G. CAPORADO                                        0501
B4101400390000012719523LORNA K. VERANO DBU SIPSC ENTERPRISES                    1601
B0101413860000000145275CON-PAC WAREHOUSING INCORPORATED                         1605
A0101401250000008136583**********                                               0502
B0101401250021023559001S.B. OLIVEROS PAWNSHOP INC.                              1602
A0101411370000003548969BELTRAN, ANGELICA ABO                                    0501
A0101400150000003164047JERRY P. DE LA ROSA                                      0501
A0101400150000003164612NEMMA G. HABERLE                                         0501
A0101400150000002902638DIAMANTE, ANNALIZA HUGO                                  0501
A0101400150000003601009GU, FANG                                                 0501
B0101400150000000633516VALENZUELA CITICARE MEDICAL CENTER                       1610
A0101400150061055752052ASERON, MEL ALLAN                                        0501
B0101400150061056020001PAWNHERO PAWNSHOP PHILIPPINES, INC.                      1603
A0101400150061226387003FREDERICK DY                                             0501
A0101400150061361058001EDITH Y. VILLANUEVA                                      0502
A0101400150061364713001FREDERICK DY                                             0502
A0101400150061392849001PINGOL, TERESA GARCIA                                    0501
A0101400150061564610064BUENAFLOR, MARIA GERALDINE ROSE                          0501
A0101400150061671569001JOSEFINA DE ASIS OR                                     10501
A0101400150061671569001MA ARLEEN SISCAR                                        20500
A0601400360000004915351GOZUN, JOSE MIGUEL LACSAMANA                             0502
A0601400360000004915500VALMORIA, OMAR PACHECO                                   0501
B0601400360000000978936THE MEDICAL CITY CLARK, INC.                             1615
A0101413280000000041790TERESITA A. DECENA                                       0502
A0101413730000002229698*                                                        0502
A0101410560000010317783ERNANI C. CRISTOBAL                                      0501
A0101410560000005836217PROCLEY C. CRISTOBAL                                     0501
A0101410560000003562047JOSEPH JULIUS P. CUEBILLAS                               0501
A0101400730111035979001EMPRESS PRINTING                                         0502
B0101400730111036857001FRC SULO RIVIERA HOTEL CORPORATION                       1606
A0101400730111298870001ARAZA, MARIELA DELGADO AND                              10501
A0101400730111298870001ARAZA, DANILO C.                                        20500
A0101400730111478374170RICHARD M. FRANCIA                                       0501
A0101406040000001391960********                                                 0505
A0101406040000008915551**********                                               0502
A0101406040000000014699********                                                 0501
A0101406040000004587668********                                                 0501
A0101401830141205017001EDGAR N. DE GUZMAN                                       0504
B0101401830141259521001JIMMY N. YANG                                           11601
B0101401830141259521001SONLY PRINTING P                                        21600
A7201400170000012099382TORTILLAS, LIZA MAE MIGUE                                0501
A5001400170000001003421LEYNO, KATHERINE MARAON                                  0505
A5001400170000000213750RATUNIL, JULIETA OR RATUNIL,                            10502
A5001400170000000213750BYRON, OR RATUNIL, CARMEL                               20500
A0101407270000005781440DINO, MARY ANNE GALANG                                   0501
A0101407270000007960098MARIA THERESA ALIPIO                                     0501
B0101407270162040845001RDJ INDUSTRIAL SUPPLY, INC.                              1602
A0101407270162333154001FELIPE COCADIZ                                           0501
A0101401090000007525820BEO JR., CLODUALDO BORROMEO                              0503
A0101401090000007525808ALMEDA, CARLOS MENDOZA                                   0505
A0101401090171501757002BIEN J. MATAWARAN                                        0502
B0301400790000002301342MONTEVERDE II, GEORGE MENDEZ DBU GV & HH                11601
B0301400790000002301342MARKETING                                               21600
B0301400950000002115920**********                                               1602
A0101401380201371534001JOSIE ASANON                                             0502
A0101401380201638111001DECENA, ARNULFO ALILING                                  0503
A0101410720000009157057JABONALLA, NERLYN HERMOGINO                              0502
B0101410720653022858002FOODKING CUISINE & SERVICES INC                          1602
B3101400160221224862001JOYME ROCKSCAPES CORPORATION                             1602
A3101400160221478374062LANI R PEREZ                                             0501
A3101400870000008979840MONDEZ, MA. HENZEL ROMERO                                0501
A3101400870225217498011ZUNIGA, KIRK LOUIE                                       0501
A3001400130000010813362CONTRERAS, MARK ANTHONY B OR CO                         10502
A3001400130000010813362NTRERAS, MARIA ELISA SHAN                               20500
B1001400190000000016491TRI-MC INDUSTRIAL AND GENERAL                           11603
B1001400190000000016491SUPPLY, INC.                                            21600
A1001400190231520766125YANA, MAYFLOR DAGOC                                      0501
A1301400470252521830002EMELITA F. CARPIO                                        0502
A1901400290000003252742NACACHI, ALLYSSA NIKKA OLARTE                            0501
A1901400290261042024001HAPAG FILIPINO FAST FOOD                                 0502
A1901400290261153232001MARCIANA O OSIAS                                         0501
A1901400290261585775001LITA CUETO MENDOZA OR DORIS                             10502
A1901400290261585775001MARIE MENDOZA MEDINA                                    20500
A0101406460000001231554WEE, AUDREY ANN SY OR                                   10502
A0101406460000001231554WEE JR., CESAR L                                        20500
B0101406460272605583001AUTOCHINA, INC.                                          1601
A0101406620273409344001************                                             0501
A0101406620273427353001*********                                                0501
A0101408660000008622060TADEO, BERNARD PLAN                                      0501
B0101400570000000031756WHITEHORN MOTORS, INC.                                   1601
A0101411240000010100508MORENO, EDWARD TRIGO                                     0503
A2601400270000007951177RAYMOND RUEL D. VALLE                                    0501
A2601400270000009896413IRENE GRAINS CENTER                                      0510
A0801400160000006272897TRADIO, GERALDINE BARBARA                                0502
A0801400160311478374103MERLINDA GUARDAMANO INAYAN                               0501
B1101400120313047494001TOYOTA TACLOBAN, LEYTE, INC.                             1601
B1101400120313543446001TY CHAN HAI,SANTIAGO OR TY,LISA OR TY,                  11602
B1101400120313543446001SHANE LAWRENCE                                          21600
B2001400290000002406720DY, LOREEN LAO AND YAO, MARIANNE SY                      1602
B0101402350321006710001DASMA CITYWIDE GEN MDSG INC.                             1604
A0101405650000000348787REGONAY, RENEVE ALIDO                                    0501
B0101405650000000013076CENTRAL AFFIRMATIVE CO., INC (AFICIONADO                11602
B0101405650000000013076GERMANY PERFUME)                                        21600
A0101405650322531153001VILORIA, MARITES QUINTOS                                 0501
A0101402510000011695040SAMEDRA, EDGARDO II VILLANUEVA                           0501
A0101402510341202634001ADELAIDA O. FLORESCA                                     0501
A0101402510341364754001ZOLETA, MINERVA CABALUNA                                 0501
A0101402060000005137326SALCEDO, CIELITO LINDO BLANCO                            0501
B0101402060351009577003AGC FLAT GLASS PHILIPPINES, INC.                         1601
A0101402060351211643001LOLITA SEBASTIAN &/OR                                   10503
A0101402060351211643001EDUARDO SEBASTIA                                        20500
A0101402060351479109001ALMADEN, ROSALINDA CLACIO                                0501
B0101402060351514741001AGC INDUSTRIAL FLAT GLASS PHILIPPINES,                  11601
B0101402060351514741001INC.                                                    21600
B0101409050000000022584TRI-DG TRADING                                           1604
A0201400890000011310971MANSUETO III, ANTONIO O. OR                             10502
A0201400890000011310971MANSUETO, NANCY V.                                      20500
A0201400890000006961864NEGRITE, DARFRENTE ELIZALDE                              0501
B0201401020000005109871EXCELSIOR FARMS INC.                                     1603
A0101402930000010657862CUA, GEORGE NICHOLAS OR                                 10502
A0101402930000010657862CUA, INGRID JO-ANNE LO                                  20500
B0101402930381009079001THE AMERICAN EYE CORRECTION                             11610
B0101402930381009079001CENTER INC.                                             21600
A0101402930000003710483VERDOLAGA, MA.GEORGINA DE JESUS                          0501
A0101415350000007877852PELAYO, JESCTONI TORRES                                  0502
A0101402770391211301002TENG MU KUNG                                             0503
A0101405490392175568001MARILOU D. BALUYOT                                       0505
A0101408400394161748001JUGUETA, ROSITESS M.                                     0501
A0101408950000008995373LIM, BRYAN CHAN                                          0501
B0101409180397670520001CASAEUROPA INC.                                          1605
A0101409210000005252040CANSINO, WILFREDO DE VERA                                0501
A0101409210398612916002AMPIG, MARK CHRISTIAN OTERO                              0501
A0101412210000005303144EVANGELIO, MARIANELA COMPAY                              0501
B5501400120000000046842TACURONG FIT MART, INC.                                  1620
B1201400150421317014001NG, MAN PING SEE OR                                     11601
B1201400150421317014001ANG, DHARLENE                                           21600
A0101412760000005723662CHUA, ANNA RHODORA CRUZ                                  0501
A3801400170000000955040EDWIN C ACOB                                             0501
A1401400110000008266393ROQUE, KAREN JAY RAMOS                                   0501
A1401400110492391345002R'S WINE CENTER                                          0502
A1401400110000000132841*******                                                  0501
A1601400170000000421310LEONARDO B. GONZALES                                     0501
A0101403900501438161001IGNI, EDUARDO E                                          0501
A0101403900501477610001HORTALEZA, MANUEL PUNZALAN                               0501
B0101407430503040314001MONDE LEI IMPORT                                         1602
A0101407430503185437004SHIRLEY B. RENIEDO                                       0502
A0101403580000003311684WILLY C. TAN OR ANABEL N. TAN                            0501
A0101403580000003311702TAN, WILLY CHUA                                          0501
A0101403580000005328718BANAAG, ROLANDO FRONDA OR                               10501
A0101403580000005328718BANAAG, FRANCES PINEDA                                  20500
B0101403580511005143001INTERPACIFIC TRANSIT, INC.                               1610
B0101403580511027620001PROSERVE MANWORKS INC.                                   1650
A0101403580511150751001RUFIA DOROTHY C VERA JT                                  0505
A0101405940000007540845MALIBIRAN, CARLA MARIE SILVERIO                          0501
A0101408530516571877085SACE, MARK PHILIP OCAMPO                                 0502
A0101412050000008837130GARCIA, MARY NICOLE GALVEZ                               0501
A0101412050000011910751WANG, HANKE                                              0502
B0101403450521011967001ERNES REALTY CORPORATION                                 1601
A0101403450000001769851RODRIGUEZ, MEE LEN CHAN OR                              10501
A0101403450000001769851RODRIGUEZ JR., T                                        20500
B0101403610531043009001DEMARCIA REALTY AND DEVELOPMENT COR                      1601
B0101407720602005905001FGO FOUNDATION, INC.                                     1602
A0101407720602325737001FELIPE R. REA                                            0501
A0101407720602417297001SUNTAY, MARCUS LESTER RODRIGUEZ                          0501
A0101412180000003275541HULIGANGA, BUTCH SANTOS OR                              10502
A0101412180000003275541HULIGANGA, LALETTE TALAY                                20500
A0101404260611151958001ESMERALDA V. CRUZ                                        0501
B0101407690652021052001OPTIC DESIGN, INC.                                       1602
A0101407690652034151001D' ABET JUNK SHOP                                        0502
A0101407690652525001047NOEMI B. BUNDA - DEALERS OF                             10501
A0101407690652525001047SHOECAT INC.                                            20500
A0101407690652525001060SUSANA MORENO - DEALERS OF                              10501
A0101407690652525001060SHOECAT INC.                                            20500
A0101407690000005198103ISRAEL O DIRAIN OR VILMA T                              10501
A0101407690000005198103DIRAIN                                                  20500
A0101407690652740599001FORMARAN, EDNA MARIANO                                   0501
A0101413440000001472873BANARES, EMILIA CHUA                                     0501
B0101413570000000206522HOLY SPIRIT COMMUNITY MULTIPURPOSE                      11601
B0101413570000000206522COOPERATIVE                                             21600
A0101413990000012742331DIANSAY, SARA JANE POTANE                                0501
A0101413990000012740766LLORCA, VIRGINIA CARLOBOS                                0501
A0101413990000005447241PANDERO, ALICIA B. DBU ALMEADA                          10502
A0101413990000005447241FASHION                                                 20500
B0101414120000000399111LINMER PHARMA INCORPORATED                               1605
B0101406590662043490001CARMEL MKTG & TECHNOLOGY CORP.                           1603
B1301400210000005041029AIROCLAD INCORPORATED                                    1602
A1301400210682394090002RICARDO CAMUA JR. OR                                    10502
A1301400210682394090002MIRAFLOR CAMUA                                          20500
A1701400230000008555302TUNAC, MARTIN VIERNES                                    0503
B1701400230693034429001*                                                        1601
A0101408240711383150001AURELIO III OR AURELIO JR.                              10501
A0101408240711383150001OR AARON LITONJUA                                       20500
A0101408240000003955340SIMPAO, MELISSA OCHANGCO                                 0501
A0101408240711609088001TALAVERA, MELANY GIGANTE                                 0502
A2801400100712256563001ELIZABETH R. MANUEL                                      0503
A2801400100712527452001TAN, SAMUEL MAGAT                                        0501
A4101400260812246527001ISIDRO B. DELA CRUZ JR. OR                              10510
A4101400260812246527001LILIAN H. DELA C                                        20500
A4101400390000007459563LOWIE JEINE D. COLMENAR                                  0501
A4101400420814758362001LACSA, ROSA SIMBALLA                                     0501
A4101400550000001332643ESPIRITU, ENWY VELASCO                                   0502
A0101412340000003438431CRISTINA L. LAZO AND                                    10501
A0101412340000003438431RAMIL L. LAZO                                           20500
A0101412340000007305564ELNA O. GALAROZA                                         0501
A0101412340000007305757EVELYN D. ALVAREZ                                        0501
A0101404840851520766070ELSA NAVARRO                                             0502
B0101406750852026021001GLOVISION CREDIT COOPERATIVE                             1602
A0101405070861476115001REYES, MA. MILAGROS ABRAJANO                             0502
A0101413860000010948286GENOVA, LEA SALAZAR                                      0502
A0601400230891627261001RAMOS, ANGELITA BAUTISTA                                 0503
