B0101401670271821100608**********                                               2010
B0101412180000000024233MEGS FUELS AND LUBES, INC.                               1604
B0301400790000000040928QUINAL, CHARLIE JEROSALEM JT                             1601
B1901400290261023671001PONDONG BATANGAN COMMUNITY                              11603
B1901400290261023671001FOUNDATION, INC.                                        21600
A1101400120000009119637OBEDIENCIA, ANNABELLE F.                                 0501
A0101407720602341807001DR. JOSE DANTE P. DATOR                                  0502
A0101407720602405667002JISON, JOAQUIN EMILIO GONZALEZ                           0520
A0101407720602471893001ASUNCION-GALIMPIN, ELEANOR                              10502
A0101407720602471893001PANGANIBAN                                              20500
B0101400860000001005569**********                                               1602
A0101400860011385267002**********                                               0502
A0101400860011568203001**********                                               0505
B0101400860000000030268**********                                               1601
A0101400860011685746001**********                                               0505
A0101401250021762195001FERMIN, MARICAELI SANTILLAN                              0501
A0101400150000000253245AGUILON, AILEEN DE LOS REYES                             0501
B0101400150061005123003ARK TRAVEL EXPRESS, INC.                                 1610
B0101400150061010934001SB FOREX, INCORPORATED                                   1601
B0101400150061010956001SB CAPITAL INVESTMENT CORPORATION                        1610
B0101400150061025707001LANDLINK PROPERTY INVESTMENTS(SPV-A                      1601
A0101400150061039917030UMALI, CARLITO                                           0501
B0101400150000001708414SAN CARLOS CLEAN ENERGY INC.                             1601
A0101400150061392625001LARIBA, IRAHLYN SACUPAYO                                 0501
A0101400150061700441001SAYLAGO, CLYDE ABAD                                      0501
A0601400100000001442860DIZON, AGOSTO GALANG                                     0501
B0601400100081038277001B-12 CONSTRUCTION & TRADING CORP.                        1601
A0601400520000005943611VICTORIO, ALLAN JUDE FORONDA                            10504
A0601400520000005943611OR VICTORIO, MARIE                                      20500
B0601400520000007553797BRIGHTLIVES LENDING PHILS. INC.                          1602
B0101414090000007344603BLUEMAX TRADELINK  INC.                                  1602
A0101414090000007236519CHAN, GIDEON D DBU WOODEN HOUSE                         10505
A0101414090000007236519DEV'T ENTERPRISES                                       20500
A0101400730111334903036EDGAR F. CAGINDAGAN                                      0502
B7201400170000003773626**********                                               1605
A0101401090171071326001PILIEN, MA. ROSELLA DELA RAMA                            0501
A0101401090171195667001MARY JOCYLYN OR NOEL BAUTISTA                            0501
A0101401090171196317002JERRY R. MANLANGIT                                       0501
A0101401090171196423002MA. CARMELITA F. SANTOS                                  0501
A0101401090171203822002MARIETA C. BAYSA                                         0501
A0101401090171326584001DRS. NOEL OR MARY JOCYLYN                               10501
A0101401090171326584001BAUTISTA                                                20500
A0101401090171410446001MARICEL R. TORMIS                                        0501
A0301400660000008940978**********                                               0501
A0301400790000003969611BERSABAL, AGNES TUBANG OR                               10502
A0301400790000003969611BERSABAL, MARVIN                                        20500
B0301400790000000040791********                                                 1603
A0301400950000002115300ILA ENTERPRISES                                          0502
A0101401380000001820002********                                                 0502
B0101410720653030880001NAPOCOR VILLAGE HOMEOWNERS ASSOCIATION                  11601
B0101410720653030880001INC.                                                    21600
A3101400160221220205001RODOLFO ELEPANO OR GILDA PICO                            0503
A3101400740224793598001LAUZA, MARILOU ESCONDE                                   0501
A1001400190000008743853IGNACIO, MERCURY RADAZA                                  0501
B1001400350233032957001PCCI FINANCE CORPORATION                                 1601
A1001400350233675969001INESIN, LYDIA TRINIDAD                                   0502
B1001400480000000133268**********                                               1605
B1001400480000000133571************                                             1601
A1301400470252478374030**********                                               0503
A1301400470252541824001HERNANI F. BANTUG OR                                    10502
A1301400470252541824001ELAINE T. BANTUG                                        20500
B1301400470252549109001DIAZ INTEGRATED FARM, INC.                               1605
B0101401670271007375003MULTI-FOLD LINKS, INC.                                   1605
B0101401670271007482001VISEVERSA, INC.                                          1605
B0101401670271017449001HK HARDWARE SUPPLIER CO., INC.                           1601
B0101401670000000016213BAYWORLD DISTRIBUTORS INC.                               1602
B0101401670000000016220MIDLANDS DISTRIBUTION, INC.                              1602
A0101406460272232218001MARIANO, NORMITA T.                                      0501
A0101406620000010591249NICANOR M. MONTESINES                                    0502
B0101406620273020081001MALINTA CORRUGATED BOXES MFG., CORP.                     1602
A0101406620273306796044MA REGINA Y. MILLARE                                     0501
B0101410980000000171997FUNTOURS TRAVEL CORPORATION                              1601
A0101400570281360412001DR. LONABEL A. ENCARNACION                               0501
A0101400570281502993001ROMULO N. AGUILAR OR                                    10501
A0101400570281502993001JENNIFER QUERUBIN                                       20500
A0101400570000001681870CABALZA, DUNKIRK JOHN RIVERA                             0502
B1101400120000000652442GICABAO, KATHLEEN JOY NG OR GICABAO,                    11603
B1101400120000000652442BONGKOK CHAN                                            21600
A1101400120000003197011CHUA, THERESA ANG OR                                    10501
A1101400120000003197011CHUA, PETER JUSTIN ANG                                  20500
A6601400120000001370569MONTERA, GLENDA GAZO DBU RONVER                         10501
A6601400120000001370569ENTERPRISES                                             20500
A6601400120000003642846FLORESCA, MANOLITO ESTERNON DBU                         10505
A6601400120000003642846RMF SARI SARI STORE                                     20500
A2001400290000000724463MARTINEZ, CEGINA BALSAMO                                 0501
B0101402350321031714001CROWN CRIS INDUSTRIAL SALES AND                         11601
B0101402350321031714001MACHINE SHOP                                            21600
A0101402350321180985003HO, CHIEN CHUNG OR                                      10501
A0101402350321180985003CHUANG, SHIH-SEN                                        20500
A0101402350321488660001PUNO, FRITZIE LEONOR C. OR                              10501
A0101402350321488660001MOOG JR., PRINCE                                        20500
A0101405650322172164002AQUINO, CHRISTIAN CASTRO                                 0502
A0101405650322634117002B.ESPIRITU OR E.ESPIRITU OR A.                          10502
A0101405650322634117002OCAMPO OR C.DE C                                        20500
A0101402510341196664001EDNA R. DELA CRUZ                                        0501
A0101402510341197651001MERCADO, ROWENA EVALLE                                   0502
A0101402510341478374008MARY GRACE B. ANDRES                                     0501
A0101402060351211787001MENELEO &/OR FILOMENA CARLOS                             0501
B0201400760374037583001...........                                              1610
A0101402930381205168001DR. JOSE BAYANI OR JOSE ANTONIO                         10510
A0101402930381205168001OR JOSE KARLO ALILING                                   20500
A0101402930381332811001MAGDALENA RAMOS OR RHODERICK                            10501
A0101402930381332811001RAMOS OR MA ROSARIO RAMOS                               20500
A0101402930381686667001MACALALAD, JACKIE LOU BOAC                               0501
A0101408370000003775002MARALIT, RUTER MAGTIBAY                                  0503
A0101408370382391120001DR. SALVADOR M. EUSTAQUIO                                0502
A0101408370382417960001JOVITA SAN DIEGO                                         0501
A0101408370000003774965SANTOS, ELSA ENRIQUE                                     0501
A0101408790000005293603FRANCESCA O. SANTIANO                                    0502
B0101408790383042852001CEPALCO ENERGY SERVICES AND TRADING                     11601
B0101408790383042852001CORPORATION                                             21600
A0101411660000002881161RBE ACCOUNTING SERVICES                                  0502
A0101415350000008010437KALINGKING, GRACITA ISABEL                              10501
A0101415350000008010437VILLARMIA                                               20500
B0101402770391009325001SAKURAI PHILIPPINES CORP.                                1603
B0101402770391015995001CLAYTON INDUSTRIAL CORPORATION                           1604
A0101402770391380022001KUNG, CHIEN-LIANG                                        0501
A0101405490000004808668DAISY B. MAJAIT                                          0501
A0101408400394033958001RCBP-STA MARTHA PARISH                                   0504
B0101412210000007251670SALCEDO SQUARE RESIDENCES CONDOMINI                      1602
B2401400180411036168088TSP MARINE INDUSTRIES                                    1603
B2401400180411040003003BRIGADA MASS MEDIA CORPORATION                           1630
A2401400180411478374004MESRIYA ABDULLAH                                         0501
A1201400150000000473205OBILLO, CORAZON AVILA                                    0501
A1201400150421253603001FLORES, ISABELITA MENDOZA OR                            10501
A1201400150421253603001DOLOROSA JR., ROMEO F.                                  20500
A0901400220000010424921YOUNG, IRVIN MADRAZO                                     0501
A0901400220432582218001**********                                               0502
B0101403030441336479001**********                                               1602
A0101403030441378112003TY, CHRISTINE NG                                         0501
A0101412890000000543031ANOZO, JESUSA FLORES                                     0501
A0101403320471004298001CACB PLYWOOD TRADING                                     0505
A0101406330000011106111MICHELLE TSUNA A. KISHIMOTO                              0501
A0101406330472494607001MARIA ELIZA E. SANCHEZ OR BRIAN                         10502
A0101406330472494607001JOSEPH SANCHEZ                                          20500
A0101410140475738965001GERERO, MARITES LANGUITA                                 0505
A0101412760000000767762MERCADO, LORNA DIMAFELIX                                 0501
A1901400320000011382842OLIT, ANNALENE RAMORES                                   0501
A1901400320000000679147DRJ TRADING AND GENERAL                                 10501
A1901400320000000679147SERVICES                                                20500
A1901400160491244619001ALEJANDRO F UY OR                                       10502
A1901400160491244619001APOLONIA AGNES B                                        20500
A1901400160491659463001GLORIA JARO PENA                                         0502
A0101407430000002298279JERSON B. MASIGLAT                                       0502
B0101407430503024219001WONDER BOOK CORPORATION                                  1602
A0101403580511592923001CANTRE, EVELYN GARCIA                                    0501
B0101405940512037959001MY SOLID TECHNOLOGIES & DEVICES CORP.                    1601
B0101408530516481834001**************                                           1602
B0101403450521011739001**********                                               1602
A0101403450521238133001**********                                               0501
A0101403450521361575001PO, PAULINE LU                                           0501
A0101403610000006643201MICAWAYAN, JAMALODIN LANTO                               0502
B0101403610000000015972LAGUNA SCIENCE AND TECHNOLOGY                           11601
B0101403610000000015972COLLEGE INC.                                            21600
B0101403610531043009001DEMARCIA REALTY AND DEVELOPMENT COR                      1601
A0101403610531707487001GARCIA, FRANCES CERDENA OR                              10501
A0101403610531707487001CARRASCO, EUNICE                                        20500
A2201400250000001066062*****                                                    0504
A2201400250000007122716GARCIA, MARY TANCHULING OR                              10501
A2201400250000007122716ADONIS DE VERA GARCIA                                   20500
A0101404130000006275909DEL ROSARIO, GIZELLE ROSE PADUA                          0502
B0101404130000003105802PHILIPPINE BUSINESS DAILY MIRROR                        11601
B0101404130000003105802PUBLISHING, INC.                                        21600
A0101404130601521127001TIMBANG, AMELIA MENDOZA                                  0501
B0101404130000004437252KING, WYDEN ROSARIO                                      1601
A0101407720000004658573RIVERA, MARILEN TANEDO                                   0501
A0101407720602313061001ELOISA B. BUSE                                           0502
A0101407720602313458002QUIBAEL, ARMI DE LAS ALAS                                0502
A0101407720602382305001PARDINAN, ROSSANA O.                                     0502
A0101407720602384186003SARMIENTO, JOSIERINA YANEZA                              0502
A0101407720602398856001CALLEJA, HOMOBONO BELEN                                  0501
A0101407720602581738001DUCUSIN, MA. ANTONINA SUGUITAN                           0501
B0101412180000003275261CBII PHILIPPINES INTERNATIONAL, INC                      1605
B0101404260611005388001ALOG AND COMPANY, INC.                                   1602
A0101404260611416131001ORA, ROMEO FOLLOSCO OR                                  10501
A0101404260611416131001JOSEFINA                                                20500
B0101409890649012116001*************                                            1603
A0101409920000007304812GONZAGA, MICHAEL CHRISTIAN G.                            0501
A0101409920000000022099DELA VEGA, ANTONIO S. OR                                10501
A0101409920000000022099DELA VEGA, IMELDA                                       20500
A0101409920000001951993PANGILINAN, CAROLINE B. OR                              10503
A0101409920000001951993PANGILINAN, MARIA KARIZ B                               20500
A0101407690000010774473DIEL, AMOR DALAYAP                                       0502
A0101407690000000913586BASTIDA, MARICAR - DEALERS OF                           10501
A0101407690000000913586SHOECAT INC.                                            20500
A0101407690652741995001ESTACIO JR., FELIPE ADONA                                0503
A0101411530000006217523SANTOS, JENNIFER MANGILIT                                0502
A0101413570000011963809MANALO, JEROME JOHN GARCERA                              0501
A0101413570656057648108MANUEL D. DOMINGO JR.                                    0501
A0101413990000001406451CLAVO DE COMER JR., JESSIE I.                            0503
A0101413990657004286001JASMIN GRACE DISCALLAR                                  10501
A0101413990657004286001ENTERPRISES                                             20500
B0101414120000001984165UNITED ACHIEVER ASSESSMENT & TRAINING                   11602
B0101414120000001984165CENTER INC.                                             21600
B0101406590662038794001PRISMODIAL CONSTRUCTION CORPORATION                      1610
A1301400500684478374003ELMA I. DE LEON                                          0501
B0101408240711022068001CIRCLE CORPORATE INC.                                    1605
B0101408240000000832699CARGOLIFT GROUP, INC.                                    1602
B0101408240711028488001INTAS DESTINATION MANAGEMENT INC.                        1605
B0101408240711040039001GLOBALIFT, INC.                                          1601
B0101408240711043977001PETROLIFT HOLDINGS, INC.                                 1602
A0101408240711396224001FRANCISCO OR ANNABELLE ADRIANO                           0501
B0101408240711453262001LNL ARCHIPELAGO MINERALS INCORPORATED                    1605
A0101408240711572278001MARTIN, MA. LUISA NADULPIT                               0501
B0101408240711607502001SANTA CRUZ MINERAL PORT CORPORATION                      1605
B0101408240711632753001AGILEHOLDINGS & MANAGEMENT CORP.                         1605
B0101408240000000005114VENTURECAP INC.                                          1601
A4101400260000000002120LUCIANO, MARIA PAZ GOMEZ                                 0502
A4101400260812344336001DR. GAVINO T. TAN JR.                                    0502
A4101400260812344336001DR. GAVINO T. TAN JR.                                    0501
A4101400260812423341001ESTEFANIA B. RANDOY                                      0505
A4101400390000000500518MA KATHERINE C. SANCHEZ                                  0501
A4101400390000007459198BERNARDO P. GUINOO OR                                   10503
A4101400390000007459198ANA B. GUINOO                                           20500
A4101400390000007459289MEMBERS OF NATASHA, SHOECAT INC                          0502
A4101400420000000120765BORLAS, GINA MANSIT                                      0501
B4101400420000009391955SOUTH MEATS AGRI TRADING INC.                            1602
B4101400420000009391999SOUTH MEATS AGRI TRADING INC.                            1602
B4101400420000009391966CAVITE MEATS AND AGRI TRADING INC.                       1602
B4101400420000009392003SWINELAND INC                                            1602
B4101400420000009392021SWINELAND INC                                            1602
A4101400420000000120696CARMELA G. ROMA                                          0501
A0101412340000003342754DEXTER P. DY ICO                                         0501
A0101405070000012283453RIPOLL, ROMAN VICENTE U. OR                             10501
A0101405070000012283453RIPOLL, BEATRIZ AUDREY S.                               20500
A0101405070861035394088AMITY SATELLITE SYSTEMS,                                10512
A0101405070861035394088INCORPORATED                                            20500
A0601400230000007402188CHUA, MARK ANTHONY GARCHITORENA                          0503
A0601400230000007954121CHUA, MARK ANTHONY GARCHITORENA                          0502
