A0101400600000005942509COMIA, JUAN DE ROXAS OR                                 10505
A0101400600000005942509COMIA, ELEAMOR M                                        20500
B0901400220000006214353**********                                               1610
B0101406590662050723002DOUBLE NINE CONSTRUCTION                                 1601
A0101400570000018273117MONGE, GLENN CARROZO                                     0501
B0101413440000014245353VISATECH INTEGRATED CORPORATION                          1602
A0101406590000003007212STAMBOEL, IRSYAD KAUTZAR                                 0501
A1701400230000012227433CORPUZ, IMELDA                                           0502
A0101400860000002333411**********                                               0505
A0101401250021333461001SATURNINO, EDRALIN P.                                   10501
A0101401250021333461001OR SATURNINO, JEANETTE C.                               20500
A0101400150000017978320ORTIZ, MATTHEW MEDIDA                                    0501
A0101400150000006239392ROXAS, JEMINA RHEA LIM                                   0501
A0101400150000003141431GO, YVETTE DY                                            0501
A0101400150000018286485ALZAGA, MIRIAM ANTONI                                    0501
B0101400150061028993001PHILAGROW INCORPORATED                                   1603
B0101400150061042377001BIOSYSTEMS REAGENTS & INSTRUMENTS,                      11620
B0101400150061042377001INC.                                                    21600
B0101400150000001708345SKIN SCIENCES LABORATORY, INC.                           1603
B0101400600071233745001ALFONSO CHING OR LILY CHING                              1602
B0101405810000000016811SK PLASTIC RELIANCE COMPANY                              1603
A0101405810072234861001**********                                               0501
A0601400100081068713001GJG CONSTRUCTION AND TRADING                             0501
A0601400520000007553177GOMEZ, ROCHELLE FUENTES                                  0501
B0601400520000013873128QSJ MOTORS PHILS. INC.                                   1605
A0101414090000011597803TAPAY, MARYLYN SI                                        0501
A0101410850000011276612BUISER JR., RENATO MENENDEZ                              0502
B0101410850000000005665BASECO SHIPYARD CORPORATION                              1605
B0101400730111021999001GLOBETROTTERS, INCORPORATED                              1605
A0101400730111478374179MARIA LUISA S. TRUJILLO                                  0502
A0101401960000001844511**********                                               0502
A0101413310000002317875RUSSEL, STEVYE LINN ANDAL                                0501
A0101401830000001140134DELA PENA, REA JUSI                                      0501
A7201400170000003774367MEJOS, ANIEVER ANTEGA                                    0502
A7201400170000011141681YTING, NELLY SUAN                                        0501
A7201400170000007185911ARANDING, DWIGHT JOSHUA MEDADO                           0501
B7201400170000007185966MALOLOT, JERILYN TAMULA                                  1605
A0101400440000010744824CHRISTINE R. OBTINALLA                                   0502
A0101407270000008185622PAYUMO, MARY GRACE LIGON                                10501
A0101407270000008185622OR PAYUMO, TARA                                         20500
A0101407270000015585030GARBO, JONALYN TUBO                                      0501
A0101407270000012488796BULGAR, JEFFREY BEATO                                    0501
B0101407270000012664789PRIMO FORTEM CONSTRUIR CORP.                             1606
A0101401090000007652982MAGLINAO, MA. LOURDES DOMINGO                            0502
A0101401090171368642001ARLENE Z. AGUILAR                                        0501
B0101401380000011057742TRADEBLVD CO.                                            1601
A0101412500000018153016MARTE, EUNICE SECILLANO                                  0501
A0101412500000002304803BATTUNG, GENEROSO DE POLONIA                             0501
A0101412500000014743401BENEDICTO, NINO MANUEL STA. ANA                          0501
B0101412500000018149523NEGRILLO, ALVIN BALDAGO DBU NBA CHAINSAW                11601
B0101412500000018149523TRADING                                                 21600
A3101400450000016320875MARTEJA, FERDINANDO DBU                                 10502
A3101400450000016320875F-VICTORY KING BUILDERS                                 20500
A3101400870000003656360NAPIZA-BENITEZ, MA ETHELWOLDA U                          0501
A3101400870000018293946CASTILLO, JOCELYN TAN                                    0501
B3101400870000013944022STT (PHILIPPINES), INC.                                  1602
A3101400870000017286609FLORES, LAWRENCE LANA DBU                               10502
A3101400870000017286609COLOURBLINDS INT                                        20500
A1001400480000014023386BOGO, ELAINE DAYONDON                                    0501
A0101401670271361002001JOSE ABRAHAM V. PLANA II OR                             10502
A0101401670271361002001RACQUEL Y. PLANA                                        20500
A0101401670271405285001CHUNG, JAE WOO GOYMA                                     0503
B0101406620000011433013*********                                                1601
A0101400570281022080002COSMOPOLITAN AD                                          0505
B2601400270302047342001WOODSIDE PROPERTIES AND LAND CORPORATION                 1601
B0801400160000006893130**********                                               1601
B6601400120314043609007FUNDACION GRAMEEN PILIPINAS INC.                        11605
B6601400120314043609007VICTORIA BRANCH                                         21600
B3401400280000000002320MALLARE, B DBU B&E COMPUTER SALES &                     11601
B3401400280000000002320SERVICES                                                21600
A2901400130000015903861LAUREANO, FERNANDO GWEKOH                                0502
B0101405650000011811208ESPIRITU, BELINDA JT                                     1601
A0101402510000014897400GARCIA, BELLY JAMAICA DAGUPION                           0501
A0101402510341236845001RUFINUS CORONEL OR                                      10501
A0101402510341236845001REMEDIOS CORONEL                                        20500
A0101402510341563718002JIMENEZ, MARIA LUZ LA MADRID                             0501
A0101402060000009179848MARTINEZ, MARIA ELENA SANTOS                             0501
B0101409050000017684741RMSC SKINCARE PRODUCTS                                   1601
A0201400760000009466151*********                                                0502
B0201400760000018150911ECOLINEA EXPORT INC.                                     1601
B0201400760374055989001GOLDEN GREAT PEAK ENGLISH INC.                           1602
A0201401020000000005272ALEGRE JR., RAMON ALAURA                                 0501
B0201401020000000005238ALEGRE JR., RAMON                                       11601
B0201401020000000005238DBU DOBE EXPORT                                         21600
B0201401020000000005307ALEGRE AQUACULTURE DEVELOPMENT                           1601
B0201401020000000055912STO. NINO AQUACULTURE CORP.                              1601
A0101402930381205378001LINCOLN CHEN OR JULIA CHEN                               0502
B0101408790000010384528JVC HENGUN ADVERTISING INC.                              1602
B0101408790383694411001SEAOIL FOUNDATION INC.                                   1602
A0101402770000018197465AGUALIN, MILLANY AQUINO                                 10501
A0101402770000018197465DBU SIBLINGS ENTERPRISES                                20500
B0101402770391009317001FIBERTEX CORPORATION                                     1605
A0101405490000006300112DELA CRUZ, AEZA PALANG                                   0501
A0101408400000001035421ANGELICA BIRTHING HOME AND                              10502
A0101408400000001035421PEDIATRIC PRIMAR                                        20500
A0101408950396736406001DEFENSOR, MA. THERESA AMADOR                             0502
B0101409180000009085172HOSTELERIA UNO INC.                                      1605
A0101409210000009966723CONCHA, CHERI MAE GUANZON                                0501
A0301400820000018274172CALGAS, ANNA JANE N.                                     0501
A2401400180000012748653BALOFINOS, GEONAR LUCERO DBU GE                          0501
B2401400180000011299159SQUARETECH PACKAGING SOLUTIONS CORP                      1601
A2401400180000015944651CUI, ARIES S. DBU ACS-ARIES                             10502
A2401400180000015944651CONSTRUCTION SUPPLIES                                   20500
B2401400180411055117001KABRIGADA FOUNDATION, INC.                               1602
B2401400180411056150001GENSAN TBB & SONS MARKETING, INC.                        1603
B2401400180000007476897BRIGADA PUBLISHING CORP.                                 1605
A2401400180411345642001DR. FRANCISCO OR DRA. LORNA                             10510
A2401400180411345642001LORENZO                                                 20500
A1201400150421478374035DALAN, LINDA G.                                          0505
A0901400220000011299262THREE J BUILDERS AND DEVELOPER                           0504
A5101400100000010834250PARAZO, MARIE JULIE ROQUE DBU P                          0501
B0101406330472034895001PRIME MKTG. AND DIST., INC.                              1603
B0101406330000000432562EXPRESSPAY, INC.                                         1601
A0101406330000011106042REGINO, LORENZO RAMOS                                    0501
A0101410140000005945231SUNGA, JERILY TANGLAO                                    0502
A0501400170000000018248MONTEMAYOR, AILENE JOY SAMOY                             0501
A1901400320000011971830RIVERA, MARIA TERESA SUAREZ                              0503
A1901400160000000243661FRANCIS V. VILLAPANDO OR                                10501
A1901400160000000243661THERESA A. VILLA                                        20500
A1901400160000004730205PADILLA, IMELDA LEGASPI                                  0501
A1901400160491247707002GLORIA R BOOL                                            0510
A1401400110000006680260TAN, JUAN KRISTOFER ABULENCIA                            0501
B0701400260000000670980TOYOTA CAMARINES SUR, INC.                               1610
B0701400260000000671027ALL JORD TIRE SUPPLY CORPORATION                         1601
A0101407430000002298257ABDULLA, AISA PINEDA                                     0502
B0101407430503038048001CLASSIQUE IDEAS INTERIOR DESIGNS INC.                    1605
A0101403580000014727989DIZON, EDWIN BOY CHAVEZ                                  0501
A0101403580511693764001MESIAS, MARIA CARMINA SANTIAGO                           0503
A0101408530000011779983MENDOZA, BABY CRISTEENE FAJUTAG                          0501
B0101411400000001280557ROMEO B SIRA DBU RBSS PROJECT MANAGEMENT                11601
B0101411400000001280557SERVICES                                                21600
B0101411400517821100608**********                                               2001
B0101403450000001769902SACABEN, LOURDES IGNACIO DBU FOUR SQUARE                11603
B0101403450000001769902CARGO HANDLERS                                          21600
A0101403450521241173001**********                                               0501
A0101403610000007105819ABIERA, CARMINA JAVIER                                   0501
B2201400250000014378000*****                                                    1601
A0101404130000002329039HADJIYUSOPH, ANWAR PANGCAT                               0501
A0101407720602332279002CAYCO, ANTONIO V. OR                                    10501
A0101407720602332279002CAYCO, MARGARITA                                        20500
B0101412180000003275261CBII PHILIPPINES INTERNATIONAL, INC                      1605
A0101404260000000003903PEREZ, VERMONT RODRIGO                                   0501
B0101404260000004781368GENSHIELD SECURITY SERVICES INC.                         1605
A0101404260611150915001ANGELINA L. MANABAT                                      0501
B0101409920000005460602TOP-MAR METAL VENTURES CORP.                             1602
A0101413440000015535129MAGUIGAD, VANESSA QUIAMBAO                               0501
B0101413440000014245308ROD-JAS SECURITY AGENCY CO.                              1601
A0101413570000013901172BORRAS, FILOMENA PESTANO                                 0502
A0101413990000018030012BONDOC, RENEE ROSE RAMOS                                 0501
A0101413990000018030023HERRERA, CAMILLE YOUNG                                   0501
A0101414120000000875652PABLITO OR RONALD JOHN OR                               10503
A0101414120000000875652PRINCESS JOY OR                                         20500
A0101406590000000568714REVIL, VICENTE HOMER B. OR                              10501
A0101406590000000568714REVIL, JO KRISTINE                                      20500
A1301400340000014341830CASTRO, NARCISA DIMAANO                                  0502
B01014082400000064144331988 DEVELOPMENT CORPORATION                             1602
A2801400100000017730713TULAO, ELLEN ROSE ORTIGUERRA                             0501
B2801400100712021660002BIG IRON RESORT, INC.                                    1603
A2801400100712582575001LLANTADA, JOANNA LEE BACALA                              0501
B2801400230000009021830DGL 168 LAND INC.                                        1601
A4101400260000006043163YECLA, NORVIN GARCIA                                     0501
A4101400390000012266023QINGXIAN HONG                                            0502
B4101400420814064515003CITY OF IMUS DOCTORS HOSPITAL, INC.                      1601
A4101400550000002090831STANCE AUTO AND WHEELS SHOP                              0502
B0101404840000006365524METROALABANG DEVELOPMENT INC.                            1602
B0101406750852032718001PHILGREEN PLASTICS CORPORATION                           1602
A0101406750852043541001GRAFIX VENUE ENTERPRISE                                  0502
B0101405070861008154001KUMAR PLASTICS                                           1603
A0601400230000000990063**********                                               0508
A0601400230000014575814MOROJO, BASILIO JOSE SADANG                              0501
