A0101400600071233729001**********                                               0501
A0101400600071684249001******                                                   0503
A0101413150000003208335******                                                   0501
A0101402930000003179582GERNALIN, E DBU UNIMAN CONSTRUC                          0505
B0101402930381794289001ACCURACY INTERNAL BUSINESS SOLUTIONS INC                 1602
A5501400120000005492333ARARAL, MILESTONE DAVE ARAGON                            0505
A5501400120000005492220ROCKWELL, SHARON SILVA                                   0502
A5501400120410685210001GUINTIBANO, EDEN VILLARUEL                               0501
B0101400860011390602001**********                                               1605
A0101400860011462040002**********                                               0501
A0101400860011490477001**********                                               0502
A0101400860011505101001**********                                               0503
A0101400860000001005514**************                                           0505
A0101401250021178973001VICENTE S. BERNARDO OR                                  10510
A0101401250021178973001ARACELI C. BERNARDO                                     20500
B0101400150061040558001CORDILLERA EXPLORATION CO., INC                          1602
A0101400150000002749671LUSPO, RENELYN IGNACIO                                   0502
B0101400150061472779001ALPHA COURSE PHIL FOUNDATION INC                         1601
B0101405810072011390001MODISTE ACCESSORIES INC.                                 1603
A0101405810000001021172PUA, C DBU MCK SCHOOL & OFFICE                          10503
A0101405810000001021172SUPPLIES                                                20500
A0601400100081374563001SOLVASON, STEPHEN ROBERT                                10502
A0601400100081374563001OR MARIA THERESA                                        20500
A0101414090000003314930QUIMADA, MYRNA GUMANAY                                   0501
A0101406040000006014288REYES, PHILIP COLE DBU GREAT                            10502
A0101406040000006014288SPEED TRADING OR ALVIZ, H                               20500
B0101401830000000033638CARITAS SALVE CREDIT COOPERATIVE                        11603
B0101401830000000033638(MANDALUYONG)008                                        21600
A0101401830141531808002ROBERT VICTOR M. URGINO OR                              10501
A0101401830141531808002MA.CARMENCITA G. URGINO                                 20500
A0101412920000005193802IGARTA, MARK LOEL NAIG                                   0503
A0101400440000001439663MEDCON PHARMA                                            0502
A0101400440161478374008MARY FE I. REDONDO                                       0501
A0101400440161525001139JEMARIE S. SALUDAR                                       0501
A0101400440161621420002CANO, EDWIN SANTOS                                       0501
B0101407270162040113001EVERGREEN ENVIRONMENTAL RESOURCES INC.                   1605
A0101407270162485062001NORLY B. VILLANUEVA                                      0502
A0101407270162536579001ANGELITO DE JESUS DOMINGO                                0502
A0101401090171432366001MICHAEL RONALD OR                                       10502
A0101401090171432366001SHARIE MADARANG                                         20500
A0101401090000000210339MARICEL A. BALAIS                                        0501
A0301400530000000025345OROSET PHARMA, INC.                                      0502
B0301400530193063008001*****                                                    1601
A0301400660194741763001TIRADO, MARY MISAL OR TIRADO, R                         10502
A0301400660194741763001UEL TAPUROC                                             20500
B3101400160221029066001PANASONIC COMMUNICATIONS PHILS. CORP.                   11607
B3101400160221029066001EMPLOYEES' RETIR                                        21600
A3101400160221386295002ROBERT J. BANATIN                                        0501
A3101400740000006935528PEREZ, MENCHIE DAPOGRACION                               0501
A3001400130000001261103FERRER,ODELIO Y. OR FERRER, IVY                         10501
A3001400130000001261103M. OR VALEROSO,                                         20500
A3001400130230767566026URAG, EDECIO CUDERA                                      0501
A1001400350000000922014PEARSON, PILARCITA ROA                                   0502
A1001400350233536957001ALLA, GODOFREDO RIVERA OR ALLA,                         10501
A1001400350233536957001 CELESTE MARIE M                                        20500
A1301400470000000009925SALVADOR, EVANGELINE REYES                               0501
A0101406460000002330989********                                                 0502
B0101406620273028521001I-REMIT INC.                                             1602
B0101406620273460663001PREMIUMSOLE INTERNATIONAL CORPORATION                    1606
A0101408660000006296746SULIGUIN, RODERICK REYES                                 0502
B0101411820000003085141HARDCOM COMPUTER SYSTEM CO.                              1601
A0101400570281417780001JOYCELYN TAN TANZO, D.M.D.                               0502
B0501400200292036584001SSS EXPRESS CREDIT, INC.                                 1605
B0501400200292045909001*******                                                  1610
B0801400160000001289910ALLI RESOURCE DEVELOPMENT CORPORATI                      1601
A0801400160311478374004MAELYN HACERMIDA                                         0501
B1101400120000000652391ONG, VIRGINIA PO OR ONG, WEE CHI PO OR                  11602
B1101400120000000652391ONG, WAN LIAN PO                                        21600
A1101400120313478374009SORIANO, DEMALYN Q.                                      0502
A2901400130000005961128**********                                               0501
A2901400130000005961162SALAS, MICHAEL MANANSALA                                 0501
A0101402350000000019116BILLONES, BLESILDA ALBAR                                 0501
A0101405650000002960901BALUBAR, TEODORA VILLEGAS                                0501
A0201400760000005711035REYES, RUBEN NIKEO GOMEZ                                 0502
B0201400920000000007963THE PERSIMMON CONDOMINIUM CORPORATION                    1602
A0201400890376063113001DOPPIO COFFEE TRADING                                    0501
A0101402930381370821001CHIN C. CHIEN                                            0501
A0101408370000003775144AZARRAGA, E DBU HOLY KING                               10505
A0101408370000003775144LEASING                                                 20500
A0101408370382205131001DR. ELENA C. AZARRAGA                                    0504
A0101402770391476396003MA. LOURDES O. MAGSINO                                   0503
B0101405490000000019981H.E. & G. ENTERPRISES                                    1602
B0101409180397056094001REGUS SERVICE CENTRE, PHILIPPINES B.V.                   1610
B0101409210398015788001PETNET, INC.                                             1602
B0301400820409091735055DAVAO HOME BUILDERS CENTER OR LIMA,                     11603
B0301400820409091735055DIANA                                                   21600
A0901400220432582218001**********                                               0501
A0101403030441552227002CORDOVA, JOSEFA VALMONTE OR                             10502
A0101403030441552227002CORDOVA, LEOPOLD                                        20500
A3801400170490063085001EVANGELISTA, OLIVA ILAGAN DBU                           10501
A3801400170490063085001LALAINE COLLECTION                                      20500
A1901400160000007556763FELIX E PEREZ OR                                        10505
A1901400160000007556763PACITA P CULATA                                         20500
A1901400160491611832001VICTOR T NG OR DONALYN M NG                              0501
A14014001100000018069202AMES, EDGARDO LLAGADO                                   0502
A1401400110492300971001WILFREDO J. LAVAREZ                                      0503
B1401400110492365609001JEORGE S MALIGAT - PILIPINO HARDWARE AND                11601
B1401400110492365609001CONST. SUPPLY                                           21600
B0101403580511005607002RAM FOOD PRODUCTS, INC.                                  1605
B0101403580511023341003PAMAHAY DEVELOPMENT CORPORATION                          1601
A0101403580511403658005PACIFICO CASTANEDA                                       0504
A0101403580511649556131RIOS, LEORDIELLE REYES                                   0503
A0101405940512357111001LEONITA M. LABAYO                                        0502
A0101405940512462757003TERESITA CUEVAS/HELEN JAVINAR/                          10503
A0101405940512462757003JOHN DEE FLORES                                         20500
A0101408110000006952287CALUSTE, SANDY TUBLE DBU MLS                            10501
A0101408110000006952287STAINLESS STEEL                                         20500
A0101408110515297214001LOURDES C. ALDEA-SALVADOR                                0501
A0101408530516571877046PORCIUNCULA, ANA MARIE ALMERIA                           0501
B0101408530516687771001THE FRENCH PATISSERIE CORP.                              1605
A0101411790518055764322ENRILE, ANNE CELINE ROSALES                              0501
B0101412050000006005185CALDO JR., FLAVIANO DBU FMC ELECTRICAL &                11604
B0101412050000006005185INDUSTRIAL                                              21600
B0101403450521011967001ERNES REALTY CORPORATION                                 1601
A0101404000551553257001MARIA JANELLE J. CUSTODIO                                0501
A0101404000551553257001MARIA JANELLE J. CUSTODIO                                0501
B2201400250561041156008COLINTAN CORPORATION                                     1601
A2201400250000001932247CLDH EMPLOYEES CREDIT                                   10502
A2201400250000001932247COOPERATIVE                                             20500
A0101404130000005962398FETALINO, JENA FORMILLEZA                                0505
A0101404130000005962252CU, ANGELITO DEQUINA                                     0501
A0101407720602299636001GREGORIO GERRY F. FERNANDEZ                              0502
A0101407720602339048001CABRERA, ALFREDO DE JESUS                                0501
A0101407720602381785001GUZMAN JR., PATRICIO BALA                                0502
B0101407720602463868002MAKATI HEALTH SPECIALIST CONNECTION, INC                 1601
A0101412180000000037932*******                                                  0503
A0101404260611236168001BELTRAN, CONSOLACION C.                                  0501
A0101404260611487906002REYES, MA. SHARON FLORES                                 0502
A0101404260611490335001TAN, MARIA JENALYN TULIAO                                0502
A0101404260611709438001TAN, ERLINDA PALOMER                                    10501
A0101404260611709438001OR RONNEL TAN                                           20500
B0101409890000003098162STARICE GRAIN CENTER, INC.                               1610
A0101411530000002260242**********                                               0501
A0101413570000003380043SALVADOR, ALVIN ROI ESCUDERO                             0501
A0101413570000003379908CABANIG, MYRA MELAYA                                     0502
A0101413990000004511102MANALO, NORA LEGASPI                                     0502
A0101414120000001142790MAGHUYOP, ROMINIA BERNARDINE                            10501
A0101414120000001142790HERRERA                                                 20500
B0101414120000000399071KONSTRUTEK BUILDERS AND TECHNICAL                       11601
B0101414120000000399071SERVICES INC.                                           21600
A0101406590000003007030BATOCABE, MARY GRACE TABLIZO                             0501
B0101406590000000905511MAINEVENT AND MARKETING CORP.                            1602
A0101410300000006278562BALMACEDA, JOHN PAUL DIZON                               0501
B1301400210682041874002MBB ROYALE INTERNATIONAL INC.                            1605
A0101408240711547758001SALVADOR, DIOSDADO COSCOLLUELA                           0502
A4101400390000000500530ARCILLA, CAESYLYNNE FORTUNO                              0505
A4101400390813248327001SARIEGO, DANILO BAGONA                                   0501
A4101400420814520766033DELA CRUZ, MARILOU M.                                    0502
A4101400550000000981711SANCHEZ, CARMELA BEBSIE C.                               0501
A4101400550000006044377TANIMOTO, RODELIA UMALI                                  0502
A4101400550815693134001LLANES, TUDOR HERNANDEZ OR                              10501
A4101400550815693134001LLANES, PRESCILLA CARRIDO                               20500
A4101400550815693992001AMONDINA, MARIAN ORPIA                                   0501
A0101404840000004565891BEATRIZ P. REALCO                                        0502
A0101404840851520766073ELIZABETH A. SUAZO                                       0501
A0101404840851520766180CARMELITA M. BARBACENA                                   0501
A0101405070861395608001BASA, VIRGINIA NADELA                                    0501
A0101413860000002314272SEVILLA, MA. ELLEN SANTOS                                0502
A0601400230000001687118**********                                               0502
