A0101406880000006986972LINGON, MELANIE CABAHUG                                  0501
B3001400130000003434717RUELAN, NEIL POLICIOS                                    1603
A1001400480000000041523PO, MARILOU TRAJANO OR PO,                              10503
A1001400480000000041523MAUREEN TRAJANO                                         20500
B1001400480000003357817LINAAC JR., CECILIO GRANADA DBU LINAAC                  11602
B1001400480000003357817TRUCKING SERVICE                                        21600
B1001400480000003357880PBRAGANDANG DEVELOPMENT CORPORATION                      1602
A1101400120000002254902BARREDA, EDKENS MARASIGAN                                0501
A1101400120000003022413DUCENTES, GLORIA TROCINO                                 0501
A1101400120313570675001TIU, SAMUEL PO                                           0520
A2401400180000007031803DELLOSA, KERVIN LUKE DINOPOL OR                         10502
A2401400180000007031803DELLOSA, MARIA CECILIA D.                               20500
A1401400110000007186583BARRERA, NIEVALYN BABAO                                  0502
B1401400110000000167446SOUTHERN PROCESSING CORPORATION                          1606
A0101414120000001751446MARIA GRACE LACUESTA OR RICKY                           10503
A0101414120000001751446LACUESTA OR MILEAH                                      20500
A0101414120000002879743DE GUZMAN, JENNY MERLIE APOLINA                          0501
A0101414120000000398972ULDERICO MERCED TRUCKING                                 0504
B0101414120000004603398WEBLEND INC.                                             1601
A0101400150000008044251MEDINA, BRET JOSEPH ERICSON AGL                          0501
B0101400150061010962002PHILIPPINE WELDING SOCIETY INC.                          1603
B0101400150061047355001MARSMAN DRYSDALE MEDICAL PRODUCTS,                       1602
A0101400150061389261001AYSON, JOEL RAYMOND REDULA                               0502
A0101400150061444972001SARAH P. AGUDON                                          0503
A0101405810072319037001**********                                               0501
A0601400100000000786701BANAS, CESARLIE AMBASA DBU B &                          10505
A0601400100000000786701Y LAUNDRY SHOP                                          20500
A0601400100081253555002MENDIOLA, JOSEPHINE ADARVE                               0501
A0601400100081358072002NOEL C. DAVID                                            0505
A0101413280092064149001**********                                               0501
B0101401960121240911001WILLIE TEE                                               1605
A0101412630000002040642CAYETANO, DAVID GUEVARRA OR                             10505
A0101412630000002040642LIM, RICHARD                                            20500
B7201400170000003772981LADLAD, EMSA BANA OR LADLAD, JOSE JULIAN                 1601
B7201400170152058498001CHANG, ALAIN MICHAEL D. DBU STARLIGHT                   11601
B7201400170152058498001GENERAL MDSE.                                           21600
B0101412920160049766002THE REGALIA GROUP CORP.                                  1601
A0101400440161482033001CZARENO A. GONGORA OR                                   10501
A0101400440161482033001MARY HAZEL D. GO                                        20500
B0101407270162063089001REALITY ENTERTAINMENT, INC.                              1603
B0101407270162063091001MOTHERSHIP, INC.                                         1603
A0101407270162587936002WILFRIDO G. TIRONA                                       0501
A0101401090000003835927MASANQUE MEDICAL EQUIPMENTS                              0503
A0101401090171403802001SOLIS JR., FERNANDO REGALADO                            10501
A0101401090171403802001OR JUVY SOLIS                                           20500
B0301400790000001244531LAGARTO, SHECEL DBU SHEER DEW                           11602
B0301400790000001244531PURIFIED WATER                                          21600
B0301400790195053525001EMCELI PROPERTY HOLDINGS CORP                            1601
A3101400160221220185001CLEOTILDE C. MALABANAN                                   0502
A3101400450223221366002*****                                                    0501
A3101400450223491849001JAO, AUGUSTO RAZEL DOMINO                                0501
B3101400740000004509535MOLD PARTS MANUFACTURING ASIA INC.                       1605
A3101400740000006735857JARABELO, NATANIEL MADRID DBU                           10501
A3101400740000006735857COZY TREK RENT A CAR                                    20500
A3001400130230478374004BALABA, JANETH BORJA                                     0501
A3001400130230700871001MUNOZ, BALTAZARA ESCATRON                                0501
B1001400190231039789001MINDANAO ENERGY SYSTEMS, INC.                            1602
B1001400190231064199001NILEFOODS, INC                                           1601
A1001400350233042653001BLUE ENERGY RESOURCES                                    0502
A1001400350233528399003KO, JOSE NELSON AND                                     10501
A1001400350233528399003KO, CHARMAINE                                           20500
A1001400350233770191001PATRIANA, LINDY CASTILLO                                 0501
B1001400480000004097121DABA, ANNIE DBU RICHFIELD AGRICULTURAL                  11602
B1001400480000004097121SUPPLY                                                  21600
B1001400480000007775253DELTA FIVE AGRI-VENTURES CORPORATION                     1603
B1301400470000007862777FUND LINK CREDIT AND LOANS, INC.                         1602
B1301400470000003270113OBRIGADO LENDING INVESTOR, INC.                          1601
A1301400470252559078001MERCEDITA GON GELACIO OR                                10501
A1301400470252559078001JOSE R. GELACIO JR.                                     20500
B0101401670271038486001POWER FASHION INC.                                       1605
A0101401670271188321001ALFONSO C. STO. DOMINGO OR                              10503
A0101401670271188321001DAHLIA P. STO.DOMINGO                                   20500
A0101401670271518087001* * * * * * *                                            0501
B0101406620273021370001YOUNG'S PAPER SALES, INC.                                1602
A0101406620273214432002RAYMOND PETER UNLAY OR                                  10502
A0101406620273214432002CHRISTINE UNLAY                                         20500
A0101406620273403501001BASA, CATHERINE VIRAY                                    0501
B0101408660000000034324GOLDILOCK'S BAKE SHOP, INC.                              1603
B0101410980000000171975AMMC - AVERY MANILA MARKETING CORP                       1602
A2601400270000002312203FELICIANO B. SEMANA                                      0501
A0801400160311267160001SUSAN UY REYES                                           0501
A0801400160000002287590**********                                               0501
B1101400120313611247001PORMIDA, PRIMO CHU JT                                    1602
A2001400290000000724890RAYMOND, PRISTINE MARTINEZ OR                           10501
A2001400290000000724890RAYMOND JR., JOH                                        20500
B0101402350321039906001SHAWN MARTI ENTEPRISES                                   1605
A0101405650000000348890PINEDA, KRISTOFFERSON GONZALES                           0501
A0101402510000005284620SANTOS, RUTH ROMAN                                       0502
A0101409050000003533606CAROLINE VICTORIA A. REGALA                              0504
A0201400760000001144683VALENCIA, MARUEL ALIBIO                                  0501
A0201400890000002270231CORTES, MARICEL M.                                       0502
A0201400890376520766002TAJANLANGIT, JUDITHA                                     0502
A0201400890376633154002JIMENEZ, PETER UTLANG OR                                10502
A0201400890376633154002JIMENEZ, MARIA T                                        20500
B0201401020377249471001COMMONWEALTH INSURANCE COMPANY                           1602
B0101408370382037523001THE MEDICAL CITY, SECTION OF PULMONOLOGY                 1602
A0101408370382319789001ROCHELA B. CUAYCONG OR                                  10502
A0101408370382319789001CESAR A. CUAYCONG                                       20500
A0101408370382629554001JUMAWAN, JOHANNA BARGOLA                                 0501
A0101408790000007026508MA. CARMELA F. ARIOLA                                    0501
B0101408790000003845761DESIERTO AMMUYUTAN PURISIMA AND DESIERTO                 1605
A0101411660000000109311**********                                               0501
B0101415350000005028933DE DIOS, MA. REGINA G. DBU GRABENGO OR                  11610
B0101415350000005028933DE DIOS, ARIEL F                                        21600
A0101402770391022532001VIREX ENTERPRISES                                        0501
A0101405490000005566292JAPOS, JEANETTE UY                                       0501
A0101405490392034138001MCMAR & MARY ELECTRICAL                                 10501
A0101405490392034138001& CONSTRUCTION S                                        20500
A0101408400394416106002BARRA, REINE NG                                          0501
A2401400180411487779008LIM, CARLITO TAN                                         0501
B1201400150000000034380THE LORD IS MY SHEPHERD CHRISTIAN MINIST                11601
B1201400150000000034380RIES BAGUIO CITY                                        21600
A0101403030441029489001**********                                               0506
A0101406330000000451370VILLARANTE, MARIA LUZ PELAYO                             0502
A0101406330000002277938BULOSAN, KRISTELL RAYMUNDO                               0501
B0101406330000000432642ZEKE VENTURES PHILS. INC.                                1606
A0501400170481317383001FERNANDEZ, CLARISSA TOMAS                                0501
B1901400160491341189001VIRGINIA R VARGAS OR                                    11601
B1901400160491341189001RICHARD D LIM                                           21600
A1401400110492367614001DE MESA, CECILDA LAGAR JT                                0502
A1401400110492622560001MORATO, CHERRYL DECHAVEZ                                 0502
B0701400260000000041083MULTI-WARE ECON-SALES CORPORATION                        1603
B0701400260495037805002PRINCETON ENTERPRISES                                    1601
A0101405940000000505980MARTINEZ, M DBU MARIA THERESE                           10503
A0101405940000000505980FLOWER SHOP                                             20500
B0101405940512510160001SIMPLY GREAT DELI INC.                                   1604
A0101405940000000505775ROXAS, LINCOLN CHAN                                      0502
A0101406880513512239001***********                                              0502
A0101408530000002980692ARCOS, MARIA TERESA CENAR OR                            10502
A0101408530000002980692ARCOS, GILBERT T                                        20500
B0101408530000007318001INNOVANTAGE INC.                                         1602
B0101411400000001280626POWER QUALITY ENGINEERING LIMITED-R                      1605
A0101403610531533594001ARGANA, AGNES USANA OR                                  10501
A0101403610531533594001ARGANA, ALVIN A                                         20500
B0101404000551005037001CONRAD & SONS REALTY INC.                                1605
B0101404130601045788001BIOMEDICA HEALTH CARE INC                                1603
A0101407720602396366001BRAVO, ARLENE RICARTE                                    0502
B0101412180000001293016JENNIEDEDIOS INC.                                        1603
B0101404260611023318001EUNEE TRADERS AND CO. INC.                               1610
A0101409920650478374011MELFLOR M. SILVINO                                      10501
A0101409920650478374011MEMBERS OF NATASHA                                      20500
A0101407690000003207230URBIZTONDO JR., GODOLIVO BUNIEL                          0501
B0101407690000007720169MATTERHORN MOTOR INC.                                    1601
A0101407690652020765001STARIAN MARKETING                                        0505
B0101407690652505889001VANCOUVER HILL PRESCHOOL, INC.                           1601
B0101411530654821100608**********                                               2001
A0101413570000007307902ANNA RITA GENEROSO                                       0501
B0101413990000000206113DRCB SQUARE CONSTRUCTION AND DEVELOPMENT                11602
B0101413990000000206113CORPORATION                                             21600
A0101413990000004838068BOTES, ESTRELLA BREDES                                   0501
B0101406590000003007303STUDY PALS ABC INC.                                      1601
B0101406590000003007336OUTBOUND EDUCATION AND INTERNSHIP I                      1601
B1301400210000005041007***                                                      1602
A1301400340683456739001LAZATIN JR., EDUARDO NIONES                              0501
A0101408240711441984001SANTOS, MARIA VIRGINIA QUESADA                           0501
A0101408240711542230001ADRIANO, GLENDA TULAY                                    0501
A2801400230000005752401SERVANT ARTS & SIGN                                      0505
A4101400260812478374058DHIESEL M. SAULOG                                        0501
A4101400420000000120710APOSTOL, MICHAEL DE VERA                                 0502
A4101400420000004848119JANOLO, THERESA HERNANDEZ                                0501
B4101400420814010838001INFORMATICS COMPUTER INSTITUTE, INC                      1605
B4101400420814034216001BETHANY BIBLE BAPTIST ACADEMY,                          11603
B4101400420814034216001CAVITE INC.                                             21600
A4101400420000000710041REYES, DANTE C.                                          0501
A4101400420814520766135MOTILLA, ROSELLE                                         0502
A4101400420000002345280ACOL, FELOMINA ADOAN                                     0502
A4101400420000004848051MEMBERS OF NATASHA (SHOECAT INC                         10501
A4101400420000004848051ROSALES, NOEMI A.                                       20500
A4101400420814572265004MA. THERESA A. CHICA                                     0502
A4101400550000006044435PARTOSA, ERMILITA MACABUTAS                              0501
A0101404840000005820526BUYERS AND SELLERS DISTRIBUTORS                          0501
A0101406750000000358207TABERNA, SYRELLE CRUZ                                    0503
B0101406750000000090708GLOBAL ACCESS FINANCIAL SERVICES, INC.                   1603
A0101406750852298552032FLORDELIZA L. RETARDO                                    0501
