F0601400360000000978925RONDAYVU MANUFACTURING                                  12601CK1
F0601400360000000978925CORPORATION                                             22600CK1
F0301400110191059510002ZOOFARI GROUP INC.                                       2605CKR
F0101401670000006812393ANGLINYA-LINYA ENTERPISES CORP.                          2601CK1
F0101401670000008000853ANGLINYA-LINYA ENTERPISES CORP.                          2601CK1
F0101400570281042885001COCO DAVAO, INC.                                         2603CKR
F0201401150378042514008SOUTHERNPHIL DEVELOPMENT AND                            12601CKR
F0201401150378042514008MARKETING CORP.                                         22600CKR
F0101407300000000027789METRO ANTIPOLO HOSPITAL AND                             12602CKR
F0101407300000000027789MEDICAL CENTER                                          22600CKR
F1901400160491040836004DR MA JOYCELYN R MERCADO                                 2501CKO
