A0101408530000000035981LORRAINE L. LAVARRO                                      0501
A1901400320000000041170LEONCIO REQUIRIDO D CATAPANG                             0501
A0101413990000000205898**********                                               0502
A0101409050000000258360ILAGAN, CHRISTOPHER MATTHEW AND                          0501
A0101410560000000268331ROSE MARIE S. BRAZIL                                     0501
A4101400550000000506869**********                                               0503
A4101400260000000541159REMOLACIO, MARIA DOLOR DURAN                             0501
A2601400270000000561540KRISTEL MAY D. DY                                        0501
A1101400120000000652380CAYUBIT JR., SERAFIN ASERON                              0501
A0101401380000000792201HERRERA, OLIVER BAETIONG                                 0501
A0101403580000000922598VIRSIL O. FLAMINIANO                                     0501
A4101400260000000974045ANTONIO, WILFREDO GALANG                                 0501
A0101412890000001056575UDOG, MA GINA SAN PEDRO                                  0503
A0101412500000001147040****                                                     0501
A0101403610000001174943MIR & RYVI HOME OF ORGANICS COM                          0502
A0301400820000001185735DALUMPINES, SHERYLL M.                                   0501
A0701400260000001231981SABIDO, CECILE ANG                                       0501
A0101413990000001406462CABALTERA, JONALYN PRECIOSO                              0501
A0101403320000001646846DAISY MAE B. DOMINGO                                     0501
A0101412630000001823423SANTIAGO, AMABELLE REYES                                 0501
A0101400440000002249743DEL ROSARIO, MARIE MADELINE M.                           0501
A3401400280000002323440ONG, MARY DAPHNIE DIOSO                                  0501
A0101412890000002747824************                                             0501
A1101400120000003197040ROSILLO, ROSIE CLARIDAD                                  0502
A0101407690000003207172GABIA, MYLENE BUISAN                                     0504
A0101400150000003322403MICHAEL Q. RECTO                                         0502
A0101413570000003379908CABANIG, MYRA MELAYA                                     0501
A0101409050000003536270URETA, GIDEON                                            0501
A0101408110000003958276ACEVEDA, PRECIOUS POLISTICO                              0501
A0101408110000003958287BERMA, ANTONETTE ARROZ                                   0501
A0101408110000003958298JUSON, BENJAMIN GUMBAN                                   0501
A0101408110000003958301COSTELO, SHARON VILLARDO                                 0501
A0101408110000003958323MIKRUT, MACIEJ STANISLAW                                 0501
A0101408110000003958334MODRIN, STOYAN                                           0501
A0101408110000003958345ZAPANTA, LYNNEL MANAHAN                                  0501
A0101406620000004079590LAGMAN, JOSE JOSEPH SANTANA                              0501
A0101400860011493899001**********                                               0505
A0101400860011541655001**********                                               0503
A0101401700041681821001******                                                   0502
A0101400150061341245014LIM, ROBERTO CECILIO                                     0501
A0101405810072374800001**********                                               0505
A0101405810072381557003MATEO, ANALYN CASTILLO                                   0504
A0101405810072393833001**********                                               0501
A0601400100081251939002ELIZARDO OR WILMA MARTINEZ                               0502
A0101400440161030637001AREMCI BUILDERS                                          0510
A0101400440161525001174RIZALYN V. GUNTANG                                       0505
A0101401090171198420002GIL A. CAUYAN                                            0501
A0101401380201554626001BANGURAN, MYRNA BRINGAS                                  0501
A3101400450223612365001ARAGO, ANDREW HIZON RODA                                 0502
A3101400740224087806001NECESARIO, EDUARDO PASTOR                                0502
A1001400190231520766023NARISMA, SUSAN EDUSMA                                    0502
A0101401670271508917001KARL BENEDICT R. FAVILA                                  0501
A0801400160311478374008RODELYN LEBUNA                                           0501
A0801400160311478374102MA. CECILIA A. AVANCENA                                  0501
A6601400120314674720001OSITO SOMORAY JR.                                        0501
A0101408820333335130001ANTONIA S. GORRE                                         0502
A0101402640361350652001MILAROSA OR HONORATO CUERDO                              0501
A0101402640361762101001VINLUAN, IVY LIEZL HENSON                                0501
A0201400760374797465001SITOY, ARLEIGH JAY CONSULAR                              0503
A0101408370382795237001DR. LUIGI PIERRE S. SEGUNDO                              0501
A0101402770391041864001LANDMARK BUILDERS                                        0505
A0101408400394563581001ISON, AMERIZZA GOMEZ                                     0501
A0101408950396294877001DR. REBECCA BAUTISTA SINGSON                             0502
A1201400150421252679001JIMENEZ, EDUARDO ARCEO                                   0501
A1201400150421392226001BAGYAN, REMEDIOS BITAGA                                  0502
A1201400150421611362001ESPIQUE, MELBA LIWAN                                     0502
A0101403320471608694001PASCUA, NANCY NAKPIL                                     0501
A1401400110492575977001HERRERA, MA. BULAKLAK ROSAS                              0501
A0101403580511156550002SARITA S. GARRATON                                       0503
A0101403580511291930002JOSUE IGNACIO SENGCO                                     0501
A0101403580511327187012MARIA LEAH TOPACIO                                       0502
A0101411790518055815096RANA, FATIMA LIORA LLIDO                                 0501
A0101403450521213501001KHO, DAVIDSON ONG                                        0501
A0101403450521238138001**********                                               0501
A0101404000551166600005EVELYN SORONGON                                          0501
A0101407720602294485002JUGO, GIOVANNI JOSE                                      0502
A0101404260611343821001FONTANOZ, EDGAR OR JUDITH                                0505
A0101404260611478374097MILA B. RIELO                                            0501
A0101407690652034806001BROWNFLY COMMERCIAL                                      0504
A0101407690652656697001FERNANDEZ, EVA RIVERAL                                   0501
A0101407690652774968001NATAVIO, ROY REMUS CAYETANO                              0501
A1301400210682037806001MANG PABLING MARKETING                                   0502
A1301400210682369726001EMELITA S. CALAYAG                                       0501
A1701400230693711027001AGUSTIN, FERDINAND MENOR                                 0501
A0101408240711420351001SORIANO, PAUL DAVID DEL MAR                              0507
A0101408240711593767001JOCSON, ARLENIE TELEBRICO                                0501
A4101400260812039607023MONTALES, MA. GLERISSA                                   0501
A4101400420814281659001MORALES, LALAINE DIATO                                   0501
A4101400420814520766033DELA CRUZ, MARILOU M.                                    0502
A4101400420814581107001TOLEDO, ROCKY CONCEPCION                                 0501
A0101406750852478374096MARILOU M TERANA                                         0501
A0101405070861197496001DE JESUS, JOSEFINA                                       0502
A0101405070861478374067TIRSO M. ARROJO JR.                                      0502
A0101413020000000056988AGUSTIN, FL DBU FIX AND CARE                            10502
A2601400270000000561682JANET A. GELACIO OR                                     10501
A0101405070000000741315MOSENABRE, DECOROSO PULGO OR                            10501
A0101413440000002846400STO. DOMINGO, JESSE J. OR                               10502
A0101401700041190625004GELLEGANI, ADELIA AGUINALDO OR                          10502
A0601400100081040294001MOIKAI INDUSTRIAL SUPPLIES AND                          10502
A0801400160311380582001CHUA, ANDREW UY OR                                      10501
A0101405650322400866001LEVISTE, PANCHO M. OR                                   10502
A0201400760374550346001COLE, MELISSA VILLADOLID OR                             10501
A0201401020377779072001DEE, MICHAEL IAN NGO OR                                 10501
A0101408400394403584001FELIZARDO M. ROMERO OR                                  10501
A0101403320471047588001RHINA JENEPER C. LIBIRAN DBU                            10502
A0101406330472216134001BERNARDO L. MIRANDILLA OR                               10501
A0101403580511026941001CECILIA NARVAEZ Y DISENOS                               10502
A0101407720602161863005ROBERTO K. MACASAET OR ROBERTO                          10501
A0101407690652520766012CLARITA BUENAVENTE - DEALERS OF                         10503
A0101407690652525001079AILYN C DIZON - DEALERS OF                              10501
A0101413440655055766001DOLLY DIANNE DUNGO MIRANA DBU                           10502
A1301400340683367953001FELLO, ROSEMARIE RODIL OR                               10502
A0101408240711618385001RONALD MANESE OR LEO PRINCIPE                           10502
A0101413020000000056988REF & AIRCON REP                                        20500
A2601400270000000561682BARTOLOME L. GELACIO                                    20500
A0101405070000000741315MOSENABRE, VILMA LORESTO                                20500
A0101413440000002846400STO. DOMINGO, MARIVIC C.                                20500
A0101401700041190625004CINCO, ANNA                                             20500
A0601400100081040294001AUTOMATION SERVI                                        20500
A0801400160311380582001CHUA, PAMELA G.                                         20500
A0101405650322400866001LEVISTE, EDITHA                                         20500
A0201400760374550346001COLE, BONIFACIO                                         20500
A0201401020377779072001DEE, WENDY GOIPE                                        20500
A0101408400394403584001FLORDESETS V. ROMERO                                    20500
A0101403320471047588001R-GENESIS DRUG STORE                                    20500
A0101406330472216134001DAISY B. MIRANDILLA                                     20500
A0101403580511026941001INTERIOR                                                20500
A0101407720602161863005M. MACASAET JR.                                         20500
A0101407690652520766012SHOECAT INC.                                            20500
A0101407690652525001079SHOECAT INC.                                            20500
A0101413440655055766001NINI AND STITCH GARMENTS                                20500
A1301400340683367953001FELLO, BISMARK C                                        20500
A0101408240711618385001OR PIO RENATO VILLACORTA                                20500
B0101407690000000025032GOLDLINK NETWORK SOLUTIONS INC.                          1601
B0101408950000000036859ROTARY CLUB OF MAKATI DASMARINAS                         1601
B0101403580000000214742HELSINKI TOURS AND TRANSPORT, INC.                       1605
B0101407690000000243930M & HC EQUIPMENT PHILIPPINES INC.                        1601
B0101409050000000258571CITY MARQUE LIMITED                                      1603
B0101402480000000310534QUALIGEN PHARMACY CORP.                                  1603
B0101400440000000337860SEACHON, JOSEPH CLEMENTE                                 1601
B0101410560000000757251MERCADO GENERAL HOSPITAL, INC.                           1603
B0101400600000001335637**********                                               1602
B0301400820000001554672TRUMPH MOTORCYCLE CORPORATION                            1601
B0101400150000001708583FLT PRIME INSURANCE CORP                                 1601
B0101412890000001765255DIAMOND MOTOR CORPORATION                                1602
B0101408820000001766890********                                                 1602
B0101400730000002102323OCS CREDIT COOPERATIVE                                   1603
B0101411950000002691278M.D.F. ENTERPRISE                                        1605
B0101400860011374845003**********                                               1601
B0101400150061011038001114 VALERO CONDOMINIUM CORPORATION                       1602
B0601400100081387015002KWONG JR., WILLIAM OR KWONG, WILLIAM                     1602
B0101400440161037708002RD CASH PADALA, INC.-AREA 1                              1603
B0101401670271020886001AR INSURANCE AGENCY, INC.                                1602
B0101406620273021370001YOUNG'S PAPER SALES, INC.                                1602
B0101405650322024999001SUPERIOR MAINTENANCE SERVICES, INC.                      1630
B0101402480331033229020TGP DRUGSTORE                                            1603
B0101402480331541505011PHARMAGENERICS, INC.                                     1603
B0101408820333042084001********                                                 1601
B2401400180411056681001RMT ACCESS LINK ENTERPRISES, INC.                        1601
B1201400150421035585001HOTEL COSMOPOLITAN                                       1601
B0101406330472034614001TRI-SM PROFESSIONAL SERVICES, CO                         1603
B0101407430503020620003ROTARY CLUB OF PALANYAG - PARANAQUE                      1601
B0101403580511005400001IA CAMPBELL & ASSOCIATES INC                             1606
B0101403580511015363076MEC - TMR 2                                              1603
B0101403580511037494001MAGENTE BPO CO. LTD.                                     1602
B0101404130601047731001RICH MEDIA MANILA INCORPORATED                           1602
B0101404130601621189001PROPEL MANILA 360, INC.                                  1602
B0101407720602697838001NCT SPA CORPORATION                                      1601
B0101407690652041404001AUBURN POWER TECHNOLOGIES INC.                           1601
B1301400210682248659001ASIANLAND STRATEGIES CORPORATION                         1605
B4101400260812043808001UPLIFT CAVITE HEAD OFFICE                                1605
B0101405070861028566001AVESTA REALTY, INC.                                      1602
B0601400230891028013001OCAMPO'S MARKETING, INC.                                 1602
B0601400230891040013001OCAMPO'S METROSALES INC.                                 1602
B0101401250021006627002STA. CLARA PARISH CREDIT                                11601
B0601400100081256915005KWONG, WILLIAM G. OR                                    11603
B0101401250021006627002COOPERATIVE                                             21600
B0601400100081256915005ANTONIO, ADELA                                          21600
B0101407690652821200608**********                                               2001
