B1401400110492821100608**********                                               2003
A3001400130000009103662SERRANO, GENELIN                                         0502
B6601400120000005195973TANGHAN CORPORATION                                      1601
A0301400950000005707080*************                                            0501
A3001400130230478374026SONOT, RODERICK AMAHOY                                   0501
B0101400860011305536001**********                                               1601
A0101400860011393568001***********                                              0502
A0101400860011451981001**********                                               0501
A0101400150000012145878IMMANUEL C. VERGARA OR JANINE                           10501
A0101400150000012145878MAY P. VERGARA                                          20500
A0101400150061229576001JOSEPH P. LUMAGUI OR MA.                                10501
A0101400150061229576001VICTORIA Y. LUMAGUI                                     20500
A0101400150061396165001SANTIAGO, MA. SOCORRO S. OR                             10501
A0101400150061396165001PACIFICADOR, AIN                                        20500
B0101400600000005943251********                                                 1602
A0101400600071233715002********                                                 0502
A0601400100000015054845GUARIN, JOHN PATRICK MESA                                0501
A0101413280000000041807JANINE GEROY ARELLANO                                    0502
B0101410850000014429991GLOBAL ORIENT BATANGAS TRADING CORP                      1601
A0101400730000011634854VITUG, CRISOSTOMO BELTRAN                                0502
A0101401830141396392001ARMAND MARIO LUIS M. ZAFRA                               0501
B7201400170152060597002JAVAVED DEVELOPMENT CORPORATION                          1604
A0101400440161548266001VICTOR S. GONZALES OR ALMA A.                           10502
A0101400440161548266001GONZALES                                                20500
B0101407270162040113001EVERGREEN ENVIRONMENTAL RESOURCES INC.                   1605
A0101407270162379916001MA. LOURDES A. DE GUZMAN                                 0502
A0101401090000005320369LAXA JR., ADORABLE PINPIN                                0501
B0101401090171037620001UST THOMASIAN ALUMNI LEADERS                            11601
B0101401090171037620001ASSOCIATION INC.                                        21600
A0101401090171309046001CESAR M. VELASCO JR.                                     0501
A0101401090171330568001FELICIDAD G. PERENA                                      0501
B0301400530193041076168BLACK FIGHTER SECURITY AGENCY, INC                       1610
B0301400660000012086623DVO ALUMINA INDUSTRIES, INC.                             1602
A0301400950000006080257TOUGH18 TIRE MARKETING                                   0502
A3101400160221064810001GUEVARRA ARKITEKTURA DESIGN AND                         10502
A3101400160221064810001CONSTRUCTION                                            20500
A3101400160221386295002ROBERT J. BANATIN                                        0502
B3101400740000010238898EDAPHILIPPINES INDUSTRIES INC.                           1601
A3001400130000002063474ANTIPASADO, ROMELITO ALISOSO OR                         10510
A3001400130000002063474ANTIPASADO, ANGELA M                                    20500
A3001400130000008916361PATERES, RICARDO M OR PATERES,                          10502
A3001400130000008916361EMILY U OR PATERES, HELEN                               20500
A3001400130000014167074SANCHEZ, RICKY LEE                                       0501
A1301400760000008698968GILBERT TAYAO OR TIRSO FRANCO                           10502
A1301400760000008698968JR. OR DANTE HILARIO                                    20500
A0101401670271289633003LIM, ROSARIO C.                                          0501
B0101406620000009695389LINKWISE TECHNOLOGY PHILIPPINES INC                      1602
A0101406620273528771002***************                                          0501
A0101408660274521676001MABASA, CARISSA MOONYEEN S. OR                          10501
A0101408660274521676001MABASA, GERARD Q                                        20500
A0101408660274568066001LIM, LUISA O.                JT                          0503
A0101400570281188687001LORGENE A. MATA OR                                      10503
A0101400570281188687001CLARISSA MATA                                           20500
A0101411240000014877071LIM, LAILANI RAMOS                                       0501
A0101411240000015036865LEE, VERONICA YU OR LEE, JON                            10501
A0101411240000015036865SALVACION YU                                            20500
A0501400200000013602374ANCHETA, REMEDIOS PARAN                                  0501
B2601400270000011716482MICHAEL P. HOU DBU HOU TOWN RICE MILL OR                11605
B2601400270000011716482XIAOXIA U. HOU                                          21600
B0801400160000011219582WINEGARD MARKETING, INC.                                 1610
A6601400120000013857793AMANDE, BEATRIZ N DBU BETTY'S                           10501
A6601400120000013857793GENERAL MERCHANDISE                                     20500
A0101402510000013485582RAGOS, KATHLEEN CHARMAINE                               10502
A0101402510000013485582SAN JUAN                                                20500
B0101402510341058757001RCAM-NATIONAL SHRINE OF SAINT                           11606
B0101402510341058757001MICHAEL & THE AR                                        21600
A0101402060000009179928MANIBO, JOEL RAMOS                                       0502
A0101402060351040443001Q-TECH TESTING LABORATORY                                0505
A0101402060351479109001ALMADEN, ROSALINDA CLACIO                                0501
A0101402930000013313956DR. PAULA BLANCA O. ALBA                                 0501
A0101408370382207011001DRS. GERARD C. AGCAOILI OR                              10502
A0101408370382207011001MA. THERESA C. AGCAOILI                                 20500
A0101408370000011986426LUCIANO, MICHELLE VILLALUZ                               0502
A0101408370382391284001MA FELICIA CORAZON E. LACANILAO                          0501
A0101408370000009296728FATIMA ANGELICA B. CAMPANA OR                           10502
A0101408370000009296728IMELDA B. CAMPANA                                       20500
A0101408790000000599960BARRAIRO, ERINILLO CARILLA                               0501
A0101415350000013691404PERALTA JR., GUILLERMO MACARAEG                          0501
A0101405490000006300152OGOT, PABLITO BINUNGCAL                                  0502
B0101405490000008380661GOLDENCITY NATURALS PHILS. CORPORATION                   1602
A0101408400394425846001LORENZO, ANGELINA  OR                                   10501
A0101408400394425846001LORENZO, JESSE N                                        20500
A0101408950000011077820*****                                                    0501
B0301400820409091735055LIMA, WINDELL BRISTOL DBU DAVAO HOME                    11601
B0301400820409091735055BUILDERS CENTER                                         21600
A2401400180411272602001HELEN B. NOGRALES OR EDDIE                              10502
A2401400180411272602001NOGRALES                                                20500
B0101403030441303194001**********                                               1605
B0101403030441761061003*********                                                1601
A0101412890000009833667LIM JR., WILSON LAO                                      0501
B0101406330472314132001*****                                                    1601
B0501400170481038907001JODERON AUTO SUPPLY                                      1605
A0501400170000006300629GAZMEN, ARNEL GERARD RAYOS                               0502
A0501400170481400649001REYNA, CICEL MANAOIS                                     0501
A1901400160000000243592CARLITO RAMOS BAGON JR.                                  0501
A1901400160000009054973FRANCIA, MARIA FATIMA TAN                                0503
B1901400160491012917001ALPS THE BUS INC.                                        1610
B1901400160491341189001VIRGINIA V LIM OR                                       11601
B1901400160491341189001RICHARD D LIM                                           21600
A1401400110000011337670ESTANIO, CARMELITA MAPALAD                               0502
B1401400110492013980002IMPERIAL APPLIANCE PLAZA                                 1601
B0701400260495821100608**********                                               2002
B0101407430000011167445DAVAO AGUILAS, INC.                                      1602
A0101407430000002298315EXCEL A. GRESOS                                          0501
B0101403580000013963829PGA SOMPO INSURANCE CORPORATION                          1601
A0101403580511156550004CESAR A. AVERIA                                          0505
A0101403580511196754001CARMELITA E. LA O' JT                                    0501
A0101403580511326292001HELENE ORDONEZ OR BELINDA RAMOS                          0501
A0101403580511362753001ANNIE P. MENDOZA OR                                     10502
A0101403580511362753001JULIAN J. MENDOZ                                        20500
B0101403580511575114002TIGER 22 MEDIA CORPORATION                               1610
B0101403580511675350001EMPOWERING BRILLIANT MINDS                              11603
B0101403580511675350001FOUNDATION INC.                                         21600
A0101405940000012443402ZAMORA, CHRISTINA BUTALID                                0501
A0101405940512474569001MANAOIS, CYNTHIA HISTORILLO                              0502
A0101408530000008766856**********                                               0501
A0101411790000007750065REYES, PRINCESS NICOR                                    0501
A0101403610000011127950PILI, RUEL SANTIAGO OR PILI,                            10501
A0101403610000011127950GISELLA ALVAREZ                                         20500
B2201400250561044209001GO TRAKTORA TRADING                                      1602
A2201400250561327334001ESPINOSA, CONCEPCION QUANICO                             0501
A0101409890000002326774NGO, WILLIAM CHUA                                        0501
A0101407690652173311001RS JARDIN & ASSOCIATES                                   0505
A0101410300000000026462SYCIP,JOHN CARLOS/BANTIGUE,JOHN                         10510
A0101410300000000026462PAUL/ESQUIVIAS,J                                        20500
A1301400210682325433001WILHELMINA DC DOMINGO                                    0501
A1701400230000011517423PAZ-TAN, LIZA MARIE RIOS                                 0501
A4101400260000015053244SARCENO, KARYLL KAY SALOPISA                             0501
A4101400260000015053459TAYLO, DARWIN MALIHAN                                    0501
A4101400260000015053539FABIALA, DANILO MINON                                    0501
A4101400260000015053620MANANGAN, ROVINSON JOHN CARINO                           0501
A4101400260000012863840CLEMENTE JR., IGNATIUS ANTONIO                           0501
A4101400260812604344001GOLDA MARIE A. HUBAHIB                                   0501
A4101400390813298552034THELMA S. DE JESUS                                       0501
B4101400420000006643387LEAD WITH INTEGRITY AND GOOD GOVERNANCE                 11605
B4101400420000006643387IN HELPING COMMU                                        21600
A0101412340000000224079ROSANA, CZARINA KAYE TIQUI                               0501
A0101406750852529156002DONGUINES, FLORDELIZA EULLARAN                           0503
B0101405070861022986001SEVEN RED DIAMOND CORPORATION                            1610
A0101405070861197518001RICARDO G. CHAN OR                                      10504
A0101405070861197518001OLIMPIA C. CHAN                                         20500
A01014050708611979700020KA, TOSHIKATSU                                          0503
B0101405070861457027001SJCM PROPERTIES, INC.                                    1603
A0601400230000002650120CAO, MARIA THERESA TUBIG                                 0502
