A0101411240000000012033**********                                               0502
A2401400180000000019849DELA CRUZ, JOYCE SAGAYDORO                               0502
A5001400170000000213885PONDOC, NAOMI BACSAN                                     0501
A0101411950000000490824BIADO, JINNY CAGAMPANG                                   0501
A0101403320000000522085SARMIENTO, LEAH GRACE SUPELANA                           0501
A0101413440000000570369CUEVAS, MELANIE ELAINE JAVIER                            0502
A0101400440000000821312FRANESKA B. MARTIR                                       0501
A0101413310000000863970************                                             0501
A1001400480000001054784LONGOS, CHIMBEE CABIGUIN                                 0501
A2201400250000001066006BERLYN T. COSTALES                                       0505
A0101413570000001069596JOHN ROSS R. DELA CRUZ                                   0501
A1301400210000001206882MEMBERS OF NATASHA (SHOECAT INC                          0501
A3001400130000001261169LIM, MICHELLE ZOSA                                       0502
A0101403320000001646631SANTIAGO, LEILANI SANTIAGO                               0502
A2401400180000001677001WONG, RUDILYN ARSA                                       0501
A1401400110000001806920LAMES, EDGARDO LLAGADO                                   0501
A0101412630000001823365MUNCADA, JOSEPHINE SO                                    0503
A0101413860000001886980LUMBAY, M DBU MARK LUMBAY PROJE                          0501
A1901400290000001926303PAULER PANGANIBAN ANI                                    0502
A4101400420000002084562CANTILERO, NILCE SAMONTE                                 0502
A0601400520000002085963CANLAPAN, REBECCA PABALAN DBU J                          0510
A0301400950000002115151**********                                               0505
A1001400190000002170656AMELINA E. FACTURA                                       0501
A0101411950000002266140SUSAN C. VALDEZ                                          0503
A0601400520000002270997ENGCO, LEAH DOMINGO                                      0501
A0601400230000002649950RUSSELL DIZON PELAYO                                     0501
A0101400150000002902263***********                                              0501
A1301400210000002909000MENDOZA, ENRICO LUBATON                                  0501
A0101410850000003503820STA. MARIA, R DBU MSCR TRUCKING                          0503
A0101411660000003580243JOAN CATHERINE MANALO                                    0501
A0101404000000003706012ANTIGA, ANTHONY NACES                                    0501
A0101402930000003710512GOMEZ, JONI ROJAS                                        0501
A0101408950000003983499VILLARRUZ III, NICOLAS JUELE                             0501
A0201400890000003983524CALIXTRO, JAMIE ROSE ARES                                0501
A0101400860011394300002**********                                               0503
A0101400860011546416001**********                                               0501
A0101401700041192328001GO, DELY                                                 0502
A0101401700041478374017VILMA ZOLETA MAGYAYA                                     0501
A0101400600071031379001MFT! ENTERPRISES                                         0503
A0601400360083548972001MANITI, JOEL MANALESE                                    0503
A0101400440161478374006JOSEPHINE R. VEGA                                        0502
A0301400530193551857001MORENO, ISAIAS L.                                        0503
A0101406620273215980002GLORIA CHOA CHUA                                         0501
A0101402510341199103001CORAZON D. HUANG                                         0502
A0201400890376039667001PROTECH WATER SYSTEMS                                    0502
A0201400890376587781001CO, JULIE TAN                                            0501
A0101402930381205187002JOCELYN M. RESURRECCION                                  0501
A0101402770391025704001JLD GIFTS & MAGAZINES                                    0505
A0101402770391404096002MYLENE B. PANLILIO                                       0502
A0101402770391478374032ELPEDIA C. ABRASALDO                                     0502
A0101408400394478374083FANGON, MA. ALMA LAGOS                                   0502
A0101408400394478374091ANALOU SASUMAN MONTALES                                  0501
A0101408950396567425001DR. SHEILA LYN REMOT RANIN                               0503
A1901400160491244512001MELVA A REMO OR MONINA A REMO                            0501
A0101407720602396498002CAPISTRANO, MA. EVELYN TORRES                            0501
A0101407720602536032001LACSON, CHARMAINE MARIE ALFON                            0502
A0101404260611152161001PABLO O. LABRADOR                                        0502
A0101409890649751149001CHAN, JERRY ENTIA                                        0501
A1301400340683478374060YUMOL, EVANGELINE HEMENTERA                              0501
A2801400100712494193001DIANO, BLESILDA MISTICA                                  0501
A4101400420814520766110DELA CRUZ, ARMINDA E.                                    0501
A0101404840851217637095MELINDA VILLAGOMESA                                      0501
A0101404840851520766002CYNTHIA S. GERODIAS                                      0502
A0101406750852625027001PASCUA, MARIA LOURDES ESPIRITU                           0501
A0101406750852704935001VILLAREAL, JULIET DE GUZMAN                              0501
A0101412050000000697190RIVERA, TEODO DBU BLAZE EFX                             10502
A0101410720000000968072MAGDANGAL JR, DANTE DBU ALISTER                         10501
A0101411660000001145788TUMPALAN, SOCRATES DBU FIRST                            10501
A0101412630000001823398BANZUELA, ELEANOR ADORNA OR                             10501
A0101405650000001912038SAYSON, JESUS DOMINGO OR                                10502
A0101408240000002821941TAPIA, NORREL ORTEGA OR                                 10501
A0101412050000003966763DE LEON, ARTURO PUZON OR                                10501
A1301400470252599213002REYNALDO OR ROSARIO TERESITA OR                         10501
A6601400120314714452001CONSEBIDO JR., NAPOLEON O. OR                           10501
A0101409050352600066001FAYE CARLIE TUAZON OR                                   10501
A0201400890376535273001TOLEDO,HAROLD XAVIER OR CLIMACO                         10502
A1401400110492320667002AVERIA, SOLOMON DY OR                                   10501
A0101411790518055815050MISLANG, MARGARET ANN                                   10501
A0101407720602399405002CLAVER P. RAMOS, M.D. OR                                10503
A0101413440655056675001CUEVAS, MELANIE  DBU                                    10501
A0101406590662361882001FLORENTINO &/OR DIVINA LUPE                             10503
A0101406590662542232001RUEL CHANCO OR MA. ROSARIO                              10502
A1301400500684589977001VIOLAGO, MA. LORENA M.OR                                10501
A0101412050000000697190EVENTS PRODUCTIO                                        20500
A0101410720000000968072CONSTRUCTION AND                                        20500
A0101411660000001145788SUN MARKETING                                           20500
A0101412630000001823398ZAPANTA, VICTOR QUIAMBAO                                20500
A0101405650000001912038SAYSON, MICHELLE                                        20500
A0101408240000002821941TAPIA, DIANA MARIE                                      20500
A0101412050000003966763DE LEON, WILFREDA PADILLA                               20500
A1301400470252599213002RAYMOND JOSEPH O                                        20500
A6601400120314714452001CONSEBIDO, GILBERT                                      20500
A0101409050352600066001BENSON RYAN CRUZ                                        20500
A0201400890376535273001BRYAN OR GUEVARR                                        20500
A1401400110492320667002AVERIA, MA.SARAH                                        20500
A0101411790518055815050RESURRECCION                                            20500
A0101407720602399405002THELMA E. RAMOS                                         20500
A0101413440655056675001COVA ENTERPRISES                                        20500
A0101406590662361882001LAZARO                                                  20500
A0101406590662542232001ARLENE CHANCO                                           20500
A1301400500684589977001VIOLAGO, GIDO C.                                        20500
B0101409210000000031250********                                                 1601
B0101412890000000125260ACADEMY OF CHRISTIAN EXCELLENCE                          1601
B0101413730000000144636**********                                               1602
B2801400230000000372730JEM SECURITY AGENCY CORP.                                1601
B0301400950000000566887CHRISMA TRAVEL AND TOURS, INC.                           1601
B0101402060000000653850TAASCOR MANAGEMENT & GENERAL SERVIC                      1601
B0101402350000000655436TYCS LOGISTICS INTERNATIONAL INC.                        1605
B1301400760000001294862REYNALDO D. ABAD                                         1602
B1001400480000003357839ENROGEL CONSTRUCTION CORP.                               1601
B0101400860011242516001*********                                                1603
B0101400150061010997001EASTWIND GARMENT MANUFACTURING CORP.                     1602
B0101400150061033461001WOODCHILD HOLDINGS, INC                                  1601
B0601400100081019724001STINDA PROPERTIES, INC.                                  1601
B0601400360083042517001PROJEXASIA CORPORATION                                   1610
B0101400730111015420002FELANER REALTY DEVELOPMENT CORPORATION                   1606
B0101412920160056666001ALM WATER REFILLING STATION                              1601
B0101400440161032916001S.D. CUBILLAN CONSTRUCTION                               1601
B0101407270162056115001GOOD VOYAGE BATTERY DISTRIBUTOR MAR                      1601
B0101401090171030167001RED IMAGES, INC.                                         1605
B0301400530193037466168TAGUM BESTFOODS CORPORATION                              1605
B0101407140213022985001PRINT INNOVATION INC.                                    1605
B3101400740224022200001FILCON MANUFACTURING CORPORATION                         1610
B1001400190231032463001PROGRESS BICYCLE CORPORATION                             1603
B1901400290261013980001VIC IMPERIAL APPLIANCE CORP.                             1602
B1901400290261027293001LIPA MEDICS INC.                                         1610
B0101406620273313299003**********                                               1603
B0501400200292036584002SSS EXPRESS CREDIT, INC.                                 1605
B0101402060351009762002NETERCO-PHILS., INC.                                     1604
B0101409050352045430001POWER BOX MEDIA & MARKETING CO. LTD.                     1602
B0101402930381008829002AXEIA DEVELOPMENT CORP.                                  1615
B0101408110515035536001E & V ELECTRICAL INC.                                    1605
B0101408240711008252001PETROLIFT CLASSED CARRIERS, INC.                         1610
B4101400420814039001001DOMINGUEZ TRANSMAN MACHINE WORKS CO.                     1601
B4101400420814043163001VAYAO WAX MANUFACTURING INC.                             1602
B0601400230891338856001SZE KIT CHENG                                            1610
B1301400760000000050762AMAZING GRACE CHRISTIAN SCHOOL OF                       11602
B6601400120000000060875RCBC-OUR MOTHER OF PERPETUAL HELP                       11601
B0601400100000000142214SIMON AND STANDLEY INTERNATIONAL TRADING                11605
B0601400100000000786803SIMON AND STANLEY INTERNATIONAL TRADING                 11605
B0601400100081013319001ANGELES CITY UNIVERSAL MARKETING                        11602
B0601400100081042835001FORTUNE HONGKONG SEAFOOD RESTAURANT                     11610
B1301400760000000050762CAB. CITY INC.                                          21600
B6601400120000000060875MISSION CENTER                                          21600
B0601400100000000142214& DEVT CO, INC.                                         21600
B0601400100000000786803& DEVELOPMENT CO                                        21600
B0601400100081013319001CORPORATION                                             21600
B0601400100081042835001(NEWSTREET)                                             21600
B1401400110492821100608**********                                               2003
