A4101400260000005333711LABING, TESSIE DEGUINION                                 0501
A4101400260000012884961SON, JENNY ANN                                           0501
B0901400220000006214320**********                                               1602
A0101406590662478374006CATIMBANG, MARILOU E.                                    0501
A0101409180000003310203PARUNGAO, BLESSIE JOSON                                  0501
A0101406590000017274778MONZON, MARGARITA VALENZUELA                             0501
A0101412340000001017769LUZARAN, FERNANDO DELA TORRE OR                         10501
A0101412340000001017769LUZARAN, CERIZA                                         20500
A0101412340000014512653MERIDA, AVRIL JAN DADO                                   0501
A0101400860000017478794************                                             0510
A0101400860011487539001REYES, FRANCISCO REYES OR REYES                         10503
A0101400860011487539001CAROLINA INEZ ANGELA                                    20500
A0101400150000003197802MICHELLE T. MUCAS                                        0501
A0101400150061228036001DELA CRUZ, VICTORIA LIM                                  0501
A0101400150061329718004ZABALETA JR., JOSE MARIA P OR                           10501
A0101400150061329718004ZABALETA, JOSE M                                        20500
A0101400150061688779002RUIZ, JENNIFER SIBUG                                     0501
A0101400150061739693001FRANCISCO D. VARUA OR MARIA                             10501
A0101400150061739693001MARLENE A. VARUA                                        20500
B0101400600000001335637CHARLIE TAN OR PETER TAN OR                             11603
B0101400600000001335637DERIC ALDRIN TAN                                        21600
A0101400600071738447001TIFFANY NG CO                                            0502
B0601400100081253610002NG, WILFREDO M. AND AQUINO, JANET B. AND                11606
B0601400100081253610002BUAN, ROLAND S.                                         21600
A0601400360000004915431CHUNG, DUCK KYO                                          0502
A0601400360000002282271BASCO, ENERIO CASTRO                                     0502
B0601400520000009516172ISHA'S MART INC.                                         1605
B0101413730000001568436********************************                         1603
A0101413730000013294269******                                                   0502
A0101413730000002289483ONG, HOSANNA TENG                                        0501
A0101414090000014876465INAANURAN, LEZIEL LAVENA                                 0501
B0101414090000007344665********                                                 1610
B0101414090000007344698FIL-GLOBAL IMMIGRATION SERVICES COR                      1602
A0101414090000012425039INAANURAN, LEZIEL L DBU INLAV                           10502
A0101414090000012425039DENTAL LABORATORY AND SUP                               20500
A0101410560000010317705JARI PETER S. CATANGAL                                   0501
B0101400730111033923001QUICKLEND PHILIPPINES INC.                               1606
B0101400440000003766967COOPERATIVE HEALTH MANAGEMENT FEDERATION                 1625
A0101407270000011150197GAMBOA, ALEXANDER RODRIGUEZ                              0501
B0101407270162008343001SPECIALIZED TRADE & MARKETING, INC                       1601
A0101407270162040940001AQUA LINK                                                0501
A0101407270162680190001YAP, JOEL GO                                             0502
A0101401090000011984500CO, EVELINA ANTONIO                                      0501
A0101401090171198376001DR. MARIA PIEDAD G. ROSALES-                            10505
A0101401090171198376001NATIVIDAD                                               20500
A0101401090171199188001JOSE G. GALURA                                           0501
A0301400530000012273255NERI, MARIFE LIGAYA                                      0501
B0301400530193041076168BLACK FIGHTER SECURITY AGENCY, INC                       1605
A0301400530193686503001CORPUZ, GLENN A.                                         0501
A0301400790000006269812JICKAIN, JOVIT BALANTUCAS OR                            10501
A0301400790000006269812BALANTUCAS, ELJANE RULITE                               20500
A0301400790000002301273DANGCALAN, MARITES DALOGDOG                              0501
A0101410720000000882782CMS - ASIA SPORTS THERAPY                               10510
A0101410720000000882782CLINIC                                                  20500
A0101410720000015623113*******                                                  0501
B0101412500000017992142URMATAM, JUNIUS JEM JURADO DBU FARMACIA                 11601
B0101412500000017992142DE URMATAM                                              21600
A3101400160000015271082MENOR, GLENN PHILIP NONES                                0502
A3101400160000015271111ORO, DINAH MONTANANO                                     0501
A3101400160000015271111ORO, DINAH MONTANANO                                     0501
B3101400160221017124001PANASONIC PRECISION DEVICES PHILIPPINES                 11601
B3101400160221017124001CORPORATION                                             21600
A3101400450223418716001GARCIA, JESUSA CORAZON PLAZA                             0501
A3101400740000017997592SINGH, NARAYAN .                                         0501
A1001400190000004487641SIAO, MICHAEL FRANKLIN NERI                              0501
B1001400190231022229001CITY ALLIANCE CHURCH                                     1602
A1001400190231274559001SY, MAN CHAK OR SY, SUSAN LIM                           10501
A1001400190231274559001OR SY, YING YING CO                                     20500
A1001400190231478374006LIBRADO, HAZEL T.                                        0501
A1001400190231520766117TAROY, MARIONNE ANGELOU SALEM                            0501
A1301400470252478374030JERICA P. MATAMMU                                        0502
A0101412470000016805993TAN, SHERILYNE REYES                                     0510
A0101400570281186536001DR. MERCY ANTOINETTE GAPPI                               0502
A0101411240000002332576CRUZ, MARY DEANNA GONZALEZ                               0501
A0501400200292503085001CHU, HONORIO DY OR                                      10510
A0501400200292503085001CHU, MARGARETTE LIM                                     20500
A2601400270000000084273BATALLONES JR., TELESFORO G.                            10505
A2601400270000000084273DBU TG BATALLONES TRADING                               20500
A0801400160000000009418BALADAD, HELEN FRANGUE                                   0501
A3401400280000011150660ACEVEDO, FREDERICK ESCUTIN                               0501
B0101402060351033699001EXQUISITE INTERIOR SUPPLY CORPORATION                    1606
A0101402060351211723001MELINDA V. MEMBREBE                                      0501
A0101409050000003533560CALDITO, MIRASOL                                         0502
B0101409050352212676001LIAMZON, MA. ANTONIA/FRANCISCO/FRANCIS                  11601
B0101409050352212676001KEVIN/CATHERINE                                         21600
A0201400890000002270111DONGHIL, ERNILO OR CATURAN,                             10501
A0201400890000002270111GAUDENCIO                                               20500
B0201400890000017804309LING, ESTERLINA SAROMENIS                                1603
B0201400890376004789001ECC FOREIGN LANGUAGE INSTITUTE OF THE                   11602
B0201400890376004789001PHILIPPINES INC.                                        21600
B0201400890376013530052RD PAWNSHOP, INCORPORATED                                1610
B0201400890376668181001ST. MARK'S RESIDENCIA, INC.                              1605
A0201401020000005109962CHAMBRE HOTEL CORP.                                      0501
A0101408370382209650002DR JULIETA P ARAMBULO OR                                10503
A0101408370382209650002DR MIGUEL R ARAMBULO                                    20500
A0101408370000010833188BERNARDINO, RICCA MAE ROCO                               0501
A0101411660000015086092MARANAN, JANIVIEVE CRAME                                 0501
B0101408400000012225482SINCERE FACADE INNOVATION, INC.                          1603
B0101408400000014004687ABSHA CONSTRUCTION & DEVELOPMENT INC.                    1602
A0101408400394060869002SPSD PRIMAICONS CASTING AGENCY                           0503
A0101408400394478374064MORANDARTE, ANGELITA B.                                  0501
A0101408950000017992346GONZALES, ANTONITA CURAN                                 0501
A0101409180000008700156CAUTON,ANNA KATRINA, HERNANDEZ,                         10501
A0101409180000008700156MIGUEL OR HERNAN                                        20500
A0101409180000003882417TAGORDA, TRYGVE N.                                       0501
A0101409210000016486803BACOY, GIENITO NOVABOS                                   0501
B0101409210000013390302RWH JAROGLASS INCORPORATED                               1605
A0301400820000010907190TAN, ALEC JAY G.                                         0502
A5501400120000009875741ESCOTE, ROSELYN DILLO                                    0502
A5501400120000016442847SUBERE, ANA LIZA ASPRILLA                                0502
B0901400220432043554001GERRY'S GRILL                                            1602
A5101400100000017762622MONTA JR., VENANCIO PANA                                 0501
B0101403030441303324001**********                                               1602
A0101403320000014463420UY, MARIA U. DBU                                        10504
A0101403320000014463420MAR UY STEEL SUPPLIES                                   20500
A0101406330000001235090MONTESSORI AT WORK PRE-SCHOOL                            0502
A0101406330472573163001GO, CARTER WILSON YAO                                    0501
A0101410140000014278174VILLA, MA.  JEANNE DIAZ                                  0501
A0101410140000014574593PASCUAL, LEANDRO CALBAY DBU MAX                          0502
A0101412760000017188315ARIVE, ERLISAR BATARRA                                   0501
A0501400170000001032113DAVID, ERMO ABULENCIA                                    0501
A0501400170481542622001GARCIA, PRECY OR LOMBOY, PERLA                          10504
A0501400170481542622001OR QUINTO JR., A                                        20500
A1901400160000017993685MANIO, JEJOMAR ATIENZA                                   0501
A1401400110000010622561RIOLA, SIXTO DADIA OR                                   10502
A1401400110000010622561RIOLA, MARISSA                                          20500
A1401400110000017265540DY, CHARMAINE JOY DINGLASAN                              0503
A1401400110000017924353REBLEZA, RODANTE PASTRANA                                0501
A1401400110492414814001OBMERGA, ARCELI ROMULO                                   0501
A0101407430000014992751ERICKA C. ILAGAN                                         0501
A0101405940512157443001CECILIA B. WYSON OR                                     10501
A0101405940512157443001ROBERT T. WYSON                                         20500
B0101405940512522097001BISTRO LEGASPI & COFFEE INC.                             1604
A0101408530000016066170DE JESUS, MARY ANGELY ROMARAOG                           0501
A0101403610000007105893BAYAIS, VICTOR JR. BORANTES                              0501
A0101403610531221633002PACULAN, MARILYN ALCANTARA                               0501
A2201400250000015111310MIREILE L. YANGO                                         0501
A0101410690600784905001BELICENA, WILBERT POBLADOR                               0502
A0101404130000017429911ZHENG, YANGDONG                                          0503
A0101404130601354508001LOLITA M. HODREAL OR                                    10505
A0101404130601354508001JOSEPH M. HODREA                                        20500
A0101407720000000245145VICTOR L. GISBERT OR                                    10502
A0101407720000000245145ARLENE MAY A. GISBERT                                   20500
A0101407720602554296001ANGON, JESSICA BANAGALE                                  0502
A0101412180000000501500ALMAZAR, ALLAN GEPIGA                                    0501
A0101404260611478374096ADALIA D. ABCEDE                                         0501
A0101404260611478374099TERESITA DOLLOPAC                                        0502
A0101409890000000049089GEMSTAR CLEANING SUPPLIES                               10505
A0101409890000000049089INTERNATIONAL                                           20500
A0101407690000000913991GAVIOLA, MARK PAUL CRUZ                                  0501
A0101406590662044702001PTS TUTORIAL AND REVIEW SYSTEMS                          0501
A0101406590662467804001CHU, PAULINE YSABELLE LIM                                0501
A0101410300663082110001********                                                 0502
A0101408240000017717289MEDINA, CRISTINA LIWANAG                                 0501
B0101408240000010815211HERSAN REALTY CORPORATION                                1602
B0101408240000006414422YAVIN TECHNOLOGIES INC.                                  1602
B0101408240000010815186TOLLFOODS MFG. CORP.                                     1601
A0101408240711619524001BAUTISTA, ROSALYN P. OR                                 10502
A0101408240711619524001ELISEO                                                  20500
A2801400100000002253505MENDOZA, EDELYN JOY MARCELLANA                           0501
A2801400230000012228590DE JESUS, JEREMY LLOYD GIGANTE                           0501
A4101400390000003346103ANNALIZA G. YABUT DBU AGY                               10502
A4101400390000003346103MANAGEMENT SERVICES                                     20500
A4101400420000007305513JIMENEZ,TERESITO OR MARIANO,MAR                         10501
A4101400420000007305513ICAR OR JIMENEZ,FILIPINAS                               20500
A4101400420814572265012NAVIDA NORA G.                                           0501
A0101412340000005566674ORBON, ROWENA PAULINE MIRASOL                            0501
B0101412340000005964065CM2 CONSTRUX, INC.                                       1603
A0101406750000008644213SALVADOR, CECILIA QUIZON                                 0501
B0101405070000001161335W4 ALLIANCE SECURITY AGENCY, INC.                        1602
B0101413860000001768061TRAVELLERS INSURANCE & SURETY CORP.                      1605
