A1101400120313478374079MARIJOE N. CORANEZ                                       0501
A0101402930000008062275JO, JONATHAN C. OR SANCHEZ JR.,                         10501
A0101402930000008062275RAYMOND C.                                              20500
A1101400120313478374074UNGAB, ROSALINDA B.                                      0501
A1101400120000006186616GALO, TERESITA E.                                        0501
B1101400120000000653183HIYASHINSU INCORPORATED                                  1601
A1101400120313478374123EBUENGA, JULIE C.                                        0501
A1101400120000001547268JADOC, MA. ARIELYN PALOGAN                               0501
B0101405940512018055001PREMIERE MANAGEMENT CORPORATION                          1603
B1101400120313042009001MACHICA FIRM, INC.                                       1605
B0101402930000000623396BENMARK GROUP HOLDINGS, INC.                             1604
B0101402930000000623410R AND C OUTDOOR MEDIA INC.                               1606
B0101402930000005645894CE INTERNATIONAL DISEGNO INC                             1601
A0301400660000006862639TALADUA, RAPH ANTHONY FLORES                             0501
B0101402930381008829002AXEIA DEVELOPMENT CORP.                                  1615
B0101402930381008843001BASIC HOUSING SOLUTIONS, INC.                            1605
B0101402930000003269403PETRA CEMENT INC.                                        1601
A0101402930381478374004ANALIN ARTIOLA                                           0501
A0101408370382397942001DR. JULIETA S. MAHUSAY OR                               10505
A0101408370382397942001DR. TEODORO S. MAHUSAY                                  20500
A0101412890000000371533JOSELITO B. PRAJIO AND MELINDA                          10504
A0101412890000000371533F. PRAJIO                                               20500
A0501400170481046585002ANG, JUSSLYNN DBU                                       10502
A0501400170481046585002AVS DISTRIBUTION                                        20500
B0501400170481398688001**********                                               1601
B1901400160491347054001EMMA MACATANGAY AND MARIO MACATANGAY                     1603
A0101407690000006736441PERALTA, JEOFFREY DBU                                   10503
A0101407690000006736441J. PERALTA ENTERPRISES                                  20500
A0101401250021708864001HAROLD T. TARRAS                                         0502
B0101400150061010688010SB CARDS CORPORATION                                     1610
B0101400150061584014001PNEUMATIC AND MECHANICAL SERVICES INC.                   1602
A0101405810000001021332UY, RAYMOND VELASCO                                      0501
A0601400100081501761001TAN, WINTHEL OR RALPH                                    0501
B0101410560000000757240BALTAZAR, BEATRIZ POLO AND GARBILES,                    11601
B0101410560000000757240LETICIA MORILLA                                         21600
A0101400730111478374009VERGARA, GLENDA                                          0503
B5001400170000005705255HUANG, PATRICIA DY OR HUANG, WAN NING OR                11610
B5001400170000005705255PULVERA, MIA H.                                         21600
A0101400440161525001174RIZALYN V. GUNTANG                                       0505
A0101407270000007525422EULOGIO, ENRICO SAMSON                                   0502
A0101401090000005320405ALEGRIA JR., HERMITO OBEDOZA                             0502
A0101401090171383349001JULIE ANN A. HALLAZGO                                    0502
B0301400660194044417088JCDIS MARKETING                                          1605
B0101401380000002297538********                                                 1602
A0101413600000005355120******                                                   0503
A3101400450223693053001AUSTRIA, APRYL LYNN EVANGELISTA                          0505
A3101400740000001692457MALABANAN, MILANNIE G. OR                               10502
A3101400740000001692457MALABANAN, ROHNELL C.                                   20500
B3101400740000000013914BETA NANOCOATING PHILIPPINES INC.                        1602
A3101400740000006735824GARCIA, EMILY B. DBU MMA EVENTS                         10504
A3101400740000006735824SPECIALISTS AND CATERING                                20500
A1001400190231478374083CHIONG, MARIVIC P.                                       0501
A1001400350233512624001BARLAAN, DORIS BEDE OR                                  10502
A1001400350233512624001BARLAAN, ALEX E.                                        20500
B1301400470000000009532PROSPERITY SUPERMART                                     1602
A1301400470252524992001FLOR M. CUCIO OR                                        10510
A1301400470252524992001FELIPE R. CUCIO                                         20500
B0101401670271007639001WACK WACK GOLF & COUNTRY CLUB                           11602
B0101401670271007639001LADIES CHAPTER                                          21600
B0101401670271046498001GOLDWYN CONTRACTOR & ALLIED SERVICE                      1601
A0101401670271491442001MARICHEL TORRES                                          0503
B0101406460272040465001SPORTFIT, INC.                                           1605
A0101406460272298552014ELMA BERNARDINO                                          0501
A0101406620000001686655JATAP, JESUS JOHN UY                                     0501
A0101406620273063975001BAGAYAS, RONALDO TOLENTINO DBU                          10501
A0101406620273063975001BAGAYAS CONSTRUCTION SERV                               20500
A0101406620273528771002***************                                          0501
A0101400570281688590001TEJADA, MELANIE TORRES                                   0501
A0101411240000008739773REMO, CHRISTINE GAN                                      0501
A0101411240283742866001CHENG, FELIZA ONG                                       10501
A0101411240283742866001CHENG, WILLIAM TAN                                      20500
B0501400200000004456913CBE ESTRADA PRIME HOLDINGS, INC.                         1602
B0801400160311043928001DELIFRANZ BACKEREI, INC.                                 1602
A0801400160311478374064MILAMAE G. GRANDE                                        0501
A1101400120000006186569PUERTULLANO, YONELYN MECINA DBU                         10501
A1101400120000006186569VINCE GRAPHICS                                          20500
B1101400120000000652926BUSINESS FRONTIER CORPORATION                            1603
A3401400280318267619001SAN ANTONIO, DANILO LORENZO                              0502
A2901400130000005961293ALVAREZ, JAYMAR AVENDANO                                 0502
A0101405650000001377271SOTOMIL, JANELLE TRINIDAD                                0502
B0101405650322043619001ALSTAR CHEMIE SALES (PHILIPPINES)                        1601
A0101405650322634117002B.ESPIRITU OR E.ESPIRITU OR A.                          10501
A0101405650322634117002OCAMPO OR C.DE CASTRO                                   20500
A0101405650000006273685CABRERA, ENRICO LARA                                     0501
B0101402060351030802001PACIFIC RESINS INC.                                      1605
B0101402060351040060001BUILDSMART HOME SUPPLY CO.                               1601
A0101402060351211701004MA. DOLORES DANNUG                                       0503
A0101409050000007511817TAGUBA, ANTENOR FUGABAN                                  0505
A0101409050000008087510MANACOP, ANA MELODIE FONTANILLA                          0501
B0201400760374026266001VISAYAN ELECTRIC COMPANY, INC.                           1602
B0201400760374711977001GLOBAL VILLAGE CONSULTING ASIA PACIFIC                  11602
B0201400760374711977001INC.                                                    21600
A0201400890000000973451SANCHEZ, EDGAR LIM                                       0501
A0101402930010120000565VILLALOBOS, DBU MD PRINT WORLD                           0505
A0101408370382205236001DR. CYNTHIA A. AGUIRRE                                   0502
A0101408370000000336149SAWIT, SIMONETTE KRISTINE                               10502
A0101408370000000336149TIANGCO                                                 20500
A0101411660000003580323JENNIFER C TALENS                                        0501
A0101402770391029270001RCABAN-SAN ANTONIO DE PADUA                              0501
A0101402770391478374023FELIPE, MA. LUISA L.                                     0501
A0101402770391550490001MORILLO, ZENAIDA ZAMBRANO OR                            10501
A0101402770391550490001TAN, DANILO GABI                                        20500
B0101405490392030959002DIAMOND ROAD INTERNATIONAL CORPORATION                   1602
B0101408400000002386263CORMANT TECHNOLOGIES INC.                                1602
A0101409180000001694271LARRAZABAL, MARIA VICTORIA                              10503
A0101409180000001694271MORENO                                                  20500
A5501400120410656023001BELTRAN, MANUEL OR                                      10502
A5501400120410656023001BELTRAN, ALEGRIA                                        20500
B5501400120410821100608**********                                               2010
A2401400180000002284153GO, RODRIGO MACABABAYAO                                  0501
A1201400150421304908001ARSENIA G. SUMADCHAT OR EMMANUE                         10503
A1201400150421304908001L JOHN G. SUMADCHAT                                     20500
A0101412890000001765682MARIA ROSELLE M SANTOS                                   0502
A0101403320000001647036LORENZO RENAN E. TORRES                                  0503
A0101403320000007827123JOYCE B. GATCHALIAN                                      0505
B0101403320471009043001ABCOR INDUSTRIAL CORPORATION                             1605
B0101403320471043706001M-TRI-R CONSTRUCTION & TRADING CORP                      1605
A0101403320000004830995GATTECH SUPPLY AND ENGINEERING                           0505
A0101403320471429532001JULIO T. TAWAY OR                                       10501
A0101403320471429532001JOSEPHINE TAWAY                                         20500
A0101403320471566591001EDDIE C. BULANON                                         0505
B0101406330472009779001DORADO'S GENERAL CONTRACTOR CORP.                        1605
A0101406330472542494001TEODORA A. RAZON                                         0501
A0101412760000000031950ABELIDO, ALEX HECHANOVA                                  0505
B0101419750477821100608**********                                               2003
B0501400170481029507001ARCINUE DEVELOPMENT CORPORATION                          1603
A0501400170481597163001TAN, FRANCISCA ROSARIO ESPINO                            0504
A1901400160491346311001NIDA M LACSAMANA                                         0502
A1401400110000001549293HAO, LILIBETH MANLUGON OR HAO,                          10501
A1401400110000001549293KATHERINE GAYLE                                         20500
A1401400110000003475832RADONES, ARIEL SACRISTIA                                 0502
B0101403580000002185388STA. MARTHA PROPERTY DEV. INC.                           1610
A0101405940000000061663PELAYO, HUDSON PETER LAPUZ                               0501
A0101405940000002268653BANIEL, BEN FABALE                                       0502
B0101403450521628709001FU, AINSLEY JAMES AYROSO                                 1601
A0101403610000006497950BENEDIAN, JAY-PEE MEDINA                                 0501
B0101403610531029119001RECOLETOS MULTISALES AND SERVICES                       11602
B0101403610531029119001INC.                                                    21600
B0101403610531029120001WHISPERTRAIL SERVICE, INC.                               1602
A0101403610531219680004RONWHEELS PARTS & ACCESORIES                             0502
A0101404000000003707533SANTOS, YOLADAIRE CAMERO                                 0501
A0101404000000001186994SANTOS, MARIDEL DASMARINAS                               0501
B0101410690000001284395ALDANA, MA. ELENA M. DBU PANSOL TRADING                  1604
B0101407720000006028166MEDGATE PHILIPPINES, INC.                                1601
A0101407720602271723103REA CECILLE F. RIVERA                                    0501
A0101407720602425427001VILLARUBIN, AUGUSTO ORDONEZ                              0503
A0101404260611335308002ALIMBOYONG, JOSEPHINE MAHINAY                            0503
A0101409920000001951953MEMBERS OF NATASHA (SHOECAT INC                         10501
A0101409920000001951953IGPIT, IRENE                                            20500
A0101407690652034806001BROWNFLY COMMERCIAL                                      0504
A0101407690652513136001GUINTO, ROSARIO OR WINSTON                               0502
A0101407690652525001047NOEMI B. BUNDA - DEALERS OF                             10501
A0101407690652525001047SHOECAT INC.                                            20500
A0101407690000000053881********                                                 0503
A0101413440000003298231BUGAYONG, JOHN LOUIE BACHO                               0502
A0101413570000007739566HENRY OSORIO II                                          0501
A0101413570656057648262LARICEL TABIEN                                           0501
A0101410300000003290220BALOCATING, RAYMUNDO DEL MENDO                           0501
B1301400210682040563001ACTISERVE CORP.                                          1605
B1301400210000005040960ARMS-ABUNDANCE HOMES REALTY SALES,                       1601
A0101408240000000521913CABAUATAN, EMILY LASAM                                   0501
B0101408240711033368001ST. ELOI PAWNSHOP OPERATORS, INC.                        1601
A4101400260000005333357TAN, JAYSON LIM                                          0505
A4101400260812761967001PANGILINAN, MANUEL ESPIRITU                              0503
B4101400390000006103537KRATOS TECHNITES CORPORATION                             1602
A4101400390000000500563LAPUEBLA, MARIMIN ABAD                                   0502
A0101412340000005431874JAIME P. CRUZ                                            0501
A0101404840000004565862CLOTILDE P. ARROYO                                       0501
B0101404840851061519001ZTA PROPERTY INVESTMENTS, INC.                           1601
A0101406750852022181001DATHAN ENTERPRISES                                       0505
B0101405070861008149001TABAQUERIA DE FILIPINAS INC.                             1606
B0101405070861197658001****************                                         1602
