A0101400730111195439001TAN, ROWENA                                              0501
A0101400440161525001117CATHY B. DELA PAZ                                        0501
A0101400440000004901564DOVIE T. JERMIA                                          0502
A0101400440161186947001ROBERTO L. SENA                                          0502
A0101400440161390124001SOLEMIA C. GAVINO                                        0501
A0101400440161525001026LERA B. CUISON                                           0502
A0101408660274387702002HO, DESIREE ANG                                          0502
A2401400180000000073550ALBARRACIN, JEMAR DEGAMO                                 0501
B2401400180411021162001TBB & SONS MARKETING                                     1605
A2401400180411542448001GUATLO, ANNA MARIE VILLASENCIO                           0501
A0101400860000003571680*************                                            0501
A0101400860011428673001**********                                               0502
A0101400860011559995001**********                                               0503
B0101401250021023559001S.B. OLIVEROS PAWNSHOP INC.                              1602
A0101400150000009657812GONZAGA, BERNADETH VENTURA                               0501
A0101400150061398851002ANDAYA, ETHYL EROLIN                                     0501
B0101400600000001335853********                                                 1610
A0101400600071092538001CHAN, GIDEON DY OR                                      10510
A0101400600071092538001CHAN, JEANNE P.                                         20500
B0601400100081253610001WILFREDO M. NG                                           1601
A0601400100081253610001WILFREDO M. NG                                           0501
B0101414090000000399457ANTARA VENTURES INC.                                     1603
B0101400730111021297002CRESLEIGH FOODS CORPORATION                              1601
A0101400730111520766064LITA L. LARIZA                                           0501
A0101401960000000008040**********                                               0501
B0101401830141528703001ALBERTO GABRIEL LORENZO FOUNDATION INC.                  1605
A7201400170000003773193ALUYEN, VICTOR EMMANUEL TOH                              0502
A0101412920000008813474VILLAFANIA, MICHAEL VILLAGRACIA                         10501
A0101412920000008813474OR PAGNE,JEANETH ACHACOSO                               20500
A0101400440000003705935ALFONSO, PERCIVAL BANAL                                  0501
A0101400440161525001040DOLORES A. DE GUZMAN                                     0501
A0101400440161525001052MARY B. MONDRAGON                                        0501
B0101401090171015592001UNIVERSITY ATHLETIC ASSOCIATION OF                      11602
B0101401090171015592001THE PHILS., INC.                                        21600
A0101401090171033023002EXCELINK INSURANCE AGENCY                                0502
A0101401090171199566001ALICIA OR VIRGILIO ESTILLER                              0501
A0301400530000000065865ARASA, NICOLAS                                           0501
A0301400530000009156992UY, WILLY FLORES                                         0510
A0301400530000005300309VALDIVIA, ALICIA MARZON                                  0505
A0301400530000007345464DE GUZMAN, JASMIN ALINDAO DBU                           10502
A0301400530000007345464BEA MARKETING                                           20500
B0301400660194031358088*****                                                    1602
A0301400660000000194712DENMARK TRUCKING AND GENERAL SE                         10510
A0301400660000000194712RVICES                                                  20500
B0101401380000005960125ASPIRE AUTO PARTS & REPAIR SERVICES INC.                 1605
A0101410720000007843492GANTAAN, POLIN GISELLE BARRIOS                           0501
B0101410720653006452001INTERNATIONAL GRADUATE SCHOOL OF                        11602
B0101410720653006452001LEADERSHIP INC                                          21600
A0101410720653037327001R.P. MENDOZA CONSTRUCTION                                0504
B0101412500214067230001JOBSFINDER PLACEMENT AGENCY INC                          1601
A3101400160221478374057SABRINA N JORDA                                          0501
A3101400450223455809001LANCION, AUREA OR JERIC                                  0501
A3101400870000000957702GATCHALIAN, GIANCARLO ENRIQUE                           10505
A3101400870000000957702GOMEZ                                                   20500
A3101400870000005565299DE GUZMAN, FRANCIS HAFID D. OR                          10501
A3101400870000005565299DE GUZMAN, ELIZA MAE M.                                 20500
A3001400130000008915971JUBAC, CHARLES TATAD                                     0501
A1001400190231274963001CAPITAN, JOHN A.                                         0502
A1001400190231379465001YBANEZ, CHRISTINA Q.                                     0502
A1001400190231520766093NODADO, REYNOZA                                          0501
A1001400190000000124683ABCEDE, CARMENCITA A.                                    0501
A1001400190000002170781RAMIREZ, RHESA CABAGO                                    0501
A1001400350000007762458DARIMBANG, LOURDES CANDY DE LA                          10501
A1001400350000007762458ROSA                                                    20500
A1001400350233533309001MARIO JOSE A. SIA / CAGAYAN DE                          10505
A1001400350233533309001ORO HARDWARE AND                                        20500
A1001400480000000041545RGIE TRADING                                             0505
B0101401670000004588445THE ASTRA GROUP, INC.                                    1605
B0101406620273037236001SANTOS SANTOS & SANTOS LAW OFFICES                       1601
A0101406620273280285001PELAGIO / ROSARIO / REBECCA /                           10501
A0101406620273280285001RAFAEL / ROWENA                                         20500
A0101406620273306796004FE FORTUNATA R. RIO                                      0501
B0101406620273733659001ULTRAGAS CARRIERS CORP.                                  1602
A0101411240000010648150BILAN, RICHELLE BLASO                                    0501
B2601400270000002677296******                                                   1601
A2601400270000008654177FORMOSO, CHRISTOPHER JOHN A. OR                         10508
A2601400270000008654177FORMOSO, MA. VICTORIA V.                                20500
A6601400120314044682001QUINNREEVE'S MOTORCYCLE PARTS                            0502
A6601400120000001370490GALIT, VERNIE GAZO DBU RVG                              10501
A6601400120000001370490DIGITAL PRINTING                                        20500
A3401400280000001723440EDUQUE, JESSIE ECARAN OR EDUQUE                         10501
A3401400280000001723440RUELYN CAPUNONG                                         20500
A3401400280000004958603GARCIA, MARILOU CASTRO DBU                              10505
A3401400280000004958603BIG G'S ENTERPRISES                                     20500
B3401400280000006790976COMMUNITIES PANAY, INC.                                  1620
A0101402350321286438001PETRITA L. BRION OR                                     10501
A0101402350321286438001ALGER L. BRION                                          20500
A0101402060000000562065ARGANOSA, MAGDALENA LYN SARZUEL                          0502
B0101402060351046908001ORGANITEC LABORATORIES & SYSTEMS, INC.                   1601
A0101402060351408020001***************                                          0505
A0101402060351479109001ALMADEN, ROSALINDA CLACIO                                0501
A0101409050000002333364ARAW, BELINDA SARFATI                                    0503
B02014007603740526030028990 DAVAO HOUSING DEVELOPMENT CORP                      1605
A0201400760374478374015DACAYANA, ROSALIE SIBLA                                  0501
B0201401020000007458195TITCO, MA. CHERIELENE S. DBU WELLSTUFF                  11602
B0201401020000007458195TRADERS                                                 21600
B0101408370000007031443SCHEIRMAN & CRUZ PROPERTY HOLDINGS                       1604
A0101408370382206455001DR. RUBEN G. KASALA OR                                  10502
A0101408370382206455001DR. MA. CARMELA KASALA                                  20500
A0101408370382484207001DR. EDWIN RAYMOND B. BALATBAT                            0503
A0101408370382550614002BETITA, JUDITH SEVILLA                                   0501
A0101408790000002326165CHOI, CHANG MOO                                          0502
A0101408790000005293961MARIA ANGELA F. ABAD                                     0502
A0101408790000000039154ROMEO R. LIM JR.                                         0501
A0101411660000000489345ACIERTO, MARY GRACE MOJICA                               0501
A0101408400000002921086PLANAS, JACQUELENE ABARRA JT                             0502
A0101408400000007264533DULNUAN, RHONA MARIE HAGUILING                           0501
A0101408400000007905851OCAMPO, SANDY ROY DE LEOZ                                0504
B0101408400000003120612GLOBAL LEADERS INTERNATIONAL SCHOOL                      1603
A0101408400394712542001******                                                   0506
A0101408950000003171235ONGKEKO, EDUARDO ERASTO SANTIAG                          0501
A0101408950000009451189BALBAGUIO, ST JOHN MARQUEZ                               0501
B0101408950000002768416H2004 VENTURES INC.                                      1603
A0101408950396601545001DR. GERARDO O. MENDOZA                                   0504
A0101409180000002252604MARQUEZ, MARK ANTHONY DALIDA                             0501
A0101409210000001294402ENRIQUEZ JR., RAMON GALICHA                              0502
A5501400120000002348303DEMEGILLO, JANETH DEZA                                   0502
B2401400180411821200608**********                                               2010
A1201400150421039385001JL'S CLEAN UP JANITORIAL &                              10503
A1201400150421039385001MANPOWER SERVICE                                        20500
A1201400150421252661001JOHN KWAN OR JENNY KWAN                                  0504
B1201400150421253585001ANGELES DIAZ                                             1602
A0101403320000010642218PABIANIA, JOHN ERIC CADUNGON                             0501
A0101406330472044643001A.S.P. BASIC ENTERPRISES                                 0503
B0101406330000000432842**********                                               1610
A3801400170000002302807SY, EDGARDO CHENG                                        0503
B1901400160491341189001VIRGINIA R VARGAS OR                                    11601
B1901400160491341189001RICHARD D LIM                                           21600
A1401400110000001549322RAVANERA, EDGAR ALLAN EROLES                             0501
A1401400110000007186583**************                                           0505
A1401400110000006680282*************                                            0503
A1401400110000002286815TELAR, NEPOMUCENO LORETIZO                               0502
A1401400110000007186612DY, EDNA AYCARDO                                         0501
B0101407430503045582001PRO FREIGHT INTERNATIONAL CORP.                          1601
B0101407430000001213034BORDERTRADE MANAGEMENT INC.                              1603
A0101407430503736499001CECILIA R. NALAUNAN                                      0501
B0101405940000000002773BT AUTO SPORT CORP.                                      1603
A0101411400517063547001TOKONG, RITCHE MINORCA DBU RMT                          10502
A0101411400517063547001BUSINESS MANAGEM                                        20500
B0101411400517821100608**********                                               2001
A0101412050000008837276MAJOMETANO, BRIMEN SON PADILLA                           0501
A0101403450521238266001JERONIMO CO CHIN CHIENG OR                              10501
A0101403450521238266001LAWRENCE COBANKIAT                                      20500
A0101403450521366584001**********                                               0501
A0101403450521441986001**************                                           0515
A2201400250000006275749BARBIN, MARESH CASTILLO                                  0501
B0101404130601029755001FIVE STAR EQUITY SERVICES                                1601
A0101404260611478374078SUPERAL, CORAZON                                         0502
A0101404260611768600001INOCENCIO, EVELYN ESTONILO                               0501
A0101409920000007304867CALUMINGA, THELMA RAMOS                                  0501
B0101413440655821200608**********                                               2001
A0101413990000004511179DESALISA, EDRIAN YAP                                     0502
A0101406590000000568758BAUCA, MYRA MEDRANO                                      0501
A0101406590000000905486CUCUECO, FILOMENO ROQUE                                  0502
B1301400340683035112001******                                                   1602
A1701400230000001786638PASCUA, MINERVA SINANG                                   0502
A0101408240000007478228MANGLAPUS JR., RAUL LAO                                  0501
A0101408240711606837001MAYS, CHERYL ANN                                         0501
A0101408240711656808001RAMIREZ, ANNA CARMELA OR                                10501
A0101408240711656808001MICHAEL RICHARD                                         20500
A4101400260000003679863JARABE, MARILOU PENARANDA                                0502
A4101400390000000379351SOSA JR., REGALADO ROY                                   0501
A4101400390813248327001SARIEGO, DANILO BAGONA                                   0501
A4101400420814478374026FLORENCIA DELA CALZADA                                   0501
A4101400420814478374144JOCELYN TALANA                                           0501
A4101400420814520766135MOTILLA, ROSELLE                                         0501
A4101400420000000120970REYAN S. LINCAY                                          0501
A4101400420814573870001TECHO, MARICEL MANALANSAN                                0501
A0101412340000003342521MICHAEL ANGELO C. DELA ROSA                              0501
A0101412340000004360730APRIL CAMILLE R. REVESENCIO                              0501
A0101412340000007305702ROWENA P. GONZALES                                       0502
A0101412340000007305757EVELYN D. ALVAREZ                                        0501
A0101404840851481664017JEROME B. JALANDONI                                      0502
B0101406750852067212001ST. DOMINIC MEDICAL CENTER, INC.                         1601
A0101406750000000017427ANTONIO, ARNALDO QUILATAN                                0501
A0101406750852478374008GADOR, IRIS                                              0502
A0601400230000003638824ABARQUEZ, EDWARD BACANI                                  0501
