B0101407430503821100608**********                                               2010
A1901400160000013855280TORIO, MARITESS TERESITA MENDOZ                          0501
A1901400160491296494001CRUZ, RENATO DE CASTRO                                   0501
A0301400790000005691990EMBALSADO JR., ALBERTO GEMPESAW                          0502
A3101400450000013739443TANYAG, DOMINADOR CORDOVA OR                            10501
A3101400450000013739443TANYAG, ELSA MENDOZA                                    20500
A0101412470000000520192ARCA, ESTHER DBU WASABE SPICE                           10503
A0101412470000000520192OF THE ORIENT                                           20500
A1101400120000000652380CAYUBIT JR., SERAFIN ASERON                              0501
A1101400120313547700001NICOLASORA, ALMARIE EULOGIA P.                           0510
A0101400860011401071002**********                                               0502
A0101400860011454708001**********                                               0501
A0101400860011549648001**********                                               0505
A0101411370000003294882CHANDRASEKAR, SANJAY                                     0502
A0101400150000003164069DE VELA, JENIS GARCIA                                    0502
B0101400150061010838003INFORMATICS COMPUTER INSTITUTE, INC                      1605
A0101400600000012350177DAMALERIO, IRMA RESIMENTO                                0501
A0101400600000005943091CHERRY B. PANA                                           0502
A0101400600071478374003JALIQUE, GENARA                                          0502
A0601400100000006092639ARRIBE, BAZIL CHRISTIAN OR                              10501
A0601400100000006092639ARRIBE, CHARMIE                                         20500
A0601400100000006334072GUTIERREZ, JHON CHRISTOPHER SAC                          0501
B0601400100081026547002ANGELES FRIED CHICKEN, INC.                              1610
B0601400100081035921001MOTHER'S CAKE HOUSE AND RESTO, INC.                      1605
B0601400100000002099421********************                                     1605
B0601400520000002085890REMLINGER, MARISSA DE DIOS                               1602
B0101414090000002244662THINKSCAPE RESEARCH SERVICES INC.                        1606
A0101410560000002316456REYES, REDENTOR HERNANDEZ                                0501
A0101410560000005280724MARCK JULIUS A MANAOIS                                   0501
B0101410560000000757284S.M. LAZO MEDICAL CLINIC, INC.                           1602
B0101410560000007071401RFM MACHINERY AND EQUIPMENT                             11603
B0101410560000007071401CORPORATION                                             21600
A0101400730111195439001TAN, ROWENA                                              0501
A0101406040000007842660********                                                 0510
A0101401960121238763004**********                                               0501
B0101401830141032221001CARITAS ET LABORA HUMAN RESOURCE SERVICE                11610
B0101401830141032221001COOP.                                                   21600
A0101401830141778132001MADLANG-AWA, JONILOU ARTUYO                              0501
A7201400170000011454389CATIIL, MARIFIE ARSULA                                   0501
A0101412920000005354354CUELLAR, JEFFREY MAGLALANG                               0501
A0101407270162390807001THOMAS P. MANOTOC JR. OR                                10507
A0101407270162390807001MA. ROSARIO REME                                        20500
A0101407270162449396005AUMER ANNE L. REYES                                      0501
B0101401090000013879020MA. IRENE D. LIU AND MYLA R. SANTIAGO                    1601
A0101401090171195860002JOVE JIM S. AGUAS                                        0501
A0101401090171195924001CARALIPIO, NENITA D.                                     0501
A0101401090171636462001BERNARDITA GWYNNE P. BONDOC                              0501
B0301400530000001409392PHILFRUITS PREMIUM CORPORATION                           1603
A0301400530000003573379CABALLERO, SORAYA MIGUEL OR                             10502
A0301400530000003573379CABALLERO, JOEMA                                        20500
A0301400530000011432841ENTIZE, MIKE WRIGHT ALMEDILLA                            0502
B0301400530193035122088FOUR SEASONS FRUITS CORPORATION                          1612
A0301400530000008307551GONZALES, SYLVIA EUGENIO or                             10505
A0301400530000008307551GONZALES SR., RE                                        20500
A0301400530000010370662BENEMERITO, MARIA CLAMUCHA                               0505
A0301400790000012273842YUMOL, RR LUCKY ROBLES                                   0502
B0301400790000002301342MONTEVERDE II, GEORGE MENDEZ DBU GV & HH                11601
B0301400790000002301342MARKETING                                               21600
A0101412500000003289992****                                                     0501
A3101400160221356270002RONALDO J. PUA                                           0501
A3101400450223588221001GATDULA, JAMAILA  OR AGONCILLO,                         10501
A3101400450223588221001JAYVEE OR JOSE                                          20500
A3101400870000003515375IGLESIA, ERHVYN DERHYCK GALLETA                          0501
B1001400190231061482001MAGSAYO, ALLAN CASTRO DBU                               11601
B1001400190231061482001SCORPION SACKS M                                        21600
A1001400190231273069001DE VERA, VICTOR                                          0501
A1001400190231274559001SY, MAN CHAK                                             0501
A1001400190231478374006LIBRADO, HAZEL T.                                        0501
A1001400190231478374086LORNA A. OMANDAM                                         0501
A1001400190000000016446JOMOC, RENETH TAGARDA                                    0501
A1001400190000002170521GALAPIN, RAUL L                                          0501
A1001400350000000922332DINOGAN, JESRIEL MIGUELA OR DIN                         10501
A1001400350000000922332OGAN, BELINDA MO                                        20500
A1901400290000001975302MARELLA SALONGA DE CASTRO                               10501
A1901400290000001975302DBU FIVE M'S TRADING                                    20500
A1901400290000004366110MIDAS TOUCH TRADING                                      0501
A1901400290261250069001DRA. JABES BUCE CARRASCOSO                               0505
A1901400290261488341075DR. HELEN BAUTISTA DY                                    0502
A1901400290000011244670NORIE HARINA SANTIAGO                                    0501
A1901400290261585775001LITA CUETO MENDOZA OR DORIS                             10502
A1901400290261585775001MARIE MENDOZA MEDINA                                    20500
A1901400290261780745001FLOR MENDOZA CRUZ                                        0501
B0101401670271025682002* * * * * *                                              1610
A0101406620000000577117SEIDEL, EDWARD PUNSALAN                                  0502
B0101406620273012462001COL FINANCIAL GROUP, INC.                                1620
B0101406620273031145001KOHL INDUSTRIES CORPORATION                              1603
B0101406620000009695389LINKWISE TECHNOLOGY PHILIPPINES INC                      1602
A0101406620273385381001LEBBE, GERAVACIA VILLAREAL                               0502
A0101406620273510562001MARIGMEN, KAREN MAMAUAG                                  0501
A0101406620000004926103RIMANDO, MITZI LOUIE MANUEL                              0502
A0101406620000003661363GRANADA, RONALDO MAGNO                                   0501
A0101411820277096254001RIZADA, RYAN JOSEPH RAMOS                                0501
A0101412470000005380332SALIGUMBA, JULIE MAE RAS                                 0502
B0101400570000000749526KNIGHTS OF COLUMBUS CAPITOL COUNCIL 3695                 1601
B2601400270000011485302BILLY UY UY DBU HOPE STAR RICE MILL OR                  11605
B2601400270000011485302KEVIN PASCUA UY                                         21600
B0801400160000001290011*************                                            1601
B1101400120000000653190BOSJAN MAIN MARKETING CORP.                              1605
A1101400120000009119591LOLITA B. BANDILLA                                       0501
A1101400120313478374077ROMO, ALILY PECASO                                       0501
A1101400120000000652540VILLEGAS, MALCOLM JAMES P. OR                           10503
A1101400120000000652540VILLEGAS, ALVIN                                         20500
A6601400120314415183001UY, CHRISTIAN EMMANUEL OR                               10501
A6601400120314415183001UY, FLORIANE                                            20500
B3401400280000006790965JL PRIORITY LENDING CORPORATION                          1602
A2901400130000009071665CRUZ, VILLAMOR PUNZALAN                                  0505
A29014001300000090717230ELA CRUZ, CYNTHIA GRACE CERRAD                          0510
B0101402350321041173001GO TEC INTERNATIONAL BUSINESS SCHOOL,                   11601
B0101402350321041173001INC.                                                    21600
A0101405650000000525871CEDILLA, PATRICK JOSEPH V.                              10501
A0101405650000000525871OR CEDILLA, LILI                                        20500
A0101405650322170702003ADAN, ANTONIO D. OR                                     10501
A0101405650322170702003ADAN, GRACE CAST                                        20500
A0101402510000011695033ORTEGA, DECELYNDA CABARDO                                0503
A0101402510000011748704RAGOS, KATHLEEN CHARMAINE                               10501
A0101402510000011748704SAN JUAN                                                20500
A0101402510000013485582RAGOS, KATHLEEN CHARMAINE                               10501
A0101402510000013485582SAN JUAN                                                20500
A0101402510341035838001AIM CHRISTIAN LEARNING CENTER I                          0501
A0101402510341399755001********                                                 0501
A0101402060351434359001USON, RODOLFO RODRIGUEZ                                  0501
A0101402060351743186001GALPA, NONITO BIAGO                                      0502
A0101409050000006986716PARAGAS, LEAH PATRICE BORJA                              0501
A0201400920000007951731IMELDA D. ESTOCADO                                       0501
A0201400890000003657783EMPLOYEES OF GLOBAL REV GEN PTY                          0501
A0101402930381206721001DRS. CORAZON C. ESTRELLA OR                             10501
A0101402930381206721001FELIPE A. ESTREL                                        20500
B0101402930381667403001PRIVE PROPERTIES DEVELOPMENT INC.                        1601
A0101408370000000335511MERLYN MONTEROZO-BUCSIT                                  0502
A0101408370000009296626HENSON, KARL EVANS RIVERA                                0501
A0101408370000002264079CHRISTOPHER A. SANTOS M.D                                0502
A0101408790000006026039CATALUNA, KAREN CLAIRE CASIMIRO                          0501
A0101408790000006025981MORALES, MANUEL SIOCO DBU                               10502
A0101408790000006025981NASHFIL ENTERPRISES                                     20500
A0101411660000010562120CARRANZA, KATHRINA SALES                                 0502
B0101402770391009425001JELSON'S ENTERPRISE CORP.                                1603
A0101402770391213549001VILLARETE, RAMON C. OR                                  10501
A0101402770391213549001VILLARETE, MARILOU P.                                   20500
A0101402770000000360592LUY, RAMON TSAN                                          0501
B0101408400394028561001KAW AND UNSON THE ANIMAL HOUSE CO.                       1601
A0101408400394038560001R-FER ENTERPRISES                                        0501
A0101408400000001258588MJZION FURNITURE SHOP                                    0501
A0101412210000010256594PARAGAS, SUERTE CABEL                                    0501
A0101412210000013881791NALUZ, JONI PENA                                         0502
A0101412210000012652670TANGO, KAREN LEE DELA ROSA                               0501
A0101412210399094817012BAYLON, JOSE BAYANI DICHOSA                              0502
A5501400120000005492220ROCKWELL, SHARON SILVA                                   0501
A5501400120000012653413CABLITAS, KRISTIAN JAY MANUEL                            0502
B5501400120000005492413SURALLAH PENVIL FAMILY COMMERCIAL,                       1605
A1201400150421253603001FLORES, ISABELITA MENDOZA OR                            10501
A1201400150421253603001DOLOROSA JR. ROMEO FLORES                               20500
A0101403030000011532879XU, QUANHUA                                              0501
A0101412890000001056451**********                                               0502
A0101406330472027958001A. ANOLIN ENTERPRISES                                    0502
A0101406330000001235125VIZARRA, EDDIEBEL GONZALES                               0502
A0101412760000001399744TODA FAIRY LENDING, INC.                                 0501
B3801400170490060785001CALAPAN GOLDEN EAGLE MART, INC.                          1615
A1901400160000013645826MELVIN D. VIRTUSIO DBU DAVE'S                           10503
A1901400160000013645826SATELLITE LINK                                          20500
A1901400160491282845001ARTHUR C MALALUAN OR                                    10501
A1901400160491282845001IRENE D MALALUAN                                        20500
A1401400110492023002001THESAURUS DRUGSTORE & GENERAL                           10505
A1401400110492023002001MERCHANDISE                                             20500
A1401400110492340848001EDISSA S. STA. AGUEDA                                    0501
A1401400110000010622652TAN, FERNANDO LIM                                        0501
A1601400170000009954432POOT, JANELINE BURCE                                     0502
B0101407430503006843001PACIFIC SHIPPING AND DISTRIBUTION INC.                   1605
A0101407430503279466001CARINA S. TALEON OR                                     10501
A0101407430503279466001CESAR L. TALEON                                         20500
B0101403580000004540641M22 BUILDERS INC.                                        1610
A0101408530000007304572ADAPTAR, ANGELEEN ABROGINA                               0501
A0101408530000013881940LISMORAS, EDWIN MALAREJES                                0501
A0101408530000013888196DOMINGO, ANGELICA PANUNCIALMAN                           0501
A0101408530516629972001ESTACIO, DANIEL LLANTO                                   0502
A0101411400000012209868***                                                      0501
B0101411400000012210163TECHNECO INC                                             1620
A0101412050000003966763DE LEON, ARTURO PUZON OR                                10502
A0101412050000003966763DE LEON, WILFRED                                        20500
B0101403450521011799001**********                                               1601
B0101403450521021003002GRANVILLE INDUSTRIAL CHEMICAL CORP.                      1606
B0101403450521032242001**********                                               1601
A0101403450000001769800************                                             0501
A0101403450521432767001********                                                 0501
B0101403610000012969816GERODIAS, JARDINE MUYOT JT                               1602
A0101403610000013866561LUNA, MA RIZELLE SINGH                                   0501
B0101403610000013867742ALIWAL LENDING COMPANY, INC                              1601
B0101403610000006637114RD PAWNSHOP, INC.                                        1603
A2201400250561296301002MARIA ANTONETTE I. BELMONTE                              0502
B0101407720602019639001MMC DEPARTMENT OF OB-GYN                                 1602
B0101407720602026484001COMHORIZON, INC.                                         1602
A0101407720602396366001BRAVO, ARLENE RICARTE                                    0502
A0101407720602396414001KATERINA TANYA GOSIENGFIAO OR                           10501
A0101407720602396414001DAVID HAROLD GOSIENGFIAO                                20500
A0101407720602396414002KATERINA TANYA P. GOSIENGFIAO                            0502
A0101407720602396505001ABAD SANTOS, SALVADOR MICLAT                             0501
A0101407720602398542002DR. ROBERT DENNIS J. GARCIA                              0502
A0101407720602399815001ALEJANDRO, RUTH MARGARET                                10501
A0101407720602399815001FRANCISCO                                               20500
A0101407720602405257001MENDOZA, MARIEROSE TEVES                                 0502
B0101407720602579811001MMC DEPARTMENT OF OB-GYN FOUNDATION INC.                 1602
A0101407720000000713171TOMAS, ANGELICA CECILIA VELASCO                          0501
A0101412180000002340687LEGASTO, MARIANNE CAMPILLO OR                           10501
A0101412180000002340687LEGASTO, JOSE ANTONIO V                                 20500
A0101404260611150850002DEDEL, DAVID BAGTAS                                      0502
A0101404260611478374109ANGELITA SIQUIJOR                                        0501
B0101404260611537674001KLINI-KAYA MEDICAL SPECIALISTS INC.                      1605
A0101409890000006813141ABAYAN, CHRISTINE PESCUESO OR                           10502
A0101409890000006813141ABAYAN, PAULITO FRANCISCO                               20500
A0101409920000013391287VELASQUEZ, ELAINE TRAJANO                                0503
A0101409920000010528662PENAFLORIDA, EMELITA L. DBU                             10505
A0101409920000010528662JEEMILES ENTERPR                                        20500
A0101407690000000587793CECILIA F. PILI                                          0502
A0101407690652551856001FLORENCE G. HASTINGS OR                                 10501
A0101407690652551856001NENITA B. GALLARDO                                      20500
B0101413990000000206055TRIPLE STAR STAFFING CENTER, INC.                        1601
A0101414120000000875641JOSEPHINE VILLONES OR RENATO                            10501
A0101414120000000875641VILLONES                                                20500
A0101406590662004368001VIDANES, ELIZABETH DBU VIDANES                          10502
A0101406590662004368001MARKETING&MANAGEMENT SERV                               20500
A1301400210000009982570ESTRELLA, KRISNA MENDOZA                                 0501
B1301400210000008174032THE PASTRY CHEF CAKES & DESSERTS                         1601
A1301400340000000926870CUERDO, AYA                                              0503
B1301400340000000981966PACHECO, CZYLVESTER LIM DBU VERDE PETROL                11601
B1301400340000000981966STATION                                                 21600
A1301400340683453552002NATIVIDAD, EDUARDO PACHECO                               0502
A1301400340683520107001ROSELADA, MILAGROS DIMARUCOT                             0502
B1301400500000000011201NICOLINE.FREIGHT, INC.                                   1605
A1701400230000013092563AGUSTIN, ROLANDO AOIGAN                                  0501
A1701400230693056769001PUNO, CHESTER ROSARIO JOSE DBU                          10501
A1701400230693056769001ENT TI ILI                                              20500
A0101408240000007478320MARTINEZ, MARIA LINDA BENARES                           10502
A0101408240000007478320OR MARIANO OR MARGARITA                                 20500
A0101408240711404008001****                                                     0502
A2801400100712401674002DEL ROSARIO, DANILO LARACAS                              0501
A2801400230000002312390LAMB, DAVID JOHN                                         0501
B2801400230000005253703CAYSING MARKETING                                        1602
A4101400420000000120970REYAN S. LINCAY                                          0501
B4101400550815038465004SOUTH EAST ASIAN MEDICAL CENTER INC                      1650
A4101400550000007583864RIVERA, ROSALINDA LOVERIA                                0502
A0101412340000003342532MARCELYN U. DELFIN                                       0501
A0101412340000003342970JESSICA J. ESPINOZA                                      0501
A0101412340000003422784SONNY KAJ C. ALIBANGBANG                                 0501
A0101404840851046725013MARY JANE A. DE GUIA                                     0501
A0101404840851281035001NELLIE M. LAW &/OR                                      10503
A0101404840851281035001HERMINIO T. LAW                                         20500
A0101404840000000475923IMSON, RODA FLOR OCAMPO                                  0501
A0101404840851520766154CORAZON ONIA                                             0501
A0101405070861478374020SOL G. CONFLOR                                           0503
A0601400230000003015750RICHIE B. PAGCU OR                                      10501
A0601400230000003015750JOSE RICARTE B.                                         20500
B0601400230000011168357MAA GENERAL ASSURANCE PHILS., INC                        1601
B0601400230891044272001PAMPANGA GREENBUCK CORPORATION                           1601
B0601400230000003644819OWJ ENTERPRISES INC.                                     1601
A0601400230891433611001GUZMAN, LORRAINE BUENA                                   0501
A0601400230891510098001NACPIL, MA. LUISA MERCADO                                0501
