B1001400190231821100608**********                                               2010
B0101412180604821100608**********                                               2002
A3801400170000001091025MANUEL LUNA III OR RINA LUNA                             0501
A3001400130000000007063GOLDEN HARVEST CATERING SERVICE                         10502
A3001400130000000007063FASTFOOD                                                20500
A3001400130230478374026SONOT, RODERICK AMAHOY                                   0501
A0101412890000004344990IP, M DBU GOLDEN WORKERS                                10502
A0101412890000004344990CONSTRUCTION                                            20500
A3801400170000002302852NICA RAVEN A CHUA                                        0501
B4101400420814047949001SOUTHWOODS SCHOOL OF CAVITE, INC.                        1602
A4101400420814478374122AGUILO, RODENA T.                                        0501
A0101400860011533026001**********                                               0502
A0101401250021179015001BUNYE, EMILINA DELA CRUZ OR                             10501
A0101401250021179015001BUNYE, ERWIN                                            20500
A0101401250021180271001ERLINDA V. EQUIBAL                                       0501
A0101401250000000460564EVANGELISTA, ELAINE DEL ROSARIO                          0502
B0101400150061024429001BRONZEOAK PHILIPPINES INC.                               1603
B0101400150000004703393PHILIPPINE TRAVEL AGENCIES ASSOCIATION                   1603
B0101400150000001708447PHILIPPINE VENDING CORPORATION                           1602
A0101400150061541767001INGENIERO, SIEGFRED CANDELARIO                           0501
A0101400600000000007661******                                                   0502
B0601400100081037699001NEOART CORP.                                             1602
B0601400360000003186781GOLD TREE IMPORT AND EXPORT INC.                         1604
A0101414090000000399388******                                                   0501
A0101410560110478374013CYNTHIA EVANGELISTA MENDOZA                              0501
A0101400730111403905001MONTERDE, ARNEL MORA OR                                 10510
A0101400730111403905001JARDIOLIN, MAJAR                                        20500
A0101401960000000211025ESTELLA, ROGELIO TAN                                     0501
A0101413310000001073530PACAMARRA, GILMARIE FE SALVA                             0501
A0101401830141089725001ROMANO, MA. VICTORIA DE GUZMAN                           0501
A5001400170000000213874TABANAG, JONATHAN B. OR                                 10501
A5001400170000000213874TABANAG, EDELISA P.                                     20500
A0101412920000003464908BARRETTO, JOCELYN EXCONDE OR                            10502
A0101412920000003464908BARRETTO, KRISTEL JOY E                                 20500
A0101400440000000821538MARITES T. JIMENEZ                                       0501
A0101400440161478374129HAZEL R. SALATAN                                         0502
B0101407270162019023001PHILIPPINE BATTERIES,                                   11610
B0101407270162019023001INCORPORATED                                            21600
A0101407270162225350001GRACE Q. AGCAOILI                                        0501
B0301400530000000065945TAGUM SEAFOODS AND GRILL CORPORATION                     1604
A0301400530193704187088MERCED, TERESITA S. OR                                  10501
A0301400530193704187088MERCED, PETER V.                                        20500
B0301400660194044417088*****                                                    1605
B0101401380201041068088SOUTHERN HELEVICLE TRADING                               1601
A0101401380201313149001JAIME R. ALANO                                           0501
A0101401380201341491001SALANO, JOSEPH PAUL                                      0501
A0101410720653037327001R.P. MENDOZA CONSTRUCTION                                0504
A0101410720653172338001MATIAS, MA. DOLORES C.                                   0503
A0101410720653478374050MYRA B. GERMANO                                          0501
B0101412500000000739737MIKEWELL WORLD OF HOUSEHOLD PRODUCTS                    11605
B0101412500000000739737CORPORATION                                             21600
A0101412500000000041636EMPEMANO, FARLA CAROLYN GARCIA                           0502
A3101400160221478374002MA. LOURDES T. ELIZON                                    0503
B1001400190231026876001PEOPLE'S AGRI SERVICE & SUPPLY, INC                      1605
A1001400190000000124887EDNA B. BITOY                                            0501
A1001400350233521940001SIA, RAMIL UAYAN                                         0501
A1301400470252538628001JENNY BILOG                                              0501
B1301400760000000050717EJA AGRITECH CORPORATION                                 1605
A0101401670271479173002RESURRECCION, MARIA VERONICA                            10503
A0101401670271479173002GARCIA                                                  20500
B0101406620273005622001MERIDIAN ASSURANCE CORP.                                 1601
A0101408660000000855932ORAYANI, RAUL SALAC OR                                  10501
A0101408660000000855932MARIAN ORAYANI                                          20500
A0101408660274595574001MORILLA, GAUDIOSA TENA                                   0502
B0101400570000003451498LUSH ENTERPRISES CORPORATION                             1603
B0101400570000002104125JESUS IS LORD CHURCH WORLDWIDE MISS                      1605
A0101400570281324938001RICARDO PATROCINIO OR                                   10501
A0101400570281324938001JENNIFER PATROCI                                        20500
A0101400570281507924001RAMOS JR., MIGUEL ARAOJO                                 0502
B0801400160000000010260ILOILO SUPERMART, INC.                                   1601
A0801400160311029906001************                                             0504
A0801400160311478374004MAELYN HACERMIDA                                         0501
A1101400120313478374093GIMARANGAN, JINKY A.                                     0502
A1101400120000000065121ALVARADO, LIEZEL CASINO                                  0501
A1101400120313547700001NICOLASORA, ALMARIE EULOGIA P.                           0506
A6601400120000001065281ECHALUCE, RAFAEL OR MYRNA                                0503
A0101402510341196521001REYNALDO TAMAYO OR MARIA                                10501
A0101402510341196521001CARMENCITA TAMAY                                        20500
A0101402060000000358463JOROMO, VERALYNN ALMARIEGO                               0501
A0101402060351009385001JORGE ALOMBRO JR. OR                                    10510
A0101402060351009385001NELIA ALOMBRO                                           20500
A0101402060351009458001LION TWIN ENTERPRISES                                    0503
A0101402060351040443001Q-TECH TESTING LABORATORY                                0503
A0101402060351211814001MA. ANA S SANTOS                                         0503
A0101402060351380947001**********                                               0501
A0101402060351653390001ACAYAN, MARY ANN OR                                     10501
A0101402060351653390001ACAYAN, JACINTO                                         20500
A0101409050000003536474ARCE, ERIC                                               0501
A0201400920375524523001MIEL, PRINCESITA OR MIEL, ALEX                           0502
A0101402930381205210003MARCELO OR CORAZON ESGUERRA OR                          10506
A0101402930381205210003JOYCE VITUG                                             20500
A0101402930381205350002MARIANO BONDOC/LOURDES MILADEL/                         10506
A0101402930381205350002JUAN MIGUEL BONDOC                                      20500
A0101402930381279196001JUAN MIGUEL R. BONDOC                                    0506
B0101402930381321280001S.D. FLORES CONSTRUCTION CO., INC.                       1602
B0101402930381321280003S.D. FLORES CORPORATION                                  1602
A0101402930381410766001MILADEL LOURDES R BONDOC                                 0505
A0101408370000000476682BURGOS, DARREN MARIE ARRIOLA                             0501
A0101408790000002031510LUIS FRANCISCO G. SOLIVEN                                0502
A0101411660000002309542VALDEZ, SHANE PAMENE                                     0502
B0101405490000003905184NORTHSHORE HARDWARE AND CONSTRUCTION                    11603
B0101405490000003905184SUPPLY                                                  21600
B0101405490392081974001HALCHEM INDUSTRIAL SALES, INC.                           1606
B0101405490392332339001**********                                               1603
A0101408400394478374077PEREZ, CONCHITA                                          0502
A0101408400394604389001MOLINA, LORETO OR                                       10501
A0101408400394604389001MOLINA, JEANNETTE                                       20500
A0101409180000004409778CASTILLO, DARIE ABAYON                                   0502
A0301400820000001185848SELGAS, RAPHSEL R.                                       0501
A5501400120410641408001GASCON, MERCEDITA TALAPIAN                               0505
B5501400120410654342008SAY, CLETO OR FELING OR HELEN OR DANNY                   1610
A0901400220000000012299GAYON, MARINA TACHADO                                    0502
B0101403030441021825001**********                                               1602
B0101406330000000432853CEDAR PAYROLL AND BENEFITS MANAGEMENT                   11602
B0101406330000000432853SERVICES CO.                                            21600
A0101406330472212402001ARTEMIO V. DEL ROSARIO                                   0505
A0101406330472296884001JAYLEE TRADING                                           0502
B0101406330000000162478JOSE JR.,IGNACIO/REGIO,ELISA/SAYOS,MA.CE                11602
B0101406330000000162478CILIA/MATRE,DANI                                        21600
A0101406330472481679001MA. CRISTINA LOPEZ OR                                   10501
A0101406330472481679001ROGELIO LOPEZ                                           20500
A0501400170481365467003CALLANTA, JOHN SORIANO                                   0505
A0501400170481409728004ANG, JUSSLYNN MAISIE ONG                                 0502
A1901400160000000243514CONRADO AUGUST AMBIDA BONDAD JR                          0502
B0101405940512023092001CONSUNJI & BONIFACIO LAW OFFICES                         1603
B0101406880513040386001CASES CORPUS & ASSOCIATES LAW OFFICE                     1606
A0101408110000000380107SAN JUAN, PAUL EUMIR                                    10501
A0101408110000000380107DEL ROSARIO                                             20500
A0101411790000002275932MARIANO-CRUZ, MARIA ANTONIETTE                           0501
B0101403450521238082001*********                                                1601
B0101403450521364308001**********                                               1601
B0101404130601100148003UNIESSENCE CHEMICALS PHILIPPINES INC                     1605
A0101407720602318369116JOSEPH M. SAQUIN                                         0501
A0101407720602330685002VALLE JR., DEMETRIO LIM                                  0501
B0101412180000000075409EMPEROR'S 168 PALACE INC.                                1605
B0101404260611020600001MAKATI SAVINGS COOPERATIVE                               1610
B0101404260611035419002JK HUMANBOND CORPORATION                                 1602
A0101409920650478374024DUMAWING, LUALHATI SANTIAGO                              0501
A0101413440000002629241APILADO, MARYFLOR ILAGAN                                 0501
B0101413570000000206453DIAMONDS STARS PACKAGING RESOURCES                      11602
B0101413570000000206453CO., INC.                                               21600
A0101413570656057648085AILEEN DE GUIA                                           0501
A0101413570656057648153LARRY MALONZO                                            0501
A0101413570656057648266JOSINE TANDOC                                            0501
A0101406590000000131693DR. FAITH T. BELLO OR                                   10502
A0101406590000000131693RAMON ANTONIO E. BELLO                                  20500
A1301400210000000540703CHING, HENRY DELA CRUZ                                   0501
A1301400210682555728001MARINA M. ROQUE                                          0506
A1301400340683545634001DEGANOS, REMEDIOS CUNANAN                                0501
A0101408240711180164001TUPAZ, CORAZON RONQUILLO                                 0501
A0101408240711400412005MIRCHANDANI, MICHAEL OR SHERYL                          10501
A0101408240711400412005OR SHAM OR LALA                                         20500
A0101408240000001038846AMORANTO, ROMMEL OR MARLENE OR                          10501
A0101408240000001038846OMARK OR ROBIN OR STEFFI                                20500
A4101400390813426577003TAPAWAN, MYDA COLUMNA                                    0501
A4101400390813478374014ELIZABETH V. EVAL                                        0502
A4101400420814436355001BAUTISTA, LOIDA U. OR                                   10502
A4101400420814436355001BAUTISTA, EPITAC                                        20500
A0101404840851478374038EVANGELINE UMALI                                         0501
A0101406750000004641861SIMBUL III, FILEMON NICOLAS OR                          10501
A0101406750000004641861ADELFINA SIMBUL                                         20500
B0101405070861046894001BUDGET TRAVEL & TOURS, INC.                              1605
A0101405070861433631001AGGABAO, CAROLYN MANGALONZO                              0501
B0601400230891029282001L5 & SONS FINANCING CORP.                                1605
A0601400230891032012001AQUA SPARKLETTS BY CARLYN                               10505
A0601400230891032012001NICOLE ALKALINE                                         20500
