F0301400790195054735001BROTHER BRYAN'S FOOD                                    12602CK1
F0301400790195054735001CORPORATION                                             22600CK1
F0301400790195054735002BROTHER BRYAN'S FOOD                                    12603CK1
F0301400790195054735002CORPORATION                                             22600CK1
F0601400360000000978925RONDAYVU MANUFACTURING CORPORAT                          2602CK1
F0101400570281493924001MARIANO, MANUEL MENDOZA                                  2505CKO
F0101402930381667403002PRIVE PROPERTIES DEVELOPMENT                            12602CKR
F0101402930381667403002INC.                                                    22600CKR
F0101406880513465368001HAW, BETTY LEE                                           2501CKO
F0101407720602531639009INTELLIGENT BEAUTY SKIN                                 12610CKR
F0101407720602531639009SOLUTIONS INC.                                          22600CKR
F1301400340683012920002MEYCAUAYAN COLLEGE INC.                                  2605CKR
