A0101411110000000009134**********                                               0503
A0101407690000000053881********                                                 0503
A2601400270000000084331MISAEL D. DOTIMAS                                        0502
A1701400230000000097869CORTEZ, DEBRAHLIZ DAHILIG                                0502
A0101400310000000140781ICARANOM, GINA SABENIANO                                 0502
A0101401090000000210522JMR INTERIOR DESIGNS                                     0501
A5001400170000000214020ARNOCO, MARIETA DIAMANTE                                 0502
A0101400150000000253427ARNEL C. CUARESMA                                        0501
A0101402480000000310625LAURENE GUMATAY                                          0501
A0101411820000000477134MA. ALETA CANIESO  NUNEZ                                 0502
A0101410140000000499407EDORIA, MLE VALVE ENTERPRISE                             0503
A0101413440000000570223LABSAN, CARMEN DELA CRUZ                                 0502
A0101404680000000767142LAGMAN, MARIO SERRAN                                     0502
A0101407270000000818280DELA PENA, MILA REGALADO                                 0501
A0101407690000000913666ANUNCIACION, ALLAN TENORIO                               0502
A0101407140000001218342TAN, RAYCHELLE ANN TAN                                   0501
A0101406330000001235392JULITA B. BAJO                                           0501
A0101412180000001293363VILLANUEVA, EUGENIO DEL ROSARIO                          0502
A0301400820000001554661ALCARAZ, LEAH VANESSA JOY                                0501
A0601400230000001687341LAYCO, RALPH ENGELBERT CANAPI                            0501
A0101408820000001766823******                                                   0502
A1301400340000002158443********                                                 0502
A2601400270000002257212JOSELITO P. CRISTOBAL                                    0502
A0901400220000002300823ARMAND B. ASPA                                           0501
A0601400230000002310092PARAFINA, LORENZA ALIPIO                                 0501
A0101408240000002821985MOROS, JAYSON BACHICHA                                   0501
A0101413440000002846331IDO, REYNALDO CASENAS                                    0501
A0101409890000003097950JUNATAS, DELFIN ROXAS                                    0501
A0101413600000003851063JOSELITO CRUZ                                            0501
A0101407270000004573600TALAVERA, RONAN MOTA                                     0501
A0101409210000004604062GODOY, J VOLTAIRE REYES                                  0501
A0101409210000004604073TULANA, AUDREY DEYTA                                     0501
A0101409210000004604084GUE, RONALD FRIVALDO                                     0501
A0101409210000004604095VILLEGAS, MARK BONIFACE FLORETA                          0501
A0101400150000004605801JAVIER, ROBERTO PAKINGAN                                 0501
A0101400860011086656001**********                                               0503
A0101400860011651458001**********                                               0503
A0101400150061532387001NATIVIDAD, ANABELE REDONDO                               0501
A0101400600071057858001BESTA SHIPPING LINES, INC.                               0505
A0101405810072373265003MANANSALA, JOYCEE CATARATA                               0502
A0101400310211478374065MARIVIC DELA PAZ                                         0501
A0101407140213240416001DICKSON CO LIM                                           0501
A0101407140213265328001**********                                               0502
A0101407140213587892002**********                                               0502
A3001400130230478374007ABADILLA, JOCELYN MARIE RAVELO                           0501
A3001400130230767566026URAG, EDECIO CUDERA                                      0501
A0101406620273477709002LUCERO JR., JUANITO ARIEL RUFON                          0502
A0801400160311265769002COLADA, JANETTE GARIN                                    0505
A0101408820333638235001******                                                   0502
A0201400760374478374004MELINDA P. ABEAR                                         0501
A0101402770391013439001JIREH'S CAR PAINT SHOP                                   0502
A5501400120410685210001GUINTIBANO, EDEN VILLARUEL                               0501
A2401400180411271161001ODAL, LEVY SANTOS                                        0502
A0101403030441241013001**********                                               0503
A0101406330472214807001EMELDA P. LINDAYAG                                       0501
A1601400170494076289001MARIA JOVI B. RAYCO                                      0501
A0101408530516615903040ROWENA MARIE MANALO                                      0502
A0101408530516615903048CHAVEZ, REMEDIOS QUIMAN                                  0502
A0101407720602397271001OZAETA, MA. RAMONA PABLO                                 0501
A0101407720602480488001GERALDINE MAJELLA L. JURILLA MD                          0501
A0101407720602485188001BASBAS, CRISTIE APURADO                                  0501
A0101407690652741995001ESTACIO JR., FELIPE ADONA                                0502
A0101408240711384215001PAUL LOUIE M. TUGADE                                     0505
A0101408240711759891001BONTIA, NELIZA MARFA                                     0502
A4101400260812478374062SUNNY G. CAPORADO                                        0501
A4101400390813333041001MARIO C. GENUINO,JR.                                     0501
A0101405070861382269001MAIQUEZ, JENNIFER PAMBID                                 0501
A0101400310000000019412SANTOS, DANNILYN GALE                                   10501
A0101402770000000360763FELIX, ELEONOR MAKABUHAY DBU                            10502
A0101402350000000521220FELIPE, DARMO DBU DSF HAUSWORK                          10502
A0101411370000000903571URBAN FONTS ADVERTISING                                 10502
A2601400270000001009107TALOSIG, ROEMA DBU JOHN 3:16                            10501
A0101406750000001491852DELA TORRE, RODA JANE ANTONIO                           10502
A1901400160000003198685FRANCIS LUCENA OR SHIELA COMIA                          10501
A0101401090171196005001MARCELINO BANZON OR                                     10505
A3101400450223352819001FARAON, RIZALINA OR                                     10502
A0101406620273521300001GARCIA, LEO MCGUIRE OR                                  10501
A0101408820333562379001WILMA A. TAMONDONG AND                                  10502
A0101402060351009359001JIANDANI, SURESH G. OR                                  10501
A0101402060351687812001SOLER, MA. ASUNCION RAMIREZ                             10501
A1201400150421317778001REDEN MANARANG RONQUILLO OR                             10501
A2201400250561293366001JOSE ANGELO D. FLORES OR MELIZA                         10503
A0101407720602343284001MARY ANGELINE RECTO OR                                  10501
A0101407690652298552010ANGELINA CANETE - DEALERS OF                            10502
A0101407690652478374131TARROQUIN, NORA - DEALERS OF                            10501
A0101407690652478374145MA. ROUMELA LUISA MIJARES -                             10501
A0101407690652525001053JOCELYN B. JONOTA - DEALERS OF                          10501
A0101411950680080596001ROBLES, HILDA ESPIRITU OR                               10501
A0101404840851791747001BALMES, GERVACIO OR SARADAT,                            10501
A0101400310000000019412POLICARPIO                                              20500
A0101402770000000360763JELLY ICE DELIVE                                        20500
A0101402350000000521220EMPLOYMENT SERVICES                                     20500
A0101411370000000903571SERVICES                                                20500
A2601400270000001009107MUSIC CENTER AND SERVICES OR TALOSIG JR., RENATO        20500
A0101406750000001491852OR DECENA, ARNULFO                                      20500
A1901400160000003198685OR ARNEL HIBO                                           20500
A0101401090171196005001NINA BANZON                                             20500
A3101400450223352819001BELEN, RHODORA                                          20500
A0101406620273521300001GARCIA, CARMEN                                          20500
A0101408820333562379001ARNOLD P. TAMOND                                        20500
A0101402060351009359001JIANDANI, KAVITA                                        20500
A0101402060351687812001ARELLANO                                                20500
A1201400150421317778001LENIE RONQUILLO                                         20500
A2201400250561293366001TRACY MARGARET G                                        20500
A0101407720602343284001RODRIGO RECTO JR                                        20500
A0101407690652298552010SHOECAT INC.                                            20500
A0101407690652478374131SHOECAT, INC.                                           20500
A0101407690652478374145DEALERS OF SHOECAT INC.                                 20500
A0101407690652525001053SHOECAT INC.                                            20500
A0101411950680080596001ESPIRITU, ERNEST                                        20500
A0101404840851791747001MONICA OR GALLAG                                        20500
B0101411820000000024142HARDCOM COMPUTER SYSTEM CO.                              1601
B0101400150000000052855SOLID MILLS CONDOMINIUM CORP.                            1602
B5001400170000000169857LINK RI LOGISTICS INC.                                   1605
B0101406620000000194096SUNPRIME FINANCE INC.                                    1602
B0101400860000000414133**********                                               1605
B0101413440000001085723MALABON EDUCATIONAL INSTITUTION                          1601
B0101402480000001562027************                                             1610
B0101402480000002906181***************                                          1601
B0101411080042191149001******                                                   1601
B0101400150061016942007ASIA PACIFIC EXPRESS CORPORATION                         1605
B0101400150061039643001J.M.PIZARRAS AND ASSOCIATES LAW OFFICE                   1605
B0101400150061047005001BUREAUSERV GLOBAL INC.                                   1602
B0101400440161037708002RD CASH PADALA, INC.-AREA 1                              1603
B0101401090171042218001RD CASH PADALA, INC. - AREA 02                           1603
B0101400570281043944002EXLO MANPOWER AND ALLIED SERVICES, INC.                  1602
B3401400280318028083001LEMACEL TRADING CORPORATION                              1610
B0101402480331010240002*****************                                        1610
B0101402640361032684001GREENSTONE PACKAGING CORP.                               1603
B0201400760374006430001CHRIST COMMISSION FOUNDATION INC.                        1602
B0101402930381010731001********                                                 1601
B1201400150421020444001INFORMATICS BAGUIO CITY CENTER INC.                      1605
B0101403030441677350001**********                                               1601
B0101406330472040053001KUS OFFICE SYSTEM MFG. CORP.                             1602
B0101404130601015346002GLOBAL GAS & OIL CARRIERS, INC.                          1603
B0101404260611037364001MMF METAL FABRICATION                                    1605
B0101407560686455446001ROYAL ARRANQUE COMMERCIAL CENTER CO                      1605
B4101400260812026622001GREENWOODS HOMEOWNERS ASSOCIATION INC.                   1604
B4101400550815042470001JIREH BUILDING                                           1601
B0101402930381040001001TURQUOISE TRAVEL & EVENTS                               11602
B0101402770391038856001SUBURBAN HEIGHTS HOMEOWNERS ASSOCIATION,                11604
B0101402770391039149001ASIA PACIFIC ACCELERATED CHRISTIAN                      11602
B0101408400394047325001VICLOR MICROLENDING INVESTOR                            11603
B1201400150421496291001LIQUETE, DOLORES SAGUID OR LIQUETE,                     11601
B0101403030441631353001ANG CHING HUAN & SONS RESOURCE                          11605
B0101407560686006370005VICTORIANO T. LEY OR                                    11603
B0101407560686447318003CHUA, CLYDE IVAN OR                                     11605
B0101402930381040001001MANAGEMENT CORP.                                        21600
B0101402770391038856001INC.                                                    21600
B0101402770391039149001SCHOOL                                                  21600
B0101408400394047325001CORPORATION                                             21600
B1201400150421496291001LEONARDO                                                21600
B0101403030441631353001PHIL                                                    21600
B0101407560686006370005CLYDE CHUA                                              21600
B0101407560686447318003LEY, VICTORIANO                                         21600
B3101400320222821100608**********                                               2005
B0401400270242821100608**********                                               2010
B0101415220613821100608**********                                               2004
