A0101401960121238669001**********                                               0501
A0101400440161044130001KNUFFNA MARKETING                                        0502
A0101408400394478374057EVELYN M. BONGAT                                         0505
A0101400860011375200002**********                                               0503
A0101400860011464161001**********                                               0505
A0101401250000002131953REGINO, REGINALD H. OR                                  10501
A0101401250000002131953REGINO, JOCEL M.                                        20500
B0101401250000000057258EXCEL PRO PLACEMENT AND SERVICES, INC.                   1602
A0101401250000007390232RIVERS OF JOY TRADING                                    0502
A0101401250021298552002CLARITA L. ARCEGA                                        0502
A0101400150061153530001CEMBRANO JR., ALFONSO GONZALES                           0502
A0101400600000008914876SENO, JESON JADIA                                        0501
B0101405810072034989001TRANSWELL ENGINEERING CO.                                1602
A0101405810072235198001**********                                               0501
A0601400100081032955001JENPREZ LAUNDRYNET                                       0502
A0601400360000002282271BASCO, ENERIO CASTRO                                     0501
B0101414090000002244662THINKSCAPE RESEARCH SERVICES INC.                        1604
A0101400730000000833192GLEN T. NIOKO                                            0502
A0101400730111530232002PANTOJA, ERALD PAPA                                      0501
A0101401960121470417001************                                             0501
A7201400170000011141681YTING, NELLY SUAN                                        0502
B5001400170000000169857LINK RI LOGISTICS INC.                                   1606
A0101412920000008813423NAVARRO, ANGELITA PAGTALUNAN                             0502
A0101400440000009591900ESTARAS, RICHIE VILLANUEVA                               0502
A0101400440161478374042PEARLY ROSE ALEJO                                        0501
A0101400440161760130001CANDELARIO, MYRNA SATURNINO                              0501
A0101407270000003254260CHERYL C. SOLANGON                                       0501
B0101401090000001611370SPARKLE CORPORATION                                      1601
A0101401090171196095001ALBERTO WONCHAI OR                                      10502
A0101401090171196095001MILAGROS W. LIM                                         20500
A0101401090171243605002EDEN M. CHAPOCO                                          0501
A0301400950000005707080*************                                            0501
B0101401380201041802001D'GLACIERS' MGM INC. - MAC                               1602
A0101401380000000106505SY, WILFREDO O. DBU TITO ROM                            10503
A0101401380000000106505SA CAPITOL RESTAURANT                                   20500
A0101401380000010190502EDMILLIE S. OBA                                          0501
B0101401380201552367001*********                                                1601
A0101410720000001602302******                                                   0501
B3101400450223016839002LANDCO PACIFIC CORPORATION                               1602
A3101400450223352819001FARAON, RIZALINA OR                                     10502
A3101400450223352819001BELEN, RHODORA                                          20500
A1001400190231478374056AMANTIAD, MAY                                            0501
A1001400190231478374057MARIA LOURDES LIMBAGA                                    0501
A1001400190000001057589NORMALIS C. REYES                                        0501
A1001400190231582514001WABAN, BERLIN PAQUINO                                    0501
A1901400290000000030702ANGELITO DIMAPASOC SANDOVAL                              0501
B0101406620273010933001GINEBRA SAN MIGUEL INC.                                  1601
B0101406620273010933002GINEBRA SAN MIGUEL INC.                                  1601
B0101406620273020543001GOLDEN DRAGON INDUSTRIAL CORPORATION                     1602
B0101406620273023407001DISTILERIA BAGO, INC.                                    1601
B0101406620273028521001I-REMIT INC.                                             1602
B0101406620273043087001ASIAN CENTER FOR COUPLES & FAMILIES                      1602
A0101406620273214161001RUTH FLORES OR RICARDO FLORES                           10502
A0101406620273214161001OR RACHEL RUTH FLORES                                   20500
A0101408660274648585001* * * * * * * *                                          0502
A0101411110000000009134**********                                               0501
A0101411820000000477258MA. SALLY A. OROCIO                                      0502
A0101400570000011663119GATMAITAN, DONITA ROSE BUCE AND                         10501
A0101400570000011663119SENA, ARVIN PENILLA                                     20500
A0101400570281186580001DR. ARSENIO C. CANTOS OR                                10505
A0101400570281186580001DRA. CORAZON CANTOS                                     20500
B0801400160311025468002SANTELLEN CORPORATION                                    1602
A3401400280318736732001TERESA A. SANTOS OR MA. AILEEN                          10501
A3401400280318736732001A. SANTOS OR TINA S. ONG                                20500
A3401400280000003309139TERESA A. SANTOS OR                                     10501
A3401400280000003309139MARIA CONSUELO ALMONTE                                  20500
A0101402350000003080355TAPEL, BERTILLA TATEL                                    0502
B0101405650000002960803MAHBUBANI, DBU 4-R EXPORT/IMPORT                         1602
B0101402510341016819001PHILIPPINE ASSOCIATION OF CHEMISTRY                     11601
B0101402510341016819001TEACHERS, INC.                                          21600
A0101402510341397178001RUTH JAVIER REYES                                        0501
A0101409050000001353213*****                                                    0502
A0201400890000002359511CHIU, JEANNETTE OR                                      10501
A0201400890000002359511CHIU, EDWARDSON                                         20500
B0201400890376047710001S & S INDUSTRIAL CORPORATION                             1603
A0101402930381488888002EDWARD P. LIM                                            0501
A0101408370382207662001DR. CELSO F. BATE OR                                    10501
A0101408370382207662001MRS. SOPHIA S. BATE                                     20500
A0101402770000005324458MINOZA, JEROME PAUL P. OR                               10503
A0101402770000005324458SOTTO, LORDANA C.                                       20500
A0101402770391025704001JLD GIFTS & MAGAZINES                                    0505
A0101405490000000232453ROMEL P. ALMEDA                                          0502
B0101405490392037215001CORNERSTONECONSTRUCTION CORPORATION                      1602
B0101408400394027524001SAINT JO FLORAL DESIGNS & DECORS                         1602
A0101408400394397490001SANTOS, SHARON CLAIRE REQUERME                           0502
A0101408400394444684001SY-WICO, MARY GRACE DORIA                                0501
A0101408400000005157073PEREGRINA, ANITA LICAS                                   0501
A0101409180000010760022FERNANDEZ, CHERWIN QUINTAL                               0501
B2401400180000007476820TOYOTA GENERAL SANTOS INC.                               1603
B2401400180000007476853ECA RESOURCES, INC.                                      1602
A2401400180000010066161PERALES, JAN ROBERT CANG DBU JA                          0503
A2401400180411338845168PERALES, ROBERTO TAN OR                                 10503
A2401400180411338845168PERALES, JANET C                                        20500
B1201400150421035995001CHRIST EPISCOPAL CHURCH AND CREDIT                      11602
B1201400150421035995001COOPERATIVE                                             21600
A0101403320000001803338CALAQUIAN JR., RUBEN NUGUID                              0504
A0101403320000009950303MARK HARMON O GUZMAN                                     0504
B0101403320000006027010BIOSERA INC.                                             1602
B0101406330000000432573FULRUBELL CORPORATION                                    1605
A0101406330472478374041ROSEMARIE A. NAPIGKIT                                    0502
B0101412760000001399846BOX, JANUARIO DBU BRAINCHILD MARKETING                  11602
B0101412760000001399846SERVICES                                                21600
A1901400160491546773001IRENEA M ERLANO                                          0501
B1401400110492027896003LUCENA UNITED DOCTORS HOSPITAL, INC                      1615
A1401400110492064340001DY, D DBU DAVE AND GOLIATH ENTE                          0503
B0701400260000000671090VAN TRI-SWORD CORPORATION                                1601
B0701400260495068930001LAYOSA, RENATO BALANI DBU EXTREME SOLAR                 11602
B0701400260495068930001ENERGY TRADING                                          21600
A0101403580000000922623JESSICA BALLANO TONIZA                                   0501
A0101403580511156706025CATHY LEE TOLENTINO                                      0503
A0101405940000005306792LINUS JAMES P. LAINEZ                                    0501
B0101405940512038848001JADE ENTERTAINMENT AND GAMING                           11603
B0101405940512038848001TECHNOLOGIES,INC                                        21600
A0101408530000010924768EEE GREAT DESIGNS AND                                   10502
A0101408530000010924768INNOVATIONS ENTERPRISES                                 20500
A0101411790000000469461PANGILINAN, RENATO                                      10504
A0101411790000000469461DBU RLRM ENTERPRISE                                     20500
A0101411790518055764317SUMA-OY, ROSY GRACE HOFILENA                             0501
B0101403450521011738001INDUSTRIAL WELDING CORPORATION                           1610
B0101403450521013373001**********                                               1601
B0101403450000002975780***********                                              1603
A0101403610531430756002GERTRUDES A. SALVADOR OR                                10502
A0101403610531430756002LEONOR A. HADUCA                                        20500
A0101403610531478374002GRAPE, IMELDA HANDOG                                     0501
A0101403610531540722001PALOMARES, MARCELO PACIBE                                0501
A22014002500000035581163UIS S, TORRES III OR                                   10502
A2201400250000003558116ROSARIO FILOMENA                                        20500
A2201400250561478374060MARIAN S. BANAAG                                        10501
A2201400250561478374060MEMBERS OF NATAS                                        20500
A0101404130000002121317IBUNA, MARY JEAN ABIERA                                  0502
B0101412180000001293163CAPUNO, WILSON CAPIZ DBU CAPCHEM                        11601
B0101412180000001293163MARKETING                                               21600
B0101412180000007360483NATURAL SOURCING INDUSTRIAL PHILS.                       1601
B0101409890000003098173V.T. LAGUYO CONSTRUCTION, INC.                           1602
A0101409920000001539522CEDENO, NOEMIE DEDICATORIA                               0501
A0101409920000006336912PANGANIBAN JR., FERNANDO V.                              0502
A0101407690000001919902OSTREA, MARILOU DBU M. ZOILO                            10502
A0101407690000001919902TRADING                                                 20500
A0101407690000001919913JAIRUS RAE ENTERPRISE/                                  10501
A0101407690000001919913BOBBY ALEJO                                             20500
A0101407690000001919946REBADOMIA, MARIETA - DEALERS OF                         10501
A0101407690000001919946SHOECAT INC.                                            20500
A0101407690652525001051ANNABELLE BADAYOS - DEALERS OF                          10501
A0101407690652525001051SHOECAT INC.                                            20500
B0101413440000002691643KASAPI-KAAGAPAY SA PANGKABUHAYAN LE                      1601
A0101413990000005252693COLLADO, FRANKLIN UCLARAY                                0502
B0101414120000003584281JD & P FOOD TRADING CORPORATION                          1602
A1301400500000005963277VENTURINA, REGINO VICTORIA                               0502
A1301400500000002063941GIANT LUMBER & HARDWARE CO.                              0501
A0101408240000006600153OCHOA, RIZALINA GUZMAN                                   0502
B2801400100000004560003BENEFIC CORPORATION                                      1603
A4101400390813478374058LEDESMA, LUZMINDA S.                                     0501
A4101400550000001332483BARROSO, MARIA SARAH JAYNE M.                            0501
A0101404840000003069992BREVA, OFELIA FORTUNADO                                  0501
A0101404840000010968980GALERA, KLARENCE DALUPIRIT                               0501
B0101404840851068924001B-M-G BUSINESS MANAGEMENT CO.                            1601
A0101404840851415656001LEAL, MARIETTA I. OR                                    10502
A0101404840851415656001LEAL, LEONARDO L                                        20500
A0101406750852787916001TAN, LUZBELLA FORTICH OR TAN,                           10501
A0101406750852787916001ANTHONY CLIFFORD FORTICH                                20500
B0101405070861008460005STARS TRAVEL INCORPORATED                                1602
A0601400230000009671412NAGUIT JR., JOSEFINO FIGUEROA                           10502
A0601400230000009671412OR NAGUIT, NICOLASTICA L                                20500
