B1201400150421821100608**********                                               2002
A1101400120000000652777BIDUA, FERDINAND ALMADEN                                 0510
A0101400730000000833396CARBONELL, LEVINA IBALE                                  0502
A1101400120000000652380CAYUBIT JR., SERAFIN ASERON                              0501
A0101412760000002306229DE GUZMAN, DUSTIN EWALD DANTES                           0501
A0101407720602338230001JULIET A. YAP                                            0503
A0101412180000002296773ALCANTARA, NILO CESAR LORINO                             0501
A0101400860000003571657**********                                               0501
A0101400860011463583002*********                                                0503
A0101400860011503590001**********                                               0503
A0101400150000012350053IGNACIO, JOCYLYN ALVARADO                                0501
A0101400150000009218008LIM, CELESTE MARIE VALENCIA                              0501
B0101400150061021914001E- SCRIBIR INC.                                          1605
B0101400150000001708345SKIN SCIENCES LABORATORY, INC.                           1603
A0601400360000015405046DURON, ALBERT NEIL                                       0501
B0101414090000007344501DYNAMIC HUMAN SKILLS SOLUTIONS INC.                      1610
B0101401960121043211001MANILA HI-Q FOOTWEAR SUPPLY CO                           1601
B0101401960000000008186GOLDEN WING STAINLESS STEEL CORPORATION                  1603
A0101413150000001288228******                                                   0501
A0101412630000001823423**********                                               0501
A7201400170000000040575ELCAMEL, BELEN PEDROZA                                   0502
A7201400170000008740023ARANDING, LIZA MEDADO                                    0502
A7201400170000009673221DE CASTRO, JERELYN PARANAL                               0503
B7201400170000008603229MEKAS GAMING & ENTERTAINMENT CORP.                       1610
B0101412920000000276711KALAKAL FOOD CONCEPT INC.                                1601
A0101407270000013577825OCAMPO, RAYMUND BENEDICT                                 0502
B0101407270162031082002BELLDY COMMERCIAL                                        1602
B0101407270162037305001MICROGOLD INFORMATION SOLUTION AND                      11610
B0101407270162037305001PRODUCTS, INC.                                          21600
A0101407270162331908018CATHERINE MADONNA C. CRUZ                                0501
A0101407270162370131001CHERRY PIE S. PICACHE                                    0502
A0101401090171195610002WILFREDO/CYNTHIA/MARIFEL MITZI/                         10502
A0101401090171195610002CYNTHIA MARIE FERNANDEZ                                 20500
A0101401090171195639002JOSEPHINE M. AGONCILLO                                   0501
A0101401090171195764001FORTUNATO B. SEVILLA III                                 0501
A0301400530000005300241BASADRE, MARIBEL DOMO ONG                                0501
A0301400790000003969611BERSABAL, AGNES TUBANG OR                               10502
A0301400790000003969611BERSABAL, MARVIN                                        20500
A0101401380000014133938GOTUATO, JOYCE GONZALES                                  0501
A0101401380000001412526********                                                 0501
A0101413020000000057003********                                                 0501
A0101412500000000739602NAVARRO, MARY ANNE MARIANO                               0501
B0101413600000005524807TRUCKMASTER GOLDEN BODY MFG. CORP.                       1602
B0101413600000005524830HOH-WELL BUILDER SYSTEMS, INC.                           1601
A3101400160000014696565DALIVA, KHRISTINE SUAN                                   0501
A3101400160000014779425MARQUEZ, EMMA JAEN                                       0501
B3001400130230048097001PENALOZA, VICTOR DBU UBIC BEARING AND                   11603
B3001400130230048097001SEALS DEPOT                                             21600
A3001400130230478374025GUERZON, MERLINDA FALLER                                 0501
A3001400130230757981001SACAY, RENE CANTOR OR SACAY,                            10502
A3001400130230757981001JOSEPHINE SIMBIT                                        20500
A3001400130000000068313OBENITA, NELSON DAVID TORRALBA                           0503
B1001400190231272348001LAO, SHERWIN                                             1605
A1001400350233528399003KO, JOSE NELSON AND                                     10502
A1001400350233528399003KO, CHARMAINE                                           20500
B1001400480000003357839ENROGEL CONSTRUCTION CORP.                               1602
B0101401670271041152001PHILADELPHIA BUSINESS INITIATIVES INC.                   1602
A0101406620273236978001CALLEJA, HOWARD MACEDA                                   0503
A0101400570000003891463LEGASPI, MELANIE SONON       JT                          0501
A0101400570000011681008ABUTAR, ERICSON INVENTO                                  0501
A1101400120000000065110BOLECHE, CLARA GACUTAN                                   0503
A1101400120000001547268JADOC, MA. ARIELYN PALOGAN                               0501
A3401400280000001723495JENNIFER G ONG OR JOHN OWEN ONG                         10501
A3401400280000001723495OR JOAQUIN C GOCHANGCO JR                               20500
A2901400130000009072048INOLINO, ALVIN CASTRO                                    0501
A2901400130000009071869TEODOSIO, NELSON OTE DBU FORTUN                          0505
A0101405650000014026045AMPUAN, JALILAH MAMAO                                    0501
A0101405650322526192001FUNTILA, CAROL PAULINE TAMAYO                            0501
A0101405650322531153001MARITES Q. VILORIA                                       0501
B0101402510341037808001FAIR ALL MARKETING                                       1602
B0101402510000000049329UNICARE DENTAL, MEDICAL TRADING                         11601
B0101402510000000049329CORPORATION                                             21600
B0101402060000006931979ESLA LAND DEVELOPERS, INC.                               1606
A0101402060351211787001MENELEO &/OR FILOMENA CARLOS                             0501
A0101402060351444611001BONDOC, NARCISA NAVARRO                                  0502
A0101409050000012409988PANGCO, JESIREE CHUA                                     0501
B0101409050352044426001DELTA CONCRETE CORPORATION                               1610
A0201400890000012951343LAO, GERYLGING ITUCAS                                    0501
B0101402930000000038691THE SPINAL CORPORATION                                   1602
B0101402930000008462540JEVANT TECHNOLOGIES PHILIPPINES                         11601
B0101402930000008462540CORPORATION                                             21600
A0101408370000000335664DECLINES, NOEL TUAZON                                    0503
A0101408370000006446182NAVALTA, JOCELYN THERESA P. OR                          10501
A0101408370000006446182MICHAEL EDWARD A. NAVALTA                               20500
A0101408370000006446302VELASQUEZ, ELIZABETH RAE C.                              0502
B0101408370382027111001PHILIPPINE SOCIETY OF HOSPITAL                          11602
B0101408370382027111001PHARMACISTS INC.                                        21600
A0101408370382076877001KAREN M. LANDICHO                                        0501
A0101408370382527801002PHILIP LANCE ANTHONY A. LIU                              0502
A0101402770391211301001TENG MU KUNG                                             0503
A0101402770391211301002KUNG, TENG MU                                            0501
A0101402770391211308001***************                                          0504
B0101402770391601391001SPORTSFOCUS, INC.                                        1605
A0101405490000000232453ROMEL P. ALMEDA                                          0502
A0101408950000014970819**********                                               0502
A0101409180000003310221HERNANDEZ, RAFAEL ANTONIO E. OR                         10502
A0101409180000003310221HERNANDEZ, MARIA                                        20500
A0101409210000003297676JEREMY PAUL OBIAL                                        0502
A0301400820000008105622CABALLERO, MARY JANE GUNSI DBU                          10502
A0301400820000008105622MJ CABALLERO CALL CENTER                                20500
A5501400120000002019103PENDON, VENISE NICHOLE VILLOREN                          0505
B2401400180000007476842TOYOTA GENERAL SANTOS INC.                               1605
A1201400150421371201001MEDALLA, OSCAR D. OR MEDALLA,                           10505
A1201400150421371201001KATHERINE                                               20500
A1201400150421685972001JUCUTAN, HEIDI BONDAD OR                                10502
A1201400150421685972001JUCUTAN, ROMMEL                                         20500
B0101403320000013283659ANHUI TIANRUN CONSTRUCTION                              11601
B0101403320000013283659GROUP CO. LTD.                                          21600
B0101406330000000432864**********                                               1605
A0101406330472768288001SABARRE, NERISSA GALIT AND                              10501
A0101406330472768288001PUYOT, MARILYN BERMUDEZ                                 20500
A1401400110492220705001ZETA, DULCE CORAZON LONTOC                               0502
A0701400260000011416936BORJA, MARIA LOURDES CORTEZ                              0501
B0701400260000007895850BICOL RENAL CARE ASSOCIATES CORP.                        1603
B0101407430503006854003CARGO DATA EXCHANGE CENTER, INC.                         1603
A0101411790000013383427CRUZ, MARIA CRISTINA                                     0501
B0101411790518066332001OCAMPO AND SURALVO LAW OFFICES                           1601
B0101403450521011882004PAN PACIFIC TRAVEL CORPORATION                           1603
B0101403450521011955001KINGSWOOD TRADING CO., INC.                              1603
A0101403610531220632001BLANDO, LETICIA SALEM OR                                10501
A0101403610531220632001BLANDO JR., LUIS                                        20500
B2201400250000012982839HIPOLITO, ROWENA QUE DBU HQ COMMERCIAL &                11602
B2201400250000012982839CONSTRUCTION SUP                                        21600
A0101404130601450094004PASCUAL, LORQUEL OR PASCUAL,                            10501
A0101404130601450094004ANNIE S.                                                20500
A0101407720602326333001SATURNINO PEREZ JAVIER                                   0502
A0101407720602332279002CAYCO, ANTONIO V. OR                                    10501
A0101407720602332279002CAYCO, MARGARITA                                        20500
A0101407720602367391001STO. DOMINGO JR., MANUEL RAMON                          10502
A0101407720602367391001FRANCISCO                                               20500
A0101407720602510641001LACSON, SHARON MARISSE ALFON                             0503
B0101404260000000157015INTERPRO FOOD SPECIALIST INC.                            1605
B0101409920650046408001CON-TECH PROPERTIES INC.                                 1620
B0101409920650046409001PRINCESS HOMES REALTY AND                               11620
B0101409920650046409001DEVELOPERS INC.                                         21600
A0101407690000015745670BALMES, JEFFERSON MAURICIO OR                           10501
A0101407690000015745670FLORES, NELIA ARROYO                                    20500
A0101411530000015737672DR. ALEXANDER M.DONES                                    0501
A0101413440000014087602HARUHI KITCHENETTE                                       0501
A0101413570000013901252CALIMPOSAN, GERALDINE TAGAPAN                            0502
B0101413570000015672941BELUCI AGRO INDUSTRIAL ENTERPRISES CO.                   1601
A0101413570000000635596MEMBERS OF NATASHA                                      10501
A0101413570000000635596DOROTEA R. JACINTO                                      20500
A0101413990000015743178MPBL ENTERPRISES                                         0501
A0101413990000000206033MARITES R. CONANAN                                       0502
A0101413990000004838068BOTES, ESTRELLA BREDES                                   0501
A0101410300000000026531VELHAGEN, MELISA B.                                      0501
A1301400500000000213163NORVY G. MARCELINO OR GILLYN                            10505
A1301400500000000213163D. MARCELINO                                            20500
A0101408240000007478159Rapanot, Ronald C. or Server,                           10502
A0101408240000007478159Christine Michelle B.                                   20500
B0101408240000010815255DON DEXTER FUEL CORP.                                    1605
B0101408240000015745523ARSTECH INDUSTRIAL SUPPLIES AND                         11601
B0101408240000015745523SERVICES                                                21600
A0101408240000008160194FAUSTINO, T DBU DE JURAS TRADIN                          0501
A0101408240000008160143ROWENA P. GONZALES                                       0502
A2801400100000014169598TUBLE, MA. PRINCESS DBU Q-STAR                           0501
A2801400100712478374012DELA CRUZ, VANESSA JOY                                   0501
A2801400100000005475221JOHNSON, RICHARD KINGSLEY GEORG                          0501
A2801400230000001782130GOLDEN STATE ALUMINUM GLASS &                           10505
A2801400230000001782130GENERAL MERCHAND                                        20500
A4101400260000005333357TAN, JAYSON LIM                                          0505
A4101400260000014088321IDIAN, MA. NERISSA C. DBU MNCI                          10502
A4101400260000014088321MARKETING                                               20500
A4101400390000001732441MARILYN DELOS REYES RICAFRENTE                          10502
A4101400390000001732441DBU RICAFRENTE SMOKE                                    20500
A4101400550000014767470SANTOSIDAD, M DBU EARTH & STYLE                         10501
A4101400550000014767470BUILDERS AND CON                                        20500
A0101412340000005448397RODA C. ORTIZ-LUIS                                       0501
A0101404840851046725013MARY JANE A. DE GUIA                                     0501
A0101406750000002040271JOSEFINA M EVANGELISTA                                   0503
B0601400230000005185924GAJE, AGNES DBU JCG AIRCONDITIO                          1602
A0601400230891746394001**********                                               0502
