F0101409890649054788002ARRAYSTECH DIGITAL SYSTEMS INC.                          2607CK1
F0301400790000001211681GABUTERO, ROMMEL D OR                                   12601CKR
F0301400790000001211681GABUTERO, MICHEL                                        22600CKR
F0101400310211029980001ACTIVESIGNS INTERNATIONAL CORP.                          2605CKR
F1901400160491040836004DR MA JOYCELYN R MERCADO                                 2501CKO
F4101400390000003346176OBIC ENEB,  INC.                                         2605CK1
