A0101400600000000007661******                                                   0502
A0101410980000000012562JEODIMEL O. CORONADO                                     0502
A0101411080000000026326MICHAEL T. LIM                                           0501
A2601400270000000084160EVELYN V. ALIVIA                                         0501
A1901400290000000135071DR. GERARDO HIDALGO GONZALES                             0502
A0101401380000000414286********                                                 0505
A0101409890000000437369CASTRO III, EMILIO RAYMUND BIRO                          0502
A0101401250000000441052ONGSUECO, SYLVIA K.                                      0501
A1001400480000000474908MONTEBON, MARILYN CANAMO                                 0501
A1001400480000000474942DACALOS, GENMAR MANLOSA                                  0502
A0101412180000000501511YU, VENGIE TUPAZ                                         0501
A0101404260000000532205DUKA, CEZAR COQUILLA                                     0503
A0101406590000000568907CABRIDO, JEAN MARIE COLEEN S                             0501
A0101411110000000604879RHODORA MONTESINO JIMENEZ                                0502
A0101412760000000767784YU, J DBU PRIME CUTS SOURCE GEN                          0503
A0101401380000000792132********                                                 0501
A0101400150000000807352BULATAO, KRISTINE VARGAS                                 0501
A0101400730000000833421MA. JENNIFER R. MAGAT                                    0502
A0101409180000000874642VILLENA IV, GODOFREDO GACAD                              0501
A0101401250000000907131PERICO, AURORA ATIENZA                                   0501
A1001400480000001054897ALMEO, ALFREDO FUNDAL                                    0502
A1001400480000001054911MARCABAN, MA. CARMELA EDEN SANI                          0501
A1001400480000001054922TAN JR., JOAQUIN TOYLO                                   0502
A16014001700000010689460000-001068-946                                          0502
A0501400200000001081076BRAVO, ERIC SORIANO                                      0501
A0101402480000001099594**************                                           0505
A0101405940000001210039**********                                               0502
A0101408400000001213665RUFO, MARLON VENTURA                                     0501
A3001400130000001271341SURALTA, GEGINIA MONTICINO                               0501
A0101404840000001312667DE VERA, JAYVEE DELA TORRE                               0501
A0101400600000001335513******                                                   0501
A0101412760000001399788NAILES, NEILSON ANDRADE                                  0501
A0101413990000001406542LAYGO, GARRY MAGSINO                                     0501
A0101405940000001534269**********                                               0501
A0101407270000001596990JERALDEN F. LEGASPI                                      0501
A0601400230000001687221GUEVARRA, SHARON AUSTRIA                                 0501
A0101400150000001708130PAGLINAWAN, LUVIE ESCOBAR                                0501
A0101400150000001708287ENTERINA, LESTER BELTRAN                                 0501
A0101405070000001726245********                                                 0502
A2801400230000001734692ARAO, LAURINE GEROLAGUIN                                 0501
A0101412890000001765459PEREZ, SHEILA ANGELICA SORIANO                           0501
A0101401380000001819781FUENTES, JENNA DEAN                                      0502
A1201400150000001863152GOZE, ROEL LUMBERIO                                      0501
A0101400440000002034782CHARITO IBANEZ                                           0501
A0101408240000002413281CHOI, SEUNG HYUK                                         0501
A0101400150000002413645MARTINEZ, RENANTE CABALLERO                              0501
A0101410850000002417870VILLASIN, JASMIN OPINIANO                                0501
A0101410850000002418037NAIDU, ASHOK PAGADALA                                    0501
A0101413990000002419843AMPANG, ALIAH BASHER                                     0501
A0101411400000002420246ISIP, ANNA MARIA MENDOZA                                 0501
A0101400860011078496001**********                                               0502
A0101400860011419313002**********                                               0505
A0101400860011495810002**********                                               0501
A0101400860011512628001**********                                               0505
A0101400860011572958001**********                                               0502
A0101400860011579681001**********                                               0505
A0101401700041036012001MORNING GLORY AUTO SUPPLY                                0510
A0101401700041188979002EVANGELISTA, VERONICA SANTOS                             0501
A0101401700041320114002TAN, MARISSA WONG                                        0501
A0101400600071234714001**********                                               0505
A0101400600071235541001***************                                          0501
A0101400600071684249001******                                                   0503
A0101406040112206801001EMMELINE D. NICOLAS                                      0503
A0101400440161358347001MA. ELSA T. APOSTOL                                      0501
A0101400440161520766098JUDITH D. BRISO                                          0501
A0101400440161525001103OFELIA B. OLERMO                                         0501
A0101400440161662700001RACQUEL M. NUVAL                                         0502
A0101400440161797005001CONCEPCION, JOVITA RAMOS                                 0501
A0101401090171198150001FR. ERMITO G. DE SAGON, O.P.                             0502
A0101401090171349854001MARIA CARMELITA C. COLOMA                                0501
A0101401090171491755001OLIVIA C. GO                                             0501
A0101401380201421770001DEL ROSARIO, LORETA COSTES                               0501
A1001400190231275225002CHAN, RUBEN Z                                            0503
A1901400290261042024001HAPAG FILIPINO FAST FOOD                                 0501
A1901400290261244490001SONIA PINPIN BRIONES                                     0502
A1901400290261390520001JOEL PUNZALAN DIMAANO                                    0502
A1901400290261478374009LEILA LUMANGLAS OLAVE                                    0502
A1901400290261488341077DRA. MARY WARREN E ILAGA                                 0503
A0101406620273362412001LAILANI L. GO                                            0501
A0101410980275076628001TAN, GIAN CARLO UY                                       0501
A0101411820277743052001RUBY M. PAMINDANAN                                       0501
A0101400570281186603001DR. RESTITUTO C. BUENVIAJE                               0502
A0101402480331223746001MARIA THERESA CHEN                                       0501
A0101402480331223895001ERNESTO B. CAMUS                                         0501
A0101402480331224927001TENNYSON CHEN                                            0501
A0101402480331315462001*****************                                        0503
A0101402480331520766038SILOS, FELOMINA A.                                       0501
A0101402480331520766118SANTIAGO, GLENDA ANNE MAY E.                             0501
A0101402480331532161001LAUREANO, JAMES LEONG                                    0501
A0101402480331551863001*********                                                0501
A0101402510341638722001ALTAMERANO, ROSANA AZOGUE                                0502
A0101402060351504048001ZAMORA, FRANCES ROA                                      0501
A0201400760374033157001WISE OWL GENERAL MERCHANDISE                             0501
A0201400760374478374009MARIEL TORRE                                             0501
A0201400920375478374015GAYO, LOURDES O.                                         0501
A0101402930381488888001EDWARD P. LIM                                            0502
A0101402930381488888002EDWARD P. LIM                                            0502
A0101402930381488888002EDWARD P. LIM                                            0501
A0101402930381725333001SAMONTE, ROBERTO GONZALES                                0501
A0101408370382315305001HERMINIA F. FRESNOZA                                     0501
A0101408370382409914002ALONZAGA, JOEMILY VILLANUEVA                             0501
A0101408400394039740001KAINAN SA STAFFHOUSE                                     0506
A0101408400394160353001JARDIOLIN, JAMES HILADO                                  0504
A1201400150421036214001PINES ARCADE                                             0501
A0101403030441239180002**********                                               0504
A0101410140475045705001ZEN MANPOWER PROVIDER                                    0502
A1401400110492460411001DATO, VINCENT EDWARD SALAMAT                             0501
A0101405940512395416001ANGELITO A BOLANOS                                       0502
A0101404130601039572001NORMA SANTOS ESTEBAN                                     0501
A0101404130601354900001YBANEZ, JUDITH JANDA                                     0501
A0101407720602381785001GUZMAN JR., PATRICIO BALA                                0502
A0101404260611491692001EDGARDO M BALANI                                         0501
A0101404260611536087001GEMMA T. TACLOBOS                                        0501
A0101404420631478374126FLORDELIZA PAROJINOG                                     0501
A0101409890649047047001**********                                               0506
A0101409920650478374010EVA B. MANDIIT                                           0501
A1301400340683378168001RODIL, CONSUELO CREUS                                    0501
A1301400340683388909001BALUYOT, AMELIA RENOSA                                   0505
A0101407560686006360001BOBBY AND KATES ACADEMY INCORP.                          0501
A0101407560686047352001MBC CYCLE SOLUTIONS INC.                                 0502
A0101407560686170077002********                                                 0501
A0101408240711180164001TUPAZ, CORAZON RONQUILLO                                 0501
A4101400420814478374107LORNA L. MAALA                                           0501
A4101400420814520766121LOBATON, JENNYLN                                         0501
A0101404840851424338001PAMITTAN, MYRNA M.                                       0502
A0101404840851478374011SHERRY ANN N. ABAPO                                      0501
A0101405070861463084001CATAPANG, JOCELYN LAUREL                                 0502
A0101405490000000019689RHYAN HARLIE L. ARAGOZA AND                             10502
A0101405940000000061732BARRIENTOS, JONATHAN DBU                                10505
A0101411660000000109271JOSE GLEN Y. DE LA ROSA OR                              10501
A0101412890000000371475NICOLAS, ADELFA DBU GINTONG                             10501
A1601400170000000421190JOHN F. TORROCHA OR                                     10501
A0101410980000001154472NORLYN AGLIPAY OR                                       10502
A4101400260000001198610RAPISTA, JOHNNY A. OR                                   10503
A0101408400000001231070CRUZ, LAILANI ALFARO OR                                 10501
A0101400440000001439641BETTER CREDIT INSPECTION                                10501
A0101400440161591337001JENESSEY A. RANCES OR                                   10502
A0101401380201522168002PESIGAN, JOSEPH C. OR PESIGAN,                          10502
A3101400450223483693001PENALOZA, MARIA CZARINA OR                              10501
A1901400290261244456001LEO YAP ONG OR                                          10505
A0101406620273352977001MADLANGSAKAY, EFREN ASUNCION OR                         10502
A2001400290315087033001ROLIDA, JASON UY                                        10503
A0101402480331585752001SISON, MARIA LOURDES OR                                 10504
A0201400760374626048001DONAYRE, ROMEO BACALSO OR                               10503
A0201400890376535273001TOLEDO,HAROLD XAVIER OR CLIMACO                         10502
A0101408370382420560001DR. MICHAEL VILLA OR                                    10505
A0101408370382485515003MARGUERITHA LOUISE ARAMBULO OR                          10503
A0101408370382490712001DRS. ROMUALDO G. CACAS JR. OR                           10501
A0101408400394041759001BUILTLINE INTERIOR FINISHES AND                         10501
A0101412760476047778001GAKO, CRISTINA LLANERA DBU                              10502
A1901400160491641033001ULYSSES M CHAVEZ OR                                     10501
A1401400110492391436001ELISES, FELIPE VILLAFLOR OR                             10503
A0101404130601450411001NIDA D. AGCAOILI OR                                     10501
A0101407720602161863003ROBERTO K. MACASAET OR                                  10502
A4101400420814342049001MENDOZA, DIVINA LORY ANN E. OR                          10503
A0101406750852547351001SISO, JACKSON P. OR                                     10501
A0101405490000000019689ELOISA P. ARAGOZa                                       20500
A0101405940000000061732ANJANA TRADING                                          20500
A0101411660000000109271ROEL S. CONCEPCION                                      20500
A0101412890000000371475LAMBAT TRADING                                          20500
A1601400170000000421190ROCHELLE A. TORROCHA                                    20500
A0101410980000001154472FEDERICO HENRY AGLIPAY                                  20500
A4101400260000001198610RAPISTA, PROCENTIZA                                     20500
A0101408400000001231070CRUZ, RHAYAN DEL ROSARIO                                20500
A0101400440000001439641SERVICES CO.                                            20500
A0101400440161591337001JESSIE O. RANCES                                        20500
A0101401380201522168002MARIA VICTORIA R                                        20500
A3101400450223483693001ACOSTA, DEBBIE                                          20500
A1901400290261244456001MEI MEI YULO ONG                                        20500
A0101406620273352977001MADLANGSAKAY, MAYLIN                                    20500
A2001400290315087033001OR ONG, WILMER R                                        20500
A0101402480331585752001SISON, ROLANDO                                          20500
A0201400760374626048001MARIA LETICIA DO                                        20500
A0201400890376535273001BRYAN OR GUEVARR                                        20500
A0101408370382420560001DR. PATRICIA YUKIJI VILLA                               20500
A0101408370382485515003VICTOR MICHAEL LUCENA                                   20500
A0101408370382490712001THERESA MARIE REYES-CACAS                               20500
A0101408400394041759001CONSTRUCTION                                            20500
A0101412760476047778001KRANECOM ENTERPRISE                                     20500
A1901400160491641033001LETICIA M CHAVEZ                                        20500
A1401400110492391436001DIJAMCO, MA. BIL                                        20500
A0101404130601450411001LEOPOLDO A. AGCAOLI                                     20500
A0101407720602161863003VIRGINIA M. RAFAEL                                      20500
A4101400420814342049001MENDOZA, GILBERT                                        20500
A0101406750852547351001SISO, CRISTINA E                                        20500
B0101404260000000003794ONE GLOBAL SUMMIT PROPERTY DEVELOPM                      1602
B1301400210000000023503JELLI'S GAS STATION                                      1602
B0101402480000000028180QUALIGEN PHARMACY CORP.                                  1603
B0101402930000000038691THE SPINAL CORPORATION                                   1602
B0101404840000000090275LIFTER SYSTEMS INC.                                      1603
B0101404260000000156949FIRST ISOMATIC INC.                                      1601
B0101406620000000194103SUPREME POWER CORPORATION                                1602
B0101404130000000321553CAPSTONE_SOLUTIONS INC.                                  1601
B0501400170000001072968PCCI FINANCE CORPORATION                                 1602
B0101407430000001213045HAVANA TRANSPORT SERVICE CORPORATION                     1602
B0101402480000001927631*********                                                1602
B0101411080042191149001 *****                                                   1601
B0101400150061044736001MARSMAN DRYSDALE TRAVEL, INC.                            1602
B0101400600071025563001**********                                               1601
B0101400600071233702001FE ZAMORA                                                1601
B0101400730111036857001FRC SULO RIVIERA HOTEL CORPORATION                       1606
B0101401380201034271004LC BUILDERS AND DEVELOPERS, INC.                         1604
B0101401670271029786001AGUIRRE & AGUIRRE LAW FIRM                               1602
B0101410980275047209001PIONEER STATIONERS, INC.                                 1602
B0501400200292021985001FOREST LAKE DEVELOPMENT, INC.                            1602
B2601400270302043698001R-ONE TRUCKING & ALLIED SERVICES                         1602
B1101400120313036429001PERPETUAL HELP MULTI-PURPOSE COOPERATIVE                 1602
B0101402480331031876001******                                                   1610
B0101402480331033229028TGP DRUGSTORE                                            1603
B0101402480331039233088D' UNIVERSITY LAND DEVELOPMENT HOLD                      1602
B0101402480331223888001**********                                               1603
B0101402480331311155002*************                                            1610
B0101402480331541505005PHARMAGENERICS, INC.                                     1603
B0101402480331541505007PHARMAGENERICS, INC.                                     1603
B0101402480331748556010QUALIGEN PHARMACY CORP.                                  1603
B0201400760374046036001SAM SOWAH SHIPPING CORPORATION                           1602
B0101402930381014599001HEALTH SOLUTIONS CORPORATION                             1602
B0101411660384046304001ELITE GLOBAL SOURCING PHIL. INC.                         1602
B1901400160491506100001LINK RI LOGISTICS, INC.                                  1602
B1401400110492010098001CASEI MARKETING CORPORATION                              1610
B0101403450521028565001**********                                               1602
B0101404130601015014001BC CONCEPTS INC.                                         1601
B0101404130601030838001ELEV 8 MEDIA, INC.                                       1605
B0101407720602030431001J.BRAVO-M.RUNES & ASSOCIATES CO.                         1601
B0101406590662634974001CITY HILLS BUILDERS (CHBC) CORPORATION                   1610
B0601400230891038825001VOLT HAROLD MARKETING CORPORATION                        1601
B0101402930381009079001THE AMERICAN EYE CORRECTION                             11610
B0101402930381009079001CENTER INC.                                             21600
