F0101400150061043015001RCHITECTS INC.                                           2602CKR
F0601400100000002099083CAPAS FOOD HAVEN CORPORATION                             2602CK1
F0401400140241014225002MF COMPUTER SOLUTION                                     2610CKR
F0101401670271039999002INFINITY INSURANCE SERVICES                              2601CKR
F0101402480331635109001*********                                                2603CKR
F0101402060351009369002POLYMER PRODUCTS PHILS., INC.                            2610CKR
F2401400180411029556002RELL & RENN FISHING CORPORATION                          2610CKR
F1201400150421031460002CJH SUITES CORPORATION                                   2603CKR
F0101403580511496054001THE SERENISSIMA ENTERPRISES INC                          2602CKR
F0101406880513026861001BONIFACIO WEST DEVELOPMENT CORPORATION                   2604CKO
F0801400290000000011525LMMD CONSUMER COMMODITIES, INC                           2601CKR
F0101408240711443783001SMOTHERS, ELIZABETH CARINO                               2501CKO
F4101400260812022293004JOMIJOH'S BAKESHOP INC.                                  2601CKO
F4101400260812033409001NEW DASMA GOLD BAKE INC.                                 2601CKO
F4101400420814016644004EMI EMPLOYEES DEVELOPMENT                               12605CKR
F4101400420814016644004COOPERATIVE                                             22600CKR
