B0101408240711821100608**********                                               2010
A0301400790000002301308AQUINO, ALLAN E. OR                                     10501
A0301400790000002301308AQUINO, DENNIS E.                                       20500
A1001400350233095700001REBUSORA, RUE ALEJANDRA                                  0501
A1001400350233478374006IBANEZ, ELSA                                             0501
A1001400350233528399003KO, JOSE NELSON AND                                     10501
A1001400350233528399003KO, CHARMAINE                                           20500
A1001400350233611366001**********                                               0502
A0101415350000006731433NGAN, MICHAEL                                            0501
A0101415350000007718558MARI, DEAN ABARING AND                                  10501
A0101415350000007718558MARI, GUADALUPE REYES                                   20500
B0101408530516190991001MALLORCA REALTY, INC.                                    1604
A0101400860000001005423***********                                              0502
B0101400860000000030315*************                                            1601
A0101400860011391589003**************                                           0505
B0101400860011398964001***********                                              1603
A0101400860011435365001**********                                               0505
A0101400860011498256002**********                                               0502
A0101401250000000907255BAGUAL, MARY JEAN BARAQUIEL                              0502
B0101411370000000017978JNE MANILA TECHNICAL SERVICES CORP.                      1601
A0101400150000003141722CALIMBAS, MONICA DIAZ                                    0504
B0101400150061010833001VELCA TRAVEL & TOURS, INC.                               1602
A0101400150061227290001EBALDE, MA. VICTORIA QUIAEM                              0502
A0101400150061456754001ANCHETA, ANGELINO TAGUIBAO                              10502
A0101400150061456754001OR ANCHETA, CANDELARIA                                  20500
A0101400150061666405001POBLETE, JOYCE LERONA                                    0501
B0101400600071325133001**********                                               1602
A0101405810000005314961MARQUEZ, RAMONCITO GUTIERREZ                             0501
B0601400100000005690531ABB BRETTO'S FOODS INT'L INC                             1610
A0601400100081639196001DIMALANTA, ANALYN TEGIO                                  0501
A0101413280000002317682**********                                               0502
A0101413280000005084839CLAUDIO PE YAO                                           0501
A0101413280092062388001**********                                               0501
A0101400730111412074001PATRIARCA, ENOEL ONIA OR                                10502
A0101400730111412074001PATRIARCA, EVELY                                        20500
A0101400730111520766063MICHAEL T. VILLAMAR                                      0504
A0101413150000005319284*********                                                0501
A0101412630000007158052PALAFOX, JACQUELENE PIZARRO                              0501
A0101413310000001073654********                                                 0501
B0101401830141060435001AMBM ELECTRICAL SUPPLY AND                              11604
B0101401830141060435001SERVICES                                                21600
A0101400440161525001055MA. LUZ E. ABIERTA                                       0501
A0101400440161760130001CANDELARIO, MYRNA SATURNINO                              0501
A0101407270000006939082DELA PENA, AIDA ROSAURO                                  0501
A0101407270000007429532MABUTE, PAUL JAMES MORTA                                 0501
B0101407270000000830540QUANTUS BUSINESS SERVICES, INC.                          1605
B0101401090171036158001AIRBORNE MAINTENANCE AND ALLIED                         11602
B0101401090171036158001SERVICES INC.                                           21600
A0101401090171195137001DRA. ESTELA RIVERA OR                                   10502
A0101401090171195137001LEAH SOCORRO RIVERA                                     20500
A0101401090171196070001NICOLAS J. DE JESUS                                      0501
A0101401090171199911001AUGUSTO OR MA. VICTORIA PIA                              0502
A0101401090171200124001CRISTETA L. SUMERA                                       0502
A0101401090171201465001MICHAEL JORGE OR CHERYL PERALTA                          0501
A0301400660000003406099********                                                 0502
A0301400950000005707068SON, PATRICK JAMES BERNAL                                0501
B0101401380201044448088SWANSHOCK TRADING CO., INC.                              1603
A0101401380201080440001DE LEON, CLARISSE ANGELICA                              10501
A0101401380201080440001SANTOS                                                  20500
A0101413600000003134487******                                                   0502
A1001400190231283324001GICABAO, BENY CHAN OR                                   10501
A1001400190231283324001GICABAO, VILMA A                                        20500
A1001400190231478374075BARRON, LORNA                                            0502
A1001400190231520766112ALIBIO, NELYBETH TACBOBO                                 0501
A1001400350233478374001JUNIO, ROGELIA A.                                        0501
A1001400350233478374020ELMA O. GAWAT                                            0501
A1301400470000000061550FLORENDO M. HOLGADO JR.                                  0502
B1301400760000000007161TARLAC MAC ENTERPRISES, INC. DBU SAVER'S                11603
B1301400760000000007161DIGITAL HUB                                             21600
B0101406620273031207001TANVIC REALTY CORP.                                      1601
B0101406620273033463001ARL BUSINESS CONSULTANCY, INC.                           1602
B0101406620000000962403GEOWORKS INTERNATIONAL CORPORATION                       1601
A0101406620000004926187LIM, KRIZIA OR LIM, JERICHO DBU                         10502
A0101406620000004926187KML CONSTRUCTION SUPPLY                                 20500
B0101408660274035623001PROPERTY COMPANY OF FRIENDS, INC.-                      11603
B0101408660274035623001FINANCING                                               21600
A2601400270302648558001RUSSELL C. UY                                            0502
A0801400160311267069001MA. JIZA BARREDO OR MANUEL                              10502
A0801400160311267069001JOSEPH BARREDO                                          20500
A0801400160311317813001SUSAN M. APOSTOLERO                                      0501
A0801400160000002287692****************                                         0505
A1101400120000001547326TOLENTINO, EMMANUEL S. OR                               10502
A1101400120000001547326BASTIAS, ROSANNA                                        20500
A1101400120000002789833PORMIDA, JAYPEE GO                                       0510
A1101400120313478374077ROMO, ALILY P.                                           0501
A1101400120313478374077ROMO, ALILY P.                                           0501
A6601400120000000060831YONGCO, MARIE UY                                         0502
B6601400120314043609006FUNDACION GRAMEEN PILIPINAS INC.                        11605
B6601400120314043609006LAVEZARES BRANCH                                        21600
A6601400120314619632002FAJARDO, REYNALDO ARCENO                                 0501
A6601400120000002249910YRUMA, ALBERT OR EMELITA                                 0510
A3401400280000002323473LOBERIZA, ETHEL IBABAO                                   0501
A3401400280000004958574AMAZING DISCOVERIES TRAVEL AND                          10502
A3401400280000004958574TOURS                                                   20500
A0101402060000002259878ANIMAS, MARC THEUS PADUA OR                             10501
A0101402060000002259878ANIMAS, MICHELLE PADUA                                  20500
B0101402060351008589001PARACLETE FOUNDATION INC.,                               1601
A0101402060351036156001GREEN VALLEY VILLAGE WATER                              10503
A0101402060351036156001MANAGEMENT                                              20500
A0101402060351211807001FILOMENA &/OR ELIZABETH CARLOS                           0501
A0101402060351354263001LEOPOLDO V. MANALO JR. &/OR                             10501
A0101402060351354263001CARMENCITA D. MA                                        20500
A0101409050000007416744KANCHERLA, SANDESH                                       0501
A0101409050352465936001CATHERINE F. POBLETE OR                                 10501
A0101409050352465936001CHRISTOPHER MARK                                        20500
A0101409050352615086001XYZA CHLOE C. VEGA OR                                   10501
A0101409050352615086001TYRONE JOSETT R.                                        20500
A0201400890376745254001BUYSER, IAN CHRISTOPHER COLETO                           0501
A0101402770391653690001DE JESUS, ROXAS GOMER CORNEJO                            0505
A0101408400000004959511TAN, JENNIFER PAJAROJA                                   0501
A0101408400394005972001FAUSTINO AND FAUSTINO                                   10506
A0101408400394005972001ENGINEERING                                             20500
B0101408400394034371001W GROUP, INC.                                            1603
A0101408400394480785001ISIDRO, MA. THERESE                                     10502
A0101408400394480785001ISIDRO, PAULO                                           20500
A0101408400000005286331SALINIO, NARCISO MANTIQUILLA                             0502
A0101408400394650593001PACALUNDO, ANSARY ALIPO                                  0501
A0101412210000007721004OSUNA, ANTONIO NICKO ALAIN T.                            0501
A5501400120410690381001QUIMSING, SUSAN QUITO                                    0506
B2401400180411017908001LWC CYCLE MART, INC.                                     1602
A1201400150421482236001FERNANDEZ, ANNIE GOMEZ                                   0501
A1201400150421517016001CASUSI, BERNARDO VALMONTE                                0501
B0901400220432047388088**********                                               1602
B0501400170481018109002****                                                     1602
B0501400170481025398002****                                                     1601
A0501400170000001072702RAFANAN, SALVADOR R. DBU                                10501
A0501400170000001072702RAFANAN TRUCKING SERVICES                               20500
A0501400170000001072935HERNANDEZ JR., ROMEO FERRER DBU                         10501
A0501400170000001072935ZAIRON TRADING                                          20500
A0501400170481308672001MADELYN F. DECENA                                        0506
A1901400160000005632628ALBAY, RUSSEL RUBILLOS                                   0502
A1901400160000007692126PEREZ, GEMINIANO PORTUGAL                                0501
A1901400160491298907001SANTISIMA B HERNANDEZ OR                                10501
A1901400160491298907001MARIE JANE H VINAS                                      20500
A1901400160491361876001MELISA RAMOS LIM                                         0502
A1601400170000001837863RENE N. ESPLANA OR                                      10501
A1601400170000001837863GLORYDEL B. ALAPAD                                      20500
A1601400170494047880001AIREEN I. SALAZAR DBU A.                                10501
A1601400170494047880001SALAZAR LEARNING CENTER                                 20500
B0101403580511005406001SHINRYO (PHILIPPINES) COMPANY, INC.                      1605
A0101403580511028909001E.M. MOLINA'S CONSULTANCY FIRM                           0501
A0101403580511151398002ARIZA TERESA MANGALILE OR                               10501
A0101403580511151398002REYNALDO JOSE MANGALILE                                 20500
A0101403580511151510001NOEL B. SALAZAR                                          0503
A0101403580511156706005JONATHAN MARQUEZ                                         0501
A0101403580511369144001ANDREW C. THAY OR                                       10503
A0101403580511369144001MOIRA O. THAY                                           20500
A0101408530516044264001DATA ART DESIGN & PRINT SERVICE                          0501
B0101411790000004808106SPECTRUMED INC.                                          1603
B0101403450000006055847***********                                              1601
B0101403450521011964001THE CHURCH IN QUEZON CITY                                1603
A2201400250000000141197MEMBERS OF NATASHA (SHOECAT INC                         10501
A2201400250000000141197MICHELLE C. VILLAMER                                    20500
A2201400250000001545580MEMBERS OF NATASHA (SHOECAT INC                         10501
A2201400250000001545580GAUDIOSA A. WAGE                                        20500
A0101404130601466566002TUMANG, SHARON ADONA                                     0502
A0101407720602379811001NOEL S. AYPA OR MA. CARMEN                              10502
A0101407720602379811001TERESA G. AYPA                                          20500
B0101407720602428613001DERMA 360 CORP.                                          1601
A0101407720602697692001SANTOS, GENEVERE SERNA OR                               10501
A0101407720602697692001SANTOS, DANILO S                                        20500
B0101412180000001293130BLADESANDBOWS INC.                                       1606
A0101404260000005446959PUERTOLLANO, LENY ELEFAN                                 0502
A0101404260000005447003DEL ROSARIO, LUZVIMINDA BANAGA                           0501
B0101404260000000156972PRIME POWER MANPOWER SERVICES                            1650
B0101404260000000156972PRIME POWER MANPOWER SERVICES                            1650
A0101404260611478374121FLORDELIZA B. HUVALLA                                    0501
A0101409890000000049089GEMSTAR CLEANING SUPPLIES                               10504
A0101409890000000049089INTERNATIONAL                                           20500
B0101409890000003098213AQUINO, VIL DBU JOVAROM COMMERCIAL                       1601
A0101413440000003298242BUENDIA, CARLOS COLOYAN                                  0502
A0101413570000004353957RAMEL H. OROZCO OR                                      10501
A0101413570000004353957NORA B. OROZCO                                          20500
A0101413990000004511135***                                                      0503
A0101406590000000568758BAUCA, MYRA MEDRANO                                      0501
A1301400340683249866001XXXXXXXXXXX                                              0503
A1301400340683478374002LUCERO, TERESITA                                        10502
A1301400340683478374002MEMBERS OF NATAS                                        20500
A1301400340683528422001MILAOR, SUSANA SAN PABLO                                 0501
A1301400340683614499001ESPINO, MARIE CARTERO                                    0505
B1301400500684029282001L5 & SONS FINANCING CORP.                                1609
A1301400500684094788001GERODIAS, ANALYN ALCANTARA                               0503
A0101408240711656808001RAMIREZ, ANNA CARMELA OR                                10502
A0101408240711656808001MICHAEL RICHARD                                         20500
A2801400100000000004720REYES, MYRA DBU MRC DENTAL CLIN                          0501
A2801400230000005752398CABATIT, LESTER IVAN MONTIBON                            0502
B2801400230000000372729KRJ TRADING                                              1602
B4101400420814038765001EG&G CONSTRUCTION SUPPLY                                 1603
B4101400420814043163001VAYAO WAX MANUFACTURING INC.                             1602
A4101400420814478374026FLORENCIA DELA CALZADA                                   0501
A4101400420814478374152ANIAG, RUBYLYN                                           0501
A4101400420814520766028BASILOY, VILMA                                           0501
A4101400420814520766111COLETA, JEANNETTE C.                                     0502
A4101400550000003267127NAVEA, A DBU VELJO ENTERPRISES                           0501
A0101412340000001017861DERECHO, VIRGINIA ALCONERA                               0501
B0101404840851039541001CBC INTEGRATED SCHOOL, INC.                              1602
A0101404840851046725019LETICIA QUINANOLA                                        0502
A0101405070861197628001ENAGE, WAYNE V.                                          0501
A0101405070861288852002RAMOS, REMEDIOS REPATO                                   0501
A0101405070861527090001RYU, KYOUNG HWA                                          0502
A0601400230000000990052DAYAO, MARIBEL MASIBAC                                   0501
A0601400230000007402111GALLONIGA, JOSIE MIOLE DBU JM G                          0501
A0601400230000002649950RUSSELL DIZON PELAYO                                     0501
A0601400230000005510183PACLA,MARILYN OR PACLA, CONRADO                          0501
