F1901400160491040836004DR MA JOYCELYN R MERCADO                                 2501CKO
F3201400190000001493078CORAZON SHIRLY TAN DBU FELICOR                          12501CKO
F3201400190000001493078MERCHANDISING                                           22500CKO
F0201401020000000470251SHANGS DEVT. CORP.                                       2601CK1
F0101407270162037998001DCINEMA INC.                                             2605CKR
F0301400110191033341008MILL CENTER TRADING CORPORATION                          2603CKR
F0101403320471046476001ZHOEBLESS CORP.                                          2601CKR
F0101406620273023895002RG-FINANCIAL SERVICES LIMITED                           12602CKR
F0101407720602020882004UNIVERSAL STAFFING SERVICES,                            12601CKR
F0101406620273023895002(PHILIPPINES) IN                                        22600CKR
F0101407720602020882004INC.                                                    22600CKR
