F4101400260000001673423POTESTADES, MARY GRACE LAJO                              2502CKO
F1901400290261048062001DR. ARIS ANTONINO UMALI PENA                             2502CKO
F0301400110191038997168DAVAO HELEN'S PAWNSHOP CORP.                             2603CKR
F0301400110191423860118CO, JAMES LUI                                            2602CKR
F0101408820333031898004PROMETHIUM TRUCKING SERVICES CO                          2610CKR
F0101408820333485480001CAPROTEC CORPORATION                                     2603CKR
F0101408820333485480003CAPROTEC CORPORATION                                     2610CKR
F1201400150421017589003CJH HOTEL CORPORATION                                    2610CKR
F0101403320471046476001ZHOEBLESS CORP.                                          2601CKR
F1301400210682033690002FELIZA JAZZ CORPORATION                                  2602CKO
F4101400260812028697001WELLCARE CLINICS AND LAB., INC.                          2610CKR
