A0101400150000004090311DENIEGA, ANN LYN FITERO                                  0502
B0101400150000000633345THE CHURNER GROUP INC.                                   1601
A0101400150061337098169MA. GISELLE A. LICERALDE                                 0502
A0101400150061337099016AMADO ANDRADA JR.                                        0502
A0101408370382033302001DR. ANTHONY KING & PARTNERS                             10502
A0101408370382033302001CARDIAC                                                 20500
A4101400420000003715677MEDINA, RESTITUTO PALINES                                0502
A0101400440161583002001JOSELITO P. VILLANUEVA                                   0502
A3101400450223403126002RACE, ROMEO BELEN                                        0501
A3101400450223466114002NATIVIDAD, GINA DUNGO                                    0501
A4101400420814520766139VILLAMAYOR, MINA                                         0501
A0101400860000002333477ACOSTA, EMILIA LUGO                                      0504
B0101400860011374845003**********                                               1601
A0101401250000002289956BELGA, ROGER G. OR                                      10501
A0101401250000002289956BELGA, JISAHRELLA A.                                    20500
A0101401250000000057178PRING, FRANCIS DBU PROJECT ARMS                         10501
A0101401250000000057178FITNESS GYM                                             20500
B0101401250000000057258EXCEL PRO PLACEMENT AND SERVICES, INC.                   1602
A0101400150000003322210RAYMOND ENRIQUEZ                                         0501
B0101400150061011143001ZABALETA & CO., INC.                                     1605
B0101400150000005015503TIERRAMONA COMPANY                                       1602
B0601400100081031017001KITA CORPORATION                                         1602
A0601400100081689036001BANUELOS, RIA VELANDO                                    0501
A0601400520000002085930GUEVARRA, MARIA TERESA VIRAY                             0501
A0101400730111045900001JACOB'S LADDER DRUG & MEDICAL                           10503
A0101400730111045900001SUPPLIES                                                20500
A0101400730111195576001ROQUE, REYNALDO M. OR                                   10503
A0101400730111195576001ROQUE, ANGELA P.                                        20500
A0101400730111423961003ROCES, RAFAEL VILLAREAL OR                              10501
A0101400730111423961003ALCALDE, REYNALD                                        20500
A0101401830141281212001IMELDA G. CABALUM                                        0502
A0101400440161520766134LEONORA SANTOS                                           0501
A0101400440161525001112JELLIE ANN D. LOMAHAN                                    0501
A0301400530193504844111********                                                 0503
A0101401380000000106470JUNG, SEJUNG                                             0502
B0101401380201030648001ITEMP HOLDINGS INCORPORATED                              1601
B3101400160221033214001RD CASH PADALA, INC. AREA 02                             1602
A3101400160221478374002MA. LOURDES T. ELIZON                                    0505
A3101400450000003072471REJUSO, MA. THERESA ALVAREZ                              0501
A1001400350000002367360LAGUNDO, IMELDA HAGORILES                                0505
A1001400350000001101157CALIXTRO, LAWDEL PALMARES                                0502
A1301400470000000061509PRICILLA GALMAN CALARA                                   0502
B1301400470000003270113OBRIGADO LENDING INVESTOR, INC.                          1601
B1301400760000000050773GG&G DISTRIBUTORS INC.                                   1610
B1901400290000001363199RD PAWNSHOP, INCORPORATED                                1603
A1901400290261040973001ICT-ED INSTITUTE OF SCIENCE AND                         10505
A1901400290261040973001TECHNOLOGY, INC.                                        20500
A1901400290000000030800JMARK MICROCREDIT CORPORATION                            0505
A1901400290261772647001ALEX CAMOS BUQUIR                                        0501
A0101406620000004925913YOUNG, DIVINE GRACE DBU                                 10501
A0101406620000004925913TRIMYL TRADING                                          20500
A0101411820000003838197CLAUDINE RODRIGUEZ                                       0501
A0101400570281501717001MARTIN T. LEE OR                                        10502
A0101400570281501717001MARJORIE ANN L.                                         20500
A2601400270000000562010ARNEL VIC S. BATTAD                                      0501
B0801400160000001290000HAPI LAPAZ INC.                                          1601
A1101400120313478374103ENVERZO, NARISSA LEONORA G.                              0501
B6601400120000003084693J.H. PAJARA CONST.CORP./CTC CONST. AND                  11603
B6601400120000003084693SUPPLIES                                                21600
A6601400120314770822001SY JR., LARRY OR SY, WILLIAM                             0504
A0101405650000002325548GREGORIO, DALMACIO HILARIO                               0501
A0101405650322638495001FERNANDEZ, ROMANA MINDANAO                               0505
A0101405650000002325651RIVERA, MARIA ELLA GARCIA                                0501
A0101402510341380534001RUBEN D. GAMBOA                                          0501
B0201400760374026694001BULACAN HJR INTERNATIONAL CORPORATION                    1602
B0201400760374030466002A.D. GOTHONG MANUFACTURING CORP.                         1602
B0201400760374042294001MANDAUE CEBU MARINE PRODUCTS                            11605
B0201400760374042294001CORPORATION                                             21600
A0201400760374478374004MELINDA P. ABEAR                                         0501
A0201400920000001331559JNJ FURNITURE AND DESIGNS                                0502
A0201400920000001331537LIM, PERRY TAN OR LIM, ESTER                             0502
A0201400920375478374016CERBO, SHAMIR LOU CAGAIS                                 0501
B0201401020000000042355CEBU RINGO TRUCKING INC.                                 1602
A0201401020377776942001VILBAR, FRANCISCO SALVALEON                              0501
A0101408370000000335631NANALE, MELYN PABUNA                                     0501
A0101408790000005294037VERILY L. VILLAMOR                                       0501
A0101402770000002267212ONGKEKO, FREDERICK SAYSON                                0503
A0101402770391286509001TABIOS, ANDRES D.                                        0501
A0101402770391377092001DAVID MONTALES DOCTOR                                    0502
A0101408400394401209002YU, ANNA KATRINA MANIQUIS                                0502
A0101408400394431804002CATABIAN, RACHEL CACHUELA OR                            10502
A0101408400394431804002CATABIAN, RICO                                          20500
A0101408950396567114001CESAR JOSEPH CURAMENG GLORIA                             0501
A0301400820000001554821ACLAO, MARILOU G.                                        0501
B5501400120410044567001RASAY INSURANCE AGENCY AND GENERAL                      11601
B5501400120410044567001SERVICES                                                21600
A2401400180411036939001MOSES MARKETING                                          0506
B2401400180411040250088HOME SOLUTIONS DEPOT PLUS                                1615
A0901400220432368117001**********                                               0502
A0101403030441239180002**********                                               0504
A0101403030441239449002**********                                               0501
A0101403030441561516001**********                                               0501
B0101403320471030317001UPLIFT PHILIPPINES INC.                                  1605
A3801400170000000955062BABY ROSE B GONZALES                                     0502
A0101405940000005068275ALBERTO VICTOR P. KILAYKO JR.                            0501
A0101408110000003661818BONGALBAL, CAROLA MAYO                                   0503
B0101408530516037477002VXI GLOBAL HOLDINGS B.V.                                 1605
A0101411790518055764203EMPLOYEES OF ETRADE INFORMATION                          0501
A0101403450521238057001**********                                               0503
A0101403450521238239001*********                                                0501
A0101403450000001769997YU, GIBSON AUSTIN ONG                                    0501
B0101403610531029120001WHISPERTRAIL SERVICE, INC.                               1602
A0101404000000005071141PRIMO B AGUAS                                            0501
B0101404000000000025549QUIAMBAO, L DBU LPQUIAMBAO ENTERPRISE                    1601
A0101407720602283353001ERWIN HERNANDEZ OR                                      10501
A0101407720602283353001AGNES HERNANDEZ                                         20500
A0101407720602295336001AGUIRRE, ANGELITA MIGUEL                                 0501
A0101407720602441528002BENEDICT ANG BAN GIOK OR                                10502
A0101407720602441528002SAMANTHA ANG BAN GIOK                                   20500
A0101413440000003298173MACANAS, MA. LINDA ADVINCULA                             0502
A0101413570000003380050MORALES, JANE NUGUID                                     0501
A0101413990000001947128MARS STONE SUPPLY                                        0501
A0101414120000000875696GALINDON, ROLANDO DARAUAY                                0501
B0101414120000003584350LRKD MARKETING AND TECHNOLOGY SERVICES                  11603
B0101414120000003584350CORP.                                                   21600
B0101406590000005403270ALESNA, JOSEPH JIMENEZ AND CARBON, ARNIL                11601
B0101406590000005403270GIJAN                                                   21600
A1301400340000002283752JUANITO C. IGNACIO OR                                   10502
A1301400340000002283752MARY GRACE V. IGNACIO                                   20500
B1301400340000000981933DUNGO, DOLORES LOZADA DBU DOLLY                         11602
B1301400340000000981933DIANNE GARMENTS                                         21600
A1301400340683608747001TALUSIG, MARILYN ESGUERRA                                0502
B2601400140691821100608**********                                               2002
B0101408240711023642001SAM SUNG PHILIPPINES CO., INC.                           1602
A0101408240711396778001MA. FRANCESCA ROMANA OR                                 10501
A0101408240711396778001PHILIPPE SEYER                                          20500
A2801400100000003116656DIZON, J DBU OPTIMA MONEY EXCHA                          0502
A4101400550000000506814DALAGAN, CATALINO B. OR                                 10504
A4101400550000000506814DALAGAN, TERESITA S.                                    20500
A0101412340000003344994MA. CHRISTINA M. PACIA                                   0501
A0101404840851478374094LETICIA FULLO                                            0501
A0101404840851478374115ERLINDA O. PRADO                                         0502
B0101404840000000683512DAISUKE HATA                                             1601
A0101405070861197650002********                                                 0502
