B0101407270162821100608**********                                               2005
B0101402350321821100608**********                                               2003
B5501400120410276380001NOTRE DAME OF MARBEL UNIVERSITY, INC.                    1601
A0901400220000011299217**********                                               0503
A1901400290261478374031REALYN CUENCA EVANGELISTA                                0502
A0101408950396501244001DR. RHESA MAY MANALOTO MARTINEZ                          0501
A0101408950000007458862CHIO, NANCY BORJA OR                                    10502
A0101408950000007458862CHIO, MARTIN CLARENCE                                   20500
A0101408950000000473001SY, JOSEPHINE ABILAR                                     0502
A1601400170000012410756GONZALES JR., RENNIE LUIS B. OR                         10501
A1601400170000012410756GONZALES, EDEN B.                                       20500
A0101405940000012443504ARCANGEL, ARCHIMEDES GARCIA OR                          10502
A0101405940000012443504POBLADOR,JENNY MAE GASPAR                               20500
B0101400860011035923001**********                                               1601
A0101400860011458859001**********                                               0501
B0101400860011485580001**********                                               1603
A0101400860011512628001**********                                               0502
A0101400860011520168001********                                                 0510
A0101400860000011515990**********                                               0502
A0101400860011688925001**********                                               0501
A0101400150000000807636TESALONA, MARIA CLAUDETTE CRUZ                           0501
B0101400150000000000124WORLD AVIATION CORPORATION                               1603
A0101400600071507394001********                                                 0502
B0101405810072011448001C.P.P.C CONSUMER PACKAGING PRODUCT CORP.                 1603
A0101405810000000016606*****                                                    0501
A0101405810072406274001***************                                          0502
A0101410850000009159628MENDOZA, LAWRENCE LEE                                    0502
A0101410850000002356801DELOS SANTOS, N DBU SPMD                                10501
A0101410850000002356801GENERAL MERCHANDISE                                     20500
A0101410560000005280462ROSE MARY S. RAPADAS                                     0501
A0101410560000005280502JANICE B. ORENDAIN                                       0502
A0101400730000016327849MENDOZA JR., GIL GERUME VILLACO                          0501
B0101400730111032257001KELLEE FASHION MARKETING                                 1601
B0101406040112033244001PATIO VICTORIA CORPORATION                               1601
A0101401960000004419829**********                                               0501
A0101413150000000082551******                                                   0501
B7201400170000006487785LADLAD, EMSA BANA                                        1601
B7201400170152058498001CHANG, ALAIN MICHAEL D. DBU STARLIGHT                   11602
B7201400170152058498001GENERAL MDSE.                                           21600
A0101400440161039572003JUDELITA S. ECHUAL                                       0501
B0101400440000000337773VIENNA PORCELANA PHILS. INC.                             1610
A0101400440000007904858ASERON III, MELQUI DBU ASERON S                          0501
A0101400440161298552121MILMA M. QUIAMBAO                                        0501
A0101400440161525001103OFELIA B. OLERMO                                         0501
A0101407270162539457001MARIA LACSINA A. DIAZ OR                                10501
A0101407270162539457001JOHN PAOLO N. CA                                        20500
B0101401090171008190002PSBA REGULAR                                             1630
A0101413020000006295112GO TAN, M DBU WORLD STAR MARKET                          0503
B0101410720000014921150PIER CAPITAN GOURMET CORPORATION                         1605
A0101410720653478374010SOCORRO MARASIGAN JIMENEZ                                0503
A0101413600000002122321CANTERAS, MARIANNE DBU CANVASS                          10503
A0101413600000002122321PRINTS MARKETING                                        20500
B3101400160221037479001TABLERIA LA CONFIANZA CO., INC.                          1601
A3101400450000008015245REYES, JOSEPH  DANTE BRIONES                            10502
A3101400450000008015245OR REYES, CARIDAD AZENITH                               20500
A3101400450000014311723BASILIO, SHIRLEY CEREZO DBU                             10502
A3101400450000014311723ROOFLINE TRADING                                        20500
A3101400450000005960541FERRER, MELVIN JOHN JAMORA                               0501
A3101400740000016283562BAGUISTA, MARISOL BAGUILAT                               0501
B1001400190000002170565CHABON, CLAI DBU SOUTHERNFIELDS                          1602
A1001400190231520766086ABANG, ELVIE EGDAMIN                                     0501
A1001400480000011810238LAO, CHERRY ESTOQUE                                      0501
A1001400480000008501940BALANA JR., RICHARD ZAMAYLA DBU                         10501
A1001400480000008501940RBJ ENTERPRISES                                         20500
B0101406460000000020931GREATWALL MANPOWER & GENERAL                            11605
B0101406460000000020931SERVICES INC.                                           21600
B0101406620273022260001CROWN SYNERGY TRADING CORP.                              1608
B0101406620273026509001DG3 IDOCS, INC.                                          1602
B0101406620000011433122********                                                 1601
A0101406620273216080001MARIA CONCESSA V. DAROY                                  0501
A0101406620273399226001CUDIAMAT JR., CESAR CUETO                                0501
A0101408660000006296779GO, KENNETH SILAYAN                                      0501
B0101411110000000604891NICHE PLAY INTEGRATED MEDIA INC.                         1602
A0101411820000000589408ARLYNE B. BRANDA                                         0502
A0101400570000001681869GARCIA, DOMINIC BOLOS                                    0502
A0501400200000015227222SULLER,CAROLINE OR SULLER,KAREN                         10510
A0501400200000015227222GRACE OR SULLER,YVADELLE                                20500
A1101400120313478374093GIMARANGAN, JINKY A.                                     0501
B6601400120000000060900NORTHERN SAMAR ELECTRIC COOPERATIVE, INC                 1610
B6601400120314612863008DR. BENJAMIN E. VER OR                                  11602
B6601400120314612863008DR. LUCITA L. VE                                        21600
A3401400280000006791188PROCESO B AGUIRRE III DBU LAXMI                         10502
A3401400280000006791188AUTOMOTIVE SVCS & PARTS                                 20500
B3401400280000006790998ST. JOSEPH VOCATIONAL&TECHNICAL TRAINING                11605
B3401400280000006790998& ASSESSMENT CTR                                        21600
B0101402350321046511001SIDAMO DISTRIBUTION INC.                                 1610
A0101402350321327731001JOHNNY S. CO                                             0502
A0101405650000014026023MASCARDO, JOSE GENEROSO TRINIDA                          0501
B0101405650000000772652MARY MOUNT SCHOOL                                        1605
B0101402510341019659002PANDORA EQUIPMENT SPECIALIST CORPORATION                 1612
A0101409050000003536521GUTIERREZ, SHERYLL                                       0501
A0101409050000008491032CAINDOC, ROBIE MONES                                     0501
A0201400760000008869776NUNEZ, DAVID AARON TODAVIA                               0501
B0201400760000007134723**********                                               1601
B0201400760374046036001SAM SOWAH SHIPPING CORPORATION                           1602
B0201400760000000033310SAM SOWAH SHIPPING CORPORATION                           1602
B0201400760000000033332SAM SOWAH SHIPPING CORPORATION                           1602
A0201400890000014877300UY, ZENAIDA JAO OR UY, CHARLES                          10501
A0201400890000014877300NELSON TAN                                              20500
B0201400890376034720001CEBU AGRI CHEM TRADE INC.                                1602
B0201400890376045790002*************                                            1603
A0201400890376272044001LEE, JOSEPH KENNETH GUEVARRA OR                         10503
A0201400890376272044001LEE, MA. CARMEN                                         20500
A0101408370000002264079CHRISTOPHER A. SANTOS M.D                                0502
A0101408370000010833166FLORES, CHRISTIAN JAVIER                                 0502
A0101408790000005251434BANGAYAN, JASON YOUNG                                    0502
A0101402770391282719001GASPAR, LIBRADA PUNONGBAYAN                              0501
A0101402770000009247207CHUA, LETICIA TAN                                        0502
A0101405490000011288010LABRADOR, ROSEFEL ASINAS                                 0502
A0101408400000001835150YU, CHUNHUA                                              0502
B0101408950000015963981CERTIFIED ANESTHESIA PARTNERS & CO.                      1605
A5501400120000005492220ROCKWELL, SHARON SILVA                                   0502
A5501400120000014838663FARROFO, ROSE MARIE CRUZ                                 0501
A5501400120000015560951HUANG, SHENGMIN                                          0502
A5501400120000015560940DELFIN, MANDY ALIP                                       0501
A5501400120000012653468BOCALA, ARLENE LUMBUAN                                   0501
A1201400150000011415573DAPLIYAN, CRISELDA LYNNE L. DBU                          0502
B1201400150000000034379GOSHEN LAND CAPITAL INC.                                 1610
A1201400150421253022001GARCIA, LEONILA LANSANG                                  0501
A1201400150421606494001CALDERON, LORRAINE CHUIDIAN                              0505
B0901400220432821100608**********                                               2002
A5101400100000010371461ACTUB, JONELYN BERNASOL OR ACTU                         10505
A5101400100000010371461B, MICHAEL CLOMA                                        20500
A0101403030441239409001**********                                               0502
B0101403030441707375001**********                                               1602
A0101412890000009833543GARCIA, CRYSTALYN KAYE                                  10501
A0101412890000009833543CRISTOBAL                                               20500
A0101412890000009833554AMIDO, ANNA LIZA GUEVARA                                 0501
A0101410140000012209620CHAN, EDUARDO YAO                                        0503
B0101412760000007821921MOVADO SALES AND ACTIVATION SERVICE                      1603
B0501400170000013296005L'ORIE MERGE & D' ACQUWESTE, INC.                        1602
A3801400170000016340953BARRANDA, JOHN S DBU SOLIDROCK                          10501
A3801400170000016340953JSB TRADING AND HAULING                                 20500
B3801400170490821100608**********                                               2002
A1901400160000006364332GUNO, MARILYN PENTINIO                                   0501
B1901400160491050626001STCJ MULTIPLE INTELLIGENCE SCHOOL, INC.                  1602
B1901400160491341189001VIRGINIA V LIM OR                                       11601
B1901400160491341189001RICHARD D LIM                                           21600
B1401400110492046339002******                                                   1625
A0701400260495354814002ABRERA, AURELIA DOMASIG                                  0501
B0101405940000005359593STAR MOTOR ARMORING TECHNOLOGIES, INC.                   1602
B0101408530516036896001UNITED GRAPHIC EXPRESSION CORPORATION                    1606
B0101403450521011735001BASIC PACKAGING CORP.                                    1603
A0101403450521237475001**********                                               0501
A0101403610000013964173MERK, VERONICA TAPIA                                     0501
A0101403610531221338001REFORMA, MA. SHEREELLE A.    OR                         10503
A0101403610531221338001REFORMA, BENISON                                        20500
A0101407720000009414142SANTOS, DELILAH CAINGAT                                  0501
A0101407720602342044001DR. DARWIN ALBERT DASIG                                  0501
A0101407720602382805001BAGABALDO, ZENAIDA GARCIA                                0501
A0101412180000016339430PRAYCO, JEAN MICAH ONG                                   0501
A0101409890000006812906TEODORO, JACKIELYN DBU                                  10502
A0101409890000006812906JRGT ENTERPRISE                                         20500
A0101407690652525001067MAILA M. NACIN - DEALERS OF                             10501
A0101407690652525001067SHOECAT INC.                                            20500
A0101407690652718526001GERRY N. SANTULLO OR                                    10502
A0101407690652718526001JACQUELINE J. SA                                        20500
A0101413570000015605935TIGA, JOSE EDUARDO MIRANDA                               0501
A0101413570656057648190JENNYMAR A. ORNEDO                                       0501
A0101413990000016329367BROWNSHORE TRADING                                       0501
A0101413990657062002001CMPEREZ CONSTRUCTION                                     0503
A0101413990000006768638***                                                      0502
A0101414120000014550604SARABIA, PRISCILA DAWANG                                 0502
A1301400210682478374047JOSIE P. CORONEL                                         0501
A1701400230000011517423PAZ-TAN, LIZA MARIE RIOS                                 0501
A1701400230000004469643SALAZAR, MARIBETH DBU  NORTH                            10505
A1701400230000004469643TECH BUILDERS & CONSTRUCT                               20500
A0101408240000006599991ESTERA, WINSTON GEORGE B.                               10502
A0101408240000006599991OR LLAMAS, ROGIELYN                                     20500
A0101408240000010639342ARCE, MARIA ANGELA JEREZA                                0501
A0101408240711392969002SAZON, MARGARET MARY GOLDEN                              0502
A2801400100712551709001SANTOS, OSCAR CO                                         0510
A4101400260000016339594VILLOTA, JORDAN DE GUZMAN                                0501
A4101400420814342049001MENDOZA, DIVINA LORY ANN E. OR                          10505
A4101400420814342049001MENDOZA, GILBERT                                        20500
A4101400550000013277157CATEDRILLA, ROLAND CELINO                                0503
A4101400550000014678881RIVERA, MARIA CECILIA ORETA                              0502
A4101400550000007583864RIVERA, ROSALINDA LOVERIA                                0503
A0101406750000007879621BARSOLASO, BILL GASCON                                   0502
B0101406750000007097272BONA, MECHIE ROMAN DBU ANING'S VULC                      1601
A0101406750852478374118RUBY FLAVIER                                             0502
A0601400230000012579723GUINA, JOAN CHRISTINE SALAC                              0501
B0601400230891040013001OCAMPO'S METROSALES INC.                                 1603
A0601400230891380832001ANGELITO OR MARISSA LOPEZ                                0502
