B0101407430503821100608**********                                               2020
A1401400110000013091435ESCARO, SHIERALYN CANDELARIA                             0502
A0101401250000012169261ANGELES, EVELYN SANTIAGO                                 0502
B0101412630000002186405BUE, JENEVIEVE RHEA TAN                                  1601
A0101400570000012977125SAN JOSE, JEROME KYLE RASCO                              0501
A2001400290000001974029ALEXIS SECURITY AGENCY PROVIDER                          0502
B2001400290315528399001**********                                               1601
A1401400110492493108001DEQUITO, BERNABE VILLANUEVA                              0502
A0101408530000008159677ESPECTACION, JIAN KARLA                                  0501
A0101400860011434439001*********                                                0501
A0101400860011685244001BANDIOLA, SIDNEY MORALES                                 0501
B0101400150061010962002PHILIPPINE WELDING SOCIETY INC.                          1603
B0101400150061011076001GENERAL METAL CONTAINER CORPORATION                      1605
A0101405810072400300001**********                                               0501
A0101405810072504630001LIM, BEE SUAN                                            0502
A0601400100081424085001ALAPAG, JASMINDA B. OR                                  10502
A0601400100081424085001ALAPAG, MARCELIN                                        20500
A0101400730000000833396CARBONELL, LEVINA IBALE                                  0503
A0101400730000002882433LI, MARYANN NOVALES                                      0501
B0101400730000000002591*****                                                    1601
B0101400730111036857001FRC SULO RIVIERA HOTEL CORPORATION                       1606
A0101400730111334903012EMELITA E. BATO                                          0501
A0101400730111520766063MICHAEL T. VILLAMAR                                      0504
B0101401960121023087001**********                                               1601
B0101401960121240767001PRESTIGE INDUSTRIAL SUPPLY INC.                          1603
A0101401960121569490001************                                             0502
B7201400170000003773240WEE, PATRICK TOE OR WEE, MICHAEL TOE                     1602
A7201400170000014691291DANONG, CESAR DEREGLA                                    0501
A7201400170000014693931CABARAL, JOLJO EDDIE LEOPOLDO                            0501
A0101400440000009896297MEMBERS OF NATASHA SHOECAT INC,                          0501
A0101400440161520766112DOLORES V. ARCEGA                                        0501
B0101407270162021675001***************                                          1620
B0101407270162046726001VALUE CARE HEALTH SYSTEMS, INC.                          1650
B0101407270162046726001VALUE CARE HEALTH SYSTEMS, INC.                          1650
A0101401090171196081001DRS. MANUEL OR CYNTHIA ZACARIAS                          0506
A0101401090171303171001MA. VICTORIA L. TORRES                                   0503
A0101401090171415630001GERTRUDES M. CALLANGAN                                   0502
A0101401090171415630001GERTRUDES M. CALLANGAN                                   0502
A0101401090171468916001FRANCISCO, MA. GENEVIEVE RAMOS                           0502
A0301400530000001409694ALIADO SR., JIMMY M.                                     0502
B0301400660000006862617BANGAYAN, EDWARD LAWRENCE UY                             1602
A0301400660000006862953**********                                               0503
B0301400790000000435727OUR BRIGHT SEEDS, INC.                                   1601
A0101401380201689041001TAN, ALBERTO GALLARDO                                    0501
A0101410720000014210667RABINO, RACHELE GAA OR RABINO                           10501
A0101410720000014210667III, PRESCILLANO GAZMEN                                 20500
B3101400160221031027002ALLIED DOCTORS FOOD RESOURCES, INC.                     11603
B3101400160221031027002(COMFORT ZONE)                                          21600
A3101400450000002092899SIMBULAN, DENNIS DE LEON                                 0501
B3001400130230043534001BERRY HAPPY MART INC.                                    1606
A1001400480000014023353HARRIS, DIVINA VALENCIA                                  0501
B1001400480000000133571************                                             1603
A1301400760000003415654 ERANO CENA SANTIAGO                                     0501
A1301400760000001295570BIEN M. CRUZ                                             0503
A1901400290261021148001ACR CONSTRUCTION SUPPLY                                  0505
A0101406460272289071002********                                                 0501
A0101408660000013602163MARQUEZ, JERVIN FAJARDO                                  0501
B0101411110000000604891NICHE PLAY INTEGRATED MEDIA INC.                         1603
A0101411820000005380172ARDEN CHRISTOPHER C. CHAN                                0501
B0101400570281047291001FARMACIA NI DOK INCORPORATED                             1602
A0101400570281186565002DANILO D. REYES                                          0505
A0101400570000001681858GO, ROBERTO ONG                                          0506
B2601400270000011485222ROGER UY PUA DBU RLH RICE MILL                           1610
A0801400160000006893123SALIENDRA, MARY ANNE SORRILLA                            0501
A6601400120314618083088PORAQUE, JULIO TAN                                       0502
A6601400120314677757001GONZALES, IGNACIO DELA CRUZ                              0501
A2001400290000001557542ZF GENERAL MERCHANDISE                                   0501
A3401400280000001723473AMELIA A. ZAMORA                                         0501
A0101402510000013485931KASAN, MIN RAUP BARAZAR                                  0501
A0101402510341199178001JAMES LORETO C. PISCOS                                   0502
A0101409050000002652899BACANI, MARIA ELOISA                                     0501
B0201400920375035043001EIGHT TO EIGHT CATERING SERVICES                         1601
A0101402930000003710494TECSON II, DELANO VINCENT DOROT                          0501
A0101408790383549402001*****                                                    0501
B0101415350000003212380TECH1 CORPORATION                                        1601
A0101408950000011764733DELA PENA, JOSEPHINE DIMAYUGA                            0502
A2401400180411514423001DEALA, BERNARDITA GATCHALIAN                             0502
B0101406330472040053001KUS OFFICE SYSTEM MFG. CORP.                             1602
B0501400170000013295980GUANZON MERCHANDISING CORPORATION                        1602
A1901400160000012295580MICHAEL R. BARIL OR                                     10505
A1901400160000012295580SANDRA M. BARIL                                         20500
A1901400160000014655359MARANAN, JONALYN SALAZAR                                 0501
A1901400160000014655673FLICKINGER, GENESIS DE SILVA                             0501
A1401400110492541342001ABELAR, LOURDITO S. OR                                  10502
A1401400110492541342001ABELAR, ISABEL M                                        20500
A1601400170000001068593JINKY M. NIEVA                                           0502
B0701400260000014694358TIMEZONE LENDING INVESTOR CORP.                          1602
B0101403580511155828001JOUBERT CONSTRUCTION INC.                                1610
A0101403580511358071002MARCELO O. ORAA JR.                                      0505
B0101405940512005463001QUESTRONIX CORPORATION                                   1601
B0101405940512020338001ANGEL LEIAIEL EXPRESS INT'L INC                          1605
A0101408530000007304532SANDRA MARIE R. AGUILAR OR MARI                         10502
A0101408530000007304532A ELENA RODRIGUE                                        20500
B0101408530000003866126HOPPLER INC.                                             1604
A0101411790518055815181VILLAFRANCA, SHALIMAR CAMLIAN                            0501
A0101412050000013784091SUN, JINGTONG NA                                         0501
B0101403450521029023001BARRINGTON CARPETS, INC.                                 1602
B0101403450521029025001CEDARSIDE INDUSTRIES, INC.                               1602
B0101403450521033882002*********                                                1610
A0101403450521238227001**********                                               0501
A0101403450521389380001**********                                               0501
A0101403450521441986001**************                                           0520
A0101403610000014681702PEREZ, GREGORIO MARGALLO                                 0501
A2201400250000012982402TANAMAL, TANY TORRES OR,                                10501
A2201400250000012982402TANAMAL, EDCHANET AGUSTIN                               20500
A2201400250561258530023ROBINSON D. GARCIA                                      10501
A2201400250561258530023EMPLOYEES OF IEW                                        20500
B0101410690000006663610DRAF OFFICE FURNITURE CONCEPTS INC                       1605
A0101404130000001831738ASEGURADO, ESTACY CARL FAJARDO                           0501
B0101407720000009181700ALTERNATIVE CTR FOR CONTINUING EDUC. AND                11602
B0101407720000009181700SEMINAR SOLUTION                                        21600
A0101407720602318369087EMMANUEL S. MASANGA                                      0501
A0101407720602326333001SATURNINO PEREZ JAVIER                                   0502
A0101409890649675584001TAN, ANGELITO SY                                         0501
A0101407690000000913600MARQUI AUTO SUPPLY                                       0502
B0101407690000007720205BLUE APPENINE CORPORATION                                1601
B0101414120000003584281JD & P FOOD TRADING CORPORATION                          1602
B0101406590000003007358MIND MOVER PUBLISHING HOUSE INC.                         1601
B1301400340683025550001HONDA MINERVA INC.                                       1601
A1301400500000007096428SANTOS, JOSEFINO RIVERA OR                              10502
A1301400500000007096428SANTOS, ALLAN JOSEPH ONG                                20500
A1701400230000012227400ERIN, JOEBEL BUCANA DBU JFK TIL                         10502
A1701400230000012227400ES & STONE BUILDERS                                     20500
A0101408240000006599991ESTERA, WINSTON GEORGE B.                               10502
A0101408240000006599991OR LLAMAS, ROGIELYN                                     20500
A0101408240711569006001AVENA, JOSEPHINE NUQUI                                   0501
A0101408240711717256001LAWS, KATRINA OR LAWS, JOSEPH                           10505
A0101408240711717256001OR LAWS, TIMOTHY                                        20500
B2801400100712034508001FINANCIAL EXECUTIVES INSTITUTE OF S                      1601
A2801400100712494193001DIANO, BLESILDA MISTICA                                  0501
A2801400100712614003001ARMAMENTO, ROSENDO ALIWALAS                              0502
A4101400260000010623797**********                                               0505
A4101400260000014688294MANDURIAGA, SUELLEN .                                    0501
A4101400260000010623593OBIAS, CHRISTIAN B. DBU TWINJ                           10502
A4101400260000010623593BAR AND RESTAURA                                        20500
A4101400260000009533644TOLENTINO, JENNIFER B. DBU                              10505
A4101400260000009533644JENNY'S ACY TRADING & GEN                               20500
B4101400420000009391933RITA SAMSON MEMORIAL GARDEN, INC.                        1605
A4101400420814328455001LARGA, ROMMEL YAP                                        0501
A4101400420814478374156OLIVIA V. ALGARA                                         0501
B0101406750000000090691THE PLAZA HOTEL BALANGA CITY INC.                        1610
B0101406750000000090468ENL COURIER EXPRESS, INC.                                1601
A0101406750852633773001MARASIGAN, RICARDO JOYAS                                 0505
