B0301400660194821100608**********                                               2020
A0101400570000011447937LIM, JERALD GARVIN SY                                    0501
A2401400180000007031790********                                                 0501
A0101400730000010965303ANDREO, HAZEL L OR                                      10510
A0101400730000010965303ANDREO JR, WILFREDO L DBU                               20500
B0101409180000000036644THE TABLE GROUP, INC.                                    1620
B0101400730000000002557NORTHSTAR TRAINING & CONSULTANCY INC                     1602
A0201400920000009575153LLEGO, MICHAEL SOCO                                      0502
A0101400150000014636467CHARLES OR KARL STANLEY OR                              10501
A0101400150000014636467KARL HEINZ GOBING                                       20500
A0601400520000009516781CUENCO, RACQUEL BACSAN DBU BCC                          10503
A0601400520000009516781CONCRETE BLOCKS                                         20500
A0101401830141206435001EMMA G. CHUA                                             0502
A7201400170000006487483AMPONG, JASMIN HOFILENA OR                              10501
A7201400170000006487483AMPONG, ARGUIVAL RITZCEL                                20500
A0101400440161520766098JUDITH D. BRISO                                          0502
A0101401090000007525626ALFEROS V, VINCENT THOMAS                               10501
A0101401090000007525626SUALOG                                                  20500
A0301400530193478374008CHYRL ANN SENANGOTE                                      0502
A0301400790000002301393BARCELONA, JANET TIZON                                   0502
A0301400790000006269776SARONA JR., GILBERTO A. DBU                             10503
A0301400790000006269776SDES ENTERPRISES                                        20500
A0301400950000001379546SARABIA, MAY JOY DUCO                                    0501
A0301400950000013536095*************                                            0501
A0301400950000013857213REPULLES, JUANITA DBU RKR                               10501
A0301400950000013857213ELECTRICAL SUPPLY                                       20500
B0301400950000011415175BOOMIN' & BLOOMIN' BRAND INC.                            1602
A0101412500000015369716JUSAY, ARKEE REYLO PONTERAS                              0501
A0101412500214331365001CRUZ, WYNALDI TABLIZO                                    0501
A3101400160000014696554ANTONIO, ETHEL VILLEGAS                                  0501
B3101400160221027279001TORCHRESEARCH RESOURCES CORP.                            1601
A3101400160221220514001ROLANDO TURICA OR                                       10501
A3101400160221220514001ROSARIO TURICA                                          20500
A3001400130000005708670RULONA, JOHNA CABATINGAN                                 0501
A3001400130000012557756LIM, HANS RYAN VILLAMOR                                  0502
A1001400190231478374116ESTRELLITA E. BERMUDEZ                                   0501
A1001400190231520766005ACABA, EVELYN ESTRELLA                                   0501
A1001400350000000017887GO, GONZALO CO                                           0501
A1001400480000000606893DERECHO, REYNALDO RAMAYLA OR                            10502
A1001400480000000606893DERECHO, MILRENA                                        20500
A1301400470252507995001VERA A. BORROMEO AND                                    10502
A1301400470252507995001MARY GRACE B. SANTOS                                    20500
A1901400290000015369625KATRINA CYRIL M MACALINTAL                               0501
A1901400290000015369852ARANO, KAREN MERCADO                                    10501
A1901400290000015369852OR ARANO, REX ABO                                       20500
A1901400290261033073002NESLIET BUILDERS AND GENERAL                            10503
A1901400290261033073002MERCHANDISE                                             20500
B1901400290261066130001PHIL. RBA VET TRADING CORPORATION                        1603
A1901400290261488341021DRA DALISAY A KISON                                      0501
A0101401670000005039765TERRE JR., RONY LOBREZA                                  0501
A0101406620273306796038BENJAMIN REYES CUMPAS JR.                                0501
A0501400200000015258941MIRANDA, RODAVE LARANANG                                 0501
A2601400270000002677569DEXTER C. DUMRIQUE                                       0505
B0801400160311022546001POWER ALLIANCE CORP.                                     1605
A0801400160311413609001LIM, JOSEPH PO OR                                       10505
A0801400160311413609001LIM, MICHELANE PETINGLAY                                20500
A6601400120314593270001DIAZ, REO DBU RUDMAR TRADING JT                          0505
A6601400120314630541002LIAD, ROSIE ORTIZ                                        0502
A6601400120000005710292CASTILLO, CANDELARIA MORALLOS                            0501
A2001400290000008502196TEMBLOR SR., FLORIDO VILLAGONZA                          0501
A2001400290000010684336CHUA, JEOREX POBLACION OR CHUA,                         10501
A2001400290000010684336MELANIE ROSE GAR                                        20500
B2001400290315044204001ACEBANK CREDIT, INC.                                     1601
B0101405650322006303001GIL'S TRADING                                            1604
B0101402060000006931811ORGANITEC LABORATORIES & SYSTEMS, INC                    1602
A0101409050000006986670TOREDA, MARIA CONSUELO BENATTI                           0501
A0201400760000013874729ANG, ROY CHAN                                            0505
B0201400760000006433401CHUA, JOSEPH DBU COMPOSTELA ICE PLANT                    1601
B0201400760000001612891TOLEDO DEVELOPMENT SERVICES                              1604
A0101411660000005324072MAMA, SALMA MACARIK                                      0502
A0101411660000014311821MENDOZA, LORENZA ALCANTARA                               0501
A0101402770000001570623CHAVEZ JR., BONIFACIO VENTIC                             0501
A0101409180000014367861BELLO, JOANE JABAAN                                      0502
A0101412210000015369301SORIANO, CEASAR CANAMA                                   0502
A0101412210000015368791GREATCZAR MEDIA PRODUCTIONS                              0502
A0301400820000010907207CASTEEL, STEPHEN SARCAOGA OR                            10501
A0301400820000010907207CASTEEL, ANN QUITORIANO                                 20500
A0301400820000015222983UY, DANILO PULONG DBU DANVIC                            10501
A0301400820000015222983CONSTRUCTION                                            20500
B0301400820000000024911DIGOS DOCTORS' HOSPITAL, INC.                            1620
A5501400120000013825533BELONIO, IMELDA LEYSA                                    0501
A2401400180000007031905EGASAN, BRYAN CRISTAL OR EGASAN                         10501
A2401400180000007031905KEREN HAPPUCH ESPIRITU                                  20500
A5101400100000010371223ABINES JOHN PAUL BOTIGAN DBU RE                          0501
B0501400170481015881001TOYOTA DAGUPAN INC.-2                                    1620
A0501400170481046585002ANG, JUSSLYNN DBU                                       10505
A0501400170481046585002AVS DISTRIBUTION                                        20500
A0501400170000006300772MENESES, JAIME CLAVERIA                                  0502
A3801400170000011559881COLLANTES, ALBERTO REMO                                  0501
A1901400160491244286001CARLITO GO OR FELIE GO OR                               10505
A1901400160491244286001CARLEEN OR CHERY ANNE                                   20500
A1601400170000009954363BADIEE, PEIMON B. OR BADIEE,                            10501
A1601400170000009954363ANNE LYNLET D.                                          20500
A0701400260000002339095BERNARDO JR., JAIME MIRALLES OR                         10502
A0701400260000002339095BERNARDO, CYRIL                                         20500
A0101407430000014965805CHONA MAE ABAR                                           0501
A0101407430000014965930CYREL M. AGRAVANTE                                       0501
A0101407430000015015766MIGUEL GERARDO M. ARAGON                                 0501
A0101407430000015015915MARY GRACE BARBADILLO                                    0501
A0101407430000015016394AIYETTE CALINGASAN                                       0501
A0101407430000015016838MELINDA S. DAMO                                          0501
A0101407430000015016907ROBVI ROSE DAPLAS                                        0502
A0101407430000015017006JESSE G. DELIMA                                          0501
A0101407430000015017119NOEL L. DUQUE                                            0501
A0101407430000015017751KARLA GAMIER                                             0501
A0101407430000015017951DAISY ILAGAN                                             0501
A0101407430000015017973MARIA TERESA T. INOVIO                                   0501
A0101407430000015018196REGINA G. LAPIS                                          0502
A0101407430000015018287GERALDINE LEE                                            0501
A0101407430000015018323BLAIR HANN LIM                                           0501
A0101407430000015018425EMILY LUMANGLAS                                          0501
A0101407430000015018709MYLA EVELYN V. MERCADO                                   0501
A0101407430000015018812NIMFA F. MORENO                                          0501
A0101407430000015018841GENE ROSALYN T. NAMA                                     0501
A0101407430000015019002ANNE SHERI L. PARAFINA                                   0501
A0101407430000015019188RASALAN, FRHONTHON                                       0502
A0101407430000015019246ANGELICA L. RENDON                                       0501
A0101407430000015019326ROSERO PACIFICO                                          0501
A0101407430000015019406VANESSA G. SANDI                                         0501
A0101407430000015019439SHARON STA. ANA                                          0501
A0101407430000015019491LESTER P. SUAREZ                                         0501
A0101407430000015019553GILBERT A. TELLEZ                                        0501
A0101407430000015019622ERWIN M. YABUT                                           0501
A0101407430503381178001CRUZ, ROMEO VALDEZ                                       0502
A0101408530516615903009ELVIE B. CUREG                                           0502
A0101411400000000484468RODEJO, M DBU MYSTIQUE IDEA                             10501
A0101411400000000484468BEAUTY SALON                                            20500
A0101411790000011046072LAMPA, JORACE TENA                                       0501
A0101403450000011972242SUN, YULING                                              0501
B0101403450521012010001********                                                 1603
A0101403610531710937001CRUZ, CATHERINE DURAN                                    0501
A2201400250561405717001EUGENE Y. GO                                             0501
A0101409920000000998569MEMBERS OF NATASHA (SHOECAT INC                         10501
A0101409920000000998569PEDROSA, JULIE                                          20500
A0101409920000005460862MEMBERS OF NATASHA, SHOECAT INC                         10502
A0101409920000005460862RAPSING, ANELA R                                        20500
A0101407690000006242188LEE, AURORA M OR LEE-CATALAN,                           10502
A0101407690000006242188YASMIN M                                                20500
A0101407690000015369352IBANEZ, PAUL BERNARD C. OR                              10501
A0101407690000015369352RUELOS, SHIENA ANNE C.                                  20500
A0101407690652520766005GILNNA M. MALIGAT - DEALERS OF                          10501
A0101407690652520766005SHOECAT INC.                                            20500
A0101407690652525001060SUSANA MORENO - DEALERS OF                              10501
A0101407690652525001060SHOECAT INC.                                            20500
A0101407690652553826001JOSE MA. ANGELO P. VILLAROMAN                            0501
A1301400210000003104930BELLO, ALTHEA LOU CASTILLO DBU                           0501
A4101400260000010623731QUIRAP, JERIZAL F. OR                                   10505
A4101400260000010623731BAGO, MARIA CRIS                                        20500
A4101400260000012869144UNDECIMO, LLIANEE                                        0501
A4101400420000000710472FLORES, MAXIMO ESPIRITU                                  0501
A4101400420000015368433SY, HENRY OR SY, BEATA                                   0501
A4101400420814478374102MALIBIRAN, MARLYN M.                                     0502
A0101404840851478374062VIOLITA V. GIDUCOS                                       0501
A0101406750852636445001AMAPOLA C MANGURNONG                                     0501
A0101406750852700914001MARIVIC CALIMBAHIN                                       0505
