B0101400150061821100608**********                                               2050
B0101416610410462000011**********                                               2002
A3101400870000001146452MUNOZ, CLARISSA CABUNGCAL                                0501
A0101405650322170748001ADLAWAN, JOSEFINA U.                                     0502
A0101409920650478374011MELFLOR M. SILVINO                                      10501
A0101409920650478374011MEMBERS OF NATASHA                                      20500
A0101409920000000998558MEMBERS OF NATASHA (SHOECAT INC                         10501
A0101409920000000998558PASCUAL, GLORIA                                         20500
A0101409920000001952041MEMBERS OF NATASHA (SHOECAT INC                         10501
A0101409920000001952041LOPEZ, ERICA R.                                         20500
B0101400150061030906001SM DEVELOPMENT CORPORATION                               1602
A0101400150000002394830INTING, THERESA LEILA ALUNAN                             0501
A0101400440161478374051LILIA S. FELICES                                         0502
A3001400130000001271341SURALTA, GEGINIA MONTICINO                               0501
B3001400130000001271772xxxxxxxxxx                                               1603
A0101408400000001981699HONRALES, ARIEL OR HONRALES,                            10504
A0101408400000001981699CANDY                                                   20500
A0101409920000001951931MEMBERS OF NATASHA (SHOECAT INC                         10501
A0101409920000001951931TRASPORTE, GINA                                         20500
A0101400860011386656002**********                                               0503
A0101401250021183904001EDNA G. QUINSAY OR                                      10503
A0101401250021183904001ANTONIO E. QUINSAY                                      20500
B0101400150061010605001INTERDENT INC.                                           1650
B0101400150061016942007ASIA PACIFIC EXPRESS CORPORATION                         1605
B0101400150061048055001HOME DEVELOPMENT MUTUAL FUND                             1601
B0101400150061085874001ANNING CORPORATION                                       1602
A0101400150061231268002CORAZON TAN OR                                          10501
A0101400150061231268002ANCHETA TAN                                             20500
A0101400150061315349027ANECITA C. DE VILLA                                      0501
B0101400150061447303001TANY FOUNDATION, INC.                                    1605
B0101400600000001335751ORIENT MASTER PRINTING CORPORATION                       1602
B0601400100081034790001SHINMEI CREDIT AND LOANS CORP.                           1601
A0601400100081586342001AGUILAR, REMEDIOS SALAS                                  0501
A0101410850109053560002HERNANDEZ, JUNE JT DBU JUNE AND                         10502
A0101410850109053560002YVETTE TRUCKING SERVICES                                20500
A0101410560000000268360DE LEON, TERESITA BOTE                                   0502
B0101400730111008426001COUNTRY BANKERS INSURANCE CORPORATION                    1604
B0101412630000002186461SUNLAND DEVELOPMENT CORP.                                1610
A0101413310000005433103VALENTOS, LIZZA MARIE GRACE OR                          10502
A0101413310000005433103MARCOS, FERNANDO S.                                     20500
B0101401830000000033638CARITAS SALVE CREDIT COOPERATIVE                        11603
B0101401830000000033638(MANDALUYONG)008                                        21600
B0101401830141059061001URGINO, MARIA CARMENCITA DBU MARICAR'S                  11601
B0101401830141059061001DANCE STUDIO                                            21600
A0101401090171427121001SOLLY E. LIM                                             0501
B0301400530000001409392PHILFRUITS PREMIUM CORPORATION                           1602
A0301400530193589326001DE VEYRA, ALFREDO D.                                     0507
A0301400530193719985001MICHELLE F. BALILI                                       0520
A0101401380000000414402VERGARA, MANUEL DIONALDO                                 0501
B0101410720210047125001RYAN IAN COMMERCIAL                                      1601
A3101400160221307188002IPPOSHI, KOJI                                            0501
B3101400870225821100608**********                                               2002
B1001400190231059545001LIVINGROCK DEVELOPMENT & GENERAL                        11601
B1001400190231059545001SERVICES INC.                                           21600
A1001400190231087824001***********                                              0502
A1001400480000001054711VILIRAN, PRINCESS SYBIL BADAJOS                          0501
B1301400760000000050728VICTOR R. DEL ROSARIO RICE MILL CORP.                    1605
A1901400290000001975404MARANAN, MERCEDITA DBU REYMER                           10501
A1901400290000001975404DIGITAL PHOTOGRAPHY                                     20500
A1901400290261298552105AIDA NABOS REYES                                         0501
A1901400290261419007001FE LEJANO TONGOL                                         0503
A1901400290261646960001EUGENIO P LEYESA OR                                     10501
A1901400290261646960001MARISSA M LEYESA                                        20500
A0101401670000003675285MARIANO, BIMBO ANGELES                                   0501
B0101401670271022903001PHILIPPINE ASSOCIATION OF THE RECORD                    11602
B0101401670271022903001INDUSTRY, INC.                                          21600
A0101401670271384158001SANTOS, KATHERINE LOURDES BALAO                          0501
B0101406620273045167001VENTURANZA, HOSTALERO AND COMPANY, CPA'S                 1601
B0101411110000001037096TECHNOVORE SYSTEMS INC.                                  1601
A0101411820277775683001**********                                               0502
B0101400570281036729002LAIYA GOURMET                                            1605
A0101400570281670496001DEAUNA, ELVIE MATA                                       0501
A0501400200000001081145MANIPON,W. DBU FA WELS CONSTRUC                         10501
A0501400200000001081145TION SUPPLY OR MANIPON,C.                               20500
A0801400160000000476346TSC SUPREME MOTOR SHOP                                   0504
A3401400280000001723440EDUQUE, JESSIE ECARAN OR EDUQUE                         10501
A3401400280000001723440RUELYN CAPUNONG                                         20500
A0101402350000000145673MA EDITHA E. ABANTE                                      0501
A0101405650000002325673YU, MARILOU BALIAR                                       0501
A0201400760374042274001MPC TRADING                                              0502
A0201400920375039398001QCS PHILS. - CONSULTANCY & TRAI                          0505
B0101408370382009068001DEPARTMENT OF OTOLARYNGOLOGY                             1604
A0101408370382205224001NORMAN S. BUSTOS, M.D.                                   0502
A0101408370382209111001DR. JOSEFINA C. PONCIANO OR                             10503
A0101408370382209111001RANDOLF C. PONCIANO                                     20500
A0101408370382209736001DRS. PAUL JESUS S MONTEMAYOR OR                         10502
A0101408370382209736001MA. NATHALIA N MONTEMAYOR                               20500
A0101408370382463539001ANES, MA. CECILIA MAYUGA OR                             10505
A0101408370382463539001MAHUSAY, JULIETA                                        20500
A0101408400000001835190TOYOGON, ASUNCION DESTAJO                                0502
B0101408950396044935001GORDON & ASSOCIATES PHILIPPINE OFFICE                   11605
B0101408950396044935001CORP.                                                   21600
B0101409180000000874762JP&M FOOD ENTERPRISE CO. LTD.                            1601
A0301400820000000024871JAO, EDMUNDO C.                                          0502
A2401400180000003949140UY, RUBING SIOCO                                         0501
B2401400180411033733033ECA RESOURCES, INC.                                      1601
B2401400180411036177008VERTICAL BUILDERS                                        1605
B0101403030441038216001LAZARO FURNITURE                                         1604
A0101403030441303194001**********                                               0505
A0101403320471034522002MONCHESSA BUILDING                                       0504
A3801400170000000497930ARACELI S MANALO                                         0501
B1901400160491012578001NEMARIANS CREDIT CORPORATION                             1605
B1901400160491027966001SALESFORCE ONE MARKETING, INC.                           1605
A1901400160491298907001SANTISIMA B HERNANDEZ OR                                10501
A1901400160491298907001MARIE JANE H VINAS                                      20500
B0701400260000000670991PURITAN LAND DEVELOPMENT CORPORATION                     1604
A0101403580000004091894ONGCAPIN, LUZVIMINDA SESE                                0501
B0101403580511155836001ALCOSER REALTY CORPORATION                               1601
A0101403580511498348002CLARO C. ZABLAN JR.                                      0502
B0101405940512005383001ALEXCOM CONSOLIDATED RESOURCES, INC                      1602
A0101408530000000136303CUENCA JR., RODOLFO SANTOS                               0502
B0101403450521012010001********                                                 1603
A0101403450521238628001**********                                               0501
A0101403450521240509001**********                                               0503
A0101403450521313120002**********                                               0501
A0101403450000001770032BAUTISTA, RONALD VALERA                                  0502
B0101404000551012387001JOHNCLEMENTS.RECRUITMENT INC                             1610
A0101407720602398260002JON EDWARD B. JURILLA OR                                10504
A0101407720602398260002JOAN S. GATCHALIAN                                      20500
B0101407720602531007002BAJA MEXICAN CANTINA CORPORATION                         1601
A0101407720000002693116PUNO, MARIA PATRICIA ANN TANEDO                          0501
B0101412180000001293038WESTMONT INDUSTRIAL SALES INC.                           1603
A0101404260611478374075VIVENCIA HATOL                                           0501
A0101409920000001951862MEMBERS OF NATASHA (SHOECAT INC                         10501
A0101409920000001951862MONTALBO, JASMIN D.                                     20500
A0101413570000000206351**********                                               0501
A0101413990000004511077ESPEJO, MA. CAMILLE T. OR                               10501
A0101413990000004511077ESPEJO, MARLO F.                                        20500
A0101413990000000206033MARITES R. CONANAN                                       0502
A0101406590662207517002CASINO, ROSITA M.                                        0501
A0101410300000003290202CRUZ JR., JOSE WILFREDO P.                              10502
A0101410300000003290202OR CRUZ, WILFREDO D.                                    20500
B0101410300663046957001BRIGHT MARITIME CORPORATION                              1605
A1301400500000003070048NICOLAS, ADALIA VIOLA                                    0501
A1301400500000000213163NORVY G. MARCELINO                                       0505
A1301400500684654056001BEQUIZO, MA. ANTONETTE M.                                0503
A0101408240711372919001CHRISTINE OR MANUEL LUIS                                10501
A0101408240711372919001IDQUIVAL                                                20500
A0101408240711396310001LESTER C. VICTORIA OR                                   10502
A0101408240711396310001GIL JOSE E. PULUMBARIT                                  20500
A2801400230000001782130GOLDEN STATE ALUMINUM GLASS &                           10504
A2801400230000001782130GENERAL MERCHANDISING                                   20500
A0101412340000003719522KRISTOFFERSON B. SALVADOR                                0501
B0101412340000002879943ROSET CONCIERGE SERVICES INC.                            1605
A0101404840851520766026MENALIZA MABINI                                          0501
B0101406750000000017609***********************                                  1601
A0101406750000004641576DAVID, SANDY DBU PRO BEATBOX EN                          0505
B0101405070861008408001CLINICOMED                                               1605
A0101405070861478374086MARLYN C. GABEST                                         0502
A0601400230000003015830BERSALES, DAVISON MANLAPAZ                               0501
A0601400230000003015841DE GUZMAN, JENNIFER ESGUERRA                             0501
B0601400230891028240001SUPER BIKES CENTER BRANCH FUND                           1601
