A0101410850000000005803JOSE, SHARON KAYE LU                                     0501
A0301400530000000065956SINGH, ESTER SOMOSOT                                     0501
A0201400760000000223043OJALES, FEIAN ARCUINO                                    0501
A0101405490000000444313BENITO M. LOJO                                           0503
A0101404000000000461163MEJIA, JOCELYN CASTILLANO                                0503
A0101410140000000499270MARQUESES, CHRISTOPHER ACOSTA                            0501
A2601400270000000561506QUIATCHON, NOEL VALENTINO DBU L                          0505
A1101400120000000652755GALLARON, YOLANDA SALENTES                               0501
A4101400420000000710223ROMERO, MARICRIS BAUTISTA                                0501
A0101414250000000765691*                                                        0501
A0101408950000000776490AQUINO, CHERILYN RUIZ                                    0502
A0101400730000000833396CARBONELL, LEVINA IBALE                                  0505
A0101409920000000857956PAGUIO, OTHELLO BAUTISTA                                 0501
A0101404420000000866440FELICIANO, MELVA PATALINGHUG                             0501
A0101405070000000868599DE JESUS, DESIREE DELA CRUZ                              0501
A0101410720000000882862CASTRO, JASMIN PABLO                                     0501
A0101401700000000890422ARENZA AUTO SUPPLY                                       0506
A1301400340000000980212OLIVETE, FELOMENA MONTANIEL                              0501
A0601400230000000990052DAYAO, MARIBEL MASIBAC                                   0501
A0301400530000001009830********                                                 0504
A0101406880000001286751DE LEON JR., RUBEN MAGLENTE                              0502
A0101412920000001313728CHEF ALBERT FOOD SERVICES                                0501
A0301400950000001379568TAOJO, MUTYA SANTIAGO                                    0502
A0101406040000001391953********                                                 0502
A0301400530000001409810LANGUIDO, RICHARD MARAVILLAS                             0501
A0101413440000001472840RAZA, CHASOME JOY CAPASITE                               0501
A0101413440000001472993RAYOS, DIVINA PERET                                      0501
A0101410720000001602153*****                                                    0501
A0101401090000001618873************                                             0501
A4101400260000001783946GUICO, LOURDES MALUTO                                    0501
A0101401960000001844475****************                                         0502
A1201400150000001863203SISON, LINDA ACLOPEN                                     0503
A0101407690000001919811******                                                   0501
A0101406750000002040204JULIANDA, DBU TILESTONE TRADING                          0501
A0201400760000002047132MARR, CHERYL ANN COMEROS                                 0501
A0501400200000002305993MANA, MARIO REMUTH                                       0501
A0301400530000002318390YAO, MARY KRIS TAN                                       0501
A0101401700041314565001LIM, CHESTER ONG                                         0501
A0101400150061372223001RAFAEL ANTONIO R. MONTILLA                               0502
A0101400440161520766131ENRIQUETA PATRIARCA                                      0501
A0101401090171399334003CATHERINE R. CORDOVA                                     0501
A3101400160221222870001ALFREDO D. LU OR MARITES A. LU                           0510
A1001400190231478374067DAGANATO, NICANORA BALOS                                 0501
A0101400570281388539038ELENA R. CATALO                                          0501
A0101402640361478374074MARIANO, LOLITA MIRANDA                                  0501
A0101402640361553692001BORILLA, RUDY BURCE                                      0502
A0201400760374625386001MIKI, MASAFUMI                                           0501
A0201400760374625964001SOLON, ENRICO MENDOZA                                    0501
A2401400180411455559001VENDIX GEN. MERCHANDISE                                  0501
A2401400180411458238001ANIMAS, JULIUS PETER CABATO                              0502
A0901400220432582218001**********                                               0501
A0101408110515519408001CAJIGAL, MICHELLE FAUSTINO                               0501
A0101403450521478374009MEGUITA Z.IGHARAS                                        0502
A0101409890649625039001**********                                               0501
A0101409890649748239001**********                                               0508
A0101404680651521675001MARY ANN L. SUSANO                                       0508
A0101410720653498583001QUIAZON, PERPETUAL JUDEA PARAN                           0501
A4101400420814520766119OMNOS, NOVA DESCARTIN                                    0502
A0101406750852182475001ANALIZA B. HIZOLE                                        0501
A0101405070861197650002********                                                 0502
A0101405070861340077001BARENG, EDNA LIGAYA M.                                   0502
A0101405070861367320001WILLIAM LIM & BERNARD BARRERA                            0506
A0101405070861463084001CATAPANG, JOCELYN LAUREL                                 0501
A0101405070861478374073ROSARIO V. PARRENO                                       0502
A0101405070861478374086MARLYN C. GABEST                                         0502
A1301400500000000213265VINCENT P. JAVIER OR                                    10505
A0101407690000000495585BAGAPORO, MARIA NELIA - DEALERS                         10502
A0101401830000001281998RIVERA, RAMIL DBU ICON RBR                              10501
A0301400530000001409643TAHADLANGIT, ROEL P. OR                                 10501
A0101401090000001618708CAYETANO C. JIMENEZ OR                                  10501
A0101407690000001919822REBANGCOS, ESTELA - DEALERS OF                          10501
A0101404680000002845981ARIES HARDWARE & CONSTRUCTION                           10502
A0101401090171432520001VICENTE M. BELTRAN                                      10502
A0301400530193760685002AGUILAR, AGUINALDO V. OR                                10501
A3101400450223352819001FARAON, RIZALINA OR                                     10502
A0501400200292629061001CARGANILLA, DOMINADOR P. OR                             10501
A0101402060351009359001JIANDANI, SURESH G. OR                                  10501
A0101405490392455172001MARIE GRACE B. BUITRE OR                                10502
A0101403320471047334001OLIVAR, MARIA CRISTINA DBU AI2                          10501
A1901400160491298907001SANTISIMA B HERNANDEZ OR                                10501
A0101407430503181551001DICKSON R. ESCOLAR OR LOURDES                           10501
A0101403580511155830002ALFREDO R. SERVINIO OR                                  10501
A0101404420631160963002ULYSSES DE JESUS OR                                     10505
A0101407690652478374123LEONORA CASTROVERDE - DEALERS                           10501
A0101410720653528817001VINCENT GONZALO SY OR TIMOTHY                           10503
A4101400260812501573003BALICHA, JAY OR                                         10503
A4101400420814727886002FLORES, NESTORIO CAPATAR OR                             10501
A0101406750852620298001EMILY COLINA OR DOMINGO                                 10501
A1301400500000000213265TERESITA F. JAVIER                                      20500
A0101407690000000495585OF SHOECAT INC.                                         20500
A0101401830000001281998GLASS AND ALUMINUM SUPPLY                               20500
A0301400530000001409643TAHADLANGIT, DIV                                        20500
A0101401090000001618708REBECCA Q. JIMENEZ                                      20500
A0101407690000001919822SHOECAT INC.                                            20500
A0101404680000002845981SUPPLY                                                  20500
A0101401090171432520001OR EDEN I. BELTRAN                                      20500
A0301400530193760685002AGUILAR, DINA C.                                        20500
A3101400450223352819001BELEN, RHODORA                                          20500
A0501400200292629061001CARGANILLA, GLAD                                        20500
A0101402060351009359001JIANDANI, KAVITA                                        20500
A0101405490392455172001MA. TERESA B. BUITRE                                    20500
A0101403320471047334001DECALS & STICKERS SHOP                                  20500
A1901400160491298907001MARIE JANE H VIN                                        20500
A0101407430503181551001OR MARY ANN ESCOLAR                                     20500
A0101403580511155830002PATRICK E. SERVINIO                                     20500
A0101404420631160963002LETICIA DE JESUS                                        20500
A0101407690652478374123OF SHOECAT INC.                                         20500
A0101410720653528817001JON SY OR JULIE                                         20500
A4101400260812501573003CABASAG JR., EMERSON                                    20500
A4101400420814727886002FLORES, MA. SOCO                                        20500
A0101406750852620298001COLINA JR                                               20500
B1301400500000000011212WIL GARMENTS                                             1601
B0101412920000000042140SPIN NINETY-ONE LAUNDRY COMPANY                          1601
B0101412920000000042151PHILWORLD SURELY & INSURANCE AGENCY                      1601
B0101406750000000090840AUTOCIRCULO CORP.                                        1610
B0101413730000000144636**********                                               1602
B0301400530000001009892GOLEZ, REDEL SATOC                                       1602
B0101401700041046197001SERVERIGHT MANPOWER SERVICES                             1601
B0101401700041046198001BRIGHTWORK MANPOWER SERVICES                             1601
B0101400150061021027002UNI-FIL TECHNICAL SERVICES CORPORAT                      1601
B0101400150061037313001LMG LAND DEVELOPMENT CORPORATION                         1602
B0101400150061046605001HONEST PEOPLE ORIENTED LIVELIHOOD M                      1601
B0101401960121349323001**********                                               1602
B0101401830141259521001JIMMY N. YANG (SONLY PRINTING PRESS)                     1601
B0101400440161027962002CASAYRA CORPORATION                                      1601
B0301400530193042539001NELSHENE MARKETING                                       1610
B0301400530193088888088TAGUM FIESTA APPLIANCE, INC.                             1606
B0101407140213040685001**********                                               1602
B1001400190231025460003SAFER RIVER LIFE SAVER FOUNDATION I                      1602
B1001400350233032957001PCCI FINANCE CORPORATION                                 1601
B2001400290315052317001NRU TRADING                                              1605
B0101402060351009391001MAJA DEVELOPMENT CORPORATION                             1605
B0101405490392030959002DIAMOND ROAD INTERNATIONAL CORPORATION                   1602
B2401400180411021162001TBB & SONS MARKETING                                     1605
B2401400180411021162002TBB & SONS MARKETING                                     1605
B2401400180411032398088ECCO HARDWARE, INC                                       1620
B2401400180411043569001PHOENIX UNIVERSAL MEGA GAS STATION                       1605
B0501400170481018109002****                                                     1603
B0101403580511005591001PUHUNAN INC.                                             1603
B0101403580511005607002RAM FOOD PRODUCTS, INC.                                  1603
B0101406880513038577001ACTIVE LAND ESTATE SALES INC.                            1605
B0101408530516033225001KONECT COMPANY                                           1601
B0101403450521011924002PANTRONICS INTERNATIONAL CORP.                           1604
B0101404000551031038001FUNHAUS BALLOONS AND PARTY NEEDS                         1601
B0101404130601669890001HODREAL HOLDINGS INC.                                    1605
B0101407720602035651001COMMAND POST MARKETING SERVICES                          1602
B0101408240711025397001KINGSMEN CORPORATION                                     1605
B4101400420814012632001UCCP - ANABU EVANGELICAL CHURCH                          1603
B0101405070861028566001AVESTA REALTY, INC.                                      1601
B0101405070861031615001MD EXPRESS MANILA, INC.                                  1610
B0101405070861047281001AVISTELE CORPORATION                                     1601
B0301400790000002880420NG, BENJAMIN & CHIAM, WILSON T & CHAO,                  11602
B0301400790000002880420PEDRO L & MAGAT,                                        21600
B0301400530193821100608**********                                               2010
B0301400950196821100608**********                                               2002
B2401400180411821100608**********                                               2010
B0101409920650821100608**********                                               2002
