F0101400570281420085001MARIA ISABELITA C. ROGADO                                2501CKO
F0101410720653038517001FRISCO FOUNDRY AND MACHINERY CO                          2540CKO
F0101408950000000036939ROQUE EYE CLINIC                                         2605CKR
F1001400190231048773001MSU-IIT NMPC COGON-CDO BR.                               2601CKR
F0101403580511034358001A.R.M. SERVICES COOPERATIVE                              2605CKR
F0101407690652029452004CA TELEMARKETING INC.                                    2610CKR
F4101400260812022293003JOMIJOH'S BAKESHOP INC.                                  2601CKO
F4101400260812033409001NEW DASMA GOLD BAKE INC.                                 2601CKO
F0101405490000001935640ZC KINGS MANPOWER AND                                   12601CK1
F0101405490000001935640JANITORIAL SERVI                                        22600CK1
