A0101400150000003876871CONCEPCION, JESSICA LEE RAMOS                            0501
A0101402350321360932001CAROLINA L. MAGSINO OR                                  10501
A0101402350321360932001JOSE A. MAGSINO                                         20500
A1201400150000011415864FELIX, FELY MADARANG                                     0501
A1201400150000014699417ALDANA, RAMON FLORENDO OR ALDAN                         10505
A1201400150000014699417A, DONNA DANE GO                                        20500
A1201400150000007556212URQUIZA, JEAN MELLEZA DBU E.CO                           0502
A1401400110000008266280MORALES, JOLITO GEQUINTO                                 0501
A0101400860000013483980******************                                       0501
A0101400860000016724259**********                                               0504
A0101400860011384021001**********                                               0505
B0101400860000001005354**********                                               1602
B0101400860011403904004**********                                               1604
A0101400860000000414122*************                                            0503
A0101401250000002131953REGINO, REGINALD H. OR                                  10501
A0101401250000002131953REGINO, JOCEL M.                                        20500
B0101401250021023559001S.B. OLIVEROS PAWNSHOP INC.                              1601
A0101400150000000052991CRUZ, RAMIL JOSEPH PADUA                                 0502
A0101400150000004090373ATIENZA II, NOE PAREJA                                   0501
B0101400150000001708670NSJS REALTY AND DEVELOPMENT CORPORA                      1601
A0101405810072235171001**********                                               0505
A0101405810072381557004MATEO, ANALYN CASTILLO                                   0501
A0601400100081025360002AMOR REFRIGERATION & AIR                                10502
A0601400100081025360002CONDITION REPAIR                                        20500
B0601400100081037004001J.A.S. PHILTRADE INC.                                    1601
B0601400100081251751009TAN, WILFREDO M. OR TAN, MARIANO G.                      1602
A0101410850109532051002PARAS, JANICE ANN LUPIBA                                 0501
A0101410560000016200063BIALA, MARLYN LOPEZ                                      0501
A0101401960000006004411***************                                          0501
A0101413150000000082620CAI HONGYU                                               0510
A0101412630000002040551MACARAEG, MARIANNE CAASI                                 0502
A0101401830000011105567***********                                              0501
A0101401830000013856669***********                                              0501
A0101412920000002358950BULANADI, PRINCESS DASHRI                                0501
A0101400440000001440000LAPASARAN, MARY GRACE FRANCISCO                          0502
B0101400440161026806001SUYEN CORPORATION                                        1601
A0101400440000000821538MARITES T. JIMENEZ                                       0501
A0101400440161478374008MARY FE I. REDONDO                                       0501
B0101407270162040845001RDJ INDUSTRIAL SUPPLY, INC.                              1601
A0101401090171199201001MARIA TERESA CASADO-RAMOS                                0503
A0101401090000005320336CUEVAS, GEORGE CHAVEZ                                    0501
A0101401090000000993353VELASCO, ZENAIDA FAINSAN                                 0501
A0301400530000015818605LIM, RALPH LOUIE SO DBU DURIAN                          10505
A0301400530000015818605MARKETING JT                                            20500
A0301400530000015420965RANOLAS, CHERYL MURCIA DBU CG A                          0502
B0301400790000006269776SARONA JR., GILBERTO A. DBU                             11602
B0301400790000006269776SDES ENTERPRISES                                        21600
B0301400950000013857213REPULLES, JUANITA DBU RKR ELECTRICAL                    11602
B0301400950000013857213SUPPLY                                                  21600
B0301400950000006054100NATIONWIDE HARDWARE COMPANY, INC.                        1605
A0101412500000017758091CHAN, GLENN UY                                           0501
B0101412500000000041670MOLDEX REALTY INC.                                       1605
A3101400160000000006464CANDELARIO, EVELYN DBU                                  10501
A3101400160000000006464RALC REALTY                                             20500
A3101400450000017762148CORTEZ, JANINE MARIE DBU NHINAY                         10501
A3101400450000017762148DIGITAL AND PRINTING SVCS                               20500
A3101400450000017581643BELEN, ROSALIE MACATANGAY                                0501
A3001400130000005446340BALANGA, MARIO FERNANDEZ                                 0501
A3001400130000002063474ANTIPASADO, ROMELITO ALISOSO OR                         10510
A3001400130000002063474ANTIPASADO, ANGE                                        20500
A3001400130000010506560CURITANA, COLEEN BARRIENTOS DBU                         10501
A3001400130000010506560BIAN'Z WHITE CLO                                        20500
A3001400130230478374004BALABA, JANETH BORJA                                     0501
B1001400190000011057968SAVELINK PHARMA AND TRADING CO.                          1605
B1001400190231010692001PHILIPPINE IRON CONSTRUCTION & MARINE                   11605
B1001400190231010692001WORKS INC.                                              21600
B1001400190231015575001GOLDEN CITY AUTO PARTS & HARDWARE,INC.                   1602
B1001400190000002170827VEPCO GROUP DISTRIBUTION CORP.                           1602
A1001400190231083396001SANCHEZ III, CARLOS RAY BONGCAS                          0501
A1001400190231332648001UBA, VINCENT CABALLERO                                   0501
A1001400190231478374086LORNA A. OMANDAM                                         0501
A1001400190000000016457ANTIGA, LUNITA                                           0501
A1001400350000003867272BERNALES, CHRISTOPHER ERA OR                            10505
A1001400350000003867272BERNALES, JESSIC                                        20500
B1001400350233038601001PARASAT CABLE TV, INC.                                   1601
B1001400350233039881018EASTMIN FOOD CHAIN CORPORATION -                        11605
B1001400350233039881018JOLLIBEE GATEWAY                                        21600
B1001400350233039882018WESTMIN FOOD CHAIN CORPORATION -                        11605
B1001400350233039882018JB PUERTO                                               21600
B1001400350233039884008SOUTHMIN FOOD CHAIN CORPORATION -                       11605
B1001400350233039884008JB SUPERCENTER                                          21600
B1001400350233041261018CENTRO SUPERSALES INC.                                   1615
A1301400470000015271480MERCINARIO I. SANTOS                                     0501
B1301400470000003270157L5 & SONS FINANCING CORP.                                1610
A1301400470252045619001GOLEM ENTERPRISES                                        0510
A1901400290000006560103DR. DAISY SANCHEZ-MOSTIERO                               0502
B1901400290261047635002SYLPAULJOYCE CORPORATION                                 1602
A1901400290261298552105AIDA NABOS REYES                                         0501
A0101401670271186305002ROBERTO OR AUDREY OR CZARINA                            10503
A0101401670271186305002JOANNE CRISOLOGO                                        20500
A0101401670271392207002LOU, PATRICIA SANDEJAS                                   0501
B0101406620000011433020ONE ARK LLC CORPORATION                                  1602
A0101406620273217518001MELINDA MAGPANTAY                                        0502
A0101411820277775683001***********                                              0502
A0101412470000005380730MANZANO, EDUARDO BARRIOS                                 0502
A0101400570000017734033ANDAYA, ANGELICA FERNANDEZ                               0501
A0101400570281518037001TAN, WINDFIELD LIM                                       0502
A1101400120000013536700DAIZ, MA. CHONA BADANOY                                  0502
A1101400120000000065103BELLO, TERESITA CASTARITAS                               0503
A1101400120000006186478BOLECHE, MERLINE BANDALA                                 0502
A6601400120000005710338CUAYZON, KRISTOFFER KINNO NUEVO                          0503
A2901400130000017760142RABANES, ABENER AMBROCIO                                 0502
A2901400130000017736531CUALES HARDWARE AND                                     10502
A2901400130000017736531CONSTRUCTION SUPPLY                                     20500
B0101402350321006984001INTEGRATED HYDRO-PNEUMATIC                              11610
B0101402350321006984001SYSTEMS INC.                                            21600
A0101402510341318724004SEGUNDINA Y. CASTRO                                      0502
A0101402060000000358463JOROMO, VERALYNN ALMARIEGO                               0501
A0101402060000009695761SANTAMARIA, ROMULO S DBU BMS LA                          0503
B0101402060351030802001PACIFIC RESINS INC.                                      1605
A0201400760374465109003**********                                               0501
B0201400890376059709001CUCINA MOBILI CEBU, INC.                                 1601
A0101402930000009324950REYES, ERIC VISTA                                        0501
A0101402930381209797001LAURA VICTORIA A.S. YUSON                                0502
A0101402930381209797002LAURA VICTORIA Y. LAYUG                                  0502
B0101402930381516506001I-ASIATIC INNOVATIONS PHILS., INC.                       1602
B0101402930381690943001LA CUMBRE LAND INC.                                      1602
A0101408370382205140001DR. PAULA  A. ALONZO OR                                 10502
A0101408370382205140001DR. DANIEL M. ALONZO                                    20500
A0101408790000004983662GENEROSO G. VILLANUEVA                                   0501
A0101405490000006241998PESIMO, NICAR A. DBU LBG CARGO                          10501
A0101405490000006241998MOVERS                                                  20500
A0101405490392405331001FELOMINA S. SEBALDA                                      0502
A0101408400394041759001BUILTLINE INTERIOR FINISHES AND                         10502
A0101408400394041759001CONSTRUCTION                                            20500
A0101408950000009451134JINON, CHERRY NIE CANIBAN                                0501
B0101409180000012558162AVEGA MANAGED CARE, INC.                                 1602
B0101409180397044045001CACHO CONSTRUCTIONS, INC.                                1602
A0101409210000007864028CRUZ, ARNOLD PINEDA                                      0501
A5501400120000009875723CABALLERO, THELMA FUNDAL                                 0501
A5501400120410622095001CORDER, JAIMELITA OR                                    10503
A5501400120410622095001CORDER, EDWIN                                           20500
A0101403030441469355001**********                                               0501
A0101412890000005913362LEONILA MENDOZA SAIGANO                                  0501
B01014128900000144370228CONCEPT TRADING CO.                                     1602
A0101412890000012474492DEANG, LORNA L. DBU LORNA'S                             10501
A0101412890000012474492MULTI-TECHNOLOGY TRADING                                20500
A0101412890000007095629CUENTO, C DBU CENTERLINE                                10501
A0101412890000007095629ARCHITECTURE                                            20500
A0101406330000016160597BAYONA, MARCO FLORALDE                                   0501
A0101406330000000011781ARLENE DELA CRUZ                                         0501
A0101406330000000683290FAJARDO, THELMA ESGUERRA                                 0501
A0101410140000001940110BARRIOS, MARISSA ACHACOSO                                0503
A0501400170481059315001ABAOAG, MAGELINE DBU M.K.A                              10502
A0501400170481059315001INSURANCE SERVIC                                        20500
A0701400260000000041005KALAW, REYNALDO ORTEGA                                   0501
A0701400260000005303713EVANGELISTA, EDUARDO ERNESTO                            10502
A0701400260000005303713ALMEDA                                                  20500
A0101407430000013868610EMPLOYEES OF SOUTHERN STAR AGEN                          0502
A0101407430000013169901SANTIAGO, NORMAN FREDERICK MEND                          0501
B0101407430000013804434PARANAQUE PREMIER HOSPITAL & MEDICA                      1605
A0101403580511341306001JUAN N. OROLA JR.                                        0502
A0101403580511376020001Johnny O. Chua OR Ma. Carmen B.                         10501
A0101403580511376020001Chua                                                    20500
B0101408530000007318034DICE205 CO.                                              1602
B0101408530516548189001METAL EXPONENTS, INC.                                    1604
B0101403450521019391001**********                                               1610
A0101403450000001769800RAMON LIM DBU RYL COMMERCIAL                             0501
A2201400250000012982486SEVERINO, MARIA FELICITAS PEREZ                          0502
A2201400250000010425479ROLDAN M. GATUS                                         10502
A2201400250000010425479OR ELIZA L. GATUS                                       20500
A0101404130601027289176BODINO, ARLENE                                           0501
B0101404130601042675002IPRUDENTIAL STEVEDORING AND PORT                        11602
B0101404130601042675002SERVICES INC                                            21600
A0101404130000002121317IBUNA, MARY JEAN ABIERA                                  0501
B0101407720602027414001GAN ADVANCED OSSEOINTEGRATION CENTER                     1610
A0101407720602378956001ROWELL, VERMEN V.                                        0505
A0101407720000009181653EDUARDO M. JAMORA AND JENNIFER                          10504
A0101407720000009181653JASMIN JAMORA                                           20500
B0101404260611020600001MAKSAVE MULTI-PURPOSE COOPERATIVE                        1610
B0101404260611028921001KICEM TRADERS AND CO. INC.                               1610
A0101404260000006374478LOCQUIAO, MARIA DIMLA OR                                10503
A0101404260000006374478LOCQUIAO, SAMSON                                        20500
A0101409890649774914001ELEFANO, ROSITA CASTRO                                   0501
A0101407690000017755707GARCIA, WILSON JAVIER                                    0501
A0101407690000017759647CRUZ, MAURICIO RUSELL CHUACHING                          0501
A0101411530000010858401VINARAO, MARIA CECILIA CAROLYN                          10501
A0101411530000010858401OR NICOLAS, CONCEPCION                                  20500
A0101413440000010659248BARONA, LEILA SOCORRO HEDRIANA                           0502
A0101413570656057648286AMELIA VILLAMOR                                          0501
A0101413990000012740766LLORCA, VIRGINIA CARLOBOS                                0504
A1301400340683478374039ABAOAG, CELIA SALVADOR                                   0501
A1301400340683584414001CRUZ, ARISTEO RUBIO                                      0501
A1301400500000009723213VILLACORTA, MARWIN MALDICINO                            10504
A1301400500000009723213DBU WESLEYKURT TRANSPORT                                20500
B0101408240711039263001STALWART REALTY, INC.                                    1620
A2801400230000011504424BAYSA, GERALDINE URBANO                                  0501
B2801400230000005253641COST OF MONEY LENDING CORPORATION                        1605
A4101400260000017753410ARCILLA, CAROLYNNE FORTUNO                               0501
A4101400260000017753541MALABANAN, RASSEL GERARDO                                0501
A4101400260000017753603REYES, JOHN KIRBY CLEMENTE                               0501
A4101400260000017753654TAN, CHRISSY HELVETICA AUSEJO                            0501
A4101400260812494463001EMILY V. CARPIO                                          0503
A4101400420000017758193BENIGA, DINERITA DBU ALDENS                             10501
A4101400420000017758193BALLOONS AND PARTYNEEDS                                 20500
A4101400550000000315182MARGAJA, FELICITA BITOR                                  0502
B4101400550815040996002MARICHE APARTELLE, INC                                   1601
A4101400550815046007001DIGIBOX PRINTING SERVICES                                0501
A0101412340000007305564ELNA O. GALAROZA                                         0501
A0101412340850091247001ROSTRATA, DANILO DELA CRUZ                               0502
A0101404840851520766073ELIZABETH A. SUAZO                                       0501
A0601400230000001687090GUTIERREZ, JOSEPH MONTES                                10502
A0601400230000001687090OR GUTIERREZ, MARLENE                                   20500
