B0101407430503821100608**********                                               2010
B0101408820333821100608**********                                               2002
A1001400350233478374006IBANEZ, ELSA                                             0501
B1001400350233038050002CAGAYAN DRAGON FIVE TRUCKING, INC.                       1601
B1001400350233041261018CENTRO SUPERSALES INC.                                   1610
A1001400350233478374001JUNIO, ROGELIA A.                                        0501
A1601400170000000421138ALITA ANNE H. GOINGO                                     0502
B4101400260812047082001SERENITA INC.                                            1601
A4101400550000006044457PENA, MARJORIE HIPOLITO                                  0501
A4101400550000003267127NAVEA, A DBU VELJO ENTERPRISES                           0501
A0101400860011391589003**************                                           0503
A0101400860011425148001**********                                               0502
B0101400860011486476001**********                                               1603
A0101400150000003164183MARIE PAZ B. DIZON                                       0501
A0101400150000007135931BARIL, JUSTINE JOSEPH MARTINEZ                           0501
A0101400150000007135971ASIS, SHERYL SANTOS                                      0501
B0101400150061005123003ARK TRAVEL EXPRESS, INC.                                 1610
A0101400150061226120003JUAN RAMON C. GARCIA                                     0505
A0101400150061337098169MA. GISELLE A. LICERALDE                                 0503
A0101400150061564610103CHUA, ANTONIO S.                                         0501
B0101400600071538520001*********                                                1603
A0101410850000000005789AUSTRIA, MA. DOLORES RODRIGUEZ                           0501
B0101413150000000082773**********                                               1601
A0101412630000002040493MONTOYA, LOLITA ALEJANDRO                                0501
A0101412630000004062086BANZUELA, ELEANOR ADORNA                                 0502
B0101412630132058436001SPACE EDSA CORPORATION                                   1601
B0101401830141036385001P.I. HARDWARE & MILL SUPPLY, INC.                        1601
A0101401830141306069001CORTES, GENARA MOLINA                                    0505
A0101400440161093935001DUPAYA, NELIA ARELLANO                                   0501
A0101400440161520766080ROLANDO E. IGMEN                                         0503
B0101401090171013988007RD PAWNSHOP, INCORPORATED                                1605
A0301400530000000025403FONG, ANTHONY JAMES L.                                   0501
A0301400530000001009818SALUTILLO, ALLAN O.                                      0503
A0301400530000002318429RUFON, NELIA DIANITO                                     0501
A0301400530000006239443MATIONG, MESANI MEEKLOS ALAVA                            0502
A0301400530193037521168NEN ELECTRICAL &                                        10505
A0301400530193037521168CONSTRUCTION SUP                                        20500
A0301400530193043858168******                                                   0510
B0301400660000003361931YNIGO & YVANNA CONSOLIDATED CORP.                        1602
A0301400790000003969495DONAIRE, RITCHELLE JOY AL-AG                            10501
A0301400790000003969495OR DONAIRE, JIM LABASBAS                                20500
A0101401380201436370001MONSALE, MENLY ABENOJA                                   0502
B3101400160221301690002HERMINIA  MAMON OR JESUS RAMON MAMON OR                 11602
B3101400160221301690002PATRICIO MAMON                                          21600
A3101400160221386295002ROBERT J. BANATIN                                        0501
A3101400160000004362812SARINO, HELDITO BATISTIL                                 0502
B0101406460000000020931GREATWALL MANPOWER & GENERAL                            11602
B0101406460000000020931SERVICES INC.                                           21600
A0101406460272232218001MARIANO, NORMITA T.                                      0501
B0101411820277821100608**********                                               2002
A0501400200000004456957COBARDO, LEVI DAGSAAN                                    0501
A0501400200000002306092VICENTE, MARK CYRILL PAGUYO                              0501
A0501400200000002306138FERNANDEZ, RENE PACIS                                    0501
A2601400270000000561733ARCEL A. CAPUCHINO OR                                   10501
A2601400270000000561733MA BIATA A. CAPUCHINO                                   20500
B0801400160000001289932RD PAWNSHOP, INC. - ILOILO NORTH                         1603
A2001400290315087033001ROLIDA, JASON UY                                        10502
A2001400290315087033001OR ONG, WILMER R                                        20500
B0101402350000000655492RD PAWNSHOP, INCORPORATED                                1603
A0101402350321185131001PAGTALUNAN, MARIA FE M.                                  0501
A0101402350321478374013ROSALINA M. MARAVILLA                                    0501
A0101402350321542967001ABUNDIENTE, JONATHAN GUMBA                               0501
A0101402060000002259878ANIMAS, MARC THEUS PADUA                                 0501
B0101402060351009365002GREEN VALLEY TOWNHOUSE OWNERS                           11601
B0101402060351009365002ASSOCIATION INC.                                        21600
A0101402060351316025001MAUN, PABLO CANLAS OR                                   10505
A0101402060351316025001MAUN, CYNTHIA                                           20500
A0101402060351331171001MICHAEL SARINGAN                                         0502
A0201401020377046499001TEH, MARIA ELENA BLANCO DBU                             10503
A0201401020377046499001E.T. PRINTSHOPPE                                        20500
B0201401020000005109882T & F MARINE FABRICATION SERVICES C                      1602
A0101402930381337834001CHESHIRE J. QUE OR                                      10502
A0101402930381337834001ROSEMARIE J. QUE                                        20500
A0101408790000005169115JUAN R. SUMPAYCO MOVERS                                  0503
A0101411660000001145788TUMPALAN, SOCRATES DBU FIRST                            10502
A0101411660000001145788SUN MARKETING                                           20500
B0101402770391040214001REMMS RESOURCES, INC.                                    1601
A0101402770000001841094BLANQUISCO, JEFFREY TUAZON DBU                          10505
A0101402770000001841094JT BLANQUISCO TRADING                                   20500
A0101402770391211617001ANGELES C. TRINIDAD                                      0501
B0101405490000003905173KANITY PRINTING INC.                                     1602
B0101405490392518855001ISABELLE ROYAL HOTEL & SUITES INC.                       1603
A0101408400000002273241MAXIAN, JORDAN DELFIN                                    0505
A0101408400394030081001XPRINT CO.                                               0505
A0101408400000000403847BALOLOY, RODELIA MORALES                                 0505
A0101409180397696150001MARINO, SALVY OR MARINO, HECTOR                         10501
A0101409180397696150001OR NAVOA, NANETT                                        20500
A2401400180000003949082DOMINGO, MICHAEL AFRICA                                  0501
B2401400180000003949220BRIGADA ROCK GARDEN RESORT, INC.                         1610
A2401400180411478374069JUBAN, MARIVIC BABA                                      0501
A2401400180411623548001ASIS, CITA DELIA CABADING                                0506
B0101403320471035758001***                                                      1603
A0101403320471570181001EMMA R. LIM                                              0503
A0101410140000000499190DOMINGUEZ, ANNA                                          0501
B1401400110492027100002SACRED HEART COLLEGE                                     1601
A1401400110492029549002TRIPTORS DIAGNOSTIC CENTRE                               0504
A1401400110492033583001DWVM-FM RADIO STATION                                    0502
B1601400170000000497092SUNWEST CONSTRUCTION AND DEVELOPMENT                    11601
B1601400170000000497092CORPORATION                                             21600
A0101407430503044461001GMC CARGO SERVICES                                       0501
A0101403580000004683030MANALO, MICHAEL VINCENT SAULOG                           0501
A0101403580000000016082SWEET BELLA DESSERTS                                     0508
B0101403580511030319001FRANKLIN BAKER COMPANY OF THE                           11601
B0101403580511030319001PHILIPPINES, INC                                        21600
A0101403580511152491001FERMIN ANTONIO S. FRANCISCO OR                          10504
A0101403580511152491001MA. CARMELA M. FRANCISCO                                20500
A0101403580511488405002GAYA, MARLON CASTILLO                                    0501
A0101403580511576080001ANNA LIZA R ABRENICA OR                                 10503
A0101403580511576080001ROGER E. ABRENICA                                       20500
A0101406880000001286653BAUTISTA, GIAN CARLO BANGCO                              0501
A0101408110000000380090SANTIAGO, EMMALYN BONIFACIO                              0501
A0101408530516571877109GIAN CHRISTINE BILLOSO                                   0502
A0101411790000007141517BARUT, IRISH JANE TALAMAYAN                              0501
A0101403450521238060001*********                                                0501
B0101404000000002799764QUIMSON, JUAN PAOLO ERNESTO & GUTIERREZ,                11601
B0101404000000002799764ALEXANDRA                                               21600
B0101404000551005014001CONGLOMERATE PLANNERS REALTY                            11603
B0101404000551005014001CORP.                                                   21600
A0101404000551150194001NILO G. SAMIA                                            0510
A0101410690000003027625BENJAMIN C PILOTIN JR OR                                10504
A0101410690000003027625MARIA HOSANNA A PILOTIN                                 20500
A0101404130601467193001SHINETTE R. TACDA OR GRAHAM                             10501
A0101404130601467193001BELL G. TACDA                                           20500
A0101407720602161917001GOYLOS, LORENA CALVO                                     0501
A0101407720602355070002SHERYLL MAGALIT-CORNEJO OR                              10502
A0101407720602355070002CARLO CORNEJO                                           20500
A0101407720602573510001LIMSON, MARC ANTHONY MANUEL OR                          10501
A0101407720602573510001CRISTI-LIMSON, MARGARET                                 20500
A0101407720602664929001VITAL, ARIES ZOILON                                      0502
A0101407720602752994001CASTRO, CARLA VICTORIA ESPINA                            0503
A0101409890000006812779TIAMLEE, ALEXANDER TAN OR TIAML                         10505
A0101409890000006812779EE, VICTORIA OR                                         20500
A0101409890000006812780TIAMLEE, ALEXANDER TAN OR TIAML                         10505
A0101409890000006812780EE, VICTORIA OR                                         20500
B0101409890000006812677REPUBLIC SUCAT POWDERCOAT CORPORATI                      1605
A0101409890649747345003SORIANO, DONNA MARCELA                                  10501
A0101409890649747345003DELOS REYES                                             20500
A0101407690000005198012APIGO, PATRICK BALMEO                                    0502
A0101407690000002348712BALUYOT, AILEEN DOLLENTE                                 0502
A0101407690652034806001BROWNFLY COMMERCIAL                                      0504
A0101407690000000914016******                                                   0502
A0101407690652368362001GALLENTES, JENNIFER DONES                                0501
A0101407690652478374179LENIE ANDO - DEALERS OF                                 10502
A0101407690652478374179SHOECAT INC                                             20500
A0101407690652520766005GILNNA M. MALIGAT - DEALERS OF                          10501
A0101407690652520766005SHOECAT INC.                                            20500
A0101407690000002348821BOLANTE, FROILAN PANGAN                                  0501
A0101413440000001472588DE LA FUENTE, WINONAH TATEL                              0502
B0101413440000002691592ZABAT, KHELVIN MIRANDA AND                              11602
B0101413440000002691592ZABAT, MICHELLE                                         21600
A0101413990657061436001BIRR GLASS, ALUMINUM AND UPVC                           10501
A0101413990657061436001TRADING                                                 20500
B0101406590662043202002CHEF'S SECRET ENTERPRISE                                 1601
A1301400340000000100352DE ERE, MARY ANN BULARAN                                 0502
A1301400340000005264751**********                                               0505
A2801400100712507001001*****                                                    0503
A4101400260812035893001SGI TRADING                                              0501
A4101400390000000500552CASALME, VIOLA FAY BENITEZ                               0501
A4101400550000004846904FERNANDEZ, HONIE VENUS ALMENDRA                          0502
A4101400550815047552003DR. GASPAR MONTENEGRO                                    0501
A4101400550815047619001HIMOC, RUBY ESTOR                                        0501
A4101400550000000081605MAXILOM, SWEETHEART FILNIL PERA                          0501
A0101412340000002900290MARINA F. ASUGAS                                         0501
A0101404840851428321001GUTIERREZ, OLIVER OR ROGELIO                             0501
A0601400230000003638857DIZON, ELIZABETH OLARTE                                  0501
A0601400230000003015830BERSALES, DAVISON MANLAPAZ                               0502
A0601400230000005185924GAJE, AGNES DBU JCG AIRCONDITIO                          0502
