F2201400250561028327001*****                                                    2502CKO
F0201400760374032867003J.I. PRINTERS, INC.                                      2602CKR
F0101408400394034368007W HYDROCOLLOIDS, INC.                                    2604CKR
F0101409500000000217109ASPEN CONSTRUCTION &                                    12604CKR
F0101409500000000217109DEVELOPMENT CORP                                        22600CKR
F0101407720602021008002WAYFAIR TOURS, INC.                                      2602CKR
F0101404680651297826002LIM,YOLANDA OR CABIGON, MELISSA                         12605CKR
F0101404680651297826002OR LANGCAY, SHIE                                        22600CKR
F0101406750852479415001JOSE P. BANTILING OR ELENITA P.                         12503CKO
F0101406750852479415001BANTILING                                               22500CKO
