A0101409210000002279018AGONCILLO, CONSUELO FLORES                               0502
A0101406460272589602001***********                                              0510
A0101401250000000020424BALIAO, JOVITA LINGGON                                   0505
B0101402930381046346001CONNECTICOM GLOBAL NETWORK INC.                          1605
A4101400550815042023002AUTOWELL TRADING                                         0503
A1001400190231478374012FARINAS, EVA MAE CENTO                                   0502
A0101408370382391284001MA FELICIA CORAZON E. LACANILAO                          0501
A0101408370382728807001MA. KATHRINA THERESE BUNDALIAN                           0501
B0101409210398055893001PHILMOVERS HAULING AND LOGISTICS INC.                    1602
A5501400120000001121800LADARAN JR., JOSE BINOLA                                10501
A5501400120000001121800OR LADARAN, LANI                                        20500
A0101410690000000061834IQBAL, BERNADETTE G.                                     0502
A0101413990000000206033MARITES R. CONANAN                                       0502
A4101400550000002344167MACATUNO, BENJAMIN GUEVARRA                              0501
B0101412340000002879987HUNG, CARMINA S. DBU ECHO FUEL STATION                   1602
A0101400860011089290001**********                                               0501
A0101400860011487850002**********                                               0502
A0101400860011683703001**********                                               0502
A0101400860011746708001**********                                               0503
B0101400860011821100608**********                                               2002
A0101401250000000020424BALIAO, JOVITA LINGGON                                   0505
B0101411370000000018124AIO FINANCE GROUP INC.                                   1601
A0101400150000003163077MARYLAND BETHESDA D. CLEMENTE                            0501
A0101400150061227746001ROSA MARIA G. TUMANGDAY                                  0501
A0101400150061229814002LEONCIO C. LIM                                           0501
B0101400150061535864001ISLAND AGRI FRESH FRUITS INC.                            1601
B0601400100081026547002ANGELES FRIED CHICKEN, INC.                              1605
B0601400100081035921001MOTHER'S CAKE HOUSE AND RESTO, INC.                      1605
A0601400100081251806002MUNOZ JR., ANACLETO JUICO                                0502
B0601400520000000398512PAGASA PHILIPPINES LENDING COMPANY, INC.                 1606
A0101410850000000778736GAPUZ, JAMES RAMOS                                       0501
B0101413310000001928856PRIME INTERNATIONAL CONTACT LENS                        11601
B0101413310000001928856INTERNATIONAL                                           21600
A0101401830141058130001ARCANO, MARY ANN  RIVERA                                10501
A0101401830141058130001DBU ICJR PHARMACY                                       20500
A5001400170000002288300SEE DIET, SUSANA OR CORA OR                             10502
A5001400170000002288300SANCHEZ, NARCISA OR VASQ                                20500
A0101400440000000596630MARY ANN A. OYARDO                                       0501
A0101400440161506695001RONALDO A. BORJA                                         0501
B0101407270162031640001RVG SPARROW HOLDINGS INC.                                1605
B0101407270162039491001UMALAG FARMS, INC.                                       1602
B0101407270000000830540QUANTUS BUSINESS SERVICES, INC.                          1610
A0101407270162163292001ANICETO P. GO                                           10502
A0101407270162163292001OR MILDRED GO                                           20500
B0101401090171034513001HAWK SECURITY SERVICE INC.                               1602
A0101401090171057892001PFG MART                                                 0501
A0101401090171196097001HERNANDO OR LEONCIA OLONAN OR                           10502
A0101401090171196097001BIANCA NIKKOLA OLONAN                                   20500
A0301400530000003088151TE, CAROLYN LLAMIDO                                      0502
A0301400530000001409752URSUA, PRINCESS F.                                       0501
A0301400660194734141001ALCEBAR, JONATHAN PANTINOPLE                             0504
B0101412500000000041669ACETECH, INC.                                            1605
A3101400160221081200001YOSHINO, MITSUKUNI                                       0502
A3101400160221478374030ANALYN A. RICO                                           0501
B3101400450223022719001GENCARS SAN PABLO, INC.                                  1610
A3101400450223028468001NEW ARMSTRONG SECURITY AGENCY                            0502
B2101400190229821100608**********                                               2010
A1001400190231034434001HNH BUILDERS AND ENTERPRISES                             0501
A1001400190231039064001SUSAN LO OR DENNIS LO                                    0505
A1001400190231040264001WESTBOUND PETRON                                        10502
A1001400190231040264001SERVICE STATION                                         20500
A1001400190231478374041MARIVIC D. MARFORI                                       0501
A1001400190231520766061IRYNE S. SAGUMHAY                                        0502
A1001400350233042653001BLUE ENERGY RESOURCES                                    0502
A1001400350000000017165MEN DBU A&L MARKETING SOLUTIONS                          0501
A0101401670271188831002REGINALDO C. LIM                                         0501
B0101401670271486391001EXCELLENT GOLFING PARTNERS                              11602
B0101401670271486391001CORPORATION                                             21600
A0101406460000000021730PADILLA, HELEN GRACE TORTOLES                            0501
A0101406460272722876003ALLAN V. LAVARRO                                         0502
A0101406620273400631001DINDO P. SANCHEZ OR                                     10502
A0101406620273400631001EMILY H. SANCHEZ                                        20500
A2601400270000000019532ENRICO ARTURO A. GUINTO OR                              10505
A2601400270000000019532CARLO ESTEBAN A. GUINTO                                 20500
B2601400270000000084382ONG JR,PEDRO DBU CELCIUS MDSING AND AUTO                11605
B2601400270000000084382PARTS SUPPLY                                            21600
A0801400160000000476299*********                                                0503
A0801400160311478374093AMELIA H. TAYCO                                          0501
A1101400120000003826573ESCOLLANTE, MARK PAUL DULA                               0501
B1101400120000000652868TACLOBAN ACME HARDWARE CO., INC.                         1605
A6601400120314041602001LEXTAN GENERAL MERCHANDISE                               0502
B6601400120314047332001ST. ANTHONY FARM INSTITUTE OF                           11601
B6601400120314047332001TECHNOLOGY INC.                                         21600
A6601400120314612973001CABILI, MANUEL MELFORD OR                               10501
A6601400120314612973001MANUEL OR TERESI                                        20500
A6601400120000000060493ABELA, LEONITA MIJARES                                   0501
A2001400290000000924572MARTY, CRESLYNN MARIE CERINO                             0501
A2001400290000004905373EMMANUEL, JORGE AGUSTIN OROZCO                           0501
B2001400290315635862088**********                                               1601
A0101405650322760686001BUHAIN, MARIA CONCEPCION                                10502
A0101405650322760686001BANDIBAS                                                20500
B0101402060351009459001CHATEAU VERDE CONDOMINIUM CORPORATION                    1603
A0101402060351331171001MICHAEL SARINGAN                                         0502
B0201400760374249471001COMMONWEALTH INSURANCE COMPANY                           1604
A0101402930381337834001CHESHIRE J. QUE OR                                      10501
A0101402930381337834001ROSEMARIE J. QUE                                        20500
A0101408790000000210948LLAGUNO, ROBERT ANDREW MONTANEZ                          0502
A0101408790000000931048PISON, MARCUS AURELIO ABELARDO                          10501
A0101408790000000931048OR PISON, MARIA                                         20500
A0101402770391013439001JIREH'S CAR PAINT SHOP                                   0502
A0101402770391353811001GARY P. HERNANDEZ OR                                    10503
A0101402770391353811001EZEL S. HERNANDE                                        20500
A0101405490392446228001BARTOLOME S. DELA CRUZ                                   0503
A0101405490392499176001ANICIA B. MORALES                                        0501
B0101405490392575171001ANIMED LABORATORIES, INC.                                1602
A0101409210398047601001LAMONTE, E DBU YOB AND ERIN                             10501
A0101409210398047601001GLASS ENTERPRISE                                        20500
A5501400120000002018980BJ'S LECHON HOUSE                                        0505
B2401400180411032860001GIO DENTAL DEPOT CO., INC.                               1601
A0901400220000001805129**********                                               0502
A0101403030441239184001DARWIN NG                                                0501
A0101403030441241050001**********                                               0503
A0101403030441380539001**********                                               0502
B0101412890000001765313ALUCAST INTERNATIONAL REALTY DEV. INC.                   1601
A3801400170000004957673AMELIA L RAMOS                                           0501
A0101403580511152927002ANTONIO O. MACEDA JR. OR                                10502
A0101403580511152927002PERLA C. MACEDA                                         20500
A0101403580511514126001CRISOSTOMO S. BAS JR., OR                               10501
A0101403580511514126001LYNNE BAS                                               20500
A0101405940000001534269**********                                               0501
B0101406880513005366001SDS EXPRESS INTERNATIONAL INC.                           1602
A0101406880513666065001VILLARMINO, JOSELITO VILLANUEVA                          0504
B0101408530516033397001SPRINGER INTERNATIONAL, INC.                             1605
A0101408530516741704001FILIO, MARIA LEONORA FLORENDO                            0501
A0101411400000003750598DR. TWINKY D. BELINO                                     0502
A0101411790000002276086LOZANO, CARLITO CULASI                                   0501
B0101403450521011646001**********                                               1602
A0101403450521240619001**********                                               0501
A0101403610531219568002OLIVAREZ, RAUL IMZON                                     0501
A0101403610531444284001DUENAS, RENDER MACASPAC                                 10501
A0101403610531444284001OR DUENAS, RYAN                                         20500
A0101403610531569350001VISAYA, CHRISTOPHER LOSEO                                0502
A2201400250000002337982DURIMAN, ERLINDA BALINGIT                                0501
B2201400250561016484001BARON FARMS CORPORATION                                  1601
A2201400250561299317001MIRASOL M. SAN SEBASTIAN OR                             10502
A2201400250561299317001ALLAN M. SAN SEBASTIAN                                  20500
A0101404130000001831790MATIAS, JO AVERY LUCAS                                   0501
A0101404130000000485530CATUGAS, KENNETH FRANCISCO                               0501
B0101407720000000885703MAKATI MEDICAL CENTER-MEDICAL STAFF                     11602
B0101407720000000885703ASSOCIATION INC.                                        21600
A0101407720602364355001PALANCA-CHEN, MARCELLE QUIRINO                           0510
A0101407720602664929001VITAL, ARIES ZOILON                                      0501
A0101412180000004955477CORRALES, TRINIDAD RAMOS                                 0501
A0101412180000004955513DIONISIO, LENNIE TIU                                     0501
A0101412180000004955579EBRADA, JENNIFER AGANON                                  0501
A0101412180000004955648SALAZAR, MARISSA TACORDA                                 0501
A0101412180000004956492DIONISIO JR., DANIEL TIU                                 0501
B0101404260611028921001KICEM TRADERS AND CO. INC.                               1610
A0101406590662349414001HELEN P. MAYO                                            0502
A1301400340683501399001ESPINOSA, JOSELYN DULU                                   0502
B1301400500000004093087ME-ANN'S EGG DEALER                                      1603
A1301400500684611748001CANOZA, MARY JANE C. OR                                 10502
A1301400500684611748001CANOZA, MARK WILLIAM                                    20500
A0101408240000001038620DE OCAMPO III, PACIFICO                                 10502
A0101408240000001038620LAGDAMEO JT                                             20500
A2801400100000002253458DATU, FERDINAND BULAONG                                  0501
B4101400260000001198905WELLCARE CLINICS AND LAB., INC.                          1601
A4101400260812469303001GUIA, LEAH SCHOFIELD OR                                 10501
A4101400260812469303001GUIA, SAMUEL IBABAO                                     20500
B4101400260812821100608**********                                               2005
A4101400550000001622515RIVERA, ROSE MARIE SOLOSA                                0502
A4101400550000002344178RAMOS, JOVITA ROQUE                                      0502
A0101412340000004360649AIFRED SELWYN P. ROGACION                                0501
A0101404840000000475952GONZALES, ROWENA POLLICAR                                0501
B0101404840000001312270FIRST KINGSTON LEISURE AND SERVICES                     11602
B0101404840000001312270CORPORATION                                             21600
A0101404840851520766008ERLINDA G. MATOCINOS                                     0505
A0101404840851520766167MARILOU RICANA                                           0502
A0101404840851520766167MARILOU RICANA                                           0502
B0101405070861565051001BLAUGRANA CORPORATION                                    1602
A0101413860000001233812BRIGALA, JORDAN DELA CRUZ                                0501
A0101413860000001233823UMLAS, JOSE ENABORE JT                                   0502
