F3201400190000001492855RECEL JR., ESTEBAN REYNON                                2505CKO
F0101400570281226117001ARCATOMY OR ANGELES GUARIN                               2501CKO
F0801400290591395533002TEE, MILA YU OR TEE, BENNY UY                            2505CKO
F1301400470000000009612PARPAD BUILDERS                                          2605CK1
F0101402640000000032704ASDEC BUILDERS CORPORATION                               2602CK1
F0101400570281042886001PRIMEX COCO PRODUCTS, INC.                               2603CKR
F0101402060351009369002POLYMER PRODUCTS PHILS., INC.                            2610CKR
F0301400240401030277088FIRST VITA PLUS MARKETING CORPORATION                    2610CKO
F0901400190431038091001PEASE CORPORATION                                        2601CKR
F0101406880513430685001BEVERLY HILLS MEDICAL GROUP, INC.                        2610CKO
F4101400390813029130001MODELCOUP INTERNATIONAL INC.                             2602CKO
F0101405070861008464002MB PHILIPPINES, INC.                                     2603CKR
