A5501400120000000003152MENOR, EDWIN DEMEGILLO                                   0501
A0101405810000000016582SHI, LIANQIANG SHI                                       0501
A0101405940000000061754REGINO, MARIA LALAINE LIAMZON                            0501
A0101413440000000183771AMBAS, ARVEE CALLOS                                      0501
A2801400100000000188210DURAN, NOEMI VIZMANOS                                    0501
A0101409050000000258326CECILLE C. NEPOMUCENO                                    0501
A0101402060000000445492BATE, ALICIA CEDRO                                       0501
A0101405650000000525853IMELDA B. VILLALON                                       0501
A0301400950000000566672LIM, BENJAMIN OLANO                                      0502
A0101411790000000576012SARTE, JOSE ANTONIO OLAGUER                              0501
A0101410850000000844673**********                                               0502
A0101408400000000960430DITUCALAN, JAMILA FAISAL                                 0502
A4101400390000000975173NOAH'S ARK MANPOWER SERVICES                             0505
A0601400360000000978710B. LEGG                                                  0501
A0101405940000001047392ANGUSTIA S BARRIENTOS                                    0505
A0501400170000001072720ESPINO, PETER BALOLONG                                   0501
A0101406330000001235001VERTEX SECURITY AGENCY                                   0502
A0101406330000001235272VHANZ HARDWARE                                           0501
A3001400130000001261192ZORILLA, MARIE ROSE GONZAGA                              0501
A3001400130000001271352MONTECLARO, JOSEPHINE VILLAROSA                          0501
A0101400860000001348669**********                                               0501
A0101400860000001348670**********                                               0501
A6601400120000001370809SALVADOR, ZALDY GARABEL                                  0501
A0101408790000001486233***                                                      0502
A0101408530000001886031DANTE A. CASIMIRO                                        0501
A0101413310000001928958PELINGO, JOEL SOLLORANO                                  0501
A0101410140000001939762MEMBERS OF NATASHA (SHOECAT INC                          0502
A0101413570000002249492**********                                               0502
A0101412050000002314443DAYRIT, WILLIAM BRIOL                                    0501
A0101412890000002324243********                                                 0502
A0101401700000002337004**********                                               0502
A0101409210000002802666CAI, XIAOCHUN                                            0502
A0101400150000003157902LAURA ARMAS BAUI                                         0501
A0101400150000003157913JOSE MARIA ELIAS VINETA                                  0501
A0101400150000003157920LAWRENCE JAMES KEATING                                   0501
A0101400150000003157931JOHNNY ANGEL D. MENDOZA                                  0501
A0101400150000003157942CRIS DAVID MIRADOR                                       0501
A0101400150000003157953DINO JAMES OURADNIK                                      0501
A0101400150000003157964LAWRENCE DANIEL RENNA                                    0501
A0101400150000003157975GRADY SAMUEL WHITE                                       0501
A0101400150000003157986JACOB MAX WOHLMAN                                        0501
A0101410850000003194089DIATE, JENTRIX MARK TALLEDO                              0501
A0101400860011493326001**********                                               0505
A0101400860011495810002**********                                               0501
A0101400860011519905001TEODORA E. SENO                                          0502
A0101400860011533026001**********                                               0502
A0101400860011542443001**********                                               0505
A0101400860011557059001**********                                               0502
A0101401700041189061001RIZAL SMILEY TAN OR YA YUN TAN                           0503
A0101401700041190452002******                                                   0510
A0101400600071234714001**********                                               0505
A0101400600071496801002******                                                   0501
A0101400600071507394001*****                                                    0501
A0101400600071672958001*********                                                0501
A0101405810072313421002**********                                               0501
A0101405810072374800001**********                                               0503
A0101405810072478374022***************                                          0501
A0601400100081294390002YUNUN, JOSEFINA CUNANAN                                  0501
A0101400730111478374120LUIS G. PUNO                                             0502
A0101400730111643287002GUETA, LORETA ORSAL                                      0502
A0101400730111718087001PASAGUE, LALAINE TRINANES                                0501
A0101406040112278057001MA. TERESA B. CHAN                                       0501
A0101401960121378813001**********                                               0501
A0101400440161525001112JELLIE ANN D. LOMAHAN                                    0501
A0101407270162671346001RIZA P. SAGUM                                            0501
A0101401090171196024001GUTIERREZ, RUTH VILLANUEVA                               0502
A0101401090171201013001EDELBERTO C. BUNQUIN                                     0501
A0101407140213190961001**********                                               0510
A3001400130230687070138CERVANTES, SONIA BANAWA                                  0501
A3001400130230767566031MALBAS JR., GABRIEL CABRERA                              0501
A1301400470252692589001RONALYN C. MONDALA                                       0503
A0101406620273368498001FONTANILLA, ERLINDA BACANI                               0501
A0501400200292592613001IMPELIDO, RACHELLE MAGLINTE                              0501
A1101400120313478374094AGAPITO, ROSA P.                                         0501
A1101400120313478374101ROBINO, ESTRELLA O.                                      0501
A0101405650322345025001GASGONIA, DONNA ZAPA                                     0501
A0101402510341625399001GELERA, TITO SOLIS                                       0502
A0101402060351036454001TRITECH TRADING                                          0501
A0101402060351038780001A.L. AQUINO ENTERPRISES                                  0503
A0101402060351479109001ALMADEN, ROSALINDA CLACIO                                0501
A0101402770391481697001LUTHER REYES BONDOC                                      0501
A0101408400394420934001SANTIBANEZ, EUGENIA SANTIAGO                             0503
A0101408400394478374094NUNEZ, GENIE                                             0501
A2401400180411478374035MERLINDA D. TAMUDTAMUD                                   0501
A2401400180411492586001SOMOBAY, LEILA BERGAVERA     JT                          0501
A0901400220432368117001**********                                               0502
A0101405940512366890001RAFAEL R CASTILLO                                        0501
A0101408530516571877055JIXY JOAN D. GATCHALIAN                                  0502
A0101403450521329789001GO, YIAKSO TAN                                           0502
A0101403610531220657002SOUZA, TERESITA YAMBAO                                   0503
A0101404000551538964001CABALLERO, FLORES JASMIN ENCINA                          0501
A0101404130601254302001LORENZO, BETINA BERNARDINO                               0501
A0101407720602006037001MA. LORNA S. BANGAYAN                                    0501
A0101404420631509040001JUDY OBISPO TUAZON                                       0505
A0101407560686223955001***********                                              0502
A0101407560686478374061WILMA SABALBORO                                          0501
A0101408240711376338002GOYENA, PACITA CASAS                                     0502
A2801400100712380695001NOMER A. TALIBONG                                        0502
A4101400420814335947001VILLAR, PERLA RODRIGUEZ                                  0501
A4101400420814520766113DE DIOS, NORMA R.                                        0501
A0101405070861380698001REYES SR., RENATO SISCAR                                 0501
A0101405070861478374066ELMER LADRES APAS                                        0501
A0101405070861478374067TIRSO M. ARROJO JR.                                      0502
A0101405070861478374086MARLYN C. GABEST                                         0502
A3101400160000000006599RISSEL GENERAL MERCHANDISE                              10501
A0101411240000000629390MEDALLADA, ANNALIZA DBU M3A                             10501
A0101409920000001539500TAMAYO NARISSA                                          10505
A0101409180000002252568SON, DAVID SANTOS OR SON, NELIA                         10501
A0101413280000002648337MITCHELLE ZARAH HORTALEZA OR                            10501
A0601400100081254011001PANLILIO, MARIE CARMEN OR                               10501
A0101400730111201344001LUI, CHI WAI OR LUI, ADELE                              10502
A0101401090171369758001MARY VIVIEN MADELO OR ANASTACIA                         10503
A0101400570281376809001FLORENCIO CORONEL AND LEONCIA                           10502
A6601400120314415183001UY, CHRISTIAN EMMANUEL OR                               10501
A0101402640361168560001RICARDO OR CARMELITA                                    10504
A1901400160491403244001OFELIA T LANDICHO OR                                    10502
A0101403610531707487001GARCIA, FRANCES CERDENA OR                              10501
A0101405070861037846001GOODNESS & MERCY MOVERS                                 10503
A0601400230891253086001ENGR. EMER C. FELICIANO OR                              10501
A3101400160000000006599MARISSA G ESTENOR                                       20500
A0101411240000000629390GASOLINE STATION                                        20500
A0101409920000001539500DBU SZAMANTA ENT                                        20500
A0101409180000002252568 AGUINALDO                                              20500
A0101413280000002648337MARY ROSE HORTALEZA                                     20500
A0601400100081254011001PANLILIO, AUGUST                                        20500
A0101400730111201344001SALIGUMBA                                               20500
A0101401090171369758001RICO OR RICHARD FRANCIA                                 20500
A0101400570281376809001CORONEL                                                 20500
A6601400120314415183001UY, FLORIANE                                            20500
A0101402640361168560001DELOS SANTOS                                            20500
A1901400160491403244001ROMMEL Y LANDICHO                                       20500
A0101403610531707487001CARRASCO, EUNICE JANE                                   20500
A0101405070861037846001SERVICES                                                20500
A0601400230891253086001EDITA B. FELICIA                                        20500
B0101404840000000004155JOY PLANET INC.                                          1602
B0501400170000000018317DAGUPAN DOCTORS VILLAFLOR MEMORIAL                       1601
B0101405070000000028880CLUB YOKO BAR AND RESTAURANT INC.                        1602
B0101405070000000028891TAKUMI RESTAURANT CORPORATION                            1602
B0101405070000000028908STAR LADY RESTAURANT AND CLUB INC.                       1602
B0101405070000000028920KANIL RESTAURANT AND BAR INC.                            1601
B3001400130000000067218LIGHT ME UP CORPORATION                                  1602
B1401400110000000167457SUPER MAK FOOD CORPORATION                               1610
B0301400660000000195282*****                                                    1605
B1101400120000000653058ACTRAN TELECOM SOLUTIONS INC.                            1602
B0601400360000000978834JSJ CONST. INC.                                          1602
B0201400920000001331800BARON, ROBINSON KYAMKO                                   1602
B0101400860011394544002**********                                               1602
B0101400150061027839001ROSCOR                                                   1602
B0101400150061034179001CHEMOIL ENERGY PHILIPPINES, INC.                         1601
B0101405810072034021001ACCUFORM FABRICATION INC.                                1601
B0101407270162037605002MAINE CITY PROPERTY HOLDING CORP.                        1605
B0101402060351018528001SAN SEBASTIAN ALLIED SERVICES, INC.                      1602
B0101408790383015892001CAPITOL STEEL CORPORATION                                1603
B0101408790383048137001FLEXCOMM INNOVATIONS INC.                                1603
B0101411660384046304001ELITE GLOBAL SOURCING PHIL. INC.                         1602
B5501400120410041534001NOTRE DAME OF NEW ILOILO, INC.                           1602
B0901400220432043554001GERRY'S GRILL                                            1602
B0101403320471027104001ZENITH FOOTWEAR, INC.                                    1605
B0501400170481038907001JODERON AUTO SUPPLY                                      1605
B0101406880513021335010ACTIVE REALTY AND DEVELOPMENT CORP                       1610
B0101403610531046549001BIG APPLE PLASTIC PACKAGING INC.                         1603
B0101404840851041585003TOM'S WORLD PHILIPPINES CORPORATION                      1602
B0101404840851490100001ACTIVE-CONCISE TECH. INC.                                1602
B0101406750852033894088AVELICON MARKETING CORPORATION                           1602
B0101405070861008149004TABAQUERIA DE FILIPINAS INC.                             1602
B0101405070000000028919GRAND YOKO BAR AND RESTAURANT                           11601
B0101403320471008879002GOLDWIN MANUFACTURING                                   11610
B0101406750852763309001SUNSYSTEM TRADING AND DEVELOPMENT                       11602
B0101405070000000028919INCORPORATED                                            21600
B0101403320471008879002LABORATORIES                                            21600
B0101406750852763309001CORPORATION                                             21600
