F0101406620273019596002TGV BUILDERS, INC.                                       2603CKR
F0101408400000000077850PORTUGUESE REALTY INC.                                   2603CKR
F0101408400394400522001FERNANDEZ, CECILIA MELITA OR                            12501CKO
F0101408400394400522001FERNANDEZ, ROMEO                                        22500CKO
F0101408400000000077861W LANDMARK, INC.                                         2603CKR
F1901400160491043709016CYNTHIA C CRESENCIA                                      2501CKO
F0101406880513430685001BEVERLY HILLS MEDICAL GROUP, INC.                        2610CKO
F0101407720602170297001MACASAET JR., ROBERTO MONTINOLA                          2502CKO
F0101408240711029699001POWER AD & PROMO VENTURE, INC.                           2601CKO
F4101400260000000469330DEPANO, ABEL GONZALES                                    2503CKO
