B1001400350233821100608**********                                               2005
B0101408400394821100608**********                                               2003
B0101408400394821100608**********                                               2003
A0101410560000001944123VIZCARRA, LYDIA DIAZ                                     0502
B0101408660000001940609TAN BON DIONG, MARIANO DBU PLEASANT                     11602
B0101408660000001940609SPRING ENTERPRIS                                        21600
B0101405490000003905151ASIA PRIME REALTY NETWORK, INC.                          1602
B1901400160491821100608**********                                               2005
B0101400860000000030279**********                                               1602
A0101400860011058615001**********                                               0501
A0101400860011236211001**********                                               0501
A0101400860011390709002**********                                               0505
A0101400860011397647001**********                                               0502
A0101400860011425961001**********                                               0501
A0101400860011498256002**********                                               0502
A0101400860011529457001**********                                               0505
A0101400860011549648001**********                                               0505
A0101400860011575074001**********                                               0502
A0101400860011626823001**********                                               0503
A0101400860011707584001**********                                               0505
A0101400150000000808133MARTINEZ JR., MARIANO DELFIN                             0501
B0101400150061016942006ASIA PACIFIC EXPRESS CORPORATION                         1605
B0101400150061018828001DOME CAFE FRANCHISE CORP.                                1610
A0101400150061073880002**********                                               0501
A0101400150061338964112ROSENDA BERTULDO                                         0502
A0101400150061453761048NANCY M. BARANDA                                         0501
A0101400150061490875001LLEDO, RUMAR JOSEPH AGLIAM                               0502
B0601400100000000142203UNIFIED RAINBOW FRIENDS ORGANIZATIO                      1601
A0601400100081356145001LACSON JR., RANEL CONRADO TUANO                          0502
B0601400360083505804002BGC PHILBUILDER INC.                                     1604
B0601400360083821100608**********                                               2003
A0601400520000001120385BANAG, ESMERALDO PINEDA                                  0501
B0601400520000000986741SANCHEZ MANUCUM & CO. CERTIFIED PUBLIC                  11605
B0601400520000000986741ACCOUNTANTS                                             21600
A0101413730000002229701*************                                            0501
B0101400730111008255001MASAGANA TELAMART, INC.                                  1605
B0101400730111023283001INTRALAND RESOURCES & DEV'T. CORP.                       1605
A0101400730000001822862ALVENDIA, AMADOR PAHATI                                  0502
A0101401830141205402002ZABALA JR., ARMANDO V. OR                               10502
A0101401830141205402002ZABALA, CRISTINA C.                                     20500
B0101400440161007542001PACE REALTY INVESTMENT INCORPORATE                       1601
A0101400440161039572046MELVIN D. VILLACO                                        0501
A0101400440161525001164NERYLROSE B. VINLUAN                                     0501
A0101407270162386004001PAULINO M. SERVADO JR. OR                               10501
A0101407270162386004001VIOLETA C. SERVADO                                      20500
A0101407270162502895001CRISTY C. SAMONTE                                        0504
A0101401090171199148001MA. RHODA C. RECTO                                       0501
A0301400530000000066113RUDELA, JIVIR S. OR                                     10502
A0301400530000000066113RUDELA, ANALYN C                                        20500
B0301400660000000022835DURABOARD PACKAGING CORP.                                1601
A3101400160000001792190MIRAFLOR M CARINGAL                                      0501
A3101400160221767573001VICTORIA M DEL ROSARIO                                   0501
A3001400130000001271363PALUCA, LIZA MORAL                                       0503
A3001400130230045294001TABASA, RICKY CARPIANO                                   0502
A3001400130230478374023CHAVIT, SHEKINAH MAE CANETE                              0501
A1001400190231478374179BACAN, JULIET                                            0501
A1001400190231520766087MONTE, LEONORA BATERNA                                   0501
A1001400190231520766119CABANO, BERNADITH CATIWALAAN                             0501
A1001400480000002659783REFUGIO, SOFRONIO RETUTAS                                0501
A1001400480000000041545SADIE, GILDA DIAZ DBU RGIE                              10503
A1001400480000000041545TRADING OR SADIE, RICKY S                               20500
B0101401670271477778001VIRTUSIO PR INTERNATIONAL, INC.                          1601
A0101406620000001686940TOBIAS, ADRIAN LUIS MA CHENG                             0501
A0101406620000005186905ACOB, REYNANTE C                                         0501
A0101406620000005186949ILAGAN, PATRICIA ANN S                                   0501
A0101406620000005186972SANTIAGO, MELVIN D.R.                                    0501
B0101406620000000193942SOURCEFIT PHILIPPINES INC.                               1601
A0101406620273458914001**********                                               0501
A0101411240000001563388BERMEJO, GERALD PANLAQUI                                 0501
A0501400200292728475001GALLEGO, ALLYN GARCIA                                    0501
B2601400270302039764001MOTORAM MOTOR PARTS                                      1602
A2601400270000000561448NICK MARKETING                                           0501
A2601400270302591563001ROSITA R. CHE                                            0501
A2001400290000000724510JUCOM, RODORA TUALE                                     10501
A2001400290000000724510OR JUCOM, JHUFEL                                        20500
A2001400290000000924692BESARIO, SHEILA LYNN CATACUTAN                           0501
A0101405650000005190307ALCANTARA, JERRY SANIANO                                 0501
A0101402510341480465001ABREU, MARVIN MAXIMO                                     0501
A0101402060351009359002JIANDANI, SURESH G. &/OR                                10501
A0101402060351009359002JIANDANI, KAVITA                                        20500
A0201400760374478374015DACAYANA, ROSALIE SIBLA                                  0501
A0101408790000000210891TINAMBACAN, JOSELYN AMANTE                               0501
A0101408790000000599891DE GUZMAN, MA GUIA SALINAS                               0501
A0101411660000003580192COSTELO, EVANGELINE PADILLA                              0501
A0101402770391752292001JUANITA OR TOMAS OR BENJAMIN                            10501
A0101402770391752292001VICTORIA                                                20500
A0101408400000003515108LESABA, MARIBEL SEVA                                     0501
A0101408400394639219001ROMERO, FRANCISCO GABION                                 0501
A0101412210000000977404MEIMBAN, NAPOLEON BRIAN OR                              10501
A0101412210000000977404MEIMBAN, CAMILLE                                        20500
B0101412210000000031461PINTXOS & TAPAS INC.                                     1610
A0101412210399094817004ARNILO C. MILAOR                                         0501
A0101412210000001236340GERARDO IGNACIO B. ONGKINGCO                             0502
B0301400820000002106109POWER ASSET SERVICES CREDIT CORP.                        1603
A2401400180411478374059ANALITA R. SUICO                                         0501
A2401400180411478374065CELIA D. NAVAREZ                                         0501
A2401400180411606598001ESCONDE, MERLINDA MIOMIO                                 0501
A0901400220000000425136ROSOS, LORAINE WAYCO                                     0501
A0101412760000002067552VILORIA, REMEDIOS O. OR                                 10501
A0101412760000002067552VILORIA, EDUARDO C.                                     20500
A0501400170481253455001NORMELITO QUIMO OR IRENE QUIMO                           0502
A0501400170481777043001QUINTO III, ALFREDO ARZADON                              0501
A1401400110000001549271CAMPOS, EDITHA NAVARRO                                   0502
B1401400110492046339001SOUTHERN QUEZON PACIFIC OIL MILL                        11605
B1401400110492046339001CORPORATION                                             21600
B1401400110492365609001JEORGE S MALIGAT - PILIPINO HARDWARE AND                11601
B1401400110492365609001CONST. SUPPLY                                           21600
B0101405940512005329001TRIANON INTERNATIONAL, INC.                              1610
A0101405940512026524001DAVENNIEL PROMATS MARKETING                              0503
A0101406880513084681001LUNA, LESLIE ANNE HIRANG                                 0502
B0101408530516036529001HALDANE INVESTMENTS NV                                   1620
A0101408530516488690001**********                                               0502
A0101408530000000035925CASTRILLO, MILISA CAOIBES                                0501
A0101411790518090917001DELA CRUZ, RODERICK SANTOS                               0501
B0101412050000000890940********                                                 1602
A0101403450000001769986**********                                               0502
B0101403450000000135613AGILE GLOBAL FORWARDING, INC.                            1601
A0101404000000003706089MICHELLE M BAGNES                                        0501
A0101404000000003707500JOAN R SANDIG                                            0501
A0101404000000004802146GARY G GONZALES                                          0501
A2201400250561258530021WILSON S. TOLENTINO                                      0501
B2201400250561291930001JOSUE SENGCO &/OR DIGNA REMOLANA &/OR                   11601
B2201400250561291930001DILIDAN PASION                                          21600
A0101404130601452661001KING, ARCHIMEDES OR KING, WYDEN                          0502
B0101407720000000885758PACIFIC ISLANDS INT'L. DEV'T. CORPO                      1601
A0101407720602692869001NIELSEN, KAREN LUCERO                                    0502
A0101412180000002340632DETERA, TERENCIO CAGUIA                                  0501
A0101412180000000037932*******                                                  0502
A0101409890649044793001**********                                               0501
A0101410300000000191939CARBALLO, LUIS ANTONIO S. OR                            10505
A0101410300000000191939SALAZAR, EMMANUEL B.                                    20500
A1301400210000002909226BUENAVENTURA, EFREN DELA CRUZ                            0503
A1301400210682245308001ERNESTO REYES JR.                                        0505
A1301400500000000213210RBN ENGINEERING & DEVELOPMENT                            0502
A1301400500000002063992JOSHUA & JAMES CONSTRUCTION                              0503
B0101408240000000832586TREE TRUNK DEVELOPMENT CORPORATION                       1605
B2801400230000000372729KRJ TRADING                                              1601
A2801400230000001734732TAN, S DBU CITY REJUVENATING                            10502
A2801400230000001734732SPA JT                                                  20500
B2801400230000001580296DEL ROS AMUSEMENT ENTERPRISES, INC.                      1602
A4101400260000001198701SOBREMONTE, BERNADDETTE GOMEZ                            0501
B4101400260812024721001DORMBUILT, INC.                                          1603
A4101400260000000469329FALCUTILA, MARISSA RAMOS                                 0502
A4101400390000000500461TANEGA, NENET DAGDAG                                     0501
A4101400390813046750001MARQUEZ, MELANIE DBU LEIYHZ                             10501
A4101400390813046750001TRADING                                                 20500
A4101400390000001732736CLAVERIA III, DON VIVENCIO G                             0501
A4101400420000002084631MANICIO, MARIA ARMI ORTEGA                               0501
A4101400420814520766136VALLEJO, ELVIE                                           0501
A0101412340000003349791JOHN CHRISTIAN N. YUMUL                                  0501
A0101404840000004565862CLOTILDE P. ARROYO                                       0501
B0101404840000000090242SOUTHHILL MEDICAL SPECIALISTS, INC.                      1620
A0101404840851478374002VIOLETA Z. PANZO                                         0501
B0101404840851490100001ACTIVE-CONCISE TECH. INC.                                1603
A0101404840851511965001CARIG, SHERWIN ESPIRITU                                  0501
A0101404840851520766092VIOLETA G BERMAS                                         0503
A0101404840851583111002BRIONES, RAMY BATAN                                      0501
A0101406750000002040168*************************                                0501
A0101406750852236873002SISORA OLGAH ELUMIR                                      0501
B0101405070861023470001ASIANA KITCHEN EQUIPMENT                                11602
B0101405070861023470001SPECIALIST                                              21600
A0101405070000000447530JOCELYN M. VILLEGAS                                      0501
A0101405070861776321001RANARA, MATILDE ALIVIO                                   0502
A0101413860000000859047ALEJANDRE, MARIA TERESA MAGNAYE                          0501
A0101413860000000858960BALASAN, JORGE HILVANO                                   0501
