B0101406330472821100608**********                                               2010
B1901400160491821100608**********                                               2005
A0101408790000010684898TRINIDAD, JEFFERSON NATIVIDAD                            0501
A1101400120000008001403RAFALES, MARIAN DAIL                                     0505
B0301400530000015763274LACOR CORPORATION                                        1601
A1101400120000001547473LIM, DOROTHY DELL S. OR                                 10503
A1101400120000001547473LIM, RICHARD Y.                                         20500
A1101400120313717829001UY, WILSON S. OR                                        10510
A1101400120313717829001UY, CHIQUI RUTH                                         20500
A0101415350000007878042RAMOS, MARK ALCALA                                       0502
A0101406590662027563001FORSOME TRADING                                          0501
A0101406590662044117001D VISAGE INTERNATIONAL                                  10503
A0101406590662044117001CORPORATION                                             20500
A3001400130000009103593PINEDA, NOEL DBU NU KIN                                  0504
A3001400130230094974001BRAVO, ROSEPT EBARLE OR BRAVO,                          10504
A3001400130230094974001ALEXA ROSE EBARL                                        20500
A1901400160491246087001NIDA F UY                                                0501
A0101400860000003571691**********                                               0502
A0101400860011389116001**********                                               0502
A0101401250021095237001TAN, MANUEL COMPLETO                                     0502
A0101400150061226167001GASPAR R. ANDRES JR.                                     0501
A0101400150000008307191CONSOLACION TIONGSON,TERESA STE                         10501
A0101400150000008307191PHENSON OR PATRICK IGNACI                               20500
B0601400100000007185299DELA ROSA, MARGARITA CORONEL                             1601
A0601400100000013256918AREVALO JR., ORESTES CARSON                              0502
A0601400100081251939002ELIZARDO OR WILMA MARTINEZ                               0503
A0601400100081257414001SYMONS, WILLIAM BRIAN                                    0502
B0101410850000014429991GLOBAL ORIENT BATANGAS TRADING CORP                      1604
A0101410560000000590614CHAVEZ, JONALIE RAIPAN                                   0501
A0101400730111386485079GLYN G. HORTALEZA                                        0502
A0101413310000005433216CABRERA III, STANLEY GALEX VILL                          0502
B0101401830141259521001JIMMY N. YANG                                           11601
B0101401830141259521001SONLY PRINTING P                                        21600
A7201400170000011454287OBAOB, MARIE FE MARAASIN                                 0501
A0101407270000015610169SISON, JEROME ARTHUR ILAGAN OR                          10501
A0101407270000015610169SISON, CIARA MARIE D.                                   20500
B0101407270000012664789PRIMO FORTEM CONSTRUIR CORP.                             1606
B0101401090171202895003LANZONA, ISAIAS A. AND BERGANTIN, MARIA                 11601
B0101401090171202895003RHONA G.                                                21600
B0301400660000012086812PHILIPPINE MAGNESITE EXPORT DEV'T.                       1602
A0301400790000005692026********                                                 0505
A0301400950000002115515***********                                              0502
A0101401380201619697002CIPCON, FERDINAND INABANGAN                              0501
A0101410720000004626380**********                                               0501
A0101412500000009229318MARY JANE TIO OR                                        10502
A0101412500000009229318ERNESTO TIO                                             20500
A0101412500000015888007PALMA, GERALD ESGUERRA                                   0501
A3001400130000010813497OSIN, CHRISTIAN ALCASID                                  0501
A1001400480000000474953FERNANDEZ, JOFFREY MAHINAY                               0502
A1001400480000015880381CLAM, JEROME VICENTE                                     0501
B1301400470000003270135EPS HAULING COMPANY INC.                                 1601
A1901400290000002337679TOLENTINO, ALLAN OR                                     10501
A1901400290000002337679TOLENTINO, CELESTE                                      20500
B1901400290261490775003LYNAR REALTY & DEVELOPMENT CORP.                         1601
A0101401670000011364526LOPEZ, MARIE CELINE HERAS                                0502
A0101401670000013222201ROSALES, LALAINE ANN REYES                               0501
A0101401670000000016184******                                                   0501
B0101406620273012462001COL FINANCIAL GROUP, INC.                                1620
B0101406620273047822001ROCKHAUS REALTY AND DEVELOPMENT INC.                     1601
A0101406620273236978001CALLEJA, HOWARD MACEDA                                   0503
B0101406620273313299003**********                                               1605
A0101406620000004926052DE GUZMAN, ROSARIO OR DE GUZMAN                         10501
A0101406620000004926052CARLA OR DE GUZMAN MA. C                                20500
A0101410980000015371441PANCITO, HAZEL R                                        10502
A0101410980000015371441PANCITO, CENON III C                                    20500
B0101411110000003202017********                                                 1602
A0101400570000000749673MICHAEL B. SANTOS                                        0502
A0101400570281186530001CARLOS AGUILA OR                                        10502
A0101400570281186530001MERCEDES AGUILA                                         20500
A0101400570281551839001DIVINA CRISTY D. REDONDO                                 0502
B2601400270302045063001ISABELA UNITED DOCTORS MEDICAL                          11620
B2601400270302045063001CENTER, INC.                                            21600
A1101400120000001920667CAMENFORTE, NEIL M. OR                                  10502
A1101400120000001920667CAMENFORTE, ELKE                                        20500
A1101400120000003022413DUCENTES, GLORIA TROCINO                                 0501
B1101400120000000653190BOSJAN MAIN MARKETING CORP.                              1605
A1101400120000003022373BANTULA, EVELISA FALLE                                   0501
A2901400130000009072106PANIQUE, MYLENE BAUTISTA DBU JI                          0502
B0101402350321031463001STATE ENTERPRISE                                         1606
A0101402350000005645172GARCIA, ELFLEDA MENDOZA                                  0501
A0101405650000000080093PULGA, JASMIN BAUTISTA                                   0501
A0101405650000012457448ZAIDE, MICHELLE BERMUDO                                  0502
A0101405650322642348001********                                                 0501
B0101402510341027740001ENTER INTERNATIONAL PHILIPPINES, INC.                    1603
A0101402060351211815001BORROMEO, RONALD ABABON                                  0501
A0101409050000008491009SI, MARK JEFFERSON ANG                                   0501
A0101409050000007511862SADIE, DIANA LIM                                         0502
A0201400760000001107599GO, JESS GREGORI DBU GO FIX DIG                          0505
A0201400760374478374015DACAYANA, ROSALIE SIBLA                                  0501
A0201400890000011310982CONTAPAY, RHYS CYRELL TUAN                               0502
A0101402930000014435920DUMPIT, TOMAS MEANA                                      0502
B0101402930381014599001HEALTH SOLUTIONS CORPORATION                             1602
B0101402930381015075001KEYSTONE SOLUTIONS, INC.                                 1601
B0101402930000003269254JK COLLECTION & RECOVERY INC.                            1603
A0101408370000002264068MYCAH S. CABALONA OR ANGELO                             10502
A0101408370000002264068ROMAN E. CABALONA                                       20500
A0101408790000005169217DE VERA JR., DENNIS OLESCO                               0501
A0101411660000005324032DE JESUS, VIDA ZAPANTA                                   0501
B0101415350000011253459BOUNTY FRESH FOOD INC.                                   1605
A0101402770391022532001VIREX ENTERPRISES                                        0501
A0101402770391214110001ROLANDO N. FRANCISCO                                     0501
A0101402770391478374044DAISY C. CRUZ                                            0501
A0101408400000011077604MEDINA, GERARD LAXA                                      0501
A0101408400394028638001A. SANCHEZ CARGO SERVICES                                0503
A0101408400394047545001JOHNMAYSUZANNE FASHION                                  10510
A0101408400394047545001COLLECTION                                              20500
A0101408950000008995271CARBON-CUENCA, FONTINI CHRISTI                           0501
A0101408950000012748448VALDEZ, MA. CRISTINA MACROHON                            0502
A0101409180000009769260AMAD, APRIL JOY MADRINAN                                 0501
A0101409210000005251952LEMOS, MARIA ELENA PEREZ                                 0502
A0101409210000006604931BUISER, FLORI ANN MARASIGAN                              0502
A0101409210000011201991GARCIA, ANN MADELENE ASPURIA                             0501
A0101412210399094817013ROLANDO R. CRUZ                                          0502
B5501400120000005492399DSSD FAMILY REALTY DEVELOPMENT CORP                      1615
B0101403030000000531406**********                                               1603
B0101403030441241050001**********                                               1602
A0101406330472478374007FROILAN DISCAYA                                          0502
A0501400170481256317001JOVES, NORMA ESTRADA                                     0501
B1401400110000000034693LUCENA CITY PHARMA CORPORATION                           1601
A0101405940000007213761MA. LUCIA NOBLEZA                                        0501
A0101411790000011046250DIZON, MARY ELIZABETH                                    0504
A0101403450521238076005**********                                               0505
A0101403450521397310001**********                                               0502
A2201400250000015672703YALUNG, JOSEPH PAUL DIZON OR                            10501
A2201400250000015672703YALUNG, JOSE TALAVERA                                   20500
A2201400250000004405025*******                                                  0501
A0101407720000000112147STO. DOMINGO, MARINETTE TUASON                           0502
A0101407720602421097002JOSEPH A. CORDERO, M.D.                                  0502
A0101407720602464099001GOMEZ, MARIE RHIAMAR SAULER                              0501
A0101407720602485188001BASBAS, CRISTIE APURADO                                  0501
A0101409920000000022099DELA VEGA, ANTONIO S. OR                                10501
A0101409920000000022099DELA VEGA, IMELD                                        20500
A0101407690000015895815CHANG, MICHAEL LESLIE CARRANCHO                          0501
A0101411530000010702648PANGILINAN, MANUEL ESPIRITU                              0501
A0101413440000010659248BARONA, LEILA SOCORRO HEDRIANA                           0503
A0101406590662297269001MARTINEZ, ARMAN M. OR MARTINEZ,                         10501
A0101406590662297269001MARIA THERESE G.                                        20500
A1301400340000013761047DE LEON, JOYCE CABACUNGAN                                0502
A4101400260000010623560SABANDO, MELANIE T. DBU VAUGHN                          10508
A4101400260000010623560KYRIE ENTERPRISE                                        20500
B4101400390000008744925DELA CRUZ, ALYSSA LOUISE LUNA DBU ALLC                  11602
B4101400390000008744925ONE STOP SHOP                                           21600
B4101400420000000712047GAMICON PROPERTIES AND CONSTRUCTION                     11601
B4101400420000000712047DEVELOPMENT INC                                         21600
A4101400420814418225001LOPEZ, ROSALINA OR                                      10502
A4101400420814418225001LOPEZ JR., RODRI                                        20500
A4101400420814520766107CADAVEDO, ELENITA P.                                     0501
A4101400420000006643423CUEVAS, JESSA RACHO                                      0501
A0101406750852184616001EUGENE T. MANGUBAT                                       0501
A0101405070861393536001VICENTE SANUCO                                          10502
A0101405070861393536001GIGIBETH SANTIAGO                                       20500
A0101405070861393536001VICENTE SANUCO                                          10501
A0101405070861393536001GIGIBETH SANTIAGO                                       20500
A0101405070000015207980MANUEL, EMMA MELCHOR                                     0501
A0101405070000015800638TRINIDAD, KENNETH ANTHONY BARRI                          0502
A0601400230000001062504**********                                               0501
A0601400230000001687118**********                                               0503
B0601400230891028118001D.M. AUTO SUPPLY                                         1605
