B0101408240711821100608**********                                               2010
B0101407140213821100608**********                                               2005
B0101408370382821100608**********                                               2010
B0101403030441821100608**********                                               2005
B0401400270242821200608**********                                               2005
A0101408370382207662001DR. CELSO F. BATE OR                                    10501
A0101408370382207662001MRS. SOPHIA S. BATE                                     20500
A0101408370382431185001ARNOLD T. SALUD M.D.                                     0502
A0101413570656057648022INAH BALAIS                                              0501
A4101400420000002084631MANICIO, MARIA ARMI ORTEGA                               0501
B4101400420814044710001RDJ CAR PARTS CENTER                                     1601
B0101405810072821100608**********                                               2010
B0101405810072821200608**********                                               2005
B0301400950000002115862********                                                 1602
B3401400280000000002320MALLARE, B DBU B&E COMPUTER SALES &                     11601
B3401400280000000002320SERVICES                                                21600
B0101403030441821200608**********                                               2003
B0101409470632821100608**********                                               2001
B0101409470632821200608**********                                               2001
B1301400500684821100608**********                                               2002
B0101408240711821200608**********                                               2001
A0101400860011444169001**********                                               0505
B0101400860011821100608**********                                               2002
B0101400860011821200608**********                                               2001
A0101400150000005947271BARRIENTOS, BARRY SAMANIEGO                              0501
A0101400150000005947328BUAN, REYMON MARIO ONG                                   0501
B0101400150061016942006ASIA PACIFIC EXPRESS CORPORATION                         1605
B0101400150061023257001**********                                               1602
A0101400150061229806001**********                                               0501
A0101400150061564610128VICENTE N. BORJAL JR.,                                   0501
A0101400150061663651001********                                                 0502
B0101405810072034989001TRANSWELL ENGINEERING CO.                                1601
A0101405810072357909001SUMALPONG, ELENO DE TOMAS                                0501
A0101405810072444240001*************                                            0505
A0101405810072580083001********                                                 0501
A0101413730000000469205******************                                       0502
B0101413730000000144636**********                                               1602
A0101400730000000112687CANDAZA, JENNALYN CALVEZ                                 0501
A0101412630000004598132BOLANOS, ELLEN JAVIER                                    0501
B0101400440000005393717RD PAWNSHOP, INCORPORATED                                1603
A0101400440161039572026LEONARDO P. DELA CRUZ JR.                                0502
A0101400440161520766193LEILANIE P. LOCSIN                                       0501
B0101407270162008343001SPECIALIZED TRADE & MARKETING, INC                       1601
B0101407270162019023001PHILIPPINE BATTERIES,                                   11610
B0101407270162019023001INCORPORATED                                            21600
B0101407270162036459001ULTRATECH PRINTING CORP.                                 1608
B0101407270000000010151TIHIK.COM CORPORATION                                    1605
B0101407270000004558367SANTIAGO, DAREEN DEL MONTE DBU CNDS                      1601
A0101407270162235506001GO, GEORGE OR GO, SHIRLEY OR GO                         10501
A0101407270162235506001, STEPHANIE OR GO, GENEVI                               20500
A0101407270000001596945CELESTE C. NAPIGKIT                                      0501
A0101401090171195426001JEROME ARCANGEL OR                                      10503
A0101401090171195426001MA. CORAZON ARCANGEL                                    20500
A0101401090171196095001ALBERTO WONCHAI OR                                      10502
A0101401090171196095001MILAGROS W. LIM                                         20500
A0101401090171200080003JOSELITO B. ZULUETA                                      0501
B0101407140213821200608**********                                               2005
A3101400160000000006413MARGERY A LLANES OR                                     10501
A3101400160000000006413MARCO SAMUEL M A                                        20500
A3101400160221221575002FARNENIO M. MAGTULIS, JR.                                0501
A3101400160221478374027ERNESTINA S. VILLANUEVA                                  0501
A3101400450000001149291BALDOVINO, ISABEL VALDOPENA                              0501
A3101400450223028468001NEW ARMSTRONG SECURITY AGENCY                            0501
A3001400130000001271363PALUCA, LIZA MORAL                                       0501
A3001400130230796275001DELA VICTORIA, PROSPERO PLAZA                            0501
A1001400190231274559001SY, MAN CHAK                                             0501
B1001400480000003357891AYA VENTURES CORP DBU ASONHUAT AGRO INDU                11601
B1001400480000003357891STRIAL GROWER                                           21600
A1301400470252486767001LUZVIMINDA T. PABLO                                      0501
A0101406620000000193782CASTILLO, CARMENCITA REYES                               0501
B0101406620273041414001GANO I-TOUCH PHILIPPINES INCORPORATED                    1605
A0101406620273236978001CALLEJA, HOWARD MACEDA                                   0503
A0101406620273359512001ANALISA M. CABALLAR JT                                   0502
A0101406620273359512002CABALLAR, ANALISA MANCENIDO                              0502
A0101410980275076628001TAN, GIAN CARLO UY                                       0502
A0101411110000002320121FERNANDO, CARLOS TOLENTINO OR                           10501
A0101411110000002320121ENCARNACION JR, ROSENDO C                               20500
B0101411110000001037096TECHNOVORE SYSTEMS INC.                                  1601
A0101400570281192945001MINDA D. BUENVIAJE                                       0502
B0101402350000000655481IM MEDIA.PH INC.                                         1602
B0101402060351041911001NEWMAN MARKETING                                         1601
A0201400890376667775001BUYSER, MISAN CANAS OR BUYSER,                          10501
A0201400890376667775001IAN CHRISTOPHER                                         20500
A0201401020000000056073GERIBISE, DBU SALON NI                                  10501
A0201401020000000056073CHRISTIAN FOR ME                                        20500
A0101402930381381181001BERNARD FAH OR                                          10502
A0101402930381381181001MARIA CAROLINA F                                        20500
A0101402930381478374004ANALIN ARTIOLA                                           0501
A0101408790000005954083CULLADO, MA. CORALYN SAGRADO                             0501
B0101408790000002659090BON APPETEA FRANCHISING COMPANY INC                      1601
A0101408790000002031470CHATEAU BEATRICE LODGING                                10501
A0101408790000002031470SERVICES                                                20500
A0101415350000005028831DE CHAVEZ, M DBU MERDEC ENTERPR                          0502
B0101402770391009575001EASTERN RIZAL (JALAJALA) RURAL BANK, INC                 1603
A0101405490000000444546******                                                   0501
B0101405490392006541001GLOBALTECH AUTOMATION, INC.                              1603
A0101405490392170537002LORNA V. TUGADE                                          0501
A0101405490000000444313BENITO M. LOJO                                           0503
A0101408400000005958690SUACO, MA. LILIAN SALONGA                                0501
A0101408400394431981001FRANCISCO, MYLEEN TUAZON                                 0501
A0101408950396331268001AREVALO, ALEJANDRO ESQUIERES                             0501
B0101408950396561784001GLOBAL ANESTHESIA SPECIALISTS AT THE                    11610
B0101408950396561784001FORT, INC.                                              21600
B5501400120410042322003TRUMPH MOTORCYCLE CORPORATION                            1601
B5501400120000000046842TACURONG FIT MART, INC.                                  1630
A1201400150421013348001ARGEM FINANCE INC.                                       0510
A1201400150000000473541DACANAY, E DBU ERLINDA I.                               10503
A1201400150000000473541DACANAY RICE COM                                        20500
A1201400150421152351001JISON, THERESE                                           0501
B0101412890000001765335REYES, R DBU RICAR-CELESTINE MARKET                      1601
A0101403320000001646766EROSA TRADING                                            0501
A0101412760000002067596LAGUARDIA, JASON VALLEJO DBU JV                         10502
A0101412760000002067596& L HOMEWORKS DESIGN                                    20500
B1901400320489821100608**********                                               2002
B1901400320489821200608**********                                               2001
A1901400160491494343001RAINIER C UNTALAN OR                                    10505
A1901400160491494343001RELYN M UNTALAN                                         20500
A1601400170000001360667BLAS C. ARADO                                            0501
A0701400260000003259410NUNEZ, MARIAN ABIGAIL ALCASID                            0501
A0101407430503291798002LEA D. JOVER OR                                         10501
A0101407430503291798002JAIME EDUARDO K. JOVER                                  20500
A0101407430503338970009CAROLINE J. DELA ROSA                                    0501
A0101411400000001280251CASTRO, ROBERT LOUIS CALAYAG                             0502
B0101411400000000230231**********                                               1601
A0101411400517381317168*******                                                  0501
A0101404000000003705991MARIA CLARA LUISA B ANGELES                              0501
A2201400250000000433510GENDRALA, R DBU GROW STRONG GEN                          0501
B2201400250561258273001*****                                                    1605
A0101407720602165575005DR. MA. VICTORIA G. BELO                                 0505
A0101407720602383118002FLORENTINO, ALVIN COSIO                                  0501
A0101407720602402493001**********                                               0501
A0101404260000000532283UNI STOP DRUG & GENERAL                                 10501
A0101404260000000532283MERCHANDISE                                             20500
A0101404260611043982001J.G BALDEO RTW & BAGS STORE                              0501
A0101407690652478374084EUFEMIA BALASE - DEALERS OF                             10501
A0101407690652478374084SHOECAT INC                                             20500
A0101413570000002906692****************                                         0501
B0101413990657059774001PVV TRADING CORP.                                        1601
A0101413990000000631872MONREAL, ESTELITA GUINTO                                 0501
A1301400340683361153001LICAROS JR, ALEJANDRO LAGPAO OR                         10502
A1301400340683361153001LICAROS, ELSA R.                                        20500
B1301400340683821100608**********                                               2002
B1301400340683821200608**********                                               2001
A1301400500000004093281PAJARILLAGA, MAGDALENA CUNANAN                           0503
A1301400500000000011274*************                                            0504
B1301400500684821200608**********                                               2002
B0101408240711024878001INFO-ED MARKETING CORP.                                  1601
B0101408240711059660001ST. JAMES THE GREAT PARISH                               1605
A0101408240711487311001RACHO, DESIDERIO OR TRANQUILINA                         10502
A0101408240711487311001OR ANNA OR ARTHUR                                       20500
A0101408240000001038777MOHAMMAD, JORRY VIDAL                                    0502
B2801400230713821100608**********                                               2002
B2801400230713821200608**********                                               2001
A4101400420814085521001DEL ROSARIO, JAVIER GUIMAN                               0501
A4101400420814408530001LEGASPI, ANA MARIE MAATA                                 0501
A4101400420000000120798MILO, ROMELDA F.                                         0501
A4101400550815737397001PIQUERO, EMILY FERNANDO                                  0501
A0101412340000001017816MARANAN, JENNIFER GONZALES                               0501
B0101412340850821100608**********                                               2005
B0101412340850821200608**********                                               2002
B0101405070861008154001KUMAR PLASTICS                                           1603
B0601400230891047443001NE TRUCK BUILDERS CORPORATION                            1601
