B0101406460000000182370WEE COMMUNITY DEVELOPERS, INC.                           1605
B0101406460272047405001ACEBUCHE, E DBU EL ACEBUCHE BUI                          1605
A0101410720000007843298GARCIA, RENE ANN MINDO                                   0501
A0101400600071235541001***************                                          0501
A0101412890000004345022QUADRAGON SECURITY                                       0502
A0101414120000000875652PABLITO OR RONALD JOHN OR                               10504
A0101414120000000875652PRINCESS JOY OR                                         20500
A1701400230693478374071QUILIT, RIZALINA ANCHETA                                 0501
A0101400860011559271001**********                                               0505
A0101400860011596360001**********                                               0503
A0101400860011715602001**********                                               0502
A0101401250021411710001JAMBALOS, MARISSA LANELUZ                                0503
B0101400150000000633174MEGA TREND FOREX CORPORATION                             1601
A0101400600071234544002CHOW, ALICIA CHUA                                        0502
A0601400520000000398352OCAMPO, FRANCISCO DE JESUS                               0501
A0601400520000005943611VICTORIO, ALLAN JUDE FORONDA                            10502
A0601400520000005943611OR VICTORIO, MARIE                                      20500
A0101413730000000144578**********                                               0501
A0101414090000006211563JUGO, CHELOY CORINA CASTILLO                             0501
A0101400730000009269543PELGONE, CHRISTABEL BONCOCAN                             0501
A0101406040000000096957HAZEL F. ALVIZ                                           0502
A0101412630000004609643ARCEO, JESUSA ACULLADOR                                  0502
A0101412630000007168752**********                                               0501
A7201400170000003774301ROGER E. ALIVIO OR JENNIFER                             10501
A7201400170000003774301C. ALIVIO                                               20500
A5001400170000002288242AJOC, RODOLFO PAPELLERAS OR                             10504
A5001400170000002288242AJOC, MARY JUNE BERMUDO                                 20500
A0101407270000002804388*******                                                  0501
A0101401090171322573001DR. PORSHIA COMES-NATIVIDAD                              0501
A0101401090000000772134RAYMUND GABRIEL A. NARANJILLA                            0501
A0301400660000006862760**********                                               0501
A0301400790000001010620SIMON, DIOSEE GENTILES                                   0501
A0301400790000008015132ESCAMIS, MANUEL PACLAR DBU                              10501
A0301400790000008015132CME AUTO PARTS TRADING                                  20500
A0101401380201599894001CHUA, WILLIAM SOL CRUZ                                   0501
A0101413020000006295112GO TAN, M DBU WORLD STAR MARKET                          0502
A0101410720000007843470SAMBRANO, MARIE CAMILLE ASIS                             0501
A0101413600000002122270JUANCHO D. CAALIM                                        0501
B0101413600000002822671AUNICAJ INTERNATIONAL TRADING                           11603
B0101413600000002822671CORPORATION                                             21600
A3101400450000005960472BADONG, LORETO LACRETE OR                               10506
A3101400450000005960472BADONG, PRESCILL                                        20500
A3101400870225217498013BORLAZA, ROGELIO ANTONIO M.                              0501
A3001400130000000068400CUTILLAS, HENRY VILLAMOR                                 0501
B1001400350000007920876PEARSON, PILARCITA ROA AND  HEQUILAN,                   11602
B1001400350000007920876ELVIE CORTEZ                                            21600
A1001400350233505176001AGAWIN, ERLINDA GALENZOGA                                0502
A1001400350233525240001CASINO, ANGELICA RODRIGUEZ                               0501
A1001400350233770191001PATRIANA, LINDY CASTILLO                                 0501
A1001400480000002300430YU, WINEFREDO NISNISAN DBU                              10504
A1001400480000002300430WINKIM TRUCKING                                         20500
A1901400290000009530132SONIA ARADA SY                                           0501
A1901400290261470375002NORA BUQUIR MIRAL                                        0501
B1901400290261488594003SOUTH LUZON UROLOGY SPECIALIST, INC.                     1605
B0101401670271017449001HK HARDWARE SUPPLIER CO., INC.                           1601
A0101406460000002359931QUIZAN, RODA CANLAS                                      0501
B0101406460272017872001FEDCO PAPER CORPORATION                                  1601
A0101406460000000021723CHAN, VIRGINIA COCHANCO                                  0501
A0101406620000002009052LIBUNAO, ROLANDO LUCAS                                   0501
B0101411110276821200608**********                                               2001
A0101411820000005380110***********                                              0501
A0101400570000003891550ABELLA, JENEFE BIRAO                                     0503
A0101400570281191056001OFELIA C. MARIANO                                        0501
A0101400570281388076001DR. RAJU MURLI SADHWANI                                  0501
A2601400270000007951177RAYMOND RUEL D. VALLE                                    0501
A2001400290000000978043UTV CONSTRUCTION & ENG'G.                               10502
A2001400290000000978043SERVICES                                                20500
B2001400290315528399001**********                                               1601
A2901400130000009071676SAZON, CEDRIC MARAVILLA                                  0502
B0101405650322046129001FOCUS OUTDOOR CREATIVES CO. LIMITED                      1601
A0101405650322556592002ORBES, ROSINA DELA CRUZ                                  0502
A0101402510000001292280LLAMADO, TERESA CABANEROS                                0501
A0101409050000006986716PARAGAS, LEAH PATRICE BORJA                              0501
A0101402930013120001064ANONUEVO, AZUCENA PARCON                                 0502
B0101402930381022284001INVESTORS ASSURANCE CORPORATION                          1601
A0101408370000006446233JUNIO, ANALENE NUNEZ                                     0502
A0101408370382503035001DR. MARIA ROSELLEE BAYONA OR                            10501
A0101408370382503035001ROBERTO BAYONA                                          20500
A0101408400000006253243LIM, JIAN JEBIE REYES                                    0502
A0101408950000003171155TANJANGCO, MICHAEL ARGUELLES                             0502
A0101408950396663666001EDGARDO SAN JOSE CRISTOBAL                               0501
A0101409180000002252488SIETEREALES, SERGIO CARLO INARD                          0501
B1201400150421032655001BAGUIO STONECENTER INC.                                  1601
A0101403030441043810001CORE SOURCE TRADING                                      0504
B0101412890000003727924R. ABALOS CONSTRUCTION CO.                               1610
B0101406330472040053001KUS OFFICE SYSTEM MFG. CORP.                             1602
A0101412760000002067698OCANA, MA. C0NSUELO ESTRELLA                             0501
A1901400320000002296073MAYO, ANAMARIE ABRACOSA                                  0501
A3801400170000005287987DE CHAVEZ, DIVINA GRACIA ATIENZ                          0501
B3801400170490821200608**********                                               2001
B3801400170490821200608**********                                               2001
A1901400160491249671003MARIA LUISA P PEREZ                                      0501
B1401400110492028287001MARYHILL COLLEGE, INCORPORATION                          1605
A1401400110492220730002MOISES G. DOLLANO JR.- MGDJ                             10502
A1401400110492220730002CONSTRUCTION                                            20500
A1601400170000001068593JINKY M. NIEVA                                           0501
A1601400170000001068593JINKY M. NIEVA                                           0501
A0101407430000003133882JESSERINA M. SORIANO OR                                 10503
A0101407430000003133882AILENE L. ORGA                                          20500
A0101407430000006027885FAJARDO, MIRIAM P. DBU                                  10503
A0101407430000006027885FARMIE MARKETING                                        20500
A0101405940000005068242AIMEE R. CACAYORIN                                       0501
B0101405940512028580001AUTOMETICS CAR CARE, INC.                                1606
A0101405940512497234001MA. CERESA DE TORRES REYES                               0501
B0101405940512705379001PACIFIC SARUM INTERNATIONAL, INC.                        1603
B0101410690000000001838COLOR1DIGITAL, INC.                                      1601
A0101407720602411542001DELA CRUZ, CRISTINA DIZON                                0501
B0101404260611005305001KING EPIPHANY HOLDINGS AND                              11601
B0101404260611005305001PROPERTY CORP                                           21600
A0101407690000001919833COOL CLASS GARMENTS ENTERPRISE                           0502
A0101407690652474247001**********                                               0501
A0101407690652525001064JOAQUIN JUANCE - DEALERS OF                             10501
A0101407690652525001064SHOECAT INC.                                            20500
A0101407690652678597001HERRERA, ALICIA ARCEO                                    0502
A0101413570000005867430*******************                                      0501
A0101413570656057648046GENALINE E.CRUZ                                          0502
A0101413990000006278124ENCINARES, ROVILYN RODRIGUEZ                             0502
A0101413990000006768638***                                                      0501
B0101414120000000399140AL3 HOLDINGS CORPORATION                                 1603
B0101414120000007655378ABMARAC CORPORATION                                      1601
B0101406590662024757001GUPIT INDUSTRIYA INC.                                    1610
A1301400210682424320001PRISCILLA B. BAESA                                       0501
B1301400340000006402502********                                                 1602
A1301400500000007096611SHERRYL JAEN                                             0501
A1701400230000008555233*                                                        0505
A0101408240711597149001SARCILLA, JHODELIX MINA                                  0503
A2801400100712251595001VALDEZ, CORAZON REYES                                    0502
B2801400230713046357001THE PROFESSIONAL GROUP MULTIPURPOSE                     11602
B2801400230713046357001COOPERATIVE                                             21600
A4101400260000005333357TAN, JAYSON LIM                                          0505
A4101400390813478374045FIRMALINO, MELECIA ATIENZA                               0503
A0101404840000003409954AMIL, CATALINA RAMOS                                     0501
A0101405070861478374074PURISIMA C. STA.ANA                                      0502
B0601400230891012908002JRS BUSINESS CORPORATION                                 1602
B0601400230000003644853ALL 'BOUT PEOPLE SERVICES & TRADING                      1601
B0601400230000007954041MERCADO, AILLEEN DIMACALI                                1601
