F0301400110191033341008MILL CENTER TRADING CORPORATION                          2602CKR
F0101400310211029980001ACTIVESIGNS INTERNATIONAL CORP.                          2605CKR
F0101404130601033660001HOLIDAY ASIA DIVERS RESORT, INC.                         2603CKO
F0101406590000000905613LA VISTA ASSOCIATION, INC.                               2601CKR
