B0901400220432821100608**********                                               2002
A1101400120000008001265DUALLO, MA. DONNA ADONA                                  0502
A1101400120000009119791DEL PILAR, EDNA Y.                                       0502
A1101400120313478374077ROMO, ALILY PECASO                                       0502
A4101400260000016831868MARIANO, MICHELLE SOLIS                                  0502
A1901400290000017290392TORRES, LYRA QUINTOS                                     0501
A0101402930000003735288BLAZA, RACHEL ANNE TAN                                   0502
B0101402930381027154001GREENWOODS MANPOWER SERVICES                             1601
B0101402930000013314711EASCORP POWERPLANT SERVICES INC                          1602
A0101402930381208046001**********                                              10502
A0101402930381208046001**********                                              20500
A1901400160000013648712DRA. SOFIA ROSELYN E. TAYLAN                             0502
B1901400160000015840921LIM, VIRGINIA V. OR LIM, RICHARD D.                      1601
A4101400390000017294629YOLANDA G. PINEDA                                        0501
A0101400860000005312981**********                                               0502
A0101400860000015923352**********                                               0502
B0101400860000000030393**********                                               1601
A0101400860000003571635**********                                               0501
A0101400860011422394002**********                                               0504
A0101400860011425868001**********                                               0502
B0101401250000000057167**********                                               1601
A0101401250000012949910SIOSON, CATHERINE REGANIT                                0501
A0101411370000005524421BATUIGAS, AURORA REBOQUIO                                0501
A0101411370000016176200CALABRO, LENY ORTEGA                                     0502
A0101411370000007861810CHIONG, E DBU MC JEAN PROPERTY                          10504
A0101411370000007861810MANAGEMENT SERVICES                                     20500
A0101400150000003164138DIANA D. DELA GRACIA                                     0501
A0101400150000012350020BALDOVINO, JARIANNE MAY SAPORTE                          0501
A0101400150061354768001FLORDELIZA D. KO                                         0502
A0101400600071672958001LILIBETH KENG OR WILFORD KENG                            0501
A0101405810072234892001**********                                               0501
A0601400100081504737001KAW, GEMINI DEANG                                        0502
A0601400360083037597001VHS GLASS AND ALUMINUM SUPPLY                            0505
A0601400520000005943502CAYABYAB, WENNIE BABINGAO                                0501
A0601400520000001707028AMBO MARKETING                                           0502
B0101410560000015166011QUIZA, ANNELYN MALIGAYA AND QUIZA, PAULO                11602
B0101410560000015166011GUERRA                                                  21600
B0101410560000014511223RICHWELL TRAINING CENTER SERVICES I                      1602
A0101410560000010317863BANDOLA, LYNETTE BENDANILLO                              0501
B0101401960121240785001JEI INTERNATIONAL (PHILS.) INC.                          1601
B0101401960121495730001UPTOWN GATEWAY DEV'T. CORP.                              1601
B0101412630000000024073ASTRO ADVERTISING, INC.                                  1604
A0101401830000001140010SANTOS, ROSIELYN LUCERO OR                              10501
A0101401830000001140010SANTOS, MICHAEL                                         20500
B5001400170000005988972MA. PAZ GALAN                                            1602
A0101412920000008813423NAVARRO, ANGELITA PAGTALUNAN                             0503
A0101400440000017123814LIBAO, SANDHIE SANGCO                                    0502
A0101407270162587936002WILFRIDO G. TIRONA                                       0501
A0101401090171196101002GREGORIO OR MARISSA DIZON                                0501
B0301400530000000065923POWER-UP TIRES, BATTERY AND                             11620
B0301400530000000065923AUTO SUPPLY                                             21600
A0301400790000003969484CODINO, JUDITO LAMOSTE OR                               10502
A0301400790000003969484CODINO, MARY ANN                                        20500
A0301400790000008015121CADALZO, DENNIS SALOMERI DBU                            10502
A0301400790000008015121ULTRA-GOLD MOTOR                                        20500
A0101413020000006295992PRUDENCIO, MARK ARTHUR EVANGELI                          0501
A0101410720000007843527YAO, ALBERTO SY                                          0502
A0101412500000005300689REYES JR., GRACIANO CASAS OR                            10502
A0101412500000005300689REYES, MARIE BAUTISTA                                   20500
A0101412500000017730731LOPEZ, MILAGROS GARCIA OR                               10501
A0101412500000017730731VILLAFUERTE, LILLIAN                                    20500
B3101400450223647264001BIO-AGRITECHNOLOGY INC.                                  1603
A1001400190231446795001SAARENAS, LOIDA TAN OR SAARENAS                         10501
A1001400190231446795001JR., JULIAN                                             20500
A1001400190231520766010LOPEZ, MICHELLE ENCABO                                   0501
A1001400350000000922292OH, EDWARD YU                                            0501
A1301400470000013690201MARIA TERESA C. CARIAGA                                  0501
B1301400470000000009594CHRISTIAN IAN CONSTRUCTION CORPORATION                   1605
A1301400470000004626886LOIDA FUNERAL HOME                                       0502
A1301400470252478374028NORMA S. BALLESTEROS                                     0506
A1901400290000009530132SONIA ARADA SY                                           0502
A1901400290000014042427RONDEZA, ARLYN TIGO                                      0501
A1901400290000014042370MOTILLA, LOTA RAYTON                                     0502
A1901400290261244344001AVELINA B DE GUZMAN OR                                  10502
A1901400290261244344001BENJAMIN D DE GUZMAN                                    20500
A1901400290261390520001JOEL PUNZALAN DIMAANO                                    0502
A1901400290261585775001LITA CUETO MENDOZA OR DORIS                             10502
A1901400290261585775001MARIE MENDOZA MEDINA                                    20500
A0101401670271384038001PABLITO M. GREGORE                                       0501
A0101406620273489416001TANCHULING, PATRICIA IRIS OR                            10502
A0101406620273489416001TANCHULING, VINC                                        20500
A0101410980000001154307DY, LORAINE ICEL CO                                      0501
A0101411110000017123949CORPUZ, ROY ARMEA                                        0501
A0101411110276075793088HAHN, KI SUK                                             0501
A0101411820000016514926JOSE ALBERTO A. FERRER JR.                               0501
A2601400270302631323001MARIA ISABELL R. DULIG                                   0503
A0801400160000016201179AMARANTE, JOSELYN MAPRANGALA                             0501
B0801400160000001289807BORACAY BEACHBOYS LEISURE, INC.                          1601
A1101400120000000652351YAO, RONALD PHILIP GO                                    0502
A3401400280000000156654ROEVELLO P CHU OR ZHEENA D CHU                           0502
B0101405650322024999001SUPERIOR MAINTENANCE SERVICES, INC.                      1620
A0101402510341353926001ROLANDO G. GALAO OR                                     10506
A0101402510341353926001RUE B. GALAO                                            20500
A0101409050000011558899BARCELO, KRISPY MAR SEVA                                 0501
B0101409050000006319326COLLEGE OF ARTS & SCIENCES OF ASIA & THE                11603
B0101409050000006319326PACIFIC (PASIG)                                         21600
B0201400760000011325425BANILAD CEBU TRADECENTER, INC.                           1605
B02014007603740526030018990 DAVAO HOUSING DEVELOPMENT CORP.                     1625
B0201400760000000040291KARGADOOR LOGISTICS CONSULTANCY                         11601
B0201400760000000040291SERVICES                                                21600
A0201400760000008869845SOLON, ENRICO MENDOZA OR                                10501
A0201400760000008869845MEDINA, ADELE ME                                        20500
A0201400920000007951731IMELDA D. ESTOCADO                                       0501
A0201400890376080642001GALANG, LORLIE PACURIBOT OR                             10505
A0201400890376080642001GALANG, GLENN AN                                        20500
A0101402930000010658198ROXAS, INGRID MARIE SIOPONGCO                            0501
B0101408370000010545241AQIUS CONSTRUCTION CORP.                                 1601
A0101408370382205236001DR. CYNTHIA A. AGUIRRE                                   0502
A0101408790383242406001KAW, ALEXANDER OR KAW, JENNIFER                          0502
A0101405490392170537002LORNA V. TUGADE                                          0502
A0101408400000003421445ANONUEVO, JEANELYN MALANO                                0503
A0101408950000011298936DINGLASAN, CARMEN ISABEL NAVAL                           0501
A0101408950000008995282GREGORIO, RICHMOND LANDICHO                              0501
A0101409210000007864131ALMARIO, CHAREEN DELA CRUZ                               0501
B0301400820000000132618LEI, WILSON OR LEI, MATILDE OR LEI, JAN                 11601
B0301400820000000132618MICHAELSON                                              21600
B2401400180000017675911DOMESTIC CARGO TRUCKING SERVICES AND                    11603
B2401400180000017675911MOTOR SALES CORP                                        21600
B2401400180411056764001RD PAWNSHOP, INC. - GENSAN REGION                        1603
B2401400180411276067001GAISANO DADIANGAS, INC.                                  1610
A2401400180411479333002NARSOLIS, ANALIZA GARBO                                  0501
B1201400150421009374001ESLA MANAGEMENT AND CONSULTING CORPORATI                11605
B1201400150421009374001ON                                                      21600
A0901400220000002300845LIM, RENEEROSE VESAGAS                                   0502
A0101403030441240104001**********                                               0501
A0101412890000001765682MARIA ROSELLE M SANTOS                                   0502
B0101412890000009833849UBINCUBE ENTERPRISES                                     1602
B0101403320000001647230AMALGAMATED INVESTMENT BANCORP.                          1605
A0101403320000000522381DELA PAZ, CHAUNCEY RAJAL DBU                            10502
A0101403320000000522381GABTECH MEDICAL                                         20500
A0101403320000000522381DELA PAZ, CHAUNCEY RAJAL DBU                            10502
A0101403320000000522381GABTECH MEDICAL TRADING                                 20500
A0101406330000016160600SANTOS, LUIS ROBERTO SOTELO                              0502
A0101406330000009181437PASCUA, CRYSTEL ANN C. OR                               10501
A0101406330000009181437SADORRA, JONATHAN D.                                    20500
B0501400170481018109002CSI WAREHOUSE CLUB INC.                                  1602
A0701400260000006215641LANUZA, ROSE ANN TOLENTINO                               0502
A0701400260000016322159PREVOSA, MARIE-GLO ANTOINETTE                            0501
A0101403580000017707161FLORENTINO, REGINALD PATENA                              0501
B0101403580000000922883UXMNL INC.                                               1603
B0101403580511100201001ASSUMPTION HS '78 FOUNDATION, INC.                       1601
B0101403580511155828001JOUBERT CONSTRUCTION INC.                                1615
A0101403580511156549003MARIO BISCOCHO                                           0501
A0101403580511160530001MIRIAM F. BERNARDINO                                     0501
A0101408530000007304509SALVACION, JOSE INVENTOR SALAMA                          0501
A0101408530000017733274BALUYOT, RAFFAELLO MANALAYSAY                            0501
A0101408530000017733478TRINIDAD JR., ARMANDO MA. CONTE                          0501
B0101408530000007317980ULTRAMAN TRAVEL CORPORATION                              1601
A0101408530000001268446YAMBOT, SHIELA MARIE PANGILINAN                          0502
A0101408530000001885794EDITHA M. MOJAR                                          0502
A0101412050000011929163GARCIA-DE LEON, LEANDRO LUIS ES                          0501
B0101403610000017618481LEE TOP BUILD INDUSTRIES, CORP.                          1601
A0101403610000012132686BALOSCA, MERLYN BRUCELO                                  0501
B0101403610531046549001BIG APPLE PLASTIC PACKAGING INC.                         1602
A2201400250561478374026MINDA S. BLAYA                                          10501
A2201400250561478374026MEMBERS OF NATAS                                        20500
A0101407720602162403001MARY CAROLINE LAGMAN                                     0502
A0101407720602417064001IRMA RAJAGUKGUK-MAGNAYE OR                              10503
A0101407720602417064001ELGIN MAGNAYE                                           20500
A0101412180000001293283CEDILLA, MIA LYNN REGALADO                               0502
A0101404260611478374085ROSALINA SUMILE                                          0501
A0101409890000006813192BERROYA, CRISTINA ROMASANTA DBU                         10501
A0101409890000006813192DALISAY SWEETS                                          20500
B0101409920650047669001TOP POLYMER, INC.                                        1601
A0101411530000008555011**********                                               0501
A0101413570000017167790SALUDES, ROY AMBASAN                                     0501
B0101413570000003580681FERRER, MARK OLIVER AND FERRER,                         11601
B0101413570000003580681ADLIN MAE                                               21600
A0101413990000017513430ESTIMOS, ELENITA CRUZ                                    0501
B0101413990000000206226EREHWON ARTWORLD CORP.                                   1602
A0101414120000009850826MUYOT, LESTER OPOSA                                      0501
A0101406590000017730844GUEVARA, RICHARD JOHN OR                                10501
A0101406590000017730844GUEVARA, JENNIFER                                       20500
A1301400210000011696492LIZARONDO, LLOYD LIONGSON                                0501
A1301400210000016642314NATIVIDAD, ALEXIS JAVIER DBU AC                          0502
B1301400210682030509001FIRSTGRANT INC.                                          1606
A1301400340683035112001******                                                   0502
A1301400340000013761036DELA CRUZ, RONNEL SANTIAGO                               0501
A1301400340683361105001DELA CRUZ, ESTER SANTIAGO                                0501
A1301400340683542735002BIUNAS, REMEDIOS GREGORIO                                0502
A0101408240000007478291GARROVILLO, RENE TEVES                                   0502
B0101408240000016419619PRIME AXIS IDEAS AND SOLUTIONS CO.                       1601
A0101408240711180164001TUPAZ, CORAZON RONQUILLO                                 0501
A0101408240711372563002ZAMORA, RITA OR ZAMORA, MILETTE                         10502
A0101408240711372563002LOPEZ                                                   20500
A0101408240711621775001BICHARA, MIGUEL PANAYOTTI                               10501
A0101408240711621775001OR BICHARA, CRISTINA                                    20500
A4101400260000003679943TAN, ANGELINA                                            0501
A4101400390813017514001PRESTIGE AUTO CARE                                       0501
A4101400390813478374014ELIZABETH V. EVAL                                        0502
A4101400420000017674850CHUA, RICHARD TAN DBU NEW IMUS                          10501
A4101400420000017674850TRUCKLINE AUTO PARTS & GE                               20500
A4101400420814480121001FABREAG, DELIA FLORES OR                                10502
A4101400420814480121001FABREAG, BOBBY F                                        20500
A4101400420000000120970REYAN S. LINCAY                                          0501
A0101412340000007012022ALLAN M. PUNZALAN                                        0501
B0101404840000006365477SOUTH CARE COSMETICS MFG. INC.                           1605
A0101404840851213312001MARQUEZ, THELMA P.                                       0501
A0101404840851478374183ISABELITA P. MAMUYAC                                     0502
A0101406750000003393253PACHECO, GLENDA ARANA                                    0503
A0101406750000015500331PEREZ, EDNA PASCUAL                                      0501
A0101405070861478374066ELMER LADRES APAS                                        0501
A0601400230000001062479**************                                           0501
