B0101400730111821100608**********                                               2005
B0101404130601821100608**********                                               2010
B0101404130601821100608**********                                               2010
B0101404130601821100608**********                                               2010
B0101404130601821100608**********                                               2010
B0101400600071821100608**********                                               2003
B0101401090171821100608**********                                               2005
B0101406040112821100608**********                                               2005
A0101402930381478374015DIMARANAN, ARNOLD ABEJERO                                0501
A1101400120000003022522GABRINO, ROSARIO A. DBU                                 10502
A1101400120000003022522GABRINO CONVENIENCE STORE                               20500
A1101400120313478374099SALAS, ERIKA GALAROSA                                    0501
A1101400120313547700001NICOLASORA, ALMARIE EULOGIA P.                           0506
A0101408950000001760607PANDAN, MARIA JANET MAPA                                 0502
A0301400950000001379091ANGALA, ASTRID ADA SARENAS                               0501
A0301400950000002115140**********                                               0502
B3101400160221821100608**********                                               2010
A0101412470000000853856DY, PAUL ALBERT L. OR                                   10501
A0101412470000000853856SANTOS, ISABEL T                                        20500
A0101412890000001056360AMIDO, NORMA GUEVARA                                     0501
A0101412890000004345088MALONZO, ANTONIO GARON                                   0503
B2801400100712821200608**********                                               2001
A0101400150061038536167ERNESTO DIONISIO                                         0503
A0101400600000000007707**********                                               0503
A0101400600000001335513******                                                   0502
B0101400600071821200608**********                                               2003
B0601400100081020255001WIDE WIDE WORLD EXPRESS CORPORATION                      1602
B0601400100081024665001CLARK PIPELINE & DEPOT COMPANY, INC                      1602
B0601400100081029282001L5 & SONS FINANCING CORP.                                1610
A0601400100081403474003TAYAG, DENISE OCAMPO                                     0502
A0601400520000005001454REILLY, ARLENE DELIZO                                    0501
A0601400520000001349617TIATCO, LIRNA PINEDA                                     0503
B0101400730111821200608**********                                               2002
B0101406040112033244001PATIO VICTORIA CORPORATION                               1605
B0101406040112821200608**********                                               2005
A0101401960121238667001MARCELO PASCUAL OR                                      10505
A0101401960121238667001MERCEDES PASCUAL                                        20500
B0101413150124821100608**********                                               2002
B0101413150124821200608**********                                               2002
A7201400170000003773120ASUGAS, GRACE MARIE NARCISO                              0503
A0101400440000004901513GO, MELISSA ANNE BUSTAMANTE                              0501
A0101400440161478374175MARYLEN R. MORADA                                        0503
B0101407270000000830711GRAN DELECTA, INC.                                       1605
B0101407270000000830700DELIGHTFULTWIST, INC.                                    1605
B0101407270000000830693DAILYTREATS, INC.                                        1605
B0101407270000000830733DELISCENTS, INC.                                         1605
A0101401090171031508002DUBBEL MEDICAL CORPORATION                               0506
A0101401090171196024002ASUNCION PILAR GUTIERREZ OR                             10501
A0101401090171196024002RUTH V. GUTIERREZ                                       20500
B0101401090171821200608**********                                               2002
A0301400530000003088048MINER'S CHEMICAL INDUSTRIES COR                          0506
A0101401380000000106505SY, WILFREDO O. DBU TITO ROM                            10503
A0101401380000000106505SA CAPITOL RESTAURANT                                   20500
B3101400160221821200608**********                                               2002
A3101400450223545635002ALINA, EMERISSA OR                                      10502
A3101400450223545635002GATDULA, ENRICO                                         20500
A3101400450223576401001GALLEGO, DHARIA CAJAYON                                  0501
A3101400450000000014035GENEROSO, NOVELET BRION                                  0503
A3001400130230740619001NGO, RIMA UY AND TEMPLADO,                              10501
A3001400130230740619001TERESITA UY                                             20500
A1001400190231509590001LAGUYAN, ENGRACIO SALONA                                 0504
A1001400190231520766104MAMBUAY, JOSEPHINE WABE                                  0501
A1301400470000000009981JOCELYN N. CRUZ OR                                      10501
A1301400470000000009981HAZEL P. NAVARRO                                        20500
A1301400470000001299141ELIZABETH S. LOPEZ                                       0501
B0101406460272007487001FOODMACH, INC.                                           1604
A0101400570000000165699PAPA, ENRIQUE LUIS DIAZ                                  0501
A0101400570281186603001DR. RESTITUTO C. BUENVIAJE                               0502
A0101400570281388539025ROSALIE B. CABRERA                                       0501
A0101400570281624893002MA. REGINA L. EDILLON                                    0501
A1101400120000001547406CORDOVA, MA KRISTINE AGUILON                             0501
A1101400120000003981317CANETE, ALEXIS JAN DY DBU                               10503
A1101400120000003981317CANETE ENTERPRISE                                       20500
A0101402510341478374008MARY GRACE B. ANDRES                                     0502
B0101402510341821100608**********                                               2005
B0101402510341821200608**********                                               2005
A0101402060351479109001ALMADEN, ROSALINDA CLACIO                                0501
A0101402060351553377001ALVAREZ, JACQUELINE BARRION                              0501
A0101402930000005783413PALABYAB, CLARA ANN GERONIMO                             0503
A0101402770391728851001ARIEL AGUILAR TUBILLO                                    0501
B0101405490392821100608**********                                               2005
B0101408400394032168001ALQUIROS FOOD CORPORATION                                1603
A0101408400000001952770MERIAN B BUERE                                           0501
A0101408950000000776507SAULOG, V DBU                                           10505
A0101408950000000776507ONE HEALTH MEDIC                                        20500
A0301400820000001554690FLORES, VILMA                                            0501
A0301400820000001554850GANGANI, ALMA C.                                         0501
A5501400120410708024001CUADRA, JERRY T. OR HERMIDA,                            10501
A5501400120410708024001LUZVIMINDA S.                                           20500
A0901400220000000012299GAYON, MARINA TACHADO                                    0502
B01014063304720209890011 TO 1 MARKETING INC.                                    1610
B0101410140475821100608**********                                               2003
B0101410140475821200608**********                                               1601
A0501400170481334870001BRENDA U SALCEDO                                         0501
B3801400170490821100608**********                                               2002
B3801400170490821200608**********                                               2001
A0101407430000001028897FERNANDEZ, JOVITO GERON                                  0501
A0101407430000005478737ROBERT O. CAMANTIGUE JR                                  0501
B0101407430000001213056AERO EQUIPT AVIATION INC.                                1601
A0101407430503370564001DAVILENE A. BARELLANO OR                                10501
A0101407430503370564001MA. SOTERA P. HERNANDEZ                                 20500
B0101405940512022289003MGNP, INC.                                               1606
A0101405940512457925001LEDALYN S. CATULAY                                       0501
B0101406880000001286448CASES COLLECTION MANAGEMENT, INC.                        1603
B0101406880000000027169MARINE BENEFITS ASSISTANCE SERVICES, INC                 1603
A0101408530516505337002********                                                 0504
B0101408530516579627002RED PLANET HOTELS PHILIPPINES                           11605
B0101408530516579627002CORPORATION                                             21600
A0101411790000000134169CATALAN, SHEILA ESTRADA                                  0501
B0101403450521021842005WALL VISION CORPORATION                                  1605
B0101414960522821100608**********                                               2001
B0101414960522821200608**********                                               2001
A0101403610531219488001REFORMA, MARILOU                                         0505
A0101403610531430756002GERTRUDES A. SALVADOR OR                                10503
A0101403610531430756002LEONOR A. HADUCA                                        20500
A0101403610531712013001LUMPAS, MARILYN DEL ROSARIO                              0502
A2201400250000001545320PAUL NORMAN U. DE GUZMAN                                 0501
A2201400250561297004018DILIDAN S. PASION                                        0501
B0101410690600821100608**********                                               2005
B0101410690600821200608**********                                               2001
B0101404130601100007005SMART COMMUNICATIONS, INC.                               1602
B0101407720602031597001A.F. NAVARRETE AND PARTNERS CO.                          1601
A0101407720602243511001LIZARES, NICOLAS                                         0501
A0101407720602552407001PASCUAL, JOSELITO CAPITO                                 0502
A0101404260611005270001VP SERVICES & SUPPLY                                     0506
B0101415220613821100608**********                                               2005
B0101415220613821200608**********                                               2001
B0101413440655821200608**********                                               2002
B0101410300663044473001******                                                   1603
B2801400100712037962001XEROGRAFIX BUSINESS PRODUCTS AND SE                      1602
B4101400260812039799001LAGAMAYO DENTAL CORPORATION                              1602
A4101400260812468473002BIANAN, RODNER AYUKIL                                    0501
A4101400390813046750001MARQUEZ, MELANIE DBU LEIYHZ                             10501
A4101400390813046750001TRADING                                                 20500
A4101400390000000500358DE GALICIA, VITALIANO ROLLUQUE                           0502
A4101400390000001732805FLORITA DE JESUS                                         0503
A4101400390813526621001CARREON, WINDA LONTOC                                    0502
A0101412340000003719237LAWRENCE V. LUANG                                        0501
A0101404840851419256001INTOD, DELFINA SAMONTE OR                               10502
A0101404840851419256001INTOD, ALGREG M.                                        20500
A0101404840851791747001BALMES, GERVACIO OR SARADAT,                            10501
A0101404840851791747001MONICA OR GALLAG                                        20500
A0101406750000000172989VELEZ, PALMY REPRADO                                     0501
B0101406750852474662001SECURITY MARKETING & PEST MANAGEMENT                    11603
B0101406750852474662001INC.                                                    21600
A0601400230891321941002GENER OR EVANGELINE MAGLAQUI                             0501
B0101415800001601050124**********                                               2002
B0101416290410422000011**********                                               2001
