F0101408110515050646003**********                                               2608CK1
F0101408530516035432001ROGUE MEDIA, INC.                                        2610CKO
F0101409890000000049136ENROE MARKETING CORPORATION                              2601CKR
