B0101401670271821100608**********                                               2005
A1101400120000003197062COLLERA, JUSTIN MACATO                                   0502
A0101408370382455298001BERNICE ELAINE T. ONG M.D. OR                           10505
A0101408370382455298001MELVIN L. ONG                                           20500
A4101400260812546934001CRISTINA T. BASILIO                                      0501
A0101400860011465021001**************                                           0502
A0101401250021456301001PALILEO, ROSALIE PUNONGBAYAN                             0501
A0101411370022774052001MARISSA M. RAMIREZ                                       0503
A0101400150000003600900BARRIO, MA HENCEL VILLAGONZALO                           0501
B0101400150061025772001TOYOTA FINANCIAL SERVICES PHILIPPINES                   11602
B0101400150061025772001CORP.                                                   21600
A0101400150061232035003NORBERTO REYES OR                                       10501
A0101400150061232035003SOLEDAD REYES                                           20500
A0101400150061337098041EDITHA N. BAUTISTA                                       0501
A0101400150061541767001INGENIERO, SIEGFRED CANDELARIO                           0501
A0101400150061614041001LAGGUI, BERNADETH SIMON                                  0503
B0101400600071516450001********                                                 1601
A0101405810072367320001**********                                               0506
A0101405810072580083001********                                                 0501
B0601400100081047597001C.A.B. HARDWARE                                          1601
A0601400360000002282311KILATES, GUALBERTO CABRERA                               0502
A0601400520000001349559PINEDA, JIM CARLO                                        0503
A0101400730000000168810DY, MERYLL LYN YU DBU MYTY MARK                          0502
A0101400730111334903022EMELITA ERCE VILLANUEVA                                  0501
A0101400730111483566001MONZON, HOPE CUBITA                                      0501
A0101412630000000909735SANTIAGO, JENNYVIE ERIKA GOMEZ                           0501
A0101412630000004062020CASTRONUEVO, SHARON CORTEZ                               0501
A0101401830141429591001VENERACION M. PAGULAYAN                                  0501
A0101401830141532677001**********                                               0501
A5001400170000001003381CALIMUTAN, OHARA DELA CERNA OR                          10501
A5001400170000001003381CALIMUTAN, REGINALDO G.                                 20500
A0101412920000000041972MARIECRIS F. CABALLA                                     0501
B0101407270162038101001BIRDS INTERNATIONAL, INC.                                1603
B0101407270000000830682MULTI-CORPORATE SUPPORT AND RESOURC                      1605
B0301400660000002913191RAYSE ELECTRICAL SUPPLY                                  1605
A0301400950000004455492RICARSE, MA. JOYCE LAGUESMA OR                          10502
A0301400950000004455492RICARSE, EVAN A.                                        20500
A0101401380201502664001LEY, RICHARD NOEL CO                                     0502
A0101401380201508360001SAN JOSE, ROSIE DATO                                     0502
A3101400160000004952552BILLY A PACURIB                                          0501
A1001400190000002170598BARBON JR., MELCHOR FLORES                               0501
A1001400190231446795001******                                                   0501
A1001400190231629873001BOMEDIANO, ANASTACIA SEMAFRANCA                          0502
A1301400470252497499001DON G. BERNABE OR REINA                                 10501
A1301400470252497499001CONCEPCION M. BERNABE                                   20500
A1301400470252529647002BANZON, MICHAEL PATRICK LIWAG                            0502
A0101401670000000079316CUISIA, MA. CARMEN LOPEZ                                 0501
B0101401670271030277002FIRST VITA PLUS MARKETING CORPORATION                    1606
A0101406620273284854001JOCELYN LI                                               0501
A0101406620273485833001DE BELEN, GEM KRISTINE P.                                0501
A0101400570281186611001EMERITA R. DOMINGO                                       0501
A0101411240000002332496LAWAN, CARINA CRISOLOGO                                  0502
B0801400160311013980004VIC IMPERIAL APPLIANCE CORPORATION                      11605
B0801400160311013980004IAP - CASH BOND                                         21600
A1101400120000000652511BASTIAS, ROSANNA QUISUMBING OR                          10501
A1101400120000000652511TOLENTINO, EMMANUEL S.                                  20500
A1101400120000003197011CHUA, THERESA ANG OR                                    10501
A1101400120000003197011CHUA, PETER JUSTIN ANG                                  20500
A1101400120000003197062COLLERA, JUSTIN MACATO                                   0502
A1101400120313478374016NAVAL, DOLLY Q.                                          0505
A2001400290000002319520CADAMPOG, JOSE GLENN CENIZA                              0503
A2001400290315636172001KHO, EVAN HO                                             0501
B0101402350321580146001FIRSTGLOBAL TRADING CORPORATION                          1602
A0101409050352614642001RHYTZZ BIENEVIEVE P. PAINAGAN                            0501
A0101409050352614642001**********                                               0501
B0101402930381040455001R & S LAW OFFICES                                        1604
A0101402770391211575001ALFONSO GALLORA                                          0501
A0101405490000002880686ROSALINDA P. CIFRA                                       0502
A0101405490000001876202YUSON, RUBEN TARRAYO                                     0502
A0101405490000004353075MEDINA, LIEZL MARQUEZ                                    0502
A0101405490392016165001FRANTER TRADING & CONTRACTOR                             0504
A0101405490392032343001TWIN PEAK BRASSIERES                                    10504
A0101405490392032343001MANUFACTURING INC                                       20500
A0101405490000001092751MARIA TERESINA G. MESINA                                 0502
A0101409180000003780363TECSON, ANGELICA CALDERON                                0501
A0101409180000004940712CO, PRECY PRECIOSA                                       0502
B0101409180397024348001APPLESEED MONTESSORI INCORPORATED                        1601
A0101409210000000043821GUTIERREZ, ROSEMARIE MALABRIGO                           0501
A0101409210000001294651DELA CRUZ III, FRANCISCO PEREZ                           0501
B0101409210000000031238******                                                   1620
A0301400820000004746043ALFAJORA, AL G.                                          0502
A5501400120000002348314LABATOS, JEANEROSE DIMZON                                0501
A5501400120410675739001BAYLON, EDWIN ELLON                                      0501
B2401400180411035164002MOMMY GINA TUNA RESOURCES (MGTR), INC.                   1602
A2401400180000002146436KYSA MANPOWER AND GENERAL SERVI                          0501
B2401400180411057100001L.H.E. CONSTRUCTION & INDUSTRIAL                        11604
B2401400180411057100001SERVICES, INC.                                          21600
B2401400180411058219001BRIGADA PHARMACY, INC.                                   1601
A2401400180411729988001TAN, JOEL RECTO                                          0505
A1201400150421485874001FLORES, CHIARA MAE FAROL OR                             10502
A1201400150421485874001FLORES, GLENLIEL                                        20500
A0101403030441041524001**********                                               0504
A0101403030441412000001**********                                               0501
A0101406330472508335002RAMIR R. ALVAREZ                                         0502
B0101406330472549242001B.C. GONZALES CONSTRUCTION                              11603
B0101406330472549242001CORPORATION                                             21600
A0101410140000000038771ANG, PAMELA JOANNE BAYA                                  0501
A0101410140000000038760ANG, ISMAEL DACIA                                        0501
B0501400170481015881001TOYOTA DAGUPAN INC.-2                                    1615
B0501400170481016209001DAGUPAN FILCO MERCHANDISING                              1601
B0501400170481016901001CARRIED LUMBER COMPANY, INC.                             1610
B0501400170481256535001NORTHERN LUZON MARITIME TRAINING                         1602
A1901400160491247764001MARITES E RAMIREZ                                        0501
A1901400160491282845001ARTHUR C MALALUAN OR                                    10501
A1901400160491282845001IRENE D MALALUAN                                        20500
A1401400110492395854001MERCEDES C. BARCELONA                                    0501
B0101407430503033837001SKYLOAD INC.                                             1602
B0101406880000001286426SOUTH BY SOUTHWEST CORPORATION                           1602
B0101406880000001286437ZYGNET PRIME HOLDINGS INC.                               1605
A0101406880513150892001RONNEL B. MALGAPU OR                                    10501
A0101406880513150892001MYRNA R. MALGAPU                                        20500
A0101406880513562329001ROXAS, STEPHEN CHIONG                                    0502
A0101408530000002980523BONOSTRO, ANGELINE CALLEJO                               0501
B0101408530516005188001SEARCHERS & STAFFERS CORP.                               1605
A0101408530516571877029ROSARIO M. DE CASTRO                                     0501
A0101408530516578215022LAT, RIANNE BERNARDO                                     0501
B0101403450521011884001**********                                               1601
A0101403450521238133001**********                                               0501
A0101404000000001186863DELFIN, ANNA TAN OR MANUEL OR                           10506
A0101404000000001186863ALEJANDRO OR FRA                                        20500
A2201400250000002337993FLAMINIANO, ROSITA LOANZON                               0501
B0101407720000000017632LOVE MY BODY, INC.                                       1603
A0101409920650478374014LIEZL SORETA                                             0501
A0101409920000000998581LOPEZ, SUSANA OR                                        10501
A0101409920000000998581LOR, MICHAEL PAT                                        20500
A0101409920000000998683MEMBERS OF NATASHA (SHOECAT INC                         10501
A0101409920000000998683AJETO, MERCY L.                                         20500
A0101406590662089847002MAGCALAS, MARCY DIZON                                    0501
A1301400210682045774001POP WASH LAUNDRY SHOP                                    0502
A1301400340683495036001MARCELO, ELENA RIVERA                                    0510
A0101408240000003955522BAES, MICHAEL ALBERT MARCO                               0501
A0101408240000001038857PESIGAN, ROSALINDA MARTINEZ                              0501
A2801400100712614223001PAULITE, ARTEMIO REYES                                   0502
A4101400260000003680040DEL ROSARIO, MARIE MADELINE MAG                          0501
B4101400260812039622001ESPINOSA CHOCOLATES INCORPORATED                         1602
B4101400260812039895001ENSAIMADA LATIK, INC.                                    1602
B4101400260812041783001ESPASOL SPASOL INC.                                      1602
B4101400260812046539001PALIPARAN-BACAO MANPOWER SERVICE CO                      1601
B4101400260000000002211ECCLA VU INC.                                            1602
A4101400260812478374055ARLENITA E. MORALITA                                     0501
B4101400390813028639001SUNPINO DEVELOPMENT CO., INC.                            1602
A4101400390000000975037FIGUEROA, MARY ANNE DBU CIUDAD                          10501
A4101400390000000975037UPHOLSTERY SUPPL                                        20500
A4101400390000003389424LUNA, DIVINA DBU DIVINA CRUZ                            10501
A4101400390000003389424LUNA MERCHANDIZING                                      20500
A4101400390813478374003AUXTERO, ELANE                                           0502
A0101412340000003344027JEROME C. LACANILAO                                      0501
B0101412340000000031012MALATE CONSTRUCTION AND DEVELOPMENT                     11602
B0101412340000000031012CORPORATION                                             21600
B0101406750852034933001HYUNDAI ALABANG INC.                                     1605
B0101406750000000090708GLOBAL ACCESS FINANCIAL SERVICES, INC.                   1603
A0101406750852079211001BALANLAYOS, ELISA M. OR                                 10501
A0101406750852079211001HILDA TANOLA                                            20500
B0101405070861008182001MANILA CIGARS INCORPORATED                               1604
A0101405070861202025001ROSALES, DOLORES G.                                      0502
A0101413860000001887089ARAGON, MARY JANE BORROMEO                               0501
A0601400230000003638891ALAJATI, C DBU ALPHA LANE CUSTO                          0502
