F0101408370382415751001MA. CECILIA CRUZ-REYES M.D.                              2505CKO
F0101403580511034358001A.R.M. SERVICES COOPERATIVE                              2605CKR
F0101403580000000214720TRENDS AND CONCEPTS TOTAL                               12605CK1
F0101403580000000214720INTERIOR SOLUTIO                                        22600CK1
F0101403580511378857001ARM WAREHOUSE MANAGEMENT &                              12605CKR
F0101403580511378857001CONSULTANCY SERV                                        22600CKR
