B0101403450521821100608**********                                               2030
B0101406590662821100608**********                                               2008
B0101402350321821100608**********                                               2003
B0101407980123821100608**********                                               2005
B0101407980123821100608**********                                               2005
B0101407980123821100608**********                                               2005
B0101407980123821100608**********                                               2005
B0101407980123821100608**********                                               2005
B0101407980123821100608**********                                               2005
B0101407980123821100608**********                                               2005
B1401400110492821100608**********                                               2003
B0101408820333821100608**********                                               2001
A0101412920000005865278GELSANO, MARLON MABAET OR                               10501
A0101412920000005865278BARBOSA, RAOUL VERGARA                                  20500
A0101412920000005866215LA GUARDIA, JUN PATRICK BONDOC                          10501
A0101412920000005866215OR BARBOSA, RAOUL VERGARA                               20500
A0101414090000000399220ECHEVARRIA III, LEOPOLDO P.                              0502
B0101406590662059726001GOLAN PROPERTIES, INC.                                   1601
B0601400520084821100608**********                                               2002
B0101412920160059763001SISIG ATSTAKE, INC.                                      1602
A1401400110492493108001DEQUITO, BERNABE VILLANUEVA                              0501
B1401400110492821200608**********                                               2002
A0601400100000002072680MARCOS, DULCE FORTO                                      0502
A0601400520000002270997ENGCO, LEAH DOMINGO OR ENGCO,                           10501
A0601400520000002270997GREGORIO SUAYAN                                         20500
B0101407980123821200608**********                                               2005
A0301400530000000065865ARASA, NICOLAS                                           0501
A0301400660000002348472NANIE DORADO OR RICHARD DORADO                           0501
B0101408820333821200608**********                                               2001
A0101408370000000336161PADER, MICHAEL FERANIL                                   0502
B2401400180411017908001LWC CYCLE MART, INC.                                     1602
A0101403320000004830995GATTECH SUPPLY AND ENGINEERING                           0502
A2801400230000000937479MANLAPAZ, GLECER CONSTANTINO                             0502
A4101400550000000315182MARGAJA, FELICITA BITOR                                  0501
A0101400860011799843001**********                                               0501
A0101401250021688004001SENEN O. GOLI                                            0502
A0101401250021709223001ROLANDO F. ASTILLERO JR. OR                             10501
A0101401250021709223001GINA A. ASTILLERO                                       20500
B0101400150061036320001IPM CONSTRUCTION & DEVELOPMENT CORP                      1610
A0101400150061037971001TRITON FOREIGN EXCHANGE                                  0502
A0101400600071684249001******                                                   0503
A0101405810072234892001**********                                               0501
B0601400360000000978845P4 HUMAN RESOURCE SOLUTION, INC.                         1602
B0101410560110045564001S.M. LAZO MEDICAL CLINIC, INC.                           1610
A0101410560000000848722**********                                               0501
B0101400730111008593001TITAN TRAVEL & TOURS, INC.                               1603
A0101406040112418300001CAYCO, JANICE LEE SORIANO                                0501
B0101401960000000008186GOLDEN WING STAINLESS STEEL CORPORA                      1601
A0101412630000000852346PERALTA, MARILYN CASTANEDA                               0501
B0101401830141026671001BRIGGS CONSTRUCTION AND GENERAL SERVICES                11603
B0101401830141026671001COMPANY                                                 21600
B0101401830141033573001MAHARLIKA GENERAL MERCHANDISING                          1605
A0101401830141486838001MARIA ISABEL P. LIMQUECO OR                             10501
A0101401830141486838001MA. MADELINE G. PASIGAN                                 20500
B0101412920160821100608**********                                               2003
A0101400440000000821538MARITES T. JIMENEZ                                       0501
B0101407270162008369001NMS CONSTRUCTION COMPANY                                 1604
A0101407270000000818480CLEMENTE, SPIRO LU                                       0502
A0101407270162739083004JIMMY P. HERNANDEZ                                       0501
A0301400660000001113795VILLADAREZ, RICHARD RANIS                                0501
B0301400660194469662168*****                                                    1605
B0101401380201025256001MESSE & HANDEL CORPORATION                               1601
B0101401380201030648001ITEMP HOLDINGS INCORPORATED                              1601
A0101401380000001819832LEY, RICHARD NOEL CO                                     0502
A0101401380201667031001TRINIDAD, HENRY GOLIMLIM                                 0501
B0101401380201821100608**********                                               2005
A0101412500000000041647CHAN, EDITHA GO DBU TOP EDGE                            10503
A0101412500000000041647GARMENTS                                                20500
A3101400160000001792156MANUEL P REMPILLO                                        0501
B2101400190229821100608**********                                               2020
B2101400190229821200608**********                                               2005
A3001400130230478374021LOZADA, ROSITA R.                                        0501
A1001400190231520766049JOCELYN S. LLUBIT                                        0501
A1001400190231520766126ORTIZANO, MERLYN B.                                      0501
A1001400190000000016480ANGELITUD, LYDIA LECIAS                                  0501
A1001400350000000922190RIVERA, JACKIE LOU VILLAROYA                             0502
A1001400350000002367320WAGAN, FLORDELIZ BAANG                                   0501
A1001400350233635947001GOMEZ, CHRISTOPHER IAN CARILLO                           0501
B1001400480234821100608**********                                               2002
A1301400470252501685001CELSO V. RUIZ                                            0502
B1901400290261038595001B & V TRADING                                            1602
A1901400290000001975302MARELLA SALONGA DE CASTRO                               10501
A1901400290000001975302DBU FIVE M'S TRADING                                    20500
A1901400290261567865001ALEX IAN SISON DE LA CRUZ                                0501
A1901400290261607338001ZALDY BASACA SUHAYON                                     0502
B0101401670271028082002DDT KONSTRACT, INC.                                      1620
A0101401670271603732001GREGORIO, REYNALDO CRUZ                                  0501
B0101406620000003497212BUSINESS PEOPLE INC.                                     1605
B0101406620273018522001VALYERMO TRADING CORPORATION                             1601
B0101406620273022260001CROWN SYNERGY TRADING CORP.                              1605
A0101406620000001686702SINCONEGUE, FELIX                                        0501
B0101408660274035236001ROMAGO INCORPORATED                                      1605
B0101408660274821100608**********                                               2003
B0101408660274821200608**********                                               2001
A0101411820000001356161GEORGE V. CANSECO III                                    0502
A0101412470000002135991TIU, EDGAR ACORIN OR TIU,                               10505
A0101412470000002135991MARVIN ERICSON YU                                       20500
A0101412470000000853834**********                                               0502
A2601400270302698462001ALBERT OR NELIA LIM                                      0502
B1101400120000000653138THE BAGACAY ROYAL THREE CORPORATION                      1601
A0101402350000003880411YAYA, VIENAVIEU CALCETA                                  0501
A0101402350321022842001FALCIS FRESH CHICKEN                                     0503
B0101402350321821200608**********                                               2001
A0101405650322038044001BAYANTILES ENTERPRISES                                   0510
A0101402060351361484001TEJERO, AGUSTIN OR                                      10501
A0101402060351361484001TEJERO, MOONYEN                                         20500
A0101409050000000258213DENISE ANNE F. EVANGELISTA                               0501
B0101409050352031160001CAPITAL INDUSTRIES, INC.                                 1605
A0201400920000002804515J-NEIL MARKETING AND AGRIVET                            10502
A0201400920000002804515SUPPLY                                                  20500
A0201400920000002804479MARY JOANNE L. ELAGO                                     0502
A0201400920000002804480MIRANDA, SAMMY                                           0502
A0201400920000004087398VILLAR, BERNARDO NOVICIO                                10502
A0201400920000004087398OR VILLAR, CARMELA                                      20500
A0201400920375635534001CANETE, JANET YOSORES                                    0503
A0201400890376080642001GALANG, LORLIE PACURIBOT OR                             10502
A0201400890376080642001GALANG, GLENN AN                                        20500
B0101402930381039036001CULINARY EVENTS, INC.                                    1603
A0101402930381472197001ALEXANDER G. HAROCHOC                                    0502
B0101405490000002841870PARANAQUE PREMIER HOSPITAL & MEDICA                      1605
A0101405490392173389001RICARDO R. GO OR                                        10505
A0101405490392173389001EVELYN  GO                                              20500
A0101408400000004490222BULAON, AMALIA CAMPO OR                                 10502
A0101408400000004490222BULAON, ARMANDO                                         20500
A0101408400394449894002CATOLOS, BARTOLOME CATOLOS OR                           10501
A0101408400394449894002CHUA, TERESA JEMA                                       20500
A0101409210000003297676JEREMY PAUL OBIAL                                        0501
A0101412210399059666001TRISTIAN'S CAFE-BAKERY                                   0501
B2401400180411042719001VITA-LIZE DISTRIBUTIONS INCORPORATED                     1601
A2401400180411478374069JUBAN, MARIVIC BABA                                      0501
A2401400180411761154001LOZADA, JOJIE OMAS AS                                    0502
B0101403030441039990001**********                                               1602
B0101403320471040565001HUMAN SHELTER REALTY CORPORATION                         1603
B0101406330472022028001VALDEZ INVESTIGATION PROTECTIVE                         11603
B0101406330472022028001SECURITY AGENCY                                         21600
B0101406330472034895001PRIME MKTG. AND DIST., INC.                              1603
A0101406330472296884001JAYLEE TRADING                                           0502
A0501400170000002354623CARDOZO, JENNY MAE GARCIA                                0501
A0501400170000002357326DE LEON, JOSEPHINE ESPANOL                               0501
B0501400170481015881001TOYOTA DAGUPAN INC.-2                                    1615
A1901400160491059787001DR. GRACE G. CATAPANG                                    0501
B1401400110492044819001ACYATAN & CO., CPA'S                                     1601
A1601400170000000497423MENCHU R. BUADO                                          0501
A0701400260495821100608**********                                               0503
B0701400260495821200608**********                                               2001
A0101407430503736499001CECILIA P. REVAREZ                                       0501
B0101403580511697760002SUNNYBING INTERNATIONAL TRADING                         11603
B0101403580511697760002CORPORATION                                             21600
A0101405940000001534269**********                                               0501
A0101403450000001770043***********                                              0501
A0101403450521238152001**********                                               0501
A0101403450521238152002**********                                               0506
A0101403450521238152003**********                                               0501
B0101403450521821200608**********                                               2005
B0101404000551038492001UP STAGE RESTAURANT & BAR CAFE INC.                      1601
A0101404000551632826001NARVASA, EVALOR DEL ROSARIO                              0502
A2201400250561478374065EMILY V. ANTONIO                                        10501
A2201400250561478374065MEMBERS OF NATASHA                                      20500
A0101404130601521127001TIMBANG, AMELIA MENDOZA                                  0501
A0101407720000004658328GALLENERO, JENNETTE TOLEDO                               0502
A0101409920000001539533DELA CRUZ, GRACE MARY RAMOS                              0501
B0101407690652045019001AXIS ROOF SERVICES                                       1602
A0101407690652377213001ASPE, NILO OR ESMERALDA                                  0503
A0101407690652462352001DYTOC, JULIET SIA                                       10501
A0101407690652462352001OR FELIZA DYTOC                                         20500
A0101407690000000913586BASTIDA, MARICAR - DEALERS OF                           10501
A0101407690000000913586SHOECAT INC.                                            20500
A0101413990000000726512CASTRO, GIZA ATENDIDO                                    0501
A0101413990000000726512****                                                     0501
B0101413990657821100608**********                                               2002
B0101413990657821200608**********                                               2001
B0101406590662059749001GOLALIAN PROPERTIES INC                                  1601
A0101410300000002375788JUSTIN DEO A GONZALES                                    0502
B1301400210682016750001JFL AGRI VENTURE SUPPLIES                                1610
A1301400210682034897001FLYING EAGLE BAG MANUFACTURING                           0501
A0101408240000002381386MILLARES, MIRACLE TAZEL                                 10502
A0101408240000002381386RODRIGUEZ                                               20500
A0101408240711406502001MA. THERESA SAN LUIS OR                                 10501
A0101408240711406502001HERNAN SAN LUIS                                         20500
A0101408240711647541001SALVADOR, PAUL LLAMAS                                    0501
B4101400130811821100608**********                                               2003
B4101400130811821200608**********                                               2001
A4101400260000002888346CLAUDIA M. NABOS                                         0501
A4101400260812616831001FLORA S. CAMO                                            0501
A4101400390000001732510DANSECO, JEMARIE DIAMANTE                                0501
B4101400420814016269002DAMAYAN SA ANABU II B CREDIT COOPERATIVE                 1603
A4101400420814520766039SORIANO, JOAN MONTECILLO                                 0501
A4101400420000000120696CARMELA G. ROMA                                          0501
B0101404840851041585003TOM'S WORLD PHILIPPINES CORPORATION                      1603
A0101404840851520766073ELIZABETH A. SUAZO                                       0501
A0101404840851681382001PALOYO, CHONA DE VILLA                                   0502
B0101406750852033894088AVELICON MARKETING CORPORATION                           1602
A0101406750852673534001TOLENTINO, DEBORAH SARAH D OR                           10502
A0101406750852673534001DE LEON, RUBEN L                                        20500
A0101406750852687669001ALVAREZ, PRESENTACION M. OR                             10501
A0101406750852687669001ALVAREZ, MA. PRE                                        20500
B0101406750852821100608**********                                               2003
