B0101408790383821100608**********                                               2005
A0101408530000010426176GIAN PAULO G. DELA RAMA                                  0501
A0501400170000009953917MAGLIBA, ESTRELLITO VILLENA                              0501
A0101411240000010581405GUTIERREZ, RACQUEL FEDERIZO                              0501
A0101400860011447798002**********                                               0502
A0101400860011465021001**************                                           0502
A0101400860011541134002**********                                               0502
A0101400860011605108001**********                                               0503
A0101400150000000253278GELANO, ANGELO RECTO                                     0501
A0101400150000002902445QUERQUEZ, LETICIA ENRIQUEZ OR                           10502
A0101400150000002902445QUERQUEZ, ARNEL NOGALES                                 20500
A0101400150000010296938BLASURCA, ERLIND GENIVIEVE PAMB                          0501
B0101400150061040558001CORDILLERA EXPLORATION CO., INC                          1601
A0101400150061316369006ALEX LI                                                  0501
A0101400150061739693001***********                                              0501
A0101405810072374800001**********                                               0505
A0101410560000000020195LELIANE D. TORRES                                        0503
A0101400730111478374112STO DOMINGO, CONSTANCIA                                 10502
A0101400730111478374112CHARLENE                                                20500
A0101400440000000029423ROBINA P. OTAZA                                          0502
A0101400440161045289001RAPTURE CAFE' BAR                                        0502
A0101400440000000029401ANGEL, HELEN VILLANUEVA                                  0501
A0101401090000000772361CRUZADA, KATHLEEN NGITNGIT                               0501
A0101401090171198365001JHONA L. FREO                                            0502
A0101401090171200238001EDEN G. TOLENTINO                                        0502
B0301400530000001409741ROBLES, EDDIE DBU VICTORIA CONSTRUCTION                 11602
B0301400530000001409741CELEDONIA ROBLES                                        21600
A0301400530193593884001SADINO, RUCYLL S. OR                                    10501
A0301400530193593884001SADINO, RONALD B                                        20500
A0301400950000002251970CEZAR B. BETONIO OR                                     10502
A0301400950000002251970EMMA M. BETONIO                                         20500
A0301400950000002115582************                                             0502
A0101401380201493851001ALFECHE, GREGORIA REDOLLA                                0501
A0101413600000003851267ERWIN T. CAPISAN                                         0502
A3101400160221377318001JOVAN A. CHUA OR                                        10501
A3101400160221377318001AILEEN GRETCHELLE A CHUA                                20500
A3101400450000000163506PEREZ, RAFAEL SALAMAT                                    0502
A3101400870225478374002BODORAYA, RUZIEL RAMOS                                   0501
A3001400130000008264762RICHELLE SUMIPO DRESSED CHCKEN                           0502
A3001400130230478374004BALABA, JANETH BORJA                                     0501
B1001400190231014206001PANABO MULTI-PURPOSE COOPERATIVE                         1610
A1001400190231283324001GICABAO, BENY CHAN OR                                   10501
A1001400190231283324001GICABAO, VILMA A                                        20500
A1001400190231295205002ANG, SIOK BIN                                            0501
A1001400190231520766009MAGBUNAG, CONSORCIA TORRES                               0501
A1001400350000000922190RIVERA, JACKIE LOU VILLAROYA                             0502
A1001400350233528399003KO, JOSE NELSON AND                                     10501
A1001400350233528399003KO, CHARMAINE                                           20500
A1001400480000000133371BINUAG, MARGARET MANGALLAB                               0501
A1001400480000003357691ANG, ANDY MAN CHUNG CHANG                                0503
B1301400760000002346130GARY MATEO                                               1601
A1301400760000010743223CORDOVA, MARK LOUI RUBIO                                 0501
A1901400290000001975346RASMIA MIMBALAWAG LUMACTOD                               0501
A1901400290261390520001JOEL PUNZALAN DIMAANO                                    0502
A1901400290261478374009LEILA LUMANGLAS OLAVE                                    0502
A0101401670000002341646TAN, HINES HENRICSON TAO                                 0501
B0101406460272017891003*****                                                    1601
B0101406460272033354001****                                                     1601
B0101406620273046595001MCC MONEY SHOPS FINANCE COMPANY, INC                     1601
B0101406620273216139001ABANO PAMFILO PARAS PINEDA AGUSTIN                      11603
B0101406620273216139001LAW OFFICE                                              21600
A0101400570281186603001DR. RESTITUTO C. BUENVIAJE                               0502
A0101411240000002332532LAMSEN, RAMON MACASIEB                                   0502
A0501400200000005751599BALMEDIANO, MYRNA SOLIVEN OR                            10505
A0501400200000005751599BALMEDIANO, ISMAEL                                      20500
A2601400270000001009050BATTAD, AURELIO DBU AUB CONSULT                         10501
A2601400270000001009050MGT&ENGINEERING SERVICES                                20500
A2601400270000002677376KI WATER REFILLING STATION &                            10501
A2601400270000002677376TECHNOLOGY SYSTEM                                       20500
A0801400160311478374104RUBIE BAGAFORO                                           0501
A6601400120000000022328MACABUHAY, MARIA LORENA PONELAS                          0503
A6601400120314618149001DY, FRANCO NEIL TUBELLO                                  0505
A6601400120314668441002MASLOC, SHERRY AMOR GALONO                               0501
A6601400120314690205001MAMACOS, CRESILDA OR MAMACOS,                           10502
A6601400120314690205001SINFORIANO                                              20500
A6601400120000000060493ABELA, LEONITA MIJARES                                   0501
A2001400290000000724623MANGIBIN, FERDINAND MADRONIO                             0501
A2001400290000001973920OJALES, CLARISSA JUMALON                                 0501
B2001400290315049532001UMEE DEVELOPMENT CORPORATION                             1601
B2001400290315049533001UYMATIAO REALTY & DEVELOPMENT                           11601
B2001400290315049533001CORPORATION                                             21600
B2001400290315097988001UYMATIAO TRADING CORPORATION                             1601
A0101402350321478374017RIZA G. SANTOS                                           0508
A0101402510341538955001********                                                 0505
A0101409050000010671451MICHELLE VALERIE L FONTANO                               0501
B0101409050352043882001NONITO SHOES AND BAGS SUBCONTRACTOR                      1605
B0201400760374027367001HONDA CARS CEBU, INC.                                    1601
A0201401020000000056415SORELA, DBU M.P. SORELA CONSTRU                          0501
B0101402930381009171001CREDIT PILIPINAS INC.                                    1601
A0101408370000010341834CRUZ, XANDREI LUIGI RIVERA                               0501
A0101408370382209736001DRS. PAUL JESUS S MONTEMAYOR OR                         10503
A0101408370382209736001MA. NATHALIA N MONTEMAYOR                               20500
A0101408370382466978001AYLENE D. AGUAS OR                                      10502
A0101408370382466978001JAMES C. AGUAS                                          20500
A0101408790383549402001*****                                                    0501
A0101415350000009103731LACSA, JEROME RAMACULA                                   0501
A0101402770391355762051NOLASCO, ALAN B.                                         0501
A0101405490392029904001ROSH INDUSTRIAL SUPPLY                                   0501
A0101405490392170286001MARY JANE P. SABILI                                      0501
A0101405490392405331001FELOMINA S. SEBALDA                                      0501
A0301400820000006542710FEGI, JANNETTE GALEOS                                    0503
B5501400120000002949735VALEENLAND REALTY CORPORATION DBU                        1602
A5501400120000006976961ELISAN, JOHN CRIS DEDEL DBU JCE                          0502
A0101403030441378112003TY, CHRISTINE NG                                         0501
A0101403030441415037001**********                                               0503
A0101403030441594340001**********                                               0501
B0101403320471009043001ABCOR INDUSTRIAL CORPORATION                             1605
A0101406330472296884001JAYLEE TRADING                                           0504
A0101410140000006015407EDORIA, DBU MLE VALVE ENTERPRIS                          0505
A0101410140475339949001SANTOS, ADORACION SANCHEZ OR                            10505
A0101410140475339949001SANTOS, MYRNA SA                                        20500
B0101412760000002068128RUFO'S FAMOUS RESTAURANT SYSTEMS, INC.                   1606
A0501400170000006300629GAZMEN, ARNEL GERARD RAYOS                               0502
B3801400170000000018777ANTONIO CATIBOG II OR ZENAIDA CATIBOG OR                11605
B3801400170000000018777HAZELYN ACEDERA                                         21600
A1401400110492220730002MOISES G. DOLLANO JR.- MGDJ                             10502
A1401400110492220730002CONSTRUCTION                                            20500
A1401400110492674430001SALCEDO, LORENA ALBRANDO                                 0501
A1401400110000000132841*******                                                  0501
A0101403580511150629008MIRIAM HIPOLITO OR RAMONA PENA                          10501
A0101403580511150629008OR GERALDINE LIMOSNERO                                  20500
A0101403580511387392001VASHI BALANI OR HARSHA BALANI                            0503
A0101408530000000594252ROCES, ANTONIO VARONA                                    0501
A0101403450521387553001**********                                               0505
A0101404130601450865001GINA M. COLLIN                                           0502
A0101404130601451592002LINDA A. IBUNA OR MARY ANN I.                           10506
A0101404130601451592002PASTRANA                                                20500
A0101407720000000510869ESTEBAN, JOCELYN CANDA                                   0501
A0101407720602162070001DR. CLEMENTE GATMAITAN OR                               10503
A0101407720602162070001CARLOS P. GATMAITAN JT                                  20500
A0101407720602466238001EDUSMA-DY, REGINA TAN                                    0503
A0101404260611335308002ALIMBOYONG, JOSEPHINE MAHINAY                            0503
B0101409890649044639001BISKWIT CO.                                              1602
A0101409920650062968001OTACAN, GRACY-AN DBU                                    10501
A0101409920650062968001CARBONCOLLECTIVE GRAPHIC                                20500
A0101413990000010737432ONG, SUSANA DIENZO                                       0501
B0101406590662067304001MOSCONI TOURS, INC.                                      1601
A0101406590662479001001BAUTISTA, AMY CARTABON                                   0501
A0101408240711372563002ZAMORA, RITA OR ZAMORA, MILETTE                         10502
A0101408240711372563002LOPEZ                                                   20500
A0101408240711449303001MORALES, PEARL MERCEDES ARCACHE                          0501
A4101400260000006043403RAPISTA, JOHNNY APISTAR                                  0502
A4101400390000000048519ROSALDA, ANNABELLE MECATE                                0504
B4101400420000007305360VIC IMPERIAL APPLIANCE CORP.                             1601
A4101400420814478374122AGUILO, RODENA T.                                        0501
A4101400420000006643490LA AS, NORA P.                                           0501
A4101400420814520766108ESPANOLA, MERELY C.                                      0502
A4101400420814568084001MILAN, ARLENE LARA OR                                   10501
A4101400420814568084001MILAN, RODEL BER                                        20500
A0101412340000003345480LIA A. PUNONGBAYAN                                       0501
A0101404840000005820526BUYERS AND SELLERS DISTRIBUTORS                          0501
A0101406750852321956001RODOLFO M. REYES OR                                     10504
A0101406750852321956001TERESITA S. REYE                                        20500
B0101406750852456290001**********                                               1602
A0101406750852478374061GUILLERMA FERRERAS                                       0501
A0101405070861385924001GRICO, EDWIN A. OR                                      10502
A0101405070861385924001GRICO, MARY LEE                                         20500
A0601400230891471229001LOLITA C. CRUZ                                           0501
