F0201400180181065335001C. KOK INTERNATIONAL CORPORATIO                          2601CK1
F0101406620273031145004KOHL INDUSTRIES CORPORATION                              2603CK1
F0101400570281406972001JERRY Q. CHUA, M.D.                                      2501CKO
F0101402930381046591003ALGARR CORPORATION                                       2604CKO
F0101408240000003501431CONCIERGEMED CLINIC INC.                                 2601CK1
