B0101401670271821100608**********                                               2005
B0201400180181821100608**********                                               2010
A0101412890000001056440CRUZ, PAULITA BERNARDO                                   0502
A0101412890000002324192*************                                            0503
A4101400420814335947001VILLAR, PERLA RODRIGUEZ                                  0501
B0101410850000003503733DELTA FIVE AGRI-VENTURES CORPORATION                     1606
A2201400250561478374006ANGELINA P. QUIBALLO                                    10501
A2201400250561478374006MEMBERS OF NATASHA                                      20500
A4101400260812246078001EMILANIE J. ESTOCADO                                     0503
A0101400150000000253472EMATA, ROMULO OLANO                                      0501
A0101400150061055752048SUGUITAN, RICARDO JOSE CHUA                              0501
A0101405810000005314943CRUZ, JOSEFINA FALLER                                    0501
B0101405810072040696002PLASTIC TECHNOBAG CO. LTD.                               1602
A0101405810072234892001**********                                               0501
B0101405810072412798001**********                                               1603
A0101405810072574589002CHEN, BINGHUI WANG                                       0505
B0601400520000000398545BHELLE-SOLAR PHILIPPINES CORPORATION                     1601
B0601400520000002085890**********                                               1602
A0101410850000003101913DIA, ELVIRA ALEGRE OR DIA,                              10502
A0101410850000003101913ABNER NATHANIEL                                         20500
A0101401960000006004422***************                                          0501
A0101407270162203614002ROBERTO LEYBA                                            0501
A0101407270162421293007YOLANDA L. DE ALBA                                       0501
A0101401090171197692001NINIA I. CALACA                                          0501
A0301400950000002115242**********                                               0501
A0101401380201710619001ALMOGUERRA, ALONA ERATO                                  0502
A0101410720000007017438ACOSTA, ANNEMARIE VERBO DBU 7OR                          0501
A3101400450223042107001SY, REMELIE DBU SOLIDCHEM                               10503
A3101400450223042107001MARKETING ENTERPRISES                                   20500
A3101400450223356672002PANGHULAN, JORGE OR DERLY                                0501
A3101400740224654505001PASAGUE, MA. JINKY VENERABLE OR                         10501
A3101400740224654505001PASAGUE, JOSE DE GUIA                                   20500
A1001400190231394585002AGUDO, DAVID CALO                                        0501
A1001400190231520766083ASUNCIONITA G. ALBULADORA                                0501
A1001400190000002170769JUGAN, NOUE MALOLOT                                      0501
B1001400350233039884008SOUTHMIN FOOD CHAIN CORPORATION -                       11605
B1001400350233039884008JB SUPERCENTER                                          21600
B0101406620273009530001MCRP CONSTRUCTION CORPORATION                            1605
B0101406620273033463001ARL BUSINESS CONSULTANCY, INC.                           1602
B0101410980000000171997FUNTOURS TRAVEL CORPORATION                              1601
A2601400270000000561671EDGAR D. ZARA                                            0502
A1101400120000003595999REYNA, JOSE ANTONIO DAJIME OR                           10502
A1101400120000003595999REYNA, LILIBETH DOLORES P                               20500
A6601400120000003673090CULA, ROSAL ARANZADO                                     0502
B6601400120314083829001**********                                               1603
A2901400130000009071665CRUZ, VILLAMOR PUNZALAN                                  0505
A0101405650322551484001CHUNG, PIEN LUNG                                         0501
A0101409050000009065043CARLO A SUBIDO                                           0501
B0101409050352453830001OLIVER GERARD S. CHUA                                    1601
A0101409050352647812001MARIA LUISA L. SAPORSANTOS OR                           10501
A0101409050352647812001JOHN PAUL P. BAN                                        20500
A0201400760000000223189VAN SPALL, MONIQUE ALEJANDRINO                           0501
A0201400760374520766001CARULASAN, KRIZIA JANE BUGO                              0501
A0201400890000002270173CHAVEZ, WILLIAM LOTHO                                    0502
B0201400890000007877250EASTERN PACIFIC SHIPPING CORPORATION                     1601
A0101415350000007877943NAZARIO, MARVIN SALAS                                    0502
A0101415350000007877950SILVA, ARNULFO CHOSA                                     0501
A0101405490392178021001MARIDEL R. MENDOZA                                       0501
A0101408400000000607772PAUNTE, SIHAWI PANGCOGA                                  0502
A2401400180411501589001VALILA, NOL S. OR VALILA, MA.                           10501
A2401400180411501589001LOURDES D.                                              20500
A1201400150000000034460JOSE, GEMMALYN TANGALIN                                  0501
A0101403030441303194001**********                                               0505
A0101412890000004345022QUADRAGON SECURITY                                       0502
A0101403320471417333001GAVINO S. CRUZ OR                                       10505
A0101403320471417333001BERNADETTE T. CRUZ                                      20500
A0101410140000001074931LEYSON, JEFFERSON D. OR LEYSON,                         10501
A0101410140000001074931MARRY SHYNE C.                                          20500
A0501400170000001072684VELASCO, MARIA CRISTINA ARIZALA                          0501
A0501400170481039591001MACA DEO REGALIA REALTY                                  0501
A0501400170481043466001RUSKIN MARKETING                                         0505
A1901400160491361876001MELISA RAMOS LIM                                         0502
A1601400170000000421149EVELYN B. DELVO                                          0502
A0101407430503084195001SHERWIN A. TACHADO                                       0501
A0101405940000001047381MIRANI, DIANA NARESH  JT                                 0502
A0101405940512360728001ERWIN P. HERNANDEZ OR                                   10501
A0101405940512360728001AGNES T. HERNANDEZ                                      20500
B0101406880513039126001BLUE MAGNET MARKETING SOLUTIONS INC                      1602
A0101406880513566209003MARCELO, JOVITA                                          0501
A0101406880513573270001TURALBA JR., ANTONIO VALERA                              0502
A0101408110000003661772CABALLES, LIJEAN CARILLO                                 0506
A0101403450521238227001**********                                               0501
B0101403610531046549001BIG APPLE PLASTIC PACKAGING INC.                         1602
A0101403610531304005001ANCHORIZ, NERRIZA OR                                    10505
A0101403610531304005001ANCHORIZ, FRANCISCO                                     20500
A0101403610000006637078MORANDO, ALAN REYES                                      0505
B0101404130000002121562GOLD NUGGETS HAULING AND TRUCKING CORP.                  1602
A0101404260611427608001*********                                                0502
A0101404260611478374017BERTULANO, LUZVIMINDA                                    0501
A0101409920000006336912PANGANIBAN JR., FERNANDO VERGAR                          0502
B0101407690652422144001MELENCIO MEDEL OR CORAZON MEDEL                          1603
A0101407690652478374140BEATRIZ MANIAGO - DEALERS OF                            10501
A0101407690652478374140SHOECAT INC                                             20500
A0101407690652507990001DELA CRUZ, MA. LAUREN                                   10501
A0101407690652507990001FAMULARCANO                                             20500
A0101407690652520766035EMILDA R. TAMAYO - DEALERS OF                           10501
A0101407690652520766035SHOECAT, INC.                                           20500
A0101407690000001919899DE LEON, LIADENETH - DEALERS OF                         10502
A0101407690000001919899SHOECAT INC.                                            20500
A0101413570000001682668ARACELI C. SUYAT                                         0501
A0101413990657478374017ARCA, ROBERTO REBATO                                     0501
A0101406590662208118001CYNTHIA OR CHERYL MYLA ARCINUE                           0502
A1301400210000007669074CLIMACO, JEFFREY ELNAR                                   0501
B1301400210000005041007***                                                      1602
A0101408240000003955408MESINA, OLIVER ROLDAN                                    0501
B0101408240000000005574DLSZ (DE LA SALLE SANTIAGO ZOBEL SC                      1602
B0101408240000000832962CARMEL LAND SALES & DEVELOPMENT CORP.                    1610
A2801400230000005253430BELTRAN, JOSEPHINE SAZON                                 0501
A4101400420000000018511LAGOS, FE CAMACHO                                        0502
A4101400420814478374066QUEANO, LILIA LABONITE                                   0501
A4101400420814630690001GONZAL, VILMA HERMOSO                                    0501
A4101400550815047810001DELA CRUZ, JUN HALILI                                    0501
A0101404840851298552055SIXTA MELBA C. ENGBINO                                   0501
A0101404840851298552056ROSARIO GABAYERON                                        0501
A0101404840851520766071TERESITA SANTOS                                          0501
A0101404840851791747001BALMES, GERVACIO OR SARADAT,                            10501
A0101404840851791747001MONICA OR GALLAG                                        20500
A0101406750000005397806BADUA, JENNIFER ANASTACIO                                0501
