A0101412890000000125500EMYRITA R LLERENA                                        0501
A0101414120000004603150NACIONAL, MARIA CECILIA ABIERRA                          0502
B0101414120000000399184CANTILEVER CONSTRUCTION CORPORATION                      1602
A0101414120000000875550STORM CONSTRUCTION                                       0502
A0101414120000006005414MOST HIGH ENTERPRISES                                    0503
A0101414120000001427601ISABEL MONTERO OR CARLOSA                               10501
A0101414120000001427601TUGADO                                                  20500
A1301400470252090729001LAWRENCE G. MORENO OR                                   10505
A1301400470252090729001JOBY L. MORENO                                          20500
B0101406620273017284001ACCENT MICRO TECHNOLOGIES, INC.                          1605
A0101406620273403501001BASA, CATHERINE VIRAY                                    0501
A0101406620273521300001GARCIA, LEO MCGUIRE OR                                  10501
A0101406620273521300001GARCIA, CARMEN                                          20500
A0101412890000002747824************                                             0501
A0101412890000001056393GERONIMO, M DBU A.M.-M.A'S                              10501
A0101412890000001056393BAKERY                                                  20500
A0101411790518055815042MEDINA, DANIEL TEODORO                                   0501
A0101410690000000710661********                                                 0502
A0101400860011386392002**********                                               0503
A0101400860011387667001**********                                               0501
A0101400860011432973001**********                                               0505
B0101401250021044358001PASAY CITY ALLIANCE CHURCH                               1604
A0101400150000000525251TAGALAG, MICHAEL AGAPITO OR                             10502
A0101400150000000525251TAGALAG, ROCHELL                                        20500
A0101400150061088084001ADZUARA, ELOISA TANECA                                   0501
A0101400150061226387002**********                                               0504
A0101400150061365731001BASILISA R. ROBEA                                        0503
B0101400600071233748002**********                                               1601
B0101400600071325133001**********                                               1602
A0101405810072235171001**********                                               0505
A0101405810072367597002WANG, GUO YANG                                           0502
B0101405810072367597005***************                                          1602
A0101405810072400768001MONTIEL, MARILYN ESQUERRA                                0501
A0101410850000003101888FLORENTINO, JOYCE DINO                                   0501
B0101410850109045828001OLOVUS MULTIRESOURCES INC.                               1602
B0101410560000000757240BALTAZAR, BEATRIZ POLO AND GARBILES,                    11601
B0101410560000000757240LETICIA MORILLA                                         21600
A0101400730111347787002CHAVEZ, LYNN FLORENTINO                                  0501
A0101400730111382955001PRADO, EDWARDO BAARDE                                    0504
A0101400730111386485155EVANGELINE F. TUMAMAO                                    0501
A0101401960121239548001MELANIE YAO                                              0501
A0101412630000006174507MENDOZA, EDISON ANGELES                                  0501
B0101401830000000033605CARITAS SALVE CREDIT COOPERATIVE                        11604
B0101401830000000033605(QUIAPO-005)                                            21600
A0101401830141581965001REALUBIT, ANGELA LOPEZ                                   0501
A0101400440161039572023JIMMY S. PALISOC                                         0501
A0101400440161591337001JENESSEY A. RANCES OR                                   10502
A0101400440161591337001JESSIE O. RANCES                                        20500
A0101401090000000993295VALMOJA, ESTELA OR GERARDO OR                           10501
A0101401090000000993295VALMOJA, ROQUITO                                        20500
A0301400530000003573426ASNE, BEDASTO DBU NL BAKERY                              0503
B0101410720653036522001**********                                               1605
B0101410720000000029850NORDHOFF ENTERPRISES INCORPORATED                        1601
A0101410720653286682002MACAISA, MICHELLE ABADA                                  0502
A0101410720653385187001SERVILLANO H. GALVEZ JR. OR                             10504
A0101410720653385187001KAREN F. GALVEZ                                         20500
A0101410720653768067001DELOS REYES, MA. ERIKA WONG                              0501
A3101400160000005459889BITANCUR II, JESUS PESITO                                0506
B3101400160221045869001LICEO DE CALAMBA                                         1601
A3101400450223489008001SIO, MINNIE REGINA OR JOSELITO                           0501
A3101400740000001692457MALABANAN, MILANNIE G. OR                               10502
A3101400740000001692457MALABANAN, ROHNELL C.                                   20500
A3101400740000006160663TERRONES, JAYSON ANILA OR                               10501
A3101400740000006160663TERRONES, MARIE ANGELINE                                20500
A3001400130000005446340BALANGA, MARIO FERNANDEZ                                 0501
A1001400190000006174730ZUERGEL M. ILONGO                                        0501
B1001400190231300482001ORO SOLID HARDWARE, INCORPORATED                         1605
A1001400190000002170543NIEVES CABASAN                                          10501
A1001400190000002170543NATASHA MEMBER                                          20500
A0101406460272466369001COSTALES, FE MYBELLENE AGUILAR                          10501
A0101406460272466369001OR COSTALES, ART                                        20500
A0101406620000000193628ACEDILLO, MA. JULIET DASIG                               0502
B0101406620273037236001SANTOS SANTOS & SANTOS LAW OFFICES                       1601
B0101408660000001940610WESTMINN CONSTRUCTION AND DEVELOPME                      1602
A0101408660274478374012ELSA R. ETCUBANAS                                        0501
A0101400570281200175001MARLENE M. GONZALES                                      0501
A0101400570281343717001MARIA MARGARITA REGUDO ALMORO                            0506
A0101400570281423865002RIBAYA, VICTORIA CABRERA                                 0501
B0801400160311035991001HAPI ILOILO CORPORATION                                  1601
A0801400160000001031387DIMATULAC, NENITA MENDERICO                              0501
B6601400120314045385001SANVIC SUPERMART INCORPORATED                            1610
A2001400290000000978269UYMATIAO, CATHLEEN AMIL                                  0503
B0101402350321046815001CASA DE SEQUOIA-AVILA CONDOMINIUM CORP                   1603
A0101402350321542967001ABUNDIENTE, JONATHAN GUMBA                               0501
B0101402350321738079001OLIVAREZ GENERAL HOSPITAL INC.                           1610
A0101405650322093557001CUEVAS, MA. DONATA NADINE OR                            10502
A0101405650322093557001CUEVAS, RAFAEL                                          20500
B0101402510341021863002SAN BEDA COLLEGE UNION (SBCU)                            1601
A0101402510341381018001DANICA FRANCIA SANCHEZ CAUDAL                            0501
A0201400760374625964001SOLON, ENRICO MENDOZA                                    0502
A0201400920375512966002LIM JR., MANUEL OR LIM, IMELDA                          10502
A0201400920375512966002OR LIM, SANTIAGO                                        20500
A0101402930000000859770METT MOTIVATIONAL ENGLISH                               10502
A0101402930000000859770TRAINING                                                20500
A0101402930381480832001MATEO M. ROA III OR                                     10503
A0101402930381480832001AMANDA SUZZANE L                                        20500
A0101402930381563813001MARIA TERESA M. CASTRO OR                               10502
A0101402930381563813001EDWARD P. LIM                                           20500
A0101411660384047607001QUEEN'S LAIR HAIR CARE AND                              10502
A0101411660384047607001BEAUTY SALON                                            20500
A0101402770000000360701KELLY TAN CHAN                                           0501
A0101402770391404096001******************                                       0502
A0101402770391404096002MYLENE B. PANLILIO                                       0503
B0101408400394027710002PATEROS-FORT BONIFACIO TRANSPORT SERVICE                11602
B0101408400394027710002COOPERATIVE                                             21600
A0101408950000003983499VILLARUZ III, NICOLAS JUELE                              0501
A0101409180000005326261KALALO, MERBERT JOSEPH ARCALAS                           0501
A0101412210399094817001JANE T. URBANEK                                          0501
A0101412210000003448548BRIOSO, MA. KRISTINA MONICA                             10501
A0101412210000003448548MIRASOL                                                 20500
A0301400820000002271990ORGE, ROWENA F.                                          0502
A2401400180000002284131GARCERA, MARK ZEANREH HERNAEZ                            0501
A2401400180411478374035MERLINDA D. TAMUDTAMUD                                   0501
B0901400220000000012175FLORIVEL M. DE JESUS ACCOUNTING OFFICE                   1602
A0101403030441239725001**********                                               0501
B0101403030000000008875TAN, ANTONIO SY                                          1601
A0101403320000000037669ROBRIGADO, VIRGINIA BUADO                                0501
B0101410140475047994001PASIG PARISH CREDIT COOPERATIVE                          1604
A0101410140475738965001GERERO, MARITES LANGUITA                                 0505
B1601400170494060167001JERRY PO DBU LEGAZPI REPUBLIC COMMERCIAL                11605
B1601400170494060167001OR ERLINDA PO                                           21600
A0101407430000004687447ROWENA G. ALVIDERA                                       0504
A0101405940000005359833MAGUDDAYAO, GILDA PANGUIO                                0501
B0101405940512023092001CONSUNJI & BONIFACIO LAW OFFICES                         1603
B0101406880513038002001JEFCON INCORPORATED                                      1602
B0101406880513048150001GREEN ROCK CONSTRUCTION AND DEVELOPMENT                 11602
B0101406880513048150001CORPORATION                                             21600
B0101406880513281235002LUCKY MONEY LENDING CO., INC.                            1603
A0101406880513525692001RAFANAN, JOSELITO VILLASTIQUE                            0501
A0101408530516571877076GIOVANNI C. BROCOY                                       0502
A0101411400000002301171*****                                                    0502
B0101403450521017837001**********                                               1601
B0101403450521024382001KERRISDALE LANDS CORPORATION                             1601
A0101404000000003950710DENNIS C AQUINO                                          0501
A2201400250000001932247CLDH EMPLOYEES CREDIT                                   10502
A2201400250000001932247COOPERATIVE                                             20500
B0101404130000000321560ASSIST AND ASSISTANCE CONCEPT INC.                       1603
B0101404130601450518001GEORGE T. SIY &/OR ANGELINE SIY                         11602
B0101404130601450518001FIECHTER ET AL                                          21600
A0101407720602161863003ROBERTO K. MACASAET OR                                  10502
A0101407720602161863003VIRGINIA M. RAFA                                        20500
A0101412180000001293385CRUZ, ALICE STREEGAN OR                                 10502
A0101412180000001293385CRUZ, JOSE GERARDO ANONAS                               20500
B0101404260611022505002SEAA CORPORATION                                         1603
B0101404260611043675001CIS BAYAD CENTER, INC.                                   1603
A0101404260611385639001SUSANA G. HERNANDEZ                                      0502
A0101413990000001947128MARS STONE SUPPLY                                        0501
B0101414120000003584281JD & P FOOD TRADING CORPORATION                          1601
B1301400210682009648001CHRIST'S COMMISSION FOUNDATION, INC                      1604
A1301400340000000926789********                                                 0502
A1301400340683495036001MARCELO, ELENA RIVERA                                    0510
A1701400230693795959001FREZ, DAVID CLETO                                        0501
B2801400100712024726001SWEET TOOTH CORPORATION                                  1610
A4101400260000000974089BONGLO, JAIMIE LOUISE MIGUEL                             0501
A4101400260000001135011OMELGO, RAMIL MERSADO OR OMELGO                         10501
A4101400260000001135011MARIVIC PARAN                                           20500
A4101400390000003389560LIGAYA, MARIA LESLEY VILLANUEVA                          0501
A0101412340000003438657HAM, ESTHER NORIAL                                       0501
A0101404840000000475985DE GUZMAN, M DBU VERAZZA HOTEL                           0505
A0101404840851478374071MARITESS C. CASARILLA                                    0501
A0101404840851520766163JOCELYN ANONUEVO                                         0501
A0101404840851572213001VENTURA, JAYDEE MANICSIC                                 0502
A0101405070861372200001ERLINDA M. DE JESUS                                      0501
A0101405070861478374054LUZVIMINDA T. PONTANAR                                   0501
A0101405070000003439741ALARO, JHON REY PADURA                                   0501
