F4101400260000001198745VILLANUEVA, MARIA VILINDA ENDAY                          2502CKO
F0101400150061426516001GUINGON, MARGARITA RAFFINAN                              2501CKO
F0201400180001815500841ONG, PACITA YU                                           2602CKO
F1901400290261035027001GREEN NATURE FEEDMILLING CORPORATION                     2603CKO
