A0101420680000016277106CAI, HUADU ONG                                           0502
A0101420680000016277533SO, YIN HUNG CINLY                                       0501
A0101407690000017376673QUIRINO, DENICE ANTONETTE FAILO                          0501
A4101400260000012864876DAYAO, ADELINE                                           0501
A4101400260000012869833VIRTUCIO, MIRACLE                                        0501
A4101400260812482906002BARZAGA, MILAGROS TRINIDAD                               0505
B0101410560000008979286BANG'S REALTY CORP.                                      1605
A0101402930000007031158PINOL, RANDY CALINGAO                                    0502
A0101403610000017801504NATIVIDAD, ROSALIENE AMOR MARTI                          0501
A0101403610000017815682PINERA, RELLY MATA                                       0501
A0101403610531219335003MANGUNE, MACARIO C.  OR                                 10502
A0101403610531219335003MANGUNE, RITA R.                                        20500
B0101403610000006637114RD PAWNSHOP, INC.                                        1603
B4101400260000006043512MEGATECHNIP INCORPORATED                                 1601
A0101400860000005313126*******                                                  0510
A0101400860011389612002**********                                               0502
A0101400860011462040002MERCADO, EDITHA PATIAG                                   0502
A0101400860011663274001**********                                               0502
A0101400150000003218373GRISELDA B. TESORO                                       0501
A0101400150000003601141FANDINO, NATHANIEL ROSS OR                              10502
A0101400150000003601141FANDINO, MARGARITA ANNA                                 20500
A0101400150000004090351CRUZ, ENRICO SALONGA                                     0501
A0101400150000011138337ZAIDE III, RAFAEL LIM                                    0503
A0101400150061010949002BELLO, RONALDO Y.                                        0501
A0101400150061227493001OLIVIA R. SUSA OR                                       10501
A0101400150061227493001JOSE B. SUSA                                            20500
B0101405810072011448001C.P.P.C CONSUMER PACKAGING PRODUCT CORP.                 1603
B0101405810000005943331TRANSWELL ENGINEERING CO.                                1601
B0601400100081013321001BIO-TECH MARKETING CORPORATION                           1604
A0601400100081040683001AMGAT WELLS & PUMPS INC.                                 0501
B0601400100081251412001TAN, WILFREDO OR MARIANO                                 1610
B0601400100081251751006TAN, WILFREDO OR TAN, MARIANO                            1602
B0601400100081251751012TAN, WILFREDO MANARANG OR TAN, MARIANO                   1602
A0601400360000013101772EMILY M. ROQUE                                           0501
A0601400520000005001301MANUCUM, RIZALITO TANGLAO  OR                           10503
A0601400520000005001301MANUCUM, MAURA P                                        20500
A0101410850000003101902HERNANDEZ, DBU R & D MOVERS                             10505
A0101410850000003101902TRUCKING SERVICE                                        20500
B0101410560000000757240BEATRIZ BALTAZAR & LETICIA GARB                         11601
B0101410560000000757240& CORAZON FELIX                                         21600
A0101400730000000412046TAN, PRAXEDES OR TAN, RAYMOUND                          10503
A0101400730000000412046OR TAN, MIKHAIL                                         20500
B0101401830000017807326CALANGI, IMELDA MAGTIBAY DBU TOPNATCH                   11601
B0101401830000017807326FREIGHT INT'L                                           21600
B0101400440000003766887STARCOM MANPOWER AND ALLIED SERVICE                      1605
A0101400440161525001111MA. MARILOU A. ARAFILES                                  0501
A0101400440161591337001JENESSEY A. RANCES OR                                   10502
A0101400440161591337001JESSIE O. RANCES                                        20500
A0101407270000016485315LEANDADO, MARIVIC ROQUE                                  0502
A0101401090000001611416GALANG, MARK QUAZEN TAPAZ                                0501
A0101401090000000993375CARPIO, MARITES AGUBA                                    0501
A0301400530000013780895CUYOS, ANDY LACIA                                        0502
B0301400530193082909001BALILI, CELSO J. OR                                     11610
B0301400530193082909001CEPEDA, SHERLY B                                        21600
A0301400660000006755213MINDANAO BUTCHERS & CO., INC.                            0501
A0301400790000003969495DONAIRE, RITCHELLE JOY AL-AG                            10502
A0301400790000003969495OR DONAIRE, JIM LABASBAS                                20500
B0301400790000012624383DABA-DABA MANPOWER SERVICES, INC.                        1601
A0101410720000017509423DE GUZMAN, EMMANUEL JAMES DBU                           10504
A0101410720000017509423UPSOURCE GLORY BE TO GOD                                20500
A0101412500000017859631GERVACIO, MARIA GINA ESPIRITU                            0501
B3101400160221037479001TABLERIA LA CONFIANZA CO., INC.                          1601
A3101400160221222009001REYNALDO A. GEDORIA OR                                  10501
A3101400160221222009001MA. EVANGELINE O. GEDORIA                               20500
A3101400450000014311752PARAISO, JESUS GERARD OROSA                              0503
A3101400870000017838418SERILLANO, SHIERA DOMINADO                               0501
A1001400190000011826772AGBUYA, GUILE CATLI                                      0501
A1001400190231394585002AGUDO, DAVID CALO                                        0501
A1001400190231520766019GO, JUDITH SATURNO                                       0501
A1901400290261042311007DR. AVITO SAGUN NICANOR                                  0501
A1901400290261247580001ERLINDA R FORTES                                         0502
B0101401670271034697001ROPER CONSTRUCTION CORPORATION                           1606
A0101401670271188321001ALFONSO C. STO. DOMINGO OR                              10503
A0101401670271188321001DAHLIA P. STO.DO                                        20500
B0101406460272011530003GLOBE TELECOM, INC.(3)                                   1603
B0101406460000001231656EASTGATE COMPUTER CORPORATION                            1601
B0101406620273031207001TANVIC REALTY CORP.                                      1602
B0101412470000014657431GOLDRICH RESOURCES AND DEVELOPMENT                      11606
B0101412470000014657431CORPORATION                                             21600
B0101412470000003847507SUGARLAND GLOBAL HOLDINGS INC                            1603
A0101400570000017816383REYES, JUAN CARLOS CABISAG                               0501
A2601400270000011415255ALLAN B. CHING                                          10505
A2601400270000011415255DBU SAKURA RICEMILL                                     20500
B08014001603110189040013 TOPS TRADING                                           1610
B0801400160000002676793TRI-LINE CAR CARE CENTER                                 1603
A0801400160311269696001MARY TIU OR ALICE TIU OR                                10505
A0801400160311269696001CAROLINE TIU                                            20500
A1101400120000013536711MARISSA A. LUCIDO                                        0502
A6601400120314612859001CHAN, ARTURO C.                                          0502
B3401400280000006791042CRYPTO CAFE AND RESTO BAR INC.                           1610
A0101405650000006893298UNISA, DEMMAR MAGNAYE                                    0501
A0101402510341199103002********                                                 0503
A0201400760000011472449AGUINALDO, NIZA GORTIZANO                                0501
A0201400760000017838236PANARA, ALEJANDRIA CABILAO                               0501
A0201400760000013668892CAMAY JR., DOMINADOR NOVAL DBU                          10510
A0201400760000013668892DJ GUESTHOUSE HOTEL                                     20500
B0201400760000000033310SAM SOWAH SHIPPING CORPORATION                           1602
A0201400890000011827122ONG, LARRY ROY CLIMACO                                   0504
A0201400890000000027990MULLEY, AIRIZA ACIDO                                     0501
A0201401020000005250657VILLANUEVA, RAINIER B. OR                               10502
A0201401020000005250657VILLANUEVA, VICTORIA D.                                 20500
B0201401020000003031209ELECTRICITY TRANSMISSION SUPPLIES C                      1602
A0101402930920130000105SIGARRA, MARIA KRISTINA ANN ALC                          0501
A0101402930381063874001\ASCUA, J DBU BEYOND D' NUMBERS                          0502
A0101408370382336346001DR. MA. FAIDA R. REYES                                   0503
B0101402770000000080613SPRAYED POLYURETHANE FOAM SYSTEM                        11604
B0101402770000000080613CORPORATION                                             21600
B0101402770391752292001JUANITA OR TOMAS OR BENJAMIN                            11601
B0101402770391752292001VICTORIA                                                21600
A0101402770391757431003HAYDEE CHAN OR PAULINO CHAN                              0501
A0101405490392170286001MARY JANE P. SABILI                                      0502
A0101405490392547709001FLORA AVILA SARMIENTO                                    0501
A0101408400000012043804GAUNT, ESTHER LILY ALONTO                                0501
A0101408400000017837966J & E ELECTRICAL ENGINEERING SE                          0501
A0101408950000010888807JAMES MICHAEL C. LAYON                                   0501
B0101408950000008364494GLOBAL CITY CAR LEASE & TRANSPORT CORP.                  1603
A0101408950000010111283CRISTI-LIMSON, MARGARET JOYCE A                          0503
A0101409180397635600001MANALO, JOSHUA ALEXANDER S.                              0501
A0301400820000010907229DUREMDES, RICKY R.                                       0501
B0301400820409091735055LIMA, WINDELL BRISTOL DBU DAVAO HOME                    11601
B0301400820409091735055BUILDERS CENTER                                         21600
A2401400180411577135001***************                                          0501
A1201400150000016104475SEMSEM, HILDA BULANADI DBU                              10501
A1201400150000016104475RE-VISIO                                                20500
A5101400100000010371289BARDON, RUEL PALAHANG                                    0503
A5101400100000010371461ACTUB, JONELYN BERNASOL OR ACTU                         10505
A5101400100000010371461B, MICHAEL CLOMA                                        20500
A5101400100000011337243BALAGULAN, ABNER TUQUIB                                  0501
A5101400100000014191567SEGOVIA, GENEVIEVE TERO                                  0502
A0101403030000005944670**********                                               0501
B0101406330000010658290TRU-SERV MARKETING CORPORATION                           1602
A0101406330472044643001A.S.P. BASIC ENTERPRISES                                 0503
A0101410140475339949001SANTOS, ADORACION SANCHEZ OR                            10505
A0101410140475339949001SANTOS, MYRNA SA                                        20500
B0501400170481015881001TOYOTA DAGUPAN INC.-2                                    1605
A1401400110000008266342DELA ROSA, VIOLETA AQUINO                                0503
B0101403580000002185413ACUMU CONSULTANTS INC.                                   1602
A0101405940000005359902YU, HENRY LEE  OR                                       10502
A0101405940000005359902YU, CATHERINE                                           20500
B0101405940512037554001THE COVENANT CAR COMPANY, INC.                           1602
A0101408530000010282856MARIEL SANDRA SANTOS                                     0501
A0101408530000017849882DELA CRUZ, RAY AN JOHN JARDIEL                           0501
A0101408530000017850052NULLA, JKRISTIANNE JADE GUINO O                          0501
A0101408530000017849893FOS, PATRICK ALLAN PUNO                                  0501
A0101408530000017847697OCAMPO, BEATRICE GAYLE AVINANTE                          0501
A0101408530000017847993AGUILAR, CHLOE ANN REFUGIO                               0501
A0101408530000017847664ESERJOSE, IVAN PICARDAL                                  0501
A0101408530000017849900FERRER, KIM ANGELICA ESTRADA                             0501
A0101408530000017850041FUNILAS, MYRA LANDRITO                                   0501
A0101408530000017849995MAGPANTAY, DIANE JANE BALIOLA                            0501
A0101408530000017850110LEYNES, ARLENE BONIFACIO                                 0501
A0101408530000000035925CASTRILLO, MILISA CAOIBES                                0502
B0101403610000012759941C. WARREN & A. UY CORPORATION                            1602
A2201400250000000141197MEMBERS OF NATASHA (SHOECAT INC                         10501
A2201400250000000141197MICHELLE C. VILLAMER                                    20500
B0101404130000004437252KING, WYDEN ROSARIO                                      1601
A0101407720602396501001LOPEZ, GARY ARANETA                                      0505
A0101407720602741510001LUCHAVEZ, ROMEL NUDALO                                   0501
B0101412180000001293072NYNE BEAUTY INC.                                         1602
B0101412180000001293083CAPTIVEIGHT INC.                                         1601
B0101404260000004781186GOLDEN ALLEY RESOURCES, INC.                             1605
A0101409920650478374009PABILONIA JR. SALVADOR B.                                0501
B0101407690652051397002FALLER, DOMINIC ESTRADA DBU D' MINOR                    11605
B0101407690652051397002ORGAN MARKETING                                         21600
A0101407690652478374128LOIDA M. MAYOLA - DEALERS OF                            10501
A0101407690652478374128SHOECAT INC.                                            20500
A0101413570656057648108MANUEL D. DOMINGO JR.                                    0501
A0101413570000000635596MEMBERS OF NATASHA                                      10501
A0101413570000000635596DOROTEA R. JACINTO                                      20500
A0101413990000001406495RENOLAYAN, LEA DELOS SANTOS                              0501
A0101413990000016684283PENA, ROWENA TANTIANGCO                                  0501
A0101413990000017847362LIM, BRYAN JAMES ALPAJORA                                0501
A0101413990000017513496SERRANO, RICHARD JOSEPH C. OR                           10501
A0101413990000017513496SERRANO, CAROLINE T.                                    20500
A0101406590662209694001MOZO JR., VIRGILIO DELA CRUZ                             0501
A0101410300000000191939CARBALLO, LUIS ANTONIO S. OR                            10505
A0101410300000000191939SALAZAR, EMMANUE                                        20500
A1301400210000002285112REYES, DINA PERALTA                                      0501
B1301400210000005041029AIROCLAD INCORPORATED                                    1602
A1301400210000005040253GONZALES, CELINE ANGELICA BUHAI                          0501
A1301400210682782329001IMELDA R LANUZA OR                                      10501
A1301400210682782329001REGINO A LANUZA                                         20500
A1301400340000017069702MARABULAS, MARITA JOSE                                   0502
A0101408240000003955380OCAMPO, MA. CHRISTINA IMPERIAL                           0502
A0101408240000006600266SISON, RONNIE CRUZ                                       0501
A0101408240000015858721BADIOLA, DIOSANGO OR                                    10502
A0101408240000015858721BADIOLA, JOCELYN                                        20500
A4101400260000016616001BOSITA, GIOVANNI RUSSEL DUA                              0501
A4101400260000010623593OBIAS, CHRISTIAN B. DBU TWINJ                           10502
A4101400260000010623593BAR AND RESTAURANT                                      20500
B4101400260000006043567JOMIJOH'S BAKESHOP INC.                                  1601
A4101400420000015368433SY, HENRY OR SY, BEATA                                   0501
A4101400550000007583900GARCIA, ALVIN ESTRADA                                    0501
B41014005500000033880491288 GLOBAL INSURANCE AGENCY INC.                        1601
A0101412340000007305757EVELYN D. ALVAREZ                                        0501
B0101412340000000031012MALATE CONSTRUCTION AND DEVELOPMENT                     11610
B0101412340000000031012CORPORATION                                             21600
A0101404840851046725002MA GERALDINE F. BOCADO                                   0501
A0101406750000016396573AQUENDE, FELY OCEDA                                      0503
A0101405070000011289086ROWENA PIOQUID MAPE                                      0501
A0601400230000003638824ABARQUEZ, EDWARD BACANI                                  0501
A0601400230000017015593MACASPAC, GLAIZA MALONZO                                 0501
