B0101408790383821100608**********                                               2005
A1101400120000003981180MENDOZA, SUSAN ORTEGA DBU FLAGS                         10501
A1101400120000003981180SECURITY AGENCY                                         20500
A1101400120000000065103BELLO, TERESITA CASTARITAS                               0502
B0101400440000005393717RD PAWNSHOP, INCORPORATED                                1605
A0101400440161444185001ELSA R. BANEZ                                            0502
A0101400440161478374040DELAILAH DE VICENTE                                      0501
A0101400440161478374189CORAZON C. BOLA                                          0501
A1101400120000006186332MAGLASANG, LAARNIE VALES                                 0502
A1901400160000012295580MICHAEL R. BARIL OR SANDRA M.                           10502
A1901400160000012295580BARIL                                                   20500
A0101400860000000100841**********                                               0505
A0101400860000003571704**********                                               0502
A0101400860000005312981**********                                               0502
B0101400860011078152001**********                                               1602
A0101400860011232964001**********                                               0503
A0101400860011421221001*********                                                0503
A0101400860011494800002**********                                               0502
A0101400860011504377002**********                                               0503
A0101400860011615415001**********                                               0502
B0101401250000000020782NEW MABUHAY INTERNATIONAL SECURITY                      11603
B0101401250000000020782AGENCY                                                  21600
B0101401250000007121308HANDWELL MAINTENANCE & GENERAL                          11602
B0101401250000007121308SERVICES INC.                                           21600
A0101401250021178990003CEDILLA, REMEDIOS SANTOS OR                             10502
A0101401250021178990003SAN PABLO, ARIEL                                        20500
B0101401250021183977001RCAM - SANTA CLARA DE MONTEFALCO                        11603
B0101401250021183977001PARISH                                                  21600
B0101411370000000018146G.I. PHILIPPINES CORP.                                   1603
A0101400150000001708265BAYABAN, MARIDEL MARBELLA                                0501
B0101400150061010768001SUPPLY OILFIED SERVICES INC.                             1601
B0101400150061010797002LA COSTA DEVELOPMENT CORP., INC.                         1605
B0101400150061010797003LA COSTA DEVELOPMENT CORP., INC.                         1605
B0101400150061023301001SUPPLY OILFIELD & MARINE PERSONNEL                       1601
B0101400150000004090219HOLCIM RESOURCES AND DEVELOPMENT CORP                    1602
A0101400150061236944181EDWIN C. VIRAY                                           0501
A0101400150061510141001MAPANAO, BILLIE TAMSI                                    0501
A0101400600071672958001*********                                                0501
B0601400100081034790001SHINMEI CREDIT AND LOANS CORP.                           1601
A0101410850000009034720ROQUE, KATRINA LIGON OR ROQUE,                          10502
A0101410850000009034720CRISANTO SANTOS                                         20500
A0101410850000000005712MACANAYA, AMELIA DBU NUMBERS                            10501
A0101410850000000005712AND LETTERS LEARNING CTR                                20500
A0101410560000001944174ROWENA PADILLA FRANCIA                                   0501
A0101401960121695029001**********                                               0501
A0101401960000001844420UY, EUGENE PAREDES OR                                   10501
A0101401960000001844420UY, JENNY DELA CRUZ                                     20500
A0101401830141473879002MALINAO, EVELYN DE GUZMAN                                0501
B0101400440000005393791TRIMOTORS TECHNOLOGY CORP.                               1602
A0101400440161459294001MARY ANN T. REGINALDO                                    0502
A0101400440161520766042MONINA H. DUKA                                           0501
A0101400440161549463001SONIA D. CARAG                                           0501
A0101400440161549556001TEODORO R. BAUTISTA                                      0502
A0101407270000006939082DELA PENA, AIDA ROSAURO                                  0502
B0101407270162034043001E-MONEYPLUS, INC.                                        1601
B0101407270000000830551POULTRYMAX OMNIS, INC.                                   1603
A0101407270162333006028BENEDICT M. CALINA                                       0501
A0101407270162493078001GINNY M. OCAMPO                                          0502
A0101407270162587936002WILFRIDO G. TIRONA                                       0501
B0101401090171016138001BETTER HEARING PHILIPPINES, INC.                         1602
B0101401090171035026002ASIAN CONFERENCE ON RELIGION AND PEACE                   1601
A0101401090171196126001ROSE JEAN P. CRUZ                                        0501
A0101401090171198150001FR. ERMITO G. DE SAGON, O.P.                             0501
A0101401090171296658001MARIA LOURDES L. EDANG                                   0501
B0301400660194044769038LUMINOUS DEVELOPMENT CORPORATION                         1615
A0301400790000002301393BARCELONA, JANET TIZON                                   0501
A0101413020000010882192**********                                               0501
A0101412500000012382531DAYO, ELIZABETH GATBONTON OR                            10501
A0101412500000012382531DAYO, EPHRAIM HERNANDEZ                                 20500
B0101412500000000041670MOLDEX REALTY INC.                                       1603
A0101413600000003851223ROMEO A. VERON JR.                                       0501
A0101413600000000206824CHESING GENERAL MERCHANDISE                              0504
A3101400870000003515171MONTALBO, EUEL DELLOSO                                   0501
A3001400130000008264682ACEBU, ESTHER MARSHA DIMAANO                             0502
A3001400130230478374239ATO, AIREN BERNADEZ                                      0501
A1001400190000001057589NORMALIS C. REYES                                        0501
B1001400480000000133257********                                                 1601
A1301400470000000061463DEUS, MARIA ELNORA DE GUZMAN                            10505
A1301400470000000061463OR TAGO, ANA LIZA VELARDE                               20500
A1301400760000005989782ALVIN D.G. SANTILLANA OR                                10502
A1301400760000005989782JOANN S. SILVERIO                                       20500
A0101401670271175533001* * * * *                                                0501
A0101406460272670689001NICDAO, ROYCE MAR HERNANDEZ                              0501
B0101406620000000193942SOURCEFIT PHILIPPINES INC.                               1602
B0101411110000000604960STRADCOM INTERNATIONAL HOLDINGS, INC.                    1605
A0101411820000005380110***********                                              0501
A0101412470000002295769CHENG, JEFF TAN OR CHENG,                               10502
A0101412470000002295769EVELYN UY                                               20500
A0101400570000012266261ORDANZA, MARY JOY PINEDA                                 0501
A6601400120000003673158REBADOMIA, RUBY IRINCO                                   0501
B0101402350321006984001INTEGRATED HYDRO-PNEUMATIC                              11610
B0101402350321006984001SYSTEMS INC.                                            21600
B0101402350321029733001PAWNCARE SERVICES INC.                                   1610
A0101402510000009178247ONG, ARNOLD VINCENT SABULARSE                            0501
B0101402510341008058002CEU ALUMNI FOUNDATION INC.                               1605
A0101402510341203647001MA. MODESTA M. MERCADO                                   0501
A0101409050000000999562PUNZALAN, SALVE MARIE SOLIDUM                            0502
A0101409050000000999619TUMAGAY, ELAINE SUMULONG                                 0501
A0201400920375525898002DUTERTE, RANDULPH LEYRITANA                              0502
B0201400890376062448001NOMADIC UNDERWATER & TOURS                               1603
A0201400890376516122001***********                                              0501
B0201401020000005109900CEBU DULCINEA HOTEL AND SUITES INC.                      1601
A0101408370000010833582FONACIER, EDMUNDO LAKAN DOMINGO                          0504
A0101408370382029940001PHIL. ACADEMY OF                                        10501
A0101408370382029940001CUTANEOUS SURGERY                                       20500
B0101408790000000599760CHILDFUND INTERNATIONAL, USA DBU CHILD                  11606
B0101408790000000599760FUND PHILS. INC.                                        21600
A0101405490000005210262ESGUERRA, EVANGELINE VITALIANO                           0501
A0101408400394515663001PAUNTE, SARAMINA PAUDAC                                  0502
B0101409210000000031238******                                                   1620
B5501400120000005492399DSSD FAMILY REALTY DEVELOPMENT CORP                      1610
B5501400120410654342008SAY, CLETO OR FELING OR HELEN OR DANNY                   1610
B5501400120410654342008SAY, CLETO OR FELING OR HELEN OR DANNY                   1601
A2401400180411038015001GENSAN ULTIMATE AUTO SUPPLY                             10510
A2401400180411038015001& HARDWARE, INC.                                        20500
B1201400150000007556252GUINYAOAN, ARNOLITA T. DBU JORDAN VALLEY                11602
B1201400150000007556252POULTRY FARM                                            21600
B0101403030441042826001G.O.H. REALTY CORPORATION                                1601
A0101412760000002067698OCANA, MA. C0NSUELO ESTRELLA                             0502
A0501400170481365467003CALLANTA, JOHN SORIANO                                   0505
A1901400160000000007401LUCAS NOEL M. ORTEGA OR                                 10501
A1901400160000000007401EDNA M. ORTEGA                                          20500
A1901400160491298552008VILMA F FALCUNAYA                                        0502
A1401400110492320667002AVERIA, SOLOMON DY OR                                   10501
A1401400110492320667002AVERIA, MA.SARAH                                        20500
A1401400110000002286826BALDONADO, WILFREDO ALCANTARA                            0501
A1401400110492479097001VICENCIO, WALBERT ANTHONY EDANO                          0502
A1401400110492643833001AGUILAR, PAUL ALLEN E. OR                               10501
A1401400110492643833001AGUILAR, JENNIFE                                        20500
A0101407430000006027903JONAS MARTIN OR MARIAN MARTIN                           10501
A0101407430000006027903DBU SIM ONE TRADING                                     20500
A0101407430503185438006LETICIA D. JIMENEZ                                       0503
A0101403580511035474001JADE INDUSTRIAL SUPPLIES                                10502
A0101403580511035474001AND SERVICES                                            20500
B0101405940000008479030MY ONE BAHAY CORPORATION                                 1601
B0101405940000008479030MY ONE BAHAY CORPORATION                                 1601
B0101405940512500844001MASTERFOODS RESOURCES INC.                               1602
B0101411790000004808106SPECTRUMED INC.                                          1602
A0101403450521238268001**********                                               0502
B0101403610531224782001**********                                               1603
A0101403610531309439001RAZONABLE JR., BUENAVENTURA                             10502
A0101403610531309439001LIBRE                                                   20500
A2201400250000003316509NESSIA JR, ALFREDO RUIZ                                  0501
A2201400250000001545580MEMBERS OF NATASHA (SHOECAT INC                         10501
A2201400250000001545580GAUDIOSA A. WAGE                                        20500
A2201400250561533057001RAFAEL R. RICAFORT OR                                   10502
A2201400250561533057001RAYMOND R. RICAFORT                                     20500
B0101404130000004437172GAME CRAFT, INC.                                         1602
B0101404130601100161001PRUDENTIAL CUSTOMS BROKERAGE SERVICES,                  11610
B0101404130601100161001INC.                                                    21600
A0101404130601310589001ANCKERMANN, CARLOS OR                                   10503
A0101404130601310589001CARMEN ANCKERMAN                                        20500
A0101407720602396501001LOPEZ, GARY ARANETA                                      0501
B0101412180000003523782DE CASTRO, DENISE LOREENA VILLAR DBU DDC                11603
B0101412180000003523782ARCHITECTURE STU                                        21600
A0101404260611478374091ROSITA LLANES                                            0501
A1301400340683660353001MILAN, ARTURO DAZO                                       0501
A0101408240000010148142OCTAVIO, RIA RIEZL STA. CRUZ                             0501
A0101408240000012379892WANIWAN, AN CATIN                                        0501
B0101408240711033174001THE MARVELS OF TRAVEL                                    1601
A0101408240711462694001FROILAN D. ANIAG                                         0503
A0101408240711667452001LU, MYLEE BAS                                            0501
A4101400260000011418118DEPANO, ABEL GONZALES                                    0502
A4101400260000001783957DEPANO, ABEL DBU EXCELLENT                              10503
A4101400260000001783957DEPANO DENTAL CLINIC                                    20500
A4101400390000000048702RICKY C. BOISER                                          0501
B4101400390000006103559LEAD WITH INTEGRITY AND GOOD GOVERNANCE                 11605
B4101400390000006103559IN HELPING COMMU                                        21600
B4101400420814041800001LOTUS CENTRAL MALL, INC.                                 1601
B0101404840851004473001PEREZ JR., A DBU CENTAUR CHEM ENTERPRISE                 1601
A0101404840851046725002MA GERALDINE F. BOCADO                                   0502
B0101404840000006365353INFINITY JOURNEYS, INC.                                  1602
B0101405070861036139001GETAWAY TOURS INTERNATIONAL, INC.                        1601
