B0101407270162821100608**********                                               2010
B0101409500473821100608**********                                               2003
B0101417680410472000011**********                                               2002
B0601400520000001706918NAGUIT JR., JOSEFINO F. OR                              11610
B0601400520000001706918NAGUIT, MHELODIE                                        21600
B0301400110191821200608**********                                               2005
A1001400480000003357715OCERO, SHERLITA TUPAS OR OCERO                          10502
A1001400480000003357715MAUREEN ECHAVEZ                                         20500
A0101403580000000016082SWEET BELLA DESSERTS                                     0508
B0101403580511046747001HUDDLE ROOM MEDIA INC.                                   1602
A0101400860000002333499**********                                               0502
A0101401250000007121400JC DAIS PERFUME REFILLING                               10501
A0101401250000007121400STATION                                                 20500
B0101400150061010838003INFORMATICS COMPUTER INSTITUTE, INC                      1605
A0101400150061227183001MA. MELISSA C. SERRANO                                   0501
A0101405810072235427001**********                                               0501
B0101405810072642761001***************                                          1601
A0101413730000001253321*************                                            0501
B0101413730000001568425BYSMP BLESS THE CHILDREN FOUNDATION, INC                 1602
A0101414090000000399220ECHEVARRIA III, LEOPOLDO P.                              0503
A0101410850109410543001PANUELOS, FRANCO BUHAT                                   0501
A0101410560000000020140REYES, JONALYN ANN ACUPAN                                0501
A0101400730111047618004RONALDO BAARDE PRADO                                     0501
A0101413150000006294084NASSER, LAYNIE ABDULRAHMAN                               0505
A0101401830141530136001RACELLE MARY B. ABANES OR                               10501
A0101401830141530136001LUIS FRANCISCO V. LEBRON                                20500
A0101401830000003508621TRIA, MANUEL ARBOLEDA OR                                10502
A0101401830000003508621TRIA, MA. CECILIA ZAPANTA                               20500
A0101400440161039572023JIMMY S. PALISOC                                         0501
A0101407270000007918332ANGELITO SIMBA JR.                                       0501
B0101407270162008343001SPECIALIZED TRADE & MARKETING, INC                       1601
B0101407270162062112001GRABAGILITY INC.                                         1601
A0101407270162629425001CO, LOLITA SY                                            0501
A0301400790000002301393BARCELONA, JANET TIZON                                   0501
A0301400950000002115435LASALA, MIGUELITO WALAWALA OR                           10501
A0301400950000002115435LASALA, LYNNETTE                                        20500
A0101412500214541150002SUMILONG, ANNA CHRISTINA                                10501
A0101412500214541150002OR SUMILONG, ROMMEL PAOLO                               20500
A3101400450223679687001MONZONES, MARIA DOLORES OR                              10503
A3101400450223679687001HENRY                                                   20500
A3101400450223723510001RIVERA, JOVITO JOBLE                                     0501
B3001400130000000067241BUTUAN BRAKE CENTER SALES CORPORATION                    1606
B1001400480234821100608**********                                               2005
B1001400480234821200608**********                                               2001
B0101401670271017449001HK HARDWARE SUPPLIER CO., INC.                           1601
B0101401670271046639001ROTARY CLUB OF MAKATI UPTOWN-PROJEC                      1601
A0101401670271188489001CARMEN C. LIM                                            0502
A0101401670271255010004PASCUAL, EMMANUEL DAVID                                  0501
A0101401670271592554001CENIR, ELOISA DISIMULACION                               0502
B0101406620273007454005GLOBE ASIATIQUE REALTY HOLDINGS CORP.                    1605
B0101406620000000015209SUNPRIME FINANCE INC.                                    1610
A0101408660000007457994F. CURA INDUSTRIES                                       0504
A0101408660274576215001BACLIG, LAURITZ EUGENE LAGUNDI                           0503
A0101411820000002328452GENISES C. SOLOMON                                       0505
B0101400570281026272002THE EPISCOPAL CHURCH IN THE PHILIPP                      1601
A0101400570281388539045MARLON J. GOMEZ                                          0501
A0101400570281389168001DR. PRISCILLA B. CAGUIOA                                 0505
A2601400270000000561802DULCE T. SIQUIAN OR EGDONA M.                           10502
A2601400270000000561802MANANQUIL                                               20500
B0801400160311391813002*******                                                  1602
A1101400120000005608215RIVERA, RAUL CORTEZ OR NIPAL,                           10501
A1101400120000005608215MARIA TERESA RIVERA                                     20500
A6601400120000002978096HORCA, ROMAR BABIANO                                     0502
A6601400120000006154623LAORENO, RAQUEL TUBALLAS DBU                            10502
A6601400120000006154623JURIS TRANSPORT SERVICES                                20500
B0101402350321006984001INTEGRATED HYDRO-PNEUMATIC                              11610
B0101402350321006984001SYSTEMS INC.                                            21600
B0101402510341030386001OLIAND HAUTE COUTURE, INC.                               1602
A0101402510341061009002NIVERBA, ROBERTO VIDAL DBU ABRE                          0501
A0101402510341420133001BONGCAWIL, GHADA ZACARIAS                                0501
A0101409050000007511817TAGUBA, ANTENOR FUGABAN                                  0505
B0201401020000005109900CEBU DULCINEA HOTEL AND SUITES INC.                      1601
A0101402930000006857870ACOSTA, ANTONIETTE DUNGCA                                0501
A0101402930000008062275JO, JONATHAN C. OR SANCHEZ JR.,                         10501
A0101402930000008062275RAYMOND C.                                              20500
B0101402930381100004001MANILA ELECTRIC COMPANY                                  1602
A0101408370000006446295VILLARIAZA, JULIUS RALONG                                0501
A0101408370382209111001DR. JOSEFINA C. PONCIANO OR                             10503
A0101408370382209111001RANDOLF C. PONCIANO                                     20500
A0101408370382407309003JOHANN MICHAEL G REYES DBU                              10501
A0101408370382407309003JMGREYES EYE CLINIC                                     20500
A0101408370382477581001JOVITA DIOLA-PEREZ                                       0501
A0101408400000006129251ARANTE, KIMBERLY ATON                                    0501
B0101408950000004428671FWD LIFE INSURANCE CORPORATION                           1605
A0101408950000005325800SAULOG, ROLANDO GUILLERMO ONTEN                         10503
A0101408950000005325800OR SAULOG, VIENNE DE LOU                                20500
A0301400820000007134961GEMINA, CATHERINE H.                                     0501
A5501400120000002348325ANG, ANDY MAN CHUNG CHANG                                0503
B2401400180411276067001GAISANO DADIANGAS, INC.                                  1610
A0901400220000000012324SPECIALIST MOTORCYCLE PARTS &                           10504
A0901400220000000012324ACCESSORIES, INC.                                       20500
A0101406330000007331666LLABRES, VIRGILIO OR                                    10501
A0101406330000007331666LLABRES, EDITHA                                         20500
B0101406330472021511001ASSOCIATED WIRE CORP. OF THE PHILS.                      1610
A0101406330472044643001A.S.P. BASIC ENTERPRISES                                 0503
A0101406330472294535002DE VERA'S COMBINED SERVICES REF                         10506
A0101406330472294535002& AIRCON SPECIALIST                                     20500
B0101406330472367379002********                                                 1601
A0501400170481480835001ONG, FRENZY CLAIRE FERRER                                0501
A0101405940512368799002LASALA, LANI SALVADOR                                    0502
A0101403450000000009856*************                                            0502
A0101404000000003707657JOHN MICHAEL S TAMULA                                    0501
A0101404000000007930158SHEILA A PAUL                                            0501
A2201400250561478374006ANGELINA P. QUIBALLO                                    10501
A2201400250561478374006MEMBERS OF NATASHA                                      20500
B0101407720000000885689THE CATHAY DRUG COMPANY, INC.                            1610
A0101407720602436863001ACEBUCHE, NILO BORJA OR                                 10501
A0101407720602436863001ACEBUCHE, AMELITA                                       20500
A0101407720602492004001MARIA IMELDA BELEN VITUG-SALES                           0501
A0101404260000003498408AREVALO, MA. JORLYN                                      0501
A0101413440000004882931DEL ROSARIO, MARCOS VALENTIN                             0501
A0101413570000003379953MICAWAYAN, ALIMODEN LANTO                                0501
B0101413990000006498117KASAGANA-KA DEVELOPMENT CENTER, INC.                     1608
A0101413990000006768570CLETO, ANTHONY C. DBU                                   10502
A0101413990000006768570CARDEUN CONSTRUCTION                                    20500
A0101406590662332022003TORRIJOS, LOUIE ORENDAIN                                 0501
B1301400210682041444001SYCLOR CONSULTAX INC.                                    1602
A1301400340683248847001DEGANOS, CECILIA R. OR                                  10501
A1301400340683248847001DEGANOS, PATRICK GERARD                                 20500
B0101408240711059660001ST. JAMES THE GREAT PARISH                               1605
A0101408240711532094001LEEPRAWAT, MICHAEL L. OR                                10501
A0101408240711532094001LEEPRAWAT, JOCEL                                        20500
B2801400100712019694001ESGUERRA, G DBU LUNTIAN LANDSCAPING &                   11602
B2801400100712019694001GENERAL SERVICES                                        21600
B2801400230713046357001THE PROFESSIONAL GROUP MULTIPURPOSE                     11602
B2801400230713046357001COOPERATIVE                                             21600
A4101400260000005333335BLANCO, MARCELINA SUAYBAGUIO                             0502
A4101400550000003266937CAGUETE, PRAXEDES ABAN                                   0502
A4101400550000003839167IMELDA F. TAN                                            0501
A0101412340000007397002KATHERINE T. SANGALANG                                   0501
A0101412340000002900290MARINA F. ASUGAS                                         0501
A0101404840851046725013MARY JANE A. DE GUIA                                     0502
A0101404840851791747001BALMES, GERVACIO OR SARADAT,                            10501
A0101404840851791747001MONICA OR GALLAG                                        20500
A0101406750852236873002SISORA OLGAH ELUMIR                                      0501
A0101406750852620298001EMILY COLINA OR DOMINGO                                 10501
A0101406750852620298001COLINA JR                                               20500
A0101413860000001233743OBIN, ARLENE VELASCO                                     0501
B0101413860000000145275CON-PAC WAREHOUSING INCORPORATED                         1605
A0601400230000005185924GAJE, AGNES DBU JCG AIRCONDITIO                          0502
B0101417000002502000011**********                                               2003
