F0101401120131007793002CENTRAL COLLEGES OF THE                                 12610CKR
F0101401120131007793002PHILIPPINES                                             22600CKR
F0101400440161037389002GREAT WAY HARDWARE                                       2602CKR
F0201400180181047201198HINGSING COMMERCIAL CORPORATION                          2702CKC
F0101405780212039655001CMC DIAGNOSTICS, INC.                                    2602CKR
F1001400190231274503002YU, JERRY OR YU, JULIE                                   2610CKR
F0101400570281522825001JOSE B. MORAN                                            2503CKO
F0101407720000006028166MEDGATE PHILIPPINES, INC.                                2601CK1
F0101404260611034742001PRIME MOVER BUSINESS SOLUTIONS,                         12610CKR
F0101404260611034742001INC.                                                    22600CKR
