F0601400100081553525001UY, PETER ALEXANDER SO                                   2501CKO
F3101400580452455447001QUEZCA CORPORATION                                       2602CKO
F1301400210000000540845HQ GASOLINE STATION                                      2520CKO
