A0101409210000007762910PUNO, ANNA CRISTINA TEODORO                              0502
A0101409210000003898444CRUZ, MA CLARA                                           0501
B3001400130000000007029CROSS LUG TRADING                                        1601
A3001400130000000931180ORGON WOOD INDUSTRIES                                    0502
A0101405490392408832001ROSEMARIE S. OLIVEROS                                    0501
A0101400150061434625001CARPIO, FERNANDO VIZON                                   0502
A0101400440161039070001LGRM ENGINEERING & CONSTRUCTION                          0503
A0101400440000000821276MANAOIS, VICTORIA PENALBER                               0501
A0101400440161520766098JUDITH D. BRISO                                          0501
A3001400130000010813431ARAGONCILLO, NECYLYN ICALINA                             0502
A3001400130230478374004BALABA, JANETH BORJA                                     0501
A0101400860000002333499**********                                               0502
B0101400860011044742001IRONTRADE ENTERPRISES, INCORPORATED                      1603
A0101401250000000906894ANGELES, LEMUEL CERIOLA                                  0501
A0101400150000003198087ABIGAIL LAURELE D. QUINTOS                               0501
A0101400150061038536194FERNANDO, PEDRO                                          0501
A0101400150061227953001MA. DYMPHNA U. RAYMUNDO OR                              10501
A0101400150061227953001JOSE S. RAYMUNDO                                        20500
A0101400150061304927001SIY, PATRICIA MAY TAN                                    0504
A0101400150061786740001**********                                               0501
B0101405810072040421001SK-T COMPANY                                             1602
A0101405810072234861001**********                                               0501
B0101405810072564262001GOKONSENG, JOHN LIM                                      1601
A0601400100000002365380VALERIO, NARDITO GONZALES DBU                           10502
A0601400100000002365380JUNAR                                                   20500
A0601400100081251899001YALUNG, ROBERT OR MA. CRISTINA                          10503
A0601400100081251899001OR SANTOS, MA. L                                        20500
A0101414090000001652422CARIAS, HONEYLENE CRUTA                                  0501
A0101410850000008259161ZHENG, FEI                                               0502
B0101410850109066500001THRAN BULK MOVERS INC.                                   1608
A0101410850109586085001EUSTE, MARIO PEREZ                                       0501
A0101410850000008264040MANABAT, GINO EMMANUEL P. OR                            10504
A0101410850000008264040MANABAT, AUDREY SARAI                                   20500
A0101410560000001944043GOODNESS & MERCY MOVERS                                 10503
A0101410560000001944043SERVICES                                                20500
A0101406040112209765001**********                                               0502
A0101413150000011778206QIU, BILING                                              0505
A0101401830141205402002ZABALA JR., ARMANDO V. OR                               10502
A0101401830141205402002ZABALA, CRISTINA                                        20500
A7201400170000003774447LUMAAD, ARLINIEVA MONARCA OR                            10502
A7201400170000003774447LUMAAD, KELT MUT                                        20500
A7201400170000003774436MAATA, JANIETH S. OR                                    10502
A7201400170000003774436MAATA, JEFFRY P.                                        20500
B0101400440000003766956KS PRIME FINANCIAL CORP.                                 1605
A01014004401614783740062OSEPHINE R. VEGA                                        0501
B0101400440161787260001MUSNI, MARIAN BAUTISTA                                   1601
A0101401090171033023002EXCELINK INSURANCE AGENCY                                0503
B0101401090171035026001********                                                 1601
B01014010901710435610013M PETROLEUM DEALER CORP.                                1602
A0101401090171196191001EDUARDO OR ARABELLA PASCUAL                              0502
A0101401090171196348001EVELYN A. SONGCO                                         0502
A0101401090171200622001DIONISIO F. DEPENA JR.                                   0501
A0101401090000000772189FELIPE, RENE SAMIJON                                     0501
A0301400530000000066044BONGO, PORFERIO LORETERO                                 0503
A0301400530000003087392MANGARON, GLORIA LAGRAMA                                 0503
A0301400660000005691803**********                                               0501
B0301400660194046300088SAGREX CORPORATION                                       1607
B0301400950000009938312ACQ SOLOMONIC BUILDERS DEVELOPMENT                       1602
A0101401380000000414446ARAGON, VICENTE ESLLER                                   0501
A0101401380000005320978KIM, WON KAB                                             0502
A0101401380000010190604MUYA, MARLON BATHAN                                      0508
B0101401380201034155001TINOLEY DIGITAL PHOTOGRAPHY INC.                         1605
A0101401380000001412651LEY, VALENTINO TING                                      0502
A0101410720000009157091LABAYAN, CARY ROSE ANN ABAD                              0501
B0101410720653006452001INTERNATIONAL GRADUATE SCHOOL OF                        11603
B0101410720653006452001LEADERSHIP INC                                          21600
A0101410720653625491001PE AGUIRRE, GIL ADRIAN SANTIAGO                          0505
B3101400450223821100608**********                                               2002
A3101400740224714475002BISCOCHO, GEMMA SANTOS OR                               10501
A3101400740224714475002BISCOCHO, BENEDICT                                      20500
A1001400190000008743875OCERO, ALGENE ALEJAN OR                                 10504
A1001400190000008743875VALDEHUEZA, KENT VAN O                                  20500
A1001400350000007762481CURTINA, JOSSIE BONONO                                   0501
B1001400350000000017154STRONGHOLD INSURANCE CO., INC                            1603
B1001400480000003028862NAVARRO, MARIA LOURDES GERONG AND                       11601
B1001400480000003028862NAVARRO, LORENZO                                        21600
B1001400480000003357817LINAAC JR., CECILIO GRANADA DBU LINAAC                  11602
B1001400480000003357817TRUCKING SERVICE                                        21600
A1301400470000000366392NESTOR B. SARANGAYA OR                                  10501
A1301400470000000366392TERESITA M. SARANGAYA                                   20500
A1301400760000000050422RAFAEL R. CLEMENTE                                       0501
B0101401670000011534400ALORA PROPERTY LEASING                                   1602
B0101406620273009505001ASIAN SILVER ESTATES, INC                                1602
A0101406620000010983221LEE, LOURDES LIM                                         0503
A0101406620273498379001JOHN LABSKY P. MAXIMO                                    0502
A0101411110000012643282ABALOS, CATHERINE JOIE RAGA                              0501
A0101411110000012643340BASINGA, ANNI TALANAY                                    0501
A0101411110000012643395BUYCO, YOLANDA RABE                                      0501
A0101411110000012643442DE ASIS, KRISTINE TABUENA                                0501
A0101411110000012643497DE TORRES, BRIAN JOSEPH TORRALB                          0501
A0101411110000012643533DIMAUNAHAN, MARIA SHIENA DIMAKI                          0501
A0101411110000012643599GIOCA, PHILIP ANGELES                                    0501
A0101411110000012643646GO, EILEEN CAMARILLO                                     0501
A0101411110000012643679GONZALES, NOELLE HAIGHT                                  0501
A0101411110000012643691LANAS, MARY ANN CARDONA                                  0501
A0101411110000012643715LINCOD, CLARIBEL CANETE                                  0501
A0101411110000012643748RIVERA, ANNA CARISSA DE CASTRO                           0501
A0101411110000012643760SEVILLA, CHRISTINE RODRIGUEZ                             0501
A0101411110000012643782SONZA, ROWINA JAVIER                                     0501
A0101411110000012643806TABUENA, RENELYN VILLAR                                  0501
A0101411110000012643817TORDESILLAS, RYAN CORTEZ                                 0501
A0101411110000012643828TUAZON, PAUL ANDREW CHUA                                 0501
A0101411110000012643839ULEP, LARRY AL AQUINO                                    0501
A0101411110000012643840FRAGO, SHIRLEY PANOL                                     0501
A0101411110276792560088MESINA, SHERYLL ANN CARPIO                               0502
A0101412470000000853787**********                                               0501
A0101412470000000853787GO, JANICE TING                                          0501
A0101412470000010561805RECATO DY, KENNEDY UY                                    0501
A0101400570000005666362EBIO, MA. ELLEN ROSE ORDA                                0501
A0101400570000012137698UY, JACQUELINE AUSTINE UY                                0502
B0101400570000000749548ALLIANCEJADE GARMENTS CORP.                              1601
A0101400570281355863001JOSEPH C. GUIANG                                         0503
A0101400570281441951010VICTOR FELIX S. GADDI                                    0502
A0101400570281503551001JAREN R. CABUDOL                                         0501
A0101411240000002332532LAMSEN, RAMON MACASIEB                                   0502
A3401400280318736732001TERESA A. SANTOS OR MA. AILEEN                          10501
A3401400280318736732001A. SANTOS OR TIN                                        20500
A3401400280000003309139TERESA A. SANTOS OR                                     10501
A3401400280000003309139MARIA CONSUELO A                                        20500
A0101402350321455174001CARVAJAL, DOROTHY S. OR                                 10501
A0101402350321455174001CARVAJAL, KIM AP                                        20500
B0101405650322006303001GIL'S TRADING                                            1603
B0101405650322047832001MULTISPORTS INCORPORATED                                 1605
A0101402510341198280001VIRGINIA S. ELEMENTO                                     0501
A0101402510341199967001UNCAD, CECILIA C.                                        0501
A0101402510341277724001PRUDENTE, JOSEPHINE ESGRINA                              0502
B0101402060351033699001EXQUISITE INTERIOR SUPPLY CORPORATION                    1606
B0101402060351039870001CHYNNA SALES & DISTRIBUTION INC.                         1620
B0101402060000000022722INFOCUS RESEARCH SERVICES INC.                           1603
A0101409050000007511891LEYRAN, JENNIFER SICILIA SALMIN                         10501
A0101409050000007511891OR LEYRAN, JUAN FELINO                                  20500
A0201400760000004467261INSO, ELVIRA DENSING                                     0505
A0201400890376667775001BUYSER, MISAN CANAS OR BUYSER,                          10501
A0201400890376667775001RENZIE RAFAEL CA                                        20500
A0101402930000003710494TECSON II, DELANO VINCENT DOROT                          0501
B0101402930381035544001ELSINORE OFFICE FURNITURES SYSTEMS,                      1602
B0101402930000003269312MORALES RISOS-VIDAL & DAROY-MORALES                      1602
A0101402930381488888001EDWARD P. LIM                                            0502
A0101408370382206455001DR. RUBEN G. KASALA OR                                  10502
A0101408370382206455001DR. MA. CARMELA KASALA                                  20500
A0101408370382211448001DR. JOSE PAOLO A. PRADO                                  0501
A0101405490000001876220MAGTANGGOL, MICHAEL MEDIZ                                0501
A0101408400000004490095MACABEO, MINERVA BELDAD                                  0501
A0101408400000007583186PINEDA, DINDO DOMINGO                                   10501
A0101408400000007583186OR PINEDA, GRACE ANN P.                                 20500
A0101408950396565384001LABAO JR., ROMEO OCOL                                    0501
A0101408950396658348001GAMBOA, MARIE EUGENIE NOEL                               0501
A0101409210000002279018AGONCILLO, CONSUELO FLORES                               0502
A0101409210000007762903UY, DANNUEL GO                                           0503
B0101412210000010833720C & S INTERNATIONAL PRIME GLOBAL                        11605
B0101412210000010833720HOLDINGS, INC.                                          21600
A5501400120000011599350ADAME JR., ENRIQUE DADIA                                 0502
A2401400180000005536701SOJOR, BONIFACIO FRANCISCO                               0501
B2401400180411041942168GENSAN MRAY TRANSPORT & LOGISTICS                       11601
B2401400180411041942168CORPORATION                                             21600
A2401400180411478374004MESRIYA ABDULLAH                                         0501
A0101412890000005913340TAI, EVELYN SIA                                          0501
A0101403320000010642218PABIANIA, JOHN ERIC CADUNGON                             0502
B0101403320471019960002DIRECT ELECTRIX EQUIPMENT                               11605
B0101403320471019960002CORPORATION                                             21600
A0101403320471209343001SHERLITO OR PRISCILA BERNAL                              0501
A0101403320000001803383REGINALDO S. SAN JUAN                                    0502
A0101403320471547066001KRISTIN JOYCE CRUZ ORE GUZMAN                           10501
A0101403320471547066001ALEX CRUZ                                               20500
A0101403320471720456001OCAMPO, ERLINDA MENDOZA                                  0501
A1901400160491373076001VERONICA D CATIPON OR CRISTINE                          10501
A1901400160491373076001D CATIPON                                               20500
A1401400110492357128002ESPARAS, TERESA BAUTISTA                                 0502
A1401400110492528036001RAGOS, ROWENA ALANDY-DY                                  0501
B0101403580511005339002NONILLION HOLDING CORPORATION                            1602
A0101403580511036648001R2C TRADING                                              0501
A0101403580000010177141CO, EDWARD RYAN  DBU MASTER MAR                          0501
A0101408530516571877013DIEGO, PIA MARIE G.                                      0501
A0101411400000003750554LORENZO, JOSEPHINE DELA CRUZ                            10503
A0101411400000003750554OR JOHANA KELLY                                         20500
B0101411400000001280488L' ABRE DU VOYAGEUR INC.                                 1601
A0101403450000001637987*********                                                0501
A0101403450521238088001**********                                               0503
A0101403450521372678001**********                                               0502
A0101403610000012639322BACSA, SHIANY CAGRO                                      0501
A0101403610000012641122REBOLLADO, DOLLY J DBU DJJ                              10501
A0101403610000012641122STEEL TRADING JT                                        20500
B0101403610531047191001MALASAGA TRADING CORP.                                   1602
A2201400250561037321001PTT NORTH RAMP GASOLINE STATION                          0501
A0101410690000003027636BALIAO, JOVITA LINGGON                                   0502
A0101407720602399405002THELMA E. RAMOS OR                                      10503
A0101407720602399405002CLAVER P. RAMOS                                         20500
A0101407720602476278001VENTAYEN, NELLY PADLAN                                   0501
A0101412180000004089112BASALO, MECIL ETANG                                      0501
A0101409890649044793001**********                                               0501
A0101409890649072350001**********                                               0501
A0101409920000007304787***********                                              0502
A0101407690652517989001FLORANO, GUILBERTO COYOG                                 0502
B0101411530000000013572ELIXER MULTI-PURPOSE COOPERATIVE                         1620
A0101413570000005867430*******************                                      0501
B0101413570000007212984PRIMUS UNO DISTRIBUTION INC.                             1603
A0101406590000005305140RODRIGUEZ, EVA PAOLA BASCO                               0501
A1301400210000001206882GIPIT, GEMMA C.                                          0501
B1301400340683045643001JOURNEY ELITE MOVER'S CORPORATION                        1602
A1701400230000005694102SALAZAR, EDWIN ENRIQUEZ OR SALA                         10505
A1701400230000005694102ZAR, MARIBETH SALVADOR                                  20500
A1701400230693478374031VILMA D. BAGAY                                           0501
A0101408240000008160223HADUCA, P DBU ALEXA AUTO WORKS                           0501
A0101408240000002821672OCAMPO-CHUATICO, MARIA REGINA                           10501
A0101408240000002821672DIZON                                                   20500
A4101400260000000541159REMOLACIO, MARIA DOLOR DURAN                             0501
A4101400260000000002142TAJANLANGIT, JACKIE C.                                   0501
B4101400420814245166002UCCP-ANABU CHRISTIAN SCHOOL, INC.                        1605
A4101400420000003715724FLAVIANO, PERLITA                                        0501
A4101400420000002345320CALLEJO, LILIBETH                                        0501
A0101404840851478374115ERLINDA O. PRADO                                         0501
A0101405070000000414526JAMILI, MARY JOY MALVAR                                  0501
A0101405070861478374086MARLYN C. GABEST                                         0502
A0601400230000000452782GOZUN, R-JAY RAMOS                                      10510
A0601400230000000452782OR GOZUN, MYRNA                                         20500
