A0101403580000017767714LAPUS, MELINDA MAE SOLER                                 0502
A0101400600000013979021ANG, ALLYSON MARIE PAMORADA                              0501
A0101412500000018393645CRUZ, MIKA ALLYSSA O'YEK                                 0501
A1901400290261063224002RODELAS, MARK ATIENZA DBU                               10503
A1901400290261063224002PHILLIP YOHANN T                                        20500
B1901400160491030520001VETS IN THE CITY VETERINARY CLINIC                       1601
A1901400160491346311001NIDA M LACSAMANA                                         0501
A0101407720602399807002ERIVERA, FIDEL FULGUERAS                                 0501
B0101400860011305536001**********                                               1601
B0101400860011374740002**********                                               1605
A0101400860000001005445************                                             0502
A0101400860011572958001**********                                               0503
A0101401250900001131787SANCEBUCHE, NOEME CABILLO                                0502
B0101400150061034947001MAYBANK ATR KIM ENG SECURITIES, INC.                     1602
A0101400150061547918001TAMAYO, KRIZALDY PEREZ                                   0505
B0101400600000005943080BALLENA, JOSE MANUEL TOLENTINO                           1601
A0101405810072234816001CORAZON L. MACATUNO OR                                  10503
A0101405810072234816001RODANTE L. MACAT                                        20500
B0101405810072361051003**********                                               1603
A0601400100000017089102PEDRENA, JESSIELYN                                       0504
A0601400100000006334050ESPENA, MARIA ANGELI CORTEZ DBU                          0505
A0601400520000016098512DIONISIO, ROCHELLE SANITA DBU                           10501
A0601400520000016098512RJJ CUT SALON                                           20500
A0101413280000011809222CO, JONATHAN CHAN OR                                    10501
A0101413280000011809222CO, SUSAN NGO                                           20500
A0101410850000018458941ARIAGA, MA. SOCORRO YADAO                                0501
A0101410850000016136253DETOON, NORBERTO PADLAN DBU                             10501
A0101410850000016136253MARKPRESS TRADING                                       20500
A0101410560000001944174ROWENA PADILLA FRANCIA                                   0502
A0101400730111278185002ARANDELA, MARY GRACE                                     0501
A0101400730111478374198DE VERA, NORLINDA                                        0503
A0101406040000008915551**********                                               0503
A0101401960121238763003**********                                               0501
A0101401960121238763004**********                                               0501
A0101412630000016300422CASTRO, MARY JANE PAEZ                                   0501
A0101412920000008813441ARAGON, GIOVANNI RUBEN BANEZ                             0501
A0101400440000004889876MARICEL D. BACOLOD                                       0502
A0101407270000018197016MAKELLOS WELLNESS BEAUTY SERVIC                          0501
B0101407270000018275051HIDALGO, JOANNA BERNICE BUENSUC                         11605
B0101407270000018275051DBU ROCK N SOLE                                         21600
B0301400530000001409570RHEAN MARKETING INCORPORATED                             1610
A0301400530000008307551GONZALES, SYLVIA EUGENIO or                             10505
A0301400530000008307551GONZALES SR., RE                                        20500
B0301400660194046395088DAVSAM LINK CORPORATION                                  1601
B0301400660000006755082MALPORTS, INC.                                           1602
A0301400790000006269856DEDELES, ARMAN CASCABEL                                  0503
A0301400950000013129312CANETE, ALAIN BRAYHE REGALADO                            0504
A0101401380201503228001CATANES, RONALIE PEREZ                                   0501
A0101401380201657864001BALLENA, JOSE MANUEL TOLENTINO                           0501
A0101412500000018461431LOPEZ, JOHN PATRICK DE GUZMAN                           10501
A0101412500000018461431OR LOPEZ, QUEEN ANTONETTE                               20500
A0101413600000003851110NOEL ANGELO B. BUENAFE                                   0502
A3101400160000011243871LEGASPI, ALMA CANTILLANO                                 0501
A3101400160221767573001VICTORIA M DEL ROSARIO                                   0501
A3101400450000012147716ROASA, MA. ROMINA CASTILLO                               0501
A3101400450000014657333HIWATIG, SHARMAINE MANALO OR                            10501
A3101400450000014657333HIWATIG, ROSALIE                                        20500
A3101400450223206930002NAPOLEON ENRIQUEZ II OR                                 10501
A3101400450223206930002FLOR ENRIQUEZ                                           20500
B3001400130000012557892DIANA, MARY ANNE BIANO                                   1602
A1001400350000012928064TABASUARES JR, SEVERINO VELASCO                         10502
A1001400350000012928064OR TABASUARES, LILAH V.                                 20500
A1001400350000017316791GO, JOCELYN DACLES                                       0501
A1001400350233531951001PIZARRO, ROBERTINO OR PIZARRO,                          10502
A1001400350233531951001MA. CRISTINA                                            20500
A1001400480000003357748DEDEL, PATRICK JUNE Y OR DEDEL,                         10502
A1001400480000003357748FAITH ROSE                                              20500
B1301400470252018901001NUEVA ECIJA LAND CO., INC.                               1605
A1301400470252697686001AUGUSTUS CEACZAR P. RUIZ                                 0501
A1901400290000017582431TANGONAN JR., VILLAMOR LACSA                             0501
A1901400290261298552105AIDA NABOS REYES                                         0501
A0101401670271188447001PAVES, ANITA OR VELASCO,EDGARDO                         10502
A0101401670271188447001OR VELASCO, EMMA                                        20500
A0101406620000006317808GALSIM, DONNA KAREN VELORIA                              0501
A0101406620273458914001**********                                               0502
A0101406620273720692001******                                                   0502
A0101406620273762082001PAG, SUN DONG                                            0502
A0101411820000001356565GRACE S. TOLEDO                                          0501
A0101412470000016805960SALONGA, EFREN BATIMANA                                  0501
B0101412470000000026764MA ASUNCION REYES AND JUAN ENRIQUEZ AND                 11601
B0101412470000000026764IGNACIO ENRIQUEZ                                        21600
A0101400570281383821001LUISA L. ANG LEY OR LILY L. LEY                          0502
A0101411240000018466772DE BORJA, GENELINE CRISPO                                0501
B0501400200000004456902CBE ESTRADA PAWNSHOP, INC.                               1608
B0801400160000011219611ORANGE ISLAND INCORPORATED                               1602
A0801400160311478374102MA. CECILIA A. AVANCENA                                  0501
A3401400280318478374001MARILYN B. BISMANOS                                      0501
B0101405650322036086001VISTALAND INTERNATIONAL MARKETING, INC.                  1605
B0101405650000005382076MENDOZA, JOSHUA DBU RAPIDO TRANSPORT                    11602
B0101405650000005382076NETWORK                                                 21600
A0101402510341199103001CORAZON D. HUANG                                         0502
A0101402060351009385001JORGE ALOMBRO JR. OR                                    10505
A0101402060351009385001NELIA ALOMBRO                                           20500
B0201400760000005016682MARTIR, KATHE  DBU HAPPY FIT OPTICA                      1601
A0101402930000003710483VERDOLAGA, MA.GEORGINA DE JESUS                          0501
A0101408790000008159137SUNGA, LAEDA BENEDICTO OR                               10501
A0101408790000008159137CEREZO, MICHAEL                                         20500
A0101408790000018469124DE CASTRO, MICHAEL CHRISTOPHER                          10501
A0101408790000018469124CHAVEZ                                                  20500
A0101415350000012246627DIPUTADO, GENARA CHEREVIAS                               0501
A0101405490000017387050PAREDES JR., EDUARDO NANOLA                              0501
A0101405490392558162001RONIE MARIE P. REYES                                     0501
A0101405490000010702080DARYANANI, RAVI HIRANAND                                 0502
A0101408400000007264602PARK, TAEHOON                                            0502
A0101408400000000607732CABRALES, EMMIE BELMONTE                                 0501
B0101408400000001258668LAZARO, JENNIFER P AND LAZARO,                          11602
B0101408400000001258668ARRHENIUS                                               21600
A0101408950000018430503BEDIS, AIZA BUENAVENTURA AND                            10501
A0101408950000018430503MENDOZA, ALLAN REY G                                    20500
A0101408950000018410830SUYAT, PATRICK MARIANO                                   0501
A0101408950000018430263SUYAT, PATRICK MARIANO OR                               10501
A0101408950000018430263SUYAT, RIA PATRICIA                                     20500
A0101408950000018420098PURA, SHERILLYN BONIOL                                   0501
A0101408950000018421273DOMINGO, ALLAN JAY CAPULONG                              0501
A0101408950000018424096LANDAS, ELFRED JAN BAUTISTA                              0501
A0101408950000018429811LAURORA, GIANNA MALIG                                    0501
A0101408950000018430161MARCELLANA, GWEN RADAM                                   0501
A0101408950000018430270SUYAT, MARK GREGORY PATRICK SAB                          0501
A0101408950396542985001SUYAT, GREGORIA SABADO                                   0501
A0101409180000008122563GABRIEL, NEDY RIGOR                                      0501
B0101409180397024361001ASALUS CORPORATION                                       1603
A0101409210000005252102TAMAYO, JANINE MEG JAVIER                                0505
A0301400820000010907138REYES, DEXTER R.                                         0501
A5501400120000014312293GA-AN, ANNIE DIAMANTE                                    0502
B5501400120410044567001RASAY INSURANCE AGENCY AND GENERAL                      11601
B5501400120410044567001SERVICES                                                21600
A1201400150000016104475SEMSEM, HILDA BULANADI DBU                              10501
A1201400150000016104475RE-VISIO                                                20500
A1201400150421257375001MARA ALOHA DIAZ                                          0505
A0101403030000008089334TAN, JESUSA POTIAN                                       0505
A0101412890000011813062EDISON PARINGIT DE AUSTRIA                               0502
A0101412890000016253393PASMO, BENLY BALUYOT                                     0501
B0101412890000009624477MARTINA PAULA'S CATERING SERVICE CO.                     1601
A0101406330000000451392CABRERA, MARITA VICTORINO                                0502
B0101406330472027929001STO. TOMAS DE VILLANUEVA PAROCHIAL                      11601
B0101406330472027929001SCHOOL                                                  21600
A3801400170000011559892MENDOZA, LUCY DHEL DE GUZMAN                             0502
A1901400160000016420632MAGNAY, PATRICK JOHN D.                                  0501
A0101403580000017896350RUTH KAREN S. AUTENCIO AND                              10501
A0101403580000017896350ROANNIE DOMINIQUE DE MESA                               20500
A0101408530000002980863AQUINO, JOHN JOSEPH ADRIAN                              10501
A0101408530000002980863ALBERTO                                                 20500
A0101408530000001885629ANDAL, ARIANNE JOIE                                      0501
A0101408530000008159513DELOS REYES, SHERYLL GOMEZ                               0501
B0101403450521012112001SUPERLIFE TRADING                                        1602
B0101403450000006055858*                                                        1610
A0101403450521238821001PETER PO, YOUNG JAN                                      0505
A0101403450521239867001**********                                               0503
A0101403450521339022001PO, MARY LU JT                                           0503
A0101403610000018471719AGUAVIVA, GLENDA PELEMBERGO                              0501
A2201400250000012982522JUANITA C. LAMBINO                                       0501
A2201400250000018467060ANTONIO, ALLEN PARACHA                                   0502
A2201400250000018467151BARON, CHRISTIAN DIZON                                   0502
A2201400250000018467213BAUZON, CZENDRA IBASCO                                   0502
A2201400250000018467297BOTIO, MARC JERYL SORIANO                                0502
A2201400250000018467366CARACAS, ROBERT WAMINAL                                  0502
A2201400250000018467446CID, FERDINAND FRANCIS MARIA DE                          0502
A2201400250000018467491CURA, EDWIN MANABAT                                      0502
A2201400250000018467548DUNGCA, DHON GOMEZ                                       0502
A2201400250000018467560DUNGCA III, GODOFREDO VILLARAMA                          0502
A2201400250000018467593GACUTAN, SHEENA MARIE GISON                              0502
A2201400250000018467617LIMLINGAN, CORRINE RIVERA                                0502
A2201400250000018467640MABLAY, JENNY CLAIRE OLAS                                0502
A2201400250000018467662MANALANG, SHANNON VALERIE MONTA                          0502
A2201400250000018467680MARIANO, ARMALYN PAGADUAN                                0502
A2201400250000018467708MERCADO, MARIAN REYES                                    0502
A2201400250000018467731OCAMPO, MARLYN CASTILLO                                  0502
A2201400250000018467753RANIAGA, REY BENEDICT .                                  0502
A2201400250000018467771SANTOS, PRECIOUS JESSIE LAOAG                            0502
A2201400250000018467793SEBASTIAN, ARRA MCRINA CRUZ                              0502
A2201400250000018467822SUPERIO, DARWIN DATINGUINOO                              0502
A2201400250000018467840VALDEZ, JUDITH CORTEZ                                    0502
A2201400250000018467862VITUG, EARNEST JOSEPH MATEO                              0502
B2201400250561258273001*****                                                    1605
B2201400250561315113001*******                                                  1602
B2201400250561428755001*****                                                    1603
B0101404130601030412001EXODUS BROADCASTING COMPANY, INC.                        1605
A0101404130601541814001DELA CRUZ, KERVIN MALANAY                                0502
A0101407720000018454801VENTURA, JOHN CARLO CRUZ                                 0501
A0101404260611343821005FONTANOZ, EDGAR PABROS                                   0501
A0101404260611665137001TEOXON, ROWENA SILANG                                   10501
A0101404260611665137001OR LEOPOLDO TEOXON                                      20500
A0101409890000006277643GALVEZ, RAMON RODRIGUEZ                                  0504
A0101413570000001682599LOLITA L. ALMAZAN                                        0502
A0101413570000007307902ANNA RITA GENEROSO                                       0503
A0101413570000017953074**********                                               0504
A0101413990000000206066MARKVENT ENTERPRISES                                     0502
A0101406590000000568758BAUCA, MYRA MEDRANO                                      0501
A0101406590000000568805LOGARTA, MICHELE TORRALBA                                0501
A0101406590000018148393CURTIS-SMITH, ANNE OJALES                                0501
B0101406590000003007336OUTBOUND EDUCATION AND INTERNSHIP I                      1602
A1301400210000005040577**********                                               0501
A1301400210000017749847OTTO, JEWEL BERNARDINO                                   0502
A1301400340683249082002RICARDO HERMOSO II OR                                   10501
A1301400340683249082002AGRIPINA HERMOSO                                        20500
A1701400230000002762832ANG, MARY ANN LIU OR ANG, VICTO                         10510
A1701400230000002762832R FORMOSO                                               20500
A1701400230000013092461SIMON, KEVIN CESAR VALDEZ                                0501
A1701400230000011517423PAZ-TAN, LIZA MARIE RIOS                                 0501
A1701400230000018446661AGREDA, JAIME AGUDA OR AGREDA,                          10501
A1701400230000018446661GINALYN SUNGA                                           20500
B0101408240711059660001ST. JAMES THE GREAT PARISH                               1605
A0101408240711643077001PRELIGERA, MARIETA VERGARA                               0503
B2801400100000007896040YDF CONSTRUCTION CORP.                                   1603
A4101400260000018462018GHAI, RAUSHINI .                                         0501
A4101400260000000469329FALCUTILA, MARISSA RAMOS                                 0503
A41014004200000037154953REGORIO, JOMER BENSING DBU CJG                         10502
A4101400420000003715495DIGITAL MARKETIN                                        20500
A4101400420814520766108ESPANOLA, MERELY C.                                      0502
A4101400550000000005950SEGURITAN, JOCELYN DBU SFC                              10506
A4101400550000000005950OFFICE FURNITURE                                        20500
A4101400550815769411001MAGCAIYO, MARICAR VIVAS OR                              10501
A4101400550815769411001MAGCAIYO, ALVIN                                         20500
A0101404840851046725006MELA M. GEROLAO                                          0501
A0101404840000005820526BUYERS AND SELLERS DISTRIBUTORS                          0502
A0101405070861531594001REYES, MARILOU LIM                                       0502
A0101413860000018458974BACERA, CHRISTOPHER CABRIGA                              0501
A0101413860000018459142CHUA, GABRIEL FRANCO ROBILLOS                            0501
A0101413860000018459233QUIN, KEVIN MICHAEL ARANJUEZ                             0501
