B0101408790383821100608**********                                               2004
A0101406590662711800002ROQUE, EVELYN VALDOMAR                                   0502
A1001400350233478374033CARAOS, PATROSENIA T.                                    0501
B0101405650322046375001GORDORICO TRADING CORP.                                  1602
A0101405650000005284293TAN, FELICIDAD DE GUZMAN                                 0502
B0101408790383821200608**********                                               2001
A2401400180411680952001ALCOVER, MA. SOCORRO TENAJA                              0502
A0101412890000002747880JALANDONI, JOHN MARK TALADRO                             0503
A0101406750852241118001FLORES, JOY                                              0501
A0101400860000001005332***********                                              0505
A0101400860011533026001**********                                               0502
A0101401250000000020424BALIAO, JOVITA LINGGON                                   0505
A0101401250021528042001UBALDE, JUMAR TALENTO OR                                10501
A0101401250021528042001UBALDE, ALONA POTESDA                                   20500
B0101400150061009769001KEYLAND CORPORATION                                      1620
B0101400150061010853001CROSSPOINT PAPER, INC.                                   1603
A0101400150061304927001SIY, PATRICIA MAY TAN                                    0504
A0101400150061453761036PATRICK O. MADRID                                        0502
B0101405810072018018001AIMWAY PLASTIC & PRINTING CORP.                          1602
B0101405810072040696002PLASTIC TECHNOBAG CO. LTD.                               1602
A0101405810072234609002TAN, JOSEFINA MANOSCA                                    0505
A0101405810072385132001***********                                              0502
B0601400100081579627001RED PLANET HOTELS PHILIPPINES CORP.                      1605
A0101413730000000144589**********                                               0505
B0101413730000001253310*******************                                      1601
A0101410850000003101913DIA, ELVIRA ALEGRE OR DIA,                              10503
A0101410850000003101913ABNER NATHANIEL                                         20500
A0101410850000003503517ADRIANO, ANTONIO SO                                      0501
A0101410850000000778827MABOLO ENTERPRISES                                       0502
A0101410850000000778792BORJA, JOY MERCADO                                       0502
B0101400730111015420001FELANER REALTY DEVELOPMENT CORPORATION                   1603
B0101400730000001242682TOULOUSE FOOD SERVICES INC.                              1605
A0101401960121464343001**********                                               0502
B0101412630000002186570JEC REALTY CORPORATION                                   1603
A0101413310000002317864TABLANTE, EMERSON JAMIR                                  0502
A0101401830141283129001YOLANDA M. LIM                                           0503
A0101407270162529737001JOSEPH DONALD C. CHEE                                    0502
A0101401090171200776003ALLAN DE BELEN DE GUZMAN                                 0501
A0101401090171534705001ANGELES, ROGELIO FAJARDO                                 0502
A0301400530000002318390YAO, MARY KRIS TAN OR                                   10501
A0301400530000002318390YAO, CAIQI                                              20500
B0301400660000000048224*****                                                    1605
B0301400660000000195282*****                                                    1605
B0301400660000000022904POROCO INDUSTRIES CORPORATION                            1605
B0101401380201018537001VELUZAR(PASAY) INC.                                      1601
A3101400160221478374019MIRIAM M. MIRABUENO                                      0501
A3101400160000001169222MACRINA M. AUREADA                                       0501
A3101400450223529066001MORENO, MICHELLE CALALO                                  0503
A3101400740000001692479CHUA, ANTHONY CHU                                        0503
A3001400130000005446259LAMOSTE, ROEL APDUHAN                                    0501
A3001400130000001261045MAY-AS, LOUVENJUN CABUSAS                                0502
A1001400480000001054682GOMEZ, JAMES B OR GOMEZ, JEROME                         10502
A1001400480000001054682OR BAJAS, LYDIA                                         20500
A1301400470000001299009NIDA S. AQUINO                                           0502
A1301400470252518432001**********                                               0510
A1301400760000001295581LIBERATO O. BAUTO II DBU                                10504
A1301400760000001295581THREE B MACHINERY                                       20500
B1301400760000000050831EMPIRE 999 REALTY CORPORATION                            1603
A1901400290000001926303PAULER PANGANIBAN ANI                                    0502
A1901400290000002337782REYNALDO JOVES GARCIA                                    0501
B1901400290261027293001LIPA MEDICS INC.                                         1610
A1901400290261046969001REYNALDO M ATIENZA JR. DBU                              10502
A1901400290261046969001DIGIGUARD MKTG & SERVICES                               20500
A1901400290000001975404MARANAN, MERCEDITA DBU REYMER                           10502
A1901400290000001975404DIGITAL PHOTOGRAPHY                                     20500
A1901400290261093134001JOY PANALIGAN KATIGBAK                                   0501
A1901400290261244456001LEO YAP ONG OR                                          10505
A1901400290261244456001MEI MEI YULO ONG                                        20500
B1901400290261250184003LIPA ARCHDIOCESAN INSTITUTED                             1601
A1901400290261390520001JOEL PUNZALAN DIMAANO                                    0502
A0101401670271188489001CARMEN C. LIM                                            0502
B0101406460272015262001*********                                                1603
A0101406460272345792001********                                                 0504
B0101406620273216386001CITIMEX, INC.                                            1602
A0101400570000000031836MARIJANE L. LAUREOLA                                     0501
B0101400570281041722001DALLAS AUTO SERVICE CENTER, INC.                         1610
B0801400160311045100001GOLDEN WOOD TIGER LENDING CORPORATION                    1610
A0801400160000000476302CLR MANPOWER SERVICES                                    0501
B0801400160000001289829PANAY MEDICAL VENTURES, INC.  PMVI                       1605
A6601400120000002978121NOGAL, GEMMA ONG                                         0501
A6601400120314633638001PELO, ELDIE TAN                                          0501
A6601400120314668441002MASLOC, SHERRY AMOR GALONO                               0501
A3401400280318478374006LOVERAS, EMCY DEL ROSARIO                                0505
A0101402350321038584002HEALTHY 8 WATER REFILLING                               10501
A0101402350321038584002STATION                                                 20500
A0101402350321455174001CARVAJAL, DOROTHY S. OR                                 10501
A0101402350321455174001CARVAJAL, KIM APPLE S.                                  20500
B0101405650322652077001CHICK FLICK FASHION COLLECTION INC.                      1601
A0101408790000001486331BARREIRO, RAFAEL VILLAR                                  0501
A0101408790000000579391ARNEDO, MARIA VERONICA CONSUELO                         10502
A0101408790000000579391SALVADOR                                                20500
A0101408790000005954083CULLADO, MA. CORALYN SAGRADO                             0501
A0101408790000004697032PEREZ, JEFFREY MENDOZA                                   0501
A0101408400000001213512GUEVARA, NORMA RAYOS DEL SOL                             0501
A0101408950000003171291MAGNAYE, MARIA GRACIA SAPIN OR                          10501
A0101408950000003171291MAGNAYE, EVANGELINE SAPIN                               20500
A0301400820000005196790NARCISO JR., AGUSTIN OR                                 10503
A0301400820000005196790NARCISO, SHIRLEY                                        20500
A2401400180000005536701SOJOR, BONIFACIO FRANCISCO                               0501
B3101400580452821100608**********                                               2010
B3101400580452821200608**********                                               2002
A0101412890000000007569JOSEFINA JOCSON MENDOZA OR                              10501
A0101412890000000007569AIREEN SAMSON ANGELES                                   20500
A0101412890470085339001SANTIAGO P. REBATER AND                                 10502
A0101412890470085339001ROBERTO A. VILLA                                        20500
A1401400110492220730002MOISES G. DOLLANO JR.- MGDJ                             10502
A1401400110492220730002CONSTRUCTION                                            20500
A0101407430000006037550MARILOU W. APOSTOL                                       0501
A0101407430000006038980ALBERTO R. JALANDO-ON JR                                 0501
A0101403580511420184003MARIA CAROLINA S. MACASAET                               0520
B0101406880513039126001BLUE MAGNET MARKETING SOLUTIONS INC                      1602
B0101406880513039126002BLUE MAGNET MARKETING SOLUTIONS INC                      1603
B0101406880513044487001CODE RED BRAND COMMUNICATIONS INC.                       1602
B0101406880000000027170SELEGNA CONSTRUCTION CORPORATION                         1603
A0101406880513573270001TURALBA JR., ANTONIO VALERA                              0502
B0101408110515024455001BENTHEL DEVELOPMENT CORPORATION                          1601
B0101408530516033397001SPRINGER INTERNATIONAL, INC.                             1605
B0101403450521011770001**********                                               1601
A2201400250000003558116LUIS S, TORRES III OR                                   10502
A2201400250000003558116ROSARIO FILOMENA L.TORRES                               20500
B0101404130601016662001PAYROLL SERVICE PROVIDERS, INC                           1603
B0101407720602007039001TRINITY WOMAN & CHILD CENTER                            11605
B0101407720602007039001THE BIRTH PLACE                                         21600
A0101407720602415232036MARITES COLORADO                                         0502
B0101409630603821100608**********                                               2003
B0101409630603821200608**********                                               2001
A0101413440000000570223LABSAN, CARMEN DELA CRUZ                                 0502
A0101413440000002846353LORENZO, ROMARIE URGEL                                   0501
A0101413990000002274051CIUDAD, DIOSELL LYDIA LAYOS                              0502
A0101413990000003141168PASCUA, JERICKSON LOUIE TAN                              0502
B0101406590662043947001NUEVO GRUPO REALTY & DEVELOPMENT CORP.                   1601
B1201400280671821100608**********                                               2002
B1201400280671821200608**********                                               2001
B1301400210682038636002FBIC INDUSTRIAL ESTATE ASSOCIATION                       1602
A1301400210000000540732LUPENA, MA. LINDA GANZON DBU JI                          0502
A0101408240711478374022PAGLICAWAN JR., RODOLFO                                  0502
A4101400260812478374012MA. THELMA M. BALDOZA                                    0501
A0101404840851520766071TERESITA SANTOS                                          0501
A0101406750852478374015GABIN, GERTRUDES                                         0501
A0101405070000001455863ERNESTO GONZALES, JR. JT DBU EG                         10501
A0101405070000001455863THREE MANPOWER S                                        20500
A0601400230891454850001WILLIAM J. NACIONAL                                      0503
B0101416160011401050074**********                                               2002
