B2001400290315821100608**********                                               2002
A0101408530000007981911PINEDA, MARIA CARMELA ERICA                             10502
A0101408530000007981911LEGASPI                                                 20500
A0101410850000015874818JAVIER, KATRINA SY                                       0501
B0101403320471068309001GAPAN LAND, INC.                                         1603
A0101410850000015920951RICO, EDILBERTO WENCESLAO                               10501
A0101410850000015920951PASCUA                                                  20500
A3101400160000015912526BALCANAO, SILVESTRE CADATAL DVU                         10501
A3101400160000015912526BALCANAO CONST & GEN. SVS                               20500
B0101411240283046151001DISTINCTION LAMPS AND FURNITURE, INC.                    1601
A1101400120000001920554PELPINOSAS JR., SILVERIO PACOMI                          0501
A1101400120000003981157CASIO, GIL POTESTAD DBU GIL                             10505
A1101400120000003981157LUMBER DEALER                                           20500
B1101400120000000653116LMWD MULTIPURPOSE COOPERATIVE                            1605
B0101402060351009544002RI CHEMICAL CORPORATION                                  1602
A1601400170000014117881OCCIDENTAL, LI-JEHY COPLA                                0501
B0101400860000000794958FAN, LINGLING OR WANG, YONGHONG                          1602
A0101400860011519806001**********                                               0506
A0101400860011611945002**********                                               0501
A0101401250000013389034CUNANAN, JACQUELINE AGUSTIN                              0501
B0101400150061040558001CORDILLERA EXPLORATION CO., INC                          1601
B0101400150061042345001HEAVENLY PRODUCTS, INC.                                  1601
A0101400150061226414001ANG, PHILIP T. OR ANG, EVELYN                           10502
A0101400150061226414001D.                                                      20500
A0101400150061292057001GIDEON G. SISON                                          0503
A0101405810072367320001**********                                               0506
B0601400100081038110001QUANTA PAPER MARKETING INC.                              1602
A0601400520000002270902GUILAS, ARCEL CASTRO                                     0501
A0601400520000005943702IMPACT BALIBAGO ARTS AND CRAFTS                          0504
A0101410560000010317783ERNANI C. CRISTOBAL                                      0502
A0101410560000000020195LELIANE D. TORRES                                        0505
B0101401830141029955001SHELL EMPLOYEES MULTI-PURPOSE COOP. -                   11605
B0101401830141029955001STORE                                                   21600
A0101407270000001597011FROILAN TEJADA                                           0502
A0101407270162199731002TRIFINA O. MARTINEZ                                      0502
A0301400790000002301393BARCELONA, JANET TIZON                                   0501
A0301400790000003969644VILLAVER, GENEROSE VILLAGONZALO                          0501
A0301400790000001776138ESCAMIS, JOSE PACLAR DBU                                10503
A0301400790000001776138ESCAMIS BUILDERS                                        20500
A0301400950000010701003LORENZANA, RACHELLE CARREON                              0502
B0301400950000013857213REPULLES, JUANITA DBU RKR ELECTRICAL                    11602
B0301400950000013857213SUPPLY                                                  21600
A0101401380000002297505BERNARDO, JOSEPH ALLAN ALHAMBRA                          0501
B0101410720653035483001GERMALIN ENTERPRISES, INCORPORATED                       1602
A0101410720653528817001VINCENT GONZALO SY OR TIMOTHY                           10502
A0101410720653528817001JON SY OR JULIE                                         20500
A3101400740000012046518SALDARIEGA, SALDIE ESPINO                                0501
A3101400870000000074844ROA, ROSEMARIE JUNDOS OR ROA,                           10502
A3101400870000000074844JAMES ROQUE GARC                                        20500
A3101400870000015936948TABINAS, AILEEN PLATA                                    0501
A1001400190231275077001TAN, EDUARDO                                            10502
A1001400190231275077001TAN, LUCIA                                              20500
A1001400190231520766032TACBOBO, BEATRIZ WABE                                    0501
A1301400470252500617001CLARAFE A. GONZALES OR                                  10502
A1301400470252500617001RUFINO W. GONZALES                                      20500
A1301400470252513958001GLADDY JAYE EVANGELISTA OR                              10501
A1301400470252513958001ELVIS EVANGELISTA                                       20500
A1901400290261067040002MITAL, PRIMO OCAVA DBU MAESTRO                          10503
A1901400290261067040002SYSTEMAS TECHNOLOGIES                                   20500
B0101401670271187224001SAN JUAN NORTH ROTARY TANGLAW FOUNDATION                11601
B0101401670271187224001INC.                                                    21600
A0101401670271188489001CARMEN C. LIM                                            0501
B0101406620273017898002FIRST BALFOUR, INC.                                      1610
A0101406620273038576001VENTURE 11 FOODS EXCHANGE                                0501
A0101406620000000193639************                                            10501
A0101406620000000193639************                                            20500
B0101400570000013647264*****                                                    1603
A0101400570000011680881MATA, CLARISSA SOCORRO URBANES                           0502
A0501400200000009556681BALILA, CYNTHIA SALAZAR                                  0501
B0801400160311043928001DELIFRANZ BACKEREI, INC.                                 1602
A0801400160311389143001CHAN, MILAGROS OR                                       10502
A0801400160311389143001CHAN, NATHANIEL                                         20500
A3401400280318736732001TERESA A. SANTOS OR MA. AILEEN                          10501
A3401400280318736732001A. SANTOS OR TINA S. ONG                                20500
B0101402350000000655481IM MEDIA.PH INC.                                         1603
B0101402060351009388002ASSOCIATION OF ROTARY ANNS OF PASI                       1601
A0101409050000003536532LOPEZ, SHIELA MAE                                        0501
A0101409050000015936259RICAFORT, MELIZA MAGPAYO                                 0502
A0201400760000000232813SOLON, EDGAR CARPIO OR                                  10501
A0201400760000000232813SOLON, NOEMI CAR                                        20500
A0201400760000013668892CAMAY JR., DOMINADOR NOVAL DBU                           0504
A0201400920375524523001MIEL, PRINCESITA OR MIEL, ALEX                           0502
A0101402930381485819001LLORCA, GREGORIO LO                                      0501
B0101408790000000038997TIPPING POINT TRADING AND CONST. INC.                    1602
A0101402770391217498031CESAR S. RAMIREZ JR.                                     0501
A0101408400000005286535MACASAET, MAY MARASIGAN                                  0501
A0101408400394412594001DE VILLA, ARRIEL DE ROXAS                               10501
A0101408400394412594001OR DE VILLA, REMALINDA C.                               20500
A0101408950396563503001DR. SUE- ANN RIVERA LOCNEN                               0504
A0101409210000007762641GUIANG, MA LOTA ECHIPARE                                 0501
A0101409210000015605406PANES, LEAH LUISA DACUDAO                                0501
A0101412210000002714570SANCHEZ, CHRISTIAN PAYSON                                0501
A2401400180411023998002ENE MARKETING                                            0502
B2401400180411056764001RD PAWNSHOP, INC. - GENSAN REGION                        1603
A2401400180411478374057ELLEN J. DIMACUTAC                                       0502
B0901400220000002300878**********                                               1601
A0101403030000000320436ZHENG, GUO DONG                                          0502
A0101412890000004345113RDCU FURNITURES                                          0501
A0101403320471205738001REBECCA MENDOZA OR                                      10501
A0101403320471205738001FLORANTE MENDOZA                                        20500
A0101406330000015172119BALDONADO, MILAGROS TOTANES                              0502
A0101406330472027958001A. ANOLIN ENTERPRISES                                    0502
A1401400110000005526763NADELA JR., ANDRES OCAMPO                                0502
B1601400170494047397001FEDERATION OF BACMAN HOST                               11602
B1601400170494047397001COMMUNITIES, INC                                        21600
A0101407430000015016281CANILLO, MONA LIZA                                       0502
A0101407430000001028773ELAINE S. CANLAS                                         0501
A0101403580000004683030MANALO, MICHAEL VINCENT SAULOG                           0501
B0101403580000002185435R.G. MANABAT & CO.                                       1601
B0101403580511155011002EXCHANGE EQUITY CORP.                                    1604
A0101403580511513845001LETICIA C. DELOS SANTOS                                  0503
A0101405940000008495861VALIAO JR., NORMAN L                                     0501
A0101408530000014027544DOMINGO, RENEROSE GUTIERREZ                              0501
B0101408530516032963001387 AUTO CENTER, INC.                                    1601
A0101411790000002275976GUEVARRA, LEONILA VILLA                                  0501
B0101403450521011872001**********                                               1601
A2201400250000001932338EDWIN D. CHAN OR SUSANA S. CHAN                          0501
A0101407720602397820001SIBAYAN, SANTIAGO ANTONIO B.                            10501
A0101407720602397820001OR SIBAYAN, SUSA                                        20500
A0101412180000015920728SORIANO, MICHELLE TIANGSON                               0501
A0101404260000000550127SALAZAR, CARL P DBU ACN OFFICE                          10503
A0101404260000000550127MART                                                    20500
A0101404260611150835001HENRY OR LAI SHA CHING                                   0508
A0101409890649774914001ELEFANO, ROSITA CASTRO                                   0501
B0101409920000005460624WHITE EAGLE INTERNATIONALE TRADING,                      1604
A0101407690000000025174MADRIAGA, LUZMINDA CAMINA                                0501
A0101407690652462352001DYTOC, JULIET SIA                                       10501
A0101407690652462352001OR FELIZA DYTOC                                         20500
A0101407690000000243810PAGUIO, ANA CARDENAS                                     0502
B1301400210682248659001ASIANLAND STRATEGIES CORPORATION                         1605
A1301400500684740616001BELEBER JR., ILDEFONSO PAMPOSA                           0502
A0101408240000003955317VICTORIA NIEVERA DAVIS                                   0502
B0101408240000013787034GRILLED CHEESERY MOLITO INC.                             1603
B0101408240000003501282GERVACIO HOME MANAGEMENT AIDE                           11602
B0101408240000003501282SERVICES                                                21600
B2801400100712031823001REYES, DIANO, TUMANDA & CO.                              1602
A2801400100712553253001BEST, WILLIAM RAYMOND                                    0501
A4101400420814768923001VIRTUZ, SALVADOR ABAQUITA OR                            10502
A4101400420814768923001VIRTUZ, REBECCA                                         20500
A0101406750000004641598DILIG, ZARA DBU ZPD ACCOUNTING                          10502
A0101406750000004641598AND MANAGEMENT S                                        20500
