A0101412500214069342001UY, MARK HOMER SEE DBU JT VMU                           10502
A0101412500214069342001CONSTRUCTION                                            20500
A0101412500000001146758MARIANO, RICHEL PELIGRO                                  0502
B0101411400000016722446RODEJO, MARIA DBU MVR8 MYSTIQUE BEAUTY                  11601
B0101411400000016722446SALON AND SPA                                           21600
A0101412920000005354310MIRAFLOR II, HERMES MANLANGIT                            0502
A0101412500214057604001PHILIP M. GARCIA DBU PHILTON                            10501
A0101412500214057604001ENTERPRISES                                             20500
A0101412500000016854161LORENZO, SHEREE BERNICE TAN                              0501
A0101412500000016854554AGUILA, DONALD OCAMPO                                    0501
B0501400170481005408003REPUBLIC COURIER SERVICE INC.                            1603
B0301400530000000025378D' UNIBUENAS CORPORATION                                 1603
A0101410720653470975001BELTRAN, ROBERT LUI                                      0502
A0201400920000000007872JLJ INDUSTRIAL SUPPLY                                   10501
A0201400920000000007872& SERVICES                                              20500
B0101403610000016820183SOLID DIALEX CONSTRUCTION CORP.                          1601
A0101403610531218760001CRUZ, ANNA LIZA MORANDO                                  0501
A0101403610531355089002MACASAET, DOMINGA YAMBAO                                10501
A0101403610531355089002OR MACASAET, LOP                                        20500
A0101401250021039948001HARI GARMENTS MANUFACTURING                              0510
A0101400150000003162267AGONCILLO, APRIL ROSE POLINTAN                           0502
B0101400150061010809001VENDOME INSURANCE AGENCY KONSULT, INC.                   1603
A0101400150061227098001TITA CARANTO OR PIO CARANTO                              0502
A0101400150061232035003NORBERTO REYES OR                                       10501
A0101400150061232035003SOLEDAD REYES                                           20500
A0101400150061697165001SERVER, CATHERINE ANNE B. OR                            10502
A0101400150061697165001CHRISTINE MICHEL                                        20500
A0601400100000001442831TIOTUICO, RONALDO PECJO                                  0501
A0101413280000014969790PINEDA, REX JEFFERSON MARCELO                            0501
A0101400730111683043001GUMATAY, WILBERT ALLAN GULINAO                           0501
B0101406040112039150001********                                                 1603
B0101406040112764714001********                                                 1602
B0101401960121349323001**********                                               1602
B7201400170000011454378KURT WAYNE RICE AND CORN BUYER & TRADER                  1603
A7201400170000003773273MERLIN, ERVING NOEL A. OR                               10501
A7201400170000003773273MERLIN, KAY ARLYN P.                                    20500
A7201400170000003774298MADARANG, PRECY JANE YBANEZ                              0502
A7201400170000006487887CARBONEL, JEAN TAN                                       0501
A7201400170000007185773LABORADA, WARLITA REPOLLE OR                            10502
A7201400170000007185773LABORADA, GEZER RETUERTO                                20500
A0101412920000008813510BELMONTE, RUSSELL DIONISIO                               0501
A0101412920000016899962GARCIA, CLEVILYN M. DBU COMXAI                          10501
A0101412920000016899962COMPUTER TRADING  JT                                    20500
B0101412920160022330002S.M. CASTRO MANAGEMENT & CONSTRUCTION                   11602
B0101412920160022330002SERVICES                                                21600
A0101412920000008813292CASTRO, SONNY VALEN ROMERO                               0501
B0101407270000014188822AGUS DEVELOPMENT CORPORATION                             1605
A0101401090000012442049MIN, YOUNG DON                                           0501
A0101401090171196066002MARY JOCELYN OR REDARIO LAYGO                            0502
A0101401090171198410001IMELDA S. DORADO                                         0501
A0101401090000007525773IRENEO, SHIRLEY CORDOVA                                  0501
A0101401090171432366001MICHAEL RONALD OR                                       10501
A0101401090171432366001SHARIE MADARANG                                         20500
A0301400530193037469001SONRISE COOPERATIVE                                      0501
B0301400530000000025356RAZONABLE, MARILOU DBU VICTORY                          11602
B0301400530000000025356JAM AGRI BUY AND                                        21600
B0301400530000005300270NGO, JUSTIN CHIU                                         1605
A0301400530000003573288COSMENO, JELLY JUANILLO                                  0501
B0301400660194772365001**********                                               1605
B0301400660194789062088*****                                                    1602
A0301400950000014676032VALENZUELA JR., DANTE A. OR                             10502
A0301400950000014676032VALENZUELA, IRA C.                                      20500
A0101413020000003055381MALONG, CHARISE LASMARIAS                                0504
A0101413020000014433928MONJARDIN, MARY HAINES SANTOS                            0501
B0101412500000000739737MIKEWELL WORLD OF HOUSEHOLD PRODUCTS                    11610
B0101412500000000739737CORPORATION                                             21600
A1001400480000011810056NAVAREZ, MARGIE ABASTAS DBU                             10502
A1001400480000011810056MADANO MARKETING                                        20500
B1001400480000011809820TORREPALMA, JELLYFE CELESTIANO DBU                      11601
B1001400480000011809820VIBRANT DOCUMENT                                        21600
B1301400470000003270113OBRIGADO LENDING INVESTOR, INC.                          1601
A1301400470252497161001LUCILA L. DELA CRUZ                                      0503
B1301400760000010656852MARY JANE SIOJO ENTERPRISES                              1601
B0101401670000004588401MAIDSOURCE INC.                                          1601
A0101401670271186267001ELOISA L. CAMPOS                                         0502
A0101401670271452929168***********                                              0501
A0101401670271517856001CHUA, MICHELLE NACAGUE OR                               10501
A0101401670271517856001NACAGUE, MARY CHUA                                      20500
B0101401670271672165001DATA LAND INC.                                           1610
B0101410980000003479492SKOPE TECHNOLOGY INC.                                    1603
A0101400570000000031858VICENTE V. JR OR MELINDA L. SEE                          0501
A0101400570000000165699PAPA, ENRIQUE LUIS DIAZ                                  0501
A0101400570000006271843LAURICIO, MARY GRACE SILVA OR                           10502
A0101400570000006271843LAURICIO, PAULO                                         20500
A0101411240000001563322CHUA, MARIVIC CHING                                      0503
A0101411240000016800981CRUZ, CZARINA YSABEL TAN                                 0501
A0101411240000001563344LIMPIN, MA. LIOBA AYSON OR                              10502
A0101411240000001563344CASTRO, LUDY ROD                                        20500
A0101411240000010100553LIMPIN, MA LIOBA AYSON                                   0501
A2601400270000014231293MARY ANN A. SOMERA DBU M. ARANE                         10501
A2601400270000014231293TA SARI SARI STORE JT                                   20500
A1101400120000001920667CAMENFORTE, NEIL M. OR                                  10501
A1101400120000001920667CAMENFORTE, ELKE                                        20500
A1101400120000003022413DUCENTES, GLORIA TROCINO                                 0501
B1101400120000006186832THE REAL ALTERNATIVE INVESTMENT MULTIPUR                11601
B1101400120000006186832POSE COOPERATIVE                                        21600
A1101400120000006081001COLLERA, JEROME MACATO                                   0502
A6601400120314622580001SOSING, CAROL O. OR FELIPE A.                           10505
A6601400120314622580001OR CAROLYN O.                                           20500
A2001400290000000978043UTV CONSTRUCTION & ENG'G.                               10502
A2001400290000000978043SERVICES                                                20500
B2001400290315041258001POLARIS POWER ENGINEERING                                1601
B2001400290000000020571PHILIPPINE REACHWELL DISTRIBUTION                       11605
B2001400290000000020571CORPORATION                                             21600
A2001400290315688009001ALGOPERA, LLOYD GARCIA                                   0504
B3401400280000004959162LAS ISLAS TRAVEL AND TOURS PH, INC.                      1601
A0101402350000000521275EDISON C. QUIAMBAO OR                                   10505
A0101402350000000521275GIA KARLA V. QUI                                        20500
A0101405650000000080117*******                                                  0501
A0101409050000016893893BULAONG, MICHAEL DOMINIC SANTOS                          0501
A0101409050000016893991ESCALA, OLIVE MANGALINDAN                                0501
A0101409050000016894027IGNACIO, JEROME QUICHO                                   0501
B0201400760374478322001BK LEGACY RESOURCES AND DEVELOPMENT                      1601
A0201400920000011194102CANOY, MYTHA ANN BASUBAS                                 0502
A0201400920000016457671REAL FRUITFUL AGRITRADE                                  0504
A0201400890376595445001SUMALINOG, TRINIDAD ROMULO                               0501
B0201401020000003031152VIRLO CONSTRUCTION DEV. CORP.                            1610
A0101408370382206275002DR. ELIZABETH P. PACHECO OR                             10502
A0101408370382206275002DR. BENITO M. PACHECO                                   20500
B0101408790383039290001AUTO SOURCES INC.                                        1605
B0101408790000003845749**********                                               1602
A0101402770000016321743BENOZA, AGRIFINA RARANG                                  0501
A0101405490392473716001RODRIGO C. SILVESTRE OR                                 10505
A0101405490392473716001MARLENE A. SILVESTRE                                    20500
B0101408950000008364494GLOBAL CITY CAR LEASE & TRANSPORT CORP.                  1603
A0101408950396563004001ERIC VIDAD NAGTALON                                      0510
A0101409180000011749763BUYCO, JOSEPH AURELIO ARTHUR C.                         10501
A0101409180000011749763OR ROSIMA, RACHELLE ANNE                                20500
B0301400820000015840010ECOMIXX CONCRETE SOLUTION CORP.                          1602
A0301400820000012928899KCLAM ENGINEERING AND                                   10502
A0301400820000012928899ARCHITECTURAL SERVICES                                  20500
A2401400180000000073590GUMBOC, LUALHATI CONSTANTINO                             0501
A2401400180411459505001MARK T. GO OR MADELINE Q. GO                             0502
A1201400150421295171001BORROMEO, CAROL QUILING                                  0501
A1201400150421464835001PADLAN, MICHAEL G. OR PADLAN,                           10503
A1201400150421464835001CHARINA L.                                              20500
A5101400100000010834409ESTALANE, DOLORES VILLANUEVA                             0501
A0101403030441378112003TY, CHRISTINE NG                                         0501
A0101406330000000162467CARLOS, EDUARDO S. OR                                   10501
A0101406330000000162467CARLOS, CECILIA                                         20500
A0101406330000015172119BALDONADO, MILAGROS TOTANES                              0504
A0501400170000004982265LIM, CELIA CHUA                                          0520
B0501400170481064698001MOTORCENTRUM CORPORATION                                 1602
A0501400170000002357406ESPANOL, LESLIE YAMBAO                                   0501
A1901400160000013648672ACOSTA, MA. ADELIA AGUILA                                0502
A1901400160000016900413ILUSTRE, JOEL REYES                                      0501
B1901400160491018232002AMA COMPUTER COLLEGE - BATANGAS CITY                     1601
A0701400260000009938750AMPONGAN, CHARLIE DBU AMPONGAN'                         10502
A0701400260000009938750S AGGREGATES AND CONCRETE                               20500
B0701400260495041079002YAM MENDOZA & YULO BUILDERS INC.                         1601
A0101407430000001028802LITA T. GUZMAN                                           0502
B0101403580511034776001CRISAIR INDUSTRIAL INC                                   1601
A0101405940000012443593TAN, EDGAR CANETE                                        0502
B0101408530000010285020PROJECTENGAGE INC.                                       1605
B0101408530516005188001SEARCHERS & STAFFERS CORP.                               1608
A0101411400000015206692PENUELA, MA. ANA BAUTISTA                                0501
B0101403450521011615001EAGLE ELECTRIC OF THE PHILS.                             1602
B0101403450521012032001**********                                               1602
A0101403450521238265001**********                                               0502
A0101403450521582387001**********                                               0501
A0101403610000016246230MAPUSAO, KENNY MALEJANA OR                              10502
A0101403610000016246230MAPUSAO, ROSALINDA                                      20500
A2201400250561258530025CATHERINA T. DOMINGO                                    10501
A2201400250561258530025EMPLOYEES OF IEW                                        20500
A0101404130601450094004PASCUAL, LORQUEL OR PASCUAL,                            10501
A0101404130601450094004ANNIE S.                                                20500
A0101407720602166267001BLAISE K. LIAO                                           0502
A0101407720602396333001RAJAGUKGUK, BELEN PANTANGCO                              0502
A0101407720602396596001DR. REGINA MACALINTAL-CANLAS                            10503
A0101407720602396596001OR DR. MANUEL CANLAS                                    20500
A0101407720602396604001SANTOS, REBECCA CHUNG                                    0514
A0101407720602401503001MARIA LIZA G. FRANCISCO                                  0503
A0101407720602697692001SANTOS, GENEVERE SERNA OR                               10501
A0101407720602697692001SANTOS, DANILO SANTOS                                   20500
A0101404260611150909003TANTOCO, ALBERTO SANTOS OR                              10503
A0101404260611150909003TANTOCO, PETER LAURENCE O                               20500
A0101404260000006374514GARDE, JOEL BABLES                                       0501
B0101407690000000243952VITORIA REGIO VENCEDOR (VRV) BUILDERS                   11601
B0101407690000000243952CORP.                                                   21600
A0101407690000015400158BRIONES, KAREN RAE DE GUZMAN                             0501
A0101411530000011424712ORDONO, REX FROILAN OR                                  10501
A0101411530000011424712ORDONO, JOANNA MARIE                                    20500
B0101413570000000206482E SOURCE SYSTEMS DEVELOPMENT COOPERATIVE                 1610
A0101413990000004511180CAPILOS, JELSON E. OR                                   10501
A0101413990000004511180CAPILOS, HYACINTH B.                                    20500
A1301400210000009982529ROSARIO, JESUS SANTOS                                    0502
A1301400500000016062576SANTOS, FREDDIE SANTOS                                   0501
A1701400230000008555302TUNAC, MARTIN VIERNES                                    0503
A1701400230000011255126DE SILVA, YOLANDA MADAMBA                                0501
A0101408240000000347197VASAY, RUBY ANNE BUENAFLOR                               0501
A0101408240000014971590ATIENZA, CLAUDETTE MEA                                   0501
A4101400260000016616012LAVILLA, FLORENCE MULDONG                                0501
A4101400390000016887966ESPANOLA, FERNANDO TUICO                                 0501
A4101400420000012882812IBIS, ATHENA VILLO                                       0501
A4101400420814298552026JOSEFINA FERNANDEZ                                       0502
A4101400550000006044480QUIOYO, EMELIA BOONGALING                                0502
A0101412340000004360132MAMANGUN, MARHIELLE DE VERA                              0501
A0101412340000010660250ROWENA D.ESTINOTE                                        0501
B0101412340850047478001HTECH CORPORATION                                        1605
A0101412340000002900283MARIFE B. VIADO                                          0501
A0101406750000004641736OQUINDO, JANET CADUCIO                                   0502
A0101406750852154205001AQUINO, NIEVES VERGEL DE DIOS                            0501
A0601400230000006045570GUIAO, JULIETA ONG                                       0505
B0601400230891038771001GLOBAL CARS PHILS., INC.                                 1605
B0601400230891320333001WILFREDO OR ROILA DUNGAO                                 1602
