B0101413860862821100608**********                                               2006
B0101409050000007526356AN-TAI APPAREL                                           1603
A0101404260000018323816CRUZ, RODOLFO DBU                                       10501
A0101404260000018323816YBALAI BUILDERS                                         20500
B0101400860011427569001**********                                               1601
A0101400860011498256002**********                                               0503
A0101400860011511921001**********                                               0502
A0101400860011537387001**********                                               0501
A0101400860011559271001**********                                               0505
A0101400860011570367001**********                                               0503
A0101400860011585522001**********                                               0501
A0101400860011605108001**********                                               0503
A0101401250001100002716LUBAO, ELYN ILAO                                         0501
B0101401250021040371001ENHANCE CARGO MOVERS CORP.                               1606
A0101401250021179020001LLAMADO, REYNALDO C. OR                                 10501
A0101401250021179020001LLAMADO, NATIVIDAD                                      20500
A0101401250021435998001ANSBERTO P. PAREDES OR RAMON L.                         10501
A0101401250021435998001DOLOR OR RAYMOND P. DOLOR                               20500
A0101401250021478374003FRIAS, CELIA SILVANIA                                    0502
A0101400150000003198178ZARA MAE A. RAMOS                                        0501
A0101400150000003352394VIRAY, KING LEAR JOAQUIN                                 0501
A0101400150061231736001PUNO, CARMELITA DE MESA                                  0501
A0101400150000016117161DIAMZON, JULIO SANTOS                                    0501
B0101400600000011715030MAZU SEAFOOD GODDESS RESTAURANT INC                      1601
A0101405810000001021183***************                                          0501
A0101405810072234892001**********                                               0501
A0101405810072564262001GOKONSENG, JOHN LIM                                      0501
B0601400100000018296303DEL ROSARIO, LOLITA DELA CRUZ                            1601
A0601400100081251914002TANG, EVA OR ROBERT                                      0501
A0601400520000001706792BUNGQUE, ALDRIN CAPILI                                   0502
A0601400520000005001498CASTANEDA, MARITA TOLENTINO                              0502
B0601400520000018447328FOTON PAMPANGA CORPORATION                               1601
A0101414090000016879360SORIANO, MARIDEL SAN PEDRO                               0502
B0101414090000013005560PRIMAL WAD LOGISTICS CORPORATION                         1601
B0101410850000001229794TRANSLOGISTICA INTERNATIONAL                            11605
B0101410850000001229794FREIGHT INC.                                            21600
B0101410850109061834001RMM ACCOUNTING MANAGEMENT AND                           11601
B0101410850109061834001CONSULTANCY CO.                                         21600
A0101400730111386485042ELENA B. PEREZ                                           0502
A0101413150000013434189JIACHENG YANG                                            0502
A0101412630000000045309LAGON, LEO ANTONIO T. OR                                10502
A0101412630000000045309LAGON, ANNA MARI                                        20500
A0101401830141283129001YOLANDA M. LIM                                           0502
A0101400440000013915961NILLO, CATHERINE BALDEMOR                                0501
A0101400440161478374051LILIA S. FELICES                                         0502
A0101407270000010200667JAMLIG, CARLO RAMIRO BUENAVENTU                          0503
A0101407270000015623022ADRIANO, LYDIA MAMARIL                                   0502
A0301400530000003087409GAVIOLA, MARCO RAY DELA CRUZ                             0501
A0301400660000013311410GENABE, ROSAL CARACA                                     0505
A0301400950000013857275CRAFTY-CREATIONS CATERING                               10501
A0301400950000013857275SERVICES                                                20500
A3101400870000018419997CIEGO, CARLA REPOLLO                                     0501
A3101400870000018424632EVIDENTE, MARIA MARGARITA S.                             0501
B1001400190231040271001CHABON, CLAIRE DBU ROADNET 2000 ENTERPRI                11602
B1001400190231040271001OR TAN, ROGELIO                                         21600
A1001400190231478374116ESTRELLITA E. BERMUDEZ                                   0501
A1001400350233531238001YRASTORZA, MARIA TERESA NERI                             0501
A1001400480000014023400OLAPE, JOHN LISTER CABUALAN DBU                         10502
A1001400480000014023400JOHN HYDRAULIC HOSE ENTER                               20500
B1301400470000007863081LEA P. WONG DBU VIA PHARMACY OR JUSTEEN                 11601
B1301400470000007863081XERXES P. WONG                                          21600
A1301400470252482273001DRA. LEONOR J. DIZON                                     0501
A1301400760000005379411VON RYAN J. MARQUEZ                                      0504
A1301400760000012981089DENNIS SCOTCH HERNANDEZ OR                              10505
A1301400760000012981089CHARLES LUIGIE HERNANDEZ                                20500
A1901400290000003252913JOHN FRANK TINGABNGAB BELMONTE                           0501
A1901400290000017560766RAMOS, LORENA DE OCAMPO                                  0502
B1901400290000007876791ARMOR MILLING CORPORATION                                1605
A0101406620273280285001PELAGIO / ROSARIO / REBECCA /                           10501
A0101406620273280285001RAFAEL / ROWENA                                         20500
A0101406620273417637001LAPUZ, ANNE SHARLYNE GOBOY                               0502
A0101411110000013980533RIOFLORIDO, JOCELYN TIU                                  0502
B0101412470000008158903LEE, DAISY ONG LO DBU SPURWAY                           11603
B0101412470000008158903ENTERPRISES                                             21600
B0101400570281015941001CHCC GATEWAY STORE                                       1601
A0801400160311266921650ARMADA, SHIRLEY UY                                       0501
A1101400120000003022333ENFECTANA, EMIL ROY DY                                   0501
A1101400120000015062774EDEP, JESSE JOHN ARTHUR ABORQUE                          0501
B2001400290000009721882SIERRA, SANTIAGO VILLEGAS                                1602
A3401400280000006791144VILLAREAL, JANE LAGULAY                                  0502
A3401400280318353803001JOCELYN S. MOSQUETE OR ROMMEL                           10502
A3401400280318353803001C. MOSQUETE                                             20500
A0101405650000015273857BERNABE, MA. DARLYNNE ESPINOSA                          10501
A0101405650000015273857DBU MDPE TRADING                                        20500
A0101405650322536452001CEDILLA, FRANCIS GERARD                                 10501
A0101405650322536452001VILLEGAS                                                20500
A0101402510000000200120RAMOS, PILIPINO ANGELES                                  0501
B0101402510341008473001CENTRO ESCOLAR UNIVERSITY EDUCATIONAL                   11602
B0101402510341008473001FOUNDATION, INC.                                        21600
A0101402060000009179575LAXAMANA, FRANCIS EPHRAIM                               10501
A0101402060000009179575MICIANO                                                 20500
B0101402060000011455440GCTL SUSTAINABLE RESOURCES PHILIPPI                      1602
A0101402060351687812001SOLER, MA. ASUNCION RAMIREZ                             10501
A0101402060351687812001ARELLANO                                                20500
A0101409050000008087503PEREZ, SHIELALYN B OR PEREZ,                            10502
A0101409050000008087503ROEL S                                                  20500
A0101409050000014598413CANCHELA, MANUEL FOZ                                     0502
B0101409050000013167830CANCHELA, JEANETTE GALANG DBU MJC F                      1601
A0201400760000016614738OLIVA, MARY JOSEPHINE GO OR GO,                         10502
A0201400760000016614738HERBERT JOSEPH G                                        20500
A0201400760000017092901UY, IMME CHERY UNTAG                                     0501
B0201400760000005016619PHILIPPINE SOCIETY OF HOSPITAL                          11601
B0201400760000005016619PHARMACISTS, INC                                        21600
A0201400920375478374015GAYO, LOURDES O.                                         0502
A0201400890000010290103ROBINSON, MICHAEL FRANK LABRADO                          0501
A0101408370000009296773MARIANO, MELCHOR TOLENTINO                               0502
A0101408370000017511449BALCE, HARVEY DULAY                                      0501
A0101408370382508055001**********                                               0502
A0101402770000000360661MALICDEM, SNOOKY DULATRE                                 0501
A0101405490000001092626LOUIEDALE S. STA MARIA                                   0502
A0101405490000000355673PASCUA, VIOLETA ZACARIAS                                 0501
A0101408400000006813716ALTAVANO, WHENPHEN ODCHIMAR                              0501
A0101408400000005286331SALINIO, NARCISO MANTIQUILLA                             0505
A0101408400394738420001PACAPAC, EUTIQUIO ASUNCION                               0501
B0101408950000010411251ATELIER ALMARIO CORP.                                    1603
A0101408950396663666001EDGARDO SAN JOSE CRISTOBAL                               0501
A0101409180000009769293BLAIR, IAN LESLIE                                        0501
A0101412210000014244521TORRES, GERONIMO GERONIMO                                0501
A0301400820000004073465TUTO, ROMEO T.                                           0501
A5501400120000011599263TIU, GIOVANNI MALABUYOC                                  0502
B2401400180411008881001CENTURY CANNING CORPORATION                              1601
B2401400180411032920001GENSAN AURORA AUTO SUPPLY INC.                           1605
A2401400180411514423001DEALA, BERNARDITA GATCHALIAN                             0502
A1201400150000016104475SEMSEM, HILDA BULANADI DBU                              10501
A1201400150000016104475RE-VISIO                                                20500
A0101412890000012474094YUSINGCO, A DBU ELIECEA RED                             10501
A0101412890000012474094FOOD SERVICES                                           20500
A0101406330000014144986ALVAREZ, BRENDA MAALIHAN                                 0503
A0101412760000001399293PEREZ, GABRIEL REYNALDO P. OR                           10501
A0101412760000001399293PEREZ, REYNALDO                                         20500
A1901400320000018445140CASEDA, MARJORIE SANDRA GONZALE                          0501
A1901400320000018445640MAGBOO, TERESITA UMALI                                   0501
B1901400320489062995002CLEVERGOLD CREDIT CORPORATION                            1610
A1401400110492365609001JEORGE S MALIGAT - PILIPINO HAR                         10501
A1401400110492365609001CONST. SUPPLY                                           20500
A0701400260000002339102MENES, LEODEL PASCUA                                     0502
B0101411400000004555799BF CORPORATION                                           1610
A0101403450000014728482*****************                                        0501
B0101403450521011615001EAGLE ELECTRIC OF THE PHILS.                             1602
B0101403450521011639001MACHINE BANKS' CORP.                                     1602
B0101403450521011655001SONIC INT'L. INC.                                        1605
B0101403450521011769001SAFEWAY CUSTOMS BROKERAGE, INC.                          1605
A0101403450521239682001**********                                               0501
B0101403450521504300001TAN, GREGORIO CHUA                                       1601
A0101403450000006055541CHUA, RITCHIE CALEB GO                                   0501
B0101403610000018446041MERAV PHARMACEUTICAL ENTERPRISE INC.                     1601
B0101403610531017603001LINBERR CONSTRUCTION AND DEVT.CORP.                      1602
A0101403610531219282001ALMENDRALA, FERNANDO GERODIAS                           10510
A0101403610531219282001OR ALMENDRALA, PAULINA                                  20500
A0101404130000018205897WANG, ZHIXIANG                                           0504
A0101404130000018205842XIAO WANG                                                0504
B0101404130601563008001I. PRUDENTIAL SHIPPING AGENCY SERVICES                  11610
B0101404130601563008001INC.                                                    21600
B0101412180000000024233MEGS FUELS AND LUBES, INC.                               1610
A0101404260000003498373MA. DESIRIE J PATOC                                      0502
A0101407690652020765001STARIAN MARKETING                                        0505
A0101407690000010774553PARAGAS, DANILO FIRMEZA                                  0502
A0101407690652399727002QUIAMCO, CONSOLACION GIVA                                0501
B0101413570000013276887LA CHANCEUX ENCISO CORPORATION                           1602
B0101413570000013276901SEVEN E KOMP TEK CORPORATION                             1602
A1301400210000016548131PULUMBARIT, JAIME PANGANIBAN                             0501
A1301400340000016548448IGNACIO, BENITO PRODON                                   0501
A1301400340000000100374PRADO, ERLINDA SORIENTE                                  0501
A1301400500000015562300LORILLA, RHEA PARALI                                     0501
A1301400500684094788001GERODIAS, ANALYN ALCANTARA                               0503
A1301400500000000213163NORVY G. MARCELINO OR GILLYN                            10505
A1301400500000000213163D. MARCELINO                                            20500
A0101408240000018210856DE LEON, ADELAIDA MONIS                                 10501
A0101408240000018210856OR ASI, LEA DE LEON                                     20500
B0101408240000006414411BAYAN MUNA REALTY CORPORATION                            1603
A4101400260812469791001CAROL E. COMIA                                           0501
A4101400260812469791001CAROL E. COMIA                                           0501
B4101400390000003346187PAGASA PHILIPPINES LENDING COMPANY                       1608
A0101412340000003564470MARIVIC A. NARRA                                         0501
A0101412340000010660250ROWENA D.ESTINOTE                                        0501
A0101412340000001017930SONIA MEDINA SIBI                                        0501
B0101404840851013980002VIC IMPERIAL APPLIANCE CORP.                             1601
A0101406750000004642006MALINIS, LISBETH MANALANG                               10501
A0101406750000004642006OR MARIO MALINIS                                        20500
B0101406750000007097272BONA, MECHIE ROMAN DBU ANING'S VULC                      1601
A0101413860000007255970BATANGAN, HAZEL JOY CUCIO                                0502
A0101413860000018433326CHEW, RITCHE GRACIOSA                                    0501
A0101413860000018433553OLIVARES, LUIS III BARRETTO                              0501
A0601400230000015248816GENONANGAN, EPHRAIM SUDUESTE                             0501
A0601400230000000452840GOZUN, R-JAY RAMOS OR                                   10520
A0601400230000000452840GOZUN, MYRNA RAM                                        20500
A0601400230891746394001**********                                               0501
