B1901400160491821100608**********                                               2010
B2401400180411821100608**********                                               2010
A0101410720000007843470SAMBRANO, MARIE CAMILLE ASIS                            10502
A0101410720000007843470OR CARMELITA ASIS                                       20500
A3001400130000005446340BALANGA, MARIO FERNANDEZ                                 0501
A1001400350000000922058ARENO, ANN JANE BUCO                                     0502
B2401400180411014376006PENBANK, INC. (A PRIVATE DEV'T BANK) -                  11605
B2401400180411014376006FISHPORT BRANCH                                         21600
A2401400180411514423001DEALA, BERNARDITA GATCHALIAN                             0503
A2401400180411539646003ONCADA, VANESSA CALUBIA OR                              10503
A2401400180411539646003ONCADA, JOSEPH Q                                        20500
A2401400180000007031789DIZON, LEANDRO ADOR ANDRES                               0502
A2401400180411712618001ESTIMADA, JUDITH EBALLE                                  0502
A0101401250000007390265BELLUDO, RAUL BERMEJO                                    0501
A0101401250000016175901BALIAO, JOVITA LINGGON                                   0502
B0101411370000011680221OPULENCIA, E DBU TOKIO KAN CAFE                          1601
A0101400150000003165200Maria Cecilia C. Maglonso                                0501
A0101400150000008044211CHUA, GARRY NG                                           0501
A0101400150000018866212LOBO, IRMINA DE GUZMAN                                   0501
B0101400150061025214001MAA CONSULTANTS, INC.                                    1601
B0101400150061027783001CRESCENT MINING AND DEVELOPMENT                         11601
B0101400150061027783001CORP.                                                   21600
B0101400150061048055001HOME DEVELOPMENT MUTUAL FUND                             1601
B0101400150000010164535PLG PRIME GLOBAL CO., INC.                               1602
A0101405810000018879346XU, MINGZHU                                              0501
A0101405810072444240001LAM, EFREN K. OR LAM, MARIA                             10505
A0101405810072444240001BETTY L.                                                20500
A0601400100000000141966BANAS, CESARLIE AMBASA OR                               10505
A0601400100000000141966BANAS, JACKQUILYN R.                                    20500
A0601400360000004915413SIOCO, MARY JANE SORIANO                                 0508
A0601400520000005943513BUCO, DONALD DELA PENA                                   0501
A0601400520000007553382BUCO, DONALD DELA PENA DBU ADS                           0503
A0101413730000002229701*************                                            0501
A0101410850000018856741GARCIA, AINALAIN NAVALTA                                 0501
A0101410850000013601411GARCIA, RACHEL PANGILINAN DBU                           10502
A0101410850000013601411MANDERNA ENTERPRISES                                    20500
A0101410850000003503482CANILLAS, MARTIN LAPPAY DBU                             10502
A0101410850000003503482MARCCHARM INDUST                                        20500
A0101410560000016200023JULIE LOURDES REY ABOUZID                                0502
A0101400730111047618004RONALDO BAARDE PRADO                                     0502
A0101400730111203514066**********                                               0501
A0101400730111386485175IVANHOE O. MARASIGAN                                     0502
A0101400730000001822680BALBES, JASMINE MONTEPOSO OR                            10504
A0101400730000001822680JARDIOLIN, MAJAR                                        20500
B0101406040000010858063WEALTHY SUNDRAGON SALES, INC.                            1601
A0101406040000001392007********                                                 0502
A0101401960121445141002***************                                          0501
A0101412630000016300160MONTOYA, ERIC MENDOZA                                    0502
B0101401830141037764001MICHAELJONA TRUCKING SERVICES, CO.                       1602
B7201400170000003774163MACARIO N. SEPADA OR                                    11605
B7201400170000003774163JUVY P. SEPADA                                          21600
A0101407270000003254242MUPRA, ROSAME BARGAYO                                    0501
A0101401090000011984420OCSON, YOSHIKA CATO                                      0502
A0101401090171196088001LIBERTAD NAZARENO ROSALES                                0505
A0101401090171328970001RAYMOND C. TORRES                                        0501
A0301400530193694916001MAGALLANES, RICHARD A.                                   0501
A0301400660000005691881CHIU, PETER PAUL VINCENT OR                             10502
A0301400660000005691881DAYANGHIRANG, CAMILLE                                   20500
A0301400950000018503818HAGTAGS PRINTING SERVICES                                0501
B0101401380201032714001MMJ BIOSYSTEMS PHILIPPINES, INC.                         1601
A0101410720000017581132*********                                                0502
A0101410720000013389530ONG, EDUARDO MENDOZA DBU                                10501
A0101410720000013389530GREEN ENERGY TRA                                        20500
A3101400160000001559213IAN GARY C DELA TORRE                                   10502
A3101400160000001559213JACQUELINE A DELA TORRE                                 20500
A3101400160000014779425MARQUEZ, EMMA JAEN                                       0501
A3101400160000017165743AFURONG, KARIZA CHRISTINE LOGO                           0502
A3101400160000017090916BEREDO, CORNELIO REX OR                                 10501
A3101400160000017090916BEREDO, JENNILYN ANGELITA                               20500
A3101400870000017261422LOVELY, GLENDA ADATO                                     0501
A1001400190000015442287ARQUIZA, DAISY VICENTE                                   0502
B1001400190000011057980TRANSPECIAL INC                                          1601
A1001400350233528399003KO, JOSE NELSON AND                                     10502
A1001400350233528399003KO, CHARMAINE                                           20500
A0101406620000018880632CLAVERIA, CHERRYLE CASAMPLONG                            0501
A0101406620000018880869DEL ROSARIO, KENNETH SALES                               0501
A0101406620000018881015FELARCA, MELANIO ERLANO                                  0501
A0101406620000018881139FLORES, JESUS GONZALES                                   0501
A0101406620000018881220LAUREL, BABYLON BIRAO                                    0501
A0101406620000018881311LAZO, ISAAC TELMO DE LEON                                0501
A0101406620000018881420MABUTE, CHERRYLE SIOBAL                                  0501
A0101406620000018881544MESINA, JEROME MARI GARCIA                               0501
A0101406620000018881646ROXAS, ROMMEL ALLAN CARREON                              0501
A0101406620000018881704TUBIA, JENNIE ROSE QUIRONA                               0501
A0101406620000017765267ESCOTE, MALOME GOMEZ                                     0505
A0101406620000012373461DE GUZMAN, ROSARIO ANGELES K.                            0501
B0101408660274046031001INTERNATIONAL SPECIALTY RETAILERS, INC.                  1603
A0101400570281192586002LORINDA ANG OR JENNY JILL DY OR                         10501
A0101400570281192586002LINDSAY RITZ ANG                                        20500
A0101411240283676374001DIONELA, ROWENA MOSTER                                   0501
A0501400200000011516960ABENOJAR, ZACARIAS PERICO                                0502
A0801400160000013365516MAGLUPAY, JANICE ADA                                     0501
A1101400120000003197011CHUA, THERESA ANG OR                                    10501
A1101400120000003197011CHUA, PETER JUST                                        20500
A1101400120000000652351YAO, RONALD PHILIP GO                                    0504
A2001400290000016029793REYES, RELENISA PADURA                                   0501
A2001400290000016029811TEVES, INGRID ISABEL EVA                                 0501
A2001400290000011716755DUMALAG, ANTHONY TOLOMIA DBU                            10502
A2001400290000011716755ADS EDGE ADVERTI                                        20500
B2001400290000000020537LINK RI LOGISTICS INC.                                   1601
A0101402350000012300160QUIAMBAO, EDISON C. OR                                  10505
A0101402350000012300160QUIAMBAO, GIA KARLA V.                                  20500
A0101402350321564527001YANQUILING, NATIVIDAD G.                                 0501
A0101405650322299905001RAUL AURELLANO                                           0501
A0101402510341399755001********                                                 0501
B0201400760000001612835GLOBAL STAR MOTORS CORPORATION                           1601
A0201400920000000048053YU, WILSON LIM                                           0505
A0201400920375074571001MONTEALEGRE, FRITZIE MARIE OR                           10502
A0201400920375074571001MONTEALEGRE, DAX                                        20500
A0201400890000016705196HAMILTON, VIOLETA CALAGO                                 0501
B0201400890376034920004CREAM N BAKE CAKES & PASTRIES                            1610
A0201400890376080642001GALANG, LORLIE PACURIBOT OR                             10505
A0201400890376080642001GALANG, GLENN AN                                        20500
A0201400890376080642001GALANG, LORLIE PACURIBOT OR                             10505
A0201400890376080642001GALANG, GLENN AN                                        20500
B0101402930000012171470G & J UNI-GLOBAL CAR RENTAL INC.                         1604
B0101402930381040393001RESOURCE ONE CORPORATION                                 1601
B0101402930381047467001FLUID SOLUTIONS, INC.                                    1601
A0101402930381205144001LYRA RUTH CLEMENTE-CHUA                                  0501
A0101402930381341460001SUI SIONG T. CANDELARIA OR                              10502
A0101402930381341460001CHRISTINE S. CAN                                        20500
A0101408790000005250982CELLON JR., NILO BRONZAL                                 0501
A0101402770391025704001JLD GIFTS & MAGAZINES                                    0505
A0101405490000004353020MATUTE, HENRY ALEJANDRO                                  0501
A0101408400000011077579MILAN, ANGELITA OLAZO                                    0501
A0101408400000018706095DELA PENA, LARRY GARCIA                                  0501
B0101408400394028489001KING'S HOLLY, INC.                                       1602
B0101408400000008319911KING'S HOLLY, INC.                                       1602
A0101408400000001614693ELICARL SALON                                            0504
B0101408400000006813625ANG, DAVIE UY                                            1602
A0101408950000000776621VISTA, EMMERSON GALE SILVERIO                            0502
A0101408950000007459063ANG, EDMUND ONG OR                                      10502
A0101408950000007459063ANG, VANESSA SECADES                                    20500
A5501400120000002348325ANG, ANDY MAN CHUNG CHANG                                0505
A2401400180411542448002GUATLO, ANNA MARIE VILLASENCIO                           0502
A2401400180411637974002MANANGQUIL, JOHN RAY BETITA OR                          10501
A2401400180411637974002MANANGQUIL, JIM                                         20500
A0901400220000003069043**********                                               0503
B0901400220432750068001NOCOM, JOSELITO GABRIEL                                  1601
A0101403320000014818574RONAND MIGUEL PHARMACY                                   0501
A0101403320471069301001BACK OFFICE SYSTEM SERVICES                              0502
A0501400170000005646222GANUELAS, EDMAR KIM GARCIA                               0501
A0501400170000002354510BERMUDEZ, ELSIE MALAPIRA OR                             10502
A0501400170000002354510LEIZA JR., JUANI                                        20500
A1901400160491244619001ALEJANDRO F UY OR                                       10502
A1901400160491244619001APOLONIA AGNES B                                        20500
A1401400110492064340001DY, D DBU DAVE AND GOLIATH ENTE                          0505
A1401400110492220879001ANGLO, ROMEO F. OR                                      10502
A1401400110492220879001ANGLO, CECILIA N                                        20500
A1401400110492620230001DELOS SANTOS, ENRICO PEREZ                               0502
A1601400170000012410814AMICAN, LITO LILLO                                       0501
A0701400260000015110420SOLA, ROMMEL JOSEPH ICARO                                0502
B0101412050000016141741EQUAL LENDING INVESTOR CORPORATION                       1605
B0101403450521038001001********                                                 1601
A0101403610000018847900AGOJO, MARIFE BATHAN                                     0501
B0101403610000016438927MMG BROKERAGE CORP.                                      1601
B0101403610000017201251ASIA WORLD TRANSPORT PHILS. CO., INC.                    1601
A2201400250000015111412ORCINO, JAYSON FRILLA                                    0503
A2201400250561037321001PTT NORTH RAMP GASOLINE STATION                          0501
A2201400250561428151001JOCELYN T. DIAZ                                          0501
A2201400250000001545580MEMBERS OF NATASHA (SHOECAT INC                         10501
A2201400250000001545580GAUDIOSA A. WAGE                                        20500
B0101404130000000001218EXEMPLAR 168 MANPOWER CORP.                              1605
B0101404130000003105751GOLD NUGGETS HAULING AND TRUCKING CORP.                  1603
B0101407720602015953001VERZATEK, INC.                                           1601
A0101407720602287906001FLORENCIO GERARDO                                       10504
A0101407720602287906001CAEDO JR. M.D.                                          20500
A0101407720602396245001******                                                   0503
B0101412180000014550273NOUVEAU PHILIPPINES CORPORATION                          1610
A0101412180603228803001ANES, FERDINAND MABALLO                                  0501
B0101404260000000550361FELICITAS HAVEN RESORT                                   1601
A0101409890000003098213AQUINO, VIL DBU JOVAROM                                 10503
A0101409890000003098213COMMERCIAL                                              20500
A0101407690000000587895MANLIMOS, AMALYN DELANI                                  0501
A0101407690000017376651CELIZ, EMMA RAMOS                                        0501
A0101411530000005493683CHOI, LOVELIA ALICIA DE GUZMAN                           0501
A0101413570000004353902NADAL, JOSE MILOS ALFONSO LIRA                           0501
A0101413990000010191243CABOCHAN, JONAH FELICIA                                 10501
A0101413990000010191243BERNADETTE                                              20500
B0101414120000007655403INFINITE EDGE CONSTRUCTION, INC.                         1604
A1301400210000009982621VILLENA, RENIESON HADUCA                                 0502
A1301400500000011254612DE JESUS, MICHELLE BUNAG                                 0501
A0101408240000018210269GANITNIT, F DBU FLG SCHOOL BUS                          10505
A0101408240000018210269SERVICE                                                 20500
A2801400230000005253492PENAS, MARY VIOLETTE PATERNO OR                         10502
A2801400230000005253492PENAS, GREGORIO                                         20500
A2801400230000009022100ONG, JOHANN CHRISTOPHER SO                               0501
A2801400230000009021783SINGH, GURMEJ OR SINGH, JAIL                            10502
A2801400230000009021783OR KUMARI, NARES                                        20500
A2801400230000009022199BUSTAMANTE, JOSEFINA MERLUZA                             0502
A4101400260000010623480PARTOZA, RACHELLE M. DBU JAYLYN                          0502
A4101400390813478374060CASTRO, AMELIA                                           0501
B4101400420000016909292STARLIGHT FOODS CORPORATION                              1605
A4101400420000000018573N.A.J AUTO SUPPLY                                        0502
A4101400420000000018573N.A.J AUTO SUPPLY                                        0502
A4101400420814520766004SALVACION D. BITANCUR                                    0501
A4101400420814520766012SUSAN B. MALBOG                                          0501
A4101400550000004846904FERNANDEZ,HONIE VENUS ALMENDRAS                          0504
A4101400550000014848630LUCKILEE CONSTRUCTION SUPPLY                             0503
A4101400550000000900350SANTOSIDAD AUTO SUPPLY                                   0503
A0101420680000016936364ABANO JR., RAFAEL BUMAGAT                                0501
A0101412340000003349728MITZI A. ESPINA                                          0501
A0101412340000018785370JEFFREY L. BENGCO                                        0501
A0101412340000010660118FISHER, MICHELLE UY                                      0502
B0101404840851020318001KAWASAKI MOTORS PHILS. CORP. SUPERVISORY                11601
B0101404840851020318001UNION                                                   21600
A0101404840851281035001NELLIE M. LAW &/OR                                      10503
A0101404840851281035001HERMINIO T. LAW                                         20500
A0101406750000016396880TAN, SARA JEAN LAO                                       0501
A0101405070000018667782MARILYN LACHICA CASTRO                                   0501
A0101405070000018667793LIRIO FAUSTINO BAGACINA                                  0501
A0101413860000007255970BATANGAN, HAZEL JOY CUCIO                                0502
A0601400230000010702820VIANZON, DINO MORALES                                   10501
A0601400230000010702820OR VIANZON, ARIANNE                                     20500
A0601400230000010703072PANGILINAN, ARCEL BULANADI                               0502
A0601400230000001062402SALAZAR, MARY DBU PRIMUS TAILOR                          0503
A0601400230000005185935SANKEM TRADING                                           0510
