F0601400100081428490001MUNGCAL, CHITO OR IRENE                                  2505CKO
F0101409890000000049147BIG QUEEN FOODS CORPORATION                              2605CKR
F0601400100081037000001C MUNGCAL ENGINEERING                                    2605CKR
F1801400130151048854001MSU-IIT NMPC MARANDING BR.                               2602CKR
F0301400110191030382002TRI-STAR PLASTIC, INC.                                   2606CKR
F1001400190231051275001MSU-IIT NMPC CDO CM-RECTO BR.                            2601CKR
