A0101400440000000029445ABRAZADO, APRIL BERNALDO                                 0501
A0701400260000000041027CU, LYNDY ROSE ESCALONA                                  0501
A1001400480000000133337TUDTUD, NELSON ATAMOSA                                   0501
A1901400160000000243558JJEG TRADING                                             0502
A0101401250000000441052ONGSUECO, SYLVIA K.                                      0502
A0101408400000000471221PAUNTE, LAILANIE DIRAMPATUN                              0501
A2601400270000000561459PEDRO A. PAUAL                                           0502
A3401400280000000972783DELA CRUZ, EMILIO BILLONES                               0501
A0601400360000000978696ONG, JEFFREY NAVARRO                                     0502
A3001400130000001261169LIM, MICHELLE ZOSA                                       0503
A0101408530000001268617YU, YUN-TING                                             0501
A3001400130000001271352MONTECLARO, JOSEPHINE VILLAROSA                          0502
A1401400110000001549340CAPIRAL, ROSALIE BELESARIO                               0501
A0101403320000001647036LORENZO RENAN E. TORRES                                  0504
A0101409050000001662448LACSON, MICHAEL ANGELO LIWANAG                           0501
A0101410140000001939984DELANTAR, DARMEL URAGA                                   0501
A1901400290000001975211LACORTE, JOSE LIAC                                       0502
A4101400420000002084460MARISSA GUNAO                                            0501
A1001400190000002170576CORAZON TANGUB                                           0501
A1101400120000002254935VIOVICENTE, CRISTITA BARLOMENTO                          0501
A0201400890000002270140**************                                           0502
A1001400480000002300372GALUT, MYRNA MANGALLAB                                   0501
A0101409890000002326796IMPRESO, ORTIZ SARMIENTO                                 0502
A0101400150000002394625KATIGBAK, CARMENCITA D.                                  0506
A0101408400000002921213MANJARES, GILBERT CRIS                                   0501
A0101413600000003134512EFREN A. BALINAS                                         0502
A1901400160000003198703IRMINA BLANCO DE VILLA                                   0501
A1901400290000003252662BISCOCHO, VANESSA RODRIGUEZ                              0501
A0101412890000003508052BARQUIN, MINERVA GONZAGA                                 0502
A4101400420000003715666BALENA, MARYJANE LOPEZ                                   0501
A0101412890000004345044SILCOCK, PAMELA PALLON                                   0501
A0101412340000004359837KRISTIANNE U. CIRINEO                                    0501
A0101412630000004830051DEL ROSARIO, EDNA LIWAG                                  0501
A0801400160000004893723BENITEZ, JANE YOUNG                                      0501
A0101400150061227452002KIAMZON, ENYA TOLEDO                                     0501
A0101400150061228273001KARLEEN ZITA P. CASINO                                   0501
A0101400150061370228126ALDREEN R. STA MARIA                                     0501
A0101400150061493053001DEMPSEY, RAY ARTHUR ENCARNACION                          0506
A0101401960121238672001**********                                               0502
A0101400440161621420002CANO, EDWIN SANTOS                                       0501
A0101401090171196220003DR. IMELDA S. DAVID                                      0505
A0101401090171201680002RAFAEL P. BANTAYAN JR.                                   0502
A0101401090171493504001LOUIE CHRISTIAN NARANJO                                  0501
A03014006601940480850010194048085001                                            0504
A0301400660194618862001TAJON, NONILO                                            0501
A0301400660194730766001MONTENEGRO, VENUS ALCOMENDRAS                            0501
A0101401380201554626001BANGURAN, MYRNA BRINGAS                                  0501
A3101400160221218333001KATHERINE OR CARLOS SION                                 0505
A3101400160221478374052MARTA L BONDOC                                           0502
A3101400450223223556001*****                                                    0505
A1001400190231520766110MAYOR, CARMELITA ANGCAY                                  0501
A1001400350233478374001JUNIO, ROGELIA A.                                        0501
A1901400290261244564002ANITA LUMBERA SAUZ                                       0505
A1901400290261298552105AIDA NABOS REYES                                         0501
A1901400290261488341045LOURDES H PEREA                                          0501
A0101406620273306796024MA. LIWAYWAY TAN                                         0501
A0101405650322755197001ZERRUDO, LAURENCE UYTIEPO                                0502
A0101402510341595415001ESTRELLA, MARIA LANI SARAJAN                             0502
A0101402060351392275001YAP, KENNETH YU                                          0502
A0101402060351445404001ACOSTA, REYNALDO DELA TORRE                              0503
A0101402930381040795001MATIMPRO SALES                                           0503
A0101408400394539659001**********                                               0502
A2401400180411442136088***************                                          0501
A1201400150421299356004LARANANG, BENITA CRISELDA MANON                          0502
A0101403030441337771001**********                                               0501
A0101403320471210060001ALFONSO BUTIL                                            0501
A0101403320471570181001EMMA R. LIM                                              0502
A0701400260495054474002**********                                               0503
A0101403580511152575001REX REDENTOR C. BERDOS                                   0503
A0101403580511156576001NIDAN E. ALBA                                            0502
A0101404130601399742001DALAYAP, MA. CORAZON BOCO                                0501
A0101404260611337876002CHING, ROSA MATIAS                                       0503
A0101406590662035265001******                                                   0502
A0101408240711226051002CHAN, ALFREDO OR CHAN, CEFERINA                          0502
A0101408240711375102001PANICUCCI, MA. PILAR M. JT                               0501
A4101400420814477593003BAUTISTA, TERESA PONCEJA                                 0503
A4101400420814520766027ARUTA, CORAZON G.                                        0501
A4101400420814520766077DOMINGUEZ, SYLLIE                                        0501
A4101400420814520766119OMNOS, NOVA DESCARTIN                                    0502
A4101400420814520766135MOTILLA, ROSELLE                                         0501
A4101400550815478374012LOPENA, FEDELINDO GELI                                   0501
A0101404840851316655003KATHERINE HIPE-LOPERA                                    0501
A0101404840851424338001PAMITTAN, MYRNA M.                                       0503
A0101402060000000042253COLLARGA, ERIC DBU TECHYPE I.T.                         10501
A5501400120000000046871CHIU, VALENTIN & JULIA &                                10503
A0101408950000000776529PULIDO, RICHARD NAVARRO OR                              10501
A0301400530000001010051CUBILLO, DOMINGO D. OR                                  10504
A0101412890000001056393GERONIMO, M DBU A.M.-M.A'S                              10501
A0101411530000001393682PACIA, EDWIN MICHAEL JOY B OR                           10501
A1901400290000002337704EVARISTO TAN DY OR EVANGELINA                           10503
A2201400250000003558070VIRGINIA G. ROBLES OR ROBERTO                           10501
A7201400170000003773080INSO, RICHARD SUGABO OR                                 10501
A0101400440161393583001ENRICO U. DEE OR                                        10501
A0101406620273214161001RUTH FLORES OR RICARDO FLORES                           10501
A0101405650322369598001YANG, YI CHENG OR                                       10502
A0101405650322634117002B.ESPIRITU OR E.ESPIRITU OR A.                          10501
A0101402060351734699001RAMNANI, MICHAEL CHRISTOPHER                            10502
A0201400890376731894001JIMENEZ, JEREMY MICHAEL ALMARIO                         10502
A0101402930381094837001DUGENIA, ANTHONY FULO OR                                10501
A0101402930381626170001JEREH C. RUFIN OR                                       10501
A0101408950396563050001CHIO, NANCY BORJA OR                                    10502
A1201400150421294034001ESPIRITU, ANTONIO ARAOS OR                              10503
A0101403610531219335003MANGUNE, MACARIO C.  OR                                 10502
A1301400340683387803001ESGUERRA, DANILO MEDRANO   OR                           10504
A0101408240711383150001AURELIO III OR AURELIO JR.                              10501
A4101400420814248330001ALCALDE, DANILO SANTACERA                               10501
A0101402060000000042253SERVICES OR AVEL                                        20500
A5501400120000000046871CHRISTIAN & CHRI                                        20500
A0101408950000000776529CHIO, MARTIN CLA                                        20500
A0301400530000001010051CUBILLO, CARMELI                                        20500
A0101412890000001056393BAKERY                                                  20500
A0101411530000001393682PACIA, ANNABELLE L                                      20500
A1901400290000002337704MACALINAO DY                                            20500
A2201400250000003558070G. ROBLES                                               20500
A7201400170000003773080PERILLA, RACHEL MENDOZA                                 20500
A0101400440161393583001ELIZABETH U. DEE                                        20500
A0101406620273214161001OR RACHEL RUTH                                          20500
A0101405650322369598001SHU, SALLY Y.                                           20500
A0101405650322634117002OCAMPO OR C.DE CASTRO                                   20500
A0101402060351734699001MURPHY                                                  20500
A0201400890376731894001OR JIMENEZ, MARIA THEREZA                               20500
A0101402930381094837001MARY JOYCE O. DUGENIA                                   20500
A0101402930381626170001TRICIA RUFIN                                            20500
A0101408950396563050001CHIO, MARTIN CLA                                        20500
A1201400150421294034001ESPIRITU, RACHEL                                        20500
A0101403610531219335003MANGUNE, RITA                                           20500
A1301400340683387803001ESGUERRA, ANGELITA                                      20500
A0101408240711383150001OR AARON LITONJUA                                       20500
A4101400420814248330001OR ALCALDE, NOREEN B                                    20500
B1301400340000000011872GRUPPO NORTE DISTRIBUTION CORPORATION                    1605
B0601400230000000029883ORO OXYGEN CORPORATION                                   1605
B0601400100000000032806BLU BLAZE GAZ HAUS                                       1604
B0101403030000000320516CU, MANUEL VINZONS                                       1602
B4101400420000000712003RELMS MEHLEE CORPORATION                                 1601
B0101407720000000885678KALASANGI HOLDINGS CORPORATION                           1602
B0201400760000001612904TAMIYA CHUO PHILIPPINES, INC.                            1601
B0101413600000002122401LION BLAZE GOODWILL PETROLEUM INC.                       1601
B01014123400000028799873UNG, CARMINA S. DBU ECHO FUEL STATION                   1602
B0101412630000004061943SCHOLARSHIP PLANS PHILIPPINES, INC.                      1620
B0601400100081044308001CRYSTAL LIQUID PHILS. INC - PORAC BRANCH                 1603
B0601400360083043705001JTO EVERLAND RESORT CORPORATION                          1601
B0101400440161528688001POWERPHASES CONSTRUCTION SERVICES INC.                   1602
B0101401380201018537001VELUZAR(PASAY) INC.                                      1601
B0101401380201034271004LC BUILDERS AND DEVELOPERS, INC.                         1604
B0101401380201041948001THE METRO SPA - YOUR MASSAGE ON CALL CO.                 1601
B1901400290261040667001PRIMERA AGRO DEVELOPMENT CORPORATION                     1604
B0501400200292037748001FIRST EMA WEST CREDIT CORPORATION                        1605
B0101405650322172336001RCBP-OUR LADY OF GRACE PARISH                            1601
B2401400180411749234001***********************                                  1601
B0101403320471027546002WINFAITH ENTERPRISES                                     1603
B1401400110492028287001MARYHILL COLLEGE, INCORPORATION                          1605
B0101403580511005203001CORPORATE BUSINESS CENTRE CORP.                          1603
B0101407720602040303001EMERGENCY DOCTORS GROUP OF MAKATI CO.                    1602
B0101404260611005306001THE HOUSE OF RACOR ADS., INC.                            1605
B0101406590662016073001PACUCOA, INC.                                            1650
B4101400420814046736001REALVILLE HOMEOWNERS ASSOCIATION, INC                    1601
B1001400350233036561001GRAND CITY HOTELS, INC. (NEW DAWN                       11615
B1901400290261026966002BONTOG SANG-BIRHEN MULTI-PURPOSE                        11602
B0101403580511015278001MTV INVESTMENT PROPERTIES HOLDINGS                      11605
B1001400350233036561001PENSIONNE)                                              21600
B1901400290261026966002COOPERATIVE                                             21600
B0101403580511015278001CORPORATION                                             21600
B3101400900000101010001**********                                               2101
B0101409890649821100608**********                                               2003
