B0101404840851821100608**********                                               2003
A0101408950396736406001DEFENSOR, MA. THERESA AMADOR                             0502
A0101408950000000472957LIEZZY GASPAR MANALO                                     0502
B0101413860000001767980OCEANLINK INSTITUTE, INC.                                1605
A0101400570281008710001SERVANTS OF THE HOLY SPIRIT                             10503
A0101400570281008710001PENSION PLAN                                            20500
B0101400570281022091002ST. JOSEPH'S COLLEGE OF QUEZON CITY                      1605
A0101400440000012950340SAGUIBO, MARK ANTHONY VIDEZ                              0501
A0101400440161027568001GARB CLOTHING COLLECTION                                 0504
A2401400180000010066252DEVERA, EDGAR SURMILLON                                  0502
A2401400180000012748711PERALES, JANET CANG DBU                                 10502
A2401400180000012748711PETPHONES MARKETING                                     20500
B2401400180411014206001PANABO MULTI-PURPOSE COOPERATIVE                         1610
B2401400180411014382001RD REALTY DEVELOPMENT CORP.                              1602
B2401400180000000073743HONDA CARS GENERAL SANTOS, INC.                          1601
A0101412890000001765631CATALIG, LYDIA LANDAYAN                                  0501
A0101405940000005359231BLANCO, MA. MELANIE ELSIE BONDA                          0501
A0101410300000000191893********                                                 0501
A0101410300000012210807LIGANOR, MIGUEL  INIGO GADDI                             0509
B0101410300663044222001TAN DELTA ELECTRIC CORPORATION                           1601
A0101400860000002333513******                                                   0501
B0101400860011374845003**********                                               1601
A0101400860011464418002**********                                               0501
A0101400860011740349001**********                                               0501
A0101401250021178957001SUVA, JOSE T.                                            0501
A0101400150000003141493CASILEN, RYAN RENATO DAVIES                              0501
A0101400150061173261001AGNILA, HONORIO R.                                       0505
A0101400150061230098001SALVADOR R. SERRANO                                      0502
A0101400150061395969001BALANCIO, RAUL TACLIBON                                  0502
B0101400150061484920001ST. CLAIR SECURITY AND INVESTIGATION                    11601
B0101400150061484920001AGENCY, INC                                             21600
A0101400600071496801002******                                                   0501
A0601400100000005050300NARCISO, BENJAMIN GANZON                                 0501
B0601400100081046835001SPRINGFONT REALTY CORP.                                  1601
A0601400100081605598001AYSON, RINA CRISOSTOMO                                   0501
B0601400360000003186736ENERGYGOLD CORP.                                         1601
A0101400730000005208811CABUAL, EVELYN FERNANDEZ                                 0502
A0101400730111203514019MELBA ALMARIO                                            0501
A0101401960121082430001****************                                         0501
B0101401830141045610001INTERZONAL COURIER SERVICE                               1601
A0101401830000011228992ELSA M. SERRANO OR IMMANUEL                             10502
A0101401830000011228992MARTIN M. SERRANO                                       20500
A0101401830141416058001HECITA, JOSEPHINE REYES                                  0501
A7201400170000003773284CARPIO, ROBERTO APAO OR CARPIO                          10501
A7201400170000003773284NORMA S.                                                20500
A7201400170000006487472PRANZA, JONAS SUMALINOG                                  0501
A0101400440000002035132GUERRERO, MA. PATRICIA RAMONA                           10501
A0101400440000002035132PEREZ DE TAGLE                                          20500
B0101407270162034693001INFINITE MEDICAL TRADING                                 1601
A0101407270162239303003*****                                                    0501
B0101407270162515519001DYNAMIC SPORTS CORPORATION                               1601
B0101401090171201379001PROGRAPHICS ENTERPRISES, INC.                            1601
A0101401090171224177004TAN DE GUZMAN, WILSON                                    0501
A0101401090000002358676CHAN, MELCHOR MESA                                       0505
A0101401090171409077003RAUL CRUZ JR. & JOSE PEDRO                              10505
A0101401090171409077003CABRERA                                                 20500
A0301400530193478374014BABAS, NERISSA R.                                        0501
B0301400660000003361982DAVAO ALPHA TRION REALTY DEVELOPMENT                    11601
B0301400660000003361982CORPORATION                                             21600
A0301400790000001776127TAN, CHARLIE SANCHEZ DBU                                10501
A0301400790000001776127CSTAN MERCHANDISING                                     20500
B0301400790000003969280HERRADURA, GLICERIO L DBU                               11601
B0301400790000003969280NEWDAY MARKETING                                        21600
A0301400790000000435950SINGCO, REY ORACOY                                       0501
A0301400950000008000660PE BENITO, HAZEL ANN NERI                                0503
B0301400950000000566934YUMCHAY VENTURES CORPORATION                             1605
B0301400950000002115639**********                                               1602
B0301400950000002115913GCW9 LAND, INC.                                          1605
A0101401380000001820002********                                                 0504
A3101400160221386295002ROBERT J. BANATIN                                        0501
A3101400450000011907561AVANZADO, GRACIA GUERRA                                  0501
A3101400450223246101001DE VILLA, MADGELINA AURE                                 0501
A3101400870000003515313ABUYEN, CORAZON L. JT DBU                               10501
A3101400870000003515313SOVEREIGNTY MARKETING                                   20500
A3001400130000005446340BALANGA, MARIO FERNANDEZ                                 0501
A3001400130000001271363PALUCA, LIZA MORAL                                       0502
A3001400130000008264740SUMAYO, ERADYL D                                         0501
A3001400130230757981001SACAY, RENE CANTOR OR SACAY,                            10502
A3001400130230757981001JOSEPHINE SIMBIT                                        20500
A1001400190000005709019DAILO, NICOLAS GADIAN                                    0501
A1001400190231083396001SANCHEZ III, CARLOS RAY BONGCAS                          0501
A1001400190231278378001LUCAS, LEANDRO NAVARRO                                   0501
A1001400350000003867272BERNALES, CHRISTOPHER ERA OR                            10503
A1001400350000003867272BERNALES, JESSIC                                        20500
A1001400350000007762538HERNANDEZ, HIYASMIN TAYLO                                0502
A1301400470252586756001ROGELIO D. QUERO                                         0501
A1301400760000000050682ANA ELIZABETH O. PALILIO OR                             10502
A1301400760000000050682VIRGILIO E. PALI                                        20500
A1301400760000005379564CHRISTOPHER F. AGUILAR OR                               10505
A1301400760000005379564MARICRIS P. AGUILAR                                     20500
B1301400760253047149001GCB PROPERTY MANAGEMENT CORPORATION                      1601
B1301400760000000050820V.PALILIO CORPORATION                                    1602
A1901400290000001195142ESTEBAN ALDRIN HERNANDEZ BISA                           10503
A1901400290000001195142OR DONNA MARIE G ORILLA                                 20500
A1901400290261488341041DR DENNIS C TENORIO                                      0502
A0101406460272538447001REYES, ROMAN FELIPE S. OR                               10502
A0101406460272538447001REYES, MA. JOSEFINA M.                                  20500
A0101406620000001686860LAZARO, AMOR ALVAREZ                                     0501
B0101406620000003497245SORENTO CENTO VENTURES CORPORATION                       1601
A0101406620273213498001JORGE, LEILA EBORA OR                                   10502
A0101406620273213498001JORGE, ROBERT                                           20500
A0101406620273409244001MANIPOL JR., MARIO MANDRIQUE                             0501
A0101408660000013521170MALINAO, ROLANDO CRUZ                                    0501
A0101408660000013521341UTZURRUM, MARA JAMOLOD                                   0501
A0101410980000002303851CACHAPERO, NORMAN EVANGELISTA                            0501
B0101410980000000012437JJD REALTY & DEV'T. CORPORATION                          1601
A0101410980275076628001TAN, GIAN CARLO UY                                       0502
B0101411110000013520940************                                             1601
A0101412470000002136090CANON, FERNANDO NINO RAYMUND CH                          0502
A0101400570000011680943DACER, CESIAH OPULENCIA                                  0502
A0101400570000009073872ESPINAR, MARIA ROSELA BUENAVENT                          0501
A0101400570000006271894EMAAS, BELLAFLOR TOGONON                                 0501
A2601400270000007951166DJ OLIVIA'S GRAINS BUYING                               10505
A2601400270000007951166STATION AND GEN MDSE                                    20500
A2601400270302631323001MARIA ISABELL R. DULIG                                   0503
B0801400160311028496001RACSO'S BANK, INC.                                       1604
A6601400120314730052001CAPOQUIAN JR., TIMOTEO TILBE                             0501
A2001400290000001557520DOMALAON, LELANI LASMARIAS                               0502
B200140029031504349600177 LIVING SPACES INC.                                    1605
B200140029031504349600277 LIVING SPACES INC.                                    1605
B2001400290315528399001**********                                               1601
A2001400290315688009001ALGOPERA, LLOYD GARCIA                                   0504
A2001400290000001301211CATUBIG, AIRISH MIRA                                     0501
A0101402350321443261001FLOR DE JASMIN S. ACUZAR                                 0502
A0101405650000004822173BORBON, KATRINA MARIE HERNANDEZ                          0501
B0101405650000000772754PALMRIDGE TRANSPORT SERVICES, INC.                       1601
A0101405650322412858004GANDOL, ARSENIA BALANE                                   0502
A0101402510000011325185PINLAC, MARIA CONCEPCION ORTEGA                          0501
A0101402510000013500628LGLH RICE TRADING                                        0501
B0101402510341016490003WORLD COUNCIL FOR CURRICULUM AND                        11602
B0101402510341016490003INSTRUCTION PHIL                                        21600
B0101402510341018003001COLEGIO MEDICO-FARMACEUTICO                             11606
B0101402510341018003001DE FILIPINAS INC                                        21600
A0101402510341298111001MARIEDIOS M. TANCIO                                      0503
A0101402510341325613001LILY R. GEROY                                            0501
A0101402510000010100935TAGUIBAO, CHRISTOBAL CADALIN                             0501
A0101409050000003536218CAPCO, MARIA GRACE                                       0501
A0101409050000006319695SISON, MARY ANTONETTE CORTES                             0501
B0101409050000007526469MCN FREEDOM! TECH INC                                    1602
A0101409050000007511862SADIE, DIANA LIM                                         0501
A0201400760000005156463WINDY YAP OR SOCRATES YAP                                0502
A0201400760000005711126BAGUIO, JOSEPHUS SABA                                    0501
B0201400890376035577001BRIGHT MORNING STAR CHRISTIAN GATHERING,                11601
B0201400890376035577001INC.                                                    21600
B0201401020000000042355CEBU RINGO TRUCKING INC.                                 1603
A0101402930000013522811CABERO, CHARLYN ANNE AGCANAS                             0501
A0101402930000013522997CABERO, CHARMAINE ALYANNA AGCAN                          0501
B0101402930000003734861POLICARPIO & ACORDA LAW OFFICE                           1601
A0101402930000000859769SANTOS, VIOLETA DALUSONG  DBU                           10502
A0101402930000000859769VSANTOS TRADING                                         20500
A0101402930381542999001SEVERO JR., EDUARDO BRUNO OR                            10501
A0101402930381542999001SEVERO, MARIBETH                                        20500
A0101408370382241442001DR. JOSE FRANCO J. BANZON OR                            10510
A0101408370382241442001DR. MA. EIDLLEN BANZON                                  20500
A0101408370382390589002ERROL FIDEL H. MANANQUIL                                 0501
B0101408790383694411001SEAOIL FOUNDATION INC.                                   1603
A0101402770000000360752NORMAN JOEL J. VARGAS                                    0501
A0101402770000001841032CONSOLACION, NERISA ELAURIA                              0501
A0101405490392478374008MARGARITA R. CIELO                                       0502
A0101408400000001231070CRUZ, LAILANI ALFARO OR                                 10502
A0101408400000001231070CRUZ, RHAYAN DEL                                        20500
B0101408400394021947001BUTING'S FIRST AUTO & TIRE SERVICE                       1601
A0101408950000006424842CELLONA, MARK CAUSIN                                     0502
A0101408950396564692001MANUEL DY CUENCA JR., M.D.                               0501
A0101409210000007762987CHUA, MARIANNE RONQUILLO                                 0502
A0101412210000008068702BARDELAS, CHRIZLE MISTICA                                0501
A0101412210399094817019VILLAMOR, MA. ANGELA G.                                  0502
A0301400820000003148616MANGKIKIS, MAYPEARL LAARNIE P.                          10501
A0301400820000003148616OR MANGKIKIS, NOEL C.                                   20500
A0301400820000004746101FAMACION, RAMSEY DBU JARED SUIT                         10502
A0301400820000004746101ES OR FAMACION, BEULAH                                  20500
B5501400120410044201001THE ROMAN CATHOLIC BISHOP OF MARBEL, INC                11602
B5501400120410044201001/STO NINO PARISH                                        21600
B5501400120000005492399DSSD FAMILY REALTY DEVELOPMENT CORP                      1615
A5501400120410639059001TOLEDO, LIBRADO NAPOLITANO                               0503
B1201400150421032655001BAGUIO STONECENTER INC.                                  1602
A1201400150421346220001KUMAR, ANIL                                              0501
A1201400150000000034460JOSE, GEMMALYN TANGALIN                                  0501
B0901400220000000888013**********                                               1601
B0901400220000011299217**********                                               1604
B0901400220432014409001MARCIAN GARDEN HOTEL                                     1610
B0901400220432044564001MARCIAN CONVENTION CENTER                                1610
B0901400220000000012324SPECIALIST MOTORCYCLE PARTS &                           11610
B0901400220000000012324ACCESSORIES, INC                                        21600
A5101400100000010371223ABINES JOHN PAUL BOTIGAN DBU RE                          0501
B0101403030441314004001**********                                               1605
B0101403320471019960002DIRECT ELECTRIX EQUIPMENT                               11605
B0101403320471019960002CORPORATION                                             21600
A0101403320471478374055BENITO OR REYZEL ESLABA                                  0501
A0101410140000006015407EDORIA, DBU MLE VALVE ENTERPRIS                          0502
A0101410140000001939933FERRER, J DBU AJ1201 TREAD                              10502
A0101410140000001939933ENTERPRISES                                             20500
B0501400170000000018317DAGUPAN DOCTORS VILLAFLOR MEMORIAL                       1602
B1901400160000013489615ALLEN UY GENERAL MERCHANDISING CO.                       1601
A1401400110000005526796PALACIO, GERLIE NAVA                                     0502
A1401400110000006680226LLAGAS, SUSAN REYES                                      0501
A1401400110000006680226LLAGAS, SUSAN REYES                                      0501
B1601400170000000497489CROWN PARK RESTAURANT                                    1602
A0101407430000003133882JESSERINA M SORIANO OR AILENE L                         10501
A0101407430000003133882ORGA OR JESSICA M SORIANO                               20500
B0101407430000000035269PNC GARBROS. HOLDINGS INC.                               1601
A0101403580511156706005JONATHAN MARQUEZ                                         0501
B0101405940000005359691NEXUS INDUSTRIAL PRIME SOLUTIONS CORP                    1606
A0101405940512287393001CHOY, SHAN SHAN TAN                                      0501
A0101405940000007540721SUMUGAT, MARILOU TARROJA                                 0501
A0101408530000002260059ESTANOL, ANALIZA RUMBINES                                0501
A0101408530000001268297ALLAN LUMBAN                                             0501
A0101411400000002301159GREULING, JURGEN DETLEF                                  0501
B0101411400000001280648THE MANNA CUISINE CORPORATION                            1601
B0101403450521011588002CIBELES INSURANCE CORPORATION                            1601
B0101403450000002975757***********                                              1601
A0101403450521397310001**********                                               0502
A0101403450521563148001**********                                               0504
B0101403610000013526006SALVADOR, ERWIN PHILIP SANTILLAN AND                    11601
B0101403610000013526006SALVADOR, SHERYL                                        21600
A0101403610531342345001PRADO, MARIA JESSICA ADELINE                             0501
B0101404130000000321571THE SOLID GUARANTY, INC.                                 1601
A0101404130601014815025GARY CLINT S. BORJA                                      0502
B0101404130601031665001COSMOTECH PHILIPPINES, INC.                              1602
B0101404130601100074001KING'S DEVELOPMENT, INC.                                 1602
A0101404130601450094003LORQUEL PASCUAL OR ANNIE                                10502
A0101404130601450094003PASCUAL                                                 20500
A0101404130000001173671KING, WYDEN R. OR KING, AIDA L.                          0501
A0101407720602621955001LANTANO, ANNA MARIE GARCIA                               0501
B0101412180000000075432MGNP, INC.                                               1602
B0101412180000001293061CP OPTICS, INC.                                          1605
A0101404260000006374547JEANJAQUET, S DBU SERIAL KITTEN                         10502
A0101404260000006374547EVENT MANAGEMENT                                        20500
B0101409890649047416001CHAMPION LIFE CENTRE PHILIPPINES, INC.                   1603
A0101407690000010774571CALBONERO, RICHEL BAEL                                   0501
A0101407690000010774473DIEL, AMOR DALAYAP                                       0501
A0101407690000010774600STA. MARIA, MARIO PATRICK ISIDE                          0501
A0101407690000000587800*****                                                    0501
A0101407690652388179001JOSEPHINE CHING OR MARK JAYSON                          10501
A0101407690652388179001CHING OR VICENTE CHING                                  20500
A0101407690652478374120ELENITA BOQUE- DEALERS OF                               10501
A0101407690652478374120SHOECAT INC                                             20500
A0101411530000013531254DELOS SANTOS, LLOYD DBU SMALL                           10501
A0101411530000013531254SAINTS COMMERCIAL SPACE                                 20500
A0101413570000013521049CASIM, RA ANDREA RAYMUNDO                                0502
A0101413570000005688071PILAR MARIA BALTAZAR                                     0502
A0101413570656057648154MANANSALA, ANALISA                                       0501
A0101406590000000568714REVIL, VICENTE HOMER B. OR                              10501
A0101406590000000568714REVIL, JO KRISTINE C                                    20500
A0101410300000000191951ANGULUAN, PAUL ARIS A.                                   0505
A0101410300000000592121*****                                                    0502
B0101410300000005331759MAGEPOINT BUSINESS SOLUTIONS HOLDING INC                 1601
A1301400210000005040577**********                                               0501
A1301400210000005040260MADRID, GIA MARIE ANNIELLE BUHA                          0501
B1301400340683821100608**********                                               2001
A1701400230000005694102SALAZAR, EDWIN ENRIQUEZ OR SALA                         10505
A1701400230000005694102ZAR, MARIBETH SA                                        20500
A1701400230000013092314IGNACIO, MYRTLE DAWN DOMINGO                             0501
A1701400230000013092325LABUCAY, KRISHURMURTY ANN CASIL                          0501
A1701400230000013092290ECLIPSE, GENEVIEVE RALLETA                               0501
A1701400230000013092303ECLIPSE, NOEL CABUYADAO                                  0501
B1701400230000002762605BGMMCM FAST FASHION, INC.                                1601
B0101408240000010815346RISING 7 GLOBAL TRADING & ENTERTAINMENT                 11601
B0101408240000010815346INC.                                                    21600
A0101408240711449303001MORALES, PEARL MERCEDES ARCACHE                          0501
A2801400100712039498002VECTOR PEST CONTROL                                      0502
A4101400390000000048673EVELYN P. PINAZO                                         0501
B4101400420000000710245GRJ JARO ENTERPRISE INC.                                 1601
B4101400420000009391977SWINELAND INC                                            1601
A4101400420000003309004MEMBERS OF, NATASHA SHOECAT INC                         10501
A4101400420000003309004VILLAR, LUCIA                                           20500
A4101400420814637965001SY, REYNALDO YU                                          0502
A4101400550000000315039BICOL, JENNY RUBIO                                       0503
A0101412340000007305564ELNA O. GALAROZA                                         0501
A0101404840000000943391MARIA CRISTINA MANGOSING                                 0501
A0101404840851506389001LANUZA, KHAREEN BALLESTEROS                              0501
A0101406750000012134273SANTIAGO, MARISSA DY                                     0501
A0101406750000000172854HASEGAWA, MARIA CORAZON C.                               0501
B0101413860000008668700**********                                               1602
A0101413860000000145082AQUINO, MARIA TERESA SURLA                               0501
