F0101401830141558285001CRUZ, VIRGILIO NORBERTO                                 12501CKO
F0101401830141558285001MARTINEZ                                                22500CKO
F0101401830141558285001******                                                   2501CKO
F0101413990000000915571AQUINO, ALMA MILAGROS VELASCO                            2501CKO
F1701400230693714245001VISIONAIRE, INC.                                         2506CKO
F4101400550815750394001*****                                                    2502CKO
