F0101401090171195635002ELVIRA OR MARIO OR ABIGAIL MILO                          2505CKO
F0101414670000001340663CHUA, JOSEPH CHING OR                                   12501CKO
F0101414670000001340663CHUA, FELISA UY                                         22500CKO
F4101400260812389694001RODEROS, OLIVIA P. OR                                   12501CKO
F4101400260812389694001RODEROS, MELCHOR N.                                     22500CKO
