A0101412340000010660294MARTIN, MADELAINE NICOLE ECHAVE                          0501
A0101400150061236944162JENNIE C. MELON                                          0501
A0101413150000011778159*******                                                  0503
B0101412920000015923512**********                                               1601
A0101403610531400725002HEREDIA, DALISAY OLIPAS                                  0501
B0101403610531441399001RACSA, ROLY MICHAEL ROXAS                                1601
A0101400860011458859001**********                                               0501
A0101400860011568203001**********                                               0505
A0101401250021180271001ERLINDA V. EQUIBAL                                       0502
A0101401250021468980001GENELYN C. CARTON                                        0502
A0101400150000005015690MARTINEZ, CARMEN FAIGAL OR                              10501
A0101400150000005015690MARTINEZ, GILBERT OLANO                                 20500
A0101400150061226678001PAMELA A. CASIN                                          0501
A0101400150000005015650AQUINO, CELESTE DIVINA ANGELES                           0501
A0101400600071351088001********                                                 0501
A0601400100000017322388DAVID, DAVE ARWIN SIGUA                                  0501
A0601400100000016176335NAVASCA, CARLOS EVANGELISTA DBU                          0501
A0601400100081256597001GIL D. MADLAMBAYAN                                       0502
A0601400100081478374009JOWELL MIRANDA                                           0502
A0601400360000017322399MACTAL, RYAN TIATCO                                      0501
B0601400520000009516207ARCEO, EDWIN TAYAG DBU E.D.C MONEY                       1601
B0101413730000000144681*******************                                      1601
A0101414090000016344126PENAVERDE, MARITES RAMOS                                 0501
A0101406040000012695080LAO, FRANCIS YU                                          0501
A0101401960000002331813LADARAN, LANI VILLANUEVA                                 0502
A0101401960121096152001***************                                          0502
B0101413150000005944090*********                                                1602
A0101401830000016718300HERMOSO, ROMINA G.  OR                                  10501
A0101401830000016718300ENCINA, CHERRY LYN B.                                   20500
A7201400170000003774367MEJOS, ANIEVER ANTEGA                                    0502
A7201400170000007185886DELA CRUZ, ANGELES SABULBERO                             0502
A7201400170000013006847TAN, KRISTINE MAY PISCOS                                 0502
A0101412920000017315214TAVARES, KAREN JOY DEL ROSARIO                          10501
A0101412920000017315214DBU KJT COFFEE SPOT                                     20500
B0101400440000004901451JOSEPH C. SEACHON                                        1601
A0101400440000014296694CANTRE, ROWENA BALINGIT                                  0501
A0101400440161375261001EUGENE DE LUNA OR                                       10502
A0101400440161375261001THISTLE DE LUNA                                         20500
A0101400440161541478001ERWIN S. AGUSTIN                                         0504
A0101401090171200033001MARIA ROSARIO R. ARANDA                                  0501
B0301400530193038166088FUTURE OPTIONS DISTRIBUTION SYSTEM, INC.                 1605
B0301400950000006054097IN-VITRO FERTILIZATION - DAVAO (IVF)                     1602
A0101401380201371534001JOSIE ASANON                                             0502
A0101401380201508360001SAN JOSE, ROSIE DATO                                     0502
A0101401380201689041001TAN, ALBERTO GALLARDO                                    0501
B0101410720000016777870MQC SYSTEM TECH CORPORATION                              1620
A0101410720000007017405CERNA, CECILIA DBU CRN                                  10502
A0101410720000007017405ENTERPRISES                                             20500
A0101410720000000967900EFFINGER, JON ERIC                                       0502
A3101400160000015975292CALDO, KLAUDINE ANN PUNZALAN                             0501
A3101400160000017165072ALCARAZ, MARIA CECILIA TIANGCO                           0501
A3101400160221220204001MARIBEL A. CALASARA OR                                  10501
A3101400160221220204001JINN PAULINE C. PANTI                                   20500
A3101400160221340552002JESUS RAMON O. MAMON                                     0501
A1001400480000008502010CABUSAO, IMELDA ALERIA                                   0501
B1001400480000006296239PRYCE GASES, INC.                                        1601
A1301400760000000050693MARLON P. MALLARI OR LEONCIA                            10501
A1301400760000000050693S. MALLARI                                              20500
A1301400760000016570833GLADWYN EUGENIO VILLAFLOR                                0501
A1901400290000006560090VIRGINIA S MACASAET OR                                  10502
A1901400290000006560090RICKY C MACASAET                                        20500
A1901400290261078910001THOR VICTOR DIZON KORIONOFF                              0501
A0101401670271387325001NOCOM, EDWARD GOTIAO                                     0501
B0101406460000001231792PAMALEES F&C CORPORATION                                 1602
A0101406620273038576001VENTURE 11 FOODS EXCHANGE                                0501
B0101406620273041414001GANO I-TOUCH PHILIPPINES INCORPORATED                    1605
A0101406620273214161001FLORES, RUTH OR RICARDO JR., OR                         10501
A0101406620273214161001RICARDO OR RACHEL FLORES                                20500
A0101408660274387702002HO, DESIREE ANG                                          0502
B0101400570000000749548ALLIANCEJADE GARMENTS CORP.                              1602
A0101400570281188687001LORGENE A. MATA OR                                      10503
A0101400570281188687001CLARISSA MATA                                           20500
A2601400270000011716453ABELARDO T. PAGSIBIGAN III                               0502
A2601400270000016515183MARY JEAN S. VILLA DBU XING HAO                         10503
A2601400270000016515183GRAINS TRADING                                          20500
A0801400160000002681661NOE'S UPHOLSTERY FURNITURE &                            10503
A0801400160000002681661ENTERPRISES                                             20500
A0801400160311389143001CHAN, MILAGROS OR                                       10502
A0801400160311389143001CHAN, NATHANIEL                                         20500
A0101402350321341109002WONG, PAUL OR EDITA OR                                  10501
A0101402350321341109002CECIL OR PAULINE                                        20500
A0101402350321478374013ROSALINA M. MARAVILLA                                    0501
A0101405650322093557001CUEVAS, MA. DONATA NADINE OR                            10502
A0101405650322093557001CUEVAS, RAFAEL                                          20500
A0101402510000013485571PEREZ, J DBU PHILISITIANA                               10501
A0101402510000013485571PRINTING                                                20500
A0101409050000005364358JORDANEE MANARANG                                        0501
A0201400760000015753241CHUA, CLARK PONCE                                        0502
A0201400760374520766001CARULASAN, KRIZIA JANE BUGO                              0501
A0201400760374744338008LIM, KENNETH AIZON OR WILLIAM                           10501
A0201400760374744338008OR RUDOLF CEZAR LIM                                     20500
A0201400890000013008172MANLAWE, CHARITY JOY MATUOD                              0501
A0101402930000015274634REPOMANTA, KIM ROLAND PALENCIA                           0501
A0101402930000009324950REYES, ERIC VISTA                                        0501
A0101408370382502182001CHRISTOPHER OLIVER NAZAL OR                             10501
A0101408370382502182001MARILES HERNANDE                                        20500
A0101408370382622435001JORGE C. GREGORIO OR                                    10503
A0101408370382622435001LISA CORAZON R.G                                        20500
A0101405490000011287962KAGINGIN, EULALIA FIDELINO                               0502
A0101405490392032343001TWIN PEAK BRASSIERES                                    10504
A0101405490392032343001MANUFACTURING INC.                                      20500
A0101405490000000530874JOYA, MADELYN CASANADA                                   0502
A0101408400000016719472LAGORZA, ARCHANGEL ORQUIA                                0501
A0101408950000017329238FERNANDEZ, MONICA WENDELL GATUS                          0501
B0101412210000013721227NEWBURY STREET RETAIL INC.                               1602
A0301400820000000316670TIONG, ARISTON D.                                       10502
A0301400820000000316670OR TIONG, FLORITA C.                                    20500
B5501400120000001121913PINGOY, ALBERT YUSAY DBU PUREWATER                       1603
B5501400120000005492413SURALLAH PENVIL FAMILY COMMERCIAL INC.                   1605
A5501400120000006976803ILDEFONSO, CHAROL JANE SIMPAO                           10502
A5501400120000006976803DBU CHARLY ENTERPRISES                                  20500
A2401400180000012748528*********                                                0505
B2401400180411029556088RELL & RENN FISHING CORPORATION                          1602
B2401400180000000073692BROTHERS D & D INC.                                      1610
B2401400180000007476886BRIGADA GROUP OF COMPANIES, INC.                         1615
A0901400220000001805038**********                                               0502
A5101400100000010834147FERRERA, EVELYN TIGTIG DBU ROVE                          0501
A0101412890000004435563REYNOSO, ROSEMARIE GOCO OR                              10502
A0101412890000004435563GLORI, DOMINIQUE                                        20500
A0101403320000012881722MANANGAN, MELCHOR L. DBU MELO                           10504
A0101403320000012881722CONSTRUCTION SERVICES                                   20500
A0101403320000001803098VALENZONA, RAUL PAL                                      0501
B0501400170000001072957ALEJO, ERVIN MARQUEZ AND ALEJO, NORMAN                  11602
B0501400170000001072957MARQUEZ                                                 21600
A3801400170000000955095REVANO, GREG HERNANDEZ                                   0502
A1401400110000016984251TAN, JOAN CO                                             0501
A1401400110000016984262MALBOG, ARACELI SIMON                                    0501
A1401400110000016984273MENDOZA, ANA GRACE SABIO                                 0501
A1401400110492064340001DY, D DBU DAVE AND GOLIATH ENTE                          0503
A0701400260000014943423FUENTES, PILAR OR ANTONIO DBU                           10501
A0701400260000014943423PILAR FUENTES STORE                                     20500
A0701400260000017333574BULAONG, ADONIS CRUZ DBU ACBUL                          10501
A0701400260000017333574STEEL CENTER                                            20500
A0101407430000017322424ANZURES, MELCHOR PACOT                                   0501
A0101407430000017322548ARISTORENAS, JORREL ZHACARY CAY                          0501
A0101407430000017322628BURKEY, NATHANIEL PAYOS                                  0501
A0101403580511185911001MA DOLORES G. VELASQUEZ                                  0501
A0101408530000016394480YELLINA, RAYAN BABU                                      0501
A0101408530000010924586**********                                               0501
A0101411400000015206607ZULUETA, MA. THERESA POSADAS                             0501
B0101403450000010454281N.S. MANGIO CONSTRUCTION AND DEVELOPMENT                11603
B0101403450000010454281CORPORATION                                             21600
B0101403610000000016008LEE TOP BUILD INDUSTRIES CORP.                           1603
A0101403610000017329329TATOY, LOUIE FRANCES MONIQUE                            10501
A0101403610000017329329CRISOSTOMO DBU RUSSTECH                                 20500
A2201400250000017326240GARCIA, RAUL TONGIO DBU                                 10501
A22014002500000173262401127 ENTERPRISES                                        20500
A2201400250561387191001BILLY ROY M. SANTOS                                      0501
A2201400250561387191001BILLY ROY M. SANTOS                                      0501
A0101404130601708628001PABALATE, PACITA BATAC OR                               10501
A0101404130601708628001PABALATE, HELENA                                        20500
B0101407720602035999001GALLANTRY SECURITY & INVESTIGATION                       1605
B0101407720000009181700ALTERNATIVE CTR FOR CONTINUING EDUC. AND                11603
B0101407720000009181700SEMINAR SOLUTION                                        21600
A0101407720602382305001PARDINAN, ROSSANA O.                                     0501
A0101404260000006374252MENDOZA, DAISY LAPIDEZ                                   0501
A0101409890000006277694LOPEZ, NATHUNDER PEROL                                   0503
A0101409920000011312813MERCADO, EMIGDIO LEDESMA                                 0501
A0101407690000008045830MEMBERS OF NATASHA, SHOECAT INC                          0501
A0101407690652520766005GILNNA M. MALIGAT - DEALERS OF                          10501
A0101407690652520766005SHOECAT INC.                                            20500
B0101411530000006217621UNIVERSALIS INC                                          1604
A0101413440000015535129MAGUIGAD, VANESSA QUIAMBAO                               0501
A0101413990000014815320OPENA, JOHN MICHAEL CAMILING                             0501
A0101413990000015222432EMPRESS COOL AIRCONDITIONING                            10505
A0101413990000015222432SERVICES                                                20500
A0101406590000005305242CHUA, CHARLENE ANGELIQUE CHENG                           0502
B0101410300663062094002SPHEROID DYNAMIC BUILDERS INC.                           1603
A1301400210000011696236VALERIO, MA. ROWENA EMFLORGO                             0503
A1301400500000004093269JAYSON L. RAMOS                                          0502
B1301400500000003071923PILIPINAS DEVELOPMENT CORPORATION                        1602
A1301400500684605858001SABARIAGA, MAXIMO OR                                    10501
A1301400500684605858001SABARIAGA, LUZ                                          20500
A1301400500000000213163NORVY G. MARCELINO OR GILLYN                            10505
A1301400500000000213163D. MARCELINO                                            20500
A0101408240000010148211QUIRINO-ABALOS, SYLVIA MARIA                            10502
A0101408240000010148211ANNA PALANCA                                            20500
B0101408240000008160223*************                                            1601
A0101408240711478374019ESTUYE, GILDA PLACIDES                                   0505
A4101400260000010623611SOLON, IRIS LYNN ARCINUE                                 0501
A4101400260000017328855RAGADIO, LOUIE ANDREA GATMAITAN                          0501
A4101400260000012858061AMBANTA, KURT JOSEFF                                     0501
B4101400390000003346187PAGASA PHILIPPINES LENDING COMPANY                       1603
B4101400420000009392076**********                                               1603
A4101400420000002345331MERCEDITA D. LAGDAMEO                                    0501
A0101412340000000224079ROSANA, CZARINA KAYE TIQUI                               0501
A0101412340000003344590MAR LYNDON Q. MATCHA                                     0502
A0101412340000005964203MANALOTO, SUSANA BARUELO                                 0502
A0101404840000005396723REFORMADO, CHONA TAPAWAN                                 0501
A0101404840000017324642MONES, MARK FRANCIS LUPAMIA                              0501
A0101404840851410953066MAYLEN V. NARDO                                          0501
A0101404840851410953066MAYLEN V. NARDO                                          0501
B0101406750000010508835RACHELLE PANGILINAN DBU LLRJ                            11601
B0101406750000010508835ENTERPRISES OR J                                        21600
B0101406750852740034001MORE-NING SUN PACKAGING CORP.                            1602
