A4101400260000000048957RENTA PE CAUSING & SABARRE LAW                           0502
A1001400480000000133279**********                                               0501
A1601400170000000421149EVELYN B. DELVO                                          0501
A1601400170000000421149EVELYN B. DELVO                                          0501
A0201401020000000470193LOUIE PENA'S TRAVEL TOURS & EVE                          0502
A0101407720000000510745MORONDOZ, ANA LIZA DIMACALI                              0502
A0101405650000000525911TORRES, ROD JEFFREY GUMABAO                              0501
A0101408790000000599931INCIONG, ARNULFO LUPERA                                  0501
A0101411530000000741651CLARABAL, GENO RICO A                                    0502
A0101400150000000807636TESALONA, MARIA CLAUDETTE CRUZ                           0501
A0101414120000000875612LACANO JR., EDGARDO BUNSO                                0501
A0101407560000000990392**********                                               0505
A0301400530000001009943PANTUA, JERSON R.                                        0501
A0101405810000001021241JENITA S. OLIMBA                                         0501
A0101410140000001075007JAVIER, DADIVA DE PANCHAKANTRA                           0502
A0101404420000001364329****                                                     0501
A0601400100000001442819CELIANTO ENTERPRISES                                     0505
A0101403450000001638075ACUNA, TERESITA CABRERA                                  0502
A0101400570000001681847DEE, ANDREW YU                                           0501
A0101400570000001681858GO, ROBERTO ONG                                          0503
A0601400520000001706890CASTRO, KASMICHELF MIRANDA                               0502
A0101404260000001725242BENEFREDA RIGON                                          0502
A0101414120000001751333BALDAGO, MELECIO MAESTRE                                 0501
A0101400440000002034931JOB-ON-LINK STAFFING SERVICES                            0503
A0101407270000002334801ESTRABO, REMIGIO PEROLINA                                0501
A4101400420000002345280ACOL, FELOMINA ADOAN                                     0501
A0501400170000002354510BERMUDEZ, ELSIE MALAPIRA                                 0501
A0301400950000002975035NANCY B. MORALIZON                                       0501
A0101407270000003254082STEPHEN G. SANTIAGO                                      0504
A0101412340000003342134RONALDO V. CUENCO                                        0501
A1701400230000003405887AGPAOA, MELITON CORPUZ                                   0501
A0101409050000003533424CHRISTOPHER S. PAPA                                      0503
A0101409050000003533479VEDUA, MICHAEL                                           0501
A0101409050000003533571RAYMOND R. REMOQUILLO                                    0501
A0101409050000003533617RANOLA, JAY TORRES                                       0501
A4101400420000003715513DELA CRUZ, ADOLFO BUGAYONG                               0505
A3101400870000003849838RAMOS, MIZPAH MEDIAVILLA                                 0501
A0101400150000003876860CACHERO, FRANCO LORENZO RUFFY                            0501
A0101400150000003876871CONCEPCION, JESSICA LEE RAMOS                            0501
A0101400150000003876882DELLOTA, GESNER ANDRADA                                  0501
A0101400150000003876893MANRIQUE, MARVIN JAY VENTURA                             0501
A0101400150000003876911OCHOA, AILEEN JUGUILON                                   0501
A0101400150000003876922PESTANO, MARY LENORE BAJO                                0501
A0101400150000003876933BAUTISTA, RONALD CHRISTIAN GUMB                          0501
A0101400860011397772002**********                                               0505
A0101400860011522691001**********                                               0503
A0101411370022774052001MARISSA M. RAMIREZ                                       0502
A0101400150061227290001EBALDE, MA. VICTORIA QUIAEM                              0501
A0101400150061229814001LEONCIO C. LIM                                           0501
A0101400600071295528002********                                                 0501
A0601400100081039671001TOLENTINO INSURANCE AGENCY                               0505
A0101406040112657540001**********                                               0503
A0101401960121238456001**********                                               0501
A0101401960121238841001**********                                               0502
A0101401830141210065002EVA S. SUAREZ                                            0501
A0101401830141444325004ROUTSON, ELIZA ATIENZA                                   0504
A0101401830141473879002MALINAO, EVELYN DE GUZMAN                                0501
A0101400440161478374008MARY FE I. REDONDO                                       0501
A0101407270162199731002TRIFINA O. MARTINEZ                                      0501
A0101407270162523576001YEKATERINA A. AGUILON                                    0502
A0101401090171330568001FELICIDAD G. PERENA                                      0501
A0101401090171331630001MARIA ARCELI G. MAGSINO                                  0501
A0101401380201691222001RUIZ, GERRY FUENTES                                      0503
A3001400130230478374028MAGLASANG, ELIZABETH DAHANG                              0502
A1001400190231478374086LORNA A. OMANDAM                                         0502
A1001400190231520766119CABANO, BERNADITH CATIWALAAN                             0501
A1001400350233506665001EMMANUEL LIMBO OR HELEN LIMBO                            0505
A0101406620273471129001TAN, APRIL LYNN LEE                                      0501
A0101400570281417780001JOYCELYN TAN TANZO, D.M.D.                               0501
A0501400200292694336002PACIS, WILMA RAMOS                                       0502
A0801400160311478374056CECILIA B. ASTROLOGO                                     0502
A0101402480331520766033GAJES, ALLYN PANAGDATO                                   0501
A0101402510341196519002CABRERA, AMY PUERTOLLANO                                 0501
A0101402510341204644001DE NULLY, CORAZON MORANTE                                0505
A0101402930381423656005EXCELSIS V. ANTOLIN                                      0501
A0101402930381423656013EMPLOYEES OF BANIQUED & BANIQUE                          0502
A0101408400394712542001SERRANO JR., ERNESTO AGLER                               0506
A0101408950396501244001DR. RHESA MAY MANALOTO MARTINEZ                          0501
A5501400120410774856001DARLE, TERESITA OR ROLLY                                 0501
A0101403320471205801001JOSE OR HONORATA MONTOYA                                 0502
A0501400170481468771001CHU TAN, WINSTON LALATA                                  0502
A0101403450521238220001**********                                               0502
A0101404130601414354001SEQUIJOR, SUSANA JAVA                                    0501
A0101404130601450536001CRISENTE G. CAYABYAB                                     0501
A0101407720602587464001SIOSON, LERMA SATUMBA                                    0501
A0101404260611150835002HENRY OR GUANZON CHING                                   0502
A0101404260611150835004CHING, HENRY                                             0502
A0101404260611151313001AQUINO, LUCIANO                                          0501
A0101404420631478374194REBECCA P MALUBAY                                        0502
A0101409890649047047001**********                                               0506
A0101407690652009021001HANDYLAND HOME IMPROVEMENT                               0502
A0101407690652042183001MARINA'S FURNITURE SHOP                                  0506
A0101407690652609264002DE JESUS, AUGUSTO OR MILA                                0504
A0101407690652651198001DE LEON, FRANCISCA LEGASPI                               0501
A1301400210682435699001NARCISO G. SAN PEDRO                                     0501
A1301400340683603484001PARINAS, MA. LEA DIONISIO                                0502
A0101407560686331247001AMALIA C. DELFIN                                         0502
A0101407560686478374067SHERLITA T. FERNANDEZ                                    0501
A4101400420814357382003REMULLA, GILDA VASQUEZ                                   0502
A4101400420814478374009FELOMINA PERICO                                          0501
A4101400420814478374040TAN, IMELDA F.                                           0501
A4101400420814509594001PEREZ, FRANCISCO YATCO                                   0501
A4101400420814520766119OMNOS, NOVA DESCARTIN                                    0501
A4101400420814520766135MOTILLA, ROSELLE                                         0501
A0101404840851478374115ERLINDA O. PRADO                                         0501
A01014067508520359810014K MEDICAL & DENTAL SUPPLY                               0503
A0101405070861478374066ELMER LADRES APAS                                        0501
A0101407690000000025141MEJIA III, MARIANO DBU                                  10503
A5001400170000000044982ANTONIO, JORDANNE DBU URBAN                             10502
A5501400120000000046922CHIU, VALENTIN & JULIA EILEEN                           10505
A6601400120000000060711ESPINA III, SIXTO OR                                    10501
A0101406620000000193800SILVA, CLARITA BUSALPA OR                               10501
A5001400170000000213954LOPEZ, ISOLDE OR TAMAYO, AILYN                          10504
A1601400170000000497434FRANCISCO J. MIRABEL OR                                 10502
A0601400520000000786421NAGUIT JR., JOSEFINO FIGUEROA                           10502
A1001400350000000922332DINOGAN, JESRIEL MIGUELA OR DIN                         10501
A3001400130000000931208BENDIJO, AMELITO MONDEJA OR                             10501
A1001400480000001054671SOLIMA, ELEUTE DBU EBSO ENTERPR                         10505
A0101412890000001056393GERONIMO, M DBU A.M.-M.A'S                              10501
A0601400520000001706918NAGUIT JR., JOSEFINO F. OR                              10505
A0101414120000002172527AMELIA DE JESUS OR EDGARDO                              10501
A1001400480000002670697SUICO, DON ANECITO SOMOSOT OR                           10501
A0101414120000003190907CHRISTIAN LEYGO OR MHARISTIANE                          10501
A0101409050000003536503BANGALORE PARTHASARATHY                                 10501
A1001400190000003881903BOSSMANN TRADING AND                                    10501
A0101401250021183904001EDNA G. QUINSAY OR                                      10502
A0101407270162085922002SPIRO LU CLEMENTE AND                                   10501
A0301400530193583614088VILLANUEVA, MELISSA MAY OR                              10503
A0101406460272686557001TANWANGCO, ALEX FERNANDEZ OR                            10510
A0201400920375778475001HEALTH WELLNESS VENTURES                                10503
A0101403320471419204001ROY MAXIMO OR JOEY MAXIMO OR                            10502
A0501400170481046585003ANG, JUSSLYNN DBU AVS                                   10501
A0501400170481046585004ANG, JUSSLYNN DBU AVS                                   10501
A2201400250561383886001WILFREDO D. TOLDANES                                    10501
A2201400250561558363001JOSEPH B. SAWIT OR                                      10501
A0101404130601489045001LLORENTE, CHEFORD A. OR                                 10502
A0101407720602316120001LUCIA CASTRO-FORES OR                                   10501
A0101407690652298552010ANGELINA CANETE - DEALERS OF                            10502
A0101407690652478374084EUFEMIA BALASE - DEALERS OF                             10501
A0101407690652520766005GILNNA M. MALIGAT - DEALERS OF                          10501
A0101406590662207039001HORTENCIA A. BUENAVENTURA OR                            10501
A1301400210682505284003DON JEROME SP MENDIOLA                                  10501
A1301400500684594780002CASTRO, RAYMUNDO OR                                     10502
A0101404840851210994001LIGAYA P. GASCON OR                                     10505
A0101405070861197518001RICARDO G. CHAN OR                                      10505
A0101407690000000025141MGVM CONSTRUCTION                                       20500
A5001400170000000044982PAINTS & MORE ENTERPRISES                               20500
A5501400120000000046922CHRISTIAN & CHRI                                        20500
A6601400120000000060711ESPINA, LYRA FAY                                        20500
A0101406620000000193800SILVA, ANGELO PH                                        20500
A5001400170000000213954OR TAMAYO, SHEEN                                        20500
A1601400170000000497434JUDITH J. MIRABEL                                       20500
A0601400520000000786421DBU JOSEFINO'S G                                        20500
A1001400350000000922332OGAN, BELINDA MOSQUEDA                                  20500
A3001400130000000931208BENDIJO, ERLEN ANGGONG                                  20500
A1001400480000001054671ISES OR SIO, ELEUTERIO                                  20500
A0101412890000001056393BAKERY                                                  20500
A0601400520000001706918NAGUIT, MHELODIE                                        20500
A0101414120000002172527DE JESUS                                                20500
A1001400480000002670697SUICO, ARDJEL BANEZ                                     20500
A0101414120000003190907LEYGO                                                   20500
A0101409050000003536503RAJAGOPAL                                               20500
A1001400190000003881903ENGINEERING SERVICES                                    20500
A0101401250021183904001ANTONIO E. QUINSAY                                      20500
A0101407270162085922002JOSEF CHUA LU                                           20500
A0301400530193583614088VILLANUEVA, PHIL                                        20500
A0101406460272686557001TANWANGCO, ANDRE                                        20500
A0201400920375778475001PHILIPPINES CORP.                                       20500
A0101403320471419204001JOHNNY MAXIMO                                           20500
A0501400170481046585003DISTRIBUTION CENTER                                     20500
A0501400170481046585004DISTRIBUTION CENTER                                     20500
A2201400250561383886001OR ROWENA O. TOLDANES                                   20500
A2201400250561558363001JOSEFINA B. SAWIT                                       20500
A0101404130601489045001LLORENTE, MA. RUBY F.                                   20500
A0101407720602316120001MIGUEL EDGARDO FORES                                    20500
A0101407690652298552010SHOECAT INC.                                            20500
A0101407690652478374084SHOECAT INC                                             20500
A0101407690652520766005SHOECAT INC.                                            20500
A0101406590662207039001MA. THERESA TAN                                         20500
A1301400210682505284003MA KLAIRE Y MEND                                        20500
A1301400500684594780002CASTRO, ROSEMARIE                                       20500
A0101404840851210994001MARIA LOVELY DEL                                        20500
A0101405070861197518001OLIMPIA C. CHAN                                         20500
B0101405940000000002740TRANS-MILLENNIUM MERCANTILE CORPORA                      1602
B0101404840000000004202JOY PLANET INC.                                          1602
B1901400160000000007467FIRST UNITED 23, INC.                                    1604
B0101402930000000038680PH AUSSIE RESOURCES INC.                                 1602
B3101400870000000074899BALITE, G DBU BTG BUILDERS & SUPPLIES                    1605
B0101404840000000090231JOY PLANET INC.                                          1602
B0101404840000000090264FUNHOUSES CORPORATION                                    1602
B0101406620000000194121UBER APPS INC.                                           1601
B0101412920000000276562ALPHA STONEWORKS ENTERPRISES                             1602
B0601400520000000398512PAGASA PHILIPPINES LENDING COMPANY, INC.                 1606
B0101404000000000461107BASIC BNBI SOLUTIONS INC.                                1601
B0101404260000000550383RECANA, MA. CARMELA SANTOS                               1602
B0101407270000000830751CLARKSVILLE FOOD, INC.                                   1605
B0101411400000001280580MINDBENCH PHILIPPINES COMPANY INC.                       1602
B0101404260000001725548IMPLICOR HR SOLUTIONS CORPORATION                        1602
B0101414120000001984289DEMPSEY RESOURCE MANAGEMENT INC.                         1602
B0801400160000002676793TRI-LINE CAR CARE CENTER                                 1602
B0101402930000003269254JK COLLECTION & RECOVERY INC.                            1602
B0101401700041619204001MELBER AUTO PARTS CENTER, INC.                           1605
B0101405810072029570001PLASTIC CONSUMER CORPORATION                             1603
B3101400160221024274002STA. CECILIA BUSINESS CENTER                             1601
B0101406460272047405001ACEBUCHE, E DBU EL ACEBUCHE BUI                          1605
B0101400570281025350001FREQUENCY RESPONSE, INC.                                 1602
B0101402480331030127001NITO SEIKI MANUFACTURING CORPORATION                     1601
B0101402480331056457001GOLDEN WOLF TRADING                                      1601
B0101402930381022284001INVESTORS ASSURANCE CORPORATION                          1601
B0101402770391030168001XYTRIX SYSTEMS CORPORATION                               1605
B0101402770391601391001SPORTSFOCUS, INC.                                        1605
B5501400120410041561001MANG GORIO BAHAY KAINAN                                  1601
B5501400120410046322198DSO GLOBAL DISTRIBUTION, INC.                            1605
B2401400180411056453001PINOY BOSSING TYRES CENTER, INC.                         1601
B2401400180411056453001PINOY BOSSING TYRES CENTER, INC.                         1602
B2401400180411075773001CHROM TRANSPORT RENTALS                                  1603
B0101403320471035758001***                                                      1603
B0101408110515017881001GROUP MANAGEMENT CORPORATION                             1603
B0101404130601045483001NORTHSTAR TECHNOLOGIES INDUSTRIAL CORP                   1605
B0101404840851046050001UBEE ENTERPRISES                                         1610
B0101405070861565051001BLAUGRANA CORPORATION                                    1602
B0101412500000000041738ABBU,SANTAMARIA,ESTONIDO & ASSOCIATES                   11602
B0201401020000000056391MIER, ROSELYN DE LA CERNA AND                           11601
B0101413570000000206522HOLY SPIRIT COMMUNITY MULTIPURPOSE                      11601
B3101400870000000957622BALITE, G DBU BGT FOOD ESSENTIAL                        11603
B0301400530000001409741ROBLES, EDDIE DBU VICTORIA CONSTRUCTION                 11601
B0601400100081022878001DM CRISSAN AUTO SUPPLY & CAR ACCESSORIES                11604
B0801400160311100161001PRUDENTIAL CUSTOMS BROKERAGE SERVICES,                  11603
B0101407690652030137001ROLLING GREEN REALTY & DEVELOPMENT                      11605
B0101412500000000041738DESIGN GROUP                                            21600
B0201401020000000056391LIMPA, SIALANA                                          21600
B0101413570000000206522COOPERATIVE                                             21600
B3101400870000000957622CATERING SRVS                                           21600
B0301400530000001409741CELEDONIA ROBLES                                        21600
B0601400100081022878001SAN FERNANDO                                            21600
B0801400160311100161001INC.                                                    21600
B0101407690652030137001CORPORATION                                             21600
