F0101401250021330883002RUDOLPH DARIUS N. ABAD                                   2502CKO
F0101408660274508786001VIVIAN T. UY OR BRIAN B. TAN                             2502CKO
F3201400190000001493078*********                                                2602CKO
