A0101413440000011417353ALBERTO, EUFRONIA ARENAS                                 0502
B0101400730111008426001COUNTRY BANKERS INSURANCE CORPORATION                    1604
A0101402930000010103627SARMIENTO, ROMINA ANGELA CO                              0501
A0101402930000010657760SANCHEZ, ROWENA SAN PEDRO OR                            10501
A0101402930000010657760ENRIQUEZ JR., VI                                        20500
A2201400250561258530005ERWIN T. AQUINO                                          0501
A4101400260000012875128LAPITAN, DINO BERNARD                                    0501
A4101400260000012862476HERNANDEZ, CAROLINE                                      0501
A0101400860000002333499**********                                               0502
A0101400860000013978911************                                             0502
B0101400860011305536001**********                                               1601
A0101400860011516486001**********                                               0501
A0101400860011522691001**********                                               0506
A0101400860011552265001**********                                               0501
A0101400860000015923494*************                                            0501
A0101401250021417583001LUNA, MARY ANN SESE                                      0501
A0101400150000016750562GUERRA, MARK ANGEL MARALIT                               0502
A0101400150000016969361REJANO, CHONA OJEDA                                      0501
B0101400150061010613001SECURITY BANK EMPLOYEES UNION                            1602
B0101400150061026597001HONDA MOTOR SPORTS INC.                                  1605
B0101400150061027294001HMS CREDIT & FINANCE CO., INC.                           1605
B0101400150061028210001GOLDEN DRAGON MOTOR SALES CORP.                          1605
A0101400150061569177001YOUNG, ROLAND SAMUEL                                     0501
A0101400600071233721001**********                                               0502
A0601400520000011139147SARMIENTO, ANA MARIA GERALDINE                          10501
A0601400520000011139147LIM                                                     20500
A0101410560000005836291PAULO G. QUIZA                                           0503
B0101400730000000002557NORTHSTAR TRAINING & CONSULTANCY INC                     1603
A0101406040112653549001JEANETTE G. SY                                           0510
A0101401960000006004535SY, ESTER CHOA                                           0502
A0101413150000001688571******                                                   0505
A0101413150000001288342******                                                   0501
A0101400440000008201141MAGPANTAY, DIEGO LANDAGAN                                0501
A0101407270000004915908LORENZO, TRICIA MARIE SOLANOY                            0501
A0101407270000015617731LEE, JOVENTINO LIONGSON                                  0502
A0101407270000003254253SPIRO L. CLEMENTE                                        0502
A0101407270162333003004MAURO C. AGUSTINES                                       0503
B0101401090171025982001SELEGNA HOLDINGS CORPORATION                             1605
A0101401090171196128001DRS. ROLANDO CABATU OR                                  10502
A0101401090171196128001MARCELLA RUIZ-CABATU                                    20500
A0301400530000016099140DO, ROMMEL BAGOL                                         0502
A0301400530000014433702SANCHEZ, EMELIE ROSAL                                    0501
A0301400530000006239409DE GORIO, ZEUS CHRISTOPHER TAG-                          0501
A0301400660000003406191*****                                                    0502
A0301400790000000435881CHU, ROMEL S OR TAN, CHARLIE S                           0502
A0301400950000016899120ROMERO, ROMEL CAMINERO                                   0501
B0301400950000011415102DAZI CONSTRUCTION AND SUPPLY                             1602
B0101401380201023821001DAIRO AIRE CORPORATION                                   1603
A0101410720000016140082GUZMAN, RICHARD UY                                       0503
A0101410720000013389541LAPARA, GILBERT ASUL DBU GLPR                           10501
A0101410720000013389541AUTO                                                    20500
B3101400160000010010610FRANCISCO P GARCIA & CYNTHIA T ALARCON                  11610
B3101400160000010010610& LEILA D TORRES                                        21600
A3101400450000016118535BELEN, ROSALIE MACATANGAY                                0502
A3101400740000006735824GARCIA, EMILY B. DBU MMA EVENTS                         10502
A3101400740000006735824SPECIALISTS AND                                         20500
A3101400870000005410111DAYRIT, GISELLE GRACE LIM                                0501
A3101400870000016971070RUEDA JR., MAXIMO DIOSO OR                              10501
A3101400870000016971070RUEDA, PHOEBE DE LEON                                   20500
B3101400870000016942144TOMO GOLD TRUCKING SERVICES, INC.                        1602
A3001400130000008916081CAVAN, MELCHOR SUIZO                                     0502
B1001400190231020380001BOUNTY AGRO VENTURES, INC.                               1610
A1001400190231478374116ESTRELLITA E. BERMUDEZ                                   0501
A1001400480000014023397ANDOY, JOSE RADA DBU ROUNDTECH                          10502
A1001400480000014023397INDUSTRIAL TRADING JT                                   20500
A1901400290000005566054MARIA ELENA MANGUIAT GARING                              0501
A1901400290000014042438MYLA AGUILERA VILLANUEVA                                 0502
A1901400290261298552105AIDA NABOS REYES                                         0501
A1901400290261384094002VIRGILIO B SILVA OR                                     10501
A1901400290261384094002LUCENA P SILVA                                          20500
A1901400290261412190001DRA RESTITUTA D RIVERA                                   0502
A0101406460272466369001COSTALES, FE MYBELLENE AGUILAR                          10501
A0101406460272466369001OR COSTALES, ART                                        20500
A0101411110000009465723GUIALA, MIA MYRA CALDERON                                0501
B0101411110000000009098NET4SITE PHILIPPINES INC.                                1603
A0101412470000010561781GONZALEZ, BARBARA CRUZ                                   0501
A0101412470000010561714UY, MARK BENEDICT ABELITA                                0504
A0801400160000002681729MA. FE M. FACTO                                          0505
A0801400160311478374070GENALYN M. BOTANERO                                      0501
A1101400120000000652835GO, SHERRY ALETTA UY OR GO, MAR                         10501
A1101400120000000652835ILYN UY                                                 20500
A1101400120000001920714TAMAYO, ALMA AZORES OR TAMAYO,                          10501
A1101400120000001920714GERARDO GASPANG                                         20500
A1101400120000006081067PIANGCO JR., TEOFILO BALDOMAR                            0501
A1101400120000003022322CHU, HENRY MANGCAO DBU LEYTE ST                         10501
A1101400120000003022322ANDARD HARDWARE OR CHU, L                               20500
A1101400120000003981088MORALLOS, ELIZABETH BIANES                               0501
A1101400120000005608191CELSO, GORGIE CAROLA                                     0501
A1101400120000005608191CELSO, GORGIE CAROLA                                     0501
A6601400120000009613674GALVEZ, GENARO CASTILLO                                  0503
B6601400120314043609005FUNDACION GRAMEEN PILIPINAS INC.                        11605
B6601400120314043609005HINA BRANCH                                             21600
A6601400120314677757001GONZALES, IGNACIO DELA CRUZ                              0501
A2001400290000004444495TRESPECES, MYRA CADAVOS                                  0501
A2001400290000006776727MANSO, RAZEL GARUPA                                      0502
A2001400290000003961568CAHAMBING, CINDERELLA GARCIA                             0502
A0101402350321180459002TING, CHING LAN OR CHANG, CHIAO                         10501
A0101402350321180459002FEI OR CHANG, CH                                        20500
A0101402350321542967001ABUNDIENTE, JONATHAN GUMBA                               0503
A0101402510000000200062BERNALDEZ, LIGAYA MACALINTAL                             0502
A0101402510341527509001ROWEL E. ANTONIO                                         0502
B0101402060000000653963LX CORPORATION                                           1603
B0101402060351386715002REGINA OR CRISTINA C. CRUZ OR CONCEPCION                11601
B0101402060351386715002C. VESAGAS                                              21600
A0101409050000006319720FRANCISCO, ROBERT TABALANZA                              0502
A0101409050000014598402DALIGDIG, JASON BOURNE ANNIBAN                           0502
A0101409050000015273993ARRIOLA, ALBERTO RAMOS,                                  0502
A0201400760000015585314JOVER, HARRY STA. ANA                                    0501
A0201400920000016959527RAMOS, EDWARD ANTHONY                                    0501
B0201400890000007877421FORTRESS ELECTRICAL SUPPLY, INC.                         1602
A0101402930000016826041DULAY, MENCHIE AGUILAR                                   0501
A0101402930000016963425GRUEZO, MAUREEN JESSICA DELA CR                          0501
A0101402930381615796001LOTILLA, CATHERINA MANUELA REME                         10501
A0101402930381615796001OR LOTILLA JR.,                                         20500
A0101408370382403238001DR. EUGENIO EMMANUEL V. REGALA                          10503
A0101408370382403238001OR MARY JANE M. REGALA                                  20500
A0101408790000016571767RELOS, SHARON BUSTARGA OR                               10501
A0101408790000016571767LAGGUI, JUN-MAR DE VERA                                 20500
A0101411660000002309480SANTOS OCAMPO, VICTORIA ARANETA                          0501
A0101402770000007413830BASAS, ROMARIE VILLAFLOR                                 0502
A0101402770000010082532ARCIGAL, CYNTHIA CASTRO                                  0501
A0101408400000016929405FABRO, WILLIAM NABUYA                                    0501
A0101408400000006129233REYES, PIERRE MARTIN DE LEON                             0502
B0101408400000006813614GODALLE, FRANKIE SUS JT                                  1602
A0101408400000001213530LERUM, ESMERALDO PORTUSA                                 0501
A0101408950000011077819FERNANDEZ, EMIL ADRIAN VIZCARRA                          0501
A0101408950396564267001BERTOSO, EDGAR STERLING                                  0501
A0101408950396565099001DR. BENJAMIN DANIEL S. VALERA                            0502
A0101409180000016967650DEDALIZ, ROHEL SUAREZ                                    0501
A0101409210000013894272FABRERO, APRIL GRACE MANTAL                              0501
A0101412210000013721363RIINGEN, MARIA PATRICIA ZAMORA                          10505
A0101412210000013721363OR ZAMORA, MARTIN ANTONIO                               20500
A0101412210000016960799VILLANUEVA, CHRISTIAN DANIEL PI                          0502
A0301400820000005196807RODA, ELEAZAR L.                                         0501
A2401400180000002146287BAUTISTA, WEDELIZA DIOQUINO                              0501
A2401400180000016976720SCAR HOLLOW BLOCKS                                       0501
A2401400180000016516773VELASQUEZ JR NESTOR DBU GAMERSP                         10503
A2401400180000016516773H GAMING GEARS OR CALONZO                               20500
B2401400180411031958001***********                                              1605
A2401400180411478374020MORI, LYDIA                                              0502
A2401400180411614556001ALZONA, MA. TERESA MIRABUENO                             0501
B5101400100000010371030BACULIO, BENJAMIN SALVO DBU JEFF EL                      1601
A0101403030441559391001**********                                               0501
A0101412890000002747971FERNANDO F. VERGARA                                      0501
A0101412890000011813073ALDRIN R. RANARA                                         0501
A0101412890000009833963MARTIN YANGO DBU SATNAV INFORMA                         10501
A0101412890000009833963TION TECHNOLOGY                                         20500
A0101406330000015172153ZALDIVAR, JOSEPHINE ROBAS                                0502
B0101406330000000432955ADELA LAND CORPORATION                                   1602
B0101406330472314132001*****                                                    1601
A0101406330000012633340SIDOR, JOSEPHINE DELA CERNA                              0502
A0101412760000001399317SANTOS OCAMPO, SALVADOR ARANETA                          0501
A0101412760000007822177MEMBERS OF NATASHA SHOECAT  INC                          0503
B1901400160000016760993LACAY, HENRY DE CASTO DBU STO. ROSARIO                  11601
B1901400160000016760993AGRI-VET SUPPLY                                         21600
A1901400160491069158001ZARAGOZA, BEULAH GONZALES                                0501
A1901400160491416981001JOEL C ATIENZA                                           0502
A1401400110000006680271DIHIANSAN, CHRISTINE BRIOSO                              0501
A1401400110000016978373GRAFILO, JOVENITA PUMARADA                               0501
B1401400110492027100002SACRED HEART COLLEGE                                     1601
B1601400170000009954692EQUIRISE CREDIT CORPORATION                              1602
B1601400170000000036057MULTI-WARE ECON-SALES CORPORATION                        1601
B0101407430503024216001BASIC POLYPRINTERS & PACKAGING CORP.                     1605
A0101403580000015735392VERGARA, MYRA ALANSALON                                  0501
B0101403580000004558750ECOSSENTIAL FOODS CORP.                                  1605
B0101403580000004540663ST. JOSEPH RESIDENCES MAKATI INC.                        1601
A0101403580511150731001MARILYN M. WAQUIZ                                        0501
A0101405940000000505822DINGLASAN, JUAN JOSE ANTONIO                            10502
A0101405940000000505822FRANCO                                                  20500
A0101408530000016972762BAGTAS, JOANNA FRANCESCA SANTOS                          0501
A0101408530000016972831BUNGAY, GIDEON GACORA                                    0501
A0101408530000016972864DE GUZMAN, BEVERLY CABELLON                              0501
A0101408530000016972900SALONGA, RICA BARTOLOME                                  0501
A0101408530000016972933VITUG, JACQUELINE LANDAYAN                               0501
A0101408530000016967638BARAL, WILSON RYAN JAY DE VERA                           0501
A0101408530000016976753LALATA, MADELYN MONTANO                                  0501
A0101411400000012209868***                                                      0502
A0101412050000012912420KUNITACHI, HAJIME                                        0501
A0101403450521238096001**********                                               0501
A0101403450521238239001*********                                                0501
A0101403610000014268716MA. LUISA B. BATUNGBACAL                                 0501
B2201400250000001066153CHRIST COMMISSION FOUNDATION INC.                        1603
A2201400250561254364001EDWIN P. GONZALES                                        0501
A2201400250561302797001RANDOLPH C. TAJANLANGIT OR                              10510
A2201400250561302797001CATALINA B. TAJANLANGIT                                 20500
A2201400250561674634002NEPTHALIE G. GONZALES                                   10501
A2201400250561674634002EMPLOYEES OF IWS                                        20500
A0101404130000015586500CAROL F. ASUNCION OR                                    10501
A0101404130000015586500FLORIDA A. FOZ                                          20500
A0101407720000016960711LIM, CHARLES RYAN GO                                     0501
A0101412180000005360065MISLANG, ROLAND REYNALDO                                 0504
B0101412180000001293130BLADESANDBOWS INC.                                       1607
A0101404260611337876002CHING, ROSA MATIAS                                       0503
A0101404260611478374003TROPA, EMELITA                                           0501
A0101404260611478374115FE S. BONDOC                                             0502
A0101409890000006812906TEODORO, JACKIELYN DBU                                  10501
A0101409890000006812906JRGT ENTERPRISE                                         20500
A0101409920000013391287VELASQUEZ, ELAINE TRAJANO                                0503
A0101409920000000022088ASUNCION, MARILYN JUANEZA                                0501
A0101407690000008045954MARFORI, RAQUEL GUEVARA                                  0501
B0101407690000003768003MT. SINAI MOTORS CORPORATION                             1602
A0101407690652741995001ESTACIO JR., FELIPE ADONA                                0503
A0101407690652776768001MANANGAT, LETECIA MORALES                                0501
A0101413440000011383003VILLA, EDWIN DAVID                                       0501
B0101413440000001085694QUEZON CITY TOURISM COUNCIL INC.                         1604
A0101413990000016574095CRUZ, SHELYNE ROSE SORIANO                               0501
A0101413990000016574142PACIS, VERONICA BATARA                                   0501
A0101406590000016205268ADUNGA, SHERLYN PADIWAN                                  0501
A1301400210000012444956HILARIO, CHERRY LOU DELA CRUZ                            0503
A1301400210000016548255HILARIO, CHERRY LOU D OR LAGMAN                         10504
A1301400210000016548255TERENCE CHRISTIAN V                                     20500
A1301400500000015421991JANELLE G. INAVIT OR                                    10501
A1301400500000015421991DANTE V. INAVIT                                         20500
A1301400500000016963403FERRERAS, ENGELBERT DELA CRUZ                            0501
B0101408240711008390001TRANSLIFT SHIP MANAGEMENT, INC.                          1610
A0101408240000008160041MALICDEM, E DBU NAIC TRADING                             0501
A0101408240711597149001SARCILLA, JHODELIX MINA                                  0503
A2801400100000009533484PROHHOROV, GINA OCOL                                     0502
A4101400260812245001001AILEEN S. CAMPOS                                         0510
A4101400390813292154001ANGELO C. MOLATO OR                                     10502
A4101400390813292154001MARIE LYN R. MOLATO                                     20500
A4101400420814520766111COLETA, JEANNETTE C.                                     0502
A0101412340000006047252TEDDY GRANT G. CRUZ                                      0501
A0101412340000003344961DAY ANN O. BUENDIA                                       0501
A0101404840000012411362REYES, GINA OLIVA                                        0501
A0101404840851298552055SIXTA MELBA C. ENGBINO                                   0501
A0101406750000009471861LOREDO, JEFFREY BACANI                                   0501
B0101406750852044723001AMGEN INSURANCE CENTRE                                   1601
A0101405070861478374089CHARITY CRES FABIANTES                                   0501
A0601400230000000029718LACAP, MILAGROS MACATO                                   0502
B0601400230000006045325LEAD WITH INTEGRITY AND GOOD GOVERN                      1602
