A0101412890000005944910FLORES, MARIA  AISSA ONG                                 0502
A0101412890000005945031FLORES, MARIA  AISSA ONG                                 0502
A0101412890000005944961OVILLA, CHRIS LYNNE RAMOS                                0501
A0101412890000002324192*************                                            0503
A0101412890000002748014DEE, ISRAEL RUFUS DE GUZMAN                              0505
B0101412890000000125339RICHRESOURCES TRADING CO.                                1601
A1701400230693724379001ILANO,FR. JOSE VERNON CADAPAN                            0502
A3001400130000000668480URIARTE, JORIME JANE NGO                                 0502
B1001400350233039624001ORO LZT MARKETING ENTERPRISES, INC.                      1604
A1001400350000000922412FHEDZ VENTURES                                           0501
A1001400350000000922241CAUBE, MARIVIC JAMERO OR                                10502
A1001400350000000922241CAUBE, VICTOR CO                                        20500
A5501400120000002348325ANG, ANDY MAN CHUNG CHANG                                0505
A0101412890000004344990IP, M DBU GOLDEN WORKERS                                10502
A0101412890000004344990CONSTRUCTION                                            20500
A0101408530000002260048GO, ANNABELLE TAN                                        0502
A1701400230693038725001DISHNET ELECTRONICS SUPPLY                               0501
B0101401250021185567001STA. CLARA PARISH SCHOOL                                 1605
B0101400150061015091001DUMAGUETE COCONUT MILLS, INC.                            1606
A0101400150061226998001DANIEL U. YU                                             0503
A0101400150061326594001REYNALD C. UY OR                                        10501
A0101400150061326594001SHIRLEY G. UY                                           20500
A0101400600071637368001********                                                 0505
B0601400100081017190001DE PESTERS PEST MANAGEMENT & CONSULTANT                 11601
B0601400100081017190001-PAMPANG BRANCH                                         21600
A0601400100081387358002DAVID, AR-JAY TINIO                                      0502
A0101414090000002282668TUBONGBANUA, FE FRANCIA                                  0501
A0101410850000003503482CANILLAS, MARTIN LAPPAY DBU                             10502
A0101410850000003503482MARCCHARM INDUSTRIAL                                    20500
A0101410850000006559875MARASIGAN, R DBU FIVE RM                                10501
A0101410850000006559875TRUCKING SERVICES                                       20500
B0101400730111030043001SANTORINI FOOD SERVICES INC.                             1601
A0101400730111347787002CHAVEZ, LYNN FLORENTINO                                  0501
A0101400730111643930001AUMENTADO, DONALD REYES                                  0501
A0101401960121311258001**********                                               0501
A0101413150000005168316*****                                                    0502
A0101401830141206536001PEDRO S. FLORES OR                                      10505
A0101401830141206536001IRMA G. FLORES                                          20500
A7201400170000003773017EDULSA, NELSON CALME OR                                 10502
A7201400170000003773017EDULSA, CRISANTA                                        20500
B7201400170000003773648LAFFICO MPC - BULANIT BRANCH                             1604
B0101400440000005393728RD PAWNSHOP, INCORPORATED                                1603
A0101400440161478374076JAYNE D. BARBIN                                          0501
A0101400440161520766159CHONA Y. ELUMBRA                                         0502
A0101401090171196215001DR. ROSENDO R. ROQUE OR                                 10501
A0101401090171196215001MELISSA P. ROQUE                                        20500
A0101401090171347113001LINO N. BARON                                            0501
B0301400950000000566934YUMCHAY VENTURES CORPORATION                             1610
A3101400160221041281001GOHLONG TIRE AND SERVICE CENTER                          0502
A3101400160221533624001ROMEL M. MALOLES OR                                     10501
A3101400160221533624001JACQUILYNNE MAY                                         20500
A3101400450223028468001NEW ARMSTRONG SECURITY AGENCY                            0502
A3101400450223494342001BELEN, RHODORA OR TOM OLIVER                             0501
A3001400130230478374026SONOT, RODERICK AMAHOY                                   0501
B3001400130000001271772xxxxxxxxxx                                               1601
B1001400190231062263001MEJARES, DARCY GARREN GAID DBU DENEB                    11601
B1001400190231062263001WATERS                                                  21600
A1001400190000002170747CABILAO, LORENA BINGCOLADO                               0501
B1001400350233540058188**************                                           1602
A1301400470252428022001DRA. MA. CLARISSA ELIZABETH                             10502
A1301400470252428022001VILLAROMAN                                              20500
A1301400470252490222001ALAIN CRISPIN W. WY OR                                  10501
A1301400470252490222001ARLENE D. WY                                            20500
B1901400290261049619001SO-LEN BUILDERS & CONSTRUCTION SUPPLY                    1602
A1901400290261298552013LEONILA QUESADA GUEVARRA                                 0501
A1901400290261356002001MARICEL REJANO LUCERO                                    0501
A1901400290261488341030DRA ZENAIDA S PASION                                     0504
A0101406460272295161001********                                                 0501
B0101406620273017460002ACCENT MICRO PRODUCTS, INC.                              1605
A0101406620273719678001*****                                                    0504
A0101408660000007457994F. CURA INDUSTRIES                                       0503
A0101411820000001356241HAO, KENNETH MONDIDO                                     0501
A0101411820000001356792LENNIE C. GUEVARRA                                       0501
A0101400570000004624208MARY GRACE B. ONGUE                                      0501
A0101411240000007643623JAMIN, SHANE KEVIN PONTECILLA                            0501
A0101411240000007647621MACAINDIG, DATUMAMA MAKAKILING                           0501
B0801400160311043928001DELIFRANZ BACKEREI, INC.                                 1602
A0101409050000002652899BACANI, MARIA ELOISA                                     0501
B0201400890376036898001GOOD HARVEST FLAVORS AND SPICE CORP.                     1605
A02014008900000055083893TRENT TRADING                                           0502
A0101408370000000586038QUINIO, IRENE BALLICAS                                   0501
A0101415350000007550058GREGORIO, MARCO ALBIOLA                                  0501
A0101415350000005028871JOSE, RAYMOND OLIVER P. DBU                             10502
A0101415350000005028871RAYBENJEN MARKETING                                     20500
A0101402770000007413590LIBRE, ALIREZA KHIABANI                                  0501
B0101408400394027823001COTTON TOUCH ENTERPRISE                                  1602
A0101408400000001981688REGALADO JR., ARTURO BENESISTO                           0502
B0101412210000005051336GEOGEN CORPORATION                                       1602
A0301400820000002271956COMAINGKING, JESUS B.                                    0501
A2401400180411043200001DYNAMIC FORCE SECURITY AGENCY                            0505
B2401400180000000073670BRIGADA HEALTHLINE CORP.                                 1620
B0101403030441237338001**********                                               1601
A0101412890000005913384MARTINEZ, K DBU KAYE ROOFING                            10501
A0101412890000005913384ENTERPRISES                                             20500
B0101406330472017558002**********                                               1601
A0101406330472022555001AUDIO EXCELLENCE MARKETING                               0505
A0101406330472041459001PROTECH SECURITY MARKETING                               0505
A0101406330472536028001ARLES MIRANDILLA OR KRISTINE                            10501
A0101406330472536028001MIRANDILLA                                              20500
A0101406330000001235370F. G. NUCUM                                              0502
A1901400320000000679272MARIA KATHLEEN GARCIA AQUINO                             0502
A3801400170000006083883CZAR OPENA CABALLERO                                     0501
B0101403580000002185413ACUMU CONSULTANTS INC.                                   1602
A0101403580511150429001PHILIP Z. YAPTINCHAY                                     0502
A0101403580511150629008MIRIAM HIPOLITO OR RAMONA PENA                          10501
A0101403580511150629008OR GERALDINE LIMOSNERO                                  20500
B0101403580511155828001JOUBERT CONSTRUCTION INC.                                1610
A0101403580511403658007ROBERTO G. MANABAT                                       0504
A0101405940000007644757YUTIG, ARLITA ALVAREZ                                    0501
B0101405940512036731001NEW MARKETLINK PHARMACEUTICAL CORP.                      1605
A0101405940512462757003TERESITA CUEVAS/HELEN JAVINAR/                          10503
A0101405940512462757003JOHN DEE FLORES                                         20500
B0101408530000001275270ENZO CONDOMINIUM CORPORATION                             1605
A0101408530000000594503KRIS MICHELLE P. POGOY                                   0501
A0101408530000001886042BRIAN JEFFREY P. JAVIER                                  0501
A0101411400517599647001BONAYON, RAMESES HERNANDEZ                               0501
A0101403450000000135500**********                                               0501
B0101403450521011878001**********                                               1602
B0101403450521038001001********                                                 1601
B0101403450521237153001**********                                               1602
A0101403450521690623001**********                                               0502
A2201400250000002337982DURIMAN, ERLINDA BALINGIT                                0501
A2201400250000003558218REYNALDO R. RARAMA DBU TRIPLE R                         10502
A2201400250000003558218FABRICATION & METAL WORKS                               20500
A0101404130601657831001LAURON, MARCOS ARCADIO GALANG                            0502
A0101407720602316120001LUCIA CASTRO-FORES OR                                   10501
A0101407720602316120001MIGUEL EDGARDO FORES                                    20500
A0101409890649044793001**********                                               0501
A0101407690000001919877RIVERA, CATHYRINE ESTACIO                                0501
A0101407690652207573001GORRA, MARILYN NOVAL OR                                 10503
A0101407690652207573001KRISTINA GORRA D                                        20500
A0101407690652525001081AGUSTINO, ROWENA - DEALERS OF                           10501
A0101407690652525001081SHOECAT INC.                                            20500
A0101407690000000495585BAGAPORO, MARIA NELIA - DEALERS                         10501
A0101407690000000495585OF SHOECAT INC.                                         20500
A0101407690000001919899DE LEON, LIADENETH - DEALERS OF                         10502
A0101407690000001919899SHOECAT INC.                                            20500
A0101413990000004838068BOTES, ESTRELLA BREDES                                   0501
A0101406590000000131693DR. FAITH T. BELLO OR                                   10502
A0101406590000000131693RAMON ANTONIO E. BELLO                                  20500
A0101406590662211749002ALONZO, LETICIA TUAZON                                   0501
A0101410300000006278431ROQUE, EVELYN VALDOMAR                                   0501
B1301400210000000023543SAN PABLO LIAM FOODS CORPORATION                         1603
A1301400340683355642001KITSUKAI, MARY ANNE URIAN OR                            10501
A1301400340683355642001URIAN, MARIA BUE                                        20500
A1301400340683467501001ROBERTO P. BANIGUED                                      0503
A1301400500684762106001VICEO III, JAIME S.                                      0502
A4101400260000000002142TAJANLANGIT, JACKIE C.                                   0502
A4101400390000001404266SOLAS, SAMARITAN CATARATA                                0502
B4101400390000006103537KRATOS TECHNITES CORPORATION                             1602
A0101412340000002900330ROSELLE B. BORBE                                         0501
A0101404840000000475952GONZALES, ROWENA POLLICAR                                0502
A0101404840000000090213SAPLALA AND SANTILLAN SMILE SYM                          0501
A0101404840851213312001MARQUEZ, THELMA P.                                       0502
A0101404840851481664028ERNIE DELLOSA                                            0501
A0101404840851520766070ELSA NAVARRO                                             0502
A0101404840851520766142ANITA DOGILIO                                            0502
A0101404840851520766163JOCELYN ANONUEVO                                         0501
A0101406750852637927001VILLA-CUTAMORA, SHERRILYN D.                             0501
B0101405070000000428784DOLINA, RI DBU COMPLETESOLUTION PHA                      1603
A0101405070861197650002********                                                 0502
A0601400230891738522001TAYAO, GILBERT ANTHONY BUENCAMI                         10502
A0601400230891738522001CHUA, MARK ANTHO                                        20500
A0601400230891738531001MARK ANTHONY CHUA OR GILBERT A                          10503
A0601400230891738531001TAYAO OR ABELARD                                        20500
