A4101400420000002084420RAMEL JR., ERNESTO MASCARDO                              0502
B0101401670000000178585TOYOTA SAN FERNANDO PAMPANGA, INC.                       1601
A0101401670271188173001EMMANUEL G. LIM                                          0503
A0101401670271475286001ALBERNINA PASCUAL-LOPEZ                                  0502
A3101400870000007564232YECYEC, ARMETELIO P                                      0501
A4101400420000003715495GREGORIO, JOMER BENSING DBU CJG                         10502
A4101400420000003715495DIGITAL MARKETING                                       20500
A3001400130230757981001SACAY, RENE CANTOR OR SACAY,                            10501
A3001400130230757981001JOSEPHINE SIMBIT                                        20500
B0101402060351020973001C5 PETROLEUM CORPORATION                                 1603
A0101402060351358628001VICENTE GIL ILUSTRE &/OR MARIA                          10502
A0101402060351358628001EVELINA ILUSTRE                                         20500
A0101410690000000478962LIM, PAULINO CHU DBU COLTMASTER                          0510
A0101414120000000648960AZUELA, CYNTHIA LARGADO                                  0502
A0101414120000006005301REVILLA, MICHAEL ANTHONY PEREZ                           0501
A0101414120000006005425BRIONES, MARIA LUZ GENIZA                                0501
B0101414120000003584281JD & P FOOD TRADING CORPORATION                          1602
A0101414120000001642597ELICAS TRADING                                           0501
A4101400420000003715564SARIA, LESTER DBU DESERT QUENCH                         10501
A4101400420000003715564WATER REFILLING                                         20500
A4101400420000004848028EMMA A. MARSHALL                                         0501
A0101400860000002333580**********                                               0503
B0101400860011374845003**********                                               1601
A0101400860011477042001**********                                               0503
A0101400860011478516001**********                                               0502
A0101400860011533026001**********                                               0502
A0101400860011572958001**********                                               0502
A0101401250000004374721HASAN, ZIAUL                                             0502
A0101401250021179020001LLAMADO, REYNALDO C. OR                                 10501
A0101401250021179020001LLAMADO, NATIVIDAD                                      20500
A0101400150000003162267APRIL ROSE P. AGONCILLO                                  0501
B0101400150061040542001MEGABUILD 101, INC.                                      1602
A0101400150061237987001LUBINA, MARINA GARCIA                                    0501
A0101400150061340658001GAZO, GERALDINE SO                                       0501
A0101400150061356288002FERNANDEZ, EDINA T OR                                   10502
A0101400150061356288002FERNANDEZ, VERNON KEITH                                 20500
A0101400150000002902387NADURATA, JOSSA LOPEZ                                    0502
A0101400150061610203001BALLESTEROS, RAMON EMMANUEL N.                           0502
B0601400360000003186838P4 HUMAN RESOURCE SOLUTION, INC.                         1602
A0101413280000005084828MELITA M. ARANEZ OR                                     10502
A0101413280000005084828ARIANNE MARIELLE ARANEZ                                 20500
A0101410850109055102001MANGUNAY, ROLANDO JT DBU R.P.M.                         10505
A0101410850109055102001ENTERPRISES                                             20500
B0101400730111008300002AMALGAMATED MOTORS (PHILS), INC.                         1603
B0101400730111008330001CUEVASVILLE REALTY & DEVELOPMENT CORP.                   1603
A0101413150000003868264*****                                                    0501
B0101413310000000040013MICHAELJOSEPH/TERESITA/ANTONIO/ANTHONY                  11601
B0101413310000000040013CONCEPCION                                              21600
A0101413310000001073512TOMAS, CHERRYLYN CAMPOSANO                               0501
B0101401830000000033638CARITAS SALVE CREDIT COOPERATIVE                        11604
B0101401830000000033638(MANDALUYONG)008                                        21600
B0101401830000000059972CARITAS SALVE CREDIT COOPERATIVE (NOVA/                 11603
B0101401830000000059972ST.PETER) 010                                           21600
A5001400170000005705175MONTANO, JOANNE CRISTINA OR                             10505
A5001400170000005705175ZAPANTA, FRANCIS ANTHONY                                20500
A0101412920000007585622RIOVEROS, MARY ANNE MACARANDANG                          0501
B0101400440000002846575COMMANDER SECURITY SERVICES, INC.                        1620
A0101400440161478374198EUFRONIA I. BERGONIA                                     0501
A0101400440161520766116GLENDA M. CAMPILLANOS                                    0501
A0101400440161525001159MARITES P. MONTALBAN                                     0502
A0101400440161525001174RIZALYN V. GUNTANG                                       0505
A0101407270000004915851LIM, GINALIE PREJOLES                                    0501
A0101407270000007596549DIZON, DANIEL SAYO                                       0501
B0101407270000000830682MULTI-LIFECARE FOUNDATION INC.                           1605
A0101407270162085922018CLEMENTE, SPIRO LU                                       0501
A0101401090171196066002MARY JOCELYN OR REDARIO LAYGO                            0502
A0301400950000005707126********                                                 0502
A0301400950000005707273ABAS, AHMAD ALI OR                                      10501
A0301400950000005707273ABAS, ANALYN G.                                         20500
B0301400950000002115895************                                             1602
A0101401380201179684001ANTONIA C. CUNETA                                        0505
A0101401380201436370001MONSALE, MENLY ABENOJA                                   0502
A0101413020000000056988AGUSTIN, FL DBU FIX AND CARE                            10505
A0101413020000000056988REF & AIRCON REP                                        20500
B0101410720210045577001ASIAQUEST VENTURES CORPORATION                           1615
A0101410720000000211770PRISTINE DAWN NAILS SPA                                  0501
B3101400160221033214001RD CASH PADALA, INC. AREA 02                             1603
B1001400190000002170849SY, STEPHEN                                              1605
A1001400190000002170736MARABE, RIKKA LA VINA AND                               10503
A1001400190000002170736LA VINA, IRISH P                                        20500
A1001400190231478374086LORNA A. OMANDAM                                         0502
A1001400190000000124832LIGTAS, ELSA D.                                          0502
B1001400350233045991001LYL DEVELOPMENT CORPORATION                              1601
A1301400760000000050579ADORACION S. DEL ROSARIO OR                             10504
A1301400760000000050579VICTOR S. DEL ROSARIO                                   20500
A1301400760000004522592KRISTOFFER ROMEO E. GATDULA OR                          10502
A1301400760000004522592SANDRA D. GATDULA                                       20500
B0101401670271026611001MERGE MARKETING STRATEGISTS INC.                         1602
B0101401670271038486001POWER FASHION INC.                                       1605
A0101408660000005263827BANTIGUE, PAUL CHRISTIAN GOHEE                           0501
B0101408660274047925001CNT PROMO AND ADS SPECIALISTS, INC.                      1620
B0101411820000000024200CHELA MANUFACTURING CORPORATION                          1603
A0101411240000007577384DELA CRUZ, MARIA THERESA OR                             10501
A0101411240000007577384DELA CRUZ, ANTHONY                                      20500
A0501400200292629061001CARGANILLA, DOMINADOR P. OR                             10501
A0501400200292629061001CARGANILLA, GLADYS B.                                   20500
A1101400120313478374104EMADIN, LLANA L.                                         0501
A2001400290315042654001GFR TIRE SUPPLY AND SERVICE                             10503
A2001400290315042654001CENTER                                                  20500
A2001400290315043996001STOP N' SHOP ENTERPRISE                                  0520
A3401400280000003309208CAPCOR MOTORS CORPORATION                                0502
A3401400280318478374010NUFABLE, DELIA VALLO                                     0501
A2901400130000005961680JAYLO, MA JACINTA CERDON                                 0502
A2901400130000005961128**********                                               0501
A0101402350000001474324MARTINEZ, KENNETH BUHAT                                  0501
B0101402350321006752001LOPEZVILLE HARDWARE                                      1602
A0101402350321597544001ARSITIO, ROBERTO T. OR ARSITIO,                         10501
A0101402350321597544001LUVIZMINDA L.                                           20500
A0101402510341198308001TUY, FEDELIZ SANDIL                                      0501
A0101402060351212379001SILVESTRE, LUME L. OR                                   10504
A0101402060351212379001SILVESTRE, AIREE                                        20500
B0101409050352041115001FOODTASTIC TRADING CORP.                                 1603
A0201400760000001107511OQUIAS, JOCELYN LIM                                      0501
B0201400760000000989706SORIANO, ADRIAN IBAY                                     1602
A0201400920000002804504BARENG, NATHALYN C.                                      0503
B0101402930381045839001EQUILAND PROPERTY MANAGEMENT (EPMC)                      1601
B0101402770391009532001RIDGEMONT HOMEOWNERS ASSN., INC.                         1603
B0101402770391031763001SIGMA PACKAGING CORPORATION                              1601
A0101408400000001952843BARTE, ANJELICA SORIA                                    0501
A0101408400000005286320AMEROL, ROSLINA MAROHOMSALIC                             0502
A0101408950000003439183AYSON, MARIE KAREEN IDEA                                 0501
A0101408950000003439201FIRMEZA, ANDREA                                          0501
A0101408950396398206001FRANCISCO VICENTE F. LOPEZ                               0502
B0101409180397041823001THE INFINITY CONDOMINIUM CORPORATION                     1603
A0101409210000004736152BRADY, OLAH GRAY PADILLA                                 0502
A0101412210399094817008RYAN RENE C. JORNADA                                     0502
B0301400820000002106285FONTANILLA, ARNOLD S. OR FONTANILLA,                    11605
B0301400820000002106285EVELYN D.                                               21600
A0301400820000004746043ALFAJORA, AL G.                                          0501
A2401400180411389317001ISUBAL, WILMA PRADO                                      0501
A0901400220432478374001LEONARD GO LOZADA                                        0501
B0101403030441240723001**********                                               1601
A0101403320000000735853AQUILIZAN JR., ERNESTO CABATE                            0502
A1901400160491476162001GINA A PELESMINA                                         0501
A1401400110492029549002TRIPTORS DIAGNOSTIC CENTRE                               0503
A1601400170000001360736UPTOWN ENTERPRISES                                       0502
B0701400260000000041083MULTI-WARE ECON-SALES CORPORATION                        1603
B0101407430000001212979FRUS CORP.                                               1603
A0101403580000002265501IRINCO, RONALD ORBITA                                    0501
A0101403580511152575002BERDOS, REX REDENTOR C. OR                              10501
A0101403580511152575002BERDOS, MARIBEL G.                                      20500
B0101405940512020791002ACRYDENTAL LABORATORIES, INC.                            1601
A0101405940512360728001ERWIN P. HERNANDEZ OR                                   10501
A0101405940512360728001AGNES T. HERNANDEZ                                      20500
A0101405940512449606005**********                                               0501
B0101408530516033397001SPRINGER INTERNATIONAL, INC.                             1605
B0101403450521030430001ZAMONY VENTURE CORPORATION                               1601
B0101403450521078888003PUREGOLD PRICE CLUB, INC.                                1620
A0101404000000000136434LUNDANG, LYNNETH TIGLAO                                  0501
B2201400250000001545433CATALINA INES B. TAJANLANGIT OR                         11610
B2201400250000001545433RANDOLPH C. TAJA                                        21600
A2201400250561028844002CHRISTIAN HOME FURNISHING                                0501
B2201400250561315113001*******                                                  1602
B0101410690000001284208BIGBELL INTERPHIL CORPORATION                            1601
A0101407720000002151439CUEVAS, MICAH ANGELI MASIAN                              0501
A0101407720602165250002DR. CAROLINA A. ABESAMIS-DRILON                         10510
A0101407720602165250002OR CESAR M. DRILON                                      20500
A0101407720602356667001*****                                                    0501
A0101407720602396271001DR. MAY O. SISON                                        10503
A0101407720602396271001OR DR. JORGE A. SISON                                   20500
A0101407720602397494001GENARA M. LIMSON M.D. OR                                10501
A0101407720602397494001ANTONIO LIMSON                                          20500
A0101407720602400974001BELTRAN, GERARDO LIOANAG                                 0503
B0101404260000000003710KIDDO ACADEMY & DEVELOPMENT CENTER                       1602
A0101404260611041714001ALEJANDRO DRUG STORE                                     0501
A0101404260611646521001JANICE E JISON OR                                       10501
A0101404260611646521001CHRISTIAN JILL A                                        20500
A0101409890000002161411LLORICO RODERICK CAMACHO DBU JO                          0501
A0101409890649774914001ELEFANO, ROSITA CASTRO                                   0501
A1301400210000005040588HERNANDEZ, DIVINA DELA CRUZ                              0501
A1301400210000000540914RAMOS, ALLAN BAUTISTA                                    0501
A1301400340683501003001GO, LLOYD CHUA OR CHERYL B GO                            0502
B0101408240711026678001SAMBEL PACIFIC CORPORATION                               1602
A0101408240711386762003TUGADE, PAUL LOUIE OR                                   10502
A0101408240711386762003TUGADE, KATHLEEN                                        20500
A0101408240711396310001LESTER C. VICTORIA OR                                   10502
A0101408240711396310001GIL JOSE E. PULUMBARIT                                  20500
A0101408240711562600001TUGADE, KATHLEEN ANNE JUAN                               0501
B2801400230713045988001NGE TRADING                                              1602
A4101400260812245011001TERESITA M. GUILARAN                                     0505
A4101400390813482809001AGCAOILI, EVANGELINE EDROSA JT                           0501
A4101400420814342049001MENDOZA, DIVINA LORY ANN E. OR                          10503
A4101400420814342049001MENDOZA, GILBERT                                        20500
A4101400420000003715702TORRES, CAROLIN                                          0501
A4101400420814575367002PIANSAY, SULPICIA ALIMANE                                0501
B4101400550815040997003MAHARLIKA CONCRETE PRODUCTS AND CONST.                  11601
B4101400550815040997003SUPPLY                                                  21600
A4101400550815478374001ONAYAN, CAROLINA BAUTISTA                                0502
A0101412340000003340478CAROL N. AGPALASIN                                       0501
A0101404840851478374094LETICIA FULLO                                            0501
A0101404840851520766180CARMELITA M. BARBACENA                                   0501
A0101404840851542980001MASANGCAY, NORA VERCELES                                 0501
A0101406750852043541001GRAFIX VENUE ENTERPRISE                                  0501
A0101406750852306711002JOSELINO J. FERNANDO OR                                 10504
A0101406750852306711002GINA ROWENA C. FERNANDO                                 20500
A0101406750852478374004IMELDA TAGUNA                                            0501
A0601400230000000498619NEPOMUCENO, NOLI SICAT                                   0501
A0601400230000000452840GOZUN, R-JAY RAMOS OR                                   10510
A0601400230000000452840GOZUN, MYRNA RAM                                        20500
A3101400160221221032002                                                         0502