F0201400180181080425001************                                             2701CKC
F3101400320222448311001YABUT, ERNESTO GONZALES                                  2502CKO
F0101409500000001160478G-DRIVE SOLUTIONS, INC.                                  2602CKR
F0101407720602294877009DR. REBECCA B. SINGSON                                   2602CKR
F0101408240711389438001ELENITA LEE OR                                          12501CKO
F0101408240711389438001ANGELEN LEE                                             22500CKO
F4101400260812033409002NEW DASMA GOLD BAKE INC.                                 2601CKO
F4101400260812478302001CHITO Y. OLBIDO OR                                      12505CKO
F4101400260812478302001AGNES C. OLBIDO                                         22500CKO
F4101400390813039856002MARITES M. REYNERA                                       2503CKO
