A4101400260000000002120LUCIANO, MARIA PAZ GOMEZ                                 0502
A3101400450000000014068GRANADA, RANDY ADEL MEDRANO                              0501
A1401400110000000034711**********                                               0501
A0101406590000000035481EVELYN D. MASCARINAS                                     0501
A0101400440000000060288ROSELYN T. AMARO                                         0501
A0101400440000000060346JANICE C. BILBAO                                         0501
A0301400790000000435909KASER, NELIDA AREVALO                                    0501
A0101411530000000741720**********                                               0502
A0101400730000000833192GLEN T. NIOKO                                            0502
A3001400130000000944714LIM, KLAUDIO DIAZ                                        0501
A4101400550000000981795SORIANO, ALMA BELTRAN                                    0504
A0101413730000001029543*********                                                0503
A0101413310000001073654********                                                 0502
A3001400130000001261170TANJAY, ANNABELLE RACASA                                 0505
A0101412180000001293323SANTIAGO, DOMINADOR REYES                                0502
A0101404840000001312601ANNALYN R. VALISCO                                       0501
A0101400600000001335648********                                                 0502
A0101408110000001364825YUHENGCO, JEFFERSON JOHN CHUA                            0501
A0101402350000001474324MARTINEZ, KENNETH BUHAT                                  0501
A0101409920000001539620PANAGA JR., FLAVIANO AGGUIAO                             0501
A1401400110000001806986ALPHA CYCLE CENTER                                       0502
A0101400440000002034782CHARITO IBANEZ                                           0502
A4101400420000002084631MANICIO, MARIA ARMI ORTEGA                               0501
A6601400120000002249761BERNABE, ARWIN CARANZO                                   0501
A0101408950000002255330BAMBALAN, NELSON SERRANO                                 0505
A0101407270000002334830EDWIN T. CUA                                             0502
A5501400120000002348256VILLORENTE, KRISTINE PRADO                               0501
A1001400350000003360632ALMOJUELA, ELVIRA EDROZO                                 0501
A0101401700041330733013FINA M. LOPEZ                                            0501
A0101400150061337098154BENITO L. KONG JR.                                       0501
A0101400440161039572045DOVIE T. JERMIA                                          0502
A0101400440161186924001LETTY D. HAHN JT                                         0504
A0101407270162333154028MYRNA G. REYES                                           0501
A0101407270162544581001FREDERICK STEPHEN M. BANGUG                              0502
A0101401090171195399001EFLEDA M. SACDALAN                                       0502
A0101401090171200079001SUAREZ, CONSUELO GONZALEZ                                0501
A0101401090171232456001DRS. ALBERT OR DAISY ISMAEL                              0503
A3101400450223019232001D' BROTHERS AUTO REPAIR SHOP                             0504
A3101400450223576401001GALLEGO, DHARIA CAJAYON                                  0501
A1001400190231275932001********                                                 0501
A1001400190231478374086LORNA A. OMANDAM                                         0502
A1901400290261390520001JOEL PUNZALAN DIMAANO                                    0501
A0101401670271274619001IVY V. LAUTENGCO                                         0502
A0101406620273375598004VIRGINIA SAPINA                                          0501
A0101400570281423865002RIBAYA, VICTORIA CABRERA                                 0501
A2601400270302762450001JOYCE ANN MAYE V. LANUZA                                 0501
A6601400120314613008001QUILETORIO, RUEL OR ANALIZA                              0501
A0101402350321180985001CHIEN CHUNG P. HO                                        0501
A0101402060351217441040ELIEZER QUIAMBAO                                         0501
A0101402640361170246001GALLARDO, EDILBERTO CLETO                                0502
A0201400920375478374018BUNADO, MARIE ANN BELLO                                  0501
A0101402930381478374004ANALIN ARTIOLA                                           0501
A0101402930381478374010LEONILA Y. DAIZ                                          0504
A2401400180411744426001ENGCONG, JAY CUEVAS                                      0501
A0101403320471207227002JOJI RUTH V. NITURA                                      0503
A1401400110492549990001**************                                           0501
A0101407430503375315003LILIAN LIZA C. MACATO                                    0501
A0101405940512152957001MA. ELENA CHUA OR GO, PHILIP                             0503
A0101403450521238657001**********                                               0502
A0101407720602332201004LIM, MARIA SOCORRO CAEDO                                 0504
A0101407720602785772001ESCUREL, CAROLINA NAGUIT                                 0505
A0101410720653288723001BARANGAN, JOSEPHINE TUNGPALAN                            0505
A0101410720653401664001PADUA, GILDA MONICA CANCINO                              0501
A1301400210682312156001ELISA LORENZO                                            0501
A2801400100712311102001CHARINA N. HIPOLITO                                      0501
A2801400100712478374001BERNARD R. CORPUS                                        0504
A2801400100712676952001ROSALINDA E. LICO                                        0502
A4101400420814520766028BASILOY, VILMA                                           0501
A0101404840851478374071MARITESS C. CASARILLA                                    0501
A0101404840851478374094LETICIA FULLO                                            0501
A0101406750852043322001JMRS TOURS & TRAVEL                                      0502
A1901400160000000007376RAQUEL ADORA MARTIN OR                                  10501
A1001400350000000017810RITCHE G. ROSAL OR                                      10501
A0101413570000000206373MARY ANN C. REYES OR BENEDICT                           10501
A0101408370000000336149SAWIT, SIMONETTE KRISTINE                               10502
A1601400170000000421092RUBEN C. UY OR                                          10503
A0301400790000000435881CHU, ROMEL SANCHEZ OR                                   10501
A0101413310000000863992VICEO, CARLOS ESTANISLAO OR                             10501
A1901400290000001926387HERNANDEZ, JUNE DBU JUNE AND                            10501
A0101409920000001951840MEMBERS OF NATASHA (SHOECAT INC                         10501
A0101402930000002269138ELAMPARO, C DBU CE INTERIOR                             10501
A5501400120000002949633VILLORENTE, GRACIANO DBU SOLID                          10501
A0101401250021179007001OLIVEROS, SYLVIA OR SHEILA OR                           10502
A0101401250021219561002DELOS REYES, SHIRLEY G. OR                              10505
A0101400150061229009001MANGLAPUS III, RAUL JAY OR                              10501
A0101400440161375261001EUGENE DE LUNA OR                                       10502
A0101400440161598664001RICHARD G. LEONES OR                                    10501
A1901400290261033073002NESLIET BUILDERS AND GENERAL                            10503
A0101401670271745163001ONG, CHRISTOPHER ALLAN L. OR                            10501
A0101406620273521300001GARCIA, LEO MCGUIRE OR                                  10501
A0101402930381331314001JESUS C. SORIANO OR                                     10503
A2401400180411478374061JUNRES AGAD OR                                          10501
A0101407430503434075002ISMAEL V. DE LEON OR                                    10502
A0101404000551478727001HUANG, GEORGE EMIL SHAU OR                              10501
A0101407720602398224001CUSTODIO, DEOGRACIAS BANABAN                            10501
A0101410720653528817001VINCENT GONZALO SY OR TIMOTHY                           10503
A0101406590662078882001TINAZA, AMELINA B. OR                                   10501
A0101408240711383150001AURELIO III OR AURELIO JR.                              10501
A0101404840851334120001MARY ANN R. PANGAN OR                                   10501
A1901400160000000007376VICTOR DANGANAN                                         20500
A1001400350000000017810RUTHEL G. ROSAL                                         20500
A0101413570000000206373MARIANETTO A. RE                                        20500
A0101408370000000336149TIANGCO                                                 20500
A1601400170000000421092EVA A. UY                                               20500
A0301400790000000435881HU SU. CHING YI                                         20500
A0101413310000000863992VICEO, AIDA GUILLERMO                                   20500
A1901400290000001926387YVETTE TRUCKING SERVICES                                20500
A0101409920000001951840RAMOS, MARILYN                                          20500
A0101402930000002269138DESIGNS                                                 20500
A5501400120000002949633ROCK CONSTRUCTION SVCS                                  20500
A0101401250021179007001WARREN                                                  20500
A0101401250021219561002DELOS REYES, NICASIO                                    20500
A0101400150061229009001MANGLAPUS, JENNI                                        20500
A0101400440161375261001THISTLE DE LUNA                                         20500
A0101400440161598664001CLAIRE D. LEONES                                        20500
A1901400290261033073002MERCHANDISE                                             20500
A0101401670271745163001ONG, ANNA LISA C                                        20500
A0101406620273521300001GARCIA, CARMEN                                          20500
A0101402930381331314001MA. SALLY MAY D. SORIANO                                20500
A2401400180411478374061NORMELITA BLANCO                                        20500
A0101407430503434075002ADELINA L. DE LEON                                      20500
A0101404000551478727001HUANG, OLIVIA SHAU                                      20500
A0101407720602398224001OR CUSTODIO, ELEANOR                                    20500
A0101410720653528817001JON SY OR JULIE                                         20500
A0101406590662078882001TINAZA, JOMAR S.                                        20500
A0101408240711383150001OR AARON LITONJUA                                       20500
A0101404840851334120001JOHN NOEL PANGAN                                        20500
B0101407720000000017610GFTG PROPERTY HOLDINGS CORPORATION                       1603
B0101402930000000057543CCF LIFE ACADEMY FOUNDATION INC.                         1610
B1401400110000000167446SOUTHERN PROCESSING CORPORATION                          1605
B0101410300000000191622TEAM SOURCES ALKOASIA COMPANY                            1602
B0101409050000000258473AMALGAMATED INVESTMENT BANCORP.                          1603
B0101409050000000258611THE PITSTOP CAFE AND RESTAURANT INC                      1602
B0101412500000000739715PACIFIC CONCRETE PRODUCTS INC.                           1602
B1901400290000001363122MALARAYAT INNOVATIVE FINANCING CORP                      1610
B0101400150061055521001LEGAL REVOLVING FUND                                     1601
B3001400130230042943088VENTURA PLYWOOD PHILIPPINES INC.                         1610
B0101406460272605583001AUTOCHINA, INC.                                          1605
B0101406620273037236001SANTOS SANTOS & SANTOS LAW OFFICES                       1601
B0101406620273039952001VERSATECH INTERNATIONAL, INC.                            1602
B0101406620273048016001ST. FRANCIS PARISH CHURCH                                1601
B0101406620273313299003**********                                               1602
B0101402350321038337001JC UMEREZ PRIME HOLDINGS CORP.                           1606
B0101402350321171971001RADIAL ARCH CONSTRUCTION INC.                            1603
B0101409050352031646001DELTA EARTHMOVING, INC.                                  1610
B0101402640361666146001RLCT MULTI-SPECIALTY MEDICAL CLINIC                      1602
B0201400890376045807001**********                                               1620
B0201400890376055542001AQUATIC PHOENIX ASTURIAS CORP.                           1620
B0101402930381009073001INTERLINK BUSINESS SOLUTIONS INC                         1601
B0101402770391752292002JUANITA OR TOMAS OR BENJAMIN VICTORIA                    1601
B2401400180411276067001GAISANO DADIANGAS, INC.                                  1610
B0101403030441327386001**********                                               1603
B0101405940512037554001THE COVENANT CAR COMPANY, INC.                           1601
B0101408110515022478001GLOBERT REALTY & DEVELOPMENT CORPORATION                 1605
B0101407720602779437001SOUTH BIENALE MARKETING INC.                             1602
B0101410300663082813001DELTA GRID POWER SYSTEM CORPORATION                      1602
B0101408240711022068001CIRCLE CORPORATE INC.                                    1605
B1101400120000000652391ONG, VIRGINIA PO OR ONG, WEE CHI PO OR                  11601
B1301400470252041195001GAMECOCKS BREEDERS ORGANIZATION OF                      11603
B2001400290315689243001PERALTA, DIXON WETACK OR CU, SUSANA                     11601
B1401400110492046339001SOUTHERN QUEZON PACIFIC OIL MILL                        11605
B0101408110515044192001ASIA SOCIETY FOR SOCIAL IMPROVEMENT AND                 11603
B1101400120000000652391ONG, WAN LIAN PO                                        21600
B1301400470252041195001NUEVA ECIJA, INC                                        21600
B2001400290315689243001PERALTA                                                 21600
B1401400110492046339001CORPORATION                                             21600
B0101408110515044192001SUSTAINABLE                                             21600
B0301400530193821100608**********                                               2020
