B0101412760000018077364**********                                               1602
A0101410300000014299193DUCLAN, SIGRID BERTO                                     0502
A0101409920000005460793***********                                             10501
A0101409920000005460793***********                                             20500
A6601400120314066663001RM MAGARA BUILDERS & SUPPLY INC                          0502
A0101405650000015273824SIBUG, GERARDINE G.                                     10501
A0101405650000015273824OR GARCIA, SANDRA P.                                    20500
B0101407720000011874823MEDI LINX LABORATORY INC.                                1602
A0101410300000012210852TORRES, MARIA LOWIE REYES                                0502
A0101400860011081984001**********                                               0502
A0101400860011495810001**********                                               0501
A0101400150000000807170FRAGANTE, SOCORRO PROTACIO                               0501
A0101400150061484680001PASION, LAILANI SADSAD                                   0502
B0101400150061534780001STRAITS WINE COMPANY WHOLESALERS, INC.                   1602
A0601400360000008460264MEDINA, SHIRLEY CAPARAS                                  0502
A0601400360000012820314ROQUE, NINA RICH YABUT                                   0501
A0101401960121240387001EDMUND MENEZ OR                                         10501
A0101401960121240387001EMELY MENEZ                                             20500
A0101401960121348042001YAP, HELEN SY                                            0501
A0101401830000016902900MIRANDA, APRIL MANALANG                                  0501
B0101401830141033573001MAHARLIKA GENERAL MERCHANDISING                          1605
B0101401830141037331001Q-PHIL PRODUCTS INT'L.                                   1601
A0101401830141070560001MARIANO,DERICK/HECITA,JOSEPHINE                         10501
A0101401830141070560001HERNAN,MARIA VAN                                        20500
B5001400170000000169835KLM REALTY & DEVELOPMENT CORPORATION                     1601
A5001400170000005705197MAGBAGO, JUCEASAR MACALONG                               0501
A0101412920160059095002TORIBIO, EMELY DUAY DBU HIC                             10501
A0101412920160059095002PRINTING SERVICES                                       20500
B0101400440161027962002CASAYRA CORPORATION                                      1601
B0101400440000000337773VIENNA PORCELANA PHILS. INC.                             1610
A0101400440161525001107ALMA B. JIMENO                                           0501
A0101407270162203614002ROBERTO LEYBA                                            0501
B0101401090171036158001AIRBORNE MAINTENANCE AND ALLIED                         11601
B0101401090171036158001SERVICES INC.                                           21600
B0101401090171036158001AIRBORNE MAINTENANCE AND ALLIED                         11601
B0101401090171036158001SERVICES INC.                                           21600
A0101401090171196210002LOPEZ, MA. CRISTINA OR                                  10502
A0101401090171196210002RAMOS, HUBERT                                           20500
A0101401090171336336002IRENE P. EVANGELISTA                                     0501
A0101401090171591746001CALIMAG, ANDREW PETER PATAWARAN                          0501
A0301400950000002115560VILLACAOL, CELESTIAL LANOSA                              0502
A0301400950000014676112DU, RACHEL ANNE OR CHIU, PETER                          10501
A0301400950000014676112PAUL VINCENT                                            20500
A0101401380000016158220ABELLA JR., RENE ISIP                                    0501
A0101413020000014434083GALAURAN, JOSE MARI DEL VALLE                            0501
A0101412500000001147017MOLDEZ, AZIEL JIREH                                      0502
A0101412500000014967607YUSINGCO, ENRICO DELA LLANA                              0501
A0101412500000018153312PUNZALAN, MARISSA DUMLAO                                 0501
A3101400160000011243728VILLARAMA, SHERWIN DELA CRUZ                             0501
A3101400160000012033279PIAMONTE, ADELITA LUCERNAS                               0501
A3101400450000016932571PASCUA, MARIA LOURDES BARCELONA                          0501
B3101400450000005960574CARE LINE ENTERPRISES, INC.                              1605
A3101400450223088272001ARANGUREN, ROLAND ONTOY                                 10502
A3101400450223088272001OR AGONCILLO JR.                                        20500
B1001400190231014504006TANCINCO, ROY DBU E AND R ENTERPRISES AN                11603
B1001400190231014504006CONSTRUCTION JT                                         21600
B1001400190231025460003SAFER RIVER LIFE SAVER FOUNDATION I                      1602
A1001400190231520766006DELFIN, LORENA                                           0501
A1001400480000002300430YU, WINEFREDO NISNISAN DBU                              10505
A1001400480000002300430WINKIM TRUCKING                                         20500
A1901400290000001926303PAULER PANGANIBAN ANI                                    0502
A1901400290000008851823HYDIE HARINA SEVILLANO                                   0501
A0101406460272722876001JOSE R LAVARRO                                           0502
B0101406620273021370001YOUNG'S PAPER SALES, INC.                                1602
B0101406620000009695298JK CAPITAL FINANCE, INC.                                 1604
A0101406620273517001001ASUNCION, JOHN DEXTER LIZARDO                            0503
B0801400160000011219582WINEGARD MARKETING, INC.                                 1605
A1101400120000004088966CARPIO, FERNANDO JT                                      0501
B1101400120000006186832THE REAL ALTERNATIVE INVESTMENT MULTIPUR                11601
B1101400120000006186832POSE COOPERATIVE                                        21600
B2001400290315044204001cCEBANK CREDIT, INC.                                     1601
A0101402350321179561001TERESITA R. ORIS OR                                     10501
A0101402350321179561001RODOLFO P. ORIS                                         20500
A0101405650000003561179DELOS REYES, ROBERTO                                     0501
A0101405650000016831595FELICIANO, ROLANDO BURGOS OR                            10502
A0101405650000016831595FELICIANO, MA. CARMELITA                                20500
A0101405650000011810858VILLAROSA, MICHAEL JOSEPH                               10503
A0101405650000011810858CALIMBAS                                                20500
A0101402510000018099706LANDICHO, MARK ROBERT FAJILAN                            0501
A0101402060351378851001ALBERTO, EMIL JOHN M. OR                                10502
A0101402060351378851001ALBERTO, ANN                                            20500
A0101409050000013851793VILLAROSA, BERNADETTE                                   10501
A0101409050000013851793EMPLOYEES OF, DELL GLOBAL                               20500
A0101409050352619777001VANESSA THERESE D. FRANCISCO                             0502
A0201400760000017602272FABULA, DENNIS CALPO                                     0502
A0201400760000013669680COPIER SOURCE ENTERPRISES                                0510
A0201401020000003031129DEL PRADO, JOSE VICE DBU DE LAR                          0502
B0101408370000007031409CTMED CENTRAL CHAIN CORPORATION                          1601
A0101408790383092337001SURLA, JOHN PAUL MAGBAG                                  0502
B0101402770000001571233LEADER GARMENTS CORPORATION                              1605
A0101402770000004842137COSICO, EMELINDA SOMERA                                  0501
A0101405490000011287871ESTUITA, MAY VERZO                                       0502
B0101408400394025834001TRELLIS RESTAURANT, INC.                                 1610
A0101408400394412453001TAYAG JR., DANILO OCAMPO                                 0502
A0101408950000017747010ONIO, KAREN MONTILLA                                     0501
B0101409180397670520001CASAEUROPA INC.                                          1606
A0101409210000017918460MALUBAY, ALLEN CHRISTIAN GENABE                          0501
A0101409210000005252113FERRER, JISALLE REYES                                    0501
A0101412210000016640738BACHILLER, ANNIE GRACE LANZON                            0501
A0301400820000012928542BELDORO, LORRAINE V.                                    10501
A0301400820000012928542OR BELDORO, RAMIL B.                                    20500
A5501400120000014838583SANTOCELDES, JOCELYN CABAR                               0502
A2401400180411555962001SILVA, VIOLETA P. OR                                    10502
A2401400180411555962001SILVA, MARCELINO                                        20500
A1201400150421252661001JOHN KWAN OR JENNY KWAN                                  0504
A1201400150000011415853MENDOZA, EMMA BONG-OG                                    0501
A1201400150421776673001CORREOS, GEROME DUA                                      0503
A5101400100000015857400GABULE, TRINIDAD BARUEL                                  0502
B0101403030000011253886ONG, BIANCA MARIEFER DBU IACA88 TRADING                  1601
B0101403030441029489001**********                                               1602
A0101403030000001302087**********                                               0501
A0101403320000014144771BERNAL, MARICRIS TROYO                                   0502
A0101403320471047588001RHINA JENEPER C. LIBIRAN DBU                            10502
A0101403320471047588001R-GENESIS DRUG STORE                                    20500
B0101403320000001647149UNIGOLD EVENTS AND PROMOTION MANAGEMENT                 11601
B0101403320000001647149INC.                                                    21600
A0101403320471478374006NELIA MORALES                                            0502
A0101406330472478374044ARMES SMITH B. ALVARADO                                  0501
A3801400170000013685839DEINLA, ROMEL DBU KASANGA                               10502
A3801400170000013685839CONSRUCTION AND                                         20500
A1601400170494057284001F2M TOWER                                                0502
A0101407430000011167901PANGILINAN, JOHN PAUL ROSARIO                            0501
A0101407430503674542001ANGELITO OPINION AND CARLOTA                            10505
A0101407430503674542001MONTANEZ                                                20500
B0101403580511015278001MTV INVESTMENT PROPERTIES HOLDINGS                      11605
B0101403580511015278001CORPORATION                                             21600
B0101403580511067513001CYBERAGE CONSTRUCTION CORP.                              1602
A0101408530000012953130FALCUNAYA, JAYSON GAYTOGA                                0501
A0101403450521559329001***********                                              0501
B0101403610000015242890MMG CONSTRUCTION AND DEVELOPMENT                        11603
B0101403610000015242890CORPORATION                                             21600
A2201400250000013859055CRUZ, MARIZA COCHON                                      0501
B2201400250000007719900SAN ROQUE PRIME PROPERTIES, INC                          1601
A2201400250000012982828EDERLINDA A. DEANG                                       0501
B0101404130000000001310NET PACIFIC INC.                                         1601
A0101407720000018139621LIM, KRISTINA BERNADETTE FLORES                          0501
A0101407720602316120001LUCIA CASTRO-FORES OR                                   10501
A0101407720602316120001MIGUEL EDGARDO FORES                                    20500
A0101412180000007360381TACDA, RETCHEL GALES                                     0502
B0101412180000007360490WS AND LANDIN, INC. DOING BUSINESS                       1610
B0101412180000008320089WELCOME WORLDWIDE INC.                                   1602
A0101409920000011312751**********                                               0501
A0101407690000017759647CRUZ, MAURICIO RUSELL CHUACHING                          0501
B0101411530000013194286FINASIA LAND DEVELOPMENT & CONSTRUCTION                 11603
B0101411530000013194286CORP.                                                   21600
A0101413570000005867430CYNTHIA LOPEZ                                            0502
A0101413570000005867430******************                                       0502
B0101406590662037318001NETWORK TWENTYONE, INC.                                  1602
A1301400210000017817342BORROMEO, KRIZIA JOY CANO                                0501
B1301400210000005040960ARMS-ABUNDANCE HOMES REALTY SALES,                       1601
A1301400210682245727001FALLORINA T. MANAHAN OR                                 10503
A1301400210682245727001 MANUEL P. MANAH                                        20500
A1301400210000002909362NEPOMUCENO, ANNABELLE TALUSAN                            0502
B1301400340683022873001MERFEL PLASTIC PRODUCTS                                  1602
B1301400340000000981922KLINAIRE SUPPLY METAL FABRICATION INC.                   1601
B1301400340683419314001HO, CHIN TENG                                            1606
A1301400340683542735002BIUNAS, REMEDIOS GREGORIO                                0502
A1301400500000007096571LUISITO R. MIRANDA                                       0502
B1301400500000005963517P.P.E.B. CORPORATION                                     1603
A0101408240000013171589REYES, JOEL GOMEZ                                        0501
B0101408240000010815186TOLLFOODS MFG. CORP.                                     1603
A0101408240711487311001RACHO, DESIDERIO OR TRANQUILINA                         10501
A0101408240711487311001OR ANNA OR ARTHUR                                       20500
B2801400100000004560003BENEFIC CORPORATION                                      1603
A4101400260000012864876DAYAO, ADELINE THERESE Q.                                0501
A4101400390000000500541ASIS, ABEL QUIERRA                                       0501
A4101400390000012157334SOLEDAD, JULIE ANNE LOTO                                 0501
A4101400390813071561001JANABAN, DAISY AZARCON                                   0501
A4101400390813329357002DESBARRO, JOHN ONG                                       0501
A4101400420000000710490DELA CRUZ, ELIZABETH GENIDO                              0501
A4101400550000006044691VILLADOLID, JOSE SANJORJO                                0501
A0601400230000015248781TORIO, LIEZL REGALA                                      0501
A0601400230000001687192MIRANDA, CHERYLL CELSO                                   0502
A0601400230891328611001ENGR. NELSON G. LINGAT                                   0501
