A0101406620273505335001MA. TERESITA L. ROCA OR                                 10502
A0101406620273505335001AGNES HILDA L. ROCA                                     20500
A3101400870000000957688REDADO, JEFTY MONTEALEGRE OR                            10501
A3101400870000000957688REDADO, CHERYL O                                        20500
A0101400440161478374144CELERINA M. MARASIGAN                                    0501
B0101412180604048764003EMPEROR'S 168 PALACE INC.                                1601
B0101400860011409861001**********                                               1603
B0101400860011427569001**********                                               1601
A0101400860011443455002**********                                               0505
A0101400860011626954001**********                                               0503
A0101400860011675338001**********                                               0505
A0101411370000010060656GOPALAKRISHNAN, ARUN BABU NMN                            0501
A0101411370000010060703NAIR, AJAY KESAVAN NMN                                   0501
A0101411370000010060792SUNDARAMOORTHY, DINESH NMN                               0501
A0101411370000010060850SORIANO, BARBY MARIE BACUD                               0501
A0101400150000002394892QUEJANO, GERARDO VALDORIA                                0502
A0101400150000005794432ABEJAR, KRISTINE PONFERRADA                              0502
B0101400150061045973001PACSPORTS PHILS., INC.                                   1610
A0101400150061227227001MELCHOR L. AUSTRIA                                       0502
A0101400150061236944093REBECCA P. MUYOT                                         0501
A0101400150061236944172MA. CHRISTINE Q. EJERCITO                                0501
A0101400150061420116001ANTERO M. SISON JR. OR MILAGROS                         10510
A0101400150061420116001SISON OR ARLENE                                         20500
A0101400600071457180001**********                                               0501
B0601400100081032338001SAINT EMILIANA ACADEMY OF EXCELLENCE,                   11601
B0601400100081032338001INC.                                                    21600
B0601400100000000142214SIMON AND STANDLEY INTERNATIONAL TRADING                11605
B0601400100000000142214& DEVT CO, INC.                                         21600
A0101400730000005317055********                                                 0501
B0101400730111045791001NECA GLOBAL WEIGHING SYSTEMS INC.                        1602
A0101413150000002299352******                                                   0501
A0101413150000000082620CAI HONGYU                                               0510
A0101401830141378455001MANUEL E. TEODORO                                        0503
A0101401830141546547001REATAZA, NELIA MORABE                                    0503
A0101401830141717247001SUMALAG, CHELO PATANAO                                   0502
B7201400170000003773626**********                                               1605
A0101400440000009896151BOLINQUIT, LEZEIL P.                                     0503
A0101407270000008409187PASCUAL, JEMAR COSTA                                     0502
A0301400530193268995001**********                                               0510
A0301400530193704187088MERCED, TERESITA S. OR                                  10501
A0301400530193704187088MERCED, PETER V.                                        20500
A0301400950000006080359REYSON, JOHN KIM D. OR                                  10505
A0301400950000006080359ABALLE, MEL CHITO G.                                    20500
A0301400950000008868955JOSUE, ANA DBU TINTA AT PRINTA                          10502
A0301400950000008868955PRINTING SERVICES                                       20500
A0101401380201038274001CHI-JO RESTO BAR                                         0502
B0101410720653026764001AMMARSONS CONST. SERVICES CORP                           1610
B0101410720653026764002AMMARSONS CONST. SERVICES CORP                           1610
A0101410720653693151001SAMBRANO, CARMELITA ASIS                                 0501
A3101400740224714475002BISCOCHO, GEMMA SANTOS OR                               10501
A3101400740224714475002BISCOCHO, BENEDICT                                      20500
A3101400870000000957940FARCON, JENYLYN REYES OR                                10501
A3101400870000000957940DE MATA, NENETTE                                        20500
A1001400190231520766187MONTEMOR, FE MARIE TELIN                                 0501
A1001400190000002170781RAMIREZ, RHESA CABAGO                                    0501
B1001400350233039881008EASTMIN FOOD CHAIN CORPORATION -                        11603
B1001400350233039881008GREENWICH                                               21600
B1001400350233040872001MARIA CRISTINA AGRO TRADING, INC.                        1602
A1001400350233478374026ANNABEL ESTOMO                                           0501
A1301400470000000472622VERA ABRERA BORROMEO                                     0502
A1301400470252529647002BANZON, MICHAEL PATRICK LIWAG                            0502
A0101406460000000182563TI, WINNIE ANN TAN                                       0502
B0101406620273039952001VERSATECH INTERNATIONAL, INC.                            1602
B0101406620273040722001ARDENT NETWORKS INC.                                     1602
B0101411110276046578001**********                                               1602
A0101411820000001356452PERECLEO D. MARTINEZ                                     0501
A0101412470000000520130FLORES, GINA CRUZ                                        0502
A0101400570281370653001POCHOLO OR AMANDA AUSTRIA                                0501
A0501400200292622096001BAUTISTA, SIMEON LAGASCA                                 0501
A2601400270000002677547MILA R. VALDEZ                                           0503
A2601400270000000561955MICHAEL T. DE GUZMAN OR                                 10505
A2601400270000000561955KAREN MAY B. DE GUZMAN                                  20500
A1101400120000005608259UY, MARISANLE LAGARDE                                    0501
A1101400120313717829001UY, WILSON S. OR                                        10510
A1101400120313717829001UY, CHIQUI RUTH                                         20500
A6601400120314630541002LIAD, ROSIE ORTIZ                                        0502
A2001400290315669458001LABRADOR, MICHELLE DESUSA                                0501
B2001400290315821200608**********                                               2005
A0101402350321526808001LUCITA R. TARRAY                                         0503
B0101402510341014767006SCHOOL OF ACCOUNTANCY AND MANAGEMENT                     1601
A0101402510341063757001LKTC GENERAL MERCHANDISING                               0501
A0101402510341063757001LKTC GENERAL MERCHANDISING                               0501
A0101402510341089234001LAXA, TERESITA CORTEZ                                    0501
A0101409050352645570003MYRNA P. CUASAY                                          0501
A0201400920000000048202SILO FOOD TRADING                                        0502
A0201400890376080642001GALANG, LORLIE PACURIBOT OR                             10505
A0201400890376080642001GALANG, GLENN AN                                        20500
A0101408370382592860001ANGELINE S. TINGA                                        0502
B0101402770391032924001HARRIS MEMORIAL COLLEGE, INC                             1605
A0101402770391220971001MIARAL, JOHNNY CAWALING                                  0501
A0101402770391355762045MARLON MOLANO                                            0502
A0101405490000005643421RUEL S. ORO                                              0502
B0101405490392043046001CONSPHALT MARKETING & DEVELOPMENT CORP.                  1603
A0101405490000005210320ANDRADE, CAESAR BANAYAG                                  0501
A0101405490392713110001PATRICIO D. SUNGA II                                     0502
A0101409180000003882417TAGORDA, TRYGVE N.                                       0501
A0101409210000001024213ESTRADA, JOHN ANTHONY SIASON                             0502
B0301400820000002106132J 777 AGRI MARKETING CORP.                               1605
A5501400120410636179018CHIU, VALENTIN & JULIA EILEEN                           10503
A5501400120410636179018& CHRISTIAN & CH                                        20500
A0101403030441522823001**********                                               0501
A0101403030441534805001**********                                               0502
A0101403320000000452362UY, AILEEN CRISTY LAO                                    0501
A0101406330000006943560GUILANG, BRANETTE AMOR                                  10501
A0101406330000006943560DELA CRUZ                                               20500
B0101406330472021511003ASSOCIATED WIRE CORP. OF THE PHILS.                      1605
A0101406330000000011781ARLENE DELA CRUZ                                         0501
A3801400170000005288133RABINO, FE FORTU                                         0501
B1401400110000000167446SOUTHERN PROCESSING CORPORATION                          1606
A1401400110492623582001DAEL, ANASTACIA YANORIA                                  0501
A0101403900501479392001LATIDO, LEO SALES                                        0501
A0101407430000005358727MARK ANTHONY R. SAYAROT                                  0515
A0101405940512618356001CHAN, CHRISTIANE SHERWIN D.                              0501
A0101411790000010065026PEREZ, FERDIMAR RAMOS                                    0501
B0101403450521011872001**********                                               1601
A0101403450521388106001**********                                               0501
B0101403450521821200608**********                                               2020
A0101403610531219488001REFORMA, MARILOU                                         0502
A0101403610531762081001MIRANDA, SUSAN ESPINILI                                  0501
A0101407720602294680001PEDREGOSA, GERARDO STA ANA                               0505
A0101407720602396678002ANTONIO, CRISTINA MEDINA-CUE                             0506
A0101407720602397271001OZAETA, MA. RAMONA PABLO                                 0501
B0101407720602569898001SHINES DERMTECH SOLUTIONS, CORP.                         1601
A0101409920650787629001GONZALES, LILLIBETH B  OR                               10502
A0101409920650787629001GONZALES, TEODORO KENT                                  20500
A0101413570656057648281PIERRE LUDOVICE                                          0501
A0101414120000004603161HUNT, KAREN JOYCE PAGALILAUAN                            0501
B1301400500000005963448NICOLINE.FREIGHT, INC.                                   1603
A1301400500684690412001DELOS SANTOS, DORIS P. OR                               10501
A1301400500684690412001DELOS SANTOS, FERDINAND                                 20500
B0101408240711026617001TOKYO HEALTHLINK, INC.                                   1603
A0101408240711226051002CHAN, ALFREDO OR CHAN, CEFERINA                          0501
A0101408240711381066001GLORIA A. OKADA                                          0502
A2801400100000000906109FLORES, RYAN BAJON OR PABICO,                           10501
A2801400100000000906109DIVINO VICTOR GUINTO                                    20500
B2801400100000006434988FLORES, MONALIZA DASIG                                   1601
A2801400100712507515001PINEDA, JENIPHER VISDA       OR                         10501
A2801400100712507515001PINEDA, RAUL PER                                        20500
A2801400100712551709001SANTOS, OSCAR CO                                         0510
A4101400260812629092001ELLEN C. BUCAO                                           0502
A4101400420814357382003REMULLA, GILDA VASQUEZ                                   0501
A4101400550000007583813ARCARDO, M DBU DRJ HAULING SERV                          0501
A0101412340000003438782JOCELYN B. REYES OR GEOFFREY                            10501
A0101412340000003438782JONATHAN B. REYES                                       20500
A0101412340000004360581MARIVEL B. DEODORES                                      0501
A0101404840000004565771TORRES, ANTO DBU TORRAB TRADING                          0501
A0101404840851478374012SAPORNO, ANNABELLE G.                                    0501
A0601400230000003015823ALURA, JIMMY SUENO                                      10502
A0601400230000003015823OR ALURA, MERLE                                         20500
