A0101412920000008813690CHAVEZ, ANTONIO BERMEJO                                  0503
A0101400440000000060335LYNDEE ANN D. SIA                                        0501
A0101400440161525001174RIZALYN V. GUNTANG                                       0502
B1001400480000004097132EAGLE EQUIPMENT COMPANY, INCORPORATED                    1602
B0101400150061010680001CONSORTIUM INDUSTRIES, INC.                              1603
A0101400150061227793003ANASTASIA Y. DY OR                                      10501
A0101400150061227793003FREDERICK Y. DY                                         20500
A0101400150061615508001LUY, ERNESTO TAN                                         0504
A0101400440000000821298DIOBET ERDIE I. DIOQUINO                                 0502
B0101400440000003766923RIVERMOUNT HOTEL & RESORT INC.                           1609
A0101402060351039707001GJD CARGO FREIGHT FORWARDING                            10502
A0101402060351039707001CO.                                                     20500
B0101408400394551947002W OFFICES, INC.                                          1603
B0501400170481258347003COLEGIO DE SAN JUAN DE LETRAN-                          11605
B0501400170481258347003MANAOAG INC.                                            21600
A0101400860000003571691**********                                               0502
B0101400860011346596001**********                                               1605
A0101400860011391441003**********                                               0503
A0101400860011396050002**********                                               0502
A0101400860011549648001**********                                               0505
A0101400860011688925001**********                                               0501
A0101401250021476357001CATHERINE GO UY                                          0502
A0101400150000009401285REYES, REYNALDO ANDACA                                   0501
B0101400150061010833001VELCA TRAVEL & TOURS, INC.                               1602
B0101400150061039174001UNITED CHRISTIAN BAPTIST MINISTRIES                      1602
A0101400150061039916130SINDULFO NEBRE OR                                       10501
A0101400150061039916130OFELIA NEBRE                                            20500
A0101400150061088084001ADZUARA, ELOISA TANECA                                   0501
B0101400150061226355001TAGANITO MINING CORP.                                    1610
A0101400150061365731001BASILISA R. ROBEA                                        0505
A0101400150061370228039LOURDES DEE                                              0501
A0101400150061508836001ERIC LIM LEE OR CHRISTINE LEE                            0502
A0101400150061571188001ANTONIO, ANGELYN DALDE                                   0501
B0101400600000001335740********                                                 1601
A0101405810072367597002WANG, GUO YANG                                           0502
A0101405810072410185001HOU, YUANYONG LIM                                        0506
B0601400100000000786790ANGELES FORTUNE HONGKONG SEAFOOD REST                    1610
B0601400100081042835001FORTUNE HONGKONG SEAFOOD RESTAURANT                     11610
B0601400100081042835001(NEWSTREET)                                             21600
A0601400100081253896001GALURA, RESTITUTO Y.                                     0503
A0601400100081551981001CHAN, SAMUEL ONG OR SOLINA OR                           10501
A0601400100081551981001QUIAMBAO, SHIRLE                                        20500
A0601400520000001120385BANAG, ESMERALDO PINEDA                                  0501
A0101414090000010560982FAJARDO, JONATHAN CERVANTES                              0501
A0101400730111375290001TOLENTINO, NERREN VIRAY                                  0506
A0101400730111520766063MICHAEL T. VILLAMAR                                      0506
A0101406040112093161001********                                                 0501
A0101406040112093169001********                                                 0501
A0101412630000004062133SAMONTE, GIL BRAGAIS                                     0501
A0101413310000010284669OBIDA, MARIA DONEL YABA                                  0502
B0101401830000000033592CARITAS SALVE CREDIT COOPERATIVE                        11606
B0101401830000000033592TAYUMAN (004)                                           21600
A0101401830141774509001CALARA, MARY JANE RAMIREZ                                0501
A7201400170000009673112lADLAD JR., JOSE BANA                                    0501
A5001400170000000170163LIM, WERNER W OR LIM, MA. ELENA                         10505
A5001400170000000170163M DBU PRIMUS VENTURE                                    20500
A5001400170000000214020ARNOCO, MARIETA DIAMANTE                                 0502
B0101412920160022330002S.M. CASTRO MANAGEMENT & CONSTRUCTION                   11602
B0101412920160022330002SERVICES                                                21600
A0101407270000007525353APODERADO, RALPH MANALOS                                 0502
B0101407270162046726001VALUE CARE HEALTH SYSTEMS, INC.                          1650
B0101407270162046726001VALUE CARE HEALTH SYSTEMS, INC.                          1650
A0101407270162366452001REGINA E. JAVIER                                         0502
A0101407270000000818439JONEL M. DE MESA                                         0501
B0301400530000000025378D' UNIBUENAS CORPORATION                                 1603
A0301400530000003087409GAVIOLA, MARCO RAY DELA CRUZ                             0501
B0301400660000003368325SAN JUAN TIBUNGCO PETRON GAS STATION                     1602
B0301400660000003368490ARBICON, INC.                                            1602
A0301400950000002252039**********                                               0501
B0101401380201038117001GIFT4U COMPANY                                           1601
B0101401380201045990001MORE FUN SOUVENIR CO.                                    1601
A0101410720000002284051BARTOLOME JR., ENRIQUE ROASA                             0502
B0101410720000007017336SUNWEALTH LAND DEVELOPMENT CORPORAT                      1605
A0101410720653580485001VALERA, STEPHANIE BEATRIZ OLIVA                         10502
A0101410720653580485001OR VALERA, MA. FLABETH                                  20500
A0101412500000005300645CARANDANG, PAULETTE FAJARDO                              0501
A3101400870225478374002BODORAYA, RUZIEL RAMOS                                   0501
A1001400350233478374001JUNIO, ROGELIA A.                                        0501
A1001400350233520728001CARLOS BENEDICT A. TAN OR                               10502
A1001400350233520728001SONIA B. TAN                                            20500
A1001400480000003357691ANG, ANDY MAN CHUNG CHANG                                0503
A1001400480000006270475ARELLANO, ALBERTO ANTONIO GRUET                          0501
A1001400480000010131696CABALUNA, ARNULFO VELARDE                                0503
A1001400480000010131743TAN, BLAIR MACASERO                                      0505
A1301400470000005394436SHELLA MARIE C. SANTOS                                   0501
A1901400290261247051001RUFINA LAYLO COMIA                                       0501
A1901400290261411419001TERESITA DIMAILIG PERCE                                  0502
A1901400290261568051001ELENITA MORCILLA ESPIRITU                                0502
B0101401670271039608001*******                                                  1601
A0101401670271186280001OFELIA O. CRUZ                                           0502
B0101406620273017284001ACCENT MICRO TECHNOLOGIES, INC.                          1605
A0101406620273038576001VENTURE 11 FOODS EXCHANGE                                0501
B0101406620000000194085MERCHANT EXPRESS E-CARD SERVICES INC.                    1601
B0101408660000007962272POLICARPIO, JENETTE SALVADOR                             1602
A0101410980000001154370CONCHITA C. TAN                                          0501
A0101400570281491482001TAN, EMMA ONG                                            0501
A0101400570281491697001LAXAMANA, EFREN CORTEZ                                   0501
A0801400160000002676771BARRANCO, MA GINETTE TAGAMTAM                            0501
B08014001603110189040013 TOPS TRADING                                           1610
A1101400120000000652642GERNALE, GERWIN CABAOBAO                                 0501
A1101400120000001547337ALDIANO, FLORDELUNA LATO                                 0501
A1101400120000009119762TOLIBAS ALLIYAH DIEZ DBU D AND                          10503
A1101400120000009119762T COMMERCIAL TRADING                                    20500
A1101400120000003981135CABRERA, VILMA GUIRON DBU                               10501
A1101400120000003981135POSING AGRIVET                                          20500
A1101400120000001547268JADOC, MA. ARIELYN PALOGAN                               0501
A1101400120000005608191CELSO, GORGIE CAROLA                                     0501
A6601400120000001065263AMANDE, BEATRIZ NALAZON                                  0501
A6601400120314047332001ST. ANTHONY FARM INSTITUTE OF                           10501
A6601400120314047332001TECHNOLOGY INC.                                         20500
A2001400290315053515001MASIKAP INDUSTRIAL SALES                                 0501
A3401400280000004958610HELLER, LUISA CASTRO                                     0502
A0101402350000005645109**********                                               0501
A0101402350321478374059BERNARDITA D. LOPEZ                                      0501
A0101402510341202843003**********                                               0501
A0101402510000011695095DE NULLY, CORAZON MORANTE                                0502
A0101402060351295053001VINCENT ADRIAN H. ERMITA                                 0501
A0201400760000002309611MARQUEZ, AGNES MAE                                       0501
A0201400760000004467330LIM, MARIA KARISSA GUANTERO                              0501
A0201400760374091750001******                                                   0510
A0201400920375034727001JJ & J CONSTRUCTION & GENERAL                           10505
A0201400920375034727001SUPPLY                                                  20500
A0201400920375561651001RUIZ, MARIDEL MANINGO                                    0505
A0201400890376595445001SUMALINOG, TRINIDAD ROMULO                               0501
B0101402930381014599001HEALTH SOLUTIONS CORPORATION                             1602
A0101402930381423656005EXCELSIS V. ANTOLIN                                      0501
A0101402930000007030991ARADO, JACQUELINE VALENZUELA                             0502
A0101408370382391637001DR. REGINA Y. SANTIAGO-AQUIAS                            0502
A0101408790000004983360EARLMON IGNACIO D. ELEGADO                               0502
B0101402770391009317001FIBERTEX CORPORATION                                     1605
A0101402770000007413829NORIEGA, THELMA VALERA                                   0502
A0101405490000000530932CABRILA, MARIA ARLENE CRISTAL                            0501
A0101405490000003178432MIRIAM D. PANO OR MELANIO B.                            10502
A0101405490000003178432PANO JR.                                                20500
A0101405490000004353031BARRAMEDA, ANITA VALIENTE                                0505
A0101405490392481659001MARITES Q. FACTURA                                       0501
A0101408400394031949001ROBIMIKO ENTERPRISES                                     0503
A0101408400000001614693ELICARL SALON                                            0502
A0101408400394454919001TAPULAO, MARIA MERCEDES OR                              10502
A0101408400394454919001TAPULAO, ALBERT                                         20500
A0101408400394548186001ANDRES, MA. ANNA PEFANCO                                 0501
A0101408950000010507165ABAYA-BLAS, ROSARIO SALUD                                0501
A0101408950000010111232PERALTA, JUDITH PEREZ                                    0501
B0101409180000009085172HOSTELERIA UNO INC.                                      1603
B0101409180000009085183SWOOP INC.                                               1603
A0101409210000012691395SURLA, QUENNIE C.                                       10501
A0101409210000012691395DBU JJJMQ TRADING                                       20500
A0301400820000007134949MIRO, ANECITO B.                                         0501
B5501400120000005492413SURALLAH PENVIL FAMILY COMMERCIAL,                       1605
B2401400180411017833002OCEAN CANNING CORPORATION                                1602
B2401400180411017908001LWC CYCLE MART, INC.                                     1602
B2401400180411038188088HAYAHAY MERCHANDISING                                    1610
A2401400180411513730001CUEVAS, ARWIN ROYCE LEYVA                                0502
A2401400180411616323001FERNANDEZ, JOSEPH SEVILLA OR                            10501
A2401400180411616323001HONG, LI QIN                                            20500
A2401400180411712618001ESTIMADA, JUDITH EBALLE                                  0501
A1201400150421299800001MELCHOR V. EPILI                                         0501
A0901400220432401541088**********                                               0501
B0101403030441303324001**********                                               1602
A0101412890000000007525JEFFERSON S CHONG OR MARYJANE S                         10503
A0101412890000000007525CHONG                                                   20500
A0101412890000009833667LIM JR., WILSON LAO                                      0501
B0101412890000003727844SULHEN & TJJ CORPORATION                                 1603
A0101403320000012692996JOEL M DE MESA                                           0502
A0101403320000012693051ARMIDA C. BARBOSA OR                                    10501
A0101403320000012693051OLIVA C. BARBOSA                                        20500
A0101403320000012691500PACIFICAR PLASTIC PRODUCT                                0501
B0101406330000000432922JEWELS STAINLESS FABRICATION CENTER                      1603
A0101406330472402384001NORMA SUELA OR LEOPOLDO SUELA                            0502
A0101406330472524697002ANNA LIZA D. MONREAL                                     0501
A0501400170481365467003CALLANTA, JOHN SORIANO                                   0505
A1901400160000007556809ELMA M MANGUIAT OR                                      10504
A1901400160000007556809ROMEL T MANGUIAT                                        20500
A1601400170000009954432POOT, JANELINE BURCE                                     0502
A0101407430000004687583CO, CATHERINE GUEVARRA                                   0502
A0101403580000000383631REYES, JORGE DBU MISSY ART CONS                          0502
A0101405940512522504001YU, JONATHAN MARC CHAM OR                               10502
A0101405940512522504001YU, HENRY LEE                                           20500
A0101408530000010580082PALLON, NOVA BENDANILLO                                  0502
B0101411400000004555799BF CORPORATION                                           1602
B0101403450521011662002SUNTRA INT'L TRADING CORPORATION                         1605
A0101403450521238598001**********                                               0501
A0101403450521240285002**********                                               0502
B0101404130601100130002CABILDO HOLDINGS, INC.                                   1601
B0101407720602027414001GAN ADVANCED OSSEOINTEGRATION CENTER                     1610
A0101407720602271723012ANTONIO MARLO P. NIEVERA                                 0503
A0101407720602371282002MAILA C. CHAN OR JACKSON U. DY                           0501
A0101407720602398588001GARCIA, JOSEFITA AZCONA                                  0502
B0101412180000001293049AUTO MAGIC CORPORATION                                   1602
A0101404260000000550127SALAZAR, CARL P DBU ACN OFFICE                          10503
A0101404260000000550127MART                                                    20500
A0101404260611478374075VIVENCIA HATOL                                           0501
A0101404260000003498511****                                                     0501
A0101413440000002125673MENDOZA, AUREA  DBU KAJJ CANTEE                          0501
A0101413570000001720241N. SARMIENTO TRADING                                     0502
A0101413570656057648238YANIE SANTOS                                             0501
A1301400210000007669289GONZALES, MARK OLIVER SANTIAGO                           0503
A1301400500684594780002CASTRO, RAYMUNDO OR                                     10502
A1301400500684594780002CASTRO, ROSEMARIE                                       20500
B2801400230000005253561PRAGMATIC DEVELOPMENT & CONSTRUCTION                    11605
B2801400230000005253561CORP.                                                   21600
A2801400230000001734761FERMIDA CONSTRUCTION SERVICES                           10501
A2801400230000001734761AND SUPPLIES                                            20500
A4101400260812469791001CAROL E. COMIA                                           0502
A4101400260812491679001JUN JUN E. COMIA                                         0505
A4101400420000002345273LEONICIA S. HERRERA                                      0501
A4101400550000010508533ABIERA, ANABELLA MONCAL                                  0502
A0101412340000004360490RONICA ARLENE M. EUGENIO                                 0501
A0101404840851520766088PERLINA CADA                                             0501
A0101404840851520766126ADELAIDA VILLANUEVA                                      0502
A0101406750000009471821DE LEON, MICHELLE TAGALAG                                0501
B0101406750000005608493SOUTHERN HELEVICLE TRADING                               1603
A0101405070000005619581SOLATORIO, RODIL DAYAG                                   0502
A0601400230000001062504BARLIN, MA CHRISTINA MENDOZA                             0501
B0601400230000006045234BLUE OVAL AUTOMOTIVE CORPORATION                         1603
