A0101409920000000022088ASUNCION, MARILYN JUANEZA                                0501
A0101406880000000027158ABELLO, JULIUS IVAN SAGMAKIN                             0502
A0201400920000000048199RVFIVE BUILDERS                                          0501
A0101411660000000109300WILFREDO M. PADILLA                                      0501
A0101407140000000149524MARCOS L. DY LIM                                         0501
A0601400360000000225181KILATES, GUALBERTO CABRERA                               0502
A0101407720000000245214LEORNA, IRENE CASUBUAN                                   0501
A5501400120000000265809BELANDRES, JESETTE FLOR LOSEO                            0501
A0101414120000000398892A.R.P. TRUCKING                                          0502
A0101414120000000398932R. ACOSTA ENTERPRISES                                    0502
A0101411790000000469585BUTCHAYO, JANE ENTERO                                    0501
A0101412470000000520209STA ROSA, PATRICIA MAE MARTINEZ                          0502
A2601400270000000561459PEDRO A. PAUAL                                           0503
A2601400270000000561886EDNA G. ALFARO                                           0502
A2601400270000000561988ROSALINDA S. ORDONEZ                                     0501
A0101413440000000570245BERMEJO IV, EDMUND UNATING                               0504
A0101411110000000604879RHODORA MONTESINO JIMENEZ                                0501
A0101414120000000648982LIGERALDE, SUSANA ODULIO                                 0501
A0101414120000000649047TEJA, LORENA DELA CRUZ                                   0501
A0101406330000000683363EDUARDO LEGARIO                                          0501
A0101400310000000851398ESTRELLA, FLORDELISA MALIT                               0501
A0101414120000000875834GCI TRANSPORT                                            0504
A1301400210000000915822VIVIAN N DE JESUS                                        0501
A0101410300000000919422ROQUE, EUGENIE AMANDA V.                                 0502
A0101401700000000979273**********                                               0501
A5001400170000001003432DE LUNA JR., ROMAN TE                                    0501
A0101412340000001017930SONIA MEDINA SIBI                                        0502
A0101407430000001028831AQUINO, LAMBERTO CONSOLACION                             0501
A0601400230000001062480YUVIENCO, IRINE CASTRO                                   0501
A0501400170000001072844DECANO, LORETO MERCADO                                   0501
A0101413310000001073603MANGAO, DAIANA ROSE MASALUNGA                            0505
A0101405070000001256473**********                                               0501
A3001400130000001271454ZORILLA, MARIE ROSE GONZAGA                              0501
A0101413440000001472960BUMATAY, EVA NEGRILLO                                    0501
A0101402770000001570612ANCHETA, DENNIS NINO ALFAR                               0501
A0101414120000001642688ALVA, JERRY AVILA                                        0501
A0101414120000001642713YADAO, AMANTE TANGONAN                                   0501
A0101400570000001681870CABALZA, DUNKIRK JOHN RIVERA                             0502
A0101400730000001697334******                                                   0502
A0101405070000001726212BUSCARIO, GENER CHAVEZ                                   0501
A2801400230000001734670NATANAUAN, ROMMEL MOVILLA                                0501
A0101414120000001751344DALISAY, VICTOR LUCIDO                                   0501
A1101400120000001920601MARTINEZ JR., RENATO BARRANTES                           0501
A0101411950000001925782SANNY O. BALANSAG                                        0502
A0101410560000001944009WAMBLEE'S MARKETING                                      0502
A0101406750000002040124MALABANAN, RONALYN BANAYO                                0501
A4101400550000002091050BUNDA, AMYSKY ALEGRE                                     0501
A3801400170000002302761NANCY M VINAS                                            0501
A0101400860011377986002**********                                               0503
A0101400860011393233002**********                                               0505
A0101400860011410778002**********                                               0510
A0101400860011412003001**********                                               0505
A0101400860011422264001**********                                               0502
A0101400860011449713001**********                                               0502
A0101400860011522544001**********                                               0503
A0101400860011615005001**********                                               0501
A0101401700041047694001**********                                               0501
A0101400150061150547001ANG, JONATHAN ONG                                        0502
A0101400150061329137001DESALES, ALEXANDER SEVILLE                               0501
A0101400150061541767001INGENIERO, SIEGFRED CANDELARIO                           0501
A0101400730111016957003NASSER, MA. THERESA                                      0501
A0101400730111386485162DINA F. ALIBIO                                           0502
A0101400730111412858010LOLITA MANALO                                            0503
A0101400730111478374161PRISCILA EXTREMADURA                                     0501
A0101401090171598675001LADY ANN B. CUEVAS                                       0501
A0101400310211157902001GERARDO L. GONZALEZ                                      0501
A0101400310211159875001ALFREDO OR ESTER FLORES                                  0510
A0101400310211161671001AMALIA JUSAY                                             0502
A0101400310211406377001DE LEON, BILLIE BOY LOPEZ                                0501
A3101400450223576401001GALLEGO, DHARIA CAJAYON                                  0502
A1001400190231022073001FARASIA EDUCATIONAL LIBRARY COR                          0502
A1001400190231273114001******************************                           0505
A1301400470252638757002CHRISTIAN VINCENT R. SALAZAR                             0501
A0101401670271479173002RESURRECCION, MARIA VERONICA G                           0504
A0101406620273471129001TAN, APRIL LYNN LEE                                      0501
A0101400570281186603001DR. RESTITUTO C. BUENVIAJE                               0502
A6601400120314094719001SANTIAGO, CYRIL OR CHERIMIN                              0503
A0101408820333040578001********                                                 0501
A0101408820333478374047MARILOU T. GO                                            0502
A0101402510341420133001BONGCAWIL, GHADA ZACARIAS                                0501
A0101409050352734290001*********                                                0504
A0101408370382590137002LUISA LOURDES A BENGZON                                  0501
A0101408370382795237001DR. LUIGI PIERRE S. SEGUNDO                              0501
A0101402770391028626002RED ELEPHANT TRADING                                     0502
A0101402770391029270001RCABAN-SAN ANTONIO DE PADUA                              0501
A0101409180397627793001CLAVEL, VIVIEN SILLA                                     0502
A5501400120410616229001ESCANO, CLAIRE BASAN                                     0502
A0101406330472372718001PRISCILA BADELLES                                        0502
A0101406330472478374052SHIELA D. LAPUENTE                                       0501
A0101406330472573166001ROSA Z. TIUTING                                          0501
A0101407430503370162009ELLANA, LEILANI                                          0501
A0101403580511150639001DAPHNE B. ROLDAN                                         0501
A0101408110515345484003JOVITA SALVADOR TINGZON                                  0501
A0101408530516506423002KEH, BALDWIN CONSTANTINE CHAN                            0501
A0101411400517394278008*******                                                  0502
A0101403450521238268001**********                                               0502
A0101407720602401487001MAE C. SYKI-YOUNG, MD                                    0504
A0101404260611478374075VIVENCIA HATOL                                           0501
A0101406590662095565001QUILILAN, MA. BELLE PANGANIBAN                           0502
A1301400210682243786002LIWAYWAY PAGDANGANAN                                     0501
A0101408240711402155001EMMANUEL OR LEE THERESE LLIGE                            0501
A0101408240711471960001LABITA, ERIC MACEDA                                      0501
A0101408240711471960001LABITA, ERIC MACEDA                                      0501
A2801400230713771317001NACIONAL, NATHANIEL ARZAGA                               0501
A4101400390813351182001LEE, YOUNG JIN                                           0503
A4101400420814478374074LINGAT, MARDE M.                                         0501
A4101400550815730873001LARGOSTA, AILEEN SALOMON                                 0501
A0101404840851478374012SAPORNO, ANNABELLE G.                                    0501
A0101404840851520766163JOCELYN ANONUEVO                                         0501
A0101406750852478374115CRISENCIA S BATACANDULO                                  0502
A0101405070861027133001WORLDLINKS CABLE WORKS                                   0502
A0101405070861201336001MIRIAM CECILIA M. QUEVENCO                               0502
A0101405070861478374004WINIEFRENDA O. PILANDE                                   0503
A0101406330000000011729GILBERT MILANA DBU GLOBE                                10503
A0101406330000000011752JONAH ROMANO DBU AW ENGINEERING                         10502
A0101409050000000999642CASTILLO, ASHRICK REIGN BELLO                           10501
A0101405070000001124350DESCALZO, MARIA KHARIN H. OR                            10501
A3101400160000001559213IAN GARY C DELA TORRE                                   10501
A1101400120000001920689EPIS, GRACE ACILDO OR                                   10502
A2201400250000001932270DIZON, DANILO GAMBOA DBU NEW                            10501
A0101400310000002659590GUAVEZ, LEO P DBU                                       10501
A3101400160000002711775MA ANGELA L GARCIA AND                                  10505
A0101401830141423591001ROGELIO T. RODRIGUEZ JR. AND                            10503
A0101407140213488687001CHUA, LORD LLOYD OR                                     10502
A3101400450223352819001FARAON, RIZALINA OR                                     10502
A0101412470278093258001M. BARCELON OR T. TANGSOC JR. &                         10502
A0101409050352603489001REGINA TIRONA OR JULIA TIRONA                           10501
A0101408370382416284001DR. BERNARDITA O. POLICARPIO OR                         10504
A0101406330472436213002SUSAN CAGUINGUIN OR DIOMEDES                            10503
A0101403580511152491001FERMIN ANTONIO S. FRANCISCO OR                          10504
A0101404680651527290001MARIO E. SORIANO OR                                     10510
A0101410720653362919003DE GUZMAN, CYNTHIA C.                                   10501
A0101410300663076796001VILLALON, MARIA TERESA N. OR                            10501
A4101400420814635620001CORPUZ, ELMER AGSALDA  OR                               10501
A0101405070861197518001RICARDO G. CHAN OR                                      10505
A0101405070861793236001ROGELIO M. MORANA DBU                                   10501
A0101406330000000011729MARITIME TRAINING CENTER                                20500
A0101406330000000011752SERVICES                                                20500
A0101409050000000999642OR AQUINO, MA. FLORIANNE                                20500
A0101405070000001124350DESCALZO, LUZVIMINDA H.                                 20500
A3101400160000001559213JACQUELINE A DELA TORRE                                 20500
A1101400120000001920689EPIS, ARMANDO TUGADO                                    20500
A2201400250000001932270DAN'S ELECTRONICS AND REF                               20500
A0101400310000002659590LEO GUAVEZ STEEL WORKS                                  20500
A3101400160000002711775LEONILO E ERCIA                                         20500
A0101401830141423591001ROBERTO F. RODRIGUEZ                                    20500
A0101407140213488687001CHUA, MARISSA                                           20500
A3101400450223352819001BELEN, RHODORA                                          20500
A0101412470278093258001C. NG OR M. NG                                          20500
A0101409050352603489001OR THEODORE TIRO                                        20500
A0101408370382416284001DR. REUBEN D. POLICARPIO                                20500
A0101406330472436213002CAGUINGUIN                                              20500
A0101403580511152491001MA. CARMELA M. FRANCISCO                                20500
A0101404680651527290001MARLON P. SORIANO                                       20500
A0101410720653362919003OR DE GUZMAN, RO                                        20500
A0101410300663076796001VILLALON, GREGORY C.                                    20500
A4101400420814635620001CORPUZ, AMELITA                                         20500
A0101405070861197518001OLIMPIA C. CHAN                                         20500
A0101405070861793236001ANAROM ENTERPRISE                                       20500
B0101410720000000029850NORDHOFF ENTERPRISES INCORPORATED                        1601
B0101412180000000075330THE REAL AMERICAN DOUGHNUT COMPANY,                      1605
B0101403450000000135555LE FRANK INGREDIENTS PHILS. INC.                         1605
B0101400440000000337740ERWIN AGUSTIN AND DAIZY SACAGUING                        1602
B0101414120000000399133Q CLEAN LIVING PHILS. CORP.                              1602
B0101414120000000399140AL3 HOLDINGS CORPORATION                                 1602
B0101414120000000399140AL3 HOLDINGS CORPORATION                                 1602
B0101413730000000469734L.Y.S. HARDWARE & INDUSTRIAL SALES INC.                  1606
B0101413020000000880513GEN ONE FIVE ONE CAR EXCHANGE                            1601
B0101405070000001161324KEANO MANPOWER AGENCY INC.                               1601
B0301400820000001185757SUNGA HOSPITAL                                           1605
B0101410690000001284395PANSOL TRADING                                           1601
B0101402770000001571580LEADER GARMENTS CORPORATION                              1601
B0101400860011475106001**********                                               1601
B0101400860011515297002**********                                               1602
B0601400100081738425001ENGRANDE ENTERTAINMENT INC.                              1601
B0101401830141205618001ST. JOSEPH SCHOOL OF PANDACAN, INC.                      1610
B0101400310211035207001JRD MANUFACTURING CORPORATION                            1602
B1001400190231033214002RD CASH PADALA, INC.- CAGAYAN                            1603
B1001400190231038390001MC SHIPPING CORPORATION                                  1602
B1001400190231273114002****************                                         1601
B0101406620273033986001F. YAP SECURITIES, INC.                                  1602
B0101411820277048023001FORGEMS PLUS TECHNOLOGIES CORPORATION                    1605
B0101409050352047267001BOW & WOW, INC.                                          1603
B0101403320471035758001***                                                      1603
B0101406330472046636001ENERTECH SYSTEMS INDUSTRIES, INC.                        1610
B0101403580511005199002ACE FOODS, INC.                                          1601
B0101403580511016440001SUGI MANAGEMENT CORPORATION                              1610
B0101406880513027072001COLUMBIAN AUTO CAR CORPORATION                           1605
B0101406880513038002001JEFCON INCORPORATED                                      1602
B0101406880513155494001G & O  REALTY AND DEVELOPMENT CORP.                      1602
B0101406880513281235002LUCKY MONEY LENDING CO., INC.                            1603
B0101403450521011662002SUNTRA INT'L TRADING CO., LTD.                           1602
B0101403450521011936001**********                                               1605
B0101410300663045332001ECCRUZ CORPORATION                                       1601
B4101400390813019416002STI COLLEGE-ROSARIO, CAVITE, INC.                        1602
B0101404840851009292001GEMSTAR MARKETING                                        1605
B0101404840851013980002VIC IMPERIAL APPLIANCE CORP.                             1601
B0101405070861020451001SOUTHEAST TRAVEL CORPORATION                             1604
B0101405070861022087001AIR SPACE TRAVEL AND TOURS INC.                          1605
B0101405070861667163001ANG SARILING ATIN CULINARY HERITAGE                      1601
B0101401830000000033569CARITAS SALVE CREDIT COOPERATIVE                        11603
B0101401090000000772418LLANES, MILA DELIA M. AND MOLO, JOCELYN                 11601
B0101401830141008845001PANDACAN TRANSPORT SERVICE & MULTI-                     11603
B1301400470252045811001E.CAKELAND FOOD AND PASTRIES,                           11610
B0101403320471031382001ORAL CONFIDENCE ORTHO-DENTAL                            11604
B0101406330472027929001STO. TOMAS DE VILLANUEVA PAROCHIAL                      11602
B0101401830000000033569(CALOOCAN)                                              21600
B0101401090000000772418M.                                                      21600
B0101401830141008845001PURPOSE COOP.                                           21600
B1301400470252045811001INC.                                                    21600
B0101403320471031382001CLINIC                                                  21600
B0101406330472027929001SCHOOL                                                  21600
