F4101400260000001673423POTESTADES, MARY GRACE LAJO                              2502CKO
F0101400310211029980001ACTIVESIGNS INTERNATIONAL CORP.                          2605CKR
F0301400820409051644001DIWACO                                                   2601CKR
F0301400820409051644002DIWACO                                                   2601CKR
F0101406880513430685001BEVERLY HILLS MEDICAL GROUP, INC.                        2610CKO
