F3101400450223028412001CERDA MATERNITY CLINIC                                   2502CKO
F0101401670271613655001LIM, TERESA KATIGBAK                                     2505CKO
F0101406590000000905613LA VISTA ASSOCIATION, INC.                               2603CKR
F0101408240711029914001PADI FAMILIA CORPORATION                                 2602CKO
F4101400260812044833001RAJAN TRUCK MOVERS, INC.                                 2603CKO
