B0101403450521821100608**********                                               2030
B1001400190231821100608**********                                               2001
A0101412210399094817010PATRICK S. GARCIA                                        0501
B0101413440655821200608**********                                               2001
B0401400140241821200608**********                                               2001
A0301400950000000566796ILAGAN, LEO AMADO OR                                    10501
A0301400950000000566796ILAGAN, CECILLE                                         20500
A0101400860000003571715**********                                               0502
A0101401250000002131806JESSE A. PERICO II                                       0501
A0101401250021453364001TORREJOS, ALFREDO OR                                    10501
A0101401250021453364001RYAN ALVIN OR CARMEN                                    20500
A0101411370022774052001MARISSA M. RAMIREZ                                       0503
A0101411370022790042001HELEN L. CO OR MICHEL S. CO                              0501
A0101400150000006551135LOPA, MARIA CRISTINA DE LEON                             0502
A0101400150061180763001YU KIM TENG, KARL C.                                     0501
A0101400150061337098176ISABEL U. LIM                                            0502
A0101400150061746999001********                                                 0503
A0101400600000002335764********                                                 0502
B0101400600071233702001FE ZAMORA                                                1601
A0601400100081639196001DIMALANTA, ANALYN TEGIO                                  0502
B0101413730000000469734L.Y.S. HARDWARE & INDUSTRIAL SALES INC.                  1610
A0101401960121240766001*********                                                0501
A0101401960121306015001***********                                              0501
A0101412630000002040471PANGCOGA, SAMSIAH MACARDI                                0501
B0101401830000000033592CARITAS SALVE CREDIT COOPERATIVE                        11605
B0101401830000000033592TAYUMAN (004)                                           21600
A0101401830141378455001MANUEL E. TEODORO                                        0502
A0101400440000005393671BRIGIDA SANCHEZ                                          0501
A0101400440161525001006EUFELYN J. DOYDORA                                       0501
A0101400440161574323001MARISSA P. MAGPAYO                                       0501
A0101407270000004915931LIM, EDUARDO IGNO                                        0502
B0101407270162038101001BIRDS INTERNATIONAL, INC.                                1603
B0101407270162062905001REXXIN PLASTIC PRODUCTS INC.                             1601
A0101407270162721922001REYNALDO J. DEL POSO                                     0501
B0101401090171007908001PERPETUAL SUCCOR HOSPITAL &                             11606
B0101401090171007908001MATERNITY, INC.                                         21600
A0101401090000001618782KRYZLER FOOD STATION                                     0502
A0101401090171200324001PEREZ, MONALISA C.                                       0503
A0301400530000006239443MATIONG, MESANI MEEKLOS ALAVA                            0501
A0301400660000001020102RODRIGUEZ, DARREN ALAMPAYAN                              0506
B0301400660194045813088SUMMIT WORLD DAVAO, INC.                                 1604
B0301400660000003362052DAVAO DYNAMIC INDUSTRIES CORPORATIO                      1602
A0301400790000002301308AQUINO, ALLAN E. OR                                     10503
A0301400790000002301308AQUINO, DENNIS E                                        20500
A0301400950000002115537DAVIS, JEFF RAY DELA PENA                                0503
A0101410720000000882793FALCON, EJAY LASAP                                       0501
A0101410720653380605002DR. ANNE MARIE REALISTA PE                              10504
A0101410720653380605002AGUIRRE-ENECO                                           20500
A0101413600000000206744KENNY SIY CHEE                                           0501
A0101413600000005794643EFREN A. BALINAS DBU FREDEME                            10501
A0101413600000005794643GENERAL MERCHANDISE                                     20500
A3101400160000002761960GABRIEL, MARIA REGINA CASTRO                             0504
A3101400450223028468001NEW ARMSTRONG SECURITY AGENCY                            0502
B3101400450223037708001RD CASH PADALA, INC.                                     1603
B3101400740000000013889IM DIGITAL PHIL INC.                                     1605
A3101400740224087806001NECESARIO, EDUARDO PASTOR                                0501
A3101400870000007744109GAREJO, ALVIR JOSEPH  LUNA                               0502
A3101400870225478374002BODORAYA, RUZIEL RAMOS                                   0501
B1001400190231032463001PROGRESS BICYCLE CORPORATION                             1601
A1001400350000000922412FHEDZ VENTURES                                           0503
A1001400480000003357748DEDEL, PATRICK JUNE YEMA                                 0501
B1301400470000003270113OBRIGADO LENDING INVESTOR, INC.                          1601
A1301400470252478374030JERICA P. MATAMMU                                        0503
A1301400470252482273001DRA. LEONOR J. DIZON                                     0501
A0101408660000005109773RICAFORT, JESUS MARTIN JOSE                              0502
A0101408660274547172001BELMES, MARIBEL DEPAUDHON                                0501
A0101411110000008065183SUAREZ, RODIM MENDOZA                                    0501
B0101412470000003847405NEW LA UNION PLYWOOD TRADING CENTER                     11606
B0101412470000003847405INC.                                                    21600
A0101411240000001026851MARQUEZ, YOLLY MONTESA                                   0501
B2601400270000002677376KI WATER REFILLING STATION & TECHNOLOGY                 11601
B2601400270000002677376SYSTEM                                                  21600
A1101400120000001920678PALMA, JHOWIEN ROYO                                      0501
A1101400120313478374004ALBESA, JONALYN D.                                       0501
A6601400120000000060751CARPIO, WILBERT DIANO DBU CTC                           10502
A6601400120000000060751CONSTRUCTION & SUPPLY                                   20500
A6601400120314612856001FRANZUELA, SARAH S.                                      0505
A6601400120000003642744FLORIANE UY OR CHRISTIAN                                10501
A6601400120000003642744EMMANUEL UY                                             20500
A3401400280000004958610HELLER, LUISA CASTRO                                     0501
A3401400280000000784692VISTA, LECEL CERILO                                      0502
A0101402350000001474266MARY ROSE P. VIDALLON                                    0501
A0101402510341283268001LEONORA S. VERZOSA                                       0501
B0101409050352031160001CAPITAL INDUSTRIES, INC.                                 1610
A0201400920000002804504BARENG, NATHALYN C.                                      0503
B0201400890376047710001S & S INDUSTRIAL CORPORATION                             1603
A0201400890000000027990MULLEY, AIRIZA ACIDO                                     0501
A0101408790000005954083CULLADO, MA. CORALYN SAGRADO                             0501
A0101411660000000109311**********                                               0501
A0101411660000005323922**********                                               0502
A0101411660000002309491GONZALES, LONA ROSA MADARA                               0501
A0101402770000000023667MARQUEZ, IDA RAZELYNN ARAO                               0501
B0101402770391009461001CNRG INC.                                                1601
A0101408400394026124001GYSERHEAD PURIFIED WATER                                 0501
B0101408400000003120521GILIGAN'S ISLAND BAGUIO, INC.                            1602
A0101408400394160353001JARDIOLIN, JAMES HILADO                                  0505
A0101408400394162700001FLORES, CATHERINE DOMINGO                                0502
A0101408400394412453001TAYAG JR., DANILO OCAMPO  OR                            10501
A0101408400394412453001TAYAG, DEODATO O                                        20500
A0101408400394557338001PAULE, REYNALD BELTRAN                                   0502
A0101408950396294877002SINGSON, REBECCA BAUTISTA                                0502
A0101409180000003780443MORALES, JENNIFER                                        0502
A0101409180000001694328CHUA, OLIVER GO AND                                     10501
A0101409180000001694328CHUA, STEPHANIE TAN                                     20500
A0101409180000004409905HERNANDEZ, HAZEL GRACE VALIN                             0501
A5501400120000002348289DARAUG, VANESSA JOY DELMORO                              0501
B5501400120410040763001JAO TAY MARKETING INCORPORATED                           1601
A5501400120000006976596FIGUEROA, RONELLYN BILLONES DBU                          0510
A5501400120000000046922CHIU, VALENTIN & JULIA EILEEN                           10505
A5501400120000000046922CHRISTIAN & CHRI                                        20500
A2401400180411496346001OCIEL, MARIA MAGDALINA S. OR                            10504
A2401400180411496346001OCIEL, RANDY L.                                         20500
B1201400150421023348006PINES CITY BAPTIST CHURCH, INC                           1602
A0101403030000001302076TUNGOL, MARJORIE CAJIMAT OR                             10503
A0101403030000001302076TUNGOL SR., RONALDO M                                   20500
B0101403030000005944705ORIENT LLAMA EXPORT TRADING,INC.                         1603
A0101403030441241013001**********                                               0506
A0101403320000001803481GUZMAN, MARLON ONG                                       0502
B0101403320471008859001NEW LITE LUMBER & CONSTRUCTION                          11602
B0101403320471008859001SUPPLY                                                  21600
B0101403320471027450002********                                                 1601
A0101403320000000067565DE CASTRO, RENIEL DBU                                   10502
A0101403320000000067565E+DC ARQUITECTOS                                        20500
A0101403320471325110002EDUARDO BORLAGDAN                                        0504
B0101412760000007822075DOMINGO JR., BENITO JT DBU THE DIGITAL                  11603
B0101412760000007822075PROJECT PRINTING                                        21600
A1401400110000005526796PALACIO, GERLIE NAVA                                     0502
B1401400110492031376001LUCENA WHEELER ENTERPRISE INC.                           1601
A1401400110492385961002CARCIDO, LIGAYA CU                                       0501
A0101408530000002260173*****************                                        0501
B0101403450521011924002PANTRONICS INTERNATIONAL CORP.                           1604
A0101403450521390447001**********                                               0502
B0101410690000000001849COEM SALES & SUPPLIES INC.                               1602
A0101404130601450094003LORQUEL PASCUAL OR ANNIE                                10502
A0101404130601450094003PASCUAL                                                 20500
A0101407720602340512003EVELYN F. TADENA                                         0501
A0101407720000005100172ESTRELLA, RICO DE CASTRO OR                             10502
A0101407720000005100172CANLAS-ESTRELLA, KATRINA                                20500
A0101404260000001725297KOREAN LANGUAGE CULTURE (KLC) T                          0503
A0101404260611478374085ROSALINA SUMILE                                          0501
A0101404260611478374119LEA B. DAGANTE                                           0501
A0101413440000002846320DIVINAGRACIA, CARMELA OR                                10501
A0101413440000002846320DIVINAGRACIA, MA                                        20500
A0101413440000001472960BUMATAY, EVA NEGRILLO                                    0502
B0101413440000002691643KASAPI-KAAGAPAY SA PANGKABUHAYAN LE                      1610
A1301400210000000540765LHARA DG MERCADO                                         0502
A1301400340683453552002NATIVIDAD, EDUARDO PACHECO                               0502
A1301400340683456739001LAZATIN JR., EDUARDO NIONES                              0502
A1301400340000000980201ROMASANTA, ABEGAIL LLORENTE                              0502
B0101408240000000005603ALFONSO GAS & FUEL STATION, INC.                         1610
A0101408240000003501362RICAFRENTE, MA. ANALYN DELFIN                            0503
A2801400100000005494248VILLANUEVA, BERNADET DBU ANB                            10505
A2801400100000005494248ENTERPRISES                                             20500
B2801400230000001580296DEL ROS AMUSEMENT ENTERPRISES, INC.                      1601
A4101400260812660781001AUBREY E. REQUESTO                                       0501
A4101400260812689745001FLORES, AILEEN SINGSON                                   0502
A4101400390000001404266SOLAS, SAMARITAN CATARATA                                0502
A4101400390000000048611JARANILLA - DE JESUS, RIZALIE A                          0502
A4101400420814506413001IBIAS, JOSEPHINE OCAMPO OR                              10501
A4101400420814506413001IBIAS, SEGISMUND                                        20500
A4101400420814600531001GRAGEDA, JOSEPH BRIAN SANTOS                             0502
A4101400420000000710223ROMERO, MARICRIS BAUTISTA                                0501
B4101400550815821200608**********                                               2001
A0101412340000001017816MARANAN, JENNIFER GONZALES                               0501
A0101404840851520766126ADELAIDA VILLANUEVA                                      0501
A0101404840851527799001WOODS III, SAMUEL CARGULLO                               0502
A0101406750000000500187TIMBOL, MARIA CRISTINE GERARD R                          0501
A0101406750000006303431GUZMAN, VENNICK EM ROSE ACUESTA                          0501
A0101405070861090860001DELOSO, LOLITA REBECCA                                   0501
A0101413860862062881001BAUTISTA, LAIZA CUREG DBU RCBM                          10501
A0101413860862062881001MOTOR REPAIR SHOP                                       20500
A0601400230000000186867SAPNU, D DBU D.L.S.J GLASS ALUM                          0502
