F0101400150000000052797CONTROTEK SOLUTIONS, INC.                                2602CKR
F1001400190231274503002YU, JERRY OR YU, JULIE                                   2605CKR
F0101405490392411548001CHARIT0 I. UMALI OR                                     12504CKO
F0101405490392411548001ANTONIO M. UMALI                                        22500CKO
F0101406880513026861001BONIFACIO WEST DEVELOPMENT CORPORATION                   2604CKO
