B0101407270162821100608**********                                               2010
B0101402510341821100608**********                                               2005
A0101400440000004901564DOVIE T. JERMIA                                          0502
A0101414120000004603121FLYRYNE TRAVEL AND TOURS                                 0501
A0101410560000003562149**********                                               0502
A0101400730000000833396CARBONELL, LEVINA IBALE                                  0503
B0101400730111033529001THE REMCO TRANSPORT, INC                                 1605
A0101400730111203514058MARY ANNE CUARTERO                                       0501
A0101400730111386485175IVANHOE O. MARASIGAN                                     0502
A3001400130000000931333K AND S ENTERPRISES                                      0501
A3001400130230085179001VALENCIA, EDMUND QUINTO                                  0501
A0101400860011610224001**********                                               0510
A0101400150000003141260ELIAS VINETA, JOSE MARIA OR                             10502
A0101400150000003141260MITJANA, ROSA MARIA                                     20500
B0101400150000004090220RIVER SIDE STUDIOS MANILA, INC.                          1605
B0101400150000001708618PRODIGYMEDIA PRODUCTIONS INC.                            1605
A0101400150061079020001EMBRADOR, RAZELLI ABITRIA                                0501
A0101400150061226229001MA. AIDA B. ARZADON                                      0502
A0101400150061226702002**********                                               0502
A0101400150061226989001EDUARDO E. CAEG OR                                      10501
A0101400150061226989001BESSIE C. CAEG                                          20500
A0101400150061229009001MANGLAPUS III, RAUL JAY OR                              10501
A0101400150061229009001MANGLAPUS, JENNIFER JANE                                20500
A0101400150061406534002GARCIA JR., ANTONIO RIZAL M. OR                         10502
A0101400150061406534002GARCIA, ANNA LIZA                                       20500
A0101400600000002335651PAMINTUAN, DAHLINE THURS                                 0503
A0101414090000003314901CATCHILLAR, SHARYL DIANA M OR                           10505
A0101414090000003314901PEMRIK, JERICHO                                         20500
A0101410850000002356783NONES, EMMA RIVERA OR NONES,                            10502
A0101410850000002356783SAMUEL BERMUDEZ                                         20500
A0101410850000003101877MONTEMAYOR, REYNALDO SAPLAN DBU                         10501
A0101410850000003101877RSM TRUCKING                                            20500
B0101406040000000014860GREATWIN VENTURE ASSETS CORPORATION                      1601
A0101401960121238763003**********                                               0501
A0101413150000002299290******                                                   0505
A0101412630000001823274TURINGAN, MARIA ELENA LASAFIN                            0503
B7201400170000003773131**********                                               1602
A0101400440161030637001AREMCI BUILDERS                                          0505
A0101400440000001439629VISITACION N. ORDANEZA                                   0501
A0101400440161045289001RAPTURE CAFE' BAR                                        0502
A0101400440161478374144CELERINA M. MARASIGAN                                    0501
A0101407270000006265329DASWANI, MEENA T.                                        0501
A0301400790000001776207CELI, MARIA ESTELA MARFORI                               0502
A0101413020000000056722CASTELL, CHRISTOPHER M. OR                              10501
A0101413020000000056722CASTELL, MARIA M                                        20500
A3101400160000006267536ESPINOSA, GLAIZA JOY LIMPIN                              0501
A3101400160221220343001LAARNI A. CALAPATIA                                      0502
A3101400160221478374055JOSEPHINE C DEMAFELIZ                                    0501
A3101400450223028468001NEW ARMSTRONG SECURITY AGENCY                            0502
A1001400190231478374041MARIVIC D. MARFORI                                       0501
A1001400190231520766125YANA, MAYFLOR DAGOC                                      0501
A1001400480000000606831VALDEHUEZA, KENT VAN OCERO OR                           10504
A1001400480000000606831OCERO, ALGENE ALEJAN                                    20500
A1301400470252478374030JERICA P. MATAMMU                                        0503
A1301400760253087654001CATHERINE F SANVICENTE OR                               10505
A1301400760253087654001VINCENT PAUL P SANVICENTE                               20500
A0101401670271794897001SIAN, VENERANDA PEDRALVEZ                                0501
A0101406460272388652001CHUA, ANGEL TAN                                          0501
B0101406620273018580001DIAMOND OFFICE FURNITURE INC.                            1602
B0101406620273024061001MOUNTAINGATE GOLF SERVICES, INC.                         1605
B0101406620000000194143MATCH CONTRACT FURNITURE, INC.                           1602
A0101406620273214342001BELLA, ROLAND REX BARTOLOME OR                          10501
A0101406620273214342001BELLA, EVANGELINE                                       20500
A0101408660000005109773RICAFORT, JESUS MARTIN JOSE                              0502
A1101400120000003981088MORALLOS, ELIZABETH BIANES                               0501
A1101400120000003981102EVARDONE IV, REYNALIS ORGAS                              0501
A1101400120313478374094AGAPITO, ROSA P.                                         0502
A0101402350321085678001GUZMAN, ESTRELLA E. OR                                  10502
A0101402350321085678001GUZMAN, NOEL M.                                         20500
B0101405650322024533001TUGADE ASSOCIATES, INC.                                  1602
A0101405650322412858004GANDOL, ARSENIA BALANE                                   0502
A0101405650000003893512MANALAYSAY, MARY ANN DELA RAMA                           0501
B0101402510341821200608**********                                               2005
A0101409050000003536510FRANCIS SALAZAR                                          0501
A0201400760000000989706SORIANO, ADRIAN IBAY                                     0502
B0201400760000005156510GO, KEN SAMUEL ECHAVEZ                                   1601
B0201400760374026433001TSUNEISHI HEAVY INDUSTRIES (CEBU), INC.                  1610
B0201400760374035603001GRAND HOLIDAYS, INC.                                     1602
B02014007603740550530018990 MINDANAO HOUSING DEVELOPMENT CORP.                 11620
B0201400760374055053001(DISBURSING)                                            21600
A0201400760000002047321HELPING HANDS PRODUCTION                                 0502
B0201400760000001612948LMDC CORP.                                               1605
B0201400760000005156452REAL IMAGINATION HOME & GARDEN                          11602
B0201400760000005156452FURNISHINGS                                             21600
B0201400760374716303001ETLC                                                     1602
B0201400890376042888008NEW CITY MARKETING                                       1602
A0201401020000000055952DANO, JOSIE DANAS                                        0503
B0101408370382007364001HUSKY PLASTICS CORPORATION                               1606
A0101408370382076283001BLESILDA E. CONCEPCION                                   0503
A0101408370382398259001DR. MARIA LIZA ASUNCION M. CRUZ                          0503
B0101408790383047956001NOVARAD ASIA PACIFIC CORPORATION                         1603
A0101411660000003580341BESSIE L VALENZUELA                                      0502
A0101402770000003488073PEQUIT, LUCITA RADA                                      0501
A0101405490000000530896SAN JUAN, MARK JOMILO MARZO                              0501
A0101405490000001092717ROSLINA M. AMEROL DBU AMEMAR                            10502
A0101405490000001092717GENERAL MERCHAND                                        20500
A0101405490392177005001DOMINGA P. BUENAOBRA                                     0501
A0101408400394037647001FRIAS WATER STATION                                      0502
A0101408400000001981586BMFV BEAUTY SALON                                        0502
A0101408400394089542001CRYSTAL FRIAS LAUNDRY SERVICES                           0502
A0101408400394473443001VITALES, MARIBEL F                                      10502
A0101408400394473443001VITALES, MISAEL                                         20500
A0101408400394639219001ROMERO, FRANCISCO GABION                                 0501
A0101408950000003439387AGUSTIN C. LAZARO                                        0501
B0101408950000000036815ROTARY CLUB OF MAKATI DASMARINAS                         1601
B0101412210000003448731AIKKAITO CORP.                                           1601
A2401400180411478374042JOYCE R. GALLEON                                         0501
A1201400150421789029002CO, JOHN SALVADOR AND                                   10503
A1201400150421789029002CORREOS, GEROME                                         20500
A0101403030000001302087**********                                               0501
A0101412890000002324221SANTIAGO, GENEROSO SERRATO                               0501
B0101403320471035191001ST. GABRIEL CREDIT COOPERATIVE                           1601
A0101403320471389179001CEZAR WAN UY                                             0501
B0101406330000000432897MITC EMPLOYMENT AGENCY INC.                              1602
B0101406330000000432922JEWELS STAINLESS FABRICATION CENTER                      1602
A0101406330472367240002PERCIVAL VINCENT P. TAN OR                              10502
A0101406330472367240002VENUS M. TAN                                            20500
B0101406330472667877001FOREVERSPORTS, INC.                                      1605
A1901400160491244484001IRENE H BERBA OR                                        10505
A1901400160491244484001CARLOS R BERBA                                          20500
A1401400110492041611001BLUECLICKER COMPUTER CENTER                              0505
B1401400110492043842001PUGAD LAWIN SA LUNGSOD LUCENA                            1601
A1601400170000000497423MENCHU R. BUADO                                          0501
A0701400260000002339095BERNARDO JR., JAIME MIRALLES OR                         10502
A0701400260000002339095BERNARDO, CYRIL                                         20500
B0101407430503034519001D.G.X. PHILS., INC.                                      1602
A0101407430503434075002ISMAEL V. DE LEON OR                                    10502
A0101407430503434075002ADELINA L. DE LEON                                      20500
A0101407430503496995001PAGLICAWAN, JASON DE LARA                                0501
A0101406880513016429002CHADA ENTERPRISES                                        0501
A0101406880513565496019EMPLOYEES OF ACTIVE REALTY DEVE                          0501
B0101408110000001199208INTERNATIONAL SPECIALTY APPAREL INC                      1603
B0101403450000002975677SAFEWAY CUSTOMS BROKERAGE, INC.                          1602
A2201400250561478374010ZENAIDA L. REYES                                        10501
A2201400250561478374010MEMBERS OF NATASHA                                      20500
A0101407720000003886944DELA CRUZ, CHERADE LORAINE PALE                          0501
A0101407720000002727780NIEVERA, MARIA CARMINA PINEDA                            0503
B0101407720602005906001ASSOCIATED MEDICAL & CLINICAL                           11610
B0101407720602005906001SERVICES, INC.                                          21600
A0101407720602364154001FRANCISCO, DANILO G., M.D.                               0505
A0101404260000001725220JAVINES, MA LILIBETH FILOSOFO                            0501
B0101404260611038904001REYESHEN PRINT AND OFFICE                               11601
B0101404260611038904001SUPPLIES                                                21600
A0101413990000004511179DESALISA, EDRIAN YAP                                     0501
B1301400210000000023503JELLI'S GAS STATION                                      1602
B1301400210000005040920SENORA CARMEN RESTO GARDEN                               1610
A1301400500000002063992JOSHUA & JAMES CONSTRUCTION                              0502
B1301400500684682032001GONZALES JR., BIENVENIDO S. OR GONZALES,                11601
B1301400500684682032001JACQUILINE                                              21600
B0101408240711008252001PETROLIFT CLASSED CARRIERS, INC.                         1610
A2801400100000002253630IM, JUNHYUK                                              0501
A4101400260812469791001CAROL E. COMIA                                           0502
A4101400390000001404266SOLAS, SAMARITAN CATARATA                                0502
A4101400390813775566002TUAZON, MARIO CALDERON                                   0502
A4101400550000002091050BUNDA, AMYSKY ALEGRE                                     0501
A4101400550815047805001HIMOC, JOSELITO APOLLO CASTILLO                          0501
B4101400550000000900138WILSTAR HARDWARE AND CONST. SUPPLY CORP.                 1602
A0101406750000004642131ABION, VICTOR RODRIGUEZ                                  0502
B0101406750000005608482MERCURY ACE TRADING                                      1602
B0101406750000005608493SOUTHERN HELEVICLE TRADING                               1602
A0101406750852078501001TAKEDA, RACQUEL G. OR                                   10503
A0101406750852078501001JULAO, FLORENCE                                         20500
A0101406750852478374117IDA MACARO                                               0501
A0601400230000003015823ALURA, JIMMY SUENO                                      10502
A0601400230000003015823OR ALURA, MERLE                                         20500
