B1301400500684821200608**********                                               2001
A0101400730000009269452IGUAL, NINA DIZON                                        0503
A0101400730000000833192GLEN T. NIOKO                                            0502
A0101409210000001294719FOLEY, ANA MARIE                                        10502
A0101409210000001294719OR FOLEY, NICHOL                                        20500
A0101412890000004435563REYNOSO, ROSEMARIE GOCO OR                              10501
A0101412890000004435563GLORI, DOMINIQUE                                        20500
A0101413150000005944352******                                                   0501
B0101400440161025954001DEX INTERNATIONAL CO.                                    1605
A0101410720000000882884BARTOLOME JR., ENRIQUE ROASA                             0501
A0101410720000002284051BARTOLOME JR., ENRIQUE ROASA                             0502
A1101400120000006080720TIU, MARVIN ERICSON YU OR TIU,                          10510
A1101400120000006080720EDGAR A. OR TIU, MARILYN                                20500
A1101400120000006080888TIU, MARVIN ERICSON YU OR TIU,                          10510
A1101400120000006080888EDGAR A. OR TIU, MARILYN                                20500
B0101412890000000007007CREATIVE FILES INC.                                      1606
A0101400860011452222001**********                                               0505
A0101400860011653651001**********                                               0503
B0101400150061010900001ROTARY CLUB OF MAKATI SOUTH                              1602
B0101400150061018245001PERLA COMPANIA DE SEGUROS, INC.                          1602
A0101400600071351088001LIM, IT BENG                                             0501
A0601400100000002365391UY- QUIAMBAO, JOAN MARIE WONG                            0501
A0601400100000000786563OTSURU GROUP OF COMPANIES INC.                           0510
B0101406040000001392041********                                                 1603
A0101406040000003332976********                                                 0502
A0101406040112653549001JEANETTE G. SY                                           0505
A0101401960121240766001*********                                                0501
A0101412630000004640982PORCIUNCULA, JOSE CARMELO JAEN                           0502
A0101401830000001139997VIOLAGO, MA. MERCEDES MENDOZA                            0501
A0101401830141409771001ALRIC P. BOBO                                            0501
A5001400170000000170141MOISES, RACHEL OR TIU, REBECCA                          10510
A5001400170000000170141OR TIU, EDUARDO                                         20500
A0101412920000005354558CARANDANG, RUBY ORBE                                     0501
A0101400440161459294001MARY ANN T. REGINALDO                                    0502
A0101401090171195633002ESTRELLITA RUIZ OR                                      10501
A0101401090171195633002FREDERICK RUIZ                                          20500
A0101401090171195893001DR. RICARDO AGBAYANI                                     0501
A0101401090171199354002AGNES CECILLE OR                                        10510
A0101401090171199354002EUSEBIO ANTONIO LLAMAS                                  20500
B0301400530000006477321*****                                                    1602
A0301400530193037469001SONRISE COOPERATIVE                                      0501
B0301400790000010429433AGOT, CHRISTINE LUY AND GARAY, LUCIA ONG                 1601
A0301400790000008015132ESCAMIS, MANUEL PACLAR DBU                              10501
A0301400790000008015132CME AUTO PARTS TRADING                                  20500
A0101401380201694417001FELICITAS, AIMEE JOENA MAGNO                             0501
A0101413020000003055405AVO-AIR ENGINEERING SERVICES                             0501
B0101410720210047125001RYAN IAN COMMERCIAL                                      1601
A3101400160000010460954VILLEGAS, WILMA T OR VILLEGAS,                          10501
A3101400160000010460954WYLEE T OR VILLEGAS, PAUL                               20500
A3101400740224087806001NECESARIO, EDUARDO PASTOR                                0502
A3101400870000000957655BITHAO, C DBU BP-1 CAR AUDIO                            10502
A3101400870000000957655AND ACCESSORIES                                         20500
A1301400470252495255001IMELDA IRENE V. ULIP OR                                 10501
A1301400470252495255001JUANITO I. ULIP                                         20500
A1301400760000004522649JACQUELINE P. PAGADUAN                                   0501
A0101406460000002330854QUIZON, MARC DAVID LEONIDAS                              0504
B0101406620273021176001MERCURY SYSTEMS CORPORATION                              1601
A0101412470000000026822O, HERBERT LAO DBU EASYBUYS CAR                         10503
A0101412470000000026822TRADING                                                 20500
A0101412470000000853834CHUNG, EUN JOO                                           0502
A0101400570281188125001LUISITO O. LLIDO, M.D.                                   0501
A0101400570281359777002LEY, LILY LIM                                            0501
A0101400570281504256001SANGALANG, ONOFRE MAGLANGIT                              0501
B2601400270000000084382ONG JR,PEDRO DBU CELCIUS MDSING AND AUTO                11610
B2601400270000000084382PARTS SUPPLY                                            21600
B0801400160311065867001ELM INDUSTRIAL SASLES                                    1602
B1101400120000000065132STARLITE GLASS AND ALUMINUM SUPPLY                       1605
A1101400120000003022413DUCENTES, GLORIA TROCINO                                 0501
A1101400120000006080877CHUA, NIZZA CLAVECILLAS                                  0502
A1101400120000003981317CANETE, ALEXIS JAN DY DBU                               10503
A1101400120000003981317CANETE ENTERPRISE                                       20500
A6601400120000002249823NOCHETE, ELIZABETH NOVILLA                               0502
A2001400290000008502152UY MATIAO, MELISSA ONG                                   0502
A2001400290315081010001TAN, JAMES ERWIN VILLABERT                               0501
A2001400290315792488001FLORES, CLARISSA ASCANO                                  0501
A0101402350321330335001BEATRIZ G. WAKAI                                         0503
A0101405650322498457001SAYAS, PONCIANO AGNO                                     0502
A0101405650000000525717TAMBUNTING, JOY MYRA SALVADOR                            0505
B0101402510341027854001*****                                                    1602
A0101402060351039707001GJD CARGO FREIGHT FORWARDING                            10502
A0101402060351039707001CO.                                                     20500
B0201401020000000056391MIER, ROSELYN DE LA CERNA AND                           11601
B0201401020000000056391LIMPA, SIALANA                                          21600
B0101402930000005645912ARTISTESPACE INC.                                        1605
A0101408370382205209002*****                                                    0501
A0101411660000002309560RIVERA, VENUS TUMPALAN                                   0501
B0101402770391025883001DA LEONARDO INDUSTRIAL INC.                              1601
A0101402770391043298001BETTER CHOICE CATERING SERVICES                          0501
A0101408950000010111243CHIO, FRANCES ABIGAEL DELVO                              0501
A0101409210000001501477IMLAT, RHEA RITA MOMLA                                   0501
A0301400820000004746021AMIGO, DIANA GRACE V.                                    0501
A2401400180000001935811PATAYAN, JULIET CAGANI                                   0501
A2401400180000010066121********                                                 0503
B2401400180411014383001RD EMPLOYEES CREDIT COOPERATIVE                          1610
A2401400180411059111001BIG SISTER MARKETING                                     0501
B2401400180411085914001FILMIX CONCRETE INDUSTRIES, INC.                         1610
A2401400180000007031530FERNANDEZ, JOSEPH SEVILLA                                0501
A0101406330472329066002ANTONIO S. DE GUZMAN                                     0508
A0101412760000007822100NIONES, RUTH FAVILA                                      0501
A0101412760000002306183MANUELA, WARREN LLENA                                    0502
B0501400170481041189001KONSEPTO FOOD HOLDINGS CORPORATION                       1602
B0501400170481528391001KONSEPTO DAGUPENO INCORPORATED                           1602
B1601400170000000497110MULTI-TECH INDUSTRIAL AND ENGINEERING                   11602
B1601400170000000497110SUPPLY CO.                                              21600
A1601400170000000421241LEGAZPI ISUZU CENTER                                     0506
B0701400260000000671061PENALOZA, JONATHAN HIPOLITO DBU NAGA                    11602
B0701400260000000671061UNITED BEARING S                                        21600
A0701400260495354814002ABRERA, AURELIA DOMASIG                                  0501
A0101407430503436029001CACHO III, MARIANO NERA                                  0501
B0101403580511031762001STERLING FLUID SYSTEMS ENTERPRISES INC.                  1606
B0101403580511155828001JOUBERT CONSTRUCTION INC.                                1610
A0101403580511242579001RITA M. ESTELLA                                          0504
B0101405940000000002762MILKPACT PHILS. INC.                                     1602
B0101405940512041188001PREMIUM WINE EXCHANGE INC.                               1601
A0101405940512152957001CHUA, MA. ELENA OR GO, PHILIP                            0503
A0101412050000003966763DE LEON, ARTURO PUZON OR                                10502
A0101412050000003966763DE LEON, WILFRED                                        20500
B0101403450000002975666***********                                              1603
B0101403450521046801001*******                                                  1602
B0101403610000000015972LAGUNA SCIENCE AND TECHNOLOGY                           11601
B0101403610000000015972COLLEGE INC.                                            21600
B0101403610000006637170CATALONIA, M DBU MJ CATALONIA TRADING &                 11604
B0101403610000006637170CONSTRUCTION                                            21600
A0101403610531219488001REFORMA, MARILOU                                         0502
A2201400250561315662002LAARNI M. TARRONAS OR                                   10502
A2201400250561315662002RICHARD S. TARRO                                        20500
B0101407720602018981001PHIL. COLLEGE OF EMERGENCY MEDICINE                      1602
B0101407720000000885758PACIFIC ISLANDS INT'L. DEV'T. CORP.                      1601
A0101407720602165986001ANGEL C. GOZUM                                           0503
B0101407720602612671001EMERGENPRO INC.                                          1603
B0101412180000000075410ECOLOGY VILLAGE III CONDOMINIUM                         11602
B0101412180000000075410CORPORATION                                             21600
B0101412180000001293038WESTMONT INDUSTRIAL SALES INC.                           1602
A0101407690652020765001STARIAN MARKETING                                        0505
A0101407690652520766018NILDA BERASIS - DEALERS OF                              10501
A0101407690652520766018SHOECAT INC.                                            20500
A0101407690652525001051ANNABELLE BADAYOS - DEALERS OF                          10501
A0101407690652525001051SHOECAT INC.                                            20500
B0101413570000007212962KASAGANA-KA DEVELOPMENT CENTER,  IN                      1605
B0101410300000000191586MEJIA, MELODY ANNE DBU MEE NOODLE BAR &                 11601
B0101410300000000191586RESTAURANT                                              21600
A1301400340000002158476ALIPIO, ALMA DELOS SANTOS DBU                           10501
A1301400340000002158476ALIPIO GARMENTS                                         20500
A1301400340683378168001RODIL, CONSUELO CREUS                                    0501
A1301400500684635536001JOSELYN D SANTOS OR                                     10501
A1301400500684635536001EDGAR D VILLAR JR                                       20500
B1701400230000008555022KOOKEE HOUSE, INC.                                       1602
A0101408240000003955293BILLANO, EDNA YAMBAO OR HERNAN                           0501
B0101408240711023689001ENL COURIER EXPRESS, INC.                                1602
A2801400230000001782083DE GUZMAN, LITO C. DBU D.G.L                            10502
A2801400230000001782083MOTOR WORKS & GEN. SRVCS                                20500
A2801400230000009021618DE GUZMAN, ADELAIDA VILUAN                               0502
A4101400260812283791001AIDA L. MOJICA                                           0501
A4101400550000007583733SERVELINE MERCHANT                                       0501
A0101404840851213312001MARQUEZ, THELMA P.                                       0502
A0101404840851317230020JEFFREY R. DIZON                                         0502
B0101406750000005608482MERCURY ACE TRADING                                      1601
B0101406750000005608642TRANSGLOBAL TRAVEL AND TOURS INC.                        1602
A0101405070000005619514CELDRAN, MARIA TERESA JOSE                               0502
A0101413860000000145286SEA BREEZE LAUNDRY CO. INC.                              0504
A0601400230000005185833DUMAN-AG, MERCEDES MANUEL                                0501
B0601400230891021614001QUIOC (D) QUIOC & ASSOCIATE                              1602
B0601400230891028240001SUPER BIKES CENTER BRANCH FUND                           1601
A0601400230000003638960DIZON, JOSE JUN G. DBU INTERTEC                          0502
A0601400230000002650108TUAZON, REMIGIO ESCANO                                   0501
