B0101408240711821100608**********                                               2010
B0101400600071821100608**********                                               2005
B2801400100712821100608**********                                               2003
A0101411240000013756799UY, CRISTINE MERCADO                                     0502
A0101411240000017774844GALIZA, ROMEL NATIVIDAD                                  0501
A0101408370000015475815MATIBAG, MIRANILA HERNANDEZ                              0501
B0101400600071328360002PETER TAN OR CHARLIE TAN OR JUSTINE                     11601
B0101400600071328360002MICHAEL TAN                                             21600
A0101406620000010983221LEE, LOURDES LIM OR LEE, MARIE                          10502
A0101406620000010983221JOSEPHINE LIM                                           20500
A1101400120000008001334AREVALO, COLEEN CARASO                                   0501
B1101400120313036430002LEYTE HOME DEPOT INC.                                    1610
A1101400120000006186810MACANAS, LAYCA JEAN BARAGO DBU                          10504
A1101400120000006186810LJM TRADING                                             20500
A1101400120000009119591DIOPER SOLIDOR GATELA                                    0501
B1101400120313544308001YU,ROBERT L OR YU,PAMELA L OR YU,RONNIE                 11610
B1101400120313544308001L OR YU,ROXANNE                                         21600
A6601400120314087821001APELO, ALMIRA TOBES                                      0501
A2001400290000017997369BEJAR, DIONESIO LAZALITA                                 0501
A2001400290000013257773SY, KATHERINE VILLAFLORES                                0503
B0101412760000007821885IMAGINEERING TECHNOLOGY SYSTEMS, IN                      1602
A0101409920000000022099DELA VEGA, ANTONIO S. OR                                10501
A0101409920000000022099DELA VEGA, IMELDA                                       20500
A0101413570000017132228REY BENEDICT SILAG III                                   0501
A0101400860000005313171**********                                               0503
A0101400860000010683264*************                                            0505
B0101400860011539482001**********                                               1602
A0101400860011565007002**********                                               0501
A0101400860011658981001**********                                               0505
A0101400860011661386001**********                                               0505
A0101401250021185179001CABRERA, ZENAIDA SANTOS                                  0501
B0101411370000000017945ST.THERESE OF THE CHILD JESUS INSTITUTE                 11601
B0101411370000000017945OF ARTS&SCIENCES                                        21600
A0101400150000014288383GONZALES, LADY TRISHIA                                   0501
B0101400150061014955001METROBANK CARD CORPORATION (A FINANCE                   11602
B0101400150061014955001COMPANY)                                                21600
B0101400150061018828001DOME CAFE FRANCHISE CORP.                                1620
A0101400150061364435001BINAMIRA, PETER ABUEVA                                   0501
A0101400150061413413001DULAY, CARLYN THERESE XAVIER                             0501
B0101405810000000016822VANDA PAPER PRODUCT ENTERPRISES COR                      1602
A0601400100000001442831TIOTUICO, RONALDO PECJO                                  0503
A0601400100000015559752MIJARES, FLORITA MAUN                                    0502
A0601400360000013101090PABUSTAN, ROLAN LACSON                                   0501
A0601400360083437396001LAPINID, LINO HORACIO E                                  0501
A0101413280000012146371DE VERA, TRINA JOSE                                      0502
B0101414090000002244651KS DIGITAL MARKETING AND IT SERVICES INC                 1601
B0101410850000013190842EMERALD GARDEN, INC.                                     1602
A0101410850109053560002HERNANDEZ, JUNE JT DBU JUNE AND                         10502
A0101410850109053560002YVETTE TRUCKING                                         20500
B0101410850000003503740CANELLE FOOD CORPORATION                                 1610
A0101410560000010318297MA. CRISTINA G. MANALAD                                  0501
A0101410560000013758940VERGARA, GLENDA PATULAYIN                                0501
A0101401960000002331835TOMAS, LESLEY JOYCE ONG                                  0501
A0101401830000000033741LANUZA, CHRISTINE MARY ANN M.                           10501
A0101401830000000033741OR LANUZA, LEE I                                        20500
A0101401830141711975001NORICO, AMELIA SANTOS                                    0501
A7201400170000008740023ARANDING, LIZA MEDADO                                    0502
B7201400170000007185562CARUMBA, MARGIE SEPADA OR CARUMBA,                      11601
B7201400170000007185562DANIECITO PASCO                                         21600
A7201400170000011158200ESPANOLA, ANGELA J. OR                                  10501
A7201400170000011158200ESPANOLA, RENNOR ANDREW C                               20500
B7201400170000008603150QUIBOY LENDING SHOP CORPORATION                          1601
A0101412920000016899962GARCIA, CLEVILYN M. DBU COMXAI                          10501
A0101412920000016899962COMPUTER TRADING                                        20500
B0101400440000005393717RD PAWNSHOP, INCORPORATED                                1605
A0101400440161520766060CRESENCIA CLEOFE                                         0501
B0301400530000003573528RD PAWNSHOP, INC.                                        1604
A0301400530000011432921MATURAN, ZALDY BALAGOT DBU MATU                          0502
B0301400660000001020124SILVER POWER FUELS                                       1603
A0101410720000013389574MAMARIL, SIMEON RODA OR MAMARIL                         10501
A0101410720000013389574, ANN MARGARET DELA CUEVA                               20500
B0101410720000011310271JB ULTRATECH BUILDERS INC.                               1603
A0101413600000006605121MUKUL HANDA                                              0501
A0101413600000012980673ODESSA G. HIPOLITO OR                                   10501
A0101413600000012980673ALVIN JAMES S. HIPOLITO                                 20500
A3101400450000018025202CORDON, MARIA MICHELLE ACLAO                             0501
A3101400740000001692457MALABANAN, MILANNIE G. OR                               10502
A3101400740000001692457MALABANAN, ROHNE                                        20500
A3101400870000017261308MACABUHAY, DWIGHT YASONA                                 0501
A3001400130000017973783ESCOBAL, MAY ANN OLIVEROS                                0501
A3001400130000008916003HIDALGO, ELBERT ANTHONY VELOSO                           0502
A3001400130000008916025PLETE, CARIDAD BURDEOS                                   0501
A3001400130000010506560CURITANA, COLEEN BARRIENTOS DBU                         10502
A3001400130000010506560BIAN'Z WHITE CLO                                        20500
A3001400130000014114255ITING, GLEE BAJAO                                        0501
A1001400190000000016402LEGASPI, LUCILO BALATERO                                 0504
B1001400350233036707001KASANAG DAUGHTERS FOUNDATION, INC.                       1602
A1001400350233478374001JUNIO, ROGELIA A.                                        0501
B1001400480000001054671SOLIMA, ELEUTE DBU EBSO ENTERPR                         11605
B1001400480000001054671ISES OR SIO, ELE                                        21600
A1001400480000008501940BALANA JR., RICHARD ZAMAYLA DBU                         10501
A1001400480000008501940RBJ ENTERPRISES                                         20500
A1301400470000011839833LEAH SP. MACTAL                                          0501
B0101401670271041152001PHILADELPHIA BUSINESS INITIATIVES INC.                   1604
A0101401670271194255001MARIA MARTHA LOPEZ ANGELES                               0501
A0101401670000003181666BAESA, CORAZON PINEDA                                    0502
A0101406620000000577060ROBERTO ALEGARBEZ OR                                    10502
A0101406620000000577060JENNELYN ALEGARBEZ                                      20500
A0101406620000000962243ROXAS, MANUEL ROQUE                                      0501
A0101406620000012373341NANOLA, NILBETT LIM                                      0501
A0101406620273306796044MA REGINA Y. MILLARE                                     0501
B0101406620273349902001**********                                               1602
A0101411110000018023320PEREZ, GUS TIFORA                                        0501
B0101400570281026341001PUBLIC SAFETY SAVINGS AND LOAN                          11605
B0101400570281026341001ASSOCIATION, INC                                        21600
A0101400570281047282001WORLDTECH ENGINEERING &                                 10503
A0101400570281047282001INDUSTRIAL SALES                                        20500
A0101400570281361144001ERIC G. IDIESCA                                          0501
B0101411240000014877020NADZ ALMADIN CORPORATION                                 1602
A0501400200000015227222SULLER,CAROLINE OR SULLER,KAREN                         10505
A0501400200000015227222GRACE OR SULLER,YVADELLE                                20500
A0501400200000015227222SULLER,CAROLINE OR SULLER,KAREN                         10505
A0501400200000015227222GRACE OR SULLER,YVADELLE                                20500
A2601400270000012149990MALOLOYON, JOEL RAMIREZ                                  0501
A0801400160311478374102MA. CECILIA A. AVANCENA                                  0501
A1101400120313478374093GIMARANGAN, JINKY A.                                     0501
A6601400120000003673136DOMINICE, IGMELITA PEDROLA                               0503
B6601400120000006154207THE ROMAN CATHOLIC BISHOP OF CATARM                      1602
B6601400120314040691001NORTHERN SAMAR ELECTRIC COOPERATIVE,INC.                 1610
A6601400120000001370592DESTURA, MARLO VILLARAZO                                 0504
B2001400290000002406760MILLER SOLUTIONS DEVELOPMENT INC.                        1603
A3401400280000001723473AMELIA A. ZAMORA                                         0501
A0101402350000016545563SAN JOSE, JOANNA DE GUZMAN                               0501
B0101402350321006431001OLIVAREZ REALTY CORP.                                    1608
B0101402350321024658002OLIVAREZ COLLEGE INC.                                    1608
A0101402350321557382002PARBA, NANCY MUNEZ OR                                   10501
A0101402350321557382002PARBA, JOEL QUIL                                        20500
A0101405650000000448231ACOSTA, LOURENZ RAMOS                                    0502
A0101405650000014026023MASCARDO, JOSE GENEROSO TRINIDA                          0501
B0101405650322018681014LANDCO PACIFIC CORPORATION                               1603
B0101405650322043381001ACE-REM MESSENGERIAL & GENERAL SERVICES                 11610
B0101405650322043381001INC.                                                    21600
A0101405650322345025001GASGONIA, DONNA ZAPA                                     0501
B0101402060351009762002NETERCO-PHILS., INC.                                     1605
A0201400760000015585143CATAAG, GLENN PAUL MERCADO                               0501
A0201400760000015753703ABING, JULIET COLUBIO                                    0501
A0201400760000013669253TING, NOEL YU DBU ZOOM DIGITAL                           0501
B0201400760374272956001YU, DESSUM LIM OR YU, EMMA LAU                           1601
A0201400920000017355090****************                                         0501
B0201400890000007877301RD PAWNSHOP, INC.                                        1603
A0201400890376520766005MAREFIE M. ROJO                                          0501
A0101402930000000859827PACIO-MAYOR JR., J DBU CADUCEUS                         10501
A0101402930000000859827MEDICA MULTISPECIALTY CLI                               20500
B0101402770391025883001DA LEONARDO INDUSTRIAL INC.                              1601
A0101402770391217366002ESGUERRA, NESTOR UMALI                                  10501
A0101402770391217366002ESGUERRA, KRISTI                                        20500
B0101402770391630383002FIRST LOAD MASTER AND POWER SERVICE INC.                 1601
A0101405490392552022001MARIA THERESA D. SOLIS OR                               10501
A0101405490392552022001BENJAMIN D.SOLIS                                        20500
A0101408400000000960349CEBALLOS, JUSTINE ANNA CASES                             0508
A0101408400000013877013EBRO, GRACE MABUNGA                                      0501
A0301400820000004745962NAKILA, ARMAGIDON M.                                    10502
A0301400820000004745962DBU ALDON PJ MARKETING                                  20500
A0301400820000005991699DONNABELLE BAKESHOP AND TEA                             10504
A0301400820000005991699KINGDOM                                                 20500
A0301400820000007134990VILLAMIL, MARY CRIS D.                                   0501
A5501400120000002348325ANG, ANDY MAN CHUNG CHANG                                0505
A5501400120000009875803FERNANDEZ, JACQUILINE GETANO                             0502
A5501400120000015561118SORMILLO, LIZA ONG                                       0502
A1201400150421252693002ALEJANDRIA, ARCELY ALABADO OR                           10502
A1201400150421252693002ALEJANDRIA, ARMA                                        20500
A1201400150421732515001DULNOAN, DWIGHT SERRANO                                  0501
A0101403030000011253820**********                                               0501
B0101403030441631353001ANG CHING HUAN & SONS RESOURCE                          11605
B0101403030441631353001PHIL                                                    21600
A0101403320000018017437MARLON M. GARCIA                                        10501
A0101403320000018017437MARILAG D. GARCIA                                       20500
B0101406330000018001262CRUZ, RHANDY CHARITO DBU                                11601
B0101406330000018001262RCCRUZ BUILDERS                                         21600
A0101406330472027958001A. ANOLIN ENTERPRISES                                    0502
B0101406330472028479001TRU-SERV MARKETING CORPORATION                           1602
B0101406330472049288001RIGHT GOODS PHILIPPINES INC.                             1601
B0101412760000001399846BOX, JANUARIO DBU BRAINCHILD MARKETING                  11602
B0101412760000001399846SERVICES                                                21600
B0101412760000002068060SUPERV BUSINESS MANAGEMENT INC.                          1603
A1901400160491659463001GLORIA JARO PENA                                         0501
A1401400110000001549293HAO, LILIBETH MANLUGON OR HAO,                          10501
A1401400110000001549293KATHERINE GAYLE                                         20500
A1401400110492041611001BLUECLICKER COMPUTER CENTER                              0505
A0701400260000017966313HERNANDEZ, ROBERTSON CHUA DBU                           10501
A0701400260000017966313RNK MARKETING                                           20500
B0701400260000007895810PRINCETON ENTERPRISES INCORPORATED                       1602
B0101407430000001213056AERO EQUIPT AVIATION INC.                                1602
B0101403580000010847442MUY BUENO FOOD INC                                       1602
A0101403580511150629008MIRIAM HIPOLITO OR RAMONA PENA                          10501
A0101403580511150629008OR GERALDINE LIM                                        20500
A0101408530516584323001COLOMA, SHERYL LADD CHENG                                0501
A0101412050000017044230VELVET LEI L. ARANIA                                     0502
B0101403450521011639001**********                                               1602
A0101403450521192368001NGO, TERESITA TAN OR                                    10508
A0101403450521192368001NGO, EDGAR KING                                         20500
A0101403450521238091001LUIS ANG JT                                              0503
A0101403610531034542001ESQUIVEL'S GARDEN AND RESORT                             0502
B0101403610531302489001R SQUARE WASTE MANAGEMENT SERVICES                       1602
A0101407720000000510701PONDAVILLA, JERALYN CEBALLOS                             0501
B0101407720602027106001SKIN AND CANCER FOUNDATION, INC.                         1605
A0101407720602318369116JOSEPH M. SAQUIN                                         0501
A0101407720000003099176PENARANDA JR., ELADIO MIGUEL                             0501
A0101407720602658355001GAMBOA, ARVIN JOSEPH REYES                               0503
A0101404260000001725639************                                             0503
A0101404260611343821005FONTANOZ, EDGAR PABROS                                   0501
A0101404260000007498517CANTORNA, CARMINA                                        0501
A0101404260611484749002BAHALA, AURELIA MANINANG                                 0505
B0101409920000013050332GLOBAL TOLEDO & ALQUINO SECURITY AGENCY                 11601
B0101409920000013050332CORP.                                                   21600
A0101407690652042183001MARINA'S FURNITURE SHOP                                  0510
B0101407690000007720103MONTE ROSA MOTORS, INC.                                  1602
A0101413440000015535072SINGSON, TONI MAY DE LEON                                0501
A0101413570000017934842KAREN MIRABEL                                            0501
A0101413570000017820043JOVEN ALBINA                                             0501
A0101413990000006278226VASQUEZ, BOBBY M.                                        0503
A0101413990000018021426MALVAR, ANDREA KRISTINA GALANG                           0501
A0101414120000003190827MALONDA, BERNARDO CIRUELOS                               0502
A0101410300000000026462SYCIP,JOHN CARLOS/BANTIGUE,JOHN                         10510
A0101410300000000026462PAUL/ESQUIVIAS,J                                        20500
A1301400210682478374027MARY ANN M. DE LEON                                      0501
A1301400340000015886938ESTERBAN, DONN REYES                                     0502
A1301400340000005264973MARCOS, MARVIN CUALA                                     0501
A1701400230000012227502EDU, ATAMANTE BAGCAL                                     0504
A2801400100712017190002DE PESTERS PEST MANAGEMENT                               0503
A2801400230000014314240CAPILI, YOLANDA MAGTANONG                                0503
B2801400230000005253703CAYSING MARKETING                                        1601
B2801400230000005253703CAYSING MARKETING                                        1601
A4101400390000007459198BERNARDO P. GUINOO OR                                   10503
A4101400390000007459198ANA B. GUINOO                                           20500
A4101400420814416980001RUANO, NIDA DE VERA                                      0501
A4101400550000015887093RECTO, RALPH NATO                                        0501
A4101400550000015887071RIVERA, ROSALINDA LOVERIA                                0503
A0101412340000005566612LEYTE, JOYCE GIONGCO                                     0501
A0101412340000004360132MAMANGUN, MARHIELLE DE VERA                              0501
A0101412340000018024210BADONG, MELLISA ANG JT                                   0501
A0101404840000013645724CARREON, NESRAIM CUNETA AND                             10502
A0101404840000013645724CARREON, KEVIN C                                        20500
A0101404840000005820344DELOS SANTOS, MARY ELIZABETH H.                          0503
A0101404840851478374012SAPORNO, ANNABELLE G.                                    0501
A0101406750000001491812GEOCALLO, ELIZABETH DACERA                               0502
A0101405070861347460002HELEN MASANGYA OR                                       10501
A0101405070861347460002ZENIA GRICO                                             20500
A0101413860000017458283SAMILIN, ESTELA ECLERA                                   0501
