A5501400120000011599263TIU, GIOVANNI MALABUYOC                                  0501
A0101408400000000607772PAUNTE, SIHAWI PANGCOGA                                  0503
A5501400120000006976990HABLERO, CESTHER MARI CASTANEDA                          0501
A5501400120000009875694BOLIVAR, EVELYN PEZON                                    0501
A5501400120410622095001CORDER, JAIMELITA OR EDWIN                               0502
A0101406590000005305231CASTILLO, CHERYL LOU ACUNA                               0502
B0101400860000000030279**********                                               1606
A0101400860011078496001**********                                               0502
A0101400860000001005343**********                                               0505
A0101400860000000100863**********                                               0503
A0101400860011493899001**********                                               0510
B0101400860011496636002**********                                               1603
A0101400860011507585001LU, SHAOYI                                               0510
A0101400860011549648001**********                                               0505
A0101400860011550744001**********                                               0502
A0101400860011573208001**********                                               0501
A0101401250021178973001VICENTE S. BERNARDO OR                                  10510
A0101401250021178973001ARACELI C. BERNARDO                                     20500
B0101400150061010853001CROSSPOINT PAPER, INC.                                   1603
A0101405810072291768001**********                                               0501
A0601400520000005943542ARCEO, TEEJAY ROMERO                                     0503
A0601400520000013873253ENGCO, GREGORIO SUAYAN DBU LGK                          10501
A0601400520000013873253AUTO CARE SERVICE CENTER                                20500
A0601400520000002085963CANLAPAN, ARNOLD MANGUNE OR CAN                         10502
A0601400520000002085963REBECCA PABALAN                                         20500
B0101413730000000469687UNITED EVANGELICAL CHURCH OF THE PHILS.                  1610
A0101400730111203514044ANNABEL LACOSTALES                                       0501
B0101401960121023340001**********                                               1601
A0101401960000004419830**********                                               0501
B0101401960121238699002SO, PONCIANO CHUA                JT                      1601
A0101412630000001823321BOLOS, J DBU ADTANK                                     10501
A0101412630000001823321DESIGNS ADVERTISING                                     20500
A0101400440000000821538MARITES T. JIMENEZ                                       0501
A0101400440161402507001ANNABEL A. LACOSTALES                                    0501
A0101407270000003254260CHERYL C. SOLANGON                                       0501
A0101407270000006939082DELA PENA, AIDA ROSAURO                                  0502
A0101407270000007525422EULOGIO, ENRICO SAMSON                                   0504
A0101401090000014507850BUENAVENTURA, JENNIFER C. OR                            10501
A0101401090000014507850BUENAVENTURA, DENNIS L.                                 20500
A0101401090171037662001APS EVENT SAFETY AND                                    10502
A0101401090171037662001SECURITY SERVICE                                        20500
A0101401090171322581002DR. LERRIE D. GUTIERREZ                                  0502
A0101401090171335675001ANNIELYN I. CAAG                                         0501
A0101401090171415824001MARIA CATALINA GO OR                                    10502
A0101401090171415824001APOLINARIO GO                                           20500
A0301400530193789822001ABASOLO, ANAFE A.                                        0501
A0101401380000010190386CO, JESNARD CESAR LUIS DBU NACO                          0501
A0101401380000010190411CO, JESBERN CAEZAR DBU BLAZEMED                          0501
A0101412500000003289981NAVARRO, RODERICK ONA                                    0501
B3101400160221010062001UGNAYAN FINANCING CORPORATION                            1601
A3101400160221398049001REMEDIOS L. LUNA                                         0501
A3101400450000011907561AVANZADO, GRACIA GUERRA                                  0502
B1001400350233039880008NORMIN FOOD CHAIN CORPORATION - JOLLIBEE                11610
B1001400350233039880008LIMKETKAI                                               21600
B1001400350233039881008EASTMIN FOOD CHAIN CORPORATION -                        11602
B1001400350233039881008GREENWICH                                               21600
B1001400350233039882018WESTMIN FOOD CHAIN CORPORATION -                        11605
B1001400350233039882018JB PUERTO                                               21600
B1001400350233041261018CENTRO SUPERSALES INC.                                   1610
A1001400350000004095341OPENA, RAYMOND ABRIOL                                    0501
A1001400350233535706001RUBIN, LOURDES AMBA                                      0502
A1901400290000001926387HERNANDEZ, JUNE DBU JUNE AND                            10501
A1901400290000001926387YVETTE TRUCKING                                         20500
A1901400290261390520001JOEL PUNZALAN DIMAANO                                    0502
B0101406620273047044001CAYLUM TRADING INSTITUTE INC.                            1605
A0101406620273403501001BASA, CATHERINE VIRAY                                    0501
B0101408660000000034277**********                                               1601
B0101411820000003085163TECHNOPIPE CONSTRUCTION CORP.                            1602
A0101400570281186603001DR. RESTITUTO C. BUENVIAJE                              10504
A0101400570281186603001OR RABD D. BUENVIAJE                                    20500
A0101411240000007844991GAERLAN, GERALDINE RODRIGUEZ                             0504
B3401400280000000002320MALLARE, B DBU B&E COMPUTER SALES &                     11602
B3401400280000000002320SERVICES                                                21600
A0101402510341331222002ERLINDA C. RECOCO                                        0502
A0101402510341399875001MACAPAGAL, LUISITO SORO                                  0501
A0101402060000000445414BANSER, FLORDELIZA QUIAMBAO                              0501
A0101409050000014508795MANUEL, LEMUEL IGNATIUS ALMIRAN                          0501
A0101409050000003533593BERONILLA, BRYAN                                         0501
A0101402930000014231584NERCUA, MICHELLE SERRANO                                 0501
A0101408370382593318001DRS. MICHAEL JOSEPH B. REYES OR                         10501
A0101408370382593318001SEIZAN MARIE E. REYES                                   20500
A0101402770000010605175MACAPAGAL, LILLIANE FORTUNA                              0502
B0101402770391009346001R.D. SAMANIEGO ROOFING CORP.                             1602
A0101408400394041293001EBMJO MARKETING SERVICES                                 0502
A0101408950396564288001SYKI-YOUNG, MAE CHUA                                     0502
A0101408950396569875001BERNARDO, MARIA CRISTINA CORNEL                          0505
B0101409180000009085281DELA CRUZ, DENNIS TABUJARA DBU                          11602
B0101409180000009085281DTDC BUILDERS                                           21600
A0101412210000005302910JABLA, NEMELEY FLORIG                                    0502
A0301400820000010907332PERIA, MARITES S.                                        0502
B0301400820000010546335MEDICAL CENTER OF DIGOS COOPERATIVE                      1610
A0301400820000007134905DELA CRUZ, ROSELYN                                       0501
A5501400120000013825602MATEO, EDWARD PETER NARCISO                              0502
B5501400120000007963399STI COLLEGE-KORONADAL CITY, INC.                         1602
A5501400120410639122001TANDOG, MARY JOAN MOLARTO                                0501
A5501400120410750712008SAY, HELEN LAO                                           0501
B0901400220432750068001NOCOM, JOSELITO GABRIEL                                  1601
A5101400100000014506691BLANCAVER, JANE  PASAL                                   0501
B0101403030441039990001TOPTRUCK ENTERPRISES                                     1601
B0101406330472027368002R & A FASTFRATE CORP.                                    1605
A0101406330472217765019MA. VICTORIA ENRIQUEZ                                    0501
A0501400170000001032113DAVID, ERMO ABULENCIA                                    0501
A0501400170481039591001MACA DEO REGALIA REALTY                                  0502
A1901400320000002296091OFRENEO, PAMELA BUMANLAG                                 0501
A1401400110000005181146DIASANTA, IVAN VILLAMAYOR                                0502
A1401400110000006680237CABUYAO, MARCIANO NAYNES                                 0502
B1401400110492027100002SACRED HEART COLLEGE                                     1601
A1401400110492495442001REYES, MARIA SOLEDAD JUBIDA                              0502
A0701400260000005303713EVANGELISTA, EDUARDO ERNESTO                            10502
A0701400260000005303713ALMEDA                                                  20500
B0101405940000003571793UNIVILLE DEVELOPMENT CORPORATION                         1602
A0101411790000013894712MANANSALA, ANNA VANESSA A.                               0501
A0101412050000010658865TARGA, MARTIN JASPER GALVEZ                              0501
A0101412050000011910739YUAN, LILI                                               0502
B0101403610000014440314703 LEASING AND PROPERTY MANAGEMENT                     11602
B0101403610000014440314INCORPORATED                                            21600
A0101407720000000713131SANTOS, MARIA CLARIZA M.                                 0502
A0101407720000010907781ONGUDA, JOCELYN BARBA                                    0502
B0101407720000000885770LARRS SKIN SOLUTIONS, INC                                1603
A0101407720602196321001**********                                               0501
A0101407720602396333001RAJAGUKGUK, BELEN PANTANGCO                              0502
A0101407720602397743001NAZARETH, STEPHEN MAGSINO                                0503
A0101407720602559882001*******                                                  0501
A0101409890000003098213AQUINO, VIL DBU JOVAROM                                 10503
A0101409890000003098213COMMERCIAL                                              20500
B0101407690652030767001KING'S HARVEST, INC.                                     1601
A0101407690000006736463CENTENO, MICHELLE DBU ASRA                              10504
A0101407690000006736463DOCTORS MEDICAL                                         20500
B0101411530000014059719MEGA YIELD CONSUMERS COOPERATIVE                        11601
B0101411530000014059719(MY COOP)                                               21600
A0101413990000014157150SANTIAGO, HARNES TROY SALAS                              0501
A0101414120000000649025GERNESON ESPENORIO OR                                   10503
A0101414120000000649025RHEA ESPENORIO                                          20500
A0101406590662065552001ALINDUGAN, MARIVIC BANDELARIA                           10501
A0101406590662065552001DBU S21 TRADING                                         20500
A1301400500000006218566*****                                                    0505
A1301400500000007096520BAUTISTA, SHIELA MARIE OR                               10505
A1301400500000007096520BAUTISTA, ERICKS                                        20500
A1701400230000004469643SALAZAR, MARIBETH DBU  NORTH                            10505
A1701400230000004469643TECH BUILDERS                                           20500
A0101408240711501794001MONTERDE, EVELYN OCSIN                                   0502
A2801400100000014468869TEOPENGCO, LORENZO TEODORO                               0501
B2801400100712023513001SMA FUELS INC.                                           1601
B4101400390813012874001ROYAL STAR APPLIANCE MARKETING                           1601
A4101400390000000034131SEE, JASON ANG                                           0510
B4101400390000006103548IZU NOBLELINK INC.                                       1601
B4101400420000009392021SWINELAND INC                                            1602
A4101400420814506413001IBIAS, JOSEPHINE OCAMPO OR                              10501
A4101400420814506413001IBIAS, SEGISMUND                                        20500
A4101400550000002091043RAMIREZ, CYNTHIA TAN                                     0503
B0101412340000000030979GENNEX SOLUTIONS PHILS. INC.                             1603
B0101412340000000030980ACTON TECHNOPHILS INC.                                   1602
B0101412340000000030991GENNEX SINGAPORE PTE. LTD.                               1603
A0601400230000003015903ABAD, ARNALDO MAGCALAS                                  10502
A0601400230000003015903OR ABAD, CONCHIT                                        20500
B0601400230000010299197HOSPICARE MEDICAL SUPPLIES CORP.                         1602
