A0901400220000000012368SANCHEZ, NANCY DAGALEA                                   0501
A0101401250000000020424BALIAO, JOVITA LINGGON                                   0505
A0101408660000000034164PAGANO CALDE, LYSSA GRACE SISON                          0501
A0101408240000000039803GARCIA, MICHAEL PUNZALAN                                 0502
A0101405650000000080128ALFREDO LEONARDO G. LAZATIN                              0501
A0101400730000000112972MARINAS, MARIARITA MANAGUIO                              0501
A0101404680000000120145MARILYN PANDUNGAN                                        0501
A0101400310000000140923NARCISO, ARCHIE MUROS                                    0501
A0101406750000000172989VELEZ, PALMY REPRADO                                     0501
A0101408240000000347380MISA, JENNY LYN                                          0502
A0101414120000000398932R. ACOSTA ENTERPRISES                                    0502
A0101404260000000532261GARCIA, AUGEN MILLAN                                     0501
A0101406590000000568667MAYUGA, TERESITA ALVARAN                                 0501
A0101404840000000683585ROXANNE P. AGUILLON                                      0502
A0101400310000000747091CADIZ, MARK LECAY                                        0501
A2401400180000000826222ROSARIO, ROCHIE DATU                                     0501
A0101414120000000875572REDESIL CONSTRUCTION                                     0502
A1001400350000000922383BERGONIA, VLADIMIR LABRADOR                              0502
A0201400890000000973480GALANG, LORLIE PACURIBOT                                 0501
A3101400450000001149291BALDOVINO, ISABEL VALDOPENA                              0501
A0101408400000001258588MJZION FURNITURE SHOP                                    0501
A0101405940000001534214EVANGELISTA, KAREN TRICIA LLAMA                          0502
A0101411240000001563479********                                                 0501
A0101404260000001725457NELIA A REDELICIA                                        0501
A0101412890000001765573******                                                   0501
A0101412890000001765631CATALIG, LYDIA LANDAYAN                                  0502
A4101400260000001783775SHAYNE M. PURIFICACION                                   0501
A1301400340000002283821LLANILLO, MARIE SHYLA LLORENTE                           0501
A1301400470000002299949KING FHERRY S. ESTAVILLO                                 0502
A0101402350000002310598MAMARADLO, ROZALINA DE VERA                              0501
A2201400250000002337862ALPHA PINGOL DIMARUCOT                                   0502
A1301400760000002345991JOHNA A. SAN ANDRES                                      0502
A7201400170000002791319SOLON, NESIL COLINARES                                   0502
A0101412340000002900283MARIFE B. VIADO                                          0501
A0301400530000003088082SAMAR, REMEGIO ESPANO                                    0501
A0701400260000003259272GONZAGA, EVA DEL ROSARIO                                 0501
A0101404000000003284382ABLEN, MARICON CAMILOTES                                 0501
A0101400310000003336230ROBES, R DBU SKY GREEN IMPORTS                           0502
A0101404000000003707748EDMERGIL D VALENZUELA                                    0501
A7201400170000003772992BALLAR, RAUL PASINABO                                    0501
A0101408370000003774987FAJARDO, PIA LOREN VIVAR                                 0501
A0101409180000003780363TECSON, ANGELICA CALDERON                                0501
A0101405650000003893465JAKOBSEN, MARK BERNALES                                  0501
A0101408950000004735917LUMINOUS13 JR., TEST G                                   0501
A0101400860011379561003**********                                               0502
A0101400860011391441003**********                                               0503
A0101400860011463583002*********                                                0505
A0101400860011508115001**********                                               0502
A0101400860011608631001**********                                               0502
A0101400860011685746001**********                                               0505
A0101400150061229002001REGINA S. ALCANTARA                                      0501
A0101400150061236944067ANALIZA CASTRO-OBLENIDA                                  0501
A0101400150061341283001DIAZ, CYNTHIA MARTINEZ                                   0501
A0101400600071233729001**********                                               0501
A0101400600071478374004JULIET E. SY                                             0506
A0601400100081383884001ARCENAS, MA. SHEILA DEMETERIO                            0503
A0101401830141239325001CRUZ, VERNON CRUZ                                        0503
A0101407270162385312001MAE CZARINA R. CRUZ                                      0502
A0101401090171195802001EVELINA N. LAGAMAYO                                      0504
A0101401090171195854001NENITA OR EDDIE TAN                                      0502
A0101401090171383349001JULIE ANN A. HALLAZGO                                    0503
A0101401090171491755001OLIVIA C. GO                                             0502
A0101400310211161671001AMALIA JUSAY                                             0503
A0101400310211383117002LOJO, BENITO MACASAET                                    0502
A0101400310211447975001LOZADA, MARIA LUISA SANCHEZ                              0501
A0101400310211478374087PAMBID, ALICIA                                           0501
A0101400310211478374094ERLINDA MOISES                                           0505
A0101400310211722479002MARTICIO, BONIFACIO CUACHIN                              0501
A0101407140213190322001**********                                               0505
A0101407140213190365001**********                                               0502
A3101400450223529066001MORENO, MICHELLE CALALO                                  0503
A1001400350233478374026ANNABEL ESTOMO                                           0501
A1301400760253056374001EDNA'S CAKELAND                                          0510
A0101400570281360412001DR. LONABEL A. ENCARNACION                               0502
A0101400570281362546001WEE, DENNIS LIM                                          0501
A0101402350321310360001FLORES, RICARDO TIRSO QUIACHON                           0501
A0101402480331367035001**********                                               0501
A0101402480331467250001*********                                                0502
A0101402480331478374052FELOMINA, SHIRLEY                                        0501
A0101402510341202843003**********                                               0501
A0201400920375034984002CITY LIGHT ELECTRONICS SERVICE                           0506
A0201400890376192121001TORRES, GIL FERDINAND ABELLO                             0502
A0101408950396053382022LUMINOUS11 JR., TEST G                                   0501
A0101408950396053382023LUMINOUS12, TEST T                                       0501
A2401400180411478374068DELIGERO, JOCELYN JALA                                   0501
A0901400220432478374002EVELYN ALGA DEMECILLO                                    0501
A0901400220432704115001**********                                               0502
A0101403030441239062001**********                                               0501
A0101403320471045143001KISH-ANDRE ENTERPRISES                                   0501
A1401400110492378227001VEJERANO, ROBERTO MAMORE                                 0501
A1401400110492395854001MERCEDES C. BARCELONA                                    0501
A0101406880513635484001MONTOYA, JENINA MANABAT                                  0501
A0101411400517381317168*******                                                  0502
A0101404000551150316001JOCELYN A. CASTRO                                        0505
A0101404000551340823001JESUS CLINT O. ARANAS                                    0503
A0101404130601382862001DEL ROSARIO, FRANCO GOMEZ                                0501
A0101407720602394399001CRUEL, ALDABELLE LABANEN                                 0501
A0101404420631478374136LAILABETH T. ROSIN                                       0502
A0101404680651520766112SUSANA B. FLORENDO                                       0501
A0101404680651688227001LIWANAG, ALFREDO GUINTO                                  0501
A0101404680651750326001PERLA P. DOLOR                                           0502
A0101410720653503650001TAPE, ANA LYN HERRERA                                    0501
A0101410720653586676001LEGASPI, JASON TEVES                                     0502
A0101413570656057648046CRUZ, GENALINE ESPIRITU                                  0501
A0101413570656057648061CHAVEZ, DIVINA FLORENCE PARAGIN                          0501
A0101413570656057648074DUMLAO, NONALEAM MACLANG                                 0501
A0101413570656057648123GO, MANUEL VILLAPANDO                                    0501
A0101413570656057648163MARTINEZ, JERICO CALABATA                                0501
A0101413570656057648188ONG, MA. CHRISTINA TAN                                   0501
A1301400340683406123001TOBIAS, SUSANA FULGENCIO                                 0502
A4101400260812699781001ESPANTO, RHIA VERGARA                                    0501
A0101404840851478374071MARITESS C. CASARILLA                                    0501
A0101404840851481664028ERNIE DELLOSA                                            0501
A0101404840851520766037MAGDALENE DE GUZMAN                                      0502
A0101404840851520766071TERESITA SANTOS                                          0501
A0101406750852022181001DATHAN ENTERPRISES                                       0505
A4101400390000000034095DELA CRUZ, ALYSSA   OR                                  10510
A0101409890000000049089GEMSTAR CLEANING SUPPLIES                               10505
A3401400280000000156643MELOURD L. BONILLA AND MA.                              10502
A0701400260000000670768DE LOS SANTOS JR., LEOPOLDO                             10501
A0101409920000000998683MEMBERS OF NATASHA (SHOECAT INC                         10501
A0101412890000001765711BUCCAT, KRISTINE ANNE                                   10501
A0101409920000001951839MEMBERS OF NATASHA (SHOECAT INC                         10501
A0101405490000002880540MABALE, FRESVIE DBU JCB IND'L                           10502
A0101400310000004374112YAP, LOURDES QUEZON OR                                  10501
A0101401250021401825001CHUA, REYNALDO MAGNO OR                                 10504
A0101400310211276524001MARIANITO ALEMANIA OR                                   10501
A0101408660274618355001AGUILERA, ALLAN ANTHONY  OR                             10505
A2001400290315042654001GFR TIRE SUPPLY AND SERVICE                             10502
A0101402350321176404002GINA A. MATIAS OR                                       10501
A0101405650322093557001CUEVAS, MA. DONATA NADINE OR                            10502
A0101405650322178295001ALLAN YABUT OR                                          10501
A0101405650322743994001DOMINGO, ANNE REJOYCE OR                                10502
A0101408370382433161001DR. ANTHONY MARC B. ANCHETA OR                          10502
A0101408370382593318001DRS. MICHAEL JOSEPH B. REYES OR                         10501
A0101402770391197949001MELODIE U. ANG OR                                       10501
A0101405490392046378001ABDUL-AZIS, EDORA CECILE DBU                            10501
A0101405490392554799001ALLEN NEIL V. PAJARELLANO OR                            10501
A2401400180411478374061JUNRES AGAD OR                                          10501
A1901400160491057676001SQUARE N'S CONTRACTOR AND                               10501
A0101405940512360728001ERWIN P. HERNANDEZ OR AGNES                             10501
A0101407720602164307001GABRIEL G. GABRIEL M.D. OR                              10502
A0101407720602381371001SHIELA H. PAGDANGANAN OR                                10502
A4101400260812444997002MARY ANN SAN DIEGO OR                                   10502
A4101400390000000034095DELA CRUZ, EVANG                                        20500
A0101409890000000049089INTERNATIONAL                                           20500
A3401400280000000156643RODERICA B. GARGANERA                                   20500
A0701400260000000670768PEORO                                                   20500
A0101409920000000998683AJETO, MERCY L.                                         20500
A0101412890000001765711VILLANUEVA                                              20500
A0101409920000001951839ARONG, GLEN P.                                          20500
A0101405490000002880540SALES                                                   20500
A0101400310000004374112YAP, ROMEO ESPINA                                       20500
A0101401250021401825001CHUA, EMMA GESLANI                                      20500
A0101400310211276524001ALEJANDRO CARTAG                                        20500
A0101408660274618355001DORIA, GRAND MIC                                        20500
A2001400290315042654001CENTER                                                  20500
A0101402350321176404002DANILO M. MATIAS                                        20500
A0101405650322093557001CUEVAS, RAFAEL                                          20500
A0101405650322178295001SOCORRO YABUT                                           20500
A0101405650322743994001JOSEFINA                                                20500
A0101408370382433161001DR. CELINA Z. ANCHETA                                   20500
A0101408370382593318001SEIZAN MARIE E. REYES                                   20500
A0101402770391197949001JO ALLEN U. ANG                                         20500
A0101405490392046378001PAW PRINTS BOUTI                                        20500
A0101405490392554799001FLORANITA V. PAJARELLANO                                20500
A2401400180411478374061NORMELITA BLANCO                                        20500
A1901400160491057676001MANPOWER SERVICES                                       20500
A0101405940512360728001T. HERNANDEZ                                            20500
A0101407720602164307001CAROLINE C. GABRIEL                                     20500
A0101407720602381371001ERNEST PAGDANGAN                                        20500
A4101400260812444997002ANTONIO SAN DIEG                                        20500
B0101404130000000001218EXEMPLAR 168 MANPOWER CORP.                              1602
B0101405940000000002773BT AUTO SPORT CORP.                                      1603
B0201401020000000005249BOSTON HARDWARE INC.                                     1603
B0101401960000000008131****************                                         1601
B2401400180000000073663CENTURY PACIFIC FOOD, INC.                               1610
B0101413990000000206191LFG MEGA ROYALE REALTY & DEVELOPMENT INC                 1601
B0101411240000000629323J128 MARKETING CO. LTD.                                  1601
B0101404680000000697930JOBSFINDER PLACEMENT AGENCY, INC.                        1602
B0101408820000000713251********                                                 1605
B0101408240000000832713LAS TUAZON AND SONS REALTY, INC.                         1601
B1301400340000000981988NELCO AGRI PRODUCTS, INC.                                1601
B0101410850000001229801MJASPER LOGISTICS CORP.                                  1610
B0101409210000002783282NUTRIGENICS ASIA INC.                                    1601
B0101401700041190338003**********                                               1602
B0101400150061057678001TWO PACSPORT REALTY CORPORATION                          1601
B0101400600071045158001*******                                                  1603
B0601400100081013321001BIO-TECH MARKETING CORPORATION                           1605
B0601400100081013322001LACTO B INCORPORATED                                     1605
B0601400100081256780001MICRO-B, INC.                                            1605
B0101412920160049575002DIGITAL CCTV & ELECTRONICS CORPORATION                   1601
B0101407270162031082002BELLDY COMMERCIAL                                        1604
B0101400310211005640001KUBOTA PHILIPPINES, INC.                                 1605
B0101400310211029880001MTZ FORTUNE RESOURCES INC.                               1602
B0101400310211047121001CLEOMEDICS INC.                                          1602
B0101400310211157479001MACRO TEXTILE MFG. CORP.                                 1603
B0101407140213034002001LABEL LINE ENTERPRISE                                    1605
B1001400350233036049001RANTRADE INDUSTRIAL SALES CORPORATION                    1601
B1001400350233042688001SOLIDMARK, INC.                                          1605
B0101408660274038268001AVO AIRVENT INCORPORATED                                 1601
B0101402350321012513001CONNER HARDWARE CORP                                     1602
B0101402480331394879001*******                                                  1602
B2401400180411017833002OCEAN CANNING CORPORATION                                1605
B0901400220432043554001GERRY'S GRILL                                            1603
B0101403030441030325001**********                                               1602
B0101405940512018663001MIX MASTERS INC.                                         1609
B0101403450521028158001**********                                               1601
B0101403610531010097001UNI FUNDS INCORPORATED                                   1601
B0101404130601038411001SURELUCK WOOD ENTERPRISE                                 1602
B1301400210682248659001ASIANLAND STRATEGIES CORPORATION                         1605
B1301400340683456739001LAZATIN JR., EDUARDO NIONES                              1602
B2801400100712023513001SMA FUELS INC.                                           1601
B0601400230891009284001UNIVERSAL GLASS CO., INC.                                1601
B0101401830000000033592CARITAS SALVE CREDIT COOPERATIVE                        11610
B0101405490000003905184NORTHSHORE HARDWARE AND CONSTRUCTION                    11603
B0101406590000004746276REYNOLD FERDINAND AND MARIA CECILIA                     11601
B0101401830000000033592(TAYUMAN) 004                                           21600
B0101405490000003905184SUPPLY                                                  21600
B0101406590000004746276MANEGDEG                                                21600
B0101401830141821100608**********                                               2002
B0101409210398821100608**********                                               2010
