B0101404840851821100608**********                                               2010
A0101413600000002122332CESAR C. BATONGBAKAL JR.                                 0501
A0301400790000005692173SIMON, DIOSEE GENTILES                                   0501
A0301400790000012273977BONILLA, KEITH CONRAD PANISALES                          0501
B0101410720000005786770ISIP MANA BUILDERS AND REALTY COMPA                      1602
B1001400190231092020001RNT COLD BUILDER, INC.                                   1605
A1001400190231520766094SALAGUSTE, FELIPE B.                                     0501
A1001400190231520766125YANA, MAYFLOR DAGOC                                      0501
A0101411240000016158413REDONDO, KRIZIA MARIE MORALES                            0501
A0101409920000000998569MEMBERS OF NATASHA (SHOECAT INC                         10502
A0101409920000000998569PEDROSA, JULIE J                                        20500
A0101410300000000191893********                                                 0501
A0101412340000003344083ELINOR JOY V. LASOLA                                     0501
A0101400860011394300002**********                                               0502
A0101400860011402005002********                                                 0502
A0101400860011483349001**********                                               0503
A0101401250000013488281AGRASADA, JOEL G. DBU AGRASADA                          10502
A0101401250000013488281ADVERTISING SERVICES                                    20500
A0101401250021401825001CHUA, REYNALDO MAGNO OR                                 10506
A0101401250021401825001CHUA, EMMA GESLA                                        20500
A0101400150000016750802PABALAN, HANNAH MORENO                                   0501
B0101400150061010997001EASTWIND GARMENT MANUFACTURING CORP.                     1602
A0101400150061227328001BANTUG, MA. VICTORIA GUILAS                              0502
A0101400600071092538001CHAN, GIDEON DY OR                                      10510
A0101400600071092538001CHAN, JEANNE P.                                         20500
A0101405810072234892001**********                                               0501
A0601400100000012798597EMPLOYEES OF RMS COLLECT PHILS.                          0502
A0601400100000011854192BALBOA, YOLANDA PAGAY DBU YOLAN                          0501
A0601400100081040294001MOIKAI INDUSTRIAL SUPPLIES AND                          10505
A0601400100081040294001AUTOMATION SERVI                                        20500
B0601400360000003186792SAMBON P&E PHILS. CORP.                                  1601
B0601400520000001706918NAGUIT JR., JOSEFINO F. OR                              11610
B0601400520000001706918NAGUIT, MHELODIE                                        21600
A0601400520000004423323TAYAG, JENNIFER ANNE GOZUN OR                           10501
A0601400520000004423323GOZUN, OLIVER DIZON                                     20500
A0601400520000013872654GOH, LEXTON SANITA                                       0502
A0601400520000016098410GOH, LEXTON SANITA DBU LEXTON                           10502
A0601400520000016098410CARWASH                                                 20500
A0601400520000002085883MA, JENNIFER TECSON DBU                                 10505
A0601400520000002085883D'AFFAIR FURNITU                                        20500
A0101413730000002289507**************                                           0501
A0101410850000003102169NABONG, E DBU GED ELECTRICAL                            10502
A0101410850000003102169MARINE SERVICES                                         20500
A0101401960121461565001PO, JOY ALEXIS TAN                                       0501
A0101401960000001844500**********                                               0503
B0101401830141008845001PANDACAN TRANSPORT SERVICE & MULTI-                     11603
B0101401830141008845001PURPOSE COOP.                                           21600
B0101401830141069187001BUCE, MIKE ANTHONY SANCHEZ                              11601
B0101401830141069187001DBU MASB FOODCAR                                        21600
A7201400170000008719193MALACO, ELYN ALBIOS                                      0503
A7201400170000006487518ARANDING, LIZA MEDADO                                    0502
A7201400170000011454390ANDIGON, GINA NANO OR                                   10501
A7201400170000011454390ANDIGON, JESSIE MUNDO                                   20500
B7201400170000003773637MDSDOC CORPORATION                                       1601
A5001400170000000214002REQUINA, ORWINO ATAY                                     0501
B5001400170000008743813TIU, J DBU DIPOLOG FISHING SUPPLY                        1610
A0101400440161525001125MAY M. RAMOS                                             0501
A0101401090000015531478QUERIDO, CHRISTIAN LLOYD CASIMI                          0501
A0101401090171448116002SYLVIA BERNARTE-ALS OR                                  10502
A0101401090171448116002ANDREA MARIE BERNARTE                                   20500
B0301400530000001409650DING, SHUIBEI OR                                        11604
B0301400530000001409650CHEUNG, HENRY B.                                        21600
A0301400530000010370593MABANGLO, ARTHUR GOROSPE                                 0505
B0301400530000017203713LAAK INSTITUTE FOUNDATION, INC.                          1601
A0301400660000013311181**********                                               0501
A0301400790000012274203PALENCIA, DARWIN BRAGAIS                                 0501
A0301400950000017381170PAN NI JOSE                                              0502
A0101401380000002297561MAYO, RAMON BRIGIDO MATANGUIHAN                          0501
A0101410720000000882833MIRANDA, LOURDES DAVID                                   0501
A0101413600000005355073MANUEL KHELVIN TORRES OR MA.                            10501
A0101413600000005355073LUISA THERESE A. TORRES                                 20500
A3101400160000012033611SEDA, ROVELYN DACPANO                                    0501
A3101400160221514353001FUKUDA, YOSHIHITO NAGATO                                 0501
A3101400160221533263002AMISTAD, DOMINGO O; MALAYA JR.,                         10501
A3101400160221533263002ELI R, AND PUA, ERNESTO M                               20500
A3101400160221550652001SATO, YASUKI YANO                                        0501
A3101400450000017260867MARIA MINA M. KABAMALAN                                  0501
A3101400450000017260878IRMA C. MAGSINO                                          0501
A1001400190000008743897HANDUMON, CORWENDA YANCHA                                0502
A1001400190231040271001CHABON, CLAIRE DBU ROADNET 2000                         10502
A1001400190231040271001ENTERPRISES OR TAN, ROGEL                               20500
A1001400190231283324001GICABAO, BENY CHAN OR                                   10501
A1001400190231283324001GICABAO, VILMA A                                        20500
A1001400190231520766021CONDIMAN, MILDRED BAGAIPO                                0501
A1001400190000002170769JUGAN, NOUE MALOLOT                                      0501
B0101401670000004588490H.S. POW CONSTRUCTION AND DEVELOPMENT                   11604
B0101401670000004588490CORPORATION                                             21600
A0101401670271361002001JOSE ABRAHAM V. PLANA II OR                             10502
A0101401670271361002001RACQUEL Y. PLANA                                        20500
A0101411110000016099708GARCIA, JACQUELINE VERGARA                               0501
B0101411110000017333869*******                                                  1601
B0101412470000000045361GALERIE JOAQUIN, INC                                     1603
A0101400570000001681712GIL M. VICENTE                                           0502
B2601400270000011485299GEORGE T. GO DBU GRS GRAIN CENTER OR                    11610
B2601400270000011485299SONIA PUA                                               21600
A2601400270000016515092NELYN RIZA C. PAGULAYAN DBU ZAA                         10503
A2601400270000016515092P MERCHANDISING AND DIST.                               20500
A1101400120000006186730MERCADER, LEDY ABONG                                     0502
A2001400290000016140851RIZADA, NARLAINE JOY PATAJO DBU                          0502
B2001400290000000020537LINK RI LOGISTICS INC.                                   1601
B2001400290000002406720DY, LOREEN LAO AND YAO, MARIANNE SY                      1602
A0101402350000000655356CANDIDATO, ADRIL VERANO DBU                             10501
A0101402350000000655356ADZ MANPOWER SER                                        20500
A0101405650000017384528ADONIS, ADAM QUIMINALES                                  0501
A0101402510000007408815JUAN, DIANA GRACE CRUZ                                   0503
A0101402060000000445425LIMJUCO, DIANA GOROSPE                                   0501
A0101402060351212497001LICHAUCO, ERNESTO E.                                     0501
B0201400760374711977001GLOBAL VILLAGE CONSULTING ASIA PACIFIC                  11602
B0201400760374711977001INC.                                                    21600
B0201400890000017366811CEBU GLOBAL ELECTRONICS, INC.                            1601
A0101402930000009324830TAMAYO, SHERENE MANALO                                   0502
A0101402930000003179582GERNALIN, E DBU UNIMAN CONSTRUC                          0510
A0101402930381488888001EDWARD P. LIM                                            0502
A0101402930381686667001MACALALAD, JACKIE LOU BOAC                               0501
A0101408370382205368001DR. EDGARDO R. SAN JUAN                                  0505
A0101408370000003775133BANZON, MA. EIDLLEN AZARRAGA                             0503
A0101408370382652736001VELORO, LYRA VALERA                                      0501
A0101408790000005555682MARIE KIRSTIN C. DE JESUS                                0502
A0101415350000006733833THOM ARJAY C JAUCIAN                                     0502
A0101402770000003487996CARTA, REMEDIOS ENRIQUEZ                                 0501
A0101408400000017371290OCAMPO, CONSTANTINA MANALO                               0501
B0101408400394027823001COTTON TOUCH ENTERPRISE                                  1602
B0101408400000003120612GLOBAL LEADERS INTERNATIONAL SCHOOL                      1605
B0101408400000008699905MCORD FASTFOOD CORP.                                     1602
A0101408400394605254001*****                                                    0504
A0101408950000014190633BINUYA JR., ROMEO NAVARETTE                              0501
A0301400820000001185655POLICARPIO E. FONTANILLA JR.                             0501
A5501400120410645218001BAUTISTA, ESTHER BASCON                                 10503
A5501400120410645218001OR BAUTISTA, ESC                                        20500
B2401400180411041890001BIOCIELO REALTY & DEVELOPMENT                           11610
B2401400180411041890001CORPORATION                                             21600
A1201400150000016104140HIDALGO, ANTONIETTA AURORA HAND                          0502
A1201400150421039385001JL'S CLEAN UP JANITORIAL &                              10502
A1201400150421039385001MANPOWER SERVICE                                        20500
A0101403030000000320492**********                                               0502
A0101412890000001765562AMANDA CRUZ OR BERNADETTE CRUZ                          10502
A0101412890000001765562OR JOVITO FERDINAND CRUZ                                20500
A0101412890000017194420MARGARITA SAQUIDO BAULA                                  0501
B0101412890000003727899RUSTY LOPEZ ENTERPRISES INC.                             1601
B0101410140475045534001J-BREN STAR CORP. DOING BUSINESS UNDER                  11602
B0101410140475045534001THE NAME AND STY                                        21600
A0501400170000012558555MORANTE, RIA RACHELLE ALMONEDA                           0501
A0501400170481252603001DIZON, ZENAIDA ESPINO                                    0501
A1901400160000015826312DR. ARVIN MARCELINO D.                                  10501
A1901400160000015826312TOLENTINO                                               20500
A1901400160000005794892ALCANTARA, JOEY L. OR                                   10503
A1901400160000005794892ALCANTARA, MARICEL A.                                   20500
A1401400110000016984375CARAOS, IRENE MENDIOLA                                   0501
A1401400110000017384900LLANDADO, HAROLD BRYAN DOCTOR                            0501
B1401400110492010098001CASEI MARKETING CORPORATION                              1610
A1401400110492391345002R'S WINE CENTER                                          0502
A0101403580511036648001R2C TRADING                                              0501
A0101408530000016394424PIMENTEL ALZATI, ANTONIO                                 0502
A0101411400000016322353TENEDO, RUTH FEDRIQUILAN                                 0502
B0101412050000007801483BUENA RICH COMMISSARY CORPORATION                        1604
A0101403450521237819001**********                                               0501
A0101403450000014728493ONG, PHILIP KU                                           0502
A2201400250000006736310SY, MELISSA CO                                           0501
B2201400250000007720034********                                                 1601
B2201400250561013339001PHIL. NATIONAL GUARD SECURITY                           11605
B2201400250561013339001AGENCY INC.                                             21600
A2201400250561039037001TRIZ N' PAO TRADING                                      0501
A2201400250561359017005ELEONOR B. GALLARDO                                      0501
B0101404130601549266001VISUALMEDIA, INC.                                        1605
A0101407720000000245214LEORNA, IRENE CASUBUAN                                   0502
A0101407720602381371001SHIELA H. PAGDANGANAN OR                                10501
A0101407720602381371001ERNEST PAGDANGANAN                                      20500
B0101407720602569898001SHINES DERMTECH SOLUTIONS, CORP.                         1601
B0101412180604061511002DE CASTRO, DENISE LOREENA VILLAR DB                      1601
A0101412180000000333560BENAVIDEZ, YVONNE REBECCA                                0502
B0101404260611005561001WILSTRONG LUMBER & HARDWARE                              1605
B0101404260000000157015INTERPRO FOOD SPECIALIST INC.                            1605
B0101404260000004781255BESMONTE, A DBU A.B. BESMONTE DENTAL                    11602
B0101404260000004781255CLINIC                                                  21600
A0101404260611151571002*******                                                  0505
A0101404260611478374119LEA B. DAGANTE                                           0501
A0101407690652478374143SHIRLEY PATALOD - DEALERS OF                            10501
A0101407690652478374143SHOECAT INC                                             20500
A0101413990000016958153BALUYUT, MELANIE C. OR                                  10501
A0101413990000016958153CATOLICO, JOWEN M.                                      20500
A0101406590000014678329FERRERA, BLANDINA TIRINIDAD FES                          0501
B0101406590662639224001CURRENTCONCEPTS INC.                                     1601
A1301400500684614643001PANGILINAN, PETRONILA G. OR                             10501
A1301400500684614643001PANGILINAN, RAMON C.                                    20500
A1701400230000011517332ONG, ARLENE CAPILI OR ONG,                              10501
A1701400230000011517332ERIC ENRIQUE CORTINA                                    20500
A1701400230000011517423PAZ-TAN, LIZA MARIE RIOS                                 0501
A0101408240000003955420BUENAVENTURA, MICHAEL GLENN S.                           0502
A0101408240000012315923FLOIRENDO JR., ANTONIO DEL ROSA                          0502
A0101408240000002821872SANTILLAN, ENYA GABOR                                    0501
A2801400230000011730420GURAY, ANITA BASA                                        0501
A4101400260000012880274PENA, VERONICA PANGGO                                    0502
B4101400550000000900014CAVITE PEOPLE FOR SOCIAL CONCERNS MULTI                 11601
B4101400550000000900014PURPOSE COOP                                            21600
A4101400550815058065003ALPAS, M DBU ALPAS DENTAL CARE                           0502
A0101404840000016229624LIM, CHARIS HONEYLET QUINTOS                             0501
A0101404840000000683443EVELYN FRIAS                                             0501
A0101404840851522784001BROZAS, MERCEDES MISION                                  0503
A0101406750852673534001TOLENTINO, DEBORAH SARAH D OR                           10502
A0101406750852673534001DE LEON, RUBEN L                                        20500
A0101405070861596150001JACKIE LOU D. GAITE AND                                 10503
A0101405070861596150001TERENCE OLIVER AGUILOS                                  20500
A0601400230000007402279DE CASTRO, RICARDO MANUEL PEDRO                          0505
A0601400230000000452840GOZUN, R-JAY RAMOS OR                                   10520
A0601400230000000452840GOZUN, MYRNA RAMOS                                      20500
