B0101412210399821100608**********                                               2003
B1601400170494052236004LEGASPI HOPE CHRISTIAN SCHOOL, INC.                      1603
B0101412920000000276562ALPHA STONEWORKS ENTERPRISES                             1603
A0101410720210479517001MEDINA, ADELE MERCEDES SOLON                             0501
A0101408400000010506953CARRASCA, MERLIE LISCANO                                 0501
A0601400230000014575803NAVARRO, RHEA JOY YABUT DBU AVE                          0502
A0101401250000007390298LEGGIERO STRINGS &                                      10501
A0101401250000007390298CHAMBER ORCHESTRA                                       20500
A0101401250021183070002CORLET, EVELYN LACERNA                                   0502
A0101400150000012145674MARQUEZ, CLAIRE ALINDOGON                                0501
B0101400150061056020001PAWNHERO PAWNSHOP PHILIPPINES, INC.                      1605
A0101400150061292057001GIDEON G. SISON                                          0503
A0101400600000010683457MILKA T. BACANI                                          0501
A0101400600000000007649EDMOND KE CHUNG                                          0505
A0101405810072362784002****************                                         0501
A0601400100000013256689DE JESUS, DELIA CASTANEDA                                0501
A0101413280000011809244CANICON, MAYLYN MAGCAMIT                                 0501
A0101414090000012425091KRIZIA DOMINIQUE AQUINO DBU LE                          10502
A0101414090000012425091CONCEPTS LIFESTYLE AND CA                               20500
A0101410560000016200052MANLAPAZ, FERDINAND REYES                                0501
A0101400730111047618004RONALDO BAARDE PRADO                                     0502
A0101400730111478374020FERMANES, LILIA S                                        0502
A0101406040000010081420********                                                 0502
A0101401960000005392521TORRENA, JMY CAR ALCAIDE                                 0501
A0101413150000013434134TAN, APRIL ALLYANA                                       0502
A0101413150000016613622JOHN ONG OR NELLY ONG OR                                10501
A0101413150000016613622ROSARIO ONG                                             20500
A0101413310000005433272SARMIENTO, FRANCES OFELIA S.                             0503
A5001400170000000213954LOPEZ, ISOLDE JT                                         0505
B5001400170000005705244CHAN, PATRI BAJAMUNDE                                    1605
A0101400440000016636983BALUNES, IMELDA PORLUCAS                                 0501
A0101401090000010238552MADDATU, MELLANIE MARTINEZ                               0501
A0301400530193585849001COSMENO, MARINEO C.                                      0502
A0301400660194456048088*****                                                    0506
A0301400790000000436008MANALILI, ANNABELLE LEONOR                               0502
A0301400790000005692106ALDERITE, ROSIGENE O.                                   10503
A0301400790000005692106OR ALDERITE, ARNOLD P.                                  20500
A0101401380201502664001LEY, RICHARD NOEL CO                                     0501
B0101413020000006316930WU, MARK ANTHONY ONG                                     1605
B3101400160221013530024RD PAWNSHOP, INC.                                        1604
A3101400160221451302002IBUNA, ROMMEL AMAGNA AND                                10503
A3101400160221451302002GUERRA, NORVIC NINO IBUNA                               20500
A3101400450000014388782SANCHEZ, SUSAN LAI                                       0501
A3101400450223223458004ALVERO, LEAH AURORA OR                                  10501
A3101400450223223458004ALVERO, MARIA PATRICIA                                  20500
A3101400450223378708001ESCABA, PERLA DIZON OR                                  10501
A3101400450223378708001ALCANTARA, AUREA DIZON                                  20500
A3101400450223466114002NATIVIDAD, GINA DUNGO                                    0503
A3101400740000009966450JARUMAYAN, JARUH HABACON                                 0501
B3101400740000004509535MOLD PARTS MANUFACTURING ASIA INC.                       1605
A3101400870000001712163TUAZON, ALLAN SANTOS OR TUAZON                          10502
A3101400870000001712163EDNA BLANCA ALDIANO                                     20500
A1001400190231520766036ONIPA, JANE ROSE P                                       0501
A1001400190000002170747CABILAO, LORENA BINGCOLADO                               0501
B1901400290000001363188RD PAWNSHOP, INCORPORATED                                1604
A1901400290261309818037JERICO REVERENTE CALIBOSO                                0501
A0101411820000012245691AMY IRENE OFRIN OR                                      10501
A0101411820000012245691CHRISTOPHER FELIX OFRIN                                 20500
B0101411820277048022001FORGEMS MARKETING COMPANY, INC.                          1610
B0101411820000003085094MEDINFINITY INC.                                         1602
A0101411240000016158468TEPACE, JEMA ADORA                                       0501
A0501400200000002306092VICENTE, MARK CYRILL PAGUYO OR                          10501
A0501400200000002306092VICENTE, RUTH GAIL MIGUEL                               20500
A2601400270000001009050BATTAD, AURELIO DBU AUB CONSULT                         10501
A2601400270000001009050MGT&ENGINEERING SERVICES                                20500
A0801400160000001031354DUREMDES, DANIEL JOB                                     0502
A2001400290000011716755DUMALAG, ANTHONY TOLOMIA DBU                            10502
A2001400290000011716755ADS EDGE ADVERTI                                        20500
A2001400290315688009001ALGOPERA, LLOYD GARCIA                                   0504
A3401400280000015108562BAARDE, LOURDES BULAQUINA                                0505
A3401400280318478374006LOVERAS, EMCY DEL ROSARIO                                0510
A0101405650000016904520ONG, PETER                                               0502
B0101405650322020426005LEISURE FARMS TAGAYTAY, INC.                             1605
A0101409050000011558877MONSANTO, PAOLA NOELLE GUEVARRA                          0501
A0201400760000013874894BELTRAN, JOSE EDUARDO PIRAMIDE                           0502
A0201400760000017602290TOLENTINO, MA DEBE GACRAMA                               0501
B0201400760000007134501LAND MOVERS MARKETING AND SALES INC                      1603
B0201401020000003031152VIRLO CONSTRUCTION DEV. CORP.                            1610
A0101408790000005954083CULLADO, MA. CORALYN SAGRADO                             0501
A0101408790000005169115JUAN R. SUMPAYCO MOVERS                                  0505
A0101411660000001145766***********                                              0501
A0101411660000016442643ABARQUEZ, AGNES SINGSON                                  0502
A0101402770000010082521MARCHAN JR., ROSERIO BITANCUR                            0501
B0101402770391009342001ALIWOOD TRADING CORPORATION                              1604
B0101402770000000080635PHILIPPINE SKYBIRD INDUSTRIAL                           11603
B0101402770000000080635CORPORATION                                             21600
A0101405490000016418503MESINA, MARIA TERESINA G. OR                            10502
A0101405490000016418503MESINA, MARIA PAMELA G.                                 20500
A0101405490000006241943MINERVA V. VILLACORTA                                    0501
A0101405490000000355673PASCUA, VIOLETA ZACARIAS                                 0501
A0101408400000018048121AMPONG, MYRA AGUSTIN                                     0501
A0101408400000018038605LAMORENA, MERCY AMOROSO                                  0501
A0101408400394480785001ISIDRO, MA. THERESE                                     10501
A0101408400394480785001ISIDRO, PAULO                                           20500
A0101408950000000472913ANGELES, ARNOLD DIOSDADO SILVA                           0502
A0101408950000003171235ONGKEKO, EDUARDO ERASTO SANTIAG                          0501
A0101408950000014190713YUPINGKUN, LESTER CHINGTOCO                              0501
A0101408950000000776712ALETA, LARA THERESA ALENTAJAN                           10501
A0101408950000000776712OR CASTOR, MARY ANNE                                    20500
A0101408950396389054001LUZ, XERES DIMALALUAN                                    0501
A0101408950000011077762BERROYA, MARIA ANNA GUEVARRA                             0503
A0101408950000000776763LUQUE, MA. PAZ MILDRED                                   0501
A0101408950000001785566MARCIA, JOSE PROTACIO DIJAMCO                            0501
A0101408950396615148001COBARRUBIAS, PAUL DESTREZA                               0502
A0101408950000005325753PEDRAZA, MARIA LAURA SUAREZ                              0502
A0101409180000018034965PUNZALAN TAGALOGON, MELANY DIMA                          0501
A0101409180000018035133ESTOR, PERCIVAL ONA                                      0501
A0101409180000018035268FLORA, ANN LORREIN BAYAN                                 0501
A0101409180000018034943CUNETA, DANILO MARTIN TINIO                              0501
A0101409180000015966382ANA M. ABOGADO                                           0501
A0101409180000015966382ANA M. ABOGADO                                           0501
B0101412210000013721249VATOS URBAN TACOS, INC.                                  1605
A0301400820000007372810GOLIMLIM, MARICHU M.                                     0504
B2401400180411014378001RD HARDWARE & FISHING SUPPLY, INC.                       1601
B2401400180411016835001GENERAL TUNA CORPORATION                                 1605
B2401400180411031958001***********                                              1605
B2401400180000000073663CENTURY PACIFIC FOOD, INC.                               1605
A2401400180411459008001SALES, LYNETH SALVAN OR                                 10501
A2401400180411459008001SALES JR., POTENCIANO                                   20500
A0901400220432754178001**********                                               0501
A5101400100000010371165SARCAOGA, DINO REX PATANINDAGAT                         10502
A5101400100000010371165OR SARCAOGA, MINJOY                                     20500
A5101400100000010371267BARDON, ALLAN PALAHANG                                   0502
B5101400100433821100608**********                                               2003
A0101403030000000320436ZHENG, GUO DONG                                          0505
A0101403030000005944783*********                                                0501
A0101412890000009833690AMERNA, EMMIE MARIE L. OR                               10503
A0101412890000009833690AMERNA, PAUL MICHAEL A.                                 20500
A0101412890000005945071RUSSEL MENDOZA CRISTI                                    0502
A0101406330000006943662TUNDAG, MICHELLE KAY DELA CRUZ                           0501
B0101410140000007303642KABUHAYAN SA GANAP NG KASARINLAN CR                      1610
A0101410140000001074908MEMBERS OF NATASHA (SHOECAT INC                         10501
A0101410140000001074908PENA, DINA Y.                                           20500
B0501400170481018109002CSI WAREHOUSE CLUB INC.                                  1603
B0501400170481025398002COSTSAVER'S SUPERMARKET, INC.                            1603
B1401400110492046339002******                                                   1620
A1401400110492367614001DE MESA, CECILDA LAGAR JT                                0502
A1601400170000002333940JERRY U. PALANCA OR                                     10510
A1601400170000002333940KEITH Y. PALANCA                                        20500
A0701400260000014169116RUSTIA, MA. YVONNE MASBATE                               0502
A0101407430503478374012ANALIE YPANTO                                            0502
A0101403580000013963772MARIANO, JENNY BEE MARASIGAN                             0501
A0101405940000009248039QUIJANO, MELINDA ADECER                                  0501
A0101403450000013846541PATRICK SUN JT                                           0501
B0101403450521011655001SONIC INT'L. INC.                                        1605
B0101403450521011764001**********                                               1602
A0101403610000012445482BERNAL, JOEL TRINIDAD                                    0501
A2201400250561253789002MELIZA TRACY G. FLORES OR                               10502
A2201400250561253789002JOSE ANGELO D. FLORES                                   20500
A0101404130601450094003LORQUEL PASCUAL OR ANNIE                                10502
A0101404130601450094003PASCUAL                                                 20500
B0101404130000012210578LINK RI LOGISTICS INC.                                   1610
A0101407720602165627001DR. ALVIN M. SANTOS OR                                  10502
A0101407720602165627001DR. NORA FIGUEROA-SANTOS                                20500
A0101407720602165627004ALVIN SANTOS OR                                         10502
A0101407720602165627004NORA FIGUEROA-SANTOS                                    20500
A0101407720602283353001ERWIN HERNANDEZ OR                                      10501
A0101407720602283353001AGNES HERNANDEZ                                         20500
A0101407720602340512003EVELYN F. TADENA                                         0501
A0101407720602348840002MACALINTAL, CLAVEL MARANAN                               0504
B0101412180000008320056PHATCHICK, INC.                                          1601
A0101404260611451653004SUNGA, NERY OCAMPO                                       0510
A0101404260611709438001TAN, ERLINDA PALOMER                                    10501
A0101404260611709438001OR RONNEL TAN                                           20500
A0101407690000016370319MENDOZA, TIMOTHY NOEL                                    0501
A0101407690000001919946REBADOMIA, MARIETA - DEALERS OF                         10501
A0101407690000001919946SHOECAT INC.                                            20500
A0101413440000015534973****************                                         0501
A0101406590662617056001KO, ROBINA MARIE ALBANO                                  0503
A1301400210000017422098MAYO, ANNA MARIE WENCESLAO                               0501
B1301400210000008173933***                                                      1604
A1301400210682245097001*****                                                    0502
A1301400210682340751001WILLY & WILFRED GO & JANETTE                            10504
A1301400210682340751001ATENDIDO & WILLI                                        20500
A1301400210682563583001CAROLINA C. VALENTINO                                    0501
A0101408240000009452848DE VERA, BENJAMIN SERAFICO JT                            0501
B0101408240711023642001SAM SUNG PHILIPPINES CO., INC.                           1602
A0101408240000007478262GALINDEZ JR., GODOFREDO RAZON                            0501
A0101408240711542230001ADRIANO, GLENDA TULAY                                    0501
A0101408240711594284001TALANTOR, MA VILMA ERISPE                                0502
A2801400100712701754001DALIT, MADONNA VERSOZA                                   0501
A2801400230000009021987VELASCO, PHI JT                                          0510
A2801400230000011730420GURAY, ANITA BASA                                        0502
A2801400230000014314273GUANCIA, RACHEL SALVAN DBU                              10501
A2801400230000014314273GRANDIYOSA SALON                                        20500
B2801400230713045988001NGE TRADING                                              1602
B2801400230713821100608**********                                               2002
A4101400260000018040001ASTORGA, JEROSAMIE GUMATA                                0501
A4101400260000018040170BAUTISTA, ELVIRA CESAR                                   0501
A4101400260000018040283CALAGUAS, JIM MICHAEL TELOZA                             0501
A4101400260000018040443MARAVILLA, MARILYN UNCIANO                               0501
A4101400260000018040541RAZON, MARIA CHRISTINA TANALA                            0501
B4101400390000003346187PAGASA PHILIPPINES LENDING COMPANY                       1603
B4101400390000006103548IZU VUUM, INC.                                           1602
A4101400420000014280003DURAN, RODOLFO MONGALO DBU                              10501
A4101400420000014280003FIXED AND SEALED BUILDING                               20500
A4101400420814520766028BASILOY, VILMA                                           0501
A4101400420000006643490LA AS, NORA P.                                           0501
A4101400550000004846824PANGAN, S DBU SDP REALTY                                 0503
A0101420680000016277351LUI, JIN LONG                                            0502
A0101412340000008947151MARIA LORNA C. PESONS                                    0502
A0101404840851334120001MARY ANN R. PANGAN OR                                   10501
A0101404840851334120001JOHN NOEL PANGAN                                        20500
A0101406750000016396453MONJARDIN, ALLEN RAINALD RUBIO                           0501
B0101406750000005608595METROWIDE HOMEBUILDERS, INC.                             1650
B0101406750000007097227BRIA HOMES, INC.                                         1610
A0101405070000016659151LI XIN LI ONG                                            0501
A0101405070000017210821DONGHO LEE                                               0501
A0101405070000017717796RECHE DEALOLA LAGURIN                                    0501
A0101413860000007255970BATANGAN, HAZEL JOY CUCIO                                0502
