A3001400130000000007041CHAQ GLASS & ALUMINUM SUPPLY                             0501
A0101409050000000022420JERGEN B. MACUJA                                         0502
A0101413440000000038151EFREN F. FADERANGA                                       0501
A0101408790000000039154ROMEO R. LIM JR.                                         0501
A1001400480000000041443ENRIQUEZ, JANI DBU EIE MACHINE                           0501
A1001400190000000124803FANTONIAL, MERILY H.                                     0501
A0601400360000000225221ALFONZO, MA. AILEEN CABALANG                             0501
A0101402350000000443252********                                                 0501
A0201401020000000470193LOUIE PENA'S TRAVEL TOURS & EVE                          0501
A0101412180000000501511YU, VENGIE TUPAZ                                         0501
A0101404260000000532283UNI STOP DRUG & GENERAL MERCHAN                          0501
A1001400480000000606819TAN, LYDIA OR TAN, OLIVER                                0503
A0101413440000000702156PASOS JR., ARSENIO WANIA                                 0501
A0101410850000000844713MISLANG, GINA LOMBOY                                     0501
A0101401250000000907175LUCTO, DIOSA SUAZO                                       0501
A2601400270000001009083MERNELLY R. RAFAEL                                       0501
A1001400480000001054700MEJARES, DARCY GARREN GAID                               0502
A0101404130000001173671KING, WYDEN R. OR KING, AIDA L.                          0502
A0101409180000001237285LACSICAN, CRIS JUDE BUCOL                                0502
A0101410690000001284402TRIP HELPMATE TRAVEL AND TOURS                           0501
A0101400860000001348625**********                                               0501
A1101400120000001547337ALDIANO, FLORDELUNA LATO                                 0503
A0101407270000001596865CHRISTOPHER B. SUCGANG                                   0501
A0101401090000001618840POLICARPIO, MARIA REGINA LLAMAS                          0501
A0101413150000001688559******                                                   0501
A4101400260000001783924GARCIA, GEWYN RAMOS                                      0501
A3101400160000001792043DAISY S VILLALOBOS                                       0501
A0101403320000001803043AQUINO, OLIVER MICO LACONICO                             0501
A1301400500000002063952DANCALAN, BERNIE DECLINES                                0503
A0101408400000002273281BATACLAN, MAILENE VILLASIS                               0501
A0101402350000002310598MAMARADLO, ROZALINA DE VERA                              0501
A2801400230000002312312GONZALES, KRISTINE CARMELA FERR                          0501
A0101411080000002343911***********************                                  0503
A0101400860011478374008LEONORA MACARANAS                                        0501
A0101400860011498256002**********                                               0502
A0101400860011534620001**********                                               0501
A0101400860011546416001**********                                               0501
A0101400860011568203001**********                                               0503
A0101400860011610224001**********                                               0505
A0101400860011799843001**********                                               0501
A0101405810072367597002WANG, GUO YANG                                           0502
A0101405810072393833001**********                                               0501
A0601400100081251939002ELIZARDO OR WILMA MARTINEZ                               0502
A0601400100081604957001BARREDO, ELIZABETH OMBAO                                 0502
A0101400730111386485076MERLITA P. CARANGUIAN                                    0501
A0101401830141206947001ADELA M. ROBLES                                          0501
A0101401830141621041001MONTEZA, RETHELGE BOOC                                   0501
A0101400440161478374164ELVIRA M. ABUD                                           0501
A0101400440161478374198EUFRONIA I. BERGONIA                                     0502
A0101400440161520766084GODELINA C. AQUINO                                       0501
A0101400440161525001060LANI P. LOPEZ                                            0501
A0101407140213312567001**********                                               0503
A3101400450223265260001REAL, AILEEN ALFONSO                                     0502
A0101401670271216325001VITALIANO N. AGUIRRE II                                  0501
A0101401670271380919001NACAGUE, MARY CHUA                                       0501
A0101401670271452929168***********                                              0501
A2001400290315688009001ALGOPERA, LLOYD GARCIA                                   0504
A0101402350321036762001TRADE SPECS BUILDERS                                     0503
A0101402350321179559001SEVERO LOPEZ                                             0502
A0101402350321327884001ANG, MONICA CHOY                                         0501
A0101402350321331009001SIANY P. PADURA                                          0502
A0101402350321354933003YOLANDA UY                                               0501
A0101405650322554948001BOLANOS, MARITES ALELIGAY                                0501
A0101408820333335130001ANTONIA S. GORRE                                         0502
A0101402510341204644001DE NULLY, CORAZON MORANTE                                0504
A0101402640361528148001TOLENTINO, TERESITA CORPUZ                               0502
A0101402930381538014001MA. JANICE R. TIONKO                                     0502
A0101408370382372061001DR. ELSA S. DIONISIO                                     0503
A0101409210398785387001GERONIMO, RICHARD SANTIAGO                               0502
A2401400180411606598001ESCONDE, MERLINDA MIOMIO                                 0501
A0101403030441239399001**********                                               0502
A0101412890470511412001TORRES, NELSON DOGILLO                                   0501
A0101403320471478374079FILEMON R. SANTOS                                        0503
A1401400110492600851001DE VERO, ROBERTO TANEDO                                  0505
A0101408110515708875001DR. JAMIE ISIP CUMPAS                                    0502
A0101408530516494431001******************                                       0502
A0101403450521478374003GALANG, LILIA VILLENA                                    0501
A0101407720602396506002DR. ESTELA Z. CABRERA                                    0501
A0101404260611046855001PRIMEPOWER TRANSPORT SERVICES                            0510
A0101404260611151882001NATIVIDAD B. TALUSAN                                     0501
A0101404260611344625001BESMONTE, ARLENE TAN                                     0502
A0101404260611461489001OBNIAL, ARLENE OPERIO                                    0501
A0101404260611478374029EVELYN M. DELFIN                                         0501
A0101404260611478374115FE S. BONDOC                                             0501
A0101406590662289338001KIM C. DINO                                              0503
A0101406590662317770001NUVAL, CYNTHIA DALAO                                     0502
A0101406590662679888002*****                                                    0501
A0101407560686339091002EVANGELINA C. LACAY                                      0502
A0101407560686397170001MENDOZA, MANUEL OR ANALYN                                0501
A0101408240711432303002PADILLA, BERNADINE BALUYUT                               0501
A4101400390813246359001LEGASPI, NORLINDA RODRIGUEZ                              0501
A4101400390813246359002LEGASPI, NORLINDA RODRIGUEZ                              0502
A4101400390813378814001GIGI D. ABOGADO                                          0501
A0101404840851478374115ERLINDA O. PRADO                                         0501
A0101412890000000371497EDGARDO B NEPOMUCENO OR                                 10501
A2601400270000000561762EDGAR M. ROSETE OR EMELITA R.                           10502
A0601400360000000978890DIZON, EMMER CRUZ DBU BREA                              10502
A0101412890000001056393GERONIMO, M DBU A.M.-M.A'S                              10501
A0101405650000001912027GUADIZ III, TEOFILO ESTRADA                             10505
A0201400760000002047041ANG, STEPHANIE JOIE JAYME                               10501
A0101406590000002277483EVENSIA EVENTS MANAGEMENT &                             10501
A0101404840000002327835DIMZON, ARNEL BEATRIZOLA OR                             10502
A0101400150000002394738CANO, MARIA THERESA R. OR                               10501
A0101400150000002394772BORSIGUE, RYAN F. OR                                    10501
A0101400150061671519001BUHAY, TELESFORO BERNAL AND                             10501
A0601400100081251812001CAPATI, EMILIA L. OR                                    10504
A0101400730111478374112STO DOMINGO, CONSTANCIA                                 10501
A0101400310211054567001SIA, JENNIFER DBU GLOBAL PROMO                          10505
A0101401670271517856001CHUA, MICHELLE NACAGUE OR                               10501
A0101400570281360975001DR. NERISSA A. DE JESUS OR                              10503
A2001400290315042654001GFR TIRE SUPPLY AND SERVICE                             10502
A0101402350321025863001PROGRESSIVE MASON CLUB                                  10501
A0101405650322211688001PEDRO C. DUMANA JR. OR                                  10502
A0101405650322634117002B.ESPIRITU OR E.ESPIRITU OR A.                          10501
A0101407720602283353001ERWIN HERNANDEZ OR                                      10501
A4101400390813506856001CALDEJON, NESMON DAVE        OR                         10502
A0101412890000000371497IVY B BENDAL                                            20500
A2601400270000000561762ROSETE                                                  20500
A0601400360000000978890TRADING AND GEN. SERVICES                               20500
A0101412890000001056393BAKERY                                                  20500
A0101405650000001912027OR GUADIZ, GEORGINA R.                                  20500
A0201400760000002047041OR JAYME, STEPHEN                                       20500
A0101406590000002277483CONSULTANCY SERVICES                                    20500
A0101404840000002327835DIMZON, AIREEN FACELO                                   20500
A0101400150000002394738RESMA, DOMINGA A.                                       20500
A0101400150000002394772BORSIGUE, ANN MARIE M.                                  20500
A0101400150061671519001ARIGO, MYRA NOCH                                        20500
A0601400100081251812001SANGALANG, HAZEL                                        20500
A0101400730111478374112CHARLENE                                                20500
A0101400310211054567001& DISPLAY CONCEPT                                       20500
A0101401670271517856001NACAGUE, MARY CHUA                                      20500
A0101400570281360975001LEONCIO NILO P. DE JESUS                                20500
A2001400290315042654001CENTER                                                  20500
A0101402350321025863001(SOUTH MANILA CHAPTER)                                  20500
A0101405650322211688001DELIA S. DUMANA                                         20500
A0101405650322634117002OCAMPO OR C.DE CASTRO                                   20500
A0101407720602283353001AGNES HERNANDEZ                                         20500
A4101400390813506856001CALDEJON, CHRISTOPHER NED                               20500
B0101402350000000046051ALLSTUFF TRADERS INC.                                    1603
B0101402350000000046108ABSOLUTE INDUSTRIAL SOLUTIONS, INC.                      1601
B0101406750000000090811AUTOCIRCULO CORP.                                        1610
B0101411110000000604904TENDER LOVE CORPORATION                                  1601
B0101407270000000830506HANSBURY, INC.                                           1605
B0101407270000000830551POULTRYMAX INTEGRA, INC.                                 1605
B0101407270000000830562HADDOXWIND, INC.                                         1605
B0101406590000000905511MAINEVENT AND MARKETING CORP.                            1602
B0101400860011033269001A-LIST GLOBAL CORP.                                      1605
B0101401700041024357001*****                                                    1603
B0101400150061010910001CASENT REALTY & DEVELOPMENT                              1603
B0101400150061040628001ARPAPHIL SHIPPING CORPORATION                            1601
B0101405810072011448001**********                                               1602
B0101405810072029570001PLASTIC CONSUMERS CORPORATION                            1602
B0101405810072361051001**********                                               1602
B0101405810072412798001**********                                               1603
B0101405810072412798002**********                                               1603
B0601400100081256915004WILLIAM G. KWONG OR ANTONIO, ADELA                       1603
B0601400100081335078001RUSH, MIRIAM OSTONAL                                     1605
B0101400730111005722003MANILA TEACHERS SAVINGS AND LOAN                         1610
B0101401830141019452001CARITAS MANILA, INC.                                     1610
B0101401830141037520001DLPRO PHOTOGRAPHY                                        1601
B0101407270162019051003EXPRESS COMMISSARY INC.                                  1605
B0101407270162019052003DELICHICKEN CORP.                                        1605
B0101407270162019072003QSR CORPORATION                                          1605
B0101407270162019632003MEGATRONIX TRADING INC.                                  1605
B0101407270162031511003MEGA DYNAMIC TRADING INC                                 1605
B0101407270162045960001MEGA WOOD COMPANY, INC.                                  1605
B3101400160221028210002GOLDEN DRAGON MOTOR SALES CORP.                          1601
B3101400450223365119003VICTOR HUGO ENERGY CORPORATION                           1601
B0101406620273047822001ROCKHAUS REALTY AND DEVELOPMENT INC                      1601
B0101409180397044045001CACHO CONSTRUCTIONS, INC.                                1602
B0101407430503414740001ORBIT AIR SYSTEMS, INC.                                  1610
B0101403580511015363081MEC - SUNTRUST PARKVIEW                                  1610
B0101403450521011749001TWF CUSTOMS BROKERAGE CORPORATION                        1610
B0101404130601035458001CITYLAND CONDOMINIUM VIII, INC.                          1605
B0101404130601037502001JS PHILIPPINES GLOBAL CORPORATION                        1602
B0101404260611027402002ENTRUSTED CORP                                           1605
B1301400500684046206001TRIGON ENTERPRISE                                        1601
B0101408240711025397005KINGSMEN CORPORATION                                     1607
B2801400100712028150001SUBIC NEXUS TECHNOLOGIES INC.                            1603
B0101406750852041203008AUTOCIRCULO CORP.                                        1610
B0101411530000000581500EMILY MARIANO OR KRISTINE ABDON OR                      11602
B0601400100081256915005KWONG, WILLIAM G. OR                                    11604
B0101401830141029955002SHELL EMPLOYEES MULTI-PURPOSE COOP. -                   11605
B3101400160221045295001PANASONIC PRECISION DEVICES PHILS. CORP.                11601
B0101402350321041173001GO TEC INTERNATIONAL BUSINESS SCHOOL,                   11602
B5501400120410044567001RASAY INSURANCE AGENCY AND GENERAL                      11601
B0101411530000000581500KATRINA TORRES                                          21600
B0601400100081256915005ANTONIO, ADELA                                          21600
B0101401830141029955002CANTEEN                                                 21600
B3101400160221045295001WORKERS UNION                                           21600
B0101402350321041173001INC.                                                    21600
B5501400120410044567001SERVICES                                                21600
B0101405520442821100608**********                                               2005
