A1101400120000000652351YAO, RONALD PHILIP GO                                    0502
A1301400760000013988179GRASSTONE TRADING                                        0501
A0101407720602271723010LUZ LACUNA-TAMAYO OR                                    10508
A0101407720602271723010EDMUND B. TAMAYO                                        20500
A0101407720602318369072RUTH B. ORILLAZA-CHI                                     0501
A0101407720602342846003ABLIS-SUN, MARIA LENA DIMAANO                            0501
A0101407720602396465001CRISOSTOMO, THELMA DIMALANTA                             0512
A0101407720602479774001JOSE MARIA L. ANSON OR                                  10502
A0101407720602479774001MA. CECILIA D. ANSON                                    20500
A0101407720000005100172ESTRELLA, RICO DE CASTRO OR                             10502
A0101407720000005100172CANLAS-ESTRELLA, KATRINA                                20500
A0101407720602598618001MELLANIE L. VALDEZ OR JAHN                              10501
A0101407720602598618001FELICISIMO ATAYDE                                       20500
A0101404840851520122001TAYAWA, PERPETUA CARPENA                                 0501
A3101400450000014029966MARABE, BAYANI ROCAFOR DBU                              10501
A3101400450000014029966SHOOTING STAR TRADING                                   20500
A2001400290000002406651NG, CHRISTOPHER SO OR CHUA,                             10501
A2001400290000002406651MICHAELANGELO CHEE                                      20500
A2001400290000011716755DUMALAG, ANTHONY TOLOMIA DBU                            10502
A2001400290000011716755ADS EDGE ADVERTI                                        20500
A2001400290315043878001GREATLIFE INNOVATIONS MARKETING                          0501
B0101402060351015147001PAN EUROPE EXPORT                                        1601
A0101409050000008087510MANACOP, ANA MELODIE FONTANILLA                          0502
A0101408400394480228001TACORDA, SUSAN LOPEZ                                     0502
A0101410300000006278813ZABALLERO, TEODORO Z. OR                                10501
A0101410300000006278813ZABALLERO, DORCAS JT                                    20500
A0101404840000004565771TORRES, ANTO DBU TORRAB TRADING                          0501
A0101401250000000441052ONGSUECO, SYLVIA K.                                      0502
A0101401250021180387001********                                                 0501
B0101400150061011181001BIO MINERALS DEVELOPMENT CORP.                           1603
A0101400150061039916051HOTCHKISS III, WILLIAM OR                               10501
A0101400150061039916051HOTCHKISS, MA TE                                        20500
A0101400150061226656001EVYLENE C. SISON                                         0501
A0101405810072234892001**********                                               0501
B0601400100081200942002CHENG, SZE KIT                                           1605
A0601400100081358072002NOEL C. DAVID                                            0505
B0101410560000000757240BEATRIZ BALTAZAR & LETICIA GARBILES                     11601
B0101410560000000757240& CORAZON FELIX                                         21600
B0101410560110821100608**********                                               2003
A0101400730000004948592MEMBERS OF NATASHA(SHOECAT,INC)                         10501
A0101400730000004948592GLORIA C. GLORIA                                        20500
A0101400730111477188001FRANCO, LENITA DELOS SANTOS                              0502
A0101406040112559350002ORALLO, EMMANUEL HASEGAWA                                0501
A0101401960000005392496LAPORE, ROMEO FELIPRADA                                  0503
A0101413150000003868264*****                                                    0501
A0101413150000003208335******                                                   0502
B0101412630000007157782CABUNGCAL, ANA MELISSA H. AND SYFU,                     11601
B0101412630000007157782FERDINAND Y.                                            21600
A0101413310000001928936CABANSAG, ARMEL CABANATAN DBU                           10505
A0101413310000001928936AVIATOURS TRAVEL                                        20500
A5001400170000000045014GAWCHUA, EDDIE YONG OR                                  10501
A5001400170000000045014GAWCHUA, CESAR YONG                                     20500
B0101400440161019210001UKC COMMERCIAL PRESS, INC.                               1601
A0101407270000004915908LORENZO, TRICIA MARIE SOLANOY                            0501
A0101407270162086660001******                                                   0503
A0101407270162621829001RALPH MARVIN MENORCA OR                                 10501
A0101407270162621829001CYNDY CLARENCE M                                        20500
A0101401090000001618662EDIFIIEZ SUN BUILDERS                                    0502
A0101401090171345675001ROSETE, MARIE ANTOINETTE L.                              0501
A0101401090171427601002PAYURAN, JOANNA LISSA FANG                               0501
A0301400660000006862920BARIO, AIDA LLANA OR BARIO,                             10502
A0301400660000006862920ELITO SABAS                                             20500
A0301400790000001776116GLORIA, JONALY GARCIA                                    0501
A0301400790000012273886PAMAONG, DENNIS ALOMARDE                                 0501
B0301400790000000040860SO, CECILEEN CHUA DBU JLAC DISTRIBUTION                 11601
B0301400790000000040860SYSTEM                                                  21600
A0301400950000006080348********                                                 0501
B0301400950000011415062TIPICON ENGINEERING INNOVATIONS                          1601
A0101413020000000880422LIM-ESTOROSOS, VICKYLYN CHUA                             0501
A0101412500000002304741****                                                     0501
A3101400160000014057126FERNANDEZ, JAMES CEDRIC M.                               0501
B3101400160221019509001DYNASTY ALUMINUM, GLASS &                               11601
B3101400160221019509001GEN. MDSG CORP.                                         21600
A3101400450000013739461EMEROSE MARIE A. VILLANUEVA                              0501
A3101400450000013898583ALCALA, MARIA RICA SHELA OR                             10501
A3101400450000013898583RUIZ, AIZA BIBAT                                        20500
A3001400130230478374004BALABA, JANETH BORJA                                     0501
A3001400130000010506548BULADACO, RUBY MADRIO                                    0501
A1001400190231380503001JANA JOY TUSALEM                                        10501
A1001400190231380503001PHILAMCARE DOCTO                                        20500
A1001400190231520766112ALIBIO, NELYBETH TACBOBO                                 0501
A1301400760000000007285ELVIN G. TAMAYO OR                                      10501
A1301400760000000007285REYNALDO P. TAMAYO JR.                                  20500
B1301400760000010656881PRIME YIELD SERVICES & LENDING CORP                      1602
B1301400760000000050860ENCORE LEASING & FINANCE CORP.                           1601
A0101406460272083012020*************                                            0501
A0101406620000000577106CALANTUAN III, BENIGNO TOGONON                           0501
B0101411240283004670001GRAND LARAIN PRODUCTIONS CORP.                           1602
B0101411240283069724001ORANGE PILL CREATIVE AGENCY INC.                         1602
A2601400270000010433820LAO, BEN BULAN                                           0505
B1101400120313039185001COASTALVIEW FOODS CORPORATION                            1602
A6601400120000003642846FLORESCA, MANOLITO ESTERNON DBU                         10505
A6601400120000003642846RMF SARI SARI STORE                                     20500
A2001400290000001557575VILLABERT, ROSITA TAN OR                                10501
A2001400290000001557575VILLABERT, WINST                                        20500
A3401400280000004959139MIRANDA, GREGORIO MERCADO                                0501
A2901400130000009071927TABERNILLA, TERESITA PASCUAL                             0501
A0101402350000012300400DUMLAO JR., ROGELIO BASILIO                              0502
A0101405650000000525831GONARANAO, SITTIEAISAH ZAMAN                             0501
A0101405650322172164002AQUINO, CHRISTIAN CASTRO                                 0502
A0101402510341196670001NATIVIDAD Y. DELA CRUZ                                   0501
A0101402060351319977002PANGAN, ANICETO KWONG                                    0510
A0101409050000012409540IBABAO, RICHARD FLORES                                   0502
B0201400760374046291001FRASEC VENTURES CORPORATION                              1601
B0201400920375035583001DENISA FOOD PRODUCTS                                     1602
A0201400890376080642001GALANG, LORLIE PACURIBOT OR                             10505
A0201400890376080642001GALANG, GLENN AN                                        20500
A0201400890376516567001SANCHEZ, JULIUS OUANO                                    0501
A0101402930000002269116GAN, EMMA MALOU LIM                                      0501
A0101408790000005251092PACSON, CHARLYN MAE PALLANAN                             0504
B0101408790383084533001AVISO VALUATION & ADVISORY CORP.                         1602
A0101411660000006727666MA CECILIA SISON                                         0503
A0101411660000005324287DAVALOS, AIZA SAN JUAN                                   0501
A0101408400000007264533DULNUAN, RHONA MARIE HAGUILING                           0502
A0101408400394448107001MATUTINA, CARINA UMLAS                                   0502
A0101408400000005286331SALINIO, NARCISO MANTIQUILLA                             0504
A0101408950396648660001DELA PENA, ARTURO SILVA                                  0501
A0101409180000003780701LIM, ROCKFORD TUPAZ                                      0501
A0101409180000009541802WALKER, ANDREW                                           0501
B0101409180397063136001COFFEE TABLE INC.                                        1620
A0901400220000011299251SKIN ONE                                                 0501
B0101403030441011894001REXSSEL AUTO PARTS CENTER                                1601
B0101412890000001765288FIGUEROA, ANNE JAMACA ROBLES AND ROBLES,                11601
B0101412890000001765288JOHN MERWIN                                             21600
A0101403320000013753829ESPINAS, MARIA LEONORA F.                                0501
A0101403320000014054201NANCY L. AGAWIN                                          0501
B0101403320000012881813SCHEIRMAN & CRUZ CONSTRUCTION INC.                       1608
B0101403320471009122001ELDRICH FOODS CORPORATION                                1603
A0101403320471205840001*****                                                    0504
A0101403320471207027001NOREEN FORTUNO OR                                       10501
A0101403320471207027001DIVINA FORTUNO                                          20500
B0501400170481016209001DAGUPAN FILCO MERCHANDISING                              1602
B3801400170000000018788MINDORO PPA EMPLOYEES MULTI-PURPOSE                     11605
B3801400170000000018788COOPERATIVE                                             21600
A1401400110000000132841*******                                                  0501
A1401400110000001806964SY, LILIBETH NG                                          0501
A1601400170000000497592MARLYN A. RELINGADO                                      0501
B0101407430000001213169FAST LANE INTERNATIONAL LOGISTICS INC.                   1602
A0101407430503400472001MILAGROS B. TOMAS                                        0501
B0101403580511042027001BEACON SOLUTIONS, INC.                                   1603
A0101403580511716577001LEONIDA A. CONCEPCION                                    0502
A0101405940000000061732BARRIENTOS, JONATHAN DBU                                10502
A0101405940000000061732ANJANA TRADING                                          20500
B0101405940000008479030MY ONE BAHAY CORPORATION                                 1602
A0101408530000000136143PERMALINO, LARRY OBLEFIAS                                0501
A0101408530516543430058STEVEN T. WANG                                           0501
A0101408530000000489823MARIE ARVI T. ALIAS                                      0501
A0101408530516670117001NONOY, MERLY JUMAMIL                                     0501
A0101411790000014058716PARRENO, ANGELO ESPIRITU                                 0501
A0101412050000011929163GARCIA-DE LEON, LEANDRO LUIS ES                          0502
B0101403450000013091606***********                                              1610
B0101403450521024382001KERRISDALE LANDS CORPORATION                             1602
B2201400250000002924741ZUVIN GEN. MERCHANDISE                                   1601
B0101410690000000305291MENOLD MARKETING CORP.                                   1603
A0101404130000000165104SANTOS, MARJORIE GAY DIAMANTE                            0502
A0101407720000004664882PARRA, OPHELIA DUCUSIN                                   0501
A0101412180000000908463SORIANO, JOIE PARAGAS                                    0501
B0101412180000007360449PREMIERE GLOBAL LAND REALTY 888 INC                      1603
B0101412180000001293130BLADESANDBOWS INC.                                       1607
B0101412180000008320125APPLE AIR TRADING INDUSTRIES INC                         1603
B0101404260611020600001MAKATI SAVINGS COOPERATIVE                               1610
B0101404260611027402002ENTRUSTED CORP                                           1605
A0101404260611293516007ESGUERRA, SOLOMON CARIDAD                                0501
A0101407690000010774473DIEL, AMOR DALAYAP                                       0502
A0101407690652478374034EDNA D. PENALVER - DEALERS OF                           10501
A0101407690652478374034SHOECAT, INC.                                           20500
A0101407690652609264002DE JESUS, AUGUSTO OR MILA                                0505
B0101413440000001085621R-II BUILDERS, INC.                                      1603
A0101413570000000206351**********                                               0501
A0101413990000006278077PANGA, MARIA SHEILA F. OR                               10501
A0101413990000006278077PANGA JR., SALVADOR S.                                  20500
B0101413990000000206099DELUNA BROTHERS CONSTRUCTION CORPORATION                 1603
B0101413990000006498139K BEST FOOD INNOVATIONS INC.                             1603
B0101413990000008250042K BEST FOOD INNOVATIONS INC.                             1603
B0101413990000003182534ANDL ENTERPRISES INCORPORATED                            1603
B0101410300000005331737VETS IN PRACTICE, INC.                                   1610
A1301400340683431327001*****                                                    0501
A1701400230000012227251ANG, ENRICO FORMOSO OR ANG,                             10501
A1701400230000012227251MARY ANN LIU                                            20500
B0101408240711026270001BLUE FAIRY INC.                                          1604
B0101408240000000832893WOWA'S FAST FOODS INC.                                   1610
A0101408240711377091002AARON LITONJUA                                           0501
A2801400100000000004731ESCOTO, JESUSA DALIT                                     0501
B2801400100712021347001SBR IMPORT EXPORT SPECIALIST INC.                        1603
A2801400230000000008266PAYUMO, AMADEO REYES                                     0502
A4101400260000012864490CUENCO, CHRISTIAN JOY GANADEN                            0501
B4101400260000005724103JEASY FASHION CORP.                                      1603
A4101400420000009343142DE LEON, RYAN BISONA DBU                                10501
A4101400420000009343142KATHRIAN WELLNESS CENTER                                20500
A4101400420814520766085ANNALIZA P. PRADO                                        0502
A4101400420814768923001VIRTUZ, SALVADOR ABAQUITA OR                            10502
A4101400420814768923001VIRTUZ, REBECCA                                         20500
A0101404840000003409772LELIS, FRANCIS ANTIADO                                   0501
B0101404840000001312463LF GLOBAL LOGISTICS SOLUTIONS INC.                       1602
A0101406750000000172774DELA CRUZ, LUALHATI ANGELES                              0501
A0101406750000008644264ILAGAN, ALODIE                                           0501
B0101406750852023287001DCM OVEN, INC.                                           1606
B0101405070861026394008TRAVELLERS INSURANCE & SURETY                           11605
B0101405070861026394008CORPORATION                                             21600
A0101405070861196343001EDGARDO DAVID OR ANGELINA DAVID                         10505
A0101405070861196343001OR MARY ELAINE D                                        20500
