B0101405780212821100608**********                                               2005
A1001400350233478374001JUNIO, ROGELIA A.                                        0501
A1001400350233777505001CESAR, NEMAS ACERA                                       0501
A1101400120000000652380CAYUBIT JR., SERAFIN ASERON                              0502
A0101400440161039572010MYRNA A. CANELAS                                         0501
A0101400440161525001159MARITES P. MONTALBAN                                     0503
A3401400280000003309219ROMULO D. CAPUNONG OR RUELYN C.                         10502
A3401400280000003309219EDUQUE                                                  20500
A0101412890000004345146ORTIZ, ANGELO ENCISO                                     0502
A0101412890000005944892RICO, MARITES TAYAMORA                                   0501
A0101400150061232138002ADRIENNE P. BORROMEO                                     0502
A0101400440161298552121MILMA M. QUIAMBAO                                        0501
A0101400440161520766184MA. RENITTE D. ROMA                                      0501
A0101400440161525001139JEMARIE S. SALUDAR                                       0501
A0101400440161619378001AMERIZA G. MACALINO                                      0505
B0101401670271389719001PHILREM SERVICE CORP.                                    1605
B0101406460272021223001ORION INDUSTRIES INC,                                    1602
A1101400120000000652620GO, COCAINE Y. OR                                       10502
A1101400120000000652620GO, NICHOLAS JAS                                        20500
B1101400120000000653150PERPETUAL HELP MULTI-PURPOSE COOPERATIVE                 1603
B1101400120000000653161PERPETUAL HELP MULTI-PURPOSE COOPERATIVE                 1603
B1101400120313036439002ACME BUILDERS CORPORATION                                1605
A1101400120313478374004ALBESA, JONALYN D.                                       0501
B6601400120000003084751THE ROMAN CATHOLIC BISHOP OF CATARMAN-                  11601
B6601400120000003084751DSAC ALAY KAPWA                                         21600
A2001400290000002319622TAMPUS, MARIA LORENZA GALETTI                            0501
A0101405650000000525751ZAFRA, APRIL ROSE PENALBA                                0501
A0101405650000000772947JAVILLONAR, MILAGROS CASTRO                              0501
A0101402930381206550002MARIETTA A. PANALIGAN                                    0503
A0101412890000005913242BELVIS, GOODY LACSON                                     0502
A4101400550000000506814DALAGAN, CATALINO B. OR                                 10504
A4101400550000000506814DALAGAN, TERESITA S.                                    20500
A0101400150000003600973MEDRANO, DAXS TANCINCO                                   0501
A0101400150000001708043PESCADERO, SHERWIN ALICARTE                             10501
A0101400150000001708043OR APELADO, LUNINGNING                                  20500
A0601400100000002365551STO DOMINGO, JEFFRIE ALCOBENDAS                         10502
A0601400100000002365551OR STO DOMINGO,                                         20500
B0101410560110045481001JESUS REIGNS MINISTRIES (JRM)                           11601
B0101410560110045481001FOUNDATION, INC.                                        21600
A0101413150000000038548******                                                   0501
A0101412920000005354150EUSEBIO, RAZEL ANN JOYCE MATREO                          0501
B0101407270162059581001PALM CORNED BEEF CORNER INC.                             1603
B0101401090171037028001MENDOZA & DEL MUNDO JANITORIAL                          11602
B0101401090171037028001SERVICES                                                21600
B0101401090000000210482BLUMEX PLUS CREDIT INVESTOR INC.                         1605
A0101401090171540673001YUMUL, MARICAR PINEDA                                    0502
A0301400530000002318509********                                                 0503
A0301400530193504844111********                                                 0503
B0301400530193720243088********                                                 1603
A0301400660000001113795VILLADAREZ, RICHARD RANIS                                0501
A0301400790000001776138ESCAMIS, JOSE PACLAR DBU                                10502
A0301400790000001776138ESCAMIS BUILDERS                                        20500
B0301400790000003969273HISOLA, MERELOU L DBU MH CONSTRUCTION                   11601
B0301400790000003969273SUPPLIES JT                                             21600
A0101401380000005219825ZHANG, ZIHAO                                             0501
A0101410720653327735001ABESAMIS, CHITO RAMOS                                    0504
A0101410720653505147001****                                                     0501
A0101410720653579026001PROLOGO, JORDAN CAMINO                                   0502
B3101400160221031027001ALLIED DOCTORS FOOD RESOURCES, INC.                      1605
B3101400160000001169295GCDRIVE INDUSTRIAL  CORPORATION                          1602
B1001400190000002170849SY, STEPHEN                                              1605
A1001400190231028130001CALINGASAN TRANS                                         0510
A1001400190231478374086LORNA A. OMANDAM                                         0502
A1001400190231478374159TILLO, ROMEO B.                                          0501
A1001400190231520766105ABUCAYON, MEBB BALA-ON                                   0501
A1001400480000000133348ALIPAR, MA. NEDIE D OR                                  10501
A1001400480000000133348ALIPAR JR., JUAN R                                      20500
A1001400480000003357679SUMANDO, EXEQUIEL MANUEL                                 0505
A1301400760000003415676LOURDES DAY S. MESDE OR                                 10503
A1301400760000003415676LOUIE S. MESDE                                          20500
B1301400760000000050842VICTOR R. DEL ROSARIO RICE MILL CORP.                    1602
B0101406460272015262001*********                                                1603
A0101406460272391534001MA. VICENTA G. NAVAL OR                                 10503
A0101406460272391534001COSME ILDEFONSO NAVAL                                   20500
A0801400160000002287578************                                             0501
A0801400160311413609001LIM, JOSEPH PO                                           0505
A6601400120000000060711SIXTO ESPINA III OR                                     10501
A6601400120000000060711LYRA FAY ESPINA                                         20500
A6601400120000001370489LOVINO, LYUBIM FALCOTELO                                 0501
A0101405650000002960810LIMCAOCO, RAFAEL ACUNA                                   0502
B0101405650000000772652MARY MOUNT SCHOOL                                        1605
B0101402510341008068001CEUFAWU - GENERAL FUND                                   1605
A0201400760000002309582BELDA, RICARDO LIMORAN                                   0501
A0201400890376039699001MERIT GAS NETWORK CORP.                                  0501
A0101408370000000335493DRS.CARYCE EMMA G. JURIDICO OR                          10503
A0101408370000000335493JOHN FELMORE A. JURIDICO                                20500
A0101408370382391971001DR. MANUEL FRANCISCO T. ROXAS                            0504
A0101411660000005323922********                                                 0502
B0101405490392030409001RRS ELECTRIC CORPORATION                                 1605
A0101408400000001855381ABSA BUILDERS                                            0502
A0101408400394542845001PINEDA, DINDO DOMINGO                                    0501
A0101408950396594011001MA. TERESA V. PEJI                                       0501
A0101409210398060591002JOIECAST TRADING                                         0501
A0301400820000004746101FAMACION, RAMSEY DBU JARED SUIT                         10502
A0301400820000004746101ES OR FAMACION, BEULAH                                  20500
B0301400820000005991586PAPERINK ENTERPRISES                                     1601
B5501400120000000003298MARBEL FIT MART, INC.                                    1605
B2401400180411033833088JOLISA AGRIBUSINESS CORPORATION                          1610
A2401400180000000428062SAMANION, FLORIVIC ARINO                                 0501
B1201400150000005357871TIONGSAN LA TRINIDAD, INC. - DEPARTMENT                 11650
B1201400150000005357871STORE                                                   21600
B1201400150000005357837TIONGSAN LA TRINIDAD, INC. - SUPERMART                   1650
A0101403030441317676001**********                                               0503
A1401400110492300971001WILFREDO J. LAVAREZ                                      0503
A1401400110000000132841*******                                                  0501
A1401400110000003988923DY, EDNA AYCARDO                                         0505
B0101407430503246371001YONG KI BAE                                              1601
A0101408110000000379971CEPEDA, RODELLA G DBU                                   10501
A0101408110000000379971ZRRC ENTERPRISE                                         20500
A0101411400000005157211LORENA, LEVIE NOBLE                                      0501
A0101411790000006499558BALLARTA, JEANETTE RAMOS                                 0501
A0101411790000006499627CHAVEZ, MARIA RUBY ANN COMIA                             0501
A0101411790000006499661DE GUZMAN, ARNALDO TING                                  0501
A0101411790000006499707ENTIA, SUZETTE GALLEGO                                   0501
A0101411790000006499741RAMOS, RICKY ESCOLANO                                    0501
A0101411790000006499770TIMBOL, JAY AR STA ANA                                   0501
A0101411790518055764006ACOSTA, MIKE BRYAN, BARBA                                0501
B2201400250561013172001INTERNATIONAL WIRING SYSTEMS                            11650
B2201400250561013172001PHILS. CORP                                             21600
A2201400250561478374060MARIAN S. BANAAG                                        10501
A2201400250561478374060MEMBERS OF NATAS                                        20500
A0101410690600085096001YEE, SONNY L. OR YEE, KARRIE                            10503
A0101410690600085096001ANNE CANDACE M.                                         20500
A0101404130601450631001DEL VILLAR. DIOMEDES L.                                  0503
A0101407720000000510603CANO, KRISTINE THERESE CURA                              0501
A0101407720602402575001CEDENO, JOSEPH RAY RICHARD RUFO                          0504
B0101412180000001293016JENNIEDEDIOS INC.                                        1603
A0101409890000003097983*************                                            0501
A0101409890000003097994**********                                               0501
A0101409890649047047001**********                                               0506
A0101406590662562414001RUSTE, RUTH ALLEN ANTONIO                                0503
A0101408240711373410001MELITON OR PACITA GOYENA                                 0501
A0101408240711395927002JOSE MALVIN V. CASTRO                                    0502
A4101400260812554182001ANTONIO G. BUHAYO JR.                                    0501
A4101400550000006044311SALVACION ELECTRONICS SALES                             10503
A4101400550000006044311CENTRE                                                  20500
A0101404840851298552067EMERENCIANA P. BOMBAY &/OR                              10501
A0101404840851298552067JEREMY P. BOMBAY                                        20500
A0101406750000004641645FESTEJO, BIANCA JASA DBU BIANCA                         10501
A0101406750000004641645FESTEJO HAIR STATION                                    20500
A0601400230891256479001MACASPAC, ARLEN O. OR                                   10501
A0601400230891256479001RODRIGUEZ, ROMEO                                        20500
A0601400230000000452782GOZUN, R-JAY RAMOS                                      10510
A0601400230000000452782OR GOZUN, MYRNA                                         20500
B0101400150000000052902228 ORTIGAS AVENUE CONDOMINIUM CORP                      1602
A0101400150061315349055DENNIS JOY EJERCITO                                      0501
A0101400150061396548001ALIMURUNG, BENJAMIN N. OR                               10501
A0101400150061396548001ALIMURUNG, ALICE                                        20500
A0101400150061536013001ASUNCION, NENITA DESLATE                                 0501