F0101405650000001000499BABIDA, FLOCERFIDA MAGBUJOS                              2501CKO
F0101405780212025807002PITSTOP MOTORS (PSM) INC.                                2605CKR
F0101401670271029054002HEALTHWEALTH INTERNATIONAL CORP.                         2610CKO
F0101407300000000027789METRO ANTIPOLO HOSPITAL AND                             12601CKR
F0101407300000000027789MEDICAL CENTER                                          22600CKR
