A0101401090171384034001MARK ANTHONY D. ABENIR                                   0501
A0601400520000002086051FRANCISCO, MARRY ANN RAMIREZ                             0502
A0101400440161525001103OFELIA B. OLERMO                                         0501
A3001400130230711844001BLACANO JR., ADOLFO LACORTE                              0501
A0101406590662470961001VALMOCINA, ESTRELLA C. OR                               10510
A0101406590662470961001GUTIERREZ, MARY                                         20500
B0101413860000001767928H.R.PHIL.MANPOWER SERVICES INC.                          1602
B0101400860011236251001**********                                               1601
A0101400860011718088001**********                                               0501
A0101400600071031379001MFT! ENTERPRISES                                         0504
B0101400600071234351001**********                                               1603
B0601400360000000025732TECNET ASIA, INC.                                        1603
B0601400360083594999001ICE INTERNATIONAL TECHNOLOGIES INC.                      1602
A0101414090000003314843VILLANUEVA, KENNETH BAYLON OR                           10502
A0101414090000003314843VILLANUEVA, JO-AN JAMILO                                20500
A0101410850000003102103MSG BOTTLE WASHING                                       0503
A0101410850000003503551DUQUEZ, PRUDENCIO MALDA                                  0502
A0101410560000001944232MA. DIVINA E. ELVAMBUENA                                 0501
B0101406040112009142001ASIAN TERMINALS, INC.                                    1610
A0101401960121414572001**********                                               0502
B0101401830141029955002SHELL EMPLOYEES MULTI-PURPOSE COOP. -                   11605
B0101401830141029955002CANTEEN                                                 21600
A0101400440000003705877INDANGAN, BABEY POLAYAGAN                                0504
A0101400440000000821185CATACUTAN, PRESLYN SAGA                                  0502
A0101400440000004901564DOVIE T. JERMIA                                          0502
A0101400440161520766184MA. RENITTE D. ROMA                                      0501
A0101400440161525001119NORA S. TALENTO                                          0501
A0101407270000005758165CALMA, CESAR BAUTISTA                                    0501
A0101407270000005767980*******                                                  0501
A0101407270000005770032DEE, MARTIN REDMOND ESCOLAR                              0501
A0101407270000005781440DINO, MARY ANNE GALANG                                   0503
B0101407270162037305001MICROGOLD INFORMATION SOLUTION AND                      11610
B0101407270162037305001PRODUCTS, INC.                                          21600
A0101407270162291617001JOSEPHINE C. MATEO                                       0501
A0101407270162390807002THOMAS P. MANOTOC JR. OR                                10503
A0101407270162390807002MA. ROSARIO C. M                                        20500
A0101407270162390807003THOMAS P. MANOTOC JR OR                                 10503
A0101407270162390807003MA. ROSARIO C. M                                        20500
A0101407270162390807004THOMAS P. MANOTOC JR OR                                 10503
A0101407270162390807004MA. ROSARIO C. M                                        20500
A0101401090000001618582CORAZON DULCE D. BAYATON                                 0501
A0101401090171543197002MARY DIANE S. REYES OR                                  10501
A0101401090171543197002CRISTINA R. ADALIA                                      20500
A0301400530000001009943PANTUA, JERSON R.                                        0501
A0301400530193478374012FUEREN, JANETH C.                                        0501
A0301400530193478957001RUFILA, LLEUWELYN BUSTAMENTE                             0502
B0301400530193551180168LIM, MARK EDUARD G. OR                                  11605
B0301400530193551180168LIM, LIZA S.                                            21600
A0301400660000003406000*******                                                  0503
A0301400660194270653088*****                                                    0501
B0301400950000000566934YUMCHAY VENTURES CORPORATION                             1620
A0101401380201500598001CARREON, DAISY FONG                                      0501
B0101413600000002822693CHRISTIAN INVESTIGATION AND SECURIT                      1603
A3101400160221724137001ALICIA P MANAIG                                          0501
A3101400870000000957757BALLESTER, RAQUEL DEL ROSARIO                            0501
A3101400870000000957906VENTANILLA, Y DBU VONS BARBERSH                          0501
A1001400190000005772643MIGUEL BARTOLOME Q. LAI JR OR                           10501
A1001400190000005772643ABIGAIL F. LAI                                          20500
A1001400190231511493001GALAGNARA, JUVY DAIS                                     0501
A1001400480000000606819TAN, LYDIA OR TAN, OLIVER                                0505
B0101406460272047405001ACEBUCHE, E DBU EL ACEBUCHE BUI                          1605
A0101406460000000021712SANTOS, EDWIN PAGTALUNAN                                 0501
A0101406620273444658001GINA L. JULIANO OR                                      10502
A0101406620273444658001NOLY P. JULIANO                                         20500
A0101412470000002086433ESTHER ARCA DBU WASABE SPICE OF                         10503
A0101412470000002086433 THE ORIENT                                             20500
A0101400570281519630001CARLOS, MARIA ARLENE DUMANDAN                            0501
A0101411240000001563479********                                                 0501
A2601400270000000561551RODERICK E. MADRIDEO OR                                 10501
A2601400270000000561551JUANITA S. MADRIDEO                                     20500
A0801400160000002287578************                                             0501
A2001400290315041547001CARTRONIX LOGISTIC & TRANSPORT                          10506
A2001400290315041547001CORPORATION                                             20500
B2001400290315071661001R.UYPITCHING, IRWIN, KATRINA, ADAM, KEN                 11601
B2001400290315071661001& LU,CIPRIANO II                                        21600
A2001400290315688009001ALGOPERA, LLOYD GARCIA                                   0504
A0101402350000000521479JUANIR, TERESA BARCELON                                  0501
B01014023503210067510010SM SHIPPING PHILS., INC.                                1610
A0101402350321038584002HEALTHY 8 WATER REFILLING                               10501
A0101402350321038584002STATION                                                 20500
A0101405650000000525911TORRES, ROD JEFFREY GUMABAO                              0501
A0101402060351734699002RAMNANI, MICHAEL CHRISTOPHER OR                         10502
A0101402060351734699002RAMNANI, ASHOK                                          20500
A0101409050000001662380***************                                          0501
A0101409050000002971555OMENGAN, ROWENA RUTH ALCANTARA                           0502
B0201400920375034419001GONZALODO ENTERPRISES                                    1605
A0101408790000000579222LORREDO, RICO DEL MUNDO                                  0505
B0101402770391033333001MONHEIM DISTRIBUTORS, INC.                               1602
A0101408400000005782061AGULAY, DOMINIC TAPIA                                    0501
A0101408400000005782072OLI JR., HERMINIO  CORPUZ                                0501
A0101408400000005782083PASTOR, EDUARDO CASTILLO                                 0501
A0101408400000005782090RAMOS, JOSELITO TORRES                                   0501
A0101408400000005782107REYES, LOURDES P.                                        0501
A0101408400000005782118SANTOS, FERDINAND SANTIAGO                               0501
A0101408400000005782129SAURO JR., ELDIGARDO  ANGELES                            0501
A0101408400000005782130SELGA, DEMETRIO PICARDAL                                 0501
A0101408400000005782141SORIANO, ROSAURO EVANGELISTA                             0501
A0101408400000005782163SY, GRANT KENNETH ANG                                    0501
A0101408400000005782170MENDOZA, MARINA DELA PENA                                0501
A0101408400000005782181LISANIN, WILFREDO ZALABARIA                              0501
A0101408400000005782192LEYNES, JUVY MATULAC                                     0501
A0101408400000005782209JARIOL, GIOVANNI CHIO                                    0501
A0101408400000005782210GALLARTE, JOSELITO NODADO                                0501
A0101408400000005782221GABRIEL JR., JULIO  NOSARES                              0501
A0101408400000005782232FONTE, ARNEL TESORO                                      0501
A0101408400000005782243DELA CRUZ, ALLAN SARMIENTO                               0501
A0101408400000005782250DELA CRUZ, ROBERTO MASCARINAS                            0501
A0101408400000005782261DE VERA, ILDY CATUNGAL                                   0501
A0101408400000005782272DE MESA, REDENTOR CRUZ                                   0501
A0101408400000005782283CORTEZ, JAIME SOLOMON                                    0501
A0101408400000005782294COMETA, EMER TENEDERO                                    0501
A0101408400000005782301CHAVEZ, NOLI MALLARI                                     0501
A0101408400000005782312CADILENA, JERICO BASCONCILLO                             0501
A0101408400000005782323CABIGTING JR., SERAFIN  CLEMENT                          0501
A0101408400000005782330BERNAL, RONNEL TORREJA                                   0501
A0101408400000005782341BAUTISTA, DENNIS ESCANDOR                                0501
A0101408400000005782352BALTAZAR JR., MONICO  REBANCOS                           0501
A0101408400000005782363BAGTAS, ALLEN SAPUYOT                                    0501
A0101408400000005782374ANG, JOSEPH PASION                                       0501
A0101408400000005782385AMANTE, NOVELITO BLAQUERA                                0501
A0101408400000005782396ALLAREY, JUDE CARLO MERCED                               0501
A0101408400000005782410ALBARRACIN, LLOYD CATOTAL                                0501
A0101408950000003439303LACANILAO, OSCAR JR. VILLANUEVA                          0501
A0301400820000002272088NAVARRO, JIMNE NAVALES                                   0501
A5501400120410091853001MARCELLA, LIGAYA TAMISES                                 0501
B2401400180411033307078MINCORN MILLING, INC.                                    1602
A1201400150421253022001GARCIA, LEONILA LANSANG                                  0501
A0101403030441313818001**********                                               0502
A0101412890000002324192*************                                            0503
A0101412890000002747766BELVIS, G DBU BELVIS MEAT                               10502
A0101412890000002747766PRODUCTS                                                20500
B0101403320471041480001ITP CONSTRUCTION INC                                     1620
A0101403320471209242001AGUEDA D. LOPEZ                                          0501
A1401400110000003475832RADONES, ARIEL SACRISTIA                                 0502
A0101405940512462757001CUEVAS, TERESITA AGLEHAM                                 0503
A0101405940512462757002TERESITA CUEVAS/ELEONOR VARIAS/                         10503
A0101405940512462757002MA. TERESA DAVID                                        20500
B0101408530516035673001FERROTECH STEEL CORPORATION                              1608
A0101408530516044264001DATA ART DESIGN & PRINT SERVICE                          0501
B0101412050000000043381CYWARE INC.                                              1601
A0101403450000000009903**********                                               0505
B0101403450521011989001**********                                               1610
B0101403450521240119001**********                                               1601
A0101403450521360229001**********                                               0501
B0101403610531009930001ALVAREZ BAKESHOP                                         1610
B0101403610531302489001R SQUARE WASTE MANAGEMENT SERVICES                       1603
A0101410690000000478940**********                                               0501
B0101407720602041221001MMC PEDIA ASSOCIATION, INC.                              1601
A0101407720602299636001GREGORIO GERRY F. FERNANDEZ                              0502
A0101407720602397444002JOSE T. SANCHEZ OR                                      10510
A0101407720602397444002TERESITA R. SANCHEZ                                     20500
A0101404260611478374085ROSALINA SUMILE                                          0501
B0101409890000003098008REYES, VINCENT ALEGRE                                    1604
B0101409890000003098008REYES, VINCENT ALEGRE                                    1603
A0101407690000000154812AIKA RECORDS                                             0502
A0101407690000001919902OSTREA, MARILOU DBU M. ZOILO                            10501
A0101407690000001919902TRADING                                                 20500
A0101407690652298552010ANGELINA CANETE - DEALERS OF                            10503
A0101407690652298552010SHOECAT INC.                                            20500
A0101407690652445381002ENRIQUEZ, PRISCILLA OR JORAM                            10502
A0101407690652445381002OR JORAM-PIERRE                                         20500
A0101407690652520766018NILDA BERASIS - DEALERS OF                              10501
A0101407690652520766018SHOECAT INC.                                            20500
B0101407690652537622001CREATIVE DISHES & RECIPES INC.                           1602
B0101407690000000243850CREATIVE DISHES & RECIPES INC.                           1602
A0101407690652647252001VALDEZ, RAFAEL MEJIA                                     0501
A0101413440655055236001ARZANAN, D. DBU D. ARZANAN                              10502
A0101413440655055236001ENTERPRISE                                              20500
A0101413570656057648291**********                                               0501
A0101414120000003190890CRISTE, RODELLA VILLAFLOR                                0501
A1301400210000000983757RODOLFO C BONIFACIO OR                                  10503
A1301400210000000983757YOLANDA S BONIFA                                        20500
A1301400340683433734001DELA RAMA, CARMELITA LOZADA                              0503
A1301400500684690469001MARCELINO, GILLYN DE GUZMAN                              0502
B0101408240711026678001SAMBEL PACIFIC CORPORATION                               1602
B0101408240000000832826ALABANG GATORS SWIM CLUB INC.                            1601
A0101408240711180164001TUPAZ, CORAZON RONQUILLO                                 0501
A0101408240711417025001LUPOT, JULIUS CALACAT                                    0502
A4101400420814520766045BOCO, ADELA G.                                           0501
A0101412340000003340752AUGUSTUS I. ANSAMA                                       0501
A0101412340000003345606MARINELLE A. RAQUEDAN                                    0501
A0101412340850091247001ROSTRATA, DANILO DELA CRUZ                               0502
A0101412340000002900352GHIE M. ROMERO                                           0501
A0101404840851046725003MENDOZA, MA. IRNA M.                                     0502
B0101413860000001768050ONE WORLD SCHOOL, INC.                                   1601
