A0101406590662065552001ALINDUGAN, MARIVIC BANDELARIA                           10501
A0101406590662065552001DBU S21 TRADING                                         20500
A0101410300000000026462SYCIP,JOHN CARLOS/BANTIGUE,JOHN                         10505
A0101410300000000026462PAUL/ESQUIVIAS,J                                        20500
A0101400860011473146002*********                                                0502
A0101401250000008233276MASIGLA, MA. SOCORRO BUSTAMANTE                          0501
A0101401250021180208001GERVASIO, REMEDIOS SAMONTE                               0502
A0101401250021324591003TABINAS, GUILBERT INFANTE                                0502
A0101401250021526467001ETHEL R. BUSTAMANTE                                      0501
B0101400600071011309001PEDERNAL MARKETING                                       1602
B0101405810000000016822VANDA PAPER PRODUCT ENTERPRISES COR                      1602
A0101405810000000016559CHUA, HEMAN LAO                                          0501
A0101405810072402256001GO, SHERRY KRISTEN LALLAVE                               0501
B0601400100081030352001LIVING STONE INTERNATIONAL SCHOOL INC.                   1602
A0601400360083037597001VHS GLASS AND ALUMINUM SUPPLY                            0505
B0101401830141591649001OMNI PROVENTURE ENTERPRISES CORPORATION                  1602
A7201400170000000040575ELCAMEL, BELEN PEDROZA                                   0501
A0101412920000002358961GEORGINA MA BERNADETTE F. LUNA/                         10501
A0101412920000002358961RICARDO P. LUNA                                         20500
B0101412920160065657001THE LAW FIRM OF LAURON DELOS REYES &                    11601
B0101412920160065657001PARTNERS                                                21600
A0101400440161478374076JAYNE D. BARBIN                                          0501
A0101407270000003253523SALAZAR, GARY SAZON                                      0501
A0101407270000003254231**********                                               0502
A0101407270000009690202GREGORIO, JANNA KRISTA GATUSLAO                          0501
A0101401090000007525995CLARA PATRICIA DE LEON SALONGA                           0501
A0101401090171195722001JESUS VALENCIA OR                                       10506
A0101401090171195722001REMEDIOS VALENCIA                                       20500
A0101401090171197551001EMELITA P. SAMALA                                        0501
A0301400530000000066044**********                                               0503
A0301400530193709195001CHENANIE S. ENERIO                                       0501
A0301400950000002115413CUNANAN, ELEANOR G. DBU EB                              10504
A0301400950000002115413MARKETING SERVIC                                        20500
A0101401380000005219790********                                                 0501
A0101401380201787198001CAHANAP, FLORO ALVARINA                                  0502
B0101410720653022858002FOODKING CUISINE & SERVICES INC                          1602
A0101410720653046803001BCLOA BUSINESS DATA RESEARCH                            10502
A0101410720653046803001SERVICES                                                20500
A0101410720653173641001ISMAEL, LOLITA FABRE                                    10502
A0101410720653173641001OR ISMAEL, HUBERTO                                      20500
B3001400130000006004706RUELAN, NEIL DBU RUELAN ENTERPRISES                      1602
B1001400190231036837001RTD MARKETING                                            1605
A1001400190231478374012FARINAS, EVA MAE CENTO                                   0501
A1001400190231520766208LACRE, HAYDEE DAGPIN                                     0501
A1001400480000005355900DACUDAO, LILUISA ACIERTO                                 0501
A1301400760000002346005LUISA J. DIMAANO OR                                     10505
A1301400760000002346005DENER G. DIMAANO                                        20500
B0101401670000004588490H.S. POW CONSTRUCTION AND DEVELOPMENT                   11603
B0101401670000004588490CORPORATION                                             21600
A0101406620000000577117SEIDEL, EDWARD PUNSALAN                                  0502
A0101406620273489850001RODOLFO P. DE GUZMAN JR. OR                             10501
A0101406620273489850001ROSARIO K. DE GUZMAN                                    20500
A0101408660274547172001BELMES, MARIBEL DEPAUDHON                                0502
B0101410980000006014528RED CROWNE CONCEPTS INCORPORATED                         1601
A0101410980000006014404WMS WORKFORCE MANAGEMENT                                10503
A0101410980000006014404SERVICES                                                20500
A0101411820277743052001RUBY M. PAMINDANAN                                       0501
A0101411240000001563344LIMPIN, MA. LIOBA AYSON OR                              10501
A0101411240000001563344CASTRO, LUDY ROD                                        20500
A2601400270000009497892ZENAIDA T. AGCAOILI                                      0501
A2601400270000002312152SONILYN C. LACA                                          0501
A6601400120000002978096HORCA, ROMAR BABIANO                                     0502
B0101402350321034292001JACINTHE MANUFACTURING CORPORATION                       1602
A0101405650322311534001CALUBAQUIB, RUBY ENRIQUEZ                                0501
A0101402510341420133001BONGCAWIL, GHADA ZACARIAS                                0501
A0101402930000003710610DAVID, RIZALYN ENRIQUEZ                                  0502
B0101402930381008843001BASIC HOUSING SOLUTIONS, INC.                            1605
B0101402930000003269403PETRA CEMENT INC.                                        1601
B0101402930000005645952FARMFRESHFORYOU CORPORATION                              1601
A0101408370000000336150REYES, SELENA TRICIA SANTOS                              0501
A0101411660000008590427MENDOZA II, VIGOR DE DIOS                                0502
A0101405490000005566509FERNANDEZ, STACY MARIE RAMIREZ                           0501
A0101405490392552022001MARIA THERESA D SOLIS OR                                10501
A0101405490392552022001BENJAMIN D.SOLIS                                        20500
B0101408400394027524001SAINT JO FLORAL DESIGNS & DECORS                         1602
B0101408950000006424882H2004 VENTURES INC.                                      1603
A1201400150421013348001ARGEM FINANCE INC.                                       0510
B1201400150421013348002ARGEM FINANCE, INC.                                      1605
A1201400150421756071001REYES, ALBERTO VILLARUZ                                  0501
A0101403030000000320492**********                                               0502
A1901400160491065588001MERCADO, DBU GOLD DRAGON MEDICA                          0501
B0101403580511155828001JOUBERT CONSTRUCTION INC.                                1610
B0101405940512031769001INDUSTRIAL PROPERTY DEVELOPERS, INC                      1602
A0101408530000002980578ALFONSO, MA VIOLETA GANCAYCO                             0503
B0101411790000005537060CITY & LAND DEVELOPERS, INCORPORATE                      1601
B0101411790000005537059CITYLAND, INC.                                           1601
B0101411790000005537071CITYLAND DEVELOPMENT CORPORATION                         1601
B0101403450521011657001UPTOWN INDUSTRIAL SALES, INC.                            1610
B0101403450521011968001**********                                               1602
B0101403450000000135555LE FRANK INGREDIENTS PHILS. INC.                         1605
A0101403450521238066001**********                                               0505
B0101403450521305942001**********                                               1601
A0101404000000000574618OH, JONG EUN                                             0502
B0101404000551046316001PHILAB INDUSTRIES, INC.                                  1605
A2201400250561019818003KIS ENTERPRISES                                          0510
A2201400250561040968001PADRE PIO ENTERPRISES                                    0506
A2201400250000006736230KIS ENTERPRISES                                          0505
A0101410690000000710730DABLIO, PANFILA BARANDA                                  0501
A0101410690000000710672BADE, MINERVA V DBU E3V                                 10502
A0101410690000000710672ENTERPRISE                                              20500
B0101404130601028598001CAMBRIDGE CHILDREN'S LEARNING AND                       11605
B0101404130601028598001DEV'T., INC.                                            21600
A0101412180000008320170CAPUNO, WILSON CAPIZ                                     0501
B0101412180000001293038WESTMONT INDUSTRIAL SALES INC.                           1603
A0101404260611150835002HENRY OR GUANZON CHING                                   0502
A0101404260611150835004CHING, HENRY                                             0503
A0101407690652034806001BROWNFLY COMMERCIAL                                      0504
A0101407690000006736485CALYMI CONSTRUCTION                                      0505
A0101407690652478374084EUFEMIA BALASE - DEALERS OF                             10501
A0101407690652478374084SHOECAT INC                                             20500
B0101406590662038794001PRISMODIAL CONSTRUCTION CORPORATION                      1606
B0101410300000000026439GREENMANILA GARDENS AND LANDSCAPES, INC                  1605
A1301400210000003105084SALAVERIA, AARON RAMOS                                   0510
A1301400500684064975001ARCHLEIGH CONSTRUCTION SERVICES                          0501
A0101408240711475061001ROA, JOAQUIN PURUGGANAN                                  0501
A0101408240711563145001SUGURAN, OLIVE JILL VELASCO                              0502
A2801400230713045955001LITTLE SCISSORS UNISEX SALON                            10501
A2801400230713045955001(RONNIE B. RUIZ)                                        20500
A2801400230000001782083DE GUZMAN, LITO C. DBU D.G.L                            10501
A2801400230000001782083MOTOR WORKS & GEN SRVS                                  20500
A4101400550000002091010UNIFIL MANPOWER RESOURCES                                0503
A0101404840851334120001MARY ANN R. PANGAN OR                                   10502
A0101404840851334120001JOHN NOEL PANGAN                                        20500
B0101405070861022986001SEVEN RED DIAMOND CORPORATION                            1605
A0101413860000000859047ALEJANDRE, MARIA TERESA MAGNAYE                         10502
A0101413860000000859047JT ALEJANDRE, JE                                        20500
A0601400230000001687107CANLAS, FERDDIE QUIROZ                                   0501
B0101406620273821100608**********                                               2010