B0101401960121821100608**********                                               2005
A6601400120000008490466ARGENIO, MAREBELLE DRIZA                                 0501
A66014001203140421880015G GALVEZ CONSTRUCTION                                  10505
A6601400120314042188001AND SUPPLY                                              20500
B0101402930381205334001IMPERIAL CONSOLIDATED CORPORATION                        1604
A3001400130000005708545FAYTONE, MARIA FATIMA MAGNO                              0502
A3001400130000008264842AGOT, VICENTE ANTEGRA DBU PAMIL                         10510
A3001400130000008264842YA TRADING                                              20500
A3001400130230478374239ATO, AIREN BERNADEZ                                      0502
A1101400120000001547337ALDIANO, FLORDELUNA LATO                                 0503
A1101400120000001920667CAMENFORTE, NEIL MONASTERIO OR                          10502
A1101400120000001920667CAMENFORTE, ELKE                                        20500
A6601400120000016158833NUGUIT, ALFREDO DIAZ                                     0502
A6601400120314047332001ST. ANTHONY FARM INSTITUTE OF                           10502
A6601400120314047332001TECHNOLOGY INC.                                         20500
A6601400120000010637602LADIAO, CHRISTIAN FRANCO TIBERI                          0502
A6601400120314400833001BRIONES, FERDINAND ABUDA                                 0502
A6601400120314612877001DELA CRUZ, ELMER SANSON                                  0501
A6601400120000005710630DY, FREDERIC JAN TUBELLO                                 0502
B0101402350000018789721FABILA, SOLAIDA TRINO AND FABILA, JESSIE                11601
B0101402350000018789721REBOTE                                                  21600
A0101413150000003868377CORAZON LEGASPI UY OR BERNICE                           10502
A0101413150000003868377UY GASPAR                                               20500
A0101412500000018222921DY, PEACHY SO KUA                                        0501
B0101402350321006431002OLIVAREZ REALTY CORP. (CONDOMINIUM)                      1608
A0101402350321179400001NILDA Q. APISTAR                                         0505
A0101402350321179400001NILDA Q. APISTAR                                         0505
B0101402930381008829002AXEIA DEVELOPMENT CORP.                                  1615
A0101415350000018007193AMIAN, ANGELICA ANN D OR                                10503
A0101415350000018007193AMIAN, JOHN FRANCIS R                                   20500
B0101407720000006028166MEDGATE PHILIPPINES, INC.                                1602
A0101412180000003275483ECHEVARRIA, MARILYN REYES                                0503
A0101400860000000100863**********                                               0503
B0101400860011487274001**********                                               1602
B0101400860011515297002**********                                               1602
A0101400860011634071001**********                                               0505
A0101411370000005524512URQUICO, ROXANNE SUAZO                                   0501
A0101400150000018747687RANGILA, AHMED USMAN                                     0501
A0101400150000016750642SAPALASAN, CARLOTA MAGBAG                                0501
A0101400150000018553632DELIGENTE, ERWIN URGELLES OR                            10501
A0101400150000018553632DELIGENTE, RENEA YVETTE                                 20500
B0101400150061010600001SUAVIS INCORPORATED                                      1614
B0101400150061027012001PRECEPT MINISTRIES INTERNATIONAL OF                     11601
B0101400150061027012001THE PHILIPPINE                                          21600
A0101400150061368675001JESSE O. ANG                                             0502
A0101400150061777201002SANTOS, ALEXANDER ARAGON                                 0501
A0101405810072474048001SHI, SHUANGNI KING                                       0501
A0601400100000013256918AREVALO JR., ORESTES CARSON                              0503
A0601400100081254005001TANGLAO, CARMELO OR                                     10501
A0601400100081254005001TANGLAO, MARILOU                                        20500
B0601400100000005690519MICRO-B, INC.                                            1604
A0601400520000007553462VERGARA, REGINA SAMSON                                   0502
A0101414090000014876589FAJANILAN, BELINDA APUYA                                 0502
A0101400730000004948592Gloria C. Gloria                                         0501
A0101400730111203514011GUILLER FRANCISCO                                        0501
B0101406040000000096800MERGETECH ASIA SYSTEMS INC.                              1603
A0101401960121238703001ROSA ISABEL C. UMINGA                                    0502
A0101401960121505415001************                                             0501
A0101412630000004062064BANZUELA, ELEANOR ADORNA                                 0502
A0101413310000016902379CUYUGAN, TBRAM GONGORA                                   0502
A0101401830141206435001EMMA G. CHUA                                             0502
A0101401830141416060002BIENVENIDO ALBANIEL MADRID JR.                           0502
B7201400170000006487785LADLAD, EMSA BANA                                        1601
A7201400170000003773120ASUGAS, GRACE MARIE NARCISO                              0505
A7201400170000003773017EDULSA, NELSON CALME OR                                 10502
A7201400170000003773017EDULSA, CRISANTA IDOL                                   20500
B7201400170000003773131**********                                               1606
A7201400170000000040575ELCAMEL, BELEN PEDROZA                                   0502
A7201400170000003773193ALUYEN, VICTOR EMMANUEL TOH                              0502
A7201400170000009673265ETA, ROLAND PERIGO                                       0503
A7201400170000016139452LIZARDO, DANILO ORDONA OR                               10502
A7201400170000016139452LIZARDO, ROSALINA CATALAN                               20500
A7201400170000016139474DACAL JR., CESAR CAPACIO                                 0501
B7201400170152067937001PAGADIAN JUNIOR COLLEGE (PJC), INC.                      1605
B0101400440000005393717RD PAWNSHOP, INCORPORATED                                1606
B0101400440000000821301TOPCOM CONVENIECE STORE                                  1605
A0101400440161591337001JENESSEY A. RANCES OR                                   10502
A0101400440161591337001JESSIE O. RANCES                                        20500
B0101407270000018231700POCKET MEDIA PRODUCTIONS INC.                            1602
B0101407270162019525001CASTFOOD CORPORATION                                     1602
A0101401090000014405671**********                                               0501
B0101401090171007908001PERPETUAL SUCCOR HOSPITAL &                             11606
B0101401090171007908001MATERNITY, INC.                                         21600
A0101401090171197827001EDWIN S. MARTIN                                          0501
A0101401090171384189002RAMOS, MARIA CRISTINA ROMERO                             0501
A0301400530000000065865ARASA, NICOLAS                                           0501
A0301400530000001009994PADAYHAG, WINNIE L.                                      0503
A0301400950000008000637MALIM, EMMANUEL JOSEPH APAT                              0502
B0301400950000013536095*************                                            1601
A0101401380000015062529ALLAM, JINGLE CONCON                                     0501
A0101410720000007843425LADIA, APRIL IRIS RUPIDO                                 0504
A0101412500000001146805ARROJADO, JENNIFER DY                                    0501
A0101412500000018855851LUCERO III, WILSON IGNACIO                               0501
A0101412500000018855624LUCERO, RIZZA MADERAZO                                   0501
A3101400160221220343001LAARNI A. CALAPATIA                                      0502
A3101400160221478374058MARIBEL S SIBOR                                          0501
A3101400450000013739723VILLANUEVA, DOLORES ELEANOR PIL                          0502
A3101400450000017581472LAGURIN, JOSEPHINE DECHAVEZ DBU                         10501
A3101400450000017581472LORIN CLAIRE BAGS&GARMNTS                               20500
A3101400450223679687001MONZONES, MARIA DOLORES OR                              10504
A3101400450223679687001HENRY                                                   20500
A3101400870000018854238CALIBUSO, JENNIFER FLORES DBU                           10501
A3101400870000018854238GARFLO ENTERPRISES                                      20500
A1001400350233503410003APARICI, ARMANDO AKIAT                                   0502
A1001400350233526734002BORROMEO, MA CAROUSEL LUMAPAS                            0501
A1301400470252524992001FLOR M. CUCIO OR                                        10505
A1301400470252524992001FELIPE R. CUCIO JR.                                     20500
A1301400470000001299130ANDREW P. MANGIDUYOS                                     0502
A1901400290000014042336VERGARA, VICTORIA LOURDES MORAT                          0502
A0101410980000005709628CHUA, DONABEL LIM                                        0501
B0101412470000008927573METRO OIL SUBIC, INC.                                    1602
A0101400570281355863001JOSEPH C. GUIANG                                         0505
A0101400570281493863001RAYMOND VINCENT P. JURILLA, M.D                          0501
A0501400200000015426470LANDICHO, MILAGROS DAYAG DBU HE                         10503
A0501400200000015426470ALTHY THOUGHTS JUICE BAR                                20500
B2601400270000000561573RUFINO M. BUTAC JR. OR                                  11605
B2601400270000000561573MELISSA B. BUTAC                                        21600
B2601400270000016704893CRISTOBAL, JOSELITO PEREZ DBU BULACAN                   11601
B2601400270000016704893CONCRETE PRODUCT                                        21600
B0801400160311271206001WESTERN LAMP & ELECTRICAL SUPPLY                         1604
B1101400120000000065132STARLITE GLASS AND ALUMINUM SUPPLY                       1603
A1101400120000003197255GOLONG, CHRISTINE FLORES                                 0502
A6601400120000009613696PAGBA, EMELITA BERNALDEZ                                 0502
A6601400120000011286270GACUSAN, RAUL CORRAL DBU 8.3                            10504
A6601400120000011286270COMPUTER TECHNOL                                        20500
A6601400120314612961001SALAVARRIA, VICKY OR CRISALDO                            0502
A6601400120314622580001SOSING, CAROL O. OR FELIPE A.                           10505
A6601400120314622580001OR CAROLYN O.                                           20500
A2001400290000000978269UYMATIAO, CATHLEEN AMIL                                  0503
B2001400290315043653001G & S SOLID CORPORATION                                  1605
A2001400290315636053002RAMAS-UYPITCHING, ALEMBERT                              10502
A2001400290315636053002BRIAN OR FELMA                                          20500
B0101402350321006752001LOPEZVILLE HARDWARE                                      1602
A0101402350321180119001SHERENA O. PARUCHA OR                                   10501
A0101402350321180119001VIRGILIO B. PARU                                        20500
B0101402350321500384002ONG, JOSEPHINE T. AND                                   11601
B0101402350321500384002DURA, ELVIRA O.                                         21600
A0101402350321526808001LUCITA R. TARRAY                                         0503
A0101402350321528563001SABANDO, JULIETA A.                                      0502
A0101402510000014897826SERRONA JR., ARNEL BANTILO                               0501
A0101402510000000049329UNICARE DENTAL, MEDICAL TRADING                         10501
A0101402510000000049329CORPORATION                                             20500
A0101402510341197697001GLORIA R. DEL MUNDO                                      0501
A0101402060351211788002ROMUALDEZ, FRANCISCO C. OR                              10501
A0101402060351211788002ROMUALDEZ, ANNA                                         20500
A0101402060351217441047CLARIZA C. EMALADA                                       0502
A0101402060351409718001SUBIJANO, SHERWIN BALTAZAR                               0504
A0201400920000000991722MORILES, GRACIANO MELGAR                                 0501
B0201400920000011194011AMORES, RENE CABANILLAS OR                              11610
B0201400920000011194011CAPUL, ORLANDO M                                        21600
B0201400920000011194051AMORES, RENE CABANILLAS OR                              11610
B0201400920000011194051AGUIPO, MICHAEL                                         21600
A0201400920000002249998GALANG, LORLIE PACURIBOT OR                             10501
A0201400920000002249998GLENN ANTHONY GA                                        20500
A0201400890376504512001A.I. BUILDERS & SUPPLY                                   0501
B0201401020000002250631********                                                 1605
A0101402930000009324841MANARANG, SHALLA MARIE CLEMENTE                          0501
A0101402930000000623363KING, C DBU EASTERN CIRCLE                              10502
A0101402930000000623363HUMAN RESOUCE SE                                        20500
B0101408370000010545296CACAO LAVEZARES CHOCOLATES AND CONFISERI                11603
B0101408370000010545296E CORPORATION                                           21600
A0101408370382205131001DR. ELENA C. AZARRAGA                                    0506
A0101408370382433883001DR. RONALD AUGUSTINE O. CAMPOS                           0501
A0101408790000005293643DIANE P. PABLICO                                         0501
B0101408790000015139325MENGUITO, JEIEL DALDE DBU J.D. MENGUITO                 11605
B0101408790000015139325BUILDERS                                                21600
A0101405490000011287962KAGINGIN, EULALIA FIDELINO                               0503
B0101408400394032168001ALQUIROS FOOD CORPORATION                                1602
A0101408400394498092001ABIERA, MA. EDNA DIONGLAY                                0501
A0101408950000000776609DEL PRADO, BETTINA AQUINO                                0501
A0101408950000011434574MOLINA, MARIA LOUELLA VICTA                              0502
A0101409180000016933490LIM, ISAAC SARMIENTO                                     0502
A0101409180397638073001RONALD GERALD P. MAGLEO OR                              10501
A0101409180397638073001MYLENE C. MAGLEO                                        20500
A0101409180397696150001***                                                      0502
A0101412210000010256732OPULENCIA, ETHYLYN REARTE                                0503
B2401400180411017908001LWC CYCLE MART, INC.                                     1604
A1201400150000002325133CORTEZ, FLORECITA ALCANTARA                              0501
A1201400150000017292816HILARIO, SATURNINA DIWAS                                 0505
A0901400220000001805129**********                                               0502
B0901400220432043554001GERRY'S GRILL                                            1602
B0901400220432043565001CASA CANELAR PENSION                                     1601
A5101400100000010834341NORBE, NEIL OROYAN DBU NN100 CO                          0501
B0101403030441707375001**********                                               1602
A0101403320000017356362FERDINAND O. SANTOS                                      0501
B0101403320471008879002GOLDWIN MANUFACTURING                                   11610
B0101403320471008879002LABORATORIES                                            21600
A0101403320000004830911726RADLEY TRADING                                        0502
A3801400170490757939001RENEL GARCIA MEDINA                                      0501
A1401400110000001806800BRAVO, EVALOR CABUYA OR                                 10501
A1401400110000001806800BRAVO, RUEL BALD                                        20500
A1401400110000018329809BAUTISTA JR., NARCISO OR                                10501
A1401400110000018329809BAUTISTA, MA. CHERRY                                    20500
B1401400110000000167446SOUTHERN PROCESSING CORPORATION                          1606
B1401400110492066173002COOPERATIVE ALLIANCE FOR RESPONSIVE                      1601
A0101407430000004687458ABONG, EMELITA RESURRECCION                              0501
A0101407430503332538001TERESITA F. AWAT                                         0501
B0101403580000013963881MEC - HOJ 2                                              1603
A0101403580511403658009SHARON DAYOAN                                            0506
A0101408530000018837644CRUZ, ARIES ARIBAL                                       0501
A0101408530516571877044VERONICA CHANLIONGCO                                     0501
A0101403450521238943001Van and Ver Corp.                                        0501
B0101403610531046549001BIG APPLE PLASTIC PACKAGING INC.                         1602
A0101410690000002290804AGUILOS, LINDSEY BUNNAO                                  0502
B0101404260611033056001OVT-GRAPHIC LINE INC.                                    1603
A0101407690000018495055ROQUE, MARIE EILEEN ABRENA DBU                          10501
A0101407690000018495055RUNDERACE ENTERPRISE                                    20500
A0101413570000018043084RODELAS, RONNIE                                          0501
A0101414120000001751446MARIA GRACE LACUESTA OR RICKY                           10505
A0101414120000001751446LACUESTA OR MILE                                        20500
A0101414120000000649081MC EDRICK TRUCKING SERVICES                              0504
A0101410300000011355592*****                                                    0504
A1301400210000011696383BAUTISTA, DAISY FLORES                                   0502
A1301400340683283077001TORDESILLAS, JUAN GREGO OR                              10510
A1301400340683283077001ETHEL CHRISTINE                                         20500
A1301400340000006402455CABIGAS, RENATO EXALTACION                               0501
B1301400500000018856490RAMON B. DE JESUS DBU DE JESUS GENERAL                  11601
B1301400500000018856490HOSPITAL                                                21600
A1701400230000004469643SALAZAR, MARIBETH SALVADOR DBU                          10505
A1701400230000004469643NORTH TECH BUILD                                        20500
A0101408240711379848001GINA MARIE R. MEDINA                                     0502
A0101408240711396778001MA. FRANCESCA ROMANA OR                                 10501
A0101408240711396778001PHILIPPE SEYER                                          20500
A2801400100712478374012DELA CRUZ, VANESSA JOY                                   0501
A2801400100000002253607SPRINGAEL, CHERRY BARBACENA                              0502
A2801400230000001734761FERMIDA CONSTRUCTION SERVICES                           10502
A2801400230000001734761AND SUPPLIES                                            20500
A2801400230713771317001NACIONAL, NATHANIEL ARZAGA                               0501
A4101400260000003679943TAN, ANGELINA                                            0501
A4101400260000015859053FRENCILLO, JOCELYN MAGNO                                 0503
B4101400420814034216001BETHANY BIBLE BAPTIST ACADEMY,                          11603
B4101400420814034216001CAVITE INC.                                             21600
A4101400420000002345273LEONICIA S. HERRERA                                      0501
B4101400550000000900036BACOOR DOCTORS MEDICAL CENTER INC.                       1603
A4101400550815058065003ALPAS, M DBU ALPAS DENTAL CARE                           0502
A0101412340000003342112JAYCEE ANNE G. CRUZ                                      0501
B0101404840000001312463LF GLOBAL LOGISTICS SOLUTIONS INC.                       1602
A0101404840851478374094LETICIA FULLO                                            0501
A0101406750000001491823VILLACUTA-MORA, SHERRILYN BDO                           10503
A0101406750000001491823DENTAL HAVEN                                            20500
A0101405070000018007984NEWERA LYN FALOGME HIPOLITO                              0501
B0101405070000018151338IF LENDING INVESTORS INC.                                1601
B0101413860000016827011PAWNHERO PAWNSHOP PHILIPPINES, INC.                      1605
A0601400230000014575950NAGUIT, MHELODIE OCAMPO                                  0503
A0601400230891454850001WILLIAM J. NACIONAL                                      0503
B0601400230000007954041MERCADO, AILLEEN DIMACALI                                1602
A0601400230000002650108TUAZON, REMIGIO ESCANO                                   0501
