B1201400150421821100608**********                                               2001
A0101406750852608258002ANDAL, JOYCERENE BELANDO                                 0501
B3001400130000001271603RUELAN ENTERPRISES                                       1610
A0101406750000004642262LOBO, THELMA GLORIA                                      0502
A0101400860000003571657**********                                               0501
A0101400860011399487002**********                                               0505
A0101400860011425129001**********                                               0501
A0101400150000000806768YOUNG, MEGAN LYNNE TALDE                                 0502
A0101400150000003218226PIA VANESSA V. SORIANO                                   0501
B0101400150061016624001ASIASEC EQUITIES INC (SPCL RESERVE)                      1601
A0101400150061370228059MARCELINO DE CHAVEZ                                      0502
A0101400150061383934001TEVES, MA. VICTORIA GRACE                                0502
A0101400150061389261001AYSON, JOEL RAYMOND REDULA                               0501
A0101400150061389261001AYSON, JOEL RAYMOND REDULA                               0501
B0101400150061546867001THE STRAITS WINE COMPANY, INC.                           1601
B0101400600071059422001SOREAL TECHNOLOGIES INC.                                 1602
A0101405810072432190002ZHENG, LI HUA SHI                                        0503
A0601400100000009324090SIMSUANGCO, PAUL ALLAN DIWA                              0501
B0601400100000007185062PUREPOWER VENTURES CORP.                                 1601
A0601400360000002282282DIMALANTA, ANNA CATALINA ANIAG                          10501
A0601400360000002282282OR DIMALANTA, GENARO LEVI                               20500
A0101410560000002316456REYES, REDENTOR HERNANDEZ                                0501
B0101410560110821100608**********                                               2002
A0101400730111429247002SANTOS, CAROL MAE ASIDO OR                              10502
A0101400730111429247002SANTOS, ENRICO                                          20500
A0101400730111520766067ROJAS, ANGELIE L.                                        0502
A0101401960121301941001**********                                               0501
A0101412630000004062086BANZUELA, ELEANOR ADORNA                                 0502
A7201400170000003774367MEJOS, ANIEVER ANTEGA                                    0501
A0101400440000009896311MONSANTO, MARY ANN PONTILLAS                             0501
B0101400440161007228001ADVANCED ELECTRONICS SERVICES CORP                       1601
A0101400440161525001125MAY M. RAMOS                                             0501
B0101407270162037605002MAINE CITY PROPERTY HOLDING CORP.                        1607
B0101407270162038101001BIRDS INTERNATIONAL, INC.                                1603
B0101407270000000830631EERA MARKETING                                           1602
A0101401090171195098001NILO C. DELOS SANTOS                                     0502
A0101401090171201337001TAN, JOYCE TAN                                           0501
B0301400660000011140153D-JAS GENERAL MANPOWER SERVICES, IN                      1605
B0301400790000000435738NEW GREAT LUMBER AND CONSTRUCTION                       11601
B0301400790000000435738SUPPLY, INC.                                            21600
B0301400790195053525001EMCELI PROPERTY HOLDINGS CORP                            1601
B0101401380201019369001STA. ROSA MOTOR WORKS INC.                               1601
B0101401380201024849001COLUMBIAN MOTORS CORPORATION                             1601
A0101401380201618189001CINCO, ROSA OR LAM, LAURENCE                             0505
A0101401380000001412731MANAHAN, MARK LESTER MOHAMMAD                            0503
A0101410720653418045001LEIDO, EMMANUEL BERTULFO OR                             10502
A0101410720653418045001LEIDO, MAE K,                                           20500
B0101413600000005524807TRUCKMASTER GOLDEN BODY MFG. CORP.                       1601
A3101400870000002327982MAGTALAS, ENGELBERT ALINSOD                              0501
A3001400130000001261169LIM, MICHELLE ZOSA                                       0503
A3001400130000002063441JONGKO, JOSE MARI MARCO OR                              10502
A3001400130000002063441JONGKO, DEBORAH                                         20500
A1001400190231478374006LIBRADO, HAZEL T.                                        0501
A1001400480000003357577FELICILDA, KESSA MARGARET NECES                          0501
B1001400480000006296262MA. DEL CARMEN MART, INC.                                1610
A1301400470000005394221ALICIA M. HOLGADO                                        0505
B1301400760000007820671VICTOR R. DEL ROSARIO RICE MILL CORP.                    1605
A1301400760253483852001LUCHIE G. GONZALES                                       0502
A1901400290000012158888ANNIERICA BAUTISTA LAJARCA                               0501
B1901400290261060606001F.J.H. HARDWARE & ELECTRICAL SUPPLIES                    1601
A0101406620000002279718GABALES, FILMAROSA MAURICIO                              0502
B0101406620273009506001GOLDEN MAPLE HOLDINGS, INC                               1602
B0101406620273009507001MANTLE HOLDINGS, INC.                                    1602
A0101406620273458914001**********                                               0501
A0101406620273479763001BIALA JR., BEDA BANCOSTA                                 0501
A0101400570281186536001DR. MERCY ANTOINETTE GAPPI                               0502
A0501400200000005751657DELA CRUZ, BERNADETTE DE VEGA                           10501
A0501400200000005751657OR FERRER, ROLANDO TUAZON                               20500
A0501400200000005751635PERDIDO JR., LEONARDO DIWATA OR                         10501
A0501400200000005751635FLORES, JOAN MAY                                        20500
A0801400160311267968001MUYCO, REX MELCHOR D.                                    0502
B0801400160311271206001WESTERN LAMP & ELECTRICAL SUPPLY                         1604
B6601400120314043609007FUNDACION GRAMEEN PILIPINAS INC.                        11605
B6601400120314043609007VICTORIA BRANCH                                         21600
A6601400120000005710521CARPIO, WILBERT DIANO                                    0502
A6601400120314700866001VILLACORTES, MYLENE SOMBRERO                             0503
B0101405650322025100001GLOBAL PACKAGING SYSTEMS AND MATERIALS                  11601
B0101405650322025100001CORP.                                                   21600
A0101405650000003491376**********                                               0501
B0201400760000007134585CHUA, JASON ANTHONY UY DBU VISIONARY                    11601
B0201400760000007134585STUDIO ARCHITECT                                        21600
B0201400890376045790003****************                                         1603
A0101408790000001486233***                                                      0502
A0101408790000000600002SHAN MARBLE & GRANITE SUPPLY                             0503
A0101411660384047607001QUEEN'S LAIR HAIR CARE AND                              10510
A0101411660384047607001BEAUTY SALON                                            20500
A0101405490392029745001MESINA BROTHERS, INCORPORATED                            0502
B0101405490000003905151ASIA PRIME REALTY NETWORK, INC.                          1603
A0101408400394160344001CALMA, ALFREDO MATAGA                                    0506
A0101408400000000607743VALLE, MIGUELA IZZAH LORIA                               0501
A0101408950396493204002DE VERA, JANIS ANN ESPINO                                0501
A0101409180000008122570VETERBO II, ROY PASCUA                                   0501
A0101412210000012160933ALVAREZ, MARIE NIEVES BONDAD                             0502
A5501400120410633077001CLAVISILLAS, JOSIE OR                                   10501
A5501400120410633077001CLAVISILLAS, RON                                        20500
B2401400180411783270088JSDR MARKETING - GEN. SANTOS BRANCH                      1602
A0101403320000001803481GUZMAN, MARLON ONG                                       0502
B0101403320471019960002DIRECT ELECTRIX EQUIPMENT                               11605
B0101403320471019960002CORPORATION                                             21600
B0101403320471032147001MEDZ SHOES CORPORATION                                   1602
A0101403320471550493001VILLAMIEL, MARIA ANTONIA ESCASA                          0502
B0501400170481015881001TOYOTA DAGUPAN INC.-2                                    1615
B0101405940512005310001TRANS-MILLENIUM MERC. CORP.                              1603
B0101405940512005320001BASK DISTRIBUTORS, INC.                                  1603
A0101408530516571877123ROBERTO PAOLO DE GUZMAN                                  0502
B0101403450521238098001**********                                               1605
A0101403450521656576001**********                                               0501
B0101403610531010097001UNI FUNDS INCORPORATED                                   1601
A2201400250561088535001CHRISTOPHER JORDAN L. CHUA                               0502
A2201400250561359017003ALVIN D. LUGUE                                           0501
A0101410690000003027589MARIANO, WILMINA GONZALES                                0501
A0101407720602345195002GEORGE T. GODUCO OR                                     10502
A0101407720602345195002MA. TERESA P. GODUCO                                    20500
A0101407720602381795001FORES, MIGUEL EDGARDO MANUEL                            10502
A0101407720602381795001OR FORES, LUCIA                                         20500
A0101407720602496503015DANIEL M. LUCHANGCO                                      0501
A0101412180000000908390LIM, LEA YAP                                             0501
B0101404260611005238001REYES, ANASTACIO PAWNSHOP INC.                           1601
B0101404260611005274001ETR DEVELOPMENT CORPORATION                              1601
A0101404260000006374467DENSING, M DBU QSAFE INDUSTRIAL                         10502
A0101404260000006374467SAFETY SERVICES                                         20500
A0101404260611459534001LAOLAO, MARDELYN CALLORA                                 0502
A0101409920650478374005CRISOSTOMO, MA. EMELIA GASPAN                           10501
A0101409920650478374005MEMBERS OF NATASHA                                      20500
A0101407690652319667001TANTAMCO, RAMON NICOLAS                                  0510
A0101407690652478374128LOIDA M. MAYOLA - DEALERS OF                            10502
A0101407690652478374128SHOECAT INC.                                            20500
B0101413440000001085632SEABAR TERMINAL, INCORPORATED                            1603
B0101413440000002691643KASAPI-KAAGAPAY SA PANGKABUHAYAN LE                      1601
A0101413990000001202377ELLEN MAE L. GONZALES OR                                10501
A0101413990000001202377RONALDO AMADOR GONZALES                                 20500
A0101413990000012165752BAGOS, MARCELINO RABENITAS                               0501
A0101406590000000131682SISON, JOANNE TABORA                                     0501
B1301400210000008173933***                                                      1604
A1301400500000011254361KE, JINZENG                                              0504
A1301400500000004093087ME-ANN'S EGG DEALER                                      0505
A0101408240000002413281CHOI, SEUNG HYUK                                         0501
A0101408240000002413281CHOI, SEUNG HYUK OR                                     10501
A0101408240000002413281CHOI, NANJOO                                            20500
B0101408240711025397001KINGSMEN CORPORATION                                     1605
A0101408240711384303001RUFINO P. MUTUC III JT                                   0501
A0101408240711643338001ARCAYA, MICHELLE GRASPARIL                               0502
A2801400100712378394001REYNOLD JOHN B. MADAMBA OR                              10501
A2801400100712378394001ANNE RAQUEL S. MADAMBA                                  20500
A2801400230000005752376ZAFRA, ANGIL DBU D-J VELOCITY                           10502
A2801400230000005752376RENT                                                    20500
A4101400390813775566002MARIO C. TUAZON                                          0502
A0101412340000002266720CARMELIZA G. VITUG                                       0501
A0101404840851520766189DIAGO, MARY JANE                                         0502
A0101406750852396979001ROSILDA OR PAPIAS ORZALES                               10501
A0101406750852396979001OR MA. LOURDES B                                        20500
A0101406750852463950001MAPOY, MANUEL VIZCONDE                                   0501
B0101405070861028661001V.P. VILLANUEVA, INC.                                    1601
A0101405070861512932001REMEDIOS V. MUNCAL OR                                   10501
A0101405070861512932001LUIS Z. VILLANUEVA                                      20500
A0101405070861615633001VILLANUEVA, LUIS ZAMORA OR                              10501
A0101405070861615633001VILLANUEVA, EPIFANIA R.                                 20500
A0601400230891253188001TERESITA OR EDUARDO PINEDA                               0503
