B0101410690600046848001PEER MOTORTEK SALES CORPORATION                          1601
A0101412920000003464908BARRETTO, JOCELYN EXCONDE OR                            10504
A0101412920000003464908BARRETTO, KRISTEL JOY                                   20500
A0101412920000005193831CASTRO, STEPHEN JOSEPH ROMERO                            0502
B0101400440000005393819EXECUTIVE GENESIS MANPOWER SERVICES                      1605
A0101400440161039572051MARIA EDILINA S. BULAC                                   0502
A0101400150061229054001RAYMUNDO L. LOGAN                                        0502
B0101400440161025954001DEX INTERNATIONAL CO.                                    1605
A0101400440161525001139JEMARIE S. SALUDAR                                       0502
A0101400440161525001166CELESTE G. CASABAR                                       0501
B0101410980275821100608**********                                               2002
A0101402930000003710494TECSON II, DELANO VINCENT DOROT                          0502
B0101405940512005328001MAY BLOSSOM CAR RENTAL, INC.                             1602
B0101413860000008668700COLUMBIA TECHNOLOGIES, INC.                              1602
A0101400860000001005412**********                                               0501
A0101400860011489390001**********                                               0501
A0101401250000000460666SANTOS, LUZ MILAN OR                                    10501
A0101401250000000460666SANTOS, JOCELYN SANTOS                                  20500
A0101411370000005524385YANG, LIU                                                0501
A0101400150000006239283MUYULA, ANGELA FRANCE ANGANANGA                          0501
B0101400150061011053001HOYA LENS PHILIPPINES, INC.                              1620
B0101400150061028993001PHILAGROW INCORPORATED                                   1603
B0101400150061034428001STARLANES PHILIPPINES, INC.                              1601
A0101400150061226325001ALMONTE, FREDESWINDA TIONG                              10501
A0101400150061226325001OR FELIZARDO ALM                                        20500
A0101400150061387199001AGUILAR, LEAH MOLINYAWE                                  0501
A0101400150061746999001ELEANOR G. COLIANGCO OR RICO                            10501
A0101400150061746999001MA. ANTONIO GONZALEZ                                    20500
B0601400100081256915005KWONG, WILLIAM G. OR                                    11605
B0601400100081256915005ANTONIO, ADELA                                          21600
B0601400360000013047660CYBER CITY EMPLOYEES MULTIPURPOSE                       11610
B0601400360000013047660COOPERATIVE                                             21600
B0601400360000013047671CYBER CITY EMPLOYEES MULTIPURPOSE                       11610
B0601400360000013047671COOPERATIVE                                             21600
B0601400360000003186827ANDROBOTICS CLARK INC.                                   1602
A0101410850000003119111RAMA, MARIE JOAN ESTOLOGA                                0501
B0101410850000003503784RAMA, MARIE JOAN ESTOLOGA                                1601
A0101410850000010978153DE VERA, CHERRY LOU ORPILLA                              0501
B0101410850000013409013MEGAPAINT CORPORATION                                    1601
A0101410850000000005778****                                                     0501
A0101400730000011297608CARLO E. BATUNGBACAL                                     0501
A0101400730111393421014JOCELYN DELOS SANTOS                                     0502
B0101401960000005988738**********                                               1602
A0101413150000003208277******                                                   0502
A0101412630000001485150TAN, IRMA ESTRELLA                                       0501
A0101412630000004062042RACHO, E DBU RAR ELJAY                                  10501
A0101412630000004062042AUTO SUPPLY                                             20500
A0101413310000001794545SANTIAGO JR., GILBERT INOCENCIO                          0501
B0101413310000006144732SHAREVIS, INC.                                           1601
A0101401830141332942001LAMBERTO E. TEODORO JR.                                  0502
A0101401830000002274320TIRAO, FRANCISCA F. OR MARINAS,                         10501
A0101401830000002274320KATHERINE D.                                            20500
B7201400170000006487785LADLAD, EMSA BANA                                        1601
B5001400170000008743795PETRA CEMENT INC.                                        1601
B0101412920000013894756MANJARU OUTDOORS, INC.                                   1601
B0101400440161007221001ILA EXPRESS HAULER                                       1602
B01014004401610279620020ASAYRA CORPORATION                                      1601
A0101400440161039572058ERLINDA S. AVERILLA                                      0501
B0101400440000005393791TRIMOTORS TECHNOLOGY CORP.                               1602
A0101407270000007502309MORALES, MARC STEVE CONCEPCION                           0501
A0101407270162449396005AUMER ANNE L. REYES                                      0501
A0101407270162526657001VALERIE ANNE G. MALIG                                    0501
A0101401090171195854001NENITA OR EDDIE TAN                                      0502
A0101401090171196098001DR. ALEX A. ERASMO                                       0505
A0101401090171322573001DR. PORSHIA COMES-NATIVIDAD                              0501
A0101401090171421977001AIMIE M. MAGLANGIT                                       0502
B0301400660000002348541ERVY LOGISTICS                                           1602
B0301400660000002348541ERVY LOGISTICS                                           1602
B0301400950000011415175BOOMIN' & BLOOMIN' BRAND INC.                            1602
A0101401380201313149001JAIME R. ALANO                                           0501
A0101401380201538816001PARK, HYUN JUNG                                          0502
A0101413600000011225806MA. CATHERINE CROISSANT LUMANAS                          0501
B3101400160221044301001ADTEK ENTERPRISES, INC.                                  1601
B3101400160221044522001ADTEK TRUCKING INC                                       1601
B3101400160221044523001ADTEK WOOD INDUSTRY, INC                                 1601
B3101400450223668355001LUGAW QUEEN FOOD CORPORATION                             1601
A3101400740224646798001CHUA, JOSEPH SOMO                                        0501
A3101400870000005410122DAYRIT, ARNOLD SAUZ                                      0501
A3101400870000005410111DAYRIT, GISELLE GRACE LIM                                0501
B1001400350233040223001HANTO CAR, INC.                                          1601
A1001400350233777505001CESAR, NEMAS ACERA                                       0501
B1001400480000011810136SATOR, JOSEPH PACQUIAO DBU WELL                         11601
B1001400480000011810136BAZAAR CONVENIEN                                        21600
A1001400480000008501940BALANA JR., RICHARD ZAMAYLA DBU                         10501
A1001400480000008501940RBJ ENTERPRISES                                         20500
B0101408660000000373186THREE STEPS AHEAD PRODUCTS, INCORPORATED                 1601
A0101410980000002987086**************                                           0502
A0101412470000002136038LABURADA, MICHAEL MORALES                                0501
A0101400570281359777001LILY LIM LEY                                             0503
A0101400570281395118001HONEYLIN C. ROXAS                                        0501
A0101400570281553109002ENRIQUE DELGADO COJUANGCO JR.                            0501
A1101400120000000652453YOUNG, RICHARD EGEA                                      0501
A1101400120000001547337ALDIANO, FLORDELUNA LATO                                 0502
A1101400120000003981226HO, EVANGELINE CHU DBU TWINS                            10501
A1101400120000003981226HORIZON ENTERPRI                                        20500
A1101400120313094914001CHU,VISITACION UY OR CHU, GARY                          10501
A1101400120313094914001OR HO,EVANGELINE                                        20500
A1101400120313478374116MASIN, NANCY KELISTE                                     0501
A6601400120000000060802PAMBUENA, LINA AMARO                                     0505
A6601400120000002249830LUCERO, MYRNA DELA TORRE OR                             10501
A6601400120000002249830LUCERO, ARPON U                                         20500
A6601400120314043084001SOLID M CONSTRUCTION                                     0504
A0101402510000001025983ROSITA/MARIE STELLA NAVARRO/                            10501
A0101402510000001025983MARIO POTENCIANO                                        20500
A0101409050000006986603LISING, RAMON VIRTUCIO JT                                0501
A0201400920000000048020DONG JUAN CENTRAL CORPORATION                            0501
A0101402930000003735200MANALO, MARSHALL JOHN HENRY GAR                          0501
B0101402930000008462540JEVANT TECHNOLOGIES PHILIPPINES                         11602
B0101402930000008462540CORPORATION                                             21600
A0101408370000003775075LAGONERA, LUZVIMINDA LUCENA                              0501
A0101408370382205133001DR. ROWENA P. RIVERA OR                                 10503
A0101408370382205133001REBECCA P. RIVERA                                       20500
A0101408370000002264080CHAVEZ, CHRISTINE LAOANG                                 0501
A0101408370382663801001DRS. RICARDO G. ROCO OR                                 10502
A0101408370382663801001URSULA V. ROCO                                          20500
A0101408790000010423280REAL, JULIETA D.                                         0501
B0101408790383031433001ROBINSONS BANK TRUST AND INVESTMENTS                    11601
B0101408790383031433001GROUP                                                   21600
A0101411660000005324112APOSTOL, ANGELIN FRAGANTE                                0501
A0101408400000013913914JAVIER, MARY LOVE OR TALAROC,                           10501
A0101408400000013913914VENTURADA                                               20500
B0101408400000008699927LEBERMAN REALTY CORPORATION                              1602
A0101408950000003439183AYSON, MARIE KAREEN IDEA                                 0501
A0101408950000005325600CAYOS, JUAYMA RUTH CAYABYAB                              0502
A0101409180000002252477ENCARNACION, MELISSA FORTALEZA                           0501
A0101409180000010760033CAUTON, ANNA KATRINA H. OR                              10501
A0101409180000010760033CAUTON III, LUCA                                        20500
A0101409180000004796701MIMILANIE B. CASTANEDA                                   0501
A0101409180000011749821MIR, JAWAD ALI                                           0501
A0101409180000004959635FERRERAS, EDWIN L. DBU BICORE                           10501
A0101409180000004959635ONE NETWORK ENTE                                        20500
B0101409210398044146001ALPHA WATER AND REALTY SERVICES CORP.                    1601
A1201400150000000473249YASAY, MA. THERESA DE CASTRO                             0502
A1201400150421256057002ABYADANG, SOLEDAD GAYADOS                                0503
A1201400150421299356004LARANANG, BENITA CRISELDA                               10503
A1201400150421299356004MANONGDO                                                20500
A1201400150421389883003CHENG, VENJOHN MOLANO                                    0510
A1201400150421685972001JUCUTAN, HEIDI BONDAD OR                                10502
A1201400150421685972001JUCUTAN, ROMMEL                                         20500
A0901400220000001805090**********                                               0501
B0101403030441039990001TOPTRUCK ENTERPRISES                                     1601
B0101403030000005944692**********                                               1601
A0101412890000011812985SERAFIN, RHEGEL RAAGAS                                   0501
B0101412890000009624513UPLIFT CONSTRUCTION AND AUGMENTATION                    11602
B0101412890000009624513SERVICES INC.                                           21600
B0101403320000012881813SCHEIRMAN & CRUZ CONSTRUCTION INC.                       1602
B0101403320471039191001MAR-V-RITZ TRADING - BRANCH                              1603
B0101403320471041480001ITP CONSTRUCTION INC                                     1620
B0101403320471047234001ITP CONSTRUCTION INC/TOKWING CONST. CORP                11602
B0101403320471047234001JOINT VENTURE                                           21600
A0101403320471661005001MARIQUIT R FERMIN OR POCHOLO S                          10501
A0101403320471661005001FERMIN OR PEDRO ROSALES                                 20500
A0101406330000000683341PIZARRO, NENITA LOPEZ                                    0501
A0101412760000001399179CAPILI, JOEL FRANCISCO OR                               10501
A0101412760000001399179NAKAMURA, JOCELY                                        20500
A1901400160000000243661FRANCIS V. VILLAPANDO OR                                10501
A1901400160000000243661THERESA A. VILLAPANDO                                   20500
A1901400160000013912493MARIA SAMANTHA YSABEL A. CHAN                            0501
A1901400160491027942001AREZA MOTOR SALES                                        0510
A1401400110000000628604LANDAYAN, CHRISTOPHER CRISTOBAL                          0502
A1401400110492018536001MANDERANA BUILDERS AND ENG'G                            10502
A1401400110492018536001SERVICES                                                20500
B1401400110492028896002CARLOS DRUGS-LUCENA, INC                                 1601
B1401400110492033323001STA. BARBARA HOMES HOMEOWNERS                           11601
B1401400110492033323001ASSOCIATION                                             21600
B1401400110492042438001ACYATAN FOUNDATION, INC.                                 1601
A1401400110000000132841*******                                                  0501
A1601400170000000421161GEORGIA SOFIA GIMENEZ-LUISTRO                           10505
A1601400170000000421161OR LUISITO B. LU                                        20500
A0101407430000000447067MICHELLE C. MOTOL                                        0502
B0101407430503009819001AIRGLOBE, INC.                                           1603
B0101407430503009819002AIRGLOBE, INC.                                           1603
A0101407430000003193382GARCIA, CHRISTOPHER SANVICTORES                         10502
A0101407430000003193382or GARCIA, DIANE ZIGA                                   20500
B0101405940512031769001INDUSTRIAL PROPERTY DEVELOPERS, INC                      1602
A0101408530000013903061CASTILLO IV, GABRIEL OMAR CRUZ                           0501
A0101408530000013903276GUERRERO, IRENEJOY DULAY                                 0501
A0101408530000013903390PILA, ANALYN RUBI                                        0501
A0101408530000013903492TIEBESL, JERRILYN ROMERO                                 0501
B0101403450521034672001**********                                               1602
A0101403450521405772002**********                                               0503
A0101410690000000478906CORONADO, SULPICIO SALUD                                 0501
A0101410690000000710741FAJARDO, MARIA RAMONA CANLAS                             0501
B0101404130601015346002GLOBAL GAS & OIL CARRIERS, INC.                          1603
B0101404130000000696191PINAGPALANG SAMAHAN NG NAGKAKAISANG                     11602
B0101404130000000696191MANGGAGAWA MULTI                                        21600
A0101407720602332279002CAYCO, ANTONIO V. OR                                    10501
A0101407720602332279002CAYCO, MARGARITA                                        20500
A0101407720602341731001************                                             0502
A0101407720602377521001CLAUDINE RAE L. JAVIER                                   0501
A0101404260611151662002DETERA JR., AMANDO CAGUIA                                0502
A0101413570000001069603DR. JOEY A. MACATANGAY                                   0501
B0101414120000003584281JD & P FOOD TRADING CORPORATION                          1602
B0101414120000004603365JD&P FOOD TRADING CORPORATION                            1602
A0101410300663725993001VERCHEZ, ALEX HEBRON                                     0502
A0101408240711219571001MERCEDES M. OLIVER                                       0502
A0101408240000013296761DE ALBA, JOCELYN LIMBO                                   0501
A2801400230000001734732CITY REJUVENATING SPA                                    0503
B4101400390000006103559LEAD WITH INTEGRITY AND GOOD GOVERNANCE                 11605
B4101400390000006103559IN HELPING COMMU                                        21600
A4101400390813425894001LEBADESUS, MARILYN SANTOS                                0501
B4101400420814018935001IGLESIA EVANGELICA UNIDA DE CRISTO(ANABU                11602
B4101400420814018935001UNIDA CHURCH)                                           21600
A4101400420814509594001PEREZ, FRANCISCO YATCO                                   0502
A4101400420814520766125CARAIG, RODANEL B.                                       0502
A4101400420000003715724FLAVIANO, PERLITA                                        0501
A4101400420000002084533VALDISIMO, JENNIFER GEREZ                                0502
A0101404840000003409841EDRADA, CECILIA ASUNCION B. OR                          10501
A0101404840000003409841EDRADA, JOHN CAESAR C.                                  20500
A0101404840000001312543CERBITO, SALVACION                                       0501
A0101404840851481664021MONNA PANGHULAN                                          0501
A0101404840851520766073ELIZABETH A. SUAZO                                       0501
A0101405070861478374086MARLYN C. GABEST                                         0502
A0101413860000009426473BAUTISTA, LAIZA CUREG DBU RCBM                           0502
A0601400230000000990063**********                                               0508
A0601400230000000990052DAYAO, MARIBEL MASIBAC                                   0502
B0601400230891021614001QUIOC (D) QUIOC & ASSOCIATE                              1601
