F0101400570281414182001THELMA MARIE A. ELIO, M.D.                               2501CKO
F0101401120131367396002BARBARA ANNE C. MIGALLOS                                 2602CKO
F0101405780212039885001CENTRAL DIESEL CLINIC                                    2603CKR
F0101400570281344851002JOVEN R. CUANANG, M.D.                                   2510CKO
F0901400190431038091001PEASE CORPORATION                                        2601CKR
F0101411790000003252600ASC GLOBAL RECRUITMENT INC.                              2601CK1
F0101407720602020882004UNIVERSAL STAFFING SERVICES,                            12601CKR
F0101407720602020882004INC.                                                    22600CKR
F0101404260611024484001FULBRIGHT SCIENCE SCHOOL CORP.                           2601CKR
F0101405070861043979001MAKE IT RIGHT PHARMACY AND                              12601CKR
F0101405070861043979001GENERAL MERCHAND                                        22600CKR
