A0101403320471062110001NUMMER ETT BUILDERS & TRADING                            0501
A0601400520000001706890CASTRO, KASMICHELF MIRANDA                               0503
A0601400520000004423250POLESTICO, GHIEDEL MA., DBU                             10501
A0601400520000004423250ALBROS CARGO                                            20500
A0101400440161039572092JOSEFINA R. JONES                                        0501
A0101413020000003055314JVF COMMERCIAL AND PROJECT DEVT                         10503
A0101413020000003055314SUPPORT SERVICES                                        20500
A2001400290000000924447CLAVEL, ALAN ZAMORA                                      0503
A0101402060000005137315LIM, EMMA DELA ROSA                                      0504
A0101412890000002747824************                                             0501
A0101412890470340665001POLICARPIO, WILMA D. OR                                 10501
A0101412890470340665001POLICARPIO, REYMIL C.                                   20500
A0501400170000000494651CHU, FELICIANA DBU NEW                                  10501
A0501400170000000494651POZORRUBIO MERCHANDISING                                20500
B0101403450521364308001**********                                               1601
B0101400860011399627003**********                                               1605
A0101400150000000807636TESALONA, MARIA CLAUDETTE CRUZ                           0501
A0101400150000002671532LORENZO SIXTO T. LICHAUCO                                0501
A0101400150000003197977KARLA M. PAMPLONA                                        0501
A0101400150000003218124MEDWELLYN-VER A. SANTOS                                  0501
A0101400150061226712001PETER FAVILA &/OR ALICE FAVILA                           0510
A0101400150061227077001LUIS V. ASCALON OR                                      10501
A0101400150061227077001MARGARET A. VALD                                        20500
A0101400150061227098001TITA CARANTO OR PIO CARANTO                              0501
A0101400150061228143001LUIS C. CUEVAS                                           0501
A0101400150061231678001GALANG, SHIRLEY DELA CRUZ                                0501
A0101400150061475710001NARVAEZ JR., EVARISTO MADLANSAC                          0504
A0101400150061569034001JOHN R. JACKSON OR TANCHI, JOSE                         10501
A0101400150061569034001PH CHRISTOPHER C                                        20500
A0601400100000000032497VALENCIA, MISAEL TORNO                                   0501
A0601400100081251939002ELIZARDO OR WILMA MARTINEZ                               0501
B01014132800000000418632ND PASADENA PLACE NEIGHBORHOOD                         11601
B0101413280000000041863ASSOCIATION INC.                                        21600
A0101410560000000268320BALTAZAR, BEATRIZ POLO                                   0501
A0101410560000005280462**********                                               0502
B0101410560110045564001S.M. LAZO MEDICAL CLINIC, INC.                           1610
A0101400730000002882295CRUZ, MARIA THERESA ALONZO                               0501
A0101401960121239446001**********                                               0501
A0101401960000000211036**********                                               0501
A0101401960121490101001CO, EUNICE JAYNE ONG OR                                 10501
A0101401960121490101001CO JR., ALEXANDER SY                                    20500
A0101400440000004889876MARICEL D. BACOLOD                                       0504
A0101400440161395112001GERLY T. VILLEGAS                                        0501
B0101407270162028106001MANSMITH AND FIELDERS, INC.                              1602
A0101401090000007681710ABCEDE, ANGELO AUSTRIA                                   0501
A0101401090171035426001BIG MARTHA ENTERPRISES                                   0510
A0101401090171203082002JUDE PADAMA GUIANG                                       0501
B0301400660194469662168*****                                                    1605
A0101401380000005320990**********                                               0502
A0101413020000000880422LIM-ESTOROSOS, VICKYLYN CHUA                             0501
B3101400160221010168001K SERVICO TRADE, INC.                                    1603
A3001400130230046921001RUBY EGG FARMS                                           0505
A3001400130000000007041CHAQ GLASS & ALUMINUM SUPPLY                             0501
A1001400190000002170758JUGAN, JUDITH MALOLOT                                    0502
A1001400190231520766206PALMA, RONIE JOLAO                                       0501
A1001400350233478374033CARAOS, PATROSENIA T.                                    0501
A1301400470252763998001BEVERLY C. EVANGELISTA                                   0501
B0101401670271045353001DETECTNET SECURITY CREDIT COOPERATIVE                    1601
B0101401670000000016275GLOBAL REGALONG EXPRESS PADALA INC                       1601
B0101401670271058808001***************                                          1602
B0101406460000001231656EASTGATE COMPUTER CORPORATION                            1601
A0101406460272686557001TANWANGCO, ALEX FERNANDEZ OR                            10510
A0101406460272686557001TANWANGCO, ANDRE                                        20500
B0101410980000003479470CRAFTISTRY INC                                           1602
A0101411240000001563468ENRIQUEZ, FRANCIS XAVIER GARCIA                         10501
A0101411240000001563468OR ENRIQUEZ, CAR                                        20500
A0801400160311478374106SORILLA, HAYDEE                                          0501
A0801400160311494221001JUCABAN, LEO LAGOS                                       0501
B0101402510341024961001PHILIPPINE ASSOCIATION OF COLLEGES                      11602
B0101402510341024961001OF PHARMACY                                             21600
A0101402510341045146001GOLDEN DIMSUM FOOD EXPRESS                               0502
A0101402510341201711001********                                                 0501
B0101402060351009547002CENTRAL LUZON CONFERENCE OF                              1601
B0101402060351045487001PORK PRODUCERS FEDERATION OF THE                        11601
B0101402060351045487001PHILIPPINES INC.                                        21600
B0101402060000000022788PORK PRODUCERS FEDERATION OF THE PH                      1601
A0101402060351160004002*********                                                0505
A0101402060351444611001BONDOC, NARCISA NAVARRO                                  0502
A0101409050000003533526MARTIN ALLAN DIEZ                                        0501
A0201400760374478374011ALMENE, MA. LOPER RUIZ                                   0501
A0201400920000000991744GAVIOLA, GLENDA JUNE SERDAN                              0501
B0201400920375035929001UPLAND STOCK FEEDS, INC.                                 1602
A0201400920000000047976MEMBERS OF NATASHA SHOECAT INC                          10503
A0201400920000000047976TUBIN, ELVIRA BO                                        20500
B0101402930381022284001INVESTORS ASSURANCE CORPORATION                          1601
A0101402930000000038662CAPULONG, ENRICO STEVE ENRIQUEZ                         10502
A0101402930000000038662OR CAPULONG, MA.                                        20500
A0101402930381205320001SIMON BUMANLAG SAWIT OR                                 10501
A0101402930381205320001FILIPINAS TIANGC                                        20500
A0101402930381323854001*******                                                  0504
A0101402930381410766001MILADEL LOURDES R BONDOC                                 0501
A0101402770391212085001CATAPIA, EUGENIA OR                                     10502
A0101402770391212085001CATAPIA, REDEL                                          20500
B0101408400394032168001ALQUIROS FOOD CORPORATION                                1603
A0101408400394162092002GUILLERON, EVANGELINE MATIAS                             0502
A0101409180000004919462MARIA CECILIA FERNANDEZ                                  0501
B0101409210000004818840SO, GWENDOLYN NGO                                        1601
B5501400120000001121913PINGOY, ALBERT YUSAY DBU PUREWATER                       1603
A2401400180411455559001VENDIX GEN. MERCHANDISE                                  0501
A0901400220000000012324SPECIALIST MOTORCYCLE PARTS &                           10506
A0901400220000000012324ACCESSORIES, INC                                        20500
A0901400220000006214397**********                                               0502
A0101403030441368293002**********                                               0502
A0101403320000006026984CUNTAPAY, MA. VICTORIA SAN                              10503
A0101403320000006026984ANTONIO                                                 20500
A0101403320000007661067ANTONIO JOSE S. DOMINGUEZ                                0501
A0101410140000001940143DONOS,O DBU MYRTLE ANNE                                 10503
A0101410140000001940143TRUCKING SERVICES                                       20500
A0501400170481679606001CARINO, JOSEPHINE B. OR                                 10501
A0501400170481679606001BANGSAL, CARMELI                                        20500
B1901400160491046052001BANAPRA DEVELOPMENT COOPERATIVE                          1603
A1401400110492395854001MERCEDES C. BARCELONA                                    0501
A0101405940000004476262MARCELO-ABARRO, MONICA LEONOR T                          0501
A0101405940000000061754REGINO, MARIA LALAINE LIAMZON                            0501
A0101406880513500465001SABLAN, JOEL SEBASTIAN                                   0502
A0101406880513565496013ABDON, ANTONELLA TURALBA                                 0501
A0101408110515349308002CORAZON G. CAMANAG                                       0504
A0101408530516493676001********                                                 0503
A0101411790518055764224RADA, PIA ANGELA VERANO                                  0501
A0101403450000000889483*********                                                0504
A0101403450521238094001**********                                               0502
A0101403450521238948001**********                                               0505
A0101403450521520443001**********                                               0503
A0101403450521582387001**********                                               0501
A0101403610000007675792BARRAQUIAS, APRIL TORRRES                                0501
A0101403610000007675838BORJA, RUDEN ALVIAR                                      0501
A0101409890649721710001MAPILI, ERICK RYAN RIVERA                                0501
A0101409920650478374004DADULA, IRENE INES FAVOR                                10502
A0101409920650478374004MEMBERS OF NATAS                                        20500
A0101413570656057648036JOVEN J. ALBINA                                          0501
A0101413570656057648178KERVIN GIAN G. NAVARRETE                                 0501
A0101413570656057648253RYAN MICHAEL D. SARMIENTO                                0502
A0101413990000000205934MGN GARMENT LINE SERVICES                                0503
A0101413990000000206033MARITES R. CONANAN                                       0502
A0101410300000006278733MARIANO, FLORISA ESTANDIAN                               0502
A0101410300000004361580DELAS ALAS, MARTINA EILEEN                              10510
A0101410300000004361580HERNANDEZ                                               20500
A1701400230000005694102SALAZAR, EDWIN ENRIQUEZ                                  0502
A0101408240000000005181POL CAMACHO SECURITY                                    10501
A0101408240000000005181CONSULTANCY                                             20500
A0101408240711323526001SHIRLEY A. MANESE OR MARIA                              10501
A0101408240711323526001ELENA M. ISAAC                                          20500
B4101400390000006103560LEAD WITH INTEGRITY AND GOOD GOVERN                      1605
A4101400550000003266982*****                                                    0501
A0101404840851210994001LIGAYA P. GASCON OR                                     10502
A0101404840851210994001MARIA LOVELY DEL                                        20500
A0101405070000000741360FIEL, ALMA DE MESA OR                                   10501
A0101405070000000741360FIEL, ROMEL TORECAMPO                                   20500
A0101405070861197507001SIY, LUISA SIA                                           0501
B0601400230891030219001ALPHA SIERRA INDUSTRIAL SOLUTION CORP.                  11602
B0601400230891030219001(ASISCO)                                                21600
