A2801400100000000004786SALES, BERLET BARAL                                      0501
A0301400530000000065865ARASA, NICOLAS                                           0501
A0101411790000000134125********                                                 0501
A0101412630000000180414BONIFACIO, JOCELYN MADRID                                0501
A0101412920000000276340PALAD, AVERY JOHN CANTO                                  0501
A0101400440000000337860SEACHON, JOSEPH CLEMENTE                                 0501
A0101414120000000398818*********                                                0501
A0101404840000000475952GONZALES, ROWENA POLLICAR                                0501
A0101404260000000550069DADIVAS, EVELYN BARREGON                                 0501
A0101411820000000589408ARLYNE B. BRANDA                                         0502
A0101414120000000648948TIMBANG, AMIEL DADIVAS                                   0501
A0101414120000000649069MARTINEZ, PAMELA NINA APO                                0501
A1901400320000000679216CHANDA PEREZ ATIENZA                                     0504
A0101407270000000818315SPIRO CLEMENTE AND JOSEF LU                              0502
A4101400550000000900350SANTOSIDAD AUTO SUPPLY                                   0501
A4101400550000000981784PRUDENCIO, EILEEN LOURDES ELIZA                          0501
A0101400860000001005503**********                                               0503
A0301400530000001009943PANTUA, JERSON R.                                        0501
A0101412340000001017521JIMENEZ, JANICE BANGUILAN                                0505
A0501400170000001072833AQUINO, LETECIA CASTANARES                               0501
A0101409210000001294571ORTIZ, TEODORO RICO BALACUIT                             0501
A6601400120000001370661CARDENAS, MILAGROS ARCEBUCHE                             0502
A0301400530000001409723ESTOQUE, GILBERT ROLAND MIRANDA                          0505
A1301400340000001415736LABOG, ANABEL TRIVINO                                    0501
A0101402350000001474380CHANG, CHIAO FENG                                        0501
A0101401670000001598474ERENO, MARY AGATHA CRUZ                                  0501
A0101401090000001618782KRYZLER FOOD STATION                                     0502
A0101400150000001707951ALFECHE, MICHELLE ROSE OBACH                             0501
A1401400110000001806873BUERA, ALICIA NARVAEZ                                    0502
A0101412890000002324243JACOB, MARIELYN GUTIERREZ                                0501
A0101413440000002846262SARET, MARIA JENNIFER JADE M.                            0505
A0101414120000002879812FROSY INTERNATIONAL TRADING                              0502
A1301400210000002908876SACDALAN, CARMELITA SANTOS                               0502
A0101400860011352579001**********                                               0505
A0101400860011388186002TAN, MYRNA MENDOZA                                       0502
A0101400860011391313002**********                                               0502
A0101400860011402718002**********                                               0503
A0101400860011410778003*********                                                0510
A0101400860011420919001**********                                               0505
A0101400860011425129001**********                                               0501
A0101400860011475514002**********                                               0503
A0101400860011488646001**********                                               0505
A0101400860011743392001**********                                               0502
A0101400150061315349129CLARA VILLARTA                                           0501
A0101400730111203514019MELBA ALMARIO                                            0501
A0101401960121238670001**********                                               0503
A0101400440161525001111MA. MARILOU A. ARAFILES                                  0501
A0101400440161785794001MARY ANN O. DUMAPIAS                                     0502
A0101401090171199075001LORNA O. KUGENUMA                                        0502
A0101401090171201337001TAN, JOYCE TAN                                           0501
A0101401090171327925001REMEDIOS C. ONG                                          0503
A0101401090171390481001GIGELYN B. RIVERA                                        0501
A0101401090171527856001BOMBARDA, MARY GRACE NAVARRO                             0501
A0101401090171534705001ANGELES, ROGELIO FAJARDO                                 0501
A0101407140213240218001**********                                               0501
A3101400160221503120002JOSE A BACUD                                             0501
A1001400190231045613001FERR MANPOWER SERVICES                                   0501
A0101401670271794897001SIAN, VENERANDA PEDRALVEZ                                0501
A0101400570281688590001TEJADA, MELANIE TORRES                                   0501
A0501400200292567569001LARILYN D. GATCHALLAN                                    0501
A2601400270302591563001ROSITA R. CHE                                            0501
A6601400120314621349001JAGONOY, EMELIE GARROTE                                  0502
A0101402350321478374048GLENDA D. ESTRELLA                                       0501
A0101402350321536804001MANZANERO, LIGAYA I.                                     0501
A0101402350321618569001DAMASO, GLORIA SANCHEZ                                   0501
A0201400760374478374005ABATAYO, JENNIFER A.                                     0501
A0101408370382416471001DR FRANCISCO JAVIER D MILLAR                             0501
A2401400180411478374042JOYCE R. GALLEON                                         0501
A2401400180411478374056GALINDEZ, IRENE AGCAOILE                                 0501
A0101403030441299321002**********                                               0501
A0501400170481256494001ALFEO OR LALAINE BAUTISTA                                0501
A0101403580511151510001NOEL B. SALAZAR                                          0503
A0101406880513565496018HERNANDEZ, RODELIO FARAON                                0501
A0101408530516491420001TENGCO, TERENCE L.                                       0501
A0101403450521238172001**********                                               0501
A0101404130601452661001KING, ARCHIMEDES OR KING, WYDEN                          0503
A0101407720602163497001DR. CARINA DE TORRES                                     0501
A0101407720602290947001ABADINES, MARIE DINIA A                                  0501
A0101407720602295336001AGUIRRE, ANGELITA MIGUEL                                 0501
A0101407720602547907001DR. CORINA MAE G. TIU-DY                                 0503
A0101409890649047047001**********                                               0506
A0101411950680478374004CARLETA, REBECCA CARPIO                                  0501
A1301400340683493166001BUNDOC, REDMOND CASAJE                                   0502
A4101400260812617470001HELEN B. SADORRA                                         0502
A4101400390813298552034THELMA S. DE JESUS                                       0501
A4101400420814298552017LISA A. CLORES                                           0501
A4101400420814478374162RODORA A. CAUSAREN                                       0501
A4101400550815046007001DIGIBOX PRINTING SERVICES                                0502
A0101404840851427853001BIE, JOANNA MARIE GASMEN                                 0502
A0101405070861027133001WORLDLINKS CABLE WORKS                                   0502
A0101405070861360022002PARK, SUJIN                                              0506
A0601400230891257858002LUCIA G. MAGTOTO                                         0510
A0301400530000000065923POWER-UP TIRES, BATTERY AND                             10524
A0101412890000000125482GLICERIO T VILLARIN OR                                  10502
A0101405070000000741064ECHAVEZ, EDMAR SUYKO OR ECHAVEZ                         10501
A0301400530000001010051CUBILLO, DOMINGO D. OR                                  10501
A3001400130000001271312SHAPE & WELL NUTRITIONAL                                10501
A1101400120000001920714TAMAYO, ALMA A. OR                                      10501
A2201400250000001932270DIZON, DANILO GAMBOA DBU NEW                            10503
A0601400100081022019001CLARK HOUSE OF WINE & GEN MDSE.                         10502
A0101401090171197472001HELEN HIDELITA OR                                       10502
A0301400530193583614088VILLANUEVA, MELISSA MAY OR                              10501
A0101401670271290800002ERIC SHERWIN T. BASUIL OR                               10502
A0101400570281188687001LORGENE A. MATA OR                                      10503
A1101400120313094914001CHU,VISITACION UY OR CHU, GARY                          10502
A0101402350321179301002PABLO PEFANCO & ERLINDA PEFANCO                         10505
A0101407720602399405002CLAVER P. RAMOS, M.D. OR                                10503
A0101407720602486618001CESAR NEIL S. SYQUIA OR                                 10503
A4101400550815653395001MINGOA, JOB JULIANO OR                                  10503
A0101406750852078501001TAKEDA, RACQUEL G. OR                                   10501
A0101405070861197752001GARBRIEL RIPOLL, JR. OR                                 10504
A0101405070861393536001SANUCO, VICENTE DENNA OR                                10501
A0301400530000000065923AUTO SUPPLY                                             20500
A0101412890000000125482TERESITA I VILLARIN                                     20500
A0101405070000000741064, JOVITA GARDINE                                        20500
A0301400530000001010051CUBILLO, CARMELITA L.                                   20500
A3001400130000001271312PRODUCTS                                                20500
A1101400120000001920714TAMAYO, GERARDO G.                                      20500
A2201400250000001932270DAN'S ELECTRONIC                                        20500
A0601400100081022019001BY: CSC                                                 20500
A0101401090171197472001ROMEO JOSEPH IGNACIO                                    20500
A0301400530193583614088VILLANUEVA, PHIL                                        20500
A0101401670271290800002JASMIN H. BASUIL                                        20500
A0101400570281188687001CLARISSA MATA                                           20500
A1101400120313094914001OR HO,EVANGELINE                                        20500
A0101402350321179301002& MA FLORINDA PEFANCO                                   20500
A0101407720602399405002THELMA E. RAMOS                                         20500
A0101407720602486618001MICHELLE SYQUIA                                         20500
A4101400550815653395001MINGOA, BEFIE ME                                        20500
A0101406750852078501001JULAO, FLORENCE                                         20500
A0101405070861197752001MARGARITA V. RIP                                        20500
A0101405070861393536001SANTIAGO, GIGIBE                                        20500
B0101411820000000024142HARDCOM COMPUTER SYSTEM CO.                              1601
B0101412210000000031541RESORT MARKETING SPECIALIST, INC.                        1601
B0101400150000000052662PEG SOUTH EAST ASIA, INC.                                1610
B0101401250000000057190CONTEMPORAIN FOODS, INC.                                 1601
B0101411950000000490880********                                                 1601
B0101403580000000922930CAM32 INC.                                               1601
B0601400360000000978925RONDAYVU MANUFACTURING CORPORATION                       1601
B0301400950000002115680MINTRADE CORP.                                           1602
B0101400150061055161001MTTC RETIREMENT TRUST FUND                               1601
B0101401830141044673001CAMBRIA REALTY & DEVELOPMENT CORPORATION                 1603
B0101407270162019023003PHILIPPINE BATTERIES, INCORPORATED                       1604
B0101401090171040108001CANCARE FOUNDATION INC.                                  1605
B0301400530193557610168********                                                 1605
B0101407140213007605002**********                                               1602
B1001400190231273306001CAGAYAN ELECTRIC POWER & LIGHT COMP                      1601
B1301400470252031506001LAWNDALE FINANCE COMPANY INC.                            1610
B0101406460272047405001ACEBUCHE, E DBU EL ACEBUCHE BUI                          1604
B0101402350321006431003OLIVAREZ REALTY CORP. (ASSOCIATION DUES)                 1605
B0101402350321006697001CATALINA AND SONS, INC.                                  1605
B0101402350321006710001DASMA CITYWIDE GEN MDSG INC.                             1604
B0101409050352040866001R.R. ENCABO CONSTRUCTORS & TRADERS                       1601
B2401400180411033833088JOLISA AGRIBUSINESS CORPORATION                          1610
B2401400180411055117001KABRIGADA FOUNDATION, INC.                               1601
B0101403580511005607002RAM FOOD PRODUCTS, INC.                                  1604
B0101403580511015363078MEC (DOJ)                                                1610
B0101411950680046980001AQUA MEGA, INC.                                          1602
B0101405070861022986002SEVEN RED DIAMOND CORPORATION                            1605
B1601400170000000036013MULTI-TECH INDUSTRIAL AND ENGINEERING                   11601
B0101412920000000276540FERAREZA, JANICE MILLAN DBU MAID KO 'TO                 11602
B1101400120000000652442GICABAO, KATHLEEN JOY NG OR                             11603
B0101407270162036499001JOB PLACEMENT RESOURCES SERVICES                        11605
B0301400530193034066168TAGUM COMMERCIAL & REALTY                               11615
B0201400760374046027001NOBLE HORIZONS DEVELOPMENT                              11601
B0101408110515044192001ASIA SOCIETY FOR SOCIAL IMPROVEMENT AND                 11603
B1601400170000000036013SUPPLY COMPANY                                          21600
B0101412920000000276540EMPLOYMENT SRVCS                                        21600
B1101400120000000652442GICABAO, BONGKOK                                        21600
B0101407270162036499001COOPERATIVE                                             21600
B0301400530193034066168CORPORATION                                             21600
B0201400760374046027001CORPORATION                                             21600
B0101408110515044192001SUSTAINABLE                                             21600
B1301400760253821100608**********                                               2003
