A1001400480000002300383GUINTO, JEAN MAGO OR GUINTO,                            10502
A1001400480000002300383NEMER SARDEA                                            20500
A1901400320000015392506LICARTE, MICHELLE WAGAN                                  0501
A1901400320000015392608MARASIGAN, RENZEL VINA GARCIA                            0501
A0101400860000002333499**********                                               0502
B0101400860011475514002**********                                               1601
B0101400860011495461001**********                                               1601
A0101400860011557103001**********                                               0502
A0101400860011568203001**********                                               0505
A0101400860011608631001**********                                               0502
A0101400860000001005514**************                                           0505
A0101400860000001005434**********                                               0502
A0101400860011693273001*************                                            0503
A0101401250000002763346**********                                               0505
A0101400150000008307179LACHICA, CIPRIANO FONSECA                                0501
B0101400150000001708550LASCAS SOUTH HOLDINGS CORP.                              1601
A0101400150061554473001MERCADO, ZEPHANIAH MONTANO OR                           10501
A0101400150061554473001MERCADO IV, EDDI                                        20500
A0101405810072235171001**********                                               0505
A0101405810072316984001HEMAN CHUA                                               0501
A0601400100000012784799EMPLOYEES OF RMS COLLECT PHILS.                          0501
A0601400100000002365528CABRERA, CYNTHIA NARCISO                                 0501
B0601400520000007553786DAVID, MELODY SAMIA DBU MULTIJECT                       11601
B0601400520000007553786ENTERPRISES                                             21600
A0101410850000003503653MASONG, A DBU A.A. MASONG                               10502
A0101410850000003503653CONSTRUCTION                                            20500
A0101410560000001944072VALEN, ROSANA RETIG                                      0501
A0101400730111198710001FERNANDEZ, HENRY F. OR                                  10502
A0101400730111198710001FERNANDEZ, AMELIA                                       20500
A0101400730111386485042ELENA B. PEREZ                                           0502
A0101400730000001822862ALVENDIA, AMADOR PAHATI                                  0502
A0101406040000014388577DAVID, CASEY ANNE PASCO                                  0505
A7201400170000002791331JUDITO N. ALVIAR OR                                     10501
A7201400170000002791331JOCELYN C. ALVIAR                                       20500
A7201400170000009673287BOLOTAOLO, ROSE MARIE NADALA                             0503
A0101412920000005354274LLANES, ELIZABETH VILLARBA                               0502
A0101412920000008813667MIGUEL, ELMER BENEDICTO HOBAYAN                          0501
B0101400440161007221001ILA EXPRESS HAULER                                       1602
B0101400440000003766967COOPERATIVE HEALTH MANAGEMENT FEDERATION                 1610
B0101407270162028106001MANSMITH AND FIELDERS, INC.                              1602
B0101407270162040845001RDJ INDUSTRIAL SUPPLY, INC.                              1601
A0101401090000015425482NG TSAI, FILBERT RICHERD NG                              0501
A0101401090171201395001JOSE S. BLAS                                             0501
A0301400790000000436008MANALILI, ANNABELLE LEONOR                               0502
A0101410720000000234940LARIOSA, MARY ANN GARINO                                 0501
A0101412500000006974618AGCAOILI JR., ROGELIO VICTOR JA                          0501
A3101400160000014895084PERALTA, TERESITA QUEZADA                                0501
A3101400160000001169222MACRINA M. AUREADA                                       0501
A3101400450000003072493ABANTE, NELDA LIMBO                                      0505
A3101400450000002330438PAGUIA, ALBERTO ANGELES                                  0502
A3101400740224083981002PUNZALAN, FERDINAND OR                                  10501
A3101400740224083981002PUNZALAN, SUSANA                                        20500
A3101400740224642621001ABAG, MARY JANE BARRAMEDA                                0501
A3001400130000010813497OSIN, CHRISTIAN ALCASID                                  0501
A3001400130230478374240OPENA, CHARI C.                                          0501
A1001400190000008743875oCERO, ALGENE ALEJAN OR                                 10501
A1001400190000008743875VALDEHUEZA, KENT                                        20500
B1001400190231015575001GOLDEN CITY AUTO PARTS & HARDWARE,INC.                   1602
A1001400190231478374090HOY, MINELLYN J.                                         0501
A1001400190231520766020LUBIDO, CAROLINE JARALES                                 0501
A1001400190231520766030DAGOPLO, LOLIBETH MACANA                                 0501
A1001400350000000017165MEN DBU A&L MARKETING SOLUTIONS                          0501
A1001400480000002300372GALUT, MYRNA MANGALLAB                                   0502
A1901400290261500749001GERVASIO IGLE GARING OR                                 10502
A1901400290261500749001JULIETA LACORTE GARING                                  20500
A0101401670000011364515HERNANDEZ, JACINTO GABRIEL ROND                          0501
A0101406620000010983367DE CASTRO, JOEL MANPORTE                                 0501
A0101408660000008622093REGENCIA, MARICHU MAGHACOT                               0501
B0101412470000012117650UNITED LIMSUN INTERNATIONAL TRADING                      1603
A0501400200000015426470LANDICHO, MILAGROS DAYAG DBU HE                         10501
A0501400200000015426470ALTHY THOUGHTS JUICE BAR                                20500
B0801400160000001289807BORACAY BEACHBOYS LEISURE, INC.                          1601
B2001400290000002406720DY, LOREEN LAO AND YAO, MARIANNE SY                      1602
A3401400280000006791144VILLAREAL, JANE LAGULAY                                  0501
A01014056503220410060013805 PHARMACY                                            0502
A0101402510000001292280LLAMADO, TERESA CABANEROS                                0501
A0101402510000011748806RUTH O. ROMERO                                           0503
A0101402510000015169830TAJUD, ALEXA ELINE TRINIDAD                              0501
A0101402510341047849002GONZALES, DBU MARGON PRINTING                            0502
A0101402510341288877001MARTIREZ, RONAN DELA PENA                                0501
A0101402060351211701005DANNUG, MARIA DOLORES CARLOS                             0503
A0101402060351212490001AGUILA, ALBERTO MALAPITAN OR                            10501
A0101402060351212490001AGUILA, GERALD C                                        20500
B0101409050000015392448PELAYO, RAPHAEL GERARD LOYOLA                            1601
A0201400920000002250011FELIX S. TAN OR SANDRA MAE TAN                          10501
A0201400920000002250011OR SAMANTHA ALYS                                        20500
A0201400920375034669001**********                                               0502
A0201400890376513355001REYNES JR., AUGUSTO DAHAB                                0503
A0201400890376567613001PEREZ, LENARD NAVAJA                                     0501
A0101402930000007031250CUA, GEORGE NICHOLAS OR                                 10502
A0101402930000007031250CUA, MICHAEL BENNETT                                    20500
A0101402930000015085868ABUEL, JERICK JOSEPH MARTINEZ                            0501
A0101408370000006446273RODRIGUEZ, BELINDA CRUZ                                  0501
A0101408370382416284001DR. BERNARDITA O. POLICARPIO OR                         10502
A0101408370382416284001DR. REUBEN D. POLICARPIO                                20500
A0101408370000009296604DE GUZMAN JR., ROLANDO L                                10502
A0101408370000009296604DE GUZMAN, KARLA MA U                                   20500
A0101408790000006026108MUTIA, JOEL JUDE RODRIGUEZ                               0502
A0101402770391380022001KUNG, CHIEN-LIANG                                        0501
B0101402770391601391001SPORTSFOCUS, INC.                                        1605
A0101408400000001855461AQUINO, ELEANORE ANNE ARCEO                              0501
A0101408400000004490095MACABEO, MINERVA BELDAD                                  0501
A0101408400000010507052ROCABO, HAZEL SUPERABLE                                  0501
A0101408400000011681822MAUNA, ABDULJALIL AMEE                                   0501
A0101408400000015205546BACCAY, KATHERINE CADORNIGA                              0502
A0101408400394493022001TAMBUYAT, THERESA VASQUEZ                               10501
A0101408400394493022001OR ROSH, MIREK                                          20500
A0101408400394550481001FELICIANO, LEONARDO LAPUZ                                0501
A0101408950000014970780SUAREZ, NICOLE ANTOANETTE FORTO                          0501
B0101408950396038611001DEPARTMENT OF SURGERY ST. LUKE'S MEDICAL                11602
B0101408950396038611001CENTER GLOBAL CI                                        21600
B0101408950000008364501GLOBAL UROLOGY ASSOCIATION INC.                          1601
A0101408950000002255307BERTOSO, SHEILA ESPINA OR BERTO                         10502
A0101408950000002255307SO, EDGAR                                               20500
A0101408950396571165001DURAN, CECILE TRISHA BADELLES                            0508
A0101409180000009769088GAMBOA, NENITA SIDAYON                                   0501
B0101409210000000031238******                                                   1620
B0101409210000002783282NUTRIGENICS ASIA INC.                                    1601
A2401400180000015436930GASCON, JOSIE FE PANIZARES DBU                          10501
A2401400180000015436930HM ACES MARKETING                                       20500
A2401400180411501589001VALILA, NOL S. OR VALILA, MA.                           10501
A2401400180411501589001LOURDES D.                                              20500
A1201400150421464835001PADLAN, MICHAEL G. OR PADLAN,                           10502
A1201400150421464835001CHARINA L.                                              20500
A1201400150421685972001JUCUTAN, HEIDI BONDAD OR                                10502
A1201400150421685972001JUCUTAN, ROMMEL                                         20500
A0901400220000006145291**********                                               0501
A0901400220000011299262THREE J BUILDERS AND DEVELOPER                           0502
B5101400100000011337005BUENAVIDES, ELISA CUARTEROS                              1601
B0101412760000001399846BOX, JANUARIO DBU BRAINCHILD MARKETING                  11602
B0101412760000001399846SERVICES                                                21600
A3801400170000012459080CATIBOG, ZENAIDA DELA CRUZ OR                           10502
A3801400170000012459080ACEDERA, HAZELYN OR CATIB                               20500
A3801400170000005287903ATIENZA, LUCIA RAMOS                                     0501
A3801400170000015415780CASTILLO, GILBERT AYTIN                                  0501
A1901400160000014674890BACUD, LILY SALCEDO                                      0501
B1901400160491068033002QATAREX CORPORATION                                      1602
A1401400110492621336001MOISES, JESSIE LOSAURO                                   0502
B0101407430000000035292PRIVATE ICE INCORPORATED                                 1601
A0101403580511152575001REX REDENTOR C. BERDOS                                   0503
A0101403580511153476002THERESITA S. TIU                                         0505
A0101403580511156550004CESAR A. AVERIA                                          0505
A0101403580511387392001VASHI BALANI OR HARSHA BALANI                            0503
A0101408530000015428534MARCELO, CARLO ANGELO VIDAL                              0501
A0101408530000015430203MENDOZA, ANNA SHALOM ESTIPONA                            0501
A0101408530000015430010CORPUS, CHRISTA GARCIA                                   0501
A0101408530000015430112REVILLA, FRANK BENEDICT MIJARES                          0501
A0101408530516618403001BEAVER T. ULGASAN OR                                    10501
A0101408530516618403001MARY JOY L. GUTI                                        20500
A0101411790000011046118EVANGELISTA, MARK ANTHONY                                0501
A0101411790000015440714MERCADO, EDUARDSON BANQUIRAY                             0501
A0101411790518055764041BALADAD, PAOLO ANTONIO AQUINO                            0501
A0101411790518055815153TIONGSON, ENRICHAMEL YANGA                               0501
A0101411790518055815155TIRADO-ORGANO, LORY GRACE G.                             0501
B0101411790000004808082PDB PROPERTIES, INC.                                     1605
A0101412050000014869802BORRAS, SUNSHINE                                         0501
A0101412050000014869864PIJANO, JUVY                                             0501
A0101412050000014869977SORIANO, LEONCIO                                         0501
B0101403450521012171001**********                                               1602
B0101403450521020418001**********                                               1605
A0101403450000001638002WYNNIE S. FABABIER CUSTOMS BROK                          0502
B0101403450521237153001**********                                               1602
A0101407720000013900937GACUTAN, DONNA MARIE ROMERO                             10501
A0101407720000013900937OR GACUTAN, HARRY                                       20500
B0101407720000000885769PHILIPPINE CLINICAL CHEMISTRY &                         11601
B0101407720000000885769DIAGNOSTIC CORP.                                        21600
A0101407720602298251001GIA D. WASSMER, M.D. OR                                 10505
A0101407720602298251001MICHAEL C. WASSMER, M.D.                                20500
A0101407720602396744002ANG, JENNIFER CU                                         0502
A0101407720602436863001ACEBUCHE, NILO BORJA OR                                 10501
A0101407720602436863001ACEBUCHE, AMELITA                                       20500
A0101407720000002693116PUNO, MARIA PATRICIA ANN TANEDO                          0501
B0101412180603046098001A & I @ IBP. CORP.                                       1601
B0101404260000008700798ONE SOURCE SPECIALIZED SERVICES INC                      1604
B0101404260000011682336JUNIO, SHALYN MASIGLAT, DBU ONE SOLUTION                 1602
A0101404260611153241002TAN, ESTEFANIA QUITALIG                                  0501
A0101409920000015172660NAVARRETE, ALDENAIRE DA JOSE                             0501
A0101407690000000495512MARIA BELEN FEDERIZON OR                                10502
A0101407690000000495512JOSE RENEIRIO FE                                        20500
B0101407690652017035002SEVENEL GENERAL SERVICES CORPORATION                     1601
A0101407690652478374034EDNA D. PENALVER - DEALERS OF                           10501
A0101407690652478374034SHOECAT, INC.                                           20500
A0101407690652513136001GUINTO, ROSARIO OR WINSTON                               0502
A0101413440000000702509INFANTE, JHON EDISON RAMOS                               0501
B0101413440000001085723MALABON EDUCATIONAL INSTITUTION                          1602
B0101413990000000206204R.R. ENCABO CONSTRUCTORS INCORPORATED                    1605
A0101406590662208118001CYNTHIA OR CHERYL MYLA ARCINUE                           0501
A1301400210000011696236VALERIO, MA. ROWENA EMFLORGO                             0503
A1301400500000007096786*****                                                    0501
A1301400500000004093156HIZON, YOLANDA PEREZ DBU Y.P.                           10501
A1301400500000004093156HIZON ACCOUNTING SERVICES                               20500
A1701400230693478374056ROSQUITA, RUENA PILAR                                    0501
A1701400230693478374078GALVEZO, AVELINA GACAYON                                 0501
A2801400230000011730311ARBIZO, MYLINE FINONES                                   0501
B4101400420814039001001DOMINGUEZ TRANSMAN MACHINE WORKS CO.                     1601
A4101400420000000120685NANCY A. PACE                                            0501
A4101400420000003715724FLAVIANO, PERLITA                                        0501
B4101400550000000900138WILSTAR HARDWARE AND CONST. SUPPLY CORP.                 1602
A0101412340000003343611DELA CRUZ, GLENNDA ODONO                                 0501
A0101412340000010659959REYMERLENE G. ROLDAN                                     0501
A0101412340000002900283MARIFE B. VIADO                                          0501
A0101404840000008871398HISASHI NISHIZAWA                                        0501
A0101404840000001312543CERBITO, SALVACION                                       0501
A0101404840851520766073ELIZABETH A. SUAZO                                       0501
A0101404840851520766105ALICAWAY, HELEN                                          0501
A0101406750000000017490ALDEN SESE                                               0502
B0101406750852023612001LAS PINAS CITY MEDICAL CENTER, INC.                      1610
B0101406750852032718001PHILGREEN PLASTICS CORPORATION                           1602
A0101406750000005666817CDB ACCOUNTING AND TAXATION                             10502
A0101406750000005666817SERVICES                                                20500
A0101406750852505611001BANDA, ALICE EVANGELINE CELZO                            0501
A0101405070861197650002********                                                 0502
A0101405070861478374004WINIEFRENDA O. PILANDE                                   0503
