A0101402060000009179564SUPETRAN, ISABELO ERNESTO LUMAQ                          0501
A0301400790000005691990EMBALSADO JR., ALBERTO GEMPESAW                          0502
A0101412500000016378731QUISING, SAMUEL PATRIMONIO                               0501
B0101412500214821100608**********                                               2003
A6601400120000003672866APULI, ALMA JEPOLLO                                      0502
A0101402930381206638002TANCHI, PETER FU OR MCCOMB,                             10501
A0101402930381206638002RUTH OR MCCOMB, JEFFREY                                 20500
A0101402930000001445461TANCHI, PETER FU OR TANCHI,                             10501
A0101402930000001445461DEONNA LYNN HOWARD                                      20500
A0101408370000006446477JUSTO, NESS JEROLD AMANCIO                               0501
A0101403320000014019251ROSARIO, BENIGNO V. DBU                                 10501
A0101403320000014019251BV ROSARIO CONSTRUCTION                                 20500
B0101403320000012881900ANICIA REALTY & DEV'T. CORP.                             1603
B1401400110000000167446SOUTHERN PROCESSING CORPORATION                          1606
B1401400110000000167457SUPER MAK FOOD CORPORATION                               1605
A1401400110492620230001DELOS SANTOS, ENRICO PEREZ                               0503
A0101401250000013535274GAVIOLA, CHRISTOPHER BAGA                                0502
A0101400150000007280511MAKOTO KURIMURA OR YUKIKO                               10501
A0101400150000007280511KURIMURA                                                20500
A0101400150000008307179LACHICA, CIPRIANO FONSECA                                0502
A0601400100000007250702CANCIO, JIAMEI LIAMCO DBU ONE P                          0502
A0101410850000005161320JIMENEZ, ANNABELLE GONGE                                 0501
A0101400730111047618004RONALDO BAARDE PRADO                                     0502
A0101400730111203514058MARY ANNE CUARTERO                                       0501
B0101401830000000033570CARITAS SALVE CREDIT COOPERATIVE                        11602
B0101401830000000033570(MALABON)002                                            21600
A0101401830141404416002MAYLA L. UNGOS                                           0501
A0101401830141674585001BONGCAYAO, CHRISTINA CEREZO                              0501
A0101401830141740190001LEBRON, LUIS FRANCISCO VILLACOR                          0501
A7201400170000003774323RESURRECCION, LORILIE TECSON                             0503
A7201400170000007185562CARUMBA, MARGIE SEPADA OR                               10502
A7201400170000007185562CARUMBA, DANIECITO PASCO                                20500
A7201400170000011454287OBAOB, MARIE FE MARAASIN                                 0501
A7201400170000015227006VILLAMERO, LUGELYN BABAO                                 0501
A7201400170000009463896KAY ARLYN P. MERLIN DBU MOTHER                          10501
A7201400170000009463896& BABY CARE LYING-IN                                    20500
A5001400170000000214002REQUINA, ORWINO ATAY                                     0501
A5001400170000005705197MAGBAGO, JUCEASAR MACALONG                               0502
B5001400170000000169857LINK RI LOGISTICS INC.                                   1605
A0101400440000008234633AHMAD A. HASSAN HAGHIGHI FARD                            0501
A0101407270000016413251ESTOQUE, WILFREDO NAVARRO                                0501
B0101407270000012664789PRIMO FORTEM CONSTRUIR CORP.                             1603
B0101407270162038101001BIRDS INTERNATIONAL, INC.                                1603
A0101401090171200080003JOSELITO B. ZULUETA                                      0502
A0101401090171336393001REBECCA R. ABRILLA                                       0502
A0101401090171421977001AIMIE M. CAMULO                                          0502
B0301400660000006755111SABIDO PROPERTY MANAGEMENT, INC.                         1602
A0101401380000000682651PILI, RC JENNIE MAE ASISTIO                              0501
B0101401380201034247001HOBBIES OF ASIA INC.                                     1604
A0101401380201425266001SANTOS, PATRICIA ORTIZ                                   0502
B0101410720653043060001METRO DRY CLEAN VENTURES, INC.                           1603
A0101410720653286682002MACAISA, MICHELLE ABADA                                  0502
A0101412500000016411011BELTRAN, ALPHA MAE PADUA                                 0501
A0101412500000016411500ARCILLA, RYAN CARLO ESCUETA                              0501
A0101412500000016411960CCB PAINT CENTER                                         0501
A3101400160000008941453JULIANO, JOSEPH ALABADO                                  0502
B3101400160221029066001PANASONIC COMMUNICATIONS PHILS. CORP.                   11602
B3101400160221029066001EMPLOYEES' RETIR                                        21600
A3101400160221220455001JACINTA J. TORRES OR                                    10503
A3101400160221220455001RENATO I. TORRES                                        20500
A3101400740000013557467COLLERA, DANILO DE OCAMPO                                0501
A3101400870000016413513ROMANBAN, MONICA CABRERA                                 0501
A1001400190000000124803FANTONIAL, MERILY H.                                     0501
A1001400190231520766187MONTEMOR, FE MARIE TELIN                                 0501
A1001400350000011297762DIEZ, MARIA REBECCA VIGILANCIA                           0502
A1001400480000005356065GONZALES, TONNIE MAE MONTERO                             0502
A1901400290000008740056SANG SHIK YOON OR MYOUNG JA KIM                          0502
A1901400290000011805713BENITO NOEL MAGCAWAS RIVERA                              0501
A1901400290000015421491IMUS, MARY ANN DELA CRUZ                                 0501
A1901400290261366172002GONZALES, MYLA VIVAS                                     0502
A1901400290261683819001TENA II, POLICARPIO DACILLO                              0501
A0101406620000003639690REISSON D. TULABOT                                       0501
A0501400200000000035685DELGADO, EVELYN VIDAL                                    0501
A2601400270000002312094ANGELINA UY MALLABO                                      0501
B1101400120000000065132STARLITE GLASS AND ALUMINUM SUPPLY                       1603
A1101400120000000652788PRIMER, HERMINIA AZUCENA                                 0501
A1101400120000006186810MACANAS, LAYCA JEAN BARAGO DBU                           0502
A1101400120000003981215LIM, RICHARD YAP                                         0502
B1101400120313543446001TY CHAN HAI,SANTIAGO OR TY,LISA OR TY,                  11603
B1101400120313543446001SHANE LAWRENCE                                          21600
A6601400120000003642846FLORESCA, MANOLITO ESTERNON DBU                         10502
A6601400120000003642846RMF SARI SARI ST                                        20500
A6601400120314612862001TAN, HERMONIO OR HUERDITA                                0502
A2001400290315746119002BUHISAN, CAROLINE LU   JT                                0505
A3401400280000015108562BAARDE, LOURDES BULAQUINA                                0502
A0101402350000002310703CHICO, ANA BONITA AMPONIN                                0501
B0101405650322026870002TALIBON TRADING & INDUSTRIAL CORP.                      11601
B0101405650322026870002(MHO)                                                   21600
B0101402510341026003001PHILSOFT TECHNOLOGIES GROUP, INC.                        1601
A0101402510341063757001LKTC GENERAL MERCHANDISING                               0502
A0101402060351009385001JORGE ALOMBRO JR. OR                                    10505
A0101402060351009385001NELIA ALOMBRO                                           20500
A0101402060351022310001CONLINK MARKETING SERVICES                               0501
A0101402060351328741002CARLOS, JOSE IGNACIO OR CARMEN                          10505
A0101402060351328741002CARLOS OR REGINA                                        20500
A0201400920000002804504BARENG, NATHALYN C.                                      0503
A0201400920375521457001VILLAR, BERNARDO N. OR                                  10503
A0201400920375521457001VILLAR, CARMELA                                         20500
A0201400920000004087398VILLAR, BERNARDO NOVICIO                                10502
A0201400920000004087398OR VILLAR, CARME                                        20500
A0201401020377046499001TEH, MARIA ELENA BLANCO DBU                             10503
A0201401020377046499001E.T. PRINTSHOPPE                                        20500
A0101408370000006446477JUSTO, NESS JEROLD AMANCIO                               0501
A0101408790000002326154JACOBO, CECILIA DORIA                                    0501
A0101408790000014453591SADIE, GERARDO SANTOS                                    0501
A0101411660000015085971REYES, KRISTOFER DUMADA-OG                               0502
A0101415350000012006009CARLO A. CARREON                                         0502
A0101402770000002267187MATA, JOYCE LYN VILLAVIEJA                               0501
A0101402770391529757029SIMPELO, RENATO ARMARIO                                  0501
A0101405490000000019689RHYAN HARLIE L. ARAGOZA OR                              10501
A0101405490000000019689ELOISA P. ARAGOZA                                       20500
A0101405490000005210193DEL ROSARIO, EDGARDO CRUZ                                0501
A0101405490000000126463LORNA V. TUGADE                                          0502
A0101405490392510652001ENCARNACION M. GOLDING                                   0501
A0101405490392573069001ILYANA VITA E. LIM OR                                   10501
A0101405490392573069001RONALD JAMES U.                                         20500
A0101408400394037647001FRIAS WATER STATION                                      0502
A0101408400394485330001SALVO, ROBERTO CASTROVERDE                               0501
A0101408950396561962001DR. JONNEL LUGOD LIM                                     0503
A0101408950000002255461GERON, MARIA ANNA VANESSA A.                             0501
A0101412210000013721363RIINGEN, MARIA PATRICIA ZAMORA                          10502
A0101412210000013721363OR ZAMORA, MARTIN ANTONIO                               20500
B0301400820000004746101FAMACION, RAMSEY DBU JARED SUITES OR                    11601
B0301400820000004746101FAMACION, BEULAH                                        21600
A5501400120410660853001DARAUG, JOHN MICHAEL DELMORO                             0503
A5101400100000014191374ALQUIZAR, GEMMA MAGUNDAG                                 0502
A5101400100000010833980GERONGCO, NEQUIAS ONLAO                                  0501
B0101403320471022749001LES SACS MANUFACTURING                                   1601
A0101403320471212175001CABALDE, EDNA SIMON OR                                  10501
A0101403320471212175001CABALDE, ERNESTO                                        20500
B1901400160491052059003FIRST UNITED 23, INC.                                    1610
A1901400160491422212001OLIVER B BORILLO OR                                     10503
A1901400160491422212001MARIBEL C BORILL                                        20500
A1401400110000005526967ARGOSINO, KARL MICHAEL ORIOLA                            0501
A0701400260000013603793PALMA, ROSELA ROSALES                                    0502
A0101407430503736499001CECILIA R. NALAUNAN                                      0502
B0101405940512031122001SOLIDGROUP TECHNOLOGIES, CORP.                           1610
B0101405940512038848001JADE ENTERTAINMENT AND GAMING                           11603
B0101405940512038848001TECHNOLOGIES,INC                                        21600
B0101403450000000135453*************                                            1601
A0101403450000009517660**********                                               0502
B0101403450521036992001********                                                 1601
A0101403450521237244001************                                             0501
B0101403610000006637114RD PAWNSHOP, INC.                                        1603
B0101403610531518484001A1 STEELFORMER CORP.                                     1602
B2201400250561016108001TARLAC ELECTRIC INCORPORATED                             1602
A2201400250561396784002DR. VICTOR S. DE VILLA OR                               10502
A2201400250561396784002VANESSA GRACE M.                                        20500
A2201400250000012983007MARIANO F. MALLARI                                       0501
A0101404130000000043898BAUTISTA, VIVIAN ARAGO                                   0501
B0101412180603044261001GENESIS 8 ENTERPRISES                                    1603
A0101404260000013859982STA. ROSA, DONNA PEARL SALES                             0502
A0101404260000003498551**********                                               0503
A0101404260611335308002ALIMBOYONG, JOSEPHINE MAHINAY                            0503
A0101404260000007498255JOELITO P. JERUSALEM                                     0502
A0101404260000005447047ATIENZA, MAY DUNGAO                                      0501
A0101409890000002326723CAI, QING CONG                                           0503
A0101409890000006812991CHUA, JOHNNY CHAN                                        0502
A0101409890000006813163GAJUDO, JAY VALLEDO                                      0502
A0101409890000006812962DIAZ, ALLAN AUSTRIA DBU METALLI                          0515
A0101409890000003097950JUNATAS, DELFIN ROXAS                                    0502
B0101407690652035567001NEW COMLOGIK BUSINESS SYSTEMS, INC                       1610
B0101407690652041404001AUBURN POWER TECHNOLOGIES INC.                           1601
A0101413990000000206033MARITES R. CONANAN                                       0502
A1701400230000014313872AGCAOILI, LAURETTA DIAZ                                  0502
B0101408240000008160081TANCINCO JR., M DBU MARTIN'S CAR                        11601
B0101408240000008160081ACCESSORIES PART                                        21600
A2801400100712381266001LACORTE, JOSEFINO GONZALES                               0501
A4101400260000003679961FORTICH, HENRY OCHOA                                     0502
A4101400260000016288694PALAD, MICHELLINE                                        0501
B4101400390813019416002STI COLLEGE-ROSARIO, CAVITE, INC.                        1602
A4101400390000000379226MA. JULIE B. BRUEL                                       0502
A4101400390813478374021ASUNCION L. JERESANO                                     0501
A4101400550000002091043RAMIREZ, CYNTHIA TAN                                     0502
A0101412340000003438691BACCAY, ERIC SALAGAN                                     0501
A0101404840000004565771TORRES, ANTO DBU TORRAB TRADING                          0502
A0101404840851520766092VIOLETA G BERMAS                                         0504
A0101404840851520766099EDLYN BRUNO                                              0501
A0101404840851520766178ROWENA C. PUNZALAN                                       0501
A0101404840851791747001BALMES, GERVACIO OR SARADAT,                            10501
A0101404840851791747001MONICA OR GALLAG                                        20500
A0101406750000002040102GIMENEZ, ENRIQUE BENZON                                  0501
A0101406750000002251383MORALES, GLORIA REYES                                    0505
A0101406750000014701098VICTORINO, ROSE ANN BERNADETTE                           0502
A0101406750000015823911SALES JR., JOSE VIROLA                                   0501
A0101406750852478374098JOCELYN ARBOSO                                           0501
B0101405070000015588062TEKTON CONSTRUCTION CORP.                                1605
A0101405070861194798002MARISSA S. DIONES                                        0502
B0101413860862066709001CONTINENTAL CARGO CARRIERS, INC.                         1604
A0601400230000000498540MAGTOTO, JONEL FLORES                                    0501
A0601400230000005185935SANKEM TRADING                                           0510
