A0101402060351403683001KIM, KANG JI                                             0501
B0101402060351030802001PACIFIC RESINS INC.                                      1605
A0101402060000002258977MARINO, YOUSEF ELBEN SORIAO                              0501
A0101400440161798533001MINGOY JR., ANDIOLO PATCHICO                             0502
B0101402060351009540001PICMW INC. RETIREMENT                                    1601
B0101402060351085656001REBINTECH CONSTRUCTION, INC.                             1602
A0101412890000009833601DACER, CESIAH OPULENCIA                                  0502
B0101400440161043713001COMMANDER SECURITY SERVICES, INC.                        1605
A0101400440000006679663AIDA S. RIVERA                                           0502
A0101400440000008201323ROELA D. WATTANG                                         0501
B0101411240000000629334CTU ENTERPRISES, INC.                                    1601
B0101402060000000653736POLYMER PRODUCTS PHILS., INC.                            1601
A0101412890000012474009VALENCIA, CARMELITO PEREZ                                0501
A0601400230000001687118**********                                               0503
A0101400860011402223002**********                                               0502
A0101400860011443455002**********                                               0505
A0101400860011504202002**********                                               0501
A0101401250000000460688MAGNO, FLORENCE UY                                       0502
A0101400150000003164372ROWENA T. FAJARDO                                        0501
A0101400150000003197642Abegail T. Matibag                                       0501
A0101400150000013511610CARMELIE JANE S. SILVESTRE                               0501
B0101400150061027012001PRECEPT MINISTRIES INTERNATIONAL OF                     11601
B0101400150061027012001THE PHILIPPINE                                          21600
A0101400150061229814002LEONCIO C. LIM                                           0501
A0101400150061354288001CORAZON G. TAGLE                                         0501
A0101400150061468533001LO, NONIE YOUNG                                          0502
A0101405810072300425001**********                                               0501
A0101405810000002314654SY, BENYLYN CHUA                                         0501
A0101405810072444240001*************                                            0505
A0101405810072482128001COSTILLAS, ANNALIE ESPINOSA                              0501
B0601400100000007185346SORIANO, ELISAR T. AND SORIANO, ORLANDO                 11601
B0601400100000007185346T.                                                      21600
A0601400100000011854114AURELIO,STEPHEN REYES,QUALILIFE                         10503
A0601400100000011854114MEDICAL & LYING-                                        20500
A0101413730000002289483ONG, HOSANNA TENG                                        0501
A0101414090000006211581LOZADA, EDITHA NAVARRO                                   0502
A0101410850000009034344MACANAYA, AMELIA BAGADIONG                               0501
B0101410850000013235211LANDSTAR TRANSPORT SERVICES, INC                         1601
A0101410850000003101877MONTEMAYOR, REYNALDO SAPLAN DBU                         10501
A0101410850000003101877RSM TRUCKING                                            20500
A0101410850000006559820BENDERO, ARMANDO E. DBU AEB                             10503
A0101410850000006559820TRUCKING JT                                             20500
A0101410850000006559988MARTIN JR., FERDINAND DBU                               10501
A0101410850000006559988MARUEL TRANSPORT                                        20500
A0101410560000002316581**********                                               0502
A0101410560000011873080JACQUELINE M TOLENTINO                                   0502
A0101400730111392043001GUERRERO, JOCELYN EDROZO OR                             10501
A0101400730111392043001MAHAR B. JARDIOLIN                                      20500
A0101400730111399391001PALABRICA, LOIDA SARMIENTO                               0502
A0101400730111718087001PASAGUE, LALAINE TRINANES                                0501
A0101412630000009425098SERRANO, EFRAIM VELARDE                                  0501
A0101413310000000864006TOLEDANA, RODEL MASAYA                                   0502
A0101401830000011228925FARO, RUSSEL IRITAN                                      0502
B7201400170000003774010FERRAZ, JIMMARY VIC CANETE                               1603
A5001400170000000213750RATUNIL, JULIETA OR RATUNIL,                            10502
A5001400170000000213750BYRON, OR RATUNIL, CARMEL                               20500
A0101400440000012169312SAMPAGA, FERNANDO LIBUNAO                                0505
A0101400440161520766092RITA R. LABANGON                                         0501
A0101407270000003970809MARIO ANTONIO J. SANTOS                                  0501
B0101407270162061497001GRAND TAIPAN LAND DEVELOPMENT INC.                       1605
A0101407270162333003001HECTOR S. ANASTACIO                                      0502
A0101407270162387970001******                                                   0503
A0301400530000013756879TIU, RAMIL YRAY OR TIU, GLENDY                           0501
B0301400530193038166088FUTURE OPTIONS DISTRIBUTION SYSTEM, INC.                 1605
B0301400530000007345486MAGUGPO UCCP CHRISTIAN SCHOOL,                           1605
A0301400790000003969360********                                                 0503
A0301400790000003969473GENTILES JR., FILIPINIO                                 10503
A0301400790000003969473CASCABEL                                                20500
A0301400790000005692048GENTILES JR., FILIPINIO CASCABE                          0503
A0301400790000001244542BANEZ, RICKY CANTIGA                                     0501
A0301400950000010424818COLOMA, MARIA VIRGINIA ASUNCION                          0502
A0101412500000013751123MORENO, MARILOU DOMINGUEZ                                0501
B0101412500000000041670MOLDEX REALTY INC.                                       1603
B0101412500000003408062ST CLAIRE SCHOOL BASIC EDUCATION IN                      1601
A0101413600000008442580ANDAL, MARIBEL RAMIREZ                                   0502
A0101413600000002122241JOSE FRANCISCO CABOCHAN DBU                             10502
A0101413600000002122241J. CABOCHAN LAW OFFICE                                  20500
A3101400160000013747281ENCISO, ROSEMARIE BAYOT                                  0501
B3001400130000001271374GLOBALCARS, INC.                                         1605
B1001400190231026225001GOODWISH ENTERPRISES                                     1605
B1001400190231032404002EUROPORT LOGISTICS AND EQUIPMENT, Inc.                   1601
B1001400190000005708983GARAY, FLORENTINE TECSON DBU GARAY                       1601
B1001400350233034647001DEL MONTE SUPERVISORS ASSOCIATION                        1602
A1001400350233505176001AGAWIN, ERLINDA GALENZOGA                                0502
A1001400350233522566001JOSEFINA ANTOLIN OR FRANCISCO                           10501
A1001400350233522566001ANTOLIN OR ERLIN                                        20500
A1001400480000011810136SATOR, JOSEPH PACQUIAO DBU WELL                         10501
A1001400480000011810136BAZAAR CONVENIENCE STORE                                20500
B1001400480000008501820OLAPE, JOHN LISTER CABUALAN DBU                          1602
A1301400470252040709001ANGEL INNA TRADING                                       0505
A1301400470000007863401ANGEL INNA TRADING                                       0505
A1901400290000006560089MASUPIL, CRISANTA LAROZA                                10501
A1901400290000006560089OR MASUPIL, LAUREN CAROL                                20500
A1901400290261244456001LEO YAP ONG OR                                          10505
A1901400290261244456001MEI MEI YULO ONG                                        20500
B0101406620273024855068TANGENT SOLUTIONS, INC.                                  1605
A0101408660000002264928ROXAS, MARIA ELENA BESA                                  0501
B0101412470000003847461QUA, ANTONIA VERZOSA                                     1601
B0101400570000013756420GREEN LEAF HERBALS, INC.                                 1601
A0101400570281481267002JORDAN U. UY OR VERONICA Y. UY                           0502
A0101400570281519977001KATHERINE V. HERNANDEZ                                   0502
A0101411240000013756799UY, CRISTINE MERCADO                                     0502
B0101411240000013731374GUE, JOHNSON CO DBU G-NEX COMMERCIAL                     1601
A0101411240000001563388BERMEJO, GERALD PANLAQUI                                 0501
A1101400120000006081023SALINAS, ANTONIO DELA CRUZ                               0505
B6601400120000006154230ACRHOCONS CORP.                                          1603
B2001400290000000046222MIA HUANG PULVERA                                        1602
A3401400280000004958563NORTHVILLE CHRISTIAN ACADEMY                             0502
B0101402060351009634001SERVICE ONE CORPORATION                                  1603
A0101402060351036454001TRITECH TRADING                                          0501
A0101402060351217441012NAVAL, ABNER A.                                          0501
A0101402060351377158001CALIZON JR., MOISES VILLACORTE                           0501
A0101402060351626139001USMAN, ALIMAR GUROALIM                                   0501
A0101409050000003533468DIVINAGRACIA, ALLAN                                      0501
B0201400760374042294001MANDAUE CEBU MARINE PRODUCTS                            11605
B0201400760374042294001CORPORATION                                             21600
A0201400760374573867001CELERINOS, MARIA FE ALMOCERA                             0501
B0201401020000007458195TITCO, MA. CHERIELENE S. DBU WELLSTUFF                  11602
B0201401020000007458195TRADERS                                                 21600
A0101402930000001445450ALVES, LETICIA PLACIGO                                   0502
B0101402930381047467001FLUID SOLUTIONS, INC.                                    1601
B0101402930000005645912ARTISTESPACE INC.                                        1610
A0101402930381205117001DR TERESITO OR MARILOU OCAMPO                            0505
B0101408370382042355001THE MEDICAL CITY CANCER CENTER                           1601
A0101408370382211811001DR. SHARON CATING LIM                                    0501
A0101408370382335988001DR. CORNELIO G. BANAAG JR. OR                           10505
A0101408370382335988001DR. JOSEPHINE V.                                        20500
A0101408370382460076001ONG, JANUS PO                                            0501
A0101408370382485622001DELBERT S. ANG IT OR                                    10501
A0101408370382485622001CHERRY C. ANG IT                                        20500
B0101402770000006812433CIENTO SYSTEMS CORPORATION                               1602
A0101408400000001231070CRUZ, LAILANI ALFARO OR                                 10502
A0101408400000001231070CRUZ, RHAYAN DEL                                        20500
A0101408400000001855529YAP, ORLANDO RODRIGUEZ                                  10501
A0101408400000001855529OR YAP, VANESSA JEAN R.                                 20500
A0101408950396692502001DR. AILEEN U. AGBANLOG OR                               10501
A0101408950396692502001DR. MARIO M. PANALIGAN                                  20500
B0101409180397753456001PIXEL EYE OOH MEDIA INC.                                 1610
A0101409210000004092222FRANCISCO, FRANCES CANDELARIA P                          0501
A0101409210000010895686DEL ROSARIO, XAVIER PAOLO ABUEL                          0501
B0101409210398044082001ALABANG AUTO EXCHANGE                                    1604
A0101412210000012652669GABALES, ERWIN LEDESMA                                   0501
A5501400120000006976789GAMBOA, GEMMA KOH                                        0501
A5501400120410283898001GARCIA, JOSIE OR                                        10505
A5501400120410283898001GARCIA, GERARDO                                         20500
A2401400180411386701001ARNAEZ, ROMEO YU                                         0501
A2401400180411475726001CED, JAN SYGO                                            0501
A1201400150000011415886MACAYAN, FLORDELIZA MARIANO                              0501
A0901400220000007072499**********                                               0502
A0901400220432365034001**********                                               0501
A0901400220000000425045LOZADA, ELIZABETH GO                                     0501
A0101412890000002747971VERGARA, FERNANDO FERNANDO                               0501
A0101412890000012474009VALENCIA, CARMELITO PEREZ                                0501
A0101403320000000522176ALCANTARA, RAEZA LUMBAG                                  0505
A0101403320471205802001EFREN M MALABANAN OR                                    10501
A0101403320471205802001ERLINDA M MALABANAN                                     20500
A0101403320471207895001AMBROSIO OR JOSEPHINE TOBIAS                            10502
A0101403320471207895001OR MARK ALVIN TOBIAS                                    20500
B0101412760000007822013E-BLACKBOARDS LEARNING AND SOLUTION                      1602
A0501400170481484419001ESTRADA, MARIETA BARBERAN                                0501
A1901400160000009258051CUETO, ALLAN VERGARA                                     0501
A1401400110000006680215DE LUNA, WILLARD ROXAS                                   0501
A1401400110000011337403CABANGON, EDGARDO MATRIANO                               0501
B1401400110000003475701FAMDEL PROPERTIES & MANAGEMENT CORP                      1601
B1401400110000005945457POWERPHIL HR NETWORKS, INC.                              1603
A1401400110000001095916SY, DENNIS LOO                                           0501
A1401400110000008266422OABEL, NILO VICTOR MALLARI OR                           10501
A1401400110000008266422YAMBOT, KRISHIA                                         20500
A1401400110492622560001MORATO, CHERRYL DECHAVEZ                                 0503
A1401400110000000628502MANALO, GLORIA GARCIA                                    0502
A0701400260000012724071MANGENTE, HECTOR IMPERIAL                                0501
A0701400260000012724093ARRIETA, ANABEL RICACHO                                  0501
A0701400260000012724106PALENCIA, FAY MARIE SERGIO OR                           10501
A0701400260000012724106PALENCIA, AZUCENA SERGIO                                20500
A0101407430000005358614CALOPEZ, SANDRA ELEANORE LANDIN                          0501
B0101407430000001213023CENTER FOR KNOWLEDGE AND ADVANCE                        11602
B0101407430000001213023TRAINING INC.                                           21600
B0101407430503509183002RICKNETH DISTRIBUTION, INC.                              1601
A0101405940000004476200SACREZ, JEROME BANCA                                     0502
B0101405940512005329001TRIANON INTERNATIONAL, INC.                              1610
A0101411400000005329922STERTZENBACH, HERBERT PETER                              0501
A0101411790000006543353ROMA, FREDERICK LUDOVICE                                 0501
A0101403450000013091582**********                                               0510
A0101403450000013091606***********                                              0510
A0101403450000013091571*************                                            0510
B0101403450521011639001**********                                               1602
A0101403450521240285002**********                                               0502
A0101403610000013751470HERNANDEZ, EMMANUELLE JAY                               10501
A0101403610000013751470ROSALES                                                 20500
B0101403610531029120001WHISPERTRAIL SERVICE, INC.                               1602
A0101403610531219534002DUNGLAO, FELICIDAD ANCHORIZ                             10502
A0101403610531219534002OR DUNGLAO, JOSE                                        20500
A0101403610531220657002SOUZA, TERESITA YAMBAO                                   0504
A0101403610000000015830CARRASCO, EUNICE JANE CERDENA                            0501
A2201400250000010425446REGINALD JONAS FLORES DE LEON                            0501
B0101404130601016662001PAYROLL SERVICE PROVIDERS, INC                           1603
B0101404130601100007001SMART COMMUNICATIONS, INC.                               1601
B0101404130601100007004SMART COMMUNICATIONS, INC.                               1601
A0101404130000005962343GO, JEANNE PAULINE LIM                                   0501
A0101407720000004664342DAVID, RICHELLE NG                                       0501
A0101407720602296141001ROMULO AUZA TROCINO OR MARIA                            10505
A0101407720602296141001CORAZON V. TROCINO                                      20500
A0101407720602366390001CABRERA, GRACE LUNA                                      0506
A0101412180000004089054GUERRERO JR., NEMESIO LAZO                               0501
A0101412180000005360958MANCIO, ALAN GLENN LUSTRE                                0502
B0101404260000012711498REBEL MANILA BRAND MARKETING SERVICES IN                 1602
A0101404260611153476004TIU, THERESITA SOLDIVILLO                                0505
A0101404260611478374081ROSITA VIVIT                                             0502
A0101409890649748239001**********                                               0508
A0101409920650416463001TANCIO, SALLY PANGA                                      0501
A0101409920000000998569MEMBERS OF NATASHA (SHOECAT INC                         10502
A0101409920000000998569PEDROSA, JULIE                                          20500
B0101407690652207555001ST. FRANCIS DE ASSISI SCHOOL OF                         11601
B0101407690652207555001QUEZON CITY                                             21600
A0101411530000002260300CHANG, BERNARDO III LABRADOR OR                         10501
A0101411530000002260300CURAMENG, EPZA GAITA                                    20500
B0101411530654089400001**********                                               1601
B0101413570000005867372N. ULGADO JR. OR A. SALVADOR OR                         11601
B0101413570000005867372E. BAUTISTA                                             21600
B0101413570000009426251BAUTISTA, EMMANUEL JOSE AND                             11601
B0101413570000009426251SALVADOR, ALVIN                                         21600
A0101413570000008173580MAGAO, JESSICA SALE                                      0502
A0101413990000004511124PASCUAL, EDWARD A. OR                                   10501
A0101413990000004511124PASCUAL, ANN THERESE S.                                 20500
A1301400210000001206831RUTH S IRENEA                                            0510
A1301400210000009982541****                                                     0502
B1301400210682039340001CDS MACHINE SHOP CORPORATION                             1605
A1301400210682245243001ATTY. MANUEL P. PUNZALAN OR                             10501
A1301400210682245243001ALEXANDRIA PUNZA                                        20500
A1301400500000001412231DE LEON JR., PLACIDO HIZON                               0501
A1301400500000011254361KE, JINZENG                                              0502
A0101408240000012882430MACASAET , ALLEN MICHAEL ALERTA                          0501
B0101408240000002419963ASIAN THORACIC & CARDIOVASCULAR SUR                      1601
A0101408240000010639499TENGCO, CHRISTOPHER JARDENIL                             0502
A2801400100000002253538DE GUZMAN, JOSELITO MENDOZA                              0502
A2801400100712487899001NOCUM, LEANDRO CASTELO                                   0501
B2801400230000001580296DEL ROS AMUSEMENT ENTERPRISES, INC.                      1601
A2801400230713771317001NACIONAL, NATHANIEL ARZAGA                               0501
B4101400260000000002273BERNARD MOJICA AND MARIA CRISTINA                        1601
A4101400260000012859111AYALA JR., LEOPOLDO S.                                   0501
A4101400390813478374063FRANCISCA A. FERRERA                                     0501
A4101400420000008280693MEMBERS OF, NATASHA SHOECAT INC                         10501
A4101400420000008280693BULAWAN, EMMA                                           20500
A0101412340000004877341ANGELIQUE D. CADISAL                                     0502
A0101404840000013645724CARREON, NESRAIM CUNETA                                  0502
B0101404840000006365477SOUTH CARE COSMETICS MFG. INC.                           1602
B0101404840000013744760KINGSTON EXCELL DEVELOPMENT CORPORA                      1603
A0101404840851046725021HELEN GELIZON                                            0502
A0101404840851520766163JOCELYN ANONUEVO                                         0501
A0101406750000003393162GHALAINI, GHASSAN ABDULL RAZZAK                          0501
A0601400230000003016002HIZON, ANGELICA OLALIA OR                               10501
A0601400230000003016002MALLARI JR, SIXTO                                       20500
B0601400230000000029672BATTERY DEPOT OF CENTRAL LUZON INC.                      1610
A0601400230000002650108TUAZON, REMIGIO ESCANO                                   0501
