B0101402060351821100608**********                                               2005
B0201400920375821100608**********                                               2005
A0101405650000000080093PULGA, JASMIN BAUTISTA                                   0501
B0101406460000000712816DSCY COMERCIO INC.                                       1601
A0101414120000003190758EGUICO JR., RICARDO DE JESUS                             0502
B0101414120000003584281JD & P FOOD TRADING CORPORATION                          1601
A0101414120000004603121FLYRYNE TRAVEL AND TOURS                                 0501
A0101414120000004603223D-TWELVE SEVEN ENTERPRISES                               0501
A0101414120000004603252VBV TRADING                                              0501
A0101400150000003601021********                                                 0501
A0101400150061228710001LAARNI L. AGUSTIN                                        0501
B0101400150061534780001STRAITS WINE COMPANY WHOLESALERS, INC.                   1602
B0101410980000000171997FUNTOURS TRAVEL CORPORATION                              1601
A0101405650000002960843ZAMORA, ENRICO RAMIREZ                                   0501
A0101408370382315305001HERMINIA F. FRESNOZA                                     0501
A0901400220000001805090**********                                               0504
A4101400420000002084595TONIO, EDNALYN                                           0501
A4101400420000003715724FLAVIANO, PERLITA                                        0501
A0101400860000000765691**********                                               0501
A0101401250021183904001EDNA G. QUINSAY OR                                      10502
A0101401250021183904001ANTONIO E. QUINSAY                                      20500
A0101401250021471792001PIOQUINTO, DELIA ROSQUITES                               0501
B0101400150061010834001CITY OFFICE EQUIPMENT, INC.                              1604
B0101400150061046605001HONEST PEOPLE ORIENTED LIVELIHOOD M                      1602
A0101400150061087284001RODA, JULIUS R. DBU SJA TRADING                          0501
A0101400150061227109002**********                                               0505
A0101400150061230098001SALVADOR R. SERRANO                                      0501
A0101400600071233729001**********                                               0501
A0601400100000002072715POLICARPIO, ROMULO EVANGELISTA                           0503
A0601400100081501761001TAN, WINTHEL OR RALPH                                    0501
A0601400100081504737001KAW, GEMINI DEANG                                        0502
A0101400730111520766071PRECIOUS B. RAYMUNDO                                     0501
A0101412630000004640982PORCIUNCULA, JOSE CARMELO JAEN                           0502
A0101401830141461686001JOSEPH APOLLO H. GUINEZ OR                              10505
A0101401830141461686001SUSAN G. JULIANO                                        20500
B5001400170000000214042*********                                                1605
B0101412920160058851001BREAKROAD35 INTERNATIONAL MARKETING                     11601
B0101412920160058851001CORPORATION                                             21600
A0101400440000004901440NLR INSURANCE SERVICES                                   0503
A0101407270000003254271BORRICANO, RICHARD GALLAMORA                             0503
A0101401090171293965003VIVECA JANE OR CHARLIE                                  10502
A0101401090171293965003DEOCADIZ                                                20500
A0101401090171791624001MARIBEL B. GARCIA                                        0502
B0301400660000003406055*****                                                    1602
A0301400660194304371001*****                                                    0510
A0101401380201725122001****************************                             0503
A0101413600000002122183AURELIO U. AMPARO                                        0502
A3101400740000005308270PERUMAL, SENTHAMARAI SELVAN                              0501
A3101400740000005308361VERMA, ASHARAM RAMKISHAN                                 0501
A3101400740000005308418SINGH, DIWAKAR -                                         0501
A3101400740000005308452SAHOO, GANESH KUMAR                                      0501
A3101400740000005308481SALIAN, VINOD SANJEEVA                                   0501
A3101400740000005308510KONDUSAMY, VEERAPANDI -                                  0501
A1001400190231520766126ORTIZANO, MERLYN B.                                      0501
B1001400350233032957001PCCI FINANCE CORPORATION                                 1601
A0101401670271094286001MINAVES, ANNE PLAMERAS                                   0501
A0101401670271508917001KARL BENEDICT R. FAVILA                                  0502
A0101400570281192838001ERNESTO GUARIN MEDINA                                    0502
B0501400200292021985002FOREST LAKE DEVELOPMENT, INC.                            1610
A0801400160311638278001DE ARROZ, ELMA SAMPIANO                                  0502
A6601400120000001065383ALEXANDER SY OR RITA NILA CHY                            0503
B2001400290315044204001ACEBANK CREDIT, INC.                                     1601
A0101402350321526808001LUCITA R. TARRAY                                         0502
B0101405650322016488003CALOOCAN BEARING AND PARTS CORP.                         1610
B0101405650322043676001KEWALRAM PHILIPPINES, INC.                               1601
A0101402060351211723001MELINDA V. MEMBREBE                                      0501
A0101402060351734699002RAMNANI, MICHAEL CHRISTOPHER OR                         10501
A0101402060351734699002RAMNANI, ASHOK                                          20500
A0101409050352621512001AIDON B. PANLAQUI                                        0502
B0201400760374032173002MARIANO & SONS MARKETING, INC.                           1605
A0201400760374507932002******                                                   0501
A0201400760374625336001REYES, BAYANI CARLOS                                    10501
A0201400760374625336001OR REYES, VIRGIN                                        20500
B0101408790000000599840BETUR, INC.                                              1602
A0101415350000005308292ANTONIO, MARCELINO PAJE                                  0501
A0101415350000005308372ENCARGUEZ, MARDEN GACUTAN                                0501
A0101415350000005308430GABINETE, MARIE SUZETTE ZAPA                             0501
A0101402770000002267212ONGKEKO, FREDERICK SAYSON                                0503
A0101402770000000360650AGUIRRE, LORY DBU FIRST LINE                            10502
A0101402770000000360650TRADING                                                 20500
B0101402770000001571660CVM FINANCE AND CREDIT CORPORATION                       1602
A0101402770391095895001RAMOS, JAYAR DE CASTRO                                   0502
A0101402770391608769001MARIA ELIZA IGNACIO CRISANTO                             0502
B0101405490000003905184NORTHSHORE HARDWARE AND CONSTRUCTION                    11602
B0101405490000003905184SUPPLY                                                  21600
B0101408400394028560002NEW LIFE CHRISTIAN CENTER (THE FORT) INC                 1604
B0101408400394028560004NEW LIFE CHRISTIAN CENTER (THE FORT)                     1604
A0301400820000002692180SUMAYO, JOSELITO U.                                      0501
A2401400180411343202003KOJIMA, LEONA PATAYAN                                    0502
A2401400180411344858001CHUA, MAGDALENA SALAZAR                                  0501
A0101403030441239409001**********                                               0502
B0101406330472027368002R & A FASTFRATE CORP.                                    1603
A0101406330472298552011CARINA F. FALQUERABAO                                    0501
A0101406330472478374049DANILO GIL M. SETENTA OR                                10503
A0101406330472478374049DELIA A. SETENTA                                        20500
A3801400170000002302892CHRISTOPHER CABARLO DY                                   0501
A1901400160491659463001GLORIA JARO PENA                                         0502
A0101405940000005067818LAQUI, ELISEO III                                        0501
A0101405940000005068111MEDINA, MELISA A.                                        0501
A0101405940512360728001ERWIN P. HERNANDEZ OR AGNES                             10501
A0101405940512360728001T. HERNANDEZ                                            20500
A0101405940000001534269**********                                               0501
B0101408530516033397001SPRINGER INTERNATIONAL, INC.                             1605
A0101411400000000484593FRANCO, JAY-AR BEE APIGO                                 0501
A0101411790518055764097CATHERINE C. FAUSTINO                                    0501
A0101403610531219566001TAN, CARMELITA D. OR                                    10502
A0101403610531219566001YASON, AMELIA V.                                        20500
A0101403610531290519002MENDOZA, FREDERICK MIRANDA OR                           10505
A0101403610531290519002MENDOZA, FELICIANA                                      20500
A0101403610531344476001REYES, MA. CORAZON ALVAREZ                               0501
A0101407720602396506002DR. ESTELA Z. CABRERA                                    0501
B0101412180000001293016JENNIEDEDIOS INC.                                        1603
A0101412180000002340643BENITEZ, ELVIRA OBEDIENCIA                               0501
A0101404260611351828001YUMUL, AGNES ANNE OR                                    10501
A0101404260611351828001YUMUL, JHONATAN                                         20500
A0101410300000000919659LILIAN F. FLOR OR                                       10503
A0101410300000000919659DR. JAIME F. FLOR                                       20500
A1301400210000000540914RAMOS, ALLAN BAUTISTA                                    0501
A1301400210682569598001PHILIP M PACADA  OR                                     10501
A1301400210682569598001SUSANA L PACADA                                         20500
A2801400230000000937548VITUG, QUIRINO DBU VI-JETT                              10502
A2801400230000000937548ACCOUNTING OFFICE                                       20500
A2801400230000001782072ALUNDAY, KR DBU KRISSON HAIR                            10501
A2801400230000001782072CLIPPERS                                                20500
A4101400420000003308961REYES, CHARISSA MANALO                                   0502
B4101400420814016269002DAMAYAN SA ANABU II B CREDIT COOPERATIVE                 1603
A4101400420814478374164LENITA PARRILLA BALISA                                   0501
A4101400420814478374196DINO, LUZVIMINDA                                         0501
A4101400420814520766114BAYER, LOWELYN C.                                        0502
A4101400420814520766131LACSON, MELIZA FRANI                                     0501
A4101400420000000710223ROMERO, MARICRIS BAUTISTA                                0501
A4101400550000004846891PAROLE, GLORIA RAYO                                      0501
B0101404840000000004166JOY PLANET INC.                                          1603
A0101404840851316655003KATHERINE HIPE-LOPERA                                    0501
A0101405070861027133001WORLDLINKS CABLE WORKS                                   0502
B0101405070861034415001ROTARY CLUB OF DOWNTOWN MANILA                           1601
A0101405070861395697002MINOZA, MARLYN SENDEN                                    0501
A0101413860000002314216PILON, MIRRIAM SAN VICTORES                              0501
B0601400230000002310161ST. JOHN BOSCO DORMITORY                                 1601
B0601400650410492000011**********                                               2102
