F0601400100081685142001POON, WAISILY LOZANO                                     2502CKO
F0101413600000002822671AUNICAJ INTERNATIONAL TRADING                           12602CK1
F0101413600000002822671CORPORATION                                             22600CK1
F0101407720602022598002MG MADRID & COMPANY                                      2601CKR
F0101407720602022910002BUSINESS SOLUTIONS OUTSOURCING,                         12603CKR
F0101407720602022910002INC.                                                    22600CKR
