B0301400240401821100608**********                                               2010
A6601400120314615888088FRANCISCO, EMMA OR REYNALDO                             10504
A6601400120314615888088OR CO, ESTELITA OR ELSIE                                20500
A0101400150000004915220FRANCO, ESTELITA FLORES                                  0501
A0101400150000008306956VELICARIA, MARIS LOU SELUDO                              0501
A0101413150000003208277******                                                   0502
B0101400440161032916001S.D. CUBILLAN CONSTRUCTION                               1601
A0101411240283065086001MIA MAIREEN NG OROZCO DBU MMDJ                           0501
A0101400440000008201283JAMES E. PACHECO                                         0501
A0101400440161045289001RAPTURE CAFE' BAR                                        0502
A0301400950000005707240MANALO, ROWENA DUMILE                                    0502
A1001400480000001054911MARCABAN, MA. CARMELA EDEN SANI                          0501
A0101408370382381086001TULOD, LUZVIMINDA MUNCAL OR                             10501
A0101408370382381086001TULOD JR., AMANTE MUNCAL                                20500
A0101405490000006241852RED, LOLITA R. DBU CRYSTAL BRAK                          0501
B5501400120000002018946TIU, CARMEN M. OR TIU, GLADYS M.                         1605
B0601400230000003644853ALL 'BOUT PEOPLE SERVICES & TRADING                      1601
A0101400150000003600984BASUAN, ARWIN LAGOS                                      0502
A0101400150061226356001ALELI R. SANTOS                                          0501
B0101400150061226553001PEACE PEN ENTERPRISES                                    1601
A0101400150061315447001SUBIDO, M.D. JONAS CERTEZA                               0501
A0101400150061342460001NISPEROS JR., EMILIO CASCALLA                            0501
A0601400100081251899001YALUNG, ROBERT OR MA. CRISTINA                          10502
A0601400100081251899001OR SANTOS, MA. L                                        20500
B0601400360000000978936THE MEDICAL CITY CLARK, INC.                             1610
A0101410850000005316832ZARATE, MARY JOCELYN PALE                                0502
A0101410850000000844695CASTILLO, DBU KING ABAK B                               10501
A0101410850000000844695CASTILLO CUSTOMS BROKERAG                               20500
A0101401960121096152001***************                                          0502
A0101413150000001288251JOEL TAN                                                 0502
B0101412630000002186461********                                                 1606
A0101401830000009375675RICHARD REDRICK P. SALIMBAO OR                          10501
A0101401830000009375675JESUSA V. SALIMBAO                                      20500
A5001400170000000213932TAN, WINLEY YU OR                                       10502
A5001400170000000213932YU, LEONARD OLIVAR                                      20500
B0101412920000000276562ALPHA STONEWORKS ENTERPRISES                             1603
A0101400440161039572032IAN PAUL A. PADILLA                                      0502
A0101400440161039572061DOMINGO A. ORDIZ JR.                                     0501
A0101400440161520766125FELY TUBELLO                                             0501
A0101400440161525001091CRISTINA A. PADILLA                                      0502
A0101400440161525001159MARITES P. MONTALBAN                                     0502
A0101400440161574323001MARISSA P. MAGPAYO                                       0501
A0101407270162333006005BEATRIZ A. FLORES                                        0502
A0101401090000009373931CO, EDNA ANTONIO                                         0501
A0101401090000000210317EBBA, EDGARDO ESGUERRA                                   0501
A0301400530000002318509********                                                 0501
A0301400530000001409610NAMOC, FE BIADO                                          0502
A0301400530193702524088TAN, DOMINIC K. OR                                      10503
A0301400530193702524088TAN, CAROLYN P.                                         20500
B0301400660000003361919DAVAO CONSUMER LINKAGE CORPORATION                       1604
A0301400950000008000717ANG, JAN KRISTOFFER TE                                   0502
A0101401380000000682622********                                                 0501
A0101412500000009384045REYES JR., RUFINO AGUINALDO                              0501
B3101400160221045923001SUNRICH MANUFACTURING CORPORATION                        1610
A3101400450000001104112SY, MARVIN DAANTOS OR                                   10503
A3101400450000001104112SY, REMELIE ISIP                                        20500
B3101400450223040460001CREATIVE AUDIO VISUAL SOLUTIONS,INC                      1601
A3101400450223529066001MORENO, MICHELLE CALALO                                  0503
A3101400450223533025001GATDULA, ENRICO JOSE OR GATDULA                         10501
A3101400450223533025001JAMAILA                                                 20500
B3101400450223635512001TOTAL QUALITY MANAGEMENT BUSINESS                       11601
B3101400450223635512001VENTURES                                                21600
A3001400130000005446340BALANGA, MARIO FERNANDEZ                                 0501
A3001400130000001271363PALUCA, LIZA MORAL                                       0502
B1001400190000002170690GOCHUICO, PETER LIM DBU METRO FASTENERS                 11602
B1001400190000002170690AND INDUSTRIAL                                          21600
A1001400190231273298001NORTH CENTRAL MINDANAO DISTRICT                         10505
A1001400190231273298001COUNCIL                                                 20500
A1001400350000007762436XXXXXXXXXX                                               0502
B1001400350000002367273CHAN JR., BENJAMIN PO                                    1605
A1001400480000003357726AJOC, DIOSDADO PAJO                                      0502
A1301400470252674097001MARIO A. CABUANG                                         0502
A1901400290000008851236EDWARD BONGALOS JAMIS                                    0501
A1901400290000008932889MARY JOYCE GOMEZ CADANO                                  0501
A1901400290261050401001DIOSDADO M CAPUCHINO                                    10502
A1901400290261050401001DBU DMC DIAGNOSTIC CENTER                               20500
A1901400290261746035001MARJORIE REYES FELIX                                     0501
B0101406460000001231656EASTGATE COMPUTER CORPORATION                            1601
B0101406620000004595757CLOUD PLUS SERVICES, INC.                                1603
A0101406620273311311001JERRY PEREZ &/OR ROLLY PEREZ                             0503
A0101400570000009375033SANTOS, KEVIN CHRISTIAN F. OR                           10501
A0101400570000009375033JAVIER, KEEZEL SHEERELL V                               20500
A0801400160000002287578************                                             0501
A0801400160000002287556QUIMADO JR., NEMENCIO RODRIGO                            0502
A1101400120000006186649ABAD, BABAY BOY TEODORICO S DBU                         10501
A1101400120000006186649NEOTRADE MARKETING SERVIC                               20500
A6601400120314071890001MARTIRES, MYLA TURLA                                     0502
B6601400120314665528001**********                                               1601
A0101402350000000145628MICHAEL ROBERT S. DA SILVA                               0501
A0101402350000003880397ILAS, EVANGELINE OLIVAREZ                                0502
A0101402350321712665001ALEX U. PASCUAL                                          0501
A0101402510000009366969GALLARON, MARICAR ABAN                                   0501
A0101409050352603489001REGINA TIRONA OR JULIA TIRONA                            0501
A0201400760000005156587YU, TIONG KEE CHU                                        0501
A0201400760000005711159BORROMEO, KENNETH SERON                                  0501
B0201400760374042294001MANDAUE CEBU MARINE PRODUCTS                            11605
B0201400760374042294001CORPORATION                                             21600
B0201400760374046327001PELAYO, R. DBU TOTO ENTERPRISES                         11605
B0201400760374046327001COMMODITIES                                             21600
B0201400760374272956001YU, DESSUM LIM OR YU, EMMA LAU                           1601
A0201400760374478374015DACAYANA, ROSALIE SIBLA                                  0501
B0201400920000000048020DONG JUAN CENTRAL CORPORATION                            1601
B0201400920000006433649SAN REMIGIO LOGISTICS & EQUIPMENTS                      11601
B0201400920000006433649CORPORATION                                             21600
A0201400920375778475001HEALTH WELLNESS VENTURES                                10505
A0201400920375778475001PHILIPPINES CORP                                        20500
A0201400890376063113001DOPPIO COFFEE TRADING                                    0501
A0201400890376745254001BUYSER, IAN CHRISTOPHER COLETO                           0501
A0101408370382207662001DR. CELSO F. BATE OR                                    10501
A0101408370382207662001MRS. SOPHIA S. BATE                                     20500
A0101408370382413688001DR. CHRISTY S. YAO                                       0501
B0101408790383021083001MABINI TERMINAL DEVELOPMENT, INC.                        1602
B0101408790383021087001OCEAN TANKERS CORPORATION                                1605
B0101408790383680665001CHAO SHUN HUI HOLDINGS INC.                              1602
B0101408790383694411001SEAOIL FOUNDATION INC.                                   1603
A0101411660000000751206MALLARI, BOBBY VERDE                                     0502
A0101402770000005324492MARK B. YANGAT                                           0501
A0101402770000007413783ALBIS, MARK ANTHONY DESQUITADO                           0502
A0101402770391388661003VARGAS, NANETTE PANA                                     0501
A0101405490000006241943MINERVA VILLACORTA                                       0501
B0101408400394025635001KETMAR FASTFOOD CORPORATION                              1606
A0101408950396562301001DR. LEOPOLDO JOEL M. ZAPANTA                             0502
A0101408950396567425001DR. SHEILA LYN REMOT RANIN                               0504
A5501400120000006976596FIGUEROA, RONELLYN BILLONES DBU                          0520
B2401400180411033588088FIESTA APPLIANCECENTER, INC.                             1605
A2401400180411478374054LUENGO, IMELDA AMPO                                      0502
A1201400150421253603001FLORES, ISABELITA MENDOZA OR                            10501
A1201400150421253603001DOLOROSA JR., ROMEO F.                                  20500
A0901400220000006214411**********                                               0503
B0101403030441037979001CITYPRIME VENTURE CO. LTD.                               1603
A0101403030441279569001**********                                               0506
A0101403320000001646777MYRNA M. CRISOSTOMO                                      0501
A0501400170481403300001ATTY. JACQUELINE V. MEJIA                                0502
A1901400160000001718065BOSS HOBS SHOES AND                                     10503
A1901400160000001718065BAG REPAIR SHOP                                         20500
A0701400260000003259374**********                                               0501
B0701400260000000671050PENALOZA, JONATHAN H. DBU NAGA UNITED                   11602
B0701400260000000671050BEARING SUPPLY                                          21600
B0101408110515017722001STORES SPECIALISTS, INC.                                 1615
B0101408110515036784001MIDLAND PACIFIC FOOD CORPORATION                         1601
B0101408530000003866115ZP LIFESTYLE TRADING, INC.                               1610
A0101408530000001885750JULIE ANNE MARREY J. CUSI                                0501
B0101403450521028565001**********                                               1601
B0101403450521238087001**********                                               1610
A0101403450521238096001**********                                               0501
A0101403450521238153002**********                                               0501
A0101404000000007943562ANGELICA MENDOZA                                         0502
A0101404000551403303001CEDENO, PAUL ROLAND RUFO                                 0501
B2201400250561258273001*****                                                    1605
A0101404130601154183001RAMOS, JENNIFER FELICIANO                                0504
A0101407720602090199001ABUYEN, MARIA TERESA SISON                               0501
B0101404260000000157037INTERPRO FOOD SPECIALIST INC.                            1610
A0101404260611150835001HENRY OR LAI SHA CHING                                   0505
A0101413440000002125428FADERANGA, L. DBU CAI MARK                              10502
A0101413440000002125428ENTERPRISE                                              20500
A1301400210000001206831RUTH S IRENEA                                            0510
A1301400210682045774001POP WASH LAUNDRY SHOP                                    0502
A1301400210682045774001POP WASH LAUNDRY SHOP                                    0502
A1301400210682394090002RICARDO CAMUA JR. OR                                    10502
A1301400210682394090002MIRAFLOR CAMUA                                          20500
A1301400340683406123001TOBIAS, SUSANA FULGENCIO                                 0502
A1701400230000004469643SALAZAR, MARIBETH DBU  NORTH                            10505
A1701400230000004469643TECH BUILDERS                                           20500
A1701400230693478374044CECILIA CORRALES                                         0501
A1701400230693478374078GALVEZO, AVELINA GACAYON                                 0501
B0101408240711025397001KINGSMEN CORPORATION                                     1605
A4101400390813378814001GIGI D. ABOGADO                                          0501
A4101400550815693134001LLANES, TUDOR HERNANDEZ OR                              10501
A4101400550815693134001LLANES, PRESCILL                                        20500
A0101412340000000224035LUNA, NORBERTO CORRAL                                    0501
A0101412340000007305520ROWENA P. GONZALES                                       0502
A0101404840851217637095MELINDA VILLAGOMESA                                      0501
A0101406750000000500154MAGRACIA, MARY ANN DELA CRUZ                             0501
A0101406750000009381820BELBES, SHELLEY ZAGALA                                   0501
A0601400230000005185924GAJE, AGNES DBU JCG AIRCONDITIO                          0502
