A0101405810000000016560***************                                          0501
A4101400420000000018420GALAGATA, JONATHAN URMENETA                              0501
A0101402480000000028082BARRIOS, NELIA                                           0503
A0101405940000000061754REGINO, MARIA LALAINE LIAMZON                            0501
A0301400660000000194552LU, MICHAEL YAP                                          0503
A0101412890000000371453**********                                               0502
A0101410560000000590625BACALLA, NERISSA BALON                                   0501
A0101408820000000713222MARILYN PANCEPANE                                        0502
A0101406880000000745000MENDOZA, MARIA THERESA VILLAREA                          0504
A0101410980000001154409TAN, NELLIE ANN JT                                       0501
A0101406330000001235090MONTESSORI AT WORK PRE-SCHOOL                            0502
A0101400150000001422473CARABIDO, MARIFEL VILLAMAR                               0501
A0101400440000001439932CRUZ, SHIRLEY SARI                                       0501
A0101408790000001486284RONDILLOS, JENNELYN CASTILLON                            0501
A0101408530000001885772LAMUG, JESELLE ANNE LANZONIDA                            0501
A0101413860000001887056DE LEON, ATHENA ANGELLIE DELA C                          0501
A0101410140000001940030HERRERA, CHARRY LOU LAWAG                                0501
A0101410560000001944032CHAN, JONALYN VALLE                                      0502
A0101406750000002040271EVANGELISTA, JOSEFINA MALLARI                            0502
A0201401020000002250613CHUA, BERNARD ONG OR UY, ANTHONY OR GUO, YAPING          0510
A1001400480000002300383GUINTO, JEAN MAGO                                        0502
A0601400230000002310183CALMA, JACQUELINE MALIG                                  0501
A0101413440000002339573CABRERA, LEOTHENY ALBANO                                 0502
A0101412920000002359093CALING, MERIE KRIS CABRERA                               0501
A0301400950000002975035NANCY B. MORALIZON                                       0501
A0101413570000002976181MANALILI, EMILY GARCIA                                   0501
A1301400500000003070128MARIA TERESA V. ABESAMIS                                 0504
A0101413440000003298242BUENDIA, CARLOS COLOYAN                                  0502
A0101412340000003349119JOHN VINCENT V. TABUG                                    0501
A0301400660000003405990ICASAS, JOSHUA GARLON YUVIENCO                           0502
A0101400860011399497002**********                                               0504
A0101400860011496636002**********                                               0502
A0101401700041386463001**********                                               0503
A0101400150061231578001GEMMA L. AGANAD                                          0501
A0101405810072236268001KENG, LOUELLA JOCELYN BARRETTO                           0501
A0101405810072236551001***********                                              0501
A0101405810072478374022***************                                          0501
A0601400100081396550001BAYA, GABRIEL OR ETHEL                                   0501
A0601400100081478374009JOWELL MIRANDA                                           0502
A0101400730111561049001EMMANUEL G. CUEVAS                                       0501
A0101401960121452871001VIENNA MARIE GUANLAO                                     0505
A0101401830141206435001EMMA G. CHUA                                             0502
A0101400440161039572029LORNA A. CERRO                                           0501
A0101400440161520766184MA. RENITTE D. ROMA                                      0502
A0101400440161525001002NERISSA N. RELAO                                         0502
A0101401090171199581001ESMA, VICTORIA G.                                        0501
A0301400660194456048088*****                                                    0503
A0301400660194558691002AGUILAR, BERNIE BUENAVISTA                               0501
A0101407140213150877001**********                                               0501
A0101407140213385506002**********                                               0501
A0101407140213779886001****************                                         0502
A3001400130230478374028MAGLASANG, ELIZABETH DAHANG                              0502
A3001400130230697960001FERRER, ODELIO YU                                        0501
A0101406460272756985001***************                                          0501
A0101410980275098208188********                                                 0501
A0101400570281500151001EVELYN O. DICDIQUIN                                      0501
A2601400270302591563001ROSITA R. CHE                                            0501
A0101402480331223673001************                                             0501
A0101402770391047437001CRUZ, J DBU DMLC BUILDERS                                0502
A0101402770391589915001CATCHILLAR, RONALDO SARDADILLAS                          0501
A0101408400394495934001ASUZANO, MARIA MARTA E.                                  0501
A0101412210399094817011ISHIHARA, KOICHI                                         0501
A0101403030441029489001**********                                               0506
A0101403030441397813002**********                                               0501
A0101406330472027958001A. ANOLIN ENTERPRISES                                    0502
A0101406330472410151001BARTLEY OR BRADLEY YAOMUNTEK                             0502
A0101406330472478374020SHERLY M. CONDING                                        0501
A0101406330472478374037LOLITA D. AMADOR                                         0501
A0101406330472478374044ARMES SMITH B. ALVARADO                                  0501
A0101406330472573379001POI HOK SY                                               0501
A0101408530516044264001DATA ART DESIGN & PRINT SERVICE                          0501
A0101408530516571877100UY, FLORIDA Q.                                           0501
A0101411790518055764152GAGUI, JOE ANTHONY YU                                    0501
A0101411790518055815118SABLON, SHAUN ZEUS CUBIL                                 0501
A0101403450521238096001**********                                               0501
A0101403450521238905001**********                                               0502
A0101403450521305916001**********                                               0502
A0101404260611478374053VIOLETA P. ORADA                                         0501
A0101408240711372529001RICHARD F. CONDE                                         0501
A0101408240711546859001CALIG, TERESITA MACATUAY                                 0501
A4101400420814520766108ESPANOLA, MERELY C.                                      0502
A0101404840851520766002CYNTHIA S. GERODIAS                                      0502
A0101404840851520766099EDLYN BRUNO                                              0501
A0101404840851520766104PARAGAS, MARILOU                                         0501
A0101405070861197650002********                                                 0502
A0101406330000000162616LAND OF THE PROMISE TRUCKING                            10505
A0101410980000000171931MICHELLE C. CO OR                                       10501
A5001400170000000213954LOPEZ, ISOLDE OR TAMAYO, AILYN                          10504
A0101405490000001092524MA ANASTACIA S. DELA MERCED OR                          10502
A0101410850000003102089BANTUGON, MIGUEL LEONILO M. DBU                         10503
A0101400150061226941001ROBERTO L. CO OR                                        10501
A0101400730111429247002SANTOS, CAROL MAE ASIDO OR                              10502
A0101401830141206735001GLORIA C. FRIAS OR ELAYNE ONG                           10502
A0101401090171196099001MARY JEAN V. GUNO OR                                    10504
A0101408660274514556002CHOI, JEONG KAY OR                                      10501
A0101405650322400866001LEVISTE, PANCHO M. OR                                   10502
A0101408950396047389001MELROSHEAN CONSTRUCTION                                 10505
A0101403580511237144004VALENCIA, JOSE OR MA FLORECITA                          10502
A0101407720602596264001RAMOS, GLENN MICHAEL MEDINA                             10503
A1301400210682345728001DR. SEVERINO DE GUZMAN JR. OR                           10502
A4101400390813386208001FAUSTINO, MARY LIGAYA OR                                10502
A0101406330000000162616SERVICES                                                20500
A0101410980000000171931CHESTER ALLAN T.                                        20500
A5001400170000000213954OR TAMAYO, SHEEN                                        20500
A0101405490000001092524RAYMOND ANTHONY DAYLEG                                  20500
A0101410850000003102089KING B ENTERPRISES                                      20500
A0101400150061226941001DOLORES I. CO                                           20500
A0101400730111429247002SANTOS, ENRICO                                          20500
A0101401830141206735001OR ED RAYMUND C. FRIAS                                  20500
A0101401090171196099001ATTY. TOMAS GUNO                                        20500
A0101408660274514556002LUI, LEUNG CHU                                          20500
A0101405650322400866001LEVISTE, EDITHA                                         20500
A0101408950396047389001CORPORATION                                             20500
A0101403580511237144004OR MA CLARISE                                           20500
A0101407720602596264001OR MIZPAH M. RAMOS                                      20500
A1301400210682345728001  DRA. VIOLETA D                                        20500
A4101400390813386208001FAUSTINO JR., DO                                        20500
B1001400480000000133440DAHILAYAN FOREST PARK, INC.                              1605
B0101406330000000162718IMPLICARE INTERNATIONAL MGT. RESOURCES                   1603
B0101406330000000162729LADAKH INTERNATIONAL, INC.                               1601
B0301400660000000195306G.E. 64 ENTERPRISES, INC.                                1603
B0601400520000000398670UNIWISE VISUAL ADVERTISING CORPORAT                      1602
B0101406330000000432864**********                                               1605
B0101406330000000432875**********                                               1605
B0101400150000001708590MARSTEVEN HOLDINGS, INC                                  1603
B0301400950000002115742LKT REALTY DEVELOPMENT CORPORATION                       1601
B1001400480000003028931BELICAN, ALDIN TORNIADO DBU BELICAN                      1602
B0101413570000003580681FERRER, MARK OLIVER MANZANO      JT                      1601
B0101400440000003766934APPLIED CVF INCORPORATED                                 1605
B3101400160000004362889MOTORCENTRAL FINANCE CORPORATION                         1610
B0101401250021022244001MACKEE PARTY NEEDS AND PARTY FAVORS                      1602
B0101400150061021085001SEAOIL PHILIPPINES, INC.                                 1610
B0101400600071233681002**********                                               1606
B0101400600071516450001********                                                 1601
B0601400100081251895001ONG, PACITA D. OR ONG, ABEL                              1602
B0101401960121024740001**********                                               1604
B010141292016005774100128701 LEISURE TRAVEL AND TOURS INC.                      1601
B0101412920160057742001MARVEL INFINITE SOFTWARE SOLUTIONS CORP.                 1601
B0101401090171035575001MOSS MANILA EVENTS HOUSE INC.                            1605
B0101401380201034247001HOBBIES OF ASIA INC.                                     1604
B0101407140213035235001**********                                               1602
B0101406620273012462006COL FINANCIAL GROUP, INC.                                1610
B0101408660274048368001PAN GLOBAL REALTY DEVELOPMENT CORPO                      1602
B0101410980275047209001PIONEER STATIONERS, INC.                                 1602
B0801400160311014846001CITI APPLIANCE CORPORATION                               1612
B2001400290315528399001**********                                               1601
B0101402480331010297001HOLLY FARMS INC.                                         1610
B0101402480331033229011TGP DRUGSTORE                                            1603
B0101402480331033229014TGP DRUGSTORE                                            1603
B0101402480331039628003TOTALGENERICS PHARMACY INC.                              1603
B0101402480331044325001SAV COMPANY LTD. ( SAVORY CUISINE )                      1605
B0101402480331057733001GILAS MANILA HARDWARE CORPORATION                        1610
B0101402480331223960001GREENWOOD LAND HOLDING CORP.                             1605
B0101402480331748556012QUALIGEN PHARMACY CORP.                                  1603
B0101402640361027755002CARE 1ST CORPORATION                                     1605
B0101402640361035752001PRICE CUTS MULTI PURPOSE COOPERATIVE                     1601
B0101402640361666146001RLCT MULTI-SPECIALTY MEDICAL CLINIC                      1601
B0101402770391035790001NEWBIG FOUR J CONSTRUCTION INC.                          1604
B0101402770391040524001JTC CRUZ CONSTRUCTION CO., INC.                          1604
B0901400220432044564001MARCIAN CONVENTION CENTER                                1610
B0101407430503015295001PC SUPPLIES, INC.                                        1603
B0101407430503030067002PRODATANET INCORPORATION                                 1603
B0101403450521012009001SYMPHONY TECHNOLOGIES, INC.                              1603
B0101403450521021842005WALL VISION CORPORATION                                  1605
B0101403450521024779002**********                                               1602
B0101404130601039674001RESPACE INC.                                             1602
B0101404680651034523001NO NAME                                                  1609
B0101405070861024779001SEAVIEW IMPORT EXPORT CORPORATION                        1602
B0101405070861046931001BUKWANG PRIME INTERNATIONAL AGENCY                       1601
B2801400230000000008313STRICKLAND, LAILANI DBU L&L TROPICAL BAY                11601
B0601400100081296256001CHRISTOPHER OR LOYA MALLARI FAO CHRISSAN                11603
B0101406460272031330001BISHOP-HAIL KING JESUS SANCTUARY OF THE                 11605
B0101408240711492799001CENTER FOR INFECTIOUS DISEASE AND TRAVEL                11602
B4101400390813016813001GENERAL CHEMICALS & RESINS                              11601
B2801400230000000008313RESTAURANT JT                                           21600
B0601400100081296256001AUTO SUPPLY                                             21600
B0101406460272031330001LIVING GOD, INC                                         21600
B0101408240711492799001MEDICINE-CIDTRAM                                        21600
B4101400390813016813001CONSORTIUM                                              21600
B0101415060385821100608**********                                               2002
B0901400190431821100608**********                                               2005
B0101409470632821100608**********                                               2001
