B0201400890376821100608**********                                               2004
A1901400290000014535543ETHEL ROSALES LIPAT                                      0501
A1901400290000014042370MOTILLA, LOTA RAYTON                                     0502
B1901400290000001363188RD PAWNSHOP, INCORPORATED                                1604
A0101400730111195461002JOSE L. DIZON OR                                        10502
A0101400730111195461002JANICE D. DIZON                                         20500
A1901400290000001975288FLORINDA MASAS BARTE                                     0502
A1901400290261606931001VICENTE KEH AFRICA JR.                                   0505
A1901400290261041112001G&G MANPOWER & PROFESSIONAL                             10502
A1901400290261041112001SERVICES                                                20500
A0901400220000002300845LIM, RENEEROSE VESAGAS                                   0502
B0101400150000010164513ALPHA FOXTROT MEDIA INC. DOING BUSINESS                 11610
B0101400150000010164513AS ARTILLERIE ME                                        21600
B0101400150061284390001UPTREND STRATEGIC SERVICES, INC.                         1601
A0101405810000002900961********                                                 0501
B0101405810072011448001C.P.P.C CONSUMER PACKAGING PRODUCT CORP.                 1603
B0101405810072020925003DW PLASTIC CORP.                                         1603
B0601400100081031017001KITA CORPORATION                                         1603
B0601400100000007185266ANGELES FFTH DEVELOPMENT CORP.                           1610
A0601400100081518167001BASA, GOMER PANLILIO                                     0501
B0601400360000013047660CYBER CITY EMPLOYEES MULTIPURPOSE                       11610
B0601400360000013047660COOPERATIVE                                             21600
A0601400360000018710380GATBONTON, SHEERY JAY MANEJE                            10501
A0601400360000018710380DBU AA88 TRADING                                        20500
B0101413730000000469125*******************                                      1601
B0101400730111014312001NGC MEDICAL SPECIALIST CLINIC, INC.                      1610
B5001400170000014063862REAL CREDITS WATERS AND MOTORS, INC                      1601
A5001400170000019232210REGENCIA, MA MANILONA JAMAICA                           10501
A5001400170000019232210DBU                                                     20500
A0101407270000000010106DENIS RICARDO LUCINDO                                    0504
A0101401090000000993400BASAYSAY, LYDIA ANGUSTIA                                 0501
A0101401090000014235042BALOTRO-TORRES, MARIA CRISTINA                           0501
A0101401090171200528001GIOVANNA V. FONTANILLA                                   0502
A0101401090171278999001JANINE MARGARITA R. DIZON                                0501
B0301400790000013577983AGF ELITEGROUP DISTRIBUTION INC.                         1602
B0101401380000000414851REDADO, GLENDA QUEZON AND MALIMBAN, MARK                11601
B0101401380000000414851MENDOZA                                                 21600
A0101401380000018978695NO, CARYL ANN OBISO                                      0501
B0101401380000014548811ELARIS BUILDERS CORP.                                    1603
B0101401380201042553001MUSTANG SECURITY AGENCY, INC.                            1605
A0101412500000019295073TUAZON, RYAN JOSEF DELA CRUZ                             0501
A3101400160000019305052VENANCIO, MONA LIZA CONDES                               0501
A3101400160000019305343APACIONADO, MARY JOCELYN                                10501
A3101400160000019305343DEL VALLE                                               20500
A3101400450223019912001LAGUNA HEALTH SERVICES                                  10510
A3101400450223019912001COOPERATIVE                                             20500
A3101400450000016825053RICAFORTE, JAMIE LEE LEONARDO                            0501
B1001400190000003017789FELIX C. IGCALINOS DBU IFM GENE                         11602
B1001400190000003017789SERVICES                                                21600
B1001400190000016346322SAJULGA, JULIETA BONGCAWIL DBU TRI                       1601
A1001400190231520766119CABANO, BERNADITH CATIWALAAN                             0501
A1001400480000016857360ARANI, MALIK ACHMAD DALIDIG                              0501
A1001400480000011810056NAVAREZ, MARGIE ABASTAS DBU                             10504
A1001400480000011810056MADANO MARKETING                                        20500
B1001400480000019142162INAKARA TRANSPORT CORPORATION                            1601
B1001400480000019142624WOLAND CONSTRUCTION AND DEVELOPMENT                      1601
A1001400480000008501940BALANA JR., RICHARD ZAMAYLA DBU                         10501
A1001400480000008501940RBJ ENTERPRISES                                         20500
A1901400290000018582682SILVA, SHARON BALITAYO                                   0501
A0101406460272377244001ALA, JESSIE ATENTA                                       0502
A0101408660000011998900BALALIO, RICHARD                                         0501
A0101412470000005380729ENGUERRA JR., ROBERTO PORTEZ                             0501
A0101400570000019270103GATCHALIAN, ANDRY SANCHEZ                                0501
A2601400270000017479957PURIFICACION, J DBU J.C.                                10505
A2601400270000017479957PURIFICACION GENERAL MDSE                               20500
A6601400120314668441002MASLOC, SHERRY AMOR GALONO                               0502
A0101405650000000525739RUFA MACABENTA                                           0502
B0101409050000017684774ARKTEK SYSTEM BUILDERS INC.                              1602
B0201400920375035929001UPLAND STOCK FEEDS, INC.                                 1602
A0201400920000016983263PITOGO, ISAGEL FORMENTERA                                0501
B0201400890376821200608**********                                               2001
A0101402930000003179593GAJITOS JR., RODRIGO MAGNO                               0501
A0101408370000011986277LAZARO, JOSEF CARLO NAYAN                                0501
A0101415350000008010437KALINGKING, GRACITA ISABEL                              10501
A0101415350000008010437VILLARMIA                                               20500
B0101402770391009441001ST. ANTHONY HOMEOWNERS' ASSOCIATION INC.                 1602
A0101405490392170286001MARY JANE P. SABILI                                      0502
A0101408400000001952770MERIAN B BUERE                                           0501
A2401400180000002146185SUICO, RENATO PADAL                                      0502
A2401400180000016516671RAMOS, JEREMY OR KING, JOHANNA                           0501
B2401400180411021636002PHILBEST CANNING CORPORATION                             1605
B240140018041103580100321 CENTURY SMOKED FISH CORP.                             1605
B2401400180000000073710MABUHAYONE CORPORATION                                   1602
A2401400180411272640001VICKY M. BOJE                                            0502
A2401400180411478374051SORIA, LEIZEL ASIS                                       0501
B0901400220000006214302DIPZA DEVELOPMENT & AMUSEMENT CORP.                      1601
A5101400100000010370964LAZARITO, OLIVER BRANZUELA DBU                          10510
A5101400100000010370964SAVE ON GASOLINE STATION                                20500
A0101403320000014818654SISA, JOSEPH OLIVER REYLLO DBU                          10501
A0101403320000014818654OYS MARKETING                                           20500
A0101403320471560880001REYNALDO JAMERO SANTIAGO JR.                            10501
A0101403320471560880001OR JOCELYN V. SANTIAGO                                  20500
A0101406330472573170001WILLARD SY GO                                            0504
B1401400110000000167457SUPER MAK FOOD CORPORATION                               1610
A0101403900501456168001TUMAMAO, GEORGINA AQUINO                                 0502
A0101408530516571877194SANCHO, MARIA TERESA R.                                  0501
A0101408530000001268708ZOBEL, JACOBO TRISTAN CARDENAS                           0505
A0101403450000017541954CAPILI, RONALD AMOR                                      0502
B0101403450521011872001**********                                               1601
A0101403450521239535001COBANKIAT, JEFFREY KHO                                   0501
B0101410690000015516948TALA FINANCING PHILIPPINES INC                           1602
A0101404260611478374109ANGELITA SIQUIJOR                                        0501
A0101404260611559253001TAN, SABINA LASALA                                       0506
A0101409890649047047001JOSEPH 101 COMMERCIAL                                    0510
A0101409890000000049089GEMSTAR CLEANING SUPPLIES                               10504
A0101409890000000049089INTERNATIONAL                                           20500
B0101409920000009981862DAVID LIM INT'L. TRADING CORPORATION                     1602
A0101407690000006736496SALLY B. LABIANA                                         0501
B0101411530000006217596VG PINEDA CONSTRUCTION CORPORATION                       1604
A1301400500000000213334MA. THERESA R. RODRIGUEZ                                 0501
A0101408240000012882601MONTESCLAROS, BABY OUIDA RIVERA                          0502
A0101408240000008854457*************                                            0503
A0101408240711383150001AURELIO III OR AURELIO JR.                              10501
A0101408240711383150001OR AARON LITONJU                                        20500
A4101400260000019273573CABO, JAN TUESDAY CHAVEZ                                 0501
A4101400390000012157276AGUSTIN, REYNOLD MEDRANO                                 0502
A4101400390000015067473DIANCO, VON BLESLER BELDIA                               0501
B0101406750000010166662BLANCO, FREDERI DBU FDB2 COURIER SE                      1601
A0101406750852380584002RABE, LEAH                                               0501
A0101405070000005619467GENE DUMILON CALZADO                                     0501
B0101405070861020451001SOUTHEAST TRAVEL CORPORATION                             1605
A0101413860000019294121ANANAYO, MERLY ICMAN                                     0501
A0601400230000010703112RAMIREZ, SALVADOR REYES                                  0502
