B0301400950196821100608**********                                               2006
A0101414090000006211643HAN, JIYOUNG                                             0501
A0101414090000006211650HAN, JIYOUNG                                             0501
A0101409180000003310221HERNANDEZ, RAFAEL ANTONIO E. OR                         10502
A0101409180000003310221HERNANDEZ, MARIA                                        20500
A0101414090000007236519CHAN, GIDEON D DBU WOODEN HOUSE                         10510
A0101414090000007236519DEV'T ENTERPRISES                                       20500
A2001400290000016545290COMILA, SHEILA MAE CALANZA                               0501
A4101400260812478374076MAILYN L. EVASCO                                         0504
A0101400860000008653458**********                                               0503
B0101400860000010683322ZABARTE SERVICENTER INC.                                 1601
A0101400860011382654002**********                                               0505
B0101400860011388376002**********                                               1603
A0101400860000000414122*************                                            0503
A0101400150000005794330TORIO, JOSEPH VINLUAN                                    0501
A0101400150061242841001MA. AURORA ORTIZ  OR                                    10501
A0101400150061242841001MA. AURORA CARLA ORTIZ                                  20500
A0101405810000014656972OCAMPO, REMEDIOS CRUZ                                    0501
B0601400360000000978936THE MEDICAL CITY CLARK, INC.                             1620
A0601400520000017200883PUNSALAN, JOY ANTONETTE SIMON                            0501
A0601400520000017201375QUIZON, TESSA MARIE MANANSALA                            0501
A0601400520000017202334MA, TSCHAI SHUN NA                                       0501
A0601400520000017203382BRYLLE PRECAST AND ARCHITECTURA                          0501
A0601400520000017205704SIGUI, JAYNAR PINEDA                                     0501
A0101413730000013294350*********                                                0502
B0101414090108821100608**********                                               2003
A0101410850000017203968AREOLA, EUNICE MARETH QUEROL                             0501
B0101410850000017144213HUMAN AGGREGATES PHILS. INC.                             1601
B0101410850000000005687METRO MANDAUE SERVICE CORP.                              1605
A0101410850000006560034SEMANA, JUDE                                            10502
A0101410850000006560034DBU SEMANA TRUCK                                        20500
A0101400730000009269452IGUAL, NINA DIZON                                        0503
B0101406040000003547619SEABORNE SHIPPING LINES INC.                             1601
A0101406040112684740001***********                                              0501
B0101401960121238699002SO, PONCIANO CHUA                JT                      1601
A0101401960121238841001**********                                               0501
A0101401960000010787541**********                                               0503
A0101412630000009425463JPEN TRADING                                             0501
B7201400170000003774163MACARIO N. SEPADA OR                                    11605
B7201400170000003774163JUVY P. SEPADA                                          21600
A7201400170000007185900BARBADILLO, ELSIE ALANGCAS                               0501
A7201400170000017194497FONTANILLA, ALMAMEM CABRERA                              0501
B0101400440161022597001PHILMAN POWER CENTER INC.                                1612
A0101407270000004915908LORENZO, TRICIA MARIE SOLANOY                            0501
A0101401090171200699001MARCIA S. CRISTOBAL                                      0505
A0301400790000000435909KASER, NELIDA AREVALO                                    0501
A0301400950000002115151**********                                               0505
A0301400950000005707353MA, BEAUFORD YEE                                         0501
A0301400950000006080359REYSON, JOHN KIM D. OR                                  10502
A0301400950000006080359ABALLE, MEL CHIT                                        20500
A0101401380000000792201HERRERA, OLIVER BAETIONG                                 0501
B0101401380201034271004LC BUILDERS AND DEVELOPERS, INC.                         1604
A0101412500000017185805ARCE-AGUILA, QUENNIE LYNN E.                             0501
A3101400160000014696496CETRA, EVELYN MAGSINO                                    0502
B3101400160000001169295GCDRIVE INDUSTRIAL CORPORATION                           1605
A3001400130000008916003HIDALGO, ELBERT ANTHONY VELOSO                           0502
B3001400130000008264886PIPRIME CORPORATION                                      1610
A3001400130000001261249BANJAO, JENELYN LARA                                     0501
B1001400350233036561001GRAND CITY HOTELS, INC. (NEW DAWN                       11615
B1001400350233036561001PENSIONNE)                                              21600
A1001400350233533309001MARIO JOSE A. SIA / CAGAYAN DE                          10503
A1001400350233533309001ORO HARDWARE AND                                        20500
A1001400350233777505001CESAR, NEMAS ACERA                                       0501
A1301400470000000061463MARIA ELNORA DE GUZMAN DEUS                             10505
A1301400470000000061463OR ANA LIZA VELARDE TAGO                                20500
B1301400470000007862948EASYCASH 777 LENDING CORP.                               1603
A1301400470000003270431CHRISTIAN VINCENT R. SALAZAR                             0502
A1901400290000004366103WONG, GWENDOLYN KU                                       0505
A1901400290261689596001MARY ERNESTINE C COLUMBRES                               0501
B0101406460272047405001ACEBUCHE, E DBU EL ACEBUCHE BUI                          1603
B0101408660274036067001FABRIDUCT AND METAL SYSTEMS, INC.                        1605
A0101410980000005709606LIMKETKAI, GLENN TAN                                     0501
B0101411820000010701229***********                                              1603
B0101412470000014657420COUNTRY CHATEAU HOTELIERS CORP                           1601
A0101400570281344851009CUANANG, JOVEN RACPAN                                    0501
A0501400200292735444001OYAMAN, GENEVIVE ABANDO                                  0505
A2601400270000010433762WHITAKER JR., PHILIP AGGABAO                             0504
B2601400270302045063001ISABELA UNITED DOCTORS MEDICAL                          11620
B2601400270302045063001CENTER, INC.                                            21600
A0801400160311478374106SORILLA, HAYDEE                                          0501
A1101400120000003595977LATORRE, ARCADIO TAN                                     0502
B1101400120000000652982TACLOBAN GLEEN MARKETING, INC.                           1602
A6601400120314615888088FRANCISCO, EMMA OR REYNALDO                             10504
A6601400120314615888088OR CO, ESTELITA                                         20500
B2001400290315044204001ACEBANK CREDIT, INC.                                     1601
B0101405650322006303001GIL'S TRADING                                            1601
A0101402510341196514001JAIME LIM OR CHRISTINA LIM OR                           10501
A0101402510341196514001GINA LIM                                                20500
A0101402510000011695095DE NULLY, CORAZON MORANTE                                0502
A0101402510341433983007********                                                 0505
A0101402060351043801001EMICOR MARKETING                                         0501
A0101409050000011017813EMPLOYEES OF, NTT DATA SERVICES                          0501
B0201400760374047477001MARRO MARKETING CORPORATION                              1601
B0201400920375035545001GSG ARCHITECTS CO.                                       1601
B0201401020000005109900CEBU DULCINEA HOTEL AND SUITES INC.                      1601
A0101408370000000335493DRS.CARYCE EMMA G. JURIDICO OR                          10501
A0101408370000000335493JOHN FELMORE A.JURIDICO                                 20500
A0101408370382485515003MARGUERITHA LOUISE LUCENA OR                            10503
A0101408370382485515003VICTOR MICHAEL LUCENA                                   20500
A0101408790000005251398CARINO, MICHELLE LITAN                                   0501
B0101408790383695043001SEAOIL CORPORATION                                       1602
B0101405490000005196545ZC KINGS MANPOWER AND JANITORIAL                        11605
B0101405490000005196545SERVICES COOP.                                          21600
A0101408400000003515073MAGO, MAYBELLE DELA CRUZ                                 0502
A0101408400000017196802CATUNCAN, MAILA MATUNOG                                  0501
A0101408400394409975001LUZON, MARY JANE DE TORRES                               0501
A0101408950000008554223JUSON, AQUARIUS TAMAYO                                   0502
A0101408950000015585901ENDO, MASAMI MALUBAY                                     0501
A0101409180000001694282VIBAR, MICHELLE ANN MORALES                              0501
A0101409180000017204067ZAUSA, EDIZON MAGDAEL                                    0501
B0101409180000009085263B P S PHILIPPINES, INC.                                  1602
A0101409210000005251781LANSANG, CHERYL JOY VITA OR                             10501
A0101409210000005251781MILAN, KRIS LAWR                                        20500
B0101409210000000031192LSC CORPORATION                                          1602
A5501400120000005492333ARARAL, MILESTONE DAVE ARAGON                            0505
B5501400120410043734003ROTARY CLUB OF MARBEL                                    1601
A2401400180000010066536LGN SERVICES AGENCY                                      0503
B2401400180411056177001MOUNT MATUTUM PETRON SERVICE STATIO                      1601
A2401400180411501589001VALILA, NOL S. OR VALILA, MA.                           10501
A2401400180411501589001LOURDES D.                                              20500
A5101400100000014191567SEGOVIA, GENEVIEVE TERO                                  0501
A5101400100000015856850NEIS, BABY LLYN MENGUITO DBU AL                          0501
B0101403030441464115001**********                                               1601
A0101410140000006015390LOPEZ, DIOSDADO ORDANZA                                  0501
B0101410140000000038913BISHOP OF LIGHTHOUSE BIBLE BAPTIST                       1601
A3801400170000012459080CATIBOG, ZENAIDA OR ACEDERA                             10502
A3801400170000012459080HAZELYN OR CATIBOG REX                                  20500
B3801400170490060790001MINDORO GOLDEN EAGLE DISTRIBUTION CORP                   1615
A1401400110000008266239ABOGADO, CARLOS OCAMPO OR                               10501
A1401400110000008266239ABOGADO, CRISANTA NERA                                  20500
B1401400110000014232372BAYLEN, LARRY DBU WHITE & GOLD REST                      1602
A1401400110492029549002TRIPTORS DIAGNOSTIC CENTRE                               0504
B0101407430503036696001SKY AVIATION LEARNING CENTER, INC.                       1603
B0101407430503042216001HIGH COMMAND AVIATION SECURITY                          11610
B0101407430503042216001SERVICES CORP.                                          21600
A0101403580000000509415RICHARD S. CHUATECO                                      0503
B0101403580511697760002SUNNYBING INTERNATIONAL TRADING                         11605
B0101403580511697760002CORPORATION                                             21600
A0101405940512522504001YU, JONATHAN MARC CHAM OR                               10502
A0101405940512522504001YU, HENRY LEE                                           20500
B0101408530516042275001MEGA MINT LENDING CORP.                                  1601
A2201400250561482174001CATALINA P. BUENO                                        0501
A0101410690000000710741FAJARDO, MARIA RAMONA CANLAS                             0501
A0101404130601622220001PASCUAL, JORDAN SO                                       0501
A0101407720602358398001ELIZABETH D. SERRA-SANTOS                                0502
A0101407720602396826002REMEDIOS G. SUNTAY                                       0501
A0101412180603752998001ESPINOSA, CECILIA COSME                                  0501
A0101404260000003498482EDNA S PLAN JANITORIAL SERVICES                          0503
B01014134400000090067248MANOR 8BINGO8 CORP.                                     1601
B0101414120000004603398WEBLEND INC.                                             1601
A0101406590662034547001F.C. DINO CONSTRUCTION                                   0501
B1301400210000008173911FTC77 CORPORATION                                        1602
B1301400210682043735001BULACAN SPORTS COUNCIL FEDERATION I                      1602
A0101408240000017203786DE JESUS, ANGELITO NEPOMUCENO                           10501
A0101408240000017203786OR SARDEA, LETICIA V.                                   20500
A0101408240711396778001MA. FRANCESCA ROMANA OR                                 10501
A0101408240711396778001PHILIPPE SEYER                                          20500
A2801400100000002253458DATU, FERDINAND BULAONG                                  0502
A4101400260000011417553KIM, KYUNG YEE                                           0502
A4101400260000010623640MANALO, CARMENSITA R. DBU KAY-W                          0501
A4101400260812292364001AMELIA C. VIDALLON                                       0502
A4101400260812387086001NOEL L. HERRERA OR                                      10502
A4101400260812387086001ALICIA N. HERRERA                                       20500
B4101400390000000034022GLOBAGILITY INC.                                         1601
B4101400390000006103559LEAD WITH INTEGRITY AND GOOD GOVERNANCE                 11610
B4101400390000006103559IN HELPING COMMU                                        21600
B4101400390000006103691ALUMIS PHILIPPINES, INC.                                 1603
A4101400420814506413001IBIAS, JOSEPHINE OCAMPO OR                              10501
A4101400420814506413001IBIAS, SEGISMUND                                        20500
A0101412340000003341955SILVEN BASILIO CHUA                                      0501
A0101412340000007396958RALPH OLIVER E. GESMUNDO                                 0501
A0101404840851298552067EMERENCIANA P. BOMBAY &/OR                              10501
A0101404840851298552067JEREMY P. BOMBAY                                        20500
A0101404840851452055002AREVALO, MARITES FAJARDO                                 0503
A0101405070000016659140PRIMITIVA CONDES QUIJANO                                 0502
A0601400230000014299693PANLAQUI, RUBY NAVARRO DBU                              10502
A0601400230000014299693RUBIEL STATIONERY GEN.                                  20500
