B0101401090171821100608**********                                               2004
B0101409500473821100608**********                                               2003
A0101408950396565613001AGCAOILI, MA. DULCE FLORENCE                             0501
B2001400290000000020537LINK RI LOGISTICS INC.                                   1601
A1101400120000000652351YAO, RONALD PHILIP GO                                    0501
A1101400120000001920601MARTINEZ JR., RENATO BARRANTES                           0501
A1101400120000003197277MARTINEZ, RENGIE BARRANTES                               0501
A2001400290000003961579LIM, CINDY VIOLA                                         0502
A0601400520000002085963CANLAPAN, ARNOLD OR                                     10510
A0601400520000002085963CANLAPAN, REBECCA                                       20500
A0301400950000002975002*********                                                0501
A1101400120000003981226HO, EVANGELINE CHU DBU TWINS                            10501
A1101400120000003981226HORIZON ENTERPRISES                                     20500
A2001400290315640426001**************                                           0506
B0101412890000003727924R. ABALOS CONSTRUCTION CO.                               1610
A3801400170000000955040EDWIN C ACOB                                             0501
B0101400860011305536001**********                                               1601
A0101400860011399497002**********                                               0504
A0101400860011520310001**********                                               0501
A0101400860011685746001**********                                               0505
A0101401250021456301001PALILEO, ROSALIE PUNONGBAYAN                             0501
A0101400150061228992001ROBERTO R. TIONG                                         0502
A0101400600000002335786********                                                 0501
A0601400100000005050333PEREGRINO, ARIEL PAMBID                                  0505
A0101410850000003101991COQUIA JR., RODRIGO CARDOZO                              0502
B0101400730111036857001FRC SULO RIVIERA HOTEL CORPORATION                       1606
A0101400730111471051002UY, AMELITA FAJARDO                                      0501
A0101406040112092810001********                                                 0501
B0101401960000000008186GOLDEN WING STAINLESS STEEL CORPORATION                  1602
A5001400170000000214020ARNOCO, MARIETA DIAMANTE                                 0502
A0101400440000000821301TOPCOM CONVENIECE STORE                                  0510
A0101400440161402507001ANNABEL A. LACOSTALES                                    0501
A0101400440161525001103OFELIA B. OLERMO                                         0501
A0101407270000007864940LEONARDO JOSE BERBA                                      0501
A0101407270162333006022REYNALDO E. OCAMPO                                       0502
A0101401090000005320278FERNANDO L. LOPEZ OR ESTRELLITA                         10503
A0101401090000005320278F. LOPEZ                                                20500
A0101401090171196112001DARIO T. GARCIA                                         10501
A0101401090171196112001OR ELSINOR GARCI                                        20500
A0101401090171346433001CLAUDILLO B. BAGADIONG                                   0501
B0301400530193035122088FOUR SEASONS FRUITS CORPORATION                          1612
B0301400530000000025378D' UNIBUENAS CORPORATION                                 1603
A0301400660194084447001MAAY INDOOR AND OUTDOOR LIVING                          10506
A0301400660194084447001CONSTRUCTION                                            20500
B0101401380201034155001TINOLEY DIGITAL PHOTOGRAPHY INC.                         1605
A0101410720653385187001SERVILLANO H. GALVEZ JR. OR                             10504
A0101410720653385187001KAREN F. GALVEZ                                         20500
B0101413600000000206755******                                                   1601
A3101400160221356270002RONALD J. PUA                                            0502
A3101400160221529439001ESTELLA MARIE M RAMIREZ                                  0502
A3101400160221675534001PIUS WESLEY F. QUIAMBAO                                  0501
B3001400130000003434671CORONET WOOD INDUSTRIES, INCORPORAT                      1615
B1001400190000000016366CAREWELL BIO-MEDICAL SYSTEMS CO.                         1605
A1001400190000002266691JAKOSALEM, VIRGILIO TORRALBA                            10502
A1001400190000002266691DBU VIPER MARKETING                                     20500
A1001400190231446795001******                                                   0501
A1001400190000000124803FANTONIAL, MERILY H.                                     0501
B1001400350233013980001VIC IMPERIAL APPLIANCE CORP.                             1603
A1301400470252458486001ZENAIDA TAN CHUA OR JESSE                               10501
A1301400470252458486001ALLAN CHUA OR ANGELO CHUA                               20500
A1301400470252518432001*************                                            0510
A1901400290000001362954WILLIE AMBAL MERCADO                                     0501
A1901400290000001926274GIRLIDIA SANCHEZ PANALIGAN OR                           10503
A1901400290000001926274RODOLFO MARANAN PANALIGAN                               20500
B1901400290261012598001PROVIDENT PLANS INTERNATIONAL                            1601
B1901400290261034056002DIVINE LOVE GENERAL HOSPITAL INC.                        1605
A1901400290261057642002CUENCA, NINA ANGELINA TANCHANCO                         10502
A1901400290261057642002DBU CUENCA JEWELRY                                      20500
A1901400290261298552105AIDA NABOS REYES                                         0501
A1901400290261390520001JOEL PUNZALAN DIMAANO                                    0502
B0101406460000001231634INTELLISERVE TRADING INCORPORATED                        1604
B0101406460000001231667INTELLISERVE TRADING INCORPORATED                        1602
A0101411820000000477258MA. SALLY A. OROCIO                                      0502
A0101411240000005136458PAMITTAN, JAICE LEMUEL OBISPO D                          0502
B2601400270000000020639IGNACIO DATU OR WILMA DATU                               1610
A2601400270000002257241GLOVELYN J. RILLERA                                      0501
B0801400160000000010260ILOILO SUPERMART, INC.                                   1601
A6601400120000003672866APULI, ALMA JEPOLLO                                      0502
A6601400120314042058007CHEERS TRADING                                           0505
A6601400120314613263008ORTIZ, JUAN M. OR ORTIZ, MYRNA                          10505
A6601400120314613263008ORTIZ JR., JUAN                                         20500
A0101402350321618569001DAMASO, GLORIA SANCHEZ                                   0502
A0101402510000001975062LIM, WILISON C. OR                                      10501
A0101402510000001975062BUMANLAG, MARY S                                        20500
B0101402060351009369003POLYMER PRODUCTS PHILS., INC.                            1601
B0101402060351009369004POLYMER PRODUCTS PHILS., INC.                            1601
B0101402060351009369005POLYMER PRODUCTS PHILS., INC.                            1601
B0101402060351009369006POLYMER PRODUCTS PHILS., INC.                            1601
A0101408370000002264193OCAMPO, VANESSA RUMBAOA                                  0501
A0101408790383671821001ELLEN BALING MENDOZA                                     0501
A0101402770000005324505PILAPIL, JOHN GABRIEL AQUINO                             0501
B0101402770391026091001MARYMOUNT DEVELOPMENT CORP.                              1601
A0101402770000001841094BLANQUISCO, JEFFREY TUAZON DBU                          10505
A0101402770000001841094JT BLANQUISCO TRADING                                   20500
A0101402770391355762074RONALDO N. ESGUERRA                                      0501
A0101402770391384756001AKERS, ROGER DEAN OR                                    10501
A0101402770391384756001AKERS, TAMRA KAY                                        20500
A0101402770000006812531AKERS, ROGER DEAN OR                                    10501
A0101402770000006812531AKERS, TAMRA KAY                                        20500
B0101405490000000355628SYMBIOSYSTEM FOOD INTERNATIONAL TRADING                  1601
A0101405490392510652001ENCARNACION M. GOLDING                                   0501
A0101405490392552022001MARIA THERESA D SOLIS OR                                10501
A0101405490392552022001BENJAMIN D.SOLIS                                        20500
B0101408400394025834001TRELLIS RESTAURANT, INC.                                 1605
A0101408400394639219001ROMERO, FRANCISCO GABION                                 0502
A0101409180000004375406OLGA JEAN T. YOINGCO                                     0501
A0301400820000000024820FERNANDEZ, MILCA B. OR                                  10503
A0301400820000000024820FERNANDEZ, MODECRIS B.                                  20500
A5501400120000002019158SUPERIO, MERLYN G. DBU DIAMOND                          10505
A5501400120000002019158MEMORIAL CARE SA                                        20500
A0901400220000000012313**********                                               0510
A0101403030441235734001WILLAN E DAVID OR GRACE A DAVID                          0501
A0101403030441344484001**********                                               0504
A0501400170481359894002CARRANZA, EDITHA RETORIO OR                             10501
A0501400170481359894002BARLAAN, BESSIE                                         20500
B1901400160491046052001BANAPRA DEVELOPMENT COOPERATIVE                          1603
B0101407430503033971001ENVIROTEK RESOURCE RECOVERY CENTER INC.                  1601
B0101403580511005143001INTERPACIFIC TRANSIT, INC.                               1610
B0101403580511023341003PAMAHAY DEVELOPMENT CORPORATION                          1601
A0101403580000000016082SWEET BELLA DESSERTS                                     0510
A0101403580511150629008MIRIAM HIPOLITO OR RAMONA PENA                          10501
A0101403580511150629008OR GERALDINE LIMOSNERO                                  20500
A0101403580000005961931VERA, RUFIA DOROTHY C.                                   0502
B0101403580511575114002TIGER 22 MEDIA CORPORATION                               1610
B0101406880513039126002BLUE MAGNET MARKETING SOLUTIONS INC                      1602
B0101408110515035516001JJED PHILS. INC.                                         1602
A0101408530000002980972PEREA, JOHN RICHARD PEREZ                                0501
A0101408530000008161460ABELARDE, DENVER DALIPE                                  0501
A0101408530000008161539BAUTISTA, VERNEY GAVRIL CALALO                           0501
A0101408530000008161573BERNARDO, JOSE CARLOS MOPERA                             0501
A0101408530000008161608DELA CRUZ, DARWIN JOSEPH LIBUTA                          0501
A0101408530000008161631GUERRERO, REYMAR CLABESILLAS                             0501
A0101408530000008161642GUITARTE, ERIKA HASPE                                    0501
A0101408530000008161682VILLADOLID, JOYCE MANZANARES                             0501
A0101408530000008161722ABROGENA, ALVIN ALDRICH CORONEL                          0501
A0101408530000008161740GO, TIFFANY SY                                           0501
B0101403450521011910001KITCHEN BEAUTY MARKETING                                 1605
A2201400250561253929002BENJAMIN DAVID CUDAL                                     0501
B0101410690000000710785JA FARMS ASIA-PACIFIC, INC.                              1610
B0101404130000005961982IMALVAR REALTY CORPORATION                               1602
B0101407720602031597001A.F. NAVARRETE AND PARTNERS CO.                          1601
A0101407720602504234001STA. MARIA, ARLENE CEDILLA                               0502
A0101409920000001951982MEMBERS OF NATASHA (SHOECAT INC                         10501
A0101409920000001951982TORRELIZA, GINA                                         20500
A0101407690000000914061MERJUDIO, EDNA PANGAN                                    0501
A0101407690000002348832ALUNDAY, TERESITA AREVALO                                0501
B0101407690652017362001IGLESIA NI CRISTO                                        1620
A0101407690652034806001BROWNFLY COMMERCIAL                                      0504
A0101407690652399727002QUIAMCO, CONSOLACION GIVA                                0501
A0101407690652490677001CASTILLO, ROMELA LINA                                    0501
A0101407690000000913586BASTIDA, MARICAR - DEALERS OF                           10501
A0101407690000000913586SHOECAT INC.                                            20500
A0101407690652678597001HERRERA, ALICIA ARCEO                                    0501
A0101407690652768531001CORAZON DE LEON OR JOSE DE LEON                         10505
A0101407690652768531001OR JOSEFA RICASA                                        20500
A0101414120000002172618JOANNA MICHELLE Y. TAGORDA                               0501
A0101414120000003584230LANDAZABAL, ANNABELLE MOSTRALES                          0502
A0101406590000000568930JOSE, EMMANUEL NOEL MARAVILLA                            0502
A0101406590662478374006CATIMBANG, MARILOU E.                                    0501
B0101406590662639224001CURRENTCONCEPTS INC.                                     1603
A0101410300000006278419TAN, HANS GARCIA                                         0501
A1301400500000001412388GERONIMO G. QUIZA JR. OR                                10501
A1301400500000001412388MA ROSELLE P. QUIZA                                     20500
A0101408240711398939001FERNANDEZ, CHARLES HESED P. JT                           0503
A0101408240711490981001MILLS, AMPARO OR VICENTE JR.                             0501
A2801400100000006977373SERATO JR., FELICISIMO LAUDE                             0501
A4101400260000000048742EUSEBIO, ANTHONY DBU                                    10501
A4101400260000000048742APE CONSTRUCTION                                        20500
B4101400390000006103537KRATOS TECHNITES CORPORATION                             1602
A0101404840851478374115ERLINDA O. PRADO                                         0501
B0101405070861008460004STARS TRAVEL INCORPORATED                                1602
B0601400490890821100608**********                                               2001
B0601400490890821200608**********                                               2001
A0601400230000003015823ALURA, JIMMY SUENO                                      10502
A0601400230000003015823OR ALURA, MERLE                                         20500
