F1901400290261023233002K & K CENTRAL MOLD INC.                                  2610CKR
F1901400290261038949001DR PAULINO O POLINTAN JR                                 2501CKO
F0101402060351018863002FIRST PHIL. SKILLS & EQUIPMENT                          12605CKR
F0101402060351018863002TESTING CORP.                                           22600CKR
F0201400210000003470933PRINSAYAS CORPORATION                                    2601CK1
F0101405490392411548001CHARIT0 I. UMALI OR                                     12504CKO
F0101405490392411548001ANTONIO M. UMALI                                        22500CKO
F3101400580452029890001SIMUNDAC CALTEX SERVICE STATION                          2601CKR
F0101405940512030891002SOLID GROUP INC.                                         2605CKR
F0101406880513030105001HEINDRICH TRADING CORPORATION                            2610CKO
F0101405100571036688001ALL COUNTS TRANSPORT SERVICES                           12602CKR
F0101405100571036688001CORPORATION                                             22600CKR
F1301400210682306066002JUANITA CABRERA OR ANTONIO                              12501CKO
F1301400210682306066002CABRERA OR JAYNI                                        22500CKO
F0101404840000006365119BUSSBARR CORPORATION                                     2601CK1
F0101405070861020884003FORMTECH BUILDERS CORPORATION                            2703CKC
