A0101410850000000005790OCHOA, MELONA ALBIS                                      0504
A0101406590000000035481EVELYN D. MASCARINAS                                     0502
A0101408400000000077941LAUREAN PLANTS & FLOWERS SHOP                            0502
A1001400480000000133360ALL TRIO TRADING                                         0503
A0101413440000000183771AMBAS, ARVEE CALLOS                                      0502
A4101400550000000315062SUSON, STEVEN OGABANG                                    0501
A0101405490000000444313BENITO M. LOJO                                           0503
A0101405490000000444400TEODORA A. VICTORIA                                      0501
A0101411110000000604880**********                                               0502
A1101400120000000652351YAO, RONALD PHILIP GO                                    0501
A1101400120000000652380CAYUBIT JR., SERAFIN ASERON                              0502
A0101400730000000833192GLEN T. NIOKO                                            0502
A0301400820000001006693ALERTA, PRINCESS J F.                                    0501
A0301400530000001009943PANTUA, JERSON R.                                        0501
A0101412890000001056228**********                                               0501
A0101402930000001445432RAGO, SIMONETTE DELOS REYES                              0501
A0101403450000001638075ACUNA, TERESITA CABRERA                                  0504
A0101403320000001646926CLIDORO, GERDIE BARCELON                                 0501
A0101406620000001686893MALLILLIN, FRANCIS MEL GONZALEZ                          0501
A0101403450000001769800************                                             0501
A0101412630000001823365MUNCADA, JOSEPHINE SO                                    0505
A0601400520000002085850ALBROS CARGO                                             0501
A2401400180000002284186**********                                               0505
A0101401380000002297469GALLARDO JR., CESAR MAYORALGO                            0502
A0101407560000002307626LIBO, JANELLE BUYO                                       0501
A0101402640000002349522ATIENZA CONSTRUCTION SUPPLY                              0504
A0601400230000002650120CAO, MARIA THERESA TUBIG                                 0502
A2601400270000002677547MILA R. VALDEZ                                           0503
A0101402480000002975433***************                                          0501
A0101404840000003069834***********                                              0502
A0101405490000003178363CHESTER T. SANTOS                                        0502
A0101413570000003380009FAH, MARIA ISABELITA DE GUZMAN                           0501
A0101412340000004360536MARY ANGELA C. QUERUBIN                                  0501
A0101400860011235593001**********                                               0501
A0101400860011428673001**********                                               0502
A0101400860011705520001**********                                               0503
A0101401250021185179001CABRERA, ZENAIDA SANTOS                                  0501
A0101401700041027284001**********                                               0502
A0101400150061230957005ZABALETA, JOSE MARIA TARAGABULL                          0505
A0101401090171196008001JESUS OR AMELIA POBLETE                                  0502
A0101407140213190859001**********                                               0501
A0101407140213193258001**********                                               0501
A3001400130230478374006SALAS, SEZIEL GENER                                      0501
A3001400130230700871001MUNOZ, BALTAZARA ESCATRON                                0501
A1301400470252482273001DRA. LEONOR J. DIZON                                     0501
A0101400570281388539043**********                                               0502
A1101400120313478374113BAJO, MA. GEMINI CATALOGO                                0503
A0101408820333478374062SANDRA G. BUENO                                          0501
A0101408820333494919001MA. JOCELYN REMANES                                      0501
A0101402060351365104002VILLANUEVA, ELSA ROMEA                                   0501
A0101408370382205368001DR. EDGARDO R. SAN JUAN                                  0504
A0101408370382381086001TULOD, LUZVIMINDA MUNCAL                                 0501
A0101405490392034892001JABEZTECH TRADING                                        0505
A1201400150421790666001ANG, AILEEN LIM                                          0502
A0101403030441239172002**********                                               0501
A0101403030441401301003**********                                               0501
A3801400170490767277001GERALDINE PACO VIVERO                                    0502
A0101408110515679547002************                                             0502
A0101408530516578215021MARIA GERALDINE L. DELA VEGA                             0502
A0101403450521282364001**********                                               0502
A0101407720602543599001PIZARRO, MARILOU DE GUZMAN                               0501
A0101404420631478374072FELY UGDORACION                                          0501
A0101404680651079362001PHOEBELYN M. ALAESTANTE                                  0502
A0101404680651639903001BAUTISTA, ANNIGAILE KRIS BAUTIS                          0505
A0101408240711420342001SONIA TERESITA HENDERSON                                 0503
A4101400260812478374031ANGELINA P. TAN                                          0501
A4101400420814456030002AGELLON, LILY RADY AGUINALDO                             0501
A4101400550815713341001MICHELLE R. PALILEO                                      0501
A0101412340850084759001ESTHER N. HAM                                            0501
A0101404840851520766073ELIZABETH A. SUAZO                                       0501
A0101406750852728177001GARCIA, MARITESS DELA CRUZ                               0501
A0101405070861478374086MARLYN C. GABEST                                         0502
A0601400230891471229001LOLITA C. CRUZ                                           0501
A0101408370000000335584DR. MARIA KAISERIN J.                                   10502
A0101405490000000355719CRISTOBAL, IMMANUEL C. OR                               10501
A1601400170000000421190JOHN F. TORROCHA OR                                     10501
A0101402060000000562098HERNANDEZ,  DBU CHEMDENT                                10505
A1101400120000000652620GO, COCAINE Y. OR                                       10502
A2601400270000001009192RICHELLE ANN P. PIEDAD AND                              10501
A0101405940000001534338LUIG, ISABEL DBU ESOLIMAN INTE-                         10502
A0101403320000001803390MELQUIADES D. ADEA OR                                   10501
A0101401090000002358687COCUACO, LOURDES DY OR                                  10503
A0101411370022791173001RAMCHANDANI, MURLI OR NISHA OR                          10501
A0101400150061632464002ANGELES, TERESITO AND LADEZA,                           10502
A0101400730111478374112STO DOMINGO, CONSTANCIA                                 10501
A0101401830141057463001POLANCOS, JAY-AR PERALTA DBU                            10501
A1301400470252428703001FERDINAND S. PUNO OR                                    10502
A0101400570281739506001JOHN CLAUDE S. CABREROS OR                              10502
A0201400890376633154003JIMENEZ, PETER UTLANG OR                                10502
A0101408370382663801001DRS. RICARDO G. ROCO OR                                 10502
A0101407430503225389002BRIAN A. PINEDA OR                                      10501
A0101405940512157443001CECILIA B. WYSON OR                                     10501
A0101404130601450094003LORQUEL PASCUAL OR ANNIE                                10502
A0101407720602166527002ALIPIO ABAD JR. OR ADORACION                            10505
A0101408240711396778001MA. FRANCESCA ROMANA OR                                 10501
A0101406750852547351001SISO, JACKSON P. OR                                     10502
A0101405070861035394088AMITY SATELLITE SYSTEMS,                                10512
A0101405070861197518001RICARDO G. CHAN OR                                      10505
A0101408370000000335584SANTOS-LIPANA                                           20500
A0101405490000000355719CRISTINA C. OR LIBRADO                                  20500
A1601400170000000421190ROCHELLE A. TORROCHA                                    20500
A0101402060000000562098INDUSTRIAL TRADING & SERV                               20500
A1101400120000000652620GO, NICHOLAS JAS                                        20500
A2601400270000001009192DIOSA MAY T. TACUSALME                                  20500
A0101405940000001534338GRATED SECURITY SERVICES                                20500
A0101403320000001803390SONIA D. ADEA                                           20500
A0101401090000002358687COCUACO, PHOEBE JEAN                                    20500
A0101411370022791173001SAHIJWANI,BHAVANA OR KAPI                               20500
A0101400150061632464002AMON AND DAGDAYA                                        20500
A0101400730111478374112CHARLENE                                                20500
A0101401830141057463001VISTA ADVERTISING                                       20500
A1301400470252428703001BABELET E. PUNO                                         20500
A0101400570281739506001HERBERT R. FERAN                                        20500
A0201400890376633154003JIMENEZ, MARIA T                                        20500
A0101408370382663801001URSULA V. ROCO                                          20500
A0101407430503225389002MA. ELENA G. ARAGON                                     20500
A0101405940512157443001ROBERT T. WYSON                                         20500
A0101404130601450094003PASCUAL                                                 20500
A0101407720602166527002OR ANABELLE ABAD                                        20500
A0101408240711396778001PHILIPPE SEYER                                          20500
A0101406750852547351001SISO, CRISTINA E                                        20500
A0101405070861035394088INCORPORATED                                            20500
A0101405070861197518001OLIMPIA C. CHAN                                         20500
B0101404130000000001281ALS MARINE CENTER CORPORATION                            1602
B0101411790000000005318REM BUILDERS CORPORATION                                 1602
B0101412890000000007007CREATIVE FILES INC.                                      1606
B0801400160000000010231RD CASH PADALA, INC.                                     1602
B0101408110000000016691CASUAL CLOTHING RETAILERS, INC.                          1610
B0101412500000000041750FAITH BAPTIST CHURCH INC.                                1605
B0101402480000000045667*************                                            1601
B3001400130000000067241BUTUAN BRAKE CENTER SALES CORPORATION                    1604
B1601400170000000497030GLOBALINK NETWORK INTERFACE INC.                         1605
B0101400730000001216379THE PREMIERE INSURANCE & SURETY CORP.                    1605
B0101413310000001928834MONTEROZZA RITZ FOOD CORP.                               1602
B0101401700000003073992M2 AUTO PARTS CENTER INC.                                1610
B0101405490000003905184PALMA, H DBU NORTHSHORE HARDWARE JT                      1606
B0101401380000003954450RASRI MARKETING, INC.                                    1605
B1001400190231038390001MC SHIPPING CORPORATION                                  1602
B1101400120313036429001PERPETUAL HELP MULTI-PURPOSE COOPERATIVE                 1602
B0101402930381663126001CHUVANESS, INC.                                          1602
B0101408790383048137001FLEXCOMM INNOVATIONS INC.                                1602
B0101409180397024361001ASALUS CORPORATION                                       1602
B0101403030441021825002**********                                               1601
B0501400170481038907001JODERON AUTO SUPPLY                                      1605
B0101407430503036696001SKY AVIATION LEARNING CENTER, INC.                       1603
B0101405940512037554001THE COVENANT CAR COMPANY, INC.                           1603
B2201400250561041156008COLINTAN CORPORATION                                     1601
B0101401830000000033649CARITAS SALVE CREDIT COOPERATIVE-                       11603
B1001400350000000244233CELLONA, JOSETTE MERCEDES AND                           11601
B0101402060000000653827EUSTYLE OF LINES, SOLUTIONS AND ARTS                    11601
B0601400520000001349719KELVIN MAGTOTO DBU CALULUT CONVENIENCE                  11603
B0101401830141008916001PRIMARY ELECTRICAL & ELECTRONIC                         11603
B3101400740224041741001CASA DEL NINO MONTESSORI SCHOOL CIUDAD                  11602
B0101404260611042763001ACJEM INDUSTRIAL MANPOWER & GEN.                        11604
B0101407560686006390003METROVILLA CENTRE VILLAGE HOMEOWNERS                    11610
B0101401830000000033649PASAY (009)                                             21600
B1001400350000000244233GIMENES, GARETH                                         21600
B0101402060000000653827(E.L.S.A), INC.                                         21600
B0601400520000001349719STORE                                                   21600
B0101401830141008916001SUPPLY, INC.                                            21600
B3101400740224041741001DE CALAMBA, INC.                                        21600
B0101404260611042763001SERVICES, INC.                                          21600
B0101407560686006390003ASSOCIATION, INC                                        21600
B2001400290315821100608**********                                               2005
