A4101400390000000034073NELLA O. MERCADO                                         0501
A0101411790000000039358RANGAS, ADILYN VILLARMIA                                 0502
A0101400150000000052924UY, RICHARD SHEUNG TAT                                   0501
A0201401020000000056313JALLORINA, JOEY AMOLADOR                                 0501
A0201401020000000056324GRANZON JR., FILEMON CANETE                              0502
A0101408400000000077941LAUREAN PLANTS & FLOWERS SHOP                            0502
A0101413150000000082631******                                                   0502
A4101400420000000120696CARMELA G. ROMA                                          0501
A1001400190000000124832LIGTAS, ELSA D.                                          0501
A0101401670000000237687GINETE, MARITES CRUZ                                     0502
A1901400160000000243690PRUDENCIO AGUILA MENDOZA                                 0501
A0101408240000000347528RAFAEL, JOSE JAVIER PAY                                  0501
A0101400860000000414111**********                                               0501
A0101403320000000452220************                                             0501
A0101408950000000472980CABALUNA, NELSON DY                                      0502
A0101410140000000499407EDORIA, MLE VALVE ENTERPRISE                             0502
A2601400270000000561642ROMINA FRANCESCA C. MOLINA                               0501
A0101408790000000579244FABIAN, JESUS DIOSDADO LAGAZO                            0502
A0101408790000000579795BMS LAMPS DECORS & SUPPLIES                              0503
A0101410850000000844684POSADAS, RHEA-ANN MUNAR                                  0501
A0101413310000001073603MANGAO, DAIANA ROSE MASALUNGA                            0503
A0101413310000001073701PENAFLORIDA, ALEX TASIN                                  0501
A0101410140000001074971ESMAN, WINIE CRUZ                                        0501
A0101413730000001253263****************                                         0503
A3001400130000001271352MONTECLARO, JOSEPHINE VILLAROSA                          0501
A4101400550000001332405RIVERA, ROSALINDA LOVERIA                                0502
A0601400100000001442791MANDAP, LARRY CORTEZ DBU LC MAN                          0501
A0301400820000001554649HAGUIMIT, AILEEN C.                                      0501
A0101404260000001725424ONG, J DBU ASCONA ENTERPRISE                             0501
A0101402480000001927802***********                                              0501
A2401400180000001935913PERALES, EVARISTO TAN                                    0501
A2401400180000001935953GHOLAMALIAN, HAYDELIA FRANCISCO                          0501
A1001400190000002681752CAPUYAN, TEODORICO BATUCAN                               0501
A0101400860011393144002**********                                               0505
A0101400860011395673001**********                                               0506
A0101400860011425148001**********                                               0502
A0101400860011494800001**********                                               0505
A0101400860011610276001**********                                               0504
A0101400860011661386001**********                                               0502
A0101400150061229814002LEONCIO C. LIM                                           0501
A0101400150061327950002TORRIJOS, ABDULIA ESPIRITU                               0502
A0101400150061379081001SIMON, CHRISTINE MARIE BISCOCHO                          0501
A0101400150061413413001DULAY, CARLYN THERESE XAVIER                             0501
A0101400150061458294001AGUILAR, NORA VILLANUEVA                                 0501
A0101400150061512334001*************                                            0501
A0101401960121311963002**********                                               0502
A0101401090171322573001DR. PORSHIA COMES-NATIVIDAD                              0501
A0101401380201179684001ANTONIA C. CUNETA                                        0505
A0101401380201397314002ONG, JERRY ANG                                           0505
A0101401380201478374011ELNA O. GALAROZA                                         0503
A0101408660274511572001VIRREY, WINDA LUBIAN                                     0501
A6601400120314044682001QUINNREEVE'S MOTORCYCLE PARTS                            0502
A6601400120314618083088PORAQUE, JULIO TAN                                       0501
A0101402480331218887088*********                                                0502
A0101402480331467250001*********                                                0502
A0101402480331478374109CARABBACAN, SALLY                                        0502
A0101402480331520766046NUNEZ, EVANGELINE                                        0501
A0101402480331520766055*******************************                          0501
A0101402480331559512001*********                                                0502
A0101408820333158627001MANALANSAN, JUANITO S.                                   0505
A0101408820333658205001CARIAGA, MICHAEL GALLA                                   0501
A0101402510341625399001GELERA, TITO SOLIS                                       0501
A0101408370382420020001DR. MARIA VICTORIA V. TANGCO                             0502
A0101408790383242406001KAW, ALEXANDER OR KAW, JENNIFER                          0502
A0101408790383698570001*****                                                    0501
A0101402770391355762053ALFIE VIADO                                              0501
A0101402770391541324001JUANA Q. MUNCADA                                         0501
A0101408400394037647001FRIAS WATER STATION                                      0502
A0101408400394310823004QUIZON, VIRGINIA RAYMUNDO                                0502
A0101408400394403028001****                                                     0502
A0101408400394410835001ARABIA, FORTUNE GAY SANTOS                               0502
A0101408400394485507001QUITORIANO, GEORGE OMER DENIS S                          0505
A0101408400394539659001**********                                               0502
A0101408400394587038001OBILLO, SARA ANGELES                                     0501
A0101408400394650593001PACALUNDO, ANSARY ALIPO                                  0501
A0101412210399094817016MARTIN G. ZAMORA                                         0504
A0101403320471044014002CELEBRITEA BEVERAGE                                      0502
A0101403320471534421001MICHAEL JOHN A. BAGALAY                                  0502
A0501400170481365467003CALLANTA, JOHN SORIANO                                   0505
A1901400160491366464001ANA MARIA H BALMES                                       0501
A2201400250561253929002BENJAMIN DAVID CUDAL                                     0501
A2201400250561398603001ARLENE HALILI JIMENEZ                                    0502
A0101407720602378666002FILOTEO CERENO FERRER                                    0502
A0101404260611340122001SYQUIMSIAM JR., JOSIAS ESPINOLA                          0501
A0101404260611581422001FILIO, MARIEL PEREZ                                      0501
A0101404420631478374024ROWENA PEPANO                                            0501
A1301400340683245916001GARCIA, CRISTINA GALLEGO                                 0501
A1701400230693711027001AGUSTIN, FERDINAND MENOR                                 0501
A4101400420814478374122AGUILO, RODENA T.                                        0501
A0101404840851046725009MONINA G SAN JUAN                                        0501
A0101404840851410953062RUIZ, MARIEVIC                                           0502
A0101406750852520766001EHINA, PIEDAD VELASCO                                    0501
A0601400230891673477002GERONIMO, ERIC JUDE MENDOZA                              0501
A0101410690000000001758IGNACIO, JONATHAN DBU JCJ                               10502
A0101402060000000358725SAN JUAN, ANDREA C. OR SAN JUAN                         10501
A0101402060000000358747SAN JUAN, ANDREA C. OR                                  10501
A0101402060000000358758SAN JUAN, ANDREA C. OR                                  10501
A0101409180000001694271LARRAZABAL, MARIA VICTORIA                              10501
A0601400520000001706918NAGUIT JR., JOSEFINO F. OR                              10505
A0101408400000001981564ECO-TECH OPTION DESIGN                                  10501
A0101401250021040561001WOODROSE HEALTHCARE MARKETING                           10505
A0101408370382391439001EDREN S. MONTERDE OR                                    10503
A0101408370382622435001JORGE C. GREGORIO OR                                    10503
A0101411660384047607001QUEEN'S LAIR HAIR CARE AND                              10503
A5501400120410636179118CHIU, VALENTIN & JULIA EILEEN                           10501
A0101403320471463722001ARMANDO DACANAY                                         10501
A1901400160491422212001OLIVER B BORILLO OR                                     10502
A0101408530516471293001CALICDAN, ENRIQUE S. OR                                 10501
A0101407720602399337001MARIO BENITO F. BAUTISTA                                10502
A0101408240711228456002MA. VICTORIA MANIQUIS                                   10502
A4101400420814304997002ABAD, EVELINA OR ALVIN VINCENT                          10503
A0101404840851298552067EMERENCIANA P. BOMBAY &/OR                              10501
A0601400230891738531001CHUA, MARK ANTHONY GARCHITORENA                         10502
A0101410690000000001758MANAGEMENT SERVICES                                     20500
A0101402060000000358725CARLA LORRAINE CALIWAG                                  20500
A0101402060000000358747SAN JUAN, ADRIAN C.                                     20500
A0101402060000000358758SAN JUAN, ALBERT C.                                     20500
A0101409180000001694271MORENO                                                  20500
A0601400520000001706918NAGUIT, MHELODIE O.                                     20500
A0101408400000001981564AND BUILD                                               20500
A0101401250021040561001SERVICES                                                20500
A0101408370382391439001LORNA O. MONTERDE                                       20500
A0101408370382622435001LISA CORAZON R. GREGORIO                                20500
A0101411660384047607001BEAUTY SALON                                            20500
A5501400120410636179118& CHRISTIAN & CHRISTEL                                  20500
A0101403320471463722001OR ALONA DACANAY                                        20500
A1901400160491422212001MARIBEL C BORILLO                                       20500
A0101408530516471293001CALICDAN, FLORIT                                        20500
A0101407720602399337001OR JOSEPHINE L. BAUTISTA                                20500
A0101408240711228456002OR STEVE MANIQUIS                                       20500
A4101400420814304997002OR CHRISTINE MAR                                        20500
A0101404840851298552067JEREMY P. BOMBAY                                        20500
A0601400230891738531001TAYAO, GILBERT A                                        20500
B1301400210000000023543SAN PABLO LIAM FOODS CORPORATION                         1603
B0101409210000000031238******                                                   1615
B0601400100000000032806BLU BLAZE GAZ HAUS                                       1602
B0101413020000000038333WORLD STAR MARKETING                                     1602
B0601400520000000398534KHEINE E-SERVICES INC.                                   1601
B0101405650000000772834MIFFI LOGISTICS CO. INC.                                 1605
B0101402480000000794390**********                                               1601
B0101412050000000890933ACI PHARMA INC.                                          1603
B0101412470000000949555OPENSIDE INC.                                            1601
B0101412180000001292991RELL'S AGRI AND TRADING CORPORATION                      1601
B0101402480000001562027************                                             1610
B0101402480000001927482******                                                   1601
B0101402480000001927551ALORA'S HEAVY EQUIPMENT PARTS SUPPLY                     1603
B0101400860011305536001**********                                               1601
B0101401960121037354001METRODORM ARRANQUE CORPORATION                           1605
B0101401960121240767001PRESTIGE INDUSTRIAL SUPPLY INC.                          1602
B0101401380201034247001HOBBIES OF ASIA INC.                                     1604
B3101400160221032914001AARON EAGLE SECURITY AND INVESTIGAT                      1604
B0101401670271477778001VIRTUSIO PR INTERNATIONAL, INC.                          1601
B0101402480331010240002*****************                                        1610
B0101402480331017763001**********                                               1601
B0101402480331033074002CAGAYAN VALLEY INDUSTRIES                                1604
B0101402480331033229003TGP DRUGSTORE                                            1603
B0101402480331033229008TGP DRUGSTORE                                            1603
B0101402480331033229010TGP DRUGSTORE                                            1603
B0101402480331033229025TGP DRUGSTORE                                            1603
B0101402480331033229033TGP DRUGSTORE                                            1603
B0101402480331220021001**********                                               1610
B0101402480331300895002********                                                 1603
B0101402510341037808001FAIR ALL MARKETING                                       1602
B0101405490392006286002LENDING INVESTORS NETWORK, INC.                          1601
B0101405490392332339001**********                                               1603
B0101408400394028489001KING'S HOLLY, INC.                                       1601
B0101403030441238962002**********                                               1602
B0101405940512018341001C.B. ANDREW PHILIPPINES INC                              1610
B0101405940512023235001LIKAS YAMAN SERVICE CORP.                                1602
B1301400500684037591001UPLIFT PHILIPPINES, INC.,                                1605
B0101406750852041203004AUTOCIRCULO CORP.                                        1610
B0101401250000000460575RACELIS, F DBU COLORADO                                 11602
B0101408790000000599880HANSTON COMMERCIAL AND INDUSTRIAL                       11601
B0101408240000000832928PREACHING AND TEACHING HEALING MISSION                  11601
B0101412470000000949500NEIL KENDRICK SY AND ANNE CHUA AND                      11601
B6601400120314043609004FUNDACION GRAMEEN PILIPINAS INC.                        11605
B0101402770391009705002VICTORIA VALLEY CONDOMINIUM INTEGRATED                  11601
B0101403320471022984002UNITED ARCHITECTS OF THE                                11601
B0101403320471031382001ORAL CONFIDENCE ORTHO-DENTAL                            11605
B0101410140475045534001J-BREN STAR CORP. DOING BUSINESS UNDER                  11602
B0101401250000000460575PRINTING PRESS                                          21600
B0101408790000000599880CORPORATION                                             21600
B0101408240000000832928INC.                                                    21600
B0101412470000000949500LESLIE TAN                                              21600
B6601400120314043609004CATARMAN 2 BR.                                          21600
B0101402770391009705002CORPORATION                                             21600
B0101403320471022984002PHILIPPINES                                             21600
B0101403320471031382001CLINIC                                                  21600
B0101410140475045534001THE NAME AND STY                                        21600
