B0101414120000001142818CAS PROPERTIES INC.                                      1602
A4101400260000011418181TUAZON, RUTH TURLA                                       0502
A0101400440000003671670RUTH L. GOZON                                            0501
A0101400440000003671670RUTH L. GOZON                                            0501
A0101400440161520766185FLORA S. CHUA                                            0501
A0101402350000011252741OLIVA, EVANGELINE COMIA                                  0501
B0101402350000000655492RD PAWNSHOP, INCORPORATED                                1605
B0101403320471024602001*********                                                1602
A0101400150000002902752FISCHER, JANICE TUMAMBING                                0501
A0101400600071308774001**********                                               0503
B0101400600071396921001**********                                               1605
A0101400440000011310140DE VERA, LORIBETH BAMBO                                  0502
A1901400290261248453001LEONARDO RETANA GARING                                  10501
A1901400290261248453001OR BUENA FLORES GARING                                  20500
A1901400290261248453001LEONARDO RETANA GARING                                  10501
A1901400290261248453001OR BUENA FLORES GARING                                  20500
A1901400290261390520001JOEL PUNZALAN DIMAANO                                    0502
A1901400290261515705001WILLIAM K UMALI                                          0501
A1101400120000006186741LATORRE, NOEL TAN DBU MEAT D                            10505
A1101400120000006186741SHRIMP RESTAURANT                                       20500
A6601400120000011286310MARTIRES, ROMMEL GAMAY OR                               10502
A6601400120000011286310MARTIRES, MHEL JOSEPH                                   20500
A6601400120000008490331APOSTOL, MELANIE DBU SKIN CARE                          10503
A6601400120000008490331DERMA & SPA CENTER JT                                   20500
A2401400180000012748671VINCAR MOTOR WORKS AND TRUCKING                         10502
A2401400180000012748671/FARM EQUIPMENT SERVICES                                20500
B2401400180411040003004BRIGADA MASS MEDIA CORPORATION                           1604
B2401400180411041890001BIOCIELO REALTY & DEVELOPMENT                           11601
B2401400180411041890001CORPORATION                                             21600
A2401400180411041996001BRIGADAROCK GARDEN RESORT                                0510
B2401400180000000019792BAYCOMMS BROADCASTING CORPORATION                        1601
B2401400180000007476886BRIGADA GROUP OF COMPANIES, INC.                         1615
A2401400180411362043001LIM, CYRIL CHRISTIAN YAP                                 0502
A2401400180411459008001SALES, LYNETH SALVAN OR                                 10501
A2401400180411459008001SALES JR., POTEN                                        20500
A2401400180000001676913***********                                              0501
A2401400180000001935913PERALES, EVARISTO TAN                                    0501
B0101403320471047674001MJ COMMODITY FLAVOR & SPICES INC.                        1605
A0101411790000006543342CHANDRA, FERDINAND                                       0502
A4101400420814015061002AUTO AIRE CAR AIRCON SERVICE                             0502
A4101400420814388902001PAGDALIAN, ANITA OCAMPO                                  0501
A4101400420814520766031GACOSTA, LORENZA N.                                      0502
A0101400860000010683253LAGRIMAS,GINENA O DBU ZED                               10502
A0101400860000010683253ALBERT PRINTING                                         20500
A0101400860011387017002**********                                               0503
A0101400860011425868001**********                                               0502
A0101400860011426836001*********                                                0502
A0101400860000010683264*************                                            0505
A0101400860011561618002**********                                               0501
A0101400860011782006001**************                                           0501
A0101401250021183870001CONCEPCION S. DEL VALLE                                  0501
B0101400150061010998001CITY INDUSTRIAL CORPORATION                              1602
A0101400150061077965057RENATO DEL ROSARIO JR.                                   0501
B0101400150061226312001PHILIPPINE INDUSTRIAL SECURITY                          11610
B0101400150061226312001AGENCY CORP.                                            21600
A0101400150061226884001AQUINO, MELISSA R.                                       0501
A0101400150061391947002MONTINOLA, JOSE MA. GO                                   0501
A0101400600071034263001*********                                                0502
B0101400600071236517002******                                                   1602
B0101400600071516450001********                                                 1601
A0101400600071582428001********                                                 0501
B0601400100000002099232SYSTEMS PLUS COLLEGE FOUNDATION                          1601
A0601400520000009516850LIMJOCO, MAYRA CAPITLI                                   0503
B0101413730000001253161*                                                        1601
A0101410560000010318264**********                                               0502
B0101400730111019171001RHINE FOODS CORPORATION                                  1601
B0101400730111037601001CATHOLIC TRAVEL, INC.                                    1601
A0101406040112733226001FRANCISCO DAVID OR                                      10502
A0101406040112733226001DELIA ADOLFO                                            20500
A0101401960000005392503GO, KEVIN IAN CUA                                        0501
A0101413150000003208335******                                                   0502
A0101413310000006870871BERNARDO, CHRISTOPHER MANALO                             0501
B0101401830000001281998RIVERA, RAMIL DBU ICON RBR                              11602
B0101401830000001281998GLASS AND ALUMIN                                        21600
A0101401830141205710001*****                                                    0503
A0101401830141225806001EDWIN P. GUAZON                                          0502
B5001400170000000045105UY, GODOFREDO YU OR UY, WILLIAM YU OR                   11601
B5001400170000000045105UY, ELSON QUIMBO                                        21600
A0101400440000001439885OBEDOZA, RODRIGO AGNES OR                               10502
A0101400440000001439885OBEDOZA, MAHA RITA ARABIA                               20500
A0101400440000001440055MARAVILLAS, FRANCES MAY IGNACIO                          0501
A0101400440000012169352NABONG, MARIE ADELLAINE CASTIGA                          0502
A0101400440161402508001MARIA MARGARITA A. ASUNCION                              0502
A0101407270000001597077KHRISTINE MARIE T. BRIONES                               0501
B0101407270162025781001BATTERY MASTER'S INCORPORATED                            1601
A0101407270162453493005DIANNE D. BENDANA                                        0502
A0101401090000009373931CO, EDNA ANTONIO                                         0501
A0101401090171195628004PUNSALAN, PATRIA PEREZ OR                               10501
A0101401090171195628004MAGLINAO, MA. LOURDES                                   20500
A0101401090171203461002LEAH SOCORRO N. RIVERA OR                               10504
A0101401090171203461002ESTELA RIVERA                                           20500
A0101401090171454869001ROWENA S. MANZARATE                                      0501
A0101401090171457732001MARCELA MILA D. DAYA                                     0501
A0301400660000002348490ROMERA, VICTOR CANINOCAN                                 0501
A0301400660000010221982BIALA, FLORIANA GARAY                                    0505
A0301400790000003969611BERSABAL, AGNES TUBANG OR                               10502
A0301400790000003969611BERSABAL, MARVIN                                        20500
A0301400790000001010573ANG, DANILO DEE OR LOPEZ,                               10501
A0301400790000001010573SUSANA ONG                                              20500
B0301400950000011415175BOOMIN' & BLOOMIN' BRAND INC.                            1601
B0101401380000003954461PLATINUM FANTASY AMUSEMENT CORP.                         1601
A0101401380000010190502********                                                 0501
A0101410720653173243001ARLENE MAE LIM OR DOLORES LIM                            0501
A0101410720653674611001TABIJE, JAY HANSEL INACAY                                0501
A0101412500000000739497TIO, ERNESTO OR TIO, MARY JANE                          10501
A0101412500000000739497NGO                                                     20500
A0101412500000002304723ARDIDON, NESTOR PANTONE                                  0501
A0101412500000003289872TY, HAROLD LIM                                           0501
A0101413600000005355200******                                                   0502
B3101400160221030751001BONNIE'S DINING SERVICES                                 1602
B3101400160221224760001R. LAPID'S CHICHARON                                     1601
A3101400160221419024001BELINDA DELOS SANTOS AWAT                                0501
B3101400450223035781001CEC-CON REALTY AND DEVELOPMENT CORP                      1605
A3101400450223356672002PANGHULAN, JORGE OR DERLY                                0501
A3101400450223588221001GATDULA, JAMAILA  OR AGONCILLO,                         10501
A3101400450223588221001JAYVEE OR JOSE                                          20500
A3101400740000000013776MANAIG, ALVIN CYRIL CHAN                                 0501
A3001400130000009103600ESCRIBIR, SANDRECS L DBU ABOVE                          10502
A3001400130000009103600& BEYOND TRAVEL & TOURS                                 20500
A3001400130000000067183CURITANA, COLEEN BARRIENTOS                              0502
B3001400130230749552001TING, MARIA THERESA GO                                   1603
A1001400190231520766115OTINGGEY, LORIE JANE SAJULGA                             0501
B1001400480000012715907TINGTING, JO-ANN BENDICIO DBU FRAN-FRAN                 11601
B1001400480000012715907TRADING                                                 21600
B1001400480000004097154SABAL HOSPITAL, INC.                                     1610
B1001400480000006296273SMART TECH INDUSTRIAL SALES & SERVICES                   1603
A1301400470000001299196PRECILLA DR. NADORA OR                                  10505
A1301400470000001299196REYNALDO E. NADORA                                      20500
B1301400760000000050773GG&G DISTRIBUTORS INC.                                   1610
A1901400290000005566054GARING, MARIA ELENA MANGUIAT                             0501
B1901400290261049824001BONLOU, INC.                                             1610
A1901400290261390520001JOEL PUNZALAN DIMAANO                                    0502
A1901400290261493025050MYLA M LALUNA                                            0502
A0101401670271380919001NACAGUE, MARY CHUA                                       0501
A0101401670271517856001CHUA, MICHELLE NACAGUE OR                               10501
A0101401670271517856001NACAGUE, MARY CHUA                                      20500
B0101406620000004595804JS UNITRADE MERCHANDISE INC.                             1603
A0101408660000000855881STO TOMAS, RACHEL CAROL TRAJANO                          0501
A0101410980275080729001**********                                               0501
B0101411110000000009032****************                                         1601
B0101411110000003202039*******                                                  1602
A0101411240000005136469SANTIAGO, MA. CORAZON DIZON DBU                         10501
A0101411240000005136469CORS ENTERPRISES                                        20500
A0801400160000002287603TUPAS, THOMAS EMMANUEL BALDESWI                          0502
B0801400160000000010260ILOILO SUPERMART, INC.                                   1601
A1101400120000002254877POTICANO, BERNARDO IGANA                                 0501
A1101400120000003197113SAYONG, JOSEAN ADVINCULA                                 0501
A1101400120000008000984DAGAMI, RHEA MAE ROSILLO                                 0501
A1101400120313478374014ANDALES, IMELDA A.                                       0501
A6601400120314536373001DY, THELMA BALENA OR                                    10510
A6601400120314536373001DY, CHARLIE BALENA                                      20500
A6601400120314615534001DY, CHARLIE OR DY, CARMELITA                             0505
A2001400290000011716755DUMALAG, ANTHONY TOLOMIA DBU                            10502
A2001400290000011716755ADS EDGE ADVERTI                                        20500
B20014002903150452920018 BULLS CONTRACTORS FEDERATION INCO                      1603
A3401400280000004958596ARCENAS, RICARDO ARNALDO DBU                            10501
A3401400280000004958596R.A. ARCENAS CONSTRUCTION                               20500
A2901400130000011947461TABERNILLA, IKE GONZALES                                 0501
A2901400130000005961395LIMA, ELAINE TRIESTE                                     0510
A0101402350000000521202CONCHE, DAVID SAN MIGUEL                                 0501
A0101402350321547888001GAMBOA, ERLINDA CORTEZ                                   0502
A0101405650322172570002********                                                 0501
B0101402510341020561001PHILIPPINE PHARMACISTS ASSOCIATION                       1602
B0101402510341020561003PHILIPPINE PHARMACISTS ASSOCIATION                       1601
A0101402060000009179520MARQUEZ, ROSEN BLUETH SALCEDO                            0502
B0101402060351026376001CW MARKETING & DEVELOPMENT CORPORATION                   1605
B0101402060351035807001SOLEREX WATER TECHNOLOGIES, INC.                         1610
B0101402060000000653890NEW EXCELSIOR GENERAL MERCHANDISING                      1601
A0101402060351414987003NOBLE, FELICISIMA CASANOVA                               0502
A0101409050000011558946LAGUYO, DANIEL ALFONSO INFANTAD                          0502
A0101409050000008491072ABANILLA, MINERVA NAVERA                                 0501
B0201400760000002309673**********                                               1601
B0201400760000000989706SORIANO, ADRIAN IBAY                                     1602
B02014007600000113254256ANILAD CEBU TRADECENTER, INC.                           1603
B0201400760374006430001CHRIST COMMISSION FOUNDATION INC.                        1602
B0201400760374047828001MTO TECHNOTRENDS INC.                                    1602
B0201400890376039788008XAVIERA HEIGHTS REALTY CORPORATION                       1602
A0101408370382234715003DR. ANTHONY RICHARD G. NUNEZ OR                         10503
A0101408370382234715003DR. IRMA G. TAN-NUNEZ                                   20500
A0101408370000000336172PASAMONTE, SOCORRO VILLABLANCA                           0501
A0101408370382423964001EVANGELINE A. AGUINALDO                                  0501
A0101408790000010423126FERRO, ANNA MARIA RHODORA V.                             0502
A0101415350000007878122LAGARTO, JOSEPHINE CUA                                   0501
A0101415350000013135563CHUA, LESTER ADRIANE CO                                  0501
A0101415350000013135745CHUA, LORENZ ARVIN CO                                    0501
A0101415350000013135825CHUA, MERILL PAMELA STEPHANIE S                          0501
A0101415350000013135881CHUA, PRISCILLA SIENA SEE                                0501
A0101415350000013136004CHUA, SUSAN SEE                                          0501
A0101415350000013136117GENERALAO, OSCAR DAYNOS                                  0501
A0101415350000013136180SEE, JENNIFER ANN LIM                                    0501
A0101415350000011336826GURTIZA, NIKO JAMES VIZCARRA                             0501
B0101405490392032515002DORALEX HARDWARE                                         1603
A0101405490392473716001RODRIGO C. SILVESTRE OR                                 10502
A0101405490392473716001MARLENE A. SILVESTRE                                    20500
A0101408400000010394259DIMAL, JAIMILA LACSON                                    0502
B0101408400000013140282DIMAL, JAIMILA LACSON AND ZAPATA, MARIA                 11606
B0101408400000013140282BERNADITA                                               21600
A0101408950000006142707CAPULE, SHARON                                           0505
A0101408950000004512014BULSECO, KATRINA SINGSON                                 0501
B0101408950396046715001********                                                 1603
A0101408950396420560001MICHAEL LIM VILLA OR PATRICIA                           10503
A0101408950396420560001YUKIJI JAVIER VILLA                                     20500
A0101409180000003780421ESPERANZA LUZ BUNI                                       0503
B0101409180000000036644THE TABLE GROUP, INC.                                    1615
A0301400820000010546580LEGASPO, JACQUELINE CHAN DBU                            10504
A0301400820000010546580JJL RICE MILL                                           20500
B0301400820409091735055LIMA, WINDELL BRISTOL DBU DAVAO HOME                    11602
B0301400820409091735055BUILDERS CENTER                                         21600
B5501400120000007963413JBJAVELLANA VETERINARY SUPPLIES, IN                      1610
A5501400120410633077001CLAVISILLAS, JOSIE OR                                   10501
A5501400120410633077001CLAVISILLAS, RON                                        20500
A2401400180000002146287BAUTISTA, WEDELIZA DIOQUINO                              0502
A2401400180411565090001TALANA, JHONA ARCENAS                                    0501
A0901400220432478374002EVELYN ALGA DEMECILLO                                    0501
A0101403320000004831043BERNARDO, MARIETTA DILIG                                 0501
A0101403320000012691500PACIFICAR PLASTIC PRODUCT                                0502
A0101403320471210060001ALFONSO BUTIL                                            0501
A0101403320471311190002*****                                                    0505
A0101403320471560880001REYNALDO JAMERO SANTIAGO JR.                            10501
A0101403320471560880001OR JOCELYN V. SANTIAGO                                  20500
A0101406330472666344001MA. THERESA C. SALONGA                                   0502
A0501400170481033355001GOLDEN TIES AND FOOD                                    10501
A0501400170481033355001RESOURCES INC.                                          20500
A0501400170000006300629GAZMEN, ARNEL GERARD RAYOS                               0503
A0501400170481542622001GARCIA, PRECY OR LOMBOY, PERLA                          10503
A0501400170481542622001OR QUINTO JR., A                                        20500
B1901400160491341189001VIRGINIA V LIM OR                                       11601
B1901400160491341189001RICHARD D LIM                                           21600
A0101407430000001028897JOVITO G. FERNANDEZ                                      0501
B0101407430503033837001SKYLOAD INC.                                             1602
B0101407430000001213001MILLENNIUM OCEAN STAR CORPORATION                        1602
B0101407430000008901268MILLENNIUM OCEAN STAR CORPORATION                        1602
A0101408530000000136310MIRABUENO, PIERRE PAULINE                               10504
A0101408530000000136310RIVERA                                                  20500
A0101408530000002980692ARCOS, MARIA TERESA CENAR OR                            10502
A0101408530000002980692ARCOS, GILBERT T                                        20500
A0101408530516615903001TRACY ELINOR AGUIRRE                                     0502
A0101411790000012589994MAGDALUYO, PATRICIA SUSANA OR                           10501
A0101411790000012589994MAGDALUYO, RAYMUND                                      20500
B0101411790518046887002SCOTT PARK GROUP PHILIPPINES INC.                        1602
A0101411790518055815102RENOMERON, JASON BUGHO                                   0501
A0101403450521361573003PO, CHRISTOPHER OR CHAO, DENISE                         10501
A0101403450521361573003POLLY                                                   20500
A0101403450521389380001**********                                               0501
B0101403610000012969816GERODIAS, JARDINE MUYOT JT                               1601
A0101403610000012973138GERODIAS, MARIA LUISA MUYOT OR                          10501
A0101403610000012973138SLAGLE, JENILEE GERODIAS                                20500
A0101403610531047237001SAEZ, NORA DBU                                          10505
A0101403610531047237001PRECIOUS EYE OPTICAL                                    20500
A0101403610531211881002VILLANUEVA JR., AUGUSTO                                 10501
A0101403610531211881002QUISUMBING                                              20500
A2201400250000013014710PETER ANDREW A. MAQUIRAN                                 0501
A2201400250000009019892FROSTVILLE ICE CANDY                                     0501
A0101404130000005962252CU, ANGELITO DEQUINA                                     0501
B0101404130601025193001ARMORTECH INT'L TRANSPORTER CORP.                        1602
B0101404130000005961982IMALVAR REALTY CORPORATION                               1602
A0101407720000009414028MERIALES, MARIA ZITA ZAGALA                              0502
A0101407720602404060001MARZO, MARIA ROWENA FERNANDEZ                            0502
A0101409890000006277730QIU, LIAO OR DE JESUS, WILTON                            0501
B0101409890000002136498**********                                               1601
B0101409890000006812757**********                                               1601
A0101409920000007304914RUBIS JR., AMADOR CASTILLO                               0501
A0101409920000009981548ABDON, FEDILITA ROSARIO                                  0502
A0101407690000012226765ZARSADIAS, RANDY ARGUELLES                               0501
A0101414120000011765058EBRO, JOMARIE ASUNCION                                   0502
B0101414120000003584309PERIDOT PARTS SALES & SUPPLY INC.                        1601
B0101414120000007655378ABMARAC CORPORATION                                      1601
B0101414120000007655403INFINITE EDGE CONSTRUCTION, INC.                         1604
A0101410300000003290111TENCHAVEZ, ROBERT GERARD BASA                            0502
A0101410300000007614219MELCHOR, GISELA MILLAR                                   0501
A0101410300000005237667BORJA, OSCAR ANGELO TOMIMBANG                           10501
A0101410300000005237667BORJA, OSCAR ANGELO T.                                  20500
A1301400500000011254550CAREN V. RUBIO OR                                       10501
A1301400500000011254550RAYMOND B. RUBIO                                        20500
B1301400500684037591001UPLIFT PHILIPPINES, INC.,                                1605
B0101408240000002419930GCHS PROJECT BLESS FOUNDATION INC.                       1601
A0101408240000005740694ECHON, RAY VILLETA                                       0503
B0101408240000013133447RAY V. ECHON CONSTRUCTION                                1603
B0101408240711027637001LLL HOLDINGS, INC.                                       1602
B0101408240711041773001GCHS BATCH 71                                            1601
B0101408240711041773002GCHS BATCH 71                                            1601
B0101408240711043680001OCEANLINK TANKERS INCORPORATED                           1605
B0101408240000000832495MARINELIFT SHIPYARD AND REPAIR INC.                      1603
B0101408240000003501475TERRAFIRMA HOLDINGS INC.                                 1602
B0101408240711506595001EQUASIS LOGISTICS INCORPORATED                           1602
A4101400260000000377479PETALCO, BABELITO V. OR                                 10501
A4101400260000000377479PETALCO, VIRGILI                                        20500
A4101400390000000379102BRUEL, CELEDONIO METRILLO                                0505
A4101400390813478374003ELANE A. AUXTERO                                         0501
A4101400390813478374014ELIZABETH V. EVAL                                        0502
A4101400390813772387001MILLEVO, NIKKI ANDES                                     0502
A4101400420814477593003BAUTISTA, TERESA PONCEJA                                 0502
A0101412340000003343962SYLVESTER M. JUSTO                                       0501
A0101412340000003718887MICHAEL LEO P. CABAL                                     0501
B0101412340850047478001HTECH CORPORATION                                        1602
A0101404840000010969330CARREON, RACHELLE MANALO                                 0501
B0101404840851000820001SMART BANK (RURAL BANK), INC.                            1601
A0101404840851316655013NAPOLEON N. ESCALONA, JR.                                0501
A0101404840851317230013NICOLAS C. AURE                                          0501
A0101404840851334120001MARY ANN R. PANGAN OR                                   10501
A0101404840851334120001JOHN NOEL PANGAN                                        20500
A0101405070000005619354BARRERA, BERNARD PAGUIRIGAN                              0502
A0601400230000002310092PARAFINA, LORENZA ALIPIO                                 0501
